{
  "_format": "hh-sol-artifact-1",
  "contractName": "ExperienceRegistry",
  "sourceName": "contracts/experience/ExperienceRegistry.sol",
  "abi": [
    {
      "inputs": [
        {
          "components": [
            {
              "internalType": "address",
              "name": "mainAdmin",
              "type": "address"
            },
            {
              "internalType": "address",
              "name": "experienceFactory",
              "type": "address"
            },
            {
              "internalType": "address",
              "name": "compRegistry",
              "type": "address"
            },
            {
              "internalType": "address",
              "name": "portRegistry",
              "type": "address"
            },
            {
              "internalType": "address[]",
              "name": "admins",
              "type": "address[]"
            }
          ],
          "internalType": "struct ExperienceRegistryConstructorArgs",
          "name": "args",
          "type": "tuple"
        }
      ],
      "stateMutability": "nonpayable",
      "type": "constructor"
    },
    {
      "inputs": [],
      "name": "AccessControlBadConfirmation",
      "type": "error"
    },
    {
      "inputs": [
        {
          "internalType": "address",
          "name": "account",
          "type": "address"
        },
        {
          "internalType": "bytes32",
          "name": "neededRole",
          "type": "bytes32"
        }
      ],
      "name": "AccessControlUnauthorizedAccount",
      "type": "error"
    },
    {
      "inputs": [],
      "name": "ReentrancyGuardReentrantCall",
      "type": "error"
    },
    {
      "anonymous": false,
      "inputs": [
        {
          "indexed": true,
          "internalType": "address",
          "name": "world",
          "type": "address"
        },
        {
          "indexed": true,
          "internalType": "address",
          "name": "company",
          "type": "address"
        },
        {
          "indexed": true,
          "internalType": "address",
          "name": "experience",
          "type": "address"
        },
        {
          "indexed": false,
          "internalType": "string",
          "name": "name",
          "type": "string"
        }
      ],
      "name": "ExperienceRegistered",
      "type": "event"
    },
    {
      "anonymous": false,
      "inputs": [
        {
          "indexed": true,
          "internalType": "bytes32",
          "name": "role",
          "type": "bytes32"
        },
        {
          "indexed": true,
          "internalType": "bytes32",
          "name": "previousAdminRole",
          "type": "bytes32"
        },
        {
          "indexed": true,
          "internalType": "bytes32",
          "name": "newAdminRole",
          "type": "bytes32"
        }
      ],
      "name": "RoleAdminChanged",
      "type": "event"
    },
    {
      "anonymous": false,
      "inputs": [
        {
          "indexed": true,
          "internalType": "bytes32",
          "name": "role",
          "type": "bytes32"
        },
        {
          "indexed": true,
          "internalType": "address",
          "name": "account",
          "type": "address"
        },
        {
          "indexed": true,
          "internalType": "address",
          "name": "sender",
          "type": "address"
        }
      ],
      "name": "RoleGranted",
      "type": "event"
    },
    {
      "anonymous": false,
      "inputs": [
        {
          "indexed": true,
          "internalType": "bytes32",
          "name": "role",
          "type": "bytes32"
        },
        {
          "indexed": true,
          "internalType": "address",
          "name": "account",
          "type": "address"
        },
        {
          "indexed": true,
          "internalType": "address",
          "name": "sender",
          "type": "address"
        }
      ],
      "name": "RoleRevoked",
      "type": "event"
    },
    {
      "inputs": [],
      "name": "ADMIN_ROLE",
      "outputs": [
        {
          "internalType": "bytes32",
          "name": "",
          "type": "bytes32"
        }
      ],
      "stateMutability": "view",
      "type": "function"
    },
    {
      "inputs": [],
      "name": "DEFAULT_ADMIN_ROLE",
      "outputs": [
        {
          "internalType": "bytes32",
          "name": "",
          "type": "bytes32"
        }
      ],
      "stateMutability": "view",
      "type": "function"
    },
    {
      "inputs": [],
      "name": "currentExperienceVersion",
      "outputs": [
        {
          "internalType": "uint256",
          "name": "",
          "type": "uint256"
        }
      ],
      "stateMutability": "view",
      "type": "function"
    },
    {
      "inputs": [
        {
          "internalType": "address",
          "name": "exp",
          "type": "address"
        }
      ],
      "name": "getExperienceByAddress",
      "outputs": [
        {
          "components": [
            {
              "internalType": "address",
              "name": "company",
              "type": "address"
            },
            {
              "internalType": "address",
              "name": "world",
              "type": "address"
            },
            {
              "internalType": "contract IExperience",
              "name": "experience",
              "type": "address"
            },
            {
              "internalType": "uint256",
              "name": "portalId",
              "type": "uint256"
            }
          ],
          "internalType": "struct ExperienceInfo",
          "name": "",
          "type": "tuple"
        }
      ],
      "stateMutability": "view",
      "type": "function"
    },
    {
      "inputs": [
        {
          "components": [
            {
              "internalType": "string",
              "name": "x",
              "type": "string"
            },
            {
              "internalType": "string",
              "name": "y",
              "type": "string"
            },
            {
              "internalType": "string",
              "name": "z",
              "type": "string"
            },
            {
              "internalType": "uint256",
              "name": "t",
              "type": "uint256"
            },
            {
              "internalType": "uint256",
              "name": "p",
              "type": "uint256"
            },
            {
              "internalType": "uint256",
              "name": "p_sub",
              "type": "uint256"
            }
          ],
          "internalType": "struct VectorAddress",
          "name": "vector",
          "type": "tuple"
        }
      ],
      "name": "getExperienceByVector",
      "outputs": [
        {
          "components": [
            {
              "internalType": "address",
              "name": "company",
              "type": "address"
            },
            {
              "internalType": "address",
              "name": "world",
              "type": "address"
            },
            {
              "internalType": "contract IExperience",
              "name": "experience",
              "type": "address"
            },
            {
              "internalType": "uint256",
              "name": "portalId",
              "type": "uint256"
            }
          ],
          "internalType": "struct ExperienceInfo",
          "name": "",
          "type": "tuple"
        }
      ],
      "stateMutability": "view",
      "type": "function"
    },
    {
      "inputs": [
        {
          "internalType": "string",
          "name": "name",
          "type": "string"
        }
      ],
      "name": "getExperiencesByName",
      "outputs": [
        {
          "components": [
            {
              "internalType": "address",
              "name": "company",
              "type": "address"
            },
            {
              "internalType": "address",
              "name": "world",
              "type": "address"
            },
            {
              "internalType": "contract IExperience",
              "name": "experience",
              "type": "address"
            },
            {
              "internalType": "uint256",
              "name": "portalId",
              "type": "uint256"
            }
          ],
          "internalType": "struct ExperienceInfo",
          "name": "",
          "type": "tuple"
        }
      ],
      "stateMutability": "view",
      "type": "function"
    },
    {
      "inputs": [
        {
          "internalType": "bytes32",
          "name": "role",
          "type": "bytes32"
        }
      ],
      "name": "getRoleAdmin",
      "outputs": [
        {
          "internalType": "bytes32",
          "name": "",
          "type": "bytes32"
        }
      ],
      "stateMutability": "view",
      "type": "function"
    },
    {
      "inputs": [
        {
          "internalType": "bytes32",
          "name": "role",
          "type": "bytes32"
        },
        {
          "internalType": "address",
          "name": "account",
          "type": "address"
        }
      ],
      "name": "grantRole",
      "outputs": [],
      "stateMutability": "nonpayable",
      "type": "function"
    },
    {
      "inputs": [
        {
          "internalType": "bytes32",
          "name": "role",
          "type": "bytes32"
        },
        {
          "internalType": "address",
          "name": "account",
          "type": "address"
        }
      ],
      "name": "hasRole",
      "outputs": [
        {
          "internalType": "bool",
          "name": "",
          "type": "bool"
        }
      ],
      "stateMutability": "view",
      "type": "function"
    },
    {
      "inputs": [
        {
          "internalType": "address",
          "name": "exp",
          "type": "address"
        }
      ],
      "name": "isExperience",
      "outputs": [
        {
          "internalType": "bool",
          "name": "",
          "type": "bool"
        }
      ],
      "stateMutability": "view",
      "type": "function"
    },
    {
      "inputs": [
        {
          "components": [
            {
              "components": [
                {
                  "internalType": "string",
                  "name": "x",
                  "type": "string"
                },
                {
                  "internalType": "string",
                  "name": "y",
                  "type": "string"
                },
                {
                  "internalType": "string",
                  "name": "z",
                  "type": "string"
                },
                {
                  "internalType": "uint256",
                  "name": "t",
                  "type": "uint256"
                },
                {
                  "internalType": "uint256",
                  "name": "p",
                  "type": "uint256"
                },
                {
                  "internalType": "uint256",
                  "name": "p_sub",
                  "type": "uint256"
                }
              ],
              "internalType": "struct VectorAddress",
              "name": "vector",
              "type": "tuple"
            },
            {
              "internalType": "bytes",
              "name": "initData",
              "type": "bytes"
            },
            {
              "internalType": "string",
              "name": "name",
              "type": "string"
            }
          ],
          "internalType": "struct RegisterExperienceRequest",
          "name": "request",
          "type": "tuple"
        }
      ],
      "name": "registerExperience",
      "outputs": [
        {
          "internalType": "address",
          "name": "",
          "type": "address"
        },
        {
          "internalType": "uint256",
          "name": "",
          "type": "uint256"
        }
      ],
      "stateMutability": "nonpayable",
      "type": "function"
    },
    {
      "inputs": [
        {
          "internalType": "bytes32",
          "name": "role",
          "type": "bytes32"
        },
        {
          "internalType": "address",
          "name": "callerConfirmation",
          "type": "address"
        }
      ],
      "name": "renounceRole",
      "outputs": [],
      "stateMutability": "nonpayable",
      "type": "function"
    },
    {
      "inputs": [
        {
          "internalType": "bytes32",
          "name": "role",
          "type": "bytes32"
        },
        {
          "internalType": "address",
          "name": "account",
          "type": "address"
        }
      ],
      "name": "revokeRole",
      "outputs": [],
      "stateMutability": "nonpayable",
      "type": "function"
    },
    {
      "inputs": [
        {
          "internalType": "contract ICompanyRegistry",
          "name": "reg",
          "type": "address"
        }
      ],
      "name": "setCompanyRegistry",
      "outputs": [],
      "stateMutability": "nonpayable",
      "type": "function"
    },
    {
      "inputs": [
        {
          "internalType": "address",
          "name": "factory",
          "type": "address"
        }
      ],
      "name": "setExperienceFactory",
      "outputs": [],
      "stateMutability": "nonpayable",
      "type": "function"
    },
    {
      "inputs": [
        {
          "internalType": "contract IPortalRegistry",
          "name": "reg",
          "type": "address"
        }
      ],
      "name": "setPortalRegistry",
      "outputs": [],
      "stateMutability": "nonpayable",
      "type": "function"
    },
    {
      "inputs": [
        {
          "internalType": "bytes4",
          "name": "interfaceId",
          "type": "bytes4"
        }
      ],
      "name": "supportsInterface",
      "outputs": [
        {
          "internalType": "bool",
          "name": "",
          "type": "bool"
        }
      ],
      "stateMutability": "view",
      "type": "function"
    },
    {
      "inputs": [
        {
          "internalType": "bytes",
          "name": "initData",
          "type": "bytes"
        }
      ],
      "name": "upgradeExperience",
      "outputs": [],
      "stateMutability": "nonpayable",
      "type": "function"
    }
  ],
  "bytecode": "0x60806040523480156200001157600080fd5b5060405162002075380380620020758339810160408190526200003491620004d8565b600160005580516001600160a01b0316620000b15760405162461bcd60e51b815260206004820152603260248201527f457870657269656e636552656769737472793a206d61696e2061646d696e206160448201527106464726573732063616e6e6f7420626520360741b60648201526084015b60405180910390fd5b60408101516001600160a01b0316620001335760405162461bcd60e51b815260206004820152603860248201527f457870657269656e636552656769737472793a20636f6d70616e79207265676960448201527f7374727920616464726573732063616e6e6f74206265203000000000000000006064820152608401620000a8565b60608101516001600160a01b0316620001b55760405162461bcd60e51b815260206004820152603760248201527f457870657269656e636552656769737472793a20706f7274616c20726567697360448201527f74727920616464726573732063616e6e6f7420626520300000000000000000006064820152608401620000a8565b60208101516001600160a01b0316620002375760405162461bcd60e51b815260206004820152603a60248201527f457870657269656e636552656769737472793a20657870657269656e6365206660448201527f6163746f727920616464726573732063616e6e6f7420626520300000000000006064820152608401620000a8565b6040810151600280546001600160a01b039283166001600160a01b03199182161790915560608301516003805491841691831691909117905560208301516004805491909316911617905580516200029290600090620003b0565b508051620002b1906000805160206200205583398151915290620003b0565b5060005b816080015151811015620003a85760006001600160a01b031682608001518281518110620002e757620002e76200060e565b60200260200101516001600160a01b0316036200035d5760405162461bcd60e51b815260206004820152602d60248201527f457870657269656e636552656769737472793a2061646d696e2061646472657360448201526c0732063616e6e6f74206265203609c1b6064820152608401620000a8565b6200039e60008051602062002055833981519152836080015183815181106200038a576200038a6200060e565b6020026020010151620003b060201b60201c565b50600101620002b5565b505062000624565b60008281526001602090815260408083206001600160a01b038516845290915281205460ff166200043d5760008381526001602081815260408084206001600160a01b0387168086529252808420805460ff19169093179092559051339286917f2f8788117e7eff1d82e926ec794901d17c78024a50270940304540a733656f0d9190a450600162000441565b5060005b92915050565b634e487b7160e01b600052604160045260246000fd5b60405160a081016001600160401b038111828210171562000482576200048262000447565b60405290565b604051601f8201601f191681016001600160401b0381118282101715620004b357620004b362000447565b604052919050565b80516001600160a01b0381168114620004d357600080fd5b919050565b60006020808385031215620004ec57600080fd5b82516001600160401b03808211156200050457600080fd5b9084019060a082870312156200051957600080fd5b620005236200045d565b6200052e83620004bb565b81526200053d848401620004bb565b848201526200054f60408401620004bb565b60408201526200056260608401620004bb565b60608201526080830151828111156200057a57600080fd5b80840193505086601f8401126200059057600080fd5b825182811115620005a557620005a562000447565b8060051b9250620005b885840162000488565b8181529284018501928581019089851115620005d357600080fd5b948601945b84861015620005fc57620005ec86620004bb565b82529486019490860190620005d8565b60808401525090979650505050505050565b634e487b7160e01b600052603260045260246000fd5b611a2180620006346000396000f3fe608060405234801561001057600080fd5b50600436106101165760003560e01c80636120303a116100a2578063a217fddf11610071578063a217fddf146102b9578063d0198bf1146102c1578063d1c76213146102d4578063d547741f14610357578063e98715f41461036a57600080fd5b80636120303a1461026b5780636d941fe71461027e57806375b238fc1461029157806391d14854146102a657600080fd5b806326228630116100e957806326228630146101fa5780632f2ff15d146102285780632f5d253a1461023d57806332ab79f81461024557806336568abe1461025857600080fd5b806301ffc9a71461011b5780630ce5304f146101435780631305f01714610196578063248a9ca3146101c8575b600080fd5b61012e610129366004611262565b61037d565b60405190151581526020015b60405180910390f35b6101566101513660046113ac565b6103b4565b6040805182516001600160a01b0390811682526020808501518216908301528383015116918101919091526060918201519181019190915260800161013a565b6101a96101a436600461149b565b610443565b604080516001600160a01b03909316835260208301919091520161013a565b6101ec6101d6366004611564565b6000908152600160208190526040909120015490565b60405190815260200161013a565b61012e610208366004611592565b6001600160a01b0390811660009081526006602052604090205416151590565b61023b6102363660046115af565b610a84565b005b6101ec610ab0565b6101566102533660046115df565b610b2e565b61023b6102663660046115af565b610bdb565b61023b610279366004611592565b610c13565b61023b61028c366004611614565b610c74565b6101ec6000805160206119cc83398151915281565b61012e6102b43660046115af565b610d6c565b6101ec600081565b61023b6102cf366004611592565b610d97565b6101566102e2366004611592565b60408051608080820183526000808352602080840182905283850182905260609384018290526001600160a01b03958616825260068152908490208451928301855280548616835260018101548616918301919091526002810154909416928101929092526003909201549181019190915290565b61023b6103653660046115af565b610df8565b61023b610378366004611592565b610e1e565b60006001600160e01b03198216637965db0b60e01b14806103ae57506301ffc9a760e01b6001600160e01b03198316145b92915050565b60408051608081018252600080825260208201819052918101829052606081019190915260076103e383610e7f565b6040516103f091906116aa565b90815260408051918290036020908101832060808401835280546001600160a01b039081168552600182015481169285019290925260028101549091169183019190915260030154606082015292915050565b600254604051632405672560e21b815233600482015260009182916001600160a01b03909116906390159c9490602401602060405180830381865afa158015610490573d6000803e3d6000fd5b505050506040513d601f19601f820116820180604052508101906104b491906116c6565b6105195760405162461bcd60e51b815260206004820152602b60248201527f457870657269656e636552656769737472793a2063616c6c6572206973206e6f60448201526a74206120636f6d70616e7960a81b60648201526084015b60405180910390fd5b610521610eef565b600033905060006105358560400151610e7f565b905060006001600160a01b031660078260405161055291906116aa565b908152604051908190036020019020546001600160a01b0316146105d35760405162461bcd60e51b815260206004820152603260248201527f457870657269656e636552656769737472793a20657870657269656e6365206e604482015271616d6520616c72656164792065786973747360701b6064820152608401610510565b60048054604080880151885160208a015192516364ee8f7560e11b81526000956001600160a01b039095169463c9dd1eea946106159433949093909201611714565b6020604051808303816000875af1158015610634573d6000803e3d6000fd5b505050506040513d601f19601f8201168201806040525081019061065891906117c5565b905060006106698760000151610f19565b60405160200161067991906117e2565b6040516020818303038152906040528051906020012090506000600360009054906101000a90046001600160a01b03166001600160a01b0316633c3f5ff46040518060400160405280866001600160a01b03168152602001866001600160a01b031663072ea61c6040518163ffffffff1660e01b8152600401602060405180830381865afa15801561070f573d6000803e3d6000fd5b505050506040513d601f19601f8201168201806040525081019061073391906117f5565b90526040516001600160e01b031960e084901b16815281516001600160a01b0316600482015260209091015160248201526044016020604051808303816000875af1158015610786573d6000803e3d6000fd5b505050506040513d601f19601f820116820180604052508101906107aa91906117f5565b905060006040518060800160405280336001600160a01b03168152602001876001600160a01b03166330b67baa6040518163ffffffff1660e01b8152600401602060405180830381865afa158015610806573d6000803e3d6000fd5b505050506040513d601f19601f8201168201806040525081019061082a91906117c5565b6001600160a01b03908116825286811660208084018290526040938401879052600088815260058252848120865181549086166001600160a01b0319918216178255878401805160018085018054928a1692851692909217909155898901805160028087018054928c169287169290921790915560608c0180516003978801559887526006909752948990208a518154908a1690851617815591519082018054918916918416919091179055925193830180549490961693169290921790935590519101555190915081906007906109039088906116aa565b9081526040805160209281900383018120845181546001600160a01b03199081166001600160a01b039283161783558686015160018401805483169184169190911790558685015160028401805490921690831617905560609095015160039091015563185b3dd560e11b81529051878416933393908b16926330b67baa92600480830193928290030181865afa1580156109a2573d6000803e3d6000fd5b505050506040513d601f19601f820116820180604052508101906109c691906117c5565b6001600160a01b03167f2b2a22b18e2544cb9df2bb21935349da235cfb5a5d3c12e083c2e4b7973d7d89876001600160a01b03166306fdde036040518163ffffffff1660e01b8152600401600060405180830381865afa158015610a2e573d6000803e3d6000fd5b505050506040513d6000823e601f3d908101601f19168201604052610a56919081019061180e565b604051610a6391906117e2565b60405180910390a450919550909350505050610a7f6001600055565b915091565b60008281526001602081905260409091200154610aa081610f7c565b610aaa8383610f89565b50505050565b6000600460009054906101000a90046001600160a01b03166001600160a01b031663e921c2756040518163ffffffff1660e01b8152600401602060405180830381865afa158015610b05573d6000803e3d6000fd5b505050506040513d601f19601f82011682018060405250810190610b2991906117f5565b905090565b60408051608081018252600080825260208201819052918101829052606081019190915260056000610b5f84610f19565b604051602001610b6f91906117e2565b60408051601f198184030181529181528151602092830120835282820193909352908201600020825160808101845281546001600160a01b0390811682526001830154811693820193909352600282015490921692820192909252600390910154606082015292915050565b6001600160a01b0381163314610c045760405163334bd91960e11b815260040160405180910390fd5b610c0e8282611002565b505050565b6000805160206119cc833981519152610c2b81610f7c565b6001600160a01b038216610c515760405162461bcd60e51b815260040161051090611885565b50600280546001600160a01b0319166001600160a01b0392909216919091179055565b336000908152600660205260409020546001600160a01b0316610cf15760405162461bcd60e51b815260206004820152602f60248201527f457870657269656e636552656769737472793a2063616c6c6572206973206e6f60448201526e7420616e20657870657269656e636560881b6064820152608401610510565b610cf9610eef565b6004805460405163db70a69360e01b81526001600160a01b039091169163db70a69391610d2c91339187918791016118cf565b600060405180830381600087803b158015610d4657600080fd5b505af1158015610d5a573d6000803e3d6000fd5b50505050610d686001600055565b5050565b60009182526001602090815260408084206001600160a01b0393909316845291905290205460ff1690565b6000805160206119cc833981519152610daf81610f7c565b6001600160a01b038216610dd55760405162461bcd60e51b815260040161051090611885565b50600380546001600160a01b0319166001600160a01b0392909216919091179055565b60008281526001602081905260409091200154610e1481610f7c565b610aaa8383611002565b6000805160206119cc833981519152610e3681610f7c565b6001600160a01b038216610e5c5760405162461bcd60e51b815260040161051090611885565b50600480546001600160a01b0319166001600160a01b0392909216919091179055565b60608160005b8151811015610ee857610eb7828281518110610ea357610ea361190f565b01602001516001600160f81b03191661106f565b828281518110610ec957610ec961190f565b60200101906001600160f81b031916908160001a905350600101610e85565b5092915050565b600260005403610f1257604051633ee5aeb560e01b815260040160405180910390fd5b6002600055565b6060816000015182602001518360400151610f3785606001516110be565b610f4486608001516110be565b610f518760a001516110be565b604051602001610f6696959493929190611925565b6040516020818303038152906040529050919050565b610f868133611151565b50565b6000610f958383610d6c565b610ffa5760008381526001602081815260408084206001600160a01b0387168086529252808420805460ff19169093179092559051339286917f2f8788117e7eff1d82e926ec794901d17c78024a50270940304540a733656f0d9190a45060016103ae565b5060006103ae565b600061100e8383610d6c565b15610ffa5760008381526001602090815260408083206001600160a01b0386168085529252808320805460ff1916905551339286917ff6391f5c32d9c69d2a47ea670b442974b53935d1edc7fd64eb21e047a839171b9190a45060016103ae565b6000604160f81b6001600160f81b031983161080159061109d5750602d60f91b6001600160f81b0319831611155b156110ba576110b160f883901c60206119a4565b60f81b92915050565b5090565b606060006110cb8361118a565b600101905060008167ffffffffffffffff8111156110eb576110eb611293565b6040519080825280601f01601f191660200182016040528015611115576020820181803683370190505b5090508181016020015b600019016f181899199a1a9b1b9c1cb0b131b232b360811b600a86061a8153600a850494508461111f57509392505050565b61115b8282610d6c565b610d685760405163e2517d3f60e01b81526001600160a01b038216600482015260248101839052604401610510565b60008072184f03e93ff9f4daa797ed6e38ed64bf6a1f0160401b83106111c95772184f03e93ff9f4daa797ed6e38ed64bf6a1f0160401b830492506040015b6d04ee2d6d415b85acef810000000083106111f5576d04ee2d6d415b85acef8100000000830492506020015b662386f26fc10000831061121357662386f26fc10000830492506010015b6305f5e100831061122b576305f5e100830492506008015b612710831061123f57612710830492506004015b60648310611251576064830492506002015b600a83106103ae5760010192915050565b60006020828403121561127457600080fd5b81356001600160e01b03198116811461128c57600080fd5b9392505050565b634e487b7160e01b600052604160045260246000fd5b60405160c0810167ffffffffffffffff811182821017156112cc576112cc611293565b60405290565b6040516060810167ffffffffffffffff811182821017156112cc576112cc611293565b604051601f8201601f1916810167ffffffffffffffff8111828210171561131e5761131e611293565b604052919050565b600067ffffffffffffffff82111561134057611340611293565b50601f01601f191660200190565b600061136161135c84611326565b6112f5565b905082815283838301111561137557600080fd5b828260208301376000602084830101529392505050565b600082601f83011261139d57600080fd5b61128c8383356020850161134e565b6000602082840312156113be57600080fd5b813567ffffffffffffffff8111156113d557600080fd5b6113e18482850161138c565b949350505050565b600060c082840312156113fb57600080fd5b6114036112a9565b9050813567ffffffffffffffff8082111561141d57600080fd5b6114298583860161138c565b8352602084013591508082111561143f57600080fd5b61144b8583860161138c565b6020840152604084013591508082111561146457600080fd5b506114718482850161138c565b604083015250606082013560608201526080820135608082015260a082013560a082015292915050565b6000602082840312156114ad57600080fd5b813567ffffffffffffffff808211156114c557600080fd5b90830190606082860312156114d957600080fd5b6114e16112d2565b8235828111156114f057600080fd5b6114fc878286016113e9565b82525060208301358281111561151157600080fd5b8301601f8101871361152257600080fd5b6115318782356020840161134e565b60208301525060408301358281111561154957600080fd5b6115558782860161138c565b60408301525095945050505050565b60006020828403121561157657600080fd5b5035919050565b6001600160a01b0381168114610f8657600080fd5b6000602082840312156115a457600080fd5b813561128c8161157d565b600080604083850312156115c257600080fd5b8235915060208301356115d48161157d565b809150509250929050565b6000602082840312156115f157600080fd5b813567ffffffffffffffff81111561160857600080fd5b6113e1848285016113e9565b6000806020838503121561162757600080fd5b823567ffffffffffffffff8082111561163f57600080fd5b818501915085601f83011261165357600080fd5b81358181111561166257600080fd5b86602082850101111561167457600080fd5b60209290920196919550909350505050565b60005b838110156116a1578181015183820152602001611689565b50506000910152565b600082516116bc818460208701611686565b9190910192915050565b6000602082840312156116d857600080fd5b8151801515811461128c57600080fd5b60008151808452611700816020860160208601611686565b601f01601f19169290920160200192915050565b6001600160a01b0385168152608060208201819052600090611738908301866116e8565b8281036040840152845160c0825261175360c08301826116e8565b90506020860151828203602084015261176c82826116e8565b9150506040860151828203604084015261178682826116e8565b915050606086015160608301526080860151608083015260a086015160a083015283810360608501526117b981866116e8565b98975050505050505050565b6000602082840312156117d757600080fd5b815161128c8161157d565b60208152600061128c60208301846116e8565b60006020828403121561180757600080fd5b5051919050565b60006020828403121561182057600080fd5b815167ffffffffffffffff81111561183757600080fd5b8201601f8101841361184857600080fd5b805161185661135c82611326565b81815285602083850101111561186b57600080fd5b61187c826020830160208601611686565b95945050505050565b6020808252602a908201527f457870657269656e636552656769737472793a207a65726f2061646472657373604082015269081b9bdd081d985b1a5960b21b606082015260800190565b6001600160a01b03841681526040602082018190528101829052818360608301376000818301606090810191909152601f909201601f1916010192915050565b634e487b7160e01b600052603260045260246000fd5b6000875160206119388285838d01611686565b88519184019161194b8184848d01611686565b885192019161195d8184848c01611686565b875192019161196f8184848b01611686565b86519201916119818184848a01611686565b85519201916119938184848901611686565b919091019998505050505050505050565b60ff81811683821601908111156103ae57634e487b7160e01b600052601160045260246000fdfea49807205ce4d355092ef5a8a18f56e8913cf4a201fbe287825b095693c21775a2646970667358221220b2b432fadf118893f5a63deab67e52d550148ebd491f4efc9280cab1124c292864736f6c63430008180033a49807205ce4d355092ef5a8a18f56e8913cf4a201fbe287825b095693c21775",
  "linkReferences": {},
  "deployedLinkReferences": {}
}