{
  "_format": "hh-sol-artifact-1",
  "contractName": "ExperienceRegistry",
  "sourceName": "contracts/experience/ExperienceRegistry.sol",
  "abi": [
    {
      "inputs": [
        {
          "components": [
            {
              "internalType": "address",
              "name": "mainAdmin",
              "type": "address"
            },
            {
              "internalType": "address",
              "name": "experienceFactory",
              "type": "address"
            },
            {
              "internalType": "address",
              "name": "worldRegistry",
              "type": "address"
            },
            {
              "internalType": "address",
              "name": "portRegistry",
              "type": "address"
            },
            {
              "internalType": "address[]",
              "name": "admins",
              "type": "address[]"
            }
          ],
          "internalType": "struct ExperienceRegistryConstructorArgs",
          "name": "args",
          "type": "tuple"
        }
      ],
      "stateMutability": "nonpayable",
      "type": "constructor"
    },
    {
      "inputs": [],
      "name": "AccessControlBadConfirmation",
      "type": "error"
    },
    {
      "inputs": [
        {
          "internalType": "address",
          "name": "account",
          "type": "address"
        },
        {
          "internalType": "bytes32",
          "name": "neededRole",
          "type": "bytes32"
        }
      ],
      "name": "AccessControlUnauthorizedAccount",
      "type": "error"
    },
    {
      "inputs": [],
      "name": "ReentrancyGuardReentrantCall",
      "type": "error"
    },
    {
      "anonymous": false,
      "inputs": [
        {
          "indexed": true,
          "internalType": "address",
          "name": "world",
          "type": "address"
        },
        {
          "indexed": true,
          "internalType": "address",
          "name": "company",
          "type": "address"
        },
        {
          "indexed": true,
          "internalType": "address",
          "name": "experience",
          "type": "address"
        },
        {
          "indexed": false,
          "internalType": "string",
          "name": "name",
          "type": "string"
        }
      ],
      "name": "ExperienceRegistered",
      "type": "event"
    },
    {
      "anonymous": false,
      "inputs": [
        {
          "indexed": true,
          "internalType": "address",
          "name": "experience",
          "type": "address"
        },
        {
          "indexed": true,
          "internalType": "uint256",
          "name": "portalId",
          "type": "uint256"
        }
      ],
      "name": "ExperienceRemoved",
      "type": "event"
    },
    {
      "anonymous": false,
      "inputs": [
        {
          "indexed": true,
          "internalType": "bytes32",
          "name": "role",
          "type": "bytes32"
        },
        {
          "indexed": true,
          "internalType": "bytes32",
          "name": "previousAdminRole",
          "type": "bytes32"
        },
        {
          "indexed": true,
          "internalType": "bytes32",
          "name": "newAdminRole",
          "type": "bytes32"
        }
      ],
      "name": "RoleAdminChanged",
      "type": "event"
    },
    {
      "anonymous": false,
      "inputs": [
        {
          "indexed": true,
          "internalType": "bytes32",
          "name": "role",
          "type": "bytes32"
        },
        {
          "indexed": true,
          "internalType": "address",
          "name": "account",
          "type": "address"
        },
        {
          "indexed": true,
          "internalType": "address",
          "name": "sender",
          "type": "address"
        }
      ],
      "name": "RoleGranted",
      "type": "event"
    },
    {
      "anonymous": false,
      "inputs": [
        {
          "indexed": true,
          "internalType": "bytes32",
          "name": "role",
          "type": "bytes32"
        },
        {
          "indexed": true,
          "internalType": "address",
          "name": "account",
          "type": "address"
        },
        {
          "indexed": true,
          "internalType": "address",
          "name": "sender",
          "type": "address"
        }
      ],
      "name": "RoleRevoked",
      "type": "event"
    },
    {
      "inputs": [],
      "name": "ADMIN_ROLE",
      "outputs": [
        {
          "internalType": "bytes32",
          "name": "",
          "type": "bytes32"
        }
      ],
      "stateMutability": "view",
      "type": "function"
    },
    {
      "inputs": [],
      "name": "DEFAULT_ADMIN_ROLE",
      "outputs": [
        {
          "internalType": "bytes32",
          "name": "",
          "type": "bytes32"
        }
      ],
      "stateMutability": "view",
      "type": "function"
    },
    {
      "inputs": [],
      "name": "currentExperienceVersion",
      "outputs": [
        {
          "internalType": "uint256",
          "name": "",
          "type": "uint256"
        }
      ],
      "stateMutability": "view",
      "type": "function"
    },
    {
      "inputs": [
        {
          "internalType": "address",
          "name": "exp",
          "type": "address"
        }
      ],
      "name": "getExperienceByAddress",
      "outputs": [
        {
          "components": [
            {
              "internalType": "address",
              "name": "company",
              "type": "address"
            },
            {
              "internalType": "address",
              "name": "world",
              "type": "address"
            },
            {
              "internalType": "contract IExperience",
              "name": "experience",
              "type": "address"
            },
            {
              "internalType": "uint256",
              "name": "portalId",
              "type": "uint256"
            }
          ],
          "internalType": "struct ExperienceInfo",
          "name": "",
          "type": "tuple"
        }
      ],
      "stateMutability": "view",
      "type": "function"
    },
    {
      "inputs": [
        {
          "components": [
            {
              "internalType": "string",
              "name": "x",
              "type": "string"
            },
            {
              "internalType": "string",
              "name": "y",
              "type": "string"
            },
            {
              "internalType": "string",
              "name": "z",
              "type": "string"
            },
            {
              "internalType": "uint256",
              "name": "t",
              "type": "uint256"
            },
            {
              "internalType": "uint256",
              "name": "p",
              "type": "uint256"
            },
            {
              "internalType": "uint256",
              "name": "p_sub",
              "type": "uint256"
            }
          ],
          "internalType": "struct VectorAddress",
          "name": "vector",
          "type": "tuple"
        }
      ],
      "name": "getExperienceByVector",
      "outputs": [
        {
          "components": [
            {
              "internalType": "address",
              "name": "company",
              "type": "address"
            },
            {
              "internalType": "address",
              "name": "world",
              "type": "address"
            },
            {
              "internalType": "contract IExperience",
              "name": "experience",
              "type": "address"
            },
            {
              "internalType": "uint256",
              "name": "portalId",
              "type": "uint256"
            }
          ],
          "internalType": "struct ExperienceInfo",
          "name": "",
          "type": "tuple"
        }
      ],
      "stateMutability": "view",
      "type": "function"
    },
    {
      "inputs": [
        {
          "internalType": "string",
          "name": "name",
          "type": "string"
        }
      ],
      "name": "getExperiencesByName",
      "outputs": [
        {
          "components": [
            {
              "internalType": "address",
              "name": "company",
              "type": "address"
            },
            {
              "internalType": "address",
              "name": "world",
              "type": "address"
            },
            {
              "internalType": "contract IExperience",
              "name": "experience",
              "type": "address"
            },
            {
              "internalType": "uint256",
              "name": "portalId",
              "type": "uint256"
            }
          ],
          "internalType": "struct ExperienceInfo",
          "name": "",
          "type": "tuple"
        }
      ],
      "stateMutability": "view",
      "type": "function"
    },
    {
      "inputs": [
        {
          "internalType": "bytes32",
          "name": "role",
          "type": "bytes32"
        }
      ],
      "name": "getRoleAdmin",
      "outputs": [
        {
          "internalType": "bytes32",
          "name": "",
          "type": "bytes32"
        }
      ],
      "stateMutability": "view",
      "type": "function"
    },
    {
      "inputs": [
        {
          "internalType": "bytes32",
          "name": "role",
          "type": "bytes32"
        },
        {
          "internalType": "address",
          "name": "account",
          "type": "address"
        }
      ],
      "name": "grantRole",
      "outputs": [],
      "stateMutability": "nonpayable",
      "type": "function"
    },
    {
      "inputs": [
        {
          "internalType": "bytes32",
          "name": "role",
          "type": "bytes32"
        },
        {
          "internalType": "address",
          "name": "account",
          "type": "address"
        }
      ],
      "name": "hasRole",
      "outputs": [
        {
          "internalType": "bool",
          "name": "",
          "type": "bool"
        }
      ],
      "stateMutability": "view",
      "type": "function"
    },
    {
      "inputs": [
        {
          "internalType": "address",
          "name": "exp",
          "type": "address"
        }
      ],
      "name": "isExperience",
      "outputs": [
        {
          "internalType": "bool",
          "name": "",
          "type": "bool"
        }
      ],
      "stateMutability": "view",
      "type": "function"
    },
    {
      "inputs": [
        {
          "components": [
            {
              "components": [
                {
                  "internalType": "string",
                  "name": "x",
                  "type": "string"
                },
                {
                  "internalType": "string",
                  "name": "y",
                  "type": "string"
                },
                {
                  "internalType": "string",
                  "name": "z",
                  "type": "string"
                },
                {
                  "internalType": "uint256",
                  "name": "t",
                  "type": "uint256"
                },
                {
                  "internalType": "uint256",
                  "name": "p",
                  "type": "uint256"
                },
                {
                  "internalType": "uint256",
                  "name": "p_sub",
                  "type": "uint256"
                }
              ],
              "internalType": "struct VectorAddress",
              "name": "vector",
              "type": "tuple"
            },
            {
              "internalType": "address",
              "name": "company",
              "type": "address"
            },
            {
              "internalType": "bytes",
              "name": "initData",
              "type": "bytes"
            },
            {
              "internalType": "string",
              "name": "name",
              "type": "string"
            }
          ],
          "internalType": "struct RegisterExperienceRequest",
          "name": "request",
          "type": "tuple"
        }
      ],
      "name": "registerExperience",
      "outputs": [
        {
          "internalType": "address",
          "name": "",
          "type": "address"
        },
        {
          "internalType": "uint256",
          "name": "",
          "type": "uint256"
        }
      ],
      "stateMutability": "nonpayable",
      "type": "function"
    },
    {
      "inputs": [
        {
          "internalType": "address",
          "name": "company",
          "type": "address"
        },
        {
          "internalType": "address",
          "name": "exp",
          "type": "address"
        }
      ],
      "name": "removeExperience",
      "outputs": [
        {
          "internalType": "uint256",
          "name": "portalId",
          "type": "uint256"
        }
      ],
      "stateMutability": "nonpayable",
      "type": "function"
    },
    {
      "inputs": [
        {
          "internalType": "bytes32",
          "name": "role",
          "type": "bytes32"
        },
        {
          "internalType": "address",
          "name": "callerConfirmation",
          "type": "address"
        }
      ],
      "name": "renounceRole",
      "outputs": [],
      "stateMutability": "nonpayable",
      "type": "function"
    },
    {
      "inputs": [
        {
          "internalType": "bytes32",
          "name": "role",
          "type": "bytes32"
        },
        {
          "internalType": "address",
          "name": "account",
          "type": "address"
        }
      ],
      "name": "revokeRole",
      "outputs": [],
      "stateMutability": "nonpayable",
      "type": "function"
    },
    {
      "inputs": [
        {
          "internalType": "address",
          "name": "factory",
          "type": "address"
        }
      ],
      "name": "setExperienceFactory",
      "outputs": [],
      "stateMutability": "nonpayable",
      "type": "function"
    },
    {
      "inputs": [
        {
          "internalType": "contract IPortalRegistry",
          "name": "reg",
          "type": "address"
        }
      ],
      "name": "setPortalRegistry",
      "outputs": [],
      "stateMutability": "nonpayable",
      "type": "function"
    },
    {
      "inputs": [
        {
          "internalType": "contract IWorldRegistryV2",
          "name": "reg",
          "type": "address"
        }
      ],
      "name": "setWorldRegistry",
      "outputs": [],
      "stateMutability": "nonpayable",
      "type": "function"
    },
    {
      "inputs": [
        {
          "internalType": "bytes4",
          "name": "interfaceId",
          "type": "bytes4"
        }
      ],
      "name": "supportsInterface",
      "outputs": [
        {
          "internalType": "bool",
          "name": "",
          "type": "bool"
        }
      ],
      "stateMutability": "view",
      "type": "function"
    },
    {
      "inputs": [
        {
          "internalType": "bytes",
          "name": "initData",
          "type": "bytes"
        }
      ],
      "name": "upgradeExperience",
      "outputs": [],
      "stateMutability": "nonpayable",
      "type": "function"
    }
  ],
  "bytecode": "0x60806040523480156200001157600080fd5b5060405162002802380380620028028339810160408190526200003491620004d8565b600160005580516001600160a01b0316620000b15760405162461bcd60e51b815260206004820152603260248201527f457870657269656e636552656769737472793a206d61696e2061646d696e206160448201527106464726573732063616e6e6f7420626520360741b60648201526084015b60405180910390fd5b60408101516001600160a01b0316620001335760405162461bcd60e51b815260206004820152603660248201527f457870657269656e636552656769737472793a20776f726c642072656769737460448201527f727920616464726573732063616e6e6f742062652030000000000000000000006064820152608401620000a8565b60608101516001600160a01b0316620001b55760405162461bcd60e51b815260206004820152603760248201527f457870657269656e636552656769737472793a20706f7274616c20726567697360448201527f74727920616464726573732063616e6e6f7420626520300000000000000000006064820152608401620000a8565b60208101516001600160a01b0316620002375760405162461bcd60e51b815260206004820152603a60248201527f457870657269656e636552656769737472793a20657870657269656e6365206660448201527f6163746f727920616464726573732063616e6e6f7420626520300000000000006064820152608401620000a8565b6040810151600280546001600160a01b039283166001600160a01b03199182161790915560608301516003805491841691831691909117905560208301516004805491909316911617905580516200029290600090620003b0565b508051620002b190600080516020620027e283398151915290620003b0565b5060005b816080015151811015620003a85760006001600160a01b031682608001518281518110620002e757620002e76200060e565b60200260200101516001600160a01b0316036200035d5760405162461bcd60e51b815260206004820152602d60248201527f457870657269656e636552656769737472793a2061646d696e2061646472657360448201526c0732063616e6e6f74206265203609c1b6064820152608401620000a8565b6200039e600080516020620027e2833981519152836080015183815181106200038a576200038a6200060e565b6020026020010151620003b060201b60201c565b50600101620002b5565b505062000624565b60008281526001602090815260408083206001600160a01b038516845290915281205460ff166200043d5760008381526001602081815260408084206001600160a01b0387168086529252808420805460ff19169093179092559051339286917f2f8788117e7eff1d82e926ec794901d17c78024a50270940304540a733656f0d9190a450600162000441565b5060005b92915050565b634e487b7160e01b600052604160045260246000fd5b60405160a081016001600160401b038111828210171562000482576200048262000447565b60405290565b604051601f8201601f191681016001600160401b0381118282101715620004b357620004b362000447565b604052919050565b80516001600160a01b0381168114620004d357600080fd5b919050565b60006020808385031215620004ec57600080fd5b82516001600160401b03808211156200050457600080fd5b9084019060a082870312156200051957600080fd5b620005236200045d565b6200052e83620004bb565b81526200053d848401620004bb565b848201526200054f60408401620004bb565b60408201526200056260608401620004bb565b60608201526080830151828111156200057a57600080fd5b80840193505086601f8401126200059057600080fd5b825182811115620005a557620005a562000447565b8060051b9250620005b885840162000488565b8181529284018501928581019089851115620005d357600080fd5b948601945b84861015620005fc57620005ec86620004bb565b82529486019490860190620005d8565b60808401525090979650505050505050565b634e487b7160e01b600052603260045260246000fd5b6121ae80620006346000396000f3fe608060405234801561001057600080fd5b50600436106101215760003560e01c80636dd70bbf116100ad578063d0198bf111610071578063d0198bf1146102cc578063d1c76213146102df578063d547741f14610362578063e237fbad14610375578063e98715f41461038857600080fd5b80636dd70bbf1461025757806375b238fc1461026a57806391d148541461027f578063a217fddf14610292578063c4d453c21461029a57600080fd5b80632f2ff15d116100f45780632f2ff15d146102015780632f5d253a1461021657806332ab79f81461021e57806336568abe146102315780636d941fe71461024457600080fd5b806301ffc9a7146101265780630ce5304f1461014e578063248a9ca3146101a157806326228630146101d3575b600080fd5b610139610134366004611817565b61039b565b60405190151581526020015b60405180910390f35b61016161015c366004611961565b6103d2565b6040805182516001600160a01b03908116825260208085015182169083015283830151169181019190915260609182015191810191909152608001610145565b6101c56101af36600461199e565b6000908152600160208190526040909120015490565b604051908152602001610145565b6101396101e13660046119cc565b6001600160a01b0390811660009081526006602052604090205416151590565b61021461020f3660046119e9565b610461565b005b6101c561048d565b61016161022c366004611acb565b61050b565b61021461023f3660046119e9565b6105b8565b610214610252366004611b00565b6105f0565b6101c5610265366004611b72565b6106ed565b6101c560008051602061215983398151915281565b61013961028d3660046119e9565b610c2b565b6101c5600081565b6102ad6102a8366004611ba0565b610c56565b604080516001600160a01b039093168352602083019190915201610145565b6102146102da3660046119cc565b6112eb565b6101616102ed3660046119cc565b60408051608080820183526000808352602080840182905283850182905260609384018290526001600160a01b03958616825260068152908490208451928301855280548616835260018101548616918301919091526002810154909416928101929092526003909201549181019190915290565b6102146103703660046119e9565b61134c565b6102146103833660046119cc565b611372565b6102146103963660046119cc565b6113d3565b60006001600160e01b03198216637965db0b60e01b14806103cc57506301ffc9a760e01b6001600160e01b03198316145b92915050565b604080516080810182526000808252602082018190529181018290526060810191909152600761040183611434565b60405161040e9190611ca0565b90815260408051918290036020908101832060808401835280546001600160a01b039081168552600182015481169285019290925260028101549091169183019190915260030154606082015292915050565b6000828152600160208190526040909120015461047d816114a4565b61048783836114b1565b50505050565b6000600460009054906101000a90046001600160a01b03166001600160a01b031663e921c2756040518163ffffffff1660e01b8152600401602060405180830381865afa1580156104e2573d6000803e3d6000fd5b505050506040513d601f19601f820116820180604052508101906105069190611cbc565b905090565b6040805160808101825260008082526020820181905291810182905260608101919091526005600061053c8461152a565b60405160200161054c9190611d01565b60408051601f198184030181529181528151602092830120835282820193909352908201600020825160808101845281546001600160a01b0390811682526001830154811693820193909352600282015490921692820192909252600390910154606082015292915050565b6001600160a01b03811633146105e15760405163334bd91960e11b815260040160405180910390fd5b6105eb828261158d565b505050565b336000908152600660205260409020546001600160a01b03166106725760405162461bcd60e51b815260206004820152602f60248201527f457870657269656e636552656769737472793a2063616c6c6572206973206e6f60448201526e7420616e20657870657269656e636560881b60648201526084015b60405180910390fd5b61067a6115fa565b6004805460405163db70a69360e01b81526001600160a01b039091169163db70a693916106ad9133918791879101611d14565b600060405180830381600087803b1580156106c757600080fd5b505af11580156106db573d6000803e3d6000fd5b505050506106e96001600055565b5050565b600254604051637856879f60e11b81523360048201526000916001600160a01b03169063f0ad0f3e90602401602060405180830381865afa158015610736573d6000803e3d6000fd5b505050506040513d601f19601f8201168201806040525081019061075a9190611d54565b6107765760405162461bcd60e51b815260040161066990611d76565b61077e6115fa565b336001600160a01b0316836001600160a01b03166330b67baa6040518163ffffffff1660e01b8152600401602060405180830381865afa1580156107c6573d6000803e3d6000fd5b505050506040513d601f19601f820116820180604052508101906107ea9190611dca565b6001600160a01b0316146108105760405162461bcd60e51b815260040161066990611de7565b6000829050836001600160a01b0316816001600160a01b0316636904c94d6040518163ffffffff1660e01b8152600401602060405180830381865afa15801561085d573d6000803e3d6000fd5b505050506040513d601f19601f820116820180604052508101906108819190611dca565b6001600160a01b03161461090f5760405162461bcd60e51b815260206004820152604960248201527f457870657269656e636552656769737472793a20657870657269656e6365206960448201527f73206e6f7420726567697374657265642077697468207468652063616c6c696e6064820152686720636f6d70616e7960b81b608482015260a401610669565b6001600160a01b03838116600090815260066020908152604091829020825160808101845281548516815260018201548516928101929092526002810154841682840152600390810154606083018190529054925163b8e7d08360e01b815260048101919091529092919091169063b8e7d08390602401600060405180830381600087803b1580156109a057600080fd5b505af11580156109b4573d6000803e3d6000fd5b50505050806060015192506000826001600160a01b0316632fcbab9a6040518163ffffffff1660e01b8152600401600060405180830381865afa1580156109ff573d6000803e3d6000fd5b505050506040513d6000823e601f3d908101601f19168201604052610a279190810190611e96565b6001600160a01b0380871660009081526006602052604080822080546001600160a01b0319908116825560018201805482169055600282018054909116905560030182905580516306fdde0360e01b81529051939450600793610ada938816926306fdde0392600480820193918290030181865afa158015610aad573d6000803e3d6000fd5b505050506040513d6000823e601f3d908101601f19168201604052610ad59190810190611f6c565b611434565b604051610ae79190611ca0565b90815260405190819003602001902080546001600160a01b0319908116825560018201805482169055600282018054909116905560006003909101819055600590610b318361152a565b604051602001610b419190611d01565b60408051601f1981840301815291815281516020928301208352908201929092528101600090812080546001600160a01b03199081168255600182018054821690556002820180549091169055600301819055815163a008f70960e01b815291516001600160a01b0386169263a008f70992600480830193919282900301818387803b158015610bd057600080fd5b505af1158015610be4573d6000803e3d6000fd5b50506040518692506001600160a01b03881691507fa49150179d901bd7609d87ac654c037ca7f87786305999f6a901c752de458ce590600090a35050506103cc6001600055565b60009182526001602090815260408084206001600160a01b0393909316845291905290205460ff1690565b600254604051637856879f60e11b815233600482015260009182916001600160a01b039091169063f0ad0f3e90602401602060405180830381865afa158015610ca3573d6000803e3d6000fd5b505050506040513d601f19601f82011682018060405250810190610cc79190611d54565b610ce35760405162461bcd60e51b815260040161066990611d76565b610ceb6115fa565b600083602001519050336001600160a01b0316816001600160a01b03166330b67baa6040518163ffffffff1660e01b8152600401602060405180830381865afa158015610d3c573d6000803e3d6000fd5b505050506040513d601f19601f82011682018060405250810190610d609190611dca565b6001600160a01b031614610d865760405162461bcd60e51b815260040161066990611de7565b6000610d958560600151611434565b905060006001600160a01b0316600782604051610db29190611ca0565b908152604051908190036020019020546001600160a01b031614610e335760405162461bcd60e51b815260206004820152603260248201527f457870657269656e636552656769737472793a20657870657269656e6365206e604482015271616d6520616c72656164792065786973747360701b6064820152608401610669565b600480546020870151606088015188516040808b015190516364ee8f7560e11b81526000966001600160a01b039096169563c9dd1eea95610e7c95909490939092909101611fa1565b6020604051808303816000875af1158015610e9b573d6000803e3d6000fd5b505050506040513d601f19601f82011682018060405250810190610ebf9190611dca565b90506000610ed0876000015161152a565b604051602001610ee09190611d01565b6040516020818303038152906040528051906020012090506000600360009054906101000a90046001600160a01b03166001600160a01b0316633c3f5ff46040518060400160405280866001600160a01b03168152602001866001600160a01b031663072ea61c6040518163ffffffff1660e01b8152600401602060405180830381865afa158015610f76573d6000803e3d6000fd5b505050506040513d601f19601f82011682018060405250810190610f9a9190611cbc565b90526040516001600160e01b031960e084901b16815281516001600160a01b0316600482015260209091015160248201526044016020604051808303816000875af1158015610fed573d6000803e3d6000fd5b505050506040513d601f19601f820116820180604052508101906110119190611cbc565b905060006040518060800160405280336001600160a01b03168152602001876001600160a01b03166330b67baa6040518163ffffffff1660e01b8152600401602060405180830381865afa15801561106d573d6000803e3d6000fd5b505050506040513d601f19601f820116820180604052508101906110919190611dca565b6001600160a01b03908116825286811660208084018290526040938401879052600088815260058252848120865181549086166001600160a01b0319918216178255878401805160018085018054928a1692851692909217909155898901805160028087018054928c169287169290921790915560608c0180516003978801559887526006909752948990208a518154908a16908516178155915190820180549189169184169190911790559251938301805494909616931692909217909355905191015551909150819060079061116a908890611ca0565b9081526040805160209281900383018120845181546001600160a01b03199081166001600160a01b039283161783558686015160018401805483169184169190911790558685015160028401805490921690831617905560609095015160039091015563185b3dd560e11b81529051878416933393908b16926330b67baa92600480830193928290030181865afa158015611209573d6000803e3d6000fd5b505050506040513d601f19601f8201168201806040525081019061122d9190611dca565b6001600160a01b03167f2b2a22b18e2544cb9df2bb21935349da235cfb5a5d3c12e083c2e4b7973d7d89876001600160a01b03166306fdde036040518163ffffffff1660e01b8152600401600060405180830381865afa158015611295573d6000803e3d6000fd5b505050506040513d6000823e601f3d908101601f191682016040526112bd9190810190611f6c565b6040516112ca9190611d01565b60405180910390a4509195509093505050506112e66001600055565b915091565b600080516020612159833981519152611303816114a4565b6001600160a01b0382166113295760405162461bcd60e51b815260040161066990612052565b50600380546001600160a01b0319166001600160a01b0392909216919091179055565b60008281526001602081905260409091200154611368816114a4565b610487838361158d565b60008051602061215983398151915261138a816114a4565b6001600160a01b0382166113b05760405162461bcd60e51b815260040161066990612052565b50600280546001600160a01b0319166001600160a01b0392909216919091179055565b6000805160206121598339815191526113eb816114a4565b6001600160a01b0382166114115760405162461bcd60e51b815260040161066990612052565b50600480546001600160a01b0319166001600160a01b0392909216919091179055565b60608160005b815181101561149d5761146c8282815181106114585761145861209c565b01602001516001600160f81b031916611624565b82828151811061147e5761147e61209c565b60200101906001600160f81b031916908160001a90535060010161143a565b5092915050565b6114ae8133611673565b50565b60006114bd8383610c2b565b6115225760008381526001602081815260408084206001600160a01b0387168086529252808420805460ff19169093179092559051339286917f2f8788117e7eff1d82e926ec794901d17c78024a50270940304540a733656f0d9190a45060016103cc565b5060006103cc565b606081600001518260200151836040015161154885606001516116ac565b61155586608001516116ac565b6115628760a001516116ac565b604051602001611577969594939291906120b2565b6040516020818303038152906040529050919050565b60006115998383610c2b565b156115225760008381526001602090815260408083206001600160a01b0386168085529252808320805460ff1916905551339286917ff6391f5c32d9c69d2a47ea670b442974b53935d1edc7fd64eb21e047a839171b9190a45060016103cc565b60026000540361161d57604051633ee5aeb560e01b815260040160405180910390fd5b6002600055565b6000604160f81b6001600160f81b03198316108015906116525750602d60f91b6001600160f81b0319831611155b1561166f5761166660f883901c6020612131565b60f81b92915050565b5090565b61167d8282610c2b565b6106e95760405163e2517d3f60e01b81526001600160a01b038216600482015260248101839052604401610669565b606060006116b98361173f565b600101905060008167ffffffffffffffff8111156116d9576116d9611848565b6040519080825280601f01601f191660200182016040528015611703576020820181803683370190505b5090508181016020015b600019016f181899199a1a9b1b9c1cb0b131b232b360811b600a86061a8153600a850494508461170d57509392505050565b60008072184f03e93ff9f4daa797ed6e38ed64bf6a1f0160401b831061177e5772184f03e93ff9f4daa797ed6e38ed64bf6a1f0160401b830492506040015b6d04ee2d6d415b85acef810000000083106117aa576d04ee2d6d415b85acef8100000000830492506020015b662386f26fc1000083106117c857662386f26fc10000830492506010015b6305f5e10083106117e0576305f5e100830492506008015b61271083106117f457612710830492506004015b60648310611806576064830492506002015b600a83106103cc5760010192915050565b60006020828403121561182957600080fd5b81356001600160e01b03198116811461184157600080fd5b9392505050565b634e487b7160e01b600052604160045260246000fd5b60405160c0810167ffffffffffffffff8111828210171561188157611881611848565b60405290565b6040516080810167ffffffffffffffff8111828210171561188157611881611848565b604051601f8201601f1916810167ffffffffffffffff811182821017156118d3576118d3611848565b604052919050565b600067ffffffffffffffff8211156118f5576118f5611848565b50601f01601f191660200190565b6000611916611911846118db565b6118aa565b905082815283838301111561192a57600080fd5b828260208301376000602084830101529392505050565b600082601f83011261195257600080fd5b61184183833560208501611903565b60006020828403121561197357600080fd5b813567ffffffffffffffff81111561198a57600080fd5b61199684828501611941565b949350505050565b6000602082840312156119b057600080fd5b5035919050565b6001600160a01b03811681146114ae57600080fd5b6000602082840312156119de57600080fd5b8135611841816119b7565b600080604083850312156119fc57600080fd5b823591506020830135611a0e816119b7565b809150509250929050565b600060c08284031215611a2b57600080fd5b611a3361185e565b9050813567ffffffffffffffff80821115611a4d57600080fd5b611a5985838601611941565b83526020840135915080821115611a6f57600080fd5b611a7b85838601611941565b60208401526040840135915080821115611a9457600080fd5b50611aa184828501611941565b604083015250606082013560608201526080820135608082015260a082013560a082015292915050565b600060208284031215611add57600080fd5b813567ffffffffffffffff811115611af457600080fd5b61199684828501611a19565b60008060208385031215611b1357600080fd5b823567ffffffffffffffff80821115611b2b57600080fd5b818501915085601f830112611b3f57600080fd5b813581811115611b4e57600080fd5b866020828501011115611b6057600080fd5b60209290920196919550909350505050565b60008060408385031215611b8557600080fd5b8235611b90816119b7565b91506020830135611a0e816119b7565b600060208284031215611bb257600080fd5b813567ffffffffffffffff80821115611bca57600080fd5b9083019060808286031215611bde57600080fd5b611be6611887565b823582811115611bf557600080fd5b611c0187828601611a19565b8252506020830135611c12816119b7565b6020820152604083013582811115611c2957600080fd5b8301601f81018713611c3a57600080fd5b611c4987823560208401611903565b604083015250606083013582811115611c6157600080fd5b611c6d87828601611941565b60608301525095945050505050565b60005b83811015611c97578181015183820152602001611c7f565b50506000910152565b60008251611cb2818460208701611c7c565b9190910192915050565b600060208284031215611cce57600080fd5b5051919050565b60008151808452611ced816020860160208601611c7c565b601f01601f19169290920160200192915050565b6020815260006118416020830184611cd5565b6001600160a01b03841681526040602082018190528101829052818360608301376000818301606090810191909152601f909201601f1916010192915050565b600060208284031215611d6657600080fd5b8151801515811461184157600080fd5b60208082526034908201527f457870657269656e636552656769737472793a2063616c6c6572206973206e6f6040820152731d0818481c9959da5cdd195c9959081ddbdc9b1960621b606082015260800190565b600060208284031215611ddc57600080fd5b8151611841816119b7565b60208082526044908201527f457870657269656e636552656769737472793a20636f6d70616e79206973206e60408201527f6f7420726567697374657265642077697468207468652063616c6c696e6720776060820152631bdc9b1960e21b608082015260a00190565b600082601f830112611e6257600080fd5b8151611e70611911826118db565b818152846020838601011115611e8557600080fd5b611996826020830160208701611c7c565b600060208284031215611ea857600080fd5b815167ffffffffffffffff80821115611ec057600080fd5b9083019060c08286031215611ed457600080fd5b611edc61185e565b825182811115611eeb57600080fd5b611ef787828601611e51565b825250602083015182811115611f0c57600080fd5b611f1887828601611e51565b602083015250604083015182811115611f3057600080fd5b611f3c87828601611e51565b604083015250606083015160608201526080830151608082015260a083015160a082015280935050505092915050565b600060208284031215611f7e57600080fd5b815167ffffffffffffffff811115611f9557600080fd5b61199684828501611e51565b6001600160a01b0385168152608060208201819052600090611fc590830186611cd5565b8281036040840152845160c08252611fe060c0830182611cd5565b905060208601518282036020840152611ff98282611cd5565b915050604086015182820360408401526120138282611cd5565b915050606086015160608301526080860151608083015260a086015160a083015283810360608501526120468186611cd5565b98975050505050505050565b6020808252602a908201527f457870657269656e636552656769737472793a207a65726f2061646472657373604082015269081b9bdd081d985b1a5960b21b606082015260800190565b634e487b7160e01b600052603260045260246000fd5b6000875160206120c58285838d01611c7c565b8851918401916120d88184848d01611c7c565b88519201916120ea8184848c01611c7c565b87519201916120fc8184848b01611c7c565b865192019161210e8184848a01611c7c565b85519201916121208184848901611c7c565b919091019998505050505050505050565b60ff81811683821601908111156103cc57634e487b7160e01b600052601160045260246000fdfea49807205ce4d355092ef5a8a18f56e8913cf4a201fbe287825b095693c21775a2646970667358221220a9db3bc31d9054c61346f5f4013bb193025688dd5071e01f39c3f4e06cc0aeb464736f6c63430008180033a49807205ce4d355092ef5a8a18f56e8913cf4a201fbe287825b095693c21775",
  "linkReferences": {},
  "deployedLinkReferences": {}
}