{
  "_format": "hh-sol-artifact-1",
  "contractName": "ExperienceRegistry",
  "sourceName": "contracts/experience/ExperienceRegistry.sol",
  "abi": [
    {
      "inputs": [
        {
          "components": [
            {
              "internalType": "address",
              "name": "mainAdmin",
              "type": "address"
            },
            {
              "internalType": "address",
              "name": "experienceFactory",
              "type": "address"
            },
            {
              "internalType": "address",
              "name": "worldRegistry",
              "type": "address"
            },
            {
              "internalType": "address",
              "name": "portRegistry",
              "type": "address"
            },
            {
              "internalType": "address[]",
              "name": "admins",
              "type": "address[]"
            }
          ],
          "internalType": "struct ExperienceRegistryConstructorArgs",
          "name": "args",
          "type": "tuple"
        }
      ],
      "stateMutability": "nonpayable",
      "type": "constructor"
    },
    {
      "inputs": [],
      "name": "AccessControlBadConfirmation",
      "type": "error"
    },
    {
      "inputs": [
        {
          "internalType": "address",
          "name": "account",
          "type": "address"
        },
        {
          "internalType": "bytes32",
          "name": "neededRole",
          "type": "bytes32"
        }
      ],
      "name": "AccessControlUnauthorizedAccount",
      "type": "error"
    },
    {
      "inputs": [],
      "name": "ReentrancyGuardReentrantCall",
      "type": "error"
    },
    {
      "anonymous": false,
      "inputs": [
        {
          "indexed": true,
          "internalType": "address",
          "name": "world",
          "type": "address"
        },
        {
          "indexed": true,
          "internalType": "address",
          "name": "company",
          "type": "address"
        },
        {
          "indexed": true,
          "internalType": "address",
          "name": "experience",
          "type": "address"
        },
        {
          "indexed": false,
          "internalType": "string",
          "name": "name",
          "type": "string"
        }
      ],
      "name": "RegistryExperienceRegistered",
      "type": "event"
    },
    {
      "anonymous": false,
      "inputs": [
        {
          "indexed": true,
          "internalType": "address",
          "name": "experience",
          "type": "address"
        },
        {
          "indexed": true,
          "internalType": "uint256",
          "name": "portalId",
          "type": "uint256"
        }
      ],
      "name": "RegistryExperienceRemoved",
      "type": "event"
    },
    {
      "anonymous": false,
      "inputs": [
        {
          "indexed": true,
          "internalType": "bytes32",
          "name": "role",
          "type": "bytes32"
        },
        {
          "indexed": true,
          "internalType": "bytes32",
          "name": "previousAdminRole",
          "type": "bytes32"
        },
        {
          "indexed": true,
          "internalType": "bytes32",
          "name": "newAdminRole",
          "type": "bytes32"
        }
      ],
      "name": "RoleAdminChanged",
      "type": "event"
    },
    {
      "anonymous": false,
      "inputs": [
        {
          "indexed": true,
          "internalType": "bytes32",
          "name": "role",
          "type": "bytes32"
        },
        {
          "indexed": true,
          "internalType": "address",
          "name": "account",
          "type": "address"
        },
        {
          "indexed": true,
          "internalType": "address",
          "name": "sender",
          "type": "address"
        }
      ],
      "name": "RoleGranted",
      "type": "event"
    },
    {
      "anonymous": false,
      "inputs": [
        {
          "indexed": true,
          "internalType": "bytes32",
          "name": "role",
          "type": "bytes32"
        },
        {
          "indexed": true,
          "internalType": "address",
          "name": "account",
          "type": "address"
        },
        {
          "indexed": true,
          "internalType": "address",
          "name": "sender",
          "type": "address"
        }
      ],
      "name": "RoleRevoked",
      "type": "event"
    },
    {
      "inputs": [],
      "name": "ADMIN_ROLE",
      "outputs": [
        {
          "internalType": "bytes32",
          "name": "",
          "type": "bytes32"
        }
      ],
      "stateMutability": "view",
      "type": "function"
    },
    {
      "inputs": [],
      "name": "DEFAULT_ADMIN_ROLE",
      "outputs": [
        {
          "internalType": "bytes32",
          "name": "",
          "type": "bytes32"
        }
      ],
      "stateMutability": "view",
      "type": "function"
    },
    {
      "inputs": [],
      "name": "currentExperienceVersion",
      "outputs": [
        {
          "internalType": "uint256",
          "name": "",
          "type": "uint256"
        }
      ],
      "stateMutability": "view",
      "type": "function"
    },
    {
      "inputs": [],
      "name": "experienceFactory",
      "outputs": [
        {
          "internalType": "contract IExperienceFactory",
          "name": "",
          "type": "address"
        }
      ],
      "stateMutability": "view",
      "type": "function"
    },
    {
      "inputs": [
        {
          "internalType": "address",
          "name": "exp",
          "type": "address"
        }
      ],
      "name": "getExperienceByAddress",
      "outputs": [
        {
          "components": [
            {
              "internalType": "address",
              "name": "company",
              "type": "address"
            },
            {
              "internalType": "address",
              "name": "world",
              "type": "address"
            },
            {
              "internalType": "contract IExperience",
              "name": "experience",
              "type": "address"
            },
            {
              "internalType": "uint256",
              "name": "portalId",
              "type": "uint256"
            }
          ],
          "internalType": "struct ExperienceInfo",
          "name": "",
          "type": "tuple"
        }
      ],
      "stateMutability": "view",
      "type": "function"
    },
    {
      "inputs": [
        {
          "components": [
            {
              "internalType": "string",
              "name": "x",
              "type": "string"
            },
            {
              "internalType": "string",
              "name": "y",
              "type": "string"
            },
            {
              "internalType": "string",
              "name": "z",
              "type": "string"
            },
            {
              "internalType": "uint256",
              "name": "t",
              "type": "uint256"
            },
            {
              "internalType": "uint256",
              "name": "p",
              "type": "uint256"
            },
            {
              "internalType": "uint256",
              "name": "p_sub",
              "type": "uint256"
            }
          ],
          "internalType": "struct VectorAddress",
          "name": "vector",
          "type": "tuple"
        }
      ],
      "name": "getExperienceByVector",
      "outputs": [
        {
          "components": [
            {
              "internalType": "address",
              "name": "company",
              "type": "address"
            },
            {
              "internalType": "address",
              "name": "world",
              "type": "address"
            },
            {
              "internalType": "contract IExperience",
              "name": "experience",
              "type": "address"
            },
            {
              "internalType": "uint256",
              "name": "portalId",
              "type": "uint256"
            }
          ],
          "internalType": "struct ExperienceInfo",
          "name": "",
          "type": "tuple"
        }
      ],
      "stateMutability": "view",
      "type": "function"
    },
    {
      "inputs": [
        {
          "internalType": "string",
          "name": "name",
          "type": "string"
        }
      ],
      "name": "getExperiencesByName",
      "outputs": [
        {
          "components": [
            {
              "internalType": "address",
              "name": "company",
              "type": "address"
            },
            {
              "internalType": "address",
              "name": "world",
              "type": "address"
            },
            {
              "internalType": "contract IExperience",
              "name": "experience",
              "type": "address"
            },
            {
              "internalType": "uint256",
              "name": "portalId",
              "type": "uint256"
            }
          ],
          "internalType": "struct ExperienceInfo",
          "name": "",
          "type": "tuple"
        }
      ],
      "stateMutability": "view",
      "type": "function"
    },
    {
      "inputs": [
        {
          "internalType": "bytes32",
          "name": "role",
          "type": "bytes32"
        }
      ],
      "name": "getRoleAdmin",
      "outputs": [
        {
          "internalType": "bytes32",
          "name": "",
          "type": "bytes32"
        }
      ],
      "stateMutability": "view",
      "type": "function"
    },
    {
      "inputs": [
        {
          "internalType": "bytes32",
          "name": "role",
          "type": "bytes32"
        },
        {
          "internalType": "address",
          "name": "account",
          "type": "address"
        }
      ],
      "name": "grantRole",
      "outputs": [],
      "stateMutability": "nonpayable",
      "type": "function"
    },
    {
      "inputs": [
        {
          "internalType": "bytes32",
          "name": "role",
          "type": "bytes32"
        },
        {
          "internalType": "address",
          "name": "account",
          "type": "address"
        }
      ],
      "name": "hasRole",
      "outputs": [
        {
          "internalType": "bool",
          "name": "",
          "type": "bool"
        }
      ],
      "stateMutability": "view",
      "type": "function"
    },
    {
      "inputs": [
        {
          "internalType": "address",
          "name": "exp",
          "type": "address"
        }
      ],
      "name": "isExperience",
      "outputs": [
        {
          "internalType": "bool",
          "name": "",
          "type": "bool"
        }
      ],
      "stateMutability": "view",
      "type": "function"
    },
    {
      "inputs": [],
      "name": "portalRegistry",
      "outputs": [
        {
          "internalType": "contract IPortalRegistry",
          "name": "",
          "type": "address"
        }
      ],
      "stateMutability": "view",
      "type": "function"
    },
    {
      "inputs": [
        {
          "components": [
            {
              "components": [
                {
                  "internalType": "string",
                  "name": "x",
                  "type": "string"
                },
                {
                  "internalType": "string",
                  "name": "y",
                  "type": "string"
                },
                {
                  "internalType": "string",
                  "name": "z",
                  "type": "string"
                },
                {
                  "internalType": "uint256",
                  "name": "t",
                  "type": "uint256"
                },
                {
                  "internalType": "uint256",
                  "name": "p",
                  "type": "uint256"
                },
                {
                  "internalType": "uint256",
                  "name": "p_sub",
                  "type": "uint256"
                }
              ],
              "internalType": "struct VectorAddress",
              "name": "vector",
              "type": "tuple"
            },
            {
              "internalType": "address",
              "name": "company",
              "type": "address"
            },
            {
              "internalType": "bytes",
              "name": "initData",
              "type": "bytes"
            },
            {
              "internalType": "string",
              "name": "name",
              "type": "string"
            }
          ],
          "internalType": "struct RegisterExperienceRequest",
          "name": "request",
          "type": "tuple"
        }
      ],
      "name": "registerExperience",
      "outputs": [
        {
          "internalType": "address",
          "name": "",
          "type": "address"
        },
        {
          "internalType": "uint256",
          "name": "",
          "type": "uint256"
        }
      ],
      "stateMutability": "nonpayable",
      "type": "function"
    },
    {
      "inputs": [
        {
          "internalType": "address",
          "name": "company",
          "type": "address"
        },
        {
          "internalType": "address",
          "name": "exp",
          "type": "address"
        }
      ],
      "name": "removeExperience",
      "outputs": [
        {
          "internalType": "uint256",
          "name": "portalId",
          "type": "uint256"
        }
      ],
      "stateMutability": "nonpayable",
      "type": "function"
    },
    {
      "inputs": [
        {
          "internalType": "bytes32",
          "name": "role",
          "type": "bytes32"
        },
        {
          "internalType": "address",
          "name": "callerConfirmation",
          "type": "address"
        }
      ],
      "name": "renounceRole",
      "outputs": [],
      "stateMutability": "nonpayable",
      "type": "function"
    },
    {
      "inputs": [
        {
          "internalType": "bytes32",
          "name": "role",
          "type": "bytes32"
        },
        {
          "internalType": "address",
          "name": "account",
          "type": "address"
        }
      ],
      "name": "revokeRole",
      "outputs": [],
      "stateMutability": "nonpayable",
      "type": "function"
    },
    {
      "inputs": [
        {
          "internalType": "address",
          "name": "factory",
          "type": "address"
        }
      ],
      "name": "setExperienceFactory",
      "outputs": [],
      "stateMutability": "nonpayable",
      "type": "function"
    },
    {
      "inputs": [
        {
          "internalType": "contract IPortalRegistry",
          "name": "reg",
          "type": "address"
        }
      ],
      "name": "setPortalRegistry",
      "outputs": [],
      "stateMutability": "nonpayable",
      "type": "function"
    },
    {
      "inputs": [
        {
          "internalType": "contract IWorldRegistryV2",
          "name": "reg",
          "type": "address"
        }
      ],
      "name": "setWorldRegistry",
      "outputs": [],
      "stateMutability": "nonpayable",
      "type": "function"
    },
    {
      "inputs": [
        {
          "internalType": "bytes4",
          "name": "interfaceId",
          "type": "bytes4"
        }
      ],
      "name": "supportsInterface",
      "outputs": [
        {
          "internalType": "bool",
          "name": "",
          "type": "bool"
        }
      ],
      "stateMutability": "view",
      "type": "function"
    },
    {
      "inputs": [
        {
          "internalType": "bytes",
          "name": "initData",
          "type": "bytes"
        }
      ],
      "name": "upgradeExperience",
      "outputs": [
        {
          "internalType": "address",
          "name": "",
          "type": "address"
        }
      ],
      "stateMutability": "nonpayable",
      "type": "function"
    },
    {
      "inputs": [],
      "name": "worldRegistry",
      "outputs": [
        {
          "internalType": "contract IWorldRegistryV2",
          "name": "",
          "type": "address"
        }
      ],
      "stateMutability": "view",
      "type": "function"
    }
  ],
  "bytecode": "0x60806040523480156200001157600080fd5b5060405162002887380380620028878339810160408190526200003491620004d8565b600160005580516001600160a01b0316620000b15760405162461bcd60e51b815260206004820152603260248201527f457870657269656e636552656769737472793a206d61696e2061646d696e206160448201527106464726573732063616e6e6f7420626520360741b60648201526084015b60405180910390fd5b60408101516001600160a01b0316620001335760405162461bcd60e51b815260206004820152603660248201527f457870657269656e636552656769737472793a20776f726c642072656769737460448201527f727920616464726573732063616e6e6f742062652030000000000000000000006064820152608401620000a8565b60608101516001600160a01b0316620001b55760405162461bcd60e51b815260206004820152603760248201527f457870657269656e636552656769737472793a20706f7274616c20726567697360448201527f74727920616464726573732063616e6e6f7420626520300000000000000000006064820152608401620000a8565b60208101516001600160a01b0316620002375760405162461bcd60e51b815260206004820152603a60248201527f457870657269656e636552656769737472793a20657870657269656e6365206660448201527f6163746f727920616464726573732063616e6e6f7420626520300000000000006064820152608401620000a8565b6040810151600280546001600160a01b039283166001600160a01b03199182161790915560608301516003805491841691831691909117905560208301516004805491909316911617905580516200029290600090620003b0565b508051620002b1906000805160206200286783398151915290620003b0565b5060005b816080015151811015620003a85760006001600160a01b031682608001518281518110620002e757620002e76200060e565b60200260200101516001600160a01b0316036200035d5760405162461bcd60e51b815260206004820152602d60248201527f457870657269656e636552656769737472793a2061646d696e2061646472657360448201526c0732063616e6e6f74206265203609c1b6064820152608401620000a8565b6200039e60008051602062002867833981519152836080015183815181106200038a576200038a6200060e565b6020026020010151620003b060201b60201c565b50600101620002b5565b505062000624565b60008281526001602090815260408083206001600160a01b038516845290915281205460ff166200043d5760008381526001602081815260408084206001600160a01b0387168086529252808420805460ff19169093179092559051339286917f2f8788117e7eff1d82e926ec794901d17c78024a50270940304540a733656f0d9190a450600162000441565b5060005b92915050565b634e487b7160e01b600052604160045260246000fd5b60405160a081016001600160401b038111828210171562000482576200048262000447565b60405290565b604051601f8201601f191681016001600160401b0381118282101715620004b357620004b362000447565b604052919050565b80516001600160a01b0381168114620004d357600080fd5b919050565b60006020808385031215620004ec57600080fd5b82516001600160401b03808211156200050457600080fd5b9084019060a082870312156200051957600080fd5b620005236200045d565b6200052e83620004bb565b81526200053d848401620004bb565b848201526200054f60408401620004bb565b60408201526200056260608401620004bb565b60608201526080830151828111156200057a57600080fd5b80840193505086601f8401126200059057600080fd5b825182811115620005a557620005a562000447565b8060051b9250620005b885840162000488565b8181529284018501928581019089851115620005d357600080fd5b948601945b84861015620005fc57620005ec86620004bb565b82529486019490860190620005d8565b60808401525090979650505050505050565b634e487b7160e01b600052603260045260246000fd5b61223380620006346000396000f3fe608060405234801561001057600080fd5b50600436106101425760003560e01c806381bb2029116100b8578063c4d453c21161007c578063c4d453c21461030c578063d0198bf11461033e578063d1c7621314610351578063d547741f146103d4578063e237fbad146103e7578063e98715f4146103fa57600080fd5b806381bb2029146102b8578063911c2a8c146102cb57806391d14854146102de578063a217fddf146102f1578063b6664934146102f957600080fd5b80632f5d253a1161010a5780632f5d253a1461023757806332ab79f81461023f57806336568abe146102525780636d941fe7146102655780636dd70bbf1461029057806375b238fc146102a357600080fd5b806301ffc9a7146101475780630ce5304f1461016f578063248a9ca3146101c257806326228630146101f45780632f2ff15d14610222575b600080fd5b61015a61015536600461189c565b61040d565b60405190151581526020015b60405180910390f35b61018261017d3660046119e6565b610444565b6040805182516001600160a01b03908116825260208085015182169083015283830151169181019190915260609182015191810191909152608001610166565b6101e66101d0366004611a23565b6000908152600160208190526040909120015490565b604051908152602001610166565b61015a610202366004611a51565b6001600160a01b0390811660009081526006602052604090205416151590565b610235610230366004611a6e565b6104d3565b005b6101e66104ff565b61018261024d366004611b50565b61057d565b610235610260366004611a6e565b61062a565b610278610273366004611b85565b610662565b6040516001600160a01b039091168152602001610166565b6101e661029e366004611bf7565b61076e565b6101e66000805160206121de83398151915281565b600454610278906001600160a01b031681565b600254610278906001600160a01b031681565b61015a6102ec366004611a6e565b610cac565b6101e6600081565b600354610278906001600160a01b031681565b61031f61031a366004611c25565b610cd7565b604080516001600160a01b039093168352602083019190915201610166565b61023561034c366004611a51565b61136c565b61018261035f366004611a51565b60408051608080820183526000808352602080840182905283850182905260609384018290526001600160a01b03958616825260068152908490208451928301855280548616835260018101548616918301919091526002810154909416928101929092526003909201549181019190915290565b6102356103e2366004611a6e565b6113cd565b6102356103f5366004611a51565b6113f3565b610235610408366004611a51565b611454565b60006001600160e01b03198216637965db0b60e01b148061043e57506301ffc9a760e01b6001600160e01b03198316145b92915050565b6040805160808101825260008082526020820181905291810182905260608101919091526007610473836114b5565b6040516104809190611d25565b90815260408051918290036020908101832060808401835280546001600160a01b039081168552600182015481169285019290925260028101549091169183019190915260030154606082015292915050565b600082815260016020819052604090912001546104ef81611525565b6104f98383611532565b50505050565b6000600460009054906101000a90046001600160a01b03166001600160a01b031663e921c2756040518163ffffffff1660e01b8152600401602060405180830381865afa158015610554573d6000803e3d6000fd5b505050506040513d601f19601f820116820180604052508101906105789190611d41565b905090565b604080516080810182526000808252602082018190529181018290526060810191909152600560006105ae846115ab565b6040516020016105be9190611d86565b60408051601f198184030181529181528151602092830120835282820193909352908201600020825160808101845281546001600160a01b0390811682526001830154811693820193909352600282015490921692820192909252600390910154606082015292915050565b6001600160a01b03811633146106535760405163334bd91960e11b815260040160405180910390fd5b61065d828261160e565b505050565b336000908152600660205260408120546001600160a01b03166106e45760405162461bcd60e51b815260206004820152602f60248201527f457870657269656e636552656769737472793a2063616c6c6572206973206e6f60448201526e7420616e20657870657269656e636560881b60648201526084015b60405180910390fd5b6106ec61167b565b6004805460405163db70a69360e01b81526001600160a01b039091169163db70a6939161071f9133918891889101611d99565b6020604051808303816000875af115801561073e573d6000803e3d6000fd5b505050506040513d601f19601f820116820180604052508101906107629190611dd9565b905061043e6001600055565b600254604051637856879f60e11b81523360048201526000916001600160a01b03169063f0ad0f3e90602401602060405180830381865afa1580156107b7573d6000803e3d6000fd5b505050506040513d601f19601f820116820180604052508101906107db9190611df6565b6107f75760405162461bcd60e51b81526004016106db90611e18565b6107ff61167b565b336001600160a01b0316836001600160a01b03166330b67baa6040518163ffffffff1660e01b8152600401602060405180830381865afa158015610847573d6000803e3d6000fd5b505050506040513d601f19601f8201168201806040525081019061086b9190611dd9565b6001600160a01b0316146108915760405162461bcd60e51b81526004016106db90611e6c565b6000829050836001600160a01b0316816001600160a01b0316636904c94d6040518163ffffffff1660e01b8152600401602060405180830381865afa1580156108de573d6000803e3d6000fd5b505050506040513d601f19601f820116820180604052508101906109029190611dd9565b6001600160a01b0316146109905760405162461bcd60e51b815260206004820152604960248201527f457870657269656e636552656769737472793a20657870657269656e6365206960448201527f73206e6f7420726567697374657265642077697468207468652063616c6c696e6064820152686720636f6d70616e7960b81b608482015260a4016106db565b6001600160a01b03838116600090815260066020908152604091829020825160808101845281548516815260018201548516928101929092526002810154841682840152600390810154606083018190529054925163b8e7d08360e01b815260048101919091529092919091169063b8e7d08390602401600060405180830381600087803b158015610a2157600080fd5b505af1158015610a35573d6000803e3d6000fd5b50505050806060015192506000826001600160a01b0316632fcbab9a6040518163ffffffff1660e01b8152600401600060405180830381865afa158015610a80573d6000803e3d6000fd5b505050506040513d6000823e601f3d908101601f19168201604052610aa89190810190611f1b565b6001600160a01b0380871660009081526006602052604080822080546001600160a01b0319908116825560018201805482169055600282018054909116905560030182905580516306fdde0360e01b81529051939450600793610b5b938816926306fdde0392600480820193918290030181865afa158015610b2e573d6000803e3d6000fd5b505050506040513d6000823e601f3d908101601f19168201604052610b569190810190611ff1565b6114b5565b604051610b689190611d25565b90815260405190819003602001902080546001600160a01b0319908116825560018201805482169055600282018054909116905560006003909101819055600590610bb2836115ab565b604051602001610bc29190611d86565b60408051601f1981840301815291815281516020928301208352908201929092528101600090812080546001600160a01b03199081168255600182018054821690556002820180549091169055600301819055815163a008f70960e01b815291516001600160a01b0386169263a008f70992600480830193919282900301818387803b158015610c5157600080fd5b505af1158015610c65573d6000803e3d6000fd5b50506040518692506001600160a01b03881691507f6b450ffe6df0ac3270ab62a27f356f84db9b321e97bc2b198448798b6238552090600090a350505061043e6001600055565b60009182526001602090815260408084206001600160a01b0393909316845291905290205460ff1690565b600254604051637856879f60e11b815233600482015260009182916001600160a01b039091169063f0ad0f3e90602401602060405180830381865afa158015610d24573d6000803e3d6000fd5b505050506040513d601f19601f82011682018060405250810190610d489190611df6565b610d645760405162461bcd60e51b81526004016106db90611e18565b610d6c61167b565b600083602001519050336001600160a01b0316816001600160a01b03166330b67baa6040518163ffffffff1660e01b8152600401602060405180830381865afa158015610dbd573d6000803e3d6000fd5b505050506040513d601f19601f82011682018060405250810190610de19190611dd9565b6001600160a01b031614610e075760405162461bcd60e51b81526004016106db90611e6c565b6000610e1685606001516114b5565b905060006001600160a01b0316600782604051610e339190611d25565b908152604051908190036020019020546001600160a01b031614610eb45760405162461bcd60e51b815260206004820152603260248201527f457870657269656e636552656769737472793a20657870657269656e6365206e604482015271616d6520616c72656164792065786973747360701b60648201526084016106db565b600480546020870151606088015188516040808b015190516364ee8f7560e11b81526000966001600160a01b039096169563c9dd1eea95610efd95909490939092909101612026565b6020604051808303816000875af1158015610f1c573d6000803e3d6000fd5b505050506040513d601f19601f82011682018060405250810190610f409190611dd9565b90506000610f5187600001516115ab565b604051602001610f619190611d86565b6040516020818303038152906040528051906020012090506000600360009054906101000a90046001600160a01b03166001600160a01b0316633c3f5ff46040518060400160405280866001600160a01b03168152602001866001600160a01b031663072ea61c6040518163ffffffff1660e01b8152600401602060405180830381865afa158015610ff7573d6000803e3d6000fd5b505050506040513d601f19601f8201168201806040525081019061101b9190611d41565b90526040516001600160e01b031960e084901b16815281516001600160a01b0316600482015260209091015160248201526044016020604051808303816000875af115801561106e573d6000803e3d6000fd5b505050506040513d601f19601f820116820180604052508101906110929190611d41565b905060006040518060800160405280336001600160a01b03168152602001876001600160a01b03166330b67baa6040518163ffffffff1660e01b8152600401602060405180830381865afa1580156110ee573d6000803e3d6000fd5b505050506040513d601f19601f820116820180604052508101906111129190611dd9565b6001600160a01b03908116825286811660208084018290526040938401879052600088815260058252848120865181549086166001600160a01b0319918216178255878401805160018085018054928a1692851692909217909155898901805160028087018054928c169287169290921790915560608c0180516003978801559887526006909752948990208a518154908a1690851617815591519082018054918916918416919091179055925193830180549490961693169290921790935590519101555190915081906007906111eb908890611d25565b9081526040805160209281900383018120845181546001600160a01b03199081166001600160a01b039283161783558686015160018401805483169184169190911790558685015160028401805490921690831617905560609095015160039091015563185b3dd560e11b81529051878416933393908b16926330b67baa92600480830193928290030181865afa15801561128a573d6000803e3d6000fd5b505050506040513d601f19601f820116820180604052508101906112ae9190611dd9565b6001600160a01b03167f284da07b6c3bfd84e4304b95aae72358796b236d9ef08c1c941ff02bfe7185e5876001600160a01b03166306fdde036040518163ffffffff1660e01b8152600401600060405180830381865afa158015611316573d6000803e3d6000fd5b505050506040513d6000823e601f3d908101601f1916820160405261133e9190810190611ff1565b60405161134b9190611d86565b60405180910390a4509195509093505050506113676001600055565b915091565b6000805160206121de83398151915261138481611525565b6001600160a01b0382166113aa5760405162461bcd60e51b81526004016106db906120d7565b50600380546001600160a01b0319166001600160a01b0392909216919091179055565b600082815260016020819052604090912001546113e981611525565b6104f9838361160e565b6000805160206121de83398151915261140b81611525565b6001600160a01b0382166114315760405162461bcd60e51b81526004016106db906120d7565b50600280546001600160a01b0319166001600160a01b0392909216919091179055565b6000805160206121de83398151915261146c81611525565b6001600160a01b0382166114925760405162461bcd60e51b81526004016106db906120d7565b50600480546001600160a01b0319166001600160a01b0392909216919091179055565b60608160005b815181101561151e576114ed8282815181106114d9576114d9612121565b01602001516001600160f81b0319166116a5565b8282815181106114ff576114ff612121565b60200101906001600160f81b031916908160001a9053506001016114bb565b5092915050565b61152f81336116f4565b50565b600061153e8383610cac565b6115a35760008381526001602081815260408084206001600160a01b0387168086529252808420805460ff19169093179092559051339286917f2f8788117e7eff1d82e926ec794901d17c78024a50270940304540a733656f0d9190a450600161043e565b50600061043e565b60608160000151826020015183604001516115c98560600151611731565b6115d68660800151611731565b6115e38760a00151611731565b6040516020016115f896959493929190612137565b6040516020818303038152906040529050919050565b600061161a8383610cac565b156115a35760008381526001602090815260408083206001600160a01b0386168085529252808320805460ff1916905551339286917ff6391f5c32d9c69d2a47ea670b442974b53935d1edc7fd64eb21e047a839171b9190a450600161043e565b60026000540361169e57604051633ee5aeb560e01b815260040160405180910390fd5b6002600055565b6000604160f81b6001600160f81b03198316108015906116d35750602d60f91b6001600160f81b0319831611155b156116f0576116e760f883901c60206121b6565b60f81b92915050565b5090565b6116fe8282610cac565b61172d5760405163e2517d3f60e01b81526001600160a01b0382166004820152602481018390526044016106db565b5050565b6060600061173e836117c4565b600101905060008167ffffffffffffffff81111561175e5761175e6118cd565b6040519080825280601f01601f191660200182016040528015611788576020820181803683370190505b5090508181016020015b600019016f181899199a1a9b1b9c1cb0b131b232b360811b600a86061a8153600a850494508461179257509392505050565b60008072184f03e93ff9f4daa797ed6e38ed64bf6a1f0160401b83106118035772184f03e93ff9f4daa797ed6e38ed64bf6a1f0160401b830492506040015b6d04ee2d6d415b85acef8100000000831061182f576d04ee2d6d415b85acef8100000000830492506020015b662386f26fc10000831061184d57662386f26fc10000830492506010015b6305f5e1008310611865576305f5e100830492506008015b612710831061187957612710830492506004015b6064831061188b576064830492506002015b600a831061043e5760010192915050565b6000602082840312156118ae57600080fd5b81356001600160e01b0319811681146118c657600080fd5b9392505050565b634e487b7160e01b600052604160045260246000fd5b60405160c0810167ffffffffffffffff81118282101715611906576119066118cd565b60405290565b6040516080810167ffffffffffffffff81118282101715611906576119066118cd565b604051601f8201601f1916810167ffffffffffffffff81118282101715611958576119586118cd565b604052919050565b600067ffffffffffffffff82111561197a5761197a6118cd565b50601f01601f191660200190565b600061199b61199684611960565b61192f565b90508281528383830111156119af57600080fd5b828260208301376000602084830101529392505050565b600082601f8301126119d757600080fd5b6118c683833560208501611988565b6000602082840312156119f857600080fd5b813567ffffffffffffffff811115611a0f57600080fd5b611a1b848285016119c6565b949350505050565b600060208284031215611a3557600080fd5b5035919050565b6001600160a01b038116811461152f57600080fd5b600060208284031215611a6357600080fd5b81356118c681611a3c565b60008060408385031215611a8157600080fd5b823591506020830135611a9381611a3c565b809150509250929050565b600060c08284031215611ab057600080fd5b611ab86118e3565b9050813567ffffffffffffffff80821115611ad257600080fd5b611ade858386016119c6565b83526020840135915080821115611af457600080fd5b611b00858386016119c6565b60208401526040840135915080821115611b1957600080fd5b50611b26848285016119c6565b604083015250606082013560608201526080820135608082015260a082013560a082015292915050565b600060208284031215611b6257600080fd5b813567ffffffffffffffff811115611b7957600080fd5b611a1b84828501611a9e565b60008060208385031215611b9857600080fd5b823567ffffffffffffffff80821115611bb057600080fd5b818501915085601f830112611bc457600080fd5b813581811115611bd357600080fd5b866020828501011115611be557600080fd5b60209290920196919550909350505050565b60008060408385031215611c0a57600080fd5b8235611c1581611a3c565b91506020830135611a9381611a3c565b600060208284031215611c3757600080fd5b813567ffffffffffffffff80821115611c4f57600080fd5b9083019060808286031215611c6357600080fd5b611c6b61190c565b823582811115611c7a57600080fd5b611c8687828601611a9e565b8252506020830135611c9781611a3c565b6020820152604083013582811115611cae57600080fd5b8301601f81018713611cbf57600080fd5b611cce87823560208401611988565b604083015250606083013582811115611ce657600080fd5b611cf2878286016119c6565b60608301525095945050505050565b60005b83811015611d1c578181015183820152602001611d04565b50506000910152565b60008251611d37818460208701611d01565b9190910192915050565b600060208284031215611d5357600080fd5b5051919050565b60008151808452611d72816020860160208601611d01565b601f01601f19169290920160200192915050565b6020815260006118c66020830184611d5a565b6001600160a01b03841681526040602082018190528101829052818360608301376000818301606090810191909152601f909201601f1916010192915050565b600060208284031215611deb57600080fd5b81516118c681611a3c565b600060208284031215611e0857600080fd5b815180151581146118c657600080fd5b60208082526034908201527f457870657269656e636552656769737472793a2063616c6c6572206973206e6f6040820152731d0818481c9959da5cdd195c9959081ddbdc9b1960621b606082015260800190565b60208082526044908201527f457870657269656e636552656769737472793a20636f6d70616e79206973206e60408201527f6f7420726567697374657265642077697468207468652063616c6c696e6720776060820152631bdc9b1960e21b608082015260a00190565b600082601f830112611ee757600080fd5b8151611ef561199682611960565b818152846020838601011115611f0a57600080fd5b611a1b826020830160208701611d01565b600060208284031215611f2d57600080fd5b815167ffffffffffffffff80821115611f4557600080fd5b9083019060c08286031215611f5957600080fd5b611f616118e3565b825182811115611f7057600080fd5b611f7c87828601611ed6565b825250602083015182811115611f9157600080fd5b611f9d87828601611ed6565b602083015250604083015182811115611fb557600080fd5b611fc187828601611ed6565b604083015250606083015160608201526080830151608082015260a083015160a082015280935050505092915050565b60006020828403121561200357600080fd5b815167ffffffffffffffff81111561201a57600080fd5b611a1b84828501611ed6565b6001600160a01b038516815260806020820181905260009061204a90830186611d5a565b8281036040840152845160c0825261206560c0830182611d5a565b90506020860151828203602084015261207e8282611d5a565b915050604086015182820360408401526120988282611d5a565b915050606086015160608301526080860151608083015260a086015160a083015283810360608501526120cb8186611d5a565b98975050505050505050565b6020808252602a908201527f457870657269656e636552656769737472793a207a65726f2061646472657373604082015269081b9bdd081d985b1a5960b21b606082015260800190565b634e487b7160e01b600052603260045260246000fd5b60008751602061214a8285838d01611d01565b88519184019161215d8184848d01611d01565b885192019161216f8184848c01611d01565b87519201916121818184848b01611d01565b86519201916121938184848a01611d01565b85519201916121a58184848901611d01565b919091019998505050505050505050565b60ff818116838216019081111561043e57634e487b7160e01b600052601160045260246000fdfea49807205ce4d355092ef5a8a18f56e8913cf4a201fbe287825b095693c21775a264697066735822122033a579b2b729e5235a4e67f1a3fac1d0d23e1085e7f0649c8df504684b4c86e264736f6c63430008180033a49807205ce4d355092ef5a8a18f56e8913cf4a201fbe287825b095693c21775",
  "linkReferences": {},
  "deployedLinkReferences": {}
}