{
  "_format": "hh-sol-artifact-1",
  "contractName": "LibExperienceV1Storage",
  "sourceName": "contracts/libraries/LibExperienceV1Storage.sol",
  "abi": [
    {
      "inputs": [],
      "name": "EXPERIENCE_V1_STORAGE_SLOT",
      "outputs": [
        {
          "internalType": "bytes32",
          "name": "",
          "type": "bytes32"
        }
      ],
      "stateMutability": "view",
      "type": "function"
    }
  ],
  "bytecode": "0x60a6610038600b82828239805160001a607314602b57634e487b7160e01b600052600060045260246000fd5b30600052607381538281f3fe730000000000000000000000000000000000000000301460806040526004361060335760003560e01c80635bfa5578146038575b600080fd5b605e7f7ea04aef6bca987a4816974a9eadce73182071dd7a8e8812099e1d973c1ae50581565b60405190815260200160405180910390f3fea2646970667358221220b40965523c8dcbc0024226e2a4ea5a939f1c42cf2d851dd93895f707d532997864736f6c63430008180033",
  "linkReferences": {},
  "deployedLinkReferences": {}
}