{"contracts/asset/NonTransferableERC721Asset.sol":{"NonTransferableERC721Asset":{"abi":[{"inputs":[{"internalType":"address","name":"factory","type":"address"},{"internalType":"address","name":"registry","type":"address"}],"stateMutability":"nonpayable","type":"constructor"},{"inputs":[{"internalType":"address","name":"sender","type":"address"},{"internalType":"uint256","name":"tokenId","type":"uint256"},{"internalType":"address","name":"owner","type":"address"}],"name":"ERC721IncorrectOwner","type":"error"},{"inputs":[{"internalType":"address","name":"operator","type":"address"},{"internalType":"uint256","name":"tokenId","type":"uint256"}],"name":"ERC721InsufficientApproval","type":"error"},{"inputs":[{"internalType":"address","name":"approver","type":"address"}],"name":"ERC721InvalidApprover","type":"error"},{"inputs":[{"internalType":"address","name":"operator","type":"address"}],"name":"ERC721InvalidOperator","type":"error"},{"inputs":[{"internalType":"address","name":"owner","type":"address"}],"name":"ERC721InvalidOwner","type":"error"},{"inputs":[{"internalType":"address","name":"receiver","type":"address"}],"name":"ERC721InvalidReceiver","type":"error"},{"inputs":[{"internalType":"address","name":"sender","type":"address"}],"name":"ERC721InvalidSender","type":"error"},{"inputs":[{"internalType":"uint256","name":"tokenId","type":"uint256"}],"name":"ERC721NonexistentToken","type":"error"},{"anonymous":false,"inputs":[{"indexed":true,"internalType":"address","name":"owner","type":"address"},{"indexed":true,"internalType":"address","name":"approved","type":"address"},{"indexed":true,"internalType":"uint256","name":"tokenId","type":"uint256"}],"name":"Approval","type":"event"},{"anonymous":false,"inputs":[{"indexed":true,"internalType":"address","name":"owner","type":"address"},{"indexed":true,"internalType":"address","name":"operator","type":"address"},{"indexed":false,"internalType":"bool","name":"approved","type":"bool"}],"name":"ApprovalForAll","type":"event"},{"anonymous":false,"inputs":[{"indexed":true,"internalType":"address","name":"to","type":"address"},{"indexed":false,"internalType":"uint256","name":"tokenId","type":"uint256"}],"name":"ERC721Minted","type":"event"},{"anonymous":false,"inputs":[{"indexed":true,"internalType":"address","name":"oldAsset","type":"address"},{"indexed":true,"internalType":"address","name":"newAsset","type":"address"}],"name":"ERC721Upgraded","type":"event"},{"anonymous":false,"inputs":[{"indexed":true,"internalType":"address","name":"from","type":"address"},{"indexed":true,"internalType":"address","name":"to","type":"address"},{"indexed":true,"internalType":"uint256","name":"tokenId","type":"uint256"}],"name":"Transfer","type":"event"},{"inputs":[{"internalType":"address","name":"","type":"address"},{"internalType":"uint256","name":"","type":"uint256"}],"name":"approve","outputs":[],"stateMutability":"nonpayable","type":"function"},{"inputs":[],"name":"assetFactory","outputs":[{"internalType":"address","name":"","type":"address"}],"stateMutability":"view","type":"function"},{"inputs":[],"name":"assetRegistry","outputs":[{"internalType":"address","name":"","type":"address"}],"stateMutability":"view","type":"function"},{"inputs":[{"internalType":"address","name":"owner","type":"address"}],"name":"balanceOf","outputs":[{"internalType":"uint256","name":"","type":"uint256"}],"stateMutability":"view","type":"function"},{"inputs":[{"components":[{"internalType":"address","name":"issuer","type":"address"},{"internalType":"address","name":"originChainAddress","type":"address"},{"internalType":"uint256","name":"originChainId","type":"uint256"},{"internalType":"string","name":"name","type":"string"},{"internalType":"string","name":"symbol","type":"string"},{"internalType":"string","name":"baseURI","type":"string"}],"internalType":"struct ERC721InitData","name":"data","type":"tuple"}],"name":"encodeInitData","outputs":[{"internalType":"bytes","name":"","type":"bytes"}],"stateMutability":"pure","type":"function"},{"inputs":[{"internalType":"uint256","name":"tokenId","type":"uint256"}],"name":"getApproved","outputs":[{"internalType":"address","name":"","type":"address"}],"stateMutability":"view","type":"function"},{"inputs":[{"internalType":"bytes","name":"initData","type":"bytes"}],"name":"init","outputs":[],"stateMutability":"nonpayable","type":"function"},{"inputs":[{"internalType":"address","name":"owner","type":"address"},{"internalType":"address","name":"operator","type":"address"}],"name":"isApprovedForAll","outputs":[{"internalType":"bool","name":"","type":"bool"}],"stateMutability":"view","type":"function"},{"inputs":[],"name":"issuer","outputs":[{"internalType":"address","name":"","type":"address"}],"stateMutability":"view","type":"function"},{"inputs":[{"internalType":"address","name":"to","type":"address"}],"name":"mint","outputs":[{"internalType":"uint256","name":"id","type":"uint256"}],"stateMutability":"nonpayable","type":"function"},{"inputs":[],"name":"name","outputs":[{"internalType":"string","name":"","type":"string"}],"stateMutability":"view","type":"function"},{"inputs":[],"name":"originChainAddress","outputs":[{"internalType":"address","name":"","type":"address"}],"stateMutability":"view","type":"function"},{"inputs":[],"name":"originChainId","outputs":[{"internalType":"uint256","name":"","type":"uint256"}],"stateMutability":"view","type":"function"},{"inputs":[{"internalType":"uint256","name":"tokenId","type":"uint256"}],"name":"ownerOf","outputs":[{"internalType":"address","name":"","type":"address"}],"stateMutability":"view","type":"function"},{"inputs":[{"internalType":"address","name":"from","type":"address"},{"internalType":"address","name":"to","type":"address"},{"internalType":"uint256","name":"tokenId","type":"uint256"}],"name":"safeTransferFrom","outputs":[],"stateMutability":"nonpayable","type":"function"},{"inputs":[{"internalType":"address","name":"","type":"address"},{"internalType":"address","name":"","type":"address"},{"internalType":"uint256","name":"","type":"uint256"},{"internalType":"bytes","name":"","type":"bytes"}],"name":"safeTransferFrom","outputs":[],"stateMutability":"nonpayable","type":"function"},{"inputs":[{"internalType":"address","name":"","type":"address"},{"internalType":"bool","name":"","type":"bool"}],"name":"setApprovalForAll","outputs":[],"stateMutability":"nonpayable","type":"function"},{"inputs":[{"internalType":"bytes4","name":"interfaceId","type":"bytes4"}],"name":"supportsInterface","outputs":[{"internalType":"bool","name":"","type":"bool"}],"stateMutability":"view","type":"function"},{"inputs":[],"name":"symbol","outputs":[{"internalType":"string","name":"","type":"string"}],"stateMutability":"view","type":"function"},{"inputs":[{"internalType":"uint256","name":"tokenId","type":"uint256"}],"name":"tokenURI","outputs":[{"internalType":"string","name":"","type":"string"}],"stateMutability":"view","type":"function"},{"inputs":[{"internalType":"address","name":"","type":"address"},{"internalType":"address","name":"","type":"address"},{"internalType":"uint256","name":"","type":"uint256"}],"name":"transferFrom","outputs":[],"stateMutability":"nonpayable","type":"function"},{"inputs":[{"internalType":"address","name":"newAsset","type":"address"}],"name":"upgrade","outputs":[],"stateMutability":"nonpayable","type":"function"},{"inputs":[],"name":"upgraded","outputs":[{"internalType":"bool","name":"","type":"bool"}],"stateMutability":"view","type":"function"}],"evm":{"bytecode":{"linkReferences":{},"object":"60c06040523480156200001157600080fd5b5060405162001c3938038062001c3983398101604081905262000034916200015e565b6001600160a01b038216620000ab5760405162461bcd60e51b815260206004820152603260248201527f4e6f6e5472616e7366657261626c654552433732313a20666163746f727920696044820152717320746865207a65726f206164647265737360701b60648201526084015b60405180910390fd5b6001600160a01b038116620001295760405162461bcd60e51b815260206004820152603360248201527f4e6f6e5472616e7366657261626c654552433732313a2072656769737472792060448201527f697320746865207a65726f2061646472657373000000000000000000000000006064820152608401620000a2565b6001600160a01b039182166080521660a05262000196565b80516001600160a01b03811681146200015957600080fd5b919050565b600080604083850312156200017257600080fd5b6200017d8362000141565b91506200018d6020840162000141565b90509250929050565b60805160a051611a6f620001ca600039600081816102ac0152610463015260008181610303015261061e0152611a6f6000f3fe608060405234801561001057600080fd5b506004361061014d5760003560e01c806361f3fcb2116100c3578063a22cb4651161007c578063a22cb465146102ce578063b88d4fde146102dc578063c28de2cd146102ea578063c3acb4d1146102fe578063c87b56dd14610325578063e985e9c51461033857600080fd5b806361f3fcb2146102535780636352211e146102665780636a6278421461027957806370a082311461028c57806395d89b411461029f578063979d7e86146102a757600080fd5b80630ac7f561116101155780630ac7f561146101e257806318cbd134146101f95780631d1438481461020c57806323b872dd1461021f57806342842e0e1461022d5780634ddf47d41461024057600080fd5b806301ffc9a71461015257806306fdde031461017a578063081812fc1461018f5780630900f010146101ba578063095ea7b3146101cf575b600080fd5b610165610160366004611273565b61034b565b60405190151581526020015b60405180910390f35b61018261039d565b60405161017191906112e0565b6101a261019d3660046112f3565b61042f565b6040516001600160a01b039091168152602001610171565b6101cd6101c836600461132c565b610458565b005b6101cd6101dd366004611349565b610592565b6101eb60025481565b604051908152602001610171565b6001546101a2906001600160a01b031681565b6000546101a2906001600160a01b031681565b6101cd6101dd366004611375565b6101cd61023b366004611375565b6105f3565b6101cd61024e3660046114a4565b610613565b6101826102613660046114d9565b6109af565b6101a26102743660046112f3565b6109d8565b6101eb61028736600461132c565b6109e3565b6101eb61029a36600461132c565b610a71565b610182610ab9565b6101a27f000000000000000000000000000000000000000000000000000000000000000081565b6101cd6101dd3660046115ba565b6101cd6101dd3660046115f8565b60005461016590600160a01b900460ff1681565b6101a27f000000000000000000000000000000000000000000000000000000000000000081565b6101826103333660046112f3565b610ac8565b610165610346366004611664565b610b30565b60006001600160e01b031982166380ac58cd60e01b148061037c57506001600160e01b03198216635b5e139f60e01b145b8061039757506001600160e01b031982166301ffc9a760e01b145b92915050565b6060600480546103ac90611692565b80601f01602080910402602001604051908101604052809291908181526020018280546103d890611692565b80156104255780601f106103fa57610100808354040283529160200191610425565b820191906000526020600020905b81548152906001019060200180831161040857829003601f168201915b5050505050905090565b600061043a82610b5e565b506000828152600960205260409020546001600160a01b0316610397565b336001600160a01b037f000000000000000000000000000000000000000000000000000000000000000016146104ea5760405162461bcd60e51b815260206004820152602c60248201527f4e6f6e5472616e7366657261626c654552433732313a206f6e6c79207265676960448201526b1cdd1c9e48185b1b1bddd95960a21b60648201526084015b60405180910390fd5b60035460405163270b6bcf60e11b815260048101919091526001600160a01b03821690634e16d79e90602401600060405180830381600087803b15801561053057600080fd5b505af1158015610544573d6000803e3d6000fd5b50506000805460ff60a01b1916600160a01b1781556040516001600160a01b03851693503092507f9603bf83c2911c6b0dd953eb62e0804c697e90855fa1007b93c0964cb39d8e169190a350565b60405162461bcd60e51b815260206004820152603060248201527f4e6f6e5472616e7366657261626c654552433732313a20746f6b656e2069732060448201526f6e6f6e2d7472616e7366657261626c6560801b60648201526084016104e1565b61060e83838360405180602001604052806000815250610592565b505050565b336001600160a01b037f0000000000000000000000000000000000000000000000000000000000000000161461069f5760405162461bcd60e51b815260206004820152602b60248201527f4e6f6e5472616e7366657261626c654552433732313a206f6e6c79206661637460448201526a1bdc9e48185b1b1bddd95960aa1b60648201526084016104e1565b6000818060200190518101906106b5919061171c565b80519091506001600160a01b03166107295760405162461bcd60e51b815260206004820152603160248201527f4e6f6e5472616e7366657261626c654552433732313a2069737375657220697360448201527020746865207a65726f206164647265737360781b60648201526084016104e1565b60008160600151511161078a5760405162461bcd60e51b8152602060048201526024808201527f4e6f6e5472616e7366657261626c654552433732313a206e616d6520697320656044820152636d70747960e01b60648201526084016104e1565b6000816080015151116107ee5760405162461bcd60e51b815260206004820152602660248201527f4e6f6e5472616e7366657261626c654552433732313a2073796d626f6c20697360448201526520656d70747960d01b60648201526084016104e1565b60008160a0015151116108535760405162461bcd60e51b815260206004820152602760248201527f4e6f6e5472616e7366657261626c654552433732313a206261736555524920696044820152667320656d70747960c81b60648201526084016104e1565b60208101516001600160a01b03166108d35760405162461bcd60e51b815260206004820152603d60248201527f4e6f6e5472616e7366657261626c654552433732313a206f726967696e43686160448201527f696e4164647265737320697320746865207a65726f206164647265737300000060648201526084016104e1565b600081604001511161093c5760405162461bcd60e51b815260206004820152602c60248201527f4e6f6e5472616e7366657261626c654552433732313a206f726967696e43686160448201526b696e4964206973207a65726f60a01b60648201526084016104e1565b8051600080546001600160a01b039283166001600160a01b03199182161790915560208301516001805491909316911617905560408101516002556060810151600490610989908261183e565b50608081015160059061099c908261183e565b5060a081015160069061060e908261183e565b6060816040516020016109c291906118fe565b6040516020818303038152906040529050919050565b600061039782610b5e565b600080546001600160a01b0316610a4b5760405162461bcd60e51b815260206004820152602660248201527f4e6f6e5472616e7366657261626c654552433732313a206e6f7420696e697469604482015265185b1a5e995960d21b60648201526084016104e1565b600360008154610a5a90611989565b9091555050600354610a6c8282610b97565b919050565b60006001600160a01b038216610a9d576040516322718ad960e21b8152600060048201526024016104e1565b506001600160a01b031660009081526008602052604090205490565b6060600580546103ac90611692565b6060610ad382610b5e565b506000610ade610bb5565b90506000815111610afe5760405180602001604052806000815250610b29565b80610b0884610bc4565b604051602001610b199291906119b0565b6040516020818303038152906040525b9392505050565b6001600160a01b039182166000908152600a6020908152604080832093909416825291909152205460ff1690565b6000818152600760205260408120546001600160a01b03168061039757604051637e27328960e01b8152600481018490526024016104e1565b610bb1828260405180602001604052806000815250610c57565b5050565b6060600680546103ac90611692565b60606000610bd183610c6e565b600101905060008167ffffffffffffffff811115610bf157610bf16113b6565b6040519080825280601f01601f191660200182016040528015610c1b576020820181803683370190505b5090508181016020015b600019016f181899199a1a9b1b9c1cb0b131b232b360811b600a86061a8153600a8504945084610c2557509392505050565b610c618383610d46565b61060e6000848484610e67565b60008072184f03e93ff9f4daa797ed6e38ed64bf6a1f0160401b8310610cad5772184f03e93ff9f4daa797ed6e38ed64bf6a1f0160401b830492506040015b6d04ee2d6d415b85acef81000000008310610cd9576d04ee2d6d415b85acef8100000000830492506020015b662386f26fc100008310610cf757662386f26fc10000830492506010015b6305f5e1008310610d0f576305f5e100830492506008015b6127108310610d2357612710830492506004015b60648310610d35576064830492506002015b600a83106103975760010192915050565b600054600160a01b900460ff1615610dba5760405162461bcd60e51b815260206004820152603160248201527f4e6f6e5472616e7366657261626c654552433732313a20636f6e7472616374206044820152701a185cc81899595b881d5c19dc98591959607a1b60648201526084016104e1565b6001600160a01b038216610de457604051633250574960e11b8152600060048201526024016104e1565b6000610df283836000610f91565b90506001600160a01b03811615610e1f576040516339e3563760e11b8152600060048201526024016104e1565b826001600160a01b03167f1292a1381d69fd0f033102672143fff68d426b4b73eb1fa4df2620aeed9a299483604051610e5a91815260200190565b60405180910390a2505050565b6001600160a01b0383163b15610f8b57604051630a85bd0160e11b81526001600160a01b0384169063150b7a0290610ea99033908890879087906004016119df565b6020604051808303816000875af1925050508015610ee4575060408051601f3d908101601f19168201909252610ee191810190611a1c565b60015b610f4d573d808015610f12576040519150601f19603f3d011682016040523d82523d6000602084013e610f17565b606091505b508051600003610f4557604051633250574960e11b81526001600160a01b03851660048201526024016104e1565b805181602001fd5b6001600160e01b03198116630a85bd0160e11b14610f8957604051633250574960e11b81526001600160a01b03851660048201526024016104e1565b505b50505050565b6000828152600760205260408120546001600160a01b0390811690831615610fbe57610fbe81848661108a565b6001600160a01b03811615610ffc57610fdb6000856000806110ee565b6001600160a01b038116600090815260086020526040902080546000190190555b6001600160a01b0385161561102b576001600160a01b0385166000908152600860205260409020805460010190555b60008481526007602052604080822080546001600160a01b0319166001600160a01b0389811691821790925591518793918516917fddf252ad1be2c89b69c2b068fc378daa952ba7f163c4a11628f55a4df523b3ef91a4949350505050565b6110958383836111f4565b61060e576001600160a01b0383166110c357604051637e27328960e01b8152600481018290526024016104e1565b60405163177e802f60e01b81526001600160a01b0383166004820152602481018290526044016104e1565b808061110257506001600160a01b03821615155b156111c457600061111284610b5e565b90506001600160a01b0383161580159061113e5750826001600160a01b0316816001600160a01b031614155b8015611151575061114f8184610b30565b155b1561117a5760405163a9fbf51f60e01b81526001600160a01b03841660048201526024016104e1565b81156111c25783856001600160a01b0316826001600160a01b03167f8c5be1e5ebec7d5bd14f71427d1e84f3dd0314c0f7b2291e5b200ac8c7c3b92560405160405180910390a45b505b5050600090815260096020526040902080546001600160a01b0319166001600160a01b0392909216919091179055565b60006001600160a01b038316158015906112525750826001600160a01b0316846001600160a01b0316148061122e575061122e8484610b30565b8061125257506000828152600960205260409020546001600160a01b038481169116145b949350505050565b6001600160e01b03198116811461127057600080fd5b50565b60006020828403121561128557600080fd5b8135610b298161125a565b60005b838110156112ab578181015183820152602001611293565b50506000910152565b600081518084526112cc816020860160208601611290565b601f01601f19169290920160200192915050565b602081526000610b2960208301846112b4565b60006020828403121561130557600080fd5b5035919050565b6001600160a01b038116811461127057600080fd5b8035610a6c8161130c565b60006020828403121561133e57600080fd5b8135610b298161130c565b6000806040838503121561135c57600080fd5b82356113678161130c565b946020939093013593505050565b60008060006060848603121561138a57600080fd5b83356113958161130c565b925060208401356113a58161130c565b929592945050506040919091013590565b634e487b7160e01b600052604160045260246000fd5b60405160c0810167ffffffffffffffff811182821017156113ef576113ef6113b6565b60405290565b604051601f8201601f1916810167ffffffffffffffff8111828210171561141e5761141e6113b6565b604052919050565b600067ffffffffffffffff821115611440576114406113b6565b50601f01601f191660200190565b600082601f83011261145f57600080fd5b813561147261146d82611426565b6113f5565b81815284602083860101111561148757600080fd5b816020850160208301376000918101602001919091529392505050565b6000602082840312156114b657600080fd5b813567ffffffffffffffff8111156114cd57600080fd5b6112528482850161144e565b6000602082840312156114eb57600080fd5b813567ffffffffffffffff8082111561150357600080fd5b9083019060c0828603121561151757600080fd5b61151f6113cc565b61152883611321565b815261153660208401611321565b60208201526040830135604082015260608301358281111561155757600080fd5b6115638782860161144e565b60608301525060808301358281111561157b57600080fd5b6115878782860161144e565b60808301525060a08301358281111561159f57600080fd5b6115ab8782860161144e565b60a08301525095945050505050565b600080604083850312156115cd57600080fd5b82356115d88161130c565b9150602083013580151581146115ed57600080fd5b809150509250929050565b6000806000806080858703121561160e57600080fd5b84356116198161130c565b935060208501356116298161130c565b925060408501359150606085013567ffffffffffffffff81111561164c57600080fd5b6116588782880161144e565b91505092959194509250565b6000806040838503121561167757600080fd5b82356116828161130c565b915060208301356115ed8161130c565b600181811c908216806116a657607f821691505b6020821081036116c657634e487b7160e01b600052602260045260246000fd5b50919050565b8051610a6c8161130c565b600082601f8301126116e857600080fd5b81516116f661146d82611426565b81815284602083860101111561170b57600080fd5b611252826020830160208701611290565b60006020828403121561172e57600080fd5b815167ffffffffffffffff8082111561174657600080fd5b9083019060c0828603121561175a57600080fd5b6117626113cc565b61176b836116cc565b8152611779602084016116cc565b60208201526040830151604082015260608301518281111561179a57600080fd5b6117a6878286016116d7565b6060830152506080830151828111156117be57600080fd5b6117ca878286016116d7565b60808301525060a0830151828111156117e257600080fd5b6115ab878286016116d7565b601f82111561060e576000816000526020600020601f850160051c810160208610156118175750805b601f850160051c820191505b8181101561183657828155600101611823565b505050505050565b815167ffffffffffffffff811115611858576118586113b6565b61186c816118668454611692565b846117ee565b602080601f8311600181146118a157600084156118895750858301515b600019600386901b1c1916600185901b178555611836565b600085815260208120601f198616915b828110156118d0578886015182559484019460019091019084016118b1565b50858210156118ee5787850151600019600388901b60f8161c191681555b5050505050600190811b01905550565b60208152600060018060a01b038084511660208401528060208501511660408401525060408301516060830152606083015160c0608084015261194460e08401826112b4565b90506080840151601f19808584030160a086015261196283836112b4565b925060a08601519150808584030160c08601525061198082826112b4565b95945050505050565b6000600182016119a957634e487b7160e01b600052601160045260246000fd5b5060010190565b600083516119c2818460208801611290565b8351908301906119d6818360208801611290565b01949350505050565b6001600160a01b0385811682528416602082015260408101839052608060608201819052600090611a12908301846112b4565b9695505050505050565b600060208284031215611a2e57600080fd5b8151610b298161125a56fea2646970667358221220f3b43aa0d8185fd82bba7ad6a653e8f60c2cb5c687ad5f9157876202fe8cb01a64736f6c63430008180033","opcodes":"PUSH1 0xC0 PUSH1 0x40 MSTORE CALLVALUE DUP1 ISZERO PUSH3 0x11 JUMPI PUSH1 0x0 DUP1 REVERT JUMPDEST POP PUSH1 0x40 MLOAD PUSH3 0x1C39 CODESIZE SUB DUP1 PUSH3 0x1C39 DUP4 CODECOPY DUP2 ADD PUSH1 0x40 DUP2 SWAP1 MSTORE PUSH3 0x34 SWAP2 PUSH3 0x15E JUMP JUMPDEST PUSH1 0x1 PUSH1 0x1 PUSH1 0xA0 SHL SUB DUP3 AND PUSH3 0xAB JUMPI PUSH1 0x40 MLOAD PUSH3 0x461BCD PUSH1 0xE5 SHL DUP2 MSTORE PUSH1 0x20 PUSH1 0x4 DUP3 ADD MSTORE PUSH1 0x32 PUSH1 0x24 DUP3 ADD MSTORE PUSH32 0x4E6F6E5472616E7366657261626C654552433732313A20666163746F72792069 PUSH1 0x44 DUP3 ADD MSTORE PUSH18 0x7320746865207A65726F2061646472657373 PUSH1 0x70 SHL PUSH1 0x64 DUP3 ADD MSTORE PUSH1 0x84 ADD JUMPDEST PUSH1 0x40 MLOAD DUP1 SWAP2 SUB SWAP1 REVERT JUMPDEST PUSH1 0x1 PUSH1 0x1 PUSH1 0xA0 SHL SUB DUP2 AND PUSH3 0x129 JUMPI PUSH1 0x40 MLOAD PUSH3 0x461BCD PUSH1 0xE5 SHL DUP2 MSTORE PUSH1 0x20 PUSH1 0x4 DUP3 ADD MSTORE PUSH1 0x33 PUSH1 0x24 DUP3 ADD MSTORE PUSH32 0x4E6F6E5472616E7366657261626C654552433732313A20726567697374727920 PUSH1 0x44 DUP3 ADD MSTORE PUSH32 0x697320746865207A65726F206164647265737300000000000000000000000000 PUSH1 0x64 DUP3 ADD MSTORE PUSH1 0x84 ADD PUSH3 0xA2 JUMP JUMPDEST PUSH1 0x1 PUSH1 0x1 PUSH1 0xA0 SHL SUB SWAP2 DUP3 AND PUSH1 0x80 MSTORE AND PUSH1 0xA0 MSTORE PUSH3 0x196 JUMP JUMPDEST DUP1 MLOAD PUSH1 0x1 PUSH1 0x1 PUSH1 0xA0 SHL SUB DUP2 AND DUP2 EQ PUSH3 0x159 JUMPI PUSH1 0x0 DUP1 REVERT JUMPDEST SWAP2 SWAP1 POP JUMP JUMPDEST PUSH1 0x0 DUP1 PUSH1 0x40 DUP4 DUP6 SUB SLT ISZERO PUSH3 0x172 JUMPI PUSH1 0x0 DUP1 REVERT JUMPDEST PUSH3 0x17D DUP4 PUSH3 0x141 JUMP JUMPDEST SWAP2 POP PUSH3 0x18D PUSH1 0x20 DUP5 ADD PUSH3 0x141 JUMP JUMPDEST SWAP1 POP SWAP3 POP SWAP3 SWAP1 POP JUMP JUMPDEST PUSH1 0x80 MLOAD PUSH1 0xA0 MLOAD PUSH2 0x1A6F PUSH3 0x1CA PUSH1 0x0 CODECOPY PUSH1 0x0 DUP2 DUP2 PUSH2 0x2AC ADD MSTORE PUSH2 0x463 ADD MSTORE PUSH1 0x0 DUP2 DUP2 PUSH2 0x303 ADD MSTORE PUSH2 0x61E ADD MSTORE PUSH2 0x1A6F PUSH1 0x0 RETURN INVALID PUSH1 0x80 PUSH1 0x40 MSTORE CALLVALUE DUP1 ISZERO PUSH2 0x10 JUMPI PUSH1 0x0 DUP1 REVERT JUMPDEST POP PUSH1 0x4 CALLDATASIZE LT PUSH2 0x14D JUMPI PUSH1 0x0 CALLDATALOAD PUSH1 0xE0 SHR DUP1 PUSH4 0x61F3FCB2 GT PUSH2 0xC3 JUMPI DUP1 PUSH4 0xA22CB465 GT PUSH2 0x7C JUMPI DUP1 PUSH4 0xA22CB465 EQ PUSH2 0x2CE JUMPI DUP1 PUSH4 0xB88D4FDE EQ PUSH2 0x2DC JUMPI DUP1 PUSH4 0xC28DE2CD EQ PUSH2 0x2EA JUMPI DUP1 PUSH4 0xC3ACB4D1 EQ PUSH2 0x2FE JUMPI DUP1 PUSH4 0xC87B56DD EQ PUSH2 0x325 JUMPI DUP1 PUSH4 0xE985E9C5 EQ PUSH2 0x338 JUMPI PUSH1 0x0 DUP1 REVERT JUMPDEST DUP1 PUSH4 0x61F3FCB2 EQ PUSH2 0x253 JUMPI DUP1 PUSH4 0x6352211E EQ PUSH2 0x266 JUMPI DUP1 PUSH4 0x6A627842 EQ PUSH2 0x279 JUMPI DUP1 PUSH4 0x70A08231 EQ PUSH2 0x28C JUMPI DUP1 PUSH4 0x95D89B41 EQ PUSH2 0x29F JUMPI DUP1 PUSH4 0x979D7E86 EQ PUSH2 0x2A7 JUMPI PUSH1 0x0 DUP1 REVERT JUMPDEST DUP1 PUSH4 0xAC7F561 GT PUSH2 0x115 JUMPI DUP1 PUSH4 0xAC7F561 EQ PUSH2 0x1E2 JUMPI DUP1 PUSH4 0x18CBD134 EQ PUSH2 0x1F9 JUMPI DUP1 PUSH4 0x1D143848 EQ PUSH2 0x20C JUMPI DUP1 PUSH4 0x23B872DD EQ PUSH2 0x21F JUMPI DUP1 PUSH4 0x42842E0E EQ PUSH2 0x22D JUMPI DUP1 PUSH4 0x4DDF47D4 EQ PUSH2 0x240 JUMPI PUSH1 0x0 DUP1 REVERT JUMPDEST DUP1 PUSH4 0x1FFC9A7 EQ PUSH2 0x152 JUMPI DUP1 PUSH4 0x6FDDE03 EQ PUSH2 0x17A JUMPI DUP1 PUSH4 0x81812FC EQ PUSH2 0x18F JUMPI DUP1 PUSH4 0x900F010 EQ PUSH2 0x1BA JUMPI DUP1 PUSH4 0x95EA7B3 EQ PUSH2 0x1CF JUMPI JUMPDEST PUSH1 0x0 DUP1 REVERT JUMPDEST PUSH2 0x165 PUSH2 0x160 CALLDATASIZE PUSH1 0x4 PUSH2 0x1273 JUMP JUMPDEST PUSH2 0x34B JUMP JUMPDEST PUSH1 0x40 MLOAD SWAP1 ISZERO ISZERO DUP2 MSTORE PUSH1 0x20 ADD JUMPDEST PUSH1 0x40 MLOAD DUP1 SWAP2 SUB SWAP1 RETURN JUMPDEST PUSH2 0x182 PUSH2 0x39D JUMP JUMPDEST PUSH1 0x40 MLOAD PUSH2 0x171 SWAP2 SWAP1 PUSH2 0x12E0 JUMP JUMPDEST PUSH2 0x1A2 PUSH2 0x19D CALLDATASIZE PUSH1 0x4 PUSH2 0x12F3 JUMP JUMPDEST PUSH2 0x42F JUMP JUMPDEST PUSH1 0x40 MLOAD PUSH1 0x1 PUSH1 0x1 PUSH1 0xA0 SHL SUB SWAP1 SWAP2 AND DUP2 MSTORE PUSH1 0x20 ADD PUSH2 0x171 JUMP JUMPDEST PUSH2 0x1CD PUSH2 0x1C8 CALLDATASIZE PUSH1 0x4 PUSH2 0x132C JUMP JUMPDEST PUSH2 0x458 JUMP JUMPDEST STOP JUMPDEST PUSH2 0x1CD PUSH2 0x1DD CALLDATASIZE PUSH1 0x4 PUSH2 0x1349 JUMP JUMPDEST PUSH2 0x592 JUMP JUMPDEST PUSH2 0x1EB PUSH1 0x2 SLOAD DUP2 JUMP JUMPDEST PUSH1 0x40 MLOAD SWAP1 DUP2 MSTORE PUSH1 0x20 ADD PUSH2 0x171 JUMP JUMPDEST PUSH1 0x1 SLOAD PUSH2 0x1A2 SWAP1 PUSH1 0x1 PUSH1 0x1 PUSH1 0xA0 SHL SUB AND DUP2 JUMP JUMPDEST PUSH1 0x0 SLOAD PUSH2 0x1A2 SWAP1 PUSH1 0x1 PUSH1 0x1 PUSH1 0xA0 SHL SUB AND DUP2 JUMP JUMPDEST PUSH2 0x1CD PUSH2 0x1DD CALLDATASIZE PUSH1 0x4 PUSH2 0x1375 JUMP JUMPDEST PUSH2 0x1CD PUSH2 0x23B CALLDATASIZE PUSH1 0x4 PUSH2 0x1375 JUMP JUMPDEST PUSH2 0x5F3 JUMP JUMPDEST PUSH2 0x1CD PUSH2 0x24E CALLDATASIZE PUSH1 0x4 PUSH2 0x14A4 JUMP JUMPDEST PUSH2 0x613 JUMP JUMPDEST PUSH2 0x182 PUSH2 0x261 CALLDATASIZE PUSH1 0x4 PUSH2 0x14D9 JUMP JUMPDEST PUSH2 0x9AF JUMP JUMPDEST PUSH2 0x1A2 PUSH2 0x274 CALLDATASIZE PUSH1 0x4 PUSH2 0x12F3 JUMP JUMPDEST PUSH2 0x9D8 JUMP JUMPDEST PUSH2 0x1EB PUSH2 0x287 CALLDATASIZE PUSH1 0x4 PUSH2 0x132C JUMP JUMPDEST PUSH2 0x9E3 JUMP JUMPDEST PUSH2 0x1EB PUSH2 0x29A CALLDATASIZE PUSH1 0x4 PUSH2 0x132C JUMP JUMPDEST PUSH2 0xA71 JUMP JUMPDEST PUSH2 0x182 PUSH2 0xAB9 JUMP JUMPDEST PUSH2 0x1A2 PUSH32 0x0 DUP2 JUMP JUMPDEST PUSH2 0x1CD PUSH2 0x1DD CALLDATASIZE PUSH1 0x4 PUSH2 0x15BA JUMP JUMPDEST PUSH2 0x1CD PUSH2 0x1DD CALLDATASIZE PUSH1 0x4 PUSH2 0x15F8 JUMP JUMPDEST PUSH1 0x0 SLOAD PUSH2 0x165 SWAP1 PUSH1 0x1 PUSH1 0xA0 SHL SWAP1 DIV PUSH1 0xFF AND DUP2 JUMP JUMPDEST PUSH2 0x1A2 PUSH32 0x0 DUP2 JUMP JUMPDEST PUSH2 0x182 PUSH2 0x333 CALLDATASIZE PUSH1 0x4 PUSH2 0x12F3 JUMP JUMPDEST PUSH2 0xAC8 JUMP JUMPDEST PUSH2 0x165 PUSH2 0x346 CALLDATASIZE PUSH1 0x4 PUSH2 0x1664 JUMP JUMPDEST PUSH2 0xB30 JUMP JUMPDEST PUSH1 0x0 PUSH1 0x1 PUSH1 0x1 PUSH1 0xE0 SHL SUB NOT DUP3 AND PUSH4 0x80AC58CD PUSH1 0xE0 SHL EQ DUP1 PUSH2 0x37C JUMPI POP PUSH1 0x1 PUSH1 0x1 PUSH1 0xE0 SHL SUB NOT DUP3 AND PUSH4 0x5B5E139F PUSH1 0xE0 SHL EQ JUMPDEST DUP1 PUSH2 0x397 JUMPI POP PUSH1 0x1 PUSH1 0x1 PUSH1 0xE0 SHL SUB NOT DUP3 AND PUSH4 0x1FFC9A7 PUSH1 0xE0 SHL EQ JUMPDEST SWAP3 SWAP2 POP POP JUMP JUMPDEST PUSH1 0x60 PUSH1 0x4 DUP1 SLOAD PUSH2 0x3AC SWAP1 PUSH2 0x1692 JUMP JUMPDEST DUP1 PUSH1 0x1F ADD PUSH1 0x20 DUP1 SWAP2 DIV MUL PUSH1 0x20 ADD PUSH1 0x40 MLOAD SWAP1 DUP2 ADD PUSH1 0x40 MSTORE DUP1 SWAP3 SWAP2 SWAP1 DUP2 DUP2 MSTORE PUSH1 0x20 ADD DUP3 DUP1 SLOAD PUSH2 0x3D8 SWAP1 PUSH2 0x1692 JUMP JUMPDEST DUP1 ISZERO PUSH2 0x425 JUMPI DUP1 PUSH1 0x1F LT PUSH2 0x3FA JUMPI PUSH2 0x100 DUP1 DUP4 SLOAD DIV MUL DUP4 MSTORE SWAP2 PUSH1 0x20 ADD SWAP2 PUSH2 0x425 JUMP JUMPDEST DUP3 ADD SWAP2 SWAP1 PUSH1 0x0 MSTORE PUSH1 0x20 PUSH1 0x0 KECCAK256 SWAP1 JUMPDEST DUP2 SLOAD DUP2 MSTORE SWAP1 PUSH1 0x1 ADD SWAP1 PUSH1 0x20 ADD DUP1 DUP4 GT PUSH2 0x408 JUMPI DUP3 SWAP1 SUB PUSH1 0x1F AND DUP3 ADD SWAP2 JUMPDEST POP POP POP POP POP SWAP1 POP SWAP1 JUMP JUMPDEST PUSH1 0x0 PUSH2 0x43A DUP3 PUSH2 0xB5E JUMP JUMPDEST POP PUSH1 0x0 DUP3 DUP2 MSTORE PUSH1 0x9 PUSH1 0x20 MSTORE PUSH1 0x40 SWAP1 KECCAK256 SLOAD PUSH1 0x1 PUSH1 0x1 PUSH1 0xA0 SHL SUB AND PUSH2 0x397 JUMP JUMPDEST CALLER PUSH1 0x1 PUSH1 0x1 PUSH1 0xA0 SHL SUB PUSH32 0x0 AND EQ PUSH2 0x4EA JUMPI PUSH1 0x40 MLOAD PUSH3 0x461BCD PUSH1 0xE5 SHL DUP2 MSTORE PUSH1 0x20 PUSH1 0x4 DUP3 ADD MSTORE PUSH1 0x2C PUSH1 0x24 DUP3 ADD MSTORE PUSH32 0x4E6F6E5472616E7366657261626C654552433732313A206F6E6C792072656769 PUSH1 0x44 DUP3 ADD MSTORE PUSH12 0x1CDD1C9E48185B1B1BDDD959 PUSH1 0xA2 SHL PUSH1 0x64 DUP3 ADD MSTORE PUSH1 0x84 ADD JUMPDEST PUSH1 0x40 MLOAD DUP1 SWAP2 SUB SWAP1 REVERT JUMPDEST PUSH1 0x3 SLOAD PUSH1 0x40 MLOAD PUSH4 0x270B6BCF PUSH1 0xE1 SHL DUP2 MSTORE PUSH1 0x4 DUP2 ADD SWAP2 SWAP1 SWAP2 MSTORE PUSH1 0x1 PUSH1 0x1 PUSH1 0xA0 SHL SUB DUP3 AND SWAP1 PUSH4 0x4E16D79E SWAP1 PUSH1 0x24 ADD PUSH1 0x0 PUSH1 0x40 MLOAD DUP1 DUP4 SUB DUP2 PUSH1 0x0 DUP8 DUP1 EXTCODESIZE ISZERO DUP1 ISZERO PUSH2 0x530 JUMPI PUSH1 0x0 DUP1 REVERT JUMPDEST POP GAS CALL ISZERO DUP1 ISZERO PUSH2 0x544 JUMPI RETURNDATASIZE PUSH1 0x0 DUP1 RETURNDATACOPY RETURNDATASIZE PUSH1 0x0 REVERT JUMPDEST POP POP PUSH1 0x0 DUP1 SLOAD PUSH1 0xFF PUSH1 0xA0 SHL NOT AND PUSH1 0x1 PUSH1 0xA0 SHL OR DUP2 SSTORE PUSH1 0x40 MLOAD PUSH1 0x1 PUSH1 0x1 PUSH1 0xA0 SHL SUB DUP6 AND SWAP4 POP ADDRESS SWAP3 POP PUSH32 0x9603BF83C2911C6B0DD953EB62E0804C697E90855FA1007B93C0964CB39D8E16 SWAP2 SWAP1 LOG3 POP JUMP JUMPDEST PUSH1 0x40 MLOAD PUSH3 0x461BCD PUSH1 0xE5 SHL DUP2 MSTORE PUSH1 0x20 PUSH1 0x4 DUP3 ADD MSTORE PUSH1 0x30 PUSH1 0x24 DUP3 ADD MSTORE PUSH32 0x4E6F6E5472616E7366657261626C654552433732313A20746F6B656E20697320 PUSH1 0x44 DUP3 ADD MSTORE PUSH16 0x6E6F6E2D7472616E7366657261626C65 PUSH1 0x80 SHL PUSH1 0x64 DUP3 ADD MSTORE PUSH1 0x84 ADD PUSH2 0x4E1 JUMP JUMPDEST PUSH2 0x60E DUP4 DUP4 DUP4 PUSH1 0x40 MLOAD DUP1 PUSH1 0x20 ADD PUSH1 0x40 MSTORE DUP1 PUSH1 0x0 DUP2 MSTORE POP PUSH2 0x592 JUMP JUMPDEST POP POP POP JUMP JUMPDEST CALLER PUSH1 0x1 PUSH1 0x1 PUSH1 0xA0 SHL SUB PUSH32 0x0 AND EQ PUSH2 0x69F JUMPI PUSH1 0x40 MLOAD PUSH3 0x461BCD PUSH1 0xE5 SHL DUP2 MSTORE PUSH1 0x20 PUSH1 0x4 DUP3 ADD MSTORE PUSH1 0x2B PUSH1 0x24 DUP3 ADD MSTORE PUSH32 0x4E6F6E5472616E7366657261626C654552433732313A206F6E6C792066616374 PUSH1 0x44 DUP3 ADD MSTORE PUSH11 0x1BDC9E48185B1B1BDDD959 PUSH1 0xAA SHL PUSH1 0x64 DUP3 ADD MSTORE PUSH1 0x84 ADD PUSH2 0x4E1 JUMP JUMPDEST PUSH1 0x0 DUP2 DUP1 PUSH1 0x20 ADD SWAP1 MLOAD DUP2 ADD SWAP1 PUSH2 0x6B5 SWAP2 SWAP1 PUSH2 0x171C JUMP JUMPDEST DUP1 MLOAD SWAP1 SWAP2 POP PUSH1 0x1 PUSH1 0x1 PUSH1 0xA0 SHL SUB AND PUSH2 0x729 JUMPI PUSH1 0x40 MLOAD PUSH3 0x461BCD PUSH1 0xE5 SHL DUP2 MSTORE PUSH1 0x20 PUSH1 0x4 DUP3 ADD MSTORE PUSH1 0x31 PUSH1 0x24 DUP3 ADD MSTORE PUSH32 0x4E6F6E5472616E7366657261626C654552433732313A20697373756572206973 PUSH1 0x44 DUP3 ADD MSTORE PUSH17 0x20746865207A65726F2061646472657373 PUSH1 0x78 SHL PUSH1 0x64 DUP3 ADD MSTORE PUSH1 0x84 ADD PUSH2 0x4E1 JUMP JUMPDEST PUSH1 0x0 DUP2 PUSH1 0x60 ADD MLOAD MLOAD GT PUSH2 0x78A JUMPI PUSH1 0x40 MLOAD PUSH3 0x461BCD PUSH1 0xE5 SHL DUP2 MSTORE PUSH1 0x20 PUSH1 0x4 DUP3 ADD MSTORE PUSH1 0x24 DUP1 DUP3 ADD MSTORE PUSH32 0x4E6F6E5472616E7366657261626C654552433732313A206E616D652069732065 PUSH1 0x44 DUP3 ADD MSTORE PUSH4 0x6D707479 PUSH1 0xE0 SHL PUSH1 0x64 DUP3 ADD MSTORE PUSH1 0x84 ADD PUSH2 0x4E1 JUMP JUMPDEST PUSH1 0x0 DUP2 PUSH1 0x80 ADD MLOAD MLOAD GT PUSH2 0x7EE JUMPI PUSH1 0x40 MLOAD PUSH3 0x461BCD PUSH1 0xE5 SHL DUP2 MSTORE PUSH1 0x20 PUSH1 0x4 DUP3 ADD MSTORE PUSH1 0x26 PUSH1 0x24 DUP3 ADD MSTORE PUSH32 0x4E6F6E5472616E7366657261626C654552433732313A2073796D626F6C206973 PUSH1 0x44 DUP3 ADD MSTORE PUSH6 0x20656D707479 PUSH1 0xD0 SHL PUSH1 0x64 DUP3 ADD MSTORE PUSH1 0x84 ADD PUSH2 0x4E1 JUMP JUMPDEST PUSH1 0x0 DUP2 PUSH1 0xA0 ADD MLOAD MLOAD GT PUSH2 0x853 JUMPI PUSH1 0x40 MLOAD PUSH3 0x461BCD PUSH1 0xE5 SHL DUP2 MSTORE PUSH1 0x20 PUSH1 0x4 DUP3 ADD MSTORE PUSH1 0x27 PUSH1 0x24 DUP3 ADD MSTORE PUSH32 0x4E6F6E5472616E7366657261626C654552433732313A20626173655552492069 PUSH1 0x44 DUP3 ADD MSTORE PUSH7 0x7320656D707479 PUSH1 0xC8 SHL PUSH1 0x64 DUP3 ADD MSTORE PUSH1 0x84 ADD PUSH2 0x4E1 JUMP JUMPDEST PUSH1 0x20 DUP2 ADD MLOAD PUSH1 0x1 PUSH1 0x1 PUSH1 0xA0 SHL SUB AND PUSH2 0x8D3 JUMPI PUSH1 0x40 MLOAD PUSH3 0x461BCD PUSH1 0xE5 SHL DUP2 MSTORE PUSH1 0x20 PUSH1 0x4 DUP3 ADD MSTORE PUSH1 0x3D PUSH1 0x24 DUP3 ADD MSTORE PUSH32 0x4E6F6E5472616E7366657261626C654552433732313A206F726967696E436861 PUSH1 0x44 DUP3 ADD MSTORE PUSH32 0x696E4164647265737320697320746865207A65726F2061646472657373000000 PUSH1 0x64 DUP3 ADD MSTORE PUSH1 0x84 ADD PUSH2 0x4E1 JUMP JUMPDEST PUSH1 0x0 DUP2 PUSH1 0x40 ADD MLOAD GT PUSH2 0x93C JUMPI PUSH1 0x40 MLOAD PUSH3 0x461BCD PUSH1 0xE5 SHL DUP2 MSTORE PUSH1 0x20 PUSH1 0x4 DUP3 ADD MSTORE PUSH1 0x2C PUSH1 0x24 DUP3 ADD MSTORE PUSH32 0x4E6F6E5472616E7366657261626C654552433732313A206F726967696E436861 PUSH1 0x44 DUP3 ADD MSTORE PUSH12 0x696E4964206973207A65726F PUSH1 0xA0 SHL PUSH1 0x64 DUP3 ADD MSTORE PUSH1 0x84 ADD PUSH2 0x4E1 JUMP JUMPDEST DUP1 MLOAD PUSH1 0x0 DUP1 SLOAD PUSH1 0x1 PUSH1 0x1 PUSH1 0xA0 SHL SUB SWAP3 DUP4 AND PUSH1 0x1 PUSH1 0x1 PUSH1 0xA0 SHL SUB NOT SWAP2 DUP3 AND OR SWAP1 SWAP2 SSTORE PUSH1 0x20 DUP4 ADD MLOAD PUSH1 0x1 DUP1 SLOAD SWAP2 SWAP1 SWAP4 AND SWAP2 AND OR SWAP1 SSTORE PUSH1 0x40 DUP2 ADD MLOAD PUSH1 0x2 SSTORE PUSH1 0x60 DUP2 ADD MLOAD PUSH1 0x4 SWAP1 PUSH2 0x989 SWAP1 DUP3 PUSH2 0x183E JUMP JUMPDEST POP PUSH1 0x80 DUP2 ADD MLOAD PUSH1 0x5 SWAP1 PUSH2 0x99C SWAP1 DUP3 PUSH2 0x183E JUMP JUMPDEST POP PUSH1 0xA0 DUP2 ADD MLOAD PUSH1 0x6 SWAP1 PUSH2 0x60E SWAP1 DUP3 PUSH2 0x183E JUMP JUMPDEST PUSH1 0x60 DUP2 PUSH1 0x40 MLOAD PUSH1 0x20 ADD PUSH2 0x9C2 SWAP2 SWAP1 PUSH2 0x18FE JUMP JUMPDEST PUSH1 0x40 MLOAD PUSH1 0x20 DUP2 DUP4 SUB SUB DUP2 MSTORE SWAP1 PUSH1 0x40 MSTORE SWAP1 POP SWAP2 SWAP1 POP JUMP JUMPDEST PUSH1 0x0 PUSH2 0x397 DUP3 PUSH2 0xB5E JUMP JUMPDEST PUSH1 0x0 DUP1 SLOAD PUSH1 0x1 PUSH1 0x1 PUSH1 0xA0 SHL SUB AND PUSH2 0xA4B JUMPI PUSH1 0x40 MLOAD PUSH3 0x461BCD PUSH1 0xE5 SHL DUP2 MSTORE PUSH1 0x20 PUSH1 0x4 DUP3 ADD MSTORE PUSH1 0x26 PUSH1 0x24 DUP3 ADD MSTORE PUSH32 0x4E6F6E5472616E7366657261626C654552433732313A206E6F7420696E697469 PUSH1 0x44 DUP3 ADD MSTORE PUSH6 0x185B1A5E9959 PUSH1 0xD2 SHL PUSH1 0x64 DUP3 ADD MSTORE PUSH1 0x84 ADD PUSH2 0x4E1 JUMP JUMPDEST PUSH1 0x3 PUSH1 0x0 DUP2 SLOAD PUSH2 0xA5A SWAP1 PUSH2 0x1989 JUMP JUMPDEST SWAP1 SWAP2 SSTORE POP POP PUSH1 0x3 SLOAD PUSH2 0xA6C DUP3 DUP3 PUSH2 0xB97 JUMP JUMPDEST SWAP2 SWAP1 POP JUMP JUMPDEST PUSH1 0x0 PUSH1 0x1 PUSH1 0x1 PUSH1 0xA0 SHL SUB DUP3 AND PUSH2 0xA9D JUMPI PUSH1 0x40 MLOAD PUSH4 0x22718AD9 PUSH1 0xE2 SHL DUP2 MSTORE PUSH1 0x0 PUSH1 0x4 DUP3 ADD MSTORE PUSH1 0x24 ADD PUSH2 0x4E1 JUMP JUMPDEST POP PUSH1 0x1 PUSH1 0x1 PUSH1 0xA0 SHL SUB AND PUSH1 0x0 SWAP1 DUP2 MSTORE PUSH1 0x8 PUSH1 0x20 MSTORE PUSH1 0x40 SWAP1 KECCAK256 SLOAD SWAP1 JUMP JUMPDEST PUSH1 0x60 PUSH1 0x5 DUP1 SLOAD PUSH2 0x3AC SWAP1 PUSH2 0x1692 JUMP JUMPDEST PUSH1 0x60 PUSH2 0xAD3 DUP3 PUSH2 0xB5E JUMP JUMPDEST POP PUSH1 0x0 PUSH2 0xADE PUSH2 0xBB5 JUMP JUMPDEST SWAP1 POP PUSH1 0x0 DUP2 MLOAD GT PUSH2 0xAFE JUMPI PUSH1 0x40 MLOAD DUP1 PUSH1 0x20 ADD PUSH1 0x40 MSTORE DUP1 PUSH1 0x0 DUP2 MSTORE POP PUSH2 0xB29 JUMP JUMPDEST DUP1 PUSH2 0xB08 DUP5 PUSH2 0xBC4 JUMP JUMPDEST PUSH1 0x40 MLOAD PUSH1 0x20 ADD PUSH2 0xB19 SWAP3 SWAP2 SWAP1 PUSH2 0x19B0 JUMP JUMPDEST PUSH1 0x40 MLOAD PUSH1 0x20 DUP2 DUP4 SUB SUB DUP2 MSTORE SWAP1 PUSH1 0x40 MSTORE JUMPDEST SWAP4 SWAP3 POP POP POP JUMP JUMPDEST PUSH1 0x1 PUSH1 0x1 PUSH1 0xA0 SHL SUB SWAP2 DUP3 AND PUSH1 0x0 SWAP1 DUP2 MSTORE PUSH1 0xA PUSH1 0x20 SWAP1 DUP2 MSTORE PUSH1 0x40 DUP1 DUP4 KECCAK256 SWAP4 SWAP1 SWAP5 AND DUP3 MSTORE SWAP2 SWAP1 SWAP2 MSTORE KECCAK256 SLOAD PUSH1 0xFF AND SWAP1 JUMP JUMPDEST PUSH1 0x0 DUP2 DUP2 MSTORE PUSH1 0x7 PUSH1 0x20 MSTORE PUSH1 0x40 DUP2 KECCAK256 SLOAD PUSH1 0x1 PUSH1 0x1 PUSH1 0xA0 SHL SUB AND DUP1 PUSH2 0x397 JUMPI PUSH1 0x40 MLOAD PUSH4 0x7E273289 PUSH1 0xE0 SHL DUP2 MSTORE PUSH1 0x4 DUP2 ADD DUP5 SWAP1 MSTORE PUSH1 0x24 ADD PUSH2 0x4E1 JUMP JUMPDEST PUSH2 0xBB1 DUP3 DUP3 PUSH1 0x40 MLOAD DUP1 PUSH1 0x20 ADD PUSH1 0x40 MSTORE DUP1 PUSH1 0x0 DUP2 MSTORE POP PUSH2 0xC57 JUMP JUMPDEST POP POP JUMP JUMPDEST PUSH1 0x60 PUSH1 0x6 DUP1 SLOAD PUSH2 0x3AC SWAP1 PUSH2 0x1692 JUMP JUMPDEST PUSH1 0x60 PUSH1 0x0 PUSH2 0xBD1 DUP4 PUSH2 0xC6E JUMP JUMPDEST PUSH1 0x1 ADD SWAP1 POP PUSH1 0x0 DUP2 PUSH8 0xFFFFFFFFFFFFFFFF DUP2 GT ISZERO PUSH2 0xBF1 JUMPI PUSH2 0xBF1 PUSH2 0x13B6 JUMP JUMPDEST PUSH1 0x40 MLOAD SWAP1 DUP1 DUP3 MSTORE DUP1 PUSH1 0x1F ADD PUSH1 0x1F NOT AND PUSH1 0x20 ADD DUP3 ADD PUSH1 0x40 MSTORE DUP1 ISZERO PUSH2 0xC1B JUMPI PUSH1 0x20 DUP3 ADD DUP2 DUP1 CALLDATASIZE DUP4 CALLDATACOPY ADD SWAP1 POP JUMPDEST POP SWAP1 POP DUP2 DUP2 ADD PUSH1 0x20 ADD JUMPDEST PUSH1 0x0 NOT ADD PUSH16 0x181899199A1A9B1B9C1CB0B131B232B3 PUSH1 0x81 SHL PUSH1 0xA DUP7 MOD BYTE DUP2 MSTORE8 PUSH1 0xA DUP6 DIV SWAP5 POP DUP5 PUSH2 0xC25 JUMPI POP SWAP4 SWAP3 POP POP POP JUMP JUMPDEST PUSH2 0xC61 DUP4 DUP4 PUSH2 0xD46 JUMP JUMPDEST PUSH2 0x60E PUSH1 0x0 DUP5 DUP5 DUP5 PUSH2 0xE67 JUMP JUMPDEST PUSH1 0x0 DUP1 PUSH19 0x184F03E93FF9F4DAA797ED6E38ED64BF6A1F01 PUSH1 0x40 SHL DUP4 LT PUSH2 0xCAD JUMPI PUSH19 0x184F03E93FF9F4DAA797ED6E38ED64BF6A1F01 PUSH1 0x40 SHL DUP4 DIV SWAP3 POP PUSH1 0x40 ADD JUMPDEST PUSH14 0x4EE2D6D415B85ACEF8100000000 DUP4 LT PUSH2 0xCD9 JUMPI PUSH14 0x4EE2D6D415B85ACEF8100000000 DUP4 DIV SWAP3 POP PUSH1 0x20 ADD JUMPDEST PUSH7 0x2386F26FC10000 DUP4 LT PUSH2 0xCF7 JUMPI PUSH7 0x2386F26FC10000 DUP4 DIV SWAP3 POP PUSH1 0x10 ADD JUMPDEST PUSH4 0x5F5E100 DUP4 LT PUSH2 0xD0F JUMPI PUSH4 0x5F5E100 DUP4 DIV SWAP3 POP PUSH1 0x8 ADD JUMPDEST PUSH2 0x2710 DUP4 LT PUSH2 0xD23 JUMPI PUSH2 0x2710 DUP4 DIV SWAP3 POP PUSH1 0x4 ADD JUMPDEST PUSH1 0x64 DUP4 LT PUSH2 0xD35 JUMPI PUSH1 0x64 DUP4 DIV SWAP3 POP PUSH1 0x2 ADD JUMPDEST PUSH1 0xA DUP4 LT PUSH2 0x397 JUMPI PUSH1 0x1 ADD SWAP3 SWAP2 POP POP JUMP JUMPDEST PUSH1 0x0 SLOAD PUSH1 0x1 PUSH1 0xA0 SHL SWAP1 DIV PUSH1 0xFF AND ISZERO PUSH2 0xDBA JUMPI PUSH1 0x40 MLOAD PUSH3 0x461BCD PUSH1 0xE5 SHL DUP2 MSTORE PUSH1 0x20 PUSH1 0x4 DUP3 ADD MSTORE PUSH1 0x31 PUSH1 0x24 DUP3 ADD MSTORE PUSH32 0x4E6F6E5472616E7366657261626C654552433732313A20636F6E747261637420 PUSH1 0x44 DUP3 ADD MSTORE PUSH17 0x1A185CC81899595B881D5C19DC98591959 PUSH1 0x7A SHL PUSH1 0x64 DUP3 ADD MSTORE PUSH1 0x84 ADD PUSH2 0x4E1 JUMP JUMPDEST PUSH1 0x1 PUSH1 0x1 PUSH1 0xA0 SHL SUB DUP3 AND PUSH2 0xDE4 JUMPI PUSH1 0x40 MLOAD PUSH4 0x32505749 PUSH1 0xE1 SHL DUP2 MSTORE PUSH1 0x0 PUSH1 0x4 DUP3 ADD MSTORE PUSH1 0x24 ADD PUSH2 0x4E1 JUMP JUMPDEST PUSH1 0x0 PUSH2 0xDF2 DUP4 DUP4 PUSH1 0x0 PUSH2 0xF91 JUMP JUMPDEST SWAP1 POP PUSH1 0x1 PUSH1 0x1 PUSH1 0xA0 SHL SUB DUP2 AND ISZERO PUSH2 0xE1F JUMPI PUSH1 0x40 MLOAD PUSH4 0x39E35637 PUSH1 0xE1 SHL DUP2 MSTORE PUSH1 0x0 PUSH1 0x4 DUP3 ADD MSTORE PUSH1 0x24 ADD PUSH2 0x4E1 JUMP JUMPDEST DUP3 PUSH1 0x1 PUSH1 0x1 PUSH1 0xA0 SHL SUB AND PUSH32 0x1292A1381D69FD0F033102672143FFF68D426B4B73EB1FA4DF2620AEED9A2994 DUP4 PUSH1 0x40 MLOAD PUSH2 0xE5A SWAP2 DUP2 MSTORE PUSH1 0x20 ADD SWAP1 JUMP JUMPDEST PUSH1 0x40 MLOAD DUP1 SWAP2 SUB SWAP1 LOG2 POP POP POP JUMP JUMPDEST PUSH1 0x1 PUSH1 0x1 PUSH1 0xA0 SHL SUB DUP4 AND EXTCODESIZE ISZERO PUSH2 0xF8B JUMPI PUSH1 0x40 MLOAD PUSH4 0xA85BD01 PUSH1 0xE1 SHL DUP2 MSTORE PUSH1 0x1 PUSH1 0x1 PUSH1 0xA0 SHL SUB DUP5 AND SWAP1 PUSH4 0x150B7A02 SWAP1 PUSH2 0xEA9 SWAP1 CALLER SWAP1 DUP9 SWAP1 DUP8 SWAP1 DUP8 SWAP1 PUSH1 0x4 ADD PUSH2 0x19DF JUMP JUMPDEST PUSH1 0x20 PUSH1 0x40 MLOAD DUP1 DUP4 SUB DUP2 PUSH1 0x0 DUP8 GAS CALL SWAP3 POP POP POP DUP1 ISZERO PUSH2 0xEE4 JUMPI POP PUSH1 0x40 DUP1 MLOAD PUSH1 0x1F RETURNDATASIZE SWAP1 DUP2 ADD PUSH1 0x1F NOT AND DUP3 ADD SWAP1 SWAP3 MSTORE PUSH2 0xEE1 SWAP2 DUP2 ADD SWAP1 PUSH2 0x1A1C JUMP JUMPDEST PUSH1 0x1 JUMPDEST PUSH2 0xF4D JUMPI RETURNDATASIZE DUP1 DUP1 ISZERO PUSH2 0xF12 JUMPI PUSH1 0x40 MLOAD SWAP2 POP PUSH1 0x1F NOT PUSH1 0x3F RETURNDATASIZE ADD AND DUP3 ADD PUSH1 0x40 MSTORE RETURNDATASIZE DUP3 MSTORE RETURNDATASIZE PUSH1 0x0 PUSH1 0x20 DUP5 ADD RETURNDATACOPY PUSH2 0xF17 JUMP JUMPDEST PUSH1 0x60 SWAP2 POP JUMPDEST POP DUP1 MLOAD PUSH1 0x0 SUB PUSH2 0xF45 JUMPI PUSH1 0x40 MLOAD PUSH4 0x32505749 PUSH1 0xE1 SHL DUP2 MSTORE PUSH1 0x1 PUSH1 0x1 PUSH1 0xA0 SHL SUB DUP6 AND PUSH1 0x4 DUP3 ADD MSTORE PUSH1 0x24 ADD PUSH2 0x4E1 JUMP JUMPDEST DUP1 MLOAD DUP2 PUSH1 0x20 ADD REVERT JUMPDEST PUSH1 0x1 PUSH1 0x1 PUSH1 0xE0 SHL SUB NOT DUP2 AND PUSH4 0xA85BD01 PUSH1 0xE1 SHL EQ PUSH2 0xF89 JUMPI PUSH1 0x40 MLOAD PUSH4 0x32505749 PUSH1 0xE1 SHL DUP2 MSTORE PUSH1 0x1 PUSH1 0x1 PUSH1 0xA0 SHL SUB DUP6 AND PUSH1 0x4 DUP3 ADD MSTORE PUSH1 0x24 ADD PUSH2 0x4E1 JUMP JUMPDEST POP JUMPDEST POP POP POP POP JUMP JUMPDEST PUSH1 0x0 DUP3 DUP2 MSTORE PUSH1 0x7 PUSH1 0x20 MSTORE PUSH1 0x40 DUP2 KECCAK256 SLOAD PUSH1 0x1 PUSH1 0x1 PUSH1 0xA0 SHL SUB SWAP1 DUP2 AND SWAP1 DUP4 AND ISZERO PUSH2 0xFBE JUMPI PUSH2 0xFBE DUP2 DUP5 DUP7 PUSH2 0x108A JUMP JUMPDEST PUSH1 0x1 PUSH1 0x1 PUSH1 0xA0 SHL SUB DUP2 AND ISZERO PUSH2 0xFFC JUMPI PUSH2 0xFDB PUSH1 0x0 DUP6 PUSH1 0x0 DUP1 PUSH2 0x10EE JUMP JUMPDEST PUSH1 0x1 PUSH1 0x1 PUSH1 0xA0 SHL SUB DUP2 AND PUSH1 0x0 SWAP1 DUP2 MSTORE PUSH1 0x8 PUSH1 0x20 MSTORE PUSH1 0x40 SWAP1 KECCAK256 DUP1 SLOAD PUSH1 0x0 NOT ADD SWAP1 SSTORE JUMPDEST PUSH1 0x1 PUSH1 0x1 PUSH1 0xA0 SHL SUB DUP6 AND ISZERO PUSH2 0x102B JUMPI PUSH1 0x1 PUSH1 0x1 PUSH1 0xA0 SHL SUB DUP6 AND PUSH1 0x0 SWAP1 DUP2 MSTORE PUSH1 0x8 PUSH1 0x20 MSTORE PUSH1 0x40 SWAP1 KECCAK256 DUP1 SLOAD PUSH1 0x1 ADD SWAP1 SSTORE JUMPDEST PUSH1 0x0 DUP5 DUP2 MSTORE PUSH1 0x7 PUSH1 0x20 MSTORE PUSH1 0x40 DUP1 DUP3 KECCAK256 DUP1 SLOAD PUSH1 0x1 PUSH1 0x1 PUSH1 0xA0 SHL SUB NOT AND PUSH1 0x1 PUSH1 0x1 PUSH1 0xA0 SHL SUB DUP10 DUP2 AND SWAP2 DUP3 OR SWAP1 SWAP3 SSTORE SWAP2 MLOAD DUP8 SWAP4 SWAP2 DUP6 AND SWAP2 PUSH32 0xDDF252AD1BE2C89B69C2B068FC378DAA952BA7F163C4A11628F55A4DF523B3EF SWAP2 LOG4 SWAP5 SWAP4 POP POP POP POP JUMP JUMPDEST PUSH2 0x1095 DUP4 DUP4 DUP4 PUSH2 0x11F4 JUMP JUMPDEST PUSH2 0x60E JUMPI PUSH1 0x1 PUSH1 0x1 PUSH1 0xA0 SHL SUB DUP4 AND PUSH2 0x10C3 JUMPI PUSH1 0x40 MLOAD PUSH4 0x7E273289 PUSH1 0xE0 SHL DUP2 MSTORE PUSH1 0x4 DUP2 ADD DUP3 SWAP1 MSTORE PUSH1 0x24 ADD PUSH2 0x4E1 JUMP JUMPDEST PUSH1 0x40 MLOAD PUSH4 0x177E802F PUSH1 0xE0 SHL DUP2 MSTORE PUSH1 0x1 PUSH1 0x1 PUSH1 0xA0 SHL SUB DUP4 AND PUSH1 0x4 DUP3 ADD MSTORE PUSH1 0x24 DUP2 ADD DUP3 SWAP1 MSTORE PUSH1 0x44 ADD PUSH2 0x4E1 JUMP JUMPDEST DUP1 DUP1 PUSH2 0x1102 JUMPI POP PUSH1 0x1 PUSH1 0x1 PUSH1 0xA0 SHL SUB DUP3 AND ISZERO ISZERO JUMPDEST ISZERO PUSH2 0x11C4 JUMPI PUSH1 0x0 PUSH2 0x1112 DUP5 PUSH2 0xB5E JUMP JUMPDEST SWAP1 POP PUSH1 0x1 PUSH1 0x1 PUSH1 0xA0 SHL SUB DUP4 AND ISZERO DUP1 ISZERO SWAP1 PUSH2 0x113E JUMPI POP DUP3 PUSH1 0x1 PUSH1 0x1 PUSH1 0xA0 SHL SUB AND DUP2 PUSH1 0x1 PUSH1 0x1 PUSH1 0xA0 SHL SUB AND EQ ISZERO JUMPDEST DUP1 ISZERO PUSH2 0x1151 JUMPI POP PUSH2 0x114F DUP2 DUP5 PUSH2 0xB30 JUMP JUMPDEST ISZERO JUMPDEST ISZERO PUSH2 0x117A JUMPI PUSH1 0x40 MLOAD PUSH4 0xA9FBF51F PUSH1 0xE0 SHL DUP2 MSTORE PUSH1 0x1 PUSH1 0x1 PUSH1 0xA0 SHL SUB DUP5 AND PUSH1 0x4 DUP3 ADD MSTORE PUSH1 0x24 ADD PUSH2 0x4E1 JUMP JUMPDEST DUP2 ISZERO PUSH2 0x11C2 JUMPI DUP4 DUP6 PUSH1 0x1 PUSH1 0x1 PUSH1 0xA0 SHL SUB AND DUP3 PUSH1 0x1 PUSH1 0x1 PUSH1 0xA0 SHL SUB AND PUSH32 0x8C5BE1E5EBEC7D5BD14F71427D1E84F3DD0314C0F7B2291E5B200AC8C7C3B925 PUSH1 0x40 MLOAD PUSH1 0x40 MLOAD DUP1 SWAP2 SUB SWAP1 LOG4 JUMPDEST POP JUMPDEST POP POP PUSH1 0x0 SWAP1 DUP2 MSTORE PUSH1 0x9 PUSH1 0x20 MSTORE PUSH1 0x40 SWAP1 KECCAK256 DUP1 SLOAD PUSH1 0x1 PUSH1 0x1 PUSH1 0xA0 SHL SUB NOT AND PUSH1 0x1 PUSH1 0x1 PUSH1 0xA0 SHL SUB SWAP3 SWAP1 SWAP3 AND SWAP2 SWAP1 SWAP2 OR SWAP1 SSTORE JUMP JUMPDEST PUSH1 0x0 PUSH1 0x1 PUSH1 0x1 PUSH1 0xA0 SHL SUB DUP4 AND ISZERO DUP1 ISZERO SWAP1 PUSH2 0x1252 JUMPI POP DUP3 PUSH1 0x1 PUSH1 0x1 PUSH1 0xA0 SHL SUB AND DUP5 PUSH1 0x1 PUSH1 0x1 PUSH1 0xA0 SHL SUB AND EQ DUP1 PUSH2 0x122E JUMPI POP PUSH2 0x122E DUP5 DUP5 PUSH2 0xB30 JUMP JUMPDEST DUP1 PUSH2 0x1252 JUMPI POP PUSH1 0x0 DUP3 DUP2 MSTORE PUSH1 0x9 PUSH1 0x20 MSTORE PUSH1 0x40 SWAP1 KECCAK256 SLOAD PUSH1 0x1 PUSH1 0x1 PUSH1 0xA0 SHL SUB DUP5 DUP2 AND SWAP2 AND EQ JUMPDEST SWAP5 SWAP4 POP POP POP POP JUMP JUMPDEST PUSH1 0x1 PUSH1 0x1 PUSH1 0xE0 SHL SUB NOT DUP2 AND DUP2 EQ PUSH2 0x1270 JUMPI PUSH1 0x0 DUP1 REVERT JUMPDEST POP JUMP JUMPDEST PUSH1 0x0 PUSH1 0x20 DUP3 DUP5 SUB SLT ISZERO PUSH2 0x1285 JUMPI PUSH1 0x0 DUP1 REVERT JUMPDEST DUP2 CALLDATALOAD PUSH2 0xB29 DUP2 PUSH2 0x125A JUMP JUMPDEST PUSH1 0x0 JUMPDEST DUP4 DUP2 LT ISZERO PUSH2 0x12AB JUMPI DUP2 DUP2 ADD MLOAD DUP4 DUP3 ADD MSTORE PUSH1 0x20 ADD PUSH2 0x1293 JUMP JUMPDEST POP POP PUSH1 0x0 SWAP2 ADD MSTORE JUMP JUMPDEST PUSH1 0x0 DUP2 MLOAD DUP1 DUP5 MSTORE PUSH2 0x12CC DUP2 PUSH1 0x20 DUP7 ADD PUSH1 0x20 DUP7 ADD PUSH2 0x1290 JUMP JUMPDEST PUSH1 0x1F ADD PUSH1 0x1F NOT AND SWAP3 SWAP1 SWAP3 ADD PUSH1 0x20 ADD SWAP3 SWAP2 POP POP JUMP JUMPDEST PUSH1 0x20 DUP2 MSTORE PUSH1 0x0 PUSH2 0xB29 PUSH1 0x20 DUP4 ADD DUP5 PUSH2 0x12B4 JUMP JUMPDEST PUSH1 0x0 PUSH1 0x20 DUP3 DUP5 SUB SLT ISZERO PUSH2 0x1305 JUMPI PUSH1 0x0 DUP1 REVERT JUMPDEST POP CALLDATALOAD SWAP2 SWAP1 POP JUMP JUMPDEST PUSH1 0x1 PUSH1 0x1 PUSH1 0xA0 SHL SUB DUP2 AND DUP2 EQ PUSH2 0x1270 JUMPI PUSH1 0x0 DUP1 REVERT JUMPDEST DUP1 CALLDATALOAD PUSH2 0xA6C DUP2 PUSH2 0x130C JUMP JUMPDEST PUSH1 0x0 PUSH1 0x20 DUP3 DUP5 SUB SLT ISZERO PUSH2 0x133E JUMPI PUSH1 0x0 DUP1 REVERT JUMPDEST DUP2 CALLDATALOAD PUSH2 0xB29 DUP2 PUSH2 0x130C JUMP JUMPDEST PUSH1 0x0 DUP1 PUSH1 0x40 DUP4 DUP6 SUB SLT ISZERO PUSH2 0x135C JUMPI PUSH1 0x0 DUP1 REVERT JUMPDEST DUP3 CALLDATALOAD PUSH2 0x1367 DUP2 PUSH2 0x130C JUMP JUMPDEST SWAP5 PUSH1 0x20 SWAP4 SWAP1 SWAP4 ADD CALLDATALOAD SWAP4 POP POP POP JUMP JUMPDEST PUSH1 0x0 DUP1 PUSH1 0x0 PUSH1 0x60 DUP5 DUP7 SUB SLT ISZERO PUSH2 0x138A JUMPI PUSH1 0x0 DUP1 REVERT JUMPDEST DUP4 CALLDATALOAD PUSH2 0x1395 DUP2 PUSH2 0x130C JUMP JUMPDEST SWAP3 POP PUSH1 0x20 DUP5 ADD CALLDATALOAD PUSH2 0x13A5 DUP2 PUSH2 0x130C JUMP JUMPDEST SWAP3 SWAP6 SWAP3 SWAP5 POP POP POP PUSH1 0x40 SWAP2 SWAP1 SWAP2 ADD CALLDATALOAD SWAP1 JUMP JUMPDEST PUSH4 0x4E487B71 PUSH1 0xE0 SHL PUSH1 0x0 MSTORE PUSH1 0x41 PUSH1 0x4 MSTORE PUSH1 0x24 PUSH1 0x0 REVERT JUMPDEST PUSH1 0x40 MLOAD PUSH1 0xC0 DUP2 ADD PUSH8 0xFFFFFFFFFFFFFFFF DUP2 GT DUP3 DUP3 LT OR ISZERO PUSH2 0x13EF JUMPI PUSH2 0x13EF PUSH2 0x13B6 JUMP JUMPDEST PUSH1 0x40 MSTORE SWAP1 JUMP JUMPDEST PUSH1 0x40 MLOAD PUSH1 0x1F DUP3 ADD PUSH1 0x1F NOT AND DUP2 ADD PUSH8 0xFFFFFFFFFFFFFFFF DUP2 GT DUP3 DUP3 LT OR ISZERO PUSH2 0x141E JUMPI PUSH2 0x141E PUSH2 0x13B6 JUMP JUMPDEST PUSH1 0x40 MSTORE SWAP2 SWAP1 POP JUMP JUMPDEST PUSH1 0x0 PUSH8 0xFFFFFFFFFFFFFFFF DUP3 GT ISZERO PUSH2 0x1440 JUMPI PUSH2 0x1440 PUSH2 0x13B6 JUMP JUMPDEST POP PUSH1 0x1F ADD PUSH1 0x1F NOT AND PUSH1 0x20 ADD SWAP1 JUMP JUMPDEST PUSH1 0x0 DUP3 PUSH1 0x1F DUP4 ADD SLT PUSH2 0x145F JUMPI PUSH1 0x0 DUP1 REVERT JUMPDEST DUP2 CALLDATALOAD PUSH2 0x1472 PUSH2 0x146D DUP3 PUSH2 0x1426 JUMP JUMPDEST PUSH2 0x13F5 JUMP JUMPDEST DUP2 DUP2 MSTORE DUP5 PUSH1 0x20 DUP4 DUP7 ADD ADD GT ISZERO PUSH2 0x1487 JUMPI PUSH1 0x0 DUP1 REVERT JUMPDEST DUP2 PUSH1 0x20 DUP6 ADD PUSH1 0x20 DUP4 ADD CALLDATACOPY PUSH1 0x0 SWAP2 DUP2 ADD PUSH1 0x20 ADD SWAP2 SWAP1 SWAP2 MSTORE SWAP4 SWAP3 POP POP POP JUMP JUMPDEST PUSH1 0x0 PUSH1 0x20 DUP3 DUP5 SUB SLT ISZERO PUSH2 0x14B6 JUMPI PUSH1 0x0 DUP1 REVERT JUMPDEST DUP2 CALLDATALOAD PUSH8 0xFFFFFFFFFFFFFFFF DUP2 GT ISZERO PUSH2 0x14CD JUMPI PUSH1 0x0 DUP1 REVERT JUMPDEST PUSH2 0x1252 DUP5 DUP3 DUP6 ADD PUSH2 0x144E JUMP JUMPDEST PUSH1 0x0 PUSH1 0x20 DUP3 DUP5 SUB SLT ISZERO PUSH2 0x14EB JUMPI PUSH1 0x0 DUP1 REVERT JUMPDEST DUP2 CALLDATALOAD PUSH8 0xFFFFFFFFFFFFFFFF DUP1 DUP3 GT ISZERO PUSH2 0x1503 JUMPI PUSH1 0x0 DUP1 REVERT JUMPDEST SWAP1 DUP4 ADD SWAP1 PUSH1 0xC0 DUP3 DUP7 SUB SLT ISZERO PUSH2 0x1517 JUMPI PUSH1 0x0 DUP1 REVERT JUMPDEST PUSH2 0x151F PUSH2 0x13CC JUMP JUMPDEST PUSH2 0x1528 DUP4 PUSH2 0x1321 JUMP JUMPDEST DUP2 MSTORE PUSH2 0x1536 PUSH1 0x20 DUP5 ADD PUSH2 0x1321 JUMP JUMPDEST PUSH1 0x20 DUP3 ADD MSTORE PUSH1 0x40 DUP4 ADD CALLDATALOAD PUSH1 0x40 DUP3 ADD MSTORE PUSH1 0x60 DUP4 ADD CALLDATALOAD DUP3 DUP2 GT ISZERO PUSH2 0x1557 JUMPI PUSH1 0x0 DUP1 REVERT JUMPDEST PUSH2 0x1563 DUP8 DUP3 DUP7 ADD PUSH2 0x144E JUMP JUMPDEST PUSH1 0x60 DUP4 ADD MSTORE POP PUSH1 0x80 DUP4 ADD CALLDATALOAD DUP3 DUP2 GT ISZERO PUSH2 0x157B JUMPI PUSH1 0x0 DUP1 REVERT JUMPDEST PUSH2 0x1587 DUP8 DUP3 DUP7 ADD PUSH2 0x144E JUMP JUMPDEST PUSH1 0x80 DUP4 ADD MSTORE POP PUSH1 0xA0 DUP4 ADD CALLDATALOAD DUP3 DUP2 GT ISZERO PUSH2 0x159F JUMPI PUSH1 0x0 DUP1 REVERT JUMPDEST PUSH2 0x15AB DUP8 DUP3 DUP7 ADD PUSH2 0x144E JUMP JUMPDEST PUSH1 0xA0 DUP4 ADD MSTORE POP SWAP6 SWAP5 POP POP POP POP POP JUMP JUMPDEST PUSH1 0x0 DUP1 PUSH1 0x40 DUP4 DUP6 SUB SLT ISZERO PUSH2 0x15CD JUMPI PUSH1 0x0 DUP1 REVERT JUMPDEST DUP3 CALLDATALOAD PUSH2 0x15D8 DUP2 PUSH2 0x130C JUMP JUMPDEST SWAP2 POP PUSH1 0x20 DUP4 ADD CALLDATALOAD DUP1 ISZERO ISZERO DUP2 EQ PUSH2 0x15ED JUMPI PUSH1 0x0 DUP1 REVERT JUMPDEST DUP1 SWAP2 POP POP SWAP3 POP SWAP3 SWAP1 POP JUMP JUMPDEST PUSH1 0x0 DUP1 PUSH1 0x0 DUP1 PUSH1 0x80 DUP6 DUP8 SUB SLT ISZERO PUSH2 0x160E JUMPI PUSH1 0x0 DUP1 REVERT JUMPDEST DUP5 CALLDATALOAD PUSH2 0x1619 DUP2 PUSH2 0x130C JUMP JUMPDEST SWAP4 POP PUSH1 0x20 DUP6 ADD CALLDATALOAD PUSH2 0x1629 DUP2 PUSH2 0x130C JUMP JUMPDEST SWAP3 POP PUSH1 0x40 DUP6 ADD CALLDATALOAD SWAP2 POP PUSH1 0x60 DUP6 ADD CALLDATALOAD PUSH8 0xFFFFFFFFFFFFFFFF DUP2 GT ISZERO PUSH2 0x164C JUMPI PUSH1 0x0 DUP1 REVERT JUMPDEST PUSH2 0x1658 DUP8 DUP3 DUP9 ADD PUSH2 0x144E JUMP JUMPDEST SWAP2 POP POP SWAP3 SWAP6 SWAP2 SWAP5 POP SWAP3 POP JUMP JUMPDEST PUSH1 0x0 DUP1 PUSH1 0x40 DUP4 DUP6 SUB SLT ISZERO PUSH2 0x1677 JUMPI PUSH1 0x0 DUP1 REVERT JUMPDEST DUP3 CALLDATALOAD PUSH2 0x1682 DUP2 PUSH2 0x130C JUMP JUMPDEST SWAP2 POP PUSH1 0x20 DUP4 ADD CALLDATALOAD PUSH2 0x15ED DUP2 PUSH2 0x130C JUMP JUMPDEST PUSH1 0x1 DUP2 DUP2 SHR SWAP1 DUP3 AND DUP1 PUSH2 0x16A6 JUMPI PUSH1 0x7F DUP3 AND SWAP2 POP JUMPDEST PUSH1 0x20 DUP3 LT DUP2 SUB PUSH2 0x16C6 JUMPI PUSH4 0x4E487B71 PUSH1 0xE0 SHL PUSH1 0x0 MSTORE PUSH1 0x22 PUSH1 0x4 MSTORE PUSH1 0x24 PUSH1 0x0 REVERT JUMPDEST POP SWAP2 SWAP1 POP JUMP JUMPDEST DUP1 MLOAD PUSH2 0xA6C DUP2 PUSH2 0x130C JUMP JUMPDEST PUSH1 0x0 DUP3 PUSH1 0x1F DUP4 ADD SLT PUSH2 0x16E8 JUMPI PUSH1 0x0 DUP1 REVERT JUMPDEST DUP2 MLOAD PUSH2 0x16F6 PUSH2 0x146D DUP3 PUSH2 0x1426 JUMP JUMPDEST DUP2 DUP2 MSTORE DUP5 PUSH1 0x20 DUP4 DUP7 ADD ADD GT ISZERO PUSH2 0x170B JUMPI PUSH1 0x0 DUP1 REVERT JUMPDEST PUSH2 0x1252 DUP3 PUSH1 0x20 DUP4 ADD PUSH1 0x20 DUP8 ADD PUSH2 0x1290 JUMP JUMPDEST PUSH1 0x0 PUSH1 0x20 DUP3 DUP5 SUB SLT ISZERO PUSH2 0x172E JUMPI PUSH1 0x0 DUP1 REVERT JUMPDEST DUP2 MLOAD PUSH8 0xFFFFFFFFFFFFFFFF DUP1 DUP3 GT ISZERO PUSH2 0x1746 JUMPI PUSH1 0x0 DUP1 REVERT JUMPDEST SWAP1 DUP4 ADD SWAP1 PUSH1 0xC0 DUP3 DUP7 SUB SLT ISZERO PUSH2 0x175A JUMPI PUSH1 0x0 DUP1 REVERT JUMPDEST PUSH2 0x1762 PUSH2 0x13CC JUMP JUMPDEST PUSH2 0x176B DUP4 PUSH2 0x16CC JUMP JUMPDEST DUP2 MSTORE PUSH2 0x1779 PUSH1 0x20 DUP5 ADD PUSH2 0x16CC JUMP JUMPDEST PUSH1 0x20 DUP3 ADD MSTORE PUSH1 0x40 DUP4 ADD MLOAD PUSH1 0x40 DUP3 ADD MSTORE PUSH1 0x60 DUP4 ADD MLOAD DUP3 DUP2 GT ISZERO PUSH2 0x179A JUMPI PUSH1 0x0 DUP1 REVERT JUMPDEST PUSH2 0x17A6 DUP8 DUP3 DUP7 ADD PUSH2 0x16D7 JUMP JUMPDEST PUSH1 0x60 DUP4 ADD MSTORE POP PUSH1 0x80 DUP4 ADD MLOAD DUP3 DUP2 GT ISZERO PUSH2 0x17BE JUMPI PUSH1 0x0 DUP1 REVERT JUMPDEST PUSH2 0x17CA DUP8 DUP3 DUP7 ADD PUSH2 0x16D7 JUMP JUMPDEST PUSH1 0x80 DUP4 ADD MSTORE POP PUSH1 0xA0 DUP4 ADD MLOAD DUP3 DUP2 GT ISZERO PUSH2 0x17E2 JUMPI PUSH1 0x0 DUP1 REVERT JUMPDEST PUSH2 0x15AB DUP8 DUP3 DUP7 ADD PUSH2 0x16D7 JUMP JUMPDEST PUSH1 0x1F DUP3 GT ISZERO PUSH2 0x60E JUMPI PUSH1 0x0 DUP2 PUSH1 0x0 MSTORE PUSH1 0x20 PUSH1 0x0 KECCAK256 PUSH1 0x1F DUP6 ADD PUSH1 0x5 SHR DUP2 ADD PUSH1 0x20 DUP7 LT ISZERO PUSH2 0x1817 JUMPI POP DUP1 JUMPDEST PUSH1 0x1F DUP6 ADD PUSH1 0x5 SHR DUP3 ADD SWAP2 POP JUMPDEST DUP2 DUP2 LT ISZERO PUSH2 0x1836 JUMPI DUP3 DUP2 SSTORE PUSH1 0x1 ADD PUSH2 0x1823 JUMP JUMPDEST POP POP POP POP POP POP JUMP JUMPDEST DUP2 MLOAD PUSH8 0xFFFFFFFFFFFFFFFF DUP2 GT ISZERO PUSH2 0x1858 JUMPI PUSH2 0x1858 PUSH2 0x13B6 JUMP JUMPDEST PUSH2 0x186C DUP2 PUSH2 0x1866 DUP5 SLOAD PUSH2 0x1692 JUMP JUMPDEST DUP5 PUSH2 0x17EE JUMP JUMPDEST PUSH1 0x20 DUP1 PUSH1 0x1F DUP4 GT PUSH1 0x1 DUP2 EQ PUSH2 0x18A1 JUMPI PUSH1 0x0 DUP5 ISZERO PUSH2 0x1889 JUMPI POP DUP6 DUP4 ADD MLOAD JUMPDEST PUSH1 0x0 NOT PUSH1 0x3 DUP7 SWAP1 SHL SHR NOT AND PUSH1 0x1 DUP6 SWAP1 SHL OR DUP6 SSTORE PUSH2 0x1836 JUMP JUMPDEST PUSH1 0x0 DUP6 DUP2 MSTORE PUSH1 0x20 DUP2 KECCAK256 PUSH1 0x1F NOT DUP7 AND SWAP2 JUMPDEST DUP3 DUP2 LT ISZERO PUSH2 0x18D0 JUMPI DUP9 DUP7 ADD MLOAD DUP3 SSTORE SWAP5 DUP5 ADD SWAP5 PUSH1 0x1 SWAP1 SWAP2 ADD SWAP1 DUP5 ADD PUSH2 0x18B1 JUMP JUMPDEST POP DUP6 DUP3 LT ISZERO PUSH2 0x18EE JUMPI DUP8 DUP6 ADD MLOAD PUSH1 0x0 NOT PUSH1 0x3 DUP9 SWAP1 SHL PUSH1 0xF8 AND SHR NOT AND DUP2 SSTORE JUMPDEST POP POP POP POP POP PUSH1 0x1 SWAP1 DUP2 SHL ADD SWAP1 SSTORE POP JUMP JUMPDEST PUSH1 0x20 DUP2 MSTORE PUSH1 0x0 PUSH1 0x1 DUP1 PUSH1 0xA0 SHL SUB DUP1 DUP5 MLOAD AND PUSH1 0x20 DUP5 ADD MSTORE DUP1 PUSH1 0x20 DUP6 ADD MLOAD AND PUSH1 0x40 DUP5 ADD MSTORE POP PUSH1 0x40 DUP4 ADD MLOAD PUSH1 0x60 DUP4 ADD MSTORE PUSH1 0x60 DUP4 ADD MLOAD PUSH1 0xC0 PUSH1 0x80 DUP5 ADD MSTORE PUSH2 0x1944 PUSH1 0xE0 DUP5 ADD DUP3 PUSH2 0x12B4 JUMP JUMPDEST SWAP1 POP PUSH1 0x80 DUP5 ADD MLOAD PUSH1 0x1F NOT DUP1 DUP6 DUP5 SUB ADD PUSH1 0xA0 DUP7 ADD MSTORE PUSH2 0x1962 DUP4 DUP4 PUSH2 0x12B4 JUMP JUMPDEST SWAP3 POP PUSH1 0xA0 DUP7 ADD MLOAD SWAP2 POP DUP1 DUP6 DUP5 SUB ADD PUSH1 0xC0 DUP7 ADD MSTORE POP PUSH2 0x1980 DUP3 DUP3 PUSH2 0x12B4 JUMP JUMPDEST SWAP6 SWAP5 POP POP POP POP POP JUMP JUMPDEST PUSH1 0x0 PUSH1 0x1 DUP3 ADD PUSH2 0x19A9 JUMPI PUSH4 0x4E487B71 PUSH1 0xE0 SHL PUSH1 0x0 MSTORE PUSH1 0x11 PUSH1 0x4 MSTORE PUSH1 0x24 PUSH1 0x0 REVERT JUMPDEST POP PUSH1 0x1 ADD SWAP1 JUMP JUMPDEST PUSH1 0x0 DUP4 MLOAD PUSH2 0x19C2 DUP2 DUP5 PUSH1 0x20 DUP9 ADD PUSH2 0x1290 JUMP JUMPDEST DUP4 MLOAD SWAP1 DUP4 ADD SWAP1 PUSH2 0x19D6 DUP2 DUP4 PUSH1 0x20 DUP9 ADD PUSH2 0x1290 JUMP JUMPDEST ADD SWAP5 SWAP4 POP POP POP POP JUMP JUMPDEST PUSH1 0x1 PUSH1 0x1 PUSH1 0xA0 SHL SUB DUP6 DUP2 AND DUP3 MSTORE DUP5 AND PUSH1 0x20 DUP3 ADD MSTORE PUSH1 0x40 DUP2 ADD DUP4 SWAP1 MSTORE PUSH1 0x80 PUSH1 0x60 DUP3 ADD DUP2 SWAP1 MSTORE PUSH1 0x0 SWAP1 PUSH2 0x1A12 SWAP1 DUP4 ADD DUP5 PUSH2 0x12B4 JUMP JUMPDEST SWAP7 SWAP6 POP POP POP POP POP POP JUMP JUMPDEST PUSH1 0x0 PUSH1 0x20 DUP3 DUP5 SUB SLT ISZERO PUSH2 0x1A2E JUMPI PUSH1 0x0 DUP1 REVERT JUMPDEST DUP2 MLOAD PUSH2 0xB29 DUP2 PUSH2 0x125A JUMP INVALID LOG2 PUSH5 0x6970667358 0x22 SLT KECCAK256 RETURN 0xB4 GASPRICE LOG0 0xD8 XOR PUSH0 0xD8 0x2B 0xBA PUSH27 0xD6A653E8F60C2CB5C687AD5F9157876202FE8CB01A64736F6C6343 STOP ADDMOD XOR STOP CALLER "},"methodIdentifiers":{"approve(address,uint256)":"095ea7b3","assetFactory()":"c3acb4d1","assetRegistry()":"979d7e86","balanceOf(address)":"70a08231","encodeInitData((address,address,uint256,string,string,string))":"61f3fcb2","getApproved(uint256)":"081812fc","init(bytes)":"4ddf47d4","isApprovedForAll(address,address)":"e985e9c5","issuer()":"1d143848","mint(address)":"6a627842","name()":"06fdde03","originChainAddress()":"18cbd134","originChainId()":"0ac7f561","ownerOf(uint256)":"6352211e","safeTransferFrom(address,address,uint256)":"42842e0e","safeTransferFrom(address,address,uint256,bytes)":"b88d4fde","setApprovalForAll(address,bool)":"a22cb465","supportsInterface(bytes4)":"01ffc9a7","symbol()":"95d89b41","tokenURI(uint256)":"c87b56dd","transferFrom(address,address,uint256)":"23b872dd","upgrade(address)":"0900f010","upgraded()":"c28de2cd"}}}}}