{"contracts/company/CompanyRegistry.sol":{"CompanyRegistry":{"abi":[{"inputs":[{"components":[{"internalType":"address","name":"mainAdmin","type":"address"},{"internalType":"address","name":"companyFactory","type":"address"},{"internalType":"address","name":"worldRegistry","type":"address"},{"internalType":"address[]","name":"admins","type":"address[]"}],"internalType":"struct CompanyRegistryArgs","name":"args","type":"tuple"}],"stateMutability":"nonpayable","type":"constructor"},{"inputs":[],"name":"AccessControlBadConfirmation","type":"error"},{"inputs":[{"internalType":"address","name":"account","type":"address"},{"internalType":"bytes32","name":"neededRole","type":"bytes32"}],"name":"AccessControlUnauthorizedAccount","type":"error"},{"inputs":[],"name":"ReentrancyGuardReentrantCall","type":"error"},{"anonymous":false,"inputs":[{"indexed":true,"internalType":"address","name":"company","type":"address"},{"components":[{"internalType":"string","name":"x","type":"string"},{"internalType":"string","name":"y","type":"string"},{"internalType":"string","name":"z","type":"string"},{"internalType":"uint256","name":"t","type":"uint256"},{"internalType":"uint256","name":"p","type":"uint256"},{"internalType":"uint256","name":"p_sub","type":"uint256"}],"indexed":true,"internalType":"struct VectorAddress","name":"","type":"tuple"}],"name":"CompanyRegistered","type":"event"},{"anonymous":false,"inputs":[{"indexed":true,"internalType":"bytes32","name":"role","type":"bytes32"},{"indexed":true,"internalType":"bytes32","name":"previousAdminRole","type":"bytes32"},{"indexed":true,"internalType":"bytes32","name":"newAdminRole","type":"bytes32"}],"name":"RoleAdminChanged","type":"event"},{"anonymous":false,"inputs":[{"indexed":true,"internalType":"bytes32","name":"role","type":"bytes32"},{"indexed":true,"internalType":"address","name":"account","type":"address"},{"indexed":true,"internalType":"address","name":"sender","type":"address"}],"name":"RoleGranted","type":"event"},{"anonymous":false,"inputs":[{"indexed":true,"internalType":"bytes32","name":"role","type":"bytes32"},{"indexed":true,"internalType":"address","name":"account","type":"address"},{"indexed":true,"internalType":"address","name":"sender","type":"address"}],"name":"RoleRevoked","type":"event"},{"inputs":[],"name":"ADMIN_ROLE","outputs":[{"internalType":"bytes32","name":"","type":"bytes32"}],"stateMutability":"view","type":"function"},{"inputs":[],"name":"DEFAULT_ADMIN_ROLE","outputs":[{"internalType":"bytes32","name":"","type":"bytes32"}],"stateMutability":"view","type":"function"},{"inputs":[],"name":"companyFactory","outputs":[{"internalType":"contract ICompanyFactory","name":"","type":"address"}],"stateMutability":"view","type":"function"},{"inputs":[{"internalType":"bytes32","name":"role","type":"bytes32"}],"name":"getRoleAdmin","outputs":[{"internalType":"bytes32","name":"","type":"bytes32"}],"stateMutability":"view","type":"function"},{"inputs":[{"internalType":"bytes32","name":"role","type":"bytes32"},{"internalType":"address","name":"account","type":"address"}],"name":"grantRole","outputs":[],"stateMutability":"nonpayable","type":"function"},{"inputs":[{"internalType":"bytes32","name":"role","type":"bytes32"},{"internalType":"address","name":"account","type":"address"}],"name":"hasRole","outputs":[{"internalType":"bool","name":"","type":"bool"}],"stateMutability":"view","type":"function"},{"inputs":[{"internalType":"address","name":"company","type":"address"}],"name":"isRegisteredCompany","outputs":[{"internalType":"bool","name":"","type":"bool"}],"stateMutability":"view","type":"function"},{"inputs":[{"components":[{"internalType":"address","name":"owner","type":"address"},{"components":[{"internalType":"string","name":"x","type":"string"},{"internalType":"string","name":"y","type":"string"},{"internalType":"string","name":"z","type":"string"},{"internalType":"uint256","name":"t","type":"uint256"},{"internalType":"uint256","name":"p","type":"uint256"},{"internalType":"uint256","name":"p_sub","type":"uint256"}],"internalType":"struct VectorAddress","name":"vector","type":"tuple"},{"internalType":"bytes","name":"initData","type":"bytes"},{"internalType":"string","name":"name","type":"string"}],"internalType":"struct CompanyRegistrationRequest","name":"request","type":"tuple"}],"name":"registerCompany","outputs":[{"internalType":"address","name":"","type":"address"}],"stateMutability":"nonpayable","type":"function"},{"inputs":[{"internalType":"bytes32","name":"role","type":"bytes32"},{"internalType":"address","name":"callerConfirmation","type":"address"}],"name":"renounceRole","outputs":[],"stateMutability":"nonpayable","type":"function"},{"inputs":[{"internalType":"bytes32","name":"role","type":"bytes32"},{"internalType":"address","name":"account","type":"address"}],"name":"revokeRole","outputs":[],"stateMutability":"nonpayable","type":"function"},{"inputs":[{"internalType":"address","name":"factory","type":"address"}],"name":"setCompanyFactory","outputs":[],"stateMutability":"nonpayable","type":"function"},{"inputs":[{"internalType":"address","name":"registry","type":"address"}],"name":"setWorldRegistry","outputs":[],"stateMutability":"nonpayable","type":"function"},{"inputs":[{"internalType":"bytes4","name":"interfaceId","type":"bytes4"}],"name":"supportsInterface","outputs":[{"internalType":"bool","name":"","type":"bool"}],"stateMutability":"view","type":"function"},{"inputs":[{"internalType":"bytes","name":"initData","type":"bytes"}],"name":"upgradeCompany","outputs":[],"stateMutability":"nonpayable","type":"function"},{"inputs":[],"name":"worldRegistry","outputs":[{"internalType":"contract IWorldRegistry0_2","name":"","type":"address"}],"stateMutability":"view","type":"function"}],"evm":{"bytecode":{"linkReferences":{},"object":"60806040523480156200001157600080fd5b5060405162001e9938038062001e9983398101604081905262000034916200042a565b600160005580516001600160a01b0316620000ae5760405162461bcd60e51b815260206004820152602f60248201527f436f6d70616e7952656769737472793a206d61696e2061646d696e206164647260448201526e06573732063616e6e6f74206265203608c1b60648201526084015b60405180910390fd5b8051620000be9060009062000302565b508051620000dd9060008051602062001e798339815191529062000302565b5060208101516001600160a01b03166200014f5760405162461bcd60e51b815260206004820152602c60248201527f436f6d70616e7952656769737472793a20666163746f7279206164647265737360448201526b02063616e6e6f7420626520360a41b6064820152608401620000a5565b60408101516001600160a01b0316620001d15760405162461bcd60e51b815260206004820152603360248201527f436f6d70616e7952656769737472793a20776f726c642072656769737472792060448201527f616464726573732063616e6e6f742062652030000000000000000000000000006064820152608401620000a5565b6020810151600280546001600160a01b039283166001600160a01b03199182161790915560408301516003805491909316911617905560005b816060015151811015620002fa5760006001600160a01b0316826060015182815181106200023c576200023c6200054d565b60200260200101516001600160a01b031603620002af5760405162461bcd60e51b815260206004820152602a60248201527f436f6d70616e7952656769737472793a2061646d696e206164647265737320636044820152690616e6e6f7420626520360b41b6064820152608401620000a5565b620002f060008051602062001e7983398151915283606001518381518110620002dc57620002dc6200054d565b60200260200101516200030260201b60201c565b506001016200020a565b505062000563565b60008281526001602090815260408083206001600160a01b038516845290915281205460ff166200038f5760008381526001602081815260408084206001600160a01b0387168086529252808420805460ff19169093179092559051339286917f2f8788117e7eff1d82e926ec794901d17c78024a50270940304540a733656f0d9190a450600162000393565b5060005b92915050565b634e487b7160e01b600052604160045260246000fd5b604051608081016001600160401b0381118282101715620003d457620003d462000399565b60405290565b604051601f8201601f191681016001600160401b038111828210171562000405576200040562000399565b604052919050565b80516001600160a01b03811681146200042557600080fd5b919050565b600060208083850312156200043e57600080fd5b82516001600160401b03808211156200045657600080fd5b90840190608082870312156200046b57600080fd5b62000475620003af565b62000480836200040d565b81526200048f8484016200040d565b84820152620004a1604084016200040d565b6040820152606083015182811115620004b957600080fd5b80840193505086601f840112620004cf57600080fd5b825182811115620004e457620004e462000399565b8060051b9250620004f7858401620003da565b81815292840185019285810190898511156200051257600080fd5b948601945b848610156200053b576200052b866200040d565b8252948601949086019062000517565b60608401525090979650505050505050565b634e487b7160e01b600052603260045260246000fd5b61190680620005736000396000f3fe608060405234801561001057600080fd5b50600436106100f55760003560e01c8063911c2a8c11610097578063d449cf2511610066578063d449cf251461023b578063d547741f1461024e578063dc1c44be14610261578063e237fbad1461027457600080fd5b8063911c2a8c146101e257806391d148541461020d578063a217fddf14610220578063cb70d6c41461022857600080fd5b806336568abe116100d357806336568abe1461016957806375b238fc1461017c57806382c154e0146101a357806390159c94146101b657600080fd5b806301ffc9a7146100fa578063248a9ca3146101225780632f2ff15d14610154575b600080fd5b61010d61010836600461110d565b610287565b60405190151581526020015b60405180910390f35b61014661013036600461113e565b6000908152600160208190526040909120015490565b604051908152602001610119565b61016761016236600461116c565b6102be565b005b61016761017736600461116c565b6102ea565b6101467fa49807205ce4d355092ef5a8a18f56e8913cf4a201fbe287825b095693c2177581565b6101676101b136600461119c565b610322565b61010d6101c436600461119c565b6001600160a01b031660009081526005602052604090205460ff1690565b6003546101f5906001600160a01b031681565b6040516001600160a01b039091168152602001610119565b61010d61021b36600461116c565b6103c0565b610146600081565b6101f56102363660046112ca565b6103eb565b610167610249366004611426565b610774565b61016761025c36600461116c565b610c5d565b6002546101f5906001600160a01b031681565b61016761028236600461119c565b610c83565b60006001600160e01b03198216637965db0b60e01b14806102b857506301ffc9a760e01b6001600160e01b03198316145b92915050565b600082815260016020819052604090912001546102da81610d23565b6102e48383610d30565b50505050565b6001600160a01b03811633146103135760405163334bd91960e11b815260040160405180910390fd5b61031d8282610da9565b505050565b600061032d81610d23565b6001600160a01b03821661039d5760405162461bcd60e51b815260206004820152602c60248201527f436f6d70616e7952656769737472793a20666163746f7279206164647265737360448201526b02063616e6e6f7420626520360a41b60648201526084015b60405180910390fd5b50600280546001600160a01b0319166001600160a01b0392909216919091179055565b60009182526001602090815260408084206001600160a01b0393909316845291905290205460ff1690565b600354604051637856879f60e11b81523360048201526000916001600160a01b03169063f0ad0f3e90602401602060405180830381865afa158015610434573d6000803e3d6000fd5b505050506040513d601f19601f820116820180604052508101906104589190611498565b6104b35760405162461bcd60e51b815260206004820152602660248201527f436f6d70616e7952656769737472793a2063616c6c6572206973206e6f742061604482015265081ddbdc9b1960d21b6064820152608401610394565b6104bb610e16565b60006104ca8360600151610e40565b905060006001600160a01b03166004826040516104e791906114de565b908152604051908190036020019020546001600160a01b0316146105615760405162461bcd60e51b815260206004820152602b60248201527f436f6d70616e7952656769737472793a20636f6d70616e79206e616d6520616c60448201526a3932b0b23c903a30b5b2b760a91b6064820152608401610394565b6002546040805160a08101825285516001600160a01b03908116825233602080840191909152870151828401528683015160608084019190915287015160808301529151637be4fdd760e11b8152600093929092169163f7c9fbae916105c991600401611526565b6020604051808303816000875af11580156105e8573d6000803e3d6000fd5b505050506040513d601f19601f8201168201806040525081019061060c9190611611565b90506001600160a01b0381166106755760405162461bcd60e51b815260206004820152602860248201527f436f6d70616e7952656769737472793a20636f6d70616e79206372656174696f6044820152671b8819985a5b195960c21b6064820152608401610394565b8060048360405161068691906114de565b908152604080516020928190038301902080546001600160a01b0319166001600160a01b03948516179055918316600090815260058252918220805460ff1916600117905585015182916006916106dc90610eb0565b80519060200120815260200190815260200160002060006101000a8154816001600160a01b0302191690836001600160a01b031602179055508360200151604051610727919061162e565b604051908190038120906001600160a01b038316907f7d4bf7edd813e2887ba5c21733818d0fb09a3e972e1dbc39a7f639fda34dd71490600090a391505061076f6001600055565b919050565b3360009081526005602052604090205460ff166107e45760405162461bcd60e51b815260206004820152602860248201527f436f6d70616e7952656769737472793a2063616c6c6572206973206e6f74206160448201526720636f6d70616e7960c01b6064820152608401610394565b6107ec610e16565b60003390506000610861826001600160a01b03166306fdde036040518163ffffffff1660e01b8152600401600060405180830381865afa158015610834573d6000803e3d6000fd5b505050506040513d6000823e601f3d908101601f1916820160405261085c9190810190611709565b610e40565b905060006040518060a00160405280846001600160a01b0316638da5cb5b6040518163ffffffff1660e01b8152600401602060405180830381865afa1580156108ae573d6000803e3d6000fd5b505050506040513d601f19601f820116820180604052508101906108d29190611611565b6001600160a01b03168152602001846001600160a01b03166330b67baa6040518163ffffffff1660e01b8152600401602060405180830381865afa15801561091e573d6000803e3d6000fd5b505050506040513d601f19601f820116820180604052508101906109429190611611565b6001600160a01b03168152602001846001600160a01b0316632fcbab9a6040518163ffffffff1660e01b8152600401600060405180830381865afa15801561098e573d6000803e3d6000fd5b505050506040513d6000823e601f3d908101601f191682016040526109b6919081019061173e565b815260200186868080601f01602080910402602001604051908101604052809392919081815260200183838082843760009201829052509385525050604080516306fdde0360e01b815290516020909401936001600160a01b038916936306fdde0393506004808401939192918290030181865afa158015610a3c573d6000803e3d6000fd5b505050506040513d6000823e601f3d908101601f19168201604052610a649190810190611709565b9052600254604051637be4fdd760e11b81529192506000916001600160a01b039091169063f7c9fbae90610a9c908590600401611526565b6020604051808303816000875af1158015610abb573d6000803e3d6000fd5b505050506040513d601f19601f82011682018060405250810190610adf9190611611565b90506001600160a01b038116610b475760405162461bcd60e51b815260206004820152602760248201527f436f6d70616e7952656769737472793a20636f6d70616e7920757067726164656044820152660819985a5b195960ca1b6064820152608401610394565b80600484604051610b5891906114de565b908152604080516020928190038301902080546001600160a01b0319166001600160a01b0394851617905591831660009081526005909152818120805460ff19166001179055908301518291600691610bb090610eb0565b80516020918201208252810191909152604090810160002080546001600160a01b0319166001600160a01b0393841617905551632663d1f760e01b8152828216600482015290851690632663d1f790602401600060405180830381600087803b158015610c1c57600080fd5b505af1158015610c30573d6000803e3d6000fd5b5050336000908152600560205260409020805460ff1916905550610c599450610f139350505050565b5050565b60008281526001602081905260409091200154610c7981610d23565b6102e48383610da9565b6000610c8e81610d23565b6001600160a01b038216610d005760405162461bcd60e51b815260206004820152603360248201527f436f6d70616e7952656769737472793a20776f726c64207265676973747279206044820152720616464726573732063616e6e6f74206265203606c1b6064820152608401610394565b50600380546001600160a01b0319166001600160a01b0392909216919091179055565b610d2d8133610f1a565b50565b6000610d3c83836103c0565b610da15760008381526001602081815260408084206001600160a01b0387168086529252808420805460ff19169093179092559051339286917f2f8788117e7eff1d82e926ec794901d17c78024a50270940304540a733656f0d9190a45060016102b8565b5060006102b8565b6000610db583836103c0565b15610da15760008381526001602090815260408083206001600160a01b0386168085529252808320805460ff1916905551339286917ff6391f5c32d9c69d2a47ea670b442974b53935d1edc7fd64eb21e047a839171b9190a45060016102b8565b600260005403610e3957604051633ee5aeb560e01b815260040160405180910390fd5b6002600055565b60608160005b8151811015610ea957610e78828281518110610e6457610e64611814565b01602001516001600160f81b031916610f53565b828281518110610e8a57610e8a611814565b60200101906001600160f81b031916908160001a905350600101610e46565b5092915050565b6060816000015182602001518360400151610ece8560600151610fa2565b610edb8660800151610fa2565b610ee88760a00151610fa2565b604051602001610efd9695949392919061182a565b6040516020818303038152906040529050919050565b6001600055565b610f2482826103c0565b610c595760405163e2517d3f60e01b81526001600160a01b038216600482015260248101839052604401610394565b6000604160f81b6001600160f81b0319831610801590610f815750602d60f91b6001600160f81b0319831611155b15610f9e57610f9560f883901c60206118a9565b60f81b92915050565b5090565b60606000610faf83611035565b600101905060008167ffffffffffffffff811115610fcf57610fcf6111b9565b6040519080825280601f01601f191660200182016040528015610ff9576020820181803683370190505b5090508181016020015b600019016f181899199a1a9b1b9c1cb0b131b232b360811b600a86061a8153600a850494508461100357509392505050565b60008072184f03e93ff9f4daa797ed6e38ed64bf6a1f0160401b83106110745772184f03e93ff9f4daa797ed6e38ed64bf6a1f0160401b830492506040015b6d04ee2d6d415b85acef810000000083106110a0576d04ee2d6d415b85acef8100000000830492506020015b662386f26fc1000083106110be57662386f26fc10000830492506010015b6305f5e10083106110d6576305f5e100830492506008015b61271083106110ea57612710830492506004015b606483106110fc576064830492506002015b600a83106102b85760010192915050565b60006020828403121561111f57600080fd5b81356001600160e01b03198116811461113757600080fd5b9392505050565b60006020828403121561115057600080fd5b5035919050565b6001600160a01b0381168114610d2d57600080fd5b6000806040838503121561117f57600080fd5b82359150602083013561119181611157565b809150509250929050565b6000602082840312156111ae57600080fd5b813561113781611157565b634e487b7160e01b600052604160045260246000fd5b6040516080810167ffffffffffffffff811182821017156111f2576111f26111b9565b60405290565b60405160c0810167ffffffffffffffff811182821017156111f2576111f26111b9565b604051601f8201601f1916810167ffffffffffffffff81118282101715611244576112446111b9565b604052919050565b600067ffffffffffffffff821115611266576112666111b9565b50601f01601f191660200190565b600082601f83011261128557600080fd5b81356112986112938261124c565b61121b565b8181528460208386010111156112ad57600080fd5b816020850160208301376000918101602001919091529392505050565b6000602082840312156112dc57600080fd5b813567ffffffffffffffff808211156112f457600080fd5b908301906080828603121561130857600080fd5b6113106111cf565b823561131b81611157565b815260208301358281111561132f57600080fd5b830160c0818803121561134157600080fd5b6113496111f8565b81358481111561135857600080fd5b61136489828501611274565b82525060208201358481111561137957600080fd5b61138589828501611274565b60208301525060408201358481111561139d57600080fd5b6113a989828501611274565b604083015250606082013560608201526080820135608082015260a082013560a082015280602084015250506040830135828111156113e757600080fd5b6113f387828601611274565b60408301525060608301358281111561140b57600080fd5b61141787828601611274565b60608301525095945050505050565b6000806020838503121561143957600080fd5b823567ffffffffffffffff8082111561145157600080fd5b818501915085601f83011261146557600080fd5b81358181111561147457600080fd5b86602082850101111561148657600080fd5b60209290920196919550909350505050565b6000602082840312156114aa57600080fd5b8151801515811461113757600080fd5b60005b838110156114d55781810151838201526020016114bd565b50506000910152565b600082516114f08184602087016114ba565b9190910192915050565b600081518084526115128160208601602086016114ba565b601f01601f19169290920160200192915050565b60208152600060018060a01b0380845116602084015280602085015116604084015250604083015160a06060840152805160c08085015261156b6101808501826114fa565b9050602082015160bf19808684030160e087015261158983836114fa565b9250604084015191508086840301610100870152506115a882826114fa565b9150506060820151610120850152608082015161014085015260a082015161016085015260608501519150601f19808583030160808601526115ea82846114fa565b925060808601519150808584030160a08601525061160882826114fa565b95945050505050565b60006020828403121561162357600080fd5b815161113781611157565b6000825180516116428185602085016114ba565b601f19915081601f82011684019050602085015180516116668184602085016114ba565b83601f820116830192505050604085015180516116878184602085016114ba565b83601f82011683019350505050606084015181526080840151602082015260a084015160408201526060810191505092915050565b600082601f8301126116cd57600080fd5b81516116db6112938261124c565b8181528460208386010111156116f057600080fd5b6117018260208301602087016114ba565b949350505050565b60006020828403121561171b57600080fd5b815167ffffffffffffffff81111561173257600080fd5b611701848285016116bc565b60006020828403121561175057600080fd5b815167ffffffffffffffff8082111561176857600080fd5b9083019060c0828603121561177c57600080fd5b6117846111f8565b82518281111561179357600080fd5b61179f878286016116bc565b8252506020830151828111156117b457600080fd5b6117c0878286016116bc565b6020830152506040830151828111156117d857600080fd5b6117e4878286016116bc565b604083015250606083015160608201526080830151608082015260a083015160a082015280935050505092915050565b634e487b7160e01b600052603260045260246000fd5b60008751602061183d8285838d016114ba565b8851918401916118508184848d016114ba565b88519201916118628184848c016114ba565b87519201916118748184848b016114ba565b86519201916118868184848a016114ba565b855192019161189881848489016114ba565b919091019998505050505050505050565b60ff81811683821601908111156102b857634e487b7160e01b600052601160045260246000fdfea264697066735822122076d77e15064c4d6212e2fdcb919aa748218e35c41d4ed645e2d56daf6329471264736f6c63430008180033a49807205ce4d355092ef5a8a18f56e8913cf4a201fbe287825b095693c21775","opcodes":"PUSH1 0x80 PUSH1 0x40 MSTORE CALLVALUE DUP1 ISZERO PUSH3 0x11 JUMPI PUSH1 0x0 DUP1 REVERT JUMPDEST POP PUSH1 0x40 MLOAD PUSH3 0x1E99 CODESIZE SUB DUP1 PUSH3 0x1E99 DUP4 CODECOPY DUP2 ADD PUSH1 0x40 DUP2 SWAP1 MSTORE PUSH3 0x34 SWAP2 PUSH3 0x42A JUMP JUMPDEST PUSH1 0x1 PUSH1 0x0 SSTORE DUP1 MLOAD PUSH1 0x1 PUSH1 0x1 PUSH1 0xA0 SHL SUB AND PUSH3 0xAE JUMPI PUSH1 0x40 MLOAD PUSH3 0x461BCD PUSH1 0xE5 SHL DUP2 MSTORE PUSH1 0x20 PUSH1 0x4 DUP3 ADD MSTORE PUSH1 0x2F PUSH1 0x24 DUP3 ADD MSTORE PUSH32 0x436F6D70616E7952656769737472793A206D61696E2061646D696E2061646472 PUSH1 0x44 DUP3 ADD MSTORE PUSH15 0x6573732063616E6E6F74206265203 PUSH1 0x8C SHL PUSH1 0x64 DUP3 ADD MSTORE PUSH1 0x84 ADD JUMPDEST PUSH1 0x40 MLOAD DUP1 SWAP2 SUB SWAP1 REVERT JUMPDEST DUP1 MLOAD PUSH3 0xBE SWAP1 PUSH1 0x0 SWAP1 PUSH3 0x302 JUMP JUMPDEST POP DUP1 MLOAD PUSH3 0xDD SWAP1 PUSH1 0x0 DUP1 MLOAD PUSH1 0x20 PUSH3 0x1E79 DUP4 CODECOPY DUP2 MLOAD SWAP2 MSTORE SWAP1 PUSH3 0x302 JUMP JUMPDEST POP PUSH1 0x20 DUP2 ADD MLOAD PUSH1 0x1 PUSH1 0x1 PUSH1 0xA0 SHL SUB AND PUSH3 0x14F JUMPI PUSH1 0x40 MLOAD PUSH3 0x461BCD PUSH1 0xE5 SHL DUP2 MSTORE PUSH1 0x20 PUSH1 0x4 DUP3 ADD MSTORE PUSH1 0x2C PUSH1 0x24 DUP3 ADD MSTORE PUSH32 0x436F6D70616E7952656769737472793A20666163746F72792061646472657373 PUSH1 0x44 DUP3 ADD MSTORE PUSH12 0x2063616E6E6F74206265203 PUSH1 0xA4 SHL PUSH1 0x64 DUP3 ADD MSTORE PUSH1 0x84 ADD PUSH3 0xA5 JUMP JUMPDEST PUSH1 0x40 DUP2 ADD MLOAD PUSH1 0x1 PUSH1 0x1 PUSH1 0xA0 SHL SUB AND PUSH3 0x1D1 JUMPI PUSH1 0x40 MLOAD PUSH3 0x461BCD PUSH1 0xE5 SHL DUP2 MSTORE PUSH1 0x20 PUSH1 0x4 DUP3 ADD MSTORE PUSH1 0x33 PUSH1 0x24 DUP3 ADD MSTORE PUSH32 0x436F6D70616E7952656769737472793A20776F726C6420726567697374727920 PUSH1 0x44 DUP3 ADD MSTORE PUSH32 0x616464726573732063616E6E6F74206265203000000000000000000000000000 PUSH1 0x64 DUP3 ADD MSTORE PUSH1 0x84 ADD PUSH3 0xA5 JUMP JUMPDEST PUSH1 0x20 DUP2 ADD MLOAD PUSH1 0x2 DUP1 SLOAD PUSH1 0x1 PUSH1 0x1 PUSH1 0xA0 SHL SUB SWAP3 DUP4 AND PUSH1 0x1 PUSH1 0x1 PUSH1 0xA0 SHL SUB NOT SWAP2 DUP3 AND OR SWAP1 SWAP2 SSTORE PUSH1 0x40 DUP4 ADD MLOAD PUSH1 0x3 DUP1 SLOAD SWAP2 SWAP1 SWAP4 AND SWAP2 AND OR SWAP1 SSTORE PUSH1 0x0 JUMPDEST DUP2 PUSH1 0x60 ADD MLOAD MLOAD DUP2 LT ISZERO PUSH3 0x2FA JUMPI PUSH1 0x0 PUSH1 0x1 PUSH1 0x1 PUSH1 0xA0 SHL SUB AND DUP3 PUSH1 0x60 ADD MLOAD DUP3 DUP2 MLOAD DUP2 LT PUSH3 0x23C JUMPI PUSH3 0x23C PUSH3 0x54D JUMP JUMPDEST PUSH1 0x20 MUL PUSH1 0x20 ADD ADD MLOAD PUSH1 0x1 PUSH1 0x1 PUSH1 0xA0 SHL SUB AND SUB PUSH3 0x2AF JUMPI PUSH1 0x40 MLOAD PUSH3 0x461BCD PUSH1 0xE5 SHL DUP2 MSTORE PUSH1 0x20 PUSH1 0x4 DUP3 ADD MSTORE PUSH1 0x2A PUSH1 0x24 DUP3 ADD MSTORE PUSH32 0x436F6D70616E7952656769737472793A2061646D696E20616464726573732063 PUSH1 0x44 DUP3 ADD MSTORE PUSH10 0x616E6E6F74206265203 PUSH1 0xB4 SHL PUSH1 0x64 DUP3 ADD MSTORE PUSH1 0x84 ADD PUSH3 0xA5 JUMP JUMPDEST PUSH3 0x2F0 PUSH1 0x0 DUP1 MLOAD PUSH1 0x20 PUSH3 0x1E79 DUP4 CODECOPY DUP2 MLOAD SWAP2 MSTORE DUP4 PUSH1 0x60 ADD MLOAD DUP4 DUP2 MLOAD DUP2 LT PUSH3 0x2DC JUMPI PUSH3 0x2DC PUSH3 0x54D JUMP JUMPDEST PUSH1 0x20 MUL PUSH1 0x20 ADD ADD MLOAD PUSH3 0x302 PUSH1 0x20 SHL PUSH1 0x20 SHR JUMP JUMPDEST POP PUSH1 0x1 ADD PUSH3 0x20A JUMP JUMPDEST POP POP PUSH3 0x563 JUMP JUMPDEST PUSH1 0x0 DUP3 DUP2 MSTORE PUSH1 0x1 PUSH1 0x20 SWAP1 DUP2 MSTORE PUSH1 0x40 DUP1 DUP4 KECCAK256 PUSH1 0x1 PUSH1 0x1 PUSH1 0xA0 SHL SUB DUP6 AND DUP5 MSTORE SWAP1 SWAP2 MSTORE DUP2 KECCAK256 SLOAD PUSH1 0xFF AND PUSH3 0x38F JUMPI PUSH1 0x0 DUP4 DUP2 MSTORE PUSH1 0x1 PUSH1 0x20 DUP2 DUP2 MSTORE PUSH1 0x40 DUP1 DUP5 KECCAK256 PUSH1 0x1 PUSH1 0x1 PUSH1 0xA0 SHL SUB DUP8 AND DUP1 DUP7 MSTORE SWAP3 MSTORE DUP1 DUP5 KECCAK256 DUP1 SLOAD PUSH1 0xFF NOT AND SWAP1 SWAP4 OR SWAP1 SWAP3 SSTORE SWAP1 MLOAD CALLER SWAP3 DUP7 SWAP2 PUSH32 0x2F8788117E7EFF1D82E926EC794901D17C78024A50270940304540A733656F0D SWAP2 SWAP1 LOG4 POP PUSH1 0x1 PUSH3 0x393 JUMP JUMPDEST POP PUSH1 0x0 JUMPDEST SWAP3 SWAP2 POP POP JUMP JUMPDEST PUSH4 0x4E487B71 PUSH1 0xE0 SHL PUSH1 0x0 MSTORE PUSH1 0x41 PUSH1 0x4 MSTORE PUSH1 0x24 PUSH1 0x0 REVERT JUMPDEST PUSH1 0x40 MLOAD PUSH1 0x80 DUP2 ADD PUSH1 0x1 PUSH1 0x1 PUSH1 0x40 SHL SUB DUP2 GT DUP3 DUP3 LT OR ISZERO PUSH3 0x3D4 JUMPI PUSH3 0x3D4 PUSH3 0x399 JUMP JUMPDEST PUSH1 0x40 MSTORE SWAP1 JUMP JUMPDEST PUSH1 0x40 MLOAD PUSH1 0x1F DUP3 ADD PUSH1 0x1F NOT AND DUP2 ADD PUSH1 0x1 PUSH1 0x1 PUSH1 0x40 SHL SUB DUP2 GT DUP3 DUP3 LT OR ISZERO PUSH3 0x405 JUMPI PUSH3 0x405 PUSH3 0x399 JUMP JUMPDEST PUSH1 0x40 MSTORE SWAP2 SWAP1 POP JUMP JUMPDEST DUP1 MLOAD PUSH1 0x1 PUSH1 0x1 PUSH1 0xA0 SHL SUB DUP2 AND DUP2 EQ PUSH3 0x425 JUMPI PUSH1 0x0 DUP1 REVERT JUMPDEST SWAP2 SWAP1 POP JUMP JUMPDEST PUSH1 0x0 PUSH1 0x20 DUP1 DUP4 DUP6 SUB SLT ISZERO PUSH3 0x43E JUMPI PUSH1 0x0 DUP1 REVERT JUMPDEST DUP3 MLOAD PUSH1 0x1 PUSH1 0x1 PUSH1 0x40 SHL SUB DUP1 DUP3 GT ISZERO PUSH3 0x456 JUMPI PUSH1 0x0 DUP1 REVERT JUMPDEST SWAP1 DUP5 ADD SWAP1 PUSH1 0x80 DUP3 DUP8 SUB SLT ISZERO PUSH3 0x46B JUMPI PUSH1 0x0 DUP1 REVERT JUMPDEST PUSH3 0x475 PUSH3 0x3AF JUMP JUMPDEST PUSH3 0x480 DUP4 PUSH3 0x40D JUMP JUMPDEST DUP2 MSTORE PUSH3 0x48F DUP5 DUP5 ADD PUSH3 0x40D JUMP JUMPDEST DUP5 DUP3 ADD MSTORE PUSH3 0x4A1 PUSH1 0x40 DUP5 ADD PUSH3 0x40D JUMP JUMPDEST PUSH1 0x40 DUP3 ADD MSTORE PUSH1 0x60 DUP4 ADD MLOAD DUP3 DUP2 GT ISZERO PUSH3 0x4B9 JUMPI PUSH1 0x0 DUP1 REVERT JUMPDEST DUP1 DUP5 ADD SWAP4 POP POP DUP7 PUSH1 0x1F DUP5 ADD SLT PUSH3 0x4CF JUMPI PUSH1 0x0 DUP1 REVERT JUMPDEST DUP3 MLOAD DUP3 DUP2 GT ISZERO PUSH3 0x4E4 JUMPI PUSH3 0x4E4 PUSH3 0x399 JUMP JUMPDEST DUP1 PUSH1 0x5 SHL SWAP3 POP PUSH3 0x4F7 DUP6 DUP5 ADD PUSH3 0x3DA JUMP JUMPDEST DUP2 DUP2 MSTORE SWAP3 DUP5 ADD DUP6 ADD SWAP3 DUP6 DUP2 ADD SWAP1 DUP10 DUP6 GT ISZERO PUSH3 0x512 JUMPI PUSH1 0x0 DUP1 REVERT JUMPDEST SWAP5 DUP7 ADD SWAP5 JUMPDEST DUP5 DUP7 LT ISZERO PUSH3 0x53B JUMPI PUSH3 0x52B DUP7 PUSH3 0x40D JUMP JUMPDEST DUP3 MSTORE SWAP5 DUP7 ADD SWAP5 SWAP1 DUP7 ADD SWAP1 PUSH3 0x517 JUMP JUMPDEST PUSH1 0x60 DUP5 ADD MSTORE POP SWAP1 SWAP8 SWAP7 POP POP POP POP POP POP POP JUMP JUMPDEST PUSH4 0x4E487B71 PUSH1 0xE0 SHL PUSH1 0x0 MSTORE PUSH1 0x32 PUSH1 0x4 MSTORE PUSH1 0x24 PUSH1 0x0 REVERT JUMPDEST PUSH2 0x1906 DUP1 PUSH3 0x573 PUSH1 0x0 CODECOPY PUSH1 0x0 RETURN INVALID PUSH1 0x80 PUSH1 0x40 MSTORE CALLVALUE DUP1 ISZERO PUSH2 0x10 JUMPI PUSH1 0x0 DUP1 REVERT JUMPDEST POP PUSH1 0x4 CALLDATASIZE LT PUSH2 0xF5 JUMPI PUSH1 0x0 CALLDATALOAD PUSH1 0xE0 SHR DUP1 PUSH4 0x911C2A8C GT PUSH2 0x97 JUMPI DUP1 PUSH4 0xD449CF25 GT PUSH2 0x66 JUMPI DUP1 PUSH4 0xD449CF25 EQ PUSH2 0x23B JUMPI DUP1 PUSH4 0xD547741F EQ PUSH2 0x24E JUMPI DUP1 PUSH4 0xDC1C44BE EQ PUSH2 0x261 JUMPI DUP1 PUSH4 0xE237FBAD EQ PUSH2 0x274 JUMPI PUSH1 0x0 DUP1 REVERT JUMPDEST DUP1 PUSH4 0x911C2A8C EQ PUSH2 0x1E2 JUMPI DUP1 PUSH4 0x91D14854 EQ PUSH2 0x20D JUMPI DUP1 PUSH4 0xA217FDDF EQ PUSH2 0x220 JUMPI DUP1 PUSH4 0xCB70D6C4 EQ PUSH2 0x228 JUMPI PUSH1 0x0 DUP1 REVERT JUMPDEST DUP1 PUSH4 0x36568ABE GT PUSH2 0xD3 JUMPI DUP1 PUSH4 0x36568ABE EQ PUSH2 0x169 JUMPI DUP1 PUSH4 0x75B238FC EQ PUSH2 0x17C JUMPI DUP1 PUSH4 0x82C154E0 EQ PUSH2 0x1A3 JUMPI DUP1 PUSH4 0x90159C94 EQ PUSH2 0x1B6 JUMPI PUSH1 0x0 DUP1 REVERT JUMPDEST DUP1 PUSH4 0x1FFC9A7 EQ PUSH2 0xFA JUMPI DUP1 PUSH4 0x248A9CA3 EQ PUSH2 0x122 JUMPI DUP1 PUSH4 0x2F2FF15D EQ PUSH2 0x154 JUMPI JUMPDEST PUSH1 0x0 DUP1 REVERT JUMPDEST PUSH2 0x10D PUSH2 0x108 CALLDATASIZE PUSH1 0x4 PUSH2 0x110D JUMP JUMPDEST PUSH2 0x287 JUMP JUMPDEST PUSH1 0x40 MLOAD SWAP1 ISZERO ISZERO DUP2 MSTORE PUSH1 0x20 ADD JUMPDEST PUSH1 0x40 MLOAD DUP1 SWAP2 SUB SWAP1 RETURN JUMPDEST PUSH2 0x146 PUSH2 0x130 CALLDATASIZE PUSH1 0x4 PUSH2 0x113E JUMP JUMPDEST PUSH1 0x0 SWAP1 DUP2 MSTORE PUSH1 0x1 PUSH1 0x20 DUP2 SWAP1 MSTORE PUSH1 0x40 SWAP1 SWAP2 KECCAK256 ADD SLOAD SWAP1 JUMP JUMPDEST PUSH1 0x40 MLOAD SWAP1 DUP2 MSTORE PUSH1 0x20 ADD PUSH2 0x119 JUMP JUMPDEST PUSH2 0x167 PUSH2 0x162 CALLDATASIZE PUSH1 0x4 PUSH2 0x116C JUMP JUMPDEST PUSH2 0x2BE JUMP JUMPDEST STOP JUMPDEST PUSH2 0x167 PUSH2 0x177 CALLDATASIZE PUSH1 0x4 PUSH2 0x116C JUMP JUMPDEST PUSH2 0x2EA JUMP JUMPDEST PUSH2 0x146 PUSH32 0xA49807205CE4D355092EF5A8A18F56E8913CF4A201FBE287825B095693C21775 DUP2 JUMP JUMPDEST PUSH2 0x167 PUSH2 0x1B1 CALLDATASIZE PUSH1 0x4 PUSH2 0x119C JUMP JUMPDEST PUSH2 0x322 JUMP JUMPDEST PUSH2 0x10D PUSH2 0x1C4 CALLDATASIZE PUSH1 0x4 PUSH2 0x119C JUMP JUMPDEST PUSH1 0x1 PUSH1 0x1 PUSH1 0xA0 SHL SUB AND PUSH1 0x0 SWAP1 DUP2 MSTORE PUSH1 0x5 PUSH1 0x20 MSTORE PUSH1 0x40 SWAP1 KECCAK256 SLOAD PUSH1 0xFF AND SWAP1 JUMP JUMPDEST PUSH1 0x3 SLOAD PUSH2 0x1F5 SWAP1 PUSH1 0x1 PUSH1 0x1 PUSH1 0xA0 SHL SUB AND DUP2 JUMP JUMPDEST PUSH1 0x40 MLOAD PUSH1 0x1 PUSH1 0x1 PUSH1 0xA0 SHL SUB SWAP1 SWAP2 AND DUP2 MSTORE PUSH1 0x20 ADD PUSH2 0x119 JUMP JUMPDEST PUSH2 0x10D PUSH2 0x21B CALLDATASIZE PUSH1 0x4 PUSH2 0x116C JUMP JUMPDEST PUSH2 0x3C0 JUMP JUMPDEST PUSH2 0x146 PUSH1 0x0 DUP2 JUMP JUMPDEST PUSH2 0x1F5 PUSH2 0x236 CALLDATASIZE PUSH1 0x4 PUSH2 0x12CA JUMP JUMPDEST PUSH2 0x3EB JUMP JUMPDEST PUSH2 0x167 PUSH2 0x249 CALLDATASIZE PUSH1 0x4 PUSH2 0x1426 JUMP JUMPDEST PUSH2 0x774 JUMP JUMPDEST PUSH2 0x167 PUSH2 0x25C CALLDATASIZE PUSH1 0x4 PUSH2 0x116C JUMP JUMPDEST PUSH2 0xC5D JUMP JUMPDEST PUSH1 0x2 SLOAD PUSH2 0x1F5 SWAP1 PUSH1 0x1 PUSH1 0x1 PUSH1 0xA0 SHL SUB AND DUP2 JUMP JUMPDEST PUSH2 0x167 PUSH2 0x282 CALLDATASIZE PUSH1 0x4 PUSH2 0x119C JUMP JUMPDEST PUSH2 0xC83 JUMP JUMPDEST PUSH1 0x0 PUSH1 0x1 PUSH1 0x1 PUSH1 0xE0 SHL SUB NOT DUP3 AND PUSH4 0x7965DB0B PUSH1 0xE0 SHL EQ DUP1 PUSH2 0x2B8 JUMPI POP PUSH4 0x1FFC9A7 PUSH1 0xE0 SHL PUSH1 0x1 PUSH1 0x1 PUSH1 0xE0 SHL SUB NOT DUP4 AND EQ JUMPDEST SWAP3 SWAP2 POP POP JUMP JUMPDEST PUSH1 0x0 DUP3 DUP2 MSTORE PUSH1 0x1 PUSH1 0x20 DUP2 SWAP1 MSTORE PUSH1 0x40 SWAP1 SWAP2 KECCAK256 ADD SLOAD PUSH2 0x2DA DUP2 PUSH2 0xD23 JUMP JUMPDEST PUSH2 0x2E4 DUP4 DUP4 PUSH2 0xD30 JUMP JUMPDEST POP POP POP POP JUMP JUMPDEST PUSH1 0x1 PUSH1 0x1 PUSH1 0xA0 SHL SUB DUP2 AND CALLER EQ PUSH2 0x313 JUMPI PUSH1 0x40 MLOAD PUSH4 0x334BD919 PUSH1 0xE1 SHL DUP2 MSTORE PUSH1 0x4 ADD PUSH1 0x40 MLOAD DUP1 SWAP2 SUB SWAP1 REVERT JUMPDEST PUSH2 0x31D DUP3 DUP3 PUSH2 0xDA9 JUMP JUMPDEST POP POP POP JUMP JUMPDEST PUSH1 0x0 PUSH2 0x32D DUP2 PUSH2 0xD23 JUMP JUMPDEST PUSH1 0x1 PUSH1 0x1 PUSH1 0xA0 SHL SUB DUP3 AND PUSH2 0x39D JUMPI PUSH1 0x40 MLOAD PUSH3 0x461BCD PUSH1 0xE5 SHL DUP2 MSTORE PUSH1 0x20 PUSH1 0x4 DUP3 ADD MSTORE PUSH1 0x2C PUSH1 0x24 DUP3 ADD MSTORE PUSH32 0x436F6D70616E7952656769737472793A20666163746F72792061646472657373 PUSH1 0x44 DUP3 ADD MSTORE PUSH12 0x2063616E6E6F74206265203 PUSH1 0xA4 SHL PUSH1 0x64 DUP3 ADD MSTORE PUSH1 0x84 ADD JUMPDEST PUSH1 0x40 MLOAD DUP1 SWAP2 SUB SWAP1 REVERT JUMPDEST POP PUSH1 0x2 DUP1 SLOAD PUSH1 0x1 PUSH1 0x1 PUSH1 0xA0 SHL SUB NOT AND PUSH1 0x1 PUSH1 0x1 PUSH1 0xA0 SHL SUB SWAP3 SWAP1 SWAP3 AND SWAP2 SWAP1 SWAP2 OR SWAP1 SSTORE JUMP JUMPDEST PUSH1 0x0 SWAP2 DUP3 MSTORE PUSH1 0x1 PUSH1 0x20 SWAP1 DUP2 MSTORE PUSH1 0x40 DUP1 DUP5 KECCAK256 PUSH1 0x1 PUSH1 0x1 PUSH1 0xA0 SHL SUB SWAP4 SWAP1 SWAP4 AND DUP5 MSTORE SWAP2 SWAP1 MSTORE SWAP1 KECCAK256 SLOAD PUSH1 0xFF AND SWAP1 JUMP JUMPDEST PUSH1 0x3 SLOAD PUSH1 0x40 MLOAD PUSH4 0x7856879F PUSH1 0xE1 SHL DUP2 MSTORE CALLER PUSH1 0x4 DUP3 ADD MSTORE PUSH1 0x0 SWAP2 PUSH1 0x1 PUSH1 0x1 PUSH1 0xA0 SHL SUB AND SWAP1 PUSH4 0xF0AD0F3E SWAP1 PUSH1 0x24 ADD PUSH1 0x20 PUSH1 0x40 MLOAD DUP1 DUP4 SUB DUP2 DUP7 GAS STATICCALL ISZERO DUP1 ISZERO PUSH2 0x434 JUMPI RETURNDATASIZE PUSH1 0x0 DUP1 RETURNDATACOPY RETURNDATASIZE PUSH1 0x0 REVERT JUMPDEST POP POP POP POP PUSH1 0x40 MLOAD RETURNDATASIZE PUSH1 0x1F NOT PUSH1 0x1F DUP3 ADD AND DUP3 ADD DUP1 PUSH1 0x40 MSTORE POP DUP2 ADD SWAP1 PUSH2 0x458 SWAP2 SWAP1 PUSH2 0x1498 JUMP JUMPDEST PUSH2 0x4B3 JUMPI PUSH1 0x40 MLOAD PUSH3 0x461BCD PUSH1 0xE5 SHL DUP2 MSTORE PUSH1 0x20 PUSH1 0x4 DUP3 ADD MSTORE PUSH1 0x26 PUSH1 0x24 DUP3 ADD MSTORE PUSH32 0x436F6D70616E7952656769737472793A2063616C6C6572206973206E6F742061 PUSH1 0x44 DUP3 ADD MSTORE PUSH6 0x81DDBDC9B19 PUSH1 0xD2 SHL PUSH1 0x64 DUP3 ADD MSTORE PUSH1 0x84 ADD PUSH2 0x394 JUMP JUMPDEST PUSH2 0x4BB PUSH2 0xE16 JUMP JUMPDEST PUSH1 0x0 PUSH2 0x4CA DUP4 PUSH1 0x60 ADD MLOAD PUSH2 0xE40 JUMP JUMPDEST SWAP1 POP PUSH1 0x0 PUSH1 0x1 PUSH1 0x1 PUSH1 0xA0 SHL SUB AND PUSH1 0x4 DUP3 PUSH1 0x40 MLOAD PUSH2 0x4E7 SWAP2 SWAP1 PUSH2 0x14DE JUMP JUMPDEST SWAP1 DUP2 MSTORE PUSH1 0x40 MLOAD SWAP1 DUP2 SWAP1 SUB PUSH1 0x20 ADD SWAP1 KECCAK256 SLOAD PUSH1 0x1 PUSH1 0x1 PUSH1 0xA0 SHL SUB AND EQ PUSH2 0x561 JUMPI PUSH1 0x40 MLOAD PUSH3 0x461BCD PUSH1 0xE5 SHL DUP2 MSTORE PUSH1 0x20 PUSH1 0x4 DUP3 ADD MSTORE PUSH1 0x2B PUSH1 0x24 DUP3 ADD MSTORE PUSH32 0x436F6D70616E7952656769737472793A20636F6D70616E79206E616D6520616C PUSH1 0x44 DUP3 ADD MSTORE PUSH11 0x3932B0B23C903A30B5B2B7 PUSH1 0xA9 SHL PUSH1 0x64 DUP3 ADD MSTORE PUSH1 0x84 ADD PUSH2 0x394 JUMP JUMPDEST PUSH1 0x2 SLOAD PUSH1 0x40 DUP1 MLOAD PUSH1 0xA0 DUP2 ADD DUP3 MSTORE DUP6 MLOAD PUSH1 0x1 PUSH1 0x1 PUSH1 0xA0 SHL SUB SWAP1 DUP2 AND DUP3 MSTORE CALLER PUSH1 0x20 DUP1 DUP5 ADD SWAP2 SWAP1 SWAP2 MSTORE DUP8 ADD MLOAD DUP3 DUP5 ADD MSTORE DUP7 DUP4 ADD MLOAD PUSH1 0x60 DUP1 DUP5 ADD SWAP2 SWAP1 SWAP2 MSTORE DUP8 ADD MLOAD PUSH1 0x80 DUP4 ADD MSTORE SWAP2 MLOAD PUSH4 0x7BE4FDD7 PUSH1 0xE1 SHL DUP2 MSTORE PUSH1 0x0 SWAP4 SWAP3 SWAP1 SWAP3 AND SWAP2 PUSH4 0xF7C9FBAE SWAP2 PUSH2 0x5C9 SWAP2 PUSH1 0x4 ADD PUSH2 0x1526 JUMP JUMPDEST PUSH1 0x20 PUSH1 0x40 MLOAD DUP1 DUP4 SUB DUP2 PUSH1 0x0 DUP8 GAS CALL ISZERO DUP1 ISZERO PUSH2 0x5E8 JUMPI RETURNDATASIZE PUSH1 0x0 DUP1 RETURNDATACOPY RETURNDATASIZE PUSH1 0x0 REVERT JUMPDEST POP POP POP POP PUSH1 0x40 MLOAD RETURNDATASIZE PUSH1 0x1F NOT PUSH1 0x1F DUP3 ADD AND DUP3 ADD DUP1 PUSH1 0x40 MSTORE POP DUP2 ADD SWAP1 PUSH2 0x60C SWAP2 SWAP1 PUSH2 0x1611 JUMP JUMPDEST SWAP1 POP PUSH1 0x1 PUSH1 0x1 PUSH1 0xA0 SHL SUB DUP2 AND PUSH2 0x675 JUMPI PUSH1 0x40 MLOAD PUSH3 0x461BCD PUSH1 0xE5 SHL DUP2 MSTORE PUSH1 0x20 PUSH1 0x4 DUP3 ADD MSTORE PUSH1 0x28 PUSH1 0x24 DUP3 ADD MSTORE PUSH32 0x436F6D70616E7952656769737472793A20636F6D70616E79206372656174696F PUSH1 0x44 DUP3 ADD MSTORE PUSH8 0x1B8819985A5B1959 PUSH1 0xC2 SHL PUSH1 0x64 DUP3 ADD MSTORE PUSH1 0x84 ADD PUSH2 0x394 JUMP JUMPDEST DUP1 PUSH1 0x4 DUP4 PUSH1 0x40 MLOAD PUSH2 0x686 SWAP2 SWAP1 PUSH2 0x14DE JUMP JUMPDEST SWAP1 DUP2 MSTORE PUSH1 0x40 DUP1 MLOAD PUSH1 0x20 SWAP3 DUP2 SWAP1 SUB DUP4 ADD SWAP1 KECCAK256 DUP1 SLOAD PUSH1 0x1 PUSH1 0x1 PUSH1 0xA0 SHL SUB NOT AND PUSH1 0x1 PUSH1 0x1 PUSH1 0xA0 SHL SUB SWAP5 DUP6 AND OR SWAP1 SSTORE SWAP2 DUP4 AND PUSH1 0x0 SWAP1 DUP2 MSTORE PUSH1 0x5 DUP3 MSTORE SWAP2 DUP3 KECCAK256 DUP1 SLOAD PUSH1 0xFF NOT AND PUSH1 0x1 OR SWAP1 SSTORE DUP6 ADD MLOAD DUP3 SWAP2 PUSH1 0x6 SWAP2 PUSH2 0x6DC SWAP1 PUSH2 0xEB0 JUMP JUMPDEST DUP1 MLOAD SWAP1 PUSH1 0x20 ADD KECCAK256 DUP2 MSTORE PUSH1 0x20 ADD SWAP1 DUP2 MSTORE PUSH1 0x20 ADD PUSH1 0x0 KECCAK256 PUSH1 0x0 PUSH2 0x100 EXP DUP2 SLOAD DUP2 PUSH1 0x1 PUSH1 0x1 PUSH1 0xA0 SHL SUB MUL NOT AND SWAP1 DUP4 PUSH1 0x1 PUSH1 0x1 PUSH1 0xA0 SHL SUB AND MUL OR SWAP1 SSTORE POP DUP4 PUSH1 0x20 ADD MLOAD PUSH1 0x40 MLOAD PUSH2 0x727 SWAP2 SWAP1 PUSH2 0x162E JUMP JUMPDEST PUSH1 0x40 MLOAD SWAP1 DUP2 SWAP1 SUB DUP2 KECCAK256 SWAP1 PUSH1 0x1 PUSH1 0x1 PUSH1 0xA0 SHL SUB DUP4 AND SWAP1 PUSH32 0x7D4BF7EDD813E2887BA5C21733818D0FB09A3E972E1DBC39A7F639FDA34DD714 SWAP1 PUSH1 0x0 SWAP1 LOG3 SWAP2 POP POP PUSH2 0x76F PUSH1 0x1 PUSH1 0x0 SSTORE JUMP JUMPDEST SWAP2 SWAP1 POP JUMP JUMPDEST CALLER PUSH1 0x0 SWAP1 DUP2 MSTORE PUSH1 0x5 PUSH1 0x20 MSTORE PUSH1 0x40 SWAP1 KECCAK256 SLOAD PUSH1 0xFF AND PUSH2 0x7E4 JUMPI PUSH1 0x40 MLOAD PUSH3 0x461BCD PUSH1 0xE5 SHL DUP2 MSTORE PUSH1 0x20 PUSH1 0x4 DUP3 ADD MSTORE PUSH1 0x28 PUSH1 0x24 DUP3 ADD MSTORE PUSH32 0x436F6D70616E7952656769737472793A2063616C6C6572206973206E6F742061 PUSH1 0x44 DUP3 ADD MSTORE PUSH8 0x20636F6D70616E79 PUSH1 0xC0 SHL PUSH1 0x64 DUP3 ADD MSTORE PUSH1 0x84 ADD PUSH2 0x394 JUMP JUMPDEST PUSH2 0x7EC PUSH2 0xE16 JUMP JUMPDEST PUSH1 0x0 CALLER SWAP1 POP PUSH1 0x0 PUSH2 0x861 DUP3 PUSH1 0x1 PUSH1 0x1 PUSH1 0xA0 SHL SUB AND PUSH4 0x6FDDE03 PUSH1 0x40 MLOAD DUP2 PUSH4 0xFFFFFFFF AND PUSH1 0xE0 SHL DUP2 MSTORE PUSH1 0x4 ADD PUSH1 0x0 PUSH1 0x40 MLOAD DUP1 DUP4 SUB DUP2 DUP7 GAS STATICCALL ISZERO DUP1 ISZERO PUSH2 0x834 JUMPI RETURNDATASIZE PUSH1 0x0 DUP1 RETURNDATACOPY RETURNDATASIZE PUSH1 0x0 REVERT JUMPDEST POP POP POP POP PUSH1 0x40 MLOAD RETURNDATASIZE PUSH1 0x0 DUP3 RETURNDATACOPY PUSH1 0x1F RETURNDATASIZE SWAP1 DUP2 ADD PUSH1 0x1F NOT AND DUP3 ADD PUSH1 0x40 MSTORE PUSH2 0x85C SWAP2 SWAP1 DUP2 ADD SWAP1 PUSH2 0x1709 JUMP JUMPDEST PUSH2 0xE40 JUMP JUMPDEST SWAP1 POP PUSH1 0x0 PUSH1 0x40 MLOAD DUP1 PUSH1 0xA0 ADD PUSH1 0x40 MSTORE DUP1 DUP5 PUSH1 0x1 PUSH1 0x1 PUSH1 0xA0 SHL SUB AND PUSH4 0x8DA5CB5B PUSH1 0x40 MLOAD DUP2 PUSH4 0xFFFFFFFF AND PUSH1 0xE0 SHL DUP2 MSTORE PUSH1 0x4 ADD PUSH1 0x20 PUSH1 0x40 MLOAD DUP1 DUP4 SUB DUP2 DUP7 GAS STATICCALL ISZERO DUP1 ISZERO PUSH2 0x8AE JUMPI RETURNDATASIZE PUSH1 0x0 DUP1 RETURNDATACOPY RETURNDATASIZE PUSH1 0x0 REVERT JUMPDEST POP POP POP POP PUSH1 0x40 MLOAD RETURNDATASIZE PUSH1 0x1F NOT PUSH1 0x1F DUP3 ADD AND DUP3 ADD DUP1 PUSH1 0x40 MSTORE POP DUP2 ADD SWAP1 PUSH2 0x8D2 SWAP2 SWAP1 PUSH2 0x1611 JUMP JUMPDEST PUSH1 0x1 PUSH1 0x1 PUSH1 0xA0 SHL SUB AND DUP2 MSTORE PUSH1 0x20 ADD DUP5 PUSH1 0x1 PUSH1 0x1 PUSH1 0xA0 SHL SUB AND PUSH4 0x30B67BAA PUSH1 0x40 MLOAD DUP2 PUSH4 0xFFFFFFFF AND PUSH1 0xE0 SHL DUP2 MSTORE PUSH1 0x4 ADD PUSH1 0x20 PUSH1 0x40 MLOAD DUP1 DUP4 SUB DUP2 DUP7 GAS STATICCALL ISZERO DUP1 ISZERO PUSH2 0x91E JUMPI RETURNDATASIZE PUSH1 0x0 DUP1 RETURNDATACOPY RETURNDATASIZE PUSH1 0x0 REVERT JUMPDEST POP POP POP POP PUSH1 0x40 MLOAD RETURNDATASIZE PUSH1 0x1F NOT PUSH1 0x1F DUP3 ADD AND DUP3 ADD DUP1 PUSH1 0x40 MSTORE POP DUP2 ADD SWAP1 PUSH2 0x942 SWAP2 SWAP1 PUSH2 0x1611 JUMP JUMPDEST PUSH1 0x1 PUSH1 0x1 PUSH1 0xA0 SHL SUB AND DUP2 MSTORE PUSH1 0x20 ADD DUP5 PUSH1 0x1 PUSH1 0x1 PUSH1 0xA0 SHL SUB AND PUSH4 0x2FCBAB9A PUSH1 0x40 MLOAD DUP2 PUSH4 0xFFFFFFFF AND PUSH1 0xE0 SHL DUP2 MSTORE PUSH1 0x4 ADD PUSH1 0x0 PUSH1 0x40 MLOAD DUP1 DUP4 SUB DUP2 DUP7 GAS STATICCALL ISZERO DUP1 ISZERO PUSH2 0x98E JUMPI RETURNDATASIZE PUSH1 0x0 DUP1 RETURNDATACOPY RETURNDATASIZE PUSH1 0x0 REVERT JUMPDEST POP POP POP POP PUSH1 0x40 MLOAD RETURNDATASIZE PUSH1 0x0 DUP3 RETURNDATACOPY PUSH1 0x1F RETURNDATASIZE SWAP1 DUP2 ADD PUSH1 0x1F NOT AND DUP3 ADD PUSH1 0x40 MSTORE PUSH2 0x9B6 SWAP2 SWAP1 DUP2 ADD SWAP1 PUSH2 0x173E JUMP JUMPDEST DUP2 MSTORE PUSH1 0x20 ADD DUP7 DUP7 DUP1 DUP1 PUSH1 0x1F ADD PUSH1 0x20 DUP1 SWAP2 DIV MUL PUSH1 0x20 ADD PUSH1 0x40 MLOAD SWAP1 DUP2 ADD PUSH1 0x40 MSTORE DUP1 SWAP4 SWAP3 SWAP2 SWAP1 DUP2 DUP2 MSTORE PUSH1 0x20 ADD DUP4 DUP4 DUP1 DUP3 DUP5 CALLDATACOPY PUSH1 0x0 SWAP3 ADD DUP3 SWAP1 MSTORE POP SWAP4 DUP6 MSTORE POP POP PUSH1 0x40 DUP1 MLOAD PUSH4 0x6FDDE03 PUSH1 0xE0 SHL DUP2 MSTORE SWAP1 MLOAD PUSH1 0x20 SWAP1 SWAP5 ADD SWAP4 PUSH1 0x1 PUSH1 0x1 PUSH1 0xA0 SHL SUB DUP10 AND SWAP4 PUSH4 0x6FDDE03 SWAP4 POP PUSH1 0x4 DUP1 DUP5 ADD SWAP4 SWAP2 SWAP3 SWAP2 DUP3 SWAP1 SUB ADD DUP2 DUP7 GAS STATICCALL ISZERO DUP1 ISZERO PUSH2 0xA3C JUMPI RETURNDATASIZE PUSH1 0x0 DUP1 RETURNDATACOPY RETURNDATASIZE PUSH1 0x0 REVERT JUMPDEST POP POP POP POP PUSH1 0x40 MLOAD RETURNDATASIZE PUSH1 0x0 DUP3 RETURNDATACOPY PUSH1 0x1F RETURNDATASIZE SWAP1 DUP2 ADD PUSH1 0x1F NOT AND DUP3 ADD PUSH1 0x40 MSTORE PUSH2 0xA64 SWAP2 SWAP1 DUP2 ADD SWAP1 PUSH2 0x1709 JUMP JUMPDEST SWAP1 MSTORE PUSH1 0x2 SLOAD PUSH1 0x40 MLOAD PUSH4 0x7BE4FDD7 PUSH1 0xE1 SHL DUP2 MSTORE SWAP2 SWAP3 POP PUSH1 0x0 SWAP2 PUSH1 0x1 PUSH1 0x1 PUSH1 0xA0 SHL SUB SWAP1 SWAP2 AND SWAP1 PUSH4 0xF7C9FBAE SWAP1 PUSH2 0xA9C SWAP1 DUP6 SWAP1 PUSH1 0x4 ADD PUSH2 0x1526 JUMP JUMPDEST PUSH1 0x20 PUSH1 0x40 MLOAD DUP1 DUP4 SUB DUP2 PUSH1 0x0 DUP8 GAS CALL ISZERO DUP1 ISZERO PUSH2 0xABB JUMPI RETURNDATASIZE PUSH1 0x0 DUP1 RETURNDATACOPY RETURNDATASIZE PUSH1 0x0 REVERT JUMPDEST POP POP POP POP PUSH1 0x40 MLOAD RETURNDATASIZE PUSH1 0x1F NOT PUSH1 0x1F DUP3 ADD AND DUP3 ADD DUP1 PUSH1 0x40 MSTORE POP DUP2 ADD SWAP1 PUSH2 0xADF SWAP2 SWAP1 PUSH2 0x1611 JUMP JUMPDEST SWAP1 POP PUSH1 0x1 PUSH1 0x1 PUSH1 0xA0 SHL SUB DUP2 AND PUSH2 0xB47 JUMPI PUSH1 0x40 MLOAD PUSH3 0x461BCD PUSH1 0xE5 SHL DUP2 MSTORE PUSH1 0x20 PUSH1 0x4 DUP3 ADD MSTORE PUSH1 0x27 PUSH1 0x24 DUP3 ADD MSTORE PUSH32 0x436F6D70616E7952656769737472793A20636F6D70616E792075706772616465 PUSH1 0x44 DUP3 ADD MSTORE PUSH7 0x819985A5B1959 PUSH1 0xCA SHL PUSH1 0x64 DUP3 ADD MSTORE PUSH1 0x84 ADD PUSH2 0x394 JUMP JUMPDEST DUP1 PUSH1 0x4 DUP5 PUSH1 0x40 MLOAD PUSH2 0xB58 SWAP2 SWAP1 PUSH2 0x14DE JUMP JUMPDEST SWAP1 DUP2 MSTORE PUSH1 0x40 DUP1 MLOAD PUSH1 0x20 SWAP3 DUP2 SWAP1 SUB DUP4 ADD SWAP1 KECCAK256 DUP1 SLOAD PUSH1 0x1 PUSH1 0x1 PUSH1 0xA0 SHL SUB NOT AND PUSH1 0x1 PUSH1 0x1 PUSH1 0xA0 SHL SUB SWAP5 DUP6 AND OR SWAP1 SSTORE SWAP2 DUP4 AND PUSH1 0x0 SWAP1 DUP2 MSTORE PUSH1 0x5 SWAP1 SWAP2 MSTORE DUP2 DUP2 KECCAK256 DUP1 SLOAD PUSH1 0xFF NOT AND PUSH1 0x1 OR SWAP1 SSTORE SWAP1 DUP4 ADD MLOAD DUP3 SWAP2 PUSH1 0x6 SWAP2 PUSH2 0xBB0 SWAP1 PUSH2 0xEB0 JUMP JUMPDEST DUP1 MLOAD PUSH1 0x20 SWAP2 DUP3 ADD KECCAK256 DUP3 MSTORE DUP2 ADD SWAP2 SWAP1 SWAP2 MSTORE PUSH1 0x40 SWAP1 DUP2 ADD PUSH1 0x0 KECCAK256 DUP1 SLOAD PUSH1 0x1 PUSH1 0x1 PUSH1 0xA0 SHL SUB NOT AND PUSH1 0x1 PUSH1 0x1 PUSH1 0xA0 SHL SUB SWAP4 DUP5 AND OR SWAP1 SSTORE MLOAD PUSH4 0x2663D1F7 PUSH1 0xE0 SHL DUP2 MSTORE DUP3 DUP3 AND PUSH1 0x4 DUP3 ADD MSTORE SWAP1 DUP6 AND SWAP1 PUSH4 0x2663D1F7 SWAP1 PUSH1 0x24 ADD PUSH1 0x0 PUSH1 0x40 MLOAD DUP1 DUP4 SUB DUP2 PUSH1 0x0 DUP8 DUP1 EXTCODESIZE ISZERO DUP1 ISZERO PUSH2 0xC1C JUMPI PUSH1 0x0 DUP1 REVERT JUMPDEST POP GAS CALL ISZERO DUP1 ISZERO PUSH2 0xC30 JUMPI RETURNDATASIZE PUSH1 0x0 DUP1 RETURNDATACOPY RETURNDATASIZE PUSH1 0x0 REVERT JUMPDEST POP POP CALLER PUSH1 0x0 SWAP1 DUP2 MSTORE PUSH1 0x5 PUSH1 0x20 MSTORE PUSH1 0x40 SWAP1 KECCAK256 DUP1 SLOAD PUSH1 0xFF NOT AND SWAP1 SSTORE POP PUSH2 0xC59 SWAP5 POP PUSH2 0xF13 SWAP4 POP POP POP POP JUMP JUMPDEST POP POP JUMP JUMPDEST PUSH1 0x0 DUP3 DUP2 MSTORE PUSH1 0x1 PUSH1 0x20 DUP2 SWAP1 MSTORE PUSH1 0x40 SWAP1 SWAP2 KECCAK256 ADD SLOAD PUSH2 0xC79 DUP2 PUSH2 0xD23 JUMP JUMPDEST PUSH2 0x2E4 DUP4 DUP4 PUSH2 0xDA9 JUMP JUMPDEST PUSH1 0x0 PUSH2 0xC8E DUP2 PUSH2 0xD23 JUMP JUMPDEST PUSH1 0x1 PUSH1 0x1 PUSH1 0xA0 SHL SUB DUP3 AND PUSH2 0xD00 JUMPI PUSH1 0x40 MLOAD PUSH3 0x461BCD PUSH1 0xE5 SHL DUP2 MSTORE PUSH1 0x20 PUSH1 0x4 DUP3 ADD MSTORE PUSH1 0x33 PUSH1 0x24 DUP3 ADD MSTORE PUSH32 0x436F6D70616E7952656769737472793A20776F726C6420726567697374727920 PUSH1 0x44 DUP3 ADD MSTORE PUSH19 0x616464726573732063616E6E6F74206265203 PUSH1 0x6C SHL PUSH1 0x64 DUP3 ADD MSTORE PUSH1 0x84 ADD PUSH2 0x394 JUMP JUMPDEST POP PUSH1 0x3 DUP1 SLOAD PUSH1 0x1 PUSH1 0x1 PUSH1 0xA0 SHL SUB NOT AND PUSH1 0x1 PUSH1 0x1 PUSH1 0xA0 SHL SUB SWAP3 SWAP1 SWAP3 AND SWAP2 SWAP1 SWAP2 OR SWAP1 SSTORE JUMP JUMPDEST PUSH2 0xD2D DUP2 CALLER PUSH2 0xF1A JUMP JUMPDEST POP JUMP JUMPDEST PUSH1 0x0 PUSH2 0xD3C DUP4 DUP4 PUSH2 0x3C0 JUMP JUMPDEST PUSH2 0xDA1 JUMPI PUSH1 0x0 DUP4 DUP2 MSTORE PUSH1 0x1 PUSH1 0x20 DUP2 DUP2 MSTORE PUSH1 0x40 DUP1 DUP5 KECCAK256 PUSH1 0x1 PUSH1 0x1 PUSH1 0xA0 SHL SUB DUP8 AND DUP1 DUP7 MSTORE SWAP3 MSTORE DUP1 DUP5 KECCAK256 DUP1 SLOAD PUSH1 0xFF NOT AND SWAP1 SWAP4 OR SWAP1 SWAP3 SSTORE SWAP1 MLOAD CALLER SWAP3 DUP7 SWAP2 PUSH32 0x2F8788117E7EFF1D82E926EC794901D17C78024A50270940304540A733656F0D SWAP2 SWAP1 LOG4 POP PUSH1 0x1 PUSH2 0x2B8 JUMP JUMPDEST POP PUSH1 0x0 PUSH2 0x2B8 JUMP JUMPDEST PUSH1 0x0 PUSH2 0xDB5 DUP4 DUP4 PUSH2 0x3C0 JUMP JUMPDEST ISZERO PUSH2 0xDA1 JUMPI PUSH1 0x0 DUP4 DUP2 MSTORE PUSH1 0x1 PUSH1 0x20 SWAP1 DUP2 MSTORE PUSH1 0x40 DUP1 DUP4 KECCAK256 PUSH1 0x1 PUSH1 0x1 PUSH1 0xA0 SHL SUB DUP7 AND DUP1 DUP6 MSTORE SWAP3 MSTORE DUP1 DUP4 KECCAK256 DUP1 SLOAD PUSH1 0xFF NOT AND SWAP1 SSTORE MLOAD CALLER SWAP3 DUP7 SWAP2 PUSH32 0xF6391F5C32D9C69D2A47EA670B442974B53935D1EDC7FD64EB21E047A839171B SWAP2 SWAP1 LOG4 POP PUSH1 0x1 PUSH2 0x2B8 JUMP JUMPDEST PUSH1 0x2 PUSH1 0x0 SLOAD SUB PUSH2 0xE39 JUMPI PUSH1 0x40 MLOAD PUSH4 0x3EE5AEB5 PUSH1 0xE0 SHL DUP2 MSTORE PUSH1 0x4 ADD PUSH1 0x40 MLOAD DUP1 SWAP2 SUB SWAP1 REVERT JUMPDEST PUSH1 0x2 PUSH1 0x0 SSTORE JUMP JUMPDEST PUSH1 0x60 DUP2 PUSH1 0x0 JUMPDEST DUP2 MLOAD DUP2 LT ISZERO PUSH2 0xEA9 JUMPI PUSH2 0xE78 DUP3 DUP3 DUP2 MLOAD DUP2 LT PUSH2 0xE64 JUMPI PUSH2 0xE64 PUSH2 0x1814 JUMP JUMPDEST ADD PUSH1 0x20 ADD MLOAD PUSH1 0x1 PUSH1 0x1 PUSH1 0xF8 SHL SUB NOT AND PUSH2 0xF53 JUMP JUMPDEST DUP3 DUP3 DUP2 MLOAD DUP2 LT PUSH2 0xE8A JUMPI PUSH2 0xE8A PUSH2 0x1814 JUMP JUMPDEST PUSH1 0x20 ADD ADD SWAP1 PUSH1 0x1 PUSH1 0x1 PUSH1 0xF8 SHL SUB NOT AND SWAP1 DUP2 PUSH1 0x0 BYTE SWAP1 MSTORE8 POP PUSH1 0x1 ADD PUSH2 0xE46 JUMP JUMPDEST POP SWAP3 SWAP2 POP POP JUMP JUMPDEST PUSH1 0x60 DUP2 PUSH1 0x0 ADD MLOAD DUP3 PUSH1 0x20 ADD MLOAD DUP4 PUSH1 0x40 ADD MLOAD PUSH2 0xECE DUP6 PUSH1 0x60 ADD MLOAD PUSH2 0xFA2 JUMP JUMPDEST PUSH2 0xEDB DUP7 PUSH1 0x80 ADD MLOAD PUSH2 0xFA2 JUMP JUMPDEST PUSH2 0xEE8 DUP8 PUSH1 0xA0 ADD MLOAD PUSH2 0xFA2 JUMP JUMPDEST PUSH1 0x40 MLOAD PUSH1 0x20 ADD PUSH2 0xEFD SWAP7 SWAP6 SWAP5 SWAP4 SWAP3 SWAP2 SWAP1 PUSH2 0x182A JUMP JUMPDEST PUSH1 0x40 MLOAD PUSH1 0x20 DUP2 DUP4 SUB SUB DUP2 MSTORE SWAP1 PUSH1 0x40 MSTORE SWAP1 POP SWAP2 SWAP1 POP JUMP JUMPDEST PUSH1 0x1 PUSH1 0x0 SSTORE JUMP JUMPDEST PUSH2 0xF24 DUP3 DUP3 PUSH2 0x3C0 JUMP JUMPDEST PUSH2 0xC59 JUMPI PUSH1 0x40 MLOAD PUSH4 0xE2517D3F PUSH1 0xE0 SHL DUP2 MSTORE PUSH1 0x1 PUSH1 0x1 PUSH1 0xA0 SHL SUB DUP3 AND PUSH1 0x4 DUP3 ADD MSTORE PUSH1 0x24 DUP2 ADD DUP4 SWAP1 MSTORE PUSH1 0x44 ADD PUSH2 0x394 JUMP JUMPDEST PUSH1 0x0 PUSH1 0x41 PUSH1 0xF8 SHL PUSH1 0x1 PUSH1 0x1 PUSH1 0xF8 SHL SUB NOT DUP4 AND LT DUP1 ISZERO SWAP1 PUSH2 0xF81 JUMPI POP PUSH1 0x2D PUSH1 0xF9 SHL PUSH1 0x1 PUSH1 0x1 PUSH1 0xF8 SHL SUB NOT DUP4 AND GT ISZERO JUMPDEST ISZERO PUSH2 0xF9E JUMPI PUSH2 0xF95 PUSH1 0xF8 DUP4 SWAP1 SHR PUSH1 0x20 PUSH2 0x18A9 JUMP JUMPDEST PUSH1 0xF8 SHL SWAP3 SWAP2 POP POP JUMP JUMPDEST POP SWAP1 JUMP JUMPDEST PUSH1 0x60 PUSH1 0x0 PUSH2 0xFAF DUP4 PUSH2 0x1035 JUMP JUMPDEST PUSH1 0x1 ADD SWAP1 POP PUSH1 0x0 DUP2 PUSH8 0xFFFFFFFFFFFFFFFF DUP2 GT ISZERO PUSH2 0xFCF JUMPI PUSH2 0xFCF PUSH2 0x11B9 JUMP JUMPDEST PUSH1 0x40 MLOAD SWAP1 DUP1 DUP3 MSTORE DUP1 PUSH1 0x1F ADD PUSH1 0x1F NOT AND PUSH1 0x20 ADD DUP3 ADD PUSH1 0x40 MSTORE DUP1 ISZERO PUSH2 0xFF9 JUMPI PUSH1 0x20 DUP3 ADD DUP2 DUP1 CALLDATASIZE DUP4 CALLDATACOPY ADD SWAP1 POP JUMPDEST POP SWAP1 POP DUP2 DUP2 ADD PUSH1 0x20 ADD JUMPDEST PUSH1 0x0 NOT ADD PUSH16 0x181899199A1A9B1B9C1CB0B131B232B3 PUSH1 0x81 SHL PUSH1 0xA DUP7 MOD BYTE DUP2 MSTORE8 PUSH1 0xA DUP6 DIV SWAP5 POP DUP5 PUSH2 0x1003 JUMPI POP SWAP4 SWAP3 POP POP POP JUMP JUMPDEST PUSH1 0x0 DUP1 PUSH19 0x184F03E93FF9F4DAA797ED6E38ED64BF6A1F01 PUSH1 0x40 SHL DUP4 LT PUSH2 0x1074 JUMPI PUSH19 0x184F03E93FF9F4DAA797ED6E38ED64BF6A1F01 PUSH1 0x40 SHL DUP4 DIV SWAP3 POP PUSH1 0x40 ADD JUMPDEST PUSH14 0x4EE2D6D415B85ACEF8100000000 DUP4 LT PUSH2 0x10A0 JUMPI PUSH14 0x4EE2D6D415B85ACEF8100000000 DUP4 DIV SWAP3 POP PUSH1 0x20 ADD JUMPDEST PUSH7 0x2386F26FC10000 DUP4 LT PUSH2 0x10BE JUMPI PUSH7 0x2386F26FC10000 DUP4 DIV SWAP3 POP PUSH1 0x10 ADD JUMPDEST PUSH4 0x5F5E100 DUP4 LT PUSH2 0x10D6 JUMPI PUSH4 0x5F5E100 DUP4 DIV SWAP3 POP PUSH1 0x8 ADD JUMPDEST PUSH2 0x2710 DUP4 LT PUSH2 0x10EA JUMPI PUSH2 0x2710 DUP4 DIV SWAP3 POP PUSH1 0x4 ADD JUMPDEST PUSH1 0x64 DUP4 LT PUSH2 0x10FC JUMPI PUSH1 0x64 DUP4 DIV SWAP3 POP PUSH1 0x2 ADD JUMPDEST PUSH1 0xA DUP4 LT PUSH2 0x2B8 JUMPI PUSH1 0x1 ADD SWAP3 SWAP2 POP POP JUMP JUMPDEST PUSH1 0x0 PUSH1 0x20 DUP3 DUP5 SUB SLT ISZERO PUSH2 0x111F JUMPI PUSH1 0x0 DUP1 REVERT JUMPDEST DUP2 CALLDATALOAD PUSH1 0x1 PUSH1 0x1 PUSH1 0xE0 SHL SUB NOT DUP2 AND DUP2 EQ PUSH2 0x1137 JUMPI PUSH1 0x0 DUP1 REVERT JUMPDEST SWAP4 SWAP3 POP POP POP JUMP JUMPDEST PUSH1 0x0 PUSH1 0x20 DUP3 DUP5 SUB SLT ISZERO PUSH2 0x1150 JUMPI PUSH1 0x0 DUP1 REVERT JUMPDEST POP CALLDATALOAD SWAP2 SWAP1 POP JUMP JUMPDEST PUSH1 0x1 PUSH1 0x1 PUSH1 0xA0 SHL SUB DUP2 AND DUP2 EQ PUSH2 0xD2D JUMPI PUSH1 0x0 DUP1 REVERT JUMPDEST PUSH1 0x0 DUP1 PUSH1 0x40 DUP4 DUP6 SUB SLT ISZERO PUSH2 0x117F JUMPI PUSH1 0x0 DUP1 REVERT JUMPDEST DUP3 CALLDATALOAD SWAP2 POP PUSH1 0x20 DUP4 ADD CALLDATALOAD PUSH2 0x1191 DUP2 PUSH2 0x1157 JUMP JUMPDEST DUP1 SWAP2 POP POP SWAP3 POP SWAP3 SWAP1 POP JUMP JUMPDEST PUSH1 0x0 PUSH1 0x20 DUP3 DUP5 SUB SLT ISZERO PUSH2 0x11AE JUMPI PUSH1 0x0 DUP1 REVERT JUMPDEST DUP2 CALLDATALOAD PUSH2 0x1137 DUP2 PUSH2 0x1157 JUMP JUMPDEST PUSH4 0x4E487B71 PUSH1 0xE0 SHL PUSH1 0x0 MSTORE PUSH1 0x41 PUSH1 0x4 MSTORE PUSH1 0x24 PUSH1 0x0 REVERT JUMPDEST PUSH1 0x40 MLOAD PUSH1 0x80 DUP2 ADD PUSH8 0xFFFFFFFFFFFFFFFF DUP2 GT DUP3 DUP3 LT OR ISZERO PUSH2 0x11F2 JUMPI PUSH2 0x11F2 PUSH2 0x11B9 JUMP JUMPDEST PUSH1 0x40 MSTORE SWAP1 JUMP JUMPDEST PUSH1 0x40 MLOAD PUSH1 0xC0 DUP2 ADD PUSH8 0xFFFFFFFFFFFFFFFF DUP2 GT DUP3 DUP3 LT OR ISZERO PUSH2 0x11F2 JUMPI PUSH2 0x11F2 PUSH2 0x11B9 JUMP JUMPDEST PUSH1 0x40 MLOAD PUSH1 0x1F DUP3 ADD PUSH1 0x1F NOT AND DUP2 ADD PUSH8 0xFFFFFFFFFFFFFFFF DUP2 GT DUP3 DUP3 LT OR ISZERO PUSH2 0x1244 JUMPI PUSH2 0x1244 PUSH2 0x11B9 JUMP JUMPDEST PUSH1 0x40 MSTORE SWAP2 SWAP1 POP JUMP JUMPDEST PUSH1 0x0 PUSH8 0xFFFFFFFFFFFFFFFF DUP3 GT ISZERO PUSH2 0x1266 JUMPI PUSH2 0x1266 PUSH2 0x11B9 JUMP JUMPDEST POP PUSH1 0x1F ADD PUSH1 0x1F NOT AND PUSH1 0x20 ADD SWAP1 JUMP JUMPDEST PUSH1 0x0 DUP3 PUSH1 0x1F DUP4 ADD SLT PUSH2 0x1285 JUMPI PUSH1 0x0 DUP1 REVERT JUMPDEST DUP2 CALLDATALOAD PUSH2 0x1298 PUSH2 0x1293 DUP3 PUSH2 0x124C JUMP JUMPDEST PUSH2 0x121B JUMP JUMPDEST DUP2 DUP2 MSTORE DUP5 PUSH1 0x20 DUP4 DUP7 ADD ADD GT ISZERO PUSH2 0x12AD JUMPI PUSH1 0x0 DUP1 REVERT JUMPDEST DUP2 PUSH1 0x20 DUP6 ADD PUSH1 0x20 DUP4 ADD CALLDATACOPY PUSH1 0x0 SWAP2 DUP2 ADD PUSH1 0x20 ADD SWAP2 SWAP1 SWAP2 MSTORE SWAP4 SWAP3 POP POP POP JUMP JUMPDEST PUSH1 0x0 PUSH1 0x20 DUP3 DUP5 SUB SLT ISZERO PUSH2 0x12DC JUMPI PUSH1 0x0 DUP1 REVERT JUMPDEST DUP2 CALLDATALOAD PUSH8 0xFFFFFFFFFFFFFFFF DUP1 DUP3 GT ISZERO PUSH2 0x12F4 JUMPI PUSH1 0x0 DUP1 REVERT JUMPDEST SWAP1 DUP4 ADD SWAP1 PUSH1 0x80 DUP3 DUP7 SUB SLT ISZERO PUSH2 0x1308 JUMPI PUSH1 0x0 DUP1 REVERT JUMPDEST PUSH2 0x1310 PUSH2 0x11CF JUMP JUMPDEST DUP3 CALLDATALOAD PUSH2 0x131B DUP2 PUSH2 0x1157 JUMP JUMPDEST DUP2 MSTORE PUSH1 0x20 DUP4 ADD CALLDATALOAD DUP3 DUP2 GT ISZERO PUSH2 0x132F JUMPI PUSH1 0x0 DUP1 REVERT JUMPDEST DUP4 ADD PUSH1 0xC0 DUP2 DUP9 SUB SLT ISZERO PUSH2 0x1341 JUMPI PUSH1 0x0 DUP1 REVERT JUMPDEST PUSH2 0x1349 PUSH2 0x11F8 JUMP JUMPDEST DUP2 CALLDATALOAD DUP5 DUP2 GT ISZERO PUSH2 0x1358 JUMPI PUSH1 0x0 DUP1 REVERT JUMPDEST PUSH2 0x1364 DUP10 DUP3 DUP6 ADD PUSH2 0x1274 JUMP JUMPDEST DUP3 MSTORE POP PUSH1 0x20 DUP3 ADD CALLDATALOAD DUP5 DUP2 GT ISZERO PUSH2 0x1379 JUMPI PUSH1 0x0 DUP1 REVERT JUMPDEST PUSH2 0x1385 DUP10 DUP3 DUP6 ADD PUSH2 0x1274 JUMP JUMPDEST PUSH1 0x20 DUP4 ADD MSTORE POP PUSH1 0x40 DUP3 ADD CALLDATALOAD DUP5 DUP2 GT ISZERO PUSH2 0x139D JUMPI PUSH1 0x0 DUP1 REVERT JUMPDEST PUSH2 0x13A9 DUP10 DUP3 DUP6 ADD PUSH2 0x1274 JUMP JUMPDEST PUSH1 0x40 DUP4 ADD MSTORE POP PUSH1 0x60 DUP3 ADD CALLDATALOAD PUSH1 0x60 DUP3 ADD MSTORE PUSH1 0x80 DUP3 ADD CALLDATALOAD PUSH1 0x80 DUP3 ADD MSTORE PUSH1 0xA0 DUP3 ADD CALLDATALOAD PUSH1 0xA0 DUP3 ADD MSTORE DUP1 PUSH1 0x20 DUP5 ADD MSTORE POP POP PUSH1 0x40 DUP4 ADD CALLDATALOAD DUP3 DUP2 GT ISZERO PUSH2 0x13E7 JUMPI PUSH1 0x0 DUP1 REVERT JUMPDEST PUSH2 0x13F3 DUP8 DUP3 DUP7 ADD PUSH2 0x1274 JUMP JUMPDEST PUSH1 0x40 DUP4 ADD MSTORE POP PUSH1 0x60 DUP4 ADD CALLDATALOAD DUP3 DUP2 GT ISZERO PUSH2 0x140B JUMPI PUSH1 0x0 DUP1 REVERT JUMPDEST PUSH2 0x1417 DUP8 DUP3 DUP7 ADD PUSH2 0x1274 JUMP JUMPDEST PUSH1 0x60 DUP4 ADD MSTORE POP SWAP6 SWAP5 POP POP POP POP POP JUMP JUMPDEST PUSH1 0x0 DUP1 PUSH1 0x20 DUP4 DUP6 SUB SLT ISZERO PUSH2 0x1439 JUMPI PUSH1 0x0 DUP1 REVERT JUMPDEST DUP3 CALLDATALOAD PUSH8 0xFFFFFFFFFFFFFFFF DUP1 DUP3 GT ISZERO PUSH2 0x1451 JUMPI PUSH1 0x0 DUP1 REVERT JUMPDEST DUP2 DUP6 ADD SWAP2 POP DUP6 PUSH1 0x1F DUP4 ADD SLT PUSH2 0x1465 JUMPI PUSH1 0x0 DUP1 REVERT JUMPDEST DUP2 CALLDATALOAD DUP2 DUP2 GT ISZERO PUSH2 0x1474 JUMPI PUSH1 0x0 DUP1 REVERT JUMPDEST DUP7 PUSH1 0x20 DUP3 DUP6 ADD ADD GT ISZERO PUSH2 0x1486 JUMPI PUSH1 0x0 DUP1 REVERT JUMPDEST PUSH1 0x20 SWAP3 SWAP1 SWAP3 ADD SWAP7 SWAP2 SWAP6 POP SWAP1 SWAP4 POP POP POP POP JUMP JUMPDEST PUSH1 0x0 PUSH1 0x20 DUP3 DUP5 SUB SLT ISZERO PUSH2 0x14AA JUMPI PUSH1 0x0 DUP1 REVERT JUMPDEST DUP2 MLOAD DUP1 ISZERO ISZERO DUP2 EQ PUSH2 0x1137 JUMPI PUSH1 0x0 DUP1 REVERT JUMPDEST PUSH1 0x0 JUMPDEST DUP4 DUP2 LT ISZERO PUSH2 0x14D5 JUMPI DUP2 DUP2 ADD MLOAD DUP4 DUP3 ADD MSTORE PUSH1 0x20 ADD PUSH2 0x14BD JUMP JUMPDEST POP POP PUSH1 0x0 SWAP2 ADD MSTORE JUMP JUMPDEST PUSH1 0x0 DUP3 MLOAD PUSH2 0x14F0 DUP2 DUP5 PUSH1 0x20 DUP8 ADD PUSH2 0x14BA JUMP JUMPDEST SWAP2 SWAP1 SWAP2 ADD SWAP3 SWAP2 POP POP JUMP JUMPDEST PUSH1 0x0 DUP2 MLOAD DUP1 DUP5 MSTORE PUSH2 0x1512 DUP2 PUSH1 0x20 DUP7 ADD PUSH1 0x20 DUP7 ADD PUSH2 0x14BA JUMP JUMPDEST PUSH1 0x1F ADD PUSH1 0x1F NOT AND SWAP3 SWAP1 SWAP3 ADD PUSH1 0x20 ADD SWAP3 SWAP2 POP POP JUMP JUMPDEST PUSH1 0x20 DUP2 MSTORE PUSH1 0x0 PUSH1 0x1 DUP1 PUSH1 0xA0 SHL SUB DUP1 DUP5 MLOAD AND PUSH1 0x20 DUP5 ADD MSTORE DUP1 PUSH1 0x20 DUP6 ADD MLOAD AND PUSH1 0x40 DUP5 ADD MSTORE POP PUSH1 0x40 DUP4 ADD MLOAD PUSH1 0xA0 PUSH1 0x60 DUP5 ADD MSTORE DUP1 MLOAD PUSH1 0xC0 DUP1 DUP6 ADD MSTORE PUSH2 0x156B PUSH2 0x180 DUP6 ADD DUP3 PUSH2 0x14FA JUMP JUMPDEST SWAP1 POP PUSH1 0x20 DUP3 ADD MLOAD PUSH1 0xBF NOT DUP1 DUP7 DUP5 SUB ADD PUSH1 0xE0 DUP8 ADD MSTORE PUSH2 0x1589 DUP4 DUP4 PUSH2 0x14FA JUMP JUMPDEST SWAP3 POP PUSH1 0x40 DUP5 ADD MLOAD SWAP2 POP DUP1 DUP7 DUP5 SUB ADD PUSH2 0x100 DUP8 ADD MSTORE POP PUSH2 0x15A8 DUP3 DUP3 PUSH2 0x14FA JUMP JUMPDEST SWAP2 POP POP PUSH1 0x60 DUP3 ADD MLOAD PUSH2 0x120 DUP6 ADD MSTORE PUSH1 0x80 DUP3 ADD MLOAD PUSH2 0x140 DUP6 ADD MSTORE PUSH1 0xA0 DUP3 ADD MLOAD PUSH2 0x160 DUP6 ADD MSTORE PUSH1 0x60 DUP6 ADD MLOAD SWAP2 POP PUSH1 0x1F NOT DUP1 DUP6 DUP4 SUB ADD PUSH1 0x80 DUP7 ADD MSTORE PUSH2 0x15EA DUP3 DUP5 PUSH2 0x14FA JUMP JUMPDEST SWAP3 POP PUSH1 0x80 DUP7 ADD MLOAD SWAP2 POP DUP1 DUP6 DUP5 SUB ADD PUSH1 0xA0 DUP7 ADD MSTORE POP PUSH2 0x1608 DUP3 DUP3 PUSH2 0x14FA JUMP JUMPDEST SWAP6 SWAP5 POP POP POP POP POP JUMP JUMPDEST PUSH1 0x0 PUSH1 0x20 DUP3 DUP5 SUB SLT ISZERO PUSH2 0x1623 JUMPI PUSH1 0x0 DUP1 REVERT JUMPDEST DUP2 MLOAD PUSH2 0x1137 DUP2 PUSH2 0x1157 JUMP JUMPDEST PUSH1 0x0 DUP3 MLOAD DUP1 MLOAD PUSH2 0x1642 DUP2 DUP6 PUSH1 0x20 DUP6 ADD PUSH2 0x14BA JUMP JUMPDEST PUSH1 0x1F NOT SWAP2 POP DUP2 PUSH1 0x1F DUP3 ADD AND DUP5 ADD SWAP1 POP PUSH1 0x20 DUP6 ADD MLOAD DUP1 MLOAD PUSH2 0x1666 DUP2 DUP5 PUSH1 0x20 DUP6 ADD PUSH2 0x14BA JUMP JUMPDEST DUP4 PUSH1 0x1F DUP3 ADD AND DUP4 ADD SWAP3 POP POP POP PUSH1 0x40 DUP6 ADD MLOAD DUP1 MLOAD PUSH2 0x1687 DUP2 DUP5 PUSH1 0x20 DUP6 ADD PUSH2 0x14BA JUMP JUMPDEST DUP4 PUSH1 0x1F DUP3 ADD AND DUP4 ADD SWAP4 POP POP POP POP PUSH1 0x60 DUP5 ADD MLOAD DUP2 MSTORE PUSH1 0x80 DUP5 ADD MLOAD PUSH1 0x20 DUP3 ADD MSTORE PUSH1 0xA0 DUP5 ADD MLOAD PUSH1 0x40 DUP3 ADD MSTORE PUSH1 0x60 DUP2 ADD SWAP2 POP POP SWAP3 SWAP2 POP POP JUMP JUMPDEST PUSH1 0x0 DUP3 PUSH1 0x1F DUP4 ADD SLT PUSH2 0x16CD JUMPI PUSH1 0x0 DUP1 REVERT JUMPDEST DUP2 MLOAD PUSH2 0x16DB PUSH2 0x1293 DUP3 PUSH2 0x124C JUMP JUMPDEST DUP2 DUP2 MSTORE DUP5 PUSH1 0x20 DUP4 DUP7 ADD ADD GT ISZERO PUSH2 0x16F0 JUMPI PUSH1 0x0 DUP1 REVERT JUMPDEST PUSH2 0x1701 DUP3 PUSH1 0x20 DUP4 ADD PUSH1 0x20 DUP8 ADD PUSH2 0x14BA JUMP JUMPDEST SWAP5 SWAP4 POP POP POP POP JUMP JUMPDEST PUSH1 0x0 PUSH1 0x20 DUP3 DUP5 SUB SLT ISZERO PUSH2 0x171B JUMPI PUSH1 0x0 DUP1 REVERT JUMPDEST DUP2 MLOAD PUSH8 0xFFFFFFFFFFFFFFFF DUP2 GT ISZERO PUSH2 0x1732 JUMPI PUSH1 0x0 DUP1 REVERT JUMPDEST PUSH2 0x1701 DUP5 DUP3 DUP6 ADD PUSH2 0x16BC JUMP JUMPDEST PUSH1 0x0 PUSH1 0x20 DUP3 DUP5 SUB SLT ISZERO PUSH2 0x1750 JUMPI PUSH1 0x0 DUP1 REVERT JUMPDEST DUP2 MLOAD PUSH8 0xFFFFFFFFFFFFFFFF DUP1 DUP3 GT ISZERO PUSH2 0x1768 JUMPI PUSH1 0x0 DUP1 REVERT JUMPDEST SWAP1 DUP4 ADD SWAP1 PUSH1 0xC0 DUP3 DUP7 SUB SLT ISZERO PUSH2 0x177C JUMPI PUSH1 0x0 DUP1 REVERT JUMPDEST PUSH2 0x1784 PUSH2 0x11F8 JUMP JUMPDEST DUP3 MLOAD DUP3 DUP2 GT ISZERO PUSH2 0x1793 JUMPI PUSH1 0x0 DUP1 REVERT JUMPDEST PUSH2 0x179F DUP8 DUP3 DUP7 ADD PUSH2 0x16BC JUMP JUMPDEST DUP3 MSTORE POP PUSH1 0x20 DUP4 ADD MLOAD DUP3 DUP2 GT ISZERO PUSH2 0x17B4 JUMPI PUSH1 0x0 DUP1 REVERT JUMPDEST PUSH2 0x17C0 DUP8 DUP3 DUP7 ADD PUSH2 0x16BC JUMP JUMPDEST PUSH1 0x20 DUP4 ADD MSTORE POP PUSH1 0x40 DUP4 ADD MLOAD DUP3 DUP2 GT ISZERO PUSH2 0x17D8 JUMPI PUSH1 0x0 DUP1 REVERT JUMPDEST PUSH2 0x17E4 DUP8 DUP3 DUP7 ADD PUSH2 0x16BC JUMP JUMPDEST PUSH1 0x40 DUP4 ADD MSTORE POP PUSH1 0x60 DUP4 ADD MLOAD PUSH1 0x60 DUP3 ADD MSTORE PUSH1 0x80 DUP4 ADD MLOAD PUSH1 0x80 DUP3 ADD MSTORE PUSH1 0xA0 DUP4 ADD MLOAD PUSH1 0xA0 DUP3 ADD MSTORE DUP1 SWAP4 POP POP POP POP SWAP3 SWAP2 POP POP JUMP JUMPDEST PUSH4 0x4E487B71 PUSH1 0xE0 SHL PUSH1 0x0 MSTORE PUSH1 0x32 PUSH1 0x4 MSTORE PUSH1 0x24 PUSH1 0x0 REVERT JUMPDEST PUSH1 0x0 DUP8 MLOAD PUSH1 0x20 PUSH2 0x183D DUP3 DUP6 DUP4 DUP14 ADD PUSH2 0x14BA JUMP JUMPDEST DUP9 MLOAD SWAP2 DUP5 ADD SWAP2 PUSH2 0x1850 DUP2 DUP5 DUP5 DUP14 ADD PUSH2 0x14BA JUMP JUMPDEST DUP9 MLOAD SWAP3 ADD SWAP2 PUSH2 0x1862 DUP2 DUP5 DUP5 DUP13 ADD PUSH2 0x14BA JUMP JUMPDEST DUP8 MLOAD SWAP3 ADD SWAP2 PUSH2 0x1874 DUP2 DUP5 DUP5 DUP12 ADD PUSH2 0x14BA JUMP JUMPDEST DUP7 MLOAD SWAP3 ADD SWAP2 PUSH2 0x1886 DUP2 DUP5 DUP5 DUP11 ADD PUSH2 0x14BA JUMP JUMPDEST DUP6 MLOAD SWAP3 ADD SWAP2 PUSH2 0x1898 DUP2 DUP5 DUP5 DUP10 ADD PUSH2 0x14BA JUMP JUMPDEST SWAP2 SWAP1 SWAP2 ADD SWAP10 SWAP9 POP POP POP POP POP POP POP POP POP JUMP JUMPDEST PUSH1 0xFF DUP2 DUP2 AND DUP4 DUP3 AND ADD SWAP1 DUP2 GT ISZERO PUSH2 0x2B8 JUMPI PUSH4 0x4E487B71 PUSH1 0xE0 SHL PUSH1 0x0 MSTORE PUSH1 0x11 PUSH1 0x4 MSTORE PUSH1 0x24 PUSH1 0x0 REVERT INVALID LOG2 PUSH5 0x6970667358 0x22 SLT KECCAK256 PUSH23 0xD77E15064C4D6212E2FDCB919AA748218E35C41D4ED645 0xE2 0xD5 PUSH14 0xAF6329471264736F6C6343000818 STOP CALLER LOG4 SWAP9 SMOD KECCAK256 TLOAD 0xE4 0xD3 SSTORE MULMOD 0x2E CREATE2 0xA8 LOG1 DUP16 JUMP 0xE8 SWAP2 EXTCODECOPY DELEGATECALL LOG2 ADD 0xFB 0xE2 DUP8 DUP3 JUMPDEST MULMOD JUMP SWAP4 0xC2 OR PUSH22 0x0 "},"methodIdentifiers":{"ADMIN_ROLE()":"75b238fc","DEFAULT_ADMIN_ROLE()":"a217fddf","companyFactory()":"dc1c44be","getRoleAdmin(bytes32)":"248a9ca3","grantRole(bytes32,address)":"2f2ff15d","hasRole(bytes32,address)":"91d14854","isRegisteredCompany(address)":"90159c94","registerCompany((address,(string,string,string,uint256,uint256,uint256),bytes,string))":"cb70d6c4","renounceRole(bytes32,address)":"36568abe","revokeRole(bytes32,address)":"d547741f","setCompanyFactory(address)":"82c154e0","setWorldRegistry(address)":"e237fbad","supportsInterface(bytes4)":"01ffc9a7","upgradeCompany(bytes)":"d449cf25","worldRegistry()":"911c2a8c"}}}}}