{"contracts/world/v0.2/WorldRegistryV2.sol":{"WorldRegistryV2":{"abi":[{"inputs":[{"components":[{"internalType":"address","name":"vectorAuthority","type":"address"},{"internalType":"address","name":"worldFactory","type":"address"},{"internalType":"address","name":"registrarRegistry","type":"address"},{"internalType":"address","name":"defaultAdmin","type":"address"},{"internalType":"address","name":"oldWorldRegistry","type":"address"},{"internalType":"address[]","name":"otherAdmins","type":"address[]"}],"internalType":"struct WorldRegistryContructorArgs","name":"args","type":"tuple"}],"stateMutability":"nonpayable","type":"constructor"},{"inputs":[],"name":"AccessControlBadConfirmation","type":"error"},{"inputs":[{"internalType":"address","name":"account","type":"address"},{"internalType":"bytes32","name":"neededRole","type":"bytes32"}],"name":"AccessControlUnauthorizedAccount","type":"error"},{"inputs":[],"name":"ECDSAInvalidSignature","type":"error"},{"inputs":[{"internalType":"uint256","name":"length","type":"uint256"}],"name":"ECDSAInvalidSignatureLength","type":"error"},{"inputs":[{"internalType":"bytes32","name":"s","type":"bytes32"}],"name":"ECDSAInvalidSignatureS","type":"error"},{"inputs":[],"name":"ReentrancyGuardReentrantCall","type":"error"},{"anonymous":false,"inputs":[{"indexed":true,"internalType":"bytes32","name":"role","type":"bytes32"},{"indexed":true,"internalType":"bytes32","name":"previousAdminRole","type":"bytes32"},{"indexed":true,"internalType":"bytes32","name":"newAdminRole","type":"bytes32"}],"name":"RoleAdminChanged","type":"event"},{"anonymous":false,"inputs":[{"indexed":true,"internalType":"bytes32","name":"role","type":"bytes32"},{"indexed":true,"internalType":"address","name":"account","type":"address"},{"indexed":true,"internalType":"address","name":"sender","type":"address"}],"name":"RoleGranted","type":"event"},{"anonymous":false,"inputs":[{"indexed":true,"internalType":"bytes32","name":"role","type":"bytes32"},{"indexed":true,"internalType":"address","name":"account","type":"address"},{"indexed":true,"internalType":"address","name":"sender","type":"address"}],"name":"RoleRevoked","type":"event"},{"anonymous":false,"inputs":[{"indexed":true,"internalType":"address","name":"authority","type":"address"}],"name":"VectorAddressAuthorityAdded","type":"event"},{"anonymous":false,"inputs":[{"indexed":true,"internalType":"address","name":"authority","type":"address"}],"name":"VectorAddressAuthorityRemoved","type":"event"},{"anonymous":false,"inputs":[{"indexed":true,"internalType":"address","name":"world","type":"address"},{"indexed":true,"internalType":"address","name":"owner","type":"address"},{"components":[{"internalType":"string","name":"x","type":"string"},{"internalType":"string","name":"y","type":"string"},{"internalType":"string","name":"z","type":"string"},{"internalType":"uint256","name":"t","type":"uint256"},{"internalType":"uint256","name":"p","type":"uint256"},{"internalType":"uint256","name":"p_sub","type":"uint256"}],"indexed":false,"internalType":"struct VectorAddress","name":"vectorAddress","type":"tuple"}],"name":"WorldRegistered","type":"event"},{"inputs":[],"name":"ADMIN_ROLE","outputs":[{"internalType":"bytes32","name":"","type":"bytes32"}],"stateMutability":"view","type":"function"},{"inputs":[],"name":"DEFAULT_ADMIN_ROLE","outputs":[{"internalType":"bytes32","name":"","type":"bytes32"}],"stateMutability":"view","type":"function"},{"inputs":[],"name":"VECTOR_AUTHORITY_ROLE","outputs":[{"internalType":"bytes32","name":"","type":"bytes32"}],"stateMutability":"view","type":"function"},{"inputs":[{"internalType":"address","name":"auth","type":"address"}],"name":"addVectorAddressAuthority","outputs":[],"stateMutability":"nonpayable","type":"function"},{"inputs":[],"name":"currentWorldVersion","outputs":[{"internalType":"string","name":"","type":"string"}],"stateMutability":"view","type":"function"},{"inputs":[{"internalType":"bytes32","name":"role","type":"bytes32"}],"name":"getRoleAdmin","outputs":[{"internalType":"bytes32","name":"","type":"bytes32"}],"stateMutability":"view","type":"function"},{"inputs":[{"internalType":"string","name":"name","type":"string"}],"name":"getWorldByName","outputs":[{"internalType":"address","name":"","type":"address"}],"stateMutability":"view","type":"function"},{"inputs":[{"internalType":"bytes32","name":"role","type":"bytes32"},{"internalType":"address","name":"account","type":"address"}],"name":"grantRole","outputs":[],"stateMutability":"nonpayable","type":"function"},{"inputs":[{"internalType":"bytes32","name":"role","type":"bytes32"},{"internalType":"address","name":"account","type":"address"}],"name":"hasRole","outputs":[{"internalType":"bool","name":"","type":"bool"}],"stateMutability":"view","type":"function"},{"inputs":[{"internalType":"address","name":"auth","type":"address"}],"name":"isVectorAddressAuthority","outputs":[{"internalType":"bool","name":"","type":"bool"}],"stateMutability":"view","type":"function"},{"inputs":[{"internalType":"address","name":"world","type":"address"}],"name":"isWorld","outputs":[{"internalType":"bool","name":"","type":"bool"}],"stateMutability":"view","type":"function"},{"inputs":[],"name":"previousRegistry","outputs":[{"internalType":"contract IWorldRegistryV1","name":"","type":"address"}],"stateMutability":"view","type":"function"},{"inputs":[{"components":[{"internalType":"bool","name":"sendTokensToWorldOwner","type":"bool"},{"internalType":"address","name":"oldWorld","type":"address"},{"internalType":"address","name":"owner","type":"address"},{"components":[{"internalType":"string","name":"x","type":"string"},{"internalType":"string","name":"y","type":"string"},{"internalType":"string","name":"z","type":"string"},{"internalType":"uint256","name":"t","type":"uint256"},{"internalType":"uint256","name":"p","type":"uint256"},{"internalType":"uint256","name":"p_sub","type":"uint256"}],"internalType":"struct VectorAddress","name":"baseVector","type":"tuple"},{"internalType":"string","name":"name","type":"string"},{"internalType":"uint256","name":"registrarId","type":"uint256"},{"internalType":"bytes","name":"initData","type":"bytes"},{"internalType":"bytes","name":"vectorAuthoritySignature","type":"bytes"}],"internalType":"struct WorldRegistrationRequest","name":"request","type":"tuple"}],"name":"register","outputs":[],"stateMutability":"payable","type":"function"},{"inputs":[],"name":"registrarRegistry","outputs":[{"internalType":"contract IRegistrarRegistry","name":"","type":"address"}],"stateMutability":"view","type":"function"},{"inputs":[{"internalType":"uint256","name":"registrarId","type":"uint256"},{"internalType":"address","name":"oldWorld","type":"address"},{"internalType":"bytes","name":"initData","type":"bytes"}],"name":"registrarUpgradeWorld","outputs":[],"stateMutability":"nonpayable","type":"function"},{"inputs":[{"internalType":"address","name":"auth","type":"address"}],"name":"removeVectorAddressAuthority","outputs":[],"stateMutability":"nonpayable","type":"function"},{"inputs":[{"internalType":"bytes32","name":"role","type":"bytes32"},{"internalType":"address","name":"callerConfirmation","type":"address"}],"name":"renounceRole","outputs":[],"stateMutability":"nonpayable","type":"function"},{"inputs":[{"internalType":"bytes32","name":"role","type":"bytes32"},{"internalType":"address","name":"account","type":"address"}],"name":"revokeRole","outputs":[],"stateMutability":"nonpayable","type":"function"},{"inputs":[{"internalType":"string","name":"version","type":"string"}],"name":"setCurrentWorldVersion","outputs":[],"stateMutability":"nonpayable","type":"function"},{"inputs":[{"internalType":"address","name":"factory","type":"address"}],"name":"setWorldFactory","outputs":[],"stateMutability":"nonpayable","type":"function"},{"inputs":[{"internalType":"bytes4","name":"interfaceId","type":"bytes4"}],"name":"supportsInterface","outputs":[{"internalType":"bool","name":"","type":"bool"}],"stateMutability":"view","type":"function"},{"inputs":[],"name":"vectorAuthority","outputs":[{"internalType":"address","name":"","type":"address"}],"stateMutability":"view","type":"function"},{"inputs":[],"name":"worldFactory","outputs":[{"internalType":"contract IWorldFactoryV2","name":"","type":"address"}],"stateMutability":"view","type":"function"},{"inputs":[{"internalType":"bytes","name":"initData","type":"bytes"}],"name":"worldUpgradeSelf","outputs":[],"stateMutability":"nonpayable","type":"function"},{"stateMutability":"payable","type":"receive"}],"evm":{"bytecode":{"linkReferences":{},"object":"60c0604052600360809081526218171960e91b60a0526009906200002490826200052d565b503480156200003257600080fd5b506040516200311438038062003114833981016040819052620000559162000674565b600160005580516001600160a01b0316620000cf5760405162461bcd60e51b815260206004820152602f60248201527f576f726c645265676973747279305f323a20766563746f72417574686f72697460448201526e0792063616e6e6f742062652030783608c1b60648201526084015b60405180910390fd5b60208101516001600160a01b0316620001405760405162461bcd60e51b815260206004820152602c60248201527f576f726c645265676973747279305f323a20776f726c64466163746f7279206360448201526b0616e6e6f74206265203078360a41b6064820152608401620000c6565b60608101516001600160a01b0316620001b15760405162461bcd60e51b815260206004820152602c60248201527f576f726c645265676973747279305f323a2064656661756c7441646d696e206360448201526b0616e6e6f74206265203078360a41b6064820152608401620000c6565b60408101516001600160a01b0316620002275760405162461bcd60e51b815260206004820152603160248201527f576f726c645265676973747279305f323a20726567697374726172526567697360448201527007472792063616e6e6f742062652030783607c1b6064820152608401620000c6565b8051600280546001600160a01b039283166001600160a01b03199182161790915560208301516003805491841691831691909117905560808301516004805491841691831691909117905560408301516005805491909316911617905560608101516200029790600090620003ef565b50620002bd600080516020620030f48339815191528260600151620003ef60201b60201c565b508051620002ed907f2758c8c5d77b29e60fffbf4a2bcb0fc98a947bd2a0dead06fdc32cd3cef1168d90620003ef565b5060005b8160a0015151811015620003e75760006001600160a01b03168260a001518281518110620003235762000323620007bd565b60200260200101516001600160a01b0316036200039c5760405162461bcd60e51b815260206004820152603060248201527f576f726c645265676973747279305f323a206f7468657241646d696e7320636160448201526f06e6e6f7420636f6e7461696e203078360841b6064820152608401620000c6565b620003dd600080516020620030f48339815191528360a001518381518110620003c957620003c9620007bd565b6020026020010151620003ef60201b60201c565b50600101620002f1565b5050620007d3565b60008281526001602090815260408083206001600160a01b038516845290915281205460ff166200047c5760008381526001602081815260408084206001600160a01b0387168086529252808420805460ff19169093179092559051339286917f2f8788117e7eff1d82e926ec794901d17c78024a50270940304540a733656f0d9190a450600162000480565b5060005b92915050565b634e487b7160e01b600052604160045260246000fd5b600181811c90821680620004b157607f821691505b602082108103620004d257634e487b7160e01b600052602260045260246000fd5b50919050565b601f82111562000528576000816000526020600020601f850160051c81016020861015620005035750805b601f850160051c820191505b8181101562000524578281556001016200050f565b5050505b505050565b81516001600160401b0381111562000549576200054962000486565b62000561816200055a84546200049c565b84620004d8565b602080601f831160018114620005995760008415620005805750858301515b600019600386901b1c1916600185901b17855562000524565b600085815260208120601f198616915b82811015620005ca57888601518255948401946001909101908401620005a9565b5085821015620005e95787850151600019600388901b60f8161c191681555b5050505050600190811b01905550565b60405160c081016001600160401b03811182821017156200061e576200061e62000486565b60405290565b604051601f8201601f191681016001600160401b03811182821017156200064f576200064f62000486565b604052919050565b80516001600160a01b03811681146200066f57600080fd5b919050565b600060208083850312156200068857600080fd5b82516001600160401b0380821115620006a057600080fd5b9084019060c08287031215620006b557600080fd5b620006bf620005f9565b620006ca8362000657565b8152620006d984840162000657565b84820152620006eb6040840162000657565b6040820152620006fe6060840162000657565b6060820152620007116080840162000657565b608082015260a0830151828111156200072957600080fd5b80840193505086601f8401126200073f57600080fd5b82518281111562000754576200075462000486565b8060051b92506200076785840162000624565b81815292840185019285810190898511156200078257600080fd5b948601945b84861015620007ab576200079b8662000657565b8252948601949086019062000787565b60a08401525090979650505050505050565b634e487b7160e01b600052603260045260246000fd5b61291180620007e36000396000f3fe60806040526004361061014f5760003560e01c80638f51aa6d116100b6578063b7722c7f1161006f578063b7722c7f146103d7578063d547741f146103f7578063db8d746614610417578063dbdc4e6214610437578063e3ffb4bf14610457578063f0ad0f3e1461047757600080fd5b80638f51aa6d1461032f57806391d148541461034f578063933b415b1461036f578063968638df14610382578063a217fddf146103a2578063a7b9af23146103b757600080fd5b80632f2ff15d116101085780632f2ff15d1461026b57806336568abe1461028b57806337959c2d146102ab57806368f52a97146102cd5780636d80bf31146102ed57806375b238fc1461030d57600080fd5b806301ffc9a71461015b5780630c743051146101905780630dc3897d146101b257806311022380146101ea578063248a9ca31461020a5780632ef7579b1461024957600080fd5b3661015657005b600080fd5b34801561016757600080fd5b5061017b610176366004611cca565b6104b0565b60405190151581526020015b60405180910390f35b34801561019c57600080fd5b506101a56104e7565b6040516101879190611d4b565b3480156101be57600080fd5b506003546101d2906001600160a01b031681565b6040516001600160a01b039091168152602001610187565b3480156101f657600080fd5b506004546101d2906001600160a01b031681565b34801561021657600080fd5b5061023b610225366004611d5e565b6000908152600160208190526040909120015490565b604051908152602001610187565b34801561025557600080fd5b50610269610264366004611de4565b610575565b005b34801561027757600080fd5b50610269610286366004611e3f565b610aef565b34801561029757600080fd5b506102696102a6366004611e3f565b610b1b565b3480156102b757600080fd5b5061023b60008051602061289c83398151915281565b3480156102d957600080fd5b506102696102e8366004611e6f565b610b53565b3480156102f957600080fd5b5061017b610308366004611e6f565b610c0f565b34801561031957600080fd5b5061023b6000805160206128bc83398151915281565b34801561033b57600080fd5b5061026961034a366004611e8c565b610c29565b34801561035b57600080fd5b5061017b61036a366004611e3f565b610d1a565b61026961037d3660046120a5565b610d45565b34801561038e57600080fd5b506002546101d2906001600160a01b031681565b3480156103ae57600080fd5b5061023b600081565b3480156103c357600080fd5b506102696103d23660046121bb565b6114a3565b3480156103e357600080fd5b506101d26103f23660046121bb565b6114e3565b34801561040357600080fd5b50610269610412366004611e3f565b61151c565b34801561042357600080fd5b50610269610432366004611e6f565b611542565b34801561044357600080fd5b506005546101d2906001600160a01b031681565b34801561046357600080fd5b50610269610472366004611e6f565b6115b4565b34801561048357600080fd5b5061017b610492366004611e6f565b6001600160a01b031660009081526007602052604090205460ff1690565b60006001600160e01b03198216637965db0b60e01b14806104e157506301ffc9a760e01b6001600160e01b03198316145b92915050565b600980546104f4906121f7565b80601f0160208091040260200160405190810160405280929190818152602001828054610520906121f7565b801561056d5780601f106105425761010080835404028352916020019161056d565b820191906000526020600020905b81548152906001019060200180831161055057829003601f168201915b505050505081565b600554604051638c9d518f60e01b81526004810186905233602482015285916001600160a01b031690638c9d518f90604401602060405180830381865afa1580156105c4573d6000803e3d6000fd5b505050506040513d601f19601f820116820180604052508101906105e89190612231565b61060d5760405162461bcd60e51b81526004016106049061224e565b60405180910390fd5b610615611626565b60048054604051637856879f60e11b81526001600160a01b038781169382019390935291169063f0ad0f3e90602401602060405180830381865afa158015610661573d6000803e3d6000fd5b505050506040513d601f19601f820116820180604052508101906106859190612231565b6107085760405162461bcd60e51b815260206004820152604860248201527f576f726c645265676973747279305f323a206f6c64576f726c64206973206e6f60448201527f7420612076616c696420776f726c64207570677261646561626c65206279207260648201526732b3b4b9ba3930b960c11b608482015260a401610604565b600084905060006040518060a00160405280836001600160a01b031663893d20e86040518163ffffffff1660e01b8152600401602060405180830381865afa158015610758573d6000803e3d6000fd5b505050506040513d601f19601f8201168201806040525081019061077c919061229f565b6001600160a01b03168152602001876001600160a01b03168152602001836001600160a01b031663382af56d6040518163ffffffff1660e01b8152600401600060405180830381865afa1580156107d7573d6000803e3d6000fd5b505050506040513d6000823e601f3d908101601f191682016040526107ff9190810190612301565b8152602001610872846001600160a01b03166317d7de7c6040518163ffffffff1660e01b8152600401600060405180830381865afa158015610845573d6000803e3d6000fd5b505050506040513d6000823e601f3d908101601f1916820160405261086d91908101906123d6565b611650565b815260200186868080601f016020809104026020016040519081016040528093929190818152602001838380828437600092018290525093909452505060035460405163082f91ff60e41b815293945090926001600160a01b0390911691506382f91ff0906108e590859060040161247d565b6020604051808303816000875af1158015610904573d6000803e3d6000fd5b505050506040513d601f19601f82011682018060405250810190610928919061229f565b90506001600160a01b0381166109505760405162461bcd60e51b8152600401610604906124fe565b806006610994856001600160a01b03166317d7de7c6040518163ffffffff1660e01b8152600401600060405180830381865afa158015610845573d6000803e3d6000fd5b6040516109a19190612545565b908152604080516020928190038301812080546001600160a01b0319166001600160a01b0395861617905584841660009081526007909352818320805460ff1916600117905563382af56d60e01b81529051849360089392610a58929189169163382af56d9160048082019287929091908290030181865afa158015610a2b573d6000803e3d6000fd5b505050506040513d6000823e601f3d908101601f19168201604052610a539190810190612301565b6116c0565b80516020918201208252810191909152604090810160002080546001600160a01b0319166001600160a01b039384161790555162900f0160e41b8152828216600482015290841690630900f01090602401600060405180830381600087803b158015610ac357600080fd5b505af1158015610ad7573d6000803e3d6000fd5b50505050505050610ae86001600055565b5050505050565b60008281526001602081905260409091200154610b0b81611723565b610b158383611730565b50505050565b6001600160a01b0381163314610b445760405163334bd91960e11b815260040160405180910390fd5b610b4e82826117a9565b505050565b610b6b6000805160206128bc83398151915233610d1a565b610b875760405162461bcd60e51b815260040161060490612561565b6001600160a01b038116610bed5760405162461bcd60e51b815260206004820152602760248201527f576f726c645265676973747279305f323a20666163746f72792063616e6e6f746044820152660206265203078360cc1b6064820152608401610604565b600380546001600160a01b0319166001600160a01b0392909216919091179055565b60006104e160008051602061289c83398151915283610d1a565b3360009081526007602052604090205460ff16610c9e5760405162461bcd60e51b815260206004820152602d60248201527f576f726c645265676973747279305f323a2063616c6c6572206973206e6f742060448201526c18481d985b1a590815dbdc9b19609a1b6064820152608401610604565b610ca6611626565b60035460405163390b9e3d60e01b81526001600160a01b039091169063390b9e3d90610cda903390869086906004016125a6565b600060405180830381600087803b158015610cf457600080fd5b505af1158015610d08573d6000803e3d6000fd5b50505050610d166001600055565b5050565b60009182526001602090815260408084206001600160a01b0393909316845291905290205460ff1690565b60a0810151600554604051638c9d518f60e01b8152600481018390523360248201526001600160a01b0390911690638c9d518f90604401602060405180830381865afa158015610d99573d6000803e3d6000fd5b505050506040513d601f19601f82011682018060405250810190610dbd9190612231565b610dd95760405162461bcd60e51b81526004016106049061224e565b610de1611626565b6000610df08360800151611650565b905060006001600160a01b0316600682604051610e0d9190612545565b908152604051908190036020019020546001600160a01b031614610e815760405162461bcd60e51b815260206004820152602560248201527f576f726c645265676973747279305f323a206e616d6520616c726561647920696044820152646e2075736560d81b6064820152608401610604565b6004546001600160a01b031615801590610ea7575060208301516001600160a01b031615155b15610fa157600480546020850151604051637856879f60e11b81526001600160a01b0391821693810193909352169063f0ad0f3e90602401602060405180830381865afa158015610efc573d6000803e3d6000fd5b505050506040513d601f19601f82011682018060405250810190610f209190612231565b610fa15760405162461bcd60e51b815260206004820152604660248201527f576f726c645265676973747279305f323a206f6c64576f726c64206973206e6f60448201527f7420612076616c696420776f726c642066726f6d2070726576696f757320726560648201526567697374727960d01b608482015260a401610604565b60a083015160e08401516060850151600092610fbc92611816565b9050610fd660008051602061289c83398151915282610d1a565b6110585760405162461bcd60e51b815260206004820152604760248201527f576f726c645265676973747279305f323a20766563746f72207369676e65722060448201527f6973206e6f7420612076616c696420766563746f72206164647265737320617560648201526674686f7269747960c81b608482015260a401610604565b606084015151516000036110c45760405162461bcd60e51b815260206004820152602d60248201527f576f726c645265676973747279305f323a2062617365566563746f722e78206360448201526c616e6e6f74206265207a65726f60981b6064820152608401610604565b836060015160200151516000036111335760405162461bcd60e51b815260206004820152602d60248201527f576f726c645265676973747279305f323a2062617365566563746f722e79206360448201526c616e6e6f74206265207a65726f60981b6064820152608401610604565b836060015160400151516000036111a25760405162461bcd60e51b815260206004820152602d60248201527f576f726c645265676973747279305f323a2062617365566563746f722e7a206360448201526c616e6e6f74206265207a65726f60981b6064820152608401610604565b60006040518060c00160405280866060015160000151815260200186606001516020015181526020018660600151604001518152602001866060015160600151815260200160008152602001600081525090506000611200826116c0565b8051602091820120600081815260089092526040909120549091506001600160a01b0316156112815760405162461bcd60e51b815260206004820152602760248201527f576f726c645265676973747279305f323a20766563746f7220616c726561647960448201526620696e2075736560c81b6064820152608401610604565b6003546040805160a081018252888201516001600160a01b0390811682526020808b01518216908301528183018690526060820188905260c08a01516080830152915163082f91ff60e41b815260009392909216916382f91ff0916112e89160040161247d565b6020604051808303816000875af1158015611307573d6000803e3d6000fd5b505050506040513d601f19601f8201168201806040525081019061132b919061229f565b90506001600160a01b0381166113535760405162461bcd60e51b8152600401610604906124fe565b806006866040516113649190612545565b908152604080516020928190038301902080546001600160a01b03199081166001600160a01b0395861617909155928416600081815260078452828120805460ff1916600117905586815260089093529120805490921617905534156114455786511561140e5786604001516001600160a01b03166108fc349081150290604051600060405180830381858888f19350505050158015611408573d6000803e3d6000fd5b50611445565b6040516001600160a01b038216903480156108fc02916000818181858888f19350505050158015611443573d6000803e3d6000fd5b505b86604001516001600160a01b0316816001600160a01b03167fee32bdf3024960eab0cc65f92f4ab288808ff5501b8132b269630d3fa070005e8560405161148c91906125e6565b60405180910390a35050505050610d166001600055565b6114bb6000805160206128bc83398151915233610d1a565b6114d75760405162461bcd60e51b815260040161060490612561565b6009610d168282612649565b600060066114f083611650565b6040516114fd9190612545565b908152604051908190036020019020546001600160a01b031692915050565b6000828152600160208190526040909120015461153881611723565b610b1583836117a9565b61155a6000805160206128bc83398151915233610d1a565b6115765760405162461bcd60e51b815260040161060490612561565b6001600160a01b03811661159c5760405162461bcd60e51b815260040161060490612708565b610d1660008051602061289c83398151915282611730565b6115cc6000805160206128bc83398151915233610d1a565b6115e85760405162461bcd60e51b815260040161060490612561565b6001600160a01b03811661160e5760405162461bcd60e51b815260040161060490612708565b610d1660008051602061289c833981519152826117a9565b60026000540361164957604051633ee5aeb560e01b815260040160405180910390fd5b6002600055565b60608160005b81518110156116b9576116888282815181106116745761167461274c565b01602001516001600160f81b03191661189e565b82828151811061169a5761169a61274c565b60200101906001600160f81b031916908160001a905350600101611656565b5092915050565b60608160000151826020015183604001516116de85606001516118ed565b6116eb86608001516118ed565b6116f88760a001516118ed565b60405160200161170d96959493929190612762565b6040516020818303038152906040529050919050565b61172d813361197f565b50565b600061173c8383610d1a565b6117a15760008381526001602081815260408084206001600160a01b0387168086529252808420805460ff19169093179092559051339286917f2f8788117e7eff1d82e926ec794901d17c78024a50270940304540a733656f0d9190a45060016104e1565b5060006104e1565b60006117b58383610d1a565b156117a15760008381526001602090815260408083206001600160a01b0386168085529252808320805460ff1916905551339286917ff6391f5c32d9c69d2a47ea670b442974b53935d1edc7fd64eb21e047a839171b9190a45060016104e1565b600080611822856116c0565b9050600081856040516020016118399291906127e1565b60408051808303601f19018152828252805160208083019190912081855284840190935290935090916000916020820181803683370190505090508160208201526000611885826119b8565b905061189181886119f3565b9998505050505050505050565b6000604160f81b6001600160f81b03198316108015906118cc5750602d60f91b6001600160f81b0319831611155b156118e9576118e060f883901c6020612803565b60f81b92915050565b5090565b606060006118fa83611a1d565b60010190506000816001600160401b0381111561191957611919611ecd565b6040519080825280601f01601f191660200182016040528015611943576020820181803683370190505b5090508181016020015b600019016f181899199a1a9b1b9c1cb0b131b232b360811b600a86061a8153600a850494508461194d57509392505050565b6119898282610d1a565b610d165760405163e2517d3f60e01b81526001600160a01b038216600482015260248101839052604401610604565b60006119c482516118ed565b826040516020016119d692919061282a565b604051602081830303815290604052805190602001209050919050565b600080600080611a038686611af5565b925092509250611a138282611b42565b5090949350505050565b60008072184f03e93ff9f4daa797ed6e38ed64bf6a1f0160401b8310611a5c5772184f03e93ff9f4daa797ed6e38ed64bf6a1f0160401b830492506040015b6d04ee2d6d415b85acef81000000008310611a88576d04ee2d6d415b85acef8100000000830492506020015b662386f26fc100008310611aa657662386f26fc10000830492506010015b6305f5e1008310611abe576305f5e100830492506008015b6127108310611ad257612710830492506004015b60648310611ae4576064830492506002015b600a83106104e15760010192915050565b60008060008351604103611b2f5760208401516040850151606086015160001a611b2188828585611bfb565b955095509550505050611b3b565b50508151600091506002905b9250925092565b6000826003811115611b5657611b56612885565b03611b5f575050565b6001826003811115611b7357611b73612885565b03611b915760405163f645eedf60e01b815260040160405180910390fd5b6002826003811115611ba557611ba5612885565b03611bc65760405163fce698f760e01b815260048101829052602401610604565b6003826003811115611bda57611bda612885565b03610d16576040516335e2f38360e21b815260048101829052602401610604565b600080807f7fffffffffffffffffffffffffffffff5d576e7357a4501ddfe92f46681b20a0841115611c365750600091506003905082611cc0565b604080516000808252602082018084528a905260ff891692820192909252606081018790526080810186905260019060a0016020604051602081039080840390855afa158015611c8a573d6000803e3d6000fd5b5050604051601f1901519150506001600160a01b038116611cb657506000925060019150829050611cc0565b9250600091508190505b9450945094915050565b600060208284031215611cdc57600080fd5b81356001600160e01b031981168114611cf457600080fd5b9392505050565b60005b83811015611d16578181015183820152602001611cfe565b50506000910152565b60008151808452611d37816020860160208601611cfb565b601f01601f19169290920160200192915050565b602081526000611cf46020830184611d1f565b600060208284031215611d7057600080fd5b5035919050565b6001600160a01b038116811461172d57600080fd5b8035611d9781611d77565b919050565b60008083601f840112611dae57600080fd5b5081356001600160401b03811115611dc557600080fd5b602083019150836020828501011115611ddd57600080fd5b9250929050565b60008060008060608587031215611dfa57600080fd5b843593506020850135611e0c81611d77565b925060408501356001600160401b03811115611e2757600080fd5b611e3387828801611d9c565b95989497509550505050565b60008060408385031215611e5257600080fd5b823591506020830135611e6481611d77565b809150509250929050565b600060208284031215611e8157600080fd5b8135611cf481611d77565b60008060208385031215611e9f57600080fd5b82356001600160401b03811115611eb557600080fd5b611ec185828601611d9c565b90969095509350505050565b634e487b7160e01b600052604160045260246000fd5b60405160c081016001600160401b0381118282101715611f0557611f05611ecd565b60405290565b60405161010081016001600160401b0381118282101715611f0557611f05611ecd565b604051601f8201601f191681016001600160401b0381118282101715611f5657611f56611ecd565b604052919050565b801515811461172d57600080fd5b8035611d9781611f5e565b60006001600160401b03821115611f9057611f90611ecd565b50601f01601f191660200190565b600082601f830112611faf57600080fd5b8135611fc2611fbd82611f77565b611f2e565b818152846020838601011115611fd757600080fd5b816020850160208301376000918101602001919091529392505050565b600060c0828403121561200657600080fd5b61200e611ee3565b905081356001600160401b038082111561202757600080fd5b61203385838601611f9e565b8352602084013591508082111561204957600080fd5b61205585838601611f9e565b6020840152604084013591508082111561206e57600080fd5b5061207b84828501611f9e565b604083015250606082013560608201526080820135608082015260a082013560a082015292915050565b6000602082840312156120b757600080fd5b81356001600160401b03808211156120ce57600080fd5b9083019061010082860312156120e357600080fd5b6120eb611f0b565b6120f483611f6c565b815261210260208401611d8c565b602082015261211360408401611d8c565b604082015260608301358281111561212a57600080fd5b61213687828601611ff4565b60608301525060808301358281111561214e57600080fd5b61215a87828601611f9e565b60808301525060a083013560a082015260c08301358281111561217c57600080fd5b61218887828601611f9e565b60c08301525060e0830135828111156121a057600080fd5b6121ac87828601611f9e565b60e08301525095945050505050565b6000602082840312156121cd57600080fd5b81356001600160401b038111156121e357600080fd5b6121ef84828501611f9e565b949350505050565b600181811c9082168061220b57607f821691505b60208210810361222b57634e487b7160e01b600052602260045260246000fd5b50919050565b60006020828403121561224357600080fd5b8151611cf481611f5e565b60208082526031908201527f576f726c645265676973747279305f323a2063616c6c6572206973206e6f742060408201527030903b30b634b2103932b3b4b9ba3930b960791b606082015260800190565b6000602082840312156122b157600080fd5b8151611cf481611d77565b600082601f8301126122cd57600080fd5b81516122db611fbd82611f77565b8181528460208386010111156122f057600080fd5b6121ef826020830160208701611cfb565b60006020828403121561231357600080fd5b81516001600160401b038082111561232a57600080fd5b9083019060c0828603121561233e57600080fd5b612346611ee3565b82518281111561235557600080fd5b612361878286016122bc565b82525060208301518281111561237657600080fd5b612382878286016122bc565b60208301525060408301518281111561239a57600080fd5b6123a6878286016122bc565b604083015250606083015160608201526080830151608082015260a083015160a082015280935050505092915050565b6000602082840312156123e857600080fd5b81516001600160401b038111156123fe57600080fd5b6121ef848285016122bc565b6000815160c0845261241f60c0850182611d1f565b9050602083015184820360208601526124388282611d1f565b915050604083015184820360408601526124528282611d1f565b915050606083015160608501526080830151608085015260a083015160a08501528091505092915050565b60208152600060018060a01b0380845116602084015280602085015116604084015250604083015160a060608401526124b960c084018261240a565b90506060840151601f19808584030160808601526124d78383611d1f565b925060808601519150808584030160a0860152506124f58282611d1f565b95945050505050565b60208082526027908201527f576f726c645265676973747279305f323a20776f726c64206372656174696f6e6040820152660819985a5b195960ca1b606082015260800190565b60008251612557818460208701611cfb565b9190910192915050565b60208082526025908201527f576f726c645265676973747279305f323a2063616c6c6572206973206e6f742060408201526430b236b4b760d91b606082015260800190565b6001600160a01b03841681526040602082018190528101829052818360608301376000818301606090810191909152601f909201601f1916010192915050565b602081526000611cf4602083018461240a565b601f821115610b4e576000816000526020600020601f850160051c810160208610156126225750805b601f850160051c820191505b818110156126415782815560010161262e565b505050505050565b81516001600160401b0381111561266257612662611ecd565b6126768161267084546121f7565b846125f9565b602080601f8311600181146126ab57600084156126935750858301515b600019600386901b1c1916600185901b178555612641565b600085815260208120601f198616915b828110156126da578886015182559484019460019091019084016126bb565b50858210156126f85787850151600019600388901b60f8161c191681555b5050505050600190811b01905550565b60208082526024908201527f576f726c645265676973747279305f323a20617574682063616e6e6f742062656040820152630203078360e41b606082015260800190565b634e487b7160e01b600052603260045260246000fd5b6000875160206127758285838d01611cfb565b8851918401916127888184848d01611cfb565b885192019161279a8184848c01611cfb565b87519201916127ac8184848b01611cfb565b86519201916127be8184848a01611cfb565b85519201916127d08184848901611cfb565b919091019998505050505050505050565b6040815260006127f46040830185611d1f565b90508260208301529392505050565b60ff81811683821601908111156104e157634e487b7160e01b600052601160045260246000fd5b7f19457468657265756d205369676e6564204d6573736167653a0a00000000000081526000835161286281601a850160208801611cfb565b83519083019061287981601a840160208801611cfb565b01601a01949350505050565b634e487b7160e01b600052602160045260246000fdfe2758c8c5d77b29e60fffbf4a2bcb0fc98a947bd2a0dead06fdc32cd3cef1168da49807205ce4d355092ef5a8a18f56e8913cf4a201fbe287825b095693c21775a264697066735822122049b9adc8665346bfbed453c2c5f08d2fcde8c944533813cef8f1e9ded9f8f4be64736f6c63430008180033a49807205ce4d355092ef5a8a18f56e8913cf4a201fbe287825b095693c21775","opcodes":"PUSH1 0xC0 PUSH1 0x40 MSTORE PUSH1 0x3 PUSH1 0x80 SWAP1 DUP2 MSTORE PUSH3 0x181719 PUSH1 0xE9 SHL PUSH1 0xA0 MSTORE PUSH1 0x9 SWAP1 PUSH3 0x24 SWAP1 DUP3 PUSH3 0x52D JUMP JUMPDEST POP CALLVALUE DUP1 ISZERO PUSH3 0x32 JUMPI PUSH1 0x0 DUP1 REVERT JUMPDEST POP PUSH1 0x40 MLOAD PUSH3 0x3114 CODESIZE SUB DUP1 PUSH3 0x3114 DUP4 CODECOPY DUP2 ADD PUSH1 0x40 DUP2 SWAP1 MSTORE PUSH3 0x55 SWAP2 PUSH3 0x674 JUMP JUMPDEST PUSH1 0x1 PUSH1 0x0 SSTORE DUP1 MLOAD PUSH1 0x1 PUSH1 0x1 PUSH1 0xA0 SHL SUB AND PUSH3 0xCF JUMPI PUSH1 0x40 MLOAD PUSH3 0x461BCD PUSH1 0xE5 SHL DUP2 MSTORE PUSH1 0x20 PUSH1 0x4 DUP3 ADD MSTORE PUSH1 0x2F PUSH1 0x24 DUP3 ADD MSTORE PUSH32 0x576F726C645265676973747279305F323A20766563746F72417574686F726974 PUSH1 0x44 DUP3 ADD MSTORE PUSH15 0x792063616E6E6F742062652030783 PUSH1 0x8C SHL PUSH1 0x64 DUP3 ADD MSTORE PUSH1 0x84 ADD JUMPDEST PUSH1 0x40 MLOAD DUP1 SWAP2 SUB SWAP1 REVERT JUMPDEST PUSH1 0x20 DUP2 ADD MLOAD PUSH1 0x1 PUSH1 0x1 PUSH1 0xA0 SHL SUB AND PUSH3 0x140 JUMPI PUSH1 0x40 MLOAD PUSH3 0x461BCD PUSH1 0xE5 SHL DUP2 MSTORE PUSH1 0x20 PUSH1 0x4 DUP3 ADD MSTORE PUSH1 0x2C PUSH1 0x24 DUP3 ADD MSTORE PUSH32 0x576F726C645265676973747279305F323A20776F726C64466163746F72792063 PUSH1 0x44 DUP3 ADD MSTORE PUSH12 0x616E6E6F742062652030783 PUSH1 0xA4 SHL PUSH1 0x64 DUP3 ADD MSTORE PUSH1 0x84 ADD PUSH3 0xC6 JUMP JUMPDEST PUSH1 0x60 DUP2 ADD MLOAD PUSH1 0x1 PUSH1 0x1 PUSH1 0xA0 SHL SUB AND PUSH3 0x1B1 JUMPI PUSH1 0x40 MLOAD PUSH3 0x461BCD PUSH1 0xE5 SHL DUP2 MSTORE PUSH1 0x20 PUSH1 0x4 DUP3 ADD MSTORE PUSH1 0x2C PUSH1 0x24 DUP3 ADD MSTORE PUSH32 0x576F726C645265676973747279305F323A2064656661756C7441646D696E2063 PUSH1 0x44 DUP3 ADD MSTORE PUSH12 0x616E6E6F742062652030783 PUSH1 0xA4 SHL PUSH1 0x64 DUP3 ADD MSTORE PUSH1 0x84 ADD PUSH3 0xC6 JUMP JUMPDEST PUSH1 0x40 DUP2 ADD MLOAD PUSH1 0x1 PUSH1 0x1 PUSH1 0xA0 SHL SUB AND PUSH3 0x227 JUMPI PUSH1 0x40 MLOAD PUSH3 0x461BCD PUSH1 0xE5 SHL DUP2 MSTORE PUSH1 0x20 PUSH1 0x4 DUP3 ADD MSTORE PUSH1 0x31 PUSH1 0x24 DUP3 ADD MSTORE PUSH32 0x576F726C645265676973747279305F323A207265676973747261725265676973 PUSH1 0x44 DUP3 ADD MSTORE PUSH17 0x7472792063616E6E6F742062652030783 PUSH1 0x7C SHL PUSH1 0x64 DUP3 ADD MSTORE PUSH1 0x84 ADD PUSH3 0xC6 JUMP JUMPDEST DUP1 MLOAD PUSH1 0x2 DUP1 SLOAD PUSH1 0x1 PUSH1 0x1 PUSH1 0xA0 SHL SUB SWAP3 DUP4 AND PUSH1 0x1 PUSH1 0x1 PUSH1 0xA0 SHL SUB NOT SWAP2 DUP3 AND OR SWAP1 SWAP2 SSTORE PUSH1 0x20 DUP4 ADD MLOAD PUSH1 0x3 DUP1 SLOAD SWAP2 DUP5 AND SWAP2 DUP4 AND SWAP2 SWAP1 SWAP2 OR SWAP1 SSTORE PUSH1 0x80 DUP4 ADD MLOAD PUSH1 0x4 DUP1 SLOAD SWAP2 DUP5 AND SWAP2 DUP4 AND SWAP2 SWAP1 SWAP2 OR SWAP1 SSTORE PUSH1 0x40 DUP4 ADD MLOAD PUSH1 0x5 DUP1 SLOAD SWAP2 SWAP1 SWAP4 AND SWAP2 AND OR SWAP1 SSTORE PUSH1 0x60 DUP2 ADD MLOAD PUSH3 0x297 SWAP1 PUSH1 0x0 SWAP1 PUSH3 0x3EF JUMP JUMPDEST POP PUSH3 0x2BD PUSH1 0x0 DUP1 MLOAD PUSH1 0x20 PUSH3 0x30F4 DUP4 CODECOPY DUP2 MLOAD SWAP2 MSTORE DUP3 PUSH1 0x60 ADD MLOAD PUSH3 0x3EF PUSH1 0x20 SHL PUSH1 0x20 SHR JUMP JUMPDEST POP DUP1 MLOAD PUSH3 0x2ED SWAP1 PUSH32 0x2758C8C5D77B29E60FFFBF4A2BCB0FC98A947BD2A0DEAD06FDC32CD3CEF1168D SWAP1 PUSH3 0x3EF JUMP JUMPDEST POP PUSH1 0x0 JUMPDEST DUP2 PUSH1 0xA0 ADD MLOAD MLOAD DUP2 LT ISZERO PUSH3 0x3E7 JUMPI PUSH1 0x0 PUSH1 0x1 PUSH1 0x1 PUSH1 0xA0 SHL SUB AND DUP3 PUSH1 0xA0 ADD MLOAD DUP3 DUP2 MLOAD DUP2 LT PUSH3 0x323 JUMPI PUSH3 0x323 PUSH3 0x7BD JUMP JUMPDEST PUSH1 0x20 MUL PUSH1 0x20 ADD ADD MLOAD PUSH1 0x1 PUSH1 0x1 PUSH1 0xA0 SHL SUB AND SUB PUSH3 0x39C JUMPI PUSH1 0x40 MLOAD PUSH3 0x461BCD PUSH1 0xE5 SHL DUP2 MSTORE PUSH1 0x20 PUSH1 0x4 DUP3 ADD MSTORE PUSH1 0x30 PUSH1 0x24 DUP3 ADD MSTORE PUSH32 0x576F726C645265676973747279305F323A206F7468657241646D696E73206361 PUSH1 0x44 DUP3 ADD MSTORE PUSH16 0x6E6E6F7420636F6E7461696E2030783 PUSH1 0x84 SHL PUSH1 0x64 DUP3 ADD MSTORE PUSH1 0x84 ADD PUSH3 0xC6 JUMP JUMPDEST PUSH3 0x3DD PUSH1 0x0 DUP1 MLOAD PUSH1 0x20 PUSH3 0x30F4 DUP4 CODECOPY DUP2 MLOAD SWAP2 MSTORE DUP4 PUSH1 0xA0 ADD MLOAD DUP4 DUP2 MLOAD DUP2 LT PUSH3 0x3C9 JUMPI PUSH3 0x3C9 PUSH3 0x7BD JUMP JUMPDEST PUSH1 0x20 MUL PUSH1 0x20 ADD ADD MLOAD PUSH3 0x3EF PUSH1 0x20 SHL PUSH1 0x20 SHR JUMP JUMPDEST POP PUSH1 0x1 ADD PUSH3 0x2F1 JUMP JUMPDEST POP POP PUSH3 0x7D3 JUMP JUMPDEST PUSH1 0x0 DUP3 DUP2 MSTORE PUSH1 0x1 PUSH1 0x20 SWAP1 DUP2 MSTORE PUSH1 0x40 DUP1 DUP4 KECCAK256 PUSH1 0x1 PUSH1 0x1 PUSH1 0xA0 SHL SUB DUP6 AND DUP5 MSTORE SWAP1 SWAP2 MSTORE DUP2 KECCAK256 SLOAD PUSH1 0xFF AND PUSH3 0x47C JUMPI PUSH1 0x0 DUP4 DUP2 MSTORE PUSH1 0x1 PUSH1 0x20 DUP2 DUP2 MSTORE PUSH1 0x40 DUP1 DUP5 KECCAK256 PUSH1 0x1 PUSH1 0x1 PUSH1 0xA0 SHL SUB DUP8 AND DUP1 DUP7 MSTORE SWAP3 MSTORE DUP1 DUP5 KECCAK256 DUP1 SLOAD PUSH1 0xFF NOT AND SWAP1 SWAP4 OR SWAP1 SWAP3 SSTORE SWAP1 MLOAD CALLER SWAP3 DUP7 SWAP2 PUSH32 0x2F8788117E7EFF1D82E926EC794901D17C78024A50270940304540A733656F0D SWAP2 SWAP1 LOG4 POP PUSH1 0x1 PUSH3 0x480 JUMP JUMPDEST POP PUSH1 0x0 JUMPDEST SWAP3 SWAP2 POP POP JUMP JUMPDEST PUSH4 0x4E487B71 PUSH1 0xE0 SHL PUSH1 0x0 MSTORE PUSH1 0x41 PUSH1 0x4 MSTORE PUSH1 0x24 PUSH1 0x0 REVERT JUMPDEST PUSH1 0x1 DUP2 DUP2 SHR SWAP1 DUP3 AND DUP1 PUSH3 0x4B1 JUMPI PUSH1 0x7F DUP3 AND SWAP2 POP JUMPDEST PUSH1 0x20 DUP3 LT DUP2 SUB PUSH3 0x4D2 JUMPI PUSH4 0x4E487B71 PUSH1 0xE0 SHL PUSH1 0x0 MSTORE PUSH1 0x22 PUSH1 0x4 MSTORE PUSH1 0x24 PUSH1 0x0 REVERT JUMPDEST POP SWAP2 SWAP1 POP JUMP JUMPDEST PUSH1 0x1F DUP3 GT ISZERO PUSH3 0x528 JUMPI PUSH1 0x0 DUP2 PUSH1 0x0 MSTORE PUSH1 0x20 PUSH1 0x0 KECCAK256 PUSH1 0x1F DUP6 ADD PUSH1 0x5 SHR DUP2 ADD PUSH1 0x20 DUP7 LT ISZERO PUSH3 0x503 JUMPI POP DUP1 JUMPDEST PUSH1 0x1F DUP6 ADD PUSH1 0x5 SHR DUP3 ADD SWAP2 POP JUMPDEST DUP2 DUP2 LT ISZERO PUSH3 0x524 JUMPI DUP3 DUP2 SSTORE PUSH1 0x1 ADD PUSH3 0x50F JUMP JUMPDEST POP POP POP JUMPDEST POP POP POP JUMP JUMPDEST DUP2 MLOAD PUSH1 0x1 PUSH1 0x1 PUSH1 0x40 SHL SUB DUP2 GT ISZERO PUSH3 0x549 JUMPI PUSH3 0x549 PUSH3 0x486 JUMP JUMPDEST PUSH3 0x561 DUP2 PUSH3 0x55A DUP5 SLOAD PUSH3 0x49C JUMP JUMPDEST DUP5 PUSH3 0x4D8 JUMP JUMPDEST PUSH1 0x20 DUP1 PUSH1 0x1F DUP4 GT PUSH1 0x1 DUP2 EQ PUSH3 0x599 JUMPI PUSH1 0x0 DUP5 ISZERO PUSH3 0x580 JUMPI POP DUP6 DUP4 ADD MLOAD JUMPDEST PUSH1 0x0 NOT PUSH1 0x3 DUP7 SWAP1 SHL SHR NOT AND PUSH1 0x1 DUP6 SWAP1 SHL OR DUP6 SSTORE PUSH3 0x524 JUMP JUMPDEST PUSH1 0x0 DUP6 DUP2 MSTORE PUSH1 0x20 DUP2 KECCAK256 PUSH1 0x1F NOT DUP7 AND SWAP2 JUMPDEST DUP3 DUP2 LT ISZERO PUSH3 0x5CA JUMPI DUP9 DUP7 ADD MLOAD DUP3 SSTORE SWAP5 DUP5 ADD SWAP5 PUSH1 0x1 SWAP1 SWAP2 ADD SWAP1 DUP5 ADD PUSH3 0x5A9 JUMP JUMPDEST POP DUP6 DUP3 LT ISZERO PUSH3 0x5E9 JUMPI DUP8 DUP6 ADD MLOAD PUSH1 0x0 NOT PUSH1 0x3 DUP9 SWAP1 SHL PUSH1 0xF8 AND SHR NOT AND DUP2 SSTORE JUMPDEST POP POP POP POP POP PUSH1 0x1 SWAP1 DUP2 SHL ADD SWAP1 SSTORE POP JUMP JUMPDEST PUSH1 0x40 MLOAD PUSH1 0xC0 DUP2 ADD PUSH1 0x1 PUSH1 0x1 PUSH1 0x40 SHL SUB DUP2 GT DUP3 DUP3 LT OR ISZERO PUSH3 0x61E JUMPI PUSH3 0x61E PUSH3 0x486 JUMP JUMPDEST PUSH1 0x40 MSTORE SWAP1 JUMP JUMPDEST PUSH1 0x40 MLOAD PUSH1 0x1F DUP3 ADD PUSH1 0x1F NOT AND DUP2 ADD PUSH1 0x1 PUSH1 0x1 PUSH1 0x40 SHL SUB DUP2 GT DUP3 DUP3 LT OR ISZERO PUSH3 0x64F JUMPI PUSH3 0x64F PUSH3 0x486 JUMP JUMPDEST PUSH1 0x40 MSTORE SWAP2 SWAP1 POP JUMP JUMPDEST DUP1 MLOAD PUSH1 0x1 PUSH1 0x1 PUSH1 0xA0 SHL SUB DUP2 AND DUP2 EQ PUSH3 0x66F JUMPI PUSH1 0x0 DUP1 REVERT JUMPDEST SWAP2 SWAP1 POP JUMP JUMPDEST PUSH1 0x0 PUSH1 0x20 DUP1 DUP4 DUP6 SUB SLT ISZERO PUSH3 0x688 JUMPI PUSH1 0x0 DUP1 REVERT JUMPDEST DUP3 MLOAD PUSH1 0x1 PUSH1 0x1 PUSH1 0x40 SHL SUB DUP1 DUP3 GT ISZERO PUSH3 0x6A0 JUMPI PUSH1 0x0 DUP1 REVERT JUMPDEST SWAP1 DUP5 ADD SWAP1 PUSH1 0xC0 DUP3 DUP8 SUB SLT ISZERO PUSH3 0x6B5 JUMPI PUSH1 0x0 DUP1 REVERT JUMPDEST PUSH3 0x6BF PUSH3 0x5F9 JUMP JUMPDEST PUSH3 0x6CA DUP4 PUSH3 0x657 JUMP JUMPDEST DUP2 MSTORE PUSH3 0x6D9 DUP5 DUP5 ADD PUSH3 0x657 JUMP JUMPDEST DUP5 DUP3 ADD MSTORE PUSH3 0x6EB PUSH1 0x40 DUP5 ADD PUSH3 0x657 JUMP JUMPDEST PUSH1 0x40 DUP3 ADD MSTORE PUSH3 0x6FE PUSH1 0x60 DUP5 ADD PUSH3 0x657 JUMP JUMPDEST PUSH1 0x60 DUP3 ADD MSTORE PUSH3 0x711 PUSH1 0x80 DUP5 ADD PUSH3 0x657 JUMP JUMPDEST PUSH1 0x80 DUP3 ADD MSTORE PUSH1 0xA0 DUP4 ADD MLOAD DUP3 DUP2 GT ISZERO PUSH3 0x729 JUMPI PUSH1 0x0 DUP1 REVERT JUMPDEST DUP1 DUP5 ADD SWAP4 POP POP DUP7 PUSH1 0x1F DUP5 ADD SLT PUSH3 0x73F JUMPI PUSH1 0x0 DUP1 REVERT JUMPDEST DUP3 MLOAD DUP3 DUP2 GT ISZERO PUSH3 0x754 JUMPI PUSH3 0x754 PUSH3 0x486 JUMP JUMPDEST DUP1 PUSH1 0x5 SHL SWAP3 POP PUSH3 0x767 DUP6 DUP5 ADD PUSH3 0x624 JUMP JUMPDEST DUP2 DUP2 MSTORE SWAP3 DUP5 ADD DUP6 ADD SWAP3 DUP6 DUP2 ADD SWAP1 DUP10 DUP6 GT ISZERO PUSH3 0x782 JUMPI PUSH1 0x0 DUP1 REVERT JUMPDEST SWAP5 DUP7 ADD SWAP5 JUMPDEST DUP5 DUP7 LT ISZERO PUSH3 0x7AB JUMPI PUSH3 0x79B DUP7 PUSH3 0x657 JUMP JUMPDEST DUP3 MSTORE SWAP5 DUP7 ADD SWAP5 SWAP1 DUP7 ADD SWAP1 PUSH3 0x787 JUMP JUMPDEST PUSH1 0xA0 DUP5 ADD MSTORE POP SWAP1 SWAP8 SWAP7 POP POP POP POP POP POP POP JUMP JUMPDEST PUSH4 0x4E487B71 PUSH1 0xE0 SHL PUSH1 0x0 MSTORE PUSH1 0x32 PUSH1 0x4 MSTORE PUSH1 0x24 PUSH1 0x0 REVERT JUMPDEST PUSH2 0x2911 DUP1 PUSH3 0x7E3 PUSH1 0x0 CODECOPY PUSH1 0x0 RETURN INVALID PUSH1 0x80 PUSH1 0x40 MSTORE PUSH1 0x4 CALLDATASIZE LT PUSH2 0x14F JUMPI PUSH1 0x0 CALLDATALOAD PUSH1 0xE0 SHR DUP1 PUSH4 0x8F51AA6D GT PUSH2 0xB6 JUMPI DUP1 PUSH4 0xB7722C7F GT PUSH2 0x6F JUMPI DUP1 PUSH4 0xB7722C7F EQ PUSH2 0x3D7 JUMPI DUP1 PUSH4 0xD547741F EQ PUSH2 0x3F7 JUMPI DUP1 PUSH4 0xDB8D7466 EQ PUSH2 0x417 JUMPI DUP1 PUSH4 0xDBDC4E62 EQ PUSH2 0x437 JUMPI DUP1 PUSH4 0xE3FFB4BF EQ PUSH2 0x457 JUMPI DUP1 PUSH4 0xF0AD0F3E EQ PUSH2 0x477 JUMPI PUSH1 0x0 DUP1 REVERT JUMPDEST DUP1 PUSH4 0x8F51AA6D EQ PUSH2 0x32F JUMPI DUP1 PUSH4 0x91D14854 EQ PUSH2 0x34F JUMPI DUP1 PUSH4 0x933B415B EQ PUSH2 0x36F JUMPI DUP1 PUSH4 0x968638DF EQ PUSH2 0x382 JUMPI DUP1 PUSH4 0xA217FDDF EQ PUSH2 0x3A2 JUMPI DUP1 PUSH4 0xA7B9AF23 EQ PUSH2 0x3B7 JUMPI PUSH1 0x0 DUP1 REVERT JUMPDEST DUP1 PUSH4 0x2F2FF15D GT PUSH2 0x108 JUMPI DUP1 PUSH4 0x2F2FF15D EQ PUSH2 0x26B JUMPI DUP1 PUSH4 0x36568ABE EQ PUSH2 0x28B JUMPI DUP1 PUSH4 0x37959C2D EQ PUSH2 0x2AB JUMPI DUP1 PUSH4 0x68F52A97 EQ PUSH2 0x2CD JUMPI DUP1 PUSH4 0x6D80BF31 EQ PUSH2 0x2ED JUMPI DUP1 PUSH4 0x75B238FC EQ PUSH2 0x30D JUMPI PUSH1 0x0 DUP1 REVERT JUMPDEST DUP1 PUSH4 0x1FFC9A7 EQ PUSH2 0x15B JUMPI DUP1 PUSH4 0xC743051 EQ PUSH2 0x190 JUMPI DUP1 PUSH4 0xDC3897D EQ PUSH2 0x1B2 JUMPI DUP1 PUSH4 0x11022380 EQ PUSH2 0x1EA JUMPI DUP1 PUSH4 0x248A9CA3 EQ PUSH2 0x20A JUMPI DUP1 PUSH4 0x2EF7579B EQ PUSH2 0x249 JUMPI PUSH1 0x0 DUP1 REVERT JUMPDEST CALLDATASIZE PUSH2 0x156 JUMPI STOP JUMPDEST PUSH1 0x0 DUP1 REVERT JUMPDEST CALLVALUE DUP1 ISZERO PUSH2 0x167 JUMPI PUSH1 0x0 DUP1 REVERT JUMPDEST POP PUSH2 0x17B PUSH2 0x176 CALLDATASIZE PUSH1 0x4 PUSH2 0x1CCA JUMP JUMPDEST PUSH2 0x4B0 JUMP JUMPDEST PUSH1 0x40 MLOAD SWAP1 ISZERO ISZERO DUP2 MSTORE PUSH1 0x20 ADD JUMPDEST PUSH1 0x40 MLOAD DUP1 SWAP2 SUB SWAP1 RETURN JUMPDEST CALLVALUE DUP1 ISZERO PUSH2 0x19C JUMPI PUSH1 0x0 DUP1 REVERT JUMPDEST POP PUSH2 0x1A5 PUSH2 0x4E7 JUMP JUMPDEST PUSH1 0x40 MLOAD PUSH2 0x187 SWAP2 SWAP1 PUSH2 0x1D4B JUMP JUMPDEST CALLVALUE DUP1 ISZERO PUSH2 0x1BE JUMPI PUSH1 0x0 DUP1 REVERT JUMPDEST POP PUSH1 0x3 SLOAD PUSH2 0x1D2 SWAP1 PUSH1 0x1 PUSH1 0x1 PUSH1 0xA0 SHL SUB AND DUP2 JUMP JUMPDEST PUSH1 0x40 MLOAD PUSH1 0x1 PUSH1 0x1 PUSH1 0xA0 SHL SUB SWAP1 SWAP2 AND DUP2 MSTORE PUSH1 0x20 ADD PUSH2 0x187 JUMP JUMPDEST CALLVALUE DUP1 ISZERO PUSH2 0x1F6 JUMPI PUSH1 0x0 DUP1 REVERT JUMPDEST POP PUSH1 0x4 SLOAD PUSH2 0x1D2 SWAP1 PUSH1 0x1 PUSH1 0x1 PUSH1 0xA0 SHL SUB AND DUP2 JUMP JUMPDEST CALLVALUE DUP1 ISZERO PUSH2 0x216 JUMPI PUSH1 0x0 DUP1 REVERT JUMPDEST POP PUSH2 0x23B PUSH2 0x225 CALLDATASIZE PUSH1 0x4 PUSH2 0x1D5E JUMP JUMPDEST PUSH1 0x0 SWAP1 DUP2 MSTORE PUSH1 0x1 PUSH1 0x20 DUP2 SWAP1 MSTORE PUSH1 0x40 SWAP1 SWAP2 KECCAK256 ADD SLOAD SWAP1 JUMP JUMPDEST PUSH1 0x40 MLOAD SWAP1 DUP2 MSTORE PUSH1 0x20 ADD PUSH2 0x187 JUMP JUMPDEST CALLVALUE DUP1 ISZERO PUSH2 0x255 JUMPI PUSH1 0x0 DUP1 REVERT JUMPDEST POP PUSH2 0x269 PUSH2 0x264 CALLDATASIZE PUSH1 0x4 PUSH2 0x1DE4 JUMP JUMPDEST PUSH2 0x575 JUMP JUMPDEST STOP JUMPDEST CALLVALUE DUP1 ISZERO PUSH2 0x277 JUMPI PUSH1 0x0 DUP1 REVERT JUMPDEST POP PUSH2 0x269 PUSH2 0x286 CALLDATASIZE PUSH1 0x4 PUSH2 0x1E3F JUMP JUMPDEST PUSH2 0xAEF JUMP JUMPDEST CALLVALUE DUP1 ISZERO PUSH2 0x297 JUMPI PUSH1 0x0 DUP1 REVERT JUMPDEST POP PUSH2 0x269 PUSH2 0x2A6 CALLDATASIZE PUSH1 0x4 PUSH2 0x1E3F JUMP JUMPDEST PUSH2 0xB1B JUMP JUMPDEST CALLVALUE DUP1 ISZERO PUSH2 0x2B7 JUMPI PUSH1 0x0 DUP1 REVERT JUMPDEST POP PUSH2 0x23B PUSH1 0x0 DUP1 MLOAD PUSH1 0x20 PUSH2 0x289C DUP4 CODECOPY DUP2 MLOAD SWAP2 MSTORE DUP2 JUMP JUMPDEST CALLVALUE DUP1 ISZERO PUSH2 0x2D9 JUMPI PUSH1 0x0 DUP1 REVERT JUMPDEST POP PUSH2 0x269 PUSH2 0x2E8 CALLDATASIZE PUSH1 0x4 PUSH2 0x1E6F JUMP JUMPDEST PUSH2 0xB53 JUMP JUMPDEST CALLVALUE DUP1 ISZERO PUSH2 0x2F9 JUMPI PUSH1 0x0 DUP1 REVERT JUMPDEST POP PUSH2 0x17B PUSH2 0x308 CALLDATASIZE PUSH1 0x4 PUSH2 0x1E6F JUMP JUMPDEST PUSH2 0xC0F JUMP JUMPDEST CALLVALUE DUP1 ISZERO PUSH2 0x319 JUMPI PUSH1 0x0 DUP1 REVERT JUMPDEST POP PUSH2 0x23B PUSH1 0x0 DUP1 MLOAD PUSH1 0x20 PUSH2 0x28BC DUP4 CODECOPY DUP2 MLOAD SWAP2 MSTORE DUP2 JUMP JUMPDEST CALLVALUE DUP1 ISZERO PUSH2 0x33B JUMPI PUSH1 0x0 DUP1 REVERT JUMPDEST POP PUSH2 0x269 PUSH2 0x34A CALLDATASIZE PUSH1 0x4 PUSH2 0x1E8C JUMP JUMPDEST PUSH2 0xC29 JUMP JUMPDEST CALLVALUE DUP1 ISZERO PUSH2 0x35B JUMPI PUSH1 0x0 DUP1 REVERT JUMPDEST POP PUSH2 0x17B PUSH2 0x36A CALLDATASIZE PUSH1 0x4 PUSH2 0x1E3F JUMP JUMPDEST PUSH2 0xD1A JUMP JUMPDEST PUSH2 0x269 PUSH2 0x37D CALLDATASIZE PUSH1 0x4 PUSH2 0x20A5 JUMP JUMPDEST PUSH2 0xD45 JUMP JUMPDEST CALLVALUE DUP1 ISZERO PUSH2 0x38E JUMPI PUSH1 0x0 DUP1 REVERT JUMPDEST POP PUSH1 0x2 SLOAD PUSH2 0x1D2 SWAP1 PUSH1 0x1 PUSH1 0x1 PUSH1 0xA0 SHL SUB AND DUP2 JUMP JUMPDEST CALLVALUE DUP1 ISZERO PUSH2 0x3AE JUMPI PUSH1 0x0 DUP1 REVERT JUMPDEST POP PUSH2 0x23B PUSH1 0x0 DUP2 JUMP JUMPDEST CALLVALUE DUP1 ISZERO PUSH2 0x3C3 JUMPI PUSH1 0x0 DUP1 REVERT JUMPDEST POP PUSH2 0x269 PUSH2 0x3D2 CALLDATASIZE PUSH1 0x4 PUSH2 0x21BB JUMP JUMPDEST PUSH2 0x14A3 JUMP JUMPDEST CALLVALUE DUP1 ISZERO PUSH2 0x3E3 JUMPI PUSH1 0x0 DUP1 REVERT JUMPDEST POP PUSH2 0x1D2 PUSH2 0x3F2 CALLDATASIZE PUSH1 0x4 PUSH2 0x21BB JUMP JUMPDEST PUSH2 0x14E3 JUMP JUMPDEST CALLVALUE DUP1 ISZERO PUSH2 0x403 JUMPI PUSH1 0x0 DUP1 REVERT JUMPDEST POP PUSH2 0x269 PUSH2 0x412 CALLDATASIZE PUSH1 0x4 PUSH2 0x1E3F JUMP JUMPDEST PUSH2 0x151C JUMP JUMPDEST CALLVALUE DUP1 ISZERO PUSH2 0x423 JUMPI PUSH1 0x0 DUP1 REVERT JUMPDEST POP PUSH2 0x269 PUSH2 0x432 CALLDATASIZE PUSH1 0x4 PUSH2 0x1E6F JUMP JUMPDEST PUSH2 0x1542 JUMP JUMPDEST CALLVALUE DUP1 ISZERO PUSH2 0x443 JUMPI PUSH1 0x0 DUP1 REVERT JUMPDEST POP PUSH1 0x5 SLOAD PUSH2 0x1D2 SWAP1 PUSH1 0x1 PUSH1 0x1 PUSH1 0xA0 SHL SUB AND DUP2 JUMP JUMPDEST CALLVALUE DUP1 ISZERO PUSH2 0x463 JUMPI PUSH1 0x0 DUP1 REVERT JUMPDEST POP PUSH2 0x269 PUSH2 0x472 CALLDATASIZE PUSH1 0x4 PUSH2 0x1E6F JUMP JUMPDEST PUSH2 0x15B4 JUMP JUMPDEST CALLVALUE DUP1 ISZERO PUSH2 0x483 JUMPI PUSH1 0x0 DUP1 REVERT JUMPDEST POP PUSH2 0x17B PUSH2 0x492 CALLDATASIZE PUSH1 0x4 PUSH2 0x1E6F JUMP JUMPDEST PUSH1 0x1 PUSH1 0x1 PUSH1 0xA0 SHL SUB AND PUSH1 0x0 SWAP1 DUP2 MSTORE PUSH1 0x7 PUSH1 0x20 MSTORE PUSH1 0x40 SWAP1 KECCAK256 SLOAD PUSH1 0xFF AND SWAP1 JUMP JUMPDEST PUSH1 0x0 PUSH1 0x1 PUSH1 0x1 PUSH1 0xE0 SHL SUB NOT DUP3 AND PUSH4 0x7965DB0B PUSH1 0xE0 SHL EQ DUP1 PUSH2 0x4E1 JUMPI POP PUSH4 0x1FFC9A7 PUSH1 0xE0 SHL PUSH1 0x1 PUSH1 0x1 PUSH1 0xE0 SHL SUB NOT DUP4 AND EQ JUMPDEST SWAP3 SWAP2 POP POP JUMP JUMPDEST PUSH1 0x9 DUP1 SLOAD PUSH2 0x4F4 SWAP1 PUSH2 0x21F7 JUMP JUMPDEST DUP1 PUSH1 0x1F ADD PUSH1 0x20 DUP1 SWAP2 DIV MUL PUSH1 0x20 ADD PUSH1 0x40 MLOAD SWAP1 DUP2 ADD PUSH1 0x40 MSTORE DUP1 SWAP3 SWAP2 SWAP1 DUP2 DUP2 MSTORE PUSH1 0x20 ADD DUP3 DUP1 SLOAD PUSH2 0x520 SWAP1 PUSH2 0x21F7 JUMP JUMPDEST DUP1 ISZERO PUSH2 0x56D JUMPI DUP1 PUSH1 0x1F LT PUSH2 0x542 JUMPI PUSH2 0x100 DUP1 DUP4 SLOAD DIV MUL DUP4 MSTORE SWAP2 PUSH1 0x20 ADD SWAP2 PUSH2 0x56D JUMP JUMPDEST DUP3 ADD SWAP2 SWAP1 PUSH1 0x0 MSTORE PUSH1 0x20 PUSH1 0x0 KECCAK256 SWAP1 JUMPDEST DUP2 SLOAD DUP2 MSTORE SWAP1 PUSH1 0x1 ADD SWAP1 PUSH1 0x20 ADD DUP1 DUP4 GT PUSH2 0x550 JUMPI DUP3 SWAP1 SUB PUSH1 0x1F AND DUP3 ADD SWAP2 JUMPDEST POP POP POP POP POP DUP2 JUMP JUMPDEST PUSH1 0x5 SLOAD PUSH1 0x40 MLOAD PUSH4 0x8C9D518F PUSH1 0xE0 SHL DUP2 MSTORE PUSH1 0x4 DUP2 ADD DUP7 SWAP1 MSTORE CALLER PUSH1 0x24 DUP3 ADD MSTORE DUP6 SWAP2 PUSH1 0x1 PUSH1 0x1 PUSH1 0xA0 SHL SUB AND SWAP1 PUSH4 0x8C9D518F SWAP1 PUSH1 0x44 ADD PUSH1 0x20 PUSH1 0x40 MLOAD DUP1 DUP4 SUB DUP2 DUP7 GAS STATICCALL ISZERO DUP1 ISZERO PUSH2 0x5C4 JUMPI RETURNDATASIZE PUSH1 0x0 DUP1 RETURNDATACOPY RETURNDATASIZE PUSH1 0x0 REVERT JUMPDEST POP POP POP POP PUSH1 0x40 MLOAD RETURNDATASIZE PUSH1 0x1F NOT PUSH1 0x1F DUP3 ADD AND DUP3 ADD DUP1 PUSH1 0x40 MSTORE POP DUP2 ADD SWAP1 PUSH2 0x5E8 SWAP2 SWAP1 PUSH2 0x2231 JUMP JUMPDEST PUSH2 0x60D JUMPI PUSH1 0x40 MLOAD PUSH3 0x461BCD PUSH1 0xE5 SHL DUP2 MSTORE PUSH1 0x4 ADD PUSH2 0x604 SWAP1 PUSH2 0x224E JUMP JUMPDEST PUSH1 0x40 MLOAD DUP1 SWAP2 SUB SWAP1 REVERT JUMPDEST PUSH2 0x615 PUSH2 0x1626 JUMP JUMPDEST PUSH1 0x4 DUP1 SLOAD PUSH1 0x40 MLOAD PUSH4 0x7856879F PUSH1 0xE1 SHL DUP2 MSTORE PUSH1 0x1 PUSH1 0x1 PUSH1 0xA0 SHL SUB DUP8 DUP2 AND SWAP4 DUP3 ADD SWAP4 SWAP1 SWAP4 MSTORE SWAP2 AND SWAP1 PUSH4 0xF0AD0F3E SWAP1 PUSH1 0x24 ADD PUSH1 0x20 PUSH1 0x40 MLOAD DUP1 DUP4 SUB DUP2 DUP7 GAS STATICCALL ISZERO DUP1 ISZERO PUSH2 0x661 JUMPI RETURNDATASIZE PUSH1 0x0 DUP1 RETURNDATACOPY RETURNDATASIZE PUSH1 0x0 REVERT JUMPDEST POP POP POP POP PUSH1 0x40 MLOAD RETURNDATASIZE PUSH1 0x1F NOT PUSH1 0x1F DUP3 ADD AND DUP3 ADD DUP1 PUSH1 0x40 MSTORE POP DUP2 ADD SWAP1 PUSH2 0x685 SWAP2 SWAP1 PUSH2 0x2231 JUMP JUMPDEST PUSH2 0x708 JUMPI PUSH1 0x40 MLOAD PUSH3 0x461BCD PUSH1 0xE5 SHL DUP2 MSTORE PUSH1 0x20 PUSH1 0x4 DUP3 ADD MSTORE PUSH1 0x48 PUSH1 0x24 DUP3 ADD MSTORE PUSH32 0x576F726C645265676973747279305F323A206F6C64576F726C64206973206E6F PUSH1 0x44 DUP3 ADD MSTORE PUSH32 0x7420612076616C696420776F726C64207570677261646561626C652062792072 PUSH1 0x64 DUP3 ADD MSTORE PUSH8 0x32B3B4B9BA3930B9 PUSH1 0xC1 SHL PUSH1 0x84 DUP3 ADD MSTORE PUSH1 0xA4 ADD PUSH2 0x604 JUMP JUMPDEST PUSH1 0x0 DUP5 SWAP1 POP PUSH1 0x0 PUSH1 0x40 MLOAD DUP1 PUSH1 0xA0 ADD PUSH1 0x40 MSTORE DUP1 DUP4 PUSH1 0x1 PUSH1 0x1 PUSH1 0xA0 SHL SUB AND PUSH4 0x893D20E8 PUSH1 0x40 MLOAD DUP2 PUSH4 0xFFFFFFFF AND PUSH1 0xE0 SHL DUP2 MSTORE PUSH1 0x4 ADD PUSH1 0x20 PUSH1 0x40 MLOAD DUP1 DUP4 SUB DUP2 DUP7 GAS STATICCALL ISZERO DUP1 ISZERO PUSH2 0x758 JUMPI RETURNDATASIZE PUSH1 0x0 DUP1 RETURNDATACOPY RETURNDATASIZE PUSH1 0x0 REVERT JUMPDEST POP POP POP POP PUSH1 0x40 MLOAD RETURNDATASIZE PUSH1 0x1F NOT PUSH1 0x1F DUP3 ADD AND DUP3 ADD DUP1 PUSH1 0x40 MSTORE POP DUP2 ADD SWAP1 PUSH2 0x77C SWAP2 SWAP1 PUSH2 0x229F JUMP JUMPDEST PUSH1 0x1 PUSH1 0x1 PUSH1 0xA0 SHL SUB AND DUP2 MSTORE PUSH1 0x20 ADD DUP8 PUSH1 0x1 PUSH1 0x1 PUSH1 0xA0 SHL SUB AND DUP2 MSTORE PUSH1 0x20 ADD DUP4 PUSH1 0x1 PUSH1 0x1 PUSH1 0xA0 SHL SUB AND PUSH4 0x382AF56D PUSH1 0x40 MLOAD DUP2 PUSH4 0xFFFFFFFF AND PUSH1 0xE0 SHL DUP2 MSTORE PUSH1 0x4 ADD PUSH1 0x0 PUSH1 0x40 MLOAD DUP1 DUP4 SUB DUP2 DUP7 GAS STATICCALL ISZERO DUP1 ISZERO PUSH2 0x7D7 JUMPI RETURNDATASIZE PUSH1 0x0 DUP1 RETURNDATACOPY RETURNDATASIZE PUSH1 0x0 REVERT JUMPDEST POP POP POP POP PUSH1 0x40 MLOAD RETURNDATASIZE PUSH1 0x0 DUP3 RETURNDATACOPY PUSH1 0x1F RETURNDATASIZE SWAP1 DUP2 ADD PUSH1 0x1F NOT AND DUP3 ADD PUSH1 0x40 MSTORE PUSH2 0x7FF SWAP2 SWAP1 DUP2 ADD SWAP1 PUSH2 0x2301 JUMP JUMPDEST DUP2 MSTORE PUSH1 0x20 ADD PUSH2 0x872 DUP5 PUSH1 0x1 PUSH1 0x1 PUSH1 0xA0 SHL SUB AND PUSH4 0x17D7DE7C PUSH1 0x40 MLOAD DUP2 PUSH4 0xFFFFFFFF AND PUSH1 0xE0 SHL DUP2 MSTORE PUSH1 0x4 ADD PUSH1 0x0 PUSH1 0x40 MLOAD DUP1 DUP4 SUB DUP2 DUP7 GAS STATICCALL ISZERO DUP1 ISZERO PUSH2 0x845 JUMPI RETURNDATASIZE PUSH1 0x0 DUP1 RETURNDATACOPY RETURNDATASIZE PUSH1 0x0 REVERT JUMPDEST POP POP POP POP PUSH1 0x40 MLOAD RETURNDATASIZE PUSH1 0x0 DUP3 RETURNDATACOPY PUSH1 0x1F RETURNDATASIZE SWAP1 DUP2 ADD PUSH1 0x1F NOT AND DUP3 ADD PUSH1 0x40 MSTORE PUSH2 0x86D SWAP2 SWAP1 DUP2 ADD SWAP1 PUSH2 0x23D6 JUMP JUMPDEST PUSH2 0x1650 JUMP JUMPDEST DUP2 MSTORE PUSH1 0x20 ADD DUP7 DUP7 DUP1 DUP1 PUSH1 0x1F ADD PUSH1 0x20 DUP1 SWAP2 DIV MUL PUSH1 0x20 ADD PUSH1 0x40 MLOAD SWAP1 DUP2 ADD PUSH1 0x40 MSTORE DUP1 SWAP4 SWAP3 SWAP2 SWAP1 DUP2 DUP2 MSTORE PUSH1 0x20 ADD DUP4 DUP4 DUP1 DUP3 DUP5 CALLDATACOPY PUSH1 0x0 SWAP3 ADD DUP3 SWAP1 MSTORE POP SWAP4 SWAP1 SWAP5 MSTORE POP POP PUSH1 0x3 SLOAD PUSH1 0x40 MLOAD PUSH4 0x82F91FF PUSH1 0xE4 SHL DUP2 MSTORE SWAP4 SWAP5 POP SWAP1 SWAP3 PUSH1 0x1 PUSH1 0x1 PUSH1 0xA0 SHL SUB SWAP1 SWAP2 AND SWAP2 POP PUSH4 0x82F91FF0 SWAP1 PUSH2 0x8E5 SWAP1 DUP6 SWAP1 PUSH1 0x4 ADD PUSH2 0x247D JUMP JUMPDEST PUSH1 0x20 PUSH1 0x40 MLOAD DUP1 DUP4 SUB DUP2 PUSH1 0x0 DUP8 GAS CALL ISZERO DUP1 ISZERO PUSH2 0x904 JUMPI RETURNDATASIZE PUSH1 0x0 DUP1 RETURNDATACOPY RETURNDATASIZE PUSH1 0x0 REVERT JUMPDEST POP POP POP POP PUSH1 0x40 MLOAD RETURNDATASIZE PUSH1 0x1F NOT PUSH1 0x1F DUP3 ADD AND DUP3 ADD DUP1 PUSH1 0x40 MSTORE POP DUP2 ADD SWAP1 PUSH2 0x928 SWAP2 SWAP1 PUSH2 0x229F JUMP JUMPDEST SWAP1 POP PUSH1 0x1 PUSH1 0x1 PUSH1 0xA0 SHL SUB DUP2 AND PUSH2 0x950 JUMPI PUSH1 0x40 MLOAD PUSH3 0x461BCD PUSH1 0xE5 SHL DUP2 MSTORE PUSH1 0x4 ADD PUSH2 0x604 SWAP1 PUSH2 0x24FE JUMP JUMPDEST DUP1 PUSH1 0x6 PUSH2 0x994 DUP6 PUSH1 0x1 PUSH1 0x1 PUSH1 0xA0 SHL SUB AND PUSH4 0x17D7DE7C PUSH1 0x40 MLOAD DUP2 PUSH4 0xFFFFFFFF AND PUSH1 0xE0 SHL DUP2 MSTORE PUSH1 0x4 ADD PUSH1 0x0 PUSH1 0x40 MLOAD DUP1 DUP4 SUB DUP2 DUP7 GAS STATICCALL ISZERO DUP1 ISZERO PUSH2 0x845 JUMPI RETURNDATASIZE PUSH1 0x0 DUP1 RETURNDATACOPY RETURNDATASIZE PUSH1 0x0 REVERT JUMPDEST PUSH1 0x40 MLOAD PUSH2 0x9A1 SWAP2 SWAP1 PUSH2 0x2545 JUMP JUMPDEST SWAP1 DUP2 MSTORE PUSH1 0x40 DUP1 MLOAD PUSH1 0x20 SWAP3 DUP2 SWAP1 SUB DUP4 ADD DUP2 KECCAK256 DUP1 SLOAD PUSH1 0x1 PUSH1 0x1 PUSH1 0xA0 SHL SUB NOT AND PUSH1 0x1 PUSH1 0x1 PUSH1 0xA0 SHL SUB SWAP6 DUP7 AND OR SWAP1 SSTORE DUP5 DUP5 AND PUSH1 0x0 SWAP1 DUP2 MSTORE PUSH1 0x7 SWAP1 SWAP4 MSTORE DUP2 DUP4 KECCAK256 DUP1 SLOAD PUSH1 0xFF NOT AND PUSH1 0x1 OR SWAP1 SSTORE PUSH4 0x382AF56D PUSH1 0xE0 SHL DUP2 MSTORE SWAP1 MLOAD DUP5 SWAP4 PUSH1 0x8 SWAP4 SWAP3 PUSH2 0xA58 SWAP3 SWAP2 DUP10 AND SWAP2 PUSH4 0x382AF56D SWAP2 PUSH1 0x4 DUP1 DUP3 ADD SWAP3 DUP8 SWAP3 SWAP1 SWAP2 SWAP1 DUP3 SWAP1 SUB ADD DUP2 DUP7 GAS STATICCALL ISZERO DUP1 ISZERO PUSH2 0xA2B JUMPI RETURNDATASIZE PUSH1 0x0 DUP1 RETURNDATACOPY RETURNDATASIZE PUSH1 0x0 REVERT JUMPDEST POP POP POP POP PUSH1 0x40 MLOAD RETURNDATASIZE PUSH1 0x0 DUP3 RETURNDATACOPY PUSH1 0x1F RETURNDATASIZE SWAP1 DUP2 ADD PUSH1 0x1F NOT AND DUP3 ADD PUSH1 0x40 MSTORE PUSH2 0xA53 SWAP2 SWAP1 DUP2 ADD SWAP1 PUSH2 0x2301 JUMP JUMPDEST PUSH2 0x16C0 JUMP JUMPDEST DUP1 MLOAD PUSH1 0x20 SWAP2 DUP3 ADD KECCAK256 DUP3 MSTORE DUP2 ADD SWAP2 SWAP1 SWAP2 MSTORE PUSH1 0x40 SWAP1 DUP2 ADD PUSH1 0x0 KECCAK256 DUP1 SLOAD PUSH1 0x1 PUSH1 0x1 PUSH1 0xA0 SHL SUB NOT AND PUSH1 0x1 PUSH1 0x1 PUSH1 0xA0 SHL SUB SWAP4 DUP5 AND OR SWAP1 SSTORE MLOAD PUSH3 0x900F01 PUSH1 0xE4 SHL DUP2 MSTORE DUP3 DUP3 AND PUSH1 0x4 DUP3 ADD MSTORE SWAP1 DUP5 AND SWAP1 PUSH4 0x900F010 SWAP1 PUSH1 0x24 ADD PUSH1 0x0 PUSH1 0x40 MLOAD DUP1 DUP4 SUB DUP2 PUSH1 0x0 DUP8 DUP1 EXTCODESIZE ISZERO DUP1 ISZERO PUSH2 0xAC3 JUMPI PUSH1 0x0 DUP1 REVERT JUMPDEST POP GAS CALL ISZERO DUP1 ISZERO PUSH2 0xAD7 JUMPI RETURNDATASIZE PUSH1 0x0 DUP1 RETURNDATACOPY RETURNDATASIZE PUSH1 0x0 REVERT JUMPDEST POP POP POP POP POP POP POP PUSH2 0xAE8 PUSH1 0x1 PUSH1 0x0 SSTORE JUMP JUMPDEST POP POP POP POP POP JUMP JUMPDEST PUSH1 0x0 DUP3 DUP2 MSTORE PUSH1 0x1 PUSH1 0x20 DUP2 SWAP1 MSTORE PUSH1 0x40 SWAP1 SWAP2 KECCAK256 ADD SLOAD PUSH2 0xB0B DUP2 PUSH2 0x1723 JUMP JUMPDEST PUSH2 0xB15 DUP4 DUP4 PUSH2 0x1730 JUMP JUMPDEST POP POP POP POP JUMP JUMPDEST PUSH1 0x1 PUSH1 0x1 PUSH1 0xA0 SHL SUB DUP2 AND CALLER EQ PUSH2 0xB44 JUMPI PUSH1 0x40 MLOAD PUSH4 0x334BD919 PUSH1 0xE1 SHL DUP2 MSTORE PUSH1 0x4 ADD PUSH1 0x40 MLOAD DUP1 SWAP2 SUB SWAP1 REVERT JUMPDEST PUSH2 0xB4E DUP3 DUP3 PUSH2 0x17A9 JUMP JUMPDEST POP POP POP JUMP JUMPDEST PUSH2 0xB6B PUSH1 0x0 DUP1 MLOAD PUSH1 0x20 PUSH2 0x28BC DUP4 CODECOPY DUP2 MLOAD SWAP2 MSTORE CALLER PUSH2 0xD1A JUMP JUMPDEST PUSH2 0xB87 JUMPI PUSH1 0x40 MLOAD PUSH3 0x461BCD PUSH1 0xE5 SHL DUP2 MSTORE PUSH1 0x4 ADD PUSH2 0x604 SWAP1 PUSH2 0x2561 JUMP JUMPDEST PUSH1 0x1 PUSH1 0x1 PUSH1 0xA0 SHL SUB DUP2 AND PUSH2 0xBED JUMPI PUSH1 0x40 MLOAD PUSH3 0x461BCD PUSH1 0xE5 SHL DUP2 MSTORE PUSH1 0x20 PUSH1 0x4 DUP3 ADD MSTORE PUSH1 0x27 PUSH1 0x24 DUP3 ADD MSTORE PUSH32 0x576F726C645265676973747279305F323A20666163746F72792063616E6E6F74 PUSH1 0x44 DUP3 ADD MSTORE PUSH7 0x2062652030783 PUSH1 0xCC SHL PUSH1 0x64 DUP3 ADD MSTORE PUSH1 0x84 ADD PUSH2 0x604 JUMP JUMPDEST PUSH1 0x3 DUP1 SLOAD PUSH1 0x1 PUSH1 0x1 PUSH1 0xA0 SHL SUB NOT AND PUSH1 0x1 PUSH1 0x1 PUSH1 0xA0 SHL SUB SWAP3 SWAP1 SWAP3 AND SWAP2 SWAP1 SWAP2 OR SWAP1 SSTORE JUMP JUMPDEST PUSH1 0x0 PUSH2 0x4E1 PUSH1 0x0 DUP1 MLOAD PUSH1 0x20 PUSH2 0x289C DUP4 CODECOPY DUP2 MLOAD SWAP2 MSTORE DUP4 PUSH2 0xD1A JUMP JUMPDEST CALLER PUSH1 0x0 SWAP1 DUP2 MSTORE PUSH1 0x7 PUSH1 0x20 MSTORE PUSH1 0x40 SWAP1 KECCAK256 SLOAD PUSH1 0xFF AND PUSH2 0xC9E JUMPI PUSH1 0x40 MLOAD PUSH3 0x461BCD PUSH1 0xE5 SHL DUP2 MSTORE PUSH1 0x20 PUSH1 0x4 DUP3 ADD MSTORE PUSH1 0x2D PUSH1 0x24 DUP3 ADD MSTORE PUSH32 0x576F726C645265676973747279305F323A2063616C6C6572206973206E6F7420 PUSH1 0x44 DUP3 ADD MSTORE PUSH13 0x18481D985B1A590815DBDC9B19 PUSH1 0x9A SHL PUSH1 0x64 DUP3 ADD MSTORE PUSH1 0x84 ADD PUSH2 0x604 JUMP JUMPDEST PUSH2 0xCA6 PUSH2 0x1626 JUMP JUMPDEST PUSH1 0x3 SLOAD PUSH1 0x40 MLOAD PUSH4 0x390B9E3D PUSH1 0xE0 SHL DUP2 MSTORE PUSH1 0x1 PUSH1 0x1 PUSH1 0xA0 SHL SUB SWAP1 SWAP2 AND SWAP1 PUSH4 0x390B9E3D SWAP1 PUSH2 0xCDA SWAP1 CALLER SWAP1 DUP7 SWAP1 DUP7 SWAP1 PUSH1 0x4 ADD PUSH2 0x25A6 JUMP JUMPDEST PUSH1 0x0 PUSH1 0x40 MLOAD DUP1 DUP4 SUB DUP2 PUSH1 0x0 DUP8 DUP1 EXTCODESIZE ISZERO DUP1 ISZERO PUSH2 0xCF4 JUMPI PUSH1 0x0 DUP1 REVERT JUMPDEST POP GAS CALL ISZERO DUP1 ISZERO PUSH2 0xD08 JUMPI RETURNDATASIZE PUSH1 0x0 DUP1 RETURNDATACOPY RETURNDATASIZE PUSH1 0x0 REVERT JUMPDEST POP POP POP POP PUSH2 0xD16 PUSH1 0x1 PUSH1 0x0 SSTORE JUMP JUMPDEST POP POP JUMP JUMPDEST PUSH1 0x0 SWAP2 DUP3 MSTORE PUSH1 0x1 PUSH1 0x20 SWAP1 DUP2 MSTORE PUSH1 0x40 DUP1 DUP5 KECCAK256 PUSH1 0x1 PUSH1 0x1 PUSH1 0xA0 SHL SUB SWAP4 SWAP1 SWAP4 AND DUP5 MSTORE SWAP2 SWAP1 MSTORE SWAP1 KECCAK256 SLOAD PUSH1 0xFF AND SWAP1 JUMP JUMPDEST PUSH1 0xA0 DUP2 ADD MLOAD PUSH1 0x5 SLOAD PUSH1 0x40 MLOAD PUSH4 0x8C9D518F PUSH1 0xE0 SHL DUP2 MSTORE PUSH1 0x4 DUP2 ADD DUP4 SWAP1 MSTORE CALLER PUSH1 0x24 DUP3 ADD MSTORE PUSH1 0x1 PUSH1 0x1 PUSH1 0xA0 SHL SUB SWAP1 SWAP2 AND SWAP1 PUSH4 0x8C9D518F SWAP1 PUSH1 0x44 ADD PUSH1 0x20 PUSH1 0x40 MLOAD DUP1 DUP4 SUB DUP2 DUP7 GAS STATICCALL ISZERO DUP1 ISZERO PUSH2 0xD99 JUMPI RETURNDATASIZE PUSH1 0x0 DUP1 RETURNDATACOPY RETURNDATASIZE PUSH1 0x0 REVERT JUMPDEST POP POP POP POP PUSH1 0x40 MLOAD RETURNDATASIZE PUSH1 0x1F NOT PUSH1 0x1F DUP3 ADD AND DUP3 ADD DUP1 PUSH1 0x40 MSTORE POP DUP2 ADD SWAP1 PUSH2 0xDBD SWAP2 SWAP1 PUSH2 0x2231 JUMP JUMPDEST PUSH2 0xDD9 JUMPI PUSH1 0x40 MLOAD PUSH3 0x461BCD PUSH1 0xE5 SHL DUP2 MSTORE PUSH1 0x4 ADD PUSH2 0x604 SWAP1 PUSH2 0x224E JUMP JUMPDEST PUSH2 0xDE1 PUSH2 0x1626 JUMP JUMPDEST PUSH1 0x0 PUSH2 0xDF0 DUP4 PUSH1 0x80 ADD MLOAD PUSH2 0x1650 JUMP JUMPDEST SWAP1 POP PUSH1 0x0 PUSH1 0x1 PUSH1 0x1 PUSH1 0xA0 SHL SUB AND PUSH1 0x6 DUP3 PUSH1 0x40 MLOAD PUSH2 0xE0D SWAP2 SWAP1 PUSH2 0x2545 JUMP JUMPDEST SWAP1 DUP2 MSTORE PUSH1 0x40 MLOAD SWAP1 DUP2 SWAP1 SUB PUSH1 0x20 ADD SWAP1 KECCAK256 SLOAD PUSH1 0x1 PUSH1 0x1 PUSH1 0xA0 SHL SUB AND EQ PUSH2 0xE81 JUMPI PUSH1 0x40 MLOAD PUSH3 0x461BCD PUSH1 0xE5 SHL DUP2 MSTORE PUSH1 0x20 PUSH1 0x4 DUP3 ADD MSTORE PUSH1 0x25 PUSH1 0x24 DUP3 ADD MSTORE PUSH32 0x576F726C645265676973747279305F323A206E616D6520616C72656164792069 PUSH1 0x44 DUP3 ADD MSTORE PUSH5 0x6E20757365 PUSH1 0xD8 SHL PUSH1 0x64 DUP3 ADD MSTORE PUSH1 0x84 ADD PUSH2 0x604 JUMP JUMPDEST PUSH1 0x4 SLOAD PUSH1 0x1 PUSH1 0x1 PUSH1 0xA0 SHL SUB AND ISZERO DUP1 ISZERO SWAP1 PUSH2 0xEA7 JUMPI POP PUSH1 0x20 DUP4 ADD MLOAD PUSH1 0x1 PUSH1 0x1 PUSH1 0xA0 SHL SUB AND ISZERO ISZERO JUMPDEST ISZERO PUSH2 0xFA1 JUMPI PUSH1 0x4 DUP1 SLOAD PUSH1 0x20 DUP6 ADD MLOAD PUSH1 0x40 MLOAD PUSH4 0x7856879F PUSH1 0xE1 SHL DUP2 MSTORE PUSH1 0x1 PUSH1 0x1 PUSH1 0xA0 SHL SUB SWAP2 DUP3 AND SWAP4 DUP2 ADD SWAP4 SWAP1 SWAP4 MSTORE AND SWAP1 PUSH4 0xF0AD0F3E SWAP1 PUSH1 0x24 ADD PUSH1 0x20 PUSH1 0x40 MLOAD DUP1 DUP4 SUB DUP2 DUP7 GAS STATICCALL ISZERO DUP1 ISZERO PUSH2 0xEFC JUMPI RETURNDATASIZE PUSH1 0x0 DUP1 RETURNDATACOPY RETURNDATASIZE PUSH1 0x0 REVERT JUMPDEST POP POP POP POP PUSH1 0x40 MLOAD RETURNDATASIZE PUSH1 0x1F NOT PUSH1 0x1F DUP3 ADD AND DUP3 ADD DUP1 PUSH1 0x40 MSTORE POP DUP2 ADD SWAP1 PUSH2 0xF20 SWAP2 SWAP1 PUSH2 0x2231 JUMP JUMPDEST PUSH2 0xFA1 JUMPI PUSH1 0x40 MLOAD PUSH3 0x461BCD PUSH1 0xE5 SHL DUP2 MSTORE PUSH1 0x20 PUSH1 0x4 DUP3 ADD MSTORE PUSH1 0x46 PUSH1 0x24 DUP3 ADD MSTORE PUSH32 0x576F726C645265676973747279305F323A206F6C64576F726C64206973206E6F PUSH1 0x44 DUP3 ADD MSTORE PUSH32 0x7420612076616C696420776F726C642066726F6D2070726576696F7573207265 PUSH1 0x64 DUP3 ADD MSTORE PUSH6 0x676973747279 PUSH1 0xD0 SHL PUSH1 0x84 DUP3 ADD MSTORE PUSH1 0xA4 ADD PUSH2 0x604 JUMP JUMPDEST PUSH1 0xA0 DUP4 ADD MLOAD PUSH1 0xE0 DUP5 ADD MLOAD PUSH1 0x60 DUP6 ADD MLOAD PUSH1 0x0 SWAP3 PUSH2 0xFBC SWAP3 PUSH2 0x1816 JUMP JUMPDEST SWAP1 POP PUSH2 0xFD6 PUSH1 0x0 DUP1 MLOAD PUSH1 0x20 PUSH2 0x289C DUP4 CODECOPY DUP2 MLOAD SWAP2 MSTORE DUP3 PUSH2 0xD1A JUMP JUMPDEST PUSH2 0x1058 JUMPI PUSH1 0x40 MLOAD PUSH3 0x461BCD PUSH1 0xE5 SHL DUP2 MSTORE PUSH1 0x20 PUSH1 0x4 DUP3 ADD MSTORE PUSH1 0x47 PUSH1 0x24 DUP3 ADD MSTORE PUSH32 0x576F726C645265676973747279305F323A20766563746F72207369676E657220 PUSH1 0x44 DUP3 ADD MSTORE PUSH32 0x6973206E6F7420612076616C696420766563746F722061646472657373206175 PUSH1 0x64 DUP3 ADD MSTORE PUSH7 0x74686F72697479 PUSH1 0xC8 SHL PUSH1 0x84 DUP3 ADD MSTORE PUSH1 0xA4 ADD PUSH2 0x604 JUMP JUMPDEST PUSH1 0x60 DUP5 ADD MLOAD MLOAD MLOAD PUSH1 0x0 SUB PUSH2 0x10C4 JUMPI PUSH1 0x40 MLOAD PUSH3 0x461BCD PUSH1 0xE5 SHL DUP2 MSTORE PUSH1 0x20 PUSH1 0x4 DUP3 ADD MSTORE PUSH1 0x2D PUSH1 0x24 DUP3 ADD MSTORE PUSH32 0x576F726C645265676973747279305F323A2062617365566563746F722E782063 PUSH1 0x44 DUP3 ADD MSTORE PUSH13 0x616E6E6F74206265207A65726F PUSH1 0x98 SHL PUSH1 0x64 DUP3 ADD MSTORE PUSH1 0x84 ADD PUSH2 0x604 JUMP JUMPDEST DUP4 PUSH1 0x60 ADD MLOAD PUSH1 0x20 ADD MLOAD MLOAD PUSH1 0x0 SUB PUSH2 0x1133 JUMPI PUSH1 0x40 MLOAD PUSH3 0x461BCD PUSH1 0xE5 SHL DUP2 MSTORE PUSH1 0x20 PUSH1 0x4 DUP3 ADD MSTORE PUSH1 0x2D PUSH1 0x24 DUP3 ADD MSTORE PUSH32 0x576F726C645265676973747279305F323A2062617365566563746F722E792063 PUSH1 0x44 DUP3 ADD MSTORE PUSH13 0x616E6E6F74206265207A65726F PUSH1 0x98 SHL PUSH1 0x64 DUP3 ADD MSTORE PUSH1 0x84 ADD PUSH2 0x604 JUMP JUMPDEST DUP4 PUSH1 0x60 ADD MLOAD PUSH1 0x40 ADD MLOAD MLOAD PUSH1 0x0 SUB PUSH2 0x11A2 JUMPI PUSH1 0x40 MLOAD PUSH3 0x461BCD PUSH1 0xE5 SHL DUP2 MSTORE PUSH1 0x20 PUSH1 0x4 DUP3 ADD MSTORE PUSH1 0x2D PUSH1 0x24 DUP3 ADD MSTORE PUSH32 0x576F726C645265676973747279305F323A2062617365566563746F722E7A2063 PUSH1 0x44 DUP3 ADD MSTORE PUSH13 0x616E6E6F74206265207A65726F PUSH1 0x98 SHL PUSH1 0x64 DUP3 ADD MSTORE PUSH1 0x84 ADD PUSH2 0x604 JUMP JUMPDEST PUSH1 0x0 PUSH1 0x40 MLOAD DUP1 PUSH1 0xC0 ADD PUSH1 0x40 MSTORE DUP1 DUP7 PUSH1 0x60 ADD MLOAD PUSH1 0x0 ADD MLOAD DUP2 MSTORE PUSH1 0x20 ADD DUP7 PUSH1 0x60 ADD MLOAD PUSH1 0x20 ADD MLOAD DUP2 MSTORE PUSH1 0x20 ADD DUP7 PUSH1 0x60 ADD MLOAD PUSH1 0x40 ADD MLOAD DUP2 MSTORE PUSH1 0x20 ADD DUP7 PUSH1 0x60 ADD MLOAD PUSH1 0x60 ADD MLOAD DUP2 MSTORE PUSH1 0x20 ADD PUSH1 0x0 DUP2 MSTORE PUSH1 0x20 ADD PUSH1 0x0 DUP2 MSTORE POP SWAP1 POP PUSH1 0x0 PUSH2 0x1200 DUP3 PUSH2 0x16C0 JUMP JUMPDEST DUP1 MLOAD PUSH1 0x20 SWAP2 DUP3 ADD KECCAK256 PUSH1 0x0 DUP2 DUP2 MSTORE PUSH1 0x8 SWAP1 SWAP3 MSTORE PUSH1 0x40 SWAP1 SWAP2 KECCAK256 SLOAD SWAP1 SWAP2 POP PUSH1 0x1 PUSH1 0x1 PUSH1 0xA0 SHL SUB AND ISZERO PUSH2 0x1281 JUMPI PUSH1 0x40 MLOAD PUSH3 0x461BCD PUSH1 0xE5 SHL DUP2 MSTORE PUSH1 0x20 PUSH1 0x4 DUP3 ADD MSTORE PUSH1 0x27 PUSH1 0x24 DUP3 ADD MSTORE PUSH32 0x576F726C645265676973747279305F323A20766563746F7220616C7265616479 PUSH1 0x44 DUP3 ADD MSTORE PUSH7 0x20696E20757365 PUSH1 0xC8 SHL PUSH1 0x64 DUP3 ADD MSTORE PUSH1 0x84 ADD PUSH2 0x604 JUMP JUMPDEST PUSH1 0x3 SLOAD PUSH1 0x40 DUP1 MLOAD PUSH1 0xA0 DUP2 ADD DUP3 MSTORE DUP9 DUP3 ADD MLOAD PUSH1 0x1 PUSH1 0x1 PUSH1 0xA0 SHL SUB SWAP1 DUP2 AND DUP3 MSTORE PUSH1 0x20 DUP1 DUP12 ADD MLOAD DUP3 AND SWAP1 DUP4 ADD MSTORE DUP2 DUP4 ADD DUP7 SWAP1 MSTORE PUSH1 0x60 DUP3 ADD DUP9 SWAP1 MSTORE PUSH1 0xC0 DUP11 ADD MLOAD PUSH1 0x80 DUP4 ADD MSTORE SWAP2 MLOAD PUSH4 0x82F91FF PUSH1 0xE4 SHL DUP2 MSTORE PUSH1 0x0 SWAP4 SWAP3 SWAP1 SWAP3 AND SWAP2 PUSH4 0x82F91FF0 SWAP2 PUSH2 0x12E8 SWAP2 PUSH1 0x4 ADD PUSH2 0x247D JUMP JUMPDEST PUSH1 0x20 PUSH1 0x40 MLOAD DUP1 DUP4 SUB DUP2 PUSH1 0x0 DUP8 GAS CALL ISZERO DUP1 ISZERO PUSH2 0x1307 JUMPI RETURNDATASIZE PUSH1 0x0 DUP1 RETURNDATACOPY RETURNDATASIZE PUSH1 0x0 REVERT JUMPDEST POP POP POP POP PUSH1 0x40 MLOAD RETURNDATASIZE PUSH1 0x1F NOT PUSH1 0x1F DUP3 ADD AND DUP3 ADD DUP1 PUSH1 0x40 MSTORE POP DUP2 ADD SWAP1 PUSH2 0x132B SWAP2 SWAP1 PUSH2 0x229F JUMP JUMPDEST SWAP1 POP PUSH1 0x1 PUSH1 0x1 PUSH1 0xA0 SHL SUB DUP2 AND PUSH2 0x1353 JUMPI PUSH1 0x40 MLOAD PUSH3 0x461BCD PUSH1 0xE5 SHL DUP2 MSTORE PUSH1 0x4 ADD PUSH2 0x604 SWAP1 PUSH2 0x24FE JUMP JUMPDEST DUP1 PUSH1 0x6 DUP7 PUSH1 0x40 MLOAD PUSH2 0x1364 SWAP2 SWAP1 PUSH2 0x2545 JUMP JUMPDEST SWAP1 DUP2 MSTORE PUSH1 0x40 DUP1 MLOAD PUSH1 0x20 SWAP3 DUP2 SWAP1 SUB DUP4 ADD SWAP1 KECCAK256 DUP1 SLOAD PUSH1 0x1 PUSH1 0x1 PUSH1 0xA0 SHL SUB NOT SWAP1 DUP2 AND PUSH1 0x1 PUSH1 0x1 PUSH1 0xA0 SHL SUB SWAP6 DUP7 AND OR SWAP1 SWAP2 SSTORE SWAP3 DUP5 AND PUSH1 0x0 DUP2 DUP2 MSTORE PUSH1 0x7 DUP5 MSTORE DUP3 DUP2 KECCAK256 DUP1 SLOAD PUSH1 0xFF NOT AND PUSH1 0x1 OR SWAP1 SSTORE DUP7 DUP2 MSTORE PUSH1 0x8 SWAP1 SWAP4 MSTORE SWAP2 KECCAK256 DUP1 SLOAD SWAP1 SWAP3 AND OR SWAP1 SSTORE CALLVALUE ISZERO PUSH2 0x1445 JUMPI DUP7 MLOAD ISZERO PUSH2 0x140E JUMPI DUP7 PUSH1 0x40 ADD MLOAD PUSH1 0x1 PUSH1 0x1 PUSH1 0xA0 SHL SUB AND PUSH2 0x8FC CALLVALUE SWAP1 DUP2 ISZERO MUL SWAP1 PUSH1 0x40 MLOAD PUSH1 0x0 PUSH1 0x40 MLOAD DUP1 DUP4 SUB DUP2 DUP6 DUP9 DUP9 CALL SWAP4 POP POP POP POP ISZERO DUP1 ISZERO PUSH2 0x1408 JUMPI RETURNDATASIZE PUSH1 0x0 DUP1 RETURNDATACOPY RETURNDATASIZE PUSH1 0x0 REVERT JUMPDEST POP PUSH2 0x1445 JUMP JUMPDEST PUSH1 0x40 MLOAD PUSH1 0x1 PUSH1 0x1 PUSH1 0xA0 SHL SUB DUP3 AND SWAP1 CALLVALUE DUP1 ISZERO PUSH2 0x8FC MUL SWAP2 PUSH1 0x0 DUP2 DUP2 DUP2 DUP6 DUP9 DUP9 CALL SWAP4 POP POP POP POP ISZERO DUP1 ISZERO PUSH2 0x1443 JUMPI RETURNDATASIZE PUSH1 0x0 DUP1 RETURNDATACOPY RETURNDATASIZE PUSH1 0x0 REVERT JUMPDEST POP JUMPDEST DUP7 PUSH1 0x40 ADD MLOAD PUSH1 0x1 PUSH1 0x1 PUSH1 0xA0 SHL SUB AND DUP2 PUSH1 0x1 PUSH1 0x1 PUSH1 0xA0 SHL SUB AND PUSH32 0xEE32BDF3024960EAB0CC65F92F4AB288808FF5501B8132B269630D3FA070005E DUP6 PUSH1 0x40 MLOAD PUSH2 0x148C SWAP2 SWAP1 PUSH2 0x25E6 JUMP JUMPDEST PUSH1 0x40 MLOAD DUP1 SWAP2 SUB SWAP1 LOG3 POP POP POP POP POP PUSH2 0xD16 PUSH1 0x1 PUSH1 0x0 SSTORE JUMP JUMPDEST PUSH2 0x14BB PUSH1 0x0 DUP1 MLOAD PUSH1 0x20 PUSH2 0x28BC DUP4 CODECOPY DUP2 MLOAD SWAP2 MSTORE CALLER PUSH2 0xD1A JUMP JUMPDEST PUSH2 0x14D7 JUMPI PUSH1 0x40 MLOAD PUSH3 0x461BCD PUSH1 0xE5 SHL DUP2 MSTORE PUSH1 0x4 ADD PUSH2 0x604 SWAP1 PUSH2 0x2561 JUMP JUMPDEST PUSH1 0x9 PUSH2 0xD16 DUP3 DUP3 PUSH2 0x2649 JUMP JUMPDEST PUSH1 0x0 PUSH1 0x6 PUSH2 0x14F0 DUP4 PUSH2 0x1650 JUMP JUMPDEST PUSH1 0x40 MLOAD PUSH2 0x14FD SWAP2 SWAP1 PUSH2 0x2545 JUMP JUMPDEST SWAP1 DUP2 MSTORE PUSH1 0x40 MLOAD SWAP1 DUP2 SWAP1 SUB PUSH1 0x20 ADD SWAP1 KECCAK256 SLOAD PUSH1 0x1 PUSH1 0x1 PUSH1 0xA0 SHL SUB AND SWAP3 SWAP2 POP POP JUMP JUMPDEST PUSH1 0x0 DUP3 DUP2 MSTORE PUSH1 0x1 PUSH1 0x20 DUP2 SWAP1 MSTORE PUSH1 0x40 SWAP1 SWAP2 KECCAK256 ADD SLOAD PUSH2 0x1538 DUP2 PUSH2 0x1723 JUMP JUMPDEST PUSH2 0xB15 DUP4 DUP4 PUSH2 0x17A9 JUMP JUMPDEST PUSH2 0x155A PUSH1 0x0 DUP1 MLOAD PUSH1 0x20 PUSH2 0x28BC DUP4 CODECOPY DUP2 MLOAD SWAP2 MSTORE CALLER PUSH2 0xD1A JUMP JUMPDEST PUSH2 0x1576 JUMPI PUSH1 0x40 MLOAD PUSH3 0x461BCD PUSH1 0xE5 SHL DUP2 MSTORE PUSH1 0x4 ADD PUSH2 0x604 SWAP1 PUSH2 0x2561 JUMP JUMPDEST PUSH1 0x1 PUSH1 0x1 PUSH1 0xA0 SHL SUB DUP2 AND PUSH2 0x159C JUMPI PUSH1 0x40 MLOAD PUSH3 0x461BCD PUSH1 0xE5 SHL DUP2 MSTORE PUSH1 0x4 ADD PUSH2 0x604 SWAP1 PUSH2 0x2708 JUMP JUMPDEST PUSH2 0xD16 PUSH1 0x0 DUP1 MLOAD PUSH1 0x20 PUSH2 0x289C DUP4 CODECOPY DUP2 MLOAD SWAP2 MSTORE DUP3 PUSH2 0x1730 JUMP JUMPDEST PUSH2 0x15CC PUSH1 0x0 DUP1 MLOAD PUSH1 0x20 PUSH2 0x28BC DUP4 CODECOPY DUP2 MLOAD SWAP2 MSTORE CALLER PUSH2 0xD1A JUMP JUMPDEST PUSH2 0x15E8 JUMPI PUSH1 0x40 MLOAD PUSH3 0x461BCD PUSH1 0xE5 SHL DUP2 MSTORE PUSH1 0x4 ADD PUSH2 0x604 SWAP1 PUSH2 0x2561 JUMP JUMPDEST PUSH1 0x1 PUSH1 0x1 PUSH1 0xA0 SHL SUB DUP2 AND PUSH2 0x160E JUMPI PUSH1 0x40 MLOAD PUSH3 0x461BCD PUSH1 0xE5 SHL DUP2 MSTORE PUSH1 0x4 ADD PUSH2 0x604 SWAP1 PUSH2 0x2708 JUMP JUMPDEST PUSH2 0xD16 PUSH1 0x0 DUP1 MLOAD PUSH1 0x20 PUSH2 0x289C DUP4 CODECOPY DUP2 MLOAD SWAP2 MSTORE DUP3 PUSH2 0x17A9 JUMP JUMPDEST PUSH1 0x2 PUSH1 0x0 SLOAD SUB PUSH2 0x1649 JUMPI PUSH1 0x40 MLOAD PUSH4 0x3EE5AEB5 PUSH1 0xE0 SHL DUP2 MSTORE PUSH1 0x4 ADD PUSH1 0x40 MLOAD DUP1 SWAP2 SUB SWAP1 REVERT JUMPDEST PUSH1 0x2 PUSH1 0x0 SSTORE JUMP JUMPDEST PUSH1 0x60 DUP2 PUSH1 0x0 JUMPDEST DUP2 MLOAD DUP2 LT ISZERO PUSH2 0x16B9 JUMPI PUSH2 0x1688 DUP3 DUP3 DUP2 MLOAD DUP2 LT PUSH2 0x1674 JUMPI PUSH2 0x1674 PUSH2 0x274C JUMP JUMPDEST ADD PUSH1 0x20 ADD MLOAD PUSH1 0x1 PUSH1 0x1 PUSH1 0xF8 SHL SUB NOT AND PUSH2 0x189E JUMP JUMPDEST DUP3 DUP3 DUP2 MLOAD DUP2 LT PUSH2 0x169A JUMPI PUSH2 0x169A PUSH2 0x274C JUMP JUMPDEST PUSH1 0x20 ADD ADD SWAP1 PUSH1 0x1 PUSH1 0x1 PUSH1 0xF8 SHL SUB NOT AND SWAP1 DUP2 PUSH1 0x0 BYTE SWAP1 MSTORE8 POP PUSH1 0x1 ADD PUSH2 0x1656 JUMP JUMPDEST POP SWAP3 SWAP2 POP POP JUMP JUMPDEST PUSH1 0x60 DUP2 PUSH1 0x0 ADD MLOAD DUP3 PUSH1 0x20 ADD MLOAD DUP4 PUSH1 0x40 ADD MLOAD PUSH2 0x16DE DUP6 PUSH1 0x60 ADD MLOAD PUSH2 0x18ED JUMP JUMPDEST PUSH2 0x16EB DUP7 PUSH1 0x80 ADD MLOAD PUSH2 0x18ED JUMP JUMPDEST PUSH2 0x16F8 DUP8 PUSH1 0xA0 ADD MLOAD PUSH2 0x18ED JUMP JUMPDEST PUSH1 0x40 MLOAD PUSH1 0x20 ADD PUSH2 0x170D SWAP7 SWAP6 SWAP5 SWAP4 SWAP3 SWAP2 SWAP1 PUSH2 0x2762 JUMP JUMPDEST PUSH1 0x40 MLOAD PUSH1 0x20 DUP2 DUP4 SUB SUB DUP2 MSTORE SWAP1 PUSH1 0x40 MSTORE SWAP1 POP SWAP2 SWAP1 POP JUMP JUMPDEST PUSH2 0x172D DUP2 CALLER PUSH2 0x197F JUMP JUMPDEST POP JUMP JUMPDEST PUSH1 0x0 PUSH2 0x173C DUP4 DUP4 PUSH2 0xD1A JUMP JUMPDEST PUSH2 0x17A1 JUMPI PUSH1 0x0 DUP4 DUP2 MSTORE PUSH1 0x1 PUSH1 0x20 DUP2 DUP2 MSTORE PUSH1 0x40 DUP1 DUP5 KECCAK256 PUSH1 0x1 PUSH1 0x1 PUSH1 0xA0 SHL SUB DUP8 AND DUP1 DUP7 MSTORE SWAP3 MSTORE DUP1 DUP5 KECCAK256 DUP1 SLOAD PUSH1 0xFF NOT AND SWAP1 SWAP4 OR SWAP1 SWAP3 SSTORE SWAP1 MLOAD CALLER SWAP3 DUP7 SWAP2 PUSH32 0x2F8788117E7EFF1D82E926EC794901D17C78024A50270940304540A733656F0D SWAP2 SWAP1 LOG4 POP PUSH1 0x1 PUSH2 0x4E1 JUMP JUMPDEST POP PUSH1 0x0 PUSH2 0x4E1 JUMP JUMPDEST PUSH1 0x0 PUSH2 0x17B5 DUP4 DUP4 PUSH2 0xD1A JUMP JUMPDEST ISZERO PUSH2 0x17A1 JUMPI PUSH1 0x0 DUP4 DUP2 MSTORE PUSH1 0x1 PUSH1 0x20 SWAP1 DUP2 MSTORE PUSH1 0x40 DUP1 DUP4 KECCAK256 PUSH1 0x1 PUSH1 0x1 PUSH1 0xA0 SHL SUB DUP7 AND DUP1 DUP6 MSTORE SWAP3 MSTORE DUP1 DUP4 KECCAK256 DUP1 SLOAD PUSH1 0xFF NOT AND SWAP1 SSTORE MLOAD CALLER SWAP3 DUP7 SWAP2 PUSH32 0xF6391F5C32D9C69D2A47EA670B442974B53935D1EDC7FD64EB21E047A839171B SWAP2 SWAP1 LOG4 POP PUSH1 0x1 PUSH2 0x4E1 JUMP JUMPDEST PUSH1 0x0 DUP1 PUSH2 0x1822 DUP6 PUSH2 0x16C0 JUMP JUMPDEST SWAP1 POP PUSH1 0x0 DUP2 DUP6 PUSH1 0x40 MLOAD PUSH1 0x20 ADD PUSH2 0x1839 SWAP3 SWAP2 SWAP1 PUSH2 0x27E1 JUMP JUMPDEST PUSH1 0x40 DUP1 MLOAD DUP1 DUP4 SUB PUSH1 0x1F NOT ADD DUP2 MSTORE DUP3 DUP3 MSTORE DUP1 MLOAD PUSH1 0x20 DUP1 DUP4 ADD SWAP2 SWAP1 SWAP2 KECCAK256 DUP2 DUP6 MSTORE DUP5 DUP5 ADD SWAP1 SWAP4 MSTORE SWAP1 SWAP4 POP SWAP1 SWAP2 PUSH1 0x0 SWAP2 PUSH1 0x20 DUP3 ADD DUP2 DUP1 CALLDATASIZE DUP4 CALLDATACOPY ADD SWAP1 POP POP SWAP1 POP DUP2 PUSH1 0x20 DUP3 ADD MSTORE PUSH1 0x0 PUSH2 0x1885 DUP3 PUSH2 0x19B8 JUMP JUMPDEST SWAP1 POP PUSH2 0x1891 DUP2 DUP9 PUSH2 0x19F3 JUMP JUMPDEST SWAP10 SWAP9 POP POP POP POP POP POP POP POP POP JUMP JUMPDEST PUSH1 0x0 PUSH1 0x41 PUSH1 0xF8 SHL PUSH1 0x1 PUSH1 0x1 PUSH1 0xF8 SHL SUB NOT DUP4 AND LT DUP1 ISZERO SWAP1 PUSH2 0x18CC JUMPI POP PUSH1 0x2D PUSH1 0xF9 SHL PUSH1 0x1 PUSH1 0x1 PUSH1 0xF8 SHL SUB NOT DUP4 AND GT ISZERO JUMPDEST ISZERO PUSH2 0x18E9 JUMPI PUSH2 0x18E0 PUSH1 0xF8 DUP4 SWAP1 SHR PUSH1 0x20 PUSH2 0x2803 JUMP JUMPDEST PUSH1 0xF8 SHL SWAP3 SWAP2 POP POP JUMP JUMPDEST POP SWAP1 JUMP JUMPDEST PUSH1 0x60 PUSH1 0x0 PUSH2 0x18FA DUP4 PUSH2 0x1A1D JUMP JUMPDEST PUSH1 0x1 ADD SWAP1 POP PUSH1 0x0 DUP2 PUSH1 0x1 PUSH1 0x1 PUSH1 0x40 SHL SUB DUP2 GT ISZERO PUSH2 0x1919 JUMPI PUSH2 0x1919 PUSH2 0x1ECD JUMP JUMPDEST PUSH1 0x40 MLOAD SWAP1 DUP1 DUP3 MSTORE DUP1 PUSH1 0x1F ADD PUSH1 0x1F NOT AND PUSH1 0x20 ADD DUP3 ADD PUSH1 0x40 MSTORE DUP1 ISZERO PUSH2 0x1943 JUMPI PUSH1 0x20 DUP3 ADD DUP2 DUP1 CALLDATASIZE DUP4 CALLDATACOPY ADD SWAP1 POP JUMPDEST POP SWAP1 POP DUP2 DUP2 ADD PUSH1 0x20 ADD JUMPDEST PUSH1 0x0 NOT ADD PUSH16 0x181899199A1A9B1B9C1CB0B131B232B3 PUSH1 0x81 SHL PUSH1 0xA DUP7 MOD BYTE DUP2 MSTORE8 PUSH1 0xA DUP6 DIV SWAP5 POP DUP5 PUSH2 0x194D JUMPI POP SWAP4 SWAP3 POP POP POP JUMP JUMPDEST PUSH2 0x1989 DUP3 DUP3 PUSH2 0xD1A JUMP JUMPDEST PUSH2 0xD16 JUMPI PUSH1 0x40 MLOAD PUSH4 0xE2517D3F PUSH1 0xE0 SHL DUP2 MSTORE PUSH1 0x1 PUSH1 0x1 PUSH1 0xA0 SHL SUB DUP3 AND PUSH1 0x4 DUP3 ADD MSTORE PUSH1 0x24 DUP2 ADD DUP4 SWAP1 MSTORE PUSH1 0x44 ADD PUSH2 0x604 JUMP JUMPDEST PUSH1 0x0 PUSH2 0x19C4 DUP3 MLOAD PUSH2 0x18ED JUMP JUMPDEST DUP3 PUSH1 0x40 MLOAD PUSH1 0x20 ADD PUSH2 0x19D6 SWAP3 SWAP2 SWAP1 PUSH2 0x282A JUMP JUMPDEST PUSH1 0x40 MLOAD PUSH1 0x20 DUP2 DUP4 SUB SUB DUP2 MSTORE SWAP1 PUSH1 0x40 MSTORE DUP1 MLOAD SWAP1 PUSH1 0x20 ADD KECCAK256 SWAP1 POP SWAP2 SWAP1 POP JUMP JUMPDEST PUSH1 0x0 DUP1 PUSH1 0x0 DUP1 PUSH2 0x1A03 DUP7 DUP7 PUSH2 0x1AF5 JUMP JUMPDEST SWAP3 POP SWAP3 POP SWAP3 POP PUSH2 0x1A13 DUP3 DUP3 PUSH2 0x1B42 JUMP JUMPDEST POP SWAP1 SWAP5 SWAP4 POP POP POP POP JUMP JUMPDEST PUSH1 0x0 DUP1 PUSH19 0x184F03E93FF9F4DAA797ED6E38ED64BF6A1F01 PUSH1 0x40 SHL DUP4 LT PUSH2 0x1A5C JUMPI PUSH19 0x184F03E93FF9F4DAA797ED6E38ED64BF6A1F01 PUSH1 0x40 SHL DUP4 DIV SWAP3 POP PUSH1 0x40 ADD JUMPDEST PUSH14 0x4EE2D6D415B85ACEF8100000000 DUP4 LT PUSH2 0x1A88 JUMPI PUSH14 0x4EE2D6D415B85ACEF8100000000 DUP4 DIV SWAP3 POP PUSH1 0x20 ADD JUMPDEST PUSH7 0x2386F26FC10000 DUP4 LT PUSH2 0x1AA6 JUMPI PUSH7 0x2386F26FC10000 DUP4 DIV SWAP3 POP PUSH1 0x10 ADD JUMPDEST PUSH4 0x5F5E100 DUP4 LT PUSH2 0x1ABE JUMPI PUSH4 0x5F5E100 DUP4 DIV SWAP3 POP PUSH1 0x8 ADD JUMPDEST PUSH2 0x2710 DUP4 LT PUSH2 0x1AD2 JUMPI PUSH2 0x2710 DUP4 DIV SWAP3 POP PUSH1 0x4 ADD JUMPDEST PUSH1 0x64 DUP4 LT PUSH2 0x1AE4 JUMPI PUSH1 0x64 DUP4 DIV SWAP3 POP PUSH1 0x2 ADD JUMPDEST PUSH1 0xA DUP4 LT PUSH2 0x4E1 JUMPI PUSH1 0x1 ADD SWAP3 SWAP2 POP POP JUMP JUMPDEST PUSH1 0x0 DUP1 PUSH1 0x0 DUP4 MLOAD PUSH1 0x41 SUB PUSH2 0x1B2F JUMPI PUSH1 0x20 DUP5 ADD MLOAD PUSH1 0x40 DUP6 ADD MLOAD PUSH1 0x60 DUP7 ADD MLOAD PUSH1 0x0 BYTE PUSH2 0x1B21 DUP9 DUP3 DUP6 DUP6 PUSH2 0x1BFB JUMP JUMPDEST SWAP6 POP SWAP6 POP SWAP6 POP POP POP POP PUSH2 0x1B3B JUMP JUMPDEST POP POP DUP2 MLOAD PUSH1 0x0 SWAP2 POP PUSH1 0x2 SWAP1 JUMPDEST SWAP3 POP SWAP3 POP SWAP3 JUMP JUMPDEST PUSH1 0x0 DUP3 PUSH1 0x3 DUP2 GT ISZERO PUSH2 0x1B56 JUMPI PUSH2 0x1B56 PUSH2 0x2885 JUMP JUMPDEST SUB PUSH2 0x1B5F JUMPI POP POP JUMP JUMPDEST PUSH1 0x1 DUP3 PUSH1 0x3 DUP2 GT ISZERO PUSH2 0x1B73 JUMPI PUSH2 0x1B73 PUSH2 0x2885 JUMP JUMPDEST SUB PUSH2 0x1B91 JUMPI PUSH1 0x40 MLOAD PUSH4 0xF645EEDF PUSH1 0xE0 SHL DUP2 MSTORE PUSH1 0x4 ADD PUSH1 0x40 MLOAD DUP1 SWAP2 SUB SWAP1 REVERT JUMPDEST PUSH1 0x2 DUP3 PUSH1 0x3 DUP2 GT ISZERO PUSH2 0x1BA5 JUMPI PUSH2 0x1BA5 PUSH2 0x2885 JUMP JUMPDEST SUB PUSH2 0x1BC6 JUMPI PUSH1 0x40 MLOAD PUSH4 0xFCE698F7 PUSH1 0xE0 SHL DUP2 MSTORE PUSH1 0x4 DUP2 ADD DUP3 SWAP1 MSTORE PUSH1 0x24 ADD PUSH2 0x604 JUMP JUMPDEST PUSH1 0x3 DUP3 PUSH1 0x3 DUP2 GT ISZERO PUSH2 0x1BDA JUMPI PUSH2 0x1BDA PUSH2 0x2885 JUMP JUMPDEST SUB PUSH2 0xD16 JUMPI PUSH1 0x40 MLOAD PUSH4 0x35E2F383 PUSH1 0xE2 SHL DUP2 MSTORE PUSH1 0x4 DUP2 ADD DUP3 SWAP1 MSTORE PUSH1 0x24 ADD PUSH2 0x604 JUMP JUMPDEST PUSH1 0x0 DUP1 DUP1 PUSH32 0x7FFFFFFFFFFFFFFFFFFFFFFFFFFFFFFF5D576E7357A4501DDFE92F46681B20A0 DUP5 GT ISZERO PUSH2 0x1C36 JUMPI POP PUSH1 0x0 SWAP2 POP PUSH1 0x3 SWAP1 POP DUP3 PUSH2 0x1CC0 JUMP JUMPDEST PUSH1 0x40 DUP1 MLOAD PUSH1 0x0 DUP1 DUP3 MSTORE PUSH1 0x20 DUP3 ADD DUP1 DUP5 MSTORE DUP11 SWAP1 MSTORE PUSH1 0xFF DUP10 AND SWAP3 DUP3 ADD SWAP3 SWAP1 SWAP3 MSTORE PUSH1 0x60 DUP2 ADD DUP8 SWAP1 MSTORE PUSH1 0x80 DUP2 ADD DUP7 SWAP1 MSTORE PUSH1 0x1 SWAP1 PUSH1 0xA0 ADD PUSH1 0x20 PUSH1 0x40 MLOAD PUSH1 0x20 DUP2 SUB SWAP1 DUP1 DUP5 SUB SWAP1 DUP6 GAS STATICCALL ISZERO DUP1 ISZERO PUSH2 0x1C8A JUMPI RETURNDATASIZE PUSH1 0x0 DUP1 RETURNDATACOPY RETURNDATASIZE PUSH1 0x0 REVERT JUMPDEST POP POP PUSH1 0x40 MLOAD PUSH1 0x1F NOT ADD MLOAD SWAP2 POP POP PUSH1 0x1 PUSH1 0x1 PUSH1 0xA0 SHL SUB DUP2 AND PUSH2 0x1CB6 JUMPI POP PUSH1 0x0 SWAP3 POP PUSH1 0x1 SWAP2 POP DUP3 SWAP1 POP PUSH2 0x1CC0 JUMP JUMPDEST SWAP3 POP PUSH1 0x0 SWAP2 POP DUP2 SWAP1 POP JUMPDEST SWAP5 POP SWAP5 POP SWAP5 SWAP2 POP POP JUMP JUMPDEST PUSH1 0x0 PUSH1 0x20 DUP3 DUP5 SUB SLT ISZERO PUSH2 0x1CDC JUMPI PUSH1 0x0 DUP1 REVERT JUMPDEST DUP2 CALLDATALOAD PUSH1 0x1 PUSH1 0x1 PUSH1 0xE0 SHL SUB NOT DUP2 AND DUP2 EQ PUSH2 0x1CF4 JUMPI PUSH1 0x0 DUP1 REVERT JUMPDEST SWAP4 SWAP3 POP POP POP JUMP JUMPDEST PUSH1 0x0 JUMPDEST DUP4 DUP2 LT ISZERO PUSH2 0x1D16 JUMPI DUP2 DUP2 ADD MLOAD DUP4 DUP3 ADD MSTORE PUSH1 0x20 ADD PUSH2 0x1CFE JUMP JUMPDEST POP POP PUSH1 0x0 SWAP2 ADD MSTORE JUMP JUMPDEST PUSH1 0x0 DUP2 MLOAD DUP1 DUP5 MSTORE PUSH2 0x1D37 DUP2 PUSH1 0x20 DUP7 ADD PUSH1 0x20 DUP7 ADD PUSH2 0x1CFB JUMP JUMPDEST PUSH1 0x1F ADD PUSH1 0x1F NOT AND SWAP3 SWAP1 SWAP3 ADD PUSH1 0x20 ADD SWAP3 SWAP2 POP POP JUMP JUMPDEST PUSH1 0x20 DUP2 MSTORE PUSH1 0x0 PUSH2 0x1CF4 PUSH1 0x20 DUP4 ADD DUP5 PUSH2 0x1D1F JUMP JUMPDEST PUSH1 0x0 PUSH1 0x20 DUP3 DUP5 SUB SLT ISZERO PUSH2 0x1D70 JUMPI PUSH1 0x0 DUP1 REVERT JUMPDEST POP CALLDATALOAD SWAP2 SWAP1 POP JUMP JUMPDEST PUSH1 0x1 PUSH1 0x1 PUSH1 0xA0 SHL SUB DUP2 AND DUP2 EQ PUSH2 0x172D JUMPI PUSH1 0x0 DUP1 REVERT JUMPDEST DUP1 CALLDATALOAD PUSH2 0x1D97 DUP2 PUSH2 0x1D77 JUMP JUMPDEST SWAP2 SWAP1 POP JUMP JUMPDEST PUSH1 0x0 DUP1 DUP4 PUSH1 0x1F DUP5 ADD SLT PUSH2 0x1DAE JUMPI PUSH1 0x0 DUP1 REVERT JUMPDEST POP DUP2 CALLDATALOAD PUSH1 0x1 PUSH1 0x1 PUSH1 0x40 SHL SUB DUP2 GT ISZERO PUSH2 0x1DC5 JUMPI PUSH1 0x0 DUP1 REVERT JUMPDEST PUSH1 0x20 DUP4 ADD SWAP2 POP DUP4 PUSH1 0x20 DUP3 DUP6 ADD ADD GT ISZERO PUSH2 0x1DDD JUMPI PUSH1 0x0 DUP1 REVERT JUMPDEST SWAP3 POP SWAP3 SWAP1 POP JUMP JUMPDEST PUSH1 0x0 DUP1 PUSH1 0x0 DUP1 PUSH1 0x60 DUP6 DUP8 SUB SLT ISZERO PUSH2 0x1DFA JUMPI PUSH1 0x0 DUP1 REVERT JUMPDEST DUP5 CALLDATALOAD SWAP4 POP PUSH1 0x20 DUP6 ADD CALLDATALOAD PUSH2 0x1E0C DUP2 PUSH2 0x1D77 JUMP JUMPDEST SWAP3 POP PUSH1 0x40 DUP6 ADD CALLDATALOAD PUSH1 0x1 PUSH1 0x1 PUSH1 0x40 SHL SUB DUP2 GT ISZERO PUSH2 0x1E27 JUMPI PUSH1 0x0 DUP1 REVERT JUMPDEST PUSH2 0x1E33 DUP8 DUP3 DUP9 ADD PUSH2 0x1D9C JUMP JUMPDEST SWAP6 SWAP9 SWAP5 SWAP8 POP SWAP6 POP POP POP POP JUMP JUMPDEST PUSH1 0x0 DUP1 PUSH1 0x40 DUP4 DUP6 SUB SLT ISZERO PUSH2 0x1E52 JUMPI PUSH1 0x0 DUP1 REVERT JUMPDEST DUP3 CALLDATALOAD SWAP2 POP PUSH1 0x20 DUP4 ADD CALLDATALOAD PUSH2 0x1E64 DUP2 PUSH2 0x1D77 JUMP JUMPDEST DUP1 SWAP2 POP POP SWAP3 POP SWAP3 SWAP1 POP JUMP JUMPDEST PUSH1 0x0 PUSH1 0x20 DUP3 DUP5 SUB SLT ISZERO PUSH2 0x1E81 JUMPI PUSH1 0x0 DUP1 REVERT JUMPDEST DUP2 CALLDATALOAD PUSH2 0x1CF4 DUP2 PUSH2 0x1D77 JUMP JUMPDEST PUSH1 0x0 DUP1 PUSH1 0x20 DUP4 DUP6 SUB SLT ISZERO PUSH2 0x1E9F JUMPI PUSH1 0x0 DUP1 REVERT JUMPDEST DUP3 CALLDATALOAD PUSH1 0x1 PUSH1 0x1 PUSH1 0x40 SHL SUB DUP2 GT ISZERO PUSH2 0x1EB5 JUMPI PUSH1 0x0 DUP1 REVERT JUMPDEST PUSH2 0x1EC1 DUP6 DUP3 DUP7 ADD PUSH2 0x1D9C JUMP JUMPDEST SWAP1 SWAP7 SWAP1 SWAP6 POP SWAP4 POP POP POP POP JUMP JUMPDEST PUSH4 0x4E487B71 PUSH1 0xE0 SHL PUSH1 0x0 MSTORE PUSH1 0x41 PUSH1 0x4 MSTORE PUSH1 0x24 PUSH1 0x0 REVERT JUMPDEST PUSH1 0x40 MLOAD PUSH1 0xC0 DUP2 ADD PUSH1 0x1 PUSH1 0x1 PUSH1 0x40 SHL SUB DUP2 GT DUP3 DUP3 LT OR ISZERO PUSH2 0x1F05 JUMPI PUSH2 0x1F05 PUSH2 0x1ECD JUMP JUMPDEST PUSH1 0x40 MSTORE SWAP1 JUMP JUMPDEST PUSH1 0x40 MLOAD PUSH2 0x100 DUP2 ADD PUSH1 0x1 PUSH1 0x1 PUSH1 0x40 SHL SUB DUP2 GT DUP3 DUP3 LT OR ISZERO PUSH2 0x1F05 JUMPI PUSH2 0x1F05 PUSH2 0x1ECD JUMP JUMPDEST PUSH1 0x40 MLOAD PUSH1 0x1F DUP3 ADD PUSH1 0x1F NOT AND DUP2 ADD PUSH1 0x1 PUSH1 0x1 PUSH1 0x40 SHL SUB DUP2 GT DUP3 DUP3 LT OR ISZERO PUSH2 0x1F56 JUMPI PUSH2 0x1F56 PUSH2 0x1ECD JUMP JUMPDEST PUSH1 0x40 MSTORE SWAP2 SWAP1 POP JUMP JUMPDEST DUP1 ISZERO ISZERO DUP2 EQ PUSH2 0x172D JUMPI PUSH1 0x0 DUP1 REVERT JUMPDEST DUP1 CALLDATALOAD PUSH2 0x1D97 DUP2 PUSH2 0x1F5E JUMP JUMPDEST PUSH1 0x0 PUSH1 0x1 PUSH1 0x1 PUSH1 0x40 SHL SUB DUP3 GT ISZERO PUSH2 0x1F90 JUMPI PUSH2 0x1F90 PUSH2 0x1ECD JUMP JUMPDEST POP PUSH1 0x1F ADD PUSH1 0x1F NOT AND PUSH1 0x20 ADD SWAP1 JUMP JUMPDEST PUSH1 0x0 DUP3 PUSH1 0x1F DUP4 ADD SLT PUSH2 0x1FAF JUMPI PUSH1 0x0 DUP1 REVERT JUMPDEST DUP2 CALLDATALOAD PUSH2 0x1FC2 PUSH2 0x1FBD DUP3 PUSH2 0x1F77 JUMP JUMPDEST PUSH2 0x1F2E JUMP JUMPDEST DUP2 DUP2 MSTORE DUP5 PUSH1 0x20 DUP4 DUP7 ADD ADD GT ISZERO PUSH2 0x1FD7 JUMPI PUSH1 0x0 DUP1 REVERT JUMPDEST DUP2 PUSH1 0x20 DUP6 ADD PUSH1 0x20 DUP4 ADD CALLDATACOPY PUSH1 0x0 SWAP2 DUP2 ADD PUSH1 0x20 ADD SWAP2 SWAP1 SWAP2 MSTORE SWAP4 SWAP3 POP POP POP JUMP JUMPDEST PUSH1 0x0 PUSH1 0xC0 DUP3 DUP5 SUB SLT ISZERO PUSH2 0x2006 JUMPI PUSH1 0x0 DUP1 REVERT JUMPDEST PUSH2 0x200E PUSH2 0x1EE3 JUMP JUMPDEST SWAP1 POP DUP2 CALLDATALOAD PUSH1 0x1 PUSH1 0x1 PUSH1 0x40 SHL SUB DUP1 DUP3 GT ISZERO PUSH2 0x2027 JUMPI PUSH1 0x0 DUP1 REVERT JUMPDEST PUSH2 0x2033 DUP6 DUP4 DUP7 ADD PUSH2 0x1F9E JUMP JUMPDEST DUP4 MSTORE PUSH1 0x20 DUP5 ADD CALLDATALOAD SWAP2 POP DUP1 DUP3 GT ISZERO PUSH2 0x2049 JUMPI PUSH1 0x0 DUP1 REVERT JUMPDEST PUSH2 0x2055 DUP6 DUP4 DUP7 ADD PUSH2 0x1F9E JUMP JUMPDEST PUSH1 0x20 DUP5 ADD MSTORE PUSH1 0x40 DUP5 ADD CALLDATALOAD SWAP2 POP DUP1 DUP3 GT ISZERO PUSH2 0x206E JUMPI PUSH1 0x0 DUP1 REVERT JUMPDEST POP PUSH2 0x207B DUP5 DUP3 DUP6 ADD PUSH2 0x1F9E JUMP JUMPDEST PUSH1 0x40 DUP4 ADD MSTORE POP PUSH1 0x60 DUP3 ADD CALLDATALOAD PUSH1 0x60 DUP3 ADD MSTORE PUSH1 0x80 DUP3 ADD CALLDATALOAD PUSH1 0x80 DUP3 ADD MSTORE PUSH1 0xA0 DUP3 ADD CALLDATALOAD PUSH1 0xA0 DUP3 ADD MSTORE SWAP3 SWAP2 POP POP JUMP JUMPDEST PUSH1 0x0 PUSH1 0x20 DUP3 DUP5 SUB SLT ISZERO PUSH2 0x20B7 JUMPI PUSH1 0x0 DUP1 REVERT JUMPDEST DUP2 CALLDATALOAD PUSH1 0x1 PUSH1 0x1 PUSH1 0x40 SHL SUB DUP1 DUP3 GT ISZERO PUSH2 0x20CE JUMPI PUSH1 0x0 DUP1 REVERT JUMPDEST SWAP1 DUP4 ADD SWAP1 PUSH2 0x100 DUP3 DUP7 SUB SLT ISZERO PUSH2 0x20E3 JUMPI PUSH1 0x0 DUP1 REVERT JUMPDEST PUSH2 0x20EB PUSH2 0x1F0B JUMP JUMPDEST PUSH2 0x20F4 DUP4 PUSH2 0x1F6C JUMP JUMPDEST DUP2 MSTORE PUSH2 0x2102 PUSH1 0x20 DUP5 ADD PUSH2 0x1D8C JUMP JUMPDEST PUSH1 0x20 DUP3 ADD MSTORE PUSH2 0x2113 PUSH1 0x40 DUP5 ADD PUSH2 0x1D8C JUMP JUMPDEST PUSH1 0x40 DUP3 ADD MSTORE PUSH1 0x60 DUP4 ADD CALLDATALOAD DUP3 DUP2 GT ISZERO PUSH2 0x212A JUMPI PUSH1 0x0 DUP1 REVERT JUMPDEST PUSH2 0x2136 DUP8 DUP3 DUP7 ADD PUSH2 0x1FF4 JUMP JUMPDEST PUSH1 0x60 DUP4 ADD MSTORE POP PUSH1 0x80 DUP4 ADD CALLDATALOAD DUP3 DUP2 GT ISZERO PUSH2 0x214E JUMPI PUSH1 0x0 DUP1 REVERT JUMPDEST PUSH2 0x215A DUP8 DUP3 DUP7 ADD PUSH2 0x1F9E JUMP JUMPDEST PUSH1 0x80 DUP4 ADD MSTORE POP PUSH1 0xA0 DUP4 ADD CALLDATALOAD PUSH1 0xA0 DUP3 ADD MSTORE PUSH1 0xC0 DUP4 ADD CALLDATALOAD DUP3 DUP2 GT ISZERO PUSH2 0x217C JUMPI PUSH1 0x0 DUP1 REVERT JUMPDEST PUSH2 0x2188 DUP8 DUP3 DUP7 ADD PUSH2 0x1F9E JUMP JUMPDEST PUSH1 0xC0 DUP4 ADD MSTORE POP PUSH1 0xE0 DUP4 ADD CALLDATALOAD DUP3 DUP2 GT ISZERO PUSH2 0x21A0 JUMPI PUSH1 0x0 DUP1 REVERT JUMPDEST PUSH2 0x21AC DUP8 DUP3 DUP7 ADD PUSH2 0x1F9E JUMP JUMPDEST PUSH1 0xE0 DUP4 ADD MSTORE POP SWAP6 SWAP5 POP POP POP POP POP JUMP JUMPDEST PUSH1 0x0 PUSH1 0x20 DUP3 DUP5 SUB SLT ISZERO PUSH2 0x21CD JUMPI PUSH1 0x0 DUP1 REVERT JUMPDEST DUP2 CALLDATALOAD PUSH1 0x1 PUSH1 0x1 PUSH1 0x40 SHL SUB DUP2 GT ISZERO PUSH2 0x21E3 JUMPI PUSH1 0x0 DUP1 REVERT JUMPDEST PUSH2 0x21EF DUP5 DUP3 DUP6 ADD PUSH2 0x1F9E JUMP JUMPDEST SWAP5 SWAP4 POP POP POP POP JUMP JUMPDEST PUSH1 0x1 DUP2 DUP2 SHR SWAP1 DUP3 AND DUP1 PUSH2 0x220B JUMPI PUSH1 0x7F DUP3 AND SWAP2 POP JUMPDEST PUSH1 0x20 DUP3 LT DUP2 SUB PUSH2 0x222B JUMPI PUSH4 0x4E487B71 PUSH1 0xE0 SHL PUSH1 0x0 MSTORE PUSH1 0x22 PUSH1 0x4 MSTORE PUSH1 0x24 PUSH1 0x0 REVERT JUMPDEST POP SWAP2 SWAP1 POP JUMP JUMPDEST PUSH1 0x0 PUSH1 0x20 DUP3 DUP5 SUB SLT ISZERO PUSH2 0x2243 JUMPI PUSH1 0x0 DUP1 REVERT JUMPDEST DUP2 MLOAD PUSH2 0x1CF4 DUP2 PUSH2 0x1F5E JUMP JUMPDEST PUSH1 0x20 DUP1 DUP3 MSTORE PUSH1 0x31 SWAP1 DUP3 ADD MSTORE PUSH32 0x576F726C645265676973747279305F323A2063616C6C6572206973206E6F7420 PUSH1 0x40 DUP3 ADD MSTORE PUSH17 0x30903B30B634B2103932B3B4B9BA3930B9 PUSH1 0x79 SHL PUSH1 0x60 DUP3 ADD MSTORE PUSH1 0x80 ADD SWAP1 JUMP JUMPDEST PUSH1 0x0 PUSH1 0x20 DUP3 DUP5 SUB SLT ISZERO PUSH2 0x22B1 JUMPI PUSH1 0x0 DUP1 REVERT JUMPDEST DUP2 MLOAD PUSH2 0x1CF4 DUP2 PUSH2 0x1D77 JUMP JUMPDEST PUSH1 0x0 DUP3 PUSH1 0x1F DUP4 ADD SLT PUSH2 0x22CD JUMPI PUSH1 0x0 DUP1 REVERT JUMPDEST DUP2 MLOAD PUSH2 0x22DB PUSH2 0x1FBD DUP3 PUSH2 0x1F77 JUMP JUMPDEST DUP2 DUP2 MSTORE DUP5 PUSH1 0x20 DUP4 DUP7 ADD ADD GT ISZERO PUSH2 0x22F0 JUMPI PUSH1 0x0 DUP1 REVERT JUMPDEST PUSH2 0x21EF DUP3 PUSH1 0x20 DUP4 ADD PUSH1 0x20 DUP8 ADD PUSH2 0x1CFB JUMP JUMPDEST PUSH1 0x0 PUSH1 0x20 DUP3 DUP5 SUB SLT ISZERO PUSH2 0x2313 JUMPI PUSH1 0x0 DUP1 REVERT JUMPDEST DUP2 MLOAD PUSH1 0x1 PUSH1 0x1 PUSH1 0x40 SHL SUB DUP1 DUP3 GT ISZERO PUSH2 0x232A JUMPI PUSH1 0x0 DUP1 REVERT JUMPDEST SWAP1 DUP4 ADD SWAP1 PUSH1 0xC0 DUP3 DUP7 SUB SLT ISZERO PUSH2 0x233E JUMPI PUSH1 0x0 DUP1 REVERT JUMPDEST PUSH2 0x2346 PUSH2 0x1EE3 JUMP JUMPDEST DUP3 MLOAD DUP3 DUP2 GT ISZERO PUSH2 0x2355 JUMPI PUSH1 0x0 DUP1 REVERT JUMPDEST PUSH2 0x2361 DUP8 DUP3 DUP7 ADD PUSH2 0x22BC JUMP JUMPDEST DUP3 MSTORE POP PUSH1 0x20 DUP4 ADD MLOAD DUP3 DUP2 GT ISZERO PUSH2 0x2376 JUMPI PUSH1 0x0 DUP1 REVERT JUMPDEST PUSH2 0x2382 DUP8 DUP3 DUP7 ADD PUSH2 0x22BC JUMP JUMPDEST PUSH1 0x20 DUP4 ADD MSTORE POP PUSH1 0x40 DUP4 ADD MLOAD DUP3 DUP2 GT ISZERO PUSH2 0x239A JUMPI PUSH1 0x0 DUP1 REVERT JUMPDEST PUSH2 0x23A6 DUP8 DUP3 DUP7 ADD PUSH2 0x22BC JUMP JUMPDEST PUSH1 0x40 DUP4 ADD MSTORE POP PUSH1 0x60 DUP4 ADD MLOAD PUSH1 0x60 DUP3 ADD MSTORE PUSH1 0x80 DUP4 ADD MLOAD PUSH1 0x80 DUP3 ADD MSTORE PUSH1 0xA0 DUP4 ADD MLOAD PUSH1 0xA0 DUP3 ADD MSTORE DUP1 SWAP4 POP POP POP POP SWAP3 SWAP2 POP POP JUMP JUMPDEST PUSH1 0x0 PUSH1 0x20 DUP3 DUP5 SUB SLT ISZERO PUSH2 0x23E8 JUMPI PUSH1 0x0 DUP1 REVERT JUMPDEST DUP2 MLOAD PUSH1 0x1 PUSH1 0x1 PUSH1 0x40 SHL SUB DUP2 GT ISZERO PUSH2 0x23FE JUMPI PUSH1 0x0 DUP1 REVERT JUMPDEST PUSH2 0x21EF DUP5 DUP3 DUP6 ADD PUSH2 0x22BC JUMP JUMPDEST PUSH1 0x0 DUP2 MLOAD PUSH1 0xC0 DUP5 MSTORE PUSH2 0x241F PUSH1 0xC0 DUP6 ADD DUP3 PUSH2 0x1D1F JUMP JUMPDEST SWAP1 POP PUSH1 0x20 DUP4 ADD MLOAD DUP5 DUP3 SUB PUSH1 0x20 DUP7 ADD MSTORE PUSH2 0x2438 DUP3 DUP3 PUSH2 0x1D1F JUMP JUMPDEST SWAP2 POP POP PUSH1 0x40 DUP4 ADD MLOAD DUP5 DUP3 SUB PUSH1 0x40 DUP7 ADD MSTORE PUSH2 0x2452 DUP3 DUP3 PUSH2 0x1D1F JUMP JUMPDEST SWAP2 POP POP PUSH1 0x60 DUP4 ADD MLOAD PUSH1 0x60 DUP6 ADD MSTORE PUSH1 0x80 DUP4 ADD MLOAD PUSH1 0x80 DUP6 ADD MSTORE PUSH1 0xA0 DUP4 ADD MLOAD PUSH1 0xA0 DUP6 ADD MSTORE DUP1 SWAP2 POP POP SWAP3 SWAP2 POP POP JUMP JUMPDEST PUSH1 0x20 DUP2 MSTORE PUSH1 0x0 PUSH1 0x1 DUP1 PUSH1 0xA0 SHL SUB DUP1 DUP5 MLOAD AND PUSH1 0x20 DUP5 ADD MSTORE DUP1 PUSH1 0x20 DUP6 ADD MLOAD AND PUSH1 0x40 DUP5 ADD MSTORE POP PUSH1 0x40 DUP4 ADD MLOAD PUSH1 0xA0 PUSH1 0x60 DUP5 ADD MSTORE PUSH2 0x24B9 PUSH1 0xC0 DUP5 ADD DUP3 PUSH2 0x240A JUMP JUMPDEST SWAP1 POP PUSH1 0x60 DUP5 ADD MLOAD PUSH1 0x1F NOT DUP1 DUP6 DUP5 SUB ADD PUSH1 0x80 DUP7 ADD MSTORE PUSH2 0x24D7 DUP4 DUP4 PUSH2 0x1D1F JUMP JUMPDEST SWAP3 POP PUSH1 0x80 DUP7 ADD MLOAD SWAP2 POP DUP1 DUP6 DUP5 SUB ADD PUSH1 0xA0 DUP7 ADD MSTORE POP PUSH2 0x24F5 DUP3 DUP3 PUSH2 0x1D1F JUMP JUMPDEST SWAP6 SWAP5 POP POP POP POP POP JUMP JUMPDEST PUSH1 0x20 DUP1 DUP3 MSTORE PUSH1 0x27 SWAP1 DUP3 ADD MSTORE PUSH32 0x576F726C645265676973747279305F323A20776F726C64206372656174696F6E PUSH1 0x40 DUP3 ADD MSTORE PUSH7 0x819985A5B1959 PUSH1 0xCA SHL PUSH1 0x60 DUP3 ADD MSTORE PUSH1 0x80 ADD SWAP1 JUMP JUMPDEST PUSH1 0x0 DUP3 MLOAD PUSH2 0x2557 DUP2 DUP5 PUSH1 0x20 DUP8 ADD PUSH2 0x1CFB JUMP JUMPDEST SWAP2 SWAP1 SWAP2 ADD SWAP3 SWAP2 POP POP JUMP JUMPDEST PUSH1 0x20 DUP1 DUP3 MSTORE PUSH1 0x25 SWAP1 DUP3 ADD MSTORE PUSH32 0x576F726C645265676973747279305F323A2063616C6C6572206973206E6F7420 PUSH1 0x40 DUP3 ADD MSTORE PUSH5 0x30B236B4B7 PUSH1 0xD9 SHL PUSH1 0x60 DUP3 ADD MSTORE PUSH1 0x80 ADD SWAP1 JUMP JUMPDEST PUSH1 0x1 PUSH1 0x1 PUSH1 0xA0 SHL SUB DUP5 AND DUP2 MSTORE PUSH1 0x40 PUSH1 0x20 DUP3 ADD DUP2 SWAP1 MSTORE DUP2 ADD DUP3 SWAP1 MSTORE DUP2 DUP4 PUSH1 0x60 DUP4 ADD CALLDATACOPY PUSH1 0x0 DUP2 DUP4 ADD PUSH1 0x60 SWAP1 DUP2 ADD SWAP2 SWAP1 SWAP2 MSTORE PUSH1 0x1F SWAP1 SWAP3 ADD PUSH1 0x1F NOT AND ADD ADD SWAP3 SWAP2 POP POP JUMP JUMPDEST PUSH1 0x20 DUP2 MSTORE PUSH1 0x0 PUSH2 0x1CF4 PUSH1 0x20 DUP4 ADD DUP5 PUSH2 0x240A JUMP JUMPDEST PUSH1 0x1F DUP3 GT ISZERO PUSH2 0xB4E JUMPI PUSH1 0x0 DUP2 PUSH1 0x0 MSTORE PUSH1 0x20 PUSH1 0x0 KECCAK256 PUSH1 0x1F DUP6 ADD PUSH1 0x5 SHR DUP2 ADD PUSH1 0x20 DUP7 LT ISZERO PUSH2 0x2622 JUMPI POP DUP1 JUMPDEST PUSH1 0x1F DUP6 ADD PUSH1 0x5 SHR DUP3 ADD SWAP2 POP JUMPDEST DUP2 DUP2 LT ISZERO PUSH2 0x2641 JUMPI DUP3 DUP2 SSTORE PUSH1 0x1 ADD PUSH2 0x262E JUMP JUMPDEST POP POP POP POP POP POP JUMP JUMPDEST DUP2 MLOAD PUSH1 0x1 PUSH1 0x1 PUSH1 0x40 SHL SUB DUP2 GT ISZERO PUSH2 0x2662 JUMPI PUSH2 0x2662 PUSH2 0x1ECD JUMP JUMPDEST PUSH2 0x2676 DUP2 PUSH2 0x2670 DUP5 SLOAD PUSH2 0x21F7 JUMP JUMPDEST DUP5 PUSH2 0x25F9 JUMP JUMPDEST PUSH1 0x20 DUP1 PUSH1 0x1F DUP4 GT PUSH1 0x1 DUP2 EQ PUSH2 0x26AB JUMPI PUSH1 0x0 DUP5 ISZERO PUSH2 0x2693 JUMPI POP DUP6 DUP4 ADD MLOAD JUMPDEST PUSH1 0x0 NOT PUSH1 0x3 DUP7 SWAP1 SHL SHR NOT AND PUSH1 0x1 DUP6 SWAP1 SHL OR DUP6 SSTORE PUSH2 0x2641 JUMP JUMPDEST PUSH1 0x0 DUP6 DUP2 MSTORE PUSH1 0x20 DUP2 KECCAK256 PUSH1 0x1F NOT DUP7 AND SWAP2 JUMPDEST DUP3 DUP2 LT ISZERO PUSH2 0x26DA JUMPI DUP9 DUP7 ADD MLOAD DUP3 SSTORE SWAP5 DUP5 ADD SWAP5 PUSH1 0x1 SWAP1 SWAP2 ADD SWAP1 DUP5 ADD PUSH2 0x26BB JUMP JUMPDEST POP DUP6 DUP3 LT ISZERO PUSH2 0x26F8 JUMPI DUP8 DUP6 ADD MLOAD PUSH1 0x0 NOT PUSH1 0x3 DUP9 SWAP1 SHL PUSH1 0xF8 AND SHR NOT AND DUP2 SSTORE JUMPDEST POP POP POP POP POP PUSH1 0x1 SWAP1 DUP2 SHL ADD SWAP1 SSTORE POP JUMP JUMPDEST PUSH1 0x20 DUP1 DUP3 MSTORE PUSH1 0x24 SWAP1 DUP3 ADD MSTORE PUSH32 0x576F726C645265676973747279305F323A20617574682063616E6E6F74206265 PUSH1 0x40 DUP3 ADD MSTORE PUSH4 0x2030783 PUSH1 0xE4 SHL PUSH1 0x60 DUP3 ADD MSTORE PUSH1 0x80 ADD SWAP1 JUMP JUMPDEST PUSH4 0x4E487B71 PUSH1 0xE0 SHL PUSH1 0x0 MSTORE PUSH1 0x32 PUSH1 0x4 MSTORE PUSH1 0x24 PUSH1 0x0 REVERT JUMPDEST PUSH1 0x0 DUP8 MLOAD PUSH1 0x20 PUSH2 0x2775 DUP3 DUP6 DUP4 DUP14 ADD PUSH2 0x1CFB JUMP JUMPDEST DUP9 MLOAD SWAP2 DUP5 ADD SWAP2 PUSH2 0x2788 DUP2 DUP5 DUP5 DUP14 ADD PUSH2 0x1CFB JUMP JUMPDEST DUP9 MLOAD SWAP3 ADD SWAP2 PUSH2 0x279A DUP2 DUP5 DUP5 DUP13 ADD PUSH2 0x1CFB JUMP JUMPDEST DUP8 MLOAD SWAP3 ADD SWAP2 PUSH2 0x27AC DUP2 DUP5 DUP5 DUP12 ADD PUSH2 0x1CFB JUMP JUMPDEST DUP7 MLOAD SWAP3 ADD SWAP2 PUSH2 0x27BE DUP2 DUP5 DUP5 DUP11 ADD PUSH2 0x1CFB JUMP JUMPDEST DUP6 MLOAD SWAP3 ADD SWAP2 PUSH2 0x27D0 DUP2 DUP5 DUP5 DUP10 ADD PUSH2 0x1CFB JUMP JUMPDEST SWAP2 SWAP1 SWAP2 ADD SWAP10 SWAP9 POP POP POP POP POP POP POP POP POP JUMP JUMPDEST PUSH1 0x40 DUP2 MSTORE PUSH1 0x0 PUSH2 0x27F4 PUSH1 0x40 DUP4 ADD DUP6 PUSH2 0x1D1F JUMP JUMPDEST SWAP1 POP DUP3 PUSH1 0x20 DUP4 ADD MSTORE SWAP4 SWAP3 POP POP POP JUMP JUMPDEST PUSH1 0xFF DUP2 DUP2 AND DUP4 DUP3 AND ADD SWAP1 DUP2 GT ISZERO PUSH2 0x4E1 JUMPI PUSH4 0x4E487B71 PUSH1 0xE0 SHL PUSH1 0x0 MSTORE PUSH1 0x11 PUSH1 0x4 MSTORE PUSH1 0x24 PUSH1 0x0 REVERT JUMPDEST PUSH32 0x19457468657265756D205369676E6564204D6573736167653A0A000000000000 DUP2 MSTORE PUSH1 0x0 DUP4 MLOAD PUSH2 0x2862 DUP2 PUSH1 0x1A DUP6 ADD PUSH1 0x20 DUP9 ADD PUSH2 0x1CFB JUMP JUMPDEST DUP4 MLOAD SWAP1 DUP4 ADD SWAP1 PUSH2 0x2879 DUP2 PUSH1 0x1A DUP5 ADD PUSH1 0x20 DUP9 ADD PUSH2 0x1CFB JUMP JUMPDEST ADD PUSH1 0x1A ADD SWAP5 SWAP4 POP POP POP POP JUMP JUMPDEST PUSH4 0x4E487B71 PUSH1 0xE0 SHL PUSH1 0x0 MSTORE PUSH1 0x21 PUSH1 0x4 MSTORE PUSH1 0x24 PUSH1 0x0 REVERT INVALID 0x27 PC 0xC8 0xC5 0xD7 PUSH28 0x29E60FFFBF4A2BCB0FC98A947BD2A0DEAD06FDC32CD3CEF1168DA498 SMOD KECCAK256 TLOAD 0xE4 0xD3 SSTORE MULMOD 0x2E CREATE2 0xA8 LOG1 DUP16 JUMP 0xE8 SWAP2 EXTCODECOPY DELEGATECALL LOG2 ADD 0xFB 0xE2 DUP8 DUP3 JUMPDEST MULMOD JUMP SWAP4 0xC2 OR PUSH22 0xA264697066735822122049B9ADC8665346BFBED453C2 0xC5 CREATE DUP14 0x2F 0xCD 0xE8 0xC9 PREVRANDAO MSTORE8 CODESIZE SGT 0xCE 0xF8 CALL 0xE9 0xDE 0xD9 0xF8 DELEGATECALL 0xBE PUSH5 0x736F6C6343 STOP ADDMOD XOR STOP CALLER LOG4 SWAP9 SMOD KECCAK256 TLOAD 0xE4 0xD3 SSTORE MULMOD 0x2E CREATE2 0xA8 LOG1 DUP16 JUMP 0xE8 SWAP2 EXTCODECOPY DELEGATECALL LOG2 ADD 0xFB 0xE2 DUP8 DUP3 JUMPDEST MULMOD JUMP SWAP4 0xC2 OR PUSH22 0x0 "},"methodIdentifiers":{"ADMIN_ROLE()":"75b238fc","DEFAULT_ADMIN_ROLE()":"a217fddf","VECTOR_AUTHORITY_ROLE()":"37959c2d","addVectorAddressAuthority(address)":"db8d7466","currentWorldVersion()":"0c743051","getRoleAdmin(bytes32)":"248a9ca3","getWorldByName(string)":"b7722c7f","grantRole(bytes32,address)":"2f2ff15d","hasRole(bytes32,address)":"91d14854","isVectorAddressAuthority(address)":"6d80bf31","isWorld(address)":"f0ad0f3e","previousRegistry()":"11022380","register((bool,address,address,(string,string,string,uint256,uint256,uint256),string,uint256,bytes,bytes))":"933b415b","registrarRegistry()":"dbdc4e62","registrarUpgradeWorld(uint256,address,bytes)":"2ef7579b","removeVectorAddressAuthority(address)":"e3ffb4bf","renounceRole(bytes32,address)":"36568abe","revokeRole(bytes32,address)":"d547741f","setCurrentWorldVersion(string)":"a7b9af23","setWorldFactory(address)":"68f52a97","supportsInterface(bytes4)":"01ffc9a7","vectorAuthority()":"968638df","worldFactory()":"0dc3897d","worldUpgradeSelf(bytes)":"8f51aa6d"}}}}}