{"contracts/libraries/LibBaseProxy.sol":{"LibProxyAccess":{"abi":[{"inputs":[],"name":"ADMIN_ROLE","outputs":[{"internalType":"bytes32","name":"","type":"bytes32"}],"stateMutability":"view","type":"function"},{"inputs":[],"name":"SIGNER_ROLE","outputs":[{"internalType":"bytes32","name":"","type":"bytes32"}],"stateMutability":"view","type":"function"}],"evm":{"bytecode":{"linkReferences":{},"object":"60d6610039600b82828239805160001a60731461002c57634e487b7160e01b600052600060045260246000fd5b30600052607381538281f3fe7300000000000000000000000000000000000000003014608060405260043610603d5760003560e01c806375b238fc146042578063a1ebf35d14607a575b600080fd5b60687fa49807205ce4d355092ef5a8a18f56e8913cf4a201fbe287825b095693c2177581565b60405190815260200160405180910390f35b60687fe2f4eaae4a9751e85a3e4a7b9587827a877f29914755229b07a7b2da98285f708156fea2646970667358221220409ca03c115c02d4eadbd4e7034a257d708566593e6975b2bd385fe1ad2466c364736f6c63430008180033","opcodes":"PUSH1 0xD6 PUSH2 0x39 PUSH1 0xB DUP3 DUP3 DUP3 CODECOPY DUP1 MLOAD PUSH1 0x0 BYTE PUSH1 0x73 EQ PUSH2 0x2C JUMPI PUSH4 0x4E487B71 PUSH1 0xE0 SHL PUSH1 0x0 MSTORE PUSH1 0x0 PUSH1 0x4 MSTORE PUSH1 0x24 PUSH1 0x0 REVERT JUMPDEST ADDRESS PUSH1 0x0 MSTORE PUSH1 0x73 DUP2 MSTORE8 DUP3 DUP2 RETURN INVALID PUSH20 0x0 ADDRESS EQ PUSH1 0x80 PUSH1 0x40 MSTORE PUSH1 0x4 CALLDATASIZE LT PUSH1 0x3D JUMPI PUSH1 0x0 CALLDATALOAD PUSH1 0xE0 SHR DUP1 PUSH4 0x75B238FC EQ PUSH1 0x42 JUMPI DUP1 PUSH4 0xA1EBF35D EQ PUSH1 0x7A JUMPI JUMPDEST PUSH1 0x0 DUP1 REVERT JUMPDEST PUSH1 0x68 PUSH32 0xA49807205CE4D355092EF5A8A18F56E8913CF4A201FBE287825B095693C21775 DUP2 JUMP JUMPDEST PUSH1 0x40 MLOAD SWAP1 DUP2 MSTORE PUSH1 0x20 ADD PUSH1 0x40 MLOAD DUP1 SWAP2 SUB SWAP1 RETURN JUMPDEST PUSH1 0x68 PUSH32 0xE2F4EAAE4A9751E85A3E4A7B9587827A877F29914755229B07A7B2DA98285F70 DUP2 JUMP INVALID LOG2 PUSH5 0x6970667358 0x22 SLT KECCAK256 BLOCKHASH SWAP13 LOG0 EXTCODECOPY GT TLOAD MUL 0xD4 0xEA 0xDB 0xD4 0xE7 SUB BLOBBASEFEE 0x25 PUSH30 0x708566593E6975B2BD385FE1AD2466C364736F6C63430008180033000000 "},"methodIdentifiers":{"ADMIN_ROLE()":"75b238fc","SIGNER_ROLE()":"a1ebf35d"}}}}}