{"contracts/libraries/LibBaseProxy.sol":{"LibBaseProxy":{"abi":[{"inputs":[],"name":"BaseStorageSlot","outputs":[{"internalType":"bytes32","name":"","type":"bytes32"}],"stateMutability":"view","type":"function"}],"evm":{"bytecode":{"linkReferences":{},"object":"60a6610038600b82828239805160001a607314602b57634e487b7160e01b600052600060045260246000fd5b30600052607381538281f3fe730000000000000000000000000000000000000000301460806040526004361060335760003560e01c8063666219e3146038575b600080fd5b605e7f1f07e7b49187e1cf67924ca1fa35732211c5bb2c23b6b53ee47453438de7285e81565b60405190815260200160405180910390f3fea2646970667358221220e6659107faf8b008ec7fb361e2c044b5cfe488015bee58b1b277b7feeb07c41364736f6c63430008180033","opcodes":"PUSH1 0xA6 PUSH2 0x38 PUSH1 0xB DUP3 DUP3 DUP3 CODECOPY DUP1 MLOAD PUSH1 0x0 BYTE PUSH1 0x73 EQ PUSH1 0x2B JUMPI PUSH4 0x4E487B71 PUSH1 0xE0 SHL PUSH1 0x0 MSTORE PUSH1 0x0 PUSH1 0x4 MSTORE PUSH1 0x24 PUSH1 0x0 REVERT JUMPDEST ADDRESS PUSH1 0x0 MSTORE PUSH1 0x73 DUP2 MSTORE8 DUP3 DUP2 RETURN INVALID PUSH20 0x0 ADDRESS EQ PUSH1 0x80 PUSH1 0x40 MSTORE PUSH1 0x4 CALLDATASIZE LT PUSH1 0x33 JUMPI PUSH1 0x0 CALLDATALOAD PUSH1 0xE0 SHR DUP1 PUSH4 0x666219E3 EQ PUSH1 0x38 JUMPI JUMPDEST PUSH1 0x0 DUP1 REVERT JUMPDEST PUSH1 0x5E PUSH32 0x1F07E7B49187E1CF67924CA1FA35732211C5BB2C23B6B53EE47453438DE7285E DUP2 JUMP JUMPDEST PUSH1 0x40 MLOAD SWAP1 DUP2 MSTORE PUSH1 0x20 ADD PUSH1 0x40 MLOAD DUP1 SWAP2 SUB SWAP1 RETURN INVALID LOG2 PUSH5 0x6970667358 0x22 SLT KECCAK256 0xE6 PUSH6 0x9107FAF8B008 0xEC PUSH32 0xB361E2C044B5CFE488015BEE58B1B277B7FEEB07C41364736F6C634300081800 CALLER "},"methodIdentifiers":{"BaseStorageSlot()":"666219e3"}}}}}