{"contracts/asset/NonTransferableERC721Asset.sol":{"NonTransferableERC721Asset":{"abi":[{"inputs":[{"internalType":"address","name":"factory","type":"address"},{"internalType":"address","name":"registry","type":"address"}],"stateMutability":"nonpayable","type":"constructor"},{"inputs":[{"internalType":"address","name":"sender","type":"address"},{"internalType":"uint256","name":"tokenId","type":"uint256"},{"internalType":"address","name":"owner","type":"address"}],"name":"ERC721IncorrectOwner","type":"error"},{"inputs":[{"internalType":"address","name":"operator","type":"address"},{"internalType":"uint256","name":"tokenId","type":"uint256"}],"name":"ERC721InsufficientApproval","type":"error"},{"inputs":[{"internalType":"address","name":"approver","type":"address"}],"name":"ERC721InvalidApprover","type":"error"},{"inputs":[{"internalType":"address","name":"operator","type":"address"}],"name":"ERC721InvalidOperator","type":"error"},{"inputs":[{"internalType":"address","name":"owner","type":"address"}],"name":"ERC721InvalidOwner","type":"error"},{"inputs":[{"internalType":"address","name":"receiver","type":"address"}],"name":"ERC721InvalidReceiver","type":"error"},{"inputs":[{"internalType":"address","name":"sender","type":"address"}],"name":"ERC721InvalidSender","type":"error"},{"inputs":[{"internalType":"uint256","name":"tokenId","type":"uint256"}],"name":"ERC721NonexistentToken","type":"error"},{"anonymous":false,"inputs":[{"indexed":true,"internalType":"address","name":"owner","type":"address"},{"indexed":true,"internalType":"address","name":"approved","type":"address"},{"indexed":true,"internalType":"uint256","name":"tokenId","type":"uint256"}],"name":"Approval","type":"event"},{"anonymous":false,"inputs":[{"indexed":true,"internalType":"address","name":"owner","type":"address"},{"indexed":true,"internalType":"address","name":"operator","type":"address"},{"indexed":false,"internalType":"bool","name":"approved","type":"bool"}],"name":"ApprovalForAll","type":"event"},{"anonymous":false,"inputs":[{"indexed":true,"internalType":"address","name":"hook","type":"address"}],"name":"ERC721HookAdded","type":"event"},{"anonymous":false,"inputs":[{"indexed":true,"internalType":"address","name":"hook","type":"address"}],"name":"ERC721HookRemoved","type":"event"},{"anonymous":false,"inputs":[{"indexed":true,"internalType":"address","name":"to","type":"address"},{"indexed":false,"internalType":"uint256","name":"tokenId","type":"uint256"}],"name":"ERC721Minted","type":"event"},{"anonymous":false,"inputs":[{"indexed":true,"internalType":"address","name":"oldAsset","type":"address"},{"indexed":true,"internalType":"address","name":"newAsset","type":"address"}],"name":"ERC721Upgraded","type":"event"},{"anonymous":false,"inputs":[{"indexed":true,"internalType":"address","name":"from","type":"address"},{"indexed":true,"internalType":"address","name":"to","type":"address"},{"indexed":true,"internalType":"uint256","name":"tokenId","type":"uint256"}],"name":"Transfer","type":"event"},{"inputs":[{"internalType":"contract IAssetHook","name":"_hook","type":"address"}],"name":"addHook","outputs":[],"stateMutability":"nonpayable","type":"function"},{"inputs":[{"internalType":"address","name":"","type":"address"},{"internalType":"uint256","name":"","type":"uint256"}],"name":"approve","outputs":[],"stateMutability":"nonpayable","type":"function"},{"inputs":[],"name":"assetFactory","outputs":[{"internalType":"address","name":"","type":"address"}],"stateMutability":"view","type":"function"},{"inputs":[],"name":"assetRegistry","outputs":[{"internalType":"address","name":"","type":"address"}],"stateMutability":"view","type":"function"},{"inputs":[{"internalType":"address","name":"owner","type":"address"}],"name":"balanceOf","outputs":[{"internalType":"uint256","name":"","type":"uint256"}],"stateMutability":"view","type":"function"},{"inputs":[{"components":[{"internalType":"address","name":"issuer","type":"address"},{"internalType":"address","name":"originChainAddress","type":"address"},{"internalType":"uint256","name":"originChainId","type":"uint256"},{"internalType":"string","name":"name","type":"string"},{"internalType":"string","name":"symbol","type":"string"},{"internalType":"string","name":"baseURI","type":"string"}],"internalType":"struct ERC721InitData","name":"data","type":"tuple"}],"name":"encodeInitData","outputs":[{"internalType":"bytes","name":"","type":"bytes"}],"stateMutability":"pure","type":"function"},{"inputs":[{"internalType":"uint256","name":"tokenId","type":"uint256"}],"name":"getApproved","outputs":[{"internalType":"address","name":"","type":"address"}],"stateMutability":"view","type":"function"},{"inputs":[],"name":"hook","outputs":[{"internalType":"contract IAssetHook","name":"","type":"address"}],"stateMutability":"view","type":"function"},{"inputs":[{"internalType":"bytes","name":"initData","type":"bytes"}],"name":"init","outputs":[],"stateMutability":"nonpayable","type":"function"},{"inputs":[{"internalType":"address","name":"owner","type":"address"},{"internalType":"address","name":"operator","type":"address"}],"name":"isApprovedForAll","outputs":[{"internalType":"bool","name":"","type":"bool"}],"stateMutability":"view","type":"function"},{"inputs":[],"name":"issuer","outputs":[{"internalType":"address","name":"","type":"address"}],"stateMutability":"view","type":"function"},{"inputs":[{"internalType":"address","name":"to","type":"address"}],"name":"mint","outputs":[{"internalType":"uint256","name":"id","type":"uint256"}],"stateMutability":"nonpayable","type":"function"},{"inputs":[],"name":"name","outputs":[{"internalType":"string","name":"","type":"string"}],"stateMutability":"view","type":"function"},{"inputs":[],"name":"originAddress","outputs":[{"internalType":"address","name":"","type":"address"}],"stateMutability":"view","type":"function"},{"inputs":[],"name":"originChainId","outputs":[{"internalType":"uint256","name":"","type":"uint256"}],"stateMutability":"view","type":"function"},{"inputs":[{"internalType":"uint256","name":"tokenId","type":"uint256"}],"name":"ownerOf","outputs":[{"internalType":"address","name":"","type":"address"}],"stateMutability":"view","type":"function"},{"inputs":[],"name":"removeHook","outputs":[],"stateMutability":"nonpayable","type":"function"},{"inputs":[{"internalType":"address","name":"tgt","type":"address"},{"internalType":"uint256","name":"tokenId","type":"uint256"}],"name":"revoke","outputs":[],"stateMutability":"nonpayable","type":"function"},{"inputs":[{"internalType":"address","name":"from","type":"address"},{"internalType":"address","name":"to","type":"address"},{"internalType":"uint256","name":"tokenId","type":"uint256"}],"name":"safeTransferFrom","outputs":[],"stateMutability":"nonpayable","type":"function"},{"inputs":[{"internalType":"address","name":"","type":"address"},{"internalType":"address","name":"","type":"address"},{"internalType":"uint256","name":"","type":"uint256"},{"internalType":"bytes","name":"","type":"bytes"}],"name":"safeTransferFrom","outputs":[],"stateMutability":"nonpayable","type":"function"},{"inputs":[{"internalType":"address","name":"","type":"address"},{"internalType":"bool","name":"","type":"bool"}],"name":"setApprovalForAll","outputs":[],"stateMutability":"nonpayable","type":"function"},{"inputs":[{"internalType":"bytes4","name":"interfaceId","type":"bytes4"}],"name":"supportsInterface","outputs":[{"internalType":"bool","name":"","type":"bool"}],"stateMutability":"view","type":"function"},{"inputs":[],"name":"symbol","outputs":[{"internalType":"string","name":"","type":"string"}],"stateMutability":"view","type":"function"},{"inputs":[{"internalType":"uint256","name":"tokenId","type":"uint256"}],"name":"tokenURI","outputs":[{"internalType":"string","name":"","type":"string"}],"stateMutability":"view","type":"function"},{"inputs":[{"internalType":"address","name":"","type":"address"},{"internalType":"address","name":"","type":"address"},{"internalType":"uint256","name":"","type":"uint256"}],"name":"transferFrom","outputs":[],"stateMutability":"nonpayable","type":"function"},{"inputs":[{"internalType":"address","name":"newAsset","type":"address"}],"name":"upgrade","outputs":[],"stateMutability":"nonpayable","type":"function"},{"inputs":[],"name":"upgraded","outputs":[{"internalType":"bool","name":"","type":"bool"}],"stateMutability":"view","type":"function"}],"evm":{"bytecode":{"linkReferences":{},"object":"60c06040523480156200001157600080fd5b50604051620020db380380620020db83398101604081905262000034916200015e565b6001600160a01b038216620000ab5760405162461bcd60e51b815260206004820152603260248201527f4e6f6e5472616e7366657261626c654552433732313a20666163746f727920696044820152717320746865207a65726f206164647265737360701b60648201526084015b60405180910390fd5b6001600160a01b038116620001295760405162461bcd60e51b815260206004820152603360248201527f4e6f6e5472616e7366657261626c654552433732313a2072656769737472792060448201527f697320746865207a65726f2061646472657373000000000000000000000000006064820152608401620000a2565b6001600160a01b039182166080521660a05262000196565b80516001600160a01b03811681146200015957600080fd5b919050565b600080604083850312156200017257600080fd5b6200017d8362000141565b91506200018d6020840162000141565b90509250929050565b60805160a051611f11620001ca6000396000818161032801526104fe015260008181610378015261072a0152611f116000f3fe608060405234801561001057600080fd5b50600436106101a95760003560e01c80636a627842116100f9578063b88d4fde11610097578063c87b56dd11610071578063c87b56dd1461039a578063e517fedd146103ad578063e985e9c5146103c0578063eac449d9146103d357600080fd5b8063b88d4fde14610358578063c28de2cd14610366578063c3acb4d11461037357600080fd5b80637f5a7c7b116100d35780637f5a7c7b1461030857806395d89b411461031b578063979d7e8614610323578063a22cb4651461034a57600080fd5b80636a627842146102cf57806370a08231146102e25780637b4e04e8146102f557600080fd5b80631d1438481161016657806342842e0e1161014057806342842e0e146102835780634ddf47d41461029657806361f3fcb2146102a95780636352211e146102bc57600080fd5b80631d1438481461025557806323b872dd1461026d578063378f17ff1461027b57600080fd5b806301ffc9a7146101ae57806306fdde03146101d6578063081812fc146101eb5780630900f01014610216578063095ea7b31461022b5780630ac7f5611461023e575b600080fd5b6101c16101bc366004611631565b6103e6565b60405190151581526020015b60405180910390f35b6101de610438565b6040516101cd919061169e565b6101fe6101f93660046116b1565b6104ca565b6040516001600160a01b0390911681526020016101cd565b6102296102243660046116ea565b6104f3565b005b610229610239366004611707565b610624565b61024760035481565b6040519081526020016101cd565b6000546101fe9061010090046001600160a01b031681565b610229610239366004611733565b610229610685565b610229610291366004611733565b6106ff565b6102296102a4366004611862565b61071f565b6101de6102b7366004611897565b610ac5565b6101fe6102ca3660046116b1565b610aee565b6102476102dd3660046116ea565b610af9565b6102476102f03660046116ea565b610c20565b6102296103033660046116ea565b610c68565b6001546101fe906001600160a01b031681565b6101de610d5d565b6101fe7f000000000000000000000000000000000000000000000000000000000000000081565b610229610239366004611986565b6102296102393660046119bf565b6000546101c19060ff1681565b6101fe7f000000000000000000000000000000000000000000000000000000000000000081565b6101de6103a83660046116b1565b610d6c565b6002546101fe906001600160a01b031681565b6101c16103ce366004611a2b565b610dd4565b6102296103e1366004611707565b610e02565b60006001600160e01b031982166380ac58cd60e01b148061041757506001600160e01b03198216635b5e139f60e01b145b8061043257506001600160e01b031982166301ffc9a760e01b145b92915050565b60606005805461044790611a59565b80601f016020809104026020016040519081016040528092919081815260200182805461047390611a59565b80156104c05780601f10610495576101008083540402835291602001916104c0565b820191906000526020600020905b8154815290600101906020018083116104a357829003601f168201915b5050505050905090565b60006104d582610eec565b506000828152600a60205260409020546001600160a01b0316610432565b336001600160a01b037f000000000000000000000000000000000000000000000000000000000000000016146105855760405162461bcd60e51b815260206004820152602c60248201527f4e6f6e5472616e7366657261626c654552433732313a206f6e6c79207265676960448201526b1cdd1c9e48185b1b1bddd95960a21b60648201526084015b60405180910390fd5b6004805460405163270b6bcf60e11b8152918201526001600160a01b03821690634e16d79e90602401600060405180830381600087803b1580156105c857600080fd5b505af11580156105dc573d6000803e3d6000fd5b50506000805460ff191660011781556040516001600160a01b03851693503092507f9603bf83c2911c6b0dd953eb62e0804c697e90855fa1007b93c0964cb39d8e169190a350565b60405162461bcd60e51b815260206004820152603060248201527f4e6f6e5472616e7366657261626c654552433732313a20746f6b656e2069732060448201526f6e6f6e2d7472616e7366657261626c6560801b606482015260840161057c565b60005461010090046001600160a01b03166106b25760405162461bcd60e51b815260040161057c90611a93565b6001546040516001600160a01b039091169081907fcf50044464943004d437001ff5385e688fe14f66bec686cd1bc2be3c774a163d90600090a250600180546001600160a01b0319169055565b61071a83838360405180602001604052806000815250610624565b505050565b336001600160a01b037f000000000000000000000000000000000000000000000000000000000000000016146107ab5760405162461bcd60e51b815260206004820152602b60248201527f4e6f6e5472616e7366657261626c654552433732313a206f6e6c79206661637460448201526a1bdc9e48185b1b1bddd95960aa1b606482015260840161057c565b6000818060200190518101906107c19190611b29565b80519091506001600160a01b03166108355760405162461bcd60e51b815260206004820152603160248201527f4e6f6e5472616e7366657261626c654552433732313a2069737375657220697360448201527020746865207a65726f206164647265737360781b606482015260840161057c565b6000816060015151116108965760405162461bcd60e51b8152602060048201526024808201527f4e6f6e5472616e7366657261626c654552433732313a206e616d6520697320656044820152636d70747960e01b606482015260840161057c565b6000816080015151116108fa5760405162461bcd60e51b815260206004820152602660248201527f4e6f6e5472616e7366657261626c654552433732313a2073796d626f6c20697360448201526520656d70747960d01b606482015260840161057c565b60008160a00151511161095f5760405162461bcd60e51b815260206004820152602760248201527f4e6f6e5472616e7366657261626c654552433732313a206261736555524920696044820152667320656d70747960c81b606482015260840161057c565b60208101516001600160a01b03166109df5760405162461bcd60e51b815260206004820152603d60248201527f4e6f6e5472616e7366657261626c654552433732313a206f726967696e43686160448201527f696e4164647265737320697320746865207a65726f2061646472657373000000606482015260840161057c565b6000816040015111610a485760405162461bcd60e51b815260206004820152602c60248201527f4e6f6e5472616e7366657261626c654552433732313a206f726967696e43686160448201526b696e4964206973207a65726f60a01b606482015260840161057c565b805160008054610100600160a81b0319166101006001600160a01b03938416021790556020820151600280546001600160a01b0319169190921617905560408101516003556060810151600590610a9f9082611c4b565b506080810151600690610ab29082611c4b565b5060a081015160079061071a9082611c4b565b606081604051602001610ad89190611d0b565b6040516020818303038152906040529050919050565b600061043282610eec565b6000805461010090046001600160a01b0316610b275760405162461bcd60e51b815260040161057c90611a93565b6001546001600160a01b031615610bfa57600180546004546000926001600160a01b03909216916386b841879130918791610b6191611dac565b6040516001600160e01b031960e086901b1681526001600160a01b03938416600482015292909116602483015260448201526064016020604051808303816000875af1158015610bb5573d6000803e3d6000fd5b505050506040513d601f19601f82011682018060405250810190610bd99190611dbf565b905080610bf85760405162461bcd60e51b815260040161057c90611ddc565b505b600460008154610c0990611e39565b9091555050600454610c1b8282610f25565b919050565b60006001600160a01b038216610c4c576040516322718ad960e21b81526000600482015260240161057c565b506001600160a01b031660009081526009602052604090205490565b60005461010090046001600160a01b0316610c955760405162461bcd60e51b815260040161057c90611a93565b6001546001600160a01b0316610d135760405162461bcd60e51b815260206004820152603760248201527f4e6f6e5472616e7366657261626c6545524337323141737365743a20686f6f6b60448201527f2063616e6e6f74206265207a65726f2061646472657373000000000000000000606482015260840161057c565b600180546001600160a01b0319166001600160a01b0383169081179091556040517f0222965ebe43c26f536935aebdc4ae52f9663e62a0aa2234626cfb1258cc1ff490600090a250565b60606006805461044790611a59565b6060610d7782610eec565b506000610d82610f3f565b90506000815111610da25760405180602001604052806000815250610dcd565b80610dac84610f4e565b604051602001610dbd929190611e52565b6040516020818303038152906040525b9392505050565b6001600160a01b039182166000908152600b6020908152604080832093909416825291909152205460ff1690565b60005461010090046001600160a01b0316610e2f5760405162461bcd60e51b815260040161057c90611a93565b6001546001600160a01b031615610edf576001546040516335661e9560e21b81523060048201526001600160a01b03848116602483015260448201849052600092169063d5987a54906064016020604051808303816000875af1158015610e9a573d6000803e3d6000fd5b505050506040513d601f19601f82011682018060405250810190610ebe9190611dbf565b905080610edd5760405162461bcd60e51b815260040161057c90611ddc565b505b610ee881610fe1565b5050565b6000818152600860205260408120546001600160a01b03168061043257604051637e27328960e01b81526004810184905260240161057c565b610ee882826040518060200160405280600081525061101c565b60606007805461044790611a59565b60606000610f5b83611033565b600101905060008167ffffffffffffffff811115610f7b57610f7b611774565b6040519080825280601f01601f191660200182016040528015610fa5576020820181803683370190505b5090508181016020015b600019016f181899199a1a9b1b9c1cb0b131b232b360811b600a86061a8153600a8504945084610faf57509392505050565b6000610ff0600083600061110b565b90506001600160a01b038116610ee857604051637e27328960e01b81526004810183905260240161057c565b6110268383611204565b61071a600084848461131e565b60008072184f03e93ff9f4daa797ed6e38ed64bf6a1f0160401b83106110725772184f03e93ff9f4daa797ed6e38ed64bf6a1f0160401b830492506040015b6d04ee2d6d415b85acef8100000000831061109e576d04ee2d6d415b85acef8100000000830492506020015b662386f26fc1000083106110bc57662386f26fc10000830492506010015b6305f5e10083106110d4576305f5e100830492506008015b61271083106110e857612710830492506004015b606483106110fa576064830492506002015b600a83106104325760010192915050565b6000828152600860205260408120546001600160a01b039081169083161561113857611138818486611448565b6001600160a01b03811615611176576111556000856000806114ac565b6001600160a01b038116600090815260096020526040902080546000190190555b6001600160a01b038516156111a5576001600160a01b0385166000908152600960205260409020805460010190555b60008481526008602052604080822080546001600160a01b0319166001600160a01b0389811691821790925591518793918516917fddf252ad1be2c89b69c2b068fc378daa952ba7f163c4a11628f55a4df523b3ef91a4949350505050565b60005460ff16156112715760405162461bcd60e51b815260206004820152603160248201527f4e6f6e5472616e7366657261626c654552433732313a20636f6e7472616374206044820152701a185cc81899595b881d5c19dc98591959607a1b606482015260840161057c565b6001600160a01b03821661129b57604051633250574960e11b81526000600482015260240161057c565b60006112a98383600061110b565b90506001600160a01b038116156112d6576040516339e3563760e11b81526000600482015260240161057c565b826001600160a01b03167f1292a1381d69fd0f033102672143fff68d426b4b73eb1fa4df2620aeed9a29948360405161131191815260200190565b60405180910390a2505050565b6001600160a01b0383163b1561144257604051630a85bd0160e11b81526001600160a01b0384169063150b7a0290611360903390889087908790600401611e81565b6020604051808303816000875af192505050801561139b575060408051601f3d908101601f1916820190925261139891810190611ebe565b60015b611404573d8080156113c9576040519150601f19603f3d011682016040523d82523d6000602084013e6113ce565b606091505b5080516000036113fc57604051633250574960e11b81526001600160a01b038516600482015260240161057c565b805181602001fd5b6001600160e01b03198116630a85bd0160e11b1461144057604051633250574960e11b81526001600160a01b038516600482015260240161057c565b505b50505050565b6114538383836115b2565b61071a576001600160a01b03831661148157604051637e27328960e01b81526004810182905260240161057c565b60405163177e802f60e01b81526001600160a01b03831660048201526024810182905260440161057c565b80806114c057506001600160a01b03821615155b156115825760006114d084610eec565b90506001600160a01b038316158015906114fc5750826001600160a01b0316816001600160a01b031614155b801561150f575061150d8184610dd4565b155b156115385760405163a9fbf51f60e01b81526001600160a01b038416600482015260240161057c565b81156115805783856001600160a01b0316826001600160a01b03167f8c5be1e5ebec7d5bd14f71427d1e84f3dd0314c0f7b2291e5b200ac8c7c3b92560405160405180910390a45b505b50506000908152600a6020526040902080546001600160a01b0319166001600160a01b0392909216919091179055565b60006001600160a01b038316158015906116105750826001600160a01b0316846001600160a01b031614806115ec57506115ec8484610dd4565b8061161057506000828152600a60205260409020546001600160a01b038481169116145b949350505050565b6001600160e01b03198116811461162e57600080fd5b50565b60006020828403121561164357600080fd5b8135610dcd81611618565b60005b83811015611669578181015183820152602001611651565b50506000910152565b6000815180845261168a81602086016020860161164e565b601f01601f19169290920160200192915050565b602081526000610dcd6020830184611672565b6000602082840312156116c357600080fd5b5035919050565b6001600160a01b038116811461162e57600080fd5b8035610c1b816116ca565b6000602082840312156116fc57600080fd5b8135610dcd816116ca565b6000806040838503121561171a57600080fd5b8235611725816116ca565b946020939093013593505050565b60008060006060848603121561174857600080fd5b8335611753816116ca565b92506020840135611763816116ca565b929592945050506040919091013590565b634e487b7160e01b600052604160045260246000fd5b60405160c0810167ffffffffffffffff811182821017156117ad576117ad611774565b60405290565b604051601f8201601f1916810167ffffffffffffffff811182821017156117dc576117dc611774565b604052919050565b600067ffffffffffffffff8211156117fe576117fe611774565b50601f01601f191660200190565b600082601f83011261181d57600080fd5b813561183061182b826117e4565b6117b3565b81815284602083860101111561184557600080fd5b816020850160208301376000918101602001919091529392505050565b60006020828403121561187457600080fd5b813567ffffffffffffffff81111561188b57600080fd5b6116108482850161180c565b6000602082840312156118a957600080fd5b813567ffffffffffffffff808211156118c157600080fd5b9083019060c082860312156118d557600080fd5b6118dd61178a565b6118e6836116df565b81526118f4602084016116df565b60208201526040830135604082015260608301358281111561191557600080fd5b6119218782860161180c565b60608301525060808301358281111561193957600080fd5b6119458782860161180c565b60808301525060a08301358281111561195d57600080fd5b6119698782860161180c565b60a08301525095945050505050565b801515811461162e57600080fd5b6000806040838503121561199957600080fd5b82356119a4816116ca565b915060208301356119b481611978565b809150509250929050565b600080600080608085870312156119d557600080fd5b84356119e0816116ca565b935060208501356119f0816116ca565b925060408501359150606085013567ffffffffffffffff811115611a1357600080fd5b611a1f8782880161180c565b91505092959194509250565b60008060408385031215611a3e57600080fd5b8235611a49816116ca565b915060208301356119b4816116ca565b600181811c90821680611a6d57607f821691505b602082108103611a8d57634e487b7160e01b600052602260045260246000fd5b50919050565b60208082526026908201527f4e6f6e5472616e7366657261626c654552433732313a206e6f7420696e697469604082015265185b1a5e995960d21b606082015260800190565b8051610c1b816116ca565b600082601f830112611af557600080fd5b8151611b0361182b826117e4565b818152846020838601011115611b1857600080fd5b61161082602083016020870161164e565b600060208284031215611b3b57600080fd5b815167ffffffffffffffff80821115611b5357600080fd5b9083019060c08286031215611b6757600080fd5b611b6f61178a565b611b7883611ad9565b8152611b8660208401611ad9565b602082015260408301516040820152606083015182811115611ba757600080fd5b611bb387828601611ae4565b606083015250608083015182811115611bcb57600080fd5b611bd787828601611ae4565b60808301525060a083015182811115611bef57600080fd5b61196987828601611ae4565b601f82111561071a576000816000526020600020601f850160051c81016020861015611c245750805b601f850160051c820191505b81811015611c4357828155600101611c30565b505050505050565b815167ffffffffffffffff811115611c6557611c65611774565b611c7981611c738454611a59565b84611bfb565b602080601f831160018114611cae5760008415611c965750858301515b600019600386901b1c1916600185901b178555611c43565b600085815260208120601f198616915b82811015611cdd57888601518255948401946001909101908401611cbe565b5085821015611cfb5787850151600019600388901b60f8161c191681555b5050505050600190811b01905550565b60208152600060018060a01b038084511660208401528060208501511660408401525060408301516060830152606083015160c06080840152611d5160e0840182611672565b90506080840151601f19808584030160a0860152611d6f8383611672565b925060a08601519150808584030160c086015250611d8d8282611672565b95945050505050565b634e487b7160e01b600052601160045260246000fd5b8082018082111561043257610432611d96565b600060208284031215611dd157600080fd5b8151610dcd81611978565b6020808252603c908201527f4e6f6e5472616e7366657261626c6545524337323141737365743a206265666f60408201527f72654d696e7420686f6f6b2072656a6563746564207265717565737400000000606082015260800190565b600060018201611e4b57611e4b611d96565b5060010190565b60008351611e6481846020880161164e565b835190830190611e7881836020880161164e565b01949350505050565b6001600160a01b0385811682528416602082015260408101839052608060608201819052600090611eb490830184611672565b9695505050505050565b600060208284031215611ed057600080fd5b8151610dcd8161161856fea26469706673582212200c6580463d0a97d2751800fad8d70f1e622617718357fab5e4fc1ab59924296c64736f6c63430008180033","opcodes":"PUSH1 0xC0 PUSH1 0x40 MSTORE CALLVALUE DUP1 ISZERO PUSH3 0x11 JUMPI PUSH1 0x0 DUP1 REVERT JUMPDEST POP PUSH1 0x40 MLOAD PUSH3 0x20DB CODESIZE SUB DUP1 PUSH3 0x20DB DUP4 CODECOPY DUP2 ADD PUSH1 0x40 DUP2 SWAP1 MSTORE PUSH3 0x34 SWAP2 PUSH3 0x15E JUMP JUMPDEST PUSH1 0x1 PUSH1 0x1 PUSH1 0xA0 SHL SUB DUP3 AND PUSH3 0xAB JUMPI PUSH1 0x40 MLOAD PUSH3 0x461BCD PUSH1 0xE5 SHL DUP2 MSTORE PUSH1 0x20 PUSH1 0x4 DUP3 ADD MSTORE PUSH1 0x32 PUSH1 0x24 DUP3 ADD MSTORE PUSH32 0x4E6F6E5472616E7366657261626C654552433732313A20666163746F72792069 PUSH1 0x44 DUP3 ADD MSTORE PUSH18 0x7320746865207A65726F2061646472657373 PUSH1 0x70 SHL PUSH1 0x64 DUP3 ADD MSTORE PUSH1 0x84 ADD JUMPDEST PUSH1 0x40 MLOAD DUP1 SWAP2 SUB SWAP1 REVERT JUMPDEST PUSH1 0x1 PUSH1 0x1 PUSH1 0xA0 SHL SUB DUP2 AND PUSH3 0x129 JUMPI PUSH1 0x40 MLOAD PUSH3 0x461BCD PUSH1 0xE5 SHL DUP2 MSTORE PUSH1 0x20 PUSH1 0x4 DUP3 ADD MSTORE PUSH1 0x33 PUSH1 0x24 DUP3 ADD MSTORE PUSH32 0x4E6F6E5472616E7366657261626C654552433732313A20726567697374727920 PUSH1 0x44 DUP3 ADD MSTORE PUSH32 0x697320746865207A65726F206164647265737300000000000000000000000000 PUSH1 0x64 DUP3 ADD MSTORE PUSH1 0x84 ADD PUSH3 0xA2 JUMP JUMPDEST PUSH1 0x1 PUSH1 0x1 PUSH1 0xA0 SHL SUB SWAP2 DUP3 AND PUSH1 0x80 MSTORE AND PUSH1 0xA0 MSTORE PUSH3 0x196 JUMP JUMPDEST DUP1 MLOAD PUSH1 0x1 PUSH1 0x1 PUSH1 0xA0 SHL SUB DUP2 AND DUP2 EQ PUSH3 0x159 JUMPI PUSH1 0x0 DUP1 REVERT JUMPDEST SWAP2 SWAP1 POP JUMP JUMPDEST PUSH1 0x0 DUP1 PUSH1 0x40 DUP4 DUP6 SUB SLT ISZERO PUSH3 0x172 JUMPI PUSH1 0x0 DUP1 REVERT JUMPDEST PUSH3 0x17D DUP4 PUSH3 0x141 JUMP JUMPDEST SWAP2 POP PUSH3 0x18D PUSH1 0x20 DUP5 ADD PUSH3 0x141 JUMP JUMPDEST SWAP1 POP SWAP3 POP SWAP3 SWAP1 POP JUMP JUMPDEST PUSH1 0x80 MLOAD PUSH1 0xA0 MLOAD PUSH2 0x1F11 PUSH3 0x1CA PUSH1 0x0 CODECOPY PUSH1 0x0 DUP2 DUP2 PUSH2 0x328 ADD MSTORE PUSH2 0x4FE ADD MSTORE PUSH1 0x0 DUP2 DUP2 PUSH2 0x378 ADD MSTORE PUSH2 0x72A ADD MSTORE PUSH2 0x1F11 PUSH1 0x0 RETURN INVALID PUSH1 0x80 PUSH1 0x40 MSTORE CALLVALUE DUP1 ISZERO PUSH2 0x10 JUMPI PUSH1 0x0 DUP1 REVERT JUMPDEST POP PUSH1 0x4 CALLDATASIZE LT PUSH2 0x1A9 JUMPI PUSH1 0x0 CALLDATALOAD PUSH1 0xE0 SHR DUP1 PUSH4 0x6A627842 GT PUSH2 0xF9 JUMPI DUP1 PUSH4 0xB88D4FDE GT PUSH2 0x97 JUMPI DUP1 PUSH4 0xC87B56DD GT PUSH2 0x71 JUMPI DUP1 PUSH4 0xC87B56DD EQ PUSH2 0x39A JUMPI DUP1 PUSH4 0xE517FEDD EQ PUSH2 0x3AD JUMPI DUP1 PUSH4 0xE985E9C5 EQ PUSH2 0x3C0 JUMPI DUP1 PUSH4 0xEAC449D9 EQ PUSH2 0x3D3 JUMPI PUSH1 0x0 DUP1 REVERT JUMPDEST DUP1 PUSH4 0xB88D4FDE EQ PUSH2 0x358 JUMPI DUP1 PUSH4 0xC28DE2CD EQ PUSH2 0x366 JUMPI DUP1 PUSH4 0xC3ACB4D1 EQ PUSH2 0x373 JUMPI PUSH1 0x0 DUP1 REVERT JUMPDEST DUP1 PUSH4 0x7F5A7C7B GT PUSH2 0xD3 JUMPI DUP1 PUSH4 0x7F5A7C7B EQ PUSH2 0x308 JUMPI DUP1 PUSH4 0x95D89B41 EQ PUSH2 0x31B JUMPI DUP1 PUSH4 0x979D7E86 EQ PUSH2 0x323 JUMPI DUP1 PUSH4 0xA22CB465 EQ PUSH2 0x34A JUMPI PUSH1 0x0 DUP1 REVERT JUMPDEST DUP1 PUSH4 0x6A627842 EQ PUSH2 0x2CF JUMPI DUP1 PUSH4 0x70A08231 EQ PUSH2 0x2E2 JUMPI DUP1 PUSH4 0x7B4E04E8 EQ PUSH2 0x2F5 JUMPI PUSH1 0x0 DUP1 REVERT JUMPDEST DUP1 PUSH4 0x1D143848 GT PUSH2 0x166 JUMPI DUP1 PUSH4 0x42842E0E GT PUSH2 0x140 JUMPI DUP1 PUSH4 0x42842E0E EQ PUSH2 0x283 JUMPI DUP1 PUSH4 0x4DDF47D4 EQ PUSH2 0x296 JUMPI DUP1 PUSH4 0x61F3FCB2 EQ PUSH2 0x2A9 JUMPI DUP1 PUSH4 0x6352211E EQ PUSH2 0x2BC JUMPI PUSH1 0x0 DUP1 REVERT JUMPDEST DUP1 PUSH4 0x1D143848 EQ PUSH2 0x255 JUMPI DUP1 PUSH4 0x23B872DD EQ PUSH2 0x26D JUMPI DUP1 PUSH4 0x378F17FF EQ PUSH2 0x27B JUMPI PUSH1 0x0 DUP1 REVERT JUMPDEST DUP1 PUSH4 0x1FFC9A7 EQ PUSH2 0x1AE JUMPI DUP1 PUSH4 0x6FDDE03 EQ PUSH2 0x1D6 JUMPI DUP1 PUSH4 0x81812FC EQ PUSH2 0x1EB JUMPI DUP1 PUSH4 0x900F010 EQ PUSH2 0x216 JUMPI DUP1 PUSH4 0x95EA7B3 EQ PUSH2 0x22B JUMPI DUP1 PUSH4 0xAC7F561 EQ PUSH2 0x23E JUMPI JUMPDEST PUSH1 0x0 DUP1 REVERT JUMPDEST PUSH2 0x1C1 PUSH2 0x1BC CALLDATASIZE PUSH1 0x4 PUSH2 0x1631 JUMP JUMPDEST PUSH2 0x3E6 JUMP JUMPDEST PUSH1 0x40 MLOAD SWAP1 ISZERO ISZERO DUP2 MSTORE PUSH1 0x20 ADD JUMPDEST PUSH1 0x40 MLOAD DUP1 SWAP2 SUB SWAP1 RETURN JUMPDEST PUSH2 0x1DE PUSH2 0x438 JUMP JUMPDEST PUSH1 0x40 MLOAD PUSH2 0x1CD SWAP2 SWAP1 PUSH2 0x169E JUMP JUMPDEST PUSH2 0x1FE PUSH2 0x1F9 CALLDATASIZE PUSH1 0x4 PUSH2 0x16B1 JUMP JUMPDEST PUSH2 0x4CA JUMP JUMPDEST PUSH1 0x40 MLOAD PUSH1 0x1 PUSH1 0x1 PUSH1 0xA0 SHL SUB SWAP1 SWAP2 AND DUP2 MSTORE PUSH1 0x20 ADD PUSH2 0x1CD JUMP JUMPDEST PUSH2 0x229 PUSH2 0x224 CALLDATASIZE PUSH1 0x4 PUSH2 0x16EA JUMP JUMPDEST PUSH2 0x4F3 JUMP JUMPDEST STOP JUMPDEST PUSH2 0x229 PUSH2 0x239 CALLDATASIZE PUSH1 0x4 PUSH2 0x1707 JUMP JUMPDEST PUSH2 0x624 JUMP JUMPDEST PUSH2 0x247 PUSH1 0x3 SLOAD DUP2 JUMP JUMPDEST PUSH1 0x40 MLOAD SWAP1 DUP2 MSTORE PUSH1 0x20 ADD PUSH2 0x1CD JUMP JUMPDEST PUSH1 0x0 SLOAD PUSH2 0x1FE SWAP1 PUSH2 0x100 SWAP1 DIV PUSH1 0x1 PUSH1 0x1 PUSH1 0xA0 SHL SUB AND DUP2 JUMP JUMPDEST PUSH2 0x229 PUSH2 0x239 CALLDATASIZE PUSH1 0x4 PUSH2 0x1733 JUMP JUMPDEST PUSH2 0x229 PUSH2 0x685 JUMP JUMPDEST PUSH2 0x229 PUSH2 0x291 CALLDATASIZE PUSH1 0x4 PUSH2 0x1733 JUMP JUMPDEST PUSH2 0x6FF JUMP JUMPDEST PUSH2 0x229 PUSH2 0x2A4 CALLDATASIZE PUSH1 0x4 PUSH2 0x1862 JUMP JUMPDEST PUSH2 0x71F JUMP JUMPDEST PUSH2 0x1DE PUSH2 0x2B7 CALLDATASIZE PUSH1 0x4 PUSH2 0x1897 JUMP JUMPDEST PUSH2 0xAC5 JUMP JUMPDEST PUSH2 0x1FE PUSH2 0x2CA CALLDATASIZE PUSH1 0x4 PUSH2 0x16B1 JUMP JUMPDEST PUSH2 0xAEE JUMP JUMPDEST PUSH2 0x247 PUSH2 0x2DD CALLDATASIZE PUSH1 0x4 PUSH2 0x16EA JUMP JUMPDEST PUSH2 0xAF9 JUMP JUMPDEST PUSH2 0x247 PUSH2 0x2F0 CALLDATASIZE PUSH1 0x4 PUSH2 0x16EA JUMP JUMPDEST PUSH2 0xC20 JUMP JUMPDEST PUSH2 0x229 PUSH2 0x303 CALLDATASIZE PUSH1 0x4 PUSH2 0x16EA JUMP JUMPDEST PUSH2 0xC68 JUMP JUMPDEST PUSH1 0x1 SLOAD PUSH2 0x1FE SWAP1 PUSH1 0x1 PUSH1 0x1 PUSH1 0xA0 SHL SUB AND DUP2 JUMP JUMPDEST PUSH2 0x1DE PUSH2 0xD5D JUMP JUMPDEST PUSH2 0x1FE PUSH32 0x0 DUP2 JUMP JUMPDEST PUSH2 0x229 PUSH2 0x239 CALLDATASIZE PUSH1 0x4 PUSH2 0x1986 JUMP JUMPDEST PUSH2 0x229 PUSH2 0x239 CALLDATASIZE PUSH1 0x4 PUSH2 0x19BF JUMP JUMPDEST PUSH1 0x0 SLOAD PUSH2 0x1C1 SWAP1 PUSH1 0xFF AND DUP2 JUMP JUMPDEST PUSH2 0x1FE PUSH32 0x0 DUP2 JUMP JUMPDEST PUSH2 0x1DE PUSH2 0x3A8 CALLDATASIZE PUSH1 0x4 PUSH2 0x16B1 JUMP JUMPDEST PUSH2 0xD6C JUMP JUMPDEST PUSH1 0x2 SLOAD PUSH2 0x1FE SWAP1 PUSH1 0x1 PUSH1 0x1 PUSH1 0xA0 SHL SUB AND DUP2 JUMP JUMPDEST PUSH2 0x1C1 PUSH2 0x3CE CALLDATASIZE PUSH1 0x4 PUSH2 0x1A2B JUMP JUMPDEST PUSH2 0xDD4 JUMP JUMPDEST PUSH2 0x229 PUSH2 0x3E1 CALLDATASIZE PUSH1 0x4 PUSH2 0x1707 JUMP JUMPDEST PUSH2 0xE02 JUMP JUMPDEST PUSH1 0x0 PUSH1 0x1 PUSH1 0x1 PUSH1 0xE0 SHL SUB NOT DUP3 AND PUSH4 0x80AC58CD PUSH1 0xE0 SHL EQ DUP1 PUSH2 0x417 JUMPI POP PUSH1 0x1 PUSH1 0x1 PUSH1 0xE0 SHL SUB NOT DUP3 AND PUSH4 0x5B5E139F PUSH1 0xE0 SHL EQ JUMPDEST DUP1 PUSH2 0x432 JUMPI POP PUSH1 0x1 PUSH1 0x1 PUSH1 0xE0 SHL SUB NOT DUP3 AND PUSH4 0x1FFC9A7 PUSH1 0xE0 SHL EQ JUMPDEST SWAP3 SWAP2 POP POP JUMP JUMPDEST PUSH1 0x60 PUSH1 0x5 DUP1 SLOAD PUSH2 0x447 SWAP1 PUSH2 0x1A59 JUMP JUMPDEST DUP1 PUSH1 0x1F ADD PUSH1 0x20 DUP1 SWAP2 DIV MUL PUSH1 0x20 ADD PUSH1 0x40 MLOAD SWAP1 DUP2 ADD PUSH1 0x40 MSTORE DUP1 SWAP3 SWAP2 SWAP1 DUP2 DUP2 MSTORE PUSH1 0x20 ADD DUP3 DUP1 SLOAD PUSH2 0x473 SWAP1 PUSH2 0x1A59 JUMP JUMPDEST DUP1 ISZERO PUSH2 0x4C0 JUMPI DUP1 PUSH1 0x1F LT PUSH2 0x495 JUMPI PUSH2 0x100 DUP1 DUP4 SLOAD DIV MUL DUP4 MSTORE SWAP2 PUSH1 0x20 ADD SWAP2 PUSH2 0x4C0 JUMP JUMPDEST DUP3 ADD SWAP2 SWAP1 PUSH1 0x0 MSTORE PUSH1 0x20 PUSH1 0x0 KECCAK256 SWAP1 JUMPDEST DUP2 SLOAD DUP2 MSTORE SWAP1 PUSH1 0x1 ADD SWAP1 PUSH1 0x20 ADD DUP1 DUP4 GT PUSH2 0x4A3 JUMPI DUP3 SWAP1 SUB PUSH1 0x1F AND DUP3 ADD SWAP2 JUMPDEST POP POP POP POP POP SWAP1 POP SWAP1 JUMP JUMPDEST PUSH1 0x0 PUSH2 0x4D5 DUP3 PUSH2 0xEEC JUMP JUMPDEST POP PUSH1 0x0 DUP3 DUP2 MSTORE PUSH1 0xA PUSH1 0x20 MSTORE PUSH1 0x40 SWAP1 KECCAK256 SLOAD PUSH1 0x1 PUSH1 0x1 PUSH1 0xA0 SHL SUB AND PUSH2 0x432 JUMP JUMPDEST CALLER PUSH1 0x1 PUSH1 0x1 PUSH1 0xA0 SHL SUB PUSH32 0x0 AND EQ PUSH2 0x585 JUMPI PUSH1 0x40 MLOAD PUSH3 0x461BCD PUSH1 0xE5 SHL DUP2 MSTORE PUSH1 0x20 PUSH1 0x4 DUP3 ADD MSTORE PUSH1 0x2C PUSH1 0x24 DUP3 ADD MSTORE PUSH32 0x4E6F6E5472616E7366657261626C654552433732313A206F6E6C792072656769 PUSH1 0x44 DUP3 ADD MSTORE PUSH12 0x1CDD1C9E48185B1B1BDDD959 PUSH1 0xA2 SHL PUSH1 0x64 DUP3 ADD MSTORE PUSH1 0x84 ADD JUMPDEST PUSH1 0x40 MLOAD DUP1 SWAP2 SUB SWAP1 REVERT JUMPDEST PUSH1 0x4 DUP1 SLOAD PUSH1 0x40 MLOAD PUSH4 0x270B6BCF PUSH1 0xE1 SHL DUP2 MSTORE SWAP2 DUP3 ADD MSTORE PUSH1 0x1 PUSH1 0x1 PUSH1 0xA0 SHL SUB DUP3 AND SWAP1 PUSH4 0x4E16D79E SWAP1 PUSH1 0x24 ADD PUSH1 0x0 PUSH1 0x40 MLOAD DUP1 DUP4 SUB DUP2 PUSH1 0x0 DUP8 DUP1 EXTCODESIZE ISZERO DUP1 ISZERO PUSH2 0x5C8 JUMPI PUSH1 0x0 DUP1 REVERT JUMPDEST POP GAS CALL ISZERO DUP1 ISZERO PUSH2 0x5DC JUMPI RETURNDATASIZE PUSH1 0x0 DUP1 RETURNDATACOPY RETURNDATASIZE PUSH1 0x0 REVERT JUMPDEST POP POP PUSH1 0x0 DUP1 SLOAD PUSH1 0xFF NOT AND PUSH1 0x1 OR DUP2 SSTORE PUSH1 0x40 MLOAD PUSH1 0x1 PUSH1 0x1 PUSH1 0xA0 SHL SUB DUP6 AND SWAP4 POP ADDRESS SWAP3 POP PUSH32 0x9603BF83C2911C6B0DD953EB62E0804C697E90855FA1007B93C0964CB39D8E16 SWAP2 SWAP1 LOG3 POP JUMP JUMPDEST PUSH1 0x40 MLOAD PUSH3 0x461BCD PUSH1 0xE5 SHL DUP2 MSTORE PUSH1 0x20 PUSH1 0x4 DUP3 ADD MSTORE PUSH1 0x30 PUSH1 0x24 DUP3 ADD MSTORE PUSH32 0x4E6F6E5472616E7366657261626C654552433732313A20746F6B656E20697320 PUSH1 0x44 DUP3 ADD MSTORE PUSH16 0x6E6F6E2D7472616E7366657261626C65 PUSH1 0x80 SHL PUSH1 0x64 DUP3 ADD MSTORE PUSH1 0x84 ADD PUSH2 0x57C JUMP JUMPDEST PUSH1 0x0 SLOAD PUSH2 0x100 SWAP1 DIV PUSH1 0x1 PUSH1 0x1 PUSH1 0xA0 SHL SUB AND PUSH2 0x6B2 JUMPI PUSH1 0x40 MLOAD PUSH3 0x461BCD PUSH1 0xE5 SHL DUP2 MSTORE PUSH1 0x4 ADD PUSH2 0x57C SWAP1 PUSH2 0x1A93 JUMP JUMPDEST PUSH1 0x1 SLOAD PUSH1 0x40 MLOAD PUSH1 0x1 PUSH1 0x1 PUSH1 0xA0 SHL SUB SWAP1 SWAP2 AND SWAP1 DUP2 SWAP1 PUSH32 0xCF50044464943004D437001FF5385E688FE14F66BEC686CD1BC2BE3C774A163D SWAP1 PUSH1 0x0 SWAP1 LOG2 POP PUSH1 0x1 DUP1 SLOAD PUSH1 0x1 PUSH1 0x1 PUSH1 0xA0 SHL SUB NOT AND SWAP1 SSTORE JUMP JUMPDEST PUSH2 0x71A DUP4 DUP4 DUP4 PUSH1 0x40 MLOAD DUP1 PUSH1 0x20 ADD PUSH1 0x40 MSTORE DUP1 PUSH1 0x0 DUP2 MSTORE POP PUSH2 0x624 JUMP JUMPDEST POP POP POP JUMP JUMPDEST CALLER PUSH1 0x1 PUSH1 0x1 PUSH1 0xA0 SHL SUB PUSH32 0x0 AND EQ PUSH2 0x7AB JUMPI PUSH1 0x40 MLOAD PUSH3 0x461BCD PUSH1 0xE5 SHL DUP2 MSTORE PUSH1 0x20 PUSH1 0x4 DUP3 ADD MSTORE PUSH1 0x2B PUSH1 0x24 DUP3 ADD MSTORE PUSH32 0x4E6F6E5472616E7366657261626C654552433732313A206F6E6C792066616374 PUSH1 0x44 DUP3 ADD MSTORE PUSH11 0x1BDC9E48185B1B1BDDD959 PUSH1 0xAA SHL PUSH1 0x64 DUP3 ADD MSTORE PUSH1 0x84 ADD PUSH2 0x57C JUMP JUMPDEST PUSH1 0x0 DUP2 DUP1 PUSH1 0x20 ADD SWAP1 MLOAD DUP2 ADD SWAP1 PUSH2 0x7C1 SWAP2 SWAP1 PUSH2 0x1B29 JUMP JUMPDEST DUP1 MLOAD SWAP1 SWAP2 POP PUSH1 0x1 PUSH1 0x1 PUSH1 0xA0 SHL SUB AND PUSH2 0x835 JUMPI PUSH1 0x40 MLOAD PUSH3 0x461BCD PUSH1 0xE5 SHL DUP2 MSTORE PUSH1 0x20 PUSH1 0x4 DUP3 ADD MSTORE PUSH1 0x31 PUSH1 0x24 DUP3 ADD MSTORE PUSH32 0x4E6F6E5472616E7366657261626C654552433732313A20697373756572206973 PUSH1 0x44 DUP3 ADD MSTORE PUSH17 0x20746865207A65726F2061646472657373 PUSH1 0x78 SHL PUSH1 0x64 DUP3 ADD MSTORE PUSH1 0x84 ADD PUSH2 0x57C JUMP JUMPDEST PUSH1 0x0 DUP2 PUSH1 0x60 ADD MLOAD MLOAD GT PUSH2 0x896 JUMPI PUSH1 0x40 MLOAD PUSH3 0x461BCD PUSH1 0xE5 SHL DUP2 MSTORE PUSH1 0x20 PUSH1 0x4 DUP3 ADD MSTORE PUSH1 0x24 DUP1 DUP3 ADD MSTORE PUSH32 0x4E6F6E5472616E7366657261626C654552433732313A206E616D652069732065 PUSH1 0x44 DUP3 ADD MSTORE PUSH4 0x6D707479 PUSH1 0xE0 SHL PUSH1 0x64 DUP3 ADD MSTORE PUSH1 0x84 ADD PUSH2 0x57C JUMP JUMPDEST PUSH1 0x0 DUP2 PUSH1 0x80 ADD MLOAD MLOAD GT PUSH2 0x8FA JUMPI PUSH1 0x40 MLOAD PUSH3 0x461BCD PUSH1 0xE5 SHL DUP2 MSTORE PUSH1 0x20 PUSH1 0x4 DUP3 ADD MSTORE PUSH1 0x26 PUSH1 0x24 DUP3 ADD MSTORE PUSH32 0x4E6F6E5472616E7366657261626C654552433732313A2073796D626F6C206973 PUSH1 0x44 DUP3 ADD MSTORE PUSH6 0x20656D707479 PUSH1 0xD0 SHL PUSH1 0x64 DUP3 ADD MSTORE PUSH1 0x84 ADD PUSH2 0x57C JUMP JUMPDEST PUSH1 0x0 DUP2 PUSH1 0xA0 ADD MLOAD MLOAD GT PUSH2 0x95F JUMPI PUSH1 0x40 MLOAD PUSH3 0x461BCD PUSH1 0xE5 SHL DUP2 MSTORE PUSH1 0x20 PUSH1 0x4 DUP3 ADD MSTORE PUSH1 0x27 PUSH1 0x24 DUP3 ADD MSTORE PUSH32 0x4E6F6E5472616E7366657261626C654552433732313A20626173655552492069 PUSH1 0x44 DUP3 ADD MSTORE PUSH7 0x7320656D707479 PUSH1 0xC8 SHL PUSH1 0x64 DUP3 ADD MSTORE PUSH1 0x84 ADD PUSH2 0x57C JUMP JUMPDEST PUSH1 0x20 DUP2 ADD MLOAD PUSH1 0x1 PUSH1 0x1 PUSH1 0xA0 SHL SUB AND PUSH2 0x9DF JUMPI PUSH1 0x40 MLOAD PUSH3 0x461BCD PUSH1 0xE5 SHL DUP2 MSTORE PUSH1 0x20 PUSH1 0x4 DUP3 ADD MSTORE PUSH1 0x3D PUSH1 0x24 DUP3 ADD MSTORE PUSH32 0x4E6F6E5472616E7366657261626C654552433732313A206F726967696E436861 PUSH1 0x44 DUP3 ADD MSTORE PUSH32 0x696E4164647265737320697320746865207A65726F2061646472657373000000 PUSH1 0x64 DUP3 ADD MSTORE PUSH1 0x84 ADD PUSH2 0x57C JUMP JUMPDEST PUSH1 0x0 DUP2 PUSH1 0x40 ADD MLOAD GT PUSH2 0xA48 JUMPI PUSH1 0x40 MLOAD PUSH3 0x461BCD PUSH1 0xE5 SHL DUP2 MSTORE PUSH1 0x20 PUSH1 0x4 DUP3 ADD MSTORE PUSH1 0x2C PUSH1 0x24 DUP3 ADD MSTORE PUSH32 0x4E6F6E5472616E7366657261626C654552433732313A206F726967696E436861 PUSH1 0x44 DUP3 ADD MSTORE PUSH12 0x696E4964206973207A65726F PUSH1 0xA0 SHL PUSH1 0x64 DUP3 ADD MSTORE PUSH1 0x84 ADD PUSH2 0x57C JUMP JUMPDEST DUP1 MLOAD PUSH1 0x0 DUP1 SLOAD PUSH2 0x100 PUSH1 0x1 PUSH1 0xA8 SHL SUB NOT AND PUSH2 0x100 PUSH1 0x1 PUSH1 0x1 PUSH1 0xA0 SHL SUB SWAP4 DUP5 AND MUL OR SWAP1 SSTORE PUSH1 0x20 DUP3 ADD MLOAD PUSH1 0x2 DUP1 SLOAD PUSH1 0x1 PUSH1 0x1 PUSH1 0xA0 SHL SUB NOT AND SWAP2 SWAP1 SWAP3 AND OR SWAP1 SSTORE PUSH1 0x40 DUP2 ADD MLOAD PUSH1 0x3 SSTORE PUSH1 0x60 DUP2 ADD MLOAD PUSH1 0x5 SWAP1 PUSH2 0xA9F SWAP1 DUP3 PUSH2 0x1C4B JUMP JUMPDEST POP PUSH1 0x80 DUP2 ADD MLOAD PUSH1 0x6 SWAP1 PUSH2 0xAB2 SWAP1 DUP3 PUSH2 0x1C4B JUMP JUMPDEST POP PUSH1 0xA0 DUP2 ADD MLOAD PUSH1 0x7 SWAP1 PUSH2 0x71A SWAP1 DUP3 PUSH2 0x1C4B JUMP JUMPDEST PUSH1 0x60 DUP2 PUSH1 0x40 MLOAD PUSH1 0x20 ADD PUSH2 0xAD8 SWAP2 SWAP1 PUSH2 0x1D0B JUMP JUMPDEST PUSH1 0x40 MLOAD PUSH1 0x20 DUP2 DUP4 SUB SUB DUP2 MSTORE SWAP1 PUSH1 0x40 MSTORE SWAP1 POP SWAP2 SWAP1 POP JUMP JUMPDEST PUSH1 0x0 PUSH2 0x432 DUP3 PUSH2 0xEEC JUMP JUMPDEST PUSH1 0x0 DUP1 SLOAD PUSH2 0x100 SWAP1 DIV PUSH1 0x1 PUSH1 0x1 PUSH1 0xA0 SHL SUB AND PUSH2 0xB27 JUMPI PUSH1 0x40 MLOAD PUSH3 0x461BCD PUSH1 0xE5 SHL DUP2 MSTORE PUSH1 0x4 ADD PUSH2 0x57C SWAP1 PUSH2 0x1A93 JUMP JUMPDEST PUSH1 0x1 SLOAD PUSH1 0x1 PUSH1 0x1 PUSH1 0xA0 SHL SUB AND ISZERO PUSH2 0xBFA JUMPI PUSH1 0x1 DUP1 SLOAD PUSH1 0x4 SLOAD PUSH1 0x0 SWAP3 PUSH1 0x1 PUSH1 0x1 PUSH1 0xA0 SHL SUB SWAP1 SWAP3 AND SWAP2 PUSH4 0x86B84187 SWAP2 ADDRESS SWAP2 DUP8 SWAP2 PUSH2 0xB61 SWAP2 PUSH2 0x1DAC JUMP JUMPDEST PUSH1 0x40 MLOAD PUSH1 0x1 PUSH1 0x1 PUSH1 0xE0 SHL SUB NOT PUSH1 0xE0 DUP7 SWAP1 SHL AND DUP2 MSTORE PUSH1 0x1 PUSH1 0x1 PUSH1 0xA0 SHL SUB SWAP4 DUP5 AND PUSH1 0x4 DUP3 ADD MSTORE SWAP3 SWAP1 SWAP2 AND PUSH1 0x24 DUP4 ADD MSTORE PUSH1 0x44 DUP3 ADD MSTORE PUSH1 0x64 ADD PUSH1 0x20 PUSH1 0x40 MLOAD DUP1 DUP4 SUB DUP2 PUSH1 0x0 DUP8 GAS CALL ISZERO DUP1 ISZERO PUSH2 0xBB5 JUMPI RETURNDATASIZE PUSH1 0x0 DUP1 RETURNDATACOPY RETURNDATASIZE PUSH1 0x0 REVERT JUMPDEST POP POP POP POP PUSH1 0x40 MLOAD RETURNDATASIZE PUSH1 0x1F NOT PUSH1 0x1F DUP3 ADD AND DUP3 ADD DUP1 PUSH1 0x40 MSTORE POP DUP2 ADD SWAP1 PUSH2 0xBD9 SWAP2 SWAP1 PUSH2 0x1DBF JUMP JUMPDEST SWAP1 POP DUP1 PUSH2 0xBF8 JUMPI PUSH1 0x40 MLOAD PUSH3 0x461BCD PUSH1 0xE5 SHL DUP2 MSTORE PUSH1 0x4 ADD PUSH2 0x57C SWAP1 PUSH2 0x1DDC JUMP JUMPDEST POP JUMPDEST PUSH1 0x4 PUSH1 0x0 DUP2 SLOAD PUSH2 0xC09 SWAP1 PUSH2 0x1E39 JUMP JUMPDEST SWAP1 SWAP2 SSTORE POP POP PUSH1 0x4 SLOAD PUSH2 0xC1B DUP3 DUP3 PUSH2 0xF25 JUMP JUMPDEST SWAP2 SWAP1 POP JUMP JUMPDEST PUSH1 0x0 PUSH1 0x1 PUSH1 0x1 PUSH1 0xA0 SHL SUB DUP3 AND PUSH2 0xC4C JUMPI PUSH1 0x40 MLOAD PUSH4 0x22718AD9 PUSH1 0xE2 SHL DUP2 MSTORE PUSH1 0x0 PUSH1 0x4 DUP3 ADD MSTORE PUSH1 0x24 ADD PUSH2 0x57C JUMP JUMPDEST POP PUSH1 0x1 PUSH1 0x1 PUSH1 0xA0 SHL SUB AND PUSH1 0x0 SWAP1 DUP2 MSTORE PUSH1 0x9 PUSH1 0x20 MSTORE PUSH1 0x40 SWAP1 KECCAK256 SLOAD SWAP1 JUMP JUMPDEST PUSH1 0x0 SLOAD PUSH2 0x100 SWAP1 DIV PUSH1 0x1 PUSH1 0x1 PUSH1 0xA0 SHL SUB AND PUSH2 0xC95 JUMPI PUSH1 0x40 MLOAD PUSH3 0x461BCD PUSH1 0xE5 SHL DUP2 MSTORE PUSH1 0x4 ADD PUSH2 0x57C SWAP1 PUSH2 0x1A93 JUMP JUMPDEST PUSH1 0x1 SLOAD PUSH1 0x1 PUSH1 0x1 PUSH1 0xA0 SHL SUB AND PUSH2 0xD13 JUMPI PUSH1 0x40 MLOAD PUSH3 0x461BCD PUSH1 0xE5 SHL DUP2 MSTORE PUSH1 0x20 PUSH1 0x4 DUP3 ADD MSTORE PUSH1 0x37 PUSH1 0x24 DUP3 ADD MSTORE PUSH32 0x4E6F6E5472616E7366657261626C6545524337323141737365743A20686F6F6B PUSH1 0x44 DUP3 ADD MSTORE PUSH32 0x2063616E6E6F74206265207A65726F2061646472657373000000000000000000 PUSH1 0x64 DUP3 ADD MSTORE PUSH1 0x84 ADD PUSH2 0x57C JUMP JUMPDEST PUSH1 0x1 DUP1 SLOAD PUSH1 0x1 PUSH1 0x1 PUSH1 0xA0 SHL SUB NOT AND PUSH1 0x1 PUSH1 0x1 PUSH1 0xA0 SHL SUB DUP4 AND SWAP1 DUP2 OR SWAP1 SWAP2 SSTORE PUSH1 0x40 MLOAD PUSH32 0x222965EBE43C26F536935AEBDC4AE52F9663E62A0AA2234626CFB1258CC1FF4 SWAP1 PUSH1 0x0 SWAP1 LOG2 POP JUMP JUMPDEST PUSH1 0x60 PUSH1 0x6 DUP1 SLOAD PUSH2 0x447 SWAP1 PUSH2 0x1A59 JUMP JUMPDEST PUSH1 0x60 PUSH2 0xD77 DUP3 PUSH2 0xEEC JUMP JUMPDEST POP PUSH1 0x0 PUSH2 0xD82 PUSH2 0xF3F JUMP JUMPDEST SWAP1 POP PUSH1 0x0 DUP2 MLOAD GT PUSH2 0xDA2 JUMPI PUSH1 0x40 MLOAD DUP1 PUSH1 0x20 ADD PUSH1 0x40 MSTORE DUP1 PUSH1 0x0 DUP2 MSTORE POP PUSH2 0xDCD JUMP JUMPDEST DUP1 PUSH2 0xDAC DUP5 PUSH2 0xF4E JUMP JUMPDEST PUSH1 0x40 MLOAD PUSH1 0x20 ADD PUSH2 0xDBD SWAP3 SWAP2 SWAP1 PUSH2 0x1E52 JUMP JUMPDEST PUSH1 0x40 MLOAD PUSH1 0x20 DUP2 DUP4 SUB SUB DUP2 MSTORE SWAP1 PUSH1 0x40 MSTORE JUMPDEST SWAP4 SWAP3 POP POP POP JUMP JUMPDEST PUSH1 0x1 PUSH1 0x1 PUSH1 0xA0 SHL SUB SWAP2 DUP3 AND PUSH1 0x0 SWAP1 DUP2 MSTORE PUSH1 0xB PUSH1 0x20 SWAP1 DUP2 MSTORE PUSH1 0x40 DUP1 DUP4 KECCAK256 SWAP4 SWAP1 SWAP5 AND DUP3 MSTORE SWAP2 SWAP1 SWAP2 MSTORE KECCAK256 SLOAD PUSH1 0xFF AND SWAP1 JUMP JUMPDEST PUSH1 0x0 SLOAD PUSH2 0x100 SWAP1 DIV PUSH1 0x1 PUSH1 0x1 PUSH1 0xA0 SHL SUB AND PUSH2 0xE2F JUMPI PUSH1 0x40 MLOAD PUSH3 0x461BCD PUSH1 0xE5 SHL DUP2 MSTORE PUSH1 0x4 ADD PUSH2 0x57C SWAP1 PUSH2 0x1A93 JUMP JUMPDEST PUSH1 0x1 SLOAD PUSH1 0x1 PUSH1 0x1 PUSH1 0xA0 SHL SUB AND ISZERO PUSH2 0xEDF JUMPI PUSH1 0x1 SLOAD PUSH1 0x40 MLOAD PUSH4 0x35661E95 PUSH1 0xE2 SHL DUP2 MSTORE ADDRESS PUSH1 0x4 DUP3 ADD MSTORE PUSH1 0x1 PUSH1 0x1 PUSH1 0xA0 SHL SUB DUP5 DUP2 AND PUSH1 0x24 DUP4 ADD MSTORE PUSH1 0x44 DUP3 ADD DUP5 SWAP1 MSTORE PUSH1 0x0 SWAP3 AND SWAP1 PUSH4 0xD5987A54 SWAP1 PUSH1 0x64 ADD PUSH1 0x20 PUSH1 0x40 MLOAD DUP1 DUP4 SUB DUP2 PUSH1 0x0 DUP8 GAS CALL ISZERO DUP1 ISZERO PUSH2 0xE9A JUMPI RETURNDATASIZE PUSH1 0x0 DUP1 RETURNDATACOPY RETURNDATASIZE PUSH1 0x0 REVERT JUMPDEST POP POP POP POP PUSH1 0x40 MLOAD RETURNDATASIZE PUSH1 0x1F NOT PUSH1 0x1F DUP3 ADD AND DUP3 ADD DUP1 PUSH1 0x40 MSTORE POP DUP2 ADD SWAP1 PUSH2 0xEBE SWAP2 SWAP1 PUSH2 0x1DBF JUMP JUMPDEST SWAP1 POP DUP1 PUSH2 0xEDD JUMPI PUSH1 0x40 MLOAD PUSH3 0x461BCD PUSH1 0xE5 SHL DUP2 MSTORE PUSH1 0x4 ADD PUSH2 0x57C SWAP1 PUSH2 0x1DDC JUMP JUMPDEST POP JUMPDEST PUSH2 0xEE8 DUP2 PUSH2 0xFE1 JUMP JUMPDEST POP POP JUMP JUMPDEST PUSH1 0x0 DUP2 DUP2 MSTORE PUSH1 0x8 PUSH1 0x20 MSTORE PUSH1 0x40 DUP2 KECCAK256 SLOAD PUSH1 0x1 PUSH1 0x1 PUSH1 0xA0 SHL SUB AND DUP1 PUSH2 0x432 JUMPI PUSH1 0x40 MLOAD PUSH4 0x7E273289 PUSH1 0xE0 SHL DUP2 MSTORE PUSH1 0x4 DUP2 ADD DUP5 SWAP1 MSTORE PUSH1 0x24 ADD PUSH2 0x57C JUMP JUMPDEST PUSH2 0xEE8 DUP3 DUP3 PUSH1 0x40 MLOAD DUP1 PUSH1 0x20 ADD PUSH1 0x40 MSTORE DUP1 PUSH1 0x0 DUP2 MSTORE POP PUSH2 0x101C JUMP JUMPDEST PUSH1 0x60 PUSH1 0x7 DUP1 SLOAD PUSH2 0x447 SWAP1 PUSH2 0x1A59 JUMP JUMPDEST PUSH1 0x60 PUSH1 0x0 PUSH2 0xF5B DUP4 PUSH2 0x1033 JUMP JUMPDEST PUSH1 0x1 ADD SWAP1 POP PUSH1 0x0 DUP2 PUSH8 0xFFFFFFFFFFFFFFFF DUP2 GT ISZERO PUSH2 0xF7B JUMPI PUSH2 0xF7B PUSH2 0x1774 JUMP JUMPDEST PUSH1 0x40 MLOAD SWAP1 DUP1 DUP3 MSTORE DUP1 PUSH1 0x1F ADD PUSH1 0x1F NOT AND PUSH1 0x20 ADD DUP3 ADD PUSH1 0x40 MSTORE DUP1 ISZERO PUSH2 0xFA5 JUMPI PUSH1 0x20 DUP3 ADD DUP2 DUP1 CALLDATASIZE DUP4 CALLDATACOPY ADD SWAP1 POP JUMPDEST POP SWAP1 POP DUP2 DUP2 ADD PUSH1 0x20 ADD JUMPDEST PUSH1 0x0 NOT ADD PUSH16 0x181899199A1A9B1B9C1CB0B131B232B3 PUSH1 0x81 SHL PUSH1 0xA DUP7 MOD BYTE DUP2 MSTORE8 PUSH1 0xA DUP6 DIV SWAP5 POP DUP5 PUSH2 0xFAF JUMPI POP SWAP4 SWAP3 POP POP POP JUMP JUMPDEST PUSH1 0x0 PUSH2 0xFF0 PUSH1 0x0 DUP4 PUSH1 0x0 PUSH2 0x110B JUMP JUMPDEST SWAP1 POP PUSH1 0x1 PUSH1 0x1 PUSH1 0xA0 SHL SUB DUP2 AND PUSH2 0xEE8 JUMPI PUSH1 0x40 MLOAD PUSH4 0x7E273289 PUSH1 0xE0 SHL DUP2 MSTORE PUSH1 0x4 DUP2 ADD DUP4 SWAP1 MSTORE PUSH1 0x24 ADD PUSH2 0x57C JUMP JUMPDEST PUSH2 0x1026 DUP4 DUP4 PUSH2 0x1204 JUMP JUMPDEST PUSH2 0x71A PUSH1 0x0 DUP5 DUP5 DUP5 PUSH2 0x131E JUMP JUMPDEST PUSH1 0x0 DUP1 PUSH19 0x184F03E93FF9F4DAA797ED6E38ED64BF6A1F01 PUSH1 0x40 SHL DUP4 LT PUSH2 0x1072 JUMPI PUSH19 0x184F03E93FF9F4DAA797ED6E38ED64BF6A1F01 PUSH1 0x40 SHL DUP4 DIV SWAP3 POP PUSH1 0x40 ADD JUMPDEST PUSH14 0x4EE2D6D415B85ACEF8100000000 DUP4 LT PUSH2 0x109E JUMPI PUSH14 0x4EE2D6D415B85ACEF8100000000 DUP4 DIV SWAP3 POP PUSH1 0x20 ADD JUMPDEST PUSH7 0x2386F26FC10000 DUP4 LT PUSH2 0x10BC JUMPI PUSH7 0x2386F26FC10000 DUP4 DIV SWAP3 POP PUSH1 0x10 ADD JUMPDEST PUSH4 0x5F5E100 DUP4 LT PUSH2 0x10D4 JUMPI PUSH4 0x5F5E100 DUP4 DIV SWAP3 POP PUSH1 0x8 ADD JUMPDEST PUSH2 0x2710 DUP4 LT PUSH2 0x10E8 JUMPI PUSH2 0x2710 DUP4 DIV SWAP3 POP PUSH1 0x4 ADD JUMPDEST PUSH1 0x64 DUP4 LT PUSH2 0x10FA JUMPI PUSH1 0x64 DUP4 DIV SWAP3 POP PUSH1 0x2 ADD JUMPDEST PUSH1 0xA DUP4 LT PUSH2 0x432 JUMPI PUSH1 0x1 ADD SWAP3 SWAP2 POP POP JUMP JUMPDEST PUSH1 0x0 DUP3 DUP2 MSTORE PUSH1 0x8 PUSH1 0x20 MSTORE PUSH1 0x40 DUP2 KECCAK256 SLOAD PUSH1 0x1 PUSH1 0x1 PUSH1 0xA0 SHL SUB SWAP1 DUP2 AND SWAP1 DUP4 AND ISZERO PUSH2 0x1138 JUMPI PUSH2 0x1138 DUP2 DUP5 DUP7 PUSH2 0x1448 JUMP JUMPDEST PUSH1 0x1 PUSH1 0x1 PUSH1 0xA0 SHL SUB DUP2 AND ISZERO PUSH2 0x1176 JUMPI PUSH2 0x1155 PUSH1 0x0 DUP6 PUSH1 0x0 DUP1 PUSH2 0x14AC JUMP JUMPDEST PUSH1 0x1 PUSH1 0x1 PUSH1 0xA0 SHL SUB DUP2 AND PUSH1 0x0 SWAP1 DUP2 MSTORE PUSH1 0x9 PUSH1 0x20 MSTORE PUSH1 0x40 SWAP1 KECCAK256 DUP1 SLOAD PUSH1 0x0 NOT ADD SWAP1 SSTORE JUMPDEST PUSH1 0x1 PUSH1 0x1 PUSH1 0xA0 SHL SUB DUP6 AND ISZERO PUSH2 0x11A5 JUMPI PUSH1 0x1 PUSH1 0x1 PUSH1 0xA0 SHL SUB DUP6 AND PUSH1 0x0 SWAP1 DUP2 MSTORE PUSH1 0x9 PUSH1 0x20 MSTORE PUSH1 0x40 SWAP1 KECCAK256 DUP1 SLOAD PUSH1 0x1 ADD SWAP1 SSTORE JUMPDEST PUSH1 0x0 DUP5 DUP2 MSTORE PUSH1 0x8 PUSH1 0x20 MSTORE PUSH1 0x40 DUP1 DUP3 KECCAK256 DUP1 SLOAD PUSH1 0x1 PUSH1 0x1 PUSH1 0xA0 SHL SUB NOT AND PUSH1 0x1 PUSH1 0x1 PUSH1 0xA0 SHL SUB DUP10 DUP2 AND SWAP2 DUP3 OR SWAP1 SWAP3 SSTORE SWAP2 MLOAD DUP8 SWAP4 SWAP2 DUP6 AND SWAP2 PUSH32 0xDDF252AD1BE2C89B69C2B068FC378DAA952BA7F163C4A11628F55A4DF523B3EF SWAP2 LOG4 SWAP5 SWAP4 POP POP POP POP JUMP JUMPDEST PUSH1 0x0 SLOAD PUSH1 0xFF AND ISZERO PUSH2 0x1271 JUMPI PUSH1 0x40 MLOAD PUSH3 0x461BCD PUSH1 0xE5 SHL DUP2 MSTORE PUSH1 0x20 PUSH1 0x4 DUP3 ADD MSTORE PUSH1 0x31 PUSH1 0x24 DUP3 ADD MSTORE PUSH32 0x4E6F6E5472616E7366657261626C654552433732313A20636F6E747261637420 PUSH1 0x44 DUP3 ADD MSTORE PUSH17 0x1A185CC81899595B881D5C19DC98591959 PUSH1 0x7A SHL PUSH1 0x64 DUP3 ADD MSTORE PUSH1 0x84 ADD PUSH2 0x57C JUMP JUMPDEST PUSH1 0x1 PUSH1 0x1 PUSH1 0xA0 SHL SUB DUP3 AND PUSH2 0x129B JUMPI PUSH1 0x40 MLOAD PUSH4 0x32505749 PUSH1 0xE1 SHL DUP2 MSTORE PUSH1 0x0 PUSH1 0x4 DUP3 ADD MSTORE PUSH1 0x24 ADD PUSH2 0x57C JUMP JUMPDEST PUSH1 0x0 PUSH2 0x12A9 DUP4 DUP4 PUSH1 0x0 PUSH2 0x110B JUMP JUMPDEST SWAP1 POP PUSH1 0x1 PUSH1 0x1 PUSH1 0xA0 SHL SUB DUP2 AND ISZERO PUSH2 0x12D6 JUMPI PUSH1 0x40 MLOAD PUSH4 0x39E35637 PUSH1 0xE1 SHL DUP2 MSTORE PUSH1 0x0 PUSH1 0x4 DUP3 ADD MSTORE PUSH1 0x24 ADD PUSH2 0x57C JUMP JUMPDEST DUP3 PUSH1 0x1 PUSH1 0x1 PUSH1 0xA0 SHL SUB AND PUSH32 0x1292A1381D69FD0F033102672143FFF68D426B4B73EB1FA4DF2620AEED9A2994 DUP4 PUSH1 0x40 MLOAD PUSH2 0x1311 SWAP2 DUP2 MSTORE PUSH1 0x20 ADD SWAP1 JUMP JUMPDEST PUSH1 0x40 MLOAD DUP1 SWAP2 SUB SWAP1 LOG2 POP POP POP JUMP JUMPDEST PUSH1 0x1 PUSH1 0x1 PUSH1 0xA0 SHL SUB DUP4 AND EXTCODESIZE ISZERO PUSH2 0x1442 JUMPI PUSH1 0x40 MLOAD PUSH4 0xA85BD01 PUSH1 0xE1 SHL DUP2 MSTORE PUSH1 0x1 PUSH1 0x1 PUSH1 0xA0 SHL SUB DUP5 AND SWAP1 PUSH4 0x150B7A02 SWAP1 PUSH2 0x1360 SWAP1 CALLER SWAP1 DUP9 SWAP1 DUP8 SWAP1 DUP8 SWAP1 PUSH1 0x4 ADD PUSH2 0x1E81 JUMP JUMPDEST PUSH1 0x20 PUSH1 0x40 MLOAD DUP1 DUP4 SUB DUP2 PUSH1 0x0 DUP8 GAS CALL SWAP3 POP POP POP DUP1 ISZERO PUSH2 0x139B JUMPI POP PUSH1 0x40 DUP1 MLOAD PUSH1 0x1F RETURNDATASIZE SWAP1 DUP2 ADD PUSH1 0x1F NOT AND DUP3 ADD SWAP1 SWAP3 MSTORE PUSH2 0x1398 SWAP2 DUP2 ADD SWAP1 PUSH2 0x1EBE JUMP JUMPDEST PUSH1 0x1 JUMPDEST PUSH2 0x1404 JUMPI RETURNDATASIZE DUP1 DUP1 ISZERO PUSH2 0x13C9 JUMPI PUSH1 0x40 MLOAD SWAP2 POP PUSH1 0x1F NOT PUSH1 0x3F RETURNDATASIZE ADD AND DUP3 ADD PUSH1 0x40 MSTORE RETURNDATASIZE DUP3 MSTORE RETURNDATASIZE PUSH1 0x0 PUSH1 0x20 DUP5 ADD RETURNDATACOPY PUSH2 0x13CE JUMP JUMPDEST PUSH1 0x60 SWAP2 POP JUMPDEST POP DUP1 MLOAD PUSH1 0x0 SUB PUSH2 0x13FC JUMPI PUSH1 0x40 MLOAD PUSH4 0x32505749 PUSH1 0xE1 SHL DUP2 MSTORE PUSH1 0x1 PUSH1 0x1 PUSH1 0xA0 SHL SUB DUP6 AND PUSH1 0x4 DUP3 ADD MSTORE PUSH1 0x24 ADD PUSH2 0x57C JUMP JUMPDEST DUP1 MLOAD DUP2 PUSH1 0x20 ADD REVERT JUMPDEST PUSH1 0x1 PUSH1 0x1 PUSH1 0xE0 SHL SUB NOT DUP2 AND PUSH4 0xA85BD01 PUSH1 0xE1 SHL EQ PUSH2 0x1440 JUMPI PUSH1 0x40 MLOAD PUSH4 0x32505749 PUSH1 0xE1 SHL DUP2 MSTORE PUSH1 0x1 PUSH1 0x1 PUSH1 0xA0 SHL SUB DUP6 AND PUSH1 0x4 DUP3 ADD MSTORE PUSH1 0x24 ADD PUSH2 0x57C JUMP JUMPDEST POP JUMPDEST POP POP POP POP JUMP JUMPDEST PUSH2 0x1453 DUP4 DUP4 DUP4 PUSH2 0x15B2 JUMP JUMPDEST PUSH2 0x71A JUMPI PUSH1 0x1 PUSH1 0x1 PUSH1 0xA0 SHL SUB DUP4 AND PUSH2 0x1481 JUMPI PUSH1 0x40 MLOAD PUSH4 0x7E273289 PUSH1 0xE0 SHL DUP2 MSTORE PUSH1 0x4 DUP2 ADD DUP3 SWAP1 MSTORE PUSH1 0x24 ADD PUSH2 0x57C JUMP JUMPDEST PUSH1 0x40 MLOAD PUSH4 0x177E802F PUSH1 0xE0 SHL DUP2 MSTORE PUSH1 0x1 PUSH1 0x1 PUSH1 0xA0 SHL SUB DUP4 AND PUSH1 0x4 DUP3 ADD MSTORE PUSH1 0x24 DUP2 ADD DUP3 SWAP1 MSTORE PUSH1 0x44 ADD PUSH2 0x57C JUMP JUMPDEST DUP1 DUP1 PUSH2 0x14C0 JUMPI POP PUSH1 0x1 PUSH1 0x1 PUSH1 0xA0 SHL SUB DUP3 AND ISZERO ISZERO JUMPDEST ISZERO PUSH2 0x1582 JUMPI PUSH1 0x0 PUSH2 0x14D0 DUP5 PUSH2 0xEEC JUMP JUMPDEST SWAP1 POP PUSH1 0x1 PUSH1 0x1 PUSH1 0xA0 SHL SUB DUP4 AND ISZERO DUP1 ISZERO SWAP1 PUSH2 0x14FC JUMPI POP DUP3 PUSH1 0x1 PUSH1 0x1 PUSH1 0xA0 SHL SUB AND DUP2 PUSH1 0x1 PUSH1 0x1 PUSH1 0xA0 SHL SUB AND EQ ISZERO JUMPDEST DUP1 ISZERO PUSH2 0x150F JUMPI POP PUSH2 0x150D DUP2 DUP5 PUSH2 0xDD4 JUMP JUMPDEST ISZERO JUMPDEST ISZERO PUSH2 0x1538 JUMPI PUSH1 0x40 MLOAD PUSH4 0xA9FBF51F PUSH1 0xE0 SHL DUP2 MSTORE PUSH1 0x1 PUSH1 0x1 PUSH1 0xA0 SHL SUB DUP5 AND PUSH1 0x4 DUP3 ADD MSTORE PUSH1 0x24 ADD PUSH2 0x57C JUMP JUMPDEST DUP2 ISZERO PUSH2 0x1580 JUMPI DUP4 DUP6 PUSH1 0x1 PUSH1 0x1 PUSH1 0xA0 SHL SUB AND DUP3 PUSH1 0x1 PUSH1 0x1 PUSH1 0xA0 SHL SUB AND PUSH32 0x8C5BE1E5EBEC7D5BD14F71427D1E84F3DD0314C0F7B2291E5B200AC8C7C3B925 PUSH1 0x40 MLOAD PUSH1 0x40 MLOAD DUP1 SWAP2 SUB SWAP1 LOG4 JUMPDEST POP JUMPDEST POP POP PUSH1 0x0 SWAP1 DUP2 MSTORE PUSH1 0xA PUSH1 0x20 MSTORE PUSH1 0x40 SWAP1 KECCAK256 DUP1 SLOAD PUSH1 0x1 PUSH1 0x1 PUSH1 0xA0 SHL SUB NOT AND PUSH1 0x1 PUSH1 0x1 PUSH1 0xA0 SHL SUB SWAP3 SWAP1 SWAP3 AND SWAP2 SWAP1 SWAP2 OR SWAP1 SSTORE JUMP JUMPDEST PUSH1 0x0 PUSH1 0x1 PUSH1 0x1 PUSH1 0xA0 SHL SUB DUP4 AND ISZERO DUP1 ISZERO SWAP1 PUSH2 0x1610 JUMPI POP DUP3 PUSH1 0x1 PUSH1 0x1 PUSH1 0xA0 SHL SUB AND DUP5 PUSH1 0x1 PUSH1 0x1 PUSH1 0xA0 SHL SUB AND EQ DUP1 PUSH2 0x15EC JUMPI POP PUSH2 0x15EC DUP5 DUP5 PUSH2 0xDD4 JUMP JUMPDEST DUP1 PUSH2 0x1610 JUMPI POP PUSH1 0x0 DUP3 DUP2 MSTORE PUSH1 0xA PUSH1 0x20 MSTORE PUSH1 0x40 SWAP1 KECCAK256 SLOAD PUSH1 0x1 PUSH1 0x1 PUSH1 0xA0 SHL SUB DUP5 DUP2 AND SWAP2 AND EQ JUMPDEST SWAP5 SWAP4 POP POP POP POP JUMP JUMPDEST PUSH1 0x1 PUSH1 0x1 PUSH1 0xE0 SHL SUB NOT DUP2 AND DUP2 EQ PUSH2 0x162E JUMPI PUSH1 0x0 DUP1 REVERT JUMPDEST POP JUMP JUMPDEST PUSH1 0x0 PUSH1 0x20 DUP3 DUP5 SUB SLT ISZERO PUSH2 0x1643 JUMPI PUSH1 0x0 DUP1 REVERT JUMPDEST DUP2 CALLDATALOAD PUSH2 0xDCD DUP2 PUSH2 0x1618 JUMP JUMPDEST PUSH1 0x0 JUMPDEST DUP4 DUP2 LT ISZERO PUSH2 0x1669 JUMPI DUP2 DUP2 ADD MLOAD DUP4 DUP3 ADD MSTORE PUSH1 0x20 ADD PUSH2 0x1651 JUMP JUMPDEST POP POP PUSH1 0x0 SWAP2 ADD MSTORE JUMP JUMPDEST PUSH1 0x0 DUP2 MLOAD DUP1 DUP5 MSTORE PUSH2 0x168A DUP2 PUSH1 0x20 DUP7 ADD PUSH1 0x20 DUP7 ADD PUSH2 0x164E JUMP JUMPDEST PUSH1 0x1F ADD PUSH1 0x1F NOT AND SWAP3 SWAP1 SWAP3 ADD PUSH1 0x20 ADD SWAP3 SWAP2 POP POP JUMP JUMPDEST PUSH1 0x20 DUP2 MSTORE PUSH1 0x0 PUSH2 0xDCD PUSH1 0x20 DUP4 ADD DUP5 PUSH2 0x1672 JUMP JUMPDEST PUSH1 0x0 PUSH1 0x20 DUP3 DUP5 SUB SLT ISZERO PUSH2 0x16C3 JUMPI PUSH1 0x0 DUP1 REVERT JUMPDEST POP CALLDATALOAD SWAP2 SWAP1 POP JUMP JUMPDEST PUSH1 0x1 PUSH1 0x1 PUSH1 0xA0 SHL SUB DUP2 AND DUP2 EQ PUSH2 0x162E JUMPI PUSH1 0x0 DUP1 REVERT JUMPDEST DUP1 CALLDATALOAD PUSH2 0xC1B DUP2 PUSH2 0x16CA JUMP JUMPDEST PUSH1 0x0 PUSH1 0x20 DUP3 DUP5 SUB SLT ISZERO PUSH2 0x16FC JUMPI PUSH1 0x0 DUP1 REVERT JUMPDEST DUP2 CALLDATALOAD PUSH2 0xDCD DUP2 PUSH2 0x16CA JUMP JUMPDEST PUSH1 0x0 DUP1 PUSH1 0x40 DUP4 DUP6 SUB SLT ISZERO PUSH2 0x171A JUMPI PUSH1 0x0 DUP1 REVERT JUMPDEST DUP3 CALLDATALOAD PUSH2 0x1725 DUP2 PUSH2 0x16CA JUMP JUMPDEST SWAP5 PUSH1 0x20 SWAP4 SWAP1 SWAP4 ADD CALLDATALOAD SWAP4 POP POP POP JUMP JUMPDEST PUSH1 0x0 DUP1 PUSH1 0x0 PUSH1 0x60 DUP5 DUP7 SUB SLT ISZERO PUSH2 0x1748 JUMPI PUSH1 0x0 DUP1 REVERT JUMPDEST DUP4 CALLDATALOAD PUSH2 0x1753 DUP2 PUSH2 0x16CA JUMP JUMPDEST SWAP3 POP PUSH1 0x20 DUP5 ADD CALLDATALOAD PUSH2 0x1763 DUP2 PUSH2 0x16CA JUMP JUMPDEST SWAP3 SWAP6 SWAP3 SWAP5 POP POP POP PUSH1 0x40 SWAP2 SWAP1 SWAP2 ADD CALLDATALOAD SWAP1 JUMP JUMPDEST PUSH4 0x4E487B71 PUSH1 0xE0 SHL PUSH1 0x0 MSTORE PUSH1 0x41 PUSH1 0x4 MSTORE PUSH1 0x24 PUSH1 0x0 REVERT JUMPDEST PUSH1 0x40 MLOAD PUSH1 0xC0 DUP2 ADD PUSH8 0xFFFFFFFFFFFFFFFF DUP2 GT DUP3 DUP3 LT OR ISZERO PUSH2 0x17AD JUMPI PUSH2 0x17AD PUSH2 0x1774 JUMP JUMPDEST PUSH1 0x40 MSTORE SWAP1 JUMP JUMPDEST PUSH1 0x40 MLOAD PUSH1 0x1F DUP3 ADD PUSH1 0x1F NOT AND DUP2 ADD PUSH8 0xFFFFFFFFFFFFFFFF DUP2 GT DUP3 DUP3 LT OR ISZERO PUSH2 0x17DC JUMPI PUSH2 0x17DC PUSH2 0x1774 JUMP JUMPDEST PUSH1 0x40 MSTORE SWAP2 SWAP1 POP JUMP JUMPDEST PUSH1 0x0 PUSH8 0xFFFFFFFFFFFFFFFF DUP3 GT ISZERO PUSH2 0x17FE JUMPI PUSH2 0x17FE PUSH2 0x1774 JUMP JUMPDEST POP PUSH1 0x1F ADD PUSH1 0x1F NOT AND PUSH1 0x20 ADD SWAP1 JUMP JUMPDEST PUSH1 0x0 DUP3 PUSH1 0x1F DUP4 ADD SLT PUSH2 0x181D JUMPI PUSH1 0x0 DUP1 REVERT JUMPDEST DUP2 CALLDATALOAD PUSH2 0x1830 PUSH2 0x182B DUP3 PUSH2 0x17E4 JUMP JUMPDEST PUSH2 0x17B3 JUMP JUMPDEST DUP2 DUP2 MSTORE DUP5 PUSH1 0x20 DUP4 DUP7 ADD ADD GT ISZERO PUSH2 0x1845 JUMPI PUSH1 0x0 DUP1 REVERT JUMPDEST DUP2 PUSH1 0x20 DUP6 ADD PUSH1 0x20 DUP4 ADD CALLDATACOPY PUSH1 0x0 SWAP2 DUP2 ADD PUSH1 0x20 ADD SWAP2 SWAP1 SWAP2 MSTORE SWAP4 SWAP3 POP POP POP JUMP JUMPDEST PUSH1 0x0 PUSH1 0x20 DUP3 DUP5 SUB SLT ISZERO PUSH2 0x1874 JUMPI PUSH1 0x0 DUP1 REVERT JUMPDEST DUP2 CALLDATALOAD PUSH8 0xFFFFFFFFFFFFFFFF DUP2 GT ISZERO PUSH2 0x188B JUMPI PUSH1 0x0 DUP1 REVERT JUMPDEST PUSH2 0x1610 DUP5 DUP3 DUP6 ADD PUSH2 0x180C JUMP JUMPDEST PUSH1 0x0 PUSH1 0x20 DUP3 DUP5 SUB SLT ISZERO PUSH2 0x18A9 JUMPI PUSH1 0x0 DUP1 REVERT JUMPDEST DUP2 CALLDATALOAD PUSH8 0xFFFFFFFFFFFFFFFF DUP1 DUP3 GT ISZERO PUSH2 0x18C1 JUMPI PUSH1 0x0 DUP1 REVERT JUMPDEST SWAP1 DUP4 ADD SWAP1 PUSH1 0xC0 DUP3 DUP7 SUB SLT ISZERO PUSH2 0x18D5 JUMPI PUSH1 0x0 DUP1 REVERT JUMPDEST PUSH2 0x18DD PUSH2 0x178A JUMP JUMPDEST PUSH2 0x18E6 DUP4 PUSH2 0x16DF JUMP JUMPDEST DUP2 MSTORE PUSH2 0x18F4 PUSH1 0x20 DUP5 ADD PUSH2 0x16DF JUMP JUMPDEST PUSH1 0x20 DUP3 ADD MSTORE PUSH1 0x40 DUP4 ADD CALLDATALOAD PUSH1 0x40 DUP3 ADD MSTORE PUSH1 0x60 DUP4 ADD CALLDATALOAD DUP3 DUP2 GT ISZERO PUSH2 0x1915 JUMPI PUSH1 0x0 DUP1 REVERT JUMPDEST PUSH2 0x1921 DUP8 DUP3 DUP7 ADD PUSH2 0x180C JUMP JUMPDEST PUSH1 0x60 DUP4 ADD MSTORE POP PUSH1 0x80 DUP4 ADD CALLDATALOAD DUP3 DUP2 GT ISZERO PUSH2 0x1939 JUMPI PUSH1 0x0 DUP1 REVERT JUMPDEST PUSH2 0x1945 DUP8 DUP3 DUP7 ADD PUSH2 0x180C JUMP JUMPDEST PUSH1 0x80 DUP4 ADD MSTORE POP PUSH1 0xA0 DUP4 ADD CALLDATALOAD DUP3 DUP2 GT ISZERO PUSH2 0x195D JUMPI PUSH1 0x0 DUP1 REVERT JUMPDEST PUSH2 0x1969 DUP8 DUP3 DUP7 ADD PUSH2 0x180C JUMP JUMPDEST PUSH1 0xA0 DUP4 ADD MSTORE POP SWAP6 SWAP5 POP POP POP POP POP JUMP JUMPDEST DUP1 ISZERO ISZERO DUP2 EQ PUSH2 0x162E JUMPI PUSH1 0x0 DUP1 REVERT JUMPDEST PUSH1 0x0 DUP1 PUSH1 0x40 DUP4 DUP6 SUB SLT ISZERO PUSH2 0x1999 JUMPI PUSH1 0x0 DUP1 REVERT JUMPDEST DUP3 CALLDATALOAD PUSH2 0x19A4 DUP2 PUSH2 0x16CA JUMP JUMPDEST SWAP2 POP PUSH1 0x20 DUP4 ADD CALLDATALOAD PUSH2 0x19B4 DUP2 PUSH2 0x1978 JUMP JUMPDEST DUP1 SWAP2 POP POP SWAP3 POP SWAP3 SWAP1 POP JUMP JUMPDEST PUSH1 0x0 DUP1 PUSH1 0x0 DUP1 PUSH1 0x80 DUP6 DUP8 SUB SLT ISZERO PUSH2 0x19D5 JUMPI PUSH1 0x0 DUP1 REVERT JUMPDEST DUP5 CALLDATALOAD PUSH2 0x19E0 DUP2 PUSH2 0x16CA JUMP JUMPDEST SWAP4 POP PUSH1 0x20 DUP6 ADD CALLDATALOAD PUSH2 0x19F0 DUP2 PUSH2 0x16CA JUMP JUMPDEST SWAP3 POP PUSH1 0x40 DUP6 ADD CALLDATALOAD SWAP2 POP PUSH1 0x60 DUP6 ADD CALLDATALOAD PUSH8 0xFFFFFFFFFFFFFFFF DUP2 GT ISZERO PUSH2 0x1A13 JUMPI PUSH1 0x0 DUP1 REVERT JUMPDEST PUSH2 0x1A1F DUP8 DUP3 DUP9 ADD PUSH2 0x180C JUMP JUMPDEST SWAP2 POP POP SWAP3 SWAP6 SWAP2 SWAP5 POP SWAP3 POP JUMP JUMPDEST PUSH1 0x0 DUP1 PUSH1 0x40 DUP4 DUP6 SUB SLT ISZERO PUSH2 0x1A3E JUMPI PUSH1 0x0 DUP1 REVERT JUMPDEST DUP3 CALLDATALOAD PUSH2 0x1A49 DUP2 PUSH2 0x16CA JUMP JUMPDEST SWAP2 POP PUSH1 0x20 DUP4 ADD CALLDATALOAD PUSH2 0x19B4 DUP2 PUSH2 0x16CA JUMP JUMPDEST PUSH1 0x1 DUP2 DUP2 SHR SWAP1 DUP3 AND DUP1 PUSH2 0x1A6D JUMPI PUSH1 0x7F DUP3 AND SWAP2 POP JUMPDEST PUSH1 0x20 DUP3 LT DUP2 SUB PUSH2 0x1A8D JUMPI PUSH4 0x4E487B71 PUSH1 0xE0 SHL PUSH1 0x0 MSTORE PUSH1 0x22 PUSH1 0x4 MSTORE PUSH1 0x24 PUSH1 0x0 REVERT JUMPDEST POP SWAP2 SWAP1 POP JUMP JUMPDEST PUSH1 0x20 DUP1 DUP3 MSTORE PUSH1 0x26 SWAP1 DUP3 ADD MSTORE PUSH32 0x4E6F6E5472616E7366657261626C654552433732313A206E6F7420696E697469 PUSH1 0x40 DUP3 ADD MSTORE PUSH6 0x185B1A5E9959 PUSH1 0xD2 SHL PUSH1 0x60 DUP3 ADD MSTORE PUSH1 0x80 ADD SWAP1 JUMP JUMPDEST DUP1 MLOAD PUSH2 0xC1B DUP2 PUSH2 0x16CA JUMP JUMPDEST PUSH1 0x0 DUP3 PUSH1 0x1F DUP4 ADD SLT PUSH2 0x1AF5 JUMPI PUSH1 0x0 DUP1 REVERT JUMPDEST DUP2 MLOAD PUSH2 0x1B03 PUSH2 0x182B DUP3 PUSH2 0x17E4 JUMP JUMPDEST DUP2 DUP2 MSTORE DUP5 PUSH1 0x20 DUP4 DUP7 ADD ADD GT ISZERO PUSH2 0x1B18 JUMPI PUSH1 0x0 DUP1 REVERT JUMPDEST PUSH2 0x1610 DUP3 PUSH1 0x20 DUP4 ADD PUSH1 0x20 DUP8 ADD PUSH2 0x164E JUMP JUMPDEST PUSH1 0x0 PUSH1 0x20 DUP3 DUP5 SUB SLT ISZERO PUSH2 0x1B3B JUMPI PUSH1 0x0 DUP1 REVERT JUMPDEST DUP2 MLOAD PUSH8 0xFFFFFFFFFFFFFFFF DUP1 DUP3 GT ISZERO PUSH2 0x1B53 JUMPI PUSH1 0x0 DUP1 REVERT JUMPDEST SWAP1 DUP4 ADD SWAP1 PUSH1 0xC0 DUP3 DUP7 SUB SLT ISZERO PUSH2 0x1B67 JUMPI PUSH1 0x0 DUP1 REVERT JUMPDEST PUSH2 0x1B6F PUSH2 0x178A JUMP JUMPDEST PUSH2 0x1B78 DUP4 PUSH2 0x1AD9 JUMP JUMPDEST DUP2 MSTORE PUSH2 0x1B86 PUSH1 0x20 DUP5 ADD PUSH2 0x1AD9 JUMP JUMPDEST PUSH1 0x20 DUP3 ADD MSTORE PUSH1 0x40 DUP4 ADD MLOAD PUSH1 0x40 DUP3 ADD MSTORE PUSH1 0x60 DUP4 ADD MLOAD DUP3 DUP2 GT ISZERO PUSH2 0x1BA7 JUMPI PUSH1 0x0 DUP1 REVERT JUMPDEST PUSH2 0x1BB3 DUP8 DUP3 DUP7 ADD PUSH2 0x1AE4 JUMP JUMPDEST PUSH1 0x60 DUP4 ADD MSTORE POP PUSH1 0x80 DUP4 ADD MLOAD DUP3 DUP2 GT ISZERO PUSH2 0x1BCB JUMPI PUSH1 0x0 DUP1 REVERT JUMPDEST PUSH2 0x1BD7 DUP8 DUP3 DUP7 ADD PUSH2 0x1AE4 JUMP JUMPDEST PUSH1 0x80 DUP4 ADD MSTORE POP PUSH1 0xA0 DUP4 ADD MLOAD DUP3 DUP2 GT ISZERO PUSH2 0x1BEF JUMPI PUSH1 0x0 DUP1 REVERT JUMPDEST PUSH2 0x1969 DUP8 DUP3 DUP7 ADD PUSH2 0x1AE4 JUMP JUMPDEST PUSH1 0x1F DUP3 GT ISZERO PUSH2 0x71A JUMPI PUSH1 0x0 DUP2 PUSH1 0x0 MSTORE PUSH1 0x20 PUSH1 0x0 KECCAK256 PUSH1 0x1F DUP6 ADD PUSH1 0x5 SHR DUP2 ADD PUSH1 0x20 DUP7 LT ISZERO PUSH2 0x1C24 JUMPI POP DUP1 JUMPDEST PUSH1 0x1F DUP6 ADD PUSH1 0x5 SHR DUP3 ADD SWAP2 POP JUMPDEST DUP2 DUP2 LT ISZERO PUSH2 0x1C43 JUMPI DUP3 DUP2 SSTORE PUSH1 0x1 ADD PUSH2 0x1C30 JUMP JUMPDEST POP POP POP POP POP POP JUMP JUMPDEST DUP2 MLOAD PUSH8 0xFFFFFFFFFFFFFFFF DUP2 GT ISZERO PUSH2 0x1C65 JUMPI PUSH2 0x1C65 PUSH2 0x1774 JUMP JUMPDEST PUSH2 0x1C79 DUP2 PUSH2 0x1C73 DUP5 SLOAD PUSH2 0x1A59 JUMP JUMPDEST DUP5 PUSH2 0x1BFB JUMP JUMPDEST PUSH1 0x20 DUP1 PUSH1 0x1F DUP4 GT PUSH1 0x1 DUP2 EQ PUSH2 0x1CAE JUMPI PUSH1 0x0 DUP5 ISZERO PUSH2 0x1C96 JUMPI POP DUP6 DUP4 ADD MLOAD JUMPDEST PUSH1 0x0 NOT PUSH1 0x3 DUP7 SWAP1 SHL SHR NOT AND PUSH1 0x1 DUP6 SWAP1 SHL OR DUP6 SSTORE PUSH2 0x1C43 JUMP JUMPDEST PUSH1 0x0 DUP6 DUP2 MSTORE PUSH1 0x20 DUP2 KECCAK256 PUSH1 0x1F NOT DUP7 AND SWAP2 JUMPDEST DUP3 DUP2 LT ISZERO PUSH2 0x1CDD JUMPI DUP9 DUP7 ADD MLOAD DUP3 SSTORE SWAP5 DUP5 ADD SWAP5 PUSH1 0x1 SWAP1 SWAP2 ADD SWAP1 DUP5 ADD PUSH2 0x1CBE JUMP JUMPDEST POP DUP6 DUP3 LT ISZERO PUSH2 0x1CFB JUMPI DUP8 DUP6 ADD MLOAD PUSH1 0x0 NOT PUSH1 0x3 DUP9 SWAP1 SHL PUSH1 0xF8 AND SHR NOT AND DUP2 SSTORE JUMPDEST POP POP POP POP POP PUSH1 0x1 SWAP1 DUP2 SHL ADD SWAP1 SSTORE POP JUMP JUMPDEST PUSH1 0x20 DUP2 MSTORE PUSH1 0x0 PUSH1 0x1 DUP1 PUSH1 0xA0 SHL SUB DUP1 DUP5 MLOAD AND PUSH1 0x20 DUP5 ADD MSTORE DUP1 PUSH1 0x20 DUP6 ADD MLOAD AND PUSH1 0x40 DUP5 ADD MSTORE POP PUSH1 0x40 DUP4 ADD MLOAD PUSH1 0x60 DUP4 ADD MSTORE PUSH1 0x60 DUP4 ADD MLOAD PUSH1 0xC0 PUSH1 0x80 DUP5 ADD MSTORE PUSH2 0x1D51 PUSH1 0xE0 DUP5 ADD DUP3 PUSH2 0x1672 JUMP JUMPDEST SWAP1 POP PUSH1 0x80 DUP5 ADD MLOAD PUSH1 0x1F NOT DUP1 DUP6 DUP5 SUB ADD PUSH1 0xA0 DUP7 ADD MSTORE PUSH2 0x1D6F DUP4 DUP4 PUSH2 0x1672 JUMP JUMPDEST SWAP3 POP PUSH1 0xA0 DUP7 ADD MLOAD SWAP2 POP DUP1 DUP6 DUP5 SUB ADD PUSH1 0xC0 DUP7 ADD MSTORE POP PUSH2 0x1D8D DUP3 DUP3 PUSH2 0x1672 JUMP JUMPDEST SWAP6 SWAP5 POP POP POP POP POP JUMP JUMPDEST PUSH4 0x4E487B71 PUSH1 0xE0 SHL PUSH1 0x0 MSTORE PUSH1 0x11 PUSH1 0x4 MSTORE PUSH1 0x24 PUSH1 0x0 REVERT JUMPDEST DUP1 DUP3 ADD DUP1 DUP3 GT ISZERO PUSH2 0x432 JUMPI PUSH2 0x432 PUSH2 0x1D96 JUMP JUMPDEST PUSH1 0x0 PUSH1 0x20 DUP3 DUP5 SUB SLT ISZERO PUSH2 0x1DD1 JUMPI PUSH1 0x0 DUP1 REVERT JUMPDEST DUP2 MLOAD PUSH2 0xDCD DUP2 PUSH2 0x1978 JUMP JUMPDEST PUSH1 0x20 DUP1 DUP3 MSTORE PUSH1 0x3C SWAP1 DUP3 ADD MSTORE PUSH32 0x4E6F6E5472616E7366657261626C6545524337323141737365743A206265666F PUSH1 0x40 DUP3 ADD MSTORE PUSH32 0x72654D696E7420686F6F6B2072656A6563746564207265717565737400000000 PUSH1 0x60 DUP3 ADD MSTORE PUSH1 0x80 ADD SWAP1 JUMP JUMPDEST PUSH1 0x0 PUSH1 0x1 DUP3 ADD PUSH2 0x1E4B JUMPI PUSH2 0x1E4B PUSH2 0x1D96 JUMP JUMPDEST POP PUSH1 0x1 ADD SWAP1 JUMP JUMPDEST PUSH1 0x0 DUP4 MLOAD PUSH2 0x1E64 DUP2 DUP5 PUSH1 0x20 DUP9 ADD PUSH2 0x164E JUMP JUMPDEST DUP4 MLOAD SWAP1 DUP4 ADD SWAP1 PUSH2 0x1E78 DUP2 DUP4 PUSH1 0x20 DUP9 ADD PUSH2 0x164E JUMP JUMPDEST ADD SWAP5 SWAP4 POP POP POP POP JUMP JUMPDEST PUSH1 0x1 PUSH1 0x1 PUSH1 0xA0 SHL SUB DUP6 DUP2 AND DUP3 MSTORE DUP5 AND PUSH1 0x20 DUP3 ADD MSTORE PUSH1 0x40 DUP2 ADD DUP4 SWAP1 MSTORE PUSH1 0x80 PUSH1 0x60 DUP3 ADD DUP2 SWAP1 MSTORE PUSH1 0x0 SWAP1 PUSH2 0x1EB4 SWAP1 DUP4 ADD DUP5 PUSH2 0x1672 JUMP JUMPDEST SWAP7 SWAP6 POP POP POP POP POP POP JUMP JUMPDEST PUSH1 0x0 PUSH1 0x20 DUP3 DUP5 SUB SLT ISZERO PUSH2 0x1ED0 JUMPI PUSH1 0x0 DUP1 REVERT JUMPDEST DUP2 MLOAD PUSH2 0xDCD DUP2 PUSH2 0x1618 JUMP INVALID LOG2 PUSH5 0x6970667358 0x22 SLT KECCAK256 0xC PUSH6 0x80463D0A97D2 PUSH22 0x1800FAD8D70F1E622617718357FAB5E4FC1AB5992429 PUSH13 0x64736F6C634300081800330000 "},"methodIdentifiers":{"addHook(address)":"7b4e04e8","approve(address,uint256)":"095ea7b3","assetFactory()":"c3acb4d1","assetRegistry()":"979d7e86","balanceOf(address)":"70a08231","encodeInitData((address,address,uint256,string,string,string))":"61f3fcb2","getApproved(uint256)":"081812fc","hook()":"7f5a7c7b","init(bytes)":"4ddf47d4","isApprovedForAll(address,address)":"e985e9c5","issuer()":"1d143848","mint(address)":"6a627842","name()":"06fdde03","originAddress()":"e517fedd","originChainId()":"0ac7f561","ownerOf(uint256)":"6352211e","removeHook()":"378f17ff","revoke(address,uint256)":"eac449d9","safeTransferFrom(address,address,uint256)":"42842e0e","safeTransferFrom(address,address,uint256,bytes)":"b88d4fde","setApprovalForAll(address,bool)":"a22cb465","supportsInterface(bytes4)":"01ffc9a7","symbol()":"95d89b41","tokenURI(uint256)":"c87b56dd","transferFrom(address,address,uint256)":"23b872dd","upgrade(address)":"0900f010","upgraded()":"c28de2cd"}}}}}