{"contracts/asset/NonTransferableERC20Asset.sol":{"NonTransferableERC20Asset":{"abi":[{"inputs":[{"internalType":"address","name":"_assetFactory","type":"address"},{"internalType":"address","name":"_assetRegistry","type":"address"}],"stateMutability":"nonpayable","type":"constructor"},{"inputs":[{"internalType":"address","name":"spender","type":"address"},{"internalType":"uint256","name":"allowance","type":"uint256"},{"internalType":"uint256","name":"needed","type":"uint256"}],"name":"ERC20InsufficientAllowance","type":"error"},{"inputs":[{"internalType":"address","name":"sender","type":"address"},{"internalType":"uint256","name":"balance","type":"uint256"},{"internalType":"uint256","name":"needed","type":"uint256"}],"name":"ERC20InsufficientBalance","type":"error"},{"inputs":[{"internalType":"address","name":"approver","type":"address"}],"name":"ERC20InvalidApprover","type":"error"},{"inputs":[{"internalType":"address","name":"receiver","type":"address"}],"name":"ERC20InvalidReceiver","type":"error"},{"inputs":[{"internalType":"address","name":"sender","type":"address"}],"name":"ERC20InvalidSender","type":"error"},{"inputs":[{"internalType":"address","name":"spender","type":"address"}],"name":"ERC20InvalidSpender","type":"error"},{"anonymous":false,"inputs":[{"indexed":true,"internalType":"address","name":"owner","type":"address"},{"indexed":true,"internalType":"address","name":"spender","type":"address"},{"indexed":false,"internalType":"uint256","name":"value","type":"uint256"}],"name":"Approval","type":"event"},{"anonymous":false,"inputs":[{"indexed":true,"internalType":"address","name":"hook","type":"address"}],"name":"ERC20HookAdded","type":"event"},{"anonymous":false,"inputs":[{"indexed":true,"internalType":"address","name":"hook","type":"address"}],"name":"ERC20HookRemoved","type":"event"},{"anonymous":false,"inputs":[{"indexed":true,"internalType":"address","name":"to","type":"address"},{"indexed":false,"internalType":"uint256","name":"amt","type":"uint256"}],"name":"ERC20Minted","type":"event"},{"anonymous":false,"inputs":[{"indexed":true,"internalType":"address","name":"oldAsset","type":"address"},{"indexed":false,"internalType":"address","name":"newAsset","type":"address"}],"name":"ERC20Upgraded","type":"event"},{"anonymous":false,"inputs":[{"indexed":true,"internalType":"address","name":"from","type":"address"},{"indexed":true,"internalType":"address","name":"to","type":"address"},{"indexed":false,"internalType":"uint256","name":"value","type":"uint256"}],"name":"Transfer","type":"event"},{"inputs":[{"internalType":"contract IAssetHook","name":"_hook","type":"address"}],"name":"addHook","outputs":[],"stateMutability":"nonpayable","type":"function"},{"inputs":[{"internalType":"address","name":"owner","type":"address"},{"internalType":"address","name":"spender","type":"address"}],"name":"allowance","outputs":[{"internalType":"uint256","name":"","type":"uint256"}],"stateMutability":"view","type":"function"},{"inputs":[{"internalType":"address","name":"","type":"address"},{"internalType":"uint256","name":"","type":"uint256"}],"name":"approve","outputs":[{"internalType":"bool","name":"","type":"bool"}],"stateMutability":"nonpayable","type":"function"},{"inputs":[],"name":"assetFactory","outputs":[{"internalType":"address","name":"","type":"address"}],"stateMutability":"view","type":"function"},{"inputs":[],"name":"assetRegistry","outputs":[{"internalType":"address","name":"","type":"address"}],"stateMutability":"view","type":"function"},{"inputs":[{"internalType":"address","name":"account","type":"address"}],"name":"balanceOf","outputs":[{"internalType":"uint256","name":"","type":"uint256"}],"stateMutability":"view","type":"function"},{"inputs":[],"name":"decimals","outputs":[{"internalType":"uint8","name":"","type":"uint8"}],"stateMutability":"view","type":"function"},{"inputs":[{"components":[{"internalType":"address","name":"originChainAddress","type":"address"},{"internalType":"address","name":"issuer","type":"address"},{"internalType":"uint8","name":"decimals","type":"uint8"},{"internalType":"uint256","name":"originChainId","type":"uint256"},{"internalType":"uint256","name":"totalSupply","type":"uint256"},{"internalType":"string","name":"name","type":"string"},{"internalType":"string","name":"symbol","type":"string"}],"internalType":"struct ERC20InitData","name":"data","type":"tuple"}],"name":"encodeInitData","outputs":[{"internalType":"bytes","name":"","type":"bytes"}],"stateMutability":"pure","type":"function"},{"inputs":[],"name":"hook","outputs":[{"internalType":"contract IAssetHook","name":"","type":"address"}],"stateMutability":"view","type":"function"},{"inputs":[{"internalType":"bytes","name":"initData","type":"bytes"}],"name":"init","outputs":[],"stateMutability":"nonpayable","type":"function"},{"inputs":[],"name":"issuer","outputs":[{"internalType":"address","name":"","type":"address"}],"stateMutability":"view","type":"function"},{"inputs":[{"internalType":"address","name":"to","type":"address"},{"internalType":"uint256","name":"amt","type":"uint256"}],"name":"mint","outputs":[],"stateMutability":"nonpayable","type":"function"},{"inputs":[],"name":"name","outputs":[{"internalType":"string","name":"","type":"string"}],"stateMutability":"view","type":"function"},{"inputs":[],"name":"originAddress","outputs":[{"internalType":"address","name":"","type":"address"}],"stateMutability":"view","type":"function"},{"inputs":[],"name":"originChainId","outputs":[{"internalType":"uint256","name":"","type":"uint256"}],"stateMutability":"view","type":"function"},{"inputs":[],"name":"removeHook","outputs":[],"stateMutability":"nonpayable","type":"function"},{"inputs":[{"internalType":"address","name":"tgt","type":"address"},{"internalType":"uint256","name":"amt","type":"uint256"}],"name":"revoke","outputs":[],"stateMutability":"nonpayable","type":"function"},{"inputs":[],"name":"symbol","outputs":[{"internalType":"string","name":"","type":"string"}],"stateMutability":"view","type":"function"},{"inputs":[],"name":"totalSupply","outputs":[{"internalType":"uint256","name":"","type":"uint256"}],"stateMutability":"view","type":"function"},{"inputs":[{"internalType":"address","name":"","type":"address"},{"internalType":"uint256","name":"","type":"uint256"}],"name":"transfer","outputs":[{"internalType":"bool","name":"","type":"bool"}],"stateMutability":"nonpayable","type":"function"},{"inputs":[{"internalType":"address","name":"","type":"address"},{"internalType":"address","name":"","type":"address"},{"internalType":"uint256","name":"","type":"uint256"}],"name":"transferFrom","outputs":[{"internalType":"bool","name":"","type":"bool"}],"stateMutability":"nonpayable","type":"function"},{"inputs":[{"internalType":"address","name":"newAsset","type":"address"}],"name":"upgrade","outputs":[],"stateMutability":"nonpayable","type":"function"},{"inputs":[],"name":"upgraded","outputs":[{"internalType":"bool","name":"","type":"bool"}],"stateMutability":"view","type":"function"}],"evm":{"bytecode":{"linkReferences":{},"object":"60c06040523480156200001157600080fd5b5060405162001a4638038062001a46833981016040819052620000349162000169565b6001600160a01b038216620000b65760405162461bcd60e51b815260206004820152603a60248201527f4e6f6e5472616e7366657261626c6545524332303a206173736574206661637460448201527f6f72792063616e6e6f74206265207a65726f206164647265737300000000000060648201526084015b60405180910390fd5b6001600160a01b038116620001345760405162461bcd60e51b815260206004820152603b60248201527f4e6f6e5472616e7366657261626c6545524332303a206173736574207265676960448201527f737472792063616e6e6f74206265207a65726f206164647265737300000000006064820152608401620000ad565b6001600160a01b039182166080521660a052620001a1565b80516001600160a01b03811681146200016457600080fd5b919050565b600080604083850312156200017d57600080fd5b62000188836200014c565b915062000198602084016200014c565b90509250929050565b60805160a051611871620001d5600039600081816102c1015261040001526000818161030301526107aa01526118716000f3fe608060405234801561001057600080fd5b506004361061014d5760003560e01c80635e7a9005116100c3578063a9059cbb1161007c578063a9059cbb146102e3578063c28de2cd146102f1578063c3acb4d1146102fe578063dd62ed3e14610325578063e517fedd14610338578063eac449d91461035057600080fd5b80635e7a90051461025257806370a08231146102655780637b4e04e81461028e5780637f5a7c7b146102a157806395d89b41146102b4578063979d7e86146102bc57600080fd5b80631d143848116101155780631d143848146101c757806323b872dd146101f2578063313ce56714610205578063378f17ff1461022457806340c10f191461022c5780634ddf47d41461023f57600080fd5b806306fdde03146101525780630900f01014610170578063095ea7b3146101855780630ac7f561146101a857806318160ddd146101bf575b600080fd5b61015a610363565b604051610167919061113a565b60405180910390f35b61018361017e36600461117c565b6103f5565b005b610198610193366004611199565b6104d4565b6040519015158152602001610167565b6101b160035481565b604051908152602001610167565b6004546101b1565b6001546101da906001600160a01b031681565b6040516001600160a01b039091168152602001610167565b6101986102003660046111c5565b610537565b600254600160a01b900460ff1660405160ff9091168152602001610167565b61018361059a565b61018361023a366004611199565b610639565b61018361024d3660046112dc565b61079f565b61015a610260366004611367565b610b9c565b6101b161027336600461117c565b6001600160a01b031660009081526005602052604090205490565b61018361029c36600461117c565b610bc5565b6002546101da906001600160a01b031681565b61015a610cdf565b6101da7f000000000000000000000000000000000000000000000000000000000000000081565b610198610200366004611199565b6000546101989060ff1681565b6101da7f000000000000000000000000000000000000000000000000000000000000000081565b6101b161033336600461143f565b610cee565b6000546101da9061010090046001600160a01b031681565b61018361035e366004611199565b610d1b565b60606007805461037290611478565b80601f016020809104026020016040519081016040528092919081815260200182805461039e90611478565b80156103eb5780601f106103c0576101008083540402835291602001916103eb565b820191906000526020600020905b8154815290600101906020018083116103ce57829003601f168201915b5050505050905090565b336001600160a01b037f000000000000000000000000000000000000000000000000000000000000000016146104865760405162461bcd60e51b815260206004820152602b60248201527f4e6f6e5472616e7366657261626c6545524332303a206f6e6c7920726567697360448201526a1d1c9e48185b1b1bddd95960aa1b60648201526084015b60405180910390fd5b6000805460ff191660011790556040516001600160a01b038216815230907fe0cdc3a6eaf24c066560b5cb2e50c08f3d82cce0e3d838dc7032ba68790cd52b9060200160405180910390a250565b60405162461bcd60e51b815260206004820152602f60248201527f4e6f6e5472616e7366657261626c6545524332303a20617070726f76616c732060448201526e1b9bdd08185b1b1bddd959081e595d608a1b606482015260009060840161047d565b60405162461bcd60e51b815260206004820152602f60248201527f4e6f6e5472616e7366657261626c6545524332303a207472616e73666572732060448201526e1b9bdd08185b1b1bddd959081e595d608a1b606482015260009060840161047d565b6001546001600160a01b03166105c25760405162461bcd60e51b815260040161047d906114b2565b6001546001600160a01b031633146105ec5760405162461bcd60e51b815260040161047d906114f7565b6002546040516001600160a01b039091169081907f46933b6b7dc2daad943914b804de007bc35a3c29871400a45d01b08a99fd824c90600090a250600280546001600160a01b0319169055565b6001546001600160a01b03166106615760405162461bcd60e51b815260040161047d906114b2565b6001546001600160a01b0316331461068b5760405162461bcd60e51b815260040161047d906114f7565b6002546001600160a01b031615610791576002546040516386b8418760e01b81523060048201526001600160a01b0384811660248301526044820184905260009216906386b84187906064016020604051808303816000875af11580156106f6573d6000803e3d6000fd5b505050506040513d601f19601f8201168201806040525081019061071a9190611540565b90508061078f5760405162461bcd60e51b815260206004820152603b60248201527f4e6f6e5472616e7366657261626c65455243323041737365743a206265666f7260448201527f654d696e7420686f6f6b2072656a656374656420726571756573740000000000606482015260840161047d565b505b61079b8282610ea8565b5050565b336001600160a01b037f0000000000000000000000000000000000000000000000000000000000000000161461082a5760405162461bcd60e51b815260206004820152602a60248201527f4e6f6e5472616e7366657261626c6545524332303a206f6e6c7920666163746f6044820152691c9e48185b1b1bddd95960b21b606482015260840161047d565b60008180602001905181019061084091906115bd565b60208101519091506001600160a01b03166108b95760405162461bcd60e51b815260206004820152603360248201527f4e6f6e5472616e7366657261626c6545524332303a206973737565722063616e6044820152726e6f74206265207a65726f206164647265737360681b606482015260840161047d565b80516001600160a01b03166109295760405162461bcd60e51b815260206004820152603060248201527f41737365743a206f726967696e436861696e416464726573732063616e6e6f7460448201526f206265207a65726f206164647265737360801b606482015260840161047d565b60008160800151116109a35760405162461bcd60e51b815260206004820152603b60248201527f4e6f6e5472616e7366657261626c6545524332303a20746f74616c537570706c60448201527f79206d7573742062652067726561746572207468616e207a65726f0000000000606482015260840161047d565b60008160a001515111610a0b5760405162461bcd60e51b815260206004820152602a60248201527f4e6f6e5472616e7366657261626c6545524332303a206e616d652063616e6e6f6044820152697420626520656d70747960b01b606482015260840161047d565b60008160c001515111610a755760405162461bcd60e51b815260206004820152602c60248201527f4e6f6e5472616e7366657261626c6545524332303a2073796d626f6c2063616e60448201526b6e6f7420626520656d70747960a01b606482015260840161047d565b6000816060015111610aef5760405162461bcd60e51b815260206004820152603d60248201527f4e6f6e5472616e7366657261626c6545524332303a206f726967696e4368616960448201527f6e4964206d7573742062652067726561746572207468616e207a65726f000000606482015260840161047d565b805160008054610100600160a81b0319166101006001600160a01b03938416021790556020820151600180546001600160a01b031916919092161790556060810151600355608081015160045560a0810151600790610b4e90826116d6565b5060c0810151600890610b6190826116d6565b506000816040015160ff1611610b78576012610b7e565b80604001515b600260146101000a81548160ff021916908360ff1602179055505050565b606081604051602001610baf9190611796565b6040516020818303038152906040529050919050565b6001546001600160a01b0316610bed5760405162461bcd60e51b815260040161047d906114b2565b6001546001600160a01b03163314610c175760405162461bcd60e51b815260040161047d906114f7565b6002546001600160a01b0316610c955760405162461bcd60e51b815260206004820152603760248201527f4e6f6e5472616e7366657261626c6545524337323141737365743a20686f6f6b60448201527f2063616e6e6f74206265207a65726f2061646472657373000000000000000000606482015260840161047d565b600280546001600160a01b0319166001600160a01b0383169081179091556040517fe15f398c7f82415e4ba2801be5eabaf63f308d6bd720508f7f242fad319561ec90600090a250565b60606008805461037290611478565b6001600160a01b038083166000908152600660209081526040808320938516835292905220545b92915050565b6001546001600160a01b0316610d435760405162461bcd60e51b815260040161047d906114b2565b6001546001600160a01b03163314610d6d5760405162461bcd60e51b815260040161047d906114f7565b6002546001600160a01b031615610e73576002546040516335661e9560e21b81523060048201526001600160a01b03848116602483015260448201849052600092169063d5987a54906064016020604051808303816000875af1158015610dd8573d6000803e3d6000fd5b505050506040513d601f19601f82011682018060405250810190610dfc9190611540565b905080610e715760405162461bcd60e51b815260206004820152603d60248201527f4e6f6e5472616e7366657261626c65455243323041737365743a206265666f7260448201527f655265766f6b6520686f6f6b2072656a65637465642072657175657374000000606482015260840161047d565b505b6001600160a01b038216600090815260056020526040902054610ea383828410610e9d5782610f8e565b83610f8e565b505050565b60005460ff1615610f115760405162461bcd60e51b815260206004820152602d60248201527f4e6f6e5472616e7366657261626c6545524332303a206173736574206861732060448201526c1899595b881d5c19dc98591959609a1b606482015260840161047d565b6001600160a01b038216610f3b5760405163ec442f0560e01b81526000600482015260240161047d565b610f4760008383610fc0565b816001600160a01b03167f1f98ee45d72cac8271cfd41cc599153bf1465afc3fc1f0b3e2a97b8f1c4253a982604051610f8291815260200190565b60405180910390a25050565b6001600160a01b038216610fb857604051634b637e8f60e11b81526000600482015260240161047d565b61079b826000835b6001600160a01b038316610feb578060046000828254610fe0919061181a565b9091555061105d9050565b6001600160a01b0383166000908152600560205260409020548181101561103e5760405163391434e360e21b81526001600160a01b0385166004820152602481018290526044810183905260640161047d565b6001600160a01b03841660009081526005602052604090209082900390555b6001600160a01b03821661107957600480548290039055611098565b6001600160a01b03821660009081526005602052604090208054820190555b816001600160a01b0316836001600160a01b03167fddf252ad1be2c89b69c2b068fc378daa952ba7f163c4a11628f55a4df523b3ef836040516110dd91815260200190565b60405180910390a3505050565b60005b838110156111055781810151838201526020016110ed565b50506000910152565b600081518084526111268160208601602086016110ea565b601f01601f19169290920160200192915050565b60208152600061114d602083018461110e565b9392505050565b6001600160a01b038116811461116957600080fd5b50565b803561117781611154565b919050565b60006020828403121561118e57600080fd5b813561114d81611154565b600080604083850312156111ac57600080fd5b82356111b781611154565b946020939093013593505050565b6000806000606084860312156111da57600080fd5b83356111e581611154565b925060208401356111f581611154565b929592945050506040919091013590565b634e487b7160e01b600052604160045260246000fd5b60405160e0810167ffffffffffffffff8111828210171561123f5761123f611206565b60405290565b604051601f8201601f1916810167ffffffffffffffff8111828210171561126e5761126e611206565b604052919050565b600067ffffffffffffffff82111561129057611290611206565b50601f01601f191660200190565b60006112b16112ac84611276565b611245565b90508281528383830111156112c557600080fd5b828260208301376000602084830101529392505050565b6000602082840312156112ee57600080fd5b813567ffffffffffffffff81111561130557600080fd5b8201601f8101841361131657600080fd5b6113258482356020840161129e565b949350505050565b60ff8116811461116957600080fd5b80356111778161132d565b600082601f83011261135857600080fd5b61114d8383356020850161129e565b60006020828403121561137957600080fd5b813567ffffffffffffffff8082111561139157600080fd5b9083019060e082860312156113a557600080fd5b6113ad61121c565b6113b68361116c565b81526113c46020840161116c565b60208201526113d56040840161133c565b6040820152606083013560608201526080830135608082015260a08301358281111561140057600080fd5b61140c87828601611347565b60a08301525060c08301358281111561142457600080fd5b61143087828601611347565b60c08301525095945050505050565b6000806040838503121561145257600080fd5b823561145d81611154565b9150602083013561146d81611154565b809150509250929050565b600181811c9082168061148c57607f821691505b6020821081036114ac57634e487b7160e01b600052602260045260246000fd5b50919050565b60208082526025908201527f4e6f6e5472616e7366657261626c6545524332303a206e6f7420696e697469616040820152641b1a5e995960da1b606082015260800190565b60208082526029908201527f4e6f6e5472616e7366657261626c6545524332303a206f6e6c792069737375656040820152681c88185b1b1bddd95960ba1b606082015260800190565b60006020828403121561155257600080fd5b8151801515811461114d57600080fd5b805161117781611154565b80516111778161132d565b600082601f83011261158957600080fd5b81516115976112ac82611276565b8181528460208386010111156115ac57600080fd5b6113258260208301602087016110ea565b6000602082840312156115cf57600080fd5b815167ffffffffffffffff808211156115e757600080fd5b9083019060e082860312156115fb57600080fd5b61160361121c565b61160c83611562565b815261161a60208401611562565b602082015261162b6040840161156d565b6040820152606083015160608201526080830151608082015260a08301518281111561165657600080fd5b61166287828601611578565b60a08301525060c08301518281111561167a57600080fd5b61143087828601611578565b601f821115610ea3576000816000526020600020601f850160051c810160208610156116af5750805b601f850160051c820191505b818110156116ce578281556001016116bb565b505050505050565b815167ffffffffffffffff8111156116f0576116f0611206565b611704816116fe8454611478565b84611686565b602080601f83116001811461173957600084156117215750858301515b600019600386901b1c1916600185901b1785556116ce565b600085815260208120601f198616915b8281101561176857888601518255948401946001909101908401611749565b50858210156117865787850151600019600388901b60f8161c191681555b5050505050600190811b01905550565b60208152600060018060a01b038084511660208401528060208501511660408401525060ff604084015116606083015260608301516080830152608083015160a083015260a083015160e060c08401526117f461010084018261110e565b905060c0840151601f198483030160e0850152611811828261110e565b95945050505050565b80820180821115610d1557634e487b7160e01b600052601160045260246000fdfea2646970667358221220e1c56264a0b1645202b5de6422ac29ed5502b945153cfc0372028bb60d19dd8364736f6c63430008180033","opcodes":"PUSH1 0xC0 PUSH1 0x40 MSTORE CALLVALUE DUP1 ISZERO PUSH3 0x11 JUMPI PUSH1 0x0 DUP1 REVERT JUMPDEST POP PUSH1 0x40 MLOAD PUSH3 0x1A46 CODESIZE SUB DUP1 PUSH3 0x1A46 DUP4 CODECOPY DUP2 ADD PUSH1 0x40 DUP2 SWAP1 MSTORE PUSH3 0x34 SWAP2 PUSH3 0x169 JUMP JUMPDEST PUSH1 0x1 PUSH1 0x1 PUSH1 0xA0 SHL SUB DUP3 AND PUSH3 0xB6 JUMPI PUSH1 0x40 MLOAD PUSH3 0x461BCD PUSH1 0xE5 SHL DUP2 MSTORE PUSH1 0x20 PUSH1 0x4 DUP3 ADD MSTORE PUSH1 0x3A PUSH1 0x24 DUP3 ADD MSTORE PUSH32 0x4E6F6E5472616E7366657261626C6545524332303A2061737365742066616374 PUSH1 0x44 DUP3 ADD MSTORE PUSH32 0x6F72792063616E6E6F74206265207A65726F2061646472657373000000000000 PUSH1 0x64 DUP3 ADD MSTORE PUSH1 0x84 ADD JUMPDEST PUSH1 0x40 MLOAD DUP1 SWAP2 SUB SWAP1 REVERT JUMPDEST PUSH1 0x1 PUSH1 0x1 PUSH1 0xA0 SHL SUB DUP2 AND PUSH3 0x134 JUMPI PUSH1 0x40 MLOAD PUSH3 0x461BCD PUSH1 0xE5 SHL DUP2 MSTORE PUSH1 0x20 PUSH1 0x4 DUP3 ADD MSTORE PUSH1 0x3B PUSH1 0x24 DUP3 ADD MSTORE PUSH32 0x4E6F6E5472616E7366657261626C6545524332303A2061737365742072656769 PUSH1 0x44 DUP3 ADD MSTORE PUSH32 0x737472792063616E6E6F74206265207A65726F20616464726573730000000000 PUSH1 0x64 DUP3 ADD MSTORE PUSH1 0x84 ADD PUSH3 0xAD JUMP JUMPDEST PUSH1 0x1 PUSH1 0x1 PUSH1 0xA0 SHL SUB SWAP2 DUP3 AND PUSH1 0x80 MSTORE AND PUSH1 0xA0 MSTORE PUSH3 0x1A1 JUMP JUMPDEST DUP1 MLOAD PUSH1 0x1 PUSH1 0x1 PUSH1 0xA0 SHL SUB DUP2 AND DUP2 EQ PUSH3 0x164 JUMPI PUSH1 0x0 DUP1 REVERT JUMPDEST SWAP2 SWAP1 POP JUMP JUMPDEST PUSH1 0x0 DUP1 PUSH1 0x40 DUP4 DUP6 SUB SLT ISZERO PUSH3 0x17D JUMPI PUSH1 0x0 DUP1 REVERT JUMPDEST PUSH3 0x188 DUP4 PUSH3 0x14C JUMP JUMPDEST SWAP2 POP PUSH3 0x198 PUSH1 0x20 DUP5 ADD PUSH3 0x14C JUMP JUMPDEST SWAP1 POP SWAP3 POP SWAP3 SWAP1 POP JUMP JUMPDEST PUSH1 0x80 MLOAD PUSH1 0xA0 MLOAD PUSH2 0x1871 PUSH3 0x1D5 PUSH1 0x0 CODECOPY PUSH1 0x0 DUP2 DUP2 PUSH2 0x2C1 ADD MSTORE PUSH2 0x400 ADD MSTORE PUSH1 0x0 DUP2 DUP2 PUSH2 0x303 ADD MSTORE PUSH2 0x7AA ADD MSTORE PUSH2 0x1871 PUSH1 0x0 RETURN INVALID PUSH1 0x80 PUSH1 0x40 MSTORE CALLVALUE DUP1 ISZERO PUSH2 0x10 JUMPI PUSH1 0x0 DUP1 REVERT JUMPDEST POP PUSH1 0x4 CALLDATASIZE LT PUSH2 0x14D JUMPI PUSH1 0x0 CALLDATALOAD PUSH1 0xE0 SHR DUP1 PUSH4 0x5E7A9005 GT PUSH2 0xC3 JUMPI DUP1 PUSH4 0xA9059CBB GT PUSH2 0x7C JUMPI DUP1 PUSH4 0xA9059CBB EQ PUSH2 0x2E3 JUMPI DUP1 PUSH4 0xC28DE2CD EQ PUSH2 0x2F1 JUMPI DUP1 PUSH4 0xC3ACB4D1 EQ PUSH2 0x2FE JUMPI DUP1 PUSH4 0xDD62ED3E EQ PUSH2 0x325 JUMPI DUP1 PUSH4 0xE517FEDD EQ PUSH2 0x338 JUMPI DUP1 PUSH4 0xEAC449D9 EQ PUSH2 0x350 JUMPI PUSH1 0x0 DUP1 REVERT JUMPDEST DUP1 PUSH4 0x5E7A9005 EQ PUSH2 0x252 JUMPI DUP1 PUSH4 0x70A08231 EQ PUSH2 0x265 JUMPI DUP1 PUSH4 0x7B4E04E8 EQ PUSH2 0x28E JUMPI DUP1 PUSH4 0x7F5A7C7B EQ PUSH2 0x2A1 JUMPI DUP1 PUSH4 0x95D89B41 EQ PUSH2 0x2B4 JUMPI DUP1 PUSH4 0x979D7E86 EQ PUSH2 0x2BC JUMPI PUSH1 0x0 DUP1 REVERT JUMPDEST DUP1 PUSH4 0x1D143848 GT PUSH2 0x115 JUMPI DUP1 PUSH4 0x1D143848 EQ PUSH2 0x1C7 JUMPI DUP1 PUSH4 0x23B872DD EQ PUSH2 0x1F2 JUMPI DUP1 PUSH4 0x313CE567 EQ PUSH2 0x205 JUMPI DUP1 PUSH4 0x378F17FF EQ PUSH2 0x224 JUMPI DUP1 PUSH4 0x40C10F19 EQ PUSH2 0x22C JUMPI DUP1 PUSH4 0x4DDF47D4 EQ PUSH2 0x23F JUMPI PUSH1 0x0 DUP1 REVERT JUMPDEST DUP1 PUSH4 0x6FDDE03 EQ PUSH2 0x152 JUMPI DUP1 PUSH4 0x900F010 EQ PUSH2 0x170 JUMPI DUP1 PUSH4 0x95EA7B3 EQ PUSH2 0x185 JUMPI DUP1 PUSH4 0xAC7F561 EQ PUSH2 0x1A8 JUMPI DUP1 PUSH4 0x18160DDD EQ PUSH2 0x1BF JUMPI JUMPDEST PUSH1 0x0 DUP1 REVERT JUMPDEST PUSH2 0x15A PUSH2 0x363 JUMP JUMPDEST PUSH1 0x40 MLOAD PUSH2 0x167 SWAP2 SWAP1 PUSH2 0x113A JUMP JUMPDEST PUSH1 0x40 MLOAD DUP1 SWAP2 SUB SWAP1 RETURN JUMPDEST PUSH2 0x183 PUSH2 0x17E CALLDATASIZE PUSH1 0x4 PUSH2 0x117C JUMP JUMPDEST PUSH2 0x3F5 JUMP JUMPDEST STOP JUMPDEST PUSH2 0x198 PUSH2 0x193 CALLDATASIZE PUSH1 0x4 PUSH2 0x1199 JUMP JUMPDEST PUSH2 0x4D4 JUMP JUMPDEST PUSH1 0x40 MLOAD SWAP1 ISZERO ISZERO DUP2 MSTORE PUSH1 0x20 ADD PUSH2 0x167 JUMP JUMPDEST PUSH2 0x1B1 PUSH1 0x3 SLOAD DUP2 JUMP JUMPDEST PUSH1 0x40 MLOAD SWAP1 DUP2 MSTORE PUSH1 0x20 ADD PUSH2 0x167 JUMP JUMPDEST PUSH1 0x4 SLOAD PUSH2 0x1B1 JUMP JUMPDEST PUSH1 0x1 SLOAD PUSH2 0x1DA SWAP1 PUSH1 0x1 PUSH1 0x1 PUSH1 0xA0 SHL SUB AND DUP2 JUMP JUMPDEST PUSH1 0x40 MLOAD PUSH1 0x1 PUSH1 0x1 PUSH1 0xA0 SHL SUB SWAP1 SWAP2 AND DUP2 MSTORE PUSH1 0x20 ADD PUSH2 0x167 JUMP JUMPDEST PUSH2 0x198 PUSH2 0x200 CALLDATASIZE PUSH1 0x4 PUSH2 0x11C5 JUMP JUMPDEST PUSH2 0x537 JUMP JUMPDEST PUSH1 0x2 SLOAD PUSH1 0x1 PUSH1 0xA0 SHL SWAP1 DIV PUSH1 0xFF AND PUSH1 0x40 MLOAD PUSH1 0xFF SWAP1 SWAP2 AND DUP2 MSTORE PUSH1 0x20 ADD PUSH2 0x167 JUMP JUMPDEST PUSH2 0x183 PUSH2 0x59A JUMP JUMPDEST PUSH2 0x183 PUSH2 0x23A CALLDATASIZE PUSH1 0x4 PUSH2 0x1199 JUMP JUMPDEST PUSH2 0x639 JUMP JUMPDEST PUSH2 0x183 PUSH2 0x24D CALLDATASIZE PUSH1 0x4 PUSH2 0x12DC JUMP JUMPDEST PUSH2 0x79F JUMP JUMPDEST PUSH2 0x15A PUSH2 0x260 CALLDATASIZE PUSH1 0x4 PUSH2 0x1367 JUMP JUMPDEST PUSH2 0xB9C JUMP JUMPDEST PUSH2 0x1B1 PUSH2 0x273 CALLDATASIZE PUSH1 0x4 PUSH2 0x117C JUMP JUMPDEST PUSH1 0x1 PUSH1 0x1 PUSH1 0xA0 SHL SUB AND PUSH1 0x0 SWAP1 DUP2 MSTORE PUSH1 0x5 PUSH1 0x20 MSTORE PUSH1 0x40 SWAP1 KECCAK256 SLOAD SWAP1 JUMP JUMPDEST PUSH2 0x183 PUSH2 0x29C CALLDATASIZE PUSH1 0x4 PUSH2 0x117C JUMP JUMPDEST PUSH2 0xBC5 JUMP JUMPDEST PUSH1 0x2 SLOAD PUSH2 0x1DA SWAP1 PUSH1 0x1 PUSH1 0x1 PUSH1 0xA0 SHL SUB AND DUP2 JUMP JUMPDEST PUSH2 0x15A PUSH2 0xCDF JUMP JUMPDEST PUSH2 0x1DA PUSH32 0x0 DUP2 JUMP JUMPDEST PUSH2 0x198 PUSH2 0x200 CALLDATASIZE PUSH1 0x4 PUSH2 0x1199 JUMP JUMPDEST PUSH1 0x0 SLOAD PUSH2 0x198 SWAP1 PUSH1 0xFF AND DUP2 JUMP JUMPDEST PUSH2 0x1DA PUSH32 0x0 DUP2 JUMP JUMPDEST PUSH2 0x1B1 PUSH2 0x333 CALLDATASIZE PUSH1 0x4 PUSH2 0x143F JUMP JUMPDEST PUSH2 0xCEE JUMP JUMPDEST PUSH1 0x0 SLOAD PUSH2 0x1DA SWAP1 PUSH2 0x100 SWAP1 DIV PUSH1 0x1 PUSH1 0x1 PUSH1 0xA0 SHL SUB AND DUP2 JUMP JUMPDEST PUSH2 0x183 PUSH2 0x35E CALLDATASIZE PUSH1 0x4 PUSH2 0x1199 JUMP JUMPDEST PUSH2 0xD1B JUMP JUMPDEST PUSH1 0x60 PUSH1 0x7 DUP1 SLOAD PUSH2 0x372 SWAP1 PUSH2 0x1478 JUMP JUMPDEST DUP1 PUSH1 0x1F ADD PUSH1 0x20 DUP1 SWAP2 DIV MUL PUSH1 0x20 ADD PUSH1 0x40 MLOAD SWAP1 DUP2 ADD PUSH1 0x40 MSTORE DUP1 SWAP3 SWAP2 SWAP1 DUP2 DUP2 MSTORE PUSH1 0x20 ADD DUP3 DUP1 SLOAD PUSH2 0x39E SWAP1 PUSH2 0x1478 JUMP JUMPDEST DUP1 ISZERO PUSH2 0x3EB JUMPI DUP1 PUSH1 0x1F LT PUSH2 0x3C0 JUMPI PUSH2 0x100 DUP1 DUP4 SLOAD DIV MUL DUP4 MSTORE SWAP2 PUSH1 0x20 ADD SWAP2 PUSH2 0x3EB JUMP JUMPDEST DUP3 ADD SWAP2 SWAP1 PUSH1 0x0 MSTORE PUSH1 0x20 PUSH1 0x0 KECCAK256 SWAP1 JUMPDEST DUP2 SLOAD DUP2 MSTORE SWAP1 PUSH1 0x1 ADD SWAP1 PUSH1 0x20 ADD DUP1 DUP4 GT PUSH2 0x3CE JUMPI DUP3 SWAP1 SUB PUSH1 0x1F AND DUP3 ADD SWAP2 JUMPDEST POP POP POP POP POP SWAP1 POP SWAP1 JUMP JUMPDEST CALLER PUSH1 0x1 PUSH1 0x1 PUSH1 0xA0 SHL SUB PUSH32 0x0 AND EQ PUSH2 0x486 JUMPI PUSH1 0x40 MLOAD PUSH3 0x461BCD PUSH1 0xE5 SHL DUP2 MSTORE PUSH1 0x20 PUSH1 0x4 DUP3 ADD MSTORE PUSH1 0x2B PUSH1 0x24 DUP3 ADD MSTORE PUSH32 0x4E6F6E5472616E7366657261626C6545524332303A206F6E6C79207265676973 PUSH1 0x44 DUP3 ADD MSTORE PUSH11 0x1D1C9E48185B1B1BDDD959 PUSH1 0xAA SHL PUSH1 0x64 DUP3 ADD MSTORE PUSH1 0x84 ADD JUMPDEST PUSH1 0x40 MLOAD DUP1 SWAP2 SUB SWAP1 REVERT JUMPDEST PUSH1 0x0 DUP1 SLOAD PUSH1 0xFF NOT AND PUSH1 0x1 OR SWAP1 SSTORE PUSH1 0x40 MLOAD PUSH1 0x1 PUSH1 0x1 PUSH1 0xA0 SHL SUB DUP3 AND DUP2 MSTORE ADDRESS SWAP1 PUSH32 0xE0CDC3A6EAF24C066560B5CB2E50C08F3D82CCE0E3D838DC7032BA68790CD52B SWAP1 PUSH1 0x20 ADD PUSH1 0x40 MLOAD DUP1 SWAP2 SUB SWAP1 LOG2 POP JUMP JUMPDEST PUSH1 0x40 MLOAD PUSH3 0x461BCD PUSH1 0xE5 SHL DUP2 MSTORE PUSH1 0x20 PUSH1 0x4 DUP3 ADD MSTORE PUSH1 0x2F PUSH1 0x24 DUP3 ADD MSTORE PUSH32 0x4E6F6E5472616E7366657261626C6545524332303A20617070726F76616C7320 PUSH1 0x44 DUP3 ADD MSTORE PUSH15 0x1B9BDD08185B1B1BDDD959081E595D PUSH1 0x8A SHL PUSH1 0x64 DUP3 ADD MSTORE PUSH1 0x0 SWAP1 PUSH1 0x84 ADD PUSH2 0x47D JUMP JUMPDEST PUSH1 0x40 MLOAD PUSH3 0x461BCD PUSH1 0xE5 SHL DUP2 MSTORE PUSH1 0x20 PUSH1 0x4 DUP3 ADD MSTORE PUSH1 0x2F PUSH1 0x24 DUP3 ADD MSTORE PUSH32 0x4E6F6E5472616E7366657261626C6545524332303A207472616E736665727320 PUSH1 0x44 DUP3 ADD MSTORE PUSH15 0x1B9BDD08185B1B1BDDD959081E595D PUSH1 0x8A SHL PUSH1 0x64 DUP3 ADD MSTORE PUSH1 0x0 SWAP1 PUSH1 0x84 ADD PUSH2 0x47D JUMP JUMPDEST PUSH1 0x1 SLOAD PUSH1 0x1 PUSH1 0x1 PUSH1 0xA0 SHL SUB AND PUSH2 0x5C2 JUMPI PUSH1 0x40 MLOAD PUSH3 0x461BCD PUSH1 0xE5 SHL DUP2 MSTORE PUSH1 0x4 ADD PUSH2 0x47D SWAP1 PUSH2 0x14B2 JUMP JUMPDEST PUSH1 0x1 SLOAD PUSH1 0x1 PUSH1 0x1 PUSH1 0xA0 SHL SUB AND CALLER EQ PUSH2 0x5EC JUMPI PUSH1 0x40 MLOAD PUSH3 0x461BCD PUSH1 0xE5 SHL DUP2 MSTORE PUSH1 0x4 ADD PUSH2 0x47D SWAP1 PUSH2 0x14F7 JUMP JUMPDEST PUSH1 0x2 SLOAD PUSH1 0x40 MLOAD PUSH1 0x1 PUSH1 0x1 PUSH1 0xA0 SHL SUB SWAP1 SWAP2 AND SWAP1 DUP2 SWAP1 PUSH32 0x46933B6B7DC2DAAD943914B804DE007BC35A3C29871400A45D01B08A99FD824C SWAP1 PUSH1 0x0 SWAP1 LOG2 POP PUSH1 0x2 DUP1 SLOAD PUSH1 0x1 PUSH1 0x1 PUSH1 0xA0 SHL SUB NOT AND SWAP1 SSTORE JUMP JUMPDEST PUSH1 0x1 SLOAD PUSH1 0x1 PUSH1 0x1 PUSH1 0xA0 SHL SUB AND PUSH2 0x661 JUMPI PUSH1 0x40 MLOAD PUSH3 0x461BCD PUSH1 0xE5 SHL DUP2 MSTORE PUSH1 0x4 ADD PUSH2 0x47D SWAP1 PUSH2 0x14B2 JUMP JUMPDEST PUSH1 0x1 SLOAD PUSH1 0x1 PUSH1 0x1 PUSH1 0xA0 SHL SUB AND CALLER EQ PUSH2 0x68B JUMPI PUSH1 0x40 MLOAD PUSH3 0x461BCD PUSH1 0xE5 SHL DUP2 MSTORE PUSH1 0x4 ADD PUSH2 0x47D SWAP1 PUSH2 0x14F7 JUMP JUMPDEST PUSH1 0x2 SLOAD PUSH1 0x1 PUSH1 0x1 PUSH1 0xA0 SHL SUB AND ISZERO PUSH2 0x791 JUMPI PUSH1 0x2 SLOAD PUSH1 0x40 MLOAD PUSH4 0x86B84187 PUSH1 0xE0 SHL DUP2 MSTORE ADDRESS PUSH1 0x4 DUP3 ADD MSTORE PUSH1 0x1 PUSH1 0x1 PUSH1 0xA0 SHL SUB DUP5 DUP2 AND PUSH1 0x24 DUP4 ADD MSTORE PUSH1 0x44 DUP3 ADD DUP5 SWAP1 MSTORE PUSH1 0x0 SWAP3 AND SWAP1 PUSH4 0x86B84187 SWAP1 PUSH1 0x64 ADD PUSH1 0x20 PUSH1 0x40 MLOAD DUP1 DUP4 SUB DUP2 PUSH1 0x0 DUP8 GAS CALL ISZERO DUP1 ISZERO PUSH2 0x6F6 JUMPI RETURNDATASIZE PUSH1 0x0 DUP1 RETURNDATACOPY RETURNDATASIZE PUSH1 0x0 REVERT JUMPDEST POP POP POP POP PUSH1 0x40 MLOAD RETURNDATASIZE PUSH1 0x1F NOT PUSH1 0x1F DUP3 ADD AND DUP3 ADD DUP1 PUSH1 0x40 MSTORE POP DUP2 ADD SWAP1 PUSH2 0x71A SWAP2 SWAP1 PUSH2 0x1540 JUMP JUMPDEST SWAP1 POP DUP1 PUSH2 0x78F JUMPI PUSH1 0x40 MLOAD PUSH3 0x461BCD PUSH1 0xE5 SHL DUP2 MSTORE PUSH1 0x20 PUSH1 0x4 DUP3 ADD MSTORE PUSH1 0x3B PUSH1 0x24 DUP3 ADD MSTORE PUSH32 0x4E6F6E5472616E7366657261626C65455243323041737365743A206265666F72 PUSH1 0x44 DUP3 ADD MSTORE PUSH32 0x654D696E7420686F6F6B2072656A656374656420726571756573740000000000 PUSH1 0x64 DUP3 ADD MSTORE PUSH1 0x84 ADD PUSH2 0x47D JUMP JUMPDEST POP JUMPDEST PUSH2 0x79B DUP3 DUP3 PUSH2 0xEA8 JUMP JUMPDEST POP POP JUMP JUMPDEST CALLER PUSH1 0x1 PUSH1 0x1 PUSH1 0xA0 SHL SUB PUSH32 0x0 AND EQ PUSH2 0x82A JUMPI PUSH1 0x40 MLOAD PUSH3 0x461BCD PUSH1 0xE5 SHL DUP2 MSTORE PUSH1 0x20 PUSH1 0x4 DUP3 ADD MSTORE PUSH1 0x2A PUSH1 0x24 DUP3 ADD MSTORE PUSH32 0x4E6F6E5472616E7366657261626C6545524332303A206F6E6C7920666163746F PUSH1 0x44 DUP3 ADD MSTORE PUSH10 0x1C9E48185B1B1BDDD959 PUSH1 0xB2 SHL PUSH1 0x64 DUP3 ADD MSTORE PUSH1 0x84 ADD PUSH2 0x47D JUMP JUMPDEST PUSH1 0x0 DUP2 DUP1 PUSH1 0x20 ADD SWAP1 MLOAD DUP2 ADD SWAP1 PUSH2 0x840 SWAP2 SWAP1 PUSH2 0x15BD JUMP JUMPDEST PUSH1 0x20 DUP2 ADD MLOAD SWAP1 SWAP2 POP PUSH1 0x1 PUSH1 0x1 PUSH1 0xA0 SHL SUB AND PUSH2 0x8B9 JUMPI PUSH1 0x40 MLOAD PUSH3 0x461BCD PUSH1 0xE5 SHL DUP2 MSTORE PUSH1 0x20 PUSH1 0x4 DUP3 ADD MSTORE PUSH1 0x33 PUSH1 0x24 DUP3 ADD MSTORE PUSH32 0x4E6F6E5472616E7366657261626C6545524332303A206973737565722063616E PUSH1 0x44 DUP3 ADD MSTORE PUSH19 0x6E6F74206265207A65726F2061646472657373 PUSH1 0x68 SHL PUSH1 0x64 DUP3 ADD MSTORE PUSH1 0x84 ADD PUSH2 0x47D JUMP JUMPDEST DUP1 MLOAD PUSH1 0x1 PUSH1 0x1 PUSH1 0xA0 SHL SUB AND PUSH2 0x929 JUMPI PUSH1 0x40 MLOAD PUSH3 0x461BCD PUSH1 0xE5 SHL DUP2 MSTORE PUSH1 0x20 PUSH1 0x4 DUP3 ADD MSTORE PUSH1 0x30 PUSH1 0x24 DUP3 ADD MSTORE PUSH32 0x41737365743A206F726967696E436861696E416464726573732063616E6E6F74 PUSH1 0x44 DUP3 ADD MSTORE PUSH16 0x206265207A65726F2061646472657373 PUSH1 0x80 SHL PUSH1 0x64 DUP3 ADD MSTORE PUSH1 0x84 ADD PUSH2 0x47D JUMP JUMPDEST PUSH1 0x0 DUP2 PUSH1 0x80 ADD MLOAD GT PUSH2 0x9A3 JUMPI PUSH1 0x40 MLOAD PUSH3 0x461BCD PUSH1 0xE5 SHL DUP2 MSTORE PUSH1 0x20 PUSH1 0x4 DUP3 ADD MSTORE PUSH1 0x3B PUSH1 0x24 DUP3 ADD MSTORE PUSH32 0x4E6F6E5472616E7366657261626C6545524332303A20746F74616C537570706C PUSH1 0x44 DUP3 ADD MSTORE PUSH32 0x79206D7573742062652067726561746572207468616E207A65726F0000000000 PUSH1 0x64 DUP3 ADD MSTORE PUSH1 0x84 ADD PUSH2 0x47D JUMP JUMPDEST PUSH1 0x0 DUP2 PUSH1 0xA0 ADD MLOAD MLOAD GT PUSH2 0xA0B JUMPI PUSH1 0x40 MLOAD PUSH3 0x461BCD PUSH1 0xE5 SHL DUP2 MSTORE PUSH1 0x20 PUSH1 0x4 DUP3 ADD MSTORE PUSH1 0x2A PUSH1 0x24 DUP3 ADD MSTORE PUSH32 0x4E6F6E5472616E7366657261626C6545524332303A206E616D652063616E6E6F PUSH1 0x44 DUP3 ADD MSTORE PUSH10 0x7420626520656D707479 PUSH1 0xB0 SHL PUSH1 0x64 DUP3 ADD MSTORE PUSH1 0x84 ADD PUSH2 0x47D JUMP JUMPDEST PUSH1 0x0 DUP2 PUSH1 0xC0 ADD MLOAD MLOAD GT PUSH2 0xA75 JUMPI PUSH1 0x40 MLOAD PUSH3 0x461BCD PUSH1 0xE5 SHL DUP2 MSTORE PUSH1 0x20 PUSH1 0x4 DUP3 ADD MSTORE PUSH1 0x2C PUSH1 0x24 DUP3 ADD MSTORE PUSH32 0x4E6F6E5472616E7366657261626C6545524332303A2073796D626F6C2063616E PUSH1 0x44 DUP3 ADD MSTORE PUSH12 0x6E6F7420626520656D707479 PUSH1 0xA0 SHL PUSH1 0x64 DUP3 ADD MSTORE PUSH1 0x84 ADD PUSH2 0x47D JUMP JUMPDEST PUSH1 0x0 DUP2 PUSH1 0x60 ADD MLOAD GT PUSH2 0xAEF JUMPI PUSH1 0x40 MLOAD PUSH3 0x461BCD PUSH1 0xE5 SHL DUP2 MSTORE PUSH1 0x20 PUSH1 0x4 DUP3 ADD MSTORE PUSH1 0x3D PUSH1 0x24 DUP3 ADD MSTORE PUSH32 0x4E6F6E5472616E7366657261626C6545524332303A206F726967696E43686169 PUSH1 0x44 DUP3 ADD MSTORE PUSH32 0x6E4964206D7573742062652067726561746572207468616E207A65726F000000 PUSH1 0x64 DUP3 ADD MSTORE PUSH1 0x84 ADD PUSH2 0x47D JUMP JUMPDEST DUP1 MLOAD PUSH1 0x0 DUP1 SLOAD PUSH2 0x100 PUSH1 0x1 PUSH1 0xA8 SHL SUB NOT AND PUSH2 0x100 PUSH1 0x1 PUSH1 0x1 PUSH1 0xA0 SHL SUB SWAP4 DUP5 AND MUL OR SWAP1 SSTORE PUSH1 0x20 DUP3 ADD MLOAD PUSH1 0x1 DUP1 SLOAD PUSH1 0x1 PUSH1 0x1 PUSH1 0xA0 SHL SUB NOT AND SWAP2 SWAP1 SWAP3 AND OR SWAP1 SSTORE PUSH1 0x60 DUP2 ADD MLOAD PUSH1 0x3 SSTORE PUSH1 0x80 DUP2 ADD MLOAD PUSH1 0x4 SSTORE PUSH1 0xA0 DUP2 ADD MLOAD PUSH1 0x7 SWAP1 PUSH2 0xB4E SWAP1 DUP3 PUSH2 0x16D6 JUMP JUMPDEST POP PUSH1 0xC0 DUP2 ADD MLOAD PUSH1 0x8 SWAP1 PUSH2 0xB61 SWAP1 DUP3 PUSH2 0x16D6 JUMP JUMPDEST POP PUSH1 0x0 DUP2 PUSH1 0x40 ADD MLOAD PUSH1 0xFF AND GT PUSH2 0xB78 JUMPI PUSH1 0x12 PUSH2 0xB7E JUMP JUMPDEST DUP1 PUSH1 0x40 ADD MLOAD JUMPDEST PUSH1 0x2 PUSH1 0x14 PUSH2 0x100 EXP DUP2 SLOAD DUP2 PUSH1 0xFF MUL NOT AND SWAP1 DUP4 PUSH1 0xFF AND MUL OR SWAP1 SSTORE POP POP POP JUMP JUMPDEST PUSH1 0x60 DUP2 PUSH1 0x40 MLOAD PUSH1 0x20 ADD PUSH2 0xBAF SWAP2 SWAP1 PUSH2 0x1796 JUMP JUMPDEST PUSH1 0x40 MLOAD PUSH1 0x20 DUP2 DUP4 SUB SUB DUP2 MSTORE SWAP1 PUSH1 0x40 MSTORE SWAP1 POP SWAP2 SWAP1 POP JUMP JUMPDEST PUSH1 0x1 SLOAD PUSH1 0x1 PUSH1 0x1 PUSH1 0xA0 SHL SUB AND PUSH2 0xBED JUMPI PUSH1 0x40 MLOAD PUSH3 0x461BCD PUSH1 0xE5 SHL DUP2 MSTORE PUSH1 0x4 ADD PUSH2 0x47D SWAP1 PUSH2 0x14B2 JUMP JUMPDEST PUSH1 0x1 SLOAD PUSH1 0x1 PUSH1 0x1 PUSH1 0xA0 SHL SUB AND CALLER EQ PUSH2 0xC17 JUMPI PUSH1 0x40 MLOAD PUSH3 0x461BCD PUSH1 0xE5 SHL DUP2 MSTORE PUSH1 0x4 ADD PUSH2 0x47D SWAP1 PUSH2 0x14F7 JUMP JUMPDEST PUSH1 0x2 SLOAD PUSH1 0x1 PUSH1 0x1 PUSH1 0xA0 SHL SUB AND PUSH2 0xC95 JUMPI PUSH1 0x40 MLOAD PUSH3 0x461BCD PUSH1 0xE5 SHL DUP2 MSTORE PUSH1 0x20 PUSH1 0x4 DUP3 ADD MSTORE PUSH1 0x37 PUSH1 0x24 DUP3 ADD MSTORE PUSH32 0x4E6F6E5472616E7366657261626C6545524337323141737365743A20686F6F6B PUSH1 0x44 DUP3 ADD MSTORE PUSH32 0x2063616E6E6F74206265207A65726F2061646472657373000000000000000000 PUSH1 0x64 DUP3 ADD MSTORE PUSH1 0x84 ADD PUSH2 0x47D JUMP JUMPDEST PUSH1 0x2 DUP1 SLOAD PUSH1 0x1 PUSH1 0x1 PUSH1 0xA0 SHL SUB NOT AND PUSH1 0x1 PUSH1 0x1 PUSH1 0xA0 SHL SUB DUP4 AND SWAP1 DUP2 OR SWAP1 SWAP2 SSTORE PUSH1 0x40 MLOAD PUSH32 0xE15F398C7F82415E4BA2801BE5EABAF63F308D6BD720508F7F242FAD319561EC SWAP1 PUSH1 0x0 SWAP1 LOG2 POP JUMP JUMPDEST PUSH1 0x60 PUSH1 0x8 DUP1 SLOAD PUSH2 0x372 SWAP1 PUSH2 0x1478 JUMP JUMPDEST PUSH1 0x1 PUSH1 0x1 PUSH1 0xA0 SHL SUB DUP1 DUP4 AND PUSH1 0x0 SWAP1 DUP2 MSTORE PUSH1 0x6 PUSH1 0x20 SWAP1 DUP2 MSTORE PUSH1 0x40 DUP1 DUP4 KECCAK256 SWAP4 DUP6 AND DUP4 MSTORE SWAP3 SWAP1 MSTORE KECCAK256 SLOAD JUMPDEST SWAP3 SWAP2 POP POP JUMP JUMPDEST PUSH1 0x1 SLOAD PUSH1 0x1 PUSH1 0x1 PUSH1 0xA0 SHL SUB AND PUSH2 0xD43 JUMPI PUSH1 0x40 MLOAD PUSH3 0x461BCD PUSH1 0xE5 SHL DUP2 MSTORE PUSH1 0x4 ADD PUSH2 0x47D SWAP1 PUSH2 0x14B2 JUMP JUMPDEST PUSH1 0x1 SLOAD PUSH1 0x1 PUSH1 0x1 PUSH1 0xA0 SHL SUB AND CALLER EQ PUSH2 0xD6D JUMPI PUSH1 0x40 MLOAD PUSH3 0x461BCD PUSH1 0xE5 SHL DUP2 MSTORE PUSH1 0x4 ADD PUSH2 0x47D SWAP1 PUSH2 0x14F7 JUMP JUMPDEST PUSH1 0x2 SLOAD PUSH1 0x1 PUSH1 0x1 PUSH1 0xA0 SHL SUB AND ISZERO PUSH2 0xE73 JUMPI PUSH1 0x2 SLOAD PUSH1 0x40 MLOAD PUSH4 0x35661E95 PUSH1 0xE2 SHL DUP2 MSTORE ADDRESS PUSH1 0x4 DUP3 ADD MSTORE PUSH1 0x1 PUSH1 0x1 PUSH1 0xA0 SHL SUB DUP5 DUP2 AND PUSH1 0x24 DUP4 ADD MSTORE PUSH1 0x44 DUP3 ADD DUP5 SWAP1 MSTORE PUSH1 0x0 SWAP3 AND SWAP1 PUSH4 0xD5987A54 SWAP1 PUSH1 0x64 ADD PUSH1 0x20 PUSH1 0x40 MLOAD DUP1 DUP4 SUB DUP2 PUSH1 0x0 DUP8 GAS CALL ISZERO DUP1 ISZERO PUSH2 0xDD8 JUMPI RETURNDATASIZE PUSH1 0x0 DUP1 RETURNDATACOPY RETURNDATASIZE PUSH1 0x0 REVERT JUMPDEST POP POP POP POP PUSH1 0x40 MLOAD RETURNDATASIZE PUSH1 0x1F NOT PUSH1 0x1F DUP3 ADD AND DUP3 ADD DUP1 PUSH1 0x40 MSTORE POP DUP2 ADD SWAP1 PUSH2 0xDFC SWAP2 SWAP1 PUSH2 0x1540 JUMP JUMPDEST SWAP1 POP DUP1 PUSH2 0xE71 JUMPI PUSH1 0x40 MLOAD PUSH3 0x461BCD PUSH1 0xE5 SHL DUP2 MSTORE PUSH1 0x20 PUSH1 0x4 DUP3 ADD MSTORE PUSH1 0x3D PUSH1 0x24 DUP3 ADD MSTORE PUSH32 0x4E6F6E5472616E7366657261626C65455243323041737365743A206265666F72 PUSH1 0x44 DUP3 ADD MSTORE PUSH32 0x655265766F6B6520686F6F6B2072656A65637465642072657175657374000000 PUSH1 0x64 DUP3 ADD MSTORE PUSH1 0x84 ADD PUSH2 0x47D JUMP JUMPDEST POP JUMPDEST PUSH1 0x1 PUSH1 0x1 PUSH1 0xA0 SHL SUB DUP3 AND PUSH1 0x0 SWAP1 DUP2 MSTORE PUSH1 0x5 PUSH1 0x20 MSTORE PUSH1 0x40 SWAP1 KECCAK256 SLOAD PUSH2 0xEA3 DUP4 DUP3 DUP5 LT PUSH2 0xE9D JUMPI DUP3 PUSH2 0xF8E JUMP JUMPDEST DUP4 PUSH2 0xF8E JUMP JUMPDEST POP POP POP JUMP JUMPDEST PUSH1 0x0 SLOAD PUSH1 0xFF AND ISZERO PUSH2 0xF11 JUMPI PUSH1 0x40 MLOAD PUSH3 0x461BCD PUSH1 0xE5 SHL DUP2 MSTORE PUSH1 0x20 PUSH1 0x4 DUP3 ADD MSTORE PUSH1 0x2D PUSH1 0x24 DUP3 ADD MSTORE PUSH32 0x4E6F6E5472616E7366657261626C6545524332303A2061737365742068617320 PUSH1 0x44 DUP3 ADD MSTORE PUSH13 0x1899595B881D5C19DC98591959 PUSH1 0x9A SHL PUSH1 0x64 DUP3 ADD MSTORE PUSH1 0x84 ADD PUSH2 0x47D JUMP JUMPDEST PUSH1 0x1 PUSH1 0x1 PUSH1 0xA0 SHL SUB DUP3 AND PUSH2 0xF3B JUMPI PUSH1 0x40 MLOAD PUSH4 0xEC442F05 PUSH1 0xE0 SHL DUP2 MSTORE PUSH1 0x0 PUSH1 0x4 DUP3 ADD MSTORE PUSH1 0x24 ADD PUSH2 0x47D JUMP JUMPDEST PUSH2 0xF47 PUSH1 0x0 DUP4 DUP4 PUSH2 0xFC0 JUMP JUMPDEST DUP2 PUSH1 0x1 PUSH1 0x1 PUSH1 0xA0 SHL SUB AND PUSH32 0x1F98EE45D72CAC8271CFD41CC599153BF1465AFC3FC1F0B3E2A97B8F1C4253A9 DUP3 PUSH1 0x40 MLOAD PUSH2 0xF82 SWAP2 DUP2 MSTORE PUSH1 0x20 ADD SWAP1 JUMP JUMPDEST PUSH1 0x40 MLOAD DUP1 SWAP2 SUB SWAP1 LOG2 POP POP JUMP JUMPDEST PUSH1 0x1 PUSH1 0x1 PUSH1 0xA0 SHL SUB DUP3 AND PUSH2 0xFB8 JUMPI PUSH1 0x40 MLOAD PUSH4 0x4B637E8F PUSH1 0xE1 SHL DUP2 MSTORE PUSH1 0x0 PUSH1 0x4 DUP3 ADD MSTORE PUSH1 0x24 ADD PUSH2 0x47D JUMP JUMPDEST PUSH2 0x79B DUP3 PUSH1 0x0 DUP4 JUMPDEST PUSH1 0x1 PUSH1 0x1 PUSH1 0xA0 SHL SUB DUP4 AND PUSH2 0xFEB JUMPI DUP1 PUSH1 0x4 PUSH1 0x0 DUP3 DUP3 SLOAD PUSH2 0xFE0 SWAP2 SWAP1 PUSH2 0x181A JUMP JUMPDEST SWAP1 SWAP2 SSTORE POP PUSH2 0x105D SWAP1 POP JUMP JUMPDEST PUSH1 0x1 PUSH1 0x1 PUSH1 0xA0 SHL SUB DUP4 AND PUSH1 0x0 SWAP1 DUP2 MSTORE PUSH1 0x5 PUSH1 0x20 MSTORE PUSH1 0x40 SWAP1 KECCAK256 SLOAD DUP2 DUP2 LT ISZERO PUSH2 0x103E JUMPI PUSH1 0x40 MLOAD PUSH4 0x391434E3 PUSH1 0xE2 SHL DUP2 MSTORE PUSH1 0x1 PUSH1 0x1 PUSH1 0xA0 SHL SUB DUP6 AND PUSH1 0x4 DUP3 ADD MSTORE PUSH1 0x24 DUP2 ADD DUP3 SWAP1 MSTORE PUSH1 0x44 DUP2 ADD DUP4 SWAP1 MSTORE PUSH1 0x64 ADD PUSH2 0x47D JUMP JUMPDEST PUSH1 0x1 PUSH1 0x1 PUSH1 0xA0 SHL SUB DUP5 AND PUSH1 0x0 SWAP1 DUP2 MSTORE PUSH1 0x5 PUSH1 0x20 MSTORE PUSH1 0x40 SWAP1 KECCAK256 SWAP1 DUP3 SWAP1 SUB SWAP1 SSTORE JUMPDEST PUSH1 0x1 PUSH1 0x1 PUSH1 0xA0 SHL SUB DUP3 AND PUSH2 0x1079 JUMPI PUSH1 0x4 DUP1 SLOAD DUP3 SWAP1 SUB SWAP1 SSTORE PUSH2 0x1098 JUMP JUMPDEST PUSH1 0x1 PUSH1 0x1 PUSH1 0xA0 SHL SUB DUP3 AND PUSH1 0x0 SWAP1 DUP2 MSTORE PUSH1 0x5 PUSH1 0x20 MSTORE PUSH1 0x40 SWAP1 KECCAK256 DUP1 SLOAD DUP3 ADD SWAP1 SSTORE JUMPDEST DUP2 PUSH1 0x1 PUSH1 0x1 PUSH1 0xA0 SHL SUB AND DUP4 PUSH1 0x1 PUSH1 0x1 PUSH1 0xA0 SHL SUB AND PUSH32 0xDDF252AD1BE2C89B69C2B068FC378DAA952BA7F163C4A11628F55A4DF523B3EF DUP4 PUSH1 0x40 MLOAD PUSH2 0x10DD SWAP2 DUP2 MSTORE PUSH1 0x20 ADD SWAP1 JUMP JUMPDEST PUSH1 0x40 MLOAD DUP1 SWAP2 SUB SWAP1 LOG3 POP POP POP JUMP JUMPDEST PUSH1 0x0 JUMPDEST DUP4 DUP2 LT ISZERO PUSH2 0x1105 JUMPI DUP2 DUP2 ADD MLOAD DUP4 DUP3 ADD MSTORE PUSH1 0x20 ADD PUSH2 0x10ED JUMP JUMPDEST POP POP PUSH1 0x0 SWAP2 ADD MSTORE JUMP JUMPDEST PUSH1 0x0 DUP2 MLOAD DUP1 DUP5 MSTORE PUSH2 0x1126 DUP2 PUSH1 0x20 DUP7 ADD PUSH1 0x20 DUP7 ADD PUSH2 0x10EA JUMP JUMPDEST PUSH1 0x1F ADD PUSH1 0x1F NOT AND SWAP3 SWAP1 SWAP3 ADD PUSH1 0x20 ADD SWAP3 SWAP2 POP POP JUMP JUMPDEST PUSH1 0x20 DUP2 MSTORE PUSH1 0x0 PUSH2 0x114D PUSH1 0x20 DUP4 ADD DUP5 PUSH2 0x110E JUMP JUMPDEST SWAP4 SWAP3 POP POP POP JUMP JUMPDEST PUSH1 0x1 PUSH1 0x1 PUSH1 0xA0 SHL SUB DUP2 AND DUP2 EQ PUSH2 0x1169 JUMPI PUSH1 0x0 DUP1 REVERT JUMPDEST POP JUMP JUMPDEST DUP1 CALLDATALOAD PUSH2 0x1177 DUP2 PUSH2 0x1154 JUMP JUMPDEST SWAP2 SWAP1 POP JUMP JUMPDEST PUSH1 0x0 PUSH1 0x20 DUP3 DUP5 SUB SLT ISZERO PUSH2 0x118E JUMPI PUSH1 0x0 DUP1 REVERT JUMPDEST DUP2 CALLDATALOAD PUSH2 0x114D DUP2 PUSH2 0x1154 JUMP JUMPDEST PUSH1 0x0 DUP1 PUSH1 0x40 DUP4 DUP6 SUB SLT ISZERO PUSH2 0x11AC JUMPI PUSH1 0x0 DUP1 REVERT JUMPDEST DUP3 CALLDATALOAD PUSH2 0x11B7 DUP2 PUSH2 0x1154 JUMP JUMPDEST SWAP5 PUSH1 0x20 SWAP4 SWAP1 SWAP4 ADD CALLDATALOAD SWAP4 POP POP POP JUMP JUMPDEST PUSH1 0x0 DUP1 PUSH1 0x0 PUSH1 0x60 DUP5 DUP7 SUB SLT ISZERO PUSH2 0x11DA JUMPI PUSH1 0x0 DUP1 REVERT JUMPDEST DUP4 CALLDATALOAD PUSH2 0x11E5 DUP2 PUSH2 0x1154 JUMP JUMPDEST SWAP3 POP PUSH1 0x20 DUP5 ADD CALLDATALOAD PUSH2 0x11F5 DUP2 PUSH2 0x1154 JUMP JUMPDEST SWAP3 SWAP6 SWAP3 SWAP5 POP POP POP PUSH1 0x40 SWAP2 SWAP1 SWAP2 ADD CALLDATALOAD SWAP1 JUMP JUMPDEST PUSH4 0x4E487B71 PUSH1 0xE0 SHL PUSH1 0x0 MSTORE PUSH1 0x41 PUSH1 0x4 MSTORE PUSH1 0x24 PUSH1 0x0 REVERT JUMPDEST PUSH1 0x40 MLOAD PUSH1 0xE0 DUP2 ADD PUSH8 0xFFFFFFFFFFFFFFFF DUP2 GT DUP3 DUP3 LT OR ISZERO PUSH2 0x123F JUMPI PUSH2 0x123F PUSH2 0x1206 JUMP JUMPDEST PUSH1 0x40 MSTORE SWAP1 JUMP JUMPDEST PUSH1 0x40 MLOAD PUSH1 0x1F DUP3 ADD PUSH1 0x1F NOT AND DUP2 ADD PUSH8 0xFFFFFFFFFFFFFFFF DUP2 GT DUP3 DUP3 LT OR ISZERO PUSH2 0x126E JUMPI PUSH2 0x126E PUSH2 0x1206 JUMP JUMPDEST PUSH1 0x40 MSTORE SWAP2 SWAP1 POP JUMP JUMPDEST PUSH1 0x0 PUSH8 0xFFFFFFFFFFFFFFFF DUP3 GT ISZERO PUSH2 0x1290 JUMPI PUSH2 0x1290 PUSH2 0x1206 JUMP JUMPDEST POP PUSH1 0x1F ADD PUSH1 0x1F NOT AND PUSH1 0x20 ADD SWAP1 JUMP JUMPDEST PUSH1 0x0 PUSH2 0x12B1 PUSH2 0x12AC DUP5 PUSH2 0x1276 JUMP JUMPDEST PUSH2 0x1245 JUMP JUMPDEST SWAP1 POP DUP3 DUP2 MSTORE DUP4 DUP4 DUP4 ADD GT ISZERO PUSH2 0x12C5 JUMPI PUSH1 0x0 DUP1 REVERT JUMPDEST DUP3 DUP3 PUSH1 0x20 DUP4 ADD CALLDATACOPY PUSH1 0x0 PUSH1 0x20 DUP5 DUP4 ADD ADD MSTORE SWAP4 SWAP3 POP POP POP JUMP JUMPDEST PUSH1 0x0 PUSH1 0x20 DUP3 DUP5 SUB SLT ISZERO PUSH2 0x12EE JUMPI PUSH1 0x0 DUP1 REVERT JUMPDEST DUP2 CALLDATALOAD PUSH8 0xFFFFFFFFFFFFFFFF DUP2 GT ISZERO PUSH2 0x1305 JUMPI PUSH1 0x0 DUP1 REVERT JUMPDEST DUP3 ADD PUSH1 0x1F DUP2 ADD DUP5 SGT PUSH2 0x1316 JUMPI PUSH1 0x0 DUP1 REVERT JUMPDEST PUSH2 0x1325 DUP5 DUP3 CALLDATALOAD PUSH1 0x20 DUP5 ADD PUSH2 0x129E JUMP JUMPDEST SWAP5 SWAP4 POP POP POP POP JUMP JUMPDEST PUSH1 0xFF DUP2 AND DUP2 EQ PUSH2 0x1169 JUMPI PUSH1 0x0 DUP1 REVERT JUMPDEST DUP1 CALLDATALOAD PUSH2 0x1177 DUP2 PUSH2 0x132D JUMP JUMPDEST PUSH1 0x0 DUP3 PUSH1 0x1F DUP4 ADD SLT PUSH2 0x1358 JUMPI PUSH1 0x0 DUP1 REVERT JUMPDEST PUSH2 0x114D DUP4 DUP4 CALLDATALOAD PUSH1 0x20 DUP6 ADD PUSH2 0x129E JUMP JUMPDEST PUSH1 0x0 PUSH1 0x20 DUP3 DUP5 SUB SLT ISZERO PUSH2 0x1379 JUMPI PUSH1 0x0 DUP1 REVERT JUMPDEST DUP2 CALLDATALOAD PUSH8 0xFFFFFFFFFFFFFFFF DUP1 DUP3 GT ISZERO PUSH2 0x1391 JUMPI PUSH1 0x0 DUP1 REVERT JUMPDEST SWAP1 DUP4 ADD SWAP1 PUSH1 0xE0 DUP3 DUP7 SUB SLT ISZERO PUSH2 0x13A5 JUMPI PUSH1 0x0 DUP1 REVERT JUMPDEST PUSH2 0x13AD PUSH2 0x121C JUMP JUMPDEST PUSH2 0x13B6 DUP4 PUSH2 0x116C JUMP JUMPDEST DUP2 MSTORE PUSH2 0x13C4 PUSH1 0x20 DUP5 ADD PUSH2 0x116C JUMP JUMPDEST PUSH1 0x20 DUP3 ADD MSTORE PUSH2 0x13D5 PUSH1 0x40 DUP5 ADD PUSH2 0x133C JUMP JUMPDEST PUSH1 0x40 DUP3 ADD MSTORE PUSH1 0x60 DUP4 ADD CALLDATALOAD PUSH1 0x60 DUP3 ADD MSTORE PUSH1 0x80 DUP4 ADD CALLDATALOAD PUSH1 0x80 DUP3 ADD MSTORE PUSH1 0xA0 DUP4 ADD CALLDATALOAD DUP3 DUP2 GT ISZERO PUSH2 0x1400 JUMPI PUSH1 0x0 DUP1 REVERT JUMPDEST PUSH2 0x140C DUP8 DUP3 DUP7 ADD PUSH2 0x1347 JUMP JUMPDEST PUSH1 0xA0 DUP4 ADD MSTORE POP PUSH1 0xC0 DUP4 ADD CALLDATALOAD DUP3 DUP2 GT ISZERO PUSH2 0x1424 JUMPI PUSH1 0x0 DUP1 REVERT JUMPDEST PUSH2 0x1430 DUP8 DUP3 DUP7 ADD PUSH2 0x1347 JUMP JUMPDEST PUSH1 0xC0 DUP4 ADD MSTORE POP SWAP6 SWAP5 POP POP POP POP POP JUMP JUMPDEST PUSH1 0x0 DUP1 PUSH1 0x40 DUP4 DUP6 SUB SLT ISZERO PUSH2 0x1452 JUMPI PUSH1 0x0 DUP1 REVERT JUMPDEST DUP3 CALLDATALOAD PUSH2 0x145D DUP2 PUSH2 0x1154 JUMP JUMPDEST SWAP2 POP PUSH1 0x20 DUP4 ADD CALLDATALOAD PUSH2 0x146D DUP2 PUSH2 0x1154 JUMP JUMPDEST DUP1 SWAP2 POP POP SWAP3 POP SWAP3 SWAP1 POP JUMP JUMPDEST PUSH1 0x1 DUP2 DUP2 SHR SWAP1 DUP3 AND DUP1 PUSH2 0x148C JUMPI PUSH1 0x7F DUP3 AND SWAP2 POP JUMPDEST PUSH1 0x20 DUP3 LT DUP2 SUB PUSH2 0x14AC JUMPI PUSH4 0x4E487B71 PUSH1 0xE0 SHL PUSH1 0x0 MSTORE PUSH1 0x22 PUSH1 0x4 MSTORE PUSH1 0x24 PUSH1 0x0 REVERT JUMPDEST POP SWAP2 SWAP1 POP JUMP JUMPDEST PUSH1 0x20 DUP1 DUP3 MSTORE PUSH1 0x25 SWAP1 DUP3 ADD MSTORE PUSH32 0x4E6F6E5472616E7366657261626C6545524332303A206E6F7420696E69746961 PUSH1 0x40 DUP3 ADD MSTORE PUSH5 0x1B1A5E9959 PUSH1 0xDA SHL PUSH1 0x60 DUP3 ADD MSTORE PUSH1 0x80 ADD SWAP1 JUMP JUMPDEST PUSH1 0x20 DUP1 DUP3 MSTORE PUSH1 0x29 SWAP1 DUP3 ADD MSTORE PUSH32 0x4E6F6E5472616E7366657261626C6545524332303A206F6E6C79206973737565 PUSH1 0x40 DUP3 ADD MSTORE PUSH9 0x1C88185B1B1BDDD959 PUSH1 0xBA SHL PUSH1 0x60 DUP3 ADD MSTORE PUSH1 0x80 ADD SWAP1 JUMP JUMPDEST PUSH1 0x0 PUSH1 0x20 DUP3 DUP5 SUB SLT ISZERO PUSH2 0x1552 JUMPI PUSH1 0x0 DUP1 REVERT JUMPDEST DUP2 MLOAD DUP1 ISZERO ISZERO DUP2 EQ PUSH2 0x114D JUMPI PUSH1 0x0 DUP1 REVERT JUMPDEST DUP1 MLOAD PUSH2 0x1177 DUP2 PUSH2 0x1154 JUMP JUMPDEST DUP1 MLOAD PUSH2 0x1177 DUP2 PUSH2 0x132D JUMP JUMPDEST PUSH1 0x0 DUP3 PUSH1 0x1F DUP4 ADD SLT PUSH2 0x1589 JUMPI PUSH1 0x0 DUP1 REVERT JUMPDEST DUP2 MLOAD PUSH2 0x1597 PUSH2 0x12AC DUP3 PUSH2 0x1276 JUMP JUMPDEST DUP2 DUP2 MSTORE DUP5 PUSH1 0x20 DUP4 DUP7 ADD ADD GT ISZERO PUSH2 0x15AC JUMPI PUSH1 0x0 DUP1 REVERT JUMPDEST PUSH2 0x1325 DUP3 PUSH1 0x20 DUP4 ADD PUSH1 0x20 DUP8 ADD PUSH2 0x10EA JUMP JUMPDEST PUSH1 0x0 PUSH1 0x20 DUP3 DUP5 SUB SLT ISZERO PUSH2 0x15CF JUMPI PUSH1 0x0 DUP1 REVERT JUMPDEST DUP2 MLOAD PUSH8 0xFFFFFFFFFFFFFFFF DUP1 DUP3 GT ISZERO PUSH2 0x15E7 JUMPI PUSH1 0x0 DUP1 REVERT JUMPDEST SWAP1 DUP4 ADD SWAP1 PUSH1 0xE0 DUP3 DUP7 SUB SLT ISZERO PUSH2 0x15FB JUMPI PUSH1 0x0 DUP1 REVERT JUMPDEST PUSH2 0x1603 PUSH2 0x121C JUMP JUMPDEST PUSH2 0x160C DUP4 PUSH2 0x1562 JUMP JUMPDEST DUP2 MSTORE PUSH2 0x161A PUSH1 0x20 DUP5 ADD PUSH2 0x1562 JUMP JUMPDEST PUSH1 0x20 DUP3 ADD MSTORE PUSH2 0x162B PUSH1 0x40 DUP5 ADD PUSH2 0x156D JUMP JUMPDEST PUSH1 0x40 DUP3 ADD MSTORE PUSH1 0x60 DUP4 ADD MLOAD PUSH1 0x60 DUP3 ADD MSTORE PUSH1 0x80 DUP4 ADD MLOAD PUSH1 0x80 DUP3 ADD MSTORE PUSH1 0xA0 DUP4 ADD MLOAD DUP3 DUP2 GT ISZERO PUSH2 0x1656 JUMPI PUSH1 0x0 DUP1 REVERT JUMPDEST PUSH2 0x1662 DUP8 DUP3 DUP7 ADD PUSH2 0x1578 JUMP JUMPDEST PUSH1 0xA0 DUP4 ADD MSTORE POP PUSH1 0xC0 DUP4 ADD MLOAD DUP3 DUP2 GT ISZERO PUSH2 0x167A JUMPI PUSH1 0x0 DUP1 REVERT JUMPDEST PUSH2 0x1430 DUP8 DUP3 DUP7 ADD PUSH2 0x1578 JUMP JUMPDEST PUSH1 0x1F DUP3 GT ISZERO PUSH2 0xEA3 JUMPI PUSH1 0x0 DUP2 PUSH1 0x0 MSTORE PUSH1 0x20 PUSH1 0x0 KECCAK256 PUSH1 0x1F DUP6 ADD PUSH1 0x5 SHR DUP2 ADD PUSH1 0x20 DUP7 LT ISZERO PUSH2 0x16AF JUMPI POP DUP1 JUMPDEST PUSH1 0x1F DUP6 ADD PUSH1 0x5 SHR DUP3 ADD SWAP2 POP JUMPDEST DUP2 DUP2 LT ISZERO PUSH2 0x16CE JUMPI DUP3 DUP2 SSTORE PUSH1 0x1 ADD PUSH2 0x16BB JUMP JUMPDEST POP POP POP POP POP POP JUMP JUMPDEST DUP2 MLOAD PUSH8 0xFFFFFFFFFFFFFFFF DUP2 GT ISZERO PUSH2 0x16F0 JUMPI PUSH2 0x16F0 PUSH2 0x1206 JUMP JUMPDEST PUSH2 0x1704 DUP2 PUSH2 0x16FE DUP5 SLOAD PUSH2 0x1478 JUMP JUMPDEST DUP5 PUSH2 0x1686 JUMP JUMPDEST PUSH1 0x20 DUP1 PUSH1 0x1F DUP4 GT PUSH1 0x1 DUP2 EQ PUSH2 0x1739 JUMPI PUSH1 0x0 DUP5 ISZERO PUSH2 0x1721 JUMPI POP DUP6 DUP4 ADD MLOAD JUMPDEST PUSH1 0x0 NOT PUSH1 0x3 DUP7 SWAP1 SHL SHR NOT AND PUSH1 0x1 DUP6 SWAP1 SHL OR DUP6 SSTORE PUSH2 0x16CE JUMP JUMPDEST PUSH1 0x0 DUP6 DUP2 MSTORE PUSH1 0x20 DUP2 KECCAK256 PUSH1 0x1F NOT DUP7 AND SWAP2 JUMPDEST DUP3 DUP2 LT ISZERO PUSH2 0x1768 JUMPI DUP9 DUP7 ADD MLOAD DUP3 SSTORE SWAP5 DUP5 ADD SWAP5 PUSH1 0x1 SWAP1 SWAP2 ADD SWAP1 DUP5 ADD PUSH2 0x1749 JUMP JUMPDEST POP DUP6 DUP3 LT ISZERO PUSH2 0x1786 JUMPI DUP8 DUP6 ADD MLOAD PUSH1 0x0 NOT PUSH1 0x3 DUP9 SWAP1 SHL PUSH1 0xF8 AND SHR NOT AND DUP2 SSTORE JUMPDEST POP POP POP POP POP PUSH1 0x1 SWAP1 DUP2 SHL ADD SWAP1 SSTORE POP JUMP JUMPDEST PUSH1 0x20 DUP2 MSTORE PUSH1 0x0 PUSH1 0x1 DUP1 PUSH1 0xA0 SHL SUB DUP1 DUP5 MLOAD AND PUSH1 0x20 DUP5 ADD MSTORE DUP1 PUSH1 0x20 DUP6 ADD MLOAD AND PUSH1 0x40 DUP5 ADD MSTORE POP PUSH1 0xFF PUSH1 0x40 DUP5 ADD MLOAD AND PUSH1 0x60 DUP4 ADD MSTORE PUSH1 0x60 DUP4 ADD MLOAD PUSH1 0x80 DUP4 ADD MSTORE PUSH1 0x80 DUP4 ADD MLOAD PUSH1 0xA0 DUP4 ADD MSTORE PUSH1 0xA0 DUP4 ADD MLOAD PUSH1 0xE0 PUSH1 0xC0 DUP5 ADD MSTORE PUSH2 0x17F4 PUSH2 0x100 DUP5 ADD DUP3 PUSH2 0x110E JUMP JUMPDEST SWAP1 POP PUSH1 0xC0 DUP5 ADD MLOAD PUSH1 0x1F NOT DUP5 DUP4 SUB ADD PUSH1 0xE0 DUP6 ADD MSTORE PUSH2 0x1811 DUP3 DUP3 PUSH2 0x110E JUMP JUMPDEST SWAP6 SWAP5 POP POP POP POP POP JUMP JUMPDEST DUP1 DUP3 ADD DUP1 DUP3 GT ISZERO PUSH2 0xD15 JUMPI PUSH4 0x4E487B71 PUSH1 0xE0 SHL PUSH1 0x0 MSTORE PUSH1 0x11 PUSH1 0x4 MSTORE PUSH1 0x24 PUSH1 0x0 REVERT INVALID LOG2 PUSH5 0x6970667358 0x22 SLT KECCAK256 0xE1 0xC5 PUSH3 0x64A0B1 PUSH5 0x5202B5DE64 0x22 0xAC 0x29 0xED SSTORE MUL 0xB9 GASLIMIT ISZERO EXTCODECOPY 0xFC SUB PUSH19 0x28BB60D19DD8364736F6C6343000818003300 "},"methodIdentifiers":{"addHook(address)":"7b4e04e8","allowance(address,address)":"dd62ed3e","approve(address,uint256)":"095ea7b3","assetFactory()":"c3acb4d1","assetRegistry()":"979d7e86","balanceOf(address)":"70a08231","decimals()":"313ce567","encodeInitData((address,address,uint8,uint256,uint256,string,string))":"5e7a9005","hook()":"7f5a7c7b","init(bytes)":"4ddf47d4","issuer()":"1d143848","mint(address,uint256)":"40c10f19","name()":"06fdde03","originAddress()":"e517fedd","originChainId()":"0ac7f561","removeHook()":"378f17ff","revoke(address,uint256)":"eac449d9","symbol()":"95d89b41","totalSupply()":"18160ddd","transfer(address,uint256)":"a9059cbb","transferFrom(address,address,uint256)":"23b872dd","upgrade(address)":"0900f010","upgraded()":"c28de2cd"}}}}}