{"contracts/libraries/LibWorldV2Storage.sol":{"LibWorldV2Storage":{"abi":[{"inputs":[],"name":"WorldStorageSlot","outputs":[{"internalType":"bytes32","name":"","type":"bytes32"}],"stateMutability":"view","type":"function"}],"evm":{"bytecode":{"linkReferences":{},"object":"60a6610038600b82828239805160001a607314602b57634e487b7160e01b600052600060045260246000fd5b30600052607381538281f3fe730000000000000000000000000000000000000000301460806040526004361060335760003560e01c80638b5ffcd2146038575b600080fd5b605e7f56d7bc8c87dcf17af82d688c532aeaaf98988789f376198bffdb298b88a9593181565b60405190815260200160405180910390f3fea26469706673582212209859877f60e045c2d3fb4d28bb1984ba191d8ecc735ad9c76cfb2eb99ac7f26e64736f6c63430008180033","opcodes":"PUSH1 0xA6 PUSH2 0x38 PUSH1 0xB DUP3 DUP3 DUP3 CODECOPY DUP1 MLOAD PUSH1 0x0 BYTE PUSH1 0x73 EQ PUSH1 0x2B JUMPI PUSH4 0x4E487B71 PUSH1 0xE0 SHL PUSH1 0x0 MSTORE PUSH1 0x0 PUSH1 0x4 MSTORE PUSH1 0x24 PUSH1 0x0 REVERT JUMPDEST ADDRESS PUSH1 0x0 MSTORE PUSH1 0x73 DUP2 MSTORE8 DUP3 DUP2 RETURN INVALID PUSH20 0x0 ADDRESS EQ PUSH1 0x80 PUSH1 0x40 MSTORE PUSH1 0x4 CALLDATASIZE LT PUSH1 0x33 JUMPI PUSH1 0x0 CALLDATALOAD PUSH1 0xE0 SHR DUP1 PUSH4 0x8B5FFCD2 EQ PUSH1 0x38 JUMPI JUMPDEST PUSH1 0x0 DUP1 REVERT JUMPDEST PUSH1 0x5E PUSH32 0x56D7BC8C87DCF17AF82D688C532AEAAF98988789F376198BFFDB298B88A95931 DUP2 JUMP JUMPDEST PUSH1 0x40 MLOAD SWAP1 DUP2 MSTORE PUSH1 0x20 ADD PUSH1 0x40 MLOAD DUP1 SWAP2 SUB SWAP1 RETURN INVALID LOG2 PUSH5 0x6970667358 0x22 SLT KECCAK256 SWAP9 MSIZE DUP8 PUSH32 0x60E045C2D3FB4D28BB1984BA191D8ECC735AD9C76CFB2EB99AC7F26E64736F6C PUSH4 0x43000818 STOP CALLER "},"methodIdentifiers":{"WorldStorageSlot()":"8b5ffcd2"}}}}}