{"contracts/world/v0.2/WorldV2.sol":{"WorldV2":{"abi":[{"inputs":[{"components":[{"internalType":"address","name":"worldFactory","type":"address"},{"internalType":"address","name":"worldRegistry","type":"address"},{"internalType":"address","name":"companyRegistry","type":"address"},{"internalType":"address","name":"avatarRegistry","type":"address"}],"internalType":"struct WorldConstructorArgs","name":"args","type":"tuple"}],"stateMutability":"nonpayable","type":"constructor"},{"inputs":[],"name":"ReentrancyGuardReentrantCall","type":"error"},{"anonymous":false,"inputs":[{"indexed":true,"internalType":"address","name":"avatar","type":"address"},{"indexed":true,"internalType":"address","name":"experience","type":"address"}],"name":"AvatarRegistered","type":"event"},{"anonymous":false,"inputs":[{"indexed":true,"internalType":"address","name":"company","type":"address"},{"components":[{"internalType":"string","name":"x","type":"string"},{"internalType":"string","name":"y","type":"string"},{"internalType":"string","name":"z","type":"string"},{"internalType":"uint256","name":"t","type":"uint256"},{"internalType":"uint256","name":"p","type":"uint256"},{"internalType":"uint256","name":"p_sub","type":"uint256"}],"indexed":false,"internalType":"struct VectorAddress","name":"vector","type":"tuple"},{"indexed":false,"internalType":"string","name":"name","type":"string"}],"name":"CompanyRegistered","type":"event"},{"anonymous":false,"inputs":[{"indexed":true,"internalType":"address","name":"sender","type":"address"},{"indexed":false,"internalType":"uint256","name":"value","type":"uint256"}],"name":"ReceivedFunds","type":"event"},{"anonymous":false,"inputs":[{"indexed":true,"internalType":"address","name":"signer","type":"address"}],"name":"SignerAdded","type":"event"},{"anonymous":false,"inputs":[{"indexed":true,"internalType":"address","name":"signer","type":"address"}],"name":"SignerRemoved","type":"event"},{"anonymous":false,"inputs":[],"name":"WorldHookRemoved","type":"event"},{"anonymous":false,"inputs":[{"indexed":true,"internalType":"address","name":"hook","type":"address"}],"name":"WorldHookSet","type":"event"},{"anonymous":false,"inputs":[{"indexed":true,"internalType":"address","name":"oldWorld","type":"address"},{"indexed":true,"internalType":"address","name":"newWorld","type":"address"}],"name":"WorldUpgraded","type":"event"},{"inputs":[{"internalType":"address[]","name":"signers","type":"address[]"}],"name":"addSigners","outputs":[],"stateMutability":"nonpayable","type":"function"},{"inputs":[],"name":"avatarRegistry","outputs":[{"internalType":"contract IAvatarRegistry","name":"","type":"address"}],"stateMutability":"view","type":"function"},{"inputs":[],"name":"companyRegistry","outputs":[{"internalType":"contract ICompanyRegistry","name":"","type":"address"}],"stateMutability":"view","type":"function"},{"inputs":[],"name":"getBaseVector","outputs":[{"components":[{"internalType":"string","name":"x","type":"string"},{"internalType":"string","name":"y","type":"string"},{"internalType":"string","name":"z","type":"string"},{"internalType":"uint256","name":"t","type":"uint256"},{"internalType":"uint256","name":"p","type":"uint256"},{"internalType":"uint256","name":"p_sub","type":"uint256"}],"internalType":"struct VectorAddress","name":"","type":"tuple"}],"stateMutability":"view","type":"function"},{"inputs":[],"name":"getName","outputs":[{"internalType":"string","name":"","type":"string"}],"stateMutability":"view","type":"function"},{"inputs":[],"name":"getOwner","outputs":[{"internalType":"address","name":"","type":"address"}],"stateMutability":"view","type":"function"},{"inputs":[],"name":"hook","outputs":[{"internalType":"contract IWorldHook","name":"","type":"address"}],"stateMutability":"view","type":"function"},{"inputs":[{"components":[{"internalType":"address","name":"owner","type":"address"},{"internalType":"address","name":"oldWorld","type":"address"},{"components":[{"internalType":"string","name":"x","type":"string"},{"internalType":"string","name":"y","type":"string"},{"internalType":"string","name":"z","type":"string"},{"internalType":"uint256","name":"t","type":"uint256"},{"internalType":"uint256","name":"p","type":"uint256"},{"internalType":"uint256","name":"p_sub","type":"uint256"}],"internalType":"struct VectorAddress","name":"baseVector","type":"tuple"},{"internalType":"string","name":"name","type":"string"},{"internalType":"bytes","name":"initData","type":"bytes"}],"internalType":"struct WorldCreateRequest","name":"request","type":"tuple"}],"name":"init","outputs":[],"stateMutability":"nonpayable","type":"function"},{"inputs":[{"internalType":"address","name":"signer","type":"address"}],"name":"isSigner","outputs":[{"internalType":"bool","name":"","type":"bool"}],"stateMutability":"view","type":"function"},{"inputs":[{"components":[{"internalType":"bool","name":"sendTokensToAvatarOwner","type":"bool"},{"internalType":"address","name":"avatarOwner","type":"address"},{"internalType":"address","name":"defaultExperience","type":"address"},{"internalType":"string","name":"username","type":"string"},{"internalType":"bytes","name":"initData","type":"bytes"}],"internalType":"struct AvatarRegistrationRequest","name":"args","type":"tuple"}],"name":"registerAvatar","outputs":[{"internalType":"address","name":"avatar","type":"address"}],"stateMutability":"payable","type":"function"},{"inputs":[{"components":[{"internalType":"bool","name":"sendTokensToCompanyOwner","type":"bool"},{"internalType":"address","name":"owner","type":"address"},{"internalType":"string","name":"name","type":"string"},{"internalType":"bytes","name":"initData","type":"bytes"}],"internalType":"struct CompanyRegistrationArgs","name":"args","type":"tuple"}],"name":"registerCompany","outputs":[{"internalType":"address","name":"company","type":"address"}],"stateMutability":"payable","type":"function"},{"inputs":[],"name":"removeHook","outputs":[],"stateMutability":"nonpayable","type":"function"},{"inputs":[{"internalType":"address[]","name":"signers","type":"address[]"}],"name":"removeSigners","outputs":[],"stateMutability":"nonpayable","type":"function"},{"inputs":[{"internalType":"contract IWorldHook","name":"_hook","type":"address"}],"name":"setHook","outputs":[],"stateMutability":"nonpayable","type":"function"},{"inputs":[{"internalType":"bytes","name":"initData","type":"bytes"}],"name":"upgrade","outputs":[],"stateMutability":"nonpayable","type":"function"},{"inputs":[{"internalType":"address","name":"nextVersion","type":"address"}],"name":"upgradeComplete","outputs":[],"stateMutability":"nonpayable","type":"function"},{"inputs":[],"name":"version","outputs":[{"internalType":"uint256","name":"","type":"uint256"}],"stateMutability":"view","type":"function"},{"inputs":[{"internalType":"uint256","name":"amount","type":"uint256"}],"name":"withdraw","outputs":[],"stateMutability":"nonpayable","type":"function"},{"inputs":[],"name":"worldFactory","outputs":[{"internalType":"address","name":"","type":"address"}],"stateMutability":"view","type":"function"},{"inputs":[],"name":"worldRegistry","outputs":[{"internalType":"contract IWorldRegistryV2","name":"","type":"address"}],"stateMutability":"view","type":"function"},{"stateMutability":"payable","type":"receive"}],"evm":{"bytecode":{"linkReferences":{},"object":"6101006040523480156200001257600080fd5b5060405162002bb038038062002bb083398101604081905262000035916200025a565b600160005580516001600160a01b0316620000ad5760405162461bcd60e51b815260206004820152602d60248201527f576f726c64305f323a20776f726c64466163746f72792063616e6e6f7420626560448201526c207a65726f206164647265737360981b60648201526084015b60405180910390fd5b60208101516001600160a01b0316620001205760405162461bcd60e51b815260206004820152602e60248201527f576f726c64305f323a20776f726c6452656769737472792063616e6e6f74206260448201526d65207a65726f206164647265737360901b6064820152608401620000a4565b60408101516001600160a01b0316620001955760405162461bcd60e51b815260206004820152603060248201527f576f726c64305f323a20636f6d70616e7952656769737472792063616e6e6f7460448201526f206265207a65726f206164647265737360801b6064820152608401620000a4565b60608101516001600160a01b0316620002095760405162461bcd60e51b815260206004820152602f60248201527f576f726c64305f323a2061766174617252656769737472792063616e6e6f742060448201526e6265207a65726f206164647265737360881b6064820152608401620000a4565b60208101516001600160a01b039081166080528151811660a0526040820151811660c0526060909101511660e052620002ee565b80516001600160a01b03811681146200025557600080fd5b919050565b6000608082840312156200026d57600080fd5b604051608081016001600160401b03811182821017156200029e57634e487b7160e01b600052604160045260246000fd5b604052620002ac836200023d565b8152620002bc602084016200023d565b6020820152620002cf604084016200023d565b6040820152620002e2606084016200023d565b60608201529392505050565b60805160a05160c05160e051612857620003596000396000818161041901526114090152600081816103e5015261095201526000818161017601528181610b4701528181610bc60152818161153801526115b70152600081816103b10152610ad701526128576000f3fe6080604052600436106101235760003560e01c806354fd4d50116100a05780638d361e43116100645780638d361e431461037f578063911c2a8c1461039f578063c51aba2b146103d3578063e3d7ad7314610407578063e8906a2d1461043b57600080fd5b806354fd4d50146102b657806361445eb7146102d95780637df73e27146102f95780637f5a7c7b14610329578063893d20e81461035457600080fd5b80632e1a7d4d116100e75780632e1a7d4d1461022c578063378f17ff1461024c578063382af56d146102615780633dfd3873146102835780634d575f3d146102a357600080fd5b80630dc3897d1461016457806317d7de7c146101b55780631c2fbedc146101d757806325394645146101ea5780632663d1f71461020c57600080fd5b3661015f5760405134815233907f5741979df5f3e491501da74d3b0a83dd2496ab1f34929865b3e190a8ad75859a9060200160405180910390a2005b600080fd5b34801561017057600080fd5b506101987f000000000000000000000000000000000000000000000000000000000000000081565b6040516001600160a01b0390911681526020015b60405180910390f35b3480156101c157600080fd5b506101ca61045b565b6040516101ac9190611de9565b6101986101e5366004611f44565b61051e565b3480156101f657600080fd5b5061020a610205366004611ffb565b610a7c565b005b34801561021857600080fd5b5061020a61022736600461206d565b610b45565b34801561023857600080fd5b5061020a61024736600461208a565b610c92565b34801561025857600080fd5b5061020a610d74565b34801561026d57600080fd5b50610276610e12565b6040516101ac9190612116565b34801561028f57600080fd5b5061020a61029e36600461206d565b611062565b6101986102b1366004612129565b6111df565b3480156102c257600080fd5b506102cb600281565b6040519081526020016101ac565b3480156102e557600080fd5b5061020a6102f43660046122a3565b611536565b34801561030557600080fd5b5061031961031436600461206d565b611a1e565b60405190151581526020016101ac565b34801561033557600080fd5b506000805160206127e2833981519152546001600160a01b0316610198565b34801561036057600080fd5b506000805160206127a2833981519152546001600160a01b0316610198565b34801561038b57600080fd5b5061020a61039a36600461233b565b611a4f565b3480156103ab57600080fd5b506101987f000000000000000000000000000000000000000000000000000000000000000081565b3480156103df57600080fd5b506101987f000000000000000000000000000000000000000000000000000000000000000081565b34801561041357600080fd5b506101987f000000000000000000000000000000000000000000000000000000000000000081565b34801561044757600080fd5b5061020a61045636600461233b565b611a9d565b7f56d7bc8c87dcf17af82d688c532aeaaf98988789f376198bffdb298b88a9593a80546060916000805160206127a28339815191529161049a9061239e565b80601f01602080910402602001604051908101604052809291908181526020018280546104c69061239e565b80156105135780601f106104e857610100808354040283529160200191610513565b820191906000526020600020905b8154815290600101906020018083116104f657829003601f168201915b505050505091505090565b6000600080516020612782833981519152610548816000805160206127c283398151915233611aeb565b61056d5760405162461bcd60e51b8152600401610564906123d2565b60405180910390fd5b610575611b18565b60208301516001600160a01b03166105e65760405162461bcd60e51b815260206004820152602e60248201527f576f726c64305f323a20636f6d70616e79206f776e65722063616e6e6f74206260448201526d65207a65726f206164647265737360901b6064820152608401610564565b60008360400151511161064a5760405162461bcd60e51b815260206004820152602660248201527f576f726c64305f323a20636f6d70616e79206e616d652063616e6e6f7420626560448201526520656d70747960d01b6064820152608401610564565b6000805160206127e2833981519152546000805160206127a2833981519152906001600160a01b03161561074e57600281015460405163e76c26f760e01b81526001600160a01b039091169063e76c26f7906106aa90879060040161241e565b6020604051808303816000875af11580156106c9573d6000803e3d6000fd5b505050506040513d601f19601f820116820180604052508101906106ed919061247e565b61074e5760405162461bcd60e51b815260206004820152602c60248201527f576f726c64305f323a20686f6f6b2072656a656374656420636f6d70616e792060448201526b3932b3b4b9ba3930ba34b7b760a11b6064820152608401610564565b80600a016000815461075f9061249b565b9190508190555060006040518060c001604052808360030160000180546107859061239e565b80601f01602080910402602001604051908101604052809291908181526020018280546107b19061239e565b80156107fe5780601f106107d3576101008083540402835291602001916107fe565b820191906000526020600020905b8154815290600101906020018083116107e157829003601f168201915b5050505050815260200183600301600101805461081a9061239e565b80601f01602080910402602001604051908101604052809291908181526020018280546108469061239e565b80156108935780601f1061086857610100808354040283529160200191610893565b820191906000526020600020905b81548152906001019060200180831161087657829003601f168201915b505050505081526020018360030160020180546108af9061239e565b80601f01602080910402602001604051908101604052809291908181526020018280546108db9061239e565b80156109285780601f106108fd57610100808354040283529160200191610928565b820191906000526020600020905b81548152906001019060200180831161090b57829003601f168201915b505050505081526020018360030160030154815260200183600a01548152602001600081525090507f00000000000000000000000000000000000000000000000000000000000000006001600160a01b03166322feaee6346040518060a0016040528089600001511515815260200189602001516001600160a01b031681526020018581526020018960600151815260200189604001518152506040518363ffffffff1660e01b81526004016109de91906124c2565b60206040518083038185885af11580156109fc573d6000803e3d6000fd5b50505050506040513d601f19601f82011682018060405250810190610a219190612538565b9350836001600160a01b03167f3ae5cc94bcf37dd89d282cbe7f9842a176a101aa41ce7af3ed66fa58a2466c62828760400151604051610a62929190612555565b60405180910390a25050610a766001600055565b50919050565b600080516020612782833981519152610aa48160008051602061280283398151915233611aeb565b610ac05760405162461bcd60e51b81526004016105649061257a565b6040516324d733bb60e21b81526001600160a01b037f0000000000000000000000000000000000000000000000000000000000000000169063935cceec90610b0e90869086906004016125c5565b600060405180830381600087803b158015610b2857600080fd5b505af1158015610b3c573d6000803e3d6000fd5b50505050505050565b7f00000000000000000000000000000000000000000000000000000000000000006001600160a01b0316610bbb5760405162461bcd60e51b815260206004820152601e60248201527f576f726c64305f323a20776f726c64466163746f7279206e6f742073657400006044820152606401610564565b336001600160a01b037f00000000000000000000000000000000000000000000000000000000000000001614610c335760405162461bcd60e51b815260206004820152601f60248201527f576f726c64305f323a2063616c6c6572206973206e6f7420666163746f7279006044820152606401610564565b60008051602061278283398151915280546001600160a01b031981166001600160a01b03848116918217845560405192169182907ff1fe458d696ab302f212b76fb0e63c85d19c1bcb4c3e61d3a4470e76d136321890600090a3505050565b600080516020612782833981519152610cba8160008051602061280283398151915233611aeb565b610cd65760405162461bcd60e51b81526004016105649061257a565b47821115610d265760405162461bcd60e51b815260206004820181905260248201527f576f726c64305f323a20616d6f756e7420657863656564732062616c616e63656044820152606401610564565b6000805160206127a283398151915280546040516001600160a01b03909116906108fc8515029085906000818181858888f19350505050158015610d6e573d6000803e3d6000fd5b50505050565b600080516020612782833981519152610d9c8160008051602061280283398151915233611aeb565b610db85760405162461bcd60e51b81526004016105649061257a565b6000805160206127e283398151915280546001600160a01b03191690556040516000805160206127a2833981519152907fd6bb5977e74678fe79d7effa6d93a6e996630cf696c32a815b00fda893b87b5a90600090a15050565b610e4b6040518060c001604052806060815260200160608152602001606081526020016000815260200160008152602001600081525090565b6040805160c081019091527f56d7bc8c87dcf17af82d688c532aeaaf98988789f376198bffdb298b88a9593480546000805160206127a283398151915292919082908290610e989061239e565b80601f0160208091040260200160405190810160405280929190818152602001828054610ec49061239e565b8015610f115780601f10610ee657610100808354040283529160200191610f11565b820191906000526020600020905b815481529060010190602001808311610ef457829003601f168201915b50505050508152602001600182018054610f2a9061239e565b80601f0160208091040260200160405190810160405280929190818152602001828054610f569061239e565b8015610fa35780601f10610f7857610100808354040283529160200191610fa3565b820191906000526020600020905b815481529060010190602001808311610f8657829003601f168201915b50505050508152602001600282018054610fbc9061239e565b80601f0160208091040260200160405190810160405280929190818152602001828054610fe89061239e565b80156110355780601f1061100a57610100808354040283529160200191611035565b820191906000526020600020905b81548152906001019060200180831161101857829003601f168201915b50505050508152602001600382015481526020016004820154815260200160058201548152505091505090565b60008051602061278283398151915261108a8160008051602061280283398151915233611aeb565b6110a65760405162461bcd60e51b81526004016105649061257a565b6001600160a01b03821661110a5760405162461bcd60e51b815260206004820152602560248201527f576f726c64305f323a20686f6f6b2063616e6e6f74206265207a65726f206164604482015264647265737360d81b6064820152608401610564565b6000826001600160a01b03163b116111755760405162461bcd60e51b815260206004820152602860248201527f576f726c64305f323a20686f6f6b2061646472657373206973206e6f7420612060448201526718dbdb9d1c9858dd60c21b6064820152608401610564565b6000805160206127e283398151915280546001600160a01b0319166001600160a01b0384169081179091556040516000805160206127a283398151915291907f2e0d4a0d6b6807573b280bc3dd0c83d52c5115e86a427cc6506e9a040f64b47790600090a2505050565b6000600080516020612782833981519152611209816000805160206127c283398151915233611aeb565b6112255760405162461bcd60e51b8152600401610564906123d2565b61122d611b18565b60208301516001600160a01b031661129d5760405162461bcd60e51b815260206004820152602d60248201527f576f726c64305f323a20617661746172206f776e65722063616e6e6f7420626560448201526c207a65726f206164647265737360981b6064820152608401610564565b6000836060015151116113045760405162461bcd60e51b815260206004820152602960248201527f576f726c64305f323a2061766174617220757365726e616d652063616e6e6f7460448201526820626520656d70747960b81b6064820152608401610564565b6000805160206127e2833981519152546000805160206127a2833981519152906001600160a01b031615611407576002810154604051633e6ff77160e21b81526001600160a01b039091169063f9bfddc4906113649087906004016125f4565b6020604051808303816000875af1158015611383573d6000803e3d6000fd5b505050506040513d601f19601f820116820180604052508101906113a7919061247e565b6114075760405162461bcd60e51b815260206004820152602b60248201527f576f726c64305f323a20686f6f6b2072656a656374656420617661746172207260448201526a32b3b4b9ba3930ba34b7b760a91b6064820152608401610564565b7f00000000000000000000000000000000000000000000000000000000000000006001600160a01b0316634d575f3d346040518060a0016040528088600001511515815260200188602001516001600160a01b0316815260200188604001516001600160a01b031681526020018860600151815260200188608001518152506040518363ffffffff1660e01b81526004016114a291906125f4565b60206040518083038185885af11580156114c0573d6000803e3d6000fd5b50505050506040513d601f19601f820116820180604052508101906114e59190612538565b925083604001516001600160a01b0316836001600160a01b03167f0ada65c939d4c317368a1a88ef5f00697bfe4e748e24d6722c1a0d04c26a4b8660405160405180910390a350610a766001600055565b7f00000000000000000000000000000000000000000000000000000000000000006001600160a01b03166115ac5760405162461bcd60e51b815260206004820152601e60248201527f576f726c64305f323a20776f726c64466163746f7279206e6f742073657400006044820152606401610564565b336001600160a01b037f000000000000000000000000000000000000000000000000000000000000000016146116245760405162461bcd60e51b815260206004820152601f60248201527f576f726c64305f323a2063616c6c6572206973206e6f7420666163746f7279006044820152606401610564565b8051600080516020612782833981519152906001600160a01b031661169a5760405162461bcd60e51b815260206004820152602660248201527f576f726c64305f323a206f776e65722063616e6e6f74206265207a65726f206160448201526564647265737360d01b6064820152608401610564565b604082015151516000036116fe5760405162461bcd60e51b815260206004820152602560248201527f576f726c64305f323a2062617365566563746f722e782063616e6e6f74206265604482015264207a65726f60d81b6064820152608401610564565b816040015160200151516000036117655760405162461bcd60e51b815260206004820152602560248201527f576f726c64305f323a2062617365566563746f722e792063616e6e6f74206265604482015264207a65726f60d81b6064820152608401610564565b816040015160400151516000036117cc5760405162461bcd60e51b815260206004820152602560248201527f576f726c64305f323a2062617365566563746f722e7a2063616e6e6f74206265604482015264207a65726f60d81b6064820152608401610564565b6040820151608001511561182e5760405162461bcd60e51b815260206004820152602360248201527f576f726c64305f323a2062617365566563746f722e70206d757374206265207a60448201526265726f60e81b6064820152608401610564565b604082015160a00151156118945760405162461bcd60e51b815260206004820152602760248201527f576f726c64305f323a2062617365566563746f722e705f737562206d757374206044820152666265207a65726f60c81b6064820152608401610564565b6000826060015151116118e95760405162461bcd60e51b815260206004820152601e60248201527f576f726c64305f323a206e616d652063616e6e6f7420626520656d70747900006044820152606401610564565b81516000805160206127a283398151915280546001600160a01b0319166001600160a01b03909216919091178155604083015180517f56d7bc8c87dcf17af82d688c532aeaaf98988789f376198bffdb298b88a9593490819061194c90826126ab565b506020820151600182019061196190826126ab565b506040820151600282019061197690826126ab565b5060608281015160038301556080830151600483015560a09092015160059091015583015160098201906119aa90826126ab565b506000600a82015560208301516001820180546001600160a01b0319166001600160a01b0392831617905581546119f39184916000805160206128028339815191529116611b42565b8054611a199083906000805160206127c2833981519152906001600160a01b0316611b42565b505050565b6000600080516020612782833981519152611a48816000805160206127c283398151915285611aeb565b9392505050565b600080516020612782833981519152611a778160008051602061280283398151915233611aeb565b611a935760405162461bcd60e51b81526004016105649061257a565b611a198383611b75565b600080516020612782833981519152611ac58160008051602061280283398151915233611aeb565b611ae15760405162461bcd60e51b81526004016105649061257a565b611a198383611c5b565b6000918252600192909201602090815260408083206001600160a01b039094168352929052205460ff1690565b600260005403611b3b57604051633ee5aeb560e01b815260040160405180910390fd5b6002600055565b60009182526001928301602090815260408084206001600160a01b0390931684529190529020805460ff19169091179055565b60008051602061278283398151915260005b82811015610d6e57611bf76000805160206127c2833981519152858584818110611bb357611bb361276b565b9050602002016020810190611bc8919061206d565b600091825260018501602090815260408084206001600160a01b0390931684529190529020805460ff19169055565b838382818110611c0957611c0961276b565b9050602002016020810190611c1e919061206d565b6001600160a01b03167f3525e22824a8a7df2c9a6029941c824cf95b6447f1e13d5128fd3826d35afe8b60405160405180910390a2600101611b87565b60008051602061278283398151915260005b82811015610d6e576000848483818110611c8957611c8961276b565b9050602002016020810190611c9e919061206d565b6001600160a01b031603611cfe5760405162461bcd60e51b815260206004820152602160248201527f4261736550726f78793a207369676e6572206973207a65726f206164647265736044820152607360f81b6064820152608401610564565b611d3f6000805160206127c2833981519152858584818110611d2257611d2261276b565b9050602002016020810190611d37919061206d565b849190611b42565b838382818110611d5157611d5161276b565b9050602002016020810190611d66919061206d565b6001600160a01b03167f47d1c22a25bb3a5d4e481b9b1e6944c2eade3181a0a20b495ed61d35b5323f2460405160405180910390a2600101611c6d565b6000815180845260005b81811015611dc957602081850181015186830182015201611dad565b506000602082860101526020601f19601f83011685010191505092915050565b602081526000611a486020830184611da3565b634e487b7160e01b600052604160045260246000fd5b6040516080810167ffffffffffffffff81118282101715611e3557611e35611dfc565b60405290565b60405160a0810167ffffffffffffffff81118282101715611e3557611e35611dfc565b60405160c0810167ffffffffffffffff81118282101715611e3557611e35611dfc565b8015158114611e8f57600080fd5b50565b6001600160a01b0381168114611e8f57600080fd5b8035611eb281611e92565b919050565b600082601f830112611ec857600080fd5b813567ffffffffffffffff80821115611ee357611ee3611dfc565b604051601f8301601f19908116603f01168101908282118183101715611f0b57611f0b611dfc565b81604052838152866020858801011115611f2457600080fd5b836020870160208301376000602085830101528094505050505092915050565b600060208284031215611f5657600080fd5b813567ffffffffffffffff80821115611f6e57600080fd5b9083019060808286031215611f8257600080fd5b611f8a611e12565b8235611f9581611e81565b81526020830135611fa581611e92565b6020820152604083013582811115611fbc57600080fd5b611fc887828601611eb7565b604083015250606083013582811115611fe057600080fd5b611fec87828601611eb7565b60608301525095945050505050565b6000806020838503121561200e57600080fd5b823567ffffffffffffffff8082111561202657600080fd5b818501915085601f83011261203a57600080fd5b81358181111561204957600080fd5b86602082850101111561205b57600080fd5b60209290920196919550909350505050565b60006020828403121561207f57600080fd5b8135611a4881611e92565b60006020828403121561209c57600080fd5b5035919050565b6000815160c084526120b860c0850182611da3565b9050602083015184820360208601526120d18282611da3565b915050604083015184820360408601526120eb8282611da3565b915050606083015160608501526080830151608085015260a083015160a08501528091505092915050565b602081526000611a4860208301846120a3565b60006020828403121561213b57600080fd5b813567ffffffffffffffff8082111561215357600080fd5b9083019060a0828603121561216757600080fd5b61216f611e3b565b823561217a81611e81565b8152602083013561218a81611e92565b602082015261219b60408401611ea7565b60408201526060830135828111156121b257600080fd5b6121be87828601611eb7565b6060830152506080830135828111156121d657600080fd5b6121e287828601611eb7565b60808301525095945050505050565b600060c0828403121561220357600080fd5b61220b611e5e565b9050813567ffffffffffffffff8082111561222557600080fd5b61223185838601611eb7565b8352602084013591508082111561224757600080fd5b61225385838601611eb7565b6020840152604084013591508082111561226c57600080fd5b5061227984828501611eb7565b604083015250606082013560608201526080820135608082015260a082013560a082015292915050565b6000602082840312156122b557600080fd5b813567ffffffffffffffff808211156122cd57600080fd5b9083019060a082860312156122e157600080fd5b6122e9611e3b565b6122f283611ea7565b815261230060208401611ea7565b602082015260408301358281111561231757600080fd5b612323878286016121f1565b6040830152506060830135828111156121b257600080fd5b6000806020838503121561234e57600080fd5b823567ffffffffffffffff8082111561236657600080fd5b818501915085601f83011261237a57600080fd5b81358181111561238957600080fd5b8660208260051b850101111561205b57600080fd5b600181811c908216806123b257607f821691505b602082108103610a7657634e487b7160e01b600052602260045260246000fd5b6020808252602c908201527f426173654163636573733a2063616c6c657220646f6573206e6f74206861766560408201526b207369676e657220726f6c6560a01b606082015260800190565b6020815281511515602082015260018060a01b036020830151166040820152600060408301516080606084015261245860a0840182611da3565b90506060840151601f198483030160808501526124758282611da3565b95945050505050565b60006020828403121561249057600080fd5b8151611a4881611e81565b6000600182016124bb57634e487b7160e01b600052601160045260246000fd5b5060010190565b6020815281511515602082015260018060a01b0360208301511660408201526000604083015160a060608401526124fc60c08401826120a3565b90506060840151601f198085840301608086015261251a8383611da3565b925060808601519150808584030160a0860152506124758282611da3565b60006020828403121561254a57600080fd5b8151611a4881611e92565b60408152600061256860408301856120a3565b82810360208401526124758185611da3565b6020808252602b908201527f426173654163636573733a2063616c6c657220646f6573206e6f74206861766560408201526a2061646d696e20726f6c6560a81b606082015260800190565b60208152816020820152818360408301376000818301604090810191909152601f909201601f19160101919050565b602081528151151560208201526000602083015160018060a01b0380821660408501528060408601511660608501525050606083015160a0608084015261263e60c0840182611da3565b90506080840151601f198483030160a08501526124758282611da3565b601f821115611a19576000816000526020600020601f850160051c810160208610156126845750805b601f850160051c820191505b818110156126a357828155600101612690565b505050505050565b815167ffffffffffffffff8111156126c5576126c5611dfc565b6126d9816126d3845461239e565b8461265b565b602080601f83116001811461270e57600084156126f65750858301515b600019600386901b1c1916600185901b1785556126a3565b600085815260208120601f198616915b8281101561273d5788860151825594840194600190910190840161271e565b508582101561275b5787850151600019600388901b60f8161c191681555b5050505050600190811b01905550565b634e487b7160e01b600052603260045260246000fdfe69198989339f34e10129e514286bde98979351148754faef989dde18bf6d14da56d7bc8c87dcf17af82d688c532aeaaf98988789f376198bffdb298b88a95931e2f4eaae4a9751e85a3e4a7b9587827a877f29914755229b07a7b2da98285f7056d7bc8c87dcf17af82d688c532aeaaf98988789f376198bffdb298b88a95933a49807205ce4d355092ef5a8a18f56e8913cf4a201fbe287825b095693c21775a264697066735822122002209a88e6e89db513448e98adf1d640494b4dafb21e3fbe7e4d102230e26ac664736f6c63430008180033","opcodes":"PUSH2 0x100 PUSH1 0x40 MSTORE CALLVALUE DUP1 ISZERO PUSH3 0x12 JUMPI PUSH1 0x0 DUP1 REVERT JUMPDEST POP PUSH1 0x40 MLOAD PUSH3 0x2BB0 CODESIZE SUB DUP1 PUSH3 0x2BB0 DUP4 CODECOPY DUP2 ADD PUSH1 0x40 DUP2 SWAP1 MSTORE PUSH3 0x35 SWAP2 PUSH3 0x25A JUMP JUMPDEST PUSH1 0x1 PUSH1 0x0 SSTORE DUP1 MLOAD PUSH1 0x1 PUSH1 0x1 PUSH1 0xA0 SHL SUB AND PUSH3 0xAD JUMPI PUSH1 0x40 MLOAD PUSH3 0x461BCD PUSH1 0xE5 SHL DUP2 MSTORE PUSH1 0x20 PUSH1 0x4 DUP3 ADD MSTORE PUSH1 0x2D PUSH1 0x24 DUP3 ADD MSTORE PUSH32 0x576F726C64305F323A20776F726C64466163746F72792063616E6E6F74206265 PUSH1 0x44 DUP3 ADD MSTORE PUSH13 0x207A65726F2061646472657373 PUSH1 0x98 SHL PUSH1 0x64 DUP3 ADD MSTORE PUSH1 0x84 ADD JUMPDEST PUSH1 0x40 MLOAD DUP1 SWAP2 SUB SWAP1 REVERT JUMPDEST PUSH1 0x20 DUP2 ADD MLOAD PUSH1 0x1 PUSH1 0x1 PUSH1 0xA0 SHL SUB AND PUSH3 0x120 JUMPI PUSH1 0x40 MLOAD PUSH3 0x461BCD PUSH1 0xE5 SHL DUP2 MSTORE PUSH1 0x20 PUSH1 0x4 DUP3 ADD MSTORE PUSH1 0x2E PUSH1 0x24 DUP3 ADD MSTORE PUSH32 0x576F726C64305F323A20776F726C6452656769737472792063616E6E6F742062 PUSH1 0x44 DUP3 ADD MSTORE PUSH14 0x65207A65726F2061646472657373 PUSH1 0x90 SHL PUSH1 0x64 DUP3 ADD MSTORE PUSH1 0x84 ADD PUSH3 0xA4 JUMP JUMPDEST PUSH1 0x40 DUP2 ADD MLOAD PUSH1 0x1 PUSH1 0x1 PUSH1 0xA0 SHL SUB AND PUSH3 0x195 JUMPI PUSH1 0x40 MLOAD PUSH3 0x461BCD PUSH1 0xE5 SHL DUP2 MSTORE PUSH1 0x20 PUSH1 0x4 DUP3 ADD MSTORE PUSH1 0x30 PUSH1 0x24 DUP3 ADD MSTORE PUSH32 0x576F726C64305F323A20636F6D70616E7952656769737472792063616E6E6F74 PUSH1 0x44 DUP3 ADD MSTORE PUSH16 0x206265207A65726F2061646472657373 PUSH1 0x80 SHL PUSH1 0x64 DUP3 ADD MSTORE PUSH1 0x84 ADD PUSH3 0xA4 JUMP JUMPDEST PUSH1 0x60 DUP2 ADD MLOAD PUSH1 0x1 PUSH1 0x1 PUSH1 0xA0 SHL SUB AND PUSH3 0x209 JUMPI PUSH1 0x40 MLOAD PUSH3 0x461BCD PUSH1 0xE5 SHL DUP2 MSTORE PUSH1 0x20 PUSH1 0x4 DUP3 ADD MSTORE PUSH1 0x2F PUSH1 0x24 DUP3 ADD MSTORE PUSH32 0x576F726C64305F323A2061766174617252656769737472792063616E6E6F7420 PUSH1 0x44 DUP3 ADD MSTORE PUSH15 0x6265207A65726F2061646472657373 PUSH1 0x88 SHL PUSH1 0x64 DUP3 ADD MSTORE PUSH1 0x84 ADD PUSH3 0xA4 JUMP JUMPDEST PUSH1 0x20 DUP2 ADD MLOAD PUSH1 0x1 PUSH1 0x1 PUSH1 0xA0 SHL SUB SWAP1 DUP2 AND PUSH1 0x80 MSTORE DUP2 MLOAD DUP2 AND PUSH1 0xA0 MSTORE PUSH1 0x40 DUP3 ADD MLOAD DUP2 AND PUSH1 0xC0 MSTORE PUSH1 0x60 SWAP1 SWAP2 ADD MLOAD AND PUSH1 0xE0 MSTORE PUSH3 0x2EE JUMP JUMPDEST DUP1 MLOAD PUSH1 0x1 PUSH1 0x1 PUSH1 0xA0 SHL SUB DUP2 AND DUP2 EQ PUSH3 0x255 JUMPI PUSH1 0x0 DUP1 REVERT JUMPDEST SWAP2 SWAP1 POP JUMP JUMPDEST PUSH1 0x0 PUSH1 0x80 DUP3 DUP5 SUB SLT ISZERO PUSH3 0x26D JUMPI PUSH1 0x0 DUP1 REVERT JUMPDEST PUSH1 0x40 MLOAD PUSH1 0x80 DUP2 ADD PUSH1 0x1 PUSH1 0x1 PUSH1 0x40 SHL SUB DUP2 GT DUP3 DUP3 LT OR ISZERO PUSH3 0x29E JUMPI PUSH4 0x4E487B71 PUSH1 0xE0 SHL PUSH1 0x0 MSTORE PUSH1 0x41 PUSH1 0x4 MSTORE PUSH1 0x24 PUSH1 0x0 REVERT JUMPDEST PUSH1 0x40 MSTORE PUSH3 0x2AC DUP4 PUSH3 0x23D JUMP JUMPDEST DUP2 MSTORE PUSH3 0x2BC PUSH1 0x20 DUP5 ADD PUSH3 0x23D JUMP JUMPDEST PUSH1 0x20 DUP3 ADD MSTORE PUSH3 0x2CF PUSH1 0x40 DUP5 ADD PUSH3 0x23D JUMP JUMPDEST PUSH1 0x40 DUP3 ADD MSTORE PUSH3 0x2E2 PUSH1 0x60 DUP5 ADD PUSH3 0x23D JUMP JUMPDEST PUSH1 0x60 DUP3 ADD MSTORE SWAP4 SWAP3 POP POP POP JUMP JUMPDEST PUSH1 0x80 MLOAD PUSH1 0xA0 MLOAD PUSH1 0xC0 MLOAD PUSH1 0xE0 MLOAD PUSH2 0x2857 PUSH3 0x359 PUSH1 0x0 CODECOPY PUSH1 0x0 DUP2 DUP2 PUSH2 0x419 ADD MSTORE PUSH2 0x1409 ADD MSTORE PUSH1 0x0 DUP2 DUP2 PUSH2 0x3E5 ADD MSTORE PUSH2 0x952 ADD MSTORE PUSH1 0x0 DUP2 DUP2 PUSH2 0x176 ADD MSTORE DUP2 DUP2 PUSH2 0xB47 ADD MSTORE DUP2 DUP2 PUSH2 0xBC6 ADD MSTORE DUP2 DUP2 PUSH2 0x1538 ADD MSTORE PUSH2 0x15B7 ADD MSTORE PUSH1 0x0 DUP2 DUP2 PUSH2 0x3B1 ADD MSTORE PUSH2 0xAD7 ADD MSTORE PUSH2 0x2857 PUSH1 0x0 RETURN INVALID PUSH1 0x80 PUSH1 0x40 MSTORE PUSH1 0x4 CALLDATASIZE LT PUSH2 0x123 JUMPI PUSH1 0x0 CALLDATALOAD PUSH1 0xE0 SHR DUP1 PUSH4 0x54FD4D50 GT PUSH2 0xA0 JUMPI DUP1 PUSH4 0x8D361E43 GT PUSH2 0x64 JUMPI DUP1 PUSH4 0x8D361E43 EQ PUSH2 0x37F JUMPI DUP1 PUSH4 0x911C2A8C EQ PUSH2 0x39F JUMPI DUP1 PUSH4 0xC51ABA2B EQ PUSH2 0x3D3 JUMPI DUP1 PUSH4 0xE3D7AD73 EQ PUSH2 0x407 JUMPI DUP1 PUSH4 0xE8906A2D EQ PUSH2 0x43B JUMPI PUSH1 0x0 DUP1 REVERT JUMPDEST DUP1 PUSH4 0x54FD4D50 EQ PUSH2 0x2B6 JUMPI DUP1 PUSH4 0x61445EB7 EQ PUSH2 0x2D9 JUMPI DUP1 PUSH4 0x7DF73E27 EQ PUSH2 0x2F9 JUMPI DUP1 PUSH4 0x7F5A7C7B EQ PUSH2 0x329 JUMPI DUP1 PUSH4 0x893D20E8 EQ PUSH2 0x354 JUMPI PUSH1 0x0 DUP1 REVERT JUMPDEST DUP1 PUSH4 0x2E1A7D4D GT PUSH2 0xE7 JUMPI DUP1 PUSH4 0x2E1A7D4D EQ PUSH2 0x22C JUMPI DUP1 PUSH4 0x378F17FF EQ PUSH2 0x24C JUMPI DUP1 PUSH4 0x382AF56D EQ PUSH2 0x261 JUMPI DUP1 PUSH4 0x3DFD3873 EQ PUSH2 0x283 JUMPI DUP1 PUSH4 0x4D575F3D EQ PUSH2 0x2A3 JUMPI PUSH1 0x0 DUP1 REVERT JUMPDEST DUP1 PUSH4 0xDC3897D EQ PUSH2 0x164 JUMPI DUP1 PUSH4 0x17D7DE7C EQ PUSH2 0x1B5 JUMPI DUP1 PUSH4 0x1C2FBEDC EQ PUSH2 0x1D7 JUMPI DUP1 PUSH4 0x25394645 EQ PUSH2 0x1EA JUMPI DUP1 PUSH4 0x2663D1F7 EQ PUSH2 0x20C JUMPI PUSH1 0x0 DUP1 REVERT JUMPDEST CALLDATASIZE PUSH2 0x15F JUMPI PUSH1 0x40 MLOAD CALLVALUE DUP2 MSTORE CALLER SWAP1 PUSH32 0x5741979DF5F3E491501DA74D3B0A83DD2496AB1F34929865B3E190A8AD75859A SWAP1 PUSH1 0x20 ADD PUSH1 0x40 MLOAD DUP1 SWAP2 SUB SWAP1 LOG2 STOP JUMPDEST PUSH1 0x0 DUP1 REVERT JUMPDEST CALLVALUE DUP1 ISZERO PUSH2 0x170 JUMPI PUSH1 0x0 DUP1 REVERT JUMPDEST POP PUSH2 0x198 PUSH32 0x0 DUP2 JUMP JUMPDEST PUSH1 0x40 MLOAD PUSH1 0x1 PUSH1 0x1 PUSH1 0xA0 SHL SUB SWAP1 SWAP2 AND DUP2 MSTORE PUSH1 0x20 ADD JUMPDEST PUSH1 0x40 MLOAD DUP1 SWAP2 SUB SWAP1 RETURN JUMPDEST CALLVALUE DUP1 ISZERO PUSH2 0x1C1 JUMPI PUSH1 0x0 DUP1 REVERT JUMPDEST POP PUSH2 0x1CA PUSH2 0x45B JUMP JUMPDEST PUSH1 0x40 MLOAD PUSH2 0x1AC SWAP2 SWAP1 PUSH2 0x1DE9 JUMP JUMPDEST PUSH2 0x198 PUSH2 0x1E5 CALLDATASIZE PUSH1 0x4 PUSH2 0x1F44 JUMP JUMPDEST PUSH2 0x51E JUMP JUMPDEST CALLVALUE DUP1 ISZERO PUSH2 0x1F6 JUMPI PUSH1 0x0 DUP1 REVERT JUMPDEST POP PUSH2 0x20A PUSH2 0x205 CALLDATASIZE PUSH1 0x4 PUSH2 0x1FFB JUMP JUMPDEST PUSH2 0xA7C JUMP JUMPDEST STOP JUMPDEST CALLVALUE DUP1 ISZERO PUSH2 0x218 JUMPI PUSH1 0x0 DUP1 REVERT JUMPDEST POP PUSH2 0x20A PUSH2 0x227 CALLDATASIZE PUSH1 0x4 PUSH2 0x206D JUMP JUMPDEST PUSH2 0xB45 JUMP JUMPDEST CALLVALUE DUP1 ISZERO PUSH2 0x238 JUMPI PUSH1 0x0 DUP1 REVERT JUMPDEST POP PUSH2 0x20A PUSH2 0x247 CALLDATASIZE PUSH1 0x4 PUSH2 0x208A JUMP JUMPDEST PUSH2 0xC92 JUMP JUMPDEST CALLVALUE DUP1 ISZERO PUSH2 0x258 JUMPI PUSH1 0x0 DUP1 REVERT JUMPDEST POP PUSH2 0x20A PUSH2 0xD74 JUMP JUMPDEST CALLVALUE DUP1 ISZERO PUSH2 0x26D JUMPI PUSH1 0x0 DUP1 REVERT JUMPDEST POP PUSH2 0x276 PUSH2 0xE12 JUMP JUMPDEST PUSH1 0x40 MLOAD PUSH2 0x1AC SWAP2 SWAP1 PUSH2 0x2116 JUMP JUMPDEST CALLVALUE DUP1 ISZERO PUSH2 0x28F JUMPI PUSH1 0x0 DUP1 REVERT JUMPDEST POP PUSH2 0x20A PUSH2 0x29E CALLDATASIZE PUSH1 0x4 PUSH2 0x206D JUMP JUMPDEST PUSH2 0x1062 JUMP JUMPDEST PUSH2 0x198 PUSH2 0x2B1 CALLDATASIZE PUSH1 0x4 PUSH2 0x2129 JUMP JUMPDEST PUSH2 0x11DF JUMP JUMPDEST CALLVALUE DUP1 ISZERO PUSH2 0x2C2 JUMPI PUSH1 0x0 DUP1 REVERT JUMPDEST POP PUSH2 0x2CB PUSH1 0x2 DUP2 JUMP JUMPDEST PUSH1 0x40 MLOAD SWAP1 DUP2 MSTORE PUSH1 0x20 ADD PUSH2 0x1AC JUMP JUMPDEST CALLVALUE DUP1 ISZERO PUSH2 0x2E5 JUMPI PUSH1 0x0 DUP1 REVERT JUMPDEST POP PUSH2 0x20A PUSH2 0x2F4 CALLDATASIZE PUSH1 0x4 PUSH2 0x22A3 JUMP JUMPDEST PUSH2 0x1536 JUMP JUMPDEST CALLVALUE DUP1 ISZERO PUSH2 0x305 JUMPI PUSH1 0x0 DUP1 REVERT JUMPDEST POP PUSH2 0x319 PUSH2 0x314 CALLDATASIZE PUSH1 0x4 PUSH2 0x206D JUMP JUMPDEST PUSH2 0x1A1E JUMP JUMPDEST PUSH1 0x40 MLOAD SWAP1 ISZERO ISZERO DUP2 MSTORE PUSH1 0x20 ADD PUSH2 0x1AC JUMP JUMPDEST CALLVALUE DUP1 ISZERO PUSH2 0x335 JUMPI PUSH1 0x0 DUP1 REVERT JUMPDEST POP PUSH1 0x0 DUP1 MLOAD PUSH1 0x20 PUSH2 0x27E2 DUP4 CODECOPY DUP2 MLOAD SWAP2 MSTORE SLOAD PUSH1 0x1 PUSH1 0x1 PUSH1 0xA0 SHL SUB AND PUSH2 0x198 JUMP JUMPDEST CALLVALUE DUP1 ISZERO PUSH2 0x360 JUMPI PUSH1 0x0 DUP1 REVERT JUMPDEST POP PUSH1 0x0 DUP1 MLOAD PUSH1 0x20 PUSH2 0x27A2 DUP4 CODECOPY DUP2 MLOAD SWAP2 MSTORE SLOAD PUSH1 0x1 PUSH1 0x1 PUSH1 0xA0 SHL SUB AND PUSH2 0x198 JUMP JUMPDEST CALLVALUE DUP1 ISZERO PUSH2 0x38B JUMPI PUSH1 0x0 DUP1 REVERT JUMPDEST POP PUSH2 0x20A PUSH2 0x39A CALLDATASIZE PUSH1 0x4 PUSH2 0x233B JUMP JUMPDEST PUSH2 0x1A4F JUMP JUMPDEST CALLVALUE DUP1 ISZERO PUSH2 0x3AB JUMPI PUSH1 0x0 DUP1 REVERT JUMPDEST POP PUSH2 0x198 PUSH32 0x0 DUP2 JUMP JUMPDEST CALLVALUE DUP1 ISZERO PUSH2 0x3DF JUMPI PUSH1 0x0 DUP1 REVERT JUMPDEST POP PUSH2 0x198 PUSH32 0x0 DUP2 JUMP JUMPDEST CALLVALUE DUP1 ISZERO PUSH2 0x413 JUMPI PUSH1 0x0 DUP1 REVERT JUMPDEST POP PUSH2 0x198 PUSH32 0x0 DUP2 JUMP JUMPDEST CALLVALUE DUP1 ISZERO PUSH2 0x447 JUMPI PUSH1 0x0 DUP1 REVERT JUMPDEST POP PUSH2 0x20A PUSH2 0x456 CALLDATASIZE PUSH1 0x4 PUSH2 0x233B JUMP JUMPDEST PUSH2 0x1A9D JUMP JUMPDEST PUSH32 0x56D7BC8C87DCF17AF82D688C532AEAAF98988789F376198BFFDB298B88A9593A DUP1 SLOAD PUSH1 0x60 SWAP2 PUSH1 0x0 DUP1 MLOAD PUSH1 0x20 PUSH2 0x27A2 DUP4 CODECOPY DUP2 MLOAD SWAP2 MSTORE SWAP2 PUSH2 0x49A SWAP1 PUSH2 0x239E JUMP JUMPDEST DUP1 PUSH1 0x1F ADD PUSH1 0x20 DUP1 SWAP2 DIV MUL PUSH1 0x20 ADD PUSH1 0x40 MLOAD SWAP1 DUP2 ADD PUSH1 0x40 MSTORE DUP1 SWAP3 SWAP2 SWAP1 DUP2 DUP2 MSTORE PUSH1 0x20 ADD DUP3 DUP1 SLOAD PUSH2 0x4C6 SWAP1 PUSH2 0x239E JUMP JUMPDEST DUP1 ISZERO PUSH2 0x513 JUMPI DUP1 PUSH1 0x1F LT PUSH2 0x4E8 JUMPI PUSH2 0x100 DUP1 DUP4 SLOAD DIV MUL DUP4 MSTORE SWAP2 PUSH1 0x20 ADD SWAP2 PUSH2 0x513 JUMP JUMPDEST DUP3 ADD SWAP2 SWAP1 PUSH1 0x0 MSTORE PUSH1 0x20 PUSH1 0x0 KECCAK256 SWAP1 JUMPDEST DUP2 SLOAD DUP2 MSTORE SWAP1 PUSH1 0x1 ADD SWAP1 PUSH1 0x20 ADD DUP1 DUP4 GT PUSH2 0x4F6 JUMPI DUP3 SWAP1 SUB PUSH1 0x1F AND DUP3 ADD SWAP2 JUMPDEST POP POP POP POP POP SWAP2 POP POP SWAP1 JUMP JUMPDEST PUSH1 0x0 PUSH1 0x0 DUP1 MLOAD PUSH1 0x20 PUSH2 0x2782 DUP4 CODECOPY DUP2 MLOAD SWAP2 MSTORE PUSH2 0x548 DUP2 PUSH1 0x0 DUP1 MLOAD PUSH1 0x20 PUSH2 0x27C2 DUP4 CODECOPY DUP2 MLOAD SWAP2 MSTORE CALLER PUSH2 0x1AEB JUMP JUMPDEST PUSH2 0x56D JUMPI PUSH1 0x40 MLOAD PUSH3 0x461BCD PUSH1 0xE5 SHL DUP2 MSTORE PUSH1 0x4 ADD PUSH2 0x564 SWAP1 PUSH2 0x23D2 JUMP JUMPDEST PUSH1 0x40 MLOAD DUP1 SWAP2 SUB SWAP1 REVERT JUMPDEST PUSH2 0x575 PUSH2 0x1B18 JUMP JUMPDEST PUSH1 0x20 DUP4 ADD MLOAD PUSH1 0x1 PUSH1 0x1 PUSH1 0xA0 SHL SUB AND PUSH2 0x5E6 JUMPI PUSH1 0x40 MLOAD PUSH3 0x461BCD PUSH1 0xE5 SHL DUP2 MSTORE PUSH1 0x20 PUSH1 0x4 DUP3 ADD MSTORE PUSH1 0x2E PUSH1 0x24 DUP3 ADD MSTORE PUSH32 0x576F726C64305F323A20636F6D70616E79206F776E65722063616E6E6F742062 PUSH1 0x44 DUP3 ADD MSTORE PUSH14 0x65207A65726F2061646472657373 PUSH1 0x90 SHL PUSH1 0x64 DUP3 ADD MSTORE PUSH1 0x84 ADD PUSH2 0x564 JUMP JUMPDEST PUSH1 0x0 DUP4 PUSH1 0x40 ADD MLOAD MLOAD GT PUSH2 0x64A JUMPI PUSH1 0x40 MLOAD PUSH3 0x461BCD PUSH1 0xE5 SHL DUP2 MSTORE PUSH1 0x20 PUSH1 0x4 DUP3 ADD MSTORE PUSH1 0x26 PUSH1 0x24 DUP3 ADD MSTORE PUSH32 0x576F726C64305F323A20636F6D70616E79206E616D652063616E6E6F74206265 PUSH1 0x44 DUP3 ADD MSTORE PUSH6 0x20656D707479 PUSH1 0xD0 SHL PUSH1 0x64 DUP3 ADD MSTORE PUSH1 0x84 ADD PUSH2 0x564 JUMP JUMPDEST PUSH1 0x0 DUP1 MLOAD PUSH1 0x20 PUSH2 0x27E2 DUP4 CODECOPY DUP2 MLOAD SWAP2 MSTORE SLOAD PUSH1 0x0 DUP1 MLOAD PUSH1 0x20 PUSH2 0x27A2 DUP4 CODECOPY DUP2 MLOAD SWAP2 MSTORE SWAP1 PUSH1 0x1 PUSH1 0x1 PUSH1 0xA0 SHL SUB AND ISZERO PUSH2 0x74E JUMPI PUSH1 0x2 DUP2 ADD SLOAD PUSH1 0x40 MLOAD PUSH4 0xE76C26F7 PUSH1 0xE0 SHL DUP2 MSTORE PUSH1 0x1 PUSH1 0x1 PUSH1 0xA0 SHL SUB SWAP1 SWAP2 AND SWAP1 PUSH4 0xE76C26F7 SWAP1 PUSH2 0x6AA SWAP1 DUP8 SWAP1 PUSH1 0x4 ADD PUSH2 0x241E JUMP JUMPDEST PUSH1 0x20 PUSH1 0x40 MLOAD DUP1 DUP4 SUB DUP2 PUSH1 0x0 DUP8 GAS CALL ISZERO DUP1 ISZERO PUSH2 0x6C9 JUMPI RETURNDATASIZE PUSH1 0x0 DUP1 RETURNDATACOPY RETURNDATASIZE PUSH1 0x0 REVERT JUMPDEST POP POP POP POP PUSH1 0x40 MLOAD RETURNDATASIZE PUSH1 0x1F NOT PUSH1 0x1F DUP3 ADD AND DUP3 ADD DUP1 PUSH1 0x40 MSTORE POP DUP2 ADD SWAP1 PUSH2 0x6ED SWAP2 SWAP1 PUSH2 0x247E JUMP JUMPDEST PUSH2 0x74E JUMPI PUSH1 0x40 MLOAD PUSH3 0x461BCD PUSH1 0xE5 SHL DUP2 MSTORE PUSH1 0x20 PUSH1 0x4 DUP3 ADD MSTORE PUSH1 0x2C PUSH1 0x24 DUP3 ADD MSTORE PUSH32 0x576F726C64305F323A20686F6F6B2072656A656374656420636F6D70616E7920 PUSH1 0x44 DUP3 ADD MSTORE PUSH12 0x3932B3B4B9BA3930BA34B7B7 PUSH1 0xA1 SHL PUSH1 0x64 DUP3 ADD MSTORE PUSH1 0x84 ADD PUSH2 0x564 JUMP JUMPDEST DUP1 PUSH1 0xA ADD PUSH1 0x0 DUP2 SLOAD PUSH2 0x75F SWAP1 PUSH2 0x249B JUMP JUMPDEST SWAP2 SWAP1 POP DUP2 SWAP1 SSTORE POP PUSH1 0x0 PUSH1 0x40 MLOAD DUP1 PUSH1 0xC0 ADD PUSH1 0x40 MSTORE DUP1 DUP4 PUSH1 0x3 ADD PUSH1 0x0 ADD DUP1 SLOAD PUSH2 0x785 SWAP1 PUSH2 0x239E JUMP JUMPDEST DUP1 PUSH1 0x1F ADD PUSH1 0x20 DUP1 SWAP2 DIV MUL PUSH1 0x20 ADD PUSH1 0x40 MLOAD SWAP1 DUP2 ADD PUSH1 0x40 MSTORE DUP1 SWAP3 SWAP2 SWAP1 DUP2 DUP2 MSTORE PUSH1 0x20 ADD DUP3 DUP1 SLOAD PUSH2 0x7B1 SWAP1 PUSH2 0x239E JUMP JUMPDEST DUP1 ISZERO PUSH2 0x7FE JUMPI DUP1 PUSH1 0x1F LT PUSH2 0x7D3 JUMPI PUSH2 0x100 DUP1 DUP4 SLOAD DIV MUL DUP4 MSTORE SWAP2 PUSH1 0x20 ADD SWAP2 PUSH2 0x7FE JUMP JUMPDEST DUP3 ADD SWAP2 SWAP1 PUSH1 0x0 MSTORE PUSH1 0x20 PUSH1 0x0 KECCAK256 SWAP1 JUMPDEST DUP2 SLOAD DUP2 MSTORE SWAP1 PUSH1 0x1 ADD SWAP1 PUSH1 0x20 ADD DUP1 DUP4 GT PUSH2 0x7E1 JUMPI DUP3 SWAP1 SUB PUSH1 0x1F AND DUP3 ADD SWAP2 JUMPDEST POP POP POP POP POP DUP2 MSTORE PUSH1 0x20 ADD DUP4 PUSH1 0x3 ADD PUSH1 0x1 ADD DUP1 SLOAD PUSH2 0x81A SWAP1 PUSH2 0x239E JUMP JUMPDEST DUP1 PUSH1 0x1F ADD PUSH1 0x20 DUP1 SWAP2 DIV MUL PUSH1 0x20 ADD PUSH1 0x40 MLOAD SWAP1 DUP2 ADD PUSH1 0x40 MSTORE DUP1 SWAP3 SWAP2 SWAP1 DUP2 DUP2 MSTORE PUSH1 0x20 ADD DUP3 DUP1 SLOAD PUSH2 0x846 SWAP1 PUSH2 0x239E JUMP JUMPDEST DUP1 ISZERO PUSH2 0x893 JUMPI DUP1 PUSH1 0x1F LT PUSH2 0x868 JUMPI PUSH2 0x100 DUP1 DUP4 SLOAD DIV MUL DUP4 MSTORE SWAP2 PUSH1 0x20 ADD SWAP2 PUSH2 0x893 JUMP JUMPDEST DUP3 ADD SWAP2 SWAP1 PUSH1 0x0 MSTORE PUSH1 0x20 PUSH1 0x0 KECCAK256 SWAP1 JUMPDEST DUP2 SLOAD DUP2 MSTORE SWAP1 PUSH1 0x1 ADD SWAP1 PUSH1 0x20 ADD DUP1 DUP4 GT PUSH2 0x876 JUMPI DUP3 SWAP1 SUB PUSH1 0x1F AND DUP3 ADD SWAP2 JUMPDEST POP POP POP POP POP DUP2 MSTORE PUSH1 0x20 ADD DUP4 PUSH1 0x3 ADD PUSH1 0x2 ADD DUP1 SLOAD PUSH2 0x8AF SWAP1 PUSH2 0x239E JUMP JUMPDEST DUP1 PUSH1 0x1F ADD PUSH1 0x20 DUP1 SWAP2 DIV MUL PUSH1 0x20 ADD PUSH1 0x40 MLOAD SWAP1 DUP2 ADD PUSH1 0x40 MSTORE DUP1 SWAP3 SWAP2 SWAP1 DUP2 DUP2 MSTORE PUSH1 0x20 ADD DUP3 DUP1 SLOAD PUSH2 0x8DB SWAP1 PUSH2 0x239E JUMP JUMPDEST DUP1 ISZERO PUSH2 0x928 JUMPI DUP1 PUSH1 0x1F LT PUSH2 0x8FD JUMPI PUSH2 0x100 DUP1 DUP4 SLOAD DIV MUL DUP4 MSTORE SWAP2 PUSH1 0x20 ADD SWAP2 PUSH2 0x928 JUMP JUMPDEST DUP3 ADD SWAP2 SWAP1 PUSH1 0x0 MSTORE PUSH1 0x20 PUSH1 0x0 KECCAK256 SWAP1 JUMPDEST DUP2 SLOAD DUP2 MSTORE SWAP1 PUSH1 0x1 ADD SWAP1 PUSH1 0x20 ADD DUP1 DUP4 GT PUSH2 0x90B JUMPI DUP3 SWAP1 SUB PUSH1 0x1F AND DUP3 ADD SWAP2 JUMPDEST POP POP POP POP POP DUP2 MSTORE PUSH1 0x20 ADD DUP4 PUSH1 0x3 ADD PUSH1 0x3 ADD SLOAD DUP2 MSTORE PUSH1 0x20 ADD DUP4 PUSH1 0xA ADD SLOAD DUP2 MSTORE PUSH1 0x20 ADD PUSH1 0x0 DUP2 MSTORE POP SWAP1 POP PUSH32 0x0 PUSH1 0x1 PUSH1 0x1 PUSH1 0xA0 SHL SUB AND PUSH4 0x22FEAEE6 CALLVALUE PUSH1 0x40 MLOAD DUP1 PUSH1 0xA0 ADD PUSH1 0x40 MSTORE DUP1 DUP10 PUSH1 0x0 ADD MLOAD ISZERO ISZERO DUP2 MSTORE PUSH1 0x20 ADD DUP10 PUSH1 0x20 ADD MLOAD PUSH1 0x1 PUSH1 0x1 PUSH1 0xA0 SHL SUB AND DUP2 MSTORE PUSH1 0x20 ADD DUP6 DUP2 MSTORE PUSH1 0x20 ADD DUP10 PUSH1 0x60 ADD MLOAD DUP2 MSTORE PUSH1 0x20 ADD DUP10 PUSH1 0x40 ADD MLOAD DUP2 MSTORE POP PUSH1 0x40 MLOAD DUP4 PUSH4 0xFFFFFFFF AND PUSH1 0xE0 SHL DUP2 MSTORE PUSH1 0x4 ADD PUSH2 0x9DE SWAP2 SWAP1 PUSH2 0x24C2 JUMP JUMPDEST PUSH1 0x20 PUSH1 0x40 MLOAD DUP1 DUP4 SUB DUP2 DUP6 DUP9 GAS CALL ISZERO DUP1 ISZERO PUSH2 0x9FC JUMPI RETURNDATASIZE PUSH1 0x0 DUP1 RETURNDATACOPY RETURNDATASIZE PUSH1 0x0 REVERT JUMPDEST POP POP POP POP POP PUSH1 0x40 MLOAD RETURNDATASIZE PUSH1 0x1F NOT PUSH1 0x1F DUP3 ADD AND DUP3 ADD DUP1 PUSH1 0x40 MSTORE POP DUP2 ADD SWAP1 PUSH2 0xA21 SWAP2 SWAP1 PUSH2 0x2538 JUMP JUMPDEST SWAP4 POP DUP4 PUSH1 0x1 PUSH1 0x1 PUSH1 0xA0 SHL SUB AND PUSH32 0x3AE5CC94BCF37DD89D282CBE7F9842A176A101AA41CE7AF3ED66FA58A2466C62 DUP3 DUP8 PUSH1 0x40 ADD MLOAD PUSH1 0x40 MLOAD PUSH2 0xA62 SWAP3 SWAP2 SWAP1 PUSH2 0x2555 JUMP JUMPDEST PUSH1 0x40 MLOAD DUP1 SWAP2 SUB SWAP1 LOG2 POP POP PUSH2 0xA76 PUSH1 0x1 PUSH1 0x0 SSTORE JUMP JUMPDEST POP SWAP2 SWAP1 POP JUMP JUMPDEST PUSH1 0x0 DUP1 MLOAD PUSH1 0x20 PUSH2 0x2782 DUP4 CODECOPY DUP2 MLOAD SWAP2 MSTORE PUSH2 0xAA4 DUP2 PUSH1 0x0 DUP1 MLOAD PUSH1 0x20 PUSH2 0x2802 DUP4 CODECOPY DUP2 MLOAD SWAP2 MSTORE CALLER PUSH2 0x1AEB JUMP JUMPDEST PUSH2 0xAC0 JUMPI PUSH1 0x40 MLOAD PUSH3 0x461BCD PUSH1 0xE5 SHL DUP2 MSTORE PUSH1 0x4 ADD PUSH2 0x564 SWAP1 PUSH2 0x257A JUMP JUMPDEST PUSH1 0x40 MLOAD PUSH4 0x24D733BB PUSH1 0xE2 SHL DUP2 MSTORE PUSH1 0x1 PUSH1 0x1 PUSH1 0xA0 SHL SUB PUSH32 0x0 AND SWAP1 PUSH4 0x935CCEEC SWAP1 PUSH2 0xB0E SWAP1 DUP7 SWAP1 DUP7 SWAP1 PUSH1 0x4 ADD PUSH2 0x25C5 JUMP JUMPDEST PUSH1 0x0 PUSH1 0x40 MLOAD DUP1 DUP4 SUB DUP2 PUSH1 0x0 DUP8 DUP1 EXTCODESIZE ISZERO DUP1 ISZERO PUSH2 0xB28 JUMPI PUSH1 0x0 DUP1 REVERT JUMPDEST POP GAS CALL ISZERO DUP1 ISZERO PUSH2 0xB3C JUMPI RETURNDATASIZE PUSH1 0x0 DUP1 RETURNDATACOPY RETURNDATASIZE PUSH1 0x0 REVERT JUMPDEST POP POP POP POP POP POP POP JUMP JUMPDEST PUSH32 0x0 PUSH1 0x1 PUSH1 0x1 PUSH1 0xA0 SHL SUB AND PUSH2 0xBBB JUMPI PUSH1 0x40 MLOAD PUSH3 0x461BCD PUSH1 0xE5 SHL DUP2 MSTORE PUSH1 0x20 PUSH1 0x4 DUP3 ADD MSTORE PUSH1 0x1E PUSH1 0x24 DUP3 ADD MSTORE PUSH32 0x576F726C64305F323A20776F726C64466163746F7279206E6F74207365740000 PUSH1 0x44 DUP3 ADD MSTORE PUSH1 0x64 ADD PUSH2 0x564 JUMP JUMPDEST CALLER PUSH1 0x1 PUSH1 0x1 PUSH1 0xA0 SHL SUB PUSH32 0x0 AND EQ PUSH2 0xC33 JUMPI PUSH1 0x40 MLOAD PUSH3 0x461BCD PUSH1 0xE5 SHL DUP2 MSTORE PUSH1 0x20 PUSH1 0x4 DUP3 ADD MSTORE PUSH1 0x1F PUSH1 0x24 DUP3 ADD MSTORE PUSH32 0x576F726C64305F323A2063616C6C6572206973206E6F7420666163746F727900 PUSH1 0x44 DUP3 ADD MSTORE PUSH1 0x64 ADD PUSH2 0x564 JUMP JUMPDEST PUSH1 0x0 DUP1 MLOAD PUSH1 0x20 PUSH2 0x2782 DUP4 CODECOPY DUP2 MLOAD SWAP2 MSTORE DUP1 SLOAD PUSH1 0x1 PUSH1 0x1 PUSH1 0xA0 SHL SUB NOT DUP2 AND PUSH1 0x1 PUSH1 0x1 PUSH1 0xA0 SHL SUB DUP5 DUP2 AND SWAP2 DUP3 OR DUP5 SSTORE PUSH1 0x40 MLOAD SWAP3 AND SWAP2 DUP3 SWAP1 PUSH32 0xF1FE458D696AB302F212B76FB0E63C85D19C1BCB4C3E61D3A4470E76D1363218 SWAP1 PUSH1 0x0 SWAP1 LOG3 POP POP POP JUMP JUMPDEST PUSH1 0x0 DUP1 MLOAD PUSH1 0x20 PUSH2 0x2782 DUP4 CODECOPY DUP2 MLOAD SWAP2 MSTORE PUSH2 0xCBA DUP2 PUSH1 0x0 DUP1 MLOAD PUSH1 0x20 PUSH2 0x2802 DUP4 CODECOPY DUP2 MLOAD SWAP2 MSTORE CALLER PUSH2 0x1AEB JUMP JUMPDEST PUSH2 0xCD6 JUMPI PUSH1 0x40 MLOAD PUSH3 0x461BCD PUSH1 0xE5 SHL DUP2 MSTORE PUSH1 0x4 ADD PUSH2 0x564 SWAP1 PUSH2 0x257A JUMP JUMPDEST SELFBALANCE DUP3 GT ISZERO PUSH2 0xD26 JUMPI PUSH1 0x40 MLOAD PUSH3 0x461BCD PUSH1 0xE5 SHL DUP2 MSTORE PUSH1 0x20 PUSH1 0x4 DUP3 ADD DUP2 SWAP1 MSTORE PUSH1 0x24 DUP3 ADD MSTORE PUSH32 0x576F726C64305F323A20616D6F756E7420657863656564732062616C616E6365 PUSH1 0x44 DUP3 ADD MSTORE PUSH1 0x64 ADD PUSH2 0x564 JUMP JUMPDEST PUSH1 0x0 DUP1 MLOAD PUSH1 0x20 PUSH2 0x27A2 DUP4 CODECOPY DUP2 MLOAD SWAP2 MSTORE DUP1 SLOAD PUSH1 0x40 MLOAD PUSH1 0x1 PUSH1 0x1 PUSH1 0xA0 SHL SUB SWAP1 SWAP2 AND SWAP1 PUSH2 0x8FC DUP6 ISZERO MUL SWAP1 DUP6 SWAP1 PUSH1 0x0 DUP2 DUP2 DUP2 DUP6 DUP9 DUP9 CALL SWAP4 POP POP POP POP ISZERO DUP1 ISZERO PUSH2 0xD6E JUMPI RETURNDATASIZE PUSH1 0x0 DUP1 RETURNDATACOPY RETURNDATASIZE PUSH1 0x0 REVERT JUMPDEST POP POP POP POP JUMP JUMPDEST PUSH1 0x0 DUP1 MLOAD PUSH1 0x20 PUSH2 0x2782 DUP4 CODECOPY DUP2 MLOAD SWAP2 MSTORE PUSH2 0xD9C DUP2 PUSH1 0x0 DUP1 MLOAD PUSH1 0x20 PUSH2 0x2802 DUP4 CODECOPY DUP2 MLOAD SWAP2 MSTORE CALLER PUSH2 0x1AEB JUMP JUMPDEST PUSH2 0xDB8 JUMPI PUSH1 0x40 MLOAD PUSH3 0x461BCD PUSH1 0xE5 SHL DUP2 MSTORE PUSH1 0x4 ADD PUSH2 0x564 SWAP1 PUSH2 0x257A JUMP JUMPDEST PUSH1 0x0 DUP1 MLOAD PUSH1 0x20 PUSH2 0x27E2 DUP4 CODECOPY DUP2 MLOAD SWAP2 MSTORE DUP1 SLOAD PUSH1 0x1 PUSH1 0x1 PUSH1 0xA0 SHL SUB NOT AND SWAP1 SSTORE PUSH1 0x40 MLOAD PUSH1 0x0 DUP1 MLOAD PUSH1 0x20 PUSH2 0x27A2 DUP4 CODECOPY DUP2 MLOAD SWAP2 MSTORE SWAP1 PUSH32 0xD6BB5977E74678FE79D7EFFA6D93A6E996630CF696C32A815B00FDA893B87B5A SWAP1 PUSH1 0x0 SWAP1 LOG1 POP POP JUMP JUMPDEST PUSH2 0xE4B PUSH1 0x40 MLOAD DUP1 PUSH1 0xC0 ADD PUSH1 0x40 MSTORE DUP1 PUSH1 0x60 DUP2 MSTORE PUSH1 0x20 ADD PUSH1 0x60 DUP2 MSTORE PUSH1 0x20 ADD PUSH1 0x60 DUP2 MSTORE PUSH1 0x20 ADD PUSH1 0x0 DUP2 MSTORE PUSH1 0x20 ADD PUSH1 0x0 DUP2 MSTORE PUSH1 0x20 ADD PUSH1 0x0 DUP2 MSTORE POP SWAP1 JUMP JUMPDEST PUSH1 0x40 DUP1 MLOAD PUSH1 0xC0 DUP2 ADD SWAP1 SWAP2 MSTORE PUSH32 0x56D7BC8C87DCF17AF82D688C532AEAAF98988789F376198BFFDB298B88A95934 DUP1 SLOAD PUSH1 0x0 DUP1 MLOAD PUSH1 0x20 PUSH2 0x27A2 DUP4 CODECOPY DUP2 MLOAD SWAP2 MSTORE SWAP3 SWAP2 SWAP1 DUP3 SWAP1 DUP3 SWAP1 PUSH2 0xE98 SWAP1 PUSH2 0x239E JUMP JUMPDEST DUP1 PUSH1 0x1F ADD PUSH1 0x20 DUP1 SWAP2 DIV MUL PUSH1 0x20 ADD PUSH1 0x40 MLOAD SWAP1 DUP2 ADD PUSH1 0x40 MSTORE DUP1 SWAP3 SWAP2 SWAP1 DUP2 DUP2 MSTORE PUSH1 0x20 ADD DUP3 DUP1 SLOAD PUSH2 0xEC4 SWAP1 PUSH2 0x239E JUMP JUMPDEST DUP1 ISZERO PUSH2 0xF11 JUMPI DUP1 PUSH1 0x1F LT PUSH2 0xEE6 JUMPI PUSH2 0x100 DUP1 DUP4 SLOAD DIV MUL DUP4 MSTORE SWAP2 PUSH1 0x20 ADD SWAP2 PUSH2 0xF11 JUMP JUMPDEST DUP3 ADD SWAP2 SWAP1 PUSH1 0x0 MSTORE PUSH1 0x20 PUSH1 0x0 KECCAK256 SWAP1 JUMPDEST DUP2 SLOAD DUP2 MSTORE SWAP1 PUSH1 0x1 ADD SWAP1 PUSH1 0x20 ADD DUP1 DUP4 GT PUSH2 0xEF4 JUMPI DUP3 SWAP1 SUB PUSH1 0x1F AND DUP3 ADD SWAP2 JUMPDEST POP POP POP POP POP DUP2 MSTORE PUSH1 0x20 ADD PUSH1 0x1 DUP3 ADD DUP1 SLOAD PUSH2 0xF2A SWAP1 PUSH2 0x239E JUMP JUMPDEST DUP1 PUSH1 0x1F ADD PUSH1 0x20 DUP1 SWAP2 DIV MUL PUSH1 0x20 ADD PUSH1 0x40 MLOAD SWAP1 DUP2 ADD PUSH1 0x40 MSTORE DUP1 SWAP3 SWAP2 SWAP1 DUP2 DUP2 MSTORE PUSH1 0x20 ADD DUP3 DUP1 SLOAD PUSH2 0xF56 SWAP1 PUSH2 0x239E JUMP JUMPDEST DUP1 ISZERO PUSH2 0xFA3 JUMPI DUP1 PUSH1 0x1F LT PUSH2 0xF78 JUMPI PUSH2 0x100 DUP1 DUP4 SLOAD DIV MUL DUP4 MSTORE SWAP2 PUSH1 0x20 ADD SWAP2 PUSH2 0xFA3 JUMP JUMPDEST DUP3 ADD SWAP2 SWAP1 PUSH1 0x0 MSTORE PUSH1 0x20 PUSH1 0x0 KECCAK256 SWAP1 JUMPDEST DUP2 SLOAD DUP2 MSTORE SWAP1 PUSH1 0x1 ADD SWAP1 PUSH1 0x20 ADD DUP1 DUP4 GT PUSH2 0xF86 JUMPI DUP3 SWAP1 SUB PUSH1 0x1F AND DUP3 ADD SWAP2 JUMPDEST POP POP POP POP POP DUP2 MSTORE PUSH1 0x20 ADD PUSH1 0x2 DUP3 ADD DUP1 SLOAD PUSH2 0xFBC SWAP1 PUSH2 0x239E JUMP JUMPDEST DUP1 PUSH1 0x1F ADD PUSH1 0x20 DUP1 SWAP2 DIV MUL PUSH1 0x20 ADD PUSH1 0x40 MLOAD SWAP1 DUP2 ADD PUSH1 0x40 MSTORE DUP1 SWAP3 SWAP2 SWAP1 DUP2 DUP2 MSTORE PUSH1 0x20 ADD DUP3 DUP1 SLOAD PUSH2 0xFE8 SWAP1 PUSH2 0x239E JUMP JUMPDEST DUP1 ISZERO PUSH2 0x1035 JUMPI DUP1 PUSH1 0x1F LT PUSH2 0x100A JUMPI PUSH2 0x100 DUP1 DUP4 SLOAD DIV MUL DUP4 MSTORE SWAP2 PUSH1 0x20 ADD SWAP2 PUSH2 0x1035 JUMP JUMPDEST DUP3 ADD SWAP2 SWAP1 PUSH1 0x0 MSTORE PUSH1 0x20 PUSH1 0x0 KECCAK256 SWAP1 JUMPDEST DUP2 SLOAD DUP2 MSTORE SWAP1 PUSH1 0x1 ADD SWAP1 PUSH1 0x20 ADD DUP1 DUP4 GT PUSH2 0x1018 JUMPI DUP3 SWAP1 SUB PUSH1 0x1F AND DUP3 ADD SWAP2 JUMPDEST POP POP POP POP POP DUP2 MSTORE PUSH1 0x20 ADD PUSH1 0x3 DUP3 ADD SLOAD DUP2 MSTORE PUSH1 0x20 ADD PUSH1 0x4 DUP3 ADD SLOAD DUP2 MSTORE PUSH1 0x20 ADD PUSH1 0x5 DUP3 ADD SLOAD DUP2 MSTORE POP POP SWAP2 POP POP SWAP1 JUMP JUMPDEST PUSH1 0x0 DUP1 MLOAD PUSH1 0x20 PUSH2 0x2782 DUP4 CODECOPY DUP2 MLOAD SWAP2 MSTORE PUSH2 0x108A DUP2 PUSH1 0x0 DUP1 MLOAD PUSH1 0x20 PUSH2 0x2802 DUP4 CODECOPY DUP2 MLOAD SWAP2 MSTORE CALLER PUSH2 0x1AEB JUMP JUMPDEST PUSH2 0x10A6 JUMPI PUSH1 0x40 MLOAD PUSH3 0x461BCD PUSH1 0xE5 SHL DUP2 MSTORE PUSH1 0x4 ADD PUSH2 0x564 SWAP1 PUSH2 0x257A JUMP JUMPDEST PUSH1 0x1 PUSH1 0x1 PUSH1 0xA0 SHL SUB DUP3 AND PUSH2 0x110A JUMPI PUSH1 0x40 MLOAD PUSH3 0x461BCD PUSH1 0xE5 SHL DUP2 MSTORE PUSH1 0x20 PUSH1 0x4 DUP3 ADD MSTORE PUSH1 0x25 PUSH1 0x24 DUP3 ADD MSTORE PUSH32 0x576F726C64305F323A20686F6F6B2063616E6E6F74206265207A65726F206164 PUSH1 0x44 DUP3 ADD MSTORE PUSH5 0x6472657373 PUSH1 0xD8 SHL PUSH1 0x64 DUP3 ADD MSTORE PUSH1 0x84 ADD PUSH2 0x564 JUMP JUMPDEST PUSH1 0x0 DUP3 PUSH1 0x1 PUSH1 0x1 PUSH1 0xA0 SHL SUB AND EXTCODESIZE GT PUSH2 0x1175 JUMPI PUSH1 0x40 MLOAD PUSH3 0x461BCD PUSH1 0xE5 SHL DUP2 MSTORE PUSH1 0x20 PUSH1 0x4 DUP3 ADD MSTORE PUSH1 0x28 PUSH1 0x24 DUP3 ADD MSTORE PUSH32 0x576F726C64305F323A20686F6F6B2061646472657373206973206E6F74206120 PUSH1 0x44 DUP3 ADD MSTORE PUSH8 0x18DBDB9D1C9858DD PUSH1 0xC2 SHL PUSH1 0x64 DUP3 ADD MSTORE PUSH1 0x84 ADD PUSH2 0x564 JUMP JUMPDEST PUSH1 0x0 DUP1 MLOAD PUSH1 0x20 PUSH2 0x27E2 DUP4 CODECOPY DUP2 MLOAD SWAP2 MSTORE DUP1 SLOAD PUSH1 0x1 PUSH1 0x1 PUSH1 0xA0 SHL SUB NOT AND PUSH1 0x1 PUSH1 0x1 PUSH1 0xA0 SHL SUB DUP5 AND SWAP1 DUP2 OR SWAP1 SWAP2 SSTORE PUSH1 0x40 MLOAD PUSH1 0x0 DUP1 MLOAD PUSH1 0x20 PUSH2 0x27A2 DUP4 CODECOPY DUP2 MLOAD SWAP2 MSTORE SWAP2 SWAP1 PUSH32 0x2E0D4A0D6B6807573B280BC3DD0C83D52C5115E86A427CC6506E9A040F64B477 SWAP1 PUSH1 0x0 SWAP1 LOG2 POP POP POP JUMP JUMPDEST PUSH1 0x0 PUSH1 0x0 DUP1 MLOAD PUSH1 0x20 PUSH2 0x2782 DUP4 CODECOPY DUP2 MLOAD SWAP2 MSTORE PUSH2 0x1209 DUP2 PUSH1 0x0 DUP1 MLOAD PUSH1 0x20 PUSH2 0x27C2 DUP4 CODECOPY DUP2 MLOAD SWAP2 MSTORE CALLER PUSH2 0x1AEB JUMP JUMPDEST PUSH2 0x1225 JUMPI PUSH1 0x40 MLOAD PUSH3 0x461BCD PUSH1 0xE5 SHL DUP2 MSTORE PUSH1 0x4 ADD PUSH2 0x564 SWAP1 PUSH2 0x23D2 JUMP JUMPDEST PUSH2 0x122D PUSH2 0x1B18 JUMP JUMPDEST PUSH1 0x20 DUP4 ADD MLOAD PUSH1 0x1 PUSH1 0x1 PUSH1 0xA0 SHL SUB AND PUSH2 0x129D JUMPI PUSH1 0x40 MLOAD PUSH3 0x461BCD PUSH1 0xE5 SHL DUP2 MSTORE PUSH1 0x20 PUSH1 0x4 DUP3 ADD MSTORE PUSH1 0x2D PUSH1 0x24 DUP3 ADD MSTORE PUSH32 0x576F726C64305F323A20617661746172206F776E65722063616E6E6F74206265 PUSH1 0x44 DUP3 ADD MSTORE PUSH13 0x207A65726F2061646472657373 PUSH1 0x98 SHL PUSH1 0x64 DUP3 ADD MSTORE PUSH1 0x84 ADD PUSH2 0x564 JUMP JUMPDEST PUSH1 0x0 DUP4 PUSH1 0x60 ADD MLOAD MLOAD GT PUSH2 0x1304 JUMPI PUSH1 0x40 MLOAD PUSH3 0x461BCD PUSH1 0xE5 SHL DUP2 MSTORE PUSH1 0x20 PUSH1 0x4 DUP3 ADD MSTORE PUSH1 0x29 PUSH1 0x24 DUP3 ADD MSTORE PUSH32 0x576F726C64305F323A2061766174617220757365726E616D652063616E6E6F74 PUSH1 0x44 DUP3 ADD MSTORE PUSH9 0x20626520656D707479 PUSH1 0xB8 SHL PUSH1 0x64 DUP3 ADD MSTORE PUSH1 0x84 ADD PUSH2 0x564 JUMP JUMPDEST PUSH1 0x0 DUP1 MLOAD PUSH1 0x20 PUSH2 0x27E2 DUP4 CODECOPY DUP2 MLOAD SWAP2 MSTORE SLOAD PUSH1 0x0 DUP1 MLOAD PUSH1 0x20 PUSH2 0x27A2 DUP4 CODECOPY DUP2 MLOAD SWAP2 MSTORE SWAP1 PUSH1 0x1 PUSH1 0x1 PUSH1 0xA0 SHL SUB AND ISZERO PUSH2 0x1407 JUMPI PUSH1 0x2 DUP2 ADD SLOAD PUSH1 0x40 MLOAD PUSH4 0x3E6FF771 PUSH1 0xE2 SHL DUP2 MSTORE PUSH1 0x1 PUSH1 0x1 PUSH1 0xA0 SHL SUB SWAP1 SWAP2 AND SWAP1 PUSH4 0xF9BFDDC4 SWAP1 PUSH2 0x1364 SWAP1 DUP8 SWAP1 PUSH1 0x4 ADD PUSH2 0x25F4 JUMP JUMPDEST PUSH1 0x20 PUSH1 0x40 MLOAD DUP1 DUP4 SUB DUP2 PUSH1 0x0 DUP8 GAS CALL ISZERO DUP1 ISZERO PUSH2 0x1383 JUMPI RETURNDATASIZE PUSH1 0x0 DUP1 RETURNDATACOPY RETURNDATASIZE PUSH1 0x0 REVERT JUMPDEST POP POP POP POP PUSH1 0x40 MLOAD RETURNDATASIZE PUSH1 0x1F NOT PUSH1 0x1F DUP3 ADD AND DUP3 ADD DUP1 PUSH1 0x40 MSTORE POP DUP2 ADD SWAP1 PUSH2 0x13A7 SWAP2 SWAP1 PUSH2 0x247E JUMP JUMPDEST PUSH2 0x1407 JUMPI PUSH1 0x40 MLOAD PUSH3 0x461BCD PUSH1 0xE5 SHL DUP2 MSTORE PUSH1 0x20 PUSH1 0x4 DUP3 ADD MSTORE PUSH1 0x2B PUSH1 0x24 DUP3 ADD MSTORE PUSH32 0x576F726C64305F323A20686F6F6B2072656A6563746564206176617461722072 PUSH1 0x44 DUP3 ADD MSTORE PUSH11 0x32B3B4B9BA3930BA34B7B7 PUSH1 0xA9 SHL PUSH1 0x64 DUP3 ADD MSTORE PUSH1 0x84 ADD PUSH2 0x564 JUMP JUMPDEST PUSH32 0x0 PUSH1 0x1 PUSH1 0x1 PUSH1 0xA0 SHL SUB AND PUSH4 0x4D575F3D CALLVALUE PUSH1 0x40 MLOAD DUP1 PUSH1 0xA0 ADD PUSH1 0x40 MSTORE DUP1 DUP9 PUSH1 0x0 ADD MLOAD ISZERO ISZERO DUP2 MSTORE PUSH1 0x20 ADD DUP9 PUSH1 0x20 ADD MLOAD PUSH1 0x1 PUSH1 0x1 PUSH1 0xA0 SHL SUB AND DUP2 MSTORE PUSH1 0x20 ADD DUP9 PUSH1 0x40 ADD MLOAD PUSH1 0x1 PUSH1 0x1 PUSH1 0xA0 SHL SUB AND DUP2 MSTORE PUSH1 0x20 ADD DUP9 PUSH1 0x60 ADD MLOAD DUP2 MSTORE PUSH1 0x20 ADD DUP9 PUSH1 0x80 ADD MLOAD DUP2 MSTORE POP PUSH1 0x40 MLOAD DUP4 PUSH4 0xFFFFFFFF AND PUSH1 0xE0 SHL DUP2 MSTORE PUSH1 0x4 ADD PUSH2 0x14A2 SWAP2 SWAP1 PUSH2 0x25F4 JUMP JUMPDEST PUSH1 0x20 PUSH1 0x40 MLOAD DUP1 DUP4 SUB DUP2 DUP6 DUP9 GAS CALL ISZERO DUP1 ISZERO PUSH2 0x14C0 JUMPI RETURNDATASIZE PUSH1 0x0 DUP1 RETURNDATACOPY RETURNDATASIZE PUSH1 0x0 REVERT JUMPDEST POP POP POP POP POP PUSH1 0x40 MLOAD RETURNDATASIZE PUSH1 0x1F NOT PUSH1 0x1F DUP3 ADD AND DUP3 ADD DUP1 PUSH1 0x40 MSTORE POP DUP2 ADD SWAP1 PUSH2 0x14E5 SWAP2 SWAP1 PUSH2 0x2538 JUMP JUMPDEST SWAP3 POP DUP4 PUSH1 0x40 ADD MLOAD PUSH1 0x1 PUSH1 0x1 PUSH1 0xA0 SHL SUB AND DUP4 PUSH1 0x1 PUSH1 0x1 PUSH1 0xA0 SHL SUB AND PUSH32 0xADA65C939D4C317368A1A88EF5F00697BFE4E748E24D6722C1A0D04C26A4B86 PUSH1 0x40 MLOAD PUSH1 0x40 MLOAD DUP1 SWAP2 SUB SWAP1 LOG3 POP PUSH2 0xA76 PUSH1 0x1 PUSH1 0x0 SSTORE JUMP JUMPDEST PUSH32 0x0 PUSH1 0x1 PUSH1 0x1 PUSH1 0xA0 SHL SUB AND PUSH2 0x15AC JUMPI PUSH1 0x40 MLOAD PUSH3 0x461BCD PUSH1 0xE5 SHL DUP2 MSTORE PUSH1 0x20 PUSH1 0x4 DUP3 ADD MSTORE PUSH1 0x1E PUSH1 0x24 DUP3 ADD MSTORE PUSH32 0x576F726C64305F323A20776F726C64466163746F7279206E6F74207365740000 PUSH1 0x44 DUP3 ADD MSTORE PUSH1 0x64 ADD PUSH2 0x564 JUMP JUMPDEST CALLER PUSH1 0x1 PUSH1 0x1 PUSH1 0xA0 SHL SUB PUSH32 0x0 AND EQ PUSH2 0x1624 JUMPI PUSH1 0x40 MLOAD PUSH3 0x461BCD PUSH1 0xE5 SHL DUP2 MSTORE PUSH1 0x20 PUSH1 0x4 DUP3 ADD MSTORE PUSH1 0x1F PUSH1 0x24 DUP3 ADD MSTORE PUSH32 0x576F726C64305F323A2063616C6C6572206973206E6F7420666163746F727900 PUSH1 0x44 DUP3 ADD MSTORE PUSH1 0x64 ADD PUSH2 0x564 JUMP JUMPDEST DUP1 MLOAD PUSH1 0x0 DUP1 MLOAD PUSH1 0x20 PUSH2 0x2782 DUP4 CODECOPY DUP2 MLOAD SWAP2 MSTORE SWAP1 PUSH1 0x1 PUSH1 0x1 PUSH1 0xA0 SHL SUB AND PUSH2 0x169A JUMPI PUSH1 0x40 MLOAD PUSH3 0x461BCD PUSH1 0xE5 SHL DUP2 MSTORE PUSH1 0x20 PUSH1 0x4 DUP3 ADD MSTORE PUSH1 0x26 PUSH1 0x24 DUP3 ADD MSTORE PUSH32 0x576F726C64305F323A206F776E65722063616E6E6F74206265207A65726F2061 PUSH1 0x44 DUP3 ADD MSTORE PUSH6 0x646472657373 PUSH1 0xD0 SHL PUSH1 0x64 DUP3 ADD MSTORE PUSH1 0x84 ADD PUSH2 0x564 JUMP JUMPDEST PUSH1 0x40 DUP3 ADD MLOAD MLOAD MLOAD PUSH1 0x0 SUB PUSH2 0x16FE JUMPI PUSH1 0x40 MLOAD PUSH3 0x461BCD PUSH1 0xE5 SHL DUP2 MSTORE PUSH1 0x20 PUSH1 0x4 DUP3 ADD MSTORE PUSH1 0x25 PUSH1 0x24 DUP3 ADD MSTORE PUSH32 0x576F726C64305F323A2062617365566563746F722E782063616E6E6F74206265 PUSH1 0x44 DUP3 ADD MSTORE PUSH5 0x207A65726F PUSH1 0xD8 SHL PUSH1 0x64 DUP3 ADD MSTORE PUSH1 0x84 ADD PUSH2 0x564 JUMP JUMPDEST DUP2 PUSH1 0x40 ADD MLOAD PUSH1 0x20 ADD MLOAD MLOAD PUSH1 0x0 SUB PUSH2 0x1765 JUMPI PUSH1 0x40 MLOAD PUSH3 0x461BCD PUSH1 0xE5 SHL DUP2 MSTORE PUSH1 0x20 PUSH1 0x4 DUP3 ADD MSTORE PUSH1 0x25 PUSH1 0x24 DUP3 ADD MSTORE PUSH32 0x576F726C64305F323A2062617365566563746F722E792063616E6E6F74206265 PUSH1 0x44 DUP3 ADD MSTORE PUSH5 0x207A65726F PUSH1 0xD8 SHL PUSH1 0x64 DUP3 ADD MSTORE PUSH1 0x84 ADD PUSH2 0x564 JUMP JUMPDEST DUP2 PUSH1 0x40 ADD MLOAD PUSH1 0x40 ADD MLOAD MLOAD PUSH1 0x0 SUB PUSH2 0x17CC JUMPI PUSH1 0x40 MLOAD PUSH3 0x461BCD PUSH1 0xE5 SHL DUP2 MSTORE PUSH1 0x20 PUSH1 0x4 DUP3 ADD MSTORE PUSH1 0x25 PUSH1 0x24 DUP3 ADD MSTORE PUSH32 0x576F726C64305F323A2062617365566563746F722E7A2063616E6E6F74206265 PUSH1 0x44 DUP3 ADD MSTORE PUSH5 0x207A65726F PUSH1 0xD8 SHL PUSH1 0x64 DUP3 ADD MSTORE PUSH1 0x84 ADD PUSH2 0x564 JUMP JUMPDEST PUSH1 0x40 DUP3 ADD MLOAD PUSH1 0x80 ADD MLOAD ISZERO PUSH2 0x182E JUMPI PUSH1 0x40 MLOAD PUSH3 0x461BCD PUSH1 0xE5 SHL DUP2 MSTORE PUSH1 0x20 PUSH1 0x4 DUP3 ADD MSTORE PUSH1 0x23 PUSH1 0x24 DUP3 ADD MSTORE PUSH32 0x576F726C64305F323A2062617365566563746F722E70206D757374206265207A PUSH1 0x44 DUP3 ADD MSTORE PUSH3 0x65726F PUSH1 0xE8 SHL PUSH1 0x64 DUP3 ADD MSTORE PUSH1 0x84 ADD PUSH2 0x564 JUMP JUMPDEST PUSH1 0x40 DUP3 ADD MLOAD PUSH1 0xA0 ADD MLOAD ISZERO PUSH2 0x1894 JUMPI PUSH1 0x40 MLOAD PUSH3 0x461BCD PUSH1 0xE5 SHL DUP2 MSTORE PUSH1 0x20 PUSH1 0x4 DUP3 ADD MSTORE PUSH1 0x27 PUSH1 0x24 DUP3 ADD MSTORE PUSH32 0x576F726C64305F323A2062617365566563746F722E705F737562206D75737420 PUSH1 0x44 DUP3 ADD MSTORE PUSH7 0x6265207A65726F PUSH1 0xC8 SHL PUSH1 0x64 DUP3 ADD MSTORE PUSH1 0x84 ADD PUSH2 0x564 JUMP JUMPDEST PUSH1 0x0 DUP3 PUSH1 0x60 ADD MLOAD MLOAD GT PUSH2 0x18E9 JUMPI PUSH1 0x40 MLOAD PUSH3 0x461BCD PUSH1 0xE5 SHL DUP2 MSTORE PUSH1 0x20 PUSH1 0x4 DUP3 ADD MSTORE PUSH1 0x1E PUSH1 0x24 DUP3 ADD MSTORE PUSH32 0x576F726C64305F323A206E616D652063616E6E6F7420626520656D7074790000 PUSH1 0x44 DUP3 ADD MSTORE PUSH1 0x64 ADD PUSH2 0x564 JUMP JUMPDEST DUP2 MLOAD PUSH1 0x0 DUP1 MLOAD PUSH1 0x20 PUSH2 0x27A2 DUP4 CODECOPY DUP2 MLOAD SWAP2 MSTORE DUP1 SLOAD PUSH1 0x1 PUSH1 0x1 PUSH1 0xA0 SHL SUB NOT AND PUSH1 0x1 PUSH1 0x1 PUSH1 0xA0 SHL SUB SWAP1 SWAP3 AND SWAP2 SWAP1 SWAP2 OR DUP2 SSTORE PUSH1 0x40 DUP4 ADD MLOAD DUP1 MLOAD PUSH32 0x56D7BC8C87DCF17AF82D688C532AEAAF98988789F376198BFFDB298B88A95934 SWAP1 DUP2 SWAP1 PUSH2 0x194C SWAP1 DUP3 PUSH2 0x26AB JUMP JUMPDEST POP PUSH1 0x20 DUP3 ADD MLOAD PUSH1 0x1 DUP3 ADD SWAP1 PUSH2 0x1961 SWAP1 DUP3 PUSH2 0x26AB JUMP JUMPDEST POP PUSH1 0x40 DUP3 ADD MLOAD PUSH1 0x2 DUP3 ADD SWAP1 PUSH2 0x1976 SWAP1 DUP3 PUSH2 0x26AB JUMP JUMPDEST POP PUSH1 0x60 DUP3 DUP2 ADD MLOAD PUSH1 0x3 DUP4 ADD SSTORE PUSH1 0x80 DUP4 ADD MLOAD PUSH1 0x4 DUP4 ADD SSTORE PUSH1 0xA0 SWAP1 SWAP3 ADD MLOAD PUSH1 0x5 SWAP1 SWAP2 ADD SSTORE DUP4 ADD MLOAD PUSH1 0x9 DUP3 ADD SWAP1 PUSH2 0x19AA SWAP1 DUP3 PUSH2 0x26AB JUMP JUMPDEST POP PUSH1 0x0 PUSH1 0xA DUP3 ADD SSTORE PUSH1 0x20 DUP4 ADD MLOAD PUSH1 0x1 DUP3 ADD DUP1 SLOAD PUSH1 0x1 PUSH1 0x1 PUSH1 0xA0 SHL SUB NOT AND PUSH1 0x1 PUSH1 0x1 PUSH1 0xA0 SHL SUB SWAP3 DUP4 AND OR SWAP1 SSTORE DUP2 SLOAD PUSH2 0x19F3 SWAP2 DUP5 SWAP2 PUSH1 0x0 DUP1 MLOAD PUSH1 0x20 PUSH2 0x2802 DUP4 CODECOPY DUP2 MLOAD SWAP2 MSTORE SWAP2 AND PUSH2 0x1B42 JUMP JUMPDEST DUP1 SLOAD PUSH2 0x1A19 SWAP1 DUP4 SWAP1 PUSH1 0x0 DUP1 MLOAD PUSH1 0x20 PUSH2 0x27C2 DUP4 CODECOPY DUP2 MLOAD SWAP2 MSTORE SWAP1 PUSH1 0x1 PUSH1 0x1 PUSH1 0xA0 SHL SUB AND PUSH2 0x1B42 JUMP JUMPDEST POP POP POP JUMP JUMPDEST PUSH1 0x0 PUSH1 0x0 DUP1 MLOAD PUSH1 0x20 PUSH2 0x2782 DUP4 CODECOPY DUP2 MLOAD SWAP2 MSTORE PUSH2 0x1A48 DUP2 PUSH1 0x0 DUP1 MLOAD PUSH1 0x20 PUSH2 0x27C2 DUP4 CODECOPY DUP2 MLOAD SWAP2 MSTORE DUP6 PUSH2 0x1AEB JUMP JUMPDEST SWAP4 SWAP3 POP POP POP JUMP JUMPDEST PUSH1 0x0 DUP1 MLOAD PUSH1 0x20 PUSH2 0x2782 DUP4 CODECOPY DUP2 MLOAD SWAP2 MSTORE PUSH2 0x1A77 DUP2 PUSH1 0x0 DUP1 MLOAD PUSH1 0x20 PUSH2 0x2802 DUP4 CODECOPY DUP2 MLOAD SWAP2 MSTORE CALLER PUSH2 0x1AEB JUMP JUMPDEST PUSH2 0x1A93 JUMPI PUSH1 0x40 MLOAD PUSH3 0x461BCD PUSH1 0xE5 SHL DUP2 MSTORE PUSH1 0x4 ADD PUSH2 0x564 SWAP1 PUSH2 0x257A JUMP JUMPDEST PUSH2 0x1A19 DUP4 DUP4 PUSH2 0x1B75 JUMP JUMPDEST PUSH1 0x0 DUP1 MLOAD PUSH1 0x20 PUSH2 0x2782 DUP4 CODECOPY DUP2 MLOAD SWAP2 MSTORE PUSH2 0x1AC5 DUP2 PUSH1 0x0 DUP1 MLOAD PUSH1 0x20 PUSH2 0x2802 DUP4 CODECOPY DUP2 MLOAD SWAP2 MSTORE CALLER PUSH2 0x1AEB JUMP JUMPDEST PUSH2 0x1AE1 JUMPI PUSH1 0x40 MLOAD PUSH3 0x461BCD PUSH1 0xE5 SHL DUP2 MSTORE PUSH1 0x4 ADD PUSH2 0x564 SWAP1 PUSH2 0x257A JUMP JUMPDEST PUSH2 0x1A19 DUP4 DUP4 PUSH2 0x1C5B JUMP JUMPDEST PUSH1 0x0 SWAP2 DUP3 MSTORE PUSH1 0x1 SWAP3 SWAP1 SWAP3 ADD PUSH1 0x20 SWAP1 DUP2 MSTORE PUSH1 0x40 DUP1 DUP4 KECCAK256 PUSH1 0x1 PUSH1 0x1 PUSH1 0xA0 SHL SUB SWAP1 SWAP5 AND DUP4 MSTORE SWAP3 SWAP1 MSTORE KECCAK256 SLOAD PUSH1 0xFF AND SWAP1 JUMP JUMPDEST PUSH1 0x2 PUSH1 0x0 SLOAD SUB PUSH2 0x1B3B JUMPI PUSH1 0x40 MLOAD PUSH4 0x3EE5AEB5 PUSH1 0xE0 SHL DUP2 MSTORE PUSH1 0x4 ADD PUSH1 0x40 MLOAD DUP1 SWAP2 SUB SWAP1 REVERT JUMPDEST PUSH1 0x2 PUSH1 0x0 SSTORE JUMP JUMPDEST PUSH1 0x0 SWAP2 DUP3 MSTORE PUSH1 0x1 SWAP3 DUP4 ADD PUSH1 0x20 SWAP1 DUP2 MSTORE PUSH1 0x40 DUP1 DUP5 KECCAK256 PUSH1 0x1 PUSH1 0x1 PUSH1 0xA0 SHL SUB SWAP1 SWAP4 AND DUP5 MSTORE SWAP2 SWAP1 MSTORE SWAP1 KECCAK256 DUP1 SLOAD PUSH1 0xFF NOT AND SWAP1 SWAP2 OR SWAP1 SSTORE JUMP JUMPDEST PUSH1 0x0 DUP1 MLOAD PUSH1 0x20 PUSH2 0x2782 DUP4 CODECOPY DUP2 MLOAD SWAP2 MSTORE PUSH1 0x0 JUMPDEST DUP3 DUP2 LT ISZERO PUSH2 0xD6E JUMPI PUSH2 0x1BF7 PUSH1 0x0 DUP1 MLOAD PUSH1 0x20 PUSH2 0x27C2 DUP4 CODECOPY DUP2 MLOAD SWAP2 MSTORE DUP6 DUP6 DUP5 DUP2 DUP2 LT PUSH2 0x1BB3 JUMPI PUSH2 0x1BB3 PUSH2 0x276B JUMP JUMPDEST SWAP1 POP PUSH1 0x20 MUL ADD PUSH1 0x20 DUP2 ADD SWAP1 PUSH2 0x1BC8 SWAP2 SWAP1 PUSH2 0x206D JUMP JUMPDEST PUSH1 0x0 SWAP2 DUP3 MSTORE PUSH1 0x1 DUP6 ADD PUSH1 0x20 SWAP1 DUP2 MSTORE PUSH1 0x40 DUP1 DUP5 KECCAK256 PUSH1 0x1 PUSH1 0x1 PUSH1 0xA0 SHL SUB SWAP1 SWAP4 AND DUP5 MSTORE SWAP2 SWAP1 MSTORE SWAP1 KECCAK256 DUP1 SLOAD PUSH1 0xFF NOT AND SWAP1 SSTORE JUMP JUMPDEST DUP4 DUP4 DUP3 DUP2 DUP2 LT PUSH2 0x1C09 JUMPI PUSH2 0x1C09 PUSH2 0x276B JUMP JUMPDEST SWAP1 POP PUSH1 0x20 MUL ADD PUSH1 0x20 DUP2 ADD SWAP1 PUSH2 0x1C1E SWAP2 SWAP1 PUSH2 0x206D JUMP JUMPDEST PUSH1 0x1 PUSH1 0x1 PUSH1 0xA0 SHL SUB AND PUSH32 0x3525E22824A8A7DF2C9A6029941C824CF95B6447F1E13D5128FD3826D35AFE8B PUSH1 0x40 MLOAD PUSH1 0x40 MLOAD DUP1 SWAP2 SUB SWAP1 LOG2 PUSH1 0x1 ADD PUSH2 0x1B87 JUMP JUMPDEST PUSH1 0x0 DUP1 MLOAD PUSH1 0x20 PUSH2 0x2782 DUP4 CODECOPY DUP2 MLOAD SWAP2 MSTORE PUSH1 0x0 JUMPDEST DUP3 DUP2 LT ISZERO PUSH2 0xD6E JUMPI PUSH1 0x0 DUP5 DUP5 DUP4 DUP2 DUP2 LT PUSH2 0x1C89 JUMPI PUSH2 0x1C89 PUSH2 0x276B JUMP JUMPDEST SWAP1 POP PUSH1 0x20 MUL ADD PUSH1 0x20 DUP2 ADD SWAP1 PUSH2 0x1C9E SWAP2 SWAP1 PUSH2 0x206D JUMP JUMPDEST PUSH1 0x1 PUSH1 0x1 PUSH1 0xA0 SHL SUB AND SUB PUSH2 0x1CFE JUMPI PUSH1 0x40 MLOAD PUSH3 0x461BCD PUSH1 0xE5 SHL DUP2 MSTORE PUSH1 0x20 PUSH1 0x4 DUP3 ADD MSTORE PUSH1 0x21 PUSH1 0x24 DUP3 ADD MSTORE PUSH32 0x4261736550726F78793A207369676E6572206973207A65726F20616464726573 PUSH1 0x44 DUP3 ADD MSTORE PUSH1 0x73 PUSH1 0xF8 SHL PUSH1 0x64 DUP3 ADD MSTORE PUSH1 0x84 ADD PUSH2 0x564 JUMP JUMPDEST PUSH2 0x1D3F PUSH1 0x0 DUP1 MLOAD PUSH1 0x20 PUSH2 0x27C2 DUP4 CODECOPY DUP2 MLOAD SWAP2 MSTORE DUP6 DUP6 DUP5 DUP2 DUP2 LT PUSH2 0x1D22 JUMPI PUSH2 0x1D22 PUSH2 0x276B JUMP JUMPDEST SWAP1 POP PUSH1 0x20 MUL ADD PUSH1 0x20 DUP2 ADD SWAP1 PUSH2 0x1D37 SWAP2 SWAP1 PUSH2 0x206D JUMP JUMPDEST DUP5 SWAP2 SWAP1 PUSH2 0x1B42 JUMP JUMPDEST DUP4 DUP4 DUP3 DUP2 DUP2 LT PUSH2 0x1D51 JUMPI PUSH2 0x1D51 PUSH2 0x276B JUMP JUMPDEST SWAP1 POP PUSH1 0x20 MUL ADD PUSH1 0x20 DUP2 ADD SWAP1 PUSH2 0x1D66 SWAP2 SWAP1 PUSH2 0x206D JUMP JUMPDEST PUSH1 0x1 PUSH1 0x1 PUSH1 0xA0 SHL SUB AND PUSH32 0x47D1C22A25BB3A5D4E481B9B1E6944C2EADE3181A0A20B495ED61D35B5323F24 PUSH1 0x40 MLOAD PUSH1 0x40 MLOAD DUP1 SWAP2 SUB SWAP1 LOG2 PUSH1 0x1 ADD PUSH2 0x1C6D JUMP JUMPDEST PUSH1 0x0 DUP2 MLOAD DUP1 DUP5 MSTORE PUSH1 0x0 JUMPDEST DUP2 DUP2 LT ISZERO PUSH2 0x1DC9 JUMPI PUSH1 0x20 DUP2 DUP6 ADD DUP2 ADD MLOAD DUP7 DUP4 ADD DUP3 ADD MSTORE ADD PUSH2 0x1DAD JUMP JUMPDEST POP PUSH1 0x0 PUSH1 0x20 DUP3 DUP7 ADD ADD MSTORE PUSH1 0x20 PUSH1 0x1F NOT PUSH1 0x1F DUP4 ADD AND DUP6 ADD ADD SWAP2 POP POP SWAP3 SWAP2 POP POP JUMP JUMPDEST PUSH1 0x20 DUP2 MSTORE PUSH1 0x0 PUSH2 0x1A48 PUSH1 0x20 DUP4 ADD DUP5 PUSH2 0x1DA3 JUMP JUMPDEST PUSH4 0x4E487B71 PUSH1 0xE0 SHL PUSH1 0x0 MSTORE PUSH1 0x41 PUSH1 0x4 MSTORE PUSH1 0x24 PUSH1 0x0 REVERT JUMPDEST PUSH1 0x40 MLOAD PUSH1 0x80 DUP2 ADD PUSH8 0xFFFFFFFFFFFFFFFF DUP2 GT DUP3 DUP3 LT OR ISZERO PUSH2 0x1E35 JUMPI PUSH2 0x1E35 PUSH2 0x1DFC JUMP JUMPDEST PUSH1 0x40 MSTORE SWAP1 JUMP JUMPDEST PUSH1 0x40 MLOAD PUSH1 0xA0 DUP2 ADD PUSH8 0xFFFFFFFFFFFFFFFF DUP2 GT DUP3 DUP3 LT OR ISZERO PUSH2 0x1E35 JUMPI PUSH2 0x1E35 PUSH2 0x1DFC JUMP JUMPDEST PUSH1 0x40 MLOAD PUSH1 0xC0 DUP2 ADD PUSH8 0xFFFFFFFFFFFFFFFF DUP2 GT DUP3 DUP3 LT OR ISZERO PUSH2 0x1E35 JUMPI PUSH2 0x1E35 PUSH2 0x1DFC JUMP JUMPDEST DUP1 ISZERO ISZERO DUP2 EQ PUSH2 0x1E8F JUMPI PUSH1 0x0 DUP1 REVERT JUMPDEST POP JUMP JUMPDEST PUSH1 0x1 PUSH1 0x1 PUSH1 0xA0 SHL SUB DUP2 AND DUP2 EQ PUSH2 0x1E8F JUMPI PUSH1 0x0 DUP1 REVERT JUMPDEST DUP1 CALLDATALOAD PUSH2 0x1EB2 DUP2 PUSH2 0x1E92 JUMP JUMPDEST SWAP2 SWAP1 POP JUMP JUMPDEST PUSH1 0x0 DUP3 PUSH1 0x1F DUP4 ADD SLT PUSH2 0x1EC8 JUMPI PUSH1 0x0 DUP1 REVERT JUMPDEST DUP2 CALLDATALOAD PUSH8 0xFFFFFFFFFFFFFFFF DUP1 DUP3 GT ISZERO PUSH2 0x1EE3 JUMPI PUSH2 0x1EE3 PUSH2 0x1DFC JUMP JUMPDEST PUSH1 0x40 MLOAD PUSH1 0x1F DUP4 ADD PUSH1 0x1F NOT SWAP1 DUP2 AND PUSH1 0x3F ADD AND DUP2 ADD SWAP1 DUP3 DUP3 GT DUP2 DUP4 LT OR ISZERO PUSH2 0x1F0B JUMPI PUSH2 0x1F0B PUSH2 0x1DFC JUMP JUMPDEST DUP2 PUSH1 0x40 MSTORE DUP4 DUP2 MSTORE DUP7 PUSH1 0x20 DUP6 DUP9 ADD ADD GT ISZERO PUSH2 0x1F24 JUMPI PUSH1 0x0 DUP1 REVERT JUMPDEST DUP4 PUSH1 0x20 DUP8 ADD PUSH1 0x20 DUP4 ADD CALLDATACOPY PUSH1 0x0 PUSH1 0x20 DUP6 DUP4 ADD ADD MSTORE DUP1 SWAP5 POP POP POP POP POP SWAP3 SWAP2 POP POP JUMP JUMPDEST PUSH1 0x0 PUSH1 0x20 DUP3 DUP5 SUB SLT ISZERO PUSH2 0x1F56 JUMPI PUSH1 0x0 DUP1 REVERT JUMPDEST DUP2 CALLDATALOAD PUSH8 0xFFFFFFFFFFFFFFFF DUP1 DUP3 GT ISZERO PUSH2 0x1F6E JUMPI PUSH1 0x0 DUP1 REVERT JUMPDEST SWAP1 DUP4 ADD SWAP1 PUSH1 0x80 DUP3 DUP7 SUB SLT ISZERO PUSH2 0x1F82 JUMPI PUSH1 0x0 DUP1 REVERT JUMPDEST PUSH2 0x1F8A PUSH2 0x1E12 JUMP JUMPDEST DUP3 CALLDATALOAD PUSH2 0x1F95 DUP2 PUSH2 0x1E81 JUMP JUMPDEST DUP2 MSTORE PUSH1 0x20 DUP4 ADD CALLDATALOAD PUSH2 0x1FA5 DUP2 PUSH2 0x1E92 JUMP JUMPDEST PUSH1 0x20 DUP3 ADD MSTORE PUSH1 0x40 DUP4 ADD CALLDATALOAD DUP3 DUP2 GT ISZERO PUSH2 0x1FBC JUMPI PUSH1 0x0 DUP1 REVERT JUMPDEST PUSH2 0x1FC8 DUP8 DUP3 DUP7 ADD PUSH2 0x1EB7 JUMP JUMPDEST PUSH1 0x40 DUP4 ADD MSTORE POP PUSH1 0x60 DUP4 ADD CALLDATALOAD DUP3 DUP2 GT ISZERO PUSH2 0x1FE0 JUMPI PUSH1 0x0 DUP1 REVERT JUMPDEST PUSH2 0x1FEC DUP8 DUP3 DUP7 ADD PUSH2 0x1EB7 JUMP JUMPDEST PUSH1 0x60 DUP4 ADD MSTORE POP SWAP6 SWAP5 POP POP POP POP POP JUMP JUMPDEST PUSH1 0x0 DUP1 PUSH1 0x20 DUP4 DUP6 SUB SLT ISZERO PUSH2 0x200E JUMPI PUSH1 0x0 DUP1 REVERT JUMPDEST DUP3 CALLDATALOAD PUSH8 0xFFFFFFFFFFFFFFFF DUP1 DUP3 GT ISZERO PUSH2 0x2026 JUMPI PUSH1 0x0 DUP1 REVERT JUMPDEST DUP2 DUP6 ADD SWAP2 POP DUP6 PUSH1 0x1F DUP4 ADD SLT PUSH2 0x203A JUMPI PUSH1 0x0 DUP1 REVERT JUMPDEST DUP2 CALLDATALOAD DUP2 DUP2 GT ISZERO PUSH2 0x2049 JUMPI PUSH1 0x0 DUP1 REVERT JUMPDEST DUP7 PUSH1 0x20 DUP3 DUP6 ADD ADD GT ISZERO PUSH2 0x205B JUMPI PUSH1 0x0 DUP1 REVERT JUMPDEST PUSH1 0x20 SWAP3 SWAP1 SWAP3 ADD SWAP7 SWAP2 SWAP6 POP SWAP1 SWAP4 POP POP POP POP JUMP JUMPDEST PUSH1 0x0 PUSH1 0x20 DUP3 DUP5 SUB SLT ISZERO PUSH2 0x207F JUMPI PUSH1 0x0 DUP1 REVERT JUMPDEST DUP2 CALLDATALOAD PUSH2 0x1A48 DUP2 PUSH2 0x1E92 JUMP JUMPDEST PUSH1 0x0 PUSH1 0x20 DUP3 DUP5 SUB SLT ISZERO PUSH2 0x209C JUMPI PUSH1 0x0 DUP1 REVERT JUMPDEST POP CALLDATALOAD SWAP2 SWAP1 POP JUMP JUMPDEST PUSH1 0x0 DUP2 MLOAD PUSH1 0xC0 DUP5 MSTORE PUSH2 0x20B8 PUSH1 0xC0 DUP6 ADD DUP3 PUSH2 0x1DA3 JUMP JUMPDEST SWAP1 POP PUSH1 0x20 DUP4 ADD MLOAD DUP5 DUP3 SUB PUSH1 0x20 DUP7 ADD MSTORE PUSH2 0x20D1 DUP3 DUP3 PUSH2 0x1DA3 JUMP JUMPDEST SWAP2 POP POP PUSH1 0x40 DUP4 ADD MLOAD DUP5 DUP3 SUB PUSH1 0x40 DUP7 ADD MSTORE PUSH2 0x20EB DUP3 DUP3 PUSH2 0x1DA3 JUMP JUMPDEST SWAP2 POP POP PUSH1 0x60 DUP4 ADD MLOAD PUSH1 0x60 DUP6 ADD MSTORE PUSH1 0x80 DUP4 ADD MLOAD PUSH1 0x80 DUP6 ADD MSTORE PUSH1 0xA0 DUP4 ADD MLOAD PUSH1 0xA0 DUP6 ADD MSTORE DUP1 SWAP2 POP POP SWAP3 SWAP2 POP POP JUMP JUMPDEST PUSH1 0x20 DUP2 MSTORE PUSH1 0x0 PUSH2 0x1A48 PUSH1 0x20 DUP4 ADD DUP5 PUSH2 0x20A3 JUMP JUMPDEST PUSH1 0x0 PUSH1 0x20 DUP3 DUP5 SUB SLT ISZERO PUSH2 0x213B JUMPI PUSH1 0x0 DUP1 REVERT JUMPDEST DUP2 CALLDATALOAD PUSH8 0xFFFFFFFFFFFFFFFF DUP1 DUP3 GT ISZERO PUSH2 0x2153 JUMPI PUSH1 0x0 DUP1 REVERT JUMPDEST SWAP1 DUP4 ADD SWAP1 PUSH1 0xA0 DUP3 DUP7 SUB SLT ISZERO PUSH2 0x2167 JUMPI PUSH1 0x0 DUP1 REVERT JUMPDEST PUSH2 0x216F PUSH2 0x1E3B JUMP JUMPDEST DUP3 CALLDATALOAD PUSH2 0x217A DUP2 PUSH2 0x1E81 JUMP JUMPDEST DUP2 MSTORE PUSH1 0x20 DUP4 ADD CALLDATALOAD PUSH2 0x218A DUP2 PUSH2 0x1E92 JUMP JUMPDEST PUSH1 0x20 DUP3 ADD MSTORE PUSH2 0x219B PUSH1 0x40 DUP5 ADD PUSH2 0x1EA7 JUMP JUMPDEST PUSH1 0x40 DUP3 ADD MSTORE PUSH1 0x60 DUP4 ADD CALLDATALOAD DUP3 DUP2 GT ISZERO PUSH2 0x21B2 JUMPI PUSH1 0x0 DUP1 REVERT JUMPDEST PUSH2 0x21BE DUP8 DUP3 DUP7 ADD PUSH2 0x1EB7 JUMP JUMPDEST PUSH1 0x60 DUP4 ADD MSTORE POP PUSH1 0x80 DUP4 ADD CALLDATALOAD DUP3 DUP2 GT ISZERO PUSH2 0x21D6 JUMPI PUSH1 0x0 DUP1 REVERT JUMPDEST PUSH2 0x21E2 DUP8 DUP3 DUP7 ADD PUSH2 0x1EB7 JUMP JUMPDEST PUSH1 0x80 DUP4 ADD MSTORE POP SWAP6 SWAP5 POP POP POP POP POP JUMP JUMPDEST PUSH1 0x0 PUSH1 0xC0 DUP3 DUP5 SUB SLT ISZERO PUSH2 0x2203 JUMPI PUSH1 0x0 DUP1 REVERT JUMPDEST PUSH2 0x220B PUSH2 0x1E5E JUMP JUMPDEST SWAP1 POP DUP2 CALLDATALOAD PUSH8 0xFFFFFFFFFFFFFFFF DUP1 DUP3 GT ISZERO PUSH2 0x2225 JUMPI PUSH1 0x0 DUP1 REVERT JUMPDEST PUSH2 0x2231 DUP6 DUP4 DUP7 ADD PUSH2 0x1EB7 JUMP JUMPDEST DUP4 MSTORE PUSH1 0x20 DUP5 ADD CALLDATALOAD SWAP2 POP DUP1 DUP3 GT ISZERO PUSH2 0x2247 JUMPI PUSH1 0x0 DUP1 REVERT JUMPDEST PUSH2 0x2253 DUP6 DUP4 DUP7 ADD PUSH2 0x1EB7 JUMP JUMPDEST PUSH1 0x20 DUP5 ADD MSTORE PUSH1 0x40 DUP5 ADD CALLDATALOAD SWAP2 POP DUP1 DUP3 GT ISZERO PUSH2 0x226C JUMPI PUSH1 0x0 DUP1 REVERT JUMPDEST POP PUSH2 0x2279 DUP5 DUP3 DUP6 ADD PUSH2 0x1EB7 JUMP JUMPDEST PUSH1 0x40 DUP4 ADD MSTORE POP PUSH1 0x60 DUP3 ADD CALLDATALOAD PUSH1 0x60 DUP3 ADD MSTORE PUSH1 0x80 DUP3 ADD CALLDATALOAD PUSH1 0x80 DUP3 ADD MSTORE PUSH1 0xA0 DUP3 ADD CALLDATALOAD PUSH1 0xA0 DUP3 ADD MSTORE SWAP3 SWAP2 POP POP JUMP JUMPDEST PUSH1 0x0 PUSH1 0x20 DUP3 DUP5 SUB SLT ISZERO PUSH2 0x22B5 JUMPI PUSH1 0x0 DUP1 REVERT JUMPDEST DUP2 CALLDATALOAD PUSH8 0xFFFFFFFFFFFFFFFF DUP1 DUP3 GT ISZERO PUSH2 0x22CD JUMPI PUSH1 0x0 DUP1 REVERT JUMPDEST SWAP1 DUP4 ADD SWAP1 PUSH1 0xA0 DUP3 DUP7 SUB SLT ISZERO PUSH2 0x22E1 JUMPI PUSH1 0x0 DUP1 REVERT JUMPDEST PUSH2 0x22E9 PUSH2 0x1E3B JUMP JUMPDEST PUSH2 0x22F2 DUP4 PUSH2 0x1EA7 JUMP JUMPDEST DUP2 MSTORE PUSH2 0x2300 PUSH1 0x20 DUP5 ADD PUSH2 0x1EA7 JUMP JUMPDEST PUSH1 0x20 DUP3 ADD MSTORE PUSH1 0x40 DUP4 ADD CALLDATALOAD DUP3 DUP2 GT ISZERO PUSH2 0x2317 JUMPI PUSH1 0x0 DUP1 REVERT JUMPDEST PUSH2 0x2323 DUP8 DUP3 DUP7 ADD PUSH2 0x21F1 JUMP JUMPDEST PUSH1 0x40 DUP4 ADD MSTORE POP PUSH1 0x60 DUP4 ADD CALLDATALOAD DUP3 DUP2 GT ISZERO PUSH2 0x21B2 JUMPI PUSH1 0x0 DUP1 REVERT JUMPDEST PUSH1 0x0 DUP1 PUSH1 0x20 DUP4 DUP6 SUB SLT ISZERO PUSH2 0x234E JUMPI PUSH1 0x0 DUP1 REVERT JUMPDEST DUP3 CALLDATALOAD PUSH8 0xFFFFFFFFFFFFFFFF DUP1 DUP3 GT ISZERO PUSH2 0x2366 JUMPI PUSH1 0x0 DUP1 REVERT JUMPDEST DUP2 DUP6 ADD SWAP2 POP DUP6 PUSH1 0x1F DUP4 ADD SLT PUSH2 0x237A JUMPI PUSH1 0x0 DUP1 REVERT JUMPDEST DUP2 CALLDATALOAD DUP2 DUP2 GT ISZERO PUSH2 0x2389 JUMPI PUSH1 0x0 DUP1 REVERT JUMPDEST DUP7 PUSH1 0x20 DUP3 PUSH1 0x5 SHL DUP6 ADD ADD GT ISZERO PUSH2 0x205B JUMPI PUSH1 0x0 DUP1 REVERT JUMPDEST PUSH1 0x1 DUP2 DUP2 SHR SWAP1 DUP3 AND DUP1 PUSH2 0x23B2 JUMPI PUSH1 0x7F DUP3 AND SWAP2 POP JUMPDEST PUSH1 0x20 DUP3 LT DUP2 SUB PUSH2 0xA76 JUMPI PUSH4 0x4E487B71 PUSH1 0xE0 SHL PUSH1 0x0 MSTORE PUSH1 0x22 PUSH1 0x4 MSTORE PUSH1 0x24 PUSH1 0x0 REVERT JUMPDEST PUSH1 0x20 DUP1 DUP3 MSTORE PUSH1 0x2C SWAP1 DUP3 ADD MSTORE PUSH32 0x426173654163636573733A2063616C6C657220646F6573206E6F742068617665 PUSH1 0x40 DUP3 ADD MSTORE PUSH12 0x207369676E657220726F6C65 PUSH1 0xA0 SHL PUSH1 0x60 DUP3 ADD MSTORE PUSH1 0x80 ADD SWAP1 JUMP JUMPDEST PUSH1 0x20 DUP2 MSTORE DUP2 MLOAD ISZERO ISZERO PUSH1 0x20 DUP3 ADD MSTORE PUSH1 0x1 DUP1 PUSH1 0xA0 SHL SUB PUSH1 0x20 DUP4 ADD MLOAD AND PUSH1 0x40 DUP3 ADD MSTORE PUSH1 0x0 PUSH1 0x40 DUP4 ADD MLOAD PUSH1 0x80 PUSH1 0x60 DUP5 ADD MSTORE PUSH2 0x2458 PUSH1 0xA0 DUP5 ADD DUP3 PUSH2 0x1DA3 JUMP JUMPDEST SWAP1 POP PUSH1 0x60 DUP5 ADD MLOAD PUSH1 0x1F NOT DUP5 DUP4 SUB ADD PUSH1 0x80 DUP6 ADD MSTORE PUSH2 0x2475 DUP3 DUP3 PUSH2 0x1DA3 JUMP JUMPDEST SWAP6 SWAP5 POP POP POP POP POP JUMP JUMPDEST PUSH1 0x0 PUSH1 0x20 DUP3 DUP5 SUB SLT ISZERO PUSH2 0x2490 JUMPI PUSH1 0x0 DUP1 REVERT JUMPDEST DUP2 MLOAD PUSH2 0x1A48 DUP2 PUSH2 0x1E81 JUMP JUMPDEST PUSH1 0x0 PUSH1 0x1 DUP3 ADD PUSH2 0x24BB JUMPI PUSH4 0x4E487B71 PUSH1 0xE0 SHL PUSH1 0x0 MSTORE PUSH1 0x11 PUSH1 0x4 MSTORE PUSH1 0x24 PUSH1 0x0 REVERT JUMPDEST POP PUSH1 0x1 ADD SWAP1 JUMP JUMPDEST PUSH1 0x20 DUP2 MSTORE DUP2 MLOAD ISZERO ISZERO PUSH1 0x20 DUP3 ADD MSTORE PUSH1 0x1 DUP1 PUSH1 0xA0 SHL SUB PUSH1 0x20 DUP4 ADD MLOAD AND PUSH1 0x40 DUP3 ADD MSTORE PUSH1 0x0 PUSH1 0x40 DUP4 ADD MLOAD PUSH1 0xA0 PUSH1 0x60 DUP5 ADD MSTORE PUSH2 0x24FC PUSH1 0xC0 DUP5 ADD DUP3 PUSH2 0x20A3 JUMP JUMPDEST SWAP1 POP PUSH1 0x60 DUP5 ADD MLOAD PUSH1 0x1F NOT DUP1 DUP6 DUP5 SUB ADD PUSH1 0x80 DUP7 ADD MSTORE PUSH2 0x251A DUP4 DUP4 PUSH2 0x1DA3 JUMP JUMPDEST SWAP3 POP PUSH1 0x80 DUP7 ADD MLOAD SWAP2 POP DUP1 DUP6 DUP5 SUB ADD PUSH1 0xA0 DUP7 ADD MSTORE POP PUSH2 0x2475 DUP3 DUP3 PUSH2 0x1DA3 JUMP JUMPDEST PUSH1 0x0 PUSH1 0x20 DUP3 DUP5 SUB SLT ISZERO PUSH2 0x254A JUMPI PUSH1 0x0 DUP1 REVERT JUMPDEST DUP2 MLOAD PUSH2 0x1A48 DUP2 PUSH2 0x1E92 JUMP JUMPDEST PUSH1 0x40 DUP2 MSTORE PUSH1 0x0 PUSH2 0x2568 PUSH1 0x40 DUP4 ADD DUP6 PUSH2 0x20A3 JUMP JUMPDEST DUP3 DUP2 SUB PUSH1 0x20 DUP5 ADD MSTORE PUSH2 0x2475 DUP2 DUP6 PUSH2 0x1DA3 JUMP JUMPDEST PUSH1 0x20 DUP1 DUP3 MSTORE PUSH1 0x2B SWAP1 DUP3 ADD MSTORE PUSH32 0x426173654163636573733A2063616C6C657220646F6573206E6F742068617665 PUSH1 0x40 DUP3 ADD MSTORE PUSH11 0x2061646D696E20726F6C65 PUSH1 0xA8 SHL PUSH1 0x60 DUP3 ADD MSTORE PUSH1 0x80 ADD SWAP1 JUMP JUMPDEST PUSH1 0x20 DUP2 MSTORE DUP2 PUSH1 0x20 DUP3 ADD MSTORE DUP2 DUP4 PUSH1 0x40 DUP4 ADD CALLDATACOPY PUSH1 0x0 DUP2 DUP4 ADD PUSH1 0x40 SWAP1 DUP2 ADD SWAP2 SWAP1 SWAP2 MSTORE PUSH1 0x1F SWAP1 SWAP3 ADD PUSH1 0x1F NOT AND ADD ADD SWAP2 SWAP1 POP JUMP JUMPDEST PUSH1 0x20 DUP2 MSTORE DUP2 MLOAD ISZERO ISZERO PUSH1 0x20 DUP3 ADD MSTORE PUSH1 0x0 PUSH1 0x20 DUP4 ADD MLOAD PUSH1 0x1 DUP1 PUSH1 0xA0 SHL SUB DUP1 DUP3 AND PUSH1 0x40 DUP6 ADD MSTORE DUP1 PUSH1 0x40 DUP7 ADD MLOAD AND PUSH1 0x60 DUP6 ADD MSTORE POP POP PUSH1 0x60 DUP4 ADD MLOAD PUSH1 0xA0 PUSH1 0x80 DUP5 ADD MSTORE PUSH2 0x263E PUSH1 0xC0 DUP5 ADD DUP3 PUSH2 0x1DA3 JUMP JUMPDEST SWAP1 POP PUSH1 0x80 DUP5 ADD MLOAD PUSH1 0x1F NOT DUP5 DUP4 SUB ADD PUSH1 0xA0 DUP6 ADD MSTORE PUSH2 0x2475 DUP3 DUP3 PUSH2 0x1DA3 JUMP JUMPDEST PUSH1 0x1F DUP3 GT ISZERO PUSH2 0x1A19 JUMPI PUSH1 0x0 DUP2 PUSH1 0x0 MSTORE PUSH1 0x20 PUSH1 0x0 KECCAK256 PUSH1 0x1F DUP6 ADD PUSH1 0x5 SHR DUP2 ADD PUSH1 0x20 DUP7 LT ISZERO PUSH2 0x2684 JUMPI POP DUP1 JUMPDEST PUSH1 0x1F DUP6 ADD PUSH1 0x5 SHR DUP3 ADD SWAP2 POP JUMPDEST DUP2 DUP2 LT ISZERO PUSH2 0x26A3 JUMPI DUP3 DUP2 SSTORE PUSH1 0x1 ADD PUSH2 0x2690 JUMP JUMPDEST POP POP POP POP POP POP JUMP JUMPDEST DUP2 MLOAD PUSH8 0xFFFFFFFFFFFFFFFF DUP2 GT ISZERO PUSH2 0x26C5 JUMPI PUSH2 0x26C5 PUSH2 0x1DFC JUMP JUMPDEST PUSH2 0x26D9 DUP2 PUSH2 0x26D3 DUP5 SLOAD PUSH2 0x239E JUMP JUMPDEST DUP5 PUSH2 0x265B JUMP JUMPDEST PUSH1 0x20 DUP1 PUSH1 0x1F DUP4 GT PUSH1 0x1 DUP2 EQ PUSH2 0x270E JUMPI PUSH1 0x0 DUP5 ISZERO PUSH2 0x26F6 JUMPI POP DUP6 DUP4 ADD MLOAD JUMPDEST PUSH1 0x0 NOT PUSH1 0x3 DUP7 SWAP1 SHL SHR NOT AND PUSH1 0x1 DUP6 SWAP1 SHL OR DUP6 SSTORE PUSH2 0x26A3 JUMP JUMPDEST PUSH1 0x0 DUP6 DUP2 MSTORE PUSH1 0x20 DUP2 KECCAK256 PUSH1 0x1F NOT DUP7 AND SWAP2 JUMPDEST DUP3 DUP2 LT ISZERO PUSH2 0x273D JUMPI DUP9 DUP7 ADD MLOAD DUP3 SSTORE SWAP5 DUP5 ADD SWAP5 PUSH1 0x1 SWAP1 SWAP2 ADD SWAP1 DUP5 ADD PUSH2 0x271E JUMP JUMPDEST POP DUP6 DUP3 LT ISZERO PUSH2 0x275B JUMPI DUP8 DUP6 ADD MLOAD PUSH1 0x0 NOT PUSH1 0x3 DUP9 SWAP1 SHL PUSH1 0xF8 AND SHR NOT AND DUP2 SSTORE JUMPDEST POP POP POP POP POP PUSH1 0x1 SWAP1 DUP2 SHL ADD SWAP1 SSTORE POP JUMP JUMPDEST PUSH4 0x4E487B71 PUSH1 0xE0 SHL PUSH1 0x0 MSTORE PUSH1 0x32 PUSH1 0x4 MSTORE PUSH1 0x24 PUSH1 0x0 REVERT INVALID PUSH10 0x198989339F34E10129E5 EQ 0x28 PUSH12 0xDE98979351148754FAEF989D 0xDE XOR 0xBF PUSH14 0x14DA56D7BC8C87DCF17AF82D688C MSTORE8 0x2A 0xEA 0xAF SWAP9 SWAP9 DUP8 DUP10 RETURN PUSH23 0x198BFFDB298B88A95931E2F4EAAE4A9751E85A3E4A7B95 DUP8 DUP3 PUSH27 0x877F29914755229B07A7B2DA98285F7056D7BC8C87DCF17AF82D68 DUP13 MSTORE8 0x2A 0xEA 0xAF SWAP9 SWAP9 DUP8 DUP10 RETURN PUSH23 0x198BFFDB298B88A95933A49807205CE4D355092EF5A8A1 DUP16 JUMP 0xE8 SWAP2 EXTCODECOPY DELEGATECALL LOG2 ADD 0xFB 0xE2 DUP8 DUP3 JUMPDEST MULMOD JUMP SWAP4 0xC2 OR PUSH22 0xA264697066735822122002209A88E6E89DB513448E98 0xAD CALL 0xD6 BLOCKHASH BLOBHASH 0x4B 0x4D 0xAF 0xB2 0x1E EXTCODEHASH 0xBE PUSH31 0x4D102230E26AC664736F6C6343000818003300000000000000000000000000 "},"methodIdentifiers":{"addSigners(address[])":"e8906a2d","avatarRegistry()":"e3d7ad73","companyRegistry()":"c51aba2b","getBaseVector()":"382af56d","getName()":"17d7de7c","getOwner()":"893d20e8","hook()":"7f5a7c7b","init((address,address,(string,string,string,uint256,uint256,uint256),string,bytes))":"61445eb7","isSigner(address)":"7df73e27","registerAvatar((bool,address,address,string,bytes))":"4d575f3d","registerCompany((bool,address,string,bytes))":"1c2fbedc","removeHook()":"378f17ff","removeSigners(address[])":"8d361e43","setHook(address)":"3dfd3873","upgrade(bytes)":"25394645","upgradeComplete(address)":"2663d1f7","version()":"54fd4d50","withdraw(uint256)":"2e1a7d4d","worldFactory()":"0dc3897d","worldRegistry()":"911c2a8c"}}}}}