{"contracts/avatar/Avatar.sol":{"Avatar":{"abi":[{"inputs":[{"components":[{"internalType":"address","name":"avatarFactory","type":"address"},{"internalType":"address","name":"avatarRegistry","type":"address"},{"internalType":"address","name":"experienceRegistry","type":"address"},{"internalType":"address","name":"portalRegistry","type":"address"},{"internalType":"address","name":"companyRegistry","type":"address"},{"internalType":"address","name":"multiAssetRegistry","type":"address"}],"internalType":"struct BaseContructorArgs","name":"args","type":"tuple"}],"stateMutability":"nonpayable","type":"constructor"},{"inputs":[],"name":"ECDSAInvalidSignature","type":"error"},{"inputs":[{"internalType":"uint256","name":"length","type":"uint256"}],"name":"ECDSAInvalidSignatureLength","type":"error"},{"inputs":[{"internalType":"bytes32","name":"s","type":"bytes32"}],"name":"ECDSAInvalidSignatureS","type":"error"},{"inputs":[],"name":"ReentrancyGuardReentrantCall","type":"error"},{"anonymous":false,"inputs":[{"indexed":true,"internalType":"bytes","name":"appearanceDetails","type":"bytes"}],"name":"AppearanceChanged","type":"event"},{"anonymous":false,"inputs":[{"indexed":true,"internalType":"address","name":"oldVersion","type":"address"},{"indexed":true,"internalType":"address","name":"nextVersion","type":"address"}],"name":"AvatarUpgraded","type":"event"},{"anonymous":false,"inputs":[],"name":"HookRemoved","type":"event"},{"anonymous":false,"inputs":[{"indexed":true,"internalType":"address","name":"hook","type":"address"}],"name":"HookSet","type":"event"},{"anonymous":false,"inputs":[{"indexed":true,"internalType":"address","name":"experience","type":"address"},{"indexed":true,"internalType":"uint256","name":"fee","type":"uint256"},{"indexed":true,"internalType":"bytes","name":"connectionDetails","type":"bytes"}],"name":"JumpSuccess","type":"event"},{"anonymous":false,"inputs":[{"indexed":true,"internalType":"address","name":"location","type":"address"}],"name":"LocationChanged","type":"event"},{"anonymous":false,"inputs":[{"indexed":true,"internalType":"address","name":"signer","type":"address"}],"name":"SignerAdded","type":"event"},{"anonymous":false,"inputs":[{"indexed":true,"internalType":"address","name":"signer","type":"address"}],"name":"SignerRemoved","type":"event"},{"anonymous":false,"inputs":[{"indexed":true,"internalType":"address","name":"wearable","type":"address"},{"indexed":false,"internalType":"uint256","name":"tokenId","type":"uint256"}],"name":"WearableAdded","type":"event"},{"anonymous":false,"inputs":[{"indexed":true,"internalType":"address","name":"wearable","type":"address"},{"indexed":false,"internalType":"uint256","name":"tokenId","type":"uint256"}],"name":"WearableRemoved","type":"event"},{"inputs":[{"components":[{"internalType":"address","name":"asset","type":"address"},{"internalType":"uint256","name":"tokenId","type":"uint256"}],"internalType":"struct Wearable","name":"wearable","type":"tuple"}],"name":"addWearable","outputs":[],"stateMutability":"nonpayable","type":"function"},{"inputs":[],"name":"appearanceDetails","outputs":[{"internalType":"bytes","name":"","type":"bytes"}],"stateMutability":"view","type":"function"},{"inputs":[],"name":"assetRegistry","outputs":[{"internalType":"contract IMultiAssetRegistry","name":"","type":"address"}],"stateMutability":"view","type":"function"},{"inputs":[],"name":"avatarFactory","outputs":[{"internalType":"address","name":"","type":"address"}],"stateMutability":"view","type":"function"},{"inputs":[],"name":"avatarOwnerSigningNonce","outputs":[{"internalType":"uint256","name":"","type":"uint256"}],"stateMutability":"view","type":"function"},{"inputs":[],"name":"avatarRegistry","outputs":[{"internalType":"contract IAvatarRegistry","name":"","type":"address"}],"stateMutability":"view","type":"function"},{"inputs":[],"name":"canReceiveTokensOutsideOfExperience","outputs":[{"internalType":"bool","name":"","type":"bool"}],"stateMutability":"view","type":"function"},{"inputs":[],"name":"companyRegistry","outputs":[{"internalType":"contract ICompanyRegistry","name":"","type":"address"}],"stateMutability":"view","type":"function"},{"inputs":[{"internalType":"address","name":"company","type":"address"}],"name":"companySigningNonce","outputs":[{"internalType":"uint256","name":"","type":"uint256"}],"stateMutability":"view","type":"function"},{"inputs":[{"components":[{"internalType":"uint256","name":"portalId","type":"uint256"},{"internalType":"uint256","name":"agreedFee","type":"uint256"},{"internalType":"bytes","name":"avatarOwnerSignature","type":"bytes"}],"internalType":"struct DelegatedJumpRequest","name":"request","type":"tuple"}],"name":"delegateJump","outputs":[],"stateMutability":"payable","type":"function"},{"inputs":[{"components":[{"internalType":"bool","name":"canReceiveTokensOutsideOfExperience","type":"bool"},{"internalType":"bytes","name":"appearanceDetails","type":"bytes"}],"internalType":"struct AvatarInitData","name":"data","type":"tuple"}],"name":"encodeInitData","outputs":[{"internalType":"bytes","name":"","type":"bytes"}],"stateMutability":"pure","type":"function"},{"inputs":[],"name":"experienceRegistry","outputs":[{"internalType":"contract IExperienceRegistry","name":"","type":"address"}],"stateMutability":"view","type":"function"},{"inputs":[],"name":"getWearables","outputs":[{"components":[{"internalType":"address","name":"asset","type":"address"},{"internalType":"uint256","name":"tokenId","type":"uint256"}],"internalType":"struct Wearable[]","name":"","type":"tuple[]"}],"stateMutability":"view","type":"function"},{"inputs":[],"name":"hook","outputs":[{"internalType":"contract IAvatarHook","name":"","type":"address"}],"stateMutability":"view","type":"function"},{"inputs":[{"internalType":"address","name":"_owner","type":"address"},{"internalType":"address","name":"defaultExperience","type":"address"},{"internalType":"string","name":"_name","type":"string"},{"internalType":"bytes","name":"initData","type":"bytes"}],"name":"init","outputs":[],"stateMutability":"nonpayable","type":"function"},{"inputs":[{"components":[{"internalType":"address","name":"asset","type":"address"},{"internalType":"uint256","name":"tokenId","type":"uint256"}],"internalType":"struct Wearable","name":"wearable","type":"tuple"}],"name":"isWearing","outputs":[{"internalType":"bool","name":"","type":"bool"}],"stateMutability":"view","type":"function"},{"inputs":[{"components":[{"internalType":"uint256","name":"portalId","type":"uint256"},{"internalType":"uint256","name":"agreedFee","type":"uint256"},{"internalType":"bytes","name":"destinationCompanySignature","type":"bytes"}],"internalType":"struct AvatarJumpRequest","name":"request","type":"tuple"}],"name":"jump","outputs":[],"stateMutability":"payable","type":"function"},{"inputs":[],"name":"location","outputs":[{"internalType":"contract IExperience","name":"","type":"address"}],"stateMutability":"view","type":"function"},{"inputs":[{"internalType":"address","name":"","type":"address"},{"internalType":"address","name":"","type":"address"},{"internalType":"uint256","name":"tokenId","type":"uint256"},{"internalType":"bytes","name":"","type":"bytes"}],"name":"onERC721Received","outputs":[{"internalType":"bytes4","name":"","type":"bytes4"}],"stateMutability":"nonpayable","type":"function"},{"inputs":[{"internalType":"uint256","name":"tokenId","type":"uint256"}],"name":"onERC721Revoked","outputs":[],"stateMutability":"nonpayable","type":"function"},{"inputs":[],"name":"owner","outputs":[{"internalType":"address","name":"","type":"address"}],"stateMutability":"view","type":"function"},{"inputs":[],"name":"portalRegistry","outputs":[{"internalType":"contract IPortalRegistry","name":"","type":"address"}],"stateMutability":"view","type":"function"},{"inputs":[],"name":"removeHook","outputs":[],"stateMutability":"nonpayable","type":"function"},{"inputs":[{"components":[{"internalType":"address","name":"asset","type":"address"},{"internalType":"uint256","name":"tokenId","type":"uint256"}],"internalType":"struct Wearable","name":"wearable","type":"tuple"}],"name":"removeWearable","outputs":[],"stateMutability":"nonpayable","type":"function"},{"inputs":[{"internalType":"bytes","name":"details","type":"bytes"}],"name":"setAppearanceDetails","outputs":[],"stateMutability":"nonpayable","type":"function"},{"inputs":[{"internalType":"bool","name":"canReceive","type":"bool"}],"name":"setCanReceiveTokensOutsideOfExperience","outputs":[],"stateMutability":"nonpayable","type":"function"},{"inputs":[{"internalType":"contract IAvatarHook","name":"_hook","type":"address"}],"name":"setHook","outputs":[],"stateMutability":"nonpayable","type":"function"},{"inputs":[{"internalType":"bytes","name":"initData","type":"bytes"}],"name":"upgrade","outputs":[],"stateMutability":"nonpayable","type":"function"},{"inputs":[{"internalType":"address","name":"nextVersion","type":"address"}],"name":"upgradeComplete","outputs":[],"stateMutability":"nonpayable","type":"function"},{"inputs":[],"name":"username","outputs":[{"internalType":"string","name":"","type":"string"}],"stateMutability":"view","type":"function"},{"inputs":[],"name":"version","outputs":[{"internalType":"uint256","name":"","type":"uint256"}],"stateMutability":"view","type":"function"},{"inputs":[{"internalType":"uint256","name":"amount","type":"uint256"}],"name":"withdraw","outputs":[],"stateMutability":"nonpayable","type":"function"},{"stateMutability":"payable","type":"receive"}],"evm":{"bytecode":{"linkReferences":{"contracts/libraries/LibLinkedList.sol":{"LibLinkedList":[{"length":20,"start":4125},{"length":20,"start":7141},{"length":20,"start":7362},{"length":20,"start":8692},{"length":20,"start":10074}]}},"object":"6101406040523480156200001257600080fd5b5060405162003c6138038062003c61833981016040819052620000359162000367565b600160005580516001600160a01b0316620000ad5760405162461bcd60e51b815260206004820152602d60248201527f4176617461723a2061766174617220666163746f72792063616e6e6f7420626560448201526c207a65726f206164647265737360981b60648201526084015b60405180910390fd5b60408101516001600160a01b0316620001245760405162461bcd60e51b815260206004820152603260248201527f4176617461723a20657870657269656e63652072656769737472792063616e6e6044820152716f74206265207a65726f206164647265737360701b6064820152608401620000a4565b60608101516001600160a01b0316620001975760405162461bcd60e51b815260206004820152602e60248201527f4176617461723a20706f7274616c2072656769737472792063616e6e6f74206260448201526d65207a65726f206164647265737360901b6064820152608401620000a4565b60808101516001600160a01b03166200020b5760405162461bcd60e51b815260206004820152602f60248201527f4176617461723a20636f6d70616e792072656769737472792063616e6e6f742060448201526e6265207a65726f206164647265737360881b6064820152608401620000a4565b60208101516001600160a01b03166200027e5760405162461bcd60e51b815260206004820152602e60248201527f4176617461723a206176617461722072656769737472792063616e6e6f74206260448201526d65207a65726f206164647265737360901b6064820152608401620000a4565b60a08101516001600160a01b0316620003005760405162461bcd60e51b815260206004820152603360248201527f4176617461723a206d756c74692d61737365742072656769737472792063616e60448201527f6e6f74206265207a65726f2061646472657373000000000000000000000000006064820152608401620000a4565b80516001600160a01b0390811660809081526040830151821660c0526060830151821660e0528201518116610100526020820151811660a090815290910151166101205262000421565b80516001600160a01b03811681146200036257600080fd5b919050565b600060c082840312156200037a57600080fd5b60405160c081016001600160401b0381118282101715620003ab57634e487b7160e01b600052604160045260246000fd5b604052620003b9836200034a565b8152620003c9602084016200034a565b6020820152620003dc604084016200034a565b6040820152620003ef606084016200034a565b606082015262000402608084016200034a565b60808201526200041560a084016200034a565b60a08201529392505050565b60805160a05160c05160e051610100516101205161379c620004c5600039600081816105000152818161072701528181610c3c01526121300152600081816105a8015261191b0152600081816105740152818161141201528181611a1201528181611b0101526124040152600081816104ac0152611fa50152600081816105dc01526110ad015260008181610411015281816111380152611e08015261379c6000f3fe6080604052600436106101e75760003560e01c806361fac54d116101025780639be17fbc11610095578063e3d7ad7311610064578063e3d7ad73146105ca578063e427535c146105fe578063e62194f11461061e578063f890d7c91461063e57600080fd5b80639be17fbc146105225780639d870bf614610542578063b666493414610562578063c51aba2b1461059657600080fd5b80638da5cb5b116100d15780638da5cb5b146104855780638f09a6be1461049a578063949a1ddc146104ce578063979d7e86146104ee57600080fd5b806361fac54d146104335780637dc759e5146104485780637f5a7c7b1461045b5780638970220e1461047057600080fd5b8063392f56691161017a57806354cf0b391161014957806354cf0b39146103a857806354fd4d50146103c85780635cf59e1e146103dd57806360e741e8146103ff57600080fd5b8063392f56691461031b5780633dfd38731461032e57806340ac3f0b1461034e578063516f279e1461037b57600080fd5b806325394645116101b657806325394645146102a65780632663d1f7146102c65780632e1a7d4d146102e6578063378f17ff1461030657600080fd5b806303f7d3ba146101f357806312deb11a14610226578063150b7a0214610248578063181d939b1461028157600080fd5b366101ee57005b600080fd5b3480156101ff57600080fd5b5061021361020e366004612b44565b610653565b6040519081526020015b60405180910390f35b34801561023257600080fd5b50610246610241366004612b61565b610680565b005b34801561025457600080fd5b50610268610263366004612bc1565b610c10565b6040516001600160e01b0319909116815260200161021d565b34801561028d57600080fd5b50610296611046565b604051901515815260200161021d565b3480156102b257600080fd5b506102466102c1366004612c33565b61105b565b3480156102d257600080fd5b506102466102e1366004612b44565b61112d565b3480156102f257600080fd5b50610246610301366004612c74565b6111e6565b34801561031257600080fd5b506102466112ce565b610246610329366004612df8565b611355565b34801561033a57600080fd5b50610246610349366004612b44565b611530565b34801561035a57600080fd5b5061036e610369366004612e42565b611629565b60405161021d9190612f11565b34801561038757600080fd5b50610390611652565b6040516001600160a01b03909116815260200161021d565b3480156103b457600080fd5b506102466103c3366004612b61565b611670565b3480156103d457600080fd5b50610213600181565b3480156103e957600080fd5b506103f26117d6565b60405161021d9190612f24565b34801561040b57600080fd5b506103907f000000000000000000000000000000000000000000000000000000000000000081565b34801561043f57600080fd5b5061036e611865565b610246610456366004612df8565b611906565b34801561046757600080fd5b50610390611c1e565b34801561047c57600080fd5b5061036e611c3c565b34801561049157600080fd5b50610390611c59565b3480156104a657600080fd5b506103907f000000000000000000000000000000000000000000000000000000000000000081565b3480156104da57600080fd5b506102466104e9366004612f84565b611c79565b3480156104fa57600080fd5b506103907f000000000000000000000000000000000000000000000000000000000000000081565b34801561052e57600080fd5b5061029661053d366004612b61565b611d12565b34801561054e57600080fd5b5061024661055d366004612fb8565b611da4565b34801561056e57600080fd5b506103907f000000000000000000000000000000000000000000000000000000000000000081565b3480156105a257600080fd5b506103907f000000000000000000000000000000000000000000000000000000000000000081565b3480156105d657600080fd5b506103907f000000000000000000000000000000000000000000000000000000000000000081565b34801561060a57600080fd5b50610246610619366004612fd5565b611dfd565b34801561062a57600080fd5b50610246610639366004612c74565b612106565b34801561064a57600080fd5b5061021361235f565b60008061065e612374565b6001600160a01b03909316600090815260059093016020525050604090205490565b600061068a612374565b805490915061010090046001600160a01b031633146106c45760405162461bcd60e51b81526004016106bb90613074565b60405180910390fd5b60006106d36020840184612b44565b6001600160a01b0316036106f95760405162461bcd60e51b81526004016106bb906130bd565b600082602001351161071d5760405162461bcd60e51b81526004016106bb9061310a565b6001600160a01b037f00000000000000000000000000000000000000000000000000000000000000001663adec56186107596020850185612b44565b6040516001600160e01b031960e084901b1681526001600160a01b039091166004820152602401602060405180830381865afa15801561079d573d6000803e3d6000fd5b505050506040513d601f19601f820116820180604052508101906107c19190613151565b61081b5760405162461bcd60e51b815260206004820152602560248201527f4176617461723a207765617261626c65206173736574206e6f742072656769736044820152641d195c995960da1b60648201526084016106bb565b600061082a6020840184612b44565b90506000610836611652565b90506108456020850185612b44565b6001600160a01b0316633fa47f176040518060a001604052808760000160208101906108719190612b44565b6001600160a01b03168152602001846001600160a01b03166330b67baa6040518163ffffffff1660e01b8152600401602060405180830381865afa1580156108bd573d6000803e3d6000fd5b505050506040513d601f19601f820116820180604052508101906108e1919061316e565b6001600160a01b03168152602001846001600160a01b0316636904c94d6040518163ffffffff1660e01b8152600401602060405180830381865afa15801561092d573d6000803e3d6000fd5b505050506040513d601f19601f82011682018060405250810190610951919061316e565b6001600160a01b03908116825285811660208084019190915230604093840152825160e086901b6001600160e01b031916815284518316600482015290840151821660248201529183015181166044830152606083015181166064830152608090920151909116608482015260a401602060405180830381865afa1580156109dd573d6000803e3d6000fd5b505050506040513d601f19601f82011682018060405250810190610a019190613151565b610a655760405162461bcd60e51b815260206004820152602f60248201527f4176617461723a207765617261626c652061737365742063616e6e6f7420626560448201526e103ab9b2b210313c9030bb30ba30b960891b60648201526084016106bb565b6040516331a9108f60e11b81526020850135600482015230906001600160a01b03841690636352211e90602401602060405180830381865afa158015610aaf573d6000803e3d6000fd5b505050506040513d601f19601f82011682018060405250810190610ad3919061316e565b6001600160a01b031614610b3c5760405162461bcd60e51b815260206004820152602a60248201527f4176617461723a207765617261626c6520746f6b656e206e6f74206f776e656460448201526910313c9030bb30ba30b960b11b60648201526084016106bb565b6000610b46612374565b604051630dfd3df760e11b815290915073__$c011c5c9201293cae8fa3d59d203092c54$__90631bfa7bee90610b85906007850190899060040161318b565b60006040518083038186803b158015610b9d57600080fd5b505af4158015610bb1573d6000803e3d6000fd5b50610bc3925050506020860186612b44565b6001600160a01b03167fc33fdb2e96e0dba49a8cb36af300177e6ba61804be87a31a26e27ab52596ecf28660200135604051610c0191815260200190565b60405180910390a25050505050565b6000610c1a612398565b6000610c24612374565b6040516315bd8ac360e31b81523360048201529091507f00000000000000000000000000000000000000000000000000000000000000006001600160a01b03169063adec561890602401602060405180830381865afa158015610c8b573d6000803e3d6000fd5b505050506040513d601f19601f82011682018060405250810190610caf9190613151565b610d125760405162461bcd60e51b815260206004820152602e60248201527f4176617461723a2045524337323120746f6b656e206e6f742066726f6d20726560448201526d19da5cdd195c995908185cdcd95d60921b60648201526084016106bb565b8054339060ff16610e74576000336001600160a01b0316631d1438486040518163ffffffff1660e01b8152600401602060405180830381865afa158015610d5d573d6000803e3d6000fd5b505050506040513d601f19601f82011682018060405250810190610d81919061316e565b600184015460408051636904c94d60e01b815290519293506001600160a01b03909116918291636904c94d9160048083019260209291908290030181865afa158015610dd1573d6000803e3d6000fd5b505050506040513d601f19601f82011682018060405250810190610df5919061316e565b6001600160a01b0316826001600160a01b031614610e715760405162461bcd60e51b815260206004820152603360248201527f4176617461723a2063616e6e6f74207265636569766520746f6b656e73206f756044820152727473696465206f6620657870657269656e636560681b60648201526084016106bb565b50505b6040516331a9108f60e11b81526004810187905230906001600160a01b03831690636352211e90602401602060405180830381865afa158015610ebb573d6000803e3d6000fd5b505050506040513d601f19601f82011682018060405250810190610edf919061316e565b6001600160a01b031614610f465760405162461bcd60e51b815260206004820152602860248201527f4176617461723a2045524337323120746f6b656e206e6f74206f776e656420626044820152673c9030bb30ba30b960c11b60648201526084016106bb565b60028201546001600160a01b03161561102d576002820154604051631d9a6bd160e11b8152306004820152336024820152604481018890526001600160a01b0390911690633b34d7a2906064016020604051808303816000875af1158015610fb2573d6000803e3d6000fd5b505050506040513d601f19601f82011682018060405250810190610fd69190613151565b61102d5760405162461bcd60e51b815260206004820152602260248201527f4176617461723a20686f6f6b2072656a65637465642045524337323120746f6b60448201526132b760f11b60648201526084016106bb565b5050600160005550630a85bd0160e11b95945050505050565b600080611051612374565b5460ff1692915050565b6000611065612374565b805490915061010090046001600160a01b031633146110965760405162461bcd60e51b81526004016106bb90613074565b60405163612ca62160e01b81526001600160a01b037f0000000000000000000000000000000000000000000000000000000000000000169063612ca621906110e490869086906004016131bf565b6020604051808303816000875af1158015611103573d6000803e3d6000fd5b505050506040513d601f19601f82011682018060405250810190611127919061316e565b50505050565b336001600160a01b037f000000000000000000000000000000000000000000000000000000000000000016146111755760405162461bcd60e51b81526004016106bb906131ee565b7f69198989339f34e10129e514286bde98979351148754faef989dde18bf6d14da80546001600160a01b031981166001600160a01b03848116918217845560405192169182907f722ee95a7e2eed3235f2e3bdb62d3f6e70079578905580fbf8bb414519dd617290600090a3505050565b60006111f0612374565b805490915061010090046001600160a01b031633146112215760405162461bcd60e51b81526004016106bb90613074565b478211156112855760405162461bcd60e51b815260206004820152602b60248201527f4176617461723a20696e73756666696369656e742062616c616e636520666f7260448201526a081dda5d1a191c985dd85b60aa1b60648201526084016106bb565b600061128f612374565b80546040519192506001600160a01b0361010090910416904780156108fc02916000818181858888f19350505050158015611127573d6000803e3d6000fd5b60006112d8612374565b805490915061010090046001600160a01b031633146113095760405162461bcd60e51b81526004016106bb90613074565b6000611313612374565b6002810180546001600160a01b03191690556040519091507f4abf6d25887ff6b78026f569f956b6d57d5b92cecf0ee91d897ec98e47f656a390600090a15050565b600061135f612374565b805490915061010090046001600160a01b031633146113905760405162461bcd60e51b81526004016106bb90613074565b600061139b836123c2565b905080604001518360200151146113c45760405162461bcd60e51b81526004016106bb90613239565b6040810151156114025760006113da344761329b565b905081604001518110156114005760405162461bcd60e51b81526004016106bb906132ae565b505b600061140c612374565b905060007f00000000000000000000000000000000000000000000000000000000000000006001600160a01b03166384c4484e846040015187600001516040518363ffffffff1660e01b815260040161146791815260200190565b60006040518083038185885af1158015611485573d6000803e3d6000fd5b50505050506040513d6000823e601f3d908101601f191682016040526114ae919081019061333a565b83516001840180546001600160a01b0319166001600160a01b039092169190911790556040519091506114e290829061336e565b6040518091039020836040015184600001516001600160a01b03167fe6b8160f723fcdb4c3cb8bf86e99d55e311c607a791f7503cc16dfaff3271e4360405160405180910390a45050505050565b600061153a612374565b805490915061010090046001600160a01b0316331461156b5760405162461bcd60e51b81526004016106bb90613074565b6001600160a01b0382166115cd5760405162461bcd60e51b815260206004820152602360248201527f4176617461723a20686f6f6b2063616e6e6f74206265207a65726f206164647260448201526265737360e81b60648201526084016106bb565b60006115d7612374565b6002810180546001600160a01b0319166001600160a01b038616908117909155604051919250907f4eab7b127c764308788622363ad3e9532de3dfba7845bd4f84c125a22544255a90600090a2505050565b60608160405160200161163c919061338a565b6040516020818303038152906040529050919050565b60008061165d612374565b600101546001600160a01b031692915050565b600061167a612374565b805490915061010090046001600160a01b031633146116ab5760405162461bcd60e51b81526004016106bb90613074565b60006116ba6020840184612b44565b6001600160a01b0316036116e05760405162461bcd60e51b81526004016106bb906130bd565b60008260200135116117045760405162461bcd60e51b81526004016106bb9061310a565b600061170e612374565b6040516358888ef160e01b815290915073__$c011c5c9201293cae8fa3d59d203092c54$__906358888ef19061174d906007850190879060040161318b565b60006040518083038186803b15801561176557600080fd5b505af4158015611779573d6000803e3d6000fd5b5061178b925050506020840184612b44565b6001600160a01b03167f60c3791748d09484f5d949c7570a640dad2f40bbebc2571b8f6c0e6a13e96fac84602001356040516117c991815260200190565b60405180910390a2505050565b606060006117e2612374565b6040516372a9762360e11b815260078201600482015290915073__$c011c5c9201293cae8fa3d59d203092c54$__9063e552ec4690602401600060405180830381865af4158015611837573d6000803e3d6000fd5b505050506040513d6000823e601f3d908101601f1916820160405261185f91908101906133b1565b91505090565b60606000611871612374565b905080600301805461188290613486565b80601f01602080910402602001604051908101604052809291908181526020018280546118ae90613486565b80156118fb5780601f106118d0576101008083540402835291602001916118fb565b820191906000526020600020905b8154815290600101906020018083116118de57829003601f168201915b505050505091505090565b604051632405672560e21b81523360048201527f00000000000000000000000000000000000000000000000000000000000000006001600160a01b0316906390159c9490602401602060405180830381865afa15801561196a573d6000803e3d6000fd5b505050506040513d601f19601f8201168201806040525081019061198e9190613151565b6119ed5760405162461bcd60e51b815260206004820152602a60248201527f4176617461723a2063616c6c6572206973206e6f742061207265676973746572604482015269656420636f6d70616e7960b01b60648201526084016106bb565b6119f68161266a565b8051604051630a22d5a160e21b81526000916001600160a01b037f0000000000000000000000000000000000000000000000000000000000000000169163288b568491611a499160040190815260200190565b608060405180830381865afa158015611a66573d6000803e3d6000fd5b505050506040513d601f19601f82011682018060405250810190611a8a91906134ba565b90508060400151826020015114611ab35760405162461bcd60e51b81526004016106bb90613239565b604081015115611af1576000611ac9344761329b565b90508160400151811015611aef5760405162461bcd60e51b81526004016106bb906132ae565b505b6000611afb612374565b905060007f00000000000000000000000000000000000000000000000000000000000000006001600160a01b03166384c4484e846040015186600001516040518363ffffffff1660e01b8152600401611b5691815260200190565b60006040518083038185885af1158015611b74573d6000803e3d6000fd5b50505050506040513d6000823e601f3d908101601f19168201604052611b9d919081019061333a565b83516001840180546001600160a01b0319166001600160a01b03909216919091179055604051909150611bd190829061336e565b6040518091039020836040015184600001516001600160a01b03167fe6b8160f723fcdb4c3cb8bf86e99d55e311c607a791f7503cc16dfaff3271e4360405160405180910390a450505050565b600080611c29612374565b600201546001600160a01b031692915050565b60606000611c48612374565b905080600401805461188290613486565b600080611c64612374565b5461010090046001600160a01b031692915050565b6000611c83612374565b805490915061010090046001600160a01b03163314611cb45760405162461bcd60e51b81526004016106bb90613074565b6000611cbe612374565b905060048101611cce8482613586565b5082604051611cdd919061336e565b604051908190038120907fe8ed633186ac64f9f0ab9b48cb1cca12eebe0f7e0ffdc46908733a060363236690600090a2505050565b600080611d1d612374565b604051633661870560e11b815290915073__$c011c5c9201293cae8fa3d59d203092c54$__90636cc30e0a90611d5c906007850190879060040161318b565b602060405180830381865af4158015611d79573d6000803e3d6000fd5b505050506040513d601f19601f82011682018060405250810190611d9d9190613151565b9392505050565b6000611dae612374565b805490915061010090046001600160a01b03163314611ddf5760405162461bcd60e51b81526004016106bb90613074565b6000611de9612374565b805460ff1916931515939093179092555050565b336001600160a01b037f00000000000000000000000000000000000000000000000000000000000000001614611e455760405162461bcd60e51b81526004016106bb906131ee565b6000611e4f612374565b805490915061010090046001600160a01b031615611ebb5760405162461bcd60e51b8152602060048201526024808201527f4176617461723a20636f6e747261637420616c726561647920696e697469616c6044820152631a5e995960e21b60648201526084016106bb565b600082806020019051810190611ed19190613645565b90506000845111611f245760405162461bcd60e51b815260206004820181905260248201527f4176617461723a20757365726e616d652063616e6e6f7420626520656d70747960448201526064016106bb565b6001600160a01b038616611f865760405162461bcd60e51b8152602060048201526024808201527f4176617461723a206f776e65722063616e6e6f74206265207a65726f206164646044820152637265737360e01b60648201526084016106bb565b604051630262286360e41b81526001600160a01b0386811660048301527f00000000000000000000000000000000000000000000000000000000000000001690632622863090602401602060405180830381865afa158015611fec573d6000803e3d6000fd5b505050506040513d601f19601f820116820180604052508101906120109190613151565b6120825760405162461bcd60e51b815260206004820152603960248201527f4176617461723a2064656661756c7420657870657269656e6365206973206e6f60448201527f742061207265676973746572656420657870657269656e63650000000000000060648201526084016106bb565b600382016120908582613586565b506001820180546001600160a01b0319166001600160a01b0387161790558051825460ff1916901515178255602081015160048301906120d09082613586565b505080546001600160a01b0390951661010002610100600160a81b0319909516949094178455505060c8600a9092019190915550565b61210e612398565b6000612118612374565b6040516315bd8ac360e31b81523360048201529091507f00000000000000000000000000000000000000000000000000000000000000006001600160a01b03169063adec561890602401602060405180830381865afa15801561217f573d6000803e3d6000fd5b505050506040513d601f19601f820116820180604052508101906121a39190613151565b61220d5760405162461bcd60e51b815260206004820152603560248201527f4176617461723a206f6e6c79207265676973746572656420617373657473206360448201527430b71031b0b636103a3434b990333ab731ba34b7b760591b60648201526084016106bb565b6040516331a9108f60e11b81526004810183905233908190636352211e90602401602060405180830381865afa925050508015612267575060408051601f3d908101601f191682019092526122649181019061316e565b60015b6122f5576040805180820182526001600160a01b03831681526020810185905290516358888ef160e01b815273__$c011c5c9201293cae8fa3d59d203092c54$__916358888ef1916122c09160078701916004016136b5565b60006040518083038186803b1580156122d857600080fd5b505af41580156122ec573d6000803e3d6000fd5b50505050612350565b60405162461bcd60e51b815260206004820152602a60248201527f4176617461723a2045524337323120746f6b656e207374696c6c206f776e656460448201526910313c9030bb30ba30b960b11b60648201526084016106bb565b505061235c6001600055565b50565b60008061236a612374565b6006015492915050565b7fd38682225e685e93013f8a112db34d1d514857ac4394636132822a0c0fe2045090565b6002600054036123bb57604051633ee5aeb560e01b815260040160405180910390fd5b6002600055565b60408051608081018252600080825260208201819052818301819052606082015282519151630a22d5a160e21b81526004810192909252906001600160a01b037f0000000000000000000000000000000000000000000000000000000000000000169063288b568490602401608060405180830381865afa15801561244b573d6000803e3d6000fd5b505050506040513d601f19601f8201168201806040525081019061246f91906134ba565b9050600081600001516001600160a01b0316636904c94d6040518163ffffffff1660e01b8152600401602060405180830381865afa1580156124b5573d6000803e3d6000fd5b505050506040513d601f19601f820116820180604052508101906124d9919061316e565b905060006124e5612374565b6001600160a01b0383166000908152600582016020526040812080549293509061250e836136dc565b9091555084516020808701516040805192830193909352918101919091526060810182905260009060800160408051808303601f19018152828252805160209182012081845283830190925290925060009190602082018180368337019050509050816020820152600061258182612785565b90506000612593828a604001516127c0565b604051637df73e2760e01b81526001600160a01b03808316600483015291925090881690637df73e2790602401602060405180830381865afa1580156125dd573d6000803e3d6000fd5b505050506040513d601f19601f820116820180604052508101906126019190613151565b61265e5760405162461bcd60e51b815260206004820152602860248201527f4176617461723a20636f6d70616e79207369676e6572206973206e6f742061756044820152671d1a1bdc9a5e995960c21b60648201526084016106bb565b50505050505050919050565b6000612674612374565b6006810180549192506000612688836136dc565b9091555082516020808501516040805192830193909352918101919091526060810182905260009060800160408051808303601f1901815282825280516020918201208184528383019092529092506000919060208201818036833701905050905081602082015260006126fb82612785565b9050600061270d8288604001516127c0565b86549091506001600160a01b03808316610100909204161461277c5760405162461bcd60e51b815260206004820152602260248201527f4176617461723a20617661746172207369676e6572206973206e6f74206f776e60448201526132b960f11b60648201526084016106bb565b50505050505050565b600061279182516127ec565b826040516020016127a39291906136f5565b604051602081830303815290604052805190602001209050919050565b6000806000806127d0868661287e565b9250925092506127e082826128cb565b50909150505b92915050565b606060006127f983612988565b60010190506000816001600160401b0381111561281857612818612c8d565b6040519080825280601f01601f191660200182016040528015612842576020820181803683370190505b5090508181016020015b600019016f181899199a1a9b1b9c1cb0b131b232b360811b600a86061a8153600a850494508461284c57509392505050565b600080600083516041036128b85760208401516040850151606086015160001a6128aa88828585612a60565b9550955095505050506128c4565b50508151600091506002905b9250925092565b60008260038111156128df576128df613750565b036128e8575050565b60018260038111156128fc576128fc613750565b0361291a5760405163f645eedf60e01b815260040160405180910390fd5b600282600381111561292e5761292e613750565b0361294f5760405163fce698f760e01b8152600481018290526024016106bb565b600382600381111561296357612963613750565b03612984576040516335e2f38360e21b8152600481018290526024016106bb565b5050565b60008072184f03e93ff9f4daa797ed6e38ed64bf6a1f0160401b83106129c75772184f03e93ff9f4daa797ed6e38ed64bf6a1f0160401b830492506040015b6d04ee2d6d415b85acef810000000083106129f3576d04ee2d6d415b85acef8100000000830492506020015b662386f26fc100008310612a1157662386f26fc10000830492506010015b6305f5e1008310612a29576305f5e100830492506008015b6127108310612a3d57612710830492506004015b60648310612a4f576064830492506002015b600a83106127e65760010192915050565b600080807f7fffffffffffffffffffffffffffffff5d576e7357a4501ddfe92f46681b20a0841115612a9b5750600091506003905082612b25565b604080516000808252602082018084528a905260ff891692820192909252606081018790526080810186905260019060a0016020604051602081039080840390855afa158015612aef573d6000803e3d6000fd5b5050604051601f1901519150506001600160a01b038116612b1b57506000925060019150829050612b25565b9250600091508190505b9450945094915050565b6001600160a01b038116811461235c57600080fd5b600060208284031215612b5657600080fd5b8135611d9d81612b2f565b600060408284031215612b7357600080fd5b50919050565b60008083601f840112612b8b57600080fd5b5081356001600160401b03811115612ba257600080fd5b602083019150836020828501011115612bba57600080fd5b9250929050565b600080600080600060808688031215612bd957600080fd5b8535612be481612b2f565b94506020860135612bf481612b2f565b93506040860135925060608601356001600160401b03811115612c1657600080fd5b612c2288828901612b79565b969995985093965092949392505050565b60008060208385031215612c4657600080fd5b82356001600160401b03811115612c5c57600080fd5b612c6885828601612b79565b90969095509350505050565b600060208284031215612c8657600080fd5b5035919050565b634e487b7160e01b600052604160045260246000fd5b604080519081016001600160401b0381118282101715612cc557612cc5612c8d565b60405290565b604051601f8201601f191681016001600160401b0381118282101715612cf357612cf3612c8d565b604052919050565b60006001600160401b03821115612d1457612d14612c8d565b50601f01601f191660200190565b6000612d35612d3084612cfb565b612ccb565b9050828152838383011115612d4957600080fd5b828260208301376000602084830101529392505050565b600082601f830112612d7157600080fd5b611d9d83833560208501612d22565b600060608284031215612d9257600080fd5b604051606081016001600160401b038282108183111715612db557612db5612c8d565b8160405282935084358352602085013560208401526040850135915080821115612dde57600080fd5b50612deb85828601612d60565b6040830152505092915050565b600060208284031215612e0a57600080fd5b81356001600160401b03811115612e2057600080fd5b612e2c84828501612d80565b949350505050565b801515811461235c57600080fd5b600060208284031215612e5457600080fd5b81356001600160401b0380821115612e6b57600080fd5b9083019060408286031215612e7f57600080fd5b612e87612ca3565b8235612e9281612e34565b8152602083013582811115612ea657600080fd5b612eb287828601612d60565b60208301525095945050505050565b60005b83811015612edc578181015183820152602001612ec4565b50506000910152565b60008151808452612efd816020860160208601612ec1565b601f01601f19169290920160200192915050565b602081526000611d9d6020830184612ee5565b602080825282518282018190526000919060409081850190868401855b82811015612f7757612f6784835180516001600160a01b03168252602090810151910152565b9284019290850190600101612f41565b5091979650505050505050565b600060208284031215612f9657600080fd5b81356001600160401b03811115612fac57600080fd5b612e2c84828501612d60565b600060208284031215612fca57600080fd5b8135611d9d81612e34565b60008060008060808587031215612feb57600080fd5b8435612ff681612b2f565b9350602085013561300681612b2f565b925060408501356001600160401b038082111561302257600080fd5b818701915087601f83011261303657600080fd5b61304588833560208501612d22565b9350606087013591508082111561305b57600080fd5b5061306887828801612d60565b91505092959194509250565b60208082526029908201527f4176617461723a206f6e6c79206f776e65722063616e2063616c6c207468697360408201526810333ab731ba34b7b760b91b606082015260800190565b6020808252602d908201527f4176617461723a207765617261626c652061737365742063616e6e6f7420626560408201526c207a65726f206164647265737360981b606082015260800190565b60208082526027908201527f4176617461723a207765617261626c6520746f6b656e49642063616e6e6f74206040820152666265207a65726f60c81b606082015260800190565b60006020828403121561316357600080fd5b8151611d9d81612e34565b60006020828403121561318057600080fd5b8151611d9d81612b2f565b82815260608101823561319d81612b2f565b6001600160a01b03166020838101919091529290920135604090910152919050565b60208152816020820152818360408301376000818301604090810191909152601f909201601f19160101919050565b6020808252602b908201527f4176617461723a206f6e6c7920666163746f72792063616e2063616c6c20746860408201526a34b990333ab731ba34b7b760a91b606082015260800190565b6020808252602c908201527f4176617461723a206167726565642066656520646f6573206e6f74206d61746360408201526b6820706f7274616c2066656560a01b606082015260800190565b634e487b7160e01b600052601160045260246000fd5b808201808211156127e6576127e6613285565b60208082526027908201527f4176617461723a20696e73756666696369656e742066756e647320666f72206a604082015266756d702066656560c81b606082015260800190565b600082601f83011261330657600080fd5b8151613314612d3082612cfb565b81815284602083860101111561332957600080fd5b612e2c826020830160208701612ec1565b60006020828403121561334c57600080fd5b81516001600160401b0381111561336257600080fd5b612e2c848285016132f5565b60008251613380818460208701612ec1565b9190910192915050565b6020815281511515602082015260006020830151604080840152612e2c6060840182612ee5565b600060208083850312156133c457600080fd5b82516001600160401b03808211156133db57600080fd5b818501915085601f8301126133ef57600080fd5b81518181111561340157613401612c8d565b61340f848260051b01612ccb565b818152848101925060069190911b83018401908782111561342f57600080fd5b928401925b8184101561347b576040848903121561344d5760008081fd5b613455612ca3565b845161346081612b2f565b81528486015186820152835260409093019291840191613434565b979650505050505050565b600181811c9082168061349a57607f821691505b602082108103612b7357634e487b7160e01b600052602260045260246000fd5b6000608082840312156134cc57600080fd5b604051608081018181106001600160401b03821117156134ee576134ee612c8d565b60405282516134fc81612b2f565b8152602083015161350c81612b2f565b602082015260408381015190820152606083015161352981612e34565b60608201529392505050565b601f821115613581576000816000526020600020601f850160051c8101602086101561355e5750805b601f850160051c820191505b8181101561357d5782815560010161356a565b5050505b505050565b81516001600160401b0381111561359f5761359f612c8d565b6135b3816135ad8454613486565b84613535565b602080601f8311600181146135e857600084156135d05750858301515b600019600386901b1c1916600185901b17855561357d565b600085815260208120601f198616915b82811015613617578886015182559484019460019091019084016135f8565b50858210156136355787850151600019600388901b60f8161c191681555b5050505050600190811b01905550565b60006020828403121561365757600080fd5b81516001600160401b038082111561366e57600080fd5b908301906040828603121561368257600080fd5b61368a612ca3565b825161369581612e34565b81526020830151828111156136a957600080fd5b612eb2878286016132f5565b82815260608101611d9d602083018480516001600160a01b03168252602090810151910152565b6000600182016136ee576136ee613285565b5060010190565b7f19457468657265756d205369676e6564204d6573736167653a0a00000000000081526000835161372d81601a850160208801612ec1565b83519083019061374481601a840160208801612ec1565b01601a01949350505050565b634e487b7160e01b600052602160045260246000fdfea2646970667358221220b49837a70171243e22bda63e4c32b9d0189a8edb037acd36e96674ac0391739a64736f6c63430008180033","opcodes":"PUSH2 0x140 PUSH1 0x40 MSTORE CALLVALUE DUP1 ISZERO PUSH3 0x12 JUMPI PUSH1 0x0 DUP1 REVERT JUMPDEST POP PUSH1 0x40 MLOAD PUSH3 0x3C61 CODESIZE SUB DUP1 PUSH3 0x3C61 DUP4 CODECOPY DUP2 ADD PUSH1 0x40 DUP2 SWAP1 MSTORE PUSH3 0x35 SWAP2 PUSH3 0x367 JUMP JUMPDEST PUSH1 0x1 PUSH1 0x0 SSTORE DUP1 MLOAD PUSH1 0x1 PUSH1 0x1 PUSH1 0xA0 SHL SUB AND PUSH3 0xAD JUMPI PUSH1 0x40 MLOAD PUSH3 0x461BCD PUSH1 0xE5 SHL DUP2 MSTORE PUSH1 0x20 PUSH1 0x4 DUP3 ADD MSTORE PUSH1 0x2D PUSH1 0x24 DUP3 ADD MSTORE PUSH32 0x4176617461723A2061766174617220666163746F72792063616E6E6F74206265 PUSH1 0x44 DUP3 ADD MSTORE PUSH13 0x207A65726F2061646472657373 PUSH1 0x98 SHL PUSH1 0x64 DUP3 ADD MSTORE PUSH1 0x84 ADD JUMPDEST PUSH1 0x40 MLOAD DUP1 SWAP2 SUB SWAP1 REVERT JUMPDEST PUSH1 0x40 DUP2 ADD MLOAD PUSH1 0x1 PUSH1 0x1 PUSH1 0xA0 SHL SUB AND PUSH3 0x124 JUMPI PUSH1 0x40 MLOAD PUSH3 0x461BCD PUSH1 0xE5 SHL DUP2 MSTORE PUSH1 0x20 PUSH1 0x4 DUP3 ADD MSTORE PUSH1 0x32 PUSH1 0x24 DUP3 ADD MSTORE PUSH32 0x4176617461723A20657870657269656E63652072656769737472792063616E6E PUSH1 0x44 DUP3 ADD MSTORE PUSH18 0x6F74206265207A65726F2061646472657373 PUSH1 0x70 SHL PUSH1 0x64 DUP3 ADD MSTORE PUSH1 0x84 ADD PUSH3 0xA4 JUMP JUMPDEST PUSH1 0x60 DUP2 ADD MLOAD PUSH1 0x1 PUSH1 0x1 PUSH1 0xA0 SHL SUB AND PUSH3 0x197 JUMPI PUSH1 0x40 MLOAD PUSH3 0x461BCD PUSH1 0xE5 SHL DUP2 MSTORE PUSH1 0x20 PUSH1 0x4 DUP3 ADD MSTORE PUSH1 0x2E PUSH1 0x24 DUP3 ADD MSTORE PUSH32 0x4176617461723A20706F7274616C2072656769737472792063616E6E6F742062 PUSH1 0x44 DUP3 ADD MSTORE PUSH14 0x65207A65726F2061646472657373 PUSH1 0x90 SHL PUSH1 0x64 DUP3 ADD MSTORE PUSH1 0x84 ADD PUSH3 0xA4 JUMP JUMPDEST PUSH1 0x80 DUP2 ADD MLOAD PUSH1 0x1 PUSH1 0x1 PUSH1 0xA0 SHL SUB AND PUSH3 0x20B JUMPI PUSH1 0x40 MLOAD PUSH3 0x461BCD PUSH1 0xE5 SHL DUP2 MSTORE PUSH1 0x20 PUSH1 0x4 DUP3 ADD MSTORE PUSH1 0x2F PUSH1 0x24 DUP3 ADD MSTORE PUSH32 0x4176617461723A20636F6D70616E792072656769737472792063616E6E6F7420 PUSH1 0x44 DUP3 ADD MSTORE PUSH15 0x6265207A65726F2061646472657373 PUSH1 0x88 SHL PUSH1 0x64 DUP3 ADD MSTORE PUSH1 0x84 ADD PUSH3 0xA4 JUMP JUMPDEST PUSH1 0x20 DUP2 ADD MLOAD PUSH1 0x1 PUSH1 0x1 PUSH1 0xA0 SHL SUB AND PUSH3 0x27E JUMPI PUSH1 0x40 MLOAD PUSH3 0x461BCD PUSH1 0xE5 SHL DUP2 MSTORE PUSH1 0x20 PUSH1 0x4 DUP3 ADD MSTORE PUSH1 0x2E PUSH1 0x24 DUP3 ADD MSTORE PUSH32 0x4176617461723A206176617461722072656769737472792063616E6E6F742062 PUSH1 0x44 DUP3 ADD MSTORE PUSH14 0x65207A65726F2061646472657373 PUSH1 0x90 SHL PUSH1 0x64 DUP3 ADD MSTORE PUSH1 0x84 ADD PUSH3 0xA4 JUMP JUMPDEST PUSH1 0xA0 DUP2 ADD MLOAD PUSH1 0x1 PUSH1 0x1 PUSH1 0xA0 SHL SUB AND PUSH3 0x300 JUMPI PUSH1 0x40 MLOAD PUSH3 0x461BCD PUSH1 0xE5 SHL DUP2 MSTORE PUSH1 0x20 PUSH1 0x4 DUP3 ADD MSTORE PUSH1 0x33 PUSH1 0x24 DUP3 ADD MSTORE PUSH32 0x4176617461723A206D756C74692D61737365742072656769737472792063616E PUSH1 0x44 DUP3 ADD MSTORE PUSH32 0x6E6F74206265207A65726F206164647265737300000000000000000000000000 PUSH1 0x64 DUP3 ADD MSTORE PUSH1 0x84 ADD PUSH3 0xA4 JUMP JUMPDEST DUP1 MLOAD PUSH1 0x1 PUSH1 0x1 PUSH1 0xA0 SHL SUB SWAP1 DUP2 AND PUSH1 0x80 SWAP1 DUP2 MSTORE PUSH1 0x40 DUP4 ADD MLOAD DUP3 AND PUSH1 0xC0 MSTORE PUSH1 0x60 DUP4 ADD MLOAD DUP3 AND PUSH1 0xE0 MSTORE DUP3 ADD MLOAD DUP2 AND PUSH2 0x100 MSTORE PUSH1 0x20 DUP3 ADD MLOAD DUP2 AND PUSH1 0xA0 SWAP1 DUP2 MSTORE SWAP1 SWAP2 ADD MLOAD AND PUSH2 0x120 MSTORE PUSH3 0x421 JUMP JUMPDEST DUP1 MLOAD PUSH1 0x1 PUSH1 0x1 PUSH1 0xA0 SHL SUB DUP2 AND DUP2 EQ PUSH3 0x362 JUMPI PUSH1 0x0 DUP1 REVERT JUMPDEST SWAP2 SWAP1 POP JUMP JUMPDEST PUSH1 0x0 PUSH1 0xC0 DUP3 DUP5 SUB SLT ISZERO PUSH3 0x37A JUMPI PUSH1 0x0 DUP1 REVERT JUMPDEST PUSH1 0x40 MLOAD PUSH1 0xC0 DUP2 ADD PUSH1 0x1 PUSH1 0x1 PUSH1 0x40 SHL SUB DUP2 GT DUP3 DUP3 LT OR ISZERO PUSH3 0x3AB JUMPI PUSH4 0x4E487B71 PUSH1 0xE0 SHL PUSH1 0x0 MSTORE PUSH1 0x41 PUSH1 0x4 MSTORE PUSH1 0x24 PUSH1 0x0 REVERT JUMPDEST PUSH1 0x40 MSTORE PUSH3 0x3B9 DUP4 PUSH3 0x34A JUMP JUMPDEST DUP2 MSTORE PUSH3 0x3C9 PUSH1 0x20 DUP5 ADD PUSH3 0x34A JUMP JUMPDEST PUSH1 0x20 DUP3 ADD MSTORE PUSH3 0x3DC PUSH1 0x40 DUP5 ADD PUSH3 0x34A JUMP JUMPDEST PUSH1 0x40 DUP3 ADD MSTORE PUSH3 0x3EF PUSH1 0x60 DUP5 ADD PUSH3 0x34A JUMP JUMPDEST PUSH1 0x60 DUP3 ADD MSTORE PUSH3 0x402 PUSH1 0x80 DUP5 ADD PUSH3 0x34A JUMP JUMPDEST PUSH1 0x80 DUP3 ADD MSTORE PUSH3 0x415 PUSH1 0xA0 DUP5 ADD PUSH3 0x34A JUMP JUMPDEST PUSH1 0xA0 DUP3 ADD MSTORE SWAP4 SWAP3 POP POP POP JUMP JUMPDEST PUSH1 0x80 MLOAD PUSH1 0xA0 MLOAD PUSH1 0xC0 MLOAD PUSH1 0xE0 MLOAD PUSH2 0x100 MLOAD PUSH2 0x120 MLOAD PUSH2 0x379C PUSH3 0x4C5 PUSH1 0x0 CODECOPY PUSH1 0x0 DUP2 DUP2 PUSH2 0x500 ADD MSTORE DUP2 DUP2 PUSH2 0x727 ADD MSTORE DUP2 DUP2 PUSH2 0xC3C ADD MSTORE PUSH2 0x2130 ADD MSTORE PUSH1 0x0 DUP2 DUP2 PUSH2 0x5A8 ADD MSTORE PUSH2 0x191B ADD MSTORE PUSH1 0x0 DUP2 DUP2 PUSH2 0x574 ADD MSTORE DUP2 DUP2 PUSH2 0x1412 ADD MSTORE DUP2 DUP2 PUSH2 0x1A12 ADD MSTORE DUP2 DUP2 PUSH2 0x1B01 ADD MSTORE PUSH2 0x2404 ADD MSTORE PUSH1 0x0 DUP2 DUP2 PUSH2 0x4AC ADD MSTORE PUSH2 0x1FA5 ADD MSTORE PUSH1 0x0 DUP2 DUP2 PUSH2 0x5DC ADD MSTORE PUSH2 0x10AD ADD MSTORE PUSH1 0x0 DUP2 DUP2 PUSH2 0x411 ADD MSTORE DUP2 DUP2 PUSH2 0x1138 ADD MSTORE PUSH2 0x1E08 ADD MSTORE PUSH2 0x379C PUSH1 0x0 RETURN INVALID PUSH1 0x80 PUSH1 0x40 MSTORE PUSH1 0x4 CALLDATASIZE LT PUSH2 0x1E7 JUMPI PUSH1 0x0 CALLDATALOAD PUSH1 0xE0 SHR DUP1 PUSH4 0x61FAC54D GT PUSH2 0x102 JUMPI DUP1 PUSH4 0x9BE17FBC GT PUSH2 0x95 JUMPI DUP1 PUSH4 0xE3D7AD73 GT PUSH2 0x64 JUMPI DUP1 PUSH4 0xE3D7AD73 EQ PUSH2 0x5CA JUMPI DUP1 PUSH4 0xE427535C EQ PUSH2 0x5FE JUMPI DUP1 PUSH4 0xE62194F1 EQ PUSH2 0x61E JUMPI DUP1 PUSH4 0xF890D7C9 EQ PUSH2 0x63E JUMPI PUSH1 0x0 DUP1 REVERT JUMPDEST DUP1 PUSH4 0x9BE17FBC EQ PUSH2 0x522 JUMPI DUP1 PUSH4 0x9D870BF6 EQ PUSH2 0x542 JUMPI DUP1 PUSH4 0xB6664934 EQ PUSH2 0x562 JUMPI DUP1 PUSH4 0xC51ABA2B EQ PUSH2 0x596 JUMPI PUSH1 0x0 DUP1 REVERT JUMPDEST DUP1 PUSH4 0x8DA5CB5B GT PUSH2 0xD1 JUMPI DUP1 PUSH4 0x8DA5CB5B EQ PUSH2 0x485 JUMPI DUP1 PUSH4 0x8F09A6BE EQ PUSH2 0x49A JUMPI DUP1 PUSH4 0x949A1DDC EQ PUSH2 0x4CE JUMPI DUP1 PUSH4 0x979D7E86 EQ PUSH2 0x4EE JUMPI PUSH1 0x0 DUP1 REVERT JUMPDEST DUP1 PUSH4 0x61FAC54D EQ PUSH2 0x433 JUMPI DUP1 PUSH4 0x7DC759E5 EQ PUSH2 0x448 JUMPI DUP1 PUSH4 0x7F5A7C7B EQ PUSH2 0x45B JUMPI DUP1 PUSH4 0x8970220E EQ PUSH2 0x470 JUMPI PUSH1 0x0 DUP1 REVERT JUMPDEST DUP1 PUSH4 0x392F5669 GT PUSH2 0x17A JUMPI DUP1 PUSH4 0x54CF0B39 GT PUSH2 0x149 JUMPI DUP1 PUSH4 0x54CF0B39 EQ PUSH2 0x3A8 JUMPI DUP1 PUSH4 0x54FD4D50 EQ PUSH2 0x3C8 JUMPI DUP1 PUSH4 0x5CF59E1E EQ PUSH2 0x3DD JUMPI DUP1 PUSH4 0x60E741E8 EQ PUSH2 0x3FF JUMPI PUSH1 0x0 DUP1 REVERT JUMPDEST DUP1 PUSH4 0x392F5669 EQ PUSH2 0x31B JUMPI DUP1 PUSH4 0x3DFD3873 EQ PUSH2 0x32E JUMPI DUP1 PUSH4 0x40AC3F0B EQ PUSH2 0x34E JUMPI DUP1 PUSH4 0x516F279E EQ PUSH2 0x37B JUMPI PUSH1 0x0 DUP1 REVERT JUMPDEST DUP1 PUSH4 0x25394645 GT PUSH2 0x1B6 JUMPI DUP1 PUSH4 0x25394645 EQ PUSH2 0x2A6 JUMPI DUP1 PUSH4 0x2663D1F7 EQ PUSH2 0x2C6 JUMPI DUP1 PUSH4 0x2E1A7D4D EQ PUSH2 0x2E6 JUMPI DUP1 PUSH4 0x378F17FF EQ PUSH2 0x306 JUMPI PUSH1 0x0 DUP1 REVERT JUMPDEST DUP1 PUSH4 0x3F7D3BA EQ PUSH2 0x1F3 JUMPI DUP1 PUSH4 0x12DEB11A EQ PUSH2 0x226 JUMPI DUP1 PUSH4 0x150B7A02 EQ PUSH2 0x248 JUMPI DUP1 PUSH4 0x181D939B EQ PUSH2 0x281 JUMPI PUSH1 0x0 DUP1 REVERT JUMPDEST CALLDATASIZE PUSH2 0x1EE JUMPI STOP JUMPDEST PUSH1 0x0 DUP1 REVERT JUMPDEST CALLVALUE DUP1 ISZERO PUSH2 0x1FF JUMPI PUSH1 0x0 DUP1 REVERT JUMPDEST POP PUSH2 0x213 PUSH2 0x20E CALLDATASIZE PUSH1 0x4 PUSH2 0x2B44 JUMP JUMPDEST PUSH2 0x653 JUMP JUMPDEST PUSH1 0x40 MLOAD SWAP1 DUP2 MSTORE PUSH1 0x20 ADD JUMPDEST PUSH1 0x40 MLOAD DUP1 SWAP2 SUB SWAP1 RETURN JUMPDEST CALLVALUE DUP1 ISZERO PUSH2 0x232 JUMPI PUSH1 0x0 DUP1 REVERT JUMPDEST POP PUSH2 0x246 PUSH2 0x241 CALLDATASIZE PUSH1 0x4 PUSH2 0x2B61 JUMP JUMPDEST PUSH2 0x680 JUMP JUMPDEST STOP JUMPDEST CALLVALUE DUP1 ISZERO PUSH2 0x254 JUMPI PUSH1 0x0 DUP1 REVERT JUMPDEST POP PUSH2 0x268 PUSH2 0x263 CALLDATASIZE PUSH1 0x4 PUSH2 0x2BC1 JUMP JUMPDEST PUSH2 0xC10 JUMP JUMPDEST PUSH1 0x40 MLOAD PUSH1 0x1 PUSH1 0x1 PUSH1 0xE0 SHL SUB NOT SWAP1 SWAP2 AND DUP2 MSTORE PUSH1 0x20 ADD PUSH2 0x21D JUMP JUMPDEST CALLVALUE DUP1 ISZERO PUSH2 0x28D JUMPI PUSH1 0x0 DUP1 REVERT JUMPDEST POP PUSH2 0x296 PUSH2 0x1046 JUMP JUMPDEST PUSH1 0x40 MLOAD SWAP1 ISZERO ISZERO DUP2 MSTORE PUSH1 0x20 ADD PUSH2 0x21D JUMP JUMPDEST CALLVALUE DUP1 ISZERO PUSH2 0x2B2 JUMPI PUSH1 0x0 DUP1 REVERT JUMPDEST POP PUSH2 0x246 PUSH2 0x2C1 CALLDATASIZE PUSH1 0x4 PUSH2 0x2C33 JUMP JUMPDEST PUSH2 0x105B JUMP JUMPDEST CALLVALUE DUP1 ISZERO PUSH2 0x2D2 JUMPI PUSH1 0x0 DUP1 REVERT JUMPDEST POP PUSH2 0x246 PUSH2 0x2E1 CALLDATASIZE PUSH1 0x4 PUSH2 0x2B44 JUMP JUMPDEST PUSH2 0x112D JUMP JUMPDEST CALLVALUE DUP1 ISZERO PUSH2 0x2F2 JUMPI PUSH1 0x0 DUP1 REVERT JUMPDEST POP PUSH2 0x246 PUSH2 0x301 CALLDATASIZE PUSH1 0x4 PUSH2 0x2C74 JUMP JUMPDEST PUSH2 0x11E6 JUMP JUMPDEST CALLVALUE DUP1 ISZERO PUSH2 0x312 JUMPI PUSH1 0x0 DUP1 REVERT JUMPDEST POP PUSH2 0x246 PUSH2 0x12CE JUMP JUMPDEST PUSH2 0x246 PUSH2 0x329 CALLDATASIZE PUSH1 0x4 PUSH2 0x2DF8 JUMP JUMPDEST PUSH2 0x1355 JUMP JUMPDEST CALLVALUE DUP1 ISZERO PUSH2 0x33A JUMPI PUSH1 0x0 DUP1 REVERT JUMPDEST POP PUSH2 0x246 PUSH2 0x349 CALLDATASIZE PUSH1 0x4 PUSH2 0x2B44 JUMP JUMPDEST PUSH2 0x1530 JUMP JUMPDEST CALLVALUE DUP1 ISZERO PUSH2 0x35A JUMPI PUSH1 0x0 DUP1 REVERT JUMPDEST POP PUSH2 0x36E PUSH2 0x369 CALLDATASIZE PUSH1 0x4 PUSH2 0x2E42 JUMP JUMPDEST PUSH2 0x1629 JUMP JUMPDEST PUSH1 0x40 MLOAD PUSH2 0x21D SWAP2 SWAP1 PUSH2 0x2F11 JUMP JUMPDEST CALLVALUE DUP1 ISZERO PUSH2 0x387 JUMPI PUSH1 0x0 DUP1 REVERT JUMPDEST POP PUSH2 0x390 PUSH2 0x1652 JUMP JUMPDEST PUSH1 0x40 MLOAD PUSH1 0x1 PUSH1 0x1 PUSH1 0xA0 SHL SUB SWAP1 SWAP2 AND DUP2 MSTORE PUSH1 0x20 ADD PUSH2 0x21D JUMP JUMPDEST CALLVALUE DUP1 ISZERO PUSH2 0x3B4 JUMPI PUSH1 0x0 DUP1 REVERT JUMPDEST POP PUSH2 0x246 PUSH2 0x3C3 CALLDATASIZE PUSH1 0x4 PUSH2 0x2B61 JUMP JUMPDEST PUSH2 0x1670 JUMP JUMPDEST CALLVALUE DUP1 ISZERO PUSH2 0x3D4 JUMPI PUSH1 0x0 DUP1 REVERT JUMPDEST POP PUSH2 0x213 PUSH1 0x1 DUP2 JUMP JUMPDEST CALLVALUE DUP1 ISZERO PUSH2 0x3E9 JUMPI PUSH1 0x0 DUP1 REVERT JUMPDEST POP PUSH2 0x3F2 PUSH2 0x17D6 JUMP JUMPDEST PUSH1 0x40 MLOAD PUSH2 0x21D SWAP2 SWAP1 PUSH2 0x2F24 JUMP JUMPDEST CALLVALUE DUP1 ISZERO PUSH2 0x40B JUMPI PUSH1 0x0 DUP1 REVERT JUMPDEST POP PUSH2 0x390 PUSH32 0x0 DUP2 JUMP JUMPDEST CALLVALUE DUP1 ISZERO PUSH2 0x43F JUMPI PUSH1 0x0 DUP1 REVERT JUMPDEST POP PUSH2 0x36E PUSH2 0x1865 JUMP JUMPDEST PUSH2 0x246 PUSH2 0x456 CALLDATASIZE PUSH1 0x4 PUSH2 0x2DF8 JUMP JUMPDEST PUSH2 0x1906 JUMP JUMPDEST CALLVALUE DUP1 ISZERO PUSH2 0x467 JUMPI PUSH1 0x0 DUP1 REVERT JUMPDEST POP PUSH2 0x390 PUSH2 0x1C1E JUMP JUMPDEST CALLVALUE DUP1 ISZERO PUSH2 0x47C JUMPI PUSH1 0x0 DUP1 REVERT JUMPDEST POP PUSH2 0x36E PUSH2 0x1C3C JUMP JUMPDEST CALLVALUE DUP1 ISZERO PUSH2 0x491 JUMPI PUSH1 0x0 DUP1 REVERT JUMPDEST POP PUSH2 0x390 PUSH2 0x1C59 JUMP JUMPDEST CALLVALUE DUP1 ISZERO PUSH2 0x4A6 JUMPI PUSH1 0x0 DUP1 REVERT JUMPDEST POP PUSH2 0x390 PUSH32 0x0 DUP2 JUMP JUMPDEST CALLVALUE DUP1 ISZERO PUSH2 0x4DA JUMPI PUSH1 0x0 DUP1 REVERT JUMPDEST POP PUSH2 0x246 PUSH2 0x4E9 CALLDATASIZE PUSH1 0x4 PUSH2 0x2F84 JUMP JUMPDEST PUSH2 0x1C79 JUMP JUMPDEST CALLVALUE DUP1 ISZERO PUSH2 0x4FA JUMPI PUSH1 0x0 DUP1 REVERT JUMPDEST POP PUSH2 0x390 PUSH32 0x0 DUP2 JUMP JUMPDEST CALLVALUE DUP1 ISZERO PUSH2 0x52E JUMPI PUSH1 0x0 DUP1 REVERT JUMPDEST POP PUSH2 0x296 PUSH2 0x53D CALLDATASIZE PUSH1 0x4 PUSH2 0x2B61 JUMP JUMPDEST PUSH2 0x1D12 JUMP JUMPDEST CALLVALUE DUP1 ISZERO PUSH2 0x54E JUMPI PUSH1 0x0 DUP1 REVERT JUMPDEST POP PUSH2 0x246 PUSH2 0x55D CALLDATASIZE PUSH1 0x4 PUSH2 0x2FB8 JUMP JUMPDEST PUSH2 0x1DA4 JUMP JUMPDEST CALLVALUE DUP1 ISZERO PUSH2 0x56E JUMPI PUSH1 0x0 DUP1 REVERT JUMPDEST POP PUSH2 0x390 PUSH32 0x0 DUP2 JUMP JUMPDEST CALLVALUE DUP1 ISZERO PUSH2 0x5A2 JUMPI PUSH1 0x0 DUP1 REVERT JUMPDEST POP PUSH2 0x390 PUSH32 0x0 DUP2 JUMP JUMPDEST CALLVALUE DUP1 ISZERO PUSH2 0x5D6 JUMPI PUSH1 0x0 DUP1 REVERT JUMPDEST POP PUSH2 0x390 PUSH32 0x0 DUP2 JUMP JUMPDEST CALLVALUE DUP1 ISZERO PUSH2 0x60A JUMPI PUSH1 0x0 DUP1 REVERT JUMPDEST POP PUSH2 0x246 PUSH2 0x619 CALLDATASIZE PUSH1 0x4 PUSH2 0x2FD5 JUMP JUMPDEST PUSH2 0x1DFD JUMP JUMPDEST CALLVALUE DUP1 ISZERO PUSH2 0x62A JUMPI PUSH1 0x0 DUP1 REVERT JUMPDEST POP PUSH2 0x246 PUSH2 0x639 CALLDATASIZE PUSH1 0x4 PUSH2 0x2C74 JUMP JUMPDEST PUSH2 0x2106 JUMP JUMPDEST CALLVALUE DUP1 ISZERO PUSH2 0x64A JUMPI PUSH1 0x0 DUP1 REVERT JUMPDEST POP PUSH2 0x213 PUSH2 0x235F JUMP JUMPDEST PUSH1 0x0 DUP1 PUSH2 0x65E PUSH2 0x2374 JUMP JUMPDEST PUSH1 0x1 PUSH1 0x1 PUSH1 0xA0 SHL SUB SWAP1 SWAP4 AND PUSH1 0x0 SWAP1 DUP2 MSTORE PUSH1 0x5 SWAP1 SWAP4 ADD PUSH1 0x20 MSTORE POP POP PUSH1 0x40 SWAP1 KECCAK256 SLOAD SWAP1 JUMP JUMPDEST PUSH1 0x0 PUSH2 0x68A PUSH2 0x2374 JUMP JUMPDEST DUP1 SLOAD SWAP1 SWAP2 POP PUSH2 0x100 SWAP1 DIV PUSH1 0x1 PUSH1 0x1 PUSH1 0xA0 SHL SUB AND CALLER EQ PUSH2 0x6C4 JUMPI PUSH1 0x40 MLOAD PUSH3 0x461BCD PUSH1 0xE5 SHL DUP2 MSTORE PUSH1 0x4 ADD PUSH2 0x6BB SWAP1 PUSH2 0x3074 JUMP JUMPDEST PUSH1 0x40 MLOAD DUP1 SWAP2 SUB SWAP1 REVERT JUMPDEST PUSH1 0x0 PUSH2 0x6D3 PUSH1 0x20 DUP5 ADD DUP5 PUSH2 0x2B44 JUMP JUMPDEST PUSH1 0x1 PUSH1 0x1 PUSH1 0xA0 SHL SUB AND SUB PUSH2 0x6F9 JUMPI PUSH1 0x40 MLOAD PUSH3 0x461BCD PUSH1 0xE5 SHL DUP2 MSTORE PUSH1 0x4 ADD PUSH2 0x6BB SWAP1 PUSH2 0x30BD JUMP JUMPDEST PUSH1 0x0 DUP3 PUSH1 0x20 ADD CALLDATALOAD GT PUSH2 0x71D JUMPI PUSH1 0x40 MLOAD PUSH3 0x461BCD PUSH1 0xE5 SHL DUP2 MSTORE PUSH1 0x4 ADD PUSH2 0x6BB SWAP1 PUSH2 0x310A JUMP JUMPDEST PUSH1 0x1 PUSH1 0x1 PUSH1 0xA0 SHL SUB PUSH32 0x0 AND PUSH4 0xADEC5618 PUSH2 0x759 PUSH1 0x20 DUP6 ADD DUP6 PUSH2 0x2B44 JUMP JUMPDEST PUSH1 0x40 MLOAD PUSH1 0x1 PUSH1 0x1 PUSH1 0xE0 SHL SUB NOT PUSH1 0xE0 DUP5 SWAP1 SHL AND DUP2 MSTORE PUSH1 0x1 PUSH1 0x1 PUSH1 0xA0 SHL SUB SWAP1 SWAP2 AND PUSH1 0x4 DUP3 ADD MSTORE PUSH1 0x24 ADD PUSH1 0x20 PUSH1 0x40 MLOAD DUP1 DUP4 SUB DUP2 DUP7 GAS STATICCALL ISZERO DUP1 ISZERO PUSH2 0x79D JUMPI RETURNDATASIZE PUSH1 0x0 DUP1 RETURNDATACOPY RETURNDATASIZE PUSH1 0x0 REVERT JUMPDEST POP POP POP POP PUSH1 0x40 MLOAD RETURNDATASIZE PUSH1 0x1F NOT PUSH1 0x1F DUP3 ADD AND DUP3 ADD DUP1 PUSH1 0x40 MSTORE POP DUP2 ADD SWAP1 PUSH2 0x7C1 SWAP2 SWAP1 PUSH2 0x3151 JUMP JUMPDEST PUSH2 0x81B JUMPI PUSH1 0x40 MLOAD PUSH3 0x461BCD PUSH1 0xE5 SHL DUP2 MSTORE PUSH1 0x20 PUSH1 0x4 DUP3 ADD MSTORE PUSH1 0x25 PUSH1 0x24 DUP3 ADD MSTORE PUSH32 0x4176617461723A207765617261626C65206173736574206E6F74207265676973 PUSH1 0x44 DUP3 ADD MSTORE PUSH5 0x1D195C9959 PUSH1 0xDA SHL PUSH1 0x64 DUP3 ADD MSTORE PUSH1 0x84 ADD PUSH2 0x6BB JUMP JUMPDEST PUSH1 0x0 PUSH2 0x82A PUSH1 0x20 DUP5 ADD DUP5 PUSH2 0x2B44 JUMP JUMPDEST SWAP1 POP PUSH1 0x0 PUSH2 0x836 PUSH2 0x1652 JUMP JUMPDEST SWAP1 POP PUSH2 0x845 PUSH1 0x20 DUP6 ADD DUP6 PUSH2 0x2B44 JUMP JUMPDEST PUSH1 0x1 PUSH1 0x1 PUSH1 0xA0 SHL SUB AND PUSH4 0x3FA47F17 PUSH1 0x40 MLOAD DUP1 PUSH1 0xA0 ADD PUSH1 0x40 MSTORE DUP1 DUP8 PUSH1 0x0 ADD PUSH1 0x20 DUP2 ADD SWAP1 PUSH2 0x871 SWAP2 SWAP1 PUSH2 0x2B44 JUMP JUMPDEST PUSH1 0x1 PUSH1 0x1 PUSH1 0xA0 SHL SUB AND DUP2 MSTORE PUSH1 0x20 ADD DUP5 PUSH1 0x1 PUSH1 0x1 PUSH1 0xA0 SHL SUB AND PUSH4 0x30B67BAA PUSH1 0x40 MLOAD DUP2 PUSH4 0xFFFFFFFF AND PUSH1 0xE0 SHL DUP2 MSTORE PUSH1 0x4 ADD PUSH1 0x20 PUSH1 0x40 MLOAD DUP1 DUP4 SUB DUP2 DUP7 GAS STATICCALL ISZERO DUP1 ISZERO PUSH2 0x8BD JUMPI RETURNDATASIZE PUSH1 0x0 DUP1 RETURNDATACOPY RETURNDATASIZE PUSH1 0x0 REVERT JUMPDEST POP POP POP POP PUSH1 0x40 MLOAD RETURNDATASIZE PUSH1 0x1F NOT PUSH1 0x1F DUP3 ADD AND DUP3 ADD DUP1 PUSH1 0x40 MSTORE POP DUP2 ADD SWAP1 PUSH2 0x8E1 SWAP2 SWAP1 PUSH2 0x316E JUMP JUMPDEST PUSH1 0x1 PUSH1 0x1 PUSH1 0xA0 SHL SUB AND DUP2 MSTORE PUSH1 0x20 ADD DUP5 PUSH1 0x1 PUSH1 0x1 PUSH1 0xA0 SHL SUB AND PUSH4 0x6904C94D PUSH1 0x40 MLOAD DUP2 PUSH4 0xFFFFFFFF AND PUSH1 0xE0 SHL DUP2 MSTORE PUSH1 0x4 ADD PUSH1 0x20 PUSH1 0x40 MLOAD DUP1 DUP4 SUB DUP2 DUP7 GAS STATICCALL ISZERO DUP1 ISZERO PUSH2 0x92D JUMPI RETURNDATASIZE PUSH1 0x0 DUP1 RETURNDATACOPY RETURNDATASIZE PUSH1 0x0 REVERT JUMPDEST POP POP POP POP PUSH1 0x40 MLOAD RETURNDATASIZE PUSH1 0x1F NOT PUSH1 0x1F DUP3 ADD AND DUP3 ADD DUP1 PUSH1 0x40 MSTORE POP DUP2 ADD SWAP1 PUSH2 0x951 SWAP2 SWAP1 PUSH2 0x316E JUMP JUMPDEST PUSH1 0x1 PUSH1 0x1 PUSH1 0xA0 SHL SUB SWAP1 DUP2 AND DUP3 MSTORE DUP6 DUP2 AND PUSH1 0x20 DUP1 DUP5 ADD SWAP2 SWAP1 SWAP2 MSTORE ADDRESS PUSH1 0x40 SWAP4 DUP5 ADD MSTORE DUP3 MLOAD PUSH1 0xE0 DUP7 SWAP1 SHL PUSH1 0x1 PUSH1 0x1 PUSH1 0xE0 SHL SUB NOT AND DUP2 MSTORE DUP5 MLOAD DUP4 AND PUSH1 0x4 DUP3 ADD MSTORE SWAP1 DUP5 ADD MLOAD DUP3 AND PUSH1 0x24 DUP3 ADD MSTORE SWAP2 DUP4 ADD MLOAD DUP2 AND PUSH1 0x44 DUP4 ADD MSTORE PUSH1 0x60 DUP4 ADD MLOAD DUP2 AND PUSH1 0x64 DUP4 ADD MSTORE PUSH1 0x80 SWAP1 SWAP3 ADD MLOAD SWAP1 SWAP2 AND PUSH1 0x84 DUP3 ADD MSTORE PUSH1 0xA4 ADD PUSH1 0x20 PUSH1 0x40 MLOAD DUP1 DUP4 SUB DUP2 DUP7 GAS STATICCALL ISZERO DUP1 ISZERO PUSH2 0x9DD JUMPI RETURNDATASIZE PUSH1 0x0 DUP1 RETURNDATACOPY RETURNDATASIZE PUSH1 0x0 REVERT JUMPDEST POP POP POP POP PUSH1 0x40 MLOAD RETURNDATASIZE PUSH1 0x1F NOT PUSH1 0x1F DUP3 ADD AND DUP3 ADD DUP1 PUSH1 0x40 MSTORE POP DUP2 ADD SWAP1 PUSH2 0xA01 SWAP2 SWAP1 PUSH2 0x3151 JUMP JUMPDEST PUSH2 0xA65 JUMPI PUSH1 0x40 MLOAD PUSH3 0x461BCD PUSH1 0xE5 SHL DUP2 MSTORE PUSH1 0x20 PUSH1 0x4 DUP3 ADD MSTORE PUSH1 0x2F PUSH1 0x24 DUP3 ADD MSTORE PUSH32 0x4176617461723A207765617261626C652061737365742063616E6E6F74206265 PUSH1 0x44 DUP3 ADD MSTORE PUSH15 0x103AB9B2B210313C9030BB30BA30B9 PUSH1 0x89 SHL PUSH1 0x64 DUP3 ADD MSTORE PUSH1 0x84 ADD PUSH2 0x6BB JUMP JUMPDEST PUSH1 0x40 MLOAD PUSH4 0x31A9108F PUSH1 0xE1 SHL DUP2 MSTORE PUSH1 0x20 DUP6 ADD CALLDATALOAD PUSH1 0x4 DUP3 ADD MSTORE ADDRESS SWAP1 PUSH1 0x1 PUSH1 0x1 PUSH1 0xA0 SHL SUB DUP5 AND SWAP1 PUSH4 0x6352211E SWAP1 PUSH1 0x24 ADD PUSH1 0x20 PUSH1 0x40 MLOAD DUP1 DUP4 SUB DUP2 DUP7 GAS STATICCALL ISZERO DUP1 ISZERO PUSH2 0xAAF JUMPI RETURNDATASIZE PUSH1 0x0 DUP1 RETURNDATACOPY RETURNDATASIZE PUSH1 0x0 REVERT JUMPDEST POP POP POP POP PUSH1 0x40 MLOAD RETURNDATASIZE PUSH1 0x1F NOT PUSH1 0x1F DUP3 ADD AND DUP3 ADD DUP1 PUSH1 0x40 MSTORE POP DUP2 ADD SWAP1 PUSH2 0xAD3 SWAP2 SWAP1 PUSH2 0x316E JUMP JUMPDEST PUSH1 0x1 PUSH1 0x1 PUSH1 0xA0 SHL SUB AND EQ PUSH2 0xB3C JUMPI PUSH1 0x40 MLOAD PUSH3 0x461BCD PUSH1 0xE5 SHL DUP2 MSTORE PUSH1 0x20 PUSH1 0x4 DUP3 ADD MSTORE PUSH1 0x2A PUSH1 0x24 DUP3 ADD MSTORE PUSH32 0x4176617461723A207765617261626C6520746F6B656E206E6F74206F776E6564 PUSH1 0x44 DUP3 ADD MSTORE PUSH10 0x10313C9030BB30BA30B9 PUSH1 0xB1 SHL PUSH1 0x64 DUP3 ADD MSTORE PUSH1 0x84 ADD PUSH2 0x6BB JUMP JUMPDEST PUSH1 0x0 PUSH2 0xB46 PUSH2 0x2374 JUMP JUMPDEST PUSH1 0x40 MLOAD PUSH4 0xDFD3DF7 PUSH1 0xE1 SHL DUP2 MSTORE SWAP1 SWAP2 POP PUSH20 0x0 SWAP1 PUSH4 0x1BFA7BEE SWAP1 PUSH2 0xB85 SWAP1 PUSH1 0x7 DUP6 ADD SWAP1 DUP10 SWAP1 PUSH1 0x4 ADD PUSH2 0x318B JUMP JUMPDEST PUSH1 0x0 PUSH1 0x40 MLOAD DUP1 DUP4 SUB DUP2 DUP7 DUP1 EXTCODESIZE ISZERO DUP1 ISZERO PUSH2 0xB9D JUMPI PUSH1 0x0 DUP1 REVERT JUMPDEST POP GAS DELEGATECALL ISZERO DUP1 ISZERO PUSH2 0xBB1 JUMPI RETURNDATASIZE PUSH1 0x0 DUP1 RETURNDATACOPY RETURNDATASIZE PUSH1 0x0 REVERT JUMPDEST POP PUSH2 0xBC3 SWAP3 POP POP POP PUSH1 0x20 DUP7 ADD DUP7 PUSH2 0x2B44 JUMP JUMPDEST PUSH1 0x1 PUSH1 0x1 PUSH1 0xA0 SHL SUB AND PUSH32 0xC33FDB2E96E0DBA49A8CB36AF300177E6BA61804BE87A31A26E27AB52596ECF2 DUP7 PUSH1 0x20 ADD CALLDATALOAD PUSH1 0x40 MLOAD PUSH2 0xC01 SWAP2 DUP2 MSTORE PUSH1 0x20 ADD SWAP1 JUMP JUMPDEST PUSH1 0x40 MLOAD DUP1 SWAP2 SUB SWAP1 LOG2 POP POP POP POP POP JUMP JUMPDEST PUSH1 0x0 PUSH2 0xC1A PUSH2 0x2398 JUMP JUMPDEST PUSH1 0x0 PUSH2 0xC24 PUSH2 0x2374 JUMP JUMPDEST PUSH1 0x40 MLOAD PUSH4 0x15BD8AC3 PUSH1 0xE3 SHL DUP2 MSTORE CALLER PUSH1 0x4 DUP3 ADD MSTORE SWAP1 SWAP2 POP PUSH32 0x0 PUSH1 0x1 PUSH1 0x1 PUSH1 0xA0 SHL SUB AND SWAP1 PUSH4 0xADEC5618 SWAP1 PUSH1 0x24 ADD PUSH1 0x20 PUSH1 0x40 MLOAD DUP1 DUP4 SUB DUP2 DUP7 GAS STATICCALL ISZERO DUP1 ISZERO PUSH2 0xC8B JUMPI RETURNDATASIZE PUSH1 0x0 DUP1 RETURNDATACOPY RETURNDATASIZE PUSH1 0x0 REVERT JUMPDEST POP POP POP POP PUSH1 0x40 MLOAD RETURNDATASIZE PUSH1 0x1F NOT PUSH1 0x1F DUP3 ADD AND DUP3 ADD DUP1 PUSH1 0x40 MSTORE POP DUP2 ADD SWAP1 PUSH2 0xCAF SWAP2 SWAP1 PUSH2 0x3151 JUMP JUMPDEST PUSH2 0xD12 JUMPI PUSH1 0x40 MLOAD PUSH3 0x461BCD PUSH1 0xE5 SHL DUP2 MSTORE PUSH1 0x20 PUSH1 0x4 DUP3 ADD MSTORE PUSH1 0x2E PUSH1 0x24 DUP3 ADD MSTORE PUSH32 0x4176617461723A2045524337323120746F6B656E206E6F742066726F6D207265 PUSH1 0x44 DUP3 ADD MSTORE PUSH14 0x19DA5CDD195C995908185CDCD95D PUSH1 0x92 SHL PUSH1 0x64 DUP3 ADD MSTORE PUSH1 0x84 ADD PUSH2 0x6BB JUMP JUMPDEST DUP1 SLOAD CALLER SWAP1 PUSH1 0xFF AND PUSH2 0xE74 JUMPI PUSH1 0x0 CALLER PUSH1 0x1 PUSH1 0x1 PUSH1 0xA0 SHL SUB AND PUSH4 0x1D143848 PUSH1 0x40 MLOAD DUP2 PUSH4 0xFFFFFFFF AND PUSH1 0xE0 SHL DUP2 MSTORE PUSH1 0x4 ADD PUSH1 0x20 PUSH1 0x40 MLOAD DUP1 DUP4 SUB DUP2 DUP7 GAS STATICCALL ISZERO DUP1 ISZERO PUSH2 0xD5D JUMPI RETURNDATASIZE PUSH1 0x0 DUP1 RETURNDATACOPY RETURNDATASIZE PUSH1 0x0 REVERT JUMPDEST POP POP POP POP PUSH1 0x40 MLOAD RETURNDATASIZE PUSH1 0x1F NOT PUSH1 0x1F DUP3 ADD AND DUP3 ADD DUP1 PUSH1 0x40 MSTORE POP DUP2 ADD SWAP1 PUSH2 0xD81 SWAP2 SWAP1 PUSH2 0x316E JUMP JUMPDEST PUSH1 0x1 DUP5 ADD SLOAD PUSH1 0x40 DUP1 MLOAD PUSH4 0x6904C94D PUSH1 0xE0 SHL DUP2 MSTORE SWAP1 MLOAD SWAP3 SWAP4 POP PUSH1 0x1 PUSH1 0x1 PUSH1 0xA0 SHL SUB SWAP1 SWAP2 AND SWAP2 DUP3 SWAP2 PUSH4 0x6904C94D SWAP2 PUSH1 0x4 DUP1 DUP4 ADD SWAP3 PUSH1 0x20 SWAP3 SWAP2 SWAP1 DUP3 SWAP1 SUB ADD DUP2 DUP7 GAS STATICCALL ISZERO DUP1 ISZERO PUSH2 0xDD1 JUMPI RETURNDATASIZE PUSH1 0x0 DUP1 RETURNDATACOPY RETURNDATASIZE PUSH1 0x0 REVERT JUMPDEST POP POP POP POP PUSH1 0x40 MLOAD RETURNDATASIZE PUSH1 0x1F NOT PUSH1 0x1F DUP3 ADD AND DUP3 ADD DUP1 PUSH1 0x40 MSTORE POP DUP2 ADD SWAP1 PUSH2 0xDF5 SWAP2 SWAP1 PUSH2 0x316E JUMP JUMPDEST PUSH1 0x1 PUSH1 0x1 PUSH1 0xA0 SHL SUB AND DUP3 PUSH1 0x1 PUSH1 0x1 PUSH1 0xA0 SHL SUB AND EQ PUSH2 0xE71 JUMPI PUSH1 0x40 MLOAD PUSH3 0x461BCD PUSH1 0xE5 SHL DUP2 MSTORE PUSH1 0x20 PUSH1 0x4 DUP3 ADD MSTORE PUSH1 0x33 PUSH1 0x24 DUP3 ADD MSTORE PUSH32 0x4176617461723A2063616E6E6F74207265636569766520746F6B656E73206F75 PUSH1 0x44 DUP3 ADD MSTORE PUSH19 0x7473696465206F6620657870657269656E6365 PUSH1 0x68 SHL PUSH1 0x64 DUP3 ADD MSTORE PUSH1 0x84 ADD PUSH2 0x6BB JUMP JUMPDEST POP POP JUMPDEST PUSH1 0x40 MLOAD PUSH4 0x31A9108F PUSH1 0xE1 SHL DUP2 MSTORE PUSH1 0x4 DUP2 ADD DUP8 SWAP1 MSTORE ADDRESS SWAP1 PUSH1 0x1 PUSH1 0x1 PUSH1 0xA0 SHL SUB DUP4 AND SWAP1 PUSH4 0x6352211E SWAP1 PUSH1 0x24 ADD PUSH1 0x20 PUSH1 0x40 MLOAD DUP1 DUP4 SUB DUP2 DUP7 GAS STATICCALL ISZERO DUP1 ISZERO PUSH2 0xEBB JUMPI RETURNDATASIZE PUSH1 0x0 DUP1 RETURNDATACOPY RETURNDATASIZE PUSH1 0x0 REVERT JUMPDEST POP POP POP POP PUSH1 0x40 MLOAD RETURNDATASIZE PUSH1 0x1F NOT PUSH1 0x1F DUP3 ADD AND DUP3 ADD DUP1 PUSH1 0x40 MSTORE POP DUP2 ADD SWAP1 PUSH2 0xEDF SWAP2 SWAP1 PUSH2 0x316E JUMP JUMPDEST PUSH1 0x1 PUSH1 0x1 PUSH1 0xA0 SHL SUB AND EQ PUSH2 0xF46 JUMPI PUSH1 0x40 MLOAD PUSH3 0x461BCD PUSH1 0xE5 SHL DUP2 MSTORE PUSH1 0x20 PUSH1 0x4 DUP3 ADD MSTORE PUSH1 0x28 PUSH1 0x24 DUP3 ADD MSTORE PUSH32 0x4176617461723A2045524337323120746F6B656E206E6F74206F776E65642062 PUSH1 0x44 DUP3 ADD MSTORE PUSH8 0x3C9030BB30BA30B9 PUSH1 0xC1 SHL PUSH1 0x64 DUP3 ADD MSTORE PUSH1 0x84 ADD PUSH2 0x6BB JUMP JUMPDEST PUSH1 0x2 DUP3 ADD SLOAD PUSH1 0x1 PUSH1 0x1 PUSH1 0xA0 SHL SUB AND ISZERO PUSH2 0x102D JUMPI PUSH1 0x2 DUP3 ADD SLOAD PUSH1 0x40 MLOAD PUSH4 0x1D9A6BD1 PUSH1 0xE1 SHL DUP2 MSTORE ADDRESS PUSH1 0x4 DUP3 ADD MSTORE CALLER PUSH1 0x24 DUP3 ADD MSTORE PUSH1 0x44 DUP2 ADD DUP9 SWAP1 MSTORE PUSH1 0x1 PUSH1 0x1 PUSH1 0xA0 SHL SUB SWAP1 SWAP2 AND SWAP1 PUSH4 0x3B34D7A2 SWAP1 PUSH1 0x64 ADD PUSH1 0x20 PUSH1 0x40 MLOAD DUP1 DUP4 SUB DUP2 PUSH1 0x0 DUP8 GAS CALL ISZERO DUP1 ISZERO PUSH2 0xFB2 JUMPI RETURNDATASIZE PUSH1 0x0 DUP1 RETURNDATACOPY RETURNDATASIZE PUSH1 0x0 REVERT JUMPDEST POP POP POP POP PUSH1 0x40 MLOAD RETURNDATASIZE PUSH1 0x1F NOT PUSH1 0x1F DUP3 ADD AND DUP3 ADD DUP1 PUSH1 0x40 MSTORE POP DUP2 ADD SWAP1 PUSH2 0xFD6 SWAP2 SWAP1 PUSH2 0x3151 JUMP JUMPDEST PUSH2 0x102D JUMPI PUSH1 0x40 MLOAD PUSH3 0x461BCD PUSH1 0xE5 SHL DUP2 MSTORE PUSH1 0x20 PUSH1 0x4 DUP3 ADD MSTORE PUSH1 0x22 PUSH1 0x24 DUP3 ADD MSTORE PUSH32 0x4176617461723A20686F6F6B2072656A65637465642045524337323120746F6B PUSH1 0x44 DUP3 ADD MSTORE PUSH2 0x32B7 PUSH1 0xF1 SHL PUSH1 0x64 DUP3 ADD MSTORE PUSH1 0x84 ADD PUSH2 0x6BB JUMP JUMPDEST POP POP PUSH1 0x1 PUSH1 0x0 SSTORE POP PUSH4 0xA85BD01 PUSH1 0xE1 SHL SWAP6 SWAP5 POP POP POP POP POP JUMP JUMPDEST PUSH1 0x0 DUP1 PUSH2 0x1051 PUSH2 0x2374 JUMP JUMPDEST SLOAD PUSH1 0xFF AND SWAP3 SWAP2 POP POP JUMP JUMPDEST PUSH1 0x0 PUSH2 0x1065 PUSH2 0x2374 JUMP JUMPDEST DUP1 SLOAD SWAP1 SWAP2 POP PUSH2 0x100 SWAP1 DIV PUSH1 0x1 PUSH1 0x1 PUSH1 0xA0 SHL SUB AND CALLER EQ PUSH2 0x1096 JUMPI PUSH1 0x40 MLOAD PUSH3 0x461BCD PUSH1 0xE5 SHL DUP2 MSTORE PUSH1 0x4 ADD PUSH2 0x6BB SWAP1 PUSH2 0x3074 JUMP JUMPDEST PUSH1 0x40 MLOAD PUSH4 0x612CA621 PUSH1 0xE0 SHL DUP2 MSTORE PUSH1 0x1 PUSH1 0x1 PUSH1 0xA0 SHL SUB PUSH32 0x0 AND SWAP1 PUSH4 0x612CA621 SWAP1 PUSH2 0x10E4 SWAP1 DUP7 SWAP1 DUP7 SWAP1 PUSH1 0x4 ADD PUSH2 0x31BF JUMP JUMPDEST PUSH1 0x20 PUSH1 0x40 MLOAD DUP1 DUP4 SUB DUP2 PUSH1 0x0 DUP8 GAS CALL ISZERO DUP1 ISZERO PUSH2 0x1103 JUMPI RETURNDATASIZE PUSH1 0x0 DUP1 RETURNDATACOPY RETURNDATASIZE PUSH1 0x0 REVERT JUMPDEST POP POP POP POP PUSH1 0x40 MLOAD RETURNDATASIZE PUSH1 0x1F NOT PUSH1 0x1F DUP3 ADD AND DUP3 ADD DUP1 PUSH1 0x40 MSTORE POP DUP2 ADD SWAP1 PUSH2 0x1127 SWAP2 SWAP1 PUSH2 0x316E JUMP JUMPDEST POP POP POP POP JUMP JUMPDEST CALLER PUSH1 0x1 PUSH1 0x1 PUSH1 0xA0 SHL SUB PUSH32 0x0 AND EQ PUSH2 0x1175 JUMPI PUSH1 0x40 MLOAD PUSH3 0x461BCD PUSH1 0xE5 SHL DUP2 MSTORE PUSH1 0x4 ADD PUSH2 0x6BB SWAP1 PUSH2 0x31EE JUMP JUMPDEST PUSH32 0x69198989339F34E10129E514286BDE98979351148754FAEF989DDE18BF6D14DA DUP1 SLOAD PUSH1 0x1 PUSH1 0x1 PUSH1 0xA0 SHL SUB NOT DUP2 AND PUSH1 0x1 PUSH1 0x1 PUSH1 0xA0 SHL SUB DUP5 DUP2 AND SWAP2 DUP3 OR DUP5 SSTORE PUSH1 0x40 MLOAD SWAP3 AND SWAP2 DUP3 SWAP1 PUSH32 0x722EE95A7E2EED3235F2E3BDB62D3F6E70079578905580FBF8BB414519DD6172 SWAP1 PUSH1 0x0 SWAP1 LOG3 POP POP POP JUMP JUMPDEST PUSH1 0x0 PUSH2 0x11F0 PUSH2 0x2374 JUMP JUMPDEST DUP1 SLOAD SWAP1 SWAP2 POP PUSH2 0x100 SWAP1 DIV PUSH1 0x1 PUSH1 0x1 PUSH1 0xA0 SHL SUB AND CALLER EQ PUSH2 0x1221 JUMPI PUSH1 0x40 MLOAD PUSH3 0x461BCD PUSH1 0xE5 SHL DUP2 MSTORE PUSH1 0x4 ADD PUSH2 0x6BB SWAP1 PUSH2 0x3074 JUMP JUMPDEST SELFBALANCE DUP3 GT ISZERO PUSH2 0x1285 JUMPI PUSH1 0x40 MLOAD PUSH3 0x461BCD PUSH1 0xE5 SHL DUP2 MSTORE PUSH1 0x20 PUSH1 0x4 DUP3 ADD MSTORE PUSH1 0x2B PUSH1 0x24 DUP3 ADD MSTORE PUSH32 0x4176617461723A20696E73756666696369656E742062616C616E636520666F72 PUSH1 0x44 DUP3 ADD MSTORE PUSH11 0x81DDA5D1A191C985DD85B PUSH1 0xAA SHL PUSH1 0x64 DUP3 ADD MSTORE PUSH1 0x84 ADD PUSH2 0x6BB JUMP JUMPDEST PUSH1 0x0 PUSH2 0x128F PUSH2 0x2374 JUMP JUMPDEST DUP1 SLOAD PUSH1 0x40 MLOAD SWAP2 SWAP3 POP PUSH1 0x1 PUSH1 0x1 PUSH1 0xA0 SHL SUB PUSH2 0x100 SWAP1 SWAP2 DIV AND SWAP1 SELFBALANCE DUP1 ISZERO PUSH2 0x8FC MUL SWAP2 PUSH1 0x0 DUP2 DUP2 DUP2 DUP6 DUP9 DUP9 CALL SWAP4 POP POP POP POP ISZERO DUP1 ISZERO PUSH2 0x1127 JUMPI RETURNDATASIZE PUSH1 0x0 DUP1 RETURNDATACOPY RETURNDATASIZE PUSH1 0x0 REVERT JUMPDEST PUSH1 0x0 PUSH2 0x12D8 PUSH2 0x2374 JUMP JUMPDEST DUP1 SLOAD SWAP1 SWAP2 POP PUSH2 0x100 SWAP1 DIV PUSH1 0x1 PUSH1 0x1 PUSH1 0xA0 SHL SUB AND CALLER EQ PUSH2 0x1309 JUMPI PUSH1 0x40 MLOAD PUSH3 0x461BCD PUSH1 0xE5 SHL DUP2 MSTORE PUSH1 0x4 ADD PUSH2 0x6BB SWAP1 PUSH2 0x3074 JUMP JUMPDEST PUSH1 0x0 PUSH2 0x1313 PUSH2 0x2374 JUMP JUMPDEST PUSH1 0x2 DUP2 ADD DUP1 SLOAD PUSH1 0x1 PUSH1 0x1 PUSH1 0xA0 SHL SUB NOT AND SWAP1 SSTORE PUSH1 0x40 MLOAD SWAP1 SWAP2 POP PUSH32 0x4ABF6D25887FF6B78026F569F956B6D57D5B92CECF0EE91D897EC98E47F656A3 SWAP1 PUSH1 0x0 SWAP1 LOG1 POP POP JUMP JUMPDEST PUSH1 0x0 PUSH2 0x135F PUSH2 0x2374 JUMP JUMPDEST DUP1 SLOAD SWAP1 SWAP2 POP PUSH2 0x100 SWAP1 DIV PUSH1 0x1 PUSH1 0x1 PUSH1 0xA0 SHL SUB AND CALLER EQ PUSH2 0x1390 JUMPI PUSH1 0x40 MLOAD PUSH3 0x461BCD PUSH1 0xE5 SHL DUP2 MSTORE PUSH1 0x4 ADD PUSH2 0x6BB SWAP1 PUSH2 0x3074 JUMP JUMPDEST PUSH1 0x0 PUSH2 0x139B DUP4 PUSH2 0x23C2 JUMP JUMPDEST SWAP1 POP DUP1 PUSH1 0x40 ADD MLOAD DUP4 PUSH1 0x20 ADD MLOAD EQ PUSH2 0x13C4 JUMPI PUSH1 0x40 MLOAD PUSH3 0x461BCD PUSH1 0xE5 SHL DUP2 MSTORE PUSH1 0x4 ADD PUSH2 0x6BB SWAP1 PUSH2 0x3239 JUMP JUMPDEST PUSH1 0x40 DUP2 ADD MLOAD ISZERO PUSH2 0x1402 JUMPI PUSH1 0x0 PUSH2 0x13DA CALLVALUE SELFBALANCE PUSH2 0x329B JUMP JUMPDEST SWAP1 POP DUP2 PUSH1 0x40 ADD MLOAD DUP2 LT ISZERO PUSH2 0x1400 JUMPI PUSH1 0x40 MLOAD PUSH3 0x461BCD PUSH1 0xE5 SHL DUP2 MSTORE PUSH1 0x4 ADD PUSH2 0x6BB SWAP1 PUSH2 0x32AE JUMP JUMPDEST POP JUMPDEST PUSH1 0x0 PUSH2 0x140C PUSH2 0x2374 JUMP JUMPDEST SWAP1 POP PUSH1 0x0 PUSH32 0x0 PUSH1 0x1 PUSH1 0x1 PUSH1 0xA0 SHL SUB AND PUSH4 0x84C4484E DUP5 PUSH1 0x40 ADD MLOAD DUP8 PUSH1 0x0 ADD MLOAD PUSH1 0x40 MLOAD DUP4 PUSH4 0xFFFFFFFF AND PUSH1 0xE0 SHL DUP2 MSTORE PUSH1 0x4 ADD PUSH2 0x1467 SWAP2 DUP2 MSTORE PUSH1 0x20 ADD SWAP1 JUMP JUMPDEST PUSH1 0x0 PUSH1 0x40 MLOAD DUP1 DUP4 SUB DUP2 DUP6 DUP9 GAS CALL ISZERO DUP1 ISZERO PUSH2 0x1485 JUMPI RETURNDATASIZE PUSH1 0x0 DUP1 RETURNDATACOPY RETURNDATASIZE PUSH1 0x0 REVERT JUMPDEST POP POP POP POP POP PUSH1 0x40 MLOAD RETURNDATASIZE PUSH1 0x0 DUP3 RETURNDATACOPY PUSH1 0x1F RETURNDATASIZE SWAP1 DUP2 ADD PUSH1 0x1F NOT AND DUP3 ADD PUSH1 0x40 MSTORE PUSH2 0x14AE SWAP2 SWAP1 DUP2 ADD SWAP1 PUSH2 0x333A JUMP JUMPDEST DUP4 MLOAD PUSH1 0x1 DUP5 ADD DUP1 SLOAD PUSH1 0x1 PUSH1 0x1 PUSH1 0xA0 SHL SUB NOT AND PUSH1 0x1 PUSH1 0x1 PUSH1 0xA0 SHL SUB SWAP1 SWAP3 AND SWAP2 SWAP1 SWAP2 OR SWAP1 SSTORE PUSH1 0x40 MLOAD SWAP1 SWAP2 POP PUSH2 0x14E2 SWAP1 DUP3 SWAP1 PUSH2 0x336E JUMP JUMPDEST PUSH1 0x40 MLOAD DUP1 SWAP2 SUB SWAP1 KECCAK256 DUP4 PUSH1 0x40 ADD MLOAD DUP5 PUSH1 0x0 ADD MLOAD PUSH1 0x1 PUSH1 0x1 PUSH1 0xA0 SHL SUB AND PUSH32 0xE6B8160F723FCDB4C3CB8BF86E99D55E311C607A791F7503CC16DFAFF3271E43 PUSH1 0x40 MLOAD PUSH1 0x40 MLOAD DUP1 SWAP2 SUB SWAP1 LOG4 POP POP POP POP POP JUMP JUMPDEST PUSH1 0x0 PUSH2 0x153A PUSH2 0x2374 JUMP JUMPDEST DUP1 SLOAD SWAP1 SWAP2 POP PUSH2 0x100 SWAP1 DIV PUSH1 0x1 PUSH1 0x1 PUSH1 0xA0 SHL SUB AND CALLER EQ PUSH2 0x156B JUMPI PUSH1 0x40 MLOAD PUSH3 0x461BCD PUSH1 0xE5 SHL DUP2 MSTORE PUSH1 0x4 ADD PUSH2 0x6BB SWAP1 PUSH2 0x3074 JUMP JUMPDEST PUSH1 0x1 PUSH1 0x1 PUSH1 0xA0 SHL SUB DUP3 AND PUSH2 0x15CD JUMPI PUSH1 0x40 MLOAD PUSH3 0x461BCD PUSH1 0xE5 SHL DUP2 MSTORE PUSH1 0x20 PUSH1 0x4 DUP3 ADD MSTORE PUSH1 0x23 PUSH1 0x24 DUP3 ADD MSTORE PUSH32 0x4176617461723A20686F6F6B2063616E6E6F74206265207A65726F2061646472 PUSH1 0x44 DUP3 ADD MSTORE PUSH3 0x657373 PUSH1 0xE8 SHL PUSH1 0x64 DUP3 ADD MSTORE PUSH1 0x84 ADD PUSH2 0x6BB JUMP JUMPDEST PUSH1 0x0 PUSH2 0x15D7 PUSH2 0x2374 JUMP JUMPDEST PUSH1 0x2 DUP2 ADD DUP1 SLOAD PUSH1 0x1 PUSH1 0x1 PUSH1 0xA0 SHL SUB NOT AND PUSH1 0x1 PUSH1 0x1 PUSH1 0xA0 SHL SUB DUP7 AND SWAP1 DUP2 OR SWAP1 SWAP2 SSTORE PUSH1 0x40 MLOAD SWAP2 SWAP3 POP SWAP1 PUSH32 0x4EAB7B127C764308788622363AD3E9532DE3DFBA7845BD4F84C125A22544255A SWAP1 PUSH1 0x0 SWAP1 LOG2 POP POP POP JUMP JUMPDEST PUSH1 0x60 DUP2 PUSH1 0x40 MLOAD PUSH1 0x20 ADD PUSH2 0x163C SWAP2 SWAP1 PUSH2 0x338A JUMP JUMPDEST PUSH1 0x40 MLOAD PUSH1 0x20 DUP2 DUP4 SUB SUB DUP2 MSTORE SWAP1 PUSH1 0x40 MSTORE SWAP1 POP SWAP2 SWAP1 POP JUMP JUMPDEST PUSH1 0x0 DUP1 PUSH2 0x165D PUSH2 0x2374 JUMP JUMPDEST PUSH1 0x1 ADD SLOAD PUSH1 0x1 PUSH1 0x1 PUSH1 0xA0 SHL SUB AND SWAP3 SWAP2 POP POP JUMP JUMPDEST PUSH1 0x0 PUSH2 0x167A PUSH2 0x2374 JUMP JUMPDEST DUP1 SLOAD SWAP1 SWAP2 POP PUSH2 0x100 SWAP1 DIV PUSH1 0x1 PUSH1 0x1 PUSH1 0xA0 SHL SUB AND CALLER EQ PUSH2 0x16AB JUMPI PUSH1 0x40 MLOAD PUSH3 0x461BCD PUSH1 0xE5 SHL DUP2 MSTORE PUSH1 0x4 ADD PUSH2 0x6BB SWAP1 PUSH2 0x3074 JUMP JUMPDEST PUSH1 0x0 PUSH2 0x16BA PUSH1 0x20 DUP5 ADD DUP5 PUSH2 0x2B44 JUMP JUMPDEST PUSH1 0x1 PUSH1 0x1 PUSH1 0xA0 SHL SUB AND SUB PUSH2 0x16E0 JUMPI PUSH1 0x40 MLOAD PUSH3 0x461BCD PUSH1 0xE5 SHL DUP2 MSTORE PUSH1 0x4 ADD PUSH2 0x6BB SWAP1 PUSH2 0x30BD JUMP JUMPDEST PUSH1 0x0 DUP3 PUSH1 0x20 ADD CALLDATALOAD GT PUSH2 0x1704 JUMPI PUSH1 0x40 MLOAD PUSH3 0x461BCD PUSH1 0xE5 SHL DUP2 MSTORE PUSH1 0x4 ADD PUSH2 0x6BB SWAP1 PUSH2 0x310A JUMP JUMPDEST PUSH1 0x0 PUSH2 0x170E PUSH2 0x2374 JUMP JUMPDEST PUSH1 0x40 MLOAD PUSH4 0x58888EF1 PUSH1 0xE0 SHL DUP2 MSTORE SWAP1 SWAP2 POP PUSH20 0x0 SWAP1 PUSH4 0x58888EF1 SWAP1 PUSH2 0x174D SWAP1 PUSH1 0x7 DUP6 ADD SWAP1 DUP8 SWAP1 PUSH1 0x4 ADD PUSH2 0x318B JUMP JUMPDEST PUSH1 0x0 PUSH1 0x40 MLOAD DUP1 DUP4 SUB DUP2 DUP7 DUP1 EXTCODESIZE ISZERO DUP1 ISZERO PUSH2 0x1765 JUMPI PUSH1 0x0 DUP1 REVERT JUMPDEST POP GAS DELEGATECALL ISZERO DUP1 ISZERO PUSH2 0x1779 JUMPI RETURNDATASIZE PUSH1 0x0 DUP1 RETURNDATACOPY RETURNDATASIZE PUSH1 0x0 REVERT JUMPDEST POP PUSH2 0x178B SWAP3 POP POP POP PUSH1 0x20 DUP5 ADD DUP5 PUSH2 0x2B44 JUMP JUMPDEST PUSH1 0x1 PUSH1 0x1 PUSH1 0xA0 SHL SUB AND PUSH32 0x60C3791748D09484F5D949C7570A640DAD2F40BBEBC2571B8F6C0E6A13E96FAC DUP5 PUSH1 0x20 ADD CALLDATALOAD PUSH1 0x40 MLOAD PUSH2 0x17C9 SWAP2 DUP2 MSTORE PUSH1 0x20 ADD SWAP1 JUMP JUMPDEST PUSH1 0x40 MLOAD DUP1 SWAP2 SUB SWAP1 LOG2 POP POP POP JUMP JUMPDEST PUSH1 0x60 PUSH1 0x0 PUSH2 0x17E2 PUSH2 0x2374 JUMP JUMPDEST PUSH1 0x40 MLOAD PUSH4 0x72A97623 PUSH1 0xE1 SHL DUP2 MSTORE PUSH1 0x7 DUP3 ADD PUSH1 0x4 DUP3 ADD MSTORE SWAP1 SWAP2 POP PUSH20 0x0 SWAP1 PUSH4 0xE552EC46 SWAP1 PUSH1 0x24 ADD PUSH1 0x0 PUSH1 0x40 MLOAD DUP1 DUP4 SUB DUP2 DUP7 GAS DELEGATECALL ISZERO DUP1 ISZERO PUSH2 0x1837 JUMPI RETURNDATASIZE PUSH1 0x0 DUP1 RETURNDATACOPY RETURNDATASIZE PUSH1 0x0 REVERT JUMPDEST POP POP POP POP PUSH1 0x40 MLOAD RETURNDATASIZE PUSH1 0x0 DUP3 RETURNDATACOPY PUSH1 0x1F RETURNDATASIZE SWAP1 DUP2 ADD PUSH1 0x1F NOT AND DUP3 ADD PUSH1 0x40 MSTORE PUSH2 0x185F SWAP2 SWAP1 DUP2 ADD SWAP1 PUSH2 0x33B1 JUMP JUMPDEST SWAP2 POP POP SWAP1 JUMP JUMPDEST PUSH1 0x60 PUSH1 0x0 PUSH2 0x1871 PUSH2 0x2374 JUMP JUMPDEST SWAP1 POP DUP1 PUSH1 0x3 ADD DUP1 SLOAD PUSH2 0x1882 SWAP1 PUSH2 0x3486 JUMP JUMPDEST DUP1 PUSH1 0x1F ADD PUSH1 0x20 DUP1 SWAP2 DIV MUL PUSH1 0x20 ADD PUSH1 0x40 MLOAD SWAP1 DUP2 ADD PUSH1 0x40 MSTORE DUP1 SWAP3 SWAP2 SWAP1 DUP2 DUP2 MSTORE PUSH1 0x20 ADD DUP3 DUP1 SLOAD PUSH2 0x18AE SWAP1 PUSH2 0x3486 JUMP JUMPDEST DUP1 ISZERO PUSH2 0x18FB JUMPI DUP1 PUSH1 0x1F LT PUSH2 0x18D0 JUMPI PUSH2 0x100 DUP1 DUP4 SLOAD DIV MUL DUP4 MSTORE SWAP2 PUSH1 0x20 ADD SWAP2 PUSH2 0x18FB JUMP JUMPDEST DUP3 ADD SWAP2 SWAP1 PUSH1 0x0 MSTORE PUSH1 0x20 PUSH1 0x0 KECCAK256 SWAP1 JUMPDEST DUP2 SLOAD DUP2 MSTORE SWAP1 PUSH1 0x1 ADD SWAP1 PUSH1 0x20 ADD DUP1 DUP4 GT PUSH2 0x18DE JUMPI DUP3 SWAP1 SUB PUSH1 0x1F AND DUP3 ADD SWAP2 JUMPDEST POP POP POP POP POP SWAP2 POP POP SWAP1 JUMP JUMPDEST PUSH1 0x40 MLOAD PUSH4 0x24056725 PUSH1 0xE2 SHL DUP2 MSTORE CALLER PUSH1 0x4 DUP3 ADD MSTORE PUSH32 0x0 PUSH1 0x1 PUSH1 0x1 PUSH1 0xA0 SHL SUB AND SWAP1 PUSH4 0x90159C94 SWAP1 PUSH1 0x24 ADD PUSH1 0x20 PUSH1 0x40 MLOAD DUP1 DUP4 SUB DUP2 DUP7 GAS STATICCALL ISZERO DUP1 ISZERO PUSH2 0x196A JUMPI RETURNDATASIZE PUSH1 0x0 DUP1 RETURNDATACOPY RETURNDATASIZE PUSH1 0x0 REVERT JUMPDEST POP POP POP POP PUSH1 0x40 MLOAD RETURNDATASIZE PUSH1 0x1F NOT PUSH1 0x1F DUP3 ADD AND DUP3 ADD DUP1 PUSH1 0x40 MSTORE POP DUP2 ADD SWAP1 PUSH2 0x198E SWAP2 SWAP1 PUSH2 0x3151 JUMP JUMPDEST PUSH2 0x19ED JUMPI PUSH1 0x40 MLOAD PUSH3 0x461BCD PUSH1 0xE5 SHL DUP2 MSTORE PUSH1 0x20 PUSH1 0x4 DUP3 ADD MSTORE PUSH1 0x2A PUSH1 0x24 DUP3 ADD MSTORE PUSH32 0x4176617461723A2063616C6C6572206973206E6F742061207265676973746572 PUSH1 0x44 DUP3 ADD MSTORE PUSH10 0x656420636F6D70616E79 PUSH1 0xB0 SHL PUSH1 0x64 DUP3 ADD MSTORE PUSH1 0x84 ADD PUSH2 0x6BB JUMP JUMPDEST PUSH2 0x19F6 DUP2 PUSH2 0x266A JUMP JUMPDEST DUP1 MLOAD PUSH1 0x40 MLOAD PUSH4 0xA22D5A1 PUSH1 0xE2 SHL DUP2 MSTORE PUSH1 0x0 SWAP2 PUSH1 0x1 PUSH1 0x1 PUSH1 0xA0 SHL SUB PUSH32 0x0 AND SWAP2 PUSH4 0x288B5684 SWAP2 PUSH2 0x1A49 SWAP2 PUSH1 0x4 ADD SWAP1 DUP2 MSTORE PUSH1 0x20 ADD SWAP1 JUMP JUMPDEST PUSH1 0x80 PUSH1 0x40 MLOAD DUP1 DUP4 SUB DUP2 DUP7 GAS STATICCALL ISZERO DUP1 ISZERO PUSH2 0x1A66 JUMPI RETURNDATASIZE PUSH1 0x0 DUP1 RETURNDATACOPY RETURNDATASIZE PUSH1 0x0 REVERT JUMPDEST POP POP POP POP PUSH1 0x40 MLOAD RETURNDATASIZE PUSH1 0x1F NOT PUSH1 0x1F DUP3 ADD AND DUP3 ADD DUP1 PUSH1 0x40 MSTORE POP DUP2 ADD SWAP1 PUSH2 0x1A8A SWAP2 SWAP1 PUSH2 0x34BA JUMP JUMPDEST SWAP1 POP DUP1 PUSH1 0x40 ADD MLOAD DUP3 PUSH1 0x20 ADD MLOAD EQ PUSH2 0x1AB3 JUMPI PUSH1 0x40 MLOAD PUSH3 0x461BCD PUSH1 0xE5 SHL DUP2 MSTORE PUSH1 0x4 ADD PUSH2 0x6BB SWAP1 PUSH2 0x3239 JUMP JUMPDEST PUSH1 0x40 DUP2 ADD MLOAD ISZERO PUSH2 0x1AF1 JUMPI PUSH1 0x0 PUSH2 0x1AC9 CALLVALUE SELFBALANCE PUSH2 0x329B JUMP JUMPDEST SWAP1 POP DUP2 PUSH1 0x40 ADD MLOAD DUP2 LT ISZERO PUSH2 0x1AEF JUMPI PUSH1 0x40 MLOAD PUSH3 0x461BCD PUSH1 0xE5 SHL DUP2 MSTORE PUSH1 0x4 ADD PUSH2 0x6BB SWAP1 PUSH2 0x32AE JUMP JUMPDEST POP JUMPDEST PUSH1 0x0 PUSH2 0x1AFB PUSH2 0x2374 JUMP JUMPDEST SWAP1 POP PUSH1 0x0 PUSH32 0x0 PUSH1 0x1 PUSH1 0x1 PUSH1 0xA0 SHL SUB AND PUSH4 0x84C4484E DUP5 PUSH1 0x40 ADD MLOAD DUP7 PUSH1 0x0 ADD MLOAD PUSH1 0x40 MLOAD DUP4 PUSH4 0xFFFFFFFF AND PUSH1 0xE0 SHL DUP2 MSTORE PUSH1 0x4 ADD PUSH2 0x1B56 SWAP2 DUP2 MSTORE PUSH1 0x20 ADD SWAP1 JUMP JUMPDEST PUSH1 0x0 PUSH1 0x40 MLOAD DUP1 DUP4 SUB DUP2 DUP6 DUP9 GAS CALL ISZERO DUP1 ISZERO PUSH2 0x1B74 JUMPI RETURNDATASIZE PUSH1 0x0 DUP1 RETURNDATACOPY RETURNDATASIZE PUSH1 0x0 REVERT JUMPDEST POP POP POP POP POP PUSH1 0x40 MLOAD RETURNDATASIZE PUSH1 0x0 DUP3 RETURNDATACOPY PUSH1 0x1F RETURNDATASIZE SWAP1 DUP2 ADD PUSH1 0x1F NOT AND DUP3 ADD PUSH1 0x40 MSTORE PUSH2 0x1B9D SWAP2 SWAP1 DUP2 ADD SWAP1 PUSH2 0x333A JUMP JUMPDEST DUP4 MLOAD PUSH1 0x1 DUP5 ADD DUP1 SLOAD PUSH1 0x1 PUSH1 0x1 PUSH1 0xA0 SHL SUB NOT AND PUSH1 0x1 PUSH1 0x1 PUSH1 0xA0 SHL SUB SWAP1 SWAP3 AND SWAP2 SWAP1 SWAP2 OR SWAP1 SSTORE PUSH1 0x40 MLOAD SWAP1 SWAP2 POP PUSH2 0x1BD1 SWAP1 DUP3 SWAP1 PUSH2 0x336E JUMP JUMPDEST PUSH1 0x40 MLOAD DUP1 SWAP2 SUB SWAP1 KECCAK256 DUP4 PUSH1 0x40 ADD MLOAD DUP5 PUSH1 0x0 ADD MLOAD PUSH1 0x1 PUSH1 0x1 PUSH1 0xA0 SHL SUB AND PUSH32 0xE6B8160F723FCDB4C3CB8BF86E99D55E311C607A791F7503CC16DFAFF3271E43 PUSH1 0x40 MLOAD PUSH1 0x40 MLOAD DUP1 SWAP2 SUB SWAP1 LOG4 POP POP POP POP JUMP JUMPDEST PUSH1 0x0 DUP1 PUSH2 0x1C29 PUSH2 0x2374 JUMP JUMPDEST PUSH1 0x2 ADD SLOAD PUSH1 0x1 PUSH1 0x1 PUSH1 0xA0 SHL SUB AND SWAP3 SWAP2 POP POP JUMP JUMPDEST PUSH1 0x60 PUSH1 0x0 PUSH2 0x1C48 PUSH2 0x2374 JUMP JUMPDEST SWAP1 POP DUP1 PUSH1 0x4 ADD DUP1 SLOAD PUSH2 0x1882 SWAP1 PUSH2 0x3486 JUMP JUMPDEST PUSH1 0x0 DUP1 PUSH2 0x1C64 PUSH2 0x2374 JUMP JUMPDEST SLOAD PUSH2 0x100 SWAP1 DIV PUSH1 0x1 PUSH1 0x1 PUSH1 0xA0 SHL SUB AND SWAP3 SWAP2 POP POP JUMP JUMPDEST PUSH1 0x0 PUSH2 0x1C83 PUSH2 0x2374 JUMP JUMPDEST DUP1 SLOAD SWAP1 SWAP2 POP PUSH2 0x100 SWAP1 DIV PUSH1 0x1 PUSH1 0x1 PUSH1 0xA0 SHL SUB AND CALLER EQ PUSH2 0x1CB4 JUMPI PUSH1 0x40 MLOAD PUSH3 0x461BCD PUSH1 0xE5 SHL DUP2 MSTORE PUSH1 0x4 ADD PUSH2 0x6BB SWAP1 PUSH2 0x3074 JUMP JUMPDEST PUSH1 0x0 PUSH2 0x1CBE PUSH2 0x2374 JUMP JUMPDEST SWAP1 POP PUSH1 0x4 DUP2 ADD PUSH2 0x1CCE DUP5 DUP3 PUSH2 0x3586 JUMP JUMPDEST POP DUP3 PUSH1 0x40 MLOAD PUSH2 0x1CDD SWAP2 SWAP1 PUSH2 0x336E JUMP JUMPDEST PUSH1 0x40 MLOAD SWAP1 DUP2 SWAP1 SUB DUP2 KECCAK256 SWAP1 PUSH32 0xE8ED633186AC64F9F0AB9B48CB1CCA12EEBE0F7E0FFDC46908733A0603632366 SWAP1 PUSH1 0x0 SWAP1 LOG2 POP POP POP JUMP JUMPDEST PUSH1 0x0 DUP1 PUSH2 0x1D1D PUSH2 0x2374 JUMP JUMPDEST PUSH1 0x40 MLOAD PUSH4 0x36618705 PUSH1 0xE1 SHL DUP2 MSTORE SWAP1 SWAP2 POP PUSH20 0x0 SWAP1 PUSH4 0x6CC30E0A SWAP1 PUSH2 0x1D5C SWAP1 PUSH1 0x7 DUP6 ADD SWAP1 DUP8 SWAP1 PUSH1 0x4 ADD PUSH2 0x318B JUMP JUMPDEST PUSH1 0x20 PUSH1 0x40 MLOAD DUP1 DUP4 SUB DUP2 DUP7 GAS DELEGATECALL ISZERO DUP1 ISZERO PUSH2 0x1D79 JUMPI RETURNDATASIZE PUSH1 0x0 DUP1 RETURNDATACOPY RETURNDATASIZE PUSH1 0x0 REVERT JUMPDEST POP POP POP POP PUSH1 0x40 MLOAD RETURNDATASIZE PUSH1 0x1F NOT PUSH1 0x1F DUP3 ADD AND DUP3 ADD DUP1 PUSH1 0x40 MSTORE POP DUP2 ADD SWAP1 PUSH2 0x1D9D SWAP2 SWAP1 PUSH2 0x3151 JUMP JUMPDEST SWAP4 SWAP3 POP POP POP JUMP JUMPDEST PUSH1 0x0 PUSH2 0x1DAE PUSH2 0x2374 JUMP JUMPDEST DUP1 SLOAD SWAP1 SWAP2 POP PUSH2 0x100 SWAP1 DIV PUSH1 0x1 PUSH1 0x1 PUSH1 0xA0 SHL SUB AND CALLER EQ PUSH2 0x1DDF JUMPI PUSH1 0x40 MLOAD PUSH3 0x461BCD PUSH1 0xE5 SHL DUP2 MSTORE PUSH1 0x4 ADD PUSH2 0x6BB SWAP1 PUSH2 0x3074 JUMP JUMPDEST PUSH1 0x0 PUSH2 0x1DE9 PUSH2 0x2374 JUMP JUMPDEST DUP1 SLOAD PUSH1 0xFF NOT AND SWAP4 ISZERO ISZERO SWAP4 SWAP1 SWAP4 OR SWAP1 SWAP3 SSTORE POP POP JUMP JUMPDEST CALLER PUSH1 0x1 PUSH1 0x1 PUSH1 0xA0 SHL SUB PUSH32 0x0 AND EQ PUSH2 0x1E45 JUMPI PUSH1 0x40 MLOAD PUSH3 0x461BCD PUSH1 0xE5 SHL DUP2 MSTORE PUSH1 0x4 ADD PUSH2 0x6BB SWAP1 PUSH2 0x31EE JUMP JUMPDEST PUSH1 0x0 PUSH2 0x1E4F PUSH2 0x2374 JUMP JUMPDEST DUP1 SLOAD SWAP1 SWAP2 POP PUSH2 0x100 SWAP1 DIV PUSH1 0x1 PUSH1 0x1 PUSH1 0xA0 SHL SUB AND ISZERO PUSH2 0x1EBB JUMPI PUSH1 0x40 MLOAD PUSH3 0x461BCD PUSH1 0xE5 SHL DUP2 MSTORE PUSH1 0x20 PUSH1 0x4 DUP3 ADD MSTORE PUSH1 0x24 DUP1 DUP3 ADD MSTORE PUSH32 0x4176617461723A20636F6E747261637420616C726561647920696E697469616C PUSH1 0x44 DUP3 ADD MSTORE PUSH4 0x1A5E9959 PUSH1 0xE2 SHL PUSH1 0x64 DUP3 ADD MSTORE PUSH1 0x84 ADD PUSH2 0x6BB JUMP JUMPDEST PUSH1 0x0 DUP3 DUP1 PUSH1 0x20 ADD SWAP1 MLOAD DUP2 ADD SWAP1 PUSH2 0x1ED1 SWAP2 SWAP1 PUSH2 0x3645 JUMP JUMPDEST SWAP1 POP PUSH1 0x0 DUP5 MLOAD GT PUSH2 0x1F24 JUMPI PUSH1 0x40 MLOAD PUSH3 0x461BCD PUSH1 0xE5 SHL DUP2 MSTORE PUSH1 0x20 PUSH1 0x4 DUP3 ADD DUP2 SWAP1 MSTORE PUSH1 0x24 DUP3 ADD MSTORE PUSH32 0x4176617461723A20757365726E616D652063616E6E6F7420626520656D707479 PUSH1 0x44 DUP3 ADD MSTORE PUSH1 0x64 ADD PUSH2 0x6BB JUMP JUMPDEST PUSH1 0x1 PUSH1 0x1 PUSH1 0xA0 SHL SUB DUP7 AND PUSH2 0x1F86 JUMPI PUSH1 0x40 MLOAD PUSH3 0x461BCD PUSH1 0xE5 SHL DUP2 MSTORE PUSH1 0x20 PUSH1 0x4 DUP3 ADD MSTORE PUSH1 0x24 DUP1 DUP3 ADD MSTORE PUSH32 0x4176617461723A206F776E65722063616E6E6F74206265207A65726F20616464 PUSH1 0x44 DUP3 ADD MSTORE PUSH4 0x72657373 PUSH1 0xE0 SHL PUSH1 0x64 DUP3 ADD MSTORE PUSH1 0x84 ADD PUSH2 0x6BB JUMP JUMPDEST PUSH1 0x40 MLOAD PUSH4 0x2622863 PUSH1 0xE4 SHL DUP2 MSTORE PUSH1 0x1 PUSH1 0x1 PUSH1 0xA0 SHL SUB DUP7 DUP2 AND PUSH1 0x4 DUP4 ADD MSTORE PUSH32 0x0 AND SWAP1 PUSH4 0x26228630 SWAP1 PUSH1 0x24 ADD PUSH1 0x20 PUSH1 0x40 MLOAD DUP1 DUP4 SUB DUP2 DUP7 GAS STATICCALL ISZERO DUP1 ISZERO PUSH2 0x1FEC JUMPI RETURNDATASIZE PUSH1 0x0 DUP1 RETURNDATACOPY RETURNDATASIZE PUSH1 0x0 REVERT JUMPDEST POP POP POP POP PUSH1 0x40 MLOAD RETURNDATASIZE PUSH1 0x1F NOT PUSH1 0x1F DUP3 ADD AND DUP3 ADD DUP1 PUSH1 0x40 MSTORE POP DUP2 ADD SWAP1 PUSH2 0x2010 SWAP2 SWAP1 PUSH2 0x3151 JUMP JUMPDEST PUSH2 0x2082 JUMPI PUSH1 0x40 MLOAD PUSH3 0x461BCD PUSH1 0xE5 SHL DUP2 MSTORE PUSH1 0x20 PUSH1 0x4 DUP3 ADD MSTORE PUSH1 0x39 PUSH1 0x24 DUP3 ADD MSTORE PUSH32 0x4176617461723A2064656661756C7420657870657269656E6365206973206E6F PUSH1 0x44 DUP3 ADD MSTORE PUSH32 0x742061207265676973746572656420657870657269656E636500000000000000 PUSH1 0x64 DUP3 ADD MSTORE PUSH1 0x84 ADD PUSH2 0x6BB JUMP JUMPDEST PUSH1 0x3 DUP3 ADD PUSH2 0x2090 DUP6 DUP3 PUSH2 0x3586 JUMP JUMPDEST POP PUSH1 0x1 DUP3 ADD DUP1 SLOAD PUSH1 0x1 PUSH1 0x1 PUSH1 0xA0 SHL SUB NOT AND PUSH1 0x1 PUSH1 0x1 PUSH1 0xA0 SHL SUB DUP8 AND OR SWAP1 SSTORE DUP1 MLOAD DUP3 SLOAD PUSH1 0xFF NOT AND SWAP1 ISZERO ISZERO OR DUP3 SSTORE PUSH1 0x20 DUP2 ADD MLOAD PUSH1 0x4 DUP4 ADD SWAP1 PUSH2 0x20D0 SWAP1 DUP3 PUSH2 0x3586 JUMP JUMPDEST POP POP DUP1 SLOAD PUSH1 0x1 PUSH1 0x1 PUSH1 0xA0 SHL SUB SWAP1 SWAP6 AND PUSH2 0x100 MUL PUSH2 0x100 PUSH1 0x1 PUSH1 0xA8 SHL SUB NOT SWAP1 SWAP6 AND SWAP5 SWAP1 SWAP5 OR DUP5 SSTORE POP POP PUSH1 0xC8 PUSH1 0xA SWAP1 SWAP3 ADD SWAP2 SWAP1 SWAP2 SSTORE POP JUMP JUMPDEST PUSH2 0x210E PUSH2 0x2398 JUMP JUMPDEST PUSH1 0x0 PUSH2 0x2118 PUSH2 0x2374 JUMP JUMPDEST PUSH1 0x40 MLOAD PUSH4 0x15BD8AC3 PUSH1 0xE3 SHL DUP2 MSTORE CALLER PUSH1 0x4 DUP3 ADD MSTORE SWAP1 SWAP2 POP PUSH32 0x0 PUSH1 0x1 PUSH1 0x1 PUSH1 0xA0 SHL SUB AND SWAP1 PUSH4 0xADEC5618 SWAP1 PUSH1 0x24 ADD PUSH1 0x20 PUSH1 0x40 MLOAD DUP1 DUP4 SUB DUP2 DUP7 GAS STATICCALL ISZERO DUP1 ISZERO PUSH2 0x217F JUMPI RETURNDATASIZE PUSH1 0x0 DUP1 RETURNDATACOPY RETURNDATASIZE PUSH1 0x0 REVERT JUMPDEST POP POP POP POP PUSH1 0x40 MLOAD RETURNDATASIZE PUSH1 0x1F NOT PUSH1 0x1F DUP3 ADD AND DUP3 ADD DUP1 PUSH1 0x40 MSTORE POP DUP2 ADD SWAP1 PUSH2 0x21A3 SWAP2 SWAP1 PUSH2 0x3151 JUMP JUMPDEST PUSH2 0x220D JUMPI PUSH1 0x40 MLOAD PUSH3 0x461BCD PUSH1 0xE5 SHL DUP2 MSTORE PUSH1 0x20 PUSH1 0x4 DUP3 ADD MSTORE PUSH1 0x35 PUSH1 0x24 DUP3 ADD MSTORE PUSH32 0x4176617461723A206F6E6C792072656769737465726564206173736574732063 PUSH1 0x44 DUP3 ADD MSTORE PUSH21 0x30B71031B0B636103A3434B990333AB731BA34B7B7 PUSH1 0x59 SHL PUSH1 0x64 DUP3 ADD MSTORE PUSH1 0x84 ADD PUSH2 0x6BB JUMP JUMPDEST PUSH1 0x40 MLOAD PUSH4 0x31A9108F PUSH1 0xE1 SHL DUP2 MSTORE PUSH1 0x4 DUP2 ADD DUP4 SWAP1 MSTORE CALLER SWAP1 DUP2 SWAP1 PUSH4 0x6352211E SWAP1 PUSH1 0x24 ADD PUSH1 0x20 PUSH1 0x40 MLOAD DUP1 DUP4 SUB DUP2 DUP7 GAS STATICCALL SWAP3 POP POP POP DUP1 ISZERO PUSH2 0x2267 JUMPI POP PUSH1 0x40 DUP1 MLOAD PUSH1 0x1F RETURNDATASIZE SWAP1 DUP2 ADD PUSH1 0x1F NOT AND DUP3 ADD SWAP1 SWAP3 MSTORE PUSH2 0x2264 SWAP2 DUP2 ADD SWAP1 PUSH2 0x316E JUMP JUMPDEST PUSH1 0x1 JUMPDEST PUSH2 0x22F5 JUMPI PUSH1 0x40 DUP1 MLOAD DUP1 DUP3 ADD DUP3 MSTORE PUSH1 0x1 PUSH1 0x1 PUSH1 0xA0 SHL SUB DUP4 AND DUP2 MSTORE PUSH1 0x20 DUP2 ADD DUP6 SWAP1 MSTORE SWAP1 MLOAD PUSH4 0x58888EF1 PUSH1 0xE0 SHL DUP2 MSTORE PUSH20 0x0 SWAP2 PUSH4 0x58888EF1 SWAP2 PUSH2 0x22C0 SWAP2 PUSH1 0x7 DUP8 ADD SWAP2 PUSH1 0x4 ADD PUSH2 0x36B5 JUMP JUMPDEST PUSH1 0x0 PUSH1 0x40 MLOAD DUP1 DUP4 SUB DUP2 DUP7 DUP1 EXTCODESIZE ISZERO DUP1 ISZERO PUSH2 0x22D8 JUMPI PUSH1 0x0 DUP1 REVERT JUMPDEST POP GAS DELEGATECALL ISZERO DUP1 ISZERO PUSH2 0x22EC JUMPI RETURNDATASIZE PUSH1 0x0 DUP1 RETURNDATACOPY RETURNDATASIZE PUSH1 0x0 REVERT JUMPDEST POP POP POP POP PUSH2 0x2350 JUMP JUMPDEST PUSH1 0x40 MLOAD PUSH3 0x461BCD PUSH1 0xE5 SHL DUP2 MSTORE PUSH1 0x20 PUSH1 0x4 DUP3 ADD MSTORE PUSH1 0x2A PUSH1 0x24 DUP3 ADD MSTORE PUSH32 0x4176617461723A2045524337323120746F6B656E207374696C6C206F776E6564 PUSH1 0x44 DUP3 ADD MSTORE PUSH10 0x10313C9030BB30BA30B9 PUSH1 0xB1 SHL PUSH1 0x64 DUP3 ADD MSTORE PUSH1 0x84 ADD PUSH2 0x6BB JUMP JUMPDEST POP POP PUSH2 0x235C PUSH1 0x1 PUSH1 0x0 SSTORE JUMP JUMPDEST POP JUMP JUMPDEST PUSH1 0x0 DUP1 PUSH2 0x236A PUSH2 0x2374 JUMP JUMPDEST PUSH1 0x6 ADD SLOAD SWAP3 SWAP2 POP POP JUMP JUMPDEST PUSH32 0xD38682225E685E93013F8A112DB34D1D514857AC4394636132822A0C0FE20450 SWAP1 JUMP JUMPDEST PUSH1 0x2 PUSH1 0x0 SLOAD SUB PUSH2 0x23BB JUMPI PUSH1 0x40 MLOAD PUSH4 0x3EE5AEB5 PUSH1 0xE0 SHL DUP2 MSTORE PUSH1 0x4 ADD PUSH1 0x40 MLOAD DUP1 SWAP2 SUB SWAP1 REVERT JUMPDEST PUSH1 0x2 PUSH1 0x0 SSTORE JUMP JUMPDEST PUSH1 0x40 DUP1 MLOAD PUSH1 0x80 DUP2 ADD DUP3 MSTORE PUSH1 0x0 DUP1 DUP3 MSTORE PUSH1 0x20 DUP3 ADD DUP2 SWAP1 MSTORE DUP2 DUP4 ADD DUP2 SWAP1 MSTORE PUSH1 0x60 DUP3 ADD MSTORE DUP3 MLOAD SWAP2 MLOAD PUSH4 0xA22D5A1 PUSH1 0xE2 SHL DUP2 MSTORE PUSH1 0x4 DUP2 ADD SWAP3 SWAP1 SWAP3 MSTORE SWAP1 PUSH1 0x1 PUSH1 0x1 PUSH1 0xA0 SHL SUB PUSH32 0x0 AND SWAP1 PUSH4 0x288B5684 SWAP1 PUSH1 0x24 ADD PUSH1 0x80 PUSH1 0x40 MLOAD DUP1 DUP4 SUB DUP2 DUP7 GAS STATICCALL ISZERO DUP1 ISZERO PUSH2 0x244B JUMPI RETURNDATASIZE PUSH1 0x0 DUP1 RETURNDATACOPY RETURNDATASIZE PUSH1 0x0 REVERT JUMPDEST POP POP POP POP PUSH1 0x40 MLOAD RETURNDATASIZE PUSH1 0x1F NOT PUSH1 0x1F DUP3 ADD AND DUP3 ADD DUP1 PUSH1 0x40 MSTORE POP DUP2 ADD SWAP1 PUSH2 0x246F SWAP2 SWAP1 PUSH2 0x34BA JUMP JUMPDEST SWAP1 POP PUSH1 0x0 DUP2 PUSH1 0x0 ADD MLOAD PUSH1 0x1 PUSH1 0x1 PUSH1 0xA0 SHL SUB AND PUSH4 0x6904C94D PUSH1 0x40 MLOAD DUP2 PUSH4 0xFFFFFFFF AND PUSH1 0xE0 SHL DUP2 MSTORE PUSH1 0x4 ADD PUSH1 0x20 PUSH1 0x40 MLOAD DUP1 DUP4 SUB DUP2 DUP7 GAS STATICCALL ISZERO DUP1 ISZERO PUSH2 0x24B5 JUMPI RETURNDATASIZE PUSH1 0x0 DUP1 RETURNDATACOPY RETURNDATASIZE PUSH1 0x0 REVERT JUMPDEST POP POP POP POP PUSH1 0x40 MLOAD RETURNDATASIZE PUSH1 0x1F NOT PUSH1 0x1F DUP3 ADD AND DUP3 ADD DUP1 PUSH1 0x40 MSTORE POP DUP2 ADD SWAP1 PUSH2 0x24D9 SWAP2 SWAP1 PUSH2 0x316E JUMP JUMPDEST SWAP1 POP PUSH1 0x0 PUSH2 0x24E5 PUSH2 0x2374 JUMP JUMPDEST PUSH1 0x1 PUSH1 0x1 PUSH1 0xA0 SHL SUB DUP4 AND PUSH1 0x0 SWAP1 DUP2 MSTORE PUSH1 0x5 DUP3 ADD PUSH1 0x20 MSTORE PUSH1 0x40 DUP2 KECCAK256 DUP1 SLOAD SWAP3 SWAP4 POP SWAP1 PUSH2 0x250E DUP4 PUSH2 0x36DC JUMP JUMPDEST SWAP1 SWAP2 SSTORE POP DUP5 MLOAD PUSH1 0x20 DUP1 DUP8 ADD MLOAD PUSH1 0x40 DUP1 MLOAD SWAP3 DUP4 ADD SWAP4 SWAP1 SWAP4 MSTORE SWAP2 DUP2 ADD SWAP2 SWAP1 SWAP2 MSTORE PUSH1 0x60 DUP2 ADD DUP3 SWAP1 MSTORE PUSH1 0x0 SWAP1 PUSH1 0x80 ADD PUSH1 0x40 DUP1 MLOAD DUP1 DUP4 SUB PUSH1 0x1F NOT ADD DUP2 MSTORE DUP3 DUP3 MSTORE DUP1 MLOAD PUSH1 0x20 SWAP2 DUP3 ADD KECCAK256 DUP2 DUP5 MSTORE DUP4 DUP4 ADD SWAP1 SWAP3 MSTORE SWAP1 SWAP3 POP PUSH1 0x0 SWAP2 SWAP1 PUSH1 0x20 DUP3 ADD DUP2 DUP1 CALLDATASIZE DUP4 CALLDATACOPY ADD SWAP1 POP POP SWAP1 POP DUP2 PUSH1 0x20 DUP3 ADD MSTORE PUSH1 0x0 PUSH2 0x2581 DUP3 PUSH2 0x2785 JUMP JUMPDEST SWAP1 POP PUSH1 0x0 PUSH2 0x2593 DUP3 DUP11 PUSH1 0x40 ADD MLOAD PUSH2 0x27C0 JUMP JUMPDEST PUSH1 0x40 MLOAD PUSH4 0x7DF73E27 PUSH1 0xE0 SHL DUP2 MSTORE PUSH1 0x1 PUSH1 0x1 PUSH1 0xA0 SHL SUB DUP1 DUP4 AND PUSH1 0x4 DUP4 ADD MSTORE SWAP2 SWAP3 POP SWAP1 DUP9 AND SWAP1 PUSH4 0x7DF73E27 SWAP1 PUSH1 0x24 ADD PUSH1 0x20 PUSH1 0x40 MLOAD DUP1 DUP4 SUB DUP2 DUP7 GAS STATICCALL ISZERO DUP1 ISZERO PUSH2 0x25DD JUMPI RETURNDATASIZE PUSH1 0x0 DUP1 RETURNDATACOPY RETURNDATASIZE PUSH1 0x0 REVERT JUMPDEST POP POP POP POP PUSH1 0x40 MLOAD RETURNDATASIZE PUSH1 0x1F NOT PUSH1 0x1F DUP3 ADD AND DUP3 ADD DUP1 PUSH1 0x40 MSTORE POP DUP2 ADD SWAP1 PUSH2 0x2601 SWAP2 SWAP1 PUSH2 0x3151 JUMP JUMPDEST PUSH2 0x265E JUMPI PUSH1 0x40 MLOAD PUSH3 0x461BCD PUSH1 0xE5 SHL DUP2 MSTORE PUSH1 0x20 PUSH1 0x4 DUP3 ADD MSTORE PUSH1 0x28 PUSH1 0x24 DUP3 ADD MSTORE PUSH32 0x4176617461723A20636F6D70616E79207369676E6572206973206E6F74206175 PUSH1 0x44 DUP3 ADD MSTORE PUSH8 0x1D1A1BDC9A5E9959 PUSH1 0xC2 SHL PUSH1 0x64 DUP3 ADD MSTORE PUSH1 0x84 ADD PUSH2 0x6BB JUMP JUMPDEST POP POP POP POP POP POP POP SWAP2 SWAP1 POP JUMP JUMPDEST PUSH1 0x0 PUSH2 0x2674 PUSH2 0x2374 JUMP JUMPDEST PUSH1 0x6 DUP2 ADD DUP1 SLOAD SWAP2 SWAP3 POP PUSH1 0x0 PUSH2 0x2688 DUP4 PUSH2 0x36DC JUMP JUMPDEST SWAP1 SWAP2 SSTORE POP DUP3 MLOAD PUSH1 0x20 DUP1 DUP6 ADD MLOAD PUSH1 0x40 DUP1 MLOAD SWAP3 DUP4 ADD SWAP4 SWAP1 SWAP4 MSTORE SWAP2 DUP2 ADD SWAP2 SWAP1 SWAP2 MSTORE PUSH1 0x60 DUP2 ADD DUP3 SWAP1 MSTORE PUSH1 0x0 SWAP1 PUSH1 0x80 ADD PUSH1 0x40 DUP1 MLOAD DUP1 DUP4 SUB PUSH1 0x1F NOT ADD DUP2 MSTORE DUP3 DUP3 MSTORE DUP1 MLOAD PUSH1 0x20 SWAP2 DUP3 ADD KECCAK256 DUP2 DUP5 MSTORE DUP4 DUP4 ADD SWAP1 SWAP3 MSTORE SWAP1 SWAP3 POP PUSH1 0x0 SWAP2 SWAP1 PUSH1 0x20 DUP3 ADD DUP2 DUP1 CALLDATASIZE DUP4 CALLDATACOPY ADD SWAP1 POP POP SWAP1 POP DUP2 PUSH1 0x20 DUP3 ADD MSTORE PUSH1 0x0 PUSH2 0x26FB DUP3 PUSH2 0x2785 JUMP JUMPDEST SWAP1 POP PUSH1 0x0 PUSH2 0x270D DUP3 DUP9 PUSH1 0x40 ADD MLOAD PUSH2 0x27C0 JUMP JUMPDEST DUP7 SLOAD SWAP1 SWAP2 POP PUSH1 0x1 PUSH1 0x1 PUSH1 0xA0 SHL SUB DUP1 DUP4 AND PUSH2 0x100 SWAP1 SWAP3 DIV AND EQ PUSH2 0x277C JUMPI PUSH1 0x40 MLOAD PUSH3 0x461BCD PUSH1 0xE5 SHL DUP2 MSTORE PUSH1 0x20 PUSH1 0x4 DUP3 ADD MSTORE PUSH1 0x22 PUSH1 0x24 DUP3 ADD MSTORE PUSH32 0x4176617461723A20617661746172207369676E6572206973206E6F74206F776E PUSH1 0x44 DUP3 ADD MSTORE PUSH2 0x32B9 PUSH1 0xF1 SHL PUSH1 0x64 DUP3 ADD MSTORE PUSH1 0x84 ADD PUSH2 0x6BB JUMP JUMPDEST POP POP POP POP POP POP POP JUMP JUMPDEST PUSH1 0x0 PUSH2 0x2791 DUP3 MLOAD PUSH2 0x27EC JUMP JUMPDEST DUP3 PUSH1 0x40 MLOAD PUSH1 0x20 ADD PUSH2 0x27A3 SWAP3 SWAP2 SWAP1 PUSH2 0x36F5 JUMP JUMPDEST PUSH1 0x40 MLOAD PUSH1 0x20 DUP2 DUP4 SUB SUB DUP2 MSTORE SWAP1 PUSH1 0x40 MSTORE DUP1 MLOAD SWAP1 PUSH1 0x20 ADD KECCAK256 SWAP1 POP SWAP2 SWAP1 POP JUMP JUMPDEST PUSH1 0x0 DUP1 PUSH1 0x0 DUP1 PUSH2 0x27D0 DUP7 DUP7 PUSH2 0x287E JUMP JUMPDEST SWAP3 POP SWAP3 POP SWAP3 POP PUSH2 0x27E0 DUP3 DUP3 PUSH2 0x28CB JUMP JUMPDEST POP SWAP1 SWAP2 POP POP JUMPDEST SWAP3 SWAP2 POP POP JUMP JUMPDEST PUSH1 0x60 PUSH1 0x0 PUSH2 0x27F9 DUP4 PUSH2 0x2988 JUMP JUMPDEST PUSH1 0x1 ADD SWAP1 POP PUSH1 0x0 DUP2 PUSH1 0x1 PUSH1 0x1 PUSH1 0x40 SHL SUB DUP2 GT ISZERO PUSH2 0x2818 JUMPI PUSH2 0x2818 PUSH2 0x2C8D JUMP JUMPDEST PUSH1 0x40 MLOAD SWAP1 DUP1 DUP3 MSTORE DUP1 PUSH1 0x1F ADD PUSH1 0x1F NOT AND PUSH1 0x20 ADD DUP3 ADD PUSH1 0x40 MSTORE DUP1 ISZERO PUSH2 0x2842 JUMPI PUSH1 0x20 DUP3 ADD DUP2 DUP1 CALLDATASIZE DUP4 CALLDATACOPY ADD SWAP1 POP JUMPDEST POP SWAP1 POP DUP2 DUP2 ADD PUSH1 0x20 ADD JUMPDEST PUSH1 0x0 NOT ADD PUSH16 0x181899199A1A9B1B9C1CB0B131B232B3 PUSH1 0x81 SHL PUSH1 0xA DUP7 MOD BYTE DUP2 MSTORE8 PUSH1 0xA DUP6 DIV SWAP5 POP DUP5 PUSH2 0x284C JUMPI POP SWAP4 SWAP3 POP POP POP JUMP JUMPDEST PUSH1 0x0 DUP1 PUSH1 0x0 DUP4 MLOAD PUSH1 0x41 SUB PUSH2 0x28B8 JUMPI PUSH1 0x20 DUP5 ADD MLOAD PUSH1 0x40 DUP6 ADD MLOAD PUSH1 0x60 DUP7 ADD MLOAD PUSH1 0x0 BYTE PUSH2 0x28AA DUP9 DUP3 DUP6 DUP6 PUSH2 0x2A60 JUMP JUMPDEST SWAP6 POP SWAP6 POP SWAP6 POP POP POP POP PUSH2 0x28C4 JUMP JUMPDEST POP POP DUP2 MLOAD PUSH1 0x0 SWAP2 POP PUSH1 0x2 SWAP1 JUMPDEST SWAP3 POP SWAP3 POP SWAP3 JUMP JUMPDEST PUSH1 0x0 DUP3 PUSH1 0x3 DUP2 GT ISZERO PUSH2 0x28DF JUMPI PUSH2 0x28DF PUSH2 0x3750 JUMP JUMPDEST SUB PUSH2 0x28E8 JUMPI POP POP JUMP JUMPDEST PUSH1 0x1 DUP3 PUSH1 0x3 DUP2 GT ISZERO PUSH2 0x28FC JUMPI PUSH2 0x28FC PUSH2 0x3750 JUMP JUMPDEST SUB PUSH2 0x291A JUMPI PUSH1 0x40 MLOAD PUSH4 0xF645EEDF PUSH1 0xE0 SHL DUP2 MSTORE PUSH1 0x4 ADD PUSH1 0x40 MLOAD DUP1 SWAP2 SUB SWAP1 REVERT JUMPDEST PUSH1 0x2 DUP3 PUSH1 0x3 DUP2 GT ISZERO PUSH2 0x292E JUMPI PUSH2 0x292E PUSH2 0x3750 JUMP JUMPDEST SUB PUSH2 0x294F JUMPI PUSH1 0x40 MLOAD PUSH4 0xFCE698F7 PUSH1 0xE0 SHL DUP2 MSTORE PUSH1 0x4 DUP2 ADD DUP3 SWAP1 MSTORE PUSH1 0x24 ADD PUSH2 0x6BB JUMP JUMPDEST PUSH1 0x3 DUP3 PUSH1 0x3 DUP2 GT ISZERO PUSH2 0x2963 JUMPI PUSH2 0x2963 PUSH2 0x3750 JUMP JUMPDEST SUB PUSH2 0x2984 JUMPI PUSH1 0x40 MLOAD PUSH4 0x35E2F383 PUSH1 0xE2 SHL DUP2 MSTORE PUSH1 0x4 DUP2 ADD DUP3 SWAP1 MSTORE PUSH1 0x24 ADD PUSH2 0x6BB JUMP JUMPDEST POP POP JUMP JUMPDEST PUSH1 0x0 DUP1 PUSH19 0x184F03E93FF9F4DAA797ED6E38ED64BF6A1F01 PUSH1 0x40 SHL DUP4 LT PUSH2 0x29C7 JUMPI PUSH19 0x184F03E93FF9F4DAA797ED6E38ED64BF6A1F01 PUSH1 0x40 SHL DUP4 DIV SWAP3 POP PUSH1 0x40 ADD JUMPDEST PUSH14 0x4EE2D6D415B85ACEF8100000000 DUP4 LT PUSH2 0x29F3 JUMPI PUSH14 0x4EE2D6D415B85ACEF8100000000 DUP4 DIV SWAP3 POP PUSH1 0x20 ADD JUMPDEST PUSH7 0x2386F26FC10000 DUP4 LT PUSH2 0x2A11 JUMPI PUSH7 0x2386F26FC10000 DUP4 DIV SWAP3 POP PUSH1 0x10 ADD JUMPDEST PUSH4 0x5F5E100 DUP4 LT PUSH2 0x2A29 JUMPI PUSH4 0x5F5E100 DUP4 DIV SWAP3 POP PUSH1 0x8 ADD JUMPDEST PUSH2 0x2710 DUP4 LT PUSH2 0x2A3D JUMPI PUSH2 0x2710 DUP4 DIV SWAP3 POP PUSH1 0x4 ADD JUMPDEST PUSH1 0x64 DUP4 LT PUSH2 0x2A4F JUMPI PUSH1 0x64 DUP4 DIV SWAP3 POP PUSH1 0x2 ADD JUMPDEST PUSH1 0xA DUP4 LT PUSH2 0x27E6 JUMPI PUSH1 0x1 ADD SWAP3 SWAP2 POP POP JUMP JUMPDEST PUSH1 0x0 DUP1 DUP1 PUSH32 0x7FFFFFFFFFFFFFFFFFFFFFFFFFFFFFFF5D576E7357A4501DDFE92F46681B20A0 DUP5 GT ISZERO PUSH2 0x2A9B JUMPI POP PUSH1 0x0 SWAP2 POP PUSH1 0x3 SWAP1 POP DUP3 PUSH2 0x2B25 JUMP JUMPDEST PUSH1 0x40 DUP1 MLOAD PUSH1 0x0 DUP1 DUP3 MSTORE PUSH1 0x20 DUP3 ADD DUP1 DUP5 MSTORE DUP11 SWAP1 MSTORE PUSH1 0xFF DUP10 AND SWAP3 DUP3 ADD SWAP3 SWAP1 SWAP3 MSTORE PUSH1 0x60 DUP2 ADD DUP8 SWAP1 MSTORE PUSH1 0x80 DUP2 ADD DUP7 SWAP1 MSTORE PUSH1 0x1 SWAP1 PUSH1 0xA0 ADD PUSH1 0x20 PUSH1 0x40 MLOAD PUSH1 0x20 DUP2 SUB SWAP1 DUP1 DUP5 SUB SWAP1 DUP6 GAS STATICCALL ISZERO DUP1 ISZERO PUSH2 0x2AEF JUMPI RETURNDATASIZE PUSH1 0x0 DUP1 RETURNDATACOPY RETURNDATASIZE PUSH1 0x0 REVERT JUMPDEST POP POP PUSH1 0x40 MLOAD PUSH1 0x1F NOT ADD MLOAD SWAP2 POP POP PUSH1 0x1 PUSH1 0x1 PUSH1 0xA0 SHL SUB DUP2 AND PUSH2 0x2B1B JUMPI POP PUSH1 0x0 SWAP3 POP PUSH1 0x1 SWAP2 POP DUP3 SWAP1 POP PUSH2 0x2B25 JUMP JUMPDEST SWAP3 POP PUSH1 0x0 SWAP2 POP DUP2 SWAP1 POP JUMPDEST SWAP5 POP SWAP5 POP SWAP5 SWAP2 POP POP JUMP JUMPDEST PUSH1 0x1 PUSH1 0x1 PUSH1 0xA0 SHL SUB DUP2 AND DUP2 EQ PUSH2 0x235C JUMPI PUSH1 0x0 DUP1 REVERT JUMPDEST PUSH1 0x0 PUSH1 0x20 DUP3 DUP5 SUB SLT ISZERO PUSH2 0x2B56 JUMPI PUSH1 0x0 DUP1 REVERT JUMPDEST DUP2 CALLDATALOAD PUSH2 0x1D9D DUP2 PUSH2 0x2B2F JUMP JUMPDEST PUSH1 0x0 PUSH1 0x40 DUP3 DUP5 SUB SLT ISZERO PUSH2 0x2B73 JUMPI PUSH1 0x0 DUP1 REVERT JUMPDEST POP SWAP2 SWAP1 POP JUMP JUMPDEST PUSH1 0x0 DUP1 DUP4 PUSH1 0x1F DUP5 ADD SLT PUSH2 0x2B8B JUMPI PUSH1 0x0 DUP1 REVERT JUMPDEST POP DUP2 CALLDATALOAD PUSH1 0x1 PUSH1 0x1 PUSH1 0x40 SHL SUB DUP2 GT ISZERO PUSH2 0x2BA2 JUMPI PUSH1 0x0 DUP1 REVERT JUMPDEST PUSH1 0x20 DUP4 ADD SWAP2 POP DUP4 PUSH1 0x20 DUP3 DUP6 ADD ADD GT ISZERO PUSH2 0x2BBA JUMPI PUSH1 0x0 DUP1 REVERT JUMPDEST SWAP3 POP SWAP3 SWAP1 POP JUMP JUMPDEST PUSH1 0x0 DUP1 PUSH1 0x0 DUP1 PUSH1 0x0 PUSH1 0x80 DUP7 DUP9 SUB SLT ISZERO PUSH2 0x2BD9 JUMPI PUSH1 0x0 DUP1 REVERT JUMPDEST DUP6 CALLDATALOAD PUSH2 0x2BE4 DUP2 PUSH2 0x2B2F JUMP JUMPDEST SWAP5 POP PUSH1 0x20 DUP7 ADD CALLDATALOAD PUSH2 0x2BF4 DUP2 PUSH2 0x2B2F JUMP JUMPDEST SWAP4 POP PUSH1 0x40 DUP7 ADD CALLDATALOAD SWAP3 POP PUSH1 0x60 DUP7 ADD CALLDATALOAD PUSH1 0x1 PUSH1 0x1 PUSH1 0x40 SHL SUB DUP2 GT ISZERO PUSH2 0x2C16 JUMPI PUSH1 0x0 DUP1 REVERT JUMPDEST PUSH2 0x2C22 DUP9 DUP3 DUP10 ADD PUSH2 0x2B79 JUMP JUMPDEST SWAP7 SWAP10 SWAP6 SWAP9 POP SWAP4 SWAP7 POP SWAP3 SWAP5 SWAP4 SWAP3 POP POP POP JUMP JUMPDEST PUSH1 0x0 DUP1 PUSH1 0x20 DUP4 DUP6 SUB SLT ISZERO PUSH2 0x2C46 JUMPI PUSH1 0x0 DUP1 REVERT JUMPDEST DUP3 CALLDATALOAD PUSH1 0x1 PUSH1 0x1 PUSH1 0x40 SHL SUB DUP2 GT ISZERO PUSH2 0x2C5C JUMPI PUSH1 0x0 DUP1 REVERT JUMPDEST PUSH2 0x2C68 DUP6 DUP3 DUP7 ADD PUSH2 0x2B79 JUMP JUMPDEST SWAP1 SWAP7 SWAP1 SWAP6 POP SWAP4 POP POP POP POP JUMP JUMPDEST PUSH1 0x0 PUSH1 0x20 DUP3 DUP5 SUB SLT ISZERO PUSH2 0x2C86 JUMPI PUSH1 0x0 DUP1 REVERT JUMPDEST POP CALLDATALOAD SWAP2 SWAP1 POP JUMP JUMPDEST PUSH4 0x4E487B71 PUSH1 0xE0 SHL PUSH1 0x0 MSTORE PUSH1 0x41 PUSH1 0x4 MSTORE PUSH1 0x24 PUSH1 0x0 REVERT JUMPDEST PUSH1 0x40 DUP1 MLOAD SWAP1 DUP2 ADD PUSH1 0x1 PUSH1 0x1 PUSH1 0x40 SHL SUB DUP2 GT DUP3 DUP3 LT OR ISZERO PUSH2 0x2CC5 JUMPI PUSH2 0x2CC5 PUSH2 0x2C8D JUMP JUMPDEST PUSH1 0x40 MSTORE SWAP1 JUMP JUMPDEST PUSH1 0x40 MLOAD PUSH1 0x1F DUP3 ADD PUSH1 0x1F NOT AND DUP2 ADD PUSH1 0x1 PUSH1 0x1 PUSH1 0x40 SHL SUB DUP2 GT DUP3 DUP3 LT OR ISZERO PUSH2 0x2CF3 JUMPI PUSH2 0x2CF3 PUSH2 0x2C8D JUMP JUMPDEST PUSH1 0x40 MSTORE SWAP2 SWAP1 POP JUMP JUMPDEST PUSH1 0x0 PUSH1 0x1 PUSH1 0x1 PUSH1 0x40 SHL SUB DUP3 GT ISZERO PUSH2 0x2D14 JUMPI PUSH2 0x2D14 PUSH2 0x2C8D JUMP JUMPDEST POP PUSH1 0x1F ADD PUSH1 0x1F NOT AND PUSH1 0x20 ADD SWAP1 JUMP JUMPDEST PUSH1 0x0 PUSH2 0x2D35 PUSH2 0x2D30 DUP5 PUSH2 0x2CFB JUMP JUMPDEST PUSH2 0x2CCB JUMP JUMPDEST SWAP1 POP DUP3 DUP2 MSTORE DUP4 DUP4 DUP4 ADD GT ISZERO PUSH2 0x2D49 JUMPI PUSH1 0x0 DUP1 REVERT JUMPDEST DUP3 DUP3 PUSH1 0x20 DUP4 ADD CALLDATACOPY PUSH1 0x0 PUSH1 0x20 DUP5 DUP4 ADD ADD MSTORE SWAP4 SWAP3 POP POP POP JUMP JUMPDEST PUSH1 0x0 DUP3 PUSH1 0x1F DUP4 ADD SLT PUSH2 0x2D71 JUMPI PUSH1 0x0 DUP1 REVERT JUMPDEST PUSH2 0x1D9D DUP4 DUP4 CALLDATALOAD PUSH1 0x20 DUP6 ADD PUSH2 0x2D22 JUMP JUMPDEST PUSH1 0x0 PUSH1 0x60 DUP3 DUP5 SUB SLT ISZERO PUSH2 0x2D92 JUMPI PUSH1 0x0 DUP1 REVERT JUMPDEST PUSH1 0x40 MLOAD PUSH1 0x60 DUP2 ADD PUSH1 0x1 PUSH1 0x1 PUSH1 0x40 SHL SUB DUP3 DUP3 LT DUP2 DUP4 GT OR ISZERO PUSH2 0x2DB5 JUMPI PUSH2 0x2DB5 PUSH2 0x2C8D JUMP JUMPDEST DUP2 PUSH1 0x40 MSTORE DUP3 SWAP4 POP DUP5 CALLDATALOAD DUP4 MSTORE PUSH1 0x20 DUP6 ADD CALLDATALOAD PUSH1 0x20 DUP5 ADD MSTORE PUSH1 0x40 DUP6 ADD CALLDATALOAD SWAP2 POP DUP1 DUP3 GT ISZERO PUSH2 0x2DDE JUMPI PUSH1 0x0 DUP1 REVERT JUMPDEST POP PUSH2 0x2DEB DUP6 DUP3 DUP7 ADD PUSH2 0x2D60 JUMP JUMPDEST PUSH1 0x40 DUP4 ADD MSTORE POP POP SWAP3 SWAP2 POP POP JUMP JUMPDEST PUSH1 0x0 PUSH1 0x20 DUP3 DUP5 SUB SLT ISZERO PUSH2 0x2E0A JUMPI PUSH1 0x0 DUP1 REVERT JUMPDEST DUP2 CALLDATALOAD PUSH1 0x1 PUSH1 0x1 PUSH1 0x40 SHL SUB DUP2 GT ISZERO PUSH2 0x2E20 JUMPI PUSH1 0x0 DUP1 REVERT JUMPDEST PUSH2 0x2E2C DUP5 DUP3 DUP6 ADD PUSH2 0x2D80 JUMP JUMPDEST SWAP5 SWAP4 POP POP POP POP JUMP JUMPDEST DUP1 ISZERO ISZERO DUP2 EQ PUSH2 0x235C JUMPI PUSH1 0x0 DUP1 REVERT JUMPDEST PUSH1 0x0 PUSH1 0x20 DUP3 DUP5 SUB SLT ISZERO PUSH2 0x2E54 JUMPI PUSH1 0x0 DUP1 REVERT JUMPDEST DUP2 CALLDATALOAD PUSH1 0x1 PUSH1 0x1 PUSH1 0x40 SHL SUB DUP1 DUP3 GT ISZERO PUSH2 0x2E6B JUMPI PUSH1 0x0 DUP1 REVERT JUMPDEST SWAP1 DUP4 ADD SWAP1 PUSH1 0x40 DUP3 DUP7 SUB SLT ISZERO PUSH2 0x2E7F JUMPI PUSH1 0x0 DUP1 REVERT JUMPDEST PUSH2 0x2E87 PUSH2 0x2CA3 JUMP JUMPDEST DUP3 CALLDATALOAD PUSH2 0x2E92 DUP2 PUSH2 0x2E34 JUMP JUMPDEST DUP2 MSTORE PUSH1 0x20 DUP4 ADD CALLDATALOAD DUP3 DUP2 GT ISZERO PUSH2 0x2EA6 JUMPI PUSH1 0x0 DUP1 REVERT JUMPDEST PUSH2 0x2EB2 DUP8 DUP3 DUP7 ADD PUSH2 0x2D60 JUMP JUMPDEST PUSH1 0x20 DUP4 ADD MSTORE POP SWAP6 SWAP5 POP POP POP POP POP JUMP JUMPDEST PUSH1 0x0 JUMPDEST DUP4 DUP2 LT ISZERO PUSH2 0x2EDC JUMPI DUP2 DUP2 ADD MLOAD DUP4 DUP3 ADD MSTORE PUSH1 0x20 ADD PUSH2 0x2EC4 JUMP JUMPDEST POP POP PUSH1 0x0 SWAP2 ADD MSTORE JUMP JUMPDEST PUSH1 0x0 DUP2 MLOAD DUP1 DUP5 MSTORE PUSH2 0x2EFD DUP2 PUSH1 0x20 DUP7 ADD PUSH1 0x20 DUP7 ADD PUSH2 0x2EC1 JUMP JUMPDEST PUSH1 0x1F ADD PUSH1 0x1F NOT AND SWAP3 SWAP1 SWAP3 ADD PUSH1 0x20 ADD SWAP3 SWAP2 POP POP JUMP JUMPDEST PUSH1 0x20 DUP2 MSTORE PUSH1 0x0 PUSH2 0x1D9D PUSH1 0x20 DUP4 ADD DUP5 PUSH2 0x2EE5 JUMP JUMPDEST PUSH1 0x20 DUP1 DUP3 MSTORE DUP3 MLOAD DUP3 DUP3 ADD DUP2 SWAP1 MSTORE PUSH1 0x0 SWAP2 SWAP1 PUSH1 0x40 SWAP1 DUP2 DUP6 ADD SWAP1 DUP7 DUP5 ADD DUP6 JUMPDEST DUP3 DUP2 LT ISZERO PUSH2 0x2F77 JUMPI PUSH2 0x2F67 DUP5 DUP4 MLOAD DUP1 MLOAD PUSH1 0x1 PUSH1 0x1 PUSH1 0xA0 SHL SUB AND DUP3 MSTORE PUSH1 0x20 SWAP1 DUP2 ADD MLOAD SWAP2 ADD MSTORE JUMP JUMPDEST SWAP3 DUP5 ADD SWAP3 SWAP1 DUP6 ADD SWAP1 PUSH1 0x1 ADD PUSH2 0x2F41 JUMP JUMPDEST POP SWAP2 SWAP8 SWAP7 POP POP POP POP POP POP POP JUMP JUMPDEST PUSH1 0x0 PUSH1 0x20 DUP3 DUP5 SUB SLT ISZERO PUSH2 0x2F96 JUMPI PUSH1 0x0 DUP1 REVERT JUMPDEST DUP2 CALLDATALOAD PUSH1 0x1 PUSH1 0x1 PUSH1 0x40 SHL SUB DUP2 GT ISZERO PUSH2 0x2FAC JUMPI PUSH1 0x0 DUP1 REVERT JUMPDEST PUSH2 0x2E2C DUP5 DUP3 DUP6 ADD PUSH2 0x2D60 JUMP JUMPDEST PUSH1 0x0 PUSH1 0x20 DUP3 DUP5 SUB SLT ISZERO PUSH2 0x2FCA JUMPI PUSH1 0x0 DUP1 REVERT JUMPDEST DUP2 CALLDATALOAD PUSH2 0x1D9D DUP2 PUSH2 0x2E34 JUMP JUMPDEST PUSH1 0x0 DUP1 PUSH1 0x0 DUP1 PUSH1 0x80 DUP6 DUP8 SUB SLT ISZERO PUSH2 0x2FEB JUMPI PUSH1 0x0 DUP1 REVERT JUMPDEST DUP5 CALLDATALOAD PUSH2 0x2FF6 DUP2 PUSH2 0x2B2F JUMP JUMPDEST SWAP4 POP PUSH1 0x20 DUP6 ADD CALLDATALOAD PUSH2 0x3006 DUP2 PUSH2 0x2B2F JUMP JUMPDEST SWAP3 POP PUSH1 0x40 DUP6 ADD CALLDATALOAD PUSH1 0x1 PUSH1 0x1 PUSH1 0x40 SHL SUB DUP1 DUP3 GT ISZERO PUSH2 0x3022 JUMPI PUSH1 0x0 DUP1 REVERT JUMPDEST DUP2 DUP8 ADD SWAP2 POP DUP8 PUSH1 0x1F DUP4 ADD SLT PUSH2 0x3036 JUMPI PUSH1 0x0 DUP1 REVERT JUMPDEST PUSH2 0x3045 DUP9 DUP4 CALLDATALOAD PUSH1 0x20 DUP6 ADD PUSH2 0x2D22 JUMP JUMPDEST SWAP4 POP PUSH1 0x60 DUP8 ADD CALLDATALOAD SWAP2 POP DUP1 DUP3 GT ISZERO PUSH2 0x305B JUMPI PUSH1 0x0 DUP1 REVERT JUMPDEST POP PUSH2 0x3068 DUP8 DUP3 DUP9 ADD PUSH2 0x2D60 JUMP JUMPDEST SWAP2 POP POP SWAP3 SWAP6 SWAP2 SWAP5 POP SWAP3 POP JUMP JUMPDEST PUSH1 0x20 DUP1 DUP3 MSTORE PUSH1 0x29 SWAP1 DUP3 ADD MSTORE PUSH32 0x4176617461723A206F6E6C79206F776E65722063616E2063616C6C2074686973 PUSH1 0x40 DUP3 ADD MSTORE PUSH9 0x10333AB731BA34B7B7 PUSH1 0xB9 SHL PUSH1 0x60 DUP3 ADD MSTORE PUSH1 0x80 ADD SWAP1 JUMP JUMPDEST PUSH1 0x20 DUP1 DUP3 MSTORE PUSH1 0x2D SWAP1 DUP3 ADD MSTORE PUSH32 0x4176617461723A207765617261626C652061737365742063616E6E6F74206265 PUSH1 0x40 DUP3 ADD MSTORE PUSH13 0x207A65726F2061646472657373 PUSH1 0x98 SHL PUSH1 0x60 DUP3 ADD MSTORE PUSH1 0x80 ADD SWAP1 JUMP JUMPDEST PUSH1 0x20 DUP1 DUP3 MSTORE PUSH1 0x27 SWAP1 DUP3 ADD MSTORE PUSH32 0x4176617461723A207765617261626C6520746F6B656E49642063616E6E6F7420 PUSH1 0x40 DUP3 ADD MSTORE PUSH7 0x6265207A65726F PUSH1 0xC8 SHL PUSH1 0x60 DUP3 ADD MSTORE PUSH1 0x80 ADD SWAP1 JUMP JUMPDEST PUSH1 0x0 PUSH1 0x20 DUP3 DUP5 SUB SLT ISZERO PUSH2 0x3163 JUMPI PUSH1 0x0 DUP1 REVERT JUMPDEST DUP2 MLOAD PUSH2 0x1D9D DUP2 PUSH2 0x2E34 JUMP JUMPDEST PUSH1 0x0 PUSH1 0x20 DUP3 DUP5 SUB SLT ISZERO PUSH2 0x3180 JUMPI PUSH1 0x0 DUP1 REVERT JUMPDEST DUP2 MLOAD PUSH2 0x1D9D DUP2 PUSH2 0x2B2F JUMP JUMPDEST DUP3 DUP2 MSTORE PUSH1 0x60 DUP2 ADD DUP3 CALLDATALOAD PUSH2 0x319D DUP2 PUSH2 0x2B2F JUMP JUMPDEST PUSH1 0x1 PUSH1 0x1 PUSH1 0xA0 SHL SUB AND PUSH1 0x20 DUP4 DUP2 ADD SWAP2 SWAP1 SWAP2 MSTORE SWAP3 SWAP1 SWAP3 ADD CALLDATALOAD PUSH1 0x40 SWAP1 SWAP2 ADD MSTORE SWAP2 SWAP1 POP JUMP JUMPDEST PUSH1 0x20 DUP2 MSTORE DUP2 PUSH1 0x20 DUP3 ADD MSTORE DUP2 DUP4 PUSH1 0x40 DUP4 ADD CALLDATACOPY PUSH1 0x0 DUP2 DUP4 ADD PUSH1 0x40 SWAP1 DUP2 ADD SWAP2 SWAP1 SWAP2 MSTORE PUSH1 0x1F SWAP1 SWAP3 ADD PUSH1 0x1F NOT AND ADD ADD SWAP2 SWAP1 POP JUMP JUMPDEST PUSH1 0x20 DUP1 DUP3 MSTORE PUSH1 0x2B SWAP1 DUP3 ADD MSTORE PUSH32 0x4176617461723A206F6E6C7920666163746F72792063616E2063616C6C207468 PUSH1 0x40 DUP3 ADD MSTORE PUSH11 0x34B990333AB731BA34B7B7 PUSH1 0xA9 SHL PUSH1 0x60 DUP3 ADD MSTORE PUSH1 0x80 ADD SWAP1 JUMP JUMPDEST PUSH1 0x20 DUP1 DUP3 MSTORE PUSH1 0x2C SWAP1 DUP3 ADD MSTORE PUSH32 0x4176617461723A206167726565642066656520646F6573206E6F74206D617463 PUSH1 0x40 DUP3 ADD MSTORE PUSH12 0x6820706F7274616C20666565 PUSH1 0xA0 SHL PUSH1 0x60 DUP3 ADD MSTORE PUSH1 0x80 ADD SWAP1 JUMP JUMPDEST PUSH4 0x4E487B71 PUSH1 0xE0 SHL PUSH1 0x0 MSTORE PUSH1 0x11 PUSH1 0x4 MSTORE PUSH1 0x24 PUSH1 0x0 REVERT JUMPDEST DUP1 DUP3 ADD DUP1 DUP3 GT ISZERO PUSH2 0x27E6 JUMPI PUSH2 0x27E6 PUSH2 0x3285 JUMP JUMPDEST PUSH1 0x20 DUP1 DUP3 MSTORE PUSH1 0x27 SWAP1 DUP3 ADD MSTORE PUSH32 0x4176617461723A20696E73756666696369656E742066756E647320666F72206A PUSH1 0x40 DUP3 ADD MSTORE PUSH7 0x756D7020666565 PUSH1 0xC8 SHL PUSH1 0x60 DUP3 ADD MSTORE PUSH1 0x80 ADD SWAP1 JUMP JUMPDEST PUSH1 0x0 DUP3 PUSH1 0x1F DUP4 ADD SLT PUSH2 0x3306 JUMPI PUSH1 0x0 DUP1 REVERT JUMPDEST DUP2 MLOAD PUSH2 0x3314 PUSH2 0x2D30 DUP3 PUSH2 0x2CFB JUMP JUMPDEST DUP2 DUP2 MSTORE DUP5 PUSH1 0x20 DUP4 DUP7 ADD ADD GT ISZERO PUSH2 0x3329 JUMPI PUSH1 0x0 DUP1 REVERT JUMPDEST PUSH2 0x2E2C DUP3 PUSH1 0x20 DUP4 ADD PUSH1 0x20 DUP8 ADD PUSH2 0x2EC1 JUMP JUMPDEST PUSH1 0x0 PUSH1 0x20 DUP3 DUP5 SUB SLT ISZERO PUSH2 0x334C JUMPI PUSH1 0x0 DUP1 REVERT JUMPDEST DUP2 MLOAD PUSH1 0x1 PUSH1 0x1 PUSH1 0x40 SHL SUB DUP2 GT ISZERO PUSH2 0x3362 JUMPI PUSH1 0x0 DUP1 REVERT JUMPDEST PUSH2 0x2E2C DUP5 DUP3 DUP6 ADD PUSH2 0x32F5 JUMP JUMPDEST PUSH1 0x0 DUP3 MLOAD PUSH2 0x3380 DUP2 DUP5 PUSH1 0x20 DUP8 ADD PUSH2 0x2EC1 JUMP JUMPDEST SWAP2 SWAP1 SWAP2 ADD SWAP3 SWAP2 POP POP JUMP JUMPDEST PUSH1 0x20 DUP2 MSTORE DUP2 MLOAD ISZERO ISZERO PUSH1 0x20 DUP3 ADD MSTORE PUSH1 0x0 PUSH1 0x20 DUP4 ADD MLOAD PUSH1 0x40 DUP1 DUP5 ADD MSTORE PUSH2 0x2E2C PUSH1 0x60 DUP5 ADD DUP3 PUSH2 0x2EE5 JUMP JUMPDEST PUSH1 0x0 PUSH1 0x20 DUP1 DUP4 DUP6 SUB SLT ISZERO PUSH2 0x33C4 JUMPI PUSH1 0x0 DUP1 REVERT JUMPDEST DUP3 MLOAD PUSH1 0x1 PUSH1 0x1 PUSH1 0x40 SHL SUB DUP1 DUP3 GT ISZERO PUSH2 0x33DB JUMPI PUSH1 0x0 DUP1 REVERT JUMPDEST DUP2 DUP6 ADD SWAP2 POP DUP6 PUSH1 0x1F DUP4 ADD SLT PUSH2 0x33EF JUMPI PUSH1 0x0 DUP1 REVERT JUMPDEST DUP2 MLOAD DUP2 DUP2 GT ISZERO PUSH2 0x3401 JUMPI PUSH2 0x3401 PUSH2 0x2C8D JUMP JUMPDEST PUSH2 0x340F DUP5 DUP3 PUSH1 0x5 SHL ADD PUSH2 0x2CCB JUMP JUMPDEST DUP2 DUP2 MSTORE DUP5 DUP2 ADD SWAP3 POP PUSH1 0x6 SWAP2 SWAP1 SWAP2 SHL DUP4 ADD DUP5 ADD SWAP1 DUP8 DUP3 GT ISZERO PUSH2 0x342F JUMPI PUSH1 0x0 DUP1 REVERT JUMPDEST SWAP3 DUP5 ADD SWAP3 JUMPDEST DUP2 DUP5 LT ISZERO PUSH2 0x347B JUMPI PUSH1 0x40 DUP5 DUP10 SUB SLT ISZERO PUSH2 0x344D JUMPI PUSH1 0x0 DUP1 DUP2 REVERT JUMPDEST PUSH2 0x3455 PUSH2 0x2CA3 JUMP JUMPDEST DUP5 MLOAD PUSH2 0x3460 DUP2 PUSH2 0x2B2F JUMP JUMPDEST DUP2 MSTORE DUP5 DUP7 ADD MLOAD DUP7 DUP3 ADD MSTORE DUP4 MSTORE PUSH1 0x40 SWAP1 SWAP4 ADD SWAP3 SWAP2 DUP5 ADD SWAP2 PUSH2 0x3434 JUMP JUMPDEST SWAP8 SWAP7 POP POP POP POP POP POP POP JUMP JUMPDEST PUSH1 0x1 DUP2 DUP2 SHR SWAP1 DUP3 AND DUP1 PUSH2 0x349A JUMPI PUSH1 0x7F DUP3 AND SWAP2 POP JUMPDEST PUSH1 0x20 DUP3 LT DUP2 SUB PUSH2 0x2B73 JUMPI PUSH4 0x4E487B71 PUSH1 0xE0 SHL PUSH1 0x0 MSTORE PUSH1 0x22 PUSH1 0x4 MSTORE PUSH1 0x24 PUSH1 0x0 REVERT JUMPDEST PUSH1 0x0 PUSH1 0x80 DUP3 DUP5 SUB SLT ISZERO PUSH2 0x34CC JUMPI PUSH1 0x0 DUP1 REVERT JUMPDEST PUSH1 0x40 MLOAD PUSH1 0x80 DUP2 ADD DUP2 DUP2 LT PUSH1 0x1 PUSH1 0x1 PUSH1 0x40 SHL SUB DUP3 GT OR ISZERO PUSH2 0x34EE JUMPI PUSH2 0x34EE PUSH2 0x2C8D JUMP JUMPDEST PUSH1 0x40 MSTORE DUP3 MLOAD PUSH2 0x34FC DUP2 PUSH2 0x2B2F JUMP JUMPDEST DUP2 MSTORE PUSH1 0x20 DUP4 ADD MLOAD PUSH2 0x350C DUP2 PUSH2 0x2B2F JUMP JUMPDEST PUSH1 0x20 DUP3 ADD MSTORE PUSH1 0x40 DUP4 DUP2 ADD MLOAD SWAP1 DUP3 ADD MSTORE PUSH1 0x60 DUP4 ADD MLOAD PUSH2 0x3529 DUP2 PUSH2 0x2E34 JUMP JUMPDEST PUSH1 0x60 DUP3 ADD MSTORE SWAP4 SWAP3 POP POP POP JUMP JUMPDEST PUSH1 0x1F DUP3 GT ISZERO PUSH2 0x3581 JUMPI PUSH1 0x0 DUP2 PUSH1 0x0 MSTORE PUSH1 0x20 PUSH1 0x0 KECCAK256 PUSH1 0x1F DUP6 ADD PUSH1 0x5 SHR DUP2 ADD PUSH1 0x20 DUP7 LT ISZERO PUSH2 0x355E JUMPI POP DUP1 JUMPDEST PUSH1 0x1F DUP6 ADD PUSH1 0x5 SHR DUP3 ADD SWAP2 POP JUMPDEST DUP2 DUP2 LT ISZERO PUSH2 0x357D JUMPI DUP3 DUP2 SSTORE PUSH1 0x1 ADD PUSH2 0x356A JUMP JUMPDEST POP POP POP JUMPDEST POP POP POP JUMP JUMPDEST DUP2 MLOAD PUSH1 0x1 PUSH1 0x1 PUSH1 0x40 SHL SUB DUP2 GT ISZERO PUSH2 0x359F JUMPI PUSH2 0x359F PUSH2 0x2C8D JUMP JUMPDEST PUSH2 0x35B3 DUP2 PUSH2 0x35AD DUP5 SLOAD PUSH2 0x3486 JUMP JUMPDEST DUP5 PUSH2 0x3535 JUMP JUMPDEST PUSH1 0x20 DUP1 PUSH1 0x1F DUP4 GT PUSH1 0x1 DUP2 EQ PUSH2 0x35E8 JUMPI PUSH1 0x0 DUP5 ISZERO PUSH2 0x35D0 JUMPI POP DUP6 DUP4 ADD MLOAD JUMPDEST PUSH1 0x0 NOT PUSH1 0x3 DUP7 SWAP1 SHL SHR NOT AND PUSH1 0x1 DUP6 SWAP1 SHL OR DUP6 SSTORE PUSH2 0x357D JUMP JUMPDEST PUSH1 0x0 DUP6 DUP2 MSTORE PUSH1 0x20 DUP2 KECCAK256 PUSH1 0x1F NOT DUP7 AND SWAP2 JUMPDEST DUP3 DUP2 LT ISZERO PUSH2 0x3617 JUMPI DUP9 DUP7 ADD MLOAD DUP3 SSTORE SWAP5 DUP5 ADD SWAP5 PUSH1 0x1 SWAP1 SWAP2 ADD SWAP1 DUP5 ADD PUSH2 0x35F8 JUMP JUMPDEST POP DUP6 DUP3 LT ISZERO PUSH2 0x3635 JUMPI DUP8 DUP6 ADD MLOAD PUSH1 0x0 NOT PUSH1 0x3 DUP9 SWAP1 SHL PUSH1 0xF8 AND SHR NOT AND DUP2 SSTORE JUMPDEST POP POP POP POP POP PUSH1 0x1 SWAP1 DUP2 SHL ADD SWAP1 SSTORE POP JUMP JUMPDEST PUSH1 0x0 PUSH1 0x20 DUP3 DUP5 SUB SLT ISZERO PUSH2 0x3657 JUMPI PUSH1 0x0 DUP1 REVERT JUMPDEST DUP2 MLOAD PUSH1 0x1 PUSH1 0x1 PUSH1 0x40 SHL SUB DUP1 DUP3 GT ISZERO PUSH2 0x366E JUMPI PUSH1 0x0 DUP1 REVERT JUMPDEST SWAP1 DUP4 ADD SWAP1 PUSH1 0x40 DUP3 DUP7 SUB SLT ISZERO PUSH2 0x3682 JUMPI PUSH1 0x0 DUP1 REVERT JUMPDEST PUSH2 0x368A PUSH2 0x2CA3 JUMP JUMPDEST DUP3 MLOAD PUSH2 0x3695 DUP2 PUSH2 0x2E34 JUMP JUMPDEST DUP2 MSTORE PUSH1 0x20 DUP4 ADD MLOAD DUP3 DUP2 GT ISZERO PUSH2 0x36A9 JUMPI PUSH1 0x0 DUP1 REVERT JUMPDEST PUSH2 0x2EB2 DUP8 DUP3 DUP7 ADD PUSH2 0x32F5 JUMP JUMPDEST DUP3 DUP2 MSTORE PUSH1 0x60 DUP2 ADD PUSH2 0x1D9D PUSH1 0x20 DUP4 ADD DUP5 DUP1 MLOAD PUSH1 0x1 PUSH1 0x1 PUSH1 0xA0 SHL SUB AND DUP3 MSTORE PUSH1 0x20 SWAP1 DUP2 ADD MLOAD SWAP2 ADD MSTORE JUMP JUMPDEST PUSH1 0x0 PUSH1 0x1 DUP3 ADD PUSH2 0x36EE JUMPI PUSH2 0x36EE PUSH2 0x3285 JUMP JUMPDEST POP PUSH1 0x1 ADD SWAP1 JUMP JUMPDEST PUSH32 0x19457468657265756D205369676E6564204D6573736167653A0A000000000000 DUP2 MSTORE PUSH1 0x0 DUP4 MLOAD PUSH2 0x372D DUP2 PUSH1 0x1A DUP6 ADD PUSH1 0x20 DUP9 ADD PUSH2 0x2EC1 JUMP JUMPDEST DUP4 MLOAD SWAP1 DUP4 ADD SWAP1 PUSH2 0x3744 DUP2 PUSH1 0x1A DUP5 ADD PUSH1 0x20 DUP9 ADD PUSH2 0x2EC1 JUMP JUMPDEST ADD PUSH1 0x1A ADD SWAP5 SWAP4 POP POP POP POP JUMP JUMPDEST PUSH4 0x4E487B71 PUSH1 0xE0 SHL PUSH1 0x0 MSTORE PUSH1 0x21 PUSH1 0x4 MSTORE PUSH1 0x24 PUSH1 0x0 REVERT INVALID LOG2 PUSH5 0x6970667358 0x22 SLT KECCAK256 0xB4 SWAP9 CALLDATACOPY 0xA7 ADD PUSH18 0x243E22BDA63E4C32B9D0189A8EDB037ACD36 0xE9 PUSH7 0x74AC0391739A64 PUSH20 0x6F6C634300081800330000000000000000000000 "},"methodIdentifiers":{"addWearable((address,uint256))":"12deb11a","appearanceDetails()":"8970220e","assetRegistry()":"979d7e86","avatarFactory()":"60e741e8","avatarOwnerSigningNonce()":"f890d7c9","avatarRegistry()":"e3d7ad73","canReceiveTokensOutsideOfExperience()":"181d939b","companyRegistry()":"c51aba2b","companySigningNonce(address)":"03f7d3ba","delegateJump((uint256,uint256,bytes))":"7dc759e5","encodeInitData((bool,bytes))":"40ac3f0b","experienceRegistry()":"8f09a6be","getWearables()":"5cf59e1e","hook()":"7f5a7c7b","init(address,address,string,bytes)":"e427535c","isWearing((address,uint256))":"9be17fbc","jump((uint256,uint256,bytes))":"392f5669","location()":"516f279e","onERC721Received(address,address,uint256,bytes)":"150b7a02","onERC721Revoked(uint256)":"e62194f1","owner()":"8da5cb5b","portalRegistry()":"b6664934","removeHook()":"378f17ff","removeWearable((address,uint256))":"54cf0b39","setAppearanceDetails(bytes)":"949a1ddc","setCanReceiveTokensOutsideOfExperience(bool)":"9d870bf6","setHook(address)":"3dfd3873","upgrade(bytes)":"25394645","upgradeComplete(address)":"2663d1f7","username()":"61fac54d","version()":"54fd4d50","withdraw(uint256)":"2e1a7d4d"}}}}}