{"contracts/libraries/LibBaseProxy.sol":{"LibBaseProxy":{"abi":[{"inputs":[],"name":"BaseStorageSlot","outputs":[{"internalType":"bytes32","name":"","type":"bytes32"}],"stateMutability":"view","type":"function"}],"evm":{"bytecode":{"linkReferences":{},"object":"60a6610038600b82828239805160001a607314602b57634e487b7160e01b600052600060045260246000fd5b30600052607381538281f3fe730000000000000000000000000000000000000000301460806040526004361060335760003560e01c8063666219e3146038575b600080fd5b605e7f69198989339f34e10129e514286bde98979351148754faef989dde18bf6d14da81565b60405190815260200160405180910390f3fea2646970667358221220020f33ee40a5061c223111820f59611af9a2ee0cb2951982db8c5f597f897d3b64736f6c63430008180033","opcodes":"PUSH1 0xA6 PUSH2 0x38 PUSH1 0xB DUP3 DUP3 DUP3 CODECOPY DUP1 MLOAD PUSH1 0x0 BYTE PUSH1 0x73 EQ PUSH1 0x2B JUMPI PUSH4 0x4E487B71 PUSH1 0xE0 SHL PUSH1 0x0 MSTORE PUSH1 0x0 PUSH1 0x4 MSTORE PUSH1 0x24 PUSH1 0x0 REVERT JUMPDEST ADDRESS PUSH1 0x0 MSTORE PUSH1 0x73 DUP2 MSTORE8 DUP3 DUP2 RETURN INVALID PUSH20 0x0 ADDRESS EQ PUSH1 0x80 PUSH1 0x40 MSTORE PUSH1 0x4 CALLDATASIZE LT PUSH1 0x33 JUMPI PUSH1 0x0 CALLDATALOAD PUSH1 0xE0 SHR DUP1 PUSH4 0x666219E3 EQ PUSH1 0x38 JUMPI JUMPDEST PUSH1 0x0 DUP1 REVERT JUMPDEST PUSH1 0x5E PUSH32 0x69198989339F34E10129E514286BDE98979351148754FAEF989DDE18BF6D14DA DUP2 JUMP JUMPDEST PUSH1 0x40 MLOAD SWAP1 DUP2 MSTORE PUSH1 0x20 ADD PUSH1 0x40 MLOAD DUP1 SWAP2 SUB SWAP1 RETURN INVALID LOG2 PUSH5 0x6970667358 0x22 SLT KECCAK256 MUL 0xF CALLER 0xEE BLOCKHASH 0xA5 MOD SHR 0x22 BALANCE GT DUP3 0xF MSIZE PUSH2 0x1AF9 LOG2 0xEE 0xC 0xB2 SWAP6 NOT DUP3 0xDB DUP13 PUSH0 MSIZE PUSH32 0x897D3B64736F6C63430008180033000000000000000000000000000000000000 "},"methodIdentifiers":{"BaseStorageSlot()":"666219e3"}}}}}