{"contracts/libraries/LibAvatarV1Storage.sol":{"LibAvatarV1Storage":{"abi":[{"inputs":[],"name":"AVATAR_V1_STORAGE_SLOT","outputs":[{"internalType":"bytes32","name":"","type":"bytes32"}],"stateMutability":"view","type":"function"}],"evm":{"bytecode":{"linkReferences":{},"object":"60a6610038600b82828239805160001a607314602b57634e487b7160e01b600052600060045260246000fd5b30600052607381538281f3fe730000000000000000000000000000000000000000301460806040526004361060335760003560e01c80637c8fb416146038575b600080fd5b605e7fd38682225e685e93013f8a112db34d1d514857ac4394636132822a0c0fe2045081565b60405190815260200160405180910390f3fea2646970667358221220eb81a365bfadb08fdd3dd0d8302d9a0b0b3870bb4cf9411ff95d5ac739af663564736f6c63430008180033","opcodes":"PUSH1 0xA6 PUSH2 0x38 PUSH1 0xB DUP3 DUP3 DUP3 CODECOPY DUP1 MLOAD PUSH1 0x0 BYTE PUSH1 0x73 EQ PUSH1 0x2B JUMPI PUSH4 0x4E487B71 PUSH1 0xE0 SHL PUSH1 0x0 MSTORE PUSH1 0x0 PUSH1 0x4 MSTORE PUSH1 0x24 PUSH1 0x0 REVERT JUMPDEST ADDRESS PUSH1 0x0 MSTORE PUSH1 0x73 DUP2 MSTORE8 DUP3 DUP2 RETURN INVALID PUSH20 0x0 ADDRESS EQ PUSH1 0x80 PUSH1 0x40 MSTORE PUSH1 0x4 CALLDATASIZE LT PUSH1 0x33 JUMPI PUSH1 0x0 CALLDATALOAD PUSH1 0xE0 SHR DUP1 PUSH4 0x7C8FB416 EQ PUSH1 0x38 JUMPI JUMPDEST PUSH1 0x0 DUP1 REVERT JUMPDEST PUSH1 0x5E PUSH32 0xD38682225E685E93013F8A112DB34D1D514857AC4394636132822A0C0FE20450 DUP2 JUMP JUMPDEST PUSH1 0x40 MLOAD SWAP1 DUP2 MSTORE PUSH1 0x20 ADD PUSH1 0x40 MLOAD DUP1 SWAP2 SUB SWAP1 RETURN INVALID LOG2 PUSH5 0x6970667358 0x22 SLT KECCAK256 0xEB DUP2 LOG3 PUSH6 0xBFADB08FDD3D 0xD0 0xD8 ADDRESS 0x2D SWAP11 SIGNEXTEND SIGNEXTEND CODESIZE PUSH17 0xBB4CF9411FF95D5AC739AF663564736F6C PUSH4 0x43000818 STOP CALLER "},"methodIdentifiers":{"AVATAR_V1_STORAGE_SLOT()":"7c8fb416"}}}}}