{"contracts/libraries/LibExperienceV1Storage.sol":{"LibExperienceV1Storage":{"abi":[{"inputs":[],"name":"EXPERIENCE_V1_STORAGE_SLOT","outputs":[{"internalType":"bytes32","name":"","type":"bytes32"}],"stateMutability":"view","type":"function"}],"evm":{"bytecode":{"linkReferences":{},"object":"60a6610038600b82828239805160001a607314602b57634e487b7160e01b600052600060045260246000fd5b30600052607381538281f3fe730000000000000000000000000000000000000000301460806040526004361060335760003560e01c80635bfa5578146038575b600080fd5b605e7f7ea04aef6bca987a4816974a9eadce73182071dd7a8e8812099e1d973c1ae50581565b60405190815260200160405180910390f3fea264697066735822122083c199a6aaf0de8dd179209c21f59b92b78cc02c8b0ab429b43cb02446719a9f64736f6c63430008180033","opcodes":"PUSH1 0xA6 PUSH2 0x38 PUSH1 0xB DUP3 DUP3 DUP3 CODECOPY DUP1 MLOAD PUSH1 0x0 BYTE PUSH1 0x73 EQ PUSH1 0x2B JUMPI PUSH4 0x4E487B71 PUSH1 0xE0 SHL PUSH1 0x0 MSTORE PUSH1 0x0 PUSH1 0x4 MSTORE PUSH1 0x24 PUSH1 0x0 REVERT JUMPDEST ADDRESS PUSH1 0x0 MSTORE PUSH1 0x73 DUP2 MSTORE8 DUP3 DUP2 RETURN INVALID PUSH20 0x0 ADDRESS EQ PUSH1 0x80 PUSH1 0x40 MSTORE PUSH1 0x4 CALLDATASIZE LT PUSH1 0x33 JUMPI PUSH1 0x0 CALLDATALOAD PUSH1 0xE0 SHR DUP1 PUSH4 0x5BFA5578 EQ PUSH1 0x38 JUMPI JUMPDEST PUSH1 0x0 DUP1 REVERT JUMPDEST PUSH1 0x5E PUSH32 0x7EA04AEF6BCA987A4816974A9EADCE73182071DD7A8E8812099E1D973C1AE505 DUP2 JUMP JUMPDEST PUSH1 0x40 MLOAD SWAP1 DUP2 MSTORE PUSH1 0x20 ADD PUSH1 0x40 MLOAD DUP1 SWAP2 SUB SWAP1 RETURN INVALID LOG2 PUSH5 0x6970667358 0x22 SLT KECCAK256 DUP4 0xC1 SWAP10 0xA6 0xAA CREATE 0xDE DUP14 0xD1 PUSH26 0x209C21F59B92B78CC02C8B0AB429B43CB02446719A9F64736F6C PUSH4 0x43000818 STOP CALLER "},"methodIdentifiers":{"EXPERIENCE_V1_STORAGE_SLOT()":"5bfa5578"}}}}}