{
  "_format": "hh-sol-artifact-1",
  "contractName": "RegistrarRegistry",
  "sourceName": "contracts/RegistrarRegistry.sol",
  "abi": [
    {
      "inputs": [
        {
          "internalType": "address",
          "name": "mainAdmin",
          "type": "address"
        },
        {
          "internalType": "address[]",
          "name": "registerers",
          "type": "address[]"
        }
      ],
      "stateMutability": "nonpayable",
      "type": "constructor"
    },
    {
      "inputs": [],
      "name": "AccessControlBadConfirmation",
      "type": "error"
    },
    {
      "inputs": [
        {
          "internalType": "address",
          "name": "account",
          "type": "address"
        },
        {
          "internalType": "bytes32",
          "name": "neededRole",
          "type": "bytes32"
        }
      ],
      "name": "AccessControlUnauthorizedAccount",
      "type": "error"
    },
    {
      "anonymous": false,
      "inputs": [
        {
          "indexed": false,
          "internalType": "uint256",
          "name": "id",
          "type": "uint256"
        },
        {
          "indexed": false,
          "internalType": "address payable",
          "name": "signer",
          "type": "address"
        },
        {
          "indexed": false,
          "internalType": "uint256",
          "name": "tokens",
          "type": "uint256"
        }
      ],
      "name": "RegistrarAdded",
      "type": "event"
    },
    {
      "anonymous": false,
      "inputs": [
        {
          "indexed": true,
          "internalType": "bytes32",
          "name": "role",
          "type": "bytes32"
        },
        {
          "indexed": true,
          "internalType": "bytes32",
          "name": "previousAdminRole",
          "type": "bytes32"
        },
        {
          "indexed": true,
          "internalType": "bytes32",
          "name": "newAdminRole",
          "type": "bytes32"
        }
      ],
      "name": "RoleAdminChanged",
      "type": "event"
    },
    {
      "anonymous": false,
      "inputs": [
        {
          "indexed": true,
          "internalType": "bytes32",
          "name": "role",
          "type": "bytes32"
        },
        {
          "indexed": true,
          "internalType": "address",
          "name": "account",
          "type": "address"
        },
        {
          "indexed": true,
          "internalType": "address",
          "name": "sender",
          "type": "address"
        }
      ],
      "name": "RoleGranted",
      "type": "event"
    },
    {
      "anonymous": false,
      "inputs": [
        {
          "indexed": true,
          "internalType": "bytes32",
          "name": "role",
          "type": "bytes32"
        },
        {
          "indexed": true,
          "internalType": "address",
          "name": "account",
          "type": "address"
        },
        {
          "indexed": true,
          "internalType": "address",
          "name": "sender",
          "type": "address"
        }
      ],
      "name": "RoleRevoked",
      "type": "event"
    },
    {
      "anonymous": false,
      "inputs": [
        {
          "indexed": false,
          "internalType": "uint256",
          "name": "id",
          "type": "uint256"
        },
        {
          "indexed": false,
          "internalType": "address[]",
          "name": "signers",
          "type": "address[]"
        }
      ],
      "name": "SignersAdded",
      "type": "event"
    },
    {
      "anonymous": false,
      "inputs": [
        {
          "indexed": false,
          "internalType": "uint256",
          "name": "id",
          "type": "uint256"
        },
        {
          "indexed": false,
          "internalType": "address[]",
          "name": "signers",
          "type": "address[]"
        }
      ],
      "name": "SignersRemoved",
      "type": "event"
    },
    {
      "inputs": [],
      "name": "ADMIN_ROLE",
      "outputs": [
        {
          "internalType": "bytes32",
          "name": "",
          "type": "bytes32"
        }
      ],
      "stateMutability": "view",
      "type": "function"
    },
    {
      "inputs": [],
      "name": "DEFAULT_ADMIN_ROLE",
      "outputs": [
        {
          "internalType": "bytes32",
          "name": "",
          "type": "bytes32"
        }
      ],
      "stateMutability": "view",
      "type": "function"
    },
    {
      "inputs": [],
      "name": "REGISTER_ROLE",
      "outputs": [
        {
          "internalType": "bytes32",
          "name": "",
          "type": "bytes32"
        }
      ],
      "stateMutability": "view",
      "type": "function"
    },
    {
      "inputs": [
        {
          "internalType": "uint256",
          "name": "registrarId",
          "type": "uint256"
        },
        {
          "internalType": "address[]",
          "name": "signers",
          "type": "address[]"
        }
      ],
      "name": "addSigners",
      "outputs": [],
      "stateMutability": "nonpayable",
      "type": "function"
    },
    {
      "inputs": [
        {
          "internalType": "bytes32",
          "name": "role",
          "type": "bytes32"
        }
      ],
      "name": "getRoleAdmin",
      "outputs": [
        {
          "internalType": "bytes32",
          "name": "",
          "type": "bytes32"
        }
      ],
      "stateMutability": "view",
      "type": "function"
    },
    {
      "inputs": [
        {
          "internalType": "bytes32",
          "name": "role",
          "type": "bytes32"
        },
        {
          "internalType": "address",
          "name": "account",
          "type": "address"
        }
      ],
      "name": "grantRole",
      "outputs": [],
      "stateMutability": "nonpayable",
      "type": "function"
    },
    {
      "inputs": [
        {
          "internalType": "bytes32",
          "name": "role",
          "type": "bytes32"
        },
        {
          "internalType": "address",
          "name": "account",
          "type": "address"
        }
      ],
      "name": "hasRole",
      "outputs": [
        {
          "internalType": "bool",
          "name": "",
          "type": "bool"
        }
      ],
      "stateMutability": "view",
      "type": "function"
    },
    {
      "inputs": [
        {
          "internalType": "uint256",
          "name": "id",
          "type": "uint256"
        },
        {
          "internalType": "address",
          "name": "account",
          "type": "address"
        }
      ],
      "name": "isRegistrar",
      "outputs": [
        {
          "internalType": "bool",
          "name": "",
          "type": "bool"
        }
      ],
      "stateMutability": "view",
      "type": "function"
    },
    {
      "inputs": [
        {
          "internalType": "address payable",
          "name": "signer",
          "type": "address"
        }
      ],
      "name": "register",
      "outputs": [],
      "stateMutability": "payable",
      "type": "function"
    },
    {
      "inputs": [],
      "name": "registrarCount",
      "outputs": [
        {
          "internalType": "uint256",
          "name": "",
          "type": "uint256"
        }
      ],
      "stateMutability": "view",
      "type": "function"
    },
    {
      "inputs": [
        {
          "internalType": "uint256",
          "name": "",
          "type": "uint256"
        }
      ],
      "name": "registrars",
      "outputs": [
        {
          "internalType": "uint256",
          "name": "id",
          "type": "uint256"
        }
      ],
      "stateMutability": "view",
      "type": "function"
    },
    {
      "inputs": [
        {
          "internalType": "uint256",
          "name": "registrarId",
          "type": "uint256"
        }
      ],
      "name": "removeRegistrar",
      "outputs": [],
      "stateMutability": "nonpayable",
      "type": "function"
    },
    {
      "inputs": [
        {
          "internalType": "uint256",
          "name": "registrarId",
          "type": "uint256"
        },
        {
          "internalType": "address[]",
          "name": "signers",
          "type": "address[]"
        }
      ],
      "name": "removeSigners",
      "outputs": [],
      "stateMutability": "nonpayable",
      "type": "function"
    },
    {
      "inputs": [
        {
          "internalType": "bytes32",
          "name": "role",
          "type": "bytes32"
        },
        {
          "internalType": "address",
          "name": "callerConfirmation",
          "type": "address"
        }
      ],
      "name": "renounceRole",
      "outputs": [],
      "stateMutability": "nonpayable",
      "type": "function"
    },
    {
      "inputs": [
        {
          "internalType": "bytes32",
          "name": "role",
          "type": "bytes32"
        },
        {
          "internalType": "address",
          "name": "account",
          "type": "address"
        }
      ],
      "name": "revokeRole",
      "outputs": [],
      "stateMutability": "nonpayable",
      "type": "function"
    },
    {
      "inputs": [
        {
          "internalType": "bytes4",
          "name": "interfaceId",
          "type": "bytes4"
        }
      ],
      "name": "supportsInterface",
      "outputs": [
        {
          "internalType": "bool",
          "name": "",
          "type": "bool"
        }
      ],
      "stateMutability": "view",
      "type": "function"
    }
  ],
  "bytecode": "0x60806040523480156200001157600080fd5b50604051620011d7380380620011d78339810160408190526200003491620002e4565b6001600160a01b038216620000b65760405162461bcd60e51b815260206004820152603360248201527f52656769737472617252656769737472793a206d61696e41646d696e2063616e60448201527f6e6f74206265207a65726f20616464726573730000000000000000000000000060648201526084015b60405180910390fd5b620000c360008362000202565b50620000f07fa49807205ce4d355092ef5a8a18f56e8913cf4a201fbe287825b095693c217758362000202565b506200010c600080516020620011b78339815191528362000202565b5060005b8151811015620001f95760006001600160a01b03168282815181106200013a576200013a620003cd565b60200260200101516001600160a01b031603620001b25760405162461bcd60e51b815260206004820152602f60248201527f52656769737472617252656769737472793a207265676973746572657220636160448201526e6e6e6f74206265206164647265737360881b6064820152608401620000ad565b620001ef600080516020620011b7833981519152838381518110620001db57620001db620003cd565b60200260200101516200020260201b60201c565b5060010162000110565b505050620003e3565b6000828152602081815260408083206001600160a01b038516845290915281205460ff16620002a7576000838152602081815260408083206001600160a01b03861684529091529020805460ff191660011790556200025e3390565b6001600160a01b0316826001600160a01b0316847f2f8788117e7eff1d82e926ec794901d17c78024a50270940304540a733656f0d60405160405180910390a4506001620002ab565b5060005b92915050565b80516001600160a01b0381168114620002c957600080fd5b919050565b634e487b7160e01b600052604160045260246000fd5b60008060408385031215620002f857600080fd5b6200030383620002b1565b602084810151919350906001600160401b03808211156200032357600080fd5b818601915086601f8301126200033857600080fd5b8151818111156200034d576200034d620002ce565b8060051b604051601f19603f83011681018181108582111715620003755762000375620002ce565b6040529182528482019250838101850191898311156200039457600080fd5b938501935b82851015620003bd57620003ad85620002b1565b8452938501939285019262000399565b8096505050505050509250929050565b634e487b7160e01b600052603260045260246000fd5b610dc480620003f36000396000f3fe6080604052600436106100f35760003560e01c80636ed562e21161008a5780638c9d518f116100595780638c9d518f146102cb57806391d1485414610315578063a217fddf14610335578063d547741f1461034a57600080fd5b80636ed562e21461022357806374f533171461024357806375b238fc146102775780638683869a146102ab57600080fd5b80632f2ff15d116100c65780632f2ff15d146101ae57806336568abe146101d05780634420e486146101f05780635e09f8ee1461020357600080fd5b806301ffc9a7146100f857806312f838321461012d5780631c8f8a9314610168578063248a9ca31461017e575b600080fd5b34801561010457600080fd5b50610118610113366004610a6b565b61036a565b60405190151581526020015b60405180910390f35b34801561013957600080fd5b5061015a610148366004610a9c565b60026020526000908152604090205481565b604051908152602001610124565b34801561017457600080fd5b5061015a60015481565b34801561018a57600080fd5b5061015a610199366004610a9c565b60009081526020819052604090206001015490565b3480156101ba57600080fd5b506101ce6101c9366004610ada565b6103a1565b005b3480156101dc57600080fd5b506101ce6101eb366004610ada565b6103cc565b6101ce6101fe366004610b0a565b610404565b34801561020f57600080fd5b506101ce61021e366004610a9c565b610590565b34801561022f57600080fd5b506101ce61023e366004610b3d565b610629565b34801561024f57600080fd5b5061015a7fd1f21ec03a6eb050fba156f5316dad461735df521fb446dd42c5a4728e9c70fe81565b34801561028357600080fd5b5061015a7fa49807205ce4d355092ef5a8a18f56e8913cf4a201fbe287825b095693c2177581565b3480156102b757600080fd5b506101ce6102c6366004610b3d565b61078b565b3480156102d757600080fd5b506101186102e6366004610ada565b60008281526002602090815260408083206001600160a01b038516845260010190915290205460ff1692915050565b34801561032157600080fd5b50610118610330366004610ada565b6108d6565b34801561034157600080fd5b5061015a600081565b34801561035657600080fd5b506101ce610365366004610ada565b6108ff565b60006001600160e01b03198216637965db0b60e01b148061039b57506301ffc9a760e01b6001600160e01b03198316145b92915050565b6000828152602081905260409020600101546103bc81610924565b6103c68383610931565b50505050565b6001600160a01b03811633146103f55760405163334bd91960e11b815260040160405180910390fd5b6103ff82826109c3565b505050565b61042e7fd1f21ec03a6eb050fba156f5316dad461735df521fb446dd42c5a4728e9c70fe336108d6565b6104955760405162461bcd60e51b815260206004820152602d60248201527f52656769737472617252656769737472793a2063616c6c6572206973206e6f7460448201526c1030903932b3b4b9ba32b932b960991b60648201526084015b60405180910390fd5b6001600160a01b0381166104bb5760405162461bcd60e51b815260040161048c90610c0e565b6001600081546104ca90610c5e565b909155506001805460008181526002602090815260408083209384556001600160a01b03861683528385019091529020805460ff19169092179091553415610543576040516001600160a01b038316903480156108fc02916000818181858888f19350505050158015610541573d6000803e3d6000fd5b505b600154604080519182526001600160a01b03841660208301523482820152517f6edfd39c9b67407df83954fc12114fcb61527289665a8a845594d5609bbf5d959181900360600190a15050565b6105ba7fa49807205ce4d355092ef5a8a18f56e8913cf4a201fbe287825b095693c21775336108d6565b6106185760405162461bcd60e51b815260206004820152602960248201527f52656769737472617252656769737472793a2063616c6c6572206973206e6f746044820152681030b71030b236b4b760b91b606482015260840161048c565b600090815260026020526040812055565b6000828152600260205260408120548391036106575760405162461bcd60e51b815260040161048c90610c85565b600081815260026020908152604080832033845260010190915290205460ff166106935760405162461bcd60e51b815260040161048c90610cd3565b6000838152600260205260408120905b835181101561074b5760006001600160a01b03168482815181106106c9576106c9610d1f565b60200260200101516001600160a01b0316036106f75760405162461bcd60e51b815260040161048c90610c0e565b600182600101600086848151811061071157610711610d1f565b6020908102919091018101516001600160a01b03168252810191909152604001600020805460ff19169115159190911790556001016106a3565b507fe2d402c8ff08afd038f229e913adc60fbff04823b0dc2e6acb6dbd7d2659a273848460405161077d929190610d35565b60405180910390a150505050565b6000828152600260205260408120548391036107b95760405162461bcd60e51b815260040161048c90610c85565b600081815260026020908152604080832033845260010190915290205460ff166107f55760405162461bcd60e51b815260040161048c90610cd3565b6000838152600260205260408120905b83518110156108a45760006001600160a01b031684828151811061082b5761082b610d1f565b60200260200101516001600160a01b0316036108595760405162461bcd60e51b815260040161048c90610c0e565b81600101600085838151811061087157610871610d1f565b6020908102919091018101516001600160a01b03168252810191909152604001600020805460ff19169055600101610805565b507fda76d0d06982b9db2df3e6a38436f1b02dec8e1e412c7720267e5de00d962fc7848460405161077d929190610d35565b6000918252602082815260408084206001600160a01b0393909316845291905290205460ff1690565b60008281526020819052604090206001015461091a81610924565b6103c683836109c3565b61092e8133610a2e565b50565b600061093d83836108d6565b6109bb576000838152602081815260408083206001600160a01b03861684529091529020805460ff191660011790556109733390565b6001600160a01b0316826001600160a01b0316847f2f8788117e7eff1d82e926ec794901d17c78024a50270940304540a733656f0d60405160405180910390a450600161039b565b50600061039b565b60006109cf83836108d6565b156109bb576000838152602081815260408083206001600160a01b0386168085529252808320805460ff1916905551339286917ff6391f5c32d9c69d2a47ea670b442974b53935d1edc7fd64eb21e047a839171b9190a450600161039b565b610a3882826108d6565b610a675760405163e2517d3f60e01b81526001600160a01b03821660048201526024810183905260440161048c565b5050565b600060208284031215610a7d57600080fd5b81356001600160e01b031981168114610a9557600080fd5b9392505050565b600060208284031215610aae57600080fd5b5035919050565b6001600160a01b038116811461092e57600080fd5b8035610ad581610ab5565b919050565b60008060408385031215610aed57600080fd5b823591506020830135610aff81610ab5565b809150509250929050565b600060208284031215610b1c57600080fd5b8135610a9581610ab5565b634e487b7160e01b600052604160045260246000fd5b60008060408385031215610b5057600080fd5b8235915060208084013567ffffffffffffffff80821115610b7057600080fd5b818601915086601f830112610b8457600080fd5b813581811115610b9657610b96610b27565b8060051b604051601f19603f83011681018181108582111715610bbb57610bbb610b27565b604052918252848201925083810185019189831115610bd957600080fd5b938501935b82851015610bfe57610bef85610aca565b84529385019392850192610bde565b8096505050505050509250929050565b60208082526030908201527f52656769737472617252656769737472793a207369676e65722063616e6e6f7460408201526f206265207a65726f206164647265737360801b606082015260800190565b600060018201610c7e57634e487b7160e01b600052601160045260246000fd5b5060010190565b6020808252602e908201527f52656769737472617252656769737472793a207265676973747261722069642060408201526d191bd95cc81b9bdd08195e1a5cdd60921b606082015260800190565b6020808252602c908201527f52656769737472617252656769737472793a2063616c6c6572206973206e6f7460408201526b1030903932b3b4b9ba3930b960a11b606082015260800190565b634e487b7160e01b600052603260045260246000fd5b60006040820184835260206040602085015281855180845260608601915060208701935060005b81811015610d815784516001600160a01b031683529383019391830191600101610d5c565b509097965050505050505056fea2646970667358221220e30076c582828f617c06129e2b2a23672557d8ffc8bb9893b2e9830dde404fa164736f6c63430008180033d1f21ec03a6eb050fba156f5316dad461735df521fb446dd42c5a4728e9c70fe",
  "linkReferences": {},
  "deployedLinkReferences": {}
}