{
  "_format": "hh-sol-artifact-1",
  "contractName": "NonTransferableERC20Asset",
  "sourceName": "contracts/asset/NonTransferableERC20Asset.sol",
  "abi": [
    {
      "inputs": [
        {
          "internalType": "address",
          "name": "_assetFactory",
          "type": "address"
        },
        {
          "internalType": "address",
          "name": "_assetRegistry",
          "type": "address"
        }
      ],
      "stateMutability": "nonpayable",
      "type": "constructor"
    },
    {
      "inputs": [
        {
          "internalType": "address",
          "name": "spender",
          "type": "address"
        },
        {
          "internalType": "uint256",
          "name": "allowance",
          "type": "uint256"
        },
        {
          "internalType": "uint256",
          "name": "needed",
          "type": "uint256"
        }
      ],
      "name": "ERC20InsufficientAllowance",
      "type": "error"
    },
    {
      "inputs": [
        {
          "internalType": "address",
          "name": "sender",
          "type": "address"
        },
        {
          "internalType": "uint256",
          "name": "balance",
          "type": "uint256"
        },
        {
          "internalType": "uint256",
          "name": "needed",
          "type": "uint256"
        }
      ],
      "name": "ERC20InsufficientBalance",
      "type": "error"
    },
    {
      "inputs": [
        {
          "internalType": "address",
          "name": "approver",
          "type": "address"
        }
      ],
      "name": "ERC20InvalidApprover",
      "type": "error"
    },
    {
      "inputs": [
        {
          "internalType": "address",
          "name": "receiver",
          "type": "address"
        }
      ],
      "name": "ERC20InvalidReceiver",
      "type": "error"
    },
    {
      "inputs": [
        {
          "internalType": "address",
          "name": "sender",
          "type": "address"
        }
      ],
      "name": "ERC20InvalidSender",
      "type": "error"
    },
    {
      "inputs": [
        {
          "internalType": "address",
          "name": "spender",
          "type": "address"
        }
      ],
      "name": "ERC20InvalidSpender",
      "type": "error"
    },
    {
      "anonymous": false,
      "inputs": [
        {
          "indexed": true,
          "internalType": "address",
          "name": "owner",
          "type": "address"
        },
        {
          "indexed": true,
          "internalType": "address",
          "name": "spender",
          "type": "address"
        },
        {
          "indexed": false,
          "internalType": "uint256",
          "name": "value",
          "type": "uint256"
        }
      ],
      "name": "Approval",
      "type": "event"
    },
    {
      "anonymous": false,
      "inputs": [
        {
          "indexed": true,
          "internalType": "address",
          "name": "hook",
          "type": "address"
        }
      ],
      "name": "ERC20HookAdded",
      "type": "event"
    },
    {
      "anonymous": false,
      "inputs": [
        {
          "indexed": true,
          "internalType": "address",
          "name": "hook",
          "type": "address"
        }
      ],
      "name": "ERC20HookRemoved",
      "type": "event"
    },
    {
      "anonymous": false,
      "inputs": [
        {
          "indexed": true,
          "internalType": "address",
          "name": "to",
          "type": "address"
        },
        {
          "indexed": false,
          "internalType": "uint256",
          "name": "amt",
          "type": "uint256"
        }
      ],
      "name": "ERC20Minted",
      "type": "event"
    },
    {
      "anonymous": false,
      "inputs": [
        {
          "indexed": true,
          "internalType": "address",
          "name": "oldAsset",
          "type": "address"
        },
        {
          "indexed": false,
          "internalType": "address",
          "name": "newAsset",
          "type": "address"
        }
      ],
      "name": "ERC20Upgraded",
      "type": "event"
    },
    {
      "anonymous": false,
      "inputs": [
        {
          "indexed": true,
          "internalType": "address",
          "name": "from",
          "type": "address"
        },
        {
          "indexed": true,
          "internalType": "address",
          "name": "to",
          "type": "address"
        },
        {
          "indexed": false,
          "internalType": "uint256",
          "name": "value",
          "type": "uint256"
        }
      ],
      "name": "Transfer",
      "type": "event"
    },
    {
      "inputs": [
        {
          "internalType": "contract IAssetHook",
          "name": "_hook",
          "type": "address"
        }
      ],
      "name": "addHook",
      "outputs": [],
      "stateMutability": "nonpayable",
      "type": "function"
    },
    {
      "inputs": [
        {
          "internalType": "address",
          "name": "owner",
          "type": "address"
        },
        {
          "internalType": "address",
          "name": "spender",
          "type": "address"
        }
      ],
      "name": "allowance",
      "outputs": [
        {
          "internalType": "uint256",
          "name": "",
          "type": "uint256"
        }
      ],
      "stateMutability": "view",
      "type": "function"
    },
    {
      "inputs": [
        {
          "internalType": "address",
          "name": "",
          "type": "address"
        },
        {
          "internalType": "uint256",
          "name": "",
          "type": "uint256"
        }
      ],
      "name": "approve",
      "outputs": [
        {
          "internalType": "bool",
          "name": "",
          "type": "bool"
        }
      ],
      "stateMutability": "nonpayable",
      "type": "function"
    },
    {
      "inputs": [],
      "name": "assetFactory",
      "outputs": [
        {
          "internalType": "address",
          "name": "",
          "type": "address"
        }
      ],
      "stateMutability": "view",
      "type": "function"
    },
    {
      "inputs": [],
      "name": "assetRegistry",
      "outputs": [
        {
          "internalType": "address",
          "name": "",
          "type": "address"
        }
      ],
      "stateMutability": "view",
      "type": "function"
    },
    {
      "inputs": [
        {
          "internalType": "address",
          "name": "account",
          "type": "address"
        }
      ],
      "name": "balanceOf",
      "outputs": [
        {
          "internalType": "uint256",
          "name": "",
          "type": "uint256"
        }
      ],
      "stateMutability": "view",
      "type": "function"
    },
    {
      "inputs": [],
      "name": "decimals",
      "outputs": [
        {
          "internalType": "uint8",
          "name": "",
          "type": "uint8"
        }
      ],
      "stateMutability": "view",
      "type": "function"
    },
    {
      "inputs": [
        {
          "components": [
            {
              "internalType": "address",
              "name": "originChainAddress",
              "type": "address"
            },
            {
              "internalType": "address",
              "name": "issuer",
              "type": "address"
            },
            {
              "internalType": "uint8",
              "name": "decimals",
              "type": "uint8"
            },
            {
              "internalType": "uint256",
              "name": "originChainId",
              "type": "uint256"
            },
            {
              "internalType": "uint256",
              "name": "totalSupply",
              "type": "uint256"
            },
            {
              "internalType": "string",
              "name": "name",
              "type": "string"
            },
            {
              "internalType": "string",
              "name": "symbol",
              "type": "string"
            }
          ],
          "internalType": "struct ERC20InitData",
          "name": "data",
          "type": "tuple"
        }
      ],
      "name": "encodeInitData",
      "outputs": [
        {
          "internalType": "bytes",
          "name": "",
          "type": "bytes"
        }
      ],
      "stateMutability": "pure",
      "type": "function"
    },
    {
      "inputs": [],
      "name": "hook",
      "outputs": [
        {
          "internalType": "contract IAssetHook",
          "name": "",
          "type": "address"
        }
      ],
      "stateMutability": "view",
      "type": "function"
    },
    {
      "inputs": [
        {
          "internalType": "bytes",
          "name": "initData",
          "type": "bytes"
        }
      ],
      "name": "init",
      "outputs": [],
      "stateMutability": "nonpayable",
      "type": "function"
    },
    {
      "inputs": [],
      "name": "issuer",
      "outputs": [
        {
          "internalType": "address",
          "name": "",
          "type": "address"
        }
      ],
      "stateMutability": "view",
      "type": "function"
    },
    {
      "inputs": [
        {
          "internalType": "address",
          "name": "to",
          "type": "address"
        },
        {
          "internalType": "uint256",
          "name": "amt",
          "type": "uint256"
        }
      ],
      "name": "mint",
      "outputs": [],
      "stateMutability": "nonpayable",
      "type": "function"
    },
    {
      "inputs": [],
      "name": "name",
      "outputs": [
        {
          "internalType": "string",
          "name": "",
          "type": "string"
        }
      ],
      "stateMutability": "view",
      "type": "function"
    },
    {
      "inputs": [],
      "name": "originAddress",
      "outputs": [
        {
          "internalType": "address",
          "name": "",
          "type": "address"
        }
      ],
      "stateMutability": "view",
      "type": "function"
    },
    {
      "inputs": [],
      "name": "originChainId",
      "outputs": [
        {
          "internalType": "uint256",
          "name": "",
          "type": "uint256"
        }
      ],
      "stateMutability": "view",
      "type": "function"
    },
    {
      "inputs": [],
      "name": "removeHook",
      "outputs": [],
      "stateMutability": "nonpayable",
      "type": "function"
    },
    {
      "inputs": [
        {
          "internalType": "address",
          "name": "tgt",
          "type": "address"
        },
        {
          "internalType": "uint256",
          "name": "amt",
          "type": "uint256"
        }
      ],
      "name": "revoke",
      "outputs": [],
      "stateMutability": "nonpayable",
      "type": "function"
    },
    {
      "inputs": [],
      "name": "symbol",
      "outputs": [
        {
          "internalType": "string",
          "name": "",
          "type": "string"
        }
      ],
      "stateMutability": "view",
      "type": "function"
    },
    {
      "inputs": [],
      "name": "totalSupply",
      "outputs": [
        {
          "internalType": "uint256",
          "name": "",
          "type": "uint256"
        }
      ],
      "stateMutability": "view",
      "type": "function"
    },
    {
      "inputs": [
        {
          "internalType": "address",
          "name": "",
          "type": "address"
        },
        {
          "internalType": "uint256",
          "name": "",
          "type": "uint256"
        }
      ],
      "name": "transfer",
      "outputs": [
        {
          "internalType": "bool",
          "name": "",
          "type": "bool"
        }
      ],
      "stateMutability": "nonpayable",
      "type": "function"
    },
    {
      "inputs": [
        {
          "internalType": "address",
          "name": "",
          "type": "address"
        },
        {
          "internalType": "address",
          "name": "",
          "type": "address"
        },
        {
          "internalType": "uint256",
          "name": "",
          "type": "uint256"
        }
      ],
      "name": "transferFrom",
      "outputs": [
        {
          "internalType": "bool",
          "name": "",
          "type": "bool"
        }
      ],
      "stateMutability": "nonpayable",
      "type": "function"
    },
    {
      "inputs": [
        {
          "internalType": "address",
          "name": "newAsset",
          "type": "address"
        }
      ],
      "name": "upgrade",
      "outputs": [],
      "stateMutability": "nonpayable",
      "type": "function"
    },
    {
      "inputs": [],
      "name": "upgraded",
      "outputs": [
        {
          "internalType": "bool",
          "name": "",
          "type": "bool"
        }
      ],
      "stateMutability": "view",
      "type": "function"
    }
  ],
  "bytecode": "0x60c06040523480156200001157600080fd5b5060405162001ada38038062001ada833981016040819052620000349162000169565b6001600160a01b038216620000b65760405162461bcd60e51b815260206004820152603a60248201527f4e6f6e5472616e7366657261626c6545524332303a206173736574206661637460448201527f6f72792063616e6e6f74206265207a65726f206164647265737300000000000060648201526084015b60405180910390fd5b6001600160a01b038116620001345760405162461bcd60e51b815260206004820152603b60248201527f4e6f6e5472616e7366657261626c6545524332303a206173736574207265676960448201527f737472792063616e6e6f74206265207a65726f206164647265737300000000006064820152608401620000ad565b6001600160a01b039182166080521660a052620001a1565b80516001600160a01b03811681146200016457600080fd5b919050565b600080604083850312156200017d57600080fd5b62000188836200014c565b915062000198602084016200014c565b90509250929050565b60805160a051611905620001d5600039600081816102c10152610400015260008181610303015261083e01526119056000f3fe608060405234801561001057600080fd5b506004361061014d5760003560e01c80635e7a9005116100c3578063a9059cbb1161007c578063a9059cbb146102e3578063c28de2cd146102f1578063c3acb4d1146102fe578063dd62ed3e14610325578063e517fedd14610338578063eac449d91461035057600080fd5b80635e7a90051461025257806370a08231146102655780637b4e04e81461028e5780637f5a7c7b146102a157806395d89b41146102b4578063979d7e86146102bc57600080fd5b80631d143848116101155780631d143848146101c757806323b872dd146101f2578063313ce56714610205578063378f17ff1461022457806340c10f191461022c5780634ddf47d41461023f57600080fd5b806306fdde03146101525780630900f01014610170578063095ea7b3146101855780630ac7f561146101a857806318160ddd146101bf575b600080fd5b61015a610363565b60405161016791906111ce565b60405180910390f35b61018361017e366004611210565b6103f5565b005b61019861019336600461122d565b610568565b6040519015158152602001610167565b6101b160035481565b604051908152602001610167565b6004546101b1565b6001546101da906001600160a01b031681565b6040516001600160a01b039091168152602001610167565b610198610200366004611259565b6105cb565b600254600160a01b900460ff1660405160ff9091168152602001610167565b61018361062e565b61018361023a36600461122d565b6106cd565b61018361024d366004611370565b610833565b61015a6102603660046113fb565b610c30565b6101b1610273366004611210565b6001600160a01b031660009081526005602052604090205490565b61018361029c366004611210565b610c59565b6002546101da906001600160a01b031681565b61015a610d73565b6101da7f000000000000000000000000000000000000000000000000000000000000000081565b61019861020036600461122d565b6000546101989060ff1681565b6101da7f000000000000000000000000000000000000000000000000000000000000000081565b6101b16103333660046114d3565b610d82565b6000546101da9061010090046001600160a01b031681565b61018361035e36600461122d565b610daf565b6060600780546103729061150c565b80601f016020809104026020016040519081016040528092919081815260200182805461039e9061150c565b80156103eb5780601f106103c0576101008083540402835291602001916103eb565b820191906000526020600020905b8154815290600101906020018083116103ce57829003601f168201915b5050505050905090565b336001600160a01b037f000000000000000000000000000000000000000000000000000000000000000016146104865760405162461bcd60e51b815260206004820152602b60248201527f4e6f6e5472616e7366657261626c6545524332303a206f6e6c7920726567697360448201526a1d1c9e48185b1b1bddd95960aa1b60648201526084015b60405180910390fd5b306001600160a01b0382160361051a5760405162461bcd60e51b815260206004820152604d60248201527f4e6f6e5472616e7366657261626c65455243323041737365743a206e6577207560448201527f70677261646520636f6e747261637420616464726573732063616e6e6f74206d60648201526c185d18da081bdc9a59da5b985b609a1b608482015260a40161047d565b6000805460ff191660011790556040516001600160a01b038216815230907fe0cdc3a6eaf24c066560b5cb2e50c08f3d82cce0e3d838dc7032ba68790cd52b9060200160405180910390a250565b60405162461bcd60e51b815260206004820152602f60248201527f4e6f6e5472616e7366657261626c6545524332303a20617070726f76616c732060448201526e1b9bdd08185b1b1bddd959081e595d608a1b606482015260009060840161047d565b60405162461bcd60e51b815260206004820152602f60248201527f4e6f6e5472616e7366657261626c6545524332303a207472616e73666572732060448201526e1b9bdd08185b1b1bddd959081e595d608a1b606482015260009060840161047d565b6001546001600160a01b03166106565760405162461bcd60e51b815260040161047d90611546565b6001546001600160a01b031633146106805760405162461bcd60e51b815260040161047d9061158b565b6002546040516001600160a01b039091169081907f46933b6b7dc2daad943914b804de007bc35a3c29871400a45d01b08a99fd824c90600090a250600280546001600160a01b0319169055565b6001546001600160a01b03166106f55760405162461bcd60e51b815260040161047d90611546565b6001546001600160a01b0316331461071f5760405162461bcd60e51b815260040161047d9061158b565b6002546001600160a01b031615610825576002546040516386b8418760e01b81523060048201526001600160a01b0384811660248301526044820184905260009216906386b84187906064016020604051808303816000875af115801561078a573d6000803e3d6000fd5b505050506040513d601f19601f820116820180604052508101906107ae91906115d4565b9050806108235760405162461bcd60e51b815260206004820152603b60248201527f4e6f6e5472616e7366657261626c65455243323041737365743a206265666f7260448201527f654d696e7420686f6f6b2072656a656374656420726571756573740000000000606482015260840161047d565b505b61082f8282610f3c565b5050565b336001600160a01b037f000000000000000000000000000000000000000000000000000000000000000016146108be5760405162461bcd60e51b815260206004820152602a60248201527f4e6f6e5472616e7366657261626c6545524332303a206f6e6c7920666163746f6044820152691c9e48185b1b1bddd95960b21b606482015260840161047d565b6000818060200190518101906108d49190611651565b60208101519091506001600160a01b031661094d5760405162461bcd60e51b815260206004820152603360248201527f4e6f6e5472616e7366657261626c6545524332303a206973737565722063616e6044820152726e6f74206265207a65726f206164647265737360681b606482015260840161047d565b80516001600160a01b03166109bd5760405162461bcd60e51b815260206004820152603060248201527f41737365743a206f726967696e436861696e416464726573732063616e6e6f7460448201526f206265207a65726f206164647265737360801b606482015260840161047d565b6000816080015111610a375760405162461bcd60e51b815260206004820152603b60248201527f4e6f6e5472616e7366657261626c6545524332303a20746f74616c537570706c60448201527f79206d7573742062652067726561746572207468616e207a65726f0000000000606482015260840161047d565b60008160a001515111610a9f5760405162461bcd60e51b815260206004820152602a60248201527f4e6f6e5472616e7366657261626c6545524332303a206e616d652063616e6e6f6044820152697420626520656d70747960b01b606482015260840161047d565b60008160c001515111610b095760405162461bcd60e51b815260206004820152602c60248201527f4e6f6e5472616e7366657261626c6545524332303a2073796d626f6c2063616e60448201526b6e6f7420626520656d70747960a01b606482015260840161047d565b6000816060015111610b835760405162461bcd60e51b815260206004820152603d60248201527f4e6f6e5472616e7366657261626c6545524332303a206f726967696e4368616960448201527f6e4964206d7573742062652067726561746572207468616e207a65726f000000606482015260840161047d565b805160008054610100600160a81b0319166101006001600160a01b03938416021790556020820151600180546001600160a01b031916919092161790556060810151600355608081015160045560a0810151600790610be2908261176a565b5060c0810151600890610bf5908261176a565b506000816040015160ff1611610c0c576012610c12565b80604001515b600260146101000a81548160ff021916908360ff1602179055505050565b606081604051602001610c43919061182a565b6040516020818303038152906040529050919050565b6001546001600160a01b0316610c815760405162461bcd60e51b815260040161047d90611546565b6001546001600160a01b03163314610cab5760405162461bcd60e51b815260040161047d9061158b565b6002546001600160a01b0316610d295760405162461bcd60e51b815260206004820152603760248201527f4e6f6e5472616e7366657261626c6545524337323141737365743a20686f6f6b60448201527f2063616e6e6f74206265207a65726f2061646472657373000000000000000000606482015260840161047d565b600280546001600160a01b0319166001600160a01b0383169081179091556040517fe15f398c7f82415e4ba2801be5eabaf63f308d6bd720508f7f242fad319561ec90600090a250565b6060600880546103729061150c565b6001600160a01b038083166000908152600660209081526040808320938516835292905220545b92915050565b6001546001600160a01b0316610dd75760405162461bcd60e51b815260040161047d90611546565b6001546001600160a01b03163314610e015760405162461bcd60e51b815260040161047d9061158b565b6002546001600160a01b031615610f07576002546040516335661e9560e21b81523060048201526001600160a01b03848116602483015260448201849052600092169063d5987a54906064016020604051808303816000875af1158015610e6c573d6000803e3d6000fd5b505050506040513d601f19601f82011682018060405250810190610e9091906115d4565b905080610f055760405162461bcd60e51b815260206004820152603d60248201527f4e6f6e5472616e7366657261626c65455243323041737365743a206265666f7260448201527f655265766f6b6520686f6f6b2072656a65637465642072657175657374000000606482015260840161047d565b505b6001600160a01b038216600090815260056020526040902054610f3783828410610f315782611022565b83611022565b505050565b60005460ff1615610fa55760405162461bcd60e51b815260206004820152602d60248201527f4e6f6e5472616e7366657261626c6545524332303a206173736574206861732060448201526c1899595b881d5c19dc98591959609a1b606482015260840161047d565b6001600160a01b038216610fcf5760405163ec442f0560e01b81526000600482015260240161047d565b610fdb60008383611054565b816001600160a01b03167f1f98ee45d72cac8271cfd41cc599153bf1465afc3fc1f0b3e2a97b8f1c4253a98260405161101691815260200190565b60405180910390a25050565b6001600160a01b03821661104c57604051634b637e8f60e11b81526000600482015260240161047d565b61082f826000835b6001600160a01b03831661107f57806004600082825461107491906118ae565b909155506110f19050565b6001600160a01b038316600090815260056020526040902054818110156110d25760405163391434e360e21b81526001600160a01b0385166004820152602481018290526044810183905260640161047d565b6001600160a01b03841660009081526005602052604090209082900390555b6001600160a01b03821661110d5760048054829003905561112c565b6001600160a01b03821660009081526005602052604090208054820190555b816001600160a01b0316836001600160a01b03167fddf252ad1be2c89b69c2b068fc378daa952ba7f163c4a11628f55a4df523b3ef8360405161117191815260200190565b60405180910390a3505050565b60005b83811015611199578181015183820152602001611181565b50506000910152565b600081518084526111ba81602086016020860161117e565b601f01601f19169290920160200192915050565b6020815260006111e160208301846111a2565b9392505050565b6001600160a01b03811681146111fd57600080fd5b50565b803561120b816111e8565b919050565b60006020828403121561122257600080fd5b81356111e1816111e8565b6000806040838503121561124057600080fd5b823561124b816111e8565b946020939093013593505050565b60008060006060848603121561126e57600080fd5b8335611279816111e8565b92506020840135611289816111e8565b929592945050506040919091013590565b634e487b7160e01b600052604160045260246000fd5b60405160e0810167ffffffffffffffff811182821017156112d3576112d361129a565b60405290565b604051601f8201601f1916810167ffffffffffffffff811182821017156113025761130261129a565b604052919050565b600067ffffffffffffffff8211156113245761132461129a565b50601f01601f191660200190565b60006113456113408461130a565b6112d9565b905082815283838301111561135957600080fd5b828260208301376000602084830101529392505050565b60006020828403121561138257600080fd5b813567ffffffffffffffff81111561139957600080fd5b8201601f810184136113aa57600080fd5b6113b984823560208401611332565b949350505050565b60ff811681146111fd57600080fd5b803561120b816113c1565b600082601f8301126113ec57600080fd5b6111e183833560208501611332565b60006020828403121561140d57600080fd5b813567ffffffffffffffff8082111561142557600080fd5b9083019060e0828603121561143957600080fd5b6114416112b0565b61144a83611200565b815261145860208401611200565b6020820152611469604084016113d0565b6040820152606083013560608201526080830135608082015260a08301358281111561149457600080fd5b6114a0878286016113db565b60a08301525060c0830135828111156114b857600080fd5b6114c4878286016113db565b60c08301525095945050505050565b600080604083850312156114e657600080fd5b82356114f1816111e8565b91506020830135611501816111e8565b809150509250929050565b600181811c9082168061152057607f821691505b60208210810361154057634e487b7160e01b600052602260045260246000fd5b50919050565b60208082526025908201527f4e6f6e5472616e7366657261626c6545524332303a206e6f7420696e697469616040820152641b1a5e995960da1b606082015260800190565b60208082526029908201527f4e6f6e5472616e7366657261626c6545524332303a206f6e6c792069737375656040820152681c88185b1b1bddd95960ba1b606082015260800190565b6000602082840312156115e657600080fd5b815180151581146111e157600080fd5b805161120b816111e8565b805161120b816113c1565b600082601f83011261161d57600080fd5b815161162b6113408261130a565b81815284602083860101111561164057600080fd5b6113b982602083016020870161117e565b60006020828403121561166357600080fd5b815167ffffffffffffffff8082111561167b57600080fd5b9083019060e0828603121561168f57600080fd5b6116976112b0565b6116a0836115f6565b81526116ae602084016115f6565b60208201526116bf60408401611601565b6040820152606083015160608201526080830151608082015260a0830151828111156116ea57600080fd5b6116f68782860161160c565b60a08301525060c08301518281111561170e57600080fd5b6114c48782860161160c565b601f821115610f37576000816000526020600020601f850160051c810160208610156117435750805b601f850160051c820191505b818110156117625782815560010161174f565b505050505050565b815167ffffffffffffffff8111156117845761178461129a565b61179881611792845461150c565b8461171a565b602080601f8311600181146117cd57600084156117b55750858301515b600019600386901b1c1916600185901b178555611762565b600085815260208120601f198616915b828110156117fc578886015182559484019460019091019084016117dd565b508582101561181a5787850151600019600388901b60f8161c191681555b5050505050600190811b01905550565b60208152600060018060a01b038084511660208401528060208501511660408401525060ff604084015116606083015260608301516080830152608083015160a083015260a083015160e060c08401526118886101008401826111a2565b905060c0840151601f198483030160e08501526118a582826111a2565b95945050505050565b80820180821115610da957634e487b7160e01b600052601160045260246000fdfea264697066735822122034382f213a5a035deb06753a9bf40fccb078123dc44bd80855e70d9cf39f95c264736f6c63430008180033",
  "linkReferences": {},
  "deployedLinkReferences": {}
}