{
  "_format": "hh-sol-artifact-1",
  "contractName": "NonTransferableERC20Asset",
  "sourceName": "contracts/asset/NonTransferableERC20Asset.sol",
  "abi": [
    {
      "inputs": [
        {
          "components": [
            {
              "internalType": "address",
              "name": "assetFactory",
              "type": "address"
            },
            {
              "internalType": "address",
              "name": "assetRegistry",
              "type": "address"
            },
            {
              "internalType": "address",
              "name": "avatarRegistry",
              "type": "address"
            },
            {
              "internalType": "address",
              "name": "experienceRegistry",
              "type": "address"
            }
          ],
          "internalType": "struct BaseAssetArgs",
          "name": "args",
          "type": "tuple"
        }
      ],
      "stateMutability": "nonpayable",
      "type": "constructor"
    },
    {
      "inputs": [
        {
          "internalType": "address",
          "name": "spender",
          "type": "address"
        },
        {
          "internalType": "uint256",
          "name": "allowance",
          "type": "uint256"
        },
        {
          "internalType": "uint256",
          "name": "needed",
          "type": "uint256"
        }
      ],
      "name": "ERC20InsufficientAllowance",
      "type": "error"
    },
    {
      "inputs": [
        {
          "internalType": "address",
          "name": "sender",
          "type": "address"
        },
        {
          "internalType": "uint256",
          "name": "balance",
          "type": "uint256"
        },
        {
          "internalType": "uint256",
          "name": "needed",
          "type": "uint256"
        }
      ],
      "name": "ERC20InsufficientBalance",
      "type": "error"
    },
    {
      "inputs": [
        {
          "internalType": "address",
          "name": "approver",
          "type": "address"
        }
      ],
      "name": "ERC20InvalidApprover",
      "type": "error"
    },
    {
      "inputs": [
        {
          "internalType": "address",
          "name": "receiver",
          "type": "address"
        }
      ],
      "name": "ERC20InvalidReceiver",
      "type": "error"
    },
    {
      "inputs": [
        {
          "internalType": "address",
          "name": "sender",
          "type": "address"
        }
      ],
      "name": "ERC20InvalidSender",
      "type": "error"
    },
    {
      "inputs": [
        {
          "internalType": "address",
          "name": "spender",
          "type": "address"
        }
      ],
      "name": "ERC20InvalidSpender",
      "type": "error"
    },
    {
      "inputs": [],
      "name": "ReentrancyGuardReentrantCall",
      "type": "error"
    },
    {
      "anonymous": false,
      "inputs": [
        {
          "indexed": true,
          "internalType": "address",
          "name": "owner",
          "type": "address"
        },
        {
          "indexed": true,
          "internalType": "address",
          "name": "spender",
          "type": "address"
        },
        {
          "indexed": false,
          "internalType": "uint256",
          "name": "value",
          "type": "uint256"
        }
      ],
      "name": "Approval",
      "type": "event"
    },
    {
      "anonymous": false,
      "inputs": [
        {
          "indexed": false,
          "internalType": "address",
          "name": "hook",
          "type": "address"
        }
      ],
      "name": "AssetHookAdded",
      "type": "event"
    },
    {
      "anonymous": false,
      "inputs": [
        {
          "indexed": false,
          "internalType": "address",
          "name": "hook",
          "type": "address"
        }
      ],
      "name": "AssetHookRemoved",
      "type": "event"
    },
    {
      "anonymous": false,
      "inputs": [
        {
          "indexed": true,
          "internalType": "address",
          "name": "to",
          "type": "address"
        },
        {
          "indexed": false,
          "internalType": "uint256",
          "name": "amt",
          "type": "uint256"
        }
      ],
      "name": "ERC20Minted",
      "type": "event"
    },
    {
      "anonymous": false,
      "inputs": [
        {
          "indexed": true,
          "internalType": "address",
          "name": "oldAsset",
          "type": "address"
        },
        {
          "indexed": false,
          "internalType": "address",
          "name": "newAsset",
          "type": "address"
        }
      ],
      "name": "ERC20Upgraded",
      "type": "event"
    },
    {
      "anonymous": false,
      "inputs": [
        {
          "indexed": true,
          "internalType": "address",
          "name": "from",
          "type": "address"
        },
        {
          "indexed": true,
          "internalType": "address",
          "name": "to",
          "type": "address"
        },
        {
          "indexed": false,
          "internalType": "uint256",
          "name": "value",
          "type": "uint256"
        }
      ],
      "name": "Transfer",
      "type": "event"
    },
    {
      "inputs": [
        {
          "internalType": "contract IAssetHook",
          "name": "_hook",
          "type": "address"
        }
      ],
      "name": "addHook",
      "outputs": [],
      "stateMutability": "nonpayable",
      "type": "function"
    },
    {
      "inputs": [
        {
          "internalType": "address",
          "name": "owner",
          "type": "address"
        },
        {
          "internalType": "address",
          "name": "spender",
          "type": "address"
        }
      ],
      "name": "allowance",
      "outputs": [
        {
          "internalType": "uint256",
          "name": "",
          "type": "uint256"
        }
      ],
      "stateMutability": "view",
      "type": "function"
    },
    {
      "inputs": [
        {
          "internalType": "address",
          "name": "",
          "type": "address"
        },
        {
          "internalType": "uint256",
          "name": "",
          "type": "uint256"
        }
      ],
      "name": "approve",
      "outputs": [
        {
          "internalType": "bool",
          "name": "",
          "type": "bool"
        }
      ],
      "stateMutability": "nonpayable",
      "type": "function"
    },
    {
      "inputs": [],
      "name": "assetFactory",
      "outputs": [
        {
          "internalType": "address",
          "name": "",
          "type": "address"
        }
      ],
      "stateMutability": "view",
      "type": "function"
    },
    {
      "inputs": [],
      "name": "assetRegistry",
      "outputs": [
        {
          "internalType": "address",
          "name": "",
          "type": "address"
        }
      ],
      "stateMutability": "view",
      "type": "function"
    },
    {
      "inputs": [],
      "name": "assetType",
      "outputs": [
        {
          "internalType": "enum AssetType",
          "name": "",
          "type": "uint8"
        }
      ],
      "stateMutability": "view",
      "type": "function"
    },
    {
      "inputs": [],
      "name": "avatarRegistry",
      "outputs": [
        {
          "internalType": "contract IAvatarRegistry",
          "name": "",
          "type": "address"
        }
      ],
      "stateMutability": "view",
      "type": "function"
    },
    {
      "inputs": [
        {
          "internalType": "address",
          "name": "account",
          "type": "address"
        }
      ],
      "name": "balanceOf",
      "outputs": [
        {
          "internalType": "uint256",
          "name": "",
          "type": "uint256"
        }
      ],
      "stateMutability": "view",
      "type": "function"
    },
    {
      "inputs": [],
      "name": "decimals",
      "outputs": [
        {
          "internalType": "uint8",
          "name": "",
          "type": "uint8"
        }
      ],
      "stateMutability": "view",
      "type": "function"
    },
    {
      "inputs": [
        {
          "components": [
            {
              "internalType": "address",
              "name": "originChainAddress",
              "type": "address"
            },
            {
              "internalType": "address",
              "name": "issuer",
              "type": "address"
            },
            {
              "internalType": "uint8",
              "name": "decimals",
              "type": "uint8"
            },
            {
              "internalType": "uint256",
              "name": "originChainId",
              "type": "uint256"
            },
            {
              "internalType": "uint256",
              "name": "totalSupply",
              "type": "uint256"
            },
            {
              "internalType": "string",
              "name": "name",
              "type": "string"
            },
            {
              "internalType": "string",
              "name": "symbol",
              "type": "string"
            }
          ],
          "internalType": "struct ERC20InitData",
          "name": "data",
          "type": "tuple"
        }
      ],
      "name": "encodeInitData",
      "outputs": [
        {
          "internalType": "bytes",
          "name": "",
          "type": "bytes"
        }
      ],
      "stateMutability": "pure",
      "type": "function"
    },
    {
      "inputs": [],
      "name": "experienceRegistry",
      "outputs": [
        {
          "internalType": "contract IExperienceRegistry",
          "name": "",
          "type": "address"
        }
      ],
      "stateMutability": "view",
      "type": "function"
    },
    {
      "inputs": [],
      "name": "hook",
      "outputs": [
        {
          "internalType": "contract IAssetHook",
          "name": "",
          "type": "address"
        }
      ],
      "stateMutability": "view",
      "type": "function"
    },
    {
      "inputs": [
        {
          "internalType": "bytes",
          "name": "initData",
          "type": "bytes"
        }
      ],
      "name": "init",
      "outputs": [],
      "stateMutability": "nonpayable",
      "type": "function"
    },
    {
      "inputs": [],
      "name": "issuer",
      "outputs": [
        {
          "internalType": "address",
          "name": "",
          "type": "address"
        }
      ],
      "stateMutability": "view",
      "type": "function"
    },
    {
      "inputs": [
        {
          "internalType": "address",
          "name": "to",
          "type": "address"
        },
        {
          "internalType": "uint256",
          "name": "amt",
          "type": "uint256"
        }
      ],
      "name": "mint",
      "outputs": [],
      "stateMutability": "nonpayable",
      "type": "function"
    },
    {
      "inputs": [],
      "name": "name",
      "outputs": [
        {
          "internalType": "string",
          "name": "",
          "type": "string"
        }
      ],
      "stateMutability": "view",
      "type": "function"
    },
    {
      "inputs": [],
      "name": "originAddress",
      "outputs": [
        {
          "internalType": "address",
          "name": "",
          "type": "address"
        }
      ],
      "stateMutability": "view",
      "type": "function"
    },
    {
      "inputs": [],
      "name": "originChainId",
      "outputs": [
        {
          "internalType": "uint256",
          "name": "",
          "type": "uint256"
        }
      ],
      "stateMutability": "view",
      "type": "function"
    },
    {
      "inputs": [],
      "name": "removeHook",
      "outputs": [],
      "stateMutability": "nonpayable",
      "type": "function"
    },
    {
      "inputs": [
        {
          "internalType": "address",
          "name": "tgt",
          "type": "address"
        },
        {
          "internalType": "uint256",
          "name": "amt",
          "type": "uint256"
        }
      ],
      "name": "revoke",
      "outputs": [],
      "stateMutability": "nonpayable",
      "type": "function"
    },
    {
      "inputs": [],
      "name": "symbol",
      "outputs": [
        {
          "internalType": "string",
          "name": "",
          "type": "string"
        }
      ],
      "stateMutability": "view",
      "type": "function"
    },
    {
      "inputs": [],
      "name": "totalSupply",
      "outputs": [
        {
          "internalType": "uint256",
          "name": "",
          "type": "uint256"
        }
      ],
      "stateMutability": "view",
      "type": "function"
    },
    {
      "inputs": [
        {
          "internalType": "address",
          "name": "",
          "type": "address"
        },
        {
          "internalType": "uint256",
          "name": "",
          "type": "uint256"
        }
      ],
      "name": "transfer",
      "outputs": [
        {
          "internalType": "bool",
          "name": "",
          "type": "bool"
        }
      ],
      "stateMutability": "nonpayable",
      "type": "function"
    },
    {
      "inputs": [
        {
          "internalType": "address",
          "name": "",
          "type": "address"
        },
        {
          "internalType": "address",
          "name": "",
          "type": "address"
        },
        {
          "internalType": "uint256",
          "name": "",
          "type": "uint256"
        }
      ],
      "name": "transferFrom",
      "outputs": [
        {
          "internalType": "bool",
          "name": "",
          "type": "bool"
        }
      ],
      "stateMutability": "nonpayable",
      "type": "function"
    },
    {
      "inputs": [
        {
          "internalType": "address",
          "name": "newAsset",
          "type": "address"
        }
      ],
      "name": "upgrade",
      "outputs": [],
      "stateMutability": "nonpayable",
      "type": "function"
    },
    {
      "inputs": [],
      "name": "upgraded",
      "outputs": [
        {
          "internalType": "bool",
          "name": "",
          "type": "bool"
        }
      ],
      "stateMutability": "view",
      "type": "function"
    }
  ],
  "bytecode": "0x60e06040523480156200001157600080fd5b5060405162001f4338038062001f43833981016040819052620000349162000274565b6001600055805181906001600160a01b0316620000ac5760405162461bcd60e51b815260206004820152602b60248201527f4261736541737365743a206173736574466163746f727920697320746865207a60448201526a65726f206164647265737360a81b60648201526084015b60405180910390fd5b60208101516001600160a01b03166200011d5760405162461bcd60e51b815260206004820152602c60248201527f4261736541737365743a2061737365745265676973747279206973207468652060448201526b7a65726f206164647265737360a01b6064820152608401620000a3565b60408101516001600160a01b03166200018f5760405162461bcd60e51b815260206004820152602d60248201527f4261736541737365743a2061766174617252656769737472792069732074686560448201526c207a65726f206164647265737360981b6064820152608401620000a3565b60608101516001600160a01b0316620002115760405162461bcd60e51b815260206004820152603d60248201527f4e6f6e5472616e7366657261626c654552433732313a20657870657269656e6360448201527f65526567697374727920697320746865207a65726f20616464726573730000006064820152608401620000a3565b80516001600160a01b039081166080526020820151811660a0526040820151811660c052606090910151600180546001600160a01b031916919092161790555062000308565b80516001600160a01b03811681146200026f57600080fd5b919050565b6000608082840312156200028757600080fd5b604051608081016001600160401b0381118282101715620002b857634e487b7160e01b600052604160045260246000fd5b604052620002c68362000257565b8152620002d66020840162000257565b6020820152620002e96040840162000257565b6040820152620002fc6060840162000257565b60608201529392505050565b60805160a05160c051611bf66200034d600039600081816103af015261088a01526000818161032c015261049401526000818161037501526109930152611bf66000f3fe608060405234801561001057600080fd5b506004361061018e5760003560e01c806370a08231116100de578063a9059cbb11610097578063dd62ed3e11610071578063dd62ed3e14610397578063e3d7ad73146103aa578063e517fedd146103d1578063eac449d9146103e457600080fd5b8063a9059cbb1461034e578063c28de2cd1461035c578063c3acb4d11461037057600080fd5b806370a08231146102bd5780637b4e04e8146102e65780637f5a7c7b146102f95780638f09a6be1461030c57806395d89b411461031f578063979d7e861461032757600080fd5b806323b872dd1161014b5780633fe3347a116101255780633fe3347a1461026357806340c10f19146102845780634ddf47d4146102975780635e7a9005146102aa57600080fd5b806323b872dd14610233578063313ce56714610246578063378f17ff1461025b57600080fd5b806306fdde03146101935780630900f010146101b1578063095ea7b3146101c65780630ac7f561146101e957806318160ddd146102005780631d14384814610208575b600080fd5b61019b6103f7565b6040516101a891906114d0565b60405180910390f35b6101c46101bf366004611512565b610489565b005b6101d96101d436600461152f565b6105ee565b60405190151581526020016101a8565b6101f260055481565b6040519081526020016101a8565b6007546101f2565b60035461021b906001600160a01b031681565b6040516001600160a01b0390911681526020016101a8565b6101d961024136600461155b565b610651565b60065460405160ff90911681526020016101a8565b6101c46106b4565b60015461027790600160a81b900460ff1681565b6040516101a8919061159c565b6101c461029236600461152f565b610731565b6101c46102a536600461169a565b610988565b61019b6102b8366004611725565b610d75565b6101f26102cb366004611512565b6001600160a01b031660009081526008602052604090205490565b6101c46102f4366004611512565b610d9e565b60045461021b906001600160a01b031681565b60015461021b906001600160a01b031681565b61019b610e98565b61021b7f000000000000000000000000000000000000000000000000000000000000000081565b6101d961024136600461152f565b6001546101d990600160a01b900460ff1681565b61021b7f000000000000000000000000000000000000000000000000000000000000000081565b6101f26103a53660046117fd565b610ea7565b61021b7f000000000000000000000000000000000000000000000000000000000000000081565b60025461021b906001600160a01b031681565b6101c46103f236600461152f565b610ed4565b6060600a805461040690611836565b80601f016020809104026020016040519081016040528092919081815260200182805461043290611836565b801561047f5780601f106104545761010080835404028352916020019161047f565b820191906000526020600020905b81548152906001019060200180831161046257829003601f168201915b5050505050905090565b336001600160a01b037f000000000000000000000000000000000000000000000000000000000000000016146105065760405162461bcd60e51b815260206004820181905260248201527f4261736541737365743a206f6e6c7920726567697374727920616c6c6f77656460448201526064015b60405180910390fd5b306001600160a01b0382160361059a5760405162461bcd60e51b815260206004820152604d60248201527f4e6f6e5472616e7366657261626c65455243323041737365743a206e6577207560448201527f70677261646520636f6e747261637420616464726573732063616e6e6f74206d60648201526c185d18da081bdc9a59da5b985b609a1b608482015260a4016104fd565b6001805460ff60a01b1916600160a01b1790556040516001600160a01b038216815230907fe0cdc3a6eaf24c066560b5cb2e50c08f3d82cce0e3d838dc7032ba68790cd52b9060200160405180910390a250565b60405162461bcd60e51b815260206004820152602f60248201527f4e6f6e5472616e7366657261626c6545524332303a20617070726f76616c732060448201526e1b9bdd08185b1b1bddd959081e595d608a1b60648201526000906084016104fd565b60405162461bcd60e51b815260206004820152602f60248201527f4e6f6e5472616e7366657261626c6545524332303a207472616e73666572732060448201526e1b9bdd08185b1b1bddd959081e595d608a1b60648201526000906084016104fd565b6003546001600160a01b03166106dc5760405162461bcd60e51b81526004016104fd90611870565b6004546040516001600160a01b03909116808252907f94dff9f830507f1f2b72515aaaaa174f690a73801b6ab87ae6d75e584de177c89060200160405180910390a150600480546001600160a01b0319169055565b610739611049565b6003546001600160a01b03166107615760405162461bcd60e51b81526004016104fd90611870565b6004546001600160a01b03161561086b57600480546040516386b8418760e01b815230928101929092526001600160a01b038481166024840152604483018490526000929116906386b84187906064016020604051808303816000875af11580156107d0573d6000803e3d6000fd5b505050506040513d601f19601f820116820180604052508101906107f491906118a7565b9050806108695760405162461bcd60e51b815260206004820152603b60248201527f4e6f6e5472616e7366657261626c65455243323041737365743a206265666f7260448201527f654d696e7420686f6f6b2072656a65637465642072657175657374000000000060648201526084016104fd565b505b604051632b0fe8e760e21b81526001600160a01b0383811660048301527f0000000000000000000000000000000000000000000000000000000000000000169063ac3fa39c90602401602060405180830381865afa1580156108d1573d6000803e3d6000fd5b505050506040513d601f19601f820116820180604052508101906108f591906118a7565b15610970576000829050806001600160a01b031663181d939b6040518163ffffffff1660e01b8152600401602060405180830381865afa15801561093d573d6000803e3d6000fd5b505050506040513d601f19601f8201168201806040525081019061096191906118a7565b61096e5761096e83611073565b505b61097a8282611237565b6109846001600055565b5050565b336001600160a01b037f00000000000000000000000000000000000000000000000000000000000000001614610a005760405162461bcd60e51b815260206004820152601f60248201527f4261736541737365743a206f6e6c7920666163746f727920616c6c6f7765640060448201526064016104fd565b600081806020019051810190610a169190611924565b60208101519091506001600160a01b0316610a8f5760405162461bcd60e51b815260206004820152603360248201527f4e6f6e5472616e7366657261626c6545524332303a206973737565722063616e6044820152726e6f74206265207a65726f206164647265737360681b60648201526084016104fd565b80516001600160a01b0316610aff5760405162461bcd60e51b815260206004820152603060248201527f41737365743a206f726967696e436861696e416464726573732063616e6e6f7460448201526f206265207a65726f206164647265737360801b60648201526084016104fd565b6000816080015111610b795760405162461bcd60e51b815260206004820152603b60248201527f4e6f6e5472616e7366657261626c6545524332303a20746f74616c537570706c60448201527f79206d7573742062652067726561746572207468616e207a65726f000000000060648201526084016104fd565b60008160a001515111610be15760405162461bcd60e51b815260206004820152602a60248201527f4e6f6e5472616e7366657261626c6545524332303a206e616d652063616e6e6f6044820152697420626520656d70747960b01b60648201526084016104fd565b60008160c001515111610c4b5760405162461bcd60e51b815260206004820152602c60248201527f4e6f6e5472616e7366657261626c6545524332303a2073796d626f6c2063616e60448201526b6e6f7420626520656d70747960a01b60648201526084016104fd565b6000816060015111610cc55760405162461bcd60e51b815260206004820152603d60248201527f4e6f6e5472616e7366657261626c6545524332303a206f726967696e4368616960448201527f6e4964206d7573742062652067726561746572207468616e207a65726f00000060648201526084016104fd565b6001805460ff60a81b1916600160a81b1790558051600280546001600160a01b039283166001600160a01b0319918216179091556020830151600380549190931691161790556060810151600555608081015160075560a0810151600a90610d2d9082611a3e565b5060c0810151600b90610d409082611a3e565b506000816040015160ff1611610d57576012610d5d565b80604001515b6006805460ff191660ff929092169190911790555050565b606081604051602001610d889190611afe565b6040516020818303038152906040529050919050565b6003546001600160a01b0316610dc65760405162461bcd60e51b81526004016104fd90611870565b6004546001600160a01b0316610e445760405162461bcd60e51b815260206004820152603760248201527f4e6f6e5472616e7366657261626c6545524337323141737365743a20686f6f6b60448201527f2063616e6e6f74206265207a65726f206164647265737300000000000000000060648201526084016104fd565b600480546001600160a01b0319166001600160a01b0383169081179091556040519081527ff716b9f35a5af170228b0c97201cc581ce2ca1703824fd6b78f3583f28f7eedc9060200160405180910390a150565b6060600b805461040690611836565b6001600160a01b038083166000908152600960209081526040808320938516835292905220545b92915050565b610edc611049565b6003546001600160a01b0316610f045760405162461bcd60e51b81526004016104fd90611870565b6004546001600160a01b03161561100e57600480546040516335661e9560e21b815230928101929092526001600160a01b0384811660248401526044830184905260009291169063d5987a54906064016020604051808303816000875af1158015610f73573d6000803e3d6000fd5b505050506040513d601f19601f82011682018060405250810190610f9791906118a7565b90508061100c5760405162461bcd60e51b815260206004820152603d60248201527f4e6f6e5472616e7366657261626c65455243323041737365743a206265666f7260448201527f655265766f6b6520686f6f6b2072656a6563746564207265717565737400000060648201526084016104fd565b505b6001600160a01b03821660009081526008602052604090205461103e838284106110385782611324565b83611324565b506109846001600055565b60026000540361106c57604051633ee5aeb560e01b815260040160405180910390fd5b6002600055565b6000816001600160a01b031663516f279e6040518163ffffffff1660e01b8152600401602060405180830381865afa1580156110b3573d6000803e3d6000fd5b505050506040513d601f19601f820116820180604052508101906110d79190611b82565b90506001600160a01b0381166111395760405162461bcd60e51b815260206004820152602160248201527f4261736541737365743a2061766174617220686173206e6f206c6f636174696f6044820152603760f91b60648201526084016104fd565b60035460408051636904c94d60e01b815290516001600160a01b0392831692841691636904c94d9160048083019260209291908290030181865afa158015611185573d6000803e3d6000fd5b505050506040513d601f19601f820116820180604052508101906111a99190611b82565b6001600160a01b0316146109845760405162461bcd60e51b815260206004820152604960248201527f4261736541737365743a2061766174617220646f6573206e6f7420616c6c6f7760448201527f20617373657473206f757473696465206f66206974732063757272656e7420656064820152687870657269656e636560b81b608482015260a4016104fd565b600154600160a01b900460ff16156112a75760405162461bcd60e51b815260206004820152602d60248201527f4e6f6e5472616e7366657261626c6545524332303a206173736574206861732060448201526c1899595b881d5c19dc98591959609a1b60648201526084016104fd565b6001600160a01b0382166112d15760405163ec442f0560e01b8152600060048201526024016104fd565b6112dd60008383611356565b816001600160a01b03167f1f98ee45d72cac8271cfd41cc599153bf1465afc3fc1f0b3e2a97b8f1c4253a98260405161131891815260200190565b60405180910390a25050565b6001600160a01b03821661134e57604051634b637e8f60e11b8152600060048201526024016104fd565b610984826000835b6001600160a01b0383166113815780600760008282546113769190611b9f565b909155506113f39050565b6001600160a01b038316600090815260086020526040902054818110156113d45760405163391434e360e21b81526001600160a01b038516600482015260248101829052604481018390526064016104fd565b6001600160a01b03841660009081526008602052604090209082900390555b6001600160a01b03821661140f5760078054829003905561142e565b6001600160a01b03821660009081526008602052604090208054820190555b816001600160a01b0316836001600160a01b03167fddf252ad1be2c89b69c2b068fc378daa952ba7f163c4a11628f55a4df523b3ef8360405161147391815260200190565b60405180910390a3505050565b60005b8381101561149b578181015183820152602001611483565b50506000910152565b600081518084526114bc816020860160208601611480565b601f01601f19169290920160200192915050565b6020815260006114e360208301846114a4565b9392505050565b6001600160a01b03811681146114ff57600080fd5b50565b803561150d816114ea565b919050565b60006020828403121561152457600080fd5b81356114e3816114ea565b6000806040838503121561154257600080fd5b823561154d816114ea565b946020939093013593505050565b60008060006060848603121561157057600080fd5b833561157b816114ea565b9250602084013561158b816114ea565b929592945050506040919091013590565b60208101600383106115be57634e487b7160e01b600052602160045260246000fd5b91905290565b634e487b7160e01b600052604160045260246000fd5b60405160e0810167ffffffffffffffff811182821017156115fd576115fd6115c4565b60405290565b604051601f8201601f1916810167ffffffffffffffff8111828210171561162c5761162c6115c4565b604052919050565b600067ffffffffffffffff82111561164e5761164e6115c4565b50601f01601f191660200190565b600061166f61166a84611634565b611603565b905082815283838301111561168357600080fd5b828260208301376000602084830101529392505050565b6000602082840312156116ac57600080fd5b813567ffffffffffffffff8111156116c357600080fd5b8201601f810184136116d457600080fd5b6116e38482356020840161165c565b949350505050565b60ff811681146114ff57600080fd5b803561150d816116eb565b600082601f83011261171657600080fd5b6114e38383356020850161165c565b60006020828403121561173757600080fd5b813567ffffffffffffffff8082111561174f57600080fd5b9083019060e0828603121561176357600080fd5b61176b6115da565b61177483611502565b815261178260208401611502565b6020820152611793604084016116fa565b6040820152606083013560608201526080830135608082015260a0830135828111156117be57600080fd5b6117ca87828601611705565b60a08301525060c0830135828111156117e257600080fd5b6117ee87828601611705565b60c08301525095945050505050565b6000806040838503121561181057600080fd5b823561181b816114ea565b9150602083013561182b816114ea565b809150509250929050565b600181811c9082168061184a57607f821691505b60208210810361186a57634e487b7160e01b600052602260045260246000fd5b50919050565b6020808252601a908201527f4261736541737365743a206e6f7420696e697469616c697a6564000000000000604082015260600190565b6000602082840312156118b957600080fd5b815180151581146114e357600080fd5b805161150d816114ea565b805161150d816116eb565b600082601f8301126118f057600080fd5b81516118fe61166a82611634565b81815284602083860101111561191357600080fd5b6116e3826020830160208701611480565b60006020828403121561193657600080fd5b815167ffffffffffffffff8082111561194e57600080fd5b9083019060e0828603121561196257600080fd5b61196a6115da565b611973836118c9565b8152611981602084016118c9565b6020820152611992604084016118d4565b6040820152606083015160608201526080830151608082015260a0830151828111156119bd57600080fd5b6119c9878286016118df565b60a08301525060c0830151828111156119e157600080fd5b6117ee878286016118df565b601f821115611a39576000816000526020600020601f850160051c81016020861015611a165750805b601f850160051c820191505b81811015611a3557828155600101611a22565b5050505b505050565b815167ffffffffffffffff811115611a5857611a586115c4565b611a6c81611a668454611836565b846119ed565b602080601f831160018114611aa15760008415611a895750858301515b600019600386901b1c1916600185901b178555611a35565b600085815260208120601f198616915b82811015611ad057888601518255948401946001909101908401611ab1565b5085821015611aee5787850151600019600388901b60f8161c191681555b5050505050600190811b01905550565b60208152600060018060a01b038084511660208401528060208501511660408401525060ff604084015116606083015260608301516080830152608083015160a083015260a083015160e060c0840152611b5c6101008401826114a4565b905060c0840151601f198483030160e0850152611b7982826114a4565b95945050505050565b600060208284031215611b9457600080fd5b81516114e3816114ea565b80820180821115610ece57634e487b7160e01b600052601160045260246000fdfea2646970667358221220cc8bb09afbbb19f126c196541d3b939d10ea0d71fc0a364bf7df38c02102dc6564736f6c63430008180033",
  "linkReferences": {},
  "deployedLinkReferences": {}
}