{
  "_format": "hh-sol-artifact-1",
  "contractName": "NonTransferableERC20Asset",
  "sourceName": "contracts/asset/NonTransferableERC20Asset.sol",
  "abi": [
    {
      "inputs": [
        {
          "internalType": "address",
          "name": "_assetFactory",
          "type": "address"
        },
        {
          "internalType": "address",
          "name": "_assetRegistry",
          "type": "address"
        }
      ],
      "stateMutability": "nonpayable",
      "type": "constructor"
    },
    {
      "inputs": [
        {
          "internalType": "address",
          "name": "spender",
          "type": "address"
        },
        {
          "internalType": "uint256",
          "name": "allowance",
          "type": "uint256"
        },
        {
          "internalType": "uint256",
          "name": "needed",
          "type": "uint256"
        }
      ],
      "name": "ERC20InsufficientAllowance",
      "type": "error"
    },
    {
      "inputs": [
        {
          "internalType": "address",
          "name": "sender",
          "type": "address"
        },
        {
          "internalType": "uint256",
          "name": "balance",
          "type": "uint256"
        },
        {
          "internalType": "uint256",
          "name": "needed",
          "type": "uint256"
        }
      ],
      "name": "ERC20InsufficientBalance",
      "type": "error"
    },
    {
      "inputs": [
        {
          "internalType": "address",
          "name": "approver",
          "type": "address"
        }
      ],
      "name": "ERC20InvalidApprover",
      "type": "error"
    },
    {
      "inputs": [
        {
          "internalType": "address",
          "name": "receiver",
          "type": "address"
        }
      ],
      "name": "ERC20InvalidReceiver",
      "type": "error"
    },
    {
      "inputs": [
        {
          "internalType": "address",
          "name": "sender",
          "type": "address"
        }
      ],
      "name": "ERC20InvalidSender",
      "type": "error"
    },
    {
      "inputs": [
        {
          "internalType": "address",
          "name": "spender",
          "type": "address"
        }
      ],
      "name": "ERC20InvalidSpender",
      "type": "error"
    },
    {
      "anonymous": false,
      "inputs": [
        {
          "indexed": true,
          "internalType": "address",
          "name": "owner",
          "type": "address"
        },
        {
          "indexed": true,
          "internalType": "address",
          "name": "spender",
          "type": "address"
        },
        {
          "indexed": false,
          "internalType": "uint256",
          "name": "value",
          "type": "uint256"
        }
      ],
      "name": "Approval",
      "type": "event"
    },
    {
      "anonymous": false,
      "inputs": [
        {
          "indexed": true,
          "internalType": "address",
          "name": "to",
          "type": "address"
        },
        {
          "indexed": false,
          "internalType": "uint256",
          "name": "amt",
          "type": "uint256"
        }
      ],
      "name": "ERC20Minted",
      "type": "event"
    },
    {
      "anonymous": false,
      "inputs": [
        {
          "indexed": true,
          "internalType": "address",
          "name": "oldAsset",
          "type": "address"
        },
        {
          "indexed": false,
          "internalType": "address",
          "name": "newAsset",
          "type": "address"
        }
      ],
      "name": "ERC20Upgraded",
      "type": "event"
    },
    {
      "anonymous": false,
      "inputs": [
        {
          "indexed": true,
          "internalType": "address",
          "name": "from",
          "type": "address"
        },
        {
          "indexed": true,
          "internalType": "address",
          "name": "to",
          "type": "address"
        },
        {
          "indexed": false,
          "internalType": "uint256",
          "name": "value",
          "type": "uint256"
        }
      ],
      "name": "Transfer",
      "type": "event"
    },
    {
      "inputs": [
        {
          "internalType": "address",
          "name": "owner",
          "type": "address"
        },
        {
          "internalType": "address",
          "name": "spender",
          "type": "address"
        }
      ],
      "name": "allowance",
      "outputs": [
        {
          "internalType": "uint256",
          "name": "",
          "type": "uint256"
        }
      ],
      "stateMutability": "view",
      "type": "function"
    },
    {
      "inputs": [
        {
          "internalType": "address",
          "name": "",
          "type": "address"
        },
        {
          "internalType": "uint256",
          "name": "",
          "type": "uint256"
        }
      ],
      "name": "approve",
      "outputs": [
        {
          "internalType": "bool",
          "name": "",
          "type": "bool"
        }
      ],
      "stateMutability": "nonpayable",
      "type": "function"
    },
    {
      "inputs": [],
      "name": "assetFactory",
      "outputs": [
        {
          "internalType": "address",
          "name": "",
          "type": "address"
        }
      ],
      "stateMutability": "view",
      "type": "function"
    },
    {
      "inputs": [],
      "name": "assetRegistry",
      "outputs": [
        {
          "internalType": "address",
          "name": "",
          "type": "address"
        }
      ],
      "stateMutability": "view",
      "type": "function"
    },
    {
      "inputs": [
        {
          "internalType": "address",
          "name": "account",
          "type": "address"
        }
      ],
      "name": "balanceOf",
      "outputs": [
        {
          "internalType": "uint256",
          "name": "",
          "type": "uint256"
        }
      ],
      "stateMutability": "view",
      "type": "function"
    },
    {
      "inputs": [],
      "name": "decimals",
      "outputs": [
        {
          "internalType": "uint8",
          "name": "",
          "type": "uint8"
        }
      ],
      "stateMutability": "view",
      "type": "function"
    },
    {
      "inputs": [
        {
          "components": [
            {
              "internalType": "address",
              "name": "originChainAddress",
              "type": "address"
            },
            {
              "internalType": "address",
              "name": "issuer",
              "type": "address"
            },
            {
              "internalType": "uint8",
              "name": "decimals",
              "type": "uint8"
            },
            {
              "internalType": "uint256",
              "name": "originChainId",
              "type": "uint256"
            },
            {
              "internalType": "uint256",
              "name": "totalSupply",
              "type": "uint256"
            },
            {
              "internalType": "string",
              "name": "name",
              "type": "string"
            },
            {
              "internalType": "string",
              "name": "symbol",
              "type": "string"
            }
          ],
          "internalType": "struct ERC20InitData",
          "name": "data",
          "type": "tuple"
        }
      ],
      "name": "encodeInitData",
      "outputs": [
        {
          "internalType": "bytes",
          "name": "",
          "type": "bytes"
        }
      ],
      "stateMutability": "pure",
      "type": "function"
    },
    {
      "inputs": [
        {
          "internalType": "bytes",
          "name": "initData",
          "type": "bytes"
        }
      ],
      "name": "init",
      "outputs": [],
      "stateMutability": "nonpayable",
      "type": "function"
    },
    {
      "inputs": [],
      "name": "issuer",
      "outputs": [
        {
          "internalType": "address",
          "name": "",
          "type": "address"
        }
      ],
      "stateMutability": "view",
      "type": "function"
    },
    {
      "inputs": [
        {
          "internalType": "address",
          "name": "to",
          "type": "address"
        },
        {
          "internalType": "uint256",
          "name": "amt",
          "type": "uint256"
        }
      ],
      "name": "mint",
      "outputs": [],
      "stateMutability": "nonpayable",
      "type": "function"
    },
    {
      "inputs": [],
      "name": "name",
      "outputs": [
        {
          "internalType": "string",
          "name": "",
          "type": "string"
        }
      ],
      "stateMutability": "view",
      "type": "function"
    },
    {
      "inputs": [],
      "name": "originChainAddress",
      "outputs": [
        {
          "internalType": "address",
          "name": "",
          "type": "address"
        }
      ],
      "stateMutability": "view",
      "type": "function"
    },
    {
      "inputs": [],
      "name": "originChainId",
      "outputs": [
        {
          "internalType": "uint256",
          "name": "",
          "type": "uint256"
        }
      ],
      "stateMutability": "view",
      "type": "function"
    },
    {
      "inputs": [],
      "name": "symbol",
      "outputs": [
        {
          "internalType": "string",
          "name": "",
          "type": "string"
        }
      ],
      "stateMutability": "view",
      "type": "function"
    },
    {
      "inputs": [],
      "name": "totalSupply",
      "outputs": [
        {
          "internalType": "uint256",
          "name": "",
          "type": "uint256"
        }
      ],
      "stateMutability": "view",
      "type": "function"
    },
    {
      "inputs": [
        {
          "internalType": "address",
          "name": "",
          "type": "address"
        },
        {
          "internalType": "uint256",
          "name": "",
          "type": "uint256"
        }
      ],
      "name": "transfer",
      "outputs": [
        {
          "internalType": "bool",
          "name": "",
          "type": "bool"
        }
      ],
      "stateMutability": "nonpayable",
      "type": "function"
    },
    {
      "inputs": [
        {
          "internalType": "address",
          "name": "",
          "type": "address"
        },
        {
          "internalType": "address",
          "name": "",
          "type": "address"
        },
        {
          "internalType": "uint256",
          "name": "",
          "type": "uint256"
        }
      ],
      "name": "transferFrom",
      "outputs": [
        {
          "internalType": "bool",
          "name": "",
          "type": "bool"
        }
      ],
      "stateMutability": "nonpayable",
      "type": "function"
    },
    {
      "inputs": [
        {
          "internalType": "address",
          "name": "newAsset",
          "type": "address"
        }
      ],
      "name": "upgrade",
      "outputs": [],
      "stateMutability": "nonpayable",
      "type": "function"
    },
    {
      "inputs": [],
      "name": "upgraded",
      "outputs": [
        {
          "internalType": "bool",
          "name": "",
          "type": "bool"
        }
      ],
      "stateMutability": "view",
      "type": "function"
    }
  ],
  "bytecode": "0x60c06040523480156200001157600080fd5b506040516200152c3803806200152c833981016040819052620000349162000169565b6001600160a01b038216620000b65760405162461bcd60e51b815260206004820152603a60248201527f4e6f6e5472616e7366657261626c6545524332303a206173736574206661637460448201527f6f72792063616e6e6f74206265207a65726f206164647265737300000000000060648201526084015b60405180910390fd5b6001600160a01b038116620001345760405162461bcd60e51b815260206004820152603b60248201527f4e6f6e5472616e7366657261626c6545524332303a206173736574207265676960448201527f737472792063616e6e6f74206265207a65726f206164647265737300000000006064820152608401620000ad565b6001600160a01b039182166080521660a052620001a1565b80516001600160a01b03811681146200016457600080fd5b919050565b600080604083850312156200017d57600080fd5b62000188836200014c565b915062000198602084016200014c565b90509250929050565b60805160a051611357620001d56000396000818161027f01526103930152600081816102c1015261061801526113576000f3fe608060405234801561001057600080fd5b50600436106101215760003560e01c806340c10f19116100ad578063979d7e8611610071578063979d7e861461027a578063a9059cbb146102a1578063c28de2cd146102af578063c3acb4d1146102bc578063dd62ed3e146102e357600080fd5b806340c10f19146102105780634ddf47d4146102235780635e7a90051461023657806370a082311461024957806395d89b411461027257600080fd5b806318160ddd116100f457806318160ddd1461019357806318cbd1341461019b5780631d143848146101cb57806323b872dd146101de578063313ce567146101f157600080fd5b806306fdde03146101265780630900f01014610144578063095ea7b3146101595780630ac7f5611461017c575b600080fd5b61012e6102f6565b60405161013b9190610ccf565b60405180910390f35b610157610152366004610d11565b610388565b005b61016c610167366004610d2e565b610467565b604051901515815260200161013b565b61018560025481565b60405190815260200161013b565b600354610185565b6000546101b39061010090046001600160a01b031681565b6040516001600160a01b03909116815260200161013b565b6001546101b3906001600160a01b031681565b61016c6101ec366004610d5a565b6104ca565b600154600160a01b900460ff1660405160ff909116815260200161013b565b61015761021e366004610d2e565b61052d565b610157610231366004610e71565b61060d565b61012e610244366004610efc565b610a0a565b610185610257366004610d11565b6001600160a01b031660009081526004602052604090205490565b61012e610a33565b6101b37f000000000000000000000000000000000000000000000000000000000000000081565b61016c6101ec366004610d2e565b60005461016c9060ff1681565b6101b37f000000000000000000000000000000000000000000000000000000000000000081565b6101856102f1366004610fd4565b610a42565b6060600680546103059061100d565b80601f01602080910402602001604051908101604052809291908181526020018280546103319061100d565b801561037e5780601f106103535761010080835404028352916020019161037e565b820191906000526020600020905b81548152906001019060200180831161036157829003601f168201915b5050505050905090565b336001600160a01b037f000000000000000000000000000000000000000000000000000000000000000016146104195760405162461bcd60e51b815260206004820152602b60248201527f4e6f6e5472616e7366657261626c6545524332303a206f6e6c7920726567697360448201526a1d1c9e48185b1b1bddd95960aa1b60648201526084015b60405180910390fd5b6000805460ff191660011790556040516001600160a01b038216815230907fe0cdc3a6eaf24c066560b5cb2e50c08f3d82cce0e3d838dc7032ba68790cd52b9060200160405180910390a250565b60405162461bcd60e51b815260206004820152602f60248201527f4e6f6e5472616e7366657261626c6545524332303a20617070726f76616c732060448201526e1b9bdd08185b1b1bddd959081e595d608a1b6064820152600090608401610410565b60405162461bcd60e51b815260206004820152602f60248201527f4e6f6e5472616e7366657261626c6545524332303a207472616e73666572732060448201526e1b9bdd08185b1b1bddd959081e595d608a1b6064820152600090608401610410565b6001546001600160a01b03166105935760405162461bcd60e51b815260206004820152602560248201527f4e6f6e5472616e7366657261626c6545524332303a206e6f7420696e697469616044820152641b1a5e995960da1b6064820152608401610410565b6001546001600160a01b031633146105ff5760405162461bcd60e51b815260206004820152602960248201527f4e6f6e5472616e7366657261626c6545524332303a206f6e6c792069737375656044820152681c88185b1b1bddd95960ba1b6064820152608401610410565b6106098282610a6f565b5050565b336001600160a01b037f000000000000000000000000000000000000000000000000000000000000000016146106985760405162461bcd60e51b815260206004820152602a60248201527f4e6f6e5472616e7366657261626c6545524332303a206f6e6c7920666163746f6044820152691c9e48185b1b1bddd95960b21b6064820152608401610410565b6000818060200190518101906106ae91906110a2565b60208101519091506001600160a01b03166107275760405162461bcd60e51b815260206004820152603360248201527f4e6f6e5472616e7366657261626c6545524332303a206973737565722063616e6044820152726e6f74206265207a65726f206164647265737360681b6064820152608401610410565b80516001600160a01b03166107975760405162461bcd60e51b815260206004820152603060248201527f41737365743a206f726967696e436861696e416464726573732063616e6e6f7460448201526f206265207a65726f206164647265737360801b6064820152608401610410565b60008160800151116108115760405162461bcd60e51b815260206004820152603b60248201527f4e6f6e5472616e7366657261626c6545524332303a20746f74616c537570706c60448201527f79206d7573742062652067726561746572207468616e207a65726f00000000006064820152608401610410565b60008160a0015151116108795760405162461bcd60e51b815260206004820152602a60248201527f4e6f6e5472616e7366657261626c6545524332303a206e616d652063616e6e6f6044820152697420626520656d70747960b01b6064820152608401610410565b60008160c0015151116108e35760405162461bcd60e51b815260206004820152602c60248201527f4e6f6e5472616e7366657261626c6545524332303a2073796d626f6c2063616e60448201526b6e6f7420626520656d70747960a01b6064820152608401610410565b600081606001511161095d5760405162461bcd60e51b815260206004820152603d60248201527f4e6f6e5472616e7366657261626c6545524332303a206f726967696e4368616960448201527f6e4964206d7573742062652067726561746572207468616e207a65726f0000006064820152608401610410565b805160008054610100600160a81b0319166101006001600160a01b03938416021790556020820151600180546001600160a01b031916919092161790556060810151600255608081015160035560a08101516006906109bc90826111bc565b5060c08101516007906109cf90826111bc565b506000816040015160ff16116109e65760126109ec565b80604001515b600160146101000a81548160ff021916908360ff1602179055505050565b606081604051602001610a1d919061127c565b6040516020818303038152906040529050919050565b6060600780546103059061100d565b6001600160a01b038083166000908152600560209081526040808320938516835292905220545b92915050565b60005460ff1615610ad85760405162461bcd60e51b815260206004820152602d60248201527f4e6f6e5472616e7366657261626c6545524332303a206173736574206861732060448201526c1899595b881d5c19dc98591959609a1b6064820152608401610410565b6001600160a01b038216610b025760405163ec442f0560e01b815260006004820152602401610410565b610b0e60008383610b55565b816001600160a01b03167f1f98ee45d72cac8271cfd41cc599153bf1465afc3fc1f0b3e2a97b8f1c4253a982604051610b4991815260200190565b60405180910390a25050565b6001600160a01b038316610b80578060036000828254610b759190611300565b90915550610bf29050565b6001600160a01b03831660009081526004602052604090205481811015610bd35760405163391434e360e21b81526001600160a01b03851660048201526024810182905260448101839052606401610410565b6001600160a01b03841660009081526004602052604090209082900390555b6001600160a01b038216610c0e57600380548290039055610c2d565b6001600160a01b03821660009081526004602052604090208054820190555b816001600160a01b0316836001600160a01b03167fddf252ad1be2c89b69c2b068fc378daa952ba7f163c4a11628f55a4df523b3ef83604051610c7291815260200190565b60405180910390a3505050565b60005b83811015610c9a578181015183820152602001610c82565b50506000910152565b60008151808452610cbb816020860160208601610c7f565b601f01601f19169290920160200192915050565b602081526000610ce26020830184610ca3565b9392505050565b6001600160a01b0381168114610cfe57600080fd5b50565b8035610d0c81610ce9565b919050565b600060208284031215610d2357600080fd5b8135610ce281610ce9565b60008060408385031215610d4157600080fd5b8235610d4c81610ce9565b946020939093013593505050565b600080600060608486031215610d6f57600080fd5b8335610d7a81610ce9565b92506020840135610d8a81610ce9565b929592945050506040919091013590565b634e487b7160e01b600052604160045260246000fd5b60405160e0810167ffffffffffffffff81118282101715610dd457610dd4610d9b565b60405290565b604051601f8201601f1916810167ffffffffffffffff81118282101715610e0357610e03610d9b565b604052919050565b600067ffffffffffffffff821115610e2557610e25610d9b565b50601f01601f191660200190565b6000610e46610e4184610e0b565b610dda565b9050828152838383011115610e5a57600080fd5b828260208301376000602084830101529392505050565b600060208284031215610e8357600080fd5b813567ffffffffffffffff811115610e9a57600080fd5b8201601f81018413610eab57600080fd5b610eba84823560208401610e33565b949350505050565b60ff81168114610cfe57600080fd5b8035610d0c81610ec2565b600082601f830112610eed57600080fd5b610ce283833560208501610e33565b600060208284031215610f0e57600080fd5b813567ffffffffffffffff80821115610f2657600080fd5b9083019060e08286031215610f3a57600080fd5b610f42610db1565b610f4b83610d01565b8152610f5960208401610d01565b6020820152610f6a60408401610ed1565b6040820152606083013560608201526080830135608082015260a083013582811115610f9557600080fd5b610fa187828601610edc565b60a08301525060c083013582811115610fb957600080fd5b610fc587828601610edc565b60c08301525095945050505050565b60008060408385031215610fe757600080fd5b8235610ff281610ce9565b9150602083013561100281610ce9565b809150509250929050565b600181811c9082168061102157607f821691505b60208210810361104157634e487b7160e01b600052602260045260246000fd5b50919050565b8051610d0c81610ce9565b8051610d0c81610ec2565b600082601f83011261106e57600080fd5b815161107c610e4182610e0b565b81815284602083860101111561109157600080fd5b610eba826020830160208701610c7f565b6000602082840312156110b457600080fd5b815167ffffffffffffffff808211156110cc57600080fd5b9083019060e082860312156110e057600080fd5b6110e8610db1565b6110f183611047565b81526110ff60208401611047565b602082015261111060408401611052565b6040820152606083015160608201526080830151608082015260a08301518281111561113b57600080fd5b6111478782860161105d565b60a08301525060c08301518281111561115f57600080fd5b610fc58782860161105d565b601f8211156111b7576000816000526020600020601f850160051c810160208610156111945750805b601f850160051c820191505b818110156111b3578281556001016111a0565b5050505b505050565b815167ffffffffffffffff8111156111d6576111d6610d9b565b6111ea816111e4845461100d565b8461116b565b602080601f83116001811461121f57600084156112075750858301515b600019600386901b1c1916600185901b1785556111b3565b600085815260208120601f198616915b8281101561124e5788860151825594840194600190910190840161122f565b508582101561126c5787850151600019600388901b60f8161c191681555b5050505050600190811b01905550565b60208152600060018060a01b038084511660208401528060208501511660408401525060ff604084015116606083015260608301516080830152608083015160a083015260a083015160e060c08401526112da610100840182610ca3565b905060c0840151601f198483030160e08501526112f78282610ca3565b95945050505050565b80820180821115610a6957634e487b7160e01b600052601160045260246000fdfea26469706673582212209eb07348c88b5e1d9c71770314844c166b09065cdc6cd361fa089eb634e34c8664736f6c63430008180033",
  "linkReferences": {},
  "deployedLinkReferences": {}
}