{
  "_format": "hh-sol-artifact-1",
  "contractName": "NonTransferableERC20Asset",
  "sourceName": "contracts/asset/NonTransferableERC20Asset.sol",
  "abi": [
    {
      "inputs": [
        {
          "components": [
            {
              "internalType": "address",
              "name": "assetFactory",
              "type": "address"
            },
            {
              "internalType": "address",
              "name": "assetRegistry",
              "type": "address"
            },
            {
              "internalType": "address",
              "name": "avatarRegistry",
              "type": "address"
            },
            {
              "internalType": "address",
              "name": "experienceRegistry",
              "type": "address"
            }
          ],
          "internalType": "struct BaseAssetArgs",
          "name": "args",
          "type": "tuple"
        }
      ],
      "stateMutability": "nonpayable",
      "type": "constructor"
    },
    {
      "inputs": [
        {
          "internalType": "address",
          "name": "spender",
          "type": "address"
        },
        {
          "internalType": "uint256",
          "name": "allowance",
          "type": "uint256"
        },
        {
          "internalType": "uint256",
          "name": "needed",
          "type": "uint256"
        }
      ],
      "name": "ERC20InsufficientAllowance",
      "type": "error"
    },
    {
      "inputs": [
        {
          "internalType": "address",
          "name": "sender",
          "type": "address"
        },
        {
          "internalType": "uint256",
          "name": "balance",
          "type": "uint256"
        },
        {
          "internalType": "uint256",
          "name": "needed",
          "type": "uint256"
        }
      ],
      "name": "ERC20InsufficientBalance",
      "type": "error"
    },
    {
      "inputs": [
        {
          "internalType": "address",
          "name": "approver",
          "type": "address"
        }
      ],
      "name": "ERC20InvalidApprover",
      "type": "error"
    },
    {
      "inputs": [
        {
          "internalType": "address",
          "name": "receiver",
          "type": "address"
        }
      ],
      "name": "ERC20InvalidReceiver",
      "type": "error"
    },
    {
      "inputs": [
        {
          "internalType": "address",
          "name": "sender",
          "type": "address"
        }
      ],
      "name": "ERC20InvalidSender",
      "type": "error"
    },
    {
      "inputs": [
        {
          "internalType": "address",
          "name": "spender",
          "type": "address"
        }
      ],
      "name": "ERC20InvalidSpender",
      "type": "error"
    },
    {
      "inputs": [],
      "name": "ReentrancyGuardReentrantCall",
      "type": "error"
    },
    {
      "anonymous": false,
      "inputs": [
        {
          "indexed": true,
          "internalType": "address",
          "name": "owner",
          "type": "address"
        },
        {
          "indexed": true,
          "internalType": "address",
          "name": "spender",
          "type": "address"
        },
        {
          "indexed": false,
          "internalType": "uint256",
          "name": "value",
          "type": "uint256"
        }
      ],
      "name": "Approval",
      "type": "event"
    },
    {
      "anonymous": false,
      "inputs": [
        {
          "indexed": false,
          "internalType": "address",
          "name": "hook",
          "type": "address"
        }
      ],
      "name": "AssetHookAdded",
      "type": "event"
    },
    {
      "anonymous": false,
      "inputs": [
        {
          "indexed": false,
          "internalType": "address",
          "name": "hook",
          "type": "address"
        }
      ],
      "name": "AssetHookRemoved",
      "type": "event"
    },
    {
      "anonymous": false,
      "inputs": [
        {
          "indexed": true,
          "internalType": "address",
          "name": "to",
          "type": "address"
        },
        {
          "indexed": false,
          "internalType": "uint256",
          "name": "amt",
          "type": "uint256"
        }
      ],
      "name": "ERC20Minted",
      "type": "event"
    },
    {
      "anonymous": false,
      "inputs": [
        {
          "indexed": true,
          "internalType": "address",
          "name": "oldAsset",
          "type": "address"
        },
        {
          "indexed": false,
          "internalType": "address",
          "name": "newAsset",
          "type": "address"
        }
      ],
      "name": "ERC20Upgraded",
      "type": "event"
    },
    {
      "anonymous": false,
      "inputs": [
        {
          "indexed": true,
          "internalType": "address",
          "name": "from",
          "type": "address"
        },
        {
          "indexed": true,
          "internalType": "address",
          "name": "to",
          "type": "address"
        },
        {
          "indexed": false,
          "internalType": "uint256",
          "name": "value",
          "type": "uint256"
        }
      ],
      "name": "Transfer",
      "type": "event"
    },
    {
      "inputs": [
        {
          "internalType": "contract IAssetHook",
          "name": "_hook",
          "type": "address"
        }
      ],
      "name": "addHook",
      "outputs": [],
      "stateMutability": "nonpayable",
      "type": "function"
    },
    {
      "inputs": [
        {
          "internalType": "address",
          "name": "owner",
          "type": "address"
        },
        {
          "internalType": "address",
          "name": "spender",
          "type": "address"
        }
      ],
      "name": "allowance",
      "outputs": [
        {
          "internalType": "uint256",
          "name": "",
          "type": "uint256"
        }
      ],
      "stateMutability": "view",
      "type": "function"
    },
    {
      "inputs": [
        {
          "internalType": "address",
          "name": "",
          "type": "address"
        },
        {
          "internalType": "uint256",
          "name": "",
          "type": "uint256"
        }
      ],
      "name": "approve",
      "outputs": [
        {
          "internalType": "bool",
          "name": "",
          "type": "bool"
        }
      ],
      "stateMutability": "nonpayable",
      "type": "function"
    },
    {
      "inputs": [],
      "name": "assetFactory",
      "outputs": [
        {
          "internalType": "address",
          "name": "",
          "type": "address"
        }
      ],
      "stateMutability": "view",
      "type": "function"
    },
    {
      "inputs": [],
      "name": "assetRegistry",
      "outputs": [
        {
          "internalType": "address",
          "name": "",
          "type": "address"
        }
      ],
      "stateMutability": "view",
      "type": "function"
    },
    {
      "inputs": [],
      "name": "assetType",
      "outputs": [
        {
          "internalType": "uint256",
          "name": "",
          "type": "uint256"
        }
      ],
      "stateMutability": "view",
      "type": "function"
    },
    {
      "inputs": [],
      "name": "avatarRegistry",
      "outputs": [
        {
          "internalType": "contract IAvatarRegistry",
          "name": "",
          "type": "address"
        }
      ],
      "stateMutability": "view",
      "type": "function"
    },
    {
      "inputs": [
        {
          "internalType": "address",
          "name": "account",
          "type": "address"
        }
      ],
      "name": "balanceOf",
      "outputs": [
        {
          "internalType": "uint256",
          "name": "",
          "type": "uint256"
        }
      ],
      "stateMutability": "view",
      "type": "function"
    },
    {
      "inputs": [],
      "name": "decimals",
      "outputs": [
        {
          "internalType": "uint8",
          "name": "",
          "type": "uint8"
        }
      ],
      "stateMutability": "view",
      "type": "function"
    },
    {
      "inputs": [
        {
          "components": [
            {
              "internalType": "address",
              "name": "originChainAddress",
              "type": "address"
            },
            {
              "internalType": "address",
              "name": "issuer",
              "type": "address"
            },
            {
              "internalType": "uint8",
              "name": "decimals",
              "type": "uint8"
            },
            {
              "internalType": "uint256",
              "name": "originChainId",
              "type": "uint256"
            },
            {
              "internalType": "uint256",
              "name": "totalSupply",
              "type": "uint256"
            },
            {
              "internalType": "string",
              "name": "name",
              "type": "string"
            },
            {
              "internalType": "string",
              "name": "symbol",
              "type": "string"
            }
          ],
          "internalType": "struct ERC20InitData",
          "name": "data",
          "type": "tuple"
        }
      ],
      "name": "encodeInitData",
      "outputs": [
        {
          "internalType": "bytes",
          "name": "",
          "type": "bytes"
        }
      ],
      "stateMutability": "pure",
      "type": "function"
    },
    {
      "inputs": [],
      "name": "experienceRegistry",
      "outputs": [
        {
          "internalType": "contract IExperienceRegistry",
          "name": "",
          "type": "address"
        }
      ],
      "stateMutability": "view",
      "type": "function"
    },
    {
      "inputs": [
        {
          "internalType": "bytes",
          "name": "initData",
          "type": "bytes"
        }
      ],
      "name": "init",
      "outputs": [],
      "stateMutability": "nonpayable",
      "type": "function"
    },
    {
      "inputs": [],
      "name": "issuer",
      "outputs": [
        {
          "internalType": "address",
          "name": "",
          "type": "address"
        }
      ],
      "stateMutability": "view",
      "type": "function"
    },
    {
      "inputs": [
        {
          "internalType": "address",
          "name": "to",
          "type": "address"
        },
        {
          "internalType": "uint256",
          "name": "amt",
          "type": "uint256"
        }
      ],
      "name": "mint",
      "outputs": [],
      "stateMutability": "nonpayable",
      "type": "function"
    },
    {
      "inputs": [],
      "name": "name",
      "outputs": [
        {
          "internalType": "string",
          "name": "",
          "type": "string"
        }
      ],
      "stateMutability": "view",
      "type": "function"
    },
    {
      "inputs": [],
      "name": "originAddress",
      "outputs": [
        {
          "internalType": "address",
          "name": "",
          "type": "address"
        }
      ],
      "stateMutability": "view",
      "type": "function"
    },
    {
      "inputs": [],
      "name": "originChainId",
      "outputs": [
        {
          "internalType": "uint256",
          "name": "",
          "type": "uint256"
        }
      ],
      "stateMutability": "view",
      "type": "function"
    },
    {
      "inputs": [],
      "name": "removeHook",
      "outputs": [],
      "stateMutability": "nonpayable",
      "type": "function"
    },
    {
      "inputs": [
        {
          "internalType": "address",
          "name": "tgt",
          "type": "address"
        },
        {
          "internalType": "uint256",
          "name": "amt",
          "type": "uint256"
        }
      ],
      "name": "revoke",
      "outputs": [],
      "stateMutability": "nonpayable",
      "type": "function"
    },
    {
      "inputs": [],
      "name": "symbol",
      "outputs": [
        {
          "internalType": "string",
          "name": "",
          "type": "string"
        }
      ],
      "stateMutability": "view",
      "type": "function"
    },
    {
      "inputs": [],
      "name": "totalSupply",
      "outputs": [
        {
          "internalType": "uint256",
          "name": "",
          "type": "uint256"
        }
      ],
      "stateMutability": "view",
      "type": "function"
    },
    {
      "inputs": [
        {
          "internalType": "address",
          "name": "",
          "type": "address"
        },
        {
          "internalType": "uint256",
          "name": "",
          "type": "uint256"
        }
      ],
      "name": "transfer",
      "outputs": [
        {
          "internalType": "bool",
          "name": "",
          "type": "bool"
        }
      ],
      "stateMutability": "nonpayable",
      "type": "function"
    },
    {
      "inputs": [
        {
          "internalType": "address",
          "name": "",
          "type": "address"
        },
        {
          "internalType": "address",
          "name": "",
          "type": "address"
        },
        {
          "internalType": "uint256",
          "name": "",
          "type": "uint256"
        }
      ],
      "name": "transferFrom",
      "outputs": [
        {
          "internalType": "bool",
          "name": "",
          "type": "bool"
        }
      ],
      "stateMutability": "nonpayable",
      "type": "function"
    },
    {
      "inputs": [
        {
          "internalType": "address",
          "name": "newAsset",
          "type": "address"
        }
      ],
      "name": "upgrade",
      "outputs": [],
      "stateMutability": "nonpayable",
      "type": "function"
    },
    {
      "inputs": [],
      "name": "version",
      "outputs": [
        {
          "internalType": "uint256",
          "name": "",
          "type": "uint256"
        }
      ],
      "stateMutability": "view",
      "type": "function"
    }
  ],
  "bytecode": "0x610100604052600180553480156200001657600080fd5b50604051620021ed380380620021ed833981016040819052620000399162000268565b6001600055805181906001600160a01b0316620000b15760405162461bcd60e51b815260206004820152602b60248201527f4261736541737365743a206173736574466163746f727920697320746865207a60448201526a65726f206164647265737360a81b60648201526084015b60405180910390fd5b60208101516001600160a01b0316620001225760405162461bcd60e51b815260206004820152602c60248201527f4261736541737365743a2061737365745265676973747279206973207468652060448201526b7a65726f206164647265737360a01b6064820152608401620000a8565b60408101516001600160a01b0316620001945760405162461bcd60e51b815260206004820152602d60248201527f4261736541737365743a2061766174617252656769737472792069732074686560448201526c207a65726f206164647265737360981b6064820152608401620000a8565b60608101516001600160a01b0316620002165760405162461bcd60e51b815260206004820152603d60248201527f4e6f6e5472616e7366657261626c654552433732313a20657870657269656e6360448201527f65526567697374727920697320746865207a65726f20616464726573730000006064820152608401620000a8565b80516001600160a01b039081166080526020820151811660a0526040820151811660c0526060909101511660e05250620002fc565b80516001600160a01b03811681146200026357600080fd5b919050565b6000608082840312156200027b57600080fd5b604051608081016001600160401b0381118282101715620002ac57634e487b7160e01b600052604160045260246000fd5b604052620002ba836200024b565b8152620002ca602084016200024b565b6020820152620002dd604084016200024b565b6040820152620002f0606084016200024b565b60608201529392505050565b60805160a05160c05160e051611ea26200034b60003960006103120152600081816103b0015261098c01526000818161034101526104b70152600081816103760152610a960152611ea26000f3fe608060405234801561001057600080fd5b50600436106101735760003560e01c806354fd4d50116100de578063979d7e8611610097578063dd62ed3e11610071578063dd62ed3e14610398578063e3d7ad73146103ab578063e517fedd146103d2578063eac449d9146103f757600080fd5b8063979d7e861461033c578063a9059cbb14610363578063c3acb4d11461037157600080fd5b806354fd4d50146102cb5780635e7a9005146102d457806370a08231146102e75780637b4e04e8146102fa5780638f09a6be1461030d57806395d89b411461033457600080fd5b806323b872dd1161013057806323b872dd14610258578063313ce5671461026b578063378f17ff146102955780633fe3347a1461029d57806340c10f19146102a55780634ddf47d4146102b857600080fd5b806306fdde03146101785780630900f01014610196578063095ea7b3146101ab5780630ac7f561146101ce57806318160ddd146101ff5780631d14384814610214575b600080fd5b61018061040a565b60405161018d919061172f565b60405180910390f35b6101a96101a4366004611771565b6104ac565b005b6101be6101b936600461178e565b610662565b604051901515815260200161018d565b7f176cbabf2c0dbfb763886e1a47867828030f47836ae8a29efa61d706d1eb860a545b60405190815260200161018d565b600080516020611e0d833981519152546101f1565b7f176cbabf2c0dbfb763886e1a47867828030f47836ae8a29efa61d706d1eb8608546001600160a01b03165b6040516001600160a01b03909116815260200161018d565b6101be6102663660046117ba565b6106c5565b600080516020611e2d83398151915254610100900460ff1660405160ff909116815260200161018d565b6101a9610728565b6101f16107d5565b6101a96102b336600461178e565b610806565b6101a96102c63660046118d1565b610a8b565b6101f160015481565b6101806102e236600461195c565b610f02565b6101f16102f5366004611771565b610f2b565b6101a9610308366004611771565b610f65565b6102407f000000000000000000000000000000000000000000000000000000000000000081565b610180611091565b6102407f000000000000000000000000000000000000000000000000000000000000000081565b6101be61026636600461178e565b6102407f000000000000000000000000000000000000000000000000000000000000000081565b6101f16103a6366004611a34565b6110b0565b6102407f000000000000000000000000000000000000000000000000000000000000000081565b600080516020611e2d83398151915254630100000090046001600160a01b0316610240565b6101a961040536600461178e565b6110fc565b6060600080516020611e2d833981519152600401805461042990611a6d565b80601f016020809104026020016040519081016040528092919081815260200182805461045590611a6d565b80156104a25780601f10610477576101008083540402835291602001916104a2565b820191906000526020600020905b81548152906001019060200180831161048557829003601f168201915b5050505050905090565b336001600160a01b037f000000000000000000000000000000000000000000000000000000000000000016146105295760405162461bcd60e51b815260206004820181905260248201527f4261736541737365743a206f6e6c7920726567697374727920616c6c6f77656460448201526064015b60405180910390fd5b306001600160a01b038216036105bd5760405162461bcd60e51b815260206004820152604d60248201527f4e6f6e5472616e7366657261626c65455243323041737365743a206e6577207560448201527f70677261646520636f6e747261637420616464726573732063616e6e6f74206d60648201526c185d18da081bdc9a59da5b985b609a1b608482015260a401610520565b600080516020611e2d833981519152805460ff19166001179055600080516020611e0d83398151915260007f1f07e7b49187e1cf67924ca1fa35732211c5bb2c23b6b53ee47453438de7285e80546001600160a01b0319166001600160a01b038516908117825560405190815290915030907fe0cdc3a6eaf24c066560b5cb2e50c08f3d82cce0e3d838dc7032ba68790cd52b906020015b60405180910390a2505050565b60405162461bcd60e51b815260206004820152602f60248201527f4e6f6e5472616e7366657261626c6545524332303a20617070726f76616c732060448201526e1b9bdd08185b1b1bddd959081e595d608a1b6064820152600090608401610520565b60405162461bcd60e51b815260206004820152602f60248201527f4e6f6e5472616e7366657261626c6545524332303a207472616e73666572732060448201526e1b9bdd08185b1b1bddd959081e595d608a1b6064820152600090608401610520565b600080516020611e2d833981519152600101546001600160a01b031633146107625760405162461bcd60e51b815260040161052090611aa7565b600080516020611e4d83398151915254604080516001600160a01b039092168083529051600080516020611e2d833981519152927f94dff9f830507f1f2b72515aaaaa174f690a73801b6ab87ae6d75e584de177c8919081900360200190a15060020180546001600160a01b0319169055565b6000600080516020611e2d8339815191525462010000900460ff16600281111561080157610801611ade565b905090565b61080e611281565b600080516020611e2d833981519152600101546001600160a01b031633146108485760405162461bcd60e51b815260040161052090611aa7565b600080516020611e4d83398151915254600080516020611e2d833981519152906001600160a01b03161561096d5760028101546040516386b8418760e01b81523060048201526001600160a01b0385811660248301526044820185905260009216906386b84187906064016020604051808303816000875af11580156108d2573d6000803e3d6000fd5b505050506040513d601f19601f820116820180604052508101906108f69190611af4565b90508061096b5760405162461bcd60e51b815260206004820152603b60248201527f4e6f6e5472616e7366657261626c65455243323041737365743a206265666f7260448201527f654d696e7420686f6f6b2072656a6563746564207265717565737400000000006064820152608401610520565b505b604051632b0fe8e760e21b81526001600160a01b0384811660048301527f0000000000000000000000000000000000000000000000000000000000000000169063ac3fa39c90602401602060405180830381865afa1580156109d3573d6000803e3d6000fd5b505050506040513d601f19601f820116820180604052508101906109f79190611af4565b15610a72576000839050806001600160a01b031663181d939b6040518163ffffffff1660e01b8152600401602060405180830381865afa158015610a3f573d6000803e3d6000fd5b505050506040513d601f19601f82011682018060405250810190610a639190611af4565b610a7057610a70846112ab565b505b610a7c8383611485565b50610a876001600055565b5050565b336001600160a01b037f00000000000000000000000000000000000000000000000000000000000000001614610b035760405162461bcd60e51b815260206004820152601f60248201527f4261736541737365743a206f6e6c7920666163746f727920616c6c6f776564006044820152606401610520565b600081806020019051810190610b199190611b71565b60208101519091506001600160a01b0316610b925760405162461bcd60e51b815260206004820152603360248201527f4e6f6e5472616e7366657261626c6545524332303a206973737565722063616e6044820152726e6f74206265207a65726f206164647265737360681b6064820152608401610520565b80516001600160a01b0316610c025760405162461bcd60e51b815260206004820152603060248201527f41737365743a206f726967696e436861696e416464726573732063616e6e6f7460448201526f206265207a65726f206164647265737360801b6064820152608401610520565b6000816080015111610c7c5760405162461bcd60e51b815260206004820152603b60248201527f4e6f6e5472616e7366657261626c6545524332303a20746f74616c537570706c60448201527f79206d7573742062652067726561746572207468616e207a65726f00000000006064820152608401610520565b60008160a001515111610ce45760405162461bcd60e51b815260206004820152602a60248201527f4e6f6e5472616e7366657261626c6545524332303a206e616d652063616e6e6f6044820152697420626520656d70747960b01b6064820152608401610520565b60008160c001515111610d4e5760405162461bcd60e51b815260206004820152602c60248201527f4e6f6e5472616e7366657261626c6545524332303a2073796d626f6c2063616e60448201526b6e6f7420626520656d70747960a01b6064820152608401610520565b6000816060015111610dc85760405162461bcd60e51b815260206004820152603d60248201527f4e6f6e5472616e7366657261626c6545524332303a206f726967696e4368616960448201527f6e4964206d7573742062652067726561746572207468616e207a65726f0000006064820152608401610520565b600080516020611e2d833981519152805482516201000062010000600160b81b031990921663010000006001600160a01b0392831602179190911790915560208201517f176cbabf2c0dbfb763886e1a47867828030f47836ae8a29efa61d706d1eb860880546001600160a01b0319169190921617905560608101517f176cbabf2c0dbfb763886e1a47867828030f47836ae8a29efa61d706d1eb860a556080810151600080516020611e0d83398151915290815560a08201517f176cbabf2c0dbfb763886e1a47867828030f47836ae8a29efa61d706d1eb860b90610eae9082611c8a565b5060c08201516008820190610ec39082611c8a565b506000826040015160ff1611610eda576012610ee0565b81604001515b6003909101805460ff929092166101000261ff00199092169190911790555050565b606081604051602001610f159190611d4a565b6040516020818303038152906040529050919050565b6001600160a01b031660009081527f176cbabf2c0dbfb763886e1a47867828030f47836ae8a29efa61d706d1eb8605602052604090205490565b600080516020611e2d833981519152600101546001600160a01b03163314610f9f5760405162461bcd60e51b815260040161052090611aa7565b600080516020611e4d83398151915254600080516020611e2d833981519152906001600160a01b031661103a5760405162461bcd60e51b815260206004820152603760248201527f4e6f6e5472616e7366657261626c6545524337323141737365743a20686f6f6b60448201527f2063616e6e6f74206265207a65726f20616464726573730000000000000000006064820152608401610520565b6002810180546001600160a01b0319166001600160a01b0384169081179091556040519081527ff716b9f35a5af170228b0c97201cc581ce2ca1703824fd6b78f3583f28f7eedc9060200160405180910390a15050565b6060600080516020611e2d833981519152600501805461042990611a6d565b6001600160a01b0382811660009081527f176cbabf2c0dbfb763886e1a47867828030f47836ae8a29efa61d706d1eb860660209081526040808320938516835292905220545b92915050565b611104611281565b600080516020611e2d833981519152600101546001600160a01b0316331461113e5760405162461bcd60e51b815260040161052090611aa7565b600080516020611e4d833981519152546001600160a01b03168015611251576040516335661e9560e21b81523060048201526001600160a01b038481166024830152604482018490526000919083169063d5987a54906064016020604051808303816000875af11580156111b6573d6000803e3d6000fd5b505050506040513d601f19601f820116820180604052508101906111da9190611af4565b90508061124f5760405162461bcd60e51b815260206004820152603d60248201527f4e6f6e5472616e7366657261626c65455243323041737365743a206265666f7260448201527f655265766f6b6520686f6f6b2072656a656374656420726571756573740000006064820152608401610520565b505b600061125c84610f2b565b90506112758482851061126f578261156d565b8461156d565b5050610a876001600055565b6002600054036112a457604051633ee5aeb560e01b815260040160405180910390fd5b6002600055565b6000816001600160a01b031663516f279e6040518163ffffffff1660e01b8152600401602060405180830381865afa1580156112eb573d6000803e3d6000fd5b505050506040513d601f19601f8201168201806040525081019061130f9190611dce565b9050600080516020611e2d8339815191526001600160a01b0382166113805760405162461bcd60e51b815260206004820152602160248201527f4261736541737365743a2061766174617220686173206e6f206c6f636174696f6044820152603760f91b6064820152608401610520565b600181015460408051636904c94d60e01b815290516001600160a01b0392831692851691636904c94d9160048083019260209291908290030181865afa1580156113ce573d6000803e3d6000fd5b505050506040513d601f19601f820116820180604052508101906113f29190611dce565b6001600160a01b0316146114805760405162461bcd60e51b815260206004820152604960248201527f4261736541737365743a2061766174617220646f6573206e6f7420616c6c6f7760448201527f20617373657473206f757473696465206f66206974732063757272656e7420656064820152687870657269656e636560b81b608482015260a401610520565b505050565b600080516020611e2d8339815191525460ff1680156114fc5760405162461bcd60e51b815260206004820152602d60248201527f4e6f6e5472616e7366657261626c6545524332303a206173736574206861732060448201526c1899595b881d5c19dc98591959609a1b6064820152608401610520565b6001600160a01b0383166115265760405163ec442f0560e01b815260006004820152602401610520565b6115326000848461159f565b826001600160a01b03167f1f98ee45d72cac8271cfd41cc599153bf1465afc3fc1f0b3e2a97b8f1c4253a98360405161065591815260200190565b6001600160a01b03821661159757604051634b637e8f60e11b815260006004820152602401610520565b610a87826000835b600080516020611e0d8339815191526001600160a01b0384166115db57818160000160008282546115d09190611deb565b909155506116519050565b6001600160a01b0384166000908152600182016020526040902054828110156116305760405163391434e360e21b81526001600160a01b03861660048201526024810182905260448101849052606401610520565b6001600160a01b038516600090815260018301602052604090209083900390555b6001600160a01b03831661166b578054829003815561168c565b6001600160a01b038316600090815260018201602052604090208054830190555b826001600160a01b0316846001600160a01b03167fddf252ad1be2c89b69c2b068fc378daa952ba7f163c4a11628f55a4df523b3ef846040516116d191815260200190565b60405180910390a350505050565b60005b838110156116fa5781810151838201526020016116e2565b50506000910152565b6000815180845261171b8160208601602086016116df565b601f01601f19169290920160200192915050565b6020815260006117426020830184611703565b9392505050565b6001600160a01b038116811461175e57600080fd5b50565b803561176c81611749565b919050565b60006020828403121561178357600080fd5b813561174281611749565b600080604083850312156117a157600080fd5b82356117ac81611749565b946020939093013593505050565b6000806000606084860312156117cf57600080fd5b83356117da81611749565b925060208401356117ea81611749565b929592945050506040919091013590565b634e487b7160e01b600052604160045260246000fd5b60405160e0810167ffffffffffffffff81118282101715611834576118346117fb565b60405290565b604051601f8201601f1916810167ffffffffffffffff81118282101715611863576118636117fb565b604052919050565b600067ffffffffffffffff821115611885576118856117fb565b50601f01601f191660200190565b60006118a66118a18461186b565b61183a565b90508281528383830111156118ba57600080fd5b828260208301376000602084830101529392505050565b6000602082840312156118e357600080fd5b813567ffffffffffffffff8111156118fa57600080fd5b8201601f8101841361190b57600080fd5b61191a84823560208401611893565b949350505050565b60ff8116811461175e57600080fd5b803561176c81611922565b600082601f83011261194d57600080fd5b61174283833560208501611893565b60006020828403121561196e57600080fd5b813567ffffffffffffffff8082111561198657600080fd5b9083019060e0828603121561199a57600080fd5b6119a2611811565b6119ab83611761565b81526119b960208401611761565b60208201526119ca60408401611931565b6040820152606083013560608201526080830135608082015260a0830135828111156119f557600080fd5b611a018782860161193c565b60a08301525060c083013582811115611a1957600080fd5b611a258782860161193c565b60c08301525095945050505050565b60008060408385031215611a4757600080fd5b8235611a5281611749565b91506020830135611a6281611749565b809150509250929050565b600181811c90821680611a8157607f821691505b602082108103611aa157634e487b7160e01b600052602260045260246000fd5b50919050565b6020808252601e908201527f4261736541737365743a206f6e6c792069737375657220616c6c6f7765640000604082015260600190565b634e487b7160e01b600052602160045260246000fd5b600060208284031215611b0657600080fd5b8151801515811461174257600080fd5b805161176c81611749565b805161176c81611922565b600082601f830112611b3d57600080fd5b8151611b4b6118a18261186b565b818152846020838601011115611b6057600080fd5b61191a8260208301602087016116df565b600060208284031215611b8357600080fd5b815167ffffffffffffffff80821115611b9b57600080fd5b9083019060e08286031215611baf57600080fd5b611bb7611811565b611bc083611b16565b8152611bce60208401611b16565b6020820152611bdf60408401611b21565b6040820152606083015160608201526080830151608082015260a083015182811115611c0a57600080fd5b611c1687828601611b2c565b60a08301525060c083015182811115611c2e57600080fd5b611a2587828601611b2c565b601f821115611480576000816000526020600020601f850160051c81016020861015611c635750805b601f850160051c820191505b81811015611c8257828155600101611c6f565b505050505050565b815167ffffffffffffffff811115611ca457611ca46117fb565b611cb881611cb28454611a6d565b84611c3a565b602080601f831160018114611ced5760008415611cd55750858301515b600019600386901b1c1916600185901b178555611c82565b600085815260208120601f198616915b82811015611d1c57888601518255948401946001909101908401611cfd565b5085821015611d3a5787850151600019600388901b60f8161c191681555b5050505050600190811b01905550565b60208152600060018060a01b038084511660208401528060208501511660408401525060ff604084015116606083015260608301516080830152608083015160a083015260a083015160e060c0840152611da8610100840182611703565b905060c0840151601f198483030160e0850152611dc58282611703565b95945050505050565b600060208284031215611de057600080fd5b815161174281611749565b808201808211156110f657634e487b7160e01b600052601160045260246000fdfe176cbabf2c0dbfb763886e1a47867828030f47836ae8a29efa61d706d1eb8604176cbabf2c0dbfb763886e1a47867828030f47836ae8a29efa61d706d1eb8607176cbabf2c0dbfb763886e1a47867828030f47836ae8a29efa61d706d1eb8609a2646970667358221220a9393be926a7d0fa7d0aac6696544671a9a4866a9f197bbc1bafec94ecaa30ac64736f6c63430008180033",
  "linkReferences": {},
  "deployedLinkReferences": {}
}