{
  "_format": "hh-sol-artifact-1",
  "contractName": "WorldV2",
  "sourceName": "contracts/world/v0.2/WorldV2.sol",
  "abi": [
    {
      "inputs": [
        {
          "components": [
            {
              "internalType": "address",
              "name": "worldFactory",
              "type": "address"
            },
            {
              "internalType": "address",
              "name": "worldRegistry",
              "type": "address"
            },
            {
              "internalType": "address",
              "name": "companyRegistry",
              "type": "address"
            },
            {
              "internalType": "address",
              "name": "avatarRegistry",
              "type": "address"
            }
          ],
          "internalType": "struct WorldConstructorArgs",
          "name": "args",
          "type": "tuple"
        }
      ],
      "stateMutability": "nonpayable",
      "type": "constructor"
    },
    {
      "inputs": [],
      "name": "ReentrancyGuardReentrantCall",
      "type": "error"
    },
    {
      "anonymous": false,
      "inputs": [
        {
          "indexed": true,
          "internalType": "address",
          "name": "avatar",
          "type": "address"
        },
        {
          "indexed": true,
          "internalType": "address",
          "name": "experience",
          "type": "address"
        }
      ],
      "name": "AvatarRegistered",
      "type": "event"
    },
    {
      "anonymous": false,
      "inputs": [
        {
          "indexed": true,
          "internalType": "address",
          "name": "company",
          "type": "address"
        },
        {
          "components": [
            {
              "internalType": "string",
              "name": "x",
              "type": "string"
            },
            {
              "internalType": "string",
              "name": "y",
              "type": "string"
            },
            {
              "internalType": "string",
              "name": "z",
              "type": "string"
            },
            {
              "internalType": "uint256",
              "name": "t",
              "type": "uint256"
            },
            {
              "internalType": "uint256",
              "name": "p",
              "type": "uint256"
            },
            {
              "internalType": "uint256",
              "name": "p_sub",
              "type": "uint256"
            }
          ],
          "indexed": false,
          "internalType": "struct VectorAddress",
          "name": "vector",
          "type": "tuple"
        },
        {
          "indexed": false,
          "internalType": "string",
          "name": "name",
          "type": "string"
        }
      ],
      "name": "CompanyRegistered",
      "type": "event"
    },
    {
      "anonymous": false,
      "inputs": [
        {
          "indexed": true,
          "internalType": "address",
          "name": "sender",
          "type": "address"
        },
        {
          "indexed": false,
          "internalType": "uint256",
          "name": "value",
          "type": "uint256"
        }
      ],
      "name": "ReceivedFunds",
      "type": "event"
    },
    {
      "anonymous": false,
      "inputs": [
        {
          "indexed": true,
          "internalType": "address",
          "name": "signer",
          "type": "address"
        }
      ],
      "name": "SignerAdded",
      "type": "event"
    },
    {
      "anonymous": false,
      "inputs": [
        {
          "indexed": true,
          "internalType": "address",
          "name": "signer",
          "type": "address"
        }
      ],
      "name": "SignerRemoved",
      "type": "event"
    },
    {
      "anonymous": false,
      "inputs": [],
      "name": "WorldHookRemoved",
      "type": "event"
    },
    {
      "anonymous": false,
      "inputs": [
        {
          "indexed": true,
          "internalType": "address",
          "name": "hook",
          "type": "address"
        }
      ],
      "name": "WorldHookSet",
      "type": "event"
    },
    {
      "anonymous": false,
      "inputs": [
        {
          "indexed": true,
          "internalType": "address",
          "name": "oldWorld",
          "type": "address"
        },
        {
          "indexed": true,
          "internalType": "address",
          "name": "newWorld",
          "type": "address"
        }
      ],
      "name": "WorldUpgraded",
      "type": "event"
    },
    {
      "inputs": [
        {
          "internalType": "address[]",
          "name": "signers",
          "type": "address[]"
        }
      ],
      "name": "addSigners",
      "outputs": [],
      "stateMutability": "nonpayable",
      "type": "function"
    },
    {
      "inputs": [],
      "name": "avatarRegistry",
      "outputs": [
        {
          "internalType": "contract IAvatarRegistry",
          "name": "",
          "type": "address"
        }
      ],
      "stateMutability": "view",
      "type": "function"
    },
    {
      "inputs": [],
      "name": "companyRegistry",
      "outputs": [
        {
          "internalType": "contract ICompanyRegistry",
          "name": "",
          "type": "address"
        }
      ],
      "stateMutability": "view",
      "type": "function"
    },
    {
      "inputs": [],
      "name": "getBaseVector",
      "outputs": [
        {
          "components": [
            {
              "internalType": "string",
              "name": "x",
              "type": "string"
            },
            {
              "internalType": "string",
              "name": "y",
              "type": "string"
            },
            {
              "internalType": "string",
              "name": "z",
              "type": "string"
            },
            {
              "internalType": "uint256",
              "name": "t",
              "type": "uint256"
            },
            {
              "internalType": "uint256",
              "name": "p",
              "type": "uint256"
            },
            {
              "internalType": "uint256",
              "name": "p_sub",
              "type": "uint256"
            }
          ],
          "internalType": "struct VectorAddress",
          "name": "",
          "type": "tuple"
        }
      ],
      "stateMutability": "view",
      "type": "function"
    },
    {
      "inputs": [],
      "name": "getName",
      "outputs": [
        {
          "internalType": "string",
          "name": "",
          "type": "string"
        }
      ],
      "stateMutability": "view",
      "type": "function"
    },
    {
      "inputs": [],
      "name": "getOwner",
      "outputs": [
        {
          "internalType": "address",
          "name": "",
          "type": "address"
        }
      ],
      "stateMutability": "view",
      "type": "function"
    },
    {
      "inputs": [
        {
          "components": [
            {
              "internalType": "address",
              "name": "owner",
              "type": "address"
            },
            {
              "internalType": "address",
              "name": "oldWorld",
              "type": "address"
            },
            {
              "components": [
                {
                  "internalType": "string",
                  "name": "x",
                  "type": "string"
                },
                {
                  "internalType": "string",
                  "name": "y",
                  "type": "string"
                },
                {
                  "internalType": "string",
                  "name": "z",
                  "type": "string"
                },
                {
                  "internalType": "uint256",
                  "name": "t",
                  "type": "uint256"
                },
                {
                  "internalType": "uint256",
                  "name": "p",
                  "type": "uint256"
                },
                {
                  "internalType": "uint256",
                  "name": "p_sub",
                  "type": "uint256"
                }
              ],
              "internalType": "struct VectorAddress",
              "name": "baseVector",
              "type": "tuple"
            },
            {
              "internalType": "string",
              "name": "name",
              "type": "string"
            },
            {
              "internalType": "bytes",
              "name": "initData",
              "type": "bytes"
            }
          ],
          "internalType": "struct WorldCreateRequest",
          "name": "request",
          "type": "tuple"
        }
      ],
      "name": "init",
      "outputs": [],
      "stateMutability": "nonpayable",
      "type": "function"
    },
    {
      "inputs": [
        {
          "internalType": "address",
          "name": "signer",
          "type": "address"
        }
      ],
      "name": "isSigner",
      "outputs": [
        {
          "internalType": "bool",
          "name": "",
          "type": "bool"
        }
      ],
      "stateMutability": "view",
      "type": "function"
    },
    {
      "inputs": [
        {
          "components": [
            {
              "internalType": "bool",
              "name": "sendTokensToAvatarOwner",
              "type": "bool"
            },
            {
              "internalType": "address",
              "name": "avatarOwner",
              "type": "address"
            },
            {
              "internalType": "address",
              "name": "defaultExperience",
              "type": "address"
            },
            {
              "internalType": "string",
              "name": "username",
              "type": "string"
            },
            {
              "internalType": "bytes",
              "name": "initData",
              "type": "bytes"
            }
          ],
          "internalType": "struct AvatarRegistrationRequest",
          "name": "args",
          "type": "tuple"
        }
      ],
      "name": "registerAvatar",
      "outputs": [
        {
          "internalType": "address",
          "name": "avatar",
          "type": "address"
        }
      ],
      "stateMutability": "payable",
      "type": "function"
    },
    {
      "inputs": [
        {
          "components": [
            {
              "internalType": "bool",
              "name": "sendTokensToCompanyOwner",
              "type": "bool"
            },
            {
              "internalType": "address",
              "name": "owner",
              "type": "address"
            },
            {
              "internalType": "string",
              "name": "name",
              "type": "string"
            },
            {
              "internalType": "bytes",
              "name": "initData",
              "type": "bytes"
            }
          ],
          "internalType": "struct CompanyRegistrationArgs",
          "name": "args",
          "type": "tuple"
        }
      ],
      "name": "registerCompany",
      "outputs": [
        {
          "internalType": "address",
          "name": "company",
          "type": "address"
        }
      ],
      "stateMutability": "payable",
      "type": "function"
    },
    {
      "inputs": [],
      "name": "removeHook",
      "outputs": [],
      "stateMutability": "nonpayable",
      "type": "function"
    },
    {
      "inputs": [
        {
          "internalType": "address[]",
          "name": "signers",
          "type": "address[]"
        }
      ],
      "name": "removeSigners",
      "outputs": [],
      "stateMutability": "nonpayable",
      "type": "function"
    },
    {
      "inputs": [
        {
          "internalType": "contract IWorldHook",
          "name": "_hook",
          "type": "address"
        }
      ],
      "name": "setHook",
      "outputs": [],
      "stateMutability": "nonpayable",
      "type": "function"
    },
    {
      "inputs": [
        {
          "internalType": "bytes",
          "name": "initData",
          "type": "bytes"
        }
      ],
      "name": "upgrade",
      "outputs": [],
      "stateMutability": "nonpayable",
      "type": "function"
    },
    {
      "inputs": [
        {
          "internalType": "address",
          "name": "nextVersion",
          "type": "address"
        }
      ],
      "name": "upgradeComplete",
      "outputs": [],
      "stateMutability": "nonpayable",
      "type": "function"
    },
    {
      "inputs": [],
      "name": "version",
      "outputs": [
        {
          "internalType": "uint256",
          "name": "",
          "type": "uint256"
        }
      ],
      "stateMutability": "view",
      "type": "function"
    },
    {
      "inputs": [
        {
          "internalType": "uint256",
          "name": "amount",
          "type": "uint256"
        }
      ],
      "name": "withdraw",
      "outputs": [],
      "stateMutability": "nonpayable",
      "type": "function"
    },
    {
      "inputs": [],
      "name": "worldFactory",
      "outputs": [
        {
          "internalType": "address",
          "name": "",
          "type": "address"
        }
      ],
      "stateMutability": "view",
      "type": "function"
    },
    {
      "inputs": [],
      "name": "worldRegistry",
      "outputs": [
        {
          "internalType": "contract IWorldRegistryV2",
          "name": "",
          "type": "address"
        }
      ],
      "stateMutability": "view",
      "type": "function"
    },
    {
      "stateMutability": "payable",
      "type": "receive"
    }
  ],
  "bytecode": "0x6101006040523480156200001257600080fd5b5060405162002b0f38038062002b0f83398101604081905262000035916200025a565b600160005580516001600160a01b0316620000ad5760405162461bcd60e51b815260206004820152602d60248201527f576f726c64305f323a20776f726c64466163746f72792063616e6e6f7420626560448201526c207a65726f206164647265737360981b60648201526084015b60405180910390fd5b60208101516001600160a01b0316620001205760405162461bcd60e51b815260206004820152602e60248201527f576f726c64305f323a20776f726c6452656769737472792063616e6e6f74206260448201526d65207a65726f206164647265737360901b6064820152608401620000a4565b60408101516001600160a01b0316620001955760405162461bcd60e51b815260206004820152603060248201527f576f726c64305f323a20636f6d70616e7952656769737472792063616e6e6f7460448201526f206265207a65726f206164647265737360801b6064820152608401620000a4565b60608101516001600160a01b0316620002095760405162461bcd60e51b815260206004820152602f60248201527f576f726c64305f323a2061766174617252656769737472792063616e6e6f742060448201526e6265207a65726f206164647265737360881b6064820152608401620000a4565b60208101516001600160a01b039081166080528151811660a0526040820151811660c0526060909101511660e052620002ee565b80516001600160a01b03811681146200025557600080fd5b919050565b6000608082840312156200026d57600080fd5b604051608081016001600160401b03811182821017156200029e57634e487b7160e01b600052604160045260246000fd5b604052620002ac836200023d565b8152620002bc602084016200023d565b6020820152620002cf604084016200023d565b6040820152620002e2606084016200023d565b60608201529392505050565b60805160a05160c05160e0516127b662000359600039600081816103e301526113680152600081816103af015261091c01526000818161016b01528181610b1101528181610b9001528181611497015261151601526000818161037b0152610aa101526127b66000f3fe6080604052600436106101185760003560e01c80634d575f3d116100a05780638d361e43116100645780638d361e4314610349578063911c2a8c14610369578063c51aba2b1461039d578063e3d7ad73146103d1578063e8906a2d1461040557600080fd5b80634d575f3d1461029857806354fd4d50146102ab57806361445eb7146102ce5780637df73e27146102ee578063893d20e81461031e57600080fd5b80632663d1f7116100e75780632663d1f7146102015780632e1a7d4d14610221578063378f17ff14610241578063382af56d146102565780633dfd38731461027857600080fd5b80630dc3897d1461015957806317d7de7c146101aa5780631c2fbedc146101cc57806325394645146101df57600080fd5b366101545760405134815233907f5741979df5f3e491501da74d3b0a83dd2496ab1f34929865b3e190a8ad75859a9060200160405180910390a2005b600080fd5b34801561016557600080fd5b5061018d7f000000000000000000000000000000000000000000000000000000000000000081565b6040516001600160a01b0390911681526020015b60405180910390f35b3480156101b657600080fd5b506101bf610425565b6040516101a19190611d48565b61018d6101da366004611ea3565b6104e8565b3480156101eb57600080fd5b506101ff6101fa366004611f5a565b610a46565b005b34801561020d57600080fd5b506101ff61021c366004611fcc565b610b0f565b34801561022d57600080fd5b506101ff61023c366004611fe9565b610c5c565b34801561024d57600080fd5b506101ff610d3e565b34801561026257600080fd5b5061026b610ddc565b6040516101a19190612075565b34801561028457600080fd5b506101ff610293366004611fcc565b61102c565b61018d6102a6366004612088565b61113e565b3480156102b757600080fd5b506102c0600281565b6040519081526020016101a1565b3480156102da57600080fd5b506101ff6102e9366004612202565b611495565b3480156102fa57600080fd5b5061030e610309366004611fcc565b61197d565b60405190151581526020016101a1565b34801561032a57600080fd5b50600080516020612701833981519152546001600160a01b031661018d565b34801561035557600080fd5b506101ff61036436600461229a565b6119ae565b34801561037557600080fd5b5061018d7f000000000000000000000000000000000000000000000000000000000000000081565b3480156103a957600080fd5b5061018d7f000000000000000000000000000000000000000000000000000000000000000081565b3480156103dd57600080fd5b5061018d7f000000000000000000000000000000000000000000000000000000000000000081565b34801561041157600080fd5b506101ff61042036600461229a565b6119fc565b7f56d7bc8c87dcf17af82d688c532aeaaf98988789f376198bffdb298b88a9593a805460609160008051602061270183398151915291610464906122fd565b80601f0160208091040260200160405190810160405280929190818152602001828054610490906122fd565b80156104dd5780601f106104b2576101008083540402835291602001916104dd565b820191906000526020600020905b8154815290600101906020018083116104c057829003601f168201915b505050505091505090565b60006000805160206126e18339815191526105128160008051602061272183398151915233611a4a565b6105375760405162461bcd60e51b815260040161052e90612331565b60405180910390fd5b61053f611a77565b60208301516001600160a01b03166105b05760405162461bcd60e51b815260206004820152602e60248201527f576f726c64305f323a20636f6d70616e79206f776e65722063616e6e6f74206260448201526d65207a65726f206164647265737360901b606482015260840161052e565b6000836040015151116106145760405162461bcd60e51b815260206004820152602660248201527f576f726c64305f323a20636f6d70616e79206e616d652063616e6e6f7420626560448201526520656d70747960d01b606482015260840161052e565b60008051602061274183398151915254600080516020612701833981519152906001600160a01b03161561071857600281015460405163e76c26f760e01b81526001600160a01b039091169063e76c26f79061067490879060040161237d565b6020604051808303816000875af1158015610693573d6000803e3d6000fd5b505050506040513d601f19601f820116820180604052508101906106b791906123dd565b6107185760405162461bcd60e51b815260206004820152602c60248201527f576f726c64305f323a20686f6f6b2072656a656374656420636f6d70616e792060448201526b3932b3b4b9ba3930ba34b7b760a11b606482015260840161052e565b80600a0160008154610729906123fa565b9190508190555060006040518060c0016040528083600301600001805461074f906122fd565b80601f016020809104026020016040519081016040528092919081815260200182805461077b906122fd565b80156107c85780601f1061079d576101008083540402835291602001916107c8565b820191906000526020600020905b8154815290600101906020018083116107ab57829003601f168201915b505050505081526020018360030160010180546107e4906122fd565b80601f0160208091040260200160405190810160405280929190818152602001828054610810906122fd565b801561085d5780601f106108325761010080835404028352916020019161085d565b820191906000526020600020905b81548152906001019060200180831161084057829003601f168201915b50505050508152602001836003016002018054610879906122fd565b80601f01602080910402602001604051908101604052809291908181526020018280546108a5906122fd565b80156108f25780601f106108c7576101008083540402835291602001916108f2565b820191906000526020600020905b8154815290600101906020018083116108d557829003601f168201915b505050505081526020018360030160030154815260200183600a01548152602001600081525090507f00000000000000000000000000000000000000000000000000000000000000006001600160a01b03166322feaee6346040518060a0016040528089600001511515815260200189602001516001600160a01b031681526020018581526020018960600151815260200189604001518152506040518363ffffffff1660e01b81526004016109a89190612421565b60206040518083038185885af11580156109c6573d6000803e3d6000fd5b50505050506040513d601f19601f820116820180604052508101906109eb9190612497565b9350836001600160a01b03167f3ae5cc94bcf37dd89d282cbe7f9842a176a101aa41ce7af3ed66fa58a2466c62828760400151604051610a2c9291906124b4565b60405180910390a25050610a406001600055565b50919050565b6000805160206126e1833981519152610a6e8160008051602061276183398151915233611a4a565b610a8a5760405162461bcd60e51b815260040161052e906124d9565b604051638f51aa6d60e01b81526001600160a01b037f00000000000000000000000000000000000000000000000000000000000000001690638f51aa6d90610ad89086908690600401612524565b600060405180830381600087803b158015610af257600080fd5b505af1158015610b06573d6000803e3d6000fd5b50505050505050565b7f00000000000000000000000000000000000000000000000000000000000000006001600160a01b0316610b855760405162461bcd60e51b815260206004820152601e60248201527f576f726c64305f323a20776f726c64466163746f7279206e6f74207365740000604482015260640161052e565b336001600160a01b037f00000000000000000000000000000000000000000000000000000000000000001614610bfd5760405162461bcd60e51b815260206004820152601f60248201527f576f726c64305f323a2063616c6c6572206973206e6f7420666163746f727900604482015260640161052e565b6000805160206126e183398151915280546001600160a01b031981166001600160a01b03848116918217845560405192169182907ff1fe458d696ab302f212b76fb0e63c85d19c1bcb4c3e61d3a4470e76d136321890600090a3505050565b6000805160206126e1833981519152610c848160008051602061276183398151915233611a4a565b610ca05760405162461bcd60e51b815260040161052e906124d9565b47821115610cf05760405162461bcd60e51b815260206004820181905260248201527f576f726c64305f323a20616d6f756e7420657863656564732062616c616e6365604482015260640161052e565b60008051602061270183398151915280546040516001600160a01b03909116906108fc8515029085906000818181858888f19350505050158015610d38573d6000803e3d6000fd5b50505050565b6000805160206126e1833981519152610d668160008051602061276183398151915233611a4a565b610d825760405162461bcd60e51b815260040161052e906124d9565b60008051602061274183398151915280546001600160a01b0319169055604051600080516020612701833981519152907fd6bb5977e74678fe79d7effa6d93a6e996630cf696c32a815b00fda893b87b5a90600090a15050565b610e156040518060c001604052806060815260200160608152602001606081526020016000815260200160008152602001600081525090565b6040805160c081019091527f56d7bc8c87dcf17af82d688c532aeaaf98988789f376198bffdb298b88a95934805460008051602061270183398151915292919082908290610e62906122fd565b80601f0160208091040260200160405190810160405280929190818152602001828054610e8e906122fd565b8015610edb5780601f10610eb057610100808354040283529160200191610edb565b820191906000526020600020905b815481529060010190602001808311610ebe57829003601f168201915b50505050508152602001600182018054610ef4906122fd565b80601f0160208091040260200160405190810160405280929190818152602001828054610f20906122fd565b8015610f6d5780601f10610f4257610100808354040283529160200191610f6d565b820191906000526020600020905b815481529060010190602001808311610f5057829003601f168201915b50505050508152602001600282018054610f86906122fd565b80601f0160208091040260200160405190810160405280929190818152602001828054610fb2906122fd565b8015610fff5780601f10610fd457610100808354040283529160200191610fff565b820191906000526020600020905b815481529060010190602001808311610fe257829003601f168201915b50505050508152602001600382015481526020016004820154815260200160058201548152505091505090565b6000805160206126e18339815191526110548160008051602061276183398151915233611a4a565b6110705760405162461bcd60e51b815260040161052e906124d9565b6001600160a01b0382166110d45760405162461bcd60e51b815260206004820152602560248201527f576f726c64305f323a20686f6f6b2063616e6e6f74206265207a65726f206164604482015264647265737360d81b606482015260840161052e565b60008051602061274183398151915280546001600160a01b0319166001600160a01b03841690811790915560405160008051602061270183398151915291907f2e0d4a0d6b6807573b280bc3dd0c83d52c5115e86a427cc6506e9a040f64b47790600090a2505050565b60006000805160206126e18339815191526111688160008051602061272183398151915233611a4a565b6111845760405162461bcd60e51b815260040161052e90612331565b61118c611a77565b60208301516001600160a01b03166111fc5760405162461bcd60e51b815260206004820152602d60248201527f576f726c64305f323a20617661746172206f776e65722063616e6e6f7420626560448201526c207a65726f206164647265737360981b606482015260840161052e565b6000836060015151116112635760405162461bcd60e51b815260206004820152602960248201527f576f726c64305f323a2061766174617220757365726e616d652063616e6e6f7460448201526820626520656d70747960b81b606482015260840161052e565b60008051602061274183398151915254600080516020612701833981519152906001600160a01b031615611366576002810154604051633e6ff77160e21b81526001600160a01b039091169063f9bfddc4906112c3908790600401612553565b6020604051808303816000875af11580156112e2573d6000803e3d6000fd5b505050506040513d601f19601f8201168201806040525081019061130691906123dd565b6113665760405162461bcd60e51b815260206004820152602b60248201527f576f726c64305f323a20686f6f6b2072656a656374656420617661746172207260448201526a32b3b4b9ba3930ba34b7b760a91b606482015260840161052e565b7f00000000000000000000000000000000000000000000000000000000000000006001600160a01b0316634d575f3d346040518060a0016040528088600001511515815260200188602001516001600160a01b0316815260200188604001516001600160a01b031681526020018860600151815260200188608001518152506040518363ffffffff1660e01b81526004016114019190612553565b60206040518083038185885af115801561141f573d6000803e3d6000fd5b50505050506040513d601f19601f820116820180604052508101906114449190612497565b925083604001516001600160a01b0316836001600160a01b03167f0ada65c939d4c317368a1a88ef5f00697bfe4e748e24d6722c1a0d04c26a4b8660405160405180910390a350610a406001600055565b7f00000000000000000000000000000000000000000000000000000000000000006001600160a01b031661150b5760405162461bcd60e51b815260206004820152601e60248201527f576f726c64305f323a20776f726c64466163746f7279206e6f74207365740000604482015260640161052e565b336001600160a01b037f000000000000000000000000000000000000000000000000000000000000000016146115835760405162461bcd60e51b815260206004820152601f60248201527f576f726c64305f323a2063616c6c6572206973206e6f7420666163746f727900604482015260640161052e565b80516000805160206126e1833981519152906001600160a01b03166115f95760405162461bcd60e51b815260206004820152602660248201527f576f726c64305f323a206f776e65722063616e6e6f74206265207a65726f206160448201526564647265737360d01b606482015260840161052e565b6040820151515160000361165d5760405162461bcd60e51b815260206004820152602560248201527f576f726c64305f323a2062617365566563746f722e782063616e6e6f74206265604482015264207a65726f60d81b606482015260840161052e565b816040015160200151516000036116c45760405162461bcd60e51b815260206004820152602560248201527f576f726c64305f323a2062617365566563746f722e792063616e6e6f74206265604482015264207a65726f60d81b606482015260840161052e565b8160400151604001515160000361172b5760405162461bcd60e51b815260206004820152602560248201527f576f726c64305f323a2062617365566563746f722e7a2063616e6e6f74206265604482015264207a65726f60d81b606482015260840161052e565b6040820151608001511561178d5760405162461bcd60e51b815260206004820152602360248201527f576f726c64305f323a2062617365566563746f722e70206d757374206265207a60448201526265726f60e81b606482015260840161052e565b604082015160a00151156117f35760405162461bcd60e51b815260206004820152602760248201527f576f726c64305f323a2062617365566563746f722e705f737562206d757374206044820152666265207a65726f60c81b606482015260840161052e565b6000826060015151116118485760405162461bcd60e51b815260206004820152601e60248201527f576f726c64305f323a206e616d652063616e6e6f7420626520656d7074790000604482015260640161052e565b815160008051602061270183398151915280546001600160a01b0319166001600160a01b03909216919091178155604083015180517f56d7bc8c87dcf17af82d688c532aeaaf98988789f376198bffdb298b88a959349081906118ab908261260a565b50602082015160018201906118c0908261260a565b50604082015160028201906118d5908261260a565b5060608281015160038301556080830151600483015560a0909201516005909101558301516009820190611909908261260a565b506000600a82015560208301516001820180546001600160a01b0319166001600160a01b0392831617905581546119529184916000805160206127618339815191529116611aa1565b8054611978908390600080516020612721833981519152906001600160a01b0316611aa1565b505050565b60006000805160206126e18339815191526119a78160008051602061272183398151915285611a4a565b9392505050565b6000805160206126e18339815191526119d68160008051602061276183398151915233611a4a565b6119f25760405162461bcd60e51b815260040161052e906124d9565b6119788383611ad4565b6000805160206126e1833981519152611a248160008051602061276183398151915233611a4a565b611a405760405162461bcd60e51b815260040161052e906124d9565b6119788383611bba565b6000918252600192909201602090815260408083206001600160a01b039094168352929052205460ff1690565b600260005403611a9a57604051633ee5aeb560e01b815260040160405180910390fd5b6002600055565b60009182526001928301602090815260408084206001600160a01b0390931684529190529020805460ff19169091179055565b6000805160206126e183398151915260005b82811015610d3857611b56600080516020612721833981519152858584818110611b1257611b126126ca565b9050602002016020810190611b279190611fcc565b600091825260018501602090815260408084206001600160a01b0390931684529190529020805460ff19169055565b838382818110611b6857611b686126ca565b9050602002016020810190611b7d9190611fcc565b6001600160a01b03167f3525e22824a8a7df2c9a6029941c824cf95b6447f1e13d5128fd3826d35afe8b60405160405180910390a2600101611ae6565b6000805160206126e183398151915260005b82811015610d38576000848483818110611be857611be86126ca565b9050602002016020810190611bfd9190611fcc565b6001600160a01b031603611c5d5760405162461bcd60e51b815260206004820152602160248201527f4261736550726f78793a207369676e6572206973207a65726f206164647265736044820152607360f81b606482015260840161052e565b611c9e600080516020612721833981519152858584818110611c8157611c816126ca565b9050602002016020810190611c969190611fcc565b849190611aa1565b838382818110611cb057611cb06126ca565b9050602002016020810190611cc59190611fcc565b6001600160a01b03167f47d1c22a25bb3a5d4e481b9b1e6944c2eade3181a0a20b495ed61d35b5323f2460405160405180910390a2600101611bcc565b6000815180845260005b81811015611d2857602081850181015186830182015201611d0c565b506000602082860101526020601f19601f83011685010191505092915050565b6020815260006119a76020830184611d02565b634e487b7160e01b600052604160045260246000fd5b6040516080810167ffffffffffffffff81118282101715611d9457611d94611d5b565b60405290565b60405160a0810167ffffffffffffffff81118282101715611d9457611d94611d5b565b60405160c0810167ffffffffffffffff81118282101715611d9457611d94611d5b565b8015158114611dee57600080fd5b50565b6001600160a01b0381168114611dee57600080fd5b8035611e1181611df1565b919050565b600082601f830112611e2757600080fd5b813567ffffffffffffffff80821115611e4257611e42611d5b565b604051601f8301601f19908116603f01168101908282118183101715611e6a57611e6a611d5b565b81604052838152866020858801011115611e8357600080fd5b836020870160208301376000602085830101528094505050505092915050565b600060208284031215611eb557600080fd5b813567ffffffffffffffff80821115611ecd57600080fd5b9083019060808286031215611ee157600080fd5b611ee9611d71565b8235611ef481611de0565b81526020830135611f0481611df1565b6020820152604083013582811115611f1b57600080fd5b611f2787828601611e16565b604083015250606083013582811115611f3f57600080fd5b611f4b87828601611e16565b60608301525095945050505050565b60008060208385031215611f6d57600080fd5b823567ffffffffffffffff80821115611f8557600080fd5b818501915085601f830112611f9957600080fd5b813581811115611fa857600080fd5b866020828501011115611fba57600080fd5b60209290920196919550909350505050565b600060208284031215611fde57600080fd5b81356119a781611df1565b600060208284031215611ffb57600080fd5b5035919050565b6000815160c0845261201760c0850182611d02565b9050602083015184820360208601526120308282611d02565b9150506040830151848203604086015261204a8282611d02565b915050606083015160608501526080830151608085015260a083015160a08501528091505092915050565b6020815260006119a76020830184612002565b60006020828403121561209a57600080fd5b813567ffffffffffffffff808211156120b257600080fd5b9083019060a082860312156120c657600080fd5b6120ce611d9a565b82356120d981611de0565b815260208301356120e981611df1565b60208201526120fa60408401611e06565b604082015260608301358281111561211157600080fd5b61211d87828601611e16565b60608301525060808301358281111561213557600080fd5b61214187828601611e16565b60808301525095945050505050565b600060c0828403121561216257600080fd5b61216a611dbd565b9050813567ffffffffffffffff8082111561218457600080fd5b61219085838601611e16565b835260208401359150808211156121a657600080fd5b6121b285838601611e16565b602084015260408401359150808211156121cb57600080fd5b506121d884828501611e16565b604083015250606082013560608201526080820135608082015260a082013560a082015292915050565b60006020828403121561221457600080fd5b813567ffffffffffffffff8082111561222c57600080fd5b9083019060a0828603121561224057600080fd5b612248611d9a565b61225183611e06565b815261225f60208401611e06565b602082015260408301358281111561227657600080fd5b61228287828601612150565b60408301525060608301358281111561211157600080fd5b600080602083850312156122ad57600080fd5b823567ffffffffffffffff808211156122c557600080fd5b818501915085601f8301126122d957600080fd5b8135818111156122e857600080fd5b8660208260051b8501011115611fba57600080fd5b600181811c9082168061231157607f821691505b602082108103610a4057634e487b7160e01b600052602260045260246000fd5b6020808252602c908201527f426173654163636573733a2063616c6c657220646f6573206e6f74206861766560408201526b207369676e657220726f6c6560a01b606082015260800190565b6020815281511515602082015260018060a01b03602083015116604082015260006040830151608060608401526123b760a0840182611d02565b90506060840151601f198483030160808501526123d48282611d02565b95945050505050565b6000602082840312156123ef57600080fd5b81516119a781611de0565b60006001820161241a57634e487b7160e01b600052601160045260246000fd5b5060010190565b6020815281511515602082015260018060a01b0360208301511660408201526000604083015160a0606084015261245b60c0840182612002565b90506060840151601f19808584030160808601526124798383611d02565b925060808601519150808584030160a0860152506123d48282611d02565b6000602082840312156124a957600080fd5b81516119a781611df1565b6040815260006124c76040830185612002565b82810360208401526123d48185611d02565b6020808252602b908201527f426173654163636573733a2063616c6c657220646f6573206e6f74206861766560408201526a2061646d696e20726f6c6560a81b606082015260800190565b60208152816020820152818360408301376000818301604090810191909152601f909201601f19160101919050565b602081528151151560208201526000602083015160018060a01b0380821660408501528060408601511660608501525050606083015160a0608084015261259d60c0840182611d02565b90506080840151601f198483030160a08501526123d48282611d02565b601f821115611978576000816000526020600020601f850160051c810160208610156125e35750805b601f850160051c820191505b81811015612602578281556001016125ef565b505050505050565b815167ffffffffffffffff81111561262457612624611d5b565b6126388161263284546122fd565b846125ba565b602080601f83116001811461266d57600084156126555750858301515b600019600386901b1c1916600185901b178555612602565b600085815260208120601f198616915b8281101561269c5788860151825594840194600190910190840161267d565b50858210156126ba5787850151600019600388901b60f8161c191681555b5050505050600190811b01905550565b634e487b7160e01b600052603260045260246000fdfe1f07e7b49187e1cf67924ca1fa35732211c5bb2c23b6b53ee47453438de7285e56d7bc8c87dcf17af82d688c532aeaaf98988789f376198bffdb298b88a95931e2f4eaae4a9751e85a3e4a7b9587827a877f29914755229b07a7b2da98285f7056d7bc8c87dcf17af82d688c532aeaaf98988789f376198bffdb298b88a95933a49807205ce4d355092ef5a8a18f56e8913cf4a201fbe287825b095693c21775a2646970667358221220c5af4cd227778b60a12bdc3cd1831983b553b3818ee8df2acca5becbb54a770d64736f6c63430008180033",
  "linkReferences": {},
  "deployedLinkReferences": {}
}