{
  "_format": "hh-sol-artifact-1",
  "contractName": "WorldV2",
  "sourceName": "contracts/world/v0.2/WorldV2.sol",
  "abi": [
    {
      "inputs": [
        {
          "components": [
            {
              "internalType": "address",
              "name": "worldFactory",
              "type": "address"
            },
            {
              "internalType": "address",
              "name": "worldRegistry",
              "type": "address"
            },
            {
              "internalType": "address",
              "name": "companyRegistry",
              "type": "address"
            },
            {
              "internalType": "address",
              "name": "avatarRegistry",
              "type": "address"
            },
            {
              "internalType": "address",
              "name": "experienceRegistry",
              "type": "address"
            }
          ],
          "internalType": "struct WorldConstructorArgs",
          "name": "args",
          "type": "tuple"
        }
      ],
      "stateMutability": "nonpayable",
      "type": "constructor"
    },
    {
      "inputs": [],
      "name": "ReentrancyGuardReentrantCall",
      "type": "error"
    },
    {
      "anonymous": false,
      "inputs": [
        {
          "indexed": true,
          "internalType": "address",
          "name": "sender",
          "type": "address"
        },
        {
          "indexed": false,
          "internalType": "uint256",
          "name": "value",
          "type": "uint256"
        }
      ],
      "name": "ReceivedFunds",
      "type": "event"
    },
    {
      "anonymous": false,
      "inputs": [
        {
          "indexed": true,
          "internalType": "address",
          "name": "signer",
          "type": "address"
        }
      ],
      "name": "SignerAdded",
      "type": "event"
    },
    {
      "anonymous": false,
      "inputs": [
        {
          "indexed": true,
          "internalType": "address",
          "name": "signer",
          "type": "address"
        }
      ],
      "name": "SignerRemoved",
      "type": "event"
    },
    {
      "anonymous": false,
      "inputs": [
        {
          "indexed": true,
          "internalType": "address",
          "name": "experience",
          "type": "address"
        },
        {
          "indexed": true,
          "internalType": "address",
          "name": "company",
          "type": "address"
        },
        {
          "indexed": true,
          "internalType": "uint256",
          "name": "portalId",
          "type": "uint256"
        }
      ],
      "name": "WorldAddedExperience",
      "type": "event"
    },
    {
      "anonymous": false,
      "inputs": [
        {
          "indexed": true,
          "internalType": "address",
          "name": "company",
          "type": "address"
        }
      ],
      "name": "WorldDeactivatedCompany",
      "type": "event"
    },
    {
      "anonymous": false,
      "inputs": [],
      "name": "WorldHookRemoved",
      "type": "event"
    },
    {
      "anonymous": false,
      "inputs": [
        {
          "indexed": true,
          "internalType": "address",
          "name": "hook",
          "type": "address"
        }
      ],
      "name": "WorldHookSet",
      "type": "event"
    },
    {
      "anonymous": false,
      "inputs": [
        {
          "indexed": true,
          "internalType": "address",
          "name": "company",
          "type": "address"
        }
      ],
      "name": "WorldReactivatedCompany",
      "type": "event"
    },
    {
      "anonymous": false,
      "inputs": [
        {
          "indexed": true,
          "internalType": "address",
          "name": "avatar",
          "type": "address"
        },
        {
          "indexed": true,
          "internalType": "address",
          "name": "experience",
          "type": "address"
        }
      ],
      "name": "WorldRegisteredAvatar",
      "type": "event"
    },
    {
      "anonymous": false,
      "inputs": [
        {
          "indexed": true,
          "internalType": "address",
          "name": "company",
          "type": "address"
        },
        {
          "components": [
            {
              "internalType": "string",
              "name": "x",
              "type": "string"
            },
            {
              "internalType": "string",
              "name": "y",
              "type": "string"
            },
            {
              "internalType": "string",
              "name": "z",
              "type": "string"
            },
            {
              "internalType": "uint256",
              "name": "t",
              "type": "uint256"
            },
            {
              "internalType": "uint256",
              "name": "p",
              "type": "uint256"
            },
            {
              "internalType": "uint256",
              "name": "p_sub",
              "type": "uint256"
            }
          ],
          "indexed": false,
          "internalType": "struct VectorAddress",
          "name": "vector",
          "type": "tuple"
        },
        {
          "indexed": false,
          "internalType": "string",
          "name": "name",
          "type": "string"
        }
      ],
      "name": "WorldRegisteredCompany",
      "type": "event"
    },
    {
      "anonymous": false,
      "inputs": [
        {
          "indexed": true,
          "internalType": "address",
          "name": "oldWorld",
          "type": "address"
        },
        {
          "indexed": true,
          "internalType": "address",
          "name": "newWorld",
          "type": "address"
        }
      ],
      "name": "WorldUpgraded",
      "type": "event"
    },
    {
      "inputs": [
        {
          "internalType": "address[]",
          "name": "signers",
          "type": "address[]"
        }
      ],
      "name": "addSigners",
      "outputs": [],
      "stateMutability": "nonpayable",
      "type": "function"
    },
    {
      "inputs": [],
      "name": "avatarRegistry",
      "outputs": [
        {
          "internalType": "contract IAvatarRegistry",
          "name": "",
          "type": "address"
        }
      ],
      "stateMutability": "view",
      "type": "function"
    },
    {
      "inputs": [],
      "name": "companyRegistry",
      "outputs": [
        {
          "internalType": "contract ICompanyRegistry",
          "name": "",
          "type": "address"
        }
      ],
      "stateMutability": "view",
      "type": "function"
    },
    {
      "inputs": [
        {
          "internalType": "address",
          "name": "company",
          "type": "address"
        }
      ],
      "name": "deactivateCompany",
      "outputs": [],
      "stateMutability": "nonpayable",
      "type": "function"
    },
    {
      "inputs": [
        {
          "internalType": "address",
          "name": "experience",
          "type": "address"
        }
      ],
      "name": "deactivateExperience",
      "outputs": [
        {
          "internalType": "uint256",
          "name": "",
          "type": "uint256"
        }
      ],
      "stateMutability": "nonpayable",
      "type": "function"
    },
    {
      "inputs": [],
      "name": "experienceRegistry",
      "outputs": [
        {
          "internalType": "contract IExperienceRegistry",
          "name": "",
          "type": "address"
        }
      ],
      "stateMutability": "view",
      "type": "function"
    },
    {
      "inputs": [],
      "name": "getBaseVector",
      "outputs": [
        {
          "components": [
            {
              "internalType": "string",
              "name": "x",
              "type": "string"
            },
            {
              "internalType": "string",
              "name": "y",
              "type": "string"
            },
            {
              "internalType": "string",
              "name": "z",
              "type": "string"
            },
            {
              "internalType": "uint256",
              "name": "t",
              "type": "uint256"
            },
            {
              "internalType": "uint256",
              "name": "p",
              "type": "uint256"
            },
            {
              "internalType": "uint256",
              "name": "p_sub",
              "type": "uint256"
            }
          ],
          "internalType": "struct VectorAddress",
          "name": "",
          "type": "tuple"
        }
      ],
      "stateMutability": "view",
      "type": "function"
    },
    {
      "inputs": [],
      "name": "getName",
      "outputs": [
        {
          "internalType": "string",
          "name": "",
          "type": "string"
        }
      ],
      "stateMutability": "view",
      "type": "function"
    },
    {
      "inputs": [],
      "name": "getOwner",
      "outputs": [
        {
          "internalType": "address",
          "name": "",
          "type": "address"
        }
      ],
      "stateMutability": "view",
      "type": "function"
    },
    {
      "inputs": [],
      "name": "hook",
      "outputs": [
        {
          "internalType": "contract IWorldHook",
          "name": "",
          "type": "address"
        }
      ],
      "stateMutability": "view",
      "type": "function"
    },
    {
      "inputs": [
        {
          "components": [
            {
              "internalType": "address",
              "name": "owner",
              "type": "address"
            },
            {
              "internalType": "address",
              "name": "oldWorld",
              "type": "address"
            },
            {
              "components": [
                {
                  "internalType": "string",
                  "name": "x",
                  "type": "string"
                },
                {
                  "internalType": "string",
                  "name": "y",
                  "type": "string"
                },
                {
                  "internalType": "string",
                  "name": "z",
                  "type": "string"
                },
                {
                  "internalType": "uint256",
                  "name": "t",
                  "type": "uint256"
                },
                {
                  "internalType": "uint256",
                  "name": "p",
                  "type": "uint256"
                },
                {
                  "internalType": "uint256",
                  "name": "p_sub",
                  "type": "uint256"
                }
              ],
              "internalType": "struct VectorAddress",
              "name": "baseVector",
              "type": "tuple"
            },
            {
              "internalType": "string",
              "name": "name",
              "type": "string"
            },
            {
              "internalType": "bytes",
              "name": "initData",
              "type": "bytes"
            }
          ],
          "internalType": "struct WorldCreateRequest",
          "name": "request",
          "type": "tuple"
        }
      ],
      "name": "init",
      "outputs": [],
      "stateMutability": "nonpayable",
      "type": "function"
    },
    {
      "inputs": [
        {
          "internalType": "address",
          "name": "signer",
          "type": "address"
        }
      ],
      "name": "isSigner",
      "outputs": [
        {
          "internalType": "bool",
          "name": "",
          "type": "bool"
        }
      ],
      "stateMutability": "view",
      "type": "function"
    },
    {
      "inputs": [
        {
          "internalType": "address",
          "name": "company",
          "type": "address"
        }
      ],
      "name": "reactivateCompany",
      "outputs": [],
      "stateMutability": "nonpayable",
      "type": "function"
    },
    {
      "inputs": [
        {
          "components": [
            {
              "internalType": "bool",
              "name": "sendTokensToAvatarOwner",
              "type": "bool"
            },
            {
              "internalType": "address",
              "name": "avatarOwner",
              "type": "address"
            },
            {
              "internalType": "address",
              "name": "defaultExperience",
              "type": "address"
            },
            {
              "internalType": "string",
              "name": "username",
              "type": "string"
            },
            {
              "internalType": "bytes",
              "name": "initData",
              "type": "bytes"
            }
          ],
          "internalType": "struct AvatarRegistrationRequest",
          "name": "args",
          "type": "tuple"
        }
      ],
      "name": "registerAvatar",
      "outputs": [
        {
          "internalType": "address",
          "name": "avatar",
          "type": "address"
        }
      ],
      "stateMutability": "payable",
      "type": "function"
    },
    {
      "inputs": [
        {
          "components": [
            {
              "internalType": "bool",
              "name": "sendTokensToCompanyOwner",
              "type": "bool"
            },
            {
              "internalType": "address",
              "name": "owner",
              "type": "address"
            },
            {
              "internalType": "string",
              "name": "name",
              "type": "string"
            },
            {
              "internalType": "bytes",
              "name": "initData",
              "type": "bytes"
            }
          ],
          "internalType": "struct CompanyRegistrationArgs",
          "name": "args",
          "type": "tuple"
        }
      ],
      "name": "registerCompany",
      "outputs": [
        {
          "internalType": "address",
          "name": "company",
          "type": "address"
        }
      ],
      "stateMutability": "payable",
      "type": "function"
    },
    {
      "inputs": [
        {
          "components": [
            {
              "components": [
                {
                  "internalType": "string",
                  "name": "x",
                  "type": "string"
                },
                {
                  "internalType": "string",
                  "name": "y",
                  "type": "string"
                },
                {
                  "internalType": "string",
                  "name": "z",
                  "type": "string"
                },
                {
                  "internalType": "uint256",
                  "name": "t",
                  "type": "uint256"
                },
                {
                  "internalType": "uint256",
                  "name": "p",
                  "type": "uint256"
                },
                {
                  "internalType": "uint256",
                  "name": "p_sub",
                  "type": "uint256"
                }
              ],
              "internalType": "struct VectorAddress",
              "name": "vector",
              "type": "tuple"
            },
            {
              "internalType": "address",
              "name": "company",
              "type": "address"
            },
            {
              "internalType": "bytes",
              "name": "initData",
              "type": "bytes"
            },
            {
              "internalType": "string",
              "name": "name",
              "type": "string"
            }
          ],
          "internalType": "struct RegisterExperienceRequest",
          "name": "req",
          "type": "tuple"
        }
      ],
      "name": "registerExperience",
      "outputs": [
        {
          "internalType": "address",
          "name": "experience",
          "type": "address"
        },
        {
          "internalType": "uint256",
          "name": "",
          "type": "uint256"
        }
      ],
      "stateMutability": "nonpayable",
      "type": "function"
    },
    {
      "inputs": [],
      "name": "removeHook",
      "outputs": [],
      "stateMutability": "nonpayable",
      "type": "function"
    },
    {
      "inputs": [
        {
          "internalType": "address[]",
          "name": "signers",
          "type": "address[]"
        }
      ],
      "name": "removeSigners",
      "outputs": [],
      "stateMutability": "nonpayable",
      "type": "function"
    },
    {
      "inputs": [
        {
          "internalType": "contract IWorldHook",
          "name": "_hook",
          "type": "address"
        }
      ],
      "name": "setHook",
      "outputs": [],
      "stateMutability": "nonpayable",
      "type": "function"
    },
    {
      "inputs": [
        {
          "internalType": "bytes",
          "name": "initData",
          "type": "bytes"
        }
      ],
      "name": "upgrade",
      "outputs": [],
      "stateMutability": "nonpayable",
      "type": "function"
    },
    {
      "inputs": [
        {
          "internalType": "address",
          "name": "nextVersion",
          "type": "address"
        }
      ],
      "name": "upgradeComplete",
      "outputs": [],
      "stateMutability": "nonpayable",
      "type": "function"
    },
    {
      "inputs": [],
      "name": "version",
      "outputs": [
        {
          "internalType": "uint256",
          "name": "",
          "type": "uint256"
        }
      ],
      "stateMutability": "view",
      "type": "function"
    },
    {
      "inputs": [
        {
          "internalType": "uint256",
          "name": "amount",
          "type": "uint256"
        }
      ],
      "name": "withdraw",
      "outputs": [],
      "stateMutability": "nonpayable",
      "type": "function"
    },
    {
      "inputs": [],
      "name": "worldFactory",
      "outputs": [
        {
          "internalType": "address",
          "name": "",
          "type": "address"
        }
      ],
      "stateMutability": "view",
      "type": "function"
    },
    {
      "inputs": [],
      "name": "worldRegistry",
      "outputs": [
        {
          "internalType": "contract IWorldRegistryV2",
          "name": "",
          "type": "address"
        }
      ],
      "stateMutability": "view",
      "type": "function"
    },
    {
      "stateMutability": "payable",
      "type": "receive"
    }
  ],
  "bytecode": "0x6101206040523480156200001257600080fd5b5060405162003894380380620038948339810160408190526200003591620002e7565b600160005580516001600160a01b0316620000ad5760405162461bcd60e51b815260206004820152602d60248201527f576f726c64305f323a20776f726c64466163746f72792063616e6e6f7420626560448201526c207a65726f206164647265737360981b60648201526084015b60405180910390fd5b60208101516001600160a01b0316620001205760405162461bcd60e51b815260206004820152602e60248201527f576f726c64305f323a20776f726c6452656769737472792063616e6e6f74206260448201526d65207a65726f206164647265737360901b6064820152608401620000a4565b60408101516001600160a01b0316620001955760405162461bcd60e51b815260206004820152603060248201527f576f726c64305f323a20636f6d70616e7952656769737472792063616e6e6f7460448201526f206265207a65726f206164647265737360801b6064820152608401620000a4565b60608101516001600160a01b0316620002095760405162461bcd60e51b815260206004820152602f60248201527f576f726c64305f323a2061766174617252656769737472792063616e6e6f742060448201526e6265207a65726f206164647265737360881b6064820152608401620000a4565b60808101516001600160a01b03166200028b5760405162461bcd60e51b815260206004820152603360248201527f576f726c64305f323a20657870657269656e636552656769737472792063616e60448201527f6e6f74206265207a65726f2061646472657373000000000000000000000000006064820152608401620000a4565b60208101516001600160a01b0390811660809081528251821660a0526040830151821660c0526060830151821660e0529091015116610100526200038e565b80516001600160a01b0381168114620002e257600080fd5b919050565b600060a08284031215620002fa57600080fd5b60405160a081016001600160401b03811182821017156200032b57634e487b7160e01b600052604160045260246000fd5b6040526200033983620002ca565b81526200034960208401620002ca565b60208201526200035c60408401620002ca565b60408201526200036f60608401620002ca565b60608201526200038260808401620002ca565b60808201529392505050565b60805160a05160c05160e051610100516134586200043c600039600081816104380152818161182b01526123f901526000818161053301526115230152600081816104ff01528181610a6c01528181611654015281816116ad01528181611ec4015281816120b30152818161215301526121ac0152600081816101bd01528181610c6101528181610ce0015281816118ab015261192a01526000818161046c0152610bf101526134586000f3fe60806040526004361061016a5760003560e01c806361445eb7116100d15780638f09a6be1161008a578063c4d453c211610064578063c4d453c2146104ae578063c51aba2b146104ed578063e3d7ad7314610521578063e8906a2d1461055557600080fd5b80638f09a6be14610426578063911c2a8c1461045a578063a18cd5cc1461048e57600080fd5b806361445eb7146103405780637df73e27146103605780637f5a7c7b1461039057806383e005fa146103bb578063893d20e8146103db5780638d361e431461040657600080fd5b8063378f17ff11610123578063378f17ff14610293578063382af56d146102a85780633dfd3873146102ca5780634d575f3d146102ea578063530bdd9d146102fd57806354fd4d501461032b57600080fd5b80630dc3897d146101ab57806317d7de7c146101fc5780631c2fbedc1461021e57806325394645146102315780632663d1f7146102535780632e1a7d4d1461027357600080fd5b366101a65760405134815233907f5741979df5f3e491501da74d3b0a83dd2496ab1f34929865b3e190a8ad75859a9060200160405180910390a2005b600080fd5b3480156101b757600080fd5b506101df7f000000000000000000000000000000000000000000000000000000000000000081565b6040516001600160a01b0390911681526020015b60405180910390f35b34801561020857600080fd5b50610211610575565b6040516101f3919061282e565b6101df61022c366004612984565b610638565b34801561023d57600080fd5b5061025161024c366004612a3b565b610b96565b005b34801561025f57600080fd5b5061025161026e366004612aad565b610c5f565b34801561027f57600080fd5b5061025161028e366004612aca565b610dac565b34801561029f57600080fd5b50610251610e8e565b3480156102b457600080fd5b506102bd610f2c565b6040516101f39190612b56565b3480156102d657600080fd5b506102516102e5366004612aad565b61117c565b6101df6102f8366004612b69565b6112f9565b34801561030957600080fd5b5061031d610318366004612aad565b611650565b6040519081526020016101f3565b34801561033757600080fd5b5061031d600281565b34801561034c57600080fd5b5061025161035b366004612ce3565b6118a9565b34801561036c57600080fd5b5061038061037b366004612aad565b611d91565b60405190151581526020016101f3565b34801561039c57600080fd5b506000805160206133e3833981519152546001600160a01b03166101df565b3480156103c757600080fd5b506102516103d6366004612aad565b611dc2565b3480156103e757600080fd5b506000805160206133a3833981519152546001600160a01b03166101df565b34801561041257600080fd5b50610251610421366004612d7b565b611f63565b34801561043257600080fd5b506101df7f000000000000000000000000000000000000000000000000000000000000000081565b34801561046657600080fd5b506101df7f000000000000000000000000000000000000000000000000000000000000000081565b34801561049a57600080fd5b506102516104a9366004612aad565b611fb1565b3480156104ba57600080fd5b506104ce6104c9366004612dde565b61214e565b604080516001600160a01b0390931683526020830191909152016101f3565b3480156104f957600080fd5b506101df7f000000000000000000000000000000000000000000000000000000000000000081565b34801561052d57600080fd5b506101df7f000000000000000000000000000000000000000000000000000000000000000081565b34801561056157600080fd5b50610251610570366004612d7b565b6124e2565b7f56d7bc8c87dcf17af82d688c532aeaaf98988789f376198bffdb298b88a9593a80546060916000805160206133a3833981519152916105b490612e50565b80601f01602080910402602001604051908101604052809291908181526020018280546105e090612e50565b801561062d5780601f106106025761010080835404028352916020019161062d565b820191906000526020600020905b81548152906001019060200180831161061057829003601f168201915b505050505091505090565b6000600080516020613383833981519152610662816000805160206133c383398151915233612530565b6106875760405162461bcd60e51b815260040161067e90612e84565b60405180910390fd5b61068f61255d565b60208301516001600160a01b03166107005760405162461bcd60e51b815260206004820152602e60248201527f576f726c64305f323a20636f6d70616e79206f776e65722063616e6e6f74206260448201526d65207a65726f206164647265737360901b606482015260840161067e565b6000836040015151116107645760405162461bcd60e51b815260206004820152602660248201527f576f726c64305f323a20636f6d70616e79206e616d652063616e6e6f7420626560448201526520656d70747960d01b606482015260840161067e565b6000805160206133e3833981519152546000805160206133a3833981519152906001600160a01b03161561086857600281015460405163e76c26f760e01b81526001600160a01b039091169063e76c26f7906107c4908790600401612ed0565b6020604051808303816000875af11580156107e3573d6000803e3d6000fd5b505050506040513d601f19601f820116820180604052508101906108079190612f30565b6108685760405162461bcd60e51b815260206004820152602c60248201527f576f726c64305f323a20686f6f6b2072656a656374656420636f6d70616e792060448201526b3932b3b4b9ba3930ba34b7b760a11b606482015260840161067e565b80600a016000815461087990612f4d565b9190508190555060006040518060c0016040528083600301600001805461089f90612e50565b80601f01602080910402602001604051908101604052809291908181526020018280546108cb90612e50565b80156109185780601f106108ed57610100808354040283529160200191610918565b820191906000526020600020905b8154815290600101906020018083116108fb57829003601f168201915b5050505050815260200183600301600101805461093490612e50565b80601f016020809104026020016040519081016040528092919081815260200182805461096090612e50565b80156109ad5780601f10610982576101008083540402835291602001916109ad565b820191906000526020600020905b81548152906001019060200180831161099057829003601f168201915b505050505081526020018360030160020180546109c990612e50565b80601f01602080910402602001604051908101604052809291908181526020018280546109f590612e50565b8015610a425780601f10610a1757610100808354040283529160200191610a42565b820191906000526020600020905b815481529060010190602001808311610a2557829003601f168201915b505050505081526020018360030160030154815260200183600a01548152602001600081525090507f00000000000000000000000000000000000000000000000000000000000000006001600160a01b03166322feaee6346040518060a0016040528089600001511515815260200189602001516001600160a01b031681526020018581526020018960600151815260200189604001518152506040518363ffffffff1660e01b8152600401610af89190612f74565b60206040518083038185885af1158015610b16573d6000803e3d6000fd5b50505050506040513d601f19601f82011682018060405250810190610b3b9190612fea565b9350836001600160a01b03167f659ad5c7880991967f5e9a8dc3fa1421a5526e4cc501b9854e9b9882423f2870828760400151604051610b7c929190613007565b60405180910390a25050610b906001600055565b50919050565b600080516020613383833981519152610bbe8160008051602061340383398151915233612530565b610bda5760405162461bcd60e51b815260040161067e9061302c565b6040516324d733bb60e21b81526001600160a01b037f0000000000000000000000000000000000000000000000000000000000000000169063935cceec90610c289086908690600401613077565b600060405180830381600087803b158015610c4257600080fd5b505af1158015610c56573d6000803e3d6000fd5b50505050505050565b7f00000000000000000000000000000000000000000000000000000000000000006001600160a01b0316610cd55760405162461bcd60e51b815260206004820152601e60248201527f576f726c64305f323a20776f726c64466163746f7279206e6f74207365740000604482015260640161067e565b336001600160a01b037f00000000000000000000000000000000000000000000000000000000000000001614610d4d5760405162461bcd60e51b815260206004820152601f60248201527f576f726c64305f323a2063616c6c6572206973206e6f7420666163746f727900604482015260640161067e565b60008051602061338383398151915280546001600160a01b031981166001600160a01b03848116918217845560405192169182907ff1fe458d696ab302f212b76fb0e63c85d19c1bcb4c3e61d3a4470e76d136321890600090a3505050565b600080516020613383833981519152610dd48160008051602061340383398151915233612530565b610df05760405162461bcd60e51b815260040161067e9061302c565b47821115610e405760405162461bcd60e51b815260206004820181905260248201527f576f726c64305f323a20616d6f756e7420657863656564732062616c616e6365604482015260640161067e565b6000805160206133a383398151915280546040516001600160a01b03909116906108fc8515029085906000818181858888f19350505050158015610e88573d6000803e3d6000fd5b50505050565b600080516020613383833981519152610eb68160008051602061340383398151915233612530565b610ed25760405162461bcd60e51b815260040161067e9061302c565b6000805160206133e383398151915280546001600160a01b03191690556040516000805160206133a3833981519152907fd6bb5977e74678fe79d7effa6d93a6e996630cf696c32a815b00fda893b87b5a90600090a15050565b610f656040518060c001604052806060815260200160608152602001606081526020016000815260200160008152602001600081525090565b6040805160c081019091527f56d7bc8c87dcf17af82d688c532aeaaf98988789f376198bffdb298b88a9593480546000805160206133a383398151915292919082908290610fb290612e50565b80601f0160208091040260200160405190810160405280929190818152602001828054610fde90612e50565b801561102b5780601f106110005761010080835404028352916020019161102b565b820191906000526020600020905b81548152906001019060200180831161100e57829003601f168201915b5050505050815260200160018201805461104490612e50565b80601f016020809104026020016040519081016040528092919081815260200182805461107090612e50565b80156110bd5780601f10611092576101008083540402835291602001916110bd565b820191906000526020600020905b8154815290600101906020018083116110a057829003601f168201915b505050505081526020016002820180546110d690612e50565b80601f016020809104026020016040519081016040528092919081815260200182805461110290612e50565b801561114f5780601f106111245761010080835404028352916020019161114f565b820191906000526020600020905b81548152906001019060200180831161113257829003601f168201915b50505050508152602001600382015481526020016004820154815260200160058201548152505091505090565b6000805160206133838339815191526111a48160008051602061340383398151915233612530565b6111c05760405162461bcd60e51b815260040161067e9061302c565b6001600160a01b0382166112245760405162461bcd60e51b815260206004820152602560248201527f576f726c64305f323a20686f6f6b2063616e6e6f74206265207a65726f206164604482015264647265737360d81b606482015260840161067e565b6000826001600160a01b03163b1161128f5760405162461bcd60e51b815260206004820152602860248201527f576f726c64305f323a20686f6f6b2061646472657373206973206e6f7420612060448201526718dbdb9d1c9858dd60c21b606482015260840161067e565b6000805160206133e383398151915280546001600160a01b0319166001600160a01b0384169081179091556040516000805160206133a383398151915291907f2e0d4a0d6b6807573b280bc3dd0c83d52c5115e86a427cc6506e9a040f64b47790600090a2505050565b6000600080516020613383833981519152611323816000805160206133c383398151915233612530565b61133f5760405162461bcd60e51b815260040161067e90612e84565b61134761255d565b60208301516001600160a01b03166113b75760405162461bcd60e51b815260206004820152602d60248201527f576f726c64305f323a20617661746172206f776e65722063616e6e6f7420626560448201526c207a65726f206164647265737360981b606482015260840161067e565b60008360600151511161141e5760405162461bcd60e51b815260206004820152602960248201527f576f726c64305f323a2061766174617220757365726e616d652063616e6e6f7460448201526820626520656d70747960b81b606482015260840161067e565b6000805160206133e3833981519152546000805160206133a3833981519152906001600160a01b031615611521576002810154604051633e6ff77160e21b81526001600160a01b039091169063f9bfddc49061147e9087906004016130a6565b6020604051808303816000875af115801561149d573d6000803e3d6000fd5b505050506040513d601f19601f820116820180604052508101906114c19190612f30565b6115215760405162461bcd60e51b815260206004820152602b60248201527f576f726c64305f323a20686f6f6b2072656a656374656420617661746172207260448201526a32b3b4b9ba3930ba34b7b760a91b606482015260840161067e565b7f00000000000000000000000000000000000000000000000000000000000000006001600160a01b0316634d575f3d346040518060a0016040528088600001511515815260200188602001516001600160a01b0316815260200188604001516001600160a01b031681526020018860600151815260200188608001518152506040518363ffffffff1660e01b81526004016115bc91906130a6565b60206040518083038185885af11580156115da573d6000803e3d6000fd5b50505050506040513d601f19601f820116820180604052508101906115ff9190612fea565b925083604001516001600160a01b0316836001600160a01b03167f118b4b90c37ff03a6eb973868a8ec4f511f304ebfc3a5c41db35ab9904346beb60405160405180910390a350610b906001600055565b60007f00000000000000000000000000000000000000000000000000000000000000006001600160a01b03166116985760405162461bcd60e51b815260040161067e9061310d565b604051632405672560e21b81523360048201527f00000000000000000000000000000000000000000000000000000000000000006001600160a01b0316906390159c9490602401602060405180830381865afa1580156116fc573d6000803e3d6000fd5b505050506040513d601f19601f820116820180604052508101906117209190612f30565b61176c5760405162461bcd60e51b815260206004820152601f60248201527f576f726c64305f323a2063616c6c6572206973206e6f7420636f6d70616e7900604482015260640161067e565b61177461255d565b306001600160a01b0316336001600160a01b03166330b67baa6040518163ffffffff1660e01b8152600401602060405180830381865afa1580156117bc573d6000803e3d6000fd5b505050506040513d601f19601f820116820180604052508101906117e09190612fea565b6001600160a01b0316146118065760405162461bcd60e51b815260040161067e9061314e565b604051636dd70bbf60e01b81523360048201526001600160a01b0383811660248301527f00000000000000000000000000000000000000000000000000000000000000001690636dd70bbf906044016020604051808303816000875af1158015611874573d6000803e3d6000fd5b505050506040513d601f19601f8201168201806040525081019061189891906131ab565b90506118a46001600055565b919050565b7f00000000000000000000000000000000000000000000000000000000000000006001600160a01b031661191f5760405162461bcd60e51b815260206004820152601e60248201527f576f726c64305f323a20776f726c64466163746f7279206e6f74207365740000604482015260640161067e565b336001600160a01b037f000000000000000000000000000000000000000000000000000000000000000016146119975760405162461bcd60e51b815260206004820152601f60248201527f576f726c64305f323a2063616c6c6572206973206e6f7420666163746f727900604482015260640161067e565b8051600080516020613383833981519152906001600160a01b0316611a0d5760405162461bcd60e51b815260206004820152602660248201527f576f726c64305f323a206f776e65722063616e6e6f74206265207a65726f206160448201526564647265737360d01b606482015260840161067e565b60408201515151600003611a715760405162461bcd60e51b815260206004820152602560248201527f576f726c64305f323a2062617365566563746f722e782063616e6e6f74206265604482015264207a65726f60d81b606482015260840161067e565b81604001516020015151600003611ad85760405162461bcd60e51b815260206004820152602560248201527f576f726c64305f323a2062617365566563746f722e792063616e6e6f74206265604482015264207a65726f60d81b606482015260840161067e565b81604001516040015151600003611b3f5760405162461bcd60e51b815260206004820152602560248201527f576f726c64305f323a2062617365566563746f722e7a2063616e6e6f74206265604482015264207a65726f60d81b606482015260840161067e565b60408201516080015115611ba15760405162461bcd60e51b815260206004820152602360248201527f576f726c64305f323a2062617365566563746f722e70206d757374206265207a60448201526265726f60e81b606482015260840161067e565b604082015160a0015115611c075760405162461bcd60e51b815260206004820152602760248201527f576f726c64305f323a2062617365566563746f722e705f737562206d757374206044820152666265207a65726f60c81b606482015260840161067e565b600082606001515111611c5c5760405162461bcd60e51b815260206004820152601e60248201527f576f726c64305f323a206e616d652063616e6e6f7420626520656d7074790000604482015260640161067e565b81516000805160206133a383398151915280546001600160a01b0319166001600160a01b03909216919091178155604083015180517f56d7bc8c87dcf17af82d688c532aeaaf98988789f376198bffdb298b88a95934908190611cbf9082613214565b5060208201516001820190611cd49082613214565b5060408201516002820190611ce99082613214565b5060608281015160038301556080830151600483015560a0909201516005909101558301516009820190611d1d9082613214565b506000600a82015560208301516001820180546001600160a01b0319166001600160a01b039283161790558154611d669184916000805160206134038339815191529116612587565b8054611d8c9083906000805160206133c3833981519152906001600160a01b0316612587565b505050565b6000600080516020613383833981519152611dbb816000805160206133c383398151915285612530565b9392505050565b600080516020613383833981519152611dea8160008051602061340383398151915233612530565b611e065760405162461bcd60e51b815260040161067e9061302c565b611e0e61255d565b6000829050306001600160a01b0316816001600160a01b03166330b67baa6040518163ffffffff1660e01b8152600401602060405180830381865afa158015611e5b573d6000803e3d6000fd5b505050506040513d601f19601f82011682018060405250810190611e7f9190612fea565b6001600160a01b031614611ea55760405162461bcd60e51b815260040161067e9061314e565b6040516341f002fd60e11b81526001600160a01b0384811660048301527f000000000000000000000000000000000000000000000000000000000000000016906383e005fa90602401600060405180830381600087803b158015611f0857600080fd5b505af1158015611f1c573d6000803e3d6000fd5b50506040516001600160a01b03861692507fb6f91f8aac9f1a8ac7317d2353dca44fac33d0118ae749067a8107c41b6e158d9150600090a250611f5f6001600055565b5050565b600080516020613383833981519152611f8b8160008051602061340383398151915233612530565b611fa75760405162461bcd60e51b815260040161067e9061302c565b611d8c83836125ba565b600080516020613383833981519152611fd98160008051602061340383398151915233612530565b611ff55760405162461bcd60e51b815260040161067e9061302c565b611ffd61255d565b6000829050306001600160a01b0316816001600160a01b03166330b67baa6040518163ffffffff1660e01b8152600401602060405180830381865afa15801561204a573d6000803e3d6000fd5b505050506040513d601f19601f8201168201806040525081019061206e9190612fea565b6001600160a01b0316146120945760405162461bcd60e51b815260040161067e9061314e565b604051632863357360e21b81526001600160a01b0384811660048301527f0000000000000000000000000000000000000000000000000000000000000000169063a18cd5cc90602401600060405180830381600087803b1580156120f757600080fd5b505af115801561210b573d6000803e3d6000fd5b50506040516001600160a01b03861692507fb4a7f68ad1950fa37a0e8002ea6b109f2ee2b7a6539909dc27463fe5200dc71c9150600090a250611f5f6001600055565b6000807f00000000000000000000000000000000000000000000000000000000000000006001600160a01b03166121975760405162461bcd60e51b815260040161067e9061310d565b604051632405672560e21b81523360048201527f00000000000000000000000000000000000000000000000000000000000000006001600160a01b0316906390159c9490602401602060405180830381865afa1580156121fb573d6000803e3d6000fd5b505050506040513d601f19601f8201168201806040525081019061221f9190612f30565b61226b5760405162461bcd60e51b815260206004820152601f60248201527f576f726c64305f323a2063616c6c6572206973206e6f7420636f6d70616e7900604482015260640161067e565b61227361255d565b60208301516001600160a01b031633146122ea5760405162461bcd60e51b815260206004820152603260248201527f576f726c64305f323a2063616c6c657220646f6573206e6f74206d617463682060448201527118dbdb5c185b9e481a5b881c995c5d595cdd60721b606482015260840161067e565b306001600160a01b0316336001600160a01b03166330b67baa6040518163ffffffff1660e01b8152600401602060405180830381865afa158015612332573d6000803e3d6000fd5b505050506040513d601f19601f820116820180604052508101906123569190612fea565b6001600160a01b03161461237c5760405162461bcd60e51b815260040161067e9061314e565b825160a001516123f45760405162461bcd60e51b815260206004820152603c60248201527f576f726c64305f323a20705f737562206d757374206e6f74206265207a65726f60448201527f20666f7220657870657269656e636520726567697374726174696f6e00000000606482015260840161067e565b6000807f00000000000000000000000000000000000000000000000000000000000000006001600160a01b031663c4d453c2866040518263ffffffff1660e01b815260040161244391906132d4565b60408051808303816000875af1158015612461573d6000803e3d6000fd5b505050506040513d601f19601f82011682018060405250810190612485919061333e565b915091508085602001516001600160a01b0316836001600160a01b03167fb1ffa3fb5eb8fc3f04e75f6e99aa96c5f27a31a456be69fc2f303e93791c836f60405160405180910390a490925090506124dd6001600055565b915091565b60008051602061338383398151915261250a8160008051602061340383398151915233612530565b6125265760405162461bcd60e51b815260040161067e9061302c565b611d8c83836126a0565b6000918252600192909201602090815260408083206001600160a01b039094168352929052205460ff1690565b60026000540361258057604051633ee5aeb560e01b815260040160405180910390fd5b6002600055565b60009182526001928301602090815260408084206001600160a01b0390931684529190529020805460ff19169091179055565b60008051602061338383398151915260005b82811015610e885761263c6000805160206133c38339815191528585848181106125f8576125f861336c565b905060200201602081019061260d9190612aad565b600091825260018501602090815260408084206001600160a01b0390931684529190529020805460ff19169055565b83838281811061264e5761264e61336c565b90506020020160208101906126639190612aad565b6001600160a01b03167f3525e22824a8a7df2c9a6029941c824cf95b6447f1e13d5128fd3826d35afe8b60405160405180910390a26001016125cc565b60008051602061338383398151915260005b82811015610e885760008484838181106126ce576126ce61336c565b90506020020160208101906126e39190612aad565b6001600160a01b0316036127435760405162461bcd60e51b815260206004820152602160248201527f4261736550726f78793a207369676e6572206973207a65726f206164647265736044820152607360f81b606482015260840161067e565b6127846000805160206133c38339815191528585848181106127675761276761336c565b905060200201602081019061277c9190612aad565b849190612587565b8383828181106127965761279661336c565b90506020020160208101906127ab9190612aad565b6001600160a01b03167f47d1c22a25bb3a5d4e481b9b1e6944c2eade3181a0a20b495ed61d35b5323f2460405160405180910390a26001016126b2565b6000815180845260005b8181101561280e576020818501810151868301820152016127f2565b506000602082860101526020601f19601f83011685010191505092915050565b602081526000611dbb60208301846127e8565b634e487b7160e01b600052604160045260246000fd5b6040516080810167ffffffffffffffff8111828210171561287a5761287a612841565b60405290565b60405160a0810167ffffffffffffffff8111828210171561287a5761287a612841565b60405160c0810167ffffffffffffffff8111828210171561287a5761287a612841565b80151581146128d457600080fd5b50565b6001600160a01b03811681146128d457600080fd5b80356118a4816128d7565b600082601f83011261290857600080fd5b813567ffffffffffffffff8082111561292357612923612841565b604051601f8301601f19908116603f0116810190828211818310171561294b5761294b612841565b8160405283815286602085880101111561296457600080fd5b836020870160208301376000602085830101528094505050505092915050565b60006020828403121561299657600080fd5b813567ffffffffffffffff808211156129ae57600080fd5b90830190608082860312156129c257600080fd5b6129ca612857565b82356129d5816128c6565b815260208301356129e5816128d7565b60208201526040830135828111156129fc57600080fd5b612a08878286016128f7565b604083015250606083013582811115612a2057600080fd5b612a2c878286016128f7565b60608301525095945050505050565b60008060208385031215612a4e57600080fd5b823567ffffffffffffffff80821115612a6657600080fd5b818501915085601f830112612a7a57600080fd5b813581811115612a8957600080fd5b866020828501011115612a9b57600080fd5b60209290920196919550909350505050565b600060208284031215612abf57600080fd5b8135611dbb816128d7565b600060208284031215612adc57600080fd5b5035919050565b6000815160c08452612af860c08501826127e8565b905060208301518482036020860152612b1182826127e8565b91505060408301518482036040860152612b2b82826127e8565b915050606083015160608501526080830151608085015260a083015160a08501528091505092915050565b602081526000611dbb6020830184612ae3565b600060208284031215612b7b57600080fd5b813567ffffffffffffffff80821115612b9357600080fd5b9083019060a08286031215612ba757600080fd5b612baf612880565b8235612bba816128c6565b81526020830135612bca816128d7565b6020820152612bdb604084016128ec565b6040820152606083013582811115612bf257600080fd5b612bfe878286016128f7565b606083015250608083013582811115612c1657600080fd5b612c22878286016128f7565b60808301525095945050505050565b600060c08284031215612c4357600080fd5b612c4b6128a3565b9050813567ffffffffffffffff80821115612c6557600080fd5b612c71858386016128f7565b83526020840135915080821115612c8757600080fd5b612c93858386016128f7565b60208401526040840135915080821115612cac57600080fd5b50612cb9848285016128f7565b604083015250606082013560608201526080820135608082015260a082013560a082015292915050565b600060208284031215612cf557600080fd5b813567ffffffffffffffff80821115612d0d57600080fd5b9083019060a08286031215612d2157600080fd5b612d29612880565b612d32836128ec565b8152612d40602084016128ec565b6020820152604083013582811115612d5757600080fd5b612d6387828601612c31565b604083015250606083013582811115612bf257600080fd5b60008060208385031215612d8e57600080fd5b823567ffffffffffffffff80821115612da657600080fd5b818501915085601f830112612dba57600080fd5b813581811115612dc957600080fd5b8660208260051b8501011115612a9b57600080fd5b600060208284031215612df057600080fd5b813567ffffffffffffffff80821115612e0857600080fd5b9083019060808286031215612e1c57600080fd5b612e24612857565b823582811115612e3357600080fd5b612e3f87828601612c31565b82525060208301356129e5816128d7565b600181811c90821680612e6457607f821691505b602082108103610b9057634e487b7160e01b600052602260045260246000fd5b6020808252602c908201527f426173654163636573733a2063616c6c657220646f6573206e6f74206861766560408201526b207369676e657220726f6c6560a01b606082015260800190565b6020815281511515602082015260018060a01b0360208301511660408201526000604083015160806060840152612f0a60a08401826127e8565b90506060840151601f19848303016080850152612f2782826127e8565b95945050505050565b600060208284031215612f4257600080fd5b8151611dbb816128c6565b600060018201612f6d57634e487b7160e01b600052601160045260246000fd5b5060010190565b6020815281511515602082015260018060a01b0360208301511660408201526000604083015160a06060840152612fae60c0840182612ae3565b90506060840151601f1980858403016080860152612fcc83836127e8565b925060808601519150808584030160a086015250612f2782826127e8565b600060208284031215612ffc57600080fd5b8151611dbb816128d7565b60408152600061301a6040830185612ae3565b8281036020840152612f2781856127e8565b6020808252602b908201527f426173654163636573733a2063616c6c657220646f6573206e6f74206861766560408201526a2061646d696e20726f6c6560a81b606082015260800190565b60208152816020820152818360408301376000818301604090810191909152601f909201601f19160101919050565b602081528151151560208201526000602083015160018060a01b0380821660408501528060408601511660608501525050606083015160a060808401526130f060c08401826127e8565b90506080840151601f198483030160a0850152612f2782826127e8565b60208082526021908201527f576f726c64305f323a20636f6d70616e795265676973747279206e6f742073656040820152601d60fa1b606082015260800190565b6020808252603a908201527f576f726c64305f323a20636f6d70616e7920776f726c6420646f6573206e6f7460408201527f206d61746368207468697320776f726c6420636f6e7472616374000000000000606082015260800190565b6000602082840312156131bd57600080fd5b5051919050565b601f821115611d8c576000816000526020600020601f850160051c810160208610156131ed5750805b601f850160051c820191505b8181101561320c578281556001016131f9565b505050505050565b815167ffffffffffffffff81111561322e5761322e612841565b6132428161323c8454612e50565b846131c4565b602080601f831160018114613277576000841561325f5750858301515b600019600386901b1c1916600185901b17855561320c565b600085815260208120601f198616915b828110156132a657888601518255948401946001909101908401613287565b50858210156132c45787850151600019600388901b60f8161c191681555b5050505050600190811b01905550565b6020815260008251608060208401526132f060a0840182612ae3565b905060018060a01b0360208501511660408401526040840151601f198085840301606086015261332083836127e8565b9250606086015191508085840301608086015250612f2782826127e8565b6000806040838503121561335157600080fd5b825161335c816128d7565b6020939093015192949293505050565b634e487b7160e01b600052603260045260246000fdfe69198989339f34e10129e514286bde98979351148754faef989dde18bf6d14da56d7bc8c87dcf17af82d688c532aeaaf98988789f376198bffdb298b88a95931e2f4eaae4a9751e85a3e4a7b9587827a877f29914755229b07a7b2da98285f7056d7bc8c87dcf17af82d688c532aeaaf98988789f376198bffdb298b88a95933a49807205ce4d355092ef5a8a18f56e8913cf4a201fbe287825b095693c21775a264697066735822122038860d0e34f7f8e2a198c451f06f7aa85c75db10315d4c723e35603eafd7447f64736f6c63430008180033",
  "linkReferences": {},
  "deployedLinkReferences": {}
}