{
  "_format": "hh-sol-artifact-1",
  "contractName": "WorldV2",
  "sourceName": "contracts/world/v0.2/WorldV2.sol",
  "abi": [
    {
      "inputs": [
        {
          "components": [
            {
              "internalType": "address",
              "name": "worldFactory",
              "type": "address"
            },
            {
              "internalType": "address",
              "name": "worldRegistry",
              "type": "address"
            },
            {
              "internalType": "address",
              "name": "companyRegistry",
              "type": "address"
            },
            {
              "internalType": "address",
              "name": "avatarRegistry",
              "type": "address"
            },
            {
              "internalType": "address",
              "name": "experienceRegistry",
              "type": "address"
            }
          ],
          "internalType": "struct WorldConstructorArgs",
          "name": "args",
          "type": "tuple"
        }
      ],
      "stateMutability": "nonpayable",
      "type": "constructor"
    },
    {
      "inputs": [],
      "name": "ReentrancyGuardReentrantCall",
      "type": "error"
    },
    {
      "anonymous": false,
      "inputs": [
        {
          "indexed": true,
          "internalType": "address",
          "name": "avatar",
          "type": "address"
        },
        {
          "indexed": true,
          "internalType": "address",
          "name": "experience",
          "type": "address"
        }
      ],
      "name": "AvatarRegistered",
      "type": "event"
    },
    {
      "anonymous": false,
      "inputs": [
        {
          "indexed": true,
          "internalType": "address",
          "name": "company",
          "type": "address"
        },
        {
          "components": [
            {
              "internalType": "string",
              "name": "x",
              "type": "string"
            },
            {
              "internalType": "string",
              "name": "y",
              "type": "string"
            },
            {
              "internalType": "string",
              "name": "z",
              "type": "string"
            },
            {
              "internalType": "uint256",
              "name": "t",
              "type": "uint256"
            },
            {
              "internalType": "uint256",
              "name": "p",
              "type": "uint256"
            },
            {
              "internalType": "uint256",
              "name": "p_sub",
              "type": "uint256"
            }
          ],
          "indexed": false,
          "internalType": "struct VectorAddress",
          "name": "vector",
          "type": "tuple"
        },
        {
          "indexed": false,
          "internalType": "string",
          "name": "name",
          "type": "string"
        }
      ],
      "name": "CompanyRegistered",
      "type": "event"
    },
    {
      "anonymous": false,
      "inputs": [
        {
          "indexed": true,
          "internalType": "address",
          "name": "company",
          "type": "address"
        }
      ],
      "name": "CompanyRemoved",
      "type": "event"
    },
    {
      "anonymous": false,
      "inputs": [
        {
          "indexed": true,
          "internalType": "address",
          "name": "experience",
          "type": "address"
        },
        {
          "indexed": true,
          "internalType": "address",
          "name": "company",
          "type": "address"
        },
        {
          "indexed": true,
          "internalType": "uint256",
          "name": "portalId",
          "type": "uint256"
        }
      ],
      "name": "ExperienceAdded",
      "type": "event"
    },
    {
      "anonymous": false,
      "inputs": [
        {
          "indexed": true,
          "internalType": "address",
          "name": "sender",
          "type": "address"
        },
        {
          "indexed": false,
          "internalType": "uint256",
          "name": "value",
          "type": "uint256"
        }
      ],
      "name": "ReceivedFunds",
      "type": "event"
    },
    {
      "anonymous": false,
      "inputs": [
        {
          "indexed": true,
          "internalType": "address",
          "name": "signer",
          "type": "address"
        }
      ],
      "name": "SignerAdded",
      "type": "event"
    },
    {
      "anonymous": false,
      "inputs": [
        {
          "indexed": true,
          "internalType": "address",
          "name": "signer",
          "type": "address"
        }
      ],
      "name": "SignerRemoved",
      "type": "event"
    },
    {
      "anonymous": false,
      "inputs": [],
      "name": "WorldHookRemoved",
      "type": "event"
    },
    {
      "anonymous": false,
      "inputs": [
        {
          "indexed": true,
          "internalType": "address",
          "name": "hook",
          "type": "address"
        }
      ],
      "name": "WorldHookSet",
      "type": "event"
    },
    {
      "anonymous": false,
      "inputs": [
        {
          "indexed": true,
          "internalType": "address",
          "name": "oldWorld",
          "type": "address"
        },
        {
          "indexed": true,
          "internalType": "address",
          "name": "newWorld",
          "type": "address"
        }
      ],
      "name": "WorldUpgraded",
      "type": "event"
    },
    {
      "inputs": [
        {
          "internalType": "address[]",
          "name": "signers",
          "type": "address[]"
        }
      ],
      "name": "addSigners",
      "outputs": [],
      "stateMutability": "nonpayable",
      "type": "function"
    },
    {
      "inputs": [],
      "name": "avatarRegistry",
      "outputs": [
        {
          "internalType": "contract IAvatarRegistry",
          "name": "",
          "type": "address"
        }
      ],
      "stateMutability": "view",
      "type": "function"
    },
    {
      "inputs": [],
      "name": "companyRegistry",
      "outputs": [
        {
          "internalType": "contract ICompanyRegistry",
          "name": "",
          "type": "address"
        }
      ],
      "stateMutability": "view",
      "type": "function"
    },
    {
      "inputs": [
        {
          "internalType": "address",
          "name": "experience",
          "type": "address"
        }
      ],
      "name": "deactivateExperience",
      "outputs": [
        {
          "internalType": "uint256",
          "name": "",
          "type": "uint256"
        }
      ],
      "stateMutability": "nonpayable",
      "type": "function"
    },
    {
      "inputs": [],
      "name": "experienceRegistry",
      "outputs": [
        {
          "internalType": "contract IExperienceRegistry",
          "name": "",
          "type": "address"
        }
      ],
      "stateMutability": "view",
      "type": "function"
    },
    {
      "inputs": [],
      "name": "getBaseVector",
      "outputs": [
        {
          "components": [
            {
              "internalType": "string",
              "name": "x",
              "type": "string"
            },
            {
              "internalType": "string",
              "name": "y",
              "type": "string"
            },
            {
              "internalType": "string",
              "name": "z",
              "type": "string"
            },
            {
              "internalType": "uint256",
              "name": "t",
              "type": "uint256"
            },
            {
              "internalType": "uint256",
              "name": "p",
              "type": "uint256"
            },
            {
              "internalType": "uint256",
              "name": "p_sub",
              "type": "uint256"
            }
          ],
          "internalType": "struct VectorAddress",
          "name": "",
          "type": "tuple"
        }
      ],
      "stateMutability": "view",
      "type": "function"
    },
    {
      "inputs": [],
      "name": "getName",
      "outputs": [
        {
          "internalType": "string",
          "name": "",
          "type": "string"
        }
      ],
      "stateMutability": "view",
      "type": "function"
    },
    {
      "inputs": [],
      "name": "getOwner",
      "outputs": [
        {
          "internalType": "address",
          "name": "",
          "type": "address"
        }
      ],
      "stateMutability": "view",
      "type": "function"
    },
    {
      "inputs": [],
      "name": "hook",
      "outputs": [
        {
          "internalType": "contract IWorldHook",
          "name": "",
          "type": "address"
        }
      ],
      "stateMutability": "view",
      "type": "function"
    },
    {
      "inputs": [
        {
          "components": [
            {
              "internalType": "address",
              "name": "owner",
              "type": "address"
            },
            {
              "internalType": "address",
              "name": "oldWorld",
              "type": "address"
            },
            {
              "components": [
                {
                  "internalType": "string",
                  "name": "x",
                  "type": "string"
                },
                {
                  "internalType": "string",
                  "name": "y",
                  "type": "string"
                },
                {
                  "internalType": "string",
                  "name": "z",
                  "type": "string"
                },
                {
                  "internalType": "uint256",
                  "name": "t",
                  "type": "uint256"
                },
                {
                  "internalType": "uint256",
                  "name": "p",
                  "type": "uint256"
                },
                {
                  "internalType": "uint256",
                  "name": "p_sub",
                  "type": "uint256"
                }
              ],
              "internalType": "struct VectorAddress",
              "name": "baseVector",
              "type": "tuple"
            },
            {
              "internalType": "string",
              "name": "name",
              "type": "string"
            },
            {
              "internalType": "bytes",
              "name": "initData",
              "type": "bytes"
            }
          ],
          "internalType": "struct WorldCreateRequest",
          "name": "request",
          "type": "tuple"
        }
      ],
      "name": "init",
      "outputs": [],
      "stateMutability": "nonpayable",
      "type": "function"
    },
    {
      "inputs": [
        {
          "internalType": "address",
          "name": "signer",
          "type": "address"
        }
      ],
      "name": "isSigner",
      "outputs": [
        {
          "internalType": "bool",
          "name": "",
          "type": "bool"
        }
      ],
      "stateMutability": "view",
      "type": "function"
    },
    {
      "inputs": [
        {
          "components": [
            {
              "internalType": "bool",
              "name": "sendTokensToAvatarOwner",
              "type": "bool"
            },
            {
              "internalType": "address",
              "name": "avatarOwner",
              "type": "address"
            },
            {
              "internalType": "address",
              "name": "defaultExperience",
              "type": "address"
            },
            {
              "internalType": "string",
              "name": "username",
              "type": "string"
            },
            {
              "internalType": "bytes",
              "name": "initData",
              "type": "bytes"
            }
          ],
          "internalType": "struct AvatarRegistrationRequest",
          "name": "args",
          "type": "tuple"
        }
      ],
      "name": "registerAvatar",
      "outputs": [
        {
          "internalType": "address",
          "name": "avatar",
          "type": "address"
        }
      ],
      "stateMutability": "payable",
      "type": "function"
    },
    {
      "inputs": [
        {
          "components": [
            {
              "internalType": "bool",
              "name": "sendTokensToCompanyOwner",
              "type": "bool"
            },
            {
              "internalType": "address",
              "name": "owner",
              "type": "address"
            },
            {
              "internalType": "string",
              "name": "name",
              "type": "string"
            },
            {
              "internalType": "bytes",
              "name": "initData",
              "type": "bytes"
            }
          ],
          "internalType": "struct CompanyRegistrationArgs",
          "name": "args",
          "type": "tuple"
        }
      ],
      "name": "registerCompany",
      "outputs": [
        {
          "internalType": "address",
          "name": "company",
          "type": "address"
        }
      ],
      "stateMutability": "payable",
      "type": "function"
    },
    {
      "inputs": [
        {
          "components": [
            {
              "components": [
                {
                  "internalType": "string",
                  "name": "x",
                  "type": "string"
                },
                {
                  "internalType": "string",
                  "name": "y",
                  "type": "string"
                },
                {
                  "internalType": "string",
                  "name": "z",
                  "type": "string"
                },
                {
                  "internalType": "uint256",
                  "name": "t",
                  "type": "uint256"
                },
                {
                  "internalType": "uint256",
                  "name": "p",
                  "type": "uint256"
                },
                {
                  "internalType": "uint256",
                  "name": "p_sub",
                  "type": "uint256"
                }
              ],
              "internalType": "struct VectorAddress",
              "name": "vector",
              "type": "tuple"
            },
            {
              "internalType": "address",
              "name": "company",
              "type": "address"
            },
            {
              "internalType": "bytes",
              "name": "initData",
              "type": "bytes"
            },
            {
              "internalType": "string",
              "name": "name",
              "type": "string"
            }
          ],
          "internalType": "struct RegisterExperienceRequest",
          "name": "req",
          "type": "tuple"
        }
      ],
      "name": "registerExperience",
      "outputs": [
        {
          "internalType": "address",
          "name": "experience",
          "type": "address"
        },
        {
          "internalType": "uint256",
          "name": "",
          "type": "uint256"
        }
      ],
      "stateMutability": "nonpayable",
      "type": "function"
    },
    {
      "inputs": [
        {
          "internalType": "address",
          "name": "company",
          "type": "address"
        }
      ],
      "name": "removeCompany",
      "outputs": [],
      "stateMutability": "nonpayable",
      "type": "function"
    },
    {
      "inputs": [],
      "name": "removeHook",
      "outputs": [],
      "stateMutability": "nonpayable",
      "type": "function"
    },
    {
      "inputs": [
        {
          "internalType": "address[]",
          "name": "signers",
          "type": "address[]"
        }
      ],
      "name": "removeSigners",
      "outputs": [],
      "stateMutability": "nonpayable",
      "type": "function"
    },
    {
      "inputs": [
        {
          "internalType": "contract IWorldHook",
          "name": "_hook",
          "type": "address"
        }
      ],
      "name": "setHook",
      "outputs": [],
      "stateMutability": "nonpayable",
      "type": "function"
    },
    {
      "inputs": [
        {
          "internalType": "bytes",
          "name": "initData",
          "type": "bytes"
        }
      ],
      "name": "upgrade",
      "outputs": [],
      "stateMutability": "nonpayable",
      "type": "function"
    },
    {
      "inputs": [
        {
          "internalType": "address",
          "name": "nextVersion",
          "type": "address"
        }
      ],
      "name": "upgradeComplete",
      "outputs": [],
      "stateMutability": "nonpayable",
      "type": "function"
    },
    {
      "inputs": [],
      "name": "version",
      "outputs": [
        {
          "internalType": "uint256",
          "name": "",
          "type": "uint256"
        }
      ],
      "stateMutability": "view",
      "type": "function"
    },
    {
      "inputs": [
        {
          "internalType": "uint256",
          "name": "amount",
          "type": "uint256"
        }
      ],
      "name": "withdraw",
      "outputs": [],
      "stateMutability": "nonpayable",
      "type": "function"
    },
    {
      "inputs": [],
      "name": "worldFactory",
      "outputs": [
        {
          "internalType": "address",
          "name": "",
          "type": "address"
        }
      ],
      "stateMutability": "view",
      "type": "function"
    },
    {
      "inputs": [],
      "name": "worldRegistry",
      "outputs": [
        {
          "internalType": "contract IWorldRegistryV2",
          "name": "",
          "type": "address"
        }
      ],
      "stateMutability": "view",
      "type": "function"
    },
    {
      "stateMutability": "payable",
      "type": "receive"
    }
  ],
  "bytecode": "0x6101206040523480156200001257600080fd5b50604051620036b5380380620036b58339810160408190526200003591620002e7565b600160005580516001600160a01b0316620000ad5760405162461bcd60e51b815260206004820152602d60248201527f576f726c64305f323a20776f726c64466163746f72792063616e6e6f7420626560448201526c207a65726f206164647265737360981b60648201526084015b60405180910390fd5b60208101516001600160a01b0316620001205760405162461bcd60e51b815260206004820152602e60248201527f576f726c64305f323a20776f726c6452656769737472792063616e6e6f74206260448201526d65207a65726f206164647265737360901b6064820152608401620000a4565b60408101516001600160a01b0316620001955760405162461bcd60e51b815260206004820152603060248201527f576f726c64305f323a20636f6d70616e7952656769737472792063616e6e6f7460448201526f206265207a65726f206164647265737360801b6064820152608401620000a4565b60608101516001600160a01b0316620002095760405162461bcd60e51b815260206004820152602f60248201527f576f726c64305f323a2061766174617252656769737472792063616e6e6f742060448201526e6265207a65726f206164647265737360881b6064820152608401620000a4565b60808101516001600160a01b03166200028b5760405162461bcd60e51b815260206004820152603360248201527f576f726c64305f323a20657870657269656e636552656769737472792063616e60448201527f6e6f74206265207a65726f2061646472657373000000000000000000000000006064820152608401620000a4565b60208101516001600160a01b0390811660809081528251821660a0526040830151821660c0526060830151821660e0529091015116610100526200038e565b80516001600160a01b0381168114620002e257600080fd5b919050565b600060a08284031215620002fa57600080fd5b60405160a081016001600160401b03811182821017156200032b57634e487b7160e01b600052604160045260246000fd5b6040526200033983620002ca565b81526200034960208401620002ca565b60208201526200035c60408401620002ca565b60408201526200036f60608401620002ca565b60608201526200038260808401620002ca565b60808201529392505050565b60805160a05160c05160e05161010051613280620004356000396000818161041d0152818161199101526122210152600081816104f801526116890152600081816104c401528181610a3101528181610c5d015281816117ba0152818161181301528181611f7b0152611fd40152600081816101a201528181610dc701528181610e4601528181611a110152611a900152600081816104510152610d5701526132806000f3fe60806040526004361061014f5760003560e01c806354fd4d50116100b65780638f09a6be1161006f5780638f09a6be1461040b578063911c2a8c1461043f578063c4d453c214610473578063c51aba2b146104b2578063e3d7ad73146104e6578063e8906a2d1461051a57600080fd5b806354fd4d501461033057806361445eb7146103455780637df73e27146103655780637f5a7c7b14610395578063893d20e8146103c05780638d361e43146103eb57600080fd5b80632e1a7d4d116101085780632e1a7d4d14610278578063378f17ff14610298578063382af56d146102ad5780633dfd3873146102cf5780634d575f3d146102ef578063530bdd9d1461030257600080fd5b80630dc3897d1461019057806317d7de7c146101e15780631c2fbedc1461020357806320ee2dcc1461021657806325394645146102385780632663d1f71461025857600080fd5b3661018b5760405134815233907f5741979df5f3e491501da74d3b0a83dd2496ab1f34929865b3e190a8ad75859a9060200160405180910390a2005b600080fd5b34801561019c57600080fd5b506101c47f000000000000000000000000000000000000000000000000000000000000000081565b6040516001600160a01b0390911681526020015b60405180910390f35b3480156101ed57600080fd5b506101f661053a565b6040516101d89190612656565b6101c46102113660046127ac565b6105fd565b34801561022257600080fd5b50610236610231366004612863565b610b5b565b005b34801561024457600080fd5b50610236610253366004612880565b610cfc565b34801561026457600080fd5b50610236610273366004612863565b610dc5565b34801561028457600080fd5b506102366102933660046128f2565b610f12565b3480156102a457600080fd5b50610236610ff4565b3480156102b957600080fd5b506102c2611092565b6040516101d8919061297e565b3480156102db57600080fd5b506102366102ea366004612863565b6112e2565b6101c46102fd366004612991565b61145f565b34801561030e57600080fd5b5061032261031d366004612863565b6117b6565b6040519081526020016101d8565b34801561033c57600080fd5b50610322600281565b34801561035157600080fd5b50610236610360366004612b0b565b611a0f565b34801561037157600080fd5b50610385610380366004612863565b611ef7565b60405190151581526020016101d8565b3480156103a157600080fd5b5060008051602061320b833981519152546001600160a01b03166101c4565b3480156103cc57600080fd5b506000805160206131cb833981519152546001600160a01b03166101c4565b3480156103f757600080fd5b50610236610406366004612ba3565b611f28565b34801561041757600080fd5b506101c47f000000000000000000000000000000000000000000000000000000000000000081565b34801561044b57600080fd5b506101c47f000000000000000000000000000000000000000000000000000000000000000081565b34801561047f57600080fd5b5061049361048e366004612c06565b611f76565b604080516001600160a01b0390931683526020830191909152016101d8565b3480156104be57600080fd5b506101c47f000000000000000000000000000000000000000000000000000000000000000081565b3480156104f257600080fd5b506101c47f000000000000000000000000000000000000000000000000000000000000000081565b34801561052657600080fd5b50610236610535366004612ba3565b61230a565b7f56d7bc8c87dcf17af82d688c532aeaaf98988789f376198bffdb298b88a9593a80546060916000805160206131cb8339815191529161057990612c78565b80601f01602080910402602001604051908101604052809291908181526020018280546105a590612c78565b80156105f25780601f106105c7576101008083540402835291602001916105f2565b820191906000526020600020905b8154815290600101906020018083116105d557829003601f168201915b505050505091505090565b60006000805160206131ab833981519152610627816000805160206131eb83398151915233612358565b61064c5760405162461bcd60e51b815260040161064390612cac565b60405180910390fd5b610654612385565b60208301516001600160a01b03166106c55760405162461bcd60e51b815260206004820152602e60248201527f576f726c64305f323a20636f6d70616e79206f776e65722063616e6e6f74206260448201526d65207a65726f206164647265737360901b6064820152608401610643565b6000836040015151116107295760405162461bcd60e51b815260206004820152602660248201527f576f726c64305f323a20636f6d70616e79206e616d652063616e6e6f7420626560448201526520656d70747960d01b6064820152608401610643565b60008051602061320b833981519152546000805160206131cb833981519152906001600160a01b03161561082d57600281015460405163e76c26f760e01b81526001600160a01b039091169063e76c26f790610789908790600401612cf8565b6020604051808303816000875af11580156107a8573d6000803e3d6000fd5b505050506040513d601f19601f820116820180604052508101906107cc9190612d58565b61082d5760405162461bcd60e51b815260206004820152602c60248201527f576f726c64305f323a20686f6f6b2072656a656374656420636f6d70616e792060448201526b3932b3b4b9ba3930ba34b7b760a11b6064820152608401610643565b80600a016000815461083e90612d75565b9190508190555060006040518060c0016040528083600301600001805461086490612c78565b80601f016020809104026020016040519081016040528092919081815260200182805461089090612c78565b80156108dd5780601f106108b2576101008083540402835291602001916108dd565b820191906000526020600020905b8154815290600101906020018083116108c057829003601f168201915b505050505081526020018360030160010180546108f990612c78565b80601f016020809104026020016040519081016040528092919081815260200182805461092590612c78565b80156109725780601f1061094757610100808354040283529160200191610972565b820191906000526020600020905b81548152906001019060200180831161095557829003601f168201915b5050505050815260200183600301600201805461098e90612c78565b80601f01602080910402602001604051908101604052809291908181526020018280546109ba90612c78565b8015610a075780601f106109dc57610100808354040283529160200191610a07565b820191906000526020600020905b8154815290600101906020018083116109ea57829003601f168201915b505050505081526020018360030160030154815260200183600a01548152602001600081525090507f00000000000000000000000000000000000000000000000000000000000000006001600160a01b03166322feaee6346040518060a0016040528089600001511515815260200189602001516001600160a01b031681526020018581526020018960600151815260200189604001518152506040518363ffffffff1660e01b8152600401610abd9190612d9c565b60206040518083038185885af1158015610adb573d6000803e3d6000fd5b50505050506040513d601f19601f82011682018060405250810190610b009190612e12565b9350836001600160a01b03167f3ae5cc94bcf37dd89d282cbe7f9842a176a101aa41ce7af3ed66fa58a2466c62828760400151604051610b41929190612e2f565b60405180910390a25050610b556001600055565b50919050565b6000805160206131ab833981519152610b838160008051602061322b83398151915233612358565b610b9f5760405162461bcd60e51b815260040161064390612e54565b610ba7612385565b6000829050306001600160a01b0316816001600160a01b03166330b67baa6040518163ffffffff1660e01b8152600401602060405180830381865afa158015610bf4573d6000803e3d6000fd5b505050506040513d601f19601f82011682018060405250810190610c189190612e12565b6001600160a01b031614610c3e5760405162461bcd60e51b815260040161064390612e9f565b60405163083b8b7360e21b81526001600160a01b0384811660048301527f000000000000000000000000000000000000000000000000000000000000000016906320ee2dcc90602401600060405180830381600087803b158015610ca157600080fd5b505af1158015610cb5573d6000803e3d6000fd5b50506040516001600160a01b03861692507f842a0c36aded642f477dfd0dc633355e99cc660741c20a3693f73b7a2b9376089150600090a250610cf86001600055565b5050565b6000805160206131ab833981519152610d248160008051602061322b83398151915233612358565b610d405760405162461bcd60e51b815260040161064390612e54565b6040516324d733bb60e21b81526001600160a01b037f0000000000000000000000000000000000000000000000000000000000000000169063935cceec90610d8e9086908690600401612efc565b600060405180830381600087803b158015610da857600080fd5b505af1158015610dbc573d6000803e3d6000fd5b50505050505050565b7f00000000000000000000000000000000000000000000000000000000000000006001600160a01b0316610e3b5760405162461bcd60e51b815260206004820152601e60248201527f576f726c64305f323a20776f726c64466163746f7279206e6f742073657400006044820152606401610643565b336001600160a01b037f00000000000000000000000000000000000000000000000000000000000000001614610eb35760405162461bcd60e51b815260206004820152601f60248201527f576f726c64305f323a2063616c6c6572206973206e6f7420666163746f7279006044820152606401610643565b6000805160206131ab83398151915280546001600160a01b031981166001600160a01b03848116918217845560405192169182907ff1fe458d696ab302f212b76fb0e63c85d19c1bcb4c3e61d3a4470e76d136321890600090a3505050565b6000805160206131ab833981519152610f3a8160008051602061322b83398151915233612358565b610f565760405162461bcd60e51b815260040161064390612e54565b47821115610fa65760405162461bcd60e51b815260206004820181905260248201527f576f726c64305f323a20616d6f756e7420657863656564732062616c616e63656044820152606401610643565b6000805160206131cb83398151915280546040516001600160a01b03909116906108fc8515029085906000818181858888f19350505050158015610fee573d6000803e3d6000fd5b50505050565b6000805160206131ab83398151915261101c8160008051602061322b83398151915233612358565b6110385760405162461bcd60e51b815260040161064390612e54565b60008051602061320b83398151915280546001600160a01b03191690556040516000805160206131cb833981519152907fd6bb5977e74678fe79d7effa6d93a6e996630cf696c32a815b00fda893b87b5a90600090a15050565b6110cb6040518060c001604052806060815260200160608152602001606081526020016000815260200160008152602001600081525090565b6040805160c081019091527f56d7bc8c87dcf17af82d688c532aeaaf98988789f376198bffdb298b88a9593480546000805160206131cb8339815191529291908290829061111890612c78565b80601f016020809104026020016040519081016040528092919081815260200182805461114490612c78565b80156111915780601f1061116657610100808354040283529160200191611191565b820191906000526020600020905b81548152906001019060200180831161117457829003601f168201915b505050505081526020016001820180546111aa90612c78565b80601f01602080910402602001604051908101604052809291908181526020018280546111d690612c78565b80156112235780601f106111f857610100808354040283529160200191611223565b820191906000526020600020905b81548152906001019060200180831161120657829003601f168201915b5050505050815260200160028201805461123c90612c78565b80601f016020809104026020016040519081016040528092919081815260200182805461126890612c78565b80156112b55780601f1061128a576101008083540402835291602001916112b5565b820191906000526020600020905b81548152906001019060200180831161129857829003601f168201915b50505050508152602001600382015481526020016004820154815260200160058201548152505091505090565b6000805160206131ab83398151915261130a8160008051602061322b83398151915233612358565b6113265760405162461bcd60e51b815260040161064390612e54565b6001600160a01b03821661138a5760405162461bcd60e51b815260206004820152602560248201527f576f726c64305f323a20686f6f6b2063616e6e6f74206265207a65726f206164604482015264647265737360d81b6064820152608401610643565b6000826001600160a01b03163b116113f55760405162461bcd60e51b815260206004820152602860248201527f576f726c64305f323a20686f6f6b2061646472657373206973206e6f7420612060448201526718dbdb9d1c9858dd60c21b6064820152608401610643565b60008051602061320b83398151915280546001600160a01b0319166001600160a01b0384169081179091556040516000805160206131cb83398151915291907f2e0d4a0d6b6807573b280bc3dd0c83d52c5115e86a427cc6506e9a040f64b47790600090a2505050565b60006000805160206131ab833981519152611489816000805160206131eb83398151915233612358565b6114a55760405162461bcd60e51b815260040161064390612cac565b6114ad612385565b60208301516001600160a01b031661151d5760405162461bcd60e51b815260206004820152602d60248201527f576f726c64305f323a20617661746172206f776e65722063616e6e6f7420626560448201526c207a65726f206164647265737360981b6064820152608401610643565b6000836060015151116115845760405162461bcd60e51b815260206004820152602960248201527f576f726c64305f323a2061766174617220757365726e616d652063616e6e6f7460448201526820626520656d70747960b81b6064820152608401610643565b60008051602061320b833981519152546000805160206131cb833981519152906001600160a01b031615611687576002810154604051633e6ff77160e21b81526001600160a01b039091169063f9bfddc4906115e4908790600401612f2b565b6020604051808303816000875af1158015611603573d6000803e3d6000fd5b505050506040513d601f19601f820116820180604052508101906116279190612d58565b6116875760405162461bcd60e51b815260206004820152602b60248201527f576f726c64305f323a20686f6f6b2072656a656374656420617661746172207260448201526a32b3b4b9ba3930ba34b7b760a91b6064820152608401610643565b7f00000000000000000000000000000000000000000000000000000000000000006001600160a01b0316634d575f3d346040518060a0016040528088600001511515815260200188602001516001600160a01b0316815260200188604001516001600160a01b031681526020018860600151815260200188608001518152506040518363ffffffff1660e01b81526004016117229190612f2b565b60206040518083038185885af1158015611740573d6000803e3d6000fd5b50505050506040513d601f19601f820116820180604052508101906117659190612e12565b925083604001516001600160a01b0316836001600160a01b03167f0ada65c939d4c317368a1a88ef5f00697bfe4e748e24d6722c1a0d04c26a4b8660405160405180910390a350610b556001600055565b60007f00000000000000000000000000000000000000000000000000000000000000006001600160a01b03166117fe5760405162461bcd60e51b815260040161064390612f92565b604051632405672560e21b81523360048201527f00000000000000000000000000000000000000000000000000000000000000006001600160a01b0316906390159c9490602401602060405180830381865afa158015611862573d6000803e3d6000fd5b505050506040513d601f19601f820116820180604052508101906118869190612d58565b6118d25760405162461bcd60e51b815260206004820152601f60248201527f576f726c64305f323a2063616c6c6572206973206e6f7420636f6d70616e79006044820152606401610643565b6118da612385565b306001600160a01b0316336001600160a01b03166330b67baa6040518163ffffffff1660e01b8152600401602060405180830381865afa158015611922573d6000803e3d6000fd5b505050506040513d601f19601f820116820180604052508101906119469190612e12565b6001600160a01b03161461196c5760405162461bcd60e51b815260040161064390612e9f565b604051636dd70bbf60e01b81523360048201526001600160a01b0383811660248301527f00000000000000000000000000000000000000000000000000000000000000001690636dd70bbf906044016020604051808303816000875af11580156119da573d6000803e3d6000fd5b505050506040513d601f19601f820116820180604052508101906119fe9190612fd3565b9050611a0a6001600055565b919050565b7f00000000000000000000000000000000000000000000000000000000000000006001600160a01b0316611a855760405162461bcd60e51b815260206004820152601e60248201527f576f726c64305f323a20776f726c64466163746f7279206e6f742073657400006044820152606401610643565b336001600160a01b037f00000000000000000000000000000000000000000000000000000000000000001614611afd5760405162461bcd60e51b815260206004820152601f60248201527f576f726c64305f323a2063616c6c6572206973206e6f7420666163746f7279006044820152606401610643565b80516000805160206131ab833981519152906001600160a01b0316611b735760405162461bcd60e51b815260206004820152602660248201527f576f726c64305f323a206f776e65722063616e6e6f74206265207a65726f206160448201526564647265737360d01b6064820152608401610643565b60408201515151600003611bd75760405162461bcd60e51b815260206004820152602560248201527f576f726c64305f323a2062617365566563746f722e782063616e6e6f74206265604482015264207a65726f60d81b6064820152608401610643565b81604001516020015151600003611c3e5760405162461bcd60e51b815260206004820152602560248201527f576f726c64305f323a2062617365566563746f722e792063616e6e6f74206265604482015264207a65726f60d81b6064820152608401610643565b81604001516040015151600003611ca55760405162461bcd60e51b815260206004820152602560248201527f576f726c64305f323a2062617365566563746f722e7a2063616e6e6f74206265604482015264207a65726f60d81b6064820152608401610643565b60408201516080015115611d075760405162461bcd60e51b815260206004820152602360248201527f576f726c64305f323a2062617365566563746f722e70206d757374206265207a60448201526265726f60e81b6064820152608401610643565b604082015160a0015115611d6d5760405162461bcd60e51b815260206004820152602760248201527f576f726c64305f323a2062617365566563746f722e705f737562206d757374206044820152666265207a65726f60c81b6064820152608401610643565b600082606001515111611dc25760405162461bcd60e51b815260206004820152601e60248201527f576f726c64305f323a206e616d652063616e6e6f7420626520656d70747900006044820152606401610643565b81516000805160206131cb83398151915280546001600160a01b0319166001600160a01b03909216919091178155604083015180517f56d7bc8c87dcf17af82d688c532aeaaf98988789f376198bffdb298b88a95934908190611e25908261303c565b5060208201516001820190611e3a908261303c565b5060408201516002820190611e4f908261303c565b5060608281015160038301556080830151600483015560a0909201516005909101558301516009820190611e83908261303c565b506000600a82015560208301516001820180546001600160a01b0319166001600160a01b039283161790558154611ecc91849160008051602061322b83398151915291166123af565b8054611ef29083906000805160206131eb833981519152906001600160a01b03166123af565b505050565b60006000805160206131ab833981519152611f21816000805160206131eb83398151915285612358565b9392505050565b6000805160206131ab833981519152611f508160008051602061322b83398151915233612358565b611f6c5760405162461bcd60e51b815260040161064390612e54565b611ef283836123e2565b6000807f00000000000000000000000000000000000000000000000000000000000000006001600160a01b0316611fbf5760405162461bcd60e51b815260040161064390612f92565b604051632405672560e21b81523360048201527f00000000000000000000000000000000000000000000000000000000000000006001600160a01b0316906390159c9490602401602060405180830381865afa158015612023573d6000803e3d6000fd5b505050506040513d601f19601f820116820180604052508101906120479190612d58565b6120935760405162461bcd60e51b815260206004820152601f60248201527f576f726c64305f323a2063616c6c6572206973206e6f7420636f6d70616e79006044820152606401610643565b61209b612385565b60208301516001600160a01b031633146121125760405162461bcd60e51b815260206004820152603260248201527f576f726c64305f323a2063616c6c657220646f6573206e6f74206d617463682060448201527118dbdb5c185b9e481a5b881c995c5d595cdd60721b6064820152608401610643565b306001600160a01b0316336001600160a01b03166330b67baa6040518163ffffffff1660e01b8152600401602060405180830381865afa15801561215a573d6000803e3d6000fd5b505050506040513d601f19601f8201168201806040525081019061217e9190612e12565b6001600160a01b0316146121a45760405162461bcd60e51b815260040161064390612e9f565b825160a0015161221c5760405162461bcd60e51b815260206004820152603c60248201527f576f726c64305f323a20705f737562206d757374206e6f74206265207a65726f60448201527f20666f7220657870657269656e636520726567697374726174696f6e000000006064820152608401610643565b6000807f00000000000000000000000000000000000000000000000000000000000000006001600160a01b031663c4d453c2866040518263ffffffff1660e01b815260040161226b91906130fc565b60408051808303816000875af1158015612289573d6000803e3d6000fd5b505050506040513d601f19601f820116820180604052508101906122ad9190613166565b915091508085602001516001600160a01b0316836001600160a01b03167fd36a956b6e1f0d2a2dee9fcb3f9bce3408008f7578e584518791b100bbb729dc60405160405180910390a490925090506123056001600055565b915091565b6000805160206131ab8339815191526123328160008051602061322b83398151915233612358565b61234e5760405162461bcd60e51b815260040161064390612e54565b611ef283836124c8565b6000918252600192909201602090815260408083206001600160a01b039094168352929052205460ff1690565b6002600054036123a857604051633ee5aeb560e01b815260040160405180910390fd5b6002600055565b60009182526001928301602090815260408084206001600160a01b0390931684529190529020805460ff19169091179055565b6000805160206131ab83398151915260005b82811015610fee576124646000805160206131eb83398151915285858481811061242057612420613194565b90506020020160208101906124359190612863565b600091825260018501602090815260408084206001600160a01b0390931684529190529020805460ff19169055565b83838281811061247657612476613194565b905060200201602081019061248b9190612863565b6001600160a01b03167f3525e22824a8a7df2c9a6029941c824cf95b6447f1e13d5128fd3826d35afe8b60405160405180910390a26001016123f4565b6000805160206131ab83398151915260005b82811015610fee5760008484838181106124f6576124f6613194565b905060200201602081019061250b9190612863565b6001600160a01b03160361256b5760405162461bcd60e51b815260206004820152602160248201527f4261736550726f78793a207369676e6572206973207a65726f206164647265736044820152607360f81b6064820152608401610643565b6125ac6000805160206131eb83398151915285858481811061258f5761258f613194565b90506020020160208101906125a49190612863565b8491906123af565b8383828181106125be576125be613194565b90506020020160208101906125d39190612863565b6001600160a01b03167f47d1c22a25bb3a5d4e481b9b1e6944c2eade3181a0a20b495ed61d35b5323f2460405160405180910390a26001016124da565b6000815180845260005b818110156126365760208185018101518683018201520161261a565b506000602082860101526020601f19601f83011685010191505092915050565b602081526000611f216020830184612610565b634e487b7160e01b600052604160045260246000fd5b6040516080810167ffffffffffffffff811182821017156126a2576126a2612669565b60405290565b60405160a0810167ffffffffffffffff811182821017156126a2576126a2612669565b60405160c0810167ffffffffffffffff811182821017156126a2576126a2612669565b80151581146126fc57600080fd5b50565b6001600160a01b03811681146126fc57600080fd5b8035611a0a816126ff565b600082601f83011261273057600080fd5b813567ffffffffffffffff8082111561274b5761274b612669565b604051601f8301601f19908116603f0116810190828211818310171561277357612773612669565b8160405283815286602085880101111561278c57600080fd5b836020870160208301376000602085830101528094505050505092915050565b6000602082840312156127be57600080fd5b813567ffffffffffffffff808211156127d657600080fd5b90830190608082860312156127ea57600080fd5b6127f261267f565b82356127fd816126ee565b8152602083013561280d816126ff565b602082015260408301358281111561282457600080fd5b6128308782860161271f565b60408301525060608301358281111561284857600080fd5b6128548782860161271f565b60608301525095945050505050565b60006020828403121561287557600080fd5b8135611f21816126ff565b6000806020838503121561289357600080fd5b823567ffffffffffffffff808211156128ab57600080fd5b818501915085601f8301126128bf57600080fd5b8135818111156128ce57600080fd5b8660208285010111156128e057600080fd5b60209290920196919550909350505050565b60006020828403121561290457600080fd5b5035919050565b6000815160c0845261292060c0850182612610565b9050602083015184820360208601526129398282612610565b915050604083015184820360408601526129538282612610565b915050606083015160608501526080830151608085015260a083015160a08501528091505092915050565b602081526000611f21602083018461290b565b6000602082840312156129a357600080fd5b813567ffffffffffffffff808211156129bb57600080fd5b9083019060a082860312156129cf57600080fd5b6129d76126a8565b82356129e2816126ee565b815260208301356129f2816126ff565b6020820152612a0360408401612714565b6040820152606083013582811115612a1a57600080fd5b612a268782860161271f565b606083015250608083013582811115612a3e57600080fd5b612a4a8782860161271f565b60808301525095945050505050565b600060c08284031215612a6b57600080fd5b612a736126cb565b9050813567ffffffffffffffff80821115612a8d57600080fd5b612a998583860161271f565b83526020840135915080821115612aaf57600080fd5b612abb8583860161271f565b60208401526040840135915080821115612ad457600080fd5b50612ae18482850161271f565b604083015250606082013560608201526080820135608082015260a082013560a082015292915050565b600060208284031215612b1d57600080fd5b813567ffffffffffffffff80821115612b3557600080fd5b9083019060a08286031215612b4957600080fd5b612b516126a8565b612b5a83612714565b8152612b6860208401612714565b6020820152604083013582811115612b7f57600080fd5b612b8b87828601612a59565b604083015250606083013582811115612a1a57600080fd5b60008060208385031215612bb657600080fd5b823567ffffffffffffffff80821115612bce57600080fd5b818501915085601f830112612be257600080fd5b813581811115612bf157600080fd5b8660208260051b85010111156128e057600080fd5b600060208284031215612c1857600080fd5b813567ffffffffffffffff80821115612c3057600080fd5b9083019060808286031215612c4457600080fd5b612c4c61267f565b823582811115612c5b57600080fd5b612c6787828601612a59565b825250602083013561280d816126ff565b600181811c90821680612c8c57607f821691505b602082108103610b5557634e487b7160e01b600052602260045260246000fd5b6020808252602c908201527f426173654163636573733a2063616c6c657220646f6573206e6f74206861766560408201526b207369676e657220726f6c6560a01b606082015260800190565b6020815281511515602082015260018060a01b0360208301511660408201526000604083015160806060840152612d3260a0840182612610565b90506060840151601f19848303016080850152612d4f8282612610565b95945050505050565b600060208284031215612d6a57600080fd5b8151611f21816126ee565b600060018201612d9557634e487b7160e01b600052601160045260246000fd5b5060010190565b6020815281511515602082015260018060a01b0360208301511660408201526000604083015160a06060840152612dd660c084018261290b565b90506060840151601f1980858403016080860152612df48383612610565b925060808601519150808584030160a086015250612d4f8282612610565b600060208284031215612e2457600080fd5b8151611f21816126ff565b604081526000612e42604083018561290b565b8281036020840152612d4f8185612610565b6020808252602b908201527f426173654163636573733a2063616c6c657220646f6573206e6f74206861766560408201526a2061646d696e20726f6c6560a81b606082015260800190565b6020808252603a908201527f576f726c64305f323a20636f6d70616e7920776f726c6420646f6573206e6f7460408201527f206d61746368207468697320776f726c6420636f6e7472616374000000000000606082015260800190565b60208152816020820152818360408301376000818301604090810191909152601f909201601f19160101919050565b602081528151151560208201526000602083015160018060a01b0380821660408501528060408601511660608501525050606083015160a06080840152612f7560c0840182612610565b90506080840151601f198483030160a0850152612d4f8282612610565b60208082526021908201527f576f726c64305f323a20636f6d70616e795265676973747279206e6f742073656040820152601d60fa1b606082015260800190565b600060208284031215612fe557600080fd5b5051919050565b601f821115611ef2576000816000526020600020601f850160051c810160208610156130155750805b601f850160051c820191505b8181101561303457828155600101613021565b505050505050565b815167ffffffffffffffff81111561305657613056612669565b61306a816130648454612c78565b84612fec565b602080601f83116001811461309f57600084156130875750858301515b600019600386901b1c1916600185901b178555613034565b600085815260208120601f198616915b828110156130ce578886015182559484019460019091019084016130af565b50858210156130ec5787850151600019600388901b60f8161c191681555b5050505050600190811b01905550565b60208152600082516080602084015261311860a084018261290b565b905060018060a01b0360208501511660408401526040840151601f19808584030160608601526131488383612610565b9250606086015191508085840301608086015250612d4f8282612610565b6000806040838503121561317957600080fd5b8251613184816126ff565b6020939093015192949293505050565b634e487b7160e01b600052603260045260246000fdfe69198989339f34e10129e514286bde98979351148754faef989dde18bf6d14da56d7bc8c87dcf17af82d688c532aeaaf98988789f376198bffdb298b88a95931e2f4eaae4a9751e85a3e4a7b9587827a877f29914755229b07a7b2da98285f7056d7bc8c87dcf17af82d688c532aeaaf98988789f376198bffdb298b88a95933a49807205ce4d355092ef5a8a18f56e8913cf4a201fbe287825b095693c21775a2646970667358221220457641e25b469d0d43bf8ff8eaef711506581174a41eedf5dee5786942a10dfd64736f6c63430008180033",
  "linkReferences": {},
  "deployedLinkReferences": {}
}