{
  "_format": "hh-sol-artifact-1",
  "contractName": "LibAssetV1Storage",
  "sourceName": "contracts/libraries/LibAssetV1Storage.sol",
  "abi": [
    {
      "inputs": [],
      "name": "ERC20_STORAGE_SLOT",
      "outputs": [
        {
          "internalType": "bytes32",
          "name": "",
          "type": "bytes32"
        }
      ],
      "stateMutability": "view",
      "type": "function"
    },
    {
      "inputs": [],
      "name": "ERC712_STORAGE_SLOT",
      "outputs": [
        {
          "internalType": "bytes32",
          "name": "",
          "type": "bytes32"
        }
      ],
      "stateMutability": "view",
      "type": "function"
    }
  ],
  "bytecode": "0x60d6610039600b82828239805160001a60731461002c57634e487b7160e01b600052600060045260246000fd5b30600052607381538281f3fe7300000000000000000000000000000000000000003014608060405260043610603d5760003560e01c8063310caa69146042578063cd49bb7d14607a575b600080fd5b60687f2db204426804e067e91705d2dda6628a736fec9e9182470f68b797f52d49ef9f81565b60405190815260200160405180910390f35b60687fdaa68ed5a13c867185fe05c85f795df599e06c61888bec0f56aca55dd90ee3f88156fea2646970667358221220ac7a1ac4cecb3652928c05cc9c25529792c7cf43062975d3f3cf795070d0c12664736f6c63430008180033",
  "linkReferences": {},
  "deployedLinkReferences": {}
}