{
  "_format": "hh-sol-artifact-1",
  "contractName": "LibAssetV1Storage",
  "sourceName": "contracts/libraries/LibAssetV1Storage.sol",
  "abi": [
    {
      "inputs": [],
      "name": "ERC20_STORAGE_SLOT",
      "outputs": [
        {
          "internalType": "bytes32",
          "name": "",
          "type": "bytes32"
        }
      ],
      "stateMutability": "view",
      "type": "function"
    },
    {
      "inputs": [],
      "name": "ERC712_STORAGE_SLOT",
      "outputs": [
        {
          "internalType": "bytes32",
          "name": "",
          "type": "bytes32"
        }
      ],
      "stateMutability": "view",
      "type": "function"
    }
  ],
  "bytecode": "0x60d6610039600b82828239805160001a60731461002c57634e487b7160e01b600052600060045260246000fd5b30600052607381538281f3fe7300000000000000000000000000000000000000003014608060405260043610603d5760003560e01c8063310caa69146042578063cd49bb7d14607a575b600080fd5b60687fe4601683e66aea7671ff73b360b1d51806ae4f53b8823a6b0aac4436f7c181e781565b60405190815260200160405180910390f35b60687f176cbabf2c0dbfb763886e1a47867828030f47836ae8a29efa61d706d1eb86048156fea2646970667358221220ee8eeb77b7f8c4ee720351f4784daa9fbf701d6d6b7857551193143804519b5b64736f6c63430008180033",
  "linkReferences": {},
  "deployedLinkReferences": {}
}