{
  "_format": "hh-sol-artifact-1",
  "contractName": "NTERC721Asset",
  "sourceName": "contracts/asset/erc721/NTERC721Asset.sol",
  "abi": [
    {
      "inputs": [
        {
          "components": [
            {
              "internalType": "address",
              "name": "assetFactory",
              "type": "address"
            },
            {
              "internalType": "address",
              "name": "assetRegistry",
              "type": "address"
            },
            {
              "internalType": "address",
              "name": "avatarRegistry",
              "type": "address"
            },
            {
              "internalType": "address",
              "name": "companyRegistry",
              "type": "address"
            }
          ],
          "internalType": "struct BaseAssetArgs",
          "name": "args",
          "type": "tuple"
        }
      ],
      "stateMutability": "nonpayable",
      "type": "constructor"
    },
    {
      "inputs": [
        {
          "internalType": "address",
          "name": "sender",
          "type": "address"
        },
        {
          "internalType": "uint256",
          "name": "tokenId",
          "type": "uint256"
        },
        {
          "internalType": "address",
          "name": "owner",
          "type": "address"
        }
      ],
      "name": "ERC721IncorrectOwner",
      "type": "error"
    },
    {
      "inputs": [
        {
          "internalType": "address",
          "name": "operator",
          "type": "address"
        },
        {
          "internalType": "uint256",
          "name": "tokenId",
          "type": "uint256"
        }
      ],
      "name": "ERC721InsufficientApproval",
      "type": "error"
    },
    {
      "inputs": [
        {
          "internalType": "address",
          "name": "approver",
          "type": "address"
        }
      ],
      "name": "ERC721InvalidApprover",
      "type": "error"
    },
    {
      "inputs": [
        {
          "internalType": "address",
          "name": "operator",
          "type": "address"
        }
      ],
      "name": "ERC721InvalidOperator",
      "type": "error"
    },
    {
      "inputs": [
        {
          "internalType": "address",
          "name": "owner",
          "type": "address"
        }
      ],
      "name": "ERC721InvalidOwner",
      "type": "error"
    },
    {
      "inputs": [
        {
          "internalType": "address",
          "name": "receiver",
          "type": "address"
        }
      ],
      "name": "ERC721InvalidReceiver",
      "type": "error"
    },
    {
      "inputs": [
        {
          "internalType": "address",
          "name": "sender",
          "type": "address"
        }
      ],
      "name": "ERC721InvalidSender",
      "type": "error"
    },
    {
      "inputs": [
        {
          "internalType": "uint256",
          "name": "tokenId",
          "type": "uint256"
        }
      ],
      "name": "ERC721NonexistentToken",
      "type": "error"
    },
    {
      "inputs": [],
      "name": "ReentrancyGuardReentrantCall",
      "type": "error"
    },
    {
      "anonymous": false,
      "inputs": [
        {
          "indexed": true,
          "internalType": "address",
          "name": "owner",
          "type": "address"
        },
        {
          "indexed": true,
          "internalType": "address",
          "name": "approved",
          "type": "address"
        },
        {
          "indexed": true,
          "internalType": "uint256",
          "name": "tokenId",
          "type": "uint256"
        }
      ],
      "name": "Approval",
      "type": "event"
    },
    {
      "anonymous": false,
      "inputs": [
        {
          "indexed": true,
          "internalType": "address",
          "name": "owner",
          "type": "address"
        },
        {
          "indexed": true,
          "internalType": "address",
          "name": "operator",
          "type": "address"
        },
        {
          "indexed": false,
          "internalType": "bool",
          "name": "approved",
          "type": "bool"
        }
      ],
      "name": "ApprovalForAll",
      "type": "event"
    },
    {
      "anonymous": false,
      "inputs": [
        {
          "indexed": true,
          "internalType": "address",
          "name": "condition",
          "type": "address"
        }
      ],
      "name": "AssetConditionAdded",
      "type": "event"
    },
    {
      "anonymous": false,
      "inputs": [
        {
          "indexed": true,
          "internalType": "address",
          "name": "condition",
          "type": "address"
        }
      ],
      "name": "AssetConditionRemoved",
      "type": "event"
    },
    {
      "anonymous": false,
      "inputs": [
        {
          "indexed": true,
          "internalType": "address",
          "name": "hook",
          "type": "address"
        }
      ],
      "name": "AssetHookAdded",
      "type": "event"
    },
    {
      "anonymous": false,
      "inputs": [
        {
          "indexed": true,
          "internalType": "address",
          "name": "hook",
          "type": "address"
        }
      ],
      "name": "AssetHookRemoved",
      "type": "event"
    },
    {
      "anonymous": false,
      "inputs": [
        {
          "indexed": true,
          "internalType": "address",
          "name": "to",
          "type": "address"
        },
        {
          "indexed": false,
          "internalType": "uint256",
          "name": "tokenId",
          "type": "uint256"
        }
      ],
      "name": "ERC721Minted",
      "type": "event"
    },
    {
      "anonymous": false,
      "inputs": [
        {
          "indexed": true,
          "internalType": "address",
          "name": "oldAsset",
          "type": "address"
        },
        {
          "indexed": true,
          "internalType": "address",
          "name": "newAsset",
          "type": "address"
        }
      ],
      "name": "ERC721Upgraded",
      "type": "event"
    },
    {
      "anonymous": false,
      "inputs": [
        {
          "indexed": true,
          "internalType": "address",
          "name": "from",
          "type": "address"
        },
        {
          "indexed": true,
          "internalType": "address",
          "name": "to",
          "type": "address"
        },
        {
          "indexed": true,
          "internalType": "uint256",
          "name": "tokenId",
          "type": "uint256"
        }
      ],
      "name": "Transfer",
      "type": "event"
    },
    {
      "inputs": [
        {
          "internalType": "contract IAssetCondition",
          "name": "condition",
          "type": "address"
        }
      ],
      "name": "addCondition",
      "outputs": [],
      "stateMutability": "nonpayable",
      "type": "function"
    },
    {
      "inputs": [
        {
          "internalType": "contract IAssetHook",
          "name": "_hook",
          "type": "address"
        }
      ],
      "name": "addHook",
      "outputs": [],
      "stateMutability": "nonpayable",
      "type": "function"
    },
    {
      "inputs": [
        {
          "internalType": "address",
          "name": "",
          "type": "address"
        },
        {
          "internalType": "uint256",
          "name": "",
          "type": "uint256"
        }
      ],
      "name": "approve",
      "outputs": [],
      "stateMutability": "nonpayable",
      "type": "function"
    },
    {
      "inputs": [],
      "name": "assetFactory",
      "outputs": [
        {
          "internalType": "address",
          "name": "",
          "type": "address"
        }
      ],
      "stateMutability": "view",
      "type": "function"
    },
    {
      "inputs": [],
      "name": "assetRegistry",
      "outputs": [
        {
          "internalType": "address",
          "name": "",
          "type": "address"
        }
      ],
      "stateMutability": "view",
      "type": "function"
    },
    {
      "inputs": [],
      "name": "avatarRegistry",
      "outputs": [
        {
          "internalType": "contract IAvatarRegistry",
          "name": "",
          "type": "address"
        }
      ],
      "stateMutability": "view",
      "type": "function"
    },
    {
      "inputs": [
        {
          "internalType": "address",
          "name": "owner",
          "type": "address"
        }
      ],
      "name": "balanceOf",
      "outputs": [
        {
          "internalType": "uint256",
          "name": "",
          "type": "uint256"
        }
      ],
      "stateMutability": "view",
      "type": "function"
    },
    {
      "inputs": [
        {
          "internalType": "address",
          "name": "to",
          "type": "address"
        },
        {
          "internalType": "bytes",
          "name": "",
          "type": "bytes"
        }
      ],
      "name": "canMint",
      "outputs": [
        {
          "internalType": "bool",
          "name": "",
          "type": "bool"
        }
      ],
      "stateMutability": "pure",
      "type": "function"
    },
    {
      "inputs": [
        {
          "components": [
            {
              "internalType": "address",
              "name": "asset",
              "type": "address"
            },
            {
              "internalType": "address",
              "name": "world",
              "type": "address"
            },
            {
              "internalType": "address",
              "name": "company",
              "type": "address"
            },
            {
              "internalType": "address",
              "name": "experience",
              "type": "address"
            },
            {
              "internalType": "address",
              "name": "avatar",
              "type": "address"
            }
          ],
          "internalType": "struct AssetCheckArgs",
          "name": "args",
          "type": "tuple"
        }
      ],
      "name": "canUseAsset",
      "outputs": [
        {
          "internalType": "bool",
          "name": "",
          "type": "bool"
        }
      ],
      "stateMutability": "view",
      "type": "function"
    },
    {
      "inputs": [
        {
          "components": [
            {
              "internalType": "address",
              "name": "asset",
              "type": "address"
            },
            {
              "internalType": "address",
              "name": "world",
              "type": "address"
            },
            {
              "internalType": "address",
              "name": "company",
              "type": "address"
            },
            {
              "internalType": "address",
              "name": "experience",
              "type": "address"
            },
            {
              "internalType": "address",
              "name": "avatar",
              "type": "address"
            }
          ],
          "internalType": "struct AssetCheckArgs",
          "name": "args",
          "type": "tuple"
        }
      ],
      "name": "canViewAsset",
      "outputs": [
        {
          "internalType": "bool",
          "name": "",
          "type": "bool"
        }
      ],
      "stateMutability": "view",
      "type": "function"
    },
    {
      "inputs": [],
      "name": "companyRegistry",
      "outputs": [
        {
          "internalType": "contract ICompanyRegistry",
          "name": "",
          "type": "address"
        }
      ],
      "stateMutability": "view",
      "type": "function"
    },
    {
      "inputs": [
        {
          "components": [
            {
              "internalType": "address",
              "name": "issuer",
              "type": "address"
            },
            {
              "internalType": "address",
              "name": "originChainAddress",
              "type": "address"
            },
            {
              "internalType": "uint256",
              "name": "originChainId",
              "type": "uint256"
            },
            {
              "internalType": "string",
              "name": "name",
              "type": "string"
            },
            {
              "internalType": "string",
              "name": "symbol",
              "type": "string"
            },
            {
              "internalType": "string",
              "name": "baseURI",
              "type": "string"
            }
          ],
          "internalType": "struct ERC721InitData",
          "name": "data",
          "type": "tuple"
        }
      ],
      "name": "encodeInitData",
      "outputs": [
        {
          "internalType": "bytes",
          "name": "",
          "type": "bytes"
        }
      ],
      "stateMutability": "pure",
      "type": "function"
    },
    {
      "inputs": [
        {
          "internalType": "uint256",
          "name": "tokenId",
          "type": "uint256"
        }
      ],
      "name": "getApproved",
      "outputs": [
        {
          "internalType": "address",
          "name": "",
          "type": "address"
        }
      ],
      "stateMutability": "view",
      "type": "function"
    },
    {
      "inputs": [],
      "name": "hook",
      "outputs": [
        {
          "internalType": "contract IAssetHook",
          "name": "",
          "type": "address"
        }
      ],
      "stateMutability": "view",
      "type": "function"
    },
    {
      "inputs": [
        {
          "internalType": "bytes",
          "name": "initData",
          "type": "bytes"
        }
      ],
      "name": "init",
      "outputs": [],
      "stateMutability": "nonpayable",
      "type": "function"
    },
    {
      "inputs": [
        {
          "internalType": "address",
          "name": "owner",
          "type": "address"
        },
        {
          "internalType": "address",
          "name": "operator",
          "type": "address"
        }
      ],
      "name": "isApprovedForAll",
      "outputs": [
        {
          "internalType": "bool",
          "name": "",
          "type": "bool"
        }
      ],
      "stateMutability": "view",
      "type": "function"
    },
    {
      "inputs": [],
      "name": "issuer",
      "outputs": [
        {
          "internalType": "address",
          "name": "",
          "type": "address"
        }
      ],
      "stateMutability": "view",
      "type": "function"
    },
    {
      "inputs": [
        {
          "internalType": "address",
          "name": "to",
          "type": "address"
        },
        {
          "internalType": "bytes",
          "name": "data",
          "type": "bytes"
        }
      ],
      "name": "mint",
      "outputs": [],
      "stateMutability": "nonpayable",
      "type": "function"
    },
    {
      "inputs": [],
      "name": "name",
      "outputs": [
        {
          "internalType": "string",
          "name": "",
          "type": "string"
        }
      ],
      "stateMutability": "view",
      "type": "function"
    },
    {
      "inputs": [],
      "name": "originAddress",
      "outputs": [
        {
          "internalType": "address",
          "name": "",
          "type": "address"
        }
      ],
      "stateMutability": "view",
      "type": "function"
    },
    {
      "inputs": [],
      "name": "originChainId",
      "outputs": [
        {
          "internalType": "uint256",
          "name": "",
          "type": "uint256"
        }
      ],
      "stateMutability": "view",
      "type": "function"
    },
    {
      "inputs": [
        {
          "internalType": "uint256",
          "name": "tokenId",
          "type": "uint256"
        }
      ],
      "name": "ownerOf",
      "outputs": [
        {
          "internalType": "address",
          "name": "",
          "type": "address"
        }
      ],
      "stateMutability": "view",
      "type": "function"
    },
    {
      "inputs": [],
      "name": "removeCondition",
      "outputs": [],
      "stateMutability": "nonpayable",
      "type": "function"
    },
    {
      "inputs": [],
      "name": "removeHook",
      "outputs": [],
      "stateMutability": "nonpayable",
      "type": "function"
    },
    {
      "inputs": [
        {
          "internalType": "address",
          "name": "holder",
          "type": "address"
        },
        {
          "internalType": "bytes",
          "name": "data",
          "type": "bytes"
        }
      ],
      "name": "revoke",
      "outputs": [],
      "stateMutability": "nonpayable",
      "type": "function"
    },
    {
      "inputs": [
        {
          "internalType": "address",
          "name": "from",
          "type": "address"
        },
        {
          "internalType": "address",
          "name": "to",
          "type": "address"
        },
        {
          "internalType": "uint256",
          "name": "tokenId",
          "type": "uint256"
        }
      ],
      "name": "safeTransferFrom",
      "outputs": [],
      "stateMutability": "nonpayable",
      "type": "function"
    },
    {
      "inputs": [
        {
          "internalType": "address",
          "name": "",
          "type": "address"
        },
        {
          "internalType": "address",
          "name": "",
          "type": "address"
        },
        {
          "internalType": "uint256",
          "name": "",
          "type": "uint256"
        },
        {
          "internalType": "bytes",
          "name": "",
          "type": "bytes"
        }
      ],
      "name": "safeTransferFrom",
      "outputs": [],
      "stateMutability": "nonpayable",
      "type": "function"
    },
    {
      "inputs": [
        {
          "internalType": "address",
          "name": "",
          "type": "address"
        },
        {
          "internalType": "bool",
          "name": "",
          "type": "bool"
        }
      ],
      "name": "setApprovalForAll",
      "outputs": [],
      "stateMutability": "nonpayable",
      "type": "function"
    },
    {
      "inputs": [
        {
          "internalType": "bytes4",
          "name": "interfaceId",
          "type": "bytes4"
        }
      ],
      "name": "supportsInterface",
      "outputs": [
        {
          "internalType": "bool",
          "name": "",
          "type": "bool"
        }
      ],
      "stateMutability": "view",
      "type": "function"
    },
    {
      "inputs": [],
      "name": "symbol",
      "outputs": [
        {
          "internalType": "string",
          "name": "",
          "type": "string"
        }
      ],
      "stateMutability": "view",
      "type": "function"
    },
    {
      "inputs": [
        {
          "internalType": "uint256",
          "name": "tokenId",
          "type": "uint256"
        }
      ],
      "name": "tokenURI",
      "outputs": [
        {
          "internalType": "string",
          "name": "",
          "type": "string"
        }
      ],
      "stateMutability": "view",
      "type": "function"
    },
    {
      "inputs": [
        {
          "internalType": "address",
          "name": "",
          "type": "address"
        },
        {
          "internalType": "address",
          "name": "",
          "type": "address"
        },
        {
          "internalType": "uint256",
          "name": "",
          "type": "uint256"
        }
      ],
      "name": "transferFrom",
      "outputs": [],
      "stateMutability": "nonpayable",
      "type": "function"
    },
    {
      "inputs": [
        {
          "internalType": "bytes",
          "name": "data",
          "type": "bytes"
        }
      ],
      "name": "upgrade",
      "outputs": [
        {
          "internalType": "address",
          "name": "",
          "type": "address"
        }
      ],
      "stateMutability": "nonpayable",
      "type": "function"
    },
    {
      "inputs": [
        {
          "internalType": "address",
          "name": "nextVersion",
          "type": "address"
        }
      ],
      "name": "upgradeComplete",
      "outputs": [],
      "stateMutability": "nonpayable",
      "type": "function"
    },
    {
      "inputs": [],
      "name": "version",
      "outputs": [
        {
          "internalType": "uint256",
          "name": "",
          "type": "uint256"
        }
      ],
      "stateMutability": "view",
      "type": "function"
    }
  ],
  "bytecode": "0x6101006040523480156200001257600080fd5b50604051620030ee380380620030ee833981016040819052620000359162000255565b6001600055805181906001600160a01b0316620000ad5760405162461bcd60e51b815260206004820152602b60248201527f4261736541737365743a206173736574466163746f727920697320746865207a60448201526a65726f206164647265737360a81b60648201526084015b60405180910390fd5b60208101516001600160a01b03166200011e5760405162461bcd60e51b815260206004820152602c60248201527f4261736541737365743a2061737365745265676973747279206973207468652060448201526b7a65726f206164647265737360a01b6064820152608401620000a4565b60408101516001600160a01b0316620001905760405162461bcd60e51b815260206004820152602d60248201527f4261736541737365743a2061766174617252656769737472792069732074686560448201526c207a65726f206164647265737360981b6064820152608401620000a4565b60608101516001600160a01b0316620002035760405162461bcd60e51b815260206004820152602e60248201527f4261736541737365743a20636f6d70616e79526567697374727920697320746860448201526d65207a65726f206164647265737360901b6064820152608401620000a4565b80516001600160a01b039081166080526020820151811660a0526040820151811660c0526060909101511660e05250620002e9565b80516001600160a01b03811681146200025057600080fd5b919050565b6000608082840312156200026857600080fd5b604051608081016001600160401b03811182821017156200029957634e487b7160e01b600052604160045260246000fd5b604052620002a78362000238565b8152620002b76020840162000238565b6020820152620002ca6040840162000238565b6040820152620002dd6060840162000238565b60608201529392505050565b60805160a05160c05160e051612da862000346600039600081816104600152610bfe01526000818161049a01526116820152600081816103aa0152610835015260008181610439015281816108c10152610af40152612da86000f3fe608060405234801561001057600080fd5b50600436106102115760003560e01c80636352211e11610125578063b4e75b9b116100ad578063c51aba2b1161007c578063c51aba2b1461045b578063c87b56dd14610482578063e3d7ad7314610495578063e517fedd146104bc578063e985e9c5146104c457600080fd5b8063b4e75b9b14610400578063b510391f14610413578063b88d4fde14610426578063c3acb4d11461043457600080fd5b806395d89b41116100f457806395d89b411461039d578063979d7e86146103a55780639a973844146103cc5780639e54c0a2146103df578063a22cb465146103f257600080fd5b80636352211e1461035c57806370a082311461036f5780637b4e04e8146103825780637f5a7c7b1461039557600080fd5b806323b872dd116101a85780633fa47f17116101775780633fa47f171461030857806342842e0e1461031b5780634ddf47d41461032e57806354fd4d501461034157806361f3fcb21461034957600080fd5b806323b872dd146102cc57806325394645146102da5780632663d1f7146102ed578063378f17ff1461030057600080fd5b8063095ea7b3116101e4578063095ea7b3146102885780630ac7f5611461029b5780631d143848146102b157806322d34932146102b957600080fd5b806301ffc9a714610216578063021665b71461023e57806306fdde0314610248578063081812fc1461025d575b600080fd5b610229610224366004612273565b6104d7565b60405190151581526020015b60405180910390f35b610246610529565b005b6102506105c0565b60405161023591906122e0565b61027061026b3660046122f3565b61065b565b6040516001600160a01b039091168152602001610235565b610246610296366004612331565b610670565b6102a36106c4565b604051908152602001610235565b6102706106d7565b6102466102c736600461235d565b6106f3565b61024661029636600461237a565b6102706102e8366004612403565b6107e9565b6102466102fb36600461235d565b6108b6565b61024661099f565b6102296103163660046124b2565b610a2d565b61024661032936600461237a565b610ac9565b61024661033c3660046125c6565b610ae9565b6102a3600181565b6102506103573660046125fa565b61100c565b61027061036a3660046122f3565b611035565b6102a361037d36600461235d565b611040565b61024661039036600461235d565b6110a7565b610270611198565b6102506111b4565b6102707f000000000000000000000000000000000000000000000000000000000000000081565b6102466103da3660046126da565b6111cc565b6102296103ed3660046126da565b6113f2565b61024661029636600461273c565b61022961040e3660046124b2565b611464565b6102466104213660046126da565b6114bf565b610246610296366004612775565b6102707f000000000000000000000000000000000000000000000000000000000000000081565b6102707f000000000000000000000000000000000000000000000000000000000000000081565b6102506104903660046122f3565b61178c565b6102707f000000000000000000000000000000000000000000000000000000000000000081565b6102706117f3565b6102296104d23660046127e0565b611811565b60006001600160e01b031982166380ac58cd60e01b148061050857506001600160e01b03198216635b5e139f60e01b145b8061052357506001600160e01b031982166301ffc9a760e01b145b92915050565b61053161185e565b600101546001600160a01b031633146105655760405162461bcd60e51b815260040161055c9061280e565b60405180910390fd5b600061056f61185e565b60038101546040519192506001600160a01b03169081907f2df08b6a3a4aed918c51e7ac3bbbe4f82bb09d26fef89a0c23ddc38c1a3c385b90600090a25060030180546001600160a01b0319169055565b60606105ca61185e565b60050180546105d890612845565b80601f016020809104026020016040519081016040528092919081815260200182805461060490612845565b80156106515780601f1061062657610100808354040283529160200191610651565b820191906000526020600020905b81548152906001019060200180831161063457829003601f168201915b5050505050905090565b600061066682611882565b50610523826118ba565b60405162461bcd60e51b815260206004820152602360248201527f4e544552433732313a20746f6b656e206973206e6f6e2d7472616e7366657261604482015262626c6560e81b606482015260840161055c565b60006106ce61185e565b60040154905090565b60006106e161185e565b600101546001600160a01b0316919050565b6106fb61185e565b600101546001600160a01b031633146107265760405162461bcd60e51b815260040161055c9061280e565b600061073061185e565b90506001600160a01b03821661079c5760405162461bcd60e51b815260206004820152602b60248201527f4261736541737365743a20636f6e646974696f6e2063616e6e6f74206265207a60448201526a65726f206164647265737360a81b606482015260840161055c565b6003810180546001600160a01b0319166001600160a01b0384169081179091556040517fb17f5e42ddd024b71620166aeff196e5f40a39a3d7fe8082929e768015fbf7c190600090a25050565b60006107f361185e565b600101546001600160a01b0316331461081e5760405162461bcd60e51b815260040161055c9061280e565b604051633cbd429360e01b81526001600160a01b037f00000000000000000000000000000000000000000000000000000000000000001690633cbd42939061086c908690869060040161287f565b6020604051808303816000875af115801561088b573d6000803e3d6000fd5b505050506040513d601f19601f820116820180604052508101906108af91906128b9565b9392505050565b336001600160a01b037f0000000000000000000000000000000000000000000000000000000000000000161461092e5760405162461bcd60e51b815260206004820152601f60248201527f4261736541737365743a206f6e6c7920666163746f727920616c6c6f77656400604482015260640161055c565b7f69198989339f34e10129e514286bde98979351148754faef989dde18bf6d14da80546001600160a01b031981166001600160a01b03848116918217845560405192169182907f9603bf83c2911c6b0dd953eb62e0804c697e90855fa1007b93c0964cb39d8e1690600090a3505050565b6109a761185e565b600101546001600160a01b031633146109d25760405162461bcd60e51b815260040161055c9061280e565b60006109dc61185e565b60028101546040519192506001600160a01b03169081907f94dff9f830507f1f2b72515aaaaa174f690a73801b6ab87ae6d75e584de177c890600090a25060020180546001600160a01b0319169055565b600080610a3861185e565b60038101549091506001600160a01b0316610a565750600192915050565b60038101546040516377b63b9160e11b81526001600160a01b039091169063ef6c772290610a889086906004016128d6565b602060405180830381865afa158015610aa5573d6000803e3d6000fd5b505050506040513d601f19601f820116820180604052508101906108af919061291d565b610ae483838360405180602001604052806000815250610670565b505050565b336001600160a01b037f00000000000000000000000000000000000000000000000000000000000000001614610b615760405162461bcd60e51b815260206004820152601f60248201527f4261736541737365743a206f6e6c7920666163746f727920616c6c6f77656400604482015260640161055c565b600081806020019051810190610b77919061297f565b80519091506001600160a01b0316610bdd5760405162461bcd60e51b8152602060048201526024808201527f4e544552433732313a2069737375657220697320746865207a65726f206164646044820152637265737360e01b606482015260840161055c565b8051604051632405672560e21b81526001600160a01b0391821660048201527f0000000000000000000000000000000000000000000000000000000000000000909116906390159c9490602401602060405180830381865afa158015610c47573d6000803e3d6000fd5b505050506040513d601f19601f82011682018060405250810190610c6b919061291d565b610cc15760405162461bcd60e51b815260206004820152602160248201527f4e544552433732313a20697373756572206973206e6f74206120636f6d70616e6044820152607960f81b606482015260840161055c565b600081606001515111610d165760405162461bcd60e51b815260206004820152601760248201527f4e544552433732313a206e616d6520697320656d707479000000000000000000604482015260640161055c565b600081608001515111610d6b5760405162461bcd60e51b815260206004820152601960248201527f4e544552433732313a2073796d626f6c20697320656d70747900000000000000604482015260640161055c565b60008160a001515111610dc05760405162461bcd60e51b815260206004820152601a60248201527f4e544552433732313a206261736555524920697320656d707479000000000000604482015260640161055c565b60208101516001600160a01b0316610e335760405162461bcd60e51b815260206004820152603060248201527f4e544552433732313a206f726967696e436861696e416464726573732069732060448201526f746865207a65726f206164647265737360801b606482015260840161055c565b6000816040015111610e875760405162461bcd60e51b815260206004820152601f60248201527f4e544552433732313a206f726967696e436861696e4964206973207a65726f00604482015260640161055c565b7f2db204426804e067e91705d2dda6628a736fec9e9182470f68b797f52d49efa554600080516020612d538339815191529061010090046001600160a01b031615610f205760405162461bcd60e51b815260206004820152602360248201527f4e544552433732313a20617373657420616c726561647920696e697469616c696044820152621e995960ea1b606482015260840161055c565b81516007820180546001600160a01b039283166001600160a01b031990911617905560208301516006830180549190921661010002610100600160a81b03199091161790556040820151600a8201556060820151600b820190610f839082612aa0565b506080820151600c820190610f989082612aa0565b50610fc08260a00151604051806040016040528060018152602001602f60f81b8152506118f4565b610ffb578160a00151604051602001610fd99190612b5f565b60408051601f198184030181529190528190610ff59082612aa0565b50505050565b60a08201518190610ff59082612aa0565b60608160405160200161101f9190612b84565b6040516020818303038152906040529050919050565b600061052382611882565b60006001600160a01b03821661106c576040516322718ad960e21b81526000600482015260240161055c565b506001600160a01b031660009081527f2db204426804e067e91705d2dda6628a736fec9e9182470f68b797f52d49efa2602052604090205490565b6110af61185e565b600101546001600160a01b031633146110da5760405162461bcd60e51b815260040161055c9061280e565b60006110e461185e565b90506001600160a01b03821661114b5760405162461bcd60e51b815260206004820152602660248201527f4261736541737365743a20686f6f6b2063616e6e6f74206265207a65726f206160448201526564647265737360d01b606482015260840161055c565b6002810180546001600160a01b0319166001600160a01b0384169081179091556040517ff716b9f35a5af170228b0c97201cc581ce2ca1703824fd6b78f3583f28f7eedc90600090a25050565b60006111a261185e565b600201546001600160a01b0316919050565b60606111be61185e565b60060180546105d890612845565b6111d461195f565b6111dc61185e565b600101546001600160a01b031633146112075760405162461bcd60e51b815260040161055c9061280e565b6000611215828401846122f3565b90506001600160a01b0384166112795760405162461bcd60e51b815260206004820152602360248201527f4e5445524337323141737365743a20746f6b656e20646f6573206e6f742065786044820152621a5cdd60ea1b606482015260840161055c565b836001600160a01b031661128c82611989565b6001600160a01b0316146112fc5760405162461bcd60e51b815260206004820152603160248201527f4e5445524337323141737365743a206e6f7420746865206f776e6572206f66206044820152701d1bdad95b881a59081c1c9bdd9a591959607a1b606482015260840161055c565b7f2db204426804e067e91705d2dda6628a736fec9e9182470f68b797f52d49efa754600080516020612d53833981519152906001600160a01b0316156113dd5760088101546040516335661e9560e21b81523060048201526001600160a01b03878116602483015260448201859052600092169063d5987a54906064016020604051808303816000875af1158015611398573d6000803e3d6000fd5b505050506040513d601f19601f820116820180604052508101906113bc919061291d565b9050806113db5760405162461bcd60e51b815260040161055c90612c0f565b505b6113e6826119c3565b5050610ae46001600055565b60006001600160a01b03841661145a5760405162461bcd60e51b815260206004820152602760248201527f4e5445524337323141737365743a206d696e7420746f20746865207a65726f206044820152666164647265737360c81b606482015260840161055c565b5060019392505050565b60008061146f61185e565b60038101549091506001600160a01b031661148d5750600192915050565b600381015460405163eab4ad0360e01b81526001600160a01b039091169063eab4ad0390610a889086906004016128d6565b6114c761195f565b6114cf61185e565b600101546001600160a01b031633146114fa5760405162461bcd60e51b815260040161055c9061280e565b6115058383836113f2565b61155f5760405162461bcd60e51b815260206004820152602560248201527f4e5445524337323141737365743a2063616e6e6f74206d696e7420746f206164604482015264647265737360d81b606482015260840161055c565b7f2db204426804e067e91705d2dda6628a736fec9e9182470f68b797f52d49efa754600080516020612d53833981519152906001600160a01b0316156116635760088101546001808301546000926001600160a01b0316916386b8418791309189916115ca91612c74565b6040516001600160e01b031960e086901b1681526001600160a01b03938416600482015292909116602483015260448201526064016020604051808303816000875af115801561161e573d6000803e3d6000fd5b505050506040513d601f19601f82011682018060405250810190611642919061291d565b9050806116615760405162461bcd60e51b815260040161055c90612c0f565b505b604051632b0fe8e760e21b81526001600160a01b0385811660048301527f0000000000000000000000000000000000000000000000000000000000000000169063ac3fa39c90602401602060405180830381865afa1580156116c9573d6000803e3d6000fd5b505050506040513d601f19601f820116820180604052508101906116ed919061291d565b15611768576000849050806001600160a01b031663181d939b6040518163ffffffff1660e01b8152600401602060405180830381865afa158015611735573d6000803e3d6000fd5b505050506040513d601f19601f82011682018060405250810190611759919061291d565b6117665761176685611a02565b505b806001016000815461177990612c87565b9091555060018101546113e68582611bd4565b606061179782611882565b5060006117a2611bee565b905060008151116117c257604051806020016040528060008152506108af565b806117cc84611c0a565b6040516020016117dd929190612ca0565b6040516020818303038152906040529392505050565b60006117fd61185e565b5461010090046001600160a01b0316919050565b6001600160a01b0391821660009081527f2db204426804e067e91705d2dda6628a736fec9e9182470f68b797f52d49efa46020908152604080832093909416825291909152205460ff1690565b7f2db204426804e067e91705d2dda6628a736fec9e9182470f68b797f52d49efa590565b60008061188e83611989565b90506001600160a01b03811661052357604051637e27328960e01b81526004810184905260240161055c565b60009081527f2db204426804e067e91705d2dda6628a736fec9e9182470f68b797f52d49efa360205260409020546001600160a01b031690565b600081518351101580156108af57508160008151811061191657611916612ccf565b0160200151825184516001600160f81b031990921691859161193791612ce5565b8151811061194757611947612ccf565b01602001516001600160f81b03191614905092915050565b60026000540361198257604051633ee5aeb560e01b815260040160405180910390fd5b6002600055565b60009081527f2db204426804e067e91705d2dda6628a736fec9e9182470f68b797f52d49efa160205260409020546001600160a01b031690565b60006119d26000836000611c9c565b90506001600160a01b0381166119fe57604051637e27328960e01b81526004810183905260240161055c565b5050565b6000816001600160a01b031663516f279e6040518163ffffffff1660e01b8152600401602060405180830381865afa158015611a42573d6000803e3d6000fd5b505050506040513d601f19601f82011682018060405250810190611a6691906128b9565b90506000611a7261185e565b90506001600160a01b038216611ad45760405162461bcd60e51b815260206004820152602160248201527f4261736541737365743a2061766174617220686173206e6f206c6f636174696f6044820152603760f91b606482015260840161055c565b600181015460408051636904c94d60e01b815290516001600160a01b0392831692851691636904c94d9160048083019260209291908290030181865afa158015611b22573d6000803e3d6000fd5b505050506040513d601f19601f82011682018060405250810190611b4691906128b9565b6001600160a01b031614610ae45760405162461bcd60e51b815260206004820152604960248201527f4261736541737365743a2061766174617220646f6573206e6f7420616c6c6f7760448201527f20617373657473206f757473696465206f66206974732063757272656e7420656064820152687870657269656e636560b81b608482015260a40161055c565b6119fe828260405180602001604052806000815250611da6565b6060600080516020612d5383398151915280546105d890612845565b60606000611c1783611dbd565b60010190506000816001600160401b03811115611c3657611c36612444565b6040519080825280601f01601f191660200182016040528015611c60576020820181803683370190505b5090508181016020015b600019016f181899199a1a9b1b9c1cb0b131b232b360811b600a86061a8153600a8504945084611c6a57509392505050565b600080611ca884611989565b9050600080516020612d538339815191526001600160a01b03841615611cd357611cd3828587611e95565b6001600160a01b03821615611d1357611cf0600086600080611ef9565b6001600160a01b0382166000908152600382016020526040902080546000190190555b6001600160a01b03861615611d44576001600160a01b03861660009081526003820160205260409020805460010190555b600085815260028201602052604080822080546001600160a01b0319166001600160a01b038a811691821790925591518893918616917fddf252ad1be2c89b69c2b068fc378daa952ba7f163c4a11628f55a4df523b3ef91a450949350505050565b611db0838361201e565b610ae460008484846120cb565b60008072184f03e93ff9f4daa797ed6e38ed64bf6a1f0160401b8310611dfc5772184f03e93ff9f4daa797ed6e38ed64bf6a1f0160401b830492506040015b6d04ee2d6d415b85acef81000000008310611e28576d04ee2d6d415b85acef8100000000830492506020015b662386f26fc100008310611e4657662386f26fc10000830492506010015b6305f5e1008310611e5e576305f5e100830492506008015b6127108310611e7257612710830492506004015b60648310611e84576064830492506002015b600a83106105235760010192915050565b611ea08383836121f4565b610ae4576001600160a01b038316611ece57604051637e27328960e01b81526004810182905260240161055c565b60405163177e802f60e01b81526001600160a01b03831660048201526024810182905260440161055c565b8080611f0d57506001600160a01b03821615155b15611fcf576000611f1d84611882565b90506001600160a01b03831615801590611f495750826001600160a01b0316816001600160a01b031614155b8015611f5c5750611f5a8184611811565b155b15611f855760405163a9fbf51f60e01b81526001600160a01b038416600482015260240161055c565b8115611fcd5783856001600160a01b0316826001600160a01b03167f8c5be1e5ebec7d5bd14f71427d1e84f3dd0314c0f7b2291e5b200ac8c7c3b92560405160405180910390a45b505b505060009081527f2db204426804e067e91705d2dda6628a736fec9e9182470f68b797f52d49efa36020526040902080546001600160a01b0319166001600160a01b0392909216919091179055565b6001600160a01b03821661204857604051633250574960e11b81526000600482015260240161055c565b600061205683836000611c9c565b90506001600160a01b03811615612083576040516339e3563760e11b81526000600482015260240161055c565b826001600160a01b03167f1292a1381d69fd0f033102672143fff68d426b4b73eb1fa4df2620aeed9a2994836040516120be91815260200190565b60405180910390a2505050565b6001600160a01b0383163b15610ff557604051630a85bd0160e11b81526001600160a01b0384169063150b7a029061210d903390889087908790600401612cf8565b6020604051808303816000875af1925050508015612148575060408051601f3d908101601f1916820190925261214591810190612d35565b60015b6121b1573d808015612176576040519150601f19603f3d011682016040523d82523d6000602084013e61217b565b606091505b5080516000036121a957604051633250574960e11b81526001600160a01b038516600482015260240161055c565b805181602001fd5b6001600160e01b03198116630a85bd0160e11b146121ed57604051633250574960e11b81526001600160a01b038516600482015260240161055c565b5050505050565b60006001600160a01b038316158015906122525750826001600160a01b0316846001600160a01b0316148061222e575061222e8484611811565b806122525750826001600160a01b0316612247836118ba565b6001600160a01b0316145b949350505050565b6001600160e01b03198116811461227057600080fd5b50565b60006020828403121561228557600080fd5b81356108af8161225a565b60005b838110156122ab578181015183820152602001612293565b50506000910152565b600081518084526122cc816020860160208601612290565b601f01601f19169290920160200192915050565b6020815260006108af60208301846122b4565b60006020828403121561230557600080fd5b5035919050565b6001600160a01b038116811461227057600080fd5b803561232c8161230c565b919050565b6000806040838503121561234457600080fd5b823561234f8161230c565b946020939093013593505050565b60006020828403121561236f57600080fd5b81356108af8161230c565b60008060006060848603121561238f57600080fd5b833561239a8161230c565b925060208401356123aa8161230c565b929592945050506040919091013590565b60008083601f8401126123cd57600080fd5b5081356001600160401b038111156123e457600080fd5b6020830191508360208285010111156123fc57600080fd5b9250929050565b6000806020838503121561241657600080fd5b82356001600160401b0381111561242c57600080fd5b612438858286016123bb565b90969095509350505050565b634e487b7160e01b600052604160045260246000fd5b60405160c081016001600160401b038111828210171561247c5761247c612444565b60405290565b604051601f8201601f191681016001600160401b03811182821017156124aa576124aa612444565b604052919050565b600060a082840312156124c457600080fd5b60405160a081018181106001600160401b03821117156124e6576124e6612444565b60405282356124f48161230c565b815260208301356125048161230c565b602082015260408301356125178161230c565b6040820152606083013561252a8161230c565b6060820152608083013561253d8161230c565b60808201529392505050565b60006001600160401b0382111561256257612562612444565b50601f01601f191660200190565b600082601f83011261258157600080fd5b813561259461258f82612549565b612482565b8181528460208386010111156125a957600080fd5b816020850160208301376000918101602001919091529392505050565b6000602082840312156125d857600080fd5b81356001600160401b038111156125ee57600080fd5b61225284828501612570565b60006020828403121561260c57600080fd5b81356001600160401b038082111561262357600080fd5b9083019060c0828603121561263757600080fd5b61263f61245a565b61264883612321565b815261265660208401612321565b60208201526040830135604082015260608301358281111561267757600080fd5b61268387828601612570565b60608301525060808301358281111561269b57600080fd5b6126a787828601612570565b60808301525060a0830135828111156126bf57600080fd5b6126cb87828601612570565b60a08301525095945050505050565b6000806000604084860312156126ef57600080fd5b83356126fa8161230c565b925060208401356001600160401b0381111561271557600080fd5b612721868287016123bb565b9497909650939450505050565b801515811461227057600080fd5b6000806040838503121561274f57600080fd5b823561275a8161230c565b9150602083013561276a8161272e565b809150509250929050565b6000806000806080858703121561278b57600080fd5b84356127968161230c565b935060208501356127a68161230c565b92506040850135915060608501356001600160401b038111156127c857600080fd5b6127d487828801612570565b91505092959194509250565b600080604083850312156127f357600080fd5b82356127fe8161230c565b9150602083013561276a8161230c565b6020808252601e908201527f4261736541737365743a206f6e6c792069737375657220616c6c6f7765640000604082015260600190565b600181811c9082168061285957607f821691505b60208210810361287957634e487b7160e01b600052602260045260246000fd5b50919050565b60208152816020820152818360408301376000818301604090810191909152601f909201601f19160101919050565b805161232c8161230c565b6000602082840312156128cb57600080fd5b81516108af8161230c565b81516001600160a01b039081168252602080840151821690830152604080840151821690830152606080840151821690830152608092830151169181019190915260a00190565b60006020828403121561292f57600080fd5b81516108af8161272e565b600082601f83011261294b57600080fd5b815161295961258f82612549565b81815284602083860101111561296e57600080fd5b612252826020830160208701612290565b60006020828403121561299157600080fd5b81516001600160401b03808211156129a857600080fd5b9083019060c082860312156129bc57600080fd5b6129c461245a565b6129cd836128ae565b81526129db602084016128ae565b6020820152604083015160408201526060830151828111156129fc57600080fd5b612a088782860161293a565b606083015250608083015182811115612a2057600080fd5b612a2c8782860161293a565b60808301525060a083015182811115612a4457600080fd5b6126cb8782860161293a565b601f821115610ae4576000816000526020600020601f850160051c81016020861015612a795750805b601f850160051c820191505b81811015612a9857828155600101612a85565b505050505050565b81516001600160401b03811115612ab957612ab9612444565b612acd81612ac78454612845565b84612a50565b602080601f831160018114612b025760008415612aea5750858301515b600019600386901b1c1916600185901b178555612a98565b600085815260208120601f198616915b82811015612b3157888601518255948401946001909101908401612b12565b5085821015612b4f5787850151600019600388901b60f8161c191681555b5050505050600190811b01905550565b60008251612b71818460208701612290565b602f60f81b920191825250600101919050565b60208152600060018060a01b038084511660208401528060208501511660408401525060408301516060830152606083015160c06080840152612bca60e08401826122b4565b90506080840151601f19808584030160a0860152612be883836122b4565b925060a08601519150808584030160c086015250612c0682826122b4565b95945050505050565b6020808252602f908201527f4e5445524337323141737365743a206265666f72654d696e7420686f6f6b207260408201526e195a9958dd1959081c995c5d595cdd608a1b606082015260800190565b634e487b7160e01b600052601160045260246000fd5b8082018082111561052357610523612c5e565b600060018201612c9957612c99612c5e565b5060010190565b60008351612cb2818460208801612290565b835190830190612cc6818360208801612290565b01949350505050565b634e487b7160e01b600052603260045260246000fd5b8181038181111561052357610523612c5e565b6001600160a01b0385811682528416602082015260408101839052608060608201819052600090612d2b908301846122b4565b9695505050505050565b600060208284031215612d4757600080fd5b81516108af8161225a56fe2db204426804e067e91705d2dda6628a736fec9e9182470f68b797f52d49ef9fa2646970667358221220ad077e6ee3a0adbf28a87464e402eef2d43d947103f6538fc839aad761ca740064736f6c63430008180033",
  "linkReferences": {},
  "deployedLinkReferences": {}
}