{
  "_format": "hh-sol-artifact-1",
  "contractName": "NTERC721Asset",
  "sourceName": "contracts/asset/erc721/NTERC721Asset.sol",
  "abi": [
    {
      "inputs": [
        {
          "components": [
            {
              "internalType": "address",
              "name": "assetFactory",
              "type": "address"
            },
            {
              "internalType": "address",
              "name": "assetRegistry",
              "type": "address"
            },
            {
              "internalType": "address",
              "name": "avatarRegistry",
              "type": "address"
            },
            {
              "internalType": "address",
              "name": "experienceRegistry",
              "type": "address"
            }
          ],
          "internalType": "struct BaseAssetArgs",
          "name": "args",
          "type": "tuple"
        }
      ],
      "stateMutability": "nonpayable",
      "type": "constructor"
    },
    {
      "inputs": [
        {
          "internalType": "address",
          "name": "sender",
          "type": "address"
        },
        {
          "internalType": "uint256",
          "name": "tokenId",
          "type": "uint256"
        },
        {
          "internalType": "address",
          "name": "owner",
          "type": "address"
        }
      ],
      "name": "ERC721IncorrectOwner",
      "type": "error"
    },
    {
      "inputs": [
        {
          "internalType": "address",
          "name": "operator",
          "type": "address"
        },
        {
          "internalType": "uint256",
          "name": "tokenId",
          "type": "uint256"
        }
      ],
      "name": "ERC721InsufficientApproval",
      "type": "error"
    },
    {
      "inputs": [
        {
          "internalType": "address",
          "name": "approver",
          "type": "address"
        }
      ],
      "name": "ERC721InvalidApprover",
      "type": "error"
    },
    {
      "inputs": [
        {
          "internalType": "address",
          "name": "operator",
          "type": "address"
        }
      ],
      "name": "ERC721InvalidOperator",
      "type": "error"
    },
    {
      "inputs": [
        {
          "internalType": "address",
          "name": "owner",
          "type": "address"
        }
      ],
      "name": "ERC721InvalidOwner",
      "type": "error"
    },
    {
      "inputs": [
        {
          "internalType": "address",
          "name": "receiver",
          "type": "address"
        }
      ],
      "name": "ERC721InvalidReceiver",
      "type": "error"
    },
    {
      "inputs": [
        {
          "internalType": "address",
          "name": "sender",
          "type": "address"
        }
      ],
      "name": "ERC721InvalidSender",
      "type": "error"
    },
    {
      "inputs": [
        {
          "internalType": "uint256",
          "name": "tokenId",
          "type": "uint256"
        }
      ],
      "name": "ERC721NonexistentToken",
      "type": "error"
    },
    {
      "inputs": [],
      "name": "ReentrancyGuardReentrantCall",
      "type": "error"
    },
    {
      "anonymous": false,
      "inputs": [
        {
          "indexed": true,
          "internalType": "address",
          "name": "owner",
          "type": "address"
        },
        {
          "indexed": true,
          "internalType": "address",
          "name": "approved",
          "type": "address"
        },
        {
          "indexed": true,
          "internalType": "uint256",
          "name": "tokenId",
          "type": "uint256"
        }
      ],
      "name": "Approval",
      "type": "event"
    },
    {
      "anonymous": false,
      "inputs": [
        {
          "indexed": true,
          "internalType": "address",
          "name": "owner",
          "type": "address"
        },
        {
          "indexed": true,
          "internalType": "address",
          "name": "operator",
          "type": "address"
        },
        {
          "indexed": false,
          "internalType": "bool",
          "name": "approved",
          "type": "bool"
        }
      ],
      "name": "ApprovalForAll",
      "type": "event"
    },
    {
      "anonymous": false,
      "inputs": [
        {
          "indexed": true,
          "internalType": "address",
          "name": "condition",
          "type": "address"
        }
      ],
      "name": "AssetConditionAdded",
      "type": "event"
    },
    {
      "anonymous": false,
      "inputs": [
        {
          "indexed": true,
          "internalType": "address",
          "name": "condition",
          "type": "address"
        }
      ],
      "name": "AssetConditionRemoved",
      "type": "event"
    },
    {
      "anonymous": false,
      "inputs": [
        {
          "indexed": true,
          "internalType": "address",
          "name": "hook",
          "type": "address"
        }
      ],
      "name": "AssetHookAdded",
      "type": "event"
    },
    {
      "anonymous": false,
      "inputs": [
        {
          "indexed": true,
          "internalType": "address",
          "name": "hook",
          "type": "address"
        }
      ],
      "name": "AssetHookRemoved",
      "type": "event"
    },
    {
      "anonymous": false,
      "inputs": [
        {
          "indexed": true,
          "internalType": "address",
          "name": "to",
          "type": "address"
        },
        {
          "indexed": false,
          "internalType": "uint256",
          "name": "tokenId",
          "type": "uint256"
        }
      ],
      "name": "ERC721Minted",
      "type": "event"
    },
    {
      "anonymous": false,
      "inputs": [
        {
          "indexed": true,
          "internalType": "address",
          "name": "oldAsset",
          "type": "address"
        },
        {
          "indexed": true,
          "internalType": "address",
          "name": "newAsset",
          "type": "address"
        }
      ],
      "name": "ERC721Upgraded",
      "type": "event"
    },
    {
      "anonymous": false,
      "inputs": [
        {
          "indexed": true,
          "internalType": "address",
          "name": "from",
          "type": "address"
        },
        {
          "indexed": true,
          "internalType": "address",
          "name": "to",
          "type": "address"
        },
        {
          "indexed": true,
          "internalType": "uint256",
          "name": "tokenId",
          "type": "uint256"
        }
      ],
      "name": "Transfer",
      "type": "event"
    },
    {
      "inputs": [
        {
          "internalType": "contract IAssetCondition",
          "name": "condition",
          "type": "address"
        }
      ],
      "name": "addCondition",
      "outputs": [],
      "stateMutability": "nonpayable",
      "type": "function"
    },
    {
      "inputs": [
        {
          "internalType": "contract IAssetHook",
          "name": "_hook",
          "type": "address"
        }
      ],
      "name": "addHook",
      "outputs": [],
      "stateMutability": "nonpayable",
      "type": "function"
    },
    {
      "inputs": [
        {
          "internalType": "address",
          "name": "",
          "type": "address"
        },
        {
          "internalType": "uint256",
          "name": "",
          "type": "uint256"
        }
      ],
      "name": "approve",
      "outputs": [],
      "stateMutability": "nonpayable",
      "type": "function"
    },
    {
      "inputs": [],
      "name": "assetFactory",
      "outputs": [
        {
          "internalType": "address",
          "name": "",
          "type": "address"
        }
      ],
      "stateMutability": "view",
      "type": "function"
    },
    {
      "inputs": [],
      "name": "assetRegistry",
      "outputs": [
        {
          "internalType": "address",
          "name": "",
          "type": "address"
        }
      ],
      "stateMutability": "view",
      "type": "function"
    },
    {
      "inputs": [],
      "name": "avatarRegistry",
      "outputs": [
        {
          "internalType": "contract IAvatarRegistry",
          "name": "",
          "type": "address"
        }
      ],
      "stateMutability": "view",
      "type": "function"
    },
    {
      "inputs": [
        {
          "internalType": "address",
          "name": "owner",
          "type": "address"
        }
      ],
      "name": "balanceOf",
      "outputs": [
        {
          "internalType": "uint256",
          "name": "",
          "type": "uint256"
        }
      ],
      "stateMutability": "view",
      "type": "function"
    },
    {
      "inputs": [
        {
          "internalType": "address",
          "name": "to",
          "type": "address"
        },
        {
          "internalType": "bytes",
          "name": "",
          "type": "bytes"
        }
      ],
      "name": "canMint",
      "outputs": [
        {
          "internalType": "bool",
          "name": "",
          "type": "bool"
        }
      ],
      "stateMutability": "pure",
      "type": "function"
    },
    {
      "inputs": [
        {
          "components": [
            {
              "internalType": "address",
              "name": "asset",
              "type": "address"
            },
            {
              "internalType": "address",
              "name": "world",
              "type": "address"
            },
            {
              "internalType": "address",
              "name": "company",
              "type": "address"
            },
            {
              "internalType": "address",
              "name": "experience",
              "type": "address"
            },
            {
              "internalType": "address",
              "name": "avatar",
              "type": "address"
            }
          ],
          "internalType": "struct AssetCheckArgs",
          "name": "args",
          "type": "tuple"
        }
      ],
      "name": "canUseAsset",
      "outputs": [
        {
          "internalType": "bool",
          "name": "",
          "type": "bool"
        }
      ],
      "stateMutability": "view",
      "type": "function"
    },
    {
      "inputs": [
        {
          "components": [
            {
              "internalType": "address",
              "name": "asset",
              "type": "address"
            },
            {
              "internalType": "address",
              "name": "world",
              "type": "address"
            },
            {
              "internalType": "address",
              "name": "company",
              "type": "address"
            },
            {
              "internalType": "address",
              "name": "experience",
              "type": "address"
            },
            {
              "internalType": "address",
              "name": "avatar",
              "type": "address"
            }
          ],
          "internalType": "struct AssetCheckArgs",
          "name": "args",
          "type": "tuple"
        }
      ],
      "name": "canViewAsset",
      "outputs": [
        {
          "internalType": "bool",
          "name": "",
          "type": "bool"
        }
      ],
      "stateMutability": "view",
      "type": "function"
    },
    {
      "inputs": [
        {
          "components": [
            {
              "internalType": "address",
              "name": "issuer",
              "type": "address"
            },
            {
              "internalType": "address",
              "name": "originChainAddress",
              "type": "address"
            },
            {
              "internalType": "uint256",
              "name": "originChainId",
              "type": "uint256"
            },
            {
              "internalType": "string",
              "name": "name",
              "type": "string"
            },
            {
              "internalType": "string",
              "name": "symbol",
              "type": "string"
            },
            {
              "internalType": "string",
              "name": "baseURI",
              "type": "string"
            }
          ],
          "internalType": "struct ERC721InitData",
          "name": "data",
          "type": "tuple"
        }
      ],
      "name": "encodeInitData",
      "outputs": [
        {
          "internalType": "bytes",
          "name": "",
          "type": "bytes"
        }
      ],
      "stateMutability": "pure",
      "type": "function"
    },
    {
      "inputs": [],
      "name": "experienceRegistry",
      "outputs": [
        {
          "internalType": "contract IExperienceRegistry",
          "name": "",
          "type": "address"
        }
      ],
      "stateMutability": "view",
      "type": "function"
    },
    {
      "inputs": [
        {
          "internalType": "uint256",
          "name": "tokenId",
          "type": "uint256"
        }
      ],
      "name": "getApproved",
      "outputs": [
        {
          "internalType": "address",
          "name": "",
          "type": "address"
        }
      ],
      "stateMutability": "view",
      "type": "function"
    },
    {
      "inputs": [],
      "name": "hook",
      "outputs": [
        {
          "internalType": "contract IAssetHook",
          "name": "",
          "type": "address"
        }
      ],
      "stateMutability": "view",
      "type": "function"
    },
    {
      "inputs": [
        {
          "internalType": "bytes",
          "name": "initData",
          "type": "bytes"
        }
      ],
      "name": "init",
      "outputs": [],
      "stateMutability": "nonpayable",
      "type": "function"
    },
    {
      "inputs": [
        {
          "internalType": "address",
          "name": "owner",
          "type": "address"
        },
        {
          "internalType": "address",
          "name": "operator",
          "type": "address"
        }
      ],
      "name": "isApprovedForAll",
      "outputs": [
        {
          "internalType": "bool",
          "name": "",
          "type": "bool"
        }
      ],
      "stateMutability": "view",
      "type": "function"
    },
    {
      "inputs": [],
      "name": "issuer",
      "outputs": [
        {
          "internalType": "address",
          "name": "",
          "type": "address"
        }
      ],
      "stateMutability": "view",
      "type": "function"
    },
    {
      "inputs": [
        {
          "internalType": "address",
          "name": "to",
          "type": "address"
        },
        {
          "internalType": "bytes",
          "name": "",
          "type": "bytes"
        }
      ],
      "name": "mint",
      "outputs": [],
      "stateMutability": "nonpayable",
      "type": "function"
    },
    {
      "inputs": [],
      "name": "name",
      "outputs": [
        {
          "internalType": "string",
          "name": "",
          "type": "string"
        }
      ],
      "stateMutability": "view",
      "type": "function"
    },
    {
      "inputs": [],
      "name": "originAddress",
      "outputs": [
        {
          "internalType": "address",
          "name": "",
          "type": "address"
        }
      ],
      "stateMutability": "view",
      "type": "function"
    },
    {
      "inputs": [],
      "name": "originChainId",
      "outputs": [
        {
          "internalType": "uint256",
          "name": "",
          "type": "uint256"
        }
      ],
      "stateMutability": "view",
      "type": "function"
    },
    {
      "inputs": [
        {
          "internalType": "uint256",
          "name": "tokenId",
          "type": "uint256"
        }
      ],
      "name": "ownerOf",
      "outputs": [
        {
          "internalType": "address",
          "name": "",
          "type": "address"
        }
      ],
      "stateMutability": "view",
      "type": "function"
    },
    {
      "inputs": [],
      "name": "removeCondition",
      "outputs": [],
      "stateMutability": "nonpayable",
      "type": "function"
    },
    {
      "inputs": [],
      "name": "removeHook",
      "outputs": [],
      "stateMutability": "nonpayable",
      "type": "function"
    },
    {
      "inputs": [
        {
          "internalType": "address",
          "name": "holder",
          "type": "address"
        },
        {
          "internalType": "bytes",
          "name": "data",
          "type": "bytes"
        }
      ],
      "name": "revoke",
      "outputs": [],
      "stateMutability": "nonpayable",
      "type": "function"
    },
    {
      "inputs": [
        {
          "internalType": "address",
          "name": "from",
          "type": "address"
        },
        {
          "internalType": "address",
          "name": "to",
          "type": "address"
        },
        {
          "internalType": "uint256",
          "name": "tokenId",
          "type": "uint256"
        }
      ],
      "name": "safeTransferFrom",
      "outputs": [],
      "stateMutability": "nonpayable",
      "type": "function"
    },
    {
      "inputs": [
        {
          "internalType": "address",
          "name": "",
          "type": "address"
        },
        {
          "internalType": "address",
          "name": "",
          "type": "address"
        },
        {
          "internalType": "uint256",
          "name": "",
          "type": "uint256"
        },
        {
          "internalType": "bytes",
          "name": "",
          "type": "bytes"
        }
      ],
      "name": "safeTransferFrom",
      "outputs": [],
      "stateMutability": "nonpayable",
      "type": "function"
    },
    {
      "inputs": [
        {
          "internalType": "address",
          "name": "",
          "type": "address"
        },
        {
          "internalType": "bool",
          "name": "",
          "type": "bool"
        }
      ],
      "name": "setApprovalForAll",
      "outputs": [],
      "stateMutability": "nonpayable",
      "type": "function"
    },
    {
      "inputs": [
        {
          "internalType": "bytes4",
          "name": "interfaceId",
          "type": "bytes4"
        }
      ],
      "name": "supportsInterface",
      "outputs": [
        {
          "internalType": "bool",
          "name": "",
          "type": "bool"
        }
      ],
      "stateMutability": "view",
      "type": "function"
    },
    {
      "inputs": [],
      "name": "symbol",
      "outputs": [
        {
          "internalType": "string",
          "name": "",
          "type": "string"
        }
      ],
      "stateMutability": "view",
      "type": "function"
    },
    {
      "inputs": [
        {
          "internalType": "uint256",
          "name": "tokenId",
          "type": "uint256"
        }
      ],
      "name": "tokenURI",
      "outputs": [
        {
          "internalType": "string",
          "name": "",
          "type": "string"
        }
      ],
      "stateMutability": "view",
      "type": "function"
    },
    {
      "inputs": [
        {
          "internalType": "address",
          "name": "",
          "type": "address"
        },
        {
          "internalType": "address",
          "name": "",
          "type": "address"
        },
        {
          "internalType": "uint256",
          "name": "",
          "type": "uint256"
        }
      ],
      "name": "transferFrom",
      "outputs": [],
      "stateMutability": "nonpayable",
      "type": "function"
    },
    {
      "inputs": [
        {
          "internalType": "bytes",
          "name": "data",
          "type": "bytes"
        }
      ],
      "name": "upgrade",
      "outputs": [],
      "stateMutability": "nonpayable",
      "type": "function"
    },
    {
      "inputs": [
        {
          "internalType": "address",
          "name": "nextVersion",
          "type": "address"
        }
      ],
      "name": "upgradeComplete",
      "outputs": [],
      "stateMutability": "nonpayable",
      "type": "function"
    },
    {
      "inputs": [],
      "name": "version",
      "outputs": [
        {
          "internalType": "uint256",
          "name": "",
          "type": "uint256"
        }
      ],
      "stateMutability": "view",
      "type": "function"
    }
  ],
  "bytecode": "0x6101006040523480156200001257600080fd5b5060405162002df938038062002df9833981016040819052620000359162000258565b6001600055805181906001600160a01b0316620000ad5760405162461bcd60e51b815260206004820152602b60248201527f4261736541737365743a206173736574466163746f727920697320746865207a60448201526a65726f206164647265737360a81b60648201526084015b60405180910390fd5b60208101516001600160a01b03166200011e5760405162461bcd60e51b815260206004820152602c60248201527f4261736541737365743a2061737365745265676973747279206973207468652060448201526b7a65726f206164647265737360a01b6064820152608401620000a4565b60408101516001600160a01b0316620001905760405162461bcd60e51b815260206004820152602d60248201527f4261736541737365743a2061766174617252656769737472792069732074686560448201526c207a65726f206164647265737360981b6064820152608401620000a4565b60608101516001600160a01b0316620002065760405162461bcd60e51b815260206004820152603160248201527f4261736541737365743a20657870657269656e6365526567697374727920697360448201527020746865207a65726f206164647265737360781b6064820152608401620000a4565b80516001600160a01b039081166080526020820151811660a0526040820151811660c0526060909101511660e05250620002ec565b80516001600160a01b03811681146200025357600080fd5b919050565b6000608082840312156200026b57600080fd5b604051608081016001600160401b03811182821017156200029c57634e487b7160e01b600052604160045260246000fd5b604052620002aa836200023b565b8152620002ba602084016200023b565b6020820152620002cd604084016200023b565b6040820152620002e0606084016200023b565b60608201529392505050565b60805160a05160c05160e051612ab76200034260003960006103a20152600081816104a501526114520152600081816103d1015261083e01526000818161046b015281816108b60152610af00152612ab76000f3fe608060405234801561001057600080fd5b50600436106102115760003560e01c80636352211e11610125578063a22cb465116100ad578063c3acb4d11161007c578063c3acb4d114610466578063c87b56dd1461048d578063e3d7ad73146104a0578063e517fedd146104c7578063e985e9c5146104cf57600080fd5b8063a22cb46514610424578063b4e75b9b14610432578063b510391f14610445578063b88d4fde1461045857600080fd5b80638f09a6be116100f45780638f09a6be1461039d57806395d89b41146103c4578063979d7e86146103cc5780639a973844146103f35780639e54c0a21461040657600080fd5b80636352211e1461035c57806370a082311461036f5780637b4e04e8146103825780637f5a7c7b1461039557600080fd5b806323b872dd116101a85780633fa47f17116101775780633fa47f171461030857806342842e0e1461031b5780634ddf47d41461032e57806354fd4d501461034157806361f3fcb21461034957600080fd5b806323b872dd146102cc57806325394645146102da5780632663d1f7146102ed578063378f17ff1461030057600080fd5b8063095ea7b3116101e4578063095ea7b3146102885780630ac7f5611461029b5780631d143848146102b157806322d34932146102b957600080fd5b806301ffc9a714610216578063021665b71461023e57806306fdde0314610248578063081812fc1461025d575b600080fd5b610229610224366004611fd8565b6104e2565b60405190151581526020015b60405180910390f35b610246610534565b005b6102506105cb565b6040516102359190612045565b61027061026b366004612058565b610666565b6040516001600160a01b039091168152602001610235565b610246610296366004612096565b61067b565b6102a36106cf565b604051908152602001610235565b6102706106e2565b6102466102c73660046120c2565b6106fe565b6102466102963660046120df565b6102466102e8366004612168565b6107f4565b6102466102fb3660046120c2565b6108ab565b610246610994565b610229610316366004612217565b610a22565b6102466103293660046120df565b610ac5565b61024661033c36600461232b565b610ae5565b6102a3600181565b61025061035736600461235f565b610eb3565b61027061036a366004612058565b610edc565b6102a361037d3660046120c2565b610ee7565b6102466103903660046120c2565b610f4e565b61027061103f565b6102707f000000000000000000000000000000000000000000000000000000000000000081565b61025061105b565b6102707f000000000000000000000000000000000000000000000000000000000000000081565b61024661040136600461243f565b611073565b61022961041436600461243f565b50506001600160a01b0316151590565b6102466102963660046124a1565b610229610440366004612217565b611299565b61024661045336600461243f565b6112f4565b6102466102963660046124da565b6102707f000000000000000000000000000000000000000000000000000000000000000081565b61025061049b366004612058565b61155c565b6102707f000000000000000000000000000000000000000000000000000000000000000081565b6102706115c3565b6102296104dd366004612545565b6115e1565b60006001600160e01b031982166380ac58cd60e01b148061051357506001600160e01b03198216635b5e139f60e01b145b8061052e57506001600160e01b031982166301ffc9a760e01b145b92915050565b61053c61162e565b600101546001600160a01b031633146105705760405162461bcd60e51b815260040161056790612573565b60405180910390fd5b600061057a61162e565b60038101546040519192506001600160a01b03169081907f2df08b6a3a4aed918c51e7ac3bbbe4f82bb09d26fef89a0c23ddc38c1a3c385b90600090a25060030180546001600160a01b0319169055565b60606105d561162e565b60050180546105e3906125aa565b80601f016020809104026020016040519081016040528092919081815260200182805461060f906125aa565b801561065c5780601f106106315761010080835404028352916020019161065c565b820191906000526020600020905b81548152906001019060200180831161063f57829003601f168201915b5050505050905090565b600061067182611652565b5061052e8261168a565b60405162461bcd60e51b815260206004820152602360248201527f4e544552433732313a20746f6b656e206973206e6f6e2d7472616e7366657261604482015262626c6560e81b6064820152608401610567565b60006106d961162e565b60040154905090565b60006106ec61162e565b600101546001600160a01b0316919050565b61070661162e565b600101546001600160a01b031633146107315760405162461bcd60e51b815260040161056790612573565b600061073b61162e565b90506001600160a01b0382166107a75760405162461bcd60e51b815260206004820152602b60248201527f4261736541737365743a20636f6e646974696f6e2063616e6e6f74206265207a60448201526a65726f206164647265737360a81b6064820152608401610567565b6003810180546001600160a01b0319166001600160a01b0384169081179091556040517fb17f5e42ddd024b71620166aeff196e5f40a39a3d7fe8082929e768015fbf7c190600090a25050565b6107fc61162e565b600101546001600160a01b031633146108275760405162461bcd60e51b815260040161056790612573565b604051633cbd429360e01b81526001600160a01b037f00000000000000000000000000000000000000000000000000000000000000001690633cbd42939061087590859085906004016125e4565b600060405180830381600087803b15801561088f57600080fd5b505af11580156108a3573d6000803e3d6000fd5b505050505050565b336001600160a01b037f000000000000000000000000000000000000000000000000000000000000000016146109235760405162461bcd60e51b815260206004820152601f60248201527f4261736541737365743a206f6e6c7920666163746f727920616c6c6f776564006044820152606401610567565b7f1f07e7b49187e1cf67924ca1fa35732211c5bb2c23b6b53ee47453438de7285e80546001600160a01b031981166001600160a01b03848116918217845560405192169182907f9603bf83c2911c6b0dd953eb62e0804c697e90855fa1007b93c0964cb39d8e1690600090a3505050565b61099c61162e565b600101546001600160a01b031633146109c75760405162461bcd60e51b815260040161056790612573565b60006109d161162e565b60028101546040519192506001600160a01b03169081907f94dff9f830507f1f2b72515aaaaa174f690a73801b6ab87ae6d75e584de177c890600090a25060020180546001600160a01b0319169055565b600080610a2d61162e565b60038101549091506001600160a01b0316610a4b5750600192915050565b60038101546040516377b63b9160e11b81526001600160a01b039091169063ef6c772290610a7d908690600401612613565b602060405180830381865afa158015610a9a573d6000803e3d6000fd5b505050506040513d601f19601f82011682018060405250810190610abe919061265a565b9392505050565b610ae08383836040518060200160405280600081525061067b565b505050565b336001600160a01b037f00000000000000000000000000000000000000000000000000000000000000001614610b5d5760405162461bcd60e51b815260206004820152601f60248201527f4261736541737365743a206f6e6c7920666163746f727920616c6c6f776564006044820152606401610567565b600081806020019051810190610b7391906126c7565b80519091506001600160a01b0316610bd95760405162461bcd60e51b8152602060048201526024808201527f4e544552433732313a2069737375657220697320746865207a65726f206164646044820152637265737360e01b6064820152608401610567565b600081606001515111610c2e5760405162461bcd60e51b815260206004820152601760248201527f4e544552433732313a206e616d6520697320656d7074790000000000000000006044820152606401610567565b600081608001515111610c835760405162461bcd60e51b815260206004820152601960248201527f4e544552433732313a2073796d626f6c20697320656d707479000000000000006044820152606401610567565b60008160a001515111610cd85760405162461bcd60e51b815260206004820152601a60248201527f4e544552433732313a206261736555524920697320656d7074790000000000006044820152606401610567565b60208101516001600160a01b0316610d4b5760405162461bcd60e51b815260206004820152603060248201527f4e544552433732313a206f726967696e436861696e416464726573732069732060448201526f746865207a65726f206164647265737360801b6064820152608401610567565b6000816040015111610d9f5760405162461bcd60e51b815260206004820152601f60248201527f4e544552433732313a206f726967696e436861696e4964206973207a65726f006044820152606401610567565b80517fe4601683e66aea7671ff73b360b1d51806ae4f53b8823a6b0aac4436f7c181ee80546001600160a01b039283166001600160a01b031990911617905560208201517fe4601683e66aea7671ff73b360b1d51806ae4f53b8823a6b0aac4436f7c181ed80549190921661010002610100600160a81b031990911617905560408101517fe4601683e66aea7671ff73b360b1d51806ae4f53b8823a6b0aac4436f7c181f1556060810151600080516020612a62833981519152907fe4601683e66aea7671ff73b360b1d51806ae4f53b8823a6b0aac4436f7c181f290610e8690826127e0565b506080820151600c820190610e9b90826127e0565b5060a08201518190610ead90826127e0565b50505050565b606081604051602001610ec6919061289f565b6040516020818303038152906040529050919050565b600061052e82611652565b60006001600160a01b038216610f13576040516322718ad960e21b815260006004820152602401610567565b506001600160a01b031660009081527fe4601683e66aea7671ff73b360b1d51806ae4f53b8823a6b0aac4436f7c181ea602052604090205490565b610f5661162e565b600101546001600160a01b03163314610f815760405162461bcd60e51b815260040161056790612573565b6000610f8b61162e565b90506001600160a01b038216610ff25760405162461bcd60e51b815260206004820152602660248201527f4261736541737365743a20686f6f6b2063616e6e6f74206265207a65726f206160448201526564647265737360d01b6064820152608401610567565b6002810180546001600160a01b0319166001600160a01b0384169081179091556040517ff716b9f35a5af170228b0c97201cc581ce2ca1703824fd6b78f3583f28f7eedc90600090a25050565b600061104961162e565b600201546001600160a01b0316919050565b606061106561162e565b60060180546105e3906125aa565b61107b6116c4565b61108361162e565b600101546001600160a01b031633146110ae5760405162461bcd60e51b815260040161056790612573565b60006110bc82840184612058565b90506001600160a01b0384166111205760405162461bcd60e51b815260206004820152602360248201527f4e5445524337323141737365743a20746f6b656e20646f6573206e6f742065786044820152621a5cdd60ea1b6064820152608401610567565b836001600160a01b0316611133826116ee565b6001600160a01b0316146111a35760405162461bcd60e51b815260206004820152603160248201527f4e5445524337323141737365743a206e6f7420746865206f776e6572206f66206044820152701d1bdad95b881a59081c1c9bdd9a591959607a1b6064820152608401610567565b7fe4601683e66aea7671ff73b360b1d51806ae4f53b8823a6b0aac4436f7c181ef54600080516020612a62833981519152906001600160a01b0316156112845760088101546040516335661e9560e21b81523060048201526001600160a01b03878116602483015260448201859052600092169063d5987a54906064016020604051808303816000875af115801561123f573d6000803e3d6000fd5b505050506040513d601f19601f82011682018060405250810190611263919061265a565b9050806112825760405162461bcd60e51b81526004016105679061292a565b505b61128d82611728565b5050610ae06001600055565b6000806112a461162e565b60038101549091506001600160a01b03166112c25750600192915050565b600381015460405163eab4ad0360e01b81526001600160a01b039091169063eab4ad0390610a7d908690600401612613565b6112fc6116c4565b61130461162e565b600101546001600160a01b0316331461132f5760405162461bcd60e51b815260040161056790612573565b7fe4601683e66aea7671ff73b360b1d51806ae4f53b8823a6b0aac4436f7c181ef54600080516020612a62833981519152906001600160a01b0316156114335760088101546001808301546000926001600160a01b0316916386b84187913091899161139a9161298f565b6040516001600160e01b031960e086901b1681526001600160a01b03938416600482015292909116602483015260448201526064016020604051808303816000875af11580156113ee573d6000803e3d6000fd5b505050506040513d601f19601f82011682018060405250810190611412919061265a565b9050806114315760405162461bcd60e51b81526004016105679061292a565b505b604051632b0fe8e760e21b81526001600160a01b0385811660048301527f0000000000000000000000000000000000000000000000000000000000000000169063ac3fa39c90602401602060405180830381865afa158015611499573d6000803e3d6000fd5b505050506040513d601f19601f820116820180604052508101906114bd919061265a565b15611538576000849050806001600160a01b031663181d939b6040518163ffffffff1660e01b8152600401602060405180830381865afa158015611505573d6000803e3d6000fd5b505050506040513d601f19601f82011682018060405250810190611529919061265a565b6115365761153685611767565b505b8060010160008154611549906129a2565b90915550600181015461128d8582611939565b606061156782611652565b506000611572611953565b905060008151116115925760405180602001604052806000815250610abe565b8061159c8461196f565b6040516020016115ad9291906129bb565b6040516020818303038152906040529392505050565b60006115cd61162e565b5461010090046001600160a01b0316919050565b6001600160a01b0391821660009081527fe4601683e66aea7671ff73b360b1d51806ae4f53b8823a6b0aac4436f7c181ec6020908152604080832093909416825291909152205460ff1690565b7fe4601683e66aea7671ff73b360b1d51806ae4f53b8823a6b0aac4436f7c181ed90565b60008061165e836116ee565b90506001600160a01b03811661052e57604051637e27328960e01b815260048101849052602401610567565b60009081527fe4601683e66aea7671ff73b360b1d51806ae4f53b8823a6b0aac4436f7c181eb60205260409020546001600160a01b031690565b6002600054036116e757604051633ee5aeb560e01b815260040160405180910390fd5b6002600055565b60009081527fe4601683e66aea7671ff73b360b1d51806ae4f53b8823a6b0aac4436f7c181e960205260409020546001600160a01b031690565b60006117376000836000611a01565b90506001600160a01b03811661176357604051637e27328960e01b815260048101839052602401610567565b5050565b6000816001600160a01b031663516f279e6040518163ffffffff1660e01b8152600401602060405180830381865afa1580156117a7573d6000803e3d6000fd5b505050506040513d601f19601f820116820180604052508101906117cb91906129ea565b905060006117d761162e565b90506001600160a01b0382166118395760405162461bcd60e51b815260206004820152602160248201527f4261736541737365743a2061766174617220686173206e6f206c6f636174696f6044820152603760f91b6064820152608401610567565b600181015460408051636904c94d60e01b815290516001600160a01b0392831692851691636904c94d9160048083019260209291908290030181865afa158015611887573d6000803e3d6000fd5b505050506040513d601f19601f820116820180604052508101906118ab91906129ea565b6001600160a01b031614610ae05760405162461bcd60e51b815260206004820152604960248201527f4261736541737365743a2061766174617220646f6573206e6f7420616c6c6f7760448201527f20617373657473206f757473696465206f66206974732063757272656e7420656064820152687870657269656e636560b81b608482015260a401610567565b611763828260405180602001604052806000815250611b0b565b6060600080516020612a6283398151915280546105e3906125aa565b6060600061197c83611b22565b60010190506000816001600160401b0381111561199b5761199b6121a9565b6040519080825280601f01601f1916602001820160405280156119c5576020820181803683370190505b5090508181016020015b600019016f181899199a1a9b1b9c1cb0b131b232b360811b600a86061a8153600a85049450846119cf57509392505050565b600080611a0d846116ee565b9050600080516020612a628339815191526001600160a01b03841615611a3857611a38828587611bfa565b6001600160a01b03821615611a7857611a55600086600080611c5e565b6001600160a01b0382166000908152600382016020526040902080546000190190555b6001600160a01b03861615611aa9576001600160a01b03861660009081526003820160205260409020805460010190555b600085815260028201602052604080822080546001600160a01b0319166001600160a01b038a811691821790925591518893918616917fddf252ad1be2c89b69c2b068fc378daa952ba7f163c4a11628f55a4df523b3ef91a450949350505050565b611b158383611d83565b610ae06000848484611e30565b60008072184f03e93ff9f4daa797ed6e38ed64bf6a1f0160401b8310611b615772184f03e93ff9f4daa797ed6e38ed64bf6a1f0160401b830492506040015b6d04ee2d6d415b85acef81000000008310611b8d576d04ee2d6d415b85acef8100000000830492506020015b662386f26fc100008310611bab57662386f26fc10000830492506010015b6305f5e1008310611bc3576305f5e100830492506008015b6127108310611bd757612710830492506004015b60648310611be9576064830492506002015b600a831061052e5760010192915050565b611c05838383611f59565b610ae0576001600160a01b038316611c3357604051637e27328960e01b815260048101829052602401610567565b60405163177e802f60e01b81526001600160a01b038316600482015260248101829052604401610567565b8080611c7257506001600160a01b03821615155b15611d34576000611c8284611652565b90506001600160a01b03831615801590611cae5750826001600160a01b0316816001600160a01b031614155b8015611cc15750611cbf81846115e1565b155b15611cea5760405163a9fbf51f60e01b81526001600160a01b0384166004820152602401610567565b8115611d325783856001600160a01b0316826001600160a01b03167f8c5be1e5ebec7d5bd14f71427d1e84f3dd0314c0f7b2291e5b200ac8c7c3b92560405160405180910390a45b505b505060009081527fe4601683e66aea7671ff73b360b1d51806ae4f53b8823a6b0aac4436f7c181eb6020526040902080546001600160a01b0319166001600160a01b0392909216919091179055565b6001600160a01b038216611dad57604051633250574960e11b815260006004820152602401610567565b6000611dbb83836000611a01565b90506001600160a01b03811615611de8576040516339e3563760e11b815260006004820152602401610567565b826001600160a01b03167f1292a1381d69fd0f033102672143fff68d426b4b73eb1fa4df2620aeed9a299483604051611e2391815260200190565b60405180910390a2505050565b6001600160a01b0383163b15610ead57604051630a85bd0160e11b81526001600160a01b0384169063150b7a0290611e72903390889087908790600401612a07565b6020604051808303816000875af1925050508015611ead575060408051601f3d908101601f19168201909252611eaa91810190612a44565b60015b611f16573d808015611edb576040519150601f19603f3d011682016040523d82523d6000602084013e611ee0565b606091505b508051600003611f0e57604051633250574960e11b81526001600160a01b0385166004820152602401610567565b805181602001fd5b6001600160e01b03198116630a85bd0160e11b14611f5257604051633250574960e11b81526001600160a01b0385166004820152602401610567565b5050505050565b60006001600160a01b03831615801590611fb75750826001600160a01b0316846001600160a01b03161480611f935750611f9384846115e1565b80611fb75750826001600160a01b0316611fac8361168a565b6001600160a01b0316145b949350505050565b6001600160e01b031981168114611fd557600080fd5b50565b600060208284031215611fea57600080fd5b8135610abe81611fbf565b60005b83811015612010578181015183820152602001611ff8565b50506000910152565b60008151808452612031816020860160208601611ff5565b601f01601f19169290920160200192915050565b602081526000610abe6020830184612019565b60006020828403121561206a57600080fd5b5035919050565b6001600160a01b0381168114611fd557600080fd5b803561209181612071565b919050565b600080604083850312156120a957600080fd5b82356120b481612071565b946020939093013593505050565b6000602082840312156120d457600080fd5b8135610abe81612071565b6000806000606084860312156120f457600080fd5b83356120ff81612071565b9250602084013561210f81612071565b929592945050506040919091013590565b60008083601f84011261213257600080fd5b5081356001600160401b0381111561214957600080fd5b60208301915083602082850101111561216157600080fd5b9250929050565b6000806020838503121561217b57600080fd5b82356001600160401b0381111561219157600080fd5b61219d85828601612120565b90969095509350505050565b634e487b7160e01b600052604160045260246000fd5b60405160c081016001600160401b03811182821017156121e1576121e16121a9565b60405290565b604051601f8201601f191681016001600160401b038111828210171561220f5761220f6121a9565b604052919050565b600060a0828403121561222957600080fd5b60405160a081018181106001600160401b038211171561224b5761224b6121a9565b604052823561225981612071565b8152602083013561226981612071565b6020820152604083013561227c81612071565b6040820152606083013561228f81612071565b606082015260808301356122a281612071565b60808201529392505050565b60006001600160401b038211156122c7576122c76121a9565b50601f01601f191660200190565b600082601f8301126122e657600080fd5b81356122f96122f4826122ae565b6121e7565b81815284602083860101111561230e57600080fd5b816020850160208301376000918101602001919091529392505050565b60006020828403121561233d57600080fd5b81356001600160401b0381111561235357600080fd5b611fb7848285016122d5565b60006020828403121561237157600080fd5b81356001600160401b038082111561238857600080fd5b9083019060c0828603121561239c57600080fd5b6123a46121bf565b6123ad83612086565b81526123bb60208401612086565b6020820152604083013560408201526060830135828111156123dc57600080fd5b6123e8878286016122d5565b60608301525060808301358281111561240057600080fd5b61240c878286016122d5565b60808301525060a08301358281111561242457600080fd5b612430878286016122d5565b60a08301525095945050505050565b60008060006040848603121561245457600080fd5b833561245f81612071565b925060208401356001600160401b0381111561247a57600080fd5b61248686828701612120565b9497909650939450505050565b8015158114611fd557600080fd5b600080604083850312156124b457600080fd5b82356124bf81612071565b915060208301356124cf81612493565b809150509250929050565b600080600080608085870312156124f057600080fd5b84356124fb81612071565b9350602085013561250b81612071565b92506040850135915060608501356001600160401b0381111561252d57600080fd5b612539878288016122d5565b91505092959194509250565b6000806040838503121561255857600080fd5b823561256381612071565b915060208301356124cf81612071565b6020808252601e908201527f4261736541737365743a206f6e6c792069737375657220616c6c6f7765640000604082015260600190565b600181811c908216806125be57607f821691505b6020821081036125de57634e487b7160e01b600052602260045260246000fd5b50919050565b60208152816020820152818360408301376000818301604090810191909152601f909201601f19160101919050565b81516001600160a01b039081168252602080840151821690830152604080840151821690830152606080840151821690830152608092830151169181019190915260a00190565b60006020828403121561266c57600080fd5b8151610abe81612493565b805161209181612071565b600082601f83011261269357600080fd5b81516126a16122f4826122ae565b8181528460208386010111156126b657600080fd5b611fb7826020830160208701611ff5565b6000602082840312156126d957600080fd5b81516001600160401b03808211156126f057600080fd5b9083019060c0828603121561270457600080fd5b61270c6121bf565b61271583612677565b815261272360208401612677565b60208201526040830151604082015260608301518281111561274457600080fd5b61275087828601612682565b60608301525060808301518281111561276857600080fd5b61277487828601612682565b60808301525060a08301518281111561278c57600080fd5b61243087828601612682565b601f821115610ae0576000816000526020600020601f850160051c810160208610156127c15750805b601f850160051c820191505b818110156108a3578281556001016127cd565b81516001600160401b038111156127f9576127f96121a9565b61280d8161280784546125aa565b84612798565b602080601f831160018114612842576000841561282a5750858301515b600019600386901b1c1916600185901b1785556108a3565b600085815260208120601f198616915b8281101561287157888601518255948401946001909101908401612852565b508582101561288f5787850151600019600388901b60f8161c191681555b5050505050600190811b01905550565b60208152600060018060a01b038084511660208401528060208501511660408401525060408301516060830152606083015160c060808401526128e560e0840182612019565b90506080840151601f19808584030160a08601526129038383612019565b925060a08601519150808584030160c0860152506129218282612019565b95945050505050565b6020808252602f908201527f4e5445524337323141737365743a206265666f72654d696e7420686f6f6b207260408201526e195a9958dd1959081c995c5d595cdd608a1b606082015260800190565b634e487b7160e01b600052601160045260246000fd5b8082018082111561052e5761052e612979565b6000600182016129b4576129b4612979565b5060010190565b600083516129cd818460208801611ff5565b8351908301906129e1818360208801611ff5565b01949350505050565b6000602082840312156129fc57600080fd5b8151610abe81612071565b6001600160a01b0385811682528416602082015260408101839052608060608201819052600090612a3a90830184612019565b9695505050505050565b600060208284031215612a5657600080fd5b8151610abe81611fbf56fee4601683e66aea7671ff73b360b1d51806ae4f53b8823a6b0aac4436f7c181e7a2646970667358221220ed7eef70dd68f1e5f4971fcdc48c03889dabb1bda17e8e10500b318d56f044b564736f6c63430008180033",
  "linkReferences": {},
  "deployedLinkReferences": {}
}