{
  "_format": "hh-sol-artifact-1",
  "contractName": "NTERC721Asset",
  "sourceName": "contracts/asset/erc721/NTERC721Asset.sol",
  "abi": [
    {
      "inputs": [
        {
          "components": [
            {
              "internalType": "address",
              "name": "assetFactory",
              "type": "address"
            },
            {
              "internalType": "address",
              "name": "assetRegistry",
              "type": "address"
            },
            {
              "internalType": "address",
              "name": "avatarRegistry",
              "type": "address"
            },
            {
              "internalType": "address",
              "name": "companyRegistry",
              "type": "address"
            }
          ],
          "internalType": "struct BaseAssetArgs",
          "name": "args",
          "type": "tuple"
        }
      ],
      "stateMutability": "nonpayable",
      "type": "constructor"
    },
    {
      "inputs": [
        {
          "internalType": "address",
          "name": "sender",
          "type": "address"
        },
        {
          "internalType": "uint256",
          "name": "tokenId",
          "type": "uint256"
        },
        {
          "internalType": "address",
          "name": "owner",
          "type": "address"
        }
      ],
      "name": "ERC721IncorrectOwner",
      "type": "error"
    },
    {
      "inputs": [
        {
          "internalType": "address",
          "name": "operator",
          "type": "address"
        },
        {
          "internalType": "uint256",
          "name": "tokenId",
          "type": "uint256"
        }
      ],
      "name": "ERC721InsufficientApproval",
      "type": "error"
    },
    {
      "inputs": [
        {
          "internalType": "address",
          "name": "approver",
          "type": "address"
        }
      ],
      "name": "ERC721InvalidApprover",
      "type": "error"
    },
    {
      "inputs": [
        {
          "internalType": "address",
          "name": "operator",
          "type": "address"
        }
      ],
      "name": "ERC721InvalidOperator",
      "type": "error"
    },
    {
      "inputs": [
        {
          "internalType": "address",
          "name": "owner",
          "type": "address"
        }
      ],
      "name": "ERC721InvalidOwner",
      "type": "error"
    },
    {
      "inputs": [
        {
          "internalType": "address",
          "name": "receiver",
          "type": "address"
        }
      ],
      "name": "ERC721InvalidReceiver",
      "type": "error"
    },
    {
      "inputs": [
        {
          "internalType": "address",
          "name": "sender",
          "type": "address"
        }
      ],
      "name": "ERC721InvalidSender",
      "type": "error"
    },
    {
      "inputs": [
        {
          "internalType": "uint256",
          "name": "tokenId",
          "type": "uint256"
        }
      ],
      "name": "ERC721NonexistentToken",
      "type": "error"
    },
    {
      "inputs": [],
      "name": "ReentrancyGuardReentrantCall",
      "type": "error"
    },
    {
      "anonymous": false,
      "inputs": [
        {
          "indexed": true,
          "internalType": "address",
          "name": "owner",
          "type": "address"
        },
        {
          "indexed": true,
          "internalType": "address",
          "name": "approved",
          "type": "address"
        },
        {
          "indexed": true,
          "internalType": "uint256",
          "name": "tokenId",
          "type": "uint256"
        }
      ],
      "name": "Approval",
      "type": "event"
    },
    {
      "anonymous": false,
      "inputs": [
        {
          "indexed": true,
          "internalType": "address",
          "name": "owner",
          "type": "address"
        },
        {
          "indexed": true,
          "internalType": "address",
          "name": "operator",
          "type": "address"
        },
        {
          "indexed": false,
          "internalType": "bool",
          "name": "approved",
          "type": "bool"
        }
      ],
      "name": "ApprovalForAll",
      "type": "event"
    },
    {
      "anonymous": false,
      "inputs": [
        {
          "indexed": true,
          "internalType": "address",
          "name": "condition",
          "type": "address"
        }
      ],
      "name": "AssetConditionAdded",
      "type": "event"
    },
    {
      "anonymous": false,
      "inputs": [
        {
          "indexed": true,
          "internalType": "address",
          "name": "condition",
          "type": "address"
        }
      ],
      "name": "AssetConditionRemoved",
      "type": "event"
    },
    {
      "anonymous": false,
      "inputs": [
        {
          "indexed": true,
          "internalType": "address",
          "name": "hook",
          "type": "address"
        }
      ],
      "name": "AssetHookAdded",
      "type": "event"
    },
    {
      "anonymous": false,
      "inputs": [
        {
          "indexed": true,
          "internalType": "address",
          "name": "hook",
          "type": "address"
        }
      ],
      "name": "AssetHookRemoved",
      "type": "event"
    },
    {
      "anonymous": false,
      "inputs": [
        {
          "indexed": true,
          "internalType": "address",
          "name": "to",
          "type": "address"
        },
        {
          "indexed": false,
          "internalType": "uint256",
          "name": "tokenId",
          "type": "uint256"
        }
      ],
      "name": "ERC721Minted",
      "type": "event"
    },
    {
      "anonymous": false,
      "inputs": [
        {
          "indexed": true,
          "internalType": "address",
          "name": "oldAsset",
          "type": "address"
        },
        {
          "indexed": true,
          "internalType": "address",
          "name": "newAsset",
          "type": "address"
        }
      ],
      "name": "ERC721Upgraded",
      "type": "event"
    },
    {
      "anonymous": false,
      "inputs": [
        {
          "indexed": true,
          "internalType": "address",
          "name": "from",
          "type": "address"
        },
        {
          "indexed": true,
          "internalType": "address",
          "name": "to",
          "type": "address"
        },
        {
          "indexed": true,
          "internalType": "uint256",
          "name": "tokenId",
          "type": "uint256"
        }
      ],
      "name": "Transfer",
      "type": "event"
    },
    {
      "inputs": [
        {
          "internalType": "contract IAssetCondition",
          "name": "condition",
          "type": "address"
        }
      ],
      "name": "addCondition",
      "outputs": [],
      "stateMutability": "nonpayable",
      "type": "function"
    },
    {
      "inputs": [
        {
          "internalType": "contract IAssetHook",
          "name": "_hook",
          "type": "address"
        }
      ],
      "name": "addHook",
      "outputs": [],
      "stateMutability": "nonpayable",
      "type": "function"
    },
    {
      "inputs": [
        {
          "internalType": "address",
          "name": "",
          "type": "address"
        },
        {
          "internalType": "uint256",
          "name": "",
          "type": "uint256"
        }
      ],
      "name": "approve",
      "outputs": [],
      "stateMutability": "nonpayable",
      "type": "function"
    },
    {
      "inputs": [],
      "name": "assetFactory",
      "outputs": [
        {
          "internalType": "address",
          "name": "",
          "type": "address"
        }
      ],
      "stateMutability": "view",
      "type": "function"
    },
    {
      "inputs": [],
      "name": "assetRegistry",
      "outputs": [
        {
          "internalType": "address",
          "name": "",
          "type": "address"
        }
      ],
      "stateMutability": "view",
      "type": "function"
    },
    {
      "inputs": [],
      "name": "avatarRegistry",
      "outputs": [
        {
          "internalType": "contract IAvatarRegistry",
          "name": "",
          "type": "address"
        }
      ],
      "stateMutability": "view",
      "type": "function"
    },
    {
      "inputs": [
        {
          "internalType": "address",
          "name": "owner",
          "type": "address"
        }
      ],
      "name": "balanceOf",
      "outputs": [
        {
          "internalType": "uint256",
          "name": "",
          "type": "uint256"
        }
      ],
      "stateMutability": "view",
      "type": "function"
    },
    {
      "inputs": [
        {
          "internalType": "address",
          "name": "to",
          "type": "address"
        },
        {
          "internalType": "bytes",
          "name": "",
          "type": "bytes"
        }
      ],
      "name": "canMint",
      "outputs": [
        {
          "internalType": "bool",
          "name": "",
          "type": "bool"
        }
      ],
      "stateMutability": "view",
      "type": "function"
    },
    {
      "inputs": [
        {
          "components": [
            {
              "internalType": "address",
              "name": "asset",
              "type": "address"
            },
            {
              "internalType": "address",
              "name": "world",
              "type": "address"
            },
            {
              "internalType": "address",
              "name": "company",
              "type": "address"
            },
            {
              "internalType": "address",
              "name": "experience",
              "type": "address"
            },
            {
              "internalType": "address",
              "name": "avatar",
              "type": "address"
            }
          ],
          "internalType": "struct AssetCheckArgs",
          "name": "args",
          "type": "tuple"
        }
      ],
      "name": "canUseAsset",
      "outputs": [
        {
          "internalType": "bool",
          "name": "",
          "type": "bool"
        }
      ],
      "stateMutability": "view",
      "type": "function"
    },
    {
      "inputs": [
        {
          "components": [
            {
              "internalType": "address",
              "name": "asset",
              "type": "address"
            },
            {
              "internalType": "address",
              "name": "world",
              "type": "address"
            },
            {
              "internalType": "address",
              "name": "company",
              "type": "address"
            },
            {
              "internalType": "address",
              "name": "experience",
              "type": "address"
            },
            {
              "internalType": "address",
              "name": "avatar",
              "type": "address"
            }
          ],
          "internalType": "struct AssetCheckArgs",
          "name": "args",
          "type": "tuple"
        }
      ],
      "name": "canViewAsset",
      "outputs": [
        {
          "internalType": "bool",
          "name": "",
          "type": "bool"
        }
      ],
      "stateMutability": "view",
      "type": "function"
    },
    {
      "inputs": [],
      "name": "companyRegistry",
      "outputs": [
        {
          "internalType": "contract ICompanyRegistry",
          "name": "",
          "type": "address"
        }
      ],
      "stateMutability": "view",
      "type": "function"
    },
    {
      "inputs": [
        {
          "components": [
            {
              "internalType": "address",
              "name": "issuer",
              "type": "address"
            },
            {
              "internalType": "address",
              "name": "originChainAddress",
              "type": "address"
            },
            {
              "internalType": "uint256",
              "name": "originChainId",
              "type": "uint256"
            },
            {
              "internalType": "string",
              "name": "name",
              "type": "string"
            },
            {
              "internalType": "string",
              "name": "symbol",
              "type": "string"
            },
            {
              "internalType": "string",
              "name": "baseURI",
              "type": "string"
            }
          ],
          "internalType": "struct ERC721InitData",
          "name": "data",
          "type": "tuple"
        }
      ],
      "name": "encodeInitData",
      "outputs": [
        {
          "internalType": "bytes",
          "name": "",
          "type": "bytes"
        }
      ],
      "stateMutability": "pure",
      "type": "function"
    },
    {
      "inputs": [
        {
          "internalType": "uint256",
          "name": "tokenId",
          "type": "uint256"
        }
      ],
      "name": "getApproved",
      "outputs": [
        {
          "internalType": "address",
          "name": "",
          "type": "address"
        }
      ],
      "stateMutability": "view",
      "type": "function"
    },
    {
      "inputs": [],
      "name": "hook",
      "outputs": [
        {
          "internalType": "contract IAssetHook",
          "name": "",
          "type": "address"
        }
      ],
      "stateMutability": "view",
      "type": "function"
    },
    {
      "inputs": [
        {
          "internalType": "bytes",
          "name": "initData",
          "type": "bytes"
        }
      ],
      "name": "init",
      "outputs": [],
      "stateMutability": "nonpayable",
      "type": "function"
    },
    {
      "inputs": [
        {
          "internalType": "address",
          "name": "owner",
          "type": "address"
        },
        {
          "internalType": "address",
          "name": "operator",
          "type": "address"
        }
      ],
      "name": "isApprovedForAll",
      "outputs": [
        {
          "internalType": "bool",
          "name": "",
          "type": "bool"
        }
      ],
      "stateMutability": "view",
      "type": "function"
    },
    {
      "inputs": [],
      "name": "issuer",
      "outputs": [
        {
          "internalType": "address",
          "name": "",
          "type": "address"
        }
      ],
      "stateMutability": "view",
      "type": "function"
    },
    {
      "inputs": [
        {
          "internalType": "address",
          "name": "to",
          "type": "address"
        },
        {
          "internalType": "bytes",
          "name": "data",
          "type": "bytes"
        }
      ],
      "name": "mint",
      "outputs": [],
      "stateMutability": "nonpayable",
      "type": "function"
    },
    {
      "inputs": [],
      "name": "name",
      "outputs": [
        {
          "internalType": "string",
          "name": "",
          "type": "string"
        }
      ],
      "stateMutability": "view",
      "type": "function"
    },
    {
      "inputs": [],
      "name": "originAddress",
      "outputs": [
        {
          "internalType": "address",
          "name": "",
          "type": "address"
        }
      ],
      "stateMutability": "view",
      "type": "function"
    },
    {
      "inputs": [],
      "name": "originChainId",
      "outputs": [
        {
          "internalType": "uint256",
          "name": "",
          "type": "uint256"
        }
      ],
      "stateMutability": "view",
      "type": "function"
    },
    {
      "inputs": [
        {
          "internalType": "uint256",
          "name": "tokenId",
          "type": "uint256"
        }
      ],
      "name": "ownerOf",
      "outputs": [
        {
          "internalType": "address",
          "name": "",
          "type": "address"
        }
      ],
      "stateMutability": "view",
      "type": "function"
    },
    {
      "inputs": [],
      "name": "removeCondition",
      "outputs": [],
      "stateMutability": "nonpayable",
      "type": "function"
    },
    {
      "inputs": [],
      "name": "removeHook",
      "outputs": [],
      "stateMutability": "nonpayable",
      "type": "function"
    },
    {
      "inputs": [
        {
          "internalType": "address",
          "name": "holder",
          "type": "address"
        },
        {
          "internalType": "bytes",
          "name": "data",
          "type": "bytes"
        }
      ],
      "name": "revoke",
      "outputs": [],
      "stateMutability": "nonpayable",
      "type": "function"
    },
    {
      "inputs": [
        {
          "internalType": "address",
          "name": "from",
          "type": "address"
        },
        {
          "internalType": "address",
          "name": "to",
          "type": "address"
        },
        {
          "internalType": "uint256",
          "name": "tokenId",
          "type": "uint256"
        }
      ],
      "name": "safeTransferFrom",
      "outputs": [],
      "stateMutability": "nonpayable",
      "type": "function"
    },
    {
      "inputs": [
        {
          "internalType": "address",
          "name": "",
          "type": "address"
        },
        {
          "internalType": "address",
          "name": "",
          "type": "address"
        },
        {
          "internalType": "uint256",
          "name": "",
          "type": "uint256"
        },
        {
          "internalType": "bytes",
          "name": "",
          "type": "bytes"
        }
      ],
      "name": "safeTransferFrom",
      "outputs": [],
      "stateMutability": "nonpayable",
      "type": "function"
    },
    {
      "inputs": [
        {
          "internalType": "address",
          "name": "",
          "type": "address"
        },
        {
          "internalType": "bool",
          "name": "",
          "type": "bool"
        }
      ],
      "name": "setApprovalForAll",
      "outputs": [],
      "stateMutability": "nonpayable",
      "type": "function"
    },
    {
      "inputs": [
        {
          "internalType": "bytes4",
          "name": "interfaceId",
          "type": "bytes4"
        }
      ],
      "name": "supportsInterface",
      "outputs": [
        {
          "internalType": "bool",
          "name": "",
          "type": "bool"
        }
      ],
      "stateMutability": "view",
      "type": "function"
    },
    {
      "inputs": [],
      "name": "symbol",
      "outputs": [
        {
          "internalType": "string",
          "name": "",
          "type": "string"
        }
      ],
      "stateMutability": "view",
      "type": "function"
    },
    {
      "inputs": [
        {
          "internalType": "uint256",
          "name": "tokenId",
          "type": "uint256"
        }
      ],
      "name": "tokenURI",
      "outputs": [
        {
          "internalType": "string",
          "name": "",
          "type": "string"
        }
      ],
      "stateMutability": "view",
      "type": "function"
    },
    {
      "inputs": [
        {
          "internalType": "address",
          "name": "",
          "type": "address"
        },
        {
          "internalType": "address",
          "name": "",
          "type": "address"
        },
        {
          "internalType": "uint256",
          "name": "",
          "type": "uint256"
        }
      ],
      "name": "transferFrom",
      "outputs": [],
      "stateMutability": "nonpayable",
      "type": "function"
    },
    {
      "inputs": [
        {
          "internalType": "bytes",
          "name": "data",
          "type": "bytes"
        }
      ],
      "name": "upgrade",
      "outputs": [
        {
          "internalType": "address",
          "name": "",
          "type": "address"
        }
      ],
      "stateMutability": "nonpayable",
      "type": "function"
    },
    {
      "inputs": [
        {
          "internalType": "address",
          "name": "nextVersion",
          "type": "address"
        }
      ],
      "name": "upgradeComplete",
      "outputs": [],
      "stateMutability": "nonpayable",
      "type": "function"
    },
    {
      "inputs": [],
      "name": "version",
      "outputs": [
        {
          "internalType": "uint256",
          "name": "",
          "type": "uint256"
        }
      ],
      "stateMutability": "view",
      "type": "function"
    }
  ],
  "bytecode": "0x6101006040523480156200001257600080fd5b50604051620032c9380380620032c9833981016040819052620000359162000255565b6001600055805181906001600160a01b0316620000ad5760405162461bcd60e51b815260206004820152602b60248201527f4261736541737365743a206173736574466163746f727920697320746865207a60448201526a65726f206164647265737360a81b60648201526084015b60405180910390fd5b60208101516001600160a01b03166200011e5760405162461bcd60e51b815260206004820152602c60248201527f4261736541737365743a2061737365745265676973747279206973207468652060448201526b7a65726f206164647265737360a01b6064820152608401620000a4565b60408101516001600160a01b0316620001905760405162461bcd60e51b815260206004820152602d60248201527f4261736541737365743a2061766174617252656769737472792069732074686560448201526c207a65726f206164647265737360981b6064820152608401620000a4565b60608101516001600160a01b0316620002035760405162461bcd60e51b815260206004820152602e60248201527f4261736541737365743a20636f6d70616e79526567697374727920697320746860448201526d65207a65726f206164647265737360901b6064820152608401620000a4565b80516001600160a01b039081166080526020820151811660a0526040820151811660c0526060909101511660e05250620002e9565b80516001600160a01b03811681146200025057600080fd5b919050565b6000608082840312156200026857600080fd5b604051608081016001600160401b03811182821017156200029957634e487b7160e01b600052604160045260246000fd5b604052620002a78362000238565b8152620002b76020840162000238565b6020820152620002ca6040840162000238565b6040820152620002dd6060840162000238565b60608201529392505050565b60805160a05160c05160e051612f7c6200034d600039600081816104600152610bfe01526000818161049a0152818161140501526115630152600081816103aa0152610835015260008181610439015281816108c10152610af40152612f7c6000f3fe608060405234801561001057600080fd5b50600436106102115760003560e01c80636352211e11610125578063b4e75b9b116100ad578063c51aba2b1161007c578063c51aba2b1461045b578063c87b56dd14610482578063e3d7ad7314610495578063e517fedd146104bc578063e985e9c5146104c457600080fd5b8063b4e75b9b14610400578063b510391f14610413578063b88d4fde14610426578063c3acb4d11461043457600080fd5b806395d89b41116100f457806395d89b411461039d578063979d7e86146103a55780639a973844146103cc5780639e54c0a2146103df578063a22cb465146103f257600080fd5b80636352211e1461035c57806370a082311461036f5780637b4e04e8146103825780637f5a7c7b1461039557600080fd5b806323b872dd116101a85780633fa47f17116101775780633fa47f171461030857806342842e0e1461031b5780634ddf47d41461032e57806354fd4d501461034157806361f3fcb21461034957600080fd5b806323b872dd146102cc57806325394645146102da5780632663d1f7146102ed578063378f17ff1461030057600080fd5b8063095ea7b3116101e4578063095ea7b3146102885780630ac7f5611461029b5780631d143848146102b157806322d34932146102b957600080fd5b806301ffc9a714610216578063021665b71461023e57806306fdde0314610248578063081812fc1461025d575b600080fd5b610229610224366004612447565b6104d7565b60405190151581526020015b60405180910390f35b610246610529565b005b6102506105c0565b60405161023591906124b4565b61027061026b3660046124c7565b61065b565b6040516001600160a01b039091168152602001610235565b610246610296366004612505565b610670565b6102a36106c4565b604051908152602001610235565b6102706106d7565b6102466102c7366004612531565b6106f3565b61024661029636600461254e565b6102706102e83660046125d7565b6107e9565b6102466102fb366004612531565b6108b6565b61024661099f565b610229610316366004612686565b610a2d565b61024661032936600461254e565b610ac9565b61024661033c36600461279a565b610ae9565b6102a3600181565b6102506103573660046127ce565b61100c565b61027061036a3660046124c7565b611035565b6102a361037d366004612531565b611040565b610246610390366004612531565b6110a7565b610270611198565b6102506111b4565b6102707f000000000000000000000000000000000000000000000000000000000000000081565b6102466103da3660046128ae565b6111cc565b6102296103ed3660046128ae565b6114dc565b610246610296366004612910565b61022961040e366004612686565b61173d565b6102466104213660046128ae565b611798565b610246610296366004612949565b6102707f000000000000000000000000000000000000000000000000000000000000000081565b6102707f000000000000000000000000000000000000000000000000000000000000000081565b6102506104903660046124c7565b611960565b6102707f000000000000000000000000000000000000000000000000000000000000000081565b6102706119c7565b6102296104d23660046129b4565b6119e5565b60006001600160e01b031982166380ac58cd60e01b148061050857506001600160e01b03198216635b5e139f60e01b145b8061052357506001600160e01b031982166301ffc9a760e01b145b92915050565b610531611a32565b600101546001600160a01b031633146105655760405162461bcd60e51b815260040161055c906129e2565b60405180910390fd5b600061056f611a32565b60038101546040519192506001600160a01b03169081907f2df08b6a3a4aed918c51e7ac3bbbe4f82bb09d26fef89a0c23ddc38c1a3c385b90600090a25060030180546001600160a01b0319169055565b60606105ca611a32565b60050180546105d890612a19565b80601f016020809104026020016040519081016040528092919081815260200182805461060490612a19565b80156106515780601f1061062657610100808354040283529160200191610651565b820191906000526020600020905b81548152906001019060200180831161063457829003601f168201915b5050505050905090565b600061066682611a56565b5061052382611a8e565b60405162461bcd60e51b815260206004820152602360248201527f4e544552433732313a20746f6b656e206973206e6f6e2d7472616e7366657261604482015262626c6560e81b606482015260840161055c565b60006106ce611a32565b60040154905090565b60006106e1611a32565b600101546001600160a01b0316919050565b6106fb611a32565b600101546001600160a01b031633146107265760405162461bcd60e51b815260040161055c906129e2565b6000610730611a32565b90506001600160a01b03821661079c5760405162461bcd60e51b815260206004820152602b60248201527f4261736541737365743a20636f6e646974696f6e2063616e6e6f74206265207a60448201526a65726f206164647265737360a81b606482015260840161055c565b6003810180546001600160a01b0319166001600160a01b0384169081179091556040517fb17f5e42ddd024b71620166aeff196e5f40a39a3d7fe8082929e768015fbf7c190600090a25050565b60006107f3611a32565b600101546001600160a01b0316331461081e5760405162461bcd60e51b815260040161055c906129e2565b604051633cbd429360e01b81526001600160a01b037f00000000000000000000000000000000000000000000000000000000000000001690633cbd42939061086c9086908690600401612a53565b6020604051808303816000875af115801561088b573d6000803e3d6000fd5b505050506040513d601f19601f820116820180604052508101906108af9190612a8d565b9392505050565b336001600160a01b037f0000000000000000000000000000000000000000000000000000000000000000161461092e5760405162461bcd60e51b815260206004820152601f60248201527f4261736541737365743a206f6e6c7920666163746f727920616c6c6f77656400604482015260640161055c565b7f69198989339f34e10129e514286bde98979351148754faef989dde18bf6d14da80546001600160a01b031981166001600160a01b03848116918217845560405192169182907f9603bf83c2911c6b0dd953eb62e0804c697e90855fa1007b93c0964cb39d8e1690600090a3505050565b6109a7611a32565b600101546001600160a01b031633146109d25760405162461bcd60e51b815260040161055c906129e2565b60006109dc611a32565b60028101546040519192506001600160a01b03169081907f94dff9f830507f1f2b72515aaaaa174f690a73801b6ab87ae6d75e584de177c890600090a25060020180546001600160a01b0319169055565b600080610a38611a32565b60038101549091506001600160a01b0316610a565750600192915050565b60038101546040516377b63b9160e11b81526001600160a01b039091169063ef6c772290610a88908690600401612aaa565b602060405180830381865afa158015610aa5573d6000803e3d6000fd5b505050506040513d601f19601f820116820180604052508101906108af9190612af1565b610ae483838360405180602001604052806000815250610670565b505050565b336001600160a01b037f00000000000000000000000000000000000000000000000000000000000000001614610b615760405162461bcd60e51b815260206004820152601f60248201527f4261736541737365743a206f6e6c7920666163746f727920616c6c6f77656400604482015260640161055c565b600081806020019051810190610b779190612b53565b80519091506001600160a01b0316610bdd5760405162461bcd60e51b8152602060048201526024808201527f4e544552433732313a2069737375657220697320746865207a65726f206164646044820152637265737360e01b606482015260840161055c565b8051604051632405672560e21b81526001600160a01b0391821660048201527f0000000000000000000000000000000000000000000000000000000000000000909116906390159c9490602401602060405180830381865afa158015610c47573d6000803e3d6000fd5b505050506040513d601f19601f82011682018060405250810190610c6b9190612af1565b610cc15760405162461bcd60e51b815260206004820152602160248201527f4e544552433732313a20697373756572206973206e6f74206120636f6d70616e6044820152607960f81b606482015260840161055c565b600081606001515111610d165760405162461bcd60e51b815260206004820152601760248201527f4e544552433732313a206e616d6520697320656d707479000000000000000000604482015260640161055c565b600081608001515111610d6b5760405162461bcd60e51b815260206004820152601960248201527f4e544552433732313a2073796d626f6c20697320656d70747900000000000000604482015260640161055c565b60008160a001515111610dc05760405162461bcd60e51b815260206004820152601a60248201527f4e544552433732313a206261736555524920697320656d707479000000000000604482015260640161055c565b60208101516001600160a01b0316610e335760405162461bcd60e51b815260206004820152603060248201527f4e544552433732313a206f726967696e436861696e416464726573732069732060448201526f746865207a65726f206164647265737360801b606482015260840161055c565b6000816040015111610e875760405162461bcd60e51b815260206004820152601f60248201527f4e544552433732313a206f726967696e436861696e4964206973207a65726f00604482015260640161055c565b7f2db204426804e067e91705d2dda6628a736fec9e9182470f68b797f52d49efa554600080516020612f278339815191529061010090046001600160a01b031615610f205760405162461bcd60e51b815260206004820152602360248201527f4e544552433732313a20617373657420616c726561647920696e697469616c696044820152621e995960ea1b606482015260840161055c565b81516007820180546001600160a01b039283166001600160a01b031990911617905560208301516006830180549190921661010002610100600160a81b03199091161790556040820151600a8201556060820151600b820190610f839082612c74565b506080820151600c820190610f989082612c74565b50610fc08260a00151604051806040016040528060018152602001602f60f81b815250611ac8565b610ffb578160a00151604051602001610fd99190612d33565b60408051601f198184030181529190528190610ff59082612c74565b50505050565b60a08201518190610ff59082612c74565b60608160405160200161101f9190612d58565b6040516020818303038152906040529050919050565b600061052382611a56565b60006001600160a01b03821661106c576040516322718ad960e21b81526000600482015260240161055c565b506001600160a01b031660009081527f2db204426804e067e91705d2dda6628a736fec9e9182470f68b797f52d49efa2602052604090205490565b6110af611a32565b600101546001600160a01b031633146110da5760405162461bcd60e51b815260040161055c906129e2565b60006110e4611a32565b90506001600160a01b03821661114b5760405162461bcd60e51b815260206004820152602660248201527f4261736541737365743a20686f6f6b2063616e6e6f74206265207a65726f206160448201526564647265737360d01b606482015260840161055c565b6002810180546001600160a01b0319166001600160a01b0384169081179091556040517ff716b9f35a5af170228b0c97201cc581ce2ca1703824fd6b78f3583f28f7eedc90600090a25050565b60006111a2611a32565b600201546001600160a01b0316919050565b60606111be611a32565b60060180546105d890612a19565b6111d4611b33565b6111dc611a32565b600101546001600160a01b031633146112075760405162461bcd60e51b815260040161055c906129e2565b6000611215828401846124c7565b90506001600160a01b0384166112795760405162461bcd60e51b815260206004820152602360248201527f4e5445524337323141737365743a20746f6b656e20646f6573206e6f742065786044820152621a5cdd60ea1b606482015260840161055c565b836001600160a01b031661128c82611b5d565b6001600160a01b0316146112fc5760405162461bcd60e51b815260206004820152603160248201527f4e5445524337323141737365743a206e6f7420746865206f776e6572206f66206044820152701d1bdad95b881a59081c1c9bdd9a591959607a1b606482015260840161055c565b7f2db204426804e067e91705d2dda6628a736fec9e9182470f68b797f52d49efa754600080516020612f27833981519152906001600160a01b0316156113dd5760088101546040516335661e9560e21b81523060048201526001600160a01b03878116602483015260448201859052600092169063d5987a54906064016020604051808303816000875af1158015611398573d6000803e3d6000fd5b505050506040513d601f19601f820116820180604052508101906113bc9190612af1565b9050806113db5760405162461bcd60e51b815260040161055c90612de3565b505b6113e682611b97565b604051632b0fe8e760e21b81526001600160a01b0386811660048301527f0000000000000000000000000000000000000000000000000000000000000000169063ac3fa39c90602401602060405180830381865afa15801561144c573d6000803e3d6000fd5b505050506040513d601f19601f820116820180604052508101906114709190612af1565b156114d05760405163e62194f160e01b8152600481018390526001600160a01b0386169063e62194f190602401600060405180830381600087803b1580156114b757600080fd5b505af11580156114cb573d6000803e3d6000fd5b505050505b5050610ae46001600055565b60006001600160a01b0384166115445760405162461bcd60e51b815260206004820152602760248201527f4e5445524337323141737365743a206d696e7420746f20746865207a65726f206044820152666164647265737360c81b606482015260840161055c565b604051632b0fe8e760e21b81526001600160a01b0385811660048301527f0000000000000000000000000000000000000000000000000000000000000000169063ac3fa39c90602401602060405180830381865afa1580156115aa573d6000803e3d6000fd5b505050506040513d601f19601f820116820180604052508101906115ce9190612af1565b15611649576000849050806001600160a01b031663181d939b6040518163ffffffff1660e01b8152600401602060405180830381865afa158015611616573d6000803e3d6000fd5b505050506040513d601f19601f8201168201806040525081019061163a9190612af1565b6116475761164785611bd6565b505b7f2db204426804e067e91705d2dda6628a736fec9e9182470f68b797f52d49efa754600080516020612f27833981519152906001600160a01b0316156117325760088101546001808301546001600160a01b039092169163624a7dc791309189916116b49190612e48565b6040516001600160e01b031960e086901b1681526001600160a01b0393841660048201529290911660248301526044820152606401602060405180830381865afa158015611706573d6000803e3d6000fd5b505050506040513d601f19601f8201168201806040525081019061172a9190612af1565b9150506108af565b506001949350505050565b600080611748611a32565b60038101549091506001600160a01b03166117665750600192915050565b600381015460405163eab4ad0360e01b81526001600160a01b039091169063eab4ad0390610a88908690600401612aaa565b6117a0611b33565b6117a8611a32565b600101546001600160a01b031633146117d35760405162461bcd60e51b815260040161055c906129e2565b6117de8383836114dc565b6118385760405162461bcd60e51b815260206004820152602560248201527f4e5445524337323141737365743a2063616e6e6f74206d696e7420746f206164604482015264647265737360d81b606482015260840161055c565b7f2db204426804e067e91705d2dda6628a736fec9e9182470f68b797f52d49efa754600080516020612f27833981519152906001600160a01b03161561193c5760088101546001808301546000926001600160a01b0316916386b8418791309189916118a391612e48565b6040516001600160e01b031960e086901b1681526001600160a01b03938416600482015292909116602483015260448201526064016020604051808303816000875af11580156118f7573d6000803e3d6000fd5b505050506040513d601f19601f8201168201806040525081019061191b9190612af1565b90508061193a5760405162461bcd60e51b815260040161055c90612de3565b505b806001016000815461194d90612e5b565b9091555060018101546114d08582611da8565b606061196b82611a56565b506000611976611dc2565b9050600081511161199657604051806020016040528060008152506108af565b806119a084611dde565b6040516020016119b1929190612e74565b6040516020818303038152906040529392505050565b60006119d1611a32565b5461010090046001600160a01b0316919050565b6001600160a01b0391821660009081527f2db204426804e067e91705d2dda6628a736fec9e9182470f68b797f52d49efa46020908152604080832093909416825291909152205460ff1690565b7f2db204426804e067e91705d2dda6628a736fec9e9182470f68b797f52d49efa590565b600080611a6283611b5d565b90506001600160a01b03811661052357604051637e27328960e01b81526004810184905260240161055c565b60009081527f2db204426804e067e91705d2dda6628a736fec9e9182470f68b797f52d49efa360205260409020546001600160a01b031690565b600081518351101580156108af575081600081518110611aea57611aea612ea3565b0160200151825184516001600160f81b0319909216918591611b0b91612eb9565b81518110611b1b57611b1b612ea3565b01602001516001600160f81b03191614905092915050565b600260005403611b5657604051633ee5aeb560e01b815260040160405180910390fd5b6002600055565b60009081527f2db204426804e067e91705d2dda6628a736fec9e9182470f68b797f52d49efa160205260409020546001600160a01b031690565b6000611ba66000836000611e70565b90506001600160a01b038116611bd257604051637e27328960e01b81526004810183905260240161055c565b5050565b6000816001600160a01b031663516f279e6040518163ffffffff1660e01b8152600401602060405180830381865afa158015611c16573d6000803e3d6000fd5b505050506040513d601f19601f82011682018060405250810190611c3a9190612a8d565b90506000611c46611a32565b90506001600160a01b038216611ca85760405162461bcd60e51b815260206004820152602160248201527f4261736541737365743a2061766174617220686173206e6f206c6f636174696f6044820152603760f91b606482015260840161055c565b600181015460408051636904c94d60e01b815290516001600160a01b0392831692851691636904c94d9160048083019260209291908290030181865afa158015611cf6573d6000803e3d6000fd5b505050506040513d601f19601f82011682018060405250810190611d1a9190612a8d565b6001600160a01b031614610ae45760405162461bcd60e51b815260206004820152604960248201527f4261736541737365743a2061766174617220646f6573206e6f7420616c6c6f7760448201527f20617373657473206f757473696465206f66206974732063757272656e7420656064820152687870657269656e636560b81b608482015260a40161055c565b611bd2828260405180602001604052806000815250611f7a565b6060600080516020612f2783398151915280546105d890612a19565b60606000611deb83611f91565b60010190506000816001600160401b03811115611e0a57611e0a612618565b6040519080825280601f01601f191660200182016040528015611e34576020820181803683370190505b5090508181016020015b600019016f181899199a1a9b1b9c1cb0b131b232b360811b600a86061a8153600a8504945084611e3e57509392505050565b600080611e7c84611b5d565b9050600080516020612f278339815191526001600160a01b03841615611ea757611ea7828587612069565b6001600160a01b03821615611ee757611ec46000866000806120cd565b6001600160a01b0382166000908152600382016020526040902080546000190190555b6001600160a01b03861615611f18576001600160a01b03861660009081526003820160205260409020805460010190555b600085815260028201602052604080822080546001600160a01b0319166001600160a01b038a811691821790925591518893918616917fddf252ad1be2c89b69c2b068fc378daa952ba7f163c4a11628f55a4df523b3ef91a450949350505050565b611f8483836121f2565b610ae4600084848461229f565b60008072184f03e93ff9f4daa797ed6e38ed64bf6a1f0160401b8310611fd05772184f03e93ff9f4daa797ed6e38ed64bf6a1f0160401b830492506040015b6d04ee2d6d415b85acef81000000008310611ffc576d04ee2d6d415b85acef8100000000830492506020015b662386f26fc10000831061201a57662386f26fc10000830492506010015b6305f5e1008310612032576305f5e100830492506008015b612710831061204657612710830492506004015b60648310612058576064830492506002015b600a83106105235760010192915050565b6120748383836123c8565b610ae4576001600160a01b0383166120a257604051637e27328960e01b81526004810182905260240161055c565b60405163177e802f60e01b81526001600160a01b03831660048201526024810182905260440161055c565b80806120e157506001600160a01b03821615155b156121a35760006120f184611a56565b90506001600160a01b0383161580159061211d5750826001600160a01b0316816001600160a01b031614155b8015612130575061212e81846119e5565b155b156121595760405163a9fbf51f60e01b81526001600160a01b038416600482015260240161055c565b81156121a15783856001600160a01b0316826001600160a01b03167f8c5be1e5ebec7d5bd14f71427d1e84f3dd0314c0f7b2291e5b200ac8c7c3b92560405160405180910390a45b505b505060009081527f2db204426804e067e91705d2dda6628a736fec9e9182470f68b797f52d49efa36020526040902080546001600160a01b0319166001600160a01b0392909216919091179055565b6001600160a01b03821661221c57604051633250574960e11b81526000600482015260240161055c565b600061222a83836000611e70565b90506001600160a01b03811615612257576040516339e3563760e11b81526000600482015260240161055c565b826001600160a01b03167f1292a1381d69fd0f033102672143fff68d426b4b73eb1fa4df2620aeed9a29948360405161229291815260200190565b60405180910390a2505050565b6001600160a01b0383163b15610ff557604051630a85bd0160e11b81526001600160a01b0384169063150b7a02906122e1903390889087908790600401612ecc565b6020604051808303816000875af192505050801561231c575060408051601f3d908101601f1916820190925261231991810190612f09565b60015b612385573d80801561234a576040519150601f19603f3d011682016040523d82523d6000602084013e61234f565b606091505b50805160000361237d57604051633250574960e11b81526001600160a01b038516600482015260240161055c565b805181602001fd5b6001600160e01b03198116630a85bd0160e11b146123c157604051633250574960e11b81526001600160a01b038516600482015260240161055c565b5050505050565b60006001600160a01b038316158015906124265750826001600160a01b0316846001600160a01b03161480612402575061240284846119e5565b806124265750826001600160a01b031661241b83611a8e565b6001600160a01b0316145b949350505050565b6001600160e01b03198116811461244457600080fd5b50565b60006020828403121561245957600080fd5b81356108af8161242e565b60005b8381101561247f578181015183820152602001612467565b50506000910152565b600081518084526124a0816020860160208601612464565b601f01601f19169290920160200192915050565b6020815260006108af6020830184612488565b6000602082840312156124d957600080fd5b5035919050565b6001600160a01b038116811461244457600080fd5b8035612500816124e0565b919050565b6000806040838503121561251857600080fd5b8235612523816124e0565b946020939093013593505050565b60006020828403121561254357600080fd5b81356108af816124e0565b60008060006060848603121561256357600080fd5b833561256e816124e0565b9250602084013561257e816124e0565b929592945050506040919091013590565b60008083601f8401126125a157600080fd5b5081356001600160401b038111156125b857600080fd5b6020830191508360208285010111156125d057600080fd5b9250929050565b600080602083850312156125ea57600080fd5b82356001600160401b0381111561260057600080fd5b61260c8582860161258f565b90969095509350505050565b634e487b7160e01b600052604160045260246000fd5b60405160c081016001600160401b038111828210171561265057612650612618565b60405290565b604051601f8201601f191681016001600160401b038111828210171561267e5761267e612618565b604052919050565b600060a0828403121561269857600080fd5b60405160a081018181106001600160401b03821117156126ba576126ba612618565b60405282356126c8816124e0565b815260208301356126d8816124e0565b602082015260408301356126eb816124e0565b604082015260608301356126fe816124e0565b60608201526080830135612711816124e0565b60808201529392505050565b60006001600160401b0382111561273657612736612618565b50601f01601f191660200190565b600082601f83011261275557600080fd5b81356127686127638261271d565b612656565b81815284602083860101111561277d57600080fd5b816020850160208301376000918101602001919091529392505050565b6000602082840312156127ac57600080fd5b81356001600160401b038111156127c257600080fd5b61242684828501612744565b6000602082840312156127e057600080fd5b81356001600160401b03808211156127f757600080fd5b9083019060c0828603121561280b57600080fd5b61281361262e565b61281c836124f5565b815261282a602084016124f5565b60208201526040830135604082015260608301358281111561284b57600080fd5b61285787828601612744565b60608301525060808301358281111561286f57600080fd5b61287b87828601612744565b60808301525060a08301358281111561289357600080fd5b61289f87828601612744565b60a08301525095945050505050565b6000806000604084860312156128c357600080fd5b83356128ce816124e0565b925060208401356001600160401b038111156128e957600080fd5b6128f58682870161258f565b9497909650939450505050565b801515811461244457600080fd5b6000806040838503121561292357600080fd5b823561292e816124e0565b9150602083013561293e81612902565b809150509250929050565b6000806000806080858703121561295f57600080fd5b843561296a816124e0565b9350602085013561297a816124e0565b92506040850135915060608501356001600160401b0381111561299c57600080fd5b6129a887828801612744565b91505092959194509250565b600080604083850312156129c757600080fd5b82356129d2816124e0565b9150602083013561293e816124e0565b6020808252601e908201527f4261736541737365743a206f6e6c792069737375657220616c6c6f7765640000604082015260600190565b600181811c90821680612a2d57607f821691505b602082108103612a4d57634e487b7160e01b600052602260045260246000fd5b50919050565b60208152816020820152818360408301376000818301604090810191909152601f909201601f19160101919050565b8051612500816124e0565b600060208284031215612a9f57600080fd5b81516108af816124e0565b81516001600160a01b039081168252602080840151821690830152604080840151821690830152606080840151821690830152608092830151169181019190915260a00190565b600060208284031215612b0357600080fd5b81516108af81612902565b600082601f830112612b1f57600080fd5b8151612b2d6127638261271d565b818152846020838601011115612b4257600080fd5b612426826020830160208701612464565b600060208284031215612b6557600080fd5b81516001600160401b0380821115612b7c57600080fd5b9083019060c08286031215612b9057600080fd5b612b9861262e565b612ba183612a82565b8152612baf60208401612a82565b602082015260408301516040820152606083015182811115612bd057600080fd5b612bdc87828601612b0e565b606083015250608083015182811115612bf457600080fd5b612c0087828601612b0e565b60808301525060a083015182811115612c1857600080fd5b61289f87828601612b0e565b601f821115610ae4576000816000526020600020601f850160051c81016020861015612c4d5750805b601f850160051c820191505b81811015612c6c57828155600101612c59565b505050505050565b81516001600160401b03811115612c8d57612c8d612618565b612ca181612c9b8454612a19565b84612c24565b602080601f831160018114612cd65760008415612cbe5750858301515b600019600386901b1c1916600185901b178555612c6c565b600085815260208120601f198616915b82811015612d0557888601518255948401946001909101908401612ce6565b5085821015612d235787850151600019600388901b60f8161c191681555b5050505050600190811b01905550565b60008251612d45818460208701612464565b602f60f81b920191825250600101919050565b60208152600060018060a01b038084511660208401528060208501511660408401525060408301516060830152606083015160c06080840152612d9e60e0840182612488565b90506080840151601f19808584030160a0860152612dbc8383612488565b925060a08601519150808584030160c086015250612dda8282612488565b95945050505050565b6020808252602f908201527f4e5445524337323141737365743a206265666f72654d696e7420686f6f6b207260408201526e195a9958dd1959081c995c5d595cdd608a1b606082015260800190565b634e487b7160e01b600052601160045260246000fd5b8082018082111561052357610523612e32565b600060018201612e6d57612e6d612e32565b5060010190565b60008351612e86818460208801612464565b835190830190612e9a818360208801612464565b01949350505050565b634e487b7160e01b600052603260045260246000fd5b8181038181111561052357610523612e32565b6001600160a01b0385811682528416602082015260408101839052608060608201819052600090612eff90830184612488565b9695505050505050565b600060208284031215612f1b57600080fd5b81516108af8161242e56fe2db204426804e067e91705d2dda6628a736fec9e9182470f68b797f52d49ef9fa2646970667358221220c6531ed258909d40eced91d8be4863c5a50a8adbe474f2e6e7d3c0e0e2f94da964736f6c63430008180033",
  "linkReferences": {},
  "deployedLinkReferences": {}
}