{
  "_format": "hh-sol-artifact-1",
  "contractName": "CompanyFactory",
  "sourceName": "contracts/company/CompanyFactory.sol",
  "abi": [
    {
      "inputs": [
        {
          "internalType": "address",
          "name": "mainAdmin",
          "type": "address"
        },
        {
          "internalType": "address[]",
          "name": "admins",
          "type": "address[]"
        }
      ],
      "stateMutability": "nonpayable",
      "type": "constructor"
    },
    {
      "inputs": [],
      "name": "AccessControlBadConfirmation",
      "type": "error"
    },
    {
      "inputs": [
        {
          "internalType": "address",
          "name": "account",
          "type": "address"
        },
        {
          "internalType": "bytes32",
          "name": "neededRole",
          "type": "bytes32"
        }
      ],
      "name": "AccessControlUnauthorizedAccount",
      "type": "error"
    },
    {
      "anonymous": false,
      "inputs": [
        {
          "indexed": true,
          "internalType": "address",
          "name": "oldRegistry",
          "type": "address"
        },
        {
          "indexed": true,
          "internalType": "address",
          "name": "newRegistry",
          "type": "address"
        }
      ],
      "name": "AuthorizedRegistryChanged",
      "type": "event"
    },
    {
      "anonymous": false,
      "inputs": [
        {
          "indexed": true,
          "internalType": "bytes32",
          "name": "role",
          "type": "bytes32"
        },
        {
          "indexed": true,
          "internalType": "bytes32",
          "name": "previousAdminRole",
          "type": "bytes32"
        },
        {
          "indexed": true,
          "internalType": "bytes32",
          "name": "newAdminRole",
          "type": "bytes32"
        }
      ],
      "name": "RoleAdminChanged",
      "type": "event"
    },
    {
      "anonymous": false,
      "inputs": [
        {
          "indexed": true,
          "internalType": "bytes32",
          "name": "role",
          "type": "bytes32"
        },
        {
          "indexed": true,
          "internalType": "address",
          "name": "account",
          "type": "address"
        },
        {
          "indexed": true,
          "internalType": "address",
          "name": "sender",
          "type": "address"
        }
      ],
      "name": "RoleGranted",
      "type": "event"
    },
    {
      "anonymous": false,
      "inputs": [
        {
          "indexed": true,
          "internalType": "bytes32",
          "name": "role",
          "type": "bytes32"
        },
        {
          "indexed": true,
          "internalType": "address",
          "name": "account",
          "type": "address"
        },
        {
          "indexed": true,
          "internalType": "address",
          "name": "sender",
          "type": "address"
        }
      ],
      "name": "RoleRevoked",
      "type": "event"
    },
    {
      "inputs": [],
      "name": "ADMIN_ROLE",
      "outputs": [
        {
          "internalType": "bytes32",
          "name": "",
          "type": "bytes32"
        }
      ],
      "stateMutability": "view",
      "type": "function"
    },
    {
      "inputs": [],
      "name": "DEFAULT_ADMIN_ROLE",
      "outputs": [
        {
          "internalType": "bytes32",
          "name": "",
          "type": "bytes32"
        }
      ],
      "stateMutability": "view",
      "type": "function"
    },
    {
      "inputs": [
        {
          "components": [
            {
              "internalType": "address",
              "name": "owner",
              "type": "address"
            },
            {
              "internalType": "address",
              "name": "world",
              "type": "address"
            },
            {
              "components": [
                {
                  "internalType": "string",
                  "name": "x",
                  "type": "string"
                },
                {
                  "internalType": "string",
                  "name": "y",
                  "type": "string"
                },
                {
                  "internalType": "string",
                  "name": "z",
                  "type": "string"
                },
                {
                  "internalType": "uint256",
                  "name": "t",
                  "type": "uint256"
                },
                {
                  "internalType": "uint256",
                  "name": "p",
                  "type": "uint256"
                },
                {
                  "internalType": "uint256",
                  "name": "p_sub",
                  "type": "uint256"
                }
              ],
              "internalType": "struct VectorAddress",
              "name": "vector",
              "type": "tuple"
            },
            {
              "internalType": "bytes",
              "name": "initData",
              "type": "bytes"
            },
            {
              "internalType": "string",
              "name": "name",
              "type": "string"
            }
          ],
          "internalType": "struct CompanyInitArgs",
          "name": "args",
          "type": "tuple"
        }
      ],
      "name": "createCompany",
      "outputs": [
        {
          "internalType": "address",
          "name": "",
          "type": "address"
        }
      ],
      "stateMutability": "nonpayable",
      "type": "function"
    },
    {
      "inputs": [],
      "name": "getImplementation",
      "outputs": [
        {
          "internalType": "address",
          "name": "",
          "type": "address"
        }
      ],
      "stateMutability": "view",
      "type": "function"
    },
    {
      "inputs": [],
      "name": "getProxyImplementation",
      "outputs": [
        {
          "internalType": "address",
          "name": "",
          "type": "address"
        }
      ],
      "stateMutability": "view",
      "type": "function"
    },
    {
      "inputs": [
        {
          "internalType": "bytes32",
          "name": "role",
          "type": "bytes32"
        }
      ],
      "name": "getRoleAdmin",
      "outputs": [
        {
          "internalType": "bytes32",
          "name": "",
          "type": "bytes32"
        }
      ],
      "stateMutability": "view",
      "type": "function"
    },
    {
      "inputs": [
        {
          "internalType": "bytes32",
          "name": "role",
          "type": "bytes32"
        },
        {
          "internalType": "address",
          "name": "account",
          "type": "address"
        }
      ],
      "name": "grantRole",
      "outputs": [],
      "stateMutability": "nonpayable",
      "type": "function"
    },
    {
      "inputs": [
        {
          "internalType": "bytes32",
          "name": "role",
          "type": "bytes32"
        },
        {
          "internalType": "address",
          "name": "account",
          "type": "address"
        }
      ],
      "name": "hasRole",
      "outputs": [
        {
          "internalType": "bool",
          "name": "",
          "type": "bool"
        }
      ],
      "stateMutability": "view",
      "type": "function"
    },
    {
      "inputs": [
        {
          "internalType": "bytes32",
          "name": "role",
          "type": "bytes32"
        },
        {
          "internalType": "address",
          "name": "callerConfirmation",
          "type": "address"
        }
      ],
      "name": "renounceRole",
      "outputs": [],
      "stateMutability": "nonpayable",
      "type": "function"
    },
    {
      "inputs": [
        {
          "internalType": "bytes32",
          "name": "role",
          "type": "bytes32"
        },
        {
          "internalType": "address",
          "name": "account",
          "type": "address"
        }
      ],
      "name": "revokeRole",
      "outputs": [],
      "stateMutability": "nonpayable",
      "type": "function"
    },
    {
      "inputs": [
        {
          "internalType": "address",
          "name": "_registry",
          "type": "address"
        }
      ],
      "name": "setAuthorizedRegistry",
      "outputs": [],
      "stateMutability": "nonpayable",
      "type": "function"
    },
    {
      "inputs": [
        {
          "internalType": "address",
          "name": "_implementation",
          "type": "address"
        },
        {
          "internalType": "uint256",
          "name": "version",
          "type": "uint256"
        }
      ],
      "name": "setImplementation",
      "outputs": [],
      "stateMutability": "nonpayable",
      "type": "function"
    },
    {
      "inputs": [
        {
          "internalType": "address",
          "name": "_proxyImplementation",
          "type": "address"
        }
      ],
      "name": "setProxyImplementation",
      "outputs": [],
      "stateMutability": "nonpayable",
      "type": "function"
    },
    {
      "inputs": [
        {
          "internalType": "bytes4",
          "name": "interfaceId",
          "type": "bytes4"
        }
      ],
      "name": "supportsInterface",
      "outputs": [
        {
          "internalType": "bool",
          "name": "",
          "type": "bool"
        }
      ],
      "stateMutability": "view",
      "type": "function"
    },
    {
      "inputs": [],
      "name": "supportsVersion",
      "outputs": [
        {
          "internalType": "uint256",
          "name": "",
          "type": "uint256"
        }
      ],
      "stateMutability": "view",
      "type": "function"
    },
    {
      "inputs": [
        {
          "internalType": "address",
          "name": "company",
          "type": "address"
        },
        {
          "internalType": "bytes",
          "name": "initData",
          "type": "bytes"
        }
      ],
      "name": "upgradeCompany",
      "outputs": [],
      "stateMutability": "nonpayable",
      "type": "function"
    }
  ],
  "bytecode": "0x60806040523480156200001157600080fd5b5060405162001614380380620016148339810160408190526200003491620002a6565b81816001600160a01b038216620000a95760405162461bcd60e51b815260206004820152602e60248201527f42617365466163746f72793a206d61696e2061646d696e2063616e6e6f74206260448201526d65207a65726f206164647265737360901b60648201526084015b60405180910390fd5b620000b6600083620001c4565b50620000d2600080516020620015f483398151915283620001c4565b5060005b8151811015620001b95760006001600160a01b03168282815181106200010057620001006200038f565b60200260200101516001600160a01b031603620001725760405162461bcd60e51b815260206004820152602960248201527f42617365466163746f72793a2061646d696e2063616e6e6f74206265207a65726044820152686f206164647265737360b81b6064820152608401620000a0565b620001af600080516020620015f48339815191528383815181106200019b576200019b6200038f565b6020026020010151620001c460201b60201c565b50600101620000d6565b5050505050620003a5565b6000828152602081815260408083206001600160a01b038516845290915281205460ff1662000269576000838152602081815260408083206001600160a01b03861684529091529020805460ff19166001179055620002203390565b6001600160a01b0316826001600160a01b0316847f2f8788117e7eff1d82e926ec794901d17c78024a50270940304540a733656f0d60405160405180910390a45060016200026d565b5060005b92915050565b80516001600160a01b03811681146200028b57600080fd5b919050565b634e487b7160e01b600052604160045260246000fd5b60008060408385031215620002ba57600080fd5b620002c58362000273565b602084810151919350906001600160401b0380821115620002e557600080fd5b818601915086601f830112620002fa57600080fd5b8151818111156200030f576200030f62000290565b8060051b604051601f19603f8301168101818110858211171562000337576200033762000290565b6040529182528482019250838101850191898311156200035657600080fd5b938501935b828510156200037f576200036f8562000273565b845293850193928501926200035b565b8096505050505050509250929050565b634e487b7160e01b600052603260045260246000fd5b61123f80620003b56000396000f3fe608060405234801561001057600080fd5b50600436106101005760003560e01c806391d1485411610097578063aaf10f4211610066578063aaf10f4214610227578063d547741f14610238578063e921c2751461024b578063f7c9fbae1461025457600080fd5b806391d14854146101e657806396916aba146101f95780639fdcd3a41461020c578063a217fddf1461021f57600080fd5b80633033a4e5116100d35780633033a4e51461018657806336568abe1461019957806375b238fc146101ac57806390e4b720146101c157600080fd5b806301ffc9a714610105578063090741a01461012d578063248a9ca3146101425780632f2ff15d14610173575b600080fd5b610118610113366004610bf6565b610267565b60405190151581526020015b60405180910390f35b61014061013b366004610c47565b61029e565b005b610165610150366004610c64565b60009081526020819052604090206001015490565b604051908152602001610124565b610140610181366004610c7d565b610374565b610140610194366004610cad565b61039f565b6101406101a7366004610c7d565b610533565b6101656000805160206111ea83398151915281565b6002546001600160a01b03165b6040516001600160a01b039091168152602001610124565b6101186101f4366004610c7d565b61056b565b610140610207366004610cd9565b610594565b61014061021a366004610c47565b610770565b610165600081565b6001546001600160a01b03166101ce565b610140610246366004610c7d565b610827565b61016560045481565b6101ce610262366004610eff565b61084c565b60006001600160e01b03198216637965db0b60e01b148061029857506301ffc9a760e01b6001600160e01b03198316145b92915050565b6000805160206111ea8339815191526102b681610973565b6001600160a01b0382166103275760405162461bcd60e51b815260206004820152602d60248201527f576f726c64466163746f72793a2072656769737472792063616e6e6f7420626560448201526c207a65726f206164647265737360981b60648201526084015b60405180910390fd5b600380546001600160a01b0319166001600160a01b03841690811790915560405181907fc86b12484784843e0f58748ffb8c87f7ee384e04382a190867f3cccc3b6cf97b90600090a35050565b60008281526020819052604090206001015461038f81610973565b6103998383610980565b50505050565b6000805160206111ea8339815191526103b781610973565b6001600160a01b0383166104285760405162461bcd60e51b815260206004820152603260248201527f42617365466163746f72793a20696d706c656d656e746174696f6e2063616e6e6044820152716f74206265207a65726f206164647265737360701b606482015260840161031e565b600454821161049f5760405162461bcd60e51b815260206004820152603960248201527f42617365466163746f72793a2076657273696f6e206d7573742062652067726560448201527f61746572207468616e2063757272656e742076657273696f6e00000000000000606482015260840161031e565b6001546001600160a01b0380851691160361050c5760405162461bcd60e51b815260206004820152602760248201527f42617365466163746f72793a20696d706c656d656e746174696f6e20616c726560448201526618591e481cd95d60ca1b606482015260840161031e565b50600180546001600160a01b0319166001600160a01b039390931692909217909155600455565b6001600160a01b038116331461055c5760405163334bd91960e11b815260040160405180910390fd5b6105668282610a12565b505050565b6000918252602082815260408084206001600160a01b0393909316845291905290205460ff1690565b6003546001600160a01b03166105bc5760405162461bcd60e51b815260040161031e90610fd6565b6003546001600160a01b031633146105e65760405162461bcd60e51b815260040161031e9061101e565b6000836001600160a01b031663aaf10f426040518163ffffffff1660e01b8152600401602060405180830381865afa158015610626573d6000803e3d6000fd5b505050506040513d601f19601f8201168201806040525081019061064a919061106c565b6001549091506001600160a01b03908116908216036106ab5760405162461bcd60e51b815260206004820152601d60248201527f416c7265616479206f6e20746865206c61746573742076657273696f6e000000604482015260640161031e565b600154604051632663d1f760e01b81526001600160a01b03918216600482015290851690632663d1f790602401600060405180830381600087803b1580156106f257600080fd5b505af1158015610706573d6000803e3d6000fd5b5050604051631377d1f560e21b81526001600160a01b0387169250634ddf47d491506107389086908690600401611089565b600060405180830381600087803b15801561075257600080fd5b505af1158015610766573d6000803e3d6000fd5b5050505050505050565b6000805160206111ea83398151915261078881610973565b6001600160a01b0382166108045760405162461bcd60e51b815260206004820152603860248201527f42617365466163746f72793a2070726f787920696d706c656d656e746174696f60448201527f6e2063616e6e6f74206265207a65726f20616464726573730000000000000000606482015260840161031e565b50600280546001600160a01b0319166001600160a01b0392909216919091179055565b60008281526020819052604090206001015461084281610973565b6103998383610a12565b6003546000906001600160a01b03166108775760405162461bcd60e51b815260040161031e90610fd6565b6003546001600160a01b031633146108a15760405162461bcd60e51b815260040161031e9061101e565b60006108ab610a7d565b600154604051639c02006160e01b81526001600160a01b039182166004820152919250821690639c02006190602401600060405180830381600087803b1580156108f457600080fd5b505af1158015610908573d6000803e3d6000fd5b5050604051635466ddd560e01b81526001600160a01b0384169250635466ddd591506109389086906004016110fe565b600060405180830381600087803b15801561095257600080fd5b505af1158015610966573d6000803e3d6000fd5b509293505050505b919050565b61097d8133610b04565b50565b600061098c838361056b565b610a0a576000838152602081815260408083206001600160a01b03861684529091529020805460ff191660011790556109c23390565b6001600160a01b0316826001600160a01b0316847f2f8788117e7eff1d82e926ec794901d17c78024a50270940304540a733656f0d60405160405180910390a4506001610298565b506000610298565b6000610a1e838361056b565b15610a0a576000838152602081815260408083206001600160a01b0386168085529252808320805460ff1916905551339286917ff6391f5c32d9c69d2a47ea670b442974b53935d1edc7fd64eb21e047a839171b9190a4506001610298565b6002546000906001600160a01b0316610aea5760405162461bcd60e51b815260206004820152602960248201527f42617365466163746f72793a2070726f787920696d706c656d656e746174696f6044820152681b881b9bdd081cd95d60ba1b606482015260840161031e565b600254610aff906001600160a01b0316610b41565b905090565b610b0e828261056b565b610b3d5760405163e2517d3f60e01b81526001600160a01b03821660048201526024810183905260440161031e565b5050565b60006001600160a01b038216610ba55760405162461bcd60e51b815260206004820152602360248201527f42617365466163746f72793a20696d706c656d656e746174696f6e206e6f74206044820152621cd95d60ea1b606482015260840161031e565b60008260601b9050604051733d602d80600a3d3981f3363d3d373d3d3d363d7360601b81528160148201526e5af43d82803e903d91602b57fd5bf360881b60288201526037816000f0949350505050565b600060208284031215610c0857600080fd5b81356001600160e01b031981168114610c2057600080fd5b9392505050565b6001600160a01b038116811461097d57600080fd5b803561096e81610c27565b600060208284031215610c5957600080fd5b8135610c2081610c27565b600060208284031215610c7657600080fd5b5035919050565b60008060408385031215610c9057600080fd5b823591506020830135610ca281610c27565b809150509250929050565b60008060408385031215610cc057600080fd5b8235610ccb81610c27565b946020939093013593505050565b600080600060408486031215610cee57600080fd5b8335610cf981610c27565b9250602084013567ffffffffffffffff80821115610d1657600080fd5b818601915086601f830112610d2a57600080fd5b813581811115610d3957600080fd5b876020828501011115610d4b57600080fd5b6020830194508093505050509250925092565b634e487b7160e01b600052604160045260246000fd5b60405160c0810167ffffffffffffffff81118282101715610d9757610d97610d5e565b60405290565b60405160a0810167ffffffffffffffff81118282101715610d9757610d97610d5e565b600082601f830112610dd157600080fd5b813567ffffffffffffffff80821115610dec57610dec610d5e565b604051601f8301601f19908116603f01168101908282118183101715610e1457610e14610d5e565b81604052838152866020858801011115610e2d57600080fd5b836020870160208301376000602085830101528094505050505092915050565b600060c08284031215610e5f57600080fd5b610e67610d74565b9050813567ffffffffffffffff80821115610e8157600080fd5b610e8d85838601610dc0565b83526020840135915080821115610ea357600080fd5b610eaf85838601610dc0565b60208401526040840135915080821115610ec857600080fd5b50610ed584828501610dc0565b604083015250606082013560608201526080820135608082015260a082013560a082015292915050565b600060208284031215610f1157600080fd5b813567ffffffffffffffff80821115610f2957600080fd5b9083019060a08286031215610f3d57600080fd5b610f45610d9d565b610f4e83610c3c565b8152610f5c60208401610c3c565b6020820152604083013582811115610f7357600080fd5b610f7f87828601610e4d565b604083015250606083013582811115610f9757600080fd5b610fa387828601610dc0565b606083015250608083013582811115610fbb57600080fd5b610fc787828601610dc0565b60808301525095945050505050565b60208082526028908201527f42617365466163746f72793a20617574686f72697a6564207265676973747279604082015267081b9bdd081cd95d60c21b606082015260800190565b6020808252602e908201527f42617365466163746f72793a2063616c6c6572206973206e6f7420617574686f60408201526d72697a656420726567697374727960901b606082015260800190565b60006020828403121561107e57600080fd5b8151610c2081610c27565b60208152816020820152818360408301376000818301604090810191909152601f909201601f19160101919050565b6000815180845260005b818110156110de576020818501810151868301820152016110c2565b506000602082860101526020601f19601f83011685010191505092915050565b60208152600060018060a01b0380845116602084015280602085015116604084015250604083015160a06060840152805160c0808501526111436101808501826110b8565b9050602082015160bf19808684030160e087015261116183836110b8565b92506040840151915080868403016101008701525061118082826110b8565b9150506060820151610120850152608082015161014085015260a082015161016085015260608501519150601f19808583030160808601526111c282846110b8565b925060808601519150808584030160a0860152506111e082826110b8565b9594505050505056fea49807205ce4d355092ef5a8a18f56e8913cf4a201fbe287825b095693c21775a264697066735822122080d4750d4bd4269216d3ff8bddb5bc47613bdfa975e5ca43e07dcc6e276fe28064736f6c63430008180033a49807205ce4d355092ef5a8a18f56e8913cf4a201fbe287825b095693c21775",
  "linkReferences": {},
  "deployedLinkReferences": {}
}