{
  "_format": "hh-sol-artifact-1",
  "contractName": "CompanyFactory",
  "sourceName": "contracts/company/CompanyFactory.sol",
  "abi": [
    {
      "inputs": [
        {
          "internalType": "address",
          "name": "mainAdmin",
          "type": "address"
        },
        {
          "internalType": "address[]",
          "name": "admins",
          "type": "address[]"
        }
      ],
      "stateMutability": "nonpayable",
      "type": "constructor"
    },
    {
      "inputs": [],
      "name": "AccessControlBadConfirmation",
      "type": "error"
    },
    {
      "inputs": [
        {
          "internalType": "address",
          "name": "account",
          "type": "address"
        },
        {
          "internalType": "bytes32",
          "name": "neededRole",
          "type": "bytes32"
        }
      ],
      "name": "AccessControlUnauthorizedAccount",
      "type": "error"
    },
    {
      "anonymous": false,
      "inputs": [
        {
          "indexed": true,
          "internalType": "address",
          "name": "oldRegistry",
          "type": "address"
        },
        {
          "indexed": true,
          "internalType": "address",
          "name": "newRegistry",
          "type": "address"
        }
      ],
      "name": "AuthorizedRegistryChanged",
      "type": "event"
    },
    {
      "anonymous": false,
      "inputs": [
        {
          "indexed": true,
          "internalType": "bytes32",
          "name": "role",
          "type": "bytes32"
        },
        {
          "indexed": true,
          "internalType": "bytes32",
          "name": "previousAdminRole",
          "type": "bytes32"
        },
        {
          "indexed": true,
          "internalType": "bytes32",
          "name": "newAdminRole",
          "type": "bytes32"
        }
      ],
      "name": "RoleAdminChanged",
      "type": "event"
    },
    {
      "anonymous": false,
      "inputs": [
        {
          "indexed": true,
          "internalType": "bytes32",
          "name": "role",
          "type": "bytes32"
        },
        {
          "indexed": true,
          "internalType": "address",
          "name": "account",
          "type": "address"
        },
        {
          "indexed": true,
          "internalType": "address",
          "name": "sender",
          "type": "address"
        }
      ],
      "name": "RoleGranted",
      "type": "event"
    },
    {
      "anonymous": false,
      "inputs": [
        {
          "indexed": true,
          "internalType": "bytes32",
          "name": "role",
          "type": "bytes32"
        },
        {
          "indexed": true,
          "internalType": "address",
          "name": "account",
          "type": "address"
        },
        {
          "indexed": true,
          "internalType": "address",
          "name": "sender",
          "type": "address"
        }
      ],
      "name": "RoleRevoked",
      "type": "event"
    },
    {
      "inputs": [],
      "name": "ADMIN_ROLE",
      "outputs": [
        {
          "internalType": "bytes32",
          "name": "",
          "type": "bytes32"
        }
      ],
      "stateMutability": "view",
      "type": "function"
    },
    {
      "inputs": [],
      "name": "DEFAULT_ADMIN_ROLE",
      "outputs": [
        {
          "internalType": "bytes32",
          "name": "",
          "type": "bytes32"
        }
      ],
      "stateMutability": "view",
      "type": "function"
    },
    {
      "inputs": [
        {
          "components": [
            {
              "internalType": "address",
              "name": "owner",
              "type": "address"
            },
            {
              "internalType": "address",
              "name": "world",
              "type": "address"
            },
            {
              "components": [
                {
                  "internalType": "string",
                  "name": "x",
                  "type": "string"
                },
                {
                  "internalType": "string",
                  "name": "y",
                  "type": "string"
                },
                {
                  "internalType": "string",
                  "name": "z",
                  "type": "string"
                },
                {
                  "internalType": "uint256",
                  "name": "t",
                  "type": "uint256"
                },
                {
                  "internalType": "uint256",
                  "name": "p",
                  "type": "uint256"
                },
                {
                  "internalType": "uint256",
                  "name": "p_sub",
                  "type": "uint256"
                }
              ],
              "internalType": "struct VectorAddress",
              "name": "vector",
              "type": "tuple"
            },
            {
              "internalType": "bytes",
              "name": "initData",
              "type": "bytes"
            },
            {
              "internalType": "string",
              "name": "name",
              "type": "string"
            }
          ],
          "internalType": "struct CompanyInitArgs",
          "name": "args",
          "type": "tuple"
        }
      ],
      "name": "createCompany",
      "outputs": [
        {
          "internalType": "address",
          "name": "",
          "type": "address"
        }
      ],
      "stateMutability": "nonpayable",
      "type": "function"
    },
    {
      "inputs": [],
      "name": "getImplementation",
      "outputs": [
        {
          "internalType": "address",
          "name": "",
          "type": "address"
        }
      ],
      "stateMutability": "view",
      "type": "function"
    },
    {
      "inputs": [],
      "name": "getProxyImplementation",
      "outputs": [
        {
          "internalType": "address",
          "name": "",
          "type": "address"
        }
      ],
      "stateMutability": "view",
      "type": "function"
    },
    {
      "inputs": [
        {
          "internalType": "bytes32",
          "name": "role",
          "type": "bytes32"
        }
      ],
      "name": "getRoleAdmin",
      "outputs": [
        {
          "internalType": "bytes32",
          "name": "",
          "type": "bytes32"
        }
      ],
      "stateMutability": "view",
      "type": "function"
    },
    {
      "inputs": [
        {
          "internalType": "bytes32",
          "name": "role",
          "type": "bytes32"
        },
        {
          "internalType": "address",
          "name": "account",
          "type": "address"
        }
      ],
      "name": "grantRole",
      "outputs": [],
      "stateMutability": "nonpayable",
      "type": "function"
    },
    {
      "inputs": [
        {
          "internalType": "bytes32",
          "name": "role",
          "type": "bytes32"
        },
        {
          "internalType": "address",
          "name": "account",
          "type": "address"
        }
      ],
      "name": "hasRole",
      "outputs": [
        {
          "internalType": "bool",
          "name": "",
          "type": "bool"
        }
      ],
      "stateMutability": "view",
      "type": "function"
    },
    {
      "inputs": [
        {
          "internalType": "address",
          "name": "query",
          "type": "address"
        }
      ],
      "name": "isClone",
      "outputs": [
        {
          "internalType": "bool",
          "name": "result",
          "type": "bool"
        }
      ],
      "stateMutability": "view",
      "type": "function"
    },
    {
      "inputs": [
        {
          "internalType": "bytes32",
          "name": "role",
          "type": "bytes32"
        },
        {
          "internalType": "address",
          "name": "callerConfirmation",
          "type": "address"
        }
      ],
      "name": "renounceRole",
      "outputs": [],
      "stateMutability": "nonpayable",
      "type": "function"
    },
    {
      "inputs": [
        {
          "internalType": "bytes32",
          "name": "role",
          "type": "bytes32"
        },
        {
          "internalType": "address",
          "name": "account",
          "type": "address"
        }
      ],
      "name": "revokeRole",
      "outputs": [],
      "stateMutability": "nonpayable",
      "type": "function"
    },
    {
      "inputs": [
        {
          "internalType": "address",
          "name": "_registry",
          "type": "address"
        }
      ],
      "name": "setAuthorizedRegistry",
      "outputs": [],
      "stateMutability": "nonpayable",
      "type": "function"
    },
    {
      "inputs": [
        {
          "internalType": "address",
          "name": "_implementation",
          "type": "address"
        },
        {
          "internalType": "uint256",
          "name": "version",
          "type": "uint256"
        }
      ],
      "name": "setImplementation",
      "outputs": [],
      "stateMutability": "nonpayable",
      "type": "function"
    },
    {
      "inputs": [
        {
          "internalType": "address",
          "name": "_proxyImplementation",
          "type": "address"
        }
      ],
      "name": "setProxyImplementation",
      "outputs": [],
      "stateMutability": "nonpayable",
      "type": "function"
    },
    {
      "inputs": [
        {
          "internalType": "bytes4",
          "name": "interfaceId",
          "type": "bytes4"
        }
      ],
      "name": "supportsInterface",
      "outputs": [
        {
          "internalType": "bool",
          "name": "",
          "type": "bool"
        }
      ],
      "stateMutability": "view",
      "type": "function"
    },
    {
      "inputs": [],
      "name": "supportsVersion",
      "outputs": [
        {
          "internalType": "uint256",
          "name": "",
          "type": "uint256"
        }
      ],
      "stateMutability": "view",
      "type": "function"
    },
    {
      "inputs": [
        {
          "internalType": "address",
          "name": "company",
          "type": "address"
        },
        {
          "internalType": "bytes",
          "name": "initData",
          "type": "bytes"
        }
      ],
      "name": "upgradeCompany",
      "outputs": [],
      "stateMutability": "nonpayable",
      "type": "function"
    }
  ],
  "bytecode": "0x60806040523480156200001157600080fd5b5060405162001543380380620015438339810160408190526200003491620002a6565b81816001600160a01b038216620000a95760405162461bcd60e51b815260206004820152602e60248201527f42617365466163746f72793a206d61696e2061646d696e2063616e6e6f74206260448201526d65207a65726f206164647265737360901b60648201526084015b60405180910390fd5b620000b6600083620001c4565b50620000d26000805160206200152383398151915283620001c4565b5060005b8151811015620001b95760006001600160a01b03168282815181106200010057620001006200038f565b60200260200101516001600160a01b031603620001725760405162461bcd60e51b815260206004820152602960248201527f42617365466163746f72793a2061646d696e2063616e6e6f74206265207a65726044820152686f206164647265737360b81b6064820152608401620000a0565b620001af600080516020620015238339815191528383815181106200019b576200019b6200038f565b6020026020010151620001c460201b60201c565b50600101620000d6565b5050505050620003a5565b6000828152602081815260408083206001600160a01b038516845290915281205460ff1662000269576000838152602081815260408083206001600160a01b03861684529091529020805460ff19166001179055620002203390565b6001600160a01b0316826001600160a01b0316847f2f8788117e7eff1d82e926ec794901d17c78024a50270940304540a733656f0d60405160405180910390a45060016200026d565b5060005b92915050565b80516001600160a01b03811681146200028b57600080fd5b919050565b634e487b7160e01b600052604160045260246000fd5b60008060408385031215620002ba57600080fd5b620002c58362000273565b602084810151919350906001600160401b0380821115620002e557600080fd5b818601915086601f830112620002fa57600080fd5b8151818111156200030f576200030f62000290565b8060051b604051601f19603f8301168101818110858211171562000337576200033762000290565b6040529182528482019250838101850191898311156200035657600080fd5b938501935b828510156200037f576200036f8562000273565b845293850193928501926200035b565b8096505050505050509250929050565b634e487b7160e01b600052603260045260246000fd5b61116e80620003b56000396000f3fe608060405234801561001057600080fd5b506004361061010a5760003560e01c806390e4b720116100a2578063a217fddf11610071578063a217fddf1461023c578063aaf10f4214610244578063d547741f14610255578063e921c27514610268578063f7c9fbae1461027157600080fd5b806390e4b720146101de57806391d148541461020357806396916aba146102165780639fdcd3a41461022957600080fd5b80632f2ff15d116100de5780632f2ff15d146101905780633033a4e5146101a357806336568abe146101b657806375b238fc146101c957600080fd5b8062ae36761461010f57806301ffc9a714610137578063090741a01461014a578063248a9ca31461015f575b600080fd5b61012261011d366004610b6c565b610284565b60405190151581526020015b60405180910390f35b610122610145366004610b8e565b6102f9565b61015d610158366004610b6c565b610330565b005b61018261016d366004610bb8565b60009081526020819052604090206001015490565b60405190815260200161012e565b61015d61019e366004610bd1565b610406565b61015d6101b1366004610bfd565b610431565b61015d6101c4366004610bd1565b610558565b61018260008051602061111983398151915281565b6002546001600160a01b03165b6040516001600160a01b03909116815260200161012e565b610122610211366004610bd1565b610590565b61015d610224366004610c27565b6105b9565b61015d610237366004610b6c565b6106cf565b610182600081565b6001546001600160a01b03166101eb565b61015d610263366004610bd1565b610786565b61018260045481565b6101eb61027f366004610e4b565b6107ab565b600080600160009054906101000a90046001600160a01b031660601b905060405169363d3d373d3d3d363d7360b01b815281600a8201526e5af43d82803e903d91602b57fd5bf360881b601e82015260408101602d600082873c600d810151600d830151148151835114169350505050919050565b60006001600160e01b03198216637965db0b60e01b148061032a57506301ffc9a760e01b6001600160e01b03198316145b92915050565b600080516020611119833981519152610348816108d2565b6001600160a01b0382166103b95760405162461bcd60e51b815260206004820152602d60248201527f576f726c64466163746f72793a2072656769737472792063616e6e6f7420626560448201526c207a65726f206164647265737360981b60648201526084015b60405180910390fd5b600380546001600160a01b0319166001600160a01b03841690811790915560405181907fc86b12484784843e0f58748ffb8c87f7ee384e04382a190867f3cccc3b6cf97b90600090a35050565b600082815260208190526040902060010154610421816108d2565b61042b83836108df565b50505050565b600080516020611119833981519152610449816108d2565b6001600160a01b0383166104ba5760405162461bcd60e51b815260206004820152603260248201527f42617365466163746f72793a20696d706c656d656e746174696f6e2063616e6e6044820152716f74206265207a65726f206164647265737360701b60648201526084016103b0565b60045482116105315760405162461bcd60e51b815260206004820152603960248201527f42617365466163746f72793a2076657273696f6e206d7573742062652067726560448201527f61746572207468616e2063757272656e742076657273696f6e0000000000000060648201526084016103b0565b50600180546001600160a01b0319166001600160a01b039390931692909217909155600455565b6001600160a01b03811633146105815760405163334bd91960e11b815260040160405180910390fd5b61058b8282610971565b505050565b6000918252602082815260408084206001600160a01b0393909316845291905290205460ff1690565b6003546001600160a01b03166105e15760405162461bcd60e51b81526004016103b090610f22565b6003546001600160a01b0316331461060b5760405162461bcd60e51b81526004016103b090610f6a565b600154604051632663d1f760e01b81526001600160a01b03918216600482015290841690632663d1f790602401600060405180830381600087803b15801561065257600080fd5b505af1158015610666573d6000803e3d6000fd5b5050604051631377d1f560e21b81526001600160a01b0386169250634ddf47d491506106989085908590600401610fb8565b600060405180830381600087803b1580156106b257600080fd5b505af11580156106c6573d6000803e3d6000fd5b50505050505050565b6000805160206111198339815191526106e7816108d2565b6001600160a01b0382166107635760405162461bcd60e51b815260206004820152603860248201527f42617365466163746f72793a2070726f787920696d706c656d656e746174696f60448201527f6e2063616e6e6f74206265207a65726f2061646472657373000000000000000060648201526084016103b0565b50600280546001600160a01b0319166001600160a01b0392909216919091179055565b6000828152602081905260409020600101546107a1816108d2565b61042b8383610971565b6003546000906001600160a01b03166107d65760405162461bcd60e51b81526004016103b090610f22565b6003546001600160a01b031633146108005760405162461bcd60e51b81526004016103b090610f6a565b600061080a6109dc565b600154604051639c02006160e01b81526001600160a01b039182166004820152919250821690639c02006190602401600060405180830381600087803b15801561085357600080fd5b505af1158015610867573d6000803e3d6000fd5b5050604051635466ddd560e01b81526001600160a01b0384169250635466ddd5915061089790869060040161102d565b600060405180830381600087803b1580156108b157600080fd5b505af11580156108c5573d6000803e3d6000fd5b509293505050505b919050565b6108dc8133610a63565b50565b60006108eb8383610590565b610969576000838152602081815260408083206001600160a01b03861684529091529020805460ff191660011790556109213390565b6001600160a01b0316826001600160a01b0316847f2f8788117e7eff1d82e926ec794901d17c78024a50270940304540a733656f0d60405160405180910390a450600161032a565b50600061032a565b600061097d8383610590565b15610969576000838152602081815260408083206001600160a01b0386168085529252808320805460ff1916905551339286917ff6391f5c32d9c69d2a47ea670b442974b53935d1edc7fd64eb21e047a839171b9190a450600161032a565b6002546000906001600160a01b0316610a495760405162461bcd60e51b815260206004820152602960248201527f42617365466163746f72793a2070726f787920696d706c656d656e746174696f6044820152681b881b9bdd081cd95d60ba1b60648201526084016103b0565b600254610a5e906001600160a01b0316610aa0565b905090565b610a6d8282610590565b610a9c5760405163e2517d3f60e01b81526001600160a01b0382166004820152602481018390526044016103b0565b5050565b60006001600160a01b038216610b045760405162461bcd60e51b815260206004820152602360248201527f42617365466163746f72793a20696d706c656d656e746174696f6e206e6f74206044820152621cd95d60ea1b60648201526084016103b0565b60008260601b9050604051733d602d80600a3d3981f3363d3d373d3d3d363d7360601b81528160148201526e5af43d82803e903d91602b57fd5bf360881b60288201526037816000f0949350505050565b80356001600160a01b03811681146108cd57600080fd5b600060208284031215610b7e57600080fd5b610b8782610b55565b9392505050565b600060208284031215610ba057600080fd5b81356001600160e01b031981168114610b8757600080fd5b600060208284031215610bca57600080fd5b5035919050565b60008060408385031215610be457600080fd5b82359150610bf460208401610b55565b90509250929050565b60008060408385031215610c1057600080fd5b610c1983610b55565b946020939093013593505050565b600080600060408486031215610c3c57600080fd5b610c4584610b55565b9250602084013567ffffffffffffffff80821115610c6257600080fd5b818601915086601f830112610c7657600080fd5b813581811115610c8557600080fd5b876020828501011115610c9757600080fd5b6020830194508093505050509250925092565b634e487b7160e01b600052604160045260246000fd5b60405160c0810167ffffffffffffffff81118282101715610ce357610ce3610caa565b60405290565b60405160a0810167ffffffffffffffff81118282101715610ce357610ce3610caa565b600082601f830112610d1d57600080fd5b813567ffffffffffffffff80821115610d3857610d38610caa565b604051601f8301601f19908116603f01168101908282118183101715610d6057610d60610caa565b81604052838152866020858801011115610d7957600080fd5b836020870160208301376000602085830101528094505050505092915050565b600060c08284031215610dab57600080fd5b610db3610cc0565b9050813567ffffffffffffffff80821115610dcd57600080fd5b610dd985838601610d0c565b83526020840135915080821115610def57600080fd5b610dfb85838601610d0c565b60208401526040840135915080821115610e1457600080fd5b50610e2184828501610d0c565b604083015250606082013560608201526080820135608082015260a082013560a082015292915050565b600060208284031215610e5d57600080fd5b813567ffffffffffffffff80821115610e7557600080fd5b9083019060a08286031215610e8957600080fd5b610e91610ce9565b610e9a83610b55565b8152610ea860208401610b55565b6020820152604083013582811115610ebf57600080fd5b610ecb87828601610d99565b604083015250606083013582811115610ee357600080fd5b610eef87828601610d0c565b606083015250608083013582811115610f0757600080fd5b610f1387828601610d0c565b60808301525095945050505050565b60208082526028908201527f42617365466163746f72793a20617574686f72697a6564207265676973747279604082015267081b9bdd081cd95d60c21b606082015260800190565b6020808252602e908201527f42617365466163746f72793a2063616c6c6572206973206e6f7420617574686f60408201526d72697a656420726567697374727960901b606082015260800190565b60208152816020820152818360408301376000818301604090810191909152601f909201601f19160101919050565b6000815180845260005b8181101561100d57602081850181015186830182015201610ff1565b506000602082860101526020601f19601f83011685010191505092915050565b60208152600060018060a01b0380845116602084015280602085015116604084015250604083015160a06060840152805160c080850152611072610180850182610fe7565b9050602082015160bf19808684030160e08701526110908383610fe7565b9250604084015191508086840301610100870152506110af8282610fe7565b9150506060820151610120850152608082015161014085015260a082015161016085015260608501519150601f19808583030160808601526110f18284610fe7565b925060808601519150808584030160a08601525061110f8282610fe7565b9594505050505056fea49807205ce4d355092ef5a8a18f56e8913cf4a201fbe287825b095693c21775a2646970667358221220b76bf6aad696266269decc7b96b699d1a6d2f8bdb41668676065b4e713e8327664736f6c63430008180033a49807205ce4d355092ef5a8a18f56e8913cf4a201fbe287825b095693c21775",
  "linkReferences": {},
  "deployedLinkReferences": {}
}