{
  "_format": "hh-sol-artifact-1",
  "contractName": "CompanyFactory",
  "sourceName": "contracts/company/CompanyFactory.sol",
  "abi": [
    {
      "inputs": [
        {
          "internalType": "address",
          "name": "mainAdmin",
          "type": "address"
        },
        {
          "internalType": "address[]",
          "name": "admins",
          "type": "address[]"
        }
      ],
      "stateMutability": "nonpayable",
      "type": "constructor"
    },
    {
      "inputs": [],
      "name": "AccessControlBadConfirmation",
      "type": "error"
    },
    {
      "inputs": [
        {
          "internalType": "address",
          "name": "account",
          "type": "address"
        },
        {
          "internalType": "bytes32",
          "name": "neededRole",
          "type": "bytes32"
        }
      ],
      "name": "AccessControlUnauthorizedAccount",
      "type": "error"
    },
    {
      "anonymous": false,
      "inputs": [
        {
          "indexed": true,
          "internalType": "address",
          "name": "oldRegistry",
          "type": "address"
        },
        {
          "indexed": true,
          "internalType": "address",
          "name": "newRegistry",
          "type": "address"
        }
      ],
      "name": "AuthorizedRegistryChanged",
      "type": "event"
    },
    {
      "anonymous": false,
      "inputs": [
        {
          "indexed": true,
          "internalType": "bytes32",
          "name": "role",
          "type": "bytes32"
        },
        {
          "indexed": true,
          "internalType": "bytes32",
          "name": "previousAdminRole",
          "type": "bytes32"
        },
        {
          "indexed": true,
          "internalType": "bytes32",
          "name": "newAdminRole",
          "type": "bytes32"
        }
      ],
      "name": "RoleAdminChanged",
      "type": "event"
    },
    {
      "anonymous": false,
      "inputs": [
        {
          "indexed": true,
          "internalType": "bytes32",
          "name": "role",
          "type": "bytes32"
        },
        {
          "indexed": true,
          "internalType": "address",
          "name": "account",
          "type": "address"
        },
        {
          "indexed": true,
          "internalType": "address",
          "name": "sender",
          "type": "address"
        }
      ],
      "name": "RoleGranted",
      "type": "event"
    },
    {
      "anonymous": false,
      "inputs": [
        {
          "indexed": true,
          "internalType": "bytes32",
          "name": "role",
          "type": "bytes32"
        },
        {
          "indexed": true,
          "internalType": "address",
          "name": "account",
          "type": "address"
        },
        {
          "indexed": true,
          "internalType": "address",
          "name": "sender",
          "type": "address"
        }
      ],
      "name": "RoleRevoked",
      "type": "event"
    },
    {
      "inputs": [],
      "name": "ADMIN_ROLE",
      "outputs": [
        {
          "internalType": "bytes32",
          "name": "",
          "type": "bytes32"
        }
      ],
      "stateMutability": "view",
      "type": "function"
    },
    {
      "inputs": [],
      "name": "DEFAULT_ADMIN_ROLE",
      "outputs": [
        {
          "internalType": "bytes32",
          "name": "",
          "type": "bytes32"
        }
      ],
      "stateMutability": "view",
      "type": "function"
    },
    {
      "inputs": [
        {
          "components": [
            {
              "internalType": "address",
              "name": "owner",
              "type": "address"
            },
            {
              "internalType": "address",
              "name": "world",
              "type": "address"
            },
            {
              "components": [
                {
                  "internalType": "string",
                  "name": "x",
                  "type": "string"
                },
                {
                  "internalType": "string",
                  "name": "y",
                  "type": "string"
                },
                {
                  "internalType": "string",
                  "name": "z",
                  "type": "string"
                },
                {
                  "internalType": "uint256",
                  "name": "t",
                  "type": "uint256"
                },
                {
                  "internalType": "uint256",
                  "name": "p",
                  "type": "uint256"
                },
                {
                  "internalType": "uint256",
                  "name": "p_sub",
                  "type": "uint256"
                }
              ],
              "internalType": "struct VectorAddress",
              "name": "vector",
              "type": "tuple"
            },
            {
              "internalType": "bytes",
              "name": "initData",
              "type": "bytes"
            },
            {
              "internalType": "string",
              "name": "name",
              "type": "string"
            }
          ],
          "internalType": "struct CompanyInitArgs",
          "name": "args",
          "type": "tuple"
        }
      ],
      "name": "createCompany",
      "outputs": [
        {
          "internalType": "address",
          "name": "",
          "type": "address"
        }
      ],
      "stateMutability": "nonpayable",
      "type": "function"
    },
    {
      "inputs": [
        {
          "internalType": "bytes32",
          "name": "role",
          "type": "bytes32"
        }
      ],
      "name": "getRoleAdmin",
      "outputs": [
        {
          "internalType": "bytes32",
          "name": "",
          "type": "bytes32"
        }
      ],
      "stateMutability": "view",
      "type": "function"
    },
    {
      "inputs": [
        {
          "internalType": "bytes32",
          "name": "role",
          "type": "bytes32"
        },
        {
          "internalType": "address",
          "name": "account",
          "type": "address"
        }
      ],
      "name": "grantRole",
      "outputs": [],
      "stateMutability": "nonpayable",
      "type": "function"
    },
    {
      "inputs": [
        {
          "internalType": "bytes32",
          "name": "role",
          "type": "bytes32"
        },
        {
          "internalType": "address",
          "name": "account",
          "type": "address"
        }
      ],
      "name": "hasRole",
      "outputs": [
        {
          "internalType": "bool",
          "name": "",
          "type": "bool"
        }
      ],
      "stateMutability": "view",
      "type": "function"
    },
    {
      "inputs": [
        {
          "internalType": "address",
          "name": "query",
          "type": "address"
        }
      ],
      "name": "isClone",
      "outputs": [
        {
          "internalType": "bool",
          "name": "result",
          "type": "bool"
        }
      ],
      "stateMutability": "view",
      "type": "function"
    },
    {
      "inputs": [
        {
          "internalType": "bytes32",
          "name": "role",
          "type": "bytes32"
        },
        {
          "internalType": "address",
          "name": "callerConfirmation",
          "type": "address"
        }
      ],
      "name": "renounceRole",
      "outputs": [],
      "stateMutability": "nonpayable",
      "type": "function"
    },
    {
      "inputs": [
        {
          "internalType": "bytes32",
          "name": "role",
          "type": "bytes32"
        },
        {
          "internalType": "address",
          "name": "account",
          "type": "address"
        }
      ],
      "name": "revokeRole",
      "outputs": [],
      "stateMutability": "nonpayable",
      "type": "function"
    },
    {
      "inputs": [
        {
          "internalType": "address",
          "name": "_registry",
          "type": "address"
        }
      ],
      "name": "setAuthorizedRegistry",
      "outputs": [],
      "stateMutability": "nonpayable",
      "type": "function"
    },
    {
      "inputs": [
        {
          "internalType": "address",
          "name": "_implementation",
          "type": "address"
        }
      ],
      "name": "setImplementation",
      "outputs": [],
      "stateMutability": "nonpayable",
      "type": "function"
    },
    {
      "inputs": [
        {
          "internalType": "bytes4",
          "name": "interfaceId",
          "type": "bytes4"
        }
      ],
      "name": "supportsInterface",
      "outputs": [
        {
          "internalType": "bool",
          "name": "",
          "type": "bool"
        }
      ],
      "stateMutability": "view",
      "type": "function"
    }
  ],
  "bytecode": "0x60806040523480156200001157600080fd5b50604051620010bd380380620010bd8339810160408190526200003491620002a6565b81816001600160a01b038216620000a95760405162461bcd60e51b815260206004820152602e60248201527f42617365466163746f72793a206d61696e2061646d696e2063616e6e6f74206260448201526d65207a65726f206164647265737360901b60648201526084015b60405180910390fd5b620000b6600083620001c4565b50620000d26000805160206200109d83398151915283620001c4565b5060005b8151811015620001b95760006001600160a01b03168282815181106200010057620001006200038f565b60200260200101516001600160a01b031603620001725760405162461bcd60e51b815260206004820152602960248201527f42617365466163746f72793a2061646d696e2063616e6e6f74206265207a65726044820152686f206164647265737360b81b6064820152608401620000a0565b620001af6000805160206200109d8339815191528383815181106200019b576200019b6200038f565b6020026020010151620001c460201b60201c565b50600101620000d6565b5050505050620003a5565b6000828152602081815260408083206001600160a01b038516845290915281205460ff1662000269576000838152602081815260408083206001600160a01b03861684529091529020805460ff19166001179055620002203390565b6001600160a01b0316826001600160a01b0316847f2f8788117e7eff1d82e926ec794901d17c78024a50270940304540a733656f0d60405160405180910390a45060016200026d565b5060005b92915050565b80516001600160a01b03811681146200028b57600080fd5b919050565b634e487b7160e01b600052604160045260246000fd5b60008060408385031215620002ba57600080fd5b620002c58362000273565b602084810151919350906001600160401b0380821115620002e557600080fd5b818601915086601f830112620002fa57600080fd5b8151818111156200030f576200030f62000290565b8060051b604051601f19603f8301168101818110858211171562000337576200033762000290565b6040529182528482019250838101850191898311156200035657600080fd5b938501935b828510156200037f576200036f8562000273565b845293850193928501926200035b565b8096505050505050509250929050565b634e487b7160e01b600052603260045260246000fd5b610ce880620003b56000396000f3fe608060405234801561001057600080fd5b50600436106100b35760003560e01c806375b238fc1161007157806375b238fc1461015f57806391d1485414610186578063a217fddf14610199578063d547741f146101a1578063d784d426146101b4578063f7c9fbae146101c757600080fd5b8062ae3676146100b857806301ffc9a7146100e0578063090741a0146100f3578063248a9ca3146101085780632f2ff15d1461013957806336568abe1461014c575b600080fd5b6100cb6100c6366004610878565b6101f2565b60405190151581526020015b60405180910390f35b6100cb6100ee36600461089a565b610267565b610106610101366004610878565b61029e565b005b61012b6101163660046108c4565b60009081526020819052604090206001015490565b6040519081526020016100d7565b6101066101473660046108dd565b610386565b61010661015a3660046108dd565b6103b1565b61012b7fa49807205ce4d355092ef5a8a18f56e8913cf4a201fbe287825b095693c2177581565b6100cb6101943660046108dd565b6103e9565b61012b600081565b6101066101af3660046108dd565b610412565b6101066101c2366004610878565b610437565b6101da6101d5366004610aaa565b6104f7565b6040516001600160a01b0390911681526020016100d7565b600080600160009054906101000a90046001600160a01b031660601b905060405169363d3d373d3d3d363d7360b01b815281600a8201526e5af43d82803e903d91602b57fd5bf360881b601e82015260408101602d600082873c600d810151600d830151148151835114169350505050919050565b60006001600160e01b03198216637965db0b60e01b148061029857506301ffc9a760e01b6001600160e01b03198316145b92915050565b7fa49807205ce4d355092ef5a8a18f56e8913cf4a201fbe287825b095693c217756102c881610648565b6001600160a01b0382166103395760405162461bcd60e51b815260206004820152602d60248201527f576f726c64466163746f72793a2072656769737472792063616e6e6f7420626560448201526c207a65726f206164647265737360981b60648201526084015b60405180910390fd5b600280546001600160a01b0319166001600160a01b03841690811790915560405181907fc86b12484784843e0f58748ffb8c87f7ee384e04382a190867f3cccc3b6cf97b90600090a35050565b6000828152602081905260409020600101546103a181610648565b6103ab8383610655565b50505050565b6001600160a01b03811633146103da5760405163334bd91960e11b815260040160405180910390fd5b6103e482826106e7565b505050565b6000918252602082815260408084206001600160a01b0393909316845291905290205460ff1690565b60008281526020819052604090206001015461042d81610648565b6103ab83836106e7565b7fa49807205ce4d355092ef5a8a18f56e8913cf4a201fbe287825b095693c2177561046181610648565b6001546001600160a01b03166104d45760405162461bcd60e51b815260206004820152603260248201527f42617365466163746f72793a20696d706c656d656e746174696f6e2063616e6e6044820152716f74206265207a65726f206164647265737360701b6064820152608401610330565b50600180546001600160a01b0319166001600160a01b0392909216919091179055565b6002546000906001600160a01b03166105635760405162461bcd60e51b815260206004820152602860248201527f42617365466163746f72793a20617574686f72697a6564207265676973747279604482015267081b9bdd081cd95d60c21b6064820152608401610330565b6002546001600160a01b031633146105d45760405162461bcd60e51b815260206004820152602e60248201527f42617365466163746f72793a2063616c6c6572206973206e6f7420617574686f60448201526d72697a656420726567697374727960901b6064820152608401610330565b60006105de610752565b604051635466ddd560e01b81529091506001600160a01b03821690635466ddd59061060d908690600401610bc7565b600060405180830381600087803b15801561062757600080fd5b505af115801561063b573d6000803e3d6000fd5b509293505050505b919050565b610652813361076f565b50565b600061066183836103e9565b6106df576000838152602081815260408083206001600160a01b03861684529091529020805460ff191660011790556106973390565b6001600160a01b0316826001600160a01b0316847f2f8788117e7eff1d82e926ec794901d17c78024a50270940304540a733656f0d60405160405180910390a4506001610298565b506000610298565b60006106f383836103e9565b156106df576000838152602081815260408083206001600160a01b0386168085529252808320805460ff1916905551339286917ff6391f5c32d9c69d2a47ea670b442974b53935d1edc7fd64eb21e047a839171b9190a4506001610298565b60015460009061076a906001600160a01b03166107ac565b905090565b61077982826103e9565b6107a85760405163e2517d3f60e01b81526001600160a01b038216600482015260248101839052604401610330565b5050565b60006001600160a01b0382166108105760405162461bcd60e51b815260206004820152602360248201527f42617365466163746f72793a20696d706c656d656e746174696f6e206e6f74206044820152621cd95d60ea1b6064820152608401610330565b60008260601b9050604051733d602d80600a3d3981f3363d3d373d3d3d363d7360601b81528160148201526e5af43d82803e903d91602b57fd5bf360881b60288201526037816000f0949350505050565b80356001600160a01b038116811461064357600080fd5b60006020828403121561088a57600080fd5b61089382610861565b9392505050565b6000602082840312156108ac57600080fd5b81356001600160e01b03198116811461089357600080fd5b6000602082840312156108d657600080fd5b5035919050565b600080604083850312156108f057600080fd5b8235915061090060208401610861565b90509250929050565b634e487b7160e01b600052604160045260246000fd5b60405160c0810167ffffffffffffffff8111828210171561094257610942610909565b60405290565b60405160a0810167ffffffffffffffff8111828210171561094257610942610909565b600082601f83011261097c57600080fd5b813567ffffffffffffffff8082111561099757610997610909565b604051601f8301601f19908116603f011681019082821181831017156109bf576109bf610909565b816040528381528660208588010111156109d857600080fd5b836020870160208301376000602085830101528094505050505092915050565b600060c08284031215610a0a57600080fd5b610a1261091f565b9050813567ffffffffffffffff80821115610a2c57600080fd5b610a388583860161096b565b83526020840135915080821115610a4e57600080fd5b610a5a8583860161096b565b60208401526040840135915080821115610a7357600080fd5b50610a808482850161096b565b604083015250606082013560608201526080820135608082015260a082013560a082015292915050565b600060208284031215610abc57600080fd5b813567ffffffffffffffff80821115610ad457600080fd5b9083019060a08286031215610ae857600080fd5b610af0610948565b610af983610861565b8152610b0760208401610861565b6020820152604083013582811115610b1e57600080fd5b610b2a878286016109f8565b604083015250606083013582811115610b4257600080fd5b610b4e8782860161096b565b606083015250608083013582811115610b6657600080fd5b610b728782860161096b565b60808301525095945050505050565b6000815180845260005b81811015610ba757602081850181015186830182015201610b8b565b506000602082860101526020601f19601f83011685010191505092915050565b60208152600060018060a01b0380845116602084015280602085015116604084015250604083015160a06060840152805160c080850152610c0c610180850182610b81565b9050602082015160bf19808684030160e0870152610c2a8383610b81565b925060408401519150808684030161010087015250610c498282610b81565b9150506060820151610120850152608082015161014085015260a082015161016085015260608501519150601f1980858303016080860152610c8b8284610b81565b925060808601519150808584030160a086015250610ca98282610b81565b9594505050505056fea2646970667358221220db96af816646c8fb6d0308a8b1e87a4a9dda2f1190f28743daf83b27f64b29df64736f6c63430008180033a49807205ce4d355092ef5a8a18f56e8913cf4a201fbe287825b095693c21775",
  "linkReferences": {},
  "deployedLinkReferences": {}
}