{
  "_format": "hh-sol-artifact-1",
  "contractName": "NonTransferableERC721Asset",
  "sourceName": "contracts/asset/NonTransferableERC721Asset.sol",
  "abi": [
    {
      "inputs": [
        {
          "internalType": "address",
          "name": "factory",
          "type": "address"
        },
        {
          "internalType": "address",
          "name": "registry",
          "type": "address"
        }
      ],
      "stateMutability": "nonpayable",
      "type": "constructor"
    },
    {
      "inputs": [
        {
          "internalType": "address",
          "name": "sender",
          "type": "address"
        },
        {
          "internalType": "uint256",
          "name": "tokenId",
          "type": "uint256"
        },
        {
          "internalType": "address",
          "name": "owner",
          "type": "address"
        }
      ],
      "name": "ERC721IncorrectOwner",
      "type": "error"
    },
    {
      "inputs": [
        {
          "internalType": "address",
          "name": "operator",
          "type": "address"
        },
        {
          "internalType": "uint256",
          "name": "tokenId",
          "type": "uint256"
        }
      ],
      "name": "ERC721InsufficientApproval",
      "type": "error"
    },
    {
      "inputs": [
        {
          "internalType": "address",
          "name": "approver",
          "type": "address"
        }
      ],
      "name": "ERC721InvalidApprover",
      "type": "error"
    },
    {
      "inputs": [
        {
          "internalType": "address",
          "name": "operator",
          "type": "address"
        }
      ],
      "name": "ERC721InvalidOperator",
      "type": "error"
    },
    {
      "inputs": [
        {
          "internalType": "address",
          "name": "owner",
          "type": "address"
        }
      ],
      "name": "ERC721InvalidOwner",
      "type": "error"
    },
    {
      "inputs": [
        {
          "internalType": "address",
          "name": "receiver",
          "type": "address"
        }
      ],
      "name": "ERC721InvalidReceiver",
      "type": "error"
    },
    {
      "inputs": [
        {
          "internalType": "address",
          "name": "sender",
          "type": "address"
        }
      ],
      "name": "ERC721InvalidSender",
      "type": "error"
    },
    {
      "inputs": [
        {
          "internalType": "uint256",
          "name": "tokenId",
          "type": "uint256"
        }
      ],
      "name": "ERC721NonexistentToken",
      "type": "error"
    },
    {
      "anonymous": false,
      "inputs": [
        {
          "indexed": true,
          "internalType": "address",
          "name": "owner",
          "type": "address"
        },
        {
          "indexed": true,
          "internalType": "address",
          "name": "approved",
          "type": "address"
        },
        {
          "indexed": true,
          "internalType": "uint256",
          "name": "tokenId",
          "type": "uint256"
        }
      ],
      "name": "Approval",
      "type": "event"
    },
    {
      "anonymous": false,
      "inputs": [
        {
          "indexed": true,
          "internalType": "address",
          "name": "owner",
          "type": "address"
        },
        {
          "indexed": true,
          "internalType": "address",
          "name": "operator",
          "type": "address"
        },
        {
          "indexed": false,
          "internalType": "bool",
          "name": "approved",
          "type": "bool"
        }
      ],
      "name": "ApprovalForAll",
      "type": "event"
    },
    {
      "anonymous": false,
      "inputs": [
        {
          "indexed": true,
          "internalType": "address",
          "name": "to",
          "type": "address"
        },
        {
          "indexed": false,
          "internalType": "uint256",
          "name": "tokenId",
          "type": "uint256"
        }
      ],
      "name": "ERC721Minted",
      "type": "event"
    },
    {
      "anonymous": false,
      "inputs": [
        {
          "indexed": true,
          "internalType": "address",
          "name": "oldAsset",
          "type": "address"
        },
        {
          "indexed": true,
          "internalType": "address",
          "name": "newAsset",
          "type": "address"
        }
      ],
      "name": "ERC721Upgraded",
      "type": "event"
    },
    {
      "anonymous": false,
      "inputs": [
        {
          "indexed": true,
          "internalType": "address",
          "name": "from",
          "type": "address"
        },
        {
          "indexed": true,
          "internalType": "address",
          "name": "to",
          "type": "address"
        },
        {
          "indexed": true,
          "internalType": "uint256",
          "name": "tokenId",
          "type": "uint256"
        }
      ],
      "name": "Transfer",
      "type": "event"
    },
    {
      "inputs": [
        {
          "internalType": "address",
          "name": "",
          "type": "address"
        },
        {
          "internalType": "uint256",
          "name": "",
          "type": "uint256"
        }
      ],
      "name": "approve",
      "outputs": [],
      "stateMutability": "nonpayable",
      "type": "function"
    },
    {
      "inputs": [],
      "name": "assetFactory",
      "outputs": [
        {
          "internalType": "address",
          "name": "",
          "type": "address"
        }
      ],
      "stateMutability": "view",
      "type": "function"
    },
    {
      "inputs": [],
      "name": "assetRegistry",
      "outputs": [
        {
          "internalType": "address",
          "name": "",
          "type": "address"
        }
      ],
      "stateMutability": "view",
      "type": "function"
    },
    {
      "inputs": [
        {
          "internalType": "address",
          "name": "owner",
          "type": "address"
        }
      ],
      "name": "balanceOf",
      "outputs": [
        {
          "internalType": "uint256",
          "name": "",
          "type": "uint256"
        }
      ],
      "stateMutability": "view",
      "type": "function"
    },
    {
      "inputs": [
        {
          "components": [
            {
              "internalType": "address",
              "name": "issuer",
              "type": "address"
            },
            {
              "internalType": "address",
              "name": "originChainAddress",
              "type": "address"
            },
            {
              "internalType": "uint256",
              "name": "originChainId",
              "type": "uint256"
            },
            {
              "internalType": "string",
              "name": "name",
              "type": "string"
            },
            {
              "internalType": "string",
              "name": "symbol",
              "type": "string"
            },
            {
              "internalType": "string",
              "name": "baseURI",
              "type": "string"
            }
          ],
          "internalType": "struct ERC721InitData",
          "name": "data",
          "type": "tuple"
        }
      ],
      "name": "encodeInitData",
      "outputs": [
        {
          "internalType": "bytes",
          "name": "",
          "type": "bytes"
        }
      ],
      "stateMutability": "pure",
      "type": "function"
    },
    {
      "inputs": [
        {
          "internalType": "uint256",
          "name": "tokenId",
          "type": "uint256"
        }
      ],
      "name": "getApproved",
      "outputs": [
        {
          "internalType": "address",
          "name": "",
          "type": "address"
        }
      ],
      "stateMutability": "view",
      "type": "function"
    },
    {
      "inputs": [
        {
          "internalType": "bytes",
          "name": "initData",
          "type": "bytes"
        }
      ],
      "name": "init",
      "outputs": [],
      "stateMutability": "nonpayable",
      "type": "function"
    },
    {
      "inputs": [
        {
          "internalType": "address",
          "name": "owner",
          "type": "address"
        },
        {
          "internalType": "address",
          "name": "operator",
          "type": "address"
        }
      ],
      "name": "isApprovedForAll",
      "outputs": [
        {
          "internalType": "bool",
          "name": "",
          "type": "bool"
        }
      ],
      "stateMutability": "view",
      "type": "function"
    },
    {
      "inputs": [],
      "name": "issuer",
      "outputs": [
        {
          "internalType": "address",
          "name": "",
          "type": "address"
        }
      ],
      "stateMutability": "view",
      "type": "function"
    },
    {
      "inputs": [
        {
          "internalType": "address",
          "name": "to",
          "type": "address"
        }
      ],
      "name": "mint",
      "outputs": [
        {
          "internalType": "uint256",
          "name": "id",
          "type": "uint256"
        }
      ],
      "stateMutability": "nonpayable",
      "type": "function"
    },
    {
      "inputs": [],
      "name": "name",
      "outputs": [
        {
          "internalType": "string",
          "name": "",
          "type": "string"
        }
      ],
      "stateMutability": "view",
      "type": "function"
    },
    {
      "inputs": [],
      "name": "originChainAddress",
      "outputs": [
        {
          "internalType": "address",
          "name": "",
          "type": "address"
        }
      ],
      "stateMutability": "view",
      "type": "function"
    },
    {
      "inputs": [],
      "name": "originChainId",
      "outputs": [
        {
          "internalType": "uint256",
          "name": "",
          "type": "uint256"
        }
      ],
      "stateMutability": "view",
      "type": "function"
    },
    {
      "inputs": [
        {
          "internalType": "uint256",
          "name": "tokenId",
          "type": "uint256"
        }
      ],
      "name": "ownerOf",
      "outputs": [
        {
          "internalType": "address",
          "name": "",
          "type": "address"
        }
      ],
      "stateMutability": "view",
      "type": "function"
    },
    {
      "inputs": [
        {
          "internalType": "address",
          "name": "from",
          "type": "address"
        },
        {
          "internalType": "address",
          "name": "to",
          "type": "address"
        },
        {
          "internalType": "uint256",
          "name": "tokenId",
          "type": "uint256"
        }
      ],
      "name": "safeTransferFrom",
      "outputs": [],
      "stateMutability": "nonpayable",
      "type": "function"
    },
    {
      "inputs": [
        {
          "internalType": "address",
          "name": "",
          "type": "address"
        },
        {
          "internalType": "address",
          "name": "",
          "type": "address"
        },
        {
          "internalType": "uint256",
          "name": "",
          "type": "uint256"
        },
        {
          "internalType": "bytes",
          "name": "",
          "type": "bytes"
        }
      ],
      "name": "safeTransferFrom",
      "outputs": [],
      "stateMutability": "nonpayable",
      "type": "function"
    },
    {
      "inputs": [
        {
          "internalType": "address",
          "name": "",
          "type": "address"
        },
        {
          "internalType": "bool",
          "name": "",
          "type": "bool"
        }
      ],
      "name": "setApprovalForAll",
      "outputs": [],
      "stateMutability": "nonpayable",
      "type": "function"
    },
    {
      "inputs": [
        {
          "internalType": "bytes4",
          "name": "interfaceId",
          "type": "bytes4"
        }
      ],
      "name": "supportsInterface",
      "outputs": [
        {
          "internalType": "bool",
          "name": "",
          "type": "bool"
        }
      ],
      "stateMutability": "view",
      "type": "function"
    },
    {
      "inputs": [],
      "name": "symbol",
      "outputs": [
        {
          "internalType": "string",
          "name": "",
          "type": "string"
        }
      ],
      "stateMutability": "view",
      "type": "function"
    },
    {
      "inputs": [
        {
          "internalType": "uint256",
          "name": "tokenId",
          "type": "uint256"
        }
      ],
      "name": "tokenURI",
      "outputs": [
        {
          "internalType": "string",
          "name": "",
          "type": "string"
        }
      ],
      "stateMutability": "view",
      "type": "function"
    },
    {
      "inputs": [
        {
          "internalType": "address",
          "name": "",
          "type": "address"
        },
        {
          "internalType": "address",
          "name": "",
          "type": "address"
        },
        {
          "internalType": "uint256",
          "name": "",
          "type": "uint256"
        }
      ],
      "name": "transferFrom",
      "outputs": [],
      "stateMutability": "nonpayable",
      "type": "function"
    },
    {
      "inputs": [
        {
          "internalType": "address",
          "name": "newAsset",
          "type": "address"
        }
      ],
      "name": "upgrade",
      "outputs": [],
      "stateMutability": "nonpayable",
      "type": "function"
    },
    {
      "inputs": [],
      "name": "upgraded",
      "outputs": [
        {
          "internalType": "bool",
          "name": "",
          "type": "bool"
        }
      ],
      "stateMutability": "view",
      "type": "function"
    }
  ],
  "bytecode": "0x60c06040523480156200001157600080fd5b5060405162001c3738038062001c3783398101604081905262000034916200015e565b6001600160a01b038216620000ab5760405162461bcd60e51b815260206004820152603260248201527f4e6f6e5472616e7366657261626c654552433732313a20666163746f727920696044820152717320746865207a65726f206164647265737360701b60648201526084015b60405180910390fd5b6001600160a01b038116620001295760405162461bcd60e51b815260206004820152603360248201527f4e6f6e5472616e7366657261626c654552433732313a2072656769737472792060448201527f697320746865207a65726f2061646472657373000000000000000000000000006064820152608401620000a2565b6001600160a01b039182166080521660a05262000196565b80516001600160a01b03811681146200015957600080fd5b919050565b600080604083850312156200017257600080fd5b6200017d8362000141565b91506200018d6020840162000141565b90509250929050565b60805160a051611a6d620001ca600039600081816102ac0152610463015260008181610303015261061e0152611a6d6000f3fe608060405234801561001057600080fd5b506004361061014d5760003560e01c806361f3fcb2116100c3578063a22cb4651161007c578063a22cb465146102ce578063b88d4fde146102dc578063c28de2cd146102ea578063c3acb4d1146102fe578063c87b56dd14610325578063e985e9c51461033857600080fd5b806361f3fcb2146102535780636352211e146102665780636a6278421461027957806370a082311461028c57806395d89b411461029f578063979d7e86146102a757600080fd5b80630ac7f561116101155780630ac7f561146101e257806318cbd134146101f95780631d1438481461020c57806323b872dd1461021f57806342842e0e1461022d5780634ddf47d41461024057600080fd5b806301ffc9a71461015257806306fdde031461017a578063081812fc1461018f5780630900f010146101ba578063095ea7b3146101cf575b600080fd5b610165610160366004611271565b61034b565b60405190151581526020015b60405180910390f35b61018261039d565b60405161017191906112de565b6101a261019d3660046112f1565b61042f565b6040516001600160a01b039091168152602001610171565b6101cd6101c836600461132a565b610458565b005b6101cd6101dd366004611347565b610592565b6101eb60025481565b604051908152602001610171565b6001546101a2906001600160a01b031681565b6000546101a2906001600160a01b031681565b6101cd6101dd366004611373565b6101cd61023b366004611373565b6105f3565b6101cd61024e3660046114a2565b610613565b6101826102613660046114d7565b6109af565b6101a26102743660046112f1565b6109d8565b6101eb61028736600461132a565b6109e3565b6101eb61029a36600461132a565b610a71565b610182610ab9565b6101a27f000000000000000000000000000000000000000000000000000000000000000081565b6101cd6101dd3660046115b8565b6101cd6101dd3660046115f6565b60005461016590600160a01b900460ff1681565b6101a27f000000000000000000000000000000000000000000000000000000000000000081565b6101826103333660046112f1565b610ac8565b610165610346366004611662565b610b3d565b60006001600160e01b031982166380ac58cd60e01b148061037c57506001600160e01b03198216635b5e139f60e01b145b8061039757506001600160e01b031982166301ffc9a760e01b145b92915050565b6060600480546103ac90611690565b80601f01602080910402602001604051908101604052809291908181526020018280546103d890611690565b80156104255780601f106103fa57610100808354040283529160200191610425565b820191906000526020600020905b81548152906001019060200180831161040857829003601f168201915b5050505050905090565b600061043a82610b6b565b506000828152600960205260409020546001600160a01b0316610397565b336001600160a01b037f000000000000000000000000000000000000000000000000000000000000000016146104ea5760405162461bcd60e51b815260206004820152602c60248201527f4e6f6e5472616e7366657261626c654552433732313a206f6e6c79207265676960448201526b1cdd1c9e48185b1b1bddd95960a21b60648201526084015b60405180910390fd5b60035460405163270b6bcf60e11b815260048101919091526001600160a01b03821690634e16d79e90602401600060405180830381600087803b15801561053057600080fd5b505af1158015610544573d6000803e3d6000fd5b50506000805460ff60a01b1916600160a01b1781556040516001600160a01b03851693503092507f9603bf83c2911c6b0dd953eb62e0804c697e90855fa1007b93c0964cb39d8e169190a350565b60405162461bcd60e51b815260206004820152603060248201527f4e6f6e5472616e7366657261626c654552433732313a20746f6b656e2069732060448201526f6e6f6e2d7472616e7366657261626c6560801b60648201526084016104e1565b61060e83838360405180602001604052806000815250610592565b505050565b336001600160a01b037f0000000000000000000000000000000000000000000000000000000000000000161461069f5760405162461bcd60e51b815260206004820152602b60248201527f4e6f6e5472616e7366657261626c654552433732313a206f6e6c79206661637460448201526a1bdc9e48185b1b1bddd95960aa1b60648201526084016104e1565b6000818060200190518101906106b5919061171a565b80519091506001600160a01b03166107295760405162461bcd60e51b815260206004820152603160248201527f4e6f6e5472616e7366657261626c654552433732313a2069737375657220697360448201527020746865207a65726f206164647265737360781b60648201526084016104e1565b60008160600151511161078a5760405162461bcd60e51b8152602060048201526024808201527f4e6f6e5472616e7366657261626c654552433732313a206e616d6520697320656044820152636d70747960e01b60648201526084016104e1565b6000816080015151116107ee5760405162461bcd60e51b815260206004820152602660248201527f4e6f6e5472616e7366657261626c654552433732313a2073796d626f6c20697360448201526520656d70747960d01b60648201526084016104e1565b60008160a0015151116108535760405162461bcd60e51b815260206004820152602760248201527f4e6f6e5472616e7366657261626c654552433732313a206261736555524920696044820152667320656d70747960c81b60648201526084016104e1565b60208101516001600160a01b03166108d35760405162461bcd60e51b815260206004820152603d60248201527f4e6f6e5472616e7366657261626c654552433732313a206f726967696e43686160448201527f696e4164647265737320697320746865207a65726f206164647265737300000060648201526084016104e1565b600081604001511161093c5760405162461bcd60e51b815260206004820152602c60248201527f4e6f6e5472616e7366657261626c654552433732313a206f726967696e43686160448201526b696e4964206973207a65726f60a01b60648201526084016104e1565b8051600080546001600160a01b039283166001600160a01b03199182161790915560208301516001805491909316911617905560408101516002556060810151600490610989908261183c565b50608081015160059061099c908261183c565b5060a081015160069061060e908261183c565b6060816040516020016109c291906118fc565b6040516020818303038152906040529050919050565b600061039782610b6b565b600080546001600160a01b0316610a4b5760405162461bcd60e51b815260206004820152602660248201527f4e6f6e5472616e7366657261626c654552433732313a206e6f7420696e697469604482015265185b1a5e995960d21b60648201526084016104e1565b600360008154610a5a90611987565b9091555050600354610a6c8282610ba4565b919050565b60006001600160a01b038216610a9d576040516322718ad960e21b8152600060048201526024016104e1565b506001600160a01b031660009081526008602052604090205490565b6060600580546103ac90611690565b6060610ad382610b6b565b506000610aeb60408051602081019091526000815290565b90506000815111610b0b5760405180602001604052806000815250610b36565b80610b1584610bc2565b604051602001610b269291906119ae565b6040516020818303038152906040525b9392505050565b6001600160a01b039182166000908152600a6020908152604080832093909416825291909152205460ff1690565b6000818152600760205260408120546001600160a01b03168061039757604051637e27328960e01b8152600481018490526024016104e1565b610bbe828260405180602001604052806000815250610c55565b5050565b60606000610bcf83610c6c565b600101905060008167ffffffffffffffff811115610bef57610bef6113b4565b6040519080825280601f01601f191660200182016040528015610c19576020820181803683370190505b5090508181016020015b600019016f181899199a1a9b1b9c1cb0b131b232b360811b600a86061a8153600a8504945084610c2357509392505050565b610c5f8383610d44565b61060e6000848484610e65565b60008072184f03e93ff9f4daa797ed6e38ed64bf6a1f0160401b8310610cab5772184f03e93ff9f4daa797ed6e38ed64bf6a1f0160401b830492506040015b6d04ee2d6d415b85acef81000000008310610cd7576d04ee2d6d415b85acef8100000000830492506020015b662386f26fc100008310610cf557662386f26fc10000830492506010015b6305f5e1008310610d0d576305f5e100830492506008015b6127108310610d2157612710830492506004015b60648310610d33576064830492506002015b600a83106103975760010192915050565b600054600160a01b900460ff1615610db85760405162461bcd60e51b815260206004820152603160248201527f4e6f6e5472616e7366657261626c654552433732313a20636f6e7472616374206044820152701a185cc81899595b881d5c19dc98591959607a1b60648201526084016104e1565b6001600160a01b038216610de257604051633250574960e11b8152600060048201526024016104e1565b6000610df083836000610f8f565b90506001600160a01b03811615610e1d576040516339e3563760e11b8152600060048201526024016104e1565b826001600160a01b03167f1292a1381d69fd0f033102672143fff68d426b4b73eb1fa4df2620aeed9a299483604051610e5891815260200190565b60405180910390a2505050565b6001600160a01b0383163b15610f8957604051630a85bd0160e11b81526001600160a01b0384169063150b7a0290610ea79033908890879087906004016119dd565b6020604051808303816000875af1925050508015610ee2575060408051601f3d908101601f19168201909252610edf91810190611a1a565b60015b610f4b573d808015610f10576040519150601f19603f3d011682016040523d82523d6000602084013e610f15565b606091505b508051600003610f4357604051633250574960e11b81526001600160a01b03851660048201526024016104e1565b805181602001fd5b6001600160e01b03198116630a85bd0160e11b14610f8757604051633250574960e11b81526001600160a01b03851660048201526024016104e1565b505b50505050565b6000828152600760205260408120546001600160a01b0390811690831615610fbc57610fbc818486611088565b6001600160a01b03811615610ffa57610fd96000856000806110ec565b6001600160a01b038116600090815260086020526040902080546000190190555b6001600160a01b03851615611029576001600160a01b0385166000908152600860205260409020805460010190555b60008481526007602052604080822080546001600160a01b0319166001600160a01b0389811691821790925591518793918516917fddf252ad1be2c89b69c2b068fc378daa952ba7f163c4a11628f55a4df523b3ef91a4949350505050565b6110938383836111f2565b61060e576001600160a01b0383166110c157604051637e27328960e01b8152600481018290526024016104e1565b60405163177e802f60e01b81526001600160a01b0383166004820152602481018290526044016104e1565b808061110057506001600160a01b03821615155b156111c257600061111084610b6b565b90506001600160a01b0383161580159061113c5750826001600160a01b0316816001600160a01b031614155b801561114f575061114d8184610b3d565b155b156111785760405163a9fbf51f60e01b81526001600160a01b03841660048201526024016104e1565b81156111c05783856001600160a01b0316826001600160a01b03167f8c5be1e5ebec7d5bd14f71427d1e84f3dd0314c0f7b2291e5b200ac8c7c3b92560405160405180910390a45b505b5050600090815260096020526040902080546001600160a01b0319166001600160a01b0392909216919091179055565b60006001600160a01b038316158015906112505750826001600160a01b0316846001600160a01b0316148061122c575061122c8484610b3d565b8061125057506000828152600960205260409020546001600160a01b038481169116145b949350505050565b6001600160e01b03198116811461126e57600080fd5b50565b60006020828403121561128357600080fd5b8135610b3681611258565b60005b838110156112a9578181015183820152602001611291565b50506000910152565b600081518084526112ca81602086016020860161128e565b601f01601f19169290920160200192915050565b602081526000610b3660208301846112b2565b60006020828403121561130357600080fd5b5035919050565b6001600160a01b038116811461126e57600080fd5b8035610a6c8161130a565b60006020828403121561133c57600080fd5b8135610b368161130a565b6000806040838503121561135a57600080fd5b82356113658161130a565b946020939093013593505050565b60008060006060848603121561138857600080fd5b83356113938161130a565b925060208401356113a38161130a565b929592945050506040919091013590565b634e487b7160e01b600052604160045260246000fd5b60405160c0810167ffffffffffffffff811182821017156113ed576113ed6113b4565b60405290565b604051601f8201601f1916810167ffffffffffffffff8111828210171561141c5761141c6113b4565b604052919050565b600067ffffffffffffffff82111561143e5761143e6113b4565b50601f01601f191660200190565b600082601f83011261145d57600080fd5b813561147061146b82611424565b6113f3565b81815284602083860101111561148557600080fd5b816020850160208301376000918101602001919091529392505050565b6000602082840312156114b457600080fd5b813567ffffffffffffffff8111156114cb57600080fd5b6112508482850161144c565b6000602082840312156114e957600080fd5b813567ffffffffffffffff8082111561150157600080fd5b9083019060c0828603121561151557600080fd5b61151d6113ca565b6115268361131f565b81526115346020840161131f565b60208201526040830135604082015260608301358281111561155557600080fd5b6115618782860161144c565b60608301525060808301358281111561157957600080fd5b6115858782860161144c565b60808301525060a08301358281111561159d57600080fd5b6115a98782860161144c565b60a08301525095945050505050565b600080604083850312156115cb57600080fd5b82356115d68161130a565b9150602083013580151581146115eb57600080fd5b809150509250929050565b6000806000806080858703121561160c57600080fd5b84356116178161130a565b935060208501356116278161130a565b925060408501359150606085013567ffffffffffffffff81111561164a57600080fd5b6116568782880161144c565b91505092959194509250565b6000806040838503121561167557600080fd5b82356116808161130a565b915060208301356115eb8161130a565b600181811c908216806116a457607f821691505b6020821081036116c457634e487b7160e01b600052602260045260246000fd5b50919050565b8051610a6c8161130a565b600082601f8301126116e657600080fd5b81516116f461146b82611424565b81815284602083860101111561170957600080fd5b61125082602083016020870161128e565b60006020828403121561172c57600080fd5b815167ffffffffffffffff8082111561174457600080fd5b9083019060c0828603121561175857600080fd5b6117606113ca565b611769836116ca565b8152611777602084016116ca565b60208201526040830151604082015260608301518281111561179857600080fd5b6117a4878286016116d5565b6060830152506080830151828111156117bc57600080fd5b6117c8878286016116d5565b60808301525060a0830151828111156117e057600080fd5b6115a9878286016116d5565b601f82111561060e576000816000526020600020601f850160051c810160208610156118155750805b601f850160051c820191505b8181101561183457828155600101611821565b505050505050565b815167ffffffffffffffff811115611856576118566113b4565b61186a816118648454611690565b846117ec565b602080601f83116001811461189f57600084156118875750858301515b600019600386901b1c1916600185901b178555611834565b600085815260208120601f198616915b828110156118ce578886015182559484019460019091019084016118af565b50858210156118ec5787850151600019600388901b60f8161c191681555b5050505050600190811b01905550565b60208152600060018060a01b038084511660208401528060208501511660408401525060408301516060830152606083015160c0608084015261194260e08401826112b2565b90506080840151601f19808584030160a086015261196083836112b2565b925060a08601519150808584030160c08601525061197e82826112b2565b95945050505050565b6000600182016119a757634e487b7160e01b600052601160045260246000fd5b5060010190565b600083516119c081846020880161128e565b8351908301906119d481836020880161128e565b01949350505050565b6001600160a01b0385811682528416602082015260408101839052608060608201819052600090611a10908301846112b2565b9695505050505050565b600060208284031215611a2c57600080fd5b8151610b368161125856fea264697066735822122076b612d3c5f2c0cff1962ea2b1547b8328a379ee715ed971afd1fbc6ff4191b064736f6c63430008180033",
  "linkReferences": {},
  "deployedLinkReferences": {}
}