{
  "_format": "hh-sol-artifact-1",
  "contractName": "NTERC20Asset",
  "sourceName": "contracts/asset/erc20/NTERC20Asset.sol",
  "abi": [
    {
      "inputs": [
        {
          "components": [
            {
              "internalType": "address",
              "name": "assetFactory",
              "type": "address"
            },
            {
              "internalType": "address",
              "name": "assetRegistry",
              "type": "address"
            },
            {
              "internalType": "address",
              "name": "avatarRegistry",
              "type": "address"
            },
            {
              "internalType": "address",
              "name": "experienceRegistry",
              "type": "address"
            }
          ],
          "internalType": "struct BaseAssetArgs",
          "name": "args",
          "type": "tuple"
        }
      ],
      "stateMutability": "nonpayable",
      "type": "constructor"
    },
    {
      "inputs": [
        {
          "internalType": "address",
          "name": "spender",
          "type": "address"
        },
        {
          "internalType": "uint256",
          "name": "allowance",
          "type": "uint256"
        },
        {
          "internalType": "uint256",
          "name": "needed",
          "type": "uint256"
        }
      ],
      "name": "ERC20InsufficientAllowance",
      "type": "error"
    },
    {
      "inputs": [
        {
          "internalType": "address",
          "name": "sender",
          "type": "address"
        },
        {
          "internalType": "uint256",
          "name": "balance",
          "type": "uint256"
        },
        {
          "internalType": "uint256",
          "name": "needed",
          "type": "uint256"
        }
      ],
      "name": "ERC20InsufficientBalance",
      "type": "error"
    },
    {
      "inputs": [
        {
          "internalType": "address",
          "name": "approver",
          "type": "address"
        }
      ],
      "name": "ERC20InvalidApprover",
      "type": "error"
    },
    {
      "inputs": [
        {
          "internalType": "address",
          "name": "receiver",
          "type": "address"
        }
      ],
      "name": "ERC20InvalidReceiver",
      "type": "error"
    },
    {
      "inputs": [
        {
          "internalType": "address",
          "name": "sender",
          "type": "address"
        }
      ],
      "name": "ERC20InvalidSender",
      "type": "error"
    },
    {
      "inputs": [
        {
          "internalType": "address",
          "name": "spender",
          "type": "address"
        }
      ],
      "name": "ERC20InvalidSpender",
      "type": "error"
    },
    {
      "inputs": [],
      "name": "ReentrancyGuardReentrantCall",
      "type": "error"
    },
    {
      "anonymous": false,
      "inputs": [
        {
          "indexed": true,
          "internalType": "address",
          "name": "owner",
          "type": "address"
        },
        {
          "indexed": true,
          "internalType": "address",
          "name": "spender",
          "type": "address"
        },
        {
          "indexed": false,
          "internalType": "uint256",
          "name": "value",
          "type": "uint256"
        }
      ],
      "name": "Approval",
      "type": "event"
    },
    {
      "anonymous": false,
      "inputs": [
        {
          "indexed": true,
          "internalType": "address",
          "name": "condition",
          "type": "address"
        }
      ],
      "name": "AssetConditionAdded",
      "type": "event"
    },
    {
      "anonymous": false,
      "inputs": [
        {
          "indexed": true,
          "internalType": "address",
          "name": "condition",
          "type": "address"
        }
      ],
      "name": "AssetConditionRemoved",
      "type": "event"
    },
    {
      "anonymous": false,
      "inputs": [
        {
          "indexed": true,
          "internalType": "address",
          "name": "hook",
          "type": "address"
        }
      ],
      "name": "AssetHookAdded",
      "type": "event"
    },
    {
      "anonymous": false,
      "inputs": [
        {
          "indexed": true,
          "internalType": "address",
          "name": "hook",
          "type": "address"
        }
      ],
      "name": "AssetHookRemoved",
      "type": "event"
    },
    {
      "anonymous": false,
      "inputs": [
        {
          "indexed": true,
          "internalType": "address",
          "name": "to",
          "type": "address"
        },
        {
          "indexed": false,
          "internalType": "uint256",
          "name": "amt",
          "type": "uint256"
        }
      ],
      "name": "ERC20Minted",
      "type": "event"
    },
    {
      "anonymous": false,
      "inputs": [
        {
          "indexed": true,
          "internalType": "address",
          "name": "oldAsset",
          "type": "address"
        },
        {
          "indexed": false,
          "internalType": "address",
          "name": "newAsset",
          "type": "address"
        }
      ],
      "name": "ERC20Upgraded",
      "type": "event"
    },
    {
      "anonymous": false,
      "inputs": [
        {
          "indexed": true,
          "internalType": "address",
          "name": "from",
          "type": "address"
        },
        {
          "indexed": true,
          "internalType": "address",
          "name": "to",
          "type": "address"
        },
        {
          "indexed": false,
          "internalType": "uint256",
          "name": "value",
          "type": "uint256"
        }
      ],
      "name": "Transfer",
      "type": "event"
    },
    {
      "inputs": [
        {
          "internalType": "contract IAssetCondition",
          "name": "condition",
          "type": "address"
        }
      ],
      "name": "addCondition",
      "outputs": [],
      "stateMutability": "nonpayable",
      "type": "function"
    },
    {
      "inputs": [
        {
          "internalType": "contract IAssetHook",
          "name": "_hook",
          "type": "address"
        }
      ],
      "name": "addHook",
      "outputs": [],
      "stateMutability": "nonpayable",
      "type": "function"
    },
    {
      "inputs": [
        {
          "internalType": "address",
          "name": "owner",
          "type": "address"
        },
        {
          "internalType": "address",
          "name": "spender",
          "type": "address"
        }
      ],
      "name": "allowance",
      "outputs": [
        {
          "internalType": "uint256",
          "name": "",
          "type": "uint256"
        }
      ],
      "stateMutability": "view",
      "type": "function"
    },
    {
      "inputs": [
        {
          "internalType": "address",
          "name": "",
          "type": "address"
        },
        {
          "internalType": "uint256",
          "name": "",
          "type": "uint256"
        }
      ],
      "name": "approve",
      "outputs": [
        {
          "internalType": "bool",
          "name": "",
          "type": "bool"
        }
      ],
      "stateMutability": "nonpayable",
      "type": "function"
    },
    {
      "inputs": [],
      "name": "assetFactory",
      "outputs": [
        {
          "internalType": "address",
          "name": "",
          "type": "address"
        }
      ],
      "stateMutability": "view",
      "type": "function"
    },
    {
      "inputs": [],
      "name": "assetRegistry",
      "outputs": [
        {
          "internalType": "address",
          "name": "",
          "type": "address"
        }
      ],
      "stateMutability": "view",
      "type": "function"
    },
    {
      "inputs": [],
      "name": "avatarRegistry",
      "outputs": [
        {
          "internalType": "contract IAvatarRegistry",
          "name": "",
          "type": "address"
        }
      ],
      "stateMutability": "view",
      "type": "function"
    },
    {
      "inputs": [
        {
          "internalType": "address",
          "name": "account",
          "type": "address"
        }
      ],
      "name": "balanceOf",
      "outputs": [
        {
          "internalType": "uint256",
          "name": "",
          "type": "uint256"
        }
      ],
      "stateMutability": "view",
      "type": "function"
    },
    {
      "inputs": [
        {
          "internalType": "address",
          "name": "to",
          "type": "address"
        },
        {
          "internalType": "bytes",
          "name": "",
          "type": "bytes"
        }
      ],
      "name": "canMint",
      "outputs": [
        {
          "internalType": "bool",
          "name": "",
          "type": "bool"
        }
      ],
      "stateMutability": "pure",
      "type": "function"
    },
    {
      "inputs": [
        {
          "components": [
            {
              "internalType": "address",
              "name": "asset",
              "type": "address"
            },
            {
              "internalType": "address",
              "name": "world",
              "type": "address"
            },
            {
              "internalType": "address",
              "name": "company",
              "type": "address"
            },
            {
              "internalType": "address",
              "name": "experience",
              "type": "address"
            },
            {
              "internalType": "address",
              "name": "avatar",
              "type": "address"
            }
          ],
          "internalType": "struct AssetCheckArgs",
          "name": "args",
          "type": "tuple"
        }
      ],
      "name": "canUseAsset",
      "outputs": [
        {
          "internalType": "bool",
          "name": "",
          "type": "bool"
        }
      ],
      "stateMutability": "view",
      "type": "function"
    },
    {
      "inputs": [
        {
          "components": [
            {
              "internalType": "address",
              "name": "asset",
              "type": "address"
            },
            {
              "internalType": "address",
              "name": "world",
              "type": "address"
            },
            {
              "internalType": "address",
              "name": "company",
              "type": "address"
            },
            {
              "internalType": "address",
              "name": "experience",
              "type": "address"
            },
            {
              "internalType": "address",
              "name": "avatar",
              "type": "address"
            }
          ],
          "internalType": "struct AssetCheckArgs",
          "name": "args",
          "type": "tuple"
        }
      ],
      "name": "canViewAsset",
      "outputs": [
        {
          "internalType": "bool",
          "name": "",
          "type": "bool"
        }
      ],
      "stateMutability": "view",
      "type": "function"
    },
    {
      "inputs": [],
      "name": "decimals",
      "outputs": [
        {
          "internalType": "uint8",
          "name": "",
          "type": "uint8"
        }
      ],
      "stateMutability": "view",
      "type": "function"
    },
    {
      "inputs": [
        {
          "components": [
            {
              "internalType": "address",
              "name": "originChainAddress",
              "type": "address"
            },
            {
              "internalType": "address",
              "name": "issuer",
              "type": "address"
            },
            {
              "internalType": "uint8",
              "name": "decimals",
              "type": "uint8"
            },
            {
              "internalType": "uint256",
              "name": "originChainId",
              "type": "uint256"
            },
            {
              "internalType": "uint256",
              "name": "totalSupply",
              "type": "uint256"
            },
            {
              "internalType": "string",
              "name": "name",
              "type": "string"
            },
            {
              "internalType": "string",
              "name": "symbol",
              "type": "string"
            }
          ],
          "internalType": "struct ERC20InitData",
          "name": "data",
          "type": "tuple"
        }
      ],
      "name": "encodeInitData",
      "outputs": [
        {
          "internalType": "bytes",
          "name": "",
          "type": "bytes"
        }
      ],
      "stateMutability": "pure",
      "type": "function"
    },
    {
      "inputs": [],
      "name": "experienceRegistry",
      "outputs": [
        {
          "internalType": "contract IExperienceRegistry",
          "name": "",
          "type": "address"
        }
      ],
      "stateMutability": "view",
      "type": "function"
    },
    {
      "inputs": [],
      "name": "hook",
      "outputs": [
        {
          "internalType": "contract IAssetHook",
          "name": "",
          "type": "address"
        }
      ],
      "stateMutability": "view",
      "type": "function"
    },
    {
      "inputs": [
        {
          "internalType": "bytes",
          "name": "initData",
          "type": "bytes"
        }
      ],
      "name": "init",
      "outputs": [],
      "stateMutability": "nonpayable",
      "type": "function"
    },
    {
      "inputs": [],
      "name": "issuer",
      "outputs": [
        {
          "internalType": "address",
          "name": "",
          "type": "address"
        }
      ],
      "stateMutability": "view",
      "type": "function"
    },
    {
      "inputs": [
        {
          "internalType": "address",
          "name": "to",
          "type": "address"
        },
        {
          "internalType": "bytes",
          "name": "data",
          "type": "bytes"
        }
      ],
      "name": "mint",
      "outputs": [],
      "stateMutability": "nonpayable",
      "type": "function"
    },
    {
      "inputs": [],
      "name": "name",
      "outputs": [
        {
          "internalType": "string",
          "name": "",
          "type": "string"
        }
      ],
      "stateMutability": "view",
      "type": "function"
    },
    {
      "inputs": [],
      "name": "originAddress",
      "outputs": [
        {
          "internalType": "address",
          "name": "",
          "type": "address"
        }
      ],
      "stateMutability": "view",
      "type": "function"
    },
    {
      "inputs": [],
      "name": "originChainId",
      "outputs": [
        {
          "internalType": "uint256",
          "name": "",
          "type": "uint256"
        }
      ],
      "stateMutability": "view",
      "type": "function"
    },
    {
      "inputs": [],
      "name": "removeCondition",
      "outputs": [],
      "stateMutability": "nonpayable",
      "type": "function"
    },
    {
      "inputs": [],
      "name": "removeHook",
      "outputs": [],
      "stateMutability": "nonpayable",
      "type": "function"
    },
    {
      "inputs": [
        {
          "internalType": "address",
          "name": "tgt",
          "type": "address"
        },
        {
          "internalType": "bytes",
          "name": "data",
          "type": "bytes"
        }
      ],
      "name": "revoke",
      "outputs": [],
      "stateMutability": "nonpayable",
      "type": "function"
    },
    {
      "inputs": [],
      "name": "symbol",
      "outputs": [
        {
          "internalType": "string",
          "name": "",
          "type": "string"
        }
      ],
      "stateMutability": "view",
      "type": "function"
    },
    {
      "inputs": [],
      "name": "totalSupply",
      "outputs": [
        {
          "internalType": "uint256",
          "name": "",
          "type": "uint256"
        }
      ],
      "stateMutability": "view",
      "type": "function"
    },
    {
      "inputs": [
        {
          "internalType": "address",
          "name": "",
          "type": "address"
        },
        {
          "internalType": "uint256",
          "name": "",
          "type": "uint256"
        }
      ],
      "name": "transfer",
      "outputs": [
        {
          "internalType": "bool",
          "name": "",
          "type": "bool"
        }
      ],
      "stateMutability": "nonpayable",
      "type": "function"
    },
    {
      "inputs": [
        {
          "internalType": "address",
          "name": "",
          "type": "address"
        },
        {
          "internalType": "address",
          "name": "",
          "type": "address"
        },
        {
          "internalType": "uint256",
          "name": "",
          "type": "uint256"
        }
      ],
      "name": "transferFrom",
      "outputs": [
        {
          "internalType": "bool",
          "name": "",
          "type": "bool"
        }
      ],
      "stateMutability": "nonpayable",
      "type": "function"
    },
    {
      "inputs": [
        {
          "internalType": "bytes",
          "name": "initData",
          "type": "bytes"
        }
      ],
      "name": "upgrade",
      "outputs": [],
      "stateMutability": "nonpayable",
      "type": "function"
    },
    {
      "inputs": [
        {
          "internalType": "address",
          "name": "newAsset",
          "type": "address"
        }
      ],
      "name": "upgradeComplete",
      "outputs": [],
      "stateMutability": "nonpayable",
      "type": "function"
    },
    {
      "inputs": [],
      "name": "version",
      "outputs": [
        {
          "internalType": "uint256",
          "name": "",
          "type": "uint256"
        }
      ],
      "stateMutability": "view",
      "type": "function"
    }
  ],
  "bytecode": "0x610100604052600180553480156200001657600080fd5b506040516200272d3803806200272d83398101604081905262000039916200025c565b6001600055805181906001600160a01b0316620000b15760405162461bcd60e51b815260206004820152602b60248201527f4261736541737365743a206173736574466163746f727920697320746865207a60448201526a65726f206164647265737360a81b60648201526084015b60405180910390fd5b60208101516001600160a01b0316620001225760405162461bcd60e51b815260206004820152602c60248201527f4261736541737365743a2061737365745265676973747279206973207468652060448201526b7a65726f206164647265737360a01b6064820152608401620000a8565b60408101516001600160a01b0316620001945760405162461bcd60e51b815260206004820152602d60248201527f4261736541737365743a2061766174617252656769737472792069732074686560448201526c207a65726f206164647265737360981b6064820152608401620000a8565b60608101516001600160a01b03166200020a5760405162461bcd60e51b815260206004820152603160248201527f4261736541737365743a20657870657269656e6365526567697374727920697360448201527020746865207a65726f206164647265737360781b6064820152608401620000a8565b80516001600160a01b039081166080526020820151811660a0526040820151811660c0526060909101511660e05250620002f0565b80516001600160a01b03811681146200025757600080fd5b919050565b6000608082840312156200026f57600080fd5b604051608081016001600160401b0381118282101715620002a057634e487b7160e01b600052604160045260246000fd5b604052620002ae836200023f565b8152620002be602084016200023f565b6020820152620002d1604084016200023f565b6040820152620002e4606084016200023f565b60608201529392505050565b60805160a05160c05160e0516123e762000346600039600061037501526000818161046a015261151f0152600081816103a401526107fb015260008181610430015281816108730152610b2501526123e76000f3fe608060405234801561001057600080fd5b50600436106101e55760003560e01c80635e7a90051161010f5780639e54c0a2116100a2578063c3acb4d111610071578063c3acb4d11461042b578063dd62ed3e14610452578063e3d7ad7314610465578063e517fedd1461048c57600080fd5b80639e54c0a2146103d9578063a9059cbb146103f7578063b4e75b9b14610405578063b510391f1461041857600080fd5b80638f09a6be116100de5780638f09a6be1461037057806395d89b4114610397578063979d7e861461039f5780639a973844146103c657600080fd5b80635e7a90051461032f57806370a08231146103425780637b4e04e8146103555780637f5a7c7b1461036857600080fd5b806323b872dd11610187578063378f17ff11610156578063378f17ff146102f85780633fa47f17146103005780634ddf47d41461031357806354fd4d501461032657600080fd5b806323b872dd146102a557806325394645146102b85780632663d1f7146102cb578063313ce567146102de57600080fd5b80630ac7f561116101c35780630ac7f5611461023557806318160ddd1461024b5780631d1438481461027257806322d349321461029257600080fd5b8063021665b7146101ea57806306fdde03146101f4578063095ea7b314610212575b600080fd5b6101f2610494565b005b6101fc61052b565b6040516102099190611af2565b60405180910390f35b610225610220366004611b2d565b6105c6565b6040519015158152602001610209565b61023d610629565b604051908152602001610209565b7f176cbabf2c0dbfb763886e1a47867828030f47836ae8a29efa61d706d1eb86045461023d565b61027a61063c565b6040516001600160a01b039091168152602001610209565b6101f26102a0366004611b59565b610658565b6102256102b3366004611b76565b61074e565b6101f26102c6366004611c00565b6107b1565b6101f26102d9366004611b59565b610868565b6102e66109d6565b60405160ff9091168152602001610209565b6101f26109e9565b61022561030e366004611cb2565b610a77565b6101f2610321366004611db0565b610b1a565b61023d60015481565b6101fc61033d366004611e3b565b610fa0565b61023d610350366004611b59565b610fc9565b6101f2610363366004611b59565b611003565b61027a6110f4565b61027a7f000000000000000000000000000000000000000000000000000000000000000081565b6101fc611110565b61027a7f000000000000000000000000000000000000000000000000000000000000000081565b6101f26103d4366004611f13565b611128565b6102256103e7366004611f13565b50506001600160a01b0316151590565b6102256102b3366004611b2d565b610225610413366004611cb2565b611343565b6101f2610426366004611f13565b61139e565b61027a7f000000000000000000000000000000000000000000000000000000000000000081565b61023d610460366004611f68565b61161b565b61027a7f000000000000000000000000000000000000000000000000000000000000000081565b61027a611667565b61049c611685565b600101546001600160a01b031633146104d05760405162461bcd60e51b81526004016104c790611fa1565b60405180910390fd5b60006104da611685565b60038101546040519192506001600160a01b03169081907f2df08b6a3a4aed918c51e7ac3bbbe4f82bb09d26fef89a0c23ddc38c1a3c385b90600090a25060030180546001600160a01b0319169055565b6060610535611685565b600501805461054390611fd8565b80601f016020809104026020016040519081016040528092919081815260200182805461056f90611fd8565b80156105bc5780601f10610591576101008083540402835291602001916105bc565b820191906000526020600020905b81548152906001019060200180831161059f57829003601f168201915b5050505050905090565b60405162461bcd60e51b815260206004820152602f60248201527f4e6f6e5472616e7366657261626c6545524332303a20617070726f76616c732060448201526e1b9bdd08185b1b1bddd959081e595d608a1b60648201526000906084016104c7565b6000610633611685565b60040154905090565b6000610646611685565b600101546001600160a01b0316919050565b610660611685565b600101546001600160a01b0316331461068b5760405162461bcd60e51b81526004016104c790611fa1565b6000610695611685565b90506001600160a01b0382166107015760405162461bcd60e51b815260206004820152602b60248201527f4261736541737365743a20636f6e646974696f6e2063616e6e6f74206265207a60448201526a65726f206164647265737360a81b60648201526084016104c7565b6003810180546001600160a01b0319166001600160a01b0384169081179091556040517fb17f5e42ddd024b71620166aeff196e5f40a39a3d7fe8082929e768015fbf7c190600090a25050565b60405162461bcd60e51b815260206004820152602f60248201527f4e6f6e5472616e7366657261626c6545524332303a207472616e73666572732060448201526e1b9bdd08185b1b1bddd959081e595d608a1b60648201526000906084016104c7565b6107b9611685565b600101546001600160a01b031633146107e45760405162461bcd60e51b81526004016104c790611fa1565b604051633cbd429360e01b81526001600160a01b037f00000000000000000000000000000000000000000000000000000000000000001690633cbd4293906108329085908590600401612012565b600060405180830381600087803b15801561084c57600080fd5b505af1158015610860573d6000803e3d6000fd5b505050505050565b336001600160a01b037f000000000000000000000000000000000000000000000000000000000000000016146108e05760405162461bcd60e51b815260206004820152601f60248201527f4261736541737365743a206f6e6c7920666163746f727920616c6c6f7765640060448201526064016104c7565b306001600160a01b03821603610960576040805162461bcd60e51b81526020600482015260248101919091527f4e54455243323041737365743a206e6577207570677261646520636f6e74726160448201527f637420616464726573732063616e6e6f74206d61746368206f726967696e616c60648201526084016104c7565b7f1f07e7b49187e1cf67924ca1fa35732211c5bb2c23b6b53ee47453438de7285e80546001600160a01b0319166001600160a01b038316908117825560405190815230907fe0cdc3a6eaf24c066560b5cb2e50c08f3d82cce0e3d838dc7032ba68790cd52b906020015b60405180910390a25050565b60006109e0611685565b5460ff16919050565b6109f1611685565b600101546001600160a01b03163314610a1c5760405162461bcd60e51b81526004016104c790611fa1565b6000610a26611685565b60028101546040519192506001600160a01b03169081907f94dff9f830507f1f2b72515aaaaa174f690a73801b6ab87ae6d75e584de177c890600090a25060020180546001600160a01b0319169055565b600080610a82611685565b60038101549091506001600160a01b0316610aa05750600192915050565b60038101546040516377b63b9160e11b81526001600160a01b039091169063ef6c772290610ad2908690600401612041565b602060405180830381865afa158015610aef573d6000803e3d6000fd5b505050506040513d601f19601f82011682018060405250810190610b139190612088565b9392505050565b336001600160a01b037f00000000000000000000000000000000000000000000000000000000000000001614610b925760405162461bcd60e51b815260206004820152601f60248201527f4261736541737365743a206f6e6c7920666163746f727920616c6c6f7765640060448201526064016104c7565b600081806020019051810190610ba89190612105565b60208101519091506001600160a01b0316610c215760405162461bcd60e51b815260206004820152603360248201527f4e6f6e5472616e7366657261626c6545524332303a206973737565722063616e6044820152726e6f74206265207a65726f206164647265737360681b60648201526084016104c7565b80516001600160a01b0316610c915760405162461bcd60e51b815260206004820152603060248201527f41737365743a206f726967696e436861696e416464726573732063616e6e6f7460448201526f206265207a65726f206164647265737360801b60648201526084016104c7565b6000816080015111610d0b5760405162461bcd60e51b815260206004820152603b60248201527f4e6f6e5472616e7366657261626c6545524332303a20746f74616c537570706c60448201527f79206d7573742062652067726561746572207468616e207a65726f000000000060648201526084016104c7565b60008160a001515111610d735760405162461bcd60e51b815260206004820152602a60248201527f4e6f6e5472616e7366657261626c6545524332303a206e616d652063616e6e6f6044820152697420626520656d70747960b01b60648201526084016104c7565b60008160c001515111610ddd5760405162461bcd60e51b815260206004820152602c60248201527f4e6f6e5472616e7366657261626c6545524332303a2073796d626f6c2063616e60448201526b6e6f7420626520656d70747960a01b60648201526084016104c7565b6000816060015111610e575760405162461bcd60e51b815260206004820152603d60248201527f4e6f6e5472616e7366657261626c6545524332303a206f726967696e4368616960448201527f6e4964206d7573742062652067726561746572207468616e207a65726f00000060648201526084016104c7565b80517f176cbabf2c0dbfb763886e1a47867828030f47836ae8a29efa61d706d1eb86078054610100600160a81b0319166101006001600160a01b039384160217905560208201517f176cbabf2c0dbfb763886e1a47867828030f47836ae8a29efa61d706d1eb860880546001600160a01b0319169190921617905560608101517f176cbabf2c0dbfb763886e1a47867828030f47836ae8a29efa61d706d1eb860b5560808101517f176cbabf2c0dbfb763886e1a47867828030f47836ae8a29efa61d706d1eb860490815560a08201517f176cbabf2c0dbfb763886e1a47867828030f47836ae8a29efa61d706d1eb860c90610f539082612216565b5060c08201516009820190610f689082612216565b506000826040015160ff1611610f7f576012610f85565b81604001515b600391909101805460ff191660ff9092169190911790555050565b606081604051602001610fb391906122d6565b6040516020818303038152906040529050919050565b6001600160a01b031660009081527f176cbabf2c0dbfb763886e1a47867828030f47836ae8a29efa61d706d1eb8605602052604090205490565b61100b611685565b600101546001600160a01b031633146110365760405162461bcd60e51b81526004016104c790611fa1565b6000611040611685565b90506001600160a01b0382166110a75760405162461bcd60e51b815260206004820152602660248201527f4261736541737365743a20686f6f6b2063616e6e6f74206265207a65726f206160448201526564647265737360d01b60648201526084016104c7565b6002810180546001600160a01b0319166001600160a01b0384169081179091556040517ff716b9f35a5af170228b0c97201cc581ce2ca1703824fd6b78f3583f28f7eedc90600090a25050565b60006110fe611685565b600201546001600160a01b0316919050565b606061111a611685565b600601805461054390611fd8565b6111306116a9565b611138611685565b600101546001600160a01b031633146111635760405162461bcd60e51b81526004016104c790611fa1565b600061116d611685565b600201546001600160a01b03169050600061118a8385018561235a565b90508061119686610fc9565b101561120a5760405162461bcd60e51b815260206004820152603960248201527f4e6f6e5472616e7366657261626c65455243323041737365743a20696e73756660448201527f66696369656e742062616c616e636520746f207265766f6b650000000000000060648201526084016104c7565b6001600160a01b0382161561130d576040516335661e9560e21b81523060048201526001600160a01b038681166024830152604482018390526000919084169063d5987a54906064016020604051808303816000875af1158015611272573d6000803e3d6000fd5b505050506040513d601f19601f820116820180604052508101906112969190612088565b90508061130b5760405162461bcd60e51b815260206004820152603d60248201527f4e6f6e5472616e7366657261626c65455243323041737365743a206265666f7260448201527f655265766f6b6520686f6f6b2072656a6563746564207265717565737400000060648201526084016104c7565b505b600061131886610fc9565b90506113318682841061132b57826116d3565b836116d3565b50505061133e6001600055565b505050565b60008061134e611685565b60038101549091506001600160a01b031661136c5750600192915050565b600381015460405163eab4ad0360e01b81526001600160a01b039091169063eab4ad0390610ad2908690600401612041565b6113a66116a9565b6113ae611685565b600101546001600160a01b031633146113d95760405162461bcd60e51b81526004016104c790611fa1565b60006113e78284018461235a565b905060006113f3611685565b60028101549091506001600160a01b0316156115005760028101546040516386b8418760e01b81523060048201526001600160a01b0387811660248301526044820185905260009216906386b84187906064016020604051808303816000875af1158015611465573d6000803e3d6000fd5b505050506040513d601f19601f820116820180604052508101906114899190612088565b9050806114fe5760405162461bcd60e51b815260206004820152603b60248201527f4e6f6e5472616e7366657261626c65455243323041737365743a206265666f7260448201527f654d696e7420686f6f6b2072656a65637465642072657175657374000000000060648201526084016104c7565b505b604051632b0fe8e760e21b81526001600160a01b0386811660048301527f0000000000000000000000000000000000000000000000000000000000000000169063ac3fa39c90602401602060405180830381865afa158015611566573d6000803e3d6000fd5b505050506040513d601f19601f8201168201806040525081019061158a9190612088565b15611605576000859050806001600160a01b031663181d939b6040518163ffffffff1660e01b8152600401602060405180830381865afa1580156115d2573d6000803e3d6000fd5b505050506040513d601f19601f820116820180604052508101906115f69190612088565b611603576116038661170d565b505b61160f85836118df565b505061133e6001600055565b6001600160a01b0382811660009081527f176cbabf2c0dbfb763886e1a47867828030f47836ae8a29efa61d706d1eb860660209081526040808320938516835292905220545b92915050565b6000611671611685565b5461010090046001600160a01b0316919050565b7f176cbabf2c0dbfb763886e1a47867828030f47836ae8a29efa61d706d1eb860790565b6002600054036116cc57604051633ee5aeb560e01b815260040160405180910390fd5b6002600055565b6001600160a01b0382166116fd57604051634b637e8f60e11b8152600060048201526024016104c7565b61170982600083611950565b5050565b6000816001600160a01b031663516f279e6040518163ffffffff1660e01b8152600401602060405180830381865afa15801561174d573d6000803e3d6000fd5b505050506040513d601f19601f820116820180604052508101906117719190612373565b9050600061177d611685565b90506001600160a01b0382166117df5760405162461bcd60e51b815260206004820152602160248201527f4261736541737365743a2061766174617220686173206e6f206c6f636174696f6044820152603760f91b60648201526084016104c7565b600181015460408051636904c94d60e01b815290516001600160a01b0392831692851691636904c94d9160048083019260209291908290030181865afa15801561182d573d6000803e3d6000fd5b505050506040513d601f19601f820116820180604052508101906118519190612373565b6001600160a01b03161461133e5760405162461bcd60e51b815260206004820152604960248201527f4261736541737365743a2061766174617220646f6573206e6f7420616c6c6f7760448201527f20617373657473206f757473696465206f66206974732063757272656e7420656064820152687870657269656e636560b81b608482015260a4016104c7565b6001600160a01b0382166119095760405163ec442f0560e01b8152600060048201526024016104c7565b61191560008383611950565b816001600160a01b03167f1f98ee45d72cac8271cfd41cc599153bf1465afc3fc1f0b3e2a97b8f1c4253a9826040516109ca91815260200190565b7f176cbabf2c0dbfb763886e1a47867828030f47836ae8a29efa61d706d1eb86046001600160a01b03841661199e57818160000160008282546119939190612390565b90915550611a149050565b6001600160a01b0384166000908152600182016020526040902054828110156119f35760405163391434e360e21b81526001600160a01b038616600482015260248101829052604481018490526064016104c7565b6001600160a01b038516600090815260018301602052604090209083900390555b6001600160a01b038316611a2e5780548290038155611a4f565b6001600160a01b038316600090815260018201602052604090208054830190555b826001600160a01b0316846001600160a01b03167fddf252ad1be2c89b69c2b068fc378daa952ba7f163c4a11628f55a4df523b3ef84604051611a9491815260200190565b60405180910390a350505050565b60005b83811015611abd578181015183820152602001611aa5565b50506000910152565b60008151808452611ade816020860160208601611aa2565b601f01601f19169290920160200192915050565b602081526000610b136020830184611ac6565b6001600160a01b0381168114611b1a57600080fd5b50565b8035611b2881611b05565b919050565b60008060408385031215611b4057600080fd5b8235611b4b81611b05565b946020939093013593505050565b600060208284031215611b6b57600080fd5b8135610b1381611b05565b600080600060608486031215611b8b57600080fd5b8335611b9681611b05565b92506020840135611ba681611b05565b929592945050506040919091013590565b60008083601f840112611bc957600080fd5b50813567ffffffffffffffff811115611be157600080fd5b602083019150836020828501011115611bf957600080fd5b9250929050565b60008060208385031215611c1357600080fd5b823567ffffffffffffffff811115611c2a57600080fd5b611c3685828601611bb7565b90969095509350505050565b634e487b7160e01b600052604160045260246000fd5b60405160e0810167ffffffffffffffff81118282101715611c7b57611c7b611c42565b60405290565b604051601f8201601f1916810167ffffffffffffffff81118282101715611caa57611caa611c42565b604052919050565b600060a08284031215611cc457600080fd5b60405160a0810181811067ffffffffffffffff82111715611ce757611ce7611c42565b6040528235611cf581611b05565b81526020830135611d0581611b05565b60208201526040830135611d1881611b05565b60408201526060830135611d2b81611b05565b60608201526080830135611d3e81611b05565b60808201529392505050565b600067ffffffffffffffff821115611d6457611d64611c42565b50601f01601f191660200190565b6000611d85611d8084611d4a565b611c81565b9050828152838383011115611d9957600080fd5b828260208301376000602084830101529392505050565b600060208284031215611dc257600080fd5b813567ffffffffffffffff811115611dd957600080fd5b8201601f81018413611dea57600080fd5b611df984823560208401611d72565b949350505050565b60ff81168114611b1a57600080fd5b8035611b2881611e01565b600082601f830112611e2c57600080fd5b610b1383833560208501611d72565b600060208284031215611e4d57600080fd5b813567ffffffffffffffff80821115611e6557600080fd5b9083019060e08286031215611e7957600080fd5b611e81611c58565b611e8a83611b1d565b8152611e9860208401611b1d565b6020820152611ea960408401611e10565b6040820152606083013560608201526080830135608082015260a083013582811115611ed457600080fd5b611ee087828601611e1b565b60a08301525060c083013582811115611ef857600080fd5b611f0487828601611e1b565b60c08301525095945050505050565b600080600060408486031215611f2857600080fd5b8335611f3381611b05565b9250602084013567ffffffffffffffff811115611f4f57600080fd5b611f5b86828701611bb7565b9497909650939450505050565b60008060408385031215611f7b57600080fd5b8235611f8681611b05565b91506020830135611f9681611b05565b809150509250929050565b6020808252601e908201527f4261736541737365743a206f6e6c792069737375657220616c6c6f7765640000604082015260600190565b600181811c90821680611fec57607f821691505b60208210810361200c57634e487b7160e01b600052602260045260246000fd5b50919050565b60208152816020820152818360408301376000818301604090810191909152601f909201601f19160101919050565b81516001600160a01b039081168252602080840151821690830152604080840151821690830152606080840151821690830152608092830151169181019190915260a00190565b60006020828403121561209a57600080fd5b81518015158114610b1357600080fd5b8051611b2881611b05565b8051611b2881611e01565b600082601f8301126120d157600080fd5b81516120df611d8082611d4a565b8181528460208386010111156120f457600080fd5b611df9826020830160208701611aa2565b60006020828403121561211757600080fd5b815167ffffffffffffffff8082111561212f57600080fd5b9083019060e0828603121561214357600080fd5b61214b611c58565b612154836120aa565b8152612162602084016120aa565b6020820152612173604084016120b5565b6040820152606083015160608201526080830151608082015260a08301518281111561219e57600080fd5b6121aa878286016120c0565b60a08301525060c0830151828111156121c257600080fd5b611f04878286016120c0565b601f82111561133e576000816000526020600020601f850160051c810160208610156121f75750805b601f850160051c820191505b8181101561086057828155600101612203565b815167ffffffffffffffff81111561223057612230611c42565b6122448161223e8454611fd8565b846121ce565b602080601f83116001811461227957600084156122615750858301515b600019600386901b1c1916600185901b178555610860565b600085815260208120601f198616915b828110156122a857888601518255948401946001909101908401612289565b50858210156122c65787850151600019600388901b60f8161c191681555b5050505050600190811b01905550565b60208152600060018060a01b038084511660208401528060208501511660408401525060ff604084015116606083015260608301516080830152608083015160a083015260a083015160e060c0840152612334610100840182611ac6565b905060c0840151601f198483030160e08501526123518282611ac6565b95945050505050565b60006020828403121561236c57600080fd5b5035919050565b60006020828403121561238557600080fd5b8151610b1381611b05565b8082018082111561166157634e487b7160e01b600052601160045260246000fdfea2646970667358221220f08caf623cbd1b4762be5f7df76f9e794f75f83a57ed33897ebea2e2baaae34964736f6c63430008180033",
  "linkReferences": {},
  "deployedLinkReferences": {}
}