{
  "_format": "hh-sol-artifact-1",
  "contractName": "FilterByWorld",
  "sourceName": "contracts/asset/sample_conditions/FilterByWorld.sol",
  "abi": [
    {
      "inputs": [
        {
          "internalType": "address",
          "name": "_owner",
          "type": "address"
        },
        {
          "internalType": "address[]",
          "name": "worlds",
          "type": "address[]"
        }
      ],
      "stateMutability": "nonpayable",
      "type": "constructor"
    },
    {
      "inputs": [
        {
          "internalType": "address",
          "name": "world",
          "type": "address"
        }
      ],
      "name": "addWorld",
      "outputs": [],
      "stateMutability": "nonpayable",
      "type": "function"
    },
    {
      "inputs": [
        {
          "internalType": "address",
          "name": "",
          "type": "address"
        }
      ],
      "name": "allowedWorlds",
      "outputs": [
        {
          "internalType": "bool",
          "name": "",
          "type": "bool"
        }
      ],
      "stateMutability": "view",
      "type": "function"
    },
    {
      "inputs": [
        {
          "components": [
            {
              "internalType": "address",
              "name": "asset",
              "type": "address"
            },
            {
              "internalType": "address",
              "name": "world",
              "type": "address"
            },
            {
              "internalType": "address",
              "name": "company",
              "type": "address"
            },
            {
              "internalType": "address",
              "name": "experience",
              "type": "address"
            },
            {
              "internalType": "address",
              "name": "avatar",
              "type": "address"
            }
          ],
          "internalType": "struct AssetCheckArgs",
          "name": "args",
          "type": "tuple"
        }
      ],
      "name": "canUse",
      "outputs": [
        {
          "internalType": "bool",
          "name": "",
          "type": "bool"
        }
      ],
      "stateMutability": "view",
      "type": "function"
    },
    {
      "inputs": [
        {
          "components": [
            {
              "internalType": "address",
              "name": "asset",
              "type": "address"
            },
            {
              "internalType": "address",
              "name": "world",
              "type": "address"
            },
            {
              "internalType": "address",
              "name": "company",
              "type": "address"
            },
            {
              "internalType": "address",
              "name": "experience",
              "type": "address"
            },
            {
              "internalType": "address",
              "name": "avatar",
              "type": "address"
            }
          ],
          "internalType": "struct AssetCheckArgs",
          "name": "args",
          "type": "tuple"
        }
      ],
      "name": "canView",
      "outputs": [
        {
          "internalType": "bool",
          "name": "",
          "type": "bool"
        }
      ],
      "stateMutability": "view",
      "type": "function"
    },
    {
      "inputs": [
        {
          "internalType": "address",
          "name": "world",
          "type": "address"
        }
      ],
      "name": "removeWorld",
      "outputs": [],
      "stateMutability": "nonpayable",
      "type": "function"
    }
  ],
  "bytecode": "0x608060405234801561001057600080fd5b506040516104c03803806104c083398101604081905261002f916100df565b600080546001600160a01b0319166001600160a01b0384161781555b81518110156100a557600180600084848151811061006b5761006b6101b8565b6020908102919091018101516001600160a01b03168252810191909152604001600020805460ff191691151591909117905560010161004b565b5050506101ce565b80516001600160a01b03811681146100c457600080fd5b919050565b634e487b7160e01b600052604160045260246000fd5b600080604083850312156100f257600080fd5b6100fb836100ad565b602084810151919350906001600160401b038082111561011a57600080fd5b818601915086601f83011261012e57600080fd5b815181811115610140576101406100c9565b8060051b604051601f19603f83011681018181108582111715610165576101656100c9565b60405291825284820192508381018501918983111561018357600080fd5b938501935b828510156101a857610199856100ad565b84529385019392850192610188565b8096505050505050509250929050565b634e487b7160e01b600052603260045260246000fd5b6102e3806101dd6000396000f3fe608060405234801561001057600080fd5b50600436106100575760003560e01c806324a6c5321461005c578063bf40ce1d14610071578063ddc5e915146100a8578063eab4ad03146100bb578063ef6c7722146100bb575b600080fd5b61006f61006a3660046101ae565b6100ed565b005b61009461007f3660046101ae565b60016020526000908152604090205460ff1681565b604051901515815260200160405180910390f35b61006f6100b63660046101ae565b610141565b6100946100c93660046101d0565b6020908101516001600160a01b031660009081526001909152604090205460ff1690565b6000546001600160a01b031633146101205760405162461bcd60e51b81526004016101179061026c565b60405180910390fd5b6001600160a01b03166000908152600160205260409020805460ff19169055565b6000546001600160a01b0316331461016b5760405162461bcd60e51b81526004016101179061026c565b6001600160a01b03166000908152600160208190526040909120805460ff19169091179055565b80356001600160a01b03811681146101a957600080fd5b919050565b6000602082840312156101c057600080fd5b6101c982610192565b9392505050565b600060a082840312156101e257600080fd5b60405160a0810181811067ffffffffffffffff8211171561021357634e487b7160e01b600052604160045260246000fd5b60405261021f83610192565b815261022d60208401610192565b602082015261023e60408401610192565b604082015261024f60608401610192565b606082015261026060808401610192565b60808201529392505050565b60208082526021908201527f46696c7465724279576f726c643a206f6e6c79206f776e657220616c6c6f77656040820152601960fa1b60608201526080019056fea2646970667358221220d16e88ffeb3039cd0cfed4fafed3bae87e60dcbfa4dc7bdbf18a62782d5db9b564736f6c63430008180033",
  "linkReferences": {},
  "deployedLinkReferences": {}
}