{
  "_format": "hh-sol-artifact-1",
  "contractName": "FilterByWorld",
  "sourceName": "contracts/asset/sample_conditions/FilterByWorld.sol",
  "abi": [
    {
      "inputs": [
        {
          "internalType": "address",
          "name": "_owner",
          "type": "address"
        },
        {
          "internalType": "address[]",
          "name": "worlds",
          "type": "address[]"
        }
      ],
      "stateMutability": "nonpayable",
      "type": "constructor"
    },
    {
      "inputs": [
        {
          "internalType": "address",
          "name": "world",
          "type": "address"
        }
      ],
      "name": "addWorld",
      "outputs": [],
      "stateMutability": "nonpayable",
      "type": "function"
    },
    {
      "inputs": [
        {
          "internalType": "address",
          "name": "",
          "type": "address"
        }
      ],
      "name": "allowedWorlds",
      "outputs": [
        {
          "internalType": "bool",
          "name": "",
          "type": "bool"
        }
      ],
      "stateMutability": "view",
      "type": "function"
    },
    {
      "inputs": [
        {
          "internalType": "address",
          "name": "",
          "type": "address"
        },
        {
          "internalType": "address",
          "name": "world",
          "type": "address"
        },
        {
          "internalType": "address",
          "name": "",
          "type": "address"
        },
        {
          "internalType": "address",
          "name": "",
          "type": "address"
        }
      ],
      "name": "canUse",
      "outputs": [
        {
          "internalType": "bool",
          "name": "",
          "type": "bool"
        }
      ],
      "stateMutability": "view",
      "type": "function"
    },
    {
      "inputs": [
        {
          "internalType": "address",
          "name": "",
          "type": "address"
        },
        {
          "internalType": "address",
          "name": "world",
          "type": "address"
        },
        {
          "internalType": "address",
          "name": "",
          "type": "address"
        },
        {
          "internalType": "address",
          "name": "",
          "type": "address"
        }
      ],
      "name": "canView",
      "outputs": [
        {
          "internalType": "bool",
          "name": "",
          "type": "bool"
        }
      ],
      "stateMutability": "view",
      "type": "function"
    },
    {
      "inputs": [
        {
          "internalType": "address",
          "name": "world",
          "type": "address"
        }
      ],
      "name": "removeWorld",
      "outputs": [],
      "stateMutability": "nonpayable",
      "type": "function"
    }
  ],
  "bytecode": "0x608060405234801561001057600080fd5b5060405161047638038061047683398101604081905261002f916100df565b600080546001600160a01b0319166001600160a01b0384161781555b81518110156100a557600180600084848151811061006b5761006b6101b8565b6020908102919091018101516001600160a01b03168252810191909152604001600020805460ff191691151591909117905560010161004b565b5050506101ce565b80516001600160a01b03811681146100c457600080fd5b919050565b634e487b7160e01b600052604160045260246000fd5b600080604083850312156100f257600080fd5b6100fb836100ad565b602084810151919350906001600160401b038082111561011a57600080fd5b818601915086601f83011261012e57600080fd5b815181811115610140576101406100c9565b8060051b604051601f19603f83011681018181108582111715610165576101656100c9565b60405291825284820192508381018501918983111561018357600080fd5b938501935b828510156101a857610199856100ad565b84529385019392850192610188565b8096505050505050509250929050565b634e487b7160e01b600052603260045260246000fd5b610299806101dd6000396000f3fe608060405234801561001057600080fd5b50600436106100575760003560e01c80630336ff471461005c57806324a6c532146100a05780638547bdf61461005c578063bf40ce1d146100b5578063ddc5e915146100d8575b600080fd5b61008c61006a3660046101ac565b50506001600160a01b031660009081526001602052604090205460ff16919050565b604051901515815260200160405180910390f35b6100b36100ae366004610200565b6100eb565b005b61008c6100c3366004610200565b60016020526000908152604090205460ff1681565b6100b36100e6366004610200565b61013f565b6000546001600160a01b0316331461011e5760405162461bcd60e51b815260040161011590610222565b60405180910390fd5b6001600160a01b03166000908152600160205260409020805460ff19169055565b6000546001600160a01b031633146101695760405162461bcd60e51b815260040161011590610222565b6001600160a01b03166000908152600160208190526040909120805460ff19169091179055565b80356001600160a01b03811681146101a757600080fd5b919050565b600080600080608085870312156101c257600080fd5b6101cb85610190565b93506101d960208601610190565b92506101e760408601610190565b91506101f560608601610190565b905092959194509250565b60006020828403121561021257600080fd5b61021b82610190565b9392505050565b60208082526021908201527f46696c7465724279576f726c643a206f6e6c79206f776e657220616c6c6f77656040820152601960fa1b60608201526080019056fea26469706673582212206cd6c23186998300d6cb5de7c83d82e11dce696ce32246a2cb8b974f7b0bcc7364736f6c63430008180033",
  "linkReferences": {},
  "deployedLinkReferences": {}
}