{
  "_format": "hh-sol-artifact-1",
  "contractName": "World",
  "sourceName": "contracts/world/World.sol",
  "abi": [
    {
      "inputs": [
        {
          "internalType": "address",
          "name": "factory",
          "type": "address"
        },
        {
          "internalType": "address",
          "name": "registry",
          "type": "address"
        }
      ],
      "stateMutability": "nonpayable",
      "type": "constructor"
    },
    {
      "inputs": [],
      "name": "AccessControlBadConfirmation",
      "type": "error"
    },
    {
      "inputs": [
        {
          "internalType": "address",
          "name": "account",
          "type": "address"
        },
        {
          "internalType": "bytes32",
          "name": "neededRole",
          "type": "bytes32"
        }
      ],
      "name": "AccessControlUnauthorizedAccount",
      "type": "error"
    },
    {
      "anonymous": false,
      "inputs": [
        {
          "indexed": true,
          "internalType": "address",
          "name": "sender",
          "type": "address"
        },
        {
          "indexed": false,
          "internalType": "uint256",
          "name": "value",
          "type": "uint256"
        }
      ],
      "name": "ReceivedFunds",
      "type": "event"
    },
    {
      "anonymous": false,
      "inputs": [
        {
          "indexed": true,
          "internalType": "bytes32",
          "name": "role",
          "type": "bytes32"
        },
        {
          "indexed": true,
          "internalType": "bytes32",
          "name": "previousAdminRole",
          "type": "bytes32"
        },
        {
          "indexed": true,
          "internalType": "bytes32",
          "name": "newAdminRole",
          "type": "bytes32"
        }
      ],
      "name": "RoleAdminChanged",
      "type": "event"
    },
    {
      "anonymous": false,
      "inputs": [
        {
          "indexed": true,
          "internalType": "bytes32",
          "name": "role",
          "type": "bytes32"
        },
        {
          "indexed": true,
          "internalType": "address",
          "name": "account",
          "type": "address"
        },
        {
          "indexed": true,
          "internalType": "address",
          "name": "sender",
          "type": "address"
        }
      ],
      "name": "RoleGranted",
      "type": "event"
    },
    {
      "anonymous": false,
      "inputs": [
        {
          "indexed": true,
          "internalType": "bytes32",
          "name": "role",
          "type": "bytes32"
        },
        {
          "indexed": true,
          "internalType": "address",
          "name": "account",
          "type": "address"
        },
        {
          "indexed": true,
          "internalType": "address",
          "name": "sender",
          "type": "address"
        }
      ],
      "name": "RoleRevoked",
      "type": "event"
    },
    {
      "anonymous": false,
      "inputs": [
        {
          "indexed": true,
          "internalType": "address",
          "name": "signer",
          "type": "address"
        }
      ],
      "name": "SignerAdded",
      "type": "event"
    },
    {
      "anonymous": false,
      "inputs": [
        {
          "indexed": true,
          "internalType": "address",
          "name": "signer",
          "type": "address"
        }
      ],
      "name": "SignerRemoved",
      "type": "event"
    },
    {
      "inputs": [],
      "name": "DEFAULT_ADMIN_ROLE",
      "outputs": [
        {
          "internalType": "bytes32",
          "name": "",
          "type": "bytes32"
        }
      ],
      "stateMutability": "view",
      "type": "function"
    },
    {
      "inputs": [
        {
          "internalType": "address[]",
          "name": "sigs",
          "type": "address[]"
        }
      ],
      "name": "addSigners",
      "outputs": [],
      "stateMutability": "nonpayable",
      "type": "function"
    },
    {
      "inputs": [],
      "name": "baseVector",
      "outputs": [
        {
          "internalType": "string",
          "name": "x",
          "type": "string"
        },
        {
          "internalType": "string",
          "name": "y",
          "type": "string"
        },
        {
          "internalType": "string",
          "name": "z",
          "type": "string"
        },
        {
          "internalType": "uint256",
          "name": "t",
          "type": "uint256"
        },
        {
          "internalType": "uint256",
          "name": "p",
          "type": "uint256"
        },
        {
          "internalType": "uint256",
          "name": "p_sub",
          "type": "uint256"
        }
      ],
      "stateMutability": "view",
      "type": "function"
    },
    {
      "inputs": [
        {
          "components": [
            {
              "internalType": "string",
              "name": "name",
              "type": "string"
            },
            {
              "components": [
                {
                  "internalType": "string",
                  "name": "x",
                  "type": "string"
                },
                {
                  "internalType": "string",
                  "name": "y",
                  "type": "string"
                },
                {
                  "internalType": "string",
                  "name": "z",
                  "type": "string"
                },
                {
                  "internalType": "uint256",
                  "name": "t",
                  "type": "uint256"
                },
                {
                  "internalType": "uint256",
                  "name": "p",
                  "type": "uint256"
                },
                {
                  "internalType": "uint256",
                  "name": "p_sub",
                  "type": "uint256"
                }
              ],
              "internalType": "struct VectorAddress",
              "name": "baseVector",
              "type": "tuple"
            }
          ],
          "internalType": "struct WorldInfo",
          "name": "info",
          "type": "tuple"
        }
      ],
      "name": "encodeInfo",
      "outputs": [
        {
          "internalType": "bytes",
          "name": "",
          "type": "bytes"
        }
      ],
      "stateMutability": "pure",
      "type": "function"
    },
    {
      "inputs": [],
      "name": "getBaseVector",
      "outputs": [
        {
          "components": [
            {
              "internalType": "string",
              "name": "x",
              "type": "string"
            },
            {
              "internalType": "string",
              "name": "y",
              "type": "string"
            },
            {
              "internalType": "string",
              "name": "z",
              "type": "string"
            },
            {
              "internalType": "uint256",
              "name": "t",
              "type": "uint256"
            },
            {
              "internalType": "uint256",
              "name": "p",
              "type": "uint256"
            },
            {
              "internalType": "uint256",
              "name": "p_sub",
              "type": "uint256"
            }
          ],
          "internalType": "struct VectorAddress",
          "name": "",
          "type": "tuple"
        }
      ],
      "stateMutability": "view",
      "type": "function"
    },
    {
      "inputs": [],
      "name": "getName",
      "outputs": [
        {
          "internalType": "string",
          "name": "",
          "type": "string"
        }
      ],
      "stateMutability": "view",
      "type": "function"
    },
    {
      "inputs": [],
      "name": "getOwner",
      "outputs": [
        {
          "internalType": "address",
          "name": "",
          "type": "address"
        }
      ],
      "stateMutability": "view",
      "type": "function"
    },
    {
      "inputs": [
        {
          "internalType": "bytes32",
          "name": "role",
          "type": "bytes32"
        }
      ],
      "name": "getRoleAdmin",
      "outputs": [
        {
          "internalType": "bytes32",
          "name": "",
          "type": "bytes32"
        }
      ],
      "stateMutability": "view",
      "type": "function"
    },
    {
      "inputs": [
        {
          "internalType": "bytes32",
          "name": "role",
          "type": "bytes32"
        },
        {
          "internalType": "address",
          "name": "account",
          "type": "address"
        }
      ],
      "name": "grantRole",
      "outputs": [],
      "stateMutability": "nonpayable",
      "type": "function"
    },
    {
      "inputs": [
        {
          "internalType": "bytes32",
          "name": "role",
          "type": "bytes32"
        },
        {
          "internalType": "address",
          "name": "account",
          "type": "address"
        }
      ],
      "name": "hasRole",
      "outputs": [
        {
          "internalType": "bool",
          "name": "",
          "type": "bool"
        }
      ],
      "stateMutability": "view",
      "type": "function"
    },
    {
      "inputs": [
        {
          "internalType": "address",
          "name": "_owner",
          "type": "address"
        },
        {
          "internalType": "bytes",
          "name": "initData",
          "type": "bytes"
        }
      ],
      "name": "init",
      "outputs": [],
      "stateMutability": "nonpayable",
      "type": "function"
    },
    {
      "inputs": [],
      "name": "initialized",
      "outputs": [
        {
          "internalType": "bool",
          "name": "",
          "type": "bool"
        }
      ],
      "stateMutability": "view",
      "type": "function"
    },
    {
      "inputs": [
        {
          "internalType": "address",
          "name": "signer",
          "type": "address"
        }
      ],
      "name": "isSigner",
      "outputs": [
        {
          "internalType": "bool",
          "name": "",
          "type": "bool"
        }
      ],
      "stateMutability": "view",
      "type": "function"
    },
    {
      "inputs": [],
      "name": "name",
      "outputs": [
        {
          "internalType": "string",
          "name": "",
          "type": "string"
        }
      ],
      "stateMutability": "view",
      "type": "function"
    },
    {
      "inputs": [],
      "name": "owner",
      "outputs": [
        {
          "internalType": "address",
          "name": "",
          "type": "address"
        }
      ],
      "stateMutability": "view",
      "type": "function"
    },
    {
      "inputs": [
        {
          "internalType": "address[]",
          "name": "sigs",
          "type": "address[]"
        }
      ],
      "name": "removeSigners",
      "outputs": [],
      "stateMutability": "nonpayable",
      "type": "function"
    },
    {
      "inputs": [
        {
          "internalType": "bytes32",
          "name": "role",
          "type": "bytes32"
        },
        {
          "internalType": "address",
          "name": "callerConfirmation",
          "type": "address"
        }
      ],
      "name": "renounceRole",
      "outputs": [],
      "stateMutability": "nonpayable",
      "type": "function"
    },
    {
      "inputs": [
        {
          "internalType": "bytes32",
          "name": "role",
          "type": "bytes32"
        },
        {
          "internalType": "address",
          "name": "account",
          "type": "address"
        }
      ],
      "name": "revokeRole",
      "outputs": [],
      "stateMutability": "nonpayable",
      "type": "function"
    },
    {
      "inputs": [
        {
          "internalType": "bytes4",
          "name": "interfaceId",
          "type": "bytes4"
        }
      ],
      "name": "supportsInterface",
      "outputs": [
        {
          "internalType": "bool",
          "name": "",
          "type": "bool"
        }
      ],
      "stateMutability": "view",
      "type": "function"
    },
    {
      "inputs": [
        {
          "internalType": "address",
          "name": "newWorld",
          "type": "address"
        }
      ],
      "name": "upgrade",
      "outputs": [],
      "stateMutability": "nonpayable",
      "type": "function"
    },
    {
      "inputs": [],
      "name": "version",
      "outputs": [
        {
          "internalType": "string",
          "name": "",
          "type": "string"
        }
      ],
      "stateMutability": "view",
      "type": "function"
    },
    {
      "inputs": [
        {
          "internalType": "uint256",
          "name": "amt",
          "type": "uint256"
        }
      ],
      "name": "withdraw",
      "outputs": [],
      "stateMutability": "nonpayable",
      "type": "function"
    },
    {
      "inputs": [],
      "name": "worldFactory",
      "outputs": [
        {
          "internalType": "contract IWorldFactory",
          "name": "",
          "type": "address"
        }
      ],
      "stateMutability": "view",
      "type": "function"
    },
    {
      "inputs": [],
      "name": "worldRegistry",
      "outputs": [
        {
          "internalType": "contract IWorldRegistry",
          "name": "",
          "type": "address"
        }
      ],
      "stateMutability": "view",
      "type": "function"
    },
    {
      "stateMutability": "payable",
      "type": "receive"
    }
  ],
  "bytecode": "0x60c06040523480156200001157600080fd5b50604051620019c5380380620019c583398101604081905262000034916200013a565b6001600160a01b0382166200009e5760405162461bcd60e51b815260206004820152602560248201527f576f726c643a20666163746f72792063616e6e6f74206265207a65726f206164604482015264647265737360d81b60648201526084015b60405180910390fd5b6001600160a01b038116620001055760405162461bcd60e51b815260206004820152602660248201527f576f726c643a2072656769737472792063616e6e6f74206265207a65726f206160448201526564647265737360d01b606482015260840162000095565b6001600160a01b039182166080521660a05262000172565b80516001600160a01b03811681146200013557600080fd5b919050565b600080604083850312156200014e57600080fd5b62000159836200011d565b915062000169602084016200011d565b90509250929050565b60805160a05161181f620001a66000396000818161043601526105dd01526000818161021b0152610d47015261181f6000f3fe60806040526004361061014f5760003560e01c806354fd4d50116100b657806391d148541161006f57806391d1485414610458578063a217fddf14610478578063c0d91eaf1461048d578063d547741f146104ad578063e8906a2d146104cd578063f95cf275146104ed57600080fd5b806354fd4d501461036b5780637df73e271461039c578063893d20e8146103bc5780638d361e43146103df5780638da5cb5b146103ff578063911c2a8c1461042457600080fd5b8063248a9ca311610108578063248a9ca3146102845780632e1a7d4d146102c25780632f2ff15d146102e257806336568abe14610302578063382af56d146103225780633f995c2c1461034457600080fd5b806301ffc9a71461019057806306fdde03146101c55780630900f010146101e75780630dc3897d14610209578063158ef93e1461025557806317d7de7c1461026f57600080fd5b3661018b5760405134815233907f5741979df5f3e491501da74d3b0a83dd2496ab1f34929865b3e190a8ad75859a9060200160405180910390a2005b600080fd5b34801561019c57600080fd5b506101b06101ab366004611106565b61050d565b60405190151581526020015b60405180910390f35b3480156101d157600080fd5b506101da610544565b6040516101bc919061117d565b3480156101f357600080fd5b506102076102023660046111ac565b6105d2565b005b34801561021557600080fd5b5061023d7f000000000000000000000000000000000000000000000000000000000000000081565b6040516001600160a01b0390911681526020016101bc565b34801561026157600080fd5b506001546101b09060ff1681565b34801561027b57600080fd5b506101da610705565b34801561029057600080fd5b506102b461029f3660046111c7565b60009081526020819052604090206001015490565b6040519081526020016101bc565b3480156102ce57600080fd5b506102076102dd3660046111c7565b610797565b3480156102ee57600080fd5b506102076102fd3660046111e0565b610835565b34801561030e57600080fd5b5061020761031d3660046111e0565b610860565b34801561032e57600080fd5b50610337610893565b6040516101bc919061127f565b34801561035057600080fd5b50610359610ab2565b6040516101bc96959493929190611292565b34801561037757600080fd5b506101da604051806040016040528060058152602001640312e302e360dc1b81525081565b3480156103a857600080fd5b506101b06103b73660046111ac565b610c72565b3480156103c857600080fd5b5060015461010090046001600160a01b031661023d565b3480156103eb57600080fd5b506102076103fa36600461137d565b610c7e565b34801561040b57600080fd5b5060015461023d9061010090046001600160a01b031681565b34801561043057600080fd5b5061023d7f000000000000000000000000000000000000000000000000000000000000000081565b34801561046457600080fd5b506101b06104733660046111e0565b610d13565b34801561048457600080fd5b506102b4600081565b34801561049957600080fd5b506102076104a836600461142a565b610d3c565b3480156104b957600080fd5b506102076104c83660046111e0565b610ee3565b3480156104d957600080fd5b506102076104e836600461137d565b610f08565b3480156104f957600080fd5b506101da61050836600461151d565b610f9d565b60006001600160e01b03198216637965db0b60e01b148061053e57506301ffc9a760e01b6001600160e01b03198316145b92915050565b6008805461055190611647565b80601f016020809104026020016040519081016040528092919081815260200182805461057d90611647565b80156105ca5780601f1061059f576101008083540402835291602001916105ca565b820191906000526020600020905b8154815290600101906020018083116105ad57829003601f168201915b505050505081565b336001600160a01b037f0000000000000000000000000000000000000000000000000000000000000000161461065f5760405162461bcd60e51b815260206004820152602760248201527f576f726c643a2063616c6c6572206973206e6f742074686520776f726c6420726044820152666567697374727960c81b60648201526084015b60405180910390fd5b6001600160a01b0381166106c55760405162461bcd60e51b815260206004820152602760248201527f576f726c643a206e657720776f726c642063616e6e6f74206265207a65726f206044820152666164647265737360c81b6064820152608401610656565b4715610702576040516001600160a01b038216904780156108fc02916000818181858888f19350505050158015610700573d6000803e3d6000fd5b505b50565b60606008805461071490611647565b80601f016020809104026020016040519081016040528092919081815260200182805461074090611647565b801561078d5780601f106107625761010080835404028352916020019161078d565b820191906000526020600020905b81548152906001019060200180831161077057829003601f168201915b5050505050905090565b60006107a281610fc6565b478211156107f25760405162461bcd60e51b815260206004820152601b60248201527f576f726c643a20696e73756666696369656e742062616c616e636500000000006044820152606401610656565b6001546040516101009091046001600160a01b0316906108fc8415029084906000818181858888f19350505050158015610830573d6000803e3d6000fd5b505050565b60008281526020819052604090206001015461085081610fc6565b61085a8383610fd0565b50505050565b6001600160a01b03811633146108895760405163334bd91960e11b815260040160405180910390fd5b6108308282611062565b6108cc6040518060c001604052806060815260200160608152602001606081526020016000815260200160008152602001600081525090565b60026040518060c00160405290816000820180546108e990611647565b80601f016020809104026020016040519081016040528092919081815260200182805461091590611647565b80156109625780601f1061093757610100808354040283529160200191610962565b820191906000526020600020905b81548152906001019060200180831161094557829003601f168201915b5050505050815260200160018201805461097b90611647565b80601f01602080910402602001604051908101604052809291908181526020018280546109a790611647565b80156109f45780601f106109c9576101008083540402835291602001916109f4565b820191906000526020600020905b8154815290600101906020018083116109d757829003601f168201915b50505050508152602001600282018054610a0d90611647565b80601f0160208091040260200160405190810160405280929190818152602001828054610a3990611647565b8015610a865780601f10610a5b57610100808354040283529160200191610a86565b820191906000526020600020905b815481529060010190602001808311610a6957829003601f168201915b505050505081526020016003820154815260200160048201548152602001600582015481525050905090565b600280548190610ac190611647565b80601f0160208091040260200160405190810160405280929190818152602001828054610aed90611647565b8015610b3a5780601f10610b0f57610100808354040283529160200191610b3a565b820191906000526020600020905b815481529060010190602001808311610b1d57829003601f168201915b505050505090806001018054610b4f90611647565b80601f0160208091040260200160405190810160405280929190818152602001828054610b7b90611647565b8015610bc85780601f10610b9d57610100808354040283529160200191610bc8565b820191906000526020600020905b815481529060010190602001808311610bab57829003601f168201915b505050505090806002018054610bdd90611647565b80601f0160208091040260200160405190810160405280929190818152602001828054610c0990611647565b8015610c565780601f10610c2b57610100808354040283529160200191610c56565b820191906000526020600020905b815481529060010190602001808311610c3957829003601f168201915b5050505050908060030154908060040154908060050154905086565b600061053e8183610d13565b6000610c8981610fc6565b60005b825181101561083057610cbb6000801b848381518110610cae57610cae611681565b6020026020010151611062565b50828181518110610cce57610cce611681565b60200260200101516001600160a01b03167f3525e22824a8a7df2c9a6029941c824cf95b6447f1e13d5128fd3826d35afe8b60405160405180910390a2600101610c8c565b6000918252602082815260408084206001600160a01b0393909316845291905290205460ff1690565b336001600160a01b037f00000000000000000000000000000000000000000000000000000000000000001614610dc35760405162461bcd60e51b815260206004820152602660248201527f576f726c643a2063616c6c6572206973206e6f742074686520776f726c6420666044820152656163746f727960d01b6064820152608401610656565b60015460ff1615610e165760405162461bcd60e51b815260206004820152601a60248201527f576f726c643a20616c726561647920696e697469616c697a65640000000000006044820152606401610656565b6000610e248284018461151d565b60208101518051919250906002908190610e3e90826116e7565b5060208201516001820190610e5390826116e7565b5060408201516002820190610e6890826116e7565b50606082015160038201556080820151600482015560a0909101516005909101558051600890610e9890826116e7565b5060018054610100600160a81b0319166101006001600160a01b0387811682029290921792839055610ed09260009291900416610fd0565b50506001805460ff191681179055505050565b600082815260208190526040902060010154610efe81610fc6565b61085a8383611062565b6000610f1381610fc6565b60005b825181101561083057610f456000801b848381518110610f3857610f38611681565b6020026020010151610fd0565b50828181518110610f5857610f58611681565b60200260200101516001600160a01b03167f47d1c22a25bb3a5d4e481b9b1e6944c2eade3181a0a20b495ed61d35b5323f2460405160405180910390a2600101610f16565b606081604051602001610fb091906117a7565b6040516020818303038152906040529050919050565b61070281336110cd565b6000610fdc8383610d13565b61105a576000838152602081815260408083206001600160a01b03861684529091529020805460ff191660011790556110123390565b6001600160a01b0316826001600160a01b0316847f2f8788117e7eff1d82e926ec794901d17c78024a50270940304540a733656f0d60405160405180910390a450600161053e565b50600061053e565b600061106e8383610d13565b1561105a576000838152602081815260408083206001600160a01b0386168085529252808320805460ff1916905551339286917ff6391f5c32d9c69d2a47ea670b442974b53935d1edc7fd64eb21e047a839171b9190a450600161053e565b6110d78282610d13565b6107005760405163e2517d3f60e01b81526001600160a01b038216600482015260248101839052604401610656565b60006020828403121561111857600080fd5b81356001600160e01b03198116811461113057600080fd5b9392505050565b6000815180845260005b8181101561115d57602081850181015186830182015201611141565b506000602082860101526020601f19601f83011685010191505092915050565b6020815260006111306020830184611137565b80356001600160a01b03811681146111a757600080fd5b919050565b6000602082840312156111be57600080fd5b61113082611190565b6000602082840312156111d957600080fd5b5035919050565b600080604083850312156111f357600080fd5b8235915061120360208401611190565b90509250929050565b6000815160c0845261122160c0850182611137565b90506020830151848203602086015261123a8282611137565b915050604083015184820360408601526112548282611137565b915050606083015160608501526080830151608085015260a083015160a08501528091505092915050565b602081526000611130602083018461120c565b60c0815260006112a560c0830189611137565b82810360208401526112b78189611137565b905082810360408401526112cb8188611137565b60608401969096525050608081019290925260a0909101529392505050565b634e487b7160e01b600052604160045260246000fd5b6040805190810167ffffffffffffffff81118282101715611323576113236112ea565b60405290565b60405160c0810167ffffffffffffffff81118282101715611323576113236112ea565b604051601f8201601f1916810167ffffffffffffffff81118282101715611375576113756112ea565b604052919050565b6000602080838503121561139057600080fd5b823567ffffffffffffffff808211156113a857600080fd5b818501915085601f8301126113bc57600080fd5b8135818111156113ce576113ce6112ea565b8060051b91506113df84830161134c565b81815291830184019184810190888411156113f957600080fd5b938501935b8385101561141e5761140f85611190565b825293850193908501906113fe565b98975050505050505050565b60008060006040848603121561143f57600080fd5b61144884611190565b9250602084013567ffffffffffffffff8082111561146557600080fd5b818601915086601f83011261147957600080fd5b81358181111561148857600080fd5b87602082850101111561149a57600080fd5b6020830194508093505050509250925092565b600082601f8301126114be57600080fd5b813567ffffffffffffffff8111156114d8576114d86112ea565b6114eb601f8201601f191660200161134c565b81815284602083860101111561150057600080fd5b816020850160208301376000918101602001919091529392505050565b60006020828403121561152f57600080fd5b813567ffffffffffffffff8082111561154757600080fd5b908301906040828603121561155b57600080fd5b611563611300565b82358281111561157257600080fd5b61157e878286016114ad565b82525060208301358281111561159357600080fd5b929092019160c083870312156115a857600080fd5b6115b0611329565b8335838111156115bf57600080fd5b6115cb888287016114ad565b8252506020840135838111156115e057600080fd5b6115ec888287016114ad565b60208301525060408401358381111561160457600080fd5b611610888287016114ad565b604083015250606084013560608201526080840135608082015260a084013560a08201528060208301525080935050505092915050565b600181811c9082168061165b57607f821691505b60208210810361167b57634e487b7160e01b600052602260045260246000fd5b50919050565b634e487b7160e01b600052603260045260246000fd5b601f821115610830576000816000526020600020601f850160051c810160208610156116c05750805b601f850160051c820191505b818110156116df578281556001016116cc565b505050505050565b815167ffffffffffffffff811115611701576117016112ea565b6117158161170f8454611647565b84611697565b602080601f83116001811461174a57600084156117325750858301515b600019600386901b1c1916600185901b1785556116df565b600085815260208120601f198616915b828110156117795788860151825594840194600190910190840161175a565b50858210156117975787850151600019600388901b60f8161c191681555b5050505050600190811b01905550565b6020815260008251604060208401526117c36060840182611137565b90506020840151601f198483030160408501526117e0828261120c565b9594505050505056fea264697066735822122015a3ff4fbba3f646d0b343ff39d46f49e54fba9dfbe4398e9a2c22b01617e9d364736f6c63430008180033",
  "linkReferences": {},
  "deployedLinkReferences": {}
}