{
  "_format": "hh-sol-artifact-1",
  "contractName": "World",
  "sourceName": "contracts/world/World.sol",
  "abi": [
    {
      "inputs": [
        {
          "internalType": "address",
          "name": "factory",
          "type": "address"
        },
        {
          "internalType": "address",
          "name": "registry",
          "type": "address"
        }
      ],
      "stateMutability": "nonpayable",
      "type": "constructor"
    },
    {
      "inputs": [],
      "name": "AccessControlBadConfirmation",
      "type": "error"
    },
    {
      "inputs": [
        {
          "internalType": "address",
          "name": "account",
          "type": "address"
        },
        {
          "internalType": "bytes32",
          "name": "neededRole",
          "type": "bytes32"
        }
      ],
      "name": "AccessControlUnauthorizedAccount",
      "type": "error"
    },
    {
      "inputs": [],
      "name": "ECDSAInvalidSignature",
      "type": "error"
    },
    {
      "inputs": [
        {
          "internalType": "uint256",
          "name": "length",
          "type": "uint256"
        }
      ],
      "name": "ECDSAInvalidSignatureLength",
      "type": "error"
    },
    {
      "inputs": [
        {
          "internalType": "bytes32",
          "name": "s",
          "type": "bytes32"
        }
      ],
      "name": "ECDSAInvalidSignatureS",
      "type": "error"
    },
    {
      "anonymous": false,
      "inputs": [
        {
          "indexed": true,
          "internalType": "address",
          "name": "sender",
          "type": "address"
        },
        {
          "indexed": false,
          "internalType": "uint256",
          "name": "value",
          "type": "uint256"
        }
      ],
      "name": "ReceivedFunds",
      "type": "event"
    },
    {
      "anonymous": false,
      "inputs": [
        {
          "indexed": true,
          "internalType": "bytes32",
          "name": "role",
          "type": "bytes32"
        },
        {
          "indexed": true,
          "internalType": "bytes32",
          "name": "previousAdminRole",
          "type": "bytes32"
        },
        {
          "indexed": true,
          "internalType": "bytes32",
          "name": "newAdminRole",
          "type": "bytes32"
        }
      ],
      "name": "RoleAdminChanged",
      "type": "event"
    },
    {
      "anonymous": false,
      "inputs": [
        {
          "indexed": true,
          "internalType": "bytes32",
          "name": "role",
          "type": "bytes32"
        },
        {
          "indexed": true,
          "internalType": "address",
          "name": "account",
          "type": "address"
        },
        {
          "indexed": true,
          "internalType": "address",
          "name": "sender",
          "type": "address"
        }
      ],
      "name": "RoleGranted",
      "type": "event"
    },
    {
      "anonymous": false,
      "inputs": [
        {
          "indexed": true,
          "internalType": "bytes32",
          "name": "role",
          "type": "bytes32"
        },
        {
          "indexed": true,
          "internalType": "address",
          "name": "account",
          "type": "address"
        },
        {
          "indexed": true,
          "internalType": "address",
          "name": "sender",
          "type": "address"
        }
      ],
      "name": "RoleRevoked",
      "type": "event"
    },
    {
      "anonymous": false,
      "inputs": [
        {
          "indexed": true,
          "internalType": "address",
          "name": "signer",
          "type": "address"
        }
      ],
      "name": "SignerAdded",
      "type": "event"
    },
    {
      "anonymous": false,
      "inputs": [
        {
          "indexed": true,
          "internalType": "address",
          "name": "signer",
          "type": "address"
        }
      ],
      "name": "SignerRemoved",
      "type": "event"
    },
    {
      "inputs": [],
      "name": "DEFAULT_ADMIN_ROLE",
      "outputs": [
        {
          "internalType": "bytes32",
          "name": "",
          "type": "bytes32"
        }
      ],
      "stateMutability": "view",
      "type": "function"
    },
    {
      "inputs": [
        {
          "internalType": "address[]",
          "name": "sigs",
          "type": "address[]"
        }
      ],
      "name": "addSigners",
      "outputs": [],
      "stateMutability": "nonpayable",
      "type": "function"
    },
    {
      "inputs": [],
      "name": "baseVector",
      "outputs": [
        {
          "internalType": "string",
          "name": "x",
          "type": "string"
        },
        {
          "internalType": "string",
          "name": "y",
          "type": "string"
        },
        {
          "internalType": "string",
          "name": "z",
          "type": "string"
        },
        {
          "internalType": "uint256",
          "name": "t",
          "type": "uint256"
        },
        {
          "internalType": "uint256",
          "name": "p",
          "type": "uint256"
        },
        {
          "internalType": "uint256",
          "name": "p_sub",
          "type": "uint256"
        }
      ],
      "stateMutability": "view",
      "type": "function"
    },
    {
      "inputs": [
        {
          "components": [
            {
              "internalType": "string",
              "name": "name",
              "type": "string"
            },
            {
              "components": [
                {
                  "internalType": "string",
                  "name": "x",
                  "type": "string"
                },
                {
                  "internalType": "string",
                  "name": "y",
                  "type": "string"
                },
                {
                  "internalType": "string",
                  "name": "z",
                  "type": "string"
                },
                {
                  "internalType": "uint256",
                  "name": "t",
                  "type": "uint256"
                },
                {
                  "internalType": "uint256",
                  "name": "p",
                  "type": "uint256"
                },
                {
                  "internalType": "uint256",
                  "name": "p_sub",
                  "type": "uint256"
                }
              ],
              "internalType": "struct VectorAddress",
              "name": "baseVector",
              "type": "tuple"
            },
            {
              "internalType": "bytes",
              "name": "vectorAuthorizedSignature",
              "type": "bytes"
            }
          ],
          "internalType": "struct WorldInfo",
          "name": "info",
          "type": "tuple"
        }
      ],
      "name": "encodeInfo",
      "outputs": [
        {
          "internalType": "bytes",
          "name": "",
          "type": "bytes"
        }
      ],
      "stateMutability": "pure",
      "type": "function"
    },
    {
      "inputs": [],
      "name": "getBaseVector",
      "outputs": [
        {
          "components": [
            {
              "internalType": "string",
              "name": "x",
              "type": "string"
            },
            {
              "internalType": "string",
              "name": "y",
              "type": "string"
            },
            {
              "internalType": "string",
              "name": "z",
              "type": "string"
            },
            {
              "internalType": "uint256",
              "name": "t",
              "type": "uint256"
            },
            {
              "internalType": "uint256",
              "name": "p",
              "type": "uint256"
            },
            {
              "internalType": "uint256",
              "name": "p_sub",
              "type": "uint256"
            }
          ],
          "internalType": "struct VectorAddress",
          "name": "",
          "type": "tuple"
        }
      ],
      "stateMutability": "view",
      "type": "function"
    },
    {
      "inputs": [],
      "name": "getName",
      "outputs": [
        {
          "internalType": "string",
          "name": "",
          "type": "string"
        }
      ],
      "stateMutability": "view",
      "type": "function"
    },
    {
      "inputs": [],
      "name": "getOwner",
      "outputs": [
        {
          "internalType": "address",
          "name": "",
          "type": "address"
        }
      ],
      "stateMutability": "view",
      "type": "function"
    },
    {
      "inputs": [
        {
          "internalType": "bytes32",
          "name": "role",
          "type": "bytes32"
        }
      ],
      "name": "getRoleAdmin",
      "outputs": [
        {
          "internalType": "bytes32",
          "name": "",
          "type": "bytes32"
        }
      ],
      "stateMutability": "view",
      "type": "function"
    },
    {
      "inputs": [
        {
          "internalType": "bytes32",
          "name": "role",
          "type": "bytes32"
        },
        {
          "internalType": "address",
          "name": "account",
          "type": "address"
        }
      ],
      "name": "grantRole",
      "outputs": [],
      "stateMutability": "nonpayable",
      "type": "function"
    },
    {
      "inputs": [
        {
          "internalType": "bytes32",
          "name": "role",
          "type": "bytes32"
        },
        {
          "internalType": "address",
          "name": "account",
          "type": "address"
        }
      ],
      "name": "hasRole",
      "outputs": [
        {
          "internalType": "bool",
          "name": "",
          "type": "bool"
        }
      ],
      "stateMutability": "view",
      "type": "function"
    },
    {
      "inputs": [
        {
          "internalType": "address",
          "name": "_owner",
          "type": "address"
        },
        {
          "internalType": "bytes",
          "name": "initData",
          "type": "bytes"
        }
      ],
      "name": "init",
      "outputs": [],
      "stateMutability": "nonpayable",
      "type": "function"
    },
    {
      "inputs": [],
      "name": "initialized",
      "outputs": [
        {
          "internalType": "bool",
          "name": "",
          "type": "bool"
        }
      ],
      "stateMutability": "view",
      "type": "function"
    },
    {
      "inputs": [
        {
          "internalType": "address",
          "name": "signer",
          "type": "address"
        }
      ],
      "name": "isSigner",
      "outputs": [
        {
          "internalType": "bool",
          "name": "",
          "type": "bool"
        }
      ],
      "stateMutability": "view",
      "type": "function"
    },
    {
      "inputs": [],
      "name": "name",
      "outputs": [
        {
          "internalType": "string",
          "name": "",
          "type": "string"
        }
      ],
      "stateMutability": "view",
      "type": "function"
    },
    {
      "inputs": [],
      "name": "owner",
      "outputs": [
        {
          "internalType": "address",
          "name": "",
          "type": "address"
        }
      ],
      "stateMutability": "view",
      "type": "function"
    },
    {
      "inputs": [
        {
          "internalType": "address[]",
          "name": "sigs",
          "type": "address[]"
        }
      ],
      "name": "removeSigners",
      "outputs": [],
      "stateMutability": "nonpayable",
      "type": "function"
    },
    {
      "inputs": [
        {
          "internalType": "bytes32",
          "name": "role",
          "type": "bytes32"
        },
        {
          "internalType": "address",
          "name": "callerConfirmation",
          "type": "address"
        }
      ],
      "name": "renounceRole",
      "outputs": [],
      "stateMutability": "nonpayable",
      "type": "function"
    },
    {
      "inputs": [
        {
          "internalType": "bytes32",
          "name": "role",
          "type": "bytes32"
        },
        {
          "internalType": "address",
          "name": "account",
          "type": "address"
        }
      ],
      "name": "revokeRole",
      "outputs": [],
      "stateMutability": "nonpayable",
      "type": "function"
    },
    {
      "inputs": [
        {
          "internalType": "bytes4",
          "name": "interfaceId",
          "type": "bytes4"
        }
      ],
      "name": "supportsInterface",
      "outputs": [
        {
          "internalType": "bool",
          "name": "",
          "type": "bool"
        }
      ],
      "stateMutability": "view",
      "type": "function"
    },
    {
      "inputs": [
        {
          "internalType": "address",
          "name": "newWorld",
          "type": "address"
        }
      ],
      "name": "upgrade",
      "outputs": [],
      "stateMutability": "nonpayable",
      "type": "function"
    },
    {
      "inputs": [],
      "name": "version",
      "outputs": [
        {
          "internalType": "string",
          "name": "",
          "type": "string"
        }
      ],
      "stateMutability": "view",
      "type": "function"
    },
    {
      "inputs": [
        {
          "internalType": "uint256",
          "name": "amt",
          "type": "uint256"
        }
      ],
      "name": "withdraw",
      "outputs": [],
      "stateMutability": "nonpayable",
      "type": "function"
    },
    {
      "inputs": [],
      "name": "worldFactory",
      "outputs": [
        {
          "internalType": "contract IWorldFactory",
          "name": "",
          "type": "address"
        }
      ],
      "stateMutability": "view",
      "type": "function"
    },
    {
      "inputs": [],
      "name": "worldRegistry",
      "outputs": [
        {
          "internalType": "contract IWorldRegistry",
          "name": "",
          "type": "address"
        }
      ],
      "stateMutability": "view",
      "type": "function"
    },
    {
      "stateMutability": "payable",
      "type": "receive"
    }
  ],
  "bytecode": "0x60c06040523480156200001157600080fd5b506040516200207c3803806200207c83398101604081905262000034916200013a565b6001600160a01b0382166200009e5760405162461bcd60e51b815260206004820152602560248201527f576f726c643a20666163746f72792063616e6e6f74206265207a65726f206164604482015264647265737360d81b60648201526084015b60405180910390fd5b6001600160a01b038116620001055760405162461bcd60e51b815260206004820152602660248201527f576f726c643a2072656769737472792063616e6e6f74206265207a65726f206160448201526564647265737360d01b606482015260840162000095565b6001600160a01b039182166080521660a05262000172565b80516001600160a01b03811681146200013557600080fd5b919050565b600080604083850312156200014e57600080fd5b62000159836200011d565b915062000169602084016200011d565b90509250929050565b60805160a051611ecf620001ad60003960008181610456015281816105dd0152610e8e01526000818161021b0152610d700152611ecf6000f3fe60806040526004361061014f5760003560e01c806354fd4d50116100b6578063911c2a8c1161006f578063911c2a8c1461044457806391d1485414610478578063a217fddf14610498578063c0d91eaf146104ad578063d547741f146104cd578063e8906a2d146104ed57600080fd5b806354fd4d501461036b5780635fd30e101461039c5780637df73e27146103bc578063893d20e8146103dc5780638d361e43146103ff5780638da5cb5b1461041f57600080fd5b8063248a9ca311610108578063248a9ca3146102845780632e1a7d4d146102c25780632f2ff15d146102e257806336568abe14610302578063382af56d146103225780633f995c2c1461034457600080fd5b806301ffc9a71461019057806306fdde03146101c55780630900f010146101e75780630dc3897d14610209578063158ef93e1461025557806317d7de7c1461026f57600080fd5b3661018b5760405134815233907f5741979df5f3e491501da74d3b0a83dd2496ab1f34929865b3e190a8ad75859a9060200160405180910390a2005b600080fd5b34801561019c57600080fd5b506101b06101ab36600461165c565b61050d565b60405190151581526020015b60405180910390f35b3480156101d157600080fd5b506101da610544565b6040516101bc91906116dd565b3480156101f357600080fd5b5061020761020236600461170c565b6105d2565b005b34801561021557600080fd5b5061023d7f000000000000000000000000000000000000000000000000000000000000000081565b6040516001600160a01b0390911681526020016101bc565b34801561026157600080fd5b506001546101b09060ff1681565b34801561027b57600080fd5b506101da610705565b34801561029057600080fd5b506102b461029f366004611727565b60009081526020819052604090206001015490565b6040519081526020016101bc565b3480156102ce57600080fd5b506102076102dd366004611727565b610797565b3480156102ee57600080fd5b506102076102fd366004611740565b610835565b34801561030e57600080fd5b5061020761031d366004611740565b610860565b34801561032e57600080fd5b50610337610893565b6040516101bc91906117df565b34801561035057600080fd5b50610359610ab2565b6040516101bc969594939291906117f2565b34801561037757600080fd5b506101da604051806040016040528060058152602001640312e302e360dc1b81525081565b3480156103a857600080fd5b506101da6103b736600461194d565b610c72565b3480156103c857600080fd5b506101b06103d736600461170c565b610c9b565b3480156103e857600080fd5b5060015461010090046001600160a01b031661023d565b34801561040b57600080fd5b5061020761041a366004611a96565b610ca7565b34801561042b57600080fd5b5060015461023d9061010090046001600160a01b031681565b34801561045057600080fd5b5061023d7f000000000000000000000000000000000000000000000000000000000000000081565b34801561048457600080fd5b506101b0610493366004611740565b610d3c565b3480156104a457600080fd5b506102b4600081565b3480156104b957600080fd5b506102076104c8366004611b43565b610d65565b3480156104d957600080fd5b506102076104e8366004611740565b61100e565b3480156104f957600080fd5b50610207610508366004611a96565b611033565b60006001600160e01b03198216637965db0b60e01b148061053e57506301ffc9a760e01b6001600160e01b03198316145b92915050565b6008805461055190611bc6565b80601f016020809104026020016040519081016040528092919081815260200182805461057d90611bc6565b80156105ca5780601f1061059f576101008083540402835291602001916105ca565b820191906000526020600020905b8154815290600101906020018083116105ad57829003601f168201915b505050505081565b336001600160a01b037f0000000000000000000000000000000000000000000000000000000000000000161461065f5760405162461bcd60e51b815260206004820152602760248201527f576f726c643a2063616c6c6572206973206e6f742074686520776f726c6420726044820152666567697374727960c81b60648201526084015b60405180910390fd5b6001600160a01b0381166106c55760405162461bcd60e51b815260206004820152602760248201527f576f726c643a206e657720776f726c642063616e6e6f74206265207a65726f206044820152666164647265737360c81b6064820152608401610656565b4715610702576040516001600160a01b038216904780156108fc02916000818181858888f19350505050158015610700573d6000803e3d6000fd5b505b50565b60606008805461071490611bc6565b80601f016020809104026020016040519081016040528092919081815260200182805461074090611bc6565b801561078d5780601f106107625761010080835404028352916020019161078d565b820191906000526020600020905b81548152906001019060200180831161077057829003601f168201915b5050505050905090565b60006107a2816110c8565b478211156107f25760405162461bcd60e51b815260206004820152601b60248201527f576f726c643a20696e73756666696369656e742062616c616e636500000000006044820152606401610656565b6001546040516101009091046001600160a01b0316906108fc8415029084906000818181858888f19350505050158015610830573d6000803e3d6000fd5b505050565b600082815260208190526040902060010154610850816110c8565b61085a83836110d2565b50505050565b6001600160a01b03811633146108895760405163334bd91960e11b815260040160405180910390fd5b6108308282611164565b6108cc6040518060c001604052806060815260200160608152602001606081526020016000815260200160008152602001600081525090565b60026040518060c00160405290816000820180546108e990611bc6565b80601f016020809104026020016040519081016040528092919081815260200182805461091590611bc6565b80156109625780601f1061093757610100808354040283529160200191610962565b820191906000526020600020905b81548152906001019060200180831161094557829003601f168201915b5050505050815260200160018201805461097b90611bc6565b80601f01602080910402602001604051908101604052809291908181526020018280546109a790611bc6565b80156109f45780601f106109c9576101008083540402835291602001916109f4565b820191906000526020600020905b8154815290600101906020018083116109d757829003601f168201915b50505050508152602001600282018054610a0d90611bc6565b80601f0160208091040260200160405190810160405280929190818152602001828054610a3990611bc6565b8015610a865780601f10610a5b57610100808354040283529160200191610a86565b820191906000526020600020905b815481529060010190602001808311610a6957829003601f168201915b505050505081526020016003820154815260200160048201548152602001600582015481525050905090565b600280548190610ac190611bc6565b80601f0160208091040260200160405190810160405280929190818152602001828054610aed90611bc6565b8015610b3a5780601f10610b0f57610100808354040283529160200191610b3a565b820191906000526020600020905b815481529060010190602001808311610b1d57829003601f168201915b505050505090806001018054610b4f90611bc6565b80601f0160208091040260200160405190810160405280929190818152602001828054610b7b90611bc6565b8015610bc85780601f10610b9d57610100808354040283529160200191610bc8565b820191906000526020600020905b815481529060010190602001808311610bab57829003601f168201915b505050505090806002018054610bdd90611bc6565b80601f0160208091040260200160405190810160405280929190818152602001828054610c0990611bc6565b8015610c565780601f10610c2b57610100808354040283529160200191610c56565b820191906000526020600020905b815481529060010190602001808311610c3957829003601f168201915b5050505050908060030154908060040154908060050154905086565b606081604051602001610c859190611c00565b6040516020818303038152906040529050919050565b600061053e8183610d3c565b6000610cb2816110c8565b60005b825181101561083057610ce46000801b848381518110610cd757610cd7611c61565b6020026020010151611164565b50828181518110610cf757610cf7611c61565b60200260200101516001600160a01b03167f3525e22824a8a7df2c9a6029941c824cf95b6447f1e13d5128fd3826d35afe8b60405160405180910390a2600101610cb5565b6000918252602082815260408084206001600160a01b0393909316845291905290205460ff1690565b336001600160a01b037f00000000000000000000000000000000000000000000000000000000000000001614610dec5760405162461bcd60e51b815260206004820152602660248201527f576f726c643a2063616c6c6572206973206e6f742074686520776f726c6420666044820152656163746f727960d01b6064820152608401610656565b60015460ff1615610e3f5760405162461bcd60e51b815260206004820152601a60248201527f576f726c643a20616c726561647920696e697469616c697a65640000000000006044820152606401610656565b6000610e4d8284018461194d565b90506000610e6c826040015183602001516111cf90919063ffffffff16565b604051636d80bf3160e01b81526001600160a01b0380831660048301529192507f000000000000000000000000000000000000000000000000000000000000000090911690636d80bf3190602401602060405180830381865afa158015610ed7573d6000803e3d6000fd5b505050506040513d601f19601f82011682018060405250810190610efb9190611c77565b610f525760405162461bcd60e51b815260206004820152602260248201527f576f726c643a20756e617574686f72697a656420766563746f72206164647265604482015261737360f01b6064820152608401610656565b602082015180516002908190610f689082611ce9565b5060208201516001820190610f7d9082611ce9565b5060408201516002820190610f929082611ce9565b50606082015160038201556080820151600482015560a0909101516005909101558151600890610fc29082611ce9565b5060018054610100600160a81b0319166101006001600160a01b0388811682029290921792839055610ffa92600092919004166110d2565b50506001805460ff19168117905550505050565b600082815260208190526040902060010154611029816110c8565b61085a8383611164565b600061103e816110c8565b60005b8251811015610830576110706000801b84838151811061106357611063611c61565b60200260200101516110d2565b5082818151811061108357611083611c61565b60200260200101516001600160a01b03167f47d1c22a25bb3a5d4e481b9b1e6944c2eade3181a0a20b495ed61d35b5323f2460405160405180910390a2600101611041565b6107028133611231565b60006110de8383610d3c565b61115c576000838152602081815260408083206001600160a01b03861684529091529020805460ff191660011790556111143390565b6001600160a01b0316826001600160a01b0316847f2f8788117e7eff1d82e926ec794901d17c78024a50270940304540a733656f0d60405160405180910390a450600161053e565b50600061053e565b60006111708383610d3c565b1561115c576000838152602081815260408083206001600160a01b0386168085529252808320805460ff1916905551339286917ff6391f5c32d9c69d2a47ea670b442974b53935d1edc7fd64eb21e047a839171b9190a450600161053e565b6000806111db8461126a565b80516020808301919091206040805183815280820190915292935091600091602082018180368337019050509050816020820152600061121a826112b7565b905061122681876112f2565b979650505050505050565b61123b8282610d3c565b6107005760405163e2517d3f60e01b81526001600160a01b038216600482015260248101839052604401610656565b6060816000015182602001518360400151611288856060015161131c565b611295866080015161131c565b6112a28760a0015161131c565b604051602001610c8596959493929190611da9565b60006112c3825161131c565b826040516020016112d5929190611e28565b604051602081830303815290604052805190602001209050919050565b60008060008061130286866113af565b92509250925061131282826113fc565b5090949350505050565b60606000611329836114b5565b600101905060008167ffffffffffffffff8111156113495761134961184a565b6040519080825280601f01601f191660200182016040528015611373576020820181803683370190505b5090508181016020015b600019016f181899199a1a9b1b9c1cb0b131b232b360811b600a86061a8153600a850494508461137d57509392505050565b600080600083516041036113e95760208401516040850151606086015160001a6113db8882858561158d565b9550955095505050506113f5565b50508151600091506002905b9250925092565b600082600381111561141057611410611e83565b03611419575050565b600182600381111561142d5761142d611e83565b0361144b5760405163f645eedf60e01b815260040160405180910390fd5b600282600381111561145f5761145f611e83565b036114805760405163fce698f760e01b815260048101829052602401610656565b600382600381111561149457611494611e83565b03610700576040516335e2f38360e21b815260048101829052602401610656565b60008072184f03e93ff9f4daa797ed6e38ed64bf6a1f0160401b83106114f45772184f03e93ff9f4daa797ed6e38ed64bf6a1f0160401b830492506040015b6d04ee2d6d415b85acef81000000008310611520576d04ee2d6d415b85acef8100000000830492506020015b662386f26fc10000831061153e57662386f26fc10000830492506010015b6305f5e1008310611556576305f5e100830492506008015b612710831061156a57612710830492506004015b6064831061157c576064830492506002015b600a831061053e5760010192915050565b600080807f7fffffffffffffffffffffffffffffff5d576e7357a4501ddfe92f46681b20a08411156115c85750600091506003905082611652565b604080516000808252602082018084528a905260ff891692820192909252606081018790526080810186905260019060a0016020604051602081039080840390855afa15801561161c573d6000803e3d6000fd5b5050604051601f1901519150506001600160a01b03811661164857506000925060019150829050611652565b9250600091508190505b9450945094915050565b60006020828403121561166e57600080fd5b81356001600160e01b03198116811461168657600080fd5b9392505050565b60005b838110156116a8578181015183820152602001611690565b50506000910152565b600081518084526116c981602086016020860161168d565b601f01601f19169290920160200192915050565b60208152600061168660208301846116b1565b80356001600160a01b038116811461170757600080fd5b919050565b60006020828403121561171e57600080fd5b611686826116f0565b60006020828403121561173957600080fd5b5035919050565b6000806040838503121561175357600080fd5b82359150611763602084016116f0565b90509250929050565b6000815160c0845261178160c08501826116b1565b90506020830151848203602086015261179a82826116b1565b915050604083015184820360408601526117b482826116b1565b915050606083015160608501526080830151608085015260a083015160a08501528091505092915050565b602081526000611686602083018461176c565b60c08152600061180560c08301896116b1565b828103602084015261181781896116b1565b9050828103604084015261182b81886116b1565b60608401969096525050608081019290925260a0909101529392505050565b634e487b7160e01b600052604160045260246000fd5b6040516060810167ffffffffffffffff811182821017156118835761188361184a565b60405290565b60405160c0810167ffffffffffffffff811182821017156118835761188361184a565b604051601f8201601f1916810167ffffffffffffffff811182821017156118d5576118d561184a565b604052919050565b600082601f8301126118ee57600080fd5b813567ffffffffffffffff8111156119085761190861184a565b61191b601f8201601f19166020016118ac565b81815284602083860101111561193057600080fd5b816020850160208301376000918101602001919091529392505050565b60006020828403121561195f57600080fd5b813567ffffffffffffffff8082111561197757600080fd5b908301906060828603121561198b57600080fd5b611993611860565b8235828111156119a257600080fd5b6119ae878286016118dd565b8252506020830135828111156119c357600080fd5b830160c081880312156119d557600080fd5b6119dd611889565b8135848111156119ec57600080fd5b6119f8898285016118dd565b825250602082013584811115611a0d57600080fd5b611a19898285016118dd565b602083015250604082013584811115611a3157600080fd5b611a3d898285016118dd565b604083015250606082013560608201526080820135608082015260a082013560a08201528060208401525050604083013582811115611a7b57600080fd5b611a87878286016118dd565b60408301525095945050505050565b60006020808385031215611aa957600080fd5b823567ffffffffffffffff80821115611ac157600080fd5b818501915085601f830112611ad557600080fd5b813581811115611ae757611ae761184a565b8060051b9150611af88483016118ac565b8181529183018401918481019088841115611b1257600080fd5b938501935b83851015611b3757611b28856116f0565b82529385019390850190611b17565b98975050505050505050565b600080600060408486031215611b5857600080fd5b611b61846116f0565b9250602084013567ffffffffffffffff80821115611b7e57600080fd5b818601915086601f830112611b9257600080fd5b813581811115611ba157600080fd5b876020828501011115611bb357600080fd5b6020830194508093505050509250925092565b600181811c90821680611bda57607f821691505b602082108103611bfa57634e487b7160e01b600052602260045260246000fd5b50919050565b602081526000825160606020840152611c1c60808401826116b1565b90506020840151601f1980858403016040860152611c3a838361176c565b9250604086015191508085840301606086015250611c5882826116b1565b95945050505050565b634e487b7160e01b600052603260045260246000fd5b600060208284031215611c8957600080fd5b8151801515811461168657600080fd5b601f821115610830576000816000526020600020601f850160051c81016020861015611cc25750805b601f850160051c820191505b81811015611ce157828155600101611cce565b505050505050565b815167ffffffffffffffff811115611d0357611d0361184a565b611d1781611d118454611bc6565b84611c99565b602080601f831160018114611d4c5760008415611d345750858301515b600019600386901b1c1916600185901b178555611ce1565b600085815260208120601f198616915b82811015611d7b57888601518255948401946001909101908401611d5c565b5085821015611d995787850151600019600388901b60f8161c191681555b5050505050600190811b01905550565b600087516020611dbc8285838d0161168d565b885191840191611dcf8184848d0161168d565b8851920191611de18184848c0161168d565b8751920191611df38184848b0161168d565b8651920191611e058184848a0161168d565b8551920191611e17818484890161168d565b919091019998505050505050505050565b7f19457468657265756d205369676e6564204d6573736167653a0a000000000000815260008351611e6081601a85016020880161168d565b835190830190611e7781601a84016020880161168d565b01601a01949350505050565b634e487b7160e01b600052602160045260246000fdfea26469706673582212202e38bb6ea8d845f292b8e87d3a28d1fef3f54cf88f53a567077fa19dba29a20464736f6c63430008180033",
  "linkReferences": {},
  "deployedLinkReferences": {}
}