{
  "_format": "hh-sol-artifact-1",
  "contractName": "Avatar",
  "sourceName": "contracts/avatar/instance/Avatar.sol",
  "abi": [
    {
      "inputs": [
        {
          "components": [
            {
              "internalType": "address",
              "name": "avatarRegistry",
              "type": "address"
            },
            {
              "internalType": "address",
              "name": "companyRegistry",
              "type": "address"
            },
            {
              "internalType": "address",
              "name": "experienceRegistry",
              "type": "address"
            },
            {
              "internalType": "address",
              "name": "portalRegistry",
              "type": "address"
            },
            {
              "internalType": "address",
              "name": "erc721Registry",
              "type": "address"
            }
          ],
          "internalType": "struct AvatarConstructorArgs",
          "name": "args",
          "type": "tuple"
        }
      ],
      "stateMutability": "nonpayable",
      "type": "constructor"
    },
    {
      "inputs": [],
      "name": "ECDSAInvalidSignature",
      "type": "error"
    },
    {
      "inputs": [
        {
          "internalType": "uint256",
          "name": "length",
          "type": "uint256"
        }
      ],
      "name": "ECDSAInvalidSignatureLength",
      "type": "error"
    },
    {
      "inputs": [
        {
          "internalType": "bytes32",
          "name": "s",
          "type": "bytes32"
        }
      ],
      "name": "ECDSAInvalidSignatureS",
      "type": "error"
    },
    {
      "inputs": [],
      "name": "ReentrancyGuardReentrantCall",
      "type": "error"
    },
    {
      "anonymous": false,
      "inputs": [
        {
          "indexed": true,
          "internalType": "bytes",
          "name": "appearanceDetails",
          "type": "bytes"
        }
      ],
      "name": "AppearanceChanged",
      "type": "event"
    },
    {
      "anonymous": false,
      "inputs": [
        {
          "indexed": true,
          "internalType": "address",
          "name": "experience",
          "type": "address"
        },
        {
          "indexed": true,
          "internalType": "uint256",
          "name": "fee",
          "type": "uint256"
        },
        {
          "indexed": false,
          "internalType": "bytes",
          "name": "connectionDetails",
          "type": "bytes"
        }
      ],
      "name": "JumpSuccess",
      "type": "event"
    },
    {
      "anonymous": false,
      "inputs": [
        {
          "indexed": true,
          "internalType": "address",
          "name": "location",
          "type": "address"
        }
      ],
      "name": "LocationChanged",
      "type": "event"
    },
    {
      "anonymous": false,
      "inputs": [
        {
          "indexed": true,
          "internalType": "address",
          "name": "owner",
          "type": "address"
        },
        {
          "indexed": true,
          "internalType": "address",
          "name": "newOwner",
          "type": "address"
        }
      ],
      "name": "OwnerChanged",
      "type": "event"
    },
    {
      "anonymous": false,
      "inputs": [
        {
          "indexed": true,
          "internalType": "bytes32",
          "name": "role",
          "type": "bytes32"
        },
        {
          "indexed": true,
          "internalType": "address",
          "name": "account",
          "type": "address"
        },
        {
          "indexed": true,
          "internalType": "bool",
          "name": "grant",
          "type": "bool"
        }
      ],
      "name": "RoleChanged",
      "type": "event"
    },
    {
      "anonymous": false,
      "inputs": [
        {
          "indexed": false,
          "internalType": "address",
          "name": "signer",
          "type": "address"
        },
        {
          "indexed": false,
          "internalType": "bool",
          "name": "grant",
          "type": "bool"
        }
      ],
      "name": "SignerChanged",
      "type": "event"
    },
    {
      "anonymous": false,
      "inputs": [
        {
          "indexed": true,
          "internalType": "address",
          "name": "wearable",
          "type": "address"
        },
        {
          "indexed": false,
          "internalType": "uint256",
          "name": "tokenId",
          "type": "uint256"
        }
      ],
      "name": "WearableAdded",
      "type": "event"
    },
    {
      "anonymous": false,
      "inputs": [
        {
          "indexed": true,
          "internalType": "address",
          "name": "wearable",
          "type": "address"
        },
        {
          "indexed": false,
          "internalType": "uint256",
          "name": "tokenId",
          "type": "uint256"
        }
      ],
      "name": "WearableRemoved",
      "type": "event"
    },
    {
      "inputs": [
        {
          "internalType": "address[]",
          "name": "signers",
          "type": "address[]"
        }
      ],
      "name": "addSigners",
      "outputs": [],
      "stateMutability": "nonpayable",
      "type": "function"
    },
    {
      "inputs": [
        {
          "components": [
            {
              "internalType": "address",
              "name": "asset",
              "type": "address"
            },
            {
              "internalType": "uint256",
              "name": "tokenId",
              "type": "uint256"
            }
          ],
          "internalType": "struct Wearable",
          "name": "wearable",
          "type": "tuple"
        }
      ],
      "name": "addWearable",
      "outputs": [],
      "stateMutability": "nonpayable",
      "type": "function"
    },
    {
      "inputs": [],
      "name": "appearanceDetails",
      "outputs": [
        {
          "internalType": "bytes",
          "name": "",
          "type": "bytes"
        }
      ],
      "stateMutability": "view",
      "type": "function"
    },
    {
      "inputs": [],
      "name": "avatarOwnerSigningNonce",
      "outputs": [
        {
          "internalType": "uint256",
          "name": "",
          "type": "uint256"
        }
      ],
      "stateMutability": "view",
      "type": "function"
    },
    {
      "inputs": [],
      "name": "avatarRegistry",
      "outputs": [
        {
          "internalType": "contract IAvatarRegistry",
          "name": "",
          "type": "address"
        }
      ],
      "stateMutability": "view",
      "type": "function"
    },
    {
      "inputs": [
        {
          "components": [
            {
              "internalType": "address",
              "name": "asset",
              "type": "address"
            },
            {
              "internalType": "uint256",
              "name": "tokenId",
              "type": "uint256"
            }
          ],
          "internalType": "struct Wearable",
          "name": "wearable",
          "type": "tuple"
        }
      ],
      "name": "canAddWearable",
      "outputs": [
        {
          "internalType": "bool",
          "name": "",
          "type": "bool"
        }
      ],
      "stateMutability": "view",
      "type": "function"
    },
    {
      "inputs": [],
      "name": "canReceiveTokensOutsideOfExperience",
      "outputs": [
        {
          "internalType": "bool",
          "name": "",
          "type": "bool"
        }
      ],
      "stateMutability": "view",
      "type": "function"
    },
    {
      "inputs": [
        {
          "internalType": "address",
          "name": "newOwner",
          "type": "address"
        }
      ],
      "name": "changeOwner",
      "outputs": [],
      "stateMutability": "nonpayable",
      "type": "function"
    },
    {
      "inputs": [],
      "name": "companyRegistry",
      "outputs": [
        {
          "internalType": "contract ICompanyRegistry",
          "name": "",
          "type": "address"
        }
      ],
      "stateMutability": "view",
      "type": "function"
    },
    {
      "inputs": [
        {
          "internalType": "address",
          "name": "signer",
          "type": "address"
        }
      ],
      "name": "companySigningNonce",
      "outputs": [
        {
          "internalType": "uint256",
          "name": "",
          "type": "uint256"
        }
      ],
      "stateMutability": "view",
      "type": "function"
    },
    {
      "inputs": [
        {
          "components": [
            {
              "internalType": "uint256",
              "name": "portalId",
              "type": "uint256"
            },
            {
              "internalType": "uint256",
              "name": "agreedFee",
              "type": "uint256"
            },
            {
              "internalType": "bytes",
              "name": "avatarOwnerSignature",
              "type": "bytes"
            }
          ],
          "internalType": "struct DelegatedJumpRequest",
          "name": "request",
          "type": "tuple"
        }
      ],
      "name": "delegateJump",
      "outputs": [],
      "stateMutability": "payable",
      "type": "function"
    },
    {
      "inputs": [],
      "name": "erc721Registry",
      "outputs": [
        {
          "internalType": "contract IAssetRegistry",
          "name": "",
          "type": "address"
        }
      ],
      "stateMutability": "view",
      "type": "function"
    },
    {
      "inputs": [],
      "name": "experienceRegistry",
      "outputs": [
        {
          "internalType": "contract IExperienceRegistry",
          "name": "",
          "type": "address"
        }
      ],
      "stateMutability": "view",
      "type": "function"
    },
    {
      "inputs": [],
      "name": "getWearables",
      "outputs": [
        {
          "components": [
            {
              "internalType": "address",
              "name": "asset",
              "type": "address"
            },
            {
              "internalType": "uint256",
              "name": "tokenId",
              "type": "uint256"
            }
          ],
          "internalType": "struct Wearable[]",
          "name": "",
          "type": "tuple[]"
        }
      ],
      "stateMutability": "view",
      "type": "function"
    },
    {
      "inputs": [
        {
          "internalType": "bytes32",
          "name": "role",
          "type": "bytes32"
        },
        {
          "internalType": "address",
          "name": "account",
          "type": "address"
        }
      ],
      "name": "grantRole",
      "outputs": [],
      "stateMutability": "nonpayable",
      "type": "function"
    },
    {
      "inputs": [
        {
          "internalType": "bytes32",
          "name": "role",
          "type": "bytes32"
        },
        {
          "internalType": "address",
          "name": "account",
          "type": "address"
        }
      ],
      "name": "hasRole",
      "outputs": [
        {
          "internalType": "bool",
          "name": "",
          "type": "bool"
        }
      ],
      "stateMutability": "view",
      "type": "function"
    },
    {
      "inputs": [
        {
          "components": [
            {
              "internalType": "string",
              "name": "name",
              "type": "string"
            },
            {
              "internalType": "address",
              "name": "owner",
              "type": "address"
            },
            {
              "internalType": "address",
              "name": "startingExperience",
              "type": "address"
            },
            {
              "internalType": "bytes",
              "name": "initData",
              "type": "bytes"
            }
          ],
          "internalType": "struct AvatarInitArgs",
          "name": "args",
          "type": "tuple"
        }
      ],
      "name": "init",
      "outputs": [],
      "stateMutability": "nonpayable",
      "type": "function"
    },
    {
      "inputs": [
        {
          "internalType": "address",
          "name": "account",
          "type": "address"
        }
      ],
      "name": "isAdmin",
      "outputs": [
        {
          "internalType": "bool",
          "name": "",
          "type": "bool"
        }
      ],
      "stateMutability": "view",
      "type": "function"
    },
    {
      "inputs": [
        {
          "internalType": "address",
          "name": "account",
          "type": "address"
        }
      ],
      "name": "isSigner",
      "outputs": [
        {
          "internalType": "bool",
          "name": "",
          "type": "bool"
        }
      ],
      "stateMutability": "view",
      "type": "function"
    },
    {
      "inputs": [
        {
          "components": [
            {
              "internalType": "address",
              "name": "asset",
              "type": "address"
            },
            {
              "internalType": "uint256",
              "name": "tokenId",
              "type": "uint256"
            }
          ],
          "internalType": "struct Wearable",
          "name": "wearable",
          "type": "tuple"
        }
      ],
      "name": "isWearing",
      "outputs": [
        {
          "internalType": "bool",
          "name": "",
          "type": "bool"
        }
      ],
      "stateMutability": "view",
      "type": "function"
    },
    {
      "inputs": [
        {
          "components": [
            {
              "internalType": "uint256",
              "name": "portalId",
              "type": "uint256"
            },
            {
              "internalType": "uint256",
              "name": "agreedFee",
              "type": "uint256"
            },
            {
              "internalType": "bytes",
              "name": "destinationCompanySignature",
              "type": "bytes"
            }
          ],
          "internalType": "struct AvatarJumpRequest",
          "name": "request",
          "type": "tuple"
        }
      ],
      "name": "jump",
      "outputs": [],
      "stateMutability": "payable",
      "type": "function"
    },
    {
      "inputs": [],
      "name": "location",
      "outputs": [
        {
          "internalType": "address",
          "name": "",
          "type": "address"
        }
      ],
      "stateMutability": "view",
      "type": "function"
    },
    {
      "inputs": [],
      "name": "name",
      "outputs": [
        {
          "internalType": "string",
          "name": "",
          "type": "string"
        }
      ],
      "stateMutability": "view",
      "type": "function"
    },
    {
      "inputs": [
        {
          "internalType": "address",
          "name": "",
          "type": "address"
        },
        {
          "internalType": "address",
          "name": "",
          "type": "address"
        },
        {
          "internalType": "uint256",
          "name": "tokenId",
          "type": "uint256"
        },
        {
          "internalType": "bytes",
          "name": "",
          "type": "bytes"
        }
      ],
      "name": "onERC721Received",
      "outputs": [
        {
          "internalType": "bytes4",
          "name": "",
          "type": "bytes4"
        }
      ],
      "stateMutability": "nonpayable",
      "type": "function"
    },
    {
      "inputs": [
        {
          "internalType": "uint256",
          "name": "tokenId",
          "type": "uint256"
        }
      ],
      "name": "onERC721Revoked",
      "outputs": [],
      "stateMutability": "nonpayable",
      "type": "function"
    },
    {
      "inputs": [],
      "name": "owner",
      "outputs": [
        {
          "internalType": "address",
          "name": "",
          "type": "address"
        }
      ],
      "stateMutability": "view",
      "type": "function"
    },
    {
      "inputs": [],
      "name": "portalRegistry",
      "outputs": [
        {
          "internalType": "contract IPortalRegistry",
          "name": "",
          "type": "address"
        }
      ],
      "stateMutability": "view",
      "type": "function"
    },
    {
      "inputs": [
        {
          "internalType": "bytes",
          "name": "",
          "type": "bytes"
        }
      ],
      "name": "postUpgradeInit",
      "outputs": [],
      "stateMutability": "nonpayable",
      "type": "function"
    },
    {
      "inputs": [
        {
          "internalType": "address[]",
          "name": "signers",
          "type": "address[]"
        }
      ],
      "name": "removeSigners",
      "outputs": [],
      "stateMutability": "nonpayable",
      "type": "function"
    },
    {
      "inputs": [
        {
          "components": [
            {
              "internalType": "address",
              "name": "asset",
              "type": "address"
            },
            {
              "internalType": "uint256",
              "name": "tokenId",
              "type": "uint256"
            }
          ],
          "internalType": "struct Wearable",
          "name": "wearable",
          "type": "tuple"
        }
      ],
      "name": "removeWearable",
      "outputs": [],
      "stateMutability": "nonpayable",
      "type": "function"
    },
    {
      "inputs": [
        {
          "internalType": "bytes32",
          "name": "role",
          "type": "bytes32"
        },
        {
          "internalType": "address",
          "name": "account",
          "type": "address"
        }
      ],
      "name": "revokeRole",
      "outputs": [],
      "stateMutability": "nonpayable",
      "type": "function"
    },
    {
      "inputs": [
        {
          "internalType": "bytes",
          "name": "details",
          "type": "bytes"
        }
      ],
      "name": "setAppearanceDetails",
      "outputs": [],
      "stateMutability": "nonpayable",
      "type": "function"
    },
    {
      "inputs": [
        {
          "internalType": "bool",
          "name": "canReceive",
          "type": "bool"
        }
      ],
      "name": "setCanReceiveTokensOutsideOfExperience",
      "outputs": [],
      "stateMutability": "nonpayable",
      "type": "function"
    },
    {
      "inputs": [
        {
          "internalType": "bytes",
          "name": "initData",
          "type": "bytes"
        }
      ],
      "name": "upgrade",
      "outputs": [],
      "stateMutability": "nonpayable",
      "type": "function"
    },
    {
      "inputs": [],
      "name": "username",
      "outputs": [
        {
          "internalType": "string",
          "name": "",
          "type": "string"
        }
      ],
      "stateMutability": "view",
      "type": "function"
    },
    {
      "inputs": [],
      "name": "version",
      "outputs": [
        {
          "components": [
            {
              "internalType": "uint16",
              "name": "major",
              "type": "uint16"
            },
            {
              "internalType": "uint16",
              "name": "minor",
              "type": "uint16"
            }
          ],
          "internalType": "struct Version",
          "name": "",
          "type": "tuple"
        }
      ],
      "stateMutability": "pure",
      "type": "function"
    },
    {
      "inputs": [
        {
          "internalType": "uint256",
          "name": "amount",
          "type": "uint256"
        }
      ],
      "name": "withdraw",
      "outputs": [],
      "stateMutability": "nonpayable",
      "type": "function"
    },
    {
      "stateMutability": "payable",
      "type": "receive"
    }
  ],
  "bytecode": "0x6101206040523480156200001257600080fd5b506040516200433938038062004339833981016040819052620000359162000279565b600160005580516001600160a01b0316620000975760405162461bcd60e51b815260206004820181905260248201527f436f6d70616e793a20496e76616c69642061766174617220726567697374727960448201526064015b60405180910390fd5b60408101516001600160a01b0316620000ff5760405162461bcd60e51b8152602060048201526024808201527f436f6d70616e793a20496e76616c696420657870657269656e636520726567696044820152637374727960e01b60648201526084016200008e565b60208101516001600160a01b0316620001655760405162461bcd60e51b815260206004820152602160248201527f436f6d70616e793a20496e76616c696420636f6d70616e7920726567697374726044820152607960f81b60648201526084016200008e565b60808101516001600160a01b0316620001c15760405162461bcd60e51b815260206004820181905260248201527f436f6d70616e793a20496e76616c69642045524337323120726567697374727960448201526064016200008e565b60608101516001600160a01b03166200021d5760405162461bcd60e51b815260206004820181905260248201527f436f6d70616e793a20496e76616c696420706f7274616c20726567697374727960448201526064016200008e565b80516001600160a01b0390811660809081526040830151821660a0526020830151821660c052820151811660e052606090910151166101005262000320565b80516001600160a01b03811681146200027457600080fd5b919050565b600060a082840312156200028c57600080fd5b60405160a081016001600160401b0381118282101715620002bd57634e487b7160e01b600052604160045260246000fd5b604052620002cb836200025c565b8152620002db602084016200025c565b6020820152620002ee604084016200025c565b604082015262000301606084016200025c565b606082015262000314608084016200025c565b60808201529392505050565b60805160a05160c05160e05161010051613f87620003b2600039600081816105f1015281816110de0152818161194b01526129d50152600081816106590152818161095801528181611ecb015261255f01526000818161062501526117b90152600081816104fd015261136f0152600081816106cd01528181610d6e015281816111f601526124f80152613f876000f3fe60806040526004361061021e5760003560e01c80638970220e11610123578063ae2314f7116100ab578063e20eea0f1161006f578063e20eea0f1461069b578063e3d7ad73146106bb578063e62194f1146106ef578063e8906a2d1461070f578063f890d7c91461072f57600080fd5b8063ae2314f7146105bf578063b6664934146105df578063c51aba2b14610613578063ca6d442914610647578063d547741f1461067b57600080fd5b806391d14854116100f257806391d148541461051f578063949a1ddc1461053f5780639be17fbc1461055f5780639d870bf61461057f578063a6f9dae11461059f57600080fd5b80638970220e146104a15780638d361e43146104b65780638da5cb5b146104d65780638f09a6be146104eb57600080fd5b8063392f5669116101a657806354fd4d501161017557806354fd4d50146103ff5780635cf59e1e1461044c57806361fac54d1461025d5780637dc759e51461046e5780637df73e271461048157600080fd5b8063392f56691461037f5780633b79c46a14610392578063516f279e146103b257806354cf0b39146103df57600080fd5b8063181d939b116101ed578063181d939b146102da57806324d7806c146102ff578063253946451461031f5780632e1a7d4d1461033f5780632f2ff15d1461035f57600080fd5b806303f7d3ba1461022a57806306fdde031461025d57806312deb11a1461027f578063150b7a02146102a157600080fd5b3661022557005b600080fd5b34801561023657600080fd5b5061024a6102453660046131e8565b610744565b6040519081526020015b60405180910390f35b34801561026957600080fd5b50610272610770565b6040516102549190613255565b34801561028b57600080fd5b5061029f61029a366004613268565b610808565b005b3480156102ad57600080fd5b506102c16102bc3660046132c8565b61092c565b6040516001600160e01b03199091168152602001610254565b3480156102e657600080fd5b506102ef610c87565b6040519015158152602001610254565b34801561030b57600080fd5b506102ef61031a3660046131e8565b610c9a565b34801561032b57600080fd5b5061029f61033a36600461333a565b610d20565b34801561034b57600080fd5b5061029f61035a36600461337b565b610de5565b34801561036b57600080fd5b5061029f61037a366004613394565b610e91565b61029f61038d366004613551565b610f97565b34801561039e57600080fd5b5061029f6103ad36600461358d565b6111eb565b3480156103be57600080fd5b506103c7611597565b6040516001600160a01b039091168152602001610254565b3480156103eb57600080fd5b5061029f6103fa366004613268565b6115b5565b34801561040b57600080fd5b50604080518082018252600080825260209182018190528251808401845260018082529083019182528351908152905161ffff169181019190915201610254565b34801561045857600080fd5b5061046161170d565b6040516102549190613653565b61029f61047c366004613551565b61179c565b34801561048d57600080fd5b506102ef61049c3660046131e8565b611ace565b3480156104ad57600080fd5b50610272611b11565b3480156104c257600080fd5b5061029f6104d13660046136b3565b611b29565b3480156104e257600080fd5b506103c7611bf1565b3480156104f757600080fd5b506103c77f000000000000000000000000000000000000000000000000000000000000000081565b34801561052b57600080fd5b506102ef61053a366004613394565b611c00565b34801561054b57600080fd5b5061029f61055a36600461333a565b611c8d565b34801561056b57600080fd5b506102ef61057a366004613268565b611d1a565b34801561058b57600080fd5b5061029f61059a366004613735565b611d80565b3480156105ab57600080fd5b5061029f6105ba3660046131e8565b611dca565b3480156105cb57600080fd5b506102ef6105da366004613268565b611e67565b3480156105eb57600080fd5b506103c77f000000000000000000000000000000000000000000000000000000000000000081565b34801561061f57600080fd5b506103c77f000000000000000000000000000000000000000000000000000000000000000081565b34801561065357600080fd5b506103c77f000000000000000000000000000000000000000000000000000000000000000081565b34801561068757600080fd5b5061029f610696366004613394565b612417565b3480156106a757600080fd5b5061029f6106b636600461333a565b6124ed565b3480156106c757600080fd5b506103c77f000000000000000000000000000000000000000000000000000000000000000081565b3480156106fb57600080fd5b5061029f61070a36600461337b565b612535565b34801561071b57600080fd5b5061029f61072a3660046136b3565b61278a565b34801561073b57600080fd5b5061024a612852565b600061074e612865565b6001600160a01b03909216600090815260019290920160205250604090205490565b606061077a6128f2565b805461078590613752565b80601f01602080910402602001604051908101604052809291908181526020018280546107b190613752565b80156107fe5780601f106107d3576101008083540402835291602001916107fe565b820191906000526020600020905b8154815290600101906020018083116107e157829003601f168201915b5050505050905090565b61081061294e565b33610819612978565b6001600160a01b0316146108485760405162461bcd60e51b815260040161083f90613786565b60405180910390fd5b61085181611e67565b50600061085c612865565b604051630dfd3df760e11b815290915073__$c011c5c9201293cae8fa3d59d203092c54$__90631bfa7bee9061089a906004808601918791016137bd565b60006040518083038186803b1580156108b257600080fd5b505af41580156108c6573d6000803e3d6000fd5b506108d89250505060208301836131e8565b6001600160a01b03167fc33fdb2e96e0dba49a8cb36af300177e6ba61804be87a31a26e27ab52596ecf2836020013560405161091691815260200190565b60405180910390a2506109296001600055565b50565b600061093661294e565b6000610940612865565b60405163c3c5a54760e01b81523360048201529091507f00000000000000000000000000000000000000000000000000000000000000006001600160a01b03169063c3c5a54790602401602060405180830381865afa1580156109a7573d6000803e3d6000fd5b505050506040513d601f19601f820116820180604052508101906109cb91906137f1565b610a2e5760405162461bcd60e51b815260206004820152602e60248201527f4176617461723a2045524337323120746f6b656e206e6f742066726f6d20726560448201526d19da5cdd195c995908185cdcd95d60921b606482015260840161083f565b8054339060ff16610b9c576000336001600160a01b0316631d1438486040518163ffffffff1660e01b8152600401602060405180830381865afa158015610a79573d6000803e3d6000fd5b505050506040513d601f19601f82011682018060405250810190610a9d919061380e565b905060008360000160019054906101000a90046001600160a01b03169050806001600160a01b0316636904c94d6040518163ffffffff1660e01b8152600401602060405180830381865afa158015610af9573d6000803e3d6000fd5b505050506040513d601f19601f82011682018060405250810190610b1d919061380e565b6001600160a01b0316826001600160a01b031614610b995760405162461bcd60e51b815260206004820152603360248201527f4176617461723a2063616e6e6f74207265636569766520746f6b656e73206f756044820152727473696465206f6620657870657269656e636560681b606482015260840161083f565b50505b6040516331a9108f60e11b81526004810187905230906001600160a01b03831690636352211e90602401602060405180830381865afa158015610be3573d6000803e3d6000fd5b505050506040513d601f19601f82011682018060405250810190610c07919061380e565b6001600160a01b031614610c6e5760405162461bcd60e51b815260206004820152602860248201527f4176617461723a2045524337323120746f6b656e206e6f74206f776e656420626044820152673c9030bb30ba30b960c11b606482015260840161083f565b5050600160005550630a85bd0160e11b95945050505050565b6000610c91612865565b5460ff16919050565b604051630935e01b60e21b81526001600160a01b038216600482015260009073__$a5a42e46683ad9c79b7b86d5ff60fdf4c1$__906324d7806c906024015b602060405180830381865af4158015610cf6573d6000803e3d6000fd5b505050506040513d601f19601f82011682018060405250810190610d1a91906137f1565b92915050565b33610d29612978565b6001600160a01b031614610d4f5760405162461bcd60e51b815260040161083f90613786565b610d5761294e565b60405163c625e0ad60e01b81526001600160a01b037f0000000000000000000000000000000000000000000000000000000000000000169063c625e0ad90610da5908590859060040161382b565b600060405180830381600087803b158015610dbf57600080fd5b505af1158015610dd3573d6000803e3d6000fd5b50505050610de16001600055565b5050565b33610dee612978565b6001600160a01b031614610e145760405162461bcd60e51b815260040161083f90613786565b47811115610e645760405162461bcd60e51b815260206004820152601d60248201527f436f6d70616e793a20496e73756666696369656e742062616c616e6365000000604482015260640161083f565b604051339082156108fc029083906000818181858888f19350505050158015610de1573d6000803e3d6000fd5b604051630935e01b60e21b815233600482015273__$a5a42e46683ad9c79b7b86d5ff60fdf4c1$__906324d7806c90602401602060405180830381865af4158015610ee0573d6000803e3d6000fd5b505050506040513d601f19601f82011682018060405250810190610f0491906137f1565b610f205760405162461bcd60e51b815260040161083f9061385a565b604051632f2ff15d60e01b8152600481018390526001600160a01b038216602482015273__$a5a42e46683ad9c79b7b86d5ff60fdf4c1$__90632f2ff15d906044015b60006040518083038186803b158015610f7b57600080fd5b505af4158015610f8f573d6000803e3d6000fd5b505050505050565b610f9f61294e565b33610fa8612978565b6001600160a01b031614610fce5760405162461bcd60e51b815260040161083f90613786565b805161101c5760405162461bcd60e51b815260206004820152601f60248201527f4176617461723a20706f7274616c49642063616e6e6f74206265207a65726f00604482015260640161083f565b600061102782612993565b905080604001518260200151146110505760405162461bcd60e51b815260040161083f9061388f565b6040810151156110ce57600061106634476138f1565b905081604001518110156110cc5760405162461bcd60e51b815260206004820152602760248201527f4176617461723a20696e73756666696369656e742066756e647320666f72206a604482015266756d702066656560c81b606482015260840161083f565b505b60006110d8612865565b905060007f00000000000000000000000000000000000000000000000000000000000000006001600160a01b03166384c4484e846040015186600001516040518363ffffffff1660e01b815260040161113391815260200190565b60006040518083038185885af1158015611151573d6000803e3d6000fd5b50505050506040513d6000823e601f3d908101601f1916820160405261117a9190810190613949565b83518354610100600160a81b0319166101006001600160a01b039092169182021784556040808601519051929350917fe6b8160f723fcdb4c3cb8bf86e99d55e311c607a791f7503cc16dfaff3271e43906111d6908590613255565b60405180910390a35050506109296001600055565b336001600160a01b037f000000000000000000000000000000000000000000000000000000000000000016146112335760405162461bcd60e51b815260040161083f9061397d565b600061123d612978565b6001600160a01b0316146112935760405162461bcd60e51b815260206004820152601b60248201527f4176617461723a20416c726561647920696e697469616c697a65640000000000604482015260640161083f565b60208101516001600160a01b03166112e55760405162461bcd60e51b815260206004820152601560248201527420bb30ba30b91d1024b73b30b634b21037bbb732b960591b604482015260640161083f565b60408101516001600160a01b031661134b5760405162461bcd60e51b815260206004820152602360248201527f4176617461723a20496e76616c6964207374617274696e6720657870657269656044820152626e636560e81b606482015260840161083f565b604081810151905163c3c5a54760e01b81526001600160a01b0391821660048201527f00000000000000000000000000000000000000000000000000000000000000009091169063c3c5a54790602401602060405180830381865afa1580156113b8573d6000803e3d6000fd5b505050506040513d601f19601f820116820180604052508101906113dc91906137f1565b61143b5760405162461bcd60e51b815260206004820152602a60248201527f4176617461723a205374617274696e6720657870657269656e6365206e6f74206044820152691c9959da5cdd195c995960b21b606482015260840161083f565b8051516114825760405162461bcd60e51b8152602060048201526015602482015274105d985d185c8e8813985b59481c995c5d5a5c9959605a1b604482015260640161083f565b604080516000815260208082019283905283015163d9ac971f60e01b9092529073__$a5a42e46683ad9c79b7b86d5ff60fdf4c1$__9063d9ac971f906114cc9084602481016139c2565b60006040518083038186803b1580156114e457600080fd5b505af41580156114f8573d6000803e3d6000fd5b5050505081600001516115096128f2565b906115149082613a6b565b506000826060015180602001905181019061152f9190613b2a565b9050600061153b612865565b8251815460408701516001600160a01b031661010002610100600160a81b0319921515929092166001600160a81b031990911617178155602083015190915060038201906115899082613a6b565b5060c8600790910155505050565b60006115a1612865565b5461010090046001600160a01b0316919050565b336115be612978565b6001600160a01b0316146115e45760405162461bcd60e51b815260040161083f90613786565b60006115f360208301836131e8565b6001600160a01b0316036116195760405162461bcd60e51b815260040161083f90613ba9565b600081602001351161163d5760405162461bcd60e51b815260040161083f90613bf6565b6000611647612865565b6040516358888ef160e01b815290915073__$c011c5c9201293cae8fa3d59d203092c54$__906358888ef190611685906004808601918791016137bd565b60006040518083038186803b15801561169d57600080fd5b505af41580156116b1573d6000803e3d6000fd5b506116c39250505060208301836131e8565b6001600160a01b03167f60c3791748d09484f5d949c7570a640dad2f40bbebc2571b8f6c0e6a13e96fac836020013560405161170191815260200190565b60405180910390a25050565b60606000611719612865565b6040516372a9762360e11b815260048083019082015290915073__$c011c5c9201293cae8fa3d59d203092c54$__9063e552ec4690602401600060405180830381865af415801561176e573d6000803e3d6000fd5b505050506040513d6000823e601f3d908101601f191682016040526117969190810190613c3d565b91505090565b6117a461294e565b60405163c3c5a54760e01b81523360048201527f00000000000000000000000000000000000000000000000000000000000000006001600160a01b03169063c3c5a54790602401602060405180830381865afa158015611808573d6000803e3d6000fd5b505050506040513d601f19601f8201168201806040525081019061182c91906137f1565b6118785760405162461bcd60e51b815260206004820152601e60248201527f4176617461723a20436f6d70616e79206e6f7420726567697374657265640000604482015260640161083f565b336001600160a01b03166386b70bed6040518163ffffffff1660e01b8152600401602060405180830381865afa1580156118b6573d6000803e3d6000fd5b505050506040513d601f19601f820116820180604052508101906118da91906137f1565b6119265760405162461bcd60e51b815260206004820152601a60248201527f4176617461723a20436f6d70616e79206e6f7420616374697665000000000000604482015260640161083f565b61192f81612ca2565b8051604051630a22d5a160e21b81526000916001600160a01b037f0000000000000000000000000000000000000000000000000000000000000000169163288b5684916119829160040190815260200190565b608060405180830381865afa15801561199f573d6000803e3d6000fd5b505050506040513d601f19601f820116820180604052508101906119c39190613d12565b9050336001600160a01b031681600001516001600160a01b0316636904c94d6040518163ffffffff1660e01b8152600401602060405180830381865afa158015611a11573d6000803e3d6000fd5b505050506040513d601f19601f82011682018060405250810190611a35919061380e565b6001600160a01b031614611aa75760405162461bcd60e51b815260206004820152603360248201527f4176617461723a20636f6d70616e7920646f6573206e6f74206f776e2064657360448201527274696e6174696f6e20657870657269656e636560681b606482015260840161083f565b80604001518260200151146110505760405162461bcd60e51b815260040161083f9061388f565b604051637df73e2760e01b81526001600160a01b038216600482015260009073__$a5a42e46683ad9c79b7b86d5ff60fdf4c1$__90637df73e2790602401610cd9565b6060611b1b612865565b600301805461078590613752565b604051630935e01b60e21b815233600482015273__$a5a42e46683ad9c79b7b86d5ff60fdf4c1$__906324d7806c90602401602060405180830381865af4158015611b78573d6000803e3d6000fd5b505050506040513d601f19601f82011682018060405250810190611b9c91906137f1565b611bb85760405162461bcd60e51b815260040161083f9061385a565b604051638d361e4360e01b815273__$a5a42e46683ad9c79b7b86d5ff60fdf4c1$__90638d361e4390610f639085908590600401613d70565b6000611bfb612978565b905090565b604051632474521560e21b8152600481018390526001600160a01b038216602482015260009073__$a5a42e46683ad9c79b7b86d5ff60fdf4c1$__906391d1485490604401602060405180830381865af4158015611c62573d6000803e3d6000fd5b505050506040513d601f19601f82011682018060405250810190611c8691906137f1565b9392505050565b33611c96612978565b6001600160a01b031614611cbc5760405162461bcd60e51b815260040161083f90613786565b8181611cc6612865565b60030191611cd5919083613dbe565b508181604051611ce6929190613e7d565b604051908190038120907fe8ed633186ac64f9f0ab9b48cb1cca12eebe0f7e0ffdc46908733a060363236690600090a25050565b600080611d25612865565b604051633661870560e11b815290915073__$c011c5c9201293cae8fa3d59d203092c54$__90636cc30e0a90611d63906004808601918891016137bd565b602060405180830381865af4158015611c62573d6000803e3d6000fd5b33611d89612978565b6001600160a01b031614611daf5760405162461bcd60e51b815260040161083f90613786565b80611db8612865565b805460ff191691151591909117905550565b33611dd3612978565b6001600160a01b031614611df95760405162461bcd60e51b815260040161083f90613786565b6040516313af403560e01b81526001600160a01b038216600482015273__$a5a42e46683ad9c79b7b86d5ff60fdf4c1$__906313af40359060240160006040518083038186803b158015611e4c57600080fd5b505af4158015611e60573d6000803e3d6000fd5b5050505050565b600080611e7760208401846131e8565b6001600160a01b031603611e9d5760405162461bcd60e51b815260040161083f90613ba9565b6000826020013511611ec15760405162461bcd60e51b815260040161083f90613bf6565b6001600160a01b037f00000000000000000000000000000000000000000000000000000000000000001663c3c5a547611efd60208501856131e8565b6040516001600160e01b031960e084901b1681526001600160a01b039091166004820152602401602060405180830381865afa158015611f41573d6000803e3d6000fd5b505050506040513d601f19601f82011682018060405250810190611f6591906137f1565b611fbf5760405162461bcd60e51b815260206004820152602560248201527f4176617461723a207765617261626c65206173736574206e6f742072656769736044820152641d195c995960da1b606482015260840161083f565b611fcc60208301836131e8565b6001600160a01b03166386b70bed6040518163ffffffff1660e01b8152600401602060405180830381865afa158015612009573d6000803e3d6000fd5b505050506040513d601f19601f8201168201806040525081019061202d91906137f1565b6120835760405162461bcd60e51b815260206004820152602160248201527f4176617461723a207765617261626c65206173736574206e6f742061637469766044820152606560f81b606482015260840161083f565b600061208d611597565b90506001600160a01b0381166120f55760405162461bcd60e51b815260206004820152602760248201527f4176617461723a206c6f636174696f6e2063616e6e6f74206265207a65726f206044820152666164647265737360c81b606482015260840161083f565b8061210360208501856131e8565b6001600160a01b0316633fa47f176040518060a0016040528087600001602081019061212f91906131e8565b6001600160a01b03168152602001846001600160a01b03166330b67baa6040518163ffffffff1660e01b8152600401602060405180830381865afa15801561217b573d6000803e3d6000fd5b505050506040513d601f19601f8201168201806040525081019061219f919061380e565b6001600160a01b03168152602001846001600160a01b0316636904c94d6040518163ffffffff1660e01b8152600401602060405180830381865afa1580156121eb573d6000803e3d6000fd5b505050506040513d601f19601f8201168201806040525081019061220f919061380e565b6001600160a01b03908116825286811660208084019190915230604093840152825160e086901b6001600160e01b031916815284518316600482015290840151821660248201529183015181166044830152606083015181166064830152608090920151909116608482015260a401602060405180830381865afa15801561229b573d6000803e3d6000fd5b505050506040513d601f19601f820116820180604052508101906122bf91906137f1565b6123235760405162461bcd60e51b815260206004820152602f60248201527f4176617461723a207765617261626c652061737365742063616e6e6f7420626560448201526e103ab9b2b210313c9030bb30ba30b960891b606482015260840161083f565b600061233260208601866131e8565b6040516331a9108f60e11b81526020870135600482015290915030906001600160a01b03831690636352211e90602401602060405180830381865afa15801561237f573d6000803e3d6000fd5b505050506040513d601f19601f820116820180604052508101906123a3919061380e565b6001600160a01b03161461240c5760405162461bcd60e51b815260206004820152602a60248201527f4176617461723a207765617261626c6520746f6b656e206e6f74206f776e656460448201526910313c9030bb30ba30b960b11b606482015260840161083f565b506001949350505050565b604051630935e01b60e21b815233600482015273__$a5a42e46683ad9c79b7b86d5ff60fdf4c1$__906324d7806c90602401602060405180830381865af4158015612466573d6000803e3d6000fd5b505050506040513d601f19601f8201168201806040525081019061248a91906137f1565b6124a65760405162461bcd60e51b815260040161083f9061385a565b60405163d547741f60e01b8152600481018390526001600160a01b038216602482015273__$a5a42e46683ad9c79b7b86d5ff60fdf4c1$__9063d547741f90604401610f63565b336001600160a01b037f00000000000000000000000000000000000000000000000000000000000000001614610de15760405162461bcd60e51b815260040161083f9061397d565b61253d61294e565b6000612547612865565b60405163c3c5a54760e01b81523360048201529091507f00000000000000000000000000000000000000000000000000000000000000006001600160a01b03169063c3c5a54790602401602060405180830381865afa1580156125ae573d6000803e3d6000fd5b505050506040513d601f19601f820116820180604052508101906125d291906137f1565b61263c5760405162461bcd60e51b815260206004820152603560248201527f4176617461723a206f6e6c79207265676973746572656420617373657473206360448201527430b71031b0b636103a3434b990333ab731ba34b7b760591b606482015260840161083f565b6040516331a9108f60e11b81526004810183905233908190636352211e90602401602060405180830381865afa925050508015612696575060408051601f3d908101601f191682019092526126939181019061380e565b60015b612723576040805180820182526001600160a01b03831681526020810185905290516358888ef160e01b815273__$c011c5c9201293cae8fa3d59d203092c54$__916358888ef1916126ee9160048088019201613e8d565b60006040518083038186803b15801561270657600080fd5b505af415801561271a573d6000803e3d6000fd5b5050505061277e565b60405162461bcd60e51b815260206004820152602a60248201527f4176617461723a2045524337323120746f6b656e207374696c6c206f776e656460448201526910313c9030bb30ba30b960b11b606482015260840161083f565b50506109296001600055565b604051630935e01b60e21b815233600482015273__$a5a42e46683ad9c79b7b86d5ff60fdf4c1$__906324d7806c90602401602060405180830381865af41580156127d9573d6000803e3d6000fd5b505050506040513d601f19601f820116820180604052508101906127fd91906137f1565b6128195760405162461bcd60e51b815260040161083f9061385a565b60405163e8906a2d60e01b815273__$a5a42e46683ad9c79b7b86d5ff60fdf4c1$__9063e8906a2d90610f639085908590600401613d70565b600061285c612865565b60020154905090565b60408051808201909152601481527378722e6176617461722e73746f726167652e763160601b60209091015260008060ff6128c160017f4fd0b807f0bccdb8b9f7d6f3136b4bff018fd299ff833e7b8768182dc5b9a532613eb4565b6040516020016128d391815260200190565b60408051601f1981840301815291905280516020909101201692915050565b60408051808201909152601481527378722e656e746974792e73746f726167652e763160601b60209091015260008060ff6128c160017fdefc82a28b6578c2a63b29b15450260a5e998242a6300b7fcb30814ee74ae188613eb4565b60026000540361297157604051633ee5aeb560e01b815260040160405180910390fd5b6002600055565b600080612983612dc3565b546001600160a01b031692915050565b60408051608081018252600080825260208201819052818301819052606082015282519151630a22d5a160e21b81526004810192909252906001600160a01b037f0000000000000000000000000000000000000000000000000000000000000000169063288b568490602401608060405180830381865afa158015612a1c573d6000803e3d6000fd5b505050506040513d601f19601f82011682018060405250810190612a409190613d12565b80519091506001600160a01b0316612aa95760405162461bcd60e51b815260206004820152602660248201527f4176617461723a2064657374696e6174696f6e20706f7274616c206e6f742066604482015265037bab7321d160d51b606482015260840161083f565b600081600001516001600160a01b0316636904c94d6040518163ffffffff1660e01b8152600401602060405180830381865afa158015612aed573d6000803e3d6000fd5b505050506040513d601f19601f82011682018060405250810190612b11919061380e565b90506000612b1d612865565b6001600160a01b03831660009081526001820160205260408120805492935090612b4683613ec7565b9091555084516020808701516040805192830193909352918101919091526060810182905260009060800160408051808303601f190181528282528051602091820120818452838301909252909250600091906020820181803683370190505090508160208201526000612bb982612e1f565b90506000612bcb828a60400151612e5a565b604051637df73e2760e01b81526001600160a01b03808316600483015291925090881690637df73e2790602401602060405180830381865afa158015612c15573d6000803e3d6000fd5b505050506040513d601f19601f82011682018060405250810190612c3991906137f1565b612c965760405162461bcd60e51b815260206004820152602860248201527f4176617461723a20636f6d70616e79207369676e6572206973206e6f742061756044820152671d1a1bdc9a5e995960c21b606482015260840161083f565b50505050505050919050565b6000612cac612865565b6002810180549192506000612cc083613ec7565b9091555082516020808501516040805192830193909352918101919091526060810182905260009060800160408051808303601f190181528282528051602091820120818452838301909252909250600091906020820181803683370190505090508160208201526000612d3382612e1f565b90506000612d45828860400151612e5a565b9050612d4f612978565b6001600160a01b0316816001600160a01b031614612dba5760405162461bcd60e51b815260206004820152602260248201527f4176617461723a20617661746172207369676e6572206973206e6f74206f776e60448201526132b960f11b606482015260840161083f565b50505050505050565b60408051808201909152601481527378722e6163636573732e73746f726167652e763160601b60209091015260008060ff6128c160017fd870894b15ee1369a593f3670ac51c4ed8201dab473944ee712694d327dd5875613eb4565b6000612e2b8251612e84565b82604051602001612e3d929190613ee0565b604051602081830303815290604052805190602001209050919050565b600080600080612e6a8686612f16565b925092509250612e7a8282612f63565b5090949350505050565b60606000612e918361301c565b60010190506000816001600160401b03811115612eb057612eb06133c4565b6040519080825280601f01601f191660200182016040528015612eda576020820181803683370190505b5090508181016020015b600019016f181899199a1a9b1b9c1cb0b131b232b360811b600a86061a8153600a8504945084612ee457509392505050565b60008060008351604103612f505760208401516040850151606086015160001a612f42888285856130f4565b955095509550505050612f5c565b50508151600091506002905b9250925092565b6000826003811115612f7757612f77613f3b565b03612f80575050565b6001826003811115612f9457612f94613f3b565b03612fb25760405163f645eedf60e01b815260040160405180910390fd5b6002826003811115612fc657612fc6613f3b565b03612fe75760405163fce698f760e01b81526004810182905260240161083f565b6003826003811115612ffb57612ffb613f3b565b03610de1576040516335e2f38360e21b81526004810182905260240161083f565b60008072184f03e93ff9f4daa797ed6e38ed64bf6a1f0160401b831061305b5772184f03e93ff9f4daa797ed6e38ed64bf6a1f0160401b830492506040015b6d04ee2d6d415b85acef81000000008310613087576d04ee2d6d415b85acef8100000000830492506020015b662386f26fc1000083106130a557662386f26fc10000830492506010015b6305f5e10083106130bd576305f5e100830492506008015b61271083106130d157612710830492506004015b606483106130e3576064830492506002015b600a8310610d1a5760010192915050565b600080807f7fffffffffffffffffffffffffffffff5d576e7357a4501ddfe92f46681b20a084111561312f57506000915060039050826131b9565b604080516000808252602082018084528a905260ff891692820192909252606081018790526080810186905260019060a0016020604051602081039080840390855afa158015613183573d6000803e3d6000fd5b5050604051601f1901519150506001600160a01b0381166131af575060009250600191508290506131b9565b9250600091508190505b9450945094915050565b6001600160a01b038116811461092957600080fd5b80356131e3816131c3565b919050565b6000602082840312156131fa57600080fd5b8135611c86816131c3565b60005b83811015613220578181015183820152602001613208565b50506000910152565b60008151808452613241816020860160208601613205565b601f01601f19169290920160200192915050565b602081526000611c866020830184613229565b60006040828403121561327a57600080fd5b50919050565b60008083601f84011261329257600080fd5b5081356001600160401b038111156132a957600080fd5b6020830191508360208285010111156132c157600080fd5b9250929050565b6000806000806000608086880312156132e057600080fd5b85356132eb816131c3565b945060208601356132fb816131c3565b93506040860135925060608601356001600160401b0381111561331d57600080fd5b61332988828901613280565b969995985093965092949392505050565b6000806020838503121561334d57600080fd5b82356001600160401b0381111561336357600080fd5b61336f85828601613280565b90969095509350505050565b60006020828403121561338d57600080fd5b5035919050565b600080604083850312156133a757600080fd5b8235915060208301356133b9816131c3565b809150509250929050565b634e487b7160e01b600052604160045260246000fd5b604051608081016001600160401b03811182821017156133fc576133fc6133c4565b60405290565b604080519081016001600160401b03811182821017156133fc576133fc6133c4565b604051601f8201601f191681016001600160401b038111828210171561344c5761344c6133c4565b604052919050565b60006001600160401b0382111561346d5761346d6133c4565b50601f01601f191660200190565b600061348e61348984613454565b613424565b90508281528383830111156134a257600080fd5b828260208301376000602084830101529392505050565b600082601f8301126134ca57600080fd5b611c868383356020850161347b565b6000606082840312156134eb57600080fd5b604051606081016001600160401b03828210818311171561350e5761350e6133c4565b816040528293508435835260208501356020840152604085013591508082111561353757600080fd5b50613544858286016134b9565b6040830152505092915050565b60006020828403121561356357600080fd5b81356001600160401b0381111561357957600080fd5b613585848285016134d9565b949350505050565b60006020828403121561359f57600080fd5b81356001600160401b03808211156135b657600080fd5b90830190608082860312156135ca57600080fd5b6135d26133da565b8235828111156135e157600080fd5b8301601f810187136135f257600080fd5b6136018782356020840161347b565b825250613610602084016131d8565b6020820152613621604084016131d8565b604082015260608301358281111561363857600080fd5b613644878286016134b9565b60608301525095945050505050565b602080825282518282018190526000919060409081850190868401855b828110156136a65761369684835180516001600160a01b03168252602090810151910152565b9284019290850190600101613670565b5091979650505050505050565b600080602083850312156136c657600080fd5b82356001600160401b03808211156136dd57600080fd5b818501915085601f8301126136f157600080fd5b81358181111561370057600080fd5b8660208260051b850101111561371557600080fd5b60209290920196919550909350505050565b801515811461092957600080fd5b60006020828403121561374757600080fd5b8135611c8681613727565b600181811c9082168061376657607f821691505b60208210810361327a57634e487b7160e01b600052602260045260246000fd5b6020808252601f908201527f426173654163636573733a207265737472696374656420746f206f776e657200604082015260600190565b8281526060810182356137cf816131c3565b6001600160a01b03166020838101919091529290920135604090910152919050565b60006020828403121561380357600080fd5b8151611c8681613727565b60006020828403121561382057600080fd5b8151611c86816131c3565b60208152816020820152818360408301376000818301604090810191909152601f909201601f19160101919050565b6020808252818101527f426173654163636573733a207265737472696374656420746f2061646d696e73604082015260600190565b6020808252602c908201527f4176617461723a206167726565642066656520646f6573206e6f74206d61746360408201526b6820706f7274616c2066656560a01b606082015260800190565b634e487b7160e01b600052601160045260246000fd5b80820180821115610d1a57610d1a6138db565b600082601f83011261391557600080fd5b815161392361348982613454565b81815284602083860101111561393857600080fd5b613585826020830160208701613205565b60006020828403121561395b57600080fd5b81516001600160401b0381111561397157600080fd5b61358584828501613904565b60208082526025908201527f52656d6f7661626c65456e746974793a206f6e6c79206f776e696e6720726567604082015264697374727960d81b606082015260800190565b6001600160a01b038381168252604060208084018290528451918401829052600092858201929091906060860190855b81811015613a105785518516835294830194918301916001016139f2565b509098975050505050505050565b601f821115613a66576000816000526020600020601f850160051c81016020861015613a475750805b601f850160051c820191505b81811015610f8f57828155600101613a53565b505050565b81516001600160401b03811115613a8457613a846133c4565b613a9881613a928454613752565b84613a1e565b602080601f831160018114613acd5760008415613ab55750858301515b600019600386901b1c1916600185901b178555610f8f565b600085815260208120601f198616915b82811015613afc57888601518255948401946001909101908401613add565b5085821015613b1a5787850151600019600388901b60f8161c191681555b5050505050600190811b01905550565b600060208284031215613b3c57600080fd5b81516001600160401b0380821115613b5357600080fd5b9083019060408286031215613b6757600080fd5b613b6f613402565b8251613b7a81613727565b8152602083015182811115613b8e57600080fd5b613b9a87828601613904565b60208301525095945050505050565b6020808252602d908201527f4176617461723a207765617261626c652061737365742063616e6e6f7420626560408201526c207a65726f206164647265737360981b606082015260800190565b60208082526027908201527f4176617461723a207765617261626c6520746f6b656e49642063616e6e6f74206040820152666265207a65726f60c81b606082015260800190565b60006020808385031215613c5057600080fd5b82516001600160401b0380821115613c6757600080fd5b818501915085601f830112613c7b57600080fd5b815181811115613c8d57613c8d6133c4565b613c9b848260051b01613424565b818152848101925060069190911b830184019087821115613cbb57600080fd5b928401925b81841015613d075760408489031215613cd95760008081fd5b613ce1613402565b8451613cec816131c3565b81528486015186820152835260409093019291840191613cc0565b979650505050505050565b600060808284031215613d2457600080fd5b613d2c6133da565b8251613d37816131c3565b81526020830151613d47816131c3565b6020820152604083810151908201526060830151613d6481613727565b60608201529392505050565b60208082528181018390526000908460408401835b86811015613db3578235613d98816131c3565b6001600160a01b031682529183019190830190600101613d85565b509695505050505050565b6001600160401b03831115613dd557613dd56133c4565b613de983613de38354613752565b83613a1e565b6000601f841160018114613e1d5760008515613e055750838201355b600019600387901b1c1916600186901b178355611e60565b600083815260209020601f19861690835b82811015613e4e5786850135825560209485019460019092019101613e2e565b5086821015613e6b5760001960f88860031b161c19848701351681555b505060018560011b0183555050505050565b8183823760009101908152919050565b82815260608101611c86602083018480516001600160a01b03168252602090810151910152565b81810381811115610d1a57610d1a6138db565b600060018201613ed957613ed96138db565b5060010190565b7f19457468657265756d205369676e6564204d6573736167653a0a000000000000815260008351613f1881601a850160208801613205565b835190830190613f2f81601a840160208801613205565b01601a01949350505050565b634e487b7160e01b600052602160045260246000fdfea26469706673582212206c559d14b32fb99a9a710f635a84ae5589925611169be9696034670da20ac31864736f6c63430008180033",
  "linkReferences": {
    "contracts/libraries/LibAccess.sol": {
      "LibAccess": [
        {
          "length": 20,
          "start": 4205
        },
        {
          "length": 20,
          "start": 4696
        },
        {
          "length": 20,
          "start": 4855
        },
        {
          "length": 20,
          "start": 6230
        },
        {
          "length": 20,
          "start": 7841
        },
        {
          "length": 20,
          "start": 7920
        },
        {
          "length": 20,
          "start": 8057
        },
        {
          "length": 20,
          "start": 8154
        },
        {
          "length": 20,
          "start": 8649
        },
        {
          "length": 20,
          "start": 10206
        },
        {
          "length": 20,
          "start": 10365
        },
        {
          "length": 20,
          "start": 11089
        },
        {
          "length": 20,
          "start": 11226
        }
      ]
    },
    "contracts/libraries/LibLinkedList.sol": {
      "LibLinkedList": [
        {
          "length": 20,
          "start": 3104
        },
        {
          "length": 20,
          "start": 6667
        },
        {
          "length": 20,
          "start": 6886
        },
        {
          "length": 20,
          "start": 8425
        },
        {
          "length": 20,
          "start": 10870
        }
      ]
    }
  },
  "deployedLinkReferences": {
    "contracts/libraries/LibAccess.sol": {
      "LibAccess": [
        {
          "length": 20,
          "start": 3259
        },
        {
          "length": 20,
          "start": 3750
        },
        {
          "length": 20,
          "start": 3909
        },
        {
          "length": 20,
          "start": 5284
        },
        {
          "length": 20,
          "start": 6895
        },
        {
          "length": 20,
          "start": 6974
        },
        {
          "length": 20,
          "start": 7111
        },
        {
          "length": 20,
          "start": 7208
        },
        {
          "length": 20,
          "start": 7703
        },
        {
          "length": 20,
          "start": 9260
        },
        {
          "length": 20,
          "start": 9419
        },
        {
          "length": 20,
          "start": 10143
        },
        {
          "length": 20,
          "start": 10280
        }
      ]
    },
    "contracts/libraries/LibLinkedList.sol": {
      "LibLinkedList": [
        {
          "length": 20,
          "start": 2158
        },
        {
          "length": 20,
          "start": 5721
        },
        {
          "length": 20,
          "start": 5940
        },
        {
          "length": 20,
          "start": 7479
        },
        {
          "length": 20,
          "start": 9924
        }
      ]
    }
  }
}