{
  "_format": "hh-sol-artifact-1",
  "contractName": "AvatarRegistry",
  "sourceName": "contracts/avatar/registry/AvatarRegistry.sol",
  "abi": [
    {
      "inputs": [
        {
          "components": [
            {
              "internalType": "address",
              "name": "worldRegistry",
              "type": "address"
            }
          ],
          "internalType": "struct AvatarRegistryConstructorArgs",
          "name": "args",
          "type": "tuple"
        }
      ],
      "stateMutability": "nonpayable",
      "type": "constructor"
    },
    {
      "inputs": [],
      "name": "ReentrancyGuardReentrantCall",
      "type": "error"
    },
    {
      "anonymous": false,
      "inputs": [
        {
          "indexed": true,
          "internalType": "address",
          "name": "owner",
          "type": "address"
        },
        {
          "indexed": true,
          "internalType": "address",
          "name": "newOwner",
          "type": "address"
        }
      ],
      "name": "OwnerChanged",
      "type": "event"
    },
    {
      "anonymous": false,
      "inputs": [
        {
          "indexed": true,
          "internalType": "address",
          "name": "entity",
          "type": "address"
        },
        {
          "indexed": true,
          "internalType": "address",
          "name": "owner",
          "type": "address"
        }
      ],
      "name": "RegistryAddedEntity",
      "type": "event"
    },
    {
      "anonymous": false,
      "inputs": [
        {
          "indexed": true,
          "internalType": "address",
          "name": "entity",
          "type": "address"
        },
        {
          "indexed": true,
          "internalType": "address",
          "name": "newImplementation",
          "type": "address"
        }
      ],
      "name": "RegistryDowngradedEntity",
      "type": "event"
    },
    {
      "anonymous": false,
      "inputs": [
        {
          "indexed": true,
          "internalType": "address",
          "name": "implementation",
          "type": "address"
        }
      ],
      "name": "RegistryEntityImplementationSet",
      "type": "event"
    },
    {
      "anonymous": false,
      "inputs": [
        {
          "indexed": true,
          "internalType": "address",
          "name": "implementation",
          "type": "address"
        }
      ],
      "name": "RegistryProxyImplementationSet",
      "type": "event"
    },
    {
      "anonymous": false,
      "inputs": [
        {
          "indexed": true,
          "internalType": "address",
          "name": "entity",
          "type": "address"
        },
        {
          "indexed": true,
          "internalType": "address",
          "name": "newImplementation",
          "type": "address"
        }
      ],
      "name": "RegistryUpgradedEntity",
      "type": "event"
    },
    {
      "anonymous": false,
      "inputs": [
        {
          "indexed": true,
          "internalType": "bytes32",
          "name": "role",
          "type": "bytes32"
        },
        {
          "indexed": true,
          "internalType": "address",
          "name": "account",
          "type": "address"
        },
        {
          "indexed": true,
          "internalType": "bool",
          "name": "grant",
          "type": "bool"
        }
      ],
      "name": "RoleChanged",
      "type": "event"
    },
    {
      "anonymous": false,
      "inputs": [
        {
          "indexed": false,
          "internalType": "address",
          "name": "signer",
          "type": "address"
        },
        {
          "indexed": false,
          "internalType": "bool",
          "name": "grant",
          "type": "bool"
        }
      ],
      "name": "SignerChanged",
      "type": "event"
    },
    {
      "inputs": [
        {
          "internalType": "address[]",
          "name": "signers",
          "type": "address[]"
        }
      ],
      "name": "addSigners",
      "outputs": [],
      "stateMutability": "nonpayable",
      "type": "function"
    },
    {
      "inputs": [
        {
          "internalType": "address",
          "name": "newOwner",
          "type": "address"
        }
      ],
      "name": "changeOwner",
      "outputs": [],
      "stateMutability": "nonpayable",
      "type": "function"
    },
    {
      "inputs": [
        {
          "components": [
            {
              "internalType": "bool",
              "name": "sendTokensToOwner",
              "type": "bool"
            },
            {
              "internalType": "address",
              "name": "startingExperience",
              "type": "address"
            },
            {
              "internalType": "address",
              "name": "owner",
              "type": "address"
            },
            {
              "internalType": "string",
              "name": "name",
              "type": "string"
            },
            {
              "internalType": "bytes",
              "name": "initData",
              "type": "bytes"
            }
          ],
          "internalType": "struct CreateAvatarArgs",
          "name": "args",
          "type": "tuple"
        }
      ],
      "name": "createAvatar",
      "outputs": [
        {
          "internalType": "address",
          "name": "proxy",
          "type": "address"
        }
      ],
      "stateMutability": "nonpayable",
      "type": "function"
    },
    {
      "inputs": [
        {
          "internalType": "bytes",
          "name": "initData",
          "type": "bytes"
        }
      ],
      "name": "downgradeEntity",
      "outputs": [],
      "stateMutability": "nonpayable",
      "type": "function"
    },
    {
      "inputs": [
        {
          "internalType": "string",
          "name": "name",
          "type": "string"
        }
      ],
      "name": "getEntityByName",
      "outputs": [
        {
          "internalType": "address",
          "name": "",
          "type": "address"
        }
      ],
      "stateMutability": "view",
      "type": "function"
    },
    {
      "inputs": [],
      "name": "getEntityImplementation",
      "outputs": [
        {
          "internalType": "address",
          "name": "",
          "type": "address"
        }
      ],
      "stateMutability": "view",
      "type": "function"
    },
    {
      "inputs": [],
      "name": "getEntityVersion",
      "outputs": [
        {
          "components": [
            {
              "internalType": "uint16",
              "name": "major",
              "type": "uint16"
            },
            {
              "internalType": "uint16",
              "name": "minor",
              "type": "uint16"
            }
          ],
          "internalType": "struct Version",
          "name": "",
          "type": "tuple"
        }
      ],
      "stateMutability": "view",
      "type": "function"
    },
    {
      "inputs": [],
      "name": "getProxyImplementation",
      "outputs": [
        {
          "internalType": "address",
          "name": "",
          "type": "address"
        }
      ],
      "stateMutability": "view",
      "type": "function"
    },
    {
      "inputs": [
        {
          "internalType": "bytes32",
          "name": "role",
          "type": "bytes32"
        },
        {
          "internalType": "address",
          "name": "account",
          "type": "address"
        }
      ],
      "name": "grantRole",
      "outputs": [],
      "stateMutability": "nonpayable",
      "type": "function"
    },
    {
      "inputs": [
        {
          "internalType": "bytes32",
          "name": "role",
          "type": "bytes32"
        },
        {
          "internalType": "address",
          "name": "account",
          "type": "address"
        }
      ],
      "name": "hasRole",
      "outputs": [
        {
          "internalType": "bool",
          "name": "",
          "type": "bool"
        }
      ],
      "stateMutability": "view",
      "type": "function"
    },
    {
      "inputs": [
        {
          "internalType": "address",
          "name": "account",
          "type": "address"
        }
      ],
      "name": "isAdmin",
      "outputs": [
        {
          "internalType": "bool",
          "name": "",
          "type": "bool"
        }
      ],
      "stateMutability": "view",
      "type": "function"
    },
    {
      "inputs": [
        {
          "internalType": "address",
          "name": "addr",
          "type": "address"
        }
      ],
      "name": "isRegistered",
      "outputs": [
        {
          "internalType": "bool",
          "name": "",
          "type": "bool"
        }
      ],
      "stateMutability": "view",
      "type": "function"
    },
    {
      "inputs": [
        {
          "internalType": "address",
          "name": "account",
          "type": "address"
        }
      ],
      "name": "isSigner",
      "outputs": [
        {
          "internalType": "bool",
          "name": "",
          "type": "bool"
        }
      ],
      "stateMutability": "view",
      "type": "function"
    },
    {
      "inputs": [],
      "name": "owner",
      "outputs": [
        {
          "internalType": "address",
          "name": "",
          "type": "address"
        }
      ],
      "stateMutability": "view",
      "type": "function"
    },
    {
      "inputs": [
        {
          "internalType": "address[]",
          "name": "signers",
          "type": "address[]"
        }
      ],
      "name": "removeSigners",
      "outputs": [],
      "stateMutability": "nonpayable",
      "type": "function"
    },
    {
      "inputs": [
        {
          "internalType": "bytes32",
          "name": "role",
          "type": "bytes32"
        },
        {
          "internalType": "address",
          "name": "account",
          "type": "address"
        }
      ],
      "name": "revokeRole",
      "outputs": [],
      "stateMutability": "nonpayable",
      "type": "function"
    },
    {
      "inputs": [
        {
          "internalType": "address",
          "name": "_entityImplementation",
          "type": "address"
        }
      ],
      "name": "setEntityImplementation",
      "outputs": [],
      "stateMutability": "nonpayable",
      "type": "function"
    },
    {
      "inputs": [
        {
          "internalType": "address",
          "name": "_proxyImplementation",
          "type": "address"
        }
      ],
      "name": "setProxyImplementation",
      "outputs": [],
      "stateMutability": "nonpayable",
      "type": "function"
    },
    {
      "inputs": [
        {
          "internalType": "bytes",
          "name": "initData",
          "type": "bytes"
        }
      ],
      "name": "upgradeEntity",
      "outputs": [],
      "stateMutability": "nonpayable",
      "type": "function"
    },
    {
      "inputs": [],
      "name": "version",
      "outputs": [
        {
          "components": [
            {
              "internalType": "uint16",
              "name": "major",
              "type": "uint16"
            },
            {
              "internalType": "uint16",
              "name": "minor",
              "type": "uint16"
            }
          ],
          "internalType": "struct Version",
          "name": "",
          "type": "tuple"
        }
      ],
      "stateMutability": "pure",
      "type": "function"
    },
    {
      "inputs": [],
      "name": "worldRegistry",
      "outputs": [
        {
          "internalType": "contract IWorldRegistry",
          "name": "",
          "type": "address"
        }
      ],
      "stateMutability": "view",
      "type": "function"
    }
  ],
  "bytecode": "0x60a06040523480156200001157600080fd5b5060405162001ef138038062001ef18339810160408190526200003491620000b8565b600160005580516001600160a01b0316620000a55760405162461bcd60e51b815260206004820152602760248201527f436f6d70616e7952656769737472793a20696e76616c696420776f726c6420726044820152666567697374727960c81b606482015260840160405180910390fd5b516001600160a01b031660805262000120565b600060208284031215620000cb57600080fd5b604051602081016001600160401b0381118282101715620000fc57634e487b7160e01b600052604160045260246000fd5b60405282516001600160a01b03811681146200011757600080fd5b81529392505050565b608051611dae620001436000396000818161025e01526103300152611dae6000f3fe608060405234801561001057600080fd5b50600436106101375760003560e01c80638da5cb5b116100b8578063a6f9dae11161007c578063a6f9dae1146102a6578063c3c5a547146102b9578063c625e0ad146102cc578063cdbe2211146102df578063d547741f146102f2578063e8906a2d1461030557600080fd5b80638da5cb5b1461024957806390e4b72014610251578063911c2a8c1461025957806391d14854146102805780639fdcd3a41461029357600080fd5b806354fd4d50116100ff57806354fd4d50146101ca5780635e04096214610213578063689c48f01461021b5780637df73e27146102235780638d361e431461023657600080fd5b806304fb06ca1461013c5780630fd020dd1461016c57806324d7806c146101815780632f2ff15d146101a45780633e88a4e2146101b7575b600080fd5b61014f61014a3660046118da565b610318565b6040516001600160a01b0390911681526020015b60405180910390f35b61017f61017a36600461195e565b610844565b005b61019461018f3660046119b8565b610a7e565b6040519015158152602001610163565b61017f6101b23660046119d5565b610b04565b61014f6101c536600461195e565b610c0a565b60408051808201825260008082526020918201819052825180840190935260018352908201525b60408051825161ffff9081168252602093840151169281019290925201610163565b6101f1610c8e565b61014f610d13565b6101946102313660046119b8565b610d82565b61017f610244366004611a05565b610dc5565b61014f610e8d565b61014f610e97565b61014f7f000000000000000000000000000000000000000000000000000000000000000081565b61019461028e3660046119d5565b610ee2565b61017f6102a13660046119b8565b610f68565b61017f6102b43660046119b8565b611066565b6101946102c73660046119b8565b611105565b61017f6102da36600461195e565b611148565b61017f6102ed3660046119b8565b61136c565b61017f6103003660046119d5565b61143b565b61017f610313366004611a05565b611511565b60405163c3c5a54760e01b81523360048201526000907f00000000000000000000000000000000000000000000000000000000000000006001600160a01b03169063c3c5a54790602401602060405180830381865afa15801561037f573d6000803e3d6000fd5b505050506040513d601f19601f820116820180604052508101906103a39190611a7a565b6104025760405162461bcd60e51b815260206004820152602560248201527f436f6d70616e7952656769737472793a20776f726c64206e6f742072656769736044820152641d195c995960da1b60648201526084015b60405180910390fd5b336001600160a01b03166386b70bed6040518163ffffffff1660e01b8152600401602060405180830381865afa158015610440573d6000803e3d6000fd5b505050506040513d601f19601f820116820180604052508101906104649190611a7a565b6104ba5760405162461bcd60e51b815260206004820152602160248201527f436f6d70616e7952656769737472793a20776f726c64206e6f742061637469766044820152606560f81b60648201526084016103f9565b6104c26115d9565b60006104cc611603565b80549091506001600160a01b03166105405760405162461bcd60e51b815260206004820152603160248201527f417661746172526567697374726174696f6e3a20656e7469747920696d706c656044820152701b595b9d185d1a5bdb881b9bdd081cd95d607a1b60648201526084016103f9565b60018101546001600160a01b03166105b35760405162461bcd60e51b815260206004820152603060248201527f417661746172526567697374726174696f6e3a2070726f787920696d706c656d60448201526f195b9d185d1a5bdb881b9bdd081cd95d60821b60648201526084016103f9565b60018101546105ca906001600160a01b0316611699565b91506001600160a01b0382166106335760405162461bcd60e51b815260206004820152602860248201527f417661746172526567697374726174696f6e3a2070726f787920636c6f6e696e60448201526719c819985a5b195960c21b60648201526084016103f9565b8054604051636bc26a1360e11b81526001600160a01b0391821660048201529083169063d784d42690602401600060405180830381600087803b15801561067957600080fd5b505af115801561068d573d6000803e3d6000fd5b50505050600060405180608001604052808580606001906106ae9190611a9c565b8080601f0160208091040260200160405190810160405280939291908181526020018383808284376000920191909152505050908252506020016106f860608701604088016119b8565b6001600160a01b0316815260200185602001602081019061071991906119b8565b6001600160a01b031681526020016107346080870187611a9c565b8080601f0160208091040260200160405190810160405280939291908181526020018383808284376000920191909152505050915250604051631dbce23560e11b81529091506001600160a01b03841690633b79c46a90610799908490600401611b29565b600060405180830381600087803b1580156107b357600080fd5b505af11580156107c7573d6000803e3d6000fd5b505050506107e4838580606001906107df9190611a9c565b61175a565b6107f460608501604086016119b8565b6001600160a01b0316836001600160a01b03167f7377123f9eb561d749cd3a89a83c22035cad6473521acbb981ee1c52d8f0248560405160405180910390a3505061083f6001600055565b919050565b61084d33611105565b6108695760405162461bcd60e51b81526004016103f990611b90565b6108716115d9565b60003390506000816001600160a01b0316630d8e6e2c6040518163ffffffff1660e01b81526004016040805180830381865afa1580156108b5573d6000803e3d6000fd5b505050506040513d601f19601f820116820180604052508101906108d99190611be4565b905060006108e5611603565b60408051808201909152600282015461ffff8082168352620100009091041660208201529091506109179083906117ca565b6109815760405162461bcd60e51b815260206004820152603560248201527f52656769737472793a20656e746974792076657273696f6e206973206c657373604482015274207468616e2063757272656e7420616c726561647960581b60648201526084016103f9565b8054604051636bc26a1360e11b81526001600160a01b039091166004820152339063d784d42690602401600060405180830381600087803b1580156109c557600080fd5b505af11580156109d9573d6000803e3d6000fd5b505060405163e20eea0f60e01b815233925063e20eea0f9150610a029088908890600401611c76565b600060405180830381600087803b158015610a1c57600080fd5b505af1158015610a30573d6000803e3d6000fd5b505082546040516001600160a01b0390911692503391507fd25150b43a5956fbd806981bc1261635722b4703fdcb605cb574703ad24563bf90600090a3505050610a7a6001600055565b5050565b604051630935e01b60e21b81526001600160a01b038216600482015260009073__$a5a42e46683ad9c79b7b86d5ff60fdf4c1$__906324d7806c906024015b602060405180830381865af4158015610ada573d6000803e3d6000fd5b505050506040513d601f19601f82011682018060405250810190610afe9190611a7a565b92915050565b604051630935e01b60e21b815233600482015273__$a5a42e46683ad9c79b7b86d5ff60fdf4c1$__906324d7806c90602401602060405180830381865af4158015610b53573d6000803e3d6000fd5b505050506040513d601f19601f82011682018060405250810190610b779190611a7a565b610b935760405162461bcd60e51b81526004016103f990611c92565b604051632f2ff15d60e01b8152600481018390526001600160a01b038216602482015273__$a5a42e46683ad9c79b7b86d5ff60fdf4c1$__90632f2ff15d906044015b60006040518083038186803b158015610bee57600080fd5b505af4158015610c02573d6000803e3d6000fd5b505050505050565b604051631f44527160e11b815260009073__$d81eab81c4f96e94de97b51155a369ac43$__90633e88a4e290610c469086908690600401611c76565b602060405180830381865af4158015610c63573d6000803e3d6000fd5b505050506040513d601f19601f82011682018060405250810190610c879190611cc7565b9392505050565b604080518082019091526000808252602082015273__$e1fef5d4b1bfc4a605b7eb127c84f71416$__635e0409626040518163ffffffff1660e01b81526004016040805180830381865af4158015610cea573d6000803e3d6000fd5b505050506040513d601f19601f82011682018060405250810190610d0e9190611be4565b905090565b600073__$e1fef5d4b1bfc4a605b7eb127c84f71416$__63689c48f06040518163ffffffff1660e01b8152600401602060405180830381865af4158015610d5e573d6000803e3d6000fd5b505050506040513d601f19601f82011682018060405250810190610d0e9190611cc7565b604051637df73e2760e01b81526001600160a01b038216600482015260009073__$a5a42e46683ad9c79b7b86d5ff60fdf4c1$__90637df73e2790602401610abd565b604051630935e01b60e21b815233600482015273__$a5a42e46683ad9c79b7b86d5ff60fdf4c1$__906324d7806c90602401602060405180830381865af4158015610e14573d6000803e3d6000fd5b505050506040513d601f19601f82011682018060405250810190610e389190611a7a565b610e545760405162461bcd60e51b81526004016103f990611c92565b604051638d361e4360e01b815273__$a5a42e46683ad9c79b7b86d5ff60fdf4c1$__90638d361e4390610bd69085908590600401611ce4565b6000610d0e61181b565b600073__$e1fef5d4b1bfc4a605b7eb127c84f71416$__6390e4b7206040518163ffffffff1660e01b8152600401602060405180830381865af4158015610d5e573d6000803e3d6000fd5b604051632474521560e21b8152600481018390526001600160a01b038216602482015260009073__$a5a42e46683ad9c79b7b86d5ff60fdf4c1$__906391d1485490604401602060405180830381865af4158015610f44573d6000803e3d6000fd5b505050506040513d601f19601f82011682018060405250810190610c879190611a7a565b604051630935e01b60e21b815233600482015273__$a5a42e46683ad9c79b7b86d5ff60fdf4c1$__906324d7806c90602401602060405180830381865af4158015610fb7573d6000803e3d6000fd5b505050506040513d601f19601f82011682018060405250810190610fdb9190611a7a565b610ff75760405162461bcd60e51b81526004016103f990611c92565b6040516327f734e960e21b81526001600160a01b038216600482015273__$e1fef5d4b1bfc4a605b7eb127c84f71416$__90639fdcd3a4906024015b60006040518083038186803b15801561104b57600080fd5b505af415801561105f573d6000803e3d6000fd5b5050505050565b3361106f61181b565b6001600160a01b0316146110c55760405162461bcd60e51b815260206004820152601f60248201527f426173654163636573733a207265737472696374656420746f206f776e65720060448201526064016103f9565b6040516313af403560e01b81526001600160a01b038216600482015273__$a5a42e46683ad9c79b7b86d5ff60fdf4c1$__906313af403590602401611033565b60405163c3c5a54760e01b81526001600160a01b038216600482015260009073__$d81eab81c4f96e94de97b51155a369ac43$__9063c3c5a54790602401610abd565b61115133611105565b61116d5760405162461bcd60e51b81526004016103f990611b90565b6111756115d9565b60003390506000816001600160a01b0316630d8e6e2c6040518163ffffffff1660e01b81526004016040805180830381865afa1580156111b9573d6000803e3d6000fd5b505050506040513d601f19601f820116820180604052508101906111dd9190611be4565b905060006111e9611603565b60408051808201909152600282015461ffff80821683526201000090910416602082015290915061121b908390611836565b6112735760405162461bcd60e51b815260206004820152602360248201527f52656769737472793a20656e7469747920686173206c6174657374207665727360448201526234b7b760e91b60648201526084016103f9565b8054604051636bc26a1360e11b81526001600160a01b039091166004820152339063d784d42690602401600060405180830381600087803b1580156112b757600080fd5b505af11580156112cb573d6000803e3d6000fd5b505060405163e20eea0f60e01b815233925063e20eea0f91506112f49088908890600401611c76565b600060405180830381600087803b15801561130e57600080fd5b505af1158015611322573d6000803e3d6000fd5b505082546040516001600160a01b0390911692503391507f066b0f46be3664c84e5e14bc4d9fb9be906d657f27b0c8ee4b962ad1530d3f4090600090a3505050610a7a6001600055565b604051630935e01b60e21b815233600482015273__$a5a42e46683ad9c79b7b86d5ff60fdf4c1$__906324d7806c90602401602060405180830381865af41580156113bb573d6000803e3d6000fd5b505050506040513d601f19601f820116820180604052508101906113df9190611a7a565b6113fb5760405162461bcd60e51b81526004016103f990611c92565b60405163cdbe221160e01b81526001600160a01b038216600482015273__$e1fef5d4b1bfc4a605b7eb127c84f71416$__9063cdbe221190602401611033565b604051630935e01b60e21b815233600482015273__$a5a42e46683ad9c79b7b86d5ff60fdf4c1$__906324d7806c90602401602060405180830381865af415801561148a573d6000803e3d6000fd5b505050506040513d601f19601f820116820180604052508101906114ae9190611a7a565b6114ca5760405162461bcd60e51b81526004016103f990611c92565b60405163d547741f60e01b8152600481018390526001600160a01b038216602482015273__$a5a42e46683ad9c79b7b86d5ff60fdf4c1$__9063d547741f90604401610bd6565b604051630935e01b60e21b815233600482015273__$a5a42e46683ad9c79b7b86d5ff60fdf4c1$__906324d7806c90602401602060405180830381865af4158015611560573d6000803e3d6000fd5b505050506040513d601f19601f820116820180604052508101906115849190611a7a565b6115a05760405162461bcd60e51b81526004016103f990611c92565b60405163e8906a2d60e01b815273__$a5a42e46683ad9c79b7b86d5ff60fdf4c1$__9063e8906a2d90610bd69085908590600401611ce4565b6002600054036115fc57604051633ee5aeb560e01b815260040160405180910390fd5b6002600055565b60408051808201909152601c81527f78722e656e746974792e666163746f72792e73746f726167652e76310000000060209091015260008060ff61166860017f8b4ac7cd4466ab0d50fe53a88c5446ca4a450d482bef9ad792e7d9f451497e0f611d32565b60405160200161167a91815260200190565b60408051601f1981840301815291905280516020909101201692915050565b60006001600160a01b0382166117095760405162461bcd60e51b815260206004820152602f60248201527f4c6962436c6f6e653a20696d706c656d656e746174696f6e2063616e6e6f742060448201526e6265207a65726f206164647265737360881b60648201526084016103f9565b60008260601b9050604051733d602d80600a3d3981f3363d3d373d3d3d363d7360601b81528160148201526e5af43d82803e903d91602b57fd5bf360881b60288201526037816000f0949350505050565b6040516316df177b60e11b815273__$d81eab81c4f96e94de97b51155a369ac43$__90632dbe2ef69061179590869086908690600401611d53565b60006040518083038186803b1580156117ad57600080fd5b505af41580156117c1573d6000803e3d6000fd5b50505050505050565b8051825160009161ffff908116911611156117e757506001610afe565b8151835161ffff91821691160361181257816020015161ffff16836020015161ffff16119050610afe565b50600092915050565b60008061182661187e565b546001600160a01b031692915050565b8051825160009161ffff9081169116101561185357506001610afe565b8151835161ffff91821691160361181257816020015161ffff16836020015161ffff16109050610afe565b60408051808201909152601481527378722e6163636573732e73746f726167652e763160601b60209091015260008060ff61166860017fd870894b15ee1369a593f3670ac51c4ed8201dab473944ee712694d327dd5875611d32565b6000602082840312156118ec57600080fd5b813567ffffffffffffffff81111561190357600080fd5b820160a08185031215610c8757600080fd5b60008083601f84011261192757600080fd5b50813567ffffffffffffffff81111561193f57600080fd5b60208301915083602082850101111561195757600080fd5b9250929050565b6000806020838503121561197157600080fd5b823567ffffffffffffffff81111561198857600080fd5b61199485828601611915565b90969095509350505050565b6001600160a01b03811681146119b557600080fd5b50565b6000602082840312156119ca57600080fd5b8135610c87816119a0565b600080604083850312156119e857600080fd5b8235915060208301356119fa816119a0565b809150509250929050565b60008060208385031215611a1857600080fd5b823567ffffffffffffffff80821115611a3057600080fd5b818501915085601f830112611a4457600080fd5b813581811115611a5357600080fd5b8660208260051b8501011115611a6857600080fd5b60209290920196919550909350505050565b600060208284031215611a8c57600080fd5b81518015158114610c8757600080fd5b6000808335601e19843603018112611ab357600080fd5b83018035915067ffffffffffffffff821115611ace57600080fd5b60200191503681900382131561195757600080fd5b6000815180845260005b81811015611b0957602081850181015186830182015201611aed565b506000602082860101526020601f19601f83011685010191505092915050565b602081526000825160806020840152611b4560a0840182611ae3565b60208501516001600160a01b0390811660408681019190915286015116606080860191909152850151848203601f19016080860152909150611b878282611ae3565b95945050505050565b60208082526022908201527f52656769737472793a20656e74697479206973206e6f74207265676973746572604082015261195960f21b606082015260800190565b805161ffff8116811461083f57600080fd5b600060408284031215611bf657600080fd5b6040516040810181811067ffffffffffffffff82111715611c2757634e487b7160e01b600052604160045260246000fd5b604052611c3383611bd2565b8152611c4160208401611bd2565b60208201529392505050565b81835281816020850137506000828201602090810191909152601f909101601f19169091010190565b602081526000611c8a602083018486611c4d565b949350505050565b6020808252818101527f426173654163636573733a207265737472696374656420746f2061646d696e73604082015260600190565b600060208284031215611cd957600080fd5b8151610c87816119a0565b60208082528181018390526000908460408401835b86811015611d27578235611d0c816119a0565b6001600160a01b031682529183019190830190600101611cf9565b509695505050505050565b81810381811115610afe57634e487b7160e01b600052601160045260246000fd5b6001600160a01b0384168152604060208201819052600090611b879083018486611c4d56fea2646970667358221220d31f04b4acd88d2919d7910f04d593863b44a8e17fe9f28031475597fa8850a564736f6c63430008180033",
  "linkReferences": {
    "contracts/libraries/LibAccess.sol": {
      "LibAccess": [
        {
          "length": 20,
          "start": 3042
        },
        {
          "length": 20,
          "start": 3164
        },
        {
          "length": 20,
          "start": 3323
        },
        {
          "length": 20,
          "start": 3814
        },
        {
          "length": 20,
          "start": 3869
        },
        {
          "length": 20,
          "start": 4006
        },
        {
          "length": 20,
          "start": 4173
        },
        {
          "length": 20,
          "start": 4288
        },
        {
          "length": 20,
          "start": 4646
        },
        {
          "length": 20,
          "start": 5316
        },
        {
          "length": 20,
          "start": 5523
        },
        {
          "length": 20,
          "start": 5682
        },
        {
          "length": 20,
          "start": 5737
        },
        {
          "length": 20,
          "start": 5874
        }
      ]
    },
    "contracts/libraries/LibFactory.sol": {
      "LibFactory": [
        {
          "length": 20,
          "start": 3559
        },
        {
          "length": 20,
          "start": 3674
        },
        {
          "length": 20,
          "start": 4062
        },
        {
          "length": 20,
          "start": 4440
        },
        {
          "length": 20,
          "start": 5468
        }
      ]
    },
    "contracts/libraries/LibRegistration.sol": {
      "LibRegistration": [
        {
          "length": 20,
          "start": 3423
        },
        {
          "length": 20,
          "start": 4713
        },
        {
          "length": 20,
          "start": 6316
        }
      ]
    }
  },
  "deployedLinkReferences": {
    "contracts/libraries/LibAccess.sol": {
      "LibAccess": [
        {
          "length": 20,
          "start": 2719
        },
        {
          "length": 20,
          "start": 2841
        },
        {
          "length": 20,
          "start": 3000
        },
        {
          "length": 20,
          "start": 3491
        },
        {
          "length": 20,
          "start": 3546
        },
        {
          "length": 20,
          "start": 3683
        },
        {
          "length": 20,
          "start": 3850
        },
        {
          "length": 20,
          "start": 3965
        },
        {
          "length": 20,
          "start": 4323
        },
        {
          "length": 20,
          "start": 4993
        },
        {
          "length": 20,
          "start": 5200
        },
        {
          "length": 20,
          "start": 5359
        },
        {
          "length": 20,
          "start": 5414
        },
        {
          "length": 20,
          "start": 5551
        }
      ]
    },
    "contracts/libraries/LibFactory.sol": {
      "LibFactory": [
        {
          "length": 20,
          "start": 3236
        },
        {
          "length": 20,
          "start": 3351
        },
        {
          "length": 20,
          "start": 3739
        },
        {
          "length": 20,
          "start": 4117
        },
        {
          "length": 20,
          "start": 5145
        }
      ]
    },
    "contracts/libraries/LibRegistration.sol": {
      "LibRegistration": [
        {
          "length": 20,
          "start": 3100
        },
        {
          "length": 20,
          "start": 4390
        },
        {
          "length": 20,
          "start": 5993
        }
      ]
    }
  }
}