{
  "_format": "hh-sol-artifact-1",
  "contractName": "Company",
  "sourceName": "contracts/company/instance/Company.sol",
  "abi": [
    {
      "inputs": [
        {
          "components": [
            {
              "internalType": "address",
              "name": "companyRegistry",
              "type": "address"
            },
            {
              "internalType": "address",
              "name": "experienceRegistry",
              "type": "address"
            },
            {
              "internalType": "address",
              "name": "erc20Registry",
              "type": "address"
            },
            {
              "internalType": "address",
              "name": "erc721Registry",
              "type": "address"
            },
            {
              "internalType": "address",
              "name": "avatarRegistry",
              "type": "address"
            }
          ],
          "internalType": "struct CompanyConstructorArgs",
          "name": "args",
          "type": "tuple"
        }
      ],
      "stateMutability": "nonpayable",
      "type": "constructor"
    },
    {
      "inputs": [],
      "name": "ReentrancyGuardReentrantCall",
      "type": "error"
    },
    {
      "anonymous": false,
      "inputs": [
        {
          "indexed": true,
          "internalType": "address",
          "name": "asset",
          "type": "address"
        },
        {
          "indexed": true,
          "internalType": "address",
          "name": "to",
          "type": "address"
        },
        {
          "indexed": true,
          "internalType": "uint256",
          "name": "amountOrTokenId",
          "type": "uint256"
        }
      ],
      "name": "AssetMinted",
      "type": "event"
    },
    {
      "anonymous": false,
      "inputs": [
        {
          "indexed": true,
          "internalType": "address",
          "name": "asset",
          "type": "address"
        },
        {
          "indexed": true,
          "internalType": "address",
          "name": "holder",
          "type": "address"
        },
        {
          "indexed": true,
          "internalType": "uint256",
          "name": "amountOrTokenId",
          "type": "uint256"
        }
      ],
      "name": "AssetRevoked",
      "type": "event"
    },
    {
      "anonymous": false,
      "inputs": [
        {
          "indexed": true,
          "internalType": "address",
          "name": "asset",
          "type": "address"
        },
        {
          "indexed": true,
          "internalType": "address",
          "name": "condition",
          "type": "address"
        }
      ],
      "name": "CompanyAddedAssetCondition",
      "type": "event"
    },
    {
      "anonymous": false,
      "inputs": [
        {
          "indexed": true,
          "internalType": "address",
          "name": "asset",
          "type": "address"
        },
        {
          "indexed": true,
          "internalType": "address",
          "name": "hook",
          "type": "address"
        }
      ],
      "name": "CompanyAddedAssetHook",
      "type": "event"
    },
    {
      "anonymous": false,
      "inputs": [
        {
          "indexed": true,
          "internalType": "address",
          "name": "experience",
          "type": "address"
        },
        {
          "indexed": true,
          "internalType": "uint256",
          "name": "portalId",
          "type": "uint256"
        }
      ],
      "name": "CompanyAddedExperience",
      "type": "event"
    },
    {
      "anonymous": false,
      "inputs": [
        {
          "indexed": true,
          "internalType": "address",
          "name": "experience",
          "type": "address"
        },
        {
          "indexed": true,
          "internalType": "address",
          "name": "condition",
          "type": "address"
        }
      ],
      "name": "CompanyAddedExperienceCondition",
      "type": "event"
    },
    {
      "anonymous": false,
      "inputs": [
        {
          "indexed": true,
          "internalType": "address",
          "name": "experience",
          "type": "address"
        },
        {
          "indexed": true,
          "internalType": "address",
          "name": "hook",
          "type": "address"
        }
      ],
      "name": "CompanyAddedExperienceHook",
      "type": "event"
    },
    {
      "anonymous": false,
      "inputs": [
        {
          "indexed": true,
          "internalType": "address",
          "name": "experience",
          "type": "address"
        },
        {
          "indexed": true,
          "internalType": "uint256",
          "name": "fee",
          "type": "uint256"
        }
      ],
      "name": "CompanyChangedExperiencePortalFee",
      "type": "event"
    },
    {
      "anonymous": false,
      "inputs": [],
      "name": "CompanyDeactivated",
      "type": "event"
    },
    {
      "anonymous": false,
      "inputs": [
        {
          "indexed": true,
          "internalType": "address",
          "name": "experience",
          "type": "address"
        },
        {
          "indexed": false,
          "internalType": "string",
          "name": "reason",
          "type": "string"
        }
      ],
      "name": "CompanyDeactivatedExperience",
      "type": "event"
    },
    {
      "anonymous": false,
      "inputs": [],
      "name": "CompanyHookRemoved",
      "type": "event"
    },
    {
      "anonymous": false,
      "inputs": [
        {
          "indexed": true,
          "internalType": "address",
          "name": "hook",
          "type": "address"
        }
      ],
      "name": "CompanyHookSet",
      "type": "event"
    },
    {
      "anonymous": false,
      "inputs": [
        {
          "indexed": true,
          "internalType": "address",
          "name": "avatar",
          "type": "address"
        },
        {
          "indexed": true,
          "internalType": "uint256",
          "name": "portalId",
          "type": "uint256"
        },
        {
          "indexed": true,
          "internalType": "uint256",
          "name": "fee",
          "type": "uint256"
        }
      ],
      "name": "CompanyJumpedForAvatar",
      "type": "event"
    },
    {
      "anonymous": false,
      "inputs": [],
      "name": "CompanyReactivated",
      "type": "event"
    },
    {
      "anonymous": false,
      "inputs": [
        {
          "indexed": true,
          "internalType": "address",
          "name": "experience",
          "type": "address"
        }
      ],
      "name": "CompanyReactivatedExperience",
      "type": "event"
    },
    {
      "anonymous": false,
      "inputs": [
        {
          "indexed": true,
          "internalType": "address",
          "name": "asset",
          "type": "address"
        }
      ],
      "name": "CompanyRemovedAssetCondition",
      "type": "event"
    },
    {
      "anonymous": false,
      "inputs": [
        {
          "indexed": true,
          "internalType": "address",
          "name": "asset",
          "type": "address"
        }
      ],
      "name": "CompanyRemovedAssetHook",
      "type": "event"
    },
    {
      "anonymous": false,
      "inputs": [
        {
          "indexed": true,
          "internalType": "address",
          "name": "experience",
          "type": "address"
        },
        {
          "indexed": false,
          "internalType": "string",
          "name": "reason",
          "type": "string"
        },
        {
          "indexed": true,
          "internalType": "uint256",
          "name": "portalId",
          "type": "uint256"
        }
      ],
      "name": "CompanyRemovedExperience",
      "type": "event"
    },
    {
      "anonymous": false,
      "inputs": [
        {
          "indexed": true,
          "internalType": "address",
          "name": "experience",
          "type": "address"
        }
      ],
      "name": "CompanyRemovedExperienceCondition",
      "type": "event"
    },
    {
      "anonymous": false,
      "inputs": [
        {
          "indexed": true,
          "internalType": "address",
          "name": "experience",
          "type": "address"
        }
      ],
      "name": "CompanyRemovedExperienceHook",
      "type": "event"
    },
    {
      "anonymous": false,
      "inputs": [
        {
          "indexed": true,
          "internalType": "address",
          "name": "oldVersion",
          "type": "address"
        },
        {
          "indexed": true,
          "internalType": "address",
          "name": "nextVersion",
          "type": "address"
        }
      ],
      "name": "CompanyUpgraded",
      "type": "event"
    },
    {
      "anonymous": false,
      "inputs": [
        {
          "indexed": true,
          "internalType": "address",
          "name": "asset",
          "type": "address"
        },
        {
          "indexed": true,
          "internalType": "address",
          "name": "nextVersion",
          "type": "address"
        }
      ],
      "name": "CompanyUpgradedAsset",
      "type": "event"
    },
    {
      "anonymous": false,
      "inputs": [
        {
          "indexed": true,
          "internalType": "address",
          "name": "experience",
          "type": "address"
        },
        {
          "indexed": true,
          "internalType": "address",
          "name": "nextVersion",
          "type": "address"
        }
      ],
      "name": "CompanyUpgradedExperience",
      "type": "event"
    },
    {
      "anonymous": false,
      "inputs": [
        {
          "indexed": true,
          "internalType": "address",
          "name": "by",
          "type": "address"
        },
        {
          "indexed": false,
          "internalType": "string",
          "name": "reason",
          "type": "string"
        }
      ],
      "name": "EntityDeactivated",
      "type": "event"
    },
    {
      "anonymous": false,
      "inputs": [
        {
          "indexed": true,
          "internalType": "address",
          "name": "by",
          "type": "address"
        }
      ],
      "name": "EntityReactivated",
      "type": "event"
    },
    {
      "anonymous": false,
      "inputs": [
        {
          "indexed": true,
          "internalType": "address",
          "name": "by",
          "type": "address"
        },
        {
          "indexed": false,
          "internalType": "string",
          "name": "reason",
          "type": "string"
        }
      ],
      "name": "EntityRemoved",
      "type": "event"
    },
    {
      "anonymous": false,
      "inputs": [
        {
          "indexed": true,
          "internalType": "address",
          "name": "owner",
          "type": "address"
        },
        {
          "indexed": true,
          "internalType": "address",
          "name": "newOwner",
          "type": "address"
        }
      ],
      "name": "OwnerChanged",
      "type": "event"
    },
    {
      "anonymous": false,
      "inputs": [
        {
          "indexed": true,
          "internalType": "bytes32",
          "name": "role",
          "type": "bytes32"
        },
        {
          "indexed": true,
          "internalType": "address",
          "name": "account",
          "type": "address"
        },
        {
          "indexed": true,
          "internalType": "bool",
          "name": "grant",
          "type": "bool"
        }
      ],
      "name": "RoleChanged",
      "type": "event"
    },
    {
      "anonymous": false,
      "inputs": [
        {
          "indexed": false,
          "internalType": "address",
          "name": "signer",
          "type": "address"
        },
        {
          "indexed": false,
          "internalType": "bool",
          "name": "grant",
          "type": "bool"
        }
      ],
      "name": "SignerChanged",
      "type": "event"
    },
    {
      "inputs": [
        {
          "internalType": "address",
          "name": "asset",
          "type": "address"
        },
        {
          "internalType": "address",
          "name": "condition",
          "type": "address"
        }
      ],
      "name": "addAssetCondition",
      "outputs": [],
      "stateMutability": "nonpayable",
      "type": "function"
    },
    {
      "inputs": [
        {
          "components": [
            {
              "internalType": "string",
              "name": "name",
              "type": "string"
            },
            {
              "internalType": "bytes",
              "name": "initData",
              "type": "bytes"
            }
          ],
          "internalType": "struct AddExperienceArgs",
          "name": "args",
          "type": "tuple"
        }
      ],
      "name": "addExperience",
      "outputs": [
        {
          "internalType": "address",
          "name": "experience",
          "type": "address"
        },
        {
          "internalType": "uint256",
          "name": "portalId",
          "type": "uint256"
        }
      ],
      "stateMutability": "nonpayable",
      "type": "function"
    },
    {
      "inputs": [
        {
          "internalType": "address",
          "name": "experience",
          "type": "address"
        },
        {
          "internalType": "address",
          "name": "condition",
          "type": "address"
        }
      ],
      "name": "addExperienceCondition",
      "outputs": [],
      "stateMutability": "nonpayable",
      "type": "function"
    },
    {
      "inputs": [
        {
          "internalType": "address[]",
          "name": "signers",
          "type": "address[]"
        }
      ],
      "name": "addSigners",
      "outputs": [],
      "stateMutability": "nonpayable",
      "type": "function"
    },
    {
      "inputs": [],
      "name": "avatarRegistry",
      "outputs": [
        {
          "internalType": "contract IAvatarRegistry",
          "name": "",
          "type": "address"
        }
      ],
      "stateMutability": "view",
      "type": "function"
    },
    {
      "inputs": [
        {
          "internalType": "address",
          "name": "asset",
          "type": "address"
        },
        {
          "internalType": "address",
          "name": "to",
          "type": "address"
        },
        {
          "internalType": "uint256",
          "name": "amount",
          "type": "uint256"
        }
      ],
      "name": "canMintERC20",
      "outputs": [
        {
          "internalType": "bool",
          "name": "",
          "type": "bool"
        }
      ],
      "stateMutability": "view",
      "type": "function"
    },
    {
      "inputs": [
        {
          "internalType": "address",
          "name": "asset",
          "type": "address"
        },
        {
          "internalType": "address",
          "name": "to",
          "type": "address"
        }
      ],
      "name": "canMintERC721",
      "outputs": [
        {
          "internalType": "bool",
          "name": "",
          "type": "bool"
        }
      ],
      "stateMutability": "view",
      "type": "function"
    },
    {
      "inputs": [
        {
          "internalType": "address",
          "name": "experience",
          "type": "address"
        },
        {
          "internalType": "uint256",
          "name": "fee",
          "type": "uint256"
        }
      ],
      "name": "changeExperiencePortalFee",
      "outputs": [],
      "stateMutability": "nonpayable",
      "type": "function"
    },
    {
      "inputs": [
        {
          "internalType": "address",
          "name": "newOwner",
          "type": "address"
        }
      ],
      "name": "changeOwner",
      "outputs": [],
      "stateMutability": "nonpayable",
      "type": "function"
    },
    {
      "inputs": [],
      "name": "companyRegistry",
      "outputs": [
        {
          "internalType": "contract ICompanyRegistry",
          "name": "",
          "type": "address"
        }
      ],
      "stateMutability": "view",
      "type": "function"
    },
    {
      "inputs": [
        {
          "internalType": "string",
          "name": "reason",
          "type": "string"
        }
      ],
      "name": "deactivate",
      "outputs": [],
      "stateMutability": "nonpayable",
      "type": "function"
    },
    {
      "inputs": [
        {
          "internalType": "address",
          "name": "experience",
          "type": "address"
        },
        {
          "internalType": "string",
          "name": "reason",
          "type": "string"
        }
      ],
      "name": "deactivateExperience",
      "outputs": [],
      "stateMutability": "nonpayable",
      "type": "function"
    },
    {
      "inputs": [
        {
          "components": [
            {
              "internalType": "address",
              "name": "avatar",
              "type": "address"
            },
            {
              "internalType": "uint256",
              "name": "portalId",
              "type": "uint256"
            },
            {
              "internalType": "uint256",
              "name": "agreedFee",
              "type": "uint256"
            },
            {
              "internalType": "bytes",
              "name": "avatarOwnerSignature",
              "type": "bytes"
            }
          ],
          "internalType": "struct DelegatedAvatarJumpRequest",
          "name": "request",
          "type": "tuple"
        }
      ],
      "name": "delegateJumpForAvatar",
      "outputs": [],
      "stateMutability": "nonpayable",
      "type": "function"
    },
    {
      "inputs": [],
      "name": "erc20Registry",
      "outputs": [
        {
          "internalType": "contract IAssetRegistry",
          "name": "",
          "type": "address"
        }
      ],
      "stateMutability": "view",
      "type": "function"
    },
    {
      "inputs": [],
      "name": "erc721Registry",
      "outputs": [
        {
          "internalType": "contract IAssetRegistry",
          "name": "",
          "type": "address"
        }
      ],
      "stateMutability": "view",
      "type": "function"
    },
    {
      "inputs": [],
      "name": "experienceRegistry",
      "outputs": [
        {
          "internalType": "contract IExperienceRegistry",
          "name": "",
          "type": "address"
        }
      ],
      "stateMutability": "view",
      "type": "function"
    },
    {
      "inputs": [
        {
          "internalType": "bytes32",
          "name": "role",
          "type": "bytes32"
        },
        {
          "internalType": "address",
          "name": "account",
          "type": "address"
        }
      ],
      "name": "grantRole",
      "outputs": [],
      "stateMutability": "nonpayable",
      "type": "function"
    },
    {
      "inputs": [
        {
          "internalType": "bytes32",
          "name": "role",
          "type": "bytes32"
        },
        {
          "internalType": "address",
          "name": "account",
          "type": "address"
        }
      ],
      "name": "hasRole",
      "outputs": [
        {
          "internalType": "bool",
          "name": "",
          "type": "bool"
        }
      ],
      "stateMutability": "view",
      "type": "function"
    },
    {
      "inputs": [
        {
          "components": [
            {
              "internalType": "string",
              "name": "name",
              "type": "string"
            },
            {
              "internalType": "address",
              "name": "owner",
              "type": "address"
            },
            {
              "internalType": "address",
              "name": "world",
              "type": "address"
            },
            {
              "components": [
                {
                  "internalType": "string",
                  "name": "x",
                  "type": "string"
                },
                {
                  "internalType": "string",
                  "name": "y",
                  "type": "string"
                },
                {
                  "internalType": "string",
                  "name": "z",
                  "type": "string"
                },
                {
                  "internalType": "uint256",
                  "name": "t",
                  "type": "uint256"
                },
                {
                  "internalType": "uint256",
                  "name": "p",
                  "type": "uint256"
                },
                {
                  "internalType": "uint256",
                  "name": "p_sub",
                  "type": "uint256"
                }
              ],
              "internalType": "struct VectorAddress",
              "name": "vector",
              "type": "tuple"
            },
            {
              "internalType": "bytes",
              "name": "initData",
              "type": "bytes"
            }
          ],
          "internalType": "struct CompanyInitArgs",
          "name": "args",
          "type": "tuple"
        }
      ],
      "name": "init",
      "outputs": [],
      "stateMutability": "nonpayable",
      "type": "function"
    },
    {
      "inputs": [
        {
          "internalType": "address",
          "name": "account",
          "type": "address"
        }
      ],
      "name": "isAdmin",
      "outputs": [
        {
          "internalType": "bool",
          "name": "",
          "type": "bool"
        }
      ],
      "stateMutability": "view",
      "type": "function"
    },
    {
      "inputs": [],
      "name": "isEntityActive",
      "outputs": [
        {
          "internalType": "bool",
          "name": "",
          "type": "bool"
        }
      ],
      "stateMutability": "view",
      "type": "function"
    },
    {
      "inputs": [],
      "name": "isRemoved",
      "outputs": [
        {
          "internalType": "bool",
          "name": "",
          "type": "bool"
        }
      ],
      "stateMutability": "view",
      "type": "function"
    },
    {
      "inputs": [
        {
          "internalType": "address",
          "name": "account",
          "type": "address"
        }
      ],
      "name": "isSigner",
      "outputs": [
        {
          "internalType": "bool",
          "name": "",
          "type": "bool"
        }
      ],
      "stateMutability": "view",
      "type": "function"
    },
    {
      "inputs": [
        {
          "internalType": "address",
          "name": "asset",
          "type": "address"
        },
        {
          "internalType": "address",
          "name": "to",
          "type": "address"
        },
        {
          "internalType": "uint256",
          "name": "amount",
          "type": "uint256"
        }
      ],
      "name": "mintERC20",
      "outputs": [],
      "stateMutability": "nonpayable",
      "type": "function"
    },
    {
      "inputs": [
        {
          "internalType": "address",
          "name": "asset",
          "type": "address"
        },
        {
          "internalType": "address",
          "name": "to",
          "type": "address"
        }
      ],
      "name": "mintERC721",
      "outputs": [],
      "stateMutability": "nonpayable",
      "type": "function"
    },
    {
      "inputs": [],
      "name": "name",
      "outputs": [
        {
          "internalType": "string",
          "name": "",
          "type": "string"
        }
      ],
      "stateMutability": "view",
      "type": "function"
    },
    {
      "inputs": [],
      "name": "owner",
      "outputs": [
        {
          "internalType": "address",
          "name": "",
          "type": "address"
        }
      ],
      "stateMutability": "view",
      "type": "function"
    },
    {
      "inputs": [
        {
          "internalType": "bytes",
          "name": "",
          "type": "bytes"
        }
      ],
      "name": "postUpgradeInit",
      "outputs": [],
      "stateMutability": "nonpayable",
      "type": "function"
    },
    {
      "inputs": [],
      "name": "reactivate",
      "outputs": [],
      "stateMutability": "nonpayable",
      "type": "function"
    },
    {
      "inputs": [
        {
          "internalType": "address",
          "name": "experience",
          "type": "address"
        }
      ],
      "name": "reactivateExperience",
      "outputs": [],
      "stateMutability": "nonpayable",
      "type": "function"
    },
    {
      "inputs": [
        {
          "internalType": "string",
          "name": "reason",
          "type": "string"
        }
      ],
      "name": "remove",
      "outputs": [],
      "stateMutability": "nonpayable",
      "type": "function"
    },
    {
      "inputs": [
        {
          "internalType": "address",
          "name": "asset",
          "type": "address"
        }
      ],
      "name": "removeAssetCondition",
      "outputs": [],
      "stateMutability": "nonpayable",
      "type": "function"
    },
    {
      "inputs": [
        {
          "internalType": "address",
          "name": "experience",
          "type": "address"
        },
        {
          "internalType": "string",
          "name": "reason",
          "type": "string"
        }
      ],
      "name": "removeExperience",
      "outputs": [],
      "stateMutability": "nonpayable",
      "type": "function"
    },
    {
      "inputs": [
        {
          "internalType": "address",
          "name": "experience",
          "type": "address"
        }
      ],
      "name": "removeExperienceCondition",
      "outputs": [],
      "stateMutability": "nonpayable",
      "type": "function"
    },
    {
      "inputs": [
        {
          "internalType": "address[]",
          "name": "signers",
          "type": "address[]"
        }
      ],
      "name": "removeSigners",
      "outputs": [],
      "stateMutability": "nonpayable",
      "type": "function"
    },
    {
      "inputs": [
        {
          "internalType": "address",
          "name": "asset",
          "type": "address"
        },
        {
          "internalType": "address",
          "name": "holder",
          "type": "address"
        },
        {
          "internalType": "uint256",
          "name": "amount",
          "type": "uint256"
        }
      ],
      "name": "revokeERC20",
      "outputs": [],
      "stateMutability": "nonpayable",
      "type": "function"
    },
    {
      "inputs": [
        {
          "internalType": "address",
          "name": "asset",
          "type": "address"
        },
        {
          "internalType": "address",
          "name": "holder",
          "type": "address"
        },
        {
          "internalType": "uint256",
          "name": "tokenId",
          "type": "uint256"
        }
      ],
      "name": "revokeERC721",
      "outputs": [],
      "stateMutability": "nonpayable",
      "type": "function"
    },
    {
      "inputs": [
        {
          "internalType": "bytes32",
          "name": "role",
          "type": "bytes32"
        },
        {
          "internalType": "address",
          "name": "account",
          "type": "address"
        }
      ],
      "name": "revokeRole",
      "outputs": [],
      "stateMutability": "nonpayable",
      "type": "function"
    },
    {
      "inputs": [
        {
          "internalType": "address",
          "name": "asset",
          "type": "address"
        },
        {
          "internalType": "string",
          "name": "uri",
          "type": "string"
        }
      ],
      "name": "setERC721BaseURI",
      "outputs": [],
      "stateMutability": "nonpayable",
      "type": "function"
    },
    {
      "inputs": [],
      "name": "termsOwner",
      "outputs": [
        {
          "internalType": "address",
          "name": "",
          "type": "address"
        }
      ],
      "stateMutability": "view",
      "type": "function"
    },
    {
      "inputs": [
        {
          "internalType": "bytes",
          "name": "initData",
          "type": "bytes"
        }
      ],
      "name": "upgrade",
      "outputs": [],
      "stateMutability": "nonpayable",
      "type": "function"
    },
    {
      "inputs": [
        {
          "internalType": "address",
          "name": "asset",
          "type": "address"
        },
        {
          "internalType": "bytes",
          "name": "initData",
          "type": "bytes"
        }
      ],
      "name": "upgradeERC20",
      "outputs": [],
      "stateMutability": "nonpayable",
      "type": "function"
    },
    {
      "inputs": [
        {
          "internalType": "address",
          "name": "asset",
          "type": "address"
        },
        {
          "internalType": "bytes",
          "name": "initData",
          "type": "bytes"
        }
      ],
      "name": "upgradeERC721",
      "outputs": [],
      "stateMutability": "nonpayable",
      "type": "function"
    },
    {
      "inputs": [
        {
          "internalType": "address",
          "name": "exp",
          "type": "address"
        },
        {
          "internalType": "bytes",
          "name": "initData",
          "type": "bytes"
        }
      ],
      "name": "upgradeExperience",
      "outputs": [],
      "stateMutability": "nonpayable",
      "type": "function"
    },
    {
      "inputs": [],
      "name": "vectorAddress",
      "outputs": [
        {
          "components": [
            {
              "internalType": "string",
              "name": "x",
              "type": "string"
            },
            {
              "internalType": "string",
              "name": "y",
              "type": "string"
            },
            {
              "internalType": "string",
              "name": "z",
              "type": "string"
            },
            {
              "internalType": "uint256",
              "name": "t",
              "type": "uint256"
            },
            {
              "internalType": "uint256",
              "name": "p",
              "type": "uint256"
            },
            {
              "internalType": "uint256",
              "name": "p_sub",
              "type": "uint256"
            }
          ],
          "internalType": "struct VectorAddress",
          "name": "",
          "type": "tuple"
        }
      ],
      "stateMutability": "view",
      "type": "function"
    },
    {
      "inputs": [],
      "name": "version",
      "outputs": [
        {
          "components": [
            {
              "internalType": "uint16",
              "name": "major",
              "type": "uint16"
            },
            {
              "internalType": "uint16",
              "name": "minor",
              "type": "uint16"
            }
          ],
          "internalType": "struct Version",
          "name": "",
          "type": "tuple"
        }
      ],
      "stateMutability": "pure",
      "type": "function"
    },
    {
      "inputs": [
        {
          "internalType": "uint256",
          "name": "amount",
          "type": "uint256"
        }
      ],
      "name": "withdraw",
      "outputs": [],
      "stateMutability": "nonpayable",
      "type": "function"
    },
    {
      "inputs": [],
      "name": "world",
      "outputs": [
        {
          "internalType": "address",
          "name": "",
          "type": "address"
        }
      ],
      "stateMutability": "view",
      "type": "function"
    },
    {
      "stateMutability": "payable",
      "type": "receive"
    }
  ],
  "bytecode": "0x6101206040523480156200001257600080fd5b5060405162004cb338038062004cb3833981016040819052620000359162000279565b600160005580516001600160a01b0316620000a15760405162461bcd60e51b815260206004820152602160248201527f436f6d70616e793a20496e76616c696420636f6d70616e7920726567697374726044820152607960f81b60648201526084015b60405180910390fd5b60208101516001600160a01b0316620001095760405162461bcd60e51b8152602060048201526024808201527f436f6d70616e793a20496e76616c696420657870657269656e636520726567696044820152637374727960e01b606482015260840162000098565b60408101516001600160a01b0316620001655760405162461bcd60e51b815260206004820152601f60248201527f436f6d70616e793a20496e76616c696420657263323020726567697374727900604482015260640162000098565b60608101516001600160a01b0316620001c15760405162461bcd60e51b815260206004820181905260248201527f436f6d70616e793a20496e76616c696420657263373231207265676973747279604482015260640162000098565b60808101516001600160a01b03166200021d5760405162461bcd60e51b815260206004820181905260248201527f436f6d70616e793a20496e76616c696420617661746172207265676973747279604482015260640162000098565b80516001600160a01b0390811660809081526020830151821660a0526040830151821660c0526060830151821660e05290910151166101005262000320565b80516001600160a01b03811681146200027457600080fd5b919050565b600060a082840312156200028c57600080fd5b60405160a081016001600160401b0381118282101715620002bd57634e487b7160e01b600052604160045260246000fd5b604052620002cb836200025c565b8152620002db602084016200025c565b6020820152620002ee604084016200025c565b604082015262000301606084016200025c565b606082015262000314608084016200025c565b60808201529392505050565b60805160a05160c05160e051610100516148ec620003c760003960006108ad0152600081816107e401528181610f29015281816120d6015281816126bb015261359301526000818161034e01528181610b1d01528181611b980152612dfe0152600081816106fc01526132450152600081816107b00152818161141201528181611454015281816122190152818161281301528181612e3801526133a901526148ec6000f3fe6080604052600436106102975760003560e01c80636b81657a1161015a578063bcc84ca5116100c1578063db70a6931161007a578063db70a6931461085b578063e20eea0f1461087b578063e3d7ad731461089b578063e8906a2d146108cf578063f6353f9c146108ef578063fcc111841461090f57600080fd5b8063bcc84ca51461077e578063c51aba2b1461079e578063ca6d4429146107d2578063d18611d614610806578063d547741f1461081b578063d802a9a21461083b57600080fd5b80638d361e43116101135780638d361e43146106b55780638da5cb5b146106d55780638f09a6be146106ea57806391d148541461071e5780639e29186d1461073e578063a6f9dae11461075e57600080fd5b80636b81657a1461060b5780637df73e271461062b5780637e6e15511461064b578063804454e81461066057806380599e4b1461068057806386b70bed146106a057600080fd5b80632e1a7d4d116101fe57806347c07e88116101b757806347c07e881461053e57806354fd4d501461055e57806357433ea6146105ab5780636330347a146105cb578063660fe319146105eb57806369bd9194146104e957600080fd5b80632e1a7d4d146104875780632f2ff15d146104a75780632fcbab9a146104c757806330b67baa146104e957806339150be8146104fe578063464570b61461051e57600080fd5b8063243546a611610250578063243546a6146103a857806324d7806c146103e7578063253946451461040757806327ee999d1461042757806329f2691d146104475780632bb88c391461046757600080fd5b80630346f5f5146102a357806306b15483146102c557806306fdde03146102fa5780631180db301461031c57806312d3e5e11461033c57806316c49b111461038857600080fd5b3661029e57005b600080fd5b3480156102af57600080fd5b506102c36102be366004613b68565b61092f565b005b3480156102d157600080fd5b506102e56102e0366004613b94565b610a38565b60405190151581526020015b60405180910390f35b34801561030657600080fd5b5061030f610d81565b6040516102f19190613c1b565b34801561032857600080fd5b506102c3610337366004613b94565b610e19565b34801561034857600080fd5b506103707f000000000000000000000000000000000000000000000000000000000000000081565b6040516001600160a01b0390911681526020016102f1565b34801561039457600080fd5b506102c36103a3366004613c2e565b611027565b3480156103b457600080fd5b506103c86103c3366004613d54565b611185565b604080516001600160a01b0390931683526020830191909152016102f1565b3480156103f357600080fd5b506102e5610402366004613dfa565b61133e565b34801561041357600080fd5b506102c3610422366004613e5f565b6113c4565b34801561043357600080fd5b506102c3610442366004613e5f565b611449565b34801561045357600080fd5b506102c3610462366004613dfa565b6114ea565b34801561047357600080fd5b506102c3610482366004613ea0565b6115de565b34801561049357600080fd5b506102c36104a2366004613ed9565b61168f565b3480156104b357600080fd5b506102c36104c2366004613ef2565b61173b565b3480156104d357600080fd5b506104dc611841565b6040516102f19190613f8a565b3480156104f557600080fd5b50610370611a69565b34801561050a57600080fd5b506102c3610519366004613b94565b611a88565b34801561052a57600080fd5b506102c3610539366004613f9d565b611bc7565b34801561054a57600080fd5b506102c3610559366004613b94565b611d14565b34801561056a57600080fd5b50604080518082018252600080825260209182018190528251808401845260018082529083019182528351908152905161ffff1691810191909152016102f1565b3480156105b757600080fd5b506102c36105c6366004613ea0565b611e04565b3480156105d757600080fd5b506102c36105e6366004613ea0565b611f5b565b3480156105f757600080fd5b506102c3610606366004613f9d565b612020565b34801561061757600080fd5b506102c36106263660046140a2565b61220e565b34801561063757600080fd5b506102e5610646366004613dfa565b6124e6565b34801561065757600080fd5b506102e5612529565b34801561066c57600080fd5b506102c361067b366004613f9d565b612541565b34801561068c57600080fd5b506102c361069b366004613e5f565b612808565b3480156106ac57600080fd5b506102e561290c565b3480156106c157600080fd5b506102c36106d0366004614178565b61291f565b3480156106e157600080fd5b506103706129e7565b3480156106f657600080fd5b506103707f000000000000000000000000000000000000000000000000000000000000000081565b34801561072a57600080fd5b506102e5610739366004613ef2565b6129f6565b34801561074a57600080fd5b506102c3610759366004613dfa565b612a83565b34801561076a57600080fd5b506102c3610779366004613dfa565b612be7565b34801561078a57600080fd5b506102c3610799366004613f9d565b612c84565b3480156107aa57600080fd5b506103707f000000000000000000000000000000000000000000000000000000000000000081565b3480156107de57600080fd5b506103707f000000000000000000000000000000000000000000000000000000000000000081565b34801561081257600080fd5b506102c3612e2d565b34801561082757600080fd5b506102c3610836366004613ef2565b612ebb565b34801561084757600080fd5b506102c3610856366004613dfa565b612f91565b34801561086757600080fd5b506102c3610876366004613f9d565b6130cb565b34801561088757600080fd5b506102c3610896366004613e5f565b61339e565b3480156108a757600080fd5b506103707f000000000000000000000000000000000000000000000000000000000000000081565b3480156108db57600080fd5b506102c36108ea366004614178565b6133e6565b3480156108fb57600080fd5b506102e561090a366004613ea0565b6134ae565b34801561091b57600080fd5b506102c361092a366004613f9d565b6137ef565b610937613953565b604051630935e01b60e21b815233600482015273__$a5a42e46683ad9c79b7b86d5ff60fdf4c1$__906324d7806c90602401602060405180830381865af4158015610986573d6000803e3d6000fd5b505050506040513d601f19601f820116820180604052508101906109aa91906141ec565b6109cf5760405162461bcd60e51b81526004016109c69061420e565b60405180910390fd5b6040516383c3426360e01b8152600481018290526001600160a01b038316906383c34263906024015b600060405180830381600087803b158015610a1257600080fd5b505af1158015610a26573d6000803e3d6000fd5b50505050610a346001600055565b5050565b6000610a4261397d565b5460ff16610a625760405162461bcd60e51b81526004016109c690614243565b610a6a61397d565b60000160029054906101000a90046001600160a01b03166001600160a01b03166386b70bed6040518163ffffffff1660e01b8152600401602060405180830381865afa158015610abe573d6000803e3d6000fd5b505050506040513d601f19601f82011682018060405250810190610ae291906141ec565b610afe5760405162461bcd60e51b81526004016109c69061427a565b60405163c3c5a54760e01b81526001600160a01b0385811660048301527f0000000000000000000000000000000000000000000000000000000000000000169063c3c5a54790602401602060405180830381865afa158015610b64573d6000803e3d6000fd5b505050506040513d601f19601f82011682018060405250810190610b8891906141ec565b610ba45760405162461bcd60e51b81526004016109c6906142b1565b6000849050806001600160a01b03166386b70bed6040518163ffffffff1660e01b8152600401602060405180830381865afa158015610be7573d6000803e3d6000fd5b505050506040513d601f19601f82011682018060405250810190610c0b91906141ec565b610c275760405162461bcd60e51b81526004016109c6906142e8565b306001600160a01b0316816001600160a01b0316631d1438486040518163ffffffff1660e01b8152600401602060405180830381865afa158015610c6f573d6000803e3d6000fd5b505050506040513d601f19601f82011682018060405250810190610c93919061431f565b6001600160a01b031614610cb95760405162461bcd60e51b81526004016109c69061433c565b6040516303578d2960e21b81526001600160a01b03858116600483015260248201859052821690630d5e34a490604401602060405180830381865afa158015610d06573d6000803e3d6000fd5b505050506040513d601f19601f82011682018060405250810190610d2a91906141ec565b610d765760405162461bcd60e51b815260206004820152601f60248201527f436f6d70616e793a2063616e6e6f74206d696e7420746f20616464726573730060448201526064016109c6565b506001949350505050565b6060610d8b613a13565b8054610d9690614373565b80601f0160208091040260200160405190810160405280929190818152602001828054610dc290614373565b8015610e0f5780601f10610de457610100808354040283529160200191610e0f565b820191906000526020600020905b815481529060010190602001808311610df257829003601f168201915b5050505050905090565b610e21613953565b610e2a336124e6565b610e465760405162461bcd60e51b81526004016109c6906143ad565b610e4e61397d565b5460ff16610e6e5760405162461bcd60e51b81526004016109c690614243565b610e7661397d565b60000160029054906101000a90046001600160a01b03166001600160a01b03166386b70bed6040518163ffffffff1660e01b8152600401602060405180830381865afa158015610eca573d6000803e3d6000fd5b505050506040513d601f19601f82011682018060405250810190610eee91906141ec565b610f0a5760405162461bcd60e51b81526004016109c69061427a565b60405163c3c5a54760e01b81526001600160a01b0384811660048301527f0000000000000000000000000000000000000000000000000000000000000000169063c3c5a547906024015b602060405180830381865afa158015610f71573d6000803e3d6000fd5b505050506040513d601f19601f82011682018060405250810190610f9591906141ec565b610fb15760405162461bcd60e51b81526004016109c6906142b1565b60405163eac449d960e01b81526001600160a01b0383811660048301526024820183905284919082169063eac449d9906044015b600060405180830381600087803b158015610fff57600080fd5b505af1158015611013573d6000803e3d6000fd5b50505050506110226001600055565b505050565b61102f613953565b611038336124e6565b6110545760405162461bcd60e51b81526004016109c6906143ad565b60006110636020830183613dfa565b9050806001600160a01b0316637dc759e5604051806060016040528085602001358152602001856040013581526020018580606001906110a391906143db565b8080601f01602080910402602001604051908101604052809392919081815260200183838082843760009201919091525050509152506040516001600160e01b031960e084901b1681526110fa9190600401614421565b600060405180830381600087803b15801561111457600080fd5b505af1158015611128573d6000803e3d6000fd5b505050506040820135602083018035906111429085613dfa565b6001600160a01b03167fa91163c384fd7aaeb9af411ac3a6fb176839758a072ab72d1d322e80fa64205f60405160405180910390a4506111826001600055565b50565b600080611190613953565b604051630935e01b60e21b815233600482015273__$a5a42e46683ad9c79b7b86d5ff60fdf4c1$__906324d7806c90602401602060405180830381865af41580156111df573d6000803e3d6000fd5b505050506040513d601f19601f8201168201806040525081019061120391906141ec565b61121f5760405162461bcd60e51b81526004016109c69061420e565b6000611229611841565b90506000611235613a6f565b905080600001600081546112489061446e565b90915550805460a083015260408051606081018252838152865160208083019190915287015191810191909152600061127f611a69565b6040516305117adf60e31b81529091506001600160a01b0382169063288bd6f8906112ae908590600401614487565b60408051808303816000875af11580156112cc573d6000803e3d6000fd5b505050506040513d601f19601f820116820180604052508101906112f091906144e8565b604051919750955085906001600160a01b038816907fdd1416df66cb3941d0ab5716b19acf9c3c0f4afbd2bfe67a0d6a8f6ab6d3afc890600090a3505050506113396001600055565b915091565b604051630935e01b60e21b81526001600160a01b038216600482015260009073__$a5a42e46683ad9c79b7b86d5ff60fdf4c1$__906324d7806c906024015b602060405180830381865af415801561139a573d6000803e3d6000fd5b505050506040513d601f19601f820116820180604052508101906113be91906141ec565b92915050565b336113cd613acc565b6001600160a01b0316146113f35760405162461bcd60e51b81526004016109c690614516565b6113fb613953565b60405163c625e0ad60e01b81526001600160a01b037f0000000000000000000000000000000000000000000000000000000000000000169063c625e0ad906109f89085908590600401614576565b336001600160a01b037f000000000000000000000000000000000000000000000000000000000000000016146114915760405162461bcd60e51b81526004016109c69061458a565b600061149b61397d565b805460ff191691151591909117905560405133907f246589c99dd263c9b64a2b544e24074c282ca479ba3d2a0e649f9eeaca1e2d62906114de9085908590614576565b60405180910390a25050565b6114f2613953565b604051630935e01b60e21b815233600482015273__$a5a42e46683ad9c79b7b86d5ff60fdf4c1$__906324d7806c90602401602060405180830381865af4158015611541573d6000803e3d6000fd5b505050506040513d601f19601f8201168201806040525081019061156591906141ec565b6115815760405162461bcd60e51b81526004016109c69061420e565b806001600160a01b031663021665b76040518163ffffffff1660e01b8152600401600060405180830381600087803b1580156115bc57600080fd5b505af11580156115d0573d6000803e3d6000fd5b505050506111826001600055565b6115e6613953565b6115ef336124e6565b61160b5760405162461bcd60e51b81526004016109c6906143ad565b61161582826134ae565b6116615760405162461bcd60e51b815260206004820152601a60248201527f436f6d70616e793a2063616e6e6f74206d696e7420617373657400000000000060448201526064016109c6565b6040516335313c2160e11b81526001600160a01b038281166004830152831690636a627842906024016109f8565b33611698613acc565b6001600160a01b0316146116be5760405162461bcd60e51b81526004016109c690614516565b4781111561170e5760405162461bcd60e51b815260206004820152601d60248201527f436f6d70616e793a20496e73756666696369656e742062616c616e636500000060448201526064016109c6565b604051339082156108fc029083906000818181858888f19350505050158015610a34573d6000803e3d6000fd5b604051630935e01b60e21b815233600482015273__$a5a42e46683ad9c79b7b86d5ff60fdf4c1$__906324d7806c90602401602060405180830381865af415801561178a573d6000803e3d6000fd5b505050506040513d601f19601f820116820180604052508101906117ae91906141ec565b6117ca5760405162461bcd60e51b81526004016109c69061420e565b604051632f2ff15d60e01b8152600481018390526001600160a01b038216602482015273__$a5a42e46683ad9c79b7b86d5ff60fdf4c1$__90632f2ff15d906044015b60006040518083038186803b15801561182557600080fd5b505af4158015611839573d6000803e3d6000fd5b505050505050565b61187a6040518060c001604052806060815260200160608152602001606081526020016000815260200160008152602001600081525090565b61188261397d565b6001016040518060c00160405290816000820180546118a090614373565b80601f01602080910402602001604051908101604052809291908181526020018280546118cc90614373565b80156119195780601f106118ee57610100808354040283529160200191611919565b820191906000526020600020905b8154815290600101906020018083116118fc57829003601f168201915b5050505050815260200160018201805461193290614373565b80601f016020809104026020016040519081016040528092919081815260200182805461195e90614373565b80156119ab5780601f10611980576101008083540402835291602001916119ab565b820191906000526020600020905b81548152906001019060200180831161198e57829003601f168201915b505050505081526020016002820180546119c490614373565b80601f01602080910402602001604051908101604052809291908181526020018280546119f090614373565b8015611a3d5780601f10611a1257610100808354040283529160200191611a3d565b820191906000526020600020905b815481529060010190602001808311611a2057829003601f168201915b505050505081526020016003820154815260200160048201548152602001600582015481525050905090565b6000611a7361397d565b546201000090046001600160a01b0316919050565b611a90613953565b611a99336124e6565b611ab55760405162461bcd60e51b81526004016109c6906143ad565b611abd61397d565b5460ff16611add5760405162461bcd60e51b81526004016109c690614243565b611ae561397d565b60000160029054906101000a90046001600160a01b03166001600160a01b03166386b70bed6040518163ffffffff1660e01b8152600401602060405180830381865afa158015611b39573d6000803e3d6000fd5b505050506040513d601f19601f82011682018060405250810190611b5d91906141ec565b611b795760405162461bcd60e51b81526004016109c69061427a565b60405163c3c5a54760e01b81526001600160a01b0384811660048301527f0000000000000000000000000000000000000000000000000000000000000000169063c3c5a54790602401610f54565b611bcf613953565b604051630935e01b60e21b815233600482015273__$a5a42e46683ad9c79b7b86d5ff60fdf4c1$__906324d7806c90602401602060405180830381865af4158015611c1e573d6000803e3d6000fd5b505050506040513d601f19601f82011682018060405250810190611c4291906141ec565b611c5e5760405162461bcd60e51b81526004016109c69061420e565b611c66611a69565b6001600160a01b031663464570b68484846040518463ffffffff1660e01b8152600401611c95939291906145cf565b600060405180830381600087803b158015611caf57600080fd5b505af1158015611cc3573d6000803e3d6000fd5b50505050826001600160a01b03167fc91cc589ef4d878043f7e06130f3d528ea3c4a576304e36f5a59ff581289df7d8383604051611d02929190614576565b60405180910390a26110226001600055565b611d1c613953565b611d25336124e6565b611d415760405162461bcd60e51b81526004016109c6906143ad565b611d4c838383610a38565b611d985760405162461bcd60e51b815260206004820152601a60248201527f436f6d70616e793a2063616e6e6f74206d696e7420617373657400000000000060448201526064016109c6565b6040516340c10f1960e01b81526001600160a01b038381166004830152602482018390528416906340c10f1990604401600060405180830381600087803b158015611de257600080fd5b505af1158015611df6573d6000803e3d6000fd5b505050506110226001600055565b611e0c613953565b604051630935e01b60e21b815233600482015273__$a5a42e46683ad9c79b7b86d5ff60fdf4c1$__906324d7806c90602401602060405180830381865af4158015611e5b573d6000803e3d6000fd5b505050506040513d601f19601f82011682018060405250810190611e7f91906141ec565b611e9b5760405162461bcd60e51b81526004016109c69061420e565b306001600160a01b0316826001600160a01b0316636904c94d6040518163ffffffff1660e01b8152600401602060405180830381865afa158015611ee3573d6000803e3d6000fd5b505050506040513d601f19601f82011682018060405250810190611f07919061431f565b6001600160a01b031614611f2d5760405162461bcd60e51b81526004016109c6906145f4565b6040516337eff0db60e11b81526001600160a01b038281166004830152831690636fdfe1b6906024016109f8565b611f63613953565b604051630935e01b60e21b815233600482015273__$a5a42e46683ad9c79b7b86d5ff60fdf4c1$__906324d7806c90602401602060405180830381865af4158015611fb2573d6000803e3d6000fd5b505050506040513d601f19601f82011682018060405250810190611fd691906141ec565b611ff25760405162461bcd60e51b81526004016109c69061420e565b604051636acd648160e01b81526001600160a01b038281166004830152831690636acd6481906024016109f8565b612028613953565b604051630935e01b60e21b815233600482015273__$a5a42e46683ad9c79b7b86d5ff60fdf4c1$__906324d7806c90602401602060405180830381865af4158015612077573d6000803e3d6000fd5b505050506040513d601f19601f8201168201806040525081019061209b91906141ec565b6120b75760405162461bcd60e51b81526004016109c69061420e565b60405163c3c5a54760e01b81526001600160a01b0384811660048301527f0000000000000000000000000000000000000000000000000000000000000000169063c3c5a54790602401602060405180830381865afa15801561211d573d6000803e3d6000fd5b505050506040513d601f19601f8201168201806040525081019061214191906141ec565b61215d5760405162461bcd60e51b81526004016109c6906142b1565b6000839050806001600160a01b03166386b70bed6040518163ffffffff1660e01b8152600401602060405180830381865afa1580156121a0573d6000803e3d6000fd5b505050506040513d601f19601f820116820180604052508101906121c491906141ec565b6121e05760405162461bcd60e51b81526004016109c6906142e8565b6040516355f804b360e01b81526001600160a01b038216906355f804b390610fe59086908690600401614576565b336001600160a01b037f000000000000000000000000000000000000000000000000000000000000000016146122565760405162461bcd60e51b81526004016109c69061458a565b60208101516001600160a01b03166122a95760405162461bcd60e51b815260206004820152601660248201527521b7b6b830b73c9d1024b73b30b634b21037bbb732b960511b60448201526064016109c6565b60408101516001600160a01b03166122fc5760405162461bcd60e51b815260206004820152601660248201527510dbdb5c185b9e4e88125b9d985b1a59081ddbdc9b1960521b60448201526064016109c6565b8051516123435760405162461bcd60e51b8152602060048201526015602482015274436f6d70616e793a20496e76616c6964206e616d6560581b60448201526064016109c6565b60608101516040516361d9624d60e01b815273__$ad2b23306edd42b5f4873830e307b82d47$__916361d9624d916123849190600190600090600401614642565b60006040518083038186803b15801561239c57600080fd5b505af41580156123b0573d6000803e3d6000fd5b5050505080600001516123c1613a13565b906123cc9082614721565b5060006123d761397d565b805460408401516001600160a01b0316620100000261ff01600160b01b03199091161760019081178255606084015180519293509190830190819061241c9082614721565b50602082015160018201906124319082614721565b50604082015160028201906124469082614721565b50606082015160038201556080820151600482015560a090910151600590910155604080516000815260208082019283905284015163d9ac971f60e01b9092529073__$a5a42e46683ad9c79b7b86d5ff60fdf4c1$__9063d9ac971f906124b19084602481016147e0565b60006040518083038186803b1580156124c957600080fd5b505af41580156124dd573d6000803e3d6000fd5b50505050505050565b604051637df73e2760e01b81526001600160a01b038216600482015260009073__$a5a42e46683ad9c79b7b86d5ff60fdf4c1$__90637df73e279060240161137d565b600061253361397d565b54610100900460ff16919050565b612549613953565b604051630935e01b60e21b815233600482015273__$a5a42e46683ad9c79b7b86d5ff60fdf4c1$__906324d7806c90602401602060405180830381865af4158015612598573d6000803e3d6000fd5b505050506040513d601f19601f820116820180604052508101906125bc91906141ec565b6125d85760405162461bcd60e51b81526004016109c69061420e565b6125e061397d565b5460ff166126005760405162461bcd60e51b81526004016109c690614243565b61260861397d565b60000160029054906101000a90046001600160a01b03166001600160a01b03166386b70bed6040518163ffffffff1660e01b8152600401602060405180830381865afa15801561265c573d6000803e3d6000fd5b505050506040513d601f19601f8201168201806040525081019061268091906141ec565b61269c5760405162461bcd60e51b81526004016109c69061427a565b60405163c3c5a54760e01b81526001600160a01b0384811660048301527f0000000000000000000000000000000000000000000000000000000000000000169063c3c5a547906024015b602060405180830381865afa158015612703573d6000803e3d6000fd5b505050506040513d601f19601f8201168201806040525081019061272791906141ec565b6127435760405162461bcd60e51b81526004016109c6906142b1565b6000839050306001600160a01b0316816001600160a01b0316631d1438486040518163ffffffff1660e01b8152600401602060405180830381865afa158015612790573d6000803e3d6000fd5b505050506040513d601f19601f820116820180604052508101906127b4919061431f565b6001600160a01b0316146127da5760405162461bcd60e51b81526004016109c69061433c565b604051632539464560e01b81526001600160a01b03821690632539464590610fe59086908690600401614576565b336001600160a01b037f000000000000000000000000000000000000000000000000000000000000000016146128505760405162461bcd60e51b81526004016109c69061458a565b61285861397d565b5460ff16156128b85760405162461bcd60e51b815260206004820152602660248201527f52656d6f7661626c65456e746974793a206d757374206465616374697661746560448201526508199a5c9cdd60d21b60648201526084016109c6565b60016128c261397d565b80549115156101000261ff001990921691909117905560405133907fbf430175840309fcb4cce13557429998477f9f95733cb0d42c170af8aa225d06906114de9085908590614576565b600061291661397d565b5460ff16919050565b604051630935e01b60e21b815233600482015273__$a5a42e46683ad9c79b7b86d5ff60fdf4c1$__906324d7806c90602401602060405180830381865af415801561296e573d6000803e3d6000fd5b505050506040513d601f19601f8201168201806040525081019061299291906141ec565b6129ae5760405162461bcd60e51b81526004016109c69061420e565b604051638d361e4360e01b815273__$a5a42e46683ad9c79b7b86d5ff60fdf4c1$__90638d361e439061180d908590859060040161483c565b60006129f1613acc565b905090565b604051632474521560e21b8152600481018390526001600160a01b038216602482015260009073__$a5a42e46683ad9c79b7b86d5ff60fdf4c1$__906391d1485490604401602060405180830381865af4158015612a58573d6000803e3d6000fd5b505050506040513d601f19601f82011682018060405250810190612a7c91906141ec565b9392505050565b612a8b613953565b604051630935e01b60e21b815233600482015273__$a5a42e46683ad9c79b7b86d5ff60fdf4c1$__906324d7806c90602401602060405180830381865af4158015612ada573d6000803e3d6000fd5b505050506040513d601f19601f82011682018060405250810190612afe91906141ec565b612b1a5760405162461bcd60e51b81526004016109c69061420e565b306001600160a01b0316816001600160a01b0316636904c94d6040518163ffffffff1660e01b8152600401602060405180830381865afa158015612b62573d6000803e3d6000fd5b505050506040513d601f19601f82011682018060405250810190612b86919061431f565b6001600160a01b031614612bac5760405162461bcd60e51b81526004016109c6906145f4565b806001600160a01b03166358779dcf6040518163ffffffff1660e01b8152600401600060405180830381600087803b1580156115bc57600080fd5b33612bf0613acc565b6001600160a01b031614612c165760405162461bcd60e51b81526004016109c690614516565b6040516313af403560e01b81526001600160a01b038216600482015273__$a5a42e46683ad9c79b7b86d5ff60fdf4c1$__906313af40359060240160006040518083038186803b158015612c6957600080fd5b505af4158015612c7d573d6000803e3d6000fd5b5050505050565b612c8c613953565b604051630935e01b60e21b815233600482015273__$a5a42e46683ad9c79b7b86d5ff60fdf4c1$__906324d7806c90602401602060405180830381865af4158015612cdb573d6000803e3d6000fd5b505050506040513d601f19601f82011682018060405250810190612cff91906141ec565b612d1b5760405162461bcd60e51b81526004016109c69061420e565b612d2361397d565b5460ff16612d435760405162461bcd60e51b81526004016109c690614243565b612d4b61397d565b60000160029054906101000a90046001600160a01b03166001600160a01b03166386b70bed6040518163ffffffff1660e01b8152600401602060405180830381865afa158015612d9f573d6000803e3d6000fd5b505050506040513d601f19601f82011682018060405250810190612dc391906141ec565b612ddf5760405162461bcd60e51b81526004016109c69061427a565b60405163c3c5a54760e01b81526001600160a01b0384811660048301527f0000000000000000000000000000000000000000000000000000000000000000169063c3c5a547906024016126e6565b336001600160a01b037f00000000000000000000000000000000000000000000000000000000000000001614612e755760405162461bcd60e51b81526004016109c69061458a565b6001612e7f61397d565b805460ff191691151591909117905560405133907f54ca6a4cb143be493713a7079cc0d6cdbbf0688ee68398b4354b056088f2cbf590600090a2565b604051630935e01b60e21b815233600482015273__$a5a42e46683ad9c79b7b86d5ff60fdf4c1$__906324d7806c90602401602060405180830381865af4158015612f0a573d6000803e3d6000fd5b505050506040513d601f19601f82011682018060405250810190612f2e91906141ec565b612f4a5760405162461bcd60e51b81526004016109c69061420e565b60405163d547741f60e01b8152600481018390526001600160a01b038216602482015273__$a5a42e46683ad9c79b7b86d5ff60fdf4c1$__9063d547741f9060440161180d565b612f99613953565b604051630935e01b60e21b815233600482015273__$a5a42e46683ad9c79b7b86d5ff60fdf4c1$__906324d7806c90602401602060405180830381865af4158015612fe8573d6000803e3d6000fd5b505050506040513d601f19601f8201168201806040525081019061300c91906141ec565b6130285760405162461bcd60e51b81526004016109c69061420e565b613030611a69565b604051636c0154d160e11b81526001600160a01b038381166004830152919091169063d802a9a290602401600060405180830381600087803b15801561307557600080fd5b505af1158015613089573d6000803e3d6000fd5b50506040516001600160a01b03841692507fd7e0376b54023f1e8815a6ea5ec645b5f27e7d78eb66542e2ace843add91d17a9150600090a26111826001600055565b6130d3613953565b604051630935e01b60e21b815233600482015273__$a5a42e46683ad9c79b7b86d5ff60fdf4c1$__906324d7806c90602401602060405180830381865af4158015613122573d6000803e3d6000fd5b505050506040513d601f19601f8201168201806040525081019061314691906141ec565b6131625760405162461bcd60e51b81526004016109c69061420e565b61316a61397d565b5460ff1661318a5760405162461bcd60e51b81526004016109c690614243565b61319261397d565b60000160029054906101000a90046001600160a01b03166001600160a01b03166386b70bed6040518163ffffffff1660e01b8152600401602060405180830381865afa1580156131e6573d6000803e3d6000fd5b505050506040513d601f19601f8201168201806040525081019061320a91906141ec565b6132265760405162461bcd60e51b81526004016109c69061427a565b60405163c3c5a54760e01b81526001600160a01b0384811660048301527f0000000000000000000000000000000000000000000000000000000000000000169063c3c5a54790602401602060405180830381865afa15801561328c573d6000803e3d6000fd5b505050506040513d601f19601f820116820180604052508101906132b091906141ec565b6133075760405162461bcd60e51b815260206004820152602260248201527f436f6d70616e793a20457870657269656e6365206e6f74207265676973746572604482015261195960f21b60648201526084016109c6565b6000839050306001600160a01b0316816001600160a01b0316636904c94d6040518163ffffffff1660e01b8152600401602060405180830381865afa158015613354573d6000803e3d6000fd5b505050506040513d601f19601f82011682018060405250810190613378919061431f565b6001600160a01b0316146127da5760405162461bcd60e51b81526004016109c6906145f4565b336001600160a01b037f00000000000000000000000000000000000000000000000000000000000000001614610a345760405162461bcd60e51b81526004016109c69061458a565b604051630935e01b60e21b815233600482015273__$a5a42e46683ad9c79b7b86d5ff60fdf4c1$__906324d7806c90602401602060405180830381865af4158015613435573d6000803e3d6000fd5b505050506040513d601f19601f8201168201806040525081019061345991906141ec565b6134755760405162461bcd60e51b81526004016109c69061420e565b60405163e8906a2d60e01b815273__$a5a42e46683ad9c79b7b86d5ff60fdf4c1$__9063e8906a2d9061180d908590859060040161483c565b60006134b861397d565b5460ff166134d85760405162461bcd60e51b81526004016109c690614243565b6134e061397d565b60000160029054906101000a90046001600160a01b03166001600160a01b03166386b70bed6040518163ffffffff1660e01b8152600401602060405180830381865afa158015613534573d6000803e3d6000fd5b505050506040513d601f19601f8201168201806040525081019061355891906141ec565b6135745760405162461bcd60e51b81526004016109c69061427a565b60405163c3c5a54760e01b81526001600160a01b0384811660048301527f0000000000000000000000000000000000000000000000000000000000000000169063c3c5a54790602401602060405180830381865afa1580156135da573d6000803e3d6000fd5b505050506040513d601f19601f820116820180604052508101906135fe91906141ec565b61361a5760405162461bcd60e51b81526004016109c6906142b1565b6000839050806001600160a01b03166386b70bed6040518163ffffffff1660e01b8152600401602060405180830381865afa15801561365d573d6000803e3d6000fd5b505050506040513d601f19601f8201168201806040525081019061368191906141ec565b61369d5760405162461bcd60e51b81526004016109c6906142e8565b306001600160a01b0316816001600160a01b0316631d1438486040518163ffffffff1660e01b8152600401602060405180830381865afa1580156136e5573d6000803e3d6000fd5b505050506040513d601f19601f82011682018060405250810190613709919061431f565b6001600160a01b03161461372f5760405162461bcd60e51b81526004016109c69061433c565b6040516330ae91d160e21b81526001600160a01b03848116600483015282169063c2ba474490602401602060405180830381865afa158015613775573d6000803e3d6000fd5b505050506040513d601f19601f8201168201806040525081019061379991906141ec565b6137e55760405162461bcd60e51b815260206004820152601f60248201527f436f6d70616e793a2063616e6e6f74206d696e7420746f20616464726573730060448201526064016109c6565b5060019392505050565b6137f7613953565b604051630935e01b60e21b815233600482015273__$a5a42e46683ad9c79b7b86d5ff60fdf4c1$__906324d7806c90602401602060405180830381865af4158015613846573d6000803e3d6000fd5b505050506040513d601f19601f8201168201806040525081019061386a91906141ec565b6138865760405162461bcd60e51b81526004016109c69061420e565b6000613890611a69565b6001600160a01b031663fcc111848585856040518463ffffffff1660e01b81526004016138bf939291906145cf565b6020604051808303816000875af11580156138de573d6000803e3d6000fd5b505050506040513d601f19601f82011682018060405250810190613902919061488a565b905080846001600160a01b03167f70b2ea755cbec8f93041a2abb839b4f9a525a06fd1a4453d1f2f1e30da3a016b8585604051613940929190614576565b60405180910390a3506110226001600055565b60026000540361397657604051633ee5aeb560e01b815260040160405180910390fd5b6002600055565b60408051808201909152601881527f78722e61637469766174696f6e2e73746f726167652e7631000000000000000060209091015260008060ff6139e260017ff6611e962a52dbc98dd0485088d920890c43e26113c61976f6e171a29d49ce496148a3565b6040516020016139f491815260200190565b60408051601f1981840301815291905280516020909101201692915050565b60408051808201909152601481527378722e656e746974792e73746f726167652e763160601b60209091015260008060ff6139e260017fdefc82a28b6578c2a63b29b15450260a5e998242a6300b7fcb30814ee74ae1886148a3565b60408051808201909152601581527478722e636f6d70616e792e73746f726167652e763160581b60209091015260008060ff6139e260017fb15f88c380b1fa3feb414afd39103c83bfc20f8be60af2ce4a47137881ead4826148a3565b600080613ad7613ae7565b546001600160a01b031692915050565b60408051808201909152601481527378722e6163636573732e73746f726167652e763160601b60209091015260008060ff6139e260017fd870894b15ee1369a593f3670ac51c4ed8201dab473944ee712694d327dd58756148a3565b6001600160a01b038116811461118257600080fd5b8035613b6381613b43565b919050565b60008060408385031215613b7b57600080fd5b8235613b8681613b43565b946020939093013593505050565b600080600060608486031215613ba957600080fd5b8335613bb481613b43565b92506020840135613bc481613b43565b929592945050506040919091013590565b6000815180845260005b81811015613bfb57602081850181015186830182015201613bdf565b506000602082860101526020601f19601f83011685010191505092915050565b602081526000612a7c6020830184613bd5565b600060208284031215613c4057600080fd5b81356001600160401b03811115613c5657600080fd5b820160808185031215612a7c57600080fd5b634e487b7160e01b600052604160045260246000fd5b60405160c081016001600160401b0381118282101715613ca057613ca0613c68565b60405290565b60405160a081016001600160401b0381118282101715613ca057613ca0613c68565b600082601f830112613cd957600080fd5b81356001600160401b0380821115613cf357613cf3613c68565b604051601f8301601f19908116603f01168101908282118183101715613d1b57613d1b613c68565b81604052838152866020858801011115613d3457600080fd5b836020870160208301376000602085830101528094505050505092915050565b600060208284031215613d6657600080fd5b81356001600160401b0380821115613d7d57600080fd5b9083019060408286031215613d9157600080fd5b604051604081018181108382111715613dac57613dac613c68565b604052823582811115613dbe57600080fd5b613dca87828601613cc8565b825250602083013582811115613ddf57600080fd5b613deb87828601613cc8565b60208301525095945050505050565b600060208284031215613e0c57600080fd5b8135612a7c81613b43565b60008083601f840112613e2957600080fd5b5081356001600160401b03811115613e4057600080fd5b602083019150836020828501011115613e5857600080fd5b9250929050565b60008060208385031215613e7257600080fd5b82356001600160401b03811115613e8857600080fd5b613e9485828601613e17565b90969095509350505050565b60008060408385031215613eb357600080fd5b8235613ebe81613b43565b91506020830135613ece81613b43565b809150509250929050565b600060208284031215613eeb57600080fd5b5035919050565b60008060408385031215613f0557600080fd5b823591506020830135613ece81613b43565b6000815160c08452613f2c60c0850182613bd5565b905060208301518482036020860152613f458282613bd5565b91505060408301518482036040860152613f5f8282613bd5565b915050606083015160608501526080830151608085015260a083015160a08501528091505092915050565b602081526000612a7c6020830184613f17565b600080600060408486031215613fb257600080fd5b8335613fbd81613b43565b925060208401356001600160401b03811115613fd857600080fd5b613fe486828701613e17565b9497909650939450505050565b600060c0828403121561400357600080fd5b61400b613c7e565b905081356001600160401b038082111561402457600080fd5b61403085838601613cc8565b8352602084013591508082111561404657600080fd5b61405285838601613cc8565b6020840152604084013591508082111561406b57600080fd5b5061407884828501613cc8565b604083015250606082013560608201526080820135608082015260a082013560a082015292915050565b6000602082840312156140b457600080fd5b81356001600160401b03808211156140cb57600080fd5b9083019060a082860312156140df57600080fd5b6140e7613ca6565b8235828111156140f657600080fd5b61410287828601613cc8565b82525061411160208401613b58565b602082015261412260408401613b58565b604082015260608301358281111561413957600080fd5b61414587828601613ff1565b60608301525060808301358281111561415d57600080fd5b61416987828601613cc8565b60808301525095945050505050565b6000806020838503121561418b57600080fd5b82356001600160401b03808211156141a257600080fd5b818501915085601f8301126141b657600080fd5b8135818111156141c557600080fd5b8660208260051b85010111156141da57600080fd5b60209290920196919550909350505050565b6000602082840312156141fe57600080fd5b81518015158114612a7c57600080fd5b6020808252818101527f426173654163636573733a207265737472696374656420746f2061646d696e73604082015260600190565b6020808252601e908201527f436f6d70616e793a20436f6d70616e79206973206e6f74206163746976650000604082015260600190565b6020808252601c908201527f436f6d70616e793a20576f726c64206973206e6f742061637469766500000000604082015260600190565b6020808252601d908201527f436f6d70616e793a206173736574206e6f742072656769737465726564000000604082015260600190565b60208082526019908201527f436f6d70616e793a206173736574206e6f742061637469766500000000000000604082015260600190565b60006020828403121561433157600080fd5b8151612a7c81613b43565b6020808252601c908201527f436f6d70616e793a206e6f7420697373756572206f6620617373657400000000604082015260600190565b600181811c9082168061438757607f821691505b6020821081036143a757634e487b7160e01b600052602260045260246000fd5b50919050565b602080825260149082015273456e746974793a206f6e6c79207369676e65727360601b604082015260600190565b6000808335601e198436030181126143f257600080fd5b8301803591506001600160401b0382111561440c57600080fd5b602001915036819003821315613e5857600080fd5b602081528151602082015260208201516040820152600060408301516060808401526144506080840182613bd5565b949350505050565b634e487b7160e01b600052601160045260246000fd5b60006001820161448057614480614458565b5060010190565b6020815260008251606060208401526144a36080840182613f17565b90506020840151601f19808584030160408601526144c18383613bd5565b92506040860151915080858403016060860152506144df8282613bd5565b95945050505050565b600080604083850312156144fb57600080fd5b825161450681613b43565b6020939093015192949293505050565b6020808252601f908201527f426173654163636573733a207265737472696374656420746f206f776e657200604082015260600190565b81835281816020850137506000828201602090810191909152601f909101601f19169091010190565b60208152600061445060208301848661454d565b60208082526025908201527f52656d6f7661626c65456e746974793a206f6e6c79206f776e696e6720726567604082015264697374727960d81b606082015260800190565b6001600160a01b03841681526040602082018190526000906144df908301848661454d565b6020808252602e908201527f436f6d70616e793a20457870657269656e636520646f6573206e6f742062656c60408201526d6f6e6720746f20636f6d70616e7960901b606082015260800190565b606081526000845160c0606084015261465f610120840182613bd5565b90506020860151605f198085840301608086015261467d8383613bd5565b925060408801519150808584030160a08601525061469b8282613bd5565b606088015160c0860152608088015160e086015260a0880151610100860152861515602086015292506146cc915050565b8215156040830152614450565b601f821115611022576000816000526020600020601f850160051c810160208610156147025750805b601f850160051c820191505b818110156118395782815560010161470e565b81516001600160401b0381111561473a5761473a613c68565b61474e816147488454614373565b846146d9565b602080601f831160018114614783576000841561476b5750858301515b600019600386901b1c1916600185901b178555611839565b600085815260208120601f198616915b828110156147b257888601518255948401946001909101908401614793565b50858210156147d05787850151600019600388901b60f8161c191681555b5050505050600190811b01905550565b6001600160a01b038381168252604060208084018290528451918401829052600092858201929091906060860190855b8181101561482e578551851683529483019491830191600101614810565b509098975050505050505050565b60208082528181018390526000908460408401835b8681101561487f57823561486481613b43565b6001600160a01b031682529183019190830190600101614851565b509695505050505050565b60006020828403121561489c57600080fd5b5051919050565b818103818111156113be576113be61445856fea2646970667358221220a341755038842050c7dbddcfb9bcc0b35258eae42ec97d922bf2c0dbc8577dfb64736f6c63430008180033",
  "linkReferences": {
    "contracts/libraries/LibAccess.sol": {
      "LibAccess": [
        {
          "length": 20,
          "start": 3347
        },
        {
          "length": 20,
          "start": 5484
        },
        {
          "length": 20,
          "start": 5926
        },
        {
          "length": 20,
          "start": 6350
        },
        {
          "length": 20,
          "start": 6935
        },
        {
          "length": 20,
          "start": 7094
        },
        {
          "length": 20,
          "start": 8107
        },
        {
          "length": 20,
          "start": 8680
        },
        {
          "length": 20,
          "start": 9023
        },
        {
          "length": 20,
          "start": 9220
        },
        {
          "length": 20,
          "start": 10320
        },
        {
          "length": 20,
          "start": 10446
        },
        {
          "length": 20,
          "start": 10533
        },
        {
          "length": 20,
          "start": 11515
        },
        {
          "length": 20,
          "start": 11652
        },
        {
          "length": 20,
          "start": 11749
        },
        {
          "length": 20,
          "start": 11879
        },
        {
          "length": 20,
          "start": 12283
        },
        {
          "length": 20,
          "start": 12392
        },
        {
          "length": 20,
          "start": 12951
        },
        {
          "length": 20,
          "start": 13110
        },
        {
          "length": 20,
          "start": 13173
        },
        {
          "length": 20,
          "start": 13487
        },
        {
          "length": 20,
          "start": 14274
        },
        {
          "length": 20,
          "start": 14411
        },
        {
          "length": 20,
          "start": 15315
        }
      ]
    },
    "contracts/libraries/LibVectorAddress.sol": {
      "LibVectorAddress": [
        {
          "length": 20,
          "start": 10014
        }
      ]
    }
  },
  "deployedLinkReferences": {
    "contracts/libraries/LibAccess.sol": {
      "LibAccess": [
        {
          "length": 20,
          "start": 2380
        },
        {
          "length": 20,
          "start": 4517
        },
        {
          "length": 20,
          "start": 4959
        },
        {
          "length": 20,
          "start": 5383
        },
        {
          "length": 20,
          "start": 5968
        },
        {
          "length": 20,
          "start": 6127
        },
        {
          "length": 20,
          "start": 7140
        },
        {
          "length": 20,
          "start": 7713
        },
        {
          "length": 20,
          "start": 8056
        },
        {
          "length": 20,
          "start": 8253
        },
        {
          "length": 20,
          "start": 9353
        },
        {
          "length": 20,
          "start": 9479
        },
        {
          "length": 20,
          "start": 9566
        },
        {
          "length": 20,
          "start": 10548
        },
        {
          "length": 20,
          "start": 10685
        },
        {
          "length": 20,
          "start": 10782
        },
        {
          "length": 20,
          "start": 10912
        },
        {
          "length": 20,
          "start": 11316
        },
        {
          "length": 20,
          "start": 11425
        },
        {
          "length": 20,
          "start": 11984
        },
        {
          "length": 20,
          "start": 12143
        },
        {
          "length": 20,
          "start": 12206
        },
        {
          "length": 20,
          "start": 12520
        },
        {
          "length": 20,
          "start": 13307
        },
        {
          "length": 20,
          "start": 13444
        },
        {
          "length": 20,
          "start": 14348
        }
      ]
    },
    "contracts/libraries/LibVectorAddress.sol": {
      "LibVectorAddress": [
        {
          "length": 20,
          "start": 9047
        }
      ]
    }
  }
}