{
  "_format": "hh-sol-artifact-1",
  "contractName": "ExperienceRegistry",
  "sourceName": "contracts/experience/registry/ExperienceRegistry.sol",
  "abi": [
    {
      "inputs": [
        {
          "components": [
            {
              "internalType": "address",
              "name": "companyRegistry",
              "type": "address"
            },
            {
              "internalType": "address",
              "name": "worldRegistry",
              "type": "address"
            }
          ],
          "internalType": "struct ExperienceRegistryConstructorArgs",
          "name": "args",
          "type": "tuple"
        }
      ],
      "stateMutability": "nonpayable",
      "type": "constructor"
    },
    {
      "inputs": [],
      "name": "ReentrancyGuardReentrantCall",
      "type": "error"
    },
    {
      "anonymous": false,
      "inputs": [
        {
          "indexed": true,
          "internalType": "address",
          "name": "entity",
          "type": "address"
        },
        {
          "indexed": true,
          "internalType": "address",
          "name": "by",
          "type": "address"
        }
      ],
      "name": "EntityRegistrationRenewed",
      "type": "event"
    },
    {
      "anonymous": false,
      "inputs": [
        {
          "indexed": true,
          "internalType": "address",
          "name": "owner",
          "type": "address"
        },
        {
          "indexed": true,
          "internalType": "address",
          "name": "newOwner",
          "type": "address"
        }
      ],
      "name": "OwnerChanged",
      "type": "event"
    },
    {
      "anonymous": false,
      "inputs": [
        {
          "indexed": true,
          "internalType": "address",
          "name": "world",
          "type": "address"
        },
        {
          "indexed": false,
          "internalType": "string",
          "name": "reason",
          "type": "string"
        }
      ],
      "name": "RegistrarDeactivatedWorld",
      "type": "event"
    },
    {
      "anonymous": false,
      "inputs": [
        {
          "indexed": true,
          "internalType": "address",
          "name": "world",
          "type": "address"
        }
      ],
      "name": "RegistrarReactivatedWorld",
      "type": "event"
    },
    {
      "anonymous": false,
      "inputs": [
        {
          "indexed": true,
          "internalType": "address",
          "name": "world",
          "type": "address"
        },
        {
          "indexed": false,
          "internalType": "string",
          "name": "reason",
          "type": "string"
        }
      ],
      "name": "RegistrarRemovedWorld",
      "type": "event"
    },
    {
      "anonymous": false,
      "inputs": [
        {
          "indexed": true,
          "internalType": "address",
          "name": "entity",
          "type": "address"
        },
        {
          "indexed": true,
          "internalType": "address",
          "name": "owner",
          "type": "address"
        }
      ],
      "name": "RegistryAddedEntity",
      "type": "event"
    },
    {
      "anonymous": false,
      "inputs": [
        {
          "indexed": true,
          "internalType": "address",
          "name": "entity",
          "type": "address"
        },
        {
          "indexed": false,
          "internalType": "string",
          "name": "reason",
          "type": "string"
        }
      ],
      "name": "RegistryDeactivatedEntity",
      "type": "event"
    },
    {
      "anonymous": false,
      "inputs": [
        {
          "indexed": true,
          "internalType": "address",
          "name": "entity",
          "type": "address"
        },
        {
          "indexed": true,
          "internalType": "address",
          "name": "newImplementation",
          "type": "address"
        }
      ],
      "name": "RegistryDowngradedEntity",
      "type": "event"
    },
    {
      "anonymous": false,
      "inputs": [
        {
          "indexed": true,
          "internalType": "address",
          "name": "entity",
          "type": "address"
        }
      ],
      "name": "RegistryEnforcedDeactivation",
      "type": "event"
    },
    {
      "anonymous": false,
      "inputs": [
        {
          "indexed": true,
          "internalType": "address",
          "name": "entity",
          "type": "address"
        }
      ],
      "name": "RegistryEnforcedRemoval",
      "type": "event"
    },
    {
      "anonymous": false,
      "inputs": [
        {
          "indexed": true,
          "internalType": "address",
          "name": "implementation",
          "type": "address"
        }
      ],
      "name": "RegistryEntityImplementationSet",
      "type": "event"
    },
    {
      "anonymous": false,
      "inputs": [
        {
          "indexed": true,
          "internalType": "address",
          "name": "implementation",
          "type": "address"
        }
      ],
      "name": "RegistryProxyImplementationSet",
      "type": "event"
    },
    {
      "anonymous": false,
      "inputs": [
        {
          "indexed": true,
          "internalType": "address",
          "name": "entity",
          "type": "address"
        }
      ],
      "name": "RegistryReactivatedEntity",
      "type": "event"
    },
    {
      "anonymous": false,
      "inputs": [
        {
          "indexed": true,
          "internalType": "address",
          "name": "entity",
          "type": "address"
        },
        {
          "indexed": false,
          "internalType": "string",
          "name": "reason",
          "type": "string"
        }
      ],
      "name": "RegistryRemovedEntity",
      "type": "event"
    },
    {
      "anonymous": false,
      "inputs": [
        {
          "indexed": true,
          "internalType": "address",
          "name": "entity",
          "type": "address"
        },
        {
          "indexed": true,
          "internalType": "address",
          "name": "newImplementation",
          "type": "address"
        }
      ],
      "name": "RegistryUpgradedEntity",
      "type": "event"
    },
    {
      "anonymous": false,
      "inputs": [
        {
          "indexed": true,
          "internalType": "bytes32",
          "name": "role",
          "type": "bytes32"
        },
        {
          "indexed": true,
          "internalType": "address",
          "name": "account",
          "type": "address"
        },
        {
          "indexed": true,
          "internalType": "bool",
          "name": "grant",
          "type": "bool"
        }
      ],
      "name": "RoleChanged",
      "type": "event"
    },
    {
      "anonymous": false,
      "inputs": [
        {
          "indexed": false,
          "internalType": "address",
          "name": "signer",
          "type": "address"
        },
        {
          "indexed": false,
          "internalType": "bool",
          "name": "grant",
          "type": "bool"
        }
      ],
      "name": "SignerChanged",
      "type": "event"
    },
    {
      "inputs": [
        {
          "internalType": "address[]",
          "name": "signers",
          "type": "address[]"
        }
      ],
      "name": "addSigners",
      "outputs": [],
      "stateMutability": "nonpayable",
      "type": "function"
    },
    {
      "inputs": [
        {
          "internalType": "address",
          "name": "addr",
          "type": "address"
        }
      ],
      "name": "canBeDeactivated",
      "outputs": [
        {
          "internalType": "bool",
          "name": "",
          "type": "bool"
        }
      ],
      "stateMutability": "view",
      "type": "function"
    },
    {
      "inputs": [
        {
          "internalType": "address",
          "name": "addr",
          "type": "address"
        }
      ],
      "name": "canBeRemoved",
      "outputs": [
        {
          "internalType": "bool",
          "name": "",
          "type": "bool"
        }
      ],
      "stateMutability": "view",
      "type": "function"
    },
    {
      "inputs": [
        {
          "components": [
            {
              "internalType": "address",
              "name": "entity",
              "type": "address"
            },
            {
              "internalType": "bytes",
              "name": "entitySignature",
              "type": "bytes"
            },
            {
              "internalType": "uint256",
              "name": "expiration",
              "type": "uint256"
            },
            {
              "components": [
                {
                  "internalType": "uint16",
                  "name": "coveragePeriodDays",
                  "type": "uint16"
                },
                {
                  "internalType": "uint16",
                  "name": "gracePeriodDays",
                  "type": "uint16"
                },
                {
                  "internalType": "uint256",
                  "name": "fee",
                  "type": "uint256"
                }
              ],
              "internalType": "struct RegistrationTerms",
              "name": "terms",
              "type": "tuple"
            }
          ],
          "internalType": "struct ChangeEntityTermsArgs",
          "name": "args",
          "type": "tuple"
        }
      ],
      "name": "changeEntityTerms",
      "outputs": [],
      "stateMutability": "nonpayable",
      "type": "function"
    },
    {
      "inputs": [
        {
          "internalType": "address",
          "name": "newOwner",
          "type": "address"
        }
      ],
      "name": "changeOwner",
      "outputs": [],
      "stateMutability": "nonpayable",
      "type": "function"
    },
    {
      "inputs": [],
      "name": "companyRegistry",
      "outputs": [
        {
          "internalType": "contract ICompanyRegistry",
          "name": "",
          "type": "address"
        }
      ],
      "stateMutability": "view",
      "type": "function"
    },
    {
      "inputs": [
        {
          "components": [
            {
              "internalType": "address",
              "name": "company",
              "type": "address"
            },
            {
              "internalType": "string",
              "name": "name",
              "type": "string"
            },
            {
              "components": [
                {
                  "internalType": "string",
                  "name": "x",
                  "type": "string"
                },
                {
                  "internalType": "string",
                  "name": "y",
                  "type": "string"
                },
                {
                  "internalType": "string",
                  "name": "z",
                  "type": "string"
                },
                {
                  "internalType": "uint256",
                  "name": "t",
                  "type": "uint256"
                },
                {
                  "internalType": "uint256",
                  "name": "p",
                  "type": "uint256"
                },
                {
                  "internalType": "uint256",
                  "name": "p_sub",
                  "type": "uint256"
                }
              ],
              "internalType": "struct VectorAddress",
              "name": "vector",
              "type": "tuple"
            },
            {
              "internalType": "bytes",
              "name": "initData",
              "type": "bytes"
            }
          ],
          "internalType": "struct CreateExperienceArgs",
          "name": "args",
          "type": "tuple"
        }
      ],
      "name": "createExperience",
      "outputs": [
        {
          "internalType": "address",
          "name": "proxy",
          "type": "address"
        },
        {
          "internalType": "uint256",
          "name": "portalId",
          "type": "uint256"
        }
      ],
      "stateMutability": "nonpayable",
      "type": "function"
    },
    {
      "inputs": [
        {
          "internalType": "contract IRemovableEntity",
          "name": "entity",
          "type": "address"
        },
        {
          "internalType": "string",
          "name": "reason",
          "type": "string"
        }
      ],
      "name": "deactivateEntity",
      "outputs": [],
      "stateMutability": "nonpayable",
      "type": "function"
    },
    {
      "inputs": [
        {
          "internalType": "address",
          "name": "company",
          "type": "address"
        },
        {
          "internalType": "address",
          "name": "exp",
          "type": "address"
        },
        {
          "internalType": "string",
          "name": "reason",
          "type": "string"
        }
      ],
      "name": "deactivateExperience",
      "outputs": [],
      "stateMutability": "nonpayable",
      "type": "function"
    },
    {
      "inputs": [
        {
          "internalType": "bytes",
          "name": "initData",
          "type": "bytes"
        }
      ],
      "name": "downgradeEntity",
      "outputs": [],
      "stateMutability": "nonpayable",
      "type": "function"
    },
    {
      "inputs": [
        {
          "internalType": "contract IRemovableEntity",
          "name": "addr",
          "type": "address"
        }
      ],
      "name": "enforceDeactivation",
      "outputs": [],
      "stateMutability": "nonpayable",
      "type": "function"
    },
    {
      "inputs": [
        {
          "internalType": "contract IRemovableEntity",
          "name": "e",
          "type": "address"
        }
      ],
      "name": "enforceRemoval",
      "outputs": [],
      "stateMutability": "nonpayable",
      "type": "function"
    },
    {
      "inputs": [
        {
          "internalType": "string",
          "name": "name",
          "type": "string"
        }
      ],
      "name": "getEntityByName",
      "outputs": [
        {
          "internalType": "address",
          "name": "",
          "type": "address"
        }
      ],
      "stateMutability": "view",
      "type": "function"
    },
    {
      "inputs": [
        {
          "components": [
            {
              "internalType": "string",
              "name": "x",
              "type": "string"
            },
            {
              "internalType": "string",
              "name": "y",
              "type": "string"
            },
            {
              "internalType": "string",
              "name": "z",
              "type": "string"
            },
            {
              "internalType": "uint256",
              "name": "t",
              "type": "uint256"
            },
            {
              "internalType": "uint256",
              "name": "p",
              "type": "uint256"
            },
            {
              "internalType": "uint256",
              "name": "p_sub",
              "type": "uint256"
            }
          ],
          "internalType": "struct VectorAddress",
          "name": "vector",
          "type": "tuple"
        }
      ],
      "name": "getEntityByVector",
      "outputs": [
        {
          "internalType": "address",
          "name": "",
          "type": "address"
        }
      ],
      "stateMutability": "view",
      "type": "function"
    },
    {
      "inputs": [],
      "name": "getEntityImplementation",
      "outputs": [
        {
          "internalType": "address",
          "name": "",
          "type": "address"
        }
      ],
      "stateMutability": "view",
      "type": "function"
    },
    {
      "inputs": [
        {
          "internalType": "address",
          "name": "addr",
          "type": "address"
        }
      ],
      "name": "getEntityTerms",
      "outputs": [
        {
          "components": [
            {
              "internalType": "uint16",
              "name": "coveragePeriodDays",
              "type": "uint16"
            },
            {
              "internalType": "uint16",
              "name": "gracePeriodDays",
              "type": "uint16"
            },
            {
              "internalType": "uint256",
              "name": "fee",
              "type": "uint256"
            }
          ],
          "internalType": "struct RegistrationTerms",
          "name": "",
          "type": "tuple"
        }
      ],
      "stateMutability": "view",
      "type": "function"
    },
    {
      "inputs": [],
      "name": "getEntityVersion",
      "outputs": [
        {
          "components": [
            {
              "internalType": "uint16",
              "name": "major",
              "type": "uint16"
            },
            {
              "internalType": "uint16",
              "name": "minor",
              "type": "uint16"
            }
          ],
          "internalType": "struct Version",
          "name": "",
          "type": "tuple"
        }
      ],
      "stateMutability": "view",
      "type": "function"
    },
    {
      "inputs": [
        {
          "internalType": "address",
          "name": "addr",
          "type": "address"
        }
      ],
      "name": "getExpiration",
      "outputs": [
        {
          "internalType": "uint256",
          "name": "",
          "type": "uint256"
        }
      ],
      "stateMutability": "view",
      "type": "function"
    },
    {
      "inputs": [
        {
          "internalType": "address",
          "name": "addr",
          "type": "address"
        }
      ],
      "name": "getLastRenewal",
      "outputs": [
        {
          "internalType": "uint256",
          "name": "",
          "type": "uint256"
        }
      ],
      "stateMutability": "view",
      "type": "function"
    },
    {
      "inputs": [],
      "name": "getProxyImplementation",
      "outputs": [
        {
          "internalType": "address",
          "name": "",
          "type": "address"
        }
      ],
      "stateMutability": "view",
      "type": "function"
    },
    {
      "inputs": [
        {
          "internalType": "bytes32",
          "name": "role",
          "type": "bytes32"
        },
        {
          "internalType": "address",
          "name": "account",
          "type": "address"
        }
      ],
      "name": "grantRole",
      "outputs": [],
      "stateMutability": "nonpayable",
      "type": "function"
    },
    {
      "inputs": [
        {
          "internalType": "bytes32",
          "name": "role",
          "type": "bytes32"
        },
        {
          "internalType": "address",
          "name": "account",
          "type": "address"
        }
      ],
      "name": "hasRole",
      "outputs": [
        {
          "internalType": "bool",
          "name": "",
          "type": "bool"
        }
      ],
      "stateMutability": "view",
      "type": "function"
    },
    {
      "inputs": [
        {
          "internalType": "address",
          "name": "account",
          "type": "address"
        }
      ],
      "name": "isAdmin",
      "outputs": [
        {
          "internalType": "bool",
          "name": "",
          "type": "bool"
        }
      ],
      "stateMutability": "view",
      "type": "function"
    },
    {
      "inputs": [
        {
          "internalType": "address",
          "name": "addr",
          "type": "address"
        }
      ],
      "name": "isExpired",
      "outputs": [
        {
          "internalType": "bool",
          "name": "",
          "type": "bool"
        }
      ],
      "stateMutability": "view",
      "type": "function"
    },
    {
      "inputs": [
        {
          "internalType": "address",
          "name": "addr",
          "type": "address"
        }
      ],
      "name": "isInGracePeriod",
      "outputs": [
        {
          "internalType": "bool",
          "name": "",
          "type": "bool"
        }
      ],
      "stateMutability": "view",
      "type": "function"
    },
    {
      "inputs": [
        {
          "internalType": "address",
          "name": "addr",
          "type": "address"
        }
      ],
      "name": "isRegistered",
      "outputs": [
        {
          "internalType": "bool",
          "name": "",
          "type": "bool"
        }
      ],
      "stateMutability": "view",
      "type": "function"
    },
    {
      "inputs": [
        {
          "internalType": "address",
          "name": "account",
          "type": "address"
        }
      ],
      "name": "isSigner",
      "outputs": [
        {
          "internalType": "bool",
          "name": "",
          "type": "bool"
        }
      ],
      "stateMutability": "view",
      "type": "function"
    },
    {
      "inputs": [],
      "name": "owner",
      "outputs": [
        {
          "internalType": "address",
          "name": "",
          "type": "address"
        }
      ],
      "stateMutability": "view",
      "type": "function"
    },
    {
      "inputs": [
        {
          "internalType": "contract IRemovableEntity",
          "name": "entity",
          "type": "address"
        }
      ],
      "name": "reactivateEntity",
      "outputs": [],
      "stateMutability": "nonpayable",
      "type": "function"
    },
    {
      "inputs": [
        {
          "internalType": "address",
          "name": "company",
          "type": "address"
        },
        {
          "internalType": "address",
          "name": "exp",
          "type": "address"
        }
      ],
      "name": "reactivateExperience",
      "outputs": [],
      "stateMutability": "nonpayable",
      "type": "function"
    },
    {
      "inputs": [
        {
          "internalType": "contract IRemovableEntity",
          "name": "entity",
          "type": "address"
        },
        {
          "internalType": "string",
          "name": "reason",
          "type": "string"
        }
      ],
      "name": "removeEntity",
      "outputs": [],
      "stateMutability": "nonpayable",
      "type": "function"
    },
    {
      "inputs": [
        {
          "internalType": "address",
          "name": "company",
          "type": "address"
        },
        {
          "internalType": "address",
          "name": "exp",
          "type": "address"
        },
        {
          "internalType": "string",
          "name": "reason",
          "type": "string"
        }
      ],
      "name": "removeExperience",
      "outputs": [
        {
          "internalType": "uint256",
          "name": "portalId",
          "type": "uint256"
        }
      ],
      "stateMutability": "nonpayable",
      "type": "function"
    },
    {
      "inputs": [
        {
          "internalType": "address[]",
          "name": "signers",
          "type": "address[]"
        }
      ],
      "name": "removeSigners",
      "outputs": [],
      "stateMutability": "nonpayable",
      "type": "function"
    },
    {
      "inputs": [
        {
          "internalType": "address",
          "name": "addr",
          "type": "address"
        }
      ],
      "name": "renewEntity",
      "outputs": [],
      "stateMutability": "payable",
      "type": "function"
    },
    {
      "inputs": [
        {
          "internalType": "bytes32",
          "name": "role",
          "type": "bytes32"
        },
        {
          "internalType": "address",
          "name": "account",
          "type": "address"
        }
      ],
      "name": "revokeRole",
      "outputs": [],
      "stateMutability": "nonpayable",
      "type": "function"
    },
    {
      "inputs": [
        {
          "internalType": "address",
          "name": "_entityImplementation",
          "type": "address"
        }
      ],
      "name": "setEntityImplementation",
      "outputs": [],
      "stateMutability": "nonpayable",
      "type": "function"
    },
    {
      "inputs": [
        {
          "internalType": "address",
          "name": "_proxyImplementation",
          "type": "address"
        }
      ],
      "name": "setProxyImplementation",
      "outputs": [],
      "stateMutability": "nonpayable",
      "type": "function"
    },
    {
      "inputs": [
        {
          "internalType": "bytes",
          "name": "initData",
          "type": "bytes"
        }
      ],
      "name": "upgradeEntity",
      "outputs": [],
      "stateMutability": "nonpayable",
      "type": "function"
    },
    {
      "inputs": [],
      "name": "version",
      "outputs": [
        {
          "components": [
            {
              "internalType": "uint16",
              "name": "major",
              "type": "uint16"
            },
            {
              "internalType": "uint16",
              "name": "minor",
              "type": "uint16"
            }
          ],
          "internalType": "struct Version",
          "name": "",
          "type": "tuple"
        }
      ],
      "stateMutability": "pure",
      "type": "function"
    },
    {
      "inputs": [],
      "name": "worldRegistry",
      "outputs": [
        {
          "internalType": "contract IWorldRegistry",
          "name": "",
          "type": "address"
        }
      ],
      "stateMutability": "view",
      "type": "function"
    }
  ],
  "bytecode": "0x60c06040523480156200001157600080fd5b50604051620044d5380380620044d5833981016040819052620000349162000157565b600160005580516001600160a01b0316620000ab5760405162461bcd60e51b815260206004820152602c60248201527f457870657269656e636552656769737472793a20496e76616c696420636f6d7060448201526b616e7920726567697374727960a01b60648201526084015b60405180910390fd5b60208101516001600160a01b03166200011a5760405162461bcd60e51b815260206004820152602a60248201527f457870657269656e636552656769737472793a20496e76616c696420776f726c6044820152696420726567697374727960b01b6064820152608401620000a2565b80516001600160a01b039081166080526020909101511660a052620001c5565b80516001600160a01b03811681146200015257600080fd5b919050565b6000604082840312156200016a57600080fd5b604080519081016001600160401b03811182821017156200019b57634e487b7160e01b600052604160045260246000fd5b604052620001a9836200013a565b8152620001b9602084016200013a565b60208201529392505050565b60805160a0516142ce620002076000396000818161053901528181610c960152818161113801528181611aca01526128260152600061066d01526142ce6000f3fe60806040526004361061023b5760003560e01c806391026f191161012e578063c51aba2b116100ab578063d6fbe0201161006f578063d6fbe0201461070f578063e2482bf914610722578063e8906a2d14610742578063f751e01a14610762578063f82e2fb3146107a157600080fd5b8063c51aba2b1461065b578063c625e0ad1461068f578063c747e47e146106af578063cdbe2211146106cf578063d547741f146106ef57600080fd5b8063a8c88c17116100f2578063a8c88c17146105bb578063af08d53d146105db578063b6db923d146105fb578063ba2eb5411461061b578063c3c5a5471461063b57600080fd5b806391026f1914610507578063911c2a8c1461052757806391d148541461055b5780639fdcd3a41461057b578063a6f9dae11461059b57600080fd5b80634ec70a48116101bc578063693c79b211610180578063693c79b21461047d5780637df73e271461049d5780638d361e43146104bd5780638da5cb5b146104dd57806390e4b720146104f257600080fd5b80634ec70a48146103bd57806354fd4d50146103dd5780635726c94e146104335780635e04096214610453578063689c48f01461046857600080fd5b80632f2ff15d116102035780632f2ff15d146102f75780633e88a4e21461031757806346213f4a1461034f5780634ae134cc1461037d5780634d4965f31461039d57600080fd5b806301f2423014610240578063033a5b60146102625780630fd020dd14610282578063200e4e11146102a257806324d7806c146102c2575b600080fd5b34801561024c57600080fd5b5061026061025b366004613436565b6107ce565b005b34801561026e57600080fd5b5061026061027d36600461349b565b6108a6565b34801561028e57600080fd5b5061026061029d3660046134ef565b610a3d565b3480156102ae57600080fd5b506102606102bd366004613530565b610c7f565b3480156102ce57600080fd5b506102e26102dd366004613436565b610f36565b60405190151581526020015b60405180910390f35b34801561030357600080fd5b50610260610312366004613594565b610fbc565b34801561032357600080fd5b506103376103323660046134ef565b611092565b6040516001600160a01b0390911681526020016102ee565b34801561035b57600080fd5b5061036f61036a366004613530565b611116565b6040519081526020016102ee565b34801561038957600080fd5b50610260610398366004613436565b61143e565b3480156103a957600080fd5b506102606103b83660046135dc565b6114ad565b3480156103c957600080fd5b5061036f6103d8366004613436565b611641565b3480156103e957600080fd5b5060408051808201825260008082526020918201819052825180840190935260018352908201525b60408051825161ffff90811682526020938401511692810192909252016102ee565b34801561043f57600080fd5b5061036f61044e366004613436565b6116c1565b34801561045f57600080fd5b50610411611704565b34801561047457600080fd5b50610337611789565b34801561048957600080fd5b50610260610498366004613436565b6117f8565b3480156104a957600080fd5b506102e26104b8366004613436565b611953565b3480156104c957600080fd5b506102606104d8366004613618565b611996565b3480156104e957600080fd5b50610337611a5e565b3480156104fe57600080fd5b50610337611a68565b34801561051357600080fd5b5061026061052236600461368c565b611ab3565b34801561053357600080fd5b506103377f000000000000000000000000000000000000000000000000000000000000000081565b34801561056757600080fd5b506102e2610576366004613594565b611d70565b34801561058757600080fd5b50610260610596366004613436565b611df6565b3480156105a757600080fd5b506102606105b6366004613436565b611ec5565b3480156105c757600080fd5b506102e26105d6366004613436565b611f64565b3480156105e757600080fd5b506102606105f636600461349b565b611fa7565b34801561060757600080fd5b506102e2610616366004613436565b6121a1565b34801561062757600080fd5b506102e2610636366004613436565b6121e4565b34801561064757600080fd5b506102e2610656366004613436565b612227565b34801561066757600080fd5b506103377f000000000000000000000000000000000000000000000000000000000000000081565b34801561069b57600080fd5b506102606106aa3660046134ef565b61226a565b3480156106bb57600080fd5b506103376106ca3660046135dc565b612496565b3480156106db57600080fd5b506102606106ea366004613436565b612511565b3480156106fb57600080fd5b5061026061070a366004613594565b6125e0565b61026061071d366004613436565b6126b6565b34801561072e57600080fd5b506102e261073d366004613436565b6126f6565b34801561074e57600080fd5b5061026061075d366004613618565b612739565b34801561076e57600080fd5b5061078261077d3660046136ba565b612801565b604080516001600160a01b0390931683526020830191909152016102ee565b3480156107ad57600080fd5b506107c16107bc366004613436565b612f3d565b6040516102ee91906136f4565b6000816001600160a01b0316632fcbab9a6040518163ffffffff1660e01b8152600401600060405180830381865afa15801561080e573d6000803e3d6000fd5b505050506040513d6000823e601f3d908101601f191682016040526108369190810190613821565b604051635656b1c560e01b815290915073__$1822254560a4f971c7e72253c3a08363e7$__90635656b1c5906108729085908590600401613995565b60006040518083038186803b15801561088a57600080fd5b505af415801561089e573d6000803e3d6000fd5b505050505050565b826000819050336001600160a01b0316816001600160a01b03166369bd91946040518163ffffffff1660e01b8152600401602060405180830381865afa1580156108f4573d6000803e3d6000fd5b505050506040513d601f19601f8201168201806040525081019061091891906139b9565b6001600160a01b0316146109475760405162461bcd60e51b815260040161093e906139d6565b60405180910390fd5b6000339050806001600160a01b0316634f05c1c86040518163ffffffff1660e01b8152600401602060405180830381865afa15801561098a573d6000803e3d6000fd5b505050506040513d601f19601f820116820180604052508101906109ae9190613a33565b6109ca5760405162461bcd60e51b815260040161093e90613a55565b60405163ede71a1760e01b815273__$1822254560a4f971c7e72253c3a08363e7$__9063ede71a1790610a0590899089908990600401613ac9565b60006040518083038186803b158015610a1d57600080fd5b505af4158015610a31573d6000803e3d6000fd5b50505050505050505050565b610a4633612227565b610a625760405162461bcd60e51b815260040161093e90613af7565b610a6a612fd2565b610a7261309c565b60003390506000816001600160a01b0316630d8e6e2c6040518163ffffffff1660e01b81526004016040805180830381865afa158015610ab6573d6000803e3d6000fd5b505050506040513d601f19601f82011682018060405250810190610ada9190613b49565b90506000610ae66130c6565b60408051808201909152600282015461ffff808216835262010000909104166020820152909150610b1890839061315c565b610b825760405162461bcd60e51b815260206004820152603560248201527f52656769737472793a20656e746974792076657273696f6e206973206c657373604482015274207468616e2063757272656e7420616c726561647960581b606482015260840161093e565b8054604051636bc26a1360e11b81526001600160a01b039091166004820152339063d784d42690602401600060405180830381600087803b158015610bc657600080fd5b505af1158015610bda573d6000803e3d6000fd5b505060405163e20eea0f60e01b815233925063e20eea0f9150610c039088908890600401613ba7565b600060405180830381600087803b158015610c1d57600080fd5b505af1158015610c31573d6000803e3d6000fd5b505082546040516001600160a01b0390911692503391507fd25150b43a5956fbd806981bc1261635722b4703fdcb605cb574703ad24563bf90600090a3505050610c7b6001600055565b5050565b60405163c3c5a54760e01b815233600482015284907f00000000000000000000000000000000000000000000000000000000000000006001600160a01b03169063c3c5a54790602401602060405180830381865afa158015610ce5573d6000803e3d6000fd5b505050506040513d601f19601f82011682018060405250810190610d099190613a33565b610d255760405162461bcd60e51b815260040161093e90613bbb565b336001600160a01b03166386b70bed6040518163ffffffff1660e01b8152600401602060405180830381865afa158015610d63573d6000803e3d6000fd5b505050506040513d601f19601f82011682018060405250810190610d879190613a33565b610da35760405162461bcd60e51b815260040161093e90613c0f565b6000816001600160a01b03166330b67baa6040518163ffffffff1660e01b8152600401602060405180830381865afa158015610de3573d6000803e3d6000fd5b505050506040513d601f19601f82011682018060405250810190610e0791906139b9565b90506001600160a01b0381163314610e315760405162461bcd60e51b815260040161093e90613c5d565b816001600160a01b03166386b70bed6040518163ffffffff1660e01b8152600401602060405180830381865afa158015610e6f573d6000803e3d6000fd5b505050506040513d601f19601f82011682018060405250810190610e939190613a33565b610eaf5760405162461bcd60e51b815260040161093e90613cba565b610eb761309c565b610ec186866131ad565b60405163ede71a1760e01b815273__$1822254560a4f971c7e72253c3a08363e7$__9063ede71a1790610efc90889088908890600401613ac9565b60006040518083038186803b158015610f1457600080fd5b505af4158015610f28573d6000803e3d6000fd5b5050505061089e6001600055565b604051630935e01b60e21b81526001600160a01b038216600482015260009073__$a5a42e46683ad9c79b7b86d5ff60fdf4c1$__906324d7806c906024015b602060405180830381865af4158015610f92573d6000803e3d6000fd5b505050506040513d601f19601f82011682018060405250810190610fb69190613a33565b92915050565b604051630935e01b60e21b815233600482015273__$a5a42e46683ad9c79b7b86d5ff60fdf4c1$__906324d7806c90602401602060405180830381865af415801561100b573d6000803e3d6000fd5b505050506040513d601f19601f8201168201806040525081019061102f9190613a33565b61104b5760405162461bcd60e51b815260040161093e90613d03565b604051632f2ff15d60e01b8152600481018390526001600160a01b038216602482015273__$a5a42e46683ad9c79b7b86d5ff60fdf4c1$__90632f2ff15d90604401610872565b604051631f44527160e11b815260009073__$d81eab81c4f96e94de97b51155a369ac43$__90633e88a4e2906110ce9086908690600401613ba7565b602060405180830381865af41580156110eb573d6000803e3d6000fd5b505050506040513d601f19601f8201168201806040525081019061110f91906139b9565b9392505050565b60405163c3c5a54760e01b815233600482015260009085906001600160a01b037f0000000000000000000000000000000000000000000000000000000000000000169063c3c5a54790602401602060405180830381865afa15801561117f573d6000803e3d6000fd5b505050506040513d601f19601f820116820180604052508101906111a39190613a33565b6111bf5760405162461bcd60e51b815260040161093e90613bbb565b336001600160a01b03166386b70bed6040518163ffffffff1660e01b8152600401602060405180830381865afa1580156111fd573d6000803e3d6000fd5b505050506040513d601f19601f820116820180604052508101906112219190613a33565b61123d5760405162461bcd60e51b815260040161093e90613c0f565b6000816001600160a01b03166330b67baa6040518163ffffffff1660e01b8152600401602060405180830381865afa15801561127d573d6000803e3d6000fd5b505050506040513d601f19601f820116820180604052508101906112a191906139b9565b90506001600160a01b03811633146112cb5760405162461bcd60e51b815260040161093e90613c5d565b816001600160a01b03166386b70bed6040518163ffffffff1660e01b8152600401602060405180830381865afa158015611309573d6000803e3d6000fd5b505050506040513d601f19601f8201168201806040525081019061132d9190613a33565b6113495760405162461bcd60e51b815260040161093e90613cba565b61135161309c565b61135b87876131ad565b604051633f111a5d60e21b815273__$1822254560a4f971c7e72253c3a08363e7$__9063fc4469749061139690899089908990600401613ac9565b60006040518083038186803b1580156113ae57600080fd5b505af41580156113c2573d6000803e3d6000fd5b50505050856001600160a01b0316637d692cad6040518163ffffffff1660e01b8152600401602060405180830381865afa158015611404573d6000803e3d6000fd5b505050506040513d601f19601f820116820180604052508101906114289190613d38565b92506114346001600055565b5050949350505050565b6040516347ef542760e01b81526001600160a01b038216600482015273__$1822254560a4f971c7e72253c3a08363e7$__906347ef5427906024015b60006040518083038186803b15801561149257600080fd5b505af41580156114a6573d6000803e3d6000fd5b5050505050565b6114ba6020820182613436565b6000819050336001600160a01b0316816001600160a01b03166369bd91946040518163ffffffff1660e01b8152600401602060405180830381865afa158015611507573d6000803e3d6000fd5b505050506040513d601f19601f8201168201806040525081019061152b91906139b9565b6001600160a01b0316146115515760405162461bcd60e51b815260040161093e906139d6565b6000339050806001600160a01b0316634f05c1c86040518163ffffffff1660e01b8152600401602060405180830381865afa158015611594573d6000803e3d6000fd5b505050506040513d601f19601f820116820180604052508101906115b89190613a33565b6115d45760405162461bcd60e51b815260040161093e90613a55565b604051630bca13f760e41b815273__$d81eab81c4f96e94de97b51155a369ac43$__9063bca13f709061160b908790600401613d96565b60006040518083038186803b15801561162357600080fd5b505af4158015611637573d6000803e3d6000fd5b5050505050505050565b6040516309d8e14960e31b81526001600160a01b038216600482015260009073__$1822254560a4f971c7e72253c3a08363e7$__90634ec70a48906024015b602060405180830381865af415801561169d573d6000803e3d6000fd5b505050506040513d601f19601f82011682018060405250810190610fb69190613d38565b604051632b9364a760e11b81526001600160a01b038216600482015260009073__$1822254560a4f971c7e72253c3a08363e7$__90635726c94e90602401611680565b604080518082019091526000808252602082015273__$e1fef5d4b1bfc4a605b7eb127c84f71416$__635e0409626040518163ffffffff1660e01b81526004016040805180830381865af4158015611760573d6000803e3d6000fd5b505050506040513d601f19601f820116820180604052508101906117849190613b49565b905090565b600073__$e1fef5d4b1bfc4a605b7eb127c84f71416$__63689c48f06040518163ffffffff1660e01b8152600401602060405180830381865af41580156117d4573d6000803e3d6000fd5b505050506040513d601f19601f8201168201806040525081019061178491906139b9565b806000819050336001600160a01b0316816001600160a01b03166369bd91946040518163ffffffff1660e01b8152600401602060405180830381865afa158015611846573d6000803e3d6000fd5b505050506040513d601f19601f8201168201806040525081019061186a91906139b9565b6001600160a01b0316146118905760405162461bcd60e51b815260040161093e906139d6565b6000339050806001600160a01b0316634f05c1c86040518163ffffffff1660e01b8152600401602060405180830381865afa1580156118d3573d6000803e3d6000fd5b505050506040513d601f19601f820116820180604052508101906118f79190613a33565b6119135760405162461bcd60e51b815260040161093e90613a55565b60405163699f380760e11b81526001600160a01b038516600482015273__$1822254560a4f971c7e72253c3a08363e7$__9063d33e700e9060240161160b565b604051637df73e2760e01b81526001600160a01b038216600482015260009073__$a5a42e46683ad9c79b7b86d5ff60fdf4c1$__90637df73e2790602401610f75565b604051630935e01b60e21b815233600482015273__$a5a42e46683ad9c79b7b86d5ff60fdf4c1$__906324d7806c90602401602060405180830381865af41580156119e5573d6000803e3d6000fd5b505050506040513d601f19601f82011682018060405250810190611a099190613a33565b611a255760405162461bcd60e51b815260040161093e90613d03565b604051638d361e4360e01b815273__$a5a42e46683ad9c79b7b86d5ff60fdf4c1$__90638d361e43906108729085908590600401613e2c565b60006117846132a1565b600073__$e1fef5d4b1bfc4a605b7eb127c84f71416$__6390e4b7206040518163ffffffff1660e01b8152600401602060405180830381865af41580156117d4573d6000803e3d6000fd5b60405163c3c5a54760e01b815233600482015282907f00000000000000000000000000000000000000000000000000000000000000006001600160a01b03169063c3c5a54790602401602060405180830381865afa158015611b19573d6000803e3d6000fd5b505050506040513d601f19601f82011682018060405250810190611b3d9190613a33565b611b595760405162461bcd60e51b815260040161093e90613bbb565b336001600160a01b03166386b70bed6040518163ffffffff1660e01b8152600401602060405180830381865afa158015611b97573d6000803e3d6000fd5b505050506040513d601f19601f82011682018060405250810190611bbb9190613a33565b611bd75760405162461bcd60e51b815260040161093e90613c0f565b6000816001600160a01b03166330b67baa6040518163ffffffff1660e01b8152600401602060405180830381865afa158015611c17573d6000803e3d6000fd5b505050506040513d601f19601f82011682018060405250810190611c3b91906139b9565b90506001600160a01b0381163314611c655760405162461bcd60e51b815260040161093e90613c5d565b816001600160a01b03166386b70bed6040518163ffffffff1660e01b8152600401602060405180830381865afa158015611ca3573d6000803e3d6000fd5b505050506040513d601f19601f82011682018060405250810190611cc79190613a33565b611ce35760405162461bcd60e51b815260040161093e90613cba565b611ceb61309c565b611cf584846131ad565b60405163699f380760e11b81526001600160a01b038416600482015273__$1822254560a4f971c7e72253c3a08363e7$__9063d33e700e9060240160006040518083038186803b158015611d4857600080fd5b505af4158015611d5c573d6000803e3d6000fd5b50505050611d6a6001600055565b50505050565b604051632474521560e21b8152600481018390526001600160a01b038216602482015260009073__$a5a42e46683ad9c79b7b86d5ff60fdf4c1$__906391d1485490604401602060405180830381865af4158015611dd2573d6000803e3d6000fd5b505050506040513d601f19601f8201168201806040525081019061110f9190613a33565b604051630935e01b60e21b815233600482015273__$a5a42e46683ad9c79b7b86d5ff60fdf4c1$__906324d7806c90602401602060405180830381865af4158015611e45573d6000803e3d6000fd5b505050506040513d601f19601f82011682018060405250810190611e699190613a33565b611e855760405162461bcd60e51b815260040161093e90613d03565b6040516327f734e960e21b81526001600160a01b038216600482015273__$e1fef5d4b1bfc4a605b7eb127c84f71416$__90639fdcd3a49060240161147a565b33611ece6132a1565b6001600160a01b031614611f245760405162461bcd60e51b815260206004820152601f60248201527f426173654163636573733a207265737472696374656420746f206f776e657200604482015260640161093e565b6040516313af403560e01b81526001600160a01b038216600482015273__$a5a42e46683ad9c79b7b86d5ff60fdf4c1$__906313af40359060240161147a565b60405163a8c88c1760e01b81526001600160a01b038216600482015260009073__$1822254560a4f971c7e72253c3a08363e7$__9063a8c88c1790602401610f75565b826000819050336001600160a01b0316816001600160a01b03166369bd91946040518163ffffffff1660e01b8152600401602060405180830381865afa158015611ff5573d6000803e3d6000fd5b505050506040513d601f19601f8201168201806040525081019061201991906139b9565b6001600160a01b03161461203f5760405162461bcd60e51b815260040161093e906139d6565b6000339050806001600160a01b0316634f05c1c86040518163ffffffff1660e01b8152600401602060405180830381865afa158015612082573d6000803e3d6000fd5b505050506040513d601f19601f820116820180604052508101906120a69190613a33565b6120c25760405162461bcd60e51b815260040161093e90613a55565b6000866001600160a01b0316632fcbab9a6040518163ffffffff1660e01b8152600401600060405180830381865afa158015612102573d6000803e3d6000fd5b505050506040513d6000823e601f3d908101601f1916820160405261212a9190810190613821565b604051629930d960e01b815290915073__$1822254560a4f971c7e72253c3a08363e7$__90629930d990612168908a9085908b908b90600401613e7a565b60006040518083038186803b15801561218057600080fd5b505af4158015612194573d6000803e3d6000fd5b5050505050505050505050565b60405163b6db923d60e01b81526001600160a01b038216600482015260009073__$1822254560a4f971c7e72253c3a08363e7$__9063b6db923d90602401610f75565b60405163ba2eb54160e01b81526001600160a01b038216600482015260009073__$1822254560a4f971c7e72253c3a08363e7$__9063ba2eb54190602401610f75565b60405163c3c5a54760e01b81526001600160a01b038216600482015260009073__$d81eab81c4f96e94de97b51155a369ac43$__9063c3c5a54790602401610f75565b61227333612227565b61228f5760405162461bcd60e51b815260040161093e90613af7565b612297612fd2565b61229f61309c565b60003390506000816001600160a01b0316630d8e6e2c6040518163ffffffff1660e01b81526004016040805180830381865afa1580156122e3573d6000803e3d6000fd5b505050506040513d601f19601f820116820180604052508101906123079190613b49565b905060006123136130c6565b60408051808201909152600282015461ffff8082168352620100009091041660208201529091506123459083906132bc565b61239d5760405162461bcd60e51b815260206004820152602360248201527f52656769737472793a20656e7469747920686173206c6174657374207665727360448201526234b7b760e91b606482015260840161093e565b8054604051636bc26a1360e11b81526001600160a01b039091166004820152339063d784d42690602401600060405180830381600087803b1580156123e157600080fd5b505af11580156123f5573d6000803e3d6000fd5b505060405163e20eea0f60e01b815233925063e20eea0f915061241e9088908890600401613ba7565b600060405180830381600087803b15801561243857600080fd5b505af115801561244c573d6000803e3d6000fd5b505082546040516001600160a01b0390911692503391507f066b0f46be3664c84e5e14bc4d9fb9be906d657f27b0c8ee4b962ad1530d3f4090600090a3505050610c7b6001600055565b6040516332ef671360e21b815260009073__$d81eab81c4f96e94de97b51155a369ac43$__9063cbbd9c4c906124d0908590600401613ebc565b602060405180830381865af41580156124ed573d6000803e3d6000fd5b505050506040513d601f19601f82011682018060405250810190610fb691906139b9565b604051630935e01b60e21b815233600482015273__$a5a42e46683ad9c79b7b86d5ff60fdf4c1$__906324d7806c90602401602060405180830381865af4158015612560573d6000803e3d6000fd5b505050506040513d601f19601f820116820180604052508101906125849190613a33565b6125a05760405162461bcd60e51b815260040161093e90613d03565b60405163cdbe221160e01b81526001600160a01b038216600482015273__$e1fef5d4b1bfc4a605b7eb127c84f71416$__9063cdbe22119060240161147a565b604051630935e01b60e21b815233600482015273__$a5a42e46683ad9c79b7b86d5ff60fdf4c1$__906324d7806c90602401602060405180830381865af415801561262f573d6000803e3d6000fd5b505050506040513d601f19601f820116820180604052508101906126539190613a33565b61266f5760405162461bcd60e51b815260040161093e90613d03565b60405163d547741f60e01b8152600481018390526001600160a01b038216602482015273__$a5a42e46683ad9c79b7b86d5ff60fdf4c1$__9063d547741f90604401610872565b6040516306b7df0160e51b81526001600160a01b038216600482015273__$1822254560a4f971c7e72253c3a08363e7$__9063d6fbe0209060240161147a565b60405163e2482bf960e01b81526001600160a01b038216600482015260009073__$1822254560a4f971c7e72253c3a08363e7$__9063e2482bf990602401610f75565b604051630935e01b60e21b815233600482015273__$a5a42e46683ad9c79b7b86d5ff60fdf4c1$__906324d7806c90602401602060405180830381865af4158015612788573d6000803e3d6000fd5b505050506040513d601f19601f820116820180604052508101906127ac9190613a33565b6127c85760405162461bcd60e51b815260040161093e90613d03565b60405163e8906a2d60e01b815273__$a5a42e46683ad9c79b7b86d5ff60fdf4c1$__9063e8906a2d906108729085908590600401613e2c565b6000806128116020840184613436565b60405163c3c5a54760e01b81523360048201527f00000000000000000000000000000000000000000000000000000000000000006001600160a01b03169063c3c5a54790602401602060405180830381865afa158015612875573d6000803e3d6000fd5b505050506040513d601f19601f820116820180604052508101906128999190613a33565b6128b55760405162461bcd60e51b815260040161093e90613bbb565b336001600160a01b03166386b70bed6040518163ffffffff1660e01b8152600401602060405180830381865afa1580156128f3573d6000803e3d6000fd5b505050506040513d601f19601f820116820180604052508101906129179190613a33565b6129335760405162461bcd60e51b815260040161093e90613c0f565b6000816001600160a01b03166330b67baa6040518163ffffffff1660e01b8152600401602060405180830381865afa158015612973573d6000803e3d6000fd5b505050506040513d601f19601f8201168201806040525081019061299791906139b9565b90506001600160a01b03811633146129c15760405162461bcd60e51b815260040161093e90613c5d565b816001600160a01b03166386b70bed6040518163ffffffff1660e01b8152600401602060405180830381865afa1580156129ff573d6000803e3d6000fd5b505050506040513d601f19601f82011682018060405250810190612a239190613a33565b612a3f5760405162461bcd60e51b815260040161093e90613cba565b612a4761309c565b6000612a516130c6565b60018101549091506001600160a01b0316612ac75760405162461bcd60e51b815260206004820152603060248201527f457870657269656e636552656769737472793a2070726f787920696d706c656d60448201526f195b9d185d1a5bdb881b9bdd081cd95d60821b606482015260840161093e565b80546001600160a01b0316612b385760405162461bcd60e51b815260206004820152603160248201527f457870657269656e636552656769737472793a20656e7469747920696d706c656044820152701b595b9d185d1a5bdb881b9bdd081cd95d607a1b606482015260840161093e565b6001810154612b4f906001600160a01b0316613304565b94506001600160a01b038516612bbb5760405162461bcd60e51b815260206004820152602b60248201527f526567697374726172526567697374726174696f6e3a2070726f787920636c6f60448201526a1b9a5b99c819985a5b195960aa1b606482015260840161093e565b8054604051636bc26a1360e11b81526001600160a01b0391821660048201529086169063d784d42690602401600060405180830381600087803b158015612c0157600080fd5b505af1158015612c15573d6000803e3d6000fd5b505060408051608081019091528792506000915080612c3760208b018b613f5e565b8080601f016020809104026020016040519081016040528093929190818152602001838380828437600092019190915250505090825250602090810190612c80908b018b613436565b6001600160a01b03168152602001612c9b60408b018b613fa4565b612ca490614015565b8152602001612cb660608b018b613f5e565b8080601f01602080910402602001604051908101604052809392919081815260200183838082843760009201919091525050509152506040516334e4b19560e11b81529091506001600160a01b038316906369c9632a90612d1b9084906004016140c7565b600060405180830381600087803b158015612d3557600080fd5b505af1158015612d49573d6000803e3d6000fd5b50506040805160608101825260008082526001602080840191909152828401829052835160a081019094526001600160a01b038d168452919450925081810190612d95908d018d613436565b6001600160a01b031681526020018381526020018b8060200190612db99190613f5e565b8080601f016020809104026020016040519081016040528093929190818152602001838380828437600092019190915250505090825250602001612e0060408d018d613fa4565b612e0990614015565b90526040516326590a1d60e01b815290915073__$d81eab81c4f96e94de97b51155a369ac43$__906326590a1d90612e4590849060040161418b565b60006040518083038186803b158015612e5d57600080fd5b505af4158015612e71573d6000803e3d6000fd5b50505050836001600160a01b03166357976f316040518163ffffffff1660e01b81526004016020604051808303816000875af1158015612eb5573d6000803e3d6000fd5b505050506040513d601f19601f82011682018060405250810190612ed99190613d38565b9750612ee860208b018b613436565b6001600160a01b0316896001600160a01b03167f7377123f9eb561d749cd3a89a83c22035cad6473521acbb981ee1c52d8f0248560405160405180910390a35050505050612f366001600055565b5050915091565b6040805160608101825260008082526020820181905281830152905163f82e2fb360e01b81526001600160a01b038316600482015273__$1822254560a4f971c7e72253c3a08363e7$__9063f82e2fb390602401606060405180830381865af4158015612fae573d6000803e3d6000fd5b505050506040513d601f19601f82011682018060405250810190610fb6919061420d565b6000339050806001600160a01b03166386b70bed6040518163ffffffff1660e01b8152600401602060405180830381865afa158015613015573d6000803e3d6000fd5b505050506040513d601f19601f820116820180604052508101906130399190613a33565b6130995760405162461bcd60e51b815260206004820152602b60248201527f4261736552656d6f7661626c6552656769737472793a20656e7469747920697360448201526a206e6f742061637469766560a81b606482015260840161093e565b50565b6002600054036130bf57604051633ee5aeb560e01b815260040160405180910390fd5b6002600055565b60408051808201909152601c81527f78722e656e746974792e666163746f72792e73746f726167652e76310000000060209091015260008060ff61312b60017f8b4ac7cd4466ab0d50fe53a88c5446ca4a450d482bef9ad792e7d9f451497e0f614277565b60405160200161313d91815260200190565b60408051601f1981840301815291905280516020909101201692915050565b8051825160009161ffff9081169116111561317957506001610fb6565b8151835161ffff9182169116036131a457816020015161ffff16836020015161ffff16119050610fb6565b50600092915050565b6000819050826001600160a01b0316816001600160a01b0316636904c94d6040518163ffffffff1660e01b8152600401602060405180830381865afa1580156131fa573d6000803e3d6000fd5b505050506040513d601f19601f8201168201806040525081019061321e91906139b9565b6001600160a01b03161461329c576040805162461bcd60e51b81526020600482015260248101919091527f457870657269656e636552656d6f76616c4578743a20636f6d70616e7920697360448201527f206e6f7420746865206f776e6572206f662074686520657870657269656e6365606482015260840161093e565b505050565b6000806132ac6133c5565b546001600160a01b031692915050565b8051825160009161ffff908116911610156132d957506001610fb6565b8151835161ffff9182169116036131a457816020015161ffff16836020015161ffff16109050610fb6565b60006001600160a01b0382166133745760405162461bcd60e51b815260206004820152602f60248201527f4c6962436c6f6e653a20696d706c656d656e746174696f6e2063616e6e6f742060448201526e6265207a65726f206164647265737360881b606482015260840161093e565b60008260601b9050604051733d602d80600a3d3981f3363d3d373d3d3d363d7360601b81528160148201526e5af43d82803e903d91602b57fd5bf360881b60288201526037816000f0949350505050565b60408051808201909152601481527378722e6163636573732e73746f726167652e763160601b60209091015260008060ff61312b60017fd870894b15ee1369a593f3670ac51c4ed8201dab473944ee712694d327dd5875614277565b6001600160a01b038116811461309957600080fd5b60006020828403121561344857600080fd5b813561110f81613421565b60008083601f84011261346557600080fd5b5081356001600160401b0381111561347c57600080fd5b60208301915083602082850101111561349457600080fd5b9250929050565b6000806000604084860312156134b057600080fd5b83356134bb81613421565b925060208401356001600160401b038111156134d657600080fd5b6134e286828701613453565b9497909650939450505050565b6000806020838503121561350257600080fd5b82356001600160401b0381111561351857600080fd5b61352485828601613453565b90969095509350505050565b6000806000806060858703121561354657600080fd5b843561355181613421565b9350602085013561356181613421565b925060408501356001600160401b0381111561357c57600080fd5b61358887828801613453565b95989497509550505050565b600080604083850312156135a757600080fd5b8235915060208301356135b981613421565b809150509250929050565b600060c082840312156135d657600080fd5b50919050565b6000602082840312156135ee57600080fd5b81356001600160401b0381111561360457600080fd5b613610848285016135c4565b949350505050565b6000806020838503121561362b57600080fd5b82356001600160401b038082111561364257600080fd5b818501915085601f83011261365657600080fd5b81358181111561366557600080fd5b8660208260051b850101111561367a57600080fd5b60209290920196919550909350505050565b6000806040838503121561369f57600080fd5b82356136aa81613421565b915060208301356135b981613421565b6000602082840312156136cc57600080fd5b81356001600160401b038111156136e257600080fd5b82016080818503121561110f57600080fd5b815161ffff9081168252602080840151909116908201526040808301519082015260608101610fb6565b634e487b7160e01b600052604160045260246000fd5b60405160c081016001600160401b03811182821017156137565761375661371e565b60405290565b604051601f8201601f191681016001600160401b03811182821017156137845761378461371e565b604052919050565b60006001600160401b038211156137a5576137a561371e565b50601f01601f191660200190565b60005b838110156137ce5781810151838201526020016137b6565b50506000910152565b600082601f8301126137e857600080fd5b81516137fb6137f68261378c565b61375c565b81815284602083860101111561381057600080fd5b6136108260208301602087016137b3565b60006020828403121561383357600080fd5b81516001600160401b038082111561384a57600080fd5b9083019060c0828603121561385e57600080fd5b613866613734565b82518281111561387557600080fd5b613881878286016137d7565b82525060208301518281111561389657600080fd5b6138a2878286016137d7565b6020830152506040830151828111156138ba57600080fd5b6138c6878286016137d7565b604083015250606083015160608201526080830151608082015260a083015160a082015280935050505092915050565b6000815180845261390e8160208601602086016137b3565b601f01601f19169290920160200192915050565b6000815160c0845261393760c08501826138f6565b90506020830151848203602086015261395082826138f6565b9150506040830151848203604086015261396a82826138f6565b915050606083015160608501526080830151608085015260a083015160a08501528091505092915050565b6001600160a01b038316815260406020820181905260009061361090830184613922565b6000602082840312156139cb57600080fd5b815161110f81613421565b6020808252603d908201527f4261736552656d6f7661626c6552656769737472793a2063616c6c657220697360408201527f206e6f742074686520656e746974792773207465726d73206f776e6572000000606082015260800190565b600060208284031215613a4557600080fd5b8151801515811461110f57600080fd5b6020808252602b908201527f4261736552656d6f7661626c6552656769737472793a2063616c6c657220697360408201526a206e6f742061637469766560a81b606082015260800190565b81835281816020850137506000828201602090810191909152601f909101601f19169091010190565b6001600160a01b0384168152604060208201819052600090613aee9083018486613aa0565b95945050505050565b60208082526022908201527f52656769737472793a20656e74697479206973206e6f74207265676973746572604082015261195960f21b606082015260800190565b61ffff8116811461309957600080fd5b600060408284031215613b5b57600080fd5b604051604081018181106001600160401b0382111715613b7d57613b7d61371e565b6040528251613b8b81613b39565b81526020830151613b9b81613b39565b60208201529392505050565b602081526000613610602083018486613aa0565b60208082526034908201527f457870657269656e636552656769737472793a2063616c6c6572206973206e6f6040820152731d0818481c9959da5cdd195c9959081ddbdc9b1960621b606082015260800190565b6020808252602e908201527f457870657269656e636552656769737472793a2063616c6c657220776f726c6460408201526d206973206e6f742061637469766560901b606082015260800190565b6020808252603c908201527f457870657269656e636552656769737472793a20636f6d70616e7920646f657360408201527f206e6f742062656c6f6e6720746f2063616c6c696e6720776f726c6400000000606082015260800190565b60208082526029908201527f457870657269656e636552656769737472793a20636f6d70616e79206973206e6040820152686f742061637469766560b81b606082015260800190565b6020808252818101527f426173654163636573733a207265737472696374656420746f2061646d696e73604082015260600190565b600060208284031215613d4a57600080fd5b5051919050565b6000808335601e19843603018112613d6857600080fd5b83016020810192503590506001600160401b03811115613d8757600080fd5b80360382131561349457600080fd5b6020815260008235613da781613421565b6001600160a01b0316602083810191909152613dc590840184613d51565b60c06040850152613dda60e085018284613aa0565b915050604084013560608401526060840135613df581613b39565b61ffff808216608086015260808601359150613e1082613b39565b1660a084810191909152939093013560c0909201919091525090565b60208082528181018390526000908460408401835b86811015613e6f578235613e5481613421565b6001600160a01b031682529183019190830190600101613e41565b509695505050505050565b6001600160a01b0385168152606060208201819052600090613e9e90830186613922565b8281036040840152613eb1818587613aa0565b979650505050505050565b602081526000613ecc8384613d51565b60c06020850152613ee160e085018284613aa0565b915050613ef16020850185613d51565b601f1980868503016040870152613f09848385613aa0565b9350613f186040880188613d51565b935091508086850301606087015250613f32838383613aa0565b9250505060608401356080840152608084013560a084015260a084013560c08401528091505092915050565b6000808335601e19843603018112613f7557600080fd5b8301803591506001600160401b03821115613f8f57600080fd5b60200191503681900382131561349457600080fd5b6000823560be19833603018112613fba57600080fd5b9190910192915050565b600082601f830112613fd557600080fd5b8135613fe36137f68261378c565b818152846020838601011115613ff857600080fd5b816020850160208301376000918101602001919091529392505050565b600060c0823603121561402757600080fd5b61402f613734565b82356001600160401b038082111561404657600080fd5b61405236838701613fc4565b8352602085013591508082111561406857600080fd5b61407436838701613fc4565b6020840152604085013591508082111561408d57600080fd5b5061409a36828601613fc4565b604083015250606083013560608201526080830135608082015260a083013560a082015280915050919050565b6020815260008251608060208401526140e360a08401826138f6565b905060018060a01b0360208501511660408401526040840151601f1980858403016060860152815160c0845261411c60c08501826138f6565b90506020830151848203602086015261413582826138f6565b9150506040830151848203604086015261414f82826138f6565b915050606083015160608501526080830151608085015260a083015160a08501526060870151935081868203016080870152613eb181856138f6565b602080825282516001600160a01b0390811683830152838201511660408084019190915280840151805161ffff90811660608087019190915293820151166080850152015160a083015282015160e060c08301526000906141f06101008401826138f6565b90506080840151601f198483030160e0850152613aee8282613922565b60006060828403121561421f57600080fd5b604051606081018181106001600160401b03821117156142415761424161371e565b604052825161424f81613b39565b8152602083015161425f81613b39565b60208201526040928301519281019290925250919050565b81810381811115610fb657634e487b7160e01b600052601160045260246000fdfea264697066735822122046ad044ed1dee1bed6a96181995f53c0d8255759e714d3e69ca01eb9564b078f64736f6c63430008180033",
  "linkReferences": {
    "contracts/libraries/LibAccess.sol": {
      "LibAccess": [
        {
          "length": 20,
          "start": 4446
        },
        {
          "length": 20,
          "start": 4568
        },
        {
          "length": 20,
          "start": 4727
        },
        {
          "length": 20,
          "start": 7035
        },
        {
          "length": 20,
          "start": 7090
        },
        {
          "length": 20,
          "start": 7227
        },
        {
          "length": 20,
          "start": 8095
        },
        {
          "length": 20,
          "start": 8210
        },
        {
          "length": 20,
          "start": 8521
        },
        {
          "length": 20,
          "start": 10029
        },
        {
          "length": 20,
          "start": 10236
        },
        {
          "length": 20,
          "start": 10395
        },
        {
          "length": 20,
          "start": 10581
        },
        {
          "length": 20,
          "start": 10718
        }
      ]
    },
    "contracts/libraries/LibEntityRemoval.sol": {
      "LibEntityRemoval": [
        {
          "length": 20,
          "start": 2639
        },
        {
          "length": 20,
          "start": 3040
        },
        {
          "length": 20,
          "start": 4311
        },
        {
          "length": 20,
          "start": 5489
        },
        {
          "length": 20,
          "start": 5731
        },
        {
          "length": 20,
          "start": 6249
        },
        {
          "length": 20,
          "start": 6377
        },
        {
          "length": 20,
          "start": 6968
        },
        {
          "length": 20,
          "start": 7962
        },
        {
          "length": 20,
          "start": 8588
        },
        {
          "length": 20,
          "start": 9026
        },
        {
          "length": 20,
          "start": 9161
        },
        {
          "length": 20,
          "start": 9228
        },
        {
          "length": 20,
          "start": 10459
        },
        {
          "length": 20,
          "start": 10526
        },
        {
          "length": 20,
          "start": 12667
        }
      ]
    },
    "contracts/libraries/LibFactory.sol": {
      "LibFactory": [
        {
          "length": 20,
          "start": 6433
        },
        {
          "length": 20,
          "start": 6548
        },
        {
          "length": 20,
          "start": 7283
        },
        {
          "length": 20,
          "start": 8362
        },
        {
          "length": 20,
          "start": 10181
        }
      ]
    },
    "contracts/libraries/LibRegistration.sol": {
      "LibRegistration": [
        {
          "length": 20,
          "start": 4779
        },
        {
          "length": 20,
          "start": 6122
        },
        {
          "length": 20,
          "start": 9295
        },
        {
          "length": 20,
          "start": 9903
        },
        {
          "length": 20,
          "start": 12324
        }
      ]
    }
  },
  "deployedLinkReferences": {
    "contracts/libraries/LibAccess.sol": {
      "LibAccess": [
        {
          "length": 20,
          "start": 3927
        },
        {
          "length": 20,
          "start": 4049
        },
        {
          "length": 20,
          "start": 4208
        },
        {
          "length": 20,
          "start": 6516
        },
        {
          "length": 20,
          "start": 6571
        },
        {
          "length": 20,
          "start": 6708
        },
        {
          "length": 20,
          "start": 7576
        },
        {
          "length": 20,
          "start": 7691
        },
        {
          "length": 20,
          "start": 8002
        },
        {
          "length": 20,
          "start": 9510
        },
        {
          "length": 20,
          "start": 9717
        },
        {
          "length": 20,
          "start": 9876
        },
        {
          "length": 20,
          "start": 10062
        },
        {
          "length": 20,
          "start": 10199
        }
      ]
    },
    "contracts/libraries/LibEntityRemoval.sol": {
      "LibEntityRemoval": [
        {
          "length": 20,
          "start": 2120
        },
        {
          "length": 20,
          "start": 2521
        },
        {
          "length": 20,
          "start": 3792
        },
        {
          "length": 20,
          "start": 4970
        },
        {
          "length": 20,
          "start": 5212
        },
        {
          "length": 20,
          "start": 5730
        },
        {
          "length": 20,
          "start": 5858
        },
        {
          "length": 20,
          "start": 6449
        },
        {
          "length": 20,
          "start": 7443
        },
        {
          "length": 20,
          "start": 8069
        },
        {
          "length": 20,
          "start": 8507
        },
        {
          "length": 20,
          "start": 8642
        },
        {
          "length": 20,
          "start": 8709
        },
        {
          "length": 20,
          "start": 9940
        },
        {
          "length": 20,
          "start": 10007
        },
        {
          "length": 20,
          "start": 12148
        }
      ]
    },
    "contracts/libraries/LibFactory.sol": {
      "LibFactory": [
        {
          "length": 20,
          "start": 5914
        },
        {
          "length": 20,
          "start": 6029
        },
        {
          "length": 20,
          "start": 6764
        },
        {
          "length": 20,
          "start": 7843
        },
        {
          "length": 20,
          "start": 9662
        }
      ]
    },
    "contracts/libraries/LibRegistration.sol": {
      "LibRegistration": [
        {
          "length": 20,
          "start": 4260
        },
        {
          "length": 20,
          "start": 5603
        },
        {
          "length": 20,
          "start": 8776
        },
        {
          "length": 20,
          "start": 9384
        },
        {
          "length": 20,
          "start": 11805
        }
      ]
    }
  }
}