{
  "_format": "hh-sol-artifact-1",
  "contractName": "ExperienceRegistry",
  "sourceName": "contracts/experience/ExperienceRegistry.sol",
  "abi": [
    {
      "inputs": [
        {
          "components": [
            {
              "internalType": "address",
              "name": "mainAdmin",
              "type": "address"
            },
            {
              "internalType": "address",
              "name": "experienceFactory",
              "type": "address"
            },
            {
              "internalType": "address",
              "name": "worldRegistry",
              "type": "address"
            },
            {
              "internalType": "address",
              "name": "portRegistry",
              "type": "address"
            },
            {
              "internalType": "address[]",
              "name": "admins",
              "type": "address[]"
            }
          ],
          "internalType": "struct ExperienceRegistryConstructorArgs",
          "name": "args",
          "type": "tuple"
        }
      ],
      "stateMutability": "nonpayable",
      "type": "constructor"
    },
    {
      "inputs": [],
      "name": "AccessControlBadConfirmation",
      "type": "error"
    },
    {
      "inputs": [
        {
          "internalType": "address",
          "name": "account",
          "type": "address"
        },
        {
          "internalType": "bytes32",
          "name": "neededRole",
          "type": "bytes32"
        }
      ],
      "name": "AccessControlUnauthorizedAccount",
      "type": "error"
    },
    {
      "inputs": [],
      "name": "ReentrancyGuardReentrantCall",
      "type": "error"
    },
    {
      "anonymous": false,
      "inputs": [
        {
          "indexed": true,
          "internalType": "address",
          "name": "world",
          "type": "address"
        },
        {
          "indexed": true,
          "internalType": "address",
          "name": "company",
          "type": "address"
        },
        {
          "indexed": true,
          "internalType": "address",
          "name": "experience",
          "type": "address"
        },
        {
          "indexed": false,
          "internalType": "string",
          "name": "name",
          "type": "string"
        }
      ],
      "name": "RegistryExperienceRegistered",
      "type": "event"
    },
    {
      "anonymous": false,
      "inputs": [
        {
          "indexed": true,
          "internalType": "address",
          "name": "experience",
          "type": "address"
        },
        {
          "indexed": true,
          "internalType": "uint256",
          "name": "portalId",
          "type": "uint256"
        }
      ],
      "name": "RegistryExperienceRemoved",
      "type": "event"
    },
    {
      "anonymous": false,
      "inputs": [
        {
          "indexed": true,
          "internalType": "bytes32",
          "name": "role",
          "type": "bytes32"
        },
        {
          "indexed": true,
          "internalType": "bytes32",
          "name": "previousAdminRole",
          "type": "bytes32"
        },
        {
          "indexed": true,
          "internalType": "bytes32",
          "name": "newAdminRole",
          "type": "bytes32"
        }
      ],
      "name": "RoleAdminChanged",
      "type": "event"
    },
    {
      "anonymous": false,
      "inputs": [
        {
          "indexed": true,
          "internalType": "bytes32",
          "name": "role",
          "type": "bytes32"
        },
        {
          "indexed": true,
          "internalType": "address",
          "name": "account",
          "type": "address"
        },
        {
          "indexed": true,
          "internalType": "address",
          "name": "sender",
          "type": "address"
        }
      ],
      "name": "RoleGranted",
      "type": "event"
    },
    {
      "anonymous": false,
      "inputs": [
        {
          "indexed": true,
          "internalType": "bytes32",
          "name": "role",
          "type": "bytes32"
        },
        {
          "indexed": true,
          "internalType": "address",
          "name": "account",
          "type": "address"
        },
        {
          "indexed": true,
          "internalType": "address",
          "name": "sender",
          "type": "address"
        }
      ],
      "name": "RoleRevoked",
      "type": "event"
    },
    {
      "inputs": [],
      "name": "ADMIN_ROLE",
      "outputs": [
        {
          "internalType": "bytes32",
          "name": "",
          "type": "bytes32"
        }
      ],
      "stateMutability": "view",
      "type": "function"
    },
    {
      "inputs": [],
      "name": "DEFAULT_ADMIN_ROLE",
      "outputs": [
        {
          "internalType": "bytes32",
          "name": "",
          "type": "bytes32"
        }
      ],
      "stateMutability": "view",
      "type": "function"
    },
    {
      "inputs": [],
      "name": "currentExperienceVersion",
      "outputs": [
        {
          "internalType": "uint256",
          "name": "",
          "type": "uint256"
        }
      ],
      "stateMutability": "view",
      "type": "function"
    },
    {
      "inputs": [],
      "name": "experienceFactory",
      "outputs": [
        {
          "internalType": "contract IExperienceFactory",
          "name": "",
          "type": "address"
        }
      ],
      "stateMutability": "view",
      "type": "function"
    },
    {
      "inputs": [
        {
          "internalType": "address",
          "name": "exp",
          "type": "address"
        }
      ],
      "name": "getExperienceByAddress",
      "outputs": [
        {
          "components": [
            {
              "internalType": "address",
              "name": "company",
              "type": "address"
            },
            {
              "internalType": "address",
              "name": "world",
              "type": "address"
            },
            {
              "internalType": "contract IExperience",
              "name": "experience",
              "type": "address"
            },
            {
              "internalType": "uint256",
              "name": "portalId",
              "type": "uint256"
            }
          ],
          "internalType": "struct ExperienceInfo",
          "name": "",
          "type": "tuple"
        }
      ],
      "stateMutability": "view",
      "type": "function"
    },
    {
      "inputs": [
        {
          "components": [
            {
              "internalType": "string",
              "name": "x",
              "type": "string"
            },
            {
              "internalType": "string",
              "name": "y",
              "type": "string"
            },
            {
              "internalType": "string",
              "name": "z",
              "type": "string"
            },
            {
              "internalType": "uint256",
              "name": "t",
              "type": "uint256"
            },
            {
              "internalType": "uint256",
              "name": "p",
              "type": "uint256"
            },
            {
              "internalType": "uint256",
              "name": "p_sub",
              "type": "uint256"
            }
          ],
          "internalType": "struct VectorAddress",
          "name": "vector",
          "type": "tuple"
        }
      ],
      "name": "getExperienceByVector",
      "outputs": [
        {
          "components": [
            {
              "internalType": "address",
              "name": "company",
              "type": "address"
            },
            {
              "internalType": "address",
              "name": "world",
              "type": "address"
            },
            {
              "internalType": "contract IExperience",
              "name": "experience",
              "type": "address"
            },
            {
              "internalType": "uint256",
              "name": "portalId",
              "type": "uint256"
            }
          ],
          "internalType": "struct ExperienceInfo",
          "name": "",
          "type": "tuple"
        }
      ],
      "stateMutability": "view",
      "type": "function"
    },
    {
      "inputs": [
        {
          "internalType": "string",
          "name": "name",
          "type": "string"
        }
      ],
      "name": "getExperiencesByName",
      "outputs": [
        {
          "components": [
            {
              "internalType": "address",
              "name": "company",
              "type": "address"
            },
            {
              "internalType": "address",
              "name": "world",
              "type": "address"
            },
            {
              "internalType": "contract IExperience",
              "name": "experience",
              "type": "address"
            },
            {
              "internalType": "uint256",
              "name": "portalId",
              "type": "uint256"
            }
          ],
          "internalType": "struct ExperienceInfo",
          "name": "",
          "type": "tuple"
        }
      ],
      "stateMutability": "view",
      "type": "function"
    },
    {
      "inputs": [
        {
          "internalType": "bytes32",
          "name": "role",
          "type": "bytes32"
        }
      ],
      "name": "getRoleAdmin",
      "outputs": [
        {
          "internalType": "bytes32",
          "name": "",
          "type": "bytes32"
        }
      ],
      "stateMutability": "view",
      "type": "function"
    },
    {
      "inputs": [
        {
          "internalType": "bytes32",
          "name": "role",
          "type": "bytes32"
        },
        {
          "internalType": "address",
          "name": "account",
          "type": "address"
        }
      ],
      "name": "grantRole",
      "outputs": [],
      "stateMutability": "nonpayable",
      "type": "function"
    },
    {
      "inputs": [
        {
          "internalType": "bytes32",
          "name": "role",
          "type": "bytes32"
        },
        {
          "internalType": "address",
          "name": "account",
          "type": "address"
        }
      ],
      "name": "hasRole",
      "outputs": [
        {
          "internalType": "bool",
          "name": "",
          "type": "bool"
        }
      ],
      "stateMutability": "view",
      "type": "function"
    },
    {
      "inputs": [
        {
          "internalType": "address",
          "name": "exp",
          "type": "address"
        }
      ],
      "name": "isExperience",
      "outputs": [
        {
          "internalType": "bool",
          "name": "",
          "type": "bool"
        }
      ],
      "stateMutability": "view",
      "type": "function"
    },
    {
      "inputs": [],
      "name": "portalRegistry",
      "outputs": [
        {
          "internalType": "contract IPortalRegistry",
          "name": "",
          "type": "address"
        }
      ],
      "stateMutability": "view",
      "type": "function"
    },
    {
      "inputs": [
        {
          "components": [
            {
              "components": [
                {
                  "internalType": "string",
                  "name": "x",
                  "type": "string"
                },
                {
                  "internalType": "string",
                  "name": "y",
                  "type": "string"
                },
                {
                  "internalType": "string",
                  "name": "z",
                  "type": "string"
                },
                {
                  "internalType": "uint256",
                  "name": "t",
                  "type": "uint256"
                },
                {
                  "internalType": "uint256",
                  "name": "p",
                  "type": "uint256"
                },
                {
                  "internalType": "uint256",
                  "name": "p_sub",
                  "type": "uint256"
                }
              ],
              "internalType": "struct VectorAddress",
              "name": "vector",
              "type": "tuple"
            },
            {
              "internalType": "address",
              "name": "company",
              "type": "address"
            },
            {
              "internalType": "bytes",
              "name": "initData",
              "type": "bytes"
            },
            {
              "internalType": "string",
              "name": "name",
              "type": "string"
            }
          ],
          "internalType": "struct RegisterExperienceRequest",
          "name": "request",
          "type": "tuple"
        }
      ],
      "name": "registerExperience",
      "outputs": [
        {
          "internalType": "address",
          "name": "",
          "type": "address"
        },
        {
          "internalType": "uint256",
          "name": "",
          "type": "uint256"
        }
      ],
      "stateMutability": "nonpayable",
      "type": "function"
    },
    {
      "inputs": [
        {
          "internalType": "address",
          "name": "company",
          "type": "address"
        },
        {
          "internalType": "address",
          "name": "exp",
          "type": "address"
        }
      ],
      "name": "removeExperience",
      "outputs": [
        {
          "internalType": "uint256",
          "name": "portalId",
          "type": "uint256"
        }
      ],
      "stateMutability": "nonpayable",
      "type": "function"
    },
    {
      "inputs": [
        {
          "internalType": "bytes32",
          "name": "role",
          "type": "bytes32"
        },
        {
          "internalType": "address",
          "name": "callerConfirmation",
          "type": "address"
        }
      ],
      "name": "renounceRole",
      "outputs": [],
      "stateMutability": "nonpayable",
      "type": "function"
    },
    {
      "inputs": [
        {
          "internalType": "bytes32",
          "name": "role",
          "type": "bytes32"
        },
        {
          "internalType": "address",
          "name": "account",
          "type": "address"
        }
      ],
      "name": "revokeRole",
      "outputs": [],
      "stateMutability": "nonpayable",
      "type": "function"
    },
    {
      "inputs": [
        {
          "internalType": "address",
          "name": "factory",
          "type": "address"
        }
      ],
      "name": "setExperienceFactory",
      "outputs": [],
      "stateMutability": "nonpayable",
      "type": "function"
    },
    {
      "inputs": [
        {
          "internalType": "contract IPortalRegistry",
          "name": "reg",
          "type": "address"
        }
      ],
      "name": "setPortalRegistry",
      "outputs": [],
      "stateMutability": "nonpayable",
      "type": "function"
    },
    {
      "inputs": [
        {
          "internalType": "contract IWorldRegistryV2",
          "name": "reg",
          "type": "address"
        }
      ],
      "name": "setWorldRegistry",
      "outputs": [],
      "stateMutability": "nonpayable",
      "type": "function"
    },
    {
      "inputs": [
        {
          "internalType": "bytes4",
          "name": "interfaceId",
          "type": "bytes4"
        }
      ],
      "name": "supportsInterface",
      "outputs": [
        {
          "internalType": "bool",
          "name": "",
          "type": "bool"
        }
      ],
      "stateMutability": "view",
      "type": "function"
    },
    {
      "inputs": [
        {
          "internalType": "bytes",
          "name": "initData",
          "type": "bytes"
        }
      ],
      "name": "upgradeExperience",
      "outputs": [
        {
          "internalType": "address",
          "name": "",
          "type": "address"
        }
      ],
      "stateMutability": "nonpayable",
      "type": "function"
    },
    {
      "inputs": [],
      "name": "worldRegistry",
      "outputs": [
        {
          "internalType": "contract IWorldRegistryV2",
          "name": "",
          "type": "address"
        }
      ],
      "stateMutability": "view",
      "type": "function"
    }
  ],
  "bytecode": "0x60806040523480156200001157600080fd5b50604051620029a5380380620029a58339810160408190526200003491620004d8565b600160005580516001600160a01b0316620000b15760405162461bcd60e51b815260206004820152603260248201527f457870657269656e636552656769737472793a206d61696e2061646d696e206160448201527106464726573732063616e6e6f7420626520360741b60648201526084015b60405180910390fd5b60408101516001600160a01b0316620001335760405162461bcd60e51b815260206004820152603660248201527f457870657269656e636552656769737472793a20776f726c642072656769737460448201527f727920616464726573732063616e6e6f742062652030000000000000000000006064820152608401620000a8565b60608101516001600160a01b0316620001b55760405162461bcd60e51b815260206004820152603760248201527f457870657269656e636552656769737472793a20706f7274616c20726567697360448201527f74727920616464726573732063616e6e6f7420626520300000000000000000006064820152608401620000a8565b60208101516001600160a01b0316620002375760405162461bcd60e51b815260206004820152603a60248201527f457870657269656e636552656769737472793a20657870657269656e6365206660448201527f6163746f727920616464726573732063616e6e6f7420626520300000000000006064820152608401620000a8565b6040810151600280546001600160a01b039283166001600160a01b03199182161790915560608301516003805491841691831691909117905560208301516004805491909316911617905580516200029290600090620003b0565b508051620002b1906000805160206200298583398151915290620003b0565b5060005b816080015151811015620003a85760006001600160a01b031682608001518281518110620002e757620002e76200060e565b60200260200101516001600160a01b0316036200035d5760405162461bcd60e51b815260206004820152602d60248201527f457870657269656e636552656769737472793a2061646d696e2061646472657360448201526c0732063616e6e6f74206265203609c1b6064820152608401620000a8565b6200039e60008051602062002985833981519152836080015183815181106200038a576200038a6200060e565b6020026020010151620003b060201b60201c565b50600101620002b5565b505062000624565b60008281526001602090815260408083206001600160a01b038516845290915281205460ff166200043d5760008381526001602081815260408084206001600160a01b0387168086529252808420805460ff19169093179092559051339286917f2f8788117e7eff1d82e926ec794901d17c78024a50270940304540a733656f0d9190a450600162000441565b5060005b92915050565b634e487b7160e01b600052604160045260246000fd5b60405160a081016001600160401b038111828210171562000482576200048262000447565b60405290565b604051601f8201601f191681016001600160401b0381118282101715620004b357620004b362000447565b604052919050565b80516001600160a01b0381168114620004d357600080fd5b919050565b60006020808385031215620004ec57600080fd5b82516001600160401b03808211156200050457600080fd5b9084019060a082870312156200051957600080fd5b620005236200045d565b6200052e83620004bb565b81526200053d848401620004bb565b848201526200054f60408401620004bb565b60408201526200056260608401620004bb565b60608201526080830151828111156200057a57600080fd5b80840193505086601f8401126200059057600080fd5b825182811115620005a557620005a562000447565b8060051b9250620005b885840162000488565b8181529284018501928581019089851115620005d357600080fd5b948601945b84861015620005fc57620005ec86620004bb565b82529486019490860190620005d8565b60808401525090979650505050505050565b634e487b7160e01b600052603260045260246000fd5b61235180620006346000396000f3fe608060405234801561001057600080fd5b50600436106101425760003560e01c806381bb2029116100b8578063c4d453c21161007c578063c4d453c2146102f1578063d0198bf114610323578063d1c7621314610336578063d547741f146103b9578063e237fbad146103cc578063e98715f4146103df57600080fd5b806381bb20291461029d578063911c2a8c146102b057806391d14854146102c3578063a217fddf146102d6578063b6664934146102de57600080fd5b80632f5d253a1161010a5780632f5d253a1461021c57806332ab79f81461022457806336568abe146102375780636d941fe71461024a5780636dd70bbf1461027557806375b238fc1461028857600080fd5b806301ffc9a7146101475780630ce5304f1461016f578063248a9ca3146101c257806326228630146101f45780632f2ff15d14610207575b600080fd5b61015a610155366004611958565b6103f2565b60405190151581526020015b60405180910390f35b61018261017d366004611aa2565b610429565b6040805182516001600160a01b03908116825260208085015182169083015283830151169181019190915260609182015191810191909152608001610166565b6101e66101d0366004611ad7565b6000908152600160208190526040909120015490565b604051908152602001610166565b61015a610202366004611b05565b6104b8565b61021a610215366004611b22565b61059d565b005b6101e66105c9565b610182610232366004611c04565b610647565b61021a610245366004611b22565b6106f4565b61025d610258366004611c39565b61072c565b6040516001600160a01b039091168152602001610166565b6101e6610283366004611cab565b61082a565b6101e66000805160206122fc83398151915281565b60045461025d906001600160a01b031681565b60025461025d906001600160a01b031681565b61015a6102d1366004611b22565b610d68565b6101e6600081565b60035461025d906001600160a01b031681565b6103046102ff366004611cd9565b610d93565b604080516001600160a01b039093168352602083019190915201610166565b61021a610331366004611b05565b611428565b610182610344366004611b05565b60408051608080820183526000808352602080840182905283850182905260609384018290526001600160a01b03958616825260068152908490208451928301855280548616835260018101548616918301919091526002810154909416928101929092526003909201549181019190915290565b61021a6103c7366004611b22565b611489565b61021a6103da366004611b05565b6114af565b61021a6103ed366004611b05565b611510565b60006001600160e01b03198216637965db0b60e01b148061042357506301ffc9a760e01b6001600160e01b03198316145b92915050565b604080516080810182526000808252602082018190529181018290526060810191909152600761045883611571565b6040516104659190611dd9565b90815260408051918290036020908101832060808401835280546001600160a01b039081168552600182015481169285019290925260028101549091169183019190915260030154606082015292915050565b6001600160a01b0380821660009081526006602090815260408083208151608081018352815486168152600182015486169381019390935260028101548516838301526003908101546060840181905290549151630a22d5a160e21b8152939492938593929092169163288b5684916105379160040190815260200190565b608060405180830381865afa158015610554573d6000803e3d6000fd5b505050506040513d601f19601f820116820180604052508101906105789190611e0a565b82519091506001600160a01b031615801590610595575080606001515b949350505050565b600082815260016020819052604090912001546105b9816115e1565b6105c383836115ee565b50505050565b6000600460009054906101000a90046001600160a01b03166001600160a01b031663e921c2756040518163ffffffff1660e01b8152600401602060405180830381865afa15801561061e573d6000803e3d6000fd5b505050506040513d601f19601f820116820180604052508101906106429190611e66565b905090565b6040805160808101825260008082526020820181905291810182905260608101919091526005600061067884611667565b6040516020016106889190611eab565b60408051601f198184030181529181528151602092830120835282820193909352908201600020825160808101845281546001600160a01b0390811682526001830154811693820193909352600282015490921692820192909252600390910154606082015292915050565b6001600160a01b038116331461071d5760405163334bd91960e11b815260040160405180910390fd5b61072782826116ca565b505050565b6000610737336104b8565b6107a05760405162461bcd60e51b815260206004820152602f60248201527f457870657269656e636552656769737472793a2063616c6c6572206973206e6f60448201526e7420616e20657870657269656e636560881b60648201526084015b60405180910390fd5b6107a8611737565b6004805460405163db70a69360e01b81526001600160a01b039091169163db70a693916107db9133918891889101611ebe565b6020604051808303816000875af11580156107fa573d6000803e3d6000fd5b505050506040513d601f19601f8201168201806040525081019061081e9190611efe565b90506104236001600055565b600254604051637856879f60e11b81523360048201526000916001600160a01b03169063f0ad0f3e90602401602060405180830381865afa158015610873573d6000803e3d6000fd5b505050506040513d601f19601f820116820180604052508101906108979190611f1b565b6108b35760405162461bcd60e51b815260040161079790611f36565b6108bb611737565b336001600160a01b0316836001600160a01b03166330b67baa6040518163ffffffff1660e01b8152600401602060405180830381865afa158015610903573d6000803e3d6000fd5b505050506040513d601f19601f820116820180604052508101906109279190611efe565b6001600160a01b03161461094d5760405162461bcd60e51b815260040161079790611f8a565b6000829050836001600160a01b0316816001600160a01b0316636904c94d6040518163ffffffff1660e01b8152600401602060405180830381865afa15801561099a573d6000803e3d6000fd5b505050506040513d601f19601f820116820180604052508101906109be9190611efe565b6001600160a01b031614610a4c5760405162461bcd60e51b815260206004820152604960248201527f457870657269656e636552656769737472793a20657870657269656e6365206960448201527f73206e6f7420726567697374657265642077697468207468652063616c6c696e6064820152686720636f6d70616e7960b81b608482015260a401610797565b6001600160a01b03838116600090815260066020908152604091829020825160808101845281548516815260018201548516928101929092526002810154841682840152600390810154606083018190529054925163b8e7d08360e01b815260048101919091529092919091169063b8e7d08390602401600060405180830381600087803b158015610add57600080fd5b505af1158015610af1573d6000803e3d6000fd5b50505050806060015192506000826001600160a01b0316632fcbab9a6040518163ffffffff1660e01b8152600401600060405180830381865afa158015610b3c573d6000803e3d6000fd5b505050506040513d6000823e601f3d908101601f19168201604052610b649190810190612039565b6001600160a01b0380871660009081526006602052604080822080546001600160a01b0319908116825560018201805482169055600282018054909116905560030182905580516306fdde0360e01b81529051939450600793610c17938816926306fdde0392600480820193918290030181865afa158015610bea573d6000803e3d6000fd5b505050506040513d6000823e601f3d908101601f19168201604052610c12919081019061210f565b611571565b604051610c249190611dd9565b90815260405190819003602001902080546001600160a01b0319908116825560018201805482169055600282018054909116905560006003909101819055600590610c6e83611667565b604051602001610c7e9190611eab565b60408051601f1981840301815291815281516020928301208352908201929092528101600090812080546001600160a01b03199081168255600182018054821690556002820180549091169055600301819055815163a008f70960e01b815291516001600160a01b0386169263a008f70992600480830193919282900301818387803b158015610d0d57600080fd5b505af1158015610d21573d6000803e3d6000fd5b50506040518692506001600160a01b03881691507f6b450ffe6df0ac3270ab62a27f356f84db9b321e97bc2b198448798b6238552090600090a35050506104236001600055565b60009182526001602090815260408084206001600160a01b0393909316845291905290205460ff1690565b600254604051637856879f60e11b815233600482015260009182916001600160a01b039091169063f0ad0f3e90602401602060405180830381865afa158015610de0573d6000803e3d6000fd5b505050506040513d601f19601f82011682018060405250810190610e049190611f1b565b610e205760405162461bcd60e51b815260040161079790611f36565b610e28611737565b600083602001519050336001600160a01b0316816001600160a01b03166330b67baa6040518163ffffffff1660e01b8152600401602060405180830381865afa158015610e79573d6000803e3d6000fd5b505050506040513d601f19601f82011682018060405250810190610e9d9190611efe565b6001600160a01b031614610ec35760405162461bcd60e51b815260040161079790611f8a565b6000610ed28560600151611571565b905060006001600160a01b0316600782604051610eef9190611dd9565b908152604051908190036020019020546001600160a01b031614610f705760405162461bcd60e51b815260206004820152603260248201527f457870657269656e636552656769737472793a20657870657269656e6365206e604482015271616d6520616c72656164792065786973747360701b6064820152608401610797565b600480546020870151606088015188516040808b015190516364ee8f7560e11b81526000966001600160a01b039096169563c9dd1eea95610fb995909490939092909101612144565b6020604051808303816000875af1158015610fd8573d6000803e3d6000fd5b505050506040513d601f19601f82011682018060405250810190610ffc9190611efe565b9050600061100d8760000151611667565b60405160200161101d9190611eab565b6040516020818303038152906040528051906020012090506000600360009054906101000a90046001600160a01b03166001600160a01b0316633c3f5ff46040518060400160405280866001600160a01b03168152602001866001600160a01b031663072ea61c6040518163ffffffff1660e01b8152600401602060405180830381865afa1580156110b3573d6000803e3d6000fd5b505050506040513d601f19601f820116820180604052508101906110d79190611e66565b90526040516001600160e01b031960e084901b16815281516001600160a01b0316600482015260209091015160248201526044016020604051808303816000875af115801561112a573d6000803e3d6000fd5b505050506040513d601f19601f8201168201806040525081019061114e9190611e66565b905060006040518060800160405280336001600160a01b03168152602001876001600160a01b03166330b67baa6040518163ffffffff1660e01b8152600401602060405180830381865afa1580156111aa573d6000803e3d6000fd5b505050506040513d601f19601f820116820180604052508101906111ce9190611efe565b6001600160a01b03908116825286811660208084018290526040938401879052600088815260058252848120865181549086166001600160a01b0319918216178255878401805160018085018054928a1692851692909217909155898901805160028087018054928c169287169290921790915560608c0180516003978801559887526006909752948990208a518154908a1690851617815591519082018054918916918416919091179055925193830180549490961693169290921790935590519101555190915081906007906112a7908890611dd9565b9081526040805160209281900383018120845181546001600160a01b03199081166001600160a01b039283161783558686015160018401805483169184169190911790558685015160028401805490921690831617905560609095015160039091015563185b3dd560e11b81529051878416933393908b16926330b67baa92600480830193928290030181865afa158015611346573d6000803e3d6000fd5b505050506040513d601f19601f8201168201806040525081019061136a9190611efe565b6001600160a01b03167f284da07b6c3bfd84e4304b95aae72358796b236d9ef08c1c941ff02bfe7185e5876001600160a01b03166306fdde036040518163ffffffff1660e01b8152600401600060405180830381865afa1580156113d2573d6000803e3d6000fd5b505050506040513d6000823e601f3d908101601f191682016040526113fa919081019061210f565b6040516114079190611eab565b60405180910390a4509195509093505050506114236001600055565b915091565b6000805160206122fc833981519152611440816115e1565b6001600160a01b0382166114665760405162461bcd60e51b8152600401610797906121f5565b50600380546001600160a01b0319166001600160a01b0392909216919091179055565b600082815260016020819052604090912001546114a5816115e1565b6105c383836116ca565b6000805160206122fc8339815191526114c7816115e1565b6001600160a01b0382166114ed5760405162461bcd60e51b8152600401610797906121f5565b50600280546001600160a01b0319166001600160a01b0392909216919091179055565b6000805160206122fc833981519152611528816115e1565b6001600160a01b03821661154e5760405162461bcd60e51b8152600401610797906121f5565b50600480546001600160a01b0319166001600160a01b0392909216919091179055565b60608160005b81518110156115da576115a98282815181106115955761159561223f565b01602001516001600160f81b031916611761565b8282815181106115bb576115bb61223f565b60200101906001600160f81b031916908160001a905350600101611577565b5092915050565b6115eb81336117b0565b50565b60006115fa8383610d68565b61165f5760008381526001602081815260408084206001600160a01b0387168086529252808420805460ff19169093179092559051339286917f2f8788117e7eff1d82e926ec794901d17c78024a50270940304540a733656f0d9190a4506001610423565b506000610423565b606081600001518260200151836040015161168585606001516117ed565b61169286608001516117ed565b61169f8760a001516117ed565b6040516020016116b496959493929190612255565b6040516020818303038152906040529050919050565b60006116d68383610d68565b1561165f5760008381526001602090815260408083206001600160a01b0386168085529252808320805460ff1916905551339286917ff6391f5c32d9c69d2a47ea670b442974b53935d1edc7fd64eb21e047a839171b9190a4506001610423565b60026000540361175a57604051633ee5aeb560e01b815260040160405180910390fd5b6002600055565b6000604160f81b6001600160f81b031983161080159061178f5750602d60f91b6001600160f81b0319831611155b156117ac576117a360f883901c60206122d4565b60f81b92915050565b5090565b6117ba8282610d68565b6117e95760405163e2517d3f60e01b81526001600160a01b038216600482015260248101839052604401610797565b5050565b606060006117fa83611880565b600101905060008167ffffffffffffffff81111561181a5761181a611989565b6040519080825280601f01601f191660200182016040528015611844576020820181803683370190505b5090508181016020015b600019016f181899199a1a9b1b9c1cb0b131b232b360811b600a86061a8153600a850494508461184e57509392505050565b60008072184f03e93ff9f4daa797ed6e38ed64bf6a1f0160401b83106118bf5772184f03e93ff9f4daa797ed6e38ed64bf6a1f0160401b830492506040015b6d04ee2d6d415b85acef810000000083106118eb576d04ee2d6d415b85acef8100000000830492506020015b662386f26fc10000831061190957662386f26fc10000830492506010015b6305f5e1008310611921576305f5e100830492506008015b612710831061193557612710830492506004015b60648310611947576064830492506002015b600a83106104235760010192915050565b60006020828403121561196a57600080fd5b81356001600160e01b03198116811461198257600080fd5b9392505050565b634e487b7160e01b600052604160045260246000fd5b60405160c0810167ffffffffffffffff811182821017156119c2576119c2611989565b60405290565b6040516080810167ffffffffffffffff811182821017156119c2576119c2611989565b604051601f8201601f1916810167ffffffffffffffff81118282101715611a1457611a14611989565b604052919050565b600067ffffffffffffffff821115611a3657611a36611989565b50601f01601f191660200190565b6000611a57611a5284611a1c565b6119eb565b9050828152838383011115611a6b57600080fd5b828260208301376000602084830101529392505050565b600082601f830112611a9357600080fd5b61198283833560208501611a44565b600060208284031215611ab457600080fd5b813567ffffffffffffffff811115611acb57600080fd5b61059584828501611a82565b600060208284031215611ae957600080fd5b5035919050565b6001600160a01b03811681146115eb57600080fd5b600060208284031215611b1757600080fd5b813561198281611af0565b60008060408385031215611b3557600080fd5b823591506020830135611b4781611af0565b809150509250929050565b600060c08284031215611b6457600080fd5b611b6c61199f565b9050813567ffffffffffffffff80821115611b8657600080fd5b611b9285838601611a82565b83526020840135915080821115611ba857600080fd5b611bb485838601611a82565b60208401526040840135915080821115611bcd57600080fd5b50611bda84828501611a82565b604083015250606082013560608201526080820135608082015260a082013560a082015292915050565b600060208284031215611c1657600080fd5b813567ffffffffffffffff811115611c2d57600080fd5b61059584828501611b52565b60008060208385031215611c4c57600080fd5b823567ffffffffffffffff80821115611c6457600080fd5b818501915085601f830112611c7857600080fd5b813581811115611c8757600080fd5b866020828501011115611c9957600080fd5b60209290920196919550909350505050565b60008060408385031215611cbe57600080fd5b8235611cc981611af0565b91506020830135611b4781611af0565b600060208284031215611ceb57600080fd5b813567ffffffffffffffff80821115611d0357600080fd5b9083019060808286031215611d1757600080fd5b611d1f6119c8565b823582811115611d2e57600080fd5b611d3a87828601611b52565b8252506020830135611d4b81611af0565b6020820152604083013582811115611d6257600080fd5b8301601f81018713611d7357600080fd5b611d8287823560208401611a44565b604083015250606083013582811115611d9a57600080fd5b611da687828601611a82565b60608301525095945050505050565b60005b83811015611dd0578181015183820152602001611db8565b50506000910152565b60008251611deb818460208701611db5565b9190910192915050565b80518015158114611e0557600080fd5b919050565b600060808284031215611e1c57600080fd5b611e246119c8565b8251611e2f81611af0565b81526020830151611e3f81611af0565b602082015260408381015190820152611e5a60608401611df5565b60608201529392505050565b600060208284031215611e7857600080fd5b5051919050565b60008151808452611e97816020860160208601611db5565b601f01601f19169290920160200192915050565b6020815260006119826020830184611e7f565b6001600160a01b03841681526040602082018190528101829052818360608301376000818301606090810191909152601f909201601f1916010192915050565b600060208284031215611f1057600080fd5b815161198281611af0565b600060208284031215611f2d57600080fd5b61198282611df5565b60208082526034908201527f457870657269656e636552656769737472793a2063616c6c6572206973206e6f6040820152731d0818481c9959da5cdd195c9959081ddbdc9b1960621b606082015260800190565b60208082526044908201527f457870657269656e636552656769737472793a20636f6d70616e79206973206e60408201527f6f7420726567697374657265642077697468207468652063616c6c696e6720776060820152631bdc9b1960e21b608082015260a00190565b600082601f83011261200557600080fd5b8151612013611a5282611a1c565b81815284602083860101111561202857600080fd5b610595826020830160208701611db5565b60006020828403121561204b57600080fd5b815167ffffffffffffffff8082111561206357600080fd5b9083019060c0828603121561207757600080fd5b61207f61199f565b82518281111561208e57600080fd5b61209a87828601611ff4565b8252506020830151828111156120af57600080fd5b6120bb87828601611ff4565b6020830152506040830151828111156120d357600080fd5b6120df87828601611ff4565b604083015250606083015160608201526080830151608082015260a083015160a082015280935050505092915050565b60006020828403121561212157600080fd5b815167ffffffffffffffff81111561213857600080fd5b61059584828501611ff4565b6001600160a01b038516815260806020820181905260009061216890830186611e7f565b8281036040840152845160c0825261218360c0830182611e7f565b90506020860151828203602084015261219c8282611e7f565b915050604086015182820360408401526121b68282611e7f565b915050606086015160608301526080860151608083015260a086015160a083015283810360608501526121e98186611e7f565b98975050505050505050565b6020808252602a908201527f457870657269656e636552656769737472793a207a65726f2061646472657373604082015269081b9bdd081d985b1a5960b21b606082015260800190565b634e487b7160e01b600052603260045260246000fd5b6000875160206122688285838d01611db5565b88519184019161227b8184848d01611db5565b885192019161228d8184848c01611db5565b875192019161229f8184848b01611db5565b86519201916122b18184848a01611db5565b85519201916122c38184848901611db5565b919091019998505050505050505050565b60ff818116838216019081111561042357634e487b7160e01b600052601160045260246000fdfea49807205ce4d355092ef5a8a18f56e8913cf4a201fbe287825b095693c21775a26469706673582212205324e74bae937819e9cf62d72efa021945984799e9587aa66adae4bc7d9129fc64736f6c63430008180033a49807205ce4d355092ef5a8a18f56e8913cf4a201fbe287825b095693c21775",
  "linkReferences": {},
  "deployedLinkReferences": {}
}