{
  "_format": "hh-sol-artifact-1",
  "contractName": "LibAccess",
  "sourceName": "contracts/libraries/LibAccess.sol",
  "abi": [
    {
      "anonymous": false,
      "inputs": [
        {
          "indexed": true,
          "internalType": "address",
          "name": "owner",
          "type": "address"
        },
        {
          "indexed": true,
          "internalType": "address",
          "name": "newOwner",
          "type": "address"
        }
      ],
      "name": "OwnerChanged",
      "type": "event"
    },
    {
      "anonymous": false,
      "inputs": [
        {
          "indexed": true,
          "internalType": "bytes32",
          "name": "role",
          "type": "bytes32"
        },
        {
          "indexed": true,
          "internalType": "address",
          "name": "account",
          "type": "address"
        },
        {
          "indexed": true,
          "internalType": "bool",
          "name": "grant",
          "type": "bool"
        }
      ],
      "name": "RoleChanged",
      "type": "event"
    },
    {
      "inputs": [
        {
          "internalType": "bytes32",
          "name": "role",
          "type": "bytes32"
        },
        {
          "internalType": "address",
          "name": "account",
          "type": "address"
        }
      ],
      "name": "hasRole",
      "outputs": [
        {
          "internalType": "bool",
          "name": "",
          "type": "bool"
        }
      ],
      "stateMutability": "view",
      "type": "function"
    },
    {
      "inputs": [
        {
          "internalType": "address",
          "name": "a",
          "type": "address"
        }
      ],
      "name": "isAdmin",
      "outputs": [
        {
          "internalType": "bool",
          "name": "",
          "type": "bool"
        }
      ],
      "stateMutability": "view",
      "type": "function"
    },
    {
      "inputs": [
        {
          "internalType": "address",
          "name": "a",
          "type": "address"
        }
      ],
      "name": "isSigner",
      "outputs": [
        {
          "internalType": "bool",
          "name": "",
          "type": "bool"
        }
      ],
      "stateMutability": "view",
      "type": "function"
    }
  ],
  "bytecode": "0x610f2061003a600b82828239805160001a60731461002d57634e487b7160e01b600052600060045260246000fd5b30600052607381538281f3fe730000000000000000000000000000000000000000301460806040526004361061009d5760003560e01c80638d361e43116100705780638d361e431461011e57806391d148541461013e578063d547741f14610151578063d9ac971f14610171578063e8906a2d1461019157600080fd5b806313af4035146100a257806324d7806c146100c45780632f2ff15d146100eb5780637df73e271461010b575b600080fd5b8180156100ae57600080fd5b506100c26100bd366004610d24565b6101b1565b005b6100d76100d2366004610d24565b6102ff565b604051901515815260200160405180910390f35b8180156100f757600080fd5b506100c2610106366004610d46565b61034b565b6100d7610119366004610d24565b610415565b81801561012a57600080fd5b506100c2610139366004610dbe565b610461565b6100d761014c366004610d46565b6105e6565b81801561015d57600080fd5b506100c261016c366004610d46565b610624565b81801561017d57600080fd5b506100c261018c366004610e00565b6106ed565b81801561019d57600080fd5b506100c26101ac366004610dbe565b610adc565b6001600160a01b0381166102245760405162461bcd60e51b815260206004820152602f60248201527f416363657373436f6e74726f6c3a2063616e6e6f7420736574206f776e65722060448201526e746f207a65726f206164647265737360881b60648201526084015b60405180910390fd5b600061022e610c60565b80546001600160a01b0319166001600160a01b03841690811782557f9f4e1c871d5fdd0aee1cd182666698a4492b24c6832aac230d07b11046af5a8960009081526001808401602081815260408085208686528252808520805460ff199081168617909155600080516020610eab833981519152865292825280852086865290915290922080549092161790559091506102c6610ced565b6001600160a01b03167fb532073b38c83145e3e5135377a08bf9aab55bc0fd7c1179cd4fb995d2a5159c60405160405180910390a35050565b60008061030a610c60565b600080516020610eab83398151915260009081526001909101602090815260408083206001600160a01b039096168352949052929092205460ff1692915050565b6001600160a01b0381166103ba5760405162461bcd60e51b815260206004820152603060248201527f416363657373436f6e74726f6c3a2063616e6e6f74206772616e7420726f6c6560448201526f20746f207a65726f206164647265737360801b606482015260840161021b565b60006103c4610c60565b60008481526001808301602090815260408084206001600160a01b0388168086529252808420805460ff19168417905551939450909290918691600080516020610ecb8339815191529190a4505050565b600080610420610c60565b600080516020610e8b83398151915260009081526001909101602090815260408083206001600160a01b039096168352949052929092205460ff1692915050565b600061046b610c60565b600080516020610e8b833981519152600090815260018201602052604081209192505b838110156105df5760008585838181106104aa576104aa610e53565b90506020020160208101906104bf9190610d24565b6001600160a01b0316036105315760405162461bcd60e51b815260206004820152603360248201527f5368617265644c69624163636573733a2063616e6e6f742072656d6f7665207a60448201527265726f2061646472657373207369676e65727360681b606482015260840161021b565b81600086868481811061054657610546610e53565b905060200201602081019061055b9190610d24565b6001600160a01b0316815260208101919091526040016000908120805460ff1916905585858381811061059057610590610e53565b90506020020160208101906105a59190610d24565b6001600160a01b0316600080516020610e8b833981519152600080516020610ecb83398151915260405160405180910390a460010161048e565b5050505050565b6000806105f1610c60565b60008581526001909101602090815260408083206001600160a01b038716845290915290205460ff169150505b92915050565b6001600160a01b0381166106965760405162461bcd60e51b815260206004820152603360248201527f416363657373436f6e74726f6c3a2063616e6e6f74207265766f6b6520726f6c604482015272652066726f6d207a65726f206164647265737360681b606482015260840161021b565b60006106a0610c60565b600084815260018201602090815260408083206001600160a01b0387168085529252808320805460ff191690555192935090918590600080516020610ecb833981519152908490a4505050565b60006106f7610c60565b80549091506001600160a01b0316156107485760405162461bcd60e51b8152602060048201526013602482015272105b1c9958591e481a5b9a5d1a585b1a5e9959606a1b604482015260640161021b565b6001600160a01b03841661079e5760405162461bcd60e51b815260206004820152601c60248201527f4f776e65722063616e6e6f74206265207a65726f206164647265737300000000604482015260640161021b565b80546001600160a01b0319166001600160a01b03851690811782557f9f4e1c871d5fdd0aee1cd182666698a4492b24c6832aac230d07b11046af5a896000908152600180840160209081526040808420600080516020610eab8339815191528552818520600080516020610e8b8339815191528652828620878752828552838720805460ff1990811688179091558286528488208054821688179055948190528387208054909516909517909355905190949193907fb532073b38c83145e3e5135377a08bf9aab55bc0fd7c1179cd4fb995d2a5159c908290a36040516001906001600160a01b03891690600080516020610eab83398151915290600080516020610ecb83398151915290600090a46040516001906001600160a01b03891690600080516020610e8b83398151915290600080516020610ecb83398151915290600090a460005b85811015610ad257600087878381811061090157610901610e53565b90506020020160208101906109169190610d24565b6001600160a01b03160361096c5760405162461bcd60e51b815260206004820152601d60248201527f41646d696e732063616e6e6f74206265207a65726f2061646472657373000000604482015260640161021b565b600183600089898581811061098357610983610e53565b90506020020160208101906109989190610d24565b6001600160a01b031681526020810191909152604001600020805460ff191691151591909117905560018787838181106109d4576109d4610e53565b90506020020160208101906109e99190610d24565b6001600160a01b0316600080516020610eab833981519152600080516020610ecb83398151915260405160405180910390a46001826000898985818110610a3257610a32610e53565b9050602002016020810190610a479190610d24565b6001600160a01b031681526020810191909152604001600020805460ff19169115159190911790556001878783818110610a8357610a83610e53565b9050602002016020810190610a989190610d24565b6001600160a01b0316600080516020610e8b833981519152600080516020610ecb83398151915260405160405180910390a46001016108e5565b5050505050505050565b6000610ae6610c60565b600080516020610e8b833981519152600090815260018201602052604081209192505b838110156105df576000858583818110610b2557610b25610e53565b9050602002016020810190610b3a9190610d24565b6001600160a01b031603610ba95760405162461bcd60e51b815260206004820152603060248201527f5368617265644c69624163636573733a2063616e6e6f7420616464207a65726f60448201526f2061646472657373207369676e65727360801b606482015260840161021b565b6001826000878785818110610bc057610bc0610e53565b9050602002016020810190610bd59190610d24565b6001600160a01b031681526020810191909152604001600020805460ff19169115159190911790556001858583818110610c1157610c11610e53565b9050602002016020810190610c269190610d24565b6001600160a01b0316600080516020610e8b833981519152600080516020610ecb83398151915260405160405180910390a4600101610b09565b60408051808201909152601481527378722e6163636573732e73746f726167652e763160601b60209091015260008060ff610cbc60017fd870894b15ee1369a593f3670ac51c4ed8201dab473944ee712694d327dd5875610e69565b604051602001610cce91815260200190565b60408051601f1981840301815291905280516020909101201692915050565b600080610cf8610c60565b546001600160a01b031692915050565b80356001600160a01b0381168114610d1f57600080fd5b919050565b600060208284031215610d3657600080fd5b610d3f82610d08565b9392505050565b60008060408385031215610d5957600080fd5b82359150610d6960208401610d08565b90509250929050565b60008083601f840112610d8457600080fd5b50813567ffffffffffffffff811115610d9c57600080fd5b6020830191508360208260051b8501011115610db757600080fd5b9250929050565b60008060208385031215610dd157600080fd5b823567ffffffffffffffff811115610de857600080fd5b610df485828601610d72565b90969095509350505050565b600080600060408486031215610e1557600080fd5b610e1e84610d08565b9250602084013567ffffffffffffffff811115610e3a57600080fd5b610e4686828701610d72565b9497909650939450505050565b634e487b7160e01b600052603260045260246000fd5b8181038181111561061e57634e487b7160e01b600052601160045260246000fdfe749410edf1177aefa27612b24d2d51e6441f89613f5ddf9be1d11dfc0d3e4fea2172861495e7b85edac73e3cd5fbb42dd675baadf627720e687bcfdaca0250963352791f0acece7bf88bbdb3abbffbe25f6624ee93f29115b99842f9f47452fda26469706673582212207041bdca0bbdb89affd3648022ee01dc3454928a3f5166a80d1138702a4604ce64736f6c63430008180033",
  "linkReferences": {},
  "deployedLinkReferences": {}
}