{
  "_format": "hh-sol-artifact-1",
  "contractName": "LibVectorAddress",
  "sourceName": "contracts/libraries/LibVectorAddress.sol",
  "abi": [
    {
      "inputs": [],
      "name": "ECDSAInvalidSignature",
      "type": "error"
    },
    {
      "inputs": [
        {
          "internalType": "uint256",
          "name": "length",
          "type": "uint256"
        }
      ],
      "name": "ECDSAInvalidSignatureLength",
      "type": "error"
    },
    {
      "inputs": [
        {
          "internalType": "bytes32",
          "name": "s",
          "type": "bytes32"
        }
      ],
      "name": "ECDSAInvalidSignatureS",
      "type": "error"
    },
    {
      "inputs": [
        {
          "components": [
            {
              "internalType": "string",
              "name": "x",
              "type": "string"
            },
            {
              "internalType": "string",
              "name": "y",
              "type": "string"
            },
            {
              "internalType": "string",
              "name": "z",
              "type": "string"
            },
            {
              "internalType": "uint256",
              "name": "t",
              "type": "uint256"
            },
            {
              "internalType": "uint256",
              "name": "p",
              "type": "uint256"
            },
            {
              "internalType": "uint256",
              "name": "p_sub",
              "type": "uint256"
            }
          ],
          "internalType": "struct VectorAddress",
          "name": "self",
          "type": "tuple"
        }
      ],
      "name": "asLookupKey",
      "outputs": [
        {
          "internalType": "string",
          "name": "",
          "type": "string"
        }
      ],
      "stateMutability": "pure",
      "type": "function"
    },
    {
      "inputs": [
        {
          "components": [
            {
              "internalType": "string",
              "name": "x",
              "type": "string"
            },
            {
              "internalType": "string",
              "name": "y",
              "type": "string"
            },
            {
              "internalType": "string",
              "name": "z",
              "type": "string"
            },
            {
              "internalType": "uint256",
              "name": "t",
              "type": "uint256"
            },
            {
              "internalType": "uint256",
              "name": "p",
              "type": "uint256"
            },
            {
              "internalType": "uint256",
              "name": "p_sub",
              "type": "uint256"
            }
          ],
          "internalType": "struct VectorAddress",
          "name": "self",
          "type": "tuple"
        },
        {
          "components": [
            {
              "internalType": "string",
              "name": "x",
              "type": "string"
            },
            {
              "internalType": "string",
              "name": "y",
              "type": "string"
            },
            {
              "internalType": "string",
              "name": "z",
              "type": "string"
            },
            {
              "internalType": "uint256",
              "name": "t",
              "type": "uint256"
            },
            {
              "internalType": "uint256",
              "name": "p",
              "type": "uint256"
            },
            {
              "internalType": "uint256",
              "name": "p_sub",
              "type": "uint256"
            }
          ],
          "internalType": "struct VectorAddress",
          "name": "other",
          "type": "tuple"
        }
      ],
      "name": "equals",
      "outputs": [
        {
          "internalType": "bool",
          "name": "",
          "type": "bool"
        }
      ],
      "stateMutability": "pure",
      "type": "function"
    },
    {
      "inputs": [
        {
          "components": [
            {
              "internalType": "string",
              "name": "x",
              "type": "string"
            },
            {
              "internalType": "string",
              "name": "y",
              "type": "string"
            },
            {
              "internalType": "string",
              "name": "z",
              "type": "string"
            },
            {
              "internalType": "uint256",
              "name": "t",
              "type": "uint256"
            },
            {
              "internalType": "uint256",
              "name": "p",
              "type": "uint256"
            },
            {
              "internalType": "uint256",
              "name": "p_sub",
              "type": "uint256"
            }
          ],
          "internalType": "struct VectorAddress",
          "name": "self",
          "type": "tuple"
        },
        {
          "internalType": "address",
          "name": "registrar",
          "type": "address"
        },
        {
          "internalType": "bytes",
          "name": "signature",
          "type": "bytes"
        }
      ],
      "name": "getSigner",
      "outputs": [
        {
          "internalType": "address",
          "name": "",
          "type": "address"
        }
      ],
      "stateMutability": "pure",
      "type": "function"
    },
    {
      "inputs": [
        {
          "components": [
            {
              "internalType": "string",
              "name": "x",
              "type": "string"
            },
            {
              "internalType": "string",
              "name": "y",
              "type": "string"
            },
            {
              "internalType": "string",
              "name": "z",
              "type": "string"
            },
            {
              "internalType": "uint256",
              "name": "t",
              "type": "uint256"
            },
            {
              "internalType": "uint256",
              "name": "p",
              "type": "uint256"
            },
            {
              "internalType": "uint256",
              "name": "p_sub",
              "type": "uint256"
            }
          ],
          "internalType": "struct VectorAddress",
          "name": "self",
          "type": "tuple"
        },
        {
          "internalType": "bool",
          "name": "needsP",
          "type": "bool"
        },
        {
          "internalType": "bool",
          "name": "needsPSub",
          "type": "bool"
        }
      ],
      "name": "validate",
      "outputs": [],
      "stateMutability": "pure",
      "type": "function"
    }
  ],
  "bytecode": "0x610da261003a600b82828239805160001a60731461002d57634e487b7160e01b600052600060045260246000fd5b30600052607381538281f3fe73000000000000000000000000000000000000000030146080604052600436106100565760003560e01c806303dc34e91461005b5780635e650a531461008b57806361d9624d146100ae578063a698485c146100c3575b600080fd5b61006e610069366004610a27565b6100e3565b6040516001600160a01b0390911681526020015b60405180910390f35b61009e610099366004610abf565b61016b565b6040519015158152602001610082565b6100c16100bc366004610b38565b6101d4565b005b6100d66100d1366004610b96565b61048c565b6040516100829190610c23565b6000806100ef8561048c565b905060008185604051602001610106929190610c36565b60408051808303601f19018152828252805160208083019190912081855284840190935290935090916000916020820181803683370190505090508160208201526000610152826104ef565b905061015e818861052a565b9998505050505050505050565b60006101768261048c565b6040516020016101869190610c60565b604051602081830303815290604052805190602001206101a58461048c565b6040516020016101b59190610c60565b6040516020818303038152906040528051906020012014905092915050565b8251516102325760405162461bcd60e51b815260206004820152602160248201527f4c6962566563746f72416464726573733a20696e76616c696420782076616c756044820152606560f81b60648201526084015b60405180910390fd5b6000836020015151116102915760405162461bcd60e51b815260206004820152602160248201527f4c6962566563746f72416464726573733a20696e76616c696420792076616c756044820152606560f81b6064820152608401610229565b6000836040015151116102f05760405162461bcd60e51b815260206004820152602160248201527f4c6962566563746f72416464726573733a20696e76616c6964207a2076616c756044820152606560f81b6064820152608401610229565b81156103595760008360800151116103545760405162461bcd60e51b815260206004820152602160248201527f4c6962566563746f72416464726573733a20696e76616c696420702076616c756044820152606560f81b6064820152608401610229565b6103ba565b6080830151156103ba5760405162461bcd60e51b815260206004820152602660248201527f4c6962566563746f72416464726573733a20702076616c7565206d757374206260448201526565207a65726f60d01b6064820152608401610229565b80156104275760008360a00151116104225760405162461bcd60e51b815260206004820152602560248201527f4c6962566563746f72416464726573733a20696e76616c696420705f7375622060448201526476616c756560d81b6064820152608401610229565b505050565b60a0830151156104225760405162461bcd60e51b815260206004820152602a60248201527f4c6962566563746f72416464726573733a20705f7375622076616c7565206d756044820152697374206265207a65726f60b01b6064820152608401610229565b60608160000151826020015183604001516104aa8560600151610554565b6104b78660800151610554565b6104c48760a00151610554565b6040516020016104d996959493929190610c7c565b6040516020818303038152906040529050919050565b60006104fb8251610554565b8260405160200161050d929190610cfb565b604051602081830303815290604052805190602001209050919050565b60008060008061053a86866105e7565b92509250925061054a8282610634565b5090949350505050565b60606000610561836106f1565b600101905060008167ffffffffffffffff81111561058157610581610899565b6040519080825280601f01601f1916602001820160405280156105ab576020820181803683370190505b5090508181016020015b600019016f181899199a1a9b1b9c1cb0b131b232b360811b600a86061a8153600a85049450846105b557509392505050565b600080600083516041036106215760208401516040850151606086015160001a610613888285856107ca565b95509550955050505061062d565b50508151600091506002905b9250925092565b600082600381111561064857610648610d56565b03610651575050565b600182600381111561066557610665610d56565b036106835760405163f645eedf60e01b815260040160405180910390fd5b600282600381111561069757610697610d56565b036106b85760405163fce698f760e01b815260048101829052602401610229565b60038260038111156106cc576106cc610d56565b036106ed576040516335e2f38360e21b815260048101829052602401610229565b5050565b60008072184f03e93ff9f4daa797ed6e38ed64bf6a1f0160401b83106107305772184f03e93ff9f4daa797ed6e38ed64bf6a1f0160401b830492506040015b6d04ee2d6d415b85acef8100000000831061075c576d04ee2d6d415b85acef8100000000830492506020015b662386f26fc10000831061077a57662386f26fc10000830492506010015b6305f5e1008310610792576305f5e100830492506008015b61271083106107a657612710830492506004015b606483106107b8576064830492506002015b600a83106107c4576001015b92915050565b600080807f7fffffffffffffffffffffffffffffff5d576e7357a4501ddfe92f46681b20a0841115610805575060009150600390508261088f565b604080516000808252602082018084528a905260ff891692820192909252606081018790526080810186905260019060a0016020604051602081039080840390855afa158015610859573d6000803e3d6000fd5b5050604051601f1901519150506001600160a01b0381166108855750600092506001915082905061088f565b9250600091508190505b9450945094915050565b634e487b7160e01b600052604160045260246000fd5b60405160c0810167ffffffffffffffff811182821017156108d2576108d2610899565b60405290565b600067ffffffffffffffff808411156108f3576108f3610899565b604051601f8501601f19908116603f0116810190828211818310171561091b5761091b610899565b8160405280935085815286868601111561093457600080fd5b858560208301376000602087830101525050509392505050565b600082601f83011261095f57600080fd5b61096e838335602085016108d8565b9392505050565b600060c0828403121561098757600080fd5b61098f6108af565b9050813567ffffffffffffffff808211156109a957600080fd5b6109b58583860161094e565b835260208401359150808211156109cb57600080fd5b6109d78583860161094e565b602084015260408401359150808211156109f057600080fd5b506109fd8482850161094e565b604083015250606082013560608201526080820135608082015260a082013560a082015292915050565b600080600060608486031215610a3c57600080fd5b833567ffffffffffffffff80821115610a5457600080fd5b610a6087838801610975565b9450602086013591506001600160a01b0382168214610a7e57600080fd5b90925060408501359080821115610a9457600080fd5b508401601f81018613610aa657600080fd5b610ab5868235602084016108d8565b9150509250925092565b60008060408385031215610ad257600080fd5b823567ffffffffffffffff80821115610aea57600080fd5b610af686838701610975565b93506020850135915080821115610b0c57600080fd5b50610b1985828601610975565b9150509250929050565b80358015158114610b3357600080fd5b919050565b600080600060608486031215610b4d57600080fd5b833567ffffffffffffffff811115610b6457600080fd5b610b7086828701610975565b935050610b7f60208501610b23565b9150610b8d60408501610b23565b90509250925092565b600060208284031215610ba857600080fd5b813567ffffffffffffffff811115610bbf57600080fd5b610bcb84828501610975565b949350505050565b60005b83811015610bee578181015183820152602001610bd6565b50506000910152565b60008151808452610c0f816020860160208601610bd3565b601f01601f19169290920160200192915050565b60208152600061096e6020830184610bf7565b604081526000610c496040830185610bf7565b905060018060a01b03831660208301529392505050565b60008251610c72818460208701610bd3565b9190910192915050565b600087516020610c8f8285838d01610bd3565b885191840191610ca28184848d01610bd3565b8851920191610cb48184848c01610bd3565b8751920191610cc68184848b01610bd3565b8651920191610cd88184848a01610bd3565b8551920191610cea8184848901610bd3565b919091019998505050505050505050565b7f19457468657265756d205369676e6564204d6573736167653a0a000000000000815260008351610d3381601a850160208801610bd3565b835190830190610d4a81601a840160208801610bd3565b01601a01949350505050565b634e487b7160e01b600052602160045260246000fdfea2646970667358221220f2c6b50450c5dce7d568bffd4fecf3c92ff42e604bac57756cb0d3dadabfe30e64736f6c63430008180033",
  "linkReferences": {},
  "deployedLinkReferences": {}
}