{
  "_format": "hh-sol-artifact-1",
  "contractName": "NTERC721Asset",
  "sourceName": "contracts/asset/instance/erc721/NTERC721Asset.sol",
  "abi": [
    {
      "inputs": [
        {
          "components": [
            {
              "internalType": "address",
              "name": "assetRegistry",
              "type": "address"
            },
            {
              "internalType": "address",
              "name": "avatarRegistry",
              "type": "address"
            },
            {
              "internalType": "address",
              "name": "companyRegistry",
              "type": "address"
            }
          ],
          "internalType": "struct BaseAssetConstructorArgs",
          "name": "args",
          "type": "tuple"
        }
      ],
      "stateMutability": "nonpayable",
      "type": "constructor"
    },
    {
      "inputs": [
        {
          "internalType": "address",
          "name": "operator",
          "type": "address"
        },
        {
          "internalType": "uint256",
          "name": "tokenId",
          "type": "uint256"
        }
      ],
      "name": "ERC721InsufficientApproval",
      "type": "error"
    },
    {
      "inputs": [
        {
          "internalType": "address",
          "name": "approver",
          "type": "address"
        }
      ],
      "name": "ERC721InvalidApprover",
      "type": "error"
    },
    {
      "inputs": [
        {
          "internalType": "address",
          "name": "owner",
          "type": "address"
        }
      ],
      "name": "ERC721InvalidOwner",
      "type": "error"
    },
    {
      "inputs": [
        {
          "internalType": "address",
          "name": "receiver",
          "type": "address"
        }
      ],
      "name": "ERC721InvalidReceiver",
      "type": "error"
    },
    {
      "inputs": [
        {
          "internalType": "address",
          "name": "sender",
          "type": "address"
        }
      ],
      "name": "ERC721InvalidSender",
      "type": "error"
    },
    {
      "inputs": [
        {
          "internalType": "uint256",
          "name": "tokenId",
          "type": "uint256"
        }
      ],
      "name": "ERC721NonexistentToken",
      "type": "error"
    },
    {
      "inputs": [],
      "name": "ReentrancyGuardReentrantCall",
      "type": "error"
    },
    {
      "anonymous": false,
      "inputs": [
        {
          "indexed": true,
          "internalType": "address",
          "name": "owner",
          "type": "address"
        },
        {
          "indexed": true,
          "internalType": "address",
          "name": "approved",
          "type": "address"
        },
        {
          "indexed": true,
          "internalType": "uint256",
          "name": "tokenId",
          "type": "uint256"
        }
      ],
      "name": "Approval",
      "type": "event"
    },
    {
      "anonymous": false,
      "inputs": [
        {
          "indexed": true,
          "internalType": "address",
          "name": "owner",
          "type": "address"
        },
        {
          "indexed": true,
          "internalType": "address",
          "name": "approved",
          "type": "address"
        },
        {
          "indexed": true,
          "internalType": "uint256",
          "name": "tokenId",
          "type": "uint256"
        }
      ],
      "name": "Approval",
      "type": "event"
    },
    {
      "anonymous": false,
      "inputs": [],
      "name": "AssetConditionRemoved",
      "type": "event"
    },
    {
      "anonymous": false,
      "inputs": [
        {
          "indexed": false,
          "internalType": "address",
          "name": "condition",
          "type": "address"
        }
      ],
      "name": "AssetConditionSet",
      "type": "event"
    },
    {
      "anonymous": false,
      "inputs": [
        {
          "indexed": false,
          "internalType": "string",
          "name": "baseURI",
          "type": "string"
        }
      ],
      "name": "BaseURIChanged",
      "type": "event"
    },
    {
      "anonymous": false,
      "inputs": [
        {
          "indexed": true,
          "internalType": "address",
          "name": "to",
          "type": "address"
        },
        {
          "indexed": true,
          "internalType": "uint256",
          "name": "tokenId",
          "type": "uint256"
        }
      ],
      "name": "ERC721Minted",
      "type": "event"
    },
    {
      "anonymous": false,
      "inputs": [
        {
          "indexed": true,
          "internalType": "address",
          "name": "by",
          "type": "address"
        },
        {
          "indexed": false,
          "internalType": "string",
          "name": "reason",
          "type": "string"
        }
      ],
      "name": "EntityDeactivated",
      "type": "event"
    },
    {
      "anonymous": false,
      "inputs": [
        {
          "indexed": true,
          "internalType": "address",
          "name": "by",
          "type": "address"
        }
      ],
      "name": "EntityReactivated",
      "type": "event"
    },
    {
      "anonymous": false,
      "inputs": [
        {
          "indexed": true,
          "internalType": "address",
          "name": "by",
          "type": "address"
        },
        {
          "indexed": false,
          "internalType": "string",
          "name": "reason",
          "type": "string"
        }
      ],
      "name": "EntityRemoved",
      "type": "event"
    },
    {
      "anonymous": false,
      "inputs": [
        {
          "indexed": true,
          "internalType": "address",
          "name": "owner",
          "type": "address"
        },
        {
          "indexed": true,
          "internalType": "address",
          "name": "newOwner",
          "type": "address"
        }
      ],
      "name": "OwnerChanged",
      "type": "event"
    },
    {
      "anonymous": false,
      "inputs": [
        {
          "indexed": true,
          "internalType": "bytes32",
          "name": "role",
          "type": "bytes32"
        },
        {
          "indexed": true,
          "internalType": "address",
          "name": "account",
          "type": "address"
        },
        {
          "indexed": true,
          "internalType": "bool",
          "name": "grant",
          "type": "bool"
        }
      ],
      "name": "RoleChanged",
      "type": "event"
    },
    {
      "anonymous": false,
      "inputs": [
        {
          "indexed": false,
          "internalType": "address",
          "name": "signer",
          "type": "address"
        },
        {
          "indexed": false,
          "internalType": "bool",
          "name": "grant",
          "type": "bool"
        }
      ],
      "name": "SignerChanged",
      "type": "event"
    },
    {
      "anonymous": false,
      "inputs": [
        {
          "indexed": true,
          "internalType": "address",
          "name": "from",
          "type": "address"
        },
        {
          "indexed": true,
          "internalType": "address",
          "name": "to",
          "type": "address"
        },
        {
          "indexed": true,
          "internalType": "uint256",
          "name": "tokenId",
          "type": "uint256"
        }
      ],
      "name": "Transfer",
      "type": "event"
    },
    {
      "anonymous": false,
      "inputs": [
        {
          "indexed": true,
          "internalType": "address",
          "name": "from",
          "type": "address"
        },
        {
          "indexed": true,
          "internalType": "address",
          "name": "to",
          "type": "address"
        },
        {
          "indexed": true,
          "internalType": "uint256",
          "name": "tokenId",
          "type": "uint256"
        }
      ],
      "name": "Transfer",
      "type": "event"
    },
    {
      "inputs": [
        {
          "internalType": "address[]",
          "name": "signers",
          "type": "address[]"
        }
      ],
      "name": "addSigners",
      "outputs": [],
      "stateMutability": "nonpayable",
      "type": "function"
    },
    {
      "inputs": [
        {
          "internalType": "address",
          "name": "",
          "type": "address"
        },
        {
          "internalType": "uint256",
          "name": "",
          "type": "uint256"
        }
      ],
      "name": "approve",
      "outputs": [
        {
          "internalType": "bool",
          "name": "",
          "type": "bool"
        }
      ],
      "stateMutability": "pure",
      "type": "function"
    },
    {
      "inputs": [],
      "name": "assetRegistry",
      "outputs": [
        {
          "internalType": "address",
          "name": "",
          "type": "address"
        }
      ],
      "stateMutability": "view",
      "type": "function"
    },
    {
      "inputs": [],
      "name": "avatarRegistry",
      "outputs": [
        {
          "internalType": "contract IAvatarRegistry",
          "name": "",
          "type": "address"
        }
      ],
      "stateMutability": "view",
      "type": "function"
    },
    {
      "inputs": [
        {
          "internalType": "address",
          "name": "_owner",
          "type": "address"
        }
      ],
      "name": "balanceOf",
      "outputs": [
        {
          "internalType": "uint256",
          "name": "",
          "type": "uint256"
        }
      ],
      "stateMutability": "view",
      "type": "function"
    },
    {
      "inputs": [
        {
          "internalType": "address",
          "name": "to",
          "type": "address"
        }
      ],
      "name": "canMint",
      "outputs": [
        {
          "internalType": "bool",
          "name": "",
          "type": "bool"
        }
      ],
      "stateMutability": "view",
      "type": "function"
    },
    {
      "inputs": [
        {
          "components": [
            {
              "internalType": "address",
              "name": "asset",
              "type": "address"
            },
            {
              "internalType": "address",
              "name": "world",
              "type": "address"
            },
            {
              "internalType": "address",
              "name": "company",
              "type": "address"
            },
            {
              "internalType": "address",
              "name": "experience",
              "type": "address"
            },
            {
              "internalType": "address",
              "name": "avatar",
              "type": "address"
            }
          ],
          "internalType": "struct AssetCheckArgs",
          "name": "args",
          "type": "tuple"
        }
      ],
      "name": "canUseAsset",
      "outputs": [
        {
          "internalType": "bool",
          "name": "",
          "type": "bool"
        }
      ],
      "stateMutability": "view",
      "type": "function"
    },
    {
      "inputs": [
        {
          "components": [
            {
              "internalType": "address",
              "name": "asset",
              "type": "address"
            },
            {
              "internalType": "address",
              "name": "world",
              "type": "address"
            },
            {
              "internalType": "address",
              "name": "company",
              "type": "address"
            },
            {
              "internalType": "address",
              "name": "experience",
              "type": "address"
            },
            {
              "internalType": "address",
              "name": "avatar",
              "type": "address"
            }
          ],
          "internalType": "struct AssetCheckArgs",
          "name": "args",
          "type": "tuple"
        }
      ],
      "name": "canViewAsset",
      "outputs": [
        {
          "internalType": "bool",
          "name": "",
          "type": "bool"
        }
      ],
      "stateMutability": "view",
      "type": "function"
    },
    {
      "inputs": [
        {
          "internalType": "address",
          "name": "newOwner",
          "type": "address"
        }
      ],
      "name": "changeOwner",
      "outputs": [],
      "stateMutability": "nonpayable",
      "type": "function"
    },
    {
      "inputs": [],
      "name": "companyRegistry",
      "outputs": [
        {
          "internalType": "contract ICompanyRegistry",
          "name": "",
          "type": "address"
        }
      ],
      "stateMutability": "view",
      "type": "function"
    },
    {
      "inputs": [
        {
          "internalType": "string",
          "name": "reason",
          "type": "string"
        }
      ],
      "name": "deactivate",
      "outputs": [],
      "stateMutability": "nonpayable",
      "type": "function"
    },
    {
      "inputs": [
        {
          "internalType": "uint256",
          "name": "tokenId",
          "type": "uint256"
        }
      ],
      "name": "getApproved",
      "outputs": [
        {
          "internalType": "address",
          "name": "",
          "type": "address"
        }
      ],
      "stateMutability": "view",
      "type": "function"
    },
    {
      "inputs": [
        {
          "internalType": "bytes32",
          "name": "role",
          "type": "bytes32"
        },
        {
          "internalType": "address",
          "name": "account",
          "type": "address"
        }
      ],
      "name": "grantRole",
      "outputs": [],
      "stateMutability": "nonpayable",
      "type": "function"
    },
    {
      "inputs": [
        {
          "internalType": "bytes32",
          "name": "role",
          "type": "bytes32"
        },
        {
          "internalType": "address",
          "name": "account",
          "type": "address"
        }
      ],
      "name": "hasRole",
      "outputs": [
        {
          "internalType": "bool",
          "name": "",
          "type": "bool"
        }
      ],
      "stateMutability": "view",
      "type": "function"
    },
    {
      "inputs": [
        {
          "components": [
            {
              "internalType": "string",
              "name": "name",
              "type": "string"
            },
            {
              "internalType": "string",
              "name": "symbol",
              "type": "string"
            },
            {
              "internalType": "address",
              "name": "issuer",
              "type": "address"
            },
            {
              "internalType": "address",
              "name": "originAddress",
              "type": "address"
            },
            {
              "internalType": "uint256",
              "name": "originChainId",
              "type": "uint256"
            },
            {
              "internalType": "bytes",
              "name": "initData",
              "type": "bytes"
            }
          ],
          "internalType": "struct AssetInitArgs",
          "name": "args",
          "type": "tuple"
        }
      ],
      "name": "init",
      "outputs": [],
      "stateMutability": "nonpayable",
      "type": "function"
    },
    {
      "inputs": [
        {
          "internalType": "address",
          "name": "account",
          "type": "address"
        }
      ],
      "name": "isAdmin",
      "outputs": [
        {
          "internalType": "bool",
          "name": "",
          "type": "bool"
        }
      ],
      "stateMutability": "view",
      "type": "function"
    },
    {
      "inputs": [
        {
          "internalType": "address",
          "name": "_owner",
          "type": "address"
        },
        {
          "internalType": "address",
          "name": "operator",
          "type": "address"
        }
      ],
      "name": "isApprovedForAll",
      "outputs": [
        {
          "internalType": "bool",
          "name": "",
          "type": "bool"
        }
      ],
      "stateMutability": "view",
      "type": "function"
    },
    {
      "inputs": [],
      "name": "isEntityActive",
      "outputs": [
        {
          "internalType": "bool",
          "name": "",
          "type": "bool"
        }
      ],
      "stateMutability": "view",
      "type": "function"
    },
    {
      "inputs": [],
      "name": "isRemoved",
      "outputs": [
        {
          "internalType": "bool",
          "name": "",
          "type": "bool"
        }
      ],
      "stateMutability": "view",
      "type": "function"
    },
    {
      "inputs": [
        {
          "internalType": "address",
          "name": "account",
          "type": "address"
        }
      ],
      "name": "isSigner",
      "outputs": [
        {
          "internalType": "bool",
          "name": "",
          "type": "bool"
        }
      ],
      "stateMutability": "view",
      "type": "function"
    },
    {
      "inputs": [],
      "name": "issuer",
      "outputs": [
        {
          "internalType": "address",
          "name": "",
          "type": "address"
        }
      ],
      "stateMutability": "view",
      "type": "function"
    },
    {
      "inputs": [
        {
          "internalType": "address",
          "name": "to",
          "type": "address"
        }
      ],
      "name": "mint",
      "outputs": [],
      "stateMutability": "nonpayable",
      "type": "function"
    },
    {
      "inputs": [],
      "name": "name",
      "outputs": [
        {
          "internalType": "string",
          "name": "",
          "type": "string"
        }
      ],
      "stateMutability": "view",
      "type": "function"
    },
    {
      "inputs": [],
      "name": "originAddress",
      "outputs": [
        {
          "internalType": "address",
          "name": "",
          "type": "address"
        }
      ],
      "stateMutability": "view",
      "type": "function"
    },
    {
      "inputs": [],
      "name": "originChainId",
      "outputs": [
        {
          "internalType": "uint256",
          "name": "",
          "type": "uint256"
        }
      ],
      "stateMutability": "view",
      "type": "function"
    },
    {
      "inputs": [],
      "name": "owner",
      "outputs": [
        {
          "internalType": "address",
          "name": "",
          "type": "address"
        }
      ],
      "stateMutability": "view",
      "type": "function"
    },
    {
      "inputs": [
        {
          "internalType": "uint256",
          "name": "tokenId",
          "type": "uint256"
        }
      ],
      "name": "ownerOf",
      "outputs": [
        {
          "internalType": "address",
          "name": "",
          "type": "address"
        }
      ],
      "stateMutability": "view",
      "type": "function"
    },
    {
      "inputs": [
        {
          "internalType": "bytes",
          "name": "",
          "type": "bytes"
        }
      ],
      "name": "postUpgradeInit",
      "outputs": [],
      "stateMutability": "nonpayable",
      "type": "function"
    },
    {
      "inputs": [],
      "name": "reactivate",
      "outputs": [],
      "stateMutability": "nonpayable",
      "type": "function"
    },
    {
      "inputs": [
        {
          "internalType": "string",
          "name": "reason",
          "type": "string"
        }
      ],
      "name": "remove",
      "outputs": [],
      "stateMutability": "nonpayable",
      "type": "function"
    },
    {
      "inputs": [],
      "name": "removeCondition",
      "outputs": [],
      "stateMutability": "nonpayable",
      "type": "function"
    },
    {
      "inputs": [
        {
          "internalType": "address[]",
          "name": "signers",
          "type": "address[]"
        }
      ],
      "name": "removeSigners",
      "outputs": [],
      "stateMutability": "nonpayable",
      "type": "function"
    },
    {
      "inputs": [
        {
          "internalType": "address",
          "name": "holder",
          "type": "address"
        },
        {
          "internalType": "uint256",
          "name": "tokenId",
          "type": "uint256"
        }
      ],
      "name": "revoke",
      "outputs": [],
      "stateMutability": "nonpayable",
      "type": "function"
    },
    {
      "inputs": [
        {
          "internalType": "bytes32",
          "name": "role",
          "type": "bytes32"
        },
        {
          "internalType": "address",
          "name": "account",
          "type": "address"
        }
      ],
      "name": "revokeRole",
      "outputs": [],
      "stateMutability": "nonpayable",
      "type": "function"
    },
    {
      "inputs": [
        {
          "internalType": "address",
          "name": "from",
          "type": "address"
        },
        {
          "internalType": "address",
          "name": "to",
          "type": "address"
        },
        {
          "internalType": "uint256",
          "name": "tokenId",
          "type": "uint256"
        }
      ],
      "name": "safeTransferFrom",
      "outputs": [],
      "stateMutability": "nonpayable",
      "type": "function"
    },
    {
      "inputs": [
        {
          "internalType": "address",
          "name": "",
          "type": "address"
        },
        {
          "internalType": "address",
          "name": "",
          "type": "address"
        },
        {
          "internalType": "uint256",
          "name": "",
          "type": "uint256"
        },
        {
          "internalType": "bytes",
          "name": "",
          "type": "bytes"
        }
      ],
      "name": "safeTransferFrom",
      "outputs": [],
      "stateMutability": "nonpayable",
      "type": "function"
    },
    {
      "inputs": [
        {
          "internalType": "address",
          "name": "",
          "type": "address"
        },
        {
          "internalType": "bool",
          "name": "",
          "type": "bool"
        }
      ],
      "name": "setApprovalForAll",
      "outputs": [],
      "stateMutability": "nonpayable",
      "type": "function"
    },
    {
      "inputs": [
        {
          "internalType": "string",
          "name": "uri",
          "type": "string"
        }
      ],
      "name": "setBaseURI",
      "outputs": [],
      "stateMutability": "nonpayable",
      "type": "function"
    },
    {
      "inputs": [
        {
          "internalType": "address",
          "name": "condition",
          "type": "address"
        }
      ],
      "name": "setCondition",
      "outputs": [],
      "stateMutability": "nonpayable",
      "type": "function"
    },
    {
      "inputs": [
        {
          "internalType": "bytes4",
          "name": "interfaceId",
          "type": "bytes4"
        }
      ],
      "name": "supportsInterface",
      "outputs": [
        {
          "internalType": "bool",
          "name": "",
          "type": "bool"
        }
      ],
      "stateMutability": "view",
      "type": "function"
    },
    {
      "inputs": [],
      "name": "symbol",
      "outputs": [
        {
          "internalType": "string",
          "name": "",
          "type": "string"
        }
      ],
      "stateMutability": "view",
      "type": "function"
    },
    {
      "inputs": [],
      "name": "termsOwner",
      "outputs": [
        {
          "internalType": "address",
          "name": "",
          "type": "address"
        }
      ],
      "stateMutability": "view",
      "type": "function"
    },
    {
      "inputs": [
        {
          "internalType": "uint256",
          "name": "tokenId",
          "type": "uint256"
        }
      ],
      "name": "tokenURI",
      "outputs": [
        {
          "internalType": "string",
          "name": "",
          "type": "string"
        }
      ],
      "stateMutability": "view",
      "type": "function"
    },
    {
      "inputs": [
        {
          "internalType": "address",
          "name": "",
          "type": "address"
        },
        {
          "internalType": "address",
          "name": "",
          "type": "address"
        },
        {
          "internalType": "uint256",
          "name": "",
          "type": "uint256"
        }
      ],
      "name": "transferFrom",
      "outputs": [
        {
          "internalType": "bool",
          "name": "",
          "type": "bool"
        }
      ],
      "stateMutability": "pure",
      "type": "function"
    },
    {
      "inputs": [
        {
          "internalType": "bytes",
          "name": "initData",
          "type": "bytes"
        }
      ],
      "name": "upgrade",
      "outputs": [],
      "stateMutability": "nonpayable",
      "type": "function"
    },
    {
      "inputs": [],
      "name": "version",
      "outputs": [
        {
          "components": [
            {
              "internalType": "uint16",
              "name": "major",
              "type": "uint16"
            },
            {
              "internalType": "uint16",
              "name": "minor",
              "type": "uint16"
            }
          ],
          "internalType": "struct Version",
          "name": "",
          "type": "tuple"
        }
      ],
      "stateMutability": "pure",
      "type": "function"
    }
  ],
  "bytecode": "0x60e06040523480156200001157600080fd5b50604051620038d7380380620038d78339810160408190526200003491620001da565b6001600055805181906001600160a01b0316620000ad5760405162461bcd60e51b815260206004820152602c60248201527f4261736541737365743a2061737365745265676973747279206973207468652060448201526b7a65726f206164647265737360a01b60648201526084015b60405180910390fd5b60208101516001600160a01b03166200011f5760405162461bcd60e51b815260206004820152602d60248201527f4261736541737365743a2061766174617252656769737472792069732074686560448201526c207a65726f206164647265737360981b6064820152608401620000a4565b60408101516001600160a01b0316620001925760405162461bcd60e51b815260206004820152602e60248201527f4261736541737365743a20636f6d70616e79526567697374727920697320746860448201526d65207a65726f206164647265737360901b6064820152608401620000a4565b80516001600160a01b039081166080526020820151811660a0526040909101511660c052506200025b565b80516001600160a01b0381168114620001d557600080fd5b919050565b600060608284031215620001ed57600080fd5b604051606081016001600160401b03811182821017156200021e57634e487b7160e01b600052604160045260246000fd5b6040526200022c83620001bd565b81526200023c60208401620001bd565b60208201526200024f60408401620001bd565b60408201529392505050565b60805160a05160c051613614620002c3600039600061055d0152600081816105c501528181611a7a015261216c0152600081816104dc0152818161063301528181610ae901528181610b6b015281816111940152818161160f015261177301526136146000f3fe608060405234801561001057600080fd5b50600436106102895760003560e01c80637e6e15511161015c578063b88d4fde116100ce578063e20eea0f11610087578063e20eea0f146105ad578063e3d7ad73146105c0578063e517fedd146105e7578063e8906a2d146105ef578063e985e9c514610602578063eac449d91461061557600080fd5b8063b88d4fde14610537578063c2ba474414610545578063c51aba2b14610558578063c87b56dd1461057f578063d18611d614610592578063d547741f1461059a57600080fd5b806391d148541161012057806391d14854146104bc57806395d89b41146104cf578063979d7e86146104d7578063a22cb465146104fe578063a6f9dae114610511578063b4e75b9b1461052457600080fd5b80637e6e15511461047e57806380599e4b1461048657806386b70bed146104995780638d361e43146104a15780638da5cb5b146104b457600080fd5b806327ee999d116102005780636352211e116101b95780636352211e1461041757806369bd91941461042a5780636a627842146104325780636acd64811461044557806370a08231146104585780637df73e271461046b57600080fd5b806327ee999d146103785780632f2ff15d1461038b5780633fa47f171461039e57806342842e0e146103b157806354fd4d50146103c457806355f804b31461040457600080fd5b8063095ea7b311610252578063095ea7b3146103135780630ac7f561146103265780631d1438481461033c57806323b872dd1461034457806324d7806c14610352578063253946451461036557600080fd5b80626c7e851461028e57806301ffc9a7146102a3578063021665b7146102cb57806306fdde03146102d3578063081812fc146102e8575b600080fd5b6102a161029c366004612b0c565b610628565b005b6102b66102b1366004612b5d565b610858565b60405190151581526020015b60405180910390f35b6102a16108aa565b6102db610921565b6040516102c29190612bca565b6102fb6102f6366004612bdd565b6109b9565b6040516001600160a01b0390911681526020016102c2565b6102b6610321366004612c0b565b6109ce565b61032e6109e8565b6040519081526020016102c2565b6102fb6109fb565b6102b6610321366004612c37565b6102b6610360366004612c78565b610a17565b6102a1610373366004612cde565b610a97565b6102a1610386366004612cde565b610b60565b6102a1610399366004612d20565b610c01565b6102b66103ac366004612d66565b610d07565b6102a16103bf366004612c37565b610d9d565b604080518082018252600080825260209182018190528251808401845260018082529083019182528351908152905161ffff1691810191909152016102c2565b6102a1610412366004612cde565b610db8565b6102fb610425366004612bdd565b610ed4565b6102fb610edf565b6102a1610440366004612c78565b610efe565b6102a1610453366004612c78565b610fdb565b61032e610466366004612c78565b6110d6565b6102b6610479366004612c78565b61112e565b6102b6611171565b6102a1610494366004612cde565b611189565b6102b661128d565b6102a16104af366004612dfe565b6112a0565b6102fb611368565b6102b66104ca366004612d20565b611377565b6102db6113d9565b6102fb7f000000000000000000000000000000000000000000000000000000000000000081565b6102a161050c366004612e81565b6113f1565b6102a161051f366004612c78565b611409565b6102b6610532366004612d66565b6114d6565b6102a161050c366004612f25565b6102b6610553366004612c78565b611524565b6102fb7f000000000000000000000000000000000000000000000000000000000000000081565b6102db61058d366004612bdd565b61159d565b6102a1611604565b6102a16105a8366004612d20565b611692565b6102a16105bb366004612cde565b611768565b6102fb7f000000000000000000000000000000000000000000000000000000000000000081565b6102fb6117b0565b6102a16105fd366004612dfe565b6117c9565b6102b6610610366004612fa5565b611891565b6102a1610623366004612c0b565b6118ce565b336001600160a01b037f000000000000000000000000000000000000000000000000000000000000000016146106795760405162461bcd60e51b815260040161067090612fd3565b60405180910390fd5b600061068860a0830183613018565b810190610695919061305f565b6040805160a0810190915290915061077e90806106b28580613018565b8080601f0160208091040260200160405190810160405280939291908181526020018383808284376000920191909152505050908252506020908101906106fb90860186613018565b8080601f0160208091040260200160405190810160405280939291908181526020018383808284376000920191909152505050908252506020016107456060860160408701612c78565b6001600160a01b031681526020016107636080860160608701612c78565b6001600160a01b031681526020018460800135815250611b50565b6000610788611e61565b8251519091506107e65760405162461bcd60e51b815260206004820152602360248201527f4e5445524337323141737365743a206261736520555249206d757374206265206044820152621cd95d60ea1b6064820152608401610670565b61080d8260000151604051806040016040528060018152602001602f60f81b815250611ef7565b61084557815160405161082391906020016130f9565b60408051601f19818403018152919052819061083f90826131a0565b50505050565b8151819061083f90826131a0565b505050565b60006001600160e01b031982166380ac58cd60e01b148061088957506001600160e01b03198216635b5e139f60e01b145b806108a457506001600160e01b031982166301ffc9a760e01b145b92915050565b336108b3611f62565b600101546001600160a01b0316146108dd5760405162461bcd60e51b815260040161067090613260565b6108e5611f62565b60020180546001600160a01b03191690556040517f0a3b4f225d27c59369c925408168eb6c4619520ef6a721f0225f0db69977416590600090a1565b606061092b611fbd565b80546109369061311e565b80601f01602080910402602001604051908101604052809291908181526020018280546109629061311e565b80156109af5780601f10610984576101008083540402835291602001916109af565b820191906000526020600020905b81548152906001019060200180831161099257829003601f168201915b5050505050905090565b60006109c482612019565b506108a482612062565b600060405162461bcd60e51b8152600401610670906132a3565b60006109f2611f62565b60030154905090565b6000610a05611f62565b600101546001600160a01b0316919050565b604051630935e01b60e21b81526001600160a01b038216600482015260009073__$a5a42e46683ad9c79b7b86d5ff60fdf4c1$__906324d7806c906024015b602060405180830381865af4158015610a73573d6000803e3d6000fd5b505050506040513d601f19601f820116820180604052508101906108a491906132e6565b33610aa0611f62565b600101546001600160a01b031614610aca5760405162461bcd60e51b815260040161067090613260565b610ad2612089565b60405163c625e0ad60e01b81526001600160a01b037f0000000000000000000000000000000000000000000000000000000000000000169063c625e0ad90610b20908590859060040161332c565b600060405180830381600087803b158015610b3a57600080fd5b505af1158015610b4e573d6000803e3d6000fd5b50505050610b5c6001600055565b5050565b336001600160a01b037f00000000000000000000000000000000000000000000000000000000000000001614610ba85760405162461bcd60e51b815260040161067090612fd3565b6000610bb26120b3565b805460ff191691151591909117905560405133907f246589c99dd263c9b64a2b544e24074c282ca479ba3d2a0e649f9eeaca1e2d6290610bf5908590859061332c565b60405180910390a25050565b604051630935e01b60e21b815233600482015273__$a5a42e46683ad9c79b7b86d5ff60fdf4c1$__906324d7806c90602401602060405180830381865af4158015610c50573d6000803e3d6000fd5b505050506040513d601f19601f82011682018060405250810190610c7491906132e6565b610c905760405162461bcd60e51b815260040161067090613340565b604051632f2ff15d60e01b8152600481018390526001600160a01b038216602482015273__$a5a42e46683ad9c79b7b86d5ff60fdf4c1$__90632f2ff15d906044015b60006040518083038186803b158015610ceb57600080fd5b505af4158015610cff573d6000803e3d6000fd5b505050505050565b600080610d12611f62565b600201546001600160a01b03169050801580610d9657506040516377b63b9160e11b81526001600160a01b0382169063ef6c772290610d55908690600401613375565b602060405180830381865afa158015610d72573d6000803e3d6000fd5b505050506040513d601f19601f82011682018060405250810190610d9691906132e6565b9392505050565b610853838383604051806020016040528060008152506113f1565b33610dc1611f62565b600101546001600160a01b031614610deb5760405162461bcd60e51b815260040161067090613260565b6000610df5611e61565b9050610e4f83838080601f016020809104026020016040519081016040528093929190818152602001838380828437600092019190915250506040805180820190915260018152602f60f81b60208201529150611ef79050565b610e88578282604051602001610e669291906133bc565b60408051601f198184030181529190528190610e8290826131a0565b50610e96565b80610e948385836133d2565b505b7f5411e8ebf1636d9e83d5fc4900bf80cbac82e8790da2a4c94db4895e889eedf68383604051610ec792919061332c565b60405180910390a1505050565b60006108a482612019565b6000610ee96120b3565b546201000090046001600160a01b0316919050565b610f06612089565b33610f0f611f62565b600101546001600160a01b031614610f395760405162461bcd60e51b815260040161067090613260565b610f4281611524565b610f9c5760405162461bcd60e51b815260206004820152602560248201527f4e5445524337323141737365743a2063616e6e6f74206d696e7420746f206164604482015264647265737360d81b6064820152608401610670565b6000610fa6611e61565b90508060010160008154610fb9906134a8565b909155506001810154610fcc8382612118565b5050610fd86001600055565b50565b33610fe4611f62565b600101546001600160a01b03161461100e5760405162461bcd60e51b815260040161067090613260565b6001600160a01b0381166110785760405162461bcd60e51b815260206004820152602b60248201527f4261736541737365743a20636f6e646974696f6e2063616e6e6f74206265207a60448201526a65726f206164647265737360a81b6064820152608401610670565b80611081611f62565b60020180546001600160a01b0319166001600160a01b0392831617905560405190821681527f74aec62349c3c04102a2d4dba64bd716489a57926996590bb38beffc7fbd40b99060200160405180910390a150565b60006001600160a01b038216611102576040516322718ad960e21b815260006004820152602401610670565b600061110c611e61565b6001600160a01b03909316600090815260039093016020525050604090205490565b604051637df73e2760e01b81526001600160a01b038216600482015260009073__$a5a42e46683ad9c79b7b86d5ff60fdf4c1$__90637df73e2790602401610a56565b600061117b6120b3565b54610100900460ff16919050565b336001600160a01b037f000000000000000000000000000000000000000000000000000000000000000016146111d15760405162461bcd60e51b815260040161067090612fd3565b6111d96120b3565b5460ff16156112395760405162461bcd60e51b815260206004820152602660248201527f52656d6f7661626c65456e746974793a206d757374206465616374697661746560448201526508199a5c9cdd60d21b6064820152608401610670565b60016112436120b3565b80549115156101000261ff001990921691909117905560405133907fbf430175840309fcb4cce13557429998477f9f95733cb0d42c170af8aa225d0690610bf5908590859061332c565b60006112976120b3565b5460ff16919050565b604051630935e01b60e21b815233600482015273__$a5a42e46683ad9c79b7b86d5ff60fdf4c1$__906324d7806c90602401602060405180830381865af41580156112ef573d6000803e3d6000fd5b505050506040513d601f19601f8201168201806040525081019061131391906132e6565b61132f5760405162461bcd60e51b815260040161067090613340565b604051638d361e4360e01b815273__$a5a42e46683ad9c79b7b86d5ff60fdf4c1$__90638d361e4390610cd390859085906004016134c1565b6000611372612132565b905090565b604051632474521560e21b8152600481018390526001600160a01b038216602482015260009073__$a5a42e46683ad9c79b7b86d5ff60fdf4c1$__906391d1485490604401602060405180830381865af4158015610d72573d6000803e3d6000fd5b60606113e3611f62565b60040180546109369061311e565b60405162461bcd60e51b8152600401610670906132a3565b33611412612132565b6001600160a01b0316146114685760405162461bcd60e51b815260206004820152601f60248201527f426173654163636573733a207265737472696374656420746f206f776e6572006044820152606401610670565b6040516313af403560e01b81526001600160a01b038216600482015273__$a5a42e46683ad9c79b7b86d5ff60fdf4c1$__906313af40359060240160006040518083038186803b1580156114bb57600080fd5b505af41580156114cf573d6000803e3d6000fd5b5050505050565b6000806114e1611f62565b600201546001600160a01b03169050801580610d96575060405163eab4ad0360e01b81526001600160a01b0382169063eab4ad0390610d55908690600401613375565b60006001600160a01b03821661158c5760405162461bcd60e51b815260206004820152602760248201527f4e5445524337323141737365743a206d696e7420746f20746865207a65726f206044820152666164647265737360c81b6064820152608401610670565b6115958261214d565b506001919050565b60606115a882612019565b5060006115b361241b565b905060008151116115d35760405180602001604052806000815250610d96565b806115dd84612425565b6040516020016115ee92919061350f565b6040516020818303038152906040529392505050565b336001600160a01b037f0000000000000000000000000000000000000000000000000000000000000000161461164c5760405162461bcd60e51b815260040161067090612fd3565b60016116566120b3565b805460ff191691151591909117905560405133907f54ca6a4cb143be493713a7079cc0d6cdbbf0688ee68398b4354b056088f2cbf590600090a2565b604051630935e01b60e21b815233600482015273__$a5a42e46683ad9c79b7b86d5ff60fdf4c1$__906324d7806c90602401602060405180830381865af41580156116e1573d6000803e3d6000fd5b505050506040513d601f19601f8201168201806040525081019061170591906132e6565b6117215760405162461bcd60e51b815260040161067090613340565b60405163d547741f60e01b8152600481018390526001600160a01b038216602482015273__$a5a42e46683ad9c79b7b86d5ff60fdf4c1$__9063d547741f90604401610cd3565b336001600160a01b037f00000000000000000000000000000000000000000000000000000000000000001614610b5c5760405162461bcd60e51b815260040161067090612fd3565b60006117ba611f62565b546001600160a01b0316919050565b604051630935e01b60e21b815233600482015273__$a5a42e46683ad9c79b7b86d5ff60fdf4c1$__906324d7806c90602401602060405180830381865af4158015611818573d6000803e3d6000fd5b505050506040513d601f19601f8201168201806040525081019061183c91906132e6565b6118585760405162461bcd60e51b815260040161067090613340565b60405163e8906a2d60e01b815273__$a5a42e46683ad9c79b7b86d5ff60fdf4c1$__9063e8906a2d90610cd390859085906004016134c1565b600061189b611e61565b6001600160a01b039384166000908152600591909101602090815260408083209490951682529290925250205460ff1690565b6118d6612089565b336118df611f62565b600101546001600160a01b0316146119095760405162461bcd60e51b815260040161067090613260565b6001600160a01b03821661196b5760405162461bcd60e51b815260206004820152602360248201527f4e5445524337323141737365743a20746f6b656e20646f6573206e6f742065786044820152621a5cdd60ea1b6064820152608401610670565b806000036119ca5760405162461bcd60e51b815260206004820152602660248201527f4e5445524337323141737365743a20746f6b656e2069642063616e6e6f74206260448201526565207a65726f60d01b6064820152608401610670565b60006119d582612019565b9050826001600160a01b0316816001600160a01b031614611a525760405162461bcd60e51b815260206004820152603160248201527f4e5445524337323141737365743a206e6f7420746865206f776e6572206f66206044820152701d1bdad95b881a59081c1c9bdd9a591959607a1b6064820152608401610670565b611a5b826124b8565b60405163c3c5a54760e01b81526001600160a01b0384811660048301527f0000000000000000000000000000000000000000000000000000000000000000169063c3c5a54790602401602060405180830381865afa158015611ac1573d6000803e3d6000fd5b505050506040513d601f19601f82011682018060405250810190611ae591906132e6565b15611b455760405163e62194f160e01b8152600481018390526001600160a01b0384169063e62194f190602401600060405180830381600087803b158015611b2c57600080fd5b505af1158015611b40573d6000803e3d6000fd5b505050505b50610b5c6001600055565b6000611b5a611f62565b60018101549091506001600160a01b031615611bc25760405162461bcd60e51b815260206004820152602160248201527f4e54455243323041737365743a20616c726561647920696e697469616c697a656044820152601960fa1b6064820152608401610670565b60408201516001600160a01b0316611c305760405162461bcd60e51b815260206004820152602b60248201527f4e54455243323041737365743a206973737565722063616e6e6f74206265207a60448201526a65726f206164647265737360a81b6064820152608401610670565b815151611c8a5760405162461bcd60e51b815260206004820152602260248201527f4e54455243323041737365743a206e616d652063616e6e6f7420626520656d70604482015261747960f01b6064820152608401610670565b600082602001515111611ceb5760405162461bcd60e51b8152602060048201526024808201527f4e54455243323041737365743a2073796d626f6c2063616e6e6f7420626520656044820152636d70747960e01b6064820152608401610670565b60608201516001600160a01b0316611d615760405162461bcd60e51b815260206004820152603360248201527f4e54455243323041737365743a206f726967696e20616464726573732063616e6044820152726e6f74206265207a65726f206164647265737360681b6064820152608401610670565b6000826080015111611ddb5760405162461bcd60e51b815260206004820152603760248201527f4e54455243323041737365743a206f726967696e20636861696e206964206d7560448201527f73742062652067726561746572207468616e207a65726f0000000000000000006064820152608401610670565b60408201516001820180546001600160a01b039283166001600160a01b03199182161790915560608401518354921691161781556080820151600382015560208201516004820190611e2d90826131a0565b508151611e38611fbd565b90611e4390826131a0565b506001611e4e6120b3565b805460ff19169115159190911790555050565b60408051808201909152601a81527f78722e6572633732312e61737365742e73746f726167652e763100000000000060209091015260008060ff611ec660017f60ff308ff8f840802008c7c997a35cbef97f56188316b0b2b2dbc99e530b505f61353e565b604051602001611ed891815260200190565b60408051601f1981840301815291905280516020909101201692915050565b60008151835110158015610d96575081600081518110611f1957611f19613551565b0160200151825184516001600160f81b0319909216918591611f3a9161353e565b81518110611f4a57611f4a613551565b01602001516001600160f81b03191614905092915050565b60408051808201909152601381527278722e61737365742e73746f726167652e763160681b60209091015260008060ff611ec660017f0db46b7c34197dfe4fa603e9c17ca5ed137d4afe720a374e843bbcf1431eaeb761353e565b60408051808201909152601481527378722e656e746974792e73746f726167652e763160601b60209091015260008060ff611ec660017fdefc82a28b6578c2a63b29b15450260a5e998242a6300b7fcb30814ee74ae18861353e565b600080612024611e61565b60008481526002820160205260409020549091506001600160a01b031680610d9657604051637e27328960e01b815260048101859052602401610670565b600061206c611e61565b60009283526004016020525060409020546001600160a01b031690565b6002600054036120ac57604051633ee5aeb560e01b815260040160405180910390fd5b6002600055565b60408051808201909152601881527f78722e61637469766174696f6e2e73746f726167652e7631000000000000000060209091015260008060ff611ec660017ff6611e962a52dbc98dd0485088d920890c43e26113c61976f6e171a29d49ce4961353e565b610b5c8282604051806020016040528060008152506124f3565b60008061213d61250a565b546001600160a01b031692915050565b60405163c3c5a54760e01b81526001600160a01b0382811660048301527f0000000000000000000000000000000000000000000000000000000000000000169063c3c5a54790602401602060405180830381865afa1580156121b3573d6000803e3d6000fd5b505050506040513d601f19601f820116820180604052508101906121d791906132e6565b15610fd8576000819050806001600160a01b031663181d939b6040518163ffffffff1660e01b8152600401602060405180830381865afa15801561221f573d6000803e3d6000fd5b505050506040513d601f19601f8201168201806040525081019061224391906132e6565b610b5c576000816001600160a01b031663516f279e6040518163ffffffff1660e01b8152600401602060405180830381865afa158015612287573d6000803e3d6000fd5b505050506040513d601f19601f820116820180604052508101906122ab9190613567565b90506001600160a01b03811661231b5760405162461bcd60e51b815260206004820152602f60248201527f4261736541737365743a20617661746172206c6f636174696f6e206973206e6f60448201526e7420616e20657870657269656e636560881b6064820152608401610670565b6123236109fb565b6001600160a01b0316816001600160a01b0316636904c94d6040518163ffffffff1660e01b8152600401602060405180830381865afa15801561236a573d6000803e3d6000fd5b505050506040513d601f19601f8201168201806040525081019061238e9190613567565b6001600160a01b0316146108535760405162461bcd60e51b815260206004820152604860248201527f4261736541737365743a20617661746172206c6f636174696f6e206973206e6f60448201527f7420696e20616e20657870657269656e6365206f776e6564206279207468697360648201526720636f6d70616e7960c01b608482015260a401610670565b606061092b611e61565b6060600061243283612566565b600101905060008167ffffffffffffffff81111561245257612452612d50565b6040519080825280601f01601f19166020018201604052801561247c576020820181803683370190505b5090508181016020015b600019016f181899199a1a9b1b9c1cb0b131b232b360811b600a86061a8153600a850494508461248657509392505050565b60006124c7600083600061263e565b90506001600160a01b038116610b5c57604051637e27328960e01b815260048101839052602401610670565b6124fd8383612745565b61085360008484846127e5565b60408051808201909152601481527378722e6163636573732e73746f726167652e763160601b60209091015260008060ff611ec660017fd870894b15ee1369a593f3670ac51c4ed8201dab473944ee712694d327dd587561353e565b60008072184f03e93ff9f4daa797ed6e38ed64bf6a1f0160401b83106125a55772184f03e93ff9f4daa797ed6e38ed64bf6a1f0160401b830492506040015b6d04ee2d6d415b85acef810000000083106125d1576d04ee2d6d415b85acef8100000000830492506020015b662386f26fc1000083106125ef57662386f26fc10000830492506010015b6305f5e1008310612607576305f5e100830492506008015b612710831061261b57612710830492506004015b6064831061262d576064830492506002015b600a83106108a45760010192915050565b60008061264a84612907565b90506000612656611e61565b90506001600160a01b038416156126725761267282858761292e565b6001600160a01b038216156126b25761268f600086600080612992565b6001600160a01b0382166000908152600382016020526040902080546000190190555b6001600160a01b038616156126e3576001600160a01b03861660009081526003820160205260409020805460010190555b600085815260028201602052604080822080546001600160a01b0319166001600160a01b038a811691821790925591518893918616917fddf252ad1be2c89b69c2b068fc378daa952ba7f163c4a11628f55a4df523b3ef91a450949350505050565b6001600160a01b03821661276f57604051633250574960e11b815260006004820152602401610670565b600061277d8383600061263e565b90506001600160a01b038116156127aa576040516339e3563760e11b815260006004820152602401610670565b60405182906001600160a01b038516907f1292a1381d69fd0f033102672143fff68d426b4b73eb1fa4df2620aeed9a299490600090a3505050565b6001600160a01b0383163b1561083f57604051630a85bd0160e11b81526001600160a01b0384169063150b7a0290612827903390889087908790600401613584565b6020604051808303816000875af1925050508015612862575060408051601f3d908101601f1916820190925261285f918101906135c1565b60015b6128cb573d808015612890576040519150601f19603f3d011682016040523d82523d6000602084013e612895565b606091505b5080516000036128c357604051633250574960e11b81526001600160a01b0385166004820152602401610670565b805181602001fd5b6001600160e01b03198116630a85bd0160e11b146114cf57604051633250574960e11b81526001600160a01b0385166004820152602401610670565b6000612911611e61565b60009283526002016020525060409020546001600160a01b031690565b612939838383612aa6565b610853576001600160a01b03831661296757604051637e27328960e01b815260048101829052602401610670565b60405163177e802f60e01b81526001600160a01b038316600482015260248101829052604401610670565b80806129a657506001600160a01b03821615155b15612a685760006129b684612019565b90506001600160a01b038316158015906129e25750826001600160a01b0316816001600160a01b031614155b80156129f557506129f38184611891565b155b15612a1e5760405163a9fbf51f60e01b81526001600160a01b0384166004820152602401610670565b8115612a665783856001600160a01b0316826001600160a01b03167f8c5be1e5ebec7d5bd14f71427d1e84f3dd0314c0f7b2291e5b200ac8c7c3b92560405160405180910390a45b505b6000612a72611e61565b60009485526004016020525050604090912080546001600160a01b0319166001600160a01b03939093169290921790915550565b60006001600160a01b03831615801590612b045750826001600160a01b0316846001600160a01b03161480612ae05750612ae08484611891565b80612b045750826001600160a01b0316612af983612062565b6001600160a01b0316145b949350505050565b600060208284031215612b1e57600080fd5b813567ffffffffffffffff811115612b3557600080fd5b820160c08185031215610d9657600080fd5b6001600160e01b031981168114610fd857600080fd5b600060208284031215612b6f57600080fd5b8135610d9681612b47565b60005b83811015612b95578181015183820152602001612b7d565b50506000910152565b60008151808452612bb6816020860160208601612b7a565b601f01601f19169290920160200192915050565b602081526000610d966020830184612b9e565b600060208284031215612bef57600080fd5b5035919050565b6001600160a01b0381168114610fd857600080fd5b60008060408385031215612c1e57600080fd5b8235612c2981612bf6565b946020939093013593505050565b600080600060608486031215612c4c57600080fd5b8335612c5781612bf6565b92506020840135612c6781612bf6565b929592945050506040919091013590565b600060208284031215612c8a57600080fd5b8135610d9681612bf6565b60008083601f840112612ca757600080fd5b50813567ffffffffffffffff811115612cbf57600080fd5b602083019150836020828501011115612cd757600080fd5b9250929050565b60008060208385031215612cf157600080fd5b823567ffffffffffffffff811115612d0857600080fd5b612d1485828601612c95565b90969095509350505050565b60008060408385031215612d3357600080fd5b823591506020830135612d4581612bf6565b809150509250929050565b634e487b7160e01b600052604160045260246000fd5b600060a08284031215612d7857600080fd5b60405160a0810181811067ffffffffffffffff82111715612d9b57612d9b612d50565b6040528235612da981612bf6565b81526020830135612db981612bf6565b60208201526040830135612dcc81612bf6565b60408201526060830135612ddf81612bf6565b60608201526080830135612df281612bf6565b60808201529392505050565b60008060208385031215612e1157600080fd5b823567ffffffffffffffff80821115612e2957600080fd5b818501915085601f830112612e3d57600080fd5b813581811115612e4c57600080fd5b8660208260051b8501011115612e6157600080fd5b60209290920196919550909350505050565b8015158114610fd857600080fd5b60008060408385031215612e9457600080fd5b8235612e9f81612bf6565b91506020830135612d4581612e73565b600067ffffffffffffffff80841115612eca57612eca612d50565b604051601f8501601f19908116603f01168101908282118183101715612ef257612ef2612d50565b81604052809350858152868686011115612f0b57600080fd5b858560208301376000602087830101525050509392505050565b60008060008060808587031215612f3b57600080fd5b8435612f4681612bf6565b93506020850135612f5681612bf6565b925060408501359150606085013567ffffffffffffffff811115612f7957600080fd5b8501601f81018713612f8a57600080fd5b612f9987823560208401612eaf565b91505092959194509250565b60008060408385031215612fb857600080fd5b8235612fc381612bf6565b91506020830135612d4581612bf6565b60208082526025908201527f52656d6f7661626c65456e746974793a206f6e6c79206f776e696e6720726567604082015264697374727960d81b606082015260800190565b6000808335601e1984360301811261302f57600080fd5b83018035915067ffffffffffffffff82111561304a57600080fd5b602001915036819003821315612cd757600080fd5b60006020828403121561307157600080fd5b813567ffffffffffffffff8082111561308957600080fd5b908301906020828603121561309d57600080fd5b6040516020810181811083821117156130b8576130b8612d50565b6040528235828111156130ca57600080fd5b80840193505085601f8401126130df57600080fd5b6130ee86843560208601612eaf565b815295945050505050565b6000825161310b818460208701612b7a565b602f60f81b920191825250600101919050565b600181811c9082168061313257607f821691505b60208210810361315257634e487b7160e01b600052602260045260246000fd5b50919050565b601f821115610853576000816000526020600020601f850160051c810160208610156131815750805b601f850160051c820191505b81811015610cff5782815560010161318d565b815167ffffffffffffffff8111156131ba576131ba612d50565b6131ce816131c8845461311e565b84613158565b602080601f83116001811461320357600084156131eb5750858301515b600019600386901b1c1916600185901b178555610cff565b600085815260208120601f198616915b8281101561323257888601518255948401946001909101908401613213565b50858210156132505787850151600019600388901b60f8161c191681555b5050505050600190811b01905550565b60208082526023908201527f4261736541737365743a2063616c6c6572206973206e6f7420746865206973736040820152623ab2b960e91b606082015260800190565b60208082526023908201527f4e544552433732313a20746f6b656e206973206e6f6e2d7472616e7366657261604082015262626c6560e81b606082015260800190565b6000602082840312156132f857600080fd5b8151610d9681612e73565b81835281816020850137506000828201602090810191909152601f909101601f19169091010190565b602081526000612b04602083018486613303565b6020808252818101527f426173654163636573733a207265737472696374656420746f2061646d696e73604082015260600190565b81516001600160a01b039081168252602080840151821690830152604080840151821690830152606080840151821690830152608092830151169181019190915260a00190565b81838237602f60f81b9101908152600101919050565b67ffffffffffffffff8311156133ea576133ea612d50565b6133fe836133f8835461311e565b83613158565b6000601f841160018114613432576000851561341a5750838201355b600019600387901b1c1916600186901b1783556114cf565b600083815260209020601f19861690835b828110156134635786850135825560209485019460019092019101613443565b50868210156134805760001960f88860031b161c19848701351681555b505060018560011b0183555050505050565b634e487b7160e01b600052601160045260246000fd5b6000600182016134ba576134ba613492565b5060010190565b60208082528181018390526000908460408401835b868110156135045782356134e981612bf6565b6001600160a01b0316825291830191908301906001016134d6565b509695505050505050565b60008351613521818460208801612b7a565b835190830190613535818360208801612b7a565b01949350505050565b818103818111156108a4576108a4613492565b634e487b7160e01b600052603260045260246000fd5b60006020828403121561357957600080fd5b8151610d9681612bf6565b6001600160a01b03858116825284166020820152604081018390526080606082018190526000906135b790830184612b9e565b9695505050505050565b6000602082840312156135d357600080fd5b8151610d9681612b4756fea2646970667358221220d56178e341e822a0bbb83decf98653b436f481327d417a6289be9719d4346ab564736f6c63430008180033",
  "linkReferences": {
    "contracts/libraries/LibAccess.sol": {
      "LibAccess": [
        {
          "length": 20,
          "start": 3323
        },
        {
          "length": 20,
          "start": 3801
        },
        {
          "length": 20,
          "start": 3960
        },
        {
          "length": 20,
          "start": 5138
        },
        {
          "length": 20,
          "start": 5496
        },
        {
          "length": 20,
          "start": 5633
        },
        {
          "length": 20,
          "start": 5730
        },
        {
          "length": 20,
          "start": 5961
        },
        {
          "length": 20,
          "start": 6506
        },
        {
          "length": 20,
          "start": 6665
        },
        {
          "length": 20,
          "start": 6817
        },
        {
          "length": 20,
          "start": 6954
        }
      ]
    }
  },
  "deployedLinkReferences": {
    "contracts/libraries/LibAccess.sol": {
      "LibAccess": [
        {
          "length": 20,
          "start": 2616
        },
        {
          "length": 20,
          "start": 3094
        },
        {
          "length": 20,
          "start": 3253
        },
        {
          "length": 20,
          "start": 4431
        },
        {
          "length": 20,
          "start": 4789
        },
        {
          "length": 20,
          "start": 4926
        },
        {
          "length": 20,
          "start": 5023
        },
        {
          "length": 20,
          "start": 5254
        },
        {
          "length": 20,
          "start": 5799
        },
        {
          "length": 20,
          "start": 5958
        },
        {
          "length": 20,
          "start": 6110
        },
        {
          "length": 20,
          "start": 6247
        }
      ]
    }
  }
}