{
  "_format": "hh-sol-artifact-1",
  "contractName": "RegistrarRegistry",
  "sourceName": "contracts/registrar/registry/RegistrarRegistry.sol",
  "abi": [
    {
      "inputs": [],
      "name": "ReentrancyGuardReentrantCall",
      "type": "error"
    },
    {
      "anonymous": false,
      "inputs": [
        {
          "indexed": true,
          "internalType": "address",
          "name": "entity",
          "type": "address"
        },
        {
          "indexed": true,
          "internalType": "address",
          "name": "by",
          "type": "address"
        }
      ],
      "name": "EntityRegistrationRenewed",
      "type": "event"
    },
    {
      "anonymous": false,
      "inputs": [
        {
          "indexed": true,
          "internalType": "address",
          "name": "owner",
          "type": "address"
        },
        {
          "indexed": true,
          "internalType": "address",
          "name": "newOwner",
          "type": "address"
        }
      ],
      "name": "OwnerChanged",
      "type": "event"
    },
    {
      "anonymous": false,
      "inputs": [
        {
          "indexed": true,
          "internalType": "address",
          "name": "world",
          "type": "address"
        },
        {
          "indexed": false,
          "internalType": "string",
          "name": "reason",
          "type": "string"
        }
      ],
      "name": "RegistrarDeactivatedWorld",
      "type": "event"
    },
    {
      "anonymous": false,
      "inputs": [
        {
          "indexed": true,
          "internalType": "address",
          "name": "world",
          "type": "address"
        }
      ],
      "name": "RegistrarReactivatedWorld",
      "type": "event"
    },
    {
      "anonymous": false,
      "inputs": [
        {
          "indexed": true,
          "internalType": "address",
          "name": "world",
          "type": "address"
        },
        {
          "indexed": false,
          "internalType": "string",
          "name": "reason",
          "type": "string"
        }
      ],
      "name": "RegistrarRemovedWorld",
      "type": "event"
    },
    {
      "anonymous": false,
      "inputs": [
        {
          "indexed": true,
          "internalType": "address",
          "name": "entity",
          "type": "address"
        },
        {
          "indexed": true,
          "internalType": "address",
          "name": "owner",
          "type": "address"
        }
      ],
      "name": "RegistryAddedEntity",
      "type": "event"
    },
    {
      "anonymous": false,
      "inputs": [
        {
          "indexed": true,
          "internalType": "address",
          "name": "entity",
          "type": "address"
        },
        {
          "indexed": false,
          "internalType": "string",
          "name": "reason",
          "type": "string"
        }
      ],
      "name": "RegistryDeactivatedEntity",
      "type": "event"
    },
    {
      "anonymous": false,
      "inputs": [
        {
          "indexed": true,
          "internalType": "address",
          "name": "entity",
          "type": "address"
        },
        {
          "indexed": true,
          "internalType": "address",
          "name": "newImplementation",
          "type": "address"
        }
      ],
      "name": "RegistryDowngradedEntity",
      "type": "event"
    },
    {
      "anonymous": false,
      "inputs": [
        {
          "indexed": true,
          "internalType": "address",
          "name": "entity",
          "type": "address"
        }
      ],
      "name": "RegistryEnforcedDeactivation",
      "type": "event"
    },
    {
      "anonymous": false,
      "inputs": [
        {
          "indexed": true,
          "internalType": "address",
          "name": "entity",
          "type": "address"
        }
      ],
      "name": "RegistryEnforcedRemoval",
      "type": "event"
    },
    {
      "anonymous": false,
      "inputs": [
        {
          "indexed": true,
          "internalType": "address",
          "name": "implementation",
          "type": "address"
        }
      ],
      "name": "RegistryEntityImplementationSet",
      "type": "event"
    },
    {
      "anonymous": false,
      "inputs": [
        {
          "indexed": true,
          "internalType": "address",
          "name": "implementation",
          "type": "address"
        }
      ],
      "name": "RegistryProxyImplementationSet",
      "type": "event"
    },
    {
      "anonymous": false,
      "inputs": [
        {
          "indexed": true,
          "internalType": "address",
          "name": "entity",
          "type": "address"
        }
      ],
      "name": "RegistryReactivatedEntity",
      "type": "event"
    },
    {
      "anonymous": false,
      "inputs": [
        {
          "indexed": true,
          "internalType": "address",
          "name": "entity",
          "type": "address"
        },
        {
          "indexed": false,
          "internalType": "string",
          "name": "reason",
          "type": "string"
        }
      ],
      "name": "RegistryRemovedEntity",
      "type": "event"
    },
    {
      "anonymous": false,
      "inputs": [
        {
          "indexed": true,
          "internalType": "address",
          "name": "entity",
          "type": "address"
        },
        {
          "indexed": true,
          "internalType": "address",
          "name": "newImplementation",
          "type": "address"
        }
      ],
      "name": "RegistryUpgradedEntity",
      "type": "event"
    },
    {
      "anonymous": false,
      "inputs": [
        {
          "indexed": true,
          "internalType": "bytes32",
          "name": "role",
          "type": "bytes32"
        },
        {
          "indexed": true,
          "internalType": "address",
          "name": "account",
          "type": "address"
        },
        {
          "indexed": true,
          "internalType": "bool",
          "name": "grant",
          "type": "bool"
        }
      ],
      "name": "RoleChanged",
      "type": "event"
    },
    {
      "anonymous": false,
      "inputs": [
        {
          "indexed": false,
          "internalType": "address",
          "name": "signer",
          "type": "address"
        },
        {
          "indexed": false,
          "internalType": "bool",
          "name": "grant",
          "type": "bool"
        }
      ],
      "name": "SignerChanged",
      "type": "event"
    },
    {
      "inputs": [
        {
          "internalType": "address[]",
          "name": "signers",
          "type": "address[]"
        }
      ],
      "name": "addSigners",
      "outputs": [],
      "stateMutability": "nonpayable",
      "type": "function"
    },
    {
      "inputs": [
        {
          "internalType": "address",
          "name": "addr",
          "type": "address"
        }
      ],
      "name": "canBeDeactivated",
      "outputs": [
        {
          "internalType": "bool",
          "name": "",
          "type": "bool"
        }
      ],
      "stateMutability": "view",
      "type": "function"
    },
    {
      "inputs": [
        {
          "internalType": "address",
          "name": "addr",
          "type": "address"
        }
      ],
      "name": "canBeRemoved",
      "outputs": [
        {
          "internalType": "bool",
          "name": "",
          "type": "bool"
        }
      ],
      "stateMutability": "view",
      "type": "function"
    },
    {
      "inputs": [
        {
          "components": [
            {
              "internalType": "address",
              "name": "entity",
              "type": "address"
            },
            {
              "internalType": "bytes",
              "name": "entitySignature",
              "type": "bytes"
            },
            {
              "internalType": "uint256",
              "name": "expiration",
              "type": "uint256"
            },
            {
              "components": [
                {
                  "internalType": "uint16",
                  "name": "coveragePeriodDays",
                  "type": "uint16"
                },
                {
                  "internalType": "uint16",
                  "name": "gracePeriodDays",
                  "type": "uint16"
                },
                {
                  "internalType": "uint256",
                  "name": "fee",
                  "type": "uint256"
                }
              ],
              "internalType": "struct RegistrationTerms",
              "name": "terms",
              "type": "tuple"
            }
          ],
          "internalType": "struct ChangeEntityTermsArgs",
          "name": "args",
          "type": "tuple"
        }
      ],
      "name": "changeEntityTerms",
      "outputs": [],
      "stateMutability": "nonpayable",
      "type": "function"
    },
    {
      "inputs": [
        {
          "internalType": "address",
          "name": "newOwner",
          "type": "address"
        }
      ],
      "name": "changeOwner",
      "outputs": [],
      "stateMutability": "nonpayable",
      "type": "function"
    },
    {
      "inputs": [
        {
          "components": [
            {
              "internalType": "bool",
              "name": "sendTokensToOwner",
              "type": "bool"
            },
            {
              "internalType": "address",
              "name": "owner",
              "type": "address"
            },
            {
              "internalType": "string",
              "name": "name",
              "type": "string"
            },
            {
              "internalType": "bytes",
              "name": "initData",
              "type": "bytes"
            }
          ],
          "internalType": "struct CreateNonRemovableRegistrarArgs",
          "name": "args",
          "type": "tuple"
        }
      ],
      "name": "createNonRemovableRegistrar",
      "outputs": [
        {
          "internalType": "address",
          "name": "",
          "type": "address"
        }
      ],
      "stateMutability": "payable",
      "type": "function"
    },
    {
      "inputs": [
        {
          "components": [
            {
              "internalType": "bool",
              "name": "sendTokensToOwner",
              "type": "bool"
            },
            {
              "internalType": "address",
              "name": "owner",
              "type": "address"
            },
            {
              "internalType": "uint256",
              "name": "expiration",
              "type": "uint256"
            },
            {
              "components": [
                {
                  "internalType": "uint16",
                  "name": "coveragePeriodDays",
                  "type": "uint16"
                },
                {
                  "internalType": "uint16",
                  "name": "gracePeriodDays",
                  "type": "uint16"
                },
                {
                  "internalType": "uint256",
                  "name": "fee",
                  "type": "uint256"
                }
              ],
              "internalType": "struct RegistrationTerms",
              "name": "terms",
              "type": "tuple"
            },
            {
              "internalType": "string",
              "name": "name",
              "type": "string"
            },
            {
              "internalType": "bytes",
              "name": "initData",
              "type": "bytes"
            },
            {
              "internalType": "bytes",
              "name": "ownerTermsSignature",
              "type": "bytes"
            }
          ],
          "internalType": "struct CreateRegistrarArgs",
          "name": "args",
          "type": "tuple"
        }
      ],
      "name": "createRemovableRegistrar",
      "outputs": [
        {
          "internalType": "address",
          "name": "proxy",
          "type": "address"
        }
      ],
      "stateMutability": "payable",
      "type": "function"
    },
    {
      "inputs": [
        {
          "internalType": "contract IRemovableEntity",
          "name": "entity",
          "type": "address"
        },
        {
          "internalType": "string",
          "name": "reason",
          "type": "string"
        }
      ],
      "name": "deactivateEntity",
      "outputs": [],
      "stateMutability": "nonpayable",
      "type": "function"
    },
    {
      "inputs": [
        {
          "internalType": "bytes",
          "name": "initData",
          "type": "bytes"
        }
      ],
      "name": "downgradeEntity",
      "outputs": [],
      "stateMutability": "nonpayable",
      "type": "function"
    },
    {
      "inputs": [
        {
          "internalType": "contract IRemovableEntity",
          "name": "addr",
          "type": "address"
        }
      ],
      "name": "enforceDeactivation",
      "outputs": [],
      "stateMutability": "nonpayable",
      "type": "function"
    },
    {
      "inputs": [
        {
          "internalType": "contract IRemovableEntity",
          "name": "e",
          "type": "address"
        }
      ],
      "name": "enforceRemoval",
      "outputs": [],
      "stateMutability": "nonpayable",
      "type": "function"
    },
    {
      "inputs": [
        {
          "internalType": "string",
          "name": "name",
          "type": "string"
        }
      ],
      "name": "getEntityByName",
      "outputs": [
        {
          "internalType": "address",
          "name": "",
          "type": "address"
        }
      ],
      "stateMutability": "view",
      "type": "function"
    },
    {
      "inputs": [],
      "name": "getEntityImplementation",
      "outputs": [
        {
          "internalType": "address",
          "name": "",
          "type": "address"
        }
      ],
      "stateMutability": "view",
      "type": "function"
    },
    {
      "inputs": [
        {
          "internalType": "address",
          "name": "addr",
          "type": "address"
        }
      ],
      "name": "getEntityTerms",
      "outputs": [
        {
          "components": [
            {
              "internalType": "uint16",
              "name": "coveragePeriodDays",
              "type": "uint16"
            },
            {
              "internalType": "uint16",
              "name": "gracePeriodDays",
              "type": "uint16"
            },
            {
              "internalType": "uint256",
              "name": "fee",
              "type": "uint256"
            }
          ],
          "internalType": "struct RegistrationTerms",
          "name": "",
          "type": "tuple"
        }
      ],
      "stateMutability": "view",
      "type": "function"
    },
    {
      "inputs": [],
      "name": "getEntityVersion",
      "outputs": [
        {
          "components": [
            {
              "internalType": "uint16",
              "name": "major",
              "type": "uint16"
            },
            {
              "internalType": "uint16",
              "name": "minor",
              "type": "uint16"
            }
          ],
          "internalType": "struct Version",
          "name": "",
          "type": "tuple"
        }
      ],
      "stateMutability": "view",
      "type": "function"
    },
    {
      "inputs": [
        {
          "internalType": "address",
          "name": "addr",
          "type": "address"
        }
      ],
      "name": "getExpiration",
      "outputs": [
        {
          "internalType": "uint256",
          "name": "",
          "type": "uint256"
        }
      ],
      "stateMutability": "view",
      "type": "function"
    },
    {
      "inputs": [
        {
          "internalType": "address",
          "name": "addr",
          "type": "address"
        }
      ],
      "name": "getLastRenewal",
      "outputs": [
        {
          "internalType": "uint256",
          "name": "",
          "type": "uint256"
        }
      ],
      "stateMutability": "view",
      "type": "function"
    },
    {
      "inputs": [],
      "name": "getProxyImplementation",
      "outputs": [
        {
          "internalType": "address",
          "name": "",
          "type": "address"
        }
      ],
      "stateMutability": "view",
      "type": "function"
    },
    {
      "inputs": [
        {
          "internalType": "bytes32",
          "name": "role",
          "type": "bytes32"
        },
        {
          "internalType": "address",
          "name": "account",
          "type": "address"
        }
      ],
      "name": "grantRole",
      "outputs": [],
      "stateMutability": "nonpayable",
      "type": "function"
    },
    {
      "inputs": [
        {
          "internalType": "bytes32",
          "name": "role",
          "type": "bytes32"
        },
        {
          "internalType": "address",
          "name": "account",
          "type": "address"
        }
      ],
      "name": "hasRole",
      "outputs": [
        {
          "internalType": "bool",
          "name": "",
          "type": "bool"
        }
      ],
      "stateMutability": "view",
      "type": "function"
    },
    {
      "inputs": [
        {
          "internalType": "address",
          "name": "account",
          "type": "address"
        }
      ],
      "name": "isAdmin",
      "outputs": [
        {
          "internalType": "bool",
          "name": "",
          "type": "bool"
        }
      ],
      "stateMutability": "view",
      "type": "function"
    },
    {
      "inputs": [
        {
          "internalType": "address",
          "name": "addr",
          "type": "address"
        }
      ],
      "name": "isExpired",
      "outputs": [
        {
          "internalType": "bool",
          "name": "",
          "type": "bool"
        }
      ],
      "stateMutability": "view",
      "type": "function"
    },
    {
      "inputs": [
        {
          "internalType": "address",
          "name": "addr",
          "type": "address"
        }
      ],
      "name": "isInGracePeriod",
      "outputs": [
        {
          "internalType": "bool",
          "name": "",
          "type": "bool"
        }
      ],
      "stateMutability": "view",
      "type": "function"
    },
    {
      "inputs": [
        {
          "internalType": "address",
          "name": "addr",
          "type": "address"
        }
      ],
      "name": "isRegistered",
      "outputs": [
        {
          "internalType": "bool",
          "name": "",
          "type": "bool"
        }
      ],
      "stateMutability": "view",
      "type": "function"
    },
    {
      "inputs": [
        {
          "internalType": "address",
          "name": "account",
          "type": "address"
        }
      ],
      "name": "isSigner",
      "outputs": [
        {
          "internalType": "bool",
          "name": "",
          "type": "bool"
        }
      ],
      "stateMutability": "view",
      "type": "function"
    },
    {
      "inputs": [],
      "name": "owner",
      "outputs": [
        {
          "internalType": "address",
          "name": "",
          "type": "address"
        }
      ],
      "stateMutability": "view",
      "type": "function"
    },
    {
      "inputs": [
        {
          "internalType": "contract IRemovableEntity",
          "name": "entity",
          "type": "address"
        }
      ],
      "name": "reactivateEntity",
      "outputs": [],
      "stateMutability": "nonpayable",
      "type": "function"
    },
    {
      "inputs": [
        {
          "internalType": "contract IRemovableEntity",
          "name": "entity",
          "type": "address"
        },
        {
          "internalType": "string",
          "name": "reason",
          "type": "string"
        }
      ],
      "name": "removeEntity",
      "outputs": [],
      "stateMutability": "nonpayable",
      "type": "function"
    },
    {
      "inputs": [
        {
          "internalType": "address[]",
          "name": "signers",
          "type": "address[]"
        }
      ],
      "name": "removeSigners",
      "outputs": [],
      "stateMutability": "nonpayable",
      "type": "function"
    },
    {
      "inputs": [
        {
          "internalType": "address",
          "name": "addr",
          "type": "address"
        }
      ],
      "name": "renewEntity",
      "outputs": [],
      "stateMutability": "payable",
      "type": "function"
    },
    {
      "inputs": [
        {
          "internalType": "bytes32",
          "name": "role",
          "type": "bytes32"
        },
        {
          "internalType": "address",
          "name": "account",
          "type": "address"
        }
      ],
      "name": "revokeRole",
      "outputs": [],
      "stateMutability": "nonpayable",
      "type": "function"
    },
    {
      "inputs": [
        {
          "internalType": "address",
          "name": "_entityImplementation",
          "type": "address"
        }
      ],
      "name": "setEntityImplementation",
      "outputs": [],
      "stateMutability": "nonpayable",
      "type": "function"
    },
    {
      "inputs": [
        {
          "internalType": "address",
          "name": "_proxyImplementation",
          "type": "address"
        }
      ],
      "name": "setProxyImplementation",
      "outputs": [],
      "stateMutability": "nonpayable",
      "type": "function"
    },
    {
      "inputs": [
        {
          "internalType": "bytes",
          "name": "initData",
          "type": "bytes"
        }
      ],
      "name": "upgradeEntity",
      "outputs": [],
      "stateMutability": "nonpayable",
      "type": "function"
    },
    {
      "inputs": [],
      "name": "version",
      "outputs": [
        {
          "components": [
            {
              "internalType": "uint16",
              "name": "major",
              "type": "uint16"
            },
            {
              "internalType": "uint16",
              "name": "minor",
              "type": "uint16"
            }
          ],
          "internalType": "struct Version",
          "name": "",
          "type": "tuple"
        }
      ],
      "stateMutability": "pure",
      "type": "function"
    },
    {
      "inputs": [
        {
          "internalType": "uint256",
          "name": "amount",
          "type": "uint256"
        }
      ],
      "name": "withdraw",
      "outputs": [],
      "stateMutability": "nonpayable",
      "type": "function"
    },
    {
      "stateMutability": "payable",
      "type": "receive"
    }
  ],
  "bytecode": "0x608060405234801561001057600080fd5b50600160005561320a806100256000396000f3fe6080604052600436106102135760003560e01c80638da5cb5b11610118578063ba2eb541116100a0578063d547741f1161006f578063d547741f1461062c578063d6fbe0201461064c578063e2482bf91461065f578063e8906a2d1461067f578063f82e2fb31461069f57600080fd5b8063ba2eb541146105ac578063c3c5a547146105cc578063c625e0ad146105ec578063cdbe22111461060c57600080fd5b8063a6f9dae1116100e7578063a6f9dae114610519578063a8c88c1714610539578063af08d53d14610559578063b496858e14610579578063b6db923d1461058c57600080fd5b80638da5cb5b146104af57806390e4b720146104c457806391d14854146104d95780639fdcd3a4146104f957600080fd5b80634d4965f31161019b5780635e0409621161016a5780635e04096214610425578063689c48f01461043a578063693c79b21461044f5780637df73e271461046f5780638d361e431461048f57600080fd5b80634d4965f3146103615780634ec70a481461038157806354fd4d50146103af5780635726c94e1461040557600080fd5b80632c5eae6d116101e25780632c5eae6d146102b65780632e1a7d4d146102e15780632f2ff15d146103015780633e88a4e2146103215780634ae134cc1461034157600080fd5b806301f242301461021f578063033a5b60146102415780630fd020dd1461026157806324d7806c1461028157600080fd5b3661021a57005b600080fd5b34801561022b57600080fd5b5061023f61023a3660046128aa565b6106cc565b005b34801561024d57600080fd5b5061023f61025c366004612910565b61073b565b34801561026d57600080fd5b5061023f61027c366004612965565b610843565b34801561028d57600080fd5b506102a161029c3660046128aa565b610a85565b60405190151581526020015b60405180910390f35b6102c96102c43660046129a7565b610b0b565b6040516001600160a01b0390911681526020016102ad565b3480156102ed57600080fd5b5061023f6102fc3660046129e3565b61101c565b34801561030d57600080fd5b5061023f61031c3660046129fc565b61111d565b34801561032d57600080fd5b506102c961033c366004612965565b611223565b34801561034d57600080fd5b5061023f61035c3660046128aa565b6112a7565b34801561036d57600080fd5b5061023f61037c366004612a2c565b6112e7565b34801561038d57600080fd5b506103a161039c3660046128aa565b6113ad565b6040519081526020016102ad565b3480156103bb57600080fd5b5060408051808201825260008082526020918201819052825180840190935260018352908201525b60408051825161ffff90811682526020938401511692810192909252016102ad565b34801561041157600080fd5b506103a16104203660046128aa565b61142d565b34801561043157600080fd5b506103e3611470565b34801561044657600080fd5b506102c96114f5565b34801561045b57600080fd5b5061023f61046a3660046128aa565b611564565b34801561047b57600080fd5b506102a161048a3660046128aa565b611633565b34801561049b57600080fd5b5061023f6104aa366004612a67565b611676565b3480156104bb57600080fd5b506102c961173e565b3480156104d057600080fd5b506102c9611748565b3480156104e557600080fd5b506102a16104f43660046129fc565b611793565b34801561050557600080fd5b5061023f6105143660046128aa565b611819565b34801561052557600080fd5b5061023f6105343660046128aa565b6118e8565b34801561054557600080fd5b506102a16105543660046128aa565b611987565b34801561056557600080fd5b5061023f610574366004612910565b6119ca565b6102c9610587366004612adc565b611a94565b34801561059857600080fd5b506102a16105a73660046128aa565b611e0f565b3480156105b857600080fd5b506102a16105c73660046128aa565b611e52565b3480156105d857600080fd5b506102a16105e73660046128aa565b611e95565b3480156105f857600080fd5b5061023f610607366004612965565b611ed8565b34801561061857600080fd5b5061023f6106273660046128aa565b612104565b34801561063857600080fd5b5061023f6106473660046129fc565b6121d3565b61023f61065a3660046128aa565b6122a9565b34801561066b57600080fd5b506102a161067a3660046128aa565b6122e9565b34801561068b57600080fd5b5061023f61069a366004612a67565b61232c565b3480156106ab57600080fd5b506106bf6106ba3660046128aa565b6123f4565b6040516102ad9190612b17565b604051630a53217360e11b81526001600160a01b038216600482015273__$1822254560a4f971c7e72253c3a08363e7$__906314a642e6906024015b60006040518083038186803b15801561072057600080fd5b505af4158015610734573d6000803e3d6000fd5b5050505050565b604051630935e01b60e21b815233600482015273__$a5a42e46683ad9c79b7b86d5ff60fdf4c1$__906324d7806c90602401602060405180830381865af415801561078a573d6000803e3d6000fd5b505050506040513d601f19601f820116820180604052508101906107ae9190612b4f565b6107d35760405162461bcd60e51b81526004016107ca90612b6c565b60405180910390fd5b60405163ede71a1760e01b815273__$1822254560a4f971c7e72253c3a08363e7$__9063ede71a179061080e90869086908690600401612bca565b60006040518083038186803b15801561082657600080fd5b505af415801561083a573d6000803e3d6000fd5b50505050505050565b61084c33611e95565b6108685760405162461bcd60e51b81526004016107ca90612bf8565b610870612489565b610878612553565b60003390506000816001600160a01b0316630d8e6e2c6040518163ffffffff1660e01b81526004016040805180830381865afa1580156108bc573d6000803e3d6000fd5b505050506040513d601f19601f820116820180604052508101906108e09190612c81565b905060006108ec61257d565b60408051808201909152600282015461ffff80821683526201000090910416602082015290915061091e908390612613565b6109885760405162461bcd60e51b815260206004820152603560248201527f52656769737472793a20656e746974792076657273696f6e206973206c657373604482015274207468616e2063757272656e7420616c726561647960581b60648201526084016107ca565b8054604051636bc26a1360e11b81526001600160a01b039091166004820152339063d784d42690602401600060405180830381600087803b1580156109cc57600080fd5b505af11580156109e0573d6000803e3d6000fd5b505060405163e20eea0f60e01b815233925063e20eea0f9150610a099088908890600401612cee565b600060405180830381600087803b158015610a2357600080fd5b505af1158015610a37573d6000803e3d6000fd5b505082546040516001600160a01b0390911692503391507fd25150b43a5956fbd806981bc1261635722b4703fdcb605cb574703ad24563bf90600090a3505050610a816001600055565b5050565b604051630935e01b60e21b81526001600160a01b038216600482015260009073__$a5a42e46683ad9c79b7b86d5ff60fdf4c1$__906324d7806c906024015b602060405180830381865af4158015610ae1573d6000803e3d6000fd5b505050506040513d601f19601f82011682018060405250810190610b059190612b4f565b92915050565b604051637df73e2760e01b815233600482015260009073__$a5a42e46683ad9c79b7b86d5ff60fdf4c1$__90637df73e2790602401602060405180830381865af4158015610b5d573d6000803e3d6000fd5b505050506040513d601f19601f82011682018060405250810190610b819190612b4f565b610b9d5760405162461bcd60e51b81526004016107ca90612d0a565b610ba5612553565b6000610bb760a0840160808501612d53565b61ffff1611610c275760405162461bcd60e51b815260206004820152603660248201527f52656769737472617252656769737472793a20677261636520706572696f642060448201527506d7573742062652067726561746572207468616e20360541b60648201526084016107ca565b6000610c3161257d565b60018101549091506001600160a01b0316610c5e5760405162461bcd60e51b81526004016107ca90612d70565b80546001600160a01b0316610c855760405162461bcd60e51b81526004016107ca90612dc3565b60006040518060a00160405280856020016020810190610ca591906128aa565b6001600160a01b03168152306020820152604001610ccb36879003870160608801612e13565b8152604080870135602083015201610ce7610100870187612e60565b8080601f016020809104026020016040519081016040528093929190818152602001838380828437600092019190915250505091525060405163bf52415b60e01b815290915073__$d81eab81c4f96e94de97b51155a369ac43$__9063bf52415b90610d57908490600401612ea7565b60006040518083038186803b158015610d6f57600080fd5b505af4158015610d83573d6000803e3d6000fd5b5050506001830154610d9e91506001600160a01b0316612664565b92506001600160a01b038316610e0a5760405162461bcd60e51b815260206004820152602b60248201527f526567697374726172526567697374726174696f6e3a2070726f787920636c6f60448201526a1b9a5b99c819985a5b195960aa1b60648201526084016107ca565b8154604051636bc26a1360e11b81526001600160a01b0391821660048201529084169063d784d42690602401600060405180830381600087803b158015610e5057600080fd5b505af1158015610e64573d6000803e3d6000fd5b5050506001600160a01b0384169050632e0dd946610e8560c0870187612e60565b610e956040890160208a016128aa565b610ea260e08a018a612e60565b6040518663ffffffff1660e01b8152600401610ec2959493929190612f57565b600060405180830381600087803b158015610edc57600080fd5b505af1158015610ef0573d6000803e3d6000fd5b50505050610f1f833086606001803603810190610f0d9190612e13565b610f1a60c0890189612e60565b612725565b3415610fbc57610f326020850185612f99565b15610f8557610f4760408501602086016128aa565b6001600160a01b03166108fc349081150290604051600060405180830381858888f19350505050158015610f7f573d6000803e3d6000fd5b50610fbc565b6040516001600160a01b038416903480156108fc02916000818181858888f19350505050158015610fba573d6000803e3d6000fd5b505b610fcc60408501602086016128aa565b6001600160a01b0316836001600160a01b03167f7377123f9eb561d749cd3a89a83c22035cad6473521acbb981ee1c52d8f0248560405160405180910390a350506110176001600055565b919050565b3361102561279b565b6001600160a01b03161461107b5760405162461bcd60e51b815260206004820152601f60248201527f426173654163636573733a207265737472696374656420746f206f776e65720060448201526064016107ca565b478111156110dd5760405162461bcd60e51b815260206004820152602960248201527f52656769737472617252656769737472793a20616d6f756e7420657863656564604482015268732062616c616e636560b81b60648201526084016107ca565b6110e561173e565b6001600160a01b03166108fc829081150290604051600060405180830381858888f19350505050158015610a81573d6000803e3d6000fd5b604051630935e01b60e21b815233600482015273__$a5a42e46683ad9c79b7b86d5ff60fdf4c1$__906324d7806c90602401602060405180830381865af415801561116c573d6000803e3d6000fd5b505050506040513d601f19601f820116820180604052508101906111909190612b4f565b6111ac5760405162461bcd60e51b81526004016107ca90612b6c565b604051632f2ff15d60e01b8152600481018390526001600160a01b038216602482015273__$a5a42e46683ad9c79b7b86d5ff60fdf4c1$__90632f2ff15d906044015b60006040518083038186803b15801561120757600080fd5b505af415801561121b573d6000803e3d6000fd5b505050505050565b604051631f44527160e11b815260009073__$d81eab81c4f96e94de97b51155a369ac43$__90633e88a4e29061125f9086908690600401612cee565b602060405180830381865af415801561127c573d6000803e3d6000fd5b505050506040513d601f19601f820116820180604052508101906112a09190612fb6565b9392505050565b6040516347ef542760e01b81526001600160a01b038216600482015273__$1822254560a4f971c7e72253c3a08363e7$__906347ef542790602401610708565b604051630935e01b60e21b815233600482015273__$a5a42e46683ad9c79b7b86d5ff60fdf4c1$__906324d7806c90602401602060405180830381865af4158015611336573d6000803e3d6000fd5b505050506040513d601f19601f8201168201806040525081019061135a9190612b4f565b6113765760405162461bcd60e51b81526004016107ca90612b6c565b604051630bca13f760e41b815273__$d81eab81c4f96e94de97b51155a369ac43$__9063bca13f7090610708908490600401613006565b6040516309d8e14960e31b81526001600160a01b038216600482015260009073__$1822254560a4f971c7e72253c3a08363e7$__90634ec70a48906024015b602060405180830381865af4158015611409573d6000803e3d6000fd5b505050506040513d601f19601f82011682018060405250810190610b05919061309d565b604051632b9364a760e11b81526001600160a01b038216600482015260009073__$1822254560a4f971c7e72253c3a08363e7$__90635726c94e906024016113ec565b604080518082019091526000808252602082015273__$e1fef5d4b1bfc4a605b7eb127c84f71416$__635e0409626040518163ffffffff1660e01b81526004016040805180830381865af41580156114cc573d6000803e3d6000fd5b505050506040513d601f19601f820116820180604052508101906114f09190612c81565b905090565b600073__$e1fef5d4b1bfc4a605b7eb127c84f71416$__63689c48f06040518163ffffffff1660e01b8152600401602060405180830381865af4158015611540573d6000803e3d6000fd5b505050506040513d601f19601f820116820180604052508101906114f09190612fb6565b604051630935e01b60e21b815233600482015273__$a5a42e46683ad9c79b7b86d5ff60fdf4c1$__906324d7806c90602401602060405180830381865af41580156115b3573d6000803e3d6000fd5b505050506040513d601f19601f820116820180604052508101906115d79190612b4f565b6115f35760405162461bcd60e51b81526004016107ca90612b6c565b60405163699f380760e11b81526001600160a01b038216600482015273__$1822254560a4f971c7e72253c3a08363e7$__9063d33e700e90602401610708565b604051637df73e2760e01b81526001600160a01b038216600482015260009073__$a5a42e46683ad9c79b7b86d5ff60fdf4c1$__90637df73e2790602401610ac4565b604051630935e01b60e21b815233600482015273__$a5a42e46683ad9c79b7b86d5ff60fdf4c1$__906324d7806c90602401602060405180830381865af41580156116c5573d6000803e3d6000fd5b505050506040513d601f19601f820116820180604052508101906116e99190612b4f565b6117055760405162461bcd60e51b81526004016107ca90612b6c565b604051638d361e4360e01b815273__$a5a42e46683ad9c79b7b86d5ff60fdf4c1$__90638d361e43906111ef90859085906004016130b6565b60006114f061279b565b600073__$e1fef5d4b1bfc4a605b7eb127c84f71416$__6390e4b7206040518163ffffffff1660e01b8152600401602060405180830381865af4158015611540573d6000803e3d6000fd5b604051632474521560e21b8152600481018390526001600160a01b038216602482015260009073__$a5a42e46683ad9c79b7b86d5ff60fdf4c1$__906391d1485490604401602060405180830381865af41580156117f5573d6000803e3d6000fd5b505050506040513d601f19601f820116820180604052508101906112a09190612b4f565b604051630935e01b60e21b815233600482015273__$a5a42e46683ad9c79b7b86d5ff60fdf4c1$__906324d7806c90602401602060405180830381865af4158015611868573d6000803e3d6000fd5b505050506040513d601f19601f8201168201806040525081019061188c9190612b4f565b6118a85760405162461bcd60e51b81526004016107ca90612b6c565b6040516327f734e960e21b81526001600160a01b038216600482015273__$e1fef5d4b1bfc4a605b7eb127c84f71416$__90639fdcd3a490602401610708565b336118f161279b565b6001600160a01b0316146119475760405162461bcd60e51b815260206004820152601f60248201527f426173654163636573733a207265737472696374656420746f206f776e65720060448201526064016107ca565b6040516313af403560e01b81526001600160a01b038216600482015273__$a5a42e46683ad9c79b7b86d5ff60fdf4c1$__906313af403590602401610708565b60405163a8c88c1760e01b81526001600160a01b038216600482015260009073__$1822254560a4f971c7e72253c3a08363e7$__9063a8c88c1790602401610ac4565b604051630935e01b60e21b815233600482015273__$a5a42e46683ad9c79b7b86d5ff60fdf4c1$__906324d7806c90602401602060405180830381865af4158015611a19573d6000803e3d6000fd5b505050506040513d601f19601f82011682018060405250810190611a3d9190612b4f565b611a595760405162461bcd60e51b81526004016107ca90612b6c565b604051633f111a5d60e21b815273__$1822254560a4f971c7e72253c3a08363e7$__9063fc4469749061080e90869086908690600401612bca565b604051637df73e2760e01b815233600482015260009073__$a5a42e46683ad9c79b7b86d5ff60fdf4c1$__90637df73e2790602401602060405180830381865af4158015611ae6573d6000803e3d6000fd5b505050506040513d601f19601f82011682018060405250810190611b0a9190612b4f565b611b265760405162461bcd60e51b81526004016107ca90612d0a565b611b2e612553565b6000611b3861257d565b60018101549091506001600160a01b0316611b655760405162461bcd60e51b81526004016107ca90612d70565b80546001600160a01b0316611b8c5760405162461bcd60e51b81526004016107ca90612dc3565b6001810154600090611ba6906001600160a01b0316612664565b90506001600160a01b038116611c135760405162461bcd60e51b815260206004820152602c60248201527f526567697374726172526567697374726174696f6e3a20656e7469747920636c60448201526b1bdb9a5b99c819985a5b195960a21b60648201526084016107ca565b8154604051636bc26a1360e11b81526001600160a01b0391821660048201529082169063d784d42690602401600060405180830381600087803b158015611c5957600080fd5b505af1158015611c6d573d6000803e3d6000fd5b5050506001600160a01b0382169050632e0dd946611c8e6040870187612e60565b611c9e6040890160208a016128aa565b611cab60608a018a612e60565b6040518663ffffffff1660e01b8152600401611ccb959493929190612f57565b600060405180830381600087803b158015611ce557600080fd5b505af1158015611cf9573d6000803e3d6000fd5b50505050611d1681858060400190611d119190612e60565b6127b6565b3415611db357611d296020850185612f99565b15611d7c57611d3e60408501602086016128aa565b6001600160a01b03166108fc349081150290604051600060405180830381858888f19350505050158015611d76573d6000803e3d6000fd5b50611db3565b6040516001600160a01b038216903480156108fc02916000818181858888f19350505050158015611db1573d6000803e3d6000fd5b505b611dc360408501602086016128aa565b6001600160a01b0316816001600160a01b03167f7377123f9eb561d749cd3a89a83c22035cad6473521acbb981ee1c52d8f0248560405160405180910390a39150506110176001600055565b60405163b6db923d60e01b81526001600160a01b038216600482015260009073__$1822254560a4f971c7e72253c3a08363e7$__9063b6db923d90602401610ac4565b60405163ba2eb54160e01b81526001600160a01b038216600482015260009073__$1822254560a4f971c7e72253c3a08363e7$__9063ba2eb54190602401610ac4565b60405163c3c5a54760e01b81526001600160a01b038216600482015260009073__$d81eab81c4f96e94de97b51155a369ac43$__9063c3c5a54790602401610ac4565b611ee133611e95565b611efd5760405162461bcd60e51b81526004016107ca90612bf8565b611f05612489565b611f0d612553565b60003390506000816001600160a01b0316630d8e6e2c6040518163ffffffff1660e01b81526004016040805180830381865afa158015611f51573d6000803e3d6000fd5b505050506040513d601f19601f82011682018060405250810190611f759190612c81565b90506000611f8161257d565b60408051808201909152600282015461ffff808216835262010000909104166020820152909150611fb39083906127f1565b61200b5760405162461bcd60e51b815260206004820152602360248201527f52656769737472793a20656e7469747920686173206c6174657374207665727360448201526234b7b760e91b60648201526084016107ca565b8054604051636bc26a1360e11b81526001600160a01b039091166004820152339063d784d42690602401600060405180830381600087803b15801561204f57600080fd5b505af1158015612063573d6000803e3d6000fd5b505060405163e20eea0f60e01b815233925063e20eea0f915061208c9088908890600401612cee565b600060405180830381600087803b1580156120a657600080fd5b505af11580156120ba573d6000803e3d6000fd5b505082546040516001600160a01b0390911692503391507f066b0f46be3664c84e5e14bc4d9fb9be906d657f27b0c8ee4b962ad1530d3f4090600090a3505050610a816001600055565b604051630935e01b60e21b815233600482015273__$a5a42e46683ad9c79b7b86d5ff60fdf4c1$__906324d7806c90602401602060405180830381865af4158015612153573d6000803e3d6000fd5b505050506040513d601f19601f820116820180604052508101906121779190612b4f565b6121935760405162461bcd60e51b81526004016107ca90612b6c565b60405163cdbe221160e01b81526001600160a01b038216600482015273__$e1fef5d4b1bfc4a605b7eb127c84f71416$__9063cdbe221190602401610708565b604051630935e01b60e21b815233600482015273__$a5a42e46683ad9c79b7b86d5ff60fdf4c1$__906324d7806c90602401602060405180830381865af4158015612222573d6000803e3d6000fd5b505050506040513d601f19601f820116820180604052508101906122469190612b4f565b6122625760405162461bcd60e51b81526004016107ca90612b6c565b60405163d547741f60e01b8152600481018390526001600160a01b038216602482015273__$a5a42e46683ad9c79b7b86d5ff60fdf4c1$__9063d547741f906044016111ef565b6040516306b7df0160e51b81526001600160a01b038216600482015273__$1822254560a4f971c7e72253c3a08363e7$__9063d6fbe02090602401610708565b60405163e2482bf960e01b81526001600160a01b038216600482015260009073__$1822254560a4f971c7e72253c3a08363e7$__9063e2482bf990602401610ac4565b604051630935e01b60e21b815233600482015273__$a5a42e46683ad9c79b7b86d5ff60fdf4c1$__906324d7806c90602401602060405180830381865af415801561237b573d6000803e3d6000fd5b505050506040513d601f19601f8201168201806040525081019061239f9190612b4f565b6123bb5760405162461bcd60e51b81526004016107ca90612b6c565b60405163e8906a2d60e01b815273__$a5a42e46683ad9c79b7b86d5ff60fdf4c1$__9063e8906a2d906111ef90859085906004016130b6565b6040805160608101825260008082526020820181905281830152905163f82e2fb360e01b81526001600160a01b038316600482015273__$1822254560a4f971c7e72253c3a08363e7$__9063f82e2fb390602401606060405180830381865af4158015612465573d6000803e3d6000fd5b505050506040513d601f19601f82011682018060405250810190610b059190613104565b6000339050806001600160a01b03166386b70bed6040518163ffffffff1660e01b8152600401602060405180830381865afa1580156124cc573d6000803e3d6000fd5b505050506040513d601f19601f820116820180604052508101906124f09190612b4f565b6125505760405162461bcd60e51b815260206004820152602b60248201527f4261736552656d6f7661626c6552656769737472793a20656e7469747920697360448201526a206e6f742061637469766560a81b60648201526084016107ca565b50565b60026000540361257657604051633ee5aeb560e01b815260040160405180910390fd5b6002600055565b60408051808201909152601c81527f78722e656e746974792e666163746f72792e73746f726167652e76310000000060209091015260008060ff6125e260017f8b4ac7cd4466ab0d50fe53a88c5446ca4a450d482bef9ad792e7d9f451497e0f613151565b6040516020016125f491815260200190565b60408051601f1981840301815291905280516020909101201692915050565b8051825160009161ffff9081169116111561263057506001610b05565b8151835161ffff91821691160361265b57816020015161ffff16836020015161ffff16119050610b05565b50600092915050565b60006001600160a01b0382166126d45760405162461bcd60e51b815260206004820152602f60248201527f4c6962436c6f6e653a20696d706c656d656e746174696f6e2063616e6e6f742060448201526e6265207a65726f206164647265737360881b60648201526084016107ca565b60008260601b9050604051733d602d80600a3d3981f3363d3d373d3d3d363d7360601b81528160148201526e5af43d82803e903d91602b57fd5bf360881b60288201526037816000f0949350505050565b60405163745998e160e01b815273__$d81eab81c4f96e94de97b51155a369ac43$__9063745998e1906127649088908890889088908890600401613172565b60006040518083038186803b15801561277c57600080fd5b505af4158015612790573d6000803e3d6000fd5b505050505050505050565b6000806127a6612839565b546001600160a01b031692915050565b6040516316df177b60e11b815273__$d81eab81c4f96e94de97b51155a369ac43$__90632dbe2ef69061080e90869086908690600401612bca565b8051825160009161ffff9081169116101561280e57506001610b05565b8151835161ffff91821691160361265b57816020015161ffff16836020015161ffff16109050610b05565b60408051808201909152601481527378722e6163636573732e73746f726167652e763160601b60209091015260008060ff6125e260017fd870894b15ee1369a593f3670ac51c4ed8201dab473944ee712694d327dd5875613151565b6001600160a01b038116811461255057600080fd5b6000602082840312156128bc57600080fd5b81356112a081612895565b60008083601f8401126128d957600080fd5b50813567ffffffffffffffff8111156128f157600080fd5b60208301915083602082850101111561290957600080fd5b9250929050565b60008060006040848603121561292557600080fd5b833561293081612895565b9250602084013567ffffffffffffffff81111561294c57600080fd5b612958868287016128c7565b9497909650939450505050565b6000806020838503121561297857600080fd5b823567ffffffffffffffff81111561298f57600080fd5b61299b858286016128c7565b90969095509350505050565b6000602082840312156129b957600080fd5b813567ffffffffffffffff8111156129d057600080fd5b820161012081850312156112a057600080fd5b6000602082840312156129f557600080fd5b5035919050565b60008060408385031215612a0f57600080fd5b823591506020830135612a2181612895565b809150509250929050565b600060208284031215612a3e57600080fd5b813567ffffffffffffffff811115612a5557600080fd5b820160c081850312156112a057600080fd5b60008060208385031215612a7a57600080fd5b823567ffffffffffffffff80821115612a9257600080fd5b818501915085601f830112612aa657600080fd5b813581811115612ab557600080fd5b8660208260051b8501011115612aca57600080fd5b60209290920196919550909350505050565b600060208284031215612aee57600080fd5b813567ffffffffffffffff811115612b0557600080fd5b8201608081850312156112a057600080fd5b815161ffff9081168252602080840151909116908201526040808301519082015260608101610b05565b801515811461255057600080fd5b600060208284031215612b6157600080fd5b81516112a081612b41565b6020808252818101527f426173654163636573733a207265737472696374656420746f2061646d696e73604082015260600190565b81835281816020850137506000828201602090810191909152601f909101601f19169091010190565b6001600160a01b0384168152604060208201819052600090612bef9083018486612ba1565b95945050505050565b60208082526022908201527f52656769737472793a20656e74697479206973206e6f74207265676973746572604082015261195960f21b606082015260800190565b6040516060810167ffffffffffffffff81118282101715612c6b57634e487b7160e01b600052604160045260246000fd5b60405290565b61ffff8116811461255057600080fd5b600060408284031215612c9357600080fd5b6040516040810181811067ffffffffffffffff82111715612cc457634e487b7160e01b600052604160045260246000fd5b6040528251612cd281612c71565b81526020830151612ce281612c71565b60208201529392505050565b602081526000612d02602083018486612ba1565b949350505050565b60208082526029908201527f52656769737472617252656769737472793a2063616c6c6572206973206e6f7460408201526810309039b4b3b732b960b91b606082015260800190565b600060208284031215612d6557600080fd5b81356112a081612c71565b60208082526033908201527f526567697374726172526567697374726174696f6e3a2070726f787920696d706040820152721b195b595b9d185d1a5bdb881b9bdd081cd95d606a1b606082015260800190565b60208082526030908201527f52656769737472617252656769737472793a20656e7469747920696d706c656d60408201526f195b9d185d1a5bdb881b9bdd081cd95d60821b606082015260800190565b600060608284031215612e2557600080fd5b612e2d612c3a565b8235612e3881612c71565b81526020830135612e4881612c71565b60208201526040928301359281019290925250919050565b6000808335601e19843603018112612e7757600080fd5b83018035915067ffffffffffffffff821115612e9257600080fd5b60200191503681900382131561290957600080fd5b602080825282516001600160a01b0390811683830152838201511660408084019190915280840151805161ffff9081166060860152818401511660808501529081015160a08401526000919050606084015160c0840152608084015160e08085015280518061010086015260005b81811015612f325782810184015186820161012001528301612f15565b506101209250600083828701015282601f19601f830116860101935050505092915050565b606081526000612f6b606083018789612ba1565b6001600160a01b03861660208401528281036040840152612f8d818587612ba1565b98975050505050505050565b600060208284031215612fab57600080fd5b81356112a081612b41565b600060208284031215612fc857600080fd5b81516112a081612895565b8035612fde81612c71565b61ffff9081168352602082013590612ff582612c71565b166020830152604090810135910152565b602081526000823561301781612895565b6001600160a01b031660208381019190915283013536849003601e1901811261303f57600080fd5b830160208101903567ffffffffffffffff81111561305c57600080fd5b80360382131561306b57600080fd5b60c0604085015261308060e085018284612ba1565b915050604084013560608401526112a06080840160608601612fd3565b6000602082840312156130af57600080fd5b5051919050565b60208082528181018390526000908460408401835b868110156130f95782356130de81612895565b6001600160a01b0316825291830191908301906001016130cb565b509695505050505050565b60006060828403121561311657600080fd5b61311e612c3a565b825161312981612c71565b8152602083015161313981612c71565b60208201526040928301519281019290925250919050565b81810381811115610b0557634e487b7160e01b600052601160045260246000fd5b6001600160a01b0386811682528516602082015260006131b4604083018661ffff80825116835280602083015116602084015250604081015160408301525050565b60c060a08301526131c960c083018486612ba1565b97965050505050505056fea26469706673582212208e93aeb40c5816d083b02f7d9aff8e8e064367b5266ac6e45e333b7c35889edb64736f6c63430008180033",
  "linkReferences": {
    "contracts/libraries/LibAccess.sol": {
      "LibAccess": [
        {
          "length": 20,
          "start": 1909
        },
        {
          "length": 20,
          "start": 2763
        },
        {
          "length": 20,
          "start": 2888
        },
        {
          "length": 20,
          "start": 4439
        },
        {
          "length": 20,
          "start": 4598
        },
        {
          "length": 20,
          "start": 4897
        },
        {
          "length": 20,
          "start": 5534
        },
        {
          "length": 20,
          "start": 5753
        },
        {
          "length": 20,
          "start": 5808
        },
        {
          "length": 20,
          "start": 5945
        },
        {
          "length": 20,
          "start": 6112
        },
        {
          "length": 20,
          "start": 6227
        },
        {
          "length": 20,
          "start": 6538
        },
        {
          "length": 20,
          "start": 6660
        },
        {
          "length": 20,
          "start": 6865
        },
        {
          "length": 20,
          "start": 8510
        },
        {
          "length": 20,
          "start": 8717
        },
        {
          "length": 20,
          "start": 8876
        },
        {
          "length": 20,
          "start": 9062
        },
        {
          "length": 20,
          "start": 9199
        }
      ]
    },
    "contracts/libraries/LibEntityRemoval.sol": {
      "LibEntityRemoval": [
        {
          "length": 20,
          "start": 1807
        },
        {
          "length": 20,
          "start": 2055
        },
        {
          "length": 20,
          "start": 4842
        },
        {
          "length": 20,
          "start": 5107
        },
        {
          "length": 20,
          "start": 5235
        },
        {
          "length": 20,
          "start": 5686
        },
        {
          "length": 20,
          "start": 6605
        },
        {
          "length": 20,
          "start": 6797
        },
        {
          "length": 20,
          "start": 7765
        },
        {
          "length": 20,
          "start": 7832
        },
        {
          "length": 20,
          "start": 8940
        },
        {
          "length": 20,
          "start": 9007
        },
        {
          "length": 20,
          "start": 9296
        }
      ]
    },
    "contracts/libraries/LibFactory.sol": {
      "LibFactory": [
        {
          "length": 20,
          "start": 5291
        },
        {
          "length": 20,
          "start": 5406
        },
        {
          "length": 20,
          "start": 6001
        },
        {
          "length": 20,
          "start": 6379
        },
        {
          "length": 20,
          "start": 8662
        }
      ]
    },
    "contracts/libraries/LibRegistration.sol": {
      "LibRegistration": [
        {
          "length": 20,
          "start": 3412
        },
        {
          "length": 20,
          "start": 4698
        },
        {
          "length": 20,
          "start": 5034
        },
        {
          "length": 20,
          "start": 7899
        },
        {
          "length": 20,
          "start": 10073
        },
        {
          "length": 20,
          "start": 10218
        }
      ]
    }
  },
  "deployedLinkReferences": {
    "contracts/libraries/LibAccess.sol": {
      "LibAccess": [
        {
          "length": 20,
          "start": 1872
        },
        {
          "length": 20,
          "start": 2726
        },
        {
          "length": 20,
          "start": 2851
        },
        {
          "length": 20,
          "start": 4402
        },
        {
          "length": 20,
          "start": 4561
        },
        {
          "length": 20,
          "start": 4860
        },
        {
          "length": 20,
          "start": 5497
        },
        {
          "length": 20,
          "start": 5716
        },
        {
          "length": 20,
          "start": 5771
        },
        {
          "length": 20,
          "start": 5908
        },
        {
          "length": 20,
          "start": 6075
        },
        {
          "length": 20,
          "start": 6190
        },
        {
          "length": 20,
          "start": 6501
        },
        {
          "length": 20,
          "start": 6623
        },
        {
          "length": 20,
          "start": 6828
        },
        {
          "length": 20,
          "start": 8473
        },
        {
          "length": 20,
          "start": 8680
        },
        {
          "length": 20,
          "start": 8839
        },
        {
          "length": 20,
          "start": 9025
        },
        {
          "length": 20,
          "start": 9162
        }
      ]
    },
    "contracts/libraries/LibEntityRemoval.sol": {
      "LibEntityRemoval": [
        {
          "length": 20,
          "start": 1770
        },
        {
          "length": 20,
          "start": 2018
        },
        {
          "length": 20,
          "start": 4805
        },
        {
          "length": 20,
          "start": 5070
        },
        {
          "length": 20,
          "start": 5198
        },
        {
          "length": 20,
          "start": 5649
        },
        {
          "length": 20,
          "start": 6568
        },
        {
          "length": 20,
          "start": 6760
        },
        {
          "length": 20,
          "start": 7728
        },
        {
          "length": 20,
          "start": 7795
        },
        {
          "length": 20,
          "start": 8903
        },
        {
          "length": 20,
          "start": 8970
        },
        {
          "length": 20,
          "start": 9259
        }
      ]
    },
    "contracts/libraries/LibFactory.sol": {
      "LibFactory": [
        {
          "length": 20,
          "start": 5254
        },
        {
          "length": 20,
          "start": 5369
        },
        {
          "length": 20,
          "start": 5964
        },
        {
          "length": 20,
          "start": 6342
        },
        {
          "length": 20,
          "start": 8625
        }
      ]
    },
    "contracts/libraries/LibRegistration.sol": {
      "LibRegistration": [
        {
          "length": 20,
          "start": 3375
        },
        {
          "length": 20,
          "start": 4661
        },
        {
          "length": 20,
          "start": 4997
        },
        {
          "length": 20,
          "start": 7862
        },
        {
          "length": 20,
          "start": 10036
        },
        {
          "length": 20,
          "start": 10181
        }
      ]
    }
  }
}