{
  "_format": "hh-sol-artifact-1",
  "contractName": "World",
  "sourceName": "contracts/world/instance/World.sol",
  "abi": [
    {
      "inputs": [
        {
          "components": [
            {
              "internalType": "address",
              "name": "registrarRegistry",
              "type": "address"
            },
            {
              "internalType": "address",
              "name": "worldRegistry",
              "type": "address"
            },
            {
              "internalType": "address",
              "name": "avatarRegistry",
              "type": "address"
            },
            {
              "internalType": "address",
              "name": "companyRegistry",
              "type": "address"
            },
            {
              "internalType": "address",
              "name": "experienceRegistry",
              "type": "address"
            }
          ],
          "internalType": "struct WorldConstructorArgs",
          "name": "args",
          "type": "tuple"
        }
      ],
      "stateMutability": "nonpayable",
      "type": "constructor"
    },
    {
      "inputs": [],
      "name": "ReentrancyGuardReentrantCall",
      "type": "error"
    },
    {
      "anonymous": false,
      "inputs": [
        {
          "indexed": true,
          "internalType": "address",
          "name": "by",
          "type": "address"
        },
        {
          "indexed": false,
          "internalType": "string",
          "name": "reason",
          "type": "string"
        }
      ],
      "name": "EntityDeactivated",
      "type": "event"
    },
    {
      "anonymous": false,
      "inputs": [
        {
          "indexed": true,
          "internalType": "address",
          "name": "by",
          "type": "address"
        }
      ],
      "name": "EntityReactivated",
      "type": "event"
    },
    {
      "anonymous": false,
      "inputs": [
        {
          "indexed": true,
          "internalType": "address",
          "name": "by",
          "type": "address"
        },
        {
          "indexed": false,
          "internalType": "string",
          "name": "reason",
          "type": "string"
        }
      ],
      "name": "EntityRemoved",
      "type": "event"
    },
    {
      "anonymous": false,
      "inputs": [
        {
          "indexed": true,
          "internalType": "address",
          "name": "owner",
          "type": "address"
        },
        {
          "indexed": true,
          "internalType": "address",
          "name": "newOwner",
          "type": "address"
        }
      ],
      "name": "OwnerChanged",
      "type": "event"
    },
    {
      "anonymous": false,
      "inputs": [
        {
          "indexed": true,
          "internalType": "bytes32",
          "name": "role",
          "type": "bytes32"
        },
        {
          "indexed": true,
          "internalType": "address",
          "name": "account",
          "type": "address"
        },
        {
          "indexed": true,
          "internalType": "bool",
          "name": "grant",
          "type": "bool"
        }
      ],
      "name": "RoleChanged",
      "type": "event"
    },
    {
      "anonymous": false,
      "inputs": [
        {
          "indexed": false,
          "internalType": "address",
          "name": "signer",
          "type": "address"
        },
        {
          "indexed": false,
          "internalType": "bool",
          "name": "grant",
          "type": "bool"
        }
      ],
      "name": "SignerChanged",
      "type": "event"
    },
    {
      "anonymous": false,
      "inputs": [
        {
          "indexed": true,
          "internalType": "address",
          "name": "avatar",
          "type": "address"
        },
        {
          "indexed": true,
          "internalType": "address",
          "name": "owner",
          "type": "address"
        }
      ],
      "name": "WorldAddedAvatar",
      "type": "event"
    },
    {
      "anonymous": false,
      "inputs": [
        {
          "indexed": true,
          "internalType": "address",
          "name": "company",
          "type": "address"
        },
        {
          "indexed": true,
          "internalType": "address",
          "name": "owner",
          "type": "address"
        },
        {
          "components": [
            {
              "internalType": "string",
              "name": "x",
              "type": "string"
            },
            {
              "internalType": "string",
              "name": "y",
              "type": "string"
            },
            {
              "internalType": "string",
              "name": "z",
              "type": "string"
            },
            {
              "internalType": "uint256",
              "name": "t",
              "type": "uint256"
            },
            {
              "internalType": "uint256",
              "name": "p",
              "type": "uint256"
            },
            {
              "internalType": "uint256",
              "name": "p_sub",
              "type": "uint256"
            }
          ],
          "indexed": false,
          "internalType": "struct VectorAddress",
          "name": "vector",
          "type": "tuple"
        }
      ],
      "name": "WorldAddedCompany",
      "type": "event"
    },
    {
      "anonymous": false,
      "inputs": [
        {
          "indexed": true,
          "internalType": "address",
          "name": "company",
          "type": "address"
        },
        {
          "indexed": true,
          "internalType": "address",
          "name": "owner",
          "type": "address"
        }
      ],
      "name": "WorldAddedCompany",
      "type": "event"
    },
    {
      "anonymous": false,
      "inputs": [
        {
          "indexed": true,
          "internalType": "address",
          "name": "experience",
          "type": "address"
        },
        {
          "indexed": true,
          "internalType": "address",
          "name": "company",
          "type": "address"
        },
        {
          "indexed": false,
          "internalType": "uint256",
          "name": "portalId",
          "type": "uint256"
        }
      ],
      "name": "WorldAddedExperience",
      "type": "event"
    },
    {
      "anonymous": false,
      "inputs": [
        {
          "indexed": true,
          "internalType": "address",
          "name": "company",
          "type": "address"
        },
        {
          "indexed": false,
          "internalType": "string",
          "name": "reason",
          "type": "string"
        }
      ],
      "name": "WorldDeactivatedCompany",
      "type": "event"
    },
    {
      "anonymous": false,
      "inputs": [
        {
          "indexed": true,
          "internalType": "address",
          "name": "experience",
          "type": "address"
        },
        {
          "indexed": true,
          "internalType": "address",
          "name": "company",
          "type": "address"
        },
        {
          "indexed": false,
          "internalType": "string",
          "name": "reason",
          "type": "string"
        }
      ],
      "name": "WorldDeactivatedExperience",
      "type": "event"
    },
    {
      "anonymous": false,
      "inputs": [
        {
          "indexed": true,
          "internalType": "address",
          "name": "company",
          "type": "address"
        }
      ],
      "name": "WorldReactivatedCompany",
      "type": "event"
    },
    {
      "anonymous": false,
      "inputs": [
        {
          "indexed": true,
          "internalType": "address",
          "name": "experience",
          "type": "address"
        },
        {
          "indexed": true,
          "internalType": "address",
          "name": "company",
          "type": "address"
        }
      ],
      "name": "WorldReactivatedExperience",
      "type": "event"
    },
    {
      "anonymous": false,
      "inputs": [
        {
          "indexed": true,
          "internalType": "address",
          "name": "company",
          "type": "address"
        },
        {
          "indexed": false,
          "internalType": "string",
          "name": "reason",
          "type": "string"
        }
      ],
      "name": "WorldRemovedCompany",
      "type": "event"
    },
    {
      "anonymous": false,
      "inputs": [
        {
          "indexed": true,
          "internalType": "address",
          "name": "experience",
          "type": "address"
        },
        {
          "indexed": true,
          "internalType": "address",
          "name": "company",
          "type": "address"
        },
        {
          "indexed": false,
          "internalType": "string",
          "name": "reason",
          "type": "string"
        },
        {
          "indexed": false,
          "internalType": "uint256",
          "name": "portalId",
          "type": "uint256"
        }
      ],
      "name": "WorldRemovedExperience",
      "type": "event"
    },
    {
      "inputs": [
        {
          "components": [
            {
              "components": [
                {
                  "internalType": "string",
                  "name": "x",
                  "type": "string"
                },
                {
                  "internalType": "string",
                  "name": "y",
                  "type": "string"
                },
                {
                  "internalType": "string",
                  "name": "z",
                  "type": "string"
                },
                {
                  "internalType": "uint256",
                  "name": "t",
                  "type": "uint256"
                },
                {
                  "internalType": "uint256",
                  "name": "p",
                  "type": "uint256"
                },
                {
                  "internalType": "uint256",
                  "name": "p_sub",
                  "type": "uint256"
                }
              ],
              "internalType": "struct VectorAddress",
              "name": "vector",
              "type": "tuple"
            },
            {
              "internalType": "string",
              "name": "name",
              "type": "string"
            },
            {
              "internalType": "bytes",
              "name": "initData",
              "type": "bytes"
            }
          ],
          "internalType": "struct NewExperienceArgs",
          "name": "args",
          "type": "tuple"
        }
      ],
      "name": "addExperience",
      "outputs": [
        {
          "internalType": "address",
          "name": "experience",
          "type": "address"
        },
        {
          "internalType": "uint256",
          "name": "portalId",
          "type": "uint256"
        }
      ],
      "stateMutability": "nonpayable",
      "type": "function"
    },
    {
      "inputs": [
        {
          "internalType": "address[]",
          "name": "signers",
          "type": "address[]"
        }
      ],
      "name": "addSigners",
      "outputs": [],
      "stateMutability": "nonpayable",
      "type": "function"
    },
    {
      "inputs": [],
      "name": "avatarRegistry",
      "outputs": [
        {
          "internalType": "contract IAvatarRegistry",
          "name": "",
          "type": "address"
        }
      ],
      "stateMutability": "view",
      "type": "function"
    },
    {
      "inputs": [
        {
          "internalType": "address",
          "name": "newOwner",
          "type": "address"
        }
      ],
      "name": "changeOwner",
      "outputs": [],
      "stateMutability": "nonpayable",
      "type": "function"
    },
    {
      "inputs": [],
      "name": "companyRegistry",
      "outputs": [
        {
          "internalType": "contract ICompanyRegistry",
          "name": "",
          "type": "address"
        }
      ],
      "stateMutability": "view",
      "type": "function"
    },
    {
      "inputs": [
        {
          "internalType": "string",
          "name": "reason",
          "type": "string"
        }
      ],
      "name": "deactivate",
      "outputs": [],
      "stateMutability": "nonpayable",
      "type": "function"
    },
    {
      "inputs": [
        {
          "internalType": "address",
          "name": "company",
          "type": "address"
        },
        {
          "internalType": "string",
          "name": "reason",
          "type": "string"
        }
      ],
      "name": "deactivateCompany",
      "outputs": [],
      "stateMutability": "nonpayable",
      "type": "function"
    },
    {
      "inputs": [
        {
          "internalType": "address",
          "name": "experience",
          "type": "address"
        },
        {
          "internalType": "string",
          "name": "reason",
          "type": "string"
        }
      ],
      "name": "deactivateExperience",
      "outputs": [],
      "stateMutability": "nonpayable",
      "type": "function"
    },
    {
      "inputs": [],
      "name": "experienceRegistry",
      "outputs": [
        {
          "internalType": "contract IExperienceRegistry",
          "name": "",
          "type": "address"
        }
      ],
      "stateMutability": "view",
      "type": "function"
    },
    {
      "inputs": [
        {
          "internalType": "bytes32",
          "name": "role",
          "type": "bytes32"
        },
        {
          "internalType": "address",
          "name": "account",
          "type": "address"
        }
      ],
      "name": "grantRole",
      "outputs": [],
      "stateMutability": "nonpayable",
      "type": "function"
    },
    {
      "inputs": [
        {
          "internalType": "bytes32",
          "name": "role",
          "type": "bytes32"
        },
        {
          "internalType": "address",
          "name": "account",
          "type": "address"
        }
      ],
      "name": "hasRole",
      "outputs": [
        {
          "internalType": "bool",
          "name": "",
          "type": "bool"
        }
      ],
      "stateMutability": "view",
      "type": "function"
    },
    {
      "inputs": [
        {
          "components": [
            {
              "internalType": "address",
              "name": "owner",
              "type": "address"
            },
            {
              "internalType": "address",
              "name": "termsOwner",
              "type": "address"
            },
            {
              "components": [
                {
                  "internalType": "string",
                  "name": "x",
                  "type": "string"
                },
                {
                  "internalType": "string",
                  "name": "y",
                  "type": "string"
                },
                {
                  "internalType": "string",
                  "name": "z",
                  "type": "string"
                },
                {
                  "internalType": "uint256",
                  "name": "t",
                  "type": "uint256"
                },
                {
                  "internalType": "uint256",
                  "name": "p",
                  "type": "uint256"
                },
                {
                  "internalType": "uint256",
                  "name": "p_sub",
                  "type": "uint256"
                }
              ],
              "internalType": "struct VectorAddress",
              "name": "vector",
              "type": "tuple"
            },
            {
              "internalType": "string",
              "name": "name",
              "type": "string"
            },
            {
              "internalType": "bytes",
              "name": "initData",
              "type": "bytes"
            }
          ],
          "internalType": "struct WorldInitArgs",
          "name": "args",
          "type": "tuple"
        }
      ],
      "name": "init",
      "outputs": [],
      "stateMutability": "nonpayable",
      "type": "function"
    },
    {
      "inputs": [
        {
          "internalType": "address",
          "name": "account",
          "type": "address"
        }
      ],
      "name": "isAdmin",
      "outputs": [
        {
          "internalType": "bool",
          "name": "",
          "type": "bool"
        }
      ],
      "stateMutability": "view",
      "type": "function"
    },
    {
      "inputs": [],
      "name": "isEntityActive",
      "outputs": [
        {
          "internalType": "bool",
          "name": "",
          "type": "bool"
        }
      ],
      "stateMutability": "view",
      "type": "function"
    },
    {
      "inputs": [],
      "name": "isRemoved",
      "outputs": [
        {
          "internalType": "bool",
          "name": "",
          "type": "bool"
        }
      ],
      "stateMutability": "view",
      "type": "function"
    },
    {
      "inputs": [
        {
          "internalType": "address",
          "name": "account",
          "type": "address"
        }
      ],
      "name": "isSigner",
      "outputs": [
        {
          "internalType": "bool",
          "name": "",
          "type": "bool"
        }
      ],
      "stateMutability": "view",
      "type": "function"
    },
    {
      "inputs": [],
      "name": "isStillActive",
      "outputs": [
        {
          "internalType": "bool",
          "name": "",
          "type": "bool"
        }
      ],
      "stateMutability": "view",
      "type": "function"
    },
    {
      "inputs": [
        {
          "internalType": "address",
          "name": "a",
          "type": "address"
        }
      ],
      "name": "isTermsOwnerSigner",
      "outputs": [
        {
          "internalType": "bool",
          "name": "",
          "type": "bool"
        }
      ],
      "stateMutability": "view",
      "type": "function"
    },
    {
      "inputs": [],
      "name": "name",
      "outputs": [
        {
          "internalType": "string",
          "name": "",
          "type": "string"
        }
      ],
      "stateMutability": "view",
      "type": "function"
    },
    {
      "inputs": [],
      "name": "owner",
      "outputs": [
        {
          "internalType": "address",
          "name": "",
          "type": "address"
        }
      ],
      "stateMutability": "view",
      "type": "function"
    },
    {
      "inputs": [
        {
          "internalType": "bytes",
          "name": "",
          "type": "bytes"
        }
      ],
      "name": "postUpgradeInit",
      "outputs": [],
      "stateMutability": "nonpayable",
      "type": "function"
    },
    {
      "inputs": [],
      "name": "reactivate",
      "outputs": [],
      "stateMutability": "nonpayable",
      "type": "function"
    },
    {
      "inputs": [
        {
          "internalType": "address",
          "name": "company",
          "type": "address"
        }
      ],
      "name": "reactivateCompany",
      "outputs": [],
      "stateMutability": "nonpayable",
      "type": "function"
    },
    {
      "inputs": [
        {
          "internalType": "address",
          "name": "experience",
          "type": "address"
        }
      ],
      "name": "reactivateExperience",
      "outputs": [],
      "stateMutability": "nonpayable",
      "type": "function"
    },
    {
      "inputs": [
        {
          "components": [
            {
              "internalType": "bool",
              "name": "sendTokensToOwner",
              "type": "bool"
            },
            {
              "internalType": "address",
              "name": "owner",
              "type": "address"
            },
            {
              "internalType": "address",
              "name": "startingExperience",
              "type": "address"
            },
            {
              "internalType": "string",
              "name": "name",
              "type": "string"
            },
            {
              "internalType": "bytes",
              "name": "initData",
              "type": "bytes"
            }
          ],
          "internalType": "struct NewAvatarArgs",
          "name": "args",
          "type": "tuple"
        }
      ],
      "name": "registerAvatar",
      "outputs": [
        {
          "internalType": "address",
          "name": "avatar",
          "type": "address"
        }
      ],
      "stateMutability": "payable",
      "type": "function"
    },
    {
      "inputs": [
        {
          "components": [
            {
              "internalType": "bool",
              "name": "sendTokensToOwner",
              "type": "bool"
            },
            {
              "internalType": "address",
              "name": "owner",
              "type": "address"
            },
            {
              "internalType": "string",
              "name": "name",
              "type": "string"
            },
            {
              "components": [
                {
                  "internalType": "uint16",
                  "name": "coveragePeriodDays",
                  "type": "uint16"
                },
                {
                  "internalType": "uint16",
                  "name": "gracePeriodDays",
                  "type": "uint16"
                },
                {
                  "internalType": "uint256",
                  "name": "fee",
                  "type": "uint256"
                }
              ],
              "internalType": "struct RegistrationTerms",
              "name": "terms",
              "type": "tuple"
            },
            {
              "internalType": "bytes",
              "name": "ownerTermsSignature",
              "type": "bytes"
            },
            {
              "internalType": "uint256",
              "name": "expiration",
              "type": "uint256"
            },
            {
              "internalType": "bytes",
              "name": "initData",
              "type": "bytes"
            }
          ],
          "internalType": "struct NewCompanyArgs",
          "name": "args",
          "type": "tuple"
        }
      ],
      "name": "registerCompany",
      "outputs": [
        {
          "internalType": "address",
          "name": "company",
          "type": "address"
        }
      ],
      "stateMutability": "payable",
      "type": "function"
    },
    {
      "inputs": [
        {
          "internalType": "string",
          "name": "reason",
          "type": "string"
        }
      ],
      "name": "remove",
      "outputs": [],
      "stateMutability": "nonpayable",
      "type": "function"
    },
    {
      "inputs": [
        {
          "internalType": "address",
          "name": "company",
          "type": "address"
        },
        {
          "internalType": "string",
          "name": "reason",
          "type": "string"
        }
      ],
      "name": "removeCompany",
      "outputs": [],
      "stateMutability": "nonpayable",
      "type": "function"
    },
    {
      "inputs": [
        {
          "internalType": "address",
          "name": "experience",
          "type": "address"
        },
        {
          "internalType": "string",
          "name": "reason",
          "type": "string"
        }
      ],
      "name": "removeExperience",
      "outputs": [
        {
          "internalType": "uint256",
          "name": "portalId",
          "type": "uint256"
        }
      ],
      "stateMutability": "nonpayable",
      "type": "function"
    },
    {
      "inputs": [
        {
          "internalType": "address[]",
          "name": "signers",
          "type": "address[]"
        }
      ],
      "name": "removeSigners",
      "outputs": [],
      "stateMutability": "nonpayable",
      "type": "function"
    },
    {
      "inputs": [
        {
          "internalType": "bytes32",
          "name": "role",
          "type": "bytes32"
        },
        {
          "internalType": "address",
          "name": "account",
          "type": "address"
        }
      ],
      "name": "revokeRole",
      "outputs": [],
      "stateMutability": "nonpayable",
      "type": "function"
    },
    {
      "inputs": [],
      "name": "termsOwner",
      "outputs": [
        {
          "internalType": "address",
          "name": "",
          "type": "address"
        }
      ],
      "stateMutability": "view",
      "type": "function"
    },
    {
      "inputs": [
        {
          "internalType": "bytes",
          "name": "initData",
          "type": "bytes"
        }
      ],
      "name": "upgrade",
      "outputs": [],
      "stateMutability": "nonpayable",
      "type": "function"
    },
    {
      "inputs": [],
      "name": "vectorAddress",
      "outputs": [
        {
          "components": [
            {
              "internalType": "string",
              "name": "x",
              "type": "string"
            },
            {
              "internalType": "string",
              "name": "y",
              "type": "string"
            },
            {
              "internalType": "string",
              "name": "z",
              "type": "string"
            },
            {
              "internalType": "uint256",
              "name": "t",
              "type": "uint256"
            },
            {
              "internalType": "uint256",
              "name": "p",
              "type": "uint256"
            },
            {
              "internalType": "uint256",
              "name": "p_sub",
              "type": "uint256"
            }
          ],
          "internalType": "struct VectorAddress",
          "name": "",
          "type": "tuple"
        }
      ],
      "stateMutability": "view",
      "type": "function"
    },
    {
      "inputs": [],
      "name": "version",
      "outputs": [
        {
          "components": [
            {
              "internalType": "uint16",
              "name": "major",
              "type": "uint16"
            },
            {
              "internalType": "uint16",
              "name": "minor",
              "type": "uint16"
            }
          ],
          "internalType": "struct Version",
          "name": "",
          "type": "tuple"
        }
      ],
      "stateMutability": "pure",
      "type": "function"
    },
    {
      "inputs": [
        {
          "internalType": "uint256",
          "name": "amount",
          "type": "uint256"
        }
      ],
      "name": "withdraw",
      "outputs": [],
      "stateMutability": "nonpayable",
      "type": "function"
    },
    {
      "inputs": [],
      "name": "worldRegistry",
      "outputs": [
        {
          "internalType": "contract IWorldRegistry",
          "name": "",
          "type": "address"
        }
      ],
      "stateMutability": "view",
      "type": "function"
    },
    {
      "stateMutability": "payable",
      "type": "receive"
    }
  ],
  "bytecode": "0x6101006040523480156200001257600080fd5b5060405162003b3138038062003b3183398101604081905262000035916200020d565b600160005560208101516001600160a01b03166200009a5760405162461bcd60e51b815260206004820152601d60248201527f576f726c643a20496e76616c696420776f726c6420726567697374727900000060448201526064015b60405180910390fd5b60408101516001600160a01b0316620000f65760405162461bcd60e51b815260206004820152601e60248201527f576f726c643a20496e76616c6964206176617461722072656769737472790000604482015260640162000091565b60608101516001600160a01b0316620001525760405162461bcd60e51b815260206004820152601f60248201527f576f726c643a20496e76616c696420636f6d70616e7920726567697374727900604482015260640162000091565b60808101516001600160a01b0316620001b95760405162461bcd60e51b815260206004820152602260248201527f576f726c643a20496e76616c696420657870657269656e636520726567697374604482015261727960f01b606482015260840162000091565b60208101516001600160a01b0390811660809081526040830151821660a0526060830151821660c052909101511660e052620002b4565b80516001600160a01b03811681146200020857600080fd5b919050565b600060a082840312156200022057600080fd5b60405160a081016001600160401b03811182821017156200025157634e487b7160e01b600052604160045260246000fd5b6040526200025f83620001f0565b81526200026f60208401620001f0565b60208201526200028260408401620001f0565b60408201526200029560608401620001f0565b6060820152620002a860808401620001f0565b60808201529392505050565b60805160a05160c05160e0516137be620003736000396000818161053901528181610dbb015281816114ba015281816121c001526125990152600081816106010152818161085b01528181610c7a015281816112bc0152818161138e01528181611dd3015281816120860152818161229f015261246d0152600081816106ca01526115af01526000818161056d01528181610b4a01528181610bc2015281816117d301528181611b2a01528181611f18015261235001526137be6000f3fe60806040526004361061021e5760003560e01c80637e6e155111610123578063a6f9dae1116100ab578063ddf83cff1161006f578063ddf83cff14610678578063e20eea0f14610698578063e3d7ad73146106b8578063e8906a2d146106ec578063fcc111841461070c57600080fd5b8063a6f9dae1146105cf578063c51aba2b146105ef578063d18611d614610623578063d547741f14610638578063d802a9a21461065857600080fd5b80638da5cb5b116100f25780638da5cb5b146105125780638f09a6be14610527578063911c2a8c1461055b57806391d148541461058f578063a18cd5cc146105af57600080fd5b80637e6e1551146104bd57806380599e4b146104d257806386b70bed146104065780638d361e43146104f257600080fd5b80632fcbab9a116101a65780634f05c1c8116101755780634f05c1c81461040657806354fd4d501461041b57806361445eb71461046857806369bd9194146104885780637df73e271461049d57600080fd5b80632fcbab9a14610391578063412456c8146103b3578063464570b6146103d35780634d575f3d146103f357600080fd5b806325394645116101ed57806325394645146102d057806327ee999d146102f2578063288bd6f8146103125780632e1a7d4d146103515780632f2ff15d1461037157600080fd5b806306fdde031461022a5780630a7ee8a01461025557806318c538c71461028557806324d7806c146102b057600080fd5b3661022557005b600080fd5b34801561023657600080fd5b5061023f61073a565b60405161024c91906128a6565b60405180910390f35b34801561026157600080fd5b506102756102703660046128d9565b6107d2565b604051901515815260200161024c565b610298610293366004612a99565b6107e3565b6040516001600160a01b03909116815260200161024c565b3480156102bc57600080fd5b506102756102cb3660046128d9565b610a84565b3480156102dc57600080fd5b506102f06102eb366004612bd5565b610b04565b005b3480156102fe57600080fd5b506102f061030d366004612bd5565b610bb7565b34801561031e57600080fd5b5061033261032d366004612cc7565b610c58565b604080516001600160a01b03909316835260208301919091520161024c565b34801561035d57600080fd5b506102f061036c366004612d7b565b610e8f565b34801561037d57600080fd5b506102f061038c366004612d94565b610f52565b34801561039d57600080fd5b506103a6611050565b60405161024c9190612e37565b3480156103bf57600080fd5b506102f06103ce366004612e4a565b611278565b3480156103df57600080fd5b506102f06103ee366004612e4a565b611379565b610298610401366004612e9e565b61157e565b34801561041257600080fd5b506102756117b5565b34801561042757600080fd5b50604080518082018252600080825260209182018190528251808401845260018082529083019182528351908152905161ffff16918101919091520161024c565b34801561047457600080fd5b506102f0610483366004612f65565b6117c8565b34801561049457600080fd5b50610298611aa5565b3480156104a957600080fd5b506102756104b83660046128d9565b611ac4565b3480156104c957600080fd5b50610275611b07565b3480156104de57600080fd5b506102f06104ed366004612bd5565b611b1f565b3480156104fe57600080fd5b506102f061050d366004612ffc565b611c23565b34801561051e57600080fd5b50610298611ceb565b34801561053357600080fd5b506102987f000000000000000000000000000000000000000000000000000000000000000081565b34801561056757600080fd5b506102987f000000000000000000000000000000000000000000000000000000000000000081565b34801561059b57600080fd5b506102756105aa366004612d94565b611cfa565b3480156105bb57600080fd5b506102f06105ca3660046128d9565b611d87565b3480156105db57600080fd5b506102f06105ea3660046128d9565b611e70565b3480156105fb57600080fd5b506102987f000000000000000000000000000000000000000000000000000000000000000081565b34801561062f57600080fd5b506102f0611f0d565b34801561064457600080fd5b506102f0610653366004612d94565b611f9b565b34801561066457600080fd5b506102f06106733660046128d9565b612071565b34801561068457600080fd5b506102f0610693366004612e4a565b61225c565b3480156106a457600080fd5b506102f06106b3366004612bd5565b612345565b3480156106c457600080fd5b506102987f000000000000000000000000000000000000000000000000000000000000000081565b3480156106f857600080fd5b506102f0610707366004612ffc565b61238d565b34801561071857600080fd5b5061072c610727366004612e4a565b612455565b60405190815260200161024c565b6060610744612672565b805461074f90613070565b80601f016020809104026020016040519081016040528092919081815260200182805461077b90613070565b80156107c85780601f1061079d576101008083540402835291602001916107c8565b820191906000526020600020905b8154815290600101906020018083116107ab57829003601f168201915b5050505050905090565b60006107dd82611ac4565b92915050565b60006107ee33611ac4565b6108135760405162461bcd60e51b815260040161080a906130aa565b60405180910390fd5b61081b6126ff565b6000610825611050565b90506000610831612729565b90508060000160008154610844906130ee565b9190508190555080600001548260800181815250507f00000000000000000000000000000000000000000000000000000000000000006001600160a01b0316629ee30860405180610100016040528087600001511515815260200187602001516001600160a01b0316815260200187604001518152602001876060015181526020018581526020018760c001518152602001876080015181526020018760a001518152506040518263ffffffff1660e01b81526004016109049190613107565b6020604051808303816000875af1158015610923573d6000803e3d6000fd5b505050506040513d601f19601f8201168201806040525081019061094791906131ee565b92506001600160a01b03831661099f5760405162461bcd60e51b815260206004820152601e60248201527f576f726c643a20436f6d70616e79206372656174696f6e206661696c65640000604482015260640161080a565b3415610a24578351156109ed5760208401516040516001600160a01b03909116903480156108fc02916000818181858888f193505050501580156109e7573d6000803e3d6000fd5b50610a24565b6040516001600160a01b038416903480156108fc02916000818181858888f19350505050158015610a22573d6000803e3d6000fd5b505b83602001516001600160a01b0316836001600160a01b03167f54617c01ce8b2322d3c9640ac735f08c961dbd1d004e423027b43b2d1edd371384604051610a6b9190612e37565b60405180910390a35050610a7f6001600055565b919050565b604051630935e01b60e21b81526001600160a01b038216600482015260009073__$a5a42e46683ad9c79b7b86d5ff60fdf4c1$__906324d7806c906024015b602060405180830381865af4158015610ae0573d6000803e3d6000fd5b505050506040513d601f19601f820116820180604052508101906107dd919061320b565b33610b0d612784565b6001600160a01b031614610b335760405162461bcd60e51b815260040161080a90613228565b60405163c625e0ad60e01b81526001600160a01b037f0000000000000000000000000000000000000000000000000000000000000000169063c625e0ad90610b819085908590600401613288565b600060405180830381600087803b158015610b9b57600080fd5b505af1158015610baf573d6000803e3d6000fd5b505050505050565b336001600160a01b037f00000000000000000000000000000000000000000000000000000000000000001614610bff5760405162461bcd60e51b815260040161080a906132a4565b6000610c0961279f565b805460ff191691151591909117905560405133907f246589c99dd263c9b64a2b544e24074c282ca479ba3d2a0e649f9eeaca1e2d6290610c4c9085908590613288565b60405180910390a25050565b60405163c3c5a54760e01b815233600482015260009081906001600160a01b037f0000000000000000000000000000000000000000000000000000000000000000169063c3c5a54790602401602060405180830381865afa158015610cc1573d6000803e3d6000fd5b505050506040513d601f19601f82011682018060405250810190610ce5919061320b565b610d015760405162461bcd60e51b815260040161080a906132e9565b336001600160a01b03166386b70bed6040518163ffffffff1660e01b8152600401602060405180830381865afa158015610d3f573d6000803e3d6000fd5b505050506040513d601f19601f82011682018060405250810190610d63919061320b565b610d7f5760405162461bcd60e51b815260040161080a90613320565b610d876126ff565b60408051608081018252338152602085810151908201528451818301528482015160608201529051637ba8f00d60e11b81527f00000000000000000000000000000000000000000000000000000000000000006001600160a01b03169063f751e01a90610df8908490600401613357565b60408051808303816000875af1158015610e16573d6000803e3d6000fd5b505050506040513d601f19601f82011682018060405250810190610e3a91906133ca565b604051818152919450925033906001600160a01b038516907fb1ffa3fb5eb8fc3f04e75f6e99aa96c5f27a31a456be69fc2f303e93791c836f9060200160405180910390a350610e8a6001600055565b915091565b33610e98612784565b6001600160a01b031614610ebe5760405162461bcd60e51b815260040161080a90613228565b47811115610f0e5760405162461bcd60e51b815260206004820152601f60248201527f5265676973747261723a20696e73756666696369656e742062616c616e636500604482015260640161080a565b610f16612784565b6001600160a01b03166108fc829081150290604051600060405180830381858888f19350505050158015610f4e573d6000803e3d6000fd5b5050565b604051630935e01b60e21b815233600482015273__$a5a42e46683ad9c79b7b86d5ff60fdf4c1$__906324d7806c90602401602060405180830381865af4158015610fa1573d6000803e3d6000fd5b505050506040513d601f19601f82011682018060405250810190610fc5919061320b565b610fe15760405162461bcd60e51b815260040161080a906133f8565b604051632f2ff15d60e01b8152600481018390526001600160a01b038216602482015273__$a5a42e46683ad9c79b7b86d5ff60fdf4c1$__90632f2ff15d906044015b60006040518083038186803b15801561103c57600080fd5b505af4158015610baf573d6000803e3d6000fd5b6110896040518060c001604052806060815260200160608152602001606081526020016000815260200160008152602001600081525090565b61109161279f565b6001016040518060c00160405290816000820180546110af90613070565b80601f01602080910402602001604051908101604052809291908181526020018280546110db90613070565b80156111285780601f106110fd57610100808354040283529160200191611128565b820191906000526020600020905b81548152906001019060200180831161110b57829003601f168201915b5050505050815260200160018201805461114190613070565b80601f016020809104026020016040519081016040528092919081815260200182805461116d90613070565b80156111ba5780601f1061118f576101008083540402835291602001916111ba565b820191906000526020600020905b81548152906001019060200180831161119d57829003601f168201915b505050505081526020016002820180546111d390613070565b80601f01602080910402602001604051908101604052809291908181526020018280546111ff90613070565b801561124c5780601f106112215761010080835404028352916020019161124c565b820191906000526020600020905b81548152906001019060200180831161122f57829003601f168201915b505050505081526020016003820154815260200160048201548152602001600582015481525050905090565b61128133611ac4565b61129d5760405162461bcd60e51b815260040161080a906130aa565b6112a56126ff565b60405163af08d53d60e01b81526001600160a01b037f0000000000000000000000000000000000000000000000000000000000000000169063af08d53d906112f59086908690869060040161342d565b600060405180830381600087803b15801561130f57600080fd5b505af1158015611323573d6000803e3d6000fd5b50505050826001600160a01b03167f85bcddb7ad336b17bbd594aeb2faef5a5e2e5e81027612388e17361cc09924588383604051611362929190613288565b60405180910390a26113746001600055565b505050565b60405163c3c5a54760e01b81523360048201527f00000000000000000000000000000000000000000000000000000000000000006001600160a01b03169063c3c5a54790602401602060405180830381865afa1580156113dd573d6000803e3d6000fd5b505050506040513d601f19601f82011682018060405250810190611401919061320b565b61141d5760405162461bcd60e51b815260040161080a906132e9565b336001600160a01b03166386b70bed6040518163ffffffff1660e01b8152600401602060405180830381865afa15801561145b573d6000803e3d6000fd5b505050506040513d601f19601f8201168201806040525081019061147f919061320b565b61149b5760405162461bcd60e51b815260040161080a90613320565b6114a36126ff565b60405163200e4e1160e01b81526001600160a01b037f0000000000000000000000000000000000000000000000000000000000000000169063200e4e11906114f5903390879087908790600401613452565b600060405180830381600087803b15801561150f57600080fd5b505af1158015611523573d6000803e3d6000fd5b50505050336001600160a01b0316836001600160a01b03167f990609095a0655f0bf40676d0de09db5980e172581bfff57d42e049fd197879d848460405161156c929190613288565b60405180910390a36113746001600055565b600061158933611ac4565b6115a55760405162461bcd60e51b815260040161080a906130aa565b6115ad6126ff565b7f00000000000000000000000000000000000000000000000000000000000000006001600160a01b03166304fb06ca6040518060a0016040528085600001511515815260200185604001516001600160a01b0316815260200185602001516001600160a01b031681526020018560600151815260200185608001518152506040518263ffffffff1660e01b81526004016116479190613489565b6020604051808303816000875af1158015611666573d6000803e3d6000fd5b505050506040513d601f19601f8201168201806040525081019061168a91906131ee565b90506001600160a01b0381166116e25760405162461bcd60e51b815260206004820152601d60248201527f576f726c643a20417661746172206372656174696f6e206661696c6564000000604482015260640161080a565b3415611767578151156117305760208201516040516001600160a01b03909116903480156108fc02916000818181858888f1935050505015801561172a573d6000803e3d6000fd5b50611767565b6040516001600160a01b038216903480156108fc02916000818181858888f19350505050158015611765573d6000803e3d6000fd5b505b81602001516001600160a01b0316816001600160a01b03167fae3ac995f520a02d8a5a99cfc75a431f6596a0c592a9d4bca8f044be75c256a160405160405180910390a3610a7f6001600055565b60006117bf61279f565b5460ff16919050565b336001600160a01b037f000000000000000000000000000000000000000000000000000000000000000016146118105760405162461bcd60e51b815260040161080a906132a4565b60008160600151511161185c5760405162461bcd60e51b815260206004820152601460248201527315dbdc9b190e8813985b59481c995c5d5a5c995960621b604482015260640161080a565b80516001600160a01b03166118ab5760405162461bcd60e51b815260206004820152601560248201527415dbdc9b190e8813dddb995c881c995c5d5a5c9959605a1b604482015260640161080a565b60208101516001600160a01b03166119055760405162461bcd60e51b815260206004820152601b60248201527f576f726c643a205465726d73206f776e65722072657175697265640000000000604482015260640161080a565b60408082015190516361d9624d60e01b815273__$ad2b23306edd42b5f4873830e307b82d47$__916361d9624d91611945919060009081906004016134f0565b60006040518083038186803b15801561195d57600080fd5b505af4158015611971573d6000803e3d6000fd5b505050508060600151611982612672565b9061198d90826135cf565b50600061199861279f565b805460208401516001600160a01b0316620100000261ff01600160b01b0319909116176001908117825560408401518051929350919083019081906119dd90826135cf565b50602082015160018201906119f290826135cf565b5060408201516002820190611a0790826135cf565b50606082015160038201556080820151600482015560a09091015160059091015560408051600081526020810191829052835163d9ac971f60e01b9092529073__$a5a42e46683ad9c79b7b86d5ff60fdf4c1$__9063d9ac971f90611a7090846024810161368e565b60006040518083038186803b158015611a8857600080fd5b505af4158015611a9c573d6000803e3d6000fd5b50505050505050565b6000611aaf61279f565b546201000090046001600160a01b0316919050565b604051637df73e2760e01b81526001600160a01b038216600482015260009073__$a5a42e46683ad9c79b7b86d5ff60fdf4c1$__90637df73e2790602401610ac3565b6000611b1161279f565b54610100900460ff16919050565b336001600160a01b037f00000000000000000000000000000000000000000000000000000000000000001614611b675760405162461bcd60e51b815260040161080a906132a4565b611b6f61279f565b5460ff1615611bcf5760405162461bcd60e51b815260206004820152602660248201527f52656d6f7661626c65456e746974793a206d757374206465616374697661746560448201526508199a5c9cdd60d21b606482015260840161080a565b6001611bd961279f565b80549115156101000261ff001990921691909117905560405133907fbf430175840309fcb4cce13557429998477f9f95733cb0d42c170af8aa225d0690610c4c9085908590613288565b604051630935e01b60e21b815233600482015273__$a5a42e46683ad9c79b7b86d5ff60fdf4c1$__906324d7806c90602401602060405180830381865af4158015611c72573d6000803e3d6000fd5b505050506040513d601f19601f82011682018060405250810190611c96919061320b565b611cb25760405162461bcd60e51b815260040161080a906133f8565b604051638d361e4360e01b815273__$a5a42e46683ad9c79b7b86d5ff60fdf4c1$__90638d361e439061102490859085906004016136ea565b6000611cf5612784565b905090565b604051632474521560e21b8152600481018390526001600160a01b038216602482015260009073__$a5a42e46683ad9c79b7b86d5ff60fdf4c1$__906391d1485490604401602060405180830381865af4158015611d5c573d6000803e3d6000fd5b505050506040513d601f19601f82011682018060405250810190611d80919061320b565b9392505050565b611d9033611ac4565b611dac5760405162461bcd60e51b815260040161080a906130aa565b611db46126ff565b60405163349e3cd960e11b81526001600160a01b0382811660048301527f0000000000000000000000000000000000000000000000000000000000000000169063693c79b290602401600060405180830381600087803b158015611e1757600080fd5b505af1158015611e2b573d6000803e3d6000fd5b50506040516001600160a01b03841692507fb4a7f68ad1950fa37a0e8002ea6b109f2ee2b7a6539909dc27463fe5200dc71c9150600090a2611e6d6001600055565b50565b33611e79612784565b6001600160a01b031614611e9f5760405162461bcd60e51b815260040161080a90613228565b6040516313af403560e01b81526001600160a01b038216600482015273__$a5a42e46683ad9c79b7b86d5ff60fdf4c1$__906313af40359060240160006040518083038186803b158015611ef257600080fd5b505af4158015611f06573d6000803e3d6000fd5b5050505050565b336001600160a01b037f00000000000000000000000000000000000000000000000000000000000000001614611f555760405162461bcd60e51b815260040161080a906132a4565b6001611f5f61279f565b805460ff191691151591909117905560405133907f54ca6a4cb143be493713a7079cc0d6cdbbf0688ee68398b4354b056088f2cbf590600090a2565b604051630935e01b60e21b815233600482015273__$a5a42e46683ad9c79b7b86d5ff60fdf4c1$__906324d7806c90602401602060405180830381865af4158015611fea573d6000803e3d6000fd5b505050506040513d601f19601f8201168201806040525081019061200e919061320b565b61202a5760405162461bcd60e51b815260040161080a906133f8565b60405163d547741f60e01b8152600481018390526001600160a01b038216602482015273__$a5a42e46683ad9c79b7b86d5ff60fdf4c1$__9063d547741f90604401611024565b60405163c3c5a54760e01b81523360048201527f00000000000000000000000000000000000000000000000000000000000000006001600160a01b03169063c3c5a54790602401602060405180830381865afa1580156120d5573d6000803e3d6000fd5b505050506040513d601f19601f820116820180604052508101906120f9919061320b565b6121155760405162461bcd60e51b815260040161080a906132e9565b336001600160a01b03166386b70bed6040518163ffffffff1660e01b8152600401602060405180830381865afa158015612153573d6000803e3d6000fd5b505050506040513d601f19601f82011682018060405250810190612177919061320b565b6121935760405162461bcd60e51b815260040161080a90613320565b61219b6126ff565b6040516391026f1960e01b81523360048201526001600160a01b0382811660248301527f000000000000000000000000000000000000000000000000000000000000000016906391026f1990604401600060405180830381600087803b15801561220457600080fd5b505af1158015612218573d6000803e3d6000fd5b50506040513392506001600160a01b03841691507f4d74c7e46459bf5359fc73c9172e714783111c16f0754ee570ef2358bf788a4190600090a3611e6d6001600055565b61226533611ac4565b6122815760405162461bcd60e51b815260040161080a906130aa565b6122896126ff565b6040516219d2db60e51b81526001600160a01b037f0000000000000000000000000000000000000000000000000000000000000000169063033a5b60906122d89086908690869060040161342d565b600060405180830381600087803b1580156122f257600080fd5b505af1158015612306573d6000803e3d6000fd5b50505050826001600160a01b03167f8c4407955521e664922a84334fc7ae6c76eee5bebb108e6a18591299efb11ade8383604051611362929190613288565b336001600160a01b037f00000000000000000000000000000000000000000000000000000000000000001614610f4e5760405162461bcd60e51b815260040161080a906132a4565b604051630935e01b60e21b815233600482015273__$a5a42e46683ad9c79b7b86d5ff60fdf4c1$__906324d7806c90602401602060405180830381865af41580156123dc573d6000803e3d6000fd5b505050506040513d601f19601f82011682018060405250810190612400919061320b565b61241c5760405162461bcd60e51b815260040161080a906133f8565b60405163e8906a2d60e01b815273__$a5a42e46683ad9c79b7b86d5ff60fdf4c1$__9063e8906a2d9061102490859085906004016136ea565b60405163c3c5a54760e01b81523360048201526000907f00000000000000000000000000000000000000000000000000000000000000006001600160a01b03169063c3c5a54790602401602060405180830381865afa1580156124bc573d6000803e3d6000fd5b505050506040513d601f19601f820116820180604052508101906124e0919061320b565b6124fc5760405162461bcd60e51b815260040161080a906132e9565b336001600160a01b03166386b70bed6040518163ffffffff1660e01b8152600401602060405180830381865afa15801561253a573d6000803e3d6000fd5b505050506040513d601f19601f8201168201806040525081019061255e919061320b565b61257a5760405162461bcd60e51b815260040161080a90613320565b6125826126ff565b6040516323109fa560e11b81526001600160a01b037f000000000000000000000000000000000000000000000000000000000000000016906346213f4a906125d4903390889088908890600401613452565b6020604051808303816000875af11580156125f3573d6000803e3d6000fd5b505050506040513d601f19601f820116820180604052508101906126179190613738565b9050336001600160a01b0316846001600160a01b03167fb52c461b2acc91ebfc0aff718481ab840088a472e01d28e9c368320cda4c887685858560405161266093929190613751565b60405180910390a3611d806001600055565b60408051808201909152601481527378722e656e746974792e73746f726167652e763160601b60209091015260008060ff6126ce60017fdefc82a28b6578c2a63b29b15450260a5e998242a6300b7fcb30814ee74ae188613775565b6040516020016126e091815260200190565b60408051601f1981840301815291905280516020909101201692915050565b60026000540361272257604051633ee5aeb560e01b815260040160405180910390fd5b6002600055565b60408051808201909152601381527278722e776f726c642e73746f726167652e763160681b60209091015260008060ff6126ce60017fbc8378efb4bd30899c6e5d9a95eb33c0dfb78706c9d8aadf9a4218e2dbb5791e613775565b60008061278f612804565b546001600160a01b031692915050565b60408051808201909152601881527f78722e61637469766174696f6e2e73746f726167652e7631000000000000000060209091015260008060ff6126ce60017ff6611e962a52dbc98dd0485088d920890c43e26113c61976f6e171a29d49ce49613775565b60408051808201909152601481527378722e6163636573732e73746f726167652e763160601b60209091015260008060ff6126ce60017fd870894b15ee1369a593f3670ac51c4ed8201dab473944ee712694d327dd5875613775565b6000815180845260005b818110156128865760208185018101518683018201520161286a565b506000602082860101526020601f19601f83011685010191505092915050565b602081526000611d806020830184612860565b6001600160a01b0381168114611e6d57600080fd5b8035610a7f816128b9565b6000602082840312156128eb57600080fd5b8135611d80816128b9565b634e487b7160e01b600052604160045260246000fd5b604051606081016001600160401b038111828210171561292e5761292e6128f6565b60405290565b60405160e081016001600160401b038111828210171561292e5761292e6128f6565b60405160c081016001600160401b038111828210171561292e5761292e6128f6565b60405160a081016001600160401b038111828210171561292e5761292e6128f6565b8015158114611e6d57600080fd5b8035610a7f8161299a565b600082601f8301126129c457600080fd5b81356001600160401b03808211156129de576129de6128f6565b604051601f8301601f19908116603f01168101908282118183101715612a0657612a066128f6565b81604052838152866020858801011115612a1f57600080fd5b836020870160208301376000602085830101528094505050505092915050565b803561ffff81168114610a7f57600080fd5b600060608284031215612a6357600080fd5b612a6b61290c565b9050612a7682612a3f565b8152612a8460208301612a3f565b60208201526040820135604082015292915050565b600060208284031215612aab57600080fd5b81356001600160401b0380821115612ac257600080fd5b908301906101208286031215612ad757600080fd5b612adf612934565b612ae8836129a8565b8152612af6602084016128ce565b6020820152604083013582811115612b0d57600080fd5b612b19878286016129b3565b604083015250612b2c8660608501612a51565b606082015260c083013582811115612b4357600080fd5b612b4f878286016129b3565b60808301525060e083013560a082015261010083013582811115612b7257600080fd5b612b7e878286016129b3565b60c08301525095945050505050565b60008083601f840112612b9f57600080fd5b5081356001600160401b03811115612bb657600080fd5b602083019150836020828501011115612bce57600080fd5b9250929050565b60008060208385031215612be857600080fd5b82356001600160401b03811115612bfe57600080fd5b612c0a85828601612b8d565b90969095509350505050565b600060c08284031215612c2857600080fd5b612c30612956565b905081356001600160401b0380821115612c4957600080fd5b612c55858386016129b3565b83526020840135915080821115612c6b57600080fd5b612c77858386016129b3565b60208401526040840135915080821115612c9057600080fd5b50612c9d848285016129b3565b604083015250606082013560608201526080820135608082015260a082013560a082015292915050565b600060208284031215612cd957600080fd5b81356001600160401b0380821115612cf057600080fd5b9083019060608286031215612d0457600080fd5b612d0c61290c565b823582811115612d1b57600080fd5b612d2787828601612c16565b825250602083013582811115612d3c57600080fd5b612d48878286016129b3565b602083015250604083013582811115612d6057600080fd5b612d6c878286016129b3565b60408301525095945050505050565b600060208284031215612d8d57600080fd5b5035919050565b60008060408385031215612da757600080fd5b823591506020830135612db9816128b9565b809150509250929050565b6000815160c08452612dd960c0850182612860565b905060208301518482036020860152612df28282612860565b91505060408301518482036040860152612e0c8282612860565b915050606083015160608501526080830151608085015260a083015160a08501528091505092915050565b602081526000611d806020830184612dc4565b600080600060408486031215612e5f57600080fd5b8335612e6a816128b9565b925060208401356001600160401b03811115612e8557600080fd5b612e9186828701612b8d565b9497909650939450505050565b600060208284031215612eb057600080fd5b81356001600160401b0380821115612ec757600080fd5b9083019060a08286031215612edb57600080fd5b612ee3612978565b8235612eee8161299a565b81526020830135612efe816128b9565b6020820152612f0f604084016128ce565b6040820152606083013582811115612f2657600080fd5b612f32878286016129b3565b606083015250608083013582811115612f4a57600080fd5b612f56878286016129b3565b60808301525095945050505050565b600060208284031215612f7757600080fd5b81356001600160401b0380821115612f8e57600080fd5b9083019060a08286031215612fa257600080fd5b612faa612978565b612fb3836128ce565b8152612fc1602084016128ce565b6020820152604083013582811115612fd857600080fd5b612fe487828601612c16565b604083015250606083013582811115612f2657600080fd5b6000806020838503121561300f57600080fd5b82356001600160401b038082111561302657600080fd5b818501915085601f83011261303a57600080fd5b81358181111561304957600080fd5b8660208260051b850101111561305e57600080fd5b60209290920196919550909350505050565b600181811c9082168061308457607f821691505b6020821081036130a457634e487b7160e01b600052602260045260246000fd5b50919050565b602080825260149082015273456e746974793a206f6e6c79207369676e65727360601b604082015260600190565b634e487b7160e01b600052601160045260246000fd5b600060018201613100576131006130d8565b5060010190565b6020815261311a60208201835115159052565b6000602083015161313660408401826001600160a01b03169052565b506040830151610140806060850152613153610160850183612860565b6060860151805161ffff908116608088015260208201511660a0870152604081015160c0870152909250506080850151601f19808685030160e087015261319a8483612dc4565b935060a0870151915080868503016101008701526131b88483612860565b935060c087015191508086850301610120870152506131d78382612860565b92505060e085015181850152508091505092915050565b60006020828403121561320057600080fd5b8151611d80816128b9565b60006020828403121561321d57600080fd5b8151611d808161299a565b6020808252601f908201527f426173654163636573733a207265737472696374656420746f206f776e657200604082015260600190565b81835281816020850137506000828201602090810191909152601f909101601f19169091010190565b60208152600061329c60208301848661325f565b949350505050565b60208082526025908201527f52656d6f7661626c65456e746974793a206f6e6c79206f776e696e6720726567604082015264697374727960d81b606082015260800190565b6020808252601d908201527f576f726c643a20436f6d70616e79206e6f742072656769737465726564000000604082015260600190565b60208082526019908201527f576f726c643a20436f6d70616e79206e6f742061637469766500000000000000604082015260600190565b602080825282516001600160a01b0316828201528201516080604083015260009061338560a0840182612860565b90506040840151601f19808584030160608601526133a38383612dc4565b92506060860151915080858403016080860152506133c18282612860565b95945050505050565b600080604083850312156133dd57600080fd5b82516133e8816128b9565b6020939093015192949293505050565b6020808252818101527f426173654163636573733a207265737472696374656420746f2061646d696e73604082015260600190565b6001600160a01b03841681526040602082018190526000906133c1908301848661325f565b6001600160a01b0385811682528416602082015260606040820181905260009061347f908301848661325f565b9695505050505050565b602081528151151560208201526000602083015160018060a01b0380821660408501528060408601511660608501525050606083015160a060808401526134d360c0840182612860565b90506080840151601f198483030160a08501526133c18282612860565b606081526000845160c0606084015261350d610120840182612860565b90506020860151605f198085840301608086015261352b8383612860565b925060408801519150808584030160a0860152506135498282612860565b606088015160c0860152608088015160e086015260a08801516101008601528615156020860152925061357a915050565b821515604083015261329c565b601f821115611374576000816000526020600020601f850160051c810160208610156135b05750805b601f850160051c820191505b81811015610baf578281556001016135bc565b81516001600160401b038111156135e8576135e86128f6565b6135fc816135f68454613070565b84613587565b602080601f83116001811461363157600084156136195750858301515b600019600386901b1c1916600185901b178555610baf565b600085815260208120601f198616915b8281101561366057888601518255948401946001909101908401613641565b508582101561367e5787850151600019600388901b60f8161c191681555b5050505050600190811b01905550565b6001600160a01b038381168252604060208084018290528451918401829052600092858201929091906060860190855b818110156136dc5785518516835294830194918301916001016136be565b509098975050505050505050565b60208082528181018390526000908460408401835b8681101561372d578235613712816128b9565b6001600160a01b0316825291830191908301906001016136ff565b509695505050505050565b60006020828403121561374a57600080fd5b5051919050565b60408152600061376560408301858761325f565b9050826020830152949350505050565b818103818111156107dd576107dd6130d856fea2646970667358221220ffda7f5a22c5637d5810868d83ca8940adb2138c57eb6af2a9c434504947759364736f6c63430008180033",
  "linkReferences": {
    "contracts/libraries/LibAccess.sol": {
      "LibAccess": [
        {
          "length": 20,
          "start": 3608
        },
        {
          "length": 20,
          "start": 4826
        },
        {
          "length": 20,
          "start": 4985
        },
        {
          "length": 20,
          "start": 7611
        },
        {
          "length": 20,
          "start": 7768
        },
        {
          "length": 20,
          "start": 8107
        },
        {
          "length": 20,
          "start": 8244
        },
        {
          "length": 20,
          "start": 8341
        },
        {
          "length": 20,
          "start": 8752
        },
        {
          "length": 20,
          "start": 8995
        },
        {
          "length": 20,
          "start": 9154
        },
        {
          "length": 20,
          "start": 10005
        },
        {
          "length": 20,
          "start": 10142
        }
      ]
    },
    "contracts/libraries/LibVectorAddress.sol": {
      "LibVectorAddress": [
        {
          "length": 20,
          "start": 7308
        }
      ]
    }
  },
  "deployedLinkReferences": {
    "contracts/libraries/LibAccess.sol": {
      "LibAccess": [
        {
          "length": 20,
          "start": 2725
        },
        {
          "length": 20,
          "start": 3943
        },
        {
          "length": 20,
          "start": 4102
        },
        {
          "length": 20,
          "start": 6728
        },
        {
          "length": 20,
          "start": 6885
        },
        {
          "length": 20,
          "start": 7224
        },
        {
          "length": 20,
          "start": 7361
        },
        {
          "length": 20,
          "start": 7458
        },
        {
          "length": 20,
          "start": 7869
        },
        {
          "length": 20,
          "start": 8112
        },
        {
          "length": 20,
          "start": 8271
        },
        {
          "length": 20,
          "start": 9122
        },
        {
          "length": 20,
          "start": 9259
        }
      ]
    },
    "contracts/libraries/LibVectorAddress.sol": {
      "LibVectorAddress": [
        {
          "length": 20,
          "start": 6425
        }
      ]
    }
  }
}