{
  "_format": "hh-sol-artifact-1",
  "contractName": "WorldRegistry",
  "sourceName": "contracts/world/registry/WorldRegistry.sol",
  "abi": [
    {
      "inputs": [
        {
          "components": [
            {
              "internalType": "address",
              "name": "registrarRegistry",
              "type": "address"
            }
          ],
          "internalType": "struct WorldRegistryConstructorArgs",
          "name": "args",
          "type": "tuple"
        }
      ],
      "stateMutability": "nonpayable",
      "type": "constructor"
    },
    {
      "inputs": [],
      "name": "ECDSAInvalidSignature",
      "type": "error"
    },
    {
      "inputs": [
        {
          "internalType": "uint256",
          "name": "length",
          "type": "uint256"
        }
      ],
      "name": "ECDSAInvalidSignatureLength",
      "type": "error"
    },
    {
      "inputs": [
        {
          "internalType": "bytes32",
          "name": "s",
          "type": "bytes32"
        }
      ],
      "name": "ECDSAInvalidSignatureS",
      "type": "error"
    },
    {
      "inputs": [],
      "name": "ReentrancyGuardReentrantCall",
      "type": "error"
    },
    {
      "anonymous": false,
      "inputs": [
        {
          "indexed": true,
          "internalType": "address",
          "name": "entity",
          "type": "address"
        },
        {
          "indexed": true,
          "internalType": "address",
          "name": "by",
          "type": "address"
        }
      ],
      "name": "EntityRegistrationRenewed",
      "type": "event"
    },
    {
      "anonymous": false,
      "inputs": [
        {
          "indexed": true,
          "internalType": "address",
          "name": "owner",
          "type": "address"
        },
        {
          "indexed": true,
          "internalType": "address",
          "name": "newOwner",
          "type": "address"
        }
      ],
      "name": "OwnerChanged",
      "type": "event"
    },
    {
      "anonymous": false,
      "inputs": [
        {
          "indexed": true,
          "internalType": "address",
          "name": "world",
          "type": "address"
        },
        {
          "indexed": true,
          "internalType": "address",
          "name": "oldRegistrar",
          "type": "address"
        },
        {
          "indexed": true,
          "internalType": "address",
          "name": "newRegistrar",
          "type": "address"
        }
      ],
      "name": "RegistrarChangedForWorld",
      "type": "event"
    },
    {
      "anonymous": false,
      "inputs": [
        {
          "indexed": true,
          "internalType": "address",
          "name": "world",
          "type": "address"
        },
        {
          "indexed": false,
          "internalType": "string",
          "name": "reason",
          "type": "string"
        }
      ],
      "name": "RegistrarDeactivatedWorld",
      "type": "event"
    },
    {
      "anonymous": false,
      "inputs": [
        {
          "indexed": true,
          "internalType": "address",
          "name": "world",
          "type": "address"
        }
      ],
      "name": "RegistrarReactivatedWorld",
      "type": "event"
    },
    {
      "anonymous": false,
      "inputs": [
        {
          "indexed": true,
          "internalType": "address",
          "name": "world",
          "type": "address"
        },
        {
          "indexed": false,
          "internalType": "string",
          "name": "reason",
          "type": "string"
        }
      ],
      "name": "RegistrarRemovedWorld",
      "type": "event"
    },
    {
      "anonymous": false,
      "inputs": [
        {
          "indexed": true,
          "internalType": "address",
          "name": "entity",
          "type": "address"
        },
        {
          "indexed": true,
          "internalType": "address",
          "name": "owner",
          "type": "address"
        }
      ],
      "name": "RegistryAddedEntity",
      "type": "event"
    },
    {
      "anonymous": false,
      "inputs": [
        {
          "indexed": true,
          "internalType": "address",
          "name": "entity",
          "type": "address"
        },
        {
          "indexed": false,
          "internalType": "string",
          "name": "reason",
          "type": "string"
        }
      ],
      "name": "RegistryDeactivatedEntity",
      "type": "event"
    },
    {
      "anonymous": false,
      "inputs": [
        {
          "indexed": true,
          "internalType": "address",
          "name": "entity",
          "type": "address"
        },
        {
          "indexed": true,
          "internalType": "address",
          "name": "newImplementation",
          "type": "address"
        }
      ],
      "name": "RegistryDowngradedEntity",
      "type": "event"
    },
    {
      "anonymous": false,
      "inputs": [
        {
          "indexed": true,
          "internalType": "address",
          "name": "entity",
          "type": "address"
        }
      ],
      "name": "RegistryEnforcedDeactivation",
      "type": "event"
    },
    {
      "anonymous": false,
      "inputs": [
        {
          "indexed": true,
          "internalType": "address",
          "name": "entity",
          "type": "address"
        }
      ],
      "name": "RegistryEnforcedRemoval",
      "type": "event"
    },
    {
      "anonymous": false,
      "inputs": [
        {
          "indexed": true,
          "internalType": "address",
          "name": "implementation",
          "type": "address"
        }
      ],
      "name": "RegistryEntityImplementationSet",
      "type": "event"
    },
    {
      "anonymous": false,
      "inputs": [
        {
          "indexed": true,
          "internalType": "address",
          "name": "implementation",
          "type": "address"
        }
      ],
      "name": "RegistryProxyImplementationSet",
      "type": "event"
    },
    {
      "anonymous": false,
      "inputs": [
        {
          "indexed": true,
          "internalType": "address",
          "name": "entity",
          "type": "address"
        }
      ],
      "name": "RegistryReactivatedEntity",
      "type": "event"
    },
    {
      "anonymous": false,
      "inputs": [
        {
          "indexed": true,
          "internalType": "address",
          "name": "entity",
          "type": "address"
        },
        {
          "indexed": false,
          "internalType": "string",
          "name": "reason",
          "type": "string"
        }
      ],
      "name": "RegistryRemovedEntity",
      "type": "event"
    },
    {
      "anonymous": false,
      "inputs": [
        {
          "indexed": true,
          "internalType": "address",
          "name": "entity",
          "type": "address"
        },
        {
          "indexed": true,
          "internalType": "address",
          "name": "newImplementation",
          "type": "address"
        }
      ],
      "name": "RegistryUpgradedEntity",
      "type": "event"
    },
    {
      "anonymous": false,
      "inputs": [
        {
          "indexed": true,
          "internalType": "bytes32",
          "name": "role",
          "type": "bytes32"
        },
        {
          "indexed": true,
          "internalType": "address",
          "name": "account",
          "type": "address"
        },
        {
          "indexed": true,
          "internalType": "bool",
          "name": "grant",
          "type": "bool"
        }
      ],
      "name": "RoleChanged",
      "type": "event"
    },
    {
      "anonymous": false,
      "inputs": [
        {
          "indexed": false,
          "internalType": "address",
          "name": "signer",
          "type": "address"
        },
        {
          "indexed": false,
          "internalType": "bool",
          "name": "grant",
          "type": "bool"
        }
      ],
      "name": "SignerChanged",
      "type": "event"
    },
    {
      "inputs": [
        {
          "internalType": "address[]",
          "name": "signers",
          "type": "address[]"
        }
      ],
      "name": "addSigners",
      "outputs": [],
      "stateMutability": "nonpayable",
      "type": "function"
    },
    {
      "inputs": [
        {
          "internalType": "address",
          "name": "a",
          "type": "address"
        }
      ],
      "name": "addVectorAddressAuthority",
      "outputs": [],
      "stateMutability": "nonpayable",
      "type": "function"
    },
    {
      "inputs": [
        {
          "internalType": "address",
          "name": "addr",
          "type": "address"
        }
      ],
      "name": "canBeDeactivated",
      "outputs": [
        {
          "internalType": "bool",
          "name": "",
          "type": "bool"
        }
      ],
      "stateMutability": "view",
      "type": "function"
    },
    {
      "inputs": [
        {
          "internalType": "address",
          "name": "addr",
          "type": "address"
        }
      ],
      "name": "canBeRemoved",
      "outputs": [
        {
          "internalType": "bool",
          "name": "",
          "type": "bool"
        }
      ],
      "stateMutability": "view",
      "type": "function"
    },
    {
      "inputs": [
        {
          "components": [
            {
              "internalType": "address",
              "name": "entity",
              "type": "address"
            },
            {
              "internalType": "bytes",
              "name": "entitySignature",
              "type": "bytes"
            },
            {
              "internalType": "uint256",
              "name": "expiration",
              "type": "uint256"
            },
            {
              "components": [
                {
                  "internalType": "uint16",
                  "name": "coveragePeriodDays",
                  "type": "uint16"
                },
                {
                  "internalType": "uint16",
                  "name": "gracePeriodDays",
                  "type": "uint16"
                },
                {
                  "internalType": "uint256",
                  "name": "fee",
                  "type": "uint256"
                }
              ],
              "internalType": "struct RegistrationTerms",
              "name": "terms",
              "type": "tuple"
            }
          ],
          "internalType": "struct ChangeEntityTermsArgs",
          "name": "args",
          "type": "tuple"
        }
      ],
      "name": "changeEntityTerms",
      "outputs": [],
      "stateMutability": "nonpayable",
      "type": "function"
    },
    {
      "inputs": [
        {
          "internalType": "address",
          "name": "newOwner",
          "type": "address"
        }
      ],
      "name": "changeOwner",
      "outputs": [],
      "stateMutability": "nonpayable",
      "type": "function"
    },
    {
      "inputs": [
        {
          "components": [
            {
              "internalType": "address",
              "name": "entity",
              "type": "address"
            },
            {
              "internalType": "bytes",
              "name": "oldRegistrarSignature",
              "type": "bytes"
            },
            {
              "internalType": "bytes",
              "name": "entitySignature",
              "type": "bytes"
            },
            {
              "internalType": "uint256",
              "name": "expiration",
              "type": "uint256"
            },
            {
              "components": [
                {
                  "internalType": "uint16",
                  "name": "coveragePeriodDays",
                  "type": "uint16"
                },
                {
                  "internalType": "uint16",
                  "name": "gracePeriodDays",
                  "type": "uint16"
                },
                {
                  "internalType": "uint256",
                  "name": "fee",
                  "type": "uint256"
                }
              ],
              "internalType": "struct RegistrationTerms",
              "name": "newTerms",
              "type": "tuple"
            }
          ],
          "internalType": "struct ChangeRegistrarArgs",
          "name": "args",
          "type": "tuple"
        }
      ],
      "name": "changeRegistrarWithTerms",
      "outputs": [],
      "stateMutability": "nonpayable",
      "type": "function"
    },
    {
      "inputs": [
        {
          "components": [
            {
              "internalType": "bool",
              "name": "sendTokensToOwner",
              "type": "bool"
            },
            {
              "internalType": "address",
              "name": "owner",
              "type": "address"
            },
            {
              "internalType": "uint256",
              "name": "expiration",
              "type": "uint256"
            },
            {
              "components": [
                {
                  "internalType": "uint16",
                  "name": "coveragePeriodDays",
                  "type": "uint16"
                },
                {
                  "internalType": "uint16",
                  "name": "gracePeriodDays",
                  "type": "uint16"
                },
                {
                  "internalType": "uint256",
                  "name": "fee",
                  "type": "uint256"
                }
              ],
              "internalType": "struct RegistrationTerms",
              "name": "terms",
              "type": "tuple"
            },
            {
              "components": [
                {
                  "internalType": "string",
                  "name": "x",
                  "type": "string"
                },
                {
                  "internalType": "string",
                  "name": "y",
                  "type": "string"
                },
                {
                  "internalType": "string",
                  "name": "z",
                  "type": "string"
                },
                {
                  "internalType": "uint256",
                  "name": "t",
                  "type": "uint256"
                },
                {
                  "internalType": "uint256",
                  "name": "p",
                  "type": "uint256"
                },
                {
                  "internalType": "uint256",
                  "name": "p_sub",
                  "type": "uint256"
                }
              ],
              "internalType": "struct VectorAddress",
              "name": "vector",
              "type": "tuple"
            },
            {
              "internalType": "string",
              "name": "name",
              "type": "string"
            },
            {
              "internalType": "bytes",
              "name": "initData",
              "type": "bytes"
            },
            {
              "internalType": "bytes",
              "name": "ownerTermsSignature",
              "type": "bytes"
            },
            {
              "internalType": "bytes",
              "name": "vectorAuthoritySignature",
              "type": "bytes"
            }
          ],
          "internalType": "struct CreateWorldArgs",
          "name": "args",
          "type": "tuple"
        }
      ],
      "name": "createWorld",
      "outputs": [
        {
          "internalType": "address",
          "name": "",
          "type": "address"
        }
      ],
      "stateMutability": "nonpayable",
      "type": "function"
    },
    {
      "inputs": [
        {
          "internalType": "contract IRemovableEntity",
          "name": "entity",
          "type": "address"
        },
        {
          "internalType": "string",
          "name": "reason",
          "type": "string"
        }
      ],
      "name": "deactivateEntity",
      "outputs": [],
      "stateMutability": "nonpayable",
      "type": "function"
    },
    {
      "inputs": [
        {
          "internalType": "bytes",
          "name": "initData",
          "type": "bytes"
        }
      ],
      "name": "downgradeEntity",
      "outputs": [],
      "stateMutability": "nonpayable",
      "type": "function"
    },
    {
      "inputs": [
        {
          "internalType": "contract IRemovableEntity",
          "name": "addr",
          "type": "address"
        }
      ],
      "name": "enforceDeactivation",
      "outputs": [],
      "stateMutability": "nonpayable",
      "type": "function"
    },
    {
      "inputs": [
        {
          "internalType": "contract IRemovableEntity",
          "name": "e",
          "type": "address"
        }
      ],
      "name": "enforceRemoval",
      "outputs": [],
      "stateMutability": "nonpayable",
      "type": "function"
    },
    {
      "inputs": [
        {
          "internalType": "string",
          "name": "name",
          "type": "string"
        }
      ],
      "name": "getEntityByName",
      "outputs": [
        {
          "internalType": "address",
          "name": "",
          "type": "address"
        }
      ],
      "stateMutability": "view",
      "type": "function"
    },
    {
      "inputs": [
        {
          "components": [
            {
              "internalType": "string",
              "name": "x",
              "type": "string"
            },
            {
              "internalType": "string",
              "name": "y",
              "type": "string"
            },
            {
              "internalType": "string",
              "name": "z",
              "type": "string"
            },
            {
              "internalType": "uint256",
              "name": "t",
              "type": "uint256"
            },
            {
              "internalType": "uint256",
              "name": "p",
              "type": "uint256"
            },
            {
              "internalType": "uint256",
              "name": "p_sub",
              "type": "uint256"
            }
          ],
          "internalType": "struct VectorAddress",
          "name": "vector",
          "type": "tuple"
        }
      ],
      "name": "getEntityByVector",
      "outputs": [
        {
          "internalType": "address",
          "name": "",
          "type": "address"
        }
      ],
      "stateMutability": "view",
      "type": "function"
    },
    {
      "inputs": [],
      "name": "getEntityImplementation",
      "outputs": [
        {
          "internalType": "address",
          "name": "",
          "type": "address"
        }
      ],
      "stateMutability": "view",
      "type": "function"
    },
    {
      "inputs": [
        {
          "internalType": "address",
          "name": "addr",
          "type": "address"
        }
      ],
      "name": "getEntityTerms",
      "outputs": [
        {
          "components": [
            {
              "internalType": "uint16",
              "name": "coveragePeriodDays",
              "type": "uint16"
            },
            {
              "internalType": "uint16",
              "name": "gracePeriodDays",
              "type": "uint16"
            },
            {
              "internalType": "uint256",
              "name": "fee",
              "type": "uint256"
            }
          ],
          "internalType": "struct RegistrationTerms",
          "name": "",
          "type": "tuple"
        }
      ],
      "stateMutability": "view",
      "type": "function"
    },
    {
      "inputs": [],
      "name": "getEntityVersion",
      "outputs": [
        {
          "components": [
            {
              "internalType": "uint16",
              "name": "major",
              "type": "uint16"
            },
            {
              "internalType": "uint16",
              "name": "minor",
              "type": "uint16"
            }
          ],
          "internalType": "struct Version",
          "name": "",
          "type": "tuple"
        }
      ],
      "stateMutability": "view",
      "type": "function"
    },
    {
      "inputs": [
        {
          "internalType": "address",
          "name": "addr",
          "type": "address"
        }
      ],
      "name": "getExpiration",
      "outputs": [
        {
          "internalType": "uint256",
          "name": "",
          "type": "uint256"
        }
      ],
      "stateMutability": "view",
      "type": "function"
    },
    {
      "inputs": [
        {
          "internalType": "address",
          "name": "addr",
          "type": "address"
        }
      ],
      "name": "getLastRenewal",
      "outputs": [
        {
          "internalType": "uint256",
          "name": "",
          "type": "uint256"
        }
      ],
      "stateMutability": "view",
      "type": "function"
    },
    {
      "inputs": [],
      "name": "getProxyImplementation",
      "outputs": [
        {
          "internalType": "address",
          "name": "",
          "type": "address"
        }
      ],
      "stateMutability": "view",
      "type": "function"
    },
    {
      "inputs": [
        {
          "internalType": "bytes32",
          "name": "role",
          "type": "bytes32"
        },
        {
          "internalType": "address",
          "name": "account",
          "type": "address"
        }
      ],
      "name": "grantRole",
      "outputs": [],
      "stateMutability": "nonpayable",
      "type": "function"
    },
    {
      "inputs": [
        {
          "internalType": "bytes32",
          "name": "role",
          "type": "bytes32"
        },
        {
          "internalType": "address",
          "name": "account",
          "type": "address"
        }
      ],
      "name": "hasRole",
      "outputs": [
        {
          "internalType": "bool",
          "name": "",
          "type": "bool"
        }
      ],
      "stateMutability": "view",
      "type": "function"
    },
    {
      "inputs": [
        {
          "internalType": "address",
          "name": "account",
          "type": "address"
        }
      ],
      "name": "isAdmin",
      "outputs": [
        {
          "internalType": "bool",
          "name": "",
          "type": "bool"
        }
      ],
      "stateMutability": "view",
      "type": "function"
    },
    {
      "inputs": [
        {
          "internalType": "address",
          "name": "addr",
          "type": "address"
        }
      ],
      "name": "isExpired",
      "outputs": [
        {
          "internalType": "bool",
          "name": "",
          "type": "bool"
        }
      ],
      "stateMutability": "view",
      "type": "function"
    },
    {
      "inputs": [
        {
          "internalType": "address",
          "name": "addr",
          "type": "address"
        }
      ],
      "name": "isInGracePeriod",
      "outputs": [
        {
          "internalType": "bool",
          "name": "",
          "type": "bool"
        }
      ],
      "stateMutability": "view",
      "type": "function"
    },
    {
      "inputs": [
        {
          "internalType": "address",
          "name": "addr",
          "type": "address"
        }
      ],
      "name": "isRegistered",
      "outputs": [
        {
          "internalType": "bool",
          "name": "",
          "type": "bool"
        }
      ],
      "stateMutability": "view",
      "type": "function"
    },
    {
      "inputs": [
        {
          "internalType": "address",
          "name": "account",
          "type": "address"
        }
      ],
      "name": "isSigner",
      "outputs": [
        {
          "internalType": "bool",
          "name": "",
          "type": "bool"
        }
      ],
      "stateMutability": "view",
      "type": "function"
    },
    {
      "inputs": [
        {
          "internalType": "address",
          "name": "a",
          "type": "address"
        }
      ],
      "name": "isVectorAddressAuthority",
      "outputs": [
        {
          "internalType": "bool",
          "name": "",
          "type": "bool"
        }
      ],
      "stateMutability": "view",
      "type": "function"
    },
    {
      "inputs": [],
      "name": "owner",
      "outputs": [
        {
          "internalType": "address",
          "name": "",
          "type": "address"
        }
      ],
      "stateMutability": "view",
      "type": "function"
    },
    {
      "inputs": [
        {
          "internalType": "contract IRemovableEntity",
          "name": "entity",
          "type": "address"
        }
      ],
      "name": "reactivateEntity",
      "outputs": [],
      "stateMutability": "nonpayable",
      "type": "function"
    },
    {
      "inputs": [],
      "name": "registrarRegistry",
      "outputs": [
        {
          "internalType": "contract IRegistrarRegistry",
          "name": "",
          "type": "address"
        }
      ],
      "stateMutability": "view",
      "type": "function"
    },
    {
      "inputs": [
        {
          "internalType": "contract IRemovableEntity",
          "name": "entity",
          "type": "address"
        },
        {
          "internalType": "string",
          "name": "reason",
          "type": "string"
        }
      ],
      "name": "removeEntity",
      "outputs": [],
      "stateMutability": "nonpayable",
      "type": "function"
    },
    {
      "inputs": [
        {
          "internalType": "address[]",
          "name": "signers",
          "type": "address[]"
        }
      ],
      "name": "removeSigners",
      "outputs": [],
      "stateMutability": "nonpayable",
      "type": "function"
    },
    {
      "inputs": [
        {
          "internalType": "address",
          "name": "a",
          "type": "address"
        }
      ],
      "name": "removeVectorAddressAuthority",
      "outputs": [],
      "stateMutability": "nonpayable",
      "type": "function"
    },
    {
      "inputs": [
        {
          "internalType": "address",
          "name": "addr",
          "type": "address"
        }
      ],
      "name": "renewEntity",
      "outputs": [],
      "stateMutability": "payable",
      "type": "function"
    },
    {
      "inputs": [
        {
          "internalType": "bytes32",
          "name": "role",
          "type": "bytes32"
        },
        {
          "internalType": "address",
          "name": "account",
          "type": "address"
        }
      ],
      "name": "revokeRole",
      "outputs": [],
      "stateMutability": "nonpayable",
      "type": "function"
    },
    {
      "inputs": [
        {
          "internalType": "address",
          "name": "_entityImplementation",
          "type": "address"
        }
      ],
      "name": "setEntityImplementation",
      "outputs": [],
      "stateMutability": "nonpayable",
      "type": "function"
    },
    {
      "inputs": [
        {
          "internalType": "address",
          "name": "_proxyImplementation",
          "type": "address"
        }
      ],
      "name": "setProxyImplementation",
      "outputs": [],
      "stateMutability": "nonpayable",
      "type": "function"
    },
    {
      "inputs": [
        {
          "internalType": "bytes",
          "name": "initData",
          "type": "bytes"
        }
      ],
      "name": "upgradeEntity",
      "outputs": [],
      "stateMutability": "nonpayable",
      "type": "function"
    },
    {
      "inputs": [],
      "name": "version",
      "outputs": [
        {
          "components": [
            {
              "internalType": "uint16",
              "name": "major",
              "type": "uint16"
            },
            {
              "internalType": "uint16",
              "name": "minor",
              "type": "uint16"
            }
          ],
          "internalType": "struct Version",
          "name": "",
          "type": "tuple"
        }
      ],
      "stateMutability": "pure",
      "type": "function"
    }
  ],
  "bytecode": "0x60a06040523480156200001157600080fd5b5060405162004977380380620049778339810160408190526200003491620000be565b600160005580516001600160a01b0316620000ab5760405162461bcd60e51b815260206004820152602d60248201527f52656769737472617252656769737472793a20696e76616c696420726567697360448201526c7472617220726567697374727960981b606482015260840160405180910390fd5b516001600160a01b031660805262000126565b600060208284031215620000d157600080fd5b604051602081016001600160401b03811182821017156200010257634e487b7160e01b600052604160045260246000fd5b60405282516001600160a01b03811681146200011d57600080fd5b81529392505050565b60805161482762000150600039600081816106ec01528181610a1f01526115c401526148276000f3fe60806040526004361061023b5760003560e01c806390e4b7201161012e578063c747e47e116100ab578063dbdc4e621161006f578063dbdc4e62146106da578063e2482bf91461070e578063e3ffb4bf1461072e578063e8906a2d1461074e578063f82e2fb31461076e57600080fd5b8063c747e47e14610647578063cdbe221114610667578063d547741f14610687578063d6fbe020146106a7578063db8d7466146106ba57600080fd5b8063af08d53d116100f2578063af08d53d146105a7578063b6db923d146105c7578063ba2eb541146105e7578063c3c5a54714610607578063c625e0ad1461062757600080fd5b806390e4b7201461051257806391d14854146105275780639fdcd3a414610547578063a6f9dae114610567578063a8c88c171461058757600080fd5b806354fd4d50116101bc5780636ccc4193116101805780636ccc41931461047d5780636d80bf311461049d5780637df73e27146104bd5780638d361e43146104dd5780638da5cb5b146104fd57600080fd5b806354fd4d50146103bd5780635726c94e146104135780635e04096214610433578063689c48f014610448578063693c79b21461045d57600080fd5b80632f2ff15d116102035780632f2ff15d146102f75780633e88a4e2146103175780634ae134cc1461034f5780634d4965f31461036f5780634ec70a481461038f57600080fd5b806301f2423014610240578063033a5b601461026257806308fb23c9146102825780630fd020dd146102a257806324d7806c146102c2575b600080fd5b34801561024c57600080fd5b5061026061025b3660046138a5565b61079b565b005b34801561026e57600080fd5b5061026061027d36600461390a565b610873565b34801561028e57600080fd5b5061026061029d36600461395e565b610a0a565b3480156102ae57600080fd5b506102606102bd366004613998565b610c75565b3480156102ce57600080fd5b506102e26102dd3660046138a5565b610eb7565b60405190151581526020015b60405180910390f35b34801561030357600080fd5b506102606103123660046139d9565b610f3d565b34801561032357600080fd5b50610337610332366004613998565b611013565b6040516001600160a01b0390911681526020016102ee565b34801561035b57600080fd5b5061026061036a3660046138a5565b611097565b34801561037b57600080fd5b5061026061038a366004613a21565b611106565b34801561039b57600080fd5b506103af6103aa3660046138a5565b61129a565b6040519081526020016102ee565b3480156103c957600080fd5b5060408051808201825260008082526020918201819052825180840190935260018352908201525b60408051825161ffff90811682526020938401511692810192909252016102ee565b34801561041f57600080fd5b506103af61042e3660046138a5565b61131a565b34801561043f57600080fd5b506103f161135d565b34801561045457600080fd5b506103376113e2565b34801561046957600080fd5b506102606104783660046138a5565b611451565b34801561048957600080fd5b50610337610498366004613a5d565b6115ac565b3480156104a957600080fd5b506102e26104b83660046138a5565b611d81565b3480156104c957600080fd5b506102e26104d83660046138a5565b611dea565b3480156104e957600080fd5b506102606104f8366004613a98565b611e2d565b34801561050957600080fd5b50610337611ef5565b34801561051e57600080fd5b50610337611eff565b34801561053357600080fd5b506102e26105423660046139d9565b611f4a565b34801561055357600080fd5b506102606105623660046138a5565b611fd0565b34801561057357600080fd5b506102606105823660046138a5565b61209f565b34801561059357600080fd5b506102e26105a23660046138a5565b61213e565b3480156105b357600080fd5b506102606105c236600461390a565b612181565b3480156105d357600080fd5b506102e26105e23660046138a5565b61237b565b3480156105f357600080fd5b506102e26106023660046138a5565b6123be565b34801561061357600080fd5b506102e26106223660046138a5565b612401565b34801561063357600080fd5b50610260610642366004613998565b612444565b34801561065357600080fd5b50610337610662366004613a21565b612670565b34801561067357600080fd5b506102606106823660046138a5565b6126eb565b34801561069357600080fd5b506102606106a23660046139d9565b6127ba565b6102606106b53660046138a5565b612890565b3480156106c657600080fd5b506102606106d53660046138a5565b6128d0565b3480156106e657600080fd5b506103377f000000000000000000000000000000000000000000000000000000000000000081565b34801561071a57600080fd5b506102e26107293660046138a5565b6129c5565b34801561073a57600080fd5b506102606107493660046138a5565b612a08565b34801561075a57600080fd5b50610260610769366004613a98565b612afd565b34801561077a57600080fd5b5061078e6107893660046138a5565b612bc5565b6040516102ee9190613b0c565b6000816001600160a01b0316632fcbab9a6040518163ffffffff1660e01b8152600401600060405180830381865afa1580156107db573d6000803e3d6000fd5b505050506040513d6000823e601f3d908101601f191682016040526108039190810190613c5b565b604051635656b1c560e01b815290915073__$1822254560a4f971c7e72253c3a08363e7$__90635656b1c59061083f9085908590600401613dcf565b60006040518083038186803b15801561085757600080fd5b505af415801561086b573d6000803e3d6000fd5b505050505050565b826000819050336001600160a01b0316816001600160a01b03166369bd91946040518163ffffffff1660e01b8152600401602060405180830381865afa1580156108c1573d6000803e3d6000fd5b505050506040513d601f19601f820116820180604052508101906108e59190613df3565b6001600160a01b0316146109145760405162461bcd60e51b815260040161090b90613e10565b60405180910390fd5b6000339050806001600160a01b0316634f05c1c86040518163ffffffff1660e01b8152600401602060405180830381865afa158015610957573d6000803e3d6000fd5b505050506040513d601f19601f8201168201806040525081019061097b9190613e6d565b6109975760405162461bcd60e51b815260040161090b90613e8f565b60405163ede71a1760e01b815273__$1822254560a4f971c7e72253c3a08363e7$__9063ede71a17906109d290899089908990600401613f03565b60006040518083038186803b1580156109ea57600080fd5b505af41580156109fe573d6000803e3d6000fd5b50505050505050505050565b60405163c3c5a54760e01b81523360048201527f00000000000000000000000000000000000000000000000000000000000000006001600160a01b03169063c3c5a54790602401602060405180830381865afa158015610a6e573d6000803e3d6000fd5b505050506040513d601f19601f82011682018060405250810190610a929190613e6d565b610aae5760405162461bcd60e51b815260040161090b90613f31565b336001600160a01b03166386b70bed6040518163ffffffff1660e01b8152600401602060405180830381865afa158015610aec573d6000803e3d6000fd5b505050506040513d601f19601f82011682018060405250810190610b109190613e6d565b610b2c5760405162461bcd60e51b815260040161090b90613f7c565b610b34612c5a565b610b3d81612c84565b6000610b47613159565b905060006001820181610b5d60208601866138a5565b6001600160a01b039081168252602082019290925260400160002080546001600160a01b0319811633178255909250166080840160018301610b9f8282613fd3565b5050426003830155600482015415610c1857610bbe60208501856138a5565b6001600160a01b031663d18611d66040518163ffffffff1660e01b8152600401600060405180830381600087803b158015610bf857600080fd5b505af1158015610c0c573d6000803e3d6000fd5b50506000600485015550505b336001600160a01b038216610c3060208701876138a5565b6001600160a01b03167fef932a1bef59bad4c784a0c47964f76a6f526508690d21b6b29a619c8cff3f4e60405160405180910390a4505050610c726001600055565b50565b610c7e33612401565b610c9a5760405162461bcd60e51b815260040161090b90614027565b610ca26131ef565b610caa612c5a565b60003390506000816001600160a01b0316630d8e6e2c6040518163ffffffff1660e01b81526004016040805180830381865afa158015610cee573d6000803e3d6000fd5b505050506040513d601f19601f82011682018060405250810190610d129190614069565b90506000610d1e6132b6565b60408051808201909152600282015461ffff808216835262010000909104166020820152909150610d5090839061331b565b610dba5760405162461bcd60e51b815260206004820152603560248201527f52656769737472793a20656e746974792076657273696f6e206973206c657373604482015274207468616e2063757272656e7420616c726561647960581b606482015260840161090b565b8054604051636bc26a1360e11b81526001600160a01b039091166004820152339063d784d42690602401600060405180830381600087803b158015610dfe57600080fd5b505af1158015610e12573d6000803e3d6000fd5b505060405163e20eea0f60e01b815233925063e20eea0f9150610e3b90889088906004016140c7565b600060405180830381600087803b158015610e5557600080fd5b505af1158015610e69573d6000803e3d6000fd5b505082546040516001600160a01b0390911692503391507fd25150b43a5956fbd806981bc1261635722b4703fdcb605cb574703ad24563bf90600090a3505050610eb36001600055565b5050565b604051630935e01b60e21b81526001600160a01b038216600482015260009073__$a5a42e46683ad9c79b7b86d5ff60fdf4c1$__906324d7806c906024015b602060405180830381865af4158015610f13573d6000803e3d6000fd5b505050506040513d601f19601f82011682018060405250810190610f379190613e6d565b92915050565b604051630935e01b60e21b815233600482015273__$a5a42e46683ad9c79b7b86d5ff60fdf4c1$__906324d7806c90602401602060405180830381865af4158015610f8c573d6000803e3d6000fd5b505050506040513d601f19601f82011682018060405250810190610fb09190613e6d565b610fcc5760405162461bcd60e51b815260040161090b906140db565b604051632f2ff15d60e01b8152600481018390526001600160a01b038216602482015273__$a5a42e46683ad9c79b7b86d5ff60fdf4c1$__90632f2ff15d9060440161083f565b604051631f44527160e11b815260009073__$d81eab81c4f96e94de97b51155a369ac43$__90633e88a4e29061104f90869086906004016140c7565b602060405180830381865af415801561106c573d6000803e3d6000fd5b505050506040513d601f19601f820116820180604052508101906110909190613df3565b9392505050565b6040516347ef542760e01b81526001600160a01b038216600482015273__$1822254560a4f971c7e72253c3a08363e7$__906347ef5427906024015b60006040518083038186803b1580156110eb57600080fd5b505af41580156110ff573d6000803e3d6000fd5b5050505050565b61111360208201826138a5565b6000819050336001600160a01b0316816001600160a01b03166369bd91946040518163ffffffff1660e01b8152600401602060405180830381865afa158015611160573d6000803e3d6000fd5b505050506040513d601f19601f820116820180604052508101906111849190613df3565b6001600160a01b0316146111aa5760405162461bcd60e51b815260040161090b90613e10565b6000339050806001600160a01b0316634f05c1c86040518163ffffffff1660e01b8152600401602060405180830381865afa1580156111ed573d6000803e3d6000fd5b505050506040513d601f19601f820116820180604052508101906112119190613e6d565b61122d5760405162461bcd60e51b815260040161090b90613e8f565b604051630bca13f760e41b815273__$d81eab81c4f96e94de97b51155a369ac43$__9063bca13f7090611264908790600401614155565b60006040518083038186803b15801561127c57600080fd5b505af4158015611290573d6000803e3d6000fd5b5050505050505050565b6040516309d8e14960e31b81526001600160a01b038216600482015260009073__$1822254560a4f971c7e72253c3a08363e7$__90634ec70a48906024015b602060405180830381865af41580156112f6573d6000803e3d6000fd5b505050506040513d601f19601f82011682018060405250810190610f3791906141eb565b604051632b9364a760e11b81526001600160a01b038216600482015260009073__$1822254560a4f971c7e72253c3a08363e7$__90635726c94e906024016112d9565b604080518082019091526000808252602082015273__$e1fef5d4b1bfc4a605b7eb127c84f71416$__635e0409626040518163ffffffff1660e01b81526004016040805180830381865af41580156113b9573d6000803e3d6000fd5b505050506040513d601f19601f820116820180604052508101906113dd9190614069565b905090565b600073__$e1fef5d4b1bfc4a605b7eb127c84f71416$__63689c48f06040518163ffffffff1660e01b8152600401602060405180830381865af415801561142d573d6000803e3d6000fd5b505050506040513d601f19601f820116820180604052508101906113dd9190613df3565b806000819050336001600160a01b0316816001600160a01b03166369bd91946040518163ffffffff1660e01b8152600401602060405180830381865afa15801561149f573d6000803e3d6000fd5b505050506040513d601f19601f820116820180604052508101906114c39190613df3565b6001600160a01b0316146114e95760405162461bcd60e51b815260040161090b90613e10565b6000339050806001600160a01b0316634f05c1c86040518163ffffffff1660e01b8152600401602060405180830381865afa15801561152c573d6000803e3d6000fd5b505050506040513d601f19601f820116820180604052508101906115509190613e6d565b61156c5760405162461bcd60e51b815260040161090b90613e8f565b60405163699f380760e11b81526001600160a01b038516600482015273__$1822254560a4f971c7e72253c3a08363e7$__9063d33e700e90602401611264565b60405163c3c5a54760e01b81523360048201526000907f00000000000000000000000000000000000000000000000000000000000000006001600160a01b03169063c3c5a54790602401602060405180830381865afa158015611613573d6000803e3d6000fd5b505050506040513d601f19601f820116820180604052508101906116379190613e6d565b6116535760405162461bcd60e51b815260040161090b90613f31565b336001600160a01b03166386b70bed6040518163ffffffff1660e01b8152600401602060405180830381865afa158015611691573d6000803e3d6000fd5b505050506040513d601f19601f820116820180604052508101906116b59190613e6d565b6116d15760405162461bcd60e51b815260040161090b90613f7c565b6116d9612c5a565b60006116e36132b6565b80549091506001600160a01b03166117565760405162461bcd60e51b815260206004820152603060248201527f52656769737472617252656769737472793a20656e7469747920696d706c656d60448201526f195b9d185d1a5bdb881b9bdd081cd95d60821b606482015260840161090b565b60018101546001600160a01b03166117c85760405162461bcd60e51b815260206004820152602f60248201527f52656769737472617252656769737472793a2070726f787920696d706c656d6560448201526e1b9d185d1a5bdb881b9bdd081cd95d608a1b606482015260840161090b565b60006117d760c0850185614204565b6117e090614275565b73__$ad2b23306edd42b5f4873830e307b82d47$__906303dc34e9903361180b610140890189614327565b6040518563ffffffff1660e01b815260040161182a949392919061436d565b602060405180830381865af4158015611847573d6000803e3d6000fd5b505050506040513d601f19601f8201168201806040525081019061186b9190613df3565b905061187681611d81565b6118f65760405162461bcd60e51b8152602060048201526044602482018190527f576f726c6452656769737472793a20766563746f72207369676e657220697320908201527f6e6f7420612076616c696420766563746f72206164647265737320617574686f6064820152637269747960e01b608482015260a40161090b565b60006040518060a0016040528086602001602081019061191691906138a5565b6001600160a01b0316815233602082015260400161193c368890038801606089016143ad565b8152604080880135602083015201611958610120880188614327565b8080601f016020809104026020016040519081016040528093929190818152602001838380828437600092019190915250505091525060405163bf52415b60e01b815290915073__$d81eab81c4f96e94de97b51155a369ac43$__9063bf52415b906119c89084906004016143fa565b60006040518083038186803b1580156119e057600080fd5b505af41580156119f4573d6000803e3d6000fd5b505050600184015460009150611a12906001600160a01b031661336c565b90506001600160a01b038116611a7f5760405162461bcd60e51b815260206004820152602c60248201527f526567697374726172526567697374726174696f6e3a20656e7469747920636c60448201526b1bdb9a5b99c819985a5b195960a21b606482015260840161090b565b8354604051636bc26a1360e11b81526001600160a01b0391821660048201529082169063d784d42690602401600060405180830381600087803b158015611ac557600080fd5b505af1158015611ad9573d6000803e3d6000fd5b5050505060006040518060a00160405280886020016020810190611afd91906138a5565b6001600160a01b03168152336020820152604001611b1e60c08a018a614204565b611b2790614275565b8152602001611b3960e08a018a614327565b8080601f016020809104026020016040519081016040528093929190818152602001838380828437600092019190915250505090825250602001611b816101008a018a614327565b8080601f01602080910402602001604051908101604052809392919081815260200183838082843760009201919091525050509152506040516361445eb760e01b81529091506001600160a01b038316906361445eb790611be690849060040161446a565b600060405180830381600087803b158015611c0057600080fd5b505af1158015611c14573d6000803e3d6000fd5b50506040805160a0810182526001600160a01b03861681523360208201526000935091508101611c4c368b90038b0160608c016143ad565b8152602001611c5e60e08b018b614327565b8080601f016020809104026020016040519081016040528093929190818152602001838380828437600092019190915250505090825250602001611ca560c08b018b614204565b611cae90614275565b90526040516326590a1d60e01b815290915073__$d81eab81c4f96e94de97b51155a369ac43$__906326590a1d90611cea90849060040161454c565b60006040518083038186803b158015611d0257600080fd5b505af4158015611d16573d6000803e3d6000fd5b50611d2b925050506040890160208a016138a5565b6001600160a01b0316836001600160a01b03167f7377123f9eb561d749cd3a89a83c22035cad6473521acbb981ee1c52d8f0248560405160405180910390a35090945050505050611d7c6001600055565b919050565b604051632474521560e21b81527ff4624c0c441d71d84320078141641151f1c713f1d4d2a15382f6a42904d8d13860048201526001600160a01b038216602482015260009073__$a5a42e46683ad9c79b7b86d5ff60fdf4c1$__906391d1485490604401610ef6565b604051637df73e2760e01b81526001600160a01b038216600482015260009073__$a5a42e46683ad9c79b7b86d5ff60fdf4c1$__90637df73e2790602401610ef6565b604051630935e01b60e21b815233600482015273__$a5a42e46683ad9c79b7b86d5ff60fdf4c1$__906324d7806c90602401602060405180830381865af4158015611e7c573d6000803e3d6000fd5b505050506040513d601f19601f82011682018060405250810190611ea09190613e6d565b611ebc5760405162461bcd60e51b815260040161090b906140db565b604051638d361e4360e01b815273__$a5a42e46683ad9c79b7b86d5ff60fdf4c1$__90638d361e439061083f90859085906004016145ce565b60006113dd61342d565b600073__$e1fef5d4b1bfc4a605b7eb127c84f71416$__6390e4b7206040518163ffffffff1660e01b8152600401602060405180830381865af415801561142d573d6000803e3d6000fd5b604051632474521560e21b8152600481018390526001600160a01b038216602482015260009073__$a5a42e46683ad9c79b7b86d5ff60fdf4c1$__906391d1485490604401602060405180830381865af4158015611fac573d6000803e3d6000fd5b505050506040513d601f19601f820116820180604052508101906110909190613e6d565b604051630935e01b60e21b815233600482015273__$a5a42e46683ad9c79b7b86d5ff60fdf4c1$__906324d7806c90602401602060405180830381865af415801561201f573d6000803e3d6000fd5b505050506040513d601f19601f820116820180604052508101906120439190613e6d565b61205f5760405162461bcd60e51b815260040161090b906140db565b6040516327f734e960e21b81526001600160a01b038216600482015273__$e1fef5d4b1bfc4a605b7eb127c84f71416$__90639fdcd3a4906024016110d3565b336120a861342d565b6001600160a01b0316146120fe5760405162461bcd60e51b815260206004820152601f60248201527f426173654163636573733a207265737472696374656420746f206f776e657200604482015260640161090b565b6040516313af403560e01b81526001600160a01b038216600482015273__$a5a42e46683ad9c79b7b86d5ff60fdf4c1$__906313af4035906024016110d3565b60405163a8c88c1760e01b81526001600160a01b038216600482015260009073__$1822254560a4f971c7e72253c3a08363e7$__9063a8c88c1790602401610ef6565b826000819050336001600160a01b0316816001600160a01b03166369bd91946040518163ffffffff1660e01b8152600401602060405180830381865afa1580156121cf573d6000803e3d6000fd5b505050506040513d601f19601f820116820180604052508101906121f39190613df3565b6001600160a01b0316146122195760405162461bcd60e51b815260040161090b90613e10565b6000339050806001600160a01b0316634f05c1c86040518163ffffffff1660e01b8152600401602060405180830381865afa15801561225c573d6000803e3d6000fd5b505050506040513d601f19601f820116820180604052508101906122809190613e6d565b61229c5760405162461bcd60e51b815260040161090b90613e8f565b6000866001600160a01b0316632fcbab9a6040518163ffffffff1660e01b8152600401600060405180830381865afa1580156122dc573d6000803e3d6000fd5b505050506040513d6000823e601f3d908101601f191682016040526123049190810190613c5b565b604051629930d960e01b815290915073__$1822254560a4f971c7e72253c3a08363e7$__90629930d990612342908a9085908b908b9060040161461c565b60006040518083038186803b15801561235a57600080fd5b505af415801561236e573d6000803e3d6000fd5b5050505050505050505050565b60405163b6db923d60e01b81526001600160a01b038216600482015260009073__$1822254560a4f971c7e72253c3a08363e7$__9063b6db923d90602401610ef6565b60405163ba2eb54160e01b81526001600160a01b038216600482015260009073__$1822254560a4f971c7e72253c3a08363e7$__9063ba2eb54190602401610ef6565b60405163c3c5a54760e01b81526001600160a01b038216600482015260009073__$d81eab81c4f96e94de97b51155a369ac43$__9063c3c5a54790602401610ef6565b61244d33612401565b6124695760405162461bcd60e51b815260040161090b90614027565b6124716131ef565b612479612c5a565b60003390506000816001600160a01b0316630d8e6e2c6040518163ffffffff1660e01b81526004016040805180830381865afa1580156124bd573d6000803e3d6000fd5b505050506040513d601f19601f820116820180604052508101906124e19190614069565b905060006124ed6132b6565b60408051808201909152600282015461ffff80821683526201000090910416602082015290915061251f908390613448565b6125775760405162461bcd60e51b815260206004820152602360248201527f52656769737472793a20656e7469747920686173206c6174657374207665727360448201526234b7b760e91b606482015260840161090b565b8054604051636bc26a1360e11b81526001600160a01b039091166004820152339063d784d42690602401600060405180830381600087803b1580156125bb57600080fd5b505af11580156125cf573d6000803e3d6000fd5b505060405163e20eea0f60e01b815233925063e20eea0f91506125f890889088906004016140c7565b600060405180830381600087803b15801561261257600080fd5b505af1158015612626573d6000803e3d6000fd5b505082546040516001600160a01b0390911692503391507f066b0f46be3664c84e5e14bc4d9fb9be906d657f27b0c8ee4b962ad1530d3f4090600090a3505050610eb36001600055565b6040516332ef671360e21b815260009073__$d81eab81c4f96e94de97b51155a369ac43$__9063cbbd9c4c906126aa908590600401614653565b602060405180830381865af41580156126c7573d6000803e3d6000fd5b505050506040513d601f19601f82011682018060405250810190610f379190613df3565b604051630935e01b60e21b815233600482015273__$a5a42e46683ad9c79b7b86d5ff60fdf4c1$__906324d7806c90602401602060405180830381865af415801561273a573d6000803e3d6000fd5b505050506040513d601f19601f8201168201806040525081019061275e9190613e6d565b61277a5760405162461bcd60e51b815260040161090b906140db565b60405163cdbe221160e01b81526001600160a01b038216600482015273__$e1fef5d4b1bfc4a605b7eb127c84f71416$__9063cdbe2211906024016110d3565b604051630935e01b60e21b815233600482015273__$a5a42e46683ad9c79b7b86d5ff60fdf4c1$__906324d7806c90602401602060405180830381865af4158015612809573d6000803e3d6000fd5b505050506040513d601f19601f8201168201806040525081019061282d9190613e6d565b6128495760405162461bcd60e51b815260040161090b906140db565b60405163d547741f60e01b8152600481018390526001600160a01b038216602482015273__$a5a42e46683ad9c79b7b86d5ff60fdf4c1$__9063d547741f9060440161083f565b6040516306b7df0160e51b81526001600160a01b038216600482015273__$1822254560a4f971c7e72253c3a08363e7$__9063d6fbe020906024016110d3565b604051630935e01b60e21b815233600482015273__$a5a42e46683ad9c79b7b86d5ff60fdf4c1$__906324d7806c90602401602060405180830381865af415801561291f573d6000803e3d6000fd5b505050506040513d601f19601f820116820180604052508101906129439190613e6d565b61295f5760405162461bcd60e51b815260040161090b906140db565b604051632f2ff15d60e01b81527ff4624c0c441d71d84320078141641151f1c713f1d4d2a15382f6a42904d8d13860048201526001600160a01b038216602482015273__$a5a42e46683ad9c79b7b86d5ff60fdf4c1$__90632f2ff15d906044016110d3565b60405163e2482bf960e01b81526001600160a01b038216600482015260009073__$1822254560a4f971c7e72253c3a08363e7$__9063e2482bf990602401610ef6565b604051630935e01b60e21b815233600482015273__$a5a42e46683ad9c79b7b86d5ff60fdf4c1$__906324d7806c90602401602060405180830381865af4158015612a57573d6000803e3d6000fd5b505050506040513d601f19601f82011682018060405250810190612a7b9190613e6d565b612a975760405162461bcd60e51b815260040161090b906140db565b60405163d547741f60e01b81527ff4624c0c441d71d84320078141641151f1c713f1d4d2a15382f6a42904d8d13860048201526001600160a01b038216602482015273__$a5a42e46683ad9c79b7b86d5ff60fdf4c1$__9063d547741f906044016110d3565b604051630935e01b60e21b815233600482015273__$a5a42e46683ad9c79b7b86d5ff60fdf4c1$__906324d7806c90602401602060405180830381865af4158015612b4c573d6000803e3d6000fd5b505050506040513d601f19601f82011682018060405250810190612b709190613e6d565b612b8c5760405162461bcd60e51b815260040161090b906140db565b60405163e8906a2d60e01b815273__$a5a42e46683ad9c79b7b86d5ff60fdf4c1$__9063e8906a2d9061083f90859085906004016145ce565b6040805160608101825260008082526020820181905281830152905163f82e2fb360e01b81526001600160a01b038316600482015273__$1822254560a4f971c7e72253c3a08363e7$__9063f82e2fb390602401606060405180830381865af4158015612c36573d6000803e3d6000fd5b505050506040513d601f19601f82011682018060405250810190610f3791906146f5565b600260005403612c7d57604051633ee5aeb560e01b815260040160405180910390fd5b6002600055565b42816060013511612ce65760405162461bcd60e51b815260206004820152602660248201527f5265676973747261723a206d6967726174696f6e207369676e617475726520656044820152651e1c1a5c995960d21b606482015260840161090b565b6000612cf0613159565b905060006001820181612d0660208601866138a5565b6001600160a01b0390811682526020820192909252604001600090812080549093509091169033606086013560c0870135612d4760a0890160808a01614742565b612d5760c08a0160a08b01614742565b604080516001600160a01b039096166020870152850193909352606084019190915261ffff90811660808401521660a082015260c00160408051808303601f190181528282528051602091820120818452838301909252909250600091906020820181803683370190505090508160208201526000612dd582613490565b90506000612e2482612dea60408b018b614327565b8080601f0160208091040260200160405190810160405280939291908181526020018383808284376000920191909152506134cb92505050565b9050612e3360208901896138a5565b604051630935e01b60e21b81526001600160a01b03838116600483015291909116906324d7806c90602401602060405180830381865afa158015612e7b573d6000803e3d6000fd5b505050506040513d601f19601f82011682018060405250810190612e9f9190613e6d565b612ef75760405162461bcd60e51b815260206004820152602360248201527f5265676973747261723a20656e74697479207369676e617475726520696e76616044820152621b1a5960ea1b606482015260840161090b565b612f046020890189614327565b9050600003612fe957846001600160a01b0316634f05c1c86040518163ffffffff1660e01b8152600401602060405180830381865afa158015612f4b573d6000803e3d6000fd5b505050506040513d601f19601f82011682018060405250810190612f6f9190613e6d565b15612fe4576040805162461bcd60e51b81526020600482015260248101919091527f5265676973747261723a2063757272656e74207265676973747261722069732060448201527f61637469766520627574206e6f207369676e61747572652070726f7669646564606482015260840161090b565b611290565b6000612ff860208a018a6138a5565b604080516001600160a01b03909216602083015233908201526060808b01359082015260800160408051808303601f19018152828252805160209182012081845283830190925290925060009190602082018180368337019050509050816020820152600061306682613490565b9050600061307b82612dea60208f018f614327565b6040516253f74560e51b81526001600160a01b038083166004830152919250908a1690630a7ee8a090602401602060405180830381865afa1580156130c4573d6000803e3d6000fd5b505050506040513d601f19601f820116820180604052508101906130e89190613e6d565b61314b5760405162461bcd60e51b815260206004820152602e60248201527f5265676973747261723a2063757272656e74207265676973747261722073696760448201526d1b985d1d5c99481a5b9d985b1a5960921b606482015260840161090b565b505050505050505050505050565b60408051808201909152601a81527f78722e726567697374726174696f6e2e73746f726167652e763100000000000060209091015260008060ff6131be60017f271c1317c5e13243c6727efe146b62181e041180f0dc93ece4eabc002b7978cb61475f565b6040516020016131d091815260200190565b60408051601f1981840301815291905280516020909101201692915050565b6000339050806001600160a01b03166386b70bed6040518163ffffffff1660e01b8152600401602060405180830381865afa158015613232573d6000803e3d6000fd5b505050506040513d601f19601f820116820180604052508101906132569190613e6d565b610c725760405162461bcd60e51b815260206004820152602b60248201527f4261736552656d6f7661626c6552656769737472793a20656e7469747920697360448201526a206e6f742061637469766560a81b606482015260840161090b565b60408051808201909152601c81527f78722e656e746974792e666163746f72792e73746f726167652e76310000000060209091015260008060ff6131be60017f8b4ac7cd4466ab0d50fe53a88c5446ca4a450d482bef9ad792e7d9f451497e0f61475f565b8051825160009161ffff9081169116111561333857506001610f37565b8151835161ffff91821691160361336357816020015161ffff16836020015161ffff16119050610f37565b50600092915050565b60006001600160a01b0382166133dc5760405162461bcd60e51b815260206004820152602f60248201527f4c6962436c6f6e653a20696d706c656d656e746174696f6e2063616e6e6f742060448201526e6265207a65726f206164647265737360881b606482015260840161090b565b60008260601b9050604051733d602d80600a3d3981f3363d3d373d3d3d363d7360601b81528160148201526e5af43d82803e903d91602b57fd5bf360881b60288201526037816000f0949350505050565b6000806134386134f5565b546001600160a01b031692915050565b8051825160009161ffff9081169116101561346557506001610f37565b8151835161ffff91821691160361336357816020015161ffff16836020015161ffff16109050610f37565b600061349c8251613551565b826040516020016134ae929190614780565b604051602081830303815290604052805190602001209050919050565b6000806000806134db86866135e3565b9250925092506134eb8282613630565b5090949350505050565b60408051808201909152601481527378722e6163636573732e73746f726167652e763160601b60209091015260008060ff6131be60017fd870894b15ee1369a593f3670ac51c4ed8201dab473944ee712694d327dd587561475f565b6060600061355e836136e9565b60010190506000816001600160401b0381111561357d5761357d613b36565b6040519080825280601f01601f1916602001820160405280156135a7576020820181803683370190505b5090508181016020015b600019016f181899199a1a9b1b9c1cb0b131b232b360811b600a86061a8153600a85049450846135b157509392505050565b6000806000835160410361361d5760208401516040850151606086015160001a61360f888285856137c1565b955095509550505050613629565b50508151600091506002905b9250925092565b6000826003811115613644576136446147db565b0361364d575050565b6001826003811115613661576136616147db565b0361367f5760405163f645eedf60e01b815260040160405180910390fd5b6002826003811115613693576136936147db565b036136b45760405163fce698f760e01b81526004810182905260240161090b565b60038260038111156136c8576136c86147db565b03610eb3576040516335e2f38360e21b81526004810182905260240161090b565b60008072184f03e93ff9f4daa797ed6e38ed64bf6a1f0160401b83106137285772184f03e93ff9f4daa797ed6e38ed64bf6a1f0160401b830492506040015b6d04ee2d6d415b85acef81000000008310613754576d04ee2d6d415b85acef8100000000830492506020015b662386f26fc10000831061377257662386f26fc10000830492506010015b6305f5e100831061378a576305f5e100830492506008015b612710831061379e57612710830492506004015b606483106137b0576064830492506002015b600a8310610f375760010192915050565b600080807f7fffffffffffffffffffffffffffffff5d576e7357a4501ddfe92f46681b20a08411156137fc5750600091506003905082613886565b604080516000808252602082018084528a905260ff891692820192909252606081018790526080810186905260019060a0016020604051602081039080840390855afa158015613850573d6000803e3d6000fd5b5050604051601f1901519150506001600160a01b03811661387c57506000925060019150829050613886565b9250600091508190505b9450945094915050565b6001600160a01b0381168114610c7257600080fd5b6000602082840312156138b757600080fd5b813561109081613890565b60008083601f8401126138d457600080fd5b5081356001600160401b038111156138eb57600080fd5b60208301915083602082850101111561390357600080fd5b9250929050565b60008060006040848603121561391f57600080fd5b833561392a81613890565b925060208401356001600160401b0381111561394557600080fd5b613951868287016138c2565b9497909650939450505050565b60006020828403121561397057600080fd5b81356001600160401b0381111561398657600080fd5b820160e0818503121561109057600080fd5b600080602083850312156139ab57600080fd5b82356001600160401b038111156139c157600080fd5b6139cd858286016138c2565b90969095509350505050565b600080604083850312156139ec57600080fd5b8235915060208301356139fe81613890565b809150509250929050565b600060c08284031215613a1b57600080fd5b50919050565b600060208284031215613a3357600080fd5b81356001600160401b03811115613a4957600080fd5b613a5584828501613a09565b949350505050565b600060208284031215613a6f57600080fd5b81356001600160401b03811115613a8557600080fd5b8201610160818503121561109057600080fd5b60008060208385031215613aab57600080fd5b82356001600160401b0380821115613ac257600080fd5b818501915085601f830112613ad657600080fd5b813581811115613ae557600080fd5b8660208260051b8501011115613afa57600080fd5b60209290920196919550909350505050565b815161ffff9081168252602080840151909116908201526040808301519082015260608101610f37565b634e487b7160e01b600052604160045260246000fd5b60405160c081016001600160401b0381118282101715613b6e57613b6e613b36565b60405290565b604051606081016001600160401b0381118282101715613b6e57613b6e613b36565b604051601f8201601f191681016001600160401b0381118282101715613bbe57613bbe613b36565b604052919050565b60006001600160401b03821115613bdf57613bdf613b36565b50601f01601f191660200190565b60005b83811015613c08578181015183820152602001613bf0565b50506000910152565b600082601f830112613c2257600080fd5b8151613c35613c3082613bc6565b613b96565b818152846020838601011115613c4a57600080fd5b613a55826020830160208701613bed565b600060208284031215613c6d57600080fd5b81516001600160401b0380821115613c8457600080fd5b9083019060c08286031215613c9857600080fd5b613ca0613b4c565b825182811115613caf57600080fd5b613cbb87828601613c11565b825250602083015182811115613cd057600080fd5b613cdc87828601613c11565b602083015250604083015182811115613cf457600080fd5b613d0087828601613c11565b604083015250606083015160608201526080830151608082015260a083015160a082015280935050505092915050565b60008151808452613d48816020860160208601613bed565b601f01601f19169290920160200192915050565b6000815160c08452613d7160c0850182613d30565b905060208301518482036020860152613d8a8282613d30565b91505060408301518482036040860152613da48282613d30565b915050606083015160608501526080830151608085015260a083015160a08501528091505092915050565b6001600160a01b0383168152604060208201819052600090613a5590830184613d5c565b600060208284031215613e0557600080fd5b815161109081613890565b6020808252603d908201527f4261736552656d6f7661626c6552656769737472793a2063616c6c657220697360408201527f206e6f742074686520656e746974792773207465726d73206f776e6572000000606082015260800190565b600060208284031215613e7f57600080fd5b8151801515811461109057600080fd5b6020808252602b908201527f4261736552656d6f7661626c6552656769737472793a2063616c6c657220697360408201526a206e6f742061637469766560a81b606082015260800190565b81835281816020850137506000828201602090810191909152601f909101601f19169091010190565b6001600160a01b0384168152604060208201819052600090613f289083018486613eda565b95945050505050565b6020808252602b908201527f52656769737472617252656769737472793a20726567697374726172206e6f7460408201526a081c9959da5cdd195c995960aa1b606082015260800190565b60208082526027908201527f52656769737472617252656769737472793a20726567697374726172206e6f746040820152662061637469766560c81b606082015260800190565b61ffff81168114610c7257600080fd5b8135613fde81613fc3565b61ffff8116905081548161ffff1982161783556020840135613fff81613fc3565b63ffff00008160101b168363ffffffff19841617178455505050604082013560018201555050565b60208082526022908201527f52656769737472793a20656e74697479206973206e6f74207265676973746572604082015261195960f21b606082015260800190565b60006040828403121561407b57600080fd5b604051604081018181106001600160401b038211171561409d5761409d613b36565b60405282516140ab81613fc3565b815260208301516140bb81613fc3565b60208201529392505050565b602081526000613a55602083018486613eda565b6020808252818101527f426173654163636573733a207265737472696374656420746f2061646d696e73604082015260600190565b6000808335601e1984360301811261412757600080fd5b83016020810192503590506001600160401b0381111561414657600080fd5b80360382131561390357600080fd5b602081526000823561416681613890565b6001600160a01b031660208381019190915261418490840184614110565b60c0604085015261419960e085018284613eda565b9150506040840135606084015260608401356141b481613fc3565b61ffff8082166080860152608086013591506141cf82613fc3565b1660a084810191909152939093013560c0909201919091525090565b6000602082840312156141fd57600080fd5b5051919050565b6000823560be1983360301811261421a57600080fd5b9190910192915050565b600082601f83011261423557600080fd5b8135614243613c3082613bc6565b81815284602083860101111561425857600080fd5b816020850160208301376000918101602001919091529392505050565b600060c0823603121561428757600080fd5b61428f613b4c565b82356001600160401b03808211156142a657600080fd5b6142b236838701614224565b835260208501359150808211156142c857600080fd5b6142d436838701614224565b602084015260408501359150808211156142ed57600080fd5b506142fa36828601614224565b604083015250606083013560608201526080830135608082015260a083013560a082015280915050919050565b6000808335601e1984360301811261433e57600080fd5b8301803591506001600160401b0382111561435857600080fd5b60200191503681900382131561390357600080fd5b6060815260006143806060830187613d5c565b6001600160a01b038616602084015282810360408401526143a2818587613eda565b979650505050505050565b6000606082840312156143bf57600080fd5b6143c7613b74565b82356143d281613fc3565b815260208301356143e281613fc3565b60208201526040928301359281019290925250919050565b602080825282516001600160a01b0390811683830152838201511660408084019190915280840151805161ffff908116606086015292810151909216608084015281015160a083015260009050606083015160c0830152608083015160e080840152613a55610100840182613d30565b60208152600060018060a01b0380845116602084015280602085015116604084015250604083015160a06060840152805160c0808501526144af610180850182613d30565b9050602082015160bf19808684030160e08701526144cd8383613d30565b9250604084015191508086840301610100870152506144ec8282613d30565b9150506060820151610120850152608082015161014085015260a082015161016085015260608501519150601f198085830301608086015261452e8284613d30565b925060808601519150808584030160a086015250613f288282613d30565b602080825282516001600160a01b0390811683830152838201511660408084019190915280840151805161ffff90811660608087019190915293820151166080850152015160a083015282015160e060c08301526000906145b1610100840182613d30565b90506080840151601f198483030160e0850152613f288282613d5c565b60208082528181018390526000908460408401835b868110156146115782356145f681613890565b6001600160a01b0316825291830191908301906001016145e3565b509695505050505050565b6001600160a01b038516815260606020820181905260009061464090830186613d5c565b82810360408401526143a2818587613eda565b6020815260006146638384614110565b60c0602085015261467860e085018284613eda565b9150506146886020850185614110565b601f19808685030160408701526146a0848385613eda565b93506146af6040880188614110565b9350915080868503016060870152506146c9838383613eda565b9250505060608401356080840152608084013560a084015260a084013560c08401528091505092915050565b60006060828403121561470757600080fd5b61470f613b74565b825161471a81613fc3565b8152602083015161472a81613fc3565b60208201526040928301519281019290925250919050565b60006020828403121561475457600080fd5b813561109081613fc3565b81810381811115610f3757634e487b7160e01b600052601160045260246000fd5b7f19457468657265756d205369676e6564204d6573736167653a0a0000000000008152600083516147b881601a850160208801613bed565b8351908301906147cf81601a840160208801613bed565b01601a01949350505050565b634e487b7160e01b600052602160045260246000fdfea264697066735822122096e30a61edd9ca7bd5bd0d2f36f13d4c1597408130fd52832466560c01d6d7cc64736f6c63430008180033",
  "linkReferences": {
    "contracts/libraries/LibAccess.sol": {
      "LibAccess": [
        {
          "length": 20,
          "start": 4136
        },
        {
          "length": 20,
          "start": 4258
        },
        {
          "length": 20,
          "start": 4417
        },
        {
          "length": 20,
          "start": 7960
        },
        {
          "length": 20,
          "start": 8027
        },
        {
          "length": 20,
          "start": 8082
        },
        {
          "length": 20,
          "start": 8219
        },
        {
          "length": 20,
          "start": 8386
        },
        {
          "length": 20,
          "start": 8501
        },
        {
          "length": 20,
          "start": 8812
        },
        {
          "length": 20,
          "start": 10320
        },
        {
          "length": 20,
          "start": 10527
        },
        {
          "length": 20,
          "start": 10686
        },
        {
          "length": 20,
          "start": 10805
        },
        {
          "length": 20,
          "start": 10995
        },
        {
          "length": 20,
          "start": 11117
        },
        {
          "length": 20,
          "start": 11307
        },
        {
          "length": 20,
          "start": 11362
        },
        {
          "length": 20,
          "start": 11499
        }
      ]
    },
    "contracts/libraries/LibEntityRemoval.sol": {
      "LibEntityRemoval": [
        {
          "length": 20,
          "start": 2405
        },
        {
          "length": 20,
          "start": 2806
        },
        {
          "length": 20,
          "start": 4613
        },
        {
          "length": 20,
          "start": 5131
        },
        {
          "length": 20,
          "start": 5259
        },
        {
          "length": 20,
          "start": 5850
        },
        {
          "length": 20,
          "start": 8879
        },
        {
          "length": 20,
          "start": 9317
        },
        {
          "length": 20,
          "start": 9452
        },
        {
          "length": 20,
          "start": 9519
        },
        {
          "length": 20,
          "start": 10750
        },
        {
          "length": 20,
          "start": 11062
        },
        {
          "length": 20,
          "start": 11596
        }
      ]
    },
    "contracts/libraries/LibFactory.sol": {
      "LibFactory": [
        {
          "length": 20,
          "start": 5315
        },
        {
          "length": 20,
          "start": 5430
        },
        {
          "length": 20,
          "start": 8275
        },
        {
          "length": 20,
          "start": 8653
        },
        {
          "length": 20,
          "start": 10472
        }
      ]
    },
    "contracts/libraries/LibRegistration.sol": {
      "LibRegistration": [
        {
          "length": 20,
          "start": 4469
        },
        {
          "length": 20,
          "start": 5004
        },
        {
          "length": 20,
          "start": 6896
        },
        {
          "length": 20,
          "start": 7698
        },
        {
          "length": 20,
          "start": 9586
        },
        {
          "length": 20,
          "start": 10194
        }
      ]
    },
    "contracts/libraries/LibVectorAddress.sol": {
      "LibVectorAddress": [
        {
          "length": 20,
          "start": 6450
        }
      ]
    }
  },
  "deployedLinkReferences": {
    "contracts/libraries/LibAccess.sol": {
      "LibAccess": [
        {
          "length": 20,
          "start": 3800
        },
        {
          "length": 20,
          "start": 3922
        },
        {
          "length": 20,
          "start": 4081
        },
        {
          "length": 20,
          "start": 7624
        },
        {
          "length": 20,
          "start": 7691
        },
        {
          "length": 20,
          "start": 7746
        },
        {
          "length": 20,
          "start": 7883
        },
        {
          "length": 20,
          "start": 8050
        },
        {
          "length": 20,
          "start": 8165
        },
        {
          "length": 20,
          "start": 8476
        },
        {
          "length": 20,
          "start": 9984
        },
        {
          "length": 20,
          "start": 10191
        },
        {
          "length": 20,
          "start": 10350
        },
        {
          "length": 20,
          "start": 10469
        },
        {
          "length": 20,
          "start": 10659
        },
        {
          "length": 20,
          "start": 10781
        },
        {
          "length": 20,
          "start": 10971
        },
        {
          "length": 20,
          "start": 11026
        },
        {
          "length": 20,
          "start": 11163
        }
      ]
    },
    "contracts/libraries/LibEntityRemoval.sol": {
      "LibEntityRemoval": [
        {
          "length": 20,
          "start": 2069
        },
        {
          "length": 20,
          "start": 2470
        },
        {
          "length": 20,
          "start": 4277
        },
        {
          "length": 20,
          "start": 4795
        },
        {
          "length": 20,
          "start": 4923
        },
        {
          "length": 20,
          "start": 5514
        },
        {
          "length": 20,
          "start": 8543
        },
        {
          "length": 20,
          "start": 8981
        },
        {
          "length": 20,
          "start": 9116
        },
        {
          "length": 20,
          "start": 9183
        },
        {
          "length": 20,
          "start": 10414
        },
        {
          "length": 20,
          "start": 10726
        },
        {
          "length": 20,
          "start": 11260
        }
      ]
    },
    "contracts/libraries/LibFactory.sol": {
      "LibFactory": [
        {
          "length": 20,
          "start": 4979
        },
        {
          "length": 20,
          "start": 5094
        },
        {
          "length": 20,
          "start": 7939
        },
        {
          "length": 20,
          "start": 8317
        },
        {
          "length": 20,
          "start": 10136
        }
      ]
    },
    "contracts/libraries/LibRegistration.sol": {
      "LibRegistration": [
        {
          "length": 20,
          "start": 4133
        },
        {
          "length": 20,
          "start": 4668
        },
        {
          "length": 20,
          "start": 6560
        },
        {
          "length": 20,
          "start": 7362
        },
        {
          "length": 20,
          "start": 9250
        },
        {
          "length": 20,
          "start": 9858
        }
      ]
    },
    "contracts/libraries/LibVectorAddress.sol": {
      "LibVectorAddress": [
        {
          "length": 20,
          "start": 6114
        }
      ]
    }
  }
}