{
  "_format": "hh-sol-artifact-1",
  "contractName": "Avatar",
  "sourceName": "contracts/avatar/Avatar.sol",
  "abi": [
    {
      "inputs": [
        {
          "components": [
            {
              "internalType": "address",
              "name": "avatarFactory",
              "type": "address"
            },
            {
              "internalType": "address",
              "name": "avatarRegistry",
              "type": "address"
            },
            {
              "internalType": "address",
              "name": "experienceRegistry",
              "type": "address"
            },
            {
              "internalType": "address",
              "name": "portalRegistry",
              "type": "address"
            },
            {
              "internalType": "address",
              "name": "companyRegistry",
              "type": "address"
            },
            {
              "internalType": "address",
              "name": "multiAssetRegistry",
              "type": "address"
            }
          ],
          "internalType": "struct BaseContructorArgs",
          "name": "args",
          "type": "tuple"
        }
      ],
      "stateMutability": "nonpayable",
      "type": "constructor"
    },
    {
      "inputs": [],
      "name": "ECDSAInvalidSignature",
      "type": "error"
    },
    {
      "inputs": [
        {
          "internalType": "uint256",
          "name": "length",
          "type": "uint256"
        }
      ],
      "name": "ECDSAInvalidSignatureLength",
      "type": "error"
    },
    {
      "inputs": [
        {
          "internalType": "bytes32",
          "name": "s",
          "type": "bytes32"
        }
      ],
      "name": "ECDSAInvalidSignatureS",
      "type": "error"
    },
    {
      "inputs": [],
      "name": "ReentrancyGuardReentrantCall",
      "type": "error"
    },
    {
      "anonymous": false,
      "inputs": [
        {
          "indexed": true,
          "internalType": "bytes",
          "name": "appearanceDetails",
          "type": "bytes"
        }
      ],
      "name": "AppearanceChanged",
      "type": "event"
    },
    {
      "anonymous": false,
      "inputs": [
        {
          "indexed": true,
          "internalType": "address",
          "name": "oldVersion",
          "type": "address"
        },
        {
          "indexed": true,
          "internalType": "address",
          "name": "nextVersion",
          "type": "address"
        }
      ],
      "name": "AvatarUpgraded",
      "type": "event"
    },
    {
      "anonymous": false,
      "inputs": [],
      "name": "HookRemoved",
      "type": "event"
    },
    {
      "anonymous": false,
      "inputs": [
        {
          "indexed": true,
          "internalType": "address",
          "name": "hook",
          "type": "address"
        }
      ],
      "name": "HookSet",
      "type": "event"
    },
    {
      "anonymous": false,
      "inputs": [
        {
          "indexed": true,
          "internalType": "address",
          "name": "experience",
          "type": "address"
        },
        {
          "indexed": true,
          "internalType": "uint256",
          "name": "fee",
          "type": "uint256"
        },
        {
          "indexed": true,
          "internalType": "bytes",
          "name": "connectionDetails",
          "type": "bytes"
        }
      ],
      "name": "JumpSuccess",
      "type": "event"
    },
    {
      "anonymous": false,
      "inputs": [
        {
          "indexed": true,
          "internalType": "address",
          "name": "location",
          "type": "address"
        }
      ],
      "name": "LocationChanged",
      "type": "event"
    },
    {
      "anonymous": false,
      "inputs": [
        {
          "indexed": true,
          "internalType": "address",
          "name": "signer",
          "type": "address"
        }
      ],
      "name": "SignerAdded",
      "type": "event"
    },
    {
      "anonymous": false,
      "inputs": [
        {
          "indexed": true,
          "internalType": "address",
          "name": "signer",
          "type": "address"
        }
      ],
      "name": "SignerRemoved",
      "type": "event"
    },
    {
      "anonymous": false,
      "inputs": [
        {
          "indexed": true,
          "internalType": "address",
          "name": "wearable",
          "type": "address"
        },
        {
          "indexed": false,
          "internalType": "uint256",
          "name": "tokenId",
          "type": "uint256"
        }
      ],
      "name": "WearableAdded",
      "type": "event"
    },
    {
      "anonymous": false,
      "inputs": [
        {
          "indexed": true,
          "internalType": "address",
          "name": "wearable",
          "type": "address"
        },
        {
          "indexed": false,
          "internalType": "uint256",
          "name": "tokenId",
          "type": "uint256"
        }
      ],
      "name": "WearableRemoved",
      "type": "event"
    },
    {
      "inputs": [],
      "name": "MAX_SIZE",
      "outputs": [
        {
          "internalType": "uint256",
          "name": "",
          "type": "uint256"
        }
      ],
      "stateMutability": "view",
      "type": "function"
    },
    {
      "inputs": [
        {
          "components": [
            {
              "internalType": "address",
              "name": "asset",
              "type": "address"
            },
            {
              "internalType": "uint256",
              "name": "tokenId",
              "type": "uint256"
            }
          ],
          "internalType": "struct Wearable",
          "name": "wearable",
          "type": "tuple"
        }
      ],
      "name": "addWearable",
      "outputs": [],
      "stateMutability": "nonpayable",
      "type": "function"
    },
    {
      "inputs": [],
      "name": "appearanceDetails",
      "outputs": [
        {
          "internalType": "bytes",
          "name": "",
          "type": "bytes"
        }
      ],
      "stateMutability": "view",
      "type": "function"
    },
    {
      "inputs": [],
      "name": "assetRegistry",
      "outputs": [
        {
          "internalType": "contract IMultiAssetRegistry",
          "name": "",
          "type": "address"
        }
      ],
      "stateMutability": "view",
      "type": "function"
    },
    {
      "inputs": [],
      "name": "avatarFactory",
      "outputs": [
        {
          "internalType": "address",
          "name": "",
          "type": "address"
        }
      ],
      "stateMutability": "view",
      "type": "function"
    },
    {
      "inputs": [],
      "name": "avatarOwnerSigningNonce",
      "outputs": [
        {
          "internalType": "uint256",
          "name": "",
          "type": "uint256"
        }
      ],
      "stateMutability": "view",
      "type": "function"
    },
    {
      "inputs": [],
      "name": "avatarRegistry",
      "outputs": [
        {
          "internalType": "contract IAvatarRegistry",
          "name": "",
          "type": "address"
        }
      ],
      "stateMutability": "view",
      "type": "function"
    },
    {
      "inputs": [],
      "name": "canReceiveTokensOutsideOfExperience",
      "outputs": [
        {
          "internalType": "bool",
          "name": "",
          "type": "bool"
        }
      ],
      "stateMutability": "view",
      "type": "function"
    },
    {
      "inputs": [],
      "name": "companyRegistry",
      "outputs": [
        {
          "internalType": "contract ICompanyRegistry",
          "name": "",
          "type": "address"
        }
      ],
      "stateMutability": "view",
      "type": "function"
    },
    {
      "inputs": [
        {
          "internalType": "address",
          "name": "company",
          "type": "address"
        }
      ],
      "name": "companySigningNonce",
      "outputs": [
        {
          "internalType": "uint256",
          "name": "",
          "type": "uint256"
        }
      ],
      "stateMutability": "view",
      "type": "function"
    },
    {
      "inputs": [
        {
          "components": [
            {
              "internalType": "uint256",
              "name": "portalId",
              "type": "uint256"
            },
            {
              "internalType": "uint256",
              "name": "agreedFee",
              "type": "uint256"
            },
            {
              "internalType": "bytes",
              "name": "avatarOwnerSignature",
              "type": "bytes"
            }
          ],
          "internalType": "struct DelegatedJumpRequest",
          "name": "request",
          "type": "tuple"
        }
      ],
      "name": "delegateJump",
      "outputs": [],
      "stateMutability": "payable",
      "type": "function"
    },
    {
      "inputs": [
        {
          "components": [
            {
              "internalType": "bool",
              "name": "canReceiveTokensOutsideOfExperience",
              "type": "bool"
            },
            {
              "internalType": "bytes",
              "name": "appearanceDetails",
              "type": "bytes"
            }
          ],
          "internalType": "struct AvatarInitData",
          "name": "data",
          "type": "tuple"
        }
      ],
      "name": "encodeInitData",
      "outputs": [
        {
          "internalType": "bytes",
          "name": "",
          "type": "bytes"
        }
      ],
      "stateMutability": "pure",
      "type": "function"
    },
    {
      "inputs": [],
      "name": "experienceRegistry",
      "outputs": [
        {
          "internalType": "contract IExperienceRegistry",
          "name": "",
          "type": "address"
        }
      ],
      "stateMutability": "view",
      "type": "function"
    },
    {
      "inputs": [],
      "name": "getWearables",
      "outputs": [
        {
          "components": [
            {
              "internalType": "address",
              "name": "asset",
              "type": "address"
            },
            {
              "internalType": "uint256",
              "name": "tokenId",
              "type": "uint256"
            }
          ],
          "internalType": "struct Wearable[]",
          "name": "",
          "type": "tuple[]"
        }
      ],
      "stateMutability": "view",
      "type": "function"
    },
    {
      "inputs": [],
      "name": "hook",
      "outputs": [
        {
          "internalType": "contract IAvatarHook",
          "name": "",
          "type": "address"
        }
      ],
      "stateMutability": "view",
      "type": "function"
    },
    {
      "inputs": [
        {
          "internalType": "address",
          "name": "_owner",
          "type": "address"
        },
        {
          "internalType": "address",
          "name": "defaultExperience",
          "type": "address"
        },
        {
          "internalType": "string",
          "name": "_name",
          "type": "string"
        },
        {
          "internalType": "bytes",
          "name": "initData",
          "type": "bytes"
        }
      ],
      "name": "init",
      "outputs": [],
      "stateMutability": "nonpayable",
      "type": "function"
    },
    {
      "inputs": [
        {
          "components": [
            {
              "internalType": "address",
              "name": "asset",
              "type": "address"
            },
            {
              "internalType": "uint256",
              "name": "tokenId",
              "type": "uint256"
            }
          ],
          "internalType": "struct Wearable",
          "name": "wearable",
          "type": "tuple"
        }
      ],
      "name": "isWearing",
      "outputs": [
        {
          "internalType": "bool",
          "name": "",
          "type": "bool"
        }
      ],
      "stateMutability": "view",
      "type": "function"
    },
    {
      "inputs": [
        {
          "components": [
            {
              "internalType": "uint256",
              "name": "portalId",
              "type": "uint256"
            },
            {
              "internalType": "uint256",
              "name": "agreedFee",
              "type": "uint256"
            },
            {
              "internalType": "bytes",
              "name": "destinationCompanySignature",
              "type": "bytes"
            }
          ],
          "internalType": "struct AvatarJumpRequest",
          "name": "request",
          "type": "tuple"
        }
      ],
      "name": "jump",
      "outputs": [],
      "stateMutability": "payable",
      "type": "function"
    },
    {
      "inputs": [],
      "name": "location",
      "outputs": [
        {
          "internalType": "contract IExperience",
          "name": "",
          "type": "address"
        }
      ],
      "stateMutability": "view",
      "type": "function"
    },
    {
      "inputs": [
        {
          "internalType": "address",
          "name": "",
          "type": "address"
        },
        {
          "internalType": "address",
          "name": "",
          "type": "address"
        },
        {
          "internalType": "uint256",
          "name": "tokenId",
          "type": "uint256"
        },
        {
          "internalType": "bytes",
          "name": "",
          "type": "bytes"
        }
      ],
      "name": "onERC721Received",
      "outputs": [
        {
          "internalType": "bytes4",
          "name": "",
          "type": "bytes4"
        }
      ],
      "stateMutability": "nonpayable",
      "type": "function"
    },
    {
      "inputs": [],
      "name": "owner",
      "outputs": [
        {
          "internalType": "address",
          "name": "",
          "type": "address"
        }
      ],
      "stateMutability": "view",
      "type": "function"
    },
    {
      "inputs": [],
      "name": "portalRegistry",
      "outputs": [
        {
          "internalType": "contract IPortalRegistry",
          "name": "",
          "type": "address"
        }
      ],
      "stateMutability": "view",
      "type": "function"
    },
    {
      "inputs": [],
      "name": "removeHook",
      "outputs": [],
      "stateMutability": "nonpayable",
      "type": "function"
    },
    {
      "inputs": [
        {
          "components": [
            {
              "internalType": "address",
              "name": "asset",
              "type": "address"
            },
            {
              "internalType": "uint256",
              "name": "tokenId",
              "type": "uint256"
            }
          ],
          "internalType": "struct Wearable",
          "name": "wearable",
          "type": "tuple"
        }
      ],
      "name": "removeWearable",
      "outputs": [],
      "stateMutability": "nonpayable",
      "type": "function"
    },
    {
      "inputs": [
        {
          "internalType": "bytes",
          "name": "details",
          "type": "bytes"
        }
      ],
      "name": "setAppearanceDetails",
      "outputs": [],
      "stateMutability": "nonpayable",
      "type": "function"
    },
    {
      "inputs": [
        {
          "internalType": "bool",
          "name": "canReceive",
          "type": "bool"
        }
      ],
      "name": "setCanReceiveTokensOutsideOfExperience",
      "outputs": [],
      "stateMutability": "nonpayable",
      "type": "function"
    },
    {
      "inputs": [
        {
          "internalType": "contract IAvatarHook",
          "name": "_hook",
          "type": "address"
        }
      ],
      "name": "setHook",
      "outputs": [],
      "stateMutability": "nonpayable",
      "type": "function"
    },
    {
      "inputs": [
        {
          "internalType": "bytes",
          "name": "initData",
          "type": "bytes"
        }
      ],
      "name": "upgrade",
      "outputs": [],
      "stateMutability": "nonpayable",
      "type": "function"
    },
    {
      "inputs": [
        {
          "internalType": "address",
          "name": "nextVersion",
          "type": "address"
        }
      ],
      "name": "upgradeComplete",
      "outputs": [],
      "stateMutability": "nonpayable",
      "type": "function"
    },
    {
      "inputs": [],
      "name": "username",
      "outputs": [
        {
          "internalType": "string",
          "name": "",
          "type": "string"
        }
      ],
      "stateMutability": "view",
      "type": "function"
    },
    {
      "inputs": [],
      "name": "version",
      "outputs": [
        {
          "internalType": "uint256",
          "name": "",
          "type": "uint256"
        }
      ],
      "stateMutability": "view",
      "type": "function"
    },
    {
      "inputs": [
        {
          "internalType": "uint256",
          "name": "amount",
          "type": "uint256"
        }
      ],
      "name": "withdraw",
      "outputs": [],
      "stateMutability": "nonpayable",
      "type": "function"
    },
    {
      "stateMutability": "payable",
      "type": "receive"
    }
  ],
  "bytecode": "0x6101406040523480156200001257600080fd5b5060405162003bac38038062003bac833981016040819052620000359162000367565b600160005580516001600160a01b0316620000ad5760405162461bcd60e51b815260206004820152602d60248201527f4176617461723a2061766174617220666163746f72792063616e6e6f7420626560448201526c207a65726f206164647265737360981b60648201526084015b60405180910390fd5b60408101516001600160a01b0316620001245760405162461bcd60e51b815260206004820152603260248201527f4176617461723a20657870657269656e63652072656769737472792063616e6e6044820152716f74206265207a65726f206164647265737360701b6064820152608401620000a4565b60608101516001600160a01b0316620001975760405162461bcd60e51b815260206004820152602e60248201527f4176617461723a20706f7274616c2072656769737472792063616e6e6f74206260448201526d65207a65726f206164647265737360901b6064820152608401620000a4565b60808101516001600160a01b03166200020b5760405162461bcd60e51b815260206004820152602f60248201527f4176617461723a20636f6d70616e792072656769737472792063616e6e6f742060448201526e6265207a65726f206164647265737360881b6064820152608401620000a4565b60208101516001600160a01b03166200027e5760405162461bcd60e51b815260206004820152602e60248201527f4176617461723a206176617461722072656769737472792063616e6e6f74206260448201526d65207a65726f206164647265737360901b6064820152608401620000a4565b60a08101516001600160a01b0316620003005760405162461bcd60e51b815260206004820152603360248201527f4176617461723a206d756c74692d61737365742072656769737472792063616e60448201527f6e6f74206265207a65726f2061646472657373000000000000000000000000006064820152608401620000a4565b80516001600160a01b0390811660809081526040830151821660c0526060830151821660e0528201518116610100526020820151811660a090815290910151166101205262000421565b80516001600160a01b03811681146200036257600080fd5b919050565b600060c082840312156200037a57600080fd5b60405160c081016001600160401b0381118282101715620003ab57634e487b7160e01b600052604160045260246000fd5b604052620003b9836200034a565b8152620003c9602084016200034a565b6020820152620003dc604084016200034a565b6040820152620003ef606084016200034a565b606082015262000402608084016200034a565b60808201526200041560a084016200034a565b60a08201529392505050565b60805160a05160c05160e05161010051610120516136f5620004b7600039600081816105150152610acf0152600081816105bd0152611698015260008181610589015281816112730152818161178f0152818161185801526120b20152600081816104c10152611c890152600081816105f10152610f4001526000818161041101528181610fb90152611aec01526136f56000f3fe6080604052600436106101e75760003560e01c806361fac54d11610102578063979d7e8611610095578063c51aba2b11610064578063c51aba2b146105ab578063e3d7ad73146105df578063e427535c14610613578063f890d7c91461063357600080fd5b8063979d7e86146105035780639be17fbc146105375780639d870bf614610557578063b66649341461057757600080fd5b80638d67799e116100d15780638d67799e146104855780638da5cb5b1461049a5780638f09a6be146104af578063949a1ddc146104e357600080fd5b806361fac54d146104335780637dc759e5146104485780637f5a7c7b1461045b5780638970220e1461047057600080fd5b8063392f56691161017a57806354cf0b391161014957806354cf0b39146103a857806354fd4d50146103c85780635cf59e1e146103dd57806360e741e8146103ff57600080fd5b8063392f56691461031b5780633dfd38731461032e57806340ac3f0b1461034e578063516f279e1461037b57600080fd5b806325394645116101b657806325394645146102a65780632663d1f7146102c65780632e1a7d4d146102e6578063378f17ff1461030657600080fd5b806303f7d3ba146101f357806312deb11a14610226578063150b7a0214610248578063181d939b1461028157600080fd5b366101ee57005b600080fd5b3480156101ff57600080fd5b5061021361020e366004612bb3565b610648565b6040519081526020015b60405180910390f35b34801561023257600080fd5b50610246610241366004612bd7565b610675565b005b34801561025457600080fd5b50610268610263366004612c37565b610aa3565b6040516001600160e01b0319909116815260200161021d565b34801561028d57600080fd5b50610296610ed9565b604051901515815260200161021d565b3480156102b257600080fd5b506102466102c1366004612ca9565b610eee565b3480156102d257600080fd5b506102466102e1366004612bb3565b610fae565b3480156102f257600080fd5b50610246610301366004612cea565b611067565b34801561031257600080fd5b50610246611155565b610246610329366004612e73565b6111dc565b34801561033a57600080fd5b50610246610349366004612bb3565b611391565b34801561035a57600080fd5b5061036e610369366004612ebd565b61148a565b60405161021d9190612f8c565b34801561038757600080fd5b506103906114b3565b6040516001600160a01b03909116815260200161021d565b3480156103b457600080fd5b506102466103c3366004612bd7565b6114d1565b3480156103d457600080fd5b50610213600181565b3480156103e957600080fd5b506103f26115d3565b60405161021d9190612f9f565b34801561040b57600080fd5b506103907f000000000000000000000000000000000000000000000000000000000000000081565b34801561043f57600080fd5b5061036e6115e2565b610246610456366004612e73565b611683565b34801561046757600080fd5b50610390611975565b34801561047c57600080fd5b5061036e611993565b34801561049157600080fd5b5061021360c881565b3480156104a657600080fd5b506103906119b0565b3480156104bb57600080fd5b506103907f000000000000000000000000000000000000000000000000000000000000000081565b3480156104ef57600080fd5b506102466104fe366004612ff7565b6119d0565b34801561050f57600080fd5b506103907f000000000000000000000000000000000000000000000000000000000000000081565b34801561054357600080fd5b50610296610552366004612bd7565b611a69565b34801561056357600080fd5b5061024661057236600461302b565b611a88565b34801561058357600080fd5b506103907f000000000000000000000000000000000000000000000000000000000000000081565b3480156105b757600080fd5b506103907f000000000000000000000000000000000000000000000000000000000000000081565b3480156105eb57600080fd5b506103907f000000000000000000000000000000000000000000000000000000000000000081565b34801561061f57600080fd5b5061024661062e366004613048565b611ae1565b34801561063f57600080fd5b50610213611de0565b600080610653611df5565b6001600160a01b03909316600090815260059093016020525050604090205490565b600061067f611df5565b805490915061010090046001600160a01b031633146106b95760405162461bcd60e51b81526004016106b0906130e7565b60405180910390fd5b60006106c86020840184612bb3565b6001600160a01b0316036106ee5760405162461bcd60e51b81526004016106b090613130565b60008260200135116107125760405162461bcd60e51b81526004016106b09061317d565b60006107216020840184612bb3565b9050600061072d6114b3565b905061073c6020850185612bb3565b6001600160a01b0316633fa47f176040518060a001604052808760000160208101906107689190612bb3565b6001600160a01b03168152602001846001600160a01b03166330b67baa6040518163ffffffff1660e01b8152600401602060405180830381865afa1580156107b4573d6000803e3d6000fd5b505050506040513d601f19601f820116820180604052508101906107d891906131c4565b6001600160a01b03168152602001846001600160a01b0316636904c94d6040518163ffffffff1660e01b8152600401602060405180830381865afa158015610824573d6000803e3d6000fd5b505050506040513d601f19601f8201168201806040525081019061084891906131c4565b6001600160a01b03908116825285811660208084019190915230604093840152825160e086901b6001600160e01b031916815284518316600482015290840151821660248201529183015181166044830152606083015181166064830152608090920151909116608482015260a401602060405180830381865afa1580156108d4573d6000803e3d6000fd5b505050506040513d601f19601f820116820180604052508101906108f891906131e1565b61095c5760405162461bcd60e51b815260206004820152602f60248201527f4176617461723a207765617261626c652061737365742063616e6e6f7420626560448201526e103ab9b2b210313c9030bb30ba30b960891b60648201526084016106b0565b6040516331a9108f60e11b81526020850135600482015230906001600160a01b03841690636352211e90602401602060405180830381865afa1580156109a6573d6000803e3d6000fd5b505050506040513d601f19601f820116820180604052508101906109ca91906131c4565b6001600160a01b031614610a335760405162461bcd60e51b815260206004820152602a60248201527f4176617461723a207765617261626c6520746f6b656e206e6f74206f776e656460448201526910313c9030bb30ba30b960b11b60648201526084016106b0565b610a4a610a45368690038601866131fe565b611e19565b610a576020850185612bb3565b6001600160a01b03167fc33fdb2e96e0dba49a8cb36af300177e6ba61804be87a31a26e27ab52596ecf28560200135604051610a9591815260200190565b60405180910390a250505050565b6000610aad61204d565b6000610ab7611df5565b6040516315bd8ac360e31b81523360048201529091507f00000000000000000000000000000000000000000000000000000000000000006001600160a01b03169063adec561890602401602060405180830381865afa158015610b1e573d6000803e3d6000fd5b505050506040513d601f19601f82011682018060405250810190610b4291906131e1565b610ba55760405162461bcd60e51b815260206004820152602e60248201527f4176617461723a2045524337323120746f6b656e206e6f742066726f6d20726560448201526d19da5cdd195c995908185cdcd95d60921b60648201526084016106b0565b8054339060ff16610d07576000336001600160a01b0316631d1438486040518163ffffffff1660e01b8152600401602060405180830381865afa158015610bf0573d6000803e3d6000fd5b505050506040513d601f19601f82011682018060405250810190610c1491906131c4565b600184015460408051636904c94d60e01b815290519293506001600160a01b03909116918291636904c94d9160048083019260209291908290030181865afa158015610c64573d6000803e3d6000fd5b505050506040513d601f19601f82011682018060405250810190610c8891906131c4565b6001600160a01b0316826001600160a01b031614610d045760405162461bcd60e51b815260206004820152603360248201527f4176617461723a2063616e6e6f74207265636569766520746f6b656e73206f756044820152727473696465206f6620657870657269656e636560681b60648201526084016106b0565b50505b6040516331a9108f60e11b81526004810187905230906001600160a01b03831690636352211e90602401602060405180830381865afa158015610d4e573d6000803e3d6000fd5b505050506040513d601f19601f82011682018060405250810190610d7291906131c4565b6001600160a01b031614610dd95760405162461bcd60e51b815260206004820152602860248201527f4176617461723a2045524337323120746f6b656e206e6f74206f776e656420626044820152673c9030bb30ba30b960c11b60648201526084016106b0565b60028201546001600160a01b031615610ec0576002820154604051631d9a6bd160e11b8152306004820152336024820152604481018890526001600160a01b0390911690633b34d7a2906064016020604051808303816000875af1158015610e45573d6000803e3d6000fd5b505050506040513d601f19601f82011682018060405250810190610e6991906131e1565b610ec05760405162461bcd60e51b815260206004820152602260248201527f4176617461723a20686f6f6b2072656a65637465642045524337323120746f6b60448201526132b760f11b60648201526084016106b0565b5050600160005550630a85bd0160e11b95945050505050565b600080610ee4611df5565b5460ff1692915050565b6000610ef8611df5565b805490915061010090046001600160a01b03163314610f295760405162461bcd60e51b81526004016106b0906130e7565b60405163612ca62160e01b81526001600160a01b037f0000000000000000000000000000000000000000000000000000000000000000169063612ca62190610f779086908690600401613238565b600060405180830381600087803b158015610f9157600080fd5b505af1158015610fa5573d6000803e3d6000fd5b50505050505050565b336001600160a01b037f00000000000000000000000000000000000000000000000000000000000000001614610ff65760405162461bcd60e51b81526004016106b090613267565b7f1f07e7b49187e1cf67924ca1fa35732211c5bb2c23b6b53ee47453438de7285e80546001600160a01b031981166001600160a01b03848116918217845560405192169182907f722ee95a7e2eed3235f2e3bdb62d3f6e70079578905580fbf8bb414519dd617290600090a3505050565b6000611071611df5565b805490915061010090046001600160a01b031633146110a25760405162461bcd60e51b81526004016106b0906130e7565b478211156111065760405162461bcd60e51b815260206004820152602b60248201527f4176617461723a20696e73756666696369656e742062616c616e636520666f7260448201526a081dda5d1a191c985dd85b60aa1b60648201526084016106b0565b6000611110611df5565b80546040519192506001600160a01b0361010090910416904780156108fc02916000818181858888f1935050505015801561114f573d6000803e3d6000fd5b50505050565b600061115f611df5565b805490915061010090046001600160a01b031633146111905760405162461bcd60e51b81526004016106b0906130e7565b600061119a611df5565b6002810180546001600160a01b03191690556040519091507f4abf6d25887ff6b78026f569f956b6d57d5b92cecf0ee91d897ec98e47f656a390600090a15050565b60006111e6611df5565b805490915061010090046001600160a01b031633146112175760405162461bcd60e51b81526004016106b0906130e7565b600061122283612077565b60408101519091501561126357600061123b34476132c8565b905081604001518110156112615760405162461bcd60e51b81526004016106b0906132db565b505b600061126d611df5565b905060007f00000000000000000000000000000000000000000000000000000000000000006001600160a01b03166384c4484e846040015187600001516040518363ffffffff1660e01b81526004016112c891815260200190565b60006040518083038185885af11580156112e6573d6000803e3d6000fd5b50505050506040513d6000823e601f3d908101601f1916820160405261130f9190810190613367565b83516001840180546001600160a01b0319166001600160a01b0390921691909117905560405190915061134390829061339b565b6040518091039020836040015184600001516001600160a01b03167fe6b8160f723fcdb4c3cb8bf86e99d55e311c607a791f7503cc16dfaff3271e4360405160405180910390a45050505050565b600061139b611df5565b805490915061010090046001600160a01b031633146113cc5760405162461bcd60e51b81526004016106b0906130e7565b6001600160a01b03821661142e5760405162461bcd60e51b815260206004820152602360248201527f4176617461723a20686f6f6b2063616e6e6f74206265207a65726f206164647260448201526265737360e81b60648201526084016106b0565b6000611438611df5565b6002810180546001600160a01b0319166001600160a01b038616908117909155604051919250907f4eab7b127c764308788622363ad3e9532de3dfba7845bd4f84c125a22544255a90600090a2505050565b60608160405160200161149d91906133b7565b6040516020818303038152906040529050919050565b6000806114be611df5565b600101546001600160a01b031692915050565b60006114db611df5565b805490915061010090046001600160a01b0316331461150c5760405162461bcd60e51b81526004016106b0906130e7565b600061151b6020840184612bb3565b6001600160a01b0316036115415760405162461bcd60e51b81526004016106b090613130565b60008260200135116115655760405162461bcd60e51b81526004016106b09061317d565b61157c611577368490038401846131fe565b612318565b6115896020830183612bb3565b6001600160a01b03167f60c3791748d09484f5d949c7570a640dad2f40bbebc2571b8f6c0e6a13e96fac83602001356040516115c791815260200190565b60405180910390a25050565b60606115dd612507565b905090565b606060006115ee611df5565b90508060030180546115ff906133de565b80601f016020809104026020016040519081016040528092919081815260200182805461162b906133de565b80156116785780601f1061164d57610100808354040283529160200191611678565b820191906000526020600020905b81548152906001019060200180831161165b57829003601f168201915b505050505091505090565b604051632405672560e21b81523360048201527f00000000000000000000000000000000000000000000000000000000000000006001600160a01b0316906390159c9490602401602060405180830381865afa1580156116e7573d6000803e3d6000fd5b505050506040513d601f19601f8201168201806040525081019061170b91906131e1565b61176a5760405162461bcd60e51b815260206004820152602a60248201527f4176617461723a2063616c6c6572206973206e6f742061207265676973746572604482015269656420636f6d70616e7960b01b60648201526084016106b0565b61177381612612565b8051604051630a22d5a160e21b81526000916001600160a01b037f0000000000000000000000000000000000000000000000000000000000000000169163288b5684916117c69160040190815260200190565b606060405180830381865afa1580156117e3573d6000803e3d6000fd5b505050506040513d601f19601f820116820180604052508101906118079190613412565b60408101519091501561184857600061182034476132c8565b905081604001518110156118465760405162461bcd60e51b81526004016106b0906132db565b505b6000611852611df5565b905060007f00000000000000000000000000000000000000000000000000000000000000006001600160a01b03166384c4484e846040015186600001516040518363ffffffff1660e01b81526004016118ad91815260200190565b60006040518083038185885af11580156118cb573d6000803e3d6000fd5b50505050506040513d6000823e601f3d908101601f191682016040526118f49190810190613367565b83516001840180546001600160a01b0319166001600160a01b0390921691909117905560405190915061192890829061339b565b6040518091039020836040015184600001516001600160a01b03167fe6b8160f723fcdb4c3cb8bf86e99d55e311c607a791f7503cc16dfaff3271e4360405160405180910390a450505050565b600080611980611df5565b600201546001600160a01b031692915050565b6060600061199f611df5565b90508060040180546115ff906133de565b6000806119bb611df5565b5461010090046001600160a01b031692915050565b60006119da611df5565b805490915061010090046001600160a01b03163314611a0b5760405162461bcd60e51b81526004016106b0906130e7565b6000611a15611df5565b905060048101611a2584826134b0565b5082604051611a34919061339b565b604051908190038120907fe8ed633186ac64f9f0ab9b48cb1cca12eebe0f7e0ffdc46908733a060363236690600090a2505050565b6000611a82611a7d368490038401846131fe565b612724565b92915050565b6000611a92611df5565b805490915061010090046001600160a01b03163314611ac35760405162461bcd60e51b81526004016106b0906130e7565b6000611acd611df5565b805460ff1916931515939093179092555050565b336001600160a01b037f00000000000000000000000000000000000000000000000000000000000000001614611b295760405162461bcd60e51b81526004016106b090613267565b6000611b33611df5565b805490915061010090046001600160a01b031615611b9f5760405162461bcd60e51b8152602060048201526024808201527f4176617461723a20636f6e747261637420616c726561647920696e697469616c6044820152631a5e995960e21b60648201526084016106b0565b600082806020019051810190611bb5919061356f565b90506000845111611c085760405162461bcd60e51b815260206004820181905260248201527f4176617461723a20757365726e616d652063616e6e6f7420626520656d70747960448201526064016106b0565b6001600160a01b038616611c6a5760405162461bcd60e51b8152602060048201526024808201527f4176617461723a206f776e65722063616e6e6f74206265207a65726f206164646044820152637265737360e01b60648201526084016106b0565b604051630262286360e41b81526001600160a01b0386811660048301527f00000000000000000000000000000000000000000000000000000000000000001690632622863090602401602060405180830381865afa158015611cd0573d6000803e3d6000fd5b505050506040513d601f19601f82011682018060405250810190611cf491906131e1565b611d665760405162461bcd60e51b815260206004820152603960248201527f4176617461723a2064656661756c7420657870657269656e6365206973206e6f60448201527f742061207265676973746572656420657870657269656e63650000000000000060648201526084016106b0565b60038201611d7485826134b0565b506001820180546001600160a01b0319166001600160a01b0387161790558051825460ff191690151517825560208101516004830190611db490826134b0565b505080546001600160a01b0390951661010002610100600160a81b031990951694909417909355505050565b600080611deb611df5565b6006015492915050565b7fd38682225e685e93013f8a112db34d1d514857ac4394636132822a0c0fe2045090565b6000611e23611df5565b905060c8816007016002015410611e6b5760405162461bcd60e51b815260206004820152600c60248201526b131a5cdd081a5cc8199d5b1b60a21b60448201526064016106b0565b81516001600160a01b0316611e925760405162461bcd60e51b81526004016106b0906135df565b6000826020015111611ed85760405162461bcd60e51b815260206004820152600f60248201526e125b9d985b1a59081d1bdad95b9259608a1b60448201526064016106b0565b8151602080840151604080516001600160a01b0390941684840152838101919091528051808403820181526060909301905281519101206000611f19611df5565b6000838152600a8201602052604090205490915060078201906001600160a01b031615611f885760405162461bcd60e51b815260206004820152601760248201527f4164647265737320616c726561647920696e206c69737400000000000000000060448201526064016106b0565b604080516060810182528681526001830154602082015260009181018290526002830154909103611fc25783825560018201849055611fe2565b600182018054600090815260038085016020526040909120018590558490555b60008481526003838101602090815260408084208551805182546001600160a01b0319166001600160a01b03909116178255830151600182015591850151600280840191909155908501519190920155830180549161204083613608565b9190505550505050505050565b60026000540361207057604051633ee5aeb560e01b815260040160405180910390fd5b6002600055565b604080516060810182526000808252602082018190528183015282519151630a22d5a160e21b81526004810192909252906001600160a01b037f0000000000000000000000000000000000000000000000000000000000000000169063288b568490602401606060405180830381865afa1580156120f9573d6000803e3d6000fd5b505050506040513d601f19601f8201168201806040525081019061211d9190613412565b9050600081600001516001600160a01b0316636904c94d6040518163ffffffff1660e01b8152600401602060405180830381865afa158015612163573d6000803e3d6000fd5b505050506040513d601f19601f8201168201806040525081019061218791906131c4565b90506000612193611df5565b6001600160a01b038316600090815260058201602052604081208054929350906121bc83613608565b9091555084516020808701516040805192830193909352918101919091526060810182905260009060800160408051808303601f19018152828252805160209182012081845283830190925290925060009190602082018180368337019050509050816020820152600061222f826127fd565b90506000612241828a60400151612838565b604051637df73e2760e01b81526001600160a01b03808316600483015291925090881690637df73e2790602401602060405180830381865afa15801561228b573d6000803e3d6000fd5b505050506040513d601f19601f820116820180604052508101906122af91906131e1565b61230c5760405162461bcd60e51b815260206004820152602860248201527f4176617461723a20636f6d70616e79207369676e6572206973206e6f742061756044820152671d1a1bdc9a5e995960c21b60648201526084016106b0565b50505050505050919050565b805160208201516001600160a01b0382166123455760405162461bcd60e51b81526004016106b0906135df565b600081116123885760405162461bcd60e51b815260206004820152601060248201526f125b9d985b1a59081d1bdad95b881a5960821b60448201526064016106b0565b604080516001600160a01b038416602082015290810182905260009060600160405160208183030381529060405280519060200120905060006123c9611df5565b6000838152600a8201602052604090205490915060078201906001600160a01b03166123f757505050505050565b600083815260038083016020908152604092839020835160a08101855281546001600160a01b0316606082019081526001830154608083015281526002820154928101839052920154928201929092529015612477578060400151826003016000836020015181526020019081526020016000206003018190555061247f565b604081015182555b6040810151156124ad57602080820151604080840151600090815260038601909352909120600201556124b8565b602081015160018301555b600084815260038084016020526040822080546001600160a01b0319168155600181018390556002808201849055910182905583018054916124f983613621565b919050555050505050505050565b60606000612513611df5565b90506000816007019050600081600201546001600160401b0381111561253b5761253b612d03565b60405190808252806020026020018201604052801561258057816020015b60408051808201909152600080825260208201528152602001906001900390816125595790505b50825490915060005b8360020154811015612608576000828152600385016020908152604091829020825180840190935280546001600160a01b03168352600101549082015283518490839081106125da576125da613638565b6020908102919091018101919091526000928352600380860190915260409092209091015490600101612589565b5090949350505050565b600061261c611df5565b600681018054919250600061263083613608565b9091555082516020808501516040805192830193909352918101919091526060810182905260009060800160408051808303601f1901815282825280516020918201208184528383019092529092506000919060208201818036833701905050905081602082015260006126a3826127fd565b905060006126b5828860400151612838565b86549091506001600160a01b038083166101009092041614610fa55760405162461bcd60e51b815260206004820152602260248201527f4176617461723a20617661746172207369676e6572206973206e6f74206f776e60448201526132b960f11b60648201526084016106b0565b80516020820151600091906001600160a01b0382166127555760405162461bcd60e51b81526004016106b0906135df565b600081116127985760405162461bcd60e51b815260206004820152601060248201526f125b9d985b1a59081d1bdad95b881a5960821b60448201526064016106b0565b604080516001600160a01b038416602082015290810182905260009060600160405160208183030381529060405280519060200120905060006127d9611df5565b6000928352600a016020525060409020546001600160a01b03161515949350505050565b60006128098251612858565b8260405160200161281b92919061364e565b604051602081830303815290604052805190602001209050919050565b60008060008061284886866128ea565b9250925092506126088282612937565b60606000612865836129f4565b60010190506000816001600160401b0381111561288457612884612d03565b6040519080825280601f01601f1916602001820160405280156128ae576020820181803683370190505b5090508181016020015b600019016f181899199a1a9b1b9c1cb0b131b232b360811b600a86061a8153600a85049450846128b857509392505050565b600080600083516041036129245760208401516040850151606086015160001a61291688828585612acc565b955095509550505050612930565b50508151600091506002905b9250925092565b600082600381111561294b5761294b6136a9565b03612954575050565b6001826003811115612968576129686136a9565b036129865760405163f645eedf60e01b815260040160405180910390fd5b600282600381111561299a5761299a6136a9565b036129bb5760405163fce698f760e01b8152600481018290526024016106b0565b60038260038111156129cf576129cf6136a9565b036129f0576040516335e2f38360e21b8152600481018290526024016106b0565b5050565b60008072184f03e93ff9f4daa797ed6e38ed64bf6a1f0160401b8310612a335772184f03e93ff9f4daa797ed6e38ed64bf6a1f0160401b830492506040015b6d04ee2d6d415b85acef81000000008310612a5f576d04ee2d6d415b85acef8100000000830492506020015b662386f26fc100008310612a7d57662386f26fc10000830492506010015b6305f5e1008310612a95576305f5e100830492506008015b6127108310612aa957612710830492506004015b60648310612abb576064830492506002015b600a8310611a825760010192915050565b600080807f7fffffffffffffffffffffffffffffff5d576e7357a4501ddfe92f46681b20a0841115612b075750600091506003905082612b91565b604080516000808252602082018084528a905260ff891692820192909252606081018790526080810186905260019060a0016020604051602081039080840390855afa158015612b5b573d6000803e3d6000fd5b5050604051601f1901519150506001600160a01b038116612b8757506000925060019150829050612b91565b9250600091508190505b9450945094915050565b6001600160a01b0381168114612bb057600080fd5b50565b600060208284031215612bc557600080fd5b8135612bd081612b9b565b9392505050565b600060408284031215612be957600080fd5b50919050565b60008083601f840112612c0157600080fd5b5081356001600160401b03811115612c1857600080fd5b602083019150836020828501011115612c3057600080fd5b9250929050565b600080600080600060808688031215612c4f57600080fd5b8535612c5a81612b9b565b94506020860135612c6a81612b9b565b93506040860135925060608601356001600160401b03811115612c8c57600080fd5b612c9888828901612bef565b969995985093965092949392505050565b60008060208385031215612cbc57600080fd5b82356001600160401b03811115612cd257600080fd5b612cde85828601612bef565b90969095509350505050565b600060208284031215612cfc57600080fd5b5035919050565b634e487b7160e01b600052604160045260246000fd5b604051606081016001600160401b0381118282101715612d3b57612d3b612d03565b60405290565b604080519081016001600160401b0381118282101715612d3b57612d3b612d03565b604051601f8201601f191681016001600160401b0381118282101715612d8b57612d8b612d03565b604052919050565b60006001600160401b03821115612dac57612dac612d03565b50601f01601f191660200190565b6000612dcd612dc884612d93565b612d63565b9050828152838383011115612de157600080fd5b828260208301376000602084830101529392505050565b600082601f830112612e0957600080fd5b612bd083833560208501612dba565b600060608284031215612e2a57600080fd5b612e32612d19565b9050813581526020820135602082015260408201356001600160401b03811115612e5b57600080fd5b612e6784828501612df8565b60408301525092915050565b600060208284031215612e8557600080fd5b81356001600160401b03811115612e9b57600080fd5b612ea784828501612e18565b949350505050565b8015158114612bb057600080fd5b600060208284031215612ecf57600080fd5b81356001600160401b0380821115612ee657600080fd5b9083019060408286031215612efa57600080fd5b612f02612d41565b8235612f0d81612eaf565b8152602083013582811115612f2157600080fd5b612f2d87828601612df8565b60208301525095945050505050565b60005b83811015612f57578181015183820152602001612f3f565b50506000910152565b60008151808452612f78816020860160208601612f3c565b601f01601f19169290920160200192915050565b602081526000612bd06020830184612f60565b602080825282518282018190526000919060409081850190868401855b82811015612fea57815180516001600160a01b03168552860151868501529284019290850190600101612fbc565b5091979650505050505050565b60006020828403121561300957600080fd5b81356001600160401b0381111561301f57600080fd5b612ea784828501612df8565b60006020828403121561303d57600080fd5b8135612bd081612eaf565b6000806000806080858703121561305e57600080fd5b843561306981612b9b565b9350602085013561307981612b9b565b925060408501356001600160401b038082111561309557600080fd5b818701915087601f8301126130a957600080fd5b6130b888833560208501612dba565b935060608701359150808211156130ce57600080fd5b506130db87828801612df8565b91505092959194509250565b60208082526029908201527f4176617461723a206f6e6c79206f776e65722063616e2063616c6c207468697360408201526810333ab731ba34b7b760b91b606082015260800190565b6020808252602d908201527f4176617461723a207765617261626c652061737365742063616e6e6f7420626560408201526c207a65726f206164647265737360981b606082015260800190565b60208082526027908201527f4176617461723a207765617261626c6520746f6b656e49642063616e6e6f74206040820152666265207a65726f60c81b606082015260800190565b6000602082840312156131d657600080fd5b8151612bd081612b9b565b6000602082840312156131f357600080fd5b8151612bd081612eaf565b60006040828403121561321057600080fd5b613218612d41565b823561322381612b9b565b81526020928301359281019290925250919050565b60208152816020820152818360408301376000818301604090810191909152601f909201601f19160101919050565b6020808252602b908201527f4176617461723a206f6e6c7920666163746f72792063616e2063616c6c20746860408201526a34b990333ab731ba34b7b760a91b606082015260800190565b634e487b7160e01b600052601160045260246000fd5b80820180821115611a8257611a826132b2565b60208082526027908201527f4176617461723a20696e73756666696369656e742066756e647320666f72206a604082015266756d702066656560c81b606082015260800190565b600082601f83011261333357600080fd5b8151613341612dc882612d93565b81815284602083860101111561335657600080fd5b612ea7826020830160208701612f3c565b60006020828403121561337957600080fd5b81516001600160401b0381111561338f57600080fd5b612ea784828501613322565b600082516133ad818460208701612f3c565b9190910192915050565b6020815281511515602082015260006020830151604080840152612ea76060840182612f60565b600181811c908216806133f257607f821691505b602082108103612be957634e487b7160e01b600052602260045260246000fd5b60006060828403121561342457600080fd5b61342c612d19565b825161343781612b9b565b8152602083015161344781612b9b565b60208201526040928301519281019290925250919050565b601f8211156134ab576000816000526020600020601f850160051c810160208610156134885750805b601f850160051c820191505b818110156134a757828155600101613494565b5050505b505050565b81516001600160401b038111156134c9576134c9612d03565b6134dd816134d784546133de565b8461345f565b602080601f83116001811461351257600084156134fa5750858301515b600019600386901b1c1916600185901b1785556134a7565b600085815260208120601f198616915b8281101561354157888601518255948401946001909101908401613522565b508582101561355f5787850151600019600388901b60f8161c191681555b5050505050600190811b01905550565b60006020828403121561358157600080fd5b81516001600160401b038082111561359857600080fd5b90830190604082860312156135ac57600080fd5b6135b4612d41565b82516135bf81612eaf565b81526020830151828111156135d357600080fd5b612f2d87828601613322565b6020808252600f908201526e496e76616c6964206164647265737360881b604082015260600190565b60006001820161361a5761361a6132b2565b5060010190565b600081613630576136306132b2565b506000190190565b634e487b7160e01b600052603260045260246000fd5b7f19457468657265756d205369676e6564204d6573736167653a0a00000000000081526000835161368681601a850160208801612f3c565b83519083019061369d81601a840160208801612f3c565b01601a01949350505050565b634e487b7160e01b600052602160045260246000fdfea2646970667358221220eac0cb1ac09b5eb220b253eaf73170279df94d84b1d9a2139663620b0d30e5e364736f6c63430008180033",
  "linkReferences": {},
  "deployedLinkReferences": {}
}