{
  "_format": "hh-sol-artifact-1",
  "contractName": "Avatar",
  "sourceName": "contracts/avatar/Avatar.sol",
  "abi": [
    {
      "inputs": [
        {
          "components": [
            {
              "internalType": "address",
              "name": "avatarFactory",
              "type": "address"
            },
            {
              "internalType": "address",
              "name": "avatarRegistry",
              "type": "address"
            },
            {
              "internalType": "address",
              "name": "experienceRegistry",
              "type": "address"
            },
            {
              "internalType": "address",
              "name": "portalRegistry",
              "type": "address"
            },
            {
              "internalType": "address",
              "name": "companyRegistry",
              "type": "address"
            }
          ],
          "internalType": "struct BaseContructorArgs",
          "name": "args",
          "type": "tuple"
        }
      ],
      "stateMutability": "nonpayable",
      "type": "constructor"
    },
    {
      "inputs": [],
      "name": "ECDSAInvalidSignature",
      "type": "error"
    },
    {
      "inputs": [
        {
          "internalType": "uint256",
          "name": "length",
          "type": "uint256"
        }
      ],
      "name": "ECDSAInvalidSignatureLength",
      "type": "error"
    },
    {
      "inputs": [
        {
          "internalType": "bytes32",
          "name": "s",
          "type": "bytes32"
        }
      ],
      "name": "ECDSAInvalidSignatureS",
      "type": "error"
    },
    {
      "inputs": [],
      "name": "ReentrancyGuardReentrantCall",
      "type": "error"
    },
    {
      "anonymous": false,
      "inputs": [
        {
          "indexed": true,
          "internalType": "bytes",
          "name": "appearanceDetails",
          "type": "bytes"
        }
      ],
      "name": "AppearanceChanged",
      "type": "event"
    },
    {
      "anonymous": false,
      "inputs": [
        {
          "indexed": true,
          "internalType": "address",
          "name": "oldVersion",
          "type": "address"
        },
        {
          "indexed": true,
          "internalType": "address",
          "name": "nextVersion",
          "type": "address"
        }
      ],
      "name": "AvatarUpgraded",
      "type": "event"
    },
    {
      "anonymous": false,
      "inputs": [],
      "name": "HookRemoved",
      "type": "event"
    },
    {
      "anonymous": false,
      "inputs": [
        {
          "indexed": true,
          "internalType": "address",
          "name": "hook",
          "type": "address"
        }
      ],
      "name": "HookSet",
      "type": "event"
    },
    {
      "anonymous": false,
      "inputs": [
        {
          "indexed": true,
          "internalType": "address",
          "name": "experience",
          "type": "address"
        },
        {
          "indexed": true,
          "internalType": "bytes",
          "name": "connectionDetails",
          "type": "bytes"
        }
      ],
      "name": "JumpSuccess",
      "type": "event"
    },
    {
      "anonymous": false,
      "inputs": [
        {
          "indexed": true,
          "internalType": "address",
          "name": "location",
          "type": "address"
        }
      ],
      "name": "LocationChanged",
      "type": "event"
    },
    {
      "anonymous": false,
      "inputs": [
        {
          "indexed": true,
          "internalType": "address",
          "name": "signer",
          "type": "address"
        }
      ],
      "name": "SignerAdded",
      "type": "event"
    },
    {
      "anonymous": false,
      "inputs": [
        {
          "indexed": true,
          "internalType": "address",
          "name": "signer",
          "type": "address"
        }
      ],
      "name": "SignerRemoved",
      "type": "event"
    },
    {
      "anonymous": false,
      "inputs": [
        {
          "indexed": true,
          "internalType": "address",
          "name": "wearable",
          "type": "address"
        },
        {
          "indexed": false,
          "internalType": "uint256",
          "name": "tokenId",
          "type": "uint256"
        }
      ],
      "name": "WearableAdded",
      "type": "event"
    },
    {
      "anonymous": false,
      "inputs": [
        {
          "indexed": true,
          "internalType": "address",
          "name": "wearable",
          "type": "address"
        },
        {
          "indexed": false,
          "internalType": "uint256",
          "name": "tokenId",
          "type": "uint256"
        }
      ],
      "name": "WearableRemoved",
      "type": "event"
    },
    {
      "inputs": [],
      "name": "MAX_SIZE",
      "outputs": [
        {
          "internalType": "uint256",
          "name": "",
          "type": "uint256"
        }
      ],
      "stateMutability": "view",
      "type": "function"
    },
    {
      "inputs": [
        {
          "components": [
            {
              "internalType": "address",
              "name": "asset",
              "type": "address"
            },
            {
              "internalType": "uint256",
              "name": "tokenId",
              "type": "uint256"
            }
          ],
          "internalType": "struct Wearable",
          "name": "wearable",
          "type": "tuple"
        }
      ],
      "name": "addWearable",
      "outputs": [],
      "stateMutability": "nonpayable",
      "type": "function"
    },
    {
      "inputs": [],
      "name": "appearanceDetails",
      "outputs": [
        {
          "internalType": "bytes",
          "name": "",
          "type": "bytes"
        }
      ],
      "stateMutability": "view",
      "type": "function"
    },
    {
      "inputs": [],
      "name": "avatarFactory",
      "outputs": [
        {
          "internalType": "address",
          "name": "",
          "type": "address"
        }
      ],
      "stateMutability": "view",
      "type": "function"
    },
    {
      "inputs": [],
      "name": "avatarOwnerSigningNonce",
      "outputs": [
        {
          "internalType": "uint256",
          "name": "",
          "type": "uint256"
        }
      ],
      "stateMutability": "view",
      "type": "function"
    },
    {
      "inputs": [],
      "name": "avatarRegistry",
      "outputs": [
        {
          "internalType": "contract IAvatarRegistry",
          "name": "",
          "type": "address"
        }
      ],
      "stateMutability": "view",
      "type": "function"
    },
    {
      "inputs": [],
      "name": "canReceiveTokensOutsideOfExperience",
      "outputs": [
        {
          "internalType": "bool",
          "name": "",
          "type": "bool"
        }
      ],
      "stateMutability": "view",
      "type": "function"
    },
    {
      "inputs": [],
      "name": "companyRegistry",
      "outputs": [
        {
          "internalType": "contract ICompanyRegistry",
          "name": "",
          "type": "address"
        }
      ],
      "stateMutability": "view",
      "type": "function"
    },
    {
      "inputs": [
        {
          "internalType": "address",
          "name": "company",
          "type": "address"
        }
      ],
      "name": "companySigningNonce",
      "outputs": [
        {
          "internalType": "uint256",
          "name": "",
          "type": "uint256"
        }
      ],
      "stateMutability": "view",
      "type": "function"
    },
    {
      "inputs": [
        {
          "components": [
            {
              "internalType": "uint256",
              "name": "portalId",
              "type": "uint256"
            },
            {
              "internalType": "uint256",
              "name": "agreedFee",
              "type": "uint256"
            },
            {
              "internalType": "bytes",
              "name": "avatarOwnerSignature",
              "type": "bytes"
            }
          ],
          "internalType": "struct DelegatedJumpRequest",
          "name": "request",
          "type": "tuple"
        }
      ],
      "name": "delegateJump",
      "outputs": [],
      "stateMutability": "payable",
      "type": "function"
    },
    {
      "inputs": [
        {
          "components": [
            {
              "internalType": "bool",
              "name": "canReceiveTokensOutsideOfExperience",
              "type": "bool"
            },
            {
              "internalType": "bytes",
              "name": "appearanceDetails",
              "type": "bytes"
            }
          ],
          "internalType": "struct AvatarInitData",
          "name": "data",
          "type": "tuple"
        }
      ],
      "name": "encodeInitData",
      "outputs": [
        {
          "internalType": "bytes",
          "name": "",
          "type": "bytes"
        }
      ],
      "stateMutability": "pure",
      "type": "function"
    },
    {
      "inputs": [],
      "name": "experienceRegistry",
      "outputs": [
        {
          "internalType": "contract IExperienceRegistry",
          "name": "",
          "type": "address"
        }
      ],
      "stateMutability": "view",
      "type": "function"
    },
    {
      "inputs": [],
      "name": "getWearables",
      "outputs": [
        {
          "components": [
            {
              "internalType": "address",
              "name": "asset",
              "type": "address"
            },
            {
              "internalType": "uint256",
              "name": "tokenId",
              "type": "uint256"
            }
          ],
          "internalType": "struct Wearable[]",
          "name": "",
          "type": "tuple[]"
        }
      ],
      "stateMutability": "view",
      "type": "function"
    },
    {
      "inputs": [],
      "name": "hook",
      "outputs": [
        {
          "internalType": "contract IAvatarHook",
          "name": "",
          "type": "address"
        }
      ],
      "stateMutability": "view",
      "type": "function"
    },
    {
      "inputs": [
        {
          "internalType": "address",
          "name": "_owner",
          "type": "address"
        },
        {
          "internalType": "address",
          "name": "defaultExperience",
          "type": "address"
        },
        {
          "internalType": "string",
          "name": "_name",
          "type": "string"
        },
        {
          "internalType": "bytes",
          "name": "initData",
          "type": "bytes"
        }
      ],
      "name": "init",
      "outputs": [],
      "stateMutability": "nonpayable",
      "type": "function"
    },
    {
      "inputs": [
        {
          "components": [
            {
              "internalType": "address",
              "name": "asset",
              "type": "address"
            },
            {
              "internalType": "uint256",
              "name": "tokenId",
              "type": "uint256"
            }
          ],
          "internalType": "struct Wearable",
          "name": "wearable",
          "type": "tuple"
        }
      ],
      "name": "isWearing",
      "outputs": [
        {
          "internalType": "bool",
          "name": "",
          "type": "bool"
        }
      ],
      "stateMutability": "view",
      "type": "function"
    },
    {
      "inputs": [
        {
          "components": [
            {
              "internalType": "uint256",
              "name": "portalId",
              "type": "uint256"
            },
            {
              "internalType": "uint256",
              "name": "agreedFee",
              "type": "uint256"
            },
            {
              "internalType": "bytes",
              "name": "destinationCompanySignature",
              "type": "bytes"
            }
          ],
          "internalType": "struct AvatarJumpRequest",
          "name": "request",
          "type": "tuple"
        }
      ],
      "name": "jump",
      "outputs": [],
      "stateMutability": "payable",
      "type": "function"
    },
    {
      "inputs": [],
      "name": "location",
      "outputs": [
        {
          "internalType": "contract IExperience",
          "name": "",
          "type": "address"
        }
      ],
      "stateMutability": "view",
      "type": "function"
    },
    {
      "inputs": [
        {
          "internalType": "address",
          "name": "",
          "type": "address"
        },
        {
          "internalType": "address",
          "name": "",
          "type": "address"
        },
        {
          "internalType": "uint256",
          "name": "tokenId",
          "type": "uint256"
        },
        {
          "internalType": "bytes",
          "name": "",
          "type": "bytes"
        }
      ],
      "name": "onERC721Received",
      "outputs": [
        {
          "internalType": "bytes4",
          "name": "",
          "type": "bytes4"
        }
      ],
      "stateMutability": "nonpayable",
      "type": "function"
    },
    {
      "inputs": [],
      "name": "owner",
      "outputs": [
        {
          "internalType": "address",
          "name": "",
          "type": "address"
        }
      ],
      "stateMutability": "view",
      "type": "function"
    },
    {
      "inputs": [],
      "name": "portalRegistry",
      "outputs": [
        {
          "internalType": "contract IPortalRegistry",
          "name": "",
          "type": "address"
        }
      ],
      "stateMutability": "view",
      "type": "function"
    },
    {
      "inputs": [],
      "name": "removeHook",
      "outputs": [],
      "stateMutability": "nonpayable",
      "type": "function"
    },
    {
      "inputs": [
        {
          "components": [
            {
              "internalType": "address",
              "name": "asset",
              "type": "address"
            },
            {
              "internalType": "uint256",
              "name": "tokenId",
              "type": "uint256"
            }
          ],
          "internalType": "struct Wearable",
          "name": "wearable",
          "type": "tuple"
        }
      ],
      "name": "removeWearable",
      "outputs": [],
      "stateMutability": "nonpayable",
      "type": "function"
    },
    {
      "inputs": [
        {
          "internalType": "bytes",
          "name": "details",
          "type": "bytes"
        }
      ],
      "name": "setAppearanceDetails",
      "outputs": [],
      "stateMutability": "nonpayable",
      "type": "function"
    },
    {
      "inputs": [
        {
          "internalType": "bool",
          "name": "canReceive",
          "type": "bool"
        }
      ],
      "name": "setCanReceiveTokensOutsideOfExperience",
      "outputs": [],
      "stateMutability": "nonpayable",
      "type": "function"
    },
    {
      "inputs": [
        {
          "internalType": "contract IAvatarHook",
          "name": "_hook",
          "type": "address"
        }
      ],
      "name": "setHook",
      "outputs": [],
      "stateMutability": "nonpayable",
      "type": "function"
    },
    {
      "inputs": [
        {
          "internalType": "bytes",
          "name": "initData",
          "type": "bytes"
        }
      ],
      "name": "upgrade",
      "outputs": [],
      "stateMutability": "nonpayable",
      "type": "function"
    },
    {
      "inputs": [
        {
          "internalType": "address",
          "name": "nextVersion",
          "type": "address"
        }
      ],
      "name": "upgradeComplete",
      "outputs": [],
      "stateMutability": "nonpayable",
      "type": "function"
    },
    {
      "inputs": [],
      "name": "upgraded",
      "outputs": [
        {
          "internalType": "bool",
          "name": "",
          "type": "bool"
        }
      ],
      "stateMutability": "view",
      "type": "function"
    },
    {
      "inputs": [],
      "name": "username",
      "outputs": [
        {
          "internalType": "string",
          "name": "",
          "type": "string"
        }
      ],
      "stateMutability": "view",
      "type": "function"
    },
    {
      "inputs": [],
      "name": "version",
      "outputs": [
        {
          "internalType": "string",
          "name": "",
          "type": "string"
        }
      ],
      "stateMutability": "view",
      "type": "function"
    },
    {
      "inputs": [
        {
          "internalType": "uint256",
          "name": "amount",
          "type": "uint256"
        }
      ],
      "name": "withdraw",
      "outputs": [],
      "stateMutability": "nonpayable",
      "type": "function"
    },
    {
      "stateMutability": "payable",
      "type": "receive"
    }
  ],
  "bytecode": "0x6101206040523480156200001257600080fd5b50604051620036f4380380620036f48339810160408190526200003591620002da565b600160005580516001600160a01b0316620000ad5760405162461bcd60e51b815260206004820152602d60248201527f4176617461723a2061766174617220666163746f72792063616e6e6f7420626560448201526c207a65726f206164647265737360981b60648201526084015b60405180910390fd5b60408101516001600160a01b0316620001245760405162461bcd60e51b815260206004820152603260248201527f4176617461723a20657870657269656e63652072656769737472792063616e6e6044820152716f74206265207a65726f206164647265737360701b6064820152608401620000a4565b60608101516001600160a01b0316620001975760405162461bcd60e51b815260206004820152602e60248201527f4176617461723a20706f7274616c2072656769737472792063616e6e6f74206260448201526d65207a65726f206164647265737360901b6064820152608401620000a4565b60808101516001600160a01b03166200020b5760405162461bcd60e51b815260206004820152602f60248201527f4176617461723a20636f6d70616e792072656769737472792063616e6e6f742060448201526e6265207a65726f206164647265737360881b6064820152608401620000a4565b60208101516001600160a01b03166200027e5760405162461bcd60e51b815260206004820152602e60248201527f4176617461723a206176617461722072656769737472792063616e6e6f74206260448201526d65207a65726f206164647265737360901b6064820152608401620000a4565b80516001600160a01b0390811660809081526040830151821660c0526060830151821660e0528201518116610100526020909101511660a05262000381565b80516001600160a01b0381168114620002d557600080fd5b919050565b600060a08284031215620002ed57600080fd5b60405160a081016001600160401b03811182821017156200031e57634e487b7160e01b600052604160045260246000fd5b6040526200032c83620002bd565b81526200033c60208401620002bd565b60208201526200034f60408401620002bd565b60408201526200036260608401620002bd565b60608201526200037560808401620002bd565b60808201529392505050565b60805160a05160c05160e051610100516132ef62000405600039600081816105b801526111b301526000818161056f01528181610e4f015281816112a1015281816113a80152611c6c0152600081816104db015261181c0152600081816105ec01528181610a650152610ae001526000818161042b015261163a01526132ef6000f3fe6080604052600436106101e75760003560e01c806361fac54d116101025780639be17fbc11610095578063c51aba2b11610064578063c51aba2b146105a6578063e3d7ad73146105da578063e427535c1461060e578063f890d7c91461062e57600080fd5b80639be17fbc1461051d5780639d870bf61461053d578063b66649341461055d578063c28de2cd1461059157600080fd5b80638d67799e116100d15780638d67799e1461049f5780638da5cb5b146104b45780638f09a6be146104c9578063949a1ddc146104fd57600080fd5b806361fac54d1461044d5780637dc759e5146104625780637f5a7c7b146104755780638970220e1461048a57600080fd5b8063392f56691161017a57806354cf0b391161014957806354cf0b39146103a857806354fd4d50146103c85780635cf59e1e146103f757806360e741e81461041957600080fd5b8063392f56691461031b5780633dfd38731461032e57806340ac3f0b1461034e578063516f279e1461037b57600080fd5b806325394645116101b657806325394645146102a65780632663d1f7146102c65780632e1a7d4d146102e6578063378f17ff1461030657600080fd5b806303f7d3ba146101f357806312deb11a14610226578063150b7a0214610248578063181d939b1461028157600080fd5b366101ee57005b600080fd5b3480156101ff57600080fd5b5061021361020e366004612832565b610643565b6040519081526020015b60405180910390f35b34801561023257600080fd5b50610246610241366004612856565b610670565b005b34801561025457600080fd5b506102686102633660046128b6565b610899565b6040516001600160e01b0319909116815260200161021d565b34801561028d57600080fd5b506102966109af565b604051901515815260200161021d565b3480156102b257600080fd5b506102466102c1366004612928565b6109c4565b3480156102d257600080fd5b506102466102e1366004612832565b610ad5565b3480156102f257600080fd5b50610246610301366004612969565b610bcd565b34801561031257600080fd5b50610246610cbd565b610246610329366004612af2565b610d45565b34801561033a57600080fd5b50610246610349366004612832565b610f19565b34801561035a57600080fd5b5061036e610369366004612b3c565b611013565b60405161021d9190612c0b565b34801561038757600080fd5b5061039061103c565b6040516001600160a01b03909116815260200161021d565b3480156103b457600080fd5b506102466103c3366004612856565b61105a565b3480156103d457600080fd5b5061036e60405180604001604052806003815260200162302e3160e81b81525081565b34801561040357600080fd5b5061040c6110b1565b60405161021d9190612c1e565b34801561042557600080fd5b506103907f000000000000000000000000000000000000000000000000000000000000000081565b34801561045957600080fd5b5061036e6110c0565b610246610470366004612af2565b611161565b34801561048157600080fd5b50610390611471565b34801561049657600080fd5b5061036e61148f565b3480156104ab57600080fd5b5061021360c881565b3480156104c057600080fd5b506103906114ac565b3480156104d557600080fd5b506103907f000000000000000000000000000000000000000000000000000000000000000081565b34801561050957600080fd5b50610246610518366004612c76565b6114cd565b34801561052957600080fd5b50610296610538366004612856565b61159c565b34801561054957600080fd5b50610246610558366004612caa565b6115bb565b34801561056957600080fd5b506103907f000000000000000000000000000000000000000000000000000000000000000081565b34801561059d57600080fd5b50610296611615565b3480156105b257600080fd5b506103907f000000000000000000000000000000000000000000000000000000000000000081565b3480156105e657600080fd5b506103907f000000000000000000000000000000000000000000000000000000000000000081565b34801561061a57600080fd5b50610246610629366004612cc7565b61162f565b34801561063a57600080fd5b5061021361197f565b60008061064e611994565b6001600160a01b03909316600090815260059093016020525050604090205490565b600061067a611994565b80549091506201000090046001600160a01b031633146106b55760405162461bcd60e51b81526004016106ac90612d66565b60405180910390fd5b60006106c46020840184612832565b6001600160a01b0316036107305760405162461bcd60e51b815260206004820152602d60248201527f4176617461723a207765617261626c652061737365742063616e6e6f7420626560448201526c207a65726f206164647265737360981b60648201526084016106ac565b60008260200135116107945760405162461bcd60e51b815260206004820152602760248201527f4176617461723a207765617261626c6520746f6b656e49642063616e6e6f74206044820152666265207a65726f60c81b60648201526084016106ac565b60006107a36020840184612832565b6040516331a9108f60e11b81526020850135600482015290915030906001600160a01b03831690636352211e90602401602060405180830381865afa1580156107f0573d6000803e3d6000fd5b505050506040513d601f19601f820116820180604052508101906108149190612daf565b6001600160a01b03161461087d5760405162461bcd60e51b815260206004820152602a60248201527f4176617461723a207765617261626c6520746f6b656e206e6f74206f776e656460448201526910313c9030bb30ba30b960b11b60648201526084016106ac565b61089461088f36859003850185612dcc565b6119b8565b505050565b60006108a3611c07565b60006108ad611994565b60028101549091506001600160a01b031615610997576002810154604051631d9a6bd160e11b8152306004820152336024820152604481018790526001600160a01b0390911690633b34d7a2906064016020604051808303816000875af115801561091c573d6000803e3d6000fd5b505050506040513d601f19601f820116820180604052508101906109409190612e06565b6109975760405162461bcd60e51b815260206004820152602260248201527f4176617461723a20686f6f6b2072656a65637465642045524337323120746f6b60448201526132b760f11b60648201526084016106ac565b50506001600055630a85bd0160e11b95945050505050565b6000806109ba611994565b5460ff1692915050565b60006109ce611994565b80549091506201000090046001600160a01b03163314610a005760405162461bcd60e51b81526004016106ac90612d66565b6000610a0a611994565b8054909150610100900460ff1615610a345760405162461bcd60e51b81526004016106ac90612e23565b6000610a3e611994565b805461ff00191661010017815560405163612ca62160e01b81529091506001600160a01b037f0000000000000000000000000000000000000000000000000000000000000000169063612ca62190610a9c9088908890600401612e65565b600060405180830381600087803b158015610ab657600080fd5b505af1158015610aca573d6000803e3d6000fd5b505050505050505050565b336001600160a01b037f00000000000000000000000000000000000000000000000000000000000000001614610b625760405162461bcd60e51b815260206004820152602c60248201527f4176617461723a206f6e6c792072656769737472792063616e2063616c6c207460448201526b3434b990333ab731ba34b7b760a11b60648201526084016106ac565b7f1f07e7b49187e1cf67924ca1fa35732211c5bb2c23b6b53ee47453438de7285e80546001600160a01b0319166001600160a01b038316908117825560405130907f722ee95a7e2eed3235f2e3bdb62d3f6e70079578905580fbf8bb414519dd617290600090a35050565b6000610bd7611994565b80549091506201000090046001600160a01b03163314610c095760405162461bcd60e51b81526004016106ac90612d66565b47821115610c6d5760405162461bcd60e51b815260206004820152602b60248201527f4176617461723a20696e73756666696369656e742062616c616e636520666f7260448201526a081dda5d1a191c985dd85b60aa1b60648201526084016106ac565b6000610c77611994565b80546040519192506001600160a01b036201000090910416904780156108fc02916000818181858888f19350505050158015610cb7573d6000803e3d6000fd5b50505050565b6000610cc7611994565b80549091506201000090046001600160a01b03163314610cf95760405162461bcd60e51b81526004016106ac90612d66565b6000610d03611994565b6002810180546001600160a01b03191690556040519091507f4abf6d25887ff6b78026f569f956b6d57d5b92cecf0ee91d897ec98e47f656a390600090a15050565b6000610d4f611994565b80549091506201000090046001600160a01b03163314610d815760405162461bcd60e51b81526004016106ac90612d66565b6000610d8b611994565b8054909150610100900460ff1615610db55760405162461bcd60e51b81526004016106ac90612e23565b6000610dc084611c31565b604081015190915015610e01576000610dd93447612eaa565b90508160400151811015610dff5760405162461bcd60e51b81526004016106ac90612ebd565b505b6000610e0b611994565b82516001820180546001600160a01b0319166001600160a01b0392831617905560408085015188519151634262242760e11b815260048101929092529293506000927f0000000000000000000000000000000000000000000000000000000000000000909216916384c4484e9160240160006040518083038185885af1158015610e99573d6000803e3d6000fd5b50505050506040513d6000823e601f3d908101601f19168201604052610ec29190810190612f49565b905080604051610ed29190612f7d565b604051908190038120845190916001600160a01b03909116907fcd8891f0f6646f626691b6b01d94acf17b618e864d038a69d61bc6593fca0bd790600090a3505050505050565b6000610f23611994565b80549091506201000090046001600160a01b03163314610f555760405162461bcd60e51b81526004016106ac90612d66565b6001600160a01b038216610fb75760405162461bcd60e51b815260206004820152602360248201527f4176617461723a20686f6f6b2063616e6e6f74206265207a65726f206164647260448201526265737360e81b60648201526084016106ac565b6000610fc1611994565b6002810180546001600160a01b0319166001600160a01b038616908117909155604051919250907f4eab7b127c764308788622363ad3e9532de3dfba7845bd4f84c125a22544255a90600090a2505050565b6060816040516020016110269190612f99565b6040516020818303038152906040529050919050565b600080611047611994565b600101546001600160a01b031692915050565b6000611064611994565b80549091506201000090046001600160a01b031633146110965760405162461bcd60e51b81526004016106ac90612d66565b6110ad6110a836849003840184612dcc565b611ed2565b5050565b60606110bb6120c1565b905090565b606060006110cc611994565b90508060030180546110dd90612fc0565b80601f016020809104026020016040519081016040528092919081815260200182805461110990612fc0565b80156111565780601f1061112b57610100808354040283529160200191611156565b820191906000526020600020905b81548152906001019060200180831161113957829003601f168201915b505050505091505090565b600061116b611994565b8054909150610100900460ff16156111955760405162461bcd60e51b81526004016106ac90612e23565b61119e826121cc565b604051632405672560e21b81523360048201527f00000000000000000000000000000000000000000000000000000000000000006001600160a01b0316906390159c9490602401602060405180830381865afa158015611202573d6000803e3d6000fd5b505050506040513d601f19601f820116820180604052508101906112269190612e06565b6112855760405162461bcd60e51b815260206004820152602a60248201527f4176617461723a2063616c6c6572206973206e6f742061207265676973746572604482015269656420636f6d70616e7960b01b60648201526084016106ac565b8151604051630a22d5a160e21b81526000916001600160a01b037f0000000000000000000000000000000000000000000000000000000000000000169163288b5684916112d89160040190815260200190565b606060405180830381865afa1580156112f5573d6000803e3d6000fd5b505050506040513d601f19601f820116820180604052508101906113199190612ff4565b60408101519091501561135a5760006113323447612eaa565b905081604001518110156113585760405162461bcd60e51b81526004016106ac90612ebd565b505b6000611364611994565b82516001820180546001600160a01b0319166001600160a01b0392831617905560408085015187519151634262242760e11b815260048101929092529293506000927f0000000000000000000000000000000000000000000000000000000000000000909216916384c4484e9160240160006040518083038185885af11580156113f2573d6000803e3d6000fd5b50505050506040513d6000823e601f3d908101601f1916820160405261141b9190810190612f49565b90508060405161142b9190612f7d565b604051908190038120845190916001600160a01b03909116907fcd8891f0f6646f626691b6b01d94acf17b618e864d038a69d61bc6593fca0bd790600090a35050505050565b60008061147c611994565b600201546001600160a01b031692915050565b6060600061149b611994565b90508060040180546110dd90612fc0565b6000806114b7611994565b546201000090046001600160a01b031692915050565b60006114d7611994565b80549091506201000090046001600160a01b031633146115095760405162461bcd60e51b81526004016106ac90612d66565b6000611513611994565b8054909150610100900460ff161561153d5760405162461bcd60e51b81526004016106ac90612e23565b6000611547611994565b9050600481016115578582613091565b50836040516115669190612f7d565b604051908190038120907fe8ed633186ac64f9f0ab9b48cb1cca12eebe0f7e0ffdc46908733a060363236690600090a250505050565b60006115b56115b036849003840184612dcc565b6122e8565b92915050565b60006115c5611994565b80549091506201000090046001600160a01b031633146115f75760405162461bcd60e51b81526004016106ac90612d66565b6000611601611994565b805460ff1916931515939093179092555050565b600080611620611994565b54610100900460ff1692915050565b336001600160a01b037f000000000000000000000000000000000000000000000000000000000000000016146116bb5760405162461bcd60e51b815260206004820152602b60248201527f4176617461723a206f6e6c7920666163746f72792063616e2063616c6c20746860448201526a34b990333ab731ba34b7b760a91b60648201526084016106ac565b60006116c5611994565b80549091506201000090046001600160a01b0316156117325760405162461bcd60e51b8152602060048201526024808201527f4176617461723a20636f6e747261637420616c726561647920696e697469616c6044820152631a5e995960e21b60648201526084016106ac565b6000828060200190518101906117489190613150565b9050600084511161179b5760405162461bcd60e51b815260206004820181905260248201527f4176617461723a20757365726e616d652063616e6e6f7420626520656d70747960448201526064016106ac565b6001600160a01b0386166117fd5760405162461bcd60e51b8152602060048201526024808201527f4176617461723a206f776e65722063616e6e6f74206265207a65726f206164646044820152637265737360e01b60648201526084016106ac565b604051630262286360e41b81526001600160a01b0386811660048301527f00000000000000000000000000000000000000000000000000000000000000001690632622863090602401602060405180830381865afa158015611863573d6000803e3d6000fd5b505050506040513d601f19601f820116820180604052508101906118879190612e06565b6118f95760405162461bcd60e51b815260206004820152603960248201527f4176617461723a2064656661756c7420657870657269656e6365206973206e6f60448201527f742061207265676973746572656420657870657269656e63650000000000000060648201526084016106ac565b611902846123c1565b60038301906119119082613091565b506001820180546001600160a01b0319166001600160a01b0387161790558051825460ff1916901515178255602081015160048301906119519082613091565b505080546001600160a01b03909516620100000262010000600160b01b031990951694909417909355505050565b60008061198a611994565b6006015492915050565b7fd38682225e685e93013f8a112db34d1d514857ac4394636132822a0c0fe2045090565b60006119c2611994565b905060c8816007016002015410611a0a5760405162461bcd60e51b815260206004820152600c60248201526b131a5cdd081a5cc8199d5b1b60a21b60448201526064016106ac565b81516001600160a01b0316611a315760405162461bcd60e51b81526004016106ac906131c0565b6000826020015111611a775760405162461bcd60e51b815260206004820152600f60248201526e125b9d985b1a59081d1bdad95b9259608a1b60448201526064016106ac565b600082600001518360200151604051602001611ab192919060609290921b6bffffffffffffffffffffffff19168252601482015260340190565b6040516020818303038152906040528051906020012090506000611ad3611994565b6000838152600a8201602052604090205490915060078201906001600160a01b031615611b425760405162461bcd60e51b815260206004820152601760248201527f4164647265737320616c726561647920696e206c69737400000000000000000060448201526064016106ac565b604080516060810182528681526001830154602082015260009181018290526002830154909103611b7c5783825560018201849055611b9c565b600182018054600090815260038085016020526040909120018590558490555b60008481526003838101602090815260408084208551805182546001600160a01b0319166001600160a01b039091161782558301516001820155918501516002808401919091559085015191909201558301805491611bfa836131e9565b9190505550505050505050565b600260005403611c2a57604051633ee5aeb560e01b815260040160405180910390fd5b6002600055565b604080516060810182526000808252602082018190528183015282519151630a22d5a160e21b81526004810192909252906001600160a01b037f0000000000000000000000000000000000000000000000000000000000000000169063288b568490602401606060405180830381865afa158015611cb3573d6000803e3d6000fd5b505050506040513d601f19601f82011682018060405250810190611cd79190612ff4565b9050600081600001516001600160a01b0316636904c94d6040518163ffffffff1660e01b8152600401602060405180830381865afa158015611d1d573d6000803e3d6000fd5b505050506040513d601f19601f82011682018060405250810190611d419190612daf565b90506000611d4d611994565b6001600160a01b03831660009081526005820160205260408120805492935090611d76836131e9565b9091555084516020808701516040805192830193909352918101919091526060810182905260009060800160408051808303601f190181528282528051602091820120818452838301909252909250600091906020820181803683370190505090508160208201526000611de982612431565b90506000611dfb828a6040015161246c565b604051637df73e2760e01b81526001600160a01b03808316600483015291925090881690637df73e2790602401602060405180830381865afa158015611e45573d6000803e3d6000fd5b505050506040513d601f19601f82011682018060405250810190611e699190612e06565b611ec65760405162461bcd60e51b815260206004820152602860248201527f4176617461723a20636f6d70616e79207369676e6572206973206e6f742061756044820152671d1a1bdc9a5e995960c21b60648201526084016106ac565b50505050505050919050565b805160208201516001600160a01b038216611eff5760405162461bcd60e51b81526004016106ac906131c0565b60008111611f425760405162461bcd60e51b815260206004820152601060248201526f125b9d985b1a59081d1bdad95b881a5960821b60448201526064016106ac565b604080516001600160a01b03841660208201529081018290526000906060016040516020818303038152906040528051906020012090506000611f83611994565b6000838152600a8201602052604090205490915060078201906001600160a01b0316611fb157505050505050565b600083815260038083016020908152604092839020835160a08101855281546001600160a01b03166060820190815260018301546080830152815260028201549281018390529201549282019290925290156120315780604001518260030160008360200151815260200190815260200160002060030181905550612039565b604081015182555b6040810151156120675760208082015160408084015160009081526003860190935290912060020155612072565b602081015160018301555b600084815260038084016020526040822080546001600160a01b0319168155600181018390556002808201849055910182905583018054916120b383613202565b919050555050505050505050565b606060006120cd611994565b90506000816007019050600081600201546001600160401b038111156120f5576120f5612982565b60405190808252806020026020018201604052801561213a57816020015b60408051808201909152600080825260208201528152602001906001900390816121135790505b50825490915060005b83600201548110156121c2576000828152600385016020908152604091829020825180840190935280546001600160a01b031683526001015490820152835184908390811061219457612194613219565b6020908102919091018101919091526000928352600380860190915260409092209091015490600101612143565b5090949350505050565b60006121d6611994565b60068101805491925060006121ea836131e9565b9091555082516020808501516040805192830193909352918101919091526060810182905260009060800160408051808303601f19018152828252805160209182012081845283830190925290925060009190602082018180368337019050509050816020820152600061225d82612431565b9050600061226f82886040015161246c565b86549091506001600160a01b038083166201000090920416146122df5760405162461bcd60e51b815260206004820152602260248201527f4176617461723a20617661746172207369676e6572206973206e6f74206f776e60448201526132b960f11b60648201526084016106ac565b50505050505050565b80516020820151600091906001600160a01b0382166123195760405162461bcd60e51b81526004016106ac906131c0565b6000811161235c5760405162461bcd60e51b815260206004820152601060248201526f125b9d985b1a59081d1bdad95b881a5960821b60448201526064016106ac565b604080516001600160a01b0384166020820152908101829052600090606001604051602081830303815290604052805190602001209050600061239d611994565b6000928352600a016020525060409020546001600160a01b03161515949350505050565b60608160005b815181101561242a576123f98282815181106123e5576123e5613219565b01602001516001600160f81b03191661248c565b82828151811061240b5761240b613219565b60200101906001600160f81b031916908160001a9053506001016123c7565b5092915050565b600061243d82516124db565b8260405160200161244f92919061322f565b604051602081830303815290604052805190602001209050919050565b60008060008061247c868661256d565b9250925092506121c282826125ba565b6000604160f81b6001600160f81b03198316108015906124ba5750602d60f91b6001600160f81b0319831611155b156124d7576124ce60f883901c602061328a565b60f81b92915050565b5090565b606060006124e883612673565b60010190506000816001600160401b0381111561250757612507612982565b6040519080825280601f01601f191660200182016040528015612531576020820181803683370190505b5090508181016020015b600019016f181899199a1a9b1b9c1cb0b131b232b360811b600a86061a8153600a850494508461253b57509392505050565b600080600083516041036125a75760208401516040850151606086015160001a6125998882858561274b565b9550955095505050506125b3565b50508151600091506002905b9250925092565b60008260038111156125ce576125ce6132a3565b036125d7575050565b60018260038111156125eb576125eb6132a3565b036126095760405163f645eedf60e01b815260040160405180910390fd5b600282600381111561261d5761261d6132a3565b0361263e5760405163fce698f760e01b8152600481018290526024016106ac565b6003826003811115612652576126526132a3565b036110ad576040516335e2f38360e21b8152600481018290526024016106ac565b60008072184f03e93ff9f4daa797ed6e38ed64bf6a1f0160401b83106126b25772184f03e93ff9f4daa797ed6e38ed64bf6a1f0160401b830492506040015b6d04ee2d6d415b85acef810000000083106126de576d04ee2d6d415b85acef8100000000830492506020015b662386f26fc1000083106126fc57662386f26fc10000830492506010015b6305f5e1008310612714576305f5e100830492506008015b612710831061272857612710830492506004015b6064831061273a576064830492506002015b600a83106115b55760010192915050565b600080807f7fffffffffffffffffffffffffffffff5d576e7357a4501ddfe92f46681b20a08411156127865750600091506003905082612810565b604080516000808252602082018084528a905260ff891692820192909252606081018790526080810186905260019060a0016020604051602081039080840390855afa1580156127da573d6000803e3d6000fd5b5050604051601f1901519150506001600160a01b03811661280657506000925060019150829050612810565b9250600091508190505b9450945094915050565b6001600160a01b038116811461282f57600080fd5b50565b60006020828403121561284457600080fd5b813561284f8161281a565b9392505050565b60006040828403121561286857600080fd5b50919050565b60008083601f84011261288057600080fd5b5081356001600160401b0381111561289757600080fd5b6020830191508360208285010111156128af57600080fd5b9250929050565b6000806000806000608086880312156128ce57600080fd5b85356128d98161281a565b945060208601356128e98161281a565b93506040860135925060608601356001600160401b0381111561290b57600080fd5b6129178882890161286e565b969995985093965092949392505050565b6000806020838503121561293b57600080fd5b82356001600160401b0381111561295157600080fd5b61295d8582860161286e565b90969095509350505050565b60006020828403121561297b57600080fd5b5035919050565b634e487b7160e01b600052604160045260246000fd5b604051606081016001600160401b03811182821017156129ba576129ba612982565b60405290565b604080519081016001600160401b03811182821017156129ba576129ba612982565b604051601f8201601f191681016001600160401b0381118282101715612a0a57612a0a612982565b604052919050565b60006001600160401b03821115612a2b57612a2b612982565b50601f01601f191660200190565b6000612a4c612a4784612a12565b6129e2565b9050828152838383011115612a6057600080fd5b828260208301376000602084830101529392505050565b600082601f830112612a8857600080fd5b61284f83833560208501612a39565b600060608284031215612aa957600080fd5b612ab1612998565b9050813581526020820135602082015260408201356001600160401b03811115612ada57600080fd5b612ae684828501612a77565b60408301525092915050565b600060208284031215612b0457600080fd5b81356001600160401b03811115612b1a57600080fd5b612b2684828501612a97565b949350505050565b801515811461282f57600080fd5b600060208284031215612b4e57600080fd5b81356001600160401b0380821115612b6557600080fd5b9083019060408286031215612b7957600080fd5b612b816129c0565b8235612b8c81612b2e565b8152602083013582811115612ba057600080fd5b612bac87828601612a77565b60208301525095945050505050565b60005b83811015612bd6578181015183820152602001612bbe565b50506000910152565b60008151808452612bf7816020860160208601612bbb565b601f01601f19169290920160200192915050565b60208152600061284f6020830184612bdf565b602080825282518282018190526000919060409081850190868401855b82811015612c6957815180516001600160a01b03168552860151868501529284019290850190600101612c3b565b5091979650505050505050565b600060208284031215612c8857600080fd5b81356001600160401b03811115612c9e57600080fd5b612b2684828501612a77565b600060208284031215612cbc57600080fd5b813561284f81612b2e565b60008060008060808587031215612cdd57600080fd5b8435612ce88161281a565b93506020850135612cf88161281a565b925060408501356001600160401b0380821115612d1457600080fd5b818701915087601f830112612d2857600080fd5b612d3788833560208501612a39565b93506060870135915080821115612d4d57600080fd5b50612d5a87828801612a77565b91505092959194509250565b60208082526029908201527f4176617461723a206f6e6c79206f776e65722063616e2063616c6c207468697360408201526810333ab731ba34b7b760b91b606082015260800190565b600060208284031215612dc157600080fd5b815161284f8161281a565b600060408284031215612dde57600080fd5b612de66129c0565b8235612df18161281a565b81526020928301359281019290925250919050565b600060208284031215612e1857600080fd5b815161284f81612b2e565b60208082526022908201527f4176617461723a20636f6e747261637420686173206265656e20757067726164604082015261195960f21b606082015260800190565b60208152816020820152818360408301376000818301604090810191909152601f909201601f19160101919050565b634e487b7160e01b600052601160045260246000fd5b808201808211156115b5576115b5612e94565b60208082526027908201527f4176617461723a20696e73756666696369656e742066756e647320666f72206a604082015266756d702066656560c81b606082015260800190565b600082601f830112612f1557600080fd5b8151612f23612a4782612a12565b818152846020838601011115612f3857600080fd5b612b26826020830160208701612bbb565b600060208284031215612f5b57600080fd5b81516001600160401b03811115612f7157600080fd5b612b2684828501612f04565b60008251612f8f818460208701612bbb565b9190910192915050565b6020815281511515602082015260006020830151604080840152612b266060840182612bdf565b600181811c90821680612fd457607f821691505b60208210810361286857634e487b7160e01b600052602260045260246000fd5b60006060828403121561300657600080fd5b61300e612998565b82516130198161281a565b815260208301516130298161281a565b60208201526040928301519281019290925250919050565b601f821115610894576000816000526020600020601f850160051c8101602086101561306a5750805b601f850160051c820191505b8181101561308957828155600101613076565b505050505050565b81516001600160401b038111156130aa576130aa612982565b6130be816130b88454612fc0565b84613041565b602080601f8311600181146130f357600084156130db5750858301515b600019600386901b1c1916600185901b178555613089565b600085815260208120601f198616915b8281101561312257888601518255948401946001909101908401613103565b50858210156131405787850151600019600388901b60f8161c191681555b5050505050600190811b01905550565b60006020828403121561316257600080fd5b81516001600160401b038082111561317957600080fd5b908301906040828603121561318d57600080fd5b6131956129c0565b82516131a081612b2e565b81526020830151828111156131b457600080fd5b612bac87828601612f04565b6020808252600f908201526e496e76616c6964206164647265737360881b604082015260600190565b6000600182016131fb576131fb612e94565b5060010190565b60008161321157613211612e94565b506000190190565b634e487b7160e01b600052603260045260246000fd5b7f19457468657265756d205369676e6564204d6573736167653a0a00000000000081526000835161326781601a850160208801612bbb565b83519083019061327e81601a840160208801612bbb565b01601a01949350505050565b60ff81811683821601908111156115b5576115b5612e94565b634e487b7160e01b600052602160045260246000fdfea2646970667358221220f1c3441b2fd4fc44825c44801da46746dd411ecb9ea360f4f259370bf51a368364736f6c63430008180033",
  "linkReferences": {},
  "deployedLinkReferences": {}
}