{
  "_format": "hh-sol-artifact-1",
  "contractName": "Avatar",
  "sourceName": "contracts/avatar/Avatar.sol",
  "abi": [
    {
      "inputs": [
        {
          "components": [
            {
              "internalType": "address",
              "name": "avatarFactory",
              "type": "address"
            },
            {
              "internalType": "address",
              "name": "avatarRegistry",
              "type": "address"
            },
            {
              "internalType": "address",
              "name": "experienceRegistry",
              "type": "address"
            },
            {
              "internalType": "address",
              "name": "portalRegistry",
              "type": "address"
            },
            {
              "internalType": "address",
              "name": "companyRegistry",
              "type": "address"
            }
          ],
          "internalType": "struct BaseContructorArgs",
          "name": "args",
          "type": "tuple"
        }
      ],
      "stateMutability": "nonpayable",
      "type": "constructor"
    },
    {
      "inputs": [],
      "name": "ECDSAInvalidSignature",
      "type": "error"
    },
    {
      "inputs": [
        {
          "internalType": "uint256",
          "name": "length",
          "type": "uint256"
        }
      ],
      "name": "ECDSAInvalidSignatureLength",
      "type": "error"
    },
    {
      "inputs": [
        {
          "internalType": "bytes32",
          "name": "s",
          "type": "bytes32"
        }
      ],
      "name": "ECDSAInvalidSignatureS",
      "type": "error"
    },
    {
      "inputs": [],
      "name": "ReentrancyGuardReentrantCall",
      "type": "error"
    },
    {
      "anonymous": false,
      "inputs": [
        {
          "indexed": true,
          "internalType": "bytes",
          "name": "appearanceDetails",
          "type": "bytes"
        }
      ],
      "name": "AppearanceChanged",
      "type": "event"
    },
    {
      "anonymous": false,
      "inputs": [
        {
          "indexed": true,
          "internalType": "address",
          "name": "oldVersion",
          "type": "address"
        },
        {
          "indexed": true,
          "internalType": "address",
          "name": "nextVersion",
          "type": "address"
        }
      ],
      "name": "AvatarUpgraded",
      "type": "event"
    },
    {
      "anonymous": false,
      "inputs": [
        {
          "indexed": true,
          "internalType": "address",
          "name": "experience",
          "type": "address"
        },
        {
          "indexed": true,
          "internalType": "bytes",
          "name": "connectionDetails",
          "type": "bytes"
        }
      ],
      "name": "JumpSuccess",
      "type": "event"
    },
    {
      "anonymous": false,
      "inputs": [
        {
          "indexed": true,
          "internalType": "address",
          "name": "location",
          "type": "address"
        }
      ],
      "name": "LocationChanged",
      "type": "event"
    },
    {
      "anonymous": false,
      "inputs": [
        {
          "indexed": true,
          "internalType": "address",
          "name": "signer",
          "type": "address"
        }
      ],
      "name": "SignerAdded",
      "type": "event"
    },
    {
      "anonymous": false,
      "inputs": [
        {
          "indexed": true,
          "internalType": "address",
          "name": "signer",
          "type": "address"
        }
      ],
      "name": "SignerRemoved",
      "type": "event"
    },
    {
      "anonymous": false,
      "inputs": [
        {
          "indexed": true,
          "internalType": "address",
          "name": "wearable",
          "type": "address"
        },
        {
          "indexed": false,
          "internalType": "uint256",
          "name": "tokenId",
          "type": "uint256"
        }
      ],
      "name": "WearableAdded",
      "type": "event"
    },
    {
      "anonymous": false,
      "inputs": [
        {
          "indexed": true,
          "internalType": "address",
          "name": "wearable",
          "type": "address"
        },
        {
          "indexed": false,
          "internalType": "uint256",
          "name": "tokenId",
          "type": "uint256"
        }
      ],
      "name": "WearableRemoved",
      "type": "event"
    },
    {
      "inputs": [],
      "name": "MAX_SIZE",
      "outputs": [
        {
          "internalType": "uint256",
          "name": "",
          "type": "uint256"
        }
      ],
      "stateMutability": "view",
      "type": "function"
    },
    {
      "inputs": [
        {
          "components": [
            {
              "internalType": "address",
              "name": "asset",
              "type": "address"
            },
            {
              "internalType": "uint256",
              "name": "tokenId",
              "type": "uint256"
            }
          ],
          "internalType": "struct Wearable",
          "name": "wearable",
          "type": "tuple"
        }
      ],
      "name": "addWearable",
      "outputs": [],
      "stateMutability": "nonpayable",
      "type": "function"
    },
    {
      "inputs": [],
      "name": "appearanceDetails",
      "outputs": [
        {
          "internalType": "bytes",
          "name": "",
          "type": "bytes"
        }
      ],
      "stateMutability": "view",
      "type": "function"
    },
    {
      "inputs": [],
      "name": "avatarFactory",
      "outputs": [
        {
          "internalType": "address",
          "name": "",
          "type": "address"
        }
      ],
      "stateMutability": "view",
      "type": "function"
    },
    {
      "inputs": [],
      "name": "avatarOwnerSigningNonce",
      "outputs": [
        {
          "internalType": "uint256",
          "name": "",
          "type": "uint256"
        }
      ],
      "stateMutability": "view",
      "type": "function"
    },
    {
      "inputs": [],
      "name": "avatarRegistry",
      "outputs": [
        {
          "internalType": "contract IAvatarRegistry",
          "name": "",
          "type": "address"
        }
      ],
      "stateMutability": "view",
      "type": "function"
    },
    {
      "inputs": [],
      "name": "canReceiveTokensOutsideOfExperience",
      "outputs": [
        {
          "internalType": "bool",
          "name": "",
          "type": "bool"
        }
      ],
      "stateMutability": "view",
      "type": "function"
    },
    {
      "inputs": [],
      "name": "companyRegistry",
      "outputs": [
        {
          "internalType": "contract ICompanyRegistry",
          "name": "",
          "type": "address"
        }
      ],
      "stateMutability": "view",
      "type": "function"
    },
    {
      "inputs": [
        {
          "internalType": "address",
          "name": "",
          "type": "address"
        }
      ],
      "name": "companySigningNonce",
      "outputs": [
        {
          "internalType": "uint256",
          "name": "",
          "type": "uint256"
        }
      ],
      "stateMutability": "view",
      "type": "function"
    },
    {
      "inputs": [
        {
          "components": [
            {
              "internalType": "uint256",
              "name": "portalId",
              "type": "uint256"
            },
            {
              "internalType": "uint256",
              "name": "agreedFee",
              "type": "uint256"
            },
            {
              "internalType": "bytes",
              "name": "avatarOwnerSignature",
              "type": "bytes"
            }
          ],
          "internalType": "struct DelegatedJumpRequest",
          "name": "request",
          "type": "tuple"
        }
      ],
      "name": "delegateJump",
      "outputs": [],
      "stateMutability": "payable",
      "type": "function"
    },
    {
      "inputs": [
        {
          "components": [
            {
              "internalType": "string",
              "name": "username",
              "type": "string"
            },
            {
              "internalType": "bool",
              "name": "canReceiveTokensOutsideOfExperience",
              "type": "bool"
            },
            {
              "internalType": "bytes",
              "name": "appearanceDetails",
              "type": "bytes"
            }
          ],
          "internalType": "struct AvatarInitData",
          "name": "data",
          "type": "tuple"
        }
      ],
      "name": "encodeInitData",
      "outputs": [
        {
          "internalType": "bytes",
          "name": "",
          "type": "bytes"
        }
      ],
      "stateMutability": "pure",
      "type": "function"
    },
    {
      "inputs": [],
      "name": "experienceRegistry",
      "outputs": [
        {
          "internalType": "contract IExperienceRegistry",
          "name": "",
          "type": "address"
        }
      ],
      "stateMutability": "view",
      "type": "function"
    },
    {
      "inputs": [],
      "name": "getWearables",
      "outputs": [
        {
          "components": [
            {
              "internalType": "address",
              "name": "asset",
              "type": "address"
            },
            {
              "internalType": "uint256",
              "name": "tokenId",
              "type": "uint256"
            }
          ],
          "internalType": "struct Wearable[]",
          "name": "",
          "type": "tuple[]"
        }
      ],
      "stateMutability": "view",
      "type": "function"
    },
    {
      "inputs": [],
      "name": "hook",
      "outputs": [
        {
          "internalType": "contract IAvatarHook",
          "name": "",
          "type": "address"
        }
      ],
      "stateMutability": "view",
      "type": "function"
    },
    {
      "inputs": [
        {
          "internalType": "address",
          "name": "_owner",
          "type": "address"
        },
        {
          "internalType": "address",
          "name": "defaultExperience",
          "type": "address"
        },
        {
          "internalType": "bytes",
          "name": "initData",
          "type": "bytes"
        }
      ],
      "name": "init",
      "outputs": [],
      "stateMutability": "nonpayable",
      "type": "function"
    },
    {
      "inputs": [
        {
          "components": [
            {
              "internalType": "address",
              "name": "asset",
              "type": "address"
            },
            {
              "internalType": "uint256",
              "name": "tokenId",
              "type": "uint256"
            }
          ],
          "internalType": "struct Wearable",
          "name": "wearable",
          "type": "tuple"
        }
      ],
      "name": "isWearing",
      "outputs": [
        {
          "internalType": "bool",
          "name": "",
          "type": "bool"
        }
      ],
      "stateMutability": "view",
      "type": "function"
    },
    {
      "inputs": [
        {
          "components": [
            {
              "internalType": "uint256",
              "name": "portalId",
              "type": "uint256"
            },
            {
              "internalType": "uint256",
              "name": "agreedFee",
              "type": "uint256"
            },
            {
              "internalType": "bytes",
              "name": "destinationCompanySignature",
              "type": "bytes"
            }
          ],
          "internalType": "struct AvatarJumpRequest",
          "name": "request",
          "type": "tuple"
        }
      ],
      "name": "jump",
      "outputs": [],
      "stateMutability": "payable",
      "type": "function"
    },
    {
      "inputs": [],
      "name": "location",
      "outputs": [
        {
          "internalType": "contract IExperience",
          "name": "",
          "type": "address"
        }
      ],
      "stateMutability": "view",
      "type": "function"
    },
    {
      "inputs": [
        {
          "internalType": "address",
          "name": "",
          "type": "address"
        },
        {
          "internalType": "address",
          "name": "",
          "type": "address"
        },
        {
          "internalType": "uint256",
          "name": "tokenId",
          "type": "uint256"
        },
        {
          "internalType": "bytes",
          "name": "",
          "type": "bytes"
        }
      ],
      "name": "onERC721Received",
      "outputs": [
        {
          "internalType": "bytes4",
          "name": "",
          "type": "bytes4"
        }
      ],
      "stateMutability": "nonpayable",
      "type": "function"
    },
    {
      "inputs": [],
      "name": "owner",
      "outputs": [
        {
          "internalType": "address",
          "name": "",
          "type": "address"
        }
      ],
      "stateMutability": "view",
      "type": "function"
    },
    {
      "inputs": [],
      "name": "portalRegistry",
      "outputs": [
        {
          "internalType": "contract IPortalRegistry",
          "name": "",
          "type": "address"
        }
      ],
      "stateMutability": "view",
      "type": "function"
    },
    {
      "inputs": [],
      "name": "removeHook",
      "outputs": [],
      "stateMutability": "nonpayable",
      "type": "function"
    },
    {
      "inputs": [
        {
          "components": [
            {
              "internalType": "address",
              "name": "asset",
              "type": "address"
            },
            {
              "internalType": "uint256",
              "name": "tokenId",
              "type": "uint256"
            }
          ],
          "internalType": "struct Wearable",
          "name": "wearable",
          "type": "tuple"
        }
      ],
      "name": "removeWearable",
      "outputs": [],
      "stateMutability": "nonpayable",
      "type": "function"
    },
    {
      "inputs": [
        {
          "internalType": "bytes",
          "name": "",
          "type": "bytes"
        }
      ],
      "name": "setAppearanceDetails",
      "outputs": [],
      "stateMutability": "nonpayable",
      "type": "function"
    },
    {
      "inputs": [
        {
          "internalType": "bool",
          "name": "canReceive",
          "type": "bool"
        }
      ],
      "name": "setCanReceiveTokensOutsideOfExperience",
      "outputs": [],
      "stateMutability": "nonpayable",
      "type": "function"
    },
    {
      "inputs": [
        {
          "internalType": "contract IAvatarHook",
          "name": "_hook",
          "type": "address"
        }
      ],
      "name": "setHook",
      "outputs": [],
      "stateMutability": "nonpayable",
      "type": "function"
    },
    {
      "inputs": [
        {
          "internalType": "bytes",
          "name": "initData",
          "type": "bytes"
        }
      ],
      "name": "upgrade",
      "outputs": [],
      "stateMutability": "nonpayable",
      "type": "function"
    },
    {
      "inputs": [
        {
          "internalType": "address",
          "name": "nextVersion",
          "type": "address"
        }
      ],
      "name": "upgradeComplete",
      "outputs": [],
      "stateMutability": "nonpayable",
      "type": "function"
    },
    {
      "inputs": [],
      "name": "upgraded",
      "outputs": [
        {
          "internalType": "bool",
          "name": "",
          "type": "bool"
        }
      ],
      "stateMutability": "view",
      "type": "function"
    },
    {
      "inputs": [],
      "name": "username",
      "outputs": [
        {
          "internalType": "string",
          "name": "",
          "type": "string"
        }
      ],
      "stateMutability": "view",
      "type": "function"
    },
    {
      "inputs": [
        {
          "internalType": "uint256",
          "name": "amount",
          "type": "uint256"
        }
      ],
      "name": "withdraw",
      "outputs": [],
      "stateMutability": "nonpayable",
      "type": "function"
    },
    {
      "stateMutability": "payable",
      "type": "receive"
    }
  ],
  "bytecode": "0x6101206040523480156200001257600080fd5b506040516200347b3803806200347b8339810160408190526200003591620002da565b600160005580516001600160a01b0316620000ad5760405162461bcd60e51b815260206004820152602d60248201527f4176617461723a2061766174617220666163746f72792063616e6e6f7420626560448201526c207a65726f206164647265737360981b60648201526084015b60405180910390fd5b60408101516001600160a01b0316620001245760405162461bcd60e51b815260206004820152603260248201527f4176617461723a20657870657269656e63652072656769737472792063616e6e6044820152716f74206265207a65726f206164647265737360701b6064820152608401620000a4565b60608101516001600160a01b0316620001975760405162461bcd60e51b815260206004820152602e60248201527f4176617461723a20706f7274616c2072656769737472792063616e6e6f74206260448201526d65207a65726f206164647265737360901b6064820152608401620000a4565b60808101516001600160a01b03166200020b5760405162461bcd60e51b815260206004820152602f60248201527f4176617461723a20636f6d70616e792072656769737472792063616e6e6f742060448201526e6265207a65726f206164647265737360881b6064820152608401620000a4565b60208101516001600160a01b03166200027e5760405162461bcd60e51b815260206004820152602e60248201527f4176617461723a206176617461722072656769737472792063616e6e6f74206260448201526d65207a65726f206164647265737360901b6064820152608401620000a4565b80516001600160a01b0390811660809081526040830151821660c0526060830151821660e0528201518116610100526020909101511660a05262000381565b80516001600160a01b0381168114620002d557600080fd5b919050565b600060a08284031215620002ed57600080fd5b60405160a081016001600160401b03811182821017156200031e57634e487b7160e01b600052604160045260246000fd5b6040526200032c83620002bd565b81526200033c60208401620002bd565b60208201526200034f60408401620002bd565b60408201526200036260608401620002bd565b60608201526200037560808401620002bd565b60808201529392505050565b60805160a05160c05160e0516101005161307d620003fe600039600081816105db015261141f015260008181610588015281816111780152818161150d01526119870152600081816104f40152610eab01526000818161060f015281816109ea0152610a620152600081816104280152610cd6015261307d6000f3fe6080604052600436106101dc5760003560e01c806360e741e811610102578063949a1ddc11610095578063c28de2cd11610064578063c28de2cd146105aa578063c51aba2b146105c9578063e3d7ad73146105fd578063f890d7c91461063157600080fd5b8063949a1ddc146105165780639be17fbc146105365780639d870bf614610556578063b66649341461057657600080fd5b80638970220e116100d15780638970220e146104925780638d67799e146104a75780638da5cb5b146104bc5780638f09a6be146104e257600080fd5b806360e741e81461041657806361fac54d1461044a5780637dc759e51461045f5780637f5a7c7b1461047257600080fd5b80632e1a7d4d1161017a5780633dfd3873116101495780633dfd387314610382578063516f279e146103a257806354cf0b39146103d45780635cf59e1e146103f457600080fd5b80632e1a7d4d1461031a578063378dfd8e1461033a578063378f17ff1461035a578063392f56691461036f57600080fd5b8063181d939b116101b6578063181d939b1461028357806325394645146102ad5780632663d1f7146102cd5780632d2f6236146102ed57600080fd5b806303f7d3ba146101e857806312deb11a14610228578063150b7a021461024a57600080fd5b366101e357005b600080fd5b3480156101f457600080fd5b50610215610203366004612464565b600a6020526000908152604090205481565b6040519081526020015b60405180910390f35b34801561023457600080fd5b50610248610243366004612488565b610647565b005b34801561025657600080fd5b5061026a6102653660046124e8565b610863565b6040516001600160e01b0319909116815260200161021f565b34801561028f57600080fd5b5060055461029d9060ff1681565b604051901515815260200161021f565b3480156102b957600080fd5b506102486102c836600461255a565b61096c565b3480156102d957600080fd5b506102486102e8366004612464565b610a57565b3480156102f957600080fd5b5061030d61030836600461269c565b610bcd565b60405161021f91906127a3565b34801561032657600080fd5b506102486103353660046127b6565b610bf6565b34801561034657600080fd5b506102486103553660046127cf565b610ccb565b34801561036657600080fd5b50610248611013565b61024861037d36600461288b565b611055565b34801561038e57600080fd5b5061024861039d366004612464565b61123e565b3480156103ae57600080fd5b506006546001600160a01b03165b6040516001600160a01b03909116815260200161021f565b3480156103e057600080fd5b506102486103ef366004612488565b6112f2565b34801561040057600080fd5b5061040961133c565b60405161021f91906128c7565b34801561042257600080fd5b506103bc7f000000000000000000000000000000000000000000000000000000000000000081565b34801561045657600080fd5b5061030d61134b565b61024861046d36600461288b565b6113d9565b34801561047e57600080fd5b506007546103bc906001600160a01b031681565b34801561049e57600080fd5b5061030d611585565b3480156104b357600080fd5b5061021560c881565b3480156104c857600080fd5b506005546103bc906201000090046001600160a01b031681565b3480156104ee57600080fd5b506103bc7f000000000000000000000000000000000000000000000000000000000000000081565b34801561052257600080fd5b5061024861053136600461291f565b611592565b34801561054257600080fd5b5061029d610551366004612488565b611639565b34801561056257600080fd5b50610248610571366004612953565b611658565b34801561058257600080fd5b506103bc7f000000000000000000000000000000000000000000000000000000000000000081565b3480156105b657600080fd5b5060055461029d90610100900460ff1681565b3480156105d557600080fd5b506103bc7f000000000000000000000000000000000000000000000000000000000000000081565b34801561060957600080fd5b506103bc7f000000000000000000000000000000000000000000000000000000000000000081565b34801561063d57600080fd5b50610215600b5481565b6005546201000090046001600160a01b031633146106805760405162461bcd60e51b815260040161067790612970565b60405180910390fd5b600061068f6020830183612464565b6001600160a01b0316036106fb5760405162461bcd60e51b815260206004820152602d60248201527f4176617461723a207765617261626c652061737365742063616e6e6f7420626560448201526c207a65726f206164647265737360981b6064820152608401610677565b600081602001351161075f5760405162461bcd60e51b815260206004820152602760248201527f4176617461723a207765617261626c6520746f6b656e49642063616e6e6f74206044820152666265207a65726f60c81b6064820152608401610677565b600061076e6020830183612464565b6040516331a9108f60e11b81526020840135600482015290915030906001600160a01b03831690636352211e90602401602060405180830381865afa1580156107bb573d6000803e3d6000fd5b505050506040513d601f19601f820116820180604052508101906107df91906129b9565b6001600160a01b0316146108485760405162461bcd60e51b815260206004820152602a60248201527f4176617461723a207765617261626c6520746f6b656e206e6f74206f776e656460448201526910313c9030bb30ba30b960b11b6064820152608401610677565b61085f61085a368490038401846129d6565b61169b565b5050565b600061086d6118b2565b6007546001600160a01b03161561095057600754604051631d9a6bd160e11b8152306004820152336024820152604481018690526001600160a01b0390911690633b34d7a2906064016020604051808303816000875af11580156108d5573d6000803e3d6000fd5b505050506040513d601f19601f820116820180604052508101906108f99190612a2d565b6109505760405162461bcd60e51b815260206004820152602260248201527f4176617461723a20686f6f6b2072656a65637465642045524337323120746f6b60448201526132b760f11b6064820152608401610677565b50630a85bd0160e11b6109636001600055565b95945050505050565b6005546201000090046001600160a01b0316331461099c5760405162461bcd60e51b815260040161067790612970565b600554610100900460ff16156109c45760405162461bcd60e51b815260040161067790612a4a565b6005805461ff00191661010017905560405163612ca62160e01b81526001600160a01b037f0000000000000000000000000000000000000000000000000000000000000000169063612ca62190610a219085908590600401612a8c565b600060405180830381600087803b158015610a3b57600080fd5b505af1158015610a4f573d6000803e3d6000fd5b505050505050565b336001600160a01b037f00000000000000000000000000000000000000000000000000000000000000001614610ae45760405162461bcd60e51b815260206004820152602c60248201527f4176617461723a206f6e6c792072656769737472792063616e2063616c6c207460448201526b3434b990333ab731ba34b7b760a11b6064820152608401610677565b478015610b23576040516001600160a01b0383169082156108fc029083906000818181858888f19350505050158015610b21573d6000803e3d6000fd5b505b306001600160a01b03831603610b935760405162461bcd60e51b815260206004820152602f60248201527f4176617461723a206e6578742076657273696f6e206d7573742062652064696660448201526e19995c995b9d0818dbdb9d1c9858dd608a1b6064820152608401610677565b6040516001600160a01b0383169030907f722ee95a7e2eed3235f2e3bdb62d3f6e70079578905580fbf8bb414519dd617290600090a35050565b606081604051602001610be09190612abb565b6040516020818303038152906040529050919050565b6005546201000090046001600160a01b03163314610c265760405162461bcd60e51b815260040161067790612970565b47811115610c8a5760405162461bcd60e51b815260206004820152602b60248201527f4176617461723a20696e73756666696369656e742062616c616e636520666f7260448201526a081dda5d1a191c985dd85b60aa1b6064820152608401610677565b6005546040516001600160a01b036201000090920491909116904780156108fc02916000818181858888f1935050505015801561085f573d6000803e3d6000fd5b336001600160a01b037f00000000000000000000000000000000000000000000000000000000000000001614610d575760405162461bcd60e51b815260206004820152602b60248201527f4176617461723a206f6e6c7920666163746f72792063616e2063616c6c20746860448201526a34b990333ab731ba34b7b760a91b6064820152608401610677565b6005546201000090046001600160a01b031615610dc25760405162461bcd60e51b8152602060048201526024808201527f4176617461723a20636f6e747261637420616c726561647920696e697469616c6044820152631a5e995960e21b6064820152608401610677565b600081806020019051810190610dd89190612b50565b805151909150610e2a5760405162461bcd60e51b815260206004820181905260248201527f4176617461723a20757365726e616d652063616e6e6f7420626520656d7074796044820152606401610677565b6001600160a01b038416610e8c5760405162461bcd60e51b8152602060048201526024808201527f4176617461723a206f776e65722063616e6e6f74206265207a65726f206164646044820152637265737360e01b6064820152608401610677565b604051630262286360e41b81526001600160a01b0384811660048301527f00000000000000000000000000000000000000000000000000000000000000001690632622863090602401602060405180830381865afa158015610ef2573d6000803e3d6000fd5b505050506040513d601f19601f82011682018060405250810190610f169190612a2d565b610f885760405162461bcd60e51b815260206004820152603960248201527f4176617461723a2064656661756c7420657870657269656e6365206973206e6f60448201527f742061207265676973746572656420657870657269656e6365000000000000006064820152608401610677565b8051610f93906118dc565b600890610fa09082612c79565b50600680546001600160a01b0319166001600160a01b03851617905560208101516005805460ff19169115159190911790556040810151600990610fe49082612c79565b5050600580546001600160a01b03909416620100000262010000600160b01b0319909416939093179092555050565b6005546201000090046001600160a01b031633146110435760405162461bcd60e51b815260040161067790612970565b600780546001600160a01b0319169055565b6005546201000090046001600160a01b031633146110855760405162461bcd60e51b815260040161067790612970565b600554610100900460ff16156110ad5760405162461bcd60e51b815260040161067790612a4a565b60006110b88261194c565b6040810151909150156111395760006110d13447612d4e565b905081604001518110156111375760405162461bcd60e51b815260206004820152602760248201527f4176617461723a20696e73756666696369656e742066756e647320666f72206a604482015266756d702066656560c81b6064820152608401610677565b505b8051600680546001600160a01b0319166001600160a01b0392831617905560408083015184519151634262242760e11b815260048101929092526000927f000000000000000000000000000000000000000000000000000000000000000016916384c4484e919060240160006040518083038185885af11580156111c1573d6000803e3d6000fd5b50505050506040513d6000823e601f3d908101601f191682016040526111ea9190810190612d61565b9050806040516111fa9190612d95565b604051908190038120835190916001600160a01b03909116907fcd8891f0f6646f626691b6b01d94acf17b618e864d038a69d61bc6593fca0bd790600090a3505050565b6005546201000090046001600160a01b0316331461126e5760405162461bcd60e51b815260040161067790612970565b6001600160a01b0381166112d05760405162461bcd60e51b815260206004820152602360248201527f4176617461723a20686f6f6b2063616e6e6f74206265207a65726f206164647260448201526265737360e81b6064820152608401610677565b600780546001600160a01b0319166001600160a01b0392909216919091179055565b6005546201000090046001600160a01b031633146113225760405162461bcd60e51b815260040161067790612970565b611339611334368390038301836129d6565b611bde565b50565b6060611346611da8565b905090565b6008805461135890612bf8565b80601f016020809104026020016040519081016040528092919081815260200182805461138490612bf8565b80156113d15780601f106113a6576101008083540402835291602001916113d1565b820191906000526020600020905b8154815290600101906020018083116113b457829003601f168201915b505050505081565b600554610100900460ff16156114015760405162461bcd60e51b815260040161067790612a4a565b61140a81611e97565b604051632405672560e21b81523360048201527f00000000000000000000000000000000000000000000000000000000000000006001600160a01b0316906390159c9490602401602060405180830381865afa15801561146e573d6000803e3d6000fd5b505050506040513d601f19601f820116820180604052508101906114929190612a2d565b6114f15760405162461bcd60e51b815260206004820152602a60248201527f4176617461723a2063616c6c6572206973206e6f742061207265676973746572604482015269656420636f6d70616e7960b01b6064820152608401610677565b8051604051630a22d5a160e21b81526000916001600160a01b037f0000000000000000000000000000000000000000000000000000000000000000169163288b5684916115449160040190815260200190565b606060405180830381865afa158015611561573d6000803e3d6000fd5b505050506040513d601f19601f820116820180604052508101906110b89190612db1565b6009805461135890612bf8565b6005546201000090046001600160a01b031633146115c25760405162461bcd60e51b815260040161067790612970565b600554610100900460ff16156115ea5760405162461bcd60e51b815260040161067790612a4a565b60096115f68180612dfe565b5060096040516116069190612ed8565b604051908190038120907fe8ed633186ac64f9f0ab9b48cb1cca12eebe0f7e0ffdc46908733a060363236690600090a250565b600061165261164d368490038401846129d6565b611f9d565b92915050565b6005546201000090046001600160a01b031633146116885760405162461bcd60e51b815260040161067790612970565b6005805460ff1916911515919091179055565b60035460c8116116dc5760405162461bcd60e51b815260206004820152600c60248201526b131a5cdd081a5cc8199d5b1b60a21b6044820152606401610677565b80516001600160a01b03166117035760405162461bcd60e51b815260040161067790612f4e565b60008160200151116117495760405162461bcd60e51b815260206004820152600f60248201526e125b9d985b1a59081d1bdad95b9259608a1b6044820152606401610677565b60008160000151826020015160405160200161178392919060609290921b6bffffffffffffffffffffffff19168252601482015260340190565b60408051601f198184030181529181528151602092830120600081815260049093529120549091506001600160a01b0316156118015760405162461bcd60e51b815260206004820152601760248201527f4164647265737320616c726561647920696e206c6973740000000000000000006044820152606401610677565b60408051606081018252838152600254602082015260009181018290526003549091036118375760018290556002829055611853565b6002805460009081526004602052604090206003018390558290555b60008281526004602090815260408083208451805182546001600160a01b0319166001600160a01b0390911617825583015160018201559184015160028301558301516003918201558054916118a883612f77565b9190505550505050565b6002600054036118d557604051633ee5aeb560e01b815260040160405180910390fd5b6002600055565b60608160005b81518110156119455761191482828151811061190057611900612f90565b01602001516001600160f81b03191661205c565b82828151811061192657611926612f90565b60200101906001600160f81b031916908160001a9053506001016118e2565b5092915050565b604080516060810182526000808252602082018190528183015282519151630a22d5a160e21b81526004810192909252906001600160a01b037f0000000000000000000000000000000000000000000000000000000000000000169063288b568490602401606060405180830381865afa1580156119ce573d6000803e3d6000fd5b505050506040513d601f19601f820116820180604052508101906119f29190612db1565b9050600081600001516001600160a01b0316636904c94d6040518163ffffffff1660e01b8152600401602060405180830381865afa158015611a38573d6000803e3d6000fd5b505050506040513d601f19601f82011682018060405250810190611a5c91906129b9565b6001600160a01b0381166000908152600a60205260408120805492935090611a8383612f77565b9091555083516020808601516040805192830193909352918101919091526060810182905260009060800160408051808303601f190181528282528051602091820120818452838301909252909250600091906020820181803683370190505090508160208201526000611af6826120ab565b90506000611b088289604001516120e6565b604051637df73e2760e01b81526001600160a01b03808316600483015291925090871690637df73e2790602401602060405180830381865afa158015611b52573d6000803e3d6000fd5b505050506040513d601f19601f82011682018060405250810190611b769190612a2d565b611bd35760405162461bcd60e51b815260206004820152602860248201527f4176617461723a20636f6d70616e79207369676e6572206973206e6f742061756044820152671d1a1bdc9a5e995960c21b6064820152608401610677565b505050505050919050565b805160208201516001600160a01b038216611c0b5760405162461bcd60e51b815260040161067790612f4e565b60008111611c4e5760405162461bcd60e51b815260206004820152601060248201526f125b9d985b1a59081d1bdad95b881a5960821b6044820152606401610677565b604080516001600160a01b038416602082015290810182905260009060600160408051601f198184030181529181528151602092830120600081815260049093529120549091506001600160a01b0316611ca85750505050565b600081815260046020908152604091829020825160a08101845281546001600160a01b03166060820190815260018301546080830152815260028201549281018390526003909101549281019290925215611d2057604080820151602080840151600090815260049091529190912060030155611d29565b60408101516001555b604081015115611d55576020808201516040808401516000908152600490935290912060020155611d5e565b60208101516002555b600082815260046020526040812080546001600160a01b031916815560018101829055600281018290556003908101829055805491611d9c83612fa6565b91905055505050505050565b606060006001600201546001600160401b03811115611dc957611dc961259b565b604051908082528060200260200182016040528015611e0e57816020015b6040805180820190915260008082526020820152815260200190600190039081611de75790505b5060015490915060005b600354811015611e8f57600082815260046020908152604091829020825180840190935280546001600160a01b0316835260010154908201528351849083908110611e6557611e65612f90565b60209081029190910181019190915260009283526004905260409091206003015490600101611e18565b509092915050565b600b8054906000611ea783612f77565b9091555081516020808401516040805192830193909352918101919091526060810182905260009060800160408051808303601f190181528282528051602091820120818452838301909252909250600091906020820181803683370190505090508160208201526000611f1a826120ab565b90506000611f2c8287604001516120e6565b6005549091506001600160a01b03808316620100009092041614610a4f5760405162461bcd60e51b815260206004820152602260248201527f4176617461723a20617661746172207369676e6572206973206e6f74206f776e60448201526132b960f11b6064820152608401610677565b80516020820151600091906001600160a01b038216611fce5760405162461bcd60e51b815260040161067790612f4e565b600081116120115760405162461bcd60e51b815260206004820152601060248201526f125b9d985b1a59081d1bdad95b881a5960821b6044820152606401610677565b604080516001600160a01b0393841660208083019190915281830193909352815180820383018152606090910182528051908301206000908152600490925290205416151592915050565b6000604160f81b6001600160f81b031983161080159061208a5750602d60f91b6001600160f81b0319831611155b156120a75761209e60f883901c6020612fbd565b60f81b92915050565b5090565b60006120b78251612110565b826040516020016120c9929190612fd6565b604051602081830303815290604052805190602001209050919050565b6000806000806120f686866121a2565b92509250925061210682826121ef565b5090949350505050565b6060600061211d836122a8565b60010190506000816001600160401b0381111561213c5761213c61259b565b6040519080825280601f01601f191660200182016040528015612166576020820181803683370190505b5090508181016020015b600019016f181899199a1a9b1b9c1cb0b131b232b360811b600a86061a8153600a850494508461217057509392505050565b600080600083516041036121dc5760208401516040850151606086015160001a6121ce88828585612380565b9550955095505050506121e8565b50508151600091506002905b9250925092565b600082600381111561220357612203613031565b0361220c575050565b600182600381111561222057612220613031565b0361223e5760405163f645eedf60e01b815260040160405180910390fd5b600282600381111561225257612252613031565b036122735760405163fce698f760e01b815260048101829052602401610677565b600382600381111561228757612287613031565b0361085f576040516335e2f38360e21b815260048101829052602401610677565b60008072184f03e93ff9f4daa797ed6e38ed64bf6a1f0160401b83106122e75772184f03e93ff9f4daa797ed6e38ed64bf6a1f0160401b830492506040015b6d04ee2d6d415b85acef81000000008310612313576d04ee2d6d415b85acef8100000000830492506020015b662386f26fc10000831061233157662386f26fc10000830492506010015b6305f5e1008310612349576305f5e100830492506008015b612710831061235d57612710830492506004015b6064831061236f576064830492506002015b600a83106116525760010192915050565b600080807f7fffffffffffffffffffffffffffffff5d576e7357a4501ddfe92f46681b20a08411156123bb5750600091506003905082612445565b604080516000808252602082018084528a905260ff891692820192909252606081018790526080810186905260019060a0016020604051602081039080840390855afa15801561240f573d6000803e3d6000fd5b5050604051601f1901519150506001600160a01b03811661243b57506000925060019150829050612445565b9250600091508190505b9450945094915050565b6001600160a01b038116811461133957600080fd5b60006020828403121561247657600080fd5b81356124818161244f565b9392505050565b60006040828403121561249a57600080fd5b50919050565b60008083601f8401126124b257600080fd5b5081356001600160401b038111156124c957600080fd5b6020830191508360208285010111156124e157600080fd5b9250929050565b60008060008060006080868803121561250057600080fd5b853561250b8161244f565b9450602086013561251b8161244f565b93506040860135925060608601356001600160401b0381111561253d57600080fd5b612549888289016124a0565b969995985093965092949392505050565b6000806020838503121561256d57600080fd5b82356001600160401b0381111561258357600080fd5b61258f858286016124a0565b90969095509350505050565b634e487b7160e01b600052604160045260246000fd5b604051606081016001600160401b03811182821017156125d3576125d361259b565b60405290565b604051601f8201601f191681016001600160401b03811182821017156126015761260161259b565b604052919050565b60006001600160401b038211156126225761262261259b565b50601f01601f191660200190565b600061264361263e84612609565b6125d9565b905082815283838301111561265757600080fd5b828260208301376000602084830101529392505050565b801515811461133957600080fd5b600082601f83011261268d57600080fd5b61248183833560208501612630565b6000602082840312156126ae57600080fd5b81356001600160401b03808211156126c557600080fd5b90830190606082860312156126d957600080fd5b6126e16125b1565b8235828111156126f057600080fd5b8301601f8101871361270157600080fd5b61271087823560208401612630565b82525060208301356127218161266e565b602082015260408301358281111561273857600080fd5b6127448782860161267c565b60408301525095945050505050565b60005b8381101561276e578181015183820152602001612756565b50506000910152565b6000815180845261278f816020860160208601612753565b601f01601f19169290920160200192915050565b6020815260006124816020830184612777565b6000602082840312156127c857600080fd5b5035919050565b6000806000606084860312156127e457600080fd5b83356127ef8161244f565b925060208401356127ff8161244f565b915060408401356001600160401b0381111561281a57600080fd5b6128268682870161267c565b9150509250925092565b60006060828403121561284257600080fd5b61284a6125b1565b9050813581526020820135602082015260408201356001600160401b0381111561287357600080fd5b61287f8482850161267c565b60408301525092915050565b60006020828403121561289d57600080fd5b81356001600160401b038111156128b357600080fd5b6128bf84828501612830565b949350505050565b602080825282518282018190526000919060409081850190868401855b8281101561291257815180516001600160a01b031685528601518685015292840192908501906001016128e4565b5091979650505050505050565b60006020828403121561293157600080fd5b81356001600160401b0381111561294757600080fd5b6128bf8482850161267c565b60006020828403121561296557600080fd5b81356124818161266e565b60208082526029908201527f4176617461723a206f6e6c79206f776e65722063616e2063616c6c207468697360408201526810333ab731ba34b7b760b91b606082015260800190565b6000602082840312156129cb57600080fd5b81516124818161244f565b6000604082840312156129e857600080fd5b604051604081018181106001600160401b0382111715612a0a57612a0a61259b565b6040528235612a188161244f565b81526020928301359281019290925250919050565b600060208284031215612a3f57600080fd5b81516124818161266e565b60208082526022908201527f4176617461723a20636f6e747261637420686173206265656e20757067726164604082015261195960f21b606082015260800190565b60208152816020820152818360408301376000818301604090810191909152601f909201601f19160101919050565b602081526000825160606020840152612ad76080840182612777565b90506020840151151560408401526040840151601f198483030160608501526109638282612777565b6000612b0e61263e84612609565b9050828152838383011115612b2257600080fd5b612481836020830184612753565b600082601f830112612b4157600080fd5b61248183835160208501612b00565b600060208284031215612b6257600080fd5b81516001600160401b0380821115612b7957600080fd5b9083019060608286031215612b8d57600080fd5b612b956125b1565b825182811115612ba457600080fd5b8301601f81018713612bb557600080fd5b612bc487825160208401612b00565b8252506020830151612bd58161266e565b6020820152604083015182811115612bec57600080fd5b61274487828601612b30565b600181811c90821680612c0c57607f821691505b60208210810361249a57634e487b7160e01b600052602260045260246000fd5b601f821115612c74576000816000526020600020601f850160051c81016020861015612c555750805b601f850160051c820191505b81811015610a4f57828155600101612c61565b505050565b81516001600160401b03811115612c9257612c9261259b565b612ca681612ca08454612bf8565b84612c2c565b602080601f831160018114612cdb5760008415612cc35750858301515b600019600386901b1c1916600185901b178555610a4f565b600085815260208120601f198616915b82811015612d0a57888601518255948401946001909101908401612ceb565b5085821015612d285787850151600019600388901b60f8161c191681555b5050505050600190811b01905550565b634e487b7160e01b600052601160045260246000fd5b8082018082111561165257611652612d38565b600060208284031215612d7357600080fd5b81516001600160401b03811115612d8957600080fd5b6128bf84828501612b30565b60008251612da7818460208701612753565b9190910192915050565b600060608284031215612dc357600080fd5b612dcb6125b1565b8251612dd68161244f565b81526020830151612de68161244f565b60208201526040928301519281019290925250919050565b818103612e09575050565b612e138254612bf8565b6001600160401b03811115612e2a57612e2a61259b565b612e3881612ca08454612bf8565b6000601f821160018114612e6c5760008315612e545750848201545b600019600385901b1c1916600184901b178455612ed1565b600085815260209020601f19841690600086815260209020845b83811015612ea65782860154825560019586019590910190602001612e86565b5085831015612ec45781850154600019600388901b60f8161c191681555b50505060018360011b0184555b5050505050565b6000808354612ee681612bf8565b60018281168015612efe5760018114612f1357612f42565b60ff1984168752821515830287019450612f42565b8760005260208060002060005b85811015612f395781548a820152908401908201612f20565b50505082870194505b50929695505050505050565b6020808252600f908201526e496e76616c6964206164647265737360881b604082015260600190565b600060018201612f8957612f89612d38565b5060010190565b634e487b7160e01b600052603260045260246000fd5b600081612fb557612fb5612d38565b506000190190565b60ff818116838216019081111561165257611652612d38565b7f19457468657265756d205369676e6564204d6573736167653a0a00000000000081526000835161300e81601a850160208801612753565b83519083019061302581601a840160208801612753565b01601a01949350505050565b634e487b7160e01b600052602160045260246000fdfea2646970667358221220e60c1c26af5768fcc1fd18901345fb328a692a924cbb1a98a61248f06200cb2f64736f6c63430008180033",
  "linkReferences": {},
  "deployedLinkReferences": {}
}