{
  "_format": "hh-sol-artifact-1",
  "contractName": "Avatar",
  "sourceName": "contracts/avatar/Avatar.sol",
  "abi": [
    {
      "inputs": [
        {
          "components": [
            {
              "internalType": "address",
              "name": "avatarFactory",
              "type": "address"
            },
            {
              "internalType": "address",
              "name": "avatarRegistry",
              "type": "address"
            },
            {
              "internalType": "address",
              "name": "experienceRegistry",
              "type": "address"
            },
            {
              "internalType": "address",
              "name": "portalRegistry",
              "type": "address"
            },
            {
              "internalType": "address",
              "name": "companyRegistry",
              "type": "address"
            },
            {
              "internalType": "address",
              "name": "multiAssetRegistry",
              "type": "address"
            }
          ],
          "internalType": "struct BaseContructorArgs",
          "name": "args",
          "type": "tuple"
        }
      ],
      "stateMutability": "nonpayable",
      "type": "constructor"
    },
    {
      "inputs": [],
      "name": "ECDSAInvalidSignature",
      "type": "error"
    },
    {
      "inputs": [
        {
          "internalType": "uint256",
          "name": "length",
          "type": "uint256"
        }
      ],
      "name": "ECDSAInvalidSignatureLength",
      "type": "error"
    },
    {
      "inputs": [
        {
          "internalType": "bytes32",
          "name": "s",
          "type": "bytes32"
        }
      ],
      "name": "ECDSAInvalidSignatureS",
      "type": "error"
    },
    {
      "inputs": [],
      "name": "ReentrancyGuardReentrantCall",
      "type": "error"
    },
    {
      "anonymous": false,
      "inputs": [
        {
          "indexed": true,
          "internalType": "bytes",
          "name": "appearanceDetails",
          "type": "bytes"
        }
      ],
      "name": "AppearanceChanged",
      "type": "event"
    },
    {
      "anonymous": false,
      "inputs": [
        {
          "indexed": true,
          "internalType": "address",
          "name": "oldVersion",
          "type": "address"
        },
        {
          "indexed": true,
          "internalType": "address",
          "name": "nextVersion",
          "type": "address"
        }
      ],
      "name": "AvatarUpgraded",
      "type": "event"
    },
    {
      "anonymous": false,
      "inputs": [],
      "name": "HookRemoved",
      "type": "event"
    },
    {
      "anonymous": false,
      "inputs": [
        {
          "indexed": true,
          "internalType": "address",
          "name": "hook",
          "type": "address"
        }
      ],
      "name": "HookSet",
      "type": "event"
    },
    {
      "anonymous": false,
      "inputs": [
        {
          "indexed": true,
          "internalType": "address",
          "name": "experience",
          "type": "address"
        },
        {
          "indexed": true,
          "internalType": "uint256",
          "name": "fee",
          "type": "uint256"
        },
        {
          "indexed": true,
          "internalType": "bytes",
          "name": "connectionDetails",
          "type": "bytes"
        }
      ],
      "name": "JumpSuccess",
      "type": "event"
    },
    {
      "anonymous": false,
      "inputs": [
        {
          "indexed": true,
          "internalType": "address",
          "name": "location",
          "type": "address"
        }
      ],
      "name": "LocationChanged",
      "type": "event"
    },
    {
      "anonymous": false,
      "inputs": [
        {
          "indexed": true,
          "internalType": "address",
          "name": "signer",
          "type": "address"
        }
      ],
      "name": "SignerAdded",
      "type": "event"
    },
    {
      "anonymous": false,
      "inputs": [
        {
          "indexed": true,
          "internalType": "address",
          "name": "signer",
          "type": "address"
        }
      ],
      "name": "SignerRemoved",
      "type": "event"
    },
    {
      "anonymous": false,
      "inputs": [
        {
          "indexed": true,
          "internalType": "address",
          "name": "wearable",
          "type": "address"
        },
        {
          "indexed": false,
          "internalType": "uint256",
          "name": "tokenId",
          "type": "uint256"
        }
      ],
      "name": "WearableAdded",
      "type": "event"
    },
    {
      "anonymous": false,
      "inputs": [
        {
          "indexed": true,
          "internalType": "address",
          "name": "wearable",
          "type": "address"
        },
        {
          "indexed": false,
          "internalType": "uint256",
          "name": "tokenId",
          "type": "uint256"
        }
      ],
      "name": "WearableRemoved",
      "type": "event"
    },
    {
      "inputs": [
        {
          "components": [
            {
              "internalType": "address",
              "name": "asset",
              "type": "address"
            },
            {
              "internalType": "uint256",
              "name": "tokenId",
              "type": "uint256"
            }
          ],
          "internalType": "struct Wearable",
          "name": "wearable",
          "type": "tuple"
        }
      ],
      "name": "addWearable",
      "outputs": [],
      "stateMutability": "nonpayable",
      "type": "function"
    },
    {
      "inputs": [],
      "name": "appearanceDetails",
      "outputs": [
        {
          "internalType": "bytes",
          "name": "",
          "type": "bytes"
        }
      ],
      "stateMutability": "view",
      "type": "function"
    },
    {
      "inputs": [],
      "name": "assetRegistry",
      "outputs": [
        {
          "internalType": "contract IMultiAssetRegistry",
          "name": "",
          "type": "address"
        }
      ],
      "stateMutability": "view",
      "type": "function"
    },
    {
      "inputs": [],
      "name": "avatarFactory",
      "outputs": [
        {
          "internalType": "address",
          "name": "",
          "type": "address"
        }
      ],
      "stateMutability": "view",
      "type": "function"
    },
    {
      "inputs": [],
      "name": "avatarOwnerSigningNonce",
      "outputs": [
        {
          "internalType": "uint256",
          "name": "",
          "type": "uint256"
        }
      ],
      "stateMutability": "view",
      "type": "function"
    },
    {
      "inputs": [],
      "name": "avatarRegistry",
      "outputs": [
        {
          "internalType": "contract IAvatarRegistry",
          "name": "",
          "type": "address"
        }
      ],
      "stateMutability": "view",
      "type": "function"
    },
    {
      "inputs": [],
      "name": "canReceiveTokensOutsideOfExperience",
      "outputs": [
        {
          "internalType": "bool",
          "name": "",
          "type": "bool"
        }
      ],
      "stateMutability": "view",
      "type": "function"
    },
    {
      "inputs": [],
      "name": "companyRegistry",
      "outputs": [
        {
          "internalType": "contract ICompanyRegistry",
          "name": "",
          "type": "address"
        }
      ],
      "stateMutability": "view",
      "type": "function"
    },
    {
      "inputs": [
        {
          "internalType": "address",
          "name": "company",
          "type": "address"
        }
      ],
      "name": "companySigningNonce",
      "outputs": [
        {
          "internalType": "uint256",
          "name": "",
          "type": "uint256"
        }
      ],
      "stateMutability": "view",
      "type": "function"
    },
    {
      "inputs": [
        {
          "components": [
            {
              "internalType": "uint256",
              "name": "portalId",
              "type": "uint256"
            },
            {
              "internalType": "uint256",
              "name": "agreedFee",
              "type": "uint256"
            },
            {
              "internalType": "bytes",
              "name": "avatarOwnerSignature",
              "type": "bytes"
            }
          ],
          "internalType": "struct DelegatedJumpRequest",
          "name": "request",
          "type": "tuple"
        }
      ],
      "name": "delegateJump",
      "outputs": [],
      "stateMutability": "payable",
      "type": "function"
    },
    {
      "inputs": [
        {
          "components": [
            {
              "internalType": "bool",
              "name": "canReceiveTokensOutsideOfExperience",
              "type": "bool"
            },
            {
              "internalType": "bytes",
              "name": "appearanceDetails",
              "type": "bytes"
            }
          ],
          "internalType": "struct AvatarInitData",
          "name": "data",
          "type": "tuple"
        }
      ],
      "name": "encodeInitData",
      "outputs": [
        {
          "internalType": "bytes",
          "name": "",
          "type": "bytes"
        }
      ],
      "stateMutability": "pure",
      "type": "function"
    },
    {
      "inputs": [],
      "name": "experienceRegistry",
      "outputs": [
        {
          "internalType": "contract IExperienceRegistry",
          "name": "",
          "type": "address"
        }
      ],
      "stateMutability": "view",
      "type": "function"
    },
    {
      "inputs": [],
      "name": "getWearables",
      "outputs": [
        {
          "components": [
            {
              "internalType": "address",
              "name": "asset",
              "type": "address"
            },
            {
              "internalType": "uint256",
              "name": "tokenId",
              "type": "uint256"
            }
          ],
          "internalType": "struct Wearable[]",
          "name": "",
          "type": "tuple[]"
        }
      ],
      "stateMutability": "view",
      "type": "function"
    },
    {
      "inputs": [],
      "name": "hook",
      "outputs": [
        {
          "internalType": "contract IAvatarHook",
          "name": "",
          "type": "address"
        }
      ],
      "stateMutability": "view",
      "type": "function"
    },
    {
      "inputs": [
        {
          "internalType": "address",
          "name": "_owner",
          "type": "address"
        },
        {
          "internalType": "address",
          "name": "defaultExperience",
          "type": "address"
        },
        {
          "internalType": "string",
          "name": "_name",
          "type": "string"
        },
        {
          "internalType": "bytes",
          "name": "initData",
          "type": "bytes"
        }
      ],
      "name": "init",
      "outputs": [],
      "stateMutability": "nonpayable",
      "type": "function"
    },
    {
      "inputs": [
        {
          "components": [
            {
              "internalType": "address",
              "name": "asset",
              "type": "address"
            },
            {
              "internalType": "uint256",
              "name": "tokenId",
              "type": "uint256"
            }
          ],
          "internalType": "struct Wearable",
          "name": "wearable",
          "type": "tuple"
        }
      ],
      "name": "isWearing",
      "outputs": [
        {
          "internalType": "bool",
          "name": "",
          "type": "bool"
        }
      ],
      "stateMutability": "view",
      "type": "function"
    },
    {
      "inputs": [
        {
          "components": [
            {
              "internalType": "uint256",
              "name": "portalId",
              "type": "uint256"
            },
            {
              "internalType": "uint256",
              "name": "agreedFee",
              "type": "uint256"
            },
            {
              "internalType": "bytes",
              "name": "destinationCompanySignature",
              "type": "bytes"
            }
          ],
          "internalType": "struct AvatarJumpRequest",
          "name": "request",
          "type": "tuple"
        }
      ],
      "name": "jump",
      "outputs": [],
      "stateMutability": "payable",
      "type": "function"
    },
    {
      "inputs": [],
      "name": "location",
      "outputs": [
        {
          "internalType": "contract IExperience",
          "name": "",
          "type": "address"
        }
      ],
      "stateMutability": "view",
      "type": "function"
    },
    {
      "inputs": [
        {
          "internalType": "address",
          "name": "",
          "type": "address"
        },
        {
          "internalType": "address",
          "name": "",
          "type": "address"
        },
        {
          "internalType": "uint256",
          "name": "tokenId",
          "type": "uint256"
        },
        {
          "internalType": "bytes",
          "name": "",
          "type": "bytes"
        }
      ],
      "name": "onERC721Received",
      "outputs": [
        {
          "internalType": "bytes4",
          "name": "",
          "type": "bytes4"
        }
      ],
      "stateMutability": "nonpayable",
      "type": "function"
    },
    {
      "inputs": [
        {
          "internalType": "uint256",
          "name": "tokenId",
          "type": "uint256"
        }
      ],
      "name": "onERC721Revoked",
      "outputs": [],
      "stateMutability": "nonpayable",
      "type": "function"
    },
    {
      "inputs": [],
      "name": "owner",
      "outputs": [
        {
          "internalType": "address",
          "name": "",
          "type": "address"
        }
      ],
      "stateMutability": "view",
      "type": "function"
    },
    {
      "inputs": [],
      "name": "portalRegistry",
      "outputs": [
        {
          "internalType": "contract IPortalRegistry",
          "name": "",
          "type": "address"
        }
      ],
      "stateMutability": "view",
      "type": "function"
    },
    {
      "inputs": [],
      "name": "removeHook",
      "outputs": [],
      "stateMutability": "nonpayable",
      "type": "function"
    },
    {
      "inputs": [
        {
          "components": [
            {
              "internalType": "address",
              "name": "asset",
              "type": "address"
            },
            {
              "internalType": "uint256",
              "name": "tokenId",
              "type": "uint256"
            }
          ],
          "internalType": "struct Wearable",
          "name": "wearable",
          "type": "tuple"
        }
      ],
      "name": "removeWearable",
      "outputs": [],
      "stateMutability": "nonpayable",
      "type": "function"
    },
    {
      "inputs": [
        {
          "internalType": "bytes",
          "name": "details",
          "type": "bytes"
        }
      ],
      "name": "setAppearanceDetails",
      "outputs": [],
      "stateMutability": "nonpayable",
      "type": "function"
    },
    {
      "inputs": [
        {
          "internalType": "bool",
          "name": "canReceive",
          "type": "bool"
        }
      ],
      "name": "setCanReceiveTokensOutsideOfExperience",
      "outputs": [],
      "stateMutability": "nonpayable",
      "type": "function"
    },
    {
      "inputs": [
        {
          "internalType": "contract IAvatarHook",
          "name": "_hook",
          "type": "address"
        }
      ],
      "name": "setHook",
      "outputs": [],
      "stateMutability": "nonpayable",
      "type": "function"
    },
    {
      "inputs": [
        {
          "internalType": "bytes",
          "name": "initData",
          "type": "bytes"
        }
      ],
      "name": "upgrade",
      "outputs": [],
      "stateMutability": "nonpayable",
      "type": "function"
    },
    {
      "inputs": [
        {
          "internalType": "address",
          "name": "nextVersion",
          "type": "address"
        }
      ],
      "name": "upgradeComplete",
      "outputs": [],
      "stateMutability": "nonpayable",
      "type": "function"
    },
    {
      "inputs": [],
      "name": "username",
      "outputs": [
        {
          "internalType": "string",
          "name": "",
          "type": "string"
        }
      ],
      "stateMutability": "view",
      "type": "function"
    },
    {
      "inputs": [],
      "name": "version",
      "outputs": [
        {
          "internalType": "uint256",
          "name": "",
          "type": "uint256"
        }
      ],
      "stateMutability": "view",
      "type": "function"
    },
    {
      "inputs": [
        {
          "internalType": "uint256",
          "name": "amount",
          "type": "uint256"
        }
      ],
      "name": "withdraw",
      "outputs": [],
      "stateMutability": "nonpayable",
      "type": "function"
    },
    {
      "stateMutability": "payable",
      "type": "receive"
    }
  ],
  "bytecode": "0x6101406040523480156200001257600080fd5b5060405162003bc938038062003bc9833981016040819052620000359162000367565b600160005580516001600160a01b0316620000ad5760405162461bcd60e51b815260206004820152602d60248201527f4176617461723a2061766174617220666163746f72792063616e6e6f7420626560448201526c207a65726f206164647265737360981b60648201526084015b60405180910390fd5b60408101516001600160a01b0316620001245760405162461bcd60e51b815260206004820152603260248201527f4176617461723a20657870657269656e63652072656769737472792063616e6e6044820152716f74206265207a65726f206164647265737360701b6064820152608401620000a4565b60608101516001600160a01b0316620001975760405162461bcd60e51b815260206004820152602e60248201527f4176617461723a20706f7274616c2072656769737472792063616e6e6f74206260448201526d65207a65726f206164647265737360901b6064820152608401620000a4565b60808101516001600160a01b03166200020b5760405162461bcd60e51b815260206004820152602f60248201527f4176617461723a20636f6d70616e792072656769737472792063616e6e6f742060448201526e6265207a65726f206164647265737360881b6064820152608401620000a4565b60208101516001600160a01b03166200027e5760405162461bcd60e51b815260206004820152602e60248201527f4176617461723a206176617461722072656769737472792063616e6e6f74206260448201526d65207a65726f206164647265737360901b6064820152608401620000a4565b60a08101516001600160a01b0316620003005760405162461bcd60e51b815260206004820152603360248201527f4176617461723a206d756c74692d61737365742072656769737472792063616e60448201527f6e6f74206265207a65726f2061646472657373000000000000000000000000006064820152608401620000a4565b80516001600160a01b0390811660809081526040830151821660c0526060830151821660e0528201518116610100526020820151811660a090815290910151166101205262000421565b80516001600160a01b03811681146200036257600080fd5b919050565b600060c082840312156200037a57600080fd5b60405160c081016001600160401b0381118282101715620003ab57634e487b7160e01b600052604160045260246000fd5b604052620003b9836200034a565b8152620003c9602084016200034a565b6020820152620003dc604084016200034a565b6040820152620003ef606084016200034a565b606082015262000402608084016200034a565b60808201526200041560a084016200034a565b60a08201529392505050565b60805160a05160c05160e0516101005161012051613704620004c5600039600081816105000152818161072701528181610c3c01526120e40152600081816105a801526118f5015260008181610574015281816113ec015281816119ec01528181611ab501526123b80152600081816104ac0152611f590152600081816105dc01526110ad015260008181610411015281816111380152611dbc01526137046000f3fe6080604052600436106101e75760003560e01c806361fac54d116101025780639be17fbc11610095578063e3d7ad7311610064578063e3d7ad73146105ca578063e427535c146105fe578063e62194f11461061e578063f890d7c91461063e57600080fd5b80639be17fbc146105225780639d870bf614610542578063b666493414610562578063c51aba2b1461059657600080fd5b80638da5cb5b116100d15780638da5cb5b146104855780638f09a6be1461049a578063949a1ddc146104ce578063979d7e86146104ee57600080fd5b806361fac54d146104335780637dc759e5146104485780637f5a7c7b1461045b5780638970220e1461047057600080fd5b8063392f56691161017a57806354cf0b391161014957806354cf0b39146103a857806354fd4d50146103c85780635cf59e1e146103dd57806360e741e8146103ff57600080fd5b8063392f56691461031b5780633dfd38731461032e57806340ac3f0b1461034e578063516f279e1461037b57600080fd5b806325394645116101b657806325394645146102a65780632663d1f7146102c65780632e1a7d4d146102e6578063378f17ff1461030657600080fd5b806303f7d3ba146101f357806312deb11a14610226578063150b7a0214610248578063181d939b1461028157600080fd5b366101ee57005b600080fd5b3480156101ff57600080fd5b5061021361020e366004612af8565b610653565b6040519081526020015b60405180910390f35b34801561023257600080fd5b50610246610241366004612b15565b610680565b005b34801561025457600080fd5b50610268610263366004612b75565b610c10565b6040516001600160e01b0319909116815260200161021d565b34801561028d57600080fd5b50610296611046565b604051901515815260200161021d565b3480156102b257600080fd5b506102466102c1366004612be7565b61105b565b3480156102d257600080fd5b506102466102e1366004612af8565b61112d565b3480156102f257600080fd5b50610246610301366004612c28565b6111e6565b34801561031257600080fd5b506102466112ce565b610246610329366004612dac565b611355565b34801561033a57600080fd5b50610246610349366004612af8565b61150a565b34801561035a57600080fd5b5061036e610369366004612df6565b611603565b60405161021d9190612ec5565b34801561038757600080fd5b5061039061162c565b6040516001600160a01b03909116815260200161021d565b3480156103b457600080fd5b506102466103c3366004612b15565b61164a565b3480156103d457600080fd5b50610213600181565b3480156103e957600080fd5b506103f26117b0565b60405161021d9190612ed8565b34801561040b57600080fd5b506103907f000000000000000000000000000000000000000000000000000000000000000081565b34801561043f57600080fd5b5061036e61183f565b610246610456366004612dac565b6118e0565b34801561046757600080fd5b50610390611bd2565b34801561047c57600080fd5b5061036e611bf0565b34801561049157600080fd5b50610390611c0d565b3480156104a657600080fd5b506103907f000000000000000000000000000000000000000000000000000000000000000081565b3480156104da57600080fd5b506102466104e9366004612f38565b611c2d565b3480156104fa57600080fd5b506103907f000000000000000000000000000000000000000000000000000000000000000081565b34801561052e57600080fd5b5061029661053d366004612b15565b611cc6565b34801561054e57600080fd5b5061024661055d366004612f6c565b611d58565b34801561056e57600080fd5b506103907f000000000000000000000000000000000000000000000000000000000000000081565b3480156105a257600080fd5b506103907f000000000000000000000000000000000000000000000000000000000000000081565b3480156105d657600080fd5b506103907f000000000000000000000000000000000000000000000000000000000000000081565b34801561060a57600080fd5b50610246610619366004612f89565b611db1565b34801561062a57600080fd5b50610246610639366004612c28565b6120ba565b34801561064a57600080fd5b50610213612313565b60008061065e612328565b6001600160a01b03909316600090815260059093016020525050604090205490565b600061068a612328565b805490915061010090046001600160a01b031633146106c45760405162461bcd60e51b81526004016106bb90613028565b60405180910390fd5b60006106d36020840184612af8565b6001600160a01b0316036106f95760405162461bcd60e51b81526004016106bb90613071565b600082602001351161071d5760405162461bcd60e51b81526004016106bb906130be565b6001600160a01b037f00000000000000000000000000000000000000000000000000000000000000001663adec56186107596020850185612af8565b6040516001600160e01b031960e084901b1681526001600160a01b039091166004820152602401602060405180830381865afa15801561079d573d6000803e3d6000fd5b505050506040513d601f19601f820116820180604052508101906107c19190613105565b61081b5760405162461bcd60e51b815260206004820152602560248201527f4176617461723a207765617261626c65206173736574206e6f742072656769736044820152641d195c995960da1b60648201526084016106bb565b600061082a6020840184612af8565b9050600061083661162c565b90506108456020850185612af8565b6001600160a01b0316633fa47f176040518060a001604052808760000160208101906108719190612af8565b6001600160a01b03168152602001846001600160a01b03166330b67baa6040518163ffffffff1660e01b8152600401602060405180830381865afa1580156108bd573d6000803e3d6000fd5b505050506040513d601f19601f820116820180604052508101906108e19190613122565b6001600160a01b03168152602001846001600160a01b0316636904c94d6040518163ffffffff1660e01b8152600401602060405180830381865afa15801561092d573d6000803e3d6000fd5b505050506040513d601f19601f820116820180604052508101906109519190613122565b6001600160a01b03908116825285811660208084019190915230604093840152825160e086901b6001600160e01b031916815284518316600482015290840151821660248201529183015181166044830152606083015181166064830152608090920151909116608482015260a401602060405180830381865afa1580156109dd573d6000803e3d6000fd5b505050506040513d601f19601f82011682018060405250810190610a019190613105565b610a655760405162461bcd60e51b815260206004820152602f60248201527f4176617461723a207765617261626c652061737365742063616e6e6f7420626560448201526e103ab9b2b210313c9030bb30ba30b960891b60648201526084016106bb565b6040516331a9108f60e11b81526020850135600482015230906001600160a01b03841690636352211e90602401602060405180830381865afa158015610aaf573d6000803e3d6000fd5b505050506040513d601f19601f82011682018060405250810190610ad39190613122565b6001600160a01b031614610b3c5760405162461bcd60e51b815260206004820152602a60248201527f4176617461723a207765617261626c6520746f6b656e206e6f74206f776e656460448201526910313c9030bb30ba30b960b11b60648201526084016106bb565b6000610b46612328565b604051630dfd3df760e11b815290915073__$c011c5c9201293cae8fa3d59d203092c54$__90631bfa7bee90610b85906007850190899060040161313f565b60006040518083038186803b158015610b9d57600080fd5b505af4158015610bb1573d6000803e3d6000fd5b50610bc3925050506020860186612af8565b6001600160a01b03167fc33fdb2e96e0dba49a8cb36af300177e6ba61804be87a31a26e27ab52596ecf28660200135604051610c0191815260200190565b60405180910390a25050505050565b6000610c1a61234c565b6000610c24612328565b6040516315bd8ac360e31b81523360048201529091507f00000000000000000000000000000000000000000000000000000000000000006001600160a01b03169063adec561890602401602060405180830381865afa158015610c8b573d6000803e3d6000fd5b505050506040513d601f19601f82011682018060405250810190610caf9190613105565b610d125760405162461bcd60e51b815260206004820152602e60248201527f4176617461723a2045524337323120746f6b656e206e6f742066726f6d20726560448201526d19da5cdd195c995908185cdcd95d60921b60648201526084016106bb565b8054339060ff16610e74576000336001600160a01b0316631d1438486040518163ffffffff1660e01b8152600401602060405180830381865afa158015610d5d573d6000803e3d6000fd5b505050506040513d601f19601f82011682018060405250810190610d819190613122565b600184015460408051636904c94d60e01b815290519293506001600160a01b03909116918291636904c94d9160048083019260209291908290030181865afa158015610dd1573d6000803e3d6000fd5b505050506040513d601f19601f82011682018060405250810190610df59190613122565b6001600160a01b0316826001600160a01b031614610e715760405162461bcd60e51b815260206004820152603360248201527f4176617461723a2063616e6e6f74207265636569766520746f6b656e73206f756044820152727473696465206f6620657870657269656e636560681b60648201526084016106bb565b50505b6040516331a9108f60e11b81526004810187905230906001600160a01b03831690636352211e90602401602060405180830381865afa158015610ebb573d6000803e3d6000fd5b505050506040513d601f19601f82011682018060405250810190610edf9190613122565b6001600160a01b031614610f465760405162461bcd60e51b815260206004820152602860248201527f4176617461723a2045524337323120746f6b656e206e6f74206f776e656420626044820152673c9030bb30ba30b960c11b60648201526084016106bb565b60028201546001600160a01b03161561102d576002820154604051631d9a6bd160e11b8152306004820152336024820152604481018890526001600160a01b0390911690633b34d7a2906064016020604051808303816000875af1158015610fb2573d6000803e3d6000fd5b505050506040513d601f19601f82011682018060405250810190610fd69190613105565b61102d5760405162461bcd60e51b815260206004820152602260248201527f4176617461723a20686f6f6b2072656a65637465642045524337323120746f6b60448201526132b760f11b60648201526084016106bb565b5050600160005550630a85bd0160e11b95945050505050565b600080611051612328565b5460ff1692915050565b6000611065612328565b805490915061010090046001600160a01b031633146110965760405162461bcd60e51b81526004016106bb90613028565b60405163612ca62160e01b81526001600160a01b037f0000000000000000000000000000000000000000000000000000000000000000169063612ca621906110e49086908690600401613173565b6020604051808303816000875af1158015611103573d6000803e3d6000fd5b505050506040513d601f19601f820116820180604052508101906111279190613122565b50505050565b336001600160a01b037f000000000000000000000000000000000000000000000000000000000000000016146111755760405162461bcd60e51b81526004016106bb906131a2565b7f69198989339f34e10129e514286bde98979351148754faef989dde18bf6d14da80546001600160a01b031981166001600160a01b03848116918217845560405192169182907f722ee95a7e2eed3235f2e3bdb62d3f6e70079578905580fbf8bb414519dd617290600090a3505050565b60006111f0612328565b805490915061010090046001600160a01b031633146112215760405162461bcd60e51b81526004016106bb90613028565b478211156112855760405162461bcd60e51b815260206004820152602b60248201527f4176617461723a20696e73756666696369656e742062616c616e636520666f7260448201526a081dda5d1a191c985dd85b60aa1b60648201526084016106bb565b600061128f612328565b80546040519192506001600160a01b0361010090910416904780156108fc02916000818181858888f19350505050158015611127573d6000803e3d6000fd5b60006112d8612328565b805490915061010090046001600160a01b031633146113095760405162461bcd60e51b81526004016106bb90613028565b6000611313612328565b6002810180546001600160a01b03191690556040519091507f4abf6d25887ff6b78026f569f956b6d57d5b92cecf0ee91d897ec98e47f656a390600090a15050565b600061135f612328565b805490915061010090046001600160a01b031633146113905760405162461bcd60e51b81526004016106bb90613028565b600061139b83612376565b6040810151909150156113dc5760006113b43447613203565b905081604001518110156113da5760405162461bcd60e51b81526004016106bb90613216565b505b60006113e6612328565b905060007f00000000000000000000000000000000000000000000000000000000000000006001600160a01b03166384c4484e846040015187600001516040518363ffffffff1660e01b815260040161144191815260200190565b60006040518083038185885af115801561145f573d6000803e3d6000fd5b50505050506040513d6000823e601f3d908101601f1916820160405261148891908101906132a2565b83516001840180546001600160a01b0319166001600160a01b039092169190911790556040519091506114bc9082906132d6565b6040518091039020836040015184600001516001600160a01b03167fe6b8160f723fcdb4c3cb8bf86e99d55e311c607a791f7503cc16dfaff3271e4360405160405180910390a45050505050565b6000611514612328565b805490915061010090046001600160a01b031633146115455760405162461bcd60e51b81526004016106bb90613028565b6001600160a01b0382166115a75760405162461bcd60e51b815260206004820152602360248201527f4176617461723a20686f6f6b2063616e6e6f74206265207a65726f206164647260448201526265737360e81b60648201526084016106bb565b60006115b1612328565b6002810180546001600160a01b0319166001600160a01b038616908117909155604051919250907f4eab7b127c764308788622363ad3e9532de3dfba7845bd4f84c125a22544255a90600090a2505050565b60608160405160200161161691906132f2565b6040516020818303038152906040529050919050565b600080611637612328565b600101546001600160a01b031692915050565b6000611654612328565b805490915061010090046001600160a01b031633146116855760405162461bcd60e51b81526004016106bb90613028565b60006116946020840184612af8565b6001600160a01b0316036116ba5760405162461bcd60e51b81526004016106bb90613071565b60008260200135116116de5760405162461bcd60e51b81526004016106bb906130be565b60006116e8612328565b6040516358888ef160e01b815290915073__$c011c5c9201293cae8fa3d59d203092c54$__906358888ef190611727906007850190879060040161313f565b60006040518083038186803b15801561173f57600080fd5b505af4158015611753573d6000803e3d6000fd5b50611765925050506020840184612af8565b6001600160a01b03167f60c3791748d09484f5d949c7570a640dad2f40bbebc2571b8f6c0e6a13e96fac84602001356040516117a391815260200190565b60405180910390a2505050565b606060006117bc612328565b6040516372a9762360e11b815260078201600482015290915073__$c011c5c9201293cae8fa3d59d203092c54$__9063e552ec4690602401600060405180830381865af4158015611811573d6000803e3d6000fd5b505050506040513d6000823e601f3d908101601f191682016040526118399190810190613319565b91505090565b6060600061184b612328565b905080600301805461185c906133ee565b80601f0160208091040260200160405190810160405280929190818152602001828054611888906133ee565b80156118d55780601f106118aa576101008083540402835291602001916118d5565b820191906000526020600020905b8154815290600101906020018083116118b857829003601f168201915b505050505091505090565b604051632405672560e21b81523360048201527f00000000000000000000000000000000000000000000000000000000000000006001600160a01b0316906390159c9490602401602060405180830381865afa158015611944573d6000803e3d6000fd5b505050506040513d601f19601f820116820180604052508101906119689190613105565b6119c75760405162461bcd60e51b815260206004820152602a60248201527f4176617461723a2063616c6c6572206973206e6f742061207265676973746572604482015269656420636f6d70616e7960b01b60648201526084016106bb565b6119d08161261e565b8051604051630a22d5a160e21b81526000916001600160a01b037f0000000000000000000000000000000000000000000000000000000000000000169163288b568491611a239160040190815260200190565b608060405180830381865afa158015611a40573d6000803e3d6000fd5b505050506040513d601f19601f82011682018060405250810190611a649190613422565b604081015190915015611aa5576000611a7d3447613203565b90508160400151811015611aa35760405162461bcd60e51b81526004016106bb90613216565b505b6000611aaf612328565b905060007f00000000000000000000000000000000000000000000000000000000000000006001600160a01b03166384c4484e846040015186600001516040518363ffffffff1660e01b8152600401611b0a91815260200190565b60006040518083038185885af1158015611b28573d6000803e3d6000fd5b50505050506040513d6000823e601f3d908101601f19168201604052611b5191908101906132a2565b83516001840180546001600160a01b0319166001600160a01b03909216919091179055604051909150611b859082906132d6565b6040518091039020836040015184600001516001600160a01b03167fe6b8160f723fcdb4c3cb8bf86e99d55e311c607a791f7503cc16dfaff3271e4360405160405180910390a450505050565b600080611bdd612328565b600201546001600160a01b031692915050565b60606000611bfc612328565b905080600401805461185c906133ee565b600080611c18612328565b5461010090046001600160a01b031692915050565b6000611c37612328565b805490915061010090046001600160a01b03163314611c685760405162461bcd60e51b81526004016106bb90613028565b6000611c72612328565b905060048101611c8284826134ee565b5082604051611c9191906132d6565b604051908190038120907fe8ed633186ac64f9f0ab9b48cb1cca12eebe0f7e0ffdc46908733a060363236690600090a2505050565b600080611cd1612328565b604051633661870560e11b815290915073__$c011c5c9201293cae8fa3d59d203092c54$__90636cc30e0a90611d10906007850190879060040161313f565b602060405180830381865af4158015611d2d573d6000803e3d6000fd5b505050506040513d601f19601f82011682018060405250810190611d519190613105565b9392505050565b6000611d62612328565b805490915061010090046001600160a01b03163314611d935760405162461bcd60e51b81526004016106bb90613028565b6000611d9d612328565b805460ff1916931515939093179092555050565b336001600160a01b037f00000000000000000000000000000000000000000000000000000000000000001614611df95760405162461bcd60e51b81526004016106bb906131a2565b6000611e03612328565b805490915061010090046001600160a01b031615611e6f5760405162461bcd60e51b8152602060048201526024808201527f4176617461723a20636f6e747261637420616c726561647920696e697469616c6044820152631a5e995960e21b60648201526084016106bb565b600082806020019051810190611e8591906135ad565b90506000845111611ed85760405162461bcd60e51b815260206004820181905260248201527f4176617461723a20757365726e616d652063616e6e6f7420626520656d70747960448201526064016106bb565b6001600160a01b038616611f3a5760405162461bcd60e51b8152602060048201526024808201527f4176617461723a206f776e65722063616e6e6f74206265207a65726f206164646044820152637265737360e01b60648201526084016106bb565b604051630262286360e41b81526001600160a01b0386811660048301527f00000000000000000000000000000000000000000000000000000000000000001690632622863090602401602060405180830381865afa158015611fa0573d6000803e3d6000fd5b505050506040513d601f19601f82011682018060405250810190611fc49190613105565b6120365760405162461bcd60e51b815260206004820152603960248201527f4176617461723a2064656661756c7420657870657269656e6365206973206e6f60448201527f742061207265676973746572656420657870657269656e63650000000000000060648201526084016106bb565b6003820161204485826134ee565b506001820180546001600160a01b0319166001600160a01b0387161790558051825460ff19169015151782556020810151600483019061208490826134ee565b505080546001600160a01b0390951661010002610100600160a81b0319909516949094178455505060c8600a9092019190915550565b6120c261234c565b60006120cc612328565b6040516315bd8ac360e31b81523360048201529091507f00000000000000000000000000000000000000000000000000000000000000006001600160a01b03169063adec561890602401602060405180830381865afa158015612133573d6000803e3d6000fd5b505050506040513d601f19601f820116820180604052508101906121579190613105565b6121c15760405162461bcd60e51b815260206004820152603560248201527f4176617461723a206f6e6c79207265676973746572656420617373657473206360448201527430b71031b0b636103a3434b990333ab731ba34b7b760591b60648201526084016106bb565b6040516331a9108f60e11b81526004810183905233908190636352211e90602401602060405180830381865afa92505050801561221b575060408051601f3d908101601f1916820190925261221891810190613122565b60015b6122a9576040805180820182526001600160a01b03831681526020810185905290516358888ef160e01b815273__$c011c5c9201293cae8fa3d59d203092c54$__916358888ef19161227491600787019160040161361d565b60006040518083038186803b15801561228c57600080fd5b505af41580156122a0573d6000803e3d6000fd5b50505050612304565b60405162461bcd60e51b815260206004820152602a60248201527f4176617461723a2045524337323120746f6b656e207374696c6c206f776e656460448201526910313c9030bb30ba30b960b11b60648201526084016106bb565b50506123106001600055565b50565b60008061231e612328565b6006015492915050565b7fd38682225e685e93013f8a112db34d1d514857ac4394636132822a0c0fe2045090565b60026000540361236f57604051633ee5aeb560e01b815260040160405180910390fd5b6002600055565b60408051608081018252600080825260208201819052818301819052606082015282519151630a22d5a160e21b81526004810192909252906001600160a01b037f0000000000000000000000000000000000000000000000000000000000000000169063288b568490602401608060405180830381865afa1580156123ff573d6000803e3d6000fd5b505050506040513d601f19601f820116820180604052508101906124239190613422565b9050600081600001516001600160a01b0316636904c94d6040518163ffffffff1660e01b8152600401602060405180830381865afa158015612469573d6000803e3d6000fd5b505050506040513d601f19601f8201168201806040525081019061248d9190613122565b90506000612499612328565b6001600160a01b038316600090815260058201602052604081208054929350906124c283613644565b9091555084516020808701516040805192830193909352918101919091526060810182905260009060800160408051808303601f19018152828252805160209182012081845283830190925290925060009190602082018180368337019050509050816020820152600061253582612739565b90506000612547828a60400151612774565b604051637df73e2760e01b81526001600160a01b03808316600483015291925090881690637df73e2790602401602060405180830381865afa158015612591573d6000803e3d6000fd5b505050506040513d601f19601f820116820180604052508101906125b59190613105565b6126125760405162461bcd60e51b815260206004820152602860248201527f4176617461723a20636f6d70616e79207369676e6572206973206e6f742061756044820152671d1a1bdc9a5e995960c21b60648201526084016106bb565b50505050505050919050565b6000612628612328565b600681018054919250600061263c83613644565b9091555082516020808501516040805192830193909352918101919091526060810182905260009060800160408051808303601f1901815282825280516020918201208184528383019092529092506000919060208201818036833701905050905081602082015260006126af82612739565b905060006126c1828860400151612774565b86549091506001600160a01b0380831661010090920416146127305760405162461bcd60e51b815260206004820152602260248201527f4176617461723a20617661746172207369676e6572206973206e6f74206f776e60448201526132b960f11b60648201526084016106bb565b50505050505050565b600061274582516127a0565b8260405160200161275792919061365d565b604051602081830303815290604052805190602001209050919050565b6000806000806127848686612832565b925092509250612794828261287f565b50909150505b92915050565b606060006127ad8361293c565b60010190506000816001600160401b038111156127cc576127cc612c41565b6040519080825280601f01601f1916602001820160405280156127f6576020820181803683370190505b5090508181016020015b600019016f181899199a1a9b1b9c1cb0b131b232b360811b600a86061a8153600a850494508461280057509392505050565b6000806000835160410361286c5760208401516040850151606086015160001a61285e88828585612a14565b955095509550505050612878565b50508151600091506002905b9250925092565b6000826003811115612893576128936136b8565b0361289c575050565b60018260038111156128b0576128b06136b8565b036128ce5760405163f645eedf60e01b815260040160405180910390fd5b60028260038111156128e2576128e26136b8565b036129035760405163fce698f760e01b8152600481018290526024016106bb565b6003826003811115612917576129176136b8565b03612938576040516335e2f38360e21b8152600481018290526024016106bb565b5050565b60008072184f03e93ff9f4daa797ed6e38ed64bf6a1f0160401b831061297b5772184f03e93ff9f4daa797ed6e38ed64bf6a1f0160401b830492506040015b6d04ee2d6d415b85acef810000000083106129a7576d04ee2d6d415b85acef8100000000830492506020015b662386f26fc1000083106129c557662386f26fc10000830492506010015b6305f5e10083106129dd576305f5e100830492506008015b61271083106129f157612710830492506004015b60648310612a03576064830492506002015b600a831061279a5760010192915050565b600080807f7fffffffffffffffffffffffffffffff5d576e7357a4501ddfe92f46681b20a0841115612a4f5750600091506003905082612ad9565b604080516000808252602082018084528a905260ff891692820192909252606081018790526080810186905260019060a0016020604051602081039080840390855afa158015612aa3573d6000803e3d6000fd5b5050604051601f1901519150506001600160a01b038116612acf57506000925060019150829050612ad9565b9250600091508190505b9450945094915050565b6001600160a01b038116811461231057600080fd5b600060208284031215612b0a57600080fd5b8135611d5181612ae3565b600060408284031215612b2757600080fd5b50919050565b60008083601f840112612b3f57600080fd5b5081356001600160401b03811115612b5657600080fd5b602083019150836020828501011115612b6e57600080fd5b9250929050565b600080600080600060808688031215612b8d57600080fd5b8535612b9881612ae3565b94506020860135612ba881612ae3565b93506040860135925060608601356001600160401b03811115612bca57600080fd5b612bd688828901612b2d565b969995985093965092949392505050565b60008060208385031215612bfa57600080fd5b82356001600160401b03811115612c1057600080fd5b612c1c85828601612b2d565b90969095509350505050565b600060208284031215612c3a57600080fd5b5035919050565b634e487b7160e01b600052604160045260246000fd5b604080519081016001600160401b0381118282101715612c7957612c79612c41565b60405290565b604051601f8201601f191681016001600160401b0381118282101715612ca757612ca7612c41565b604052919050565b60006001600160401b03821115612cc857612cc8612c41565b50601f01601f191660200190565b6000612ce9612ce484612caf565b612c7f565b9050828152838383011115612cfd57600080fd5b828260208301376000602084830101529392505050565b600082601f830112612d2557600080fd5b611d5183833560208501612cd6565b600060608284031215612d4657600080fd5b604051606081016001600160401b038282108183111715612d6957612d69612c41565b8160405282935084358352602085013560208401526040850135915080821115612d9257600080fd5b50612d9f85828601612d14565b6040830152505092915050565b600060208284031215612dbe57600080fd5b81356001600160401b03811115612dd457600080fd5b612de084828501612d34565b949350505050565b801515811461231057600080fd5b600060208284031215612e0857600080fd5b81356001600160401b0380821115612e1f57600080fd5b9083019060408286031215612e3357600080fd5b612e3b612c57565b8235612e4681612de8565b8152602083013582811115612e5a57600080fd5b612e6687828601612d14565b60208301525095945050505050565b60005b83811015612e90578181015183820152602001612e78565b50506000910152565b60008151808452612eb1816020860160208601612e75565b601f01601f19169290920160200192915050565b602081526000611d516020830184612e99565b602080825282518282018190526000919060409081850190868401855b82811015612f2b57612f1b84835180516001600160a01b03168252602090810151910152565b9284019290850190600101612ef5565b5091979650505050505050565b600060208284031215612f4a57600080fd5b81356001600160401b03811115612f6057600080fd5b612de084828501612d14565b600060208284031215612f7e57600080fd5b8135611d5181612de8565b60008060008060808587031215612f9f57600080fd5b8435612faa81612ae3565b93506020850135612fba81612ae3565b925060408501356001600160401b0380821115612fd657600080fd5b818701915087601f830112612fea57600080fd5b612ff988833560208501612cd6565b9350606087013591508082111561300f57600080fd5b5061301c87828801612d14565b91505092959194509250565b60208082526029908201527f4176617461723a206f6e6c79206f776e65722063616e2063616c6c207468697360408201526810333ab731ba34b7b760b91b606082015260800190565b6020808252602d908201527f4176617461723a207765617261626c652061737365742063616e6e6f7420626560408201526c207a65726f206164647265737360981b606082015260800190565b60208082526027908201527f4176617461723a207765617261626c6520746f6b656e49642063616e6e6f74206040820152666265207a65726f60c81b606082015260800190565b60006020828403121561311757600080fd5b8151611d5181612de8565b60006020828403121561313457600080fd5b8151611d5181612ae3565b82815260608101823561315181612ae3565b6001600160a01b03166020838101919091529290920135604090910152919050565b60208152816020820152818360408301376000818301604090810191909152601f909201601f19160101919050565b6020808252602b908201527f4176617461723a206f6e6c7920666163746f72792063616e2063616c6c20746860408201526a34b990333ab731ba34b7b760a91b606082015260800190565b634e487b7160e01b600052601160045260246000fd5b8082018082111561279a5761279a6131ed565b60208082526027908201527f4176617461723a20696e73756666696369656e742066756e647320666f72206a604082015266756d702066656560c81b606082015260800190565b600082601f83011261326e57600080fd5b815161327c612ce482612caf565b81815284602083860101111561329157600080fd5b612de0826020830160208701612e75565b6000602082840312156132b457600080fd5b81516001600160401b038111156132ca57600080fd5b612de08482850161325d565b600082516132e8818460208701612e75565b9190910192915050565b6020815281511515602082015260006020830151604080840152612de06060840182612e99565b6000602080838503121561332c57600080fd5b82516001600160401b038082111561334357600080fd5b818501915085601f83011261335757600080fd5b81518181111561336957613369612c41565b613377848260051b01612c7f565b818152848101925060069190911b83018401908782111561339757600080fd5b928401925b818410156133e357604084890312156133b55760008081fd5b6133bd612c57565b84516133c881612ae3565b8152848601518682015283526040909301929184019161339c565b979650505050505050565b600181811c9082168061340257607f821691505b602082108103612b2757634e487b7160e01b600052602260045260246000fd5b60006080828403121561343457600080fd5b604051608081018181106001600160401b038211171561345657613456612c41565b604052825161346481612ae3565b8152602083015161347481612ae3565b602082015260408381015190820152606083015161349181612de8565b60608201529392505050565b601f8211156134e9576000816000526020600020601f850160051c810160208610156134c65750805b601f850160051c820191505b818110156134e5578281556001016134d2565b5050505b505050565b81516001600160401b0381111561350757613507612c41565b61351b8161351584546133ee565b8461349d565b602080601f83116001811461355057600084156135385750858301515b600019600386901b1c1916600185901b1785556134e5565b600085815260208120601f198616915b8281101561357f57888601518255948401946001909101908401613560565b508582101561359d5787850151600019600388901b60f8161c191681555b5050505050600190811b01905550565b6000602082840312156135bf57600080fd5b81516001600160401b03808211156135d657600080fd5b90830190604082860312156135ea57600080fd5b6135f2612c57565b82516135fd81612de8565b815260208301518281111561361157600080fd5b612e668782860161325d565b82815260608101611d51602083018480516001600160a01b03168252602090810151910152565b600060018201613656576136566131ed565b5060010190565b7f19457468657265756d205369676e6564204d6573736167653a0a00000000000081526000835161369581601a850160208801612e75565b8351908301906136ac81601a840160208801612e75565b01601a01949350505050565b634e487b7160e01b600052602160045260246000fdfea264697066735822122041f618fe1b847c289b4e5524e0d71f628f249a201d9874a7972ec28ee832f21464736f6c63430008180033",
  "linkReferences": {
    "contracts/libraries/LibLinkedList.sol": {
      "LibLinkedList": [
        {
          "length": 20,
          "start": 4125
        },
        {
          "length": 20,
          "start": 7103
        },
        {
          "length": 20,
          "start": 7324
        },
        {
          "length": 20,
          "start": 8616
        },
        {
          "length": 20,
          "start": 9998
        }
      ]
    }
  },
  "deployedLinkReferences": {
    "contracts/libraries/LibLinkedList.sol": {
      "LibLinkedList": [
        {
          "length": 20,
          "start": 2904
        },
        {
          "length": 20,
          "start": 5882
        },
        {
          "length": 20,
          "start": 6103
        },
        {
          "length": 20,
          "start": 7395
        },
        {
          "length": 20,
          "start": 8777
        }
      ]
    }
  }
}