{
  "_format": "hh-sol-artifact-1",
  "contractName": "WorldRegistry",
  "sourceName": "contracts/world/WorldRegistry.sol",
  "abi": [
    {
      "inputs": [
        {
          "internalType": "contract IRegistrarRegistry",
          "name": "regRegistry",
          "type": "address"
        },
        {
          "internalType": "contract IWorldFactory",
          "name": "factory",
          "type": "address"
        },
        {
          "internalType": "address",
          "name": "defaultAdmin",
          "type": "address"
        }
      ],
      "stateMutability": "nonpayable",
      "type": "constructor"
    },
    {
      "inputs": [],
      "name": "AccessControlBadConfirmation",
      "type": "error"
    },
    {
      "inputs": [
        {
          "internalType": "address",
          "name": "account",
          "type": "address"
        },
        {
          "internalType": "bytes32",
          "name": "neededRole",
          "type": "bytes32"
        }
      ],
      "name": "AccessControlUnauthorizedAccount",
      "type": "error"
    },
    {
      "anonymous": false,
      "inputs": [
        {
          "indexed": true,
          "internalType": "bytes32",
          "name": "role",
          "type": "bytes32"
        },
        {
          "indexed": true,
          "internalType": "bytes32",
          "name": "previousAdminRole",
          "type": "bytes32"
        },
        {
          "indexed": true,
          "internalType": "bytes32",
          "name": "newAdminRole",
          "type": "bytes32"
        }
      ],
      "name": "RoleAdminChanged",
      "type": "event"
    },
    {
      "anonymous": false,
      "inputs": [
        {
          "indexed": true,
          "internalType": "bytes32",
          "name": "role",
          "type": "bytes32"
        },
        {
          "indexed": true,
          "internalType": "address",
          "name": "account",
          "type": "address"
        },
        {
          "indexed": true,
          "internalType": "address",
          "name": "sender",
          "type": "address"
        }
      ],
      "name": "RoleGranted",
      "type": "event"
    },
    {
      "anonymous": false,
      "inputs": [
        {
          "indexed": true,
          "internalType": "bytes32",
          "name": "role",
          "type": "bytes32"
        },
        {
          "indexed": true,
          "internalType": "address",
          "name": "account",
          "type": "address"
        },
        {
          "indexed": true,
          "internalType": "address",
          "name": "sender",
          "type": "address"
        }
      ],
      "name": "RoleRevoked",
      "type": "event"
    },
    {
      "anonymous": false,
      "inputs": [
        {
          "indexed": true,
          "internalType": "address",
          "name": "world",
          "type": "address"
        },
        {
          "indexed": true,
          "internalType": "address",
          "name": "owner",
          "type": "address"
        },
        {
          "components": [
            {
              "internalType": "string",
              "name": "x",
              "type": "string"
            },
            {
              "internalType": "string",
              "name": "y",
              "type": "string"
            },
            {
              "internalType": "string",
              "name": "z",
              "type": "string"
            },
            {
              "internalType": "uint256",
              "name": "t",
              "type": "uint256"
            },
            {
              "internalType": "uint256",
              "name": "p",
              "type": "uint256"
            },
            {
              "internalType": "uint256",
              "name": "p_sub",
              "type": "uint256"
            }
          ],
          "indexed": false,
          "internalType": "struct VectorAddress",
          "name": "vectorAddress",
          "type": "tuple"
        }
      ],
      "name": "WorldRegistered",
      "type": "event"
    },
    {
      "inputs": [],
      "name": "DEFAULT_ADMIN_ROLE",
      "outputs": [
        {
          "internalType": "bytes32",
          "name": "",
          "type": "bytes32"
        }
      ],
      "stateMutability": "view",
      "type": "function"
    },
    {
      "inputs": [
        {
          "internalType": "bytes32",
          "name": "role",
          "type": "bytes32"
        }
      ],
      "name": "getRoleAdmin",
      "outputs": [
        {
          "internalType": "bytes32",
          "name": "",
          "type": "bytes32"
        }
      ],
      "stateMutability": "view",
      "type": "function"
    },
    {
      "inputs": [
        {
          "internalType": "bytes32",
          "name": "role",
          "type": "bytes32"
        },
        {
          "internalType": "address",
          "name": "account",
          "type": "address"
        }
      ],
      "name": "grantRole",
      "outputs": [],
      "stateMutability": "nonpayable",
      "type": "function"
    },
    {
      "inputs": [
        {
          "internalType": "bytes32",
          "name": "role",
          "type": "bytes32"
        },
        {
          "internalType": "address",
          "name": "account",
          "type": "address"
        }
      ],
      "name": "hasRole",
      "outputs": [
        {
          "internalType": "bool",
          "name": "",
          "type": "bool"
        }
      ],
      "stateMutability": "view",
      "type": "function"
    },
    {
      "inputs": [
        {
          "internalType": "address",
          "name": "world",
          "type": "address"
        }
      ],
      "name": "isWorld",
      "outputs": [
        {
          "internalType": "bool",
          "name": "",
          "type": "bool"
        }
      ],
      "stateMutability": "view",
      "type": "function"
    },
    {
      "inputs": [
        {
          "internalType": "uint256",
          "name": "registrarId",
          "type": "uint256"
        },
        {
          "internalType": "address",
          "name": "_owner",
          "type": "address"
        },
        {
          "internalType": "bytes",
          "name": "initData",
          "type": "bytes"
        },
        {
          "internalType": "bool",
          "name": "tokensToOwner",
          "type": "bool"
        }
      ],
      "name": "register",
      "outputs": [],
      "stateMutability": "payable",
      "type": "function"
    },
    {
      "inputs": [],
      "name": "registrarRegistry",
      "outputs": [
        {
          "internalType": "contract IRegistrarRegistry",
          "name": "",
          "type": "address"
        }
      ],
      "stateMutability": "view",
      "type": "function"
    },
    {
      "inputs": [
        {
          "internalType": "bytes32",
          "name": "role",
          "type": "bytes32"
        },
        {
          "internalType": "address",
          "name": "callerConfirmation",
          "type": "address"
        }
      ],
      "name": "renounceRole",
      "outputs": [],
      "stateMutability": "nonpayable",
      "type": "function"
    },
    {
      "inputs": [
        {
          "internalType": "bytes32",
          "name": "role",
          "type": "bytes32"
        },
        {
          "internalType": "address",
          "name": "account",
          "type": "address"
        }
      ],
      "name": "revokeRole",
      "outputs": [],
      "stateMutability": "nonpayable",
      "type": "function"
    },
    {
      "inputs": [
        {
          "internalType": "bytes4",
          "name": "interfaceId",
          "type": "bytes4"
        }
      ],
      "name": "supportsInterface",
      "outputs": [
        {
          "internalType": "bool",
          "name": "",
          "type": "bool"
        }
      ],
      "stateMutability": "view",
      "type": "function"
    },
    {
      "inputs": [
        {
          "internalType": "uint256",
          "name": "registrarId",
          "type": "uint256"
        },
        {
          "internalType": "address",
          "name": "oldWorld",
          "type": "address"
        },
        {
          "internalType": "bytes",
          "name": "initData",
          "type": "bytes"
        }
      ],
      "name": "upgradeWorld",
      "outputs": [],
      "stateMutability": "nonpayable",
      "type": "function"
    },
    {
      "inputs": [],
      "name": "worldFactory",
      "outputs": [
        {
          "internalType": "contract IWorldFactory",
          "name": "",
          "type": "address"
        }
      ],
      "stateMutability": "view",
      "type": "function"
    },
    {
      "inputs": [
        {
          "internalType": "address",
          "name": "",
          "type": "address"
        }
      ],
      "name": "worldsByContractAddress",
      "outputs": [
        {
          "internalType": "address",
          "name": "",
          "type": "address"
        }
      ],
      "stateMutability": "view",
      "type": "function"
    },
    {
      "inputs": [
        {
          "internalType": "string",
          "name": "",
          "type": "string"
        }
      ],
      "name": "worldsByName",
      "outputs": [
        {
          "internalType": "address",
          "name": "",
          "type": "address"
        }
      ],
      "stateMutability": "view",
      "type": "function"
    },
    {
      "inputs": [
        {
          "internalType": "string",
          "name": "",
          "type": "string"
        }
      ],
      "name": "worldsVectorAddress",
      "outputs": [
        {
          "internalType": "address",
          "name": "",
          "type": "address"
        }
      ],
      "stateMutability": "view",
      "type": "function"
    }
  ],
  "bytecode": "0x60806040523480156200001157600080fd5b5060405162001a5738038062001a57833981016040819052620000349162000143565b600180546001600160a01b038086166001600160a01b0319928316179092556002805492851692909116919091179055620000716000826200007b565b5050505062000197565b6000828152602081815260408083206001600160a01b038516845290915281205460ff1662000120576000838152602081815260408083206001600160a01b03861684529091529020805460ff19166001179055620000d73390565b6001600160a01b0316826001600160a01b0316847f2f8788117e7eff1d82e926ec794901d17c78024a50270940304540a733656f0d60405160405180910390a450600162000124565b5060005b92915050565b6001600160a01b03811681146200014057600080fd5b50565b6000806000606084860312156200015957600080fd5b835162000166816200012a565b602085015190935062000179816200012a565b60408501519092506200018c816200012a565b809150509250925092565b6118b080620001a76000396000f3fe6080604052600436106100e85760003560e01c80634fd0f6ee1161008a578063d547741f11610059578063d547741f146102da578063dbdc4e62146102fa578063eee7517d1461031a578063f0ad0f3e1461033a57600080fd5b80634fd0f6ee146102515780635389c2211461026457806391d14854146102a5578063a217fddf146102c557600080fd5b8063248a9ca3116100c6578063248a9ca31461019b5780632f2ff15d146101d957806336568abe146101fb5780633fece62d1461021b57600080fd5b806301ffc9a7146100ed5780630dc3897d14610122578063186cd0361461015a575b600080fd5b3480156100f957600080fd5b5061010d61010836600461113e565b610375565b60405190151581526020015b60405180910390f35b34801561012e57600080fd5b50600254610142906001600160a01b031681565b6040516001600160a01b039091168152602001610119565b34801561016657600080fd5b50610142610175366004611207565b80516020818301810180516004825292820191909301209152546001600160a01b031681565b3480156101a757600080fd5b506101cb6101b6366004611287565b60009081526020819052604090206001015490565b604051908152602001610119565b3480156101e557600080fd5b506101f96101f43660046112b5565b6103ac565b005b34801561020757600080fd5b506101f96102163660046112b5565b6103d7565b34801561022757600080fd5b506101426102363660046112e5565b6003602052600090815260409020546001600160a01b031681565b6101f961025f366004611359565b61040f565b34801561027057600080fd5b5061014261027f366004611207565b80516020818301810180516005825292820191909301209152546001600160a01b031681565b3480156102b157600080fd5b5061010d6102c03660046112b5565b610856565b3480156102d157600080fd5b506101cb600081565b3480156102e657600080fd5b506101f96102f53660046112b5565b61087f565b34801561030657600080fd5b50600154610142906001600160a01b031681565b34801561032657600080fd5b506101f96103353660046113cd565b6108a4565b34801561034657600080fd5b5061010d6103553660046112e5565b6001600160a01b0390811660009081526003602052604090205416151590565b60006001600160e01b03198216637965db0b60e01b14806103a657506301ffc9a760e01b6001600160e01b03198316145b92915050565b6000828152602081905260409020600101546103c781610d6a565b6103d18383610d77565b50505050565b6001600160a01b03811633146104005760405163334bd91960e11b815260040160405180910390fd5b61040a8282610e09565b505050565b600154604051638c9d518f60e01b81526004810187905233602482015286916001600160a01b031690638c9d518f90604401602060405180830381865afa15801561045e573d6000803e3d6000fd5b505050506040513d601f19601f820116820180604052508101906104829190611429565b6104a75760405162461bcd60e51b815260040161049e90611446565b60405180910390fd5b60025460405163260b3c8760e21b81526000916001600160a01b03169063982cf21c906104dc90899089908990600401611494565b6020604051808303816000875af11580156104fb573d6000803e3d6000fd5b505050506040513d601f19601f8201168201806040525081019061051f91906114d4565b90506001600160a01b0381166105475760405162461bcd60e51b815260040161049e906114f1565b60006105b7826001600160a01b03166317d7de7c6040518163ffffffff1660e01b8152600401600060405180830381865afa15801561058a573d6000803e3d6000fd5b505050506040513d6000823e601f3d908101601f191682016040526105b291908101906115a6565b610e74565b905060006001600160a01b03166005826040516105d491906115db565b908152604051908190036020019020546001600160a01b03161461060a5760405162461bcd60e51b815260040161049e906115f7565b6001600160a01b03821660008181526003602052604080822080546001600160a01b03191684179055805163382af56d60e01b81529051859360049361069f93919263382af56d92808701929190819003870181865afa158015610672573d6000803e3d6000fd5b505050506040513d6000823e601f3d908101601f1916820160405261069a9190810190611639565b610ee4565b6040516106ac91906115db565b908152602001604051809103902060006101000a8154816001600160a01b0302191690836001600160a01b03160217905550816005826040516106ef91906115db565b90815260405190819003602001902080546001600160a01b03929092166001600160a01b0319909216919091179055341561079c578315610765576040516001600160a01b038816903480156108fc02916000818181858888f1935050505015801561075f573d6000803e3d6000fd5b5061079c565b6040516001600160a01b038316903480156108fc02916000818181858888f1935050505015801561079a573d6000803e3d6000fd5b505b866001600160a01b0316826001600160a01b03167fee32bdf3024960eab0cc65f92f4ab288808ff5501b8132b269630d3fa070005e846001600160a01b031663382af56d6040518163ffffffff1660e01b8152600401600060405180830381865afa15801561080f573d6000803e3d6000fd5b505050506040513d6000823e601f3d908101601f191682016040526108379190810190611639565b604051610844919061173b565b60405180910390a35050505050505050565b6000918252602082815260408084206001600160a01b0393909316845291905290205460ff1690565b60008281526020819052604090206001015461089a81610d6a565b6103d18383610e09565b600154604051638c9d518f60e01b81526004810186905233602482015285916001600160a01b031690638c9d518f90604401602060405180830381865afa1580156108f3573d6000803e3d6000fd5b505050506040513d601f19601f820116820180604052508101906109179190611429565b6109335760405162461bcd60e51b815260040161049e90611446565b6001600160a01b038085166000908152600360205260409020541661099a5760405162461bcd60e51b815260206004820152601e60248201527f576f726c6452656769737472793a20776f726c64206e6f7420666f756e640000604482015260640161049e565b6000846001600160a01b031663893d20e86040518163ffffffff1660e01b8152600401602060405180830381865afa1580156109da573d6000803e3d6000fd5b505050506040513d601f19601f820116820180604052508101906109fe91906114d4565b60025460405163260b3c8760e21b81529192506000916001600160a01b039091169063982cf21c90610a3890859089908990600401611494565b6020604051808303816000875af1158015610a57573d6000803e3d6000fd5b505050506040513d601f19601f82011682018060405250810190610a7b91906114d4565b90506001600160a01b038116610aa35760405162461bcd60e51b815260040161049e906114f1565b6001600160a01b0380871660008181526003602052604080822080546001600160a01b0319908116909155938516808352818320805490951617909355825163382af56d60e01b81529251600493610b1a939263382af56d9282870192819003870181865afa158015610672573d6000803e3d6000fd5b604051610b2791906115db565b9081526040805191829003602001822080546001600160a01b031916905563382af56d60e01b8252518291600491610b8b916001600160a01b0385169163382af56d9185810191600091819003870181865afa158015610672573d6000803e3d6000fd5b604051610b9891906115db565b908152602001604051809103902060006101000a8154816001600160a01b0302191690836001600160a01b031602179055506005610c0d876001600160a01b03166317d7de7c6040518163ffffffff1660e01b8152600401600060405180830381865afa15801561058a573d6000803e3d6000fd5b604051610c1a91906115db565b908152602001604051809103902060006101000a8154906001600160a01b0302191690556000610c81826001600160a01b03166317d7de7c6040518163ffffffff1660e01b8152600401600060405180830381865afa15801561058a573d6000803e3d6000fd5b905060006001600160a01b0316600582604051610c9e91906115db565b908152604051908190036020019020546001600160a01b031614610cd45760405162461bcd60e51b815260040161049e906115f7565b81600582604051610ce591906115db565b90815260405190819003602001812080546001600160a01b039384166001600160a01b031990911617905562900f0160e41b8152838216600482015290881690630900f01090602401600060405180830381600087803b158015610d4857600080fd5b505af1158015610d5c573d6000803e3d6000fd5b505050505050505050505050565b610d748133610f47565b50565b6000610d838383610856565b610e01576000838152602081815260408083206001600160a01b03861684529091529020805460ff19166001179055610db93390565b6001600160a01b0316826001600160a01b0316847f2f8788117e7eff1d82e926ec794901d17c78024a50270940304540a733656f0d60405160405180910390a45060016103a6565b5060006103a6565b6000610e158383610856565b15610e01576000838152602081815260408083206001600160a01b0386168085529252808320805460ff1916905551339286917ff6391f5c32d9c69d2a47ea670b442974b53935d1edc7fd64eb21e047a839171b9190a45060016103a6565b60608160005b8151811015610edd57610eac828281518110610e9857610e986117be565b01602001516001600160f81b031916610f84565b828281518110610ebe57610ebe6117be565b60200101906001600160f81b031916908160001a905350600101610e7a565b5092915050565b6060816000015182602001518360400151610f028560600151610fd3565b610f0f8660800151610fd3565b610f1c8760a00151610fd3565b604051602001610f31969594939291906117d4565b6040516020818303038152906040529050919050565b610f518282610856565b610f805760405163e2517d3f60e01b81526001600160a01b03821660048201526024810183905260440161049e565b5050565b6000604160f81b6001600160f81b0319831610801590610fb25750602d60f91b6001600160f81b0319831611155b15610fcf57610fc660f883901c6020611853565b60f81b92915050565b5090565b60606000610fe083611066565b600101905060008167ffffffffffffffff8111156110005761100061116f565b6040519080825280601f01601f19166020018201604052801561102a576020820181803683370190505b5090508181016020015b600019016f181899199a1a9b1b9c1cb0b131b232b360811b600a86061a8153600a850494508461103457509392505050565b60008072184f03e93ff9f4daa797ed6e38ed64bf6a1f0160401b83106110a55772184f03e93ff9f4daa797ed6e38ed64bf6a1f0160401b830492506040015b6d04ee2d6d415b85acef810000000083106110d1576d04ee2d6d415b85acef8100000000830492506020015b662386f26fc1000083106110ef57662386f26fc10000830492506010015b6305f5e1008310611107576305f5e100830492506008015b612710831061111b57612710830492506004015b6064831061112d576064830492506002015b600a83106103a65760010192915050565b60006020828403121561115057600080fd5b81356001600160e01b03198116811461116857600080fd5b9392505050565b634e487b7160e01b600052604160045260246000fd5b60405160c0810167ffffffffffffffff811182821017156111a8576111a861116f565b60405290565b604051601f8201601f1916810167ffffffffffffffff811182821017156111d7576111d761116f565b604052919050565b600067ffffffffffffffff8211156111f9576111f961116f565b50601f01601f191660200190565b60006020828403121561121957600080fd5b813567ffffffffffffffff81111561123057600080fd5b8201601f8101841361124157600080fd5b803561125461124f826111df565b6111ae565b81815285602083850101111561126957600080fd5b81602084016020830137600091810160200191909152949350505050565b60006020828403121561129957600080fd5b5035919050565b6001600160a01b0381168114610d7457600080fd5b600080604083850312156112c857600080fd5b8235915060208301356112da816112a0565b809150509250929050565b6000602082840312156112f757600080fd5b8135611168816112a0565b60008083601f84011261131457600080fd5b50813567ffffffffffffffff81111561132c57600080fd5b60208301915083602082850101111561134457600080fd5b9250929050565b8015158114610d7457600080fd5b60008060008060006080868803121561137157600080fd5b853594506020860135611383816112a0565b9350604086013567ffffffffffffffff81111561139f57600080fd5b6113ab88828901611302565b90945092505060608601356113bf8161134b565b809150509295509295909350565b600080600080606085870312156113e357600080fd5b8435935060208501356113f5816112a0565b9250604085013567ffffffffffffffff81111561141157600080fd5b61141d87828801611302565b95989497509550505050565b60006020828403121561143b57600080fd5b81516111688161134b565b6020808252602e908201527f576f726c6452656769737472793a2063616c6c6572206973206e6f742061207660408201526d30b634b2103932b3b4b9ba3930b960911b606082015260800190565b6001600160a01b03841681526040602082018190528101829052818360608301376000818301606090810191909152601f909201601f1916010192915050565b6000602082840312156114e657600080fd5b8151611168816112a0565b60208082526024908201527f576f726c6452656769737472793a20776f726c64206372656174696f6e2066616040820152631a5b195960e21b606082015260800190565b60005b83811015611550578181015183820152602001611538565b50506000910152565b600082601f83011261156a57600080fd5b815161157861124f826111df565b81815284602083860101111561158d57600080fd5b61159e826020830160208701611535565b949350505050565b6000602082840312156115b857600080fd5b815167ffffffffffffffff8111156115cf57600080fd5b61159e84828501611559565b600082516115ed818460208701611535565b9190910192915050565b60208082526022908201527f576f726c6452656769737472793a206e616d6520616c726561647920696e2075604082015261736560f01b606082015260800190565b60006020828403121561164b57600080fd5b815167ffffffffffffffff8082111561166357600080fd5b9083019060c0828603121561167757600080fd5b61167f611185565b82518281111561168e57600080fd5b61169a87828601611559565b8252506020830151828111156116af57600080fd5b6116bb87828601611559565b6020830152506040830151828111156116d357600080fd5b6116df87828601611559565b604083015250606083015160608201526080830151608082015260a083015160a082015280935050505092915050565b60008151808452611727816020860160208601611535565b601f01601f19169290920160200192915050565b602081526000825160c0602084015261175760e084018261170f565b90506020840151601f1980858403016040860152611775838361170f565b9250604086015191508085840301606086015250611793828261170f565b91505060608401516080840152608084015160a084015260a084015160c08401528091505092915050565b634e487b7160e01b600052603260045260246000fd5b6000875160206117e78285838d01611535565b8851918401916117fa8184848d01611535565b885192019161180c8184848c01611535565b875192019161181e8184848b01611535565b86519201916118308184848a01611535565b85519201916118428184848901611535565b919091019998505050505050505050565b60ff81811683821601908111156103a657634e487b7160e01b600052601160045260246000fdfea2646970667358221220d411f75fce0e4e689714b6c5050d3474def826ffbe2be28c8f6c9854570e44cc64736f6c63430008180033",
  "linkReferences": {},
  "deployedLinkReferences": {}
}