{
  "_format": "hh-sol-artifact-1",
  "contractName": "Experience",
  "sourceName": "contracts/experience/Experience.sol",
  "abi": [
    {
      "inputs": [
        {
          "components": [
            {
              "internalType": "address",
              "name": "experienceFactory",
              "type": "address"
            },
            {
              "internalType": "address",
              "name": "portalRegistry",
              "type": "address"
            },
            {
              "internalType": "address",
              "name": "experienceRegistry",
              "type": "address"
            }
          ],
          "internalType": "struct ExperienceConstructorArgs",
          "name": "args",
          "type": "tuple"
        }
      ],
      "stateMutability": "nonpayable",
      "type": "constructor"
    },
    {
      "inputs": [],
      "name": "ReentrancyGuardReentrantCall",
      "type": "error"
    },
    {
      "anonymous": false,
      "inputs": [
        {
          "indexed": true,
          "internalType": "address",
          "name": "oldVersion",
          "type": "address"
        },
        {
          "indexed": true,
          "internalType": "address",
          "name": "newVersion",
          "type": "address"
        }
      ],
      "name": "ExperienceUpgraded",
      "type": "event"
    },
    {
      "anonymous": false,
      "inputs": [
        {
          "indexed": true,
          "internalType": "address",
          "name": "hook",
          "type": "address"
        }
      ],
      "name": "HookAdded",
      "type": "event"
    },
    {
      "anonymous": false,
      "inputs": [
        {
          "indexed": true,
          "internalType": "address",
          "name": "hook",
          "type": "address"
        }
      ],
      "name": "HookRemoved",
      "type": "event"
    },
    {
      "anonymous": false,
      "inputs": [
        {
          "indexed": true,
          "internalType": "address",
          "name": "sourceWorld",
          "type": "address"
        },
        {
          "indexed": true,
          "internalType": "address",
          "name": "sourceCompany",
          "type": "address"
        },
        {
          "indexed": true,
          "internalType": "address",
          "name": "avatar",
          "type": "address"
        },
        {
          "indexed": false,
          "internalType": "uint256",
          "name": "attachedFees",
          "type": "uint256"
        }
      ],
      "name": "JumpEntry",
      "type": "event"
    },
    {
      "anonymous": false,
      "inputs": [
        {
          "indexed": false,
          "internalType": "uint256",
          "name": "newFee",
          "type": "uint256"
        }
      ],
      "name": "PortalFeeChanged",
      "type": "event"
    },
    {
      "inputs": [],
      "name": "_company",
      "outputs": [
        {
          "internalType": "contract IBasicCompany",
          "name": "",
          "type": "address"
        }
      ],
      "stateMutability": "view",
      "type": "function"
    },
    {
      "inputs": [
        {
          "internalType": "contract IExperienceHook",
          "name": "_hook",
          "type": "address"
        }
      ],
      "name": "addHook",
      "outputs": [],
      "stateMutability": "nonpayable",
      "type": "function"
    },
    {
      "inputs": [
        {
          "internalType": "contract IPortalCondition",
          "name": "condition",
          "type": "address"
        }
      ],
      "name": "addPortalCondition",
      "outputs": [],
      "stateMutability": "nonpayable",
      "type": "function"
    },
    {
      "inputs": [
        {
          "internalType": "uint256",
          "name": "fee",
          "type": "uint256"
        }
      ],
      "name": "changePortalFee",
      "outputs": [],
      "stateMutability": "nonpayable",
      "type": "function"
    },
    {
      "inputs": [],
      "name": "company",
      "outputs": [
        {
          "internalType": "address",
          "name": "",
          "type": "address"
        }
      ],
      "stateMutability": "view",
      "type": "function"
    },
    {
      "inputs": [],
      "name": "connectionDetails",
      "outputs": [
        {
          "internalType": "bytes",
          "name": "",
          "type": "bytes"
        }
      ],
      "stateMutability": "view",
      "type": "function"
    },
    {
      "inputs": [
        {
          "components": [
            {
              "internalType": "address",
              "name": "sourceWorld",
              "type": "address"
            },
            {
              "internalType": "address",
              "name": "sourceCompany",
              "type": "address"
            },
            {
              "internalType": "address",
              "name": "avatar",
              "type": "address"
            }
          ],
          "internalType": "struct JumpEntryRequest",
          "name": "request",
          "type": "tuple"
        }
      ],
      "name": "entering",
      "outputs": [
        {
          "internalType": "bytes",
          "name": "",
          "type": "bytes"
        }
      ],
      "stateMutability": "payable",
      "type": "function"
    },
    {
      "inputs": [],
      "name": "entryFee",
      "outputs": [
        {
          "internalType": "uint256",
          "name": "",
          "type": "uint256"
        }
      ],
      "stateMutability": "view",
      "type": "function"
    },
    {
      "inputs": [],
      "name": "experienceFactory",
      "outputs": [
        {
          "internalType": "address",
          "name": "",
          "type": "address"
        }
      ],
      "stateMutability": "view",
      "type": "function"
    },
    {
      "inputs": [],
      "name": "experienceRegistry",
      "outputs": [
        {
          "internalType": "contract IExperienceRegistry",
          "name": "",
          "type": "address"
        }
      ],
      "stateMutability": "view",
      "type": "function"
    },
    {
      "inputs": [
        {
          "internalType": "address",
          "name": "nextVersion",
          "type": "address"
        }
      ],
      "name": "experienceUpgraded",
      "outputs": [],
      "stateMutability": "nonpayable",
      "type": "function"
    },
    {
      "inputs": [],
      "name": "hook",
      "outputs": [
        {
          "internalType": "contract IExperienceHook",
          "name": "",
          "type": "address"
        }
      ],
      "stateMutability": "view",
      "type": "function"
    },
    {
      "inputs": [
        {
          "internalType": "address",
          "name": "__company",
          "type": "address"
        },
        {
          "components": [
            {
              "internalType": "string",
              "name": "x",
              "type": "string"
            },
            {
              "internalType": "string",
              "name": "y",
              "type": "string"
            },
            {
              "internalType": "string",
              "name": "z",
              "type": "string"
            },
            {
              "internalType": "uint256",
              "name": "t",
              "type": "uint256"
            },
            {
              "internalType": "uint256",
              "name": "p",
              "type": "uint256"
            },
            {
              "internalType": "uint256",
              "name": "p_sub",
              "type": "uint256"
            }
          ],
          "internalType": "struct VectorAddress",
          "name": "vector",
          "type": "tuple"
        },
        {
          "internalType": "bytes",
          "name": "initData",
          "type": "bytes"
        }
      ],
      "name": "init",
      "outputs": [],
      "stateMutability": "nonpayable",
      "type": "function"
    },
    {
      "inputs": [],
      "name": "name",
      "outputs": [
        {
          "internalType": "string",
          "name": "",
          "type": "string"
        }
      ],
      "stateMutability": "view",
      "type": "function"
    },
    {
      "inputs": [],
      "name": "portalRegistry",
      "outputs": [
        {
          "internalType": "contract IPortalRegistry",
          "name": "",
          "type": "address"
        }
      ],
      "stateMutability": "view",
      "type": "function"
    },
    {
      "inputs": [],
      "name": "removeHook",
      "outputs": [],
      "stateMutability": "nonpayable",
      "type": "function"
    },
    {
      "inputs": [],
      "name": "removePortalCondition",
      "outputs": [],
      "stateMutability": "nonpayable",
      "type": "function"
    },
    {
      "inputs": [
        {
          "internalType": "bytes",
          "name": "initData",
          "type": "bytes"
        }
      ],
      "name": "upgrade",
      "outputs": [],
      "stateMutability": "nonpayable",
      "type": "function"
    },
    {
      "inputs": [],
      "name": "upgraded",
      "outputs": [
        {
          "internalType": "bool",
          "name": "",
          "type": "bool"
        }
      ],
      "stateMutability": "view",
      "type": "function"
    },
    {
      "inputs": [],
      "name": "vectorAddress",
      "outputs": [
        {
          "components": [
            {
              "internalType": "string",
              "name": "x",
              "type": "string"
            },
            {
              "internalType": "string",
              "name": "y",
              "type": "string"
            },
            {
              "internalType": "string",
              "name": "z",
              "type": "string"
            },
            {
              "internalType": "uint256",
              "name": "t",
              "type": "uint256"
            },
            {
              "internalType": "uint256",
              "name": "p",
              "type": "uint256"
            },
            {
              "internalType": "uint256",
              "name": "p_sub",
              "type": "uint256"
            }
          ],
          "internalType": "struct VectorAddress",
          "name": "",
          "type": "tuple"
        }
      ],
      "stateMutability": "view",
      "type": "function"
    },
    {
      "inputs": [],
      "name": "world",
      "outputs": [
        {
          "internalType": "address",
          "name": "",
          "type": "address"
        }
      ],
      "stateMutability": "view",
      "type": "function"
    },
    {
      "stateMutability": "payable",
      "type": "receive"
    }
  ],
  "bytecode": "0x60e06040523480156200001157600080fd5b5060405162001ba438038062001ba48339810160408190526200003491620001b9565b600160005580516001600160a01b0316620000965760405162461bcd60e51b815260206004820181905260248201527f457870657269656e63653a207a65726f206164647265737320666163746f727960448201526064015b60405180910390fd5b60208101516001600160a01b0316620001025760405162461bcd60e51b815260206004820152602760248201527f457870657269656e63653a207a65726f206164647265737320706f7274616c526044820152666567697374727960c81b60648201526084016200008d565b60408101516001600160a01b0316620001725760405162461bcd60e51b815260206004820152602b60248201527f457870657269656e63653a207a65726f2061646472657373206578706572696560448201526a6e6365526567697374727960a81b60648201526084016200008d565b80516001600160a01b039081166080526020820151811660a0526040909101511660c0526200023a565b80516001600160a01b0381168114620001b457600080fd5b919050565b600060608284031215620001cc57600080fd5b604051606081016001600160401b0381118282101715620001fd57634e487b7160e01b600052604160045260246000fd5b6040526200020b836200019c565b81526200021b602084016200019c565b60208201526200022e604084016200019c565b60408201529392505050565b60805160a05160c0516119096200029b6000396000818161039e0152818161057c0152610c030152600081816104170152818161091101528181610b8501528181610d690152610ed401526000818161034a0152610f7f01526119096000f3fe60806040526004361061012e5760003560e01c80636904c94d116100ab57806383c342631161006f57806383c342631461036c5780638f09a6be1461038c578063a4e2a16e146103c0578063b52818a9146103e5578063b666493414610405578063c28de2cd1461043957600080fd5b80636904c94d146102b55780636fdfe1b6146102d85780637b4e04e8146102f85780637f5a7c7b1461031857806381bb20291461033857600080fd5b806330b67baa116100f257806330b67baa14610220578063378f17ff1461025857806354cc5a0b1461026d57806358779dcf14610280578063669ecb601461029557600080fd5b806306fdde031461017a578063072ea61c146101a55780631864a47c146101c957806325394645146101de5780632fcbab9a146101fe57600080fd5b36610175576001546040516001600160a01b0361010090920491909116903480156108fc02916000818181858888f19350505050158015610173573d6000803e3d6000fd5b005b600080fd5b34801561018657600080fd5b5061018f610463565b60405161019c9190611224565b60405180910390f35b3480156101b157600080fd5b506101bb600b5481565b60405190815260200161019c565b3480156101d557600080fd5b5061018f6104f1565b3480156101ea57600080fd5b506101736101f936600461134f565b6104fe565b34801561020a57600080fd5b506102136105e6565b60405161019c919061138c565b34801561022c57600080fd5b50600254610240906001600160a01b031681565b6040516001600160a01b03909116815260200161019c565b34801561026457600080fd5b50610173610805565b61018f61027b366004611427565b6108fc565b34801561028c57600080fd5b50610173610b54565b3480156102a157600080fd5b506101736102b036600461147b565b610bf8565b3480156102c157600080fd5b5060015461010090046001600160a01b0316610240565b3480156102e457600080fd5b506101736102f336600461147b565b610cf8565b34801561030457600080fd5b5061017361031336600461147b565b610d98565b34801561032457600080fd5b50600354610240906001600160a01b031681565b34801561034457600080fd5b506102407f000000000000000000000000000000000000000000000000000000000000000081565b34801561037857600080fd5b50610173610387366004611498565b610e8a565b34801561039857600080fd5b506102407f000000000000000000000000000000000000000000000000000000000000000081565b3480156103cc57600080fd5b506001546102409061010090046001600160a01b031681565b3480156103f157600080fd5b506101736104003660046114b1565b610f74565b34801561041157600080fd5b506102407f000000000000000000000000000000000000000000000000000000000000000081565b34801561044557600080fd5b506001546104539060ff1681565b604051901515815260200161019c565b600a8054610470906115bd565b80601f016020809104026020016040519081016040528092919081815260200182805461049c906115bd565b80156104e95780601f106104be576101008083540402835291602001916104e9565b820191906000526020600020905b8154815290600101906020018083116104cc57829003601f168201915b505050505081565b600c8054610470906115bd565b60015461010090046001600160a01b031633146105365760405162461bcd60e51b815260040161052d906115f7565b60405180910390fd5b60015460ff16156105595760405162461bcd60e51b815260040161052d9061163c565b6001805460ff191681179055604051636d941fe760e01b81526001600160a01b037f00000000000000000000000000000000000000000000000000000000000000001690636d941fe7906105b1908490600401611224565b600060405180830381600087803b1580156105cb57600080fd5b505af11580156105df573d6000803e3d6000fd5b5050505050565b61061f6040518060c001604052806060815260200160608152602001606081526020016000815260200160008152602001600081525090565b60046040518060c001604052908160008201805461063c906115bd565b80601f0160208091040260200160405190810160405280929190818152602001828054610668906115bd565b80156106b55780601f1061068a576101008083540402835291602001916106b5565b820191906000526020600020905b81548152906001019060200180831161069857829003601f168201915b505050505081526020016001820180546106ce906115bd565b80601f01602080910402602001604051908101604052809291908181526020018280546106fa906115bd565b80156107475780601f1061071c57610100808354040283529160200191610747565b820191906000526020600020905b81548152906001019060200180831161072a57829003601f168201915b50505050508152602001600282018054610760906115bd565b80601f016020809104026020016040519081016040528092919081815260200182805461078c906115bd565b80156107d95780601f106107ae576101008083540402835291602001916107d9565b820191906000526020600020905b8154815290600101906020018083116107bc57829003601f168201915b505050505081526020016003820154815260200160048201548152602001600582015481525050905090565b60015461010090046001600160a01b031633146108345760405162461bcd60e51b815260040161052d906115f7565b60015460ff16156108575760405162461bcd60e51b815260040161052d9061163c565b6003546001600160a01b03166108af5760405162461bcd60e51b815260206004820152601860248201527f457870657269656e63653a20686f6f6b206e6f74207365740000000000000000604482015260640161052d565b6003546040516001600160a01b039091169081907f47d0871e905ac6550f54ba266e0d90d2dc8ed67a957c064ca3438eddf4e3fd8990600090a250600380546001600160a01b0319169055565b60606109066111aa565b336001600160a01b037f000000000000000000000000000000000000000000000000000000000000000016146109945760405162461bcd60e51b815260206004820152602d60248201527f457870657269656e63653a2063616c6c6572206973206e6f742074686520706f60448201526c7274616c20726567697374727960981b606482015260840161052d565b60015460ff16156109b75760405162461bcd60e51b815260040161052d9061163c565b6003546001600160a01b031615610ab857600354825160208401516040808601519051630a17c10560e21b81523060048201526001600160a01b039384166024820152918316604483015282166064820152600092919091169063285f0414906084016020604051808303816000875af1158015610a39573d6000803e3d6000fd5b505050506040513d601f19601f82011682018060405250810190610a5d9190611684565b905080610ab65760405162461bcd60e51b815260206004820152602160248201527f457870657269656e63653a20686f6f6b20646973616c6c6f77656420656e74726044820152607960f81b606482015260840161052d565b505b600c8054610ac5906115bd565b80601f0160208091040260200160405190810160405280929190818152602001828054610af1906115bd565b8015610b3e5780601f10610b1357610100808354040283529160200191610b3e565b820191906000526020600020905b815481529060010190602001808311610b2157829003601f168201915b50505050509050610b4f6001600055565b919050565b60015461010090046001600160a01b03163314610b835760405162461bcd60e51b815260040161052d906115f7565b7f00000000000000000000000000000000000000000000000000000000000000006001600160a01b031663021665b76040518163ffffffff1660e01b8152600401600060405180830381600087803b158015610bde57600080fd5b505af1158015610bf2573d6000803e3d6000fd5b50505050565b336001600160a01b037f00000000000000000000000000000000000000000000000000000000000000001614610c7f5760405162461bcd60e51b815260206004820152602660248201527f457870657269656e63653a2063616c6c6572206973206e6f742074686520726560448201526567697374727960d01b606482015260840161052d565b478015610cbe576040516001600160a01b0383169082156108fc029083906000818181858888f19350505050158015610cbc573d6000803e3d6000fd5b505b6040516001600160a01b0383169030907ffcdd1163294624e52a4e91ca619f82b1f2c5a096836fbd81f14e0b550fe8317790600090a35050565b60015461010090046001600160a01b03163314610d275760405162461bcd60e51b815260040161052d906115f7565b60015460ff1615610d4a5760405162461bcd60e51b815260040161052d9061163c565b604051631169a49960e11b81526001600160a01b0382811660048301527f000000000000000000000000000000000000000000000000000000000000000016906322d34932906024016105b1565b60015461010090046001600160a01b03163314610dc75760405162461bcd60e51b815260040161052d906115f7565b60015460ff1615610dea5760405162461bcd60e51b815260040161052d9061163c565b6001600160a01b038116610e405760405162461bcd60e51b815260206004820152601d60248201527f457870657269656e63653a20686f6f6b207a65726f2061646472657373000000604482015260640161052d565b600380546001600160a01b0319166001600160a01b0383169081179091556040517f28e00134722f84e69c391c81e4fe022ee3e61048222a8ea2f98c9f235f79750890600090a250565b60015461010090046001600160a01b03163314610eb95760405162461bcd60e51b815260040161052d906115f7565b600b8190556040516383c3426360e01b8152600481018290527f00000000000000000000000000000000000000000000000000000000000000006001600160a01b0316906383c3426390602401600060405180830381600087803b158015610f2057600080fd5b505af1158015610f34573d6000803e3d6000fd5b505050507fc777ac489c019545540295deb6dee51fa4df4300a7b8c7b0ab785507cafeb1e981604051610f6991815260200190565b60405180910390a150565b336001600160a01b037f00000000000000000000000000000000000000000000000000000000000000001614610ffa5760405162461bcd60e51b815260206004820152602560248201527f457870657269656e63653a2063616c6c6572206973206e6f742074686520666160448201526463746f727960d81b606482015260840161052d565b6001600160a01b038316156110515760405162461bcd60e51b815260206004820152601f60248201527f457870657269656e63653a20616c726561647920696e697469616c697a656400604482015260640161052d565b60018054610100600160a81b0319166101006001600160a01b03861602179055805160009061108990602090840181019084016116f6565b83519091508390600490819061109f90826117f6565b50602082015160018201906110b490826117f6565b50604082015160028201906110c990826117f6565b50606082015181600301556080820151816004015560a0820151816005015590505060018054906101000a90046001600160a01b03166001600160a01b03166330b67baa6040518163ffffffff1660e01b8152600401602060405180830381865afa15801561113c573d6000803e3d6000fd5b505050506040513d601f19601f8201168201806040525081019061116091906118b6565b600280546001600160a01b0319166001600160a01b03929092169190911790558051600a9061118f90826117f6565b506020810151600b556040810151600c906105df90826117f6565b6002600054036111cd57604051633ee5aeb560e01b815260040160405180910390fd5b6002600055565b60005b838110156111ef5781810151838201526020016111d7565b50506000910152565b600081518084526112108160208601602086016111d4565b601f01601f19169290920160200192915050565b60208152600061123760208301846111f8565b9392505050565b634e487b7160e01b600052604160045260246000fd5b6040516060810167ffffffffffffffff811182821017156112775761127761123e565b60405290565b60405160c0810167ffffffffffffffff811182821017156112775761127761123e565b604051601f8201601f1916810167ffffffffffffffff811182821017156112c9576112c961123e565b604052919050565b600067ffffffffffffffff8211156112eb576112eb61123e565b50601f01601f191660200190565b600082601f83011261130a57600080fd5b813561131d611318826112d1565b6112a0565b81815284602083860101111561133257600080fd5b816020850160208301376000918101602001919091529392505050565b60006020828403121561136157600080fd5b813567ffffffffffffffff81111561137857600080fd5b611384848285016112f9565b949350505050565b602081526000825160c060208401526113a860e08401826111f8565b90506020840151601f19808584030160408601526113c683836111f8565b92506040860151915080858403016060860152506113e482826111f8565b91505060608401516080840152608084015160a084015260a084015160c08401528091505092915050565b6001600160a01b038116811461142457600080fd5b50565b60006060828403121561143957600080fd5b611441611254565b823561144c8161140f565b8152602083013561145c8161140f565b6020820152604083013561146f8161140f565b60408201529392505050565b60006020828403121561148d57600080fd5b81356112378161140f565b6000602082840312156114aa57600080fd5b5035919050565b6000806000606084860312156114c657600080fd5b83356114d18161140f565b9250602084013567ffffffffffffffff808211156114ee57600080fd5b9085019060c0828803121561150257600080fd5b61150a61127d565b82358281111561151957600080fd5b611525898286016112f9565b82525060208301358281111561153a57600080fd5b611546898286016112f9565b60208301525060408301358281111561155e57600080fd5b61156a898286016112f9565b604083015250606083013560608201526080830135608082015260a083013560a08201528094505060408601359150808211156115a657600080fd5b506115b3868287016112f9565b9150509250925092565b600181811c908216806115d157607f821691505b6020821081036115f157634e487b7160e01b600052602260045260246000fd5b50919050565b60208082526025908201527f457870657269656e63653a2063616c6c6572206973206e6f742074686520636f6040820152646d70616e7960d81b606082015260800190565b60208082526028908201527f457870657269656e63653a2063616e6e6f74207573652075706772616465642060408201526718dbdb9d1c9858dd60c21b606082015260800190565b60006020828403121561169657600080fd5b8151801515811461123757600080fd5b60006116b4611318846112d1565b90508281528383830111156116c857600080fd5b6112378360208301846111d4565b600082601f8301126116e757600080fd5b611237838351602085016116a6565b60006020828403121561170857600080fd5b815167ffffffffffffffff8082111561172057600080fd5b908301906060828603121561173457600080fd5b61173c611254565b82518281111561174b57600080fd5b8301601f8101871361175c57600080fd5b61176b878251602084016116a6565b8252506020830151602082015260408301518281111561178a57600080fd5b611796878286016116d6565b60408301525095945050505050565b601f8211156117f1576000816000526020600020601f850160051c810160208610156117ce5750805b601f850160051c820191505b818110156117ed578281556001016117da565b5050505b505050565b815167ffffffffffffffff8111156118105761181061123e565b6118248161181e84546115bd565b846117a5565b602080601f83116001811461185957600084156118415750858301515b600019600386901b1c1916600185901b1785556117ed565b600085815260208120601f198616915b8281101561188857888601518255948401946001909101908401611869565b50858210156118a65787850151600019600388901b60f8161c191681555b5050505050600190811b01905550565b6000602082840312156118c857600080fd5b81516112378161140f56fea2646970667358221220db43ff66cec1bd85674f514bfd48c59f550ab0d65684865f4e45e292565a976764736f6c63430008180033",
  "linkReferences": {},
  "deployedLinkReferences": {}
}