{
  "_format": "hh-sol-artifact-1",
  "contractName": "Experience",
  "sourceName": "contracts/experience/Experience.sol",
  "abi": [
    {
      "inputs": [
        {
          "components": [
            {
              "internalType": "address",
              "name": "experienceFactory",
              "type": "address"
            },
            {
              "internalType": "address",
              "name": "portalRegistry",
              "type": "address"
            },
            {
              "internalType": "address",
              "name": "experienceRegistry",
              "type": "address"
            }
          ],
          "internalType": "struct ExperienceConstructorArgs",
          "name": "args",
          "type": "tuple"
        }
      ],
      "stateMutability": "nonpayable",
      "type": "constructor"
    },
    {
      "inputs": [],
      "name": "ReentrancyGuardReentrantCall",
      "type": "error"
    },
    {
      "anonymous": false,
      "inputs": [
        {
          "indexed": true,
          "internalType": "address",
          "name": "oldVersion",
          "type": "address"
        },
        {
          "indexed": true,
          "internalType": "address",
          "name": "newVersion",
          "type": "address"
        }
      ],
      "name": "ExperienceUpgraded",
      "type": "event"
    },
    {
      "anonymous": false,
      "inputs": [
        {
          "indexed": true,
          "internalType": "address",
          "name": "hook",
          "type": "address"
        }
      ],
      "name": "HookAdded",
      "type": "event"
    },
    {
      "anonymous": false,
      "inputs": [
        {
          "indexed": true,
          "internalType": "address",
          "name": "hook",
          "type": "address"
        }
      ],
      "name": "HookRemoved",
      "type": "event"
    },
    {
      "anonymous": false,
      "inputs": [
        {
          "indexed": true,
          "internalType": "address",
          "name": "sourceWorld",
          "type": "address"
        },
        {
          "indexed": true,
          "internalType": "address",
          "name": "sourceCompany",
          "type": "address"
        },
        {
          "indexed": true,
          "internalType": "address",
          "name": "avatar",
          "type": "address"
        },
        {
          "indexed": false,
          "internalType": "uint256",
          "name": "attachedFees",
          "type": "uint256"
        }
      ],
      "name": "JumpEntry",
      "type": "event"
    },
    {
      "anonymous": false,
      "inputs": [
        {
          "indexed": false,
          "internalType": "uint256",
          "name": "newFee",
          "type": "uint256"
        }
      ],
      "name": "PortalFeeChanged",
      "type": "event"
    },
    {
      "inputs": [
        {
          "internalType": "contract IExperienceHook",
          "name": "_hook",
          "type": "address"
        }
      ],
      "name": "addHook",
      "outputs": [],
      "stateMutability": "nonpayable",
      "type": "function"
    },
    {
      "inputs": [
        {
          "internalType": "contract IPortalCondition",
          "name": "condition",
          "type": "address"
        }
      ],
      "name": "addPortalCondition",
      "outputs": [],
      "stateMutability": "nonpayable",
      "type": "function"
    },
    {
      "inputs": [
        {
          "internalType": "uint256",
          "name": "fee",
          "type": "uint256"
        }
      ],
      "name": "changePortalFee",
      "outputs": [],
      "stateMutability": "nonpayable",
      "type": "function"
    },
    {
      "inputs": [],
      "name": "company",
      "outputs": [
        {
          "internalType": "address",
          "name": "",
          "type": "address"
        }
      ],
      "stateMutability": "view",
      "type": "function"
    },
    {
      "inputs": [],
      "name": "connectionDetails",
      "outputs": [
        {
          "internalType": "bytes",
          "name": "",
          "type": "bytes"
        }
      ],
      "stateMutability": "view",
      "type": "function"
    },
    {
      "inputs": [
        {
          "components": [
            {
              "internalType": "uint256",
              "name": "entryFee",
              "type": "uint256"
            },
            {
              "internalType": "bytes",
              "name": "connectionDetails",
              "type": "bytes"
            }
          ],
          "internalType": "struct ExperienceInitData",
          "name": "data",
          "type": "tuple"
        }
      ],
      "name": "encodeInitData",
      "outputs": [
        {
          "internalType": "bytes",
          "name": "",
          "type": "bytes"
        }
      ],
      "stateMutability": "pure",
      "type": "function"
    },
    {
      "inputs": [
        {
          "components": [
            {
              "internalType": "address",
              "name": "sourceWorld",
              "type": "address"
            },
            {
              "internalType": "address",
              "name": "sourceCompany",
              "type": "address"
            },
            {
              "internalType": "address",
              "name": "avatar",
              "type": "address"
            }
          ],
          "internalType": "struct JumpEntryRequest",
          "name": "request",
          "type": "tuple"
        }
      ],
      "name": "entering",
      "outputs": [
        {
          "internalType": "bytes",
          "name": "",
          "type": "bytes"
        }
      ],
      "stateMutability": "payable",
      "type": "function"
    },
    {
      "inputs": [],
      "name": "entryFee",
      "outputs": [
        {
          "internalType": "uint256",
          "name": "",
          "type": "uint256"
        }
      ],
      "stateMutability": "view",
      "type": "function"
    },
    {
      "inputs": [],
      "name": "experienceFactory",
      "outputs": [
        {
          "internalType": "address",
          "name": "",
          "type": "address"
        }
      ],
      "stateMutability": "view",
      "type": "function"
    },
    {
      "inputs": [],
      "name": "experienceRegistry",
      "outputs": [
        {
          "internalType": "contract IExperienceRegistry",
          "name": "",
          "type": "address"
        }
      ],
      "stateMutability": "view",
      "type": "function"
    },
    {
      "inputs": [
        {
          "internalType": "address",
          "name": "_company",
          "type": "address"
        },
        {
          "internalType": "string",
          "name": "_name",
          "type": "string"
        },
        {
          "components": [
            {
              "internalType": "string",
              "name": "x",
              "type": "string"
            },
            {
              "internalType": "string",
              "name": "y",
              "type": "string"
            },
            {
              "internalType": "string",
              "name": "z",
              "type": "string"
            },
            {
              "internalType": "uint256",
              "name": "t",
              "type": "uint256"
            },
            {
              "internalType": "uint256",
              "name": "p",
              "type": "uint256"
            },
            {
              "internalType": "uint256",
              "name": "p_sub",
              "type": "uint256"
            }
          ],
          "internalType": "struct VectorAddress",
          "name": "vector",
          "type": "tuple"
        },
        {
          "internalType": "bytes",
          "name": "initData",
          "type": "bytes"
        }
      ],
      "name": "init",
      "outputs": [],
      "stateMutability": "nonpayable",
      "type": "function"
    },
    {
      "inputs": [],
      "name": "name",
      "outputs": [
        {
          "internalType": "string",
          "name": "",
          "type": "string"
        }
      ],
      "stateMutability": "view",
      "type": "function"
    },
    {
      "inputs": [],
      "name": "portalRegistry",
      "outputs": [
        {
          "internalType": "contract IPortalRegistry",
          "name": "",
          "type": "address"
        }
      ],
      "stateMutability": "view",
      "type": "function"
    },
    {
      "inputs": [],
      "name": "removeHook",
      "outputs": [],
      "stateMutability": "nonpayable",
      "type": "function"
    },
    {
      "inputs": [],
      "name": "removePortalCondition",
      "outputs": [],
      "stateMutability": "nonpayable",
      "type": "function"
    },
    {
      "inputs": [
        {
          "internalType": "bytes",
          "name": "initData",
          "type": "bytes"
        }
      ],
      "name": "upgrade",
      "outputs": [],
      "stateMutability": "nonpayable",
      "type": "function"
    },
    {
      "inputs": [
        {
          "internalType": "address",
          "name": "nextVersion",
          "type": "address"
        }
      ],
      "name": "upgradeComplete",
      "outputs": [],
      "stateMutability": "nonpayable",
      "type": "function"
    },
    {
      "inputs": [],
      "name": "vectorAddress",
      "outputs": [
        {
          "components": [
            {
              "internalType": "string",
              "name": "x",
              "type": "string"
            },
            {
              "internalType": "string",
              "name": "y",
              "type": "string"
            },
            {
              "internalType": "string",
              "name": "z",
              "type": "string"
            },
            {
              "internalType": "uint256",
              "name": "t",
              "type": "uint256"
            },
            {
              "internalType": "uint256",
              "name": "p",
              "type": "uint256"
            },
            {
              "internalType": "uint256",
              "name": "p_sub",
              "type": "uint256"
            }
          ],
          "internalType": "struct VectorAddress",
          "name": "",
          "type": "tuple"
        }
      ],
      "stateMutability": "view",
      "type": "function"
    },
    {
      "inputs": [],
      "name": "version",
      "outputs": [
        {
          "internalType": "uint256",
          "name": "",
          "type": "uint256"
        }
      ],
      "stateMutability": "view",
      "type": "function"
    },
    {
      "inputs": [],
      "name": "world",
      "outputs": [
        {
          "internalType": "address",
          "name": "",
          "type": "address"
        }
      ],
      "stateMutability": "view",
      "type": "function"
    },
    {
      "stateMutability": "payable",
      "type": "receive"
    }
  ],
  "bytecode": "0x60e06040523480156200001157600080fd5b5060405162001cba38038062001cba8339810160408190526200003491620001b9565b600160005580516001600160a01b0316620000965760405162461bcd60e51b815260206004820181905260248201527f457870657269656e63653a207a65726f206164647265737320666163746f727960448201526064015b60405180910390fd5b60208101516001600160a01b0316620001025760405162461bcd60e51b815260206004820152602760248201527f457870657269656e63653a207a65726f206164647265737320706f7274616c526044820152666567697374727960c81b60648201526084016200008d565b60408101516001600160a01b0316620001725760405162461bcd60e51b815260206004820152602b60248201527f457870657269656e63653a207a65726f2061646472657373206578706572696560448201526a6e6365526567697374727960a81b60648201526084016200008d565b80516001600160a01b039081166080526020820151811660a0526040909101511660c0526200023a565b80516001600160a01b0381168114620001b457600080fd5b919050565b600060608284031215620001cc57600080fd5b604051606081016001600160401b0381118282101715620001fd57634e487b7160e01b600052604160045260246000fd5b6040526200020b836200019c565b81526200021b602084016200019c565b60208201526200022e604084016200019c565b60408201529392505050565b60805160a05160c051611a1f6200029b6000396000818161038501526105750152600081816103b901528181610a0e01528181610cd501528181610da00152610f42015260008181610331015281816105eb01526110180152611a1f6000f3fe6080604052600436106101235760003560e01c806358779dcf116100a057806383c342631161006457806383c34263146103535780638f09a6be14610373578063b6664934146103a7578063d97c02f7146103db578063fad94ff0146103fb57600080fd5b806358779dcf1461029f5780636904c94d146102b45780636fdfe1b6146102df5780637b4e04e8146102ff57806381bb20291461031f57600080fd5b80632fcbab9a116100e75780632fcbab9a146101ef57806330b67baa14610211578063378f17ff1461026257806354cc5a0b1461027757806354fd4d501461028a57600080fd5b806306fdde031461012f578063072ea61c1461015a5780631864a47c1461019857806325394645146101ad5780632663d1f7146101cf57600080fd5b3661012a57005b600080fd5b34801561013b57600080fd5b5061014461041b565b604051610151919061128c565b60405180910390f35b34801561016657600080fd5b507f7ea04aef6bca987a4816974a9eadce73182071dd7a8e8812099e1d973c1ae50f545b604051908152602001610151565b3480156101a457600080fd5b506101446104de565b3480156101b957600080fd5b506101cd6101c83660046113b7565b61051d565b005b3480156101db57600080fd5b506101cd6101ea36600461140c565b6105e0565b3480156101fb57600080fd5b50610204610699565b6040516101519190611429565b34801561021d57600080fd5b507f7ea04aef6bca987a4816974a9eadce73182071dd7a8e8812099e1d973c1ae506546001600160a01b03165b6040516001600160a01b039091168152602001610151565b34801561026e57600080fd5b506101cd6108e9565b6101446102853660046114ac565b6109f9565b34801561029657600080fd5b5061018a600181565b3480156102ab57600080fd5b506101cd610c9b565b3480156102c057600080fd5b506000805160206119ca833981519152546001600160a01b031661024a565b3480156102eb57600080fd5b506101cd6102fa36600461140c565b610d49565b34801561030b57600080fd5b506101cd61031a36600461140c565b610dcf565b34801561032b57600080fd5b5061024a7f000000000000000000000000000000000000000000000000000000000000000081565b34801561035f57600080fd5b506101cd61036e36600461151e565b610ed9565b34801561037f57600080fd5b5061024a7f000000000000000000000000000000000000000000000000000000000000000081565b3480156103b357600080fd5b5061024a7f000000000000000000000000000000000000000000000000000000000000000081565b3480156103e757600080fd5b506101446103f6366004611537565b610fe4565b34801561040757600080fd5b506101cd6104163660046115ae565b61100d565b7f7ea04aef6bca987a4816974a9eadce73182071dd7a8e8812099e1d973c1ae50e80546060916000805160206119ca8339815191529161045a906116df565b80601f0160208091040260200160405190810160405280929190818152602001828054610486906116df565b80156104d35780601f106104a8576101008083540402835291602001916104d3565b820191906000526020600020905b8154815290600101906020018083116104b657829003601f168201915b505050505091505090565b7f7ea04aef6bca987a4816974a9eadce73182071dd7a8e8812099e1d973c1ae51080546060916000805160206119ca8339815191529161045a906116df565b6000805160206119ca83398151915280546001600160a01b0316331461055e5760405162461bcd60e51b815260040161055590611719565b60405180910390fd5b604051636d941fe760e01b81526001600160a01b037f00000000000000000000000000000000000000000000000000000000000000001690636d941fe7906105aa90859060040161128c565b600060405180830381600087803b1580156105c457600080fd5b505af11580156105d8573d6000803e3d6000fd5b505050505050565b336001600160a01b037f000000000000000000000000000000000000000000000000000000000000000016146106285760405162461bcd60e51b81526004016105559061175e565b7f69198989339f34e10129e514286bde98979351148754faef989dde18bf6d14da80546001600160a01b031981166001600160a01b03848116918217845560405192169182907ffcdd1163294624e52a4e91ca619f82b1f2c5a096836fbd81f14e0b550fe8317790600090a3505050565b6106d26040518060c001604052806060815260200160608152602001606081526020016000815260200160008152602001600081525090565b6040805160c081019091527f7ea04aef6bca987a4816974a9eadce73182071dd7a8e8812099e1d973c1ae50880546000805160206119ca8339815191529291908290829061071f906116df565b80601f016020809104026020016040519081016040528092919081815260200182805461074b906116df565b80156107985780601f1061076d57610100808354040283529160200191610798565b820191906000526020600020905b81548152906001019060200180831161077b57829003601f168201915b505050505081526020016001820180546107b1906116df565b80601f01602080910402602001604051908101604052809291908181526020018280546107dd906116df565b801561082a5780601f106107ff5761010080835404028352916020019161082a565b820191906000526020600020905b81548152906001019060200180831161080d57829003601f168201915b50505050508152602001600282018054610843906116df565b80601f016020809104026020016040519081016040528092919081815260200182805461086f906116df565b80156108bc5780601f10610891576101008083540402835291602001916108bc565b820191906000526020600020905b81548152906001019060200180831161089f57829003601f168201915b50505050508152602001600382015481526020016004820154815260200160058201548152505091505090565b6000805160206119ca83398151915280546001600160a01b031633146109215760405162461bcd60e51b815260040161055590611719565b7f7ea04aef6bca987a4816974a9eadce73182071dd7a8e8812099e1d973c1ae507546000805160206119ca833981519152906001600160a01b03166109a85760405162461bcd60e51b815260206004820152601860248201527f457870657269656e63653a20686f6f6b206e6f742073657400000000000000006044820152606401610555565b60028101546040516001600160a01b039091169081907f47d0871e905ac6550f54ba266e0d90d2dc8ed67a957c064ca3438eddf4e3fd8990600090a25060020180546001600160a01b031916905550565b6060610a03611212565b336001600160a01b037f00000000000000000000000000000000000000000000000000000000000000001614610a915760405162461bcd60e51b815260206004820152602d60248201527f457870657269656e63653a2063616c6c6572206973206e6f742074686520706f60448201526c7274616c20726567697374727960981b6064820152608401610555565b7f7ea04aef6bca987a4816974a9eadce73182071dd7a8e8812099e1d973c1ae507546000805160206119ca833981519152906001600160a01b031615610bc3576002810154835160208501516040808701519051630a17c10560e21b81523060048201526001600160a01b039384166024820152918316604483015282166064820152600092919091169063285f0414906084016020604051808303816000875af1158015610b44573d6000803e3d6000fd5b505050506040513d601f19601f82011682018060405250810190610b6891906117a3565b905080610bc15760405162461bcd60e51b815260206004820152602160248201527f457870657269656e63653a20686f6f6b20646973616c6c6f77656420656e74726044820152607960f81b6064820152608401610555565b505b80546040516001600160a01b03909116903480156108fc02916000818181858888f19350505050158015610bfb573d6000803e3d6000fd5b5080600b018054610c0b906116df565b80601f0160208091040260200160405190810160405280929190818152602001828054610c37906116df565b8015610c845780601f10610c5957610100808354040283529160200191610c84565b820191906000526020600020905b815481529060010190602001808311610c6757829003601f168201915b5050505050915050610c966001600055565b919050565b6000805160206119ca83398151915280546001600160a01b03163314610cd35760405162461bcd60e51b815260040161055590611719565b7f00000000000000000000000000000000000000000000000000000000000000006001600160a01b031663021665b76040518163ffffffff1660e01b8152600401600060405180830381600087803b158015610d2e57600080fd5b505af1158015610d42573d6000803e3d6000fd5b5050505050565b6000805160206119ca83398151915280546001600160a01b03163314610d815760405162461bcd60e51b815260040161055590611719565b604051631169a49960e11b81526001600160a01b0383811660048301527f000000000000000000000000000000000000000000000000000000000000000016906322d34932906024016105aa565b6000805160206119ca83398151915280546001600160a01b03163314610e075760405162461bcd60e51b815260040161055590611719565b6001600160a01b038216610e5d5760405162461bcd60e51b815260206004820152601d60248201527f457870657269656e63653a20686f6f6b207a65726f20616464726573730000006044820152606401610555565b7f7ea04aef6bca987a4816974a9eadce73182071dd7a8e8812099e1d973c1ae50780546001600160a01b0319166001600160a01b0384169081179091556040516000805160206119ca83398151915291907f28e00134722f84e69c391c81e4fe022ee3e61048222a8ea2f98c9f235f79750890600090a2505050565b6000805160206119ca83398151915280546001600160a01b03163314610f115760405162461bcd60e51b815260040161055590611719565b60006000805160206119ca833981519152600a81018490556040516383c3426360e01b8152600481018590529091507f00000000000000000000000000000000000000000000000000000000000000006001600160a01b0316906383c3426390602401600060405180830381600087803b158015610f8e57600080fd5b505af1158015610fa2573d6000803e3d6000fd5b505050507fc777ac489c019545540295deb6dee51fa4df4300a7b8c7b0ab785507cafeb1e983604051610fd791815260200190565b60405180910390a1505050565b606081604051602001610ff791906117c5565b6040516020818303038152906040529050919050565b336001600160a01b037f000000000000000000000000000000000000000000000000000000000000000016146110555760405162461bcd60e51b81526004016105559061175e565b6000805160206119ca83398151915280546001600160a01b0316156110bc5760405162461bcd60e51b815260206004820152601f60248201527f457870657269656e63653a20616c726561647920696e697469616c697a6564006044820152606401610555565b80546001600160a01b0319166001600160a01b03861617815581516000906110ed90602090850181019085016117ea565b845190915084906003840190819061110590826118ec565b506020820151600182019061111a90826118ec565b506040820151600282019061112f90826118ec565b5060608201516003820155608082015160048083019190915560a09092015160059091015582546040805163185b3dd560e11b815290516001600160a01b03909216926330b67baa9282820192602092908290030181865afa158015611199573d6000803e3d6000fd5b505050506040513d601f19601f820116820180604052508101906111bd91906119ac565b6001830180546001600160a01b0319166001600160a01b0392909216919091179055600982016111ed86826118ec565b508051600a8301556020810151600b83019061120990826118ec565b50505050505050565b60026000540361123557604051633ee5aeb560e01b815260040160405180910390fd5b6002600055565b60005b8381101561125757818101518382015260200161123f565b50506000910152565b6000815180845261127881602086016020860161123c565b601f01601f19169290920160200192915050565b60208152600061129f6020830184611260565b9392505050565b634e487b7160e01b600052604160045260246000fd5b6040805190810167ffffffffffffffff811182821017156112df576112df6112a6565b60405290565b60405160c0810167ffffffffffffffff811182821017156112df576112df6112a6565b604051601f8201601f1916810167ffffffffffffffff81118282101715611331576113316112a6565b604052919050565b600067ffffffffffffffff821115611353576113536112a6565b50601f01601f191660200190565b600082601f83011261137257600080fd5b813561138561138082611339565b611308565b81815284602083860101111561139a57600080fd5b816020850160208301376000918101602001919091529392505050565b6000602082840312156113c957600080fd5b813567ffffffffffffffff8111156113e057600080fd5b6113ec84828501611361565b949350505050565b6001600160a01b038116811461140957600080fd5b50565b60006020828403121561141e57600080fd5b813561129f816113f4565b602081526000825160c0602084015261144560e0840182611260565b90506020840151601f19808584030160408601526114638383611260565b92506040860151915080858403016060860152506114818282611260565b91505060608401516080840152608084015160a084015260a084015160c08401528091505092915050565b6000606082840312156114be57600080fd5b6040516060810181811067ffffffffffffffff821117156114e1576114e16112a6565b60405282356114ef816113f4565b815260208301356114ff816113f4565b60208201526040830135611512816113f4565b60408201529392505050565b60006020828403121561153057600080fd5b5035919050565b60006020828403121561154957600080fd5b813567ffffffffffffffff8082111561156157600080fd5b908301906040828603121561157557600080fd5b61157d6112bc565b8235815260208301358281111561159357600080fd5b61159f87828601611361565b60208301525095945050505050565b600080600080608085870312156115c457600080fd5b84356115cf816113f4565b9350602085013567ffffffffffffffff808211156115ec57600080fd5b6115f888838901611361565b9450604087013591508082111561160e57600080fd5b9086019060c0828903121561162257600080fd5b61162a6112e5565b82358281111561163957600080fd5b6116458a828601611361565b82525060208301358281111561165a57600080fd5b6116668a828601611361565b60208301525060408301358281111561167e57600080fd5b61168a8a828601611361565b604083015250606083013560608201526080830135608082015260a083013560a08201528094505060608701359150808211156116c657600080fd5b506116d387828801611361565b91505092959194509250565b600181811c908216806116f357607f821691505b60208210810361171357634e487b7160e01b600052602260045260246000fd5b50919050565b60208082526025908201527f457870657269656e63653a2063616c6c6572206973206e6f742074686520636f6040820152646d70616e7960d81b606082015260800190565b60208082526025908201527f457870657269656e63653a2063616c6c6572206973206e6f742074686520666160408201526463746f727960d81b606082015260800190565b6000602082840312156117b557600080fd5b8151801515811461129f57600080fd5b6020815281516020820152600060208301516040808401526113ec6060840182611260565b600060208083850312156117fd57600080fd5b825167ffffffffffffffff8082111561181557600080fd5b908401906040828703121561182957600080fd5b6118316112bc565b82518152838301518281111561184657600080fd5b80840193505086601f84011261185b57600080fd5b8251915061186b61138083611339565b828152878584860101111561187f57600080fd5b61188e8386830187870161123c565b938101939093525090949350505050565b601f8211156118e7576000816000526020600020601f850160051c810160208610156118c85750805b601f850160051c820191505b818110156105d8578281556001016118d4565b505050565b815167ffffffffffffffff811115611906576119066112a6565b61191a8161191484546116df565b8461189f565b602080601f83116001811461194f57600084156119375750858301515b600019600386901b1c1916600185901b1785556105d8565b600085815260208120601f198616915b8281101561197e5788860151825594840194600190910190840161195f565b508582101561199c5787850151600019600388901b60f8161c191681555b5050505050600190811b01905550565b6000602082840312156119be57600080fd5b815161129f816113f456fe7ea04aef6bca987a4816974a9eadce73182071dd7a8e8812099e1d973c1ae505a26469706673582212208195a3f400fe0238decf84936af5a6d9e8bde1bf674965dc6503d4d2ea87261364736f6c63430008180033",
  "linkReferences": {},
  "deployedLinkReferences": {}
}