{
  "_format": "hh-sol-artifact-1",
  "contractName": "Experience",
  "sourceName": "contracts/experience/Experience.sol",
  "abi": [
    {
      "inputs": [
        {
          "components": [
            {
              "internalType": "address",
              "name": "experienceFactory",
              "type": "address"
            },
            {
              "internalType": "address",
              "name": "portalRegistry",
              "type": "address"
            },
            {
              "internalType": "address",
              "name": "experienceRegistry",
              "type": "address"
            }
          ],
          "internalType": "struct ExperienceConstructorArgs",
          "name": "args",
          "type": "tuple"
        }
      ],
      "stateMutability": "nonpayable",
      "type": "constructor"
    },
    {
      "inputs": [],
      "name": "ReentrancyGuardReentrantCall",
      "type": "error"
    },
    {
      "anonymous": false,
      "inputs": [],
      "name": "ExperienceDeactivated",
      "type": "event"
    },
    {
      "anonymous": false,
      "inputs": [
        {
          "indexed": true,
          "internalType": "address",
          "name": "oldVersion",
          "type": "address"
        },
        {
          "indexed": true,
          "internalType": "address",
          "name": "newVersion",
          "type": "address"
        }
      ],
      "name": "ExperienceUpgraded",
      "type": "event"
    },
    {
      "anonymous": false,
      "inputs": [
        {
          "indexed": true,
          "internalType": "address",
          "name": "hook",
          "type": "address"
        }
      ],
      "name": "HookAdded",
      "type": "event"
    },
    {
      "anonymous": false,
      "inputs": [
        {
          "indexed": true,
          "internalType": "address",
          "name": "hook",
          "type": "address"
        }
      ],
      "name": "HookRemoved",
      "type": "event"
    },
    {
      "anonymous": false,
      "inputs": [
        {
          "indexed": true,
          "internalType": "address",
          "name": "sourceWorld",
          "type": "address"
        },
        {
          "indexed": true,
          "internalType": "address",
          "name": "sourceCompany",
          "type": "address"
        },
        {
          "indexed": true,
          "internalType": "address",
          "name": "avatar",
          "type": "address"
        },
        {
          "indexed": false,
          "internalType": "uint256",
          "name": "attachedFees",
          "type": "uint256"
        }
      ],
      "name": "JumpEntry",
      "type": "event"
    },
    {
      "anonymous": false,
      "inputs": [
        {
          "indexed": false,
          "internalType": "uint256",
          "name": "newFee",
          "type": "uint256"
        }
      ],
      "name": "PortalFeeChanged",
      "type": "event"
    },
    {
      "inputs": [
        {
          "internalType": "contract IExperienceHook",
          "name": "_hook",
          "type": "address"
        }
      ],
      "name": "addHook",
      "outputs": [],
      "stateMutability": "nonpayable",
      "type": "function"
    },
    {
      "inputs": [
        {
          "internalType": "contract IPortalCondition",
          "name": "condition",
          "type": "address"
        }
      ],
      "name": "addPortalCondition",
      "outputs": [],
      "stateMutability": "nonpayable",
      "type": "function"
    },
    {
      "inputs": [
        {
          "internalType": "uint256",
          "name": "fee",
          "type": "uint256"
        }
      ],
      "name": "changePortalFee",
      "outputs": [],
      "stateMutability": "nonpayable",
      "type": "function"
    },
    {
      "inputs": [],
      "name": "company",
      "outputs": [
        {
          "internalType": "address",
          "name": "",
          "type": "address"
        }
      ],
      "stateMutability": "view",
      "type": "function"
    },
    {
      "inputs": [],
      "name": "connectionDetails",
      "outputs": [
        {
          "internalType": "bytes",
          "name": "",
          "type": "bytes"
        }
      ],
      "stateMutability": "view",
      "type": "function"
    },
    {
      "inputs": [],
      "name": "deactive",
      "outputs": [],
      "stateMutability": "nonpayable",
      "type": "function"
    },
    {
      "inputs": [
        {
          "components": [
            {
              "internalType": "uint256",
              "name": "entryFee",
              "type": "uint256"
            },
            {
              "internalType": "bytes",
              "name": "connectionDetails",
              "type": "bytes"
            }
          ],
          "internalType": "struct ExperienceInitData",
          "name": "data",
          "type": "tuple"
        }
      ],
      "name": "encodeInitData",
      "outputs": [
        {
          "internalType": "bytes",
          "name": "",
          "type": "bytes"
        }
      ],
      "stateMutability": "pure",
      "type": "function"
    },
    {
      "inputs": [
        {
          "components": [
            {
              "internalType": "address",
              "name": "sourceWorld",
              "type": "address"
            },
            {
              "internalType": "address",
              "name": "sourceCompany",
              "type": "address"
            },
            {
              "internalType": "address",
              "name": "avatar",
              "type": "address"
            }
          ],
          "internalType": "struct JumpEntryRequest",
          "name": "request",
          "type": "tuple"
        }
      ],
      "name": "entering",
      "outputs": [
        {
          "internalType": "bytes",
          "name": "",
          "type": "bytes"
        }
      ],
      "stateMutability": "payable",
      "type": "function"
    },
    {
      "inputs": [],
      "name": "entryFee",
      "outputs": [
        {
          "internalType": "uint256",
          "name": "",
          "type": "uint256"
        }
      ],
      "stateMutability": "view",
      "type": "function"
    },
    {
      "inputs": [],
      "name": "experienceFactory",
      "outputs": [
        {
          "internalType": "address",
          "name": "",
          "type": "address"
        }
      ],
      "stateMutability": "view",
      "type": "function"
    },
    {
      "inputs": [],
      "name": "experienceRegistry",
      "outputs": [
        {
          "internalType": "contract IExperienceRegistry",
          "name": "",
          "type": "address"
        }
      ],
      "stateMutability": "view",
      "type": "function"
    },
    {
      "inputs": [
        {
          "internalType": "address",
          "name": "_company",
          "type": "address"
        },
        {
          "internalType": "string",
          "name": "_name",
          "type": "string"
        },
        {
          "components": [
            {
              "internalType": "string",
              "name": "x",
              "type": "string"
            },
            {
              "internalType": "string",
              "name": "y",
              "type": "string"
            },
            {
              "internalType": "string",
              "name": "z",
              "type": "string"
            },
            {
              "internalType": "uint256",
              "name": "t",
              "type": "uint256"
            },
            {
              "internalType": "uint256",
              "name": "p",
              "type": "uint256"
            },
            {
              "internalType": "uint256",
              "name": "p_sub",
              "type": "uint256"
            }
          ],
          "internalType": "struct VectorAddress",
          "name": "vector",
          "type": "tuple"
        },
        {
          "internalType": "bytes",
          "name": "initData",
          "type": "bytes"
        }
      ],
      "name": "init",
      "outputs": [],
      "stateMutability": "nonpayable",
      "type": "function"
    },
    {
      "inputs": [],
      "name": "isActive",
      "outputs": [
        {
          "internalType": "bool",
          "name": "",
          "type": "bool"
        }
      ],
      "stateMutability": "view",
      "type": "function"
    },
    {
      "inputs": [],
      "name": "name",
      "outputs": [
        {
          "internalType": "string",
          "name": "",
          "type": "string"
        }
      ],
      "stateMutability": "view",
      "type": "function"
    },
    {
      "inputs": [],
      "name": "portalRegistry",
      "outputs": [
        {
          "internalType": "contract IPortalRegistry",
          "name": "",
          "type": "address"
        }
      ],
      "stateMutability": "view",
      "type": "function"
    },
    {
      "inputs": [],
      "name": "removeHook",
      "outputs": [],
      "stateMutability": "nonpayable",
      "type": "function"
    },
    {
      "inputs": [],
      "name": "removePortalCondition",
      "outputs": [],
      "stateMutability": "nonpayable",
      "type": "function"
    },
    {
      "inputs": [
        {
          "internalType": "bytes",
          "name": "initData",
          "type": "bytes"
        }
      ],
      "name": "upgrade",
      "outputs": [],
      "stateMutability": "nonpayable",
      "type": "function"
    },
    {
      "inputs": [
        {
          "internalType": "address",
          "name": "nextVersion",
          "type": "address"
        }
      ],
      "name": "upgradeComplete",
      "outputs": [],
      "stateMutability": "nonpayable",
      "type": "function"
    },
    {
      "inputs": [],
      "name": "vectorAddress",
      "outputs": [
        {
          "components": [
            {
              "internalType": "string",
              "name": "x",
              "type": "string"
            },
            {
              "internalType": "string",
              "name": "y",
              "type": "string"
            },
            {
              "internalType": "string",
              "name": "z",
              "type": "string"
            },
            {
              "internalType": "uint256",
              "name": "t",
              "type": "uint256"
            },
            {
              "internalType": "uint256",
              "name": "p",
              "type": "uint256"
            },
            {
              "internalType": "uint256",
              "name": "p_sub",
              "type": "uint256"
            }
          ],
          "internalType": "struct VectorAddress",
          "name": "",
          "type": "tuple"
        }
      ],
      "stateMutability": "view",
      "type": "function"
    },
    {
      "inputs": [],
      "name": "version",
      "outputs": [
        {
          "internalType": "uint256",
          "name": "",
          "type": "uint256"
        }
      ],
      "stateMutability": "view",
      "type": "function"
    },
    {
      "inputs": [],
      "name": "world",
      "outputs": [
        {
          "internalType": "address",
          "name": "",
          "type": "address"
        }
      ],
      "stateMutability": "view",
      "type": "function"
    },
    {
      "stateMutability": "payable",
      "type": "receive"
    }
  ],
  "bytecode": "0x60e06040523480156200001157600080fd5b5060405162001f9338038062001f938339810160408190526200003491620001b9565b600160005580516001600160a01b0316620000965760405162461bcd60e51b815260206004820181905260248201527f457870657269656e63653a207a65726f206164647265737320666163746f727960448201526064015b60405180910390fd5b60208101516001600160a01b0316620001025760405162461bcd60e51b815260206004820152602760248201527f457870657269656e63653a207a65726f206164647265737320706f7274616c526044820152666567697374727960c81b60648201526084016200008d565b60408101516001600160a01b0316620001725760405162461bcd60e51b815260206004820152602b60248201527f457870657269656e63653a207a65726f2061646472657373206578706572696560448201526a6e6365526567697374727960a81b60648201526084016200008d565b80516001600160a01b039081166080526020820151811660a0526040909101511660c0526200023a565b80516001600160a01b0381168114620001b457600080fd5b919050565b600060608284031215620001cc57600080fd5b604051606081016001600160401b0381118282101715620001fd57634e487b7160e01b600052604160045260246000fd5b6040526200020b836200019c565b81526200021b602084016200019c565b60208201526200022e604084016200019c565b60408201529392505050565b60805160a05160c051611cf1620002a26000396000818161036b0152818161058701526111730152600081816103b401528181610a5e01528181610dca01528181610ee701526110c5015260008181610317015281816105fe01526112aa0152611cf16000f3fe6080604052600436106101395760003560e01c806358779dcf116100ab57806383c342631161006f57806383c34263146103395780638f09a6be14610359578063a008f7091461038d578063b6664934146103a2578063d97c02f7146103d6578063fad94ff0146103f657600080fd5b806358779dcf1461029b5780636904c94d146102b05780636fdfe1b6146102c55780637b4e04e8146102e557806381bb20291461030557600080fd5b80632663d1f7116100fd5780632663d1f7146101ef5780632fcbab9a1461020f57806330b67baa14610231578063378f17ff1461025e57806354cc5a0b1461027357806354fd4d501461028657600080fd5b806306fdde0314610145578063072ea61c146101705780631864a47c1461019357806322f3e2d4146101a857806325394645146101cd57600080fd5b3661014057005b600080fd5b34801561015157600080fd5b5061015a610416565b604051610167919061154e565b60405180910390f35b34801561017c57600080fd5b506101856104b7565b604051908152602001610167565b34801561019f57600080fd5b5061015a6104cc565b3480156101b457600080fd5b506101bd6104e9565b6040519015158152602001610167565b3480156101d957600080fd5b506101ed6101e8366004611679565b6104fe565b005b3480156101fb57600080fd5b506101ed61020a3660046116ce565b6105f3565b34801561021b57600080fd5b506102246106db565b60405161016791906116eb565b34801561023d57600080fd5b50610246610909565b6040516001600160a01b039091168152602001610167565b34801561026a57600080fd5b506101ed610927565b61015a61028136600461176e565b610a49565b34801561029257600080fd5b50610185600181565b3480156102a757600080fd5b506101ed610d5f565b3480156102bc57600080fd5b50610246610e3f565b3480156102d157600080fd5b506101ed6102e03660046116ce565b610e5f565b3480156102f157600080fd5b506101ed6103003660046116ce565b610f16565b34801561031157600080fd5b506102467f000000000000000000000000000000000000000000000000000000000000000081565b34801561034557600080fd5b506101ed6103543660046117e0565b611032565b34801561036557600080fd5b506102467f000000000000000000000000000000000000000000000000000000000000000081565b34801561039957600080fd5b506101ed611168565b3480156103ae57600080fd5b506102467f000000000000000000000000000000000000000000000000000000000000000081565b3480156103e257600080fd5b5061015a6103f13660046117f9565b611276565b34801561040257600080fd5b506101ed610411366004611870565b61129f565b606060006104226114b0565b9050806009018054610433906119a1565b80601f016020809104026020016040519081016040528092919081815260200182805461045f906119a1565b80156104ac5780601f10610481576101008083540402835291602001916104ac565b820191906000526020600020905b81548152906001019060200180831161048f57829003601f168201915b505050505091505090565b6000806104c26114b0565b600a015492915050565b606060006104d86114b0565b905080600b018054610433906119a1565b6000806104f46114b0565b5460ff1692915050565b60006105086114b0565b805490915061010090046001600160a01b031633146105425760405162461bcd60e51b8152600401610539906119db565b60405180910390fd5b600061054c6114b0565b805490915060ff166105705760405162461bcd60e51b815260040161053990611a20565b604051636d941fe760e01b81526001600160a01b037f00000000000000000000000000000000000000000000000000000000000000001690636d941fe7906105bc90869060040161154e565b600060405180830381600087803b1580156105d657600080fd5b505af11580156105ea573d6000803e3d6000fd5b50505050505050565b336001600160a01b037f0000000000000000000000000000000000000000000000000000000000000000161461063b5760405162461bcd60e51b815260040161053990611a50565b60006106456114b0565b805490915060ff166106695760405162461bcd60e51b815260040161053990611a20565b7f69198989339f34e10129e514286bde98979351148754faef989dde18bf6d14da80546001600160a01b031981166001600160a01b03858116918217845560405192169182907ffcdd1163294624e52a4e91ca619f82b1f2c5a096836fbd81f14e0b550fe8317790600090a350505050565b6107146040518060c001604052806060815260200160608152602001606081526020016000815260200160008152602001600081525090565b600061071e6114b0565b9050806003016040518060c001604052908160008201805461073f906119a1565b80601f016020809104026020016040519081016040528092919081815260200182805461076b906119a1565b80156107b85780601f1061078d576101008083540402835291602001916107b8565b820191906000526020600020905b81548152906001019060200180831161079b57829003601f168201915b505050505081526020016001820180546107d1906119a1565b80601f01602080910402602001604051908101604052809291908181526020018280546107fd906119a1565b801561084a5780601f1061081f5761010080835404028352916020019161084a565b820191906000526020600020905b81548152906001019060200180831161082d57829003601f168201915b50505050508152602001600282018054610863906119a1565b80601f016020809104026020016040519081016040528092919081815260200182805461088f906119a1565b80156108dc5780601f106108b1576101008083540402835291602001916108dc565b820191906000526020600020905b8154815290600101906020018083116108bf57829003601f168201915b50505050508152602001600382015481526020016004820154815260200160058201548152505091505090565b6000806109146114b0565b600101546001600160a01b031692915050565b60006109316114b0565b805490915061010090046001600160a01b031633146109625760405162461bcd60e51b8152600401610539906119db565b600061096c6114b0565b805490915060ff166109905760405162461bcd60e51b815260040161053990611a20565b600061099a6114b0565b60028101549091506001600160a01b03166109f75760405162461bcd60e51b815260206004820152601860248201527f457870657269656e63653a20686f6f6b206e6f742073657400000000000000006044820152606401610539565b60028101546040516001600160a01b039091169081907f47d0871e905ac6550f54ba266e0d90d2dc8ed67a957c064ca3438eddf4e3fd8990600090a25060020180546001600160a01b03191690555050565b6060610a536114d4565b336001600160a01b037f00000000000000000000000000000000000000000000000000000000000000001614610ae15760405162461bcd60e51b815260206004820152602d60248201527f457870657269656e63653a2063616c6c6572206973206e6f742074686520706f60448201526c7274616c20726567697374727960981b6064820152608401610539565b6000610aeb6114b0565b805490915060ff16610b0f5760405162461bcd60e51b815260040161053990611a20565b6000610b196114b0565b60028101549091506001600160a01b031615610c21576002810154845160208601516040808801519051630a17c10560e21b81523060048201526001600160a01b039384166024820152918316604483015282166064820152600092919091169063285f0414906084016020604051808303816000875af1158015610ba2573d6000803e3d6000fd5b505050506040513d601f19601f82011682018060405250810190610bc69190611a95565b905080610c1f5760405162461bcd60e51b815260206004820152602160248201527f457870657269656e63653a20686f6f6b20646973616c6c6f77656420656e74726044820152607960f81b6064820152608401610539565b505b600a81015415610cbf5780600a01543414610c7e5760405162461bcd60e51b815260206004820152601f60248201527f457870657269656e63653a20696e636f727265637420656e74727920666565006044820152606401610539565b80546040516001600160a01b0361010090920491909116903480156108fc02916000818181858888f19350505050158015610cbd573d6000803e3d6000fd5b505b80600b018054610cce906119a1565b80601f0160208091040260200160405190810160405280929190818152602001828054610cfa906119a1565b8015610d475780601f10610d1c57610100808354040283529160200191610d47565b820191906000526020600020905b815481529060010190602001808311610d2a57829003601f168201915b505050505092505050610d5a6001600055565b919050565b6000610d696114b0565b805490915061010090046001600160a01b03163314610d9a5760405162461bcd60e51b8152600401610539906119db565b6000610da46114b0565b805490915060ff16610dc85760405162461bcd60e51b815260040161053990611a20565b7f00000000000000000000000000000000000000000000000000000000000000006001600160a01b031663021665b76040518163ffffffff1660e01b8152600401600060405180830381600087803b158015610e2357600080fd5b505af1158015610e37573d6000803e3d6000fd5b505050505050565b600080610e4a6114b0565b5461010090046001600160a01b031692915050565b6000610e696114b0565b805490915061010090046001600160a01b03163314610e9a5760405162461bcd60e51b8152600401610539906119db565b6000610ea46114b0565b805490915060ff16610ec85760405162461bcd60e51b815260040161053990611a20565b604051631169a49960e11b81526001600160a01b0384811660048301527f000000000000000000000000000000000000000000000000000000000000000016906322d34932906024016105bc565b6000610f206114b0565b805490915061010090046001600160a01b03163314610f515760405162461bcd60e51b8152600401610539906119db565b6000610f5b6114b0565b805490915060ff16610f7f5760405162461bcd60e51b815260040161053990611a20565b6001600160a01b038316610fd55760405162461bcd60e51b815260206004820152601d60248201527f457870657269656e63653a20686f6f6b207a65726f20616464726573730000006044820152606401610539565b6000610fdf6114b0565b6002810180546001600160a01b0319166001600160a01b038716908117909155604051919250907f28e00134722f84e69c391c81e4fe022ee3e61048222a8ea2f98c9f235f79750890600090a250505050565b600061103c6114b0565b805490915061010090046001600160a01b0316331461106d5760405162461bcd60e51b8152600401610539906119db565b60006110776114b0565b805490915060ff1661109b5760405162461bcd60e51b815260040161053990611a20565b60006110a56114b0565b600a81018590556040516383c3426360e01b8152600481018690529091507f00000000000000000000000000000000000000000000000000000000000000006001600160a01b0316906383c3426390602401600060405180830381600087803b15801561111157600080fd5b505af1158015611125573d6000803e3d6000fd5b505050507fc777ac489c019545540295deb6dee51fa4df4300a7b8c7b0ab785507cafeb1e98460405161115a91815260200190565b60405180910390a150505050565b336001600160a01b037f000000000000000000000000000000000000000000000000000000000000000016146111ef5760405162461bcd60e51b815260206004820152602660248201527f457870657269656e63653a2063616c6c6572206973206e6f742074686520726560448201526567697374727960d01b6064820152608401610539565b60006111f96114b0565b805460ff191681559050471561124a5780546040516001600160a01b0361010090920491909116904780156108fc02916000818181858888f19350505050158015611248573d6000803e3d6000fd5b505b6040517f1cabccdc2d1e9b8b0dfdfc82b79b881b7bff3debd9cc6acdbcbac533becbfc4990600090a150565b6060816040516020016112899190611ab7565b6040516020818303038152906040529050919050565b336001600160a01b037f000000000000000000000000000000000000000000000000000000000000000016146112e75760405162461bcd60e51b815260040161053990611a50565b60006112f16114b0565b805490915061010090046001600160a01b0316156113515760405162461bcd60e51b815260206004820152601f60248201527f457870657269656e63653a20616c726561647920696e697469616c697a6564006044820152606401610539565b8054610100600160a81b0319166101006001600160a01b0387160217815581516000906113879060209085018101908501611adc565b845190915084906003840190819061139f9082611bde565b50602082015160018201906113b49082611bde565b50604082015160028201906113c99082611bde565b50606082015181600301556080820151816004015560a082015181600501559050508160000160019054906101000a90046001600160a01b03166001600160a01b03166330b67baa6040518163ffffffff1660e01b8152600401602060405180830381865afa158015611440573d6000803e3d6000fd5b505050506040513d601f19601f820116820180604052508101906114649190611c9e565b6001830180546001600160a01b0319166001600160a01b0392909216919091179055600982016114948682611bde565b508051600a8301556020810151600b8301906105ea9082611bde565b7f7ea04aef6bca987a4816974a9eadce73182071dd7a8e8812099e1d973c1ae50590565b6002600054036114f757604051633ee5aeb560e01b815260040160405180910390fd5b6002600055565b60005b83811015611519578181015183820152602001611501565b50506000910152565b6000815180845261153a8160208601602086016114fe565b601f01601f19169290920160200192915050565b6020815260006115616020830184611522565b9392505050565b634e487b7160e01b600052604160045260246000fd5b6040805190810167ffffffffffffffff811182821017156115a1576115a1611568565b60405290565b60405160c0810167ffffffffffffffff811182821017156115a1576115a1611568565b604051601f8201601f1916810167ffffffffffffffff811182821017156115f3576115f3611568565b604052919050565b600067ffffffffffffffff82111561161557611615611568565b50601f01601f191660200190565b600082601f83011261163457600080fd5b8135611647611642826115fb565b6115ca565b81815284602083860101111561165c57600080fd5b816020850160208301376000918101602001919091529392505050565b60006020828403121561168b57600080fd5b813567ffffffffffffffff8111156116a257600080fd5b6116ae84828501611623565b949350505050565b6001600160a01b03811681146116cb57600080fd5b50565b6000602082840312156116e057600080fd5b8135611561816116b6565b602081526000825160c0602084015261170760e0840182611522565b90506020840151601f19808584030160408601526117258383611522565b92506040860151915080858403016060860152506117438282611522565b91505060608401516080840152608084015160a084015260a084015160c08401528091505092915050565b60006060828403121561178057600080fd5b6040516060810181811067ffffffffffffffff821117156117a3576117a3611568565b60405282356117b1816116b6565b815260208301356117c1816116b6565b602082015260408301356117d4816116b6565b60408201529392505050565b6000602082840312156117f257600080fd5b5035919050565b60006020828403121561180b57600080fd5b813567ffffffffffffffff8082111561182357600080fd5b908301906040828603121561183757600080fd5b61183f61157e565b8235815260208301358281111561185557600080fd5b61186187828601611623565b60208301525095945050505050565b6000806000806080858703121561188657600080fd5b8435611891816116b6565b9350602085013567ffffffffffffffff808211156118ae57600080fd5b6118ba88838901611623565b945060408701359150808211156118d057600080fd5b9086019060c082890312156118e457600080fd5b6118ec6115a7565b8235828111156118fb57600080fd5b6119078a828601611623565b82525060208301358281111561191c57600080fd5b6119288a828601611623565b60208301525060408301358281111561194057600080fd5b61194c8a828601611623565b604083015250606083013560608201526080830135608082015260a083013560a082015280945050606087013591508082111561198857600080fd5b5061199587828801611623565b91505092959194509250565b600181811c908216806119b557607f821691505b6020821081036119d557634e487b7160e01b600052602260045260246000fd5b50919050565b60208082526025908201527f457870657269656e63653a2063616c6c6572206973206e6f742074686520636f6040820152646d70616e7960d81b606082015260800190565b602080825260169082015275457870657269656e63653a206e6f742061637469766560501b604082015260600190565b60208082526025908201527f457870657269656e63653a2063616c6c6572206973206e6f742074686520666160408201526463746f727960d81b606082015260800190565b600060208284031215611aa757600080fd5b8151801515811461156157600080fd5b6020815281516020820152600060208301516040808401526116ae6060840182611522565b60006020808385031215611aef57600080fd5b825167ffffffffffffffff80821115611b0757600080fd5b9084019060408287031215611b1b57600080fd5b611b2361157e565b825181528383015182811115611b3857600080fd5b80840193505086601f840112611b4d57600080fd5b82519150611b5d611642836115fb565b8281528785848601011115611b7157600080fd5b611b80838683018787016114fe565b938101939093525090949350505050565b601f821115611bd9576000816000526020600020601f850160051c81016020861015611bba5750805b601f850160051c820191505b81811015610e3757828155600101611bc6565b505050565b815167ffffffffffffffff811115611bf857611bf8611568565b611c0c81611c0684546119a1565b84611b91565b602080601f831160018114611c415760008415611c295750858301515b600019600386901b1c1916600185901b178555610e37565b600085815260208120601f198616915b82811015611c7057888601518255948401946001909101908401611c51565b5085821015611c8e5787850151600019600388901b60f8161c191681555b5050505050600190811b01905550565b600060208284031215611cb057600080fd5b8151611561816116b656fea2646970667358221220ad618703e2ac64bdbf04271d6706b4bb8c5ac58f1abd36d5ead31fdd71834de264736f6c63430008180033",
  "linkReferences": {},
  "deployedLinkReferences": {}
}