{
  "_format": "hh-sol-artifact-1",
  "contractName": "Experience",
  "sourceName": "contracts/experience/Experience.sol",
  "abi": [
    {
      "inputs": [
        {
          "components": [
            {
              "internalType": "address",
              "name": "experienceFactory",
              "type": "address"
            },
            {
              "internalType": "address",
              "name": "portalRegistry",
              "type": "address"
            },
            {
              "internalType": "address",
              "name": "experienceRegistry",
              "type": "address"
            }
          ],
          "internalType": "struct ExperienceConstructorArgs",
          "name": "args",
          "type": "tuple"
        }
      ],
      "stateMutability": "nonpayable",
      "type": "constructor"
    },
    {
      "inputs": [],
      "name": "ReentrancyGuardReentrantCall",
      "type": "error"
    },
    {
      "anonymous": false,
      "inputs": [
        {
          "indexed": true,
          "internalType": "address",
          "name": "oldVersion",
          "type": "address"
        },
        {
          "indexed": true,
          "internalType": "address",
          "name": "newVersion",
          "type": "address"
        }
      ],
      "name": "ExperienceUpgraded",
      "type": "event"
    },
    {
      "anonymous": false,
      "inputs": [
        {
          "indexed": true,
          "internalType": "address",
          "name": "hook",
          "type": "address"
        }
      ],
      "name": "HookAdded",
      "type": "event"
    },
    {
      "anonymous": false,
      "inputs": [
        {
          "indexed": true,
          "internalType": "address",
          "name": "hook",
          "type": "address"
        }
      ],
      "name": "HookRemoved",
      "type": "event"
    },
    {
      "anonymous": false,
      "inputs": [
        {
          "indexed": true,
          "internalType": "address",
          "name": "sourceWorld",
          "type": "address"
        },
        {
          "indexed": true,
          "internalType": "address",
          "name": "sourceCompany",
          "type": "address"
        },
        {
          "indexed": true,
          "internalType": "address",
          "name": "avatar",
          "type": "address"
        },
        {
          "indexed": false,
          "internalType": "uint256",
          "name": "attachedFees",
          "type": "uint256"
        }
      ],
      "name": "JumpEntry",
      "type": "event"
    },
    {
      "inputs": [],
      "name": "_company",
      "outputs": [
        {
          "internalType": "contract IBasicCompany",
          "name": "",
          "type": "address"
        }
      ],
      "stateMutability": "view",
      "type": "function"
    },
    {
      "inputs": [
        {
          "internalType": "contract IExperienceHook",
          "name": "_hook",
          "type": "address"
        }
      ],
      "name": "addHook",
      "outputs": [],
      "stateMutability": "nonpayable",
      "type": "function"
    },
    {
      "inputs": [],
      "name": "company",
      "outputs": [
        {
          "internalType": "address",
          "name": "",
          "type": "address"
        }
      ],
      "stateMutability": "view",
      "type": "function"
    },
    {
      "inputs": [],
      "name": "connectionDetails",
      "outputs": [
        {
          "internalType": "bytes",
          "name": "",
          "type": "bytes"
        }
      ],
      "stateMutability": "view",
      "type": "function"
    },
    {
      "inputs": [
        {
          "components": [
            {
              "internalType": "address",
              "name": "sourceWorld",
              "type": "address"
            },
            {
              "internalType": "address",
              "name": "sourceCompany",
              "type": "address"
            },
            {
              "internalType": "address",
              "name": "avatar",
              "type": "address"
            }
          ],
          "internalType": "struct JumpEntryRequest",
          "name": "request",
          "type": "tuple"
        }
      ],
      "name": "entering",
      "outputs": [
        {
          "internalType": "bytes",
          "name": "",
          "type": "bytes"
        }
      ],
      "stateMutability": "payable",
      "type": "function"
    },
    {
      "inputs": [],
      "name": "entryFee",
      "outputs": [
        {
          "internalType": "uint256",
          "name": "",
          "type": "uint256"
        }
      ],
      "stateMutability": "view",
      "type": "function"
    },
    {
      "inputs": [],
      "name": "experienceFactory",
      "outputs": [
        {
          "internalType": "address",
          "name": "",
          "type": "address"
        }
      ],
      "stateMutability": "view",
      "type": "function"
    },
    {
      "inputs": [],
      "name": "experienceRegistry",
      "outputs": [
        {
          "internalType": "contract IExperienceRegistry",
          "name": "",
          "type": "address"
        }
      ],
      "stateMutability": "view",
      "type": "function"
    },
    {
      "inputs": [
        {
          "internalType": "address",
          "name": "nextVersion",
          "type": "address"
        }
      ],
      "name": "experienceUpgraded",
      "outputs": [],
      "stateMutability": "nonpayable",
      "type": "function"
    },
    {
      "inputs": [],
      "name": "hook",
      "outputs": [
        {
          "internalType": "contract IExperienceHook",
          "name": "",
          "type": "address"
        }
      ],
      "stateMutability": "view",
      "type": "function"
    },
    {
      "inputs": [
        {
          "internalType": "address",
          "name": "__company",
          "type": "address"
        },
        {
          "components": [
            {
              "internalType": "string",
              "name": "x",
              "type": "string"
            },
            {
              "internalType": "string",
              "name": "y",
              "type": "string"
            },
            {
              "internalType": "string",
              "name": "z",
              "type": "string"
            },
            {
              "internalType": "uint256",
              "name": "t",
              "type": "uint256"
            },
            {
              "internalType": "uint256",
              "name": "p",
              "type": "uint256"
            },
            {
              "internalType": "uint256",
              "name": "p_sub",
              "type": "uint256"
            }
          ],
          "internalType": "struct VectorAddress",
          "name": "vector",
          "type": "tuple"
        },
        {
          "internalType": "bytes",
          "name": "initData",
          "type": "bytes"
        }
      ],
      "name": "init",
      "outputs": [],
      "stateMutability": "nonpayable",
      "type": "function"
    },
    {
      "inputs": [],
      "name": "name",
      "outputs": [
        {
          "internalType": "string",
          "name": "",
          "type": "string"
        }
      ],
      "stateMutability": "view",
      "type": "function"
    },
    {
      "inputs": [],
      "name": "portalRegistry",
      "outputs": [
        {
          "internalType": "address",
          "name": "",
          "type": "address"
        }
      ],
      "stateMutability": "view",
      "type": "function"
    },
    {
      "inputs": [],
      "name": "removeHook",
      "outputs": [],
      "stateMutability": "nonpayable",
      "type": "function"
    },
    {
      "inputs": [
        {
          "internalType": "bytes",
          "name": "initData",
          "type": "bytes"
        }
      ],
      "name": "upgrade",
      "outputs": [],
      "stateMutability": "nonpayable",
      "type": "function"
    },
    {
      "inputs": [],
      "name": "upgraded",
      "outputs": [
        {
          "internalType": "bool",
          "name": "",
          "type": "bool"
        }
      ],
      "stateMutability": "view",
      "type": "function"
    },
    {
      "inputs": [],
      "name": "vectorAddress",
      "outputs": [
        {
          "components": [
            {
              "internalType": "string",
              "name": "x",
              "type": "string"
            },
            {
              "internalType": "string",
              "name": "y",
              "type": "string"
            },
            {
              "internalType": "string",
              "name": "z",
              "type": "string"
            },
            {
              "internalType": "uint256",
              "name": "t",
              "type": "uint256"
            },
            {
              "internalType": "uint256",
              "name": "p",
              "type": "uint256"
            },
            {
              "internalType": "uint256",
              "name": "p_sub",
              "type": "uint256"
            }
          ],
          "internalType": "struct VectorAddress",
          "name": "",
          "type": "tuple"
        }
      ],
      "stateMutability": "view",
      "type": "function"
    },
    {
      "inputs": [],
      "name": "world",
      "outputs": [
        {
          "internalType": "address",
          "name": "",
          "type": "address"
        }
      ],
      "stateMutability": "view",
      "type": "function"
    },
    {
      "stateMutability": "payable",
      "type": "receive"
    }
  ],
  "bytecode": "0x60e06040523480156200001157600080fd5b50604051620018d2380380620018d28339810160408190526200003491620001b9565b600160005580516001600160a01b0316620000965760405162461bcd60e51b815260206004820181905260248201527f457870657269656e63653a207a65726f206164647265737320666163746f727960448201526064015b60405180910390fd5b60208101516001600160a01b0316620001025760405162461bcd60e51b815260206004820152602760248201527f457870657269656e63653a207a65726f206164647265737320706f7274616c526044820152666567697374727960c81b60648201526084016200008d565b60408101516001600160a01b0316620001725760405162461bcd60e51b815260206004820152602b60248201527f457870657269656e63653a207a65726f2061646472657373206578706572696560448201526a6e6365526567697374727960a81b60648201526084016200008d565b80516001600160a01b039081166080526020820151811660a0526040909101511660c0526200023a565b80516001600160a01b0381168114620001b457600080fd5b919050565b600060608284031215620001cc57600080fd5b604051606081016001600160401b0381118282101715620001fd57634e487b7160e01b600052604160045260246000fd5b6040526200020b836200019c565b81526200021b602084016200019c565b60208201526200022e604084016200019c565b60408201529392505050565b60805160a05160c05161164c6200028660003960008181610328015281816105060152610ae90152600081816103a1015261089b0152600081816102f40152610cdb015261164c6000f3fe60806040526004361061010d5760003560e01c80636904c94d116100955780638f09a6be116100645780638f09a6be14610316578063a4e2a16e1461034a578063b52818a91461036f578063b66649341461038f578063c28de2cd146103c357600080fd5b80636904c94d1461027f5780637b4e04e8146102a25780637f5a7c7b146102c257806381bb2029146102e257600080fd5b80632fcbab9a116100dc5780632fcbab9a146101dd57806330b67baa146101ff578063378f17ff1461023757806354cc5a0b1461024c578063669ecb601461025f57600080fd5b806306fdde0314610159578063072ea61c146101845780631864a47c146101a857806325394645146101bd57600080fd5b36610154576001546040516001600160a01b0361010090920491909116903480156108fc02916000818181858888f19350505050158015610152573d6000803e3d6000fd5b005b600080fd5b34801561016557600080fd5b5061016e6103ed565b60405161017b9190610f80565b60405180910390f35b34801561019057600080fd5b5061019a600b5481565b60405190815260200161017b565b3480156101b457600080fd5b5061016e61047b565b3480156101c957600080fd5b506101526101d83660046110ab565b610488565b3480156101e957600080fd5b506101f2610570565b60405161017b91906110e8565b34801561020b57600080fd5b5060025461021f906001600160a01b031681565b6040516001600160a01b03909116815260200161017b565b34801561024357600080fd5b5061015261078f565b61016e61025a366004611183565b610886565b34801561026b57600080fd5b5061015261027a3660046111d7565b610ade565b34801561028b57600080fd5b5060015461010090046001600160a01b031661021f565b3480156102ae57600080fd5b506101526102bd3660046111d7565b610bde565b3480156102ce57600080fd5b5060035461021f906001600160a01b031681565b3480156102ee57600080fd5b5061021f7f000000000000000000000000000000000000000000000000000000000000000081565b34801561032257600080fd5b5061021f7f000000000000000000000000000000000000000000000000000000000000000081565b34801561035657600080fd5b5060015461021f9061010090046001600160a01b031681565b34801561037b57600080fd5b5061015261038a3660046111f4565b610cd0565b34801561039b57600080fd5b5061021f7f000000000000000000000000000000000000000000000000000000000000000081565b3480156103cf57600080fd5b506001546103dd9060ff1681565b604051901515815260200161017b565b600a80546103fa90611300565b80601f016020809104026020016040519081016040528092919081815260200182805461042690611300565b80156104735780601f1061044857610100808354040283529160200191610473565b820191906000526020600020905b81548152906001019060200180831161045657829003601f168201915b505050505081565b600c80546103fa90611300565b60015461010090046001600160a01b031633146104c05760405162461bcd60e51b81526004016104b79061133a565b60405180910390fd5b60015460ff16156104e35760405162461bcd60e51b81526004016104b79061137f565b6001805460ff191681179055604051636d941fe760e01b81526001600160a01b037f00000000000000000000000000000000000000000000000000000000000000001690636d941fe79061053b908490600401610f80565b600060405180830381600087803b15801561055557600080fd5b505af1158015610569573d6000803e3d6000fd5b5050505050565b6105a96040518060c001604052806060815260200160608152602001606081526020016000815260200160008152602001600081525090565b60046040518060c00160405290816000820180546105c690611300565b80601f01602080910402602001604051908101604052809291908181526020018280546105f290611300565b801561063f5780601f106106145761010080835404028352916020019161063f565b820191906000526020600020905b81548152906001019060200180831161062257829003601f168201915b5050505050815260200160018201805461065890611300565b80601f016020809104026020016040519081016040528092919081815260200182805461068490611300565b80156106d15780601f106106a6576101008083540402835291602001916106d1565b820191906000526020600020905b8154815290600101906020018083116106b457829003601f168201915b505050505081526020016002820180546106ea90611300565b80601f016020809104026020016040519081016040528092919081815260200182805461071690611300565b80156107635780601f1061073857610100808354040283529160200191610763565b820191906000526020600020905b81548152906001019060200180831161074657829003601f168201915b505050505081526020016003820154815260200160048201548152602001600582015481525050905090565b60015461010090046001600160a01b031633146107be5760405162461bcd60e51b81526004016104b79061133a565b60015460ff16156107e15760405162461bcd60e51b81526004016104b79061137f565b6003546001600160a01b03166108395760405162461bcd60e51b815260206004820152601860248201527f457870657269656e63653a20686f6f6b206e6f7420736574000000000000000060448201526064016104b7565b6003546040516001600160a01b039091169081907f47d0871e905ac6550f54ba266e0d90d2dc8ed67a957c064ca3438eddf4e3fd8990600090a250600380546001600160a01b0319169055565b6060610890610f06565b336001600160a01b037f0000000000000000000000000000000000000000000000000000000000000000161461091e5760405162461bcd60e51b815260206004820152602d60248201527f457870657269656e63653a2063616c6c6572206973206e6f742074686520706f60448201526c7274616c20726567697374727960981b60648201526084016104b7565b60015460ff16156109415760405162461bcd60e51b81526004016104b79061137f565b6003546001600160a01b031615610a4257600354825160208401516040808601519051630a17c10560e21b81523060048201526001600160a01b039384166024820152918316604483015282166064820152600092919091169063285f0414906084016020604051808303816000875af11580156109c3573d6000803e3d6000fd5b505050506040513d601f19601f820116820180604052508101906109e791906113c7565b905080610a405760405162461bcd60e51b815260206004820152602160248201527f457870657269656e63653a20686f6f6b20646973616c6c6f77656420656e74726044820152607960f81b60648201526084016104b7565b505b600c8054610a4f90611300565b80601f0160208091040260200160405190810160405280929190818152602001828054610a7b90611300565b8015610ac85780601f10610a9d57610100808354040283529160200191610ac8565b820191906000526020600020905b815481529060010190602001808311610aab57829003601f168201915b50505050509050610ad96001600055565b919050565b336001600160a01b037f00000000000000000000000000000000000000000000000000000000000000001614610b655760405162461bcd60e51b815260206004820152602660248201527f457870657269656e63653a2063616c6c6572206973206e6f742074686520726560448201526567697374727960d01b60648201526084016104b7565b478015610ba4576040516001600160a01b0383169082156108fc029083906000818181858888f19350505050158015610ba2573d6000803e3d6000fd5b505b6040516001600160a01b0383169030907ffcdd1163294624e52a4e91ca619f82b1f2c5a096836fbd81f14e0b550fe8317790600090a35050565b60015461010090046001600160a01b03163314610c0d5760405162461bcd60e51b81526004016104b79061133a565b60015460ff1615610c305760405162461bcd60e51b81526004016104b79061137f565b6001600160a01b038116610c865760405162461bcd60e51b815260206004820152601d60248201527f457870657269656e63653a20686f6f6b207a65726f206164647265737300000060448201526064016104b7565b600380546001600160a01b0319166001600160a01b0383169081179091556040517f28e00134722f84e69c391c81e4fe022ee3e61048222a8ea2f98c9f235f79750890600090a250565b336001600160a01b037f00000000000000000000000000000000000000000000000000000000000000001614610d565760405162461bcd60e51b815260206004820152602560248201527f457870657269656e63653a2063616c6c6572206973206e6f742074686520666160448201526463746f727960d81b60648201526084016104b7565b6001600160a01b03831615610dad5760405162461bcd60e51b815260206004820152601f60248201527f457870657269656e63653a20616c726561647920696e697469616c697a65640060448201526064016104b7565b60018054610100600160a81b0319166101006001600160a01b038616021790558051600090610de59060209084018101908401611439565b835190915083906004908190610dfb9082611539565b5060208201516001820190610e109082611539565b5060408201516002820190610e259082611539565b50606082015181600301556080820151816004015560a0820151816005015590505060018054906101000a90046001600160a01b03166001600160a01b03166330b67baa6040518163ffffffff1660e01b8152600401602060405180830381865afa158015610e98573d6000803e3d6000fd5b505050506040513d601f19601f82011682018060405250810190610ebc91906115f9565b600280546001600160a01b0319166001600160a01b03929092169190911790558051600a90610eeb9082611539565b506020810151600b556040810151600c906105699082611539565b600260005403610f2957604051633ee5aeb560e01b815260040160405180910390fd5b6002600055565b60005b83811015610f4b578181015183820152602001610f33565b50506000910152565b60008151808452610f6c816020860160208601610f30565b601f01601f19169290920160200192915050565b602081526000610f936020830184610f54565b9392505050565b634e487b7160e01b600052604160045260246000fd5b6040516060810167ffffffffffffffff81118282101715610fd357610fd3610f9a565b60405290565b60405160c0810167ffffffffffffffff81118282101715610fd357610fd3610f9a565b604051601f8201601f1916810167ffffffffffffffff8111828210171561102557611025610f9a565b604052919050565b600067ffffffffffffffff82111561104757611047610f9a565b50601f01601f191660200190565b600082601f83011261106657600080fd5b81356110796110748261102d565b610ffc565b81815284602083860101111561108e57600080fd5b816020850160208301376000918101602001919091529392505050565b6000602082840312156110bd57600080fd5b813567ffffffffffffffff8111156110d457600080fd5b6110e084828501611055565b949350505050565b602081526000825160c0602084015261110460e0840182610f54565b90506020840151601f19808584030160408601526111228383610f54565b92506040860151915080858403016060860152506111408282610f54565b91505060608401516080840152608084015160a084015260a084015160c08401528091505092915050565b6001600160a01b038116811461118057600080fd5b50565b60006060828403121561119557600080fd5b61119d610fb0565b82356111a88161116b565b815260208301356111b88161116b565b602082015260408301356111cb8161116b565b60408201529392505050565b6000602082840312156111e957600080fd5b8135610f938161116b565b60008060006060848603121561120957600080fd5b83356112148161116b565b9250602084013567ffffffffffffffff8082111561123157600080fd5b9085019060c0828803121561124557600080fd5b61124d610fd9565b82358281111561125c57600080fd5b61126889828601611055565b82525060208301358281111561127d57600080fd5b61128989828601611055565b6020830152506040830135828111156112a157600080fd5b6112ad89828601611055565b604083015250606083013560608201526080830135608082015260a083013560a08201528094505060408601359150808211156112e957600080fd5b506112f686828701611055565b9150509250925092565b600181811c9082168061131457607f821691505b60208210810361133457634e487b7160e01b600052602260045260246000fd5b50919050565b60208082526025908201527f457870657269656e63653a2063616c6c6572206973206e6f742074686520636f6040820152646d70616e7960d81b606082015260800190565b60208082526028908201527f457870657269656e63653a2063616e6e6f74207573652075706772616465642060408201526718dbdb9d1c9858dd60c21b606082015260800190565b6000602082840312156113d957600080fd5b81518015158114610f9357600080fd5b60006113f76110748461102d565b905082815283838301111561140b57600080fd5b610f93836020830184610f30565b600082601f83011261142a57600080fd5b610f93838351602085016113e9565b60006020828403121561144b57600080fd5b815167ffffffffffffffff8082111561146357600080fd5b908301906060828603121561147757600080fd5b61147f610fb0565b82518281111561148e57600080fd5b8301601f8101871361149f57600080fd5b6114ae878251602084016113e9565b825250602083015160208201526040830151828111156114cd57600080fd5b6114d987828601611419565b60408301525095945050505050565b601f821115611534576000816000526020600020601f850160051c810160208610156115115750805b601f850160051c820191505b818110156115305782815560010161151d565b5050505b505050565b815167ffffffffffffffff81111561155357611553610f9a565b611567816115618454611300565b846114e8565b602080601f83116001811461159c57600084156115845750858301515b600019600386901b1c1916600185901b178555611530565b600085815260208120601f198616915b828110156115cb578886015182559484019460019091019084016115ac565b50858210156115e95787850151600019600388901b60f8161c191681555b5050505050600190811b01905550565b60006020828403121561160b57600080fd5b8151610f938161116b56fea264697066735822122086a78cdb4e5b41e587a28cc932f96f5dfebd3aefb79538f090920153c3f92e4664736f6c63430008180033",
  "linkReferences": {},
  "deployedLinkReferences": {}
}