{
  "_format": "hh-sol-artifact-1",
  "contractName": "AvatarRegistry",
  "sourceName": "contracts/avatar/AvatarRegistry.sol",
  "abi": [
    {
      "inputs": [
        {
          "components": [
            {
              "internalType": "address",
              "name": "mainAdmin",
              "type": "address"
            },
            {
              "internalType": "address[]",
              "name": "admins",
              "type": "address[]"
            },
            {
              "internalType": "address",
              "name": "avatarFactory",
              "type": "address"
            },
            {
              "internalType": "address",
              "name": "worldRegistry",
              "type": "address"
            }
          ],
          "internalType": "struct AvatarRegistryArgs",
          "name": "args",
          "type": "tuple"
        }
      ],
      "stateMutability": "nonpayable",
      "type": "constructor"
    },
    {
      "inputs": [],
      "name": "AccessControlBadConfirmation",
      "type": "error"
    },
    {
      "inputs": [
        {
          "internalType": "address",
          "name": "account",
          "type": "address"
        },
        {
          "internalType": "bytes32",
          "name": "neededRole",
          "type": "bytes32"
        }
      ],
      "name": "AccessControlUnauthorizedAccount",
      "type": "error"
    },
    {
      "inputs": [],
      "name": "ReentrancyGuardReentrantCall",
      "type": "error"
    },
    {
      "anonymous": false,
      "inputs": [
        {
          "indexed": true,
          "internalType": "address",
          "name": "avatar",
          "type": "address"
        },
        {
          "indexed": true,
          "internalType": "address",
          "name": "owner",
          "type": "address"
        },
        {
          "indexed": true,
          "internalType": "address",
          "name": "defaultExperience",
          "type": "address"
        }
      ],
      "name": "AvatarCreated",
      "type": "event"
    },
    {
      "anonymous": false,
      "inputs": [
        {
          "indexed": true,
          "internalType": "address",
          "name": "oldFactory",
          "type": "address"
        },
        {
          "indexed": true,
          "internalType": "address",
          "name": "newFactory",
          "type": "address"
        }
      ],
      "name": "AvatarFactoryChanged",
      "type": "event"
    },
    {
      "anonymous": false,
      "inputs": [
        {
          "indexed": true,
          "internalType": "bytes32",
          "name": "role",
          "type": "bytes32"
        },
        {
          "indexed": true,
          "internalType": "bytes32",
          "name": "previousAdminRole",
          "type": "bytes32"
        },
        {
          "indexed": true,
          "internalType": "bytes32",
          "name": "newAdminRole",
          "type": "bytes32"
        }
      ],
      "name": "RoleAdminChanged",
      "type": "event"
    },
    {
      "anonymous": false,
      "inputs": [
        {
          "indexed": true,
          "internalType": "bytes32",
          "name": "role",
          "type": "bytes32"
        },
        {
          "indexed": true,
          "internalType": "address",
          "name": "account",
          "type": "address"
        },
        {
          "indexed": true,
          "internalType": "address",
          "name": "sender",
          "type": "address"
        }
      ],
      "name": "RoleGranted",
      "type": "event"
    },
    {
      "anonymous": false,
      "inputs": [
        {
          "indexed": true,
          "internalType": "bytes32",
          "name": "role",
          "type": "bytes32"
        },
        {
          "indexed": true,
          "internalType": "address",
          "name": "account",
          "type": "address"
        },
        {
          "indexed": true,
          "internalType": "address",
          "name": "sender",
          "type": "address"
        }
      ],
      "name": "RoleRevoked",
      "type": "event"
    },
    {
      "inputs": [],
      "name": "ADMIN_ROLE",
      "outputs": [
        {
          "internalType": "bytes32",
          "name": "",
          "type": "bytes32"
        }
      ],
      "stateMutability": "view",
      "type": "function"
    },
    {
      "inputs": [],
      "name": "DEFAULT_ADMIN_ROLE",
      "outputs": [
        {
          "internalType": "bytes32",
          "name": "",
          "type": "bytes32"
        }
      ],
      "stateMutability": "view",
      "type": "function"
    },
    {
      "inputs": [],
      "name": "avatarFactory",
      "outputs": [
        {
          "internalType": "contract IAvatarFactory",
          "name": "",
          "type": "address"
        }
      ],
      "stateMutability": "view",
      "type": "function"
    },
    {
      "inputs": [],
      "name": "currentAvatarVersion",
      "outputs": [
        {
          "internalType": "uint256",
          "name": "",
          "type": "uint256"
        }
      ],
      "stateMutability": "view",
      "type": "function"
    },
    {
      "inputs": [
        {
          "internalType": "string",
          "name": "username",
          "type": "string"
        }
      ],
      "name": "findByUsername",
      "outputs": [
        {
          "internalType": "address",
          "name": "",
          "type": "address"
        }
      ],
      "stateMutability": "view",
      "type": "function"
    },
    {
      "inputs": [
        {
          "internalType": "bytes32",
          "name": "role",
          "type": "bytes32"
        }
      ],
      "name": "getRoleAdmin",
      "outputs": [
        {
          "internalType": "bytes32",
          "name": "",
          "type": "bytes32"
        }
      ],
      "stateMutability": "view",
      "type": "function"
    },
    {
      "inputs": [
        {
          "internalType": "bytes32",
          "name": "role",
          "type": "bytes32"
        },
        {
          "internalType": "address",
          "name": "account",
          "type": "address"
        }
      ],
      "name": "grantRole",
      "outputs": [],
      "stateMutability": "nonpayable",
      "type": "function"
    },
    {
      "inputs": [
        {
          "internalType": "bytes32",
          "name": "role",
          "type": "bytes32"
        },
        {
          "internalType": "address",
          "name": "account",
          "type": "address"
        }
      ],
      "name": "hasRole",
      "outputs": [
        {
          "internalType": "bool",
          "name": "",
          "type": "bool"
        }
      ],
      "stateMutability": "view",
      "type": "function"
    },
    {
      "inputs": [
        {
          "internalType": "address",
          "name": "a",
          "type": "address"
        }
      ],
      "name": "isAvatar",
      "outputs": [
        {
          "internalType": "bool",
          "name": "",
          "type": "bool"
        }
      ],
      "stateMutability": "view",
      "type": "function"
    },
    {
      "inputs": [
        {
          "internalType": "string",
          "name": "username",
          "type": "string"
        }
      ],
      "name": "nameAvailable",
      "outputs": [
        {
          "internalType": "bool",
          "name": "",
          "type": "bool"
        }
      ],
      "stateMutability": "view",
      "type": "function"
    },
    {
      "inputs": [
        {
          "components": [
            {
              "internalType": "bool",
              "name": "sendTokensToAvatarOwner",
              "type": "bool"
            },
            {
              "internalType": "address",
              "name": "avatarOwner",
              "type": "address"
            },
            {
              "internalType": "address",
              "name": "defaultExperience",
              "type": "address"
            },
            {
              "internalType": "string",
              "name": "username",
              "type": "string"
            },
            {
              "internalType": "bytes",
              "name": "initData",
              "type": "bytes"
            }
          ],
          "internalType": "struct AvatarRegistrationRequest",
          "name": "registration",
          "type": "tuple"
        }
      ],
      "name": "registerAvatar",
      "outputs": [
        {
          "internalType": "address",
          "name": "proxy",
          "type": "address"
        }
      ],
      "stateMutability": "payable",
      "type": "function"
    },
    {
      "inputs": [
        {
          "internalType": "bytes32",
          "name": "role",
          "type": "bytes32"
        },
        {
          "internalType": "address",
          "name": "callerConfirmation",
          "type": "address"
        }
      ],
      "name": "renounceRole",
      "outputs": [],
      "stateMutability": "nonpayable",
      "type": "function"
    },
    {
      "inputs": [
        {
          "internalType": "bytes32",
          "name": "role",
          "type": "bytes32"
        },
        {
          "internalType": "address",
          "name": "account",
          "type": "address"
        }
      ],
      "name": "revokeRole",
      "outputs": [],
      "stateMutability": "nonpayable",
      "type": "function"
    },
    {
      "inputs": [
        {
          "internalType": "address",
          "name": "factory",
          "type": "address"
        }
      ],
      "name": "setAvatarFactory",
      "outputs": [],
      "stateMutability": "nonpayable",
      "type": "function"
    },
    {
      "inputs": [
        {
          "internalType": "bytes4",
          "name": "interfaceId",
          "type": "bytes4"
        }
      ],
      "name": "supportsInterface",
      "outputs": [
        {
          "internalType": "bool",
          "name": "",
          "type": "bool"
        }
      ],
      "stateMutability": "view",
      "type": "function"
    },
    {
      "inputs": [
        {
          "internalType": "bytes",
          "name": "initData",
          "type": "bytes"
        }
      ],
      "name": "upgradeAvatar",
      "outputs": [],
      "stateMutability": "nonpayable",
      "type": "function"
    },
    {
      "inputs": [],
      "name": "worldRegistry",
      "outputs": [
        {
          "internalType": "contract IWorldRegistryV2",
          "name": "",
          "type": "address"
        }
      ],
      "stateMutability": "view",
      "type": "function"
    },
    {
      "stateMutability": "payable",
      "type": "receive"
    }
  ],
  "bytecode": "0x60806040523480156200001157600080fd5b506040516200170c3803806200170c83398101604081905262000034916200041c565b600160005580516001600160a01b0316620000ad5760405162461bcd60e51b815260206004820152602e60248201527f41766174617252656769737472793a206d61696e2061646d696e20616464726560448201526d073732063616e6e6f7420626520360941b60648201526084015b60405180910390fd5b8051620000bd90600090620002f4565b508051620000dc90600080516020620016ec83398151915290620002f4565b5060408101516001600160a01b03166200014d5760405162461bcd60e51b815260206004820152602b60248201527f41766174617252656769737472793a20666163746f727920616464726573732060448201526a063616e6e6f7420626520360ac1b6064820152608401620000a4565b60608101516001600160a01b0316620001c45760405162461bcd60e51b815260206004820152603260248201527f41766174617252656769737472793a20776f726c64207265676973747279206160448201527106464726573732063616e6e6f7420626520360741b6064820152608401620000a4565b6040810151600280546001600160a01b039283166001600160a01b03199182161790915560608301516003805491909316911617905560005b816020015151811015620002ec5760006001600160a01b0316826020015182815181106200022f576200022f6200053c565b60200260200101516001600160a01b031603620002a15760405162461bcd60e51b815260206004820152602960248201527f41766174617252656769737472793a2061646d696e206164647265737320636160448201526806e6e6f7420626520360bc1b6064820152608401620000a4565b620002e2600080516020620016ec83398151915283602001518381518110620002ce57620002ce6200053c565b6020026020010151620002f460201b60201c565b50600101620001fd565b505062000552565b60008281526001602090815260408083206001600160a01b038516845290915281205460ff16620003815760008381526001602081815260408084206001600160a01b0387168086529252808420805460ff19169093179092559051339286917f2f8788117e7eff1d82e926ec794901d17c78024a50270940304540a733656f0d9190a450600162000385565b5060005b92915050565b634e487b7160e01b600052604160045260246000fd5b604051608081016001600160401b0381118282101715620003c657620003c66200038b565b60405290565b604051601f8201601f191681016001600160401b0381118282101715620003f757620003f76200038b565b604052919050565b80516001600160a01b03811681146200041757600080fd5b919050565b600060208083850312156200043057600080fd5b82516001600160401b03808211156200044857600080fd5b90840190608082870312156200045d57600080fd5b62000467620003a1565b6200047283620003ff565b815283830151828111156200048657600080fd5b8301601f810188136200049857600080fd5b805183811115620004ad57620004ad6200038b565b8060051b9350620004c0868501620003cc565b818152938201860193868101908a861115620004db57600080fd5b928701925b858410156200050457620004f484620003ff565b82529287019290870190620004e0565b84880152506200051a91505060408401620003ff565b60408201526200052d60608401620003ff565b60608201529695505050505050565b634e487b7160e01b600052603260045260246000fd5b61118a80620005626000396000f3fe6080604052600436106101025760003560e01c806375b238fc11610095578063a217fddf11610064578063a217fddf146102e3578063ac3fa39c146102f8578063ca1468df14610331578063d547741f14610346578063e006d49b1461036657600080fd5b806375b238fc1461024f57806382bbdbec14610283578063911c2a8c146102a357806391d14854146102c357600080fd5b806336568abe116100d157806336568abe146101dc5780634d575f3d146101fc57806360e741e81461020f578063612ca6211461022f57600080fd5b806301ffc9a71461010e5780631042e64014610143578063248a9ca31461017b5780632f2ff15d146101ba57600080fd5b3661010957005b600080fd5b34801561011a57600080fd5b5061012e610129366004610cc7565b610386565b60405190151581526020015b60405180910390f35b34801561014f57600080fd5b5061016361015e366004610dc4565b6103bd565b6040516001600160a01b03909116815260200161013a565b34801561018757600080fd5b506101ac610196366004610e01565b6000908152600160208190526040909120015490565b60405190815260200161013a565b3480156101c657600080fd5b506101da6101d5366004610e3a565b6103fb565b005b3480156101e857600080fd5b506101da6101f7366004610e3a565b610427565b61016361020a366004610e78565b61045f565b34801561021b57600080fd5b50600254610163906001600160a01b031681565b34801561023b57600080fd5b506101da61024a366004610f40565b610780565b34801561025b57600080fd5b506101ac7fa49807205ce4d355092ef5a8a18f56e8913cf4a201fbe287825b095693c2177581565b34801561028f57600080fd5b5061012e61029e366004610dc4565b610859565b3480156102af57600080fd5b50600354610163906001600160a01b031681565b3480156102cf57600080fd5b5061012e6102de366004610e3a565b6108a3565b3480156102ef57600080fd5b506101ac600081565b34801561030457600080fd5b5061012e610313366004610fb2565b6001600160a01b031660009081526005602052604090205460ff1690565b34801561033d57600080fd5b506101ac6108ce565b34801561035257600080fd5b506101da610361366004610e3a565b610941565b34801561037257600080fd5b506101da610381366004610fb2565b610967565b60006001600160e01b03198216637965db0b60e01b14806103b757506301ffc9a760e01b6001600160e01b03198316145b92915050565b6000806103c983610aae565b90506004816040516103db9190610ff3565b908152604051908190036020019020546001600160a01b03169392505050565b6000828152600160208190526040909120015461041781610b1e565b6104218383610b2b565b50505050565b6001600160a01b03811633146104505760405163334bd91960e11b815260040160405180910390fd5b61045a8282610ba4565b505050565b600354604051637856879f60e11b81523360048201526000916001600160a01b03169063f0ad0f3e90602401602060405180830381865afa1580156104a8573d6000803e3d6000fd5b505050506040513d601f19601f820116820180604052508101906104cc919061100f565b61052b5760405162461bcd60e51b815260206004820152602560248201527f41766174617252656769737472793a2063616c6c6572206973206e6f742061206044820152641ddbdc9b1960da1b60648201526084015b60405180910390fd5b610533610c11565b60006105428360600151610aae565b905060006001600160a01b031660048260405161055f9190610ff3565b908152604051908190036020019020546001600160a01b0316146105d55760405162461bcd60e51b815260206004820152602760248201527f41766174617252656769737472793a20757365726e616d6520616c72656164796044820152662065786973747360c81b6064820152608401610522565b6002546020840151604080860151606087015160808801519251633007c54560e01b81526001600160a01b0390951694633007c5459461061b9490939291600401611058565b6020604051808303816000875af115801561063a573d6000803e3d6000fd5b505050506040513d601f19601f8201168201806040525081019061065e91906110a1565b915034156106e5578251156106ae5760208301516040516001600160a01b03909116903480156108fc02916000818181858888f193505050501580156106a8573d6000803e3d6000fd5b506106e5565b6040516001600160a01b038316903480156108fc02916000818181858888f193505050501580156106e3573d6000803e3d6000fd5b505b816004826040516106f69190610ff3565b908152604080516020928190038301812080546001600160a01b0319166001600160a01b03958616179055858416600081815260058552838120805460ff191660011790559288015193880151938516949390931692917fff93e7e87b4911fe8055b944f839e60a5190acb70047a6209ed39ea220ac352691a45061077b6001600055565b919050565b3360009081526005602052604090205460ff166107ef5760405162461bcd60e51b815260206004820152602760248201527f41766174617252656769737472793a2063616c6c6572206973206e6f7420616e6044820152661030bb30ba30b960c91b6064820152608401610522565b60025460405163180aef9960e01b81526001600160a01b039091169063180aef9990610823903390869086906004016110be565b600060405180830381600087803b15801561083d57600080fd5b505af1158015610851573d6000803e3d6000fd5b505050505050565b60008061086583610aae565b905060006001600160a01b03166004826040516108829190610ff3565b908152604051908190036020019020546001600160a01b0316149392505050565b60009182526001602090815260408084206001600160a01b0393909316845291905290205460ff1690565b6002546040805163e921c27560e01b815290516000926001600160a01b03169163e921c2759160048083019260209291908290030181865afa158015610918573d6000803e3d6000fd5b505050506040513d601f19601f8201168201806040525081019061093c91906110fe565b905090565b6000828152600160208190526040909120015461095d81610b1e565b6104218383610ba4565b6109917fa49807205ce4d355092ef5a8a18f56e8913cf4a201fbe287825b095693c21775336108a3565b6109ec5760405162461bcd60e51b815260206004820152602660248201527f41766174617252656769737472793a2063616c6c6572206973206e6f7420616e6044820152651030b236b4b760d11b6064820152608401610522565b6002546001600160a01b03908116908216610a5d5760405162461bcd60e51b815260206004820152602b60248201527f41766174617252656769737472793a20666163746f727920616464726573732060448201526a063616e6e6f7420626520360ac1b6064820152608401610522565b600280546001600160a01b0319166001600160a01b0384811691821790925560405190918316907fd2f8229246ed45bf72b9749894f099e68d08d806ad4f29471c3cada88d5ae29190600090a35050565b60608160005b8151811015610b1757610ae6828281518110610ad257610ad2611117565b01602001516001600160f81b031916610c3b565b828281518110610af857610af8611117565b60200101906001600160f81b031916908160001a905350600101610ab4565b5092915050565b610b288133610c8a565b50565b6000610b3783836108a3565b610b9c5760008381526001602081815260408084206001600160a01b0387168086529252808420805460ff19169093179092559051339286917f2f8788117e7eff1d82e926ec794901d17c78024a50270940304540a733656f0d9190a45060016103b7565b5060006103b7565b6000610bb083836108a3565b15610b9c5760008381526001602090815260408083206001600160a01b0386168085529252808320805460ff1916905551339286917ff6391f5c32d9c69d2a47ea670b442974b53935d1edc7fd64eb21e047a839171b9190a45060016103b7565b600260005403610c3457604051633ee5aeb560e01b815260040160405180910390fd5b6002600055565b6000604160f81b6001600160f81b0319831610801590610c695750602d60f91b6001600160f81b0319831611155b15610c8657610c7d60f883901c602061112d565b60f81b92915050565b5090565b610c9482826108a3565b610cc35760405163e2517d3f60e01b81526001600160a01b038216600482015260248101839052604401610522565b5050565b600060208284031215610cd957600080fd5b81356001600160e01b031981168114610cf157600080fd5b9392505050565b634e487b7160e01b600052604160045260246000fd5b60405160a0810167ffffffffffffffff81118282101715610d3157610d31610cf8565b60405290565b600082601f830112610d4857600080fd5b813567ffffffffffffffff80821115610d6357610d63610cf8565b604051601f8301601f19908116603f01168101908282118183101715610d8b57610d8b610cf8565b81604052838152866020858801011115610da457600080fd5b836020870160208301376000602085830101528094505050505092915050565b600060208284031215610dd657600080fd5b813567ffffffffffffffff811115610ded57600080fd5b610df984828501610d37565b949350505050565b600060208284031215610e1357600080fd5b5035919050565b6001600160a01b0381168114610b2857600080fd5b803561077b81610e1a565b60008060408385031215610e4d57600080fd5b823591506020830135610e5f81610e1a565b809150509250929050565b8015158114610b2857600080fd5b600060208284031215610e8a57600080fd5b813567ffffffffffffffff80821115610ea257600080fd5b9083019060a08286031215610eb657600080fd5b610ebe610d0e565b8235610ec981610e6a565b81526020830135610ed981610e1a565b6020820152610eea60408401610e2f565b6040820152606083013582811115610f0157600080fd5b610f0d87828601610d37565b606083015250608083013582811115610f2557600080fd5b610f3187828601610d37565b60808301525095945050505050565b60008060208385031215610f5357600080fd5b823567ffffffffffffffff80821115610f6b57600080fd5b818501915085601f830112610f7f57600080fd5b813581811115610f8e57600080fd5b866020828501011115610fa057600080fd5b60209290920196919550909350505050565b600060208284031215610fc457600080fd5b8135610cf181610e1a565b60005b83811015610fea578181015183820152602001610fd2565b50506000910152565b60008251611005818460208701610fcf565b9190910192915050565b60006020828403121561102157600080fd5b8151610cf181610e6a565b60008151808452611044816020860160208601610fcf565b601f01601f19169290920160200192915050565b6001600160a01b038581168252841660208201526080604082018190526000906110849083018561102c565b8281036060840152611096818561102c565b979650505050505050565b6000602082840312156110b357600080fd5b8151610cf181610e1a565b6001600160a01b03841681526040602082018190528101829052818360608301376000818301606090810191909152601f909201601f1916010192915050565b60006020828403121561111057600080fd5b5051919050565b634e487b7160e01b600052603260045260246000fd5b60ff81811683821601908111156103b757634e487b7160e01b600052601160045260246000fdfea2646970667358221220124360b8f7c244245a7c2c602244c14a551e2d270f5af71dbc42fd19335d07b264736f6c63430008180033a49807205ce4d355092ef5a8a18f56e8913cf4a201fbe287825b095693c21775",
  "linkReferences": {},
  "deployedLinkReferences": {}
}