{
  "_format": "hh-sol-artifact-1",
  "contractName": "AvatarRegistry",
  "sourceName": "contracts/avatar/AvatarRegistry.sol",
  "abi": [
    {
      "inputs": [
        {
          "components": [
            {
              "internalType": "address",
              "name": "mainAdmin",
              "type": "address"
            },
            {
              "internalType": "address[]",
              "name": "admins",
              "type": "address[]"
            },
            {
              "internalType": "address",
              "name": "avatarFactory",
              "type": "address"
            },
            {
              "internalType": "address",
              "name": "worldRegistry",
              "type": "address"
            }
          ],
          "internalType": "struct AvatarRegistryArgs",
          "name": "args",
          "type": "tuple"
        }
      ],
      "stateMutability": "nonpayable",
      "type": "constructor"
    },
    {
      "inputs": [],
      "name": "AccessControlBadConfirmation",
      "type": "error"
    },
    {
      "inputs": [
        {
          "internalType": "address",
          "name": "account",
          "type": "address"
        },
        {
          "internalType": "bytes32",
          "name": "neededRole",
          "type": "bytes32"
        }
      ],
      "name": "AccessControlUnauthorizedAccount",
      "type": "error"
    },
    {
      "anonymous": false,
      "inputs": [
        {
          "indexed": true,
          "internalType": "address",
          "name": "avatar",
          "type": "address"
        },
        {
          "indexed": true,
          "internalType": "address",
          "name": "owner",
          "type": "address"
        },
        {
          "indexed": true,
          "internalType": "address",
          "name": "defaultExperience",
          "type": "address"
        }
      ],
      "name": "AvatarCreated",
      "type": "event"
    },
    {
      "anonymous": false,
      "inputs": [
        {
          "indexed": true,
          "internalType": "bytes32",
          "name": "role",
          "type": "bytes32"
        },
        {
          "indexed": true,
          "internalType": "bytes32",
          "name": "previousAdminRole",
          "type": "bytes32"
        },
        {
          "indexed": true,
          "internalType": "bytes32",
          "name": "newAdminRole",
          "type": "bytes32"
        }
      ],
      "name": "RoleAdminChanged",
      "type": "event"
    },
    {
      "anonymous": false,
      "inputs": [
        {
          "indexed": true,
          "internalType": "bytes32",
          "name": "role",
          "type": "bytes32"
        },
        {
          "indexed": true,
          "internalType": "address",
          "name": "account",
          "type": "address"
        },
        {
          "indexed": true,
          "internalType": "address",
          "name": "sender",
          "type": "address"
        }
      ],
      "name": "RoleGranted",
      "type": "event"
    },
    {
      "anonymous": false,
      "inputs": [
        {
          "indexed": true,
          "internalType": "bytes32",
          "name": "role",
          "type": "bytes32"
        },
        {
          "indexed": true,
          "internalType": "address",
          "name": "account",
          "type": "address"
        },
        {
          "indexed": true,
          "internalType": "address",
          "name": "sender",
          "type": "address"
        }
      ],
      "name": "RoleRevoked",
      "type": "event"
    },
    {
      "inputs": [],
      "name": "ADMIN_ROLE",
      "outputs": [
        {
          "internalType": "bytes32",
          "name": "",
          "type": "bytes32"
        }
      ],
      "stateMutability": "view",
      "type": "function"
    },
    {
      "inputs": [],
      "name": "DEFAULT_ADMIN_ROLE",
      "outputs": [
        {
          "internalType": "bytes32",
          "name": "",
          "type": "bytes32"
        }
      ],
      "stateMutability": "view",
      "type": "function"
    },
    {
      "inputs": [],
      "name": "avatarFactory",
      "outputs": [
        {
          "internalType": "contract IAvatarFactory",
          "name": "",
          "type": "address"
        }
      ],
      "stateMutability": "view",
      "type": "function"
    },
    {
      "inputs": [
        {
          "internalType": "string",
          "name": "username",
          "type": "string"
        }
      ],
      "name": "findByUsername",
      "outputs": [
        {
          "internalType": "address",
          "name": "",
          "type": "address"
        }
      ],
      "stateMutability": "view",
      "type": "function"
    },
    {
      "inputs": [
        {
          "internalType": "bytes32",
          "name": "role",
          "type": "bytes32"
        }
      ],
      "name": "getRoleAdmin",
      "outputs": [
        {
          "internalType": "bytes32",
          "name": "",
          "type": "bytes32"
        }
      ],
      "stateMutability": "view",
      "type": "function"
    },
    {
      "inputs": [
        {
          "internalType": "bytes32",
          "name": "role",
          "type": "bytes32"
        },
        {
          "internalType": "address",
          "name": "account",
          "type": "address"
        }
      ],
      "name": "grantRole",
      "outputs": [],
      "stateMutability": "nonpayable",
      "type": "function"
    },
    {
      "inputs": [
        {
          "internalType": "bytes32",
          "name": "role",
          "type": "bytes32"
        },
        {
          "internalType": "address",
          "name": "account",
          "type": "address"
        }
      ],
      "name": "hasRole",
      "outputs": [
        {
          "internalType": "bool",
          "name": "",
          "type": "bool"
        }
      ],
      "stateMutability": "view",
      "type": "function"
    },
    {
      "inputs": [
        {
          "internalType": "address",
          "name": "a",
          "type": "address"
        }
      ],
      "name": "isAvatar",
      "outputs": [
        {
          "internalType": "bool",
          "name": "",
          "type": "bool"
        }
      ],
      "stateMutability": "view",
      "type": "function"
    },
    {
      "inputs": [
        {
          "internalType": "string",
          "name": "username",
          "type": "string"
        }
      ],
      "name": "nameAvailable",
      "outputs": [
        {
          "internalType": "bool",
          "name": "",
          "type": "bool"
        }
      ],
      "stateMutability": "view",
      "type": "function"
    },
    {
      "inputs": [
        {
          "components": [
            {
              "internalType": "bool",
              "name": "sendTokensToAvatarOwner",
              "type": "bool"
            },
            {
              "internalType": "address",
              "name": "avatarOwner",
              "type": "address"
            },
            {
              "internalType": "address",
              "name": "defaultExperience",
              "type": "address"
            },
            {
              "internalType": "string",
              "name": "username",
              "type": "string"
            },
            {
              "internalType": "bytes",
              "name": "initData",
              "type": "bytes"
            }
          ],
          "internalType": "struct AvatarRegistrationRequest",
          "name": "registration",
          "type": "tuple"
        }
      ],
      "name": "registerAvatar",
      "outputs": [
        {
          "internalType": "address",
          "name": "proxy",
          "type": "address"
        }
      ],
      "stateMutability": "payable",
      "type": "function"
    },
    {
      "inputs": [
        {
          "internalType": "bytes32",
          "name": "role",
          "type": "bytes32"
        },
        {
          "internalType": "address",
          "name": "callerConfirmation",
          "type": "address"
        }
      ],
      "name": "renounceRole",
      "outputs": [],
      "stateMutability": "nonpayable",
      "type": "function"
    },
    {
      "inputs": [
        {
          "internalType": "bytes32",
          "name": "role",
          "type": "bytes32"
        },
        {
          "internalType": "address",
          "name": "account",
          "type": "address"
        }
      ],
      "name": "revokeRole",
      "outputs": [],
      "stateMutability": "nonpayable",
      "type": "function"
    },
    {
      "inputs": [
        {
          "internalType": "address",
          "name": "factory",
          "type": "address"
        }
      ],
      "name": "setAvatarFactory",
      "outputs": [],
      "stateMutability": "nonpayable",
      "type": "function"
    },
    {
      "inputs": [
        {
          "internalType": "bytes4",
          "name": "interfaceId",
          "type": "bytes4"
        }
      ],
      "name": "supportsInterface",
      "outputs": [
        {
          "internalType": "bool",
          "name": "",
          "type": "bool"
        }
      ],
      "stateMutability": "view",
      "type": "function"
    },
    {
      "inputs": [
        {
          "internalType": "bytes",
          "name": "initData",
          "type": "bytes"
        }
      ],
      "name": "upgradeAvatar",
      "outputs": [],
      "stateMutability": "nonpayable",
      "type": "function"
    },
    {
      "inputs": [],
      "name": "worldRegistry",
      "outputs": [
        {
          "internalType": "contract IWorldRegistry",
          "name": "",
          "type": "address"
        }
      ],
      "stateMutability": "view",
      "type": "function"
    },
    {
      "stateMutability": "payable",
      "type": "receive"
    }
  ],
  "bytecode": "0x60806040523480156200001157600080fd5b50604051620018a6380380620018a683398101604081905262000034916200042f565b80516001600160a01b0316620000a85760405162461bcd60e51b815260206004820152602e60248201527f41766174617252656769737472793a206d61696e2061646d696e20616464726560448201526d073732063616e6e6f7420626520360941b60648201526084015b60405180910390fd5b8051620000b890600090620002ef565b508051620000d7906000805160206200188683398151915290620002ef565b5060408101516001600160a01b0316620001485760405162461bcd60e51b815260206004820152602b60248201527f41766174617252656769737472793a20666163746f727920616464726573732060448201526a063616e6e6f7420626520360ac1b60648201526084016200009f565b60608101516001600160a01b0316620001bf5760405162461bcd60e51b815260206004820152603260248201527f41766174617252656769737472793a20776f726c64207265676973747279206160448201527106464726573732063616e6e6f7420626520360741b60648201526084016200009f565b6040810151600180546001600160a01b039283166001600160a01b03199182161790915560608301516002805491909316911617905560005b816020015151811015620002e75760006001600160a01b0316826020015182815181106200022a576200022a6200054f565b60200260200101516001600160a01b0316036200029c5760405162461bcd60e51b815260206004820152602960248201527f41766174617252656769737472793a2061646d696e206164647265737320636160448201526806e6e6f7420626520360bc1b60648201526084016200009f565b620002dd6000805160206200188683398151915283602001518381518110620002c957620002c96200054f565b6020026020010151620002ef60201b60201c565b50600101620001f8565b505062000565565b6000828152602081815260408083206001600160a01b038516845290915281205460ff1662000394576000838152602081815260408083206001600160a01b03861684529091529020805460ff191660011790556200034b3390565b6001600160a01b0316826001600160a01b0316847f2f8788117e7eff1d82e926ec794901d17c78024a50270940304540a733656f0d60405160405180910390a450600162000398565b5060005b92915050565b634e487b7160e01b600052604160045260246000fd5b604051608081016001600160401b0381118282101715620003d957620003d96200039e565b60405290565b604051601f8201601f191681016001600160401b03811182821017156200040a576200040a6200039e565b604052919050565b80516001600160a01b03811681146200042a57600080fd5b919050565b600060208083850312156200044357600080fd5b82516001600160401b03808211156200045b57600080fd5b90840190608082870312156200047057600080fd5b6200047a620003b4565b620004858362000412565b815283830151828111156200049957600080fd5b8301601f81018813620004ab57600080fd5b805183811115620004c057620004c06200039e565b8060051b9350620004d3868501620003df565b818152938201860193868101908a861115620004ee57600080fd5b928701925b858410156200051757620005078462000412565b82529287019290870190620004f3565b84880152506200052d9150506040840162000412565b6040820152620005406060840162000412565b60608201529695505050505050565b634e487b7160e01b600052603260045260246000fd5b61131180620005756000396000f3fe6080604052600436106100f75760003560e01c806375b238fc1161008a578063a217fddf11610059578063a217fddf146102d7578063ac3fa39c146102ec578063d547741f14610325578063e006d49b1461034557600080fd5b806375b238fc1461024357806382bbdbec14610277578063911c2a8c1461029757806391d14854146102b757600080fd5b806336568abe116100c657806336568abe146101d05780634d575f3d146101f057806360e741e814610203578063612ca6211461022357600080fd5b806301ffc9a7146101035780631042e64014610138578063248a9ca3146101705780632f2ff15d146101ae57600080fd5b366100fe57005b600080fd5b34801561010f57600080fd5b5061012361011e366004610da8565b610365565b60405190151581526020015b60405180910390f35b34801561014457600080fd5b50610158610153366004610ec7565b61039c565b6040516001600160a01b03909116815260200161012f565b34801561017c57600080fd5b506101a061018b366004610f04565b60009081526020819052604090206001015490565b60405190815260200161012f565b3480156101ba57600080fd5b506101ce6101c9366004610f42565b6103da565b005b3480156101dc57600080fd5b506101ce6101eb366004610f42565b610405565b6101586101fe366004610f80565b61043d565b34801561020f57600080fd5b50600154610158906001600160a01b031681565b34801561022f57600080fd5b506101ce61023e366004611048565b61074c565b34801561024f57600080fd5b506101a07fa49807205ce4d355092ef5a8a18f56e8913cf4a201fbe287825b095693c2177581565b34801561028357600080fd5b50610123610292366004610ec7565b610a53565b3480156102a357600080fd5b50600254610158906001600160a01b031681565b3480156102c357600080fd5b506101236102d2366004610f42565b610a9d565b3480156102e357600080fd5b506101a0600081565b3480156102f857600080fd5b506101236103073660046110ba565b6001600160a01b031660009081526004602052604090205460ff1690565b34801561033157600080fd5b506101ce610340366004610f42565b610ac6565b34801561035157600080fd5b506101ce6103603660046110ba565b610aeb565b60006001600160e01b03198216637965db0b60e01b148061039657506301ffc9a760e01b6001600160e01b03198316145b92915050565b6000806103a883610ba2565b90506003816040516103ba91906110fb565b908152604051908190036020019020546001600160a01b03169392505050565b6000828152602081905260409020600101546103f581610c12565b6103ff8383610c1f565b50505050565b6001600160a01b038116331461042e5760405163334bd91960e11b815260040160405180910390fd5b6104388282610cb1565b505050565b600254604051637856879f60e11b81523360048201526000916001600160a01b03169063f0ad0f3e90602401602060405180830381865afa158015610486573d6000803e3d6000fd5b505050506040513d601f19601f820116820180604052508101906104aa9190611117565b6105095760405162461bcd60e51b815260206004820152602560248201527f41766174617252656769737472793a2063616c6c6572206973206e6f742061206044820152641ddbdc9b1960da1b60648201526084015b60405180910390fd5b60006105188360600151610ba2565b905060006001600160a01b031660038260405161053591906110fb565b908152604051908190036020019020546001600160a01b0316146105ab5760405162461bcd60e51b815260206004820152602760248201527f41766174617252656769737472793a20757365726e616d6520616c72656164796044820152662065786973747360c81b6064820152608401610500565b6001546020840151604080860151606087015160808801519251633007c54560e01b81526001600160a01b0390951694633007c545946105f19490939291600401611160565b6020604051808303816000875af1158015610610573d6000803e3d6000fd5b505050506040513d601f19601f8201168201806040525081019061063491906111a9565b915034156106bb578251156106845760208301516040516001600160a01b03909116903480156108fc02916000818181858888f1935050505015801561067e573d6000803e3d6000fd5b506106bb565b6040516001600160a01b038316903480156108fc02916000818181858888f193505050501580156106b9573d6000803e3d6000fd5b505b816003826040516106cc91906110fb565b908152604080516020928190038301812080546001600160a01b0319166001600160a01b03958616179055858416600081815260048552838120805460ff191660011790559288015193880151938516949390931692917fff93e7e87b4911fe8055b944f839e60a5190acb70047a6209ed39ea220ac352691a450919050565b3360009081526004602052604090205460ff166107bb5760405162461bcd60e51b815260206004820152602760248201527f41766174617252656769737472793a2063616c6c6572206973206e6f7420616e6044820152661030bb30ba30b960c91b6064820152608401610500565b60003390506000816001600160a01b031663516f279e6040518163ffffffff1660e01b8152600401602060405180830381865afa158015610800573d6000803e3d6000fd5b505050506040513d601f19601f8201168201806040525081019061082491906111a9565b90506000826001600160a01b0316638da5cb5b6040518163ffffffff1660e01b8152600401602060405180830381865afa158015610866573d6000803e3d6000fd5b505050506040513d601f19601f8201168201806040525081019061088a91906111a9565b905060006108fc846001600160a01b03166361fac54d6040518163ffffffff1660e01b8152600401600060405180830381865afa1580156108cf573d6000803e3d6000fd5b505050506040513d6000823e601f3d908101601f191682016040526108f791908101906111c6565b610ba2565b600154604051633007c54560e01b81529192506000916001600160a01b0390911690633007c5459061093a908690889087908d908d9060040161123d565b6020604051808303816000875af1158015610959573d6000803e3d6000fd5b505050506040513d601f19601f8201168201806040525081019061097d91906111a9565b604051632663d1f760e01b81526001600160a01b03808316600483015291925090861690632663d1f790602401600060405180830381600087803b1580156109c457600080fd5b505af11580156109d8573d6000803e3d6000fd5b50503360009081526004602052604090819020805460ff191690555183925060039150610a069085906110fb565b908152604080516020928190038301902080546001600160a01b0319166001600160a01b03948516179055929091166000908152600490915220805460ff19166001179055505050505050565b600080610a5f83610ba2565b905060006001600160a01b0316600382604051610a7c91906110fb565b908152604051908190036020019020546001600160a01b0316149392505050565b6000918252602082815260408084206001600160a01b0393909316845291905290205460ff1690565b600082815260208190526040902060010154610ae181610c12565b6103ff8383610cb1565b7fa49807205ce4d355092ef5a8a18f56e8913cf4a201fbe287825b095693c21775610b1581610c12565b6001600160a01b038216610b7f5760405162461bcd60e51b815260206004820152602b60248201527f41766174617252656769737472793a20666163746f727920616464726573732060448201526a063616e6e6f7420626520360ac1b6064820152608401610500565b50600180546001600160a01b0319166001600160a01b0392909216919091179055565b60608160005b8151811015610c0b57610bda828281518110610bc657610bc661129e565b01602001516001600160f81b031916610d1c565b828281518110610bec57610bec61129e565b60200101906001600160f81b031916908160001a905350600101610ba8565b5092915050565b610c1c8133610d6b565b50565b6000610c2b8383610a9d565b610ca9576000838152602081815260408083206001600160a01b03861684529091529020805460ff19166001179055610c613390565b6001600160a01b0316826001600160a01b0316847f2f8788117e7eff1d82e926ec794901d17c78024a50270940304540a733656f0d60405160405180910390a4506001610396565b506000610396565b6000610cbd8383610a9d565b15610ca9576000838152602081815260408083206001600160a01b0386168085529252808320805460ff1916905551339286917ff6391f5c32d9c69d2a47ea670b442974b53935d1edc7fd64eb21e047a839171b9190a4506001610396565b6000604160f81b6001600160f81b0319831610801590610d4a5750602d60f91b6001600160f81b0319831611155b15610d6757610d5e60f883901c60206112b4565b60f81b92915050565b5090565b610d758282610a9d565b610da45760405163e2517d3f60e01b81526001600160a01b038216600482015260248101839052604401610500565b5050565b600060208284031215610dba57600080fd5b81356001600160e01b031981168114610dd257600080fd5b9392505050565b634e487b7160e01b600052604160045260246000fd5b60405160a0810167ffffffffffffffff81118282101715610e1257610e12610dd9565b60405290565b604051601f8201601f1916810167ffffffffffffffff81118282101715610e4157610e41610dd9565b604052919050565b600067ffffffffffffffff821115610e6357610e63610dd9565b50601f01601f191660200190565b600082601f830112610e8257600080fd5b8135610e95610e9082610e49565b610e18565b818152846020838601011115610eaa57600080fd5b816020850160208301376000918101602001919091529392505050565b600060208284031215610ed957600080fd5b813567ffffffffffffffff811115610ef057600080fd5b610efc84828501610e71565b949350505050565b600060208284031215610f1657600080fd5b5035919050565b6001600160a01b0381168114610c1c57600080fd5b8035610f3d81610f1d565b919050565b60008060408385031215610f5557600080fd5b823591506020830135610f6781610f1d565b809150509250929050565b8015158114610c1c57600080fd5b600060208284031215610f9257600080fd5b813567ffffffffffffffff80821115610faa57600080fd5b9083019060a08286031215610fbe57600080fd5b610fc6610def565b8235610fd181610f72565b81526020830135610fe181610f1d565b6020820152610ff260408401610f32565b604082015260608301358281111561100957600080fd5b61101587828601610e71565b60608301525060808301358281111561102d57600080fd5b61103987828601610e71565b60808301525095945050505050565b6000806020838503121561105b57600080fd5b823567ffffffffffffffff8082111561107357600080fd5b818501915085601f83011261108757600080fd5b81358181111561109657600080fd5b8660208285010111156110a857600080fd5b60209290920196919550909350505050565b6000602082840312156110cc57600080fd5b8135610dd281610f1d565b60005b838110156110f25781810151838201526020016110da565b50506000910152565b6000825161110d8184602087016110d7565b9190910192915050565b60006020828403121561112957600080fd5b8151610dd281610f72565b6000815180845261114c8160208601602086016110d7565b601f01601f19169290920160200192915050565b6001600160a01b0385811682528416602082015260806040820181905260009061118c90830185611134565b828103606084015261119e8185611134565b979650505050505050565b6000602082840312156111bb57600080fd5b8151610dd281610f1d565b6000602082840312156111d857600080fd5b815167ffffffffffffffff8111156111ef57600080fd5b8201601f8101841361120057600080fd5b805161120e610e9082610e49565b81815285602083850101111561122357600080fd5b6112348260208301602086016110d7565b95945050505050565b6001600160a01b0386811682528516602082015260806040820181905260009061126990830186611134565b8281036060840152838152838560208301376000602085830101526020601f19601f8601168201019150509695505050505050565b634e487b7160e01b600052603260045260246000fd5b60ff818116838216019081111561039657634e487b7160e01b600052601160045260246000fdfea264697066735822122016474fd7df21a283c7e23d775ebc47f0534d256d9cb99b0c63dbfe54cf1a530364736f6c63430008180033a49807205ce4d355092ef5a8a18f56e8913cf4a201fbe287825b095693c21775",
  "linkReferences": {},
  "deployedLinkReferences": {}
}