{
  "_format": "hh-sol-artifact-1",
  "contractName": "WorldRegistry0_2",
  "sourceName": "contracts/world/v0.2/WorldRegistry0_2.sol",
  "abi": [
    {
      "inputs": [
        {
          "components": [
            {
              "internalType": "address",
              "name": "vectorAuthority",
              "type": "address"
            },
            {
              "internalType": "address",
              "name": "worldFactory",
              "type": "address"
            },
            {
              "internalType": "address",
              "name": "registrarRegistry",
              "type": "address"
            },
            {
              "internalType": "address",
              "name": "defaultAdmin",
              "type": "address"
            },
            {
              "internalType": "address",
              "name": "oldWorldRegistry",
              "type": "address"
            }
          ],
          "internalType": "struct WorldRegistryContructorArgs",
          "name": "args",
          "type": "tuple"
        }
      ],
      "stateMutability": "nonpayable",
      "type": "constructor"
    },
    {
      "inputs": [],
      "name": "AccessControlBadConfirmation",
      "type": "error"
    },
    {
      "inputs": [
        {
          "internalType": "address",
          "name": "account",
          "type": "address"
        },
        {
          "internalType": "bytes32",
          "name": "neededRole",
          "type": "bytes32"
        }
      ],
      "name": "AccessControlUnauthorizedAccount",
      "type": "error"
    },
    {
      "inputs": [],
      "name": "ECDSAInvalidSignature",
      "type": "error"
    },
    {
      "inputs": [
        {
          "internalType": "uint256",
          "name": "length",
          "type": "uint256"
        }
      ],
      "name": "ECDSAInvalidSignatureLength",
      "type": "error"
    },
    {
      "inputs": [
        {
          "internalType": "bytes32",
          "name": "s",
          "type": "bytes32"
        }
      ],
      "name": "ECDSAInvalidSignatureS",
      "type": "error"
    },
    {
      "inputs": [],
      "name": "ReentrancyGuardReentrantCall",
      "type": "error"
    },
    {
      "anonymous": false,
      "inputs": [
        {
          "indexed": true,
          "internalType": "bytes32",
          "name": "role",
          "type": "bytes32"
        },
        {
          "indexed": true,
          "internalType": "bytes32",
          "name": "previousAdminRole",
          "type": "bytes32"
        },
        {
          "indexed": true,
          "internalType": "bytes32",
          "name": "newAdminRole",
          "type": "bytes32"
        }
      ],
      "name": "RoleAdminChanged",
      "type": "event"
    },
    {
      "anonymous": false,
      "inputs": [
        {
          "indexed": true,
          "internalType": "bytes32",
          "name": "role",
          "type": "bytes32"
        },
        {
          "indexed": true,
          "internalType": "address",
          "name": "account",
          "type": "address"
        },
        {
          "indexed": true,
          "internalType": "address",
          "name": "sender",
          "type": "address"
        }
      ],
      "name": "RoleGranted",
      "type": "event"
    },
    {
      "anonymous": false,
      "inputs": [
        {
          "indexed": true,
          "internalType": "bytes32",
          "name": "role",
          "type": "bytes32"
        },
        {
          "indexed": true,
          "internalType": "address",
          "name": "account",
          "type": "address"
        },
        {
          "indexed": true,
          "internalType": "address",
          "name": "sender",
          "type": "address"
        }
      ],
      "name": "RoleRevoked",
      "type": "event"
    },
    {
      "anonymous": false,
      "inputs": [
        {
          "indexed": true,
          "internalType": "address",
          "name": "authority",
          "type": "address"
        }
      ],
      "name": "VectorAddressAuthorityAdded",
      "type": "event"
    },
    {
      "anonymous": false,
      "inputs": [
        {
          "indexed": true,
          "internalType": "address",
          "name": "authority",
          "type": "address"
        }
      ],
      "name": "VectorAddressAuthorityRemoved",
      "type": "event"
    },
    {
      "anonymous": false,
      "inputs": [
        {
          "indexed": true,
          "internalType": "address",
          "name": "world",
          "type": "address"
        },
        {
          "indexed": true,
          "internalType": "address",
          "name": "owner",
          "type": "address"
        },
        {
          "components": [
            {
              "internalType": "string",
              "name": "x",
              "type": "string"
            },
            {
              "internalType": "string",
              "name": "y",
              "type": "string"
            },
            {
              "internalType": "string",
              "name": "z",
              "type": "string"
            },
            {
              "internalType": "uint256",
              "name": "t",
              "type": "uint256"
            },
            {
              "internalType": "uint256",
              "name": "p",
              "type": "uint256"
            },
            {
              "internalType": "uint256",
              "name": "p_sub",
              "type": "uint256"
            }
          ],
          "indexed": false,
          "internalType": "struct VectorAddress",
          "name": "vectorAddress",
          "type": "tuple"
        }
      ],
      "name": "WorldRegistered",
      "type": "event"
    },
    {
      "inputs": [],
      "name": "ADMIN_ROLE",
      "outputs": [
        {
          "internalType": "bytes32",
          "name": "",
          "type": "bytes32"
        }
      ],
      "stateMutability": "view",
      "type": "function"
    },
    {
      "inputs": [],
      "name": "DEFAULT_ADMIN_ROLE",
      "outputs": [
        {
          "internalType": "bytes32",
          "name": "",
          "type": "bytes32"
        }
      ],
      "stateMutability": "view",
      "type": "function"
    },
    {
      "inputs": [],
      "name": "VECTOR_AUTHORITY_ROLE",
      "outputs": [
        {
          "internalType": "bytes32",
          "name": "",
          "type": "bytes32"
        }
      ],
      "stateMutability": "view",
      "type": "function"
    },
    {
      "inputs": [
        {
          "internalType": "address",
          "name": "auth",
          "type": "address"
        }
      ],
      "name": "addVectorAddressAuthority",
      "outputs": [],
      "stateMutability": "nonpayable",
      "type": "function"
    },
    {
      "inputs": [],
      "name": "currentWorldVersion",
      "outputs": [
        {
          "internalType": "string",
          "name": "",
          "type": "string"
        }
      ],
      "stateMutability": "view",
      "type": "function"
    },
    {
      "inputs": [
        {
          "internalType": "bytes32",
          "name": "role",
          "type": "bytes32"
        }
      ],
      "name": "getRoleAdmin",
      "outputs": [
        {
          "internalType": "bytes32",
          "name": "",
          "type": "bytes32"
        }
      ],
      "stateMutability": "view",
      "type": "function"
    },
    {
      "inputs": [
        {
          "internalType": "string",
          "name": "name",
          "type": "string"
        }
      ],
      "name": "getWorldByName",
      "outputs": [
        {
          "internalType": "address",
          "name": "",
          "type": "address"
        }
      ],
      "stateMutability": "view",
      "type": "function"
    },
    {
      "inputs": [
        {
          "internalType": "bytes32",
          "name": "role",
          "type": "bytes32"
        },
        {
          "internalType": "address",
          "name": "account",
          "type": "address"
        }
      ],
      "name": "grantRole",
      "outputs": [],
      "stateMutability": "nonpayable",
      "type": "function"
    },
    {
      "inputs": [
        {
          "internalType": "bytes32",
          "name": "role",
          "type": "bytes32"
        },
        {
          "internalType": "address",
          "name": "account",
          "type": "address"
        }
      ],
      "name": "hasRole",
      "outputs": [
        {
          "internalType": "bool",
          "name": "",
          "type": "bool"
        }
      ],
      "stateMutability": "view",
      "type": "function"
    },
    {
      "inputs": [
        {
          "internalType": "address",
          "name": "auth",
          "type": "address"
        }
      ],
      "name": "isVectorAddressAuthority",
      "outputs": [
        {
          "internalType": "bool",
          "name": "",
          "type": "bool"
        }
      ],
      "stateMutability": "view",
      "type": "function"
    },
    {
      "inputs": [
        {
          "internalType": "address",
          "name": "world",
          "type": "address"
        }
      ],
      "name": "isWorld",
      "outputs": [
        {
          "internalType": "bool",
          "name": "",
          "type": "bool"
        }
      ],
      "stateMutability": "view",
      "type": "function"
    },
    {
      "inputs": [],
      "name": "previousRegistry",
      "outputs": [
        {
          "internalType": "contract IWorldRegistry0_1",
          "name": "",
          "type": "address"
        }
      ],
      "stateMutability": "view",
      "type": "function"
    },
    {
      "inputs": [
        {
          "components": [
            {
              "internalType": "bool",
              "name": "sendTokensToWorldOwner",
              "type": "bool"
            },
            {
              "internalType": "address",
              "name": "oldWorld",
              "type": "address"
            },
            {
              "internalType": "address",
              "name": "owner",
              "type": "address"
            },
            {
              "components": [
                {
                  "internalType": "string",
                  "name": "x",
                  "type": "string"
                },
                {
                  "internalType": "string",
                  "name": "y",
                  "type": "string"
                },
                {
                  "internalType": "string",
                  "name": "z",
                  "type": "string"
                },
                {
                  "internalType": "uint256",
                  "name": "t",
                  "type": "uint256"
                },
                {
                  "internalType": "uint256",
                  "name": "p",
                  "type": "uint256"
                },
                {
                  "internalType": "uint256",
                  "name": "p_sub",
                  "type": "uint256"
                }
              ],
              "internalType": "struct VectorAddress",
              "name": "baseVector",
              "type": "tuple"
            },
            {
              "internalType": "string",
              "name": "name",
              "type": "string"
            },
            {
              "internalType": "uint256",
              "name": "registrarId",
              "type": "uint256"
            },
            {
              "internalType": "bytes",
              "name": "initData",
              "type": "bytes"
            },
            {
              "internalType": "bytes",
              "name": "vectorAuthoritySignature",
              "type": "bytes"
            }
          ],
          "internalType": "struct WorldRegistrationRequest",
          "name": "request",
          "type": "tuple"
        }
      ],
      "name": "register",
      "outputs": [],
      "stateMutability": "payable",
      "type": "function"
    },
    {
      "inputs": [],
      "name": "registrarRegistry",
      "outputs": [
        {
          "internalType": "contract IRegistrarRegistry",
          "name": "",
          "type": "address"
        }
      ],
      "stateMutability": "view",
      "type": "function"
    },
    {
      "inputs": [
        {
          "internalType": "uint256",
          "name": "registrarId",
          "type": "uint256"
        },
        {
          "internalType": "address",
          "name": "oldWorld",
          "type": "address"
        },
        {
          "internalType": "bytes",
          "name": "initData",
          "type": "bytes"
        }
      ],
      "name": "registrarUpgradeWorld",
      "outputs": [],
      "stateMutability": "nonpayable",
      "type": "function"
    },
    {
      "inputs": [
        {
          "internalType": "address",
          "name": "auth",
          "type": "address"
        }
      ],
      "name": "removeVectorAddressAuthority",
      "outputs": [],
      "stateMutability": "nonpayable",
      "type": "function"
    },
    {
      "inputs": [
        {
          "internalType": "bytes32",
          "name": "role",
          "type": "bytes32"
        },
        {
          "internalType": "address",
          "name": "callerConfirmation",
          "type": "address"
        }
      ],
      "name": "renounceRole",
      "outputs": [],
      "stateMutability": "nonpayable",
      "type": "function"
    },
    {
      "inputs": [
        {
          "internalType": "bytes32",
          "name": "role",
          "type": "bytes32"
        },
        {
          "internalType": "address",
          "name": "account",
          "type": "address"
        }
      ],
      "name": "revokeRole",
      "outputs": [],
      "stateMutability": "nonpayable",
      "type": "function"
    },
    {
      "inputs": [
        {
          "internalType": "string",
          "name": "version",
          "type": "string"
        }
      ],
      "name": "setCurrentWorldVersion",
      "outputs": [],
      "stateMutability": "nonpayable",
      "type": "function"
    },
    {
      "inputs": [
        {
          "internalType": "address",
          "name": "factory",
          "type": "address"
        }
      ],
      "name": "setWorldFactory",
      "outputs": [],
      "stateMutability": "nonpayable",
      "type": "function"
    },
    {
      "inputs": [
        {
          "internalType": "bytes4",
          "name": "interfaceId",
          "type": "bytes4"
        }
      ],
      "name": "supportsInterface",
      "outputs": [
        {
          "internalType": "bool",
          "name": "",
          "type": "bool"
        }
      ],
      "stateMutability": "view",
      "type": "function"
    },
    {
      "inputs": [],
      "name": "vectorAuthority",
      "outputs": [
        {
          "internalType": "address",
          "name": "",
          "type": "address"
        }
      ],
      "stateMutability": "view",
      "type": "function"
    },
    {
      "inputs": [],
      "name": "worldFactory",
      "outputs": [
        {
          "internalType": "contract IWorldFactory0_2",
          "name": "",
          "type": "address"
        }
      ],
      "stateMutability": "view",
      "type": "function"
    },
    {
      "inputs": [
        {
          "internalType": "bytes",
          "name": "initData",
          "type": "bytes"
        }
      ],
      "name": "worldUpgradeSelf",
      "outputs": [],
      "stateMutability": "nonpayable",
      "type": "function"
    },
    {
      "stateMutability": "payable",
      "type": "receive"
    }
  ],
  "bytecode": "0x60c0604052600360809081526218171960e91b60a0526009906200002490826200044b565b503480156200003257600080fd5b506040516200316538038062003165833981016040819052620000559162000534565b600160005580516001600160a01b0316620000cf5760405162461bcd60e51b815260206004820152602f60248201527f576f726c645265676973747279305f323a20766563746f72417574686f72697460448201526e0792063616e6e6f742062652030783608c1b60648201526084015b60405180910390fd5b60208101516001600160a01b0316620001405760405162461bcd60e51b815260206004820152602c60248201527f576f726c645265676973747279305f323a20776f726c64466163746f7279206360448201526b0616e6e6f74206265203078360a41b6064820152608401620000c6565b60608101516001600160a01b0316620001b15760405162461bcd60e51b815260206004820152602c60248201527f576f726c645265676973747279305f323a2064656661756c7441646d696e206360448201526b0616e6e6f74206265203078360a41b6064820152608401620000c6565b60408101516001600160a01b0316620002275760405162461bcd60e51b815260206004820152603160248201527f576f726c645265676973747279305f323a20726567697374726172526567697360448201527007472792063616e6e6f742062652030783607c1b6064820152608401620000c6565b8051600280546001600160a01b039283166001600160a01b031991821617909155602083015160038054918416918316919091179055608083015160048054918416918316919091179055604083015160058054919093169116179055606081015162000297906000906200030d565b50620002ce7fa49807205ce4d355092ef5a8a18f56e8913cf4a201fbe287825b095693c2177582606001516200030d60201b60201c565b50620003057f2758c8c5d77b29e60fffbf4a2bcb0fc98a947bd2a0dead06fdc32cd3cef1168d82606001516200030d60201b60201c565b5050620005cf565b60008281526001602090815260408083206001600160a01b038516845290915281205460ff166200039a5760008381526001602081815260408084206001600160a01b0387168086529252808420805460ff19169093179092559051339286917f2f8788117e7eff1d82e926ec794901d17c78024a50270940304540a733656f0d9190a45060016200039e565b5060005b92915050565b634e487b7160e01b600052604160045260246000fd5b600181811c90821680620003cf57607f821691505b602082108103620003f057634e487b7160e01b600052602260045260246000fd5b50919050565b601f82111562000446576000816000526020600020601f850160051c81016020861015620004215750805b601f850160051c820191505b8181101562000442578281556001016200042d565b5050505b505050565b81516001600160401b03811115620004675762000467620003a4565b6200047f81620004788454620003ba565b84620003f6565b602080601f831160018114620004b757600084156200049e5750858301515b600019600386901b1c1916600185901b17855562000442565b600085815260208120601f198616915b82811015620004e857888601518255948401946001909101908401620004c7565b5085821015620005075787850151600019600388901b60f8161c191681555b5050505050600190811b01905550565b80516001600160a01b03811681146200052f57600080fd5b919050565b600060a082840312156200054757600080fd5b60405160a081016001600160401b03811182821017156200056c576200056c620003a4565b6040526200057a8362000517565b81526200058a6020840162000517565b60208201526200059d6040840162000517565b6040820152620005b06060840162000517565b6060820152620005c36080840162000517565b60808201529392505050565b612b8680620005df6000396000f3fe60806040526004361061014f5760003560e01c80638f51aa6d116100b6578063b7722c7f1161006f578063b7722c7f146103d7578063d547741f146103f7578063db8d746614610417578063dbdc4e6214610437578063e3ffb4bf14610457578063f0ad0f3e1461047757600080fd5b80638f51aa6d1461032f57806391d148541461034f578063933b415b1461036f578063968638df14610382578063a217fddf146103a2578063a7b9af23146103b757600080fd5b80632f2ff15d116101085780632f2ff15d1461026b57806336568abe1461028b57806337959c2d146102ab57806368f52a97146102cd5780636d80bf31146102ed57806375b238fc1461030d57600080fd5b806301ffc9a71461015b5780630c743051146101905780630dc3897d146101b257806311022380146101ea578063248a9ca31461020a5780632ef7579b1461024957600080fd5b3661015657005b600080fd5b34801561016757600080fd5b5061017b610176366004611fa1565b6104b0565b60405190151581526020015b60405180910390f35b34801561019c57600080fd5b506101a56104e7565b6040516101879190612022565b3480156101be57600080fd5b506003546101d2906001600160a01b031681565b6040516001600160a01b039091168152602001610187565b3480156101f657600080fd5b506004546101d2906001600160a01b031681565b34801561021657600080fd5b5061023b610225366004612035565b6000908152600160208190526040909120015490565b604051908152602001610187565b34801561025557600080fd5b506102696102643660046120bb565b610575565b005b34801561027757600080fd5b50610269610286366004612116565b610aef565b34801561029757600080fd5b506102696102a6366004612116565b610b1b565b3480156102b757600080fd5b5061023b600080516020612b1183398151915281565b3480156102d957600080fd5b506102696102e8366004612146565b610b53565b3480156102f957600080fd5b5061017b610308366004612146565b610c0f565b34801561031957600080fd5b5061023b600080516020612b3183398151915281565b34801561033b57600080fd5b5061026961034a366004612163565b610c29565b34801561035b57600080fd5b5061017b61036a366004612116565b61100e565b61026961037d36600461237c565b611039565b34801561038e57600080fd5b506002546101d2906001600160a01b031681565b3480156103ae57600080fd5b5061023b600081565b3480156103c357600080fd5b506102696103d2366004612492565b611799565b3480156103e357600080fd5b506101d26103f2366004612492565b6117d9565b34801561040357600080fd5b50610269610412366004612116565b611812565b34801561042357600080fd5b50610269610432366004612146565b611838565b34801561044357600080fd5b506005546101d2906001600160a01b031681565b34801561046357600080fd5b50610269610472366004612146565b6118aa565b34801561048357600080fd5b5061017b610492366004612146565b6001600160a01b031660009081526007602052604090205460ff1690565b60006001600160e01b03198216637965db0b60e01b14806104e157506301ffc9a760e01b6001600160e01b03198316145b92915050565b600980546104f4906124ce565b80601f0160208091040260200160405190810160405280929190818152602001828054610520906124ce565b801561056d5780601f106105425761010080835404028352916020019161056d565b820191906000526020600020905b81548152906001019060200180831161055057829003601f168201915b505050505081565b600554604051638c9d518f60e01b81526004810186905233602482015285916001600160a01b031690638c9d518f90604401602060405180830381865afa1580156105c4573d6000803e3d6000fd5b505050506040513d601f19601f820116820180604052508101906105e89190612508565b61060d5760405162461bcd60e51b815260040161060490612525565b60405180910390fd5b61061561191c565b60048054604051637856879f60e11b81526001600160a01b038781169382019390935291169063f0ad0f3e90602401602060405180830381865afa158015610661573d6000803e3d6000fd5b505050506040513d601f19601f820116820180604052508101906106859190612508565b6107085760405162461bcd60e51b815260206004820152604860248201527f576f726c645265676973747279305f323a206f6c64576f726c64206973206e6f60448201527f7420612076616c696420776f726c64207570677261646561626c65206279207260648201526732b3b4b9ba3930b960c11b608482015260a401610604565b600084905060006040518060a00160405280836001600160a01b031663893d20e86040518163ffffffff1660e01b8152600401602060405180830381865afa158015610758573d6000803e3d6000fd5b505050506040513d601f19601f8201168201806040525081019061077c9190612576565b6001600160a01b03168152602001876001600160a01b03168152602001836001600160a01b031663382af56d6040518163ffffffff1660e01b8152600401600060405180830381865afa1580156107d7573d6000803e3d6000fd5b505050506040513d6000823e601f3d908101601f191682016040526107ff91908101906125d8565b8152602001610872846001600160a01b03166317d7de7c6040518163ffffffff1660e01b8152600401600060405180830381865afa158015610845573d6000803e3d6000fd5b505050506040513d6000823e601f3d908101601f1916820160405261086d91908101906126ad565b611946565b815260200186868080601f016020809104026020016040519081016040528093929190818152602001838380828437600092018290525093909452505060035460405163082f91ff60e41b815293945090926001600160a01b0390911691506382f91ff0906108e5908590600401612754565b6020604051808303816000875af1158015610904573d6000803e3d6000fd5b505050506040513d601f19601f820116820180604052508101906109289190612576565b90506001600160a01b0381166109505760405162461bcd60e51b8152600401610604906127d5565b806006610994856001600160a01b03166317d7de7c6040518163ffffffff1660e01b8152600401600060405180830381865afa158015610845573d6000803e3d6000fd5b6040516109a1919061281c565b908152604080516020928190038301812080546001600160a01b0319166001600160a01b0395861617905584841660009081526007909352818320805460ff1916600117905563382af56d60e01b81529051849360089392610a58929189169163382af56d9160048082019287929091908290030181865afa158015610a2b573d6000803e3d6000fd5b505050506040513d6000823e601f3d908101601f19168201604052610a5391908101906125d8565b6119b6565b80516020918201208252810191909152604090810160002080546001600160a01b0319166001600160a01b039384161790555162900f0160e41b8152828216600482015290841690630900f01090602401600060405180830381600087803b158015610ac357600080fd5b505af1158015610ad7573d6000803e3d6000fd5b50505050505050610ae86001600055565b5050505050565b60008281526001602081905260409091200154610b0b81611a20565b610b158383611a2d565b50505050565b6001600160a01b0381163314610b445760405163334bd91960e11b815260040160405180910390fd5b610b4e8282611aa6565b505050565b610b6b600080516020612b318339815191523361100e565b610b875760405162461bcd60e51b815260040161060490612838565b6001600160a01b038116610bed5760405162461bcd60e51b815260206004820152602760248201527f576f726c645265676973747279305f323a20666163746f72792063616e6e6f746044820152660206265203078360cc1b6064820152608401610604565b600380546001600160a01b0319166001600160a01b0392909216919091179055565b60006104e1600080516020612b118339815191528361100e565b3360009081526007602052604090205460ff16610c9e5760405162461bcd60e51b815260206004820152602d60248201527f576f726c645265676973747279305f323a2063616c6c6572206973206e6f742060448201526c18481d985b1a590815dbdc9b19609a1b6064820152608401610604565b610ca661191c565b60003390506000610cee826001600160a01b03166317d7de7c6040518163ffffffff1660e01b8152600401600060405180830381865afa158015610845573d6000803e3d6000fd5b905060006040518060a00160405280846001600160a01b031663893d20e86040518163ffffffff1660e01b8152600401602060405180830381865afa158015610d3b573d6000803e3d6000fd5b505050506040513d601f19601f82011682018060405250810190610d5f9190612576565b6001600160a01b03168152602001336001600160a01b03168152602001846001600160a01b031663382af56d6040518163ffffffff1660e01b8152600401600060405180830381865afa158015610dba573d6000803e3d6000fd5b505050506040513d6000823e601f3d908101601f19168201604052610de291908101906125d8565b815260200183815260200186868080601f016020809104026020016040519081016040528093929190818152602001838380828437600092018290525093909452505060035460405163082f91ff60e41b815293945090926001600160a01b0390911691506382f91ff090610e5b908590600401612754565b6020604051808303816000875af1158015610e7a573d6000803e3d6000fd5b505050506040513d601f19601f82011682018060405250810190610e9e9190612576565b90506001600160a01b038116610ec65760405162461bcd60e51b8152600401610604906127d5565b80600684604051610ed7919061281c565b908152604080516020928190038301812080546001600160a01b0319166001600160a01b0395861617905584841660009081526007909352818320805460ff1916600117905563382af56d60e01b81529051849360089392610f6192918a169163382af56d9160048082019287929091908290030181865afa158015610a2b573d6000803e3d6000fd5b80516020918201208252810191909152604090810160002080546001600160a01b0319166001600160a01b0393841617905551632663d1f760e01b8152828216600482015290851690632663d1f790602401600060405180830381600087803b158015610fcd57600080fd5b505af1158015610fe1573d6000803e3d6000fd5b5050336000908152600760205260409020805460ff191690555061100a9450611a199350505050565b5050565b60009182526001602090815260408084206001600160a01b0393909316845291905290205460ff1690565b60a0810151600554604051638c9d518f60e01b8152600481018390523360248201526001600160a01b0390911690638c9d518f90604401602060405180830381865afa15801561108d573d6000803e3d6000fd5b505050506040513d601f19601f820116820180604052508101906110b19190612508565b6110cd5760405162461bcd60e51b815260040161060490612525565b6110d561191c565b60006110e48360800151611946565b905060006001600160a01b0316600682604051611101919061281c565b908152604051908190036020019020546001600160a01b0316146111755760405162461bcd60e51b815260206004820152602560248201527f576f726c645265676973747279305f323a206e616d6520616c726561647920696044820152646e2075736560d81b6064820152608401610604565b6004546001600160a01b03161580159061119b575060208301516001600160a01b031615155b1561129557600480546020850151604051637856879f60e11b81526001600160a01b0391821693810193909352169063f0ad0f3e90602401602060405180830381865afa1580156111f0573d6000803e3d6000fd5b505050506040513d601f19601f820116820180604052508101906112149190612508565b6112955760405162461bcd60e51b815260206004820152604660248201527f576f726c645265676973747279305f323a206f6c64576f726c64206973206e6f60448201527f7420612076616c696420776f726c642066726f6d2070726576696f757320726560648201526567697374727960d01b608482015260a401610604565b60006112b28460e001518560600151611b1390919063ffffffff16565b90506112cc600080516020612b118339815191528261100e565b61134e5760405162461bcd60e51b815260206004820152604760248201527f576f726c645265676973747279305f323a20766563746f72207369676e65722060448201527f6973206e6f7420612076616c696420766563746f72206164647265737320617560648201526674686f7269747960c81b608482015260a401610604565b606084015151516000036113ba5760405162461bcd60e51b815260206004820152602d60248201527f576f726c645265676973747279305f323a2062617365566563746f722e78206360448201526c616e6e6f74206265207a65726f60981b6064820152608401610604565b836060015160200151516000036114295760405162461bcd60e51b815260206004820152602d60248201527f576f726c645265676973747279305f323a2062617365566563746f722e79206360448201526c616e6e6f74206265207a65726f60981b6064820152608401610604565b836060015160400151516000036114985760405162461bcd60e51b815260206004820152602d60248201527f576f726c645265676973747279305f323a2062617365566563746f722e7a206360448201526c616e6e6f74206265207a65726f60981b6064820152608401610604565b60006040518060c001604052808660600151600001518152602001866060015160200151815260200186606001516040015181526020018660600151606001518152602001600081526020016000815250905060006114f6826119b6565b8051602091820120600081815260089092526040909120549091506001600160a01b0316156115775760405162461bcd60e51b815260206004820152602760248201527f576f726c645265676973747279305f323a20766563746f7220616c726561647960448201526620696e2075736560c81b6064820152608401610604565b6003546040805160a081018252888201516001600160a01b0390811682526020808b01518216908301528183018690526060820188905260c08a01516080830152915163082f91ff60e41b815260009392909216916382f91ff0916115de91600401612754565b6020604051808303816000875af11580156115fd573d6000803e3d6000fd5b505050506040513d601f19601f820116820180604052508101906116219190612576565b90506001600160a01b0381166116495760405162461bcd60e51b8152600401610604906127d5565b8060068660405161165a919061281c565b908152604080516020928190038301902080546001600160a01b03199081166001600160a01b0395861617909155928416600081815260078452828120805460ff19166001179055868152600890935291208054909216179055341561173b578651156117045786604001516001600160a01b03166108fc349081150290604051600060405180830381858888f193505050501580156116fe573d6000803e3d6000fd5b5061173b565b6040516001600160a01b038216903480156108fc02916000818181858888f19350505050158015611739573d6000803e3d6000fd5b505b86604001516001600160a01b0316816001600160a01b03167fee32bdf3024960eab0cc65f92f4ab288808ff5501b8132b269630d3fa070005e85604051611782919061287d565b60405180910390a3505050505061100a6001600055565b6117b1600080516020612b318339815191523361100e565b6117cd5760405162461bcd60e51b815260040161060490612838565b600961100a82826128e0565b600060066117e683611946565b6040516117f3919061281c565b908152604051908190036020019020546001600160a01b031692915050565b6000828152600160208190526040909120015461182e81611a20565b610b158383611aa6565b611850600080516020612b318339815191523361100e565b61186c5760405162461bcd60e51b815260040161060490612838565b6001600160a01b0381166118925760405162461bcd60e51b81526004016106049061299f565b61100a600080516020612b1183398151915282611a2d565b6118c2600080516020612b318339815191523361100e565b6118de5760405162461bcd60e51b815260040161060490612838565b6001600160a01b0381166119045760405162461bcd60e51b81526004016106049061299f565b61100a600080516020612b1183398151915282611aa6565b60026000540361193f57604051633ee5aeb560e01b815260040160405180910390fd5b6002600055565b60608160005b81518110156119af5761197e82828151811061196a5761196a6129e3565b01602001516001600160f81b031916611b75565b828281518110611990576119906129e3565b60200101906001600160f81b031916908160001a90535060010161194c565b5092915050565b60608160000151826020015183604001516119d48560600151611bc4565b6119e18660800151611bc4565b6119ee8760a00151611bc4565b604051602001611a03969594939291906129f9565b6040516020818303038152906040529050919050565b6001600055565b611a2a8133611c56565b50565b6000611a39838361100e565b611a9e5760008381526001602081815260408084206001600160a01b0387168086529252808420805460ff19169093179092559051339286917f2f8788117e7eff1d82e926ec794901d17c78024a50270940304540a733656f0d9190a45060016104e1565b5060006104e1565b6000611ab2838361100e565b15611a9e5760008381526001602090815260408083206001600160a01b0386168085529252808320805460ff1916905551339286917ff6391f5c32d9c69d2a47ea670b442974b53935d1edc7fd64eb21e047a839171b9190a45060016104e1565b600080611b1f846119b6565b805160208083019190912060408051838152808201909152929350916000916020820181803683370190505090508160208201526000611b5e82611c8f565b9050611b6a8187611cca565b979650505050505050565b6000604160f81b6001600160f81b0319831610801590611ba35750602d60f91b6001600160f81b0319831611155b15611bc057611bb760f883901c6020612a78565b60f81b92915050565b5090565b60606000611bd183611cf4565b60010190506000816001600160401b03811115611bf057611bf06121a4565b6040519080825280601f01601f191660200182016040528015611c1a576020820181803683370190505b5090508181016020015b600019016f181899199a1a9b1b9c1cb0b131b232b360811b600a86061a8153600a8504945084611c2457509392505050565b611c60828261100e565b61100a5760405163e2517d3f60e01b81526001600160a01b038216600482015260248101839052604401610604565b6000611c9b8251611bc4565b82604051602001611cad929190612a9f565b604051602081830303815290604052805190602001209050919050565b600080600080611cda8686611dcc565b925092509250611cea8282611e19565b5090949350505050565b60008072184f03e93ff9f4daa797ed6e38ed64bf6a1f0160401b8310611d335772184f03e93ff9f4daa797ed6e38ed64bf6a1f0160401b830492506040015b6d04ee2d6d415b85acef81000000008310611d5f576d04ee2d6d415b85acef8100000000830492506020015b662386f26fc100008310611d7d57662386f26fc10000830492506010015b6305f5e1008310611d95576305f5e100830492506008015b6127108310611da957612710830492506004015b60648310611dbb576064830492506002015b600a83106104e15760010192915050565b60008060008351604103611e065760208401516040850151606086015160001a611df888828585611ed2565b955095509550505050611e12565b50508151600091506002905b9250925092565b6000826003811115611e2d57611e2d612afa565b03611e36575050565b6001826003811115611e4a57611e4a612afa565b03611e685760405163f645eedf60e01b815260040160405180910390fd5b6002826003811115611e7c57611e7c612afa565b03611e9d5760405163fce698f760e01b815260048101829052602401610604565b6003826003811115611eb157611eb1612afa565b0361100a576040516335e2f38360e21b815260048101829052602401610604565b600080807f7fffffffffffffffffffffffffffffff5d576e7357a4501ddfe92f46681b20a0841115611f0d5750600091506003905082611f97565b604080516000808252602082018084528a905260ff891692820192909252606081018790526080810186905260019060a0016020604051602081039080840390855afa158015611f61573d6000803e3d6000fd5b5050604051601f1901519150506001600160a01b038116611f8d57506000925060019150829050611f97565b9250600091508190505b9450945094915050565b600060208284031215611fb357600080fd5b81356001600160e01b031981168114611fcb57600080fd5b9392505050565b60005b83811015611fed578181015183820152602001611fd5565b50506000910152565b6000815180845261200e816020860160208601611fd2565b601f01601f19169290920160200192915050565b602081526000611fcb6020830184611ff6565b60006020828403121561204757600080fd5b5035919050565b6001600160a01b0381168114611a2a57600080fd5b803561206e8161204e565b919050565b60008083601f84011261208557600080fd5b5081356001600160401b0381111561209c57600080fd5b6020830191508360208285010111156120b457600080fd5b9250929050565b600080600080606085870312156120d157600080fd5b8435935060208501356120e38161204e565b925060408501356001600160401b038111156120fe57600080fd5b61210a87828801612073565b95989497509550505050565b6000806040838503121561212957600080fd5b82359150602083013561213b8161204e565b809150509250929050565b60006020828403121561215857600080fd5b8135611fcb8161204e565b6000806020838503121561217657600080fd5b82356001600160401b0381111561218c57600080fd5b61219885828601612073565b90969095509350505050565b634e487b7160e01b600052604160045260246000fd5b60405160c081016001600160401b03811182821017156121dc576121dc6121a4565b60405290565b60405161010081016001600160401b03811182821017156121dc576121dc6121a4565b604051601f8201601f191681016001600160401b038111828210171561222d5761222d6121a4565b604052919050565b8015158114611a2a57600080fd5b803561206e81612235565b60006001600160401b03821115612267576122676121a4565b50601f01601f191660200190565b600082601f83011261228657600080fd5b81356122996122948261224e565b612205565b8181528460208386010111156122ae57600080fd5b816020850160208301376000918101602001919091529392505050565b600060c082840312156122dd57600080fd5b6122e56121ba565b905081356001600160401b03808211156122fe57600080fd5b61230a85838601612275565b8352602084013591508082111561232057600080fd5b61232c85838601612275565b6020840152604084013591508082111561234557600080fd5b5061235284828501612275565b604083015250606082013560608201526080820135608082015260a082013560a082015292915050565b60006020828403121561238e57600080fd5b81356001600160401b03808211156123a557600080fd5b9083019061010082860312156123ba57600080fd5b6123c26121e2565b6123cb83612243565b81526123d960208401612063565b60208201526123ea60408401612063565b604082015260608301358281111561240157600080fd5b61240d878286016122cb565b60608301525060808301358281111561242557600080fd5b61243187828601612275565b60808301525060a083013560a082015260c08301358281111561245357600080fd5b61245f87828601612275565b60c08301525060e08301358281111561247757600080fd5b61248387828601612275565b60e08301525095945050505050565b6000602082840312156124a457600080fd5b81356001600160401b038111156124ba57600080fd5b6124c684828501612275565b949350505050565b600181811c908216806124e257607f821691505b60208210810361250257634e487b7160e01b600052602260045260246000fd5b50919050565b60006020828403121561251a57600080fd5b8151611fcb81612235565b60208082526031908201527f576f726c645265676973747279305f323a2063616c6c6572206973206e6f742060408201527030903b30b634b2103932b3b4b9ba3930b960791b606082015260800190565b60006020828403121561258857600080fd5b8151611fcb8161204e565b600082601f8301126125a457600080fd5b81516125b26122948261224e565b8181528460208386010111156125c757600080fd5b6124c6826020830160208701611fd2565b6000602082840312156125ea57600080fd5b81516001600160401b038082111561260157600080fd5b9083019060c0828603121561261557600080fd5b61261d6121ba565b82518281111561262c57600080fd5b61263887828601612593565b82525060208301518281111561264d57600080fd5b61265987828601612593565b60208301525060408301518281111561267157600080fd5b61267d87828601612593565b604083015250606083015160608201526080830151608082015260a083015160a082015280935050505092915050565b6000602082840312156126bf57600080fd5b81516001600160401b038111156126d557600080fd5b6124c684828501612593565b6000815160c084526126f660c0850182611ff6565b90506020830151848203602086015261270f8282611ff6565b915050604083015184820360408601526127298282611ff6565b915050606083015160608501526080830151608085015260a083015160a08501528091505092915050565b60208152600060018060a01b0380845116602084015280602085015116604084015250604083015160a0606084015261279060c08401826126e1565b90506060840151601f19808584030160808601526127ae8383611ff6565b925060808601519150808584030160a0860152506127cc8282611ff6565b95945050505050565b60208082526027908201527f576f726c645265676973747279305f323a20776f726c64206372656174696f6e6040820152660819985a5b195960ca1b606082015260800190565b6000825161282e818460208701611fd2565b9190910192915050565b60208082526025908201527f576f726c645265676973747279305f323a2063616c6c6572206973206e6f742060408201526430b236b4b760d91b606082015260800190565b602081526000611fcb60208301846126e1565b601f821115610b4e576000816000526020600020601f850160051c810160208610156128b95750805b601f850160051c820191505b818110156128d8578281556001016128c5565b505050505050565b81516001600160401b038111156128f9576128f96121a4565b61290d8161290784546124ce565b84612890565b602080601f831160018114612942576000841561292a5750858301515b600019600386901b1c1916600185901b1785556128d8565b600085815260208120601f198616915b8281101561297157888601518255948401946001909101908401612952565b508582101561298f5787850151600019600388901b60f8161c191681555b5050505050600190811b01905550565b60208082526024908201527f576f726c645265676973747279305f323a20617574682063616e6e6f742062656040820152630203078360e41b606082015260800190565b634e487b7160e01b600052603260045260246000fd5b600087516020612a0c8285838d01611fd2565b885191840191612a1f8184848d01611fd2565b8851920191612a318184848c01611fd2565b8751920191612a438184848b01611fd2565b8651920191612a558184848a01611fd2565b8551920191612a678184848901611fd2565b919091019998505050505050505050565b60ff81811683821601908111156104e157634e487b7160e01b600052601160045260246000fd5b7f19457468657265756d205369676e6564204d6573736167653a0a000000000000815260008351612ad781601a850160208801611fd2565b835190830190612aee81601a840160208801611fd2565b01601a01949350505050565b634e487b7160e01b600052602160045260246000fdfe2758c8c5d77b29e60fffbf4a2bcb0fc98a947bd2a0dead06fdc32cd3cef1168da49807205ce4d355092ef5a8a18f56e8913cf4a201fbe287825b095693c21775a264697066735822122062b19c3b0dad6e5a12659b1e0782b10113f86bba360153e4c4c6bca28fc31b6b64736f6c63430008180033",
  "linkReferences": {},
  "deployedLinkReferences": {}
}