{
  "_format": "hh-sol-artifact-1",
  "contractName": "LibHooks",
  "sourceName": "contracts/libraries/LibHooks.sol",
  "abi": [
    {
      "inputs": [],
      "name": "HOOK_STORAGE_SLOT",
      "outputs": [
        {
          "internalType": "bytes32",
          "name": "",
          "type": "bytes32"
        }
      ],
      "stateMutability": "view",
      "type": "function"
    },
    {
      "inputs": [
        {
          "internalType": "address",
          "name": "_addr",
          "type": "address"
        }
      ],
      "name": "isContract",
      "outputs": [
        {
          "internalType": "bool",
          "name": "",
          "type": "bool"
        }
      ],
      "stateMutability": "view",
      "type": "function"
    }
  ],
  "bytecode": "0x61021b61003a600b82828239805160001a60731461002d57634e487b7160e01b600052600060045260246000fd5b30600052607381538281f3fe73000000000000000000000000000000000000000030146080604052600436106100615760003560e01c806316279055146100665780635452f78814610095578063963dca1d146100cf578063c99fecfe14610104578063e8f5434a14610137575b600080fd5b61008061007436600461017e565b3b63ffffffff16151590565b60405190151581526020015b60405180910390f35b8180156100a157600080fd5b506100cd6100b03660046101a0565b81546001600160a01b0319166001600160a01b0391909116179055565b005b6100f67f2914b2bb01114b5159800e543f6c1279819fc613124831d49682628c159b8a3881565b60405190815260200161008c565b61011f6101123660046101cc565b546001600160a01b031690565b6040516001600160a01b03909116815260200161008c565b81801561014357600080fd5b506100cd6101523660046101cc565b80546001600160a01b0319169055565b80356001600160a01b038116811461017957600080fd5b919050565b60006020828403121561019057600080fd5b61019982610162565b9392505050565b600080604083850312156101b357600080fd5b823591506101c360208401610162565b90509250929050565b6000602082840312156101de57600080fd5b503591905056fea26469706673582212206b30501615f2de3e1780f0a02e5fafc5764707f2021f2e6a13d2c4e93f82b90664736f6c63430008180033",
  "linkReferences": {},
  "deployedLinkReferences": {}
}