{
  "_format": "hh-sol-artifact-1",
  "contractName": "NTERC20Asset",
  "sourceName": "contracts/asset/erc20/NTERC20Asset.sol",
  "abi": [
    {
      "inputs": [
        {
          "components": [
            {
              "internalType": "address",
              "name": "assetFactory",
              "type": "address"
            },
            {
              "internalType": "address",
              "name": "assetRegistry",
              "type": "address"
            },
            {
              "internalType": "address",
              "name": "avatarRegistry",
              "type": "address"
            },
            {
              "internalType": "address",
              "name": "companyRegistry",
              "type": "address"
            }
          ],
          "internalType": "struct BaseAssetArgs",
          "name": "args",
          "type": "tuple"
        }
      ],
      "stateMutability": "nonpayable",
      "type": "constructor"
    },
    {
      "inputs": [
        {
          "internalType": "address",
          "name": "spender",
          "type": "address"
        },
        {
          "internalType": "uint256",
          "name": "allowance",
          "type": "uint256"
        },
        {
          "internalType": "uint256",
          "name": "needed",
          "type": "uint256"
        }
      ],
      "name": "ERC20InsufficientAllowance",
      "type": "error"
    },
    {
      "inputs": [
        {
          "internalType": "address",
          "name": "sender",
          "type": "address"
        },
        {
          "internalType": "uint256",
          "name": "balance",
          "type": "uint256"
        },
        {
          "internalType": "uint256",
          "name": "needed",
          "type": "uint256"
        }
      ],
      "name": "ERC20InsufficientBalance",
      "type": "error"
    },
    {
      "inputs": [
        {
          "internalType": "address",
          "name": "approver",
          "type": "address"
        }
      ],
      "name": "ERC20InvalidApprover",
      "type": "error"
    },
    {
      "inputs": [
        {
          "internalType": "address",
          "name": "receiver",
          "type": "address"
        }
      ],
      "name": "ERC20InvalidReceiver",
      "type": "error"
    },
    {
      "inputs": [
        {
          "internalType": "address",
          "name": "sender",
          "type": "address"
        }
      ],
      "name": "ERC20InvalidSender",
      "type": "error"
    },
    {
      "inputs": [
        {
          "internalType": "address",
          "name": "spender",
          "type": "address"
        }
      ],
      "name": "ERC20InvalidSpender",
      "type": "error"
    },
    {
      "inputs": [],
      "name": "ReentrancyGuardReentrantCall",
      "type": "error"
    },
    {
      "anonymous": false,
      "inputs": [
        {
          "indexed": true,
          "internalType": "address",
          "name": "owner",
          "type": "address"
        },
        {
          "indexed": true,
          "internalType": "address",
          "name": "spender",
          "type": "address"
        },
        {
          "indexed": false,
          "internalType": "uint256",
          "name": "value",
          "type": "uint256"
        }
      ],
      "name": "Approval",
      "type": "event"
    },
    {
      "anonymous": false,
      "inputs": [
        {
          "indexed": true,
          "internalType": "address",
          "name": "condition",
          "type": "address"
        }
      ],
      "name": "AssetConditionAdded",
      "type": "event"
    },
    {
      "anonymous": false,
      "inputs": [
        {
          "indexed": true,
          "internalType": "address",
          "name": "condition",
          "type": "address"
        }
      ],
      "name": "AssetConditionRemoved",
      "type": "event"
    },
    {
      "anonymous": false,
      "inputs": [
        {
          "indexed": true,
          "internalType": "address",
          "name": "hook",
          "type": "address"
        }
      ],
      "name": "AssetHookAdded",
      "type": "event"
    },
    {
      "anonymous": false,
      "inputs": [
        {
          "indexed": true,
          "internalType": "address",
          "name": "hook",
          "type": "address"
        }
      ],
      "name": "AssetHookRemoved",
      "type": "event"
    },
    {
      "anonymous": false,
      "inputs": [
        {
          "indexed": true,
          "internalType": "address",
          "name": "to",
          "type": "address"
        },
        {
          "indexed": true,
          "internalType": "uint256",
          "name": "amt",
          "type": "uint256"
        }
      ],
      "name": "ERC20Minted",
      "type": "event"
    },
    {
      "anonymous": false,
      "inputs": [
        {
          "indexed": true,
          "internalType": "address",
          "name": "oldAsset",
          "type": "address"
        },
        {
          "indexed": true,
          "internalType": "address",
          "name": "newAsset",
          "type": "address"
        }
      ],
      "name": "ERC20Upgraded",
      "type": "event"
    },
    {
      "anonymous": false,
      "inputs": [],
      "name": "HookRemoved",
      "type": "event"
    },
    {
      "anonymous": false,
      "inputs": [
        {
          "indexed": false,
          "internalType": "address",
          "name": "hook",
          "type": "address"
        }
      ],
      "name": "HookSet",
      "type": "event"
    },
    {
      "anonymous": false,
      "inputs": [
        {
          "indexed": true,
          "internalType": "address",
          "name": "from",
          "type": "address"
        },
        {
          "indexed": true,
          "internalType": "address",
          "name": "to",
          "type": "address"
        },
        {
          "indexed": false,
          "internalType": "uint256",
          "name": "value",
          "type": "uint256"
        }
      ],
      "name": "Transfer",
      "type": "event"
    },
    {
      "inputs": [
        {
          "internalType": "contract IAssetCondition",
          "name": "condition",
          "type": "address"
        }
      ],
      "name": "addCondition",
      "outputs": [],
      "stateMutability": "nonpayable",
      "type": "function"
    },
    {
      "inputs": [
        {
          "internalType": "address",
          "name": "owner",
          "type": "address"
        },
        {
          "internalType": "address",
          "name": "spender",
          "type": "address"
        }
      ],
      "name": "allowance",
      "outputs": [
        {
          "internalType": "uint256",
          "name": "",
          "type": "uint256"
        }
      ],
      "stateMutability": "view",
      "type": "function"
    },
    {
      "inputs": [
        {
          "internalType": "address",
          "name": "",
          "type": "address"
        },
        {
          "internalType": "uint256",
          "name": "",
          "type": "uint256"
        }
      ],
      "name": "approve",
      "outputs": [
        {
          "internalType": "bool",
          "name": "",
          "type": "bool"
        }
      ],
      "stateMutability": "nonpayable",
      "type": "function"
    },
    {
      "inputs": [],
      "name": "assetFactory",
      "outputs": [
        {
          "internalType": "address",
          "name": "",
          "type": "address"
        }
      ],
      "stateMutability": "view",
      "type": "function"
    },
    {
      "inputs": [],
      "name": "assetRegistry",
      "outputs": [
        {
          "internalType": "address",
          "name": "",
          "type": "address"
        }
      ],
      "stateMutability": "view",
      "type": "function"
    },
    {
      "inputs": [],
      "name": "avatarRegistry",
      "outputs": [
        {
          "internalType": "contract IAvatarRegistry",
          "name": "",
          "type": "address"
        }
      ],
      "stateMutability": "view",
      "type": "function"
    },
    {
      "inputs": [
        {
          "internalType": "address",
          "name": "account",
          "type": "address"
        }
      ],
      "name": "balanceOf",
      "outputs": [
        {
          "internalType": "uint256",
          "name": "",
          "type": "uint256"
        }
      ],
      "stateMutability": "view",
      "type": "function"
    },
    {
      "inputs": [
        {
          "internalType": "address",
          "name": "to",
          "type": "address"
        },
        {
          "internalType": "bytes",
          "name": "data",
          "type": "bytes"
        }
      ],
      "name": "canMint",
      "outputs": [
        {
          "internalType": "bool",
          "name": "",
          "type": "bool"
        }
      ],
      "stateMutability": "view",
      "type": "function"
    },
    {
      "inputs": [
        {
          "components": [
            {
              "internalType": "address",
              "name": "asset",
              "type": "address"
            },
            {
              "internalType": "address",
              "name": "world",
              "type": "address"
            },
            {
              "internalType": "address",
              "name": "company",
              "type": "address"
            },
            {
              "internalType": "address",
              "name": "experience",
              "type": "address"
            },
            {
              "internalType": "address",
              "name": "avatar",
              "type": "address"
            }
          ],
          "internalType": "struct AssetCheckArgs",
          "name": "args",
          "type": "tuple"
        }
      ],
      "name": "canUseAsset",
      "outputs": [
        {
          "internalType": "bool",
          "name": "",
          "type": "bool"
        }
      ],
      "stateMutability": "view",
      "type": "function"
    },
    {
      "inputs": [
        {
          "components": [
            {
              "internalType": "address",
              "name": "asset",
              "type": "address"
            },
            {
              "internalType": "address",
              "name": "world",
              "type": "address"
            },
            {
              "internalType": "address",
              "name": "company",
              "type": "address"
            },
            {
              "internalType": "address",
              "name": "experience",
              "type": "address"
            },
            {
              "internalType": "address",
              "name": "avatar",
              "type": "address"
            }
          ],
          "internalType": "struct AssetCheckArgs",
          "name": "args",
          "type": "tuple"
        }
      ],
      "name": "canViewAsset",
      "outputs": [
        {
          "internalType": "bool",
          "name": "",
          "type": "bool"
        }
      ],
      "stateMutability": "view",
      "type": "function"
    },
    {
      "inputs": [],
      "name": "companyRegistry",
      "outputs": [
        {
          "internalType": "contract ICompanyRegistry",
          "name": "",
          "type": "address"
        }
      ],
      "stateMutability": "view",
      "type": "function"
    },
    {
      "inputs": [],
      "name": "decimals",
      "outputs": [
        {
          "internalType": "uint8",
          "name": "",
          "type": "uint8"
        }
      ],
      "stateMutability": "view",
      "type": "function"
    },
    {
      "inputs": [
        {
          "components": [
            {
              "internalType": "address",
              "name": "originChainAddress",
              "type": "address"
            },
            {
              "internalType": "address",
              "name": "issuer",
              "type": "address"
            },
            {
              "internalType": "uint8",
              "name": "decimals",
              "type": "uint8"
            },
            {
              "internalType": "uint256",
              "name": "originChainId",
              "type": "uint256"
            },
            {
              "internalType": "uint256",
              "name": "maxSupply",
              "type": "uint256"
            },
            {
              "internalType": "string",
              "name": "name",
              "type": "string"
            },
            {
              "internalType": "string",
              "name": "symbol",
              "type": "string"
            }
          ],
          "internalType": "struct ERC20InitData",
          "name": "data",
          "type": "tuple"
        }
      ],
      "name": "encodeInitData",
      "outputs": [
        {
          "internalType": "bytes",
          "name": "",
          "type": "bytes"
        }
      ],
      "stateMutability": "pure",
      "type": "function"
    },
    {
      "inputs": [],
      "name": "hook",
      "outputs": [
        {
          "internalType": "address",
          "name": "",
          "type": "address"
        }
      ],
      "stateMutability": "view",
      "type": "function"
    },
    {
      "inputs": [
        {
          "internalType": "bytes",
          "name": "initData",
          "type": "bytes"
        }
      ],
      "name": "init",
      "outputs": [],
      "stateMutability": "nonpayable",
      "type": "function"
    },
    {
      "inputs": [],
      "name": "issuer",
      "outputs": [
        {
          "internalType": "address",
          "name": "",
          "type": "address"
        }
      ],
      "stateMutability": "view",
      "type": "function"
    },
    {
      "inputs": [
        {
          "internalType": "address",
          "name": "to",
          "type": "address"
        },
        {
          "internalType": "bytes",
          "name": "data",
          "type": "bytes"
        }
      ],
      "name": "mint",
      "outputs": [],
      "stateMutability": "nonpayable",
      "type": "function"
    },
    {
      "inputs": [],
      "name": "name",
      "outputs": [
        {
          "internalType": "string",
          "name": "",
          "type": "string"
        }
      ],
      "stateMutability": "view",
      "type": "function"
    },
    {
      "inputs": [],
      "name": "originAddress",
      "outputs": [
        {
          "internalType": "address",
          "name": "",
          "type": "address"
        }
      ],
      "stateMutability": "view",
      "type": "function"
    },
    {
      "inputs": [],
      "name": "originChainId",
      "outputs": [
        {
          "internalType": "uint256",
          "name": "",
          "type": "uint256"
        }
      ],
      "stateMutability": "view",
      "type": "function"
    },
    {
      "inputs": [],
      "name": "removeCondition",
      "outputs": [],
      "stateMutability": "nonpayable",
      "type": "function"
    },
    {
      "inputs": [],
      "name": "removeHook",
      "outputs": [],
      "stateMutability": "nonpayable",
      "type": "function"
    },
    {
      "inputs": [
        {
          "internalType": "address",
          "name": "tgt",
          "type": "address"
        },
        {
          "internalType": "bytes",
          "name": "data",
          "type": "bytes"
        }
      ],
      "name": "revoke",
      "outputs": [],
      "stateMutability": "nonpayable",
      "type": "function"
    },
    {
      "inputs": [
        {
          "internalType": "address",
          "name": "_hook",
          "type": "address"
        }
      ],
      "name": "setHook",
      "outputs": [],
      "stateMutability": "nonpayable",
      "type": "function"
    },
    {
      "inputs": [],
      "name": "symbol",
      "outputs": [
        {
          "internalType": "string",
          "name": "",
          "type": "string"
        }
      ],
      "stateMutability": "view",
      "type": "function"
    },
    {
      "inputs": [],
      "name": "totalSupply",
      "outputs": [
        {
          "internalType": "uint256",
          "name": "",
          "type": "uint256"
        }
      ],
      "stateMutability": "view",
      "type": "function"
    },
    {
      "inputs": [
        {
          "internalType": "address",
          "name": "",
          "type": "address"
        },
        {
          "internalType": "uint256",
          "name": "",
          "type": "uint256"
        }
      ],
      "name": "transfer",
      "outputs": [
        {
          "internalType": "bool",
          "name": "",
          "type": "bool"
        }
      ],
      "stateMutability": "nonpayable",
      "type": "function"
    },
    {
      "inputs": [
        {
          "internalType": "address",
          "name": "",
          "type": "address"
        },
        {
          "internalType": "address",
          "name": "",
          "type": "address"
        },
        {
          "internalType": "uint256",
          "name": "",
          "type": "uint256"
        }
      ],
      "name": "transferFrom",
      "outputs": [
        {
          "internalType": "bool",
          "name": "",
          "type": "bool"
        }
      ],
      "stateMutability": "nonpayable",
      "type": "function"
    },
    {
      "inputs": [
        {
          "internalType": "bytes",
          "name": "initData",
          "type": "bytes"
        }
      ],
      "name": "upgrade",
      "outputs": [
        {
          "internalType": "address",
          "name": "",
          "type": "address"
        }
      ],
      "stateMutability": "nonpayable",
      "type": "function"
    },
    {
      "inputs": [
        {
          "internalType": "address",
          "name": "newAsset",
          "type": "address"
        }
      ],
      "name": "upgradeComplete",
      "outputs": [],
      "stateMutability": "nonpayable",
      "type": "function"
    },
    {
      "inputs": [],
      "name": "version",
      "outputs": [
        {
          "internalType": "uint256",
          "name": "",
          "type": "uint256"
        }
      ],
      "stateMutability": "view",
      "type": "function"
    }
  ],
  "bytecode": "0x610100604052600180553480156200001657600080fd5b5060405162002f1938038062002f19833981016040819052620000399162000259565b6001600055805181906001600160a01b0316620000b15760405162461bcd60e51b815260206004820152602b60248201527f4261736541737365743a206173736574466163746f727920697320746865207a60448201526a65726f206164647265737360a81b60648201526084015b60405180910390fd5b60208101516001600160a01b0316620001225760405162461bcd60e51b815260206004820152602c60248201527f4261736541737365743a2061737365745265676973747279206973207468652060448201526b7a65726f206164647265737360a01b6064820152608401620000a8565b60408101516001600160a01b0316620001945760405162461bcd60e51b815260206004820152602d60248201527f4261736541737365743a2061766174617252656769737472792069732074686560448201526c207a65726f206164647265737360981b6064820152608401620000a8565b60608101516001600160a01b0316620002075760405162461bcd60e51b815260206004820152602e60248201527f4261736541737365743a20636f6d70616e79526567697374727920697320746860448201526d65207a65726f206164647265737360901b6064820152608401620000a8565b80516001600160a01b039081166080526020820151811660a0526040820151811660c0526060909101511660e05250620002ed565b80516001600160a01b03811681146200025457600080fd5b919050565b6000608082840312156200026c57600080fd5b604051608081016001600160401b03811182821017156200029d57634e487b7160e01b600052604160045260246000fd5b604052620002ab836200023c565b8152620002bb602084016200023c565b6020820152620002ce604084016200023c565b6040820152620002e1606084016200023c565b60608201529392505050565b60805160a05160c05160e051612bcf6200034a6000396000818161046c0152610f570152600081816104eb01526118f60152600081816103c40152610899015260008181610445015281816109270152610e3f0152612bcf6000f3fe608060405234801561001057600080fd5b50600436106101e55760003560e01c806354fd4d501161010f578063a9059cbb116100a2578063c51aba2b11610071578063c51aba2b14610467578063dd62ed3e1461048e578063e3d7ad73146104e6578063e517fedd1461050d57600080fd5b8063a9059cbb1461040c578063b4e75b9b1461041a578063b510391f1461042d578063c3acb4d11461044057600080fd5b806395d89b41116100de57806395d89b41146103b7578063979d7e86146103bf5780639a973844146103e65780639e54c0a2146103f957600080fd5b806354fd4d50146103805780635e7a90051461038957806370a082311461039c5780637f5a7c7b146103af57600080fd5b806323b872dd11610187578063378f17ff11610156578063378f17ff1461033f5780633dfd3873146103475780633fa47f171461035a5780634ddf47d41461036d57600080fd5b806323b872dd146102e457806325394645146102f75780632663d1f71461030a578063313ce5671461031d57600080fd5b80630ac7f561116101c35780630ac7f5611461023557806318160ddd146102665780631d1438481461028d57806322d34932146102d157600080fd5b8063021665b7146101ea57806306fdde03146101f4578063095ea7b314610212575b600080fd5b6101f2610530565b005b6101fc6105ee565b604051610209919061224a565b60405180910390f35b610225610220366004612285565b610690565b6040519015158152602001610209565b7fdaa68ed5a13c867185fe05c85f795df599e06c61888bec0f56aca55dd90ee3ff545b604051908152602001610209565b7fdaa68ed5a13c867185fe05c85f795df599e06c61888bec0f56aca55dd90ee3f954610258565b7fdaa68ed5a13c867185fe05c85f795df599e06c61888bec0f56aca55dd90ee3fd546001600160a01b03165b6040516001600160a01b039091168152602001610209565b6101f26102df3660046122b1565b6106eb565b6102256102f23660046122ce565b6107eb565b6102b9610305366004612358565b610846565b6101f26103183660046122b1565b61091c565b600080516020612b5a8339815191525460405160ff9091168152602001610209565b6101f2610a85565b6101f26103553660046122b1565b610b48565b61022561036836600461240a565b610d6f565b6101f261037b366004612508565b610e34565b61025860015481565b6101fc610397366004612593565b611390565b6102586103aa3660046122b1565b6113b9565b6102b96113f3565b6101fc61147e565b6102b97f000000000000000000000000000000000000000000000000000000000000000081565b6101f26103f436600461266b565b61149d565b61022561040736600461266b565b6117cf565b6102256102f2366004612285565b61022561042836600461240a565b611b01565b6101f261043b36600461266b565b611b7e565b6102b97f000000000000000000000000000000000000000000000000000000000000000081565b6102b97f000000000000000000000000000000000000000000000000000000000000000081565b61025861049c3660046126c0565b6001600160a01b0391821660009081527fdaa68ed5a13c867185fe05c85f795df599e06c61888bec0f56aca55dd90ee3fb6020908152604080832093909416825291909152205490565b6102b97f000000000000000000000000000000000000000000000000000000000000000081565b600080516020612b5a8339815191525461010090046001600160a01b03166102b9565b600080516020612b5a833981519152600101546001600160a01b031633146105735760405162461bcd60e51b815260040161056a906126f9565b60405180910390fd5b7fdaa68ed5a13c867185fe05c85f795df599e06c61888bec0f56aca55dd90ee3fe54604051600080516020612b5a833981519152916001600160a01b03169081907f2df08b6a3a4aed918c51e7ac3bbbe4f82bb09d26fef89a0c23ddc38c1a3c385b90600090a25060020180546001600160a01b0319169055565b6060600080516020612b5a833981519152600401805461060d90612730565b80601f016020809104026020016040519081016040528092919081815260200182805461063990612730565b80156106865780601f1061065b57610100808354040283529160200191610686565b820191906000526020600020905b81548152906001019060200180831161066957829003601f168201915b5050505050905090565b60405162461bcd60e51b815260206004820152602760248201527f4e54455243323041737365743a20617070726f76616c73206e6f7420616c6c6f6044820152661dd959081e595d60ca1b606482015260009060840161056a565b600080516020612b5a833981519152600101546001600160a01b031633146107255760405162461bcd60e51b815260040161056a906126f9565b600080516020612b5a8339815191526001600160a01b03821661079e5760405162461bcd60e51b815260206004820152602b60248201527f4261736541737365743a20636f6e646974696f6e2063616e6e6f74206265207a60448201526a65726f206164647265737360a81b606482015260840161056a565b6002810180546001600160a01b0319166001600160a01b0384169081179091556040517fb17f5e42ddd024b71620166aeff196e5f40a39a3d7fe8082929e768015fbf7c190600090a25050565b60405162461bcd60e51b815260206004820152602760248201527f4e54455243323041737365743a207472616e7366657273206e6f7420616c6c6f6044820152661dd959081e595d60ca1b606482015260009060840161056a565b6000600080516020612b5a833981519152600101546001600160a01b031633146108825760405162461bcd60e51b815260040161056a906126f9565b604051633cbd429360e01b81526001600160a01b037f00000000000000000000000000000000000000000000000000000000000000001690633cbd4293906108d0908690869060040161276a565b6020604051808303816000875af11580156108ef573d6000803e3d6000fd5b505050506040513d601f19601f8201168201806040525081019061091391906127a4565b90505b92915050565b336001600160a01b037f000000000000000000000000000000000000000000000000000000000000000016146109945760405162461bcd60e51b815260206004820152601f60248201527f4261736541737365743a206f6e6c7920666163746f727920616c6c6f77656400604482015260640161056a565b306001600160a01b03821603610a14576040805162461bcd60e51b81526020600482015260248101919091527f4e54455243323041737365743a206e6577207570677261646520636f6e74726160448201527f637420616464726573732063616e6e6f74206d61746368206f726967696e616c606482015260840161056a565b7f69198989339f34e10129e514286bde98979351148754faef989dde18bf6d14da80546001600160a01b031981166001600160a01b03848116918217845560405192169182907fe0cdc3a6eaf24c066560b5cb2e50c08f3d82cce0e3d838dc7032ba68790cd52b90600090a3505050565b610a8e33611dad565b610aaa5760405162461bcd60e51b815260040161056a906127c1565b600080516020612b7a83398151915260405163747aa1a560e11b8152600481019190915273__$b33bdc01aa0b2bf845e7e40ceebecaaf7e$__9063e8f5434a9060240160006040518083038186803b158015610b0557600080fd5b505af4158015610b19573d6000803e3d6000fd5b50506040517f4abf6d25887ff6b78026f569f956b6d57d5b92cecf0ee91d897ec98e47f656a3925060009150a1565b610b5133611dad565b610b6d5760405162461bcd60e51b815260040161056a906127c1565b6001600160a01b038116610bd55760405162461bcd60e51b815260206004820152602960248201527f42617365486f6f6b537570706f72743a20686f6f6b20697320746865207a65726044820152686f206164647265737360b81b606482015260840161056a565b604051631627905560e01b81526001600160a01b038216600482015273__$b33bdc01aa0b2bf845e7e40ceebecaaf7e$__90631627905590602401602060405180830381865af4158015610c2d573d6000803e3d6000fd5b505050506040513d601f19601f82011682018060405250810190610c519190612809565b610cad5760405162461bcd60e51b815260206004820152602760248201527f42617365486f6f6b537570706f72743a20686f6f6b206973206e6f74206120636044820152661bdb9d1c9858dd60ca1b606482015260840161056a565b600080516020612b7a833981519152604051630a8a5ef160e31b815260048101919091526001600160a01b038216602482015273__$b33bdc01aa0b2bf845e7e40ceebecaaf7e$__90635452f7889060440160006040518083038186803b158015610d1757600080fd5b505af4158015610d2b573d6000803e3d6000fd5b50506040516001600160a01b03841681527f4eab7b127c764308788622363ad3e9532de3dfba7845bd4f84c125a22544255a9250602001905060405180910390a150565b7fdaa68ed5a13c867185fe05c85f795df599e06c61888bec0f56aca55dd90ee3fe54600090600080516020612b5a833981519152906001600160a01b0316610dba5750600192915050565b60028101546040516377b63b9160e11b81526001600160a01b039091169063ef6c772290610dec90869060040161282b565b602060405180830381865afa158015610e09573d6000803e3d6000fd5b505050506040513d601f19601f82011682018060405250810190610e2d9190612809565b9392505050565b336001600160a01b037f00000000000000000000000000000000000000000000000000000000000000001614610eac5760405162461bcd60e51b815260206004820152601f60248201527f4261736541737365743a206f6e6c7920666163746f727920616c6c6f77656400604482015260640161056a565b600081806020019051810190610ec291906128c2565b60208101519091506001600160a01b0316610f335760405162461bcd60e51b815260206004820152602b60248201527f4e54455243323041737365743a206973737565722063616e6e6f74206265207a60448201526a65726f206164647265737360a81b606482015260840161056a565b6020810151604051632405672560e21b81526001600160a01b0391821660048201527f0000000000000000000000000000000000000000000000000000000000000000909116906390159c9490602401602060405180830381865afa158015610fa0573d6000803e3d6000fd5b505050506040513d601f19601f82011682018060405250810190610fc49190612809565b6110285760405162461bcd60e51b815260206004820152602f60248201527f4e54455243323041737365743a20697373756572206d7573742062652072656760448201526e6973746572656420636f6d70616e7960881b606482015260840161056a565b80516001600160a01b03166110a55760405162461bcd60e51b815260206004820152603760248201527f4e54455243323041737365743a206f726967696e436861696e4164647265737360448201527f2063616e6e6f74206265207a65726f2061646472657373000000000000000000606482015260840161056a565b60008160a0015151116111055760405162461bcd60e51b815260206004820152602260248201527f4e54455243323041737365743a206e616d652063616e6e6f7420626520656d70604482015261747960f01b606482015260840161056a565b60008160c0015151116111665760405162461bcd60e51b8152602060048201526024808201527f4e54455243323041737365743a2073796d626f6c2063616e6e6f7420626520656044820152636d70747960e01b606482015260840161056a565b60008160600151116111d85760405162461bcd60e51b815260206004820152603560248201527f4e54455243323041737365743a206f726967696e436861696e4964206d7573746044820152742062652067726561746572207468616e207a65726f60581b606482015260840161056a565b60008160800151116112465760405162461bcd60e51b815260206004820152603160248201527f4e54455243323041737365743a206d6178537570706c79206d7573742062652060448201527067726561746572207468616e207a65726f60781b606482015260840161056a565b600080516020612b5a833981519152547fdaa68ed5a13c867185fe05c85f795df599e06c61888bec0f56aca55dd90ee3f89061010090046001600160a01b0316156112dd5760405162461bcd60e51b815260206004820152602160248201527f4e54455243323041737365743a20616c726561647920696e697469616c697a656044820152601960fa1b606482015260840161056a565b8151600482018054610100600160a81b0319166101006001600160a01b039384160217905560208301516005830180546001600160a01b03191691909216179055606082015160078201556080820151815560a0820151600882019061134390826129db565b5060c0820151600982019061135890826129db565b506000826040015160ff161161136f576012611375565b81604001515b600491909101805460ff191660ff9092169190911790555050565b6060816040516020016113a39190612a9b565b6040516020818303038152906040529050919050565b6001600160a01b031660009081527fdaa68ed5a13c867185fe05c85f795df599e06c61888bec0f56aca55dd90ee3fa602052604090205490565b6000600080516020612b7a8339815191526040516364cff67f60e11b8152600481019190915273__$b33bdc01aa0b2bf845e7e40ceebecaaf7e$__9063c99fecfe90602401602060405180830381865af4158015611455573d6000803e3d6000fd5b505050506040513d601f19601f8201168201806040525081019061147991906127a4565b905090565b6060600080516020612b5a833981519152600501805461060d90612730565b6114a5611dfb565b600080516020612b5a833981519152600101546001600160a01b031633146114df5760405162461bcd60e51b815260040161056a906126f9565b6001600160a01b03831661154b5760405162461bcd60e51b815260206004820152602d60248201527f4e54455243323041737365743a2063616e6e6f74207265766f6b652066726f6d60448201526c207a65726f206164647265737360981b606482015260840161056a565b6000600080516020612b7a8339815191526040516364cff67f60e11b8152600481019190915273__$b33bdc01aa0b2bf845e7e40ceebecaaf7e$__9063c99fecfe90602401602060405180830381865af41580156115ad573d6000803e3d6000fd5b505050506040513d601f19601f820116820180604052508101906115d191906127a4565b905060006115e183850185612b1f565b9050600081116116515760405162461bcd60e51b815260206004820152603560248201527f4e54455243323041737365743a207265766f6b6520616d6f756e74206d7573746044820152742062652067726561746572207468616e207a65726f60581b606482015260840161056a565b8061165b866113b9565b10156116be5760405162461bcd60e51b815260206004820152602c60248201527f4e54455243323041737365743a20696e73756666696369656e742062616c616e60448201526b636520746f207265766f6b6560a01b606482015260840161056a565b6001600160a01b038216156117b4576040516335661e9560e21b81523060048201526001600160a01b038681166024830152604482018390526000919084169063d5987a54906064016020604051808303816000875af1158015611726573d6000803e3d6000fd5b505050506040513d601f19601f8201168201806040525081019061174a9190612809565b9050806117b25760405162461bcd60e51b815260206004820152603060248201527f4e54455243323041737365743a206265666f72655265766f6b6520686f6f6b2060448201526f1c995a9958dd1959081c995c5d595cdd60821b606482015260840161056a565b505b6117be8582611e25565b50506117ca6001600055565b505050565b60006001600160a01b0384166118395760405162461bcd60e51b815260206004820152602960248201527f4e54455243323041737365743a2063616e6e6f74206d696e7420746f207a65726044820152686f206164647265737360b81b606482015260840161056a565b7fdaa68ed5a13c867185fe05c85f795df599e06c61888bec0f56aca55dd90ee3f8600061186885850186612b1f565b9050816000015481836001015461187f9190612b38565b11156118d75760405162461bcd60e51b815260206004820152602160248201527f4e54455243323041737365743a206d617820737570706c7920657863656564656044820152601960fa1b606482015260840161056a565b604051632b0fe8e760e21b81526001600160a01b0387811660048301527f0000000000000000000000000000000000000000000000000000000000000000169063ac3fa39c90602401602060405180830381865afa15801561193d573d6000803e3d6000fd5b505050506040513d601f19601f820116820180604052508101906119619190612809565b156119dc576000869050806001600160a01b031663181d939b6040518163ffffffff1660e01b8152600401602060405180830381865afa1580156119a9573d6000803e3d6000fd5b505050506040513d601f19601f820116820180604052508101906119cd9190612809565b6119da576119da87611e5f565b505b6000600080516020612b7a8339815191526040516364cff67f60e11b8152600481019190915273__$b33bdc01aa0b2bf845e7e40ceebecaaf7e$__9063c99fecfe90602401602060405180830381865af4158015611a3e573d6000803e3d6000fd5b505050506040513d601f19601f82011682018060405250810190611a6291906127a4565b90506001600160a01b03811615611af45760405163624a7dc760e01b81523060048201526001600160a01b0388811660248301526044820184905282169063624a7dc790606401602060405180830381865afa158015611ac6573d6000803e3d6000fd5b505050506040513d601f19601f82011682018060405250810190611aea9190612809565b9350505050610e2d565b5060019695505050505050565b7fdaa68ed5a13c867185fe05c85f795df599e06c61888bec0f56aca55dd90ee3fe54600090600080516020612b5a833981519152906001600160a01b0316611b4c5750600192915050565b600281015460405163eab4ad0360e01b81526001600160a01b039091169063eab4ad0390610dec90869060040161282b565b611b86611dfb565b600080516020612b5a833981519152600101546001600160a01b03163314611bc05760405162461bcd60e51b815260040161056a906126f9565b611bcb8383836117cf565b611c175760405162461bcd60e51b815260206004820181905260248201527f4e54455243323041737365743a2063616e6e6f74206d696e7420746f6b656e73604482015260640161056a565b6000611c2582840184612b1f565b90506000600080516020612b7a8339815191526040516364cff67f60e11b8152600481019190915273__$b33bdc01aa0b2bf845e7e40ceebecaaf7e$__9063c99fecfe90602401602060405180830381865af4158015611c89573d6000803e3d6000fd5b505050506040513d601f19601f82011682018060405250810190611cad91906127a4565b90506001600160a01b03811615611da3576040516386b8418760e01b81523060048201526001600160a01b03868116602483015260448201849052600091908316906386b84187906064016020604051808303816000875af1158015611d17573d6000803e3d6000fd5b505050506040513d601f19601f82011682018060405250810190611d3b9190612809565b905080611da15760405162461bcd60e51b815260206004820152602e60248201527f4e54455243323041737365743a206265666f72654d696e7420686f6f6b20726560448201526d1a9958dd1959081c995c5d595cdd60921b606482015260840161056a565b505b6117be8583612034565b6000611de07fdaa68ed5a13c867185fe05c85f795df599e06c61888bec0f56aca55dd90ee3fd546001600160a01b031690565b6001600160a01b0316826001600160a01b0316149050919050565b600260005403611e1e57604051633ee5aeb560e01b815260040160405180910390fd5b6002600055565b6001600160a01b038216611e4f57604051634b637e8f60e11b81526000600482015260240161056a565b611e5b826000836120a4565b5050565b6000816001600160a01b031663516f279e6040518163ffffffff1660e01b8152600401602060405180830381865afa158015611e9f573d6000803e3d6000fd5b505050506040513d601f19601f82011682018060405250810190611ec391906127a4565b9050600080516020612b5a8339815191526001600160a01b038216611f345760405162461bcd60e51b815260206004820152602160248201527f4261736541737365743a2061766174617220686173206e6f206c6f636174696f6044820152603760f91b606482015260840161056a565b600181015460408051636904c94d60e01b815290516001600160a01b0392831692851691636904c94d9160048083019260209291908290030181865afa158015611f82573d6000803e3d6000fd5b505050506040513d601f19601f82011682018060405250810190611fa691906127a4565b6001600160a01b0316146117ca5760405162461bcd60e51b815260206004820152604960248201527f4261736541737365743a2061766174617220646f6573206e6f7420616c6c6f7760448201527f20617373657473206f757473696465206f66206974732063757272656e7420656064820152687870657269656e636560b81b608482015260a40161056a565b6001600160a01b03821661205e5760405163ec442f0560e01b81526000600482015260240161056a565b61206a600083836120a4565b60405181906001600160a01b038416907f1f98ee45d72cac8271cfd41cc599153bf1465afc3fc1f0b3e2a97b8f1c4253a990600090a35050565b7fdaa68ed5a13c867185fe05c85f795df599e06c61888bec0f56aca55dd90ee3f86001600160a01b0384166120f257818160010160008282546120e79190612b38565b909155506121689050565b6001600160a01b0384166000908152600282016020526040902054828110156121475760405163391434e360e21b81526001600160a01b0386166004820152602481018290526044810184905260640161056a565b6001600160a01b038516600090815260028301602052604090209083900390555b6001600160a01b0383166121865760018101805483900390556121a7565b6001600160a01b038316600090815260028201602052604090208054830190555b826001600160a01b0316846001600160a01b03167fddf252ad1be2c89b69c2b068fc378daa952ba7f163c4a11628f55a4df523b3ef846040516121ec91815260200190565b60405180910390a350505050565b60005b838110156122155781810151838201526020016121fd565b50506000910152565b600081518084526122368160208601602086016121fa565b601f01601f19169290920160200192915050565b602081526000610913602083018461221e565b6001600160a01b038116811461227257600080fd5b50565b80356122808161225d565b919050565b6000806040838503121561229857600080fd5b82356122a38161225d565b946020939093013593505050565b6000602082840312156122c357600080fd5b8135610e2d8161225d565b6000806000606084860312156122e357600080fd5b83356122ee8161225d565b925060208401356122fe8161225d565b929592945050506040919091013590565b60008083601f84011261232157600080fd5b50813567ffffffffffffffff81111561233957600080fd5b60208301915083602082850101111561235157600080fd5b9250929050565b6000806020838503121561236b57600080fd5b823567ffffffffffffffff81111561238257600080fd5b61238e8582860161230f565b90969095509350505050565b634e487b7160e01b600052604160045260246000fd5b60405160e0810167ffffffffffffffff811182821017156123d3576123d361239a565b60405290565b604051601f8201601f1916810167ffffffffffffffff811182821017156124025761240261239a565b604052919050565b600060a0828403121561241c57600080fd5b60405160a0810181811067ffffffffffffffff8211171561243f5761243f61239a565b604052823561244d8161225d565b8152602083013561245d8161225d565b602082015260408301356124708161225d565b604082015260608301356124838161225d565b606082015260808301356124968161225d565b60808201529392505050565b600067ffffffffffffffff8211156124bc576124bc61239a565b50601f01601f191660200190565b60006124dd6124d8846124a2565b6123d9565b90508281528383830111156124f157600080fd5b828260208301376000602084830101529392505050565b60006020828403121561251a57600080fd5b813567ffffffffffffffff81111561253157600080fd5b8201601f8101841361254257600080fd5b612551848235602084016124ca565b949350505050565b60ff8116811461227257600080fd5b803561228081612559565b600082601f83011261258457600080fd5b610913838335602085016124ca565b6000602082840312156125a557600080fd5b813567ffffffffffffffff808211156125bd57600080fd5b9083019060e082860312156125d157600080fd5b6125d96123b0565b6125e283612275565b81526125f060208401612275565b602082015261260160408401612568565b6040820152606083013560608201526080830135608082015260a08301358281111561262c57600080fd5b61263887828601612573565b60a08301525060c08301358281111561265057600080fd5b61265c87828601612573565b60c08301525095945050505050565b60008060006040848603121561268057600080fd5b833561268b8161225d565b9250602084013567ffffffffffffffff8111156126a757600080fd5b6126b38682870161230f565b9497909650939450505050565b600080604083850312156126d357600080fd5b82356126de8161225d565b915060208301356126ee8161225d565b809150509250929050565b6020808252601e908201527f4261736541737365743a206f6e6c792069737375657220616c6c6f7765640000604082015260600190565b600181811c9082168061274457607f821691505b60208210810361276457634e487b7160e01b600052602260045260246000fd5b50919050565b60208152816020820152818360408301376000818301604090810191909152601f909201601f19160101919050565b80516122808161225d565b6000602082840312156127b657600080fd5b8151610e2d8161225d565b60208082526028908201527f42617365486f6f6b537570706f72743a2063616c6c6572206973206e6f74207460408201526734329030b236b4b760c11b606082015260800190565b60006020828403121561281b57600080fd5b81518015158114610e2d57600080fd5b81516001600160a01b039081168252602080840151821690830152604080840151821690830152606080840151821690830152608092830151169181019190915260a00190565b805161228081612559565b600082601f83011261288e57600080fd5b815161289c6124d8826124a2565b8181528460208386010111156128b157600080fd5b6125518260208301602087016121fa565b6000602082840312156128d457600080fd5b815167ffffffffffffffff808211156128ec57600080fd5b9083019060e0828603121561290057600080fd5b6129086123b0565b61291183612799565b815261291f60208401612799565b602082015261293060408401612872565b6040820152606083015160608201526080830151608082015260a08301518281111561295b57600080fd5b6129678782860161287d565b60a08301525060c08301518281111561297f57600080fd5b61265c8782860161287d565b601f8211156117ca576000816000526020600020601f850160051c810160208610156129b45750805b601f850160051c820191505b818110156129d3578281556001016129c0565b505050505050565b815167ffffffffffffffff8111156129f5576129f561239a565b612a0981612a038454612730565b8461298b565b602080601f831160018114612a3e5760008415612a265750858301515b600019600386901b1c1916600185901b1785556129d3565b600085815260208120601f198616915b82811015612a6d57888601518255948401946001909101908401612a4e565b5085821015612a8b5787850151600019600388901b60f8161c191681555b5050505050600190811b01905550565b60208152600060018060a01b038084511660208401528060208501511660408401525060ff604084015116606083015260608301516080830152608083015160a083015260a083015160e060c0840152612af961010084018261221e565b905060c0840151601f198483030160e0850152612b16828261221e565b95945050505050565b600060208284031215612b3157600080fd5b5035919050565b8082018082111561091657634e487b7160e01b600052601160045260246000fdfedaa68ed5a13c867185fe05c85f795df599e06c61888bec0f56aca55dd90ee3fc2914b2bb01114b5159800e543f6c1279819fc613124831d49682628c159b8a38a26469706673582212200a5d239fb3df7ae2015ee868653844871db5531a9061a719700657047dedf4ed64736f6c63430008180033",
  "linkReferences": {
    "contracts/libraries/LibHooks.sol": {
      "LibHooks": [
        {
          "length": 20,
          "start": 3610
        },
        {
          "length": 20,
          "start": 3901
        },
        {
          "length": 20,
          "start": 4140
        },
        {
          "length": 20,
          "start": 5989
        },
        {
          "length": 20,
          "start": 6333
        },
        {
          "length": 20,
          "start": 7502
        },
        {
          "length": 20,
          "start": 8089
        }
      ]
    }
  },
  "deployedLinkReferences": {
    "contracts/libraries/LibHooks.sol": {
      "LibHooks": [
        {
          "length": 20,
          "start": 2768
        },
        {
          "length": 20,
          "start": 3059
        },
        {
          "length": 20,
          "start": 3298
        },
        {
          "length": 20,
          "start": 5147
        },
        {
          "length": 20,
          "start": 5491
        },
        {
          "length": 20,
          "start": 6660
        },
        {
          "length": 20,
          "start": 7247
        }
      ]
    }
  }
}