{
  "_format": "hh-sol-artifact-1",
  "contractName": "RegistrarFactory",
  "sourceName": "contracts/registrar/RegistrarFactory.sol",
  "abi": [
    {
      "inputs": [
        {
          "internalType": "address",
          "name": "mainAdmin",
          "type": "address"
        },
        {
          "internalType": "address[]",
          "name": "admins",
          "type": "address[]"
        }
      ],
      "stateMutability": "nonpayable",
      "type": "constructor"
    },
    {
      "inputs": [],
      "name": "AccessControlBadConfirmation",
      "type": "error"
    },
    {
      "inputs": [
        {
          "internalType": "address",
          "name": "account",
          "type": "address"
        },
        {
          "internalType": "bytes32",
          "name": "neededRole",
          "type": "bytes32"
        }
      ],
      "name": "AccessControlUnauthorizedAccount",
      "type": "error"
    },
    {
      "anonymous": false,
      "inputs": [
        {
          "indexed": true,
          "internalType": "address",
          "name": "oldRegistry",
          "type": "address"
        },
        {
          "indexed": true,
          "internalType": "address",
          "name": "newRegistry",
          "type": "address"
        }
      ],
      "name": "AuthorizedRegistryChanged",
      "type": "event"
    },
    {
      "anonymous": false,
      "inputs": [
        {
          "indexed": true,
          "internalType": "bytes32",
          "name": "role",
          "type": "bytes32"
        },
        {
          "indexed": true,
          "internalType": "bytes32",
          "name": "previousAdminRole",
          "type": "bytes32"
        },
        {
          "indexed": true,
          "internalType": "bytes32",
          "name": "newAdminRole",
          "type": "bytes32"
        }
      ],
      "name": "RoleAdminChanged",
      "type": "event"
    },
    {
      "anonymous": false,
      "inputs": [
        {
          "indexed": true,
          "internalType": "bytes32",
          "name": "role",
          "type": "bytes32"
        },
        {
          "indexed": true,
          "internalType": "address",
          "name": "account",
          "type": "address"
        },
        {
          "indexed": true,
          "internalType": "address",
          "name": "sender",
          "type": "address"
        }
      ],
      "name": "RoleGranted",
      "type": "event"
    },
    {
      "anonymous": false,
      "inputs": [
        {
          "indexed": true,
          "internalType": "bytes32",
          "name": "role",
          "type": "bytes32"
        },
        {
          "indexed": true,
          "internalType": "address",
          "name": "account",
          "type": "address"
        },
        {
          "indexed": true,
          "internalType": "address",
          "name": "sender",
          "type": "address"
        }
      ],
      "name": "RoleRevoked",
      "type": "event"
    },
    {
      "inputs": [],
      "name": "ADMIN_ROLE",
      "outputs": [
        {
          "internalType": "bytes32",
          "name": "",
          "type": "bytes32"
        }
      ],
      "stateMutability": "view",
      "type": "function"
    },
    {
      "inputs": [],
      "name": "DEFAULT_ADMIN_ROLE",
      "outputs": [
        {
          "internalType": "bytes32",
          "name": "",
          "type": "bytes32"
        }
      ],
      "stateMutability": "view",
      "type": "function"
    },
    {
      "inputs": [
        {
          "internalType": "string",
          "name": "name",
          "type": "string"
        },
        {
          "internalType": "bytes",
          "name": "initData",
          "type": "bytes"
        }
      ],
      "name": "createRegistrar",
      "outputs": [
        {
          "internalType": "address",
          "name": "proxy",
          "type": "address"
        }
      ],
      "stateMutability": "nonpayable",
      "type": "function"
    },
    {
      "inputs": [],
      "name": "getImplementation",
      "outputs": [
        {
          "internalType": "address",
          "name": "",
          "type": "address"
        }
      ],
      "stateMutability": "view",
      "type": "function"
    },
    {
      "inputs": [],
      "name": "getProxyImplementation",
      "outputs": [
        {
          "internalType": "address",
          "name": "",
          "type": "address"
        }
      ],
      "stateMutability": "view",
      "type": "function"
    },
    {
      "inputs": [
        {
          "internalType": "bytes32",
          "name": "role",
          "type": "bytes32"
        }
      ],
      "name": "getRoleAdmin",
      "outputs": [
        {
          "internalType": "bytes32",
          "name": "",
          "type": "bytes32"
        }
      ],
      "stateMutability": "view",
      "type": "function"
    },
    {
      "inputs": [
        {
          "internalType": "bytes32",
          "name": "role",
          "type": "bytes32"
        },
        {
          "internalType": "address",
          "name": "account",
          "type": "address"
        }
      ],
      "name": "grantRole",
      "outputs": [],
      "stateMutability": "nonpayable",
      "type": "function"
    },
    {
      "inputs": [
        {
          "internalType": "bytes32",
          "name": "role",
          "type": "bytes32"
        },
        {
          "internalType": "address",
          "name": "account",
          "type": "address"
        }
      ],
      "name": "hasRole",
      "outputs": [
        {
          "internalType": "bool",
          "name": "",
          "type": "bool"
        }
      ],
      "stateMutability": "view",
      "type": "function"
    },
    {
      "inputs": [
        {
          "internalType": "bytes32",
          "name": "role",
          "type": "bytes32"
        },
        {
          "internalType": "address",
          "name": "callerConfirmation",
          "type": "address"
        }
      ],
      "name": "renounceRole",
      "outputs": [],
      "stateMutability": "nonpayable",
      "type": "function"
    },
    {
      "inputs": [
        {
          "internalType": "bytes32",
          "name": "role",
          "type": "bytes32"
        },
        {
          "internalType": "address",
          "name": "account",
          "type": "address"
        }
      ],
      "name": "revokeRole",
      "outputs": [],
      "stateMutability": "nonpayable",
      "type": "function"
    },
    {
      "inputs": [
        {
          "internalType": "address",
          "name": "_registry",
          "type": "address"
        }
      ],
      "name": "setAuthorizedRegistry",
      "outputs": [],
      "stateMutability": "nonpayable",
      "type": "function"
    },
    {
      "inputs": [
        {
          "internalType": "address",
          "name": "_implementation",
          "type": "address"
        },
        {
          "internalType": "uint256",
          "name": "version",
          "type": "uint256"
        }
      ],
      "name": "setImplementation",
      "outputs": [],
      "stateMutability": "nonpayable",
      "type": "function"
    },
    {
      "inputs": [
        {
          "internalType": "address",
          "name": "_proxyImplementation",
          "type": "address"
        }
      ],
      "name": "setProxyImplementation",
      "outputs": [],
      "stateMutability": "nonpayable",
      "type": "function"
    },
    {
      "inputs": [
        {
          "internalType": "bytes4",
          "name": "interfaceId",
          "type": "bytes4"
        }
      ],
      "name": "supportsInterface",
      "outputs": [
        {
          "internalType": "bool",
          "name": "",
          "type": "bool"
        }
      ],
      "stateMutability": "view",
      "type": "function"
    },
    {
      "inputs": [],
      "name": "supportsVersion",
      "outputs": [
        {
          "internalType": "uint256",
          "name": "",
          "type": "uint256"
        }
      ],
      "stateMutability": "view",
      "type": "function"
    },
    {
      "inputs": [
        {
          "internalType": "address",
          "name": "registrar",
          "type": "address"
        },
        {
          "internalType": "bytes",
          "name": "initData",
          "type": "bytes"
        }
      ],
      "name": "upgradeRegistrar",
      "outputs": [
        {
          "internalType": "address",
          "name": "",
          "type": "address"
        }
      ],
      "stateMutability": "nonpayable",
      "type": "function"
    }
  ],
  "bytecode": "0x60806040523480156200001157600080fd5b5060405162001402380380620014028339810160408190526200003491620002a6565b81816001600160a01b038216620000a95760405162461bcd60e51b815260206004820152602e60248201527f42617365466163746f72793a206d61696e2061646d696e2063616e6e6f74206260448201526d65207a65726f206164647265737360901b60648201526084015b60405180910390fd5b620000b6600083620001c4565b50620000d2600080516020620013e283398151915283620001c4565b5060005b8151811015620001b95760006001600160a01b03168282815181106200010057620001006200038f565b60200260200101516001600160a01b031603620001725760405162461bcd60e51b815260206004820152602960248201527f42617365466163746f72793a2061646d696e2063616e6e6f74206265207a65726044820152686f206164647265737360b81b6064820152608401620000a0565b620001af600080516020620013e28339815191528383815181106200019b576200019b6200038f565b6020026020010151620001c460201b60201c565b50600101620000d6565b5050505050620003a5565b6000828152602081815260408083206001600160a01b038516845290915281205460ff1662000269576000838152602081815260408083206001600160a01b03861684529091529020805460ff19166001179055620002203390565b6001600160a01b0316826001600160a01b0316847f2f8788117e7eff1d82e926ec794901d17c78024a50270940304540a733656f0d60405160405180910390a45060016200026d565b5060005b92915050565b80516001600160a01b03811681146200028b57600080fd5b919050565b634e487b7160e01b600052604160045260246000fd5b60008060408385031215620002ba57600080fd5b620002c58362000273565b602084810151919350906001600160401b0380821115620002e557600080fd5b818601915086601f830112620002fa57600080fd5b8151818111156200030f576200030f62000290565b8060051b604051601f19603f8301168101818110858211171562000337576200033762000290565b6040529182528482019250838101850191898311156200035657600080fd5b938501935b828510156200037f576200036f8562000273565b845293850193928501926200035b565b8096505050505050509250929050565b634e487b7160e01b600052603260045260246000fd5b61102d80620003b56000396000f3fe608060405234801561001057600080fd5b50600436106101005760003560e01c806390e4b72011610097578063aaf10f4211610066578063aaf10f421461022b578063bff5a0f91461023c578063d547741f1461024f578063e921c2751461026257600080fd5b806390e4b720146101ec57806391d14854146101fd5780639fdcd3a414610210578063a217fddf1461022357600080fd5b80632f2ff15d116100d35780632f2ff15d1461019e5780633033a4e5146101b157806336568abe146101c457806375b238fc146101d757600080fd5b806301ffc9a714610105578063090741a01461012d578063248a9ca3146101425780632713808114610173575b600080fd5b610118610113366004610c09565b61026b565b60405190151581526020015b60405180910390f35b61014061013b366004610c4f565b6102a2565b005b610165610150366004610c6c565b60009081526020819052604090206001015490565b604051908152602001610124565b610186610181366004610d11565b610378565b6040516001600160a01b039091168152602001610124565b6101406101ac366004610da0565b61049c565b6101406101bf366004610dd0565b6104c7565b6101406101d2366004610da0565b61065b565b610165600080516020610fd883398151915281565b6002546001600160a01b0316610186565b61011861020b366004610da0565b610693565b61014061021e366004610c4f565b6106bc565b610165600081565b6001546001600160a01b0316610186565b61018661024a366004610dfc565b610773565b61014061025d366004610da0565b610961565b61016560045481565b60006001600160e01b03198216637965db0b60e01b148061029c57506301ffc9a760e01b6001600160e01b03198316145b92915050565b600080516020610fd88339815191526102ba81610986565b6001600160a01b03821661032b5760405162461bcd60e51b815260206004820152602d60248201527f576f726c64466163746f72793a2072656769737472792063616e6e6f7420626560448201526c207a65726f206164647265737360981b60648201526084015b60405180910390fd5b600380546001600160a01b0319166001600160a01b03841690811790915560405181907fc86b12484784843e0f58748ffb8c87f7ee384e04382a190867f3cccc3b6cf97b90600090a35050565b6003546000906001600160a01b03166103a35760405162461bcd60e51b815260040161032290610e81565b6003546001600160a01b031633146103cd5760405162461bcd60e51b815260040161032290610ec9565b6103d5610993565b600154604051639c02006160e01b81526001600160a01b039182166004820152919250821690639c02006190602401600060405180830381600087803b15801561041e57600080fd5b505af1158015610432573d6000803e3d6000fd5b505060405163081ad1a360e41b81526001600160a01b03841692506381ad1a3091506104649086908690600401610f5d565b600060405180830381600087803b15801561047e57600080fd5b505af1158015610492573d6000803e3d6000fd5b5050505092915050565b6000828152602081905260409020600101546104b781610986565b6104c18383610a1a565b50505050565b600080516020610fd88339815191526104df81610986565b6001600160a01b0383166105505760405162461bcd60e51b815260206004820152603260248201527f42617365466163746f72793a20696d706c656d656e746174696f6e2063616e6e6044820152716f74206265207a65726f206164647265737360701b6064820152608401610322565b60045482116105c75760405162461bcd60e51b815260206004820152603960248201527f42617365466163746f72793a2076657273696f6e206d7573742062652067726560448201527f61746572207468616e2063757272656e742076657273696f6e000000000000006064820152608401610322565b6001546001600160a01b038085169116036106345760405162461bcd60e51b815260206004820152602760248201527f42617365466163746f72793a20696d706c656d656e746174696f6e20616c726560448201526618591e481cd95d60ca1b6064820152608401610322565b50600180546001600160a01b0319166001600160a01b039390931692909217909155600455565b6001600160a01b03811633146106845760405163334bd91960e11b815260040160405180910390fd5b61068e8282610aac565b505050565b6000918252602082815260408084206001600160a01b0393909316845291905290205460ff1690565b600080516020610fd88339815191526106d481610986565b6001600160a01b0382166107505760405162461bcd60e51b815260206004820152603860248201527f42617365466163746f72793a2070726f787920696d706c656d656e746174696f60448201527f6e2063616e6e6f74206265207a65726f206164647265737300000000000000006064820152608401610322565b50600280546001600160a01b0319166001600160a01b0392909216919091179055565b6003546000906001600160a01b031661079e5760405162461bcd60e51b815260040161032290610e81565b6003546001600160a01b031633146107c85760405162461bcd60e51b815260040161032290610ec9565b6000846001600160a01b031663aaf10f426040518163ffffffff1660e01b8152600401602060405180830381865afa158015610808573d6000803e3d6000fd5b505050506040513d601f19601f8201168201806040525081019061082c9190610f8b565b6001549091506001600160a01b039081169082160361088d5760405162461bcd60e51b815260206004820152601d60248201527f416c7265616479206f6e20746865206c61746573742076657273696f6e0000006044820152606401610322565b600154604051632663d1f760e01b81526001600160a01b03918216600482015290861690632663d1f790602401600060405180830381600087803b1580156108d457600080fd5b505af11580156108e8573d6000803e3d6000fd5b5050604051631377d1f560e21b81526001600160a01b0388169250634ddf47d4915061091a9087908790600401610fa8565b600060405180830381600087803b15801561093457600080fd5b505af1158015610948573d6000803e3d6000fd5b50506001546001600160a01b0316979650505050505050565b60008281526020819052604090206001015461097c81610986565b6104c18383610aac565b6109908133610b17565b50565b6002546000906001600160a01b0316610a005760405162461bcd60e51b815260206004820152602960248201527f42617365466163746f72793a2070726f787920696d706c656d656e746174696f6044820152681b881b9bdd081cd95d60ba1b6064820152608401610322565b600254610a15906001600160a01b0316610b54565b905090565b6000610a268383610693565b610aa4576000838152602081815260408083206001600160a01b03861684529091529020805460ff19166001179055610a5c3390565b6001600160a01b0316826001600160a01b0316847f2f8788117e7eff1d82e926ec794901d17c78024a50270940304540a733656f0d60405160405180910390a450600161029c565b50600061029c565b6000610ab88383610693565b15610aa4576000838152602081815260408083206001600160a01b0386168085529252808320805460ff1916905551339286917ff6391f5c32d9c69d2a47ea670b442974b53935d1edc7fd64eb21e047a839171b9190a450600161029c565b610b218282610693565b610b505760405163e2517d3f60e01b81526001600160a01b038216600482015260248101839052604401610322565b5050565b60006001600160a01b038216610bb85760405162461bcd60e51b815260206004820152602360248201527f42617365466163746f72793a20696d706c656d656e746174696f6e206e6f74206044820152621cd95d60ea1b6064820152608401610322565b60008260601b9050604051733d602d80600a3d3981f3363d3d373d3d3d363d7360601b81528160148201526e5af43d82803e903d91602b57fd5bf360881b60288201526037816000f0949350505050565b600060208284031215610c1b57600080fd5b81356001600160e01b031981168114610c3357600080fd5b9392505050565b6001600160a01b038116811461099057600080fd5b600060208284031215610c6157600080fd5b8135610c3381610c3a565b600060208284031215610c7e57600080fd5b5035919050565b634e487b7160e01b600052604160045260246000fd5b600067ffffffffffffffff80841115610cb657610cb6610c85565b604051601f8501601f19908116603f01168101908282118183101715610cde57610cde610c85565b81604052809350858152868686011115610cf757600080fd5b858560208301376000602087830101525050509392505050565b60008060408385031215610d2457600080fd5b823567ffffffffffffffff80821115610d3c57600080fd5b818501915085601f830112610d5057600080fd5b610d5f86833560208501610c9b565b93506020850135915080821115610d7557600080fd5b508301601f81018513610d8757600080fd5b610d9685823560208401610c9b565b9150509250929050565b60008060408385031215610db357600080fd5b823591506020830135610dc581610c3a565b809150509250929050565b60008060408385031215610de357600080fd5b8235610dee81610c3a565b946020939093013593505050565b600080600060408486031215610e1157600080fd5b8335610e1c81610c3a565b9250602084013567ffffffffffffffff80821115610e3957600080fd5b818601915086601f830112610e4d57600080fd5b813581811115610e5c57600080fd5b876020828501011115610e6e57600080fd5b6020830194508093505050509250925092565b60208082526028908201527f42617365466163746f72793a20617574686f72697a6564207265676973747279604082015267081b9bdd081cd95d60c21b606082015260800190565b6020808252602e908201527f42617365466163746f72793a2063616c6c6572206973206e6f7420617574686f60408201526d72697a656420726567697374727960901b606082015260800190565b6000815180845260005b81811015610f3d57602081850181015186830182015201610f21565b506000602082860101526020601f19601f83011685010191505092915050565b604081526000610f706040830185610f17565b8281036020840152610f828185610f17565b95945050505050565b600060208284031215610f9d57600080fd5b8151610c3381610c3a565b60208152816020820152818360408301376000818301604090810191909152601f909201601f1916010191905056fea49807205ce4d355092ef5a8a18f56e8913cf4a201fbe287825b095693c21775a2646970667358221220dcaa82124241efcd7afc7e5b7046cbff777f7f794d6be738d8191d41231e3ff964736f6c63430008180033a49807205ce4d355092ef5a8a18f56e8913cf4a201fbe287825b095693c21775",
  "linkReferences": {},
  "deployedLinkReferences": {}
}