{
  "_format": "hh-sol-artifact-1",
  "contractName": "WorldFactory",
  "sourceName": "contracts/world/WorldFactory.sol",
  "abi": [
    {
      "inputs": [
        {
          "internalType": "address",
          "name": "mainAdmin",
          "type": "address"
        },
        {
          "internalType": "address[]",
          "name": "admins",
          "type": "address[]"
        }
      ],
      "stateMutability": "nonpayable",
      "type": "constructor"
    },
    {
      "inputs": [],
      "name": "AccessControlBadConfirmation",
      "type": "error"
    },
    {
      "inputs": [
        {
          "internalType": "address",
          "name": "account",
          "type": "address"
        },
        {
          "internalType": "bytes32",
          "name": "neededRole",
          "type": "bytes32"
        }
      ],
      "name": "AccessControlUnauthorizedAccount",
      "type": "error"
    },
    {
      "anonymous": false,
      "inputs": [
        {
          "indexed": true,
          "internalType": "address",
          "name": "oldRegistry",
          "type": "address"
        },
        {
          "indexed": true,
          "internalType": "address",
          "name": "newRegistry",
          "type": "address"
        }
      ],
      "name": "AuthorizedRegistryChanged",
      "type": "event"
    },
    {
      "anonymous": false,
      "inputs": [
        {
          "indexed": true,
          "internalType": "bytes32",
          "name": "role",
          "type": "bytes32"
        },
        {
          "indexed": true,
          "internalType": "bytes32",
          "name": "previousAdminRole",
          "type": "bytes32"
        },
        {
          "indexed": true,
          "internalType": "bytes32",
          "name": "newAdminRole",
          "type": "bytes32"
        }
      ],
      "name": "RoleAdminChanged",
      "type": "event"
    },
    {
      "anonymous": false,
      "inputs": [
        {
          "indexed": true,
          "internalType": "bytes32",
          "name": "role",
          "type": "bytes32"
        },
        {
          "indexed": true,
          "internalType": "address",
          "name": "account",
          "type": "address"
        },
        {
          "indexed": true,
          "internalType": "address",
          "name": "sender",
          "type": "address"
        }
      ],
      "name": "RoleGranted",
      "type": "event"
    },
    {
      "anonymous": false,
      "inputs": [
        {
          "indexed": true,
          "internalType": "bytes32",
          "name": "role",
          "type": "bytes32"
        },
        {
          "indexed": true,
          "internalType": "address",
          "name": "account",
          "type": "address"
        },
        {
          "indexed": true,
          "internalType": "address",
          "name": "sender",
          "type": "address"
        }
      ],
      "name": "RoleRevoked",
      "type": "event"
    },
    {
      "inputs": [],
      "name": "ADMIN_ROLE",
      "outputs": [
        {
          "internalType": "bytes32",
          "name": "",
          "type": "bytes32"
        }
      ],
      "stateMutability": "view",
      "type": "function"
    },
    {
      "inputs": [],
      "name": "DEFAULT_ADMIN_ROLE",
      "outputs": [
        {
          "internalType": "bytes32",
          "name": "",
          "type": "bytes32"
        }
      ],
      "stateMutability": "view",
      "type": "function"
    },
    {
      "inputs": [
        {
          "components": [
            {
              "internalType": "address",
              "name": "registrar",
              "type": "address"
            },
            {
              "internalType": "address",
              "name": "owner",
              "type": "address"
            },
            {
              "components": [
                {
                  "internalType": "string",
                  "name": "x",
                  "type": "string"
                },
                {
                  "internalType": "string",
                  "name": "y",
                  "type": "string"
                },
                {
                  "internalType": "string",
                  "name": "z",
                  "type": "string"
                },
                {
                  "internalType": "uint256",
                  "name": "t",
                  "type": "uint256"
                },
                {
                  "internalType": "uint256",
                  "name": "p",
                  "type": "uint256"
                },
                {
                  "internalType": "uint256",
                  "name": "p_sub",
                  "type": "uint256"
                }
              ],
              "internalType": "struct VectorAddress",
              "name": "baseVector",
              "type": "tuple"
            },
            {
              "internalType": "string",
              "name": "name",
              "type": "string"
            },
            {
              "internalType": "bytes",
              "name": "initData",
              "type": "bytes"
            },
            {
              "internalType": "bytes",
              "name": "vectorAuthoritySignature",
              "type": "bytes"
            },
            {
              "components": [
                {
                  "internalType": "uint256",
                  "name": "fee",
                  "type": "uint256"
                },
                {
                  "internalType": "uint256",
                  "name": "coveragePeriod",
                  "type": "uint256"
                },
                {
                  "internalType": "uint256",
                  "name": "gracePeriod",
                  "type": "uint256"
                }
              ],
              "internalType": "struct RegistrationTerms",
              "name": "companyTerms",
              "type": "tuple"
            },
            {
              "components": [
                {
                  "internalType": "uint256",
                  "name": "fee",
                  "type": "uint256"
                },
                {
                  "internalType": "uint256",
                  "name": "coveragePeriod",
                  "type": "uint256"
                },
                {
                  "internalType": "uint256",
                  "name": "gracePeriod",
                  "type": "uint256"
                }
              ],
              "internalType": "struct RegistrationTerms",
              "name": "avatarTerms",
              "type": "tuple"
            }
          ],
          "internalType": "struct WorldRegistrationRequest",
          "name": "request",
          "type": "tuple"
        }
      ],
      "name": "createWorld",
      "outputs": [
        {
          "internalType": "address",
          "name": "world",
          "type": "address"
        }
      ],
      "stateMutability": "nonpayable",
      "type": "function"
    },
    {
      "inputs": [],
      "name": "getImplementation",
      "outputs": [
        {
          "internalType": "address",
          "name": "",
          "type": "address"
        }
      ],
      "stateMutability": "view",
      "type": "function"
    },
    {
      "inputs": [],
      "name": "getProxyImplementation",
      "outputs": [
        {
          "internalType": "address",
          "name": "",
          "type": "address"
        }
      ],
      "stateMutability": "view",
      "type": "function"
    },
    {
      "inputs": [
        {
          "internalType": "bytes32",
          "name": "role",
          "type": "bytes32"
        }
      ],
      "name": "getRoleAdmin",
      "outputs": [
        {
          "internalType": "bytes32",
          "name": "",
          "type": "bytes32"
        }
      ],
      "stateMutability": "view",
      "type": "function"
    },
    {
      "inputs": [
        {
          "internalType": "bytes32",
          "name": "role",
          "type": "bytes32"
        },
        {
          "internalType": "address",
          "name": "account",
          "type": "address"
        }
      ],
      "name": "grantRole",
      "outputs": [],
      "stateMutability": "nonpayable",
      "type": "function"
    },
    {
      "inputs": [
        {
          "internalType": "bytes32",
          "name": "role",
          "type": "bytes32"
        },
        {
          "internalType": "address",
          "name": "account",
          "type": "address"
        }
      ],
      "name": "hasRole",
      "outputs": [
        {
          "internalType": "bool",
          "name": "",
          "type": "bool"
        }
      ],
      "stateMutability": "view",
      "type": "function"
    },
    {
      "inputs": [
        {
          "internalType": "bytes32",
          "name": "role",
          "type": "bytes32"
        },
        {
          "internalType": "address",
          "name": "callerConfirmation",
          "type": "address"
        }
      ],
      "name": "renounceRole",
      "outputs": [],
      "stateMutability": "nonpayable",
      "type": "function"
    },
    {
      "inputs": [
        {
          "internalType": "bytes32",
          "name": "role",
          "type": "bytes32"
        },
        {
          "internalType": "address",
          "name": "account",
          "type": "address"
        }
      ],
      "name": "revokeRole",
      "outputs": [],
      "stateMutability": "nonpayable",
      "type": "function"
    },
    {
      "inputs": [
        {
          "internalType": "address",
          "name": "_registry",
          "type": "address"
        }
      ],
      "name": "setAuthorizedRegistry",
      "outputs": [],
      "stateMutability": "nonpayable",
      "type": "function"
    },
    {
      "inputs": [
        {
          "internalType": "address",
          "name": "_implementation",
          "type": "address"
        },
        {
          "internalType": "uint256",
          "name": "version",
          "type": "uint256"
        }
      ],
      "name": "setImplementation",
      "outputs": [],
      "stateMutability": "nonpayable",
      "type": "function"
    },
    {
      "inputs": [
        {
          "internalType": "address",
          "name": "_proxyImplementation",
          "type": "address"
        }
      ],
      "name": "setProxyImplementation",
      "outputs": [],
      "stateMutability": "nonpayable",
      "type": "function"
    },
    {
      "inputs": [
        {
          "internalType": "bytes4",
          "name": "interfaceId",
          "type": "bytes4"
        }
      ],
      "name": "supportsInterface",
      "outputs": [
        {
          "internalType": "bool",
          "name": "",
          "type": "bool"
        }
      ],
      "stateMutability": "view",
      "type": "function"
    },
    {
      "inputs": [],
      "name": "supportsVersion",
      "outputs": [
        {
          "internalType": "uint256",
          "name": "",
          "type": "uint256"
        }
      ],
      "stateMutability": "view",
      "type": "function"
    },
    {
      "inputs": [
        {
          "internalType": "address",
          "name": "world",
          "type": "address"
        },
        {
          "internalType": "bytes",
          "name": "initData",
          "type": "bytes"
        }
      ],
      "name": "upgradeWorld",
      "outputs": [],
      "stateMutability": "nonpayable",
      "type": "function"
    }
  ],
  "bytecode": "0x60806040523480156200001157600080fd5b5060405162001744380380620017448339810160408190526200003491620002a6565b81816001600160a01b038216620000a95760405162461bcd60e51b815260206004820152602e60248201527f42617365466163746f72793a206d61696e2061646d696e2063616e6e6f74206260448201526d65207a65726f206164647265737360901b60648201526084015b60405180910390fd5b620000b6600083620001c4565b50620000d26000805160206200172483398151915283620001c4565b5060005b8151811015620001b95760006001600160a01b03168282815181106200010057620001006200038f565b60200260200101516001600160a01b031603620001725760405162461bcd60e51b815260206004820152602960248201527f42617365466163746f72793a2061646d696e2063616e6e6f74206265207a65726044820152686f206164647265737360b81b6064820152608401620000a0565b620001af600080516020620017248339815191528383815181106200019b576200019b6200038f565b6020026020010151620001c460201b60201c565b50600101620000d6565b5050505050620003a5565b6000828152602081815260408083206001600160a01b038516845290915281205460ff1662000269576000838152602081815260408083206001600160a01b03861684529091529020805460ff19166001179055620002203390565b6001600160a01b0316826001600160a01b0316847f2f8788117e7eff1d82e926ec794901d17c78024a50270940304540a733656f0d60405160405180910390a45060016200026d565b5060005b92915050565b80516001600160a01b03811681146200028b57600080fd5b919050565b634e487b7160e01b600052604160045260246000fd5b60008060408385031215620002ba57600080fd5b620002c58362000273565b602084810151919350906001600160401b0380821115620002e557600080fd5b818601915086601f830112620002fa57600080fd5b8151818111156200030f576200030f62000290565b8060051b604051601f19603f8301168101818110858211171562000337576200033762000290565b6040529182528482019250838101850191898311156200035657600080fd5b938501935b828510156200037f576200036f8562000273565b845293850193928501926200035b565b8096505050505050509250929050565b634e487b7160e01b600052603260045260246000fd5b61136f80620003b56000396000f3fe608060405234801561001057600080fd5b50600436106101005760003560e01c80638dcfda6911610097578063a217fddf11610066578063a217fddf14610236578063aaf10f421461023e578063d547741f1461024f578063e921c2751461026257600080fd5b80638dcfda69146101d457806390e4b720146101ff57806391d14854146102105780639fdcd3a41461022357600080fd5b80633033a4e5116100d35780633033a4e51461018657806336568abe14610199578063390b9e3d146101ac57806375b238fc146101bf57600080fd5b806301ffc9a714610105578063090741a01461012d578063248a9ca3146101425780632f2ff15d14610173575b600080fd5b610118610113366004610bf4565b61026b565b60405190151581526020015b60405180910390f35b61014061013b366004610c4a565b6102a2565b005b610165610150366004610c67565b60009081526020819052604090206001015490565b604051908152602001610124565b610140610181366004610c80565b610378565b610140610194366004610cb0565b6103a3565b6101406101a7366004610c80565b610537565b6101406101ba366004610cdc565b61056f565b61016560008051602061131a83398151915281565b6101e76101e2366004610f5f565b61074b565b6040516001600160a01b039091168152602001610124565b6002546001600160a01b03166101e7565b61011861021e366004610c80565b61086c565b610140610231366004610c4a565b610895565b610165600081565b6001546001600160a01b03166101e7565b61014061025d366004610c80565b61094c565b61016560045481565b60006001600160e01b03198216637965db0b60e01b148061029c57506301ffc9a760e01b6001600160e01b03198316145b92915050565b60008051602061131a8339815191526102ba81610971565b6001600160a01b03821661032b5760405162461bcd60e51b815260206004820152602d60248201527f576f726c64466163746f72793a2072656769737472792063616e6e6f7420626560448201526c207a65726f206164647265737360981b60648201526084015b60405180910390fd5b600380546001600160a01b0319166001600160a01b03841690811790915560405181907fc86b12484784843e0f58748ffb8c87f7ee384e04382a190867f3cccc3b6cf97b90600090a35050565b60008281526020819052604090206001015461039381610971565b61039d838361097e565b50505050565b60008051602061131a8339815191526103bb81610971565b6001600160a01b03831661042c5760405162461bcd60e51b815260206004820152603260248201527f42617365466163746f72793a20696d706c656d656e746174696f6e2063616e6e6044820152716f74206265207a65726f206164647265737360701b6064820152608401610322565b60045482116104a35760405162461bcd60e51b815260206004820152603960248201527f42617365466163746f72793a2076657273696f6e206d7573742062652067726560448201527f61746572207468616e2063757272656e742076657273696f6e000000000000006064820152608401610322565b6001546001600160a01b038085169116036105105760405162461bcd60e51b815260206004820152602760248201527f42617365466163746f72793a20696d706c656d656e746174696f6e20616c726560448201526618591e481cd95d60ca1b6064820152608401610322565b50600180546001600160a01b0319166001600160a01b039390931692909217909155600455565b6001600160a01b03811633146105605760405163334bd91960e11b815260040160405180910390fd5b61056a8282610a10565b505050565b6003546001600160a01b03166105975760405162461bcd60e51b815260040161032290611080565b6003546001600160a01b031633146105c15760405162461bcd60e51b8152600401610322906110c8565b6000836001600160a01b031663aaf10f426040518163ffffffff1660e01b8152600401602060405180830381865afa158015610601573d6000803e3d6000fd5b505050506040513d601f19601f820116820180604052508101906106259190611116565b6001549091506001600160a01b03908116908216036106865760405162461bcd60e51b815260206004820152601d60248201527f416c7265616479206f6e20746865206c61746573742076657273696f6e0000006044820152606401610322565b600154604051632663d1f760e01b81526001600160a01b03918216600482015290851690632663d1f790602401600060405180830381600087803b1580156106cd57600080fd5b505af11580156106e1573d6000803e3d6000fd5b5050604051631377d1f560e21b81526001600160a01b0387169250634ddf47d491506107139086908690600401611133565b600060405180830381600087803b15801561072d57600080fd5b505af1158015610741573d6000803e3d6000fd5b5050505050505050565b6003546000906001600160a01b03166107765760405162461bcd60e51b815260040161032290611080565b6003546001600160a01b031633146107a05760405162461bcd60e51b8152600401610322906110c8565b6107a8610a7b565b600154604051639c02006160e01b81526001600160a01b039182166004820152919250821690639c02006190602401600060405180830381600087803b1580156107f157600080fd5b505af1158015610805573d6000803e3d6000fd5b5050604051632d4dec3d60e21b81526001600160a01b038416925063b537b0f4915061083590859060040161121b565b600060405180830381600087803b15801561084f57600080fd5b505af1158015610863573d6000803e3d6000fd5b50505050919050565b6000918252602082815260408084206001600160a01b0393909316845291905290205460ff1690565b60008051602061131a8339815191526108ad81610971565b6001600160a01b0382166109295760405162461bcd60e51b815260206004820152603860248201527f42617365466163746f72793a2070726f787920696d706c656d656e746174696f60448201527f6e2063616e6e6f74206265207a65726f206164647265737300000000000000006064820152608401610322565b50600280546001600160a01b0319166001600160a01b0392909216919091179055565b60008281526020819052604090206001015461096781610971565b61039d8383610a10565b61097b8133610b02565b50565b600061098a838361086c565b610a08576000838152602081815260408083206001600160a01b03861684529091529020805460ff191660011790556109c03390565b6001600160a01b0316826001600160a01b0316847f2f8788117e7eff1d82e926ec794901d17c78024a50270940304540a733656f0d60405160405180910390a450600161029c565b50600061029c565b6000610a1c838361086c565b15610a08576000838152602081815260408083206001600160a01b0386168085529252808320805460ff1916905551339286917ff6391f5c32d9c69d2a47ea670b442974b53935d1edc7fd64eb21e047a839171b9190a450600161029c565b6002546000906001600160a01b0316610ae85760405162461bcd60e51b815260206004820152602960248201527f42617365466163746f72793a2070726f787920696d706c656d656e746174696f6044820152681b881b9bdd081cd95d60ba1b6064820152608401610322565b600254610afd906001600160a01b0316610b3f565b905090565b610b0c828261086c565b610b3b5760405163e2517d3f60e01b81526001600160a01b038216600482015260248101839052604401610322565b5050565b60006001600160a01b038216610ba35760405162461bcd60e51b815260206004820152602360248201527f42617365466163746f72793a20696d706c656d656e746174696f6e206e6f74206044820152621cd95d60ea1b6064820152608401610322565b60008260601b9050604051733d602d80600a3d3981f3363d3d373d3d3d363d7360601b81528160148201526e5af43d82803e903d91602b57fd5bf360881b60288201526037816000f0949350505050565b600060208284031215610c0657600080fd5b81356001600160e01b031981168114610c1e57600080fd5b9392505050565b6001600160a01b038116811461097b57600080fd5b8035610c4581610c25565b919050565b600060208284031215610c5c57600080fd5b8135610c1e81610c25565b600060208284031215610c7957600080fd5b5035919050565b60008060408385031215610c9357600080fd5b823591506020830135610ca581610c25565b809150509250929050565b60008060408385031215610cc357600080fd5b8235610cce81610c25565b946020939093013593505050565b600080600060408486031215610cf157600080fd5b8335610cfc81610c25565b9250602084013567ffffffffffffffff80821115610d1957600080fd5b818601915086601f830112610d2d57600080fd5b813581811115610d3c57600080fd5b876020828501011115610d4e57600080fd5b6020830194508093505050509250925092565b634e487b7160e01b600052604160045260246000fd5b60405160c0810167ffffffffffffffff81118282101715610d9a57610d9a610d61565b60405290565b604051610100810167ffffffffffffffff81118282101715610d9a57610d9a610d61565b600082601f830112610dd557600080fd5b813567ffffffffffffffff80821115610df057610df0610d61565b604051601f8301601f19908116603f01168101908282118183101715610e1857610e18610d61565b81604052838152866020858801011115610e3157600080fd5b836020870160208301376000602085830101528094505050505092915050565b600060c08284031215610e6357600080fd5b610e6b610d77565b9050813567ffffffffffffffff80821115610e8557600080fd5b610e9185838601610dc4565b83526020840135915080821115610ea757600080fd5b610eb385838601610dc4565b60208401526040840135915080821115610ecc57600080fd5b50610ed984828501610dc4565b604083015250606082013560608201526080820135608082015260a082013560a082015292915050565b600060608284031215610f1557600080fd5b6040516060810181811067ffffffffffffffff82111715610f3857610f38610d61565b80604052508091508235815260208301356020820152604083013560408201525092915050565b600060208284031215610f7157600080fd5b813567ffffffffffffffff80821115610f8957600080fd5b908301906101808286031215610f9e57600080fd5b610fa6610da0565b610faf83610c3a565b8152610fbd60208401610c3a565b6020820152604083013582811115610fd457600080fd5b610fe087828601610e51565b604083015250606083013582811115610ff857600080fd5b61100487828601610dc4565b60608301525060808301358281111561101c57600080fd5b61102887828601610dc4565b60808301525060a08301358281111561104057600080fd5b61104c87828601610dc4565b60a08301525061105f8660c08501610f03565b60c0820152611072866101208501610f03565b60e082015295945050505050565b60208082526028908201527f42617365466163746f72793a20617574686f72697a6564207265676973747279604082015267081b9bdd081cd95d60c21b606082015260800190565b6020808252602e908201527f42617365466163746f72793a2063616c6c6572206973206e6f7420617574686f60408201526d72697a656420726567697374727960901b606082015260800190565b60006020828403121561112857600080fd5b8151610c1e81610c25565b60208152816020820152818360408301376000818301604090810191909152601f909201601f19160101919050565b6000815180845260005b818110156111885760208185018101518683018201520161116c565b506000602082860101526020601f19601f83011685010191505092915050565b6000815160c084526111bd60c0850182611162565b9050602083015184820360208601526111d68282611162565b915050604083015184820360408601526111f08282611162565b915050606083015160608501526080830151608085015260a083015160a08501528091505092915050565b602081526112356020820183516001600160a01b03169052565b6000602083015161125160408401826001600160a01b03169052565b506040830151610180606084015261126d6101a08401826111a8565b90506060840151601f198085840301608086015261128b8383611162565b925060808601519150808584030160a08601526112a88383611162565b925060a08601519150808584030160c0860152506112c68282611162565b60c0860151805160e08701526020810151610100870152604081015161012087015290925090505060e084015180516101408501526020810151610160850152604081015161018085015250939250505056fea49807205ce4d355092ef5a8a18f56e8913cf4a201fbe287825b095693c21775a2646970667358221220a485075c97c29ac5f9ac7c9a290ab86d8280ca40ef5623a346562aed0827fa7764736f6c63430008180033a49807205ce4d355092ef5a8a18f56e8913cf4a201fbe287825b095693c21775",
  "linkReferences": {},
  "deployedLinkReferences": {}
}