{
  "_format": "hh-sol-artifact-1",
  "contractName": "WorldRegistry",
  "sourceName": "contracts/world/WorldRegistry.sol",
  "abi": [
    {
      "inputs": [
        {
          "components": [
            {
              "internalType": "address",
              "name": "vectorAuthority",
              "type": "address"
            },
            {
              "internalType": "address",
              "name": "worldFactory",
              "type": "address"
            },
            {
              "internalType": "address",
              "name": "registrarRegistry",
              "type": "address"
            },
            {
              "internalType": "address",
              "name": "defaultAdmin",
              "type": "address"
            },
            {
              "internalType": "address[]",
              "name": "otherAdmins",
              "type": "address[]"
            }
          ],
          "internalType": "struct WorldRegistryContructorArgs",
          "name": "args",
          "type": "tuple"
        }
      ],
      "stateMutability": "nonpayable",
      "type": "constructor"
    },
    {
      "inputs": [],
      "name": "AccessControlBadConfirmation",
      "type": "error"
    },
    {
      "inputs": [
        {
          "internalType": "address",
          "name": "account",
          "type": "address"
        },
        {
          "internalType": "bytes32",
          "name": "neededRole",
          "type": "bytes32"
        }
      ],
      "name": "AccessControlUnauthorizedAccount",
      "type": "error"
    },
    {
      "inputs": [],
      "name": "ECDSAInvalidSignature",
      "type": "error"
    },
    {
      "inputs": [
        {
          "internalType": "uint256",
          "name": "length",
          "type": "uint256"
        }
      ],
      "name": "ECDSAInvalidSignatureLength",
      "type": "error"
    },
    {
      "inputs": [
        {
          "internalType": "bytes32",
          "name": "s",
          "type": "bytes32"
        }
      ],
      "name": "ECDSAInvalidSignatureS",
      "type": "error"
    },
    {
      "inputs": [],
      "name": "ReentrancyGuardReentrantCall",
      "type": "error"
    },
    {
      "anonymous": false,
      "inputs": [
        {
          "indexed": true,
          "internalType": "address",
          "name": "world",
          "type": "address"
        },
        {
          "indexed": true,
          "internalType": "address",
          "name": "oldRegistrar",
          "type": "address"
        },
        {
          "indexed": true,
          "internalType": "address",
          "name": "newRegistrar",
          "type": "address"
        }
      ],
      "name": "RegistryChangedWorldRegistrar",
      "type": "event"
    },
    {
      "anonymous": false,
      "inputs": [
        {
          "indexed": true,
          "internalType": "address",
          "name": "world",
          "type": "address"
        },
        {
          "indexed": true,
          "internalType": "address",
          "name": "registrar",
          "type": "address"
        }
      ],
      "name": "RegistryDeactivatedWorld",
      "type": "event"
    },
    {
      "anonymous": false,
      "inputs": [
        {
          "indexed": true,
          "internalType": "address",
          "name": "world",
          "type": "address"
        },
        {
          "indexed": true,
          "internalType": "address",
          "name": "registrar",
          "type": "address"
        }
      ],
      "name": "RegistryReactivatedWorld",
      "type": "event"
    },
    {
      "anonymous": false,
      "inputs": [
        {
          "indexed": true,
          "internalType": "address",
          "name": "world",
          "type": "address"
        },
        {
          "indexed": true,
          "internalType": "address",
          "name": "registrar",
          "type": "address"
        }
      ],
      "name": "RegistryRemovedWorld",
      "type": "event"
    },
    {
      "anonymous": false,
      "inputs": [
        {
          "indexed": true,
          "internalType": "bytes32",
          "name": "role",
          "type": "bytes32"
        },
        {
          "indexed": true,
          "internalType": "bytes32",
          "name": "previousAdminRole",
          "type": "bytes32"
        },
        {
          "indexed": true,
          "internalType": "bytes32",
          "name": "newAdminRole",
          "type": "bytes32"
        }
      ],
      "name": "RoleAdminChanged",
      "type": "event"
    },
    {
      "anonymous": false,
      "inputs": [
        {
          "indexed": true,
          "internalType": "bytes32",
          "name": "role",
          "type": "bytes32"
        },
        {
          "indexed": true,
          "internalType": "address",
          "name": "account",
          "type": "address"
        },
        {
          "indexed": true,
          "internalType": "address",
          "name": "sender",
          "type": "address"
        }
      ],
      "name": "RoleGranted",
      "type": "event"
    },
    {
      "anonymous": false,
      "inputs": [
        {
          "indexed": true,
          "internalType": "bytes32",
          "name": "role",
          "type": "bytes32"
        },
        {
          "indexed": true,
          "internalType": "address",
          "name": "account",
          "type": "address"
        },
        {
          "indexed": true,
          "internalType": "address",
          "name": "sender",
          "type": "address"
        }
      ],
      "name": "RoleRevoked",
      "type": "event"
    },
    {
      "anonymous": false,
      "inputs": [
        {
          "indexed": true,
          "internalType": "address",
          "name": "authority",
          "type": "address"
        }
      ],
      "name": "VectorAddressAuthorityAdded",
      "type": "event"
    },
    {
      "anonymous": false,
      "inputs": [
        {
          "indexed": true,
          "internalType": "address",
          "name": "authority",
          "type": "address"
        }
      ],
      "name": "VectorAddressAuthorityRemoved",
      "type": "event"
    },
    {
      "anonymous": false,
      "inputs": [
        {
          "indexed": true,
          "internalType": "address",
          "name": "world",
          "type": "address"
        },
        {
          "indexed": true,
          "internalType": "address",
          "name": "owner",
          "type": "address"
        },
        {
          "components": [
            {
              "internalType": "string",
              "name": "x",
              "type": "string"
            },
            {
              "internalType": "string",
              "name": "y",
              "type": "string"
            },
            {
              "internalType": "string",
              "name": "z",
              "type": "string"
            },
            {
              "internalType": "uint256",
              "name": "t",
              "type": "uint256"
            },
            {
              "internalType": "uint256",
              "name": "p",
              "type": "uint256"
            },
            {
              "internalType": "uint256",
              "name": "p_sub",
              "type": "uint256"
            }
          ],
          "indexed": false,
          "internalType": "struct VectorAddress",
          "name": "vectorAddress",
          "type": "tuple"
        }
      ],
      "name": "WorldRegistered",
      "type": "event"
    },
    {
      "inputs": [],
      "name": "ADMIN_ROLE",
      "outputs": [
        {
          "internalType": "bytes32",
          "name": "",
          "type": "bytes32"
        }
      ],
      "stateMutability": "view",
      "type": "function"
    },
    {
      "inputs": [],
      "name": "DEFAULT_ADMIN_ROLE",
      "outputs": [
        {
          "internalType": "bytes32",
          "name": "",
          "type": "bytes32"
        }
      ],
      "stateMutability": "view",
      "type": "function"
    },
    {
      "inputs": [],
      "name": "VECTOR_AUTHORITY_ROLE",
      "outputs": [
        {
          "internalType": "bytes32",
          "name": "",
          "type": "bytes32"
        }
      ],
      "stateMutability": "view",
      "type": "function"
    },
    {
      "inputs": [
        {
          "internalType": "address",
          "name": "auth",
          "type": "address"
        }
      ],
      "name": "addVectorAddressAuthority",
      "outputs": [],
      "stateMutability": "nonpayable",
      "type": "function"
    },
    {
      "inputs": [],
      "name": "currentWorldVersion",
      "outputs": [
        {
          "internalType": "uint256",
          "name": "",
          "type": "uint256"
        }
      ],
      "stateMutability": "view",
      "type": "function"
    },
    {
      "inputs": [
        {
          "internalType": "address",
          "name": "world",
          "type": "address"
        }
      ],
      "name": "deactivateWorld",
      "outputs": [],
      "stateMutability": "nonpayable",
      "type": "function"
    },
    {
      "inputs": [
        {
          "internalType": "bytes32",
          "name": "role",
          "type": "bytes32"
        }
      ],
      "name": "getRoleAdmin",
      "outputs": [
        {
          "internalType": "bytes32",
          "name": "",
          "type": "bytes32"
        }
      ],
      "stateMutability": "view",
      "type": "function"
    },
    {
      "inputs": [
        {
          "internalType": "string",
          "name": "name",
          "type": "string"
        }
      ],
      "name": "getWorldByName",
      "outputs": [
        {
          "internalType": "address",
          "name": "",
          "type": "address"
        }
      ],
      "stateMutability": "view",
      "type": "function"
    },
    {
      "inputs": [
        {
          "internalType": "bytes32",
          "name": "role",
          "type": "bytes32"
        },
        {
          "internalType": "address",
          "name": "account",
          "type": "address"
        }
      ],
      "name": "grantRole",
      "outputs": [],
      "stateMutability": "nonpayable",
      "type": "function"
    },
    {
      "inputs": [
        {
          "internalType": "bytes32",
          "name": "role",
          "type": "bytes32"
        },
        {
          "internalType": "address",
          "name": "account",
          "type": "address"
        }
      ],
      "name": "hasRole",
      "outputs": [
        {
          "internalType": "bool",
          "name": "",
          "type": "bool"
        }
      ],
      "stateMutability": "view",
      "type": "function"
    },
    {
      "inputs": [
        {
          "internalType": "address",
          "name": "auth",
          "type": "address"
        }
      ],
      "name": "isVectorAddressAuthority",
      "outputs": [
        {
          "internalType": "bool",
          "name": "",
          "type": "bool"
        }
      ],
      "stateMutability": "view",
      "type": "function"
    },
    {
      "inputs": [
        {
          "internalType": "address",
          "name": "world",
          "type": "address"
        }
      ],
      "name": "isWorld",
      "outputs": [
        {
          "internalType": "bool",
          "name": "",
          "type": "bool"
        }
      ],
      "stateMutability": "view",
      "type": "function"
    },
    {
      "inputs": [
        {
          "internalType": "address",
          "name": "world",
          "type": "address"
        }
      ],
      "name": "reactivateWorld",
      "outputs": [],
      "stateMutability": "nonpayable",
      "type": "function"
    },
    {
      "inputs": [
        {
          "components": [
            {
              "internalType": "address",
              "name": "registrar",
              "type": "address"
            },
            {
              "internalType": "address",
              "name": "owner",
              "type": "address"
            },
            {
              "components": [
                {
                  "internalType": "string",
                  "name": "x",
                  "type": "string"
                },
                {
                  "internalType": "string",
                  "name": "y",
                  "type": "string"
                },
                {
                  "internalType": "string",
                  "name": "z",
                  "type": "string"
                },
                {
                  "internalType": "uint256",
                  "name": "t",
                  "type": "uint256"
                },
                {
                  "internalType": "uint256",
                  "name": "p",
                  "type": "uint256"
                },
                {
                  "internalType": "uint256",
                  "name": "p_sub",
                  "type": "uint256"
                }
              ],
              "internalType": "struct VectorAddress",
              "name": "baseVector",
              "type": "tuple"
            },
            {
              "internalType": "string",
              "name": "name",
              "type": "string"
            },
            {
              "internalType": "bytes",
              "name": "initData",
              "type": "bytes"
            },
            {
              "internalType": "bytes",
              "name": "vectorAuthoritySignature",
              "type": "bytes"
            },
            {
              "components": [
                {
                  "internalType": "uint256",
                  "name": "fee",
                  "type": "uint256"
                },
                {
                  "internalType": "uint256",
                  "name": "coveragePeriod",
                  "type": "uint256"
                },
                {
                  "internalType": "uint256",
                  "name": "gracePeriod",
                  "type": "uint256"
                }
              ],
              "internalType": "struct RegistrationTerms",
              "name": "companyTerms",
              "type": "tuple"
            },
            {
              "components": [
                {
                  "internalType": "uint256",
                  "name": "fee",
                  "type": "uint256"
                },
                {
                  "internalType": "uint256",
                  "name": "coveragePeriod",
                  "type": "uint256"
                },
                {
                  "internalType": "uint256",
                  "name": "gracePeriod",
                  "type": "uint256"
                }
              ],
              "internalType": "struct RegistrationTerms",
              "name": "avatarTerms",
              "type": "tuple"
            }
          ],
          "internalType": "struct WorldRegistrationRequest",
          "name": "request",
          "type": "tuple"
        }
      ],
      "name": "register",
      "outputs": [
        {
          "internalType": "address",
          "name": "",
          "type": "address"
        }
      ],
      "stateMutability": "payable",
      "type": "function"
    },
    {
      "inputs": [],
      "name": "registrarRegistry",
      "outputs": [
        {
          "internalType": "contract IRegistrarRegistry",
          "name": "",
          "type": "address"
        }
      ],
      "stateMutability": "view",
      "type": "function"
    },
    {
      "inputs": [
        {
          "internalType": "address",
          "name": "auth",
          "type": "address"
        }
      ],
      "name": "removeVectorAddressAuthority",
      "outputs": [],
      "stateMutability": "nonpayable",
      "type": "function"
    },
    {
      "inputs": [
        {
          "internalType": "address",
          "name": "world",
          "type": "address"
        }
      ],
      "name": "removeWorld",
      "outputs": [],
      "stateMutability": "nonpayable",
      "type": "function"
    },
    {
      "inputs": [
        {
          "internalType": "bytes32",
          "name": "role",
          "type": "bytes32"
        },
        {
          "internalType": "address",
          "name": "callerConfirmation",
          "type": "address"
        }
      ],
      "name": "renounceRole",
      "outputs": [],
      "stateMutability": "nonpayable",
      "type": "function"
    },
    {
      "inputs": [
        {
          "internalType": "bytes32",
          "name": "role",
          "type": "bytes32"
        },
        {
          "internalType": "address",
          "name": "account",
          "type": "address"
        }
      ],
      "name": "revokeRole",
      "outputs": [],
      "stateMutability": "nonpayable",
      "type": "function"
    },
    {
      "inputs": [
        {
          "internalType": "address",
          "name": "factory",
          "type": "address"
        }
      ],
      "name": "setWorldFactory",
      "outputs": [],
      "stateMutability": "nonpayable",
      "type": "function"
    },
    {
      "inputs": [
        {
          "internalType": "bytes4",
          "name": "interfaceId",
          "type": "bytes4"
        }
      ],
      "name": "supportsInterface",
      "outputs": [
        {
          "internalType": "bool",
          "name": "",
          "type": "bool"
        }
      ],
      "stateMutability": "view",
      "type": "function"
    },
    {
      "inputs": [
        {
          "internalType": "bytes",
          "name": "initData",
          "type": "bytes"
        }
      ],
      "name": "upgradeWorld",
      "outputs": [],
      "stateMutability": "nonpayable",
      "type": "function"
    },
    {
      "inputs": [],
      "name": "vectorAuthority",
      "outputs": [
        {
          "internalType": "address",
          "name": "",
          "type": "address"
        }
      ],
      "stateMutability": "view",
      "type": "function"
    },
    {
      "inputs": [],
      "name": "worldFactory",
      "outputs": [
        {
          "internalType": "contract IWorldFactory",
          "name": "",
          "type": "address"
        }
      ],
      "stateMutability": "view",
      "type": "function"
    }
  ],
  "bytecode": "0x60806040523480156200001157600080fd5b50604051620030f0380380620030f0833981016040819052620000349162000505565b600160005580516001600160a01b0316620000ae5760405162461bcd60e51b815260206004820152602f60248201527f576f726c645265676973747279305f323a20766563746f72417574686f72697460448201526e0792063616e6e6f742062652030783608c1b60648201526084015b60405180910390fd5b60208101516001600160a01b03166200011f5760405162461bcd60e51b815260206004820152602c60248201527f576f726c645265676973747279305f323a20776f726c64466163746f7279206360448201526b0616e6e6f74206265203078360a41b6064820152608401620000a5565b60608101516001600160a01b0316620001905760405162461bcd60e51b815260206004820152602c60248201527f576f726c645265676973747279305f323a2064656661756c7441646d696e206360448201526b0616e6e6f74206265203078360a41b6064820152608401620000a5565b60408101516001600160a01b0316620002065760405162461bcd60e51b815260206004820152603160248201527f576f726c645265676973747279305f323a20726567697374726172526567697360448201527007472792063616e6e6f742062652030783607c1b6064820152608401620000a5565b8051600280546001600160a01b039283166001600160a01b03199182161790915560208301516004805491841691831691909117905560408301516003805491909316911617905560608101516200026190600090620003dd565b5062000287600080516020620030d08339815191528260600151620003dd60201b60201c565b508051620002b7907f2758c8c5d77b29e60fffbf4a2bcb0fc98a947bd2a0dead06fdc32cd3cef1168d90620003dd565b506060810151600580546001600160a01b0319166001600160a01b0390921691909117905560005b816080015151811015620003d55760006001600160a01b0316826080015182815181106200031157620003116200063b565b60200260200101516001600160a01b0316036200038a5760405162461bcd60e51b815260206004820152603060248201527f576f726c645265676973747279305f323a206f7468657241646d696e7320636160448201526f06e6e6f7420636f6e7461696e203078360841b6064820152608401620000a5565b620003cb600080516020620030d083398151915283608001518381518110620003b757620003b76200063b565b6020026020010151620003dd60201b60201c565b50600101620002df565b505062000651565b60008281526001602090815260408083206001600160a01b038516845290915281205460ff166200046a5760008381526001602081815260408084206001600160a01b0387168086529252808420805460ff19169093179092559051339286917f2f8788117e7eff1d82e926ec794901d17c78024a50270940304540a733656f0d9190a45060016200046e565b5060005b92915050565b634e487b7160e01b600052604160045260246000fd5b60405160a081016001600160401b0381118282101715620004af57620004af62000474565b60405290565b604051601f8201601f191681016001600160401b0381118282101715620004e057620004e062000474565b604052919050565b80516001600160a01b03811681146200050057600080fd5b919050565b600060208083850312156200051957600080fd5b82516001600160401b03808211156200053157600080fd5b9084019060a082870312156200054657600080fd5b620005506200048a565b6200055b83620004e8565b81526200056a848401620004e8565b848201526200057c60408401620004e8565b60408201526200058f60608401620004e8565b6060820152608083015182811115620005a757600080fd5b80840193505086601f840112620005bd57600080fd5b825182811115620005d257620005d262000474565b8060051b9250620005e5858401620004b5565b81815292840185019285810190898511156200060057600080fd5b948601945b8486101562000629576200061986620004e8565b8252948601949086019062000605565b60808401525090979650505050505050565b634e487b7160e01b600052603260045260246000fd5b612a6f80620006616000396000f3fe60806040526004361061014b5760003560e01c806375b238fc116100b6578063d547741f1161006f578063d547741f146103bf578063db8d7466146103df578063dbdc4e62146103ff578063e3ffb4bf1461041f578063f0ad0f3e1461043f578063f61ddc0e1461047857600080fd5b806375b238fc1461030857806391d148541461032a578063935cceec1461034a578063968638df1461036a578063a217fddf1461038a578063b7722c7f1461039f57600080fd5b80632f2ff15d116101085780632f2ff15d1461024657806336568abe1461026657806337959c2d1461028657806368f52a97146102a85780636d80bf31146102c85780636e467f27146102e857600080fd5b806301ffc9a7146101505780630c743051146101855780630dc3897d146101a8578063248a9ca3146101e057806324a6c53214610211578063286e5b6014610233575b600080fd5b34801561015c57600080fd5b5061017061016b366004611f1c565b610498565b60405190151581526020015b60405180910390f35b34801561019157600080fd5b5061019a6104cf565b60405190815260200161017c565b3480156101b457600080fd5b506004546101c8906001600160a01b031681565b6040516001600160a01b03909116815260200161017c565b3480156101ec57600080fd5b5061019a6101fb366004611f4d565b6000908152600160208190526040909120015490565b34801561021d57600080fd5b5061023161022c366004611f86565b61054d565b005b6101c86102413660046121c3565b610901565b34801561025257600080fd5b506102316102613660046122e4565b610f14565b34801561027257600080fd5b506102316102813660046122e4565b610f40565b34801561029257600080fd5b5061019a6000805160206129fa83398151915281565b3480156102b457600080fd5b506102316102c3366004611f86565b610f78565b3480156102d457600080fd5b506101706102e3366004611f86565b611034565b3480156102f457600080fd5b50610231610303366004611f86565b61104e565b34801561031457600080fd5b5061019a600080516020612a1a83398151915281565b34801561033657600080fd5b506101706103453660046122e4565b611366565b34801561035657600080fd5b50610231610365366004612314565b611391565b34801561037657600080fd5b506002546101c8906001600160a01b031681565b34801561039657600080fd5b5061019a600081565b3480156103ab57600080fd5b506101c86103ba366004612386565b611481565b3480156103cb57600080fd5b506102316103da3660046122e4565b6114ba565b3480156103eb57600080fd5b506102316103fa366004611f86565b6114e0565b34801561040b57600080fd5b506003546101c8906001600160a01b031681565b34801561042b57600080fd5b5061023161043a366004611f86565b611552565b34801561044b57600080fd5b5061017061045a366004611f86565b6001600160a01b031660009081526007602052604090205460ff1690565b34801561048457600080fd5b50610231610493366004611f86565b6115c4565b60006001600160e01b03198216637965db0b60e01b14806104c957506301ffc9a760e01b6001600160e01b03198316145b92915050565b6000600460009054906101000a90046001600160a01b03166001600160a01b031663e921c2756040518163ffffffff1660e01b8152600401602060405180830381865afa158015610524573d6000803e3d6000fd5b505050506040513d601f19601f8201168201806040525081019061054891906123c3565b905090565b60035460405163d5db72eb60e01b81523360048201526001600160a01b039091169063d5db72eb90602401602060405180830381865afa158015610595573d6000803e3d6000fd5b505050506040513d601f19601f820116820180604052508101906105b991906123dc565b6105de5760405162461bcd60e51b81526004016105d5906123fe565b60405180910390fd5b6001600160a01b03811660009081526007602052604090205460ff166106165760405162461bcd60e51b81526004016105d59061244f565b6000819050336001600160a01b0316816001600160a01b0316632b20e3976040518163ffffffff1660e01b8152600401602060405180830381865afa158015610663573d6000803e3d6000fd5b505050506040513d601f19601f82011682018060405250810190610687919061249b565b6001600160a01b0316146106ad5760405162461bcd60e51b81526004016105d5906124b8565b806001600160a01b03166322f3e2d46040518163ffffffff1660e01b8152600401602060405180830381865afa1580156106eb573d6000803e3d6000fd5b505050506040513d601f19601f8201168201806040525081019061070f91906123dc565b156107665760405162461bcd60e51b815260206004820152602160248201527f576f726c645265676973747279305f323a20776f726c642069732061637469766044820152606560f81b60648201526084016105d5565b60006107d6826001600160a01b03166317d7de7c6040518163ffffffff1660e01b8152600401600060405180830381865afa1580156107a9573d6000803e3d6000fd5b505050506040513d6000823e601f3d908101601f191682016040526107d19190810190612539565b611876565b9050826001600160a01b03166006826040516107f291906125b0565b908152604051908190036020019020546001600160a01b0316146108285760405162461bcd60e51b81526004016105d5906125cc565b816001600160a01b03166351b42b006040518163ffffffff1660e01b8152600401600060405180830381600087803b15801561086357600080fd5b505af1158015610877573d6000803e3d6000fd5b5050506001600160a01b03841660009081526007602052604090819020805460ff1916905551600691506108ac9083906125b0565b90815260405190819003602001812080546001600160a01b031916905533906001600160a01b038516907f1f460f57cbc3f118dc17db1ccc15eeb9c6e39956bff40965b7631bb25a6d4b7990600090a3505050565b60035460405163d5db72eb60e01b81523360048201526000916001600160a01b03169063d5db72eb90602401602060405180830381865afa15801561094a573d6000803e3d6000fd5b505050506040513d601f19601f8201168201806040525081019061096e91906123dc565b61098a5760405162461bcd60e51b81526004016105d5906123fe565b6109926118e6565b60006109a18360600151611876565b905060006001600160a01b03166006826040516109be91906125b0565b908152604051908190036020019020546001600160a01b031614610a325760405162461bcd60e51b815260206004820152602560248201527f576f726c645265676973747279305f323a206e616d6520616c726561647920696044820152646e2075736560d81b60648201526084016105d5565b6000610a51338560a0015186604001516119109092919063ffffffff16565b9050610a6b6000805160206129fa83398151915282611366565b610aed5760405162461bcd60e51b815260206004820152604760248201527f576f726c645265676973747279305f323a20766563746f72207369676e65722060448201527f6973206e6f7420612076616c696420766563746f72206164647265737320617560648201526674686f7269747960c81b608482015260a4016105d5565b60408401515151600003610b595760405162461bcd60e51b815260206004820152602d60248201527f576f726c645265676973747279305f323a2062617365566563746f722e78206360448201526c616e6e6f74206265207a65726f60981b60648201526084016105d5565b83604001516020015151600003610bc85760405162461bcd60e51b815260206004820152602d60248201527f576f726c645265676973747279305f323a2062617365566563746f722e79206360448201526c616e6e6f74206265207a65726f60981b60648201526084016105d5565b83604001516040015151600003610c375760405162461bcd60e51b815260206004820152602d60248201527f576f726c645265676973747279305f323a2062617365566563746f722e7a206360448201526c616e6e6f74206265207a65726f60981b60648201526084016105d5565b6040805160c081018252858201805151825280516020908101519083015280518301519282019290925290516060908101519082015260006080820181905260a08201819052610c8682611998565b8051602091820120600081815260089092526040909120549091506001600160a01b031615610d075760405162461bcd60e51b815260206004820152602760248201527f576f726c645265676973747279305f323a20766563746f7220616c726561647960448201526620696e2075736560c81b60648201526084016105d5565b6000600460009054906101000a90046001600160a01b03166001600160a01b0316638dcfda69604051806101000160405280336001600160a01b031681526020018a602001516001600160a01b031681526020018681526020018881526020018a6080015181526020018a60a0015181526020018a60c0015181526020018a60e001518152506040518263ffffffff1660e01b8152600401610da991906126c8565b6020604051808303816000875af1158015610dc8573d6000803e3d6000fd5b505050506040513d601f19601f82011682018060405250810190610dec919061249b565b90506001600160a01b038116610e545760405162461bcd60e51b815260206004820152602760248201527f576f726c645265676973747279305f323a20776f726c64206372656174696f6e6044820152660819985a5b195960ca1b60648201526084016105d5565b80600686604051610e6591906125b0565b90815260408051918290036020908101832080546001600160a01b039586166001600160a01b031991821617909155858516600081815260078452848120805460ff1916600117905588815260088452939093208054909116831790558a015190921691907fee32bdf3024960eab0cc65f92f4ab288808ff5501b8132b269630d3fa070005e90610ef79087906127c3565b60405180910390a3945050505050610f0f6001600055565b919050565b60008281526001602081905260409091200154610f30816119fb565b610f3a8383611a08565b50505050565b6001600160a01b0381163314610f695760405163334bd91960e11b815260040160405180910390fd5b610f738282611a81565b505050565b610f90600080516020612a1a83398151915233611366565b610fac5760405162461bcd60e51b81526004016105d5906127d6565b6001600160a01b0381166110125760405162461bcd60e51b815260206004820152602760248201527f576f726c645265676973747279305f323a20666163746f72792063616e6e6f746044820152660206265203078360cc1b60648201526084016105d5565b600480546001600160a01b0319166001600160a01b0392909216919091179055565b60006104c96000805160206129fa83398151915283611366565b60035460405163d5db72eb60e01b81523360048201526001600160a01b039091169063d5db72eb90602401602060405180830381865afa158015611096573d6000803e3d6000fd5b505050506040513d601f19601f820116820180604052508101906110ba91906123dc565b6110d65760405162461bcd60e51b81526004016105d5906123fe565b6000819050336001600160a01b0316816001600160a01b0316632b20e3976040518163ffffffff1660e01b8152600401602060405180830381865afa158015611123573d6000803e3d6000fd5b505050506040513d601f19601f82011682018060405250810190611147919061249b565b6001600160a01b03161461116d5760405162461bcd60e51b81526004016105d5906124b8565b806001600160a01b03166322f3e2d46040518163ffffffff1660e01b8152600401602060405180830381865afa1580156111ab573d6000803e3d6000fd5b505050506040513d601f19601f820116820180604052508101906111cf91906123dc565b1561122e5760405162461bcd60e51b815260206004820152602960248201527f576f726c645265676973747279305f323a20776f726c6420697320616c72656160448201526864792061637469766560b81b60648201526084016105d5565b6000611271826001600160a01b03166317d7de7c6040518163ffffffff1660e01b8152600401600060405180830381865afa1580156107a9573d6000803e3d6000fd5b9050826001600160a01b031660068260405161128d91906125b0565b908152604051908190036020019020546001600160a01b0316146112c35760405162461bcd60e51b81526004016105d5906125cc565b816001600160a01b031663d18611d66040518163ffffffff1660e01b8152600401600060405180830381600087803b1580156112fe57600080fd5b505af1158015611312573d6000803e3d6000fd5b5050506001600160a01b038416600081815260076020526040808220805460ff19166001179055513393507f168b87da6b670abb20b43873489bca1d39f002039a31ad31c8d8c70cb2b0514e9190a3505050565b60009182526001602090815260408084206001600160a01b0393909316845291905290205460ff1690565b3360009081526007602052604090205460ff166114065760405162461bcd60e51b815260206004820152602d60248201527f576f726c645265676973747279305f323a2063616c6c6572206973206e6f742060448201526c18481d985b1a590815dbdc9b19609a1b60648201526084016105d5565b61140e6118e6565b6004805460405163390b9e3d60e01b81526001600160a01b039091169163390b9e3d91611441913391879187910161281e565b600060405180830381600087803b15801561145b57600080fd5b505af115801561146f573d6000803e3d6000fd5b5050505061147d6001600055565b5050565b6000600661148e83611876565b60405161149b91906125b0565b908152604051908190036020019020546001600160a01b031692915050565b600082815260016020819052604090912001546114d6816119fb565b610f3a8383611a81565b6114f8600080516020612a1a83398151915233611366565b6115145760405162461bcd60e51b81526004016105d5906127d6565b6001600160a01b03811661153a5760405162461bcd60e51b81526004016105d59061285e565b61147d6000805160206129fa83398151915282611a08565b61156a600080516020612a1a83398151915233611366565b6115865760405162461bcd60e51b81526004016105d5906127d6565b6001600160a01b0381166115ac5760405162461bcd60e51b81526004016105d59061285e565b61147d6000805160206129fa83398151915282611a81565b60035460405163d5db72eb60e01b81523360048201526001600160a01b039091169063d5db72eb90602401602060405180830381865afa15801561160c573d6000803e3d6000fd5b505050506040513d601f19601f8201168201806040525081019061163091906123dc565b61164c5760405162461bcd60e51b81526004016105d5906123fe565b6001600160a01b03811660009081526007602052604090205460ff166116845760405162461bcd60e51b81526004016105d59061244f565b6000819050806001600160a01b03166322f3e2d46040518163ffffffff1660e01b8152600401602060405180830381865afa1580156116c7573d6000803e3d6000fd5b505050506040513d601f19601f820116820180604052508101906116eb91906123dc565b6117455760405162461bcd60e51b815260206004820152602560248201527f576f726c645265676973747279305f323a20776f726c64206973206e6f742061604482015264637469766560d81b60648201526084016105d5565b336001600160a01b0316816001600160a01b0316632b20e3976040518163ffffffff1660e01b8152600401602060405180830381865afa15801561178d573d6000803e3d6000fd5b505050506040513d601f19601f820116820180604052508101906117b1919061249b565b6001600160a01b0316146117d75760405162461bcd60e51b81526004016105d5906124b8565b806001600160a01b03166351b42b006040518163ffffffff1660e01b8152600401600060405180830381600087803b15801561181257600080fd5b505af1158015611826573d6000803e3d6000fd5b5050506001600160a01b038316600081815260076020526040808220805460ff19169055513393507f902183ce9188204efa54e109c13f58d29b5eb4e8bfec1bb93b76d4516e7a64729190a35050565b60608160005b81518110156118df576118ae82828151811061189a5761189a6128a2565b01602001516001600160f81b031916611aee565b8282815181106118c0576118c06128a2565b60200101906001600160f81b031916908160001a90535060010161187c565b5092915050565b60026000540361190957604051633ee5aeb560e01b815260040160405180910390fd5b6002600055565b60008061191c85611998565b9050600081856040516020016119339291906128b8565b60408051808303601f1901815282825280516020808301919091208185528484019093529093509091600091602082018180368337019050509050816020820152600061197f82611b3d565b905061198b8188611b78565b9998505050505050505050565b60608160000151826020015183604001516119b68560600151611ba2565b6119c38660800151611ba2565b6119d08760a00151611ba2565b6040516020016119e5969594939291906128e2565b6040516020818303038152906040529050919050565b611a058133611c36565b50565b6000611a148383611366565b611a795760008381526001602081815260408084206001600160a01b0387168086529252808420805460ff19169093179092559051339286917f2f8788117e7eff1d82e926ec794901d17c78024a50270940304540a733656f0d9190a45060016104c9565b5060006104c9565b6000611a8d8383611366565b15611a795760008381526001602090815260408083206001600160a01b0386168085529252808320805460ff1916905551339286917ff6391f5c32d9c69d2a47ea670b442974b53935d1edc7fd64eb21e047a839171b9190a45060016104c9565b6000604160f81b6001600160f81b0319831610801590611b1c5750602d60f91b6001600160f81b0319831611155b15611b3957611b3060f883901c6020612961565b60f81b92915050565b5090565b6000611b498251611ba2565b82604051602001611b5b929190612988565b604051602081830303815290604052805190602001209050919050565b600080600080611b888686611c6f565b925092509250611b988282611cbc565b5090949350505050565b60606000611baf83611d75565b600101905060008167ffffffffffffffff811115611bcf57611bcf611fa3565b6040519080825280601f01601f191660200182016040528015611bf9576020820181803683370190505b5090508181016020015b600019016f181899199a1a9b1b9c1cb0b131b232b360811b600a86061a8153600a8504945084611c03575b509392505050565b611c408282611366565b61147d5760405163e2517d3f60e01b81526001600160a01b0382166004820152602481018390526044016105d5565b60008060008351604103611ca95760208401516040850151606086015160001a611c9b88828585611e4d565b955095509550505050611cb5565b50508151600091506002905b9250925092565b6000826003811115611cd057611cd06129e3565b03611cd9575050565b6001826003811115611ced57611ced6129e3565b03611d0b5760405163f645eedf60e01b815260040160405180910390fd5b6002826003811115611d1f57611d1f6129e3565b03611d405760405163fce698f760e01b8152600481018290526024016105d5565b6003826003811115611d5457611d546129e3565b0361147d576040516335e2f38360e21b8152600481018290526024016105d5565b60008072184f03e93ff9f4daa797ed6e38ed64bf6a1f0160401b8310611db45772184f03e93ff9f4daa797ed6e38ed64bf6a1f0160401b830492506040015b6d04ee2d6d415b85acef81000000008310611de0576d04ee2d6d415b85acef8100000000830492506020015b662386f26fc100008310611dfe57662386f26fc10000830492506010015b6305f5e1008310611e16576305f5e100830492506008015b6127108310611e2a57612710830492506004015b60648310611e3c576064830492506002015b600a83106104c95760010192915050565b600080807f7fffffffffffffffffffffffffffffff5d576e7357a4501ddfe92f46681b20a0841115611e885750600091506003905082611f12565b604080516000808252602082018084528a905260ff891692820192909252606081018790526080810186905260019060a0016020604051602081039080840390855afa158015611edc573d6000803e3d6000fd5b5050604051601f1901519150506001600160a01b038116611f0857506000925060019150829050611f12565b9250600091508190505b9450945094915050565b600060208284031215611f2e57600080fd5b81356001600160e01b031981168114611f4657600080fd5b9392505050565b600060208284031215611f5f57600080fd5b5035919050565b6001600160a01b0381168114611a0557600080fd5b8035610f0f81611f66565b600060208284031215611f9857600080fd5b8135611f4681611f66565b634e487b7160e01b600052604160045260246000fd5b60405160c0810167ffffffffffffffff81118282101715611fdc57611fdc611fa3565b60405290565b604051610100810167ffffffffffffffff81118282101715611fdc57611fdc611fa3565b604051601f8201601f1916810167ffffffffffffffff8111828210171561202f5761202f611fa3565b604052919050565b600067ffffffffffffffff82111561205157612051611fa3565b50601f01601f191660200190565b600082601f83011261207057600080fd5b813561208361207e82612037565b612006565b81815284602083860101111561209857600080fd5b816020850160208301376000918101602001919091529392505050565b600060c082840312156120c757600080fd5b6120cf611fb9565b9050813567ffffffffffffffff808211156120e957600080fd5b6120f58583860161205f565b8352602084013591508082111561210b57600080fd5b6121178583860161205f565b6020840152604084013591508082111561213057600080fd5b5061213d8482850161205f565b604083015250606082013560608201526080820135608082015260a082013560a082015292915050565b60006060828403121561217957600080fd5b6040516060810181811067ffffffffffffffff8211171561219c5761219c611fa3565b80604052508091508235815260208301356020820152604083013560408201525092915050565b6000602082840312156121d557600080fd5b813567ffffffffffffffff808211156121ed57600080fd5b90830190610180828603121561220257600080fd5b61220a611fe2565b61221383611f7b565b815261222160208401611f7b565b602082015260408301358281111561223857600080fd5b612244878286016120b5565b60408301525060608301358281111561225c57600080fd5b6122688782860161205f565b60608301525060808301358281111561228057600080fd5b61228c8782860161205f565b60808301525060a0830135828111156122a457600080fd5b6122b08782860161205f565b60a0830152506122c38660c08501612167565b60c08201526122d6866101208501612167565b60e082015295945050505050565b600080604083850312156122f757600080fd5b82359150602083013561230981611f66565b809150509250929050565b6000806020838503121561232757600080fd5b823567ffffffffffffffff8082111561233f57600080fd5b818501915085601f83011261235357600080fd5b81358181111561236257600080fd5b86602082850101111561237457600080fd5b60209290920196919550909350505050565b60006020828403121561239857600080fd5b813567ffffffffffffffff8111156123af57600080fd5b6123bb8482850161205f565b949350505050565b6000602082840312156123d557600080fd5b5051919050565b6000602082840312156123ee57600080fd5b81518015158114611f4657600080fd5b60208082526031908201527f576f726c645265676973747279305f323a2063616c6c6572206973206e6f742060408201527030903b30b634b2103932b3b4b9ba3930b960791b606082015260800190565b6020808252602c908201527f576f726c645265676973747279305f323a20776f726c64206973206e6f74206160408201526b081d985b1a59081ddbdc9b1960a21b606082015260800190565b6000602082840312156124ad57600080fd5b8151611f4681611f66565b6020808252603a908201527f576f726c645265676973747279305f323a20776f726c64206973206e6f74207260408201527f6567697374657265642062792074686520726567697374726172000000000000606082015260800190565b60005b83811015612530578181015183820152602001612518565b50506000910152565b60006020828403121561254b57600080fd5b815167ffffffffffffffff81111561256257600080fd5b8201601f8101841361257357600080fd5b805161258161207e82612037565b81815285602083850101111561259657600080fd5b6125a7826020830160208601612515565b95945050505050565b600082516125c2818460208701612515565b9190910192915050565b6020808252603b908201527f576f726c645265676973747279305f323a20776f726c64206e616d6520646f6560408201527f73206e6f74206d617463682072656769737465726564206e616d650000000000606082015260800190565b60008151808452612641816020860160208601612515565b601f01601f19169290920160200192915050565b6000815160c0845261266a60c0850182612629565b9050602083015184820360208601526126838282612629565b9150506040830151848203604086015261269d8282612629565b915050606083015160608501526080830151608085015260a083015160a08501528091505092915050565b602081526126e26020820183516001600160a01b03169052565b600060208301516126fe60408401826001600160a01b03169052565b506040830151610180606084015261271a6101a0840182612655565b90506060840151601f19808584030160808601526127388383612629565b925060808601519150808584030160a08601526127558383612629565b925060a08601519150808584030160c0860152506127738282612629565b60c0860151805160e08701526020810151610100870152604081015161012087015290925090505060e0840151805161014085015260208101516101608501526040810151610180850152611c2e565b602081526000611f466020830184612655565b60208082526028908201527f576f726c645265676973747279305f323a2063616c6c6572206973206e6f742060408201526730b71030b236b4b760c11b606082015260800190565b6001600160a01b03841681526040602082018190528101829052818360608301376000818301606090810191909152601f909201601f1916010192915050565b60208082526024908201527f576f726c645265676973747279305f323a20617574682063616e6e6f742062656040820152630203078360e41b606082015260800190565b634e487b7160e01b600052603260045260246000fd5b6040815260006128cb6040830185612629565b905060018060a01b03831660208301529392505050565b6000875160206128f58285838d01612515565b8851918401916129088184848d01612515565b885192019161291a8184848c01612515565b875192019161292c8184848b01612515565b865192019161293e8184848a01612515565b85519201916129508184848901612515565b919091019998505050505050505050565b60ff81811683821601908111156104c957634e487b7160e01b600052601160045260246000fd5b7f19457468657265756d205369676e6564204d6573736167653a0a0000000000008152600083516129c081601a850160208801612515565b8351908301906129d781601a840160208801612515565b01601a01949350505050565b634e487b7160e01b600052602160045260246000fdfe2758c8c5d77b29e60fffbf4a2bcb0fc98a947bd2a0dead06fdc32cd3cef1168da49807205ce4d355092ef5a8a18f56e8913cf4a201fbe287825b095693c21775a2646970667358221220a2d48d3e6459d8ad9903f1dc2711b5d8acb1537bd929307cb51f479af504c0e564736f6c63430008180033a49807205ce4d355092ef5a8a18f56e8913cf4a201fbe287825b095693c21775",
  "linkReferences": {},
  "deployedLinkReferences": {}
}