{
  "_format": "hh-sol-artifact-1",
  "contractName": "World",
  "sourceName": "contracts/world/World.sol",
  "abi": [
    {
      "inputs": [
        {
          "components": [
            {
              "internalType": "address",
              "name": "worldFactory",
              "type": "address"
            },
            {
              "internalType": "address",
              "name": "worldRegistry",
              "type": "address"
            },
            {
              "internalType": "address",
              "name": "companyRegistry",
              "type": "address"
            },
            {
              "internalType": "address",
              "name": "avatarRegistry",
              "type": "address"
            },
            {
              "internalType": "address",
              "name": "experienceRegistry",
              "type": "address"
            },
            {
              "internalType": "address",
              "name": "registrarRegistry",
              "type": "address"
            }
          ],
          "internalType": "struct WorldConstructorArgs",
          "name": "args",
          "type": "tuple"
        }
      ],
      "stateMutability": "nonpayable",
      "type": "constructor"
    },
    {
      "inputs": [],
      "name": "ReentrancyGuardReentrantCall",
      "type": "error"
    },
    {
      "anonymous": false,
      "inputs": [
        {
          "indexed": true,
          "internalType": "address",
          "name": "entity",
          "type": "address"
        }
      ],
      "name": "AddressDeactivated",
      "type": "event"
    },
    {
      "anonymous": false,
      "inputs": [
        {
          "indexed": true,
          "internalType": "address",
          "name": "entity",
          "type": "address"
        }
      ],
      "name": "AddressReactivated",
      "type": "event"
    },
    {
      "anonymous": false,
      "inputs": [
        {
          "indexed": true,
          "internalType": "address",
          "name": "entity",
          "type": "address"
        }
      ],
      "name": "AddressRemoved",
      "type": "event"
    },
    {
      "anonymous": false,
      "inputs": [],
      "name": "HookRemoved",
      "type": "event"
    },
    {
      "anonymous": false,
      "inputs": [
        {
          "indexed": false,
          "internalType": "address",
          "name": "hook",
          "type": "address"
        }
      ],
      "name": "HookSet",
      "type": "event"
    },
    {
      "anonymous": false,
      "inputs": [
        {
          "indexed": true,
          "internalType": "address",
          "name": "sender",
          "type": "address"
        },
        {
          "indexed": false,
          "internalType": "uint256",
          "name": "value",
          "type": "uint256"
        }
      ],
      "name": "ReceivedFunds",
      "type": "event"
    },
    {
      "anonymous": false,
      "inputs": [
        {
          "indexed": true,
          "internalType": "address",
          "name": "signer",
          "type": "address"
        }
      ],
      "name": "SignerAdded",
      "type": "event"
    },
    {
      "anonymous": false,
      "inputs": [
        {
          "indexed": true,
          "internalType": "address",
          "name": "signer",
          "type": "address"
        }
      ],
      "name": "SignerRemoved",
      "type": "event"
    },
    {
      "anonymous": false,
      "inputs": [
        {
          "indexed": true,
          "internalType": "address",
          "name": "experience",
          "type": "address"
        },
        {
          "indexed": true,
          "internalType": "address",
          "name": "company",
          "type": "address"
        },
        {
          "indexed": true,
          "internalType": "uint256",
          "name": "portalId",
          "type": "uint256"
        }
      ],
      "name": "WorldAddedExperience",
      "type": "event"
    },
    {
      "anonymous": false,
      "inputs": [],
      "name": "WorldDeactivated",
      "type": "event"
    },
    {
      "anonymous": false,
      "inputs": [
        {
          "indexed": true,
          "internalType": "address",
          "name": "company",
          "type": "address"
        }
      ],
      "name": "WorldDeactivatedCompany",
      "type": "event"
    },
    {
      "anonymous": false,
      "inputs": [],
      "name": "WorldHookRemoved",
      "type": "event"
    },
    {
      "anonymous": false,
      "inputs": [
        {
          "indexed": true,
          "internalType": "address",
          "name": "hook",
          "type": "address"
        }
      ],
      "name": "WorldHookSet",
      "type": "event"
    },
    {
      "anonymous": false,
      "inputs": [],
      "name": "WorldReactivated",
      "type": "event"
    },
    {
      "anonymous": false,
      "inputs": [
        {
          "indexed": true,
          "internalType": "address",
          "name": "company",
          "type": "address"
        }
      ],
      "name": "WorldReactivatedCompany",
      "type": "event"
    },
    {
      "anonymous": false,
      "inputs": [
        {
          "indexed": true,
          "internalType": "address",
          "name": "avatar",
          "type": "address"
        },
        {
          "indexed": true,
          "internalType": "address",
          "name": "experience",
          "type": "address"
        }
      ],
      "name": "WorldRegisteredAvatar",
      "type": "event"
    },
    {
      "anonymous": false,
      "inputs": [
        {
          "indexed": true,
          "internalType": "address",
          "name": "company",
          "type": "address"
        },
        {
          "components": [
            {
              "internalType": "string",
              "name": "x",
              "type": "string"
            },
            {
              "internalType": "string",
              "name": "y",
              "type": "string"
            },
            {
              "internalType": "string",
              "name": "z",
              "type": "string"
            },
            {
              "internalType": "uint256",
              "name": "t",
              "type": "uint256"
            },
            {
              "internalType": "uint256",
              "name": "p",
              "type": "uint256"
            },
            {
              "internalType": "uint256",
              "name": "p_sub",
              "type": "uint256"
            }
          ],
          "indexed": false,
          "internalType": "struct VectorAddress",
          "name": "vector",
          "type": "tuple"
        },
        {
          "indexed": false,
          "internalType": "string",
          "name": "name",
          "type": "string"
        }
      ],
      "name": "WorldRegisteredCompany",
      "type": "event"
    },
    {
      "anonymous": false,
      "inputs": [
        {
          "indexed": true,
          "internalType": "address",
          "name": "newRegistrar",
          "type": "address"
        }
      ],
      "name": "WorldRegistrarChanged",
      "type": "event"
    },
    {
      "anonymous": false,
      "inputs": [
        {
          "indexed": true,
          "internalType": "address",
          "name": "oldWorld",
          "type": "address"
        },
        {
          "indexed": true,
          "internalType": "address",
          "name": "newWorld",
          "type": "address"
        }
      ],
      "name": "WorldUpgraded",
      "type": "event"
    },
    {
      "inputs": [],
      "name": "ADMIN_ROLE",
      "outputs": [
        {
          "internalType": "bytes32",
          "name": "",
          "type": "bytes32"
        }
      ],
      "stateMutability": "view",
      "type": "function"
    },
    {
      "inputs": [],
      "name": "TERMS_AVATAR",
      "outputs": [
        {
          "internalType": "bytes32",
          "name": "",
          "type": "bytes32"
        }
      ],
      "stateMutability": "view",
      "type": "function"
    },
    {
      "inputs": [],
      "name": "TERMS_COMPANY",
      "outputs": [
        {
          "internalType": "bytes32",
          "name": "",
          "type": "bytes32"
        }
      ],
      "stateMutability": "view",
      "type": "function"
    },
    {
      "inputs": [
        {
          "internalType": "address[]",
          "name": "signers",
          "type": "address[]"
        }
      ],
      "name": "addSigners",
      "outputs": [],
      "stateMutability": "nonpayable",
      "type": "function"
    },
    {
      "inputs": [],
      "name": "avatarRegistry",
      "outputs": [
        {
          "internalType": "contract IAvatarRegistry",
          "name": "",
          "type": "address"
        }
      ],
      "stateMutability": "view",
      "type": "function"
    },
    {
      "inputs": [
        {
          "internalType": "address",
          "name": "addr",
          "type": "address"
        }
      ],
      "name": "canBeDeactivated",
      "outputs": [
        {
          "internalType": "bool",
          "name": "",
          "type": "bool"
        }
      ],
      "stateMutability": "view",
      "type": "function"
    },
    {
      "inputs": [
        {
          "internalType": "address",
          "name": "addr",
          "type": "address"
        }
      ],
      "name": "canBeRemoved",
      "outputs": [
        {
          "internalType": "bool",
          "name": "",
          "type": "bool"
        }
      ],
      "stateMutability": "view",
      "type": "function"
    },
    {
      "inputs": [],
      "name": "companyRegistry",
      "outputs": [
        {
          "internalType": "contract ICompanyRegistry",
          "name": "",
          "type": "address"
        }
      ],
      "stateMutability": "view",
      "type": "function"
    },
    {
      "inputs": [],
      "name": "deactivate",
      "outputs": [],
      "stateMutability": "nonpayable",
      "type": "function"
    },
    {
      "inputs": [
        {
          "internalType": "address",
          "name": "company",
          "type": "address"
        }
      ],
      "name": "deactivateCompany",
      "outputs": [],
      "stateMutability": "nonpayable",
      "type": "function"
    },
    {
      "inputs": [
        {
          "internalType": "address",
          "name": "experience",
          "type": "address"
        }
      ],
      "name": "deactivateExperience",
      "outputs": [
        {
          "internalType": "uint256",
          "name": "",
          "type": "uint256"
        }
      ],
      "stateMutability": "nonpayable",
      "type": "function"
    },
    {
      "inputs": [],
      "name": "experienceRegistry",
      "outputs": [
        {
          "internalType": "contract IExperienceRegistry",
          "name": "",
          "type": "address"
        }
      ],
      "stateMutability": "view",
      "type": "function"
    },
    {
      "inputs": [
        {
          "internalType": "address",
          "name": "addr",
          "type": "address"
        }
      ],
      "name": "forceDeactivation",
      "outputs": [],
      "stateMutability": "nonpayable",
      "type": "function"
    },
    {
      "inputs": [
        {
          "internalType": "address",
          "name": "world",
          "type": "address"
        }
      ],
      "name": "forceRemoval",
      "outputs": [],
      "stateMutability": "nonpayable",
      "type": "function"
    },
    {
      "inputs": [],
      "name": "getBaseVector",
      "outputs": [
        {
          "components": [
            {
              "internalType": "string",
              "name": "x",
              "type": "string"
            },
            {
              "internalType": "string",
              "name": "y",
              "type": "string"
            },
            {
              "internalType": "string",
              "name": "z",
              "type": "string"
            },
            {
              "internalType": "uint256",
              "name": "t",
              "type": "uint256"
            },
            {
              "internalType": "uint256",
              "name": "p",
              "type": "uint256"
            },
            {
              "internalType": "uint256",
              "name": "p_sub",
              "type": "uint256"
            }
          ],
          "internalType": "struct VectorAddress",
          "name": "",
          "type": "tuple"
        }
      ],
      "stateMutability": "view",
      "type": "function"
    },
    {
      "inputs": [
        {
          "internalType": "address",
          "name": "addr",
          "type": "address"
        }
      ],
      "name": "getEntityTerms",
      "outputs": [
        {
          "components": [
            {
              "internalType": "uint256",
              "name": "fee",
              "type": "uint256"
            },
            {
              "internalType": "uint256",
              "name": "coveragePeriod",
              "type": "uint256"
            },
            {
              "internalType": "uint256",
              "name": "gracePeriod",
              "type": "uint256"
            }
          ],
          "internalType": "struct RegistrationTerms",
          "name": "",
          "type": "tuple"
        }
      ],
      "stateMutability": "view",
      "type": "function"
    },
    {
      "inputs": [
        {
          "internalType": "address",
          "name": "addr",
          "type": "address"
        }
      ],
      "name": "getExpiration",
      "outputs": [
        {
          "internalType": "uint256",
          "name": "",
          "type": "uint256"
        }
      ],
      "stateMutability": "view",
      "type": "function"
    },
    {
      "inputs": [
        {
          "internalType": "address",
          "name": "addr",
          "type": "address"
        }
      ],
      "name": "getLastRenewal",
      "outputs": [
        {
          "internalType": "uint256",
          "name": "",
          "type": "uint256"
        }
      ],
      "stateMutability": "view",
      "type": "function"
    },
    {
      "inputs": [],
      "name": "getName",
      "outputs": [
        {
          "internalType": "string",
          "name": "",
          "type": "string"
        }
      ],
      "stateMutability": "view",
      "type": "function"
    },
    {
      "inputs": [],
      "name": "getOwner",
      "outputs": [
        {
          "internalType": "address",
          "name": "",
          "type": "address"
        }
      ],
      "stateMutability": "view",
      "type": "function"
    },
    {
      "inputs": [
        {
          "internalType": "bytes32",
          "name": "termsType",
          "type": "bytes32"
        }
      ],
      "name": "getTerms",
      "outputs": [
        {
          "components": [
            {
              "internalType": "uint256",
              "name": "fee",
              "type": "uint256"
            },
            {
              "internalType": "uint256",
              "name": "coveragePeriod",
              "type": "uint256"
            },
            {
              "internalType": "uint256",
              "name": "gracePeriod",
              "type": "uint256"
            }
          ],
          "internalType": "struct RegistrationTerms",
          "name": "",
          "type": "tuple"
        }
      ],
      "stateMutability": "view",
      "type": "function"
    },
    {
      "inputs": [],
      "name": "hook",
      "outputs": [
        {
          "internalType": "address",
          "name": "",
          "type": "address"
        }
      ],
      "stateMutability": "view",
      "type": "function"
    },
    {
      "inputs": [
        {
          "components": [
            {
              "internalType": "address",
              "name": "registrar",
              "type": "address"
            },
            {
              "internalType": "address",
              "name": "owner",
              "type": "address"
            },
            {
              "components": [
                {
                  "internalType": "string",
                  "name": "x",
                  "type": "string"
                },
                {
                  "internalType": "string",
                  "name": "y",
                  "type": "string"
                },
                {
                  "internalType": "string",
                  "name": "z",
                  "type": "string"
                },
                {
                  "internalType": "uint256",
                  "name": "t",
                  "type": "uint256"
                },
                {
                  "internalType": "uint256",
                  "name": "p",
                  "type": "uint256"
                },
                {
                  "internalType": "uint256",
                  "name": "p_sub",
                  "type": "uint256"
                }
              ],
              "internalType": "struct VectorAddress",
              "name": "baseVector",
              "type": "tuple"
            },
            {
              "internalType": "string",
              "name": "name",
              "type": "string"
            },
            {
              "internalType": "bytes",
              "name": "initData",
              "type": "bytes"
            },
            {
              "internalType": "bytes",
              "name": "vectorAuthoritySignature",
              "type": "bytes"
            },
            {
              "components": [
                {
                  "internalType": "uint256",
                  "name": "fee",
                  "type": "uint256"
                },
                {
                  "internalType": "uint256",
                  "name": "coveragePeriod",
                  "type": "uint256"
                },
                {
                  "internalType": "uint256",
                  "name": "gracePeriod",
                  "type": "uint256"
                }
              ],
              "internalType": "struct RegistrationTerms",
              "name": "companyTerms",
              "type": "tuple"
            },
            {
              "components": [
                {
                  "internalType": "uint256",
                  "name": "fee",
                  "type": "uint256"
                },
                {
                  "internalType": "uint256",
                  "name": "coveragePeriod",
                  "type": "uint256"
                },
                {
                  "internalType": "uint256",
                  "name": "gracePeriod",
                  "type": "uint256"
                }
              ],
              "internalType": "struct RegistrationTerms",
              "name": "avatarTerms",
              "type": "tuple"
            }
          ],
          "internalType": "struct WorldRegistrationRequest",
          "name": "request",
          "type": "tuple"
        }
      ],
      "name": "init",
      "outputs": [],
      "stateMutability": "nonpayable",
      "type": "function"
    },
    {
      "inputs": [],
      "name": "isActive",
      "outputs": [
        {
          "internalType": "bool",
          "name": "",
          "type": "bool"
        }
      ],
      "stateMutability": "view",
      "type": "function"
    },
    {
      "inputs": [
        {
          "internalType": "address",
          "name": "addr",
          "type": "address"
        }
      ],
      "name": "isExpired",
      "outputs": [
        {
          "internalType": "bool",
          "name": "",
          "type": "bool"
        }
      ],
      "stateMutability": "view",
      "type": "function"
    },
    {
      "inputs": [
        {
          "internalType": "address",
          "name": "addr",
          "type": "address"
        }
      ],
      "name": "isInGracePeriod",
      "outputs": [
        {
          "internalType": "bool",
          "name": "",
          "type": "bool"
        }
      ],
      "stateMutability": "view",
      "type": "function"
    },
    {
      "inputs": [
        {
          "internalType": "address",
          "name": "addr",
          "type": "address"
        }
      ],
      "name": "isRegistered",
      "outputs": [
        {
          "internalType": "bool",
          "name": "",
          "type": "bool"
        }
      ],
      "stateMutability": "view",
      "type": "function"
    },
    {
      "inputs": [
        {
          "internalType": "address",
          "name": "signer",
          "type": "address"
        }
      ],
      "name": "isSigner",
      "outputs": [
        {
          "internalType": "bool",
          "name": "",
          "type": "bool"
        }
      ],
      "stateMutability": "view",
      "type": "function"
    },
    {
      "inputs": [],
      "name": "owner",
      "outputs": [
        {
          "internalType": "address",
          "name": "",
          "type": "address"
        }
      ],
      "stateMutability": "view",
      "type": "function"
    },
    {
      "inputs": [],
      "name": "reactivate",
      "outputs": [],
      "stateMutability": "nonpayable",
      "type": "function"
    },
    {
      "inputs": [
        {
          "internalType": "address",
          "name": "company",
          "type": "address"
        }
      ],
      "name": "reactivateCompany",
      "outputs": [],
      "stateMutability": "nonpayable",
      "type": "function"
    },
    {
      "inputs": [
        {
          "components": [
            {
              "internalType": "bool",
              "name": "sendTokensToAvatarOwner",
              "type": "bool"
            },
            {
              "internalType": "address",
              "name": "avatarOwner",
              "type": "address"
            },
            {
              "internalType": "address",
              "name": "defaultExperience",
              "type": "address"
            },
            {
              "internalType": "string",
              "name": "username",
              "type": "string"
            },
            {
              "internalType": "bytes",
              "name": "initData",
              "type": "bytes"
            }
          ],
          "internalType": "struct AvatarRegistrationArgs",
          "name": "args",
          "type": "tuple"
        }
      ],
      "name": "registerAvatar",
      "outputs": [
        {
          "internalType": "address",
          "name": "avatar",
          "type": "address"
        }
      ],
      "stateMutability": "payable",
      "type": "function"
    },
    {
      "inputs": [
        {
          "components": [
            {
              "internalType": "bool",
              "name": "sendTokensToCompanyOwner",
              "type": "bool"
            },
            {
              "internalType": "address",
              "name": "owner",
              "type": "address"
            },
            {
              "internalType": "string",
              "name": "name",
              "type": "string"
            },
            {
              "internalType": "bytes",
              "name": "initData",
              "type": "bytes"
            }
          ],
          "internalType": "struct CompanyRegistrationArgs",
          "name": "args",
          "type": "tuple"
        }
      ],
      "name": "registerCompany",
      "outputs": [
        {
          "internalType": "address",
          "name": "company",
          "type": "address"
        }
      ],
      "stateMutability": "payable",
      "type": "function"
    },
    {
      "inputs": [
        {
          "components": [
            {
              "components": [
                {
                  "internalType": "string",
                  "name": "x",
                  "type": "string"
                },
                {
                  "internalType": "string",
                  "name": "y",
                  "type": "string"
                },
                {
                  "internalType": "string",
                  "name": "z",
                  "type": "string"
                },
                {
                  "internalType": "uint256",
                  "name": "t",
                  "type": "uint256"
                },
                {
                  "internalType": "uint256",
                  "name": "p",
                  "type": "uint256"
                },
                {
                  "internalType": "uint256",
                  "name": "p_sub",
                  "type": "uint256"
                }
              ],
              "internalType": "struct VectorAddress",
              "name": "vector",
              "type": "tuple"
            },
            {
              "internalType": "address",
              "name": "company",
              "type": "address"
            },
            {
              "internalType": "bytes",
              "name": "initData",
              "type": "bytes"
            },
            {
              "internalType": "string",
              "name": "name",
              "type": "string"
            }
          ],
          "internalType": "struct RegisterExperienceRequest",
          "name": "req",
          "type": "tuple"
        }
      ],
      "name": "registerExperience",
      "outputs": [
        {
          "internalType": "address",
          "name": "experience",
          "type": "address"
        },
        {
          "internalType": "uint256",
          "name": "",
          "type": "uint256"
        }
      ],
      "stateMutability": "nonpayable",
      "type": "function"
    },
    {
      "inputs": [],
      "name": "registrar",
      "outputs": [
        {
          "internalType": "address",
          "name": "",
          "type": "address"
        }
      ],
      "stateMutability": "view",
      "type": "function"
    },
    {
      "inputs": [
        {
          "internalType": "address",
          "name": "newReg",
          "type": "address"
        }
      ],
      "name": "registrarChanged",
      "outputs": [],
      "stateMutability": "nonpayable",
      "type": "function"
    },
    {
      "inputs": [],
      "name": "registrarRegistry",
      "outputs": [
        {
          "internalType": "address",
          "name": "",
          "type": "address"
        }
      ],
      "stateMutability": "view",
      "type": "function"
    },
    {
      "inputs": [
        {
          "internalType": "address",
          "name": "company",
          "type": "address"
        }
      ],
      "name": "removeCompany",
      "outputs": [],
      "stateMutability": "nonpayable",
      "type": "function"
    },
    {
      "inputs": [],
      "name": "removeHook",
      "outputs": [],
      "stateMutability": "nonpayable",
      "type": "function"
    },
    {
      "inputs": [
        {
          "internalType": "address[]",
          "name": "signers",
          "type": "address[]"
        }
      ],
      "name": "removeSigners",
      "outputs": [],
      "stateMutability": "nonpayable",
      "type": "function"
    },
    {
      "inputs": [
        {
          "internalType": "address",
          "name": "avatar",
          "type": "address"
        }
      ],
      "name": "renewAvatarRegistration",
      "outputs": [],
      "stateMutability": "payable",
      "type": "function"
    },
    {
      "inputs": [
        {
          "internalType": "address",
          "name": "company",
          "type": "address"
        }
      ],
      "name": "renewCompanyRegistration",
      "outputs": [],
      "stateMutability": "payable",
      "type": "function"
    },
    {
      "inputs": [],
      "name": "renewRegistration",
      "outputs": [],
      "stateMutability": "payable",
      "type": "function"
    },
    {
      "inputs": [
        {
          "internalType": "address",
          "name": "_hook",
          "type": "address"
        }
      ],
      "name": "setHook",
      "outputs": [],
      "stateMutability": "nonpayable",
      "type": "function"
    },
    {
      "inputs": [
        {
          "internalType": "bytes32",
          "name": "termsType",
          "type": "bytes32"
        },
        {
          "components": [
            {
              "internalType": "uint256",
              "name": "fee",
              "type": "uint256"
            },
            {
              "internalType": "uint256",
              "name": "coveragePeriod",
              "type": "uint256"
            },
            {
              "internalType": "uint256",
              "name": "gracePeriod",
              "type": "uint256"
            }
          ],
          "internalType": "struct RegistrationTerms",
          "name": "terms",
          "type": "tuple"
        }
      ],
      "name": "setTerms",
      "outputs": [],
      "stateMutability": "nonpayable",
      "type": "function"
    },
    {
      "inputs": [
        {
          "internalType": "bytes",
          "name": "initData",
          "type": "bytes"
        }
      ],
      "name": "upgrade",
      "outputs": [],
      "stateMutability": "nonpayable",
      "type": "function"
    },
    {
      "inputs": [
        {
          "internalType": "address",
          "name": "nextVersion",
          "type": "address"
        }
      ],
      "name": "upgradeComplete",
      "outputs": [],
      "stateMutability": "nonpayable",
      "type": "function"
    },
    {
      "inputs": [],
      "name": "version",
      "outputs": [
        {
          "internalType": "uint256",
          "name": "",
          "type": "uint256"
        }
      ],
      "stateMutability": "view",
      "type": "function"
    },
    {
      "inputs": [
        {
          "internalType": "uint256",
          "name": "amount",
          "type": "uint256"
        }
      ],
      "name": "withdraw",
      "outputs": [],
      "stateMutability": "nonpayable",
      "type": "function"
    },
    {
      "inputs": [],
      "name": "worldFactory",
      "outputs": [
        {
          "internalType": "address",
          "name": "",
          "type": "address"
        }
      ],
      "stateMutability": "view",
      "type": "function"
    },
    {
      "inputs": [],
      "name": "worldRegistry",
      "outputs": [
        {
          "internalType": "contract IWorldRegistry",
          "name": "",
          "type": "address"
        }
      ],
      "stateMutability": "view",
      "type": "function"
    },
    {
      "stateMutability": "payable",
      "type": "receive"
    }
  ],
  "bytecode": "0x6101406040523480156200001257600080fd5b50604051620065003803806200650083398101604081905262000035916200036a565b600160005580516001600160a01b0316620000ad5760405162461bcd60e51b815260206004820152602d60248201527f576f726c64305f323a20776f726c64466163746f72792063616e6e6f7420626560448201526c207a65726f206164647265737360981b60648201526084015b60405180910390fd5b60208101516001600160a01b0316620001205760405162461bcd60e51b815260206004820152602e60248201527f576f726c64305f323a20776f726c6452656769737472792063616e6e6f74206260448201526d65207a65726f206164647265737360901b6064820152608401620000a4565b60408101516001600160a01b0316620001955760405162461bcd60e51b815260206004820152603060248201527f576f726c64305f323a20636f6d70616e7952656769737472792063616e6e6f7460448201526f206265207a65726f206164647265737360801b6064820152608401620000a4565b60608101516001600160a01b0316620002095760405162461bcd60e51b815260206004820152602f60248201527f576f726c64305f323a2061766174617252656769737472792063616e6e6f742060448201526e6265207a65726f206164647265737360881b6064820152608401620000a4565b60808101516001600160a01b03166200028b5760405162461bcd60e51b815260206004820152603360248201527f576f726c64305f323a20657870657269656e636552656769737472792063616e60448201527f6e6f74206265207a65726f2061646472657373000000000000000000000000006064820152608401620000a4565b60a08101516001600160a01b0316620003025760405162461bcd60e51b815260206004820152603260248201527f576f726c64305f323a2072656769737472617252656769737472792063616e6e6044820152716f74206265207a65726f206164647265737360701b6064820152608401620000a4565b60208101516001600160a01b0390811660809081528251821660a09081526040840151831660c0526060840151831660e0529083015182166101005290910151166101205262000424565b80516001600160a01b03811681146200036557600080fd5b919050565b600060c082840312156200037d57600080fd5b60405160c081016001600160401b0381118282101715620003ae57634e487b7160e01b600052604160045260246000fd5b604052620003bc836200034d565b8152620003cc602084016200034d565b6020820152620003df604084016200034d565b6040820152620003f2606084016200034d565b606082015262000405608084016200034d565b60808201526200041860a084016200034d565b60a08201529392505050565b60805160a05160c05160e0516101005161012051615ff26200050e600039600081816108f201528181614383015261440e015260008181610707015281816127430152614162015260008181610968015261204d01526000818161088101528181610ed50152818161126401528181612481015281816124da01528181612fe2015281816133d301528181613d9e0152613df7015260008181610306015281816114f00152818161156f0152818161356501526135e401526000818161073b0152818161147e01528181612307015281816123860152818161424f01526142ce0152615ff26000f3fe6080604052600436106102e85760003560e01c80637df73e2711610190578063ba2eb541116100dc578063d8597a4111610095578063e2482bf91161006f578063e2482bf914610936578063e3d7ad7314610956578063e8906a2d1461098a578063f82e2fb3146109aa57600080fd5b8063d8597a41146108d8578063dbdc4e62146108e0578063dc5d58d91461091457600080fd5b8063ba2eb541146107f0578063c3c5a54714610810578063c4d453c214610830578063c51aba2b1461086f578063d18611d6146108a3578063d713a533146108b857600080fd5b80638f09a6be11610149578063a18cd5cc11610123578063a18cd5cc14610770578063a8c88c1714610790578063b537b0f4146107b0578063b6db923d146107d057600080fd5b80638f09a6be146106f5578063911c2a8c14610729578063945acca31461075d57600080fd5b80637df73e27146106505780637f5a7c7b1461067057806383e005fa14610685578063893d20e8146106a55780638d361e43146106d55780638da5cb5b146106a557600080fd5b80633dfd38731161024f57806354fd4d50116102085780635ae13a94116101e25780635ae13a94146105c15780636be39bda146105e15780636e24e8f51461060e57806375b238fc1461062e57600080fd5b806354fd4d50146105795780635726c94e1461058e5780635735a1e4146105ae57600080fd5b80633dfd3873146104d157806341f8b682146104f15780634d575f3d146105115780634ec70a481461052457806351b42b0014610544578063530bdd9d1461055957600080fd5b80632663d1f7116102a15780632663d1f7146103ed5780632b20e3971461040d5780632e1a7d4d1461044a5780632f0098bf1461046a578063378f17ff1461049a578063382af56d146104af57600080fd5b80630dc3897d146102f457806317d7de7c146103455780631c2fbedc1461036757806320ee2dcc1461037a57806322f3e2d41461039c57806325394645146103cd57600080fd5b366102ef57005b600080fd5b34801561030057600080fd5b506103287f000000000000000000000000000000000000000000000000000000000000000081565b6040516001600160a01b0390911681526020015b60405180910390f35b34801561035157600080fd5b5061035a6109ca565b60405161033c9190615091565b610328610375366004615228565b610a8d565b34801561038657600080fd5b5061039a6103953660046152de565b611091565b005b3480156103a857600080fd5b50600080516020615f5d8339815191525460ff165b604051901515815260200161033c565b3480156103d957600080fd5b5061039a6103e83660046152fb565b61130d565b3480156103f957600080fd5b5061039a6104083660046152de565b6114ee565b34801561041957600080fd5b507f018094a5c698d39f5a1777dfa75256119b9e23c0347c2bc3f62bda742ebf5a79546001600160a01b0316610328565b34801561045657600080fd5b5061039a61046536600461536c565b61163b565b34801561047657600080fd5b5061048c600080516020615f1d83398151915281565b60405190815260200161033c565b3480156104a657600080fd5b5061039a6116d6565b3480156104bb57600080fd5b506104c46117ab565b60405161033c91906153f8565b3480156104dd57600080fd5b5061039a6104ec3660046152de565b6119fb565b3480156104fd57600080fd5b5061039a61050c3660046152de565b611c34565b61032861051f36600461540b565b611e0c565b34801561053057600080fd5b5061048c61053f3660046152de565b61220b565b34801561055057600080fd5b5061039a612305565b34801561056557600080fd5b5061048c6105743660046152de565b61247d565b34801561058557600080fd5b5061048c600181565b34801561059a57600080fd5b5061048c6105a93660046152de565b6127c2565b61039a6105bc3660046152de565b612879565b3480156105cd57600080fd5b5061039a6105dc36600461550c565b612962565b3480156105ed57600080fd5b506106016105fc36600461536c565b612a62565b60405161033c9190615539565b34801561061a57600080fd5b5061039a6106293660046152de565b612b70565b34801561063a57600080fd5b5061048c600080516020615f9d83398151915281565b34801561065c57600080fd5b506103bd61066b3660046152de565b612d3c565b34801561067c57600080fd5b50610328612d6d565b34801561069157600080fd5b5061039a6106a03660046152de565b612e0a565b3480156106b157600080fd5b50600080516020615f5d8339815191525461010090046001600160a01b0316610328565b3480156106e157600080fd5b5061039a6106f036600461555a565b61307e565b34801561070157600080fd5b506103287f000000000000000000000000000000000000000000000000000000000000000081565b34801561073557600080fd5b506103287f000000000000000000000000000000000000000000000000000000000000000081565b61039a61076b3660046152de565b6130d1565b34801561077c57600080fd5b5061039a61078b3660046152de565b6131cb565b34801561079c57600080fd5b506103bd6107ab3660046152de565b61346f565b3480156107bc57600080fd5b5061039a6107cb36600461566d565b613563565b3480156107dc57600080fd5b506103bd6107eb3660046152de565b613b30565b3480156107fc57600080fd5b506103bd61080b3660046152de565b613be7565b34801561081c57600080fd5b506103bd61082b3660046152de565b613ce2565b34801561083c57600080fd5b5061085061084b36600461578d565b613d99565b604080516001600160a01b03909316835260208301919091520161033c565b34801561087b57600080fd5b506103287f000000000000000000000000000000000000000000000000000000000000000081565b3480156108af57600080fd5b5061039a61424d565b3480156108c457600080fd5b5061039a6108d33660046152de565b614381565b61039a614652565b3480156108ec57600080fd5b506103287f000000000000000000000000000000000000000000000000000000000000000081565b34801561092057600080fd5b5061048c600080516020615edd83398151915281565b34801561094257600080fd5b506103bd6109513660046152de565b614795565b34801561096257600080fd5b506103287f000000000000000000000000000000000000000000000000000000000000000081565b34801561099657600080fd5b5061039a6109a536600461555a565b61484c565b3480156109b657600080fd5b506106016109c53660046152de565b61489a565b7f018094a5c698d39f5a1777dfa75256119b9e23c0347c2bc3f62bda742ebf5a808054606091600080516020615f5d83398151915291610a09906157fe565b80601f0160208091040260200160405190810160405280929190818152602001828054610a35906157fe565b8015610a825780601f10610a5757610100808354040283529160200191610a82565b820191906000526020600020905b815481529060010190602001808311610a6557829003601f168201915b505050505091505090565b6000600080516020615efd833981519152610ab781600080516020615f3d83398151915233614973565b610adc5760405162461bcd60e51b8152600401610ad390615832565b60405180910390fd5b610ae46149a0565b600080516020615f5d833981519152805460ff16610b145760405162461bcd60e51b8152600401610ad39061587e565b60208401516001600160a01b0316610b855760405162461bcd60e51b815260206004820152602e60248201527f576f726c64305f323a20636f6d70616e79206f776e65722063616e6e6f74206260448201526d65207a65726f206164647265737360901b6064820152608401610ad3565b600084604001515111610be95760405162461bcd60e51b815260206004820152602660248201527f576f726c64305f323a20636f6d70616e79206e616d652063616e6e6f7420626560448201526520656d70747960d01b6064820152608401610ad3565b600080516020615f5d8339815191526000610c02612d6d565b90506001600160a01b03811615610cd15760405163e76c26f760e01b81526001600160a01b0382169063e76c26f790610c3f9089906004016158b5565b6020604051808303816000875af1158015610c5e573d6000803e3d6000fd5b505050506040513d601f19601f82011682018060405250810190610c829190615915565b610cd15760405162461bcd60e51b815260206004820152602c6024820152600080516020615f7d83398151915260448201526b3932b3b4b9ba3930ba34b7b760a11b6064820152608401610ad3565b8160090160008154610ce290615932565b9190508190555060006040518060c00160405280846002016000018054610d08906157fe565b80601f0160208091040260200160405190810160405280929190818152602001828054610d34906157fe565b8015610d815780601f10610d5657610100808354040283529160200191610d81565b820191906000526020600020905b815481529060010190602001808311610d6457829003601f168201915b50505050508152602001846002016001018054610d9d906157fe565b80601f0160208091040260200160405190810160405280929190818152602001828054610dc9906157fe565b8015610e165780601f10610deb57610100808354040283529160200191610e16565b820191906000526020600020905b815481529060010190602001808311610df957829003601f168201915b50505050508152602001846002016002018054610e32906157fe565b80601f0160208091040260200160405190810160405280929190818152602001828054610e5e906157fe565b8015610eab5780601f10610e8057610100808354040283529160200191610eab565b820191906000526020600020905b815481529060010190602001808311610e8e57829003601f168201915b505050505081526020018460020160030154815260200184600901548152602001600081525090507f00000000000000000000000000000000000000000000000000000000000000006001600160a01b031663cb70d6c460405180608001604052808a602001516001600160a01b031681526020018481526020018a6060015181526020018a604001518152506040518263ffffffff1660e01b8152600401610f549190615959565b6020604051808303816000875af1158015610f73573d6000803e3d6000fd5b505050506040513d601f19601f82011682018060405250810190610f9791906159c3565b9550341561101e57865115610fe75760208701516040516001600160a01b03909116903480156108fc02916000818181858888f19350505050158015610fe1573d6000803e3d6000fd5b5061101e565b6040516001600160a01b038716903480156108fc02916000818181858888f1935050505015801561101c573d6000803e3d6000fd5b505b611036600080516020615f1d833981519152876149ca565b856001600160a01b03167f659ad5c7880991967f5e9a8dc3fa1421a5526e4cc501b9854e9b9882423f28708289604001516040516110759291906159e0565b60405180910390a25050505061108b6001600055565b50919050565b600080516020615efd8339815191526110b981600080516020615f3d83398151915233614973565b6110d55760405162461bcd60e51b8152600401610ad390615832565b6110dd6149a0565b60006110e7612d6d565b90506001600160a01b038116156111ae57604051630da0fb0160e01b81526001600160a01b038481166004830152821690630da0fb01906024016020604051808303816000875af1158015611140573d6000803e3d6000fd5b505050506040513d601f19601f820116820180604052508101906111649190615915565b6111ae5760405162461bcd60e51b81526020600482015260276024820152600080516020615f7d8339815191526044820152661c995b5bdd985b60ca1b6064820152608401610ad3565b6000839050306001600160a01b0316816001600160a01b03166330b67baa6040518163ffffffff1660e01b8152600401602060405180830381865afa1580156111fb573d6000803e3d6000fd5b505050506040513d601f19601f8201168201806040525081019061121f91906159c3565b6001600160a01b0316146112455760405162461bcd60e51b8152600401610ad390615a05565b60405163083b8b7360e21b81526001600160a01b0385811660048301527f000000000000000000000000000000000000000000000000000000000000000016906320ee2dcc90602401600060405180830381600087803b1580156112a857600080fd5b505af11580156112bc573d6000803e3d6000fd5b505050506112c984614a86565b6040516001600160a01b038516907fb6f91f8aac9f1a8ac7317d2353dca44fac33d0118ae749067a8107c41b6e158d90600090a250506113096001600055565b5050565b600080516020615efd83398151915261133581600080516020615f9d83398151915233614973565b6113515760405162461bcd60e51b8152600401610ad390615a62565b600080516020615f5d833981519152805460ff166113815760405162461bcd60e51b8152600401610ad39061587e565b600061138b612d6d565b90506001600160a01b03811615611467576040516316b52d0160e31b81526001600160a01b0382169063b5a96808906113ca9088908890600401615aad565b6020604051808303816000875af11580156113e9573d6000803e3d6000fd5b505050506040513d601f19601f8201168201806040525081019061140d9190615915565b6114675760405162461bcd60e51b815260206004820152602560248201527f576f726c64305f323a20686f6f6b2072656a656374656420776f726c64207570604482015264677261646560d81b6064820152608401610ad3565b6040516324d733bb60e21b81526001600160a01b037f0000000000000000000000000000000000000000000000000000000000000000169063935cceec906114b59088908890600401615aad565b600060405180830381600087803b1580156114cf57600080fd5b505af11580156114e3573d6000803e3d6000fd5b505050505050505050565b7f00000000000000000000000000000000000000000000000000000000000000006001600160a01b03166115645760405162461bcd60e51b815260206004820152601e60248201527f576f726c64305f323a20776f726c64466163746f7279206e6f742073657400006044820152606401610ad3565b336001600160a01b037f000000000000000000000000000000000000000000000000000000000000000016146115dc5760405162461bcd60e51b815260206004820152601f60248201527f576f726c64305f323a2063616c6c6572206973206e6f7420666163746f7279006044820152606401610ad3565b600080516020615efd83398151915280546001600160a01b031981166001600160a01b03848116918217845560405192169182907ff1fe458d696ab302f212b76fb0e63c85d19c1bcb4c3e61d3a4470e76d136321890600090a3505050565b61164433614b6c565b6116605760405162461bcd60e51b8152600401610ad390615adc565b804710156116805760405162461bcd60e51b8152600401610ad390615b21565b600080516020615f5d8339815191525461010090046001600160a01b03166001600160a01b03166108fc829081150290604051600060405180830381858888f19350505050158015611309573d6000803e3d6000fd5b6116df33614b6c565b6116fb5760405162461bcd60e51b8152600401610ad390615b65565b7f2914b2bb01114b5159800e543f6c1279819fc613124831d49682628c159b8a3860405163747aa1a560e11b8152600481019190915273__$b33bdc01aa0b2bf845e7e40ceebecaaf7e$__9063e8f5434a9060240160006040518083038186803b15801561176857600080fd5b505af415801561177c573d6000803e3d6000fd5b50506040517f4abf6d25887ff6b78026f569f956b6d57d5b92cecf0ee91d897ec98e47f656a3925060009150a1565b6117e46040518060c001604052806060815260200160608152602001606081526020016000815260200160008152602001600081525090565b6040805160c081019091527f018094a5c698d39f5a1777dfa75256119b9e23c0347c2bc3f62bda742ebf5a7a8054600080516020615f5d83398151915292919082908290611831906157fe565b80601f016020809104026020016040519081016040528092919081815260200182805461185d906157fe565b80156118aa5780601f1061187f576101008083540402835291602001916118aa565b820191906000526020600020905b81548152906001019060200180831161188d57829003601f168201915b505050505081526020016001820180546118c3906157fe565b80601f01602080910402602001604051908101604052809291908181526020018280546118ef906157fe565b801561193c5780601f106119115761010080835404028352916020019161193c565b820191906000526020600020905b81548152906001019060200180831161191f57829003601f168201915b50505050508152602001600282018054611955906157fe565b80601f0160208091040260200160405190810160405280929190818152602001828054611981906157fe565b80156119ce5780601f106119a3576101008083540402835291602001916119ce565b820191906000526020600020905b8154815290600101906020018083116119b157829003601f168201915b50505050508152602001600382015481526020016004820154815260200160058201548152505091505090565b611a0433614b6c565b611a205760405162461bcd60e51b8152600401610ad390615b65565b6001600160a01b038116611a885760405162461bcd60e51b815260206004820152602960248201527f42617365486f6f6b537570706f72743a20686f6f6b20697320746865207a65726044820152686f206164647265737360b81b6064820152608401610ad3565b604051631627905560e01b81526001600160a01b038216600482015273__$b33bdc01aa0b2bf845e7e40ceebecaaf7e$__90631627905590602401602060405180830381865af4158015611ae0573d6000803e3d6000fd5b505050506040513d601f19601f82011682018060405250810190611b049190615915565b611b605760405162461bcd60e51b815260206004820152602760248201527f42617365486f6f6b537570706f72743a20686f6f6b206973206e6f74206120636044820152661bdb9d1c9858dd60ca1b6064820152608401610ad3565b7f2914b2bb01114b5159800e543f6c1279819fc613124831d49682628c159b8a38604051630a8a5ef160e31b815260048101919091526001600160a01b038216602482015273__$b33bdc01aa0b2bf845e7e40ceebecaaf7e$__90635452f7889060440160006040518083038186803b158015611bdc57600080fd5b505af4158015611bf0573d6000803e3d6000fd5b50506040516001600160a01b03841681527f4eab7b127c764308788622363ad3e9532de3dfba7845bd4f84c125a22544255a9250602001905060405180910390a150565b600073__$d81eab81c4f96e94de97b51155a369ac43$__6386d5c4be6040518163ffffffff1660e01b8152600401602060405180830381865af4158015611c7f573d6000803e3d6000fd5b505050506040513d601f19601f82011682018060405250810190611ca39190615bad565b60405163496fc44560e11b8152600481018290526001600160a01b038416602482015290915073__$d81eab81c4f96e94de97b51155a369ac43$__906392df888a90604401602060405180830381865af4158015611d05573d6000803e3d6000fd5b505050506040513d601f19601f82011682018060405250810190611d299190615915565b611d815760405162461bcd60e51b815260206004820152602360248201527f42617365526567697374726174696f6e3a2063616e6e6f74206465616374697660448201526261746560e81b6064820152608401610ad3565b816001600160a01b03166351b42b006040518163ffffffff1660e01b8152600401600060405180830381600087803b158015611dbc57600080fd5b505af1158015611dd0573d6000803e3d6000fd5b50506040516001600160a01b03851692507f7709ffacb019fa83579ef81329b77183a5cf551288b670f2e66208f4e878001e9150600090a25050565b6000600080516020615efd833981519152611e3681600080516020615f3d83398151915233614973565b611e525760405162461bcd60e51b8152600401610ad390615832565b611e5a6149a0565b600080516020615f5d833981519152805460ff16611e8a5760405162461bcd60e51b8152600401610ad39061587e565b60208401516001600160a01b0316611efa5760405162461bcd60e51b815260206004820152602d60248201527f576f726c64305f323a20617661746172206f776e65722063616e6e6f7420626560448201526c207a65726f206164647265737360981b6064820152608401610ad3565b600084606001515111611f615760405162461bcd60e51b815260206004820152602960248201527f576f726c64305f323a2061766174617220757365726e616d652063616e6e6f7460448201526820626520656d70747960b81b6064820152608401610ad3565b6000611f6b612d6d565b90506001600160a01b0381161561204b57604051633e6ff77160e21b81526001600160a01b0382169063f9bfddc490611fa8908890600401615bc6565b6020604051808303816000875af1158015611fc7573d6000803e3d6000fd5b505050506040513d601f19601f82011682018060405250810190611feb9190615915565b61204b5760405162461bcd60e51b815260206004820152602b60248201527f576f726c64305f323a20686f6f6b2072656a656374656420617661746172207260448201526a32b3b4b9ba3930ba34b7b760a91b6064820152608401610ad3565b7f00000000000000000000000000000000000000000000000000000000000000006001600160a01b0316637610bfcb604051806080016040528088602001516001600160a01b0316815260200188604001516001600160a01b031681526020018860600151815260200188608001518152506040518263ffffffff1660e01b81526004016120d99190615c2d565b6020604051808303816000875af11580156120f8573d6000803e3d6000fd5b505050506040513d601f19601f8201168201806040525081019061211c91906159c3565b935034156121a35784511561216c5760208501516040516001600160a01b03909116903480156108fc02916000818181858888f19350505050158015612166573d6000803e3d6000fd5b506121a3565b6040516001600160a01b038516903480156108fc02916000818181858888f193505050501580156121a1573d6000803e3d6000fd5b505b6121bb600080516020615edd833981519152856149ca565b84604001516001600160a01b0316846001600160a01b03167f118b4b90c37ff03a6eb973868a8ec4f511f304ebfc3a5c41db35ab9904346beb60405160405180910390a3505061108b6001600055565b600073__$d81eab81c4f96e94de97b51155a369ac43$__6386d5c4be6040518163ffffffff1660e01b8152600401602060405180830381865af4158015612256573d6000803e3d6000fd5b505050506040513d601f19601f8201168201806040525081019061227a9190615bad565b604051637edcd54b60e01b815260048101919091526001600160a01b038316602482015273__$d81eab81c4f96e94de97b51155a369ac43$__90637edcd54b906044015b602060405180830381865af41580156122db573d6000803e3d6000fd5b505050506040513d601f19601f820116820180604052508101906122ff9190615bad565b92915050565b7f00000000000000000000000000000000000000000000000000000000000000006001600160a01b031661237b5760405162461bcd60e51b815260206004820152601f60248201527f576f726c64305f323a20776f726c645265676973747279206e6f7420736574006044820152606401610ad3565b336001600160a01b037f000000000000000000000000000000000000000000000000000000000000000016146123f35760405162461bcd60e51b815260206004820181905260248201527f576f726c64305f323a2063616c6c6572206973206e6f742072656769737472796044820152606401610ad3565b600080516020615f5d833981519152805460ff1916815547156124515780546040516001600160a01b0361010090920491909116904780156108fc02916000818181858888f1935050505015801561244f573d6000803e3d6000fd5b505b6040517fa03cf86198f16bde0a2664860b009fb33cb8a6078b75d663d3efa339487fd4f790600090a150565b60007f00000000000000000000000000000000000000000000000000000000000000006001600160a01b03166124c55760405162461bcd60e51b8152600401610ad390615c69565b604051632405672560e21b81523360048201527f00000000000000000000000000000000000000000000000000000000000000006001600160a01b0316906390159c9490602401602060405180830381865afa158015612529573d6000803e3d6000fd5b505050506040513d601f19601f8201168201806040525081019061254d9190615915565b6125995760405162461bcd60e51b815260206004820152601f60248201527f576f726c64305f323a2063616c6c6572206973206e6f7420636f6d70616e79006044820152606401610ad3565b6125a16149a0565b306001600160a01b0316336001600160a01b03166330b67baa6040518163ffffffff1660e01b8152600401602060405180830381865afa1580156125e9573d6000803e3d6000fd5b505050506040513d601f19601f8201168201806040525081019061260d91906159c3565b6001600160a01b0316146126335760405162461bcd60e51b8152600401610ad390615a05565b600061263d612d6d565b90506001600160a01b0381161561271e5760405163536e24fd60e01b81526001600160a01b03848116600483015282169063536e24fd906024016020604051808303816000875af1158015612696573d6000803e3d6000fd5b505050506040513d601f19601f820116820180604052508101906126ba9190615915565b61271e5760405162461bcd60e51b815260206004820152602f60248201527f576f726c64305f323a20686f6f6b2072656a656374656420657870657269656e60448201526e31b2903232b0b1ba34bb30ba34b7b760891b6064820152608401610ad3565b604051636dd70bbf60e01b81523360048201526001600160a01b0384811660248301527f00000000000000000000000000000000000000000000000000000000000000001690636dd70bbf906044016020604051808303816000875af115801561278c573d6000803e3d6000fd5b505050506040513d601f19601f820116820180604052508101906127b09190615bad565b9150506127bd6001600055565b919050565b600073__$d81eab81c4f96e94de97b51155a369ac43$__6386d5c4be6040518163ffffffff1660e01b8152600401602060405180830381865af415801561280d573d6000803e3d6000fd5b505050506040513d601f19601f820116820180604052508101906128319190615bad565b60405163034eb5ed60e61b815260048101919091526001600160a01b038316602482015273__$d81eab81c4f96e94de97b51155a369ac43$__9063d3ad7b40906044016122be565b6000612883612d6d565b90506001600160a01b0381161561294a5760405163064c7a5d60e01b81526001600160a01b03838116600483015282169063064c7a5d906024016020604051808303816000875af11580156128dc573d6000803e3d6000fd5b505050506040513d601f19601f820116820180604052508101906129009190615915565b61294a5760405162461bcd60e51b81526020600482015260276024820152600080516020615f7d8339815191526044820152661c995b995dd85b60ca1b6064820152608401610ad3565b611309600080516020615f1d83398151915283614b92565b61296b33614b6c565b6129875760405162461bcd60e51b8152600401610ad390615adc565b73__$d81eab81c4f96e94de97b51155a369ac43$__6386d5c4be6040518163ffffffff1660e01b8152600401602060405180830381865af41580156129d0573d6000803e3d6000fd5b505050506040513d601f19601f820116820180604052508101906129f49190615bad565b604051633ca52ad360e11b815273__$d81eab81c4f96e94de97b51155a369ac43$__9163794a55a691612a2e919086908690600401615caa565b60006040518083038186803b158015612a4657600080fd5b505af4158015612a5a573d6000803e3d6000fd5b505050505050565b612a8660405180606001604052806000815260200160008152602001600081525090565b73__$d81eab81c4f96e94de97b51155a369ac43$__6386d5c4be6040518163ffffffff1660e01b8152600401602060405180830381865af4158015612acf573d6000803e3d6000fd5b505050506040513d601f19601f82011682018060405250810190612af39190615bad565b6040516343b8717f60e11b815260048101919091526024810183905273__$d81eab81c4f96e94de97b51155a369ac43$__90638770e2fe906044015b606060405180830381865af4158015612b4c573d6000803e3d6000fd5b505050506040513d601f19601f820116820180604052508101906122ff9190615ce1565b600073__$d81eab81c4f96e94de97b51155a369ac43$__6386d5c4be6040518163ffffffff1660e01b8152600401602060405180830381865af4158015612bbb573d6000803e3d6000fd5b505050506040513d601f19601f82011682018060405250810190612bdf9190615bad565b604051632ca4e79b60e01b8152600481018290526001600160a01b038416602482015290915073__$d81eab81c4f96e94de97b51155a369ac43$__90632ca4e79b90604401602060405180830381865af4158015612c41573d6000803e3d6000fd5b505050506040513d601f19601f82011682018060405250810190612c659190615915565b612cb15760405162461bcd60e51b815260206004820152601f60248201527f42617365526567697374726174696f6e3a2063616e6e6f742072656d6f7665006044820152606401610ad3565b816001600160a01b03166351b42b006040518163ffffffff1660e01b8152600401600060405180830381600087803b158015612cec57600080fd5b505af1158015612d00573d6000803e3d6000fd5b50506040516001600160a01b03851692507f24a12366c02e13fe4a9e03d86a8952e85bb74a456c16e4a18b6d8295700b74bb9150600090a25050565b6000600080516020615efd833981519152612d6681600080516020615f3d83398151915285614973565b9392505050565b60007f2914b2bb01114b5159800e543f6c1279819fc613124831d49682628c159b8a386040516364cff67f60e11b8152600481019190915273__$b33bdc01aa0b2bf845e7e40ceebecaaf7e$__9063c99fecfe90602401602060405180830381865af4158015612de1573d6000803e3d6000fd5b505050506040513d601f19601f82011682018060405250810190612e0591906159c3565b905090565b600080516020615efd833981519152612e3281600080516020615f3d83398151915233614973565b612e4e5760405162461bcd60e51b8152600401610ad390615832565b612e566149a0565b6000612e60612d6d565b90506001600160a01b03811615612f2c576040516308ca6c9160e11b81526001600160a01b038481166004830152821690631194d922906024016020604051808303816000875af1158015612eb9573d6000803e3d6000fd5b505050506040513d601f19601f82011682018060405250810190612edd9190615915565b612f2c5760405162461bcd60e51b815260206004820152602c6024820152600080516020615f7d83398151915260448201526b3232b0b1ba34bb30ba34b7b760a11b6064820152608401610ad3565b6000839050306001600160a01b0316816001600160a01b03166330b67baa6040518163ffffffff1660e01b8152600401602060405180830381865afa158015612f79573d6000803e3d6000fd5b505050506040513d601f19601f82011682018060405250810190612f9d91906159c3565b6001600160a01b031614612fc35760405162461bcd60e51b8152600401610ad390615a05565b6040516341f002fd60e11b81526001600160a01b0385811660048301527f000000000000000000000000000000000000000000000000000000000000000016906383e005fa90602401600060405180830381600087803b15801561302657600080fd5b505af115801561303a573d6000803e3d6000fd5b50506040516001600160a01b03871692507fb6f91f8aac9f1a8ac7317d2353dca44fac33d0118ae749067a8107c41b6e158d9150600090a250506113096001600055565b600080516020615efd8339815191526130a681600080516020615f9d83398151915233614973565b6130c25760405162461bcd60e51b8152600401610ad390615a62565b6130cc8383614de4565b505050565b60006130db612d6d565b90506001600160a01b038116156131b35760405163394d2dd560e21b81526001600160a01b03838116600483015282169063e534b754906024016020604051808303816000875af1158015613134573d6000803e3d6000fd5b505050506040513d601f19601f820116820180604052508101906131589190615915565b6131b35760405162461bcd60e51b815260206004820152602660248201527f576f726c64305f323a20686f6f6b2072656a6563746564206176617461722072604482015265195b995dd85b60d21b6064820152608401610ad3565b611309600080516020615edd83398151915283614b92565b600080516020615efd8339815191526131f381600080516020615f3d83398151915233614973565b61320f5760405162461bcd60e51b8152600401610ad390615832565b600080516020615f5d833981519152805460ff1661323f5760405162461bcd60e51b8152600401610ad39061587e565b6132476149a0565b6000613251612d6d565b90506001600160a01b0381161561331d57604051634395506d60e11b81526001600160a01b03858116600483015282169063872aa0da906024016020604051808303816000875af11580156132aa573d6000803e3d6000fd5b505050506040513d601f19601f820116820180604052508101906132ce9190615915565b61331d5760405162461bcd60e51b815260206004820152602c6024820152600080516020615f7d83398151915260448201526b3932b0b1ba34bb30ba34b7b760a11b6064820152608401610ad3565b6000849050306001600160a01b0316816001600160a01b03166330b67baa6040518163ffffffff1660e01b8152600401602060405180830381865afa15801561336a573d6000803e3d6000fd5b505050506040513d601f19601f8201168201806040525081019061338e91906159c3565b6001600160a01b0316146133b45760405162461bcd60e51b8152600401610ad390615a05565b604051632863357360e21b81526001600160a01b0386811660048301527f0000000000000000000000000000000000000000000000000000000000000000169063a18cd5cc90602401600060405180830381600087803b15801561341757600080fd5b505af115801561342b573d6000803e3d6000fd5b50506040516001600160a01b03881692507fb4a7f68ad1950fa37a0e8002ea6b109f2ee2b7a6539909dc27463fe5200dc71c9150600090a250506130cc6001600055565b600073__$d81eab81c4f96e94de97b51155a369ac43$__6386d5c4be6040518163ffffffff1660e01b8152600401602060405180830381865af41580156134ba573d6000803e3d6000fd5b505050506040513d601f19601f820116820180604052508101906134de9190615bad565b604051632ca4e79b60e01b815260048101919091526001600160a01b038316602482015273__$d81eab81c4f96e94de97b51155a369ac43$__90632ca4e79b906044015b602060405180830381865af415801561353f573d6000803e3d6000fd5b505050506040513d601f19601f820116820180604052508101906122ff9190615915565b7f00000000000000000000000000000000000000000000000000000000000000006001600160a01b03166135d95760405162461bcd60e51b815260206004820152601e60248201527f576f726c64305f323a20776f726c64466163746f7279206e6f742073657400006044820152606401610ad3565b336001600160a01b037f000000000000000000000000000000000000000000000000000000000000000016146136515760405162461bcd60e51b815260206004820152601f60248201527f576f726c64305f323a2063616c6c6572206973206e6f7420666163746f7279006044820152606401610ad3565b6020810151600080516020615efd833981519152906001600160a01b03166136ca5760405162461bcd60e51b815260206004820152602660248201527f576f726c64305f323a206f776e65722063616e6e6f74206265207a65726f206160448201526564647265737360d01b6064820152608401610ad3565b6040820151515160000361372e5760405162461bcd60e51b815260206004820152602560248201527f576f726c64305f323a2062617365566563746f722e782063616e6e6f74206265604482015264207a65726f60d81b6064820152608401610ad3565b816040015160200151516000036137955760405162461bcd60e51b815260206004820152602560248201527f576f726c64305f323a2062617365566563746f722e792063616e6e6f74206265604482015264207a65726f60d81b6064820152608401610ad3565b816040015160400151516000036137fc5760405162461bcd60e51b815260206004820152602560248201527f576f726c64305f323a2062617365566563746f722e7a2063616e6e6f74206265604482015264207a65726f60d81b6064820152608401610ad3565b6040820151608001511561385e5760405162461bcd60e51b815260206004820152602360248201527f576f726c64305f323a2062617365566563746f722e70206d757374206265207a60448201526265726f60e81b6064820152608401610ad3565b604082015160a00151156138c45760405162461bcd60e51b815260206004820152602760248201527f576f726c64305f323a2062617365566563746f722e705f737562206d757374206044820152666265207a65726f60c81b6064820152608401610ad3565b6000826060015151116139195760405162461bcd60e51b815260206004820152601e60248201527f576f726c64305f323a206e616d652063616e6e6f7420626520656d70747900006044820152606401610ad3565b6020820151600080516020615f5d83398151915280546001600160a01b0390921661010002610100600160a81b0319909216919091178155604083015180517f018094a5c698d39f5a1777dfa75256119b9e23c0347c2bc3f62bda742ebf5a7a9081906139869082615d65565b506020820151600182019061399b9082615d65565b50604082015160028201906139b09082615d65565b5060608281015160038301556080830151600483015560a09092015160059091015583015160088201906139e49082615d65565b506000600982015582516001820180546001600160a01b0319166001600160a01b039283161790558154613a30918491600080516020615f9d8339815191529161010090910416614ed0565b8054613a5b908390600080516020615f3d8339815191529061010090046001600160a01b0316614ed0565b60c08301516040516316b84ea560e21b81523091635ae13a9491613a9191600080516020615f1d83398151915291600401615e24565b600060405180830381600087803b158015613aab57600080fd5b505af1158015613abf573d6000803e3d6000fd5b5050505060e08301516040516316b84ea560e21b81523091635ae13a9491613af991600080516020615edd83398151915291600401615e24565b600060405180830381600087803b158015613b1357600080fd5b505af1158015613b27573d6000803e3d6000fd5b50505050505050565b600073__$d81eab81c4f96e94de97b51155a369ac43$__6386d5c4be6040518163ffffffff1660e01b8152600401602060405180830381865af4158015613b7b573d6000803e3d6000fd5b505050506040513d601f19601f82011682018060405250810190613b9f9190615bad565b60405163496fc44560e11b815260048101919091526001600160a01b038316602482015273__$d81eab81c4f96e94de97b51155a369ac43$__906392df888a90604401613522565b60004273__$d81eab81c4f96e94de97b51155a369ac43$__6386d5c4be6040518163ffffffff1660e01b8152600401602060405180830381865af4158015613c33573d6000803e3d6000fd5b505050506040513d601f19601f82011682018060405250810190613c579190615bad565b604051637edcd54b60e01b815260048101919091526001600160a01b038416602482015273__$d81eab81c4f96e94de97b51155a369ac43$__90637edcd54b90604401602060405180830381865af4158015613cb7573d6000803e3d6000fd5b505050506040513d601f19601f82011682018060405250810190613cdb9190615bad565b1092915050565b600073__$d81eab81c4f96e94de97b51155a369ac43$__6386d5c4be6040518163ffffffff1660e01b8152600401602060405180830381865af4158015613d2d573d6000803e3d6000fd5b505050506040513d601f19601f82011682018060405250810190613d519190615bad565b6040516353f9752960e01b815260048101919091526001600160a01b038316602482015273__$d81eab81c4f96e94de97b51155a369ac43$__906353f9752990604401613522565b6000807f00000000000000000000000000000000000000000000000000000000000000006001600160a01b0316613de25760405162461bcd60e51b8152600401610ad390615c69565b604051632405672560e21b81523360048201527f00000000000000000000000000000000000000000000000000000000000000006001600160a01b0316906390159c9490602401602060405180830381865afa158015613e46573d6000803e3d6000fd5b505050506040513d601f19601f82011682018060405250810190613e6a9190615915565b613eb65760405162461bcd60e51b815260206004820152601f60248201527f576f726c64305f323a2063616c6c6572206973206e6f7420636f6d70616e79006044820152606401610ad3565b600080516020615f5d833981519152805460ff16613ee65760405162461bcd60e51b8152600401610ad39061587e565b613eee6149a0565b60208401516001600160a01b03163314613f655760405162461bcd60e51b815260206004820152603260248201527f576f726c64305f323a2063616c6c657220646f6573206e6f74206d617463682060448201527118dbdb5c185b9e481a5b881c995c5d595cdd60721b6064820152608401610ad3565b306001600160a01b0316336001600160a01b03166330b67baa6040518163ffffffff1660e01b8152600401602060405180830381865afa158015613fad573d6000803e3d6000fd5b505050506040513d601f19601f82011682018060405250810190613fd191906159c3565b6001600160a01b031614613ff75760405162461bcd60e51b8152600401610ad390615a05565b835160a0015161406f5760405162461bcd60e51b815260206004820152603c60248201527f576f726c64305f323a20705f737562206d757374206e6f74206265207a65726f60448201527f20666f7220657870657269656e636520726567697374726174696f6e000000006064820152608401610ad3565b6000614079612d6d565b90506001600160a01b0381161561415d57604051632c2e54af60e01b81526001600160a01b03821690632c2e54af906140b6908890600401615e4c565b6020604051808303816000875af11580156140d5573d6000803e3d6000fd5b505050506040513d601f19601f820116820180604052508101906140f99190615915565b61415d5760405162461bcd60e51b815260206004820152602f60248201527f576f726c64305f323a20686f6f6b2072656a656374656420657870657269656e60448201526e31b2903932b3b4b9ba3930ba34b7b760891b6064820152608401610ad3565b6000807f00000000000000000000000000000000000000000000000000000000000000006001600160a01b031663c4d453c2886040518263ffffffff1660e01b81526004016141ac9190615e4c565b60408051808303816000875af11580156141ca573d6000803e3d6000fd5b505050506040513d601f19601f820116820180604052508101906141ee9190615e98565b915091508087602001516001600160a01b0316836001600160a01b03167fb1ffa3fb5eb8fc3f04e75f6e99aa96c5f27a31a456be69fc2f303e93791c836f60405160405180910390a49094509250506142476001600055565b50915091565b7f00000000000000000000000000000000000000000000000000000000000000006001600160a01b03166142c35760405162461bcd60e51b815260206004820152601f60248201527f576f726c64305f323a20776f726c645265676973747279206e6f7420736574006044820152606401610ad3565b336001600160a01b037f0000000000000000000000000000000000000000000000000000000000000000161461433b5760405162461bcd60e51b815260206004820181905260248201527f576f726c64305f323a2063616c6c6572206973206e6f742072656769737472796044820152606401610ad3565b600080516020615f5d833981519152805460ff191660011781556040517fa60865f4fce57eb73336697d0dc6f9864110509c5ae2452c442a02d3b342835290600090a150565b7f00000000000000000000000000000000000000000000000000000000000000006001600160a01b03166144035760405162461bcd60e51b815260206004820152602360248201527f576f726c64305f323a207265676973747261725265676973747279206e6f74206044820152621cd95d60ea1b6064820152608401610ad3565b336001600160a01b037f0000000000000000000000000000000000000000000000000000000000000000161461448d5760405162461bcd60e51b815260206004820152602960248201527f576f726c64305f323a2063616c6c6572206973206e6f7420726567697374726160448201526872526567697374727960b81b6064820152608401610ad3565b6000614497612d6d565b90506001600160a01b038116156145e857806001600160a01b031663f733d234306001600160a01b0316632b20e3976040518163ffffffff1660e01b8152600401602060405180830381865afa1580156144f5573d6000803e3d6000fd5b505050506040513d601f19601f8201168201806040525081019061451991906159c3565b6040516001600160e01b031960e084901b1681526001600160a01b03918216600482015290851660248201526044016020604051808303816000875af1158015614567573d6000803e3d6000fd5b505050506040513d601f19601f8201168201806040525081019061458b9190615915565b6145e85760405162461bcd60e51b815260206004820152602860248201527f576f726c64305f323a20686f6f6b2072656a656374656420726567697374726160448201526772206368616e676560c01b6064820152608401610ad3565b7f018094a5c698d39f5a1777dfa75256119b9e23c0347c2bc3f62bda742ebf5a7980546001600160a01b0319166001600160a01b0384169081179091556040517fefcffb6d0ab3c30fafff1d6c087d11bd547fcc98ce47e5d13f8eaa6c7fea98fe90600090a25050565b600061465c612d6d565b90506001600160a01b0381161561472b57806001600160a01b0316638ea374076040518163ffffffff1660e01b81526004016020604051808303816000875af11580156146ad573d6000803e3d6000fd5b505050506040513d601f19601f820116820180604052508101906146d19190615915565b61472b5760405162461bcd60e51b815260206004820152602560248201527f576f726c64305f323a20686f6f6b2072656a656374656420776f726c642072656044820152641b995dd85b60da1b6064820152608401610ad3565b600080516020615f5d83398151915260010154604051638748a82d60e01b81523060048201526001600160a01b0390911690638748a82d9034906024016000604051808303818588803b15801561478157600080fd5b505af1158015612a5a573d6000803e3d6000fd5b600073__$d81eab81c4f96e94de97b51155a369ac43$__6386d5c4be6040518163ffffffff1660e01b8152600401602060405180830381865af41580156147e0573d6000803e3d6000fd5b505050506040513d601f19601f820116820180604052508101906148049190615bad565b60405163b76ee61f60e01b815260048101919091526001600160a01b038316602482015273__$d81eab81c4f96e94de97b51155a369ac43$__9063b76ee61f90604401613522565b600080516020615efd83398151915261487481600080516020615f9d83398151915233614973565b6148905760405162461bcd60e51b8152600401610ad390615a62565b6130cc8383614f03565b6148be60405180606001604052806000815260200160008152602001600081525090565b73__$d81eab81c4f96e94de97b51155a369ac43$__6386d5c4be6040518163ffffffff1660e01b8152600401602060405180830381865af4158015614907573d6000803e3d6000fd5b505050506040513d601f19601f8201168201806040525081019061492b9190615bad565b604051630cc5aa5b60e41b815260048101919091526001600160a01b038316602482015273__$d81eab81c4f96e94de97b51155a369ac43$__9063cc5aa5b090604401612b2f565b6000918252600192909201602090815260408083206001600160a01b039094168352929052205460ff1690565b6002600054036149c357604051633ee5aeb560e01b815260040160405180910390fd5b6002600055565b73__$d81eab81c4f96e94de97b51155a369ac43$__6386d5c4be6040518163ffffffff1660e01b8152600401602060405180830381865af4158015614a13573d6000803e3d6000fd5b505050506040513d601f19601f82011682018060405250810190614a379190615bad565b6040516332fee6bf60e11b81526004810191909152602481018390526001600160a01b038216604482015273__$d81eab81c4f96e94de97b51155a369ac43$__906365fdcd7e90606401612a2e565b73__$d81eab81c4f96e94de97b51155a369ac43$__6386d5c4be6040518163ffffffff1660e01b8152600401602060405180830381865af4158015614acf573d6000803e3d6000fd5b505050506040513d601f19601f82011682018060405250810190614af39190615bad565b60405160016250b81f60e01b0319815260048101919091526001600160a01b038216602482015273__$d81eab81c4f96e94de97b51155a369ac43$__9063ffaf47e19060440160006040518083038186803b158015614b5157600080fd5b505af4158015614b65573d6000803e3d6000fd5b5050505050565b600080516020615f5d8339815191525461010090046001600160a01b0390811691161490565b600073__$d81eab81c4f96e94de97b51155a369ac43$__6386d5c4be6040518163ffffffff1660e01b8152600401602060405180830381865af4158015614bdd573d6000803e3d6000fd5b505050506040513d601f19601f82011682018060405250810190614c019190615bad565b6040516353f9752960e01b8152600481018290526001600160a01b038416602482015290915073__$d81eab81c4f96e94de97b51155a369ac43$__906353f9752990604401602060405180830381865af4158015614c63573d6000803e3d6000fd5b505050506040513d601f19601f82011682018060405250810190614c879190615915565b614cd35760405162461bcd60e51b815260206004820181905260248201527f42617365526567697374726174696f6e3a206e6f7420726567697374657265646044820152606401610ad3565b600083815260208290526040902054341015614d015760405162461bcd60e51b8152600401610ad390615b21565b73__$d81eab81c4f96e94de97b51155a369ac43$__6386d5c4be6040518163ffffffff1660e01b8152600401602060405180830381865af4158015614d4a573d6000803e3d6000fd5b505050506040513d601f19601f82011682018060405250810190614d6e9190615bad565b604051633eb6fb8760e01b81526004810191909152602481018490526001600160a01b038316604482015273__$d81eab81c4f96e94de97b51155a369ac43$__90633eb6fb879060640160006040518083038186803b158015614dd057600080fd5b505af4158015613b27573d6000803e3d6000fd5b600080516020615efd83398151915260005b82811015614eca57614e66600080516020615f3d833981519152858584818110614e2257614e22615ec6565b9050602002016020810190614e3791906152de565b600091825260018501602090815260408084206001600160a01b0390931684529190529020805460ff19169055565b838382818110614e7857614e78615ec6565b9050602002016020810190614e8d91906152de565b6001600160a01b03167f3525e22824a8a7df2c9a6029941c824cf95b6447f1e13d5128fd3826d35afe8b60405160405180910390a2600101614df6565b50505050565b60009182526001928301602090815260408084206001600160a01b0390931684529190529020805460ff19169091179055565b600080516020615efd83398151915260005b82811015614eca576000848483818110614f3157614f31615ec6565b9050602002016020810190614f4691906152de565b6001600160a01b031603614fa65760405162461bcd60e51b815260206004820152602160248201527f4261736550726f78793a207369676e6572206973207a65726f206164647265736044820152607360f81b6064820152608401610ad3565b614fe7600080516020615f3d833981519152858584818110614fca57614fca615ec6565b9050602002016020810190614fdf91906152de565b849190614ed0565b838382818110614ff957614ff9615ec6565b905060200201602081019061500e91906152de565b6001600160a01b03167f47d1c22a25bb3a5d4e481b9b1e6944c2eade3181a0a20b495ed61d35b5323f2460405160405180910390a2600101614f15565b6000815180845260005b8181101561507157602081850181015186830182015201615055565b506000602082860101526020601f19601f83011685010191505092915050565b602081526000612d66602083018461504b565b634e487b7160e01b600052604160045260246000fd5b604051608081016001600160401b03811182821017156150dc576150dc6150a4565b60405290565b60405160a081016001600160401b03811182821017156150dc576150dc6150a4565b604051606081016001600160401b03811182821017156150dc576150dc6150a4565b60405160c081016001600160401b03811182821017156150dc576150dc6150a4565b60405161010081016001600160401b03811182821017156150dc576150dc6150a4565b801515811461517957600080fd5b50565b6001600160a01b038116811461517957600080fd5b80356127bd8161517c565b600082601f8301126151ad57600080fd5b81356001600160401b03808211156151c7576151c76150a4565b604051601f8301601f19908116603f011681019082821181831017156151ef576151ef6150a4565b8160405283815286602085880101111561520857600080fd5b836020870160208301376000602085830101528094505050505092915050565b60006020828403121561523a57600080fd5b81356001600160401b038082111561525157600080fd5b908301906080828603121561526557600080fd5b61526d6150ba565b82356152788161516b565b815260208301356152888161517c565b602082015260408301358281111561529f57600080fd5b6152ab8782860161519c565b6040830152506060830135828111156152c357600080fd5b6152cf8782860161519c565b60608301525095945050505050565b6000602082840312156152f057600080fd5b8135612d668161517c565b6000806020838503121561530e57600080fd5b82356001600160401b038082111561532557600080fd5b818501915085601f83011261533957600080fd5b81358181111561534857600080fd5b86602082850101111561535a57600080fd5b60209290920196919550909350505050565b60006020828403121561537e57600080fd5b5035919050565b6000815160c0845261539a60c085018261504b565b9050602083015184820360208601526153b3828261504b565b915050604083015184820360408601526153cd828261504b565b915050606083015160608501526080830151608085015260a083015160a08501528091505092915050565b602081526000612d666020830184615385565b60006020828403121561541d57600080fd5b81356001600160401b038082111561543457600080fd5b9083019060a0828603121561544857600080fd5b6154506150e2565b823561545b8161516b565b8152602083013561546b8161517c565b602082015261547c60408401615191565b604082015260608301358281111561549357600080fd5b61549f8782860161519c565b6060830152506080830135828111156154b757600080fd5b6154c38782860161519c565b60808301525095945050505050565b6000606082840312156154e457600080fd5b6154ec615104565b905081358152602082013560208201526040820135604082015292915050565b6000806080838503121561551f57600080fd5b8235915061553084602085016154d2565b90509250929050565b815181526020808301519082015260408083015190820152606081016122ff565b6000806020838503121561556d57600080fd5b82356001600160401b038082111561558457600080fd5b818501915085601f83011261559857600080fd5b8135818111156155a757600080fd5b8660208260051b850101111561535a57600080fd5b600060c082840312156155ce57600080fd5b6155d6615126565b905081356001600160401b03808211156155ef57600080fd5b6155fb8583860161519c565b8352602084013591508082111561561157600080fd5b61561d8583860161519c565b6020840152604084013591508082111561563657600080fd5b506156438482850161519c565b604083015250606082013560608201526080820135608082015260a082013560a082015292915050565b60006020828403121561567f57600080fd5b81356001600160401b038082111561569657600080fd5b9083019061018082860312156156ab57600080fd5b6156b3615148565b6156bc83615191565b81526156ca60208401615191565b60208201526040830135828111156156e157600080fd5b6156ed878286016155bc565b60408301525060608301358281111561570557600080fd5b6157118782860161519c565b60608301525060808301358281111561572957600080fd5b6157358782860161519c565b60808301525060a08301358281111561574d57600080fd5b6157598782860161519c565b60a08301525061576c8660c085016154d2565b60c082015261577f8661012085016154d2565b60e082015295945050505050565b60006020828403121561579f57600080fd5b81356001600160401b03808211156157b657600080fd5b90830190608082860312156157ca57600080fd5b6157d26150ba565b8235828111156157e157600080fd5b6157ed878286016155bc565b82525060208301356152888161517c565b600181811c9082168061581257607f821691505b60208210810361108b57634e487b7160e01b600052602260045260246000fd5b6020808252602c908201527f426173654163636573733a2063616c6c657220646f6573206e6f74206861766560408201526b207369676e657220726f6c6560a01b606082015260800190565b6020808252601d908201527f576f726c64305f323a20776f726c64206973206e6f7420616374697665000000604082015260600190565b6020815281511515602082015260018060a01b03602083015116604082015260006040830151608060608401526158ef60a084018261504b565b90506060840151601f1984830301608085015261590c828261504b565b95945050505050565b60006020828403121561592757600080fd5b8151612d668161516b565b60006001820161595257634e487b7160e01b600052601160045260246000fd5b5060010190565b602080825282516001600160a01b0316828201528201516080604083015260009061598760a0840182615385565b90506040840151601f19808584030160608601526159a5838361504b565b925060608601519150808584030160808601525061590c828261504b565b6000602082840312156159d557600080fd5b8151612d668161517c565b6040815260006159f36040830185615385565b828103602084015261590c818561504b565b6020808252603a908201527f576f726c64305f323a20636f6d70616e7920776f726c6420646f6573206e6f7460408201527f206d61746368207468697320776f726c6420636f6e7472616374000000000000606082015260800190565b6020808252602b908201527f426173654163636573733a2063616c6c657220646f6573206e6f74206861766560408201526a2061646d696e20726f6c6560a81b606082015260800190565b60208152816020820152818360408301376000818301604090810191909152601f909201601f19160101919050565b60208082526025908201527f42617365526567697374726174696f6e3a2063616c6c6572206973206e6f742060408201526430b236b4b760d91b606082015260800190565b60208082526024908201527f42617365526567697374726174696f6e3a20696e73756666696369656e742066604082015263756e647360e01b606082015260800190565b60208082526028908201527f42617365486f6f6b537570706f72743a2063616c6c6572206973206e6f74207460408201526734329030b236b4b760c11b606082015260800190565b600060208284031215615bbf57600080fd5b5051919050565b602081528151151560208201526000602083015160018060a01b0380821660408501528060408601511660608501525050606083015160a06080840152615c1060c084018261504b565b90506080840151601f198483030160a085015261590c828261504b565b60208152600060018060a01b03808451166020840152806020850151166040840152506040830151608060608401526158ef60a084018261504b565b60208082526021908201527f576f726c64305f323a20636f6d70616e795265676973747279206e6f742073656040820152601d60fa1b606082015260800190565b8381526020810183905260a08101615cd960408301848051825260208082015190830152604090810151910152565b949350505050565b600060608284031215615cf357600080fd5b615cfb615104565b8251815260208301516020820152604083015160408201528091505092915050565b601f8211156130cc576000816000526020600020601f850160051c81016020861015615d465750805b601f850160051c820191505b81811015612a5a57828155600101615d52565b81516001600160401b03811115615d7e57615d7e6150a4565b615d9281615d8c84546157fe565b84615d1d565b602080601f831160018114615dc75760008415615daf5750858301515b600019600386901b1c1916600185901b178555612a5a565b600085815260208120601f198616915b82811015615df657888601518255948401946001909101908401615dd7565b5085821015615e145787850151600019600388901b60f8161c191681555b5050505050600190811b01905550565b82815260808101612d6660208301848051825260208082015190830152604090810151910152565b602081526000825160806020840152615e6860a0840182615385565b905060018060a01b0360208501511660408401526040840151601f19808584030160608601526159a5838361504b565b60008060408385031215615eab57600080fd5b8251615eb68161517c565b6020939093015192949293505050565b634e487b7160e01b600052603260045260246000fdfea9db7cc5b8620c32838ea4dc37f66d354e1a3367e7288c0a424bc60f7381fb3969198989339f34e10129e514286bde98979351148754faef989dde18bf6d14da5a5c1214353fbd909aa93944f9a1094ec62c5793e674826027a9fc5c58bf1c23e2f4eaae4a9751e85a3e4a7b9587827a877f29914755229b07a7b2da98285f70018094a5c698d39f5a1777dfa75256119b9e23c0347c2bc3f62bda742ebf5a78576f726c64305f323a20686f6f6b2072656a656374656420636f6d70616e7920a49807205ce4d355092ef5a8a18f56e8913cf4a201fbe287825b095693c21775a2646970667358221220adc9f041e75c4be18a2c3514bc6a549cf95d6fe1ae766fd969e8f69369ec0ff764736f6c63430008180033",
  "linkReferences": {
    "contracts/libraries/LibHooks.sol": {
      "LibHooks": [
        {
          "length": 20,
          "start": 7233
        },
        {
          "length": 20,
          "start": 8116
        },
        {
          "length": 20,
          "start": 8373
        },
        {
          "length": 20,
          "start": 12981
        }
      ]
    },
    "contracts/libraries/LibRegistration.sol": {
      "LibRegistration": [
        {
          "length": 20,
          "start": 8518
        },
        {
          "length": 20,
          "start": 8665
        },
        {
          "length": 20,
          "start": 10013
        },
        {
          "length": 20,
          "start": 10158
        },
        {
          "length": 20,
          "start": 11476
        },
        {
          "length": 20,
          "start": 11621
        },
        {
          "length": 20,
          "start": 11927
        },
        {
          "length": 20,
          "start": 12049
        },
        {
          "length": 20,
          "start": 12182
        },
        {
          "length": 20,
          "start": 12319
        },
        {
          "length": 20,
          "start": 12418
        },
        {
          "length": 20,
          "start": 12565
        },
        {
          "length": 20,
          "start": 14721
        },
        {
          "length": 20,
          "start": 14866
        },
        {
          "length": 20,
          "start": 16450
        },
        {
          "length": 20,
          "start": 16595
        },
        {
          "length": 20,
          "start": 16634
        },
        {
          "length": 20,
          "start": 16779
        },
        {
          "length": 20,
          "start": 16884
        },
        {
          "length": 20,
          "start": 17029
        },
        {
          "length": 20,
          "start": 19623
        },
        {
          "length": 20,
          "start": 19768
        },
        {
          "length": 20,
          "start": 19918
        },
        {
          "length": 20,
          "start": 20063
        },
        {
          "length": 20,
          "start": 20186
        },
        {
          "length": 20,
          "start": 20338
        },
        {
          "length": 20,
          "start": 20374
        },
        {
          "length": 20,
          "start": 20522
        },
        {
          "length": 20,
          "start": 20644
        },
        {
          "length": 20,
          "start": 20791
        },
        {
          "length": 20,
          "start": 21009
        },
        {
          "length": 20,
          "start": 21161
        }
      ]
    }
  },
  "deployedLinkReferences": {
    "contracts/libraries/LibHooks.sol": {
      "LibHooks": [
        {
          "length": 20,
          "start": 5939
        },
        {
          "length": 20,
          "start": 6822
        },
        {
          "length": 20,
          "start": 7079
        },
        {
          "length": 20,
          "start": 11687
        }
      ]
    },
    "contracts/libraries/LibRegistration.sol": {
      "LibRegistration": [
        {
          "length": 20,
          "start": 7224
        },
        {
          "length": 20,
          "start": 7371
        },
        {
          "length": 20,
          "start": 8719
        },
        {
          "length": 20,
          "start": 8864
        },
        {
          "length": 20,
          "start": 10182
        },
        {
          "length": 20,
          "start": 10327
        },
        {
          "length": 20,
          "start": 10633
        },
        {
          "length": 20,
          "start": 10755
        },
        {
          "length": 20,
          "start": 10888
        },
        {
          "length": 20,
          "start": 11025
        },
        {
          "length": 20,
          "start": 11124
        },
        {
          "length": 20,
          "start": 11271
        },
        {
          "length": 20,
          "start": 13427
        },
        {
          "length": 20,
          "start": 13572
        },
        {
          "length": 20,
          "start": 15156
        },
        {
          "length": 20,
          "start": 15301
        },
        {
          "length": 20,
          "start": 15340
        },
        {
          "length": 20,
          "start": 15485
        },
        {
          "length": 20,
          "start": 15590
        },
        {
          "length": 20,
          "start": 15735
        },
        {
          "length": 20,
          "start": 18329
        },
        {
          "length": 20,
          "start": 18474
        },
        {
          "length": 20,
          "start": 18624
        },
        {
          "length": 20,
          "start": 18769
        },
        {
          "length": 20,
          "start": 18892
        },
        {
          "length": 20,
          "start": 19044
        },
        {
          "length": 20,
          "start": 19080
        },
        {
          "length": 20,
          "start": 19228
        },
        {
          "length": 20,
          "start": 19350
        },
        {
          "length": 20,
          "start": 19497
        },
        {
          "length": 20,
          "start": 19715
        },
        {
          "length": 20,
          "start": 19867
        }
      ]
    }
  }
}