{
  "_format": "hh-sol-artifact-1",
  "contractName": "AccessExt",
  "sourceName": "contracts/extensions/AccessExt.sol",
  "abi": [
    {
      "inputs": [
        {
          "internalType": "uint256",
          "name": "value",
          "type": "uint256"
        },
        {
          "internalType": "uint256",
          "name": "length",
          "type": "uint256"
        }
      ],
      "name": "StringsInsufficientHexLength",
      "type": "error"
    },
    {
      "inputs": [
        {
          "internalType": "address[]",
          "name": "signers",
          "type": "address[]"
        }
      ],
      "name": "addSigners",
      "outputs": [],
      "stateMutability": "nonpayable",
      "type": "function"
    },
    {
      "inputs": [
        {
          "internalType": "address",
          "name": "newOwner",
          "type": "address"
        }
      ],
      "name": "changeOwner",
      "outputs": [],
      "stateMutability": "nonpayable",
      "type": "function"
    },
    {
      "inputs": [
        {
          "internalType": "bytes32",
          "name": "role",
          "type": "bytes32"
        },
        {
          "internalType": "address",
          "name": "account",
          "type": "address"
        }
      ],
      "name": "grantRole",
      "outputs": [],
      "stateMutability": "nonpayable",
      "type": "function"
    },
    {
      "inputs": [
        {
          "internalType": "bytes32",
          "name": "role",
          "type": "bytes32"
        },
        {
          "internalType": "address",
          "name": "account",
          "type": "address"
        }
      ],
      "name": "hasRole",
      "outputs": [
        {
          "internalType": "bool",
          "name": "",
          "type": "bool"
        }
      ],
      "stateMutability": "view",
      "type": "function"
    },
    {
      "inputs": [
        {
          "internalType": "address",
          "name": "myAddress",
          "type": "address"
        }
      ],
      "name": "install",
      "outputs": [],
      "stateMutability": "nonpayable",
      "type": "function"
    },
    {
      "inputs": [
        {
          "internalType": "address",
          "name": "account",
          "type": "address"
        }
      ],
      "name": "isAdmin",
      "outputs": [
        {
          "internalType": "bool",
          "name": "",
          "type": "bool"
        }
      ],
      "stateMutability": "view",
      "type": "function"
    },
    {
      "inputs": [
        {
          "internalType": "address",
          "name": "account",
          "type": "address"
        }
      ],
      "name": "isSigner",
      "outputs": [
        {
          "internalType": "bool",
          "name": "",
          "type": "bool"
        }
      ],
      "stateMutability": "view",
      "type": "function"
    },
    {
      "inputs": [],
      "name": "metadata",
      "outputs": [
        {
          "components": [
            {
              "internalType": "string",
              "name": "name",
              "type": "string"
            },
            {
              "components": [
                {
                  "internalType": "uint16",
                  "name": "major",
                  "type": "uint16"
                },
                {
                  "internalType": "uint16",
                  "name": "minor",
                  "type": "uint16"
                }
              ],
              "internalType": "struct Version",
              "name": "version",
              "type": "tuple"
            }
          ],
          "internalType": "struct ExtensionMetadata",
          "name": "",
          "type": "tuple"
        }
      ],
      "stateMutability": "pure",
      "type": "function"
    },
    {
      "inputs": [],
      "name": "owner",
      "outputs": [
        {
          "internalType": "address",
          "name": "",
          "type": "address"
        }
      ],
      "stateMutability": "view",
      "type": "function"
    },
    {
      "inputs": [
        {
          "internalType": "address[]",
          "name": "signers",
          "type": "address[]"
        }
      ],
      "name": "removeSigners",
      "outputs": [],
      "stateMutability": "nonpayable",
      "type": "function"
    },
    {
      "inputs": [
        {
          "internalType": "bytes32",
          "name": "role",
          "type": "bytes32"
        },
        {
          "internalType": "address",
          "name": "account",
          "type": "address"
        }
      ],
      "name": "revokeRole",
      "outputs": [],
      "stateMutability": "nonpayable",
      "type": "function"
    },
    {
      "inputs": [
        {
          "internalType": "address",
          "name": "myAddress",
          "type": "address"
        }
      ],
      "name": "upgrade",
      "outputs": [],
      "stateMutability": "nonpayable",
      "type": "function"
    }
  ],
  "bytecode": "0x608060405234801561001057600080fd5b506115a3806100206000396000f3fe608060405234801561001057600080fd5b50600436106100b45760003560e01c80638d361e43116100715780638d361e43146101425780638da5cb5b1461015557806391d1485414610175578063a6f9dae114610188578063d547741f1461019b578063e8906a2d146101ae57600080fd5b80630900f010146100b957806324d7806c146100cc5780632a1b8f9b146100f45780632f2ff15d14610107578063392f37e91461011a5780637df73e271461012f575b600080fd5b6100ca6100c7366004611133565b50565b005b6100df6100da366004611133565b6101c1565b60405190151581526020015b60405180910390f35b6100ca610102366004611133565b610247565b6100ca610115366004611150565b6106b5565b6101226107c4565b6040516100eb91906111d0565b6100df61013d366004611133565b610813565b6100ca610150366004611215565b610856565b61015d61091e565b6040516001600160a01b0390911681526020016100eb565b6100df610183366004611150565b610992565b6100ca610196366004611133565b610a1f565b6100ca6101a9366004611150565b610b5a565b6100ca6101bc366004611215565b610c30565b604051630935e01b60e21b81526001600160a01b038216600482015260009073__$a5a42e46683ad9c79b7b86d5ff60fdf4c1$__906324d7806c906024015b602060405180830381865af415801561021d573d6000803e3d6000fd5b505050506040513d601f19601f82011682018060405250810190610241919061128a565b92915050565b6040805160098082526101408201909252600091816020015b60408051808201909152600081526060602082015281526020019060019003908161026057905050905060405180604001604052806391d1485460e01b6001600160e01b03191681526020016040518060400160405280601881526020017f686173526f6c6528627974657333322c61646472657373290000000000000000815250815250816000815181106102f8576102f86112c2565b60200260200101819052506040518060400160405280632f2ff15d60e01b6001600160e01b03191681526020016040518060400160405280601a81526020017f6772616e74526f6c6528627974657333322c616464726573732900000000000081525081525081600181518110610371576103716112c2565b6020026020010181905250604051806040016040528063d547741f60e01b6001600160e01b03191681526020016040518060400160405280601b81526020017f7265766f6b65526f6c6528627974657333322c61646472657373290000000000815250815250816002815181106103ea576103ea6112c2565b6020026020010181905250604051806040016040528063e8906a2d60e01b6001600160e01b0319168152602001604051806040016040528060158152602001746164645369676e65727328616464726573735b5d2960581b8152508152508160038151811061045b5761045b6112c2565b60200260200101819052506040518060400160405280638d361e4360e01b6001600160e01b03191681526020016040518060400160405280601881526020017f72656d6f76655369676e65727328616464726573735b5d290000000000000000815250815250816004815181106104d4576104d46112c2565b60200260200101819052506040518060400160405280637df73e2760e01b6001600160e01b03191681526020016040518060400160405280601181526020017069735369676e657228616464726573732960781b81525081525081600581518110610541576105416112c2565b602002602001018190525060405180604001604052806324d7806c60e01b6001600160e01b03191681526020016040518060400160405280601081526020016f697341646d696e28616464726573732960801b815250815250816006815181106105ad576105ad6112c2565b60200260200101819052506040518060400160405280638da5cb5b60e01b6001600160e01b0319168152602001604051806040016040528060078152602001666f776e6572282960c81b81525081525081600781518110610610576106106112c2565b6020026020010181905250604051806040016040528063a6f9dae160e01b6001600160e01b0319168152602001604051806040016040528060148152602001736368616e67654f776e657228616464726573732960601b81525081525081600881518110610680576106806112c2565b60200260200101819052506106b16040518060400160405280846001600160a01b0316815260200183815250610cf8565b5050565b604051630935e01b60e21b815233600482015273__$a5a42e46683ad9c79b7b86d5ff60fdf4c1$__906324d7806c90602401602060405180830381865af4158015610704573d6000803e3d6000fd5b505050506040513d601f19601f82011682018060405250810190610728919061128a565b61074d5760405162461bcd60e51b8152600401610744906112d8565b60405180910390fd5b604051632f2ff15d60e01b8152600481018390526001600160a01b038216602482015273__$a5a42e46683ad9c79b7b86d5ff60fdf4c1$__90632f2ff15d906044015b60006040518083038186803b1580156107a857600080fd5b505af41580156107bc573d6000803e3d6000fd5b505050505050565b6107cc6110e2565b50604080516080810182526009818301908152681058d8d95cdcd15e1d60ba1b60608301528152815180830190925260018252600060208381019190915281019190915290565b604051637df73e2760e01b81526001600160a01b038216600482015260009073__$a5a42e46683ad9c79b7b86d5ff60fdf4c1$__90637df73e2790602401610200565b604051630935e01b60e21b815233600482015273__$a5a42e46683ad9c79b7b86d5ff60fdf4c1$__906324d7806c90602401602060405180830381865af41580156108a5573d6000803e3d6000fd5b505050506040513d601f19601f820116820180604052508101906108c9919061128a565b6108e55760405162461bcd60e51b8152600401610744906112d8565b604051638d361e4360e01b815273__$a5a42e46683ad9c79b7b86d5ff60fdf4c1$__90638d361e4390610790908590859060040161130f565b600073__$a5a42e46683ad9c79b7b86d5ff60fdf4c1$__638da5cb5b6040518163ffffffff1660e01b8152600401602060405180830381865af4158015610969573d6000803e3d6000fd5b505050506040513d601f19601f8201168201806040525081019061098d919061135d565b905090565b604051632474521560e21b8152600481018390526001600160a01b038216602482015260009073__$a5a42e46683ad9c79b7b86d5ff60fdf4c1$__906391d1485490604401602060405180830381865af41580156109f4573d6000803e3d6000fd5b505050506040513d601f19601f82011682018060405250810190610a18919061128a565b9392505050565b336001600160a01b031673__$a5a42e46683ad9c79b7b86d5ff60fdf4c1$__638da5cb5b6040518163ffffffff1660e01b8152600401602060405180830381865af4158015610a72573d6000803e3d6000fd5b505050506040513d601f19601f82011682018060405250810190610a96919061135d565b6001600160a01b031614610aec5760405162461bcd60e51b815260206004820152601e60248201527f4163636573734578743a207265737472696374656420746f206f776e657200006044820152606401610744565b6040516313af403560e01b81526001600160a01b038216600482015273__$a5a42e46683ad9c79b7b86d5ff60fdf4c1$__906313af40359060240160006040518083038186803b158015610b3f57600080fd5b505af4158015610b53573d6000803e3d6000fd5b5050505050565b604051630935e01b60e21b815233600482015273__$a5a42e46683ad9c79b7b86d5ff60fdf4c1$__906324d7806c90602401602060405180830381865af4158015610ba9573d6000803e3d6000fd5b505050506040513d601f19601f82011682018060405250810190610bcd919061128a565b610be95760405162461bcd60e51b8152600401610744906112d8565b60405163d547741f60e01b8152600481018390526001600160a01b038216602482015273__$a5a42e46683ad9c79b7b86d5ff60fdf4c1$__9063d547741f90604401610790565b604051630935e01b60e21b815233600482015273__$a5a42e46683ad9c79b7b86d5ff60fdf4c1$__906324d7806c90602401602060405180830381865af4158015610c7f573d6000803e3d6000fd5b505050506040513d601f19601f82011682018060405250810190610ca3919061128a565b610cbf5760405162461bcd60e51b8152600401610744906112d8565b60405163e8906a2d60e01b815273__$a5a42e46683ad9c79b7b86d5ff60fdf4c1$__9063e8906a2d90610790908590859060040161130f565b6000610d02610ebb565b82516001600160a01b031660009081526020829052604081209192505b836020015151811015610eb557600084602001518281518110610d4457610d446112c2565b6020908102919091018101518051600486810180546001808201835560009283528683206008830401805463ffffffff600790941690950261010090810a9384021990951660e09690961c9290920294909417905583516001600160e01b0319168152918801909352604090208054919350916001600160a01b0391041615610e3d57805461010090046001600160a01b0316600090815260208690526040812087519091906001870190610df890610f51565b602080870151604051610e12949392600188019101611417565b60405160208183030381529060405290508060405162461bcd60e51b815260040161074491906114f0565b50604080518082018252600180825287516001600160a01b03908116602080850191825295516001600160e01b0319166000908152898401909652939094209151825493516001600160a81b0319909416901515610100600160a81b0319161761010093909416929092029290921790915501610d1f565b50505050565b60408051808201909152601881527f78722e657874656e73696f6e732e73746f726167652e7631000000000000000060209091015260008060ff610f2060017fb58ec9ca7ba0606d9fecd9f559655d0e5fec418e6751b65b892bccdfd25eb99f611519565b604051602001610f3291815260200190565b60408051601f1981840301815291905280516020909101201692915050565b60606102416001600160a01b03831660146060826000610f7284600261152c565b610f7d906002611543565b67ffffffffffffffff811115610f9557610f956112ac565b6040519080825280601f01601f191660200182016040528015610fbf576020820181803683370190505b509050600360fc1b81600081518110610fda57610fda6112c2565b60200101906001600160f81b031916908160001a905350600f60fb1b81600181518110611009576110096112c2565b60200101906001600160f81b031916908160001a905350600061102d85600261152c565b611038906001611543565b90505b60018111156110b0576f181899199a1a9b1b9c1cb0b131b232b360811b83600f166010811061106c5761106c6112c2565b1a60f81b828281518110611082576110826112c2565b60200101906001600160f81b031916908160001a90535060049290921c916110a981611556565b905061103b565b5081156110da5760405163e22e27eb60e01b81526004810186905260248101859052604401610744565b949350505050565b6040518060400160405280606081526020016111196040518060400160405280600061ffff168152602001600061ffff1681525090565b905290565b6001600160a01b03811681146100c757600080fd5b60006020828403121561114557600080fd5b8135610a188161111e565b6000806040838503121561116357600080fd5b8235915060208301356111758161111e565b809150509250929050565b60005b8381101561119b578181015183820152602001611183565b50506000910152565b600081518084526111bc816020860160208601611180565b601f01601f19169290920160200192915050565b6020815260008251606060208401526111ec60808401826111a4565b602094850151805161ffff90811660408701529501519094166060909301929092525090919050565b6000806020838503121561122857600080fd5b823567ffffffffffffffff8082111561124057600080fd5b818501915085601f83011261125457600080fd5b81358181111561126357600080fd5b8660208260051b850101111561127857600080fd5b60209290920196919550909350505050565b60006020828403121561129c57600080fd5b81518015158114610a1857600080fd5b634e487b7160e01b600052604160045260246000fd5b634e487b7160e01b600052603260045260246000fd5b6020808252601f908201527f4163636573734578743a207265737472696374656420746f2061646d696e7300604082015260600190565b60208082528181018390526000908460408401835b868110156113525782356113378161111e565b6001600160a01b031682529183019190830190600101611324565b509695505050505050565b60006020828403121561136f57600080fd5b8151610a188161111e565b8054600090600181811c908083168061139457607f831692505b602080841082036113b557634e487b7160e01b600052602260045260246000fd5b8180156113c957600181146113de5761140b565b60ff198616895284151585028901965061140b565b60008881526020902060005b868110156114035781548b8201529085019083016113ea565b505084890196505b50505050505092915050565b7f4c6962457874656e73696f6e3a20657874656e73696f6e20000000000000000081526000611449601883018761137a565b6c01030ba1030b2323932b9b99d1609d1b8152855161146f81600d840160208a01611180565b7f20617474656d7074696e6720746f20726575736520612073656c6563746f7200600d929091019182015284516114ad81602c840160208901611180565b7f20616c7265616479207265676973746572656420627920000000000000000000602c92909101918201526114e5604382018561137a565b979650505050505050565b602081526000610a1860208301846111a4565b634e487b7160e01b600052601160045260246000fd5b8181038181111561024157610241611503565b808202811582820484141761024157610241611503565b8082018082111561024157610241611503565b60008161156557611565611503565b50600019019056fea26469706673582212203040e020af60b4e06cee0dc119c21e4f0745831926ffb8a964f082521233e18664736f6c63430008180033",
  "linkReferences": {
    "contracts/libraries/LibAccess.sol": {
      "LibAccess": [
        {
          "length": 20,
          "start": 514
        },
        {
          "length": 20,
          "start": 1770
        },
        {
          "length": 20,
          "start": 1938
        },
        {
          "length": 20,
          "start": 2132
        },
        {
          "length": 20,
          "start": 2187
        },
        {
          "length": 20,
          "start": 2324
        },
        {
          "length": 20,
          "start": 2370
        },
        {
          "length": 20,
          "start": 2522
        },
        {
          "length": 20,
          "start": 2635
        },
        {
          "length": 20,
          "start": 2858
        },
        {
          "length": 20,
          "start": 2959
        },
        {
          "length": 20,
          "start": 3118
        },
        {
          "length": 20,
          "start": 3173
        },
        {
          "length": 20,
          "start": 3310
        }
      ]
    }
  },
  "deployedLinkReferences": {
    "contracts/libraries/LibAccess.sol": {
      "LibAccess": [
        {
          "length": 20,
          "start": 482
        },
        {
          "length": 20,
          "start": 1738
        },
        {
          "length": 20,
          "start": 1906
        },
        {
          "length": 20,
          "start": 2100
        },
        {
          "length": 20,
          "start": 2155
        },
        {
          "length": 20,
          "start": 2292
        },
        {
          "length": 20,
          "start": 2338
        },
        {
          "length": 20,
          "start": 2490
        },
        {
          "length": 20,
          "start": 2603
        },
        {
          "length": 20,
          "start": 2826
        },
        {
          "length": 20,
          "start": 2927
        },
        {
          "length": 20,
          "start": 3086
        },
        {
          "length": 20,
          "start": 3141
        },
        {
          "length": 20,
          "start": 3278
        }
      ]
    }
  }
}