{
  "_format": "hh-sol-artifact-1",
  "contractName": "AccessExt",
  "sourceName": "contracts/extensions/AccessExt.sol",
  "abi": [
    {
      "inputs": [
        {
          "internalType": "address[]",
          "name": "signers",
          "type": "address[]"
        }
      ],
      "name": "addSigners",
      "outputs": [],
      "stateMutability": "nonpayable",
      "type": "function"
    },
    {
      "inputs": [
        {
          "internalType": "address",
          "name": "newOwner",
          "type": "address"
        }
      ],
      "name": "changeOwner",
      "outputs": [],
      "stateMutability": "nonpayable",
      "type": "function"
    },
    {
      "inputs": [
        {
          "internalType": "bytes32",
          "name": "role",
          "type": "bytes32"
        },
        {
          "internalType": "address",
          "name": "account",
          "type": "address"
        }
      ],
      "name": "grantRole",
      "outputs": [],
      "stateMutability": "nonpayable",
      "type": "function"
    },
    {
      "inputs": [
        {
          "internalType": "bytes32",
          "name": "role",
          "type": "bytes32"
        },
        {
          "internalType": "address",
          "name": "account",
          "type": "address"
        }
      ],
      "name": "hasRole",
      "outputs": [
        {
          "internalType": "bool",
          "name": "",
          "type": "bool"
        }
      ],
      "stateMutability": "view",
      "type": "function"
    },
    {
      "inputs": [
        {
          "internalType": "address",
          "name": "myAddress",
          "type": "address"
        }
      ],
      "name": "install",
      "outputs": [],
      "stateMutability": "nonpayable",
      "type": "function"
    },
    {
      "inputs": [
        {
          "internalType": "address",
          "name": "account",
          "type": "address"
        }
      ],
      "name": "isAdmin",
      "outputs": [
        {
          "internalType": "bool",
          "name": "",
          "type": "bool"
        }
      ],
      "stateMutability": "view",
      "type": "function"
    },
    {
      "inputs": [
        {
          "internalType": "address",
          "name": "account",
          "type": "address"
        }
      ],
      "name": "isSigner",
      "outputs": [
        {
          "internalType": "bool",
          "name": "",
          "type": "bool"
        }
      ],
      "stateMutability": "view",
      "type": "function"
    },
    {
      "inputs": [],
      "name": "metadata",
      "outputs": [
        {
          "components": [
            {
              "internalType": "string",
              "name": "name",
              "type": "string"
            },
            {
              "components": [
                {
                  "internalType": "uint16",
                  "name": "major",
                  "type": "uint16"
                },
                {
                  "internalType": "uint16",
                  "name": "minor",
                  "type": "uint16"
                }
              ],
              "internalType": "struct Version",
              "name": "version",
              "type": "tuple"
            }
          ],
          "internalType": "struct ExtensionMetadata",
          "name": "",
          "type": "tuple"
        }
      ],
      "stateMutability": "pure",
      "type": "function"
    },
    {
      "inputs": [],
      "name": "owner",
      "outputs": [
        {
          "internalType": "address",
          "name": "",
          "type": "address"
        }
      ],
      "stateMutability": "view",
      "type": "function"
    },
    {
      "inputs": [
        {
          "internalType": "address[]",
          "name": "signers",
          "type": "address[]"
        }
      ],
      "name": "removeSigners",
      "outputs": [],
      "stateMutability": "nonpayable",
      "type": "function"
    },
    {
      "inputs": [
        {
          "internalType": "bytes32",
          "name": "role",
          "type": "bytes32"
        },
        {
          "internalType": "address",
          "name": "account",
          "type": "address"
        }
      ],
      "name": "revokeRole",
      "outputs": [],
      "stateMutability": "nonpayable",
      "type": "function"
    },
    {
      "inputs": [
        {
          "internalType": "address",
          "name": "myAddress",
          "type": "address"
        }
      ],
      "name": "upgrade",
      "outputs": [],
      "stateMutability": "nonpayable",
      "type": "function"
    }
  ],
  "bytecode": "0x608060405234801561001057600080fd5b5061106e806100206000396000f3fe608060405234801561001057600080fd5b50600436106100b45760003560e01c80638d361e43116100715780638d361e43146101425780638da5cb5b1461015557806391d1485414610175578063a6f9dae114610188578063d547741f1461019b578063e8906a2d146101ae57600080fd5b80630900f010146100b957806324d7806c146100cc5780632a1b8f9b146100f45780632f2ff15d14610107578063392f37e91461011a5780637df73e271461012f575b600080fd5b6100ca6100c7366004610d77565b50565b005b6100df6100da366004610d77565b6101c1565b60405190151581526020015b60405180910390f35b6100ca610102366004610d77565b610247565b6100ca610115366004610d94565b610713565b6101226107f2565b6040516100eb9190610e0a565b6100df61013d366004610d77565b610841565b6100ca610150366004610e4f565b610884565b61015d61094c565b6040516001600160a01b0390911681526020016100eb565b6100df610183366004610d94565b6109c0565b6100ca610196366004610d77565b610a4d565b6100ca6101a9366004610d94565b610b88565b6100ca6101bc366004610e4f565b610c5e565b604051630935e01b60e21b81526001600160a01b038216600482015260009073__$a5a42e46683ad9c79b7b86d5ff60fdf4c1$__906324d7806c906024015b602060405180830381865af415801561021d573d6000803e3d6000fd5b505050506040513d601f19601f820116820180604052508101906102419190610ec4565b92915050565b6040805160098082526101408201909252600091816020015b60408051808201909152600081526060602082015281526020019060019003908161026057905050905060405180604001604052806391d1485460e01b6001600160e01b03191681526020016040518060400160405280601881526020017f686173526f6c6528627974657333322c61646472657373290000000000000000815250815250816000815181106102f8576102f8610ee6565b60200260200101819052506040518060400160405280632f2ff15d60e01b6001600160e01b03191681526020016040518060400160405280601a81526020017f6772616e74526f6c6528627974657333322c61646472657373290000000000008152508152508160018151811061037157610371610ee6565b6020026020010181905250604051806040016040528063d547741f60e01b6001600160e01b03191681526020016040518060400160405280601b81526020017f7265766f6b65526f6c6528627974657333322c61646472657373290000000000815250815250816002815181106103ea576103ea610ee6565b6020026020010181905250604051806040016040528063e8906a2d60e01b6001600160e01b0319168152602001604051806040016040528060158152602001746164645369676e65727328616464726573735b5d2960581b8152508152508160038151811061045b5761045b610ee6565b60200260200101819052506040518060400160405280638d361e4360e01b6001600160e01b03191681526020016040518060400160405280601881526020017f72656d6f76655369676e65727328616464726573735b5d290000000000000000815250815250816004815181106104d4576104d4610ee6565b60200260200101819052506040518060400160405280637df73e2760e01b6001600160e01b03191681526020016040518060400160405280601181526020017069735369676e657228616464726573732960781b8152508152508160058151811061054157610541610ee6565b602002602001018190525060405180604001604052806324d7806c60e01b6001600160e01b03191681526020016040518060400160405280601081526020016f697341646d696e28616464726573732960801b815250815250816006815181106105ad576105ad610ee6565b60200260200101819052506040518060400160405280638da5cb5b60e01b6001600160e01b0319168152602001604051806040016040528060078152602001666f776e6572282960c81b8152508152508160078151811061061057610610610ee6565b6020026020010181905250604051806040016040528063a6f9dae160e01b6001600160e01b0319168152602001604051806040016040528060148152602001736368616e67654f776e657228616464726573732960601b8152508152508160088151811061068057610680610ee6565b602002602001018190525073__$307c3a572bdf5d9800a89b3fc2eb3d5604$__63964d13f06040518060400160405280856001600160a01b03168152602001848152506040518263ffffffff1660e01b81526004016106df9190610efc565b60006040518083038186803b1580156106f757600080fd5b505af415801561070b573d6000803e3d6000fd5b505050505050565b604051630935e01b60e21b815233600482015273__$a5a42e46683ad9c79b7b86d5ff60fdf4c1$__906324d7806c90602401602060405180830381865af4158015610762573d6000803e3d6000fd5b505050506040513d601f19601f820116820180604052508101906107869190610ec4565b6107ab5760405162461bcd60e51b81526004016107a290610f96565b60405180910390fd5b604051632f2ff15d60e01b8152600481018390526001600160a01b038216602482015273__$a5a42e46683ad9c79b7b86d5ff60fdf4c1$__90632f2ff15d906044016106df565b6107fa610d26565b50604080516080810182526009818301908152681058d8d95cdcd15e1d60ba1b60608301528152815180830190925260018252600060208381019190915281019190915290565b604051637df73e2760e01b81526001600160a01b038216600482015260009073__$a5a42e46683ad9c79b7b86d5ff60fdf4c1$__90637df73e2790602401610200565b604051630935e01b60e21b815233600482015273__$a5a42e46683ad9c79b7b86d5ff60fdf4c1$__906324d7806c90602401602060405180830381865af41580156108d3573d6000803e3d6000fd5b505050506040513d601f19601f820116820180604052508101906108f79190610ec4565b6109135760405162461bcd60e51b81526004016107a290610f96565b604051638d361e4360e01b815273__$a5a42e46683ad9c79b7b86d5ff60fdf4c1$__90638d361e43906106df9085908590600401610fcd565b600073__$a5a42e46683ad9c79b7b86d5ff60fdf4c1$__638da5cb5b6040518163ffffffff1660e01b8152600401602060405180830381865af4158015610997573d6000803e3d6000fd5b505050506040513d601f19601f820116820180604052508101906109bb919061101b565b905090565b604051632474521560e21b8152600481018390526001600160a01b038216602482015260009073__$a5a42e46683ad9c79b7b86d5ff60fdf4c1$__906391d1485490604401602060405180830381865af4158015610a22573d6000803e3d6000fd5b505050506040513d601f19601f82011682018060405250810190610a469190610ec4565b9392505050565b336001600160a01b031673__$a5a42e46683ad9c79b7b86d5ff60fdf4c1$__638da5cb5b6040518163ffffffff1660e01b8152600401602060405180830381865af4158015610aa0573d6000803e3d6000fd5b505050506040513d601f19601f82011682018060405250810190610ac4919061101b565b6001600160a01b031614610b1a5760405162461bcd60e51b815260206004820152601e60248201527f4163636573734578743a207265737472696374656420746f206f776e6572000060448201526064016107a2565b6040516313af403560e01b81526001600160a01b038216600482015273__$a5a42e46683ad9c79b7b86d5ff60fdf4c1$__906313af40359060240160006040518083038186803b158015610b6d57600080fd5b505af4158015610b81573d6000803e3d6000fd5b5050505050565b604051630935e01b60e21b815233600482015273__$a5a42e46683ad9c79b7b86d5ff60fdf4c1$__906324d7806c90602401602060405180830381865af4158015610bd7573d6000803e3d6000fd5b505050506040513d601f19601f82011682018060405250810190610bfb9190610ec4565b610c175760405162461bcd60e51b81526004016107a290610f96565b60405163d547741f60e01b8152600481018390526001600160a01b038216602482015273__$a5a42e46683ad9c79b7b86d5ff60fdf4c1$__9063d547741f906044016106df565b604051630935e01b60e21b815233600482015273__$a5a42e46683ad9c79b7b86d5ff60fdf4c1$__906324d7806c90602401602060405180830381865af4158015610cad573d6000803e3d6000fd5b505050506040513d601f19601f82011682018060405250810190610cd19190610ec4565b610ced5760405162461bcd60e51b81526004016107a290610f96565b60405163e8906a2d60e01b815273__$a5a42e46683ad9c79b7b86d5ff60fdf4c1$__9063e8906a2d906106df9085908590600401610fcd565b604051806040016040528060608152602001610d5d6040518060400160405280600061ffff168152602001600061ffff1681525090565b905290565b6001600160a01b03811681146100c757600080fd5b600060208284031215610d8957600080fd5b8135610a4681610d62565b60008060408385031215610da757600080fd5b823591506020830135610db981610d62565b809150509250929050565b6000815180845260005b81811015610dea57602081850181015186830182015201610dce565b506000602082860101526020601f19601f83011685010191505092915050565b602081526000825160606020840152610e266080840182610dc4565b602094850151805161ffff90811660408701529501519094166060909301929092525090919050565b60008060208385031215610e6257600080fd5b823567ffffffffffffffff80821115610e7a57600080fd5b818501915085601f830112610e8e57600080fd5b813581811115610e9d57600080fd5b8660208260051b8501011115610eb257600080fd5b60209290920196919550909350505050565b600060208284031215610ed657600080fd5b81518015158114610a4657600080fd5b634e487b7160e01b600052603260045260246000fd5b602080825282516001600160a01b031682820152828101516040808401819052815160608501819052600093926080600583901b87018101939185019290870190865b81811015610f8857888603607f19018352845180516001600160e01b0319168752870151878701859052610f7585880182610dc4565b9650509386019391860191600101610f3f565b509398975050505050505050565b6020808252601f908201527f4163636573734578743a207265737472696374656420746f2061646d696e7300604082015260600190565b60208082528181018390526000908460408401835b86811015611010578235610ff581610d62565b6001600160a01b031682529183019190830190600101610fe2565b509695505050505050565b60006020828403121561102d57600080fd5b8151610a4681610d6256fea2646970667358221220a6794fda4ff354ee47e4216d1b3fdc43533812f16c6230e4807165ee49390e6664736f6c63430008180033",
  "linkReferences": {
    "contracts/libraries/LibAccess.sol": {
      "LibAccess": [
        {
          "length": 20,
          "start": 514
        },
        {
          "length": 20,
          "start": 1864
        },
        {
          "length": 20,
          "start": 2032
        },
        {
          "length": 20,
          "start": 2178
        },
        {
          "length": 20,
          "start": 2233
        },
        {
          "length": 20,
          "start": 2370
        },
        {
          "length": 20,
          "start": 2416
        },
        {
          "length": 20,
          "start": 2568
        },
        {
          "length": 20,
          "start": 2681
        },
        {
          "length": 20,
          "start": 2904
        },
        {
          "length": 20,
          "start": 3005
        },
        {
          "length": 20,
          "start": 3164
        },
        {
          "length": 20,
          "start": 3219
        },
        {
          "length": 20,
          "start": 3356
        }
      ]
    },
    "contracts/libraries/LibExtensions.sol": {
      "LibExtensions": [
        {
          "length": 20,
          "start": 1709
        }
      ]
    }
  },
  "deployedLinkReferences": {
    "contracts/libraries/LibAccess.sol": {
      "LibAccess": [
        {
          "length": 20,
          "start": 482
        },
        {
          "length": 20,
          "start": 1832
        },
        {
          "length": 20,
          "start": 2000
        },
        {
          "length": 20,
          "start": 2146
        },
        {
          "length": 20,
          "start": 2201
        },
        {
          "length": 20,
          "start": 2338
        },
        {
          "length": 20,
          "start": 2384
        },
        {
          "length": 20,
          "start": 2536
        },
        {
          "length": 20,
          "start": 2649
        },
        {
          "length": 20,
          "start": 2872
        },
        {
          "length": 20,
          "start": 2973
        },
        {
          "length": 20,
          "start": 3132
        },
        {
          "length": 20,
          "start": 3187
        },
        {
          "length": 20,
          "start": 3324
        }
      ]
    },
    "contracts/libraries/LibExtensions.sol": {
      "LibExtensions": [
        {
          "length": 20,
          "start": 1677
        }
      ]
    }
  }
}