{
  "_format": "hh-sol-artifact-1",
  "contractName": "AssetConditionExt",
  "sourceName": "contracts/extensions/asset/AssetConditionExt.sol",
  "abi": [
    {
      "inputs": [
        {
          "internalType": "uint256",
          "name": "value",
          "type": "uint256"
        },
        {
          "internalType": "uint256",
          "name": "length",
          "type": "uint256"
        }
      ],
      "name": "StringsInsufficientHexLength",
      "type": "error"
    },
    {
      "anonymous": false,
      "inputs": [],
      "name": "AssetConditionRemoved",
      "type": "event"
    },
    {
      "anonymous": false,
      "inputs": [
        {
          "indexed": false,
          "internalType": "address",
          "name": "condition",
          "type": "address"
        }
      ],
      "name": "AssetConditionSet",
      "type": "event"
    },
    {
      "inputs": [
        {
          "components": [
            {
              "internalType": "address",
              "name": "asset",
              "type": "address"
            },
            {
              "internalType": "address",
              "name": "world",
              "type": "address"
            },
            {
              "internalType": "address",
              "name": "company",
              "type": "address"
            },
            {
              "internalType": "address",
              "name": "experience",
              "type": "address"
            },
            {
              "internalType": "address",
              "name": "avatar",
              "type": "address"
            }
          ],
          "internalType": "struct AssetCheckArgs",
          "name": "args",
          "type": "tuple"
        }
      ],
      "name": "canUseAsset",
      "outputs": [
        {
          "internalType": "bool",
          "name": "",
          "type": "bool"
        }
      ],
      "stateMutability": "view",
      "type": "function"
    },
    {
      "inputs": [
        {
          "components": [
            {
              "internalType": "address",
              "name": "asset",
              "type": "address"
            },
            {
              "internalType": "address",
              "name": "world",
              "type": "address"
            },
            {
              "internalType": "address",
              "name": "company",
              "type": "address"
            },
            {
              "internalType": "address",
              "name": "experience",
              "type": "address"
            },
            {
              "internalType": "address",
              "name": "avatar",
              "type": "address"
            }
          ],
          "internalType": "struct AssetCheckArgs",
          "name": "args",
          "type": "tuple"
        }
      ],
      "name": "canViewAsset",
      "outputs": [
        {
          "internalType": "bool",
          "name": "",
          "type": "bool"
        }
      ],
      "stateMutability": "view",
      "type": "function"
    },
    {
      "inputs": [
        {
          "internalType": "address",
          "name": "myAddress",
          "type": "address"
        }
      ],
      "name": "install",
      "outputs": [],
      "stateMutability": "nonpayable",
      "type": "function"
    },
    {
      "inputs": [],
      "name": "metadata",
      "outputs": [
        {
          "components": [
            {
              "internalType": "string",
              "name": "name",
              "type": "string"
            },
            {
              "components": [
                {
                  "internalType": "uint16",
                  "name": "major",
                  "type": "uint16"
                },
                {
                  "internalType": "uint16",
                  "name": "minor",
                  "type": "uint16"
                }
              ],
              "internalType": "struct Version",
              "name": "version",
              "type": "tuple"
            }
          ],
          "internalType": "struct ExtensionMetadata",
          "name": "",
          "type": "tuple"
        }
      ],
      "stateMutability": "pure",
      "type": "function"
    },
    {
      "inputs": [],
      "name": "removeCondition",
      "outputs": [],
      "stateMutability": "nonpayable",
      "type": "function"
    },
    {
      "inputs": [
        {
          "internalType": "address",
          "name": "condition",
          "type": "address"
        }
      ],
      "name": "setCondition",
      "outputs": [],
      "stateMutability": "nonpayable",
      "type": "function"
    },
    {
      "inputs": [
        {
          "internalType": "address",
          "name": "myAddress",
          "type": "address"
        }
      ],
      "name": "upgrade",
      "outputs": [],
      "stateMutability": "nonpayable",
      "type": "function"
    }
  ],
  "bytecode": "0x608060405234801561001057600080fd5b50611116806100206000396000f3fe608060405234801561001057600080fd5b506004361061007d5760003560e01c8063392f37e91161005b578063392f37e9146100b05780633fa47f17146100ce5780636acd6481146100f1578063b4e75b9b1461010457600080fd5b8063021665b7146100825780630900f0101461008c5780632a1b8f9b1461009d575b600080fd5b61008a610117565b005b61008a61009a366004610c9c565b50565b61008a6100ab366004610c9c565b610361565b6100b86103cd565b6040516100c59190610d09565b60405180910390f35b6100e16100dc366004610d64565b610424565b60405190151581526020016100c5565b61008a6100ff366004610c9c565b6104c7565b6100e1610112366004610d64565b610790565b60006101216107eb565b600101546001600160a01b031690503381146101845760405162461bcd60e51b815260206004820152601e60248201527f4261736541737365743a206f6e6c792069737375657220616c6c6f776564000060448201526064015b60405180910390fd5b306001600160a01b031663c51aba2b6040518163ffffffff1660e01b8152600401602060405180830381865afa1580156101c2573d6000803e3d6000fd5b505050506040513d601f19601f820116820180604052508101906101e69190610e04565b60405163c3c5a54760e01b81526001600160a01b038381166004830152919091169063c3c5a54790602401602060405180830381865afa15801561022e573d6000803e3d6000fd5b505050506040513d601f19601f820116820180604052508101906102529190610e21565b61026e5760405162461bcd60e51b815260040161017b90610e43565b806001600160a01b03166386b70bed6040518163ffffffff1660e01b8152600401602060405180830381865afa1580156102ac573d6000803e3d6000fd5b505050506040513d601f19601f820116820180604052508101906102d09190610e21565b61031c5760405162461bcd60e51b815260206004820152601f60248201527f4261736541737365743a20697373756572206973206e6f742061637469766500604482015260640161017b565b6103246107eb565b60020180546001600160a01b03191690556040517f0a3b4f225d27c59369c925408168eb6c4619520ef6a721f0225f0db69977416590600090a150565b60408051600680825260e08201909252600091816020015b6040805180820190915260008152606060208201528152602001906001900390816103795790505090506103c96040518060400160405280846001600160a01b0316815260200183815250610877565b5050565b6103d5610c3b565b5060408051608081018252601181830190815270105cdcd95d10dbdb991a5d1a5bdb915e1d607a1b60608301528152815180830190925260018252600060208381019190915281019190915290565b60008061042f6107eb565b60028101549091506001600160a01b031661044d5750600192915050565b60028101546040516377b63b9160e11b81526001600160a01b039091169063ef6c77229061047f908690600401610e90565b602060405180830381865afa15801561049c573d6000803e3d6000fd5b505050506040513d601f19601f820116820180604052508101906104c09190610e21565b9392505050565b60006104d16107eb565b600101546001600160a01b0316905033811461052f5760405162461bcd60e51b815260206004820152601e60248201527f4261736541737365743a206f6e6c792069737375657220616c6c6f7765640000604482015260640161017b565b306001600160a01b031663c51aba2b6040518163ffffffff1660e01b8152600401602060405180830381865afa15801561056d573d6000803e3d6000fd5b505050506040513d601f19601f820116820180604052508101906105919190610e04565b60405163c3c5a54760e01b81526001600160a01b038381166004830152919091169063c3c5a54790602401602060405180830381865afa1580156105d9573d6000803e3d6000fd5b505050506040513d601f19601f820116820180604052508101906105fd9190610e21565b6106195760405162461bcd60e51b815260040161017b90610e43565b806001600160a01b03166386b70bed6040518163ffffffff1660e01b8152600401602060405180830381865afa158015610657573d6000803e3d6000fd5b505050506040513d601f19601f8201168201806040525081019061067b9190610e21565b6106c75760405162461bcd60e51b815260206004820152601f60248201527f4261736541737365743a20697373756572206973206e6f742061637469766500604482015260640161017b565b6001600160a01b0382166107315760405162461bcd60e51b815260206004820152602b60248201527f4261736541737365743a20636f6e646974696f6e2063616e6e6f74206265207a60448201526a65726f206164647265737360a81b606482015260840161017b565b8161073a6107eb565b60020180546001600160a01b0319166001600160a01b0392831617905560405190831681527f74aec62349c3c04102a2d4dba64bd716489a57926996590bb38beffc7fbd40b99060200160405180910390a15050565b60008061079b6107eb565b60028101549091506001600160a01b03166107b95750600192915050565b600281015460405163eab4ad0360e01b81526001600160a01b039091169063eab4ad039061047f908690600401610e90565b60408051808201909152601381527278722e61737365742e73746f726167652e763160681b60209091015260008060ff61084660017f0db46b7c34197dfe4fa603e9c17ca5ed137d4afe720a374e843bbcf1431eaeb7610eed565b60405160200161085891815260200190565b60408051601f1981840301815291905280516020909101201692915050565b6000610881610a3a565b82516001600160a01b031660009081526020829052604081209192505b836020015151811015610a34576000846020015182815181106108c3576108c3610f00565b6020908102919091018101518051600486810180546001808201835560009283528683206008830401805463ffffffff600790941690950261010090810a9384021990951660e09690961c9290920294909417905583516001600160e01b0319168152918801909352604090208054919350916001600160a01b03910416156109bc57805461010090046001600160a01b031660009081526020869052604081208751909190600187019061097790610a9f565b602080870151604051610991949392600188019101610fb3565b60405160208183030381529060405290508060405162461bcd60e51b815260040161017b919061108c565b50604080518082018252600180825287516001600160a01b03908116602080850191825295516001600160e01b0319166000908152898401909652939094209151825493516001600160a81b0319909416901515610100600160a81b031916176101009390941692909202929092179091550161089e565b50505050565b60408051808201909152601881527f78722e657874656e73696f6e732e73746f726167652e7631000000000000000060209091015260008060ff61084660017fb58ec9ca7ba0606d9fecd9f559655d0e5fec418e6751b65b892bccdfd25eb99f610eed565b6060610ab56001600160a01b0383166014610abb565b92915050565b6060826000610acb84600261109f565b610ad69060026110b6565b67ffffffffffffffff811115610aee57610aee610d4e565b6040519080825280601f01601f191660200182016040528015610b18576020820181803683370190505b509050600360fc1b81600081518110610b3357610b33610f00565b60200101906001600160f81b031916908160001a905350600f60fb1b81600181518110610b6257610b62610f00565b60200101906001600160f81b031916908160001a9053506000610b8685600261109f565b610b919060016110b6565b90505b6001811115610c09576f181899199a1a9b1b9c1cb0b131b232b360811b83600f1660108110610bc557610bc5610f00565b1a60f81b828281518110610bdb57610bdb610f00565b60200101906001600160f81b031916908160001a90535060049290921c91610c02816110c9565b9050610b94565b508115610c335760405163e22e27eb60e01b8152600481018690526024810185905260440161017b565b949350505050565b604051806040016040528060608152602001610c726040518060400160405280600061ffff168152602001600061ffff1681525090565b905290565b6001600160a01b038116811461009a57600080fd5b8035610c9781610c77565b919050565b600060208284031215610cae57600080fd5b81356104c081610c77565b60005b83811015610cd4578181015183820152602001610cbc565b50506000910152565b60008151808452610cf5816020860160208601610cb9565b601f01601f19169290920160200192915050565b602081526000825160606020840152610d256080840182610cdd565b602094850151805161ffff90811660408701529501519094166060909301929092525090919050565b634e487b7160e01b600052604160045260246000fd5b600060a08284031215610d7657600080fd5b60405160a0810181811067ffffffffffffffff82111715610da757634e487b7160e01b600052604160045260246000fd5b6040528235610db581610c77565b81526020830135610dc581610c77565b6020820152610dd660408401610c8c565b6040820152610de760608401610c8c565b6060820152610df860808401610c8c565b60808201529392505050565b600060208284031215610e1657600080fd5b81516104c081610c77565b600060208284031215610e3357600080fd5b815180151581146104c057600080fd5b6020808252602d908201527f4261736541737365743a20697373756572206973206e6f74206120726567697360408201526c746572656420636f6d70616e7960981b606082015260800190565b81516001600160a01b039081168252602080840151821690830152604080840151821690830152606080840151821690830152608092830151169181019190915260a00190565b634e487b7160e01b600052601160045260246000fd5b81810381811115610ab557610ab5610ed7565b634e487b7160e01b600052603260045260246000fd5b8054600090600181811c9080831680610f3057607f831692505b60208084108203610f5157634e487b7160e01b600052602260045260246000fd5b818015610f655760018114610f7a57610fa7565b60ff1986168952841515850289019650610fa7565b60008881526020902060005b86811015610f9f5781548b820152908501908301610f86565b505084890196505b50505050505092915050565b7f4c6962457874656e73696f6e3a20657874656e73696f6e20000000000000000081526000610fe56018830187610f16565b6c01030ba1030b2323932b9b99d1609d1b8152855161100b81600d840160208a01610cb9565b7f20617474656d7074696e6720746f20726575736520612073656c6563746f7200600d9290910191820152845161104981602c840160208901610cb9565b7f20616c7265616479207265676973746572656420627920000000000000000000602c92909101918201526110816043820185610f16565b979650505050505050565b6020815260006104c06020830184610cdd565b8082028115828204841417610ab557610ab5610ed7565b80820180821115610ab557610ab5610ed7565b6000816110d8576110d8610ed7565b50600019019056fea2646970667358221220037a9ab137b3522491e1d6966be57d723e7af3492a9a78fc6c39160b4e3f1b5964736f6c63430008180033",
  "linkReferences": {},
  "deployedLinkReferences": {}
}