{
  "_format": "hh-sol-artifact-1",
  "contractName": "AssetFactory",
  "sourceName": "contracts/asset/AssetFactory.sol",
  "abi": [
    {
      "inputs": [
        {
          "internalType": "address[]",
          "name": "admins",
          "type": "address[]"
        }
      ],
      "stateMutability": "nonpayable",
      "type": "constructor"
    },
    {
      "inputs": [],
      "name": "AccessControlBadConfirmation",
      "type": "error"
    },
    {
      "inputs": [
        {
          "internalType": "address",
          "name": "account",
          "type": "address"
        },
        {
          "internalType": "bytes32",
          "name": "neededRole",
          "type": "bytes32"
        }
      ],
      "name": "AccessControlUnauthorizedAccount",
      "type": "error"
    },
    {
      "anonymous": false,
      "inputs": [
        {
          "indexed": true,
          "internalType": "bytes32",
          "name": "role",
          "type": "bytes32"
        },
        {
          "indexed": true,
          "internalType": "bytes32",
          "name": "previousAdminRole",
          "type": "bytes32"
        },
        {
          "indexed": true,
          "internalType": "bytes32",
          "name": "newAdminRole",
          "type": "bytes32"
        }
      ],
      "name": "RoleAdminChanged",
      "type": "event"
    },
    {
      "anonymous": false,
      "inputs": [
        {
          "indexed": true,
          "internalType": "bytes32",
          "name": "role",
          "type": "bytes32"
        },
        {
          "indexed": true,
          "internalType": "address",
          "name": "account",
          "type": "address"
        },
        {
          "indexed": true,
          "internalType": "address",
          "name": "sender",
          "type": "address"
        }
      ],
      "name": "RoleGranted",
      "type": "event"
    },
    {
      "anonymous": false,
      "inputs": [
        {
          "indexed": true,
          "internalType": "bytes32",
          "name": "role",
          "type": "bytes32"
        },
        {
          "indexed": true,
          "internalType": "address",
          "name": "account",
          "type": "address"
        },
        {
          "indexed": true,
          "internalType": "address",
          "name": "sender",
          "type": "address"
        }
      ],
      "name": "RoleRevoked",
      "type": "event"
    },
    {
      "inputs": [],
      "name": "DEFAULT_ADMIN_ROLE",
      "outputs": [
        {
          "internalType": "bytes32",
          "name": "",
          "type": "bytes32"
        }
      ],
      "stateMutability": "view",
      "type": "function"
    },
    {
      "inputs": [
        {
          "internalType": "uint256",
          "name": "assetType",
          "type": "uint256"
        },
        {
          "internalType": "bytes",
          "name": "initData",
          "type": "bytes"
        }
      ],
      "name": "createAsset",
      "outputs": [
        {
          "internalType": "address",
          "name": "proxy",
          "type": "address"
        }
      ],
      "stateMutability": "nonpayable",
      "type": "function"
    },
    {
      "inputs": [
        {
          "internalType": "bytes32",
          "name": "role",
          "type": "bytes32"
        }
      ],
      "name": "getRoleAdmin",
      "outputs": [
        {
          "internalType": "bytes32",
          "name": "",
          "type": "bytes32"
        }
      ],
      "stateMutability": "view",
      "type": "function"
    },
    {
      "inputs": [
        {
          "internalType": "bytes32",
          "name": "role",
          "type": "bytes32"
        },
        {
          "internalType": "address",
          "name": "account",
          "type": "address"
        }
      ],
      "name": "grantRole",
      "outputs": [],
      "stateMutability": "nonpayable",
      "type": "function"
    },
    {
      "inputs": [
        {
          "internalType": "bytes32",
          "name": "role",
          "type": "bytes32"
        },
        {
          "internalType": "address",
          "name": "account",
          "type": "address"
        }
      ],
      "name": "hasRole",
      "outputs": [
        {
          "internalType": "bool",
          "name": "",
          "type": "bool"
        }
      ],
      "stateMutability": "view",
      "type": "function"
    },
    {
      "inputs": [
        {
          "internalType": "enum AssetType",
          "name": "assetType",
          "type": "uint8"
        },
        {
          "internalType": "address",
          "name": "query",
          "type": "address"
        }
      ],
      "name": "isAssetClone",
      "outputs": [
        {
          "internalType": "bool",
          "name": "result",
          "type": "bool"
        }
      ],
      "stateMutability": "view",
      "type": "function"
    },
    {
      "inputs": [
        {
          "internalType": "bytes32",
          "name": "role",
          "type": "bytes32"
        },
        {
          "internalType": "address",
          "name": "callerConfirmation",
          "type": "address"
        }
      ],
      "name": "renounceRole",
      "outputs": [],
      "stateMutability": "nonpayable",
      "type": "function"
    },
    {
      "inputs": [
        {
          "internalType": "bytes32",
          "name": "role",
          "type": "bytes32"
        },
        {
          "internalType": "address",
          "name": "account",
          "type": "address"
        }
      ],
      "name": "revokeRole",
      "outputs": [],
      "stateMutability": "nonpayable",
      "type": "function"
    },
    {
      "inputs": [
        {
          "internalType": "address",
          "name": "registry",
          "type": "address"
        }
      ],
      "name": "setAssetRegistry",
      "outputs": [],
      "stateMutability": "nonpayable",
      "type": "function"
    },
    {
      "inputs": [
        {
          "internalType": "address",
          "name": "impl",
          "type": "address"
        }
      ],
      "name": "setERC20Implementation",
      "outputs": [],
      "stateMutability": "nonpayable",
      "type": "function"
    },
    {
      "inputs": [
        {
          "internalType": "address",
          "name": "impl",
          "type": "address"
        }
      ],
      "name": "setERC721Implementation",
      "outputs": [],
      "stateMutability": "nonpayable",
      "type": "function"
    },
    {
      "inputs": [
        {
          "internalType": "bytes4",
          "name": "interfaceId",
          "type": "bytes4"
        }
      ],
      "name": "supportsInterface",
      "outputs": [
        {
          "internalType": "bool",
          "name": "",
          "type": "bool"
        }
      ],
      "stateMutability": "view",
      "type": "function"
    }
  ],
  "bytecode": "0x60806040523480156200001157600080fd5b5060405162000cc438038062000cc4833981016040819052620000349162000166565b60005b81518110156200007c57620000726000801b8383815181106200005e576200005e62000238565b60200260200101516200008460201b60201c565b5060010162000037565b50506200024e565b6000828152602081815260408083206001600160a01b038516845290915281205460ff1662000129576000838152602081815260408083206001600160a01b03861684529091529020805460ff19166001179055620000e03390565b6001600160a01b0316826001600160a01b0316847f2f8788117e7eff1d82e926ec794901d17c78024a50270940304540a733656f0d60405160405180910390a45060016200012d565b5060005b92915050565b634e487b7160e01b600052604160045260246000fd5b80516001600160a01b03811681146200016157600080fd5b919050565b600060208083850312156200017a57600080fd5b82516001600160401b03808211156200019257600080fd5b818501915085601f830112620001a757600080fd5b815181811115620001bc57620001bc62000133565b8060051b604051601f19603f83011681018181108582111715620001e457620001e462000133565b6040529182528482019250838101850191888311156200020357600080fd5b938501935b828510156200022c576200021c8562000149565b8452938501939285019262000208565b98975050505050505050565b634e487b7160e01b600052603260045260246000fd5b610a66806200025e6000396000f3fe608060405234801561001057600080fd5b50600436106100b45760003560e01c8063641254bd11610071578063641254bd1461016057806367bf16cc1461017357806391d148541461019e578063a217fddf146101b1578063d547741f146101b9578063e84d033c146101cc57600080fd5b806301ffc9a7146100b9578063248a9ca3146100e15780632dff2391146101125780632f2ff15d1461012757806336568abe1461013a5780635eb1112d1461014d575b600080fd5b6100cc6100c736600461084e565b6101df565b60405190151581526020015b60405180910390f35b6101046100ef36600461087f565b60009081526020819052604090206001015490565b6040519081526020016100d8565b6101256101203660046108b4565b610216565b005b6101256101353660046108cf565b610273565b6101256101483660046108cf565b61029e565b6100cc61015b3660046108fb565b6102d6565b61012561016e3660046108b4565b610373565b61018661018136600461092b565b6103c7565b6040516001600160a01b0390911681526020016100d8565b6100cc6101ac3660046108cf565b610665565b610104600081565b6101256101c73660046108cf565b61068e565b6101256101da3660046108b4565b6106b3565b60006001600160e01b03198216637965db0b60e01b148061021057506301ffc9a760e01b6001600160e01b03198316145b92915050565b600061022181610707565b6001600160a01b0382166102505760405162461bcd60e51b8152600401610247906109a7565b60405180910390fd5b50600280546001600160a01b0319166001600160a01b0392909216919091179055565b60008281526020819052604090206001015461028e81610707565b6102988383610714565b50505050565b6001600160a01b03811633146102c75760405163334bd91960e11b815260040160405180910390fd5b6102d182826107a6565b505050565b60008060018460028111156102ed576102ed6109eb565b14610303576003546001600160a01b0316610310565b6002546001600160a01b03165b905060008160601b905060405169363d3d373d3d3d363d7360b01b815281600a8201526e5af43d82803e903d91602b57fd5bf360881b601e82015260408101602d600082883c600d810151600d8301511481518351141694505050505092915050565b600061037e81610707565b6001600160a01b0382166103a45760405162461bcd60e51b8152600401610247906109a7565b50600380546001600160a01b0319166001600160a01b0392909216919091179055565b6001546000906001600160a01b03166104225760405162461bcd60e51b815260206004820152601e60248201527f4173736574466163746f72793a207265676973747279206e6f742073657400006044820152606401610247565b6001546001600160a01b031633146104885760405162461bcd60e51b815260206004820152602360248201527f4173736574466163746f72793a206f6e6c7920726567697374727920616c6c6f6044820152621dd95960ea1b6064820152608401610247565b600084118015610499575060028411155b6104e55760405162461bcd60e51b815260206004820181905260248201527f4173736574466163746f72793a20696e76616c696420617373657420747970656044820152606401610247565b6002546001600160a01b03161580159061050957506003546001600160a01b031615155b6105635760405162461bcd60e51b815260206004820152602560248201527f4173736574466163746f72793a20696d706c656d656e746174696f6e73206e6f6044820152641d081cd95d60da1b6064820152608401610247565b6000846002811115610577576105776109eb565b90506000600182600281111561058f5761058f6109eb565b146105a5576003546001600160a01b03166105b2565b6002546001600160a01b03165b60601b9050604051733d602d80600a3d3981f3363d3d373d3d3d363d7360601b81528160148201526e5af43d82803e903d91602b57fd5bf360881b60288201526037816000f0604051631377d1f560e21b81529094506001600160a01b0385169150634ddf47d49061062a9088908890600401610a01565b600060405180830381600087803b15801561064457600080fd5b505af1158015610658573d6000803e3d6000fd5b5050505050509392505050565b6000918252602082815260408084206001600160a01b0393909316845291905290205460ff1690565b6000828152602081905260409020600101546106a981610707565b61029883836107a6565b60006106be81610707565b6001600160a01b0382166106e45760405162461bcd60e51b8152600401610247906109a7565b50600180546001600160a01b0319166001600160a01b0392909216919091179055565b6107118133610811565b50565b60006107208383610665565b61079e576000838152602081815260408083206001600160a01b03861684529091529020805460ff191660011790556107563390565b6001600160a01b0316826001600160a01b0316847f2f8788117e7eff1d82e926ec794901d17c78024a50270940304540a733656f0d60405160405180910390a4506001610210565b506000610210565b60006107b28383610665565b1561079e576000838152602081815260408083206001600160a01b0386168085529252808320805460ff1916905551339286917ff6391f5c32d9c69d2a47ea670b442974b53935d1edc7fd64eb21e047a839171b9190a4506001610210565b61081b8282610665565b61084a5760405163e2517d3f60e01b81526001600160a01b038216600482015260248101839052604401610247565b5050565b60006020828403121561086057600080fd5b81356001600160e01b03198116811461087857600080fd5b9392505050565b60006020828403121561089157600080fd5b5035919050565b80356001600160a01b03811681146108af57600080fd5b919050565b6000602082840312156108c657600080fd5b61087882610898565b600080604083850312156108e257600080fd5b823591506108f260208401610898565b90509250929050565b6000806040838503121561090e57600080fd5b82356003811061091d57600080fd5b91506108f260208401610898565b60008060006040848603121561094057600080fd5b83359250602084013567ffffffffffffffff8082111561095f57600080fd5b818601915086601f83011261097357600080fd5b81358181111561098257600080fd5b87602082850101111561099457600080fd5b6020830194508093505050509250925092565b60208082526024908201527f4173736574466163746f72793a207a65726f2061646472657373206e6f742076604082015263185b1a5960e21b606082015260800190565b634e487b7160e01b600052602160045260246000fd5b60208152816020820152818360408301376000818301604090810191909152601f909201601f1916010191905056fea2646970667358221220948474190799158fb79fe2bc361a69be155d71c2769ae1b5b23306d5821d3acf64736f6c63430008180033",
  "linkReferences": {},
  "deployedLinkReferences": {}
}