{
  "_format": "hh-sol-artifact-1",
  "contractName": "AssetRemovalExt",
  "sourceName": "contracts/extensions/registry/asset/AssetRemovalExt.sol",
  "abi": [
    {
      "inputs": [
        {
          "internalType": "uint256",
          "name": "value",
          "type": "uint256"
        },
        {
          "internalType": "uint256",
          "name": "length",
          "type": "uint256"
        }
      ],
      "name": "StringsInsufficientHexLength",
      "type": "error"
    },
    {
      "inputs": [
        {
          "internalType": "address",
          "name": "asset",
          "type": "address"
        },
        {
          "internalType": "string",
          "name": "reason",
          "type": "string"
        }
      ],
      "name": "deactivateAsset",
      "outputs": [],
      "stateMutability": "nonpayable",
      "type": "function"
    },
    {
      "inputs": [
        {
          "internalType": "address",
          "name": "myAddress",
          "type": "address"
        }
      ],
      "name": "install",
      "outputs": [],
      "stateMutability": "nonpayable",
      "type": "function"
    },
    {
      "inputs": [],
      "name": "metadata",
      "outputs": [
        {
          "components": [
            {
              "internalType": "string",
              "name": "name",
              "type": "string"
            },
            {
              "components": [
                {
                  "internalType": "uint16",
                  "name": "major",
                  "type": "uint16"
                },
                {
                  "internalType": "uint16",
                  "name": "minor",
                  "type": "uint16"
                }
              ],
              "internalType": "struct Version",
              "name": "version",
              "type": "tuple"
            }
          ],
          "internalType": "struct ExtensionMetadata",
          "name": "",
          "type": "tuple"
        }
      ],
      "stateMutability": "pure",
      "type": "function"
    },
    {
      "inputs": [
        {
          "internalType": "address",
          "name": "asset",
          "type": "address"
        }
      ],
      "name": "reactivateAsset",
      "outputs": [],
      "stateMutability": "nonpayable",
      "type": "function"
    },
    {
      "inputs": [
        {
          "internalType": "address",
          "name": "asset",
          "type": "address"
        },
        {
          "internalType": "string",
          "name": "reason",
          "type": "string"
        }
      ],
      "name": "removeAsset",
      "outputs": [],
      "stateMutability": "nonpayable",
      "type": "function"
    },
    {
      "inputs": [
        {
          "internalType": "address",
          "name": "myAddress",
          "type": "address"
        }
      ],
      "name": "upgrade",
      "outputs": [],
      "stateMutability": "nonpayable",
      "type": "function"
    }
  ],
  "bytecode": "0x608060405234801561001057600080fd5b50610e83806100206000396000f3fe608060405234801561001057600080fd5b50600436106100625760003560e01c80630900f010146100675780632a1b8f9b1461007a57806336ba8acc1461008d578063392f37e9146100a0578063ec5f5636146100be578063f901dc33146100d1575b600080fd5b6100786100753660046109f2565b50565b005b6100786100883660046109f2565b6100e4565b61007861009b3660046109f2565b610281565b6100a8610387565b6040516100b59190610a64565b60405180910390f35b6100786100cc366004610aa9565b6103dc565b6100786100df366004610aa9565b6104db565b60408051600380825260808201909252600091816020015b6040805180820190915260008152606060208201528152602001906001900390816100fc579050509050604051806040016040528063ec5f563660e01b6001600160e01b0319168152602001604051806060016040528060278152602001610e27602791398152508160008151811061017757610177610b42565b602002602001018190525060405180604001604052806336ba8acc60e01b6001600160e01b03191681526020016040518060400160405280602081526020017f72656163746976617465417373657428616464726573732c6164647265737329815250815250816001815181106101f0576101f0610b42565b6020026020010181905250604051806040016040528063f901dc3360e01b6001600160e01b0319168152602001604051806060016040528060238152602001610e04602391398152508160028151811061024c5761024c610b42565b602002602001018190525061027d6040518060400160405280846001600160a01b03168152602001838152506105a5565b5050565b604051630935e01b60e21b815233600482015273__$a5a42e46683ad9c79b7b86d5ff60fdf4c1$__906324d7806c90602401602060405180830381865af41580156102d0573d6000803e3d6000fd5b505050506040513d601f19601f820116820180604052508101906102f49190610b58565b6103195760405162461bcd60e51b815260040161031090610b7a565b60405180910390fd5b60405163699f380760e11b81526001600160a01b038216600482015273__$1822254560a4f971c7e72253c3a08363e7$__9063d33e700e9060240160006040518083038186803b15801561036c57600080fd5b505af4158015610380573d6000803e3d6000fd5b5050505050565b61038f61099a565b5060408051608081018252600f8183019081526e105cdcd95d14995b5bdd985b115e1d608a1b60608301528152815180830190925260018252600060208381019190915281019190915290565b604051630935e01b60e21b815233600482015273__$a5a42e46683ad9c79b7b86d5ff60fdf4c1$__906324d7806c90602401602060405180830381865af415801561042b573d6000803e3d6000fd5b505050506040513d601f19601f8201168201806040525081019061044f9190610b58565b61046b5760405162461bcd60e51b815260040161031090610b7a565b60405163ede71a1760e01b815273__$1822254560a4f971c7e72253c3a08363e7$__9063ede71a17906104a690869086908690600401610bbf565b60006040518083038186803b1580156104be57600080fd5b505af41580156104d2573d6000803e3d6000fd5b50505050505050565b604051630935e01b60e21b815233600482015273__$a5a42e46683ad9c79b7b86d5ff60fdf4c1$__906324d7806c90602401602060405180830381865af415801561052a573d6000803e3d6000fd5b505050506040513d601f19601f8201168201806040525081019061054e9190610b58565b61056a5760405162461bcd60e51b815260040161031090610b7a565b604051633f111a5d60e21b815273__$1822254560a4f971c7e72253c3a08363e7$__9063fc446974906104a690869086908690600401610bbf565b60006105af610768565b82516001600160a01b031660009081526020829052604081209192505b836020015151811015610762576000846020015182815181106105f1576105f1610b42565b6020908102919091018101518051600486810180546001808201835560009283528683206008830401805463ffffffff600790941690950261010090810a9384021990951660e09690961c9290920294909417905583516001600160e01b0319168152918801909352604090208054919350916001600160a01b03910416156106ea57805461010090046001600160a01b03166000908152602086905260408120875190919060018701906106a5906107fe565b6020808701516040516106bf949392600188019101610c9c565b60405160208183030381529060405290508060405162461bcd60e51b81526004016103109190610d86565b50604080518082018252600180825287516001600160a01b03908116602080850191825295516001600160e01b0319166000908152898401909652939094209151825493516001600160a81b0319909416901515610100600160a81b03191617610100939094169290920292909217909155016105cc565b50505050565b60408051808201909152601881527f78722e657874656e73696f6e732e73746f726167652e7631000000000000000060209091015260008060ff6107cd60017fb58ec9ca7ba0606d9fecd9f559655d0e5fec418e6751b65b892bccdfd25eb99f610daf565b6040516020016107df91815260200190565b60408051601f1981840301815291905280516020909101201692915050565b60606108146001600160a01b038316601461081a565b92915050565b606082600061082a846002610dc2565b610835906002610dd9565b67ffffffffffffffff81111561084d5761084d610b2c565b6040519080825280601f01601f191660200182016040528015610877576020820181803683370190505b509050600360fc1b8160008151811061089257610892610b42565b60200101906001600160f81b031916908160001a905350600f60fb1b816001815181106108c1576108c1610b42565b60200101906001600160f81b031916908160001a90535060006108e5856002610dc2565b6108f0906001610dd9565b90505b6001811115610968576f181899199a1a9b1b9c1cb0b131b232b360811b83600f166010811061092457610924610b42565b1a60f81b82828151811061093a5761093a610b42565b60200101906001600160f81b031916908160001a90535060049290921c9161096181610dec565b90506108f3565b5081156109925760405163e22e27eb60e01b81526004810186905260248101859052604401610310565b949350505050565b6040518060400160405280606081526020016109d16040518060400160405280600061ffff168152602001600061ffff1681525090565b905290565b80356001600160a01b03811681146109ed57600080fd5b919050565b600060208284031215610a0457600080fd5b610a0d826109d6565b9392505050565b60005b83811015610a2f578181015183820152602001610a17565b50506000910152565b60008151808452610a50816020860160208601610a14565b601f01601f19169290920160200192915050565b602081526000825160606020840152610a806080840182610a38565b602094850151805161ffff90811660408701529501519094166060909301929092525090919050565b600080600060408486031215610abe57600080fd5b610ac7846109d6565b9250602084013567ffffffffffffffff80821115610ae457600080fd5b818601915086601f830112610af857600080fd5b813581811115610b0757600080fd5b876020828501011115610b1957600080fd5b6020830194508093505050509250925092565b634e487b7160e01b600052604160045260246000fd5b634e487b7160e01b600052603260045260246000fd5b600060208284031215610b6a57600080fd5b81518015158114610a0d57600080fd5b60208082526025908201527f417373657452656d6f76616c4578743a207265737472696374656420746f2061604082015264646d696e7360d81b606082015260800190565b6001600160a01b03841681526040602082018190528101829052818360608301376000818301606090810191909152601f909201601f1916010192915050565b8054600090600181811c9080831680610c1957607f831692505b60208084108203610c3a57634e487b7160e01b600052602260045260246000fd5b818015610c4e5760018114610c6357610c90565b60ff1986168952841515850289019650610c90565b60008881526020902060005b86811015610c885781548b820152908501908301610c6f565b505084890196505b50505050505092915050565b7f4c6962457874656e73696f6e3a20657874656e73696f6e20000000000000000081526000610cce6018830187610bff565b6c01030ba1030b2323932b9b99d1609d1b81528551610cf481600d840160208a01610a14565b8082019150507f20617474656d7074696e6720746f20726575736520612073656c6563746f723a600d820152600160fd1b80602d8301528551610d3e81602e850160208a01610a14565b7f2c20776869636820697320616c72656164792072656769737465726564206279602e9390910192830152604e820152610d7b604f820185610bff565b979650505050505050565b602081526000610a0d6020830184610a38565b634e487b7160e01b600052601160045260246000fd5b8181038181111561081457610814610d99565b808202811582820484141761081457610814610d99565b8082018082111561081457610814610d99565b600081610dfb57610dfb610d99565b50600019019056fe72656d6f7665417373657428616464726573732c616464726573732c737472696e672964656163746976617465417373657428616464726573732c616464726573732c737472696e6729a26469706673582212201c98340e8310248d0127a9aeeb1dd780978007f665a9aa38e2a3c0912781ad2864736f6c63430008180033",
  "linkReferences": {
    "contracts/libraries/LibAccess.sol": {
      "LibAccess": [
        {
          "length": 20,
          "start": 694
        },
        {
          "length": 20,
          "start": 1041
        },
        {
          "length": 20,
          "start": 1296
        }
      ]
    },
    "contracts/libraries/LibEntityRemoval.sol": {
      "LibEntityRemoval": [
        {
          "length": 20,
          "start": 855
        },
        {
          "length": 20,
          "start": 1178
        },
        {
          "length": 20,
          "start": 1433
        }
      ]
    }
  },
  "deployedLinkReferences": {
    "contracts/libraries/LibAccess.sol": {
      "LibAccess": [
        {
          "length": 20,
          "start": 662
        },
        {
          "length": 20,
          "start": 1009
        },
        {
          "length": 20,
          "start": 1264
        }
      ]
    },
    "contracts/libraries/LibEntityRemoval.sol": {
      "LibEntityRemoval": [
        {
          "length": 20,
          "start": 823
        },
        {
          "length": 20,
          "start": 1146
        },
        {
          "length": 20,
          "start": 1401
        }
      ]
    }
  }
}