{
  "_format": "hh-sol-artifact-1",
  "contractName": "AvatarJumpExt",
  "sourceName": "contracts/extensions/avatar/AvatarJumpExt.sol",
  "abi": [
    {
      "inputs": [],
      "name": "ECDSAInvalidSignature",
      "type": "error"
    },
    {
      "inputs": [
        {
          "internalType": "uint256",
          "name": "length",
          "type": "uint256"
        }
      ],
      "name": "ECDSAInvalidSignatureLength",
      "type": "error"
    },
    {
      "inputs": [
        {
          "internalType": "bytes32",
          "name": "s",
          "type": "bytes32"
        }
      ],
      "name": "ECDSAInvalidSignatureS",
      "type": "error"
    },
    {
      "inputs": [
        {
          "internalType": "uint256",
          "name": "value",
          "type": "uint256"
        },
        {
          "internalType": "uint256",
          "name": "length",
          "type": "uint256"
        }
      ],
      "name": "StringsInsufficientHexLength",
      "type": "error"
    },
    {
      "anonymous": false,
      "inputs": [
        {
          "indexed": true,
          "internalType": "address",
          "name": "experience",
          "type": "address"
        },
        {
          "indexed": true,
          "internalType": "uint256",
          "name": "fee",
          "type": "uint256"
        },
        {
          "indexed": false,
          "internalType": "bytes",
          "name": "connectionDetails",
          "type": "bytes"
        }
      ],
      "name": "JumpSuccess",
      "type": "event"
    },
    {
      "inputs": [
        {
          "components": [
            {
              "internalType": "uint256",
              "name": "portalId",
              "type": "uint256"
            },
            {
              "internalType": "uint256",
              "name": "agreedFee",
              "type": "uint256"
            },
            {
              "internalType": "bytes",
              "name": "avatarOwnerSignature",
              "type": "bytes"
            }
          ],
          "internalType": "struct DelegatedJumpRequest",
          "name": "request",
          "type": "tuple"
        }
      ],
      "name": "delegateJump",
      "outputs": [],
      "stateMutability": "payable",
      "type": "function"
    },
    {
      "inputs": [
        {
          "internalType": "address",
          "name": "myAddress",
          "type": "address"
        }
      ],
      "name": "install",
      "outputs": [],
      "stateMutability": "nonpayable",
      "type": "function"
    },
    {
      "inputs": [
        {
          "components": [
            {
              "internalType": "uint256",
              "name": "portalId",
              "type": "uint256"
            },
            {
              "internalType": "uint256",
              "name": "agreedFee",
              "type": "uint256"
            },
            {
              "internalType": "bytes",
              "name": "destinationCompanySignature",
              "type": "bytes"
            }
          ],
          "internalType": "struct AvatarJumpRequest",
          "name": "request",
          "type": "tuple"
        }
      ],
      "name": "jump",
      "outputs": [],
      "stateMutability": "payable",
      "type": "function"
    },
    {
      "inputs": [],
      "name": "metadata",
      "outputs": [
        {
          "components": [
            {
              "internalType": "string",
              "name": "name",
              "type": "string"
            },
            {
              "components": [
                {
                  "internalType": "uint16",
                  "name": "major",
                  "type": "uint16"
                },
                {
                  "internalType": "uint16",
                  "name": "minor",
                  "type": "uint16"
                }
              ],
              "internalType": "struct Version",
              "name": "version",
              "type": "tuple"
            }
          ],
          "internalType": "struct ExtensionMetadata",
          "name": "",
          "type": "tuple"
        }
      ],
      "stateMutability": "pure",
      "type": "function"
    },
    {
      "inputs": [
        {
          "internalType": "address",
          "name": "myAddress",
          "type": "address"
        }
      ],
      "name": "upgrade",
      "outputs": [],
      "stateMutability": "nonpayable",
      "type": "function"
    }
  ],
  "bytecode": "0x608060405234801561001057600080fd5b50611c8e806100206000396000f3fe60806040526004361061004a5760003560e01c80630900f0101461004f5780632a1b8f9b1461006f578063392f37e91461008f578063392f5669146100ba5780637dc759e5146100cd575b600080fd5b34801561005b57600080fd5b5061006d61006a3660046115a2565b50565b005b34801561007b57600080fd5b5061006d61008a3660046115a2565b6100e0565b34801561009b57600080fd5b506100a4610221565b6040516100b19190611616565b60405180910390f35b61006d6100c836600461178c565b610274565b61006d6100db36600461178c565b610513565b60408051600280825260608201909252600091816020015b6040805180820190915260008152606060208201528152602001906001900390816100f8579050509050604051806040016040528063392f566960e01b6001600160e01b03191681526020016040518060400160405280601781526020017f6a756d70284176617461724a756d70526571756573742900000000000000000081525081525081600081518110610190576101906117c1565b60200260200101819052506040518060400160405280637dc759e560e01b6001600160e01b0319168152602001604051806060016040528060228152602001611c3760229139815250816001815181106101ec576101ec6117c1565b602002602001018190525061021d6040518060400160405280846001600160a01b03168152602001838152506108df565b5050565b610229611551565b5060408051608081018252600d8183019081526c105d985d185c929d5b5c115e1d609a1b60608301528152815180830190925260018252600060208381019190915281019190915290565b336001600160a01b031673__$a5a42e46683ad9c79b7b86d5ff60fdf4c1$__638da5cb5b6040518163ffffffff1660e01b8152600401602060405180830381865af41580156102c7573d6000803e3d6000fd5b505050506040513d601f19601f820116820180604052508101906102eb91906117d7565b6001600160a01b0316146103465760405162461bcd60e51b815260206004820152601f60248201527f4176617461723a2063616c6c6572206973206e6f7420746865206f776e65720060448201526064015b60405180910390fd5b600061035182610aa2565b9050806040015182602001511461037a5760405162461bcd60e51b815260040161033d906117f4565b6040810151156103b85760006103903447611856565b905081604001518110156103b65760405162461bcd60e51b815260040161033d90611869565b505b60006103c2610d98565b90506000306001600160a01b031663b66649346040518163ffffffff1660e01b8152600401602060405180830381865afa158015610404573d6000803e3d6000fd5b505050506040513d601f19601f8201168201806040525081019061042891906117d7565b60408481015186519151634262242760e11b8152600481019290925291925082916000916001600160a01b038416916384c4484e9160240160006040518083038185885af115801561047e573d6000803e3d6000fd5b50505050506040513d6000823e601f3d908101601f191682016040526104a791908101906118b0565b85518554610100600160a81b0319166101006001600160a01b039092169182021786556040808801519051929350917fe6b8160f723fcdb4c3cb8bf86e99d55e311c607a791f7503cc16dfaff3271e4390610503908590611927565b60405180910390a3505050505050565b6000306001600160a01b031663c51aba2b6040518163ffffffff1660e01b8152600401602060405180830381865afa158015610553573d6000803e3d6000fd5b505050506040513d601f19601f8201168201806040525081019061057791906117d7565b90506001600160a01b0381166105cf5760405162461bcd60e51b815260206004820181905260248201527f4176617461723a20636f6d70616e79207265676973747279206e6f7420736574604482015260640161033d565b60405163c3c5a54760e01b815233600482015281906001600160a01b0382169063c3c5a54790602401602060405180830381865afa158015610615573d6000803e3d6000fd5b505050506040513d601f19601f82011682018060405250810190610639919061194f565b6106985760405162461bcd60e51b815260206004820152602a60248201527f4176617461723a2063616c6c6572206973206e6f742061207265676973746572604482015269656420636f6d70616e7960b01b606482015260840161033d565b6106a183610e25565b6000306001600160a01b031663b66649346040518163ffffffff1660e01b8152600401602060405180830381865afa1580156106e1573d6000803e3d6000fd5b505050506040513d601f19601f8201168201806040525081019061070591906117d7565b8451604051630a22d5a160e21b815291925082916000916001600160a01b0384169163288b56849161073d9160040190815260200190565b608060405180830381865afa15801561075a573d6000803e3d6000fd5b505050506040513d601f19601f8201168201806040525081019061077e919061196a565b905080604001518660200151146107a75760405162461bcd60e51b815260040161033d906117f4565b6040810151156107e55760006107bd3447611856565b905081604001518110156107e35760405162461bcd60e51b815260040161033d90611869565b505b60006107ef610d98565b90506000836001600160a01b03166384c4484e84604001518a600001516040518363ffffffff1660e01b815260040161082a91815260200190565b60006040518083038185885af1158015610848573d6000803e3d6000fd5b50505050506040513d6000823e601f3d908101601f1916820160405261087191908101906118b0565b83518354610100600160a81b0319166101006001600160a01b039092169182021784556040808601519051929350917fe6b8160f723fcdb4c3cb8bf86e99d55e311c607a791f7503cc16dfaff3271e43906108cd908590611927565b60405180910390a35050505050505050565b60006108e9610fab565b82516001600160a01b031660009081526020829052604081209192505b836020015151811015610a9c5760008460200151828151811061092b5761092b6117c1565b6020908102919091018101518051600486810180546001808201835560009283528683206008830401805463ffffffff600790941690950261010090810a9384021990951660e09690961c9290920294909417905583516001600160e01b0319168152918801909352604090208054919350916001600160a01b0391041615610a2457805461010090046001600160a01b03166000908152602086905260408120875190919060018701906109df90611010565b6020808701516040516109f9949392600188019101611a81565b60405160208183030381529060405290508060405162461bcd60e51b815260040161033d9190611927565b50604080518082018252600180825287516001600160a01b03908116602080850191825295516001600160e01b0319166000908152898401909652939094209151825493516001600160a81b0319909416901515610100600160a81b0319161761010093909416929092029290921790915501610906565b50505050565b6040805160808101825260008082526020820181905291810182905260608101919091526000306001600160a01b031663b66649346040518163ffffffff1660e01b8152600401602060405180830381865afa158015610b06573d6000803e3d6000fd5b505050506040513d601f19601f82011682018060405250810190610b2a91906117d7565b8351604051630a22d5a160e21b8152600481019190915290915081906001600160a01b0382169063288b568490602401608060405180830381865afa158015610b77573d6000803e3d6000fd5b505050506040513d601f19601f82011682018060405250810190610b9b919061196a565b9250600083600001516001600160a01b0316636904c94d6040518163ffffffff1660e01b8152600401602060405180830381865afa158015610be1573d6000803e3d6000fd5b505050506040513d601f19601f82011682018060405250810190610c0591906117d7565b90506000610c11610d98565b6001600160a01b03831660009081526001820160205260408120805492935090610c3a83611b6b565b9091555086516020808901516040805192830193909352918101919091526060810182905260009060800160408051808303601f190181528282528051602091820120818452838301909252909250600091906020820181803683370190505090508160208201526000610cad8261102c565b90506000610cbf828c60400151611067565b604051637df73e2760e01b81526001600160a01b03808316600483015291925090881690637df73e2790602401602060405180830381865afa158015610d09573d6000803e3d6000fd5b505050506040513d601f19601f82011682018060405250810190610d2d919061194f565b610d8a5760405162461bcd60e51b815260206004820152602860248201527f4176617461723a20636f6d70616e79207369676e6572206973206e6f742061756044820152671d1a1bdc9a5e995960c21b606482015260840161033d565b505050505050505050919050565b60408051808201909152601481527378722e6176617461722e73746f726167652e763160601b60209091015260008060ff610df460017f4fd0b807f0bccdb8b9f7d6f3136b4bff018fd299ff833e7b8768182dc5b9a532611b84565b604051602001610e0691815260200190565b60408051601f1981840301815291905280516020909101201692915050565b6000610e2f610d98565b6002810180549192506000610e4383611b6b565b9091555082516020808501516040805192830193909352918101919091526060810182905260009060800160408051808303601f190181528282528051602091820120818452838301909252909250600091906020820181803683370190505090508160208201526000610eb68261102c565b90506000610ec8828860400151611067565b905073__$a5a42e46683ad9c79b7b86d5ff60fdf4c1$__638da5cb5b6040518163ffffffff1660e01b8152600401602060405180830381865af4158015610f13573d6000803e3d6000fd5b505050506040513d601f19601f82011682018060405250810190610f3791906117d7565b6001600160a01b0316816001600160a01b031614610fa25760405162461bcd60e51b815260206004820152602260248201527f4176617461723a20617661746172207369676e6572206973206e6f74206f776e60448201526132b960f11b606482015260840161033d565b50505050505050565b60408051808201909152601881527f78722e657874656e73696f6e732e73746f726167652e7631000000000000000060209091015260008060ff610df460017fb58ec9ca7ba0606d9fecd9f559655d0e5fec418e6751b65b892bccdfd25eb99f611b84565b60606110266001600160a01b0383166014611091565b92915050565b60006110388251611211565b8260405160200161104a929190611b97565b604051602081830303815290604052805190602001209050919050565b60008060008061107786866112a4565b92509250925061108782826112f1565b5090949350505050565b60608260006110a1846002611bf2565b6110ac906002611856565b67ffffffffffffffff8111156110c4576110c461165b565b6040519080825280601f01601f1916602001820160405280156110ee576020820181803683370190505b509050600360fc1b81600081518110611109576111096117c1565b60200101906001600160f81b031916908160001a905350600f60fb1b81600181518110611138576111386117c1565b60200101906001600160f81b031916908160001a905350600061115c856002611bf2565b611167906001611856565b90505b60018111156111df576f181899199a1a9b1b9c1cb0b131b232b360811b83600f166010811061119b5761119b6117c1565b1a60f81b8282815181106111b1576111b16117c1565b60200101906001600160f81b031916908160001a90535060049290921c916111d881611c09565b905061116a565b5081156112095760405163e22e27eb60e01b8152600481018690526024810185905260440161033d565b949350505050565b6060600061121e836113aa565b600101905060008167ffffffffffffffff81111561123e5761123e61165b565b6040519080825280601f01601f191660200182016040528015611268576020820181803683370190505b5090508181016020015b600019016f181899199a1a9b1b9c1cb0b131b232b360811b600a86061a8153600a850494508461127257509392505050565b600080600083516041036112de5760208401516040850151606086015160001a6112d088828585611482565b9550955095505050506112ea565b50508151600091506002905b9250925092565b600082600381111561130557611305611c20565b0361130e575050565b600182600381111561132257611322611c20565b036113405760405163f645eedf60e01b815260040160405180910390fd5b600282600381111561135457611354611c20565b036113755760405163fce698f760e01b81526004810182905260240161033d565b600382600381111561138957611389611c20565b0361021d576040516335e2f38360e21b81526004810182905260240161033d565b60008072184f03e93ff9f4daa797ed6e38ed64bf6a1f0160401b83106113e95772184f03e93ff9f4daa797ed6e38ed64bf6a1f0160401b830492506040015b6d04ee2d6d415b85acef81000000008310611415576d04ee2d6d415b85acef8100000000830492506020015b662386f26fc10000831061143357662386f26fc10000830492506010015b6305f5e100831061144b576305f5e100830492506008015b612710831061145f57612710830492506004015b60648310611471576064830492506002015b600a83106110265760010192915050565b600080807f7fffffffffffffffffffffffffffffff5d576e7357a4501ddfe92f46681b20a08411156114bd5750600091506003905082611547565b604080516000808252602082018084528a905260ff891692820192909252606081018790526080810186905260019060a0016020604051602081039080840390855afa158015611511573d6000803e3d6000fd5b5050604051601f1901519150506001600160a01b03811661153d57506000925060019150829050611547565b9250600091508190505b9450945094915050565b6040518060400160405280606081526020016115886040518060400160405280600061ffff168152602001600061ffff1681525090565b905290565b6001600160a01b038116811461006a57600080fd5b6000602082840312156115b457600080fd5b81356115bf8161158d565b9392505050565b60005b838110156115e15781810151838201526020016115c9565b50506000910152565b600081518084526116028160208601602086016115c6565b601f01601f19169290920160200192915050565b60208152600082516060602084015261163260808401826115ea565b602094850151805161ffff90811660408701529501519094166060909301929092525090919050565b634e487b7160e01b600052604160045260246000fd5b6040516060810167ffffffffffffffff811182821017156116945761169461165b565b60405290565b604051601f8201601f1916810167ffffffffffffffff811182821017156116c3576116c361165b565b604052919050565b600067ffffffffffffffff8211156116e5576116e561165b565b50601f01601f191660200190565b60006060828403121561170557600080fd5b61170d611671565b90508135815260208083013581830152604083013567ffffffffffffffff81111561173757600080fd5b8301601f8101851361174857600080fd5b803561175b611756826116cb565b61169a565b818152868483850101111561176f57600080fd5b818484018583013760009181019093015250604082015292915050565b60006020828403121561179e57600080fd5b813567ffffffffffffffff8111156117b557600080fd5b611209848285016116f3565b634e487b7160e01b600052603260045260246000fd5b6000602082840312156117e957600080fd5b81516115bf8161158d565b6020808252602c908201527f4176617461723a206167726565642066656520646f6573206e6f74206d61746360408201526b6820706f7274616c2066656560a01b606082015260800190565b634e487b7160e01b600052601160045260246000fd5b8082018082111561102657611026611840565b60208082526027908201527f4176617461723a20696e73756666696369656e742066756e647320666f72206a604082015266756d702066656560c81b606082015260800190565b6000602082840312156118c257600080fd5b815167ffffffffffffffff8111156118d957600080fd5b8201601f810184136118ea57600080fd5b80516118f8611756826116cb565b81815285602083850101111561190d57600080fd5b61191e8260208301602086016115c6565b95945050505050565b6020815260006115bf60208301846115ea565b8051801515811461194a57600080fd5b919050565b60006020828403121561196157600080fd5b6115bf8261193a565b60006080828403121561197c57600080fd5b6040516080810181811067ffffffffffffffff8211171561199f5761199f61165b565b60405282516119ad8161158d565b815260208301516119bd8161158d565b6020820152604083810151908201526119d86060840161193a565b60608201529392505050565b8054600090600181811c90808316806119fe57607f831692505b60208084108203611a1f57634e487b7160e01b600052602260045260246000fd5b818015611a335760018114611a4857611a75565b60ff1986168952841515850289019650611a75565b60008881526020902060005b86811015611a6d5781548b820152908501908301611a54565b505084890196505b50505050505092915050565b7f4c6962457874656e73696f6e3a20657874656e73696f6e20000000000000000081526000611ab360188301876119e4565b6c01030ba1030b2323932b9b99d1609d1b81528551611ad981600d840160208a016115c6565b8082019150507f20617474656d7074696e6720746f20726575736520612073656c6563746f723a600d820152600160fd1b80602d8301528551611b2381602e850160208a016115c6565b7f2c20776869636820697320616c72656164792072656769737465726564206279602e9390910192830152604e820152611b60604f8201856119e4565b979650505050505050565b600060018201611b7d57611b7d611840565b5060010190565b8181038181111561102657611026611840565b7f19457468657265756d205369676e6564204d6573736167653a0a000000000000815260008351611bcf81601a8501602088016115c6565b835190830190611be681601a8401602088016115c6565b01601a01949350505050565b808202811582820484141761102657611026611840565b600081611c1857611c18611840565b506000190190565b634e487b7160e01b600052602160045260246000fdfe64656c65676174654a756d702844656c6567617465644a756d705265717565737429a264697066735822122012a41ee1abd904f794c6df78e296c52285b826a6c314dd74a0c0d9815ad18aaa64736f6c63430008180033",
  "linkReferences": {
    "contracts/libraries/LibAccess.sol": {
      "LibAccess": [
        {
          "length": 20,
          "start": 672
        },
        {
          "length": 20,
          "start": 3820
        }
      ]
    }
  },
  "deployedLinkReferences": {
    "contracts/libraries/LibAccess.sol": {
      "LibAccess": [
        {
          "length": 20,
          "start": 640
        },
        {
          "length": 20,
          "start": 3788
        }
      ]
    }
  }
}