{
  "_format": "hh-sol-artifact-1",
  "contractName": "Avatar",
  "sourceName": "contracts/avatar/Avatar.sol",
  "abi": [
    {
      "inputs": [
        {
          "components": [
            {
              "internalType": "address",
              "name": "avatarFactory",
              "type": "address"
            },
            {
              "internalType": "address",
              "name": "avatarRegistry",
              "type": "address"
            },
            {
              "internalType": "address",
              "name": "experienceRegistry",
              "type": "address"
            },
            {
              "internalType": "address",
              "name": "portalRegistry",
              "type": "address"
            },
            {
              "internalType": "address",
              "name": "companyRegistry",
              "type": "address"
            },
            {
              "internalType": "address",
              "name": "multiAssetRegistry",
              "type": "address"
            }
          ],
          "internalType": "struct BaseContructorArgs",
          "name": "args",
          "type": "tuple"
        }
      ],
      "stateMutability": "nonpayable",
      "type": "constructor"
    },
    {
      "inputs": [],
      "name": "ECDSAInvalidSignature",
      "type": "error"
    },
    {
      "inputs": [
        {
          "internalType": "uint256",
          "name": "length",
          "type": "uint256"
        }
      ],
      "name": "ECDSAInvalidSignatureLength",
      "type": "error"
    },
    {
      "inputs": [
        {
          "internalType": "bytes32",
          "name": "s",
          "type": "bytes32"
        }
      ],
      "name": "ECDSAInvalidSignatureS",
      "type": "error"
    },
    {
      "inputs": [],
      "name": "ReentrancyGuardReentrantCall",
      "type": "error"
    },
    {
      "anonymous": false,
      "inputs": [
        {
          "indexed": true,
          "internalType": "bytes",
          "name": "appearanceDetails",
          "type": "bytes"
        }
      ],
      "name": "AppearanceChanged",
      "type": "event"
    },
    {
      "anonymous": false,
      "inputs": [
        {
          "indexed": true,
          "internalType": "address",
          "name": "oldVersion",
          "type": "address"
        },
        {
          "indexed": true,
          "internalType": "address",
          "name": "nextVersion",
          "type": "address"
        }
      ],
      "name": "AvatarUpgraded",
      "type": "event"
    },
    {
      "anonymous": false,
      "inputs": [],
      "name": "HookRemoved",
      "type": "event"
    },
    {
      "anonymous": false,
      "inputs": [
        {
          "indexed": true,
          "internalType": "address",
          "name": "hook",
          "type": "address"
        }
      ],
      "name": "HookSet",
      "type": "event"
    },
    {
      "anonymous": false,
      "inputs": [
        {
          "indexed": true,
          "internalType": "address",
          "name": "experience",
          "type": "address"
        },
        {
          "indexed": true,
          "internalType": "uint256",
          "name": "fee",
          "type": "uint256"
        },
        {
          "indexed": true,
          "internalType": "bytes",
          "name": "connectionDetails",
          "type": "bytes"
        }
      ],
      "name": "JumpSuccess",
      "type": "event"
    },
    {
      "anonymous": false,
      "inputs": [
        {
          "indexed": true,
          "internalType": "address",
          "name": "location",
          "type": "address"
        }
      ],
      "name": "LocationChanged",
      "type": "event"
    },
    {
      "anonymous": false,
      "inputs": [
        {
          "indexed": true,
          "internalType": "address",
          "name": "signer",
          "type": "address"
        }
      ],
      "name": "SignerAdded",
      "type": "event"
    },
    {
      "anonymous": false,
      "inputs": [
        {
          "indexed": true,
          "internalType": "address",
          "name": "signer",
          "type": "address"
        }
      ],
      "name": "SignerRemoved",
      "type": "event"
    },
    {
      "anonymous": false,
      "inputs": [
        {
          "indexed": true,
          "internalType": "address",
          "name": "wearable",
          "type": "address"
        },
        {
          "indexed": false,
          "internalType": "uint256",
          "name": "tokenId",
          "type": "uint256"
        }
      ],
      "name": "WearableAdded",
      "type": "event"
    },
    {
      "anonymous": false,
      "inputs": [
        {
          "indexed": true,
          "internalType": "address",
          "name": "wearable",
          "type": "address"
        },
        {
          "indexed": false,
          "internalType": "uint256",
          "name": "tokenId",
          "type": "uint256"
        }
      ],
      "name": "WearableRemoved",
      "type": "event"
    },
    {
      "inputs": [
        {
          "components": [
            {
              "internalType": "address",
              "name": "asset",
              "type": "address"
            },
            {
              "internalType": "uint256",
              "name": "tokenId",
              "type": "uint256"
            }
          ],
          "internalType": "struct Wearable",
          "name": "wearable",
          "type": "tuple"
        }
      ],
      "name": "addWearable",
      "outputs": [],
      "stateMutability": "nonpayable",
      "type": "function"
    },
    {
      "inputs": [],
      "name": "appearanceDetails",
      "outputs": [
        {
          "internalType": "bytes",
          "name": "",
          "type": "bytes"
        }
      ],
      "stateMutability": "view",
      "type": "function"
    },
    {
      "inputs": [],
      "name": "assetRegistry",
      "outputs": [
        {
          "internalType": "contract IMultiAssetRegistry",
          "name": "",
          "type": "address"
        }
      ],
      "stateMutability": "view",
      "type": "function"
    },
    {
      "inputs": [],
      "name": "avatarFactory",
      "outputs": [
        {
          "internalType": "address",
          "name": "",
          "type": "address"
        }
      ],
      "stateMutability": "view",
      "type": "function"
    },
    {
      "inputs": [],
      "name": "avatarOwnerSigningNonce",
      "outputs": [
        {
          "internalType": "uint256",
          "name": "",
          "type": "uint256"
        }
      ],
      "stateMutability": "view",
      "type": "function"
    },
    {
      "inputs": [],
      "name": "avatarRegistry",
      "outputs": [
        {
          "internalType": "contract IAvatarRegistry",
          "name": "",
          "type": "address"
        }
      ],
      "stateMutability": "view",
      "type": "function"
    },
    {
      "inputs": [],
      "name": "canReceiveTokensOutsideOfExperience",
      "outputs": [
        {
          "internalType": "bool",
          "name": "",
          "type": "bool"
        }
      ],
      "stateMutability": "view",
      "type": "function"
    },
    {
      "inputs": [],
      "name": "companyRegistry",
      "outputs": [
        {
          "internalType": "contract ICompanyRegistry",
          "name": "",
          "type": "address"
        }
      ],
      "stateMutability": "view",
      "type": "function"
    },
    {
      "inputs": [
        {
          "internalType": "address",
          "name": "company",
          "type": "address"
        }
      ],
      "name": "companySigningNonce",
      "outputs": [
        {
          "internalType": "uint256",
          "name": "",
          "type": "uint256"
        }
      ],
      "stateMutability": "view",
      "type": "function"
    },
    {
      "inputs": [
        {
          "components": [
            {
              "internalType": "uint256",
              "name": "portalId",
              "type": "uint256"
            },
            {
              "internalType": "uint256",
              "name": "agreedFee",
              "type": "uint256"
            },
            {
              "internalType": "bytes",
              "name": "avatarOwnerSignature",
              "type": "bytes"
            }
          ],
          "internalType": "struct DelegatedJumpRequest",
          "name": "request",
          "type": "tuple"
        }
      ],
      "name": "delegateJump",
      "outputs": [],
      "stateMutability": "payable",
      "type": "function"
    },
    {
      "inputs": [
        {
          "components": [
            {
              "internalType": "bool",
              "name": "canReceiveTokensOutsideOfExperience",
              "type": "bool"
            },
            {
              "internalType": "bytes",
              "name": "appearanceDetails",
              "type": "bytes"
            }
          ],
          "internalType": "struct AvatarInitData",
          "name": "data",
          "type": "tuple"
        }
      ],
      "name": "encodeInitData",
      "outputs": [
        {
          "internalType": "bytes",
          "name": "",
          "type": "bytes"
        }
      ],
      "stateMutability": "pure",
      "type": "function"
    },
    {
      "inputs": [],
      "name": "experienceRegistry",
      "outputs": [
        {
          "internalType": "contract IExperienceRegistry",
          "name": "",
          "type": "address"
        }
      ],
      "stateMutability": "view",
      "type": "function"
    },
    {
      "inputs": [],
      "name": "getWearables",
      "outputs": [
        {
          "components": [
            {
              "internalType": "address",
              "name": "asset",
              "type": "address"
            },
            {
              "internalType": "uint256",
              "name": "tokenId",
              "type": "uint256"
            }
          ],
          "internalType": "struct Wearable[]",
          "name": "",
          "type": "tuple[]"
        }
      ],
      "stateMutability": "view",
      "type": "function"
    },
    {
      "inputs": [],
      "name": "hook",
      "outputs": [
        {
          "internalType": "contract IAvatarHook",
          "name": "",
          "type": "address"
        }
      ],
      "stateMutability": "view",
      "type": "function"
    },
    {
      "inputs": [
        {
          "internalType": "address",
          "name": "_owner",
          "type": "address"
        },
        {
          "internalType": "address",
          "name": "defaultExperience",
          "type": "address"
        },
        {
          "internalType": "string",
          "name": "_name",
          "type": "string"
        },
        {
          "internalType": "bytes",
          "name": "initData",
          "type": "bytes"
        }
      ],
      "name": "init",
      "outputs": [],
      "stateMutability": "nonpayable",
      "type": "function"
    },
    {
      "inputs": [
        {
          "components": [
            {
              "internalType": "address",
              "name": "asset",
              "type": "address"
            },
            {
              "internalType": "uint256",
              "name": "tokenId",
              "type": "uint256"
            }
          ],
          "internalType": "struct Wearable",
          "name": "wearable",
          "type": "tuple"
        }
      ],
      "name": "isWearing",
      "outputs": [
        {
          "internalType": "bool",
          "name": "",
          "type": "bool"
        }
      ],
      "stateMutability": "view",
      "type": "function"
    },
    {
      "inputs": [
        {
          "components": [
            {
              "internalType": "uint256",
              "name": "portalId",
              "type": "uint256"
            },
            {
              "internalType": "uint256",
              "name": "agreedFee",
              "type": "uint256"
            },
            {
              "internalType": "bytes",
              "name": "destinationCompanySignature",
              "type": "bytes"
            }
          ],
          "internalType": "struct AvatarJumpRequest",
          "name": "request",
          "type": "tuple"
        }
      ],
      "name": "jump",
      "outputs": [],
      "stateMutability": "payable",
      "type": "function"
    },
    {
      "inputs": [],
      "name": "location",
      "outputs": [
        {
          "internalType": "contract IExperience",
          "name": "",
          "type": "address"
        }
      ],
      "stateMutability": "view",
      "type": "function"
    },
    {
      "inputs": [
        {
          "internalType": "address",
          "name": "",
          "type": "address"
        },
        {
          "internalType": "address",
          "name": "",
          "type": "address"
        },
        {
          "internalType": "uint256",
          "name": "tokenId",
          "type": "uint256"
        },
        {
          "internalType": "bytes",
          "name": "",
          "type": "bytes"
        }
      ],
      "name": "onERC721Received",
      "outputs": [
        {
          "internalType": "bytes4",
          "name": "",
          "type": "bytes4"
        }
      ],
      "stateMutability": "nonpayable",
      "type": "function"
    },
    {
      "inputs": [],
      "name": "owner",
      "outputs": [
        {
          "internalType": "address",
          "name": "",
          "type": "address"
        }
      ],
      "stateMutability": "view",
      "type": "function"
    },
    {
      "inputs": [],
      "name": "portalRegistry",
      "outputs": [
        {
          "internalType": "contract IPortalRegistry",
          "name": "",
          "type": "address"
        }
      ],
      "stateMutability": "view",
      "type": "function"
    },
    {
      "inputs": [],
      "name": "removeHook",
      "outputs": [],
      "stateMutability": "nonpayable",
      "type": "function"
    },
    {
      "inputs": [
        {
          "components": [
            {
              "internalType": "address",
              "name": "asset",
              "type": "address"
            },
            {
              "internalType": "uint256",
              "name": "tokenId",
              "type": "uint256"
            }
          ],
          "internalType": "struct Wearable",
          "name": "wearable",
          "type": "tuple"
        }
      ],
      "name": "removeWearable",
      "outputs": [],
      "stateMutability": "nonpayable",
      "type": "function"
    },
    {
      "inputs": [
        {
          "internalType": "bytes",
          "name": "details",
          "type": "bytes"
        }
      ],
      "name": "setAppearanceDetails",
      "outputs": [],
      "stateMutability": "nonpayable",
      "type": "function"
    },
    {
      "inputs": [
        {
          "internalType": "bool",
          "name": "canReceive",
          "type": "bool"
        }
      ],
      "name": "setCanReceiveTokensOutsideOfExperience",
      "outputs": [],
      "stateMutability": "nonpayable",
      "type": "function"
    },
    {
      "inputs": [
        {
          "internalType": "contract IAvatarHook",
          "name": "_hook",
          "type": "address"
        }
      ],
      "name": "setHook",
      "outputs": [],
      "stateMutability": "nonpayable",
      "type": "function"
    },
    {
      "inputs": [
        {
          "internalType": "bytes",
          "name": "initData",
          "type": "bytes"
        }
      ],
      "name": "upgrade",
      "outputs": [],
      "stateMutability": "nonpayable",
      "type": "function"
    },
    {
      "inputs": [
        {
          "internalType": "address",
          "name": "nextVersion",
          "type": "address"
        }
      ],
      "name": "upgradeComplete",
      "outputs": [],
      "stateMutability": "nonpayable",
      "type": "function"
    },
    {
      "inputs": [],
      "name": "username",
      "outputs": [
        {
          "internalType": "string",
          "name": "",
          "type": "string"
        }
      ],
      "stateMutability": "view",
      "type": "function"
    },
    {
      "inputs": [],
      "name": "version",
      "outputs": [
        {
          "internalType": "uint256",
          "name": "",
          "type": "uint256"
        }
      ],
      "stateMutability": "view",
      "type": "function"
    },
    {
      "inputs": [
        {
          "internalType": "uint256",
          "name": "amount",
          "type": "uint256"
        }
      ],
      "name": "withdraw",
      "outputs": [],
      "stateMutability": "nonpayable",
      "type": "function"
    },
    {
      "stateMutability": "payable",
      "type": "receive"
    }
  ],
  "bytecode": "0x6101406040523480156200001257600080fd5b50604051620038e2380380620038e2833981016040819052620000359162000367565b600160005580516001600160a01b0316620000ad5760405162461bcd60e51b815260206004820152602d60248201527f4176617461723a2061766174617220666163746f72792063616e6e6f7420626560448201526c207a65726f206164647265737360981b60648201526084015b60405180910390fd5b60408101516001600160a01b0316620001245760405162461bcd60e51b815260206004820152603260248201527f4176617461723a20657870657269656e63652072656769737472792063616e6e6044820152716f74206265207a65726f206164647265737360701b6064820152608401620000a4565b60608101516001600160a01b0316620001975760405162461bcd60e51b815260206004820152602e60248201527f4176617461723a20706f7274616c2072656769737472792063616e6e6f74206260448201526d65207a65726f206164647265737360901b6064820152608401620000a4565b60808101516001600160a01b03166200020b5760405162461bcd60e51b815260206004820152602f60248201527f4176617461723a20636f6d70616e792072656769737472792063616e6e6f742060448201526e6265207a65726f206164647265737360881b6064820152608401620000a4565b60208101516001600160a01b03166200027e5760405162461bcd60e51b815260206004820152602e60248201527f4176617461723a206176617461722072656769737472792063616e6e6f74206260448201526d65207a65726f206164647265737360901b6064820152608401620000a4565b60a08101516001600160a01b0316620003005760405162461bcd60e51b815260206004820152603360248201527f4176617461723a206d756c74692d61737365742072656769737472792063616e60448201527f6e6f74206265207a65726f2061646472657373000000000000000000000000006064820152608401620000a4565b80516001600160a01b0390811660809081526040830151821660c0526060830151821660e0528201518116610100526020820151811660a090815290910151166101205262000421565b80516001600160a01b03811681146200036257600080fd5b919050565b600060c082840312156200037a57600080fd5b60405160c081016001600160401b0381118282101715620003ab57634e487b7160e01b600052604160045260246000fd5b604052620003b9836200034a565b8152620003c9602084016200034a565b6020820152620003dc604084016200034a565b6040820152620003ef606084016200034a565b606082015262000402608084016200034a565b60808201526200041560a084016200034a565b60a08201529392505050565b60805160a05160c05160e0516101005161012051613424620004be600039600081816104f5015281816106fc0152610c1101526000818161059d01526118ca015260008181610569015281816113c1015281816119c101528181611a8a015261212d0152600081816104a10152611f2e0152600081816105d101526110820152600081816104060152818161110d0152611d9101526134246000f3fe6080604052600436106101dc5760003560e01c806360e741e811610102578063979d7e8611610095578063c51aba2b11610064578063c51aba2b1461058b578063e3d7ad73146105bf578063e427535c146105f3578063f890d7c91461061357600080fd5b8063979d7e86146104e35780639be17fbc146105175780639d870bf614610537578063b66649341461055757600080fd5b80638970220e116100d15780638970220e146104655780638da5cb5b1461047a5780638f09a6be1461048f578063949a1ddc146104c357600080fd5b806360e741e8146103f457806361fac54d146104285780637dc759e51461043d5780637f5a7c7b1461045057600080fd5b8063378f17ff1161017a578063516f279e11610149578063516f279e1461037057806354cf0b391461039d57806354fd4d50146103bd5780635cf59e1e146103d257600080fd5b8063378f17ff146102fb578063392f5669146103105780633dfd38731461032357806340ac3f0b1461034357600080fd5b8063181d939b116101b6578063181d939b14610276578063253946451461029b5780632663d1f7146102bb5780632e1a7d4d146102db57600080fd5b806303f7d3ba146101e857806312deb11a1461021b578063150b7a021461023d57600080fd5b366101e357005b600080fd5b3480156101f457600080fd5b50610208610203366004612870565b610628565b6040519081526020015b60405180910390f35b34801561022757600080fd5b5061023b61023636600461288d565b610655565b005b34801561024957600080fd5b5061025d6102583660046128ed565b610be5565b6040516001600160e01b03199091168152602001610212565b34801561028257600080fd5b5061028b61101b565b6040519015158152602001610212565b3480156102a757600080fd5b5061023b6102b636600461295f565b611030565b3480156102c757600080fd5b5061023b6102d6366004612870565b611102565b3480156102e757600080fd5b5061023b6102f63660046129a0565b6111bb565b34801561030757600080fd5b5061023b6112a3565b61023b61031e366004612b29565b61132a565b34801561032f57600080fd5b5061023b61033e366004612870565b6114df565b34801561034f57600080fd5b5061036361035e366004612b73565b6115d8565b6040516102129190612c42565b34801561037c57600080fd5b50610385611601565b6040516001600160a01b039091168152602001610212565b3480156103a957600080fd5b5061023b6103b836600461288d565b61161f565b3480156103c957600080fd5b50610208600181565b3480156103de57600080fd5b506103e7611785565b6040516102129190612c55565b34801561040057600080fd5b506103857f000000000000000000000000000000000000000000000000000000000000000081565b34801561043457600080fd5b50610363611814565b61023b61044b366004612b29565b6118b5565b34801561045c57600080fd5b50610385611ba7565b34801561047157600080fd5b50610363611bc5565b34801561048657600080fd5b50610385611be2565b34801561049b57600080fd5b506103857f000000000000000000000000000000000000000000000000000000000000000081565b3480156104cf57600080fd5b5061023b6104de366004612cad565b611c02565b3480156104ef57600080fd5b506103857f000000000000000000000000000000000000000000000000000000000000000081565b34801561052357600080fd5b5061028b61053236600461288d565b611c9b565b34801561054357600080fd5b5061023b610552366004612ce1565b611d2d565b34801561056357600080fd5b506103857f000000000000000000000000000000000000000000000000000000000000000081565b34801561059757600080fd5b506103857f000000000000000000000000000000000000000000000000000000000000000081565b3480156105cb57600080fd5b506103857f000000000000000000000000000000000000000000000000000000000000000081565b3480156105ff57600080fd5b5061023b61060e366004612cfe565b611d86565b34801561061f57600080fd5b5061020861208f565b6000806106336120a4565b6001600160a01b03909316600090815260059093016020525050604090205490565b600061065f6120a4565b805490915061010090046001600160a01b031633146106995760405162461bcd60e51b815260040161069090612d9d565b60405180910390fd5b60006106a86020840184612870565b6001600160a01b0316036106ce5760405162461bcd60e51b815260040161069090612de6565b60008260200135116106f25760405162461bcd60e51b815260040161069090612e33565b6001600160a01b037f00000000000000000000000000000000000000000000000000000000000000001663adec561861072e6020850185612870565b6040516001600160e01b031960e084901b1681526001600160a01b039091166004820152602401602060405180830381865afa158015610772573d6000803e3d6000fd5b505050506040513d601f19601f820116820180604052508101906107969190612e7a565b6107f05760405162461bcd60e51b815260206004820152602560248201527f4176617461723a207765617261626c65206173736574206e6f742072656769736044820152641d195c995960da1b6064820152608401610690565b60006107ff6020840184612870565b9050600061080b611601565b905061081a6020850185612870565b6001600160a01b0316633fa47f176040518060a001604052808760000160208101906108469190612870565b6001600160a01b03168152602001846001600160a01b03166330b67baa6040518163ffffffff1660e01b8152600401602060405180830381865afa158015610892573d6000803e3d6000fd5b505050506040513d601f19601f820116820180604052508101906108b69190612e97565b6001600160a01b03168152602001846001600160a01b0316636904c94d6040518163ffffffff1660e01b8152600401602060405180830381865afa158015610902573d6000803e3d6000fd5b505050506040513d601f19601f820116820180604052508101906109269190612e97565b6001600160a01b03908116825285811660208084019190915230604093840152825160e086901b6001600160e01b031916815284518316600482015290840151821660248201529183015181166044830152606083015181166064830152608090920151909116608482015260a401602060405180830381865afa1580156109b2573d6000803e3d6000fd5b505050506040513d601f19601f820116820180604052508101906109d69190612e7a565b610a3a5760405162461bcd60e51b815260206004820152602f60248201527f4176617461723a207765617261626c652061737365742063616e6e6f7420626560448201526e103ab9b2b210313c9030bb30ba30b960891b6064820152608401610690565b6040516331a9108f60e11b81526020850135600482015230906001600160a01b03841690636352211e90602401602060405180830381865afa158015610a84573d6000803e3d6000fd5b505050506040513d601f19601f82011682018060405250810190610aa89190612e97565b6001600160a01b031614610b115760405162461bcd60e51b815260206004820152602a60248201527f4176617461723a207765617261626c6520746f6b656e206e6f74206f776e656460448201526910313c9030bb30ba30b960b11b6064820152608401610690565b6000610b1b6120a4565b604051630dfd3df760e11b815290915073__$c011c5c9201293cae8fa3d59d203092c54$__90631bfa7bee90610b5a9060078501908990600401612eb4565b60006040518083038186803b158015610b7257600080fd5b505af4158015610b86573d6000803e3d6000fd5b50610b98925050506020860186612870565b6001600160a01b03167fc33fdb2e96e0dba49a8cb36af300177e6ba61804be87a31a26e27ab52596ecf28660200135604051610bd691815260200190565b60405180910390a25050505050565b6000610bef6120c8565b6000610bf96120a4565b6040516315bd8ac360e31b81523360048201529091507f00000000000000000000000000000000000000000000000000000000000000006001600160a01b03169063adec561890602401602060405180830381865afa158015610c60573d6000803e3d6000fd5b505050506040513d601f19601f82011682018060405250810190610c849190612e7a565b610ce75760405162461bcd60e51b815260206004820152602e60248201527f4176617461723a2045524337323120746f6b656e206e6f742066726f6d20726560448201526d19da5cdd195c995908185cdcd95d60921b6064820152608401610690565b8054339060ff16610e49576000336001600160a01b0316631d1438486040518163ffffffff1660e01b8152600401602060405180830381865afa158015610d32573d6000803e3d6000fd5b505050506040513d601f19601f82011682018060405250810190610d569190612e97565b600184015460408051636904c94d60e01b815290519293506001600160a01b03909116918291636904c94d9160048083019260209291908290030181865afa158015610da6573d6000803e3d6000fd5b505050506040513d601f19601f82011682018060405250810190610dca9190612e97565b6001600160a01b0316826001600160a01b031614610e465760405162461bcd60e51b815260206004820152603360248201527f4176617461723a2063616e6e6f74207265636569766520746f6b656e73206f756044820152727473696465206f6620657870657269656e636560681b6064820152608401610690565b50505b6040516331a9108f60e11b81526004810187905230906001600160a01b03831690636352211e90602401602060405180830381865afa158015610e90573d6000803e3d6000fd5b505050506040513d601f19601f82011682018060405250810190610eb49190612e97565b6001600160a01b031614610f1b5760405162461bcd60e51b815260206004820152602860248201527f4176617461723a2045524337323120746f6b656e206e6f74206f776e656420626044820152673c9030bb30ba30b960c11b6064820152608401610690565b60028201546001600160a01b031615611002576002820154604051631d9a6bd160e11b8152306004820152336024820152604481018890526001600160a01b0390911690633b34d7a2906064016020604051808303816000875af1158015610f87573d6000803e3d6000fd5b505050506040513d601f19601f82011682018060405250810190610fab9190612e7a565b6110025760405162461bcd60e51b815260206004820152602260248201527f4176617461723a20686f6f6b2072656a65637465642045524337323120746f6b60448201526132b760f11b6064820152608401610690565b5050600160005550630a85bd0160e11b95945050505050565b6000806110266120a4565b5460ff1692915050565b600061103a6120a4565b805490915061010090046001600160a01b0316331461106b5760405162461bcd60e51b815260040161069090612d9d565b60405163612ca62160e01b81526001600160a01b037f0000000000000000000000000000000000000000000000000000000000000000169063612ca621906110b99086908690600401612ee8565b6020604051808303816000875af11580156110d8573d6000803e3d6000fd5b505050506040513d601f19601f820116820180604052508101906110fc9190612e97565b50505050565b336001600160a01b037f0000000000000000000000000000000000000000000000000000000000000000161461114a5760405162461bcd60e51b815260040161069090612f17565b7f69198989339f34e10129e514286bde98979351148754faef989dde18bf6d14da80546001600160a01b031981166001600160a01b03848116918217845560405192169182907f722ee95a7e2eed3235f2e3bdb62d3f6e70079578905580fbf8bb414519dd617290600090a3505050565b60006111c56120a4565b805490915061010090046001600160a01b031633146111f65760405162461bcd60e51b815260040161069090612d9d565b4782111561125a5760405162461bcd60e51b815260206004820152602b60248201527f4176617461723a20696e73756666696369656e742062616c616e636520666f7260448201526a081dda5d1a191c985dd85b60aa1b6064820152608401610690565b60006112646120a4565b80546040519192506001600160a01b0361010090910416904780156108fc02916000818181858888f193505050501580156110fc573d6000803e3d6000fd5b60006112ad6120a4565b805490915061010090046001600160a01b031633146112de5760405162461bcd60e51b815260040161069090612d9d565b60006112e86120a4565b6002810180546001600160a01b03191690556040519091507f4abf6d25887ff6b78026f569f956b6d57d5b92cecf0ee91d897ec98e47f656a390600090a15050565b60006113346120a4565b805490915061010090046001600160a01b031633146113655760405162461bcd60e51b815260040161069090612d9d565b6000611370836120f2565b6040810151909150156113b15760006113893447612f78565b905081604001518110156113af5760405162461bcd60e51b815260040161069090612f8b565b505b60006113bb6120a4565b905060007f00000000000000000000000000000000000000000000000000000000000000006001600160a01b03166384c4484e846040015187600001516040518363ffffffff1660e01b815260040161141691815260200190565b60006040518083038185885af1158015611434573d6000803e3d6000fd5b50505050506040513d6000823e601f3d908101601f1916820160405261145d9190810190613017565b83516001840180546001600160a01b0319166001600160a01b0390921691909117905560405190915061149190829061304b565b6040518091039020836040015184600001516001600160a01b03167fe6b8160f723fcdb4c3cb8bf86e99d55e311c607a791f7503cc16dfaff3271e4360405160405180910390a45050505050565b60006114e96120a4565b805490915061010090046001600160a01b0316331461151a5760405162461bcd60e51b815260040161069090612d9d565b6001600160a01b03821661157c5760405162461bcd60e51b815260206004820152602360248201527f4176617461723a20686f6f6b2063616e6e6f74206265207a65726f206164647260448201526265737360e81b6064820152608401610690565b60006115866120a4565b6002810180546001600160a01b0319166001600160a01b038616908117909155604051919250907f4eab7b127c764308788622363ad3e9532de3dfba7845bd4f84c125a22544255a90600090a2505050565b6060816040516020016115eb9190613067565b6040516020818303038152906040529050919050565b60008061160c6120a4565b600101546001600160a01b031692915050565b60006116296120a4565b805490915061010090046001600160a01b0316331461165a5760405162461bcd60e51b815260040161069090612d9d565b60006116696020840184612870565b6001600160a01b03160361168f5760405162461bcd60e51b815260040161069090612de6565b60008260200135116116b35760405162461bcd60e51b815260040161069090612e33565b60006116bd6120a4565b6040516358888ef160e01b815290915073__$c011c5c9201293cae8fa3d59d203092c54$__906358888ef1906116fc9060078501908790600401612eb4565b60006040518083038186803b15801561171457600080fd5b505af4158015611728573d6000803e3d6000fd5b5061173a925050506020840184612870565b6001600160a01b03167f60c3791748d09484f5d949c7570a640dad2f40bbebc2571b8f6c0e6a13e96fac846020013560405161177891815260200190565b60405180910390a2505050565b606060006117916120a4565b6040516372a9762360e11b815260078201600482015290915073__$c011c5c9201293cae8fa3d59d203092c54$__9063e552ec4690602401600060405180830381865af41580156117e6573d6000803e3d6000fd5b505050506040513d6000823e601f3d908101601f1916820160405261180e919081019061308e565b91505090565b606060006118206120a4565b905080600301805461183190613163565b80601f016020809104026020016040519081016040528092919081815260200182805461185d90613163565b80156118aa5780601f1061187f576101008083540402835291602001916118aa565b820191906000526020600020905b81548152906001019060200180831161188d57829003601f168201915b505050505091505090565b604051632405672560e21b81523360048201527f00000000000000000000000000000000000000000000000000000000000000006001600160a01b0316906390159c9490602401602060405180830381865afa158015611919573d6000803e3d6000fd5b505050506040513d601f19601f8201168201806040525081019061193d9190612e7a565b61199c5760405162461bcd60e51b815260206004820152602a60248201527f4176617461723a2063616c6c6572206973206e6f742061207265676973746572604482015269656420636f6d70616e7960b01b6064820152608401610690565b6119a581612393565b8051604051630a22d5a160e21b81526000916001600160a01b037f0000000000000000000000000000000000000000000000000000000000000000169163288b5684916119f89160040190815260200190565b606060405180830381865afa158015611a15573d6000803e3d6000fd5b505050506040513d601f19601f82011682018060405250810190611a399190613197565b604081015190915015611a7a576000611a523447612f78565b90508160400151811015611a785760405162461bcd60e51b815260040161069090612f8b565b505b6000611a846120a4565b905060007f00000000000000000000000000000000000000000000000000000000000000006001600160a01b03166384c4484e846040015186600001516040518363ffffffff1660e01b8152600401611adf91815260200190565b60006040518083038185885af1158015611afd573d6000803e3d6000fd5b50505050506040513d6000823e601f3d908101601f19168201604052611b269190810190613017565b83516001840180546001600160a01b0319166001600160a01b03909216919091179055604051909150611b5a90829061304b565b6040518091039020836040015184600001516001600160a01b03167fe6b8160f723fcdb4c3cb8bf86e99d55e311c607a791f7503cc16dfaff3271e4360405160405180910390a450505050565b600080611bb26120a4565b600201546001600160a01b031692915050565b60606000611bd16120a4565b905080600401805461183190613163565b600080611bed6120a4565b5461010090046001600160a01b031692915050565b6000611c0c6120a4565b805490915061010090046001600160a01b03163314611c3d5760405162461bcd60e51b815260040161069090612d9d565b6000611c476120a4565b905060048101611c578482613235565b5082604051611c66919061304b565b604051908190038120907fe8ed633186ac64f9f0ab9b48cb1cca12eebe0f7e0ffdc46908733a060363236690600090a2505050565b600080611ca66120a4565b604051633661870560e11b815290915073__$c011c5c9201293cae8fa3d59d203092c54$__90636cc30e0a90611ce59060078501908790600401612eb4565b602060405180830381865af4158015611d02573d6000803e3d6000fd5b505050506040513d601f19601f82011682018060405250810190611d269190612e7a565b9392505050565b6000611d376120a4565b805490915061010090046001600160a01b03163314611d685760405162461bcd60e51b815260040161069090612d9d565b6000611d726120a4565b805460ff1916931515939093179092555050565b336001600160a01b037f00000000000000000000000000000000000000000000000000000000000000001614611dce5760405162461bcd60e51b815260040161069090612f17565b6000611dd86120a4565b805490915061010090046001600160a01b031615611e445760405162461bcd60e51b8152602060048201526024808201527f4176617461723a20636f6e747261637420616c726561647920696e697469616c6044820152631a5e995960e21b6064820152608401610690565b600082806020019051810190611e5a91906132f4565b90506000845111611ead5760405162461bcd60e51b815260206004820181905260248201527f4176617461723a20757365726e616d652063616e6e6f7420626520656d7074796044820152606401610690565b6001600160a01b038616611f0f5760405162461bcd60e51b8152602060048201526024808201527f4176617461723a206f776e65722063616e6e6f74206265207a65726f206164646044820152637265737360e01b6064820152608401610690565b604051630262286360e41b81526001600160a01b0386811660048301527f00000000000000000000000000000000000000000000000000000000000000001690632622863090602401602060405180830381865afa158015611f75573d6000803e3d6000fd5b505050506040513d601f19601f82011682018060405250810190611f999190612e7a565b61200b5760405162461bcd60e51b815260206004820152603960248201527f4176617461723a2064656661756c7420657870657269656e6365206973206e6f60448201527f742061207265676973746572656420657870657269656e6365000000000000006064820152608401610690565b600382016120198582613235565b506001820180546001600160a01b0319166001600160a01b0387161790558051825460ff1916901515178255602081015160048301906120599082613235565b505080546001600160a01b0390951661010002610100600160a81b0319909516949094178455505060c8600a9092019190915550565b60008061209a6120a4565b6006015492915050565b7fd38682225e685e93013f8a112db34d1d514857ac4394636132822a0c0fe2045090565b6002600054036120eb57604051633ee5aeb560e01b815260040160405180910390fd5b6002600055565b604080516060810182526000808252602082018190528183015282519151630a22d5a160e21b81526004810192909252906001600160a01b037f0000000000000000000000000000000000000000000000000000000000000000169063288b568490602401606060405180830381865afa158015612174573d6000803e3d6000fd5b505050506040513d601f19601f820116820180604052508101906121989190613197565b9050600081600001516001600160a01b0316636904c94d6040518163ffffffff1660e01b8152600401602060405180830381865afa1580156121de573d6000803e3d6000fd5b505050506040513d601f19601f820116820180604052508101906122029190612e97565b9050600061220e6120a4565b6001600160a01b0383166000908152600582016020526040812080549293509061223783613364565b9091555084516020808701516040805192830193909352918101919091526060810182905260009060800160408051808303601f1901815282825280516020918201208184528383019092529092506000919060208201818036833701905050905081602082015260006122aa826124ae565b905060006122bc828a604001516124e9565b604051637df73e2760e01b81526001600160a01b03808316600483015291925090881690637df73e2790602401602060405180830381865afa158015612306573d6000803e3d6000fd5b505050506040513d601f19601f8201168201806040525081019061232a9190612e7a565b6123875760405162461bcd60e51b815260206004820152602860248201527f4176617461723a20636f6d70616e79207369676e6572206973206e6f742061756044820152671d1a1bdc9a5e995960c21b6064820152608401610690565b50505050505050919050565b600061239d6120a4565b60068101805491925060006123b183613364565b9091555082516020808501516040805192830193909352918101919091526060810182905260009060800160408051808303601f190181528282528051602091820120818452838301909252909250600091906020820181803683370190505090508160208201526000612424826124ae565b905060006124368288604001516124e9565b86549091506001600160a01b0380831661010090920416146124a55760405162461bcd60e51b815260206004820152602260248201527f4176617461723a20617661746172207369676e6572206973206e6f74206f776e60448201526132b960f11b6064820152608401610690565b50505050505050565b60006124ba8251612515565b826040516020016124cc92919061337d565b604051602081830303815290604052805190602001209050919050565b6000806000806124f986866125a7565b92509250925061250982826125f4565b50909150505b92915050565b60606000612522836126b1565b60010190506000816001600160401b03811115612541576125416129b9565b6040519080825280601f01601f19166020018201604052801561256b576020820181803683370190505b5090508181016020015b600019016f181899199a1a9b1b9c1cb0b131b232b360811b600a86061a8153600a850494508461257557509392505050565b600080600083516041036125e15760208401516040850151606086015160001a6125d388828585612789565b9550955095505050506125ed565b50508151600091506002905b9250925092565b6000826003811115612608576126086133d8565b03612611575050565b6001826003811115612625576126256133d8565b036126435760405163f645eedf60e01b815260040160405180910390fd5b6002826003811115612657576126576133d8565b036126785760405163fce698f760e01b815260048101829052602401610690565b600382600381111561268c5761268c6133d8565b036126ad576040516335e2f38360e21b815260048101829052602401610690565b5050565b60008072184f03e93ff9f4daa797ed6e38ed64bf6a1f0160401b83106126f05772184f03e93ff9f4daa797ed6e38ed64bf6a1f0160401b830492506040015b6d04ee2d6d415b85acef8100000000831061271c576d04ee2d6d415b85acef8100000000830492506020015b662386f26fc10000831061273a57662386f26fc10000830492506010015b6305f5e1008310612752576305f5e100830492506008015b612710831061276657612710830492506004015b60648310612778576064830492506002015b600a831061250f5760010192915050565b600080807f7fffffffffffffffffffffffffffffff5d576e7357a4501ddfe92f46681b20a08411156127c4575060009150600390508261284e565b604080516000808252602082018084528a905260ff891692820192909252606081018790526080810186905260019060a0016020604051602081039080840390855afa158015612818573d6000803e3d6000fd5b5050604051601f1901519150506001600160a01b0381166128445750600092506001915082905061284e565b9250600091508190505b9450945094915050565b6001600160a01b038116811461286d57600080fd5b50565b60006020828403121561288257600080fd5b8135611d2681612858565b60006040828403121561289f57600080fd5b50919050565b60008083601f8401126128b757600080fd5b5081356001600160401b038111156128ce57600080fd5b6020830191508360208285010111156128e657600080fd5b9250929050565b60008060008060006080868803121561290557600080fd5b853561291081612858565b9450602086013561292081612858565b93506040860135925060608601356001600160401b0381111561294257600080fd5b61294e888289016128a5565b969995985093965092949392505050565b6000806020838503121561297257600080fd5b82356001600160401b0381111561298857600080fd5b612994858286016128a5565b90969095509350505050565b6000602082840312156129b257600080fd5b5035919050565b634e487b7160e01b600052604160045260246000fd5b604051606081016001600160401b03811182821017156129f1576129f16129b9565b60405290565b604080519081016001600160401b03811182821017156129f1576129f16129b9565b604051601f8201601f191681016001600160401b0381118282101715612a4157612a416129b9565b604052919050565b60006001600160401b03821115612a6257612a626129b9565b50601f01601f191660200190565b6000612a83612a7e84612a49565b612a19565b9050828152838383011115612a9757600080fd5b828260208301376000602084830101529392505050565b600082601f830112612abf57600080fd5b611d2683833560208501612a70565b600060608284031215612ae057600080fd5b612ae86129cf565b9050813581526020820135602082015260408201356001600160401b03811115612b1157600080fd5b612b1d84828501612aae565b60408301525092915050565b600060208284031215612b3b57600080fd5b81356001600160401b03811115612b5157600080fd5b612b5d84828501612ace565b949350505050565b801515811461286d57600080fd5b600060208284031215612b8557600080fd5b81356001600160401b0380821115612b9c57600080fd5b9083019060408286031215612bb057600080fd5b612bb86129f7565b8235612bc381612b65565b8152602083013582811115612bd757600080fd5b612be387828601612aae565b60208301525095945050505050565b60005b83811015612c0d578181015183820152602001612bf5565b50506000910152565b60008151808452612c2e816020860160208601612bf2565b601f01601f19169290920160200192915050565b602081526000611d266020830184612c16565b602080825282518282018190526000919060409081850190868401855b82811015612ca057815180516001600160a01b03168552860151868501529284019290850190600101612c72565b5091979650505050505050565b600060208284031215612cbf57600080fd5b81356001600160401b03811115612cd557600080fd5b612b5d84828501612aae565b600060208284031215612cf357600080fd5b8135611d2681612b65565b60008060008060808587031215612d1457600080fd5b8435612d1f81612858565b93506020850135612d2f81612858565b925060408501356001600160401b0380821115612d4b57600080fd5b818701915087601f830112612d5f57600080fd5b612d6e88833560208501612a70565b93506060870135915080821115612d8457600080fd5b50612d9187828801612aae565b91505092959194509250565b60208082526029908201527f4176617461723a206f6e6c79206f776e65722063616e2063616c6c207468697360408201526810333ab731ba34b7b760b91b606082015260800190565b6020808252602d908201527f4176617461723a207765617261626c652061737365742063616e6e6f7420626560408201526c207a65726f206164647265737360981b606082015260800190565b60208082526027908201527f4176617461723a207765617261626c6520746f6b656e49642063616e6e6f74206040820152666265207a65726f60c81b606082015260800190565b600060208284031215612e8c57600080fd5b8151611d2681612b65565b600060208284031215612ea957600080fd5b8151611d2681612858565b828152606081018235612ec681612858565b6001600160a01b03166020838101919091529290920135604090910152919050565b60208152816020820152818360408301376000818301604090810191909152601f909201601f19160101919050565b6020808252602b908201527f4176617461723a206f6e6c7920666163746f72792063616e2063616c6c20746860408201526a34b990333ab731ba34b7b760a91b606082015260800190565b634e487b7160e01b600052601160045260246000fd5b8082018082111561250f5761250f612f62565b60208082526027908201527f4176617461723a20696e73756666696369656e742066756e647320666f72206a604082015266756d702066656560c81b606082015260800190565b600082601f830112612fe357600080fd5b8151612ff1612a7e82612a49565b81815284602083860101111561300657600080fd5b612b5d826020830160208701612bf2565b60006020828403121561302957600080fd5b81516001600160401b0381111561303f57600080fd5b612b5d84828501612fd2565b6000825161305d818460208701612bf2565b9190910192915050565b6020815281511515602082015260006020830151604080840152612b5d6060840182612c16565b600060208083850312156130a157600080fd5b82516001600160401b03808211156130b857600080fd5b818501915085601f8301126130cc57600080fd5b8151818111156130de576130de6129b9565b6130ec848260051b01612a19565b818152848101925060069190911b83018401908782111561310c57600080fd5b928401925b81841015613158576040848903121561312a5760008081fd5b6131326129f7565b845161313d81612858565b81528486015186820152835260409093019291840191613111565b979650505050505050565b600181811c9082168061317757607f821691505b60208210810361289f57634e487b7160e01b600052602260045260246000fd5b6000606082840312156131a957600080fd5b6131b16129cf565b82516131bc81612858565b815260208301516131cc81612858565b60208201526040928301519281019290925250919050565b601f821115613230576000816000526020600020601f850160051c8101602086101561320d5750805b601f850160051c820191505b8181101561322c57828155600101613219565b5050505b505050565b81516001600160401b0381111561324e5761324e6129b9565b6132628161325c8454613163565b846131e4565b602080601f831160018114613297576000841561327f5750858301515b600019600386901b1c1916600185901b17855561322c565b600085815260208120601f198616915b828110156132c6578886015182559484019460019091019084016132a7565b50858210156132e45787850151600019600388901b60f8161c191681555b5050505050600190811b01905550565b60006020828403121561330657600080fd5b81516001600160401b038082111561331d57600080fd5b908301906040828603121561333157600080fd5b6133396129f7565b825161334481612b65565b815260208301518281111561335857600080fd5b612be387828601612fd2565b60006001820161337657613376612f62565b5060010190565b7f19457468657265756d205369676e6564204d6573736167653a0a0000000000008152600083516133b581601a850160208801612bf2565b8351908301906133cc81601a840160208801612bf2565b01601a01949350505050565b634e487b7160e01b600052602160045260246000fdfea2646970667358221220aeed791625cef246d213e42e12f136caaf101dc78f08ddd0266228238458ef3364736f6c63430008180033",
  "linkReferences": {
    "contracts/libraries/LibLinkedList.sol": {
      "LibLinkedList": [
        {
          "length": 20,
          "start": 4075
        },
        {
          "length": 20,
          "start": 7053
        },
        {
          "length": 20,
          "start": 7274
        },
        {
          "length": 20,
          "start": 8566
        }
      ]
    }
  },
  "deployedLinkReferences": {
    "contracts/libraries/LibLinkedList.sol": {
      "LibLinkedList": [
        {
          "length": 20,
          "start": 2861
        },
        {
          "length": 20,
          "start": 5839
        },
        {
          "length": 20,
          "start": 6060
        },
        {
          "length": 20,
          "start": 7352
        }
      ]
    }
  }
}