{
  "_format": "hh-sol-artifact-1",
  "contractName": "AvatarRegistrationExt",
  "sourceName": "contracts/extensions/registry/avatar/AvatarRegistrationExt.sol",
  "abi": [
    {
      "inputs": [
        {
          "internalType": "uint256",
          "name": "value",
          "type": "uint256"
        },
        {
          "internalType": "uint256",
          "name": "length",
          "type": "uint256"
        }
      ],
      "name": "StringsInsufficientHexLength",
      "type": "error"
    },
    {
      "anonymous": false,
      "inputs": [
        {
          "indexed": true,
          "internalType": "address",
          "name": "entity",
          "type": "address"
        },
        {
          "indexed": true,
          "internalType": "address",
          "name": "owner",
          "type": "address"
        }
      ],
      "name": "RegistryAddedEntity",
      "type": "event"
    },
    {
      "anonymous": false,
      "inputs": [
        {
          "indexed": true,
          "internalType": "address",
          "name": "old",
          "type": "address"
        },
        {
          "indexed": false,
          "internalType": "address",
          "name": "newVersion",
          "type": "address"
        }
      ],
      "name": "RegistryUpgradedEntity",
      "type": "event"
    },
    {
      "inputs": [
        {
          "components": [
            {
              "internalType": "address",
              "name": "entity",
              "type": "address"
            },
            {
              "internalType": "bytes",
              "name": "entitySignature",
              "type": "bytes"
            },
            {
              "internalType": "uint256",
              "name": "expiration",
              "type": "uint256"
            },
            {
              "components": [
                {
                  "internalType": "uint16",
                  "name": "coveragePeriodDays",
                  "type": "uint16"
                },
                {
                  "internalType": "uint16",
                  "name": "gracePeriodDays",
                  "type": "uint16"
                },
                {
                  "internalType": "uint256",
                  "name": "fee",
                  "type": "uint256"
                }
              ],
              "internalType": "struct RegistrationTerms",
              "name": "terms",
              "type": "tuple"
            }
          ],
          "internalType": "struct ChangeEntityTermsArgs",
          "name": "args",
          "type": "tuple"
        }
      ],
      "name": "changeEntityTerms",
      "outputs": [],
      "stateMutability": "nonpayable",
      "type": "function"
    },
    {
      "inputs": [
        {
          "components": [
            {
              "internalType": "bool",
              "name": "sendTokensToOwner",
              "type": "bool"
            },
            {
              "internalType": "address",
              "name": "owner",
              "type": "address"
            },
            {
              "internalType": "string",
              "name": "name",
              "type": "string"
            },
            {
              "internalType": "bytes",
              "name": "initData",
              "type": "bytes"
            }
          ],
          "internalType": "struct CreateAvatarArgs",
          "name": "args",
          "type": "tuple"
        }
      ],
      "name": "createAvatar",
      "outputs": [
        {
          "internalType": "address",
          "name": "",
          "type": "address"
        }
      ],
      "stateMutability": "payable",
      "type": "function"
    },
    {
      "inputs": [
        {
          "internalType": "string",
          "name": "name",
          "type": "string"
        }
      ],
      "name": "getEntityByName",
      "outputs": [
        {
          "internalType": "address",
          "name": "",
          "type": "address"
        }
      ],
      "stateMutability": "view",
      "type": "function"
    },
    {
      "inputs": [
        {
          "components": [
            {
              "internalType": "string",
              "name": "x",
              "type": "string"
            },
            {
              "internalType": "string",
              "name": "y",
              "type": "string"
            },
            {
              "internalType": "string",
              "name": "z",
              "type": "string"
            },
            {
              "internalType": "uint256",
              "name": "t",
              "type": "uint256"
            },
            {
              "internalType": "uint256",
              "name": "p",
              "type": "uint256"
            },
            {
              "internalType": "uint256",
              "name": "p_sub",
              "type": "uint256"
            }
          ],
          "internalType": "struct VectorAddress",
          "name": "vector",
          "type": "tuple"
        }
      ],
      "name": "getEntityByVector",
      "outputs": [
        {
          "internalType": "address",
          "name": "",
          "type": "address"
        }
      ],
      "stateMutability": "view",
      "type": "function"
    },
    {
      "inputs": [
        {
          "components": [
            {
              "internalType": "address",
              "name": "owner",
              "type": "address"
            },
            {
              "internalType": "address",
              "name": "owningRegistry",
              "type": "address"
            },
            {
              "internalType": "address[]",
              "name": "admins",
              "type": "address[]"
            }
          ],
          "internalType": "struct ExtensionInitArgs",
          "name": "args",
          "type": "tuple"
        }
      ],
      "name": "initStorage",
      "outputs": [],
      "stateMutability": "nonpayable",
      "type": "function"
    },
    {
      "inputs": [
        {
          "internalType": "address",
          "name": "myAddress",
          "type": "address"
        }
      ],
      "name": "install",
      "outputs": [],
      "stateMutability": "nonpayable",
      "type": "function"
    },
    {
      "inputs": [
        {
          "internalType": "address",
          "name": "addr",
          "type": "address"
        }
      ],
      "name": "isRegistered",
      "outputs": [
        {
          "internalType": "bool",
          "name": "",
          "type": "bool"
        }
      ],
      "stateMutability": "view",
      "type": "function"
    },
    {
      "inputs": [],
      "name": "metadata",
      "outputs": [
        {
          "components": [
            {
              "internalType": "string",
              "name": "name",
              "type": "string"
            },
            {
              "components": [
                {
                  "internalType": "uint16",
                  "name": "major",
                  "type": "uint16"
                },
                {
                  "internalType": "uint16",
                  "name": "minor",
                  "type": "uint16"
                }
              ],
              "internalType": "struct Version",
              "name": "version",
              "type": "tuple"
            }
          ],
          "internalType": "struct ExtensionMetadata",
          "name": "",
          "type": "tuple"
        }
      ],
      "stateMutability": "pure",
      "type": "function"
    },
    {
      "inputs": [],
      "name": "register",
      "outputs": [],
      "stateMutability": "nonpayable",
      "type": "function"
    },
    {
      "inputs": [
        {
          "internalType": "address",
          "name": "myAddress",
          "type": "address"
        }
      ],
      "name": "upgrade",
      "outputs": [],
      "stateMutability": "nonpayable",
      "type": "function"
    }
  ],
  "bytecode": "0x608060405234801561001057600080fd5b50611a82806100206000396000f3fe6080604052600436106100915760003560e01c80634d4965f3116100595780634d4965f31461014e578063729963c01461016e578063a9f9482414610189578063c3c5a5471461019c578063c747e47e146101cc57600080fd5b80630900f010146100965780631aa3a008146100b65780632a1b8f9b146100cb578063392f37e9146100eb5780633e88a4e214610116575b600080fd5b3480156100a257600080fd5b506100b46100b1366004611209565b50565b005b3480156100c257600080fd5b506100b46101ec565b3480156100d757600080fd5b506100b46100e6366004611209565b610270565b3480156100f757600080fd5b5061010061043f565b60405161010d919061127d565b60405180910390f35b34801561012257600080fd5b506101366101313660046112c2565b61049a565b6040516001600160a01b03909116815260200161010d565b34801561015a57600080fd5b506100b461016936600461134c565b610520565b34801561017a57600080fd5b506100b46100b1366004611381565b6101366101973660046113bc565b61058a565b3480156101a857600080fd5b506101bc6101b7366004611209565b610bae565b604051901515815260200161010d565b3480156101d857600080fd5b506101366101e736600461134c565b610c2d565b6101f533610bae565b61026e576040805162461bcd60e51b81526020600482015260248101919091527f526567697374726174696f6e4578743a206f6e6c79207265676973746572656460448201527f20656e7469746965732063616e2063616c6c20746869732066756e6374696f6e60648201526084015b60405180910390fd5b565b60408051600380825260808201909252600091816020015b6040805180820190915260008152606060208201528152602001906001900390816102885790505090506040518060400160405280633e88a4e260e01b6001600160e01b03191681526020016040518060400160405280601781526020017f676574456e7469747942794e616d6528737472696e6729000000000000000000815250815250816000815181106103205761032061140d565b6020026020010181905250604051806040016040528063c3c5a54760e01b6001600160e01b03191681526020016040518060400160405280601581526020017469735265676973746572656428616464726573732960581b815250815250816001815181106103915761039161140d565b6020026020010181905250604051806040016040528063a9f9482460e01b6001600160e01b03191681526020016040518060400160405280601e81526020017f63726561746541766174617228437265617465417661746172417267732900008152508152508160028151811061040a5761040a61140d565b602002602001018190525061043b6040518060400160405280846001600160a01b0316815260200183815250610ca8565b5050565b6104476111b8565b5060408051608081018252601581830190815274105d985d185c949959da5cdd1c985d1a5bdb915e1d605a1b60608301528152815180830190925260018252600060208381019190915281019190915290565b604051631f44527160e11b815260009073__$d81eab81c4f96e94de97b51155a369ac43$__90633e88a4e2906104d6908690869060040161144c565b602060405180830381865af41580156104f3573d6000803e3d6000fd5b505050506040513d601f19601f820116820180604052508101906105179190611460565b90505b92915050565b604051630bca13f760e41b815273__$d81eab81c4f96e94de97b51155a369ac43$__9063bca13f70906105579084906004016114e1565b60006040518083038186803b15801561056f57600080fd5b505af4158015610583573d6000803e3d6000fd5b5050505050565b600080306001600160a01b031663911c2a8c6040518163ffffffff1660e01b8152600401602060405180830381865afa1580156105cb573d6000803e3d6000fd5b505050506040513d601f19601f820116820180604052508101906105ef9190611460565b90506001600160a01b03811661065d5760405162461bcd60e51b815260206004820152602d60248201527f417661746172526567697374726174696f6e4578743a20776f726c642072656760448201526c1a5cdd1c9e481b9bdd081cd95d609a1b6064820152608401610265565b60008190506000339050806001600160a01b03166386b70bed6040518163ffffffff1660e01b8152600401602060405180830381865afa1580156106a5573d6000803e3d6000fd5b505050506040513d601f19601f820116820180604052508101906106c9919061157e565b6107285760405162461bcd60e51b815260206004820152602a60248201527f417661746172526567697374726174696f6e4578743a20776f726c64206973206044820152696e6f742061637469766560b01b6064820152608401610265565b60405163c3c5a54760e01b81523360048201526001600160a01b0383169063c3c5a54790602401602060405180830381865afa15801561076c573d6000803e3d6000fd5b505050506040513d601f19601f82011682018060405250810190610790919061157e565b6107f35760405162461bcd60e51b815260206004820152602e60248201527f417661746172526567697374726174696f6e4578743a20776f726c642069732060448201526d1b9bdd081c9959da5cdd195c995960921b6064820152608401610265565b60006107fd610e6b565b8054909150600090610817906001600160a01b0316610f01565b90506001600160a01b0381166108815760405162461bcd60e51b815260206004820152602960248201527f417661746172526567697374726174696f6e3a20656e7469747920636c6f6e696044820152681b99c819985a5b195960ba1b6064820152608401610265565b6040805160e081018252600060c080830182815283528351602081810186528382528085019190915284518082018652838152848601526060840183905260016080850181905260a08501528451918201855292939192909182916108ea918d01908d01611209565b6001600160a01b03168152602001336001600160a01b03168152602001306001600160a01b031681526020018a8060400190610926919061159b565b8080601f0160208091040260200160405190810160405280939291908181526020018383808284376000920191909152505050908252506020810184905260400161097460608c018c61159b565b8080601f01602080910402602001604051908101604052809392919081815260200183838082843760009201919091525050509152506040516334d0850960e11b81529091506001600160a01b038416906369a10a12906109d99084906004016115e2565b600060405180830381600087803b1580156109f357600080fd5b505af1158015610a07573d6000803e3d6000fd5b505060408051606080820183526001600160a01b0388168252825190810183526000808252601e60208381019190915282850191909152820152808201869052905163af2e5d0560e01b815290925073__$d81eab81c4f96e94de97b51155a369ac43$__915063af2e5d0590610a819084906004016116cb565b60006040518083038186803b158015610a9957600080fd5b505af4158015610aad573d6000803e3d6000fd5b505050506000341115610b5157610ac760208b018b611794565b15610b1a57610adc60408b0160208c01611209565b6001600160a01b03166108fc349081150290604051600060405180830381858888f19350505050158015610b14573d6000803e3d6000fd5b50610b51565b6040516001600160a01b038516903480156108fc02916000818181858888f19350505050158015610b4f573d6000803e3d6000fd5b505b610b6160408b0160208c01611209565b6001600160a01b0316846001600160a01b03167f7377123f9eb561d749cd3a89a83c22035cad6473521acbb981ee1c52d8f0248560405160405180910390a3509198975050505050505050565b60405163c3c5a54760e01b81526001600160a01b038216600482015260009073__$d81eab81c4f96e94de97b51155a369ac43$__9063c3c5a54790602401602060405180830381865af4158015610c09573d6000803e3d6000fd5b505050506040513d601f19601f8201168201806040525081019061051a919061157e565b6040516332ef671360e21b815260009073__$d81eab81c4f96e94de97b51155a369ac43$__9063cbbd9c4c90610c679085906004016117b1565b602060405180830381865af4158015610c84573d6000803e3d6000fd5b505050506040513d601f19601f8201168201806040525081019061051a9190611460565b6000610cb2610fc2565b82516001600160a01b031660009081526020829052604081209192505b836020015151811015610e6557600084602001518281518110610cf457610cf461140d565b6020908102919091018101518051600486810180546001808201835560009283528683206008830401805463ffffffff600790941690950261010090810a9384021990951660e09690961c9290920294909417905583516001600160e01b0319168152918801909352604090208054919350916001600160a01b0391041615610ded57805461010090046001600160a01b0316600090815260208690526040812087519091906001870190610da890611027565b602080870151604051610dc29493926001880191016118f0565b60405160208183030381529060405290508060405162461bcd60e51b815260040161026591906119cf565b50604080518082018252600180825287516001600160a01b03908116602080850191825295516001600160e01b0319166000908152898401909652939094209151825493516001600160a81b0319909416901515610100600160a81b0319161761010093909416929092029290921790915501610ccf565b50505050565b60408051808201909152601c81527f78722e656e746974792e666163746f72792e73746f726167652e76310000000060209091015260008060ff610ed060017f8b4ac7cd4466ab0d50fe53a88c5446ca4a450d482bef9ad792e7d9f451497e0f6119f8565b604051602001610ee291815260200190565b60408051601f1981840301815291905280516020909101201692915050565b60006001600160a01b038216610f715760405162461bcd60e51b815260206004820152602f60248201527f4c6962436c6f6e653a20696d706c656d656e746174696f6e2063616e6e6f742060448201526e6265207a65726f206164647265737360881b6064820152608401610265565b60008260601b9050604051733d602d80600a3d3981f3363d3d373d3d3d363d7360601b81528160148201526e5af43d82803e903d91602b57fd5bf360881b60288201526037816000f0949350505050565b60408051808201909152601881527f78722e657874656e73696f6e732e73746f726167652e7631000000000000000060209091015260008060ff610ed060017fb58ec9ca7ba0606d9fecd9f559655d0e5fec418e6751b65b892bccdfd25eb99f6119f8565b606061051a6001600160a01b03831660146060826000611048846002611a0b565b611053906002611a22565b67ffffffffffffffff81111561106b5761106b6113f7565b6040519080825280601f01601f191660200182016040528015611095576020820181803683370190505b509050600360fc1b816000815181106110b0576110b061140d565b60200101906001600160f81b031916908160001a905350600f60fb1b816001815181106110df576110df61140d565b60200101906001600160f81b031916908160001a9053506000611103856002611a0b565b61110e906001611a22565b90505b6001811115611186576f181899199a1a9b1b9c1cb0b131b232b360811b83600f16601081106111425761114261140d565b1a60f81b8282815181106111585761115861140d565b60200101906001600160f81b031916908160001a90535060049290921c9161117f81611a35565b9050611111565b5081156111b05760405163e22e27eb60e01b81526004810186905260248101859052604401610265565b949350505050565b6040518060400160405280606081526020016111ef6040518060400160405280600061ffff168152602001600061ffff1681525090565b905290565b6001600160a01b03811681146100b157600080fd5b60006020828403121561121b57600080fd5b8135611226816111f4565b9392505050565b60005b83811015611248578181015183820152602001611230565b50506000910152565b6000815180845261126981602086016020860161122d565b601f01601f19169290920160200192915050565b6020815260008251606060208401526112996080840182611251565b602094850151805161ffff90811660408701529501519094166060909301929092525090919050565b600080602083850312156112d557600080fd5b823567ffffffffffffffff808211156112ed57600080fd5b818501915085601f83011261130157600080fd5b81358181111561131057600080fd5b86602082850101111561132257600080fd5b60209290920196919550909350505050565b600060c0828403121561134657600080fd5b50919050565b60006020828403121561135e57600080fd5b813567ffffffffffffffff81111561137557600080fd5b6111b084828501611334565b60006020828403121561139357600080fd5b813567ffffffffffffffff8111156113aa57600080fd5b82016060818503121561122657600080fd5b6000602082840312156113ce57600080fd5b813567ffffffffffffffff8111156113e557600080fd5b82016080818503121561122657600080fd5b634e487b7160e01b600052604160045260246000fd5b634e487b7160e01b600052603260045260246000fd5b81835281816020850137506000828201602090810191909152601f909101601f19169091010190565b6020815260006111b0602083018486611423565b60006020828403121561147257600080fd5b8151611226816111f4565b6000808335601e1984360301811261149457600080fd5b830160208101925035905067ffffffffffffffff8111156114b457600080fd5b8036038213156114c357600080fd5b9250929050565b803561ffff811681146114dc57600080fd5b919050565b60208152600082356114f2816111f4565b6001600160a01b03166020838101919091526115109084018461147d565b60c0604085015261152560e085018284611423565b9150506040840135606084015261ffff80611542606087016114ca565b16608085015280611555608087016114ca565b1660a08501525060a084013560c08401528091505092915050565b80151581146100b157600080fd5b60006020828403121561159057600080fd5b815161122681611570565b6000808335601e198436030181126115b257600080fd5b83018035915067ffffffffffffffff8211156115cd57600080fd5b6020019150368190038213156114c357600080fd5b60208152600060018060a01b0380845116602084015280602085015116604084015280604085015116606084015250606083015160c0608084015261162a60e0840182611251565b90506080840151601f19808584030160a0860152815160c0845261165160c0850182611251565b90506020830151848203602086015261166a8282611251565b915050604083015184820360408601526116848282611251565b915050606083015160608501526080830151608085015260a083015160a085015260a08701519350818682030160c08701526116c08185611251565b979650505050505050565b602080825282516001600160a01b03168282015282810151805161ffff90811660408086019190915292820151166060840152810151608083015282015160a080830152805160c08084015260009190611729610180850182611251565b9050602082015160bf19808684030160e08701526117478383611251565b9250604084015191508086840301610100870152506117668282611251565b6060840151610120870152608084015161014087015260a09093015161016090950194909452509392505050565b6000602082840312156117a657600080fd5b813561122681611570565b6020815260006117c1838461147d565b60c060208501526117d660e085018284611423565b9150506117e6602085018561147d565b601f19808685030160408701526117fe848385611423565b935061180d604088018861147d565b935091508086850301606087015250611827838383611423565b9250505060608401356080840152608084013560a084015260a084013560c08401528091505092915050565b8054600090600181811c908083168061186d57607f831692505b6020808410820361188e57634e487b7160e01b600052602260045260246000fd5b8180156118a257600181146118b7576118e4565b60ff19861689528415158502890196506118e4565b60008881526020902060005b868110156118dc5781548b8201529085019083016118c3565b505084890196505b50505050505092915050565b7f4c6962457874656e73696f6e3a20657874656e73696f6e200000000000000000815260006119226018830187611853565b6c01030ba1030b2323932b9b99d1609d1b8152855161194881600d840160208a0161122d565b8082019150507f20617474656d7074696e6720746f20726575736520612073656c6563746f723a600d820152600160fd1b80602d830152855161199281602e850160208a0161122d565b7f2c20776869636820697320616c72656164792072656769737465726564206279602e9390910192830152604e8201526116c0604f820185611853565b6020815260006105176020830184611251565b634e487b7160e01b600052601160045260246000fd5b8181038181111561051a5761051a6119e2565b808202811582820484141761051a5761051a6119e2565b8082018082111561051a5761051a6119e2565b600081611a4457611a446119e2565b50600019019056fea26469706673582212200b28f679ffa10f9a8c5852b9f9e57216bd6a39af64efaf6d9518a8d22492ed0c64736f6c63430008180033",
  "linkReferences": {
    "contracts/libraries/LibRegistration.sol": {
      "LibRegistration": [
        {
          "length": 20,
          "start": 1228
        },
        {
          "length": 20,
          "start": 1359
        },
        {
          "length": 20,
          "start": 2680
        },
        {
          "length": 20,
          "start": 3055
        },
        {
          "length": 20,
          "start": 3167
        }
      ]
    }
  },
  "deployedLinkReferences": {
    "contracts/libraries/LibRegistration.sol": {
      "LibRegistration": [
        {
          "length": 20,
          "start": 1196
        },
        {
          "length": 20,
          "start": 1327
        },
        {
          "length": 20,
          "start": 2648
        },
        {
          "length": 20,
          "start": 3023
        },
        {
          "length": 20,
          "start": 3135
        }
      ]
    }
  }
}