{
  "_format": "hh-sol-artifact-1",
  "contractName": "Avatar",
  "sourceName": "contracts/avatar/instance/Avatar.sol",
  "abi": [
    {
      "inputs": [
        {
          "components": [
            {
              "internalType": "address",
              "name": "extensionResolver",
              "type": "address"
            },
            {
              "internalType": "address",
              "name": "owningRegistry",
              "type": "address"
            },
            {
              "internalType": "address",
              "name": "worldRegistry",
              "type": "address"
            },
            {
              "internalType": "address",
              "name": "experienceRegistry",
              "type": "address"
            },
            {
              "internalType": "address",
              "name": "assetRegistry",
              "type": "address"
            },
            {
              "internalType": "address",
              "name": "portalRegistry",
              "type": "address"
            },
            {
              "internalType": "address",
              "name": "companyRegistry",
              "type": "address"
            }
          ],
          "internalType": "struct AvatarConstructorArgs",
          "name": "args",
          "type": "tuple"
        }
      ],
      "stateMutability": "nonpayable",
      "type": "constructor"
    },
    {
      "anonymous": false,
      "inputs": [
        {
          "indexed": false,
          "internalType": "string",
          "name": "name",
          "type": "string"
        }
      ],
      "name": "ExtensionDisabled",
      "type": "event"
    },
    {
      "anonymous": false,
      "inputs": [
        {
          "indexed": false,
          "internalType": "string",
          "name": "name",
          "type": "string"
        }
      ],
      "name": "ExtensionEnabled",
      "type": "event"
    },
    {
      "anonymous": false,
      "inputs": [
        {
          "indexed": false,
          "internalType": "string",
          "name": "name",
          "type": "string"
        },
        {
          "components": [
            {
              "internalType": "uint16",
              "name": "major",
              "type": "uint16"
            },
            {
              "internalType": "uint16",
              "name": "minor",
              "type": "uint16"
            }
          ],
          "indexed": false,
          "internalType": "struct Version",
          "name": "version",
          "type": "tuple"
        }
      ],
      "name": "ExtensionInstalled",
      "type": "event"
    },
    {
      "anonymous": false,
      "inputs": [
        {
          "indexed": false,
          "internalType": "string",
          "name": "name",
          "type": "string"
        },
        {
          "components": [
            {
              "internalType": "uint16",
              "name": "major",
              "type": "uint16"
            },
            {
              "internalType": "uint16",
              "name": "minor",
              "type": "uint16"
            }
          ],
          "indexed": false,
          "internalType": "struct Version",
          "name": "version",
          "type": "tuple"
        }
      ],
      "name": "ExtensionRolledBack",
      "type": "event"
    },
    {
      "anonymous": false,
      "inputs": [
        {
          "indexed": false,
          "internalType": "string",
          "name": "name",
          "type": "string"
        },
        {
          "components": [
            {
              "internalType": "uint16",
              "name": "major",
              "type": "uint16"
            },
            {
              "internalType": "uint16",
              "name": "minor",
              "type": "uint16"
            }
          ],
          "indexed": false,
          "internalType": "struct Version",
          "name": "version",
          "type": "tuple"
        }
      ],
      "name": "ExtensionUpgraded",
      "type": "event"
    },
    {
      "anonymous": false,
      "inputs": [
        {
          "indexed": false,
          "internalType": "bytes4",
          "name": "selector",
          "type": "bytes4"
        }
      ],
      "name": "SelectorDisabled",
      "type": "event"
    },
    {
      "anonymous": false,
      "inputs": [
        {
          "indexed": false,
          "internalType": "bytes4",
          "name": "selector",
          "type": "bytes4"
        }
      ],
      "name": "SelectorEnabled",
      "type": "event"
    },
    {
      "stateMutability": "payable",
      "type": "fallback"
    },
    {
      "inputs": [],
      "name": "assetRegistry",
      "outputs": [
        {
          "internalType": "contract IAssetRegistry",
          "name": "",
          "type": "address"
        }
      ],
      "stateMutability": "view",
      "type": "function"
    },
    {
      "inputs": [],
      "name": "avatarRegistry",
      "outputs": [
        {
          "internalType": "contract IAvatarRegistry",
          "name": "",
          "type": "address"
        }
      ],
      "stateMutability": "view",
      "type": "function"
    },
    {
      "inputs": [],
      "name": "companyRegistry",
      "outputs": [
        {
          "internalType": "address",
          "name": "",
          "type": "address"
        }
      ],
      "stateMutability": "view",
      "type": "function"
    },
    {
      "inputs": [],
      "name": "experienceRegistry",
      "outputs": [
        {
          "internalType": "contract IExperienceRegistry",
          "name": "",
          "type": "address"
        }
      ],
      "stateMutability": "view",
      "type": "function"
    },
    {
      "inputs": [],
      "name": "extResolver",
      "outputs": [
        {
          "internalType": "contract IExtensionResolver",
          "name": "",
          "type": "address"
        }
      ],
      "stateMutability": "view",
      "type": "function"
    },
    {
      "inputs": [
        {
          "internalType": "string",
          "name": "name",
          "type": "string"
        }
      ],
      "name": "getExtensionVersion",
      "outputs": [
        {
          "components": [
            {
              "internalType": "uint16",
              "name": "major",
              "type": "uint16"
            },
            {
              "internalType": "uint16",
              "name": "minor",
              "type": "uint16"
            }
          ],
          "internalType": "struct Version",
          "name": "",
          "type": "tuple"
        }
      ],
      "stateMutability": "view",
      "type": "function"
    },
    {
      "inputs": [
        {
          "internalType": "string",
          "name": "name",
          "type": "string"
        },
        {
          "components": [
            {
              "internalType": "uint16",
              "name": "major",
              "type": "uint16"
            },
            {
              "internalType": "uint16",
              "name": "minor",
              "type": "uint16"
            }
          ],
          "internalType": "struct Version",
          "name": "version",
          "type": "tuple"
        }
      ],
      "name": "hasExtension",
      "outputs": [
        {
          "internalType": "bool",
          "name": "",
          "type": "bool"
        }
      ],
      "stateMutability": "view",
      "type": "function"
    },
    {
      "inputs": [
        {
          "components": [
            {
              "internalType": "address",
              "name": "owner",
              "type": "address"
            },
            {
              "internalType": "address",
              "name": "termsOwner",
              "type": "address"
            },
            {
              "internalType": "address",
              "name": "registry",
              "type": "address"
            },
            {
              "internalType": "string",
              "name": "name",
              "type": "string"
            },
            {
              "components": [
                {
                  "internalType": "string",
                  "name": "x",
                  "type": "string"
                },
                {
                  "internalType": "string",
                  "name": "y",
                  "type": "string"
                },
                {
                  "internalType": "string",
                  "name": "z",
                  "type": "string"
                },
                {
                  "internalType": "uint256",
                  "name": "t",
                  "type": "uint256"
                },
                {
                  "internalType": "uint256",
                  "name": "p",
                  "type": "uint256"
                },
                {
                  "internalType": "uint256",
                  "name": "p_sub",
                  "type": "uint256"
                }
              ],
              "internalType": "struct VectorAddress",
              "name": "vector",
              "type": "tuple"
            },
            {
              "internalType": "bytes",
              "name": "initData",
              "type": "bytes"
            }
          ],
          "internalType": "struct CommonInitArgs",
          "name": "args",
          "type": "tuple"
        }
      ],
      "name": "init",
      "outputs": [],
      "stateMutability": "nonpayable",
      "type": "function"
    },
    {
      "inputs": [],
      "name": "portalRegistry",
      "outputs": [
        {
          "internalType": "address",
          "name": "",
          "type": "address"
        }
      ],
      "stateMutability": "view",
      "type": "function"
    },
    {
      "inputs": [],
      "name": "version",
      "outputs": [
        {
          "components": [
            {
              "internalType": "uint16",
              "name": "major",
              "type": "uint16"
            },
            {
              "internalType": "uint16",
              "name": "minor",
              "type": "uint16"
            }
          ],
          "internalType": "struct Version",
          "name": "",
          "type": "tuple"
        }
      ],
      "stateMutability": "pure",
      "type": "function"
    },
    {
      "inputs": [
        {
          "internalType": "uint256",
          "name": "amount",
          "type": "uint256"
        }
      ],
      "name": "withdraw",
      "outputs": [],
      "stateMutability": "nonpayable",
      "type": "function"
    },
    {
      "inputs": [],
      "name": "worldRegistry",
      "outputs": [
        {
          "internalType": "contract IWorldRegistry",
          "name": "",
          "type": "address"
        }
      ],
      "stateMutability": "view",
      "type": "function"
    },
    {
      "stateMutability": "payable",
      "type": "receive"
    }
  ],
  "bytecode": "0x6101606040523480156200001257600080fd5b5060405162001be738038062001be78339810160408190526200003591620003d6565b80516001600160a01b038116620000b95760405162461bcd60e51b815260206004820152603660248201527f456e746974795368656c6c3a20657874656e73696f6e207265736f6c7665722060448201527f63616e6e6f74206265207a65726f20616464726573730000000000000000000060648201526084015b60405180910390fd5b6001600160a01b03908116608052602082015116620001315760405162461bcd60e51b815260206004820152602d60248201527f4176617461723a206f776e696e6752656769737472792063616e6e6f7420626560448201526c207a65726f206164647265737360981b6064820152608401620000b0565b60408101516001600160a01b0316620001a25760405162461bcd60e51b815260206004820152602c60248201527f4176617461723a20776f726c6452656769737472792063616e6e6f742062652060448201526b7a65726f206164647265737360a01b6064820152608401620000b0565b60608101516001600160a01b0316620002185760405162461bcd60e51b815260206004820152603160248201527f4176617461723a20657870657269656e636552656769737472792063616e6e6f60448201527074206265207a65726f206164647265737360781b6064820152608401620000b0565b60808101516001600160a01b0316620002895760405162461bcd60e51b815260206004820152602c60248201527f4176617461723a20617373657452656769737472792063616e6e6f742062652060448201526b7a65726f206164647265737360a01b6064820152608401620000b0565b60a08101516001600160a01b0316620002fb5760405162461bcd60e51b815260206004820152602d60248201527f4176617461723a20706f7274616c52656769737472792063616e6e6f7420626560448201526c207a65726f206164647265737360981b6064820152608401620000b0565b60c08101516001600160a01b03166200036e5760405162461bcd60e51b815260206004820152602e60248201527f4176617461723a20636f6d70616e7952656769737472792063616e6e6f74206260448201526d65207a65726f206164647265737360901b6064820152608401620000b0565b6020810180516001600160a01b0390811660c09081529151811660a09081526060840151821660e05260808401518216610100528301518116610120529101511661014052620004a3565b80516001600160a01b0381168114620003d157600080fd5b919050565b600060e08284031215620003e957600080fd5b60405160e081016001600160401b03811182821017156200041a57634e487b7160e01b600052604160045260246000fd5b6040526200042883620003b9565b81526200043860208401620003b9565b60208201526200044b60408401620003b9565b60408201526200045e60608401620003b9565b60608201526200047160808401620003b9565b60808201526200048460a08401620003b9565b60a08201526200049760c08401620003b9565b60c08201529392505050565b60805160a05160c05160e0516101005161012051610140516116c66200052160003960006102c5015260006102910152600061025d0152600081816101dd015261099f015260008181610229015261068a0152600061032d0152600081816102f901528181610359015281816103a6015261060001526116c66000f3fe6080604052600436106100ab5760003560e01c8063911c2a8c11610064578063911c2a8c14610217578063979d7e861461024b578063b66649341461027f578063c51aba2b146102b3578063dd2a44c1146102e7578063e3d7ad731461031b576100b2565b8063238a0386146100da5780632e1a7d4d1461012157806347d1d09a1461014357806354fd4d501461017357806369a10a12146101ab5780638f09a6be146101cb576100b2565b366100b257005b600080356001600160e01b031916905060006100d08260003661034f565b9050805160208201f35b3480156100e657600080fd5b506100fa6100f5366004610f38565b610385565b60408051825161ffff90811682526020938401511692810192909252015b60405180910390f35b34801561012d57600080fd5b5061014161013c366004610f6d565b610429565b005b34801561014f57600080fd5b5061016361015e366004610f86565b6105e6565b6040519015158152602001610118565b34801561017f57600080fd5b5060408051808201825260008082526020918201819052825180840190935260018352908201526100fa565b3480156101b757600080fd5b506101416101c6366004610fe0565b61067f565b3480156101d757600080fd5b506101ff7f000000000000000000000000000000000000000000000000000000000000000081565b6040516001600160a01b039091168152602001610118565b34801561022357600080fd5b506101ff7f000000000000000000000000000000000000000000000000000000000000000081565b34801561025757600080fd5b506101ff7f000000000000000000000000000000000000000000000000000000000000000081565b34801561028b57600080fd5b506101ff7f000000000000000000000000000000000000000000000000000000000000000081565b3480156102bf57600080fd5b506101ff7f000000000000000000000000000000000000000000000000000000000000000081565b3480156102f357600080fd5b506101ff7f000000000000000000000000000000000000000000000000000000000000000081565b34801561032757600080fd5b506101ff7f000000000000000000000000000000000000000000000000000000000000000081565b606061037d8484847f0000000000000000000000000000000000000000000000000000000000000000610b7d565b949350505050565b6040805180820182526000808252602082015290516311c501c360e11b81527f00000000000000000000000000000000000000000000000000000000000000006001600160a01b03169063238a0386906103e390859060040161106b565b6040805180830381865afa1580156103ff573d6000803e3d6000fd5b505050506040513d601f19601f820116820180604052508101906104239190611091565b92915050565b604051630935e01b60e21b815233600482015273__$a5a42e46683ad9c79b7b86d5ff60fdf4c1$__906324d7806c90602401602060405180830381865af4158015610478573d6000803e3d6000fd5b505050506040513d601f19601f8201168201806040525081019061049c91906110fe565b6104ed5760405162461bcd60e51b815260206004820181905260248201527f42617369635368656c6c3a207265737472696374656420746f2061646d696e7360448201526064015b60405180910390fd5b4781111561053d5760405162461bcd60e51b815260206004820181905260248201527f42617369635368656c6c3a20696e73756666696369656e742062616c616e636560448201526064016104e4565b73__$a5a42e46683ad9c79b7b86d5ff60fdf4c1$__638da5cb5b6040518163ffffffff1660e01b8152600401602060405180830381865af4158015610586573d6000803e3d6000fd5b505050506040513d601f19601f820116820180604052508101906105aa9190611130565b6001600160a01b03166108fc829081150290604051600060405180830381858888f193505050501580156105e2573d6000803e3d6000fd5b5050565b6040516323e8e84d60e11b81526000906001600160a01b037f000000000000000000000000000000000000000000000000000000000000000016906347d1d09a90610637908690869060040161114d565b602060405180830381865afa158015610654573d6000803e3d6000fd5b505050506040513d601f19601f8201168201806040525081019061067891906110fe565b9392505050565b336001600160a01b037f000000000000000000000000000000000000000000000000000000000000000016146106f75760405162461bcd60e51b815260206004820152601c60248201527f436f6d70616e793a206f6e6c7920776f726c642072656769737472790000000060448201526064016104e4565b60006107096040830160208401611199565b6001600160a01b0316036107705760405162461bcd60e51b815260206004820152602860248201527f436f6d70616e793a207465726d73206f776e657220697320746865207a65726f604482015267206164647265737360c01b60648201526084016104e4565b600061077f60608301836111b6565b9050116107ce5760405162461bcd60e51b815260206004820152601d60248201527f436f6d70616e793a206e616d652063616e6e6f7420626520656d70747900000060448201526064016104e4565b60408051600080825260208201909252905073__$a5a42e46683ad9c79b7b86d5ff60fdf4c1$__63d9ac971f6108076020850185611199565b836040518363ffffffff1660e01b8152600401610825929190611204565b60006040518083038186803b15801561083d57600080fd5b505af4158015610851573d6000803e3d6000fd5b50505050600061085f610caf565b805460ff19166001178155905061087960608401846111b6565b6002830191610889919083611300565b5061089760808401846113bb565b600382016108a582826113db565b506108b890506040840160208501611199565b81546001600160a01b0391909116620100000262010000600160b01b031990911617815560006108e6610d45565b905060006108f760a08601866111b6565b81019061090491906114f9565b60208101519091506001600160a01b031661097b5760405162461bcd60e51b815260206004820152603160248201527f4176617461723a2064656661756c7420657870657269656e63652063616e6e6f60448201527074206265207a65726f206164647265737360781b60648201526084016104e4565b602081015160405163c3c5a54760e01b81526001600160a01b0391821660048201527f00000000000000000000000000000000000000000000000000000000000000009091169063c3c5a54790602401602060405180830381865afa1580156109e8573d6000803e3d6000fd5b505050506040513d601f19601f82011682018060405250810190610a0c91906110fe565b610a6d5760405162461bcd60e51b815260206004820152602c60248201527f4176617461723a2064656661756c7420657870657269656e6365206973206e6f60448201526b1d081c9959da5cdd195c995960a21b60648201526084016104e4565b80602001516001600160a01b03166386b70bed6040518163ffffffff1660e01b8152600401602060405180830381865afa158015610aaf573d6000803e3d6000fd5b505050506040513d601f19601f82011682018060405250810190610ad391906110fe565b610b305760405162461bcd60e51b815260206004820152602860248201527f4176617461723a2064656661756c7420657870657269656e6365206973206e6f604482015267742061637469766560c01b60648201526084016104e4565b8051825460ff191690151517825560408101516003830190610b5290826115a3565b506020015181546001600160a01b0390911661010002610100600160a81b0319909116179055505050565b6040516337b4746960e11b81526001600160e01b0319851660048201526060906000906001600160a01b03841690636f68e8d290602401602060405180830381865afa158015610bd1573d6000803e3d6000fd5b505050506040513d601f19601f82011682018060405250810190610bf59190611130565b90506001600160a01b038116610c655760405162461bcd60e51b815260206004820152602f60248201527f4c6962457874656e73696f6e3a206e6f20657874656e73696f6e20737570706f60448201526e393a399033371039b2b632b1ba37b960891b60648201526084016104e4565b610ca58186868080601f016020809104026020016040519081016040528093929190818152602001838380828437600092019190915250610da192505050565b9695505050505050565b60408051808201909152601881527f78722e61637469766174696f6e2e73746f726167652e7631000000000000000060209091015260008060ff610d1460017ff6611e962a52dbc98dd0485088d920890c43e26113c61976f6e171a29d49ce4961165d565b604051602001610d2691815260200190565b60408051601f1981840301815291905280516020909101201692915050565b60408051808201909152601481527378722e6176617461722e73746f726167652e763160601b60209091015260008060ff610d1460017f4fd0b807f0bccdb8b9f7d6f3136b4bff018fd299ff833e7b8768182dc5b9a53261165d565b6060600080846001600160a01b031684604051610dbe919061167e565b600060405180830381855af49150503d8060008114610df9576040519150601f19603f3d011682016040523d82523d6000602084013e610dfe565b606091505b50915091508115610e125791506104239050565b805115610e225780518082602001fd5b60405162461bcd60e51b8152602060048201526016602482015275119d5b98dd1a5bdb8818d85b1b081c995d995c9d195960521b60448201526064016104e4565b634e487b7160e01b600052604160045260246000fd5b6040516060810167ffffffffffffffff81118282101715610e9c57610e9c610e63565b60405290565b600067ffffffffffffffff80841115610ebd57610ebd610e63565b604051601f8501601f19908116603f01168101908282118183101715610ee557610ee5610e63565b81604052809350858152868686011115610efe57600080fd5b858560208301376000602087830101525050509392505050565b600082601f830112610f2957600080fd5b61067883833560208501610ea2565b600060208284031215610f4a57600080fd5b813567ffffffffffffffff811115610f6157600080fd5b61037d84828501610f18565b600060208284031215610f7f57600080fd5b5035919050565b6000808284036060811215610f9a57600080fd5b833567ffffffffffffffff811115610fb157600080fd5b610fbd86828701610f18565b9350506040601f1982011215610fd257600080fd5b506020830190509250929050565b600060208284031215610ff257600080fd5b813567ffffffffffffffff81111561100957600080fd5b820160c0818503121561067857600080fd5b60005b8381101561103657818101518382015260200161101e565b50506000910152565b6000815180845261105781602086016020860161101b565b601f01601f19169290920160200192915050565b602081526000610678602083018461103f565b61ffff8116811461108e57600080fd5b50565b6000604082840312156110a357600080fd5b6040516040810181811067ffffffffffffffff821117156110c6576110c6610e63565b60405282516110d48161107e565b815260208301516110e48161107e565b60208201529392505050565b801515811461108e57600080fd5b60006020828403121561111057600080fd5b8151610678816110f0565b6001600160a01b038116811461108e57600080fd5b60006020828403121561114257600080fd5b81516106788161111b565b606081526000611160606083018561103f565b9050823561116d8161107e565b61ffff8082166020850152602085013591506111888261107e565b808216604085015250509392505050565b6000602082840312156111ab57600080fd5b81356106788161111b565b6000808335601e198436030181126111cd57600080fd5b83018035915067ffffffffffffffff8211156111e857600080fd5b6020019150368190038213156111fd57600080fd5b9250929050565b6001600160a01b038381168252604060208084018290528451918401829052600092858201929091906060860190855b81811015611252578551851683529483019491830191600101611234565b509098975050505050505050565b600181811c9082168061127457607f821691505b60208210810361129457634e487b7160e01b600052602260045260246000fd5b50919050565b601f8211156112e6576000816000526020600020601f850160051c810160208610156112c35750805b601f850160051c820191505b818110156112e2578281556001016112cf565b5050505b505050565b600019600383901b1c191660019190911b1790565b67ffffffffffffffff83111561131857611318610e63565b61132c836113268354611260565b8361129a565b6000601f84116001811461135a57600085156113485750838201355b61135286826112eb565b8455506113b4565b600083815260209020601f19861690835b8281101561138b578685013582556020948501946001909201910161136b565b50868210156113a85760001960f88860031b161c19848701351681555b505060018560011b0183555b5050505050565b6000823560be198336030181126113d157600080fd5b9190910192915050565b6113e582836111b6565b67ffffffffffffffff8111156113fd576113fd610e63565b6114118161140b8554611260565b8561129a565b6000601f82116001811461143f576000831561142d5750838201355b61143784826112eb565b865550611499565b600085815260209020601f19841690835b828110156114705786850135825560209485019460019092019101611450565b508482101561148d5760001960f88660031b161c19848701351681555b505060018360011b0185555b505050506114aa60208301836111b6565b6114b8818360018601611300565b50506114c760408301836111b6565b6114d5818360028601611300565b5050606082013560038201556080820135600482015560a082013560058201555050565b60006020828403121561150b57600080fd5b813567ffffffffffffffff8082111561152357600080fd5b908301906060828603121561153757600080fd5b61153f610e79565b823561154a816110f0565b8152602083013561155a8161111b565b602082015260408301358281111561157157600080fd5b80840193505085601f84011261158657600080fd5b61159586843560208601610ea2565b604082015295945050505050565b815167ffffffffffffffff8111156115bd576115bd610e63565b6115d1816115cb8454611260565b8461129a565b602080601f83116001811461160057600084156115ee5750858301515b6115f885826112eb565b8655506112e2565b600085815260208120601f198616915b8281101561162f57888601518255948401946001909101908401611610565b508582101561164d5787850151600019600388901b60f8161c191681555b5050505050600190811b01905550565b8181038181111561042357634e487b7160e01b600052601160045260246000fd5b600082516113d181846020870161101b56fea264697066735822122082b2dcebedd21e4de90cec5a99fd3053012298641b19383e1b498afc785653fd64736f6c63430008180033",
  "linkReferences": {
    "contracts/libraries/LibAccess.sol": {
      "LibAccess": [
        {
          "length": 20,
          "start": 2399
        },
        {
          "length": 20,
          "start": 2656
        },
        {
          "length": 20,
          "start": 3331
        }
      ]
    }
  },
  "deployedLinkReferences": {
    "contracts/libraries/LibAccess.sol": {
      "LibAccess": [
        {
          "length": 20,
          "start": 1086
        },
        {
          "length": 20,
          "start": 1343
        },
        {
          "length": 20,
          "start": 2018
        }
      ]
    }
  }
}