{
  "_format": "hh-sol-artifact-1",
  "contractName": "AvatarRegistrationExt",
  "sourceName": "contracts/extensions/registry/avatar/AvatarRegistrationExt.sol",
  "abi": [
    {
      "anonymous": false,
      "inputs": [
        {
          "indexed": true,
          "internalType": "address",
          "name": "entity",
          "type": "address"
        },
        {
          "indexed": true,
          "internalType": "address",
          "name": "owner",
          "type": "address"
        }
      ],
      "name": "RegistryAddedEntity",
      "type": "event"
    },
    {
      "anonymous": false,
      "inputs": [
        {
          "indexed": true,
          "internalType": "address",
          "name": "old",
          "type": "address"
        },
        {
          "indexed": false,
          "internalType": "address",
          "name": "newVersion",
          "type": "address"
        }
      ],
      "name": "RegistryUpgradedEntity",
      "type": "event"
    },
    {
      "inputs": [
        {
          "components": [
            {
              "internalType": "address",
              "name": "entity",
              "type": "address"
            },
            {
              "internalType": "bytes",
              "name": "entitySignature",
              "type": "bytes"
            },
            {
              "internalType": "uint256",
              "name": "expiration",
              "type": "uint256"
            },
            {
              "components": [
                {
                  "internalType": "uint16",
                  "name": "coveragePeriodDays",
                  "type": "uint16"
                },
                {
                  "internalType": "uint16",
                  "name": "gracePeriodDays",
                  "type": "uint16"
                },
                {
                  "internalType": "uint256",
                  "name": "fee",
                  "type": "uint256"
                }
              ],
              "internalType": "struct RegistrationTerms",
              "name": "terms",
              "type": "tuple"
            }
          ],
          "internalType": "struct ChangeEntityTermsArgs",
          "name": "args",
          "type": "tuple"
        }
      ],
      "name": "changeEntityTerms",
      "outputs": [],
      "stateMutability": "nonpayable",
      "type": "function"
    },
    {
      "inputs": [
        {
          "components": [
            {
              "internalType": "bool",
              "name": "sendTokensToOwner",
              "type": "bool"
            },
            {
              "internalType": "address",
              "name": "owner",
              "type": "address"
            },
            {
              "internalType": "string",
              "name": "name",
              "type": "string"
            },
            {
              "internalType": "bytes",
              "name": "initData",
              "type": "bytes"
            }
          ],
          "internalType": "struct CreateAvatarArgs",
          "name": "args",
          "type": "tuple"
        }
      ],
      "name": "createAvatar",
      "outputs": [
        {
          "internalType": "address",
          "name": "",
          "type": "address"
        }
      ],
      "stateMutability": "payable",
      "type": "function"
    },
    {
      "inputs": [
        {
          "internalType": "string",
          "name": "name",
          "type": "string"
        }
      ],
      "name": "getEntityByName",
      "outputs": [
        {
          "internalType": "address",
          "name": "",
          "type": "address"
        }
      ],
      "stateMutability": "view",
      "type": "function"
    },
    {
      "inputs": [
        {
          "components": [
            {
              "internalType": "string",
              "name": "x",
              "type": "string"
            },
            {
              "internalType": "string",
              "name": "y",
              "type": "string"
            },
            {
              "internalType": "string",
              "name": "z",
              "type": "string"
            },
            {
              "internalType": "uint256",
              "name": "t",
              "type": "uint256"
            },
            {
              "internalType": "uint256",
              "name": "p",
              "type": "uint256"
            },
            {
              "internalType": "uint256",
              "name": "p_sub",
              "type": "uint256"
            }
          ],
          "internalType": "struct VectorAddress",
          "name": "vector",
          "type": "tuple"
        }
      ],
      "name": "getEntityByVector",
      "outputs": [
        {
          "internalType": "address",
          "name": "",
          "type": "address"
        }
      ],
      "stateMutability": "view",
      "type": "function"
    },
    {
      "inputs": [
        {
          "components": [
            {
              "internalType": "address",
              "name": "owner",
              "type": "address"
            },
            {
              "internalType": "address",
              "name": "owningRegistry",
              "type": "address"
            },
            {
              "internalType": "address[]",
              "name": "admins",
              "type": "address[]"
            }
          ],
          "internalType": "struct ExtensionInitArgs",
          "name": "args",
          "type": "tuple"
        }
      ],
      "name": "initStorage",
      "outputs": [],
      "stateMutability": "nonpayable",
      "type": "function"
    },
    {
      "inputs": [
        {
          "internalType": "address",
          "name": "myAddress",
          "type": "address"
        }
      ],
      "name": "install",
      "outputs": [],
      "stateMutability": "nonpayable",
      "type": "function"
    },
    {
      "inputs": [
        {
          "internalType": "address",
          "name": "addr",
          "type": "address"
        }
      ],
      "name": "isRegistered",
      "outputs": [
        {
          "internalType": "bool",
          "name": "",
          "type": "bool"
        }
      ],
      "stateMutability": "view",
      "type": "function"
    },
    {
      "inputs": [],
      "name": "metadata",
      "outputs": [
        {
          "components": [
            {
              "internalType": "string",
              "name": "name",
              "type": "string"
            },
            {
              "components": [
                {
                  "internalType": "uint16",
                  "name": "major",
                  "type": "uint16"
                },
                {
                  "internalType": "uint16",
                  "name": "minor",
                  "type": "uint16"
                }
              ],
              "internalType": "struct Version",
              "name": "version",
              "type": "tuple"
            }
          ],
          "internalType": "struct ExtensionMetadata",
          "name": "",
          "type": "tuple"
        }
      ],
      "stateMutability": "pure",
      "type": "function"
    },
    {
      "inputs": [],
      "name": "register",
      "outputs": [],
      "stateMutability": "nonpayable",
      "type": "function"
    },
    {
      "inputs": [
        {
          "internalType": "address",
          "name": "myAddress",
          "type": "address"
        }
      ],
      "name": "upgrade",
      "outputs": [],
      "stateMutability": "nonpayable",
      "type": "function"
    }
  ],
  "bytecode": "0x608060405234801561001057600080fd5b506115d1806100206000396000f3fe6080604052600436106100915760003560e01c80634d4965f3116100595780634d4965f31461014e578063729963c01461016e578063a9f9482414610189578063c3c5a5471461019c578063c747e47e146101cc57600080fd5b80630900f010146100965780631aa3a008146100b65780632a1b8f9b146100cb578063392f37e9146100eb5780633e88a4e214610116575b600080fd5b3480156100a257600080fd5b506100b46100b1366004610eae565b50565b005b3480156100c257600080fd5b506100b46101ec565b3480156100d757600080fd5b506100b46100e6366004610eae565b610270565b3480156100f757600080fd5b5061010061049d565b60405161010d9190610f18565b60405180910390f35b34801561012257600080fd5b50610136610131366004610f5d565b6104f8565b6040516001600160a01b03909116815260200161010d565b34801561015a57600080fd5b506100b4610169366004610fe7565b61057e565b34801561017a57600080fd5b506100b46100b1366004611024565b61013661019736600461105f565b6105e8565b3480156101a857600080fd5b506101bc6101b7366004610eae565b610c0c565b604051901515815260200161010d565b3480156101d857600080fd5b506101366101e7366004610fe7565b610c8b565b6101f533610c0c565b61026e576040805162461bcd60e51b81526020600482015260248101919091527f526567697374726174696f6e4578743a206f6e6c79207265676973746572656460448201527f20656e7469746965732063616e2063616c6c20746869732066756e6374696f6e60648201526084015b60405180910390fd5b565b60408051600480825260a08201909252600091816020015b6040805180820190915260008152606060208201528152602001906001900390816102885790505090506040518060400160405280633e88a4e260e01b6001600160e01b03191681526020016040518060400160405280601781526020017f676574456e7469747942794e616d6528737472696e6729000000000000000000815250815250816000815181106103205761032061109a565b6020026020010181905250604051806040016040528063c3c5a54760e01b6001600160e01b03191681526020016040518060400160405280601581526020017469735265676973746572656428616464726573732960581b815250815250816002815181106103915761039161109a565b6020026020010181905250604051806040016040528063a9f9482460e01b6001600160e01b03191681526020016040518060400160405280601e81526020017f63726561746541766174617228437265617465417661746172417267732900008152508152508160038151811061040a5761040a61109a565b602002602001018190525073__$307c3a572bdf5d9800a89b3fc2eb3d5604$__63964d13f06040518060400160405280856001600160a01b03168152602001848152506040518263ffffffff1660e01b815260040161046991906110b0565b60006040518083038186803b15801561048157600080fd5b505af4158015610495573d6000803e3d6000fd5b505050505050565b6104a5610e5d565b5060408051608081018252601581830190815274105d985d185c949959da5cdd1c985d1a5bdb915e1d605a1b60608301528152815180830190925260018252600060208381019190915281019190915290565b604051631f44527160e11b815260009073__$d81eab81c4f96e94de97b51155a369ac43$__90633e88a4e2906105349086908690600401611173565b602060405180830381865af4158015610551573d6000803e3d6000fd5b505050506040513d601f19601f820116820180604052508101906105759190611187565b90505b92915050565b604051630bca13f760e41b815273__$d81eab81c4f96e94de97b51155a369ac43$__9063bca13f70906105b5908490600401611208565b60006040518083038186803b1580156105cd57600080fd5b505af41580156105e1573d6000803e3d6000fd5b5050505050565b600080306001600160a01b031663911c2a8c6040518163ffffffff1660e01b8152600401602060405180830381865afa158015610629573d6000803e3d6000fd5b505050506040513d601f19601f8201168201806040525081019061064d9190611187565b90506001600160a01b0381166106bb5760405162461bcd60e51b815260206004820152602d60248201527f417661746172526567697374726174696f6e4578743a20776f726c642072656760448201526c1a5cdd1c9e481b9bdd081cd95d609a1b6064820152608401610265565b60008190506000339050806001600160a01b03166386b70bed6040518163ffffffff1660e01b8152600401602060405180830381865afa158015610703573d6000803e3d6000fd5b505050506040513d601f19601f8201168201806040525081019061072791906112a5565b6107865760405162461bcd60e51b815260206004820152602a60248201527f417661746172526567697374726174696f6e4578743a20776f726c64206973206044820152696e6f742061637469766560b01b6064820152608401610265565b60405163c3c5a54760e01b81523360048201526001600160a01b0383169063c3c5a54790602401602060405180830381865afa1580156107ca573d6000803e3d6000fd5b505050506040513d601f19601f820116820180604052508101906107ee91906112a5565b6108515760405162461bcd60e51b815260206004820152602e60248201527f417661746172526567697374726174696f6e4578743a20776f726c642069732060448201526d1b9bdd081c9959da5cdd195c995960921b6064820152608401610265565b600061085b610d06565b8054909150600090610875906001600160a01b0316610d9c565b90506001600160a01b0381166108df5760405162461bcd60e51b815260206004820152602960248201527f417661746172526567697374726174696f6e3a20656e7469747920636c6f6e696044820152681b99c819985a5b195960ba1b6064820152608401610265565b6040805160e081018252600060c080830182815283528351602081810186528382528085019190915284518082018652838152848601526060840183905260016080850181905260a0850152845191820185529293919290918291610948918d01908d01610eae565b6001600160a01b03168152602001336001600160a01b03168152602001306001600160a01b031681526020018a806040019061098491906112c2565b8080601f016020809104026020016040519081016040528093929190818152602001838380828437600092019190915250505090825250602081018490526040016109d260608c018c6112c2565b8080601f01602080910402602001604051908101604052809392919081815260200183838082843760009201919091525050509152506040516334d0850960e11b81529091506001600160a01b038416906369a10a1290610a37908490600401611309565b600060405180830381600087803b158015610a5157600080fd5b505af1158015610a65573d6000803e3d6000fd5b505060408051606080820183526001600160a01b0388168252825190810183526000808252601e60208381019190915282850191909152820152808201869052905163af2e5d0560e01b815290925073__$d81eab81c4f96e94de97b51155a369ac43$__915063af2e5d0590610adf9084906004016113f2565b60006040518083038186803b158015610af757600080fd5b505af4158015610b0b573d6000803e3d6000fd5b505050506000341115610baf57610b2560208b018b6114bb565b15610b7857610b3a60408b0160208c01610eae565b6001600160a01b03166108fc349081150290604051600060405180830381858888f19350505050158015610b72573d6000803e3d6000fd5b50610baf565b6040516001600160a01b038516903480156108fc02916000818181858888f19350505050158015610bad573d6000803e3d6000fd5b505b610bbf60408b0160208c01610eae565b6001600160a01b0316846001600160a01b03167f7377123f9eb561d749cd3a89a83c22035cad6473521acbb981ee1c52d8f0248560405160405180910390a3509198975050505050505050565b60405163c3c5a54760e01b81526001600160a01b038216600482015260009073__$d81eab81c4f96e94de97b51155a369ac43$__9063c3c5a54790602401602060405180830381865af4158015610c67573d6000803e3d6000fd5b505050506040513d601f19601f8201168201806040525081019061057891906112a5565b6040516332ef671360e21b815260009073__$d81eab81c4f96e94de97b51155a369ac43$__9063cbbd9c4c90610cc59085906004016114d8565b602060405180830381865af4158015610ce2573d6000803e3d6000fd5b505050506040513d601f19601f820116820180604052508101906105789190611187565b60408051808201909152601c81527f78722e656e746974792e666163746f72792e73746f726167652e76310000000060209091015260008060ff610d6b60017f8b4ac7cd4466ab0d50fe53a88c5446ca4a450d482bef9ad792e7d9f451497e0f61157a565b604051602001610d7d91815260200190565b60408051601f1981840301815291905280516020909101201692915050565b60006001600160a01b038216610e0c5760405162461bcd60e51b815260206004820152602f60248201527f4c6962436c6f6e653a20696d706c656d656e746174696f6e2063616e6e6f742060448201526e6265207a65726f206164647265737360881b6064820152608401610265565b60008260601b9050604051733d602d80600a3d3981f3363d3d373d3d3d363d7360601b81528160148201526e5af43d82803e903d91602b57fd5bf360881b60288201526037816000f0949350505050565b604051806040016040528060608152602001610e946040518060400160405280600061ffff168152602001600061ffff1681525090565b905290565b6001600160a01b03811681146100b157600080fd5b600060208284031215610ec057600080fd5b8135610ecb81610e99565b9392505050565b6000815180845260005b81811015610ef857602081850181015186830182015201610edc565b506000602082860101526020601f19601f83011685010191505092915050565b602081526000825160606020840152610f346080840182610ed2565b602094850151805161ffff90811660408701529501519094166060909301929092525090919050565b60008060208385031215610f7057600080fd5b823567ffffffffffffffff80821115610f8857600080fd5b818501915085601f830112610f9c57600080fd5b813581811115610fab57600080fd5b866020828501011115610fbd57600080fd5b60209290920196919550909350505050565b600060c08284031215610fe157600080fd5b50919050565b600060208284031215610ff957600080fd5b813567ffffffffffffffff81111561101057600080fd5b61101c84828501610fcf565b949350505050565b60006020828403121561103657600080fd5b813567ffffffffffffffff81111561104d57600080fd5b820160608185031215610ecb57600080fd5b60006020828403121561107157600080fd5b813567ffffffffffffffff81111561108857600080fd5b820160808185031215610ecb57600080fd5b634e487b7160e01b600052603260045260246000fd5b602080825282516001600160a01b031682820152828101516040808401819052815160608501819052600093926080600583901b87018101939185019290870190865b8181101561113c57888603607f19018352845180516001600160e01b031916875287015187870185905261112985880182610ed2565b96505093860193918601916001016110f3565b509398975050505050505050565b81835281816020850137506000828201602090810191909152601f909101601f19169091010190565b60208152600061101c60208301848661114a565b60006020828403121561119957600080fd5b8151610ecb81610e99565b6000808335601e198436030181126111bb57600080fd5b830160208101925035905067ffffffffffffffff8111156111db57600080fd5b8036038213156111ea57600080fd5b9250929050565b803561ffff8116811461120357600080fd5b919050565b602081526000823561121981610e99565b6001600160a01b0316602083810191909152611237908401846111a4565b60c0604085015261124c60e08501828461114a565b9150506040840135606084015261ffff80611269606087016111f1565b1660808501528061127c608087016111f1565b1660a08501525060a084013560c08401528091505092915050565b80151581146100b157600080fd5b6000602082840312156112b757600080fd5b8151610ecb81611297565b6000808335601e198436030181126112d957600080fd5b83018035915067ffffffffffffffff8211156112f457600080fd5b6020019150368190038213156111ea57600080fd5b60208152600060018060a01b0380845116602084015280602085015116604084015280604085015116606084015250606083015160c0608084015261135160e0840182610ed2565b90506080840151601f19808584030160a0860152815160c0845261137860c0850182610ed2565b9050602083015184820360208601526113918282610ed2565b915050604083015184820360408601526113ab8282610ed2565b915050606083015160608501526080830151608085015260a083015160a085015260a08701519350818682030160c08701526113e78185610ed2565b979650505050505050565b602080825282516001600160a01b03168282015282810151805161ffff90811660408086019190915292820151166060840152810151608083015282015160a080830152805160c08084015260009190611450610180850182610ed2565b9050602082015160bf19808684030160e087015261146e8383610ed2565b92506040840151915080868403016101008701525061148d8282610ed2565b6060840151610120870152608084015161014087015260a09093015161016090950194909452509392505050565b6000602082840312156114cd57600080fd5b8135610ecb81611297565b6020815260006114e883846111a4565b60c060208501526114fd60e08501828461114a565b91505061150d60208501856111a4565b601f198086850301604087015261152584838561114a565b935061153460408801886111a4565b93509150808685030160608701525061154e83838361114a565b9250505060608401356080840152608084013560a084015260a084013560c08401528091505092915050565b8181038181111561057857634e487b7160e01b600052601160045260246000fdfea2646970667358221220119233702003f10ed93d8d2b9a2f7ddf30395580ee7b86ba7375ca1713e3537d64736f6c63430008180033",
  "linkReferences": {
    "contracts/libraries/LibExtensions.sol": {
      "LibExtensions": [
        {
          "length": 20,
          "start": 1079
        }
      ]
    },
    "contracts/libraries/LibRegistration.sol": {
      "LibRegistration": [
        {
          "length": 20,
          "start": 1322
        },
        {
          "length": 20,
          "start": 1453
        },
        {
          "length": 20,
          "start": 2774
        },
        {
          "length": 20,
          "start": 3149
        },
        {
          "length": 20,
          "start": 3261
        }
      ]
    }
  },
  "deployedLinkReferences": {
    "contracts/libraries/LibExtensions.sol": {
      "LibExtensions": [
        {
          "length": 20,
          "start": 1047
        }
      ]
    },
    "contracts/libraries/LibRegistration.sol": {
      "LibRegistration": [
        {
          "length": 20,
          "start": 1290
        },
        {
          "length": 20,
          "start": 1421
        },
        {
          "length": 20,
          "start": 2742
        },
        {
          "length": 20,
          "start": 3117
        },
        {
          "length": 20,
          "start": 3229
        }
      ]
    }
  }
}