{
  "_format": "hh-sol-artifact-1",
  "contractName": "AvatarRegistry",
  "sourceName": "contracts/avatar/AvatarRegistry.sol",
  "abi": [
    {
      "inputs": [
        {
          "components": [
            {
              "internalType": "address",
              "name": "mainAdmin",
              "type": "address"
            },
            {
              "internalType": "address[]",
              "name": "admins",
              "type": "address[]"
            },
            {
              "internalType": "address",
              "name": "avatarFactory",
              "type": "address"
            },
            {
              "internalType": "address",
              "name": "worldRegistry",
              "type": "address"
            }
          ],
          "internalType": "struct AvatarRegistryArgs",
          "name": "args",
          "type": "tuple"
        }
      ],
      "stateMutability": "nonpayable",
      "type": "constructor"
    },
    {
      "inputs": [],
      "name": "AccessControlBadConfirmation",
      "type": "error"
    },
    {
      "inputs": [
        {
          "internalType": "address",
          "name": "account",
          "type": "address"
        },
        {
          "internalType": "bytes32",
          "name": "neededRole",
          "type": "bytes32"
        }
      ],
      "name": "AccessControlUnauthorizedAccount",
      "type": "error"
    },
    {
      "inputs": [],
      "name": "ReentrancyGuardReentrantCall",
      "type": "error"
    },
    {
      "anonymous": false,
      "inputs": [
        {
          "indexed": true,
          "internalType": "address",
          "name": "avatar",
          "type": "address"
        },
        {
          "indexed": true,
          "internalType": "address",
          "name": "owner",
          "type": "address"
        },
        {
          "indexed": true,
          "internalType": "address",
          "name": "defaultExperience",
          "type": "address"
        }
      ],
      "name": "AvatarCreated",
      "type": "event"
    },
    {
      "anonymous": false,
      "inputs": [
        {
          "indexed": true,
          "internalType": "address",
          "name": "oldFactory",
          "type": "address"
        },
        {
          "indexed": true,
          "internalType": "address",
          "name": "newFactory",
          "type": "address"
        }
      ],
      "name": "AvatarFactoryChanged",
      "type": "event"
    },
    {
      "anonymous": false,
      "inputs": [
        {
          "indexed": true,
          "internalType": "bytes32",
          "name": "role",
          "type": "bytes32"
        },
        {
          "indexed": true,
          "internalType": "bytes32",
          "name": "previousAdminRole",
          "type": "bytes32"
        },
        {
          "indexed": true,
          "internalType": "bytes32",
          "name": "newAdminRole",
          "type": "bytes32"
        }
      ],
      "name": "RoleAdminChanged",
      "type": "event"
    },
    {
      "anonymous": false,
      "inputs": [
        {
          "indexed": true,
          "internalType": "bytes32",
          "name": "role",
          "type": "bytes32"
        },
        {
          "indexed": true,
          "internalType": "address",
          "name": "account",
          "type": "address"
        },
        {
          "indexed": true,
          "internalType": "address",
          "name": "sender",
          "type": "address"
        }
      ],
      "name": "RoleGranted",
      "type": "event"
    },
    {
      "anonymous": false,
      "inputs": [
        {
          "indexed": true,
          "internalType": "bytes32",
          "name": "role",
          "type": "bytes32"
        },
        {
          "indexed": true,
          "internalType": "address",
          "name": "account",
          "type": "address"
        },
        {
          "indexed": true,
          "internalType": "address",
          "name": "sender",
          "type": "address"
        }
      ],
      "name": "RoleRevoked",
      "type": "event"
    },
    {
      "inputs": [],
      "name": "ADMIN_ROLE",
      "outputs": [
        {
          "internalType": "bytes32",
          "name": "",
          "type": "bytes32"
        }
      ],
      "stateMutability": "view",
      "type": "function"
    },
    {
      "inputs": [],
      "name": "DEFAULT_ADMIN_ROLE",
      "outputs": [
        {
          "internalType": "bytes32",
          "name": "",
          "type": "bytes32"
        }
      ],
      "stateMutability": "view",
      "type": "function"
    },
    {
      "inputs": [],
      "name": "avatarFactory",
      "outputs": [
        {
          "internalType": "contract IAvatarFactory",
          "name": "",
          "type": "address"
        }
      ],
      "stateMutability": "view",
      "type": "function"
    },
    {
      "inputs": [],
      "name": "currentAvatarVersion",
      "outputs": [
        {
          "internalType": "uint256",
          "name": "",
          "type": "uint256"
        }
      ],
      "stateMutability": "view",
      "type": "function"
    },
    {
      "inputs": [
        {
          "internalType": "string",
          "name": "username",
          "type": "string"
        }
      ],
      "name": "findByUsername",
      "outputs": [
        {
          "internalType": "address",
          "name": "",
          "type": "address"
        }
      ],
      "stateMutability": "view",
      "type": "function"
    },
    {
      "inputs": [
        {
          "internalType": "bytes32",
          "name": "role",
          "type": "bytes32"
        }
      ],
      "name": "getRoleAdmin",
      "outputs": [
        {
          "internalType": "bytes32",
          "name": "",
          "type": "bytes32"
        }
      ],
      "stateMutability": "view",
      "type": "function"
    },
    {
      "inputs": [
        {
          "internalType": "bytes32",
          "name": "role",
          "type": "bytes32"
        },
        {
          "internalType": "address",
          "name": "account",
          "type": "address"
        }
      ],
      "name": "grantRole",
      "outputs": [],
      "stateMutability": "nonpayable",
      "type": "function"
    },
    {
      "inputs": [
        {
          "internalType": "bytes32",
          "name": "role",
          "type": "bytes32"
        },
        {
          "internalType": "address",
          "name": "account",
          "type": "address"
        }
      ],
      "name": "hasRole",
      "outputs": [
        {
          "internalType": "bool",
          "name": "",
          "type": "bool"
        }
      ],
      "stateMutability": "view",
      "type": "function"
    },
    {
      "inputs": [
        {
          "internalType": "address",
          "name": "a",
          "type": "address"
        }
      ],
      "name": "isAvatar",
      "outputs": [
        {
          "internalType": "bool",
          "name": "",
          "type": "bool"
        }
      ],
      "stateMutability": "view",
      "type": "function"
    },
    {
      "inputs": [
        {
          "internalType": "string",
          "name": "username",
          "type": "string"
        }
      ],
      "name": "nameAvailable",
      "outputs": [
        {
          "internalType": "bool",
          "name": "",
          "type": "bool"
        }
      ],
      "stateMutability": "view",
      "type": "function"
    },
    {
      "inputs": [
        {
          "components": [
            {
              "internalType": "address",
              "name": "avatarOwner",
              "type": "address"
            },
            {
              "internalType": "address",
              "name": "defaultExperience",
              "type": "address"
            },
            {
              "internalType": "string",
              "name": "username",
              "type": "string"
            },
            {
              "internalType": "bytes",
              "name": "initData",
              "type": "bytes"
            }
          ],
          "internalType": "struct AvatarRegistrationRequest",
          "name": "registration",
          "type": "tuple"
        }
      ],
      "name": "registerAvatar",
      "outputs": [
        {
          "internalType": "address",
          "name": "proxy",
          "type": "address"
        }
      ],
      "stateMutability": "nonpayable",
      "type": "function"
    },
    {
      "inputs": [
        {
          "internalType": "bytes32",
          "name": "role",
          "type": "bytes32"
        },
        {
          "internalType": "address",
          "name": "callerConfirmation",
          "type": "address"
        }
      ],
      "name": "renounceRole",
      "outputs": [],
      "stateMutability": "nonpayable",
      "type": "function"
    },
    {
      "inputs": [
        {
          "internalType": "bytes32",
          "name": "role",
          "type": "bytes32"
        },
        {
          "internalType": "address",
          "name": "account",
          "type": "address"
        }
      ],
      "name": "revokeRole",
      "outputs": [],
      "stateMutability": "nonpayable",
      "type": "function"
    },
    {
      "inputs": [
        {
          "internalType": "address",
          "name": "factory",
          "type": "address"
        }
      ],
      "name": "setAvatarFactory",
      "outputs": [],
      "stateMutability": "nonpayable",
      "type": "function"
    },
    {
      "inputs": [
        {
          "internalType": "bytes4",
          "name": "interfaceId",
          "type": "bytes4"
        }
      ],
      "name": "supportsInterface",
      "outputs": [
        {
          "internalType": "bool",
          "name": "",
          "type": "bool"
        }
      ],
      "stateMutability": "view",
      "type": "function"
    },
    {
      "inputs": [
        {
          "internalType": "bytes",
          "name": "initData",
          "type": "bytes"
        }
      ],
      "name": "upgradeAvatar",
      "outputs": [
        {
          "internalType": "address",
          "name": "",
          "type": "address"
        }
      ],
      "stateMutability": "nonpayable",
      "type": "function"
    },
    {
      "inputs": [],
      "name": "worldRegistry",
      "outputs": [
        {
          "internalType": "contract IWorldRegistry",
          "name": "",
          "type": "address"
        }
      ],
      "stateMutability": "view",
      "type": "function"
    },
    {
      "stateMutability": "payable",
      "type": "receive"
    }
  ],
  "bytecode": "0x60806040523480156200001157600080fd5b50604051620016953803806200169583398101604081905262000034916200041c565b600160005580516001600160a01b0316620000ad5760405162461bcd60e51b815260206004820152602e60248201527f41766174617252656769737472793a206d61696e2061646d696e20616464726560448201526d073732063616e6e6f7420626520360941b60648201526084015b60405180910390fd5b8051620000bd90600090620002f4565b508051620000dc906000805160206200167583398151915290620002f4565b5060408101516001600160a01b03166200014d5760405162461bcd60e51b815260206004820152602b60248201527f41766174617252656769737472793a20666163746f727920616464726573732060448201526a063616e6e6f7420626520360ac1b6064820152608401620000a4565b60608101516001600160a01b0316620001c45760405162461bcd60e51b815260206004820152603260248201527f41766174617252656769737472793a20776f726c64207265676973747279206160448201527106464726573732063616e6e6f7420626520360741b6064820152608401620000a4565b6040810151600280546001600160a01b039283166001600160a01b03199182161790915560608301516003805491909316911617905560005b816020015151811015620002ec5760006001600160a01b0316826020015182815181106200022f576200022f6200053c565b60200260200101516001600160a01b031603620002a15760405162461bcd60e51b815260206004820152602960248201527f41766174617252656769737472793a2061646d696e206164647265737320636160448201526806e6e6f7420626520360bc1b6064820152608401620000a4565b620002e26000805160206200167583398151915283602001518381518110620002ce57620002ce6200053c565b6020026020010151620002f460201b60201c565b50600101620001fd565b505062000552565b60008281526001602090815260408083206001600160a01b038516845290915281205460ff16620003815760008381526001602081815260408084206001600160a01b0387168086529252808420805460ff19169093179092559051339286917f2f8788117e7eff1d82e926ec794901d17c78024a50270940304540a733656f0d9190a450600162000385565b5060005b92915050565b634e487b7160e01b600052604160045260246000fd5b604051608081016001600160401b0381118282101715620003c657620003c66200038b565b60405290565b604051601f8201601f191681016001600160401b0381118282101715620003f757620003f76200038b565b604052919050565b80516001600160a01b03811681146200041757600080fd5b919050565b600060208083850312156200043057600080fd5b82516001600160401b03808211156200044857600080fd5b90840190608082870312156200045d57600080fd5b62000467620003a1565b6200047283620003ff565b815283830151828111156200048657600080fd5b8301601f810188136200049857600080fd5b805183811115620004ad57620004ad6200038b565b8060051b9350620004c0868501620003cc565b818152938201860193868101908a861115620004db57600080fd5b928701925b858410156200050457620004f484620003ff565b82529287019290870190620004e0565b84880152506200051a91505060408401620003ff565b60408201526200052d60608401620003ff565b60608201529695505050505050565b634e487b7160e01b600052603260045260246000fd5b61111380620005626000396000f3fe6080604052600436106101025760003560e01c80637610bfcb11610095578063a217fddf11610064578063a217fddf146102f0578063ac3fa39c14610305578063ca1468df1461033e578063d547741f14610353578063e006d49b1461037357600080fd5b80637610bfcb1461027057806382bbdbec14610290578063911c2a8c146102b057806391d14854146102d057600080fd5b806336568abe116100d157806336568abe146101dc57806360e741e8146101fc578063612ca6211461021c57806375b238fc1461023c57600080fd5b806301ffc9a71461010e5780631042e64014610143578063248a9ca31461017b5780632f2ff15d146101ba57600080fd5b3661010957005b600080fd5b34801561011a57600080fd5b5061012e610129366004610c5c565b610393565b60405190151581526020015b60405180910390f35b34801561014f57600080fd5b5061016361015e366004610d5b565b6103ca565b6040516001600160a01b03909116815260200161013a565b34801561018757600080fd5b506101ac610196366004610d98565b6000908152600160208190526040909120015490565b60405190815260200161013a565b3480156101c657600080fd5b506101da6101d5366004610dc6565b610408565b005b3480156101e857600080fd5b506101da6101f7366004610dc6565b610434565b34801561020857600080fd5b50600254610163906001600160a01b031681565b34801561022857600080fd5b50610163610237366004610df6565b61046c565b34801561024857600080fd5b506101ac7fa49807205ce4d355092ef5a8a18f56e8913cf4a201fbe287825b095693c2177581565b34801561027c57600080fd5b5061016361028b366004610e68565b61055e565b34801561029c57600080fd5b5061012e6102ab366004610d5b565b6107ee565b3480156102bc57600080fd5b50600354610163906001600160a01b031681565b3480156102dc57600080fd5b5061012e6102eb366004610dc6565b610838565b3480156102fc57600080fd5b506101ac600081565b34801561031157600080fd5b5061012e610320366004610f36565b6001600160a01b031660009081526005602052604090205460ff1690565b34801561034a57600080fd5b506101ac610863565b34801561035f57600080fd5b506101da61036e366004610dc6565b6108d6565b34801561037f57600080fd5b506101da61038e366004610f36565b6108fc565b60006001600160e01b03198216637965db0b60e01b14806103c457506301ffc9a760e01b6001600160e01b03198316145b92915050565b6000806103d683610a43565b90506004816040516103e89190610f77565b908152604051908190036020019020546001600160a01b03169392505050565b6000828152600160208190526040909120015461042481610ab3565b61042e8383610ac0565b50505050565b6001600160a01b038116331461045d5760405163334bd91960e11b815260040160405180910390fd5b6104678282610b39565b505050565b3360009081526005602052604081205460ff166104e05760405162461bcd60e51b815260206004820152602760248201527f41766174617252656769737472793a2063616c6c6572206973206e6f7420616e6044820152661030bb30ba30b960c91b60648201526084015b60405180910390fd5b60025460405163180aef9960e01b81526001600160a01b039091169063180aef999061051490339087908790600401610f93565b6020604051808303816000875af1158015610533573d6000803e3d6000fd5b505050506040513d601f19601f820116820180604052508101906105579190610fd3565b9392505050565b600354604051637856879f60e11b81523360048201526000916001600160a01b03169063f0ad0f3e90602401602060405180830381865afa1580156105a7573d6000803e3d6000fd5b505050506040513d601f19601f820116820180604052508101906105cb9190610ff0565b6106255760405162461bcd60e51b815260206004820152602560248201527f41766174617252656769737472793a2063616c6c6572206973206e6f742061206044820152641ddbdc9b1960da1b60648201526084016104d7565b61062d610ba6565b600061063c8360400151610a43565b905060006001600160a01b03166004826040516106599190610f77565b908152604051908190036020019020546001600160a01b0316146106cf5760405162461bcd60e51b815260206004820152602760248201527f41766174617252656769737472793a20757365726e616d6520616c72656164796044820152662065786973747360c81b60648201526084016104d7565b6002548351602085015160408087015160608801519151633007c54560e01b81526001600160a01b0390951694633007c5459461071394909390929160040161103e565b6020604051808303816000875af1158015610732573d6000803e3d6000fd5b505050506040513d601f19601f820116820180604052508101906107569190610fd3565b9150816004826040516107699190610f77565b908152604080516020928190038301812080546001600160a01b0319166001600160a01b03958616179055858416600081815260058552928320805460ff19166001179055928701518751908516941692917fff93e7e87b4911fe8055b944f839e60a5190acb70047a6209ed39ea220ac352691a4506107e96001600055565b919050565b6000806107fa83610a43565b905060006001600160a01b03166004826040516108179190610f77565b908152604051908190036020019020546001600160a01b0316149392505050565b60009182526001602090815260408084206001600160a01b0393909316845291905290205460ff1690565b6002546040805163e921c27560e01b815290516000926001600160a01b03169163e921c2759160048083019260209291908290030181865afa1580156108ad573d6000803e3d6000fd5b505050506040513d601f19601f820116820180604052508101906108d19190611087565b905090565b600082815260016020819052604090912001546108f281610ab3565b61042e8383610b39565b6109267fa49807205ce4d355092ef5a8a18f56e8913cf4a201fbe287825b095693c2177533610838565b6109815760405162461bcd60e51b815260206004820152602660248201527f41766174617252656769737472793a2063616c6c6572206973206e6f7420616e6044820152651030b236b4b760d11b60648201526084016104d7565b6002546001600160a01b039081169082166109f25760405162461bcd60e51b815260206004820152602b60248201527f41766174617252656769737472793a20666163746f727920616464726573732060448201526a063616e6e6f7420626520360ac1b60648201526084016104d7565b600280546001600160a01b0319166001600160a01b0384811691821790925560405190918316907fd2f8229246ed45bf72b9749894f099e68d08d806ad4f29471c3cada88d5ae29190600090a35050565b60608160005b8151811015610aac57610a7b828281518110610a6757610a676110a0565b01602001516001600160f81b031916610bd0565b828281518110610a8d57610a8d6110a0565b60200101906001600160f81b031916908160001a905350600101610a49565b5092915050565b610abd8133610c1f565b50565b6000610acc8383610838565b610b315760008381526001602081815260408084206001600160a01b0387168086529252808420805460ff19169093179092559051339286917f2f8788117e7eff1d82e926ec794901d17c78024a50270940304540a733656f0d9190a45060016103c4565b5060006103c4565b6000610b458383610838565b15610b315760008381526001602090815260408083206001600160a01b0386168085529252808320805460ff1916905551339286917ff6391f5c32d9c69d2a47ea670b442974b53935d1edc7fd64eb21e047a839171b9190a45060016103c4565b600260005403610bc957604051633ee5aeb560e01b815260040160405180910390fd5b6002600055565b6000604160f81b6001600160f81b0319831610801590610bfe5750602d60f91b6001600160f81b0319831611155b15610c1b57610c1260f883901c60206110b6565b60f81b92915050565b5090565b610c298282610838565b610c585760405163e2517d3f60e01b81526001600160a01b0382166004820152602481018390526044016104d7565b5050565b600060208284031215610c6e57600080fd5b81356001600160e01b03198116811461055757600080fd5b634e487b7160e01b600052604160045260246000fd5b6040516080810167ffffffffffffffff81118282101715610cbf57610cbf610c86565b60405290565b600067ffffffffffffffff80841115610ce057610ce0610c86565b604051601f8501601f19908116603f01168101908282118183101715610d0857610d08610c86565b81604052809350858152868686011115610d2157600080fd5b858560208301376000602087830101525050509392505050565b600082601f830112610d4c57600080fd5b61055783833560208501610cc5565b600060208284031215610d6d57600080fd5b813567ffffffffffffffff811115610d8457600080fd5b610d9084828501610d3b565b949350505050565b600060208284031215610daa57600080fd5b5035919050565b6001600160a01b0381168114610abd57600080fd5b60008060408385031215610dd957600080fd5b823591506020830135610deb81610db1565b809150509250929050565b60008060208385031215610e0957600080fd5b823567ffffffffffffffff80821115610e2157600080fd5b818501915085601f830112610e3557600080fd5b813581811115610e4457600080fd5b866020828501011115610e5657600080fd5b60209290920196919550909350505050565b600060208284031215610e7a57600080fd5b813567ffffffffffffffff80821115610e9257600080fd5b9083019060808286031215610ea657600080fd5b610eae610c9c565b8235610eb981610db1565b81526020830135610ec981610db1565b6020820152604083013582811115610ee057600080fd5b610eec87828601610d3b565b604083015250606083013582811115610f0457600080fd5b80840193505085601f840112610f1957600080fd5b610f2886843560208601610cc5565b606082015295945050505050565b600060208284031215610f4857600080fd5b813561055781610db1565b60005b83811015610f6e578181015183820152602001610f56565b50506000910152565b60008251610f89818460208701610f53565b9190910192915050565b6001600160a01b03841681526040602082018190528101829052818360608301376000818301606090810191909152601f909201601f1916010192915050565b600060208284031215610fe557600080fd5b815161055781610db1565b60006020828403121561100257600080fd5b8151801515811461055757600080fd5b6000815180845261102a816020860160208601610f53565b601f01601f19169290920160200192915050565b6001600160a01b0385811682528416602082015260806040820181905260009061106a90830185611012565b828103606084015261107c8185611012565b979650505050505050565b60006020828403121561109957600080fd5b5051919050565b634e487b7160e01b600052603260045260246000fd5b60ff81811683821601908111156103c457634e487b7160e01b600052601160045260246000fdfea2646970667358221220e27faf260456c44841809182e01b7b995f4eafa67f25d2378cb6119f6a5f801164736f6c63430008180033a49807205ce4d355092ef5a8a18f56e8913cf4a201fbe287825b095693c21775",
  "linkReferences": {},
  "deployedLinkReferences": {}
}