{
  "_format": "hh-sol-artifact-1",
  "contractName": "AvatarRegistry",
  "sourceName": "contracts/avatar/registry/AvatarRegistry.sol",
  "abi": [
    {
      "inputs": [
        {
          "components": [
            {
              "internalType": "address",
              "name": "worldRegistry",
              "type": "address"
            }
          ],
          "internalType": "struct AvatarRegistryConstructorArgs",
          "name": "args",
          "type": "tuple"
        }
      ],
      "stateMutability": "nonpayable",
      "type": "constructor"
    },
    {
      "anonymous": false,
      "inputs": [
        {
          "indexed": true,
          "internalType": "address",
          "name": "entity",
          "type": "address"
        },
        {
          "indexed": true,
          "internalType": "address",
          "name": "owner",
          "type": "address"
        }
      ],
      "name": "RegistryAddedEntity",
      "type": "event"
    },
    {
      "inputs": [
        {
          "internalType": "address[]",
          "name": "signers",
          "type": "address[]"
        }
      ],
      "name": "addSigners",
      "outputs": [],
      "stateMutability": "nonpayable",
      "type": "function"
    },
    {
      "inputs": [
        {
          "internalType": "address",
          "name": "newOwner",
          "type": "address"
        }
      ],
      "name": "changeOwner",
      "outputs": [],
      "stateMutability": "nonpayable",
      "type": "function"
    },
    {
      "inputs": [
        {
          "components": [
            {
              "internalType": "bool",
              "name": "sendTokensToOwner",
              "type": "bool"
            },
            {
              "internalType": "address",
              "name": "startingExperience",
              "type": "address"
            },
            {
              "internalType": "address",
              "name": "owner",
              "type": "address"
            },
            {
              "internalType": "string",
              "name": "name",
              "type": "string"
            },
            {
              "internalType": "bytes",
              "name": "initData",
              "type": "bytes"
            }
          ],
          "internalType": "struct CreateAvatarArgs",
          "name": "args",
          "type": "tuple"
        }
      ],
      "name": "createAvatar",
      "outputs": [
        {
          "internalType": "address",
          "name": "",
          "type": "address"
        }
      ],
      "stateMutability": "payable",
      "type": "function"
    },
    {
      "inputs": [
        {
          "internalType": "string",
          "name": "name",
          "type": "string"
        }
      ],
      "name": "getEntityByName",
      "outputs": [
        {
          "internalType": "address",
          "name": "",
          "type": "address"
        }
      ],
      "stateMutability": "view",
      "type": "function"
    },
    {
      "inputs": [],
      "name": "getEntityImplementation",
      "outputs": [
        {
          "internalType": "address",
          "name": "",
          "type": "address"
        }
      ],
      "stateMutability": "view",
      "type": "function"
    },
    {
      "inputs": [],
      "name": "getEntityVersion",
      "outputs": [
        {
          "components": [
            {
              "internalType": "uint16",
              "name": "major",
              "type": "uint16"
            },
            {
              "internalType": "uint16",
              "name": "minor",
              "type": "uint16"
            }
          ],
          "internalType": "struct Version",
          "name": "",
          "type": "tuple"
        }
      ],
      "stateMutability": "view",
      "type": "function"
    },
    {
      "inputs": [],
      "name": "getProxyImplementation",
      "outputs": [
        {
          "internalType": "address",
          "name": "",
          "type": "address"
        }
      ],
      "stateMutability": "view",
      "type": "function"
    },
    {
      "inputs": [
        {
          "internalType": "bytes32",
          "name": "role",
          "type": "bytes32"
        },
        {
          "internalType": "address",
          "name": "account",
          "type": "address"
        }
      ],
      "name": "grantRole",
      "outputs": [],
      "stateMutability": "nonpayable",
      "type": "function"
    },
    {
      "inputs": [
        {
          "internalType": "bytes32",
          "name": "role",
          "type": "bytes32"
        },
        {
          "internalType": "address",
          "name": "account",
          "type": "address"
        }
      ],
      "name": "hasRole",
      "outputs": [
        {
          "internalType": "bool",
          "name": "",
          "type": "bool"
        }
      ],
      "stateMutability": "view",
      "type": "function"
    },
    {
      "inputs": [
        {
          "internalType": "address",
          "name": "account",
          "type": "address"
        }
      ],
      "name": "isAdmin",
      "outputs": [
        {
          "internalType": "bool",
          "name": "",
          "type": "bool"
        }
      ],
      "stateMutability": "view",
      "type": "function"
    },
    {
      "inputs": [
        {
          "internalType": "address",
          "name": "addr",
          "type": "address"
        }
      ],
      "name": "isRegistered",
      "outputs": [
        {
          "internalType": "bool",
          "name": "",
          "type": "bool"
        }
      ],
      "stateMutability": "view",
      "type": "function"
    },
    {
      "inputs": [
        {
          "internalType": "address",
          "name": "account",
          "type": "address"
        }
      ],
      "name": "isSigner",
      "outputs": [
        {
          "internalType": "bool",
          "name": "",
          "type": "bool"
        }
      ],
      "stateMutability": "view",
      "type": "function"
    },
    {
      "inputs": [],
      "name": "owner",
      "outputs": [
        {
          "internalType": "address",
          "name": "",
          "type": "address"
        }
      ],
      "stateMutability": "view",
      "type": "function"
    },
    {
      "inputs": [
        {
          "internalType": "address[]",
          "name": "signers",
          "type": "address[]"
        }
      ],
      "name": "removeSigners",
      "outputs": [],
      "stateMutability": "nonpayable",
      "type": "function"
    },
    {
      "inputs": [
        {
          "internalType": "bytes32",
          "name": "role",
          "type": "bytes32"
        },
        {
          "internalType": "address",
          "name": "account",
          "type": "address"
        }
      ],
      "name": "revokeRole",
      "outputs": [],
      "stateMutability": "nonpayable",
      "type": "function"
    },
    {
      "inputs": [
        {
          "internalType": "address",
          "name": "_entityImplementation",
          "type": "address"
        }
      ],
      "name": "setEntityImplementation",
      "outputs": [],
      "stateMutability": "nonpayable",
      "type": "function"
    },
    {
      "inputs": [
        {
          "internalType": "address",
          "name": "_proxyImplementation",
          "type": "address"
        }
      ],
      "name": "setProxyImplementation",
      "outputs": [],
      "stateMutability": "nonpayable",
      "type": "function"
    },
    {
      "inputs": [],
      "name": "version",
      "outputs": [
        {
          "components": [
            {
              "internalType": "uint16",
              "name": "major",
              "type": "uint16"
            },
            {
              "internalType": "uint16",
              "name": "minor",
              "type": "uint16"
            }
          ],
          "internalType": "struct Version",
          "name": "",
          "type": "tuple"
        }
      ],
      "stateMutability": "pure",
      "type": "function"
    },
    {
      "inputs": [],
      "name": "worldRegistry",
      "outputs": [
        {
          "internalType": "contract IWorldRegistry",
          "name": "",
          "type": "address"
        }
      ],
      "stateMutability": "view",
      "type": "function"
    }
  ],
  "bytecode": "0x60a060405234801561001057600080fd5b50604051611a07380380611a0783398101604081905261002f916100ac565b80516001600160a01b031661009a5760405162461bcd60e51b815260206004820152602760248201527f436f6d70616e7952656769737472793a20696e76616c696420776f726c6420726044820152666567697374727960c81b606482015260840160405180910390fd5b516001600160a01b0316608052610111565b6000602082840312156100be57600080fd5b604051602081016001600160401b03811182821017156100ee57634e487b7160e01b600052604160045260246000fd5b60405282516001600160a01b038116811461010857600080fd5b81529392505050565b6080516118d4610133600039600081816102b701526103d101526118d46000f3fe6080604052600436106101145760003560e01c80638da5cb5b116100a0578063a6f9dae111610064578063a6f9dae114610319578063c3c5a54714610339578063cdbe221114610359578063d547741f14610379578063e8906a2d1461039957600080fd5b80638da5cb5b1461027b57806390e4b72014610290578063911c2a8c146102a557806391d14854146102d95780639fdcd3a4146102f957600080fd5b806354fd4d50116100e757806354fd4d50146101bb5780635e04096214610211578063689c48f0146102265780637df73e271461023b5780638d361e431461025b57600080fd5b806304fb06ca1461011957806324d7806c146101495780632f2ff15d146101795780633e88a4e21461019b575b600080fd5b61012c6101273660046114c7565b6103b9565b6040516001600160a01b0390911681526020015b60405180910390f35b34801561015557600080fd5b5061016961016436600461151a565b61094a565b6040519015158152602001610140565b34801561018557600080fd5b50610199610194366004611537565b6109d0565b005b3480156101a757600080fd5b5061012c6101b6366004611567565b610ad6565b3480156101c757600080fd5b5060408051808201825260008082526020918201819052825180840190935260018352908201525b60408051825161ffff9081168252602093840151169281019290925201610140565b34801561021d57600080fd5b506101ef610b5a565b34801561023257600080fd5b5061012c610bdf565b34801561024757600080fd5b5061016961025636600461151a565b610c4e565b34801561026757600080fd5b506101996102763660046115d9565b610c91565b34801561028757600080fd5b5061012c610d59565b34801561029c57600080fd5b5061012c610da4565b3480156102b157600080fd5b5061012c7f000000000000000000000000000000000000000000000000000000000000000081565b3480156102e557600080fd5b506101696102f4366004611537565b610def565b34801561030557600080fd5b5061019961031436600461151a565b610e75565b34801561032557600080fd5b5061019961033436600461151a565b610f73565b34801561034557600080fd5b5061016961035436600461151a565b611080565b34801561036557600080fd5b5061019961037436600461151a565b6110c3565b34801561038557600080fd5b50610199610394366004611537565b611192565b3480156103a557600080fd5b506101996103b43660046115d9565b611268565b60405163c3c5a54760e01b81523360048201526000907f00000000000000000000000000000000000000000000000000000000000000006001600160a01b03169063c3c5a54790602401602060405180830381865afa158015610420573d6000803e3d6000fd5b505050506040513d601f19601f82011682018060405250810190610444919061164a565b6104a35760405162461bcd60e51b815260206004820152602560248201527f436f6d70616e7952656769737472793a20776f726c64206e6f742072656769736044820152641d195c995960da1b60648201526084015b60405180910390fd5b336001600160a01b03166386b70bed6040518163ffffffff1660e01b8152600401602060405180830381865afa1580156104e1573d6000803e3d6000fd5b505050506040513d601f19601f82011682018060405250810190610505919061164a565b61055b5760405162461bcd60e51b815260206004820152602160248201527f436f6d70616e7952656769737472793a20776f726c64206e6f742061637469766044820152606560f81b606482015260840161049a565b6000610565611330565b80549091506001600160a01b03166105d95760405162461bcd60e51b815260206004820152603160248201527f417661746172526567697374726174696f6e3a20656e7469747920696d706c656044820152701b595b9d185d1a5bdb881b9bdd081cd95d607a1b606482015260840161049a565b60018101546001600160a01b031661064c5760405162461bcd60e51b815260206004820152603060248201527f417661746172526567697374726174696f6e3a2070726f787920696d706c656d60448201526f195b9d185d1a5bdb881b9bdd081cd95d60821b606482015260840161049a565b6001810154600090610666906001600160a01b03166113c6565b90506001600160a01b0381166106cf5760405162461bcd60e51b815260206004820152602860248201527f417661746172526567697374726174696f6e3a2070726f787920636c6f6e696e60448201526719c819985a5b195960c21b606482015260840161049a565b8154604051636bc26a1360e11b81526001600160a01b0391821660048201529082169063d784d42690602401600060405180830381600087803b15801561071557600080fd5b505af1158015610729573d6000803e3d6000fd5b5060009250610741915050604086016020870161151a565b6001600160a01b0316036107b05760405162461bcd60e51b815260206004820152603060248201527f417661746172526567697374726174696f6e3a207374617274696e672065787060448201526f195c9a595b98d9481c995c5d5a5c995960821b606482015260840161049a565b6001600160a01b03811663ac4d00616107cc6060870187611667565b6107dc6060890160408a0161151a565b6107ec60408a0160208b0161151a565b6107f960808b018b611667565b6040518763ffffffff1660e01b815260040161081a969594939291906116de565b600060405180830381600087803b15801561083457600080fd5b505af1158015610848573d6000803e3d6000fd5b5050505061085581611487565b34156108f2576108686020850185611729565b156108bb5761087d606085016040860161151a565b6001600160a01b03166108fc349081150290604051600060405180830381858888f193505050501580156108b5573d6000803e3d6000fd5b506108f2565b6040516001600160a01b038216903480156108fc02916000818181858888f193505050501580156108f0573d6000803e3d6000fd5b505b610902606085016040860161151a565b6001600160a01b0316816001600160a01b03167f7377123f9eb561d749cd3a89a83c22035cad6473521acbb981ee1c52d8f0248560405160405180910390a39150505b919050565b604051630935e01b60e21b81526001600160a01b038216600482015260009073__$a5a42e46683ad9c79b7b86d5ff60fdf4c1$__906324d7806c906024015b602060405180830381865af41580156109a6573d6000803e3d6000fd5b505050506040513d601f19601f820116820180604052508101906109ca919061164a565b92915050565b604051630935e01b60e21b815233600482015273__$a5a42e46683ad9c79b7b86d5ff60fdf4c1$__906324d7806c90602401602060405180830381865af4158015610a1f573d6000803e3d6000fd5b505050506040513d601f19601f82011682018060405250810190610a43919061164a565b610a5f5760405162461bcd60e51b815260040161049a90611746565b604051632f2ff15d60e01b8152600481018390526001600160a01b038216602482015273__$a5a42e46683ad9c79b7b86d5ff60fdf4c1$__90632f2ff15d906044015b60006040518083038186803b158015610aba57600080fd5b505af4158015610ace573d6000803e3d6000fd5b505050505050565b604051631f44527160e11b815260009073__$d81eab81c4f96e94de97b51155a369ac43$__90633e88a4e290610b12908690869060040161177b565b602060405180830381865af4158015610b2f573d6000803e3d6000fd5b505050506040513d601f19601f82011682018060405250810190610b539190611797565b9392505050565b604080518082019091526000808252602082015273__$e1fef5d4b1bfc4a605b7eb127c84f71416$__635e0409626040518163ffffffff1660e01b81526004016040805180830381865af4158015610bb6573d6000803e3d6000fd5b505050506040513d601f19601f82011682018060405250810190610bda91906117c6565b905090565b600073__$e1fef5d4b1bfc4a605b7eb127c84f71416$__63689c48f06040518163ffffffff1660e01b8152600401602060405180830381865af4158015610c2a573d6000803e3d6000fd5b505050506040513d601f19601f82011682018060405250810190610bda9190611797565b604051637df73e2760e01b81526001600160a01b038216600482015260009073__$a5a42e46683ad9c79b7b86d5ff60fdf4c1$__90637df73e2790602401610989565b604051630935e01b60e21b815233600482015273__$a5a42e46683ad9c79b7b86d5ff60fdf4c1$__906324d7806c90602401602060405180830381865af4158015610ce0573d6000803e3d6000fd5b505050506040513d601f19601f82011682018060405250810190610d04919061164a565b610d205760405162461bcd60e51b815260040161049a90611746565b604051638d361e4360e01b815273__$a5a42e46683ad9c79b7b86d5ff60fdf4c1$__90638d361e4390610aa2908590859060040161182f565b600073__$a5a42e46683ad9c79b7b86d5ff60fdf4c1$__638da5cb5b6040518163ffffffff1660e01b8152600401602060405180830381865af4158015610c2a573d6000803e3d6000fd5b600073__$e1fef5d4b1bfc4a605b7eb127c84f71416$__6390e4b7206040518163ffffffff1660e01b8152600401602060405180830381865af4158015610c2a573d6000803e3d6000fd5b604051632474521560e21b8152600481018390526001600160a01b038216602482015260009073__$a5a42e46683ad9c79b7b86d5ff60fdf4c1$__906391d1485490604401602060405180830381865af4158015610e51573d6000803e3d6000fd5b505050506040513d601f19601f82011682018060405250810190610b53919061164a565b604051630935e01b60e21b815233600482015273__$a5a42e46683ad9c79b7b86d5ff60fdf4c1$__906324d7806c90602401602060405180830381865af4158015610ec4573d6000803e3d6000fd5b505050506040513d601f19601f82011682018060405250810190610ee8919061164a565b610f045760405162461bcd60e51b815260040161049a90611746565b6040516327f734e960e21b81526001600160a01b038216600482015273__$e1fef5d4b1bfc4a605b7eb127c84f71416$__90639fdcd3a4906024015b60006040518083038186803b158015610f5857600080fd5b505af4158015610f6c573d6000803e3d6000fd5b5050505050565b336001600160a01b031673__$a5a42e46683ad9c79b7b86d5ff60fdf4c1$__638da5cb5b6040518163ffffffff1660e01b8152600401602060405180830381865af4158015610fc6573d6000803e3d6000fd5b505050506040513d601f19601f82011682018060405250810190610fea9190611797565b6001600160a01b0316146110405760405162461bcd60e51b815260206004820152601f60248201527f426173654163636573733a207265737472696374656420746f206f776e657200604482015260640161049a565b6040516313af403560e01b81526001600160a01b038216600482015273__$a5a42e46683ad9c79b7b86d5ff60fdf4c1$__906313af403590602401610f40565b60405163c3c5a54760e01b81526001600160a01b038216600482015260009073__$d81eab81c4f96e94de97b51155a369ac43$__9063c3c5a54790602401610989565b604051630935e01b60e21b815233600482015273__$a5a42e46683ad9c79b7b86d5ff60fdf4c1$__906324d7806c90602401602060405180830381865af4158015611112573d6000803e3d6000fd5b505050506040513d601f19601f82011682018060405250810190611136919061164a565b6111525760405162461bcd60e51b815260040161049a90611746565b60405163cdbe221160e01b81526001600160a01b038216600482015273__$e1fef5d4b1bfc4a605b7eb127c84f71416$__9063cdbe221190602401610f40565b604051630935e01b60e21b815233600482015273__$a5a42e46683ad9c79b7b86d5ff60fdf4c1$__906324d7806c90602401602060405180830381865af41580156111e1573d6000803e3d6000fd5b505050506040513d601f19601f82011682018060405250810190611205919061164a565b6112215760405162461bcd60e51b815260040161049a90611746565b60405163d547741f60e01b8152600481018390526001600160a01b038216602482015273__$a5a42e46683ad9c79b7b86d5ff60fdf4c1$__9063d547741f90604401610aa2565b604051630935e01b60e21b815233600482015273__$a5a42e46683ad9c79b7b86d5ff60fdf4c1$__906324d7806c90602401602060405180830381865af41580156112b7573d6000803e3d6000fd5b505050506040513d601f19601f820116820180604052508101906112db919061164a565b6112f75760405162461bcd60e51b815260040161049a90611746565b60405163e8906a2d60e01b815273__$a5a42e46683ad9c79b7b86d5ff60fdf4c1$__9063e8906a2d90610aa2908590859060040161182f565b60408051808201909152601c81527f78722e656e746974792e666163746f72792e73746f726167652e76310000000060209091015260008060ff61139560017f8b4ac7cd4466ab0d50fe53a88c5446ca4a450d482bef9ad792e7d9f451497e0f61187d565b6040516020016113a791815260200190565b60408051601f1981840301815291905280516020909101201692915050565b60006001600160a01b0382166114365760405162461bcd60e51b815260206004820152602f60248201527f4c6962436c6f6e653a20696d706c656d656e746174696f6e2063616e6e6f742060448201526e6265207a65726f206164647265737360881b606482015260840161049a565b60008260601b9050604051733d602d80600a3d3981f3363d3d373d3d3d363d7360601b81528160148201526e5af43d82803e903d91602b57fd5bf360881b60288201526037816000f0949350505050565b60405163750f981960e11b81526001600160a01b038216600482015273__$d81eab81c4f96e94de97b51155a369ac43$__9063ea1f303290602401610f40565b6000602082840312156114d957600080fd5b813567ffffffffffffffff8111156114f057600080fd5b820160a08185031215610b5357600080fd5b6001600160a01b038116811461151757600080fd5b50565b60006020828403121561152c57600080fd5b8135610b5381611502565b6000806040838503121561154a57600080fd5b82359150602083013561155c81611502565b809150509250929050565b6000806020838503121561157a57600080fd5b823567ffffffffffffffff8082111561159257600080fd5b818501915085601f8301126115a657600080fd5b8135818111156115b557600080fd5b8660208285010111156115c757600080fd5b60209290920196919550909350505050565b600080602083850312156115ec57600080fd5b823567ffffffffffffffff8082111561160457600080fd5b818501915085601f83011261161857600080fd5b81358181111561162757600080fd5b8660208260051b85010111156115c757600080fd5b801515811461151757600080fd5b60006020828403121561165c57600080fd5b8151610b538161163c565b6000808335601e1984360301811261167e57600080fd5b83018035915067ffffffffffffffff82111561169957600080fd5b6020019150368190038213156116ae57600080fd5b9250929050565b81835281816020850137506000828201602090810191909152601f909101601f19169091010190565b6080815260006116f260808301888a6116b5565b6001600160a01b03878116602085015286166040840152828103606084015261171c8185876116b5565b9998505050505050505050565b60006020828403121561173b57600080fd5b8135610b538161163c565b6020808252818101527f426173654163636573733a207265737472696374656420746f2061646d696e73604082015260600190565b60208152600061178f6020830184866116b5565b949350505050565b6000602082840312156117a957600080fd5b8151610b5381611502565b805161ffff8116811461094557600080fd5b6000604082840312156117d857600080fd5b6040516040810181811067ffffffffffffffff8211171561180957634e487b7160e01b600052604160045260246000fd5b604052611815836117b4565b8152611823602084016117b4565b60208201529392505050565b60208082528181018390526000908460408401835b8681101561187257823561185781611502565b6001600160a01b031682529183019190830190600101611844565b509695505050505050565b818103818111156109ca57634e487b7160e01b600052601160045260246000fdfea26469706673582212204063bbb3ca7d6b853fa7e6f7d5c9b0d878e4bf7e9f53a5540d2259a28fc94f1864736f6c63430008180033",
  "linkReferences": {
    "contracts/libraries/LibAccess.sol": {
      "LibAccess": [
        {
          "length": 20,
          "start": 2718
        },
        {
          "length": 20,
          "start": 2840
        },
        {
          "length": 20,
          "start": 2999
        },
        {
          "length": 20,
          "start": 3490
        },
        {
          "length": 20,
          "start": 3545
        },
        {
          "length": 20,
          "start": 3682
        },
        {
          "length": 20,
          "start": 3728
        },
        {
          "length": 20,
          "start": 3914
        },
        {
          "length": 20,
          "start": 4029
        },
        {
          "length": 20,
          "start": 4274
        },
        {
          "length": 20,
          "start": 4497
        },
        {
          "length": 20,
          "start": 4619
        },
        {
          "length": 20,
          "start": 4826
        },
        {
          "length": 20,
          "start": 4985
        },
        {
          "length": 20,
          "start": 5040
        },
        {
          "length": 20,
          "start": 5177
        }
      ]
    },
    "contracts/libraries/LibFactory.sol": {
      "LibFactory": [
        {
          "length": 20,
          "start": 3235
        },
        {
          "length": 20,
          "start": 3350
        },
        {
          "length": 20,
          "start": 3803
        },
        {
          "length": 20,
          "start": 4181
        },
        {
          "length": 20,
          "start": 4771
        }
      ]
    },
    "contracts/libraries/LibRegistration.sol": {
      "LibRegistration": [
        {
          "length": 20,
          "start": 3099
        },
        {
          "length": 20,
          "start": 4564
        },
        {
          "length": 20,
          "start": 5592
        }
      ]
    }
  },
  "deployedLinkReferences": {
    "contracts/libraries/LibAccess.sol": {
      "LibAccess": [
        {
          "length": 20,
          "start": 2411
        },
        {
          "length": 20,
          "start": 2533
        },
        {
          "length": 20,
          "start": 2692
        },
        {
          "length": 20,
          "start": 3183
        },
        {
          "length": 20,
          "start": 3238
        },
        {
          "length": 20,
          "start": 3375
        },
        {
          "length": 20,
          "start": 3421
        },
        {
          "length": 20,
          "start": 3607
        },
        {
          "length": 20,
          "start": 3722
        },
        {
          "length": 20,
          "start": 3967
        },
        {
          "length": 20,
          "start": 4190
        },
        {
          "length": 20,
          "start": 4312
        },
        {
          "length": 20,
          "start": 4519
        },
        {
          "length": 20,
          "start": 4678
        },
        {
          "length": 20,
          "start": 4733
        },
        {
          "length": 20,
          "start": 4870
        }
      ]
    },
    "contracts/libraries/LibFactory.sol": {
      "LibFactory": [
        {
          "length": 20,
          "start": 2928
        },
        {
          "length": 20,
          "start": 3043
        },
        {
          "length": 20,
          "start": 3496
        },
        {
          "length": 20,
          "start": 3874
        },
        {
          "length": 20,
          "start": 4464
        }
      ]
    },
    "contracts/libraries/LibRegistration.sol": {
      "LibRegistration": [
        {
          "length": 20,
          "start": 2792
        },
        {
          "length": 20,
          "start": 4257
        },
        {
          "length": 20,
          "start": 5285
        }
      ]
    }
  }
}