{
  "_format": "hh-sol-artifact-1",
  "contractName": "Avatar",
  "sourceName": "contracts/avatar/Avatar.sol",
  "abi": [
    {
      "inputs": [
        {
          "components": [
            {
              "internalType": "address",
              "name": "avatarFactory",
              "type": "address"
            },
            {
              "internalType": "address",
              "name": "avatarRegistry",
              "type": "address"
            },
            {
              "internalType": "address",
              "name": "experienceRegistry",
              "type": "address"
            },
            {
              "internalType": "address",
              "name": "portalRegistry",
              "type": "address"
            },
            {
              "internalType": "address",
              "name": "companyRegistry",
              "type": "address"
            },
            {
              "internalType": "address",
              "name": "multiAssetRegistry",
              "type": "address"
            }
          ],
          "internalType": "struct BaseContructorArgs",
          "name": "args",
          "type": "tuple"
        }
      ],
      "stateMutability": "nonpayable",
      "type": "constructor"
    },
    {
      "inputs": [],
      "name": "ECDSAInvalidSignature",
      "type": "error"
    },
    {
      "inputs": [
        {
          "internalType": "uint256",
          "name": "length",
          "type": "uint256"
        }
      ],
      "name": "ECDSAInvalidSignatureLength",
      "type": "error"
    },
    {
      "inputs": [
        {
          "internalType": "bytes32",
          "name": "s",
          "type": "bytes32"
        }
      ],
      "name": "ECDSAInvalidSignatureS",
      "type": "error"
    },
    {
      "inputs": [],
      "name": "ReentrancyGuardReentrantCall",
      "type": "error"
    },
    {
      "anonymous": false,
      "inputs": [
        {
          "indexed": true,
          "internalType": "bytes",
          "name": "appearanceDetails",
          "type": "bytes"
        }
      ],
      "name": "AppearanceChanged",
      "type": "event"
    },
    {
      "anonymous": false,
      "inputs": [
        {
          "indexed": true,
          "internalType": "address",
          "name": "oldVersion",
          "type": "address"
        },
        {
          "indexed": true,
          "internalType": "address",
          "name": "nextVersion",
          "type": "address"
        }
      ],
      "name": "AvatarUpgraded",
      "type": "event"
    },
    {
      "anonymous": false,
      "inputs": [],
      "name": "HookRemoved",
      "type": "event"
    },
    {
      "anonymous": false,
      "inputs": [
        {
          "indexed": false,
          "internalType": "address",
          "name": "hook",
          "type": "address"
        }
      ],
      "name": "HookSet",
      "type": "event"
    },
    {
      "anonymous": false,
      "inputs": [
        {
          "indexed": true,
          "internalType": "address",
          "name": "experience",
          "type": "address"
        },
        {
          "indexed": true,
          "internalType": "uint256",
          "name": "fee",
          "type": "uint256"
        },
        {
          "indexed": false,
          "internalType": "bytes",
          "name": "connectionDetails",
          "type": "bytes"
        }
      ],
      "name": "JumpSuccess",
      "type": "event"
    },
    {
      "anonymous": false,
      "inputs": [
        {
          "indexed": true,
          "internalType": "address",
          "name": "location",
          "type": "address"
        }
      ],
      "name": "LocationChanged",
      "type": "event"
    },
    {
      "anonymous": false,
      "inputs": [
        {
          "indexed": true,
          "internalType": "address",
          "name": "signer",
          "type": "address"
        }
      ],
      "name": "SignerAdded",
      "type": "event"
    },
    {
      "anonymous": false,
      "inputs": [
        {
          "indexed": true,
          "internalType": "address",
          "name": "signer",
          "type": "address"
        }
      ],
      "name": "SignerRemoved",
      "type": "event"
    },
    {
      "anonymous": false,
      "inputs": [
        {
          "indexed": true,
          "internalType": "address",
          "name": "wearable",
          "type": "address"
        },
        {
          "indexed": false,
          "internalType": "uint256",
          "name": "tokenId",
          "type": "uint256"
        }
      ],
      "name": "WearableAdded",
      "type": "event"
    },
    {
      "anonymous": false,
      "inputs": [
        {
          "indexed": true,
          "internalType": "address",
          "name": "wearable",
          "type": "address"
        },
        {
          "indexed": false,
          "internalType": "uint256",
          "name": "tokenId",
          "type": "uint256"
        }
      ],
      "name": "WearableRemoved",
      "type": "event"
    },
    {
      "inputs": [
        {
          "components": [
            {
              "internalType": "address",
              "name": "asset",
              "type": "address"
            },
            {
              "internalType": "uint256",
              "name": "tokenId",
              "type": "uint256"
            }
          ],
          "internalType": "struct Wearable",
          "name": "wearable",
          "type": "tuple"
        }
      ],
      "name": "addWearable",
      "outputs": [],
      "stateMutability": "nonpayable",
      "type": "function"
    },
    {
      "inputs": [],
      "name": "appearanceDetails",
      "outputs": [
        {
          "internalType": "bytes",
          "name": "",
          "type": "bytes"
        }
      ],
      "stateMutability": "view",
      "type": "function"
    },
    {
      "inputs": [],
      "name": "assetRegistry",
      "outputs": [
        {
          "internalType": "contract IMultiAssetRegistry",
          "name": "",
          "type": "address"
        }
      ],
      "stateMutability": "view",
      "type": "function"
    },
    {
      "inputs": [],
      "name": "avatarFactory",
      "outputs": [
        {
          "internalType": "address",
          "name": "",
          "type": "address"
        }
      ],
      "stateMutability": "view",
      "type": "function"
    },
    {
      "inputs": [],
      "name": "avatarOwnerSigningNonce",
      "outputs": [
        {
          "internalType": "uint256",
          "name": "",
          "type": "uint256"
        }
      ],
      "stateMutability": "view",
      "type": "function"
    },
    {
      "inputs": [],
      "name": "avatarRegistry",
      "outputs": [
        {
          "internalType": "contract IAvatarRegistry",
          "name": "",
          "type": "address"
        }
      ],
      "stateMutability": "view",
      "type": "function"
    },
    {
      "inputs": [
        {
          "components": [
            {
              "internalType": "address",
              "name": "asset",
              "type": "address"
            },
            {
              "internalType": "uint256",
              "name": "tokenId",
              "type": "uint256"
            }
          ],
          "internalType": "struct Wearable",
          "name": "wearable",
          "type": "tuple"
        }
      ],
      "name": "canAddWearable",
      "outputs": [
        {
          "internalType": "bool",
          "name": "",
          "type": "bool"
        }
      ],
      "stateMutability": "view",
      "type": "function"
    },
    {
      "inputs": [],
      "name": "canReceiveTokensOutsideOfExperience",
      "outputs": [
        {
          "internalType": "bool",
          "name": "",
          "type": "bool"
        }
      ],
      "stateMutability": "view",
      "type": "function"
    },
    {
      "inputs": [],
      "name": "companyRegistry",
      "outputs": [
        {
          "internalType": "contract ICompanyRegistry",
          "name": "",
          "type": "address"
        }
      ],
      "stateMutability": "view",
      "type": "function"
    },
    {
      "inputs": [
        {
          "internalType": "address",
          "name": "company",
          "type": "address"
        }
      ],
      "name": "companySigningNonce",
      "outputs": [
        {
          "internalType": "uint256",
          "name": "",
          "type": "uint256"
        }
      ],
      "stateMutability": "view",
      "type": "function"
    },
    {
      "inputs": [
        {
          "components": [
            {
              "internalType": "uint256",
              "name": "portalId",
              "type": "uint256"
            },
            {
              "internalType": "uint256",
              "name": "agreedFee",
              "type": "uint256"
            },
            {
              "internalType": "bytes",
              "name": "avatarOwnerSignature",
              "type": "bytes"
            }
          ],
          "internalType": "struct DelegatedJumpRequest",
          "name": "request",
          "type": "tuple"
        }
      ],
      "name": "delegateJump",
      "outputs": [],
      "stateMutability": "payable",
      "type": "function"
    },
    {
      "inputs": [
        {
          "components": [
            {
              "internalType": "bool",
              "name": "canReceiveTokensOutsideOfExperience",
              "type": "bool"
            },
            {
              "internalType": "bytes",
              "name": "appearanceDetails",
              "type": "bytes"
            }
          ],
          "internalType": "struct AvatarInitData",
          "name": "data",
          "type": "tuple"
        }
      ],
      "name": "encodeInitData",
      "outputs": [
        {
          "internalType": "bytes",
          "name": "",
          "type": "bytes"
        }
      ],
      "stateMutability": "pure",
      "type": "function"
    },
    {
      "inputs": [],
      "name": "experienceRegistry",
      "outputs": [
        {
          "internalType": "contract IExperienceRegistry",
          "name": "",
          "type": "address"
        }
      ],
      "stateMutability": "view",
      "type": "function"
    },
    {
      "inputs": [],
      "name": "getWearables",
      "outputs": [
        {
          "components": [
            {
              "internalType": "address",
              "name": "asset",
              "type": "address"
            },
            {
              "internalType": "uint256",
              "name": "tokenId",
              "type": "uint256"
            }
          ],
          "internalType": "struct Wearable[]",
          "name": "",
          "type": "tuple[]"
        }
      ],
      "stateMutability": "view",
      "type": "function"
    },
    {
      "inputs": [],
      "name": "hook",
      "outputs": [
        {
          "internalType": "address",
          "name": "",
          "type": "address"
        }
      ],
      "stateMutability": "view",
      "type": "function"
    },
    {
      "inputs": [
        {
          "internalType": "address",
          "name": "_owner",
          "type": "address"
        },
        {
          "internalType": "address",
          "name": "defaultExperience",
          "type": "address"
        },
        {
          "internalType": "string",
          "name": "_name",
          "type": "string"
        },
        {
          "internalType": "bytes",
          "name": "initData",
          "type": "bytes"
        }
      ],
      "name": "init",
      "outputs": [],
      "stateMutability": "nonpayable",
      "type": "function"
    },
    {
      "inputs": [
        {
          "components": [
            {
              "internalType": "address",
              "name": "asset",
              "type": "address"
            },
            {
              "internalType": "uint256",
              "name": "tokenId",
              "type": "uint256"
            }
          ],
          "internalType": "struct Wearable",
          "name": "wearable",
          "type": "tuple"
        }
      ],
      "name": "isWearing",
      "outputs": [
        {
          "internalType": "bool",
          "name": "",
          "type": "bool"
        }
      ],
      "stateMutability": "view",
      "type": "function"
    },
    {
      "inputs": [
        {
          "components": [
            {
              "internalType": "uint256",
              "name": "portalId",
              "type": "uint256"
            },
            {
              "internalType": "uint256",
              "name": "agreedFee",
              "type": "uint256"
            },
            {
              "internalType": "bytes",
              "name": "destinationCompanySignature",
              "type": "bytes"
            }
          ],
          "internalType": "struct AvatarJumpRequest",
          "name": "request",
          "type": "tuple"
        }
      ],
      "name": "jump",
      "outputs": [],
      "stateMutability": "payable",
      "type": "function"
    },
    {
      "inputs": [],
      "name": "location",
      "outputs": [
        {
          "internalType": "contract IExperience",
          "name": "",
          "type": "address"
        }
      ],
      "stateMutability": "view",
      "type": "function"
    },
    {
      "inputs": [
        {
          "internalType": "address",
          "name": "",
          "type": "address"
        },
        {
          "internalType": "address",
          "name": "",
          "type": "address"
        },
        {
          "internalType": "uint256",
          "name": "tokenId",
          "type": "uint256"
        },
        {
          "internalType": "bytes",
          "name": "",
          "type": "bytes"
        }
      ],
      "name": "onERC721Received",
      "outputs": [
        {
          "internalType": "bytes4",
          "name": "",
          "type": "bytes4"
        }
      ],
      "stateMutability": "nonpayable",
      "type": "function"
    },
    {
      "inputs": [
        {
          "internalType": "uint256",
          "name": "tokenId",
          "type": "uint256"
        }
      ],
      "name": "onERC721Revoked",
      "outputs": [],
      "stateMutability": "nonpayable",
      "type": "function"
    },
    {
      "inputs": [],
      "name": "owner",
      "outputs": [
        {
          "internalType": "address",
          "name": "",
          "type": "address"
        }
      ],
      "stateMutability": "view",
      "type": "function"
    },
    {
      "inputs": [],
      "name": "portalRegistry",
      "outputs": [
        {
          "internalType": "contract IPortalRegistry",
          "name": "",
          "type": "address"
        }
      ],
      "stateMutability": "view",
      "type": "function"
    },
    {
      "inputs": [],
      "name": "removeHook",
      "outputs": [],
      "stateMutability": "nonpayable",
      "type": "function"
    },
    {
      "inputs": [
        {
          "components": [
            {
              "internalType": "address",
              "name": "asset",
              "type": "address"
            },
            {
              "internalType": "uint256",
              "name": "tokenId",
              "type": "uint256"
            }
          ],
          "internalType": "struct Wearable",
          "name": "wearable",
          "type": "tuple"
        }
      ],
      "name": "removeWearable",
      "outputs": [],
      "stateMutability": "nonpayable",
      "type": "function"
    },
    {
      "inputs": [
        {
          "internalType": "bytes",
          "name": "details",
          "type": "bytes"
        }
      ],
      "name": "setAppearanceDetails",
      "outputs": [],
      "stateMutability": "nonpayable",
      "type": "function"
    },
    {
      "inputs": [
        {
          "internalType": "bool",
          "name": "canReceive",
          "type": "bool"
        }
      ],
      "name": "setCanReceiveTokensOutsideOfExperience",
      "outputs": [],
      "stateMutability": "nonpayable",
      "type": "function"
    },
    {
      "inputs": [
        {
          "internalType": "address",
          "name": "_hook",
          "type": "address"
        }
      ],
      "name": "setHook",
      "outputs": [],
      "stateMutability": "nonpayable",
      "type": "function"
    },
    {
      "inputs": [
        {
          "internalType": "bytes",
          "name": "initData",
          "type": "bytes"
        }
      ],
      "name": "upgrade",
      "outputs": [],
      "stateMutability": "nonpayable",
      "type": "function"
    },
    {
      "inputs": [
        {
          "internalType": "address",
          "name": "nextVersion",
          "type": "address"
        }
      ],
      "name": "upgradeComplete",
      "outputs": [],
      "stateMutability": "nonpayable",
      "type": "function"
    },
    {
      "inputs": [],
      "name": "username",
      "outputs": [
        {
          "internalType": "string",
          "name": "",
          "type": "string"
        }
      ],
      "stateMutability": "view",
      "type": "function"
    },
    {
      "inputs": [],
      "name": "version",
      "outputs": [
        {
          "internalType": "uint256",
          "name": "",
          "type": "uint256"
        }
      ],
      "stateMutability": "view",
      "type": "function"
    },
    {
      "inputs": [
        {
          "internalType": "uint256",
          "name": "amount",
          "type": "uint256"
        }
      ],
      "name": "withdraw",
      "outputs": [],
      "stateMutability": "nonpayable",
      "type": "function"
    },
    {
      "stateMutability": "payable",
      "type": "receive"
    }
  ],
  "bytecode": "0x6101406040523480156200001257600080fd5b5060405162003f4f38038062003f4f833981016040819052620000359162000367565b600160005580516001600160a01b0316620000ad5760405162461bcd60e51b815260206004820152602d60248201527f4176617461723a2061766174617220666163746f72792063616e6e6f7420626560448201526c207a65726f206164647265737360981b60648201526084015b60405180910390fd5b60408101516001600160a01b0316620001245760405162461bcd60e51b815260206004820152603260248201527f4176617461723a20657870657269656e63652072656769737472792063616e6e6044820152716f74206265207a65726f206164647265737360701b6064820152608401620000a4565b60608101516001600160a01b0316620001975760405162461bcd60e51b815260206004820152602e60248201527f4176617461723a20706f7274616c2072656769737472792063616e6e6f74206260448201526d65207a65726f206164647265737360901b6064820152608401620000a4565b60808101516001600160a01b03166200020b5760405162461bcd60e51b815260206004820152602f60248201527f4176617461723a20636f6d70616e792072656769737472792063616e6e6f742060448201526e6265207a65726f206164647265737360881b6064820152608401620000a4565b60208101516001600160a01b03166200027e5760405162461bcd60e51b815260206004820152602e60248201527f4176617461723a206176617461722072656769737472792063616e6e6f74206260448201526d65207a65726f206164647265737360901b6064820152608401620000a4565b60a08101516001600160a01b0316620003005760405162461bcd60e51b815260206004820152603360248201527f4176617461723a206d756c74692d61737365742072656769737472792063616e60448201527f6e6f74206265207a65726f2061646472657373000000000000000000000000006064820152608401620000a4565b80516001600160a01b0390811660809081526040830151821660c0526060830151821660e0528201518116610100526020820151811660a090815290910151166101205262000421565b80516001600160a01b03811681146200036257600080fd5b919050565b600060c082840312156200037a57600080fd5b60405160c081016001600160401b0381118282101715620003ab57634e487b7160e01b600052604160045260246000fd5b604052620003b9836200034a565b8152620003c9602084016200034a565b6020820152620003dc604084016200034a565b6040820152620003ef606084016200034a565b606082015262000402608084016200034a565b60808201526200041560a084016200034a565b60a08201529392505050565b60805160a05160c05160e0516101005161012051613a8a620004c56000396000818161050b015281816107f701528181611c3b015261238e0152600081816105d301526116a001526000818161059f0152818161108e0152818161179701528181611886015261268a0152600081816104b701526122030152600081816106070152610ced01526000818161041c01528181610d7801526120660152613a8a6000f3fe6080604052600436106101f25760003560e01c806361fac54d1161010d5780639be17fbc116100a0578063c51aba2b1161006f578063c51aba2b146105c1578063e3d7ad73146105f5578063e427535c14610629578063e62194f114610649578063f890d7c91461066957600080fd5b80639be17fbc1461052d5780639d870bf61461054d578063ae2314f71461056d578063b66649341461058d57600080fd5b80638da5cb5b116100dc5780638da5cb5b146104905780638f09a6be146104a5578063949a1ddc146104d9578063979d7e86146104f957600080fd5b806361fac54d1461043e5780637dc759e5146104535780637f5a7c7b146104665780638970220e1461047b57600080fd5b8063392f56691161018557806354cf0b391161015457806354cf0b39146103b357806354fd4d50146103d35780635cf59e1e146103e857806360e741e81461040a57600080fd5b8063392f5669146103265780633dfd38731461033957806340ac3f0b14610359578063516f279e1461038657600080fd5b806325394645116101c157806325394645146102b15780632663d1f7146102d15780632e1a7d4d146102f1578063378f17ff1461031157600080fd5b806303f7d3ba146101fe57806312deb11a14610231578063150b7a0214610253578063181d939b1461028c57600080fd5b366101f957005b600080fd5b34801561020a57600080fd5b5061021e610219366004612dca565b61067e565b6040519081526020015b60405180910390f35b34801561023d57600080fd5b5061025161024c366004612de7565b6106ab565b005b34801561025f57600080fd5b5061027361026e366004612e47565b6107cb565b6040516001600160e01b03199091168152602001610228565b34801561029857600080fd5b506102a1610c86565b6040519015158152602001610228565b3480156102bd57600080fd5b506102516102cc366004612eb9565b610c9b565b3480156102dd57600080fd5b506102516102ec366004612dca565b610d6d565b3480156102fd57600080fd5b5061025161030c366004612efa565b610e26565b34801561031d57600080fd5b50610251610f0e565b61025161033436600461307e565b610fd1565b34801561034557600080fd5b50610251610354366004612dca565b611194565b34801561036557600080fd5b506103796103743660046130c8565b6113bb565b6040516102289190613197565b34801561039257600080fd5b5061039b6113e4565b6040516001600160a01b039091168152602001610228565b3480156103bf57600080fd5b506102516103ce366004612de7565b611402565b3480156103df57600080fd5b5061021e600181565b3480156103f457600080fd5b506103fd61155b565b60405161022891906131aa565b34801561041657600080fd5b5061039b7f000000000000000000000000000000000000000000000000000000000000000081565b34801561044a57600080fd5b506103796115ea565b61025161046136600461307e565b61168b565b34801561047257600080fd5b5061039b61198b565b34801561048757600080fd5b50610379611a16565b34801561049c57600080fd5b5061039b611a33565b3480156104b157600080fd5b5061039b7f000000000000000000000000000000000000000000000000000000000000000081565b3480156104e557600080fd5b506102516104f436600461320a565b611a53565b34801561050557600080fd5b5061039b7f000000000000000000000000000000000000000000000000000000000000000081565b34801561053957600080fd5b506102a1610548366004612de7565b611aec565b34801561055957600080fd5b5061025161056836600461323e565b611b7e565b34801561057957600080fd5b506102a1610588366004612de7565b611bd7565b34801561059957600080fd5b5061039b7f000000000000000000000000000000000000000000000000000000000000000081565b3480156105cd57600080fd5b5061039b7f000000000000000000000000000000000000000000000000000000000000000081565b34801561060157600080fd5b5061039b7f000000000000000000000000000000000000000000000000000000000000000081565b34801561063557600080fd5b5061025161064436600461325b565b61205b565b34801561065557600080fd5b50610251610664366004612efa565b612364565b34801561067557600080fd5b5061021e6125bd565b6000806106896125d2565b6001600160a01b03909316600090815260049093016020525050604090205490565b60006106b56125d2565b805490915061010090046001600160a01b031633146106ef5760405162461bcd60e51b81526004016106e6906132fa565b60405180910390fd5b6106f882611bd7565b5060006107036125d2565b604051630dfd3df760e11b815290915073__$c011c5c9201293cae8fa3d59d203092c54$__90631bfa7bee906107429060068501908790600401613343565b60006040518083038186803b15801561075a57600080fd5b505af415801561076e573d6000803e3d6000fd5b50610780925050506020840184612dca565b6001600160a01b03167fc33fdb2e96e0dba49a8cb36af300177e6ba61804be87a31a26e27ab52596ecf284602001356040516107be91815260200190565b60405180910390a2505050565b60006107d56125f6565b60006107df6125d2565b6040516315bd8ac360e31b81523360048201529091507f00000000000000000000000000000000000000000000000000000000000000006001600160a01b03169063adec561890602401602060405180830381865afa158015610846573d6000803e3d6000fd5b505050506040513d601f19601f8201168201806040525081019061086a9190613377565b6108cd5760405162461bcd60e51b815260206004820152602e60248201527f4176617461723a2045524337323120746f6b656e206e6f742066726f6d20726560448201526d19da5cdd195c995908185cdcd95d60921b60648201526084016106e6565b8054339060ff16610a2f576000336001600160a01b0316631d1438486040518163ffffffff1660e01b8152600401602060405180830381865afa158015610918573d6000803e3d6000fd5b505050506040513d601f19601f8201168201806040525081019061093c9190613394565b600184015460408051636904c94d60e01b815290519293506001600160a01b03909116918291636904c94d9160048083019260209291908290030181865afa15801561098c573d6000803e3d6000fd5b505050506040513d601f19601f820116820180604052508101906109b09190613394565b6001600160a01b0316826001600160a01b031614610a2c5760405162461bcd60e51b815260206004820152603360248201527f4176617461723a2063616e6e6f74207265636569766520746f6b656e73206f756044820152727473696465206f6620657870657269656e636560681b60648201526084016106e6565b50505b6040516331a9108f60e11b81526004810187905230906001600160a01b03831690636352211e90602401602060405180830381865afa158015610a76573d6000803e3d6000fd5b505050506040513d601f19601f82011682018060405250810190610a9a9190613394565b6001600160a01b031614610b015760405162461bcd60e51b815260206004820152602860248201527f4176617461723a2045524337323120746f6b656e206e6f74206f776e656420626044820152673c9030bb30ba30b960c11b60648201526084016106e6565b6000600080516020613a358339815191526040516364cff67f60e11b8152600481019190915273__$b33bdc01aa0b2bf845e7e40ceebecaaf7e$__9063c99fecfe90602401602060405180830381865af4158015610b63573d6000803e3d6000fd5b505050506040513d601f19601f82011682018060405250810190610b879190613394565b90506001600160a01b03811615610c6657604051631d9a6bd160e11b8152306004820152336024820152604481018890526001600160a01b03821690633b34d7a2906064016020604051808303816000875af1158015610beb573d6000803e3d6000fd5b505050506040513d601f19601f82011682018060405250810190610c0f9190613377565b610c665760405162461bcd60e51b815260206004820152602260248201527f4176617461723a20686f6f6b2072656a65637465642045524337323120746f6b60448201526132b760f11b60648201526084016106e6565b50630a85bd0160e11b92505050610c7d6001600055565b95945050505050565b600080610c916125d2565b5460ff1692915050565b6000610ca56125d2565b805490915061010090046001600160a01b03163314610cd65760405162461bcd60e51b81526004016106e6906132fa565b60405163612ca62160e01b81526001600160a01b037f0000000000000000000000000000000000000000000000000000000000000000169063612ca62190610d2490869086906004016133b1565b6020604051808303816000875af1158015610d43573d6000803e3d6000fd5b505050506040513d601f19601f82011682018060405250810190610d679190613394565b50505050565b336001600160a01b037f00000000000000000000000000000000000000000000000000000000000000001614610db55760405162461bcd60e51b81526004016106e6906133e0565b7f69198989339f34e10129e514286bde98979351148754faef989dde18bf6d14da80546001600160a01b031981166001600160a01b03848116918217845560405192169182907f722ee95a7e2eed3235f2e3bdb62d3f6e70079578905580fbf8bb414519dd617290600090a3505050565b6000610e306125d2565b805490915061010090046001600160a01b03163314610e615760405162461bcd60e51b81526004016106e6906132fa565b47821115610ec55760405162461bcd60e51b815260206004820152602b60248201527f4176617461723a20696e73756666696369656e742062616c616e636520666f7260448201526a081dda5d1a191c985dd85b60aa1b60648201526084016106e6565b6000610ecf6125d2565b80546040519192506001600160a01b0361010090910416904780156108fc02916000818181858888f19350505050158015610d67573d6000803e3d6000fd5b610f1733612620565b610f335760405162461bcd60e51b81526004016106e69061342b565b600080516020613a3583398151915260405163747aa1a560e11b8152600481019190915273__$b33bdc01aa0b2bf845e7e40ceebecaaf7e$__9063e8f5434a9060240160006040518083038186803b158015610f8e57600080fd5b505af4158015610fa2573d6000803e3d6000fd5b50506040517f4abf6d25887ff6b78026f569f956b6d57d5b92cecf0ee91d897ec98e47f656a3925060009150a1565b6000610fdb6125d2565b805490915061010090046001600160a01b0316331461100c5760405162461bcd60e51b81526004016106e6906132fa565b600061101783612648565b905080604001518360200151146110405760405162461bcd60e51b81526004016106e690613473565b60408101511561107e57600061105634476134d5565b9050816040015181101561107c5760405162461bcd60e51b81526004016106e6906134e8565b505b60006110886125d2565b905060007f00000000000000000000000000000000000000000000000000000000000000006001600160a01b03166384c4484e846040015187600001516040518363ffffffff1660e01b81526004016110e391815260200190565b60006040518083038185885af1158015611101573d6000803e3d6000fd5b50505050506040513d6000823e601f3d908101601f1916820160405261112a9190810190613574565b83516001840180546001600160a01b0319166001600160a01b0390921691821790556040808601519051929350917fe6b8160f723fcdb4c3cb8bf86e99d55e311c607a791f7503cc16dfaff3271e4390611185908590613197565b60405180910390a35050505050565b61119d33612620565b6111b95760405162461bcd60e51b81526004016106e69061342b565b6001600160a01b0381166112215760405162461bcd60e51b815260206004820152602960248201527f42617365486f6f6b537570706f72743a20686f6f6b20697320746865207a65726044820152686f206164647265737360b81b60648201526084016106e6565b604051631627905560e01b81526001600160a01b038216600482015273__$b33bdc01aa0b2bf845e7e40ceebecaaf7e$__90631627905590602401602060405180830381865af4158015611279573d6000803e3d6000fd5b505050506040513d601f19601f8201168201806040525081019061129d9190613377565b6112f95760405162461bcd60e51b815260206004820152602760248201527f42617365486f6f6b537570706f72743a20686f6f6b206973206e6f74206120636044820152661bdb9d1c9858dd60ca1b60648201526084016106e6565b600080516020613a35833981519152604051630a8a5ef160e31b815260048101919091526001600160a01b038216602482015273__$b33bdc01aa0b2bf845e7e40ceebecaaf7e$__90635452f7889060440160006040518083038186803b15801561136357600080fd5b505af4158015611377573d6000803e3d6000fd5b50506040516001600160a01b03841681527f4eab7b127c764308788622363ad3e9532de3dfba7845bd4f84c125a22544255a9250602001905060405180910390a150565b6060816040516020016113ce91906135a8565b6040516020818303038152906040529050919050565b6000806113ef6125d2565b600101546001600160a01b031692915050565b600061140c6125d2565b805490915061010090046001600160a01b0316331461143d5760405162461bcd60e51b81526004016106e6906132fa565b600061144c6020840184612dca565b6001600160a01b0316036114725760405162461bcd60e51b81526004016106e6906135cf565b60008260200135116114965760405162461bcd60e51b81526004016106e69061361c565b60006114a06125d2565b6040516358888ef160e01b815290915073__$c011c5c9201293cae8fa3d59d203092c54$__906358888ef1906114df9060068501908790600401613343565b60006040518083038186803b1580156114f757600080fd5b505af415801561150b573d6000803e3d6000fd5b5061151d925050506020840184612dca565b6001600160a01b03167f60c3791748d09484f5d949c7570a640dad2f40bbebc2571b8f6c0e6a13e96fac84602001356040516107be91815260200190565b606060006115676125d2565b6040516372a9762360e11b815260068201600482015290915073__$c011c5c9201293cae8fa3d59d203092c54$__9063e552ec4690602401600060405180830381865af41580156115bc573d6000803e3d6000fd5b505050506040513d6000823e601f3d908101601f191682016040526115e49190810190613663565b91505090565b606060006115f66125d2565b905080600201805461160790613738565b80601f016020809104026020016040519081016040528092919081815260200182805461163390613738565b80156116805780601f1061165557610100808354040283529160200191611680565b820191906000526020600020905b81548152906001019060200180831161166357829003601f168201915b505050505091505090565b604051632405672560e21b81523360048201527f00000000000000000000000000000000000000000000000000000000000000006001600160a01b0316906390159c9490602401602060405180830381865afa1580156116ef573d6000803e3d6000fd5b505050506040513d601f19601f820116820180604052508101906117139190613377565b6117725760405162461bcd60e51b815260206004820152602a60248201527f4176617461723a2063616c6c6572206973206e6f742061207265676973746572604482015269656420636f6d70616e7960b01b60648201526084016106e6565b61177b816128f0565b8051604051630a22d5a160e21b81526000916001600160a01b037f0000000000000000000000000000000000000000000000000000000000000000169163288b5684916117ce9160040190815260200190565b608060405180830381865afa1580156117eb573d6000803e3d6000fd5b505050506040513d601f19601f8201168201806040525081019061180f919061376c565b905080604001518260200151146118385760405162461bcd60e51b81526004016106e690613473565b60408101511561187657600061184e34476134d5565b905081604001518110156118745760405162461bcd60e51b81526004016106e6906134e8565b505b60006118806125d2565b905060007f00000000000000000000000000000000000000000000000000000000000000006001600160a01b03166384c4484e846040015186600001516040518363ffffffff1660e01b81526004016118db91815260200190565b60006040518083038185885af11580156118f9573d6000803e3d6000fd5b50505050506040513d6000823e601f3d908101601f191682016040526119229190810190613574565b83516001840180546001600160a01b0319166001600160a01b0390921691821790556040808601519051929350917fe6b8160f723fcdb4c3cb8bf86e99d55e311c607a791f7503cc16dfaff3271e439061197d908590613197565b60405180910390a350505050565b6000600080516020613a358339815191526040516364cff67f60e11b8152600481019190915273__$b33bdc01aa0b2bf845e7e40ceebecaaf7e$__9063c99fecfe90602401602060405180830381865af41580156119ed573d6000803e3d6000fd5b505050506040513d601f19601f82011682018060405250810190611a119190613394565b905090565b60606000611a226125d2565b905080600301805461160790613738565b600080611a3e6125d2565b5461010090046001600160a01b031692915050565b6000611a5d6125d2565b805490915061010090046001600160a01b03163314611a8e5760405162461bcd60e51b81526004016106e6906132fa565b6000611a986125d2565b905060038101611aa88482613838565b5082604051611ab791906138f7565b604051908190038120907fe8ed633186ac64f9f0ab9b48cb1cca12eebe0f7e0ffdc46908733a060363236690600090a2505050565b600080611af76125d2565b604051633661870560e11b815290915073__$c011c5c9201293cae8fa3d59d203092c54$__90636cc30e0a90611b369060068501908790600401613343565b602060405180830381865af4158015611b53573d6000803e3d6000fd5b505050506040513d601f19601f82011682018060405250810190611b779190613377565b9392505050565b6000611b886125d2565b805490915061010090046001600160a01b03163314611bb95760405162461bcd60e51b81526004016106e6906132fa565b6000611bc36125d2565b805460ff1916931515939093179092555050565b600080611be76020840184612dca565b6001600160a01b031603611c0d5760405162461bcd60e51b81526004016106e6906135cf565b6000826020013511611c315760405162461bcd60e51b81526004016106e69061361c565b6001600160a01b037f00000000000000000000000000000000000000000000000000000000000000001663adec5618611c6d6020850185612dca565b6040516001600160e01b031960e084901b1681526001600160a01b039091166004820152602401602060405180830381865afa158015611cb1573d6000803e3d6000fd5b505050506040513d601f19601f82011682018060405250810190611cd59190613377565b611d2f5760405162461bcd60e51b815260206004820152602560248201527f4176617461723a207765617261626c65206173736574206e6f742072656769736044820152641d195c995960da1b60648201526084016106e6565b6000611d396113e4565b9050611d486020840184612dca565b6001600160a01b0316633fa47f176040518060a00160405280866000016020810190611d749190612dca565b6001600160a01b03168152602001846001600160a01b03166330b67baa6040518163ffffffff1660e01b8152600401602060405180830381865afa158015611dc0573d6000803e3d6000fd5b505050506040513d601f19601f82011682018060405250810190611de49190613394565b6001600160a01b03168152602001846001600160a01b0316636904c94d6040518163ffffffff1660e01b8152600401602060405180830381865afa158015611e30573d6000803e3d6000fd5b505050506040513d601f19601f82011682018060405250810190611e549190613394565b6001600160a01b03908116825285811660208084019190915230604093840152825160e086901b6001600160e01b031916815284518316600482015290840151821660248201529183015181166044830152606083015181166064830152608090920151909116608482015260a401602060405180830381865afa158015611ee0573d6000803e3d6000fd5b505050506040513d601f19601f82011682018060405250810190611f049190613377565b611f685760405162461bcd60e51b815260206004820152602f60248201527f4176617461723a207765617261626c652061737365742063616e6e6f7420626560448201526e103ab9b2b210313c9030bb30ba30b960891b60648201526084016106e6565b6000611f776020850185612dca565b6040516331a9108f60e11b81526020860135600482015290915030906001600160a01b03831690636352211e90602401602060405180830381865afa158015611fc4573d6000803e3d6000fd5b505050506040513d601f19601f82011682018060405250810190611fe89190613394565b6001600160a01b0316146120515760405162461bcd60e51b815260206004820152602a60248201527f4176617461723a207765617261626c6520746f6b656e206e6f74206f776e656460448201526910313c9030bb30ba30b960b11b60648201526084016106e6565b5060019392505050565b336001600160a01b037f000000000000000000000000000000000000000000000000000000000000000016146120a35760405162461bcd60e51b81526004016106e6906133e0565b60006120ad6125d2565b805490915061010090046001600160a01b0316156121195760405162461bcd60e51b8152602060048201526024808201527f4176617461723a20636f6e747261637420616c726561647920696e697469616c6044820152631a5e995960e21b60648201526084016106e6565b60008280602001905181019061212f9190613913565b905060008451116121825760405162461bcd60e51b815260206004820181905260248201527f4176617461723a20757365726e616d652063616e6e6f7420626520656d70747960448201526064016106e6565b6001600160a01b0386166121e45760405162461bcd60e51b8152602060048201526024808201527f4176617461723a206f776e65722063616e6e6f74206265207a65726f206164646044820152637265737360e01b60648201526084016106e6565b604051630262286360e41b81526001600160a01b0386811660048301527f00000000000000000000000000000000000000000000000000000000000000001690632622863090602401602060405180830381865afa15801561224a573d6000803e3d6000fd5b505050506040513d601f19601f8201168201806040525081019061226e9190613377565b6122e05760405162461bcd60e51b815260206004820152603960248201527f4176617461723a2064656661756c7420657870657269656e6365206973206e6f60448201527f742061207265676973746572656420657870657269656e63650000000000000060648201526084016106e6565b600282016122ee8582613838565b506001820180546001600160a01b0319166001600160a01b0387161790558051825460ff19169015151782556020810151600383019061232e9082613838565b505080546001600160a01b0390951661010002610100600160a81b0319909516949094178455505060c860099092019190915550565b61236c6125f6565b60006123766125d2565b6040516315bd8ac360e31b81523360048201529091507f00000000000000000000000000000000000000000000000000000000000000006001600160a01b03169063adec561890602401602060405180830381865afa1580156123dd573d6000803e3d6000fd5b505050506040513d601f19601f820116820180604052508101906124019190613377565b61246b5760405162461bcd60e51b815260206004820152603560248201527f4176617461723a206f6e6c79207265676973746572656420617373657473206360448201527430b71031b0b636103a3434b990333ab731ba34b7b760591b60648201526084016106e6565b6040516331a9108f60e11b81526004810183905233908190636352211e90602401602060405180830381865afa9250505080156124c5575060408051601f3d908101601f191682019092526124c291810190613394565b60015b612553576040805180820182526001600160a01b03831681526020810185905290516358888ef160e01b815273__$c011c5c9201293cae8fa3d59d203092c54$__916358888ef19161251e916006870191600401613983565b60006040518083038186803b15801561253657600080fd5b505af415801561254a573d6000803e3d6000fd5b505050506125ae565b60405162461bcd60e51b815260206004820152602a60248201527f4176617461723a2045524337323120746f6b656e207374696c6c206f776e656460448201526910313c9030bb30ba30b960b11b60648201526084016106e6565b50506125ba6001600055565b50565b6000806125c86125d2565b6005015492915050565b7fd38682225e685e93013f8a112db34d1d514857ac4394636132822a0c0fe2045090565b60026000540361261957604051633ee5aeb560e01b815260040160405180910390fd5b6002600055565b60008061262b6125d2565b5461010090046001600160a01b0390811693169290921492915050565b60408051608081018252600080825260208201819052818301819052606082015282519151630a22d5a160e21b81526004810192909252906001600160a01b037f0000000000000000000000000000000000000000000000000000000000000000169063288b568490602401608060405180830381865afa1580156126d1573d6000803e3d6000fd5b505050506040513d601f19601f820116820180604052508101906126f5919061376c565b9050600081600001516001600160a01b0316636904c94d6040518163ffffffff1660e01b8152600401602060405180830381865afa15801561273b573d6000803e3d6000fd5b505050506040513d601f19601f8201168201806040525081019061275f9190613394565b9050600061276b6125d2565b6001600160a01b03831660009081526004820160205260408120805492935090612794836139aa565b9091555084516020808701516040805192830193909352918101919091526060810182905260009060800160408051808303601f19018152828252805160209182012081845283830190925290925060009190602082018180368337019050509050816020820152600061280782612a0b565b90506000612819828a60400151612a46565b604051637df73e2760e01b81526001600160a01b03808316600483015291925090881690637df73e2790602401602060405180830381865afa158015612863573d6000803e3d6000fd5b505050506040513d601f19601f820116820180604052508101906128879190613377565b6128e45760405162461bcd60e51b815260206004820152602860248201527f4176617461723a20636f6d70616e79207369676e6572206973206e6f742061756044820152671d1a1bdc9a5e995960c21b60648201526084016106e6565b50505050505050919050565b60006128fa6125d2565b600581018054919250600061290e836139aa565b9091555082516020808501516040805192830193909352918101919091526060810182905260009060800160408051808303601f19018152828252805160209182012081845283830190925290925060009190602082018180368337019050509050816020820152600061298182612a0b565b90506000612993828860400151612a46565b86549091506001600160a01b038083166101009092041614612a025760405162461bcd60e51b815260206004820152602260248201527f4176617461723a20617661746172207369676e6572206973206e6f74206f776e60448201526132b960f11b60648201526084016106e6565b50505050505050565b6000612a178251612a72565b82604051602001612a299291906139c3565b604051602081830303815290604052805190602001209050919050565b600080600080612a568686612b04565b925092509250612a668282612b51565b50909150505b92915050565b60606000612a7f83612c0e565b60010190506000816001600160401b03811115612a9e57612a9e612f13565b6040519080825280601f01601f191660200182016040528015612ac8576020820181803683370190505b5090508181016020015b600019016f181899199a1a9b1b9c1cb0b131b232b360811b600a86061a8153600a8504945084612ad257509392505050565b60008060008351604103612b3e5760208401516040850151606086015160001a612b3088828585612ce6565b955095509550505050612b4a565b50508151600091506002905b9250925092565b6000826003811115612b6557612b65613a1e565b03612b6e575050565b6001826003811115612b8257612b82613a1e565b03612ba05760405163f645eedf60e01b815260040160405180910390fd5b6002826003811115612bb457612bb4613a1e565b03612bd55760405163fce698f760e01b8152600481018290526024016106e6565b6003826003811115612be957612be9613a1e565b03612c0a576040516335e2f38360e21b8152600481018290526024016106e6565b5050565b60008072184f03e93ff9f4daa797ed6e38ed64bf6a1f0160401b8310612c4d5772184f03e93ff9f4daa797ed6e38ed64bf6a1f0160401b830492506040015b6d04ee2d6d415b85acef81000000008310612c79576d04ee2d6d415b85acef8100000000830492506020015b662386f26fc100008310612c9757662386f26fc10000830492506010015b6305f5e1008310612caf576305f5e100830492506008015b6127108310612cc357612710830492506004015b60648310612cd5576064830492506002015b600a8310612a6c5760010192915050565b600080807f7fffffffffffffffffffffffffffffff5d576e7357a4501ddfe92f46681b20a0841115612d215750600091506003905082612dab565b604080516000808252602082018084528a905260ff891692820192909252606081018790526080810186905260019060a0016020604051602081039080840390855afa158015612d75573d6000803e3d6000fd5b5050604051601f1901519150506001600160a01b038116612da157506000925060019150829050612dab565b9250600091508190505b9450945094915050565b6001600160a01b03811681146125ba57600080fd5b600060208284031215612ddc57600080fd5b8135611b7781612db5565b600060408284031215612df957600080fd5b50919050565b60008083601f840112612e1157600080fd5b5081356001600160401b03811115612e2857600080fd5b602083019150836020828501011115612e4057600080fd5b9250929050565b600080600080600060808688031215612e5f57600080fd5b8535612e6a81612db5565b94506020860135612e7a81612db5565b93506040860135925060608601356001600160401b03811115612e9c57600080fd5b612ea888828901612dff565b969995985093965092949392505050565b60008060208385031215612ecc57600080fd5b82356001600160401b03811115612ee257600080fd5b612eee85828601612dff565b90969095509350505050565b600060208284031215612f0c57600080fd5b5035919050565b634e487b7160e01b600052604160045260246000fd5b604080519081016001600160401b0381118282101715612f4b57612f4b612f13565b60405290565b604051601f8201601f191681016001600160401b0381118282101715612f7957612f79612f13565b604052919050565b60006001600160401b03821115612f9a57612f9a612f13565b50601f01601f191660200190565b6000612fbb612fb684612f81565b612f51565b9050828152838383011115612fcf57600080fd5b828260208301376000602084830101529392505050565b600082601f830112612ff757600080fd5b611b7783833560208501612fa8565b60006060828403121561301857600080fd5b604051606081016001600160401b03828210818311171561303b5761303b612f13565b816040528293508435835260208501356020840152604085013591508082111561306457600080fd5b5061307185828601612fe6565b6040830152505092915050565b60006020828403121561309057600080fd5b81356001600160401b038111156130a657600080fd5b6130b284828501613006565b949350505050565b80151581146125ba57600080fd5b6000602082840312156130da57600080fd5b81356001600160401b03808211156130f157600080fd5b908301906040828603121561310557600080fd5b61310d612f29565b8235613118816130ba565b815260208301358281111561312c57600080fd5b61313887828601612fe6565b60208301525095945050505050565b60005b8381101561316257818101518382015260200161314a565b50506000910152565b60008151808452613183816020860160208601613147565b601f01601f19169290920160200192915050565b602081526000611b77602083018461316b565b602080825282518282018190526000919060409081850190868401855b828110156131fd576131ed84835180516001600160a01b03168252602090810151910152565b92840192908501906001016131c7565b5091979650505050505050565b60006020828403121561321c57600080fd5b81356001600160401b0381111561323257600080fd5b6130b284828501612fe6565b60006020828403121561325057600080fd5b8135611b77816130ba565b6000806000806080858703121561327157600080fd5b843561327c81612db5565b9350602085013561328c81612db5565b925060408501356001600160401b03808211156132a857600080fd5b818701915087601f8301126132bc57600080fd5b6132cb88833560208501612fa8565b935060608701359150808211156132e157600080fd5b506132ee87828801612fe6565b91505092959194509250565b60208082526029908201527f4176617461723a206f6e6c79206f776e65722063616e2063616c6c207468697360408201526810333ab731ba34b7b760b91b606082015260800190565b82815260608101823561335581612db5565b6001600160a01b03166020838101919091529290920135604090910152919050565b60006020828403121561338957600080fd5b8151611b77816130ba565b6000602082840312156133a657600080fd5b8151611b7781612db5565b60208152816020820152818360408301376000818301604090810191909152601f909201601f19160101919050565b6020808252602b908201527f4176617461723a206f6e6c7920666163746f72792063616e2063616c6c20746860408201526a34b990333ab731ba34b7b760a91b606082015260800190565b60208082526028908201527f42617365486f6f6b537570706f72743a2063616c6c6572206973206e6f74207460408201526734329030b236b4b760c11b606082015260800190565b6020808252602c908201527f4176617461723a206167726565642066656520646f6573206e6f74206d61746360408201526b6820706f7274616c2066656560a01b606082015260800190565b634e487b7160e01b600052601160045260246000fd5b80820180821115612a6c57612a6c6134bf565b60208082526027908201527f4176617461723a20696e73756666696369656e742066756e647320666f72206a604082015266756d702066656560c81b606082015260800190565b600082601f83011261354057600080fd5b815161354e612fb682612f81565b81815284602083860101111561356357600080fd5b6130b2826020830160208701613147565b60006020828403121561358657600080fd5b81516001600160401b0381111561359c57600080fd5b6130b28482850161352f565b60208152815115156020820152600060208301516040808401526130b2606084018261316b565b6020808252602d908201527f4176617461723a207765617261626c652061737365742063616e6e6f7420626560408201526c207a65726f206164647265737360981b606082015260800190565b60208082526027908201527f4176617461723a207765617261626c6520746f6b656e49642063616e6e6f74206040820152666265207a65726f60c81b606082015260800190565b6000602080838503121561367657600080fd5b82516001600160401b038082111561368d57600080fd5b818501915085601f8301126136a157600080fd5b8151818111156136b3576136b3612f13565b6136c1848260051b01612f51565b818152848101925060069190911b8301840190878211156136e157600080fd5b928401925b8184101561372d57604084890312156136ff5760008081fd5b613707612f29565b845161371281612db5565b815284860151868201528352604090930192918401916136e6565b979650505050505050565b600181811c9082168061374c57607f821691505b602082108103612df957634e487b7160e01b600052602260045260246000fd5b60006080828403121561377e57600080fd5b604051608081018181106001600160401b03821117156137a0576137a0612f13565b60405282516137ae81612db5565b815260208301516137be81612db5565b60208201526040838101519082015260608301516137db816130ba565b60608201529392505050565b601f821115613833576000816000526020600020601f850160051c810160208610156138105750805b601f850160051c820191505b8181101561382f5782815560010161381c565b5050505b505050565b81516001600160401b0381111561385157613851612f13565b6138658161385f8454613738565b846137e7565b602080601f83116001811461389a57600084156138825750858301515b600019600386901b1c1916600185901b17855561382f565b600085815260208120601f198616915b828110156138c9578886015182559484019460019091019084016138aa565b50858210156138e75787850151600019600388901b60f8161c191681555b5050505050600190811b01905550565b60008251613909818460208701613147565b9190910192915050565b60006020828403121561392557600080fd5b81516001600160401b038082111561393c57600080fd5b908301906040828603121561395057600080fd5b613958612f29565b8251613963816130ba565b815260208301518281111561397757600080fd5b6131388782860161352f565b82815260608101611b77602083018480516001600160a01b03168252602090810151910152565b6000600182016139bc576139bc6134bf565b5060010190565b7f19457468657265756d205369676e6564204d6573736167653a0a0000000000008152600083516139fb81601a850160208801613147565b835190830190613a1281601a840160208801613147565b01601a01949350505050565b634e487b7160e01b600052602160045260246000fdfe2914b2bb01114b5159800e543f6c1279819fc613124831d49682628c159b8a38a264697066735822122070b71991ab34df59114de9d210d1aa9d92e710d758c73e40f2b8282ba23bc82064736f6c63430008180033",
  "linkReferences": {
    "contracts/libraries/LibHooks.sol": {
      "LibHooks": [
        {
          "length": 20,
          "start": 4078
        },
        {
          "length": 20,
          "start": 5150
        },
        {
          "length": 20,
          "start": 5892
        },
        {
          "length": 20,
          "start": 6131
        },
        {
          "length": 20,
          "start": 7800
        }
      ]
    },
    "contracts/libraries/LibLinkedList.sol": {
      "LibLinkedList": [
        {
          "length": 20,
          "start": 3034
        },
        {
          "length": 20,
          "start": 6519
        },
        {
          "length": 20,
          "start": 6727
        },
        {
          "length": 20,
          "start": 8142
        },
        {
          "length": 20,
          "start": 10680
        }
      ]
    }
  },
  "deployedLinkReferences": {
    "contracts/libraries/LibHooks.sol": {
      "LibHooks": [
        {
          "length": 20,
          "start": 2857
        },
        {
          "length": 20,
          "start": 3929
        },
        {
          "length": 20,
          "start": 4671
        },
        {
          "length": 20,
          "start": 4910
        },
        {
          "length": 20,
          "start": 6579
        }
      ]
    },
    "contracts/libraries/LibLinkedList.sol": {
      "LibLinkedList": [
        {
          "length": 20,
          "start": 1813
        },
        {
          "length": 20,
          "start": 5298
        },
        {
          "length": 20,
          "start": 5506
        },
        {
          "length": 20,
          "start": 6921
        },
        {
          "length": 20,
          "start": 9459
        }
      ]
    }
  }
}