{
  "_format": "hh-sol-artifact-1",
  "contractName": "AvatarFactory",
  "sourceName": "contracts/avatar/AvatarFactory.sol",
  "abi": [
    {
      "inputs": [
        {
          "internalType": "address",
          "name": "mainAdmin",
          "type": "address"
        },
        {
          "internalType": "address[]",
          "name": "admins",
          "type": "address[]"
        }
      ],
      "stateMutability": "nonpayable",
      "type": "constructor"
    },
    {
      "inputs": [],
      "name": "AccessControlBadConfirmation",
      "type": "error"
    },
    {
      "inputs": [
        {
          "internalType": "address",
          "name": "account",
          "type": "address"
        },
        {
          "internalType": "bytes32",
          "name": "neededRole",
          "type": "bytes32"
        }
      ],
      "name": "AccessControlUnauthorizedAccount",
      "type": "error"
    },
    {
      "anonymous": false,
      "inputs": [
        {
          "indexed": true,
          "internalType": "address",
          "name": "oldRegistry",
          "type": "address"
        },
        {
          "indexed": true,
          "internalType": "address",
          "name": "newRegistry",
          "type": "address"
        }
      ],
      "name": "AuthorizedRegistryChanged",
      "type": "event"
    },
    {
      "anonymous": false,
      "inputs": [
        {
          "indexed": true,
          "internalType": "bytes32",
          "name": "role",
          "type": "bytes32"
        },
        {
          "indexed": true,
          "internalType": "bytes32",
          "name": "previousAdminRole",
          "type": "bytes32"
        },
        {
          "indexed": true,
          "internalType": "bytes32",
          "name": "newAdminRole",
          "type": "bytes32"
        }
      ],
      "name": "RoleAdminChanged",
      "type": "event"
    },
    {
      "anonymous": false,
      "inputs": [
        {
          "indexed": true,
          "internalType": "bytes32",
          "name": "role",
          "type": "bytes32"
        },
        {
          "indexed": true,
          "internalType": "address",
          "name": "account",
          "type": "address"
        },
        {
          "indexed": true,
          "internalType": "address",
          "name": "sender",
          "type": "address"
        }
      ],
      "name": "RoleGranted",
      "type": "event"
    },
    {
      "anonymous": false,
      "inputs": [
        {
          "indexed": true,
          "internalType": "bytes32",
          "name": "role",
          "type": "bytes32"
        },
        {
          "indexed": true,
          "internalType": "address",
          "name": "account",
          "type": "address"
        },
        {
          "indexed": true,
          "internalType": "address",
          "name": "sender",
          "type": "address"
        }
      ],
      "name": "RoleRevoked",
      "type": "event"
    },
    {
      "inputs": [],
      "name": "ADMIN_ROLE",
      "outputs": [
        {
          "internalType": "bytes32",
          "name": "",
          "type": "bytes32"
        }
      ],
      "stateMutability": "view",
      "type": "function"
    },
    {
      "inputs": [],
      "name": "DEFAULT_ADMIN_ROLE",
      "outputs": [
        {
          "internalType": "bytes32",
          "name": "",
          "type": "bytes32"
        }
      ],
      "stateMutability": "view",
      "type": "function"
    },
    {
      "inputs": [
        {
          "internalType": "address",
          "name": "owner",
          "type": "address"
        },
        {
          "internalType": "address",
          "name": "defaultExperience",
          "type": "address"
        },
        {
          "internalType": "bytes",
          "name": "initData",
          "type": "bytes"
        }
      ],
      "name": "createAvatar",
      "outputs": [
        {
          "internalType": "address",
          "name": "proxy",
          "type": "address"
        }
      ],
      "stateMutability": "nonpayable",
      "type": "function"
    },
    {
      "inputs": [
        {
          "internalType": "bytes32",
          "name": "role",
          "type": "bytes32"
        }
      ],
      "name": "getRoleAdmin",
      "outputs": [
        {
          "internalType": "bytes32",
          "name": "",
          "type": "bytes32"
        }
      ],
      "stateMutability": "view",
      "type": "function"
    },
    {
      "inputs": [
        {
          "internalType": "bytes32",
          "name": "role",
          "type": "bytes32"
        },
        {
          "internalType": "address",
          "name": "account",
          "type": "address"
        }
      ],
      "name": "grantRole",
      "outputs": [],
      "stateMutability": "nonpayable",
      "type": "function"
    },
    {
      "inputs": [
        {
          "internalType": "bytes32",
          "name": "role",
          "type": "bytes32"
        },
        {
          "internalType": "address",
          "name": "account",
          "type": "address"
        }
      ],
      "name": "hasRole",
      "outputs": [
        {
          "internalType": "bool",
          "name": "",
          "type": "bool"
        }
      ],
      "stateMutability": "view",
      "type": "function"
    },
    {
      "inputs": [
        {
          "internalType": "address",
          "name": "query",
          "type": "address"
        }
      ],
      "name": "isClone",
      "outputs": [
        {
          "internalType": "bool",
          "name": "result",
          "type": "bool"
        }
      ],
      "stateMutability": "view",
      "type": "function"
    },
    {
      "inputs": [
        {
          "internalType": "bytes32",
          "name": "role",
          "type": "bytes32"
        },
        {
          "internalType": "address",
          "name": "callerConfirmation",
          "type": "address"
        }
      ],
      "name": "renounceRole",
      "outputs": [],
      "stateMutability": "nonpayable",
      "type": "function"
    },
    {
      "inputs": [
        {
          "internalType": "bytes32",
          "name": "role",
          "type": "bytes32"
        },
        {
          "internalType": "address",
          "name": "account",
          "type": "address"
        }
      ],
      "name": "revokeRole",
      "outputs": [],
      "stateMutability": "nonpayable",
      "type": "function"
    },
    {
      "inputs": [
        {
          "internalType": "address",
          "name": "_registry",
          "type": "address"
        }
      ],
      "name": "setAuthorizedRegistry",
      "outputs": [],
      "stateMutability": "nonpayable",
      "type": "function"
    },
    {
      "inputs": [
        {
          "internalType": "address",
          "name": "_implementation",
          "type": "address"
        }
      ],
      "name": "setImplementation",
      "outputs": [],
      "stateMutability": "nonpayable",
      "type": "function"
    },
    {
      "inputs": [
        {
          "internalType": "bytes4",
          "name": "interfaceId",
          "type": "bytes4"
        }
      ],
      "name": "supportsInterface",
      "outputs": [
        {
          "internalType": "bool",
          "name": "",
          "type": "bool"
        }
      ],
      "stateMutability": "view",
      "type": "function"
    }
  ],
  "bytecode": "0x60806040523480156200001157600080fd5b5060405162000e6a38038062000e6a8339810160408190526200003491620002a6565b81816001600160a01b038216620000a95760405162461bcd60e51b815260206004820152602e60248201527f42617365466163746f72793a206d61696e2061646d696e2063616e6e6f74206260448201526d65207a65726f206164647265737360901b60648201526084015b60405180910390fd5b620000b6600083620001c4565b50620000d260008051602062000e4a83398151915283620001c4565b5060005b8151811015620001b95760006001600160a01b03168282815181106200010057620001006200038f565b60200260200101516001600160a01b031603620001725760405162461bcd60e51b815260206004820152602960248201527f42617365466163746f72793a2061646d696e2063616e6e6f74206265207a65726044820152686f206164647265737360b81b6064820152608401620000a0565b620001af60008051602062000e4a8339815191528383815181106200019b576200019b6200038f565b6020026020010151620001c460201b60201c565b50600101620000d6565b5050505050620003a5565b6000828152602081815260408083206001600160a01b038516845290915281205460ff1662000269576000838152602081815260408083206001600160a01b03861684529091529020805460ff19166001179055620002203390565b6001600160a01b0316826001600160a01b0316847f2f8788117e7eff1d82e926ec794901d17c78024a50270940304540a733656f0d60405160405180910390a45060016200026d565b5060005b92915050565b80516001600160a01b03811681146200028b57600080fd5b919050565b634e487b7160e01b600052604160045260246000fd5b60008060408385031215620002ba57600080fd5b620002c58362000273565b602084810151919350906001600160401b0380821115620002e557600080fd5b818601915086601f830112620002fa57600080fd5b8151818111156200030f576200030f62000290565b8060051b604051601f19603f8301168101818110858211171562000337576200033762000290565b6040529182528482019250838101850191898311156200035657600080fd5b938501935b828510156200037f576200036f8562000273565b845293850193928501926200035b565b8096505050505050509250929050565b634e487b7160e01b600052603260045260246000fd5b610a9580620003b56000396000f3fe608060405234801561001057600080fd5b50600436106100b35760003560e01c806336568abe1161007157806336568abe1461017757806375b238fc1461018a57806391d14854146101b1578063a217fddf146101c4578063d547741f146101cc578063d784d426146101df57600080fd5b8062ae3676146100b857806301ffc9a7146100e0578063090741a0146100f3578063248a9ca3146101085780632f2ff15d146101395780633396c8961461014c575b600080fd5b6100cb6100c636600461087b565b6101f2565b60405190151581526020015b60405180910390f35b6100cb6100ee36600461089d565b610267565b61010661010136600461087b565b61029e565b005b61012b6101163660046108c7565b60009081526020819052604090206001015490565b6040519081526020016100d7565b6101066101473660046108e0565b610386565b61015f61015a366004610922565b6103b1565b6040516001600160a01b0390911681526020016100d7565b6101066101853660046108e0565b610502565b61012b7fa49807205ce4d355092ef5a8a18f56e8913cf4a201fbe287825b095693c2177581565b6100cb6101bf3660046108e0565b61053a565b61012b600081565b6101066101da3660046108e0565b610563565b6101066101ed36600461087b565b610588565b600080600160009054906101000a90046001600160a01b031660601b905060405169363d3d373d3d3d363d7360b01b815281600a8201526e5af43d82803e903d91602b57fd5bf360881b601e82015260408101602d600082873c600d810151600d830151148151835114169350505050919050565b60006001600160e01b03198216637965db0b60e01b148061029857506301ffc9a760e01b6001600160e01b03198316145b92915050565b7fa49807205ce4d355092ef5a8a18f56e8913cf4a201fbe287825b095693c217756102c881610646565b6001600160a01b0382166103395760405162461bcd60e51b815260206004820152602d60248201527f576f726c64466163746f72793a2072656769737472792063616e6e6f7420626560448201526c207a65726f206164647265737360981b60648201526084015b60405180910390fd5b600280546001600160a01b0319166001600160a01b03841690811790915560405181907fc86b12484784843e0f58748ffb8c87f7ee384e04382a190867f3cccc3b6cf97b90600090a35050565b6000828152602081905260409020600101546103a181610646565b6103ab8383610653565b50505050565b6002546000906001600160a01b031661041d5760405162461bcd60e51b815260206004820152602860248201527f42617365466163746f72793a20617574686f72697a6564207265676973747279604482015267081b9bdd081cd95d60c21b6064820152608401610330565b6002546001600160a01b0316331461048e5760405162461bcd60e51b815260206004820152602e60248201527f42617365466163746f72793a2063616c6c6572206973206e6f7420617574686f60448201526d72697a656420726567697374727960901b6064820152608401610330565b6104966106e5565b604051631bc6fec760e11b81529091506001600160a01b0382169063378dfd8e906104c9908790879087906004016109f4565b600060405180830381600087803b1580156104e357600080fd5b505af11580156104f7573d6000803e3d6000fd5b505050509392505050565b6001600160a01b038116331461052b5760405163334bd91960e11b815260040160405180910390fd5b6105358282610702565b505050565b6000918252602082815260408084206001600160a01b0393909316845291905290205460ff1690565b60008281526020819052604090206001015461057e81610646565b6103ab8383610702565b7fa49807205ce4d355092ef5a8a18f56e8913cf4a201fbe287825b095693c217756105b281610646565b6001600160a01b0382166106235760405162461bcd60e51b815260206004820152603260248201527f42617365466163746f72793a20696d706c656d656e746174696f6e2063616e6e6044820152716f74206265207a65726f206164647265737360701b6064820152608401610330565b50600180546001600160a01b0319166001600160a01b0392909216919091179055565b610650813361076d565b50565b600061065f838361053a565b6106dd576000838152602081815260408083206001600160a01b03861684529091529020805460ff191660011790556106953390565b6001600160a01b0316826001600160a01b0316847f2f8788117e7eff1d82e926ec794901d17c78024a50270940304540a733656f0d60405160405180910390a4506001610298565b506000610298565b6001546000906106fd906001600160a01b03166107aa565b905090565b600061070e838361053a565b156106dd576000838152602081815260408083206001600160a01b0386168085529252808320805460ff1916905551339286917ff6391f5c32d9c69d2a47ea670b442974b53935d1edc7fd64eb21e047a839171b9190a4506001610298565b610777828261053a565b6107a65760405163e2517d3f60e01b81526001600160a01b038216600482015260248101839052604401610330565b5050565b60006001600160a01b03821661080e5760405162461bcd60e51b815260206004820152602360248201527f42617365466163746f72793a20696d706c656d656e746174696f6e206e6f74206044820152621cd95d60ea1b6064820152608401610330565b60008260601b9050604051733d602d80600a3d3981f3363d3d373d3d3d363d7360601b81528160148201526e5af43d82803e903d91602b57fd5bf360881b60288201526037816000f0949350505050565b80356001600160a01b038116811461087657600080fd5b919050565b60006020828403121561088d57600080fd5b6108968261085f565b9392505050565b6000602082840312156108af57600080fd5b81356001600160e01b03198116811461089657600080fd5b6000602082840312156108d957600080fd5b5035919050565b600080604083850312156108f357600080fd5b823591506109036020840161085f565b90509250929050565b634e487b7160e01b600052604160045260246000fd5b60008060006060848603121561093757600080fd5b6109408461085f565b925061094e6020850161085f565b9150604084013567ffffffffffffffff8082111561096b57600080fd5b818601915086601f83011261097f57600080fd5b8135818111156109915761099161090c565b604051601f8201601f19908116603f011681019083821181831017156109b9576109b961090c565b816040528281528960208487010111156109d257600080fd5b8260208601602083013760006020848301015280955050505050509250925092565b600060018060a01b03808616835260208186166020850152606060408501528451915081606085015260005b82811015610a3c57858101820151858201608001528101610a20565b50506000608082850101526080601f19601f83011684010191505094935050505056fea26469706673582212209eb30af988f18c8ca7a29e8a36f8fd71ef61c9e6e779da8d2af3255efceb8b6364736f6c63430008180033a49807205ce4d355092ef5a8a18f56e8913cf4a201fbe287825b095693c21775",
  "linkReferences": {},
  "deployedLinkReferences": {}
}