{
  "_format": "hh-sol-artifact-1",
  "contractName": "Avatar",
  "sourceName": "contracts/avatar/instance/Avatar.sol",
  "abi": [
    {
      "inputs": [
        {
          "components": [
            {
              "internalType": "address",
              "name": "extensionResolver",
              "type": "address"
            },
            {
              "internalType": "address",
              "name": "owningRegistry",
              "type": "address"
            },
            {
              "internalType": "address",
              "name": "worldRegistry",
              "type": "address"
            },
            {
              "internalType": "address",
              "name": "experienceRegistry",
              "type": "address"
            }
          ],
          "internalType": "struct AvatarConstructorArgs",
          "name": "args",
          "type": "tuple"
        }
      ],
      "stateMutability": "nonpayable",
      "type": "constructor"
    },
    {
      "anonymous": false,
      "inputs": [
        {
          "indexed": false,
          "internalType": "string",
          "name": "name",
          "type": "string"
        }
      ],
      "name": "ExtensionDisabled",
      "type": "event"
    },
    {
      "anonymous": false,
      "inputs": [
        {
          "indexed": false,
          "internalType": "string",
          "name": "name",
          "type": "string"
        }
      ],
      "name": "ExtensionEnabled",
      "type": "event"
    },
    {
      "anonymous": false,
      "inputs": [
        {
          "indexed": false,
          "internalType": "string",
          "name": "name",
          "type": "string"
        },
        {
          "components": [
            {
              "internalType": "uint16",
              "name": "major",
              "type": "uint16"
            },
            {
              "internalType": "uint16",
              "name": "minor",
              "type": "uint16"
            }
          ],
          "indexed": false,
          "internalType": "struct Version",
          "name": "version",
          "type": "tuple"
        }
      ],
      "name": "ExtensionInstalled",
      "type": "event"
    },
    {
      "anonymous": false,
      "inputs": [
        {
          "indexed": false,
          "internalType": "string",
          "name": "name",
          "type": "string"
        },
        {
          "components": [
            {
              "internalType": "uint16",
              "name": "major",
              "type": "uint16"
            },
            {
              "internalType": "uint16",
              "name": "minor",
              "type": "uint16"
            }
          ],
          "indexed": false,
          "internalType": "struct Version",
          "name": "version",
          "type": "tuple"
        }
      ],
      "name": "ExtensionRolledBack",
      "type": "event"
    },
    {
      "anonymous": false,
      "inputs": [
        {
          "indexed": false,
          "internalType": "string",
          "name": "name",
          "type": "string"
        },
        {
          "components": [
            {
              "internalType": "uint16",
              "name": "major",
              "type": "uint16"
            },
            {
              "internalType": "uint16",
              "name": "minor",
              "type": "uint16"
            }
          ],
          "indexed": false,
          "internalType": "struct Version",
          "name": "version",
          "type": "tuple"
        }
      ],
      "name": "ExtensionUpgraded",
      "type": "event"
    },
    {
      "anonymous": false,
      "inputs": [
        {
          "indexed": false,
          "internalType": "bytes4",
          "name": "selector",
          "type": "bytes4"
        }
      ],
      "name": "SelectorDisabled",
      "type": "event"
    },
    {
      "anonymous": false,
      "inputs": [
        {
          "indexed": false,
          "internalType": "bytes4",
          "name": "selector",
          "type": "bytes4"
        }
      ],
      "name": "SelectorEnabled",
      "type": "event"
    },
    {
      "stateMutability": "payable",
      "type": "fallback"
    },
    {
      "inputs": [],
      "name": "appearanceDetails",
      "outputs": [
        {
          "internalType": "bytes",
          "name": "",
          "type": "bytes"
        }
      ],
      "stateMutability": "view",
      "type": "function"
    },
    {
      "inputs": [],
      "name": "avatarOwnerSigningNonce",
      "outputs": [
        {
          "internalType": "uint256",
          "name": "",
          "type": "uint256"
        }
      ],
      "stateMutability": "view",
      "type": "function"
    },
    {
      "inputs": [],
      "name": "avatarRegistry",
      "outputs": [
        {
          "internalType": "contract IAvatarRegistry",
          "name": "",
          "type": "address"
        }
      ],
      "stateMutability": "view",
      "type": "function"
    },
    {
      "inputs": [],
      "name": "canReceiveTokensOutsideOfExperience",
      "outputs": [
        {
          "internalType": "bool",
          "name": "",
          "type": "bool"
        }
      ],
      "stateMutability": "view",
      "type": "function"
    },
    {
      "inputs": [
        {
          "internalType": "address",
          "name": "signer",
          "type": "address"
        }
      ],
      "name": "companySigningNonce",
      "outputs": [
        {
          "internalType": "uint256",
          "name": "",
          "type": "uint256"
        }
      ],
      "stateMutability": "view",
      "type": "function"
    },
    {
      "inputs": [],
      "name": "experienceRegistry",
      "outputs": [
        {
          "internalType": "contract IExperienceRegistry",
          "name": "",
          "type": "address"
        }
      ],
      "stateMutability": "view",
      "type": "function"
    },
    {
      "inputs": [],
      "name": "extResolver",
      "outputs": [
        {
          "internalType": "contract IExtensionResolver",
          "name": "",
          "type": "address"
        }
      ],
      "stateMutability": "view",
      "type": "function"
    },
    {
      "inputs": [
        {
          "internalType": "string",
          "name": "name",
          "type": "string"
        }
      ],
      "name": "getExtensionVersion",
      "outputs": [
        {
          "components": [
            {
              "internalType": "uint16",
              "name": "major",
              "type": "uint16"
            },
            {
              "internalType": "uint16",
              "name": "minor",
              "type": "uint16"
            }
          ],
          "internalType": "struct Version",
          "name": "",
          "type": "tuple"
        }
      ],
      "stateMutability": "view",
      "type": "function"
    },
    {
      "inputs": [
        {
          "internalType": "string",
          "name": "name",
          "type": "string"
        },
        {
          "components": [
            {
              "internalType": "uint16",
              "name": "major",
              "type": "uint16"
            },
            {
              "internalType": "uint16",
              "name": "minor",
              "type": "uint16"
            }
          ],
          "internalType": "struct Version",
          "name": "version",
          "type": "tuple"
        }
      ],
      "name": "hasExtension",
      "outputs": [
        {
          "internalType": "bool",
          "name": "",
          "type": "bool"
        }
      ],
      "stateMutability": "view",
      "type": "function"
    },
    {
      "inputs": [
        {
          "components": [
            {
              "internalType": "address",
              "name": "owner",
              "type": "address"
            },
            {
              "internalType": "address",
              "name": "termsOwner",
              "type": "address"
            },
            {
              "internalType": "address",
              "name": "registry",
              "type": "address"
            },
            {
              "internalType": "string",
              "name": "name",
              "type": "string"
            },
            {
              "components": [
                {
                  "internalType": "string",
                  "name": "x",
                  "type": "string"
                },
                {
                  "internalType": "string",
                  "name": "y",
                  "type": "string"
                },
                {
                  "internalType": "string",
                  "name": "z",
                  "type": "string"
                },
                {
                  "internalType": "uint256",
                  "name": "t",
                  "type": "uint256"
                },
                {
                  "internalType": "uint256",
                  "name": "p",
                  "type": "uint256"
                },
                {
                  "internalType": "uint256",
                  "name": "p_sub",
                  "type": "uint256"
                }
              ],
              "internalType": "struct VectorAddress",
              "name": "vector",
              "type": "tuple"
            },
            {
              "internalType": "bytes",
              "name": "initData",
              "type": "bytes"
            }
          ],
          "internalType": "struct CommonInitArgs",
          "name": "args",
          "type": "tuple"
        }
      ],
      "name": "init",
      "outputs": [],
      "stateMutability": "nonpayable",
      "type": "function"
    },
    {
      "inputs": [],
      "name": "location",
      "outputs": [
        {
          "internalType": "address",
          "name": "",
          "type": "address"
        }
      ],
      "stateMutability": "view",
      "type": "function"
    },
    {
      "inputs": [],
      "name": "name",
      "outputs": [
        {
          "internalType": "string",
          "name": "",
          "type": "string"
        }
      ],
      "stateMutability": "view",
      "type": "function"
    },
    {
      "inputs": [
        {
          "internalType": "bytes",
          "name": "details",
          "type": "bytes"
        }
      ],
      "name": "setAppearanceDetails",
      "outputs": [],
      "stateMutability": "nonpayable",
      "type": "function"
    },
    {
      "inputs": [
        {
          "internalType": "bool",
          "name": "canReceive",
          "type": "bool"
        }
      ],
      "name": "setCanReceiveTokensOutsideOfExperience",
      "outputs": [],
      "stateMutability": "nonpayable",
      "type": "function"
    },
    {
      "inputs": [],
      "name": "username",
      "outputs": [
        {
          "internalType": "string",
          "name": "",
          "type": "string"
        }
      ],
      "stateMutability": "view",
      "type": "function"
    },
    {
      "inputs": [],
      "name": "version",
      "outputs": [
        {
          "components": [
            {
              "internalType": "uint16",
              "name": "major",
              "type": "uint16"
            },
            {
              "internalType": "uint16",
              "name": "minor",
              "type": "uint16"
            }
          ],
          "internalType": "struct Version",
          "name": "",
          "type": "tuple"
        }
      ],
      "stateMutability": "pure",
      "type": "function"
    },
    {
      "inputs": [
        {
          "internalType": "uint256",
          "name": "amount",
          "type": "uint256"
        }
      ],
      "name": "withdraw",
      "outputs": [],
      "stateMutability": "nonpayable",
      "type": "function"
    },
    {
      "inputs": [],
      "name": "worldRegistry",
      "outputs": [
        {
          "internalType": "contract IWorldRegistry",
          "name": "",
          "type": "address"
        }
      ],
      "stateMutability": "view",
      "type": "function"
    },
    {
      "stateMutability": "payable",
      "type": "receive"
    }
  ],
  "bytecode": "0x6101006040523480156200001257600080fd5b5060405162001d9a38038062001d9a833981016040819052620000359162000260565b80516001600160a01b038116620000b95760405162461bcd60e51b815260206004820152603660248201527f456e746974795368656c6c3a20657874656e73696f6e207265736f6c7665722060448201527f63616e6e6f74206265207a65726f20616464726573730000000000000000000060648201526084015b60405180910390fd5b6001600160a01b03908116608052602082015116620001315760405162461bcd60e51b815260206004820152602d60248201527f4176617461723a206f776e696e6752656769737472792063616e6e6f7420626560448201526c207a65726f206164647265737360981b6064820152608401620000b0565b60408101516001600160a01b0316620001a25760405162461bcd60e51b815260206004820152602c60248201527f4176617461723a20776f726c6452656769737472792063616e6e6f742062652060448201526b7a65726f206164647265737360a01b6064820152608401620000b0565b60608101516001600160a01b0316620002185760405162461bcd60e51b815260206004820152603160248201527f4176617461723a20657870657269656e636552656769737472792063616e6e6f60448201527074206265207a65726f206164647265737360781b6064820152608401620000b0565b6020810180516001600160a01b0390811660c0529051811660a0526060909101511660e052620002f4565b80516001600160a01b03811681146200025b57600080fd5b919050565b6000608082840312156200027357600080fd5b604051608081016001600160401b0381118282101715620002a457634e487b7160e01b600052604160045260246000fd5b604052620002b28362000243565b8152620002c26020840162000243565b6020820152620002d56040840162000243565b6040820152620002e86060840162000243565b60608201529392505050565b60805160a05160c05160e051611a4962000351600039600081816102e60152610b4101526000818161031a015261082c015260006103c201526000818161038e015281816104030152818161052a01526107840152611a496000f3fe60806040526004361061010d5760003560e01c806369a10a1211610095578063949a1ddc11610064578063949a1ddc1461033c5780639d870bf61461035c578063dd2a44c11461037c578063e3d7ad73146103b0578063f890d7c9146103e457610114565b806369a10a121461029f5780638970220e146102bf5780638f09a6be146102d4578063911c2a8c1461030857610114565b80632e1a7d4d116100dc5780632e1a7d4d146101f857806347d1d09a1461021a578063516f279e1461023a57806354fd4d501461026757806361fac54d1461016f57610114565b806303f7d3ba1461013c57806306fdde031461016f578063181d939b14610191578063238a0386146101b657610114565b3661011457005b600080356001600160e01b03191690506000610132826000366103f9565b9050805160208201f35b34801561014857600080fd5b5061015c610157366004611214565b61042f565b6040519081526020015b60405180910390f35b34801561017b57600080fd5b5061018461045b565b6040516101669190611281565b34801561019d57600080fd5b506101a66104f6565b6040519015158152602001610166565b3480156101c257600080fd5b506101d66101d1366004611337565b610509565b60408051825161ffff9081168252602093840151169281019290925201610166565b34801561020457600080fd5b5061021861021336600461136c565b6105ad565b005b34801561022657600080fd5b506101a6610235366004611385565b61076a565b34801561024657600080fd5b5061024f610803565b6040516001600160a01b039091168152602001610166565b34801561027357600080fd5b5060408051808201825260008082526020918201819052825180840190935260018352908201526101d6565b3480156102ab57600080fd5b506102186102ba3660046113df565b610821565b3480156102cb57600080fd5b50610184610d1f565b3480156102e057600080fd5b5061024f7f000000000000000000000000000000000000000000000000000000000000000081565b34801561031457600080fd5b5061024f7f000000000000000000000000000000000000000000000000000000000000000081565b34801561034857600080fd5b50610218610357366004611337565b610d37565b34801561036857600080fd5b50610218610377366004611428565b610e1b565b34801561038857600080fd5b5061024f7f000000000000000000000000000000000000000000000000000000000000000081565b3480156103bc57600080fd5b5061024f7f000000000000000000000000000000000000000000000000000000000000000081565b3480156103f057600080fd5b5061015c610f03565b60606104278484847f0000000000000000000000000000000000000000000000000000000000000000610f16565b949350505050565b6000610439611048565b6001600160a01b03909216600090815260019290920160205250604090205490565b60606104656110d5565b600201805461047390611445565b80601f016020809104026020016040519081016040528092919081815260200182805461049f90611445565b80156104ec5780601f106104c1576101008083540402835291602001916104ec565b820191906000526020600020905b8154815290600101906020018083116104cf57829003601f168201915b5050505050905090565b6000610500611048565b5460ff16919050565b6040805180820182526000808252602082015290516311c501c360e11b81527f00000000000000000000000000000000000000000000000000000000000000006001600160a01b03169063238a038690610567908590600401611281565b6040805180830381865afa158015610583573d6000803e3d6000fd5b505050506040513d601f19601f820116820180604052508101906105a7919061148f565b92915050565b604051630935e01b60e21b815233600482015273__$a5a42e46683ad9c79b7b86d5ff60fdf4c1$__906324d7806c90602401602060405180830381865af41580156105fc573d6000803e3d6000fd5b505050506040513d601f19601f8201168201806040525081019061062091906114ee565b6106715760405162461bcd60e51b815260206004820181905260248201527f42617369635368656c6c3a207265737472696374656420746f2061646d696e7360448201526064015b60405180910390fd5b478111156106c15760405162461bcd60e51b815260206004820181905260248201527f42617369635368656c6c3a20696e73756666696369656e742062616c616e63656044820152606401610668565b73__$a5a42e46683ad9c79b7b86d5ff60fdf4c1$__638da5cb5b6040518163ffffffff1660e01b8152600401602060405180830381865af415801561070a573d6000803e3d6000fd5b505050506040513d601f19601f8201168201806040525081019061072e919061150b565b6001600160a01b03166108fc829081150290604051600060405180830381858888f19350505050158015610766573d6000803e3d6000fd5b5050565b6040516323e8e84d60e11b81526000906001600160a01b037f000000000000000000000000000000000000000000000000000000000000000016906347d1d09a906107bb9086908690600401611528565b602060405180830381865afa1580156107d8573d6000803e3d6000fd5b505050506040513d601f19601f820116820180604052508101906107fc91906114ee565b9392505050565b600061080d611048565b5461010090046001600160a01b0316919050565b336001600160a01b037f000000000000000000000000000000000000000000000000000000000000000016146108995760405162461bcd60e51b815260206004820152601c60248201527f436f6d70616e793a206f6e6c7920776f726c64207265676973747279000000006044820152606401610668565b60006108ab6040830160208401611214565b6001600160a01b0316036109125760405162461bcd60e51b815260206004820152602860248201527f436f6d70616e793a207465726d73206f776e657220697320746865207a65726f604482015267206164647265737360c01b6064820152608401610668565b60006109216060830183611574565b9050116109705760405162461bcd60e51b815260206004820152601d60248201527f436f6d70616e793a206e616d652063616e6e6f7420626520656d7074790000006044820152606401610668565b60408051600080825260208201909252905073__$a5a42e46683ad9c79b7b86d5ff60fdf4c1$__63d9ac971f6109a96020850185611214565b836040518363ffffffff1660e01b81526004016109c79291906115c2565b60006040518083038186803b1580156109df57600080fd5b505af41580156109f3573d6000803e3d6000fd5b505050506000610a016110d5565b805460ff191660011781559050610a1b6060840184611574565b6002830191610a2b919083611684565b50610a39608084018461173f565b60038201610a47828261175f565b50610a5a90506040840160208501611214565b81546001600160a01b0391909116620100000262010000600160b01b03199091161781556000610a88611048565b90506000610a9960a0860186611574565b810190610aa6919061187d565b60208101519091506001600160a01b0316610b1d5760405162461bcd60e51b815260206004820152603160248201527f4176617461723a2064656661756c7420657870657269656e63652063616e6e6f60448201527074206265207a65726f206164647265737360781b6064820152608401610668565b602081015160405163c3c5a54760e01b81526001600160a01b0391821660048201527f00000000000000000000000000000000000000000000000000000000000000009091169063c3c5a54790602401602060405180830381865afa158015610b8a573d6000803e3d6000fd5b505050506040513d601f19601f82011682018060405250810190610bae91906114ee565b610c0f5760405162461bcd60e51b815260206004820152602c60248201527f4176617461723a2064656661756c7420657870657269656e6365206973206e6f60448201526b1d081c9959da5cdd195c995960a21b6064820152608401610668565b80602001516001600160a01b03166386b70bed6040518163ffffffff1660e01b8152600401602060405180830381865afa158015610c51573d6000803e3d6000fd5b505050506040513d601f19601f82011682018060405250810190610c7591906114ee565b610cd25760405162461bcd60e51b815260206004820152602860248201527f4176617461723a2064656661756c7420657870657269656e6365206973206e6f604482015267742061637469766560c01b6064820152608401610668565b8051825460ff191690151517825560408101516003830190610cf49082611926565b506020015181546001600160a01b0390911661010002610100600160a81b0319909116179055505050565b6060610d29611048565b600301805461047390611445565b336001600160a01b031673__$a5a42e46683ad9c79b7b86d5ff60fdf4c1$__638da5cb5b6040518163ffffffff1660e01b8152600401602060405180830381865af4158015610d8a573d6000803e3d6000fd5b505050506040513d601f19601f82011682018060405250810190610dae919061150b565b6001600160a01b031614610e045760405162461bcd60e51b815260206004820152601f60248201527f4176617461723a2063616c6c6572206973206e6f7420746865206f776e6572006044820152606401610668565b80610e0d611048565b600301906107669082611926565b336001600160a01b031673__$a5a42e46683ad9c79b7b86d5ff60fdf4c1$__638da5cb5b6040518163ffffffff1660e01b8152600401602060405180830381865af4158015610e6e573d6000803e3d6000fd5b505050506040513d601f19601f82011682018060405250810190610e92919061150b565b6001600160a01b031614610ee85760405162461bcd60e51b815260206004820152601f60248201527f4176617461723a2063616c6c6572206973206e6f7420746865206f776e6572006044820152606401610668565b80610ef1611048565b805460ff191691151591909117905550565b6000610f0d611048565b60020154905090565b6040516337b4746960e11b81526001600160e01b0319851660048201526060906000906001600160a01b03841690636f68e8d290602401602060405180830381865afa158015610f6a573d6000803e3d6000fd5b505050506040513d601f19601f82011682018060405250810190610f8e919061150b565b90506001600160a01b038116610ffe5760405162461bcd60e51b815260206004820152602f60248201527f4c6962457874656e73696f6e3a206e6f20657874656e73696f6e20737570706f60448201526e393a399033371039b2b632b1ba37b960891b6064820152608401610668565b61103e8186868080601f01602080910402602001604051908101604052809392919081815260200183838082843760009201919091525061113a92505050565b9695505050505050565b60408051808201909152601481527378722e6176617461722e73746f726167652e763160601b60209091015260008060ff6110a460017f4fd0b807f0bccdb8b9f7d6f3136b4bff018fd299ff833e7b8768182dc5b9a5326119e0565b6040516020016110b691815260200190565b60408051601f1981840301815291905280516020909101201692915050565b60408051808201909152601881527f78722e61637469766174696f6e2e73746f726167652e7631000000000000000060209091015260008060ff6110a460017ff6611e962a52dbc98dd0485088d920890c43e26113c61976f6e171a29d49ce496119e0565b6060600080846001600160a01b0316846040516111579190611a01565b600060405180830381855af49150503d8060008114611192576040519150601f19603f3d011682016040523d82523d6000602084013e611197565b606091505b509150915081156111ab5791506105a79050565b8051156111bb5780518082602001fd5b60405162461bcd60e51b8152602060048201526016602482015275119d5b98dd1a5bdb8818d85b1b081c995d995c9d195960521b6044820152606401610668565b6001600160a01b038116811461121157600080fd5b50565b60006020828403121561122657600080fd5b81356107fc816111fc565b60005b8381101561124c578181015183820152602001611234565b50506000910152565b6000815180845261126d816020860160208601611231565b601f01601f19169290920160200192915050565b6020815260006107fc6020830184611255565b634e487b7160e01b600052604160045260246000fd5b600082601f8301126112bb57600080fd5b813567ffffffffffffffff808211156112d6576112d6611294565b604051601f8301601f19908116603f011681019082821181831017156112fe576112fe611294565b8160405283815286602085880101111561131757600080fd5b836020870160208301376000602085830101528094505050505092915050565b60006020828403121561134957600080fd5b813567ffffffffffffffff81111561136057600080fd5b610427848285016112aa565b60006020828403121561137e57600080fd5b5035919050565b600080828403606081121561139957600080fd5b833567ffffffffffffffff8111156113b057600080fd5b6113bc868287016112aa565b9350506040601f19820112156113d157600080fd5b506020830190509250929050565b6000602082840312156113f157600080fd5b813567ffffffffffffffff81111561140857600080fd5b820160c081850312156107fc57600080fd5b801515811461121157600080fd5b60006020828403121561143a57600080fd5b81356107fc8161141a565b600181811c9082168061145957607f821691505b60208210810361147957634e487b7160e01b600052602260045260246000fd5b50919050565b61ffff8116811461121157600080fd5b6000604082840312156114a157600080fd5b6040516040810181811067ffffffffffffffff821117156114c4576114c4611294565b60405282516114d28161147f565b815260208301516114e28161147f565b60208201529392505050565b60006020828403121561150057600080fd5b81516107fc8161141a565b60006020828403121561151d57600080fd5b81516107fc816111fc565b60608152600061153b6060830185611255565b905082356115488161147f565b61ffff8082166020850152602085013591506115638261147f565b808216604085015250509392505050565b6000808335601e1984360301811261158b57600080fd5b83018035915067ffffffffffffffff8211156115a657600080fd5b6020019150368190038213156115bb57600080fd5b9250929050565b6001600160a01b038381168252604060208084018290528451918401829052600092858201929091906060860190855b818110156116105785518516835294830194918301916001016115f2565b509098975050505050505050565b601f82111561166a576000816000526020600020601f850160051c810160208610156116475750805b601f850160051c820191505b8181101561166657828155600101611653565b5050505b505050565b600019600383901b1c191660019190911b1790565b67ffffffffffffffff83111561169c5761169c611294565b6116b0836116aa8354611445565b8361161e565b6000601f8411600181146116de57600085156116cc5750838201355b6116d6868261166f565b845550611738565b600083815260209020601f19861690835b8281101561170f57868501358255602094850194600190920191016116ef565b508682101561172c5760001960f88860031b161c19848701351681555b505060018560011b0183555b5050505050565b6000823560be1983360301811261175557600080fd5b9190910192915050565b6117698283611574565b67ffffffffffffffff81111561178157611781611294565b6117958161178f8554611445565b8561161e565b6000601f8211600181146117c357600083156117b15750838201355b6117bb848261166f565b86555061181d565b600085815260209020601f19841690835b828110156117f457868501358255602094850194600190920191016117d4565b50848210156118115760001960f88660031b161c19848701351681555b505060018360011b0185555b5050505061182e6020830183611574565b61183c818360018601611684565b505061184b6040830183611574565b611859818360028601611684565b5050606082013560038201556080820135600482015560a082013560058201555050565b60006020828403121561188f57600080fd5b813567ffffffffffffffff808211156118a757600080fd5b90830190606082860312156118bb57600080fd5b6040516060810181811083821117156118d6576118d6611294565b60405282356118e48161141a565b815260208301356118f4816111fc565b602082015260408301358281111561190b57600080fd5b611917878286016112aa565b60408301525095945050505050565b815167ffffffffffffffff81111561194057611940611294565b6119548161194e8454611445565b8461161e565b602080601f83116001811461198357600084156119715750858301515b61197b858261166f565b865550611666565b600085815260208120601f198616915b828110156119b257888601518255948401946001909101908401611993565b50858210156119d05787850151600019600388901b60f8161c191681555b5050505050600190811b01905550565b818103818111156105a757634e487b7160e01b600052601160045260246000fd5b6000825161175581846020870161123156fea2646970667358221220df99c1b211a77b58bb84fb4ec0466019e9908e855b9f60a910b1ce2549c0eef864736f6c63430008180033",
  "linkReferences": {
    "contracts/libraries/LibAccess.sol": {
      "LibAccess": [
        {
          "length": 20,
          "start": 2323
        },
        {
          "length": 20,
          "start": 2580
        },
        {
          "length": 20,
          "start": 3285
        },
        {
          "length": 20,
          "start": 4244
        },
        {
          "length": 20,
          "start": 4472
        }
      ]
    }
  },
  "deployedLinkReferences": {
    "contracts/libraries/LibAccess.sol": {
      "LibAccess": [
        {
          "length": 20,
          "start": 1474
        },
        {
          "length": 20,
          "start": 1731
        },
        {
          "length": 20,
          "start": 2436
        },
        {
          "length": 20,
          "start": 3395
        },
        {
          "length": 20,
          "start": 3623
        }
      ]
    }
  }
}