{
  "_format": "hh-sol-artifact-1",
  "contractName": "AvatarExtResolver",
  "sourceName": "contracts/avatar/instance/AvatarExtResolver.sol",
  "abi": [
    {
      "inputs": [
        {
          "components": [
            {
              "internalType": "contract ICoreExtensionRegistry",
              "name": "extensionsRegistry",
              "type": "address"
            },
            {
              "internalType": "address",
              "name": "owner",
              "type": "address"
            },
            {
              "internalType": "address[]",
              "name": "admins",
              "type": "address[]"
            }
          ],
          "internalType": "struct BaseExtResolverConstructorArgs",
          "name": "args",
          "type": "tuple"
        }
      ],
      "stateMutability": "nonpayable",
      "type": "constructor"
    },
    {
      "anonymous": false,
      "inputs": [
        {
          "indexed": false,
          "internalType": "string",
          "name": "name",
          "type": "string"
        }
      ],
      "name": "ExtensionDisabled",
      "type": "event"
    },
    {
      "anonymous": false,
      "inputs": [
        {
          "indexed": false,
          "internalType": "string",
          "name": "name",
          "type": "string"
        }
      ],
      "name": "ExtensionEnabled",
      "type": "event"
    },
    {
      "anonymous": false,
      "inputs": [
        {
          "indexed": false,
          "internalType": "string",
          "name": "name",
          "type": "string"
        },
        {
          "components": [
            {
              "internalType": "uint16",
              "name": "major",
              "type": "uint16"
            },
            {
              "internalType": "uint16",
              "name": "minor",
              "type": "uint16"
            }
          ],
          "indexed": false,
          "internalType": "struct Version",
          "name": "version",
          "type": "tuple"
        }
      ],
      "name": "ExtensionInstalled",
      "type": "event"
    },
    {
      "anonymous": false,
      "inputs": [
        {
          "indexed": false,
          "internalType": "string",
          "name": "name",
          "type": "string"
        },
        {
          "components": [
            {
              "internalType": "uint16",
              "name": "major",
              "type": "uint16"
            },
            {
              "internalType": "uint16",
              "name": "minor",
              "type": "uint16"
            }
          ],
          "indexed": false,
          "internalType": "struct Version",
          "name": "version",
          "type": "tuple"
        }
      ],
      "name": "ExtensionRolledBack",
      "type": "event"
    },
    {
      "anonymous": false,
      "inputs": [
        {
          "indexed": false,
          "internalType": "string",
          "name": "name",
          "type": "string"
        },
        {
          "components": [
            {
              "internalType": "uint16",
              "name": "major",
              "type": "uint16"
            },
            {
              "internalType": "uint16",
              "name": "minor",
              "type": "uint16"
            }
          ],
          "indexed": false,
          "internalType": "struct Version",
          "name": "version",
          "type": "tuple"
        }
      ],
      "name": "ExtensionUpgraded",
      "type": "event"
    },
    {
      "anonymous": false,
      "inputs": [
        {
          "indexed": false,
          "internalType": "bytes4",
          "name": "selector",
          "type": "bytes4"
        }
      ],
      "name": "SelectorDisabled",
      "type": "event"
    },
    {
      "anonymous": false,
      "inputs": [
        {
          "indexed": false,
          "internalType": "bytes4",
          "name": "selector",
          "type": "bytes4"
        }
      ],
      "name": "SelectorEnabled",
      "type": "event"
    },
    {
      "stateMutability": "nonpayable",
      "type": "fallback"
    },
    {
      "inputs": [
        {
          "internalType": "address[]",
          "name": "signers",
          "type": "address[]"
        }
      ],
      "name": "addSigners",
      "outputs": [],
      "stateMutability": "nonpayable",
      "type": "function"
    },
    {
      "inputs": [
        {
          "internalType": "address",
          "name": "newOwner",
          "type": "address"
        }
      ],
      "name": "changeOwner",
      "outputs": [],
      "stateMutability": "nonpayable",
      "type": "function"
    },
    {
      "inputs": [],
      "name": "extRegistry",
      "outputs": [
        {
          "internalType": "contract ICoreExtensionRegistry",
          "name": "",
          "type": "address"
        }
      ],
      "stateMutability": "view",
      "type": "function"
    },
    {
      "inputs": [
        {
          "internalType": "string",
          "name": "name",
          "type": "string"
        }
      ],
      "name": "getExtensionVersion",
      "outputs": [
        {
          "components": [
            {
              "internalType": "uint16",
              "name": "major",
              "type": "uint16"
            },
            {
              "internalType": "uint16",
              "name": "minor",
              "type": "uint16"
            }
          ],
          "internalType": "struct Version",
          "name": "",
          "type": "tuple"
        }
      ],
      "stateMutability": "view",
      "type": "function"
    },
    {
      "inputs": [
        {
          "internalType": "bytes32",
          "name": "role",
          "type": "bytes32"
        },
        {
          "internalType": "address",
          "name": "account",
          "type": "address"
        }
      ],
      "name": "grantRole",
      "outputs": [],
      "stateMutability": "nonpayable",
      "type": "function"
    },
    {
      "inputs": [
        {
          "internalType": "string",
          "name": "name",
          "type": "string"
        },
        {
          "components": [
            {
              "internalType": "uint16",
              "name": "major",
              "type": "uint16"
            },
            {
              "internalType": "uint16",
              "name": "minor",
              "type": "uint16"
            }
          ],
          "internalType": "struct Version",
          "name": "version",
          "type": "tuple"
        }
      ],
      "name": "hasExtension",
      "outputs": [
        {
          "internalType": "bool",
          "name": "",
          "type": "bool"
        }
      ],
      "stateMutability": "view",
      "type": "function"
    },
    {
      "inputs": [
        {
          "internalType": "bytes32",
          "name": "role",
          "type": "bytes32"
        },
        {
          "internalType": "address",
          "name": "account",
          "type": "address"
        }
      ],
      "name": "hasRole",
      "outputs": [
        {
          "internalType": "bool",
          "name": "",
          "type": "bool"
        }
      ],
      "stateMutability": "view",
      "type": "function"
    },
    {
      "inputs": [
        {
          "internalType": "address",
          "name": "account",
          "type": "address"
        }
      ],
      "name": "isAdmin",
      "outputs": [
        {
          "internalType": "bool",
          "name": "",
          "type": "bool"
        }
      ],
      "stateMutability": "view",
      "type": "function"
    },
    {
      "inputs": [
        {
          "internalType": "address",
          "name": "account",
          "type": "address"
        }
      ],
      "name": "isSigner",
      "outputs": [
        {
          "internalType": "bool",
          "name": "",
          "type": "bool"
        }
      ],
      "stateMutability": "view",
      "type": "function"
    },
    {
      "inputs": [
        {
          "internalType": "bytes4",
          "name": "selector",
          "type": "bytes4"
        }
      ],
      "name": "lookup",
      "outputs": [
        {
          "internalType": "address",
          "name": "",
          "type": "address"
        }
      ],
      "stateMutability": "view",
      "type": "function"
    },
    {
      "inputs": [],
      "name": "owner",
      "outputs": [
        {
          "internalType": "address",
          "name": "",
          "type": "address"
        }
      ],
      "stateMutability": "view",
      "type": "function"
    },
    {
      "inputs": [
        {
          "internalType": "address[]",
          "name": "signers",
          "type": "address[]"
        }
      ],
      "name": "removeSigners",
      "outputs": [],
      "stateMutability": "nonpayable",
      "type": "function"
    },
    {
      "inputs": [
        {
          "internalType": "bytes32",
          "name": "role",
          "type": "bytes32"
        },
        {
          "internalType": "address",
          "name": "account",
          "type": "address"
        }
      ],
      "name": "revokeRole",
      "outputs": [],
      "stateMutability": "nonpayable",
      "type": "function"
    },
    {
      "inputs": [
        {
          "internalType": "string",
          "name": "name",
          "type": "string"
        }
      ],
      "name": "rollbackExtension",
      "outputs": [],
      "stateMutability": "nonpayable",
      "type": "function"
    },
    {
      "inputs": [
        {
          "internalType": "string",
          "name": "name",
          "type": "string"
        }
      ],
      "name": "upgradeExtension",
      "outputs": [],
      "stateMutability": "nonpayable",
      "type": "function"
    }
  ],
  "bytecode": "0x60a06040523480156200001157600080fd5b5060405162001b7d38038062001b7d8339810160408190526200003491620004a5565b805181906001600160a01b0316620000b95760405162461bcd60e51b815260206004820152603a60248201527f426173654578745265736f6c7665723a20657874656e73696f6e20726567697360448201527f7472792063616e6e6f74206265207a65726f206164647265737300000000000060648201526084015b60405180910390fd5b60208101516001600160a01b03166200012b5760405162461bcd60e51b815260206004820152602d60248201527f426173654578745265736f6c7665723a206f776e65722063616e6e6f7420626560448201526c207a65726f206164647265737360981b6064820152608401620000b0565b80516001600160a01b03166080526020810151604080830151905163d9ac971f60e01b815273__$a5a42e46683ad9c79b7b86d5ff60fdf4c1$__9263d9ac971f926200017a92600401620005be565b60006040518083038186803b1580156200019357600080fd5b505af4158015620001a8573d6000803e3d6000fd5b506000935060019250620001ba915050565b604051908082528060200260200182016040528015620001ef57816020015b6060815260200190600190039081620001d95790505b509050604051806040016040528060098152602001681058d8d95cdcd15e1d60ba1b815250816000815181106200022a576200022a6200061c565b602090810291909101810191909152604080519182019052818152620002508162000259565b50505062000705565b60005b815151811015620004145781518051829081106200027e576200027e6200061c565b602002602001015151600003156200040b5760006080516001600160a01b031663c22707ee84600001518481518110620002bc57620002bc6200061c565b60200260200101516040518263ffffffff1660e01b8152600401620002e2919062000658565b602060405180830381865afa15801562000300573d6000803e3d6000fd5b505050506040513d601f19601f820116820180604052508101906200032691906200068d565b90506001600160a01b03811662000399576000836000015183815181106200035257620003526200061c565b60200260200101516040516020016200036c9190620006b4565b60405160208183030381529060405290508060405162461bcd60e51b8152600401620000b0919062000658565b6040516301232c8f60e01b81526001600160a01b0382166004820152819073__$307c3a572bdf5d9800a89b3fc2eb3d5604$__906301232c8f9060240160006040518083038186803b158015620003ef57600080fd5b505af415801562000404573d6000803e3d6000fd5b5050505050505b6001016200025c565b5050565b634e487b7160e01b600052604160045260246000fd5b604051606081016001600160401b038111828210171562000453576200045362000418565b60405290565b604051601f8201601f191681016001600160401b038111828210171562000484576200048462000418565b604052919050565b6001600160a01b0381168114620004a257600080fd5b50565b60006020808385031215620004b957600080fd5b82516001600160401b0380821115620004d157600080fd5b9084019060608287031215620004e657600080fd5b620004f06200042e565b8251620004fd816200048c565b8152828401516200050e816200048c565b818501526040830151828111156200052557600080fd5b80840193505086601f8401126200053b57600080fd5b82518281111562000550576200055062000418565b8060051b92506200056385840162000459565b81815292840185019285810190898511156200057e57600080fd5b948601945b84861015620005ac57855192506200059b836200048c565b828252948601949086019062000583565b60408401525090979650505050505050565b6001600160a01b038381168252604060208084018290528451918401829052600092858201929091906060860190855b818110156200060e578551851683529483019491830191600101620005ee565b509098975050505050505050565b634e487b7160e01b600052603260045260246000fd5b60005b838110156200064f57818101518382015260200162000635565b50506000910152565b60208152600082518060208401526200067981604085016020870162000632565b601f01601f19169190910160400192915050565b600060208284031215620006a057600080fd5b8151620006ad816200048c565b9392505050565b7f42617369635368656c6c3a20657874656e73696f6e206e6f7420666f756e643a8152600160fd1b602082015260008251620006f881602185016020870162000632565b9190910160210192915050565b60805161144e6200072f600039600081816101e5015281816108b20152610a9f015261144e6000f3fe608060405234801561001057600080fd5b50600436106100f55760003560e01c80638d361e4311610097578063a26d889011610066578063a26d889014610248578063a6f9dae11461025b578063d547741f1461026e578063e8906a2d14610281576100f5565b80638d361e43146102075780638da5cb5b1461021a57806391d14854146102225780639da6ecc014610235576100f5565b806347d1d09a116100d357806347d1d09a1461018f5780636f68e8d2146101a25780637df73e27146101cd5780638a854771146101e0576100f5565b8063238a03861461011d57806324d7806c146101575780632f2ff15d1461017a575b600080356001600160e01b0319169050600061011382600036610294565b9050805160208201f35b61013061012b366004610f5d565b61031f565b60408051825161ffff90811682526020938401511692810192909252015b60405180910390f35b61016a610165366004610faa565b6103ae565b604051901515815260200161014e565b61018d610188366004610fc7565b61042e565b005b61016a61019d366004610ff7565b61053d565b6101b56101b0366004611051565b6105c1565b6040516001600160a01b03909116815260200161014e565b61016a6101db366004610faa565b610640565b6101b57f000000000000000000000000000000000000000000000000000000000000000081565b61018d61021536600461107b565b610683565b6101b561074b565b61016a610230366004610fc7565b6107bf565b61018d6102433660046110f0565b610809565b61018d6102563660046110f0565b6109f6565b61018d610269366004610faa565b610bb1565b61018d61027c366004610fc7565b610cfa565b61018d61028f36600461107b565b610dd0565b6040516360fdd56160e01b815260609073__$307c3a572bdf5d9800a89b3fc2eb3d5604$__906360fdd561906102d290879087908790600401611179565b600060405180830381865af41580156102ef573d6000803e3d6000fd5b505050506040513d6000823e601f3d908101601f1916820160405261031791908101906111c9565b949350505050565b6040805180820182526000808252602082015290516311c501c360e11b815273__$307c3a572bdf5d9800a89b3fc2eb3d5604$__9063238a038690610368908590600401611263565b6040805180830381865af4158015610384573d6000803e3d6000fd5b505050506040513d601f19601f820116820180604052508101906103a89190611286565b92915050565b604051630935e01b60e21b81526001600160a01b038216600482015260009073__$a5a42e46683ad9c79b7b86d5ff60fdf4c1$__906324d7806c906024015b602060405180830381865af415801561040a573d6000803e3d6000fd5b505050506040513d601f19601f820116820180604052508101906103a891906112e5565b604051630935e01b60e21b815233600482015273__$a5a42e46683ad9c79b7b86d5ff60fdf4c1$__906324d7806c90602401602060405180830381865af415801561047d573d6000803e3d6000fd5b505050506040513d601f19601f820116820180604052508101906104a191906112e5565b6104c65760405162461bcd60e51b81526004016104bd90611307565b60405180910390fd5b604051632f2ff15d60e01b8152600481018390526001600160a01b038216602482015273__$a5a42e46683ad9c79b7b86d5ff60fdf4c1$__90632f2ff15d906044015b60006040518083038186803b15801561052157600080fd5b505af4158015610535573d6000803e3d6000fd5b505050505050565b6040516329925a7160e11b815260009073__$307c3a572bdf5d9800a89b3fc2eb3d5604$__90635324b4e290610579908690869060040161134d565b602060405180830381865af4158015610596573d6000803e3d6000fd5b505050506040513d601f19601f820116820180604052508101906105ba91906112e5565b9392505050565b604051620ffb4960ea1b81526001600160e01b03198216600482015260009073__$307c3a572bdf5d9800a89b3fc2eb3d5604$__90633fed240090602401602060405180830381865af415801561061c573d6000803e3d6000fd5b505050506040513d601f19601f820116820180604052508101906103a89190611399565b604051637df73e2760e01b81526001600160a01b038216600482015260009073__$a5a42e46683ad9c79b7b86d5ff60fdf4c1$__90637df73e27906024016103ed565b604051630935e01b60e21b815233600482015273__$a5a42e46683ad9c79b7b86d5ff60fdf4c1$__906324d7806c90602401602060405180830381865af41580156106d2573d6000803e3d6000fd5b505050506040513d601f19601f820116820180604052508101906106f691906112e5565b6107125760405162461bcd60e51b81526004016104bd90611307565b604051638d361e4360e01b815273__$a5a42e46683ad9c79b7b86d5ff60fdf4c1$__90638d361e439061050990859085906004016113b6565b600073__$a5a42e46683ad9c79b7b86d5ff60fdf4c1$__638da5cb5b6040518163ffffffff1660e01b8152600401602060405180830381865af4158015610796573d6000803e3d6000fd5b505050506040513d601f19601f820116820180604052508101906107ba9190611399565b905090565b604051632474521560e21b8152600481018390526001600160a01b038216602482015260009073__$a5a42e46683ad9c79b7b86d5ff60fdf4c1$__906391d1485490604401610579565b604051630935e01b60e21b815233600482015273__$a5a42e46683ad9c79b7b86d5ff60fdf4c1$__906324d7806c90602401602060405180830381865af4158015610858573d6000803e3d6000fd5b505050506040513d601f19601f8201168201806040525081019061087c91906112e5565b6108985760405162461bcd60e51b81526004016104bd90611307565b60405163611383f760e11b81526000906001600160a01b037f0000000000000000000000000000000000000000000000000000000000000000169063c22707ee906108e99086908690600401611404565b602060405180830381865afa158015610906573d6000803e3d6000fd5b505050506040513d601f19601f8201168201806040525081019061092a9190611399565b90506001600160a01b0381166109825760405162461bcd60e51b815260206004820152601f60248201527f42617369635368656c6c3a20657874656e73696f6e206e6f7420666f756e640060448201526064016104bd565b604051634c6f7da360e01b81526001600160a01b0382166004820152819073__$307c3a572bdf5d9800a89b3fc2eb3d5604$__90634c6f7da3906024015b60006040518083038186803b1580156109d857600080fd5b505af41580156109ec573d6000803e3d6000fd5b5050505050505050565b604051630935e01b60e21b815233600482015273__$a5a42e46683ad9c79b7b86d5ff60fdf4c1$__906324d7806c90602401602060405180830381865af4158015610a45573d6000803e3d6000fd5b505050506040513d601f19601f82011682018060405250810190610a6991906112e5565b610a855760405162461bcd60e51b81526004016104bd90611307565b60405163611383f760e11b81526000906001600160a01b037f0000000000000000000000000000000000000000000000000000000000000000169063c22707ee90610ad69086908690600401611404565b602060405180830381865afa158015610af3573d6000803e3d6000fd5b505050506040513d601f19601f82011682018060405250810190610b179190611399565b90506001600160a01b038116610b6f5760405162461bcd60e51b815260206004820152601f60248201527f42617369635368656c6c3a20657874656e73696f6e206e6f7420666f756e640060448201526064016104bd565b60405163e3c94b4160e01b81526001600160a01b0382166004820152819073__$307c3a572bdf5d9800a89b3fc2eb3d5604$__9063e3c94b41906024016109c0565b336001600160a01b031673__$a5a42e46683ad9c79b7b86d5ff60fdf4c1$__638da5cb5b6040518163ffffffff1660e01b8152600401602060405180830381865af4158015610c04573d6000803e3d6000fd5b505050506040513d601f19601f82011682018060405250810190610c289190611399565b6001600160a01b031614610c8c5760405162461bcd60e51b815260206004820152602560248201527f42617369634578745265736f6c7665723a207265737472696374656420746f2060448201526437bbb732b960d91b60648201526084016104bd565b6040516313af403560e01b81526001600160a01b038216600482015273__$a5a42e46683ad9c79b7b86d5ff60fdf4c1$__906313af40359060240160006040518083038186803b158015610cdf57600080fd5b505af4158015610cf3573d6000803e3d6000fd5b5050505050565b604051630935e01b60e21b815233600482015273__$a5a42e46683ad9c79b7b86d5ff60fdf4c1$__906324d7806c90602401602060405180830381865af4158015610d49573d6000803e3d6000fd5b505050506040513d601f19601f82011682018060405250810190610d6d91906112e5565b610d895760405162461bcd60e51b81526004016104bd90611307565b60405163d547741f60e01b8152600481018390526001600160a01b038216602482015273__$a5a42e46683ad9c79b7b86d5ff60fdf4c1$__9063d547741f90604401610509565b604051630935e01b60e21b815233600482015273__$a5a42e46683ad9c79b7b86d5ff60fdf4c1$__906324d7806c90602401602060405180830381865af4158015610e1f573d6000803e3d6000fd5b505050506040513d601f19601f82011682018060405250810190610e4391906112e5565b610e5f5760405162461bcd60e51b81526004016104bd90611307565b60405163e8906a2d60e01b815273__$a5a42e46683ad9c79b7b86d5ff60fdf4c1$__9063e8906a2d9061050990859085906004016113b6565b634e487b7160e01b600052604160045260246000fd5b604051601f8201601f1916810167ffffffffffffffff81118282101715610ed757610ed7610e98565b604052919050565b600067ffffffffffffffff821115610ef957610ef9610e98565b50601f01601f191660200190565b600082601f830112610f1857600080fd5b8135610f2b610f2682610edf565b610eae565b818152846020838601011115610f4057600080fd5b816020850160208301376000918101602001919091529392505050565b600060208284031215610f6f57600080fd5b813567ffffffffffffffff811115610f8657600080fd5b61031784828501610f07565b6001600160a01b0381168114610fa757600080fd5b50565b600060208284031215610fbc57600080fd5b81356105ba81610f92565b60008060408385031215610fda57600080fd5b823591506020830135610fec81610f92565b809150509250929050565b600080828403606081121561100b57600080fd5b833567ffffffffffffffff81111561102257600080fd5b61102e86828701610f07565b9350506040601f198201121561104357600080fd5b506020830190509250929050565b60006020828403121561106357600080fd5b81356001600160e01b0319811681146105ba57600080fd5b6000806020838503121561108e57600080fd5b823567ffffffffffffffff808211156110a657600080fd5b818501915085601f8301126110ba57600080fd5b8135818111156110c957600080fd5b8660208260051b85010111156110de57600080fd5b60209290920196919550909350505050565b6000806020838503121561110357600080fd5b823567ffffffffffffffff8082111561111b57600080fd5b818501915085601f83011261112f57600080fd5b81358181111561113e57600080fd5b8660208285010111156110de57600080fd5b81835281816020850137506000828201602090810191909152601f909101601f19169091010190565b63ffffffff60e01b8416815260406020820152600061119c604083018486611150565b95945050505050565b60005b838110156111c05781810151838201526020016111a8565b50506000910152565b6000602082840312156111db57600080fd5b815167ffffffffffffffff8111156111f257600080fd5b8201601f8101841361120357600080fd5b8051611211610f2682610edf565b81815285602083850101111561122657600080fd5b61119c8260208301602086016111a5565b6000815180845261124f8160208601602086016111a5565b601f01601f19169290920160200192915050565b6020815260006105ba6020830184611237565b61ffff81168114610fa757600080fd5b60006040828403121561129857600080fd5b6040516040810181811067ffffffffffffffff821117156112bb576112bb610e98565b60405282516112c981611276565b815260208301516112d981611276565b60208201529392505050565b6000602082840312156112f757600080fd5b815180151581146105ba57600080fd5b60208082526026908201527f42617369634578745265736f6c7665723a207265737472696374656420746f2060408201526561646d696e7360d01b606082015260800190565b6060815260006113606060830185611237565b9050823561136d81611276565b61ffff80821660208501526020850135915061138882611276565b808216604085015250509392505050565b6000602082840312156113ab57600080fd5b81516105ba81610f92565b60208082528181018390526000908460408401835b868110156113f95782356113de81610f92565b6001600160a01b0316825291830191908301906001016113cb565b509695505050505050565b60208152600061031760208301848661115056fea26469706673582212200e61f4642abc104e6e34c2083b5de5c1a3df7650172c3372c71b39d86510956b64736f6c63430008180033",
  "linkReferences": {
    "contracts/libraries/LibAccess.sol": {
      "LibAccess": [
        {
          "length": 20,
          "start": 338
        },
        {
          "length": 20,
          "start": 2814
        },
        {
          "length": 20,
          "start": 2930
        },
        {
          "length": 20,
          "start": 3098
        },
        {
          "length": 20,
          "start": 3472
        },
        {
          "length": 20,
          "start": 3527
        },
        {
          "length": 20,
          "start": 3664
        },
        {
          "length": 20,
          "start": 3710
        },
        {
          "length": 20,
          "start": 3862
        },
        {
          "length": 20,
          "start": 3917
        },
        {
          "length": 20,
          "start": 4410
        },
        {
          "length": 20,
          "start": 4844
        },
        {
          "length": 20,
          "start": 5081
        },
        {
          "length": 20,
          "start": 5182
        },
        {
          "length": 20,
          "start": 5341
        },
        {
          "length": 20,
          "start": 5396
        },
        {
          "length": 20,
          "start": 5533
        }
      ]
    },
    "contracts/libraries/LibExtensions.sol": {
      "LibExtensions": [
        {
          "length": 20,
          "start": 953
        },
        {
          "length": 20,
          "start": 2517
        },
        {
          "length": 20,
          "start": 2671
        },
        {
          "length": 20,
          "start": 3198
        },
        {
          "length": 20,
          "start": 3345
        },
        {
          "length": 20,
          "start": 4305
        },
        {
          "length": 20,
          "start": 4798
        }
      ]
    }
  },
  "deployedLinkReferences": {
    "contracts/libraries/LibAccess.sol": {
      "LibAccess": [
        {
          "length": 20,
          "start": 975
        },
        {
          "length": 20,
          "start": 1091
        },
        {
          "length": 20,
          "start": 1259
        },
        {
          "length": 20,
          "start": 1633
        },
        {
          "length": 20,
          "start": 1688
        },
        {
          "length": 20,
          "start": 1825
        },
        {
          "length": 20,
          "start": 1871
        },
        {
          "length": 20,
          "start": 2023
        },
        {
          "length": 20,
          "start": 2078
        },
        {
          "length": 20,
          "start": 2571
        },
        {
          "length": 20,
          "start": 3005
        },
        {
          "length": 20,
          "start": 3242
        },
        {
          "length": 20,
          "start": 3343
        },
        {
          "length": 20,
          "start": 3502
        },
        {
          "length": 20,
          "start": 3557
        },
        {
          "length": 20,
          "start": 3694
        }
      ]
    },
    "contracts/libraries/LibExtensions.sol": {
      "LibExtensions": [
        {
          "length": 20,
          "start": 678
        },
        {
          "length": 20,
          "start": 832
        },
        {
          "length": 20,
          "start": 1359
        },
        {
          "length": 20,
          "start": 1506
        },
        {
          "length": 20,
          "start": 2466
        },
        {
          "length": 20,
          "start": 2959
        }
      ]
    }
  }
}