{
  "_format": "hh-sol-artifact-1",
  "contractName": "Avatar",
  "sourceName": "contracts/avatar/instance/Avatar.sol",
  "abi": [
    {
      "inputs": [
        {
          "components": [
            {
              "internalType": "address",
              "name": "avatarRegistry",
              "type": "address"
            },
            {
              "internalType": "address",
              "name": "companyRegistry",
              "type": "address"
            },
            {
              "internalType": "address",
              "name": "experienceRegistry",
              "type": "address"
            },
            {
              "internalType": "address",
              "name": "portalRegistry",
              "type": "address"
            },
            {
              "internalType": "address",
              "name": "erc721Registry",
              "type": "address"
            }
          ],
          "internalType": "struct AvatarConstructorArgs",
          "name": "args",
          "type": "tuple"
        }
      ],
      "stateMutability": "nonpayable",
      "type": "constructor"
    },
    {
      "inputs": [],
      "name": "ECDSAInvalidSignature",
      "type": "error"
    },
    {
      "inputs": [
        {
          "internalType": "uint256",
          "name": "length",
          "type": "uint256"
        }
      ],
      "name": "ECDSAInvalidSignatureLength",
      "type": "error"
    },
    {
      "inputs": [
        {
          "internalType": "bytes32",
          "name": "s",
          "type": "bytes32"
        }
      ],
      "name": "ECDSAInvalidSignatureS",
      "type": "error"
    },
    {
      "inputs": [],
      "name": "ReentrancyGuardReentrantCall",
      "type": "error"
    },
    {
      "anonymous": false,
      "inputs": [
        {
          "indexed": true,
          "internalType": "bytes",
          "name": "appearanceDetails",
          "type": "bytes"
        }
      ],
      "name": "AppearanceChanged",
      "type": "event"
    },
    {
      "anonymous": false,
      "inputs": [
        {
          "indexed": true,
          "internalType": "address",
          "name": "experience",
          "type": "address"
        },
        {
          "indexed": true,
          "internalType": "uint256",
          "name": "fee",
          "type": "uint256"
        },
        {
          "indexed": false,
          "internalType": "bytes",
          "name": "connectionDetails",
          "type": "bytes"
        }
      ],
      "name": "JumpSuccess",
      "type": "event"
    },
    {
      "anonymous": false,
      "inputs": [
        {
          "indexed": true,
          "internalType": "address",
          "name": "location",
          "type": "address"
        }
      ],
      "name": "LocationChanged",
      "type": "event"
    },
    {
      "anonymous": false,
      "inputs": [
        {
          "indexed": true,
          "internalType": "address",
          "name": "wearable",
          "type": "address"
        },
        {
          "indexed": false,
          "internalType": "uint256",
          "name": "tokenId",
          "type": "uint256"
        }
      ],
      "name": "WearableAdded",
      "type": "event"
    },
    {
      "anonymous": false,
      "inputs": [
        {
          "indexed": true,
          "internalType": "address",
          "name": "wearable",
          "type": "address"
        },
        {
          "indexed": false,
          "internalType": "uint256",
          "name": "tokenId",
          "type": "uint256"
        }
      ],
      "name": "WearableRemoved",
      "type": "event"
    },
    {
      "inputs": [
        {
          "internalType": "address[]",
          "name": "signers",
          "type": "address[]"
        }
      ],
      "name": "addSigners",
      "outputs": [],
      "stateMutability": "nonpayable",
      "type": "function"
    },
    {
      "inputs": [
        {
          "components": [
            {
              "internalType": "address",
              "name": "asset",
              "type": "address"
            },
            {
              "internalType": "uint256",
              "name": "tokenId",
              "type": "uint256"
            }
          ],
          "internalType": "struct Wearable",
          "name": "wearable",
          "type": "tuple"
        }
      ],
      "name": "addWearable",
      "outputs": [],
      "stateMutability": "nonpayable",
      "type": "function"
    },
    {
      "inputs": [],
      "name": "appearanceDetails",
      "outputs": [
        {
          "internalType": "bytes",
          "name": "",
          "type": "bytes"
        }
      ],
      "stateMutability": "view",
      "type": "function"
    },
    {
      "inputs": [],
      "name": "avatarOwnerSigningNonce",
      "outputs": [
        {
          "internalType": "uint256",
          "name": "",
          "type": "uint256"
        }
      ],
      "stateMutability": "view",
      "type": "function"
    },
    {
      "inputs": [],
      "name": "avatarRegistry",
      "outputs": [
        {
          "internalType": "address",
          "name": "",
          "type": "address"
        }
      ],
      "stateMutability": "view",
      "type": "function"
    },
    {
      "inputs": [
        {
          "components": [
            {
              "internalType": "address",
              "name": "asset",
              "type": "address"
            },
            {
              "internalType": "uint256",
              "name": "tokenId",
              "type": "uint256"
            }
          ],
          "internalType": "struct Wearable",
          "name": "wearable",
          "type": "tuple"
        }
      ],
      "name": "canAddWearable",
      "outputs": [
        {
          "internalType": "bool",
          "name": "",
          "type": "bool"
        }
      ],
      "stateMutability": "view",
      "type": "function"
    },
    {
      "inputs": [],
      "name": "canReceiveTokensOutsideOfExperience",
      "outputs": [
        {
          "internalType": "bool",
          "name": "",
          "type": "bool"
        }
      ],
      "stateMutability": "view",
      "type": "function"
    },
    {
      "inputs": [
        {
          "internalType": "address",
          "name": "newOwner",
          "type": "address"
        }
      ],
      "name": "changeOwner",
      "outputs": [],
      "stateMutability": "nonpayable",
      "type": "function"
    },
    {
      "inputs": [],
      "name": "companyRegistry",
      "outputs": [
        {
          "internalType": "contract ICompanyRegistry",
          "name": "",
          "type": "address"
        }
      ],
      "stateMutability": "view",
      "type": "function"
    },
    {
      "inputs": [
        {
          "internalType": "address",
          "name": "signer",
          "type": "address"
        }
      ],
      "name": "companySigningNonce",
      "outputs": [
        {
          "internalType": "uint256",
          "name": "",
          "type": "uint256"
        }
      ],
      "stateMutability": "view",
      "type": "function"
    },
    {
      "inputs": [
        {
          "components": [
            {
              "internalType": "uint256",
              "name": "portalId",
              "type": "uint256"
            },
            {
              "internalType": "uint256",
              "name": "agreedFee",
              "type": "uint256"
            },
            {
              "internalType": "bytes",
              "name": "avatarOwnerSignature",
              "type": "bytes"
            }
          ],
          "internalType": "struct DelegatedJumpRequest",
          "name": "request",
          "type": "tuple"
        }
      ],
      "name": "delegateJump",
      "outputs": [],
      "stateMutability": "payable",
      "type": "function"
    },
    {
      "inputs": [],
      "name": "erc721Registry",
      "outputs": [
        {
          "internalType": "contract IAssetRegistry",
          "name": "",
          "type": "address"
        }
      ],
      "stateMutability": "view",
      "type": "function"
    },
    {
      "inputs": [],
      "name": "experienceRegistry",
      "outputs": [
        {
          "internalType": "contract IExperienceRegistry",
          "name": "",
          "type": "address"
        }
      ],
      "stateMutability": "view",
      "type": "function"
    },
    {
      "inputs": [],
      "name": "getWearables",
      "outputs": [
        {
          "components": [
            {
              "internalType": "address",
              "name": "asset",
              "type": "address"
            },
            {
              "internalType": "uint256",
              "name": "tokenId",
              "type": "uint256"
            }
          ],
          "internalType": "struct Wearable[]",
          "name": "",
          "type": "tuple[]"
        }
      ],
      "stateMutability": "view",
      "type": "function"
    },
    {
      "inputs": [
        {
          "internalType": "bytes32",
          "name": "role",
          "type": "bytes32"
        },
        {
          "internalType": "address",
          "name": "account",
          "type": "address"
        }
      ],
      "name": "grantRole",
      "outputs": [],
      "stateMutability": "nonpayable",
      "type": "function"
    },
    {
      "inputs": [
        {
          "internalType": "bytes32",
          "name": "role",
          "type": "bytes32"
        },
        {
          "internalType": "address",
          "name": "account",
          "type": "address"
        }
      ],
      "name": "hasRole",
      "outputs": [
        {
          "internalType": "bool",
          "name": "",
          "type": "bool"
        }
      ],
      "stateMutability": "view",
      "type": "function"
    },
    {
      "inputs": [
        {
          "internalType": "string",
          "name": "name",
          "type": "string"
        },
        {
          "internalType": "address",
          "name": "_owner",
          "type": "address"
        },
        {
          "internalType": "address",
          "name": "startingExperience",
          "type": "address"
        },
        {
          "internalType": "bytes",
          "name": "initData",
          "type": "bytes"
        }
      ],
      "name": "init",
      "outputs": [],
      "stateMutability": "nonpayable",
      "type": "function"
    },
    {
      "inputs": [
        {
          "internalType": "address",
          "name": "account",
          "type": "address"
        }
      ],
      "name": "isAdmin",
      "outputs": [
        {
          "internalType": "bool",
          "name": "",
          "type": "bool"
        }
      ],
      "stateMutability": "view",
      "type": "function"
    },
    {
      "inputs": [
        {
          "internalType": "address",
          "name": "account",
          "type": "address"
        }
      ],
      "name": "isSigner",
      "outputs": [
        {
          "internalType": "bool",
          "name": "",
          "type": "bool"
        }
      ],
      "stateMutability": "view",
      "type": "function"
    },
    {
      "inputs": [
        {
          "components": [
            {
              "internalType": "address",
              "name": "asset",
              "type": "address"
            },
            {
              "internalType": "uint256",
              "name": "tokenId",
              "type": "uint256"
            }
          ],
          "internalType": "struct Wearable",
          "name": "wearable",
          "type": "tuple"
        }
      ],
      "name": "isWearing",
      "outputs": [
        {
          "internalType": "bool",
          "name": "",
          "type": "bool"
        }
      ],
      "stateMutability": "view",
      "type": "function"
    },
    {
      "inputs": [
        {
          "components": [
            {
              "internalType": "uint256",
              "name": "portalId",
              "type": "uint256"
            },
            {
              "internalType": "uint256",
              "name": "agreedFee",
              "type": "uint256"
            },
            {
              "internalType": "bytes",
              "name": "destinationCompanySignature",
              "type": "bytes"
            }
          ],
          "internalType": "struct AvatarJumpRequest",
          "name": "request",
          "type": "tuple"
        }
      ],
      "name": "jump",
      "outputs": [],
      "stateMutability": "payable",
      "type": "function"
    },
    {
      "inputs": [],
      "name": "location",
      "outputs": [
        {
          "internalType": "address",
          "name": "",
          "type": "address"
        }
      ],
      "stateMutability": "view",
      "type": "function"
    },
    {
      "inputs": [],
      "name": "name",
      "outputs": [
        {
          "internalType": "string",
          "name": "",
          "type": "string"
        }
      ],
      "stateMutability": "view",
      "type": "function"
    },
    {
      "inputs": [
        {
          "internalType": "address",
          "name": "",
          "type": "address"
        },
        {
          "internalType": "address",
          "name": "",
          "type": "address"
        },
        {
          "internalType": "uint256",
          "name": "tokenId",
          "type": "uint256"
        },
        {
          "internalType": "bytes",
          "name": "",
          "type": "bytes"
        }
      ],
      "name": "onERC721Received",
      "outputs": [
        {
          "internalType": "bytes4",
          "name": "",
          "type": "bytes4"
        }
      ],
      "stateMutability": "nonpayable",
      "type": "function"
    },
    {
      "inputs": [
        {
          "internalType": "uint256",
          "name": "tokenId",
          "type": "uint256"
        }
      ],
      "name": "onERC721Revoked",
      "outputs": [],
      "stateMutability": "nonpayable",
      "type": "function"
    },
    {
      "inputs": [],
      "name": "owner",
      "outputs": [
        {
          "internalType": "address",
          "name": "",
          "type": "address"
        }
      ],
      "stateMutability": "view",
      "type": "function"
    },
    {
      "inputs": [],
      "name": "portalRegistry",
      "outputs": [
        {
          "internalType": "contract IPortalRegistry",
          "name": "",
          "type": "address"
        }
      ],
      "stateMutability": "view",
      "type": "function"
    },
    {
      "inputs": [
        {
          "internalType": "address[]",
          "name": "signers",
          "type": "address[]"
        }
      ],
      "name": "removeSigners",
      "outputs": [],
      "stateMutability": "nonpayable",
      "type": "function"
    },
    {
      "inputs": [
        {
          "components": [
            {
              "internalType": "address",
              "name": "asset",
              "type": "address"
            },
            {
              "internalType": "uint256",
              "name": "tokenId",
              "type": "uint256"
            }
          ],
          "internalType": "struct Wearable",
          "name": "wearable",
          "type": "tuple"
        }
      ],
      "name": "removeWearable",
      "outputs": [],
      "stateMutability": "nonpayable",
      "type": "function"
    },
    {
      "inputs": [
        {
          "internalType": "bytes32",
          "name": "role",
          "type": "bytes32"
        },
        {
          "internalType": "address",
          "name": "account",
          "type": "address"
        }
      ],
      "name": "revokeRole",
      "outputs": [],
      "stateMutability": "nonpayable",
      "type": "function"
    },
    {
      "inputs": [
        {
          "internalType": "bytes",
          "name": "details",
          "type": "bytes"
        }
      ],
      "name": "setAppearanceDetails",
      "outputs": [],
      "stateMutability": "nonpayable",
      "type": "function"
    },
    {
      "inputs": [
        {
          "internalType": "bool",
          "name": "canReceive",
          "type": "bool"
        }
      ],
      "name": "setCanReceiveTokensOutsideOfExperience",
      "outputs": [],
      "stateMutability": "nonpayable",
      "type": "function"
    },
    {
      "inputs": [],
      "name": "username",
      "outputs": [
        {
          "internalType": "string",
          "name": "",
          "type": "string"
        }
      ],
      "stateMutability": "view",
      "type": "function"
    },
    {
      "inputs": [],
      "name": "version",
      "outputs": [
        {
          "components": [
            {
              "internalType": "uint16",
              "name": "major",
              "type": "uint16"
            },
            {
              "internalType": "uint16",
              "name": "minor",
              "type": "uint16"
            }
          ],
          "internalType": "struct Version",
          "name": "",
          "type": "tuple"
        }
      ],
      "stateMutability": "pure",
      "type": "function"
    },
    {
      "inputs": [
        {
          "internalType": "uint256",
          "name": "amount",
          "type": "uint256"
        }
      ],
      "name": "withdraw",
      "outputs": [],
      "stateMutability": "nonpayable",
      "type": "function"
    },
    {
      "stateMutability": "payable",
      "type": "receive"
    }
  ],
  "bytecode": "0x6101206040523480156200001257600080fd5b506040516200415038038062004150833981016040819052620000359162000279565b600160005580516001600160a01b0316620000975760405162461bcd60e51b815260206004820181905260248201527f436f6d70616e793a20496e76616c69642061766174617220726567697374727960448201526064015b60405180910390fd5b60408101516001600160a01b0316620000ff5760405162461bcd60e51b8152602060048201526024808201527f436f6d70616e793a20496e76616c696420657870657269656e636520726567696044820152637374727960e01b60648201526084016200008e565b60208101516001600160a01b0316620001655760405162461bcd60e51b815260206004820152602160248201527f436f6d70616e793a20496e76616c696420636f6d70616e7920726567697374726044820152607960f81b60648201526084016200008e565b60808101516001600160a01b0316620001c15760405162461bcd60e51b815260206004820181905260248201527f436f6d70616e793a20496e76616c69642045524337323120726567697374727960448201526064016200008e565b60608101516001600160a01b03166200021d5760405162461bcd60e51b815260206004820181905260248201527f436f6d70616e793a20496e76616c696420706f7274616c20726567697374727960448201526064016200008e565b80516001600160a01b0390811660809081526040830151821660a0526020830151821660c052820151811660e052606090910151166101005262000320565b80516001600160a01b03811681146200027457600080fd5b919050565b600060a082840312156200028c57600080fd5b60405160a081016001600160401b0381118282101715620002bd57634e487b7160e01b600052604160045260246000fd5b604052620002cb836200025c565b8152620002db602084016200025c565b6020820152620002ee604084016200025c565b604082015262000301606084016200025c565b606082015262000314608084016200025c565b60808201529392505050565b60805160a05160c05160e05161010051613db36200039d600039600081816105bb015281816111020152818161161601526129760152600081816106230152818161095e01528181611f3601526125180152600081816105ef0152611484015260006104a70152600081816106770152611be10152613db36000f3fe6080604052600436106102085760003560e01c80638d361e4311610118578063ae2314f7116100a0578063d547741f1161006f578063d547741f14610645578063e3d7ad7314610665578063e62194f114610699578063e8906a2d146106b9578063f890d7c9146106d957600080fd5b8063ae2314f714610589578063b6664934146105a9578063c51aba2b146105dd578063ca6d44291461061157600080fd5b8063949a1ddc116100e7578063949a1ddc146104e95780639be17fbc146105095780639d870bf614610529578063a6f9dae114610549578063ac4d00611461056957600080fd5b80638d361e43146104605780638da5cb5b146104805780638f09a6be1461049557806391d14854146104c957600080fd5b8063392f56691161019b5780635cf59e1e1161016a5780635cf59e1e146103f657806361fac54d146102475780637dc759e5146104185780637df73e271461042b5780638970220e1461044b57600080fd5b8063392f566914610349578063516f279e1461035c57806354cf0b391461038957806354fd4d50146103a957600080fd5b8063181d939b116101d7578063181d939b146102c457806324d7806c146102e95780632e1a7d4d146103095780632f2ff15d1461032957600080fd5b806303f7d3ba1461021457806306fdde031461024757806312deb11a14610269578063150b7a021461028b57600080fd5b3661020f57005b600080fd5b34801561022057600080fd5b5061023461022f36600461311b565b6106ee565b6040519081526020015b60405180910390f35b34801561025357600080fd5b5061025c61071a565b60405161023e9190613188565b34801561027557600080fd5b5061028961028436600461319b565b6107b2565b005b34801561029757600080fd5b506102ab6102a63660046131fb565b610932565b6040516001600160e01b0319909116815260200161023e565b3480156102d057600080fd5b506102d9610c8e565b604051901515815260200161023e565b3480156102f557600080fd5b506102d961030436600461311b565b610ca1565b34801561031557600080fd5b5061028961032436600461326d565b610d27565b34801561033557600080fd5b50610289610344366004613286565b610e58565b610289610357366004613419565b610f5e565b34801561036857600080fd5b50610371611208565b6040516001600160a01b03909116815260200161023e565b34801561039557600080fd5b506102896103a436600461319b565b611226565b3480156103b557600080fd5b50604080518082018252600080825260209182018190528251808401845260018082529083019182528351908152905161ffff16918101919091520161023e565b34801561040257600080fd5b5061040b6113e0565b60405161023e9190613455565b610289610426366004613419565b61146f565b34801561043757600080fd5b506102d961044636600461311b565b61168e565b34801561045757600080fd5b5061025c6116d1565b34801561046c57600080fd5b5061028961047b3660046134b5565b6116e9565b34801561048c57600080fd5b506103716117b1565b3480156104a157600080fd5b506103717f000000000000000000000000000000000000000000000000000000000000000081565b3480156104d557600080fd5b506102d96104e4366004613286565b611825565b3480156104f557600080fd5b50610289610504366004613529565b6118b2565b34801561051557600080fd5b506102d961052436600461319b565b6119ad565b34801561053557600080fd5b50610289610544366004613578565b611a13565b34801561055557600080fd5b5061028961056436600461311b565b611acb565b34801561057557600080fd5b50610289610584366004613595565b611bd6565b34801561059557600080fd5b506102d96105a436600461319b565b611ed2565b3480156105b557600080fd5b506103717f000000000000000000000000000000000000000000000000000000000000000081565b3480156105e957600080fd5b506103717f000000000000000000000000000000000000000000000000000000000000000081565b34801561061d57600080fd5b506103717f000000000000000000000000000000000000000000000000000000000000000081565b34801561065157600080fd5b50610289610660366004613286565b612418565b34801561067157600080fd5b506103717f000000000000000000000000000000000000000000000000000000000000000081565b3480156106a557600080fd5b506102896106b436600461326d565b6124ee565b3480156106c557600080fd5b506102896106d43660046134b5565b612746565b3480156106e557600080fd5b5061023461280e565b60006106f8612821565b6001600160a01b03909216600090815260019290920160205250604090205490565b60606107246128ae565b805461072f9061362d565b80601f016020809104026020016040519081016040528092919081815260200182805461075b9061362d565b80156107a85780601f1061077d576101008083540402835291602001916107a8565b820191906000526020600020905b81548152906001019060200180831161078b57829003601f168201915b5050505050905090565b336001600160a01b031673__$a5a42e46683ad9c79b7b86d5ff60fdf4c1$__638da5cb5b6040518163ffffffff1660e01b8152600401602060405180830381865af4158015610805573d6000803e3d6000fd5b505050506040513d601f19601f820116820180604052508101906108299190613661565b6001600160a01b0316146108585760405162461bcd60e51b815260040161084f9061367e565b60405180910390fd5b61086181611ed2565b50600061086c612821565b604051630dfd3df760e11b815290915073__$c011c5c9201293cae8fa3d59d203092c54$__90631bfa7bee906108aa906004808601918791016136b5565b60006040518083038186803b1580156108c257600080fd5b505af41580156108d6573d6000803e3d6000fd5b506108e892505050602083018361311b565b6001600160a01b03167fc33fdb2e96e0dba49a8cb36af300177e6ba61804be87a31a26e27ab52596ecf2836020013560405161092691815260200190565b60405180910390a25050565b600061093c61290a565b6000610946612821565b60405163c3c5a54760e01b81523360048201529091507f00000000000000000000000000000000000000000000000000000000000000006001600160a01b03169063c3c5a54790602401602060405180830381865afa1580156109ad573d6000803e3d6000fd5b505050506040513d601f19601f820116820180604052508101906109d191906136e9565b610a345760405162461bcd60e51b815260206004820152602e60248201527f4176617461723a2045524337323120746f6b656e206e6f742066726f6d20726560448201526d19da5cdd195c995908185cdcd95d60921b606482015260840161084f565b8054339060ff16610ba2576000336001600160a01b0316631d1438486040518163ffffffff1660e01b8152600401602060405180830381865afa158015610a7f573d6000803e3d6000fd5b505050506040513d601f19601f82011682018060405250810190610aa39190613661565b905060008360000160019054906101000a90046001600160a01b03169050806001600160a01b0316636904c94d6040518163ffffffff1660e01b8152600401602060405180830381865afa158015610aff573d6000803e3d6000fd5b505050506040513d601f19601f82011682018060405250810190610b239190613661565b6001600160a01b0316826001600160a01b031614610b9f5760405162461bcd60e51b815260206004820152603360248201527f4176617461723a2063616e6e6f74207265636569766520746f6b656e73206f756044820152727473696465206f6620657870657269656e636560681b606482015260840161084f565b50505b6040516331a9108f60e11b81526004810187905230906001600160a01b03831690636352211e90602401602060405180830381865afa158015610be9573d6000803e3d6000fd5b505050506040513d601f19601f82011682018060405250810190610c0d9190613661565b6001600160a01b031614610c745760405162461bcd60e51b815260206004820152602860248201527f4176617461723a2045524337323120746f6b656e206e6f74206f776e656420626044820152673c9030bb30ba30b960c11b606482015260840161084f565b5050600160005550630a85bd0160e11b5b95945050505050565b6000610c98612821565b5460ff16919050565b604051630935e01b60e21b81526001600160a01b038216600482015260009073__$a5a42e46683ad9c79b7b86d5ff60fdf4c1$__906324d7806c906024015b602060405180830381865af4158015610cfd573d6000803e3d6000fd5b505050506040513d601f19601f82011682018060405250810190610d2191906136e9565b92915050565b336001600160a01b031673__$a5a42e46683ad9c79b7b86d5ff60fdf4c1$__638da5cb5b6040518163ffffffff1660e01b8152600401602060405180830381865af4158015610d7a573d6000803e3d6000fd5b505050506040513d601f19601f82011682018060405250810190610d9e9190613661565b6001600160a01b031614610dc45760405162461bcd60e51b815260040161084f9061367e565b47811015610e145760405162461bcd60e51b815260206004820152601c60248201527f4176617461723a20496e73756666696369656e742062616c616e636500000000604482015260640161084f565b610e1c6117b1565b6001600160a01b03166108fc829081150290604051600060405180830381858888f19350505050158015610e54573d6000803e3d6000fd5b5050565b604051630935e01b60e21b815233600482015273__$a5a42e46683ad9c79b7b86d5ff60fdf4c1$__906324d7806c90602401602060405180830381865af4158015610ea7573d6000803e3d6000fd5b505050506040513d601f19601f82011682018060405250810190610ecb91906136e9565b610ee75760405162461bcd60e51b815260040161084f90613706565b604051632f2ff15d60e01b8152600481018390526001600160a01b038216602482015273__$a5a42e46683ad9c79b7b86d5ff60fdf4c1$__90632f2ff15d906044015b60006040518083038186803b158015610f4257600080fd5b505af4158015610f56573d6000803e3d6000fd5b505050505050565b336001600160a01b031673__$a5a42e46683ad9c79b7b86d5ff60fdf4c1$__638da5cb5b6040518163ffffffff1660e01b8152600401602060405180830381865af4158015610fb1573d6000803e3d6000fd5b505050506040513d601f19601f82011682018060405250810190610fd59190613661565b6001600160a01b031614610ffb5760405162461bcd60e51b815260040161084f9061367e565b600061100682612934565b905080604001518260200151146110745760405162461bcd60e51b815260206004820152602c60248201527f4176617461723a206167726565642066656520646f6573206e6f74206d61746360448201526b6820706f7274616c2066656560a01b606482015260840161084f565b6040810151156110f257600061108a3447613751565b905081604001518110156110f05760405162461bcd60e51b815260206004820152602760248201527f4176617461723a20696e73756666696369656e742066756e647320666f72206a604482015266756d702066656560c81b606482015260840161084f565b505b60006110fc612821565b905060007f00000000000000000000000000000000000000000000000000000000000000006001600160a01b03166384c4484e846040015186600001516040518363ffffffff1660e01b815260040161115791815260200190565b60006040518083038185885af1158015611175573d6000803e3d6000fd5b50505050506040513d6000823e601f3d908101601f1916820160405261119e9190810190613764565b83518354610100600160a81b0319166101006001600160a01b039092169182021784556040808601519051929350917fe6b8160f723fcdb4c3cb8bf86e99d55e311c607a791f7503cc16dfaff3271e43906111fa908590613188565b60405180910390a350505050565b6000611212612821565b5461010090046001600160a01b0316919050565b336001600160a01b031673__$a5a42e46683ad9c79b7b86d5ff60fdf4c1$__638da5cb5b6040518163ffffffff1660e01b8152600401602060405180830381865af4158015611279573d6000803e3d6000fd5b505050506040513d601f19601f8201168201806040525081019061129d9190613661565b6001600160a01b0316146112c35760405162461bcd60e51b815260040161084f9061367e565b60006112d2602083018361311b565b6001600160a01b0316036112f85760405162461bcd60e51b815260040161084f906137d1565b600081602001351161131c5760405162461bcd60e51b815260040161084f9061381e565b6000611326612821565b6040516358888ef160e01b815290915073__$c011c5c9201293cae8fa3d59d203092c54$__906358888ef190611364906004808601918791016136b5565b60006040518083038186803b15801561137c57600080fd5b505af4158015611390573d6000803e3d6000fd5b506113a292505050602083018361311b565b6001600160a01b03167f60c3791748d09484f5d949c7570a640dad2f40bbebc2571b8f6c0e6a13e96fac836020013560405161092691815260200190565b606060006113ec612821565b6040516372a9762360e11b815260048083019082015290915073__$c011c5c9201293cae8fa3d59d203092c54$__9063e552ec4690602401600060405180830381865af4158015611441573d6000803e3d6000fd5b505050506040513d6000823e601f3d908101601f191682016040526114699190810190613865565b91505090565b60405163c3c5a54760e01b81523360048201527f00000000000000000000000000000000000000000000000000000000000000006001600160a01b03169063c3c5a54790602401602060405180830381865afa1580156114d3573d6000803e3d6000fd5b505050506040513d601f19601f820116820180604052508101906114f791906136e9565b6115435760405162461bcd60e51b815260206004820152601e60248201527f4176617461723a20436f6d70616e79206e6f7420726567697374657265640000604482015260640161084f565b336001600160a01b03166386b70bed6040518163ffffffff1660e01b8152600401602060405180830381865afa158015611581573d6000803e3d6000fd5b505050506040513d601f19601f820116820180604052508101906115a591906136e9565b6115f15760405162461bcd60e51b815260206004820152601a60248201527f4176617461723a20436f6d70616e79206e6f7420616374697665000000000000604482015260640161084f565b6115fa81612bdc565b8051604051630a22d5a160e21b81526000916001600160a01b037f0000000000000000000000000000000000000000000000000000000000000000169163288b56849161164d9160040190815260200190565b608060405180830381865afa15801561166a573d6000803e3d6000fd5b505050506040513d601f19601f82011682018060405250810190611006919061393a565b604051637df73e2760e01b81526001600160a01b038216600482015260009073__$a5a42e46683ad9c79b7b86d5ff60fdf4c1$__90637df73e2790602401610ce0565b60606116db612821565b600301805461072f9061362d565b604051630935e01b60e21b815233600482015273__$a5a42e46683ad9c79b7b86d5ff60fdf4c1$__906324d7806c90602401602060405180830381865af4158015611738573d6000803e3d6000fd5b505050506040513d601f19601f8201168201806040525081019061175c91906136e9565b6117785760405162461bcd60e51b815260040161084f90613706565b604051638d361e4360e01b815273__$a5a42e46683ad9c79b7b86d5ff60fdf4c1$__90638d361e4390610f2a90859085906004016139b5565b600073__$a5a42e46683ad9c79b7b86d5ff60fdf4c1$__638da5cb5b6040518163ffffffff1660e01b8152600401602060405180830381865af41580156117fc573d6000803e3d6000fd5b505050506040513d601f19601f820116820180604052508101906118209190613661565b905090565b604051632474521560e21b8152600481018390526001600160a01b038216602482015260009073__$a5a42e46683ad9c79b7b86d5ff60fdf4c1$__906391d1485490604401602060405180830381865af4158015611887573d6000803e3d6000fd5b505050506040513d601f19601f820116820180604052508101906118ab91906136e9565b9392505050565b336001600160a01b031673__$a5a42e46683ad9c79b7b86d5ff60fdf4c1$__638da5cb5b6040518163ffffffff1660e01b8152600401602060405180830381865af4158015611905573d6000803e3d6000fd5b505050506040513d601f19601f820116820180604052508101906119299190613661565b6001600160a01b03161461194f5760405162461bcd60e51b815260040161084f9061367e565b8181611959612821565b60030191611968919083613a50565b508181604051611979929190613b0f565b604051908190038120907fe8ed633186ac64f9f0ab9b48cb1cca12eebe0f7e0ffdc46908733a060363236690600090a25050565b6000806119b8612821565b604051633661870560e11b815290915073__$c011c5c9201293cae8fa3d59d203092c54$__90636cc30e0a906119f6906004808601918891016136b5565b602060405180830381865af4158015611887573d6000803e3d6000fd5b336001600160a01b031673__$a5a42e46683ad9c79b7b86d5ff60fdf4c1$__638da5cb5b6040518163ffffffff1660e01b8152600401602060405180830381865af4158015611a66573d6000803e3d6000fd5b505050506040513d601f19601f82011682018060405250810190611a8a9190613661565b6001600160a01b031614611ab05760405162461bcd60e51b815260040161084f9061367e565b80611ab9612821565b805460ff191691151591909117905550565b336001600160a01b031673__$a5a42e46683ad9c79b7b86d5ff60fdf4c1$__638da5cb5b6040518163ffffffff1660e01b8152600401602060405180830381865af4158015611b1e573d6000803e3d6000fd5b505050506040513d601f19601f82011682018060405250810190611b429190613661565b6001600160a01b031614611b685760405162461bcd60e51b815260040161084f9061367e565b6040516313af403560e01b81526001600160a01b038216600482015273__$a5a42e46683ad9c79b7b86d5ff60fdf4c1$__906313af40359060240160006040518083038186803b158015611bbb57600080fd5b505af4158015611bcf573d6000803e3d6000fd5b5050505050565b336001600160a01b037f00000000000000000000000000000000000000000000000000000000000000001614611c5c5760405162461bcd60e51b815260206004820152602560248201527f52656d6f7661626c65456e746974793a206f6e6c79206f776e696e6720726567604482015264697374727960d81b606482015260840161084f565b60006001600160a01b031673__$a5a42e46683ad9c79b7b86d5ff60fdf4c1$__638da5cb5b6040518163ffffffff1660e01b8152600401602060405180830381865af4158015611cb0573d6000803e3d6000fd5b505050506040513d601f19601f82011682018060405250810190611cd49190613661565b6001600160a01b031614611d2a5760405162461bcd60e51b815260206004820152601b60248201527f4176617461723a20416c726561647920696e697469616c697a65640000000000604482015260640161084f565b6001600160a01b038416611d785760405162461bcd60e51b815260206004820152601560248201527420bb30ba30b91d1024b73b30b634b21037bbb732b960591b604482015260640161084f565b6001600160a01b038316611dda5760405162461bcd60e51b815260206004820152602360248201527f4176617461723a20496e76616c6964207374617274696e6720657870657269656044820152626e636560e81b606482015260840161084f565b6040805160008152602081019182905263d9ac971f60e01b90915273__$a5a42e46683ad9c79b7b86d5ff60fdf4c1$__63d9ac971f611e1d878460248101613b1f565b60006040518083038186803b158015611e3557600080fd5b505af4158015611e49573d6000803e3d6000fd5b505050506000611e576128ae565b905080611e65888a83613a50565b506000611e7484860186613b7b565b90506000611e80612821565b825181546001600160a81b031916901515610100600160a81b031916176101006001600160a01b038a160217815560208301519091506003820190611ec59082613bfa565b5050505050505050505050565b600080611ee2602084018461311b565b6001600160a01b031603611f085760405162461bcd60e51b815260040161084f906137d1565b6000826020013511611f2c5760405162461bcd60e51b815260040161084f9061381e565b6001600160a01b037f00000000000000000000000000000000000000000000000000000000000000001663c3c5a547611f68602085018561311b565b6040516001600160e01b031960e084901b1681526001600160a01b039091166004820152602401602060405180830381865afa158015611fac573d6000803e3d6000fd5b505050506040513d601f19601f82011682018060405250810190611fd091906136e9565b61202a5760405162461bcd60e51b815260206004820152602560248201527f4176617461723a207765617261626c65206173736574206e6f742072656769736044820152641d195c995960da1b606482015260840161084f565b6000306001600160a01b031663516f279e6040518163ffffffff1660e01b8152600401602060405180830381865afa15801561206a573d6000803e3d6000fd5b505050506040513d601f19601f8201168201806040525081019061208e9190613661565b90506001600160a01b0381166120f65760405162461bcd60e51b815260206004820152602760248201527f4176617461723a206c6f636174696f6e2063616e6e6f74206265207a65726f206044820152666164647265737360c81b606482015260840161084f565b80612104602085018561311b565b6001600160a01b0316633fa47f176040518060a00160405280876000016020810190612130919061311b565b6001600160a01b03168152602001846001600160a01b03166330b67baa6040518163ffffffff1660e01b8152600401602060405180830381865afa15801561217c573d6000803e3d6000fd5b505050506040513d601f19601f820116820180604052508101906121a09190613661565b6001600160a01b03168152602001846001600160a01b0316636904c94d6040518163ffffffff1660e01b8152600401602060405180830381865afa1580156121ec573d6000803e3d6000fd5b505050506040513d601f19601f820116820180604052508101906122109190613661565b6001600160a01b03908116825286811660208084019190915230604093840152825160e086901b6001600160e01b031916815284518316600482015290840151821660248201529183015181166044830152606083015181166064830152608090920151909116608482015260a401602060405180830381865afa15801561229c573d6000803e3d6000fd5b505050506040513d601f19601f820116820180604052508101906122c091906136e9565b6123245760405162461bcd60e51b815260206004820152602f60248201527f4176617461723a207765617261626c652061737365742063616e6e6f7420626560448201526e103ab9b2b210313c9030bb30ba30b960891b606482015260840161084f565b6000612333602086018661311b565b6040516331a9108f60e11b81526020870135600482015290915030906001600160a01b03831690636352211e90602401602060405180830381865afa158015612380573d6000803e3d6000fd5b505050506040513d601f19601f820116820180604052508101906123a49190613661565b6001600160a01b03161461240d5760405162461bcd60e51b815260206004820152602a60248201527f4176617461723a207765617261626c6520746f6b656e206e6f74206f776e656460448201526910313c9030bb30ba30b960b11b606482015260840161084f565b506001949350505050565b604051630935e01b60e21b815233600482015273__$a5a42e46683ad9c79b7b86d5ff60fdf4c1$__906324d7806c90602401602060405180830381865af4158015612467573d6000803e3d6000fd5b505050506040513d601f19601f8201168201806040525081019061248b91906136e9565b6124a75760405162461bcd60e51b815260040161084f90613706565b60405163d547741f60e01b8152600481018390526001600160a01b038216602482015273__$a5a42e46683ad9c79b7b86d5ff60fdf4c1$__9063d547741f90604401610f2a565b6124f661290a565b6000612500612821565b60405163c3c5a54760e01b81523360048201529091507f00000000000000000000000000000000000000000000000000000000000000006001600160a01b03169063c3c5a54790602401602060405180830381865afa158015612567573d6000803e3d6000fd5b505050506040513d601f19601f8201168201806040525081019061258b91906136e9565b6125f55760405162461bcd60e51b815260206004820152603560248201527f4176617461723a206f6e6c79207265676973746572656420617373657473206360448201527430b71031b0b636103a3434b990333ab731ba34b7b760591b606482015260840161084f565b6040516331a9108f60e11b81526004810183905233908190636352211e90602401602060405180830381865afa92505050801561264f575060408051601f3d908101601f1916820190925261264c91810190613661565b60015b6126dc576040805180820182526001600160a01b03831681526020810185905290516358888ef160e01b815273__$c011c5c9201293cae8fa3d59d203092c54$__916358888ef1916126a79160048088019201613cb9565b60006040518083038186803b1580156126bf57600080fd5b505af41580156126d3573d6000803e3d6000fd5b50505050612737565b60405162461bcd60e51b815260206004820152602a60248201527f4176617461723a2045524337323120746f6b656e207374696c6c206f776e656460448201526910313c9030bb30ba30b960b11b606482015260840161084f565b50506127436001600055565b50565b604051630935e01b60e21b815233600482015273__$a5a42e46683ad9c79b7b86d5ff60fdf4c1$__906324d7806c90602401602060405180830381865af4158015612795573d6000803e3d6000fd5b505050506040513d601f19601f820116820180604052508101906127b991906136e9565b6127d55760405162461bcd60e51b815260040161084f90613706565b60405163e8906a2d60e01b815273__$a5a42e46683ad9c79b7b86d5ff60fdf4c1$__9063e8906a2d90610f2a90859085906004016139b5565b6000612818612821565b60020154905090565b60408051808201909152601481527378722e6176617461722e73746f726167652e763160601b60209091015260008060ff61287d60017f4fd0b807f0bccdb8b9f7d6f3136b4bff018fd299ff833e7b8768182dc5b9a532613ce0565b60405160200161288f91815260200190565b60408051601f1981840301815291905280516020909101201692915050565b60408051808201909152601481527378722e656e746974792e73746f726167652e763160601b60209091015260008060ff61287d60017fdefc82a28b6578c2a63b29b15450260a5e998242a6300b7fcb30814ee74ae188613ce0565b60026000540361292d57604051633ee5aeb560e01b815260040160405180910390fd5b6002600055565b60408051608081018252600080825260208201819052818301819052606082015282519151630a22d5a160e21b81526004810192909252906001600160a01b037f0000000000000000000000000000000000000000000000000000000000000000169063288b568490602401608060405180830381865afa1580156129bd573d6000803e3d6000fd5b505050506040513d601f19601f820116820180604052508101906129e1919061393a565b9050600081600001516001600160a01b0316636904c94d6040518163ffffffff1660e01b8152600401602060405180830381865afa158015612a27573d6000803e3d6000fd5b505050506040513d601f19601f82011682018060405250810190612a4b9190613661565b90506000612a57612821565b6001600160a01b03831660009081526001820160205260408120805492935090612a8083613cf3565b9091555084516020808701516040805192830193909352918101919091526060810182905260009060800160408051808303601f190181528282528051602091820120818452838301909252909250600091906020820181803683370190505090508160208201526000612af382612d62565b90506000612b05828a60400151612d9d565b604051637df73e2760e01b81526001600160a01b03808316600483015291925090881690637df73e2790602401602060405180830381865afa158015612b4f573d6000803e3d6000fd5b505050506040513d601f19601f82011682018060405250810190612b7391906136e9565b612bd05760405162461bcd60e51b815260206004820152602860248201527f4176617461723a20636f6d70616e79207369676e6572206973206e6f742061756044820152671d1a1bdc9a5e995960c21b606482015260840161084f565b50505050505050919050565b6000612be6612821565b6002810180549192506000612bfa83613cf3565b9091555082516020808501516040805192830193909352918101919091526060810182905260009060800160408051808303601f190181528282528051602091820120818452838301909252909250600091906020820181803683370190505090508160208201526000612c6d82612d62565b90506000612c7f828860400151612d9d565b905073__$a5a42e46683ad9c79b7b86d5ff60fdf4c1$__638da5cb5b6040518163ffffffff1660e01b8152600401602060405180830381865af4158015612cca573d6000803e3d6000fd5b505050506040513d601f19601f82011682018060405250810190612cee9190613661565b6001600160a01b0316816001600160a01b031614612d595760405162461bcd60e51b815260206004820152602260248201527f4176617461723a20617661746172207369676e6572206973206e6f74206f776e60448201526132b960f11b606482015260840161084f565b50505050505050565b6000612d6e8251612dc7565b82604051602001612d80929190613d0c565b604051602081830303815290604052805190602001209050919050565b600080600080612dad8686612e59565b925092509250612dbd8282612ea6565b5090949350505050565b60606000612dd483612f5f565b60010190506000816001600160401b03811115612df357612df36132b6565b6040519080825280601f01601f191660200182016040528015612e1d576020820181803683370190505b5090508181016020015b600019016f181899199a1a9b1b9c1cb0b131b232b360811b600a86061a8153600a8504945084612e2757509392505050565b60008060008351604103612e935760208401516040850151606086015160001a612e8588828585613037565b955095509550505050612e9f565b50508151600091506002905b9250925092565b6000826003811115612eba57612eba613d67565b03612ec3575050565b6001826003811115612ed757612ed7613d67565b03612ef55760405163f645eedf60e01b815260040160405180910390fd5b6002826003811115612f0957612f09613d67565b03612f2a5760405163fce698f760e01b81526004810182905260240161084f565b6003826003811115612f3e57612f3e613d67565b03610e54576040516335e2f38360e21b81526004810182905260240161084f565b60008072184f03e93ff9f4daa797ed6e38ed64bf6a1f0160401b8310612f9e5772184f03e93ff9f4daa797ed6e38ed64bf6a1f0160401b830492506040015b6d04ee2d6d415b85acef81000000008310612fca576d04ee2d6d415b85acef8100000000830492506020015b662386f26fc100008310612fe857662386f26fc10000830492506010015b6305f5e1008310613000576305f5e100830492506008015b612710831061301457612710830492506004015b60648310613026576064830492506002015b600a8310610d215760010192915050565b600080807f7fffffffffffffffffffffffffffffff5d576e7357a4501ddfe92f46681b20a084111561307257506000915060039050826130fc565b604080516000808252602082018084528a905260ff891692820192909252606081018790526080810186905260019060a0016020604051602081039080840390855afa1580156130c6573d6000803e3d6000fd5b5050604051601f1901519150506001600160a01b0381166130f2575060009250600191508290506130fc565b9250600091508190505b9450945094915050565b6001600160a01b038116811461274357600080fd5b60006020828403121561312d57600080fd5b81356118ab81613106565b60005b8381101561315357818101518382015260200161313b565b50506000910152565b60008151808452613174816020860160208601613138565b601f01601f19169290920160200192915050565b6020815260006118ab602083018461315c565b6000604082840312156131ad57600080fd5b50919050565b60008083601f8401126131c557600080fd5b5081356001600160401b038111156131dc57600080fd5b6020830191508360208285010111156131f457600080fd5b9250929050565b60008060008060006080868803121561321357600080fd5b853561321e81613106565b9450602086013561322e81613106565b93506040860135925060608601356001600160401b0381111561325057600080fd5b61325c888289016131b3565b969995985093965092949392505050565b60006020828403121561327f57600080fd5b5035919050565b6000806040838503121561329957600080fd5b8235915060208301356132ab81613106565b809150509250929050565b634e487b7160e01b600052604160045260246000fd5b604080519081016001600160401b03811182821017156132ee576132ee6132b6565b60405290565b604051601f8201601f191681016001600160401b038111828210171561331c5761331c6132b6565b604052919050565b60006001600160401b0382111561333d5761333d6132b6565b50601f01601f191660200190565b600082601f83011261335c57600080fd5b813561336f61336a82613324565b6132f4565b81815284602083860101111561338457600080fd5b816020850160208301376000918101602001919091529392505050565b6000606082840312156133b357600080fd5b604051606081016001600160401b0382821081831117156133d6576133d66132b6565b81604052829350843583526020850135602084015260408501359150808211156133ff57600080fd5b5061340c8582860161334b565b6040830152505092915050565b60006020828403121561342b57600080fd5b81356001600160401b0381111561344157600080fd5b61344d848285016133a1565b949350505050565b602080825282518282018190526000919060409081850190868401855b828110156134a85761349884835180516001600160a01b03168252602090810151910152565b9284019290850190600101613472565b5091979650505050505050565b600080602083850312156134c857600080fd5b82356001600160401b03808211156134df57600080fd5b818501915085601f8301126134f357600080fd5b81358181111561350257600080fd5b8660208260051b850101111561351757600080fd5b60209290920196919550909350505050565b6000806020838503121561353c57600080fd5b82356001600160401b0381111561355257600080fd5b61355e858286016131b3565b90969095509350505050565b801515811461274357600080fd5b60006020828403121561358a57600080fd5b81356118ab8161356a565b600080600080600080608087890312156135ae57600080fd5b86356001600160401b03808211156135c557600080fd5b6135d18a838b016131b3565b9098509650602089013591506135e682613106565b9094506040880135906135f882613106565b9093506060880135908082111561360e57600080fd5b5061361b89828a016131b3565b979a9699509497509295939492505050565b600181811c9082168061364157607f821691505b6020821081036131ad57634e487b7160e01b600052602260045260246000fd5b60006020828403121561367357600080fd5b81516118ab81613106565b6020808252601f908201527f426173654163636573733a207265737472696374656420746f206f776e657200604082015260600190565b8281526060810182356136c781613106565b6001600160a01b03166020838101919091529290920135604090910152919050565b6000602082840312156136fb57600080fd5b81516118ab8161356a565b6020808252818101527f426173654163636573733a207265737472696374656420746f2061646d696e73604082015260600190565b634e487b7160e01b600052601160045260246000fd5b80820180821115610d2157610d2161373b565b60006020828403121561377657600080fd5b81516001600160401b0381111561378c57600080fd5b8201601f8101841361379d57600080fd5b80516137ab61336a82613324565b8181528560208385010111156137c057600080fd5b610c85826020830160208601613138565b6020808252602d908201527f4176617461723a207765617261626c652061737365742063616e6e6f7420626560408201526c207a65726f206164647265737360981b606082015260800190565b60208082526027908201527f4176617461723a207765617261626c6520746f6b656e49642063616e6e6f74206040820152666265207a65726f60c81b606082015260800190565b6000602080838503121561387857600080fd5b82516001600160401b038082111561388f57600080fd5b818501915085601f8301126138a357600080fd5b8151818111156138b5576138b56132b6565b6138c3848260051b016132f4565b818152848101925060069190911b8301840190878211156138e357600080fd5b928401925b8184101561392f57604084890312156139015760008081fd5b6139096132cc565b845161391481613106565b815284860151868201528352604090930192918401916138e8565b979650505050505050565b60006080828403121561394c57600080fd5b604051608081018181106001600160401b038211171561396e5761396e6132b6565b604052825161397c81613106565b8152602083015161398c81613106565b60208201526040838101519082015260608301516139a98161356a565b60608201529392505050565b60208082528181018390526000908460408401835b868110156139f85782356139dd81613106565b6001600160a01b0316825291830191908301906001016139ca565b509695505050505050565b601f821115613a4b576000816000526020600020601f850160051c81016020861015613a2c5750805b601f850160051c820191505b81811015610f5657828155600101613a38565b505050565b6001600160401b03831115613a6757613a676132b6565b613a7b83613a75835461362d565b83613a03565b6000601f841160018114613aaf5760008515613a975750838201355b600019600387901b1c1916600186901b178355611bcf565b600083815260209020601f19861690835b82811015613ae05786850135825560209485019460019092019101613ac0565b5086821015613afd5760001960f88860031b161c19848701351681555b505060018560011b0183555050505050565b8183823760009101908152919050565b6001600160a01b038381168252604060208084018290528451918401829052600092858201929091906060860190855b81811015613b6d578551851683529483019491830191600101613b4f565b509098975050505050505050565b600060208284031215613b8d57600080fd5b81356001600160401b0380821115613ba457600080fd5b9083019060408286031215613bb857600080fd5b613bc06132cc565b8235613bcb8161356a565b8152602083013582811115613bdf57600080fd5b613beb8782860161334b565b60208301525095945050505050565b81516001600160401b03811115613c1357613c136132b6565b613c2781613c21845461362d565b84613a03565b602080601f831160018114613c5c5760008415613c445750858301515b600019600386901b1c1916600185901b178555610f56565b600085815260208120601f198616915b82811015613c8b57888601518255948401946001909101908401613c6c565b5085821015613ca95787850151600019600388901b60f8161c191681555b5050505050600190811b01905550565b828152606081016118ab602083018480516001600160a01b03168252602090810151910152565b81810381811115610d2157610d2161373b565b600060018201613d0557613d0561373b565b5060010190565b7f19457468657265756d205369676e6564204d6573736167653a0a000000000000815260008351613d4481601a850160208801613138565b835190830190613d5b81601a840160208801613138565b01601a01949350505050565b634e487b7160e01b600052602160045260246000fdfea264697066735822122022cbe875a9eb67c309c22fe351151cb9bff400dd54c565076690e0b5043e4b1164736f6c63430008180033",
  "linkReferences": {
    "contracts/libraries/LibAccess.sol": {
      "LibAccess": [
        {
          "length": 20,
          "start": 2907
        },
        {
          "length": 20,
          "start": 4191
        },
        {
          "length": 20,
          "start": 4304
        },
        {
          "length": 20,
          "start": 4618
        },
        {
          "length": 20,
          "start": 4777
        },
        {
          "length": 20,
          "start": 4871
        },
        {
          "length": 20,
          "start": 5583
        },
        {
          "length": 20,
          "start": 6732
        },
        {
          "length": 20,
          "start": 6811
        },
        {
          "length": 20,
          "start": 6948
        },
        {
          "length": 20,
          "start": 6994
        },
        {
          "length": 20,
          "start": 7146
        },
        {
          "length": 20,
          "start": 7259
        },
        {
          "length": 20,
          "start": 7612
        },
        {
          "length": 20,
          "start": 7796
        },
        {
          "length": 20,
          "start": 7971
        },
        {
          "length": 20,
          "start": 8198
        },
        {
          "length": 20,
          "start": 8596
        },
        {
          "length": 20,
          "start": 10186
        },
        {
          "length": 20,
          "start": 10345
        },
        {
          "length": 20,
          "start": 11000
        },
        {
          "length": 20,
          "start": 11137
        },
        {
          "length": 20,
          "start": 12320
        }
      ]
    },
    "contracts/libraries/LibLinkedList.sol": {
      "LibLinkedList": [
        {
          "length": 20,
          "start": 3099
        },
        {
          "length": 20,
          "start": 5845
        },
        {
          "length": 20,
          "start": 6052
        },
        {
          "length": 20,
          "start": 7527
        },
        {
          "length": 20,
          "start": 10778
        }
      ]
    }
  },
  "deployedLinkReferences": {
    "contracts/libraries/LibAccess.sol": {
      "LibAccess": [
        {
          "length": 20,
          "start": 1982
        },
        {
          "length": 20,
          "start": 3266
        },
        {
          "length": 20,
          "start": 3379
        },
        {
          "length": 20,
          "start": 3693
        },
        {
          "length": 20,
          "start": 3852
        },
        {
          "length": 20,
          "start": 3946
        },
        {
          "length": 20,
          "start": 4658
        },
        {
          "length": 20,
          "start": 5807
        },
        {
          "length": 20,
          "start": 5886
        },
        {
          "length": 20,
          "start": 6023
        },
        {
          "length": 20,
          "start": 6069
        },
        {
          "length": 20,
          "start": 6221
        },
        {
          "length": 20,
          "start": 6334
        },
        {
          "length": 20,
          "start": 6687
        },
        {
          "length": 20,
          "start": 6871
        },
        {
          "length": 20,
          "start": 7046
        },
        {
          "length": 20,
          "start": 7273
        },
        {
          "length": 20,
          "start": 7671
        },
        {
          "length": 20,
          "start": 9261
        },
        {
          "length": 20,
          "start": 9420
        },
        {
          "length": 20,
          "start": 10075
        },
        {
          "length": 20,
          "start": 10212
        },
        {
          "length": 20,
          "start": 11395
        }
      ]
    },
    "contracts/libraries/LibLinkedList.sol": {
      "LibLinkedList": [
        {
          "length": 20,
          "start": 2174
        },
        {
          "length": 20,
          "start": 4920
        },
        {
          "length": 20,
          "start": 5127
        },
        {
          "length": 20,
          "start": 6602
        },
        {
          "length": 20,
          "start": 9853
        }
      ]
    }
  }
}