{
  "_format": "hh-sol-artifact-1",
  "contractName": "AvatarRegistry",
  "sourceName": "contracts/avatar/registry/AvatarRegistry.sol",
  "abi": [
    {
      "inputs": [
        {
          "components": [
            {
              "internalType": "address",
              "name": "worldRegistry",
              "type": "address"
            }
          ],
          "internalType": "struct AvatarRegistryConstructorArgs",
          "name": "args",
          "type": "tuple"
        }
      ],
      "stateMutability": "nonpayable",
      "type": "constructor"
    },
    {
      "anonymous": false,
      "inputs": [
        {
          "indexed": true,
          "internalType": "address",
          "name": "entity",
          "type": "address"
        },
        {
          "indexed": true,
          "internalType": "address",
          "name": "owner",
          "type": "address"
        }
      ],
      "name": "RegistryAddedEntity",
      "type": "event"
    },
    {
      "inputs": [
        {
          "internalType": "address[]",
          "name": "signers",
          "type": "address[]"
        }
      ],
      "name": "addSigners",
      "outputs": [],
      "stateMutability": "nonpayable",
      "type": "function"
    },
    {
      "inputs": [
        {
          "internalType": "address",
          "name": "newOwner",
          "type": "address"
        }
      ],
      "name": "changeOwner",
      "outputs": [],
      "stateMutability": "nonpayable",
      "type": "function"
    },
    {
      "inputs": [
        {
          "components": [
            {
              "internalType": "bool",
              "name": "sendTokensToOwner",
              "type": "bool"
            },
            {
              "internalType": "address",
              "name": "startingExperience",
              "type": "address"
            },
            {
              "internalType": "address",
              "name": "owner",
              "type": "address"
            },
            {
              "internalType": "string",
              "name": "name",
              "type": "string"
            },
            {
              "internalType": "bytes",
              "name": "initData",
              "type": "bytes"
            }
          ],
          "internalType": "struct CreateAvatarArgs",
          "name": "args",
          "type": "tuple"
        }
      ],
      "name": "createAvatar",
      "outputs": [
        {
          "internalType": "address",
          "name": "",
          "type": "address"
        }
      ],
      "stateMutability": "payable",
      "type": "function"
    },
    {
      "inputs": [],
      "name": "experienceRegistry",
      "outputs": [
        {
          "internalType": "contract IExperienceRegistry",
          "name": "",
          "type": "address"
        }
      ],
      "stateMutability": "view",
      "type": "function"
    },
    {
      "inputs": [
        {
          "internalType": "string",
          "name": "name",
          "type": "string"
        }
      ],
      "name": "getEntityByName",
      "outputs": [
        {
          "internalType": "address",
          "name": "",
          "type": "address"
        }
      ],
      "stateMutability": "view",
      "type": "function"
    },
    {
      "inputs": [],
      "name": "getEntityImplementation",
      "outputs": [
        {
          "internalType": "address",
          "name": "",
          "type": "address"
        }
      ],
      "stateMutability": "view",
      "type": "function"
    },
    {
      "inputs": [],
      "name": "getEntityVersion",
      "outputs": [
        {
          "components": [
            {
              "internalType": "uint16",
              "name": "major",
              "type": "uint16"
            },
            {
              "internalType": "uint16",
              "name": "minor",
              "type": "uint16"
            }
          ],
          "internalType": "struct Version",
          "name": "",
          "type": "tuple"
        }
      ],
      "stateMutability": "view",
      "type": "function"
    },
    {
      "inputs": [],
      "name": "getProxyImplementation",
      "outputs": [
        {
          "internalType": "address",
          "name": "",
          "type": "address"
        }
      ],
      "stateMutability": "view",
      "type": "function"
    },
    {
      "inputs": [
        {
          "internalType": "bytes32",
          "name": "role",
          "type": "bytes32"
        },
        {
          "internalType": "address",
          "name": "account",
          "type": "address"
        }
      ],
      "name": "grantRole",
      "outputs": [],
      "stateMutability": "nonpayable",
      "type": "function"
    },
    {
      "inputs": [
        {
          "internalType": "bytes32",
          "name": "role",
          "type": "bytes32"
        },
        {
          "internalType": "address",
          "name": "account",
          "type": "address"
        }
      ],
      "name": "hasRole",
      "outputs": [
        {
          "internalType": "bool",
          "name": "",
          "type": "bool"
        }
      ],
      "stateMutability": "view",
      "type": "function"
    },
    {
      "inputs": [
        {
          "internalType": "address",
          "name": "account",
          "type": "address"
        }
      ],
      "name": "isAdmin",
      "outputs": [
        {
          "internalType": "bool",
          "name": "",
          "type": "bool"
        }
      ],
      "stateMutability": "view",
      "type": "function"
    },
    {
      "inputs": [
        {
          "internalType": "address",
          "name": "addr",
          "type": "address"
        }
      ],
      "name": "isRegistered",
      "outputs": [
        {
          "internalType": "bool",
          "name": "",
          "type": "bool"
        }
      ],
      "stateMutability": "view",
      "type": "function"
    },
    {
      "inputs": [
        {
          "internalType": "address",
          "name": "account",
          "type": "address"
        }
      ],
      "name": "isSigner",
      "outputs": [
        {
          "internalType": "bool",
          "name": "",
          "type": "bool"
        }
      ],
      "stateMutability": "view",
      "type": "function"
    },
    {
      "inputs": [],
      "name": "owner",
      "outputs": [
        {
          "internalType": "address",
          "name": "",
          "type": "address"
        }
      ],
      "stateMutability": "view",
      "type": "function"
    },
    {
      "inputs": [
        {
          "internalType": "address[]",
          "name": "signers",
          "type": "address[]"
        }
      ],
      "name": "removeSigners",
      "outputs": [],
      "stateMutability": "nonpayable",
      "type": "function"
    },
    {
      "inputs": [
        {
          "internalType": "bytes32",
          "name": "role",
          "type": "bytes32"
        },
        {
          "internalType": "address",
          "name": "account",
          "type": "address"
        }
      ],
      "name": "revokeRole",
      "outputs": [],
      "stateMutability": "nonpayable",
      "type": "function"
    },
    {
      "inputs": [
        {
          "internalType": "address",
          "name": "_entityImplementation",
          "type": "address"
        }
      ],
      "name": "setEntityImplementation",
      "outputs": [],
      "stateMutability": "nonpayable",
      "type": "function"
    },
    {
      "inputs": [
        {
          "internalType": "address",
          "name": "registry",
          "type": "address"
        }
      ],
      "name": "setExperienceRegistry",
      "outputs": [],
      "stateMutability": "nonpayable",
      "type": "function"
    },
    {
      "inputs": [
        {
          "internalType": "address",
          "name": "_proxyImplementation",
          "type": "address"
        }
      ],
      "name": "setProxyImplementation",
      "outputs": [],
      "stateMutability": "nonpayable",
      "type": "function"
    },
    {
      "inputs": [],
      "name": "version",
      "outputs": [
        {
          "components": [
            {
              "internalType": "uint16",
              "name": "major",
              "type": "uint16"
            },
            {
              "internalType": "uint16",
              "name": "minor",
              "type": "uint16"
            }
          ],
          "internalType": "struct Version",
          "name": "",
          "type": "tuple"
        }
      ],
      "stateMutability": "pure",
      "type": "function"
    },
    {
      "inputs": [],
      "name": "worldRegistry",
      "outputs": [
        {
          "internalType": "contract IWorldRegistry",
          "name": "",
          "type": "address"
        }
      ],
      "stateMutability": "view",
      "type": "function"
    }
  ],
  "bytecode": "0x60a060405234801561001057600080fd5b5060405162001cc038038062001cc0833981016040819052610031916100ae565b80516001600160a01b031661009c5760405162461bcd60e51b815260206004820152602760248201527f436f6d70616e7952656769737472793a20696e76616c696420776f726c6420726044820152666567697374727960c81b606482015260840160405180910390fd5b516001600160a01b0316608052610113565b6000602082840312156100c057600080fd5b604051602081016001600160401b03811182821017156100f057634e487b7160e01b600052604160045260246000fd5b60405282516001600160a01b038116811461010a57600080fd5b81529392505050565b608051611b8a620001366000396000818161030d01526104270152611b8a6000f3fe60806040526004361061012a5760003560e01c80638da5cb5b116100ab5780639fdcd3a41161006f5780639fdcd3a41461034f578063a6f9dae11461036f578063c3c5a5471461038f578063cdbe2211146103af578063d547741f146103cf578063e8906a2d146103ef57600080fd5b80638da5cb5b146102b15780638f09a6be146102c657806390e4b720146102e6578063911c2a8c146102fb57806391d148541461032f57600080fd5b80635e040962116100f25780635e04096214610227578063689c48f01461023c5780637df73e27146102515780637e6e0602146102715780638d361e431461029157600080fd5b806304fb06ca1461012f57806324d7806c1461015f5780632f2ff15d1461018f5780633e88a4e2146101b157806354fd4d50146101d1575b600080fd5b61014261013d36600461177d565b61040f565b6040516001600160a01b0390911681526020015b60405180910390f35b34801561016b57600080fd5b5061017f61017a3660046117d0565b610a94565b6040519015158152602001610156565b34801561019b57600080fd5b506101af6101aa3660046117ed565b610b1a565b005b3480156101bd57600080fd5b506101426101cc36600461181d565b610c20565b3480156101dd57600080fd5b5060408051808201825260008082526020918201819052825180840190935260018352908201525b60408051825161ffff9081168252602093840151169281019290925201610156565b34801561023357600080fd5b50610205610ca4565b34801561024857600080fd5b50610142610d29565b34801561025d57600080fd5b5061017f61026c3660046117d0565b610d98565b34801561027d57600080fd5b506101af61028c3660046117d0565b610ddb565b34801561029d57600080fd5b506101af6102ac36600461188f565b610f47565b3480156102bd57600080fd5b5061014261100f565b3480156102d257600080fd5b50600054610142906001600160a01b031681565b3480156102f257600080fd5b5061014261105a565b34801561030757600080fd5b506101427f000000000000000000000000000000000000000000000000000000000000000081565b34801561033b57600080fd5b5061017f61034a3660046117ed565b6110a5565b34801561035b57600080fd5b506101af61036a3660046117d0565b61112b565b34801561037b57600080fd5b506101af61038a3660046117d0565b611229565b34801561039b57600080fd5b5061017f6103aa3660046117d0565b611336565b3480156103bb57600080fd5b506101af6103ca3660046117d0565b611379565b3480156103db57600080fd5b506101af6103ea3660046117ed565b611448565b3480156103fb57600080fd5b506101af61040a36600461188f565b61151e565b60405163c3c5a54760e01b81523360048201526000907f00000000000000000000000000000000000000000000000000000000000000006001600160a01b03169063c3c5a54790602401602060405180830381865afa158015610476573d6000803e3d6000fd5b505050506040513d601f19601f8201168201806040525081019061049a9190611900565b6104f95760405162461bcd60e51b815260206004820152602560248201527f436f6d70616e7952656769737472793a20776f726c64206e6f742072656769736044820152641d195c995960da1b60648201526084015b60405180910390fd5b336001600160a01b03166386b70bed6040518163ffffffff1660e01b8152600401602060405180830381865afa158015610537573d6000803e3d6000fd5b505050506040513d601f19601f8201168201806040525081019061055b9190611900565b6105b15760405162461bcd60e51b815260206004820152602160248201527f436f6d70616e7952656769737472793a20776f726c64206e6f742061637469766044820152606560f81b60648201526084016104f0565b60006105bb6115e6565b80549091506001600160a01b031661062f5760405162461bcd60e51b815260206004820152603160248201527f417661746172526567697374726174696f6e3a20656e7469747920696d706c656044820152701b595b9d185d1a5bdb881b9bdd081cd95d607a1b60648201526084016104f0565b60018101546001600160a01b03166106a25760405162461bcd60e51b815260206004820152603060248201527f417661746172526567697374726174696f6e3a2070726f787920696d706c656d60448201526f195b9d185d1a5bdb881b9bdd081cd95d60821b60648201526084016104f0565b60018101546000906106bc906001600160a01b031661167c565b90506001600160a01b0381166107255760405162461bcd60e51b815260206004820152602860248201527f417661746172526567697374726174696f6e3a2070726f787920636c6f6e696e60448201526719c819985a5b195960c21b60648201526084016104f0565b8154604051636bc26a1360e11b81526001600160a01b0391821660048201529082169063d784d42690602401600060405180830381600087803b15801561076b57600080fd5b505af115801561077f573d6000803e3d6000fd5b506000925061079791505060408601602087016117d0565b6001600160a01b0316036108065760405162461bcd60e51b815260206004820152603060248201527f417661746172526567697374726174696f6e3a207374617274696e672065787060448201526f195c9a595b98d9481c995c5d5a5c995960821b60648201526084016104f0565b6000546001600160a01b031663c3c5a54761082760408701602088016117d0565b6040516001600160e01b031960e084901b1681526001600160a01b039091166004820152602401602060405180830381865afa15801561086b573d6000803e3d6000fd5b505050506040513d601f19601f8201168201806040525081019061088f9190611900565b6108fa5760405162461bcd60e51b815260206004820152603660248201527f417661746172526567697374726174696f6e3a207374617274696e6720657870604482015275195c9a595b98d9481b9bdd081c9959da5cdd195c995960521b60648201526084016104f0565b6001600160a01b03811663ac4d0061610916606087018761191d565b6109266060890160408a016117d0565b61093660408a0160208b016117d0565b61094360808b018b61191d565b6040518763ffffffff1660e01b815260040161096496959493929190611994565b600060405180830381600087803b15801561097e57600080fd5b505af1158015610992573d6000803e3d6000fd5b5050505061099f8161173d565b3415610a3c576109b260208501856119df565b15610a05576109c760608501604086016117d0565b6001600160a01b03166108fc349081150290604051600060405180830381858888f193505050501580156109ff573d6000803e3d6000fd5b50610a3c565b6040516001600160a01b038216903480156108fc02916000818181858888f19350505050158015610a3a573d6000803e3d6000fd5b505b610a4c60608501604086016117d0565b6001600160a01b0316816001600160a01b03167f7377123f9eb561d749cd3a89a83c22035cad6473521acbb981ee1c52d8f0248560405160405180910390a39150505b919050565b604051630935e01b60e21b81526001600160a01b038216600482015260009073__$a5a42e46683ad9c79b7b86d5ff60fdf4c1$__906324d7806c906024015b602060405180830381865af4158015610af0573d6000803e3d6000fd5b505050506040513d601f19601f82011682018060405250810190610b149190611900565b92915050565b604051630935e01b60e21b815233600482015273__$a5a42e46683ad9c79b7b86d5ff60fdf4c1$__906324d7806c90602401602060405180830381865af4158015610b69573d6000803e3d6000fd5b505050506040513d601f19601f82011682018060405250810190610b8d9190611900565b610ba95760405162461bcd60e51b81526004016104f0906119fc565b604051632f2ff15d60e01b8152600481018390526001600160a01b038216602482015273__$a5a42e46683ad9c79b7b86d5ff60fdf4c1$__90632f2ff15d906044015b60006040518083038186803b158015610c0457600080fd5b505af4158015610c18573d6000803e3d6000fd5b505050505050565b604051631f44527160e11b815260009073__$d81eab81c4f96e94de97b51155a369ac43$__90633e88a4e290610c5c9086908690600401611a31565b602060405180830381865af4158015610c79573d6000803e3d6000fd5b505050506040513d601f19601f82011682018060405250810190610c9d9190611a4d565b9392505050565b604080518082019091526000808252602082015273__$e1fef5d4b1bfc4a605b7eb127c84f71416$__635e0409626040518163ffffffff1660e01b81526004016040805180830381865af4158015610d00573d6000803e3d6000fd5b505050506040513d601f19601f82011682018060405250810190610d249190611a7c565b905090565b600073__$e1fef5d4b1bfc4a605b7eb127c84f71416$__63689c48f06040518163ffffffff1660e01b8152600401602060405180830381865af4158015610d74573d6000803e3d6000fd5b505050506040513d601f19601f82011682018060405250810190610d249190611a4d565b604051637df73e2760e01b81526001600160a01b038216600482015260009073__$a5a42e46683ad9c79b7b86d5ff60fdf4c1$__90637df73e2790602401610ad3565b604051630935e01b60e21b815233600482015273__$a5a42e46683ad9c79b7b86d5ff60fdf4c1$__906324d7806c90602401602060405180830381865af4158015610e2a573d6000803e3d6000fd5b505050506040513d601f19601f82011682018060405250810190610e4e9190611900565b610e6a5760405162461bcd60e51b81526004016104f0906119fc565b6001600160a01b038116610ec05760405162461bcd60e51b815260206004820181905260248201527f41766174617252656769737472793a20696e76616c696420726567697374727960448201526064016104f0565b6000546001600160a01b031615610f255760405162461bcd60e51b8152602060048201526024808201527f41766174617252656769737472793a20726567697374727920616c7265616479604482015263081cd95d60e21b60648201526084016104f0565b600080546001600160a01b0319166001600160a01b0392909216919091179055565b604051630935e01b60e21b815233600482015273__$a5a42e46683ad9c79b7b86d5ff60fdf4c1$__906324d7806c90602401602060405180830381865af4158015610f96573d6000803e3d6000fd5b505050506040513d601f19601f82011682018060405250810190610fba9190611900565b610fd65760405162461bcd60e51b81526004016104f0906119fc565b604051638d361e4360e01b815273__$a5a42e46683ad9c79b7b86d5ff60fdf4c1$__90638d361e4390610bec9085908590600401611ae5565b600073__$a5a42e46683ad9c79b7b86d5ff60fdf4c1$__638da5cb5b6040518163ffffffff1660e01b8152600401602060405180830381865af4158015610d74573d6000803e3d6000fd5b600073__$e1fef5d4b1bfc4a605b7eb127c84f71416$__6390e4b7206040518163ffffffff1660e01b8152600401602060405180830381865af4158015610d74573d6000803e3d6000fd5b604051632474521560e21b8152600481018390526001600160a01b038216602482015260009073__$a5a42e46683ad9c79b7b86d5ff60fdf4c1$__906391d1485490604401602060405180830381865af4158015611107573d6000803e3d6000fd5b505050506040513d601f19601f82011682018060405250810190610c9d9190611900565b604051630935e01b60e21b815233600482015273__$a5a42e46683ad9c79b7b86d5ff60fdf4c1$__906324d7806c90602401602060405180830381865af415801561117a573d6000803e3d6000fd5b505050506040513d601f19601f8201168201806040525081019061119e9190611900565b6111ba5760405162461bcd60e51b81526004016104f0906119fc565b6040516327f734e960e21b81526001600160a01b038216600482015273__$e1fef5d4b1bfc4a605b7eb127c84f71416$__90639fdcd3a4906024015b60006040518083038186803b15801561120e57600080fd5b505af4158015611222573d6000803e3d6000fd5b5050505050565b336001600160a01b031673__$a5a42e46683ad9c79b7b86d5ff60fdf4c1$__638da5cb5b6040518163ffffffff1660e01b8152600401602060405180830381865af415801561127c573d6000803e3d6000fd5b505050506040513d601f19601f820116820180604052508101906112a09190611a4d565b6001600160a01b0316146112f65760405162461bcd60e51b815260206004820152601f60248201527f426173654163636573733a207265737472696374656420746f206f776e65720060448201526064016104f0565b6040516313af403560e01b81526001600160a01b038216600482015273__$a5a42e46683ad9c79b7b86d5ff60fdf4c1$__906313af4035906024016111f6565b60405163c3c5a54760e01b81526001600160a01b038216600482015260009073__$d81eab81c4f96e94de97b51155a369ac43$__9063c3c5a54790602401610ad3565b604051630935e01b60e21b815233600482015273__$a5a42e46683ad9c79b7b86d5ff60fdf4c1$__906324d7806c90602401602060405180830381865af41580156113c8573d6000803e3d6000fd5b505050506040513d601f19601f820116820180604052508101906113ec9190611900565b6114085760405162461bcd60e51b81526004016104f0906119fc565b60405163cdbe221160e01b81526001600160a01b038216600482015273__$e1fef5d4b1bfc4a605b7eb127c84f71416$__9063cdbe2211906024016111f6565b604051630935e01b60e21b815233600482015273__$a5a42e46683ad9c79b7b86d5ff60fdf4c1$__906324d7806c90602401602060405180830381865af4158015611497573d6000803e3d6000fd5b505050506040513d601f19601f820116820180604052508101906114bb9190611900565b6114d75760405162461bcd60e51b81526004016104f0906119fc565b60405163d547741f60e01b8152600481018390526001600160a01b038216602482015273__$a5a42e46683ad9c79b7b86d5ff60fdf4c1$__9063d547741f90604401610bec565b604051630935e01b60e21b815233600482015273__$a5a42e46683ad9c79b7b86d5ff60fdf4c1$__906324d7806c90602401602060405180830381865af415801561156d573d6000803e3d6000fd5b505050506040513d601f19601f820116820180604052508101906115919190611900565b6115ad5760405162461bcd60e51b81526004016104f0906119fc565b60405163e8906a2d60e01b815273__$a5a42e46683ad9c79b7b86d5ff60fdf4c1$__9063e8906a2d90610bec9085908590600401611ae5565b60408051808201909152601c81527f78722e656e746974792e666163746f72792e73746f726167652e76310000000060209091015260008060ff61164b60017f8b4ac7cd4466ab0d50fe53a88c5446ca4a450d482bef9ad792e7d9f451497e0f611b33565b60405160200161165d91815260200190565b60408051601f1981840301815291905280516020909101201692915050565b60006001600160a01b0382166116ec5760405162461bcd60e51b815260206004820152602f60248201527f4c6962436c6f6e653a20696d706c656d656e746174696f6e2063616e6e6f742060448201526e6265207a65726f206164647265737360881b60648201526084016104f0565b60008260601b9050604051733d602d80600a3d3981f3363d3d373d3d3d363d7360601b81528160148201526e5af43d82803e903d91602b57fd5bf360881b60288201526037816000f0949350505050565b60405163750f981960e11b81526001600160a01b038216600482015273__$d81eab81c4f96e94de97b51155a369ac43$__9063ea1f3032906024016111f6565b60006020828403121561178f57600080fd5b813567ffffffffffffffff8111156117a657600080fd5b820160a08185031215610c9d57600080fd5b6001600160a01b03811681146117cd57600080fd5b50565b6000602082840312156117e257600080fd5b8135610c9d816117b8565b6000806040838503121561180057600080fd5b823591506020830135611812816117b8565b809150509250929050565b6000806020838503121561183057600080fd5b823567ffffffffffffffff8082111561184857600080fd5b818501915085601f83011261185c57600080fd5b81358181111561186b57600080fd5b86602082850101111561187d57600080fd5b60209290920196919550909350505050565b600080602083850312156118a257600080fd5b823567ffffffffffffffff808211156118ba57600080fd5b818501915085601f8301126118ce57600080fd5b8135818111156118dd57600080fd5b8660208260051b850101111561187d57600080fd5b80151581146117cd57600080fd5b60006020828403121561191257600080fd5b8151610c9d816118f2565b6000808335601e1984360301811261193457600080fd5b83018035915067ffffffffffffffff82111561194f57600080fd5b60200191503681900382131561196457600080fd5b9250929050565b81835281816020850137506000828201602090810191909152601f909101601f19169091010190565b6080815260006119a860808301888a61196b565b6001600160a01b0387811660208501528616604084015282810360608401526119d281858761196b565b9998505050505050505050565b6000602082840312156119f157600080fd5b8135610c9d816118f2565b6020808252818101527f426173654163636573733a207265737472696374656420746f2061646d696e73604082015260600190565b602081526000611a4560208301848661196b565b949350505050565b600060208284031215611a5f57600080fd5b8151610c9d816117b8565b805161ffff81168114610a8f57600080fd5b600060408284031215611a8e57600080fd5b6040516040810181811067ffffffffffffffff82111715611abf57634e487b7160e01b600052604160045260246000fd5b604052611acb83611a6a565b8152611ad960208401611a6a565b60208201529392505050565b60208082528181018390526000908460408401835b86811015611b28578235611b0d816117b8565b6001600160a01b031682529183019190830190600101611afa565b509695505050505050565b81810381811115610b1457634e487b7160e01b600052601160045260246000fdfea26469706673582212209699fe69409ab3da26062ee9390bf7d10dacf843c00e5805d51dae319c7f968264736f6c63430008180033",
  "linkReferences": {
    "contracts/libraries/LibAccess.sol": {
      "LibAccess": [
        {
          "length": 20,
          "start": 3051
        },
        {
          "length": 20,
          "start": 3173
        },
        {
          "length": 20,
          "start": 3332
        },
        {
          "length": 20,
          "start": 3823
        },
        {
          "length": 20,
          "start": 3878
        },
        {
          "length": 20,
          "start": 4242
        },
        {
          "length": 20,
          "start": 4379
        },
        {
          "length": 20,
          "start": 4425
        },
        {
          "length": 20,
          "start": 4611
        },
        {
          "length": 20,
          "start": 4726
        },
        {
          "length": 20,
          "start": 4971
        },
        {
          "length": 20,
          "start": 5194
        },
        {
          "length": 20,
          "start": 5316
        },
        {
          "length": 20,
          "start": 5523
        },
        {
          "length": 20,
          "start": 5682
        },
        {
          "length": 20,
          "start": 5737
        },
        {
          "length": 20,
          "start": 5874
        }
      ]
    },
    "contracts/libraries/LibFactory.sol": {
      "LibFactory": [
        {
          "length": 20,
          "start": 3568
        },
        {
          "length": 20,
          "start": 3683
        },
        {
          "length": 20,
          "start": 4500
        },
        {
          "length": 20,
          "start": 4878
        },
        {
          "length": 20,
          "start": 5468
        }
      ]
    },
    "contracts/libraries/LibRegistration.sol": {
      "LibRegistration": [
        {
          "length": 20,
          "start": 3432
        },
        {
          "length": 20,
          "start": 5261
        },
        {
          "length": 20,
          "start": 6289
        }
      ]
    }
  },
  "deployedLinkReferences": {
    "contracts/libraries/LibAccess.sol": {
      "LibAccess": [
        {
          "length": 20,
          "start": 2741
        },
        {
          "length": 20,
          "start": 2863
        },
        {
          "length": 20,
          "start": 3022
        },
        {
          "length": 20,
          "start": 3513
        },
        {
          "length": 20,
          "start": 3568
        },
        {
          "length": 20,
          "start": 3932
        },
        {
          "length": 20,
          "start": 4069
        },
        {
          "length": 20,
          "start": 4115
        },
        {
          "length": 20,
          "start": 4301
        },
        {
          "length": 20,
          "start": 4416
        },
        {
          "length": 20,
          "start": 4661
        },
        {
          "length": 20,
          "start": 4884
        },
        {
          "length": 20,
          "start": 5006
        },
        {
          "length": 20,
          "start": 5213
        },
        {
          "length": 20,
          "start": 5372
        },
        {
          "length": 20,
          "start": 5427
        },
        {
          "length": 20,
          "start": 5564
        }
      ]
    },
    "contracts/libraries/LibFactory.sol": {
      "LibFactory": [
        {
          "length": 20,
          "start": 3258
        },
        {
          "length": 20,
          "start": 3373
        },
        {
          "length": 20,
          "start": 4190
        },
        {
          "length": 20,
          "start": 4568
        },
        {
          "length": 20,
          "start": 5158
        }
      ]
    },
    "contracts/libraries/LibRegistration.sol": {
      "LibRegistration": [
        {
          "length": 20,
          "start": 3122
        },
        {
          "length": 20,
          "start": 4951
        },
        {
          "length": 20,
          "start": 5979
        }
      ]
    }
  }
}