{
  "_format": "hh-sol-artifact-1",
  "contractName": "AvatarRegistrationExt",
  "sourceName": "contracts/extensions/registry/avatar/AvatarRegistrationExt.sol",
  "abi": [
    {
      "anonymous": false,
      "inputs": [
        {
          "indexed": true,
          "internalType": "address",
          "name": "entity",
          "type": "address"
        },
        {
          "indexed": true,
          "internalType": "address",
          "name": "owner",
          "type": "address"
        }
      ],
      "name": "RegistryAddedEntity",
      "type": "event"
    },
    {
      "anonymous": false,
      "inputs": [
        {
          "indexed": true,
          "internalType": "address",
          "name": "old",
          "type": "address"
        },
        {
          "indexed": false,
          "internalType": "address",
          "name": "newVersion",
          "type": "address"
        }
      ],
      "name": "RegistryUpgradedEntity",
      "type": "event"
    },
    {
      "inputs": [
        {
          "components": [
            {
              "internalType": "address",
              "name": "entity",
              "type": "address"
            },
            {
              "internalType": "bytes",
              "name": "entitySignature",
              "type": "bytes"
            },
            {
              "internalType": "uint256",
              "name": "expiration",
              "type": "uint256"
            },
            {
              "components": [
                {
                  "internalType": "uint16",
                  "name": "coveragePeriodDays",
                  "type": "uint16"
                },
                {
                  "internalType": "uint16",
                  "name": "gracePeriodDays",
                  "type": "uint16"
                },
                {
                  "internalType": "uint256",
                  "name": "fee",
                  "type": "uint256"
                }
              ],
              "internalType": "struct RegistrationTerms",
              "name": "terms",
              "type": "tuple"
            }
          ],
          "internalType": "struct ChangeEntityTermsArgs",
          "name": "args",
          "type": "tuple"
        }
      ],
      "name": "changeEntityTerms",
      "outputs": [],
      "stateMutability": "nonpayable",
      "type": "function"
    },
    {
      "inputs": [
        {
          "components": [
            {
              "internalType": "bool",
              "name": "sendTokensToOwner",
              "type": "bool"
            },
            {
              "internalType": "address",
              "name": "owner",
              "type": "address"
            },
            {
              "internalType": "string",
              "name": "name",
              "type": "string"
            },
            {
              "internalType": "bytes",
              "name": "initData",
              "type": "bytes"
            }
          ],
          "internalType": "struct CreateAvatarArgs",
          "name": "args",
          "type": "tuple"
        }
      ],
      "name": "createAvatar",
      "outputs": [
        {
          "internalType": "address",
          "name": "",
          "type": "address"
        }
      ],
      "stateMutability": "payable",
      "type": "function"
    },
    {
      "inputs": [
        {
          "internalType": "string",
          "name": "name",
          "type": "string"
        }
      ],
      "name": "getEntityByName",
      "outputs": [
        {
          "internalType": "address",
          "name": "",
          "type": "address"
        }
      ],
      "stateMutability": "view",
      "type": "function"
    },
    {
      "inputs": [
        {
          "components": [
            {
              "internalType": "address",
              "name": "owner",
              "type": "address"
            },
            {
              "internalType": "address",
              "name": "owningRegistry",
              "type": "address"
            },
            {
              "internalType": "address[]",
              "name": "admins",
              "type": "address[]"
            }
          ],
          "internalType": "struct ExtensionInitArgs",
          "name": "args",
          "type": "tuple"
        }
      ],
      "name": "initStorage",
      "outputs": [],
      "stateMutability": "nonpayable",
      "type": "function"
    },
    {
      "inputs": [
        {
          "internalType": "address",
          "name": "myAddress",
          "type": "address"
        }
      ],
      "name": "install",
      "outputs": [],
      "stateMutability": "nonpayable",
      "type": "function"
    },
    {
      "inputs": [
        {
          "internalType": "address",
          "name": "addr",
          "type": "address"
        }
      ],
      "name": "isRegistered",
      "outputs": [
        {
          "internalType": "bool",
          "name": "",
          "type": "bool"
        }
      ],
      "stateMutability": "view",
      "type": "function"
    },
    {
      "inputs": [],
      "name": "metadata",
      "outputs": [
        {
          "components": [
            {
              "internalType": "string",
              "name": "name",
              "type": "string"
            },
            {
              "components": [
                {
                  "internalType": "uint16",
                  "name": "major",
                  "type": "uint16"
                },
                {
                  "internalType": "uint16",
                  "name": "minor",
                  "type": "uint16"
                }
              ],
              "internalType": "struct Version",
              "name": "version",
              "type": "tuple"
            }
          ],
          "internalType": "struct ExtensionMetadata",
          "name": "",
          "type": "tuple"
        }
      ],
      "stateMutability": "pure",
      "type": "function"
    },
    {
      "inputs": [],
      "name": "register",
      "outputs": [],
      "stateMutability": "nonpayable",
      "type": "function"
    },
    {
      "inputs": [
        {
          "internalType": "address",
          "name": "myAddress",
          "type": "address"
        }
      ],
      "name": "upgrade",
      "outputs": [],
      "stateMutability": "nonpayable",
      "type": "function"
    }
  ],
  "bytecode": "0x608060405234801561001057600080fd5b50611468806100206000396000f3fe6080604052600436106100865760003560e01c80633e88a4e2116100595780633e88a4e21461010b5780634d4965f314610143578063729963c014610163578063a9f948241461017e578063c3c5a5471461019157600080fd5b80630900f0101461008b5780631aa3a008146100ab5780632a1b8f9b146100c0578063392f37e9146100e0575b600080fd5b34801561009757600080fd5b506100a96100a6366004610e08565b50565b005b3480156100b757600080fd5b506100a96101c1565b3480156100cc57600080fd5b506100a96100db366004610e08565b610245565b3480156100ec57600080fd5b506100f5610472565b6040516101029190610e72565b60405180910390f35b34801561011757600080fd5b5061012b610126366004610eb7565b6104cd565b6040516001600160a01b039091168152602001610102565b34801561014f57600080fd5b506100a961015e366004610f29565b610553565b34801561016f57600080fd5b506100a96100a6366004610f64565b61012b61018c366004610f9f565b6105bd565b34801561019d57600080fd5b506101b16101ac366004610e08565b610be1565b6040519015158152602001610102565b6101ca33610be1565b610243576040805162461bcd60e51b81526020600482015260248101919091527f526567697374726174696f6e4578743a206f6e6c79207265676973746572656460448201527f20656e7469746965732063616e2063616c6c20746869732066756e6374696f6e60648201526084015b60405180910390fd5b565b60408051600480825260a08201909252600091816020015b60408051808201909152600081526060602082015281526020019060019003908161025d5790505090506040518060400160405280633e88a4e260e01b6001600160e01b03191681526020016040518060400160405280601781526020017f676574456e7469747942794e616d6528737472696e6729000000000000000000815250815250816000815181106102f5576102f5610fda565b6020026020010181905250604051806040016040528063c3c5a54760e01b6001600160e01b03191681526020016040518060400160405280601581526020017469735265676973746572656428616464726573732960581b8152508152508160028151811061036657610366610fda565b6020026020010181905250604051806040016040528063a9f9482460e01b6001600160e01b03191681526020016040518060400160405280601e81526020017f6372656174654176617461722843726561746541766174617241726773290000815250815250816003815181106103df576103df610fda565b602002602001018190525073__$307c3a572bdf5d9800a89b3fc2eb3d5604$__63964d13f06040518060400160405280856001600160a01b03168152602001848152506040518263ffffffff1660e01b815260040161043e9190610ff0565b60006040518083038186803b15801561045657600080fd5b505af415801561046a573d6000803e3d6000fd5b505050505050565b61047a610db7565b5060408051608081018252601581830190815274105d985d185c949959da5cdd1c985d1a5bdb915e1d605a1b60608301528152815180830190925260018252600060208381019190915281019190915290565b604051631f44527160e11b815260009073__$d81eab81c4f96e94de97b51155a369ac43$__90633e88a4e29061050990869086906004016110b3565b602060405180830381865af4158015610526573d6000803e3d6000fd5b505050506040513d601f19601f8201168201806040525081019061054a91906110cf565b90505b92915050565b604051630bca13f760e41b815273__$d81eab81c4f96e94de97b51155a369ac43$__9063bca13f709061058a908490600401611132565b60006040518083038186803b1580156105a257600080fd5b505af41580156105b6573d6000803e3d6000fd5b5050505050565b600080306001600160a01b031663911c2a8c6040518163ffffffff1660e01b8152600401602060405180830381865afa1580156105fe573d6000803e3d6000fd5b505050506040513d601f19601f8201168201806040525081019061062291906110cf565b90506001600160a01b0381166106905760405162461bcd60e51b815260206004820152602d60248201527f417661746172526567697374726174696f6e4578743a20776f726c642072656760448201526c1a5cdd1c9e481b9bdd081cd95d609a1b606482015260840161023a565b60008190506000339050806001600160a01b03166386b70bed6040518163ffffffff1660e01b8152600401602060405180830381865afa1580156106d8573d6000803e3d6000fd5b505050506040513d601f19601f820116820180604052508101906106fc91906111d7565b61075b5760405162461bcd60e51b815260206004820152602a60248201527f417661746172526567697374726174696f6e4578743a20776f726c64206973206044820152696e6f742061637469766560b01b606482015260840161023a565b60405163c3c5a54760e01b81523360048201526001600160a01b0383169063c3c5a54790602401602060405180830381865afa15801561079f573d6000803e3d6000fd5b505050506040513d601f19601f820116820180604052508101906107c391906111d7565b6108265760405162461bcd60e51b815260206004820152602e60248201527f417661746172526567697374726174696f6e4578743a20776f726c642069732060448201526d1b9bdd081c9959da5cdd195c995960921b606482015260840161023a565b6000610830610c60565b805490915060009061084a906001600160a01b0316610cf6565b90506001600160a01b0381166108b45760405162461bcd60e51b815260206004820152602960248201527f417661746172526567697374726174696f6e3a20656e7469747920636c6f6e696044820152681b99c819985a5b195960ba1b606482015260840161023a565b6040805160e081018252600060c080830182815283528351602081810186528382528085019190915284518082018652838152848601526060840183905260016080850181905260a085015284519182018552929391929091829161091d918d01908d01610e08565b6001600160a01b03168152602001336001600160a01b03168152602001306001600160a01b031681526020018a806040019061095991906111f4565b8080601f016020809104026020016040519081016040528093929190818152602001838380828437600092019190915250505090825250602081018490526040016109a760608c018c6111f4565b8080601f01602080910402602001604051908101604052809392919081815260200183838082843760009201919091525050509152506040516334d0850960e11b81529091506001600160a01b038416906369a10a1290610a0c908490600401611242565b600060405180830381600087803b158015610a2657600080fd5b505af1158015610a3a573d6000803e3d6000fd5b505060408051606080820183526001600160a01b0388168252825190810183526000808252601e60208381019190915282850191909152820152808201869052905163af2e5d0560e01b815290925073__$d81eab81c4f96e94de97b51155a369ac43$__915063af2e5d0590610ab490849060040161132b565b60006040518083038186803b158015610acc57600080fd5b505af4158015610ae0573d6000803e3d6000fd5b505050506000341115610b8457610afa60208b018b6113f4565b15610b4d57610b0f60408b0160208c01610e08565b6001600160a01b03166108fc349081150290604051600060405180830381858888f19350505050158015610b47573d6000803e3d6000fd5b50610b84565b6040516001600160a01b038516903480156108fc02916000818181858888f19350505050158015610b82573d6000803e3d6000fd5b505b610b9460408b0160208c01610e08565b6001600160a01b0316846001600160a01b03167f7377123f9eb561d749cd3a89a83c22035cad6473521acbb981ee1c52d8f0248560405160405180910390a3509198975050505050505050565b60405163c3c5a54760e01b81526001600160a01b038216600482015260009073__$d81eab81c4f96e94de97b51155a369ac43$__9063c3c5a54790602401602060405180830381865af4158015610c3c573d6000803e3d6000fd5b505050506040513d601f19601f8201168201806040525081019061054d91906111d7565b60408051808201909152601c81527f78722e656e746974792e666163746f72792e73746f726167652e76310000000060209091015260008060ff610cc560017f8b4ac7cd4466ab0d50fe53a88c5446ca4a450d482bef9ad792e7d9f451497e0f611411565b604051602001610cd791815260200190565b60408051601f1981840301815291905280516020909101201692915050565b60006001600160a01b038216610d665760405162461bcd60e51b815260206004820152602f60248201527f4c6962436c6f6e653a20696d706c656d656e746174696f6e2063616e6e6f742060448201526e6265207a65726f206164647265737360881b606482015260840161023a565b60008260601b9050604051733d602d80600a3d3981f3363d3d373d3d3d363d7360601b81528160148201526e5af43d82803e903d91602b57fd5bf360881b60288201526037816000f0949350505050565b604051806040016040528060608152602001610dee6040518060400160405280600061ffff168152602001600061ffff1681525090565b905290565b6001600160a01b03811681146100a657600080fd5b600060208284031215610e1a57600080fd5b8135610e2581610df3565b9392505050565b6000815180845260005b81811015610e5257602081850181015186830182015201610e36565b506000602082860101526020601f19601f83011685010191505092915050565b602081526000825160606020840152610e8e6080840182610e2c565b602094850151805161ffff90811660408701529501519094166060909301929092525090919050565b60008060208385031215610eca57600080fd5b823567ffffffffffffffff80821115610ee257600080fd5b818501915085601f830112610ef657600080fd5b813581811115610f0557600080fd5b866020828501011115610f1757600080fd5b60209290920196919550909350505050565b600060208284031215610f3b57600080fd5b813567ffffffffffffffff811115610f5257600080fd5b820160c08185031215610e2557600080fd5b600060208284031215610f7657600080fd5b813567ffffffffffffffff811115610f8d57600080fd5b820160608185031215610e2557600080fd5b600060208284031215610fb157600080fd5b813567ffffffffffffffff811115610fc857600080fd5b820160808185031215610e2557600080fd5b634e487b7160e01b600052603260045260246000fd5b602080825282516001600160a01b031682820152828101516040808401819052815160608501819052600093926080600583901b87018101939185019290870190865b8181101561107c57888603607f19018352845180516001600160e01b031916875287015187870185905261106985880182610e2c565b9650509386019391860191600101611033565b509398975050505050505050565b81835281816020850137506000828201602090810191909152601f909101601f19169091010190565b6020815260006110c760208301848661108a565b949350505050565b6000602082840312156110e157600080fd5b8151610e2581610df3565b803561ffff811681146110fe57600080fd5b919050565b61ffff80611110836110ec565b16835280611120602084016110ec565b16602084015250604090810135910152565b602081526000823561114381610df3565b6001600160a01b031660208381019190915283013536849003601e1901811261116b57600080fd5b830160208101903567ffffffffffffffff81111561118857600080fd5b80360382131561119757600080fd5b60c060408501526111ac60e08501828461108a565b91505060408401356060840152610e256080840160608601611103565b80151581146100a657600080fd5b6000602082840312156111e957600080fd5b8151610e25816111c9565b6000808335601e1984360301811261120b57600080fd5b83018035915067ffffffffffffffff82111561122657600080fd5b60200191503681900382131561123b57600080fd5b9250929050565b60208152600060018060a01b0380845116602084015280602085015116604084015280604085015116606084015250606083015160c0608084015261128a60e0840182610e2c565b90506080840151601f19808584030160a0860152815160c084526112b160c0850182610e2c565b9050602083015184820360208601526112ca8282610e2c565b915050604083015184820360408601526112e48282610e2c565b915050606083015160608501526080830151608085015260a083015160a085015260a08701519350818682030160c08701526113208185610e2c565b979650505050505050565b602080825282516001600160a01b03168282015282810151805161ffff90811660408086019190915292820151166060840152810151608083015282015160a080830152805160c08084015260009190611389610180850182610e2c565b9050602082015160bf19808684030160e08701526113a78383610e2c565b9250604084015191508086840301610100870152506113c68282610e2c565b6060840151610120870152608084015161014087015260a09093015161016090950194909452509392505050565b60006020828403121561140657600080fd5b8135610e25816111c9565b8181038181111561054d57634e487b7160e01b600052601160045260246000fdfea26469706673582212208d71283bc63e94b5ab0732c400ecfaa79dcab5e0d1c92fe1de087b6f8013db6e64736f6c63430008180033",
  "linkReferences": {
    "contracts/libraries/LibExtensions.sol": {
      "LibExtensions": [
        {
          "length": 20,
          "start": 1036
        }
      ]
    },
    "contracts/libraries/LibRegistration.sol": {
      "LibRegistration": [
        {
          "length": 20,
          "start": 1279
        },
        {
          "length": 20,
          "start": 1410
        },
        {
          "length": 20,
          "start": 2731
        },
        {
          "length": 20,
          "start": 3106
        }
      ]
    }
  },
  "deployedLinkReferences": {
    "contracts/libraries/LibExtensions.sol": {
      "LibExtensions": [
        {
          "length": 20,
          "start": 1004
        }
      ]
    },
    "contracts/libraries/LibRegistration.sol": {
      "LibRegistration": [
        {
          "length": 20,
          "start": 1247
        },
        {
          "length": 20,
          "start": 1378
        },
        {
          "length": 20,
          "start": 2699
        },
        {
          "length": 20,
          "start": 3074
        }
      ]
    }
  }
}