{
  "_format": "hh-sol-artifact-1",
  "contractName": "WearablesExt",
  "sourceName": "contracts/extensions/avatar/WearablesExt.sol",
  "abi": [
    {
      "inputs": [
        {
          "internalType": "uint256",
          "name": "value",
          "type": "uint256"
        },
        {
          "internalType": "uint256",
          "name": "length",
          "type": "uint256"
        }
      ],
      "name": "StringsInsufficientHexLength",
      "type": "error"
    },
    {
      "anonymous": false,
      "inputs": [
        {
          "indexed": true,
          "internalType": "address",
          "name": "wearable",
          "type": "address"
        },
        {
          "indexed": false,
          "internalType": "uint256",
          "name": "tokenId",
          "type": "uint256"
        }
      ],
      "name": "WearableAdded",
      "type": "event"
    },
    {
      "anonymous": false,
      "inputs": [
        {
          "indexed": true,
          "internalType": "address",
          "name": "wearable",
          "type": "address"
        },
        {
          "indexed": false,
          "internalType": "uint256",
          "name": "tokenId",
          "type": "uint256"
        }
      ],
      "name": "WearableRemoved",
      "type": "event"
    },
    {
      "inputs": [
        {
          "components": [
            {
              "internalType": "address",
              "name": "asset",
              "type": "address"
            },
            {
              "internalType": "uint256",
              "name": "tokenId",
              "type": "uint256"
            }
          ],
          "internalType": "struct Wearable",
          "name": "wearable",
          "type": "tuple"
        }
      ],
      "name": "addWearable",
      "outputs": [],
      "stateMutability": "nonpayable",
      "type": "function"
    },
    {
      "inputs": [
        {
          "components": [
            {
              "internalType": "address",
              "name": "asset",
              "type": "address"
            },
            {
              "internalType": "uint256",
              "name": "tokenId",
              "type": "uint256"
            }
          ],
          "internalType": "struct Wearable",
          "name": "wearable",
          "type": "tuple"
        }
      ],
      "name": "canAddWearable",
      "outputs": [
        {
          "internalType": "bool",
          "name": "",
          "type": "bool"
        }
      ],
      "stateMutability": "view",
      "type": "function"
    },
    {
      "inputs": [],
      "name": "getWearables",
      "outputs": [
        {
          "components": [
            {
              "internalType": "address",
              "name": "asset",
              "type": "address"
            },
            {
              "internalType": "uint256",
              "name": "tokenId",
              "type": "uint256"
            }
          ],
          "internalType": "struct Wearable[]",
          "name": "",
          "type": "tuple[]"
        }
      ],
      "stateMutability": "view",
      "type": "function"
    },
    {
      "inputs": [
        {
          "internalType": "address",
          "name": "myAddress",
          "type": "address"
        }
      ],
      "name": "install",
      "outputs": [],
      "stateMutability": "nonpayable",
      "type": "function"
    },
    {
      "inputs": [
        {
          "components": [
            {
              "internalType": "address",
              "name": "asset",
              "type": "address"
            },
            {
              "internalType": "uint256",
              "name": "tokenId",
              "type": "uint256"
            }
          ],
          "internalType": "struct Wearable",
          "name": "wearable",
          "type": "tuple"
        }
      ],
      "name": "isWearing",
      "outputs": [
        {
          "internalType": "bool",
          "name": "",
          "type": "bool"
        }
      ],
      "stateMutability": "view",
      "type": "function"
    },
    {
      "inputs": [],
      "name": "metadata",
      "outputs": [
        {
          "components": [
            {
              "internalType": "string",
              "name": "name",
              "type": "string"
            },
            {
              "components": [
                {
                  "internalType": "uint16",
                  "name": "major",
                  "type": "uint16"
                },
                {
                  "internalType": "uint16",
                  "name": "minor",
                  "type": "uint16"
                }
              ],
              "internalType": "struct Version",
              "name": "version",
              "type": "tuple"
            }
          ],
          "internalType": "struct ExtensionMetadata",
          "name": "",
          "type": "tuple"
        }
      ],
      "stateMutability": "pure",
      "type": "function"
    },
    {
      "inputs": [
        {
          "components": [
            {
              "internalType": "address",
              "name": "asset",
              "type": "address"
            },
            {
              "internalType": "uint256",
              "name": "tokenId",
              "type": "uint256"
            }
          ],
          "internalType": "struct Wearable",
          "name": "wearable",
          "type": "tuple"
        }
      ],
      "name": "removeWearable",
      "outputs": [],
      "stateMutability": "nonpayable",
      "type": "function"
    },
    {
      "inputs": [
        {
          "internalType": "address",
          "name": "myAddress",
          "type": "address"
        }
      ],
      "name": "upgrade",
      "outputs": [],
      "stateMutability": "nonpayable",
      "type": "function"
    }
  ],
  "bytecode": "0x608060405234801561001057600080fd5b506118dd806100206000396000f3fe608060405234801561001057600080fd5b50600436106100885760003560e01c806354cf0b391161005b57806354cf0b39146100e45780635cf59e1e146100f75780639be17fbc1461010c578063ae2314f71461012f57600080fd5b80630900f0101461008d57806312deb11a146100a05780632a1b8f9b146100b3578063392f37e9146100c6575b600080fd5b61009e61009b366004611329565b50565b005b61009e6100ae366004611346565b610142565b61009e6100c1366004611329565b6102ee565b6100ce610596565b6040516100db91906113ae565b60405180910390f35b61009e6100f2366004611346565b6105ee565b6100ff6107d8565b6040516100db91906113f3565b61011f61011a366004611346565b610867565b60405190151581526020016100db565b61011f61013d366004611346565b6108f8565b336001600160a01b031673__$a5a42e46683ad9c79b7b86d5ff60fdf4c1$__638da5cb5b6040518163ffffffff1660e01b8152600401602060405180830381865af4158015610195573d6000803e3d6000fd5b505050506040513d601f19601f820116820180604052508101906101b9919061144b565b6001600160a01b0316146102145760405162461bcd60e51b815260206004820152601f60248201527f4176617461723a2063616c6c6572206973206e6f7420746865206f776e65720060448201526064015b60405180910390fd5b61021d816108f8565b506000610228610e87565b604051630dfd3df760e11b815290915073__$c011c5c9201293cae8fa3d59d203092c54$__90631bfa7bee9061026690600480860191879101611468565b60006040518083038186803b15801561027e57600080fd5b505af4158015610292573d6000803e3d6000fd5b506102a4925050506020830183611329565b6001600160a01b03167fc33fdb2e96e0dba49a8cb36af300177e6ba61804be87a31a26e27ab52596ecf283602001356040516102e291815260200190565b60405180910390a25050565b60408051600580825260c08201909252600091816020015b60408051808201909152600081526060602082015281526020019060019003908161030657905050905060405180604001604052806312deb11a60e01b6001600160e01b0319168152602001604051806040016040528060158152602001746164645765617261626c65285765617261626c652960581b81525081525081600081518110610396576103966114b2565b602002602001018190525060405180604001604052806354cf0b3960e01b6001600160e01b03191681526020016040518060400160405280601881526020017f72656d6f76655765617261626c65285765617261626c652900000000000000008152508152508160018151811061040f5761040f6114b2565b60200260200101819052506040518060400160405280635cf59e1e60e01b6001600160e01b03191681526020016040518060400160405280600e81526020016d6765745765617261626c6573282960901b81525081525081600281518110610479576104796114b2565b60200260200101819052506040518060400160405280639be17fbc60e01b6001600160e01b031916815260200160405180604001604052806013815260200172697357656172696e67285765617261626c652960681b815250815250816003815181106104e8576104e86114b2565b6020026020010181905250604051806040016040528063ae2314f760e01b6001600160e01b03191681526020016040518060400160405280601881526020017f63616e4164645765617261626c65285765617261626c6529000000000000000081525081525081600481518110610561576105616114b2565b60200260200101819052506105926040518060400160405280846001600160a01b0316815260200183815250610f14565b5050565b61059e6112d8565b5060408051608081018252601281830190815271105d985d185c95d9585c98589b195cd15e1d60721b60608301528152815180830190925260018252600060208381019190915281019190915290565b336001600160a01b031673__$a5a42e46683ad9c79b7b86d5ff60fdf4c1$__638da5cb5b6040518163ffffffff1660e01b8152600401602060405180830381865af4158015610641573d6000803e3d6000fd5b505050506040513d601f19601f82011682018060405250810190610665919061144b565b6001600160a01b0316146106bb5760405162461bcd60e51b815260206004820152601f60248201527f4176617461723a2063616c6c6572206973206e6f7420746865206f776e657200604482015260640161020b565b60006106ca6020830183611329565b6001600160a01b0316036106f05760405162461bcd60e51b815260040161020b906114c8565b60008160200135116107145760405162461bcd60e51b815260040161020b90611515565b600061071e610e87565b6040516358888ef160e01b815290915073__$c011c5c9201293cae8fa3d59d203092c54$__906358888ef19061075c90600480860191879101611468565b60006040518083038186803b15801561077457600080fd5b505af4158015610788573d6000803e3d6000fd5b5061079a925050506020830183611329565b6001600160a01b03167f60c3791748d09484f5d949c7570a640dad2f40bbebc2571b8f6c0e6a13e96fac83602001356040516102e291815260200190565b606060006107e4610e87565b6040516372a9762360e11b815260048083019082015290915073__$c011c5c9201293cae8fa3d59d203092c54$__9063e552ec4690602401600060405180830381865af4158015610839573d6000803e3d6000fd5b505050506040513d6000823e601f3d908101601f1916820160405261086191908101906115b6565b91505090565b600080610872610e87565b604051633661870560e11b815290915073__$c011c5c9201293cae8fa3d59d203092c54$__90636cc30e0a906108b090600480860191889101611468565b602060405180830381865af41580156108cd573d6000803e3d6000fd5b505050506040513d601f19601f820116820180604052508101906108f1919061168c565b9392505050565b6000806109086020840184611329565b6001600160a01b03160361092e5760405162461bcd60e51b815260040161020b906114c8565b60008260200135116109525760405162461bcd60e51b815260040161020b90611515565b6000306001600160a01b031663979d7e866040518163ffffffff1660e01b8152600401602060405180830381865afa158015610992573d6000803e3d6000fd5b505050506040513d601f19601f820116820180604052508101906109b6919061144b565b9050806001600160a01b03811663c3c5a5476109d56020870187611329565b6040516001600160e01b031960e084901b1681526001600160a01b039091166004820152602401602060405180830381865afa158015610a19573d6000803e3d6000fd5b505050506040513d601f19601f82011682018060405250810190610a3d919061168c565b610a975760405162461bcd60e51b815260206004820152602560248201527f4176617461723a207765617261626c65206173736574206e6f742072656769736044820152641d195c995960da1b606482015260840161020b565b6000306001600160a01b031663516f279e6040518163ffffffff1660e01b8152600401602060405180830381865afa158015610ad7573d6000803e3d6000fd5b505050506040513d601f19601f82011682018060405250810190610afb919061144b565b90506001600160a01b038116610b635760405162461bcd60e51b815260206004820152602760248201527f4176617461723a206c6f636174696f6e2063616e6e6f74206265207a65726f206044820152666164647265737360c81b606482015260840161020b565b80610b716020870187611329565b6001600160a01b0316633fa47f176040518060a00160405280896000016020810190610b9d9190611329565b6001600160a01b03168152602001846001600160a01b03166330b67baa6040518163ffffffff1660e01b8152600401602060405180830381865afa158015610be9573d6000803e3d6000fd5b505050506040513d601f19601f82011682018060405250810190610c0d919061144b565b6001600160a01b03168152602001846001600160a01b0316636904c94d6040518163ffffffff1660e01b8152600401602060405180830381865afa158015610c59573d6000803e3d6000fd5b505050506040513d601f19601f82011682018060405250810190610c7d919061144b565b6001600160a01b03908116825286811660208084019190915230604093840152825160e086901b6001600160e01b031916815284518316600482015290840151821660248201529183015181166044830152606083015181166064830152608090920151909116608482015260a401602060405180830381865afa158015610d09573d6000803e3d6000fd5b505050506040513d601f19601f82011682018060405250810190610d2d919061168c565b610d915760405162461bcd60e51b815260206004820152602f60248201527f4176617461723a207765617261626c652061737365742063616e6e6f7420626560448201526e103ab9b2b210313c9030bb30ba30b960891b606482015260840161020b565b6000610da06020880188611329565b6040516331a9108f60e11b81526020890135600482015290915030906001600160a01b03831690636352211e90602401602060405180830381865afa158015610ded573d6000803e3d6000fd5b505050506040513d601f19601f82011682018060405250810190610e11919061144b565b6001600160a01b031614610e7a5760405162461bcd60e51b815260206004820152602a60248201527f4176617461723a207765617261626c6520746f6b656e206e6f74206f776e656460448201526910313c9030bb30ba30b960b11b606482015260840161020b565b5060019695505050505050565b60408051808201909152601481527378722e6176617461722e73746f726167652e763160601b60209091015260008060ff610ee360017f4fd0b807f0bccdb8b9f7d6f3136b4bff018fd299ff833e7b8768182dc5b9a5326116c4565b604051602001610ef591815260200190565b60408051601f1981840301815291905280516020909101201692915050565b6000610f1e6110d7565b82516001600160a01b031660009081526020829052604081209192505b8360200151518110156110d157600084602001518281518110610f6057610f606114b2565b6020908102919091018101518051600486810180546001808201835560009283528683206008830401805463ffffffff600790941690950261010090810a9384021990951660e09690961c9290920294909417905583516001600160e01b0319168152918801909352604090208054919350916001600160a01b039104161561105957805461010090046001600160a01b03166000908152602086905260408120875190919060018701906110149061113c565b60208087015160405161102e949392600188019101611774565b60405160208183030381529060405290508060405162461bcd60e51b815260040161020b9190611853565b50604080518082018252600180825287516001600160a01b03908116602080850191825295516001600160e01b0319166000908152898401909652939094209151825493516001600160a81b0319909416901515610100600160a81b0319161761010093909416929092029290921790915501610f3b565b50505050565b60408051808201909152601881527f78722e657874656e73696f6e732e73746f726167652e7631000000000000000060209091015260008060ff610ee360017fb58ec9ca7ba0606d9fecd9f559655d0e5fec418e6751b65b892bccdfd25eb99f6116c4565b60606111526001600160a01b0383166014611158565b92915050565b6060826000611168846002611866565b61117390600261187d565b67ffffffffffffffff81111561118b5761118b61149c565b6040519080825280601f01601f1916602001820160405280156111b5576020820181803683370190505b509050600360fc1b816000815181106111d0576111d06114b2565b60200101906001600160f81b031916908160001a905350600f60fb1b816001815181106111ff576111ff6114b2565b60200101906001600160f81b031916908160001a9053506000611223856002611866565b61122e90600161187d565b90505b60018111156112a6576f181899199a1a9b1b9c1cb0b131b232b360811b83600f1660108110611262576112626114b2565b1a60f81b828281518110611278576112786114b2565b60200101906001600160f81b031916908160001a90535060049290921c9161129f81611890565b9050611231565b5081156112d05760405163e22e27eb60e01b8152600481018690526024810185905260440161020b565b949350505050565b60405180604001604052806060815260200161130f6040518060400160405280600061ffff168152602001600061ffff1681525090565b905290565b6001600160a01b038116811461009b57600080fd5b60006020828403121561133b57600080fd5b81356108f181611314565b60006040828403121561135857600080fd5b50919050565b60005b83811015611379578181015183820152602001611361565b50506000910152565b6000815180845261139a81602086016020860161135e565b601f01601f19169290920160200192915050565b6020815260008251606060208401526113ca6080840182611382565b602094850151805161ffff90811660408701529501519094166060909301929092525090919050565b602080825282518282018190526000919060409081850190868401855b8281101561143e57815180516001600160a01b03168552860151868501529284019290850190600101611410565b5091979650505050505050565b60006020828403121561145d57600080fd5b81516108f181611314565b82815260608101823561147a81611314565b6001600160a01b03166020838101919091529290920135604090910152919050565b634e487b7160e01b600052604160045260246000fd5b634e487b7160e01b600052603260045260246000fd5b6020808252602d908201527f4176617461723a207765617261626c652061737365742063616e6e6f7420626560408201526c207a65726f206164647265737360981b606082015260800190565b60208082526027908201527f4176617461723a207765617261626c6520746f6b656e49642063616e6e6f74206040820152666265207a65726f60c81b606082015260800190565b6040805190810167ffffffffffffffff8111828210171561157f5761157f61149c565b60405290565b604051601f8201601f1916810167ffffffffffffffff811182821017156115ae576115ae61149c565b604052919050565b600060208083850312156115c957600080fd5b825167ffffffffffffffff808211156115e157600080fd5b818501915085601f8301126115f557600080fd5b8151818111156116075761160761149c565b611615848260051b01611585565b818152848101925060069190911b83018401908782111561163557600080fd5b928401925b8184101561168157604084890312156116535760008081fd5b61165b61155c565b845161166681611314565b8152848601518682015283526040909301929184019161163a565b979650505050505050565b60006020828403121561169e57600080fd5b815180151581146108f157600080fd5b634e487b7160e01b600052601160045260246000fd5b81810381811115611152576111526116ae565b8054600090600181811c90808316806116f157607f831692505b6020808410820361171257634e487b7160e01b600052602260045260246000fd5b818015611726576001811461173b57611768565b60ff1986168952841515850289019650611768565b60008881526020902060005b868110156117605781548b820152908501908301611747565b505084890196505b50505050505092915050565b7f4c6962457874656e73696f6e3a20657874656e73696f6e200000000000000000815260006117a660188301876116d7565b6c01030ba1030b2323932b9b99d1609d1b815285516117cc81600d840160208a0161135e565b8082019150507f20617474656d7074696e6720746f20726575736520612073656c6563746f723a600d820152600160fd1b80602d830152855161181681602e850160208a0161135e565b7f2c20776869636820697320616c72656164792072656769737465726564206279602e9390910192830152604e820152611681604f8201856116d7565b6020815260006108f16020830184611382565b8082028115828204841417611152576111526116ae565b80820180821115611152576111526116ae565b60008161189f5761189f6116ae565b50600019019056fea26469706673582212207e05e24738ff0b55052d9f4c7f7da662deec4e1d55647f3ee80229ea74e5d27764736f6c63430008180033",
  "linkReferences": {
    "contracts/libraries/LibAccess.sol": {
      "LibAccess": [
        {
          "length": 20,
          "start": 366
        },
        {
          "length": 20,
          "start": 1562
        }
      ]
    },
    "contracts/libraries/LibLinkedList.sol": {
      "LibLinkedList": [
        {
          "length": 20,
          "start": 602
        },
        {
          "length": 20,
          "start": 1872
        },
        {
          "length": 20,
          "start": 2079
        },
        {
          "length": 20,
          "start": 2212
        }
      ]
    }
  },
  "deployedLinkReferences": {
    "contracts/libraries/LibAccess.sol": {
      "LibAccess": [
        {
          "length": 20,
          "start": 334
        },
        {
          "length": 20,
          "start": 1530
        }
      ]
    },
    "contracts/libraries/LibLinkedList.sol": {
      "LibLinkedList": [
        {
          "length": 20,
          "start": 570
        },
        {
          "length": 20,
          "start": 1840
        },
        {
          "length": 20,
          "start": 2047
        },
        {
          "length": 20,
          "start": 2180
        }
      ]
    }
  }
}