{
  "_format": "hh-sol-artifact-1",
  "contractName": "Avatar",
  "sourceName": "contracts/avatar/instance/Avatar.sol",
  "abi": [
    {
      "inputs": [
        {
          "components": [
            {
              "internalType": "address",
              "name": "avatarRegistry",
              "type": "address"
            },
            {
              "internalType": "address",
              "name": "companyRegistry",
              "type": "address"
            },
            {
              "internalType": "address",
              "name": "experienceRegistry",
              "type": "address"
            },
            {
              "internalType": "address",
              "name": "portalRegistry",
              "type": "address"
            },
            {
              "internalType": "address",
              "name": "erc721Registry",
              "type": "address"
            }
          ],
          "internalType": "struct AvatarConstructorArgs",
          "name": "args",
          "type": "tuple"
        }
      ],
      "stateMutability": "nonpayable",
      "type": "constructor"
    },
    {
      "inputs": [],
      "name": "ECDSAInvalidSignature",
      "type": "error"
    },
    {
      "inputs": [
        {
          "internalType": "uint256",
          "name": "length",
          "type": "uint256"
        }
      ],
      "name": "ECDSAInvalidSignatureLength",
      "type": "error"
    },
    {
      "inputs": [
        {
          "internalType": "bytes32",
          "name": "s",
          "type": "bytes32"
        }
      ],
      "name": "ECDSAInvalidSignatureS",
      "type": "error"
    },
    {
      "inputs": [],
      "name": "ReentrancyGuardReentrantCall",
      "type": "error"
    },
    {
      "anonymous": false,
      "inputs": [
        {
          "indexed": true,
          "internalType": "bytes",
          "name": "appearanceDetails",
          "type": "bytes"
        }
      ],
      "name": "AppearanceChanged",
      "type": "event"
    },
    {
      "anonymous": false,
      "inputs": [
        {
          "indexed": true,
          "internalType": "address",
          "name": "experience",
          "type": "address"
        },
        {
          "indexed": true,
          "internalType": "uint256",
          "name": "fee",
          "type": "uint256"
        },
        {
          "indexed": false,
          "internalType": "bytes",
          "name": "connectionDetails",
          "type": "bytes"
        }
      ],
      "name": "JumpSuccess",
      "type": "event"
    },
    {
      "anonymous": false,
      "inputs": [
        {
          "indexed": true,
          "internalType": "address",
          "name": "location",
          "type": "address"
        }
      ],
      "name": "LocationChanged",
      "type": "event"
    },
    {
      "anonymous": false,
      "inputs": [
        {
          "indexed": true,
          "internalType": "address",
          "name": "wearable",
          "type": "address"
        },
        {
          "indexed": false,
          "internalType": "uint256",
          "name": "tokenId",
          "type": "uint256"
        }
      ],
      "name": "WearableAdded",
      "type": "event"
    },
    {
      "anonymous": false,
      "inputs": [
        {
          "indexed": true,
          "internalType": "address",
          "name": "wearable",
          "type": "address"
        },
        {
          "indexed": false,
          "internalType": "uint256",
          "name": "tokenId",
          "type": "uint256"
        }
      ],
      "name": "WearableRemoved",
      "type": "event"
    },
    {
      "inputs": [
        {
          "internalType": "address[]",
          "name": "signers",
          "type": "address[]"
        }
      ],
      "name": "addSigners",
      "outputs": [],
      "stateMutability": "nonpayable",
      "type": "function"
    },
    {
      "inputs": [
        {
          "components": [
            {
              "internalType": "address",
              "name": "asset",
              "type": "address"
            },
            {
              "internalType": "uint256",
              "name": "tokenId",
              "type": "uint256"
            }
          ],
          "internalType": "struct Wearable",
          "name": "wearable",
          "type": "tuple"
        }
      ],
      "name": "addWearable",
      "outputs": [],
      "stateMutability": "nonpayable",
      "type": "function"
    },
    {
      "inputs": [],
      "name": "appearanceDetails",
      "outputs": [
        {
          "internalType": "bytes",
          "name": "",
          "type": "bytes"
        }
      ],
      "stateMutability": "view",
      "type": "function"
    },
    {
      "inputs": [],
      "name": "avatarOwnerSigningNonce",
      "outputs": [
        {
          "internalType": "uint256",
          "name": "",
          "type": "uint256"
        }
      ],
      "stateMutability": "view",
      "type": "function"
    },
    {
      "inputs": [],
      "name": "avatarRegistry",
      "outputs": [
        {
          "internalType": "address",
          "name": "",
          "type": "address"
        }
      ],
      "stateMutability": "view",
      "type": "function"
    },
    {
      "inputs": [
        {
          "components": [
            {
              "internalType": "address",
              "name": "asset",
              "type": "address"
            },
            {
              "internalType": "uint256",
              "name": "tokenId",
              "type": "uint256"
            }
          ],
          "internalType": "struct Wearable",
          "name": "wearable",
          "type": "tuple"
        }
      ],
      "name": "canAddWearable",
      "outputs": [
        {
          "internalType": "bool",
          "name": "",
          "type": "bool"
        }
      ],
      "stateMutability": "view",
      "type": "function"
    },
    {
      "inputs": [],
      "name": "canReceiveTokensOutsideOfExperience",
      "outputs": [
        {
          "internalType": "bool",
          "name": "",
          "type": "bool"
        }
      ],
      "stateMutability": "view",
      "type": "function"
    },
    {
      "inputs": [
        {
          "internalType": "address",
          "name": "newOwner",
          "type": "address"
        }
      ],
      "name": "changeOwner",
      "outputs": [],
      "stateMutability": "nonpayable",
      "type": "function"
    },
    {
      "inputs": [],
      "name": "companyRegistry",
      "outputs": [
        {
          "internalType": "contract ICompanyRegistry",
          "name": "",
          "type": "address"
        }
      ],
      "stateMutability": "view",
      "type": "function"
    },
    {
      "inputs": [
        {
          "internalType": "address",
          "name": "signer",
          "type": "address"
        }
      ],
      "name": "companySigningNonce",
      "outputs": [
        {
          "internalType": "uint256",
          "name": "",
          "type": "uint256"
        }
      ],
      "stateMutability": "view",
      "type": "function"
    },
    {
      "inputs": [
        {
          "components": [
            {
              "internalType": "uint256",
              "name": "portalId",
              "type": "uint256"
            },
            {
              "internalType": "uint256",
              "name": "agreedFee",
              "type": "uint256"
            },
            {
              "internalType": "bytes",
              "name": "avatarOwnerSignature",
              "type": "bytes"
            }
          ],
          "internalType": "struct DelegatedJumpRequest",
          "name": "request",
          "type": "tuple"
        }
      ],
      "name": "delegateJump",
      "outputs": [],
      "stateMutability": "payable",
      "type": "function"
    },
    {
      "inputs": [],
      "name": "erc721Registry",
      "outputs": [
        {
          "internalType": "contract IAssetRegistry",
          "name": "",
          "type": "address"
        }
      ],
      "stateMutability": "view",
      "type": "function"
    },
    {
      "inputs": [],
      "name": "experienceRegistry",
      "outputs": [
        {
          "internalType": "contract IExperienceRegistry",
          "name": "",
          "type": "address"
        }
      ],
      "stateMutability": "view",
      "type": "function"
    },
    {
      "inputs": [],
      "name": "getWearables",
      "outputs": [
        {
          "components": [
            {
              "internalType": "address",
              "name": "asset",
              "type": "address"
            },
            {
              "internalType": "uint256",
              "name": "tokenId",
              "type": "uint256"
            }
          ],
          "internalType": "struct Wearable[]",
          "name": "",
          "type": "tuple[]"
        }
      ],
      "stateMutability": "view",
      "type": "function"
    },
    {
      "inputs": [
        {
          "internalType": "bytes32",
          "name": "role",
          "type": "bytes32"
        },
        {
          "internalType": "address",
          "name": "account",
          "type": "address"
        }
      ],
      "name": "grantRole",
      "outputs": [],
      "stateMutability": "nonpayable",
      "type": "function"
    },
    {
      "inputs": [
        {
          "internalType": "bytes32",
          "name": "role",
          "type": "bytes32"
        },
        {
          "internalType": "address",
          "name": "account",
          "type": "address"
        }
      ],
      "name": "hasRole",
      "outputs": [
        {
          "internalType": "bool",
          "name": "",
          "type": "bool"
        }
      ],
      "stateMutability": "view",
      "type": "function"
    },
    {
      "inputs": [
        {
          "internalType": "string",
          "name": "name",
          "type": "string"
        },
        {
          "internalType": "address",
          "name": "_owner",
          "type": "address"
        },
        {
          "internalType": "address",
          "name": "startingExperience",
          "type": "address"
        },
        {
          "internalType": "bytes",
          "name": "initData",
          "type": "bytes"
        }
      ],
      "name": "init",
      "outputs": [],
      "stateMutability": "nonpayable",
      "type": "function"
    },
    {
      "inputs": [
        {
          "internalType": "address",
          "name": "account",
          "type": "address"
        }
      ],
      "name": "isAdmin",
      "outputs": [
        {
          "internalType": "bool",
          "name": "",
          "type": "bool"
        }
      ],
      "stateMutability": "view",
      "type": "function"
    },
    {
      "inputs": [
        {
          "internalType": "address",
          "name": "account",
          "type": "address"
        }
      ],
      "name": "isSigner",
      "outputs": [
        {
          "internalType": "bool",
          "name": "",
          "type": "bool"
        }
      ],
      "stateMutability": "view",
      "type": "function"
    },
    {
      "inputs": [
        {
          "components": [
            {
              "internalType": "address",
              "name": "asset",
              "type": "address"
            },
            {
              "internalType": "uint256",
              "name": "tokenId",
              "type": "uint256"
            }
          ],
          "internalType": "struct Wearable",
          "name": "wearable",
          "type": "tuple"
        }
      ],
      "name": "isWearing",
      "outputs": [
        {
          "internalType": "bool",
          "name": "",
          "type": "bool"
        }
      ],
      "stateMutability": "view",
      "type": "function"
    },
    {
      "inputs": [
        {
          "components": [
            {
              "internalType": "uint256",
              "name": "portalId",
              "type": "uint256"
            },
            {
              "internalType": "uint256",
              "name": "agreedFee",
              "type": "uint256"
            },
            {
              "internalType": "bytes",
              "name": "destinationCompanySignature",
              "type": "bytes"
            }
          ],
          "internalType": "struct AvatarJumpRequest",
          "name": "request",
          "type": "tuple"
        }
      ],
      "name": "jump",
      "outputs": [],
      "stateMutability": "payable",
      "type": "function"
    },
    {
      "inputs": [],
      "name": "location",
      "outputs": [
        {
          "internalType": "address",
          "name": "",
          "type": "address"
        }
      ],
      "stateMutability": "view",
      "type": "function"
    },
    {
      "inputs": [],
      "name": "name",
      "outputs": [
        {
          "internalType": "string",
          "name": "",
          "type": "string"
        }
      ],
      "stateMutability": "view",
      "type": "function"
    },
    {
      "inputs": [
        {
          "internalType": "address",
          "name": "",
          "type": "address"
        },
        {
          "internalType": "address",
          "name": "",
          "type": "address"
        },
        {
          "internalType": "uint256",
          "name": "tokenId",
          "type": "uint256"
        },
        {
          "internalType": "bytes",
          "name": "",
          "type": "bytes"
        }
      ],
      "name": "onERC721Received",
      "outputs": [
        {
          "internalType": "bytes4",
          "name": "",
          "type": "bytes4"
        }
      ],
      "stateMutability": "nonpayable",
      "type": "function"
    },
    {
      "inputs": [
        {
          "internalType": "uint256",
          "name": "tokenId",
          "type": "uint256"
        }
      ],
      "name": "onERC721Revoked",
      "outputs": [],
      "stateMutability": "nonpayable",
      "type": "function"
    },
    {
      "inputs": [],
      "name": "owner",
      "outputs": [
        {
          "internalType": "address",
          "name": "",
          "type": "address"
        }
      ],
      "stateMutability": "view",
      "type": "function"
    },
    {
      "inputs": [],
      "name": "portalRegistry",
      "outputs": [
        {
          "internalType": "contract IPortalRegistry",
          "name": "",
          "type": "address"
        }
      ],
      "stateMutability": "view",
      "type": "function"
    },
    {
      "inputs": [
        {
          "internalType": "address[]",
          "name": "signers",
          "type": "address[]"
        }
      ],
      "name": "removeSigners",
      "outputs": [],
      "stateMutability": "nonpayable",
      "type": "function"
    },
    {
      "inputs": [
        {
          "components": [
            {
              "internalType": "address",
              "name": "asset",
              "type": "address"
            },
            {
              "internalType": "uint256",
              "name": "tokenId",
              "type": "uint256"
            }
          ],
          "internalType": "struct Wearable",
          "name": "wearable",
          "type": "tuple"
        }
      ],
      "name": "removeWearable",
      "outputs": [],
      "stateMutability": "nonpayable",
      "type": "function"
    },
    {
      "inputs": [
        {
          "internalType": "bytes32",
          "name": "role",
          "type": "bytes32"
        },
        {
          "internalType": "address",
          "name": "account",
          "type": "address"
        }
      ],
      "name": "revokeRole",
      "outputs": [],
      "stateMutability": "nonpayable",
      "type": "function"
    },
    {
      "inputs": [
        {
          "internalType": "bytes",
          "name": "details",
          "type": "bytes"
        }
      ],
      "name": "setAppearanceDetails",
      "outputs": [],
      "stateMutability": "nonpayable",
      "type": "function"
    },
    {
      "inputs": [
        {
          "internalType": "bool",
          "name": "canReceive",
          "type": "bool"
        }
      ],
      "name": "setCanReceiveTokensOutsideOfExperience",
      "outputs": [],
      "stateMutability": "nonpayable",
      "type": "function"
    },
    {
      "inputs": [],
      "name": "username",
      "outputs": [
        {
          "internalType": "string",
          "name": "",
          "type": "string"
        }
      ],
      "stateMutability": "view",
      "type": "function"
    },
    {
      "inputs": [],
      "name": "version",
      "outputs": [
        {
          "components": [
            {
              "internalType": "uint16",
              "name": "major",
              "type": "uint16"
            },
            {
              "internalType": "uint16",
              "name": "minor",
              "type": "uint16"
            }
          ],
          "internalType": "struct Version",
          "name": "",
          "type": "tuple"
        }
      ],
      "stateMutability": "pure",
      "type": "function"
    },
    {
      "inputs": [
        {
          "internalType": "uint256",
          "name": "amount",
          "type": "uint256"
        }
      ],
      "name": "withdraw",
      "outputs": [],
      "stateMutability": "nonpayable",
      "type": "function"
    },
    {
      "stateMutability": "payable",
      "type": "receive"
    }
  ],
  "bytecode": "0x6101206040523480156200001257600080fd5b50604051620042ae380380620042ae833981016040819052620000359162000279565b600160005580516001600160a01b0316620000975760405162461bcd60e51b815260206004820181905260248201527f436f6d70616e793a20496e76616c69642061766174617220726567697374727960448201526064015b60405180910390fd5b60408101516001600160a01b0316620000ff5760405162461bcd60e51b8152602060048201526024808201527f436f6d70616e793a20496e76616c696420657870657269656e636520726567696044820152637374727960e01b60648201526084016200008e565b60208101516001600160a01b0316620001655760405162461bcd60e51b815260206004820152602160248201527f436f6d70616e793a20496e76616c696420636f6d70616e7920726567697374726044820152607960f81b60648201526084016200008e565b60808101516001600160a01b0316620001c15760405162461bcd60e51b815260206004820181905260248201527f436f6d70616e793a20496e76616c69642045524337323120726567697374727960448201526064016200008e565b60608101516001600160a01b03166200021d5760405162461bcd60e51b815260206004820181905260248201527f436f6d70616e793a20496e76616c696420706f7274616c20726567697374727960448201526064016200008e565b80516001600160a01b0390811660809081526040830151821660a0526020830151821660c052820151811660e052606090910151166101005262000320565b80516001600160a01b03811681146200027457600080fd5b919050565b600060a082840312156200028c57600080fd5b60405160a081016001600160401b0381118282101715620002bd57634e487b7160e01b600052604160045260246000fd5b604052620002cb836200025c565b8152620002db602084016200025c565b6020820152620002ee604084016200025c565b604082015262000301606084016200025c565b606082015262000314608084016200025c565b60808201529392505050565b60805160a05160c05160e05161010051613f0a620003a4600039600081816105bb01528181611102015281816116160152612acd0152600081816106230152818161095e01528181612023015261266f0152600081816105ef01526114840152600081816104a70152611df90152600081816106770152611be10152613f0a6000f3fe6080604052600436106102085760003560e01c80638d361e4311610118578063ae2314f7116100a0578063d547741f1161006f578063d547741f14610645578063e3d7ad7314610665578063e62194f114610699578063e8906a2d146106b9578063f890d7c9146106d957600080fd5b8063ae2314f714610589578063b6664934146105a9578063c51aba2b146105dd578063ca6d44291461061157600080fd5b8063949a1ddc116100e7578063949a1ddc146104e95780639be17fbc146105095780639d870bf614610529578063a6f9dae114610549578063ac4d00611461056957600080fd5b80638d361e43146104605780638da5cb5b146104805780638f09a6be1461049557806391d14854146104c957600080fd5b8063392f56691161019b5780635cf59e1e1161016a5780635cf59e1e146103f657806361fac54d146102475780637dc759e5146104185780637df73e271461042b5780638970220e1461044b57600080fd5b8063392f566914610349578063516f279e1461035c57806354cf0b391461038957806354fd4d50146103a957600080fd5b8063181d939b116101d7578063181d939b146102c457806324d7806c146102e95780632e1a7d4d146103095780632f2ff15d1461032957600080fd5b806303f7d3ba1461021457806306fdde031461024757806312deb11a14610269578063150b7a021461028b57600080fd5b3661020f57005b600080fd5b34801561022057600080fd5b5061023461022f366004613272565b6106ee565b6040519081526020015b60405180910390f35b34801561025357600080fd5b5061025c61071a565b60405161023e91906132df565b34801561027557600080fd5b506102896102843660046132f2565b6107b2565b005b34801561029757600080fd5b506102ab6102a6366004613352565b610932565b6040516001600160e01b0319909116815260200161023e565b3480156102d057600080fd5b506102d9610c8e565b604051901515815260200161023e565b3480156102f557600080fd5b506102d9610304366004613272565b610ca1565b34801561031557600080fd5b506102896103243660046133c4565b610d27565b34801561033557600080fd5b506102896103443660046133dd565b610e58565b610289610357366004613570565b610f5e565b34801561036857600080fd5b50610371611208565b6040516001600160a01b03909116815260200161023e565b34801561039557600080fd5b506102896103a43660046132f2565b611226565b3480156103b557600080fd5b50604080518082018252600080825260209182018190528251808401845260018082529083019182528351908152905161ffff16918101919091520161023e565b34801561040257600080fd5b5061040b6113e0565b60405161023e91906135ac565b610289610426366004613570565b61146f565b34801561043757600080fd5b506102d9610446366004613272565b61168e565b34801561045757600080fd5b5061025c6116d1565b34801561046c57600080fd5b5061028961047b36600461360c565b6116e9565b34801561048c57600080fd5b506103716117b1565b3480156104a157600080fd5b506103717f000000000000000000000000000000000000000000000000000000000000000081565b3480156104d557600080fd5b506102d96104e43660046133dd565b611825565b3480156104f557600080fd5b50610289610504366004613680565b6118b2565b34801561051557600080fd5b506102d96105243660046132f2565b6119ad565b34801561053557600080fd5b506102896105443660046136cf565b611a13565b34801561055557600080fd5b50610289610564366004613272565b611acb565b34801561057557600080fd5b506102896105843660046136ec565b611bd6565b34801561059557600080fd5b506102d96105a43660046132f2565b611fbf565b3480156105b557600080fd5b506103717f000000000000000000000000000000000000000000000000000000000000000081565b3480156105e957600080fd5b506103717f000000000000000000000000000000000000000000000000000000000000000081565b34801561061d57600080fd5b506103717f000000000000000000000000000000000000000000000000000000000000000081565b34801561065157600080fd5b506102896106603660046133dd565b61256f565b34801561067157600080fd5b506103717f000000000000000000000000000000000000000000000000000000000000000081565b3480156106a557600080fd5b506102896106b43660046133c4565b612645565b3480156106c557600080fd5b506102896106d436600461360c565b61289d565b3480156106e557600080fd5b50610234612965565b60006106f8612978565b6001600160a01b03909216600090815260019290920160205250604090205490565b6060610724612a05565b805461072f90613784565b80601f016020809104026020016040519081016040528092919081815260200182805461075b90613784565b80156107a85780601f1061077d576101008083540402835291602001916107a8565b820191906000526020600020905b81548152906001019060200180831161078b57829003601f168201915b5050505050905090565b336001600160a01b031673__$a5a42e46683ad9c79b7b86d5ff60fdf4c1$__638da5cb5b6040518163ffffffff1660e01b8152600401602060405180830381865af4158015610805573d6000803e3d6000fd5b505050506040513d601f19601f8201168201806040525081019061082991906137b8565b6001600160a01b0316146108585760405162461bcd60e51b815260040161084f906137d5565b60405180910390fd5b61086181611fbf565b50600061086c612978565b604051630dfd3df760e11b815290915073__$c011c5c9201293cae8fa3d59d203092c54$__90631bfa7bee906108aa9060048086019187910161380c565b60006040518083038186803b1580156108c257600080fd5b505af41580156108d6573d6000803e3d6000fd5b506108e8925050506020830183613272565b6001600160a01b03167fc33fdb2e96e0dba49a8cb36af300177e6ba61804be87a31a26e27ab52596ecf2836020013560405161092691815260200190565b60405180910390a25050565b600061093c612a61565b6000610946612978565b60405163c3c5a54760e01b81523360048201529091507f00000000000000000000000000000000000000000000000000000000000000006001600160a01b03169063c3c5a54790602401602060405180830381865afa1580156109ad573d6000803e3d6000fd5b505050506040513d601f19601f820116820180604052508101906109d19190613840565b610a345760405162461bcd60e51b815260206004820152602e60248201527f4176617461723a2045524337323120746f6b656e206e6f742066726f6d20726560448201526d19da5cdd195c995908185cdcd95d60921b606482015260840161084f565b8054339060ff16610ba2576000336001600160a01b0316631d1438486040518163ffffffff1660e01b8152600401602060405180830381865afa158015610a7f573d6000803e3d6000fd5b505050506040513d601f19601f82011682018060405250810190610aa391906137b8565b905060008360000160019054906101000a90046001600160a01b03169050806001600160a01b0316636904c94d6040518163ffffffff1660e01b8152600401602060405180830381865afa158015610aff573d6000803e3d6000fd5b505050506040513d601f19601f82011682018060405250810190610b2391906137b8565b6001600160a01b0316826001600160a01b031614610b9f5760405162461bcd60e51b815260206004820152603360248201527f4176617461723a2063616e6e6f74207265636569766520746f6b656e73206f756044820152727473696465206f6620657870657269656e636560681b606482015260840161084f565b50505b6040516331a9108f60e11b81526004810187905230906001600160a01b03831690636352211e90602401602060405180830381865afa158015610be9573d6000803e3d6000fd5b505050506040513d601f19601f82011682018060405250810190610c0d91906137b8565b6001600160a01b031614610c745760405162461bcd60e51b815260206004820152602860248201527f4176617461723a2045524337323120746f6b656e206e6f74206f776e656420626044820152673c9030bb30ba30b960c11b606482015260840161084f565b5050600160005550630a85bd0160e11b5b95945050505050565b6000610c98612978565b5460ff16919050565b604051630935e01b60e21b81526001600160a01b038216600482015260009073__$a5a42e46683ad9c79b7b86d5ff60fdf4c1$__906324d7806c906024015b602060405180830381865af4158015610cfd573d6000803e3d6000fd5b505050506040513d601f19601f82011682018060405250810190610d219190613840565b92915050565b336001600160a01b031673__$a5a42e46683ad9c79b7b86d5ff60fdf4c1$__638da5cb5b6040518163ffffffff1660e01b8152600401602060405180830381865af4158015610d7a573d6000803e3d6000fd5b505050506040513d601f19601f82011682018060405250810190610d9e91906137b8565b6001600160a01b031614610dc45760405162461bcd60e51b815260040161084f906137d5565b47811015610e145760405162461bcd60e51b815260206004820152601c60248201527f4176617461723a20496e73756666696369656e742062616c616e636500000000604482015260640161084f565b610e1c6117b1565b6001600160a01b03166108fc829081150290604051600060405180830381858888f19350505050158015610e54573d6000803e3d6000fd5b5050565b604051630935e01b60e21b815233600482015273__$a5a42e46683ad9c79b7b86d5ff60fdf4c1$__906324d7806c90602401602060405180830381865af4158015610ea7573d6000803e3d6000fd5b505050506040513d601f19601f82011682018060405250810190610ecb9190613840565b610ee75760405162461bcd60e51b815260040161084f9061385d565b604051632f2ff15d60e01b8152600481018390526001600160a01b038216602482015273__$a5a42e46683ad9c79b7b86d5ff60fdf4c1$__90632f2ff15d906044015b60006040518083038186803b158015610f4257600080fd5b505af4158015610f56573d6000803e3d6000fd5b505050505050565b336001600160a01b031673__$a5a42e46683ad9c79b7b86d5ff60fdf4c1$__638da5cb5b6040518163ffffffff1660e01b8152600401602060405180830381865af4158015610fb1573d6000803e3d6000fd5b505050506040513d601f19601f82011682018060405250810190610fd591906137b8565b6001600160a01b031614610ffb5760405162461bcd60e51b815260040161084f906137d5565b600061100682612a8b565b905080604001518260200151146110745760405162461bcd60e51b815260206004820152602c60248201527f4176617461723a206167726565642066656520646f6573206e6f74206d61746360448201526b6820706f7274616c2066656560a01b606482015260840161084f565b6040810151156110f257600061108a34476138a8565b905081604001518110156110f05760405162461bcd60e51b815260206004820152602760248201527f4176617461723a20696e73756666696369656e742066756e647320666f72206a604482015266756d702066656560c81b606482015260840161084f565b505b60006110fc612978565b905060007f00000000000000000000000000000000000000000000000000000000000000006001600160a01b03166384c4484e846040015186600001516040518363ffffffff1660e01b815260040161115791815260200190565b60006040518083038185885af1158015611175573d6000803e3d6000fd5b50505050506040513d6000823e601f3d908101601f1916820160405261119e91908101906138bb565b83518354610100600160a81b0319166101006001600160a01b039092169182021784556040808601519051929350917fe6b8160f723fcdb4c3cb8bf86e99d55e311c607a791f7503cc16dfaff3271e43906111fa9085906132df565b60405180910390a350505050565b6000611212612978565b5461010090046001600160a01b0316919050565b336001600160a01b031673__$a5a42e46683ad9c79b7b86d5ff60fdf4c1$__638da5cb5b6040518163ffffffff1660e01b8152600401602060405180830381865af4158015611279573d6000803e3d6000fd5b505050506040513d601f19601f8201168201806040525081019061129d91906137b8565b6001600160a01b0316146112c35760405162461bcd60e51b815260040161084f906137d5565b60006112d26020830183613272565b6001600160a01b0316036112f85760405162461bcd60e51b815260040161084f90613928565b600081602001351161131c5760405162461bcd60e51b815260040161084f90613975565b6000611326612978565b6040516358888ef160e01b815290915073__$c011c5c9201293cae8fa3d59d203092c54$__906358888ef1906113649060048086019187910161380c565b60006040518083038186803b15801561137c57600080fd5b505af4158015611390573d6000803e3d6000fd5b506113a2925050506020830183613272565b6001600160a01b03167f60c3791748d09484f5d949c7570a640dad2f40bbebc2571b8f6c0e6a13e96fac836020013560405161092691815260200190565b606060006113ec612978565b6040516372a9762360e11b815260048083019082015290915073__$c011c5c9201293cae8fa3d59d203092c54$__9063e552ec4690602401600060405180830381865af4158015611441573d6000803e3d6000fd5b505050506040513d6000823e601f3d908101601f1916820160405261146991908101906139bc565b91505090565b60405163c3c5a54760e01b81523360048201527f00000000000000000000000000000000000000000000000000000000000000006001600160a01b03169063c3c5a54790602401602060405180830381865afa1580156114d3573d6000803e3d6000fd5b505050506040513d601f19601f820116820180604052508101906114f79190613840565b6115435760405162461bcd60e51b815260206004820152601e60248201527f4176617461723a20436f6d70616e79206e6f7420726567697374657265640000604482015260640161084f565b336001600160a01b03166386b70bed6040518163ffffffff1660e01b8152600401602060405180830381865afa158015611581573d6000803e3d6000fd5b505050506040513d601f19601f820116820180604052508101906115a59190613840565b6115f15760405162461bcd60e51b815260206004820152601a60248201527f4176617461723a20436f6d70616e79206e6f7420616374697665000000000000604482015260640161084f565b6115fa81612d33565b8051604051630a22d5a160e21b81526000916001600160a01b037f0000000000000000000000000000000000000000000000000000000000000000169163288b56849161164d9160040190815260200190565b608060405180830381865afa15801561166a573d6000803e3d6000fd5b505050506040513d601f19601f820116820180604052508101906110069190613a91565b604051637df73e2760e01b81526001600160a01b038216600482015260009073__$a5a42e46683ad9c79b7b86d5ff60fdf4c1$__90637df73e2790602401610ce0565b60606116db612978565b600301805461072f90613784565b604051630935e01b60e21b815233600482015273__$a5a42e46683ad9c79b7b86d5ff60fdf4c1$__906324d7806c90602401602060405180830381865af4158015611738573d6000803e3d6000fd5b505050506040513d601f19601f8201168201806040525081019061175c9190613840565b6117785760405162461bcd60e51b815260040161084f9061385d565b604051638d361e4360e01b815273__$a5a42e46683ad9c79b7b86d5ff60fdf4c1$__90638d361e4390610f2a9085908590600401613b0c565b600073__$a5a42e46683ad9c79b7b86d5ff60fdf4c1$__638da5cb5b6040518163ffffffff1660e01b8152600401602060405180830381865af41580156117fc573d6000803e3d6000fd5b505050506040513d601f19601f8201168201806040525081019061182091906137b8565b905090565b604051632474521560e21b8152600481018390526001600160a01b038216602482015260009073__$a5a42e46683ad9c79b7b86d5ff60fdf4c1$__906391d1485490604401602060405180830381865af4158015611887573d6000803e3d6000fd5b505050506040513d601f19601f820116820180604052508101906118ab9190613840565b9392505050565b336001600160a01b031673__$a5a42e46683ad9c79b7b86d5ff60fdf4c1$__638da5cb5b6040518163ffffffff1660e01b8152600401602060405180830381865af4158015611905573d6000803e3d6000fd5b505050506040513d601f19601f8201168201806040525081019061192991906137b8565b6001600160a01b03161461194f5760405162461bcd60e51b815260040161084f906137d5565b8181611959612978565b60030191611968919083613ba7565b508181604051611979929190613c66565b604051908190038120907fe8ed633186ac64f9f0ab9b48cb1cca12eebe0f7e0ffdc46908733a060363236690600090a25050565b6000806119b8612978565b604051633661870560e11b815290915073__$c011c5c9201293cae8fa3d59d203092c54$__90636cc30e0a906119f69060048086019188910161380c565b602060405180830381865af4158015611887573d6000803e3d6000fd5b336001600160a01b031673__$a5a42e46683ad9c79b7b86d5ff60fdf4c1$__638da5cb5b6040518163ffffffff1660e01b8152600401602060405180830381865af4158015611a66573d6000803e3d6000fd5b505050506040513d601f19601f82011682018060405250810190611a8a91906137b8565b6001600160a01b031614611ab05760405162461bcd60e51b815260040161084f906137d5565b80611ab9612978565b805460ff191691151591909117905550565b336001600160a01b031673__$a5a42e46683ad9c79b7b86d5ff60fdf4c1$__638da5cb5b6040518163ffffffff1660e01b8152600401602060405180830381865af4158015611b1e573d6000803e3d6000fd5b505050506040513d601f19601f82011682018060405250810190611b4291906137b8565b6001600160a01b031614611b685760405162461bcd60e51b815260040161084f906137d5565b6040516313af403560e01b81526001600160a01b038216600482015273__$a5a42e46683ad9c79b7b86d5ff60fdf4c1$__906313af40359060240160006040518083038186803b158015611bbb57600080fd5b505af4158015611bcf573d6000803e3d6000fd5b5050505050565b336001600160a01b037f00000000000000000000000000000000000000000000000000000000000000001614611c5c5760405162461bcd60e51b815260206004820152602560248201527f52656d6f7661626c65456e746974793a206f6e6c79206f776e696e6720726567604482015264697374727960d81b606482015260840161084f565b60006001600160a01b031673__$a5a42e46683ad9c79b7b86d5ff60fdf4c1$__638da5cb5b6040518163ffffffff1660e01b8152600401602060405180830381865af4158015611cb0573d6000803e3d6000fd5b505050506040513d601f19601f82011682018060405250810190611cd491906137b8565b6001600160a01b031614611d2a5760405162461bcd60e51b815260206004820152601b60248201527f4176617461723a20416c726561647920696e697469616c697a65640000000000604482015260640161084f565b6001600160a01b038416611d785760405162461bcd60e51b815260206004820152601560248201527420bb30ba30b91d1024b73b30b634b21037bbb732b960591b604482015260640161084f565b6001600160a01b038316611dda5760405162461bcd60e51b815260206004820152602360248201527f4176617461723a20496e76616c6964207374617274696e6720657870657269656044820152626e636560e81b606482015260840161084f565b60405163c3c5a54760e01b81526001600160a01b0384811660048301527f0000000000000000000000000000000000000000000000000000000000000000169063c3c5a54790602401602060405180830381865afa158015611e40573d6000803e3d6000fd5b505050506040513d601f19601f82011682018060405250810190611e649190613840565b611ec35760405162461bcd60e51b815260206004820152602a60248201527f4176617461723a205374617274696e6720657870657269656e6365206e6f74206044820152691c9959da5cdd195c995960b21b606482015260840161084f565b6040805160008152602081019182905263d9ac971f60e01b90915273__$a5a42e46683ad9c79b7b86d5ff60fdf4c1$__63d9ac971f611f06878460248101613c76565b60006040518083038186803b158015611f1e57600080fd5b505af4158015611f32573d6000803e3d6000fd5b505050508686611f40612a05565b91611f4c919083613ba7565b506000611f5b83850185613cd2565b90506000611f67612978565b825181546001600160a81b031916901515610100600160a81b031916176101006001600160a01b0389160217815560208301519091506003820190611fac9082613d51565b5060c86007909101555050505050505050565b600080611fcf6020840184613272565b6001600160a01b031603611ff55760405162461bcd60e51b815260040161084f90613928565b60008260200135116120195760405162461bcd60e51b815260040161084f90613975565b6001600160a01b037f00000000000000000000000000000000000000000000000000000000000000001663c3c5a5476120556020850185613272565b6040516001600160e01b031960e084901b1681526001600160a01b039091166004820152602401602060405180830381865afa158015612099573d6000803e3d6000fd5b505050506040513d601f19601f820116820180604052508101906120bd9190613840565b6121175760405162461bcd60e51b815260206004820152602560248201527f4176617461723a207765617261626c65206173736574206e6f742072656769736044820152641d195c995960da1b606482015260840161084f565b6121246020830183613272565b6001600160a01b03166386b70bed6040518163ffffffff1660e01b8152600401602060405180830381865afa158015612161573d6000803e3d6000fd5b505050506040513d601f19601f820116820180604052508101906121859190613840565b6121db5760405162461bcd60e51b815260206004820152602160248201527f4176617461723a207765617261626c65206173736574206e6f742061637469766044820152606560f81b606482015260840161084f565b60006121e5611208565b90506001600160a01b03811661224d5760405162461bcd60e51b815260206004820152602760248201527f4176617461723a206c6f636174696f6e2063616e6e6f74206265207a65726f206044820152666164647265737360c81b606482015260840161084f565b8061225b6020850185613272565b6001600160a01b0316633fa47f176040518060a001604052808760000160208101906122879190613272565b6001600160a01b03168152602001846001600160a01b03166330b67baa6040518163ffffffff1660e01b8152600401602060405180830381865afa1580156122d3573d6000803e3d6000fd5b505050506040513d601f19601f820116820180604052508101906122f791906137b8565b6001600160a01b03168152602001846001600160a01b0316636904c94d6040518163ffffffff1660e01b8152600401602060405180830381865afa158015612343573d6000803e3d6000fd5b505050506040513d601f19601f8201168201806040525081019061236791906137b8565b6001600160a01b03908116825286811660208084019190915230604093840152825160e086901b6001600160e01b031916815284518316600482015290840151821660248201529183015181166044830152606083015181166064830152608090920151909116608482015260a401602060405180830381865afa1580156123f3573d6000803e3d6000fd5b505050506040513d601f19601f820116820180604052508101906124179190613840565b61247b5760405162461bcd60e51b815260206004820152602f60248201527f4176617461723a207765617261626c652061737365742063616e6e6f7420626560448201526e103ab9b2b210313c9030bb30ba30b960891b606482015260840161084f565b600061248a6020860186613272565b6040516331a9108f60e11b81526020870135600482015290915030906001600160a01b03831690636352211e90602401602060405180830381865afa1580156124d7573d6000803e3d6000fd5b505050506040513d601f19601f820116820180604052508101906124fb91906137b8565b6001600160a01b0316146125645760405162461bcd60e51b815260206004820152602a60248201527f4176617461723a207765617261626c6520746f6b656e206e6f74206f776e656460448201526910313c9030bb30ba30b960b11b606482015260840161084f565b506001949350505050565b604051630935e01b60e21b815233600482015273__$a5a42e46683ad9c79b7b86d5ff60fdf4c1$__906324d7806c90602401602060405180830381865af41580156125be573d6000803e3d6000fd5b505050506040513d601f19601f820116820180604052508101906125e29190613840565b6125fe5760405162461bcd60e51b815260040161084f9061385d565b60405163d547741f60e01b8152600481018390526001600160a01b038216602482015273__$a5a42e46683ad9c79b7b86d5ff60fdf4c1$__9063d547741f90604401610f2a565b61264d612a61565b6000612657612978565b60405163c3c5a54760e01b81523360048201529091507f00000000000000000000000000000000000000000000000000000000000000006001600160a01b03169063c3c5a54790602401602060405180830381865afa1580156126be573d6000803e3d6000fd5b505050506040513d601f19601f820116820180604052508101906126e29190613840565b61274c5760405162461bcd60e51b815260206004820152603560248201527f4176617461723a206f6e6c79207265676973746572656420617373657473206360448201527430b71031b0b636103a3434b990333ab731ba34b7b760591b606482015260840161084f565b6040516331a9108f60e11b81526004810183905233908190636352211e90602401602060405180830381865afa9250505080156127a6575060408051601f3d908101601f191682019092526127a3918101906137b8565b60015b612833576040805180820182526001600160a01b03831681526020810185905290516358888ef160e01b815273__$c011c5c9201293cae8fa3d59d203092c54$__916358888ef1916127fe9160048088019201613e10565b60006040518083038186803b15801561281657600080fd5b505af415801561282a573d6000803e3d6000fd5b5050505061288e565b60405162461bcd60e51b815260206004820152602a60248201527f4176617461723a2045524337323120746f6b656e207374696c6c206f776e656460448201526910313c9030bb30ba30b960b11b606482015260840161084f565b505061289a6001600055565b50565b604051630935e01b60e21b815233600482015273__$a5a42e46683ad9c79b7b86d5ff60fdf4c1$__906324d7806c90602401602060405180830381865af41580156128ec573d6000803e3d6000fd5b505050506040513d601f19601f820116820180604052508101906129109190613840565b61292c5760405162461bcd60e51b815260040161084f9061385d565b60405163e8906a2d60e01b815273__$a5a42e46683ad9c79b7b86d5ff60fdf4c1$__9063e8906a2d90610f2a9085908590600401613b0c565b600061296f612978565b60020154905090565b60408051808201909152601481527378722e6176617461722e73746f726167652e763160601b60209091015260008060ff6129d460017f4fd0b807f0bccdb8b9f7d6f3136b4bff018fd299ff833e7b8768182dc5b9a532613e37565b6040516020016129e691815260200190565b60408051601f1981840301815291905280516020909101201692915050565b60408051808201909152601481527378722e656e746974792e73746f726167652e763160601b60209091015260008060ff6129d460017fdefc82a28b6578c2a63b29b15450260a5e998242a6300b7fcb30814ee74ae188613e37565b600260005403612a8457604051633ee5aeb560e01b815260040160405180910390fd5b6002600055565b60408051608081018252600080825260208201819052818301819052606082015282519151630a22d5a160e21b81526004810192909252906001600160a01b037f0000000000000000000000000000000000000000000000000000000000000000169063288b568490602401608060405180830381865afa158015612b14573d6000803e3d6000fd5b505050506040513d601f19601f82011682018060405250810190612b389190613a91565b9050600081600001516001600160a01b0316636904c94d6040518163ffffffff1660e01b8152600401602060405180830381865afa158015612b7e573d6000803e3d6000fd5b505050506040513d601f19601f82011682018060405250810190612ba291906137b8565b90506000612bae612978565b6001600160a01b03831660009081526001820160205260408120805492935090612bd783613e4a565b9091555084516020808701516040805192830193909352918101919091526060810182905260009060800160408051808303601f190181528282528051602091820120818452838301909252909250600091906020820181803683370190505090508160208201526000612c4a82612eb9565b90506000612c5c828a60400151612ef4565b604051637df73e2760e01b81526001600160a01b03808316600483015291925090881690637df73e2790602401602060405180830381865afa158015612ca6573d6000803e3d6000fd5b505050506040513d601f19601f82011682018060405250810190612cca9190613840565b612d275760405162461bcd60e51b815260206004820152602860248201527f4176617461723a20636f6d70616e79207369676e6572206973206e6f742061756044820152671d1a1bdc9a5e995960c21b606482015260840161084f565b50505050505050919050565b6000612d3d612978565b6002810180549192506000612d5183613e4a565b9091555082516020808501516040805192830193909352918101919091526060810182905260009060800160408051808303601f190181528282528051602091820120818452838301909252909250600091906020820181803683370190505090508160208201526000612dc482612eb9565b90506000612dd6828860400151612ef4565b905073__$a5a42e46683ad9c79b7b86d5ff60fdf4c1$__638da5cb5b6040518163ffffffff1660e01b8152600401602060405180830381865af4158015612e21573d6000803e3d6000fd5b505050506040513d601f19601f82011682018060405250810190612e4591906137b8565b6001600160a01b0316816001600160a01b031614612eb05760405162461bcd60e51b815260206004820152602260248201527f4176617461723a20617661746172207369676e6572206973206e6f74206f776e60448201526132b960f11b606482015260840161084f565b50505050505050565b6000612ec58251612f1e565b82604051602001612ed7929190613e63565b604051602081830303815290604052805190602001209050919050565b600080600080612f048686612fb0565b925092509250612f148282612ffd565b5090949350505050565b60606000612f2b836130b6565b60010190506000816001600160401b03811115612f4a57612f4a61340d565b6040519080825280601f01601f191660200182016040528015612f74576020820181803683370190505b5090508181016020015b600019016f181899199a1a9b1b9c1cb0b131b232b360811b600a86061a8153600a8504945084612f7e57509392505050565b60008060008351604103612fea5760208401516040850151606086015160001a612fdc8882858561318e565b955095509550505050612ff6565b50508151600091506002905b9250925092565b600082600381111561301157613011613ebe565b0361301a575050565b600182600381111561302e5761302e613ebe565b0361304c5760405163f645eedf60e01b815260040160405180910390fd5b600282600381111561306057613060613ebe565b036130815760405163fce698f760e01b81526004810182905260240161084f565b600382600381111561309557613095613ebe565b03610e54576040516335e2f38360e21b81526004810182905260240161084f565b60008072184f03e93ff9f4daa797ed6e38ed64bf6a1f0160401b83106130f55772184f03e93ff9f4daa797ed6e38ed64bf6a1f0160401b830492506040015b6d04ee2d6d415b85acef81000000008310613121576d04ee2d6d415b85acef8100000000830492506020015b662386f26fc10000831061313f57662386f26fc10000830492506010015b6305f5e1008310613157576305f5e100830492506008015b612710831061316b57612710830492506004015b6064831061317d576064830492506002015b600a8310610d215760010192915050565b600080807f7fffffffffffffffffffffffffffffff5d576e7357a4501ddfe92f46681b20a08411156131c95750600091506003905082613253565b604080516000808252602082018084528a905260ff891692820192909252606081018790526080810186905260019060a0016020604051602081039080840390855afa15801561321d573d6000803e3d6000fd5b5050604051601f1901519150506001600160a01b03811661324957506000925060019150829050613253565b9250600091508190505b9450945094915050565b6001600160a01b038116811461289a57600080fd5b60006020828403121561328457600080fd5b81356118ab8161325d565b60005b838110156132aa578181015183820152602001613292565b50506000910152565b600081518084526132cb81602086016020860161328f565b601f01601f19169290920160200192915050565b6020815260006118ab60208301846132b3565b60006040828403121561330457600080fd5b50919050565b60008083601f84011261331c57600080fd5b5081356001600160401b0381111561333357600080fd5b60208301915083602082850101111561334b57600080fd5b9250929050565b60008060008060006080868803121561336a57600080fd5b85356133758161325d565b945060208601356133858161325d565b93506040860135925060608601356001600160401b038111156133a757600080fd5b6133b38882890161330a565b969995985093965092949392505050565b6000602082840312156133d657600080fd5b5035919050565b600080604083850312156133f057600080fd5b8235915060208301356134028161325d565b809150509250929050565b634e487b7160e01b600052604160045260246000fd5b604080519081016001600160401b03811182821017156134455761344561340d565b60405290565b604051601f8201601f191681016001600160401b03811182821017156134735761347361340d565b604052919050565b60006001600160401b038211156134945761349461340d565b50601f01601f191660200190565b600082601f8301126134b357600080fd5b81356134c66134c18261347b565b61344b565b8181528460208386010111156134db57600080fd5b816020850160208301376000918101602001919091529392505050565b60006060828403121561350a57600080fd5b604051606081016001600160401b03828210818311171561352d5761352d61340d565b816040528293508435835260208501356020840152604085013591508082111561355657600080fd5b50613563858286016134a2565b6040830152505092915050565b60006020828403121561358257600080fd5b81356001600160401b0381111561359857600080fd5b6135a4848285016134f8565b949350505050565b602080825282518282018190526000919060409081850190868401855b828110156135ff576135ef84835180516001600160a01b03168252602090810151910152565b92840192908501906001016135c9565b5091979650505050505050565b6000806020838503121561361f57600080fd5b82356001600160401b038082111561363657600080fd5b818501915085601f83011261364a57600080fd5b81358181111561365957600080fd5b8660208260051b850101111561366e57600080fd5b60209290920196919550909350505050565b6000806020838503121561369357600080fd5b82356001600160401b038111156136a957600080fd5b6136b58582860161330a565b90969095509350505050565b801515811461289a57600080fd5b6000602082840312156136e157600080fd5b81356118ab816136c1565b6000806000806000806080878903121561370557600080fd5b86356001600160401b038082111561371c57600080fd5b6137288a838b0161330a565b90985096506020890135915061373d8261325d565b90945060408801359061374f8261325d565b9093506060880135908082111561376557600080fd5b5061377289828a0161330a565b979a9699509497509295939492505050565b600181811c9082168061379857607f821691505b60208210810361330457634e487b7160e01b600052602260045260246000fd5b6000602082840312156137ca57600080fd5b81516118ab8161325d565b6020808252601f908201527f426173654163636573733a207265737472696374656420746f206f776e657200604082015260600190565b82815260608101823561381e8161325d565b6001600160a01b03166020838101919091529290920135604090910152919050565b60006020828403121561385257600080fd5b81516118ab816136c1565b6020808252818101527f426173654163636573733a207265737472696374656420746f2061646d696e73604082015260600190565b634e487b7160e01b600052601160045260246000fd5b80820180821115610d2157610d21613892565b6000602082840312156138cd57600080fd5b81516001600160401b038111156138e357600080fd5b8201601f810184136138f457600080fd5b80516139026134c18261347b565b81815285602083850101111561391757600080fd5b610c8582602083016020860161328f565b6020808252602d908201527f4176617461723a207765617261626c652061737365742063616e6e6f7420626560408201526c207a65726f206164647265737360981b606082015260800190565b60208082526027908201527f4176617461723a207765617261626c6520746f6b656e49642063616e6e6f74206040820152666265207a65726f60c81b606082015260800190565b600060208083850312156139cf57600080fd5b82516001600160401b03808211156139e657600080fd5b818501915085601f8301126139fa57600080fd5b815181811115613a0c57613a0c61340d565b613a1a848260051b0161344b565b818152848101925060069190911b830184019087821115613a3a57600080fd5b928401925b81841015613a865760408489031215613a585760008081fd5b613a60613423565b8451613a6b8161325d565b81528486015186820152835260409093019291840191613a3f565b979650505050505050565b600060808284031215613aa357600080fd5b604051608081018181106001600160401b0382111715613ac557613ac561340d565b6040528251613ad38161325d565b81526020830151613ae38161325d565b6020820152604083810151908201526060830151613b00816136c1565b60608201529392505050565b60208082528181018390526000908460408401835b86811015613b4f578235613b348161325d565b6001600160a01b031682529183019190830190600101613b21565b509695505050505050565b601f821115613ba2576000816000526020600020601f850160051c81016020861015613b835750805b601f850160051c820191505b81811015610f5657828155600101613b8f565b505050565b6001600160401b03831115613bbe57613bbe61340d565b613bd283613bcc8354613784565b83613b5a565b6000601f841160018114613c065760008515613bee5750838201355b600019600387901b1c1916600186901b178355611bcf565b600083815260209020601f19861690835b82811015613c375786850135825560209485019460019092019101613c17565b5086821015613c545760001960f88860031b161c19848701351681555b505060018560011b0183555050505050565b8183823760009101908152919050565b6001600160a01b038381168252604060208084018290528451918401829052600092858201929091906060860190855b81811015613cc4578551851683529483019491830191600101613ca6565b509098975050505050505050565b600060208284031215613ce457600080fd5b81356001600160401b0380821115613cfb57600080fd5b9083019060408286031215613d0f57600080fd5b613d17613423565b8235613d22816136c1565b8152602083013582811115613d3657600080fd5b613d42878286016134a2565b60208301525095945050505050565b81516001600160401b03811115613d6a57613d6a61340d565b613d7e81613d788454613784565b84613b5a565b602080601f831160018114613db35760008415613d9b5750858301515b600019600386901b1c1916600185901b178555610f56565b600085815260208120601f198616915b82811015613de257888601518255948401946001909101908401613dc3565b5085821015613e005787850151600019600388901b60f8161c191681555b5050505050600190811b01905550565b828152606081016118ab602083018480516001600160a01b03168252602090810151910152565b81810381811115610d2157610d21613892565b600060018201613e5c57613e5c613892565b5060010190565b7f19457468657265756d205369676e6564204d6573736167653a0a000000000000815260008351613e9b81601a85016020880161328f565b835190830190613eb281601a84016020880161328f565b01601a01949350505050565b634e487b7160e01b600052602160045260246000fdfea26469706673582212209dfb7b008405dee611c340502018b8e976c66928ba2f292c4912612ceb591a4e64736f6c63430008180033",
  "linkReferences": {
    "contracts/libraries/LibAccess.sol": {
      "LibAccess": [
        {
          "length": 20,
          "start": 2914
        },
        {
          "length": 20,
          "start": 4198
        },
        {
          "length": 20,
          "start": 4311
        },
        {
          "length": 20,
          "start": 4625
        },
        {
          "length": 20,
          "start": 4784
        },
        {
          "length": 20,
          "start": 4878
        },
        {
          "length": 20,
          "start": 5590
        },
        {
          "length": 20,
          "start": 6739
        },
        {
          "length": 20,
          "start": 6818
        },
        {
          "length": 20,
          "start": 6955
        },
        {
          "length": 20,
          "start": 7001
        },
        {
          "length": 20,
          "start": 7153
        },
        {
          "length": 20,
          "start": 7266
        },
        {
          "length": 20,
          "start": 7619
        },
        {
          "length": 20,
          "start": 7803
        },
        {
          "length": 20,
          "start": 7978
        },
        {
          "length": 20,
          "start": 8205
        },
        {
          "length": 20,
          "start": 8836
        },
        {
          "length": 20,
          "start": 10536
        },
        {
          "length": 20,
          "start": 10695
        },
        {
          "length": 20,
          "start": 11350
        },
        {
          "length": 20,
          "start": 11487
        },
        {
          "length": 20,
          "start": 12670
        }
      ]
    },
    "contracts/libraries/LibLinkedList.sol": {
      "LibLinkedList": [
        {
          "length": 20,
          "start": 3106
        },
        {
          "length": 20,
          "start": 5852
        },
        {
          "length": 20,
          "start": 6059
        },
        {
          "length": 20,
          "start": 7534
        },
        {
          "length": 20,
          "start": 11128
        }
      ]
    }
  },
  "deployedLinkReferences": {
    "contracts/libraries/LibAccess.sol": {
      "LibAccess": [
        {
          "length": 20,
          "start": 1982
        },
        {
          "length": 20,
          "start": 3266
        },
        {
          "length": 20,
          "start": 3379
        },
        {
          "length": 20,
          "start": 3693
        },
        {
          "length": 20,
          "start": 3852
        },
        {
          "length": 20,
          "start": 3946
        },
        {
          "length": 20,
          "start": 4658
        },
        {
          "length": 20,
          "start": 5807
        },
        {
          "length": 20,
          "start": 5886
        },
        {
          "length": 20,
          "start": 6023
        },
        {
          "length": 20,
          "start": 6069
        },
        {
          "length": 20,
          "start": 6221
        },
        {
          "length": 20,
          "start": 6334
        },
        {
          "length": 20,
          "start": 6687
        },
        {
          "length": 20,
          "start": 6871
        },
        {
          "length": 20,
          "start": 7046
        },
        {
          "length": 20,
          "start": 7273
        },
        {
          "length": 20,
          "start": 7904
        },
        {
          "length": 20,
          "start": 9604
        },
        {
          "length": 20,
          "start": 9763
        },
        {
          "length": 20,
          "start": 10418
        },
        {
          "length": 20,
          "start": 10555
        },
        {
          "length": 20,
          "start": 11738
        }
      ]
    },
    "contracts/libraries/LibLinkedList.sol": {
      "LibLinkedList": [
        {
          "length": 20,
          "start": 2174
        },
        {
          "length": 20,
          "start": 4920
        },
        {
          "length": 20,
          "start": 5127
        },
        {
          "length": 20,
          "start": 6602
        },
        {
          "length": 20,
          "start": 10196
        }
      ]
    }
  }
}