{
  "_format": "hh-sol-artifact-1",
  "contractName": "Avatar",
  "sourceName": "contracts/avatar/Avatar.sol",
  "abi": [
    {
      "inputs": [
        {
          "components": [
            {
              "internalType": "address",
              "name": "avatarFactory",
              "type": "address"
            },
            {
              "internalType": "address",
              "name": "avatarRegistry",
              "type": "address"
            },
            {
              "internalType": "address",
              "name": "experienceRegistry",
              "type": "address"
            },
            {
              "internalType": "address",
              "name": "portalRegistry",
              "type": "address"
            },
            {
              "internalType": "address",
              "name": "companyRegistry",
              "type": "address"
            },
            {
              "internalType": "address",
              "name": "multiAssetRegistry",
              "type": "address"
            }
          ],
          "internalType": "struct BaseContructorArgs",
          "name": "args",
          "type": "tuple"
        }
      ],
      "stateMutability": "nonpayable",
      "type": "constructor"
    },
    {
      "inputs": [],
      "name": "ECDSAInvalidSignature",
      "type": "error"
    },
    {
      "inputs": [
        {
          "internalType": "uint256",
          "name": "length",
          "type": "uint256"
        }
      ],
      "name": "ECDSAInvalidSignatureLength",
      "type": "error"
    },
    {
      "inputs": [
        {
          "internalType": "bytes32",
          "name": "s",
          "type": "bytes32"
        }
      ],
      "name": "ECDSAInvalidSignatureS",
      "type": "error"
    },
    {
      "inputs": [],
      "name": "ReentrancyGuardReentrantCall",
      "type": "error"
    },
    {
      "anonymous": false,
      "inputs": [
        {
          "indexed": true,
          "internalType": "bytes",
          "name": "appearanceDetails",
          "type": "bytes"
        }
      ],
      "name": "AppearanceChanged",
      "type": "event"
    },
    {
      "anonymous": false,
      "inputs": [
        {
          "indexed": true,
          "internalType": "address",
          "name": "oldVersion",
          "type": "address"
        },
        {
          "indexed": true,
          "internalType": "address",
          "name": "nextVersion",
          "type": "address"
        }
      ],
      "name": "AvatarUpgraded",
      "type": "event"
    },
    {
      "anonymous": false,
      "inputs": [],
      "name": "HookRemoved",
      "type": "event"
    },
    {
      "anonymous": false,
      "inputs": [
        {
          "indexed": true,
          "internalType": "address",
          "name": "hook",
          "type": "address"
        }
      ],
      "name": "HookSet",
      "type": "event"
    },
    {
      "anonymous": false,
      "inputs": [
        {
          "indexed": true,
          "internalType": "address",
          "name": "experience",
          "type": "address"
        },
        {
          "indexed": true,
          "internalType": "uint256",
          "name": "fee",
          "type": "uint256"
        },
        {
          "indexed": true,
          "internalType": "bytes",
          "name": "connectionDetails",
          "type": "bytes"
        }
      ],
      "name": "JumpSuccess",
      "type": "event"
    },
    {
      "anonymous": false,
      "inputs": [
        {
          "indexed": true,
          "internalType": "address",
          "name": "location",
          "type": "address"
        }
      ],
      "name": "LocationChanged",
      "type": "event"
    },
    {
      "anonymous": false,
      "inputs": [
        {
          "indexed": true,
          "internalType": "address",
          "name": "signer",
          "type": "address"
        }
      ],
      "name": "SignerAdded",
      "type": "event"
    },
    {
      "anonymous": false,
      "inputs": [
        {
          "indexed": true,
          "internalType": "address",
          "name": "signer",
          "type": "address"
        }
      ],
      "name": "SignerRemoved",
      "type": "event"
    },
    {
      "anonymous": false,
      "inputs": [
        {
          "indexed": true,
          "internalType": "address",
          "name": "wearable",
          "type": "address"
        },
        {
          "indexed": false,
          "internalType": "uint256",
          "name": "tokenId",
          "type": "uint256"
        }
      ],
      "name": "WearableAdded",
      "type": "event"
    },
    {
      "anonymous": false,
      "inputs": [
        {
          "indexed": true,
          "internalType": "address",
          "name": "wearable",
          "type": "address"
        },
        {
          "indexed": false,
          "internalType": "uint256",
          "name": "tokenId",
          "type": "uint256"
        }
      ],
      "name": "WearableRemoved",
      "type": "event"
    },
    {
      "inputs": [],
      "name": "MAX_SIZE",
      "outputs": [
        {
          "internalType": "uint256",
          "name": "",
          "type": "uint256"
        }
      ],
      "stateMutability": "view",
      "type": "function"
    },
    {
      "inputs": [
        {
          "components": [
            {
              "internalType": "address",
              "name": "asset",
              "type": "address"
            },
            {
              "internalType": "uint256",
              "name": "tokenId",
              "type": "uint256"
            }
          ],
          "internalType": "struct Wearable",
          "name": "wearable",
          "type": "tuple"
        }
      ],
      "name": "addWearable",
      "outputs": [],
      "stateMutability": "nonpayable",
      "type": "function"
    },
    {
      "inputs": [],
      "name": "appearanceDetails",
      "outputs": [
        {
          "internalType": "bytes",
          "name": "",
          "type": "bytes"
        }
      ],
      "stateMutability": "view",
      "type": "function"
    },
    {
      "inputs": [],
      "name": "assetRegistry",
      "outputs": [
        {
          "internalType": "contract IMultiAssetRegistry",
          "name": "",
          "type": "address"
        }
      ],
      "stateMutability": "view",
      "type": "function"
    },
    {
      "inputs": [],
      "name": "avatarFactory",
      "outputs": [
        {
          "internalType": "address",
          "name": "",
          "type": "address"
        }
      ],
      "stateMutability": "view",
      "type": "function"
    },
    {
      "inputs": [],
      "name": "avatarOwnerSigningNonce",
      "outputs": [
        {
          "internalType": "uint256",
          "name": "",
          "type": "uint256"
        }
      ],
      "stateMutability": "view",
      "type": "function"
    },
    {
      "inputs": [],
      "name": "avatarRegistry",
      "outputs": [
        {
          "internalType": "contract IAvatarRegistry",
          "name": "",
          "type": "address"
        }
      ],
      "stateMutability": "view",
      "type": "function"
    },
    {
      "inputs": [],
      "name": "canReceiveTokensOutsideOfExperience",
      "outputs": [
        {
          "internalType": "bool",
          "name": "",
          "type": "bool"
        }
      ],
      "stateMutability": "view",
      "type": "function"
    },
    {
      "inputs": [],
      "name": "companyRegistry",
      "outputs": [
        {
          "internalType": "contract ICompanyRegistry",
          "name": "",
          "type": "address"
        }
      ],
      "stateMutability": "view",
      "type": "function"
    },
    {
      "inputs": [
        {
          "internalType": "address",
          "name": "company",
          "type": "address"
        }
      ],
      "name": "companySigningNonce",
      "outputs": [
        {
          "internalType": "uint256",
          "name": "",
          "type": "uint256"
        }
      ],
      "stateMutability": "view",
      "type": "function"
    },
    {
      "inputs": [
        {
          "components": [
            {
              "internalType": "uint256",
              "name": "portalId",
              "type": "uint256"
            },
            {
              "internalType": "uint256",
              "name": "agreedFee",
              "type": "uint256"
            },
            {
              "internalType": "bytes",
              "name": "avatarOwnerSignature",
              "type": "bytes"
            }
          ],
          "internalType": "struct DelegatedJumpRequest",
          "name": "request",
          "type": "tuple"
        }
      ],
      "name": "delegateJump",
      "outputs": [],
      "stateMutability": "payable",
      "type": "function"
    },
    {
      "inputs": [
        {
          "components": [
            {
              "internalType": "bool",
              "name": "canReceiveTokensOutsideOfExperience",
              "type": "bool"
            },
            {
              "internalType": "bytes",
              "name": "appearanceDetails",
              "type": "bytes"
            }
          ],
          "internalType": "struct AvatarInitData",
          "name": "data",
          "type": "tuple"
        }
      ],
      "name": "encodeInitData",
      "outputs": [
        {
          "internalType": "bytes",
          "name": "",
          "type": "bytes"
        }
      ],
      "stateMutability": "pure",
      "type": "function"
    },
    {
      "inputs": [],
      "name": "experienceRegistry",
      "outputs": [
        {
          "internalType": "contract IExperienceRegistry",
          "name": "",
          "type": "address"
        }
      ],
      "stateMutability": "view",
      "type": "function"
    },
    {
      "inputs": [],
      "name": "getWearables",
      "outputs": [
        {
          "components": [
            {
              "internalType": "address",
              "name": "asset",
              "type": "address"
            },
            {
              "internalType": "uint256",
              "name": "tokenId",
              "type": "uint256"
            }
          ],
          "internalType": "struct Wearable[]",
          "name": "",
          "type": "tuple[]"
        }
      ],
      "stateMutability": "view",
      "type": "function"
    },
    {
      "inputs": [],
      "name": "hook",
      "outputs": [
        {
          "internalType": "contract IAvatarHook",
          "name": "",
          "type": "address"
        }
      ],
      "stateMutability": "view",
      "type": "function"
    },
    {
      "inputs": [
        {
          "internalType": "address",
          "name": "_owner",
          "type": "address"
        },
        {
          "internalType": "address",
          "name": "defaultExperience",
          "type": "address"
        },
        {
          "internalType": "string",
          "name": "_name",
          "type": "string"
        },
        {
          "internalType": "bytes",
          "name": "initData",
          "type": "bytes"
        }
      ],
      "name": "init",
      "outputs": [],
      "stateMutability": "nonpayable",
      "type": "function"
    },
    {
      "inputs": [
        {
          "components": [
            {
              "internalType": "address",
              "name": "asset",
              "type": "address"
            },
            {
              "internalType": "uint256",
              "name": "tokenId",
              "type": "uint256"
            }
          ],
          "internalType": "struct Wearable",
          "name": "wearable",
          "type": "tuple"
        }
      ],
      "name": "isWearing",
      "outputs": [
        {
          "internalType": "bool",
          "name": "",
          "type": "bool"
        }
      ],
      "stateMutability": "view",
      "type": "function"
    },
    {
      "inputs": [
        {
          "components": [
            {
              "internalType": "uint256",
              "name": "portalId",
              "type": "uint256"
            },
            {
              "internalType": "uint256",
              "name": "agreedFee",
              "type": "uint256"
            },
            {
              "internalType": "bytes",
              "name": "destinationCompanySignature",
              "type": "bytes"
            }
          ],
          "internalType": "struct AvatarJumpRequest",
          "name": "request",
          "type": "tuple"
        }
      ],
      "name": "jump",
      "outputs": [],
      "stateMutability": "payable",
      "type": "function"
    },
    {
      "inputs": [],
      "name": "location",
      "outputs": [
        {
          "internalType": "contract IExperience",
          "name": "",
          "type": "address"
        }
      ],
      "stateMutability": "view",
      "type": "function"
    },
    {
      "inputs": [
        {
          "internalType": "address",
          "name": "",
          "type": "address"
        },
        {
          "internalType": "address",
          "name": "",
          "type": "address"
        },
        {
          "internalType": "uint256",
          "name": "tokenId",
          "type": "uint256"
        },
        {
          "internalType": "bytes",
          "name": "",
          "type": "bytes"
        }
      ],
      "name": "onERC721Received",
      "outputs": [
        {
          "internalType": "bytes4",
          "name": "",
          "type": "bytes4"
        }
      ],
      "stateMutability": "nonpayable",
      "type": "function"
    },
    {
      "inputs": [],
      "name": "owner",
      "outputs": [
        {
          "internalType": "address",
          "name": "",
          "type": "address"
        }
      ],
      "stateMutability": "view",
      "type": "function"
    },
    {
      "inputs": [],
      "name": "portalRegistry",
      "outputs": [
        {
          "internalType": "contract IPortalRegistry",
          "name": "",
          "type": "address"
        }
      ],
      "stateMutability": "view",
      "type": "function"
    },
    {
      "inputs": [],
      "name": "removeHook",
      "outputs": [],
      "stateMutability": "nonpayable",
      "type": "function"
    },
    {
      "inputs": [
        {
          "components": [
            {
              "internalType": "address",
              "name": "asset",
              "type": "address"
            },
            {
              "internalType": "uint256",
              "name": "tokenId",
              "type": "uint256"
            }
          ],
          "internalType": "struct Wearable",
          "name": "wearable",
          "type": "tuple"
        }
      ],
      "name": "removeWearable",
      "outputs": [],
      "stateMutability": "nonpayable",
      "type": "function"
    },
    {
      "inputs": [
        {
          "internalType": "bytes",
          "name": "details",
          "type": "bytes"
        }
      ],
      "name": "setAppearanceDetails",
      "outputs": [],
      "stateMutability": "nonpayable",
      "type": "function"
    },
    {
      "inputs": [
        {
          "internalType": "bool",
          "name": "canReceive",
          "type": "bool"
        }
      ],
      "name": "setCanReceiveTokensOutsideOfExperience",
      "outputs": [],
      "stateMutability": "nonpayable",
      "type": "function"
    },
    {
      "inputs": [
        {
          "internalType": "contract IAvatarHook",
          "name": "_hook",
          "type": "address"
        }
      ],
      "name": "setHook",
      "outputs": [],
      "stateMutability": "nonpayable",
      "type": "function"
    },
    {
      "inputs": [
        {
          "internalType": "bytes",
          "name": "initData",
          "type": "bytes"
        }
      ],
      "name": "upgrade",
      "outputs": [],
      "stateMutability": "nonpayable",
      "type": "function"
    },
    {
      "inputs": [
        {
          "internalType": "address",
          "name": "nextVersion",
          "type": "address"
        }
      ],
      "name": "upgradeComplete",
      "outputs": [],
      "stateMutability": "nonpayable",
      "type": "function"
    },
    {
      "inputs": [],
      "name": "username",
      "outputs": [
        {
          "internalType": "string",
          "name": "",
          "type": "string"
        }
      ],
      "stateMutability": "view",
      "type": "function"
    },
    {
      "inputs": [],
      "name": "version",
      "outputs": [
        {
          "internalType": "uint256",
          "name": "",
          "type": "uint256"
        }
      ],
      "stateMutability": "view",
      "type": "function"
    },
    {
      "inputs": [
        {
          "internalType": "uint256",
          "name": "amount",
          "type": "uint256"
        }
      ],
      "name": "withdraw",
      "outputs": [],
      "stateMutability": "nonpayable",
      "type": "function"
    },
    {
      "stateMutability": "payable",
      "type": "receive"
    }
  ],
  "bytecode": "0x6101406040523480156200001257600080fd5b5060405162003b6038038062003b60833981016040819052620000359162000367565b600160005580516001600160a01b0316620000ad5760405162461bcd60e51b815260206004820152602d60248201527f4176617461723a2061766174617220666163746f72792063616e6e6f7420626560448201526c207a65726f206164647265737360981b60648201526084015b60405180910390fd5b60408101516001600160a01b0316620001245760405162461bcd60e51b815260206004820152603260248201527f4176617461723a20657870657269656e63652072656769737472792063616e6e6044820152716f74206265207a65726f206164647265737360701b6064820152608401620000a4565b60608101516001600160a01b0316620001975760405162461bcd60e51b815260206004820152602e60248201527f4176617461723a20706f7274616c2072656769737472792063616e6e6f74206260448201526d65207a65726f206164647265737360901b6064820152608401620000a4565b60808101516001600160a01b03166200020b5760405162461bcd60e51b815260206004820152602f60248201527f4176617461723a20636f6d70616e792072656769737472792063616e6e6f742060448201526e6265207a65726f206164647265737360881b6064820152608401620000a4565b60208101516001600160a01b03166200027e5760405162461bcd60e51b815260206004820152602e60248201527f4176617461723a206176617461722072656769737472792063616e6e6f74206260448201526d65207a65726f206164647265737360901b6064820152608401620000a4565b60a08101516001600160a01b0316620003005760405162461bcd60e51b815260206004820152603360248201527f4176617461723a206d756c74692d61737365742072656769737472792063616e60448201527f6e6f74206265207a65726f2061646472657373000000000000000000000000006064820152608401620000a4565b80516001600160a01b0390811660809081526040830151821660c0526060830151821660e0528201518116610100526020820151811660a090815290910151166101205262000421565b80516001600160a01b03811681146200036257600080fd5b919050565b600060c082840312156200037a57600080fd5b60405160c081016001600160401b0381118282101715620003ab57634e487b7160e01b600052604160045260246000fd5b604052620003b9836200034a565b8152620003c9602084016200034a565b6020820152620003dc604084016200034a565b6040820152620003ef606084016200034a565b606082015262000402608084016200034a565b60808201526200041560a084016200034a565b60a08201529392505050565b60805160a05160c05160e05161010051610120516136a9620004b7600039600081816105150152610b550152600081816105bd01526116c5015260008181610589015281816112f9015281816117bc0152818161188501526120fa0152600081816104c10152611cb60152600081816105f10152610fc60152600081816104110152818161103f0152611b1901526136a96000f3fe6080604052600436106101e75760003560e01c806361fac54d11610102578063979d7e8611610095578063c51aba2b11610064578063c51aba2b146105ab578063e3d7ad73146105df578063e427535c14610613578063f890d7c91461063357600080fd5b8063979d7e86146105035780639be17fbc146105375780639d870bf614610557578063b66649341461057757600080fd5b80638d67799e116100d15780638d67799e146104855780638da5cb5b1461049a5780638f09a6be146104af578063949a1ddc146104e357600080fd5b806361fac54d146104335780637dc759e5146104485780637f5a7c7b1461045b5780638970220e1461047057600080fd5b8063392f56691161017a57806354cf0b391161014957806354cf0b39146103a857806354fd4d50146103c85780635cf59e1e146103dd57806360e741e8146103ff57600080fd5b8063392f56691461031b5780633dfd38731461032e57806340ac3f0b1461034e578063516f279e1461037b57600080fd5b806325394645116101b657806325394645146102a65780632663d1f7146102c65780632e1a7d4d146102e6578063378f17ff1461030657600080fd5b806303f7d3ba146101f357806312deb11a14610226578063150b7a0214610248578063181d939b1461028157600080fd5b366101ee57005b600080fd5b3480156101ff57600080fd5b5061021361020e366004612bfb565b610648565b6040519081526020015b60405180910390f35b34801561023257600080fd5b50610246610241366004612c1f565b610675565b005b34801561025457600080fd5b50610268610263366004612c7f565b610b29565b6040516001600160e01b0319909116815260200161021d565b34801561028d57600080fd5b50610296610f5f565b604051901515815260200161021d565b3480156102b257600080fd5b506102466102c1366004612cf1565b610f74565b3480156102d257600080fd5b506102466102e1366004612bfb565b611034565b3480156102f257600080fd5b50610246610301366004612d32565b6110ed565b34801561031257600080fd5b506102466111db565b610246610329366004612ebb565b611262565b34801561033a57600080fd5b50610246610349366004612bfb565b611417565b34801561035a57600080fd5b5061036e610369366004612f05565b611510565b60405161021d9190612fd4565b34801561038757600080fd5b50610390611539565b6040516001600160a01b03909116815260200161021d565b3480156103b457600080fd5b506102466103c3366004612c1f565b611557565b3480156103d457600080fd5b50610213600181565b3480156103e957600080fd5b506103f2611600565b60405161021d9190612fe7565b34801561040b57600080fd5b506103907f000000000000000000000000000000000000000000000000000000000000000081565b34801561043f57600080fd5b5061036e61160f565b610246610456366004612ebb565b6116b0565b34801561046757600080fd5b506103906119a2565b34801561047c57600080fd5b5061036e6119c0565b34801561049157600080fd5b5061021360c881565b3480156104a657600080fd5b506103906119dd565b3480156104bb57600080fd5b506103907f000000000000000000000000000000000000000000000000000000000000000081565b3480156104ef57600080fd5b506102466104fe36600461303f565b6119fd565b34801561050f57600080fd5b506103907f000000000000000000000000000000000000000000000000000000000000000081565b34801561054357600080fd5b50610296610552366004612c1f565b611a96565b34801561056357600080fd5b50610246610572366004613073565b611ab5565b34801561058357600080fd5b506103907f000000000000000000000000000000000000000000000000000000000000000081565b3480156105b757600080fd5b506103907f000000000000000000000000000000000000000000000000000000000000000081565b3480156105eb57600080fd5b506103907f000000000000000000000000000000000000000000000000000000000000000081565b34801561061f57600080fd5b5061024661062e366004613090565b611b0e565b34801561063f57600080fd5b50610213611e0d565b600080610653611e22565b6001600160a01b03909316600090815260059093016020525050604090205490565b600061067f611e22565b805490915061010090046001600160a01b031633146106b95760405162461bcd60e51b81526004016106b09061312f565b60405180910390fd5b60006106c86020840184612bfb565b6001600160a01b0316036107345760405162461bcd60e51b815260206004820152602d60248201527f4176617461723a207765617261626c652061737365742063616e6e6f7420626560448201526c207a65726f206164647265737360981b60648201526084016106b0565b60008260200135116107985760405162461bcd60e51b815260206004820152602760248201527f4176617461723a207765617261626c6520746f6b656e49642063616e6e6f74206044820152666265207a65726f60c81b60648201526084016106b0565b60006107a76020840184612bfb565b905060006107b3611539565b90506107c26020850185612bfb565b6001600160a01b0316633fa47f176040518060a001604052808760000160208101906107ee9190612bfb565b6001600160a01b03168152602001846001600160a01b03166330b67baa6040518163ffffffff1660e01b8152600401602060405180830381865afa15801561083a573d6000803e3d6000fd5b505050506040513d601f19601f8201168201806040525081019061085e9190613178565b6001600160a01b03168152602001846001600160a01b0316636904c94d6040518163ffffffff1660e01b8152600401602060405180830381865afa1580156108aa573d6000803e3d6000fd5b505050506040513d601f19601f820116820180604052508101906108ce9190613178565b6001600160a01b03908116825285811660208084019190915230604093840152825160e086901b6001600160e01b031916815284518316600482015290840151821660248201529183015181166044830152606083015181166064830152608090920151909116608482015260a401602060405180830381865afa15801561095a573d6000803e3d6000fd5b505050506040513d601f19601f8201168201806040525081019061097e9190613195565b6109e25760405162461bcd60e51b815260206004820152602f60248201527f4176617461723a207765617261626c652061737365742063616e6e6f7420626560448201526e103ab9b2b210313c9030bb30ba30b960891b60648201526084016106b0565b6040516331a9108f60e11b81526020850135600482015230906001600160a01b03841690636352211e90602401602060405180830381865afa158015610a2c573d6000803e3d6000fd5b505050506040513d601f19601f82011682018060405250810190610a509190613178565b6001600160a01b031614610ab95760405162461bcd60e51b815260206004820152602a60248201527f4176617461723a207765617261626c6520746f6b656e206e6f74206f776e656460448201526910313c9030bb30ba30b960b11b60648201526084016106b0565b610ad0610acb368690038601866131b2565b611e46565b610add6020850185612bfb565b6001600160a01b03167fc33fdb2e96e0dba49a8cb36af300177e6ba61804be87a31a26e27ab52596ecf28560200135604051610b1b91815260200190565b60405180910390a250505050565b6000610b33612095565b6000610b3d611e22565b6040516315bd8ac360e31b81523360048201529091507f00000000000000000000000000000000000000000000000000000000000000006001600160a01b03169063adec561890602401602060405180830381865afa158015610ba4573d6000803e3d6000fd5b505050506040513d601f19601f82011682018060405250810190610bc89190613195565b610c2b5760405162461bcd60e51b815260206004820152602e60248201527f4176617461723a2045524337323120746f6b656e206e6f742066726f6d20726560448201526d19da5cdd195c995908185cdcd95d60921b60648201526084016106b0565b8054339060ff16610d8d576000336001600160a01b0316631d1438486040518163ffffffff1660e01b8152600401602060405180830381865afa158015610c76573d6000803e3d6000fd5b505050506040513d601f19601f82011682018060405250810190610c9a9190613178565b600184015460408051636904c94d60e01b815290519293506001600160a01b03909116918291636904c94d9160048083019260209291908290030181865afa158015610cea573d6000803e3d6000fd5b505050506040513d601f19601f82011682018060405250810190610d0e9190613178565b6001600160a01b0316826001600160a01b031614610d8a5760405162461bcd60e51b815260206004820152603360248201527f4176617461723a2063616e6e6f74207265636569766520746f6b656e73206f756044820152727473696465206f6620657870657269656e636560681b60648201526084016106b0565b50505b6040516331a9108f60e11b81526004810187905230906001600160a01b03831690636352211e90602401602060405180830381865afa158015610dd4573d6000803e3d6000fd5b505050506040513d601f19601f82011682018060405250810190610df89190613178565b6001600160a01b031614610e5f5760405162461bcd60e51b815260206004820152602860248201527f4176617461723a2045524337323120746f6b656e206e6f74206f776e656420626044820152673c9030bb30ba30b960c11b60648201526084016106b0565b60028201546001600160a01b031615610f46576002820154604051631d9a6bd160e11b8152306004820152336024820152604481018890526001600160a01b0390911690633b34d7a2906064016020604051808303816000875af1158015610ecb573d6000803e3d6000fd5b505050506040513d601f19601f82011682018060405250810190610eef9190613195565b610f465760405162461bcd60e51b815260206004820152602260248201527f4176617461723a20686f6f6b2072656a65637465642045524337323120746f6b60448201526132b760f11b60648201526084016106b0565b5050600160005550630a85bd0160e11b95945050505050565b600080610f6a611e22565b5460ff1692915050565b6000610f7e611e22565b805490915061010090046001600160a01b03163314610faf5760405162461bcd60e51b81526004016106b09061312f565b60405163612ca62160e01b81526001600160a01b037f0000000000000000000000000000000000000000000000000000000000000000169063612ca62190610ffd90869086906004016131ec565b600060405180830381600087803b15801561101757600080fd5b505af115801561102b573d6000803e3d6000fd5b50505050505050565b336001600160a01b037f0000000000000000000000000000000000000000000000000000000000000000161461107c5760405162461bcd60e51b81526004016106b09061321b565b7f1f07e7b49187e1cf67924ca1fa35732211c5bb2c23b6b53ee47453438de7285e80546001600160a01b031981166001600160a01b03848116918217845560405192169182907f722ee95a7e2eed3235f2e3bdb62d3f6e70079578905580fbf8bb414519dd617290600090a3505050565b60006110f7611e22565b805490915061010090046001600160a01b031633146111285760405162461bcd60e51b81526004016106b09061312f565b4782111561118c5760405162461bcd60e51b815260206004820152602b60248201527f4176617461723a20696e73756666696369656e742062616c616e636520666f7260448201526a081dda5d1a191c985dd85b60aa1b60648201526084016106b0565b6000611196611e22565b80546040519192506001600160a01b0361010090910416904780156108fc02916000818181858888f193505050501580156111d5573d6000803e3d6000fd5b50505050565b60006111e5611e22565b805490915061010090046001600160a01b031633146112165760405162461bcd60e51b81526004016106b09061312f565b6000611220611e22565b6002810180546001600160a01b03191690556040519091507f4abf6d25887ff6b78026f569f956b6d57d5b92cecf0ee91d897ec98e47f656a390600090a15050565b600061126c611e22565b805490915061010090046001600160a01b0316331461129d5760405162461bcd60e51b81526004016106b09061312f565b60006112a8836120bf565b6040810151909150156112e95760006112c1344761327c565b905081604001518110156112e75760405162461bcd60e51b81526004016106b09061328f565b505b60006112f3611e22565b905060007f00000000000000000000000000000000000000000000000000000000000000006001600160a01b03166384c4484e846040015187600001516040518363ffffffff1660e01b815260040161134e91815260200190565b60006040518083038185885af115801561136c573d6000803e3d6000fd5b50505050506040513d6000823e601f3d908101601f19168201604052611395919081019061331b565b83516001840180546001600160a01b0319166001600160a01b039092169190911790556040519091506113c990829061334f565b6040518091039020836040015184600001516001600160a01b03167fe6b8160f723fcdb4c3cb8bf86e99d55e311c607a791f7503cc16dfaff3271e4360405160405180910390a45050505050565b6000611421611e22565b805490915061010090046001600160a01b031633146114525760405162461bcd60e51b81526004016106b09061312f565b6001600160a01b0382166114b45760405162461bcd60e51b815260206004820152602360248201527f4176617461723a20686f6f6b2063616e6e6f74206265207a65726f206164647260448201526265737360e81b60648201526084016106b0565b60006114be611e22565b6002810180546001600160a01b0319166001600160a01b038616908117909155604051919250907f4eab7b127c764308788622363ad3e9532de3dfba7845bd4f84c125a22544255a90600090a2505050565b606081604051602001611523919061336b565b6040516020818303038152906040529050919050565b600080611544611e22565b600101546001600160a01b031692915050565b6000611561611e22565b805490915061010090046001600160a01b031633146115925760405162461bcd60e51b81526004016106b09061312f565b6115a96115a4368490038401846131b2565b612360565b6115b66020830183612bfb565b6001600160a01b03167f60c3791748d09484f5d949c7570a640dad2f40bbebc2571b8f6c0e6a13e96fac83602001356040516115f491815260200190565b60405180910390a25050565b606061160a61254f565b905090565b6060600061161b611e22565b905080600301805461162c90613392565b80601f016020809104026020016040519081016040528092919081815260200182805461165890613392565b80156116a55780601f1061167a576101008083540402835291602001916116a5565b820191906000526020600020905b81548152906001019060200180831161168857829003601f168201915b505050505091505090565b604051632405672560e21b81523360048201527f00000000000000000000000000000000000000000000000000000000000000006001600160a01b0316906390159c9490602401602060405180830381865afa158015611714573d6000803e3d6000fd5b505050506040513d601f19601f820116820180604052508101906117389190613195565b6117975760405162461bcd60e51b815260206004820152602a60248201527f4176617461723a2063616c6c6572206973206e6f742061207265676973746572604482015269656420636f6d70616e7960b01b60648201526084016106b0565b6117a08161265a565b8051604051630a22d5a160e21b81526000916001600160a01b037f0000000000000000000000000000000000000000000000000000000000000000169163288b5684916117f39160040190815260200190565b606060405180830381865afa158015611810573d6000803e3d6000fd5b505050506040513d601f19601f8201168201806040525081019061183491906133c6565b60408101519091501561187557600061184d344761327c565b905081604001518110156118735760405162461bcd60e51b81526004016106b09061328f565b505b600061187f611e22565b905060007f00000000000000000000000000000000000000000000000000000000000000006001600160a01b03166384c4484e846040015186600001516040518363ffffffff1660e01b81526004016118da91815260200190565b60006040518083038185885af11580156118f8573d6000803e3d6000fd5b50505050506040513d6000823e601f3d908101601f19168201604052611921919081019061331b565b83516001840180546001600160a01b0319166001600160a01b0390921691909117905560405190915061195590829061334f565b6040518091039020836040015184600001516001600160a01b03167fe6b8160f723fcdb4c3cb8bf86e99d55e311c607a791f7503cc16dfaff3271e4360405160405180910390a450505050565b6000806119ad611e22565b600201546001600160a01b031692915050565b606060006119cc611e22565b905080600401805461162c90613392565b6000806119e8611e22565b5461010090046001600160a01b031692915050565b6000611a07611e22565b805490915061010090046001600160a01b03163314611a385760405162461bcd60e51b81526004016106b09061312f565b6000611a42611e22565b905060048101611a528482613464565b5082604051611a61919061334f565b604051908190038120907fe8ed633186ac64f9f0ab9b48cb1cca12eebe0f7e0ffdc46908733a060363236690600090a2505050565b6000611aaf611aaa368490038401846131b2565b61276c565b92915050565b6000611abf611e22565b805490915061010090046001600160a01b03163314611af05760405162461bcd60e51b81526004016106b09061312f565b6000611afa611e22565b805460ff1916931515939093179092555050565b336001600160a01b037f00000000000000000000000000000000000000000000000000000000000000001614611b565760405162461bcd60e51b81526004016106b09061321b565b6000611b60611e22565b805490915061010090046001600160a01b031615611bcc5760405162461bcd60e51b8152602060048201526024808201527f4176617461723a20636f6e747261637420616c726561647920696e697469616c6044820152631a5e995960e21b60648201526084016106b0565b600082806020019051810190611be29190613523565b90506000845111611c355760405162461bcd60e51b815260206004820181905260248201527f4176617461723a20757365726e616d652063616e6e6f7420626520656d70747960448201526064016106b0565b6001600160a01b038616611c975760405162461bcd60e51b8152602060048201526024808201527f4176617461723a206f776e65722063616e6e6f74206265207a65726f206164646044820152637265737360e01b60648201526084016106b0565b604051630262286360e41b81526001600160a01b0386811660048301527f00000000000000000000000000000000000000000000000000000000000000001690632622863090602401602060405180830381865afa158015611cfd573d6000803e3d6000fd5b505050506040513d601f19601f82011682018060405250810190611d219190613195565b611d935760405162461bcd60e51b815260206004820152603960248201527f4176617461723a2064656661756c7420657870657269656e6365206973206e6f60448201527f742061207265676973746572656420657870657269656e63650000000000000060648201526084016106b0565b60038201611da18582613464565b506001820180546001600160a01b0319166001600160a01b0387161790558051825460ff191690151517825560208101516004830190611de19082613464565b505080546001600160a01b0390951661010002610100600160a81b031990951694909417909355505050565b600080611e18611e22565b6006015492915050565b7fd38682225e685e93013f8a112db34d1d514857ac4394636132822a0c0fe2045090565b6000611e50611e22565b905060c8816007016002015410611e985760405162461bcd60e51b815260206004820152600c60248201526b131a5cdd081a5cc8199d5b1b60a21b60448201526064016106b0565b81516001600160a01b0316611ebf5760405162461bcd60e51b81526004016106b090613593565b6000826020015111611f055760405162461bcd60e51b815260206004820152600f60248201526e125b9d985b1a59081d1bdad95b9259608a1b60448201526064016106b0565b600082600001518360200151604051602001611f3f92919060609290921b6bffffffffffffffffffffffff19168252601482015260340190565b6040516020818303038152906040528051906020012090506000611f61611e22565b6000838152600a8201602052604090205490915060078201906001600160a01b031615611fd05760405162461bcd60e51b815260206004820152601760248201527f4164647265737320616c726561647920696e206c69737400000000000000000060448201526064016106b0565b60408051606081018252868152600183015460208201526000918101829052600283015490910361200a578382556001820184905561202a565b600182018054600090815260038085016020526040909120018590558490555b60008481526003838101602090815260408084208551805182546001600160a01b0319166001600160a01b039091161782558301516001820155918501516002808401919091559085015191909201558301805491612088836135bc565b9190505550505050505050565b6002600054036120b857604051633ee5aeb560e01b815260040160405180910390fd5b6002600055565b604080516060810182526000808252602082018190528183015282519151630a22d5a160e21b81526004810192909252906001600160a01b037f0000000000000000000000000000000000000000000000000000000000000000169063288b568490602401606060405180830381865afa158015612141573d6000803e3d6000fd5b505050506040513d601f19601f8201168201806040525081019061216591906133c6565b9050600081600001516001600160a01b0316636904c94d6040518163ffffffff1660e01b8152600401602060405180830381865afa1580156121ab573d6000803e3d6000fd5b505050506040513d601f19601f820116820180604052508101906121cf9190613178565b905060006121db611e22565b6001600160a01b03831660009081526005820160205260408120805492935090612204836135bc565b9091555084516020808701516040805192830193909352918101919091526060810182905260009060800160408051808303601f19018152828252805160209182012081845283830190925290925060009190602082018180368337019050509050816020820152600061227782612845565b90506000612289828a60400151612880565b604051637df73e2760e01b81526001600160a01b03808316600483015291925090881690637df73e2790602401602060405180830381865afa1580156122d3573d6000803e3d6000fd5b505050506040513d601f19601f820116820180604052508101906122f79190613195565b6123545760405162461bcd60e51b815260206004820152602860248201527f4176617461723a20636f6d70616e79207369676e6572206973206e6f742061756044820152671d1a1bdc9a5e995960c21b60648201526084016106b0565b50505050505050919050565b805160208201516001600160a01b03821661238d5760405162461bcd60e51b81526004016106b090613593565b600081116123d05760405162461bcd60e51b815260206004820152601060248201526f125b9d985b1a59081d1bdad95b881a5960821b60448201526064016106b0565b604080516001600160a01b03841660208201529081018290526000906060016040516020818303038152906040528051906020012090506000612411611e22565b6000838152600a8201602052604090205490915060078201906001600160a01b031661243f57505050505050565b600083815260038083016020908152604092839020835160a08101855281546001600160a01b03166060820190815260018301546080830152815260028201549281018390529201549282019290925290156124bf57806040015182600301600083602001518152602001908152602001600020600301819055506124c7565b604081015182555b6040810151156124f55760208082015160408084015160009081526003860190935290912060020155612500565b602081015160018301555b600084815260038084016020526040822080546001600160a01b031916815560018101839055600280820184905591018290558301805491612541836135d5565b919050555050505050505050565b6060600061255b611e22565b90506000816007019050600081600201546001600160401b0381111561258357612583612d4b565b6040519080825280602002602001820160405280156125c857816020015b60408051808201909152600080825260208201528152602001906001900390816125a15790505b50825490915060005b8360020154811015612650576000828152600385016020908152604091829020825180840190935280546001600160a01b0316835260010154908201528351849083908110612622576126226135ec565b60209081029190910181019190915260009283526003808601909152604090922090910154906001016125d1565b5090949350505050565b6000612664611e22565b6006810180549192506000612678836135bc565b9091555082516020808501516040805192830193909352918101919091526060810182905260009060800160408051808303601f1901815282825280516020918201208184528383019092529092506000919060208201818036833701905050905081602082015260006126eb82612845565b905060006126fd828860400151612880565b86549091506001600160a01b03808316610100909204161461102b5760405162461bcd60e51b815260206004820152602260248201527f4176617461723a20617661746172207369676e6572206973206e6f74206f776e60448201526132b960f11b60648201526084016106b0565b80516020820151600091906001600160a01b03821661279d5760405162461bcd60e51b81526004016106b090613593565b600081116127e05760405162461bcd60e51b815260206004820152601060248201526f125b9d985b1a59081d1bdad95b881a5960821b60448201526064016106b0565b604080516001600160a01b03841660208201529081018290526000906060016040516020818303038152906040528051906020012090506000612821611e22565b6000928352600a016020525060409020546001600160a01b03161515949350505050565b600061285182516128a0565b82604051602001612863929190613602565b604051602081830303815290604052805190602001209050919050565b6000806000806128908686612932565b925092509250612650828261297f565b606060006128ad83612a3c565b60010190506000816001600160401b038111156128cc576128cc612d4b565b6040519080825280601f01601f1916602001820160405280156128f6576020820181803683370190505b5090508181016020015b600019016f181899199a1a9b1b9c1cb0b131b232b360811b600a86061a8153600a850494508461290057509392505050565b6000806000835160410361296c5760208401516040850151606086015160001a61295e88828585612b14565b955095509550505050612978565b50508151600091506002905b9250925092565b60008260038111156129935761299361365d565b0361299c575050565b60018260038111156129b0576129b061365d565b036129ce5760405163f645eedf60e01b815260040160405180910390fd5b60028260038111156129e2576129e261365d565b03612a035760405163fce698f760e01b8152600481018290526024016106b0565b6003826003811115612a1757612a1761365d565b03612a38576040516335e2f38360e21b8152600481018290526024016106b0565b5050565b60008072184f03e93ff9f4daa797ed6e38ed64bf6a1f0160401b8310612a7b5772184f03e93ff9f4daa797ed6e38ed64bf6a1f0160401b830492506040015b6d04ee2d6d415b85acef81000000008310612aa7576d04ee2d6d415b85acef8100000000830492506020015b662386f26fc100008310612ac557662386f26fc10000830492506010015b6305f5e1008310612add576305f5e100830492506008015b6127108310612af157612710830492506004015b60648310612b03576064830492506002015b600a8310611aaf5760010192915050565b600080807f7fffffffffffffffffffffffffffffff5d576e7357a4501ddfe92f46681b20a0841115612b4f5750600091506003905082612bd9565b604080516000808252602082018084528a905260ff891692820192909252606081018790526080810186905260019060a0016020604051602081039080840390855afa158015612ba3573d6000803e3d6000fd5b5050604051601f1901519150506001600160a01b038116612bcf57506000925060019150829050612bd9565b9250600091508190505b9450945094915050565b6001600160a01b0381168114612bf857600080fd5b50565b600060208284031215612c0d57600080fd5b8135612c1881612be3565b9392505050565b600060408284031215612c3157600080fd5b50919050565b60008083601f840112612c4957600080fd5b5081356001600160401b03811115612c6057600080fd5b602083019150836020828501011115612c7857600080fd5b9250929050565b600080600080600060808688031215612c9757600080fd5b8535612ca281612be3565b94506020860135612cb281612be3565b93506040860135925060608601356001600160401b03811115612cd457600080fd5b612ce088828901612c37565b969995985093965092949392505050565b60008060208385031215612d0457600080fd5b82356001600160401b03811115612d1a57600080fd5b612d2685828601612c37565b90969095509350505050565b600060208284031215612d4457600080fd5b5035919050565b634e487b7160e01b600052604160045260246000fd5b604051606081016001600160401b0381118282101715612d8357612d83612d4b565b60405290565b604080519081016001600160401b0381118282101715612d8357612d83612d4b565b604051601f8201601f191681016001600160401b0381118282101715612dd357612dd3612d4b565b604052919050565b60006001600160401b03821115612df457612df4612d4b565b50601f01601f191660200190565b6000612e15612e1084612ddb565b612dab565b9050828152838383011115612e2957600080fd5b828260208301376000602084830101529392505050565b600082601f830112612e5157600080fd5b612c1883833560208501612e02565b600060608284031215612e7257600080fd5b612e7a612d61565b9050813581526020820135602082015260408201356001600160401b03811115612ea357600080fd5b612eaf84828501612e40565b60408301525092915050565b600060208284031215612ecd57600080fd5b81356001600160401b03811115612ee357600080fd5b612eef84828501612e60565b949350505050565b8015158114612bf857600080fd5b600060208284031215612f1757600080fd5b81356001600160401b0380821115612f2e57600080fd5b9083019060408286031215612f4257600080fd5b612f4a612d89565b8235612f5581612ef7565b8152602083013582811115612f6957600080fd5b612f7587828601612e40565b60208301525095945050505050565b60005b83811015612f9f578181015183820152602001612f87565b50506000910152565b60008151808452612fc0816020860160208601612f84565b601f01601f19169290920160200192915050565b602081526000612c186020830184612fa8565b602080825282518282018190526000919060409081850190868401855b8281101561303257815180516001600160a01b03168552860151868501529284019290850190600101613004565b5091979650505050505050565b60006020828403121561305157600080fd5b81356001600160401b0381111561306757600080fd5b612eef84828501612e40565b60006020828403121561308557600080fd5b8135612c1881612ef7565b600080600080608085870312156130a657600080fd5b84356130b181612be3565b935060208501356130c181612be3565b925060408501356001600160401b03808211156130dd57600080fd5b818701915087601f8301126130f157600080fd5b61310088833560208501612e02565b9350606087013591508082111561311657600080fd5b5061312387828801612e40565b91505092959194509250565b60208082526029908201527f4176617461723a206f6e6c79206f776e65722063616e2063616c6c207468697360408201526810333ab731ba34b7b760b91b606082015260800190565b60006020828403121561318a57600080fd5b8151612c1881612be3565b6000602082840312156131a757600080fd5b8151612c1881612ef7565b6000604082840312156131c457600080fd5b6131cc612d89565b82356131d781612be3565b81526020928301359281019290925250919050565b60208152816020820152818360408301376000818301604090810191909152601f909201601f19160101919050565b6020808252602b908201527f4176617461723a206f6e6c7920666163746f72792063616e2063616c6c20746860408201526a34b990333ab731ba34b7b760a91b606082015260800190565b634e487b7160e01b600052601160045260246000fd5b80820180821115611aaf57611aaf613266565b60208082526027908201527f4176617461723a20696e73756666696369656e742066756e647320666f72206a604082015266756d702066656560c81b606082015260800190565b600082601f8301126132e757600080fd5b81516132f5612e1082612ddb565b81815284602083860101111561330a57600080fd5b612eef826020830160208701612f84565b60006020828403121561332d57600080fd5b81516001600160401b0381111561334357600080fd5b612eef848285016132d6565b60008251613361818460208701612f84565b9190910192915050565b6020815281511515602082015260006020830151604080840152612eef6060840182612fa8565b600181811c908216806133a657607f821691505b602082108103612c3157634e487b7160e01b600052602260045260246000fd5b6000606082840312156133d857600080fd5b6133e0612d61565b82516133eb81612be3565b815260208301516133fb81612be3565b60208201526040928301519281019290925250919050565b601f82111561345f576000816000526020600020601f850160051c8101602086101561343c5750805b601f850160051c820191505b8181101561345b57828155600101613448565b5050505b505050565b81516001600160401b0381111561347d5761347d612d4b565b6134918161348b8454613392565b84613413565b602080601f8311600181146134c657600084156134ae5750858301515b600019600386901b1c1916600185901b17855561345b565b600085815260208120601f198616915b828110156134f5578886015182559484019460019091019084016134d6565b50858210156135135787850151600019600388901b60f8161c191681555b5050505050600190811b01905550565b60006020828403121561353557600080fd5b81516001600160401b038082111561354c57600080fd5b908301906040828603121561356057600080fd5b613568612d89565b825161357381612ef7565b815260208301518281111561358757600080fd5b612f75878286016132d6565b6020808252600f908201526e496e76616c6964206164647265737360881b604082015260600190565b6000600182016135ce576135ce613266565b5060010190565b6000816135e4576135e4613266565b506000190190565b634e487b7160e01b600052603260045260246000fd5b7f19457468657265756d205369676e6564204d6573736167653a0a00000000000081526000835161363a81601a850160208801612f84565b83519083019061365181601a840160208801612f84565b01601a01949350505050565b634e487b7160e01b600052602160045260246000fdfea2646970667358221220240bdee5b5d60b864e1bac66d4349a4a99af2659d1c34edeaf7918dc33cbaaab64736f6c63430008180033",
  "linkReferences": {},
  "deployedLinkReferences": {}
}