{
  "_format": "hh-sol-artifact-1",
  "contractName": "Avatar",
  "sourceName": "contracts/avatar/instance/Avatar.sol",
  "abi": [
    {
      "inputs": [
        {
          "components": [
            {
              "internalType": "address",
              "name": "extensionResolver",
              "type": "address"
            },
            {
              "internalType": "address",
              "name": "owningRegistry",
              "type": "address"
            },
            {
              "internalType": "address",
              "name": "worldRegistry",
              "type": "address"
            }
          ],
          "internalType": "struct AvatarConstructorArgs",
          "name": "args",
          "type": "tuple"
        }
      ],
      "stateMutability": "nonpayable",
      "type": "constructor"
    },
    {
      "anonymous": false,
      "inputs": [
        {
          "indexed": false,
          "internalType": "string",
          "name": "name",
          "type": "string"
        }
      ],
      "name": "ExtensionDisabled",
      "type": "event"
    },
    {
      "anonymous": false,
      "inputs": [
        {
          "indexed": false,
          "internalType": "string",
          "name": "name",
          "type": "string"
        }
      ],
      "name": "ExtensionEnabled",
      "type": "event"
    },
    {
      "anonymous": false,
      "inputs": [
        {
          "indexed": false,
          "internalType": "string",
          "name": "name",
          "type": "string"
        },
        {
          "components": [
            {
              "internalType": "uint16",
              "name": "major",
              "type": "uint16"
            },
            {
              "internalType": "uint16",
              "name": "minor",
              "type": "uint16"
            }
          ],
          "indexed": false,
          "internalType": "struct Version",
          "name": "version",
          "type": "tuple"
        }
      ],
      "name": "ExtensionInstalled",
      "type": "event"
    },
    {
      "anonymous": false,
      "inputs": [
        {
          "indexed": false,
          "internalType": "string",
          "name": "name",
          "type": "string"
        },
        {
          "components": [
            {
              "internalType": "uint16",
              "name": "major",
              "type": "uint16"
            },
            {
              "internalType": "uint16",
              "name": "minor",
              "type": "uint16"
            }
          ],
          "indexed": false,
          "internalType": "struct Version",
          "name": "version",
          "type": "tuple"
        }
      ],
      "name": "ExtensionRolledBack",
      "type": "event"
    },
    {
      "anonymous": false,
      "inputs": [
        {
          "indexed": false,
          "internalType": "string",
          "name": "name",
          "type": "string"
        },
        {
          "components": [
            {
              "internalType": "uint16",
              "name": "major",
              "type": "uint16"
            },
            {
              "internalType": "uint16",
              "name": "minor",
              "type": "uint16"
            }
          ],
          "indexed": false,
          "internalType": "struct Version",
          "name": "version",
          "type": "tuple"
        }
      ],
      "name": "ExtensionUpgraded",
      "type": "event"
    },
    {
      "anonymous": false,
      "inputs": [
        {
          "indexed": false,
          "internalType": "bytes4",
          "name": "selector",
          "type": "bytes4"
        }
      ],
      "name": "SelectorDisabled",
      "type": "event"
    },
    {
      "anonymous": false,
      "inputs": [
        {
          "indexed": false,
          "internalType": "bytes4",
          "name": "selector",
          "type": "bytes4"
        }
      ],
      "name": "SelectorEnabled",
      "type": "event"
    },
    {
      "stateMutability": "payable",
      "type": "fallback"
    },
    {
      "inputs": [],
      "name": "appearanceDetails",
      "outputs": [
        {
          "internalType": "bytes",
          "name": "",
          "type": "bytes"
        }
      ],
      "stateMutability": "view",
      "type": "function"
    },
    {
      "inputs": [],
      "name": "avatarOwnerSigningNonce",
      "outputs": [
        {
          "internalType": "uint256",
          "name": "",
          "type": "uint256"
        }
      ],
      "stateMutability": "view",
      "type": "function"
    },
    {
      "inputs": [],
      "name": "avatarRegistry",
      "outputs": [
        {
          "internalType": "contract IAvatarRegistry",
          "name": "",
          "type": "address"
        }
      ],
      "stateMutability": "view",
      "type": "function"
    },
    {
      "inputs": [],
      "name": "canReceiveTokensOutsideOfExperience",
      "outputs": [
        {
          "internalType": "bool",
          "name": "",
          "type": "bool"
        }
      ],
      "stateMutability": "view",
      "type": "function"
    },
    {
      "inputs": [
        {
          "internalType": "address",
          "name": "signer",
          "type": "address"
        }
      ],
      "name": "companySigningNonce",
      "outputs": [
        {
          "internalType": "uint256",
          "name": "",
          "type": "uint256"
        }
      ],
      "stateMutability": "view",
      "type": "function"
    },
    {
      "inputs": [],
      "name": "extResolver",
      "outputs": [
        {
          "internalType": "contract IExtensionResolver",
          "name": "",
          "type": "address"
        }
      ],
      "stateMutability": "view",
      "type": "function"
    },
    {
      "inputs": [
        {
          "internalType": "string",
          "name": "name",
          "type": "string"
        }
      ],
      "name": "getExtensionVersion",
      "outputs": [
        {
          "components": [
            {
              "internalType": "uint16",
              "name": "major",
              "type": "uint16"
            },
            {
              "internalType": "uint16",
              "name": "minor",
              "type": "uint16"
            }
          ],
          "internalType": "struct Version",
          "name": "",
          "type": "tuple"
        }
      ],
      "stateMutability": "view",
      "type": "function"
    },
    {
      "inputs": [
        {
          "internalType": "string",
          "name": "name",
          "type": "string"
        },
        {
          "components": [
            {
              "internalType": "uint16",
              "name": "major",
              "type": "uint16"
            },
            {
              "internalType": "uint16",
              "name": "minor",
              "type": "uint16"
            }
          ],
          "internalType": "struct Version",
          "name": "version",
          "type": "tuple"
        }
      ],
      "name": "hasExtension",
      "outputs": [
        {
          "internalType": "bool",
          "name": "",
          "type": "bool"
        }
      ],
      "stateMutability": "view",
      "type": "function"
    },
    {
      "inputs": [
        {
          "components": [
            {
              "internalType": "address",
              "name": "owner",
              "type": "address"
            },
            {
              "internalType": "address",
              "name": "termsOwner",
              "type": "address"
            },
            {
              "internalType": "address",
              "name": "registry",
              "type": "address"
            },
            {
              "internalType": "string",
              "name": "name",
              "type": "string"
            },
            {
              "components": [
                {
                  "internalType": "string",
                  "name": "x",
                  "type": "string"
                },
                {
                  "internalType": "string",
                  "name": "y",
                  "type": "string"
                },
                {
                  "internalType": "string",
                  "name": "z",
                  "type": "string"
                },
                {
                  "internalType": "uint256",
                  "name": "t",
                  "type": "uint256"
                },
                {
                  "internalType": "uint256",
                  "name": "p",
                  "type": "uint256"
                },
                {
                  "internalType": "uint256",
                  "name": "p_sub",
                  "type": "uint256"
                }
              ],
              "internalType": "struct VectorAddress",
              "name": "vector",
              "type": "tuple"
            },
            {
              "internalType": "bytes",
              "name": "initData",
              "type": "bytes"
            }
          ],
          "internalType": "struct CommonInitArgs",
          "name": "args",
          "type": "tuple"
        }
      ],
      "name": "init",
      "outputs": [],
      "stateMutability": "nonpayable",
      "type": "function"
    },
    {
      "inputs": [],
      "name": "location",
      "outputs": [
        {
          "internalType": "address",
          "name": "",
          "type": "address"
        }
      ],
      "stateMutability": "view",
      "type": "function"
    },
    {
      "inputs": [],
      "name": "name",
      "outputs": [
        {
          "internalType": "string",
          "name": "",
          "type": "string"
        }
      ],
      "stateMutability": "view",
      "type": "function"
    },
    {
      "inputs": [
        {
          "internalType": "bytes",
          "name": "details",
          "type": "bytes"
        }
      ],
      "name": "setAppearanceDetails",
      "outputs": [],
      "stateMutability": "nonpayable",
      "type": "function"
    },
    {
      "inputs": [
        {
          "internalType": "bool",
          "name": "canReceive",
          "type": "bool"
        }
      ],
      "name": "setCanReceiveTokensOutsideOfExperience",
      "outputs": [],
      "stateMutability": "nonpayable",
      "type": "function"
    },
    {
      "inputs": [],
      "name": "username",
      "outputs": [
        {
          "internalType": "string",
          "name": "",
          "type": "string"
        }
      ],
      "stateMutability": "view",
      "type": "function"
    },
    {
      "inputs": [],
      "name": "version",
      "outputs": [
        {
          "components": [
            {
              "internalType": "uint16",
              "name": "major",
              "type": "uint16"
            },
            {
              "internalType": "uint16",
              "name": "minor",
              "type": "uint16"
            }
          ],
          "internalType": "struct Version",
          "name": "",
          "type": "tuple"
        }
      ],
      "stateMutability": "pure",
      "type": "function"
    },
    {
      "inputs": [
        {
          "internalType": "uint256",
          "name": "amount",
          "type": "uint256"
        }
      ],
      "name": "withdraw",
      "outputs": [],
      "stateMutability": "nonpayable",
      "type": "function"
    },
    {
      "inputs": [],
      "name": "worldRegistry",
      "outputs": [
        {
          "internalType": "contract IWorldRegistry",
          "name": "",
          "type": "address"
        }
      ],
      "stateMutability": "view",
      "type": "function"
    },
    {
      "stateMutability": "payable",
      "type": "receive"
    }
  ],
  "bytecode": "0x60e06040523480156200001157600080fd5b5060405162001a5b38038062001a5b8339810160408190526200003491620001dd565b80516001600160a01b038116620000b85760405162461bcd60e51b815260206004820152603660248201527f456e746974795368656c6c3a20657874656e73696f6e207265736f6c7665722060448201527f63616e6e6f74206265207a65726f20616464726573730000000000000000000060648201526084015b60405180910390fd5b6001600160a01b03908116608052602082015116620001305760405162461bcd60e51b815260206004820152602d60248201527f4176617461723a206f776e696e6752656769737472792063616e6e6f7420626560448201526c207a65726f206164647265737360981b6064820152608401620000af565b60408101516001600160a01b0316620001a15760405162461bcd60e51b815260206004820152602c60248201527f4176617461723a20776f726c6452656769737472792063616e6e6f742062652060448201526b7a65726f206164647265737360a01b6064820152608401620000af565b60200180516001600160a01b0390811660c05290511660a0526200025e565b80516001600160a01b0381168114620001d857600080fd5b919050565b600060608284031215620001f057600080fd5b604051606081016001600160401b03811182821017156200022157634e487b7160e01b600052604160045260246000fd5b6040526200022f83620001c0565b81526200023f60208401620001c0565b60208201526200025260408401620001c0565b60408201529392505050565b60805160a05160c0516117b1620002aa600039600081816102db01526108640152600061038301526000818161034f015281816103f20152818161056201526107bc01526117b16000f3fe6080604052600436106101025760003560e01c806361fac54d11610095578063949a1ddc11610064578063949a1ddc146102fd5780639d870bf61461031d578063dd2a44c11461033d578063e3d7ad7314610371578063f890d7c9146103a557610109565b806361fac54d1461016457806369a10a12146102945780638970220e146102b4578063911c2a8c146102c957610109565b80632e1a7d4d116100d15780632e1a7d4d146101ed57806347d1d09a1461020f578063516f279e1461022f57806354fd4d501461025c57610109565b806303f7d3ba1461013157806306fdde0314610164578063181d939b14610186578063238a0386146101ab57610109565b3661010957005b600080356001600160e01b03191690506000610127826000366103ba565b9050805160208201f35b34801561013d57600080fd5b5061015161014c366004610ea3565b610467565b6040519081526020015b60405180910390f35b34801561017057600080fd5b50610179610493565b60405161015b9190610f10565b34801561019257600080fd5b5061019b61052e565b604051901515815260200161015b565b3480156101b757600080fd5b506101cb6101c6366004610fe8565b610541565b60408051825161ffff908116825260209384015116928101929092520161015b565b3480156101f957600080fd5b5061020d61020836600461101d565b6105e5565b005b34801561021b57600080fd5b5061019b61022a366004611036565b6107a2565b34801561023b57600080fd5b5061024461083b565b6040516001600160a01b03909116815260200161015b565b34801561026857600080fd5b5060408051808201825260008082526020918201819052825180840190935260018352908201526101cb565b3480156102a057600080fd5b5061020d6102af366004611090565b610859565b3480156102c057600080fd5b50610179610ba2565b3480156102d557600080fd5b506102447f000000000000000000000000000000000000000000000000000000000000000081565b34801561030957600080fd5b5061020d610318366004610fe8565b610bba565b34801561032957600080fd5b5061020d6103383660046110d9565b610c9e565b34801561034957600080fd5b506102447f000000000000000000000000000000000000000000000000000000000000000081565b34801561037d57600080fd5b506102447f000000000000000000000000000000000000000000000000000000000000000081565b3480156103b157600080fd5b50610151610d86565b604051631162ec5760e01b815260609073__$307c3a572bdf5d9800a89b3fc2eb3d5604$__90631162ec579061041a908790879087907f0000000000000000000000000000000000000000000000000000000000000000906004016110f6565b600060405180830381865af4158015610437573d6000803e3d6000fd5b505050506040513d6000823e601f3d908101601f1916820160405261045f9190810190611148565b949350505050565b6000610471610d99565b6001600160a01b03909216600090815260019290920160205250604090205490565b606061049d610e26565b60020180546104ab906111bf565b80601f01602080910402602001604051908101604052809291908181526020018280546104d7906111bf565b80156105245780601f106104f957610100808354040283529160200191610524565b820191906000526020600020905b81548152906001019060200180831161050757829003601f168201915b5050505050905090565b6000610538610d99565b5460ff16919050565b6040805180820182526000808252602082015290516311c501c360e11b81527f00000000000000000000000000000000000000000000000000000000000000006001600160a01b03169063238a03869061059f908590600401610f10565b6040805180830381865afa1580156105bb573d6000803e3d6000fd5b505050506040513d601f19601f820116820180604052508101906105df9190611209565b92915050565b604051630935e01b60e21b815233600482015273__$a5a42e46683ad9c79b7b86d5ff60fdf4c1$__906324d7806c90602401602060405180830381865af4158015610634573d6000803e3d6000fd5b505050506040513d601f19601f820116820180604052508101906106589190611268565b6106a95760405162461bcd60e51b815260206004820181905260248201527f42617369635368656c6c3a207265737472696374656420746f2061646d696e7360448201526064015b60405180910390fd5b478111156106f95760405162461bcd60e51b815260206004820181905260248201527f42617369635368656c6c3a20696e73756666696369656e742062616c616e636560448201526064016106a0565b73__$a5a42e46683ad9c79b7b86d5ff60fdf4c1$__638da5cb5b6040518163ffffffff1660e01b8152600401602060405180830381865af4158015610742573d6000803e3d6000fd5b505050506040513d601f19601f820116820180604052508101906107669190611285565b6001600160a01b03166108fc829081150290604051600060405180830381858888f1935050505015801561079e573d6000803e3d6000fd5b5050565b6040516323e8e84d60e11b81526000906001600160a01b037f000000000000000000000000000000000000000000000000000000000000000016906347d1d09a906107f390869086906004016112a2565b602060405180830381865afa158015610810573d6000803e3d6000fd5b505050506040513d601f19601f820116820180604052508101906108349190611268565b9392505050565b6000610845610d99565b5461010090046001600160a01b0316919050565b336001600160a01b037f000000000000000000000000000000000000000000000000000000000000000016146108d15760405162461bcd60e51b815260206004820152601c60248201527f436f6d70616e793a206f6e6c7920776f726c642072656769737472790000000060448201526064016106a0565b60006108e36040830160208401610ea3565b6001600160a01b03160361094a5760405162461bcd60e51b815260206004820152602860248201527f436f6d70616e793a207465726d73206f776e657220697320746865207a65726f604482015267206164647265737360c01b60648201526084016106a0565b600061095960608301836112ee565b9050116109a85760405162461bcd60e51b815260206004820152601d60248201527f436f6d70616e793a206e616d652063616e6e6f7420626520656d70747900000060448201526064016106a0565b60408051600080825260208201909252905073__$a5a42e46683ad9c79b7b86d5ff60fdf4c1$__63d9ac971f6109e16020850185610ea3565b836040518363ffffffff1660e01b81526004016109ff92919061133c565b60006040518083038186803b158015610a1757600080fd5b505af4158015610a2b573d6000803e3d6000fd5b505050506000610a39610e26565b805460ff191660011781559050610a5360608401846112ee565b6002830191610a639190836113fe565b50610a7160808401846114b9565b60038201610a7f82826114d9565b50610a9290506040840160208501610ea3565b81546001600160a01b0391909116620100000262010000600160b01b03199091161781556000610ac0610d99565b90506000610ad160a08601866112ee565b810190610ade91906115f7565b60208101519091506001600160a01b0316610b555760405162461bcd60e51b815260206004820152603160248201527f4176617461723a2064656661756c7420657870657269656e63652063616e6e6f60448201527074206265207a65726f206164647265737360781b60648201526084016106a0565b8051825460ff191690151517825560408101516003830190610b7790826116a0565b506020015181546001600160a01b0390911661010002610100600160a81b0319909116179055505050565b6060610bac610d99565b60030180546104ab906111bf565b336001600160a01b031673__$a5a42e46683ad9c79b7b86d5ff60fdf4c1$__638da5cb5b6040518163ffffffff1660e01b8152600401602060405180830381865af4158015610c0d573d6000803e3d6000fd5b505050506040513d601f19601f82011682018060405250810190610c319190611285565b6001600160a01b031614610c875760405162461bcd60e51b815260206004820152601f60248201527f4176617461723a2063616c6c6572206973206e6f7420746865206f776e65720060448201526064016106a0565b80610c90610d99565b6003019061079e90826116a0565b336001600160a01b031673__$a5a42e46683ad9c79b7b86d5ff60fdf4c1$__638da5cb5b6040518163ffffffff1660e01b8152600401602060405180830381865af4158015610cf1573d6000803e3d6000fd5b505050506040513d601f19601f82011682018060405250810190610d159190611285565b6001600160a01b031614610d6b5760405162461bcd60e51b815260206004820152601f60248201527f4176617461723a2063616c6c6572206973206e6f7420746865206f776e65720060448201526064016106a0565b80610d74610d99565b805460ff191691151591909117905550565b6000610d90610d99565b60020154905090565b60408051808201909152601481527378722e6176617461722e73746f726167652e763160601b60209091015260008060ff610df560017f4fd0b807f0bccdb8b9f7d6f3136b4bff018fd299ff833e7b8768182dc5b9a53261175a565b604051602001610e0791815260200190565b60408051601f1981840301815291905280516020909101201692915050565b60408051808201909152601881527f78722e61637469766174696f6e2e73746f726167652e7631000000000000000060209091015260008060ff610df560017ff6611e962a52dbc98dd0485088d920890c43e26113c61976f6e171a29d49ce4961175a565b6001600160a01b0381168114610ea057600080fd5b50565b600060208284031215610eb557600080fd5b813561083481610e8b565b60005b83811015610edb578181015183820152602001610ec3565b50506000910152565b60008151808452610efc816020860160208601610ec0565b601f01601f19169290920160200192915050565b6020815260006108346020830184610ee4565b634e487b7160e01b600052604160045260246000fd5b604051601f8201601f1916810167ffffffffffffffff81118282101715610f6257610f62610f23565b604052919050565b600067ffffffffffffffff821115610f8457610f84610f23565b50601f01601f191660200190565b600082601f830112610fa357600080fd5b8135610fb6610fb182610f6a565b610f39565b818152846020838601011115610fcb57600080fd5b816020850160208301376000918101602001919091529392505050565b600060208284031215610ffa57600080fd5b813567ffffffffffffffff81111561101157600080fd5b61045f84828501610f92565b60006020828403121561102f57600080fd5b5035919050565b600080828403606081121561104a57600080fd5b833567ffffffffffffffff81111561106157600080fd5b61106d86828701610f92565b9350506040601f198201121561108257600080fd5b506020830190509250929050565b6000602082840312156110a257600080fd5b813567ffffffffffffffff8111156110b957600080fd5b820160c0818503121561083457600080fd5b8015158114610ea057600080fd5b6000602082840312156110eb57600080fd5b8135610834816110cb565b63ffffffff60e01b85168152606060208201528260608201528284608083013760008184016080908101919091526001600160a01b03929092166040820152601f909201601f19169091010192915050565b60006020828403121561115a57600080fd5b815167ffffffffffffffff81111561117157600080fd5b8201601f8101841361118257600080fd5b8051611190610fb182610f6a565b8181528560208385010111156111a557600080fd5b6111b6826020830160208601610ec0565b95945050505050565b600181811c908216806111d357607f821691505b6020821081036111f357634e487b7160e01b600052602260045260246000fd5b50919050565b61ffff81168114610ea057600080fd5b60006040828403121561121b57600080fd5b6040516040810181811067ffffffffffffffff8211171561123e5761123e610f23565b604052825161124c816111f9565b8152602083015161125c816111f9565b60208201529392505050565b60006020828403121561127a57600080fd5b8151610834816110cb565b60006020828403121561129757600080fd5b815161083481610e8b565b6060815260006112b56060830185610ee4565b905082356112c2816111f9565b61ffff8082166020850152602085013591506112dd826111f9565b808216604085015250509392505050565b6000808335601e1984360301811261130557600080fd5b83018035915067ffffffffffffffff82111561132057600080fd5b60200191503681900382131561133557600080fd5b9250929050565b6001600160a01b038381168252604060208084018290528451918401829052600092858201929091906060860190855b8181101561138a57855185168352948301949183019160010161136c565b509098975050505050505050565b601f8211156113e4576000816000526020600020601f850160051c810160208610156113c15750805b601f850160051c820191505b818110156113e0578281556001016113cd565b5050505b505050565b600019600383901b1c191660019190911b1790565b67ffffffffffffffff83111561141657611416610f23565b61142a8361142483546111bf565b83611398565b6000601f84116001811461145857600085156114465750838201355b61145086826113e9565b8455506114b2565b600083815260209020601f19861690835b828110156114895786850135825560209485019460019092019101611469565b50868210156114a65760001960f88860031b161c19848701351681555b505060018560011b0183555b5050505050565b6000823560be198336030181126114cf57600080fd5b9190910192915050565b6114e382836112ee565b67ffffffffffffffff8111156114fb576114fb610f23565b61150f8161150985546111bf565b85611398565b6000601f82116001811461153d576000831561152b5750838201355b61153584826113e9565b865550611597565b600085815260209020601f19841690835b8281101561156e578685013582556020948501946001909201910161154e565b508482101561158b5760001960f88660031b161c19848701351681555b505060018360011b0185555b505050506115a860208301836112ee565b6115b68183600186016113fe565b50506115c560408301836112ee565b6115d38183600286016113fe565b5050606082013560038201556080820135600482015560a082013560058201555050565b60006020828403121561160957600080fd5b813567ffffffffffffffff8082111561162157600080fd5b908301906060828603121561163557600080fd5b60405160608101818110838211171561165057611650610f23565b604052823561165e816110cb565b8152602083013561166e81610e8b565b602082015260408301358281111561168557600080fd5b61169187828601610f92565b60408301525095945050505050565b815167ffffffffffffffff8111156116ba576116ba610f23565b6116ce816116c884546111bf565b84611398565b602080601f8311600181146116fd57600084156116eb5750858301515b6116f585826113e9565b8655506113e0565b600085815260208120601f198616915b8281101561172c5788860151825594840194600190910190840161170d565b508582101561174a5787850151600019600388901b60f8161c191681555b5050505050600190811b01905550565b818103818111156105df57634e487b7160e01b600052601160045260246000fdfea2646970667358221220b0ce7dbdabbe6604791315097846fe5a83fcdf1773f9e59100bf36c6b536a63664736f6c63430008180033",
  "linkReferences": {
    "contracts/libraries/LibAccess.sol": {
      "LibAccess": [
        {
          "length": 20,
          "start": 2212
        },
        {
          "length": 20,
          "start": 2469
        },
        {
          "length": 20,
          "start": 3174
        },
        {
          "length": 20,
          "start": 3696
        },
        {
          "length": 20,
          "start": 3924
        }
      ]
    },
    "contracts/libraries/LibExtensions.sol": {
      "LibExtensions": [
        {
          "length": 20,
          "start": 1654
        }
      ]
    }
  },
  "deployedLinkReferences": {
    "contracts/libraries/LibAccess.sol": {
      "LibAccess": [
        {
          "length": 20,
          "start": 1530
        },
        {
          "length": 20,
          "start": 1787
        },
        {
          "length": 20,
          "start": 2492
        },
        {
          "length": 20,
          "start": 3014
        },
        {
          "length": 20,
          "start": 3242
        }
      ]
    },
    "contracts/libraries/LibExtensions.sol": {
      "LibExtensions": [
        {
          "length": 20,
          "start": 972
        }
      ]
    }
  }
}