{
  "_format": "hh-sol-artifact-1",
  "contractName": "Avatar",
  "sourceName": "contracts/avatar/Avatar.sol",
  "abi": [
    {
      "inputs": [
        {
          "components": [
            {
              "internalType": "address",
              "name": "avatarFactory",
              "type": "address"
            },
            {
              "internalType": "address",
              "name": "avatarRegistry",
              "type": "address"
            },
            {
              "internalType": "address",
              "name": "experienceRegistry",
              "type": "address"
            },
            {
              "internalType": "address",
              "name": "portalRegistry",
              "type": "address"
            },
            {
              "internalType": "address",
              "name": "companyRegistry",
              "type": "address"
            },
            {
              "internalType": "address",
              "name": "multiAssetRegistry",
              "type": "address"
            }
          ],
          "internalType": "struct BaseContructorArgs",
          "name": "args",
          "type": "tuple"
        }
      ],
      "stateMutability": "nonpayable",
      "type": "constructor"
    },
    {
      "inputs": [],
      "name": "ECDSAInvalidSignature",
      "type": "error"
    },
    {
      "inputs": [
        {
          "internalType": "uint256",
          "name": "length",
          "type": "uint256"
        }
      ],
      "name": "ECDSAInvalidSignatureLength",
      "type": "error"
    },
    {
      "inputs": [
        {
          "internalType": "bytes32",
          "name": "s",
          "type": "bytes32"
        }
      ],
      "name": "ECDSAInvalidSignatureS",
      "type": "error"
    },
    {
      "inputs": [],
      "name": "ReentrancyGuardReentrantCall",
      "type": "error"
    },
    {
      "anonymous": false,
      "inputs": [
        {
          "indexed": true,
          "internalType": "bytes",
          "name": "appearanceDetails",
          "type": "bytes"
        }
      ],
      "name": "AppearanceChanged",
      "type": "event"
    },
    {
      "anonymous": false,
      "inputs": [
        {
          "indexed": true,
          "internalType": "address",
          "name": "oldVersion",
          "type": "address"
        },
        {
          "indexed": true,
          "internalType": "address",
          "name": "nextVersion",
          "type": "address"
        }
      ],
      "name": "AvatarUpgraded",
      "type": "event"
    },
    {
      "anonymous": false,
      "inputs": [],
      "name": "HookRemoved",
      "type": "event"
    },
    {
      "anonymous": false,
      "inputs": [
        {
          "indexed": true,
          "internalType": "address",
          "name": "hook",
          "type": "address"
        }
      ],
      "name": "HookSet",
      "type": "event"
    },
    {
      "anonymous": false,
      "inputs": [
        {
          "indexed": true,
          "internalType": "address",
          "name": "experience",
          "type": "address"
        },
        {
          "indexed": true,
          "internalType": "uint256",
          "name": "fee",
          "type": "uint256"
        },
        {
          "indexed": false,
          "internalType": "bytes",
          "name": "connectionDetails",
          "type": "bytes"
        }
      ],
      "name": "JumpSuccess",
      "type": "event"
    },
    {
      "anonymous": false,
      "inputs": [
        {
          "indexed": true,
          "internalType": "address",
          "name": "location",
          "type": "address"
        }
      ],
      "name": "LocationChanged",
      "type": "event"
    },
    {
      "anonymous": false,
      "inputs": [
        {
          "indexed": true,
          "internalType": "address",
          "name": "signer",
          "type": "address"
        }
      ],
      "name": "SignerAdded",
      "type": "event"
    },
    {
      "anonymous": false,
      "inputs": [
        {
          "indexed": true,
          "internalType": "address",
          "name": "signer",
          "type": "address"
        }
      ],
      "name": "SignerRemoved",
      "type": "event"
    },
    {
      "anonymous": false,
      "inputs": [
        {
          "indexed": true,
          "internalType": "address",
          "name": "wearable",
          "type": "address"
        },
        {
          "indexed": false,
          "internalType": "uint256",
          "name": "tokenId",
          "type": "uint256"
        }
      ],
      "name": "WearableAdded",
      "type": "event"
    },
    {
      "anonymous": false,
      "inputs": [
        {
          "indexed": true,
          "internalType": "address",
          "name": "wearable",
          "type": "address"
        },
        {
          "indexed": false,
          "internalType": "uint256",
          "name": "tokenId",
          "type": "uint256"
        }
      ],
      "name": "WearableRemoved",
      "type": "event"
    },
    {
      "inputs": [
        {
          "components": [
            {
              "internalType": "address",
              "name": "asset",
              "type": "address"
            },
            {
              "internalType": "uint256",
              "name": "tokenId",
              "type": "uint256"
            }
          ],
          "internalType": "struct Wearable",
          "name": "wearable",
          "type": "tuple"
        }
      ],
      "name": "addWearable",
      "outputs": [],
      "stateMutability": "nonpayable",
      "type": "function"
    },
    {
      "inputs": [],
      "name": "appearanceDetails",
      "outputs": [
        {
          "internalType": "bytes",
          "name": "",
          "type": "bytes"
        }
      ],
      "stateMutability": "view",
      "type": "function"
    },
    {
      "inputs": [],
      "name": "assetRegistry",
      "outputs": [
        {
          "internalType": "contract IMultiAssetRegistry",
          "name": "",
          "type": "address"
        }
      ],
      "stateMutability": "view",
      "type": "function"
    },
    {
      "inputs": [],
      "name": "avatarFactory",
      "outputs": [
        {
          "internalType": "address",
          "name": "",
          "type": "address"
        }
      ],
      "stateMutability": "view",
      "type": "function"
    },
    {
      "inputs": [],
      "name": "avatarOwnerSigningNonce",
      "outputs": [
        {
          "internalType": "uint256",
          "name": "",
          "type": "uint256"
        }
      ],
      "stateMutability": "view",
      "type": "function"
    },
    {
      "inputs": [],
      "name": "avatarRegistry",
      "outputs": [
        {
          "internalType": "contract IAvatarRegistry",
          "name": "",
          "type": "address"
        }
      ],
      "stateMutability": "view",
      "type": "function"
    },
    {
      "inputs": [
        {
          "components": [
            {
              "internalType": "address",
              "name": "asset",
              "type": "address"
            },
            {
              "internalType": "uint256",
              "name": "tokenId",
              "type": "uint256"
            }
          ],
          "internalType": "struct Wearable",
          "name": "wearable",
          "type": "tuple"
        }
      ],
      "name": "canAddWearable",
      "outputs": [
        {
          "internalType": "bool",
          "name": "",
          "type": "bool"
        }
      ],
      "stateMutability": "view",
      "type": "function"
    },
    {
      "inputs": [],
      "name": "canReceiveTokensOutsideOfExperience",
      "outputs": [
        {
          "internalType": "bool",
          "name": "",
          "type": "bool"
        }
      ],
      "stateMutability": "view",
      "type": "function"
    },
    {
      "inputs": [],
      "name": "companyRegistry",
      "outputs": [
        {
          "internalType": "contract ICompanyRegistry",
          "name": "",
          "type": "address"
        }
      ],
      "stateMutability": "view",
      "type": "function"
    },
    {
      "inputs": [
        {
          "internalType": "address",
          "name": "company",
          "type": "address"
        }
      ],
      "name": "companySigningNonce",
      "outputs": [
        {
          "internalType": "uint256",
          "name": "",
          "type": "uint256"
        }
      ],
      "stateMutability": "view",
      "type": "function"
    },
    {
      "inputs": [
        {
          "components": [
            {
              "internalType": "uint256",
              "name": "portalId",
              "type": "uint256"
            },
            {
              "internalType": "uint256",
              "name": "agreedFee",
              "type": "uint256"
            },
            {
              "internalType": "bytes",
              "name": "avatarOwnerSignature",
              "type": "bytes"
            }
          ],
          "internalType": "struct DelegatedJumpRequest",
          "name": "request",
          "type": "tuple"
        }
      ],
      "name": "delegateJump",
      "outputs": [],
      "stateMutability": "payable",
      "type": "function"
    },
    {
      "inputs": [
        {
          "components": [
            {
              "internalType": "bool",
              "name": "canReceiveTokensOutsideOfExperience",
              "type": "bool"
            },
            {
              "internalType": "bytes",
              "name": "appearanceDetails",
              "type": "bytes"
            }
          ],
          "internalType": "struct AvatarInitData",
          "name": "data",
          "type": "tuple"
        }
      ],
      "name": "encodeInitData",
      "outputs": [
        {
          "internalType": "bytes",
          "name": "",
          "type": "bytes"
        }
      ],
      "stateMutability": "pure",
      "type": "function"
    },
    {
      "inputs": [],
      "name": "experienceRegistry",
      "outputs": [
        {
          "internalType": "contract IExperienceRegistry",
          "name": "",
          "type": "address"
        }
      ],
      "stateMutability": "view",
      "type": "function"
    },
    {
      "inputs": [],
      "name": "getWearables",
      "outputs": [
        {
          "components": [
            {
              "internalType": "address",
              "name": "asset",
              "type": "address"
            },
            {
              "internalType": "uint256",
              "name": "tokenId",
              "type": "uint256"
            }
          ],
          "internalType": "struct Wearable[]",
          "name": "",
          "type": "tuple[]"
        }
      ],
      "stateMutability": "view",
      "type": "function"
    },
    {
      "inputs": [],
      "name": "hook",
      "outputs": [
        {
          "internalType": "contract IAvatarHook",
          "name": "",
          "type": "address"
        }
      ],
      "stateMutability": "view",
      "type": "function"
    },
    {
      "inputs": [
        {
          "internalType": "address",
          "name": "_owner",
          "type": "address"
        },
        {
          "internalType": "address",
          "name": "defaultExperience",
          "type": "address"
        },
        {
          "internalType": "string",
          "name": "_name",
          "type": "string"
        },
        {
          "internalType": "bytes",
          "name": "initData",
          "type": "bytes"
        }
      ],
      "name": "init",
      "outputs": [],
      "stateMutability": "nonpayable",
      "type": "function"
    },
    {
      "inputs": [
        {
          "components": [
            {
              "internalType": "address",
              "name": "asset",
              "type": "address"
            },
            {
              "internalType": "uint256",
              "name": "tokenId",
              "type": "uint256"
            }
          ],
          "internalType": "struct Wearable",
          "name": "wearable",
          "type": "tuple"
        }
      ],
      "name": "isWearing",
      "outputs": [
        {
          "internalType": "bool",
          "name": "",
          "type": "bool"
        }
      ],
      "stateMutability": "view",
      "type": "function"
    },
    {
      "inputs": [
        {
          "components": [
            {
              "internalType": "uint256",
              "name": "portalId",
              "type": "uint256"
            },
            {
              "internalType": "uint256",
              "name": "agreedFee",
              "type": "uint256"
            },
            {
              "internalType": "bytes",
              "name": "destinationCompanySignature",
              "type": "bytes"
            }
          ],
          "internalType": "struct AvatarJumpRequest",
          "name": "request",
          "type": "tuple"
        }
      ],
      "name": "jump",
      "outputs": [],
      "stateMutability": "payable",
      "type": "function"
    },
    {
      "inputs": [],
      "name": "location",
      "outputs": [
        {
          "internalType": "contract IExperience",
          "name": "",
          "type": "address"
        }
      ],
      "stateMutability": "view",
      "type": "function"
    },
    {
      "inputs": [
        {
          "internalType": "address",
          "name": "",
          "type": "address"
        },
        {
          "internalType": "address",
          "name": "",
          "type": "address"
        },
        {
          "internalType": "uint256",
          "name": "tokenId",
          "type": "uint256"
        },
        {
          "internalType": "bytes",
          "name": "",
          "type": "bytes"
        }
      ],
      "name": "onERC721Received",
      "outputs": [
        {
          "internalType": "bytes4",
          "name": "",
          "type": "bytes4"
        }
      ],
      "stateMutability": "nonpayable",
      "type": "function"
    },
    {
      "inputs": [
        {
          "internalType": "uint256",
          "name": "tokenId",
          "type": "uint256"
        }
      ],
      "name": "onERC721Revoked",
      "outputs": [],
      "stateMutability": "nonpayable",
      "type": "function"
    },
    {
      "inputs": [],
      "name": "owner",
      "outputs": [
        {
          "internalType": "address",
          "name": "",
          "type": "address"
        }
      ],
      "stateMutability": "view",
      "type": "function"
    },
    {
      "inputs": [],
      "name": "portalRegistry",
      "outputs": [
        {
          "internalType": "contract IPortalRegistry",
          "name": "",
          "type": "address"
        }
      ],
      "stateMutability": "view",
      "type": "function"
    },
    {
      "inputs": [],
      "name": "removeHook",
      "outputs": [],
      "stateMutability": "nonpayable",
      "type": "function"
    },
    {
      "inputs": [
        {
          "components": [
            {
              "internalType": "address",
              "name": "asset",
              "type": "address"
            },
            {
              "internalType": "uint256",
              "name": "tokenId",
              "type": "uint256"
            }
          ],
          "internalType": "struct Wearable",
          "name": "wearable",
          "type": "tuple"
        }
      ],
      "name": "removeWearable",
      "outputs": [],
      "stateMutability": "nonpayable",
      "type": "function"
    },
    {
      "inputs": [
        {
          "internalType": "bytes",
          "name": "details",
          "type": "bytes"
        }
      ],
      "name": "setAppearanceDetails",
      "outputs": [],
      "stateMutability": "nonpayable",
      "type": "function"
    },
    {
      "inputs": [
        {
          "internalType": "bool",
          "name": "canReceive",
          "type": "bool"
        }
      ],
      "name": "setCanReceiveTokensOutsideOfExperience",
      "outputs": [],
      "stateMutability": "nonpayable",
      "type": "function"
    },
    {
      "inputs": [
        {
          "internalType": "contract IAvatarHook",
          "name": "_hook",
          "type": "address"
        }
      ],
      "name": "setHook",
      "outputs": [],
      "stateMutability": "nonpayable",
      "type": "function"
    },
    {
      "inputs": [
        {
          "internalType": "bytes",
          "name": "initData",
          "type": "bytes"
        }
      ],
      "name": "upgrade",
      "outputs": [],
      "stateMutability": "nonpayable",
      "type": "function"
    },
    {
      "inputs": [
        {
          "internalType": "address",
          "name": "nextVersion",
          "type": "address"
        }
      ],
      "name": "upgradeComplete",
      "outputs": [],
      "stateMutability": "nonpayable",
      "type": "function"
    },
    {
      "inputs": [],
      "name": "username",
      "outputs": [
        {
          "internalType": "string",
          "name": "",
          "type": "string"
        }
      ],
      "stateMutability": "view",
      "type": "function"
    },
    {
      "inputs": [],
      "name": "version",
      "outputs": [
        {
          "internalType": "uint256",
          "name": "",
          "type": "uint256"
        }
      ],
      "stateMutability": "view",
      "type": "function"
    },
    {
      "inputs": [
        {
          "internalType": "uint256",
          "name": "amount",
          "type": "uint256"
        }
      ],
      "name": "withdraw",
      "outputs": [],
      "stateMutability": "nonpayable",
      "type": "function"
    },
    {
      "stateMutability": "payable",
      "type": "receive"
    }
  ],
  "bytecode": "0x6101406040523480156200001257600080fd5b5060405162003c6338038062003c63833981016040819052620000359162000367565b600160005580516001600160a01b0316620000ad5760405162461bcd60e51b815260206004820152602d60248201527f4176617461723a2061766174617220666163746f72792063616e6e6f7420626560448201526c207a65726f206164647265737360981b60648201526084015b60405180910390fd5b60408101516001600160a01b0316620001245760405162461bcd60e51b815260206004820152603260248201527f4176617461723a20657870657269656e63652072656769737472792063616e6e6044820152716f74206265207a65726f206164647265737360701b6064820152608401620000a4565b60608101516001600160a01b0316620001975760405162461bcd60e51b815260206004820152602e60248201527f4176617461723a20706f7274616c2072656769737472792063616e6e6f74206260448201526d65207a65726f206164647265737360901b6064820152608401620000a4565b60808101516001600160a01b03166200020b5760405162461bcd60e51b815260206004820152602f60248201527f4176617461723a20636f6d70616e792072656769737472792063616e6e6f742060448201526e6265207a65726f206164647265737360881b6064820152608401620000a4565b60208101516001600160a01b03166200027e5760405162461bcd60e51b815260206004820152602e60248201527f4176617461723a206176617461722072656769737472792063616e6e6f74206260448201526d65207a65726f206164647265737360901b6064820152608401620000a4565b60a08101516001600160a01b0316620003005760405162461bcd60e51b815260206004820152603360248201527f4176617461723a206d756c74692d61737365742072656769737472792063616e60448201527f6e6f74206265207a65726f2061646472657373000000000000000000000000006064820152608401620000a4565b80516001600160a01b0390811660809081526040830151821660c0526060830151821660e0528201518116610100526020820151811660a090815290910151166101205262000421565b80516001600160a01b03811681146200036257600080fd5b919050565b600060c082840312156200037a57600080fd5b60405160c081016001600160401b0381118282101715620003ab57634e487b7160e01b600052604160045260246000fd5b604052620003b9836200034a565b8152620003c9602084016200034a565b6020820152620003dc604084016200034a565b6040820152620003ef606084016200034a565b606082015262000402608084016200034a565b60808201526200041560a084016200034a565b60a08201529392505050565b60805160a05160c05160e051610100516101205161379e620004c56000396000818161050b015281816107f7015281816119df01526121320152600081816105d301526114b101526000818161059f01528181610fcd015281816115a80152818161169701526124060152600081816104b70152611fa70152600081816106070152610c6801526000818161041c01528181610cf30152611e0a015261379e6000f3fe6080604052600436106101f25760003560e01c806361fac54d1161010d5780639be17fbc116100a0578063c51aba2b1161006f578063c51aba2b146105c1578063e3d7ad73146105f5578063e427535c14610629578063e62194f114610649578063f890d7c91461066957600080fd5b80639be17fbc1461052d5780639d870bf61461054d578063ae2314f71461056d578063b66649341461058d57600080fd5b80638da5cb5b116100dc5780638da5cb5b146104905780638f09a6be146104a5578063949a1ddc146104d9578063979d7e86146104f957600080fd5b806361fac54d1461043e5780637dc759e5146104535780637f5a7c7b146104665780638970220e1461047b57600080fd5b8063392f56691161018557806354cf0b391161015457806354cf0b39146103b357806354fd4d50146103d35780635cf59e1e146103e857806360e741e81461040a57600080fd5b8063392f5669146103265780633dfd38731461033957806340ac3f0b14610359578063516f279e1461038657600080fd5b806325394645116101c157806325394645146102b15780632663d1f7146102d15780632e1a7d4d146102f1578063378f17ff1461031157600080fd5b806303f7d3ba146101fe57806312deb11a14610231578063150b7a0214610253578063181d939b1461028c57600080fd5b366101f957005b600080fd5b34801561020a57600080fd5b5061021e610219366004612b46565b61067e565b6040519081526020015b60405180910390f35b34801561023d57600080fd5b5061025161024c366004612b63565b6106ab565b005b34801561025f57600080fd5b5061027361026e366004612bc3565b6107cb565b6040516001600160e01b03199091168152602001610228565b34801561029857600080fd5b506102a1610c01565b6040519015158152602001610228565b3480156102bd57600080fd5b506102516102cc366004612c35565b610c16565b3480156102dd57600080fd5b506102516102ec366004612b46565b610ce8565b3480156102fd57600080fd5b5061025161030c366004612c76565b610da1565b34801561031d57600080fd5b50610251610e89565b610251610334366004612dfa565b610f10565b34801561034557600080fd5b50610251610354366004612b46565b6110d3565b34801561036557600080fd5b50610379610374366004612e44565b6111cc565b6040516102289190612f13565b34801561039257600080fd5b5061039b6111f5565b6040516001600160a01b039091168152602001610228565b3480156103bf57600080fd5b506102516103ce366004612b63565b611213565b3480156103df57600080fd5b5061021e600181565b3480156103f457600080fd5b506103fd61136c565b6040516102289190612f26565b34801561041657600080fd5b5061039b7f000000000000000000000000000000000000000000000000000000000000000081565b34801561044a57600080fd5b506103796113fb565b610251610461366004612dfa565b61149c565b34801561047257600080fd5b5061039b61179c565b34801561048757600080fd5b506103796117ba565b34801561049c57600080fd5b5061039b6117d7565b3480156104b157600080fd5b5061039b7f000000000000000000000000000000000000000000000000000000000000000081565b3480156104e557600080fd5b506102516104f4366004612f86565b6117f7565b34801561050557600080fd5b5061039b7f000000000000000000000000000000000000000000000000000000000000000081565b34801561053957600080fd5b506102a1610548366004612b63565b611890565b34801561055957600080fd5b50610251610568366004612fba565b611922565b34801561057957600080fd5b506102a1610588366004612b63565b61197b565b34801561059957600080fd5b5061039b7f000000000000000000000000000000000000000000000000000000000000000081565b3480156105cd57600080fd5b5061039b7f000000000000000000000000000000000000000000000000000000000000000081565b34801561060157600080fd5b5061039b7f000000000000000000000000000000000000000000000000000000000000000081565b34801561063557600080fd5b50610251610644366004612fd7565b611dff565b34801561065557600080fd5b50610251610664366004612c76565b612108565b34801561067557600080fd5b5061021e612361565b600080610689612376565b6001600160a01b03909316600090815260059093016020525050604090205490565b60006106b5612376565b805490915061010090046001600160a01b031633146106ef5760405162461bcd60e51b81526004016106e690613076565b60405180910390fd5b6106f88261197b565b506000610703612376565b604051630dfd3df760e11b815290915073__$c011c5c9201293cae8fa3d59d203092c54$__90631bfa7bee9061074290600785019087906004016130bf565b60006040518083038186803b15801561075a57600080fd5b505af415801561076e573d6000803e3d6000fd5b50610780925050506020840184612b46565b6001600160a01b03167fc33fdb2e96e0dba49a8cb36af300177e6ba61804be87a31a26e27ab52596ecf284602001356040516107be91815260200190565b60405180910390a2505050565b60006107d561239a565b60006107df612376565b6040516315bd8ac360e31b81523360048201529091507f00000000000000000000000000000000000000000000000000000000000000006001600160a01b03169063adec561890602401602060405180830381865afa158015610846573d6000803e3d6000fd5b505050506040513d601f19601f8201168201806040525081019061086a91906130f3565b6108cd5760405162461bcd60e51b815260206004820152602e60248201527f4176617461723a2045524337323120746f6b656e206e6f742066726f6d20726560448201526d19da5cdd195c995908185cdcd95d60921b60648201526084016106e6565b8054339060ff16610a2f576000336001600160a01b0316631d1438486040518163ffffffff1660e01b8152600401602060405180830381865afa158015610918573d6000803e3d6000fd5b505050506040513d601f19601f8201168201806040525081019061093c9190613110565b600184015460408051636904c94d60e01b815290519293506001600160a01b03909116918291636904c94d9160048083019260209291908290030181865afa15801561098c573d6000803e3d6000fd5b505050506040513d601f19601f820116820180604052508101906109b09190613110565b6001600160a01b0316826001600160a01b031614610a2c5760405162461bcd60e51b815260206004820152603360248201527f4176617461723a2063616e6e6f74207265636569766520746f6b656e73206f756044820152727473696465206f6620657870657269656e636560681b60648201526084016106e6565b50505b6040516331a9108f60e11b81526004810187905230906001600160a01b03831690636352211e90602401602060405180830381865afa158015610a76573d6000803e3d6000fd5b505050506040513d601f19601f82011682018060405250810190610a9a9190613110565b6001600160a01b031614610b015760405162461bcd60e51b815260206004820152602860248201527f4176617461723a2045524337323120746f6b656e206e6f74206f776e656420626044820152673c9030bb30ba30b960c11b60648201526084016106e6565b60028201546001600160a01b031615610be8576002820154604051631d9a6bd160e11b8152306004820152336024820152604481018890526001600160a01b0390911690633b34d7a2906064016020604051808303816000875af1158015610b6d573d6000803e3d6000fd5b505050506040513d601f19601f82011682018060405250810190610b9191906130f3565b610be85760405162461bcd60e51b815260206004820152602260248201527f4176617461723a20686f6f6b2072656a65637465642045524337323120746f6b60448201526132b760f11b60648201526084016106e6565b5050600160005550630a85bd0160e11b95945050505050565b600080610c0c612376565b5460ff1692915050565b6000610c20612376565b805490915061010090046001600160a01b03163314610c515760405162461bcd60e51b81526004016106e690613076565b60405163612ca62160e01b81526001600160a01b037f0000000000000000000000000000000000000000000000000000000000000000169063612ca62190610c9f908690869060040161312d565b6020604051808303816000875af1158015610cbe573d6000803e3d6000fd5b505050506040513d601f19601f82011682018060405250810190610ce29190613110565b50505050565b336001600160a01b037f00000000000000000000000000000000000000000000000000000000000000001614610d305760405162461bcd60e51b81526004016106e69061315c565b7f69198989339f34e10129e514286bde98979351148754faef989dde18bf6d14da80546001600160a01b031981166001600160a01b03848116918217845560405192169182907f722ee95a7e2eed3235f2e3bdb62d3f6e70079578905580fbf8bb414519dd617290600090a3505050565b6000610dab612376565b805490915061010090046001600160a01b03163314610ddc5760405162461bcd60e51b81526004016106e690613076565b47821115610e405760405162461bcd60e51b815260206004820152602b60248201527f4176617461723a20696e73756666696369656e742062616c616e636520666f7260448201526a081dda5d1a191c985dd85b60aa1b60648201526084016106e6565b6000610e4a612376565b80546040519192506001600160a01b0361010090910416904780156108fc02916000818181858888f19350505050158015610ce2573d6000803e3d6000fd5b6000610e93612376565b805490915061010090046001600160a01b03163314610ec45760405162461bcd60e51b81526004016106e690613076565b6000610ece612376565b6002810180546001600160a01b03191690556040519091507f4abf6d25887ff6b78026f569f956b6d57d5b92cecf0ee91d897ec98e47f656a390600090a15050565b6000610f1a612376565b805490915061010090046001600160a01b03163314610f4b5760405162461bcd60e51b81526004016106e690613076565b6000610f56836123c4565b90508060400151836020015114610f7f5760405162461bcd60e51b81526004016106e6906131a7565b604081015115610fbd576000610f953447613209565b90508160400151811015610fbb5760405162461bcd60e51b81526004016106e69061321c565b505b6000610fc7612376565b905060007f00000000000000000000000000000000000000000000000000000000000000006001600160a01b03166384c4484e846040015187600001516040518363ffffffff1660e01b815260040161102291815260200190565b60006040518083038185885af1158015611040573d6000803e3d6000fd5b50505050506040513d6000823e601f3d908101601f1916820160405261106991908101906132a8565b83516001840180546001600160a01b0319166001600160a01b0390921691821790556040808601519051929350917fe6b8160f723fcdb4c3cb8bf86e99d55e311c607a791f7503cc16dfaff3271e43906110c4908590612f13565b60405180910390a35050505050565b60006110dd612376565b805490915061010090046001600160a01b0316331461110e5760405162461bcd60e51b81526004016106e690613076565b6001600160a01b0382166111705760405162461bcd60e51b815260206004820152602360248201527f4176617461723a20686f6f6b2063616e6e6f74206265207a65726f206164647260448201526265737360e81b60648201526084016106e6565b600061117a612376565b6002810180546001600160a01b0319166001600160a01b038616908117909155604051919250907f4eab7b127c764308788622363ad3e9532de3dfba7845bd4f84c125a22544255a90600090a2505050565b6060816040516020016111df91906132dc565b6040516020818303038152906040529050919050565b600080611200612376565b600101546001600160a01b031692915050565b600061121d612376565b805490915061010090046001600160a01b0316331461124e5760405162461bcd60e51b81526004016106e690613076565b600061125d6020840184612b46565b6001600160a01b0316036112835760405162461bcd60e51b81526004016106e690613303565b60008260200135116112a75760405162461bcd60e51b81526004016106e690613350565b60006112b1612376565b6040516358888ef160e01b815290915073__$c011c5c9201293cae8fa3d59d203092c54$__906358888ef1906112f090600785019087906004016130bf565b60006040518083038186803b15801561130857600080fd5b505af415801561131c573d6000803e3d6000fd5b5061132e925050506020840184612b46565b6001600160a01b03167f60c3791748d09484f5d949c7570a640dad2f40bbebc2571b8f6c0e6a13e96fac84602001356040516107be91815260200190565b60606000611378612376565b6040516372a9762360e11b815260078201600482015290915073__$c011c5c9201293cae8fa3d59d203092c54$__9063e552ec4690602401600060405180830381865af41580156113cd573d6000803e3d6000fd5b505050506040513d6000823e601f3d908101601f191682016040526113f59190810190613397565b91505090565b60606000611407612376565b90508060030180546114189061346c565b80601f01602080910402602001604051908101604052809291908181526020018280546114449061346c565b80156114915780601f1061146657610100808354040283529160200191611491565b820191906000526020600020905b81548152906001019060200180831161147457829003601f168201915b505050505091505090565b604051632405672560e21b81523360048201527f00000000000000000000000000000000000000000000000000000000000000006001600160a01b0316906390159c9490602401602060405180830381865afa158015611500573d6000803e3d6000fd5b505050506040513d601f19601f8201168201806040525081019061152491906130f3565b6115835760405162461bcd60e51b815260206004820152602a60248201527f4176617461723a2063616c6c6572206973206e6f742061207265676973746572604482015269656420636f6d70616e7960b01b60648201526084016106e6565b61158c8161266c565b8051604051630a22d5a160e21b81526000916001600160a01b037f0000000000000000000000000000000000000000000000000000000000000000169163288b5684916115df9160040190815260200190565b608060405180830381865afa1580156115fc573d6000803e3d6000fd5b505050506040513d601f19601f8201168201806040525081019061162091906134a0565b905080604001518260200151146116495760405162461bcd60e51b81526004016106e6906131a7565b60408101511561168757600061165f3447613209565b905081604001518110156116855760405162461bcd60e51b81526004016106e69061321c565b505b6000611691612376565b905060007f00000000000000000000000000000000000000000000000000000000000000006001600160a01b03166384c4484e846040015186600001516040518363ffffffff1660e01b81526004016116ec91815260200190565b60006040518083038185885af115801561170a573d6000803e3d6000fd5b50505050506040513d6000823e601f3d908101601f1916820160405261173391908101906132a8565b83516001840180546001600160a01b0319166001600160a01b0390921691821790556040808601519051929350917fe6b8160f723fcdb4c3cb8bf86e99d55e311c607a791f7503cc16dfaff3271e439061178e908590612f13565b60405180910390a350505050565b6000806117a7612376565b600201546001600160a01b031692915050565b606060006117c6612376565b90508060040180546114189061346c565b6000806117e2612376565b5461010090046001600160a01b031692915050565b6000611801612376565b805490915061010090046001600160a01b031633146118325760405162461bcd60e51b81526004016106e690613076565b600061183c612376565b90506004810161184c848261356c565b508260405161185b919061362b565b604051908190038120907fe8ed633186ac64f9f0ab9b48cb1cca12eebe0f7e0ffdc46908733a060363236690600090a2505050565b60008061189b612376565b604051633661870560e11b815290915073__$c011c5c9201293cae8fa3d59d203092c54$__90636cc30e0a906118da90600785019087906004016130bf565b602060405180830381865af41580156118f7573d6000803e3d6000fd5b505050506040513d601f19601f8201168201806040525081019061191b91906130f3565b9392505050565b600061192c612376565b805490915061010090046001600160a01b0316331461195d5760405162461bcd60e51b81526004016106e690613076565b6000611967612376565b805460ff1916931515939093179092555050565b60008061198b6020840184612b46565b6001600160a01b0316036119b15760405162461bcd60e51b81526004016106e690613303565b60008260200135116119d55760405162461bcd60e51b81526004016106e690613350565b6001600160a01b037f00000000000000000000000000000000000000000000000000000000000000001663adec5618611a116020850185612b46565b6040516001600160e01b031960e084901b1681526001600160a01b039091166004820152602401602060405180830381865afa158015611a55573d6000803e3d6000fd5b505050506040513d601f19601f82011682018060405250810190611a7991906130f3565b611ad35760405162461bcd60e51b815260206004820152602560248201527f4176617461723a207765617261626c65206173736574206e6f742072656769736044820152641d195c995960da1b60648201526084016106e6565b6000611add6111f5565b9050611aec6020840184612b46565b6001600160a01b0316633fa47f176040518060a00160405280866000016020810190611b189190612b46565b6001600160a01b03168152602001846001600160a01b03166330b67baa6040518163ffffffff1660e01b8152600401602060405180830381865afa158015611b64573d6000803e3d6000fd5b505050506040513d601f19601f82011682018060405250810190611b889190613110565b6001600160a01b03168152602001846001600160a01b0316636904c94d6040518163ffffffff1660e01b8152600401602060405180830381865afa158015611bd4573d6000803e3d6000fd5b505050506040513d601f19601f82011682018060405250810190611bf89190613110565b6001600160a01b03908116825285811660208084019190915230604093840152825160e086901b6001600160e01b031916815284518316600482015290840151821660248201529183015181166044830152606083015181166064830152608090920151909116608482015260a401602060405180830381865afa158015611c84573d6000803e3d6000fd5b505050506040513d601f19601f82011682018060405250810190611ca891906130f3565b611d0c5760405162461bcd60e51b815260206004820152602f60248201527f4176617461723a207765617261626c652061737365742063616e6e6f7420626560448201526e103ab9b2b210313c9030bb30ba30b960891b60648201526084016106e6565b6000611d1b6020850185612b46565b6040516331a9108f60e11b81526020860135600482015290915030906001600160a01b03831690636352211e90602401602060405180830381865afa158015611d68573d6000803e3d6000fd5b505050506040513d601f19601f82011682018060405250810190611d8c9190613110565b6001600160a01b031614611df55760405162461bcd60e51b815260206004820152602a60248201527f4176617461723a207765617261626c6520746f6b656e206e6f74206f776e656460448201526910313c9030bb30ba30b960b11b60648201526084016106e6565b5060019392505050565b336001600160a01b037f00000000000000000000000000000000000000000000000000000000000000001614611e475760405162461bcd60e51b81526004016106e69061315c565b6000611e51612376565b805490915061010090046001600160a01b031615611ebd5760405162461bcd60e51b8152602060048201526024808201527f4176617461723a20636f6e747261637420616c726561647920696e697469616c6044820152631a5e995960e21b60648201526084016106e6565b600082806020019051810190611ed39190613647565b90506000845111611f265760405162461bcd60e51b815260206004820181905260248201527f4176617461723a20757365726e616d652063616e6e6f7420626520656d70747960448201526064016106e6565b6001600160a01b038616611f885760405162461bcd60e51b8152602060048201526024808201527f4176617461723a206f776e65722063616e6e6f74206265207a65726f206164646044820152637265737360e01b60648201526084016106e6565b604051630262286360e41b81526001600160a01b0386811660048301527f00000000000000000000000000000000000000000000000000000000000000001690632622863090602401602060405180830381865afa158015611fee573d6000803e3d6000fd5b505050506040513d601f19601f8201168201806040525081019061201291906130f3565b6120845760405162461bcd60e51b815260206004820152603960248201527f4176617461723a2064656661756c7420657870657269656e6365206973206e6f60448201527f742061207265676973746572656420657870657269656e63650000000000000060648201526084016106e6565b60038201612092858261356c565b506001820180546001600160a01b0319166001600160a01b0387161790558051825460ff1916901515178255602081015160048301906120d2908261356c565b505080546001600160a01b0390951661010002610100600160a81b0319909516949094178455505060c8600a9092019190915550565b61211061239a565b600061211a612376565b6040516315bd8ac360e31b81523360048201529091507f00000000000000000000000000000000000000000000000000000000000000006001600160a01b03169063adec561890602401602060405180830381865afa158015612181573d6000803e3d6000fd5b505050506040513d601f19601f820116820180604052508101906121a591906130f3565b61220f5760405162461bcd60e51b815260206004820152603560248201527f4176617461723a206f6e6c79207265676973746572656420617373657473206360448201527430b71031b0b636103a3434b990333ab731ba34b7b760591b60648201526084016106e6565b6040516331a9108f60e11b81526004810183905233908190636352211e90602401602060405180830381865afa925050508015612269575060408051601f3d908101601f1916820190925261226691810190613110565b60015b6122f7576040805180820182526001600160a01b03831681526020810185905290516358888ef160e01b815273__$c011c5c9201293cae8fa3d59d203092c54$__916358888ef1916122c29160078701916004016136b7565b60006040518083038186803b1580156122da57600080fd5b505af41580156122ee573d6000803e3d6000fd5b50505050612352565b60405162461bcd60e51b815260206004820152602a60248201527f4176617461723a2045524337323120746f6b656e207374696c6c206f776e656460448201526910313c9030bb30ba30b960b11b60648201526084016106e6565b505061235e6001600055565b50565b60008061236c612376565b6006015492915050565b7fd38682225e685e93013f8a112db34d1d514857ac4394636132822a0c0fe2045090565b6002600054036123bd57604051633ee5aeb560e01b815260040160405180910390fd5b6002600055565b60408051608081018252600080825260208201819052818301819052606082015282519151630a22d5a160e21b81526004810192909252906001600160a01b037f0000000000000000000000000000000000000000000000000000000000000000169063288b568490602401608060405180830381865afa15801561244d573d6000803e3d6000fd5b505050506040513d601f19601f8201168201806040525081019061247191906134a0565b9050600081600001516001600160a01b0316636904c94d6040518163ffffffff1660e01b8152600401602060405180830381865afa1580156124b7573d6000803e3d6000fd5b505050506040513d601f19601f820116820180604052508101906124db9190613110565b905060006124e7612376565b6001600160a01b03831660009081526005820160205260408120805492935090612510836136de565b9091555084516020808701516040805192830193909352918101919091526060810182905260009060800160408051808303601f19018152828252805160209182012081845283830190925290925060009190602082018180368337019050509050816020820152600061258382612787565b90506000612595828a604001516127c2565b604051637df73e2760e01b81526001600160a01b03808316600483015291925090881690637df73e2790602401602060405180830381865afa1580156125df573d6000803e3d6000fd5b505050506040513d601f19601f8201168201806040525081019061260391906130f3565b6126605760405162461bcd60e51b815260206004820152602860248201527f4176617461723a20636f6d70616e79207369676e6572206973206e6f742061756044820152671d1a1bdc9a5e995960c21b60648201526084016106e6565b50505050505050919050565b6000612676612376565b600681018054919250600061268a836136de565b9091555082516020808501516040805192830193909352918101919091526060810182905260009060800160408051808303601f1901815282825280516020918201208184528383019092529092506000919060208201818036833701905050905081602082015260006126fd82612787565b9050600061270f8288604001516127c2565b86549091506001600160a01b03808316610100909204161461277e5760405162461bcd60e51b815260206004820152602260248201527f4176617461723a20617661746172207369676e6572206973206e6f74206f776e60448201526132b960f11b60648201526084016106e6565b50505050505050565b600061279382516127ee565b826040516020016127a59291906136f7565b604051602081830303815290604052805190602001209050919050565b6000806000806127d28686612880565b9250925092506127e282826128cd565b50909150505b92915050565b606060006127fb8361298a565b60010190506000816001600160401b0381111561281a5761281a612c8f565b6040519080825280601f01601f191660200182016040528015612844576020820181803683370190505b5090508181016020015b600019016f181899199a1a9b1b9c1cb0b131b232b360811b600a86061a8153600a850494508461284e57509392505050565b600080600083516041036128ba5760208401516040850151606086015160001a6128ac88828585612a62565b9550955095505050506128c6565b50508151600091506002905b9250925092565b60008260038111156128e1576128e1613752565b036128ea575050565b60018260038111156128fe576128fe613752565b0361291c5760405163f645eedf60e01b815260040160405180910390fd5b600282600381111561293057612930613752565b036129515760405163fce698f760e01b8152600481018290526024016106e6565b600382600381111561296557612965613752565b03612986576040516335e2f38360e21b8152600481018290526024016106e6565b5050565b60008072184f03e93ff9f4daa797ed6e38ed64bf6a1f0160401b83106129c95772184f03e93ff9f4daa797ed6e38ed64bf6a1f0160401b830492506040015b6d04ee2d6d415b85acef810000000083106129f5576d04ee2d6d415b85acef8100000000830492506020015b662386f26fc100008310612a1357662386f26fc10000830492506010015b6305f5e1008310612a2b576305f5e100830492506008015b6127108310612a3f57612710830492506004015b60648310612a51576064830492506002015b600a83106127e85760010192915050565b600080807f7fffffffffffffffffffffffffffffff5d576e7357a4501ddfe92f46681b20a0841115612a9d5750600091506003905082612b27565b604080516000808252602082018084528a905260ff891692820192909252606081018790526080810186905260019060a0016020604051602081039080840390855afa158015612af1573d6000803e3d6000fd5b5050604051601f1901519150506001600160a01b038116612b1d57506000925060019150829050612b27565b9250600091508190505b9450945094915050565b6001600160a01b038116811461235e57600080fd5b600060208284031215612b5857600080fd5b813561191b81612b31565b600060408284031215612b7557600080fd5b50919050565b60008083601f840112612b8d57600080fd5b5081356001600160401b03811115612ba457600080fd5b602083019150836020828501011115612bbc57600080fd5b9250929050565b600080600080600060808688031215612bdb57600080fd5b8535612be681612b31565b94506020860135612bf681612b31565b93506040860135925060608601356001600160401b03811115612c1857600080fd5b612c2488828901612b7b565b969995985093965092949392505050565b60008060208385031215612c4857600080fd5b82356001600160401b03811115612c5e57600080fd5b612c6a85828601612b7b565b90969095509350505050565b600060208284031215612c8857600080fd5b5035919050565b634e487b7160e01b600052604160045260246000fd5b604080519081016001600160401b0381118282101715612cc757612cc7612c8f565b60405290565b604051601f8201601f191681016001600160401b0381118282101715612cf557612cf5612c8f565b604052919050565b60006001600160401b03821115612d1657612d16612c8f565b50601f01601f191660200190565b6000612d37612d3284612cfd565b612ccd565b9050828152838383011115612d4b57600080fd5b828260208301376000602084830101529392505050565b600082601f830112612d7357600080fd5b61191b83833560208501612d24565b600060608284031215612d9457600080fd5b604051606081016001600160401b038282108183111715612db757612db7612c8f565b8160405282935084358352602085013560208401526040850135915080821115612de057600080fd5b50612ded85828601612d62565b6040830152505092915050565b600060208284031215612e0c57600080fd5b81356001600160401b03811115612e2257600080fd5b612e2e84828501612d82565b949350505050565b801515811461235e57600080fd5b600060208284031215612e5657600080fd5b81356001600160401b0380821115612e6d57600080fd5b9083019060408286031215612e8157600080fd5b612e89612ca5565b8235612e9481612e36565b8152602083013582811115612ea857600080fd5b612eb487828601612d62565b60208301525095945050505050565b60005b83811015612ede578181015183820152602001612ec6565b50506000910152565b60008151808452612eff816020860160208601612ec3565b601f01601f19169290920160200192915050565b60208152600061191b6020830184612ee7565b602080825282518282018190526000919060409081850190868401855b82811015612f7957612f6984835180516001600160a01b03168252602090810151910152565b9284019290850190600101612f43565b5091979650505050505050565b600060208284031215612f9857600080fd5b81356001600160401b03811115612fae57600080fd5b612e2e84828501612d62565b600060208284031215612fcc57600080fd5b813561191b81612e36565b60008060008060808587031215612fed57600080fd5b8435612ff881612b31565b9350602085013561300881612b31565b925060408501356001600160401b038082111561302457600080fd5b818701915087601f83011261303857600080fd5b61304788833560208501612d24565b9350606087013591508082111561305d57600080fd5b5061306a87828801612d62565b91505092959194509250565b60208082526029908201527f4176617461723a206f6e6c79206f776e65722063616e2063616c6c207468697360408201526810333ab731ba34b7b760b91b606082015260800190565b8281526060810182356130d181612b31565b6001600160a01b03166020838101919091529290920135604090910152919050565b60006020828403121561310557600080fd5b815161191b81612e36565b60006020828403121561312257600080fd5b815161191b81612b31565b60208152816020820152818360408301376000818301604090810191909152601f909201601f19160101919050565b6020808252602b908201527f4176617461723a206f6e6c7920666163746f72792063616e2063616c6c20746860408201526a34b990333ab731ba34b7b760a91b606082015260800190565b6020808252602c908201527f4176617461723a206167726565642066656520646f6573206e6f74206d61746360408201526b6820706f7274616c2066656560a01b606082015260800190565b634e487b7160e01b600052601160045260246000fd5b808201808211156127e8576127e86131f3565b60208082526027908201527f4176617461723a20696e73756666696369656e742066756e647320666f72206a604082015266756d702066656560c81b606082015260800190565b600082601f83011261327457600080fd5b8151613282612d3282612cfd565b81815284602083860101111561329757600080fd5b612e2e826020830160208701612ec3565b6000602082840312156132ba57600080fd5b81516001600160401b038111156132d057600080fd5b612e2e84828501613263565b6020815281511515602082015260006020830151604080840152612e2e6060840182612ee7565b6020808252602d908201527f4176617461723a207765617261626c652061737365742063616e6e6f7420626560408201526c207a65726f206164647265737360981b606082015260800190565b60208082526027908201527f4176617461723a207765617261626c6520746f6b656e49642063616e6e6f74206040820152666265207a65726f60c81b606082015260800190565b600060208083850312156133aa57600080fd5b82516001600160401b03808211156133c157600080fd5b818501915085601f8301126133d557600080fd5b8151818111156133e7576133e7612c8f565b6133f5848260051b01612ccd565b818152848101925060069190911b83018401908782111561341557600080fd5b928401925b8184101561346157604084890312156134335760008081fd5b61343b612ca5565b845161344681612b31565b8152848601518682015283526040909301929184019161341a565b979650505050505050565b600181811c9082168061348057607f821691505b602082108103612b7557634e487b7160e01b600052602260045260246000fd5b6000608082840312156134b257600080fd5b604051608081018181106001600160401b03821117156134d4576134d4612c8f565b60405282516134e281612b31565b815260208301516134f281612b31565b602082015260408381015190820152606083015161350f81612e36565b60608201529392505050565b601f821115613567576000816000526020600020601f850160051c810160208610156135445750805b601f850160051c820191505b8181101561356357828155600101613550565b5050505b505050565b81516001600160401b0381111561358557613585612c8f565b61359981613593845461346c565b8461351b565b602080601f8311600181146135ce57600084156135b65750858301515b600019600386901b1c1916600185901b178555613563565b600085815260208120601f198616915b828110156135fd578886015182559484019460019091019084016135de565b508582101561361b5787850151600019600388901b60f8161c191681555b5050505050600190811b01905550565b6000825161363d818460208701612ec3565b9190910192915050565b60006020828403121561365957600080fd5b81516001600160401b038082111561367057600080fd5b908301906040828603121561368457600080fd5b61368c612ca5565b825161369781612e36565b81526020830151828111156136ab57600080fd5b612eb487828601613263565b8281526060810161191b602083018480516001600160a01b03168252602090810151910152565b6000600182016136f0576136f06131f3565b5060010190565b7f19457468657265756d205369676e6564204d6573736167653a0a00000000000081526000835161372f81601a850160208801612ec3565b83519083019061374681601a840160208801612ec3565b01601a01949350505050565b634e487b7160e01b600052602160045260246000fdfea26469706673582212208c36ea04c8b92a11f70095eea35ece420b216b2948d7679a181c60245d12f24d64736f6c63430008180033",
  "linkReferences": {
    "contracts/libraries/LibLinkedList.sol": {
      "LibLinkedList": [
        {
          "length": 20,
          "start": 3034
        },
        {
          "length": 20,
          "start": 6024
        },
        {
          "length": 20,
          "start": 6232
        },
        {
          "length": 20,
          "start": 7538
        },
        {
          "length": 20,
          "start": 10076
        }
      ]
    }
  },
  "deployedLinkReferences": {
    "contracts/libraries/LibLinkedList.sol": {
      "LibLinkedList": [
        {
          "length": 20,
          "start": 1813
        },
        {
          "length": 20,
          "start": 4803
        },
        {
          "length": 20,
          "start": 5011
        },
        {
          "length": 20,
          "start": 6317
        },
        {
          "length": 20,
          "start": 8855
        }
      ]
    }
  }
}