{
  "_format": "hh-sol-artifact-1",
  "contractName": "ChangeWorldRegistrarExt",
  "sourceName": "contracts/extensions/registry/world/ChangeWorldRegistrarExt.sol",
  "abi": [
    {
      "anonymous": false,
      "inputs": [
        {
          "indexed": true,
          "internalType": "address",
          "name": "entity",
          "type": "address"
        },
        {
          "indexed": true,
          "internalType": "address",
          "name": "newController",
          "type": "address"
        }
      ],
      "name": "ControllerChanged",
      "type": "event"
    },
    {
      "inputs": [
        {
          "components": [
            {
              "internalType": "address",
              "name": "entity",
              "type": "address"
            },
            {
              "internalType": "bytes",
              "name": "oldControllerSignature",
              "type": "bytes"
            },
            {
              "internalType": "bytes",
              "name": "entitySignature",
              "type": "bytes"
            },
            {
              "internalType": "uint256",
              "name": "expiration",
              "type": "uint256"
            },
            {
              "components": [
                {
                  "internalType": "uint16",
                  "name": "coveragePeriodDays",
                  "type": "uint16"
                },
                {
                  "internalType": "uint16",
                  "name": "gracePeriodDays",
                  "type": "uint16"
                },
                {
                  "internalType": "uint256",
                  "name": "fee",
                  "type": "uint256"
                }
              ],
              "internalType": "struct RegistrationTerms",
              "name": "newTerms",
              "type": "tuple"
            }
          ],
          "internalType": "struct ChangeControllerArgs",
          "name": "args",
          "type": "tuple"
        }
      ],
      "name": "changeController",
      "outputs": [],
      "stateMutability": "nonpayable",
      "type": "function"
    },
    {
      "inputs": [
        {
          "components": [
            {
              "internalType": "address",
              "name": "owner",
              "type": "address"
            },
            {
              "internalType": "address",
              "name": "owningRegistry",
              "type": "address"
            },
            {
              "internalType": "address[]",
              "name": "admins",
              "type": "address[]"
            }
          ],
          "internalType": "struct ExtensionInitArgs",
          "name": "args",
          "type": "tuple"
        }
      ],
      "name": "initStorage",
      "outputs": [],
      "stateMutability": "nonpayable",
      "type": "function"
    },
    {
      "inputs": [
        {
          "internalType": "address",
          "name": "myAddress",
          "type": "address"
        }
      ],
      "name": "install",
      "outputs": [],
      "stateMutability": "nonpayable",
      "type": "function"
    },
    {
      "inputs": [],
      "name": "metadata",
      "outputs": [
        {
          "components": [
            {
              "internalType": "string",
              "name": "name",
              "type": "string"
            },
            {
              "components": [
                {
                  "internalType": "uint16",
                  "name": "major",
                  "type": "uint16"
                },
                {
                  "internalType": "uint16",
                  "name": "minor",
                  "type": "uint16"
                }
              ],
              "internalType": "struct Version",
              "name": "version",
              "type": "tuple"
            }
          ],
          "internalType": "struct ExtensionMetadata",
          "name": "",
          "type": "tuple"
        }
      ],
      "stateMutability": "pure",
      "type": "function"
    },
    {
      "inputs": [
        {
          "internalType": "address",
          "name": "myAddress",
          "type": "address"
        }
      ],
      "name": "upgrade",
      "outputs": [],
      "stateMutability": "nonpayable",
      "type": "function"
    }
  ],
  "bytecode": "0x608060405234801561001057600080fd5b50610974806100206000396000f3fe608060405234801561001057600080fd5b50600436106100575760003560e01c80630900f0101461005c578063108befd71461006f5780632a1b8f9b14610082578063392f37e914610095578063729963c0146100b3575b600080fd5b61006d61006a3660046105bf565b50565b005b61006d61007d3660046105e3565b6100c1565b61006d6100903660046105bf565b610425565b61009d610516565b6040516100aa9190610664565b60405180910390f35b61006d61006a3660046106a9565b6100ce60208201826105bf565b306001600160a01b031663dbdc4e626040518163ffffffff1660e01b8152600401602060405180830381865afa15801561010c573d6000803e3d6000fd5b505050506040513d601f19601f8201168201806040525081019061013091906106e4565b60405163c3c5a54760e01b81523360048201526001600160a01b03919091169063c3c5a54790602401602060405180830381865afa158015610176573d6000803e3d6000fd5b505050506040513d601f19601f8201168201806040525081019061019a9190610701565b6102115760405162461bcd60e51b815260206004820152603a60248201527f576f726c64526567697374726174696f6e4578743a2063616c6c65722069732060448201527f6e6f74206120726567697374657265642072656769737472617200000000000060648201526084015b60405180910390fd5b336001600160a01b0316634f05c1c86040518163ffffffff1660e01b8152600401602060405180830381865afa15801561024f573d6000803e3d6000fd5b505050506040513d601f19601f820116820180604052508101906102739190610701565b6102d25760405162461bcd60e51b815260206004820152602a60248201527f576f726c64526567697374726174696f6e3a20726567697374726172206973206044820152696e6f742061637469766560b01b6064820152608401610208565b336001600160a01b0316816001600160a01b03166369bd91946040518163ffffffff1660e01b8152600401602060405180830381865afa15801561031a573d6000803e3d6000fd5b505050506040513d601f19601f8201168201806040525081019061033e91906106e4565b6001600160a01b0316146103ba5760405162461bcd60e51b815260206004820152603c60248201527f576f726c64526567697374726174696f6e4578743a2063616c6c65722069732060448201527f6e6f742074686520656e746974792773207465726d73206f776e6572000000006064820152608401610208565b6040516378ca786760e11b815273__$27b8e26f831efe7bc5dc2a7af8442302e2$__9063f194f0ce906103f19085906004016107b0565b60006040518083038186803b15801561040957600080fd5b505af415801561041d573d6000803e3d6000fd5b505050505050565b604080516001808252818301909252600091816020015b60408051808201909152600081526060602082015281526020019060019003908161043c579050509050604051806040016040528063108befd760e01b6001600160e01b031916815260200160405180606001604052806026815260200161091960269139815250816000815181106104b7576104b7610868565b602002602001018190525073__$307c3a572bdf5d9800a89b3fc2eb3d5604$__63964d13f06040518060400160405280856001600160a01b03168152602001848152506040518263ffffffff1660e01b81526004016103f1919061087e565b61051e61056e565b506040805160808101825260128183019081527110da185b99d9549959da5cdd1c985c915e1d60721b60608301528152815180830190925260018252600060208381019190915281019190915290565b6040518060400160405280606081526020016105a56040518060400160405280600061ffff168152602001600061ffff1681525090565b905290565b6001600160a01b038116811461006a57600080fd5b6000602082840312156105d157600080fd5b81356105dc816105aa565b9392505050565b6000602082840312156105f557600080fd5b813567ffffffffffffffff81111561060c57600080fd5b820160e081850312156105dc57600080fd5b6000815180845260005b8181101561064457602081850181015186830182015201610628565b506000602082860101526020601f19601f83011685010191505092915050565b602081526000825160606020840152610680608084018261061e565b602094850151805161ffff90811660408701529501519094166060909301929092525090919050565b6000602082840312156106bb57600080fd5b813567ffffffffffffffff8111156106d257600080fd5b8201606081850312156105dc57600080fd5b6000602082840312156106f657600080fd5b81516105dc816105aa565b60006020828403121561071357600080fd5b815180151581146105dc57600080fd5b6000808335601e1984360301811261073a57600080fd5b830160208101925035905067ffffffffffffffff81111561075a57600080fd5b80360382131561076957600080fd5b9250929050565b81835281816020850137506000828201602090810191909152601f909101601f19169091010190565b803561ffff811681146107ab57600080fd5b919050565b60208152600082356107c1816105aa565b6001600160a01b03166020838101919091526107df90840184610723565b60e060408501526107f561010085018284610770565b9150506108056040850185610723565b848303601f1901606086015261081c838284610770565b925050506060840135608084015261ffff8061083a60808701610799565b1660a08501528061084d60a08701610799565b1660c08501525060c084013560e08401528091505092915050565b634e487b7160e01b600052603260045260246000fd5b602080825282516001600160a01b031682820152828101516040808401819052815160608501819052600093926080600583901b87018101939185019290870190865b8181101561090a57888603607f19018352845180516001600160e01b03191687528701518787018590526108f78588018261061e565b96505093860193918601916001016108c1565b50939897505050505050505056fe6368616e6765436f6e74726f6c6c6572284368616e6765436f6e74726f6c6c65724172677329a264697066735822122097dbfd1c14154c96e9148d594e577acd05f4bc38b01afa1a5b30e6b0721dd96664736f6c63430008180033",
  "linkReferences": {
    "contracts/libraries/LibControlChange.sol": {
      "LibControlChange": [
        {
          "length": 20,
          "start": 1001
        }
      ]
    },
    "contracts/libraries/LibExtensions.sol": {
      "LibExtensions": [
        {
          "length": 20,
          "start": 1252
        }
      ]
    }
  },
  "deployedLinkReferences": {
    "contracts/libraries/LibControlChange.sol": {
      "LibControlChange": [
        {
          "length": 20,
          "start": 969
        }
      ]
    },
    "contracts/libraries/LibExtensions.sol": {
      "LibExtensions": [
        {
          "length": 20,
          "start": 1220
        }
      ]
    }
  }
}