{
  "_format": "hh-sol-artifact-1",
  "contractName": "ChangeWorldRegistrarExt",
  "sourceName": "contracts/extensions/registry/world/ChangeWorldRegistrarExt.sol",
  "abi": [
    {
      "inputs": [
        {
          "internalType": "uint256",
          "name": "value",
          "type": "uint256"
        },
        {
          "internalType": "uint256",
          "name": "length",
          "type": "uint256"
        }
      ],
      "name": "StringsInsufficientHexLength",
      "type": "error"
    },
    {
      "anonymous": false,
      "inputs": [
        {
          "indexed": true,
          "internalType": "address",
          "name": "entity",
          "type": "address"
        },
        {
          "indexed": true,
          "internalType": "address",
          "name": "newController",
          "type": "address"
        }
      ],
      "name": "ControllerChanged",
      "type": "event"
    },
    {
      "inputs": [
        {
          "components": [
            {
              "internalType": "address",
              "name": "entity",
              "type": "address"
            },
            {
              "internalType": "bytes",
              "name": "oldControllerSignature",
              "type": "bytes"
            },
            {
              "internalType": "bytes",
              "name": "entitySignature",
              "type": "bytes"
            },
            {
              "internalType": "uint256",
              "name": "expiration",
              "type": "uint256"
            },
            {
              "components": [
                {
                  "internalType": "uint16",
                  "name": "coveragePeriodDays",
                  "type": "uint16"
                },
                {
                  "internalType": "uint16",
                  "name": "gracePeriodDays",
                  "type": "uint16"
                },
                {
                  "internalType": "uint256",
                  "name": "fee",
                  "type": "uint256"
                }
              ],
              "internalType": "struct RegistrationTerms",
              "name": "newTerms",
              "type": "tuple"
            }
          ],
          "internalType": "struct ChangeControllerArgs",
          "name": "args",
          "type": "tuple"
        }
      ],
      "name": "changeController",
      "outputs": [],
      "stateMutability": "nonpayable",
      "type": "function"
    },
    {
      "inputs": [
        {
          "components": [
            {
              "internalType": "address",
              "name": "owner",
              "type": "address"
            },
            {
              "internalType": "address",
              "name": "owningRegistry",
              "type": "address"
            },
            {
              "internalType": "address[]",
              "name": "admins",
              "type": "address[]"
            }
          ],
          "internalType": "struct ExtensionInitArgs",
          "name": "args",
          "type": "tuple"
        }
      ],
      "name": "initStorage",
      "outputs": [],
      "stateMutability": "nonpayable",
      "type": "function"
    },
    {
      "inputs": [
        {
          "internalType": "address",
          "name": "myAddress",
          "type": "address"
        }
      ],
      "name": "install",
      "outputs": [],
      "stateMutability": "nonpayable",
      "type": "function"
    },
    {
      "inputs": [],
      "name": "metadata",
      "outputs": [
        {
          "components": [
            {
              "internalType": "string",
              "name": "name",
              "type": "string"
            },
            {
              "components": [
                {
                  "internalType": "uint16",
                  "name": "major",
                  "type": "uint16"
                },
                {
                  "internalType": "uint16",
                  "name": "minor",
                  "type": "uint16"
                }
              ],
              "internalType": "struct Version",
              "name": "version",
              "type": "tuple"
            }
          ],
          "internalType": "struct ExtensionMetadata",
          "name": "",
          "type": "tuple"
        }
      ],
      "stateMutability": "pure",
      "type": "function"
    },
    {
      "inputs": [
        {
          "internalType": "address",
          "name": "myAddress",
          "type": "address"
        }
      ],
      "name": "upgrade",
      "outputs": [],
      "stateMutability": "nonpayable",
      "type": "function"
    }
  ],
  "bytecode": "0x608060405234801561001057600080fd5b50610eb8806100206000396000f3fe608060405234801561001057600080fd5b50600436106100575760003560e01c80630900f0101461005c578063108befd71461006f5780632a1b8f9b14610082578063392f37e914610095578063729963c0146100b3575b600080fd5b61006d61006a36600461098a565b50565b005b61006d61007d3660046109ae565b6100c1565b61006d61009036600461098a565b610425565b61009d6104ec565b6040516100aa9190610a39565b60405180910390f35b61006d61006a366004610a7e565b6100ce602082018261098a565b306001600160a01b031663dbdc4e626040518163ffffffff1660e01b8152600401602060405180830381865afa15801561010c573d6000803e3d6000fd5b505050506040513d601f19601f820116820180604052508101906101309190610ab9565b60405163c3c5a54760e01b81523360048201526001600160a01b03919091169063c3c5a54790602401602060405180830381865afa158015610176573d6000803e3d6000fd5b505050506040513d601f19601f8201168201806040525081019061019a9190610ad6565b6102115760405162461bcd60e51b815260206004820152603a60248201527f576f726c64526567697374726174696f6e4578743a2063616c6c65722069732060448201527f6e6f74206120726567697374657265642072656769737472617200000000000060648201526084015b60405180910390fd5b336001600160a01b0316634f05c1c86040518163ffffffff1660e01b8152600401602060405180830381865afa15801561024f573d6000803e3d6000fd5b505050506040513d601f19601f820116820180604052508101906102739190610ad6565b6102d25760405162461bcd60e51b815260206004820152602a60248201527f576f726c64526567697374726174696f6e3a20726567697374726172206973206044820152696e6f742061637469766560b01b6064820152608401610208565b336001600160a01b0316816001600160a01b03166369bd91946040518163ffffffff1660e01b8152600401602060405180830381865afa15801561031a573d6000803e3d6000fd5b505050506040513d601f19601f8201168201806040525081019061033e9190610ab9565b6001600160a01b0316146103ba5760405162461bcd60e51b815260206004820152603c60248201527f576f726c64526567697374726174696f6e4578743a2063616c6c65722069732060448201527f6e6f742074686520656e746974792773207465726d73206f776e6572000000006064820152608401610208565b6040516378ca786760e11b815273__$27b8e26f831efe7bc5dc2a7af8442302e2$__9063f194f0ce906103f1908590600401610b85565b60006040518083038186803b15801561040957600080fd5b505af415801561041d573d6000803e3d6000fd5b505050505050565b604080516001808252818301909252600091816020015b60408051808201909152600081526060602082015281526020019060019003908161043c579050509050604051806040016040528063108befd760e01b6001600160e01b0319168152602001604051806060016040528060268152602001610e5d60269139815250816000815181106104b7576104b7610c53565b60200260200101819052506104e86040518060400160405280846001600160a01b0316815260200183815250610544565b5050565b6104f4610939565b506040805160808101825260128183019081527110da185b99d9549959da5cdd1c985c915e1d60721b60608301528152815180830190925260018252600060208381019190915281019190915290565b600061054e610707565b82516001600160a01b031660009081526020829052604081209192505b8360200151518110156107015760008460200151828151811061059057610590610c53565b6020908102919091018101518051600486810180546001808201835560009283528683206008830401805463ffffffff600790941690950261010090810a9384021990951660e09690961c9290920294909417905583516001600160e01b0319168152918801909352604090208054919350916001600160a01b039104161561068957805461010090046001600160a01b03166000908152602086905260408120875190919060018701906106449061079d565b60208087015160405161065e949392600188019101610d06565b60405160208183030381529060405290508060405162461bcd60e51b81526004016102089190610ddf565b50604080518082018252600180825287516001600160a01b03908116602080850191825295516001600160e01b0319166000908152898401909652939094209151825493516001600160a81b0319909416901515610100600160a81b031916176101009390941692909202929092179091550161056b565b50505050565b60408051808201909152601881527f78722e657874656e73696f6e732e73746f726167652e7631000000000000000060209091015260008060ff61076c60017fb58ec9ca7ba0606d9fecd9f559655d0e5fec418e6751b65b892bccdfd25eb99f610e08565b60405160200161077e91815260200190565b60408051601f1981840301815291905280516020909101201692915050565b60606107b36001600160a01b03831660146107b9565b92915050565b60608260006107c9846002610e1b565b6107d4906002610e32565b67ffffffffffffffff8111156107ec576107ec610c3d565b6040519080825280601f01601f191660200182016040528015610816576020820181803683370190505b509050600360fc1b8160008151811061083157610831610c53565b60200101906001600160f81b031916908160001a905350600f60fb1b8160018151811061086057610860610c53565b60200101906001600160f81b031916908160001a9053506000610884856002610e1b565b61088f906001610e32565b90505b6001811115610907576f181899199a1a9b1b9c1cb0b131b232b360811b83600f16601081106108c3576108c3610c53565b1a60f81b8282815181106108d9576108d9610c53565b60200101906001600160f81b031916908160001a90535060049290921c9161090081610e45565b9050610892565b5081156109315760405163e22e27eb60e01b81526004810186905260248101859052604401610208565b949350505050565b6040518060400160405280606081526020016109706040518060400160405280600061ffff168152602001600061ffff1681525090565b905290565b6001600160a01b038116811461006a57600080fd5b60006020828403121561099c57600080fd5b81356109a781610975565b9392505050565b6000602082840312156109c057600080fd5b813567ffffffffffffffff8111156109d757600080fd5b820160e081850312156109a757600080fd5b60005b83811015610a045781810151838201526020016109ec565b50506000910152565b60008151808452610a258160208601602086016109e9565b601f01601f19169290920160200192915050565b602081526000825160606020840152610a556080840182610a0d565b602094850151805161ffff90811660408701529501519094166060909301929092525090919050565b600060208284031215610a9057600080fd5b813567ffffffffffffffff811115610aa757600080fd5b8201606081850312156109a757600080fd5b600060208284031215610acb57600080fd5b81516109a781610975565b600060208284031215610ae857600080fd5b815180151581146109a757600080fd5b6000808335601e19843603018112610b0f57600080fd5b830160208101925035905067ffffffffffffffff811115610b2f57600080fd5b803603821315610b3e57600080fd5b9250929050565b81835281816020850137506000828201602090810191909152601f909101601f19169091010190565b803561ffff81168114610b8057600080fd5b919050565b6020815260008235610b9681610975565b6001600160a01b0316602083810191909152610bb490840184610af8565b60e06040850152610bca61010085018284610b45565b915050610bda6040850185610af8565b848303601f19016060860152610bf1838284610b45565b925050506060840135608084015261ffff80610c0f60808701610b6e565b1660a085015280610c2260a08701610b6e565b1660c08501525060c084013560e08401528091505092915050565b634e487b7160e01b600052604160045260246000fd5b634e487b7160e01b600052603260045260246000fd5b8054600090600181811c9080831680610c8357607f831692505b60208084108203610ca457634e487b7160e01b600052602260045260246000fd5b818015610cb85760018114610ccd57610cfa565b60ff1986168952841515850289019650610cfa565b60008881526020902060005b86811015610cf25781548b820152908501908301610cd9565b505084890196505b50505050505092915050565b7f4c6962457874656e73696f6e3a20657874656e73696f6e20000000000000000081526000610d386018830187610c69565b6c01030ba1030b2323932b9b99d1609d1b81528551610d5e81600d840160208a016109e9565b7f20617474656d7074696e6720746f20726575736520612073656c6563746f7200600d92909101918201528451610d9c81602c8401602089016109e9565b7f20616c7265616479207265676973746572656420627920000000000000000000602c9290910191820152610dd46043820185610c69565b979650505050505050565b6020815260006109a76020830184610a0d565b634e487b7160e01b600052601160045260246000fd5b818103818111156107b3576107b3610df2565b80820281158282048414176107b3576107b3610df2565b808201808211156107b3576107b3610df2565b600081610e5457610e54610df2565b50600019019056fe6368616e6765436f6e74726f6c6c6572284368616e6765436f6e74726f6c6c65724172677329a2646970667358221220a65bfe1e2801acff281e91cf10a6114d45af3f0730e44e9e15f1720c584ed2b964736f6c63430008180033",
  "linkReferences": {
    "contracts/libraries/LibControlChange.sol": {
      "LibControlChange": [
        {
          "length": 20,
          "start": 1001
        }
      ]
    }
  },
  "deployedLinkReferences": {
    "contracts/libraries/LibControlChange.sol": {
      "LibControlChange": [
        {
          "length": 20,
          "start": 969
        }
      ]
    }
  }
}