{
  "_format": "hh-sol-artifact-1",
  "contractName": "CompanyRegistry",
  "sourceName": "contracts/company/registry/CompanyRegistry.sol",
  "abi": [
    {
      "inputs": [
        {
          "components": [
            {
              "internalType": "address",
              "name": "worldRegistry",
              "type": "address"
            }
          ],
          "internalType": "struct CompanyRegistryConstructorArgs",
          "name": "args",
          "type": "tuple"
        }
      ],
      "stateMutability": "nonpayable",
      "type": "constructor"
    },
    {
      "anonymous": false,
      "inputs": [
        {
          "indexed": true,
          "internalType": "address",
          "name": "entity",
          "type": "address"
        },
        {
          "indexed": true,
          "internalType": "address",
          "name": "by",
          "type": "address"
        }
      ],
      "name": "EntityRegistrationRenewed",
      "type": "event"
    },
    {
      "anonymous": false,
      "inputs": [
        {
          "indexed": true,
          "internalType": "address",
          "name": "world",
          "type": "address"
        },
        {
          "indexed": false,
          "internalType": "string",
          "name": "reason",
          "type": "string"
        }
      ],
      "name": "RegistrarDeactivatedWorld",
      "type": "event"
    },
    {
      "anonymous": false,
      "inputs": [
        {
          "indexed": true,
          "internalType": "address",
          "name": "world",
          "type": "address"
        }
      ],
      "name": "RegistrarReactivatedWorld",
      "type": "event"
    },
    {
      "anonymous": false,
      "inputs": [
        {
          "indexed": true,
          "internalType": "address",
          "name": "world",
          "type": "address"
        },
        {
          "indexed": false,
          "internalType": "string",
          "name": "reason",
          "type": "string"
        }
      ],
      "name": "RegistrarRemovedWorld",
      "type": "event"
    },
    {
      "anonymous": false,
      "inputs": [
        {
          "indexed": true,
          "internalType": "address",
          "name": "entity",
          "type": "address"
        },
        {
          "indexed": true,
          "internalType": "address",
          "name": "owner",
          "type": "address"
        }
      ],
      "name": "RegistryAddedEntity",
      "type": "event"
    },
    {
      "anonymous": false,
      "inputs": [
        {
          "indexed": true,
          "internalType": "address",
          "name": "entity",
          "type": "address"
        },
        {
          "indexed": false,
          "internalType": "string",
          "name": "reason",
          "type": "string"
        }
      ],
      "name": "RegistryDeactivatedEntity",
      "type": "event"
    },
    {
      "anonymous": false,
      "inputs": [
        {
          "indexed": true,
          "internalType": "address",
          "name": "entity",
          "type": "address"
        }
      ],
      "name": "RegistryEnforcedDeactivation",
      "type": "event"
    },
    {
      "anonymous": false,
      "inputs": [
        {
          "indexed": true,
          "internalType": "address",
          "name": "entity",
          "type": "address"
        }
      ],
      "name": "RegistryEnforcedRemoval",
      "type": "event"
    },
    {
      "anonymous": false,
      "inputs": [
        {
          "indexed": true,
          "internalType": "address",
          "name": "entity",
          "type": "address"
        }
      ],
      "name": "RegistryReactivatedEntity",
      "type": "event"
    },
    {
      "anonymous": false,
      "inputs": [
        {
          "indexed": true,
          "internalType": "address",
          "name": "entity",
          "type": "address"
        },
        {
          "indexed": false,
          "internalType": "string",
          "name": "reason",
          "type": "string"
        }
      ],
      "name": "RegistryRemovedEntity",
      "type": "event"
    },
    {
      "inputs": [
        {
          "internalType": "address[]",
          "name": "signers",
          "type": "address[]"
        }
      ],
      "name": "addSigners",
      "outputs": [],
      "stateMutability": "nonpayable",
      "type": "function"
    },
    {
      "inputs": [
        {
          "internalType": "address",
          "name": "addr",
          "type": "address"
        }
      ],
      "name": "canBeDeactivated",
      "outputs": [
        {
          "internalType": "bool",
          "name": "",
          "type": "bool"
        }
      ],
      "stateMutability": "view",
      "type": "function"
    },
    {
      "inputs": [
        {
          "internalType": "address",
          "name": "addr",
          "type": "address"
        }
      ],
      "name": "canBeRemoved",
      "outputs": [
        {
          "internalType": "bool",
          "name": "",
          "type": "bool"
        }
      ],
      "stateMutability": "view",
      "type": "function"
    },
    {
      "inputs": [
        {
          "components": [
            {
              "internalType": "address",
              "name": "entity",
              "type": "address"
            },
            {
              "internalType": "bytes",
              "name": "entitySignature",
              "type": "bytes"
            },
            {
              "internalType": "uint256",
              "name": "expiration",
              "type": "uint256"
            },
            {
              "components": [
                {
                  "internalType": "uint16",
                  "name": "coveragePeriodDays",
                  "type": "uint16"
                },
                {
                  "internalType": "uint16",
                  "name": "gracePeriodDays",
                  "type": "uint16"
                },
                {
                  "internalType": "uint256",
                  "name": "fee",
                  "type": "uint256"
                }
              ],
              "internalType": "struct RegistrationTerms",
              "name": "terms",
              "type": "tuple"
            }
          ],
          "internalType": "struct ChangeEntityTermsArgs",
          "name": "args",
          "type": "tuple"
        }
      ],
      "name": "changeEntityTerms",
      "outputs": [],
      "stateMutability": "nonpayable",
      "type": "function"
    },
    {
      "inputs": [
        {
          "internalType": "address",
          "name": "newOwner",
          "type": "address"
        }
      ],
      "name": "changeOwner",
      "outputs": [],
      "stateMutability": "nonpayable",
      "type": "function"
    },
    {
      "inputs": [
        {
          "components": [
            {
              "internalType": "bool",
              "name": "sendTokensToOwner",
              "type": "bool"
            },
            {
              "internalType": "address",
              "name": "owner",
              "type": "address"
            },
            {
              "internalType": "string",
              "name": "name",
              "type": "string"
            },
            {
              "components": [
                {
                  "internalType": "uint16",
                  "name": "coveragePeriodDays",
                  "type": "uint16"
                },
                {
                  "internalType": "uint16",
                  "name": "gracePeriodDays",
                  "type": "uint16"
                },
                {
                  "internalType": "uint256",
                  "name": "fee",
                  "type": "uint256"
                }
              ],
              "internalType": "struct RegistrationTerms",
              "name": "terms",
              "type": "tuple"
            },
            {
              "components": [
                {
                  "internalType": "string",
                  "name": "x",
                  "type": "string"
                },
                {
                  "internalType": "string",
                  "name": "y",
                  "type": "string"
                },
                {
                  "internalType": "string",
                  "name": "z",
                  "type": "string"
                },
                {
                  "internalType": "uint256",
                  "name": "t",
                  "type": "uint256"
                },
                {
                  "internalType": "uint256",
                  "name": "p",
                  "type": "uint256"
                },
                {
                  "internalType": "uint256",
                  "name": "p_sub",
                  "type": "uint256"
                }
              ],
              "internalType": "struct VectorAddress",
              "name": "vector",
              "type": "tuple"
            },
            {
              "internalType": "bytes",
              "name": "initData",
              "type": "bytes"
            },
            {
              "internalType": "bytes",
              "name": "ownerTermsSignature",
              "type": "bytes"
            },
            {
              "internalType": "uint256",
              "name": "expiration",
              "type": "uint256"
            }
          ],
          "internalType": "struct CreateCompanyArgs",
          "name": "args",
          "type": "tuple"
        }
      ],
      "name": "createCompany",
      "outputs": [
        {
          "internalType": "address",
          "name": "",
          "type": "address"
        }
      ],
      "stateMutability": "payable",
      "type": "function"
    },
    {
      "inputs": [
        {
          "internalType": "contract IRemovableEntity",
          "name": "entity",
          "type": "address"
        },
        {
          "internalType": "string",
          "name": "reason",
          "type": "string"
        }
      ],
      "name": "deactivateEntity",
      "outputs": [],
      "stateMutability": "nonpayable",
      "type": "function"
    },
    {
      "inputs": [
        {
          "internalType": "contract IRemovableEntity",
          "name": "addr",
          "type": "address"
        }
      ],
      "name": "enforceDeactivation",
      "outputs": [],
      "stateMutability": "nonpayable",
      "type": "function"
    },
    {
      "inputs": [
        {
          "internalType": "contract IRemovableEntity",
          "name": "e",
          "type": "address"
        }
      ],
      "name": "enforceRemoval",
      "outputs": [],
      "stateMutability": "nonpayable",
      "type": "function"
    },
    {
      "inputs": [
        {
          "internalType": "string",
          "name": "name",
          "type": "string"
        }
      ],
      "name": "getEntityByName",
      "outputs": [
        {
          "internalType": "address",
          "name": "",
          "type": "address"
        }
      ],
      "stateMutability": "view",
      "type": "function"
    },
    {
      "inputs": [
        {
          "components": [
            {
              "internalType": "string",
              "name": "x",
              "type": "string"
            },
            {
              "internalType": "string",
              "name": "y",
              "type": "string"
            },
            {
              "internalType": "string",
              "name": "z",
              "type": "string"
            },
            {
              "internalType": "uint256",
              "name": "t",
              "type": "uint256"
            },
            {
              "internalType": "uint256",
              "name": "p",
              "type": "uint256"
            },
            {
              "internalType": "uint256",
              "name": "p_sub",
              "type": "uint256"
            }
          ],
          "internalType": "struct VectorAddress",
          "name": "vector",
          "type": "tuple"
        }
      ],
      "name": "getEntityByVector",
      "outputs": [
        {
          "internalType": "address",
          "name": "",
          "type": "address"
        }
      ],
      "stateMutability": "view",
      "type": "function"
    },
    {
      "inputs": [],
      "name": "getEntityImplementation",
      "outputs": [
        {
          "internalType": "address",
          "name": "",
          "type": "address"
        }
      ],
      "stateMutability": "view",
      "type": "function"
    },
    {
      "inputs": [
        {
          "internalType": "address",
          "name": "addr",
          "type": "address"
        }
      ],
      "name": "getEntityTerms",
      "outputs": [
        {
          "components": [
            {
              "internalType": "uint16",
              "name": "coveragePeriodDays",
              "type": "uint16"
            },
            {
              "internalType": "uint16",
              "name": "gracePeriodDays",
              "type": "uint16"
            },
            {
              "internalType": "uint256",
              "name": "fee",
              "type": "uint256"
            }
          ],
          "internalType": "struct RegistrationTerms",
          "name": "",
          "type": "tuple"
        }
      ],
      "stateMutability": "view",
      "type": "function"
    },
    {
      "inputs": [],
      "name": "getEntityVersion",
      "outputs": [
        {
          "components": [
            {
              "internalType": "uint16",
              "name": "major",
              "type": "uint16"
            },
            {
              "internalType": "uint16",
              "name": "minor",
              "type": "uint16"
            }
          ],
          "internalType": "struct Version",
          "name": "",
          "type": "tuple"
        }
      ],
      "stateMutability": "view",
      "type": "function"
    },
    {
      "inputs": [
        {
          "internalType": "address",
          "name": "addr",
          "type": "address"
        }
      ],
      "name": "getExpiration",
      "outputs": [
        {
          "internalType": "uint256",
          "name": "",
          "type": "uint256"
        }
      ],
      "stateMutability": "view",
      "type": "function"
    },
    {
      "inputs": [
        {
          "internalType": "address",
          "name": "addr",
          "type": "address"
        }
      ],
      "name": "getLastRenewal",
      "outputs": [
        {
          "internalType": "uint256",
          "name": "",
          "type": "uint256"
        }
      ],
      "stateMutability": "view",
      "type": "function"
    },
    {
      "inputs": [],
      "name": "getProxyImplementation",
      "outputs": [
        {
          "internalType": "address",
          "name": "",
          "type": "address"
        }
      ],
      "stateMutability": "view",
      "type": "function"
    },
    {
      "inputs": [
        {
          "internalType": "bytes32",
          "name": "role",
          "type": "bytes32"
        },
        {
          "internalType": "address",
          "name": "account",
          "type": "address"
        }
      ],
      "name": "grantRole",
      "outputs": [],
      "stateMutability": "nonpayable",
      "type": "function"
    },
    {
      "inputs": [
        {
          "internalType": "bytes32",
          "name": "role",
          "type": "bytes32"
        },
        {
          "internalType": "address",
          "name": "account",
          "type": "address"
        }
      ],
      "name": "hasRole",
      "outputs": [
        {
          "internalType": "bool",
          "name": "",
          "type": "bool"
        }
      ],
      "stateMutability": "view",
      "type": "function"
    },
    {
      "inputs": [
        {
          "internalType": "address",
          "name": "account",
          "type": "address"
        }
      ],
      "name": "isAdmin",
      "outputs": [
        {
          "internalType": "bool",
          "name": "",
          "type": "bool"
        }
      ],
      "stateMutability": "view",
      "type": "function"
    },
    {
      "inputs": [
        {
          "internalType": "address",
          "name": "addr",
          "type": "address"
        }
      ],
      "name": "isExpired",
      "outputs": [
        {
          "internalType": "bool",
          "name": "",
          "type": "bool"
        }
      ],
      "stateMutability": "view",
      "type": "function"
    },
    {
      "inputs": [
        {
          "internalType": "address",
          "name": "addr",
          "type": "address"
        }
      ],
      "name": "isInGracePeriod",
      "outputs": [
        {
          "internalType": "bool",
          "name": "",
          "type": "bool"
        }
      ],
      "stateMutability": "view",
      "type": "function"
    },
    {
      "inputs": [
        {
          "internalType": "address",
          "name": "addr",
          "type": "address"
        }
      ],
      "name": "isRegistered",
      "outputs": [
        {
          "internalType": "bool",
          "name": "",
          "type": "bool"
        }
      ],
      "stateMutability": "view",
      "type": "function"
    },
    {
      "inputs": [
        {
          "internalType": "address",
          "name": "account",
          "type": "address"
        }
      ],
      "name": "isSigner",
      "outputs": [
        {
          "internalType": "bool",
          "name": "",
          "type": "bool"
        }
      ],
      "stateMutability": "view",
      "type": "function"
    },
    {
      "inputs": [],
      "name": "owner",
      "outputs": [
        {
          "internalType": "address",
          "name": "",
          "type": "address"
        }
      ],
      "stateMutability": "view",
      "type": "function"
    },
    {
      "inputs": [
        {
          "internalType": "contract IRemovableEntity",
          "name": "entity",
          "type": "address"
        }
      ],
      "name": "reactivateEntity",
      "outputs": [],
      "stateMutability": "nonpayable",
      "type": "function"
    },
    {
      "inputs": [
        {
          "internalType": "contract IRemovableEntity",
          "name": "entity",
          "type": "address"
        },
        {
          "internalType": "string",
          "name": "reason",
          "type": "string"
        }
      ],
      "name": "removeEntity",
      "outputs": [],
      "stateMutability": "nonpayable",
      "type": "function"
    },
    {
      "inputs": [
        {
          "internalType": "address[]",
          "name": "signers",
          "type": "address[]"
        }
      ],
      "name": "removeSigners",
      "outputs": [],
      "stateMutability": "nonpayable",
      "type": "function"
    },
    {
      "inputs": [
        {
          "internalType": "address",
          "name": "addr",
          "type": "address"
        }
      ],
      "name": "renewEntity",
      "outputs": [],
      "stateMutability": "payable",
      "type": "function"
    },
    {
      "inputs": [
        {
          "internalType": "bytes32",
          "name": "role",
          "type": "bytes32"
        },
        {
          "internalType": "address",
          "name": "account",
          "type": "address"
        }
      ],
      "name": "revokeRole",
      "outputs": [],
      "stateMutability": "nonpayable",
      "type": "function"
    },
    {
      "inputs": [
        {
          "internalType": "address",
          "name": "_entityImplementation",
          "type": "address"
        }
      ],
      "name": "setEntityImplementation",
      "outputs": [],
      "stateMutability": "nonpayable",
      "type": "function"
    },
    {
      "inputs": [
        {
          "internalType": "address",
          "name": "_proxyImplementation",
          "type": "address"
        }
      ],
      "name": "setProxyImplementation",
      "outputs": [],
      "stateMutability": "nonpayable",
      "type": "function"
    },
    {
      "inputs": [],
      "name": "version",
      "outputs": [
        {
          "components": [
            {
              "internalType": "uint16",
              "name": "major",
              "type": "uint16"
            },
            {
              "internalType": "uint16",
              "name": "minor",
              "type": "uint16"
            }
          ],
          "internalType": "struct Version",
          "name": "",
          "type": "tuple"
        }
      ],
      "stateMutability": "pure",
      "type": "function"
    },
    {
      "inputs": [],
      "name": "worldRegistry",
      "outputs": [
        {
          "internalType": "contract IWorldRegistry",
          "name": "",
          "type": "address"
        }
      ],
      "stateMutability": "view",
      "type": "function"
    }
  ],
  "bytecode": "0x60a06040523480156200001157600080fd5b506040516200318e3803806200318e8339810160408190526200003491620000b3565b80516001600160a01b0316620000a05760405162461bcd60e51b815260206004820152602760248201527f436f6d70616e7952656769737472793a20696e76616c696420776f726c6420726044820152666567697374727960c81b606482015260840160405180910390fd5b516001600160a01b03166080526200011b565b600060208284031215620000c657600080fd5b604051602081016001600160401b0381118282101715620000f757634e487b7160e01b600052604160045260246000fd5b60405282516001600160a01b03811681146200011257600080fd5b81529392505050565b6080516130506200013e6000396000818161048901526106a301526130506000f3fe6080604052600436106101f85760003560e01c806390e4b7201161010d578063ba2eb541116100a0578063d547741f1161006f578063d547741f146105eb578063d6fbe0201461060b578063e2482bf91461061e578063e8906a2d1461063e578063f82e2fb31461065e57600080fd5b8063ba2eb5411461056b578063c3c5a5471461058b578063c747e47e146105ab578063cdbe2211146105cb57600080fd5b8063a6f9dae1116100dc578063a6f9dae1146104eb578063a8c88c171461050b578063af08d53d1461052b578063b6db923d1461054b57600080fd5b806390e4b72014610462578063911c2a8c1461047757806391d14854146104ab5780639fdcd3a4146104cb57600080fd5b80634ec70a4811610190578063689c48f01161015f578063689c48f0146103d8578063693c79b2146103ed5780637df73e271461040d5780638d361e431461042d5780638da5cb5b1461044d57600080fd5b80634ec70a481461031f57806354fd4d501461034d5780635726c94e146103a35780635e040962146103c357600080fd5b80632f2ff15d116101cc5780632f2ff15d1461029f5780633e88a4e2146102bf5780634ae134cc146102df5780634d4965f3146102ff57600080fd5b80629ee308146101fd57806301f242301461022d578063033a5b601461024f57806324d7806c1461026f575b600080fd5b61021061020b366004612444565b61068b565b6040516001600160a01b0390911681526020015b60405180910390f35b34801561023957600080fd5b5061024d610248366004612497565b610f95565b005b34801561025b57600080fd5b5061024d61026a3660046124fc565b611004565b34801561027b57600080fd5b5061028f61028a366004612497565b611192565b6040519015158152602001610224565b3480156102ab57600080fd5b5061024d6102ba366004612550565b611218565b3480156102cb57600080fd5b506102106102da366004612580565b61131e565b3480156102eb57600080fd5b5061024d6102fa366004612497565b6113a2565b34801561030b57600080fd5b5061024d61031a3660046125d9565b6113e2565b34801561032b57600080fd5b5061033f61033a366004612497565b611576565b604051908152602001610224565b34801561035957600080fd5b5060408051808201825260008082526020918201819052825180840190935260018352908201525b60408051825161ffff9081168252602093840151169281019290925201610224565b3480156103af57600080fd5b5061033f6103be366004612497565b6115f6565b3480156103cf57600080fd5b50610381611639565b3480156103e457600080fd5b506102106116be565b3480156103f957600080fd5b5061024d610408366004612497565b61172d565b34801561041957600080fd5b5061028f610428366004612497565b611888565b34801561043957600080fd5b5061024d610448366004612615565b6118cb565b34801561045957600080fd5b50610210611993565b34801561046e57600080fd5b506102106119de565b34801561048357600080fd5b506102107f000000000000000000000000000000000000000000000000000000000000000081565b3480156104b757600080fd5b5061028f6104c6366004612550565b611a29565b3480156104d757600080fd5b5061024d6104e6366004612497565b611aaf565b3480156104f757600080fd5b5061024d610506366004612497565b611b7e565b34801561051757600080fd5b5061028f610526366004612497565b611c8b565b34801561053757600080fd5b5061024d6105463660046124fc565b611cce565b34801561055757600080fd5b5061028f610566366004612497565b611e24565b34801561057757600080fd5b5061028f610586366004612497565b611e67565b34801561059757600080fd5b5061028f6105a6366004612497565b611eaa565b3480156105b757600080fd5b506102106105c63660046125d9565b611eed565b3480156105d757600080fd5b5061024d6105e6366004612497565b611f68565b3480156105f757600080fd5b5061024d610606366004612550565b612037565b61024d610619366004612497565b61210d565b34801561062a57600080fd5b5061028f610639366004612497565b61214d565b34801561064a57600080fd5b5061024d610659366004612615565b612190565b34801561066a57600080fd5b5061067e610679366004612497565b612258565b6040516102249190612689565b60405163c3c5a54760e01b81523360048201526000907f00000000000000000000000000000000000000000000000000000000000000006001600160a01b03169063c3c5a54790602401602060405180830381865afa1580156106f2573d6000803e3d6000fd5b505050506040513d601f19601f8201168201806040525081019061071691906126c1565b6107755760405162461bcd60e51b815260206004820152602560248201527f436f6d70616e7952656769737472793a20776f726c64206e6f742072656769736044820152641d195c995960da1b60648201526084015b60405180910390fd5b336001600160a01b03166386b70bed6040518163ffffffff1660e01b8152600401602060405180830381865afa1580156107b3573d6000803e3d6000fd5b505050506040513d601f19601f820116820180604052508101906107d791906126c1565b61082d5760405162461bcd60e51b815260206004820152602160248201527f436f6d70616e7952656769737472793a20776f726c64206e6f742061637469766044820152606560f81b606482015260840161076c565b600061083f60a08401608085016126ee565b61ffff16116108c95760405162461bcd60e51b815260206004820152604a60248201527f526567697374726172526567697374726174696f6e4578743a2067726163652060448201527f706572696f6420726571756972656420666f722072656d6f7661626c6520726560648201526933b4b9ba3930ba34b7b760b11b608482015260a40161076c565b60006108d36122ed565b60018101549091506001600160a01b031661094a5760405162461bcd60e51b815260206004820152603160248201527f436f6d70616e79526567697374726174696f6e3a2070726f787920696d706c656044820152701b595b9d185d1a5bdb881b9bdd081cd95d607a1b606482015260840161076c565b80546001600160a01b03166109bc5760405162461bcd60e51b815260206004820152603260248201527f436f6d70616e79526567697374726174696f6e3a20656e7469747920696d706c604482015271195b595b9d185d1a5bdb881b9bdd081cd95d60721b606482015260840161076c565b6109c960c084018461270b565b6109d290612817565b6040516361d9624d60e01b815273__$ad2b23306edd42b5f4873830e307b82d47$__916361d9624d91610a0e9190600190600090600401612982565b60006040518083038186803b158015610a2657600080fd5b505af4158015610a3a573d6000803e3d6000fd5b5050505060006040518060a00160405280856020016020810190610a5e9190612497565b6001600160a01b03168152336020820152604001610a84368790038701606088016129ac565b81526101208601356020820152604001610aa26101008701876129f9565b8080601f016020809104026020016040519081016040528093929190818152602001838380828437600092019190915250505091525060405163bf52415b60e01b815290915073__$d81eab81c4f96e94de97b51155a369ac43$__9063bf52415b90610b12908490600401612a3f565b60006040518083038186803b158015610b2a57600080fd5b505af4158015610b3e573d6000803e3d6000fd5b5060009250610b5391505060c086018661270b565b610b5c90612817565b90506000816080015111610bef5760405162461bcd60e51b815260206004820152604e60248201527f436f6d70616e79526567697374726174696f6e3a20766563746f72206164647260448201527f65737320702076616c7565206d7573742062652067726561746572207468616e60648201526d203020666f7220636f6d70616e7960901b608482015260a40161076c565b60a081015115610c675760405162461bcd60e51b815260206004820152603f60248201527f436f6d70616e79526567697374726174696f6e3a20766563746f72206164647260448201527f65737320705f737562206d757374206265203020666f7220636f6d70616e7900606482015260840161076c565b6001830154600090610c81906001600160a01b0316612383565b90506001600160a01b038116610ceb5760405162461bcd60e51b815260206004820152602960248201527f436f6d70616e79526567697374726174696f6e3a2070726f787920636c6f6e696044820152681b99c819985a5b195960ba1b606482015260840161076c565b8354604051636bc26a1360e11b81526001600160a01b0391821660048201529082169063d784d42690602401600060405180830381600087803b158015610d3157600080fd5b505af1158015610d45573d6000803e3d6000fd5b5050506001600160a01b038216905063108790d1610d6660408901896129f9565b610d7660408b0160208c01612497565b33610d8460c08d018d61270b565b610d9160e08e018e6129f9565b6040518863ffffffff1660e01b8152600401610db39796959493929190612b1d565b600060405180830381600087803b158015610dcd57600080fd5b505af1158015610de1573d6000803e3d6000fd5b5050505060006040518060600160405280836001600160a01b0316815260200188606001803603810190610e1591906129ac565b8152602001610e2760c08a018a61270b565b610e3090612817565b90526040516326590a1d60e01b815290915073__$d81eab81c4f96e94de97b51155a369ac43$__906326590a1d90610e6c908490600401612bf7565b60006040518083038186803b158015610e8457600080fd5b505af4158015610e98573d6000803e3d6000fd5b505050506000341115610f3c57610eb26020880188612c56565b15610f0557610ec76040880160208901612497565b6001600160a01b03166108fc349081150290604051600060405180830381858888f19350505050158015610eff573d6000803e3d6000fd5b50610f3c565b6040516001600160a01b038316903480156108fc02916000818181858888f19350505050158015610f3a573d6000803e3d6000fd5b505b610f4c6040880160208901612497565b6001600160a01b0316826001600160a01b03167f7377123f9eb561d749cd3a89a83c22035cad6473521acbb981ee1c52d8f0248560405160405180910390a35095945050505050565b604051630a53217360e11b81526001600160a01b038216600482015273__$1822254560a4f971c7e72253c3a08363e7$__906314a642e6906024015b60006040518083038186803b158015610fe957600080fd5b505af4158015610ffd573d6000803e3d6000fd5b5050505050565b826000819050336001600160a01b0316816001600160a01b03166369bd91946040518163ffffffff1660e01b8152600401602060405180830381865afa158015611052573d6000803e3d6000fd5b505050506040513d601f19601f820116820180604052508101906110769190612c73565b6001600160a01b03161461109c5760405162461bcd60e51b815260040161076c90612c90565b6000339050806001600160a01b0316634f05c1c86040518163ffffffff1660e01b8152600401602060405180830381865afa1580156110df573d6000803e3d6000fd5b505050506040513d601f19601f8201168201806040525081019061110391906126c1565b61111f5760405162461bcd60e51b815260040161076c90612ced565b60405163ede71a1760e01b815273__$1822254560a4f971c7e72253c3a08363e7$__9063ede71a179061115a90899089908990600401612d38565b60006040518083038186803b15801561117257600080fd5b505af4158015611186573d6000803e3d6000fd5b50505050505050505050565b604051630935e01b60e21b81526001600160a01b038216600482015260009073__$a5a42e46683ad9c79b7b86d5ff60fdf4c1$__906324d7806c906024015b602060405180830381865af41580156111ee573d6000803e3d6000fd5b505050506040513d601f19601f8201168201806040525081019061121291906126c1565b92915050565b604051630935e01b60e21b815233600482015273__$a5a42e46683ad9c79b7b86d5ff60fdf4c1$__906324d7806c90602401602060405180830381865af4158015611267573d6000803e3d6000fd5b505050506040513d601f19601f8201168201806040525081019061128b91906126c1565b6112a75760405162461bcd60e51b815260040161076c90612d66565b604051632f2ff15d60e01b8152600481018390526001600160a01b038216602482015273__$a5a42e46683ad9c79b7b86d5ff60fdf4c1$__90632f2ff15d906044015b60006040518083038186803b15801561130257600080fd5b505af4158015611316573d6000803e3d6000fd5b505050505050565b604051631f44527160e11b815260009073__$d81eab81c4f96e94de97b51155a369ac43$__90633e88a4e29061135a9086908690600401612d9b565b602060405180830381865af4158015611377573d6000803e3d6000fd5b505050506040513d601f19601f8201168201806040525081019061139b9190612c73565b9392505050565b6040516347ef542760e01b81526001600160a01b038216600482015273__$1822254560a4f971c7e72253c3a08363e7$__906347ef542790602401610fd1565b6113ef6020820182612497565b6000819050336001600160a01b0316816001600160a01b03166369bd91946040518163ffffffff1660e01b8152600401602060405180830381865afa15801561143c573d6000803e3d6000fd5b505050506040513d601f19601f820116820180604052508101906114609190612c73565b6001600160a01b0316146114865760405162461bcd60e51b815260040161076c90612c90565b6000339050806001600160a01b0316634f05c1c86040518163ffffffff1660e01b8152600401602060405180830381865afa1580156114c9573d6000803e3d6000fd5b505050506040513d601f19601f820116820180604052508101906114ed91906126c1565b6115095760405162461bcd60e51b815260040161076c90612ced565b604051630bca13f760e41b815273__$d81eab81c4f96e94de97b51155a369ac43$__9063bca13f7090611540908790600401612daf565b60006040518083038186803b15801561155857600080fd5b505af415801561156c573d6000803e3d6000fd5b5050505050505050565b6040516309d8e14960e31b81526001600160a01b038216600482015260009073__$1822254560a4f971c7e72253c3a08363e7$__90634ec70a48906024015b602060405180830381865af41580156115d2573d6000803e3d6000fd5b505050506040513d601f19601f820116820180604052508101906112129190612e45565b604051632b9364a760e11b81526001600160a01b038216600482015260009073__$1822254560a4f971c7e72253c3a08363e7$__90635726c94e906024016115b5565b604080518082019091526000808252602082015273__$e1fef5d4b1bfc4a605b7eb127c84f71416$__635e0409626040518163ffffffff1660e01b81526004016040805180830381865af4158015611695573d6000803e3d6000fd5b505050506040513d601f19601f820116820180604052508101906116b99190612e5e565b905090565b600073__$e1fef5d4b1bfc4a605b7eb127c84f71416$__63689c48f06040518163ffffffff1660e01b8152600401602060405180830381865af4158015611709573d6000803e3d6000fd5b505050506040513d601f19601f820116820180604052508101906116b99190612c73565b806000819050336001600160a01b0316816001600160a01b03166369bd91946040518163ffffffff1660e01b8152600401602060405180830381865afa15801561177b573d6000803e3d6000fd5b505050506040513d601f19601f8201168201806040525081019061179f9190612c73565b6001600160a01b0316146117c55760405162461bcd60e51b815260040161076c90612c90565b6000339050806001600160a01b0316634f05c1c86040518163ffffffff1660e01b8152600401602060405180830381865afa158015611808573d6000803e3d6000fd5b505050506040513d601f19601f8201168201806040525081019061182c91906126c1565b6118485760405162461bcd60e51b815260040161076c90612ced565b60405163699f380760e11b81526001600160a01b038516600482015273__$1822254560a4f971c7e72253c3a08363e7$__9063d33e700e90602401611540565b604051637df73e2760e01b81526001600160a01b038216600482015260009073__$a5a42e46683ad9c79b7b86d5ff60fdf4c1$__90637df73e27906024016111d1565b604051630935e01b60e21b815233600482015273__$a5a42e46683ad9c79b7b86d5ff60fdf4c1$__906324d7806c90602401602060405180830381865af415801561191a573d6000803e3d6000fd5b505050506040513d601f19601f8201168201806040525081019061193e91906126c1565b61195a5760405162461bcd60e51b815260040161076c90612d66565b604051638d361e4360e01b815273__$a5a42e46683ad9c79b7b86d5ff60fdf4c1$__90638d361e43906112ea9085908590600401612ebc565b600073__$a5a42e46683ad9c79b7b86d5ff60fdf4c1$__638da5cb5b6040518163ffffffff1660e01b8152600401602060405180830381865af4158015611709573d6000803e3d6000fd5b600073__$e1fef5d4b1bfc4a605b7eb127c84f71416$__6390e4b7206040518163ffffffff1660e01b8152600401602060405180830381865af4158015611709573d6000803e3d6000fd5b604051632474521560e21b8152600481018390526001600160a01b038216602482015260009073__$a5a42e46683ad9c79b7b86d5ff60fdf4c1$__906391d1485490604401602060405180830381865af4158015611a8b573d6000803e3d6000fd5b505050506040513d601f19601f8201168201806040525081019061139b91906126c1565b604051630935e01b60e21b815233600482015273__$a5a42e46683ad9c79b7b86d5ff60fdf4c1$__906324d7806c90602401602060405180830381865af4158015611afe573d6000803e3d6000fd5b505050506040513d601f19601f82011682018060405250810190611b2291906126c1565b611b3e5760405162461bcd60e51b815260040161076c90612d66565b6040516327f734e960e21b81526001600160a01b038216600482015273__$e1fef5d4b1bfc4a605b7eb127c84f71416$__90639fdcd3a490602401610fd1565b336001600160a01b031673__$a5a42e46683ad9c79b7b86d5ff60fdf4c1$__638da5cb5b6040518163ffffffff1660e01b8152600401602060405180830381865af4158015611bd1573d6000803e3d6000fd5b505050506040513d601f19601f82011682018060405250810190611bf59190612c73565b6001600160a01b031614611c4b5760405162461bcd60e51b815260206004820152601f60248201527f426173654163636573733a207265737472696374656420746f206f776e657200604482015260640161076c565b6040516313af403560e01b81526001600160a01b038216600482015273__$a5a42e46683ad9c79b7b86d5ff60fdf4c1$__906313af403590602401610fd1565b60405163a8c88c1760e01b81526001600160a01b038216600482015260009073__$1822254560a4f971c7e72253c3a08363e7$__9063a8c88c17906024016111d1565b826000819050336001600160a01b0316816001600160a01b03166369bd91946040518163ffffffff1660e01b8152600401602060405180830381865afa158015611d1c573d6000803e3d6000fd5b505050506040513d601f19601f82011682018060405250810190611d409190612c73565b6001600160a01b031614611d665760405162461bcd60e51b815260040161076c90612c90565b6000339050806001600160a01b0316634f05c1c86040518163ffffffff1660e01b8152600401602060405180830381865afa158015611da9573d6000803e3d6000fd5b505050506040513d601f19601f82011682018060405250810190611dcd91906126c1565b611de95760405162461bcd60e51b815260040161076c90612ced565b604051633f111a5d60e21b815273__$1822254560a4f971c7e72253c3a08363e7$__9063fc4469749061115a90899089908990600401612d38565b60405163b6db923d60e01b81526001600160a01b038216600482015260009073__$1822254560a4f971c7e72253c3a08363e7$__9063b6db923d906024016111d1565b60405163ba2eb54160e01b81526001600160a01b038216600482015260009073__$1822254560a4f971c7e72253c3a08363e7$__9063ba2eb541906024016111d1565b60405163c3c5a54760e01b81526001600160a01b038216600482015260009073__$d81eab81c4f96e94de97b51155a369ac43$__9063c3c5a547906024016111d1565b6040516332ef671360e21b815260009073__$d81eab81c4f96e94de97b51155a369ac43$__9063cbbd9c4c90611f27908590600401612f0a565b602060405180830381865af4158015611f44573d6000803e3d6000fd5b505050506040513d601f19601f820116820180604052508101906112129190612c73565b604051630935e01b60e21b815233600482015273__$a5a42e46683ad9c79b7b86d5ff60fdf4c1$__906324d7806c90602401602060405180830381865af4158015611fb7573d6000803e3d6000fd5b505050506040513d601f19601f82011682018060405250810190611fdb91906126c1565b611ff75760405162461bcd60e51b815260040161076c90612d66565b60405163cdbe221160e01b81526001600160a01b038216600482015273__$e1fef5d4b1bfc4a605b7eb127c84f71416$__9063cdbe221190602401610fd1565b604051630935e01b60e21b815233600482015273__$a5a42e46683ad9c79b7b86d5ff60fdf4c1$__906324d7806c90602401602060405180830381865af4158015612086573d6000803e3d6000fd5b505050506040513d601f19601f820116820180604052508101906120aa91906126c1565b6120c65760405162461bcd60e51b815260040161076c90612d66565b60405163d547741f60e01b8152600481018390526001600160a01b038216602482015273__$a5a42e46683ad9c79b7b86d5ff60fdf4c1$__9063d547741f906044016112ea565b6040516306b7df0160e51b81526001600160a01b038216600482015273__$1822254560a4f971c7e72253c3a08363e7$__9063d6fbe02090602401610fd1565b60405163e2482bf960e01b81526001600160a01b038216600482015260009073__$1822254560a4f971c7e72253c3a08363e7$__9063e2482bf9906024016111d1565b604051630935e01b60e21b815233600482015273__$a5a42e46683ad9c79b7b86d5ff60fdf4c1$__906324d7806c90602401602060405180830381865af41580156121df573d6000803e3d6000fd5b505050506040513d601f19601f8201168201806040525081019061220391906126c1565b61221f5760405162461bcd60e51b815260040161076c90612d66565b60405163e8906a2d60e01b815273__$a5a42e46683ad9c79b7b86d5ff60fdf4c1$__9063e8906a2d906112ea9085908590600401612ebc565b6040805160608101825260008082526020820181905281830152905163f82e2fb360e01b81526001600160a01b038316600482015273__$1822254560a4f971c7e72253c3a08363e7$__9063f82e2fb390602401606060405180830381865af41580156122c9573d6000803e3d6000fd5b505050506040513d601f19601f820116820180604052508101906112129190612fac565b60408051808201909152601c81527f78722e656e746974792e666163746f72792e73746f726167652e76310000000060209091015260008060ff61235260017f8b4ac7cd4466ab0d50fe53a88c5446ca4a450d482bef9ad792e7d9f451497e0f612ff9565b60405160200161236491815260200190565b60408051601f1981840301815291905280516020909101201692915050565b60006001600160a01b0382166123f35760405162461bcd60e51b815260206004820152602f60248201527f4c6962436c6f6e653a20696d706c656d656e746174696f6e2063616e6e6f742060448201526e6265207a65726f206164647265737360881b606482015260840161076c565b60008260601b9050604051733d602d80600a3d3981f3363d3d373d3d3d363d7360601b81528160148201526e5af43d82803e903d91602b57fd5bf360881b60288201526037816000f0949350505050565b60006020828403121561245657600080fd5b81356001600160401b0381111561246c57600080fd5b8201610140818503121561139b57600080fd5b6001600160a01b038116811461249457600080fd5b50565b6000602082840312156124a957600080fd5b813561139b8161247f565b60008083601f8401126124c657600080fd5b5081356001600160401b038111156124dd57600080fd5b6020830191508360208285010111156124f557600080fd5b9250929050565b60008060006040848603121561251157600080fd5b833561251c8161247f565b925060208401356001600160401b0381111561253757600080fd5b612543868287016124b4565b9497909650939450505050565b6000806040838503121561256357600080fd5b8235915060208301356125758161247f565b809150509250929050565b6000806020838503121561259357600080fd5b82356001600160401b038111156125a957600080fd5b6125b5858286016124b4565b90969095509350505050565b600060c082840312156125d357600080fd5b50919050565b6000602082840312156125eb57600080fd5b81356001600160401b0381111561260157600080fd5b61260d848285016125c1565b949350505050565b6000806020838503121561262857600080fd5b82356001600160401b038082111561263f57600080fd5b818501915085601f83011261265357600080fd5b81358181111561266257600080fd5b8660208260051b850101111561267757600080fd5b60209290920196919550909350505050565b815161ffff9081168252602080840151909116908201526040808301519082015260608101611212565b801515811461249457600080fd5b6000602082840312156126d357600080fd5b815161139b816126b3565b61ffff8116811461249457600080fd5b60006020828403121561270057600080fd5b813561139b816126de565b6000823560be1983360301811261272157600080fd5b9190910192915050565b634e487b7160e01b600052604160045260246000fd5b60405160c081016001600160401b03811182821017156127635761276361272b565b60405290565b604051606081016001600160401b03811182821017156127635761276361272b565b600082601f83011261279c57600080fd5b81356001600160401b03808211156127b6576127b661272b565b604051601f8301601f19908116603f011681019082821181831017156127de576127de61272b565b816040528381528660208588010111156127f757600080fd5b836020870160208301376000602085830101528094505050505092915050565b600060c0823603121561282957600080fd5b612831612741565b82356001600160401b038082111561284857600080fd5b6128543683870161278b565b8352602085013591508082111561286a57600080fd5b6128763683870161278b565b6020840152604085013591508082111561288f57600080fd5b5061289c3682860161278b565b604083015250606083013560608201526080830135608082015260a083013560a082015280915050919050565b6000815180845260005b818110156128ef576020818501810151868301820152016128d3565b506000602082860101526020601f19601f83011685010191505092915050565b6000815160c0845261292460c08501826128c9565b90506020830151848203602086015261293d82826128c9565b9150506040830151848203604086015261295782826128c9565b915050606083015160608501526080830151608085015260a083015160a08501528091505092915050565b606081526000612995606083018661290f565b931515602083015250901515604090910152919050565b6000606082840312156129be57600080fd5b6129c6612769565b82356129d1816126de565b815260208301356129e1816126de565b60208201526040928301359281019290925250919050565b6000808335601e19843603018112612a1057600080fd5b8301803591506001600160401b03821115612a2a57600080fd5b6020019150368190038213156124f557600080fd5b602080825282516001600160a01b0390811683830152838201511660408084019190915280840151805161ffff908116606086015292810151909216608084015281015160a083015260009050606083015160c0830152608083015160e08084015261260d6101008401826128c9565b81835281816020850137506000828201602090810191909152601f909101601f19169091010190565b6000808335601e19843603018112612aef57600080fd5b83016020810192503590506001600160401b03811115612b0e57600080fd5b8036038213156124f557600080fd5b60a081526000612b3160a08301898b612aaf565b6001600160a01b038881166020850152871660408401528281036060840152612b5a8680612ad8565b60c08352612b6c60c084018284612aaf565b915050612b7c6020880188612ad8565b8383036020850152612b8f838284612aaf565b92505050612ba06040880188612ad8565b8383036040850152612bb3838284612aaf565b92505050606087013560608301526080870135608083015260a087013560a08301528381036080850152612be8818688612aaf565b9b9a5050505050505050505050565b602080825282516001600160a01b031682820152820151600090612c3d604084018261ffff80825116835280602083015116602084015250604081015160408301525050565b50604083015160a08084015261260d60c084018261290f565b600060208284031215612c6857600080fd5b813561139b816126b3565b600060208284031215612c8557600080fd5b815161139b8161247f565b6020808252603d908201527f4261736552656d6f7661626c6552656769737472793a2063616c6c657220697360408201527f206e6f742074686520656e746974792773207465726d73206f776e6572000000606082015260800190565b6020808252602b908201527f4261736552656d6f7661626c6552656769737472793a2063616c6c657220697360408201526a206e6f742061637469766560a81b606082015260800190565b6001600160a01b0384168152604060208201819052600090612d5d9083018486612aaf565b95945050505050565b6020808252818101527f426173654163636573733a207265737472696374656420746f2061646d696e73604082015260600190565b60208152600061260d602083018486612aaf565b6020815260008235612dc08161247f565b6001600160a01b0316602083810191909152612dde90840184612ad8565b60c06040850152612df360e085018284612aaf565b915050604084013560608401526060840135612e0e816126de565b61ffff808216608086015260808601359150612e29826126de565b1660a084810191909152939093013560c0909201919091525090565b600060208284031215612e5757600080fd5b5051919050565b600060408284031215612e7057600080fd5b604051604081018181106001600160401b0382111715612e9257612e9261272b565b6040528251612ea0816126de565b81526020830151612eb0816126de565b60208201529392505050565b60208082528181018390526000908460408401835b86811015612eff578235612ee48161247f565b6001600160a01b031682529183019190830190600101612ed1565b509695505050505050565b602081526000612f1a8384612ad8565b60c06020850152612f2f60e085018284612aaf565b915050612f3f6020850185612ad8565b601f1980868503016040870152612f57848385612aaf565b9350612f666040880188612ad8565b935091508086850301606087015250612f80838383612aaf565b9250505060608401356080840152608084013560a084015260a084013560c08401528091505092915050565b600060608284031215612fbe57600080fd5b612fc6612769565b8251612fd1816126de565b81526020830151612fe1816126de565b60208201526040928301519281019290925250919050565b8181038181111561121257634e487b7160e01b600052601160045260246000fdfea2646970667358221220eeffc7844b2560047ddfa5d7e682aa5f97c6ebfbfc5c5f8cf8436b459d0282c864736f6c63430008180033",
  "linkReferences": {
    "contracts/libraries/LibAccess.sol": {
      "LibAccess": [
        {
          "length": 20,
          "start": 4849
        },
        {
          "length": 20,
          "start": 4971
        },
        {
          "length": 20,
          "start": 5130
        },
        {
          "length": 20,
          "start": 6631
        },
        {
          "length": 20,
          "start": 6686
        },
        {
          "length": 20,
          "start": 6823
        },
        {
          "length": 20,
          "start": 6869
        },
        {
          "length": 20,
          "start": 7055
        },
        {
          "length": 20,
          "start": 7170
        },
        {
          "length": 20,
          "start": 7368
        },
        {
          "length": 20,
          "start": 7591
        },
        {
          "length": 20,
          "start": 8379
        },
        {
          "length": 20,
          "start": 8586
        },
        {
          "length": 20,
          "start": 8745
        },
        {
          "length": 20,
          "start": 8931
        },
        {
          "length": 20,
          "start": 9068
        }
      ]
    },
    "contracts/libraries/LibEntityRemoval.sol": {
      "LibEntityRemoval": [
        {
          "length": 20,
          "start": 4337
        },
        {
          "length": 20,
          "start": 4716
        },
        {
          "length": 20,
          "start": 5374
        },
        {
          "length": 20,
          "start": 5845
        },
        {
          "length": 20,
          "start": 5973
        },
        {
          "length": 20,
          "start": 6564
        },
        {
          "length": 20,
          "start": 7658
        },
        {
          "length": 20,
          "start": 7990
        },
        {
          "length": 20,
          "start": 8067
        },
        {
          "length": 20,
          "start": 8134
        },
        {
          "length": 20,
          "start": 8809
        },
        {
          "length": 20,
          "start": 8876
        },
        {
          "length": 20,
          "start": 9165
        }
      ]
    },
    "contracts/libraries/LibFactory.sol": {
      "LibFactory": [
        {
          "length": 20,
          "start": 6029
        },
        {
          "length": 20,
          "start": 6144
        },
        {
          "length": 20,
          "start": 6944
        },
        {
          "length": 20,
          "start": 7322
        },
        {
          "length": 20,
          "start": 8531
        }
      ]
    },
    "contracts/libraries/LibRegistration.sol": {
      "LibRegistration": [
        {
          "length": 20,
          "start": 3112
        },
        {
          "length": 20,
          "start": 3970
        },
        {
          "length": 20,
          "start": 5230
        },
        {
          "length": 20,
          "start": 5718
        },
        {
          "length": 20,
          "start": 8201
        },
        {
          "length": 20,
          "start": 8253
        }
      ]
    },
    "contracts/libraries/LibVectorAddress.sol": {
      "LibVectorAddress": [
        {
          "length": 20,
          "start": 2847
        }
      ]
    }
  },
  "deployedLinkReferences": {
    "contracts/libraries/LibAccess.sol": {
      "LibAccess": [
        {
          "length": 20,
          "start": 4531
        },
        {
          "length": 20,
          "start": 4653
        },
        {
          "length": 20,
          "start": 4812
        },
        {
          "length": 20,
          "start": 6313
        },
        {
          "length": 20,
          "start": 6368
        },
        {
          "length": 20,
          "start": 6505
        },
        {
          "length": 20,
          "start": 6551
        },
        {
          "length": 20,
          "start": 6737
        },
        {
          "length": 20,
          "start": 6852
        },
        {
          "length": 20,
          "start": 7050
        },
        {
          "length": 20,
          "start": 7273
        },
        {
          "length": 20,
          "start": 8061
        },
        {
          "length": 20,
          "start": 8268
        },
        {
          "length": 20,
          "start": 8427
        },
        {
          "length": 20,
          "start": 8613
        },
        {
          "length": 20,
          "start": 8750
        }
      ]
    },
    "contracts/libraries/LibEntityRemoval.sol": {
      "LibEntityRemoval": [
        {
          "length": 20,
          "start": 4019
        },
        {
          "length": 20,
          "start": 4398
        },
        {
          "length": 20,
          "start": 5056
        },
        {
          "length": 20,
          "start": 5527
        },
        {
          "length": 20,
          "start": 5655
        },
        {
          "length": 20,
          "start": 6246
        },
        {
          "length": 20,
          "start": 7340
        },
        {
          "length": 20,
          "start": 7672
        },
        {
          "length": 20,
          "start": 7749
        },
        {
          "length": 20,
          "start": 7816
        },
        {
          "length": 20,
          "start": 8491
        },
        {
          "length": 20,
          "start": 8558
        },
        {
          "length": 20,
          "start": 8847
        }
      ]
    },
    "contracts/libraries/LibFactory.sol": {
      "LibFactory": [
        {
          "length": 20,
          "start": 5711
        },
        {
          "length": 20,
          "start": 5826
        },
        {
          "length": 20,
          "start": 6626
        },
        {
          "length": 20,
          "start": 7004
        },
        {
          "length": 20,
          "start": 8213
        }
      ]
    },
    "contracts/libraries/LibRegistration.sol": {
      "LibRegistration": [
        {
          "length": 20,
          "start": 2794
        },
        {
          "length": 20,
          "start": 3652
        },
        {
          "length": 20,
          "start": 4912
        },
        {
          "length": 20,
          "start": 5400
        },
        {
          "length": 20,
          "start": 7883
        },
        {
          "length": 20,
          "start": 7935
        }
      ]
    },
    "contracts/libraries/LibVectorAddress.sol": {
      "LibVectorAddress": [
        {
          "length": 20,
          "start": 2529
        }
      ]
    }
  }
}