{
  "_format": "hh-sol-artifact-1",
  "contractName": "CompanyRegistrationExt",
  "sourceName": "contracts/extensions/registry/company/CompanyRegistrationExt.sol",
  "abi": [
    {
      "inputs": [
        {
          "internalType": "uint256",
          "name": "value",
          "type": "uint256"
        },
        {
          "internalType": "uint256",
          "name": "length",
          "type": "uint256"
        }
      ],
      "name": "StringsInsufficientHexLength",
      "type": "error"
    },
    {
      "anonymous": false,
      "inputs": [
        {
          "indexed": true,
          "internalType": "address",
          "name": "entity",
          "type": "address"
        },
        {
          "indexed": true,
          "internalType": "address",
          "name": "owner",
          "type": "address"
        }
      ],
      "name": "RegistryAddedEntity",
      "type": "event"
    },
    {
      "anonymous": false,
      "inputs": [
        {
          "indexed": true,
          "internalType": "address",
          "name": "old",
          "type": "address"
        },
        {
          "indexed": false,
          "internalType": "address",
          "name": "newVersion",
          "type": "address"
        }
      ],
      "name": "RegistryUpgradedEntity",
      "type": "event"
    },
    {
      "inputs": [
        {
          "components": [
            {
              "internalType": "address",
              "name": "entity",
              "type": "address"
            },
            {
              "internalType": "bytes",
              "name": "entitySignature",
              "type": "bytes"
            },
            {
              "internalType": "uint256",
              "name": "expiration",
              "type": "uint256"
            },
            {
              "components": [
                {
                  "internalType": "uint16",
                  "name": "coveragePeriodDays",
                  "type": "uint16"
                },
                {
                  "internalType": "uint16",
                  "name": "gracePeriodDays",
                  "type": "uint16"
                },
                {
                  "internalType": "uint256",
                  "name": "fee",
                  "type": "uint256"
                }
              ],
              "internalType": "struct RegistrationTerms",
              "name": "terms",
              "type": "tuple"
            }
          ],
          "internalType": "struct ChangeEntityTermsArgs",
          "name": "args",
          "type": "tuple"
        }
      ],
      "name": "changeEntityTerms",
      "outputs": [],
      "stateMutability": "nonpayable",
      "type": "function"
    },
    {
      "inputs": [
        {
          "components": [
            {
              "internalType": "bool",
              "name": "sendTokensToOwner",
              "type": "bool"
            },
            {
              "internalType": "address",
              "name": "owner",
              "type": "address"
            },
            {
              "internalType": "string",
              "name": "name",
              "type": "string"
            },
            {
              "components": [
                {
                  "internalType": "uint16",
                  "name": "coveragePeriodDays",
                  "type": "uint16"
                },
                {
                  "internalType": "uint16",
                  "name": "gracePeriodDays",
                  "type": "uint16"
                },
                {
                  "internalType": "uint256",
                  "name": "fee",
                  "type": "uint256"
                }
              ],
              "internalType": "struct RegistrationTerms",
              "name": "terms",
              "type": "tuple"
            },
            {
              "components": [
                {
                  "internalType": "string",
                  "name": "x",
                  "type": "string"
                },
                {
                  "internalType": "string",
                  "name": "y",
                  "type": "string"
                },
                {
                  "internalType": "string",
                  "name": "z",
                  "type": "string"
                },
                {
                  "internalType": "uint256",
                  "name": "t",
                  "type": "uint256"
                },
                {
                  "internalType": "uint256",
                  "name": "p",
                  "type": "uint256"
                },
                {
                  "internalType": "uint256",
                  "name": "p_sub",
                  "type": "uint256"
                }
              ],
              "internalType": "struct VectorAddress",
              "name": "vector",
              "type": "tuple"
            },
            {
              "internalType": "bytes",
              "name": "initData",
              "type": "bytes"
            },
            {
              "internalType": "bytes",
              "name": "ownerTermsSignature",
              "type": "bytes"
            },
            {
              "internalType": "uint256",
              "name": "expiration",
              "type": "uint256"
            }
          ],
          "internalType": "struct CreateCompanyArgs",
          "name": "args",
          "type": "tuple"
        }
      ],
      "name": "createCompany",
      "outputs": [
        {
          "internalType": "address",
          "name": "",
          "type": "address"
        }
      ],
      "stateMutability": "payable",
      "type": "function"
    },
    {
      "inputs": [
        {
          "internalType": "string",
          "name": "name",
          "type": "string"
        }
      ],
      "name": "getEntityByName",
      "outputs": [
        {
          "internalType": "address",
          "name": "",
          "type": "address"
        }
      ],
      "stateMutability": "view",
      "type": "function"
    },
    {
      "inputs": [
        {
          "components": [
            {
              "internalType": "string",
              "name": "x",
              "type": "string"
            },
            {
              "internalType": "string",
              "name": "y",
              "type": "string"
            },
            {
              "internalType": "string",
              "name": "z",
              "type": "string"
            },
            {
              "internalType": "uint256",
              "name": "t",
              "type": "uint256"
            },
            {
              "internalType": "uint256",
              "name": "p",
              "type": "uint256"
            },
            {
              "internalType": "uint256",
              "name": "p_sub",
              "type": "uint256"
            }
          ],
          "internalType": "struct VectorAddress",
          "name": "vector",
          "type": "tuple"
        }
      ],
      "name": "getEntityByVector",
      "outputs": [
        {
          "internalType": "address",
          "name": "",
          "type": "address"
        }
      ],
      "stateMutability": "view",
      "type": "function"
    },
    {
      "inputs": [
        {
          "components": [
            {
              "internalType": "address",
              "name": "owner",
              "type": "address"
            },
            {
              "internalType": "address",
              "name": "owningRegistry",
              "type": "address"
            },
            {
              "internalType": "address[]",
              "name": "admins",
              "type": "address[]"
            }
          ],
          "internalType": "struct ExtensionInitArgs",
          "name": "args",
          "type": "tuple"
        }
      ],
      "name": "initStorage",
      "outputs": [],
      "stateMutability": "nonpayable",
      "type": "function"
    },
    {
      "inputs": [
        {
          "internalType": "address",
          "name": "myAddress",
          "type": "address"
        }
      ],
      "name": "install",
      "outputs": [],
      "stateMutability": "nonpayable",
      "type": "function"
    },
    {
      "inputs": [
        {
          "internalType": "address",
          "name": "addr",
          "type": "address"
        }
      ],
      "name": "isRegistered",
      "outputs": [
        {
          "internalType": "bool",
          "name": "",
          "type": "bool"
        }
      ],
      "stateMutability": "view",
      "type": "function"
    },
    {
      "inputs": [],
      "name": "metadata",
      "outputs": [
        {
          "components": [
            {
              "internalType": "string",
              "name": "name",
              "type": "string"
            },
            {
              "components": [
                {
                  "internalType": "uint16",
                  "name": "major",
                  "type": "uint16"
                },
                {
                  "internalType": "uint16",
                  "name": "minor",
                  "type": "uint16"
                }
              ],
              "internalType": "struct Version",
              "name": "version",
              "type": "tuple"
            }
          ],
          "internalType": "struct ExtensionMetadata",
          "name": "",
          "type": "tuple"
        }
      ],
      "stateMutability": "pure",
      "type": "function"
    },
    {
      "inputs": [],
      "name": "register",
      "outputs": [],
      "stateMutability": "nonpayable",
      "type": "function"
    },
    {
      "inputs": [
        {
          "internalType": "address",
          "name": "myAddress",
          "type": "address"
        }
      ],
      "name": "upgrade",
      "outputs": [],
      "stateMutability": "nonpayable",
      "type": "function"
    }
  ],
  "bytecode": "0x608060405234801561001057600080fd5b50612071806100206000396000f3fe6080604052600436106100905760003560e01c80633e88a4e2116100595780633e88a4e21461013c5780634d4965f31461015c578063729963c01461017c578063c3c5a54714610197578063c747e47e146101c757600080fd5b80629ee308146100955780630900f010146100c55780631aa3a008146100e55780632a1b8f9b146100fa578063392f37e91461011a575b600080fd5b6100a86100a3366004611541565b6101e7565b6040516001600160a01b0390911681526020015b60405180910390f35b3480156100d157600080fd5b506100e36100e0366004611599565b50565b005b3480156100f157600080fd5b506100e3610a8d565b34801561010657600080fd5b506100e3610115366004611599565b610b0c565b34801561012657600080fd5b5061012f610daf565b6040516100bc9190611606565b34801561014857600080fd5b506100a861015736600461164b565b610e0b565b34801561016857600080fd5b506100e36101773660046116d5565b610e91565b34801561018857600080fd5b506100e36100e036600461170a565b3480156101a357600080fd5b506101b76101b2366004611599565b610efb565b60405190151581526020016100bc565b3480156101d357600080fd5b506100a86101e23660046116d5565b610f7a565b600080306001600160a01b031663911c2a8c6040518163ffffffff1660e01b8152600401602060405180830381865afa158015610228573d6000803e3d6000fd5b505050506040513d601f19601f8201168201806040525081019061024c9190611745565b90506001600160a01b0381166102c05760405162461bcd60e51b815260206004820152602e60248201527f436f6d70616e79526567697374726174696f6e4578743a20776f726c6420726560448201526d19da5cdd1c9e481b9bdd081cd95d60921b60648201526084015b60405180910390fd5b60008190506000339050806001600160a01b03166386b70bed6040518163ffffffff1660e01b8152600401602060405180830381865afa158015610308573d6000803e3d6000fd5b505050506040513d601f19601f8201168201806040525081019061032c9190611770565b61038c5760405162461bcd60e51b815260206004820152602b60248201527f436f6d70616e79526567697374726174696f6e4578743a20776f726c6420697360448201526a206e6f742061637469766560a81b60648201526084016102b7565b60405163c3c5a54760e01b81523360048201526001600160a01b0383169063c3c5a54790602401602060405180830381865afa1580156103d0573d6000803e3d6000fd5b505050506040513d601f19601f820116820180604052508101906103f49190611770565b6104585760405162461bcd60e51b815260206004820152602f60248201527f436f6d70616e79526567697374726174696f6e4578743a20776f726c6420697360448201526e081b9bdd081c9959da5cdd195c9959608a1b60648201526084016102b7565b600061046a60a08701608088016117a4565b61ffff16116104f45760405162461bcd60e51b815260206004820152604a60248201527f526567697374726172526567697374726174696f6e4578743a2067726163652060448201527f706572696f6420726571756972656420666f722072656d6f7661626c6520726560648201526933b4b9ba3930ba34b7b760b11b608482015260a4016102b7565b60006040518060a001604052808760200160208101906105149190611599565b6001600160a01b0316815233602082015260400161053a36899003890160608a016117fe565b81526101208801356020820152604001610558610100890189611866565b8080601f016020809104026020016040519081016040528093929190818152602001838380828437600092019190915250505091525060405163bf52415b60e01b815290915073__$d81eab81c4f96e94de97b51155a369ac43$__9063bf52415b906105c89084906004016118b4565b60006040518083038186803b1580156105e057600080fd5b505af41580156105f4573d6000803e3d6000fd5b506000925061060991505060c0880188611924565b610612906119d1565b905060008160800151116106a55760405162461bcd60e51b815260206004820152604e60248201527f436f6d70616e79526567697374726174696f6e3a20766563746f72206164647260448201527f65737320702076616c7565206d7573742062652067726561746572207468616e60648201526d203020666f7220636f6d70616e7960901b608482015260a4016102b7565b60a08101511561071d5760405162461bcd60e51b815260206004820152603f60248201527f436f6d70616e79526567697374726174696f6e3a20766563746f72206164647260448201527f65737320705f737562206d757374206265203020666f7220636f6d70616e790060648201526084016102b7565b6000610727610ff5565b8054909150600090610741906001600160a01b031661108b565b90506001600160a01b0381166107ac5760405162461bcd60e51b815260206004820152602a60248201527f436f6d70616e79526567697374726174696f6e3a20656e7469747920636c6f6e6044820152691a5b99c819985a5b195960b21b60648201526084016102b7565b60006040518060c001604052808b60200160208101906107cc9190611599565b6001600160a01b03168152602001336001600160a01b03168152602001306001600160a01b031681526020018b80604001906108089190611866565b8080601f0160208091040260200160405190810160405280939291908181526020018383808284376000920191909152505050908252506020810186905260400161085660e08d018d611866565b8080601f01602080910402602001604051908101604052809392919081815260200183838082843760009201919091525050509152506040516334d0850960e11b81529091506001600160a01b038316906369a10a12906108bb908490600401611a84565b600060405180830381600087803b1580156108d557600080fd5b505af11580156108e9573d6000803e3d6000fd5b5050505060006040518060600160405280846001600160a01b031681526020018c60600180360381019061091d91906117fe565b815260200186905260405163474df87960e01b815290915073__$d81eab81c4f96e94de97b51155a369ac43$__9063474df8799061095f908490600401611b6d565b60006040518083038186803b15801561097757600080fd5b505af415801561098b573d6000803e3d6000fd5b505050506000341115610a2f576109a560208c018c611c40565b156109f8576109ba60408c0160208d01611599565b6001600160a01b03166108fc349081150290604051600060405180830381858888f193505050501580156109f2573d6000803e3d6000fd5b50610a2f565b6040516001600160a01b038416903480156108fc02916000818181858888f19350505050158015610a2d573d6000803e3d6000fd5b505b610a3f60408c0160208d01611599565b6001600160a01b0316836001600160a01b03167f7377123f9eb561d749cd3a89a83c22035cad6473521acbb981ee1c52d8f0248560405160405180910390a350909998505050505050505050565b610a9633610efb565b610b0a576040805162461bcd60e51b81526020600482015260248101919091527f526567697374726174696f6e4578743a206f6e6c79207265676973746572656460448201527f20656e7469746965732063616e2063616c6c20746869732066756e6374696f6e60648201526084016102b7565b565b60408051600580825260c08201909252600091816020015b604080518082019091526000815260606020820152815260200190600190039081610b245790505090506040518060400160405280633e88a4e260e01b6001600160e01b03191681526020016040518060400160405280601781526020017f676574456e7469747942794e616d6528737472696e672900000000000000000081525081525081600081518110610bbc57610bbc611c5d565b60200260200101819052506040518060400160405280634d4965f360e01b6001600160e01b03191681526020016040518060600160405280602c8152602001612010602c913981525081600181518110610c1857610c18611c5d565b6020026020010181905250604051806040016040528063c3c5a54760e01b6001600160e01b03191681526020016040518060400160405280601581526020017469735265676973746572656428616464726573732960581b81525081525081600281518110610c8957610c89611c5d565b60200260200101819052506040518060400160405280629ee30860e01b6001600160e01b03191681526020016040518060400160405280602081526020017f637265617465436f6d70616e7928437265617465436f6d70616e79417267732981525081525081600381518110610d0157610d01611c5d565b6020026020010181905250604051806040016040528063c747e47e60e01b6001600160e01b03191681526020016040518060400160405280602081526020017f676574456e746974794279566563746f7228566563746f72416464726573732981525081525081600481518110610d7a57610d7a611c5d565b6020026020010181905250610dab6040518060400160405280846001600160a01b031681526020018381525061114c565b5050565b610db7611505565b506040805160808101825260168183019081527510dbdb5c185b9e549959da5cdd1c985d1a5bdb915e1d60521b60608301528152815180830190925260018252600060208381019190915281019190915290565b604051631f44527160e11b815260009073__$d81eab81c4f96e94de97b51155a369ac43$__90633e88a4e290610e479086908690600401611c9c565b602060405180830381865af4158015610e64573d6000803e3d6000fd5b505050506040513d601f19601f82011682018060405250810190610e889190611745565b90505b92915050565b604051630bca13f760e41b815273__$d81eab81c4f96e94de97b51155a369ac43$__9063bca13f7090610ec8908490600401611cf6565b60006040518083038186803b158015610ee057600080fd5b505af4158015610ef4573d6000803e3d6000fd5b5050505050565b60405163c3c5a54760e01b81526001600160a01b038216600482015260009073__$d81eab81c4f96e94de97b51155a369ac43$__9063c3c5a54790602401602060405180830381865af4158015610f56573d6000803e3d6000fd5b505050506040513d601f19601f82011682018060405250810190610e8b9190611770565b6040516332ef671360e21b815260009073__$d81eab81c4f96e94de97b51155a369ac43$__9063cbbd9c4c90610fb4908590600401611d85565b602060405180830381865af4158015610fd1573d6000803e3d6000fd5b505050506040513d601f19601f82011682018060405250810190610e8b9190611745565b60408051808201909152601c81527f78722e656e746974792e666163746f72792e73746f726167652e76310000000060209091015260008060ff61105a60017f8b4ac7cd4466ab0d50fe53a88c5446ca4a450d482bef9ad792e7d9f451497e0f611e3d565b60405160200161106c91815260200190565b60408051601f1981840301815291905280516020909101201692915050565b60006001600160a01b0382166110fb5760405162461bcd60e51b815260206004820152602f60248201527f4c6962436c6f6e653a20696d706c656d656e746174696f6e2063616e6e6f742060448201526e6265207a65726f206164647265737360881b60648201526084016102b7565b60008260601b9050604051733d602d80600a3d3981f3363d3d373d3d3d363d7360601b81528160148201526e5af43d82803e903d91602b57fd5bf360881b60288201526037816000f0949350505050565b600061115661130f565b82516001600160a01b031660009081526020829052604081209192505b8360200151518110156113095760008460200151828151811061119857611198611c5d565b6020908102919091018101518051600486810180546001808201835560009283528683206008830401805463ffffffff600790941690950261010090810a9384021990951660e09690961c9290920294909417905583516001600160e01b0319168152918801909352604090208054919350916001600160a01b039104161561129157805461010090046001600160a01b031660009081526020869052604081208751909190600187019061124c90611374565b602080870151604051611266949392600188019101611eed565b60405160208183030381529060405290508060405162461bcd60e51b81526004016102b79190611fbb565b50604080518082018252600180825287516001600160a01b03908116602080850191825295516001600160e01b0319166000908152898401909652939094209151825493516001600160a81b0319909416901515610100600160a81b0319161761010093909416929092029290921790915501611173565b50505050565b60408051808201909152601881527f78722e657874656e73696f6e732e73746f726167652e7631000000000000000060209091015260008060ff61105a60017fb58ec9ca7ba0606d9fecd9f559655d0e5fec418e6751b65b892bccdfd25eb99f611e3d565b6060610e8b6001600160a01b03831660146060826000611395846002611fce565b6113a0906002611fe5565b67ffffffffffffffff8111156113b8576113b86117bf565b6040519080825280601f01601f1916602001820160405280156113e2576020820181803683370190505b509050600360fc1b816000815181106113fd576113fd611c5d565b60200101906001600160f81b031916908160001a905350600f60fb1b8160018151811061142c5761142c611c5d565b60200101906001600160f81b031916908160001a9053506000611450856002611fce565b61145b906001611fe5565b90505b60018111156114d3576f181899199a1a9b1b9c1cb0b131b232b360811b83600f166010811061148f5761148f611c5d565b1a60f81b8282815181106114a5576114a5611c5d565b60200101906001600160f81b031916908160001a90535060049290921c916114cc81611ff8565b905061145e565b5081156114fd5760405163e22e27eb60e01b815260048101869052602481018590526044016102b7565b949350505050565b60405180604001604052806060815260200161153c6040518060400160405280600061ffff168152602001600061ffff1681525090565b905290565b60006020828403121561155357600080fd5b813567ffffffffffffffff81111561156a57600080fd5b8201610140818503121561157d57600080fd5b9392505050565b6001600160a01b03811681146100e057600080fd5b6000602082840312156115ab57600080fd5b813561157d81611584565b60005b838110156115d15781810151838201526020016115b9565b50506000910152565b600081518084526115f28160208601602086016115b6565b601f01601f19169290920160200192915050565b60208152600082516060602084015261162260808401826115da565b602094850151805161ffff90811660408701529501519094166060909301929092525090919050565b6000806020838503121561165e57600080fd5b823567ffffffffffffffff8082111561167657600080fd5b818501915085601f83011261168a57600080fd5b81358181111561169957600080fd5b8660208285010111156116ab57600080fd5b60209290920196919550909350505050565b600060c082840312156116cf57600080fd5b50919050565b6000602082840312156116e757600080fd5b813567ffffffffffffffff8111156116fe57600080fd5b6114fd848285016116bd565b60006020828403121561171c57600080fd5b813567ffffffffffffffff81111561173357600080fd5b82016060818503121561157d57600080fd5b60006020828403121561175757600080fd5b815161157d81611584565b80151581146100e057600080fd5b60006020828403121561178257600080fd5b815161157d81611762565b803561ffff8116811461179f57600080fd5b919050565b6000602082840312156117b657600080fd5b610e888261178d565b634e487b7160e01b600052604160045260246000fd5b60405160c0810167ffffffffffffffff811182821017156117f8576117f86117bf565b60405290565b60006060828403121561181057600080fd5b6040516060810181811067ffffffffffffffff82111715611833576118336117bf565b60405261183f8361178d565b815261184d6020840161178d565b6020820152604083013560408201528091505092915050565b6000808335601e1984360301811261187d57600080fd5b83018035915067ffffffffffffffff82111561189857600080fd5b6020019150368190038213156118ad57600080fd5b9250929050565b602080825282516001600160a01b0390811683830152838201511660408084019190915280840151805161ffff908116606086015292810151909216608084015281015160a083015260009050606083015160c0830152608083015160e0808401526114fd6101008401826115da565b6000823560be1983360301811261193a57600080fd5b9190910192915050565b600082601f83011261195557600080fd5b813567ffffffffffffffff80821115611970576119706117bf565b604051601f8301601f19908116603f01168101908282118183101715611998576119986117bf565b816040528381528660208588010111156119b157600080fd5b836020870160208301376000602085830101528094505050505092915050565b600060c082360312156119e357600080fd5b6119eb6117d5565b823567ffffffffffffffff80821115611a0357600080fd5b611a0f36838701611944565b83526020850135915080821115611a2557600080fd5b611a3136838701611944565b60208401526040850135915080821115611a4a57600080fd5b50611a5736828601611944565b604083015250606083013560608201526080830135608082015260a083013560a082015280915050919050565b60208152600060018060a01b0380845116602084015280602085015116604084015280604085015116606084015250606083015160c06080840152611acc60e08401826115da565b90506080840151601f19808584030160a0860152815160c08452611af360c08501826115da565b905060208301518482036020860152611b0c82826115da565b91505060408301518482036040860152611b2682826115da565b915050606083015160608501526080830151608085015260a083015160a085015260a08701519350818682030160c0870152611b6281856115da565b979650505050505050565b602080825282516001600160a01b031682820152820151600090611bb3604084018261ffff80825116835280602083015116602084015250604081015160408301525050565b50604083015160a080840152805160c080850152611bd56101808501826115da565b9050602082015160bf19808684030160e0870152611bf383836115da565b925060408401519150808684030161010087015250611c1282826115da565b6060840151610120870152608084015161014087015260a09093015161016090950194909452509392505050565b600060208284031215611c5257600080fd5b813561157d81611762565b634e487b7160e01b600052603260045260246000fd5b81835281816020850137506000828201602090810191909152601f909101601f19169091010190565b6020815260006114fd602083018486611c73565b6000808335601e19843603018112611cc757600080fd5b830160208101925035905067ffffffffffffffff811115611ce757600080fd5b8036038213156118ad57600080fd5b6020815260008235611d0781611584565b6001600160a01b0316602083810191909152611d2590840184611cb0565b60c06040850152611d3a60e085018284611c73565b9150506040840135606084015261ffff80611d576060870161178d565b16608085015280611d6a6080870161178d565b1660a08501525060a084013560c08401528091505092915050565b602081526000611d958384611cb0565b60c06020850152611daa60e085018284611c73565b915050611dba6020850185611cb0565b601f1980868503016040870152611dd2848385611c73565b9350611de16040880188611cb0565b935091508086850301606087015250611dfb838383611c73565b9250505060608401356080840152608084013560a084015260a084013560c08401528091505092915050565b634e487b7160e01b600052601160045260246000fd5b81810381811115610e8b57610e8b611e27565b8054600090600181811c9080831680611e6a57607f831692505b60208084108203611e8b57634e487b7160e01b600052602260045260246000fd5b818015611e9f5760018114611eb457611ee1565b60ff1986168952841515850289019650611ee1565b60008881526020902060005b86811015611ed95781548b820152908501908301611ec0565b505084890196505b50505050505092915050565b7f4c6962457874656e73696f6e3a20657874656e73696f6e20000000000000000081526000611f1f6018830187611e50565b6c01030ba1030b2323932b9b99d1609d1b81528551611f4581600d840160208a016115b6565b7f20617474656d7074696e6720746f20726575736520612073656c6563746f7200600d92909101918201528451611f8381602c8401602089016115b6565b7f20616c7265616479207265676973746572656420627920000000000000000000602c9290910191820152611b626043820185611e50565b602081526000610e8860208301846115da565b8082028115828204841417610e8b57610e8b611e27565b80820180821115610e8b57610e8b611e27565b60008161200757612007611e27565b50600019019056fe6368616e6765456e746974795465726d7328616464726573732c526567697374726174696f6e5465726d7329a264697066735822122014ee947bf68541ff459aee90eb45c9a23881192b41b6410392095bad4dc6034964736f6c63430008180033",
  "linkReferences": {
    "contracts/libraries/LibRegistration.sol": {
      "LibRegistration": [
        {
          "length": 20,
          "start": 1472
        },
        {
          "length": 20,
          "start": 2391
        },
        {
          "length": 20,
          "start": 3645
        },
        {
          "length": 20,
          "start": 3776
        },
        {
          "length": 20,
          "start": 3900
        },
        {
          "length": 20,
          "start": 4012
        }
      ]
    }
  },
  "deployedLinkReferences": {
    "contracts/libraries/LibRegistration.sol": {
      "LibRegistration": [
        {
          "length": 20,
          "start": 1440
        },
        {
          "length": 20,
          "start": 2359
        },
        {
          "length": 20,
          "start": 3613
        },
        {
          "length": 20,
          "start": 3744
        },
        {
          "length": 20,
          "start": 3868
        },
        {
          "length": 20,
          "start": 3980
        }
      ]
    }
  }
}