{
  "_format": "hh-sol-artifact-1",
  "contractName": "CompanyRegistryProxy",
  "sourceName": "contracts/company/registry/CompanyRegistryProxy.sol",
  "abi": [
    {
      "inputs": [
        {
          "components": [
            {
              "internalType": "address",
              "name": "impl",
              "type": "address"
            },
            {
              "internalType": "address",
              "name": "owner",
              "type": "address"
            },
            {
              "internalType": "address[]",
              "name": "admins",
              "type": "address[]"
            }
          ],
          "internalType": "struct BaseProxyConstructorArgs",
          "name": "args",
          "type": "tuple"
        }
      ],
      "stateMutability": "nonpayable",
      "type": "constructor"
    },
    {
      "stateMutability": "payable",
      "type": "fallback"
    },
    {
      "inputs": [],
      "name": "getImplementation",
      "outputs": [
        {
          "internalType": "address",
          "name": "",
          "type": "address"
        }
      ],
      "stateMutability": "view",
      "type": "function"
    },
    {
      "inputs": [],
      "name": "getVersion",
      "outputs": [
        {
          "components": [
            {
              "internalType": "uint16",
              "name": "major",
              "type": "uint16"
            },
            {
              "internalType": "uint16",
              "name": "minor",
              "type": "uint16"
            }
          ],
          "internalType": "struct Version",
          "name": "",
          "type": "tuple"
        }
      ],
      "stateMutability": "view",
      "type": "function"
    },
    {
      "inputs": [
        {
          "internalType": "address",
          "name": "_implementation",
          "type": "address"
        }
      ],
      "name": "setImplementation",
      "outputs": [],
      "stateMutability": "nonpayable",
      "type": "function"
    },
    {
      "stateMutability": "payable",
      "type": "receive"
    }
  ],
  "bytecode": "0x60806040523480156200001157600080fd5b5060405162000a3d38038062000a3d833981016040819052620000349162000304565b805181906001600160a01b038116620000a75760405162461bcd60e51b815260206004820152602b60248201527f456e7469747950726f78793a20696d706c656d656e746174696f6e206973207a60448201526a65726f206164647265737360a81b606482015260840160405180910390fd5b6000620000b3620001da565b80546001600160a01b0319166001600160a01b03841690811782556040805163054fd4d560e41b8152815193945091926354fd4d509260048082019392918290030181865afa1580156200010b573d6000803e3d6000fd5b505050506040513d601f19601f8201168201806040525081019062000131919062000427565b805160018301805460209384015161ffff908116620100000263ffffffff19909216931692909217919091179055830151604080850151905163d9ac971f60e01b815273__$a5a42e46683ad9c79b7b86d5ff60fdf4c1$__9263d9ac971f926200019e9260040162000489565b60006040518083038186803b158015620001b757600080fd5b505af4158015620001cc573d6000803e3d6000fd5b50505050505050506200050f565b60408051808201909152601a81527f78722e656e746974792e70726f78792e73746f726167652e763100000000000060209091015260008060ff6200024160017f96b317a1f8708070b2a4511a91a099fe6a60c4eb4156e5391ede34997b5f7246620004e7565b6040516020016200025491815260200190565b60408051601f1981840301815291905280516020909101201692915050565b634e487b7160e01b600052604160045260246000fd5b604051606081016001600160401b0381118282101715620002ae57620002ae62000273565b60405290565b604051601f8201601f191681016001600160401b0381118282101715620002df57620002df62000273565b604052919050565b80516001600160a01b0381168114620002ff57600080fd5b919050565b600060208083850312156200031857600080fd5b82516001600160401b03808211156200033057600080fd5b90840190606082870312156200034557600080fd5b6200034f62000289565b6200035a83620002e7565b815262000369848401620002e7565b848201526040830151828111156200038057600080fd5b80840193505086601f8401126200039657600080fd5b825182811115620003ab57620003ab62000273565b8060051b9250620003be858401620002b4565b8181529284018501928581019089851115620003d957600080fd5b948601945b848610156200040257620003f286620002e7565b82529486019490860190620003de565b60408401525090979650505050505050565b805161ffff81168114620002ff57600080fd5b6000604082840312156200043a57600080fd5b604080519081016001600160401b03811182821017156200045f576200045f62000273565b6040526200046d8362000414565b81526200047d6020840162000414565b60208201529392505050565b6001600160a01b038381168252604060208084018290528451918401829052600092858201929091906060860190855b81811015620004d9578551851683529483019491830191600101620004b9565b509098975050505050505050565b818103818111156200050957634e487b7160e01b600052601160045260246000fd5b92915050565b61051e806200051f6000396000f3fe6080604052600436106100385760003560e01c80630d8e6e2c146100db578063aaf10f4214610117578063d784d426146101445761003f565b3661003f57005b6000610049610164565b80549091506001600160a01b0316806100b55760405162461bcd60e51b815260206004820152602360248201527f456e7469747950726f78793a20696d706c656d656e746174696f6e206e6f74206044820152621cd95d60ea1b60648201526084015b60405180910390fd5b3660008037600080366000845af43d6000803e8080156100d4573d6000f35b3d6000fd5b005b3480156100e757600080fd5b506100f06101fa565b60408051825161ffff90811682526020938401511692810192909252015b60405180910390f35b34801561012357600080fd5b5061012c610243565b6040516001600160a01b03909116815260200161010e565b34801561015057600080fd5b506100d961015f366004610400565b61025e565b60408051808201909152601a81527f78722e656e746974792e70726f78792e73746f726167652e763100000000000060209091015260008060ff6101c960017f96b317a1f8708070b2a4511a91a099fe6a60c4eb4156e5391ede34997b5f7246610424565b6040516020016101db91815260200190565b60408051601f1981840301815291905280516020909101201692915050565b60408051808201909152600080825260208201526000610218610164565b6040805180820190915260019091015461ffff80821683526201000090910416602082015292915050565b60008061024e610164565b546001600160a01b031692915050565b336001600160a01b031673__$a5a42e46683ad9c79b7b86d5ff60fdf4c1$__638da5cb5b6040518163ffffffff1660e01b8152600401602060405180830381865af41580156102b1573d6000803e3d6000fd5b505050506040513d601f19601f820116820180604052508101906102d5919061044b565b6001600160a01b03161461032b5760405162461bcd60e51b815260206004820181905260248201527f456e7469747950726f78793a207265737472696374656420746f206f776e657260448201526064016100ac565b6000816001600160a01b03166354fd4d506040518163ffffffff1660e01b81526004016040805180830381865afa15801561036a573d6000803e3d6000fd5b505050506040513d601f19601f8201168201806040525081019061038e919061047f565b9050600061039a610164565b80546001600160a01b039094166001600160a01b03199094169390931783555080516001909201805460209092015161ffff908116620100000263ffffffff19909316931692909217179055565b6001600160a01b03811681146103fd57600080fd5b50565b60006020828403121561041257600080fd5b813561041d816103e8565b9392505050565b8181038181111561044557634e487b7160e01b600052601160045260246000fd5b92915050565b60006020828403121561045d57600080fd5b815161041d816103e8565b805161ffff8116811461047a57600080fd5b919050565b60006040828403121561049157600080fd5b6040516040810181811067ffffffffffffffff821117156104c257634e487b7160e01b600052604160045260246000fd5b6040526104ce83610468565b81526104dc60208401610468565b6020820152939250505056fea2646970667358221220762ce6fd60ef142fe98da56587f0c1bb5834e9b35b496cc402e01b406a34182e64736f6c63430008180033",
  "linkReferences": {
    "contracts/libraries/LibAccess.sol": {
      "LibAccess": [
        {
          "length": 20,
          "start": 374
        },
        {
          "length": 20,
          "start": 1929
        }
      ]
    }
  },
  "deployedLinkReferences": {
    "contracts/libraries/LibAccess.sol": {
      "LibAccess": [
        {
          "length": 20,
          "start": 618
        }
      ]
    }
  }
}