{
  "_format": "hh-sol-artifact-1",
  "contractName": "Company",
  "sourceName": "contracts/company/instance/Company.sol",
  "abi": [
    {
      "inputs": [
        {
          "components": [
            {
              "internalType": "address",
              "name": "companyRegistry",
              "type": "address"
            },
            {
              "internalType": "address",
              "name": "experienceRegistry",
              "type": "address"
            },
            {
              "internalType": "address",
              "name": "erc20Registry",
              "type": "address"
            },
            {
              "internalType": "address",
              "name": "erc721Registry",
              "type": "address"
            },
            {
              "internalType": "address",
              "name": "avatarRegistry",
              "type": "address"
            }
          ],
          "internalType": "struct CompanyConstructorArgs",
          "name": "args",
          "type": "tuple"
        }
      ],
      "stateMutability": "nonpayable",
      "type": "constructor"
    },
    {
      "anonymous": false,
      "inputs": [
        {
          "indexed": true,
          "internalType": "address",
          "name": "asset",
          "type": "address"
        },
        {
          "indexed": true,
          "internalType": "address",
          "name": "to",
          "type": "address"
        },
        {
          "indexed": true,
          "internalType": "uint256",
          "name": "amountOrTokenId",
          "type": "uint256"
        }
      ],
      "name": "AssetMinted",
      "type": "event"
    },
    {
      "anonymous": false,
      "inputs": [
        {
          "indexed": true,
          "internalType": "address",
          "name": "asset",
          "type": "address"
        },
        {
          "indexed": true,
          "internalType": "address",
          "name": "holder",
          "type": "address"
        },
        {
          "indexed": true,
          "internalType": "uint256",
          "name": "amountOrTokenId",
          "type": "uint256"
        }
      ],
      "name": "AssetRevoked",
      "type": "event"
    },
    {
      "anonymous": false,
      "inputs": [
        {
          "indexed": true,
          "internalType": "address",
          "name": "asset",
          "type": "address"
        },
        {
          "indexed": true,
          "internalType": "address",
          "name": "condition",
          "type": "address"
        }
      ],
      "name": "CompanyAddedAssetCondition",
      "type": "event"
    },
    {
      "anonymous": false,
      "inputs": [
        {
          "indexed": true,
          "internalType": "address",
          "name": "asset",
          "type": "address"
        },
        {
          "indexed": true,
          "internalType": "address",
          "name": "hook",
          "type": "address"
        }
      ],
      "name": "CompanyAddedAssetHook",
      "type": "event"
    },
    {
      "anonymous": false,
      "inputs": [
        {
          "indexed": true,
          "internalType": "address",
          "name": "experience",
          "type": "address"
        },
        {
          "indexed": true,
          "internalType": "uint256",
          "name": "portalId",
          "type": "uint256"
        }
      ],
      "name": "CompanyAddedExperience",
      "type": "event"
    },
    {
      "anonymous": false,
      "inputs": [
        {
          "indexed": true,
          "internalType": "address",
          "name": "experience",
          "type": "address"
        },
        {
          "indexed": true,
          "internalType": "address",
          "name": "condition",
          "type": "address"
        }
      ],
      "name": "CompanyAddedExperienceCondition",
      "type": "event"
    },
    {
      "anonymous": false,
      "inputs": [
        {
          "indexed": true,
          "internalType": "address",
          "name": "experience",
          "type": "address"
        },
        {
          "indexed": true,
          "internalType": "address",
          "name": "hook",
          "type": "address"
        }
      ],
      "name": "CompanyAddedExperienceHook",
      "type": "event"
    },
    {
      "anonymous": false,
      "inputs": [
        {
          "indexed": true,
          "internalType": "address",
          "name": "experience",
          "type": "address"
        },
        {
          "indexed": true,
          "internalType": "uint256",
          "name": "fee",
          "type": "uint256"
        }
      ],
      "name": "CompanyChangedExperiencePortalFee",
      "type": "event"
    },
    {
      "anonymous": false,
      "inputs": [],
      "name": "CompanyDeactivated",
      "type": "event"
    },
    {
      "anonymous": false,
      "inputs": [
        {
          "indexed": true,
          "internalType": "address",
          "name": "experience",
          "type": "address"
        },
        {
          "indexed": false,
          "internalType": "string",
          "name": "reason",
          "type": "string"
        }
      ],
      "name": "CompanyDeactivatedExperience",
      "type": "event"
    },
    {
      "anonymous": false,
      "inputs": [],
      "name": "CompanyHookRemoved",
      "type": "event"
    },
    {
      "anonymous": false,
      "inputs": [
        {
          "indexed": true,
          "internalType": "address",
          "name": "hook",
          "type": "address"
        }
      ],
      "name": "CompanyHookSet",
      "type": "event"
    },
    {
      "anonymous": false,
      "inputs": [
        {
          "indexed": true,
          "internalType": "address",
          "name": "avatar",
          "type": "address"
        },
        {
          "indexed": true,
          "internalType": "uint256",
          "name": "portalId",
          "type": "uint256"
        },
        {
          "indexed": true,
          "internalType": "uint256",
          "name": "fee",
          "type": "uint256"
        }
      ],
      "name": "CompanyJumpedForAvatar",
      "type": "event"
    },
    {
      "anonymous": false,
      "inputs": [],
      "name": "CompanyReactivated",
      "type": "event"
    },
    {
      "anonymous": false,
      "inputs": [
        {
          "indexed": true,
          "internalType": "address",
          "name": "experience",
          "type": "address"
        }
      ],
      "name": "CompanyReactivatedExperience",
      "type": "event"
    },
    {
      "anonymous": false,
      "inputs": [
        {
          "indexed": true,
          "internalType": "address",
          "name": "asset",
          "type": "address"
        }
      ],
      "name": "CompanyRemovedAssetCondition",
      "type": "event"
    },
    {
      "anonymous": false,
      "inputs": [
        {
          "indexed": true,
          "internalType": "address",
          "name": "asset",
          "type": "address"
        }
      ],
      "name": "CompanyRemovedAssetHook",
      "type": "event"
    },
    {
      "anonymous": false,
      "inputs": [
        {
          "indexed": true,
          "internalType": "address",
          "name": "experience",
          "type": "address"
        },
        {
          "indexed": false,
          "internalType": "string",
          "name": "reason",
          "type": "string"
        },
        {
          "indexed": true,
          "internalType": "uint256",
          "name": "portalId",
          "type": "uint256"
        }
      ],
      "name": "CompanyRemovedExperience",
      "type": "event"
    },
    {
      "anonymous": false,
      "inputs": [
        {
          "indexed": true,
          "internalType": "address",
          "name": "experience",
          "type": "address"
        }
      ],
      "name": "CompanyRemovedExperienceCondition",
      "type": "event"
    },
    {
      "anonymous": false,
      "inputs": [
        {
          "indexed": true,
          "internalType": "address",
          "name": "experience",
          "type": "address"
        }
      ],
      "name": "CompanyRemovedExperienceHook",
      "type": "event"
    },
    {
      "anonymous": false,
      "inputs": [
        {
          "indexed": true,
          "internalType": "address",
          "name": "oldVersion",
          "type": "address"
        },
        {
          "indexed": true,
          "internalType": "address",
          "name": "nextVersion",
          "type": "address"
        }
      ],
      "name": "CompanyUpgraded",
      "type": "event"
    },
    {
      "anonymous": false,
      "inputs": [
        {
          "indexed": true,
          "internalType": "address",
          "name": "asset",
          "type": "address"
        },
        {
          "indexed": true,
          "internalType": "address",
          "name": "nextVersion",
          "type": "address"
        }
      ],
      "name": "CompanyUpgradedAsset",
      "type": "event"
    },
    {
      "anonymous": false,
      "inputs": [
        {
          "indexed": true,
          "internalType": "address",
          "name": "experience",
          "type": "address"
        },
        {
          "indexed": true,
          "internalType": "address",
          "name": "nextVersion",
          "type": "address"
        }
      ],
      "name": "CompanyUpgradedExperience",
      "type": "event"
    },
    {
      "anonymous": false,
      "inputs": [
        {
          "indexed": true,
          "internalType": "address",
          "name": "by",
          "type": "address"
        },
        {
          "indexed": false,
          "internalType": "string",
          "name": "reason",
          "type": "string"
        }
      ],
      "name": "EntityDeactivated",
      "type": "event"
    },
    {
      "anonymous": false,
      "inputs": [
        {
          "indexed": true,
          "internalType": "address",
          "name": "by",
          "type": "address"
        }
      ],
      "name": "EntityReactivated",
      "type": "event"
    },
    {
      "anonymous": false,
      "inputs": [
        {
          "indexed": true,
          "internalType": "address",
          "name": "by",
          "type": "address"
        },
        {
          "indexed": false,
          "internalType": "string",
          "name": "reason",
          "type": "string"
        }
      ],
      "name": "EntityRemoved",
      "type": "event"
    },
    {
      "inputs": [
        {
          "internalType": "address",
          "name": "asset",
          "type": "address"
        },
        {
          "internalType": "address",
          "name": "condition",
          "type": "address"
        }
      ],
      "name": "addAssetCondition",
      "outputs": [],
      "stateMutability": "nonpayable",
      "type": "function"
    },
    {
      "inputs": [
        {
          "components": [
            {
              "internalType": "string",
              "name": "name",
              "type": "string"
            },
            {
              "internalType": "bytes",
              "name": "initData",
              "type": "bytes"
            }
          ],
          "internalType": "struct AddExperienceArgs",
          "name": "args",
          "type": "tuple"
        }
      ],
      "name": "addExperience",
      "outputs": [
        {
          "internalType": "address",
          "name": "experience",
          "type": "address"
        },
        {
          "internalType": "uint256",
          "name": "portalId",
          "type": "uint256"
        }
      ],
      "stateMutability": "nonpayable",
      "type": "function"
    },
    {
      "inputs": [
        {
          "internalType": "address",
          "name": "experience",
          "type": "address"
        },
        {
          "internalType": "address",
          "name": "condition",
          "type": "address"
        }
      ],
      "name": "addExperienceCondition",
      "outputs": [],
      "stateMutability": "nonpayable",
      "type": "function"
    },
    {
      "inputs": [
        {
          "internalType": "address[]",
          "name": "signers",
          "type": "address[]"
        }
      ],
      "name": "addSigners",
      "outputs": [],
      "stateMutability": "nonpayable",
      "type": "function"
    },
    {
      "inputs": [],
      "name": "avatarRegistry",
      "outputs": [
        {
          "internalType": "contract IAvatarRegistry",
          "name": "",
          "type": "address"
        }
      ],
      "stateMutability": "view",
      "type": "function"
    },
    {
      "inputs": [
        {
          "internalType": "address",
          "name": "asset",
          "type": "address"
        },
        {
          "internalType": "address",
          "name": "to",
          "type": "address"
        },
        {
          "internalType": "bytes",
          "name": "extra",
          "type": "bytes"
        }
      ],
      "name": "canMintERC20",
      "outputs": [
        {
          "internalType": "bool",
          "name": "",
          "type": "bool"
        }
      ],
      "stateMutability": "view",
      "type": "function"
    },
    {
      "inputs": [
        {
          "internalType": "address",
          "name": "asset",
          "type": "address"
        },
        {
          "internalType": "address",
          "name": "to",
          "type": "address"
        },
        {
          "internalType": "bytes",
          "name": "extra",
          "type": "bytes"
        }
      ],
      "name": "canMintERC721",
      "outputs": [
        {
          "internalType": "bool",
          "name": "",
          "type": "bool"
        }
      ],
      "stateMutability": "view",
      "type": "function"
    },
    {
      "inputs": [
        {
          "internalType": "address",
          "name": "experience",
          "type": "address"
        },
        {
          "internalType": "uint256",
          "name": "fee",
          "type": "uint256"
        }
      ],
      "name": "changeExperiencePortalFee",
      "outputs": [],
      "stateMutability": "nonpayable",
      "type": "function"
    },
    {
      "inputs": [
        {
          "internalType": "address",
          "name": "newOwner",
          "type": "address"
        }
      ],
      "name": "changeOwner",
      "outputs": [],
      "stateMutability": "nonpayable",
      "type": "function"
    },
    {
      "inputs": [],
      "name": "companyRegistry",
      "outputs": [
        {
          "internalType": "address",
          "name": "",
          "type": "address"
        }
      ],
      "stateMutability": "view",
      "type": "function"
    },
    {
      "inputs": [
        {
          "internalType": "string",
          "name": "reason",
          "type": "string"
        }
      ],
      "name": "deactivate",
      "outputs": [],
      "stateMutability": "nonpayable",
      "type": "function"
    },
    {
      "inputs": [
        {
          "internalType": "address",
          "name": "experience",
          "type": "address"
        },
        {
          "internalType": "string",
          "name": "reason",
          "type": "string"
        }
      ],
      "name": "deactiveExperience",
      "outputs": [],
      "stateMutability": "nonpayable",
      "type": "function"
    },
    {
      "inputs": [
        {
          "components": [
            {
              "internalType": "address",
              "name": "avatar",
              "type": "address"
            },
            {
              "internalType": "uint256",
              "name": "portalId",
              "type": "uint256"
            },
            {
              "internalType": "uint256",
              "name": "agreedFee",
              "type": "uint256"
            },
            {
              "internalType": "bytes",
              "name": "avatarOwnerSignature",
              "type": "bytes"
            }
          ],
          "internalType": "struct DelegatedAvatarJumpRequest",
          "name": "request",
          "type": "tuple"
        }
      ],
      "name": "delegateJumpForAvatar",
      "outputs": [],
      "stateMutability": "nonpayable",
      "type": "function"
    },
    {
      "inputs": [],
      "name": "erc20Registry",
      "outputs": [
        {
          "internalType": "contract IAssetRegistry",
          "name": "",
          "type": "address"
        }
      ],
      "stateMutability": "view",
      "type": "function"
    },
    {
      "inputs": [],
      "name": "erc721Registry",
      "outputs": [
        {
          "internalType": "contract IAssetRegistry",
          "name": "",
          "type": "address"
        }
      ],
      "stateMutability": "view",
      "type": "function"
    },
    {
      "inputs": [],
      "name": "experienceRegistry",
      "outputs": [
        {
          "internalType": "contract IExperienceRegistry",
          "name": "",
          "type": "address"
        }
      ],
      "stateMutability": "view",
      "type": "function"
    },
    {
      "inputs": [
        {
          "internalType": "bytes32",
          "name": "role",
          "type": "bytes32"
        },
        {
          "internalType": "address",
          "name": "account",
          "type": "address"
        }
      ],
      "name": "grantRole",
      "outputs": [],
      "stateMutability": "nonpayable",
      "type": "function"
    },
    {
      "inputs": [
        {
          "internalType": "bytes32",
          "name": "role",
          "type": "bytes32"
        },
        {
          "internalType": "address",
          "name": "account",
          "type": "address"
        }
      ],
      "name": "hasRole",
      "outputs": [
        {
          "internalType": "bool",
          "name": "",
          "type": "bool"
        }
      ],
      "stateMutability": "view",
      "type": "function"
    },
    {
      "inputs": [
        {
          "internalType": "string",
          "name": "name",
          "type": "string"
        },
        {
          "internalType": "address",
          "name": "_owner",
          "type": "address"
        },
        {
          "internalType": "address",
          "name": "_world",
          "type": "address"
        },
        {
          "components": [
            {
              "internalType": "string",
              "name": "x",
              "type": "string"
            },
            {
              "internalType": "string",
              "name": "y",
              "type": "string"
            },
            {
              "internalType": "string",
              "name": "z",
              "type": "string"
            },
            {
              "internalType": "uint256",
              "name": "t",
              "type": "uint256"
            },
            {
              "internalType": "uint256",
              "name": "p",
              "type": "uint256"
            },
            {
              "internalType": "uint256",
              "name": "p_sub",
              "type": "uint256"
            }
          ],
          "internalType": "struct VectorAddress",
          "name": "vector",
          "type": "tuple"
        },
        {
          "internalType": "bytes",
          "name": "",
          "type": "bytes"
        }
      ],
      "name": "init",
      "outputs": [],
      "stateMutability": "nonpayable",
      "type": "function"
    },
    {
      "inputs": [
        {
          "internalType": "address",
          "name": "account",
          "type": "address"
        }
      ],
      "name": "isAdmin",
      "outputs": [
        {
          "internalType": "bool",
          "name": "",
          "type": "bool"
        }
      ],
      "stateMutability": "view",
      "type": "function"
    },
    {
      "inputs": [],
      "name": "isEntityActive",
      "outputs": [
        {
          "internalType": "bool",
          "name": "",
          "type": "bool"
        }
      ],
      "stateMutability": "view",
      "type": "function"
    },
    {
      "inputs": [],
      "name": "isRemoved",
      "outputs": [
        {
          "internalType": "bool",
          "name": "",
          "type": "bool"
        }
      ],
      "stateMutability": "view",
      "type": "function"
    },
    {
      "inputs": [
        {
          "internalType": "address",
          "name": "account",
          "type": "address"
        }
      ],
      "name": "isSigner",
      "outputs": [
        {
          "internalType": "bool",
          "name": "",
          "type": "bool"
        }
      ],
      "stateMutability": "view",
      "type": "function"
    },
    {
      "inputs": [
        {
          "internalType": "address",
          "name": "asset",
          "type": "address"
        },
        {
          "internalType": "address",
          "name": "to",
          "type": "address"
        },
        {
          "internalType": "bytes",
          "name": "data",
          "type": "bytes"
        }
      ],
      "name": "mintERC20",
      "outputs": [],
      "stateMutability": "nonpayable",
      "type": "function"
    },
    {
      "inputs": [
        {
          "internalType": "address",
          "name": "asset",
          "type": "address"
        },
        {
          "internalType": "address",
          "name": "to",
          "type": "address"
        },
        {
          "internalType": "bytes",
          "name": "data",
          "type": "bytes"
        }
      ],
      "name": "mintERC721",
      "outputs": [],
      "stateMutability": "nonpayable",
      "type": "function"
    },
    {
      "inputs": [],
      "name": "name",
      "outputs": [
        {
          "internalType": "string",
          "name": "",
          "type": "string"
        }
      ],
      "stateMutability": "view",
      "type": "function"
    },
    {
      "inputs": [],
      "name": "owner",
      "outputs": [
        {
          "internalType": "address",
          "name": "",
          "type": "address"
        }
      ],
      "stateMutability": "view",
      "type": "function"
    },
    {
      "inputs": [],
      "name": "reactivate",
      "outputs": [],
      "stateMutability": "nonpayable",
      "type": "function"
    },
    {
      "inputs": [
        {
          "internalType": "address",
          "name": "experience",
          "type": "address"
        }
      ],
      "name": "reactivateExperience",
      "outputs": [],
      "stateMutability": "nonpayable",
      "type": "function"
    },
    {
      "inputs": [
        {
          "internalType": "string",
          "name": "reason",
          "type": "string"
        }
      ],
      "name": "remove",
      "outputs": [],
      "stateMutability": "nonpayable",
      "type": "function"
    },
    {
      "inputs": [
        {
          "internalType": "address",
          "name": "asset",
          "type": "address"
        }
      ],
      "name": "removeAssetCondition",
      "outputs": [],
      "stateMutability": "nonpayable",
      "type": "function"
    },
    {
      "inputs": [
        {
          "internalType": "address",
          "name": "experience",
          "type": "address"
        },
        {
          "internalType": "string",
          "name": "reason",
          "type": "string"
        }
      ],
      "name": "removeExperience",
      "outputs": [],
      "stateMutability": "nonpayable",
      "type": "function"
    },
    {
      "inputs": [
        {
          "internalType": "address",
          "name": "experience",
          "type": "address"
        }
      ],
      "name": "removeExperienceCondition",
      "outputs": [],
      "stateMutability": "nonpayable",
      "type": "function"
    },
    {
      "inputs": [
        {
          "internalType": "address[]",
          "name": "signers",
          "type": "address[]"
        }
      ],
      "name": "removeSigners",
      "outputs": [],
      "stateMutability": "nonpayable",
      "type": "function"
    },
    {
      "inputs": [
        {
          "internalType": "address",
          "name": "asset",
          "type": "address"
        },
        {
          "internalType": "address",
          "name": "holder",
          "type": "address"
        },
        {
          "internalType": "bytes",
          "name": "data",
          "type": "bytes"
        }
      ],
      "name": "revokeERC20",
      "outputs": [],
      "stateMutability": "nonpayable",
      "type": "function"
    },
    {
      "inputs": [
        {
          "internalType": "address",
          "name": "asset",
          "type": "address"
        },
        {
          "internalType": "address",
          "name": "holder",
          "type": "address"
        },
        {
          "internalType": "bytes",
          "name": "data",
          "type": "bytes"
        }
      ],
      "name": "revokeERC721",
      "outputs": [],
      "stateMutability": "nonpayable",
      "type": "function"
    },
    {
      "inputs": [
        {
          "internalType": "bytes32",
          "name": "role",
          "type": "bytes32"
        },
        {
          "internalType": "address",
          "name": "account",
          "type": "address"
        }
      ],
      "name": "revokeRole",
      "outputs": [],
      "stateMutability": "nonpayable",
      "type": "function"
    },
    {
      "inputs": [],
      "name": "termsOwner",
      "outputs": [
        {
          "internalType": "address",
          "name": "",
          "type": "address"
        }
      ],
      "stateMutability": "view",
      "type": "function"
    },
    {
      "inputs": [],
      "name": "vectorAddress",
      "outputs": [
        {
          "components": [
            {
              "internalType": "string",
              "name": "x",
              "type": "string"
            },
            {
              "internalType": "string",
              "name": "y",
              "type": "string"
            },
            {
              "internalType": "string",
              "name": "z",
              "type": "string"
            },
            {
              "internalType": "uint256",
              "name": "t",
              "type": "uint256"
            },
            {
              "internalType": "uint256",
              "name": "p",
              "type": "uint256"
            },
            {
              "internalType": "uint256",
              "name": "p_sub",
              "type": "uint256"
            }
          ],
          "internalType": "struct VectorAddress",
          "name": "",
          "type": "tuple"
        }
      ],
      "stateMutability": "view",
      "type": "function"
    },
    {
      "inputs": [],
      "name": "version",
      "outputs": [
        {
          "components": [
            {
              "internalType": "uint16",
              "name": "major",
              "type": "uint16"
            },
            {
              "internalType": "uint16",
              "name": "minor",
              "type": "uint16"
            }
          ],
          "internalType": "struct Version",
          "name": "",
          "type": "tuple"
        }
      ],
      "stateMutability": "pure",
      "type": "function"
    },
    {
      "inputs": [
        {
          "internalType": "uint256",
          "name": "amount",
          "type": "uint256"
        }
      ],
      "name": "withdraw",
      "outputs": [],
      "stateMutability": "nonpayable",
      "type": "function"
    },
    {
      "inputs": [],
      "name": "world",
      "outputs": [
        {
          "internalType": "address",
          "name": "",
          "type": "address"
        }
      ],
      "stateMutability": "view",
      "type": "function"
    },
    {
      "stateMutability": "payable",
      "type": "receive"
    }
  ],
  "bytecode": "0x60c06040523480156200001157600080fd5b5060405162003c2b38038062003c2b833981016040819052620000349162000297565b80516001600160a01b03166200009b5760405162461bcd60e51b815260206004820152602160248201527f436f6d70616e793a20496e76616c696420636f6d70616e7920726567697374726044820152607960f81b60648201526084015b60405180910390fd5b60208101516001600160a01b0316620001035760405162461bcd60e51b8152602060048201526024808201527f436f6d70616e793a20496e76616c696420657870657269656e636520726567696044820152637374727960e01b606482015260840162000092565b60408101516001600160a01b03166200015f5760405162461bcd60e51b815260206004820152601f60248201527f436f6d70616e793a20496e76616c696420657263323020726567697374727900604482015260640162000092565b60608101516001600160a01b0316620001bb5760405162461bcd60e51b815260206004820181905260248201527f436f6d70616e793a20496e76616c696420657263373231207265676973747279604482015260640162000092565b60808101516001600160a01b0316620002175760405162461bcd60e51b815260206004820181905260248201527f436f6d70616e793a20496e76616c696420617661746172207265676973747279604482015260640162000092565b80516001600160a01b0390811660809081526020830151821660a0526040830151600080546001600160a01b031990811692851692909217905560608401516001805483169185169190911790559201516002805490931691161790556200033e565b80516001600160a01b03811681146200029257600080fd5b919050565b600060a08284031215620002aa57600080fd5b60405160a081016001600160401b0381118282101715620002db57634e487b7160e01b600052604160045260246000fd5b604052620002e9836200027a565b8152620002f9602084016200027a565b60208201526200030c604084016200027a565b60408201526200031f606084016200027a565b606082015262000332608084016200027a565b60808201529392505050565b60805160a0516138ab62000380600039600061062a0152600081816106de0152818161098f01528181610ea7015281816118080152611f8501526138ab6000f3fe6080604052600436106102555760003560e01c806380599e4b116101395780639e29186d116100b6578063d547741f1161007a578063d547741f14610735578063d802a9a214610755578063e3d7ad7314610775578063e8906a2d14610795578063fcc11184146107b5578063fee3df4c146107d557600080fd5b80639e29186d1461068c578063a6f9dae1146106ac578063c51aba2b146106cc578063ca6d442914610700578063d18611d61461072057600080fd5b80638e718bf7116100fd5780638e718bf7146105d85780638e879f04146105f85780638f09a6be1461061857806391d148541461064c5780639aa405a21461066c57600080fd5b806380599e4b1461054e57806386b70bed1461056e5780638a4142c5146105835780638d361e43146105a35780638da5cb5b146105c357600080fd5b80632e1a7d4d116101d257806354fd4d501161019657806354fd4d501461048c57806357433ea6146104d95780636330347a146104f957806369bd9194146104575780637df73e27146105195780637e6e15511461053957600080fd5b80632e1a7d4d146103f55780632f2ff15d146104155780632fcbab9a1461043557806330b67baa146104575780635076d6e21461046c57600080fd5b806316c49b111161021957806316c49b1114610336578063243546a61461035657806324d7806c1461039557806327ee999d146103b557806329f2691d146103d557600080fd5b80630346f5f51461026157806306fdde0314610283578063108790d1146102ae57806312d3e5e1146102ce57806314569d601461030657600080fd5b3661025c57005b600080fd5b34801561026d57600080fd5b5061028161027c366004612c76565b6107f5565b005b34801561028f57600080fd5b506102986108ec565b6040516102a59190612ce8565b60405180910390f35b3480156102ba57600080fd5b506102816102c9366004612d43565b610984565b3480156102da57600080fd5b506000546102ee906001600160a01b031681565b6040516001600160a01b0390911681526020016102a5565b34801561031257600080fd5b50610326610321366004612e08565b610b41565b60405190151581526020016102a5565b34801561034257600080fd5b50610281610351366004612e6c565b610b8d565b34801561036257600080fd5b50610376610371366004612f79565b610cd9565b604080516001600160a01b0390931683526020830191909152016102a5565b3480156103a157600080fd5b506103266103b0366004613020565b610e16565b3480156103c157600080fd5b506102816103d036600461303d565b610e9c565b3480156103e157600080fd5b506102816103f0366004613020565b610f3a565b34801561040157600080fd5b50610281610410366004613079565b61101f565b34801561042157600080fd5b50610281610430366004613092565b6111e5565b34801561044157600080fd5b5061044a6112e3565b6040516102a59190613135565b34801561046357600080fd5b506102ee61150b565b34801561047857600080fd5b50610281610487366004612e08565b61152a565b34801561049857600080fd5b50604080518082018252600080825260209182018190528251808401845260018082529083019182528351908152905161ffff1691810191909152016102a5565b3480156104e557600080fd5b506102816104f4366004613148565b611596565b34801561050557600080fd5b50610281610514366004613148565b6116e5565b34801561052557600080fd5b50610326610534366004613020565b6117a2565b34801561054557600080fd5b506103266117e5565b34801561055a57600080fd5b5061028161056936600461303d565b6117fd565b34801561057a57600080fd5b506103266118ff565b34801561058f57600080fd5b5061028161059e366004612e08565b611912565b3480156105af57600080fd5b506102816105be366004613176565b611a1f565b3480156105cf57600080fd5b506102ee611ae7565b3480156105e457600080fd5b506102816105f3366004612e08565b611b5b565b34801561060457600080fd5b50610326610613366004612e08565b611bc1565b34801561062457600080fd5b506102ee7f000000000000000000000000000000000000000000000000000000000000000081565b34801561065857600080fd5b50610326610667366004613092565b611c04565b34801561067857600080fd5b50610281610687366004612e08565b611c91565b34801561069857600080fd5b506102816106a7366004613020565b611cea565b3480156106b857600080fd5b506102816106c7366004613020565b611e46565b3480156106d857600080fd5b506102ee7f000000000000000000000000000000000000000000000000000000000000000081565b34801561070c57600080fd5b506001546102ee906001600160a01b031681565b34801561072c57600080fd5b50610281611f7a565b34801561074157600080fd5b50610281610750366004613092565b612008565b34801561076157600080fd5b50610281610770366004613020565b6120de565b34801561078157600080fd5b506002546102ee906001600160a01b031681565b3480156107a157600080fd5b506102816107b0366004613176565b61219f565b3480156107c157600080fd5b506102816107d03660046131ea565b612267565b3480156107e157600080fd5b506102816107f03660046131ea565b612354565b604051630935e01b60e21b815233600482015273__$a5a42e46683ad9c79b7b86d5ff60fdf4c1$__906324d7806c90602401602060405180830381865af4158015610844573d6000803e3d6000fd5b505050506040513d601f19601f82011682018060405250810190610868919061323e565b61088d5760405162461bcd60e51b815260040161088490613260565b60405180910390fd5b6040516383c3426360e01b8152600481018290526001600160a01b038316906383c34263906024015b600060405180830381600087803b1580156108d057600080fd5b505af11580156108e4573d6000803e3d6000fd5b505050505050565b60606108f661242a565b805461090190613295565b80601f016020809104026020016040519081016040528092919081815260200182805461092d90613295565b801561097a5780601f1061094f5761010080835404028352916020019161097a565b820191906000526020600020905b81548152906001019060200180831161095d57829003601f168201915b5050505050905090565b336001600160a01b037f000000000000000000000000000000000000000000000000000000000000000016146109cc5760405162461bcd60e51b8152600401610884906132cf565b6001600160a01b038516610a1b5760405162461bcd60e51b815260206004820152601660248201527521b7b6b830b73c9d1024b73b30b634b21037bbb732b960511b6044820152606401610884565b6001600160a01b038416610a6a5760405162461bcd60e51b815260206004820152601660248201527510dbdb5c185b9e4e88125b9d985b1a59081ddbdc9b1960521b6044820152606401610884565b8686610a7461242a565b91610a80919083613361565b506000610a8b6124b7565b8054600161ff01600160b01b0319909116620100006001600160a01b03891602178117825590915084908201610ac18282613466565b50506040805160008152602081019182905263d9ac971f60e01b90915273__$a5a42e46683ad9c79b7b86d5ff60fdf4c1$__63d9ac971f610b06898460248101613589565b60006040518083038186803b158015610b1e57600080fd5b505af4158015610b32573d6000803e3d6000fd5b50505050505050505050505050565b6000610b4b6124b7565b5460ff16610b6b5760405162461bcd60e51b8152600401610884906135e5565b600054610b84906001600160a01b03168686868661251c565b95945050505050565b610b96336117a2565b610bb25760405162461bcd60e51b81526004016108849061361c565b6000610bc16020830183613020565b9050806001600160a01b0316637dc759e560405180606001604052808560200135815260200185604001358152602001858060600190610c019190613420565b8080601f01602080910402602001604051908101604052809392919081815260200183838082843760009201919091525050509152506040516001600160e01b031960e084901b168152610c58919060040161364a565b600060405180830381600087803b158015610c7257600080fd5b505af1158015610c86573d6000803e3d6000fd5b50505050604082013560208301803590610ca09085613020565b6001600160a01b03167fa91163c384fd7aaeb9af411ac3a6fb176839758a072ab72d1d322e80fa64205f60405160405180910390a45050565b600080610ce5336117a2565b610d015760405162461bcd60e51b81526004016108849061361c565b6000610d0b6112e3565b90506000610d17612a1a565b90508060000160008154610d2a9061368f565b90915550805460a0830152604080516060810182528381528651602080830191909152870151918101919091526000610d6161150b565b6040516305117adf60e31b81529091506001600160a01b0382169063288bd6f890610d909085906004016136a8565b60408051808303816000875af1158015610dae573d6000803e3d6000fd5b505050506040513d601f19601f82011682018060405250810190610dd29190613700565b604051919750955085906001600160a01b038816907fdd1416df66cb3941d0ab5716b19acf9c3c0f4afbd2bfe67a0d6a8f6ab6d3afc890600090a350505050915091565b604051630935e01b60e21b81526001600160a01b038216600482015260009073__$a5a42e46683ad9c79b7b86d5ff60fdf4c1$__906324d7806c906024015b602060405180830381865af4158015610e72573d6000803e3d6000fd5b505050506040513d601f19601f82011682018060405250810190610e96919061323e565b92915050565b336001600160a01b037f00000000000000000000000000000000000000000000000000000000000000001614610ee45760405162461bcd60e51b8152600401610884906132cf565b6000610eee6124b7565b805460ff191691151591909117905560405133907f246589c99dd263c9b64a2b544e24074c282ca479ba3d2a0e649f9eeaca1e2d6290610f2f908490612ce8565b60405180910390a250565b604051630935e01b60e21b815233600482015273__$a5a42e46683ad9c79b7b86d5ff60fdf4c1$__906324d7806c90602401602060405180830381865af4158015610f89573d6000803e3d6000fd5b505050506040513d601f19601f82011682018060405250810190610fad919061323e565b610fc95760405162461bcd60e51b815260040161088490613260565b806001600160a01b031663021665b76040518163ffffffff1660e01b8152600401600060405180830381600087803b15801561100457600080fd5b505af1158015611018573d6000803e3d6000fd5b5050505050565b336001600160a01b031673__$a5a42e46683ad9c79b7b86d5ff60fdf4c1$__638da5cb5b6040518163ffffffff1660e01b8152600401602060405180830381865af4158015611072573d6000803e3d6000fd5b505050506040513d601f19601f82011682018060405250810190611096919061372e565b6001600160a01b0316146110ec5760405162461bcd60e51b815260206004820152601f60248201527f426173654163636573733a207265737472696374656420746f206f776e6572006044820152606401610884565b4781101561113c5760405162461bcd60e51b815260206004820152601b60248201527f436f6d70616e793a20496e73756666696369656e742066756e647300000000006044820152606401610884565b73__$a5a42e46683ad9c79b7b86d5ff60fdf4c1$__638da5cb5b6040518163ffffffff1660e01b8152600401602060405180830381865af4158015611185573d6000803e3d6000fd5b505050506040513d601f19601f820116820180604052508101906111a9919061372e565b6001600160a01b03166108fc829081150290604051600060405180830381858888f193505050501580156111e1573d6000803e3d6000fd5b5050565b604051630935e01b60e21b815233600482015273__$a5a42e46683ad9c79b7b86d5ff60fdf4c1$__906324d7806c90602401602060405180830381865af4158015611234573d6000803e3d6000fd5b505050506040513d601f19601f82011682018060405250810190611258919061323e565b6112745760405162461bcd60e51b815260040161088490613260565b604051632f2ff15d60e01b8152600481018390526001600160a01b038216602482015273__$a5a42e46683ad9c79b7b86d5ff60fdf4c1$__90632f2ff15d906044015b60006040518083038186803b1580156112cf57600080fd5b505af41580156108e4573d6000803e3d6000fd5b61131c6040518060c001604052806060815260200160608152602001606081526020016000815260200160008152602001600081525090565b6113246124b7565b6001016040518060c001604052908160008201805461134290613295565b80601f016020809104026020016040519081016040528092919081815260200182805461136e90613295565b80156113bb5780601f10611390576101008083540402835291602001916113bb565b820191906000526020600020905b81548152906001019060200180831161139e57829003601f168201915b505050505081526020016001820180546113d490613295565b80601f016020809104026020016040519081016040528092919081815260200182805461140090613295565b801561144d5780601f106114225761010080835404028352916020019161144d565b820191906000526020600020905b81548152906001019060200180831161143057829003601f168201915b5050505050815260200160028201805461146690613295565b80601f016020809104026020016040519081016040528092919081815260200182805461149290613295565b80156114df5780601f106114b4576101008083540402835291602001916114df565b820191906000526020600020905b8154815290600101906020018083116114c257829003601f168201915b505050505081526020016003820154815260200160048201548152602001600582015481525050905090565b60006115156124b7565b546201000090046001600160a01b0316919050565b611533336117a2565b61154f5760405162461bcd60e51b81526004016108849061361c565b6115576124b7565b5460ff166115775760405162461bcd60e51b8152600401610884906135e5565b600054611590906001600160a01b031685858585612a77565b50505050565b604051630935e01b60e21b815233600482015273__$a5a42e46683ad9c79b7b86d5ff60fdf4c1$__906324d7806c90602401602060405180830381865af41580156115e5573d6000803e3d6000fd5b505050506040513d601f19601f82011682018060405250810190611609919061323e565b6116255760405162461bcd60e51b815260040161088490613260565b306001600160a01b0316826001600160a01b0316636904c94d6040518163ffffffff1660e01b8152600401602060405180830381865afa15801561166d573d6000803e3d6000fd5b505050506040513d601f19601f82011682018060405250810190611691919061372e565b6001600160a01b0316146116b75760405162461bcd60e51b81526004016108849061374b565b6040516337eff0db60e11b81526001600160a01b038281166004830152831690636fdfe1b6906024016108b6565b604051630935e01b60e21b815233600482015273__$a5a42e46683ad9c79b7b86d5ff60fdf4c1$__906324d7806c90602401602060405180830381865af4158015611734573d6000803e3d6000fd5b505050506040513d601f19601f82011682018060405250810190611758919061323e565b6117745760405162461bcd60e51b815260040161088490613260565b604051636acd648160e01b81526001600160a01b038281166004830152831690636acd6481906024016108b6565b604051637df73e2760e01b81526001600160a01b038216600482015260009073__$a5a42e46683ad9c79b7b86d5ff60fdf4c1$__90637df73e2790602401610e55565b60006117ef6124b7565b54610100900460ff16919050565b336001600160a01b037f000000000000000000000000000000000000000000000000000000000000000016146118455760405162461bcd60e51b8152600401610884906132cf565b61184d6124b7565b5460ff16156118ad5760405162461bcd60e51b815260206004820152602660248201527f52656d6f7661626c65456e746974793a206d757374206465616374697661746560448201526508199a5c9cdd60d21b6064820152608401610884565b60016118b76124b7565b80549115156101000261ff001990921691909117905560405133907fbf430175840309fcb4cce13557429998477f9f95733cb0d42c170af8aa225d0690610f2f908490612ce8565b60006119096124b7565b5460ff16919050565b61191b336117a2565b6119375760405162461bcd60e51b81526004016108849061361c565b61193f6124b7565b5460ff1661195f5760405162461bcd60e51b8152600401610884906135e5565b61196b84848484611bc1565b6119b75760405162461bcd60e51b815260206004820152601a60248201527f436f6d70616e793a2063616e6e6f74206d696e742061737365740000000000006044820152606401610884565b60405163b510391f60e01b81526001600160a01b0385169063b510391f906119e7908690869086906004016137c2565b600060405180830381600087803b158015611a0157600080fd5b505af1158015611a15573d6000803e3d6000fd5b5050505050505050565b604051630935e01b60e21b815233600482015273__$a5a42e46683ad9c79b7b86d5ff60fdf4c1$__906324d7806c90602401602060405180830381865af4158015611a6e573d6000803e3d6000fd5b505050506040513d601f19601f82011682018060405250810190611a92919061323e565b611aae5760405162461bcd60e51b815260040161088490613260565b604051638d361e4360e01b815273__$a5a42e46683ad9c79b7b86d5ff60fdf4c1$__90638d361e43906112b790859085906004016137e7565b600073__$a5a42e46683ad9c79b7b86d5ff60fdf4c1$__638da5cb5b6040518163ffffffff1660e01b8152600401602060405180830381865af4158015611b32573d6000803e3d6000fd5b505050506040513d601f19601f82011682018060405250810190611b56919061372e565b905090565b611b64336117a2565b611b805760405162461bcd60e51b81526004016108849061361c565b611b886124b7565b5460ff16611ba85760405162461bcd60e51b8152600401610884906135e5565b600154611590906001600160a01b031685858585612a77565b6000611bcb6124b7565b5460ff16611beb5760405162461bcd60e51b8152600401610884906135e5565b600154610b84906001600160a01b03168686868661251c565b604051632474521560e21b8152600481018390526001600160a01b038216602482015260009073__$a5a42e46683ad9c79b7b86d5ff60fdf4c1$__906391d1485490604401602060405180830381865af4158015611c66573d6000803e3d6000fd5b505050506040513d601f19601f82011682018060405250810190611c8a919061323e565b9392505050565b611c9a336117a2565b611cb65760405162461bcd60e51b81526004016108849061361c565b611cbe6124b7565b5460ff16611cde5760405162461bcd60e51b8152600401610884906135e5565b61196b84848484610b41565b604051630935e01b60e21b815233600482015273__$a5a42e46683ad9c79b7b86d5ff60fdf4c1$__906324d7806c90602401602060405180830381865af4158015611d39573d6000803e3d6000fd5b505050506040513d601f19601f82011682018060405250810190611d5d919061323e565b611d795760405162461bcd60e51b815260040161088490613260565b306001600160a01b0316816001600160a01b0316636904c94d6040518163ffffffff1660e01b8152600401602060405180830381865afa158015611dc1573d6000803e3d6000fd5b505050506040513d601f19601f82011682018060405250810190611de5919061372e565b6001600160a01b031614611e0b5760405162461bcd60e51b81526004016108849061374b565b806001600160a01b03166358779dcf6040518163ffffffff1660e01b8152600401600060405180830381600087803b15801561100457600080fd5b336001600160a01b031673__$a5a42e46683ad9c79b7b86d5ff60fdf4c1$__638da5cb5b6040518163ffffffff1660e01b8152600401602060405180830381865af4158015611e99573d6000803e3d6000fd5b505050506040513d601f19601f82011682018060405250810190611ebd919061372e565b6001600160a01b031614611f135760405162461bcd60e51b815260206004820152601f60248201527f426173654163636573733a207265737472696374656420746f206f776e6572006044820152606401610884565b6040516313af403560e01b81526001600160a01b038216600482015273__$a5a42e46683ad9c79b7b86d5ff60fdf4c1$__906313af40359060240160006040518083038186803b158015611f6657600080fd5b505af4158015611018573d6000803e3d6000fd5b336001600160a01b037f00000000000000000000000000000000000000000000000000000000000000001614611fc25760405162461bcd60e51b8152600401610884906132cf565b6001611fcc6124b7565b805460ff191691151591909117905560405133907f54ca6a4cb143be493713a7079cc0d6cdbbf0688ee68398b4354b056088f2cbf590600090a2565b604051630935e01b60e21b815233600482015273__$a5a42e46683ad9c79b7b86d5ff60fdf4c1$__906324d7806c90602401602060405180830381865af4158015612057573d6000803e3d6000fd5b505050506040513d601f19601f8201168201806040525081019061207b919061323e565b6120975760405162461bcd60e51b815260040161088490613260565b60405163d547741f60e01b8152600481018390526001600160a01b038216602482015273__$a5a42e46683ad9c79b7b86d5ff60fdf4c1$__9063d547741f906044016112b7565b6120e7336117a2565b6121035760405162461bcd60e51b81526004016108849061361c565b61210b61150b565b604051636c0154d160e11b81526001600160a01b038381166004830152919091169063d802a9a290602401600060405180830381600087803b15801561215057600080fd5b505af1158015612164573d6000803e3d6000fd5b50506040516001600160a01b03841692507fd7e0376b54023f1e8815a6ea5ec645b5f27e7d78eb66542e2ace843add91d17a9150600090a250565b604051630935e01b60e21b815233600482015273__$a5a42e46683ad9c79b7b86d5ff60fdf4c1$__906324d7806c90602401602060405180830381865af41580156121ee573d6000803e3d6000fd5b505050506040513d601f19601f82011682018060405250810190612212919061323e565b61222e5760405162461bcd60e51b815260040161088490613260565b60405163e8906a2d60e01b815273__$a5a42e46683ad9c79b7b86d5ff60fdf4c1$__9063e8906a2d906112b790859085906004016137e7565b612270336117a2565b61228c5760405162461bcd60e51b81526004016108849061361c565b600061229661150b565b6001600160a01b031663fcc111848585856040518463ffffffff1660e01b81526004016122c5939291906137c2565b6020604051808303816000875af11580156122e4573d6000803e3d6000fd5b505050506040513d601f19601f820116820180604052508101906123089190613835565b905080846001600160a01b03167f70b2ea755cbec8f93041a2abb839b4f9a525a06fd1a4453d1f2f1e30da3a016b858560405161234692919061384e565b60405180910390a350505050565b61235d336117a2565b6123795760405162461bcd60e51b81526004016108849061361c565b61238161150b565b6001600160a01b031663464570b68484846040518463ffffffff1660e01b81526004016123b0939291906137c2565b600060405180830381600087803b1580156123ca57600080fd5b505af11580156123de573d6000803e3d6000fd5b50505050826001600160a01b03167fc91cc589ef4d878043f7e06130f3d528ea3c4a576304e36f5a59ff581289df7d838360405161241d92919061384e565b60405180910390a2505050565b60408051808201909152601481527378722e656e746974792e73746f726167652e763160601b60209091015260008060ff61248660017fdefc82a28b6578c2a63b29b15450260a5e998242a6300b7fcb30814ee74ae188613862565b60405160200161249891815260200190565b60408051601f1981840301815291905280516020909101201692915050565b60408051808201909152601881527f78722e61637469766174696f6e2e73746f726167652e7631000000000000000060209091015260008060ff61248660017ff6611e962a52dbc98dd0485088d920890c43e26113c61976f6e171a29d49ce49613862565b60405163c3c5a54760e01b81526001600160a01b0385811660048301526000919087169063c3c5a54790602401602060405180830381865afa158015612566573d6000803e3d6000fd5b505050506040513d601f19601f8201168201806040525081019061258a919061323e565b6125d65760405162461bcd60e51b815260206004820152601d60248201527f436f6d70616e793a206173736574206e6f7420726567697374657265640000006044820152606401610884565b6000859050306001600160a01b0316816001600160a01b0316631d1438486040518163ffffffff1660e01b8152600401602060405180830381865afa158015612623573d6000803e3d6000fd5b505050506040513d601f19601f82011682018060405250810190612647919061372e565b6001600160a01b03161461269d5760405162461bcd60e51b815260206004820152601c60248201527f436f6d70616e793a206e6f7420697373756572206f66206173736574000000006044820152606401610884565b604051634f2a605160e11b81526001600160a01b03821690639e54c0a2906126cd908890889088906004016137c2565b602060405180830381865afa1580156126ea573d6000803e3d6000fd5b505050506040513d601f19601f8201168201806040525081019061270e919061323e565b61275a5760405162461bcd60e51b815260206004820152601f60248201527f436f6d70616e793a2063616e6e6f74206d696e7420746f2061646472657373006044820152606401610884565b60025460405163c3c5a54760e01b81526001600160a01b0387811660048301529091169063c3c5a54790602401602060405180830381865afa1580156127a4573d6000803e3d6000fd5b505050506040513d601f19601f820116820180604052508101906127c8919061323e565b6127d6576001915050610b84565b6000859050806001600160a01b031663181d939b6040518163ffffffff1660e01b8152600401602060405180830381865afa158015612819573d6000803e3d6000fd5b505050506040513d601f19601f8201168201806040525081019061283d919061323e565b612a0c576000816001600160a01b031663516f279e6040518163ffffffff1660e01b8152600401602060405180830381865afa158015612881573d6000803e3d6000fd5b505050506040513d601f19601f820116820180604052508101906128a5919061372e565b90506001600160a01b0381166129135760405162461bcd60e51b815260206004820152602d60248201527f436f6d70616e793a20617661746172206c6f636174696f6e206973206e6f742060448201526c616e20657870657269656e636560981b6064820152608401610884565b306001600160a01b0316816001600160a01b0316636904c94d6040518163ffffffff1660e01b8152600401602060405180830381865afa15801561295b573d6000803e3d6000fd5b505050506040513d601f19601f8201168201806040525081019061297f919061372e565b6001600160a01b031614612a0a5760405162461bcd60e51b815260206004820152604660248201527f436f6d70616e793a20617661746172206c6f636174696f6e206973206e6f742060448201527f696e20616e20657870657269656e6365206f776e6564206279207468697320636064820152656f6d70616e7960d01b608482015260a401610884565b505b506001979650505050505050565b60408051808201909152601581527478722e636f6d70616e792e73746f726167652e763160581b60209091015260008060ff61248660017fb15f88c380b1fa3feb414afd39103c83bfc20f8be60af2ce4a47137881ead482613862565b60405163c3c5a54760e01b81526001600160a01b03858116600483015286169063c3c5a54790602401602060405180830381865afa158015612abd573d6000803e3d6000fd5b505050506040513d601f19601f82011682018060405250810190612ae1919061323e565b612b2d5760405162461bcd60e51b815260206004820152601d60248201527f436f6d70616e793a206173736574206e6f7420726567697374657265640000006044820152606401610884565b6000849050306001600160a01b0316816001600160a01b0316631d1438486040518163ffffffff1660e01b8152600401602060405180830381865afa158015612b7a573d6000803e3d6000fd5b505050506040513d601f19601f82011682018060405250810190612b9e919061372e565b6001600160a01b031614612bf45760405162461bcd60e51b815260206004820152601c60248201527f436f6d70616e793a206e6f7420697373756572206f66206173736574000000006044820152606401610884565b6040516326a5ce1160e21b81526001600160a01b03821690639a97384490612c24908790879087906004016137c2565b600060405180830381600087803b158015612c3e57600080fd5b505af1158015612c52573d6000803e3d6000fd5b50505050505050505050565b6001600160a01b0381168114612c7357600080fd5b50565b60008060408385031215612c8957600080fd5b8235612c9481612c5e565b946020939093013593505050565b6000815180845260005b81811015612cc857602081850181015186830182015201612cac565b506000602082860101526020601f19601f83011685010191505092915050565b602081526000611c8a6020830184612ca2565b60008083601f840112612d0d57600080fd5b5081356001600160401b03811115612d2457600080fd5b602083019150836020828501011115612d3c57600080fd5b9250929050565b600080600080600080600060a0888a031215612d5e57600080fd5b87356001600160401b0380821115612d7557600080fd5b612d818b838c01612cfb565b909950975060208a01359150612d9682612c5e565b909550604089013590612da882612c5e565b90945060608901359080821115612dbe57600080fd5b9089019060c0828c031215612dd257600080fd5b90935060808901359080821115612de857600080fd5b50612df58a828b01612cfb565b989b979a50959850939692959293505050565b60008060008060608587031215612e1e57600080fd5b8435612e2981612c5e565b93506020850135612e3981612c5e565b925060408501356001600160401b03811115612e5457600080fd5b612e6087828801612cfb565b95989497509550505050565b600060208284031215612e7e57600080fd5b81356001600160401b03811115612e9457600080fd5b820160808185031215611c8a57600080fd5b634e487b7160e01b600052604160045260246000fd5b604080519081016001600160401b0381118282101715612ede57612ede612ea6565b60405290565b60006001600160401b0380841115612efe57612efe612ea6565b604051601f8501601f19908116603f01168101908282118183101715612f2657612f26612ea6565b81604052809350858152868686011115612f3f57600080fd5b858560208301376000602087830101525050509392505050565b600082601f830112612f6a57600080fd5b611c8a83833560208501612ee4565b600060208284031215612f8b57600080fd5b81356001600160401b0380821115612fa257600080fd5b9083019060408286031215612fb657600080fd5b612fbe612ebc565b823582811115612fcd57600080fd5b612fd987828601612f59565b825250602083013582811115612fee57600080fd5b80840193505085601f84011261300357600080fd5b61301286843560208601612ee4565b602082015295945050505050565b60006020828403121561303257600080fd5b8135611c8a81612c5e565b60006020828403121561304f57600080fd5b81356001600160401b0381111561306557600080fd5b61307184828501612f59565b949350505050565b60006020828403121561308b57600080fd5b5035919050565b600080604083850312156130a557600080fd5b8235915060208301356130b781612c5e565b809150509250929050565b6000815160c084526130d760c0850182612ca2565b9050602083015184820360208601526130f08282612ca2565b9150506040830151848203604086015261310a8282612ca2565b915050606083015160608501526080830151608085015260a083015160a08501528091505092915050565b602081526000611c8a60208301846130c2565b6000806040838503121561315b57600080fd5b823561316681612c5e565b915060208301356130b781612c5e565b6000806020838503121561318957600080fd5b82356001600160401b03808211156131a057600080fd5b818501915085601f8301126131b457600080fd5b8135818111156131c357600080fd5b8660208260051b85010111156131d857600080fd5b60209290920196919550909350505050565b6000806000604084860312156131ff57600080fd5b833561320a81612c5e565b925060208401356001600160401b0381111561322557600080fd5b61323186828701612cfb565b9497909650939450505050565b60006020828403121561325057600080fd5b81518015158114611c8a57600080fd5b6020808252818101527f426173654163636573733a207265737472696374656420746f2061646d696e73604082015260600190565b600181811c908216806132a957607f821691505b6020821081036132c957634e487b7160e01b600052602260045260246000fd5b50919050565b60208082526025908201527f52656d6f7661626c65456e746974793a206f6e6c79206f776e696e6720726567604082015264697374727960d81b606082015260800190565b601f82111561335c576000816000526020600020601f850160051c8101602086101561333d5750805b601f850160051c820191505b818110156108e457828155600101613349565b505050565b6001600160401b0383111561337857613378612ea6565b61338c836133868354613295565b83613314565b6000601f8411600181146133c057600085156133a85750838201355b600019600387901b1c1916600186901b178355611018565b600083815260209020601f19861690835b828110156133f157868501358255602094850194600190920191016133d1565b508682101561340e5760001960f88860031b161c19848701351681555b505060018560011b0183555050505050565b6000808335601e1984360301811261343757600080fd5b8301803591506001600160401b0382111561345157600080fd5b602001915036819003821315612d3c57600080fd5b6134708283613420565b6001600160401b0381111561348757613487612ea6565b61349b816134958554613295565b85613314565b6000601f8211600181146134cf57600083156134b75750838201355b600019600385901b1c1916600184901b178555613529565b600085815260209020601f19841690835b8281101561350057868501358255602094850194600190920191016134e0565b508482101561351d5760001960f88660031b161c19848701351681555b505060018360011b0185555b5050505061353a6020830183613420565b613548818360018601613361565b50506135576040830183613420565b613565818360028601613361565b5050606082013560038201556080820135600482015560a082013560058201555050565b6001600160a01b038381168252604060208084018290528451918401829052600092858201929091906060860190855b818110156135d75785518516835294830194918301916001016135b9565b509098975050505050505050565b6020808252601e908201527f436f6d70616e793a20436f6d70616e79206973206e6f74206163746976650000604082015260600190565b602080825260149082015273456e746974793a206f6e6c79207369676e65727360601b604082015260600190565b602081528151602082015260208201516040820152600060408301516060808401526130716080840182612ca2565b634e487b7160e01b600052601160045260246000fd5b6000600182016136a1576136a1613679565b5060010190565b6020815260008251606060208401526136c460808401826130c2565b90506020840151601f19808584030160408601526136e28383612ca2565b9250604086015191508085840301606086015250610b848282612ca2565b6000806040838503121561371357600080fd5b825161371e81612c5e565b6020939093015192949293505050565b60006020828403121561374057600080fd5b8151611c8a81612c5e565b6020808252602e908201527f436f6d70616e793a20457870657269656e636520646f6573206e6f742062656c60408201526d6f6e6720746f20636f6d70616e7960901b606082015260800190565b81835281816020850137506000828201602090810191909152601f909101601f19169091010190565b6001600160a01b0384168152604060208201819052600090610b849083018486613799565b60208082528181018390526000908460408401835b8681101561382a57823561380f81612c5e565b6001600160a01b0316825291830191908301906001016137fc565b509695505050505050565b60006020828403121561384757600080fd5b5051919050565b602081526000613071602083018486613799565b81810381811115610e9657610e9661367956fea2646970667358221220c97f7620e81b9d61729fba213881b56d971d208eb455ba4b4d4d231d3e850fcc64736f6c63430008180033",
  "linkReferences": {
    "contracts/libraries/LibAccess.sol": {
      "LibAccess": [
        {
          "length": 20,
          "start": 2954
        },
        {
          "length": 20,
          "start": 3680
        },
        {
          "length": 20,
          "start": 4535
        },
        {
          "length": 20,
          "start": 4815
        },
        {
          "length": 20,
          "start": 5035
        },
        {
          "length": 20,
          "start": 5310
        },
        {
          "length": 20,
          "start": 5498
        },
        {
          "length": 20,
          "start": 5657
        },
        {
          "length": 20,
          "start": 6443
        },
        {
          "length": 20,
          "start": 6778
        },
        {
          "length": 20,
          "start": 6979
        },
        {
          "length": 20,
          "start": 7604
        },
        {
          "length": 20,
          "start": 7741
        },
        {
          "length": 20,
          "start": 7787
        },
        {
          "length": 20,
          "start": 8108
        },
        {
          "length": 20,
          "start": 8319
        },
        {
          "length": 20,
          "start": 8658
        },
        {
          "length": 20,
          "start": 8881
        },
        {
          "length": 20,
          "start": 9117
        },
        {
          "length": 20,
          "start": 9276
        },
        {
          "length": 20,
          "start": 9524
        },
        {
          "length": 20,
          "start": 9661
        }
      ]
    }
  },
  "deployedLinkReferences": {
    "contracts/libraries/LibAccess.sol": {
      "LibAccess": [
        {
          "length": 20,
          "start": 2058
        },
        {
          "length": 20,
          "start": 2784
        },
        {
          "length": 20,
          "start": 3639
        },
        {
          "length": 20,
          "start": 3919
        },
        {
          "length": 20,
          "start": 4139
        },
        {
          "length": 20,
          "start": 4414
        },
        {
          "length": 20,
          "start": 4602
        },
        {
          "length": 20,
          "start": 4761
        },
        {
          "length": 20,
          "start": 5547
        },
        {
          "length": 20,
          "start": 5882
        },
        {
          "length": 20,
          "start": 6083
        },
        {
          "length": 20,
          "start": 6708
        },
        {
          "length": 20,
          "start": 6845
        },
        {
          "length": 20,
          "start": 6891
        },
        {
          "length": 20,
          "start": 7212
        },
        {
          "length": 20,
          "start": 7423
        },
        {
          "length": 20,
          "start": 7762
        },
        {
          "length": 20,
          "start": 7985
        },
        {
          "length": 20,
          "start": 8221
        },
        {
          "length": 20,
          "start": 8380
        },
        {
          "length": 20,
          "start": 8628
        },
        {
          "length": 20,
          "start": 8765
        }
      ]
    }
  }
}