{
  "_format": "hh-sol-artifact-1",
  "contractName": "CompanyJumpExt",
  "sourceName": "contracts/extensions/company/CompanyJumpExt.sol",
  "abi": [
    {
      "inputs": [
        {
          "internalType": "uint256",
          "name": "value",
          "type": "uint256"
        },
        {
          "internalType": "uint256",
          "name": "length",
          "type": "uint256"
        }
      ],
      "name": "StringsInsufficientHexLength",
      "type": "error"
    },
    {
      "anonymous": false,
      "inputs": [
        {
          "indexed": true,
          "internalType": "address",
          "name": "avatar",
          "type": "address"
        },
        {
          "indexed": true,
          "internalType": "uint256",
          "name": "portalId",
          "type": "uint256"
        },
        {
          "indexed": true,
          "internalType": "uint256",
          "name": "fee",
          "type": "uint256"
        }
      ],
      "name": "CompanyJumpedForAvatar",
      "type": "event"
    },
    {
      "inputs": [
        {
          "components": [
            {
              "internalType": "address",
              "name": "avatar",
              "type": "address"
            },
            {
              "internalType": "uint256",
              "name": "portalId",
              "type": "uint256"
            },
            {
              "internalType": "uint256",
              "name": "agreedFee",
              "type": "uint256"
            },
            {
              "internalType": "bytes",
              "name": "avatarOwnerSignature",
              "type": "bytes"
            }
          ],
          "internalType": "struct DelegatedAvatarJumpRequest",
          "name": "request",
          "type": "tuple"
        }
      ],
      "name": "delegateJumpForAvatar",
      "outputs": [],
      "stateMutability": "nonpayable",
      "type": "function"
    },
    {
      "inputs": [
        {
          "internalType": "address",
          "name": "myAddress",
          "type": "address"
        }
      ],
      "name": "install",
      "outputs": [],
      "stateMutability": "nonpayable",
      "type": "function"
    },
    {
      "inputs": [],
      "name": "metadata",
      "outputs": [
        {
          "components": [
            {
              "internalType": "string",
              "name": "name",
              "type": "string"
            },
            {
              "components": [
                {
                  "internalType": "uint16",
                  "name": "major",
                  "type": "uint16"
                },
                {
                  "internalType": "uint16",
                  "name": "minor",
                  "type": "uint16"
                }
              ],
              "internalType": "struct Version",
              "name": "version",
              "type": "tuple"
            }
          ],
          "internalType": "struct ExtensionMetadata",
          "name": "",
          "type": "tuple"
        }
      ],
      "stateMutability": "pure",
      "type": "function"
    },
    {
      "inputs": [
        {
          "internalType": "address",
          "name": "myAddress",
          "type": "address"
        }
      ],
      "name": "upgrade",
      "outputs": [],
      "stateMutability": "nonpayable",
      "type": "function"
    }
  ],
  "bytecode": "0x608060405234801561001057600080fd5b50610cf8806100206000396000f3fe608060405234801561001057600080fd5b506004361061004c5760003560e01c80630900f0101461005157806316c49b11146100645780632a1b8f9b14610077578063392f37e91461008a575b600080fd5b61006261005f3660046108c2565b50565b005b6100626100723660046108f2565b6100a8565b6100626100853660046108c2565b610311565b6100926103d8565b60405161009f919061097d565b60405180910390f35b604051637df73e2760e01b815233600482015273__$a5a42e46683ad9c79b7b86d5ff60fdf4c1$__90637df73e2790602401602060405180830381865af41580156100f7573d6000803e3d6000fd5b505050506040513d601f19601f8201168201806040525081019061011b91906109c2565b6101925760405162461bcd60e51b815260206004820152603860248201527f466163746f436f6d70616e79416464457870657269656e63654578747279457860448201527f743a207265737472696374656420746f207369676e657273000000000000000060648201526084015b60405180910390fd5b61019a61042c565b5460ff166101ea5760405162461bcd60e51b815260206004820152601e60248201527f436f6d70616e793a20636f6d70616e79206973206e6f742061637469766500006044820152606401610189565b60006101f960208301836108c2565b9050806001600160a01b0316637dc759e56040518060600160405280856020013581526020018560400135815260200185806060019061023991906109e4565b8080601f01602080910402602001604051908101604052809392919081815260200183838082843760009201919091525050509152506040516001600160e01b031960e084901b1681526102909190600401610a32565b600060405180830381600087803b1580156102aa57600080fd5b505af11580156102be573d6000803e3d6000fd5b505050506040820135602083018035906102d890856108c2565b6001600160a01b03167fa91163c384fd7aaeb9af411ac3a6fb176839758a072ab72d1d322e80fa64205f60405160405180910390a45050565b604080516001808252818301909252600091816020015b60408051808201909152600081526060602082015281526020019060019003908161032857905050905060405180604001604052806316c49b1160e01b6001600160e01b0319168152602001604051806060016040528060318152602001610c9260319139815250816000815181106103a3576103a3610a77565b60200260200101819052506103d46040518060400160405280846001600160a01b03168152602001838152506104c2565b5050565b6103e0610886565b5060408051608081018252600e8183019081526d10dbdb5c185b9e529d5b5c115e1d60921b60608301528152815180830190925260018252600060208381019190915281019190915290565b60408051808201909152601881527f78722e61637469766174696f6e2e73746f726167652e7631000000000000000060209091015260008060ff61049160017ff6611e962a52dbc98dd0485088d920890c43e26113c61976f6e171a29d49ce49610aa3565b6040516020016104a391815260200190565b60408051601f1981840301815291905280516020909101201692915050565b60006104cc610685565b82516001600160a01b031660009081526020829052604081209192505b83602001515181101561067f5760008460200151828151811061050e5761050e610a77565b6020908102919091018101518051600486810180546001808201835560009283528683206008830401805463ffffffff600790941690950261010090810a9384021990951660e09690961c9290920294909417905583516001600160e01b0319168152918801909352604090208054919350916001600160a01b039104161561060757805461010090046001600160a01b03166000908152602086905260408120875190919060018701906105c2906106ea565b6020808701516040516105dc949392600188019101610b53565b60405160208183030381529060405290508060405162461bcd60e51b81526004016101899190610c3d565b50604080518082018252600180825287516001600160a01b03908116602080850191825295516001600160e01b0319166000908152898401909652939094209151825493516001600160a81b0319909416901515610100600160a81b03191617610100939094169290920292909217909155016104e9565b50505050565b60408051808201909152601881527f78722e657874656e73696f6e732e73746f726167652e7631000000000000000060209091015260008060ff61049160017fb58ec9ca7ba0606d9fecd9f559655d0e5fec418e6751b65b892bccdfd25eb99f610aa3565b60606107006001600160a01b0383166014610706565b92915050565b6060826000610716846002610c50565b610721906002610c67565b67ffffffffffffffff81111561073957610739610a61565b6040519080825280601f01601f191660200182016040528015610763576020820181803683370190505b509050600360fc1b8160008151811061077e5761077e610a77565b60200101906001600160f81b031916908160001a905350600f60fb1b816001815181106107ad576107ad610a77565b60200101906001600160f81b031916908160001a90535060006107d1856002610c50565b6107dc906001610c67565b90505b6001811115610854576f181899199a1a9b1b9c1cb0b131b232b360811b83600f166010811061081057610810610a77565b1a60f81b82828151811061082657610826610a77565b60200101906001600160f81b031916908160001a90535060049290921c9161084d81610c7a565b90506107df565b50811561087e5760405163e22e27eb60e01b81526004810186905260248101859052604401610189565b949350505050565b6040518060400160405280606081526020016108bd6040518060400160405280600061ffff168152602001600061ffff1681525090565b905290565b6000602082840312156108d457600080fd5b81356001600160a01b03811681146108eb57600080fd5b9392505050565b60006020828403121561090457600080fd5b813567ffffffffffffffff81111561091b57600080fd5b8201608081850312156108eb57600080fd5b60005b83811015610948578181015183820152602001610930565b50506000910152565b6000815180845261096981602086016020860161092d565b601f01601f19169290920160200192915050565b6020815260008251606060208401526109996080840182610951565b602094850151805161ffff90811660408701529501519094166060909301929092525090919050565b6000602082840312156109d457600080fd5b815180151581146108eb57600080fd5b6000808335601e198436030181126109fb57600080fd5b83018035915067ffffffffffffffff821115610a1657600080fd5b602001915036819003821315610a2b57600080fd5b9250929050565b6020815281516020820152602082015160408201526000604083015160608084015261087e6080840182610951565b634e487b7160e01b600052604160045260246000fd5b634e487b7160e01b600052603260045260246000fd5b634e487b7160e01b600052601160045260246000fd5b8181038181111561070057610700610a8d565b8054600090600181811c9080831680610ad057607f831692505b60208084108203610af157634e487b7160e01b600052602260045260246000fd5b818015610b055760018114610b1a57610b47565b60ff1986168952841515850289019650610b47565b60008881526020902060005b86811015610b3f5781548b820152908501908301610b26565b505084890196505b50505050505092915050565b7f4c6962457874656e73696f6e3a20657874656e73696f6e20000000000000000081526000610b856018830187610ab6565b6c01030ba1030b2323932b9b99d1609d1b81528551610bab81600d840160208a0161092d565b8082019150507f20617474656d7074696e6720746f20726575736520612073656c6563746f723a600d820152600160fd1b80602d8301528551610bf581602e850160208a0161092d565b7f2c20776869636820697320616c72656164792072656769737465726564206279602e9390910192830152604e820152610c32604f820185610ab6565b979650505050505050565b6020815260006108eb6020830184610951565b808202811582820484141761070057610700610a8d565b8082018082111561070057610700610a8d565b600081610c8957610c89610a8d565b50600019019056fe64656c65676174654a756d70466f724176617461722844656c6567617465644176617461724a756d705265717565737429a2646970667358221220abc0ee9eda5d3979d788fe5145282cf933e6279dd9149c0a0077d5691a5fbcf364736f6c63430008180033",
  "linkReferences": {
    "contracts/libraries/LibAccess.sol": {
      "LibAccess": [
        {
          "length": 20,
          "start": 221
        }
      ]
    }
  },
  "deployedLinkReferences": {
    "contracts/libraries/LibAccess.sol": {
      "LibAccess": [
        {
          "length": 20,
          "start": 189
        }
      ]
    }
  }
}