{
  "_format": "hh-sol-artifact-1",
  "contractName": "CompanyRemovalExt",
  "sourceName": "contracts/extensions/registry/company/CompanyRemovalExt.sol",
  "abi": [
    {
      "inputs": [
        {
          "internalType": "uint256",
          "name": "value",
          "type": "uint256"
        },
        {
          "internalType": "uint256",
          "name": "length",
          "type": "uint256"
        }
      ],
      "name": "StringsInsufficientHexLength",
      "type": "error"
    },
    {
      "anonymous": false,
      "inputs": [
        {
          "indexed": true,
          "internalType": "address",
          "name": "entity",
          "type": "address"
        },
        {
          "indexed": true,
          "internalType": "address",
          "name": "by",
          "type": "address"
        }
      ],
      "name": "EntityRegistrationRenewed",
      "type": "event"
    },
    {
      "anonymous": false,
      "inputs": [
        {
          "indexed": true,
          "internalType": "address",
          "name": "entity",
          "type": "address"
        },
        {
          "indexed": false,
          "internalType": "string",
          "name": "reason",
          "type": "string"
        }
      ],
      "name": "RegistryDeactivatedEntity",
      "type": "event"
    },
    {
      "anonymous": false,
      "inputs": [
        {
          "indexed": true,
          "internalType": "address",
          "name": "entity",
          "type": "address"
        }
      ],
      "name": "RegistryEnforcedDeactivation",
      "type": "event"
    },
    {
      "anonymous": false,
      "inputs": [
        {
          "indexed": true,
          "internalType": "address",
          "name": "entity",
          "type": "address"
        }
      ],
      "name": "RegistryEnforcedRemoval",
      "type": "event"
    },
    {
      "anonymous": false,
      "inputs": [
        {
          "indexed": true,
          "internalType": "address",
          "name": "entity",
          "type": "address"
        }
      ],
      "name": "RegistryReactivatedEntity",
      "type": "event"
    },
    {
      "anonymous": false,
      "inputs": [
        {
          "indexed": true,
          "internalType": "address",
          "name": "entity",
          "type": "address"
        },
        {
          "indexed": false,
          "internalType": "string",
          "name": "reason",
          "type": "string"
        }
      ],
      "name": "RegistryRemovedEntity",
      "type": "event"
    },
    {
      "inputs": [
        {
          "internalType": "address",
          "name": "addr",
          "type": "address"
        }
      ],
      "name": "canBeDeactivated",
      "outputs": [
        {
          "internalType": "bool",
          "name": "",
          "type": "bool"
        }
      ],
      "stateMutability": "view",
      "type": "function"
    },
    {
      "inputs": [
        {
          "internalType": "address",
          "name": "addr",
          "type": "address"
        }
      ],
      "name": "canBeRemoved",
      "outputs": [
        {
          "internalType": "bool",
          "name": "",
          "type": "bool"
        }
      ],
      "stateMutability": "view",
      "type": "function"
    },
    {
      "inputs": [
        {
          "internalType": "contract IRemovableEntity",
          "name": "entity",
          "type": "address"
        },
        {
          "internalType": "string",
          "name": "reason",
          "type": "string"
        }
      ],
      "name": "deactivateEntity",
      "outputs": [],
      "stateMutability": "nonpayable",
      "type": "function"
    },
    {
      "inputs": [
        {
          "internalType": "contract IRemovableEntity",
          "name": "addr",
          "type": "address"
        }
      ],
      "name": "enforceDeactivation",
      "outputs": [],
      "stateMutability": "nonpayable",
      "type": "function"
    },
    {
      "inputs": [
        {
          "internalType": "contract IRemovableEntity",
          "name": "e",
          "type": "address"
        }
      ],
      "name": "enforceRemoval",
      "outputs": [],
      "stateMutability": "nonpayable",
      "type": "function"
    },
    {
      "inputs": [
        {
          "internalType": "address",
          "name": "addr",
          "type": "address"
        }
      ],
      "name": "getEntityTerms",
      "outputs": [
        {
          "components": [
            {
              "internalType": "uint16",
              "name": "coveragePeriodDays",
              "type": "uint16"
            },
            {
              "internalType": "uint16",
              "name": "gracePeriodDays",
              "type": "uint16"
            },
            {
              "internalType": "uint256",
              "name": "fee",
              "type": "uint256"
            }
          ],
          "internalType": "struct RegistrationTerms",
          "name": "",
          "type": "tuple"
        }
      ],
      "stateMutability": "view",
      "type": "function"
    },
    {
      "inputs": [
        {
          "internalType": "address",
          "name": "addr",
          "type": "address"
        }
      ],
      "name": "getExpiration",
      "outputs": [
        {
          "internalType": "uint256",
          "name": "",
          "type": "uint256"
        }
      ],
      "stateMutability": "view",
      "type": "function"
    },
    {
      "inputs": [
        {
          "internalType": "address",
          "name": "addr",
          "type": "address"
        }
      ],
      "name": "getLastRenewal",
      "outputs": [
        {
          "internalType": "uint256",
          "name": "",
          "type": "uint256"
        }
      ],
      "stateMutability": "view",
      "type": "function"
    },
    {
      "inputs": [
        {
          "components": [
            {
              "internalType": "address",
              "name": "owner",
              "type": "address"
            },
            {
              "internalType": "address",
              "name": "owningRegistry",
              "type": "address"
            },
            {
              "internalType": "address[]",
              "name": "admins",
              "type": "address[]"
            }
          ],
          "internalType": "struct ExtensionInitArgs",
          "name": "args",
          "type": "tuple"
        }
      ],
      "name": "initStorage",
      "outputs": [],
      "stateMutability": "nonpayable",
      "type": "function"
    },
    {
      "inputs": [
        {
          "internalType": "address",
          "name": "myAddress",
          "type": "address"
        }
      ],
      "name": "install",
      "outputs": [],
      "stateMutability": "nonpayable",
      "type": "function"
    },
    {
      "inputs": [
        {
          "internalType": "address",
          "name": "addr",
          "type": "address"
        }
      ],
      "name": "isExpired",
      "outputs": [
        {
          "internalType": "bool",
          "name": "",
          "type": "bool"
        }
      ],
      "stateMutability": "view",
      "type": "function"
    },
    {
      "inputs": [
        {
          "internalType": "address",
          "name": "addr",
          "type": "address"
        }
      ],
      "name": "isInGracePeriod",
      "outputs": [
        {
          "internalType": "bool",
          "name": "",
          "type": "bool"
        }
      ],
      "stateMutability": "view",
      "type": "function"
    },
    {
      "inputs": [],
      "name": "metadata",
      "outputs": [
        {
          "components": [
            {
              "internalType": "string",
              "name": "name",
              "type": "string"
            },
            {
              "components": [
                {
                  "internalType": "uint16",
                  "name": "major",
                  "type": "uint16"
                },
                {
                  "internalType": "uint16",
                  "name": "minor",
                  "type": "uint16"
                }
              ],
              "internalType": "struct Version",
              "name": "version",
              "type": "tuple"
            }
          ],
          "internalType": "struct ExtensionMetadata",
          "name": "",
          "type": "tuple"
        }
      ],
      "stateMutability": "pure",
      "type": "function"
    },
    {
      "inputs": [
        {
          "internalType": "contract IRemovableEntity",
          "name": "entity",
          "type": "address"
        }
      ],
      "name": "reactivateEntity",
      "outputs": [],
      "stateMutability": "nonpayable",
      "type": "function"
    },
    {
      "inputs": [
        {
          "internalType": "contract IRemovableEntity",
          "name": "entity",
          "type": "address"
        },
        {
          "internalType": "string",
          "name": "reason",
          "type": "string"
        }
      ],
      "name": "removeEntity",
      "outputs": [],
      "stateMutability": "nonpayable",
      "type": "function"
    },
    {
      "inputs": [
        {
          "internalType": "address",
          "name": "addr",
          "type": "address"
        }
      ],
      "name": "renewEntity",
      "outputs": [],
      "stateMutability": "payable",
      "type": "function"
    },
    {
      "inputs": [
        {
          "internalType": "address",
          "name": "myAddress",
          "type": "address"
        }
      ],
      "name": "upgrade",
      "outputs": [],
      "stateMutability": "nonpayable",
      "type": "function"
    }
  ],
  "bytecode": "0x608060405234801561001057600080fd5b50611fbf806100206000396000f3fe6080604052600436106100fe5760003560e01c8063693c79b211610095578063b6db923d11610064578063b6db923d146102a7578063ba2eb541146102c7578063d6fbe020146102e7578063e2482bf9146102fa578063f82e2fb31461031a57600080fd5b8063693c79b21461021c578063729963c01461023c578063a8c88c1714610257578063af08d53d1461028757600080fd5b8063392f37e9116100d1578063392f37e9146101835780634ae134cc146101ae5780634ec70a48146101ce5780635726c94e146101fc57600080fd5b806301f2423014610103578063033a5b60146101255780630900f010146101455780632a1b8f9b14610163575b600080fd5b34801561010f57600080fd5b5061012361011e36600461198d565b610365565b005b34801561013157600080fd5b506101236101403660046119b1565b6103d4565b34801561015157600080fd5b5061012361016036600461198d565b50565b34801561016f57600080fd5b5061012361017e36600461198d565b610673565b34801561018f57600080fd5b50610198610ce2565b6040516101a59190611a86565b60405180910390f35b3480156101ba57600080fd5b506101236101c936600461198d565b610d39565b3480156101da57600080fd5b506101ee6101e936600461198d565b610d79565b6040519081526020016101a5565b34801561020857600080fd5b506101ee61021736600461198d565b610dff565b34801561022857600080fd5b5061012361023736600461198d565b610e42565b34801561024857600080fd5b50610123610160366004611acb565b34801561026357600080fd5b5061027761027236600461198d565b6110d6565b60405190151581526020016101a5565b34801561029357600080fd5b506101236102a23660046119b1565b611156565b3480156102b357600080fd5b506102776102c236600461198d565b6113b4565b3480156102d357600080fd5b506102776102e236600461198d565b6113f7565b6101236102f536600461198d565b61143a565b34801561030657600080fd5b5061027761031536600461198d565b61147a565b34801561032657600080fd5b5061033a61033536600461198d565b6114bd565b60408051825161ffff90811682526020808501519091169082015291810151908201526060016101a5565b604051630a53217360e11b81526001600160a01b038216600482015273__$1822254560a4f971c7e72253c3a08363e7$__906314a642e6906024015b60006040518083038186803b1580156103b957600080fd5b505af41580156103cd573d6000803e3d6000fd5b5050505050565b826000306001600160a01b031663911c2a8c6040518163ffffffff1660e01b8152600401602060405180830381865afa158015610415573d6000803e3d6000fd5b505050506040513d601f19601f820116820180604052508101906104399190611b06565b90506001600160a01b03811661046a5760405162461bcd60e51b815260040161046190611b23565b60405180910390fd5b60405163c3c5a54760e01b815233600482015281906001600160a01b0382169063c3c5a54790602401602060405180830381865afa1580156104b0573d6000803e3d6000fd5b505050506040513d601f19601f820116820180604052508101906104d49190611b6c565b6104f05760405162461bcd60e51b815260040161046190611b8e565b336001600160a01b0316634f05c1c86040518163ffffffff1660e01b8152600401602060405180830381865afa15801561052e573d6000803e3d6000fd5b505050506040513d601f19601f820116820180604052508101906105529190611b6c565b61056e5760405162461bcd60e51b815260040161046190611be1565b336001600160a01b0316836001600160a01b03166369bd91946040518163ffffffff1660e01b8152600401602060405180830381865afa1580156105b6573d6000803e3d6000fd5b505050506040513d601f19601f820116820180604052508101906105da9190611b06565b6001600160a01b0316146106005760405162461bcd60e51b815260040161046190611c27565b60405163ede71a1760e01b815273__$1822254560a4f971c7e72253c3a08363e7$__9063ede71a179061063b90899089908990600401611c84565b60006040518083038186803b15801561065357600080fd5b505af4158015610667573d6000803e3d6000fd5b50505050505050505050565b60408051600d8082526101c08201909252600091816020015b60408051808201909152600081526060602082015281526020019060019003908161068c579050509050604051806040016040528063f82e2fb360e01b6001600160e01b03191681526020016040518060400160405280601781526020017f676574456e746974795465726d732861646472657373290000000000000000008152508152508160008151811061072457610724611cda565b6020026020010181905250604051806040016040528063b6db923d60e01b6001600160e01b03191681526020016040518060400160405280601981526020017f63616e42654465616374697661746564286164647265737329000000000000008152508152508160018151811061079d5761079d611cda565b6020026020010181905250604051806040016040528063a8c88c1760e01b6001600160e01b03191681526020016040518060400160405280601581526020017463616e426552656d6f76656428616464726573732960581b8152508152508160028151811061080e5761080e611cda565b60200260200101819052506040518060400160405280634ae134cc60e01b6001600160e01b03191681526020016040518060400160405280601c81526020017f656e666f726365446561637469766174696f6e286164647265737329000000008152508152508160038151811061088757610887611cda565b602002602001018190525060405180604001604052806301f2423060e01b6001600160e01b03191681526020016040518060400160405280601781526020017f656e666f72636552656d6f76616c2861646472657373290000000000000000008152508152508160048151811061090057610900611cda565b60200260200101819052506040518060400160405280635726c94e60e01b6001600160e01b03191681526020016040518060400160405280601781526020017f6765744c61737452656e6577616c2861646472657373290000000000000000008152508152508160058151811061097957610979611cda565b60200260200101819052506040518060400160405280634ec70a4860e01b6001600160e01b03191681526020016040518060400160405280601681526020017567657445787069726174696f6e28616464726573732960501b815250815250816006815181106109eb576109eb611cda565b6020026020010181905250604051806040016040528063ba2eb54160e01b6001600160e01b03191681526020016040518060400160405280601281526020017169734578706972656428616464726573732960701b81525081525081600781518110610a5957610a59611cda565b6020026020010181905250604051806040016040528063e2482bf960e01b6001600160e01b03191681526020016040518060400160405280601881526020017f6973496e4772616365506572696f64286164647265737329000000000000000081525081525081600881518110610ad257610ad2611cda565b6020026020010181905250604051806040016040528063d6fbe02060e01b6001600160e01b03191681526020016040518060400160405280601481526020017372656e6577456e7469747928616464726573732960601b81525081525081600981518110610b4257610b42611cda565b6020026020010181905250604051806040016040528063033a5b6060e01b6001600160e01b03191681526020016040518060400160405280602081526020017f64656163746976617465456e7469747928616464726573732c737472696e672981525081525081600a81518110610bbb57610bbb611cda565b6020026020010181905250604051806040016040528063693c79b260e01b6001600160e01b03191681526020016040518060400160405280601981526020017f72656163746976617465456e746974792861646472657373290000000000000081525081525081600b81518110610c3457610c34611cda565b6020026020010181905250604051806040016040528063af08d53d60e01b6001600160e01b03191681526020016040518060400160405280601c81526020017f72656d6f7665456e7469747928616464726573732c737472696e67290000000081525081525081600c81518110610cad57610cad611cda565b6020026020010181905250610cde6040518060400160405280846001600160a01b0316815260200183815250611552565b5050565b610cea61193c565b506040805160808101825260118183019081527010dbdb5c185b9e54995b5bdd985b115e1d607a1b60608301528152815180830190925260018252600060208381019190915281019190915290565b6040516347ef542760e01b81526001600160a01b038216600482015273__$1822254560a4f971c7e72253c3a08363e7$__906347ef5427906024016103a1565b6040516309d8e14960e31b81526001600160a01b038216600482015260009073__$1822254560a4f971c7e72253c3a08363e7$__90634ec70a48906024015b602060405180830381865af4158015610dd5573d6000803e3d6000fd5b505050506040513d601f19601f82011682018060405250810190610df99190611cf0565b92915050565b604051632b9364a760e11b81526001600160a01b038216600482015260009073__$1822254560a4f971c7e72253c3a08363e7$__90635726c94e90602401610db8565b806000306001600160a01b031663911c2a8c6040518163ffffffff1660e01b8152600401602060405180830381865afa158015610e83573d6000803e3d6000fd5b505050506040513d601f19601f82011682018060405250810190610ea79190611b06565b90506001600160a01b038116610ecf5760405162461bcd60e51b815260040161046190611b23565b60405163c3c5a54760e01b815233600482015281906001600160a01b0382169063c3c5a54790602401602060405180830381865afa158015610f15573d6000803e3d6000fd5b505050506040513d601f19601f82011682018060405250810190610f399190611b6c565b610f555760405162461bcd60e51b815260040161046190611b8e565b336001600160a01b0316634f05c1c86040518163ffffffff1660e01b8152600401602060405180830381865afa158015610f93573d6000803e3d6000fd5b505050506040513d601f19601f82011682018060405250810190610fb79190611b6c565b610fd35760405162461bcd60e51b815260040161046190611be1565b336001600160a01b0316836001600160a01b03166369bd91946040518163ffffffff1660e01b8152600401602060405180830381865afa15801561101b573d6000803e3d6000fd5b505050506040513d601f19601f8201168201806040525081019061103f9190611b06565b6001600160a01b0316146110655760405162461bcd60e51b815260040161046190611c27565b60405163699f380760e11b81526001600160a01b038516600482015273__$1822254560a4f971c7e72253c3a08363e7$__9063d33e700e9060240160006040518083038186803b1580156110b857600080fd5b505af41580156110cc573d6000803e3d6000fd5b5050505050505050565b60405163a8c88c1760e01b81526001600160a01b038216600482015260009073__$1822254560a4f971c7e72253c3a08363e7$__9063a8c88c17906024015b602060405180830381865af4158015611132573d6000803e3d6000fd5b505050506040513d601f19601f82011682018060405250810190610df99190611b6c565b826000306001600160a01b031663911c2a8c6040518163ffffffff1660e01b8152600401602060405180830381865afa158015611197573d6000803e3d6000fd5b505050506040513d601f19601f820116820180604052508101906111bb9190611b06565b90506001600160a01b0381166111e35760405162461bcd60e51b815260040161046190611b23565b60405163c3c5a54760e01b815233600482015281906001600160a01b0382169063c3c5a54790602401602060405180830381865afa158015611229573d6000803e3d6000fd5b505050506040513d601f19601f8201168201806040525081019061124d9190611b6c565b6112695760405162461bcd60e51b815260040161046190611b8e565b336001600160a01b0316634f05c1c86040518163ffffffff1660e01b8152600401602060405180830381865afa1580156112a7573d6000803e3d6000fd5b505050506040513d601f19601f820116820180604052508101906112cb9190611b6c565b6112e75760405162461bcd60e51b815260040161046190611be1565b336001600160a01b0316836001600160a01b03166369bd91946040518163ffffffff1660e01b8152600401602060405180830381865afa15801561132f573d6000803e3d6000fd5b505050506040513d601f19601f820116820180604052508101906113539190611b06565b6001600160a01b0316146113795760405162461bcd60e51b815260040161046190611c27565b604051633f111a5d60e21b815273__$1822254560a4f971c7e72253c3a08363e7$__9063fc4469749061063b90899089908990600401611c84565b60405163b6db923d60e01b81526001600160a01b038216600482015260009073__$1822254560a4f971c7e72253c3a08363e7$__9063b6db923d90602401611115565b60405163ba2eb54160e01b81526001600160a01b038216600482015260009073__$1822254560a4f971c7e72253c3a08363e7$__9063ba2eb54190602401611115565b6040516306b7df0160e51b81526001600160a01b038216600482015273__$1822254560a4f971c7e72253c3a08363e7$__9063d6fbe020906024016103a1565b60405163e2482bf960e01b81526001600160a01b038216600482015260009073__$1822254560a4f971c7e72253c3a08363e7$__9063e2482bf990602401611115565b6040805160608101825260008082526020820181905281830152905163f82e2fb360e01b81526001600160a01b038316600482015273__$1822254560a4f971c7e72253c3a08363e7$__9063f82e2fb390602401606060405180830381865af415801561152e573d6000803e3d6000fd5b505050506040513d601f19601f82011682018060405250810190610df99190611d20565b600061155c611715565b82516001600160a01b031660009081526020829052604081209192505b83602001515181101561170f5760008460200151828151811061159e5761159e611cda565b6020908102919091018101518051600486810180546001808201835560009283528683206008830401805463ffffffff600790941690950261010090810a9384021990951660e09690961c9290920294909417905583516001600160e01b0319168152918801909352604090208054919350916001600160a01b039104161561169757805461010090046001600160a01b0316600090815260208690526040812087519091906001870190611652906117ab565b60208087015160405161166c949392600188019101611e33565b60405160208183030381529060405290508060405162461bcd60e51b81526004016104619190611f0c565b50604080518082018252600180825287516001600160a01b03908116602080850191825295516001600160e01b0319166000908152898401909652939094209151825493516001600160a81b0319909416901515610100600160a81b0319161761010093909416929092029290921790915501611579565b50505050565b60408051808201909152601881527f78722e657874656e73696f6e732e73746f726167652e7631000000000000000060209091015260008060ff61177a60017fb58ec9ca7ba0606d9fecd9f559655d0e5fec418e6751b65b892bccdfd25eb99f611f35565b60405160200161178c91815260200190565b60408051601f1981840301815291905280516020909101201692915050565b6060610df96001600160a01b038316601460608260006117cc846002611f48565b6117d7906002611f5f565b67ffffffffffffffff8111156117ef576117ef611cc4565b6040519080825280601f01601f191660200182016040528015611819576020820181803683370190505b509050600360fc1b8160008151811061183457611834611cda565b60200101906001600160f81b031916908160001a905350600f60fb1b8160018151811061186357611863611cda565b60200101906001600160f81b031916908160001a9053506000611887856002611f48565b611892906001611f5f565b90505b600181111561190a576f181899199a1a9b1b9c1cb0b131b232b360811b83600f16601081106118c6576118c6611cda565b1a60f81b8282815181106118dc576118dc611cda565b60200101906001600160f81b031916908160001a90535060049290921c9161190381611f72565b9050611895565b5081156119345760405163e22e27eb60e01b81526004810186905260248101859052604401610461565b949350505050565b6040518060400160405280606081526020016119736040518060400160405280600061ffff168152602001600061ffff1681525090565b905290565b6001600160a01b038116811461016057600080fd5b60006020828403121561199f57600080fd5b81356119aa81611978565b9392505050565b6000806000604084860312156119c657600080fd5b83356119d181611978565b9250602084013567ffffffffffffffff808211156119ee57600080fd5b818601915086601f830112611a0257600080fd5b813581811115611a1157600080fd5b876020828501011115611a2357600080fd5b6020830194508093505050509250925092565b60005b83811015611a51578181015183820152602001611a39565b50506000910152565b60008151808452611a72816020860160208601611a36565b601f01601f19169290920160200192915050565b602081526000825160606020840152611aa26080840182611a5a565b602094850151805161ffff90811660408701529501519094166060909301929092525090919050565b600060208284031215611add57600080fd5b813567ffffffffffffffff811115611af457600080fd5b8201606081850312156119aa57600080fd5b600060208284031215611b1857600080fd5b81516119aa81611978565b60208082526029908201527f436f6d70616e7952656d6f76616c4578743a20776f726c6420726567697374726040820152681e481b9bdd081cd95d60ba1b606082015260800190565b600060208284031215611b7e57600080fd5b815180151581146119aa57600080fd5b60208082526033908201527f436f6d70616e7952656d6f76616c4578743a2063616c6c6572206973206e6f746040820152720818481c9959da5cdd195c9959081ddbdc9b19606a1b606082015260800190565b60208082526026908201527f436f6d70616e7952656d6f76616c4578743a20776f726c64206973206e6f742060408201526561637469766560d01b606082015260800190565b6020808252603a908201527f436f6d70616e7952656d6f76616c4578743a2063616c6c6572206973206e6f7460408201527f2074686520636f6d70616e792773207465726d73206f776e6572000000000000606082015260800190565b6001600160a01b03841681526040602082018190528101829052818360608301376000818301606090810191909152601f909201601f1916010192915050565b634e487b7160e01b600052604160045260246000fd5b634e487b7160e01b600052603260045260246000fd5b600060208284031215611d0257600080fd5b5051919050565b805161ffff81168114611d1b57600080fd5b919050565b600060608284031215611d3257600080fd5b6040516060810181811067ffffffffffffffff82111715611d6357634e487b7160e01b600052604160045260246000fd5b604052611d6f83611d09565b8152611d7d60208401611d09565b6020820152604083015160408201528091505092915050565b8054600090600181811c9080831680611db057607f831692505b60208084108203611dd157634e487b7160e01b600052602260045260246000fd5b818015611de55760018114611dfa57611e27565b60ff1986168952841515850289019650611e27565b60008881526020902060005b86811015611e1f5781548b820152908501908301611e06565b505084890196505b50505050505092915050565b7f4c6962457874656e73696f6e3a20657874656e73696f6e20000000000000000081526000611e656018830187611d96565b6c01030ba1030b2323932b9b99d1609d1b81528551611e8b81600d840160208a01611a36565b7f20617474656d7074696e6720746f20726575736520612073656c6563746f7200600d92909101918201528451611ec981602c840160208901611a36565b7f20616c7265616479207265676973746572656420627920000000000000000000602c9290910191820152611f016043820185611d96565b979650505050505050565b6020815260006119aa6020830184611a5a565b634e487b7160e01b600052601160045260246000fd5b81810381811115610df957610df9611f1f565b8082028115828204841417610df957610df9611f1f565b80820180821115610df957610df9611f1f565b600081611f8157611f81611f1f565b50600019019056fea2646970667358221220e3e90fdd1567471042e3254cf2cac8e844b7dd6b591a3898fd728256c6c0ff4164736f6c63430008180033",
  "linkReferences": {
    "contracts/libraries/LibEntityRemoval.sol": {
      "LibEntityRemoval": [
        {
          "length": 20,
          "start": 931
        },
        {
          "length": 20,
          "start": 1583
        },
        {
          "length": 20,
          "start": 3447
        },
        {
          "length": 20,
          "start": 3514
        },
        {
          "length": 20,
          "start": 3648
        },
        {
          "length": 20,
          "start": 4259
        },
        {
          "length": 20,
          "start": 4375
        },
        {
          "length": 20,
          "start": 5032
        },
        {
          "length": 20,
          "start": 5109
        },
        {
          "length": 20,
          "start": 5176
        },
        {
          "length": 20,
          "start": 5240
        },
        {
          "length": 20,
          "start": 5307
        },
        {
          "length": 20,
          "start": 5396
        }
      ]
    }
  },
  "deployedLinkReferences": {
    "contracts/libraries/LibEntityRemoval.sol": {
      "LibEntityRemoval": [
        {
          "length": 20,
          "start": 899
        },
        {
          "length": 20,
          "start": 1551
        },
        {
          "length": 20,
          "start": 3415
        },
        {
          "length": 20,
          "start": 3482
        },
        {
          "length": 20,
          "start": 3616
        },
        {
          "length": 20,
          "start": 4227
        },
        {
          "length": 20,
          "start": 4343
        },
        {
          "length": 20,
          "start": 5000
        },
        {
          "length": 20,
          "start": 5077
        },
        {
          "length": 20,
          "start": 5144
        },
        {
          "length": 20,
          "start": 5208
        },
        {
          "length": 20,
          "start": 5275
        },
        {
          "length": 20,
          "start": 5364
        }
      ]
    }
  }
}