{
  "_format": "hh-sol-artifact-1",
  "contractName": "Company",
  "sourceName": "contracts/company/instance/Company.sol",
  "abi": [
    {
      "inputs": [
        {
          "components": [
            {
              "internalType": "address",
              "name": "extensionResolver",
              "type": "address"
            },
            {
              "internalType": "address",
              "name": "owningRegistry",
              "type": "address"
            },
            {
              "internalType": "address",
              "name": "worldRegistry",
              "type": "address"
            }
          ],
          "internalType": "struct CompanyConstructorArgs",
          "name": "args",
          "type": "tuple"
        }
      ],
      "stateMutability": "nonpayable",
      "type": "constructor"
    },
    {
      "anonymous": false,
      "inputs": [
        {
          "indexed": false,
          "internalType": "string",
          "name": "name",
          "type": "string"
        }
      ],
      "name": "ExtensionDisabled",
      "type": "event"
    },
    {
      "anonymous": false,
      "inputs": [
        {
          "indexed": false,
          "internalType": "string",
          "name": "name",
          "type": "string"
        }
      ],
      "name": "ExtensionEnabled",
      "type": "event"
    },
    {
      "anonymous": false,
      "inputs": [
        {
          "indexed": false,
          "internalType": "string",
          "name": "name",
          "type": "string"
        },
        {
          "components": [
            {
              "internalType": "uint16",
              "name": "major",
              "type": "uint16"
            },
            {
              "internalType": "uint16",
              "name": "minor",
              "type": "uint16"
            }
          ],
          "indexed": false,
          "internalType": "struct Version",
          "name": "version",
          "type": "tuple"
        }
      ],
      "name": "ExtensionInstalled",
      "type": "event"
    },
    {
      "anonymous": false,
      "inputs": [
        {
          "indexed": false,
          "internalType": "string",
          "name": "name",
          "type": "string"
        },
        {
          "components": [
            {
              "internalType": "uint16",
              "name": "major",
              "type": "uint16"
            },
            {
              "internalType": "uint16",
              "name": "minor",
              "type": "uint16"
            }
          ],
          "indexed": false,
          "internalType": "struct Version",
          "name": "version",
          "type": "tuple"
        }
      ],
      "name": "ExtensionRolledBack",
      "type": "event"
    },
    {
      "anonymous": false,
      "inputs": [
        {
          "indexed": false,
          "internalType": "string",
          "name": "name",
          "type": "string"
        },
        {
          "components": [
            {
              "internalType": "uint16",
              "name": "major",
              "type": "uint16"
            },
            {
              "internalType": "uint16",
              "name": "minor",
              "type": "uint16"
            }
          ],
          "indexed": false,
          "internalType": "struct Version",
          "name": "version",
          "type": "tuple"
        }
      ],
      "name": "ExtensionUpgraded",
      "type": "event"
    },
    {
      "anonymous": false,
      "inputs": [
        {
          "indexed": false,
          "internalType": "bytes4",
          "name": "selector",
          "type": "bytes4"
        }
      ],
      "name": "SelectorDisabled",
      "type": "event"
    },
    {
      "anonymous": false,
      "inputs": [
        {
          "indexed": false,
          "internalType": "bytes4",
          "name": "selector",
          "type": "bytes4"
        }
      ],
      "name": "SelectorEnabled",
      "type": "event"
    },
    {
      "stateMutability": "payable",
      "type": "fallback"
    },
    {
      "inputs": [],
      "name": "companyRegistry",
      "outputs": [
        {
          "internalType": "contract ICompanyRegistry",
          "name": "",
          "type": "address"
        }
      ],
      "stateMutability": "view",
      "type": "function"
    },
    {
      "inputs": [],
      "name": "extResolver",
      "outputs": [
        {
          "internalType": "contract IExtensionResolver",
          "name": "",
          "type": "address"
        }
      ],
      "stateMutability": "view",
      "type": "function"
    },
    {
      "inputs": [
        {
          "internalType": "string",
          "name": "name",
          "type": "string"
        }
      ],
      "name": "getExtensionVersion",
      "outputs": [
        {
          "components": [
            {
              "internalType": "uint16",
              "name": "major",
              "type": "uint16"
            },
            {
              "internalType": "uint16",
              "name": "minor",
              "type": "uint16"
            }
          ],
          "internalType": "struct Version",
          "name": "",
          "type": "tuple"
        }
      ],
      "stateMutability": "view",
      "type": "function"
    },
    {
      "inputs": [
        {
          "internalType": "string",
          "name": "name",
          "type": "string"
        },
        {
          "components": [
            {
              "internalType": "uint16",
              "name": "major",
              "type": "uint16"
            },
            {
              "internalType": "uint16",
              "name": "minor",
              "type": "uint16"
            }
          ],
          "internalType": "struct Version",
          "name": "version",
          "type": "tuple"
        }
      ],
      "name": "hasExtension",
      "outputs": [
        {
          "internalType": "bool",
          "name": "",
          "type": "bool"
        }
      ],
      "stateMutability": "view",
      "type": "function"
    },
    {
      "inputs": [
        {
          "components": [
            {
              "internalType": "address",
              "name": "owner",
              "type": "address"
            },
            {
              "internalType": "address",
              "name": "termsOwner",
              "type": "address"
            },
            {
              "internalType": "address",
              "name": "registry",
              "type": "address"
            },
            {
              "internalType": "string",
              "name": "name",
              "type": "string"
            },
            {
              "components": [
                {
                  "internalType": "string",
                  "name": "x",
                  "type": "string"
                },
                {
                  "internalType": "string",
                  "name": "y",
                  "type": "string"
                },
                {
                  "internalType": "string",
                  "name": "z",
                  "type": "string"
                },
                {
                  "internalType": "uint256",
                  "name": "t",
                  "type": "uint256"
                },
                {
                  "internalType": "uint256",
                  "name": "p",
                  "type": "uint256"
                },
                {
                  "internalType": "uint256",
                  "name": "p_sub",
                  "type": "uint256"
                }
              ],
              "internalType": "struct VectorAddress",
              "name": "vector",
              "type": "tuple"
            },
            {
              "internalType": "bytes",
              "name": "initData",
              "type": "bytes"
            }
          ],
          "internalType": "struct CommonInitArgs",
          "name": "args",
          "type": "tuple"
        }
      ],
      "name": "init",
      "outputs": [],
      "stateMutability": "nonpayable",
      "type": "function"
    },
    {
      "inputs": [],
      "name": "name",
      "outputs": [
        {
          "internalType": "string",
          "name": "",
          "type": "string"
        }
      ],
      "stateMutability": "view",
      "type": "function"
    },
    {
      "inputs": [],
      "name": "vectorAddress",
      "outputs": [
        {
          "components": [
            {
              "internalType": "string",
              "name": "x",
              "type": "string"
            },
            {
              "internalType": "string",
              "name": "y",
              "type": "string"
            },
            {
              "internalType": "string",
              "name": "z",
              "type": "string"
            },
            {
              "internalType": "uint256",
              "name": "t",
              "type": "uint256"
            },
            {
              "internalType": "uint256",
              "name": "p",
              "type": "uint256"
            },
            {
              "internalType": "uint256",
              "name": "p_sub",
              "type": "uint256"
            }
          ],
          "internalType": "struct VectorAddress",
          "name": "",
          "type": "tuple"
        }
      ],
      "stateMutability": "view",
      "type": "function"
    },
    {
      "inputs": [],
      "name": "version",
      "outputs": [
        {
          "components": [
            {
              "internalType": "uint16",
              "name": "major",
              "type": "uint16"
            },
            {
              "internalType": "uint16",
              "name": "minor",
              "type": "uint16"
            }
          ],
          "internalType": "struct Version",
          "name": "",
          "type": "tuple"
        }
      ],
      "stateMutability": "pure",
      "type": "function"
    },
    {
      "inputs": [
        {
          "internalType": "uint256",
          "name": "amount",
          "type": "uint256"
        }
      ],
      "name": "withdraw",
      "outputs": [],
      "stateMutability": "nonpayable",
      "type": "function"
    },
    {
      "inputs": [],
      "name": "world",
      "outputs": [
        {
          "internalType": "address",
          "name": "",
          "type": "address"
        }
      ],
      "stateMutability": "view",
      "type": "function"
    },
    {
      "inputs": [],
      "name": "worldRegistry",
      "outputs": [
        {
          "internalType": "contract IWorldRegistry",
          "name": "",
          "type": "address"
        }
      ],
      "stateMutability": "view",
      "type": "function"
    },
    {
      "stateMutability": "payable",
      "type": "receive"
    }
  ],
  "bytecode": "0x60e06040523480156200001157600080fd5b50604051620019ae380380620019ae8339810160408190526200003491620001df565b80516001600160a01b038116620000b85760405162461bcd60e51b815260206004820152603660248201527f456e746974795368656c6c3a20657874656e73696f6e207265736f6c7665722060448201527f63616e6e6f74206265207a65726f20616464726573730000000000000000000060648201526084015b60405180910390fd5b6001600160a01b03908116608052602082015116620001315760405162461bcd60e51b815260206004820152602e60248201527f436f6d70616e793a206f776e696e6752656769737472792063616e6e6f74206260448201526d65207a65726f206164647265737360901b6064820152608401620000af565b60408101516001600160a01b0316620001a35760405162461bcd60e51b815260206004820152602d60248201527f436f6d70616e793a20776f726c6452656769737472792063616e6e6f7420626560448201526c207a65726f206164647265737360981b6064820152608401620000af565b60200180516001600160a01b0390811660c05290511660a05262000260565b80516001600160a01b0381168114620001da57600080fd5b919050565b600060608284031215620001f257600080fd5b604051606081016001600160401b03811182821017156200022357634e487b7160e01b600052604160045260246000fd5b6040526200023183620001c2565b81526200024160208401620001c2565b60208201526200025460408401620001c2565b60408201529392505050565b60805160a05160c051611702620002ac6000396000818161024701526108ee0152600061027b0152600081816102af015281816102db015281816103c3015261086401526117026000f3fe6080604052600436106100a05760003560e01c806347d1d09a1161006457806347d1d09a146101ad57806354fd4d50146101dd57806369a10a1214610215578063911c2a8c14610235578063c51aba2b14610269578063dd2a44c11461029d576100a7565b806306fdde03146100cf578063238a0386146100fa5780632e1a7d4d1461013c5780632fcbab9a1461015e57806330b67baa14610180576100a7565b366100a757005b600080356001600160e01b031916905060006100c5826000366102d1565b9050805160208201f35b3480156100db57600080fd5b506100e4610307565b6040516100f19190610ea1565b60405180910390f35b34801561010657600080fd5b5061011a610115366004610f80565b6103a2565b60408051825161ffff90811682526020938401511692810192909252016100f1565b34801561014857600080fd5b5061015c610157366004610fb5565b610446565b005b34801561016a57600080fd5b50610173610603565b6040516100f19190610fce565b34801561018c57600080fd5b5061019561082b565b6040516001600160a01b0390911681526020016100f1565b3480156101b957600080fd5b506101cd6101c8366004611051565b61084a565b60405190151581526020016100f1565b3480156101e957600080fd5b50604080518082018252600080825260209182018190528251808401909352600183529082015261011a565b34801561022157600080fd5b5061015c6102303660046110ab565b6108e3565b34801561024157600080fd5b506101957f000000000000000000000000000000000000000000000000000000000000000081565b34801561027557600080fd5b506101957f000000000000000000000000000000000000000000000000000000000000000081565b3480156102a957600080fd5b506101957f000000000000000000000000000000000000000000000000000000000000000081565b60606102ff8484847f0000000000000000000000000000000000000000000000000000000000000000610bc7565b949350505050565b6060610311610cf9565b600201805461031f906110e6565b80601f016020809104026020016040519081016040528092919081815260200182805461034b906110e6565b80156103985780601f1061036d57610100808354040283529160200191610398565b820191906000526020600020905b81548152906001019060200180831161037b57829003601f168201915b5050505050905090565b6040805180820182526000808252602082015290516311c501c360e11b81527f00000000000000000000000000000000000000000000000000000000000000006001600160a01b03169063238a038690610400908590600401610ea1565b6040805180830381865afa15801561041c573d6000803e3d6000fd5b505050506040513d601f19601f820116820180604052508101906104409190611133565b92915050565b604051630935e01b60e21b815233600482015273__$a5a42e46683ad9c79b7b86d5ff60fdf4c1$__906324d7806c90602401602060405180830381865af4158015610495573d6000803e3d6000fd5b505050506040513d601f19601f820116820180604052508101906104b99190611192565b61050a5760405162461bcd60e51b815260206004820181905260248201527f42617369635368656c6c3a207265737472696374656420746f2061646d696e7360448201526064015b60405180910390fd5b4781111561055a5760405162461bcd60e51b815260206004820181905260248201527f42617369635368656c6c3a20696e73756666696369656e742062616c616e63656044820152606401610501565b73__$a5a42e46683ad9c79b7b86d5ff60fdf4c1$__638da5cb5b6040518163ffffffff1660e01b8152600401602060405180830381865af41580156105a3573d6000803e3d6000fd5b505050506040513d601f19601f820116820180604052508101906105c791906111c9565b6001600160a01b03166108fc829081150290604051600060405180830381858888f193505050501580156105ff573d6000803e3d6000fd5b5050565b61063c6040518060c001604052806060815260200160608152602001606081526020016000815260200160008152602001600081525090565b610644610cf9565b6003016040518060c0016040529081600082018054610662906110e6565b80601f016020809104026020016040519081016040528092919081815260200182805461068e906110e6565b80156106db5780601f106106b0576101008083540402835291602001916106db565b820191906000526020600020905b8154815290600101906020018083116106be57829003601f168201915b505050505081526020016001820180546106f4906110e6565b80601f0160208091040260200160405190810160405280929190818152602001828054610720906110e6565b801561076d5780601f106107425761010080835404028352916020019161076d565b820191906000526020600020905b81548152906001019060200180831161075057829003601f168201915b50505050508152602001600282018054610786906110e6565b80601f01602080910402602001604051908101604052809291908181526020018280546107b2906110e6565b80156107ff5780601f106107d4576101008083540402835291602001916107ff565b820191906000526020600020905b8154815290600101906020018083116107e257829003601f168201915b505050505081526020016003820154815260200160048201548152602001600582015481525050905090565b6000610835610cf9565b546201000090046001600160a01b0316919050565b6040516323e8e84d60e11b81526000906001600160a01b037f000000000000000000000000000000000000000000000000000000000000000016906347d1d09a9061089b90869086906004016111e6565b602060405180830381865afa1580156108b8573d6000803e3d6000fd5b505050506040513d601f19601f820116820180604052508101906108dc9190611192565b9392505050565b336001600160a01b037f0000000000000000000000000000000000000000000000000000000000000000161461095b5760405162461bcd60e51b815260206004820152601c60248201527f436f6d70616e793a206f6e6c7920776f726c64207265676973747279000000006044820152606401610501565b600061096d6040830160208401611232565b6001600160a01b0316036109d45760405162461bcd60e51b815260206004820152602860248201527f436f6d70616e793a207465726d73206f776e657220697320746865207a65726f604482015267206164647265737360c01b6064820152608401610501565b60006109e3606083018361124f565b905011610a325760405162461bcd60e51b815260206004820152601d60248201527f436f6d70616e793a206e616d652063616e6e6f7420626520656d7074790000006044820152606401610501565b60408051600080825260208201909252905073__$a5a42e46683ad9c79b7b86d5ff60fdf4c1$__63d9ac971f610a6b6020850185611232565b836040518363ffffffff1660e01b8152600401610a8992919061129d565b60006040518083038186803b158015610aa157600080fd5b505af4158015610ab5573d6000803e3d6000fd5b50610ac79250505060808301836112f9565b610ad090611319565b6040516361d9624d60e01b815273__$ad2b23306edd42b5f4873830e307b82d47$__916361d9624d91610b0c91906001906000906004016113cc565b60006040518083038186803b158015610b2457600080fd5b505af4158015610b38573d6000803e3d6000fd5b505050506000610b46610cf9565b805460ff191660011781559050610b60606084018461124f565b6002830191610b709190836114b4565b50610b7e60808401846112f9565b60038201610b8c8282611575565b50610b9f90506040840160208501611232565b81546001600160a01b0391909116620100000262010000600160b01b03199091161790555050565b6040516337b4746960e11b81526001600160e01b0319851660048201526060906000906001600160a01b03841690636f68e8d290602401602060405180830381865afa158015610c1b573d6000803e3d6000fd5b505050506040513d601f19601f82011682018060405250810190610c3f91906111c9565b90506001600160a01b038116610caf5760405162461bcd60e51b815260206004820152602f60248201527f4c6962457874656e73696f6e3a206e6f20657874656e73696f6e20737570706f60448201526e393a399033371039b2b632b1ba37b960891b6064820152608401610501565b610cef8186868080601f016020809104026020016040519081016040528093929190818152602001838380828437600092019190915250610d8f92505050565b9695505050505050565b60408051808201909152601881527f78722e61637469766174696f6e2e73746f726167652e7631000000000000000060209091015260008060ff610d5e60017ff6611e962a52dbc98dd0485088d920890c43e26113c61976f6e171a29d49ce49611699565b604051602001610d7091815260200190565b60408051601f1981840301815291905280516020909101201692915050565b6060600080846001600160a01b031684604051610dac91906116ba565b600060405180830381855af49150503d8060008114610de7576040519150601f19603f3d011682016040523d82523d6000602084013e610dec565b606091505b50915091508115610e005791506104409050565b805115610e105780518082602001fd5b60405162461bcd60e51b8152602060048201526016602482015275119d5b98dd1a5bdb8818d85b1b081c995d995c9d195960521b6044820152606401610501565b60005b83811015610e6c578181015183820152602001610e54565b50506000910152565b60008151808452610e8d816020860160208601610e51565b601f01601f19169290920160200192915050565b6020815260006108dc6020830184610e75565b634e487b7160e01b600052604160045260246000fd5b60405160c0810167ffffffffffffffff81118282101715610eed57610eed610eb4565b60405290565b600082601f830112610f0457600080fd5b813567ffffffffffffffff80821115610f1f57610f1f610eb4565b604051601f8301601f19908116603f01168101908282118183101715610f4757610f47610eb4565b81604052838152866020858801011115610f6057600080fd5b836020870160208301376000602085830101528094505050505092915050565b600060208284031215610f9257600080fd5b813567ffffffffffffffff811115610fa957600080fd5b6102ff84828501610ef3565b600060208284031215610fc757600080fd5b5035919050565b602081526000825160c06020840152610fea60e0840182610e75565b90506020840151601f19808584030160408601526110088383610e75565b92506040860151915080858403016060860152506110268282610e75565b91505060608401516080840152608084015160a084015260a084015160c08401528091505092915050565b600080828403606081121561106557600080fd5b833567ffffffffffffffff81111561107c57600080fd5b61108886828701610ef3565b9350506040601f198201121561109d57600080fd5b506020830190509250929050565b6000602082840312156110bd57600080fd5b813567ffffffffffffffff8111156110d457600080fd5b820160c081850312156108dc57600080fd5b600181811c908216806110fa57607f821691505b60208210810361111a57634e487b7160e01b600052602260045260246000fd5b50919050565b61ffff8116811461113057600080fd5b50565b60006040828403121561114557600080fd5b6040516040810181811067ffffffffffffffff8211171561116857611168610eb4565b604052825161117681611120565b8152602083015161118681611120565b60208201529392505050565b6000602082840312156111a457600080fd5b815180151581146108dc57600080fd5b6001600160a01b038116811461113057600080fd5b6000602082840312156111db57600080fd5b81516108dc816111b4565b6060815260006111f96060830185610e75565b9050823561120681611120565b61ffff80821660208501526020850135915061122182611120565b808216604085015250509392505050565b60006020828403121561124457600080fd5b81356108dc816111b4565b6000808335601e1984360301811261126657600080fd5b83018035915067ffffffffffffffff82111561128157600080fd5b60200191503681900382131561129657600080fd5b9250929050565b6001600160a01b038381168252604060208084018290528451918401829052600092858201929091906060860190855b818110156112eb5785518516835294830194918301916001016112cd565b509098975050505050505050565b6000823560be1983360301811261130f57600080fd5b9190910192915050565b600060c0823603121561132b57600080fd5b611333610eca565b823567ffffffffffffffff8082111561134b57600080fd5b61135736838701610ef3565b8352602085013591508082111561136d57600080fd5b61137936838701610ef3565b6020840152604085013591508082111561139257600080fd5b5061139f36828601610ef3565b604083015250606083013560608201526080830135608082015260a083013560a082015280915050919050565b606081526000845160c060608401526113e9610120840182610e75565b90506020860151605f19808584030160808601526114078383610e75565b925060408801519150808584030160a0860152506114258282610e75565b606088015160c0860152608088015160e086015260a088015161010086015286151560208601529250611456915050565b82151560408301526102ff565b601f8211156114af576000816000526020600020601f850160051c8101602086101561148c5750805b601f850160051c820191505b818110156114ab57828155600101611498565b5050505b505050565b67ffffffffffffffff8311156114cc576114cc610eb4565b6114e0836114da83546110e6565b83611463565b6000601f84116001811461151457600085156114fc5750838201355b600019600387901b1c1916600186901b17835561156e565b600083815260209020601f19861690835b828110156115455786850135825560209485019460019092019101611525565b50868210156115625760001960f88860031b161c19848701351681555b505060018560011b0183555b5050505050565b61157f828361124f565b67ffffffffffffffff81111561159757611597610eb4565b6115ab816115a585546110e6565b85611463565b6000601f8211600181146115df57600083156115c75750838201355b600019600385901b1c1916600184901b178555611639565b600085815260209020601f19841690835b8281101561161057868501358255602094850194600190920191016115f0565b508482101561162d5760001960f88660031b161c19848701351681555b505060018360011b0185555b5050505061164a602083018361124f565b6116588183600186016114b4565b5050611667604083018361124f565b6116758183600286016114b4565b5050606082013560038201556080820135600482015560a082013560058201555050565b8181038181111561044057634e487b7160e01b600052601160045260246000fd5b6000825161130f818460208701610e5156fea2646970667358221220ea6278e8acda4aa3a2df6886e02b98a649722ab2ca47ac10c73f15663b44accf64736f6c63430008180033",
  "linkReferences": {
    "contracts/libraries/LibAccess.sol": {
      "LibAccess": [
        {
          "length": 20,
          "start": 1799
        },
        {
          "length": 20,
          "start": 2056
        },
        {
          "length": 20,
          "start": 3314
        }
      ]
    },
    "contracts/libraries/LibVectorAddress.sol": {
      "LibVectorAddress": [
        {
          "length": 20,
          "start": 3467
        }
      ]
    }
  },
  "deployedLinkReferences": {
    "contracts/libraries/LibAccess.sol": {
      "LibAccess": [
        {
          "length": 20,
          "start": 1115
        },
        {
          "length": 20,
          "start": 1372
        },
        {
          "length": 20,
          "start": 2630
        }
      ]
    },
    "contracts/libraries/LibVectorAddress.sol": {
      "LibVectorAddress": [
        {
          "length": 20,
          "start": 2783
        }
      ]
    }
  }
}