{
  "_format": "hh-sol-artifact-1",
  "contractName": "CompanyRegistry",
  "sourceName": "contracts/company/CompanyRegistry.sol",
  "abi": [
    {
      "inputs": [
        {
          "components": [
            {
              "internalType": "address",
              "name": "mainAdmin",
              "type": "address"
            },
            {
              "internalType": "address",
              "name": "companyFactory",
              "type": "address"
            },
            {
              "internalType": "address",
              "name": "worldRegistry",
              "type": "address"
            },
            {
              "internalType": "address[]",
              "name": "admins",
              "type": "address[]"
            }
          ],
          "internalType": "struct CompanyRegistryArgs",
          "name": "args",
          "type": "tuple"
        }
      ],
      "stateMutability": "nonpayable",
      "type": "constructor"
    },
    {
      "inputs": [],
      "name": "AccessControlBadConfirmation",
      "type": "error"
    },
    {
      "inputs": [
        {
          "internalType": "address",
          "name": "account",
          "type": "address"
        },
        {
          "internalType": "bytes32",
          "name": "neededRole",
          "type": "bytes32"
        }
      ],
      "name": "AccessControlUnauthorizedAccount",
      "type": "error"
    },
    {
      "inputs": [],
      "name": "ReentrancyGuardReentrantCall",
      "type": "error"
    },
    {
      "anonymous": false,
      "inputs": [
        {
          "indexed": true,
          "internalType": "address",
          "name": "company",
          "type": "address"
        }
      ],
      "name": "CompanyDeactivated",
      "type": "event"
    },
    {
      "anonymous": false,
      "inputs": [
        {
          "indexed": true,
          "internalType": "address",
          "name": "company",
          "type": "address"
        }
      ],
      "name": "CompanyReactivated",
      "type": "event"
    },
    {
      "anonymous": false,
      "inputs": [
        {
          "indexed": true,
          "internalType": "address",
          "name": "company",
          "type": "address"
        },
        {
          "components": [
            {
              "internalType": "string",
              "name": "x",
              "type": "string"
            },
            {
              "internalType": "string",
              "name": "y",
              "type": "string"
            },
            {
              "internalType": "string",
              "name": "z",
              "type": "string"
            },
            {
              "internalType": "uint256",
              "name": "t",
              "type": "uint256"
            },
            {
              "internalType": "uint256",
              "name": "p",
              "type": "uint256"
            },
            {
              "internalType": "uint256",
              "name": "p_sub",
              "type": "uint256"
            }
          ],
          "indexed": true,
          "internalType": "struct VectorAddress",
          "name": "",
          "type": "tuple"
        }
      ],
      "name": "CompanyRegistered",
      "type": "event"
    },
    {
      "anonymous": false,
      "inputs": [
        {
          "indexed": true,
          "internalType": "bytes32",
          "name": "role",
          "type": "bytes32"
        },
        {
          "indexed": true,
          "internalType": "bytes32",
          "name": "previousAdminRole",
          "type": "bytes32"
        },
        {
          "indexed": true,
          "internalType": "bytes32",
          "name": "newAdminRole",
          "type": "bytes32"
        }
      ],
      "name": "RoleAdminChanged",
      "type": "event"
    },
    {
      "anonymous": false,
      "inputs": [
        {
          "indexed": true,
          "internalType": "bytes32",
          "name": "role",
          "type": "bytes32"
        },
        {
          "indexed": true,
          "internalType": "address",
          "name": "account",
          "type": "address"
        },
        {
          "indexed": true,
          "internalType": "address",
          "name": "sender",
          "type": "address"
        }
      ],
      "name": "RoleGranted",
      "type": "event"
    },
    {
      "anonymous": false,
      "inputs": [
        {
          "indexed": true,
          "internalType": "bytes32",
          "name": "role",
          "type": "bytes32"
        },
        {
          "indexed": true,
          "internalType": "address",
          "name": "account",
          "type": "address"
        },
        {
          "indexed": true,
          "internalType": "address",
          "name": "sender",
          "type": "address"
        }
      ],
      "name": "RoleRevoked",
      "type": "event"
    },
    {
      "inputs": [],
      "name": "ADMIN_ROLE",
      "outputs": [
        {
          "internalType": "bytes32",
          "name": "",
          "type": "bytes32"
        }
      ],
      "stateMutability": "view",
      "type": "function"
    },
    {
      "inputs": [],
      "name": "DEFAULT_ADMIN_ROLE",
      "outputs": [
        {
          "internalType": "bytes32",
          "name": "",
          "type": "bytes32"
        }
      ],
      "stateMutability": "view",
      "type": "function"
    },
    {
      "inputs": [],
      "name": "companyFactory",
      "outputs": [
        {
          "internalType": "contract ICompanyFactory",
          "name": "",
          "type": "address"
        }
      ],
      "stateMutability": "view",
      "type": "function"
    },
    {
      "inputs": [],
      "name": "currentCompanyVersion",
      "outputs": [
        {
          "internalType": "uint256",
          "name": "",
          "type": "uint256"
        }
      ],
      "stateMutability": "view",
      "type": "function"
    },
    {
      "inputs": [
        {
          "internalType": "address",
          "name": "company",
          "type": "address"
        }
      ],
      "name": "deactivateCompany",
      "outputs": [],
      "stateMutability": "nonpayable",
      "type": "function"
    },
    {
      "inputs": [
        {
          "internalType": "bytes32",
          "name": "role",
          "type": "bytes32"
        }
      ],
      "name": "getRoleAdmin",
      "outputs": [
        {
          "internalType": "bytes32",
          "name": "",
          "type": "bytes32"
        }
      ],
      "stateMutability": "view",
      "type": "function"
    },
    {
      "inputs": [
        {
          "internalType": "bytes32",
          "name": "role",
          "type": "bytes32"
        },
        {
          "internalType": "address",
          "name": "account",
          "type": "address"
        }
      ],
      "name": "grantRole",
      "outputs": [],
      "stateMutability": "nonpayable",
      "type": "function"
    },
    {
      "inputs": [
        {
          "internalType": "bytes32",
          "name": "role",
          "type": "bytes32"
        },
        {
          "internalType": "address",
          "name": "account",
          "type": "address"
        }
      ],
      "name": "hasRole",
      "outputs": [
        {
          "internalType": "bool",
          "name": "",
          "type": "bool"
        }
      ],
      "stateMutability": "view",
      "type": "function"
    },
    {
      "inputs": [
        {
          "internalType": "address",
          "name": "company",
          "type": "address"
        }
      ],
      "name": "isRegisteredCompany",
      "outputs": [
        {
          "internalType": "bool",
          "name": "",
          "type": "bool"
        }
      ],
      "stateMutability": "view",
      "type": "function"
    },
    {
      "inputs": [
        {
          "internalType": "address",
          "name": "company",
          "type": "address"
        }
      ],
      "name": "reactivateCompany",
      "outputs": [],
      "stateMutability": "nonpayable",
      "type": "function"
    },
    {
      "inputs": [
        {
          "components": [
            {
              "internalType": "bool",
              "name": "sendTokensToCompanyOwner",
              "type": "bool"
            },
            {
              "internalType": "address",
              "name": "owner",
              "type": "address"
            },
            {
              "components": [
                {
                  "internalType": "string",
                  "name": "x",
                  "type": "string"
                },
                {
                  "internalType": "string",
                  "name": "y",
                  "type": "string"
                },
                {
                  "internalType": "string",
                  "name": "z",
                  "type": "string"
                },
                {
                  "internalType": "uint256",
                  "name": "t",
                  "type": "uint256"
                },
                {
                  "internalType": "uint256",
                  "name": "p",
                  "type": "uint256"
                },
                {
                  "internalType": "uint256",
                  "name": "p_sub",
                  "type": "uint256"
                }
              ],
              "internalType": "struct VectorAddress",
              "name": "vector",
              "type": "tuple"
            },
            {
              "internalType": "bytes",
              "name": "initData",
              "type": "bytes"
            },
            {
              "internalType": "string",
              "name": "name",
              "type": "string"
            }
          ],
          "internalType": "struct CompanyRegistrationRequest",
          "name": "request",
          "type": "tuple"
        }
      ],
      "name": "registerCompany",
      "outputs": [
        {
          "internalType": "address",
          "name": "",
          "type": "address"
        }
      ],
      "stateMutability": "payable",
      "type": "function"
    },
    {
      "inputs": [
        {
          "internalType": "bytes32",
          "name": "role",
          "type": "bytes32"
        },
        {
          "internalType": "address",
          "name": "callerConfirmation",
          "type": "address"
        }
      ],
      "name": "renounceRole",
      "outputs": [],
      "stateMutability": "nonpayable",
      "type": "function"
    },
    {
      "inputs": [
        {
          "internalType": "bytes32",
          "name": "role",
          "type": "bytes32"
        },
        {
          "internalType": "address",
          "name": "account",
          "type": "address"
        }
      ],
      "name": "revokeRole",
      "outputs": [],
      "stateMutability": "nonpayable",
      "type": "function"
    },
    {
      "inputs": [
        {
          "internalType": "address",
          "name": "factory",
          "type": "address"
        }
      ],
      "name": "setCompanyFactory",
      "outputs": [],
      "stateMutability": "nonpayable",
      "type": "function"
    },
    {
      "inputs": [
        {
          "internalType": "address",
          "name": "registry",
          "type": "address"
        }
      ],
      "name": "setWorldRegistry",
      "outputs": [],
      "stateMutability": "nonpayable",
      "type": "function"
    },
    {
      "inputs": [
        {
          "internalType": "bytes4",
          "name": "interfaceId",
          "type": "bytes4"
        }
      ],
      "name": "supportsInterface",
      "outputs": [
        {
          "internalType": "bool",
          "name": "",
          "type": "bool"
        }
      ],
      "stateMutability": "view",
      "type": "function"
    },
    {
      "inputs": [
        {
          "internalType": "bytes",
          "name": "initData",
          "type": "bytes"
        }
      ],
      "name": "upgradeCompany",
      "outputs": [],
      "stateMutability": "nonpayable",
      "type": "function"
    },
    {
      "inputs": [],
      "name": "worldRegistry",
      "outputs": [
        {
          "internalType": "contract IWorldRegistryV2",
          "name": "",
          "type": "address"
        }
      ],
      "stateMutability": "view",
      "type": "function"
    },
    {
      "stateMutability": "payable",
      "type": "receive"
    }
  ],
  "bytecode": "0x60806040523480156200001157600080fd5b50604051620025813803806200258183398101604081905262000034916200042a565b600160005580516001600160a01b0316620000ae5760405162461bcd60e51b815260206004820152602f60248201527f436f6d70616e7952656769737472793a206d61696e2061646d696e206164647260448201526e06573732063616e6e6f74206265203608c1b60648201526084015b60405180910390fd5b8051620000be9060009062000302565b508051620000dd90600080516020620025618339815191529062000302565b5060208101516001600160a01b03166200014f5760405162461bcd60e51b815260206004820152602c60248201527f436f6d70616e7952656769737472793a20666163746f7279206164647265737360448201526b02063616e6e6f7420626520360a41b6064820152608401620000a5565b60408101516001600160a01b0316620001d15760405162461bcd60e51b815260206004820152603360248201527f436f6d70616e7952656769737472793a20776f726c642072656769737472792060448201527f616464726573732063616e6e6f742062652030000000000000000000000000006064820152608401620000a5565b6020810151600280546001600160a01b039283166001600160a01b03199182161790915560408301516003805491909316911617905560005b816060015151811015620002fa5760006001600160a01b0316826060015182815181106200023c576200023c6200054d565b60200260200101516001600160a01b031603620002af5760405162461bcd60e51b815260206004820152602a60248201527f436f6d70616e7952656769737472793a2061646d696e206164647265737320636044820152690616e6e6f7420626520360b41b6064820152608401620000a5565b620002f06000805160206200256183398151915283606001518381518110620002dc57620002dc6200054d565b60200260200101516200030260201b60201c565b506001016200020a565b505062000563565b60008281526001602090815260408083206001600160a01b038516845290915281205460ff166200038f5760008381526001602081815260408084206001600160a01b0387168086529252808420805460ff19169093179092559051339286917f2f8788117e7eff1d82e926ec794901d17c78024a50270940304540a733656f0d9190a450600162000393565b5060005b92915050565b634e487b7160e01b600052604160045260246000fd5b604051608081016001600160401b0381118282101715620003d457620003d462000399565b60405290565b604051601f8201601f191681016001600160401b038111828210171562000405576200040562000399565b604052919050565b80516001600160a01b03811681146200042557600080fd5b919050565b600060208083850312156200043e57600080fd5b82516001600160401b03808211156200045657600080fd5b90840190608082870312156200046b57600080fd5b62000475620003af565b62000480836200040d565b81526200048f8484016200040d565b84820152620004a1604084016200040d565b6040820152606083015182811115620004b957600080fd5b80840193505086601f840112620004cf57600080fd5b825182811115620004e457620004e462000399565b8060051b9250620004f7858401620003da565b81815292840185019285810190898511156200051257600080fd5b948601945b848610156200053b576200052b866200040d565b8252948601949086019062000517565b60608401525090979650505050505050565b634e487b7160e01b600052603260045260246000fd5b611fee80620005736000396000f3fe60806040526004361061010d5760003560e01c806390159c9411610095578063a217fddf11610064578063a217fddf1461031c578063d449cf2514610331578063d547741f14610351578063dc1c44be14610371578063e237fbad1461039157600080fd5b806390159c9414610283578063911c2a8c146102bc57806391d14854146102dc578063a18cd5cc146102fc57600080fd5b806336568abe116100dc57806336568abe146101da5780635c3ce693146101fa57806375b238fc1461020f57806382c154e01461024357806383e005fa1461026357600080fd5b806301ffc9a71461011957806322feaee61461014e578063248a9ca3146101795780632f2ff15d146101b857600080fd5b3661011457005b600080fd5b34801561012557600080fd5b50610139610134366004611666565b6103b1565b60405190151581526020015b60405180910390f35b61016161015c366004611893565b6103e8565b6040516001600160a01b039091168152602001610145565b34801561018557600080fd5b506101aa61019436600461196a565b6000908152600160208190526040909120015490565b604051908152602001610145565b3480156101c457600080fd5b506101d86101d3366004611983565b6107bf565b005b3480156101e657600080fd5b506101d86101f5366004611983565b6107eb565b34801561020657600080fd5b506101aa610823565b34801561021b57600080fd5b506101aa7fa49807205ce4d355092ef5a8a18f56e8913cf4a201fbe287825b095693c2177581565b34801561024f57600080fd5b506101d861025e3660046119b3565b610896565b34801561026f57600080fd5b506101d861027e3660046119b3565b610969565b34801561028f57600080fd5b5061013961029e3660046119b3565b6001600160a01b031660009081526005602052604090205460ff1690565b3480156102c857600080fd5b50600354610161906001600160a01b031681565b3480156102e857600080fd5b506101396102f7366004611983565b610cec565b34801561030857600080fd5b506101d86103173660046119b3565b610d17565b34801561032857600080fd5b506101aa600081565b34801561033d57600080fd5b506101d861034c3660046119d0565b61109a565b34801561035d57600080fd5b506101d861036c366004611983565b611186565b34801561037d57600080fd5b50600254610161906001600160a01b031681565b34801561039d57600080fd5b506101d86103ac3660046119b3565b6111ac565b60006001600160e01b03198216637965db0b60e01b14806103e257506301ffc9a760e01b6001600160e01b03198316145b92915050565b600354604051637856879f60e11b81523360048201526000916001600160a01b03169063f0ad0f3e90602401602060405180830381865afa158015610431573d6000803e3d6000fd5b505050506040513d601f19601f820116820180604052508101906104559190611a42565b61047a5760405162461bcd60e51b815260040161047190611a5f565b60405180910390fd5b610482611286565b600061049183608001516112b0565b905060006001600160a01b03166004826040516104ae9190611ac9565b908152604051908190036020019020546001600160a01b0316146105285760405162461bcd60e51b815260206004820152602b60248201527f436f6d70616e7952656769737472793a20636f6d70616e79206e616d6520616c60448201526a3932b0b23c903a30b5b2b760a91b6064820152608401610471565b6002546040805160a0810182526020808701516001600160a01b0390811683523391830191909152868301518284015260608088015190830152608080880151908301529151637be4fdd760e11b8152600093929092169163f7c9fbae9161059291600401611b11565b6020604051808303816000875af11580156105b1573d6000803e3d6000fd5b505050506040513d601f19601f820116820180604052508101906105d59190611bfc565b90506001600160a01b03811661063e5760405162461bcd60e51b815260206004820152602860248201527f436f6d70616e7952656769737472793a20636f6d70616e79206372656174696f6044820152671b8819985a5b195960c21b6064820152608401610471565b8060048360405161064f9190611ac9565b908152604080516020928190038301902080546001600160a01b0319166001600160a01b0394851617905591831660009081526005909152818120805460ff191660011790559085015182916006916106a790611320565b8051602091820120825281019190915260400160002080546001600160a01b0319166001600160a01b03929092169190911790553415610760578351156107295760208401516040516001600160a01b03909116903480156108fc02916000818181858888f19350505050158015610723573d6000803e3d6000fd5b50610760565b6040516001600160a01b038216903480156108fc02916000818181858888f1935050505015801561075e573d6000803e3d6000fd5b505b83604001516040516107729190611c19565b604051908190038120906001600160a01b038316907f7d4bf7edd813e2887ba5c21733818d0fb09a3e972e1dbc39a7f639fda34dd71490600090a39150506107ba6001600055565b919050565b600082815260016020819052604090912001546107db81611383565b6107e5838361138d565b50505050565b6001600160a01b03811633146108145760405163334bd91960e11b815260040160405180910390fd5b61081e8282611406565b505050565b6002546040805163e921c27560e01b815290516000926001600160a01b03169163e921c2759160048083019260209291908290030181865afa15801561086d573d6000803e3d6000fd5b505050506040513d601f19601f820116820180604052508101906108919190611ca7565b905090565b6108c07fa49807205ce4d355092ef5a8a18f56e8913cf4a201fbe287825b095693c2177533610cec565b6108dc5760405162461bcd60e51b815260040161047190611cc0565b6001600160a01b0381166109475760405162461bcd60e51b815260206004820152602c60248201527f436f6d70616e7952656769737472793a20666163746f7279206164647265737360448201526b02063616e6e6f7420626520360a41b6064820152608401610471565b600280546001600160a01b0319166001600160a01b0392909216919091179055565b600354604051637856879f60e11b81523360048201526001600160a01b039091169063f0ad0f3e90602401602060405180830381865afa1580156109b1573d6000803e3d6000fd5b505050506040513d601f19601f820116820180604052508101906109d59190611a42565b6109f15760405162461bcd60e51b815260040161047190611a5f565b6109f9611286565b6000819050336001600160a01b0316816001600160a01b03166330b67baa6040518163ffffffff1660e01b8152600401602060405180830381865afa158015610a46573d6000803e3d6000fd5b505050506040513d601f19601f82011682018060405250810190610a6a9190611bfc565b6001600160a01b031614610a905760405162461bcd60e51b815260040161047190611d07565b6001600160a01b03821660009081526005602052604090205460ff16610b085760405162461bcd60e51b815260206004820152602760248201527f436f6d70616e7952656769737472793a20636f6d70616e79206e6f74207265676044820152661a5cdd195c995960ca1b6064820152608401610471565b6000816001600160a01b0316632fcbab9a6040518163ffffffff1660e01b8152600401600060405180830381865afa158015610b48573d6000803e3d6000fd5b505050506040513d6000823e601f3d908101601f19168201604052610b709190810190611db1565b9050826001600160a01b03166351b42b006040518163ffffffff1660e01b8152600401600060405180830381600087803b158015610bad57600080fd5b505af1158015610bc1573d6000803e3d6000fd5b5050506001600160a01b038416600081815260056020526040808220805460ff1916905580516306fdde0360e01b8152905160049450610c4e93926306fdde03928087019290819003870181865afa158015610c21573d6000803e3d6000fd5b505050506040513d6000823e601f3d908101601f19168201604052610c499190810190611e87565b6112b0565b604051610c5b9190611ac9565b90815260405190819003602001902080546001600160a01b031916905560066000610c8583611320565b805160209182012082528101919091526040908101600090812080546001600160a01b031916905590516001600160a01b038516917f98d7b3d048e6fa720609caa5b1caf2a826e4148cefd4e5ea25e27562f8ff4cd691a25050610ce96001600055565b50565b60009182526001602090815260408084206001600160a01b0393909316845291905290205460ff1690565b600354604051637856879f60e11b81523360048201526001600160a01b039091169063f0ad0f3e90602401602060405180830381865afa158015610d5f573d6000803e3d6000fd5b505050506040513d601f19601f82011682018060405250810190610d839190611a42565b610d9f5760405162461bcd60e51b815260040161047190611a5f565b610da7611286565b6000819050336001600160a01b0316816001600160a01b03166330b67baa6040518163ffffffff1660e01b8152600401602060405180830381865afa158015610df4573d6000803e3d6000fd5b505050506040513d601f19601f82011682018060405250810190610e189190611bfc565b6001600160a01b031614610e3e5760405162461bcd60e51b815260040161047190611d07565b6001600160a01b03821660009081526005602052604090205460ff1615610eb75760405162461bcd60e51b815260206004820152602760248201527f436f6d70616e7952656769737472793a20636f6d70616e7920616c72656164796044820152662061637469766560c81b6064820152608401610471565b6000816001600160a01b0316632fcbab9a6040518163ffffffff1660e01b8152600401600060405180830381865afa158015610ef7573d6000803e3d6000fd5b505050506040513d6000823e601f3d908101601f19168201604052610f1f9190810190611db1565b6001600160a01b038416600081815260056020526040808220805460ff1916600117905580516306fdde0360e01b815290519394508693600493610f849390926306fdde03928187019291819003870181865afa158015610c21573d6000803e3d6000fd5b604051610f919190611ac9565b90815260405190819003602001902080546001600160a01b03929092166001600160a01b03199092169190911790558260066000610fce84611320565b80519060200120815260200190815260200160002060006101000a8154816001600160a01b0302191690836001600160a01b03160217905550826001600160a01b031663d18611d66040518163ffffffff1660e01b8152600401600060405180830381600087803b15801561104257600080fd5b505af1158015611056573d6000803e3d6000fd5b50506040516001600160a01b03861692507f56f6a3e9d40b9bd0b6b7e248fec2238bd8531641b845a744e87a90488ac78e0f9150600090a25050610ce96001600055565b3360009081526005602052604090205460ff1661110a5760405162461bcd60e51b815260206004820152602860248201527f436f6d70616e7952656769737472793a2063616c6c6572206973206e6f74206160448201526720636f6d70616e7960c01b6064820152608401610471565b611112611286565b600254604051634b48b55d60e11b81526001600160a01b03909116906396916aba9061114690339086908690600401611ebc565b600060405180830381600087803b15801561116057600080fd5b505af1158015611174573d6000803e3d6000fd5b505050506111826001600055565b5050565b600082815260016020819052604090912001546111a281611383565b6107e58383611406565b6111d67fa49807205ce4d355092ef5a8a18f56e8913cf4a201fbe287825b095693c2177533610cec565b6111f25760405162461bcd60e51b815260040161047190611cc0565b6001600160a01b0381166112645760405162461bcd60e51b815260206004820152603360248201527f436f6d70616e7952656769737472793a20776f726c64207265676973747279206044820152720616464726573732063616e6e6f74206265203606c1b6064820152608401610471565b600380546001600160a01b0319166001600160a01b0392909216919091179055565b6002600054036112a957604051633ee5aeb560e01b815260040160405180910390fd5b6002600055565b60608160005b8151811015611319576112e88282815181106112d4576112d4611efc565b01602001516001600160f81b031916611473565b8282815181106112fa576112fa611efc565b60200101906001600160f81b031916908160001a9053506001016112b6565b5092915050565b606081600001518260200151836040015161133e85606001516114c2565b61134b86608001516114c2565b6113588760a001516114c2565b60405160200161136d96959493929190611f12565b6040516020818303038152906040529050919050565b610ce98133611555565b60006113998383610cec565b6113fe5760008381526001602081815260408084206001600160a01b0387168086529252808420805460ff19169093179092559051339286917f2f8788117e7eff1d82e926ec794901d17c78024a50270940304540a733656f0d9190a45060016103e2565b5060006103e2565b60006114128383610cec565b156113fe5760008381526001602090815260408083206001600160a01b0386168085529252808320805460ff1916905551339286917ff6391f5c32d9c69d2a47ea670b442974b53935d1edc7fd64eb21e047a839171b9190a45060016103e2565b6000604160f81b6001600160f81b03198316108015906114a15750602d60f91b6001600160f81b0319831611155b156114be576114b560f883901c6020611f91565b60f81b92915050565b5090565b606060006114cf8361158e565b600101905060008167ffffffffffffffff8111156114ef576114ef611697565b6040519080825280601f01601f191660200182016040528015611519576020820181803683370190505b5090508181016020015b600019016f181899199a1a9b1b9c1cb0b131b232b360811b600a86061a8153600a850494508461152357509392505050565b61155f8282610cec565b6111825760405163e2517d3f60e01b81526001600160a01b038216600482015260248101839052604401610471565b60008072184f03e93ff9f4daa797ed6e38ed64bf6a1f0160401b83106115cd5772184f03e93ff9f4daa797ed6e38ed64bf6a1f0160401b830492506040015b6d04ee2d6d415b85acef810000000083106115f9576d04ee2d6d415b85acef8100000000830492506020015b662386f26fc10000831061161757662386f26fc10000830492506010015b6305f5e100831061162f576305f5e100830492506008015b612710831061164357612710830492506004015b60648310611655576064830492506002015b600a83106103e25760010192915050565b60006020828403121561167857600080fd5b81356001600160e01b03198116811461169057600080fd5b9392505050565b634e487b7160e01b600052604160045260246000fd5b60405160c0810167ffffffffffffffff811182821017156116d0576116d0611697565b60405290565b60405160a0810167ffffffffffffffff811182821017156116d0576116d0611697565b604051601f8201601f1916810167ffffffffffffffff8111828210171561172257611722611697565b604052919050565b8015158114610ce957600080fd5b80356107ba8161172a565b6001600160a01b0381168114610ce957600080fd5b80356107ba81611743565b600067ffffffffffffffff82111561177d5761177d611697565b50601f01601f191660200190565b600082601f83011261179c57600080fd5b81356117af6117aa82611763565b6116f9565b8181528460208386010111156117c457600080fd5b816020850160208301376000918101602001919091529392505050565b600060c082840312156117f357600080fd5b6117fb6116ad565b9050813567ffffffffffffffff8082111561181557600080fd5b6118218583860161178b565b8352602084013591508082111561183757600080fd5b6118438583860161178b565b6020840152604084013591508082111561185c57600080fd5b506118698482850161178b565b604083015250606082013560608201526080820135608082015260a082013560a082015292915050565b6000602082840312156118a557600080fd5b813567ffffffffffffffff808211156118bd57600080fd5b9083019060a082860312156118d157600080fd5b6118d96116d6565b6118e283611738565b81526118f060208401611758565b602082015260408301358281111561190757600080fd5b611913878286016117e1565b60408301525060608301358281111561192b57600080fd5b6119378782860161178b565b60608301525060808301358281111561194f57600080fd5b61195b8782860161178b565b60808301525095945050505050565b60006020828403121561197c57600080fd5b5035919050565b6000806040838503121561199657600080fd5b8235915060208301356119a881611743565b809150509250929050565b6000602082840312156119c557600080fd5b813561169081611743565b600080602083850312156119e357600080fd5b823567ffffffffffffffff808211156119fb57600080fd5b818501915085601f830112611a0f57600080fd5b813581811115611a1e57600080fd5b866020828501011115611a3057600080fd5b60209290920196919550909350505050565b600060208284031215611a5457600080fd5b81516116908161172a565b60208082526026908201527f436f6d70616e7952656769737472793a2063616c6c6572206973206e6f742061604082015265081ddbdc9b1960d21b606082015260800190565b60005b83811015611ac0578181015183820152602001611aa8565b50506000910152565b60008251611adb818460208701611aa5565b9190910192915050565b60008151808452611afd816020860160208601611aa5565b601f01601f19169290920160200192915050565b60208152600060018060a01b0380845116602084015280602085015116604084015250604083015160a06060840152805160c080850152611b56610180850182611ae5565b9050602082015160bf19808684030160e0870152611b748383611ae5565b925060408401519150808684030161010087015250611b938282611ae5565b9150506060820151610120850152608082015161014085015260a082015161016085015260608501519150601f1980858303016080860152611bd58284611ae5565b925060808601519150808584030160a086015250611bf38282611ae5565b95945050505050565b600060208284031215611c0e57600080fd5b815161169081611743565b600082518051611c2d818560208501611aa5565b601f19915081601f8201168401905060208501518051611c51818460208501611aa5565b83601f82011683019250505060408501518051611c72818460208501611aa5565b83601f82011683019350505050606084015181526080840151602082015260a084015160408201526060810191505092915050565b600060208284031215611cb957600080fd5b5051919050565b60208082526027908201527f436f6d70616e7952656769737472793a2063616c6c6572206973206e6f742061604082015266371030b236b4b760c91b606082015260800190565b6020808252603b908201527f436f6d70616e7952656769737472793a2063616c6c6572206973206e6f74207460408201527f686520706172656e7420776f726c6420666f7220636f6d70616e790000000000606082015260800190565b600082601f830112611d7557600080fd5b8151611d836117aa82611763565b818152846020838601011115611d9857600080fd5b611da9826020830160208701611aa5565b949350505050565b600060208284031215611dc357600080fd5b815167ffffffffffffffff80821115611ddb57600080fd5b9083019060c08286031215611def57600080fd5b611df76116ad565b825182811115611e0657600080fd5b611e1287828601611d64565b825250602083015182811115611e2757600080fd5b611e3387828601611d64565b602083015250604083015182811115611e4b57600080fd5b611e5787828601611d64565b604083015250606083015160608201526080830151608082015260a083015160a082015280935050505092915050565b600060208284031215611e9957600080fd5b815167ffffffffffffffff811115611eb057600080fd5b611da984828501611d64565b6001600160a01b03841681526040602082018190528101829052818360608301376000818301606090810191909152601f909201601f1916010192915050565b634e487b7160e01b600052603260045260246000fd5b600087516020611f258285838d01611aa5565b885191840191611f388184848d01611aa5565b8851920191611f4a8184848c01611aa5565b8751920191611f5c8184848b01611aa5565b8651920191611f6e8184848a01611aa5565b8551920191611f808184848901611aa5565b919091019998505050505050505050565b60ff81811683821601908111156103e257634e487b7160e01b600052601160045260246000fdfea26469706673582212200373da3449fadb371a24356f5c76d748092bbe2f5656d499c0f1f769f93b1e1564736f6c63430008180033a49807205ce4d355092ef5a8a18f56e8913cf4a201fbe287825b095693c21775",
  "linkReferences": {},
  "deployedLinkReferences": {}
}