{
  "_format": "hh-sol-artifact-1",
  "contractName": "Company",
  "sourceName": "contracts/company/Company.sol",
  "abi": [
    {
      "inputs": [
        {
          "components": [
            {
              "internalType": "address",
              "name": "companyFactory",
              "type": "address"
            },
            {
              "internalType": "address",
              "name": "companyRegistry",
              "type": "address"
            },
            {
              "internalType": "contract IExperienceRegistry",
              "name": "experienceRegistry",
              "type": "address"
            },
            {
              "internalType": "contract IAssetRegistry",
              "name": "assetRegistry",
              "type": "address"
            },
            {
              "internalType": "contract IAvatarRegistry",
              "name": "avatarRegistry",
              "type": "address"
            }
          ],
          "internalType": "struct CompanyConstructorArgs",
          "name": "args",
          "type": "tuple"
        }
      ],
      "stateMutability": "nonpayable",
      "type": "constructor"
    },
    {
      "inputs": [],
      "name": "AccessControlBadConfirmation",
      "type": "error"
    },
    {
      "inputs": [
        {
          "internalType": "address",
          "name": "account",
          "type": "address"
        },
        {
          "internalType": "bytes32",
          "name": "neededRole",
          "type": "bytes32"
        }
      ],
      "name": "AccessControlUnauthorizedAccount",
      "type": "error"
    },
    {
      "inputs": [],
      "name": "ReentrancyGuardReentrantCall",
      "type": "error"
    },
    {
      "anonymous": false,
      "inputs": [
        {
          "indexed": true,
          "internalType": "address",
          "name": "asset",
          "type": "address"
        },
        {
          "indexed": true,
          "internalType": "address",
          "name": "to",
          "type": "address"
        },
        {
          "indexed": false,
          "internalType": "uint256",
          "name": "amountOrTokenId",
          "type": "uint256"
        }
      ],
      "name": "AssetMinted",
      "type": "event"
    },
    {
      "anonymous": false,
      "inputs": [
        {
          "indexed": true,
          "internalType": "address",
          "name": "asset",
          "type": "address"
        },
        {
          "indexed": true,
          "internalType": "address",
          "name": "holder",
          "type": "address"
        },
        {
          "indexed": false,
          "internalType": "uint256",
          "name": "amountOrTokenId",
          "type": "uint256"
        }
      ],
      "name": "AssetRevoked",
      "type": "event"
    },
    {
      "anonymous": false,
      "inputs": [],
      "name": "CompanyHookRemoved",
      "type": "event"
    },
    {
      "anonymous": false,
      "inputs": [
        {
          "indexed": true,
          "internalType": "address",
          "name": "hook",
          "type": "address"
        }
      ],
      "name": "CompanyHookSet",
      "type": "event"
    },
    {
      "anonymous": false,
      "inputs": [
        {
          "indexed": true,
          "internalType": "address",
          "name": "oldVersion",
          "type": "address"
        },
        {
          "indexed": true,
          "internalType": "address",
          "name": "nextVersion",
          "type": "address"
        }
      ],
      "name": "CompanyUpgraded",
      "type": "event"
    },
    {
      "anonymous": false,
      "inputs": [
        {
          "indexed": true,
          "internalType": "address",
          "name": "experience",
          "type": "address"
        },
        {
          "indexed": false,
          "internalType": "uint256",
          "name": "portalId",
          "type": "uint256"
        }
      ],
      "name": "ExperienceAdded",
      "type": "event"
    },
    {
      "anonymous": false,
      "inputs": [
        {
          "indexed": true,
          "internalType": "bytes32",
          "name": "role",
          "type": "bytes32"
        },
        {
          "indexed": true,
          "internalType": "bytes32",
          "name": "previousAdminRole",
          "type": "bytes32"
        },
        {
          "indexed": true,
          "internalType": "bytes32",
          "name": "newAdminRole",
          "type": "bytes32"
        }
      ],
      "name": "RoleAdminChanged",
      "type": "event"
    },
    {
      "anonymous": false,
      "inputs": [
        {
          "indexed": true,
          "internalType": "bytes32",
          "name": "role",
          "type": "bytes32"
        },
        {
          "indexed": true,
          "internalType": "address",
          "name": "account",
          "type": "address"
        },
        {
          "indexed": true,
          "internalType": "address",
          "name": "sender",
          "type": "address"
        }
      ],
      "name": "RoleGranted",
      "type": "event"
    },
    {
      "anonymous": false,
      "inputs": [
        {
          "indexed": true,
          "internalType": "bytes32",
          "name": "role",
          "type": "bytes32"
        },
        {
          "indexed": true,
          "internalType": "address",
          "name": "account",
          "type": "address"
        },
        {
          "indexed": true,
          "internalType": "address",
          "name": "sender",
          "type": "address"
        }
      ],
      "name": "RoleRevoked",
      "type": "event"
    },
    {
      "anonymous": false,
      "inputs": [
        {
          "indexed": true,
          "internalType": "address",
          "name": "signer",
          "type": "address"
        }
      ],
      "name": "SignerAdded",
      "type": "event"
    },
    {
      "anonymous": false,
      "inputs": [
        {
          "indexed": true,
          "internalType": "address",
          "name": "signer",
          "type": "address"
        }
      ],
      "name": "SignerRemoved",
      "type": "event"
    },
    {
      "inputs": [],
      "name": "DEFAULT_ADMIN_ROLE",
      "outputs": [
        {
          "internalType": "bytes32",
          "name": "",
          "type": "bytes32"
        }
      ],
      "stateMutability": "view",
      "type": "function"
    },
    {
      "inputs": [],
      "name": "SIGNER_ROLE",
      "outputs": [
        {
          "internalType": "bytes32",
          "name": "",
          "type": "bytes32"
        }
      ],
      "stateMutability": "view",
      "type": "function"
    },
    {
      "inputs": [
        {
          "components": [
            {
              "internalType": "string",
              "name": "name",
              "type": "string"
            },
            {
              "internalType": "bytes",
              "name": "initData",
              "type": "bytes"
            }
          ],
          "internalType": "struct AddExperienceArgs",
          "name": "args",
          "type": "tuple"
        }
      ],
      "name": "addExperience",
      "outputs": [],
      "stateMutability": "nonpayable",
      "type": "function"
    },
    {
      "inputs": [
        {
          "internalType": "address",
          "name": "experience",
          "type": "address"
        },
        {
          "internalType": "address",
          "name": "condition",
          "type": "address"
        }
      ],
      "name": "addExperienceCondition",
      "outputs": [],
      "stateMutability": "nonpayable",
      "type": "function"
    },
    {
      "inputs": [
        {
          "internalType": "address",
          "name": "signer",
          "type": "address"
        }
      ],
      "name": "addSigner",
      "outputs": [],
      "stateMutability": "nonpayable",
      "type": "function"
    },
    {
      "inputs": [],
      "name": "assetRegistry",
      "outputs": [
        {
          "internalType": "contract IAssetRegistry",
          "name": "",
          "type": "address"
        }
      ],
      "stateMutability": "view",
      "type": "function"
    },
    {
      "inputs": [],
      "name": "avatarRegistry",
      "outputs": [
        {
          "internalType": "contract IAvatarRegistry",
          "name": "",
          "type": "address"
        }
      ],
      "stateMutability": "view",
      "type": "function"
    },
    {
      "inputs": [
        {
          "internalType": "address",
          "name": "asset",
          "type": "address"
        },
        {
          "internalType": "address",
          "name": "to",
          "type": "address"
        },
        {
          "internalType": "uint256",
          "name": "",
          "type": "uint256"
        }
      ],
      "name": "canMint",
      "outputs": [
        {
          "internalType": "bool",
          "name": "",
          "type": "bool"
        }
      ],
      "stateMutability": "view",
      "type": "function"
    },
    {
      "inputs": [
        {
          "internalType": "address",
          "name": "experience",
          "type": "address"
        },
        {
          "internalType": "uint256",
          "name": "fee",
          "type": "uint256"
        }
      ],
      "name": "changeExperiencePortalFee",
      "outputs": [],
      "stateMutability": "nonpayable",
      "type": "function"
    },
    {
      "inputs": [],
      "name": "companyFactory",
      "outputs": [
        {
          "internalType": "address",
          "name": "",
          "type": "address"
        }
      ],
      "stateMutability": "view",
      "type": "function"
    },
    {
      "inputs": [],
      "name": "companyRegistry",
      "outputs": [
        {
          "internalType": "contract ICompanyRegistry",
          "name": "",
          "type": "address"
        }
      ],
      "stateMutability": "view",
      "type": "function"
    },
    {
      "inputs": [],
      "name": "experienceRegistry",
      "outputs": [
        {
          "internalType": "contract IExperienceRegistry",
          "name": "",
          "type": "address"
        }
      ],
      "stateMutability": "view",
      "type": "function"
    },
    {
      "inputs": [
        {
          "internalType": "bytes32",
          "name": "role",
          "type": "bytes32"
        }
      ],
      "name": "getRoleAdmin",
      "outputs": [
        {
          "internalType": "bytes32",
          "name": "",
          "type": "bytes32"
        }
      ],
      "stateMutability": "view",
      "type": "function"
    },
    {
      "inputs": [
        {
          "internalType": "bytes32",
          "name": "role",
          "type": "bytes32"
        },
        {
          "internalType": "address",
          "name": "account",
          "type": "address"
        }
      ],
      "name": "grantRole",
      "outputs": [],
      "stateMutability": "nonpayable",
      "type": "function"
    },
    {
      "inputs": [
        {
          "internalType": "bytes32",
          "name": "role",
          "type": "bytes32"
        },
        {
          "internalType": "address",
          "name": "account",
          "type": "address"
        }
      ],
      "name": "hasRole",
      "outputs": [
        {
          "internalType": "bool",
          "name": "",
          "type": "bool"
        }
      ],
      "stateMutability": "view",
      "type": "function"
    },
    {
      "inputs": [],
      "name": "hook",
      "outputs": [
        {
          "internalType": "contract ICompanyHook",
          "name": "",
          "type": "address"
        }
      ],
      "stateMutability": "view",
      "type": "function"
    },
    {
      "inputs": [
        {
          "components": [
            {
              "internalType": "address",
              "name": "owner",
              "type": "address"
            },
            {
              "internalType": "address",
              "name": "world",
              "type": "address"
            },
            {
              "components": [
                {
                  "internalType": "string",
                  "name": "x",
                  "type": "string"
                },
                {
                  "internalType": "string",
                  "name": "y",
                  "type": "string"
                },
                {
                  "internalType": "string",
                  "name": "z",
                  "type": "string"
                },
                {
                  "internalType": "uint256",
                  "name": "t",
                  "type": "uint256"
                },
                {
                  "internalType": "uint256",
                  "name": "p",
                  "type": "uint256"
                },
                {
                  "internalType": "uint256",
                  "name": "p_sub",
                  "type": "uint256"
                }
              ],
              "internalType": "struct VectorAddress",
              "name": "vector",
              "type": "tuple"
            },
            {
              "internalType": "bytes",
              "name": "initData",
              "type": "bytes"
            },
            {
              "internalType": "string",
              "name": "name",
              "type": "string"
            }
          ],
          "internalType": "struct CompanyInitArgs",
          "name": "request",
          "type": "tuple"
        }
      ],
      "name": "init",
      "outputs": [],
      "stateMutability": "nonpayable",
      "type": "function"
    },
    {
      "inputs": [
        {
          "internalType": "address",
          "name": "signer",
          "type": "address"
        }
      ],
      "name": "isSigner",
      "outputs": [
        {
          "internalType": "bool",
          "name": "",
          "type": "bool"
        }
      ],
      "stateMutability": "view",
      "type": "function"
    },
    {
      "inputs": [
        {
          "internalType": "address",
          "name": "asset",
          "type": "address"
        },
        {
          "internalType": "address",
          "name": "to",
          "type": "address"
        },
        {
          "internalType": "uint256",
          "name": "amount",
          "type": "uint256"
        }
      ],
      "name": "mint",
      "outputs": [],
      "stateMutability": "nonpayable",
      "type": "function"
    },
    {
      "inputs": [],
      "name": "name",
      "outputs": [
        {
          "internalType": "string",
          "name": "",
          "type": "string"
        }
      ],
      "stateMutability": "view",
      "type": "function"
    },
    {
      "inputs": [],
      "name": "owner",
      "outputs": [
        {
          "internalType": "address",
          "name": "",
          "type": "address"
        }
      ],
      "stateMutability": "view",
      "type": "function"
    },
    {
      "inputs": [
        {
          "internalType": "address",
          "name": "experience",
          "type": "address"
        }
      ],
      "name": "removeExperienceCondition",
      "outputs": [],
      "stateMutability": "nonpayable",
      "type": "function"
    },
    {
      "inputs": [],
      "name": "removeHook",
      "outputs": [],
      "stateMutability": "nonpayable",
      "type": "function"
    },
    {
      "inputs": [
        {
          "internalType": "address",
          "name": "signer",
          "type": "address"
        }
      ],
      "name": "removeSigner",
      "outputs": [],
      "stateMutability": "nonpayable",
      "type": "function"
    },
    {
      "inputs": [
        {
          "internalType": "bytes32",
          "name": "role",
          "type": "bytes32"
        },
        {
          "internalType": "address",
          "name": "callerConfirmation",
          "type": "address"
        }
      ],
      "name": "renounceRole",
      "outputs": [],
      "stateMutability": "nonpayable",
      "type": "function"
    },
    {
      "inputs": [
        {
          "internalType": "address",
          "name": "asset",
          "type": "address"
        },
        {
          "internalType": "address",
          "name": "holder",
          "type": "address"
        },
        {
          "internalType": "uint256",
          "name": "amountOrTokenId",
          "type": "uint256"
        }
      ],
      "name": "revoke",
      "outputs": [],
      "stateMutability": "nonpayable",
      "type": "function"
    },
    {
      "inputs": [
        {
          "internalType": "bytes32",
          "name": "role",
          "type": "bytes32"
        },
        {
          "internalType": "address",
          "name": "account",
          "type": "address"
        }
      ],
      "name": "revokeRole",
      "outputs": [],
      "stateMutability": "nonpayable",
      "type": "function"
    },
    {
      "inputs": [
        {
          "internalType": "contract ICompanyHook",
          "name": "_hook",
          "type": "address"
        }
      ],
      "name": "setHook",
      "outputs": [],
      "stateMutability": "nonpayable",
      "type": "function"
    },
    {
      "inputs": [
        {
          "internalType": "bytes4",
          "name": "interfaceId",
          "type": "bytes4"
        }
      ],
      "name": "supportsInterface",
      "outputs": [
        {
          "internalType": "bool",
          "name": "",
          "type": "bool"
        }
      ],
      "stateMutability": "view",
      "type": "function"
    },
    {
      "inputs": [
        {
          "internalType": "bytes",
          "name": "initData",
          "type": "bytes"
        }
      ],
      "name": "upgrade",
      "outputs": [],
      "stateMutability": "nonpayable",
      "type": "function"
    },
    {
      "inputs": [
        {
          "internalType": "address",
          "name": "nextVersion",
          "type": "address"
        }
      ],
      "name": "upgradeComplete",
      "outputs": [],
      "stateMutability": "nonpayable",
      "type": "function"
    },
    {
      "inputs": [],
      "name": "upgraded",
      "outputs": [
        {
          "internalType": "bool",
          "name": "",
          "type": "bool"
        }
      ],
      "stateMutability": "view",
      "type": "function"
    },
    {
      "inputs": [],
      "name": "vectorAddress",
      "outputs": [
        {
          "components": [
            {
              "internalType": "string",
              "name": "x",
              "type": "string"
            },
            {
              "internalType": "string",
              "name": "y",
              "type": "string"
            },
            {
              "internalType": "string",
              "name": "z",
              "type": "string"
            },
            {
              "internalType": "uint256",
              "name": "t",
              "type": "uint256"
            },
            {
              "internalType": "uint256",
              "name": "p",
              "type": "uint256"
            },
            {
              "internalType": "uint256",
              "name": "p_sub",
              "type": "uint256"
            }
          ],
          "internalType": "struct VectorAddress",
          "name": "",
          "type": "tuple"
        }
      ],
      "stateMutability": "view",
      "type": "function"
    },
    {
      "inputs": [
        {
          "internalType": "uint256",
          "name": "amount",
          "type": "uint256"
        }
      ],
      "name": "withdraw",
      "outputs": [],
      "stateMutability": "nonpayable",
      "type": "function"
    },
    {
      "inputs": [],
      "name": "world",
      "outputs": [
        {
          "internalType": "address",
          "name": "",
          "type": "address"
        }
      ],
      "stateMutability": "view",
      "type": "function"
    },
    {
      "stateMutability": "payable",
      "type": "receive"
    }
  ],
  "bytecode": "0x6101006040523480156200001257600080fd5b5060405162002d8138038062002d818339810160408190526200003591620002ca565b600160005580516001600160a01b0316620000a55760405162461bcd60e51b815260206004820152602560248201527f436f6d70616e793a20636f6d70616e79466163746f72792063616e6e6f742062604482015264065203078360dc1b60648201526084015b60405180910390fd5b60208101516001600160a01b0316620001105760405162461bcd60e51b815260206004820152602660248201527f436f6d70616e793a20636f6d70616e7952656769737472792063616e6e6f742060448201526506265203078360d41b60648201526084016200009c565b60408101516001600160a01b03166200017e5760405162461bcd60e51b815260206004820152602960248201527f436f6d70616e793a20657870657269656e636552656769737472792063616e6e60448201526806f74206265203078360bc1b60648201526084016200009c565b60608101516001600160a01b0316620001e65760405162461bcd60e51b8152602060048201526024808201527f436f6d70616e793a20617373657452656769737472792063616e6e6f742062656044820152630203078360e41b60648201526084016200009c565b60808101516001600160a01b0316620002505760405162461bcd60e51b815260206004820152602560248201527f436f6d70616e793a2061766174617252656769737472792063616e6e6f742062604482015264065203078360dc1b60648201526084016200009c565b80516001600160a01b0390811660809081526020830151821660a0526040830151821660c0526060830151821660e05290910151600280546001600160a01b0319169190921617905562000375565b6001600160a01b0381168114620002b557600080fd5b50565b8051620002c5816200029f565b919050565b600060a08284031215620002dd57600080fd5b60405160a081016001600160401b03811182821017156200030e57634e487b7160e01b600052604160045260246000fd5b60405282516200031e816200029f565b8152602083015162000330816200029f565b60208201526200034360408401620002b8565b60408201526200035660608401620002b8565b60608201526200036960808401620002b8565b60808201529392505050565b60805160a05160c05160e0516129a1620003e060003960008181610561015261165d01526000818161050d0152610b5d01526000818161060d01528181610ca101528181610d0e0152610d8d0152600081816106a1015281816112ab015261132a01526129a16000f3fe6080604052600436106102085760003560e01c8063624a7dc711610118578063a217fddf116100a0578063cd806c8b1161006f578063cd806c8b1461064f578063d547741f1461066f578063dc1c44be1461068f578063e3d7ad73146106c3578063eb12d61e146106e357600080fd5b8063a217fddf146105c5578063c28de2cd146105da578063c51aba2b146105fb578063c6c3bbe61461062f57600080fd5b80638f09a6be116100e75780638f09a6be146104fb57806391d148541461052f578063979d7e861461054f5780639e29186d14610583578063a1ebf35d146105a357600080fd5b8063624a7dc71461047b5780637df73e271461049b5780637f5a7c7b146104bb5780638da5cb5b146104db57600080fd5b80632e1a7d4d1161019b57806336568abe1161016a57806336568abe146103e6578063378f17ff146104065780633dfd38731461041b5780635466ddd51461043b57806357433ea61461045b57600080fd5b80632e1a7d4d1461034c5780632f2ff15d1461036c5780632fcbab9a1461038c57806330b67baa146103ae57600080fd5b8063243546a6116101d7578063243546a6146102ad578063248a9ca3146102cd578063253946451461030c5780632663d1f71461032c57600080fd5b806301ffc9a7146102145780630346f5f51461024957806306fdde031461026b5780630e316ab71461028d57600080fd5b3661020f57005b600080fd5b34801561022057600080fd5b5061023461022f366004612117565b610703565b60405190151581526020015b60405180910390f35b34801561025557600080fd5b50610269610264366004612166565b61073a565b005b34801561027757600080fd5b506102806107a8565b60405161024091906121d8565b34801561029957600080fd5b506102696102a83660046121eb565b610836565b3480156102b957600080fd5b506102696102c83660046122f7565b6108ed565b3480156102d957600080fd5b506102fe6102e836600461239e565b6000908152600160208190526040909120015490565b604051908152602001610240565b34801561031857600080fd5b506102696103273660046123b7565b610c42565b34801561033857600080fd5b506102696103473660046121eb565b610d0c565b34801561035857600080fd5b5061026961036736600461239e565b610eef565b34801561037857600080fd5b506102696103873660046123f4565b610f89565b34801561039857600080fd5b506103a1610fb5565b6040516102409190612497565b3480156103ba57600080fd5b506004546103ce906001600160a01b031681565b6040516001600160a01b039091168152602001610240565b3480156103f257600080fd5b506102696104013660046123f4565b6111d4565b34801561041257600080fd5b50610269611207565b34801561042757600080fd5b506102696104363660046121eb565b611225565b34801561044757600080fd5b5061026961045636600461255c565b6112a9565b34801561046757600080fd5b50610269610476366004612633565b6115e5565b34801561048757600080fd5b50610234610496366004612661565b611621565b3480156104a757600080fd5b506102346104b63660046121eb565b611923565b3480156104c757600080fd5b506005546103ce906001600160a01b031681565b3480156104e757600080fd5b506003546103ce906001600160a01b031681565b34801561050757600080fd5b506103ce7f000000000000000000000000000000000000000000000000000000000000000081565b34801561053b57600080fd5b5061023461054a3660046123f4565b611939565b34801561055b57600080fd5b506103ce7f000000000000000000000000000000000000000000000000000000000000000081565b34801561058f57600080fd5b5061026961059e3660046121eb565b611964565b3480156105af57600080fd5b506102fe60008051602061294c83398151915281565b3480156105d157600080fd5b506102fe600081565b3480156105e657600080fd5b5060025461023490600160a01b900460ff1681565b34801561060757600080fd5b506103ce7f000000000000000000000000000000000000000000000000000000000000000081565b34801561063b57600080fd5b5061026961064a366004612661565b6119cc565b34801561065b57600080fd5b5061026961066a366004612661565b611ce2565b34801561067b57600080fd5b5061026961068a3660046123f4565b611ec2565b34801561069b57600080fd5b506103ce7f000000000000000000000000000000000000000000000000000000000000000081565b3480156106cf57600080fd5b506002546103ce906001600160a01b031681565b3480156106ef57600080fd5b506102696106fe3660046121eb565b611ee8565b60006001600160e01b03198216637965db0b60e01b148061073457506301ffc9a760e01b6001600160e01b03198316145b92915050565b600061074581611fc4565b6040516383c3426360e01b81526004810183905283906001600160a01b038216906383c34263906024015b600060405180830381600087803b15801561078a57600080fd5b505af115801561079e573d6000803e3d6000fd5b5050505050505050565b600c80546107b5906126a2565b80601f01602080910402602001604051908101604052809291908181526020018280546107e1906126a2565b801561082e5780601f106108035761010080835404028352916020019161082e565b820191906000526020600020905b81548152906001019060200180831161081157829003601f168201915b505050505081565b600061084181611fc4565b6001600160a01b03821661089c5760405162461bcd60e51b815260206004820152601d60248201527f436f6d70616e793a207369676e65722063616e6e6f742062652030783000000060448201526064015b60405180910390fd5b6108b460008051602061294c83398151915283611fce565b506040516001600160a01b038316907f3525e22824a8a7df2c9a6029941c824cf95b6447f1e13d5128fd3826d35afe8b90600090a25050565b60008051602061294c83398151915261090581611fc4565b600254600160a01b900460ff161561092f5760405162461bcd60e51b8152600401610893906126dc565b610937612043565b600d600081546109469061271f565b9190508190555060006040518060c001604052806006600001805461096a906126a2565b80601f0160208091040260200160405190810160405280929190818152602001828054610996906126a2565b80156109e35780601f106109b8576101008083540402835291602001916109e3565b820191906000526020600020905b8154815290600101906020018083116109c657829003601f168201915b50505050508152602001600660010180546109fd906126a2565b80601f0160208091040260200160405190810160405280929190818152602001828054610a29906126a2565b8015610a765780601f10610a4b57610100808354040283529160200191610a76565b820191906000526020600020905b815481529060010190602001808311610a5957829003601f168201915b5050505050815260200160066002018054610a90906126a2565b80601f0160208091040260200160405190810160405280929190818152602001828054610abc906126a2565b8015610b095780601f10610ade57610100808354040283529160200191610b09565b820191906000526020600020905b815481529060010190602001808311610aec57829003601f168201915b5050505050815260200160066003015481526020016006600401548152602001600d5481525090506000604051806060016040528083815260200185602001518152602001856000015181525090506000807f00000000000000000000000000000000000000000000000000000000000000006001600160a01b0316631305f017846040518263ffffffff1660e01b8152600401610ba79190612746565b60408051808303816000875af1158015610bc5573d6000803e3d6000fd5b505050506040513d601f19601f82011682018060405250810190610be991906127a7565b91509150816001600160a01b03167f564792a0259ee41a56519990d80509a8057848327265f2075bcaac108651eab982604051610c2891815260200190565b60405180910390a250505050610c3e6001600055565b5050565b6000610c4d81611fc4565b600254600160a01b900460ff1615610c775760405162461bcd60e51b8152600401610893906126dc565b6002805460ff60a01b1916600160a01b17905560405163d449cf2560e01b81526001600160a01b037f0000000000000000000000000000000000000000000000000000000000000000169063d449cf2590610cd69085906004016121d8565b600060405180830381600087803b158015610cf057600080fd5b505af1158015610d04573d6000803e3d6000fd5b505050505050565b7f00000000000000000000000000000000000000000000000000000000000000006001600160a01b0316610d825760405162461bcd60e51b815260206004820152601960248201527f436f6d70616e793a207265676973747279206e6f7420736574000000000000006044820152606401610893565b336001600160a01b037f00000000000000000000000000000000000000000000000000000000000000001614610e065760405162461bcd60e51b815260206004820152602360248201527f436f6d70616e793a2063616c6c6572206973206e6f742074686520726567697360448201526274727960e81b6064820152608401610893565b610e0e612043565b478015610e4d576040516001600160a01b0383169082156108fc029083906000818181858888f19350505050158015610e4b573d6000803e3d6000fd5b505b600d5460405163312c4a9f60e11b815260048101919091526001600160a01b03831690636258953e90602401600060405180830381600087803b158015610e9357600080fd5b505af1158015610ea7573d6000803e3d6000fd5b50506040516001600160a01b03851692503091507f62e097eae9ab3bdbcbf8876a75515aa178198bfb2b0e9a90a7308bceb2efa6e690600090a350610eec6001600055565b50565b6000610efa81611fc4565b47821115610f4a5760405162461bcd60e51b815260206004820152601d60248201527f436f6d70616e793a20696e73756666696369656e742062616c616e63650000006044820152606401610893565b6003546040516001600160a01b039091169083156108fc029084906000818181858888f19350505050158015610f84573d6000803e3d6000fd5b505050565b60008281526001602081905260409091200154610fa581611fc4565b610faf838361206d565b50505050565b610fee6040518060c001604052806060815260200160608152602001606081526020016000815260200160008152602001600081525090565b60066040518060c001604052908160008201805461100b906126a2565b80601f0160208091040260200160405190810160405280929190818152602001828054611037906126a2565b80156110845780601f1061105957610100808354040283529160200191611084565b820191906000526020600020905b81548152906001019060200180831161106757829003601f168201915b5050505050815260200160018201805461109d906126a2565b80601f01602080910402602001604051908101604052809291908181526020018280546110c9906126a2565b80156111165780601f106110eb57610100808354040283529160200191611116565b820191906000526020600020905b8154815290600101906020018083116110f957829003601f168201915b5050505050815260200160028201805461112f906126a2565b80601f016020809104026020016040519081016040528092919081815260200182805461115b906126a2565b80156111a85780601f1061117d576101008083540402835291602001916111a8565b820191906000526020600020905b81548152906001019060200180831161118b57829003601f168201915b505050505081526020016003820154815260200160048201548152602001600582015481525050905090565b6001600160a01b03811633146111fd5760405163334bd91960e11b815260040160405180910390fd5b610f848282611fce565b600061121281611fc4565b50600580546001600160a01b0319169055565b600061123081611fc4565b6001600160a01b0382166112865760405162461bcd60e51b815260206004820152601b60248201527f436f6d70616e793a20686f6f6b2063616e6e6f742062652030783000000000006044820152606401610893565b50600580546001600160a01b0319166001600160a01b0392909216919091179055565b7f00000000000000000000000000000000000000000000000000000000000000006001600160a01b031661131f5760405162461bcd60e51b815260206004820152601860248201527f436f6d70616e793a20666163746f7279206e6f742073657400000000000000006044820152606401610893565b336001600160a01b037f000000000000000000000000000000000000000000000000000000000000000016146113a25760405162461bcd60e51b815260206004820152602260248201527f436f6d70616e793a2063616c6c6572206973206e6f742074686520666163746f604482015261727960f01b6064820152608401610893565b6003546001600160a01b0316156113fb5760405162461bcd60e51b815260206004820152601c60248201527f436f6d70616e793a20616c726561647920696e697469616c697a6564000000006044820152606401610893565b80516001600160a01b03166114525760405162461bcd60e51b815260206004820152601c60248201527f436f6d70616e793a206f776e65722063616e6e6f7420626520307830000000006044820152606401610893565b6000816080015151116114a75760405162461bcd60e51b815260206004820152601d60248201527f436f6d70616e793a206e616d652063616e6e6f7420626520656d7074790000006044820152606401610893565b60208101516001600160a01b03166115015760405162461bcd60e51b815260206004820152601c60248201527f436f6d70616e793a20776f726c642063616e6e6f7420626520307830000000006044820152606401610893565b8051600380546001600160a01b039283166001600160a01b03199182161790915560208301516004805491909316911617905560408101518051600690819061154a908261281d565b506020820151600182019061155f908261281d565b5060408201516002820190611574908261281d565b5060608201516003820155608080830151600483015560a090920151600590910155810151600c906115a6908261281d565b506003546115bf906000906001600160a01b031661206d565b50600354610c3e9060008051602061294c833981519152906001600160a01b031661206d565b60006115f081611fc4565b6040516337eff0db60e11b81526001600160a01b038381166004830152849190821690636fdfe1b690602401610770565b600254600090600160a01b900460ff161561163e5750600061191c565b6040516315bd8ac360e31b81526001600160a01b0385811660048301527f0000000000000000000000000000000000000000000000000000000000000000169063adec561890602401602060405180830381865afa1580156116a4573d6000803e3d6000fd5b505050506040513d601f19601f820116820180604052508101906116c891906128dd565b6116d45750600061191c565b306001600160a01b0316846001600160a01b0316631d1438486040518163ffffffff1660e01b8152600401602060405180830381865afa15801561171c573d6000803e3d6000fd5b505050506040513d601f19601f8201168201806040525081019061174091906128ff565b6001600160a01b0316146117565750600061191c565b600254604051632b0fe8e760e21b81526001600160a01b0385811660048301529091169063ac3fa39c90602401602060405180830381865afa1580156117a0573d6000803e3d6000fd5b505050506040513d601f19601f820116820180604052508101906117c491906128dd565b6117d05750600161191c565b6000836001600160a01b031663516f279e6040518163ffffffff1660e01b8152600401602060405180830381865afa158015611810573d6000803e3d6000fd5b505050506040513d601f19601f8201168201806040525081019061183491906128ff565b90506001600160a01b0381166118a25760405162461bcd60e51b815260206004820152602d60248201527f436f6d70616e793a20617661746172206c6f636174696f6e206973206e6f742060448201526c616e20657870657269656e636560981b6064820152608401610893565b306001600160a01b0316816001600160a01b0316636904c94d6040518163ffffffff1660e01b8152600401602060405180830381865afa1580156118ea573d6000803e3d6000fd5b505050506040513d601f19601f8201168201806040525081019061190e91906128ff565b6001600160a01b0316149150505b9392505050565b600061073460008051602061294c833981519152835b60009182526001602090815260408084206001600160a01b0393909316845291905290205460ff1690565b600061196f81611fc4565b6000829050806001600160a01b03166358779dcf6040518163ffffffff1660e01b8152600401600060405180830381600087803b1580156119af57600080fd5b505af11580156119c3573d6000803e3d6000fd5b50505050505050565b60008051602061294c8339815191526119e481611fc4565b600254600160a01b900460ff1615611a0e5760405162461bcd60e51b8152600401610893906126dc565b611a16612043565b611a21848484611621565b611a6d5760405162461bcd60e51b815260206004820152601a60248201527f436f6d70616e793a2063616e6e6f74206d696e742061737365740000000000006044820152606401610893565b6000846001600160a01b0316633fe3347a6040518163ffffffff1660e01b8152600401602060405180830381865afa158015611aad573d6000803e3d6000fd5b505050506040513d601f19601f82011682018060405250810190611ad1919061291c565b6002811115611ae257611ae2612935565b90506001816002811115611af857611af8612935565b03611bb1576040516340c10f1960e01b81526001600160a01b038581166004830152602482018590528616906340c10f1990604401600060405180830381600087803b158015611b4757600080fd5b505af1158015611b5b573d6000803e3d6000fd5b50505050836001600160a01b0316856001600160a01b03167f9f8f31349c47dec18bab6fd70c3f360209248439f904d89f5bd13bbc42b0680785604051611ba491815260200190565b60405180910390a3611cd7565b6002816002811115611bc557611bc5612935565b03611c8f576040516335313c2160e11b81526001600160a01b03858116600483015260009190871690636a627842906024016020604051808303816000875af1158015611c16573d6000803e3d6000fd5b505050506040513d601f19601f82011682018060405250810190611c3a919061291c565b9050846001600160a01b0316866001600160a01b03167f9f8f31349c47dec18bab6fd70c3f360209248439f904d89f5bd13bbc42b0680783604051611c8191815260200190565b60405180910390a350611cd7565b60405162461bcd60e51b815260206004820152601f60248201527f436f6d70616e793a20756e737570706f727465642061737365742074797065006044820152606401610893565b50610faf6001600055565b60008051602061294c833981519152611cfa81611fc4565b600254600160a01b900460ff1615611d245760405162461bcd60e51b8152600401610893906126dc565b611d2c612043565b6000846001600160a01b0316633fe3347a6040518163ffffffff1660e01b8152600401602060405180830381865afa158015611d6c573d6000803e3d6000fd5b505050506040513d601f19601f82011682018060405250810190611d90919061291c565b6002811115611da157611da1612935565b90506001816002811115611db757611db7612935565b03611e245760405163eac449d960e01b81526001600160a01b0385811660048301526024820185905286169063eac449d9906044015b600060405180830381600087803b158015611e0757600080fd5b505af1158015611e1b573d6000803e3d6000fd5b50505050611e6a565b6002816002811115611e3857611e38612935565b03611c8f576040516320c5429b60e01b8152600481018490526001600160a01b038616906320c5429b90602401611ded565b836001600160a01b0316856001600160a01b03167f5561832f82bd612a3ed1e1014b38299755bc4acc641249d9108bd59c1ade68e385604051611eaf91815260200190565b60405180910390a350610faf6001600055565b60008281526001602081905260409091200154611ede81611fc4565b610faf8383611fce565b6000611ef381611fc4565b600254600160a01b900460ff1615611f1d5760405162461bcd60e51b8152600401610893906126dc565b6001600160a01b038216611f735760405162461bcd60e51b815260206004820152601d60248201527f436f6d70616e793a207369676e65722063616e6e6f74206265203078300000006044820152606401610893565b611f8b60008051602061294c8339815191528361206d565b506040516001600160a01b038316907f47d1c22a25bb3a5d4e481b9b1e6944c2eade3181a0a20b495ed61d35b5323f2490600090a25050565b610eec81336120de565b6000611fda8383611939565b1561203b5760008381526001602090815260408083206001600160a01b0386168085529252808320805460ff1916905551339286917ff6391f5c32d9c69d2a47ea670b442974b53935d1edc7fd64eb21e047a839171b9190a4506001610734565b506000610734565b60026000540361206657604051633ee5aeb560e01b815260040160405180910390fd5b6002600055565b60006120798383611939565b61203b5760008381526001602081815260408084206001600160a01b0387168086529252808420805460ff19169093179092559051339286917f2f8788117e7eff1d82e926ec794901d17c78024a50270940304540a733656f0d9190a4506001610734565b6120e88282611939565b610c3e5760405163e2517d3f60e01b81526001600160a01b038216600482015260248101839052604401610893565b60006020828403121561212957600080fd5b81356001600160e01b03198116811461191c57600080fd5b6001600160a01b0381168114610eec57600080fd5b803561216181612141565b919050565b6000806040838503121561217957600080fd5b823561218481612141565b946020939093013593505050565b6000815180845260005b818110156121b85760208185018101518683018201520161219c565b506000602082860101526020601f19601f83011685010191505092915050565b60208152600061191c6020830184612192565b6000602082840312156121fd57600080fd5b813561191c81612141565b634e487b7160e01b600052604160045260246000fd5b60405160c0810167ffffffffffffffff8111828210171561224157612241612208565b60405290565b60405160a0810167ffffffffffffffff8111828210171561224157612241612208565b600082601f83011261227b57600080fd5b813567ffffffffffffffff8082111561229657612296612208565b604051601f8301601f19908116603f011681019082821181831017156122be576122be612208565b816040528381528660208588010111156122d757600080fd5b836020870160208301376000602085830101528094505050505092915050565b60006020828403121561230957600080fd5b813567ffffffffffffffff8082111561232157600080fd5b908301906040828603121561233557600080fd5b60405160408101818110838211171561235057612350612208565b60405282358281111561236257600080fd5b61236e8782860161226a565b82525060208301358281111561238357600080fd5b61238f8782860161226a565b60208301525095945050505050565b6000602082840312156123b057600080fd5b5035919050565b6000602082840312156123c957600080fd5b813567ffffffffffffffff8111156123e057600080fd5b6123ec8482850161226a565b949350505050565b6000806040838503121561240757600080fd5b82359150602083013561241981612141565b809150509250929050565b6000815160c0845261243960c0850182612192565b9050602083015184820360208601526124528282612192565b9150506040830151848203604086015261246c8282612192565b915050606083015160608501526080830151608085015260a083015160a08501528091505092915050565b60208152600061191c6020830184612424565b600060c082840312156124bc57600080fd5b6124c461221e565b9050813567ffffffffffffffff808211156124de57600080fd5b6124ea8583860161226a565b8352602084013591508082111561250057600080fd5b61250c8583860161226a565b6020840152604084013591508082111561252557600080fd5b506125328482850161226a565b604083015250606082013560608201526080820135608082015260a082013560a082015292915050565b60006020828403121561256e57600080fd5b813567ffffffffffffffff8082111561258657600080fd5b9083019060a0828603121561259a57600080fd5b6125a2612247565b6125ab83612156565b81526125b960208401612156565b60208201526040830135828111156125d057600080fd5b6125dc878286016124aa565b6040830152506060830135828111156125f457600080fd5b6126008782860161226a565b60608301525060808301358281111561261857600080fd5b6126248782860161226a565b60808301525095945050505050565b6000806040838503121561264657600080fd5b823561265181612141565b9150602083013561241981612141565b60008060006060848603121561267657600080fd5b833561268181612141565b9250602084013561269181612141565b929592945050506040919091013590565b600181811c908216806126b657607f821691505b6020821081036126d657634e487b7160e01b600052602260045260246000fd5b50919050565b60208082526023908201527f436f6d70616e793a20636f6e747261637420686173206265656e20757067726160408201526219195960ea1b606082015260800190565b60006001820161273f57634e487b7160e01b600052601160045260246000fd5b5060010190565b6020815260008251606060208401526127626080840182612424565b90506020840151601f19808584030160408601526127808383612192565b925060408601519150808584030160608601525061279e8282612192565b95945050505050565b600080604083850312156127ba57600080fd5b82516127c581612141565b6020939093015192949293505050565b601f821115610f84576000816000526020600020601f850160051c810160208610156127fe5750805b601f850160051c820191505b81811015610d045782815560010161280a565b815167ffffffffffffffff81111561283757612837612208565b61284b8161284584546126a2565b846127d5565b602080601f83116001811461288057600084156128685750858301515b600019600386901b1c1916600185901b178555610d04565b600085815260208120601f198616915b828110156128af57888601518255948401946001909101908401612890565b50858210156128cd5787850151600019600388901b60f8161c191681555b5050505050600190811b01905550565b6000602082840312156128ef57600080fd5b8151801515811461191c57600080fd5b60006020828403121561291157600080fd5b815161191c81612141565b60006020828403121561292e57600080fd5b5051919050565b634e487b7160e01b600052602160045260246000fdfee2f4eaae4a9751e85a3e4a7b9587827a877f29914755229b07a7b2da98285f70a264697066735822122004095a6b01fd757820c4ced3394d67fced37ec3af5e0ee5c343110836d64c30f64736f6c63430008180033",
  "linkReferences": {},
  "deployedLinkReferences": {}
}