{
  "_format": "hh-sol-artifact-1",
  "contractName": "CompanyAddExperienceExt",
  "sourceName": "contracts/extensions/company/CompanyAddExperienceExt.sol",
  "abi": [
    {
      "anonymous": false,
      "inputs": [
        {
          "indexed": true,
          "internalType": "address",
          "name": "experience",
          "type": "address"
        },
        {
          "indexed": true,
          "internalType": "uint256",
          "name": "portalId",
          "type": "uint256"
        }
      ],
      "name": "CompanyAddedExperience",
      "type": "event"
    },
    {
      "anonymous": false,
      "inputs": [
        {
          "indexed": true,
          "internalType": "address",
          "name": "experience",
          "type": "address"
        },
        {
          "indexed": false,
          "internalType": "string",
          "name": "reason",
          "type": "string"
        }
      ],
      "name": "CompanyDeactivatedExperience",
      "type": "event"
    },
    {
      "anonymous": false,
      "inputs": [
        {
          "indexed": true,
          "internalType": "address",
          "name": "experience",
          "type": "address"
        }
      ],
      "name": "CompanyReactivatedExperience",
      "type": "event"
    },
    {
      "anonymous": false,
      "inputs": [
        {
          "indexed": true,
          "internalType": "address",
          "name": "experience",
          "type": "address"
        },
        {
          "indexed": false,
          "internalType": "string",
          "name": "reason",
          "type": "string"
        },
        {
          "indexed": true,
          "internalType": "uint256",
          "name": "portalId",
          "type": "uint256"
        }
      ],
      "name": "CompanyRemovedExperience",
      "type": "event"
    },
    {
      "inputs": [
        {
          "components": [
            {
              "internalType": "string",
              "name": "name",
              "type": "string"
            },
            {
              "internalType": "uint256",
              "name": "entryFee",
              "type": "uint256"
            },
            {
              "internalType": "bytes",
              "name": "initData",
              "type": "bytes"
            }
          ],
          "internalType": "struct AddExperienceArgs",
          "name": "args",
          "type": "tuple"
        }
      ],
      "name": "addExperience",
      "outputs": [
        {
          "internalType": "address",
          "name": "experience",
          "type": "address"
        },
        {
          "internalType": "uint256",
          "name": "portalId",
          "type": "uint256"
        }
      ],
      "stateMutability": "nonpayable",
      "type": "function"
    },
    {
      "inputs": [
        {
          "internalType": "address",
          "name": "experience",
          "type": "address"
        },
        {
          "internalType": "string",
          "name": "reason",
          "type": "string"
        }
      ],
      "name": "deactivateExperience",
      "outputs": [],
      "stateMutability": "nonpayable",
      "type": "function"
    },
    {
      "inputs": [
        {
          "components": [
            {
              "internalType": "address",
              "name": "owner",
              "type": "address"
            },
            {
              "internalType": "address",
              "name": "owningRegistry",
              "type": "address"
            },
            {
              "internalType": "address[]",
              "name": "admins",
              "type": "address[]"
            }
          ],
          "internalType": "struct ExtensionInitArgs",
          "name": "args",
          "type": "tuple"
        }
      ],
      "name": "initStorage",
      "outputs": [],
      "stateMutability": "nonpayable",
      "type": "function"
    },
    {
      "inputs": [
        {
          "internalType": "address",
          "name": "myAddress",
          "type": "address"
        }
      ],
      "name": "install",
      "outputs": [],
      "stateMutability": "nonpayable",
      "type": "function"
    },
    {
      "inputs": [],
      "name": "metadata",
      "outputs": [
        {
          "components": [
            {
              "internalType": "string",
              "name": "name",
              "type": "string"
            },
            {
              "components": [
                {
                  "internalType": "uint16",
                  "name": "major",
                  "type": "uint16"
                },
                {
                  "internalType": "uint16",
                  "name": "minor",
                  "type": "uint16"
                }
              ],
              "internalType": "struct Version",
              "name": "version",
              "type": "tuple"
            }
          ],
          "internalType": "struct ExtensionMetadata",
          "name": "",
          "type": "tuple"
        }
      ],
      "stateMutability": "pure",
      "type": "function"
    },
    {
      "inputs": [
        {
          "internalType": "address",
          "name": "experience",
          "type": "address"
        }
      ],
      "name": "reactivateExperience",
      "outputs": [],
      "stateMutability": "nonpayable",
      "type": "function"
    },
    {
      "inputs": [
        {
          "internalType": "address",
          "name": "experience",
          "type": "address"
        },
        {
          "internalType": "string",
          "name": "reason",
          "type": "string"
        }
      ],
      "name": "removeExperience",
      "outputs": [
        {
          "internalType": "uint256",
          "name": "portalId",
          "type": "uint256"
        }
      ],
      "stateMutability": "nonpayable",
      "type": "function"
    },
    {
      "inputs": [
        {
          "internalType": "address",
          "name": "myAddress",
          "type": "address"
        }
      ],
      "name": "upgrade",
      "outputs": [],
      "stateMutability": "nonpayable",
      "type": "function"
    }
  ],
  "bytecode": "0x608060405234801561001057600080fd5b5061145a806100206000396000f3fe608060405234801561001057600080fd5b50600436106100885760003560e01c8063464570b61161005b578063464570b6146100ff578063729963c014610112578063d802a9a214610120578063fcc111841461013357600080fd5b80630900f0101461008d5780632a1b8f9b146100a05780632c71db0d146100b3578063392f37e9146100ea575b600080fd5b61009e61009b366004610c8a565b50565b005b61009e6100ae366004610c8a565b610154565b6100c66100c1366004610dc7565b6103d6565b604080516001600160a01b0390931683526020830191909152015b60405180910390f35b6100f2610651565b6040516100e19190610ec6565b61009e61010d366004610f0b565b6106b4565b61009e61009b366004610f90565b61009e61012e366004610c8a565b61085b565b610146610141366004610f0b565b6109eb565b6040519081526020016100e1565b60408051600480825260a08201909252600091816020015b60408051808201909152600081526060602082015281526020019060019003908161016c575050604080518082018252632c71db0d60e01b8152815180830190925260208083527f616464457870657269656e636528416464457870657269656e636541726773298382015281019190915281519192509082906000906101f5576101f5610fcb565b6020026020010181905250604051806040016040528063464570b660e01b6001600160e01b0319168152602001604051806060016040528060248152602001611401602491398152508160018151811061025157610251610fcb565b6020026020010181905250604051806040016040528063d802a9a260e01b6001600160e01b03191681526020016040518060400160405280601d81526020017f72656163746976617465457870657269656e6365286164647265737329000000815250815250816002815181106102ca576102ca610fcb565b6020026020010181905250604051806040016040528063fcc1118460e01b6001600160e01b03191681526020016040518060400160405280602081526020017f72656d6f7665457870657269656e636528616464726573732c737472696e67298152508152508160038151811061034357610343610fcb565b602002602001018190525073__$307c3a572bdf5d9800a89b3fc2eb3d5604$__63964d13f06040518060400160405280856001600160a01b03168152602001848152506040518263ffffffff1660e01b81526004016103a29190610fe1565b60006040518083038186803b1580156103ba57600080fd5b505af41580156103ce573d6000803e3d6000fd5b505050505050565b604051637df73e2760e01b8152336004820152600090819073__$a5a42e46683ad9c79b7b86d5ff60fdf4c1$__90637df73e2790602401602060405180830381865af415801561042a573d6000803e3d6000fd5b505050506040513d601f19601f8201168201806040525081019061044e919061107b565b6104735760405162461bcd60e51b815260040161046a9061109d565b60405180910390fd5b60003090506000816001600160a01b0316632fcbab9a6040518163ffffffff1660e01b8152600401600060405180830381865afa1580156104b8573d6000803e3d6000fd5b505050506040513d6000823e601f3d908101601f191682016040526104e09190810190611147565b905060006104ec610bab565b905080600001600081546104ff90611233565b90915550805460a08301526040805160808101825283815287516020808301919091528881015182840152888301516060830152825163185b3dd560e11b8152925191926000926001600160a01b038816926330b67baa92600480820193918290030181865afa158015610577573d6000803e3d6000fd5b505050506040513d601f19601f8201168201806040525081019061059b919061124c565b604051636e49902960e11b81529091506001600160a01b0382169063dc932052906105ca908590600401611269565b60408051808303816000875af11580156105e8573d6000803e3d6000fd5b505050506040513d601f19601f8201168201806040525081019061060c919061133e565b604051919850965086906001600160a01b038916907fdd1416df66cb3941d0ab5716b19acf9c3c0f4afbd2bfe67a0d6a8f6ab6d3afc890600090a35050505050915091565b610659610c39565b506040805160808101825260178183019081527f436f6d70616e79416464457870657269656e636545787400000000000000000060608301528152815180830190925260018252600060208381019190915281019190915290565b604051637df73e2760e01b815233600482015273__$a5a42e46683ad9c79b7b86d5ff60fdf4c1$__90637df73e2790602401602060405180830381865af4158015610703573d6000803e3d6000fd5b505050506040513d601f19601f82011682018060405250810190610727919061107b565b6107435760405162461bcd60e51b815260040161046a9061109d565b60003090506000816001600160a01b03166330b67baa6040518163ffffffff1660e01b8152600401602060405180830381865afa158015610788573d6000803e3d6000fd5b505050506040513d601f19601f820116820180604052508101906107ac919061124c565b604051632322b85b60e11b81529091506001600160a01b0382169063464570b6906107df90889088908890600401611395565b600060405180830381600087803b1580156107f957600080fd5b505af115801561080d573d6000803e3d6000fd5b50505050846001600160a01b03167fc91cc589ef4d878043f7e06130f3d528ea3c4a576304e36f5a59ff581289df7d858560405161084c9291906113ba565b60405180910390a25050505050565b604051637df73e2760e01b815233600482015273__$a5a42e46683ad9c79b7b86d5ff60fdf4c1$__90637df73e2790602401602060405180830381865af41580156108aa573d6000803e3d6000fd5b505050506040513d601f19601f820116820180604052508101906108ce919061107b565b6108ea5760405162461bcd60e51b815260040161046a9061109d565b60003090506000816001600160a01b03166330b67baa6040518163ffffffff1660e01b8152600401602060405180830381865afa15801561092f573d6000803e3d6000fd5b505050506040513d601f19601f82011682018060405250810190610953919061124c565b604051636c0154d160e11b81526001600160a01b0385811660048301529192509082169063d802a9a290602401600060405180830381600087803b15801561099a57600080fd5b505af11580156109ae573d6000803e3d6000fd5b50506040516001600160a01b03861692507fd7e0376b54023f1e8815a6ea5ec645b5f27e7d78eb66542e2ace843add91d17a9150600090a2505050565b604051637df73e2760e01b815233600482015260009073__$a5a42e46683ad9c79b7b86d5ff60fdf4c1$__90637df73e2790602401602060405180830381865af4158015610a3d573d6000803e3d6000fd5b505050506040513d601f19601f82011682018060405250810190610a61919061107b565b610a7d5760405162461bcd60e51b815260040161046a9061109d565b60003090506000816001600160a01b03166330b67baa6040518163ffffffff1660e01b8152600401602060405180830381865afa158015610ac2573d6000803e3d6000fd5b505050506040513d601f19601f82011682018060405250810190610ae6919061124c565b604051633f30446160e21b81529091506001600160a01b0382169063fcc1118490610b1990899089908990600401611395565b6020604051808303816000875af1158015610b38573d6000803e3d6000fd5b505050506040513d601f19601f82011682018060405250810190610b5c91906113ce565b925082866001600160a01b03167f70b2ea755cbec8f93041a2abb839b4f9a525a06fd1a4453d1f2f1e30da3a016b8787604051610b9a9291906113ba565b60405180910390a350509392505050565b60408051808201909152601581527478722e636f6d70616e792e73746f726167652e763160581b60209091015260008060ff610c0860017fb15f88c380b1fa3feb414afd39103c83bfc20f8be60af2ce4a47137881ead4826113e7565b604051602001610c1a91815260200190565b60408051601f1981840301815291905280516020909101201692915050565b604051806040016040528060608152602001610c706040518060400160405280600061ffff168152602001600061ffff1681525090565b905290565b6001600160a01b038116811461009b57600080fd5b600060208284031215610c9c57600080fd5b8135610ca781610c75565b9392505050565b634e487b7160e01b600052604160045260246000fd5b6040516060810167ffffffffffffffff81118282101715610ce757610ce7610cae565b60405290565b60405160c0810167ffffffffffffffff81118282101715610ce757610ce7610cae565b604051601f8201601f1916810167ffffffffffffffff81118282101715610d3957610d39610cae565b604052919050565b600067ffffffffffffffff821115610d5b57610d5b610cae565b50601f01601f191660200190565b6000610d7c610d7784610d41565b610d10565b9050828152838383011115610d9057600080fd5b828260208301376000602084830101529392505050565b600082601f830112610db857600080fd5b610ca783833560208501610d69565b600060208284031215610dd957600080fd5b813567ffffffffffffffff80821115610df157600080fd5b9083019060608286031215610e0557600080fd5b610e0d610cc4565b823582811115610e1c57600080fd5b8301601f81018713610e2d57600080fd5b610e3c87823560208401610d69565b82525060208301356020820152604083013582811115610e5b57600080fd5b610e6787828601610da7565b60408301525095945050505050565b60005b83811015610e91578181015183820152602001610e79565b50506000910152565b60008151808452610eb2816020860160208601610e76565b601f01601f19169290920160200192915050565b602081526000825160606020840152610ee26080840182610e9a565b602094850151805161ffff90811660408701529501519094166060909301929092525090919050565b600080600060408486031215610f2057600080fd5b8335610f2b81610c75565b9250602084013567ffffffffffffffff80821115610f4857600080fd5b818601915086601f830112610f5c57600080fd5b813581811115610f6b57600080fd5b876020828501011115610f7d57600080fd5b6020830194508093505050509250925092565b600060208284031215610fa257600080fd5b813567ffffffffffffffff811115610fb957600080fd5b820160608185031215610ca757600080fd5b634e487b7160e01b600052603260045260246000fd5b602080825282516001600160a01b031682820152828101516040808401819052815160608501819052600093926080600583901b87018101939185019290870190865b8181101561106d57888603607f19018352845180516001600160e01b031916875287015187870185905261105a85880182610e9a565b9650509386019391860191600101611024565b509398975050505050505050565b60006020828403121561108d57600080fd5b81518015158114610ca757600080fd5b60208082526038908201527f466163746f436f6d70616e79416464457870657269656e63654578747279457860408201527f743a207265737472696374656420746f207369676e6572730000000000000000606082015260800190565b600082601f83011261110b57600080fd5b8151611119610d7782610d41565b81815284602083860101111561112e57600080fd5b61113f826020830160208701610e76565b949350505050565b60006020828403121561115957600080fd5b815167ffffffffffffffff8082111561117157600080fd5b9083019060c0828603121561118557600080fd5b61118d610ced565b82518281111561119c57600080fd5b6111a8878286016110fa565b8252506020830151828111156111bd57600080fd5b6111c9878286016110fa565b6020830152506040830151828111156111e157600080fd5b6111ed878286016110fa565b604083015250606083015160608201526080830151608082015260a083015160a082015280935050505092915050565b634e487b7160e01b600052601160045260246000fd5b6000600182016112455761124561121d565b5060010190565b60006020828403121561125e57600080fd5b8151610ca781610c75565b602081526000825160806020840152805160c060a085015261128f610160850182610e9a565b90506020820151609f19808684030160c08701526112ad8383610e9a565b925060408401519150808684030160e0870152506112cb8282610e9a565b9150506060820151610100850152608082015161012085015260a082015161014085015260208501519150601f198085830301604086015261130d8284610e9a565b9250604086015160608601526060860151915080858403016080860152506113358282610e9a565b95945050505050565b6000806040838503121561135157600080fd5b825161135c81610c75565b6020939093015192949293505050565b81835281816020850137506000828201602090810191909152601f909101601f19169091010190565b6001600160a01b0384168152604060208201819052600090611335908301848661136c565b60208152600061113f60208301848661136c565b6000602082840312156113e057600080fd5b5051919050565b818103818111156113fa576113fa61121d565b9291505056fe64656163746976617465457870657269656e636528616464726573732c737472696e6729a264697066735822122001cf012d6a351a3c80ab2d1193d0dbc65b50938d4d942a74f04972bc5cfc68b764736f6c63430008180033",
  "linkReferences": {
    "contracts/libraries/LibAccess.sol": {
      "LibAccess": [
        {
          "length": 20,
          "start": 1040
        },
        {
          "length": 20,
          "start": 1769
        },
        {
          "length": 20,
          "start": 2192
        },
        {
          "length": 20,
          "start": 2595
        }
      ]
    },
    "contracts/libraries/LibExtensions.sol": {
      "LibExtensions": [
        {
          "length": 20,
          "start": 880
        }
      ]
    }
  },
  "deployedLinkReferences": {
    "contracts/libraries/LibAccess.sol": {
      "LibAccess": [
        {
          "length": 20,
          "start": 1008
        },
        {
          "length": 20,
          "start": 1737
        },
        {
          "length": 20,
          "start": 2160
        },
        {
          "length": 20,
          "start": 2563
        }
      ]
    },
    "contracts/libraries/LibExtensions.sol": {
      "LibExtensions": [
        {
          "length": 20,
          "start": 848
        }
      ]
    }
  }
}