{
  "_format": "hh-sol-artifact-1",
  "contractName": "Company",
  "sourceName": "contracts/company/Company.sol",
  "abi": [
    {
      "inputs": [
        {
          "components": [
            {
              "internalType": "address",
              "name": "companyFactory",
              "type": "address"
            },
            {
              "internalType": "address",
              "name": "companyRegistry",
              "type": "address"
            },
            {
              "internalType": "contract IExperienceRegistry",
              "name": "experienceRegistry",
              "type": "address"
            },
            {
              "internalType": "contract IMultiAssetRegistry",
              "name": "multiAssetRegistry",
              "type": "address"
            },
            {
              "internalType": "contract IAvatarRegistry",
              "name": "avatarRegistry",
              "type": "address"
            }
          ],
          "internalType": "struct CompanyConstructorArgs",
          "name": "args",
          "type": "tuple"
        }
      ],
      "stateMutability": "nonpayable",
      "type": "constructor"
    },
    {
      "inputs": [],
      "name": "ReentrancyGuardReentrantCall",
      "type": "error"
    },
    {
      "anonymous": false,
      "inputs": [
        {
          "indexed": true,
          "internalType": "address",
          "name": "asset",
          "type": "address"
        },
        {
          "indexed": true,
          "internalType": "address",
          "name": "to",
          "type": "address"
        },
        {
          "indexed": false,
          "internalType": "uint256",
          "name": "amountOrTokenId",
          "type": "uint256"
        }
      ],
      "name": "AssetMinted",
      "type": "event"
    },
    {
      "anonymous": false,
      "inputs": [
        {
          "indexed": true,
          "internalType": "address",
          "name": "asset",
          "type": "address"
        },
        {
          "indexed": true,
          "internalType": "address",
          "name": "holder",
          "type": "address"
        },
        {
          "indexed": false,
          "internalType": "uint256",
          "name": "amountOrTokenId",
          "type": "uint256"
        }
      ],
      "name": "AssetRevoked",
      "type": "event"
    },
    {
      "anonymous": false,
      "inputs": [],
      "name": "CompanyHookRemoved",
      "type": "event"
    },
    {
      "anonymous": false,
      "inputs": [
        {
          "indexed": true,
          "internalType": "address",
          "name": "hook",
          "type": "address"
        }
      ],
      "name": "CompanyHookSet",
      "type": "event"
    },
    {
      "anonymous": false,
      "inputs": [
        {
          "indexed": true,
          "internalType": "address",
          "name": "oldVersion",
          "type": "address"
        },
        {
          "indexed": true,
          "internalType": "address",
          "name": "nextVersion",
          "type": "address"
        }
      ],
      "name": "CompanyUpgraded",
      "type": "event"
    },
    {
      "anonymous": false,
      "inputs": [
        {
          "indexed": true,
          "internalType": "address",
          "name": "experience",
          "type": "address"
        },
        {
          "indexed": false,
          "internalType": "uint256",
          "name": "portalId",
          "type": "uint256"
        }
      ],
      "name": "ExperienceAdded",
      "type": "event"
    },
    {
      "anonymous": false,
      "inputs": [
        {
          "indexed": true,
          "internalType": "address",
          "name": "sender",
          "type": "address"
        },
        {
          "indexed": false,
          "internalType": "uint256",
          "name": "value",
          "type": "uint256"
        }
      ],
      "name": "ReceivedFunds",
      "type": "event"
    },
    {
      "anonymous": false,
      "inputs": [
        {
          "indexed": true,
          "internalType": "address",
          "name": "signer",
          "type": "address"
        }
      ],
      "name": "SignerAdded",
      "type": "event"
    },
    {
      "anonymous": false,
      "inputs": [
        {
          "indexed": true,
          "internalType": "address",
          "name": "signer",
          "type": "address"
        }
      ],
      "name": "SignerRemoved",
      "type": "event"
    },
    {
      "inputs": [
        {
          "internalType": "address",
          "name": "asset",
          "type": "address"
        },
        {
          "internalType": "address",
          "name": "condition",
          "type": "address"
        }
      ],
      "name": "addAssetCondition",
      "outputs": [],
      "stateMutability": "nonpayable",
      "type": "function"
    },
    {
      "inputs": [
        {
          "internalType": "address",
          "name": "asset",
          "type": "address"
        },
        {
          "internalType": "contract IAssetHook",
          "name": "aHook",
          "type": "address"
        }
      ],
      "name": "addAssetHook",
      "outputs": [],
      "stateMutability": "nonpayable",
      "type": "function"
    },
    {
      "inputs": [
        {
          "components": [
            {
              "internalType": "string",
              "name": "name",
              "type": "string"
            },
            {
              "internalType": "bytes",
              "name": "initData",
              "type": "bytes"
            }
          ],
          "internalType": "struct AddExperienceArgs",
          "name": "args",
          "type": "tuple"
        }
      ],
      "name": "addExperience",
      "outputs": [],
      "stateMutability": "nonpayable",
      "type": "function"
    },
    {
      "inputs": [
        {
          "internalType": "address",
          "name": "experience",
          "type": "address"
        },
        {
          "internalType": "address",
          "name": "condition",
          "type": "address"
        }
      ],
      "name": "addExperienceCondition",
      "outputs": [],
      "stateMutability": "nonpayable",
      "type": "function"
    },
    {
      "inputs": [
        {
          "internalType": "address[]",
          "name": "signers",
          "type": "address[]"
        }
      ],
      "name": "addSigners",
      "outputs": [],
      "stateMutability": "nonpayable",
      "type": "function"
    },
    {
      "inputs": [],
      "name": "assetRegistry",
      "outputs": [
        {
          "internalType": "contract IMultiAssetRegistry",
          "name": "",
          "type": "address"
        }
      ],
      "stateMutability": "view",
      "type": "function"
    },
    {
      "inputs": [],
      "name": "avatarRegistry",
      "outputs": [
        {
          "internalType": "contract IAvatarRegistry",
          "name": "",
          "type": "address"
        }
      ],
      "stateMutability": "view",
      "type": "function"
    },
    {
      "inputs": [
        {
          "internalType": "address",
          "name": "asset",
          "type": "address"
        },
        {
          "internalType": "address",
          "name": "to",
          "type": "address"
        },
        {
          "internalType": "bytes",
          "name": "extra",
          "type": "bytes"
        }
      ],
      "name": "canMint",
      "outputs": [
        {
          "internalType": "bool",
          "name": "",
          "type": "bool"
        }
      ],
      "stateMutability": "view",
      "type": "function"
    },
    {
      "inputs": [
        {
          "internalType": "address",
          "name": "experience",
          "type": "address"
        },
        {
          "internalType": "uint256",
          "name": "fee",
          "type": "uint256"
        }
      ],
      "name": "changeExperiencePortalFee",
      "outputs": [],
      "stateMutability": "nonpayable",
      "type": "function"
    },
    {
      "inputs": [],
      "name": "companyFactory",
      "outputs": [
        {
          "internalType": "address",
          "name": "",
          "type": "address"
        }
      ],
      "stateMutability": "view",
      "type": "function"
    },
    {
      "inputs": [],
      "name": "companyRegistry",
      "outputs": [
        {
          "internalType": "contract ICompanyRegistry",
          "name": "",
          "type": "address"
        }
      ],
      "stateMutability": "view",
      "type": "function"
    },
    {
      "inputs": [
        {
          "components": [
            {
              "internalType": "address",
              "name": "avatar",
              "type": "address"
            },
            {
              "internalType": "uint256",
              "name": "portalId",
              "type": "uint256"
            },
            {
              "internalType": "uint256",
              "name": "agreedFee",
              "type": "uint256"
            },
            {
              "internalType": "bytes",
              "name": "avatarOwnerSignature",
              "type": "bytes"
            }
          ],
          "internalType": "struct DelegatedAvatarJumpRequest",
          "name": "request",
          "type": "tuple"
        }
      ],
      "name": "delegateJumpForAvatar",
      "outputs": [],
      "stateMutability": "nonpayable",
      "type": "function"
    },
    {
      "inputs": [
        {
          "components": [
            {
              "internalType": "string",
              "name": "name",
              "type": "string"
            },
            {
              "internalType": "bytes",
              "name": "initData",
              "type": "bytes"
            }
          ],
          "internalType": "struct AddExperienceArgs",
          "name": "args",
          "type": "tuple"
        }
      ],
      "name": "encodeExperienceArgs",
      "outputs": [
        {
          "internalType": "bytes",
          "name": "",
          "type": "bytes"
        }
      ],
      "stateMutability": "pure",
      "type": "function"
    },
    {
      "inputs": [],
      "name": "experienceRegistry",
      "outputs": [
        {
          "internalType": "contract IExperienceRegistry",
          "name": "",
          "type": "address"
        }
      ],
      "stateMutability": "view",
      "type": "function"
    },
    {
      "inputs": [],
      "name": "hook",
      "outputs": [
        {
          "internalType": "contract ICompanyHook",
          "name": "",
          "type": "address"
        }
      ],
      "stateMutability": "view",
      "type": "function"
    },
    {
      "inputs": [
        {
          "components": [
            {
              "internalType": "address",
              "name": "owner",
              "type": "address"
            },
            {
              "internalType": "address",
              "name": "world",
              "type": "address"
            },
            {
              "components": [
                {
                  "internalType": "string",
                  "name": "x",
                  "type": "string"
                },
                {
                  "internalType": "string",
                  "name": "y",
                  "type": "string"
                },
                {
                  "internalType": "string",
                  "name": "z",
                  "type": "string"
                },
                {
                  "internalType": "uint256",
                  "name": "t",
                  "type": "uint256"
                },
                {
                  "internalType": "uint256",
                  "name": "p",
                  "type": "uint256"
                },
                {
                  "internalType": "uint256",
                  "name": "p_sub",
                  "type": "uint256"
                }
              ],
              "internalType": "struct VectorAddress",
              "name": "vector",
              "type": "tuple"
            },
            {
              "internalType": "bytes",
              "name": "initData",
              "type": "bytes"
            },
            {
              "internalType": "string",
              "name": "name",
              "type": "string"
            }
          ],
          "internalType": "struct CompanyInitArgs",
          "name": "request",
          "type": "tuple"
        }
      ],
      "name": "init",
      "outputs": [],
      "stateMutability": "nonpayable",
      "type": "function"
    },
    {
      "inputs": [
        {
          "internalType": "address",
          "name": "signer",
          "type": "address"
        }
      ],
      "name": "isSigner",
      "outputs": [
        {
          "internalType": "bool",
          "name": "",
          "type": "bool"
        }
      ],
      "stateMutability": "view",
      "type": "function"
    },
    {
      "inputs": [
        {
          "internalType": "address",
          "name": "asset",
          "type": "address"
        },
        {
          "internalType": "address",
          "name": "to",
          "type": "address"
        },
        {
          "internalType": "bytes",
          "name": "data",
          "type": "bytes"
        }
      ],
      "name": "mint",
      "outputs": [],
      "stateMutability": "nonpayable",
      "type": "function"
    },
    {
      "inputs": [],
      "name": "name",
      "outputs": [
        {
          "internalType": "string",
          "name": "",
          "type": "string"
        }
      ],
      "stateMutability": "view",
      "type": "function"
    },
    {
      "inputs": [],
      "name": "owner",
      "outputs": [
        {
          "internalType": "address",
          "name": "",
          "type": "address"
        }
      ],
      "stateMutability": "view",
      "type": "function"
    },
    {
      "inputs": [
        {
          "internalType": "address",
          "name": "asset",
          "type": "address"
        }
      ],
      "name": "removeAssetCondition",
      "outputs": [],
      "stateMutability": "nonpayable",
      "type": "function"
    },
    {
      "inputs": [
        {
          "internalType": "address",
          "name": "asset",
          "type": "address"
        }
      ],
      "name": "removeAssetHook",
      "outputs": [],
      "stateMutability": "nonpayable",
      "type": "function"
    },
    {
      "inputs": [
        {
          "internalType": "address",
          "name": "experience",
          "type": "address"
        }
      ],
      "name": "removeExperienceCondition",
      "outputs": [],
      "stateMutability": "nonpayable",
      "type": "function"
    },
    {
      "inputs": [],
      "name": "removeHook",
      "outputs": [],
      "stateMutability": "nonpayable",
      "type": "function"
    },
    {
      "inputs": [
        {
          "internalType": "address[]",
          "name": "signers",
          "type": "address[]"
        }
      ],
      "name": "removeSigners",
      "outputs": [],
      "stateMutability": "nonpayable",
      "type": "function"
    },
    {
      "inputs": [
        {
          "internalType": "address",
          "name": "asset",
          "type": "address"
        },
        {
          "internalType": "address",
          "name": "holder",
          "type": "address"
        },
        {
          "internalType": "bytes",
          "name": "data",
          "type": "bytes"
        }
      ],
      "name": "revoke",
      "outputs": [],
      "stateMutability": "nonpayable",
      "type": "function"
    },
    {
      "inputs": [
        {
          "internalType": "contract ICompanyHook",
          "name": "_hook",
          "type": "address"
        }
      ],
      "name": "setHook",
      "outputs": [],
      "stateMutability": "nonpayable",
      "type": "function"
    },
    {
      "inputs": [
        {
          "internalType": "bytes",
          "name": "initData",
          "type": "bytes"
        }
      ],
      "name": "upgrade",
      "outputs": [],
      "stateMutability": "nonpayable",
      "type": "function"
    },
    {
      "inputs": [
        {
          "internalType": "address",
          "name": "asset",
          "type": "address"
        },
        {
          "internalType": "bytes",
          "name": "initData",
          "type": "bytes"
        }
      ],
      "name": "upgradeAsset",
      "outputs": [],
      "stateMutability": "nonpayable",
      "type": "function"
    },
    {
      "inputs": [
        {
          "internalType": "address",
          "name": "nextVersion",
          "type": "address"
        }
      ],
      "name": "upgradeComplete",
      "outputs": [],
      "stateMutability": "nonpayable",
      "type": "function"
    },
    {
      "inputs": [
        {
          "internalType": "address",
          "name": "experience",
          "type": "address"
        },
        {
          "internalType": "bytes",
          "name": "initData",
          "type": "bytes"
        }
      ],
      "name": "upgradeExperience",
      "outputs": [],
      "stateMutability": "nonpayable",
      "type": "function"
    },
    {
      "inputs": [],
      "name": "vectorAddress",
      "outputs": [
        {
          "components": [
            {
              "internalType": "string",
              "name": "x",
              "type": "string"
            },
            {
              "internalType": "string",
              "name": "y",
              "type": "string"
            },
            {
              "internalType": "string",
              "name": "z",
              "type": "string"
            },
            {
              "internalType": "uint256",
              "name": "t",
              "type": "uint256"
            },
            {
              "internalType": "uint256",
              "name": "p",
              "type": "uint256"
            },
            {
              "internalType": "uint256",
              "name": "p_sub",
              "type": "uint256"
            }
          ],
          "internalType": "struct VectorAddress",
          "name": "",
          "type": "tuple"
        }
      ],
      "stateMutability": "view",
      "type": "function"
    },
    {
      "inputs": [],
      "name": "version",
      "outputs": [
        {
          "internalType": "uint256",
          "name": "",
          "type": "uint256"
        }
      ],
      "stateMutability": "view",
      "type": "function"
    },
    {
      "inputs": [
        {
          "internalType": "uint256",
          "name": "amount",
          "type": "uint256"
        }
      ],
      "name": "withdraw",
      "outputs": [],
      "stateMutability": "nonpayable",
      "type": "function"
    },
    {
      "inputs": [],
      "name": "world",
      "outputs": [
        {
          "internalType": "address",
          "name": "",
          "type": "address"
        }
      ],
      "stateMutability": "view",
      "type": "function"
    },
    {
      "stateMutability": "payable",
      "type": "receive"
    }
  ],
  "bytecode": "0x6101206040523480156200001257600080fd5b50604051620035f2380380620035f28339810160408190526200003591620002ba565b600160005580516001600160a01b0316620000a55760405162461bcd60e51b815260206004820152602560248201527f436f6d70616e793a20636f6d70616e79466163746f72792063616e6e6f742062604482015264065203078360dc1b60648201526084015b60405180910390fd5b60208101516001600160a01b0316620001105760405162461bcd60e51b815260206004820152602660248201527f436f6d70616e793a20636f6d70616e7952656769737472792063616e6e6f742060448201526506265203078360d41b60648201526084016200009c565b60408101516001600160a01b03166200017e5760405162461bcd60e51b815260206004820152602960248201527f436f6d70616e793a20657870657269656e636552656769737472792063616e6e60448201526806f74206265203078360bc1b60648201526084016200009c565b60608101516001600160a01b0316620001e65760405162461bcd60e51b8152602060048201526024808201527f436f6d70616e793a20617373657452656769737472792063616e6e6f742062656044820152630203078360e41b60648201526084016200009c565b60808101516001600160a01b0316620002505760405162461bcd60e51b815260206004820152602560248201527f436f6d70616e793a2061766174617252656769737472792063616e6e6f742062604482015264065203078360dc1b60648201526084016200009c565b80516001600160a01b0390811660809081526020830151821660a0526040830151821660c0526060830151821660e05290910151166101005262000365565b6001600160a01b0381168114620002a557600080fd5b50565b8051620002b5816200028f565b919050565b600060a08284031215620002cd57600080fd5b60405160a081016001600160401b0381118282101715620002fe57634e487b7160e01b600052604160045260246000fd5b60405282516200030e816200028f565b8152602083015162000320816200028f565b60208201526200033360408401620002a8565b60408201526200034660608401620002a8565b60608201526200035960808401620002a8565b60808201529392505050565b60805160a05160c05160e05161010051613209620003e9600039600081816106e601526116c30152600081816105ea0152818161146701526119e90152600081816105b60152610d8501526000818161065e0152610ec30152600081816106b201528181610f1401528181610f8e01528181611cb60152611d3001526132096000f3fe6080604052600436106102085760003560e01c806354fd4d5011610118578063979d7e86116100a0578063db70a6931161006f578063db70a69314610680578063dc1c44be146106a0578063e3d7ad73146106d4578063e8906a2d14610708578063f1ddecf91461072857600080fd5b8063979d7e86146105d85780639e29186d1461060c578063b404b6741461062c578063c51aba2b1461064c57600080fd5b80637df73e27116100e75780637df73e27146104fc5780637f5a7c7b1461051c5780638d361e43146105595780638da5cb5b146105795780638f09a6be146105a457600080fd5b806354fd4d501461047957806357433ea61461049c5780636330347a146104bc5780637d4daec5146104dc57600080fd5b806329f2691d1161019b578063378f17ff1161016a578063378f17ff146103d457806337b4eb06146103e957806338c8a97b146104195780633dfd3873146104395780635466ddd51461045957600080fd5b806329f2691d146103215780632e1a7d4d146103415780632fcbab9a1461036157806330b67baa1461038357600080fd5b80631961f05d116101d75780631961f05d146102a1578063243546a6146102c157806325394645146102e15780632663d1f71461030157600080fd5b80630346f5f51461021457806306fdde03146102365780631187b6271461026157806316c49b111461028157600080fd5b3661020f57005b600080fd5b34801561022057600080fd5b5061023461022f366004612704565b610748565b005b34801561024257600080fd5b5061024b6107f5565b6040516102589190612776565b60405180910390f35b34801561026d57600080fd5b5061023461027c366004612789565b6108b8565b34801561028d57600080fd5b5061023461029c3660046127c2565b61095a565b3480156102ad57600080fd5b506102346102bc3660046127fc565b610a41565b3480156102cd57600080fd5b506102346102dc366004612905565b610ad9565b3480156102ed57600080fd5b506102346102fc3660046129ab565b610e6b565b34801561030d57600080fd5b5061023461031c3660046127fc565b610f12565b34801561032d57600080fd5b5061023461033c3660046127fc565b611027565b34801561034d57600080fd5b5061023461035c3660046129df565b6110a3565b34801561036d57600080fd5b50610376611182565b6040516102589190612a6b565b34801561038f57600080fd5b507f6373b2650f68a30b6fdd87e3caf4df754a3a8f8ef4b09bbd1bb4ff21f356aa2d546001600160a01b03165b6040516001600160a01b039091168152602001610258565b3480156103e057600080fd5b506102346113d2565b3480156103f557600080fd5b50610409610404366004612a7e565b611445565b6040519015158152602001610258565b34801561042557600080fd5b50610234610434366004612a7e565b611981565b34801561044557600080fd5b506102346104543660046127fc565b611bdb565b34801561046557600080fd5b50610234610474366004612bc0565b611cb4565b34801561048557600080fd5b5061048e600181565b604051908152602001610258565b3480156104a857600080fd5b506102346104b7366004612789565b611fcf565b3480156104c857600080fd5b506102346104d7366004612789565b612041565b3480156104e857600080fd5b5061024b6104f7366004612905565b6120b0565b34801561050857600080fd5b506104096105173660046127fc565b6120d9565b34801561052857600080fd5b507f6373b2650f68a30b6fdd87e3caf4df754a3a8f8ef4b09bbd1bb4ff21f356aa2e546001600160a01b03166103bc565b34801561056557600080fd5b50610234610574366004612c96565b612106565b34801561058557600080fd5b50600080516020613174833981519152546001600160a01b03166103bc565b3480156105b057600080fd5b506103bc7f000000000000000000000000000000000000000000000000000000000000000081565b3480156105e457600080fd5b506103bc7f000000000000000000000000000000000000000000000000000000000000000081565b34801561061857600080fd5b506102346106273660046127fc565b612151565b34801561063857600080fd5b50610234610647366004612d0a565b6121d2565b34801561065857600080fd5b506103bc7f000000000000000000000000000000000000000000000000000000000000000081565b34801561068c57600080fd5b5061023461069b366004612d0a565b61223f565b3480156106ac57600080fd5b506103bc7f000000000000000000000000000000000000000000000000000000000000000081565b3480156106e057600080fd5b506103bc7f000000000000000000000000000000000000000000000000000000000000000081565b34801561071457600080fd5b50610234610723366004612c96565b6122ae565b34801561073457600080fd5b50610234610743366004612a7e565b6122f9565b6000610752612406565b905061076d816000805160206131b48339815191523361242a565b6107925760405162461bcd60e51b815260040161078990612d59565b60405180910390fd5b6040516383c3426360e01b81526004810183905283906001600160a01b038216906383c34263906024015b600060405180830381600087803b1580156107d757600080fd5b505af11580156107eb573d6000803e3d6000fd5b5050505050505050565b7f6373b2650f68a30b6fdd87e3caf4df754a3a8f8ef4b09bbd1bb4ff21f356aa3580546060916000805160206131748339815191529161083490612da4565b80601f016020809104026020016040519081016040528092919081815260200182805461086090612da4565b80156108ad5780601f10610882576101008083540402835291602001916108ad565b820191906000526020600020905b81548152906001019060200180831161089057829003601f168201915b505050505091505090565b60006108c2612406565b90506108dd816000805160206131b48339815191523361242a565b6108f95760405162461bcd60e51b815260040161078990612d59565b604051630f69c09d60e31b81526001600160a01b038381166004830152841690637b4e04e8906024015b600060405180830381600087803b15801561093d57600080fd5b505af1158015610951573d6000803e3d6000fd5b50505050505050565b6000610964612406565b905061097f816000805160206131948339815191523361242a565b61099b5760405162461bcd60e51b815260040161078990612dde565b60006109aa60208401846127fc565b9050806001600160a01b0316637dc759e5604051806060016040528086602001358152602001866040013581526020018680606001906109ea9190612e2a565b8080601f01602080910402602001604051908101604052809392919081815260200183838082843760009201919091525050509152506040516001600160e01b031960e084901b1681526109239190600401612e77565b6000610a4b612406565b9050610a66816000805160206131b48339815191523361242a565b610a825760405162461bcd60e51b815260040161078990612d59565b816001600160a01b031663378f17ff6040518163ffffffff1660e01b8152600401600060405180830381600087803b158015610abd57600080fd5b505af1158015610ad1573d6000803e3d6000fd5b505050505050565b6000610ae3612406565b9050610afe816000805160206131948339815191523361242a565b610b1a5760405162461bcd60e51b815260040161078990612dde565b610b22612457565b7f6373b2650f68a30b6fdd87e3caf4df754a3a8f8ef4b09bbd1bb4ff21f356aa3680546000805160206131748339815191529190600090610b6290612ea6565b9190508190555060006040518060c00160405280836003016000018054610b8890612da4565b80601f0160208091040260200160405190810160405280929190818152602001828054610bb490612da4565b8015610c015780601f10610bd657610100808354040283529160200191610c01565b820191906000526020600020905b815481529060010190602001808311610be457829003601f168201915b50505050508152602001836003016001018054610c1d90612da4565b80601f0160208091040260200160405190810160405280929190818152602001828054610c4990612da4565b8015610c965780601f10610c6b57610100808354040283529160200191610c96565b820191906000526020600020905b815481529060010190602001808311610c7957829003601f168201915b50505050508152602001836003016002018054610cb290612da4565b80601f0160208091040260200160405190810160405280929190818152602001828054610cde90612da4565b8015610d2b5780601f10610d0057610100808354040283529160200191610d2b565b820191906000526020600020905b815481529060010190602001808311610d0e57829003601f168201915b50505050508152602001836003016003015481526020018360030160040154815260200183600a015481525090506000604051806060016040528083815260200186602001518152602001866000015181525090506000807f00000000000000000000000000000000000000000000000000000000000000006001600160a01b0316631305f017846040518263ffffffff1660e01b8152600401610dcf9190612ecd565b60408051808303816000875af1158015610ded573d6000803e3d6000fd5b505050506040513d601f19601f82011682018060405250810190610e119190612f2e565b91509150816001600160a01b03167f564792a0259ee41a56519990d80509a8057848327265f2075bcaac108651eab982604051610e5091815260200190565b60405180910390a25050505050610e676001600055565b5050565b6000610e75612406565b9050610e90816000805160206131b48339815191523361242a565b610eac5760405162461bcd60e51b815260040161078990612d59565b60405163d449cf2560e01b81526001600160a01b037f0000000000000000000000000000000000000000000000000000000000000000169063d449cf2590610ef8908590600401612776565b600060405180830381600087803b158015610abd57600080fd5b7f00000000000000000000000000000000000000000000000000000000000000006001600160a01b0316610f835760405162461bcd60e51b815260206004820152601860248201527710dbdb5c185b9e4e88199858dd1bdc9e481b9bdd081cd95d60421b6044820152606401610789565b336001600160a01b037f00000000000000000000000000000000000000000000000000000000000000001614610fcb5760405162461bcd60e51b815260040161078990612f5c565b6000610fd5612406565b80546001600160a01b038481166001600160a01b031983168117845560405193945091169182907f62e097eae9ab3bdbcbf8876a75515aa178198bfb2b0e9a90a7308bceb2efa6e690600090a3505050565b6000611031612406565b905061104c816000805160206131b48339815191523361242a565b6110685760405162461bcd60e51b815260040161078990612d59565b816001600160a01b031663021665b76040518163ffffffff1660e01b8152600401600060405180830381600087803b158015610abd57600080fd5b60006110ad612406565b90506110c8816000805160206131b48339815191523361242a565b6110e45760405162461bcd60e51b815260040161078990612d59565b478211156111345760405162461bcd60e51b815260206004820152601d60248201527f436f6d70616e793a20696e73756666696369656e742062616c616e63650000006044820152606401610789565b60008051602061317483398151915280546040516001600160a01b03909116906108fc8515029085906000818181858888f1935050505015801561117c573d6000803e3d6000fd5b50505050565b6111bb6040518060c001604052806060815260200160608152602001606081526020016000815260200160008152602001600081525090565b6040805160c081019091527f6373b2650f68a30b6fdd87e3caf4df754a3a8f8ef4b09bbd1bb4ff21f356aa2f80546000805160206131748339815191529291908290829061120890612da4565b80601f016020809104026020016040519081016040528092919081815260200182805461123490612da4565b80156112815780601f1061125657610100808354040283529160200191611281565b820191906000526020600020905b81548152906001019060200180831161126457829003601f168201915b5050505050815260200160018201805461129a90612da4565b80601f01602080910402602001604051908101604052809291908181526020018280546112c690612da4565b80156113135780601f106112e857610100808354040283529160200191611313565b820191906000526020600020905b8154815290600101906020018083116112f657829003601f168201915b5050505050815260200160028201805461132c90612da4565b80601f016020809104026020016040519081016040528092919081815260200182805461135890612da4565b80156113a55780601f1061137a576101008083540402835291602001916113a5565b820191906000526020600020905b81548152906001019060200180831161138857829003601f168201915b50505050508152602001600382015481526020016004820154815260200160058201548152505091505090565b60006113dc612406565b90506113f7816000805160206131b48339815191523361242a565b6114135760405162461bcd60e51b815260040161078990612d59565b507f6373b2650f68a30b6fdd87e3caf4df754a3a8f8ef4b09bbd1bb4ff21f356aa2e80546001600160a01b0319169055565b6040516315bd8ac360e31b81526001600160a01b0385811660048301526000917f00000000000000000000000000000000000000000000000000000000000000009091169063adec561890602401602060405180830381865afa1580156114b0573d6000803e3d6000fd5b505050506040513d601f19601f820116820180604052508101906114d49190612f9e565b6115205760405162461bcd60e51b815260206004820152601d60248201527f436f6d70616e793a206173736574206e6f7420726567697374657265640000006044820152606401610789565b6000859050306001600160a01b0316816001600160a01b0316631d1438486040518163ffffffff1660e01b8152600401602060405180830381865afa15801561156d573d6000803e3d6000fd5b505050506040513d601f19601f820116820180604052508101906115919190612fc0565b6001600160a01b0316146115e75760405162461bcd60e51b815260206004820152601c60248201527f436f6d70616e793a206e6f7420697373756572206f66206173736574000000006044820152606401610789565b604051634f2a605160e11b81526001600160a01b03821690639e54c0a29061161790889088908890600401612fdd565b602060405180830381865afa158015611634573d6000803e3d6000fd5b505050506040513d601f19601f820116820180604052508101906116589190612f9e565b6116a45760405162461bcd60e51b815260206004820152601f60248201527f436f6d70616e793a2063616e6e6f74206d696e7420746f2061646472657373006044820152606401610789565b604051632b0fe8e760e21b81526001600160a01b0386811660048301527f0000000000000000000000000000000000000000000000000000000000000000169063ac3fa39c90602401602060405180830381865afa15801561170a573d6000803e3d6000fd5b505050506040513d601f19601f8201168201806040525081019061172e9190612f9e565b61173c576001915050611979565b6000859050806001600160a01b031663181d939b6040518163ffffffff1660e01b8152600401602060405180830381865afa15801561177f573d6000803e3d6000fd5b505050506040513d601f19601f820116820180604052508101906117a39190612f9e565b611972576000816001600160a01b031663516f279e6040518163ffffffff1660e01b8152600401602060405180830381865afa1580156117e7573d6000803e3d6000fd5b505050506040513d601f19601f8201168201806040525081019061180b9190612fc0565b90506001600160a01b0381166118795760405162461bcd60e51b815260206004820152602d60248201527f436f6d70616e793a20617661746172206c6f636174696f6e206973206e6f742060448201526c616e20657870657269656e636560981b6064820152608401610789565b306001600160a01b0316816001600160a01b0316636904c94d6040518163ffffffff1660e01b8152600401602060405180830381865afa1580156118c1573d6000803e3d6000fd5b505050506040513d601f19601f820116820180604052508101906118e59190612fc0565b6001600160a01b0316146119705760405162461bcd60e51b815260206004820152604660248201527f436f6d70616e793a20617661746172206c6f636174696f6e206973206e6f742060448201527f696e20616e20657870657269656e6365206f776e6564206279207468697320636064820152656f6d70616e7960d01b608482015260a401610789565b505b6001925050505b949350505050565b600061198b612406565b90506119a6816000805160206131948339815191523361242a565b6119c25760405162461bcd60e51b815260040161078990612dde565b6119ca612457565b6040516315bd8ac360e31b81526001600160a01b0386811660048301527f0000000000000000000000000000000000000000000000000000000000000000169063adec561890602401602060405180830381865afa158015611a30573d6000803e3d6000fd5b505050506040513d601f19601f82011682018060405250810190611a549190612f9e565b611aa05760405162461bcd60e51b815260206004820152601d60248201527f436f6d70616e793a206173736574206e6f7420726567697374657265640000006044820152606401610789565b6000859050306001600160a01b0316816001600160a01b0316631d1438486040518163ffffffff1660e01b8152600401602060405180830381865afa158015611aed573d6000803e3d6000fd5b505050506040513d601f19601f82011682018060405250810190611b119190612fc0565b6001600160a01b031614611b675760405162461bcd60e51b815260206004820152601c60248201527f436f6d70616e793a206e6f7420697373756572206f66206173736574000000006044820152606401610789565b6040516326a5ce1160e21b81526001600160a01b03821690639a97384490611b9790889088908890600401612fdd565b600060405180830381600087803b158015611bb157600080fd5b505af1158015611bc5573d6000803e3d6000fd5b5050505050611bd46001600055565b5050505050565b6000611be5612406565b9050611c00816000805160206131b48339815191523361242a565b611c1c5760405162461bcd60e51b815260040161078990612d59565b6001600160a01b038216611c725760405162461bcd60e51b815260206004820152601b60248201527f436f6d70616e793a20686f6f6b2063616e6e6f742062652030783000000000006044820152606401610789565b507f6373b2650f68a30b6fdd87e3caf4df754a3a8f8ef4b09bbd1bb4ff21f356aa2e80546001600160a01b0319166001600160a01b0392909216919091179055565b7f00000000000000000000000000000000000000000000000000000000000000006001600160a01b0316611d255760405162461bcd60e51b815260206004820152601860248201527710dbdb5c185b9e4e88199858dd1bdc9e481b9bdd081cd95d60421b6044820152606401610789565b336001600160a01b037f00000000000000000000000000000000000000000000000000000000000000001614611d6d5760405162461bcd60e51b815260040161078990612f5c565b60008051602061317483398151915280546001600160a01b031615611dd45760405162461bcd60e51b815260206004820152601c60248201527f436f6d70616e793a20616c726561647920696e697469616c697a6564000000006044820152606401610789565b81516001600160a01b0316611e2b5760405162461bcd60e51b815260206004820152601c60248201527f436f6d70616e793a206f776e65722063616e6e6f7420626520307830000000006044820152606401610789565b600082608001515111611e805760405162461bcd60e51b815260206004820152601d60248201527f436f6d70616e793a206e616d652063616e6e6f7420626520656d7074790000006044820152606401610789565b60208201516001600160a01b0316611eda5760405162461bcd60e51b815260206004820152601c60248201527f436f6d70616e793a20776f726c642063616e6e6f7420626520307830000000006044820152606401610789565b815181546001600160a01b039182166001600160a01b031991821617835560208401516001840180549190931691161790556040820151805160038301908190611f249082613065565b5060208201516001820190611f399082613065565b5060408201516002820190611f4e9082613065565b5060608201516003820155608080830151600483015560a0909201516005909101558201516009820190611f829082613065565b506000611f8d612406565b8351909150611fad9082906000805160206131b483398151915290612481565b8251611fca90829060008051602061319483398151915290612481565b505050565b6000611fd9612406565b9050611ff4816000805160206131b48339815191523361242a565b6120105760405162461bcd60e51b815260040161078990612d59565b6040516337eff0db60e11b81526001600160a01b038381166004830152849190821690636fdfe1b6906024016107bd565b600061204b612406565b9050612066816000805160206131b48339815191523361242a565b6120825760405162461bcd60e51b815260040161078990612d59565b604051631169a49960e11b81526001600160a01b0383811660048301528416906322d3493290602401610923565b6060816040516020016120c39190613124565b6040516020818303038152906040529050919050565b6000806120e4612406565b90506120ff816000805160206131948339815191528561242a565b9392505050565b6000612110612406565b905061212b816000805160206131b48339815191523361242a565b6121475760405162461bcd60e51b815260040161078990612d59565b611fca83836124b4565b600061215b612406565b9050612176816000805160206131b48339815191523361242a565b6121925760405162461bcd60e51b815260040161078990612d59565b6000829050806001600160a01b03166358779dcf6040518163ffffffff1660e01b8152600401600060405180830381600087803b15801561093d57600080fd5b60006121dc612406565b90506121f7816000805160206131b48339815191523361242a565b6122135760405162461bcd60e51b815260040161078990612d59565b604051632539464560e01b81526001600160a01b03841690632539464590610923908590600401612776565b6000612249612406565b9050612264816000805160206131b48339815191523361242a565b6122805760405162461bcd60e51b815260040161078990612d59565b604051632539464560e01b815283906001600160a01b038216906325394645906107bd908690600401612776565b60006122b8612406565b90506122d3816000805160206131b48339815191523361242a565b6122ef5760405162461bcd60e51b815260040161078990612d59565b611fca8383612597565b6000612303612406565b905061231e816000805160206131948339815191523361242a565b61233a5760405162461bcd60e51b815260040161078990612dde565b612342612457565b61234e85858585611445565b61239a5760405162461bcd60e51b815260206004820152601a60248201527f436f6d70616e793a2063616e6e6f74206d696e742061737365740000000000006044820152606401610789565b60405163b510391f60e01b81526001600160a01b0386169063b510391f906123ca90879087908790600401612fdd565b600060405180830381600087803b1580156123e457600080fd5b505af11580156123f8573d6000803e3d6000fd5b50505050611bd46001600055565b7f69198989339f34e10129e514286bde98979351148754faef989dde18bf6d14da90565b6000918252600192909201602090815260408083206001600160a01b039094168352929052205460ff1690565b60026000540361247a57604051633ee5aeb560e01b815260040160405180910390fd5b6002600055565b60009182526001928301602090815260408084206001600160a01b0390931684529190529020805460ff19169091179055565b60006124be612406565b905060005b8281101561117c576125336000805160206131948339815191528585848181106124ef576124ef61315d565b905060200201602081019061250491906127fc565b600091825260018501602090815260408084206001600160a01b0390931684529190529020805460ff19169055565b8383828181106125455761254561315d565b905060200201602081019061255a91906127fc565b6001600160a01b03167f3525e22824a8a7df2c9a6029941c824cf95b6447f1e13d5128fd3826d35afe8b60405160405180910390a26001016124c3565b60006125a1612406565b905060005b8281101561117c5760008484838181106125c2576125c261315d565b90506020020160208101906125d791906127fc565b6001600160a01b0316036126375760405162461bcd60e51b815260206004820152602160248201527f4261736550726f78793a207369676e6572206973207a65726f206164647265736044820152607360f81b6064820152608401610789565b61267860008051602061319483398151915285858481811061265b5761265b61315d565b905060200201602081019061267091906127fc565b849190612481565b83838281811061268a5761268a61315d565b905060200201602081019061269f91906127fc565b6001600160a01b03167f47d1c22a25bb3a5d4e481b9b1e6944c2eade3181a0a20b495ed61d35b5323f2460405160405180910390a26001016125a6565b6001600160a01b03811681146126f157600080fd5b50565b80356126ff816126dc565b919050565b6000806040838503121561271757600080fd5b8235612722816126dc565b946020939093013593505050565b6000815180845260005b818110156127565760208185018101518683018201520161273a565b506000602082860101526020601f19601f83011685010191505092915050565b6020815260006120ff6020830184612730565b6000806040838503121561279c57600080fd5b82356127a7816126dc565b915060208301356127b7816126dc565b809150509250929050565b6000602082840312156127d457600080fd5b81356001600160401b038111156127ea57600080fd5b8201608081850312156120ff57600080fd5b60006020828403121561280e57600080fd5b81356120ff816126dc565b634e487b7160e01b600052604160045260246000fd5b60405160c081016001600160401b038111828210171561285157612851612819565b60405290565b60405160a081016001600160401b038111828210171561285157612851612819565b600082601f83011261288a57600080fd5b81356001600160401b03808211156128a4576128a4612819565b604051601f8301601f19908116603f011681019082821181831017156128cc576128cc612819565b816040528381528660208588010111156128e557600080fd5b836020870160208301376000602085830101528094505050505092915050565b60006020828403121561291757600080fd5b81356001600160401b038082111561292e57600080fd5b908301906040828603121561294257600080fd5b60405160408101818110838211171561295d5761295d612819565b60405282358281111561296f57600080fd5b61297b87828601612879565b82525060208301358281111561299057600080fd5b61299c87828601612879565b60208301525095945050505050565b6000602082840312156129bd57600080fd5b81356001600160401b038111156129d357600080fd5b61197984828501612879565b6000602082840312156129f157600080fd5b5035919050565b6000815160c08452612a0d60c0850182612730565b905060208301518482036020860152612a268282612730565b91505060408301518482036040860152612a408282612730565b915050606083015160608501526080830151608085015260a083015160a08501528091505092915050565b6020815260006120ff60208301846129f8565b60008060008060608587031215612a9457600080fd5b8435612a9f816126dc565b93506020850135612aaf816126dc565b925060408501356001600160401b0380821115612acb57600080fd5b818701915087601f830112612adf57600080fd5b813581811115612aee57600080fd5b886020828501011115612b0057600080fd5b95989497505060200194505050565b600060c08284031215612b2157600080fd5b612b2961282f565b905081356001600160401b0380821115612b4257600080fd5b612b4e85838601612879565b83526020840135915080821115612b6457600080fd5b612b7085838601612879565b60208401526040840135915080821115612b8957600080fd5b50612b9684828501612879565b604083015250606082013560608201526080820135608082015260a082013560a082015292915050565b600060208284031215612bd257600080fd5b81356001600160401b0380821115612be957600080fd5b9083019060a08286031215612bfd57600080fd5b612c05612857565b612c0e836126f4565b8152612c1c602084016126f4565b6020820152604083013582811115612c3357600080fd5b612c3f87828601612b0f565b604083015250606083013582811115612c5757600080fd5b612c6387828601612879565b606083015250608083013582811115612c7b57600080fd5b612c8787828601612879565b60808301525095945050505050565b60008060208385031215612ca957600080fd5b82356001600160401b0380821115612cc057600080fd5b818501915085601f830112612cd457600080fd5b813581811115612ce357600080fd5b8660208260051b8501011115612cf857600080fd5b60209290920196919550909350505050565b60008060408385031215612d1d57600080fd5b8235612d28816126dc565b915060208301356001600160401b03811115612d4357600080fd5b612d4f85828601612879565b9150509250929050565b6020808252602b908201527f426173654163636573733a2063616c6c657220646f6573206e6f74206861766560408201526a2061646d696e20726f6c6560a81b606082015260800190565b600181811c90821680612db857607f821691505b602082108103612dd857634e487b7160e01b600052602260045260246000fd5b50919050565b6020808252602c908201527f426173654163636573733a2063616c6c657220646f6573206e6f74206861766560408201526b207369676e657220726f6c6560a01b606082015260800190565b6000808335601e19843603018112612e4157600080fd5b8301803591506001600160401b03821115612e5b57600080fd5b602001915036819003821315612e7057600080fd5b9250929050565b602081528151602082015260208201516040820152600060408301516060808401526119796080840182612730565b600060018201612ec657634e487b7160e01b600052601160045260246000fd5b5060010190565b602081526000825160606020840152612ee960808401826129f8565b90506020840151601f1980858403016040860152612f078383612730565b9250604086015191508085840301606086015250612f258282612730565b95945050505050565b60008060408385031215612f4157600080fd5b8251612f4c816126dc565b6020939093015192949293505050565b60208082526022908201527f436f6d70616e793a2063616c6c6572206973206e6f742074686520666163746f604082015261727960f01b606082015260800190565b600060208284031215612fb057600080fd5b815180151581146120ff57600080fd5b600060208284031215612fd257600080fd5b81516120ff816126dc565b6001600160a01b03841681526040602082018190528101829052818360608301376000818301606090810191909152601f909201601f1916010192915050565b601f821115611fca576000816000526020600020601f850160051c810160208610156130465750805b601f850160051c820191505b81811015610ad157828155600101613052565b81516001600160401b0381111561307e5761307e612819565b6130928161308c8454612da4565b8461301d565b602080601f8311600181146130c757600084156130af5750858301515b600019600386901b1c1916600185901b178555610ad1565b600085815260208120601f198616915b828110156130f6578886015182559484019460019091019084016130d7565b50858210156131145787850151600019600388901b60f8161c191681555b5050505050600190811b01905550565b6020815260008251604060208401526131406060840182612730565b90506020840151601f19848303016040850152612f258282612730565b634e487b7160e01b600052603260045260246000fdfe6373b2650f68a30b6fdd87e3caf4df754a3a8f8ef4b09bbd1bb4ff21f356aa2ce2f4eaae4a9751e85a3e4a7b9587827a877f29914755229b07a7b2da98285f70a49807205ce4d355092ef5a8a18f56e8913cf4a201fbe287825b095693c21775a264697066735822122039272f2d64d4b38b3880304c4df4f2da7ee8f611f6cf861623b0277efa003e7864736f6c63430008180033",
  "linkReferences": {},
  "deployedLinkReferences": {}
}