{
  "_format": "hh-sol-artifact-1",
  "contractName": "CompanyRegistrationExt",
  "sourceName": "contracts/extensions/registry/company/CompanyRegistrationExt.sol",
  "abi": [
    {
      "anonymous": false,
      "inputs": [
        {
          "indexed": true,
          "internalType": "address",
          "name": "entity",
          "type": "address"
        },
        {
          "indexed": true,
          "internalType": "address",
          "name": "owner",
          "type": "address"
        }
      ],
      "name": "RegistryAddedEntity",
      "type": "event"
    },
    {
      "anonymous": false,
      "inputs": [
        {
          "indexed": true,
          "internalType": "address",
          "name": "old",
          "type": "address"
        },
        {
          "indexed": false,
          "internalType": "address",
          "name": "newVersion",
          "type": "address"
        }
      ],
      "name": "RegistryUpgradedEntity",
      "type": "event"
    },
    {
      "inputs": [
        {
          "components": [
            {
              "internalType": "address",
              "name": "entity",
              "type": "address"
            },
            {
              "internalType": "bytes",
              "name": "entitySignature",
              "type": "bytes"
            },
            {
              "internalType": "uint256",
              "name": "expiration",
              "type": "uint256"
            },
            {
              "components": [
                {
                  "internalType": "uint16",
                  "name": "coveragePeriodDays",
                  "type": "uint16"
                },
                {
                  "internalType": "uint16",
                  "name": "gracePeriodDays",
                  "type": "uint16"
                },
                {
                  "internalType": "uint256",
                  "name": "fee",
                  "type": "uint256"
                }
              ],
              "internalType": "struct RegistrationTerms",
              "name": "terms",
              "type": "tuple"
            }
          ],
          "internalType": "struct ChangeEntityTermsArgs",
          "name": "args",
          "type": "tuple"
        }
      ],
      "name": "changeEntityTerms",
      "outputs": [],
      "stateMutability": "nonpayable",
      "type": "function"
    },
    {
      "inputs": [
        {
          "components": [
            {
              "internalType": "bool",
              "name": "sendTokensToOwner",
              "type": "bool"
            },
            {
              "internalType": "address",
              "name": "owner",
              "type": "address"
            },
            {
              "internalType": "string",
              "name": "name",
              "type": "string"
            },
            {
              "components": [
                {
                  "internalType": "uint16",
                  "name": "coveragePeriodDays",
                  "type": "uint16"
                },
                {
                  "internalType": "uint16",
                  "name": "gracePeriodDays",
                  "type": "uint16"
                },
                {
                  "internalType": "uint256",
                  "name": "fee",
                  "type": "uint256"
                }
              ],
              "internalType": "struct RegistrationTerms",
              "name": "terms",
              "type": "tuple"
            },
            {
              "components": [
                {
                  "internalType": "string",
                  "name": "x",
                  "type": "string"
                },
                {
                  "internalType": "string",
                  "name": "y",
                  "type": "string"
                },
                {
                  "internalType": "string",
                  "name": "z",
                  "type": "string"
                },
                {
                  "internalType": "uint256",
                  "name": "t",
                  "type": "uint256"
                },
                {
                  "internalType": "uint256",
                  "name": "p",
                  "type": "uint256"
                },
                {
                  "internalType": "uint256",
                  "name": "p_sub",
                  "type": "uint256"
                }
              ],
              "internalType": "struct VectorAddress",
              "name": "vector",
              "type": "tuple"
            },
            {
              "internalType": "bytes",
              "name": "initData",
              "type": "bytes"
            },
            {
              "internalType": "bytes",
              "name": "ownerTermsSignature",
              "type": "bytes"
            },
            {
              "internalType": "uint256",
              "name": "expiration",
              "type": "uint256"
            }
          ],
          "internalType": "struct CreateCompanyArgs",
          "name": "args",
          "type": "tuple"
        }
      ],
      "name": "createCompany",
      "outputs": [
        {
          "internalType": "address",
          "name": "",
          "type": "address"
        }
      ],
      "stateMutability": "payable",
      "type": "function"
    },
    {
      "inputs": [
        {
          "internalType": "string",
          "name": "name",
          "type": "string"
        }
      ],
      "name": "getEntityByName",
      "outputs": [
        {
          "internalType": "address",
          "name": "",
          "type": "address"
        }
      ],
      "stateMutability": "view",
      "type": "function"
    },
    {
      "inputs": [
        {
          "components": [
            {
              "internalType": "address",
              "name": "owner",
              "type": "address"
            },
            {
              "internalType": "address",
              "name": "owningRegistry",
              "type": "address"
            },
            {
              "internalType": "address[]",
              "name": "admins",
              "type": "address[]"
            }
          ],
          "internalType": "struct ExtensionInitArgs",
          "name": "args",
          "type": "tuple"
        }
      ],
      "name": "initStorage",
      "outputs": [],
      "stateMutability": "nonpayable",
      "type": "function"
    },
    {
      "inputs": [
        {
          "internalType": "address",
          "name": "myAddress",
          "type": "address"
        }
      ],
      "name": "install",
      "outputs": [],
      "stateMutability": "nonpayable",
      "type": "function"
    },
    {
      "inputs": [
        {
          "internalType": "address",
          "name": "addr",
          "type": "address"
        }
      ],
      "name": "isRegistered",
      "outputs": [
        {
          "internalType": "bool",
          "name": "",
          "type": "bool"
        }
      ],
      "stateMutability": "view",
      "type": "function"
    },
    {
      "inputs": [],
      "name": "metadata",
      "outputs": [
        {
          "components": [
            {
              "internalType": "string",
              "name": "name",
              "type": "string"
            },
            {
              "components": [
                {
                  "internalType": "uint16",
                  "name": "major",
                  "type": "uint16"
                },
                {
                  "internalType": "uint16",
                  "name": "minor",
                  "type": "uint16"
                }
              ],
              "internalType": "struct Version",
              "name": "version",
              "type": "tuple"
            }
          ],
          "internalType": "struct ExtensionMetadata",
          "name": "",
          "type": "tuple"
        }
      ],
      "stateMutability": "pure",
      "type": "function"
    },
    {
      "inputs": [],
      "name": "register",
      "outputs": [],
      "stateMutability": "nonpayable",
      "type": "function"
    },
    {
      "inputs": [
        {
          "internalType": "address",
          "name": "myAddress",
          "type": "address"
        }
      ],
      "name": "upgrade",
      "outputs": [],
      "stateMutability": "nonpayable",
      "type": "function"
    }
  ],
  "bytecode": "0x608060405234801561001057600080fd5b50611a05806100206000396000f3fe6080604052600436106100855760003560e01c8063392f37e911610059578063392f37e91461010f5780633e88a4e2146101315780634d4965f314610151578063729963c014610171578063c3c5a5471461018c57600080fd5b80629ee3081461008a5780630900f010146100ba5780631aa3a008146100da5780632a1b8f9b146100ef575b600080fd5b61009d6100983660046110c7565b6101bc565b6040516001600160a01b0390911681526020015b60405180910390f35b3480156100c657600080fd5b506100d86100d536600461111f565b50565b005b3480156100e657600080fd5b506100d8610a62565b3480156100fb57600080fd5b506100d861010a36600461111f565b610ae1565b34801561011b57600080fd5b50610124610d69565b6040516100b19190611182565b34801561013d57600080fd5b5061009d61014c3660046111c7565b610dc5565b34801561015d57600080fd5b506100d861016c366004611239565b610e4b565b34801561017d57600080fd5b506100d86100d5366004611274565b34801561019857600080fd5b506101ac6101a736600461111f565b610eb5565b60405190151581526020016100b1565b600080306001600160a01b031663911c2a8c6040518163ffffffff1660e01b8152600401602060405180830381865afa1580156101fd573d6000803e3d6000fd5b505050506040513d601f19601f8201168201806040525081019061022191906112af565b90506001600160a01b0381166102955760405162461bcd60e51b815260206004820152602e60248201527f436f6d70616e79526567697374726174696f6e4578743a20776f726c6420726560448201526d19da5cdd1c9e481b9bdd081cd95d60921b60648201526084015b60405180910390fd5b60008190506000339050806001600160a01b03166386b70bed6040518163ffffffff1660e01b8152600401602060405180830381865afa1580156102dd573d6000803e3d6000fd5b505050506040513d601f19601f8201168201806040525081019061030191906112da565b6103615760405162461bcd60e51b815260206004820152602b60248201527f436f6d70616e79526567697374726174696f6e4578743a20776f726c6420697360448201526a206e6f742061637469766560a81b606482015260840161028c565b60405163c3c5a54760e01b81523360048201526001600160a01b0383169063c3c5a54790602401602060405180830381865afa1580156103a5573d6000803e3d6000fd5b505050506040513d601f19601f820116820180604052508101906103c991906112da565b61042d5760405162461bcd60e51b815260206004820152602f60248201527f436f6d70616e79526567697374726174696f6e4578743a20776f726c6420697360448201526e081b9bdd081c9959da5cdd195c9959608a1b606482015260840161028c565b600061043f60a087016080880161130e565b61ffff16116104c95760405162461bcd60e51b815260206004820152604a60248201527f526567697374726172526567697374726174696f6e4578743a2067726163652060448201527f706572696f6420726571756972656420666f722072656d6f7661626c6520726560648201526933b4b9ba3930ba34b7b760b11b608482015260a40161028c565b60006040518060a001604052808760200160208101906104e9919061111f565b6001600160a01b0316815233602082015260400161050f36899003890160608a01611368565b8152610120880135602082015260400161052d6101008901896113d0565b8080601f016020809104026020016040519081016040528093929190818152602001838380828437600092019190915250505091525060405163bf52415b60e01b815290915073__$d81eab81c4f96e94de97b51155a369ac43$__9063bf52415b9061059d90849060040161141e565b60006040518083038186803b1580156105b557600080fd5b505af41580156105c9573d6000803e3d6000fd5b50600092506105de91505060c0880188611496565b6105e790611543565b9050600081608001511161067a5760405162461bcd60e51b815260206004820152604e60248201527f436f6d70616e79526567697374726174696f6e3a20766563746f72206164647260448201527f65737320702076616c7565206d7573742062652067726561746572207468616e60648201526d203020666f7220636f6d70616e7960901b608482015260a40161028c565b60a0810151156106f25760405162461bcd60e51b815260206004820152603f60248201527f436f6d70616e79526567697374726174696f6e3a20766563746f72206164647260448201527f65737320705f737562206d757374206265203020666f7220636f6d70616e7900606482015260840161028c565b60006106fc610f34565b8054909150600090610716906001600160a01b0316610fca565b90506001600160a01b0381166107815760405162461bcd60e51b815260206004820152602a60248201527f436f6d70616e79526567697374726174696f6e3a20656e7469747920636c6f6e6044820152691a5b99c819985a5b195960b21b606482015260840161028c565b60006040518060c001604052808b60200160208101906107a1919061111f565b6001600160a01b03168152602001336001600160a01b03168152602001306001600160a01b031681526020018b80604001906107dd91906113d0565b8080601f0160208091040260200160405190810160405280939291908181526020018383808284376000920191909152505050908252506020810186905260400161082b60e08d018d6113d0565b8080601f01602080910402602001604051908101604052809392919081815260200183838082843760009201919091525050509152506040516334d0850960e11b81529091506001600160a01b038316906369a10a12906108909084906004016115f6565b600060405180830381600087803b1580156108aa57600080fd5b505af11580156108be573d6000803e3d6000fd5b5050505060006040518060600160405280846001600160a01b031681526020018c6060018036038101906108f29190611368565b815260200186905260405163474df87960e01b815290915073__$d81eab81c4f96e94de97b51155a369ac43$__9063474df879906109349084906004016116df565b60006040518083038186803b15801561094c57600080fd5b505af4158015610960573d6000803e3d6000fd5b505050506000341115610a045761097a60208c018c6117b2565b156109cd5761098f60408c0160208d0161111f565b6001600160a01b03166108fc349081150290604051600060405180830381858888f193505050501580156109c7573d6000803e3d6000fd5b50610a04565b6040516001600160a01b038416903480156108fc02916000818181858888f19350505050158015610a02573d6000803e3d6000fd5b505b610a1460408c0160208d0161111f565b6001600160a01b0316836001600160a01b03167f7377123f9eb561d749cd3a89a83c22035cad6473521acbb981ee1c52d8f0248560405160405180910390a350909998505050505050505050565b610a6b33610eb5565b610adf576040805162461bcd60e51b81526020600482015260248101919091527f526567697374726174696f6e4578743a206f6e6c79207265676973746572656460448201527f20656e7469746965732063616e2063616c6c20746869732066756e6374696f6e606482015260840161028c565b565b60408051600480825260a08201909252600091816020015b604080518082019091526000815260606020820152815260200190600190039081610af95790505090506040518060400160405280633e88a4e260e01b6001600160e01b03191681526020016040518060400160405280601781526020017f676574456e7469747942794e616d6528737472696e672900000000000000000081525081525081600081518110610b9157610b916117cf565b60200260200101819052506040518060400160405280634d4965f360e01b6001600160e01b03191681526020016040518060600160405280602c81526020016119a4602c913981525081600181518110610bed57610bed6117cf565b6020026020010181905250604051806040016040528063c3c5a54760e01b6001600160e01b03191681526020016040518060400160405280601581526020017469735265676973746572656428616464726573732960581b81525081525081600281518110610c5e57610c5e6117cf565b60200260200101819052506040518060400160405280629ee30860e01b6001600160e01b03191681526020016040518060400160405280602081526020017f637265617465436f6d70616e7928437265617465436f6d70616e79417267732981525081525081600381518110610cd657610cd66117cf565b602002602001018190525073__$307c3a572bdf5d9800a89b3fc2eb3d5604$__63964d13f06040518060400160405280856001600160a01b03168152602001848152506040518263ffffffff1660e01b8152600401610d3591906117e5565b60006040518083038186803b158015610d4d57600080fd5b505af4158015610d61573d6000803e3d6000fd5b505050505050565b610d7161108b565b506040805160808101825260168183019081527510dbdb5c185b9e549959da5cdd1c985d1a5bdb915e1d60521b60608301528152815180830190925260018252600060208381019190915281019190915290565b604051631f44527160e11b815260009073__$d81eab81c4f96e94de97b51155a369ac43$__90633e88a4e290610e0190869086906004016118a8565b602060405180830381865af4158015610e1e573d6000803e3d6000fd5b505050506040513d601f19601f82011682018060405250810190610e4291906112af565b90505b92915050565b604051630bca13f760e41b815273__$d81eab81c4f96e94de97b51155a369ac43$__9063bca13f7090610e829084906004016118eb565b60006040518083038186803b158015610e9a57600080fd5b505af4158015610eae573d6000803e3d6000fd5b5050505050565b60405163c3c5a54760e01b81526001600160a01b038216600482015260009073__$d81eab81c4f96e94de97b51155a369ac43$__9063c3c5a54790602401602060405180830381865af4158015610f10573d6000803e3d6000fd5b505050506040513d601f19601f82011682018060405250810190610e4591906112da565b60408051808201909152601c81527f78722e656e746974792e666163746f72792e73746f726167652e76310000000060209091015260008060ff610f9960017f8b4ac7cd4466ab0d50fe53a88c5446ca4a450d482bef9ad792e7d9f451497e0f611982565b604051602001610fab91815260200190565b60408051601f1981840301815291905280516020909101201692915050565b60006001600160a01b03821661103a5760405162461bcd60e51b815260206004820152602f60248201527f4c6962436c6f6e653a20696d706c656d656e746174696f6e2063616e6e6f742060448201526e6265207a65726f206164647265737360881b606482015260840161028c565b60008260601b9050604051733d602d80600a3d3981f3363d3d373d3d3d363d7360601b81528160148201526e5af43d82803e903d91602b57fd5bf360881b60288201526037816000f0949350505050565b6040518060400160405280606081526020016110c26040518060400160405280600061ffff168152602001600061ffff1681525090565b905290565b6000602082840312156110d957600080fd5b813567ffffffffffffffff8111156110f057600080fd5b8201610140818503121561110357600080fd5b9392505050565b6001600160a01b03811681146100d557600080fd5b60006020828403121561113157600080fd5b81356111038161110a565b6000815180845260005b8181101561116257602081850181015186830182015201611146565b506000602082860101526020601f19601f83011685010191505092915050565b60208152600082516060602084015261119e608084018261113c565b602094850151805161ffff90811660408701529501519094166060909301929092525090919050565b600080602083850312156111da57600080fd5b823567ffffffffffffffff808211156111f257600080fd5b818501915085601f83011261120657600080fd5b81358181111561121557600080fd5b86602082850101111561122757600080fd5b60209290920196919550909350505050565b60006020828403121561124b57600080fd5b813567ffffffffffffffff81111561126257600080fd5b820160c0818503121561110357600080fd5b60006020828403121561128657600080fd5b813567ffffffffffffffff81111561129d57600080fd5b82016060818503121561110357600080fd5b6000602082840312156112c157600080fd5b81516111038161110a565b80151581146100d557600080fd5b6000602082840312156112ec57600080fd5b8151611103816112cc565b803561ffff8116811461130957600080fd5b919050565b60006020828403121561132057600080fd5b610e42826112f7565b634e487b7160e01b600052604160045260246000fd5b60405160c0810167ffffffffffffffff8111828210171561136257611362611329565b60405290565b60006060828403121561137a57600080fd5b6040516060810181811067ffffffffffffffff8211171561139d5761139d611329565b6040526113a9836112f7565b81526113b7602084016112f7565b6020820152604083013560408201528091505092915050565b6000808335601e198436030181126113e757600080fd5b83018035915067ffffffffffffffff82111561140257600080fd5b60200191503681900382131561141757600080fd5b9250929050565b602080825282516001600160a01b0390811683830152838201511660408084019190915280840151805161ffff908116606086015292810151909216608084015281015160a083015260009050606083015160c0830152608083015160e08084015261148e61010084018261113c565b949350505050565b6000823560be198336030181126114ac57600080fd5b9190910192915050565b600082601f8301126114c757600080fd5b813567ffffffffffffffff808211156114e2576114e2611329565b604051601f8301601f19908116603f0116810190828211818310171561150a5761150a611329565b8160405283815286602085880101111561152357600080fd5b836020870160208301376000602085830101528094505050505092915050565b600060c0823603121561155557600080fd5b61155d61133f565b823567ffffffffffffffff8082111561157557600080fd5b611581368387016114b6565b8352602085013591508082111561159757600080fd5b6115a3368387016114b6565b602084015260408501359150808211156115bc57600080fd5b506115c9368286016114b6565b604083015250606083013560608201526080830135608082015260a083013560a082015280915050919050565b60208152600060018060a01b0380845116602084015280602085015116604084015280604085015116606084015250606083015160c0608084015261163e60e084018261113c565b90506080840151601f19808584030160a0860152815160c0845261166560c085018261113c565b90506020830151848203602086015261167e828261113c565b91505060408301518482036040860152611698828261113c565b915050606083015160608501526080830151608085015260a083015160a085015260a08701519350818682030160c08701526116d4818561113c565b979650505050505050565b602080825282516001600160a01b031682820152820151600090611725604084018261ffff80825116835280602083015116602084015250604081015160408301525050565b50604083015160a080840152805160c08085015261174761018085018261113c565b9050602082015160bf19808684030160e0870152611765838361113c565b925060408401519150808684030161010087015250611784828261113c565b6060840151610120870152608084015161014087015260a09093015161016090950194909452509392505050565b6000602082840312156117c457600080fd5b8135611103816112cc565b634e487b7160e01b600052603260045260246000fd5b602080825282516001600160a01b031682820152828101516040808401819052815160608501819052600093926080600583901b87018101939185019290870190865b8181101561187157888603607f19018352845180516001600160e01b031916875287015187870185905261185e8588018261113c565b9650509386019391860191600101611828565b509398975050505050505050565b81835281816020850137506000828201602090810191909152601f909101601f19169091010190565b60208152600061148e60208301848661187f565b61ffff806118c9836112f7565b168352806118d9602084016112f7565b16602084015250604090810135910152565b60208152600082356118fc8161110a565b6001600160a01b031660208381019190915283013536849003601e1901811261192457600080fd5b830160208101903567ffffffffffffffff81111561194157600080fd5b80360382131561195057600080fd5b60c0604085015261196560e08501828461187f565b9150506040840135606084015261110360808401606086016118bc565b81810381811115610e4557634e487b7160e01b600052601160045260246000fdfe6368616e6765456e746974795465726d7328616464726573732c526567697374726174696f6e5465726d7329a2646970667358221220c2933001f9d5c4c57afcbe7944cf6c9787dd165fa32a0d5d3b8c3a1e4b2ce38764736f6c63430008180033",
  "linkReferences": {
    "contracts/libraries/LibExtensions.sol": {
      "LibExtensions": [
        {
          "length": 20,
          "start": 3331
        }
      ]
    },
    "contracts/libraries/LibRegistration.sol": {
      "LibRegistration": [
        {
          "length": 20,
          "start": 1429
        },
        {
          "length": 20,
          "start": 2348
        },
        {
          "length": 20,
          "start": 3575
        },
        {
          "length": 20,
          "start": 3706
        },
        {
          "length": 20,
          "start": 3830
        }
      ]
    }
  },
  "deployedLinkReferences": {
    "contracts/libraries/LibExtensions.sol": {
      "LibExtensions": [
        {
          "length": 20,
          "start": 3299
        }
      ]
    },
    "contracts/libraries/LibRegistration.sol": {
      "LibRegistration": [
        {
          "length": 20,
          "start": 1397
        },
        {
          "length": 20,
          "start": 2316
        },
        {
          "length": 20,
          "start": 3543
        },
        {
          "length": 20,
          "start": 3674
        },
        {
          "length": 20,
          "start": 3798
        }
      ]
    }
  }
}