{
  "_format": "hh-sol-artifact-1",
  "contractName": "CompanyRegistry",
  "sourceName": "contracts/company/registry/CompanyRegistry.sol",
  "abi": [
    {
      "inputs": [
        {
          "components": [
            {
              "internalType": "address",
              "name": "owner",
              "type": "address"
            },
            {
              "internalType": "address",
              "name": "extensionsRegistry",
              "type": "address"
            },
            {
              "internalType": "address",
              "name": "worldRegistry",
              "type": "address"
            },
            {
              "internalType": "address[]",
              "name": "admins",
              "type": "address[]"
            }
          ],
          "internalType": "struct CompanyRegistryConstructorArgs",
          "name": "args",
          "type": "tuple"
        }
      ],
      "stateMutability": "nonpayable",
      "type": "constructor"
    },
    {
      "anonymous": false,
      "inputs": [
        {
          "indexed": false,
          "internalType": "string",
          "name": "name",
          "type": "string"
        }
      ],
      "name": "ExtensionDisabled",
      "type": "event"
    },
    {
      "anonymous": false,
      "inputs": [
        {
          "indexed": false,
          "internalType": "string",
          "name": "name",
          "type": "string"
        }
      ],
      "name": "ExtensionEnabled",
      "type": "event"
    },
    {
      "anonymous": false,
      "inputs": [
        {
          "indexed": false,
          "internalType": "string",
          "name": "name",
          "type": "string"
        },
        {
          "components": [
            {
              "internalType": "uint16",
              "name": "major",
              "type": "uint16"
            },
            {
              "internalType": "uint16",
              "name": "minor",
              "type": "uint16"
            }
          ],
          "indexed": false,
          "internalType": "struct Version",
          "name": "version",
          "type": "tuple"
        }
      ],
      "name": "ExtensionInstalled",
      "type": "event"
    },
    {
      "anonymous": false,
      "inputs": [
        {
          "indexed": false,
          "internalType": "string",
          "name": "name",
          "type": "string"
        },
        {
          "components": [
            {
              "internalType": "uint16",
              "name": "major",
              "type": "uint16"
            },
            {
              "internalType": "uint16",
              "name": "minor",
              "type": "uint16"
            }
          ],
          "indexed": false,
          "internalType": "struct Version",
          "name": "version",
          "type": "tuple"
        }
      ],
      "name": "ExtensionRolledBack",
      "type": "event"
    },
    {
      "anonymous": false,
      "inputs": [
        {
          "indexed": false,
          "internalType": "string",
          "name": "name",
          "type": "string"
        },
        {
          "components": [
            {
              "internalType": "uint16",
              "name": "major",
              "type": "uint16"
            },
            {
              "internalType": "uint16",
              "name": "minor",
              "type": "uint16"
            }
          ],
          "indexed": false,
          "internalType": "struct Version",
          "name": "version",
          "type": "tuple"
        }
      ],
      "name": "ExtensionUpgraded",
      "type": "event"
    },
    {
      "anonymous": false,
      "inputs": [
        {
          "indexed": false,
          "internalType": "bytes4",
          "name": "selector",
          "type": "bytes4"
        }
      ],
      "name": "SelectorDisabled",
      "type": "event"
    },
    {
      "anonymous": false,
      "inputs": [
        {
          "indexed": false,
          "internalType": "bytes4",
          "name": "selector",
          "type": "bytes4"
        }
      ],
      "name": "SelectorEnabled",
      "type": "event"
    },
    {
      "stateMutability": "payable",
      "type": "fallback"
    },
    {
      "inputs": [],
      "name": "extRegistry",
      "outputs": [
        {
          "internalType": "contract ICoreExtensionRegistry",
          "name": "",
          "type": "address"
        }
      ],
      "stateMutability": "view",
      "type": "function"
    },
    {
      "inputs": [
        {
          "internalType": "string",
          "name": "name",
          "type": "string"
        }
      ],
      "name": "getExtensionVersion",
      "outputs": [
        {
          "components": [
            {
              "internalType": "uint16",
              "name": "major",
              "type": "uint16"
            },
            {
              "internalType": "uint16",
              "name": "minor",
              "type": "uint16"
            }
          ],
          "internalType": "struct Version",
          "name": "",
          "type": "tuple"
        }
      ],
      "stateMutability": "view",
      "type": "function"
    },
    {
      "inputs": [
        {
          "internalType": "string",
          "name": "name",
          "type": "string"
        },
        {
          "components": [
            {
              "internalType": "uint16",
              "name": "major",
              "type": "uint16"
            },
            {
              "internalType": "uint16",
              "name": "minor",
              "type": "uint16"
            }
          ],
          "internalType": "struct Version",
          "name": "version",
          "type": "tuple"
        }
      ],
      "name": "hasExtension",
      "outputs": [
        {
          "internalType": "bool",
          "name": "",
          "type": "bool"
        }
      ],
      "stateMutability": "view",
      "type": "function"
    },
    {
      "inputs": [
        {
          "internalType": "uint256",
          "name": "amount",
          "type": "uint256"
        }
      ],
      "name": "withdraw",
      "outputs": [],
      "stateMutability": "nonpayable",
      "type": "function"
    },
    {
      "inputs": [],
      "name": "worldRegistry",
      "outputs": [
        {
          "internalType": "address",
          "name": "",
          "type": "address"
        }
      ],
      "stateMutability": "view",
      "type": "function"
    },
    {
      "stateMutability": "payable",
      "type": "receive"
    }
  ],
  "bytecode": "0x60c06040523480156200001157600080fd5b5060405162001104380380620011048339810160408190526200003491620005c0565b60208101516001600160a01b038116620000bb5760405162461bcd60e51b815260206004820152603560248201527f42617369635368656c6c3a20657874656e73696f6e207265676973747279206360448201527f616e6e6f74206265207a65726f2061646472657373000000000000000000000060648201526084015b60405180910390fd5b6001600160a01b03908116608052604082015116620001435760405162461bcd60e51b815260206004820152603560248201527f436f6d70616e7952656769737472793a20776f726c645265676973747279206360448201527f616e6e6f74206265207a65726f206164647265737300000000000000000000006064820152608401620000b2565b6040818101516001600160a01b031660a09081528151600480825291810190925260009190816020015b60608152602001906001900390816200016d579050509050604051806040016040528060098152602001681058d8d95cdcd15e1d60ba1b81525081600081518110620001bd57620001bd620006e3565b60200260200101819052506040518060400160405280600a815260200169119858dd1bdc9e515e1d60b21b81525081600181518110620002015762000201620006e3565b60200260200101819052506040518060400160405280601681526020017f436f6d70616e79526567697374726174696f6e4578740000000000000000000081525081600281518110620002585762000258620006e3565b60200260200101819052506040518060400160405280601181526020017010dbdb5c185b9e54995b5bdd985b115e1d607a1b81525081600381518110620002a357620002a3620006e3565b60200260200101819052506000604051806060016040528084600001516001600160a01b0316815260200184606001518152602001838152509050620002ef81620002f860201b60201c565b50505062000828565b60005b816040015151811015620004bb5781604001518181518110620003225762000322620006e3565b60200260200101515160000315620004b25760006080516001600160a01b031663c22707ee84604001518481518110620003605762000360620006e3565b60200260200101516040518263ffffffff1660e01b81526004016200038691906200071f565b602060405180830381865afa158015620003a4573d6000803e3d6000fd5b505050506040513d601f19601f82011682018060405250810190620003ca919062000754565b9050600083604001518381518110620003e757620003e7620006e3565b602002602001015160405160200162000401919062000779565b60408051601f198184030181529190529050806001600160a01b0383166200043e5760405162461bcd60e51b8152600401620000b291906200071f565b506040516301232c8f60e01b81526001600160a01b0383166004820152829073__$307c3a572bdf5d9800a89b3fc2eb3d5604$__906301232c8f9060240160006040518083038186803b1580156200049557600080fd5b505af4158015620004aa573d6000803e3d6000fd5b505050505050505b600101620002fb565b508051602082015160405163d9ac971f60e01b815273__$a5a42e46683ad9c79b7b86d5ff60fdf4c1$__9263d9ac971f92620004fa92600401620007ca565b60006040518083038186803b1580156200051357600080fd5b505af415801562000528573d6000803e3d6000fd5b5050505050565b634e487b7160e01b600052604160045260246000fd5b604051608081016001600160401b03811182821017156200056a576200056a6200052f565b60405290565b604051601f8201601f191681016001600160401b03811182821017156200059b576200059b6200052f565b604052919050565b80516001600160a01b0381168114620005bb57600080fd5b919050565b60006020808385031215620005d457600080fd5b82516001600160401b0380821115620005ec57600080fd5b90840190608082870312156200060157600080fd5b6200060b62000545565b6200061683620005a3565b815262000625848401620005a3565b848201526200063760408401620005a3565b60408201526060830151828111156200064f57600080fd5b80840193505086601f8401126200066557600080fd5b8251828111156200067a576200067a6200052f565b8060051b92506200068d85840162000570565b8181529284018501928581019089851115620006a857600080fd5b948601945b84861015620006d157620006c186620005a3565b82529486019490860190620006ad565b60608401525090979650505050505050565b634e487b7160e01b600052603260045260246000fd5b60005b8381101562000716578181015183820152602001620006fc565b50506000910152565b602081526000825180602084015262000740816040850160208701620006f9565b601f01601f19169190910160400192915050565b6000602082840312156200076757600080fd5b6200077282620005a3565b9392505050565b7f42617369635368656c6c3a20657874656e73696f6e206e6f7420666f756e643a8152600160fd1b602082015260008251620007bd816021850160208701620006f9565b9190910160210192915050565b6001600160a01b038381168252604060208084018290528451918401829052600092858201929091906060860190855b818110156200081a578551851683529483019491830191600101620007fa565b509098975050505050505050565b60805160a0516108b66200084e60003960006101740152600061012801526108b66000f3fe60806040526004361061004e5760003560e01c8063238a03861461007d5780632e1a7d4d146100c457806347d1d09a146100e65780638a85477114610116578063911c2a8c1461016257610055565b3661005557005b600080356001600160e01b0319169050600061007382600036610196565b9050805160208201f35b34801561008957600080fd5b5061009d6100983660046105b6565b610221565b60408051825161ffff90811682526020938401511692810192909252015b60405180910390f35b3480156100d057600080fd5b506100e46100df3660046105eb565b6102b0565b005b3480156100f257600080fd5b50610106610101366004610604565b61046d565b60405190151581526020016100bb565b34801561012257600080fd5b5061014a7f000000000000000000000000000000000000000000000000000000000000000081565b6040516001600160a01b0390911681526020016100bb565b34801561016e57600080fd5b5061014a7f000000000000000000000000000000000000000000000000000000000000000081565b6040516360fdd56160e01b815260609073__$307c3a572bdf5d9800a89b3fc2eb3d5604$__906360fdd561906101d49087908790879060040161065e565b600060405180830381865af41580156101f1573d6000803e3d6000fd5b505050506040513d6000823e601f3d908101601f1916820160405261021991908101906106c1565b949350505050565b6040805180820182526000808252602082015290516311c501c360e11b815273__$307c3a572bdf5d9800a89b3fc2eb3d5604$__9063238a03869061026a908590600401610764565b6040805180830381865af4158015610286573d6000803e3d6000fd5b505050506040513d601f19601f820116820180604052508101906102aa919061078a565b92915050565b604051630935e01b60e21b815233600482015273__$a5a42e46683ad9c79b7b86d5ff60fdf4c1$__906324d7806c90602401602060405180830381865af41580156102ff573d6000803e3d6000fd5b505050506040513d601f19601f8201168201806040525081019061032391906107e9565b6103745760405162461bcd60e51b815260206004820181905260248201527f42617369635368656c6c3a207265737472696374656420746f2061646d696e7360448201526064015b60405180910390fd5b478111156103c45760405162461bcd60e51b815260206004820181905260248201527f42617369635368656c6c3a20696e73756666696369656e742062616c616e6365604482015260640161036b565b73__$a5a42e46683ad9c79b7b86d5ff60fdf4c1$__638da5cb5b6040518163ffffffff1660e01b8152600401602060405180830381865af415801561040d573d6000803e3d6000fd5b505050506040513d601f19601f82011682018060405250810190610431919061080b565b6001600160a01b03166108fc829081150290604051600060405180830381858888f19350505050158015610469573d6000803e3d6000fd5b5050565b6040516329925a7160e11b815260009073__$307c3a572bdf5d9800a89b3fc2eb3d5604$__90635324b4e2906104a99086908690600401610834565b602060405180830381865af41580156104c6573d6000803e3d6000fd5b505050506040513d601f19601f820116820180604052508101906104ea91906107e9565b9392505050565b634e487b7160e01b600052604160045260246000fd5b604051601f8201601f1916810167ffffffffffffffff81118282101715610530576105306104f1565b604052919050565b600067ffffffffffffffff821115610552576105526104f1565b50601f01601f191660200190565b600082601f83011261057157600080fd5b813561058461057f82610538565b610507565b81815284602083860101111561059957600080fd5b816020850160208301376000918101602001919091529392505050565b6000602082840312156105c857600080fd5b813567ffffffffffffffff8111156105df57600080fd5b61021984828501610560565b6000602082840312156105fd57600080fd5b5035919050565b600080828403606081121561061857600080fd5b833567ffffffffffffffff81111561062f57600080fd5b61063b86828701610560565b9350506040601f198201121561065057600080fd5b506020830190509250929050565b63ffffffff60e01b8416815260406020820152816040820152818360608301376000818301606090810191909152601f909201601f1916010192915050565b60005b838110156106b85781810151838201526020016106a0565b50506000910152565b6000602082840312156106d357600080fd5b815167ffffffffffffffff8111156106ea57600080fd5b8201601f810184136106fb57600080fd5b805161070961057f82610538565b81815285602083850101111561071e57600080fd5b61072f82602083016020860161069d565b95945050505050565b6000815180845261075081602086016020860161069d565b601f01601f19169290920160200192915050565b6020815260006104ea6020830184610738565b61ffff8116811461078757600080fd5b50565b60006040828403121561079c57600080fd5b6040516040810181811067ffffffffffffffff821117156107bf576107bf6104f1565b60405282516107cd81610777565b815260208301516107dd81610777565b60208201529392505050565b6000602082840312156107fb57600080fd5b815180151581146104ea57600080fd5b60006020828403121561081d57600080fd5b81516001600160a01b03811681146104ea57600080fd5b6060815260006108476060830185610738565b9050823561085481610777565b61ffff80821660208501526020850135915061086f82610777565b80821660408501525050939250505056fea2646970667358221220893e48695243f3917be4fe951ff2ab8309793b0e5528f892182443aa1b0943a164736f6c63430008180033",
  "linkReferences": {
    "contracts/libraries/LibAccess.sol": {
      "LibAccess": [
        {
          "length": 20,
          "start": 1234
        },
        {
          "length": 20,
          "start": 2835
        },
        {
          "length": 20,
          "start": 3092
        }
      ]
    },
    "contracts/libraries/LibExtensions.sol": {
      "LibExtensions": [
        {
          "length": 20,
          "start": 1119
        },
        {
          "length": 20,
          "start": 2550
        },
        {
          "length": 20,
          "start": 2704
        },
        {
          "length": 20,
          "start": 3277
        }
      ]
    }
  },
  "deployedLinkReferences": {
    "contracts/libraries/LibAccess.sol": {
      "LibAccess": [
        {
          "length": 20,
          "start": 709
        },
        {
          "length": 20,
          "start": 966
        }
      ]
    },
    "contracts/libraries/LibExtensions.sol": {
      "LibExtensions": [
        {
          "length": 20,
          "start": 424
        },
        {
          "length": 20,
          "start": 578
        },
        {
          "length": 20,
          "start": 1151
        }
      ]
    }
  }
}