{
  "_format": "hh-sol-artifact-1",
  "contractName": "CompanyRegistry",
  "sourceName": "contracts/company/CompanyRegistry.sol",
  "abi": [
    {
      "inputs": [
        {
          "components": [
            {
              "internalType": "address",
              "name": "mainAdmin",
              "type": "address"
            },
            {
              "internalType": "address",
              "name": "companyFactory",
              "type": "address"
            },
            {
              "internalType": "address",
              "name": "worldRegistry",
              "type": "address"
            },
            {
              "internalType": "address[]",
              "name": "admins",
              "type": "address[]"
            }
          ],
          "internalType": "struct CompanyRegistryArgs",
          "name": "args",
          "type": "tuple"
        }
      ],
      "stateMutability": "nonpayable",
      "type": "constructor"
    },
    {
      "inputs": [],
      "name": "AccessControlBadConfirmation",
      "type": "error"
    },
    {
      "inputs": [
        {
          "internalType": "address",
          "name": "account",
          "type": "address"
        },
        {
          "internalType": "bytes32",
          "name": "neededRole",
          "type": "bytes32"
        }
      ],
      "name": "AccessControlUnauthorizedAccount",
      "type": "error"
    },
    {
      "inputs": [],
      "name": "ReentrancyGuardReentrantCall",
      "type": "error"
    },
    {
      "anonymous": false,
      "inputs": [
        {
          "indexed": true,
          "internalType": "address",
          "name": "company",
          "type": "address"
        },
        {
          "components": [
            {
              "internalType": "string",
              "name": "x",
              "type": "string"
            },
            {
              "internalType": "string",
              "name": "y",
              "type": "string"
            },
            {
              "internalType": "string",
              "name": "z",
              "type": "string"
            },
            {
              "internalType": "uint256",
              "name": "t",
              "type": "uint256"
            },
            {
              "internalType": "uint256",
              "name": "p",
              "type": "uint256"
            },
            {
              "internalType": "uint256",
              "name": "p_sub",
              "type": "uint256"
            }
          ],
          "indexed": true,
          "internalType": "struct VectorAddress",
          "name": "",
          "type": "tuple"
        }
      ],
      "name": "CompanyRegistered",
      "type": "event"
    },
    {
      "anonymous": false,
      "inputs": [
        {
          "indexed": true,
          "internalType": "address",
          "name": "company",
          "type": "address"
        }
      ],
      "name": "RegistryDeactivatedCompany",
      "type": "event"
    },
    {
      "anonymous": false,
      "inputs": [
        {
          "indexed": true,
          "internalType": "address",
          "name": "company",
          "type": "address"
        }
      ],
      "name": "RegistryReactivatedCompany",
      "type": "event"
    },
    {
      "anonymous": false,
      "inputs": [
        {
          "indexed": true,
          "internalType": "address",
          "name": "company",
          "type": "address"
        }
      ],
      "name": "RegistryRemovedCompany",
      "type": "event"
    },
    {
      "anonymous": false,
      "inputs": [
        {
          "indexed": true,
          "internalType": "bytes32",
          "name": "role",
          "type": "bytes32"
        },
        {
          "indexed": true,
          "internalType": "bytes32",
          "name": "previousAdminRole",
          "type": "bytes32"
        },
        {
          "indexed": true,
          "internalType": "bytes32",
          "name": "newAdminRole",
          "type": "bytes32"
        }
      ],
      "name": "RoleAdminChanged",
      "type": "event"
    },
    {
      "anonymous": false,
      "inputs": [
        {
          "indexed": true,
          "internalType": "bytes32",
          "name": "role",
          "type": "bytes32"
        },
        {
          "indexed": true,
          "internalType": "address",
          "name": "account",
          "type": "address"
        },
        {
          "indexed": true,
          "internalType": "address",
          "name": "sender",
          "type": "address"
        }
      ],
      "name": "RoleGranted",
      "type": "event"
    },
    {
      "anonymous": false,
      "inputs": [
        {
          "indexed": true,
          "internalType": "bytes32",
          "name": "role",
          "type": "bytes32"
        },
        {
          "indexed": true,
          "internalType": "address",
          "name": "account",
          "type": "address"
        },
        {
          "indexed": true,
          "internalType": "address",
          "name": "sender",
          "type": "address"
        }
      ],
      "name": "RoleRevoked",
      "type": "event"
    },
    {
      "inputs": [],
      "name": "ADMIN_ROLE",
      "outputs": [
        {
          "internalType": "bytes32",
          "name": "",
          "type": "bytes32"
        }
      ],
      "stateMutability": "view",
      "type": "function"
    },
    {
      "inputs": [],
      "name": "DEFAULT_ADMIN_ROLE",
      "outputs": [
        {
          "internalType": "bytes32",
          "name": "",
          "type": "bytes32"
        }
      ],
      "stateMutability": "view",
      "type": "function"
    },
    {
      "inputs": [],
      "name": "companyFactory",
      "outputs": [
        {
          "internalType": "contract ICompanyFactory",
          "name": "",
          "type": "address"
        }
      ],
      "stateMutability": "view",
      "type": "function"
    },
    {
      "inputs": [],
      "name": "currentCompanyVersion",
      "outputs": [
        {
          "internalType": "uint256",
          "name": "",
          "type": "uint256"
        }
      ],
      "stateMutability": "view",
      "type": "function"
    },
    {
      "inputs": [
        {
          "internalType": "address",
          "name": "company",
          "type": "address"
        }
      ],
      "name": "deactivateCompany",
      "outputs": [],
      "stateMutability": "nonpayable",
      "type": "function"
    },
    {
      "inputs": [
        {
          "internalType": "bytes32",
          "name": "role",
          "type": "bytes32"
        }
      ],
      "name": "getRoleAdmin",
      "outputs": [
        {
          "internalType": "bytes32",
          "name": "",
          "type": "bytes32"
        }
      ],
      "stateMutability": "view",
      "type": "function"
    },
    {
      "inputs": [
        {
          "internalType": "bytes32",
          "name": "role",
          "type": "bytes32"
        },
        {
          "internalType": "address",
          "name": "account",
          "type": "address"
        }
      ],
      "name": "grantRole",
      "outputs": [],
      "stateMutability": "nonpayable",
      "type": "function"
    },
    {
      "inputs": [
        {
          "internalType": "bytes32",
          "name": "role",
          "type": "bytes32"
        },
        {
          "internalType": "address",
          "name": "account",
          "type": "address"
        }
      ],
      "name": "hasRole",
      "outputs": [
        {
          "internalType": "bool",
          "name": "",
          "type": "bool"
        }
      ],
      "stateMutability": "view",
      "type": "function"
    },
    {
      "inputs": [
        {
          "internalType": "address",
          "name": "company",
          "type": "address"
        }
      ],
      "name": "isRegisteredCompany",
      "outputs": [
        {
          "internalType": "bool",
          "name": "",
          "type": "bool"
        }
      ],
      "stateMutability": "view",
      "type": "function"
    },
    {
      "inputs": [
        {
          "internalType": "address",
          "name": "company",
          "type": "address"
        }
      ],
      "name": "reactivateCompany",
      "outputs": [],
      "stateMutability": "nonpayable",
      "type": "function"
    },
    {
      "inputs": [
        {
          "components": [
            {
              "internalType": "address",
              "name": "owner",
              "type": "address"
            },
            {
              "components": [
                {
                  "internalType": "string",
                  "name": "x",
                  "type": "string"
                },
                {
                  "internalType": "string",
                  "name": "y",
                  "type": "string"
                },
                {
                  "internalType": "string",
                  "name": "z",
                  "type": "string"
                },
                {
                  "internalType": "uint256",
                  "name": "t",
                  "type": "uint256"
                },
                {
                  "internalType": "uint256",
                  "name": "p",
                  "type": "uint256"
                },
                {
                  "internalType": "uint256",
                  "name": "p_sub",
                  "type": "uint256"
                }
              ],
              "internalType": "struct VectorAddress",
              "name": "vector",
              "type": "tuple"
            },
            {
              "internalType": "bytes",
              "name": "initData",
              "type": "bytes"
            },
            {
              "internalType": "string",
              "name": "name",
              "type": "string"
            }
          ],
          "internalType": "struct CompanyRegistrationRequest",
          "name": "request",
          "type": "tuple"
        }
      ],
      "name": "registerCompany",
      "outputs": [
        {
          "internalType": "address",
          "name": "",
          "type": "address"
        }
      ],
      "stateMutability": "nonpayable",
      "type": "function"
    },
    {
      "inputs": [
        {
          "internalType": "address",
          "name": "company",
          "type": "address"
        }
      ],
      "name": "removeCompany",
      "outputs": [],
      "stateMutability": "nonpayable",
      "type": "function"
    },
    {
      "inputs": [
        {
          "internalType": "bytes32",
          "name": "role",
          "type": "bytes32"
        },
        {
          "internalType": "address",
          "name": "callerConfirmation",
          "type": "address"
        }
      ],
      "name": "renounceRole",
      "outputs": [],
      "stateMutability": "nonpayable",
      "type": "function"
    },
    {
      "inputs": [
        {
          "internalType": "bytes32",
          "name": "role",
          "type": "bytes32"
        },
        {
          "internalType": "address",
          "name": "account",
          "type": "address"
        }
      ],
      "name": "revokeRole",
      "outputs": [],
      "stateMutability": "nonpayable",
      "type": "function"
    },
    {
      "inputs": [
        {
          "internalType": "address",
          "name": "factory",
          "type": "address"
        }
      ],
      "name": "setCompanyFactory",
      "outputs": [],
      "stateMutability": "nonpayable",
      "type": "function"
    },
    {
      "inputs": [
        {
          "internalType": "address",
          "name": "registry",
          "type": "address"
        }
      ],
      "name": "setWorldRegistry",
      "outputs": [],
      "stateMutability": "nonpayable",
      "type": "function"
    },
    {
      "inputs": [
        {
          "internalType": "bytes4",
          "name": "interfaceId",
          "type": "bytes4"
        }
      ],
      "name": "supportsInterface",
      "outputs": [
        {
          "internalType": "bool",
          "name": "",
          "type": "bool"
        }
      ],
      "stateMutability": "view",
      "type": "function"
    },
    {
      "inputs": [
        {
          "internalType": "bytes",
          "name": "initData",
          "type": "bytes"
        }
      ],
      "name": "upgradeCompany",
      "outputs": [],
      "stateMutability": "nonpayable",
      "type": "function"
    },
    {
      "inputs": [],
      "name": "worldRegistry",
      "outputs": [
        {
          "internalType": "contract IWorldRegistry",
          "name": "",
          "type": "address"
        }
      ],
      "stateMutability": "view",
      "type": "function"
    },
    {
      "stateMutability": "payable",
      "type": "receive"
    }
  ],
  "bytecode": "0x60806040523480156200001157600080fd5b50604051620025c5380380620025c583398101604081905262000034916200042a565b600160005580516001600160a01b0316620000ae5760405162461bcd60e51b815260206004820152602f60248201527f436f6d70616e7952656769737472793a206d61696e2061646d696e206164647260448201526e06573732063616e6e6f74206265203608c1b60648201526084015b60405180910390fd5b8051620000be9060009062000302565b508051620000dd90600080516020620025a58339815191529062000302565b5060208101516001600160a01b03166200014f5760405162461bcd60e51b815260206004820152602c60248201527f436f6d70616e7952656769737472793a20666163746f7279206164647265737360448201526b02063616e6e6f7420626520360a41b6064820152608401620000a5565b60408101516001600160a01b0316620001d15760405162461bcd60e51b815260206004820152603360248201527f436f6d70616e7952656769737472793a20776f726c642072656769737472792060448201527f616464726573732063616e6e6f742062652030000000000000000000000000006064820152608401620000a5565b6020810151600280546001600160a01b039283166001600160a01b03199182161790915560408301516003805491909316911617905560005b816060015151811015620002fa5760006001600160a01b0316826060015182815181106200023c576200023c6200054d565b60200260200101516001600160a01b031603620002af5760405162461bcd60e51b815260206004820152602a60248201527f436f6d70616e7952656769737472793a2061646d696e206164647265737320636044820152690616e6e6f7420626520360b41b6064820152608401620000a5565b620002f0600080516020620025a583398151915283606001518381518110620002dc57620002dc6200054d565b60200260200101516200030260201b60201c565b506001016200020a565b505062000563565b60008281526001602090815260408083206001600160a01b038516845290915281205460ff166200038f5760008381526001602081815260408084206001600160a01b0387168086529252808420805460ff19169093179092559051339286917f2f8788117e7eff1d82e926ec794901d17c78024a50270940304540a733656f0d9190a450600162000393565b5060005b92915050565b634e487b7160e01b600052604160045260246000fd5b604051608081016001600160401b0381118282101715620003d457620003d462000399565b60405290565b604051601f8201601f191681016001600160401b038111828210171562000405576200040562000399565b604052919050565b80516001600160a01b03811681146200042557600080fd5b919050565b600060208083850312156200043e57600080fd5b82516001600160401b03808211156200045657600080fd5b90840190608082870312156200046b57600080fd5b62000475620003af565b62000480836200040d565b81526200048f8484016200040d565b84820152620004a1604084016200040d565b6040820152606083015182811115620004b957600080fd5b80840193505086601f840112620004cf57600080fd5b825182811115620004e457620004e462000399565b8060051b9250620004f7858401620003da565b81815292840185019285810190898511156200051257600080fd5b948601945b848610156200053b576200052b866200040d565b8252948601949086019062000517565b60608401525090979650505050505050565b634e487b7160e01b600052603260045260246000fd5b61203280620005736000396000f3fe6080604052600436106101185760003560e01c806390159c94116100a0578063cb70d6c411610064578063cb70d6c414610349578063d449cf2514610369578063d547741f14610389578063dc1c44be146103a9578063e237fbad146103c957600080fd5b806390159c9414610283578063911c2a8c146102bc57806391d14854146102f4578063a18cd5cc14610314578063a217fddf1461033457600080fd5b806336568abe116100e757806336568abe146101da5780635c3ce693146101fa57806375b238fc1461020f57806382c154e01461024357806383e005fa1461026357600080fd5b806301ffc9a71461012457806320ee2dcc14610159578063248a9ca31461017b5780632f2ff15d146101ba57600080fd5b3661011f57005b600080fd5b34801561013057600080fd5b5061014461013f3660046116f6565b6103e9565b60405190151581526020015b60405180910390f35b34801561016557600080fd5b5061017961017436600461173c565b610420565b005b34801561018757600080fd5b506101ac610196366004611759565b6000908152600160208190526040909120015490565b604051908152602001610150565b3480156101c657600080fd5b506101796101d5366004611772565b6107a8565b3480156101e657600080fd5b506101796101f5366004611772565b6107d4565b34801561020657600080fd5b506101ac61080c565b34801561021b57600080fd5b506101ac7fa49807205ce4d355092ef5a8a18f56e8913cf4a201fbe287825b095693c2177581565b34801561024f57600080fd5b5061017961025e36600461173c565b61087f565b34801561026f57600080fd5b5061017961027e36600461173c565b610952565b34801561028f57600080fd5b5061014461029e36600461173c565b6001600160a01b031660009081526005602052604090205460ff1690565b3480156102c857600080fd5b506003546102dc906001600160a01b031681565b6040516001600160a01b039091168152602001610150565b34801561030057600080fd5b5061014461030f366004611772565b610b83565b34801561032057600080fd5b5061017961032f36600461173c565b610bae565b34801561034057600080fd5b506101ac600081565b34801561035557600080fd5b506102dc6103643660046118b3565b610de0565b34801561037557600080fd5b50610179610384366004611a0f565b61112a565b34801561039557600080fd5b506101796103a4366004611772565b611216565b3480156103b557600080fd5b506002546102dc906001600160a01b031681565b3480156103d557600080fd5b506101796103e436600461173c565b61123c565b60006001600160e01b03198216637965db0b60e01b148061041a57506301ffc9a760e01b6001600160e01b03198316145b92915050565b600354604051637856879f60e11b81523360048201526001600160a01b039091169063f0ad0f3e90602401602060405180830381865afa158015610468573d6000803e3d6000fd5b505050506040513d601f19601f8201168201806040525081019061048c9190611a81565b6104b15760405162461bcd60e51b81526004016104a890611aa3565b60405180910390fd5b6104b9611316565b6000819050336001600160a01b0316816001600160a01b03166330b67baa6040518163ffffffff1660e01b8152600401602060405180830381865afa158015610506573d6000803e3d6000fd5b505050506040513d601f19601f8201168201806040525081019061052a9190611ae9565b6001600160a01b0316146105505760405162461bcd60e51b81526004016104a890611b06565b6001600160a01b03821660009081526005602052604090205460ff16156105c45760405162461bcd60e51b815260206004820152602260248201527f436f6d70616e7952656769737472793a20636f6d70616e792069732061637469604482015261766560f01b60648201526084016104a8565b6000816001600160a01b0316632fcbab9a6040518163ffffffff1660e01b8152600401600060405180830381865afa158015610604573d6000803e3d6000fd5b505050506040513d6000823e601f3d908101601f1916820160405261062c9190810190611bd4565b9050826001600160a01b03166351b42b006040518163ffffffff1660e01b8152600401600060405180830381600087803b15801561066957600080fd5b505af115801561067d573d6000803e3d6000fd5b5050506001600160a01b038416600081815260056020526040808220805460ff1916905580516306fdde0360e01b815290516004945061070a93926306fdde03928087019290819003870181865afa1580156106dd573d6000803e3d6000fd5b505050506040513d6000823e601f3d908101601f191682016040526107059190810190611caa565b611340565b6040516107179190611cdf565b90815260405190819003602001902080546001600160a01b031916905560066000610741836113b0565b805160209182012082528101919091526040908101600090812080546001600160a01b031916905590516001600160a01b038516917f4927cb7e15ef412fc064509c96fe1a17b88c2d2cd3383da6649b23717efa77f191a250506107a56001600055565b50565b600082815260016020819052604090912001546107c481611413565b6107ce838361141d565b50505050565b6001600160a01b03811633146107fd5760405163334bd91960e11b815260040160405180910390fd5b6108078282611496565b505050565b6002546040805163e921c27560e01b815290516000926001600160a01b03169163e921c2759160048083019260209291908290030181865afa158015610856573d6000803e3d6000fd5b505050506040513d601f19601f8201168201806040525081019061087a9190611cfb565b905090565b6108a97fa49807205ce4d355092ef5a8a18f56e8913cf4a201fbe287825b095693c2177533610b83565b6108c55760405162461bcd60e51b81526004016104a890611d14565b6001600160a01b0381166109305760405162461bcd60e51b815260206004820152602c60248201527f436f6d70616e7952656769737472793a20666163746f7279206164647265737360448201526b02063616e6e6f7420626520360a41b60648201526084016104a8565b600280546001600160a01b0319166001600160a01b0392909216919091179055565b600354604051637856879f60e11b81523360048201526001600160a01b039091169063f0ad0f3e90602401602060405180830381865afa15801561099a573d6000803e3d6000fd5b505050506040513d601f19601f820116820180604052508101906109be9190611a81565b6109da5760405162461bcd60e51b81526004016104a890611aa3565b6109e2611316565b6000819050336001600160a01b0316816001600160a01b03166330b67baa6040518163ffffffff1660e01b8152600401602060405180830381865afa158015610a2f573d6000803e3d6000fd5b505050506040513d601f19601f82011682018060405250810190610a539190611ae9565b6001600160a01b031614610a795760405162461bcd60e51b81526004016104a890611b06565b6001600160a01b03821660009081526005602052604090205460ff16610af15760405162461bcd60e51b815260206004820152602760248201527f436f6d70616e7952656769737472793a20636f6d70616e79206e6f74207265676044820152661a5cdd195c995960ca1b60648201526084016104a8565b816001600160a01b03166351b42b006040518163ffffffff1660e01b8152600401600060405180830381600087803b158015610b2c57600080fd5b505af1158015610b40573d6000803e3d6000fd5b50506040516001600160a01b03851692507f4d8e7062b32894af77030866237e8ce2c335843aac4997a1fc606a88a349d7359150600090a2506107a56001600055565b60009182526001602090815260408084206001600160a01b0393909316845291905290205460ff1690565b600354604051637856879f60e11b81523360048201526001600160a01b039091169063f0ad0f3e90602401602060405180830381865afa158015610bf6573d6000803e3d6000fd5b505050506040513d601f19601f82011682018060405250810190610c1a9190611a81565b610c365760405162461bcd60e51b81526004016104a890611aa3565b610c3e611316565b6000819050336001600160a01b0316816001600160a01b03166330b67baa6040518163ffffffff1660e01b8152600401602060405180830381865afa158015610c8b573d6000803e3d6000fd5b505050506040513d601f19601f82011682018060405250810190610caf9190611ae9565b6001600160a01b031614610cd55760405162461bcd60e51b81526004016104a890611b06565b6001600160a01b03821660009081526005602052604090205460ff1615610d4e5760405162461bcd60e51b815260206004820152602760248201527f436f6d70616e7952656769737472793a20636f6d70616e7920616c72656164796044820152662061637469766560c81b60648201526084016104a8565b816001600160a01b031663d18611d66040518163ffffffff1660e01b8152600401600060405180830381600087803b158015610d8957600080fd5b505af1158015610d9d573d6000803e3d6000fd5b50506040516001600160a01b03851692507fb50345be33393390bf02147348a4e525c6e826b1febb0b38d04b896938fbe2889150600090a2506107a56001600055565b600354604051637856879f60e11b81523360048201526000916001600160a01b03169063f0ad0f3e90602401602060405180830381865afa158015610e29573d6000803e3d6000fd5b505050506040513d601f19601f82011682018060405250810190610e4d9190611a81565b610e695760405162461bcd60e51b81526004016104a890611aa3565b610e71611316565b6000610e808360600151611340565b905060006001600160a01b0316600482604051610e9d9190611cdf565b908152604051908190036020019020546001600160a01b031614610f175760405162461bcd60e51b815260206004820152602b60248201527f436f6d70616e7952656769737472793a20636f6d70616e79206e616d6520616c60448201526a3932b0b23c903a30b5b2b760a91b60648201526084016104a8565b6002546040805160a08101825285516001600160a01b03908116825233602080840191909152870151828401528683015160608084019190915287015160808301529151637be4fdd760e11b8152600093929092169163f7c9fbae91610f7f91600401611d87565b6020604051808303816000875af1158015610f9e573d6000803e3d6000fd5b505050506040513d601f19601f82011682018060405250810190610fc29190611ae9565b90506001600160a01b03811661102b5760405162461bcd60e51b815260206004820152602860248201527f436f6d70616e7952656769737472793a20636f6d70616e79206372656174696f6044820152671b8819985a5b195960c21b60648201526084016104a8565b8060048360405161103c9190611cdf565b908152604080516020928190038301902080546001600160a01b0319166001600160a01b03948516179055918316600090815260058252918220805460ff191660011790558501518291600691611092906113b0565b80519060200120815260200190815260200160002060006101000a8154816001600160a01b0302191690836001600160a01b0316021790555083602001516040516110dd9190611e72565b604051908190038120906001600160a01b038316907f7d4bf7edd813e2887ba5c21733818d0fb09a3e972e1dbc39a7f639fda34dd71490600090a39150506111256001600055565b919050565b3360009081526005602052604090205460ff1661119a5760405162461bcd60e51b815260206004820152602860248201527f436f6d70616e7952656769737472793a2063616c6c6572206973206e6f74206160448201526720636f6d70616e7960c01b60648201526084016104a8565b6111a2611316565b600254604051634b48b55d60e11b81526001600160a01b03909116906396916aba906111d690339086908690600401611f00565b600060405180830381600087803b1580156111f057600080fd5b505af1158015611204573d6000803e3d6000fd5b505050506112126001600055565b5050565b6000828152600160208190526040909120015461123281611413565b6107ce8383611496565b6112667fa49807205ce4d355092ef5a8a18f56e8913cf4a201fbe287825b095693c2177533610b83565b6112825760405162461bcd60e51b81526004016104a890611d14565b6001600160a01b0381166112f45760405162461bcd60e51b815260206004820152603360248201527f436f6d70616e7952656769737472793a20776f726c64207265676973747279206044820152720616464726573732063616e6e6f74206265203606c1b60648201526084016104a8565b600380546001600160a01b0319166001600160a01b0392909216919091179055565b60026000540361133957604051633ee5aeb560e01b815260040160405180910390fd5b6002600055565b60608160005b81518110156113a95761137882828151811061136457611364611f40565b01602001516001600160f81b031916611503565b82828151811061138a5761138a611f40565b60200101906001600160f81b031916908160001a905350600101611346565b5092915050565b60608160000151826020015183604001516113ce8560600151611552565b6113db8660800151611552565b6113e88760a00151611552565b6040516020016113fd96959493929190611f56565b6040516020818303038152906040529050919050565b6107a581336115e5565b60006114298383610b83565b61148e5760008381526001602081815260408084206001600160a01b0387168086529252808420805460ff19169093179092559051339286917f2f8788117e7eff1d82e926ec794901d17c78024a50270940304540a733656f0d9190a450600161041a565b50600061041a565b60006114a28383610b83565b1561148e5760008381526001602090815260408083206001600160a01b0386168085529252808320805460ff1916905551339286917ff6391f5c32d9c69d2a47ea670b442974b53935d1edc7fd64eb21e047a839171b9190a450600161041a565b6000604160f81b6001600160f81b03198316108015906115315750602d60f91b6001600160f81b0319831611155b1561154e5761154560f883901c6020611fd5565b60f81b92915050565b5090565b6060600061155f8361161e565b600101905060008167ffffffffffffffff81111561157f5761157f6117a2565b6040519080825280601f01601f1916602001820160405280156115a9576020820181803683370190505b5090508181016020015b600019016f181899199a1a9b1b9c1cb0b131b232b360811b600a86061a8153600a85049450846115b357509392505050565b6115ef8282610b83565b6112125760405163e2517d3f60e01b81526001600160a01b0382166004820152602481018390526044016104a8565b60008072184f03e93ff9f4daa797ed6e38ed64bf6a1f0160401b831061165d5772184f03e93ff9f4daa797ed6e38ed64bf6a1f0160401b830492506040015b6d04ee2d6d415b85acef81000000008310611689576d04ee2d6d415b85acef8100000000830492506020015b662386f26fc1000083106116a757662386f26fc10000830492506010015b6305f5e10083106116bf576305f5e100830492506008015b61271083106116d357612710830492506004015b606483106116e5576064830492506002015b600a831061041a5760010192915050565b60006020828403121561170857600080fd5b81356001600160e01b03198116811461172057600080fd5b9392505050565b6001600160a01b03811681146107a557600080fd5b60006020828403121561174e57600080fd5b813561172081611727565b60006020828403121561176b57600080fd5b5035919050565b6000806040838503121561178557600080fd5b82359150602083013561179781611727565b809150509250929050565b634e487b7160e01b600052604160045260246000fd5b6040516080810167ffffffffffffffff811182821017156117db576117db6117a2565b60405290565b60405160c0810167ffffffffffffffff811182821017156117db576117db6117a2565b604051601f8201601f1916810167ffffffffffffffff8111828210171561182d5761182d6117a2565b604052919050565b600067ffffffffffffffff82111561184f5761184f6117a2565b50601f01601f191660200190565b600082601f83011261186e57600080fd5b813561188161187c82611835565b611804565b81815284602083860101111561189657600080fd5b816020850160208301376000918101602001919091529392505050565b6000602082840312156118c557600080fd5b813567ffffffffffffffff808211156118dd57600080fd5b90830190608082860312156118f157600080fd5b6118f96117b8565b823561190481611727565b815260208301358281111561191857600080fd5b830160c0818803121561192a57600080fd5b6119326117e1565b81358481111561194157600080fd5b61194d8982850161185d565b82525060208201358481111561196257600080fd5b61196e8982850161185d565b60208301525060408201358481111561198657600080fd5b6119928982850161185d565b604083015250606082013560608201526080820135608082015260a082013560a082015280602084015250506040830135828111156119d057600080fd5b6119dc8782860161185d565b6040830152506060830135828111156119f457600080fd5b611a008782860161185d565b60608301525095945050505050565b60008060208385031215611a2257600080fd5b823567ffffffffffffffff80821115611a3a57600080fd5b818501915085601f830112611a4e57600080fd5b813581811115611a5d57600080fd5b866020828501011115611a6f57600080fd5b60209290920196919550909350505050565b600060208284031215611a9357600080fd5b8151801515811461172057600080fd5b60208082526026908201527f436f6d70616e7952656769737472793a2063616c6c6572206973206e6f742061604082015265081ddbdc9b1960d21b606082015260800190565b600060208284031215611afb57600080fd5b815161172081611727565b6020808252603b908201527f436f6d70616e7952656769737472793a2063616c6c6572206973206e6f74207460408201527f686520706172656e7420776f726c6420666f7220636f6d70616e790000000000606082015260800190565b60005b83811015611b7e578181015183820152602001611b66565b50506000910152565b600082601f830112611b9857600080fd5b8151611ba661187c82611835565b818152846020838601011115611bbb57600080fd5b611bcc826020830160208701611b63565b949350505050565b600060208284031215611be657600080fd5b815167ffffffffffffffff80821115611bfe57600080fd5b9083019060c08286031215611c1257600080fd5b611c1a6117e1565b825182811115611c2957600080fd5b611c3587828601611b87565b825250602083015182811115611c4a57600080fd5b611c5687828601611b87565b602083015250604083015182811115611c6e57600080fd5b611c7a87828601611b87565b604083015250606083015160608201526080830151608082015260a083015160a082015280935050505092915050565b600060208284031215611cbc57600080fd5b815167ffffffffffffffff811115611cd357600080fd5b611bcc84828501611b87565b60008251611cf1818460208701611b63565b9190910192915050565b600060208284031215611d0d57600080fd5b5051919050565b60208082526027908201527f436f6d70616e7952656769737472793a2063616c6c6572206973206e6f742061604082015266371030b236b4b760c91b606082015260800190565b60008151808452611d73816020860160208601611b63565b601f01601f19169290920160200192915050565b60208152600060018060a01b0380845116602084015280602085015116604084015250604083015160a06060840152805160c080850152611dcc610180850182611d5b565b9050602082015160bf19808684030160e0870152611dea8383611d5b565b925060408401519150808684030161010087015250611e098282611d5b565b9150506060820151610120850152608082015161014085015260a082015161016085015260608501519150601f1980858303016080860152611e4b8284611d5b565b925060808601519150808584030160a086015250611e698282611d5b565b95945050505050565b600082518051611e86818560208501611b63565b601f19915081601f8201168401905060208501518051611eaa818460208501611b63565b83601f82011683019250505060408501518051611ecb818460208501611b63565b83601f82011683019350505050606084015181526080840151602082015260a084015160408201526060810191505092915050565b6001600160a01b03841681526040602082018190528101829052818360608301376000818301606090810191909152601f909201601f1916010192915050565b634e487b7160e01b600052603260045260246000fd5b600087516020611f698285838d01611b63565b885191840191611f7c8184848d01611b63565b8851920191611f8e8184848c01611b63565b8751920191611fa08184848b01611b63565b8651920191611fb28184848a01611b63565b8551920191611fc48184848901611b63565b919091019998505050505050505050565b60ff818116838216019081111561041a57634e487b7160e01b600052601160045260246000fdfea26469706673582212200954e1690d361394648e24dc5e582563049880808b7e01fb027fe7b4155b62df64736f6c63430008180033a49807205ce4d355092ef5a8a18f56e8913cf4a201fbe287825b095693c21775",
  "linkReferences": {},
  "deployedLinkReferences": {}
}