{
  "_format": "hh-sol-artifact-1",
  "contractName": "Company",
  "sourceName": "contracts/company/instance/Company.sol",
  "abi": [
    {
      "inputs": [
        {
          "components": [
            {
              "internalType": "address",
              "name": "extensionResolver",
              "type": "address"
            },
            {
              "internalType": "address",
              "name": "owningRegistry",
              "type": "address"
            },
            {
              "internalType": "address",
              "name": "worldRegistry",
              "type": "address"
            }
          ],
          "internalType": "struct CompanyConstructorArgs",
          "name": "args",
          "type": "tuple"
        }
      ],
      "stateMutability": "nonpayable",
      "type": "constructor"
    },
    {
      "anonymous": false,
      "inputs": [
        {
          "indexed": false,
          "internalType": "string",
          "name": "name",
          "type": "string"
        }
      ],
      "name": "ExtensionDisabled",
      "type": "event"
    },
    {
      "anonymous": false,
      "inputs": [
        {
          "indexed": false,
          "internalType": "string",
          "name": "name",
          "type": "string"
        }
      ],
      "name": "ExtensionEnabled",
      "type": "event"
    },
    {
      "anonymous": false,
      "inputs": [
        {
          "indexed": false,
          "internalType": "string",
          "name": "name",
          "type": "string"
        },
        {
          "components": [
            {
              "internalType": "uint16",
              "name": "major",
              "type": "uint16"
            },
            {
              "internalType": "uint16",
              "name": "minor",
              "type": "uint16"
            }
          ],
          "indexed": false,
          "internalType": "struct Version",
          "name": "version",
          "type": "tuple"
        }
      ],
      "name": "ExtensionInstalled",
      "type": "event"
    },
    {
      "anonymous": false,
      "inputs": [
        {
          "indexed": false,
          "internalType": "string",
          "name": "name",
          "type": "string"
        },
        {
          "components": [
            {
              "internalType": "uint16",
              "name": "major",
              "type": "uint16"
            },
            {
              "internalType": "uint16",
              "name": "minor",
              "type": "uint16"
            }
          ],
          "indexed": false,
          "internalType": "struct Version",
          "name": "version",
          "type": "tuple"
        }
      ],
      "name": "ExtensionRolledBack",
      "type": "event"
    },
    {
      "anonymous": false,
      "inputs": [
        {
          "indexed": false,
          "internalType": "string",
          "name": "name",
          "type": "string"
        },
        {
          "components": [
            {
              "internalType": "uint16",
              "name": "major",
              "type": "uint16"
            },
            {
              "internalType": "uint16",
              "name": "minor",
              "type": "uint16"
            }
          ],
          "indexed": false,
          "internalType": "struct Version",
          "name": "version",
          "type": "tuple"
        }
      ],
      "name": "ExtensionUpgraded",
      "type": "event"
    },
    {
      "anonymous": false,
      "inputs": [
        {
          "indexed": false,
          "internalType": "bytes4",
          "name": "selector",
          "type": "bytes4"
        }
      ],
      "name": "SelectorDisabled",
      "type": "event"
    },
    {
      "anonymous": false,
      "inputs": [
        {
          "indexed": false,
          "internalType": "bytes4",
          "name": "selector",
          "type": "bytes4"
        }
      ],
      "name": "SelectorEnabled",
      "type": "event"
    },
    {
      "stateMutability": "payable",
      "type": "fallback"
    },
    {
      "inputs": [],
      "name": "companyRegistry",
      "outputs": [
        {
          "internalType": "contract ICompanyRegistry",
          "name": "",
          "type": "address"
        }
      ],
      "stateMutability": "view",
      "type": "function"
    },
    {
      "inputs": [],
      "name": "extResolver",
      "outputs": [
        {
          "internalType": "contract IExtensionResolver",
          "name": "",
          "type": "address"
        }
      ],
      "stateMutability": "view",
      "type": "function"
    },
    {
      "inputs": [
        {
          "internalType": "string",
          "name": "name",
          "type": "string"
        }
      ],
      "name": "getExtensionVersion",
      "outputs": [
        {
          "components": [
            {
              "internalType": "uint16",
              "name": "major",
              "type": "uint16"
            },
            {
              "internalType": "uint16",
              "name": "minor",
              "type": "uint16"
            }
          ],
          "internalType": "struct Version",
          "name": "",
          "type": "tuple"
        }
      ],
      "stateMutability": "view",
      "type": "function"
    },
    {
      "inputs": [
        {
          "internalType": "string",
          "name": "name",
          "type": "string"
        },
        {
          "components": [
            {
              "internalType": "uint16",
              "name": "major",
              "type": "uint16"
            },
            {
              "internalType": "uint16",
              "name": "minor",
              "type": "uint16"
            }
          ],
          "internalType": "struct Version",
          "name": "version",
          "type": "tuple"
        }
      ],
      "name": "hasExtension",
      "outputs": [
        {
          "internalType": "bool",
          "name": "",
          "type": "bool"
        }
      ],
      "stateMutability": "view",
      "type": "function"
    },
    {
      "inputs": [
        {
          "components": [
            {
              "internalType": "address",
              "name": "owner",
              "type": "address"
            },
            {
              "internalType": "address",
              "name": "termsOwner",
              "type": "address"
            },
            {
              "internalType": "address",
              "name": "registry",
              "type": "address"
            },
            {
              "internalType": "string",
              "name": "name",
              "type": "string"
            },
            {
              "components": [
                {
                  "internalType": "string",
                  "name": "x",
                  "type": "string"
                },
                {
                  "internalType": "string",
                  "name": "y",
                  "type": "string"
                },
                {
                  "internalType": "string",
                  "name": "z",
                  "type": "string"
                },
                {
                  "internalType": "uint256",
                  "name": "t",
                  "type": "uint256"
                },
                {
                  "internalType": "uint256",
                  "name": "p",
                  "type": "uint256"
                },
                {
                  "internalType": "uint256",
                  "name": "p_sub",
                  "type": "uint256"
                }
              ],
              "internalType": "struct VectorAddress",
              "name": "vector",
              "type": "tuple"
            },
            {
              "internalType": "bytes",
              "name": "initData",
              "type": "bytes"
            }
          ],
          "internalType": "struct CommonInitArgs",
          "name": "args",
          "type": "tuple"
        }
      ],
      "name": "init",
      "outputs": [],
      "stateMutability": "nonpayable",
      "type": "function"
    },
    {
      "inputs": [],
      "name": "name",
      "outputs": [
        {
          "internalType": "string",
          "name": "",
          "type": "string"
        }
      ],
      "stateMutability": "view",
      "type": "function"
    },
    {
      "inputs": [],
      "name": "vectorAddress",
      "outputs": [
        {
          "components": [
            {
              "internalType": "string",
              "name": "x",
              "type": "string"
            },
            {
              "internalType": "string",
              "name": "y",
              "type": "string"
            },
            {
              "internalType": "string",
              "name": "z",
              "type": "string"
            },
            {
              "internalType": "uint256",
              "name": "t",
              "type": "uint256"
            },
            {
              "internalType": "uint256",
              "name": "p",
              "type": "uint256"
            },
            {
              "internalType": "uint256",
              "name": "p_sub",
              "type": "uint256"
            }
          ],
          "internalType": "struct VectorAddress",
          "name": "",
          "type": "tuple"
        }
      ],
      "stateMutability": "view",
      "type": "function"
    },
    {
      "inputs": [],
      "name": "version",
      "outputs": [
        {
          "components": [
            {
              "internalType": "uint16",
              "name": "major",
              "type": "uint16"
            },
            {
              "internalType": "uint16",
              "name": "minor",
              "type": "uint16"
            }
          ],
          "internalType": "struct Version",
          "name": "",
          "type": "tuple"
        }
      ],
      "stateMutability": "pure",
      "type": "function"
    },
    {
      "inputs": [
        {
          "internalType": "uint256",
          "name": "amount",
          "type": "uint256"
        }
      ],
      "name": "withdraw",
      "outputs": [],
      "stateMutability": "nonpayable",
      "type": "function"
    },
    {
      "inputs": [],
      "name": "world",
      "outputs": [
        {
          "internalType": "address",
          "name": "",
          "type": "address"
        }
      ],
      "stateMutability": "view",
      "type": "function"
    },
    {
      "inputs": [],
      "name": "worldRegistry",
      "outputs": [
        {
          "internalType": "contract IWorldRegistry",
          "name": "",
          "type": "address"
        }
      ],
      "stateMutability": "view",
      "type": "function"
    },
    {
      "stateMutability": "payable",
      "type": "receive"
    }
  ],
  "bytecode": "0x60e06040523480156200001157600080fd5b506040516200190a3803806200190a8339810160408190526200003491620001df565b80516001600160a01b038116620000b85760405162461bcd60e51b815260206004820152603660248201527f456e746974795368656c6c3a20657874656e73696f6e207265736f6c7665722060448201527f63616e6e6f74206265207a65726f20616464726573730000000000000000000060648201526084015b60405180910390fd5b6001600160a01b03908116608052602082015116620001315760405162461bcd60e51b815260206004820152602e60248201527f436f6d70616e793a206f776e696e6752656769737472792063616e6e6f74206260448201526d65207a65726f206164647265737360901b6064820152608401620000af565b60408101516001600160a01b0316620001a35760405162461bcd60e51b815260206004820152602d60248201527f436f6d70616e793a20776f726c6452656769737472792063616e6e6f7420626560448201526c207a65726f206164647265737360981b6064820152608401620000af565b60200180516001600160a01b0390811660c05290511660a05262000260565b80516001600160a01b0381168114620001da57600080fd5b919050565b600060608284031215620001f257600080fd5b604051606081016001600160401b03811182821017156200022357634e487b7160e01b600052604160045260246000fd5b6040526200023183620001c2565b81526200024160208401620001c2565b60208201526200025460408401620001c2565b60408201529392505050565b60805160a05160c05161165e620002ac6000396000818161024701526109650152600061027b0152600081816102af015281816103090152818161043a01526108db015261165e6000f3fe6080604052600436106100a05760003560e01c806347d1d09a1161006457806347d1d09a146101ad57806354fd4d50146101dd57806369a10a1214610215578063911c2a8c14610235578063c51aba2b14610269578063dd2a44c11461029d576100a7565b806306fdde03146100cf578063238a0386146100fa5780632e1a7d4d1461013c5780632fcbab9a1461015e57806330b67baa14610180576100a7565b366100a757005b600080356001600160e01b031916905060006100c5826000366102d1565b9050805160208201f35b3480156100db57600080fd5b506100e461037e565b6040516100f19190610d24565b60405180910390f35b34801561010657600080fd5b5061011a610115366004610e25565b610419565b60408051825161ffff90811682526020938401511692810192909252016100f1565b34801561014857600080fd5b5061015c610157366004610e5a565b6104bd565b005b34801561016a57600080fd5b5061017361067a565b6040516100f19190610e73565b34801561018c57600080fd5b506101956108a2565b6040516001600160a01b0390911681526020016100f1565b3480156101b957600080fd5b506101cd6101c8366004610ef6565b6108c1565b60405190151581526020016100f1565b3480156101e957600080fd5b50604080518082018252600080825260209182018190528251808401909352600183529082015261011a565b34801561022157600080fd5b5061015c610230366004610f50565b61095a565b34801561024157600080fd5b506101957f000000000000000000000000000000000000000000000000000000000000000081565b34801561027557600080fd5b506101957f000000000000000000000000000000000000000000000000000000000000000081565b3480156102a957600080fd5b506101957f000000000000000000000000000000000000000000000000000000000000000081565b604051631162ec5760e01b815260609073__$307c3a572bdf5d9800a89b3fc2eb3d5604$__90631162ec5790610331908790879087907f000000000000000000000000000000000000000000000000000000000000000090600401610f8b565b600060405180830381865af415801561034e573d6000803e3d6000fd5b505050506040513d6000823e601f3d908101601f191682016040526103769190810190610fdd565b949350505050565b6060610388610c3e565b600201805461039690611054565b80601f01602080910402602001604051908101604052809291908181526020018280546103c290611054565b801561040f5780601f106103e45761010080835404028352916020019161040f565b820191906000526020600020905b8154815290600101906020018083116103f257829003601f168201915b5050505050905090565b6040805180820182526000808252602082015290516311c501c360e11b81527f00000000000000000000000000000000000000000000000000000000000000006001600160a01b03169063238a038690610477908590600401610d24565b6040805180830381865afa158015610493573d6000803e3d6000fd5b505050506040513d601f19601f820116820180604052508101906104b791906110a1565b92915050565b604051630935e01b60e21b815233600482015273__$a5a42e46683ad9c79b7b86d5ff60fdf4c1$__906324d7806c90602401602060405180830381865af415801561050c573d6000803e3d6000fd5b505050506040513d601f19601f820116820180604052508101906105309190611100565b6105815760405162461bcd60e51b815260206004820181905260248201527f42617369635368656c6c3a207265737472696374656420746f2061646d696e7360448201526064015b60405180910390fd5b478111156105d15760405162461bcd60e51b815260206004820181905260248201527f42617369635368656c6c3a20696e73756666696369656e742062616c616e63656044820152606401610578565b73__$a5a42e46683ad9c79b7b86d5ff60fdf4c1$__638da5cb5b6040518163ffffffff1660e01b8152600401602060405180830381865af415801561061a573d6000803e3d6000fd5b505050506040513d601f19601f8201168201806040525081019061063e9190611137565b6001600160a01b03166108fc829081150290604051600060405180830381858888f19350505050158015610676573d6000803e3d6000fd5b5050565b6106b36040518060c001604052806060815260200160608152602001606081526020016000815260200160008152602001600081525090565b6106bb610c3e565b6003016040518060c00160405290816000820180546106d990611054565b80601f016020809104026020016040519081016040528092919081815260200182805461070590611054565b80156107525780601f1061072757610100808354040283529160200191610752565b820191906000526020600020905b81548152906001019060200180831161073557829003601f168201915b5050505050815260200160018201805461076b90611054565b80601f016020809104026020016040519081016040528092919081815260200182805461079790611054565b80156107e45780601f106107b9576101008083540402835291602001916107e4565b820191906000526020600020905b8154815290600101906020018083116107c757829003601f168201915b505050505081526020016002820180546107fd90611054565b80601f016020809104026020016040519081016040528092919081815260200182805461082990611054565b80156108765780601f1061084b57610100808354040283529160200191610876565b820191906000526020600020905b81548152906001019060200180831161085957829003601f168201915b505050505081526020016003820154815260200160048201548152602001600582015481525050905090565b60006108ac610c3e565b546201000090046001600160a01b0316919050565b6040516323e8e84d60e11b81526000906001600160a01b037f000000000000000000000000000000000000000000000000000000000000000016906347d1d09a906109129086908690600401611154565b602060405180830381865afa15801561092f573d6000803e3d6000fd5b505050506040513d601f19601f820116820180604052508101906109539190611100565b9392505050565b336001600160a01b037f000000000000000000000000000000000000000000000000000000000000000016146109d25760405162461bcd60e51b815260206004820152601c60248201527f436f6d70616e793a206f6e6c7920776f726c64207265676973747279000000006044820152606401610578565b60006109e460408301602084016111a0565b6001600160a01b031603610a4b5760405162461bcd60e51b815260206004820152602860248201527f436f6d70616e793a207465726d73206f776e657220697320746865207a65726f604482015267206164647265737360c01b6064820152608401610578565b6000610a5a60608301836111bd565b905011610aa95760405162461bcd60e51b815260206004820152601d60248201527f436f6d70616e793a206e616d652063616e6e6f7420626520656d7074790000006044820152606401610578565b60408051600080825260208201909252905073__$a5a42e46683ad9c79b7b86d5ff60fdf4c1$__63d9ac971f610ae260208501856111a0565b836040518363ffffffff1660e01b8152600401610b0092919061120b565b60006040518083038186803b158015610b1857600080fd5b505af4158015610b2c573d6000803e3d6000fd5b50610b3e925050506080830183611267565b610b4790611287565b6040516361d9624d60e01b815273__$ad2b23306edd42b5f4873830e307b82d47$__916361d9624d91610b83919060019060009060040161133a565b60006040518083038186803b158015610b9b57600080fd5b505af4158015610baf573d6000803e3d6000fd5b505050506000610bbd610c3e565b805460ff191660011781559050610bd760608401846111bd565b6002830191610be7919083611422565b50610bf56080840184611267565b60038201610c0382826114e3565b50610c16905060408401602085016111a0565b81546001600160a01b0391909116620100000262010000600160b01b03199091161790555050565b60408051808201909152601881527f78722e61637469766174696f6e2e73746f726167652e7631000000000000000060209091015260008060ff610ca360017ff6611e962a52dbc98dd0485088d920890c43e26113c61976f6e171a29d49ce49611607565b604051602001610cb591815260200190565b60408051601f1981840301815291905280516020909101201692915050565b60005b83811015610cef578181015183820152602001610cd7565b50506000910152565b60008151808452610d10816020860160208601610cd4565b601f01601f19169290920160200192915050565b6020815260006109536020830184610cf8565b634e487b7160e01b600052604160045260246000fd5b60405160c0810167ffffffffffffffff81118282101715610d7057610d70610d37565b60405290565b604051601f8201601f1916810167ffffffffffffffff81118282101715610d9f57610d9f610d37565b604052919050565b600067ffffffffffffffff821115610dc157610dc1610d37565b50601f01601f191660200190565b600082601f830112610de057600080fd5b8135610df3610dee82610da7565b610d76565b818152846020838601011115610e0857600080fd5b816020850160208301376000918101602001919091529392505050565b600060208284031215610e3757600080fd5b813567ffffffffffffffff811115610e4e57600080fd5b61037684828501610dcf565b600060208284031215610e6c57600080fd5b5035919050565b602081526000825160c06020840152610e8f60e0840182610cf8565b90506020840151601f1980858403016040860152610ead8383610cf8565b9250604086015191508085840301606086015250610ecb8282610cf8565b91505060608401516080840152608084015160a084015260a084015160c08401528091505092915050565b6000808284036060811215610f0a57600080fd5b833567ffffffffffffffff811115610f2157600080fd5b610f2d86828701610dcf565b9350506040601f1982011215610f4257600080fd5b506020830190509250929050565b600060208284031215610f6257600080fd5b813567ffffffffffffffff811115610f7957600080fd5b820160c0818503121561095357600080fd5b63ffffffff60e01b85168152606060208201528260608201528284608083013760008184016080908101919091526001600160a01b03929092166040820152601f909201601f19169091010192915050565b600060208284031215610fef57600080fd5b815167ffffffffffffffff81111561100657600080fd5b8201601f8101841361101757600080fd5b8051611025610dee82610da7565b81815285602083850101111561103a57600080fd5b61104b826020830160208601610cd4565b95945050505050565b600181811c9082168061106857607f821691505b60208210810361108857634e487b7160e01b600052602260045260246000fd5b50919050565b61ffff8116811461109e57600080fd5b50565b6000604082840312156110b357600080fd5b6040516040810181811067ffffffffffffffff821117156110d6576110d6610d37565b60405282516110e48161108e565b815260208301516110f48161108e565b60208201529392505050565b60006020828403121561111257600080fd5b8151801515811461095357600080fd5b6001600160a01b038116811461109e57600080fd5b60006020828403121561114957600080fd5b815161095381611122565b6060815260006111676060830185610cf8565b905082356111748161108e565b61ffff80821660208501526020850135915061118f8261108e565b808216604085015250509392505050565b6000602082840312156111b257600080fd5b813561095381611122565b6000808335601e198436030181126111d457600080fd5b83018035915067ffffffffffffffff8211156111ef57600080fd5b60200191503681900382131561120457600080fd5b9250929050565b6001600160a01b038381168252604060208084018290528451918401829052600092858201929091906060860190855b8181101561125957855185168352948301949183019160010161123b565b509098975050505050505050565b6000823560be1983360301811261127d57600080fd5b9190910192915050565b600060c0823603121561129957600080fd5b6112a1610d4d565b823567ffffffffffffffff808211156112b957600080fd5b6112c536838701610dcf565b835260208501359150808211156112db57600080fd5b6112e736838701610dcf565b6020840152604085013591508082111561130057600080fd5b5061130d36828601610dcf565b604083015250606083013560608201526080830135608082015260a083013560a082015280915050919050565b606081526000845160c06060840152611357610120840182610cf8565b90506020860151605f19808584030160808601526113758383610cf8565b925060408801519150808584030160a0860152506113938282610cf8565b606088015160c0860152608088015160e086015260a0880151610100860152861515602086015292506113c4915050565b8215156040830152610376565b601f82111561141d576000816000526020600020601f850160051c810160208610156113fa5750805b601f850160051c820191505b8181101561141957828155600101611406565b5050505b505050565b67ffffffffffffffff83111561143a5761143a610d37565b61144e836114488354611054565b836113d1565b6000601f841160018114611482576000851561146a5750838201355b600019600387901b1c1916600186901b1783556114dc565b600083815260209020601f19861690835b828110156114b35786850135825560209485019460019092019101611493565b50868210156114d05760001960f88860031b161c19848701351681555b505060018560011b0183555b5050505050565b6114ed82836111bd565b67ffffffffffffffff81111561150557611505610d37565b611519816115138554611054565b856113d1565b6000601f82116001811461154d57600083156115355750838201355b600019600385901b1c1916600184901b1785556115a7565b600085815260209020601f19841690835b8281101561157e578685013582556020948501946001909201910161155e565b508482101561159b5760001960f88660031b161c19848701351681555b505060018360011b0185555b505050506115b860208301836111bd565b6115c6818360018601611422565b50506115d560408301836111bd565b6115e3818360028601611422565b5050606082013560038201556080820135600482015560a082013560058201555050565b818103818111156104b757634e487b7160e01b600052601160045260246000fdfea2646970667358221220b1ec10ea2e0321791fee221d1db18490f701377aa68a38165b5ee5dcbfba68c464736f6c63430008180033",
  "linkReferences": {
    "contracts/libraries/LibAccess.sol": {
      "LibAccess": [
        {
          "length": 20,
          "start": 1918
        },
        {
          "length": 20,
          "start": 2175
        },
        {
          "length": 20,
          "start": 3433
        }
      ]
    },
    "contracts/libraries/LibExtensions.sol": {
      "LibExtensions": [
        {
          "length": 20,
          "start": 1423
        }
      ]
    },
    "contracts/libraries/LibVectorAddress.sol": {
      "LibVectorAddress": [
        {
          "length": 20,
          "start": 3586
        }
      ]
    }
  },
  "deployedLinkReferences": {
    "contracts/libraries/LibAccess.sol": {
      "LibAccess": [
        {
          "length": 20,
          "start": 1234
        },
        {
          "length": 20,
          "start": 1491
        },
        {
          "length": 20,
          "start": 2749
        }
      ]
    },
    "contracts/libraries/LibExtensions.sol": {
      "LibExtensions": [
        {
          "length": 20,
          "start": 739
        }
      ]
    },
    "contracts/libraries/LibVectorAddress.sol": {
      "LibVectorAddress": [
        {
          "length": 20,
          "start": 2902
        }
      ]
    }
  }
}