{
  "_format": "hh-sol-artifact-1",
  "contractName": "Company",
  "sourceName": "contracts/company/instance/Company.sol",
  "abi": [
    {
      "inputs": [
        {
          "components": [
            {
              "internalType": "address",
              "name": "companyRegistry",
              "type": "address"
            },
            {
              "internalType": "address",
              "name": "experienceRegistry",
              "type": "address"
            },
            {
              "internalType": "address",
              "name": "erc20Registry",
              "type": "address"
            },
            {
              "internalType": "address",
              "name": "erc721Registry",
              "type": "address"
            },
            {
              "internalType": "address",
              "name": "avatarRegistry",
              "type": "address"
            }
          ],
          "internalType": "struct CompanyConstructorArgs",
          "name": "args",
          "type": "tuple"
        }
      ],
      "stateMutability": "nonpayable",
      "type": "constructor"
    },
    {
      "anonymous": false,
      "inputs": [
        {
          "indexed": true,
          "internalType": "address",
          "name": "asset",
          "type": "address"
        },
        {
          "indexed": true,
          "internalType": "address",
          "name": "to",
          "type": "address"
        },
        {
          "indexed": true,
          "internalType": "uint256",
          "name": "amountOrTokenId",
          "type": "uint256"
        }
      ],
      "name": "AssetMinted",
      "type": "event"
    },
    {
      "anonymous": false,
      "inputs": [
        {
          "indexed": true,
          "internalType": "address",
          "name": "asset",
          "type": "address"
        },
        {
          "indexed": true,
          "internalType": "address",
          "name": "holder",
          "type": "address"
        },
        {
          "indexed": true,
          "internalType": "uint256",
          "name": "amountOrTokenId",
          "type": "uint256"
        }
      ],
      "name": "AssetRevoked",
      "type": "event"
    },
    {
      "anonymous": false,
      "inputs": [
        {
          "indexed": true,
          "internalType": "address",
          "name": "asset",
          "type": "address"
        },
        {
          "indexed": true,
          "internalType": "address",
          "name": "condition",
          "type": "address"
        }
      ],
      "name": "CompanyAddedAssetCondition",
      "type": "event"
    },
    {
      "anonymous": false,
      "inputs": [
        {
          "indexed": true,
          "internalType": "address",
          "name": "asset",
          "type": "address"
        },
        {
          "indexed": true,
          "internalType": "address",
          "name": "hook",
          "type": "address"
        }
      ],
      "name": "CompanyAddedAssetHook",
      "type": "event"
    },
    {
      "anonymous": false,
      "inputs": [
        {
          "indexed": true,
          "internalType": "address",
          "name": "experience",
          "type": "address"
        },
        {
          "indexed": true,
          "internalType": "uint256",
          "name": "portalId",
          "type": "uint256"
        }
      ],
      "name": "CompanyAddedExperience",
      "type": "event"
    },
    {
      "anonymous": false,
      "inputs": [
        {
          "indexed": true,
          "internalType": "address",
          "name": "experience",
          "type": "address"
        },
        {
          "indexed": true,
          "internalType": "address",
          "name": "condition",
          "type": "address"
        }
      ],
      "name": "CompanyAddedExperienceCondition",
      "type": "event"
    },
    {
      "anonymous": false,
      "inputs": [
        {
          "indexed": true,
          "internalType": "address",
          "name": "experience",
          "type": "address"
        },
        {
          "indexed": true,
          "internalType": "address",
          "name": "hook",
          "type": "address"
        }
      ],
      "name": "CompanyAddedExperienceHook",
      "type": "event"
    },
    {
      "anonymous": false,
      "inputs": [
        {
          "indexed": true,
          "internalType": "address",
          "name": "experience",
          "type": "address"
        },
        {
          "indexed": true,
          "internalType": "uint256",
          "name": "fee",
          "type": "uint256"
        }
      ],
      "name": "CompanyChangedExperiencePortalFee",
      "type": "event"
    },
    {
      "anonymous": false,
      "inputs": [],
      "name": "CompanyDeactivated",
      "type": "event"
    },
    {
      "anonymous": false,
      "inputs": [
        {
          "indexed": true,
          "internalType": "address",
          "name": "experience",
          "type": "address"
        },
        {
          "indexed": false,
          "internalType": "string",
          "name": "reason",
          "type": "string"
        }
      ],
      "name": "CompanyDeactivatedExperience",
      "type": "event"
    },
    {
      "anonymous": false,
      "inputs": [],
      "name": "CompanyHookRemoved",
      "type": "event"
    },
    {
      "anonymous": false,
      "inputs": [
        {
          "indexed": true,
          "internalType": "address",
          "name": "hook",
          "type": "address"
        }
      ],
      "name": "CompanyHookSet",
      "type": "event"
    },
    {
      "anonymous": false,
      "inputs": [
        {
          "indexed": true,
          "internalType": "address",
          "name": "avatar",
          "type": "address"
        },
        {
          "indexed": true,
          "internalType": "uint256",
          "name": "portalId",
          "type": "uint256"
        },
        {
          "indexed": true,
          "internalType": "uint256",
          "name": "fee",
          "type": "uint256"
        }
      ],
      "name": "CompanyJumpedForAvatar",
      "type": "event"
    },
    {
      "anonymous": false,
      "inputs": [],
      "name": "CompanyReactivated",
      "type": "event"
    },
    {
      "anonymous": false,
      "inputs": [
        {
          "indexed": true,
          "internalType": "address",
          "name": "experience",
          "type": "address"
        }
      ],
      "name": "CompanyReactivatedExperience",
      "type": "event"
    },
    {
      "anonymous": false,
      "inputs": [
        {
          "indexed": true,
          "internalType": "address",
          "name": "asset",
          "type": "address"
        }
      ],
      "name": "CompanyRemovedAssetCondition",
      "type": "event"
    },
    {
      "anonymous": false,
      "inputs": [
        {
          "indexed": true,
          "internalType": "address",
          "name": "asset",
          "type": "address"
        }
      ],
      "name": "CompanyRemovedAssetHook",
      "type": "event"
    },
    {
      "anonymous": false,
      "inputs": [
        {
          "indexed": true,
          "internalType": "address",
          "name": "experience",
          "type": "address"
        },
        {
          "indexed": false,
          "internalType": "string",
          "name": "reason",
          "type": "string"
        },
        {
          "indexed": true,
          "internalType": "uint256",
          "name": "portalId",
          "type": "uint256"
        }
      ],
      "name": "CompanyRemovedExperience",
      "type": "event"
    },
    {
      "anonymous": false,
      "inputs": [
        {
          "indexed": true,
          "internalType": "address",
          "name": "experience",
          "type": "address"
        }
      ],
      "name": "CompanyRemovedExperienceCondition",
      "type": "event"
    },
    {
      "anonymous": false,
      "inputs": [
        {
          "indexed": true,
          "internalType": "address",
          "name": "experience",
          "type": "address"
        }
      ],
      "name": "CompanyRemovedExperienceHook",
      "type": "event"
    },
    {
      "anonymous": false,
      "inputs": [
        {
          "indexed": true,
          "internalType": "address",
          "name": "oldVersion",
          "type": "address"
        },
        {
          "indexed": true,
          "internalType": "address",
          "name": "nextVersion",
          "type": "address"
        }
      ],
      "name": "CompanyUpgraded",
      "type": "event"
    },
    {
      "anonymous": false,
      "inputs": [
        {
          "indexed": true,
          "internalType": "address",
          "name": "asset",
          "type": "address"
        },
        {
          "indexed": true,
          "internalType": "address",
          "name": "nextVersion",
          "type": "address"
        }
      ],
      "name": "CompanyUpgradedAsset",
      "type": "event"
    },
    {
      "anonymous": false,
      "inputs": [
        {
          "indexed": true,
          "internalType": "address",
          "name": "experience",
          "type": "address"
        },
        {
          "indexed": true,
          "internalType": "address",
          "name": "nextVersion",
          "type": "address"
        }
      ],
      "name": "CompanyUpgradedExperience",
      "type": "event"
    },
    {
      "anonymous": false,
      "inputs": [
        {
          "indexed": true,
          "internalType": "address",
          "name": "by",
          "type": "address"
        },
        {
          "indexed": false,
          "internalType": "string",
          "name": "reason",
          "type": "string"
        }
      ],
      "name": "EntityDeactivated",
      "type": "event"
    },
    {
      "anonymous": false,
      "inputs": [
        {
          "indexed": true,
          "internalType": "address",
          "name": "by",
          "type": "address"
        }
      ],
      "name": "EntityReactivated",
      "type": "event"
    },
    {
      "anonymous": false,
      "inputs": [
        {
          "indexed": true,
          "internalType": "address",
          "name": "by",
          "type": "address"
        },
        {
          "indexed": false,
          "internalType": "string",
          "name": "reason",
          "type": "string"
        }
      ],
      "name": "EntityRemoved",
      "type": "event"
    },
    {
      "inputs": [
        {
          "internalType": "address",
          "name": "asset",
          "type": "address"
        },
        {
          "internalType": "address",
          "name": "condition",
          "type": "address"
        }
      ],
      "name": "addAssetCondition",
      "outputs": [],
      "stateMutability": "nonpayable",
      "type": "function"
    },
    {
      "inputs": [
        {
          "components": [
            {
              "internalType": "string",
              "name": "name",
              "type": "string"
            },
            {
              "internalType": "bytes",
              "name": "initData",
              "type": "bytes"
            }
          ],
          "internalType": "struct AddExperienceArgs",
          "name": "args",
          "type": "tuple"
        }
      ],
      "name": "addExperience",
      "outputs": [
        {
          "internalType": "address",
          "name": "experience",
          "type": "address"
        },
        {
          "internalType": "uint256",
          "name": "portalId",
          "type": "uint256"
        }
      ],
      "stateMutability": "nonpayable",
      "type": "function"
    },
    {
      "inputs": [
        {
          "internalType": "address",
          "name": "experience",
          "type": "address"
        },
        {
          "internalType": "address",
          "name": "condition",
          "type": "address"
        }
      ],
      "name": "addExperienceCondition",
      "outputs": [],
      "stateMutability": "nonpayable",
      "type": "function"
    },
    {
      "inputs": [
        {
          "internalType": "address[]",
          "name": "signers",
          "type": "address[]"
        }
      ],
      "name": "addSigners",
      "outputs": [],
      "stateMutability": "nonpayable",
      "type": "function"
    },
    {
      "inputs": [],
      "name": "avatarRegistry",
      "outputs": [
        {
          "internalType": "contract IAvatarRegistry",
          "name": "",
          "type": "address"
        }
      ],
      "stateMutability": "view",
      "type": "function"
    },
    {
      "inputs": [
        {
          "internalType": "address",
          "name": "asset",
          "type": "address"
        },
        {
          "internalType": "address",
          "name": "to",
          "type": "address"
        },
        {
          "internalType": "bytes",
          "name": "extra",
          "type": "bytes"
        }
      ],
      "name": "canMintERC20",
      "outputs": [
        {
          "internalType": "bool",
          "name": "",
          "type": "bool"
        }
      ],
      "stateMutability": "view",
      "type": "function"
    },
    {
      "inputs": [
        {
          "internalType": "address",
          "name": "asset",
          "type": "address"
        },
        {
          "internalType": "address",
          "name": "to",
          "type": "address"
        },
        {
          "internalType": "bytes",
          "name": "extra",
          "type": "bytes"
        }
      ],
      "name": "canMintERC721",
      "outputs": [
        {
          "internalType": "bool",
          "name": "",
          "type": "bool"
        }
      ],
      "stateMutability": "view",
      "type": "function"
    },
    {
      "inputs": [
        {
          "internalType": "address",
          "name": "experience",
          "type": "address"
        },
        {
          "internalType": "uint256",
          "name": "fee",
          "type": "uint256"
        }
      ],
      "name": "changeExperiencePortalFee",
      "outputs": [],
      "stateMutability": "nonpayable",
      "type": "function"
    },
    {
      "inputs": [
        {
          "internalType": "address",
          "name": "newOwner",
          "type": "address"
        }
      ],
      "name": "changeOwner",
      "outputs": [],
      "stateMutability": "nonpayable",
      "type": "function"
    },
    {
      "inputs": [],
      "name": "companyRegistry",
      "outputs": [
        {
          "internalType": "address",
          "name": "",
          "type": "address"
        }
      ],
      "stateMutability": "view",
      "type": "function"
    },
    {
      "inputs": [
        {
          "internalType": "string",
          "name": "reason",
          "type": "string"
        }
      ],
      "name": "deactivate",
      "outputs": [],
      "stateMutability": "nonpayable",
      "type": "function"
    },
    {
      "inputs": [
        {
          "internalType": "address",
          "name": "experience",
          "type": "address"
        },
        {
          "internalType": "string",
          "name": "reason",
          "type": "string"
        }
      ],
      "name": "deactivateExperience",
      "outputs": [],
      "stateMutability": "nonpayable",
      "type": "function"
    },
    {
      "inputs": [
        {
          "components": [
            {
              "internalType": "address",
              "name": "avatar",
              "type": "address"
            },
            {
              "internalType": "uint256",
              "name": "portalId",
              "type": "uint256"
            },
            {
              "internalType": "uint256",
              "name": "agreedFee",
              "type": "uint256"
            },
            {
              "internalType": "bytes",
              "name": "avatarOwnerSignature",
              "type": "bytes"
            }
          ],
          "internalType": "struct DelegatedAvatarJumpRequest",
          "name": "request",
          "type": "tuple"
        }
      ],
      "name": "delegateJumpForAvatar",
      "outputs": [],
      "stateMutability": "nonpayable",
      "type": "function"
    },
    {
      "inputs": [],
      "name": "erc20Registry",
      "outputs": [
        {
          "internalType": "contract IAssetRegistry",
          "name": "",
          "type": "address"
        }
      ],
      "stateMutability": "view",
      "type": "function"
    },
    {
      "inputs": [],
      "name": "erc721Registry",
      "outputs": [
        {
          "internalType": "contract IAssetRegistry",
          "name": "",
          "type": "address"
        }
      ],
      "stateMutability": "view",
      "type": "function"
    },
    {
      "inputs": [],
      "name": "experienceRegistry",
      "outputs": [
        {
          "internalType": "contract IExperienceRegistry",
          "name": "",
          "type": "address"
        }
      ],
      "stateMutability": "view",
      "type": "function"
    },
    {
      "inputs": [
        {
          "internalType": "bytes32",
          "name": "role",
          "type": "bytes32"
        },
        {
          "internalType": "address",
          "name": "account",
          "type": "address"
        }
      ],
      "name": "grantRole",
      "outputs": [],
      "stateMutability": "nonpayable",
      "type": "function"
    },
    {
      "inputs": [
        {
          "internalType": "bytes32",
          "name": "role",
          "type": "bytes32"
        },
        {
          "internalType": "address",
          "name": "account",
          "type": "address"
        }
      ],
      "name": "hasRole",
      "outputs": [
        {
          "internalType": "bool",
          "name": "",
          "type": "bool"
        }
      ],
      "stateMutability": "view",
      "type": "function"
    },
    {
      "inputs": [
        {
          "internalType": "string",
          "name": "name",
          "type": "string"
        },
        {
          "internalType": "address",
          "name": "_owner",
          "type": "address"
        },
        {
          "internalType": "address",
          "name": "_world",
          "type": "address"
        },
        {
          "components": [
            {
              "internalType": "string",
              "name": "x",
              "type": "string"
            },
            {
              "internalType": "string",
              "name": "y",
              "type": "string"
            },
            {
              "internalType": "string",
              "name": "z",
              "type": "string"
            },
            {
              "internalType": "uint256",
              "name": "t",
              "type": "uint256"
            },
            {
              "internalType": "uint256",
              "name": "p",
              "type": "uint256"
            },
            {
              "internalType": "uint256",
              "name": "p_sub",
              "type": "uint256"
            }
          ],
          "internalType": "struct VectorAddress",
          "name": "vector",
          "type": "tuple"
        },
        {
          "internalType": "bytes",
          "name": "",
          "type": "bytes"
        }
      ],
      "name": "init",
      "outputs": [],
      "stateMutability": "nonpayable",
      "type": "function"
    },
    {
      "inputs": [
        {
          "internalType": "address",
          "name": "account",
          "type": "address"
        }
      ],
      "name": "isAdmin",
      "outputs": [
        {
          "internalType": "bool",
          "name": "",
          "type": "bool"
        }
      ],
      "stateMutability": "view",
      "type": "function"
    },
    {
      "inputs": [],
      "name": "isEntityActive",
      "outputs": [
        {
          "internalType": "bool",
          "name": "",
          "type": "bool"
        }
      ],
      "stateMutability": "view",
      "type": "function"
    },
    {
      "inputs": [],
      "name": "isRemoved",
      "outputs": [
        {
          "internalType": "bool",
          "name": "",
          "type": "bool"
        }
      ],
      "stateMutability": "view",
      "type": "function"
    },
    {
      "inputs": [
        {
          "internalType": "address",
          "name": "account",
          "type": "address"
        }
      ],
      "name": "isSigner",
      "outputs": [
        {
          "internalType": "bool",
          "name": "",
          "type": "bool"
        }
      ],
      "stateMutability": "view",
      "type": "function"
    },
    {
      "inputs": [
        {
          "internalType": "address",
          "name": "asset",
          "type": "address"
        },
        {
          "internalType": "address",
          "name": "to",
          "type": "address"
        },
        {
          "internalType": "bytes",
          "name": "data",
          "type": "bytes"
        }
      ],
      "name": "mintERC20",
      "outputs": [],
      "stateMutability": "nonpayable",
      "type": "function"
    },
    {
      "inputs": [
        {
          "internalType": "address",
          "name": "asset",
          "type": "address"
        },
        {
          "internalType": "address",
          "name": "to",
          "type": "address"
        },
        {
          "internalType": "bytes",
          "name": "data",
          "type": "bytes"
        }
      ],
      "name": "mintERC721",
      "outputs": [],
      "stateMutability": "nonpayable",
      "type": "function"
    },
    {
      "inputs": [],
      "name": "name",
      "outputs": [
        {
          "internalType": "string",
          "name": "",
          "type": "string"
        }
      ],
      "stateMutability": "view",
      "type": "function"
    },
    {
      "inputs": [],
      "name": "owner",
      "outputs": [
        {
          "internalType": "address",
          "name": "",
          "type": "address"
        }
      ],
      "stateMutability": "view",
      "type": "function"
    },
    {
      "inputs": [],
      "name": "reactivate",
      "outputs": [],
      "stateMutability": "nonpayable",
      "type": "function"
    },
    {
      "inputs": [
        {
          "internalType": "address",
          "name": "experience",
          "type": "address"
        }
      ],
      "name": "reactivateExperience",
      "outputs": [],
      "stateMutability": "nonpayable",
      "type": "function"
    },
    {
      "inputs": [
        {
          "internalType": "string",
          "name": "reason",
          "type": "string"
        }
      ],
      "name": "remove",
      "outputs": [],
      "stateMutability": "nonpayable",
      "type": "function"
    },
    {
      "inputs": [
        {
          "internalType": "address",
          "name": "asset",
          "type": "address"
        }
      ],
      "name": "removeAssetCondition",
      "outputs": [],
      "stateMutability": "nonpayable",
      "type": "function"
    },
    {
      "inputs": [
        {
          "internalType": "address",
          "name": "experience",
          "type": "address"
        },
        {
          "internalType": "string",
          "name": "reason",
          "type": "string"
        }
      ],
      "name": "removeExperience",
      "outputs": [],
      "stateMutability": "nonpayable",
      "type": "function"
    },
    {
      "inputs": [
        {
          "internalType": "address",
          "name": "experience",
          "type": "address"
        }
      ],
      "name": "removeExperienceCondition",
      "outputs": [],
      "stateMutability": "nonpayable",
      "type": "function"
    },
    {
      "inputs": [
        {
          "internalType": "address[]",
          "name": "signers",
          "type": "address[]"
        }
      ],
      "name": "removeSigners",
      "outputs": [],
      "stateMutability": "nonpayable",
      "type": "function"
    },
    {
      "inputs": [
        {
          "internalType": "address",
          "name": "asset",
          "type": "address"
        },
        {
          "internalType": "address",
          "name": "holder",
          "type": "address"
        },
        {
          "internalType": "bytes",
          "name": "data",
          "type": "bytes"
        }
      ],
      "name": "revokeERC20",
      "outputs": [],
      "stateMutability": "nonpayable",
      "type": "function"
    },
    {
      "inputs": [
        {
          "internalType": "address",
          "name": "asset",
          "type": "address"
        },
        {
          "internalType": "address",
          "name": "holder",
          "type": "address"
        },
        {
          "internalType": "bytes",
          "name": "data",
          "type": "bytes"
        }
      ],
      "name": "revokeERC721",
      "outputs": [],
      "stateMutability": "nonpayable",
      "type": "function"
    },
    {
      "inputs": [
        {
          "internalType": "bytes32",
          "name": "role",
          "type": "bytes32"
        },
        {
          "internalType": "address",
          "name": "account",
          "type": "address"
        }
      ],
      "name": "revokeRole",
      "outputs": [],
      "stateMutability": "nonpayable",
      "type": "function"
    },
    {
      "inputs": [],
      "name": "termsOwner",
      "outputs": [
        {
          "internalType": "address",
          "name": "",
          "type": "address"
        }
      ],
      "stateMutability": "view",
      "type": "function"
    },
    {
      "inputs": [],
      "name": "vectorAddress",
      "outputs": [
        {
          "components": [
            {
              "internalType": "string",
              "name": "x",
              "type": "string"
            },
            {
              "internalType": "string",
              "name": "y",
              "type": "string"
            },
            {
              "internalType": "string",
              "name": "z",
              "type": "string"
            },
            {
              "internalType": "uint256",
              "name": "t",
              "type": "uint256"
            },
            {
              "internalType": "uint256",
              "name": "p",
              "type": "uint256"
            },
            {
              "internalType": "uint256",
              "name": "p_sub",
              "type": "uint256"
            }
          ],
          "internalType": "struct VectorAddress",
          "name": "",
          "type": "tuple"
        }
      ],
      "stateMutability": "view",
      "type": "function"
    },
    {
      "inputs": [],
      "name": "version",
      "outputs": [
        {
          "components": [
            {
              "internalType": "uint16",
              "name": "major",
              "type": "uint16"
            },
            {
              "internalType": "uint16",
              "name": "minor",
              "type": "uint16"
            }
          ],
          "internalType": "struct Version",
          "name": "",
          "type": "tuple"
        }
      ],
      "stateMutability": "pure",
      "type": "function"
    },
    {
      "inputs": [
        {
          "internalType": "uint256",
          "name": "amount",
          "type": "uint256"
        }
      ],
      "name": "withdraw",
      "outputs": [],
      "stateMutability": "nonpayable",
      "type": "function"
    },
    {
      "inputs": [],
      "name": "world",
      "outputs": [
        {
          "internalType": "address",
          "name": "",
          "type": "address"
        }
      ],
      "stateMutability": "view",
      "type": "function"
    },
    {
      "stateMutability": "payable",
      "type": "receive"
    }
  ],
  "bytecode": "0x6101206040523480156200001257600080fd5b5060405162003cf238038062003cf2833981016040819052620000359162000274565b80516001600160a01b03166200009c5760405162461bcd60e51b815260206004820152602160248201527f436f6d70616e793a20496e76616c696420636f6d70616e7920726567697374726044820152607960f81b60648201526084015b60405180910390fd5b60208101516001600160a01b0316620001045760405162461bcd60e51b8152602060048201526024808201527f436f6d70616e793a20496e76616c696420657870657269656e636520726567696044820152637374727960e01b606482015260840162000093565b60408101516001600160a01b0316620001605760405162461bcd60e51b815260206004820152601f60248201527f436f6d70616e793a20496e76616c696420657263323020726567697374727900604482015260640162000093565b60608101516001600160a01b0316620001bc5760405162461bcd60e51b815260206004820181905260248201527f436f6d70616e793a20496e76616c696420657263373231207265676973747279604482015260640162000093565b60808101516001600160a01b0316620002185760405162461bcd60e51b815260206004820181905260248201527f436f6d70616e793a20496e76616c696420617661746172207265676973747279604482015260640162000093565b80516001600160a01b0390811660809081526020830151821660a0526040830151821660c0526060830151821660e0529091015116610100526200031b565b80516001600160a01b03811681146200026f57600080fd5b919050565b600060a082840312156200028757600080fd5b60405160a081016001600160401b0381118282101715620002b857634e487b7160e01b600052604160045260246000fd5b604052620002c68362000257565b8152620002d66020840162000257565b6020820152620002e96040840162000257565b6040820152620002fc6060840162000257565b60608201526200030f6080840162000257565b60808201529392505050565b60805160a05160c05160e051610100516139536200039f600039600081816107cf015261280501526000818161074601528181611ce70152611d3e0152600081816102e001528181610bac01526116a20152600061065e015260008181610712015281816109cb01528181610ef70152818161194201526120e701526139536000f3fe6080604052600436106102555760003560e01c80637e6e1551116101395780639aa405a2116100b6578063d18611d61161007a578063d18611d614610768578063d547741f1461077d578063d802a9a21461079d578063e3d7ad73146107bd578063e8906a2d146107f1578063fcc111841461081157600080fd5b80639aa405a2146106a05780639e29186d146106c0578063a6f9dae1146106e0578063c51aba2b14610700578063ca6d44291461073457600080fd5b80638da5cb5b116100fd5780638da5cb5b146105f75780638e718bf71461060c5780638e879f041461062c5780638f09a6be1461064c57806391d148541461068057600080fd5b80637e6e15511461056d57806380599e4b1461058257806386b70bed146105a25780638a4142c5146105b75780638d361e43146105d757600080fd5b80632e1a7d4d116101d25780635076d6e2116101965780635076d6e2146104a057806354fd4d50146104c057806357433ea61461050d5780636330347a1461052d57806369bd91941461046b5780637df73e271461054d57600080fd5b80632e1a7d4d146104095780632f2ff15d146104295780632fcbab9a1461044957806330b67baa1461046b578063464570b61461048057600080fd5b806316c49b111161021957806316c49b111461034a578063243546a61461036a57806324d7806c146103a957806327ee999d146103c957806329f2691d146103e957600080fd5b80630346f5f51461026157806306fdde0314610283578063108790d1146102ae57806312d3e5e1146102ce57806314569d601461031a57600080fd5b3661025c57005b600080fd5b34801561026d57600080fd5b5061028161027c366004612d1e565b610831565b005b34801561028f57600080fd5b50610298610928565b6040516102a59190612d90565b60405180910390f35b3480156102ba57600080fd5b506102816102c9366004612deb565b6109c0565b3480156102da57600080fd5b506103027f000000000000000000000000000000000000000000000000000000000000000081565b6040516001600160a01b0390911681526020016102a5565b34801561032657600080fd5b5061033a610335366004612eb0565b610b7d565b60405190151581526020016102a5565b34801561035657600080fd5b50610281610365366004612f14565b610bdd565b34801561037657600080fd5b5061038a610385366004613021565b610d29565b604080516001600160a01b0390931683526020830191909152016102a5565b3480156103b557600080fd5b5061033a6103c43660046130c8565b610e66565b3480156103d557600080fd5b506102816103e43660046130e5565b610eec565b3480156103f557600080fd5b506102816104043660046130c8565b610f8a565b34801561041557600080fd5b50610281610424366004613121565b61106f565b34801561043557600080fd5b5061028161044436600461313a565b611235565b34801561045557600080fd5b5061045e611333565b6040516102a591906131dd565b34801561047757600080fd5b5061030261155b565b34801561048c57600080fd5b5061028161049b3660046131f0565b61157a565b3480156104ac57600080fd5b506102816104bb366004612eb0565b611650565b3480156104cc57600080fd5b50604080518082018252600080825260209182018190528251808401845260018082529083019182528351908152905161ffff1691810191909152016102a5565b34801561051957600080fd5b50610281610528366004613244565b6116d0565b34801561053957600080fd5b50610281610548366004613244565b61181f565b34801561055957600080fd5b5061033a6105683660046130c8565b6118dc565b34801561057957600080fd5b5061033a61191f565b34801561058e57600080fd5b5061028161059d3660046130e5565b611937565b3480156105ae57600080fd5b5061033a611a39565b3480156105c357600080fd5b506102816105d2366004612eb0565b611a4c565b3480156105e357600080fd5b506102816105f2366004613272565b611b59565b34801561060357600080fd5b50610302611c21565b34801561061857600080fd5b50610281610627366004612eb0565b611c95565b34801561063857600080fd5b5061033a610647366004612eb0565b611d0f565b34801561065857600080fd5b506103027f000000000000000000000000000000000000000000000000000000000000000081565b34801561068c57600080fd5b5061033a61069b36600461313a565b611d66565b3480156106ac57600080fd5b506102816106bb366004612eb0565b611df3565b3480156106cc57600080fd5b506102816106db3660046130c8565b611e4c565b3480156106ec57600080fd5b506102816106fb3660046130c8565b611fa8565b34801561070c57600080fd5b506103027f000000000000000000000000000000000000000000000000000000000000000081565b34801561074057600080fd5b506103027f000000000000000000000000000000000000000000000000000000000000000081565b34801561077457600080fd5b506102816120dc565b34801561078957600080fd5b5061028161079836600461313a565b61216a565b3480156107a957600080fd5b506102816107b83660046130c8565b612240565b3480156107c957600080fd5b506103027f000000000000000000000000000000000000000000000000000000000000000081565b3480156107fd57600080fd5b5061028161080c366004613272565b612301565b34801561081d57600080fd5b5061028161082c3660046131f0565b6123c9565b604051630935e01b60e21b815233600482015273__$a5a42e46683ad9c79b7b86d5ff60fdf4c1$__906324d7806c90602401602060405180830381865af4158015610880573d6000803e3d6000fd5b505050506040513d601f19601f820116820180604052508101906108a491906132e6565b6108c95760405162461bcd60e51b81526004016108c090613308565b60405180910390fd5b6040516383c3426360e01b8152600481018290526001600160a01b038316906383c34263906024015b600060405180830381600087803b15801561090c57600080fd5b505af1158015610920573d6000803e3d6000fd5b505050505050565b60606109326124b6565b805461093d9061333d565b80601f01602080910402602001604051908101604052809291908181526020018280546109699061333d565b80156109b65780601f1061098b576101008083540402835291602001916109b6565b820191906000526020600020905b81548152906001019060200180831161099957829003601f168201915b5050505050905090565b336001600160a01b037f00000000000000000000000000000000000000000000000000000000000000001614610a085760405162461bcd60e51b81526004016108c090613377565b6001600160a01b038516610a575760405162461bcd60e51b815260206004820152601660248201527521b7b6b830b73c9d1024b73b30b634b21037bbb732b960511b60448201526064016108c0565b6001600160a01b038416610aa65760405162461bcd60e51b815260206004820152601660248201527510dbdb5c185b9e4e88125b9d985b1a59081ddbdc9b1960521b60448201526064016108c0565b8686610ab06124b6565b91610abc919083613409565b506000610ac7612543565b8054600161ff01600160b01b0319909116620100006001600160a01b03891602178117825590915084908201610afd828261350e565b50506040805160008152602081019182905263d9ac971f60e01b90915273__$a5a42e46683ad9c79b7b86d5ff60fdf4c1$__63d9ac971f610b42898460248101613631565b60006040518083038186803b158015610b5a57600080fd5b505af4158015610b6e573d6000803e3d6000fd5b50505050505050505050505050565b6000610b87612543565b5460ff16610ba75760405162461bcd60e51b81526004016108c09061368d565b610bd47f0000000000000000000000000000000000000000000000000000000000000000868686866125a8565b95945050505050565b610be6336118dc565b610c025760405162461bcd60e51b81526004016108c0906136c4565b6000610c1160208301836130c8565b9050806001600160a01b0316637dc759e560405180606001604052808560200135815260200185604001358152602001858060600190610c5191906134c8565b8080601f01602080910402602001604051908101604052809392919081815260200183838082843760009201919091525050509152506040516001600160e01b031960e084901b168152610ca891906004016136f2565b600060405180830381600087803b158015610cc257600080fd5b505af1158015610cd6573d6000803e3d6000fd5b50505050604082013560208301803590610cf090856130c8565b6001600160a01b03167fa91163c384fd7aaeb9af411ac3a6fb176839758a072ab72d1d322e80fa64205f60405160405180910390a45050565b600080610d35336118dc565b610d515760405162461bcd60e51b81526004016108c0906136c4565b6000610d5b611333565b90506000610d67612ac2565b90508060000160008154610d7a90613737565b90915550805460a0830152604080516060810182528381528651602080830191909152870151918101919091526000610db161155b565b6040516305117adf60e31b81529091506001600160a01b0382169063288bd6f890610de0908590600401613750565b60408051808303816000875af1158015610dfe573d6000803e3d6000fd5b505050506040513d601f19601f82011682018060405250810190610e2291906137a8565b604051919750955085906001600160a01b038816907fdd1416df66cb3941d0ab5716b19acf9c3c0f4afbd2bfe67a0d6a8f6ab6d3afc890600090a350505050915091565b604051630935e01b60e21b81526001600160a01b038216600482015260009073__$a5a42e46683ad9c79b7b86d5ff60fdf4c1$__906324d7806c906024015b602060405180830381865af4158015610ec2573d6000803e3d6000fd5b505050506040513d601f19601f82011682018060405250810190610ee691906132e6565b92915050565b336001600160a01b037f00000000000000000000000000000000000000000000000000000000000000001614610f345760405162461bcd60e51b81526004016108c090613377565b6000610f3e612543565b805460ff191691151591909117905560405133907f246589c99dd263c9b64a2b544e24074c282ca479ba3d2a0e649f9eeaca1e2d6290610f7f908490612d90565b60405180910390a250565b604051630935e01b60e21b815233600482015273__$a5a42e46683ad9c79b7b86d5ff60fdf4c1$__906324d7806c90602401602060405180830381865af4158015610fd9573d6000803e3d6000fd5b505050506040513d601f19601f82011682018060405250810190610ffd91906132e6565b6110195760405162461bcd60e51b81526004016108c090613308565b806001600160a01b031663021665b76040518163ffffffff1660e01b8152600401600060405180830381600087803b15801561105457600080fd5b505af1158015611068573d6000803e3d6000fd5b5050505050565b336001600160a01b031673__$a5a42e46683ad9c79b7b86d5ff60fdf4c1$__638da5cb5b6040518163ffffffff1660e01b8152600401602060405180830381865af41580156110c2573d6000803e3d6000fd5b505050506040513d601f19601f820116820180604052508101906110e691906137d6565b6001600160a01b03161461113c5760405162461bcd60e51b815260206004820152601f60248201527f426173654163636573733a207265737472696374656420746f206f776e65720060448201526064016108c0565b4781101561118c5760405162461bcd60e51b815260206004820152601b60248201527f436f6d70616e793a20496e73756666696369656e742066756e6473000000000060448201526064016108c0565b73__$a5a42e46683ad9c79b7b86d5ff60fdf4c1$__638da5cb5b6040518163ffffffff1660e01b8152600401602060405180830381865af41580156111d5573d6000803e3d6000fd5b505050506040513d601f19601f820116820180604052508101906111f991906137d6565b6001600160a01b03166108fc829081150290604051600060405180830381858888f19350505050158015611231573d6000803e3d6000fd5b5050565b604051630935e01b60e21b815233600482015273__$a5a42e46683ad9c79b7b86d5ff60fdf4c1$__906324d7806c90602401602060405180830381865af4158015611284573d6000803e3d6000fd5b505050506040513d601f19601f820116820180604052508101906112a891906132e6565b6112c45760405162461bcd60e51b81526004016108c090613308565b604051632f2ff15d60e01b8152600481018390526001600160a01b038216602482015273__$a5a42e46683ad9c79b7b86d5ff60fdf4c1$__90632f2ff15d906044015b60006040518083038186803b15801561131f57600080fd5b505af4158015610920573d6000803e3d6000fd5b61136c6040518060c001604052806060815260200160608152602001606081526020016000815260200160008152602001600081525090565b611374612543565b6001016040518060c00160405290816000820180546113929061333d565b80601f01602080910402602001604051908101604052809291908181526020018280546113be9061333d565b801561140b5780601f106113e05761010080835404028352916020019161140b565b820191906000526020600020905b8154815290600101906020018083116113ee57829003601f168201915b505050505081526020016001820180546114249061333d565b80601f01602080910402602001604051908101604052809291908181526020018280546114509061333d565b801561149d5780601f106114725761010080835404028352916020019161149d565b820191906000526020600020905b81548152906001019060200180831161148057829003601f168201915b505050505081526020016002820180546114b69061333d565b80601f01602080910402602001604051908101604052809291908181526020018280546114e29061333d565b801561152f5780601f106115045761010080835404028352916020019161152f565b820191906000526020600020905b81548152906001019060200180831161151257829003601f168201915b505050505081526020016003820154815260200160048201548152602001600582015481525050905090565b6000611565612543565b546201000090046001600160a01b0316919050565b611583336118dc565b61159f5760405162461bcd60e51b81526004016108c0906136c4565b6115a761155b565b6001600160a01b031663464570b68484846040518463ffffffff1660e01b81526004016115d69392919061381c565b600060405180830381600087803b1580156115f057600080fd5b505af1158015611604573d6000803e3d6000fd5b50505050826001600160a01b03167fc91cc589ef4d878043f7e06130f3d528ea3c4a576304e36f5a59ff581289df7d8383604051611643929190613841565b60405180910390a2505050565b611659336118dc565b6116755760405162461bcd60e51b81526004016108c0906136c4565b61167d612543565b5460ff1661169d5760405162461bcd60e51b81526004016108c09061368d565b6116ca7f000000000000000000000000000000000000000000000000000000000000000085858585612b1f565b50505050565b604051630935e01b60e21b815233600482015273__$a5a42e46683ad9c79b7b86d5ff60fdf4c1$__906324d7806c90602401602060405180830381865af415801561171f573d6000803e3d6000fd5b505050506040513d601f19601f8201168201806040525081019061174391906132e6565b61175f5760405162461bcd60e51b81526004016108c090613308565b306001600160a01b0316826001600160a01b0316636904c94d6040518163ffffffff1660e01b8152600401602060405180830381865afa1580156117a7573d6000803e3d6000fd5b505050506040513d601f19601f820116820180604052508101906117cb91906137d6565b6001600160a01b0316146117f15760405162461bcd60e51b81526004016108c090613855565b6040516337eff0db60e11b81526001600160a01b038281166004830152831690636fdfe1b6906024016108f2565b604051630935e01b60e21b815233600482015273__$a5a42e46683ad9c79b7b86d5ff60fdf4c1$__906324d7806c90602401602060405180830381865af415801561186e573d6000803e3d6000fd5b505050506040513d601f19601f8201168201806040525081019061189291906132e6565b6118ae5760405162461bcd60e51b81526004016108c090613308565b604051636acd648160e01b81526001600160a01b038281166004830152831690636acd6481906024016108f2565b604051637df73e2760e01b81526001600160a01b038216600482015260009073__$a5a42e46683ad9c79b7b86d5ff60fdf4c1$__90637df73e2790602401610ea5565b6000611929612543565b54610100900460ff16919050565b336001600160a01b037f0000000000000000000000000000000000000000000000000000000000000000161461197f5760405162461bcd60e51b81526004016108c090613377565b611987612543565b5460ff16156119e75760405162461bcd60e51b815260206004820152602660248201527f52656d6f7661626c65456e746974793a206d757374206465616374697661746560448201526508199a5c9cdd60d21b60648201526084016108c0565b60016119f1612543565b80549115156101000261ff001990921691909117905560405133907fbf430175840309fcb4cce13557429998477f9f95733cb0d42c170af8aa225d0690610f7f908490612d90565b6000611a43612543565b5460ff16919050565b611a55336118dc565b611a715760405162461bcd60e51b81526004016108c0906136c4565b611a79612543565b5460ff16611a995760405162461bcd60e51b81526004016108c09061368d565b611aa584848484611d0f565b611af15760405162461bcd60e51b815260206004820152601a60248201527f436f6d70616e793a2063616e6e6f74206d696e7420617373657400000000000060448201526064016108c0565b60405163b510391f60e01b81526001600160a01b0385169063b510391f90611b219086908690869060040161381c565b600060405180830381600087803b158015611b3b57600080fd5b505af1158015611b4f573d6000803e3d6000fd5b5050505050505050565b604051630935e01b60e21b815233600482015273__$a5a42e46683ad9c79b7b86d5ff60fdf4c1$__906324d7806c90602401602060405180830381865af4158015611ba8573d6000803e3d6000fd5b505050506040513d601f19601f82011682018060405250810190611bcc91906132e6565b611be85760405162461bcd60e51b81526004016108c090613308565b604051638d361e4360e01b815273__$a5a42e46683ad9c79b7b86d5ff60fdf4c1$__90638d361e439061130790859085906004016138a3565b600073__$a5a42e46683ad9c79b7b86d5ff60fdf4c1$__638da5cb5b6040518163ffffffff1660e01b8152600401602060405180830381865af4158015611c6c573d6000803e3d6000fd5b505050506040513d601f19601f82011682018060405250810190611c9091906137d6565b905090565b611c9e336118dc565b611cba5760405162461bcd60e51b81526004016108c0906136c4565b611cc2612543565b5460ff16611ce25760405162461bcd60e51b81526004016108c09061368d565b6116ca7f000000000000000000000000000000000000000000000000000000000000000085858585612b1f565b6000611d19612543565b5460ff16611d395760405162461bcd60e51b81526004016108c09061368d565b610bd47f0000000000000000000000000000000000000000000000000000000000000000868686866125a8565b604051632474521560e21b8152600481018390526001600160a01b038216602482015260009073__$a5a42e46683ad9c79b7b86d5ff60fdf4c1$__906391d1485490604401602060405180830381865af4158015611dc8573d6000803e3d6000fd5b505050506040513d601f19601f82011682018060405250810190611dec91906132e6565b9392505050565b611dfc336118dc565b611e185760405162461bcd60e51b81526004016108c0906136c4565b611e20612543565b5460ff16611e405760405162461bcd60e51b81526004016108c09061368d565b611aa584848484610b7d565b604051630935e01b60e21b815233600482015273__$a5a42e46683ad9c79b7b86d5ff60fdf4c1$__906324d7806c90602401602060405180830381865af4158015611e9b573d6000803e3d6000fd5b505050506040513d601f19601f82011682018060405250810190611ebf91906132e6565b611edb5760405162461bcd60e51b81526004016108c090613308565b306001600160a01b0316816001600160a01b0316636904c94d6040518163ffffffff1660e01b8152600401602060405180830381865afa158015611f23573d6000803e3d6000fd5b505050506040513d601f19601f82011682018060405250810190611f4791906137d6565b6001600160a01b031614611f6d5760405162461bcd60e51b81526004016108c090613855565b806001600160a01b03166358779dcf6040518163ffffffff1660e01b8152600401600060405180830381600087803b15801561105457600080fd5b336001600160a01b031673__$a5a42e46683ad9c79b7b86d5ff60fdf4c1$__638da5cb5b6040518163ffffffff1660e01b8152600401602060405180830381865af4158015611ffb573d6000803e3d6000fd5b505050506040513d601f19601f8201168201806040525081019061201f91906137d6565b6001600160a01b0316146120755760405162461bcd60e51b815260206004820152601f60248201527f426173654163636573733a207265737472696374656420746f206f776e65720060448201526064016108c0565b6040516313af403560e01b81526001600160a01b038216600482015273__$a5a42e46683ad9c79b7b86d5ff60fdf4c1$__906313af40359060240160006040518083038186803b1580156120c857600080fd5b505af4158015611068573d6000803e3d6000fd5b336001600160a01b037f000000000000000000000000000000000000000000000000000000000000000016146121245760405162461bcd60e51b81526004016108c090613377565b600161212e612543565b805460ff191691151591909117905560405133907f54ca6a4cb143be493713a7079cc0d6cdbbf0688ee68398b4354b056088f2cbf590600090a2565b604051630935e01b60e21b815233600482015273__$a5a42e46683ad9c79b7b86d5ff60fdf4c1$__906324d7806c90602401602060405180830381865af41580156121b9573d6000803e3d6000fd5b505050506040513d601f19601f820116820180604052508101906121dd91906132e6565b6121f95760405162461bcd60e51b81526004016108c090613308565b60405163d547741f60e01b8152600481018390526001600160a01b038216602482015273__$a5a42e46683ad9c79b7b86d5ff60fdf4c1$__9063d547741f90604401611307565b612249336118dc565b6122655760405162461bcd60e51b81526004016108c0906136c4565b61226d61155b565b604051636c0154d160e11b81526001600160a01b038381166004830152919091169063d802a9a290602401600060405180830381600087803b1580156122b257600080fd5b505af11580156122c6573d6000803e3d6000fd5b50506040516001600160a01b03841692507fd7e0376b54023f1e8815a6ea5ec645b5f27e7d78eb66542e2ace843add91d17a9150600090a250565b604051630935e01b60e21b815233600482015273__$a5a42e46683ad9c79b7b86d5ff60fdf4c1$__906324d7806c90602401602060405180830381865af4158015612350573d6000803e3d6000fd5b505050506040513d601f19601f8201168201806040525081019061237491906132e6565b6123905760405162461bcd60e51b81526004016108c090613308565b60405163e8906a2d60e01b815273__$a5a42e46683ad9c79b7b86d5ff60fdf4c1$__9063e8906a2d9061130790859085906004016138a3565b6123d2336118dc565b6123ee5760405162461bcd60e51b81526004016108c0906136c4565b60006123f861155b565b6001600160a01b031663fcc111848585856040518463ffffffff1660e01b81526004016124279392919061381c565b6020604051808303816000875af1158015612446573d6000803e3d6000fd5b505050506040513d601f19601f8201168201806040525081019061246a91906138f1565b905080846001600160a01b03167f70b2ea755cbec8f93041a2abb839b4f9a525a06fd1a4453d1f2f1e30da3a016b85856040516124a8929190613841565b60405180910390a350505050565b60408051808201909152601481527378722e656e746974792e73746f726167652e763160601b60209091015260008060ff61251260017fdefc82a28b6578c2a63b29b15450260a5e998242a6300b7fcb30814ee74ae18861390a565b60405160200161252491815260200190565b60408051601f1981840301815291905280516020909101201692915050565b60408051808201909152601881527f78722e61637469766174696f6e2e73746f726167652e7631000000000000000060209091015260008060ff61251260017ff6611e962a52dbc98dd0485088d920890c43e26113c61976f6e171a29d49ce4961390a565b60405163c3c5a54760e01b81526001600160a01b0385811660048301526000919087169063c3c5a54790602401602060405180830381865afa1580156125f2573d6000803e3d6000fd5b505050506040513d601f19601f8201168201806040525081019061261691906132e6565b6126625760405162461bcd60e51b815260206004820152601d60248201527f436f6d70616e793a206173736574206e6f74207265676973746572656400000060448201526064016108c0565b6000859050306001600160a01b0316816001600160a01b0316631d1438486040518163ffffffff1660e01b8152600401602060405180830381865afa1580156126af573d6000803e3d6000fd5b505050506040513d601f19601f820116820180604052508101906126d391906137d6565b6001600160a01b0316146127295760405162461bcd60e51b815260206004820152601c60248201527f436f6d70616e793a206e6f7420697373756572206f662061737365740000000060448201526064016108c0565b604051634f2a605160e11b81526001600160a01b03821690639e54c0a2906127599088908890889060040161381c565b602060405180830381865afa158015612776573d6000803e3d6000fd5b505050506040513d601f19601f8201168201806040525081019061279a91906132e6565b6127e65760405162461bcd60e51b815260206004820152601f60248201527f436f6d70616e793a2063616e6e6f74206d696e7420746f20616464726573730060448201526064016108c0565b60405163c3c5a54760e01b81526001600160a01b0386811660048301527f0000000000000000000000000000000000000000000000000000000000000000169063c3c5a54790602401602060405180830381865afa15801561284c573d6000803e3d6000fd5b505050506040513d601f19601f8201168201806040525081019061287091906132e6565b61287e576001915050610bd4565b6000859050806001600160a01b031663181d939b6040518163ffffffff1660e01b8152600401602060405180830381865afa1580156128c1573d6000803e3d6000fd5b505050506040513d601f19601f820116820180604052508101906128e591906132e6565b612ab4576000816001600160a01b031663516f279e6040518163ffffffff1660e01b8152600401602060405180830381865afa158015612929573d6000803e3d6000fd5b505050506040513d601f19601f8201168201806040525081019061294d91906137d6565b90506001600160a01b0381166129bb5760405162461bcd60e51b815260206004820152602d60248201527f436f6d70616e793a20617661746172206c6f636174696f6e206973206e6f742060448201526c616e20657870657269656e636560981b60648201526084016108c0565b306001600160a01b0316816001600160a01b0316636904c94d6040518163ffffffff1660e01b8152600401602060405180830381865afa158015612a03573d6000803e3d6000fd5b505050506040513d601f19601f82011682018060405250810190612a2791906137d6565b6001600160a01b031614612ab25760405162461bcd60e51b815260206004820152604660248201527f436f6d70616e793a20617661746172206c6f636174696f6e206973206e6f742060448201527f696e20616e20657870657269656e6365206f776e6564206279207468697320636064820152656f6d70616e7960d01b608482015260a4016108c0565b505b506001979650505050505050565b60408051808201909152601581527478722e636f6d70616e792e73746f726167652e763160581b60209091015260008060ff61251260017fb15f88c380b1fa3feb414afd39103c83bfc20f8be60af2ce4a47137881ead48261390a565b60405163c3c5a54760e01b81526001600160a01b03858116600483015286169063c3c5a54790602401602060405180830381865afa158015612b65573d6000803e3d6000fd5b505050506040513d601f19601f82011682018060405250810190612b8991906132e6565b612bd55760405162461bcd60e51b815260206004820152601d60248201527f436f6d70616e793a206173736574206e6f74207265676973746572656400000060448201526064016108c0565b6000849050306001600160a01b0316816001600160a01b0316631d1438486040518163ffffffff1660e01b8152600401602060405180830381865afa158015612c22573d6000803e3d6000fd5b505050506040513d601f19601f82011682018060405250810190612c4691906137d6565b6001600160a01b031614612c9c5760405162461bcd60e51b815260206004820152601c60248201527f436f6d70616e793a206e6f7420697373756572206f662061737365740000000060448201526064016108c0565b6040516326a5ce1160e21b81526001600160a01b03821690639a97384490612ccc9087908790879060040161381c565b600060405180830381600087803b158015612ce657600080fd5b505af1158015612cfa573d6000803e3d6000fd5b50505050505050505050565b6001600160a01b0381168114612d1b57600080fd5b50565b60008060408385031215612d3157600080fd5b8235612d3c81612d06565b946020939093013593505050565b6000815180845260005b81811015612d7057602081850181015186830182015201612d54565b506000602082860101526020601f19601f83011685010191505092915050565b602081526000611dec6020830184612d4a565b60008083601f840112612db557600080fd5b5081356001600160401b03811115612dcc57600080fd5b602083019150836020828501011115612de457600080fd5b9250929050565b600080600080600080600060a0888a031215612e0657600080fd5b87356001600160401b0380821115612e1d57600080fd5b612e298b838c01612da3565b909950975060208a01359150612e3e82612d06565b909550604089013590612e5082612d06565b90945060608901359080821115612e6657600080fd5b9089019060c0828c031215612e7a57600080fd5b90935060808901359080821115612e9057600080fd5b50612e9d8a828b01612da3565b989b979a50959850939692959293505050565b60008060008060608587031215612ec657600080fd5b8435612ed181612d06565b93506020850135612ee181612d06565b925060408501356001600160401b03811115612efc57600080fd5b612f0887828801612da3565b95989497509550505050565b600060208284031215612f2657600080fd5b81356001600160401b03811115612f3c57600080fd5b820160808185031215611dec57600080fd5b634e487b7160e01b600052604160045260246000fd5b604080519081016001600160401b0381118282101715612f8657612f86612f4e565b60405290565b60006001600160401b0380841115612fa657612fa6612f4e565b604051601f8501601f19908116603f01168101908282118183101715612fce57612fce612f4e565b81604052809350858152868686011115612fe757600080fd5b858560208301376000602087830101525050509392505050565b600082601f83011261301257600080fd5b611dec83833560208501612f8c565b60006020828403121561303357600080fd5b81356001600160401b038082111561304a57600080fd5b908301906040828603121561305e57600080fd5b613066612f64565b82358281111561307557600080fd5b61308187828601613001565b82525060208301358281111561309657600080fd5b80840193505085601f8401126130ab57600080fd5b6130ba86843560208601612f8c565b602082015295945050505050565b6000602082840312156130da57600080fd5b8135611dec81612d06565b6000602082840312156130f757600080fd5b81356001600160401b0381111561310d57600080fd5b61311984828501613001565b949350505050565b60006020828403121561313357600080fd5b5035919050565b6000806040838503121561314d57600080fd5b82359150602083013561315f81612d06565b809150509250929050565b6000815160c0845261317f60c0850182612d4a565b9050602083015184820360208601526131988282612d4a565b915050604083015184820360408601526131b28282612d4a565b915050606083015160608501526080830151608085015260a083015160a08501528091505092915050565b602081526000611dec602083018461316a565b60008060006040848603121561320557600080fd5b833561321081612d06565b925060208401356001600160401b0381111561322b57600080fd5b61323786828701612da3565b9497909650939450505050565b6000806040838503121561325757600080fd5b823561326281612d06565b9150602083013561315f81612d06565b6000806020838503121561328557600080fd5b82356001600160401b038082111561329c57600080fd5b818501915085601f8301126132b057600080fd5b8135818111156132bf57600080fd5b8660208260051b85010111156132d457600080fd5b60209290920196919550909350505050565b6000602082840312156132f857600080fd5b81518015158114611dec57600080fd5b6020808252818101527f426173654163636573733a207265737472696374656420746f2061646d696e73604082015260600190565b600181811c9082168061335157607f821691505b60208210810361337157634e487b7160e01b600052602260045260246000fd5b50919050565b60208082526025908201527f52656d6f7661626c65456e746974793a206f6e6c79206f776e696e6720726567604082015264697374727960d81b606082015260800190565b601f821115613404576000816000526020600020601f850160051c810160208610156133e55750805b601f850160051c820191505b81811015610920578281556001016133f1565b505050565b6001600160401b0383111561342057613420612f4e565b6134348361342e835461333d565b836133bc565b6000601f84116001811461346857600085156134505750838201355b600019600387901b1c1916600186901b178355611068565b600083815260209020601f19861690835b828110156134995786850135825560209485019460019092019101613479565b50868210156134b65760001960f88860031b161c19848701351681555b505060018560011b0183555050505050565b6000808335601e198436030181126134df57600080fd5b8301803591506001600160401b038211156134f957600080fd5b602001915036819003821315612de457600080fd5b61351882836134c8565b6001600160401b0381111561352f5761352f612f4e565b6135438161353d855461333d565b856133bc565b6000601f821160018114613577576000831561355f5750838201355b600019600385901b1c1916600184901b1785556135d1565b600085815260209020601f19841690835b828110156135a85786850135825560209485019460019092019101613588565b50848210156135c55760001960f88660031b161c19848701351681555b505060018360011b0185555b505050506135e260208301836134c8565b6135f0818360018601613409565b50506135ff60408301836134c8565b61360d818360028601613409565b5050606082013560038201556080820135600482015560a082013560058201555050565b6001600160a01b038381168252604060208084018290528451918401829052600092858201929091906060860190855b8181101561367f578551851683529483019491830191600101613661565b509098975050505050505050565b6020808252601e908201527f436f6d70616e793a20436f6d70616e79206973206e6f74206163746976650000604082015260600190565b602080825260149082015273456e746974793a206f6e6c79207369676e65727360601b604082015260600190565b602081528151602082015260208201516040820152600060408301516060808401526131196080840182612d4a565b634e487b7160e01b600052601160045260246000fd5b60006001820161374957613749613721565b5060010190565b60208152600082516060602084015261376c608084018261316a565b90506020840151601f198085840301604086015261378a8383612d4a565b9250604086015191508085840301606086015250610bd48282612d4a565b600080604083850312156137bb57600080fd5b82516137c681612d06565b6020939093015192949293505050565b6000602082840312156137e857600080fd5b8151611dec81612d06565b81835281816020850137506000828201602090810191909152601f909101601f19169091010190565b6001600160a01b0384168152604060208201819052600090610bd490830184866137f3565b6020815260006131196020830184866137f3565b6020808252602e908201527f436f6d70616e793a20457870657269656e636520646f6573206e6f742062656c60408201526d6f6e6720746f20636f6d70616e7960901b606082015260800190565b60208082528181018390526000908460408401835b868110156138e65782356138cb81612d06565b6001600160a01b0316825291830191908301906001016138b8565b509695505050505050565b60006020828403121561390357600080fd5b5051919050565b81810381811115610ee657610ee661372156fea2646970667358221220411b2a10ae1aed06ce82e90ddecb5aee40a161e0ca6b0628b4cccda1d781080164736f6c63430008180033",
  "linkReferences": {
    "contracts/libraries/LibAccess.sol": {
      "LibAccess": [
        {
          "length": 20,
          "start": 3045
        },
        {
          "length": 20,
          "start": 3771
        },
        {
          "length": 20,
          "start": 4646
        },
        {
          "length": 20,
          "start": 4926
        },
        {
          "length": 20,
          "start": 5146
        },
        {
          "length": 20,
          "start": 5421
        },
        {
          "length": 20,
          "start": 5609
        },
        {
          "length": 20,
          "start": 5768
        },
        {
          "length": 20,
          "start": 6788
        },
        {
          "length": 20,
          "start": 7123
        },
        {
          "length": 20,
          "start": 7324
        },
        {
          "length": 20,
          "start": 7949
        },
        {
          "length": 20,
          "start": 8086
        },
        {
          "length": 20,
          "start": 8132
        },
        {
          "length": 20,
          "start": 8493
        },
        {
          "length": 20,
          "start": 8704
        },
        {
          "length": 20,
          "start": 9043
        },
        {
          "length": 20,
          "start": 9266
        },
        {
          "length": 20,
          "start": 9502
        },
        {
          "length": 20,
          "start": 9661
        },
        {
          "length": 20,
          "start": 9909
        },
        {
          "length": 20,
          "start": 10046
        }
      ]
    }
  },
  "deployedLinkReferences": {
    "contracts/libraries/LibAccess.sol": {
      "LibAccess": [
        {
          "length": 20,
          "start": 2118
        },
        {
          "length": 20,
          "start": 2844
        },
        {
          "length": 20,
          "start": 3719
        },
        {
          "length": 20,
          "start": 3999
        },
        {
          "length": 20,
          "start": 4219
        },
        {
          "length": 20,
          "start": 4494
        },
        {
          "length": 20,
          "start": 4682
        },
        {
          "length": 20,
          "start": 4841
        },
        {
          "length": 20,
          "start": 5861
        },
        {
          "length": 20,
          "start": 6196
        },
        {
          "length": 20,
          "start": 6397
        },
        {
          "length": 20,
          "start": 7022
        },
        {
          "length": 20,
          "start": 7159
        },
        {
          "length": 20,
          "start": 7205
        },
        {
          "length": 20,
          "start": 7566
        },
        {
          "length": 20,
          "start": 7777
        },
        {
          "length": 20,
          "start": 8116
        },
        {
          "length": 20,
          "start": 8339
        },
        {
          "length": 20,
          "start": 8575
        },
        {
          "length": 20,
          "start": 8734
        },
        {
          "length": 20,
          "start": 8982
        },
        {
          "length": 20,
          "start": 9119
        }
      ]
    }
  }
}