{
  "_format": "hh-sol-artifact-1",
  "contractName": "Company",
  "sourceName": "contracts/company/instance/Company.sol",
  "abi": [
    {
      "inputs": [
        {
          "components": [
            {
              "internalType": "address",
              "name": "extensionResolver",
              "type": "address"
            },
            {
              "internalType": "address",
              "name": "owningRegistry",
              "type": "address"
            },
            {
              "internalType": "address",
              "name": "worldRegistry",
              "type": "address"
            },
            {
              "internalType": "address",
              "name": "erc20Registry",
              "type": "address"
            },
            {
              "internalType": "address",
              "name": "erc721Registry",
              "type": "address"
            },
            {
              "internalType": "address",
              "name": "avatarRegistry",
              "type": "address"
            }
          ],
          "internalType": "struct CompanyConstructorArgs",
          "name": "args",
          "type": "tuple"
        }
      ],
      "stateMutability": "nonpayable",
      "type": "constructor"
    },
    {
      "anonymous": false,
      "inputs": [
        {
          "indexed": false,
          "internalType": "string",
          "name": "name",
          "type": "string"
        }
      ],
      "name": "ExtensionDisabled",
      "type": "event"
    },
    {
      "anonymous": false,
      "inputs": [
        {
          "indexed": false,
          "internalType": "string",
          "name": "name",
          "type": "string"
        }
      ],
      "name": "ExtensionEnabled",
      "type": "event"
    },
    {
      "anonymous": false,
      "inputs": [
        {
          "indexed": false,
          "internalType": "string",
          "name": "name",
          "type": "string"
        },
        {
          "components": [
            {
              "internalType": "uint16",
              "name": "major",
              "type": "uint16"
            },
            {
              "internalType": "uint16",
              "name": "minor",
              "type": "uint16"
            }
          ],
          "indexed": false,
          "internalType": "struct Version",
          "name": "version",
          "type": "tuple"
        }
      ],
      "name": "ExtensionInstalled",
      "type": "event"
    },
    {
      "anonymous": false,
      "inputs": [
        {
          "indexed": false,
          "internalType": "string",
          "name": "name",
          "type": "string"
        },
        {
          "components": [
            {
              "internalType": "uint16",
              "name": "major",
              "type": "uint16"
            },
            {
              "internalType": "uint16",
              "name": "minor",
              "type": "uint16"
            }
          ],
          "indexed": false,
          "internalType": "struct Version",
          "name": "version",
          "type": "tuple"
        }
      ],
      "name": "ExtensionRolledBack",
      "type": "event"
    },
    {
      "anonymous": false,
      "inputs": [
        {
          "indexed": false,
          "internalType": "string",
          "name": "name",
          "type": "string"
        },
        {
          "components": [
            {
              "internalType": "uint16",
              "name": "major",
              "type": "uint16"
            },
            {
              "internalType": "uint16",
              "name": "minor",
              "type": "uint16"
            }
          ],
          "indexed": false,
          "internalType": "struct Version",
          "name": "version",
          "type": "tuple"
        }
      ],
      "name": "ExtensionUpgraded",
      "type": "event"
    },
    {
      "anonymous": false,
      "inputs": [
        {
          "indexed": false,
          "internalType": "bytes4",
          "name": "selector",
          "type": "bytes4"
        }
      ],
      "name": "SelectorDisabled",
      "type": "event"
    },
    {
      "anonymous": false,
      "inputs": [
        {
          "indexed": false,
          "internalType": "bytes4",
          "name": "selector",
          "type": "bytes4"
        }
      ],
      "name": "SelectorEnabled",
      "type": "event"
    },
    {
      "stateMutability": "payable",
      "type": "fallback"
    },
    {
      "inputs": [],
      "name": "avatarRegistry",
      "outputs": [
        {
          "internalType": "address",
          "name": "",
          "type": "address"
        }
      ],
      "stateMutability": "view",
      "type": "function"
    },
    {
      "inputs": [],
      "name": "companyRegistry",
      "outputs": [
        {
          "internalType": "contract ICompanyRegistry",
          "name": "",
          "type": "address"
        }
      ],
      "stateMutability": "view",
      "type": "function"
    },
    {
      "inputs": [],
      "name": "erc20Registry",
      "outputs": [
        {
          "internalType": "address",
          "name": "",
          "type": "address"
        }
      ],
      "stateMutability": "view",
      "type": "function"
    },
    {
      "inputs": [],
      "name": "erc721Registry",
      "outputs": [
        {
          "internalType": "address",
          "name": "",
          "type": "address"
        }
      ],
      "stateMutability": "view",
      "type": "function"
    },
    {
      "inputs": [],
      "name": "extResolver",
      "outputs": [
        {
          "internalType": "contract IExtensionResolver",
          "name": "",
          "type": "address"
        }
      ],
      "stateMutability": "view",
      "type": "function"
    },
    {
      "inputs": [
        {
          "internalType": "string",
          "name": "name",
          "type": "string"
        }
      ],
      "name": "getExtensionVersion",
      "outputs": [
        {
          "components": [
            {
              "internalType": "uint16",
              "name": "major",
              "type": "uint16"
            },
            {
              "internalType": "uint16",
              "name": "minor",
              "type": "uint16"
            }
          ],
          "internalType": "struct Version",
          "name": "",
          "type": "tuple"
        }
      ],
      "stateMutability": "view",
      "type": "function"
    },
    {
      "inputs": [
        {
          "internalType": "string",
          "name": "name",
          "type": "string"
        },
        {
          "components": [
            {
              "internalType": "uint16",
              "name": "major",
              "type": "uint16"
            },
            {
              "internalType": "uint16",
              "name": "minor",
              "type": "uint16"
            }
          ],
          "internalType": "struct Version",
          "name": "version",
          "type": "tuple"
        }
      ],
      "name": "hasExtension",
      "outputs": [
        {
          "internalType": "bool",
          "name": "",
          "type": "bool"
        }
      ],
      "stateMutability": "view",
      "type": "function"
    },
    {
      "inputs": [
        {
          "components": [
            {
              "internalType": "address",
              "name": "owner",
              "type": "address"
            },
            {
              "internalType": "address",
              "name": "termsOwner",
              "type": "address"
            },
            {
              "internalType": "address",
              "name": "registry",
              "type": "address"
            },
            {
              "internalType": "string",
              "name": "name",
              "type": "string"
            },
            {
              "components": [
                {
                  "internalType": "string",
                  "name": "x",
                  "type": "string"
                },
                {
                  "internalType": "string",
                  "name": "y",
                  "type": "string"
                },
                {
                  "internalType": "string",
                  "name": "z",
                  "type": "string"
                },
                {
                  "internalType": "uint256",
                  "name": "t",
                  "type": "uint256"
                },
                {
                  "internalType": "uint256",
                  "name": "p",
                  "type": "uint256"
                },
                {
                  "internalType": "uint256",
                  "name": "p_sub",
                  "type": "uint256"
                }
              ],
              "internalType": "struct VectorAddress",
              "name": "vector",
              "type": "tuple"
            },
            {
              "internalType": "bytes",
              "name": "initData",
              "type": "bytes"
            }
          ],
          "internalType": "struct CommonInitArgs",
          "name": "args",
          "type": "tuple"
        }
      ],
      "name": "init",
      "outputs": [],
      "stateMutability": "nonpayable",
      "type": "function"
    },
    {
      "inputs": [],
      "name": "name",
      "outputs": [
        {
          "internalType": "string",
          "name": "",
          "type": "string"
        }
      ],
      "stateMutability": "view",
      "type": "function"
    },
    {
      "inputs": [],
      "name": "vectorAddress",
      "outputs": [
        {
          "components": [
            {
              "internalType": "string",
              "name": "x",
              "type": "string"
            },
            {
              "internalType": "string",
              "name": "y",
              "type": "string"
            },
            {
              "internalType": "string",
              "name": "z",
              "type": "string"
            },
            {
              "internalType": "uint256",
              "name": "t",
              "type": "uint256"
            },
            {
              "internalType": "uint256",
              "name": "p",
              "type": "uint256"
            },
            {
              "internalType": "uint256",
              "name": "p_sub",
              "type": "uint256"
            }
          ],
          "internalType": "struct VectorAddress",
          "name": "",
          "type": "tuple"
        }
      ],
      "stateMutability": "view",
      "type": "function"
    },
    {
      "inputs": [],
      "name": "version",
      "outputs": [
        {
          "components": [
            {
              "internalType": "uint16",
              "name": "major",
              "type": "uint16"
            },
            {
              "internalType": "uint16",
              "name": "minor",
              "type": "uint16"
            }
          ],
          "internalType": "struct Version",
          "name": "",
          "type": "tuple"
        }
      ],
      "stateMutability": "pure",
      "type": "function"
    },
    {
      "inputs": [
        {
          "internalType": "uint256",
          "name": "amount",
          "type": "uint256"
        }
      ],
      "name": "withdraw",
      "outputs": [],
      "stateMutability": "nonpayable",
      "type": "function"
    },
    {
      "inputs": [],
      "name": "world",
      "outputs": [
        {
          "internalType": "address",
          "name": "",
          "type": "address"
        }
      ],
      "stateMutability": "view",
      "type": "function"
    },
    {
      "inputs": [],
      "name": "worldRegistry",
      "outputs": [
        {
          "internalType": "contract IWorldRegistry",
          "name": "",
          "type": "address"
        }
      ],
      "stateMutability": "view",
      "type": "function"
    },
    {
      "stateMutability": "payable",
      "type": "receive"
    }
  ],
  "bytecode": "0x6101406040523480156200001257600080fd5b5060405162001c5f38038062001c5f83398101604081905262000035916200035a565b80516001600160a01b038116620000b95760405162461bcd60e51b815260206004820152603660248201527f456e746974795368656c6c3a20657874656e73696f6e207265736f6c7665722060448201527f63616e6e6f74206265207a65726f20616464726573730000000000000000000060648201526084015b60405180910390fd5b6001600160a01b03908116608052602082015116620001325760405162461bcd60e51b815260206004820152602e60248201527f436f6d70616e793a206f776e696e6752656769737472792063616e6e6f74206260448201526d65207a65726f206164647265737360901b6064820152608401620000b0565b60408101516001600160a01b0316620001a45760405162461bcd60e51b815260206004820152602d60248201527f436f6d70616e793a20776f726c6452656769737472792063616e6e6f7420626560448201526c207a65726f206164647265737360981b6064820152608401620000b0565b60608101516001600160a01b0316620002165760405162461bcd60e51b815260206004820152602d60248201527f436f6d70616e793a20657263323052656769737472792063616e6e6f7420626560448201526c207a65726f206164647265737360981b6064820152608401620000b0565b60808101516001600160a01b0316620002895760405162461bcd60e51b815260206004820152602e60248201527f436f6d70616e793a2065726337323152656769737472792063616e6e6f74206260448201526d65207a65726f206164647265737360901b6064820152608401620000b0565b60a08101516001600160a01b0316620002fc5760405162461bcd60e51b815260206004820152602e60248201527f436f6d70616e793a2061766174617252656769737472792063616e6e6f74206260448201526d65207a65726f206164647265737360901b6064820152608401620000b0565b6020810180516001600160a01b0390811660c0529051811660a09081526060830151821660e052608083015182166101005290910151166101205262000414565b80516001600160a01b03811681146200035557600080fd5b919050565b600060c082840312156200036d57600080fd5b60405160c081016001600160401b03811182821017156200039e57634e487b7160e01b600052604160045260246000fd5b604052620003ac836200033d565b8152620003bc602084016200033d565b6020820152620003cf604084016200033d565b6040820152620003e2606084016200033d565b6060820152620003f5608084016200033d565b60808201526200040860a084016200033d565b60a08201529392505050565b60805160a05160c05160e05161010051610120516117df62000480600039600061038c015260006103240152600061014d0152600081816102bc01526109cb015260006102f0015260008181610358015281816103b8015281816104a0015261094101526117df6000f3fe6080604052600436106100e15760003560e01c806354fd4d501161007f578063c51aba2b11610059578063c51aba2b146102de578063ca6d442914610312578063dd2a44c114610346578063e3d7ad731461037a576100e8565b806354fd4d501461025257806369a10a121461028a578063911c2a8c146102aa576100e8565b80632e1a7d4d116100bb5780632e1a7d4d146101c95780632fcbab9a146101eb57806330b67baa1461020d57806347d1d09a14610222576100e8565b806306fdde031461011057806312d3e5e11461013b578063238a038614610187576100e8565b366100e857005b600080356001600160e01b03191690506000610106826000366103ae565b9050805160208201f35b34801561011c57600080fd5b506101256103e4565b6040516101329190610f7e565b60405180910390f35b34801561014757600080fd5b5061016f7f000000000000000000000000000000000000000000000000000000000000000081565b6040516001600160a01b039091168152602001610132565b34801561019357600080fd5b506101a76101a236600461105d565b61047f565b60408051825161ffff9081168252602093840151169281019290925201610132565b3480156101d557600080fd5b506101e96101e4366004611092565b610523565b005b3480156101f757600080fd5b506102006106e0565b60405161013291906110ab565b34801561021957600080fd5b5061016f610908565b34801561022e57600080fd5b5061024261023d36600461112e565b610927565b6040519015158152602001610132565b34801561025e57600080fd5b5060408051808201825260008082526020918201819052825180840190935260018352908201526101a7565b34801561029657600080fd5b506101e96102a5366004611188565b6109c0565b3480156102b657600080fd5b5061016f7f000000000000000000000000000000000000000000000000000000000000000081565b3480156102ea57600080fd5b5061016f7f000000000000000000000000000000000000000000000000000000000000000081565b34801561031e57600080fd5b5061016f7f000000000000000000000000000000000000000000000000000000000000000081565b34801561035257600080fd5b5061016f7f000000000000000000000000000000000000000000000000000000000000000081565b34801561038657600080fd5b5061016f7f000000000000000000000000000000000000000000000000000000000000000081565b60606103dc8484847f0000000000000000000000000000000000000000000000000000000000000000610ca4565b949350505050565b60606103ee610dd6565b60020180546103fc906111c3565b80601f0160208091040260200160405190810160405280929190818152602001828054610428906111c3565b80156104755780601f1061044a57610100808354040283529160200191610475565b820191906000526020600020905b81548152906001019060200180831161045857829003601f168201915b5050505050905090565b6040805180820182526000808252602082015290516311c501c360e11b81527f00000000000000000000000000000000000000000000000000000000000000006001600160a01b03169063238a0386906104dd908590600401610f7e565b6040805180830381865afa1580156104f9573d6000803e3d6000fd5b505050506040513d601f19601f8201168201806040525081019061051d9190611210565b92915050565b604051630935e01b60e21b815233600482015273__$a5a42e46683ad9c79b7b86d5ff60fdf4c1$__906324d7806c90602401602060405180830381865af4158015610572573d6000803e3d6000fd5b505050506040513d601f19601f82011682018060405250810190610596919061126f565b6105e75760405162461bcd60e51b815260206004820181905260248201527f42617369635368656c6c3a207265737472696374656420746f2061646d696e7360448201526064015b60405180910390fd5b478111156106375760405162461bcd60e51b815260206004820181905260248201527f42617369635368656c6c3a20696e73756666696369656e742062616c616e636560448201526064016105de565b73__$a5a42e46683ad9c79b7b86d5ff60fdf4c1$__638da5cb5b6040518163ffffffff1660e01b8152600401602060405180830381865af4158015610680573d6000803e3d6000fd5b505050506040513d601f19601f820116820180604052508101906106a491906112a6565b6001600160a01b03166108fc829081150290604051600060405180830381858888f193505050501580156106dc573d6000803e3d6000fd5b5050565b6107196040518060c001604052806060815260200160608152602001606081526020016000815260200160008152602001600081525090565b610721610dd6565b6003016040518060c001604052908160008201805461073f906111c3565b80601f016020809104026020016040519081016040528092919081815260200182805461076b906111c3565b80156107b85780601f1061078d576101008083540402835291602001916107b8565b820191906000526020600020905b81548152906001019060200180831161079b57829003601f168201915b505050505081526020016001820180546107d1906111c3565b80601f01602080910402602001604051908101604052809291908181526020018280546107fd906111c3565b801561084a5780601f1061081f5761010080835404028352916020019161084a565b820191906000526020600020905b81548152906001019060200180831161082d57829003601f168201915b50505050508152602001600282018054610863906111c3565b80601f016020809104026020016040519081016040528092919081815260200182805461088f906111c3565b80156108dc5780601f106108b1576101008083540402835291602001916108dc565b820191906000526020600020905b8154815290600101906020018083116108bf57829003601f168201915b505050505081526020016003820154815260200160048201548152602001600582015481525050905090565b6000610912610dd6565b546201000090046001600160a01b0316919050565b6040516323e8e84d60e11b81526000906001600160a01b037f000000000000000000000000000000000000000000000000000000000000000016906347d1d09a9061097890869086906004016112c3565b602060405180830381865afa158015610995573d6000803e3d6000fd5b505050506040513d601f19601f820116820180604052508101906109b9919061126f565b9392505050565b336001600160a01b037f00000000000000000000000000000000000000000000000000000000000000001614610a385760405162461bcd60e51b815260206004820152601c60248201527f436f6d70616e793a206f6e6c7920776f726c642072656769737472790000000060448201526064016105de565b6000610a4a604083016020840161130f565b6001600160a01b031603610ab15760405162461bcd60e51b815260206004820152602860248201527f436f6d70616e793a207465726d73206f776e657220697320746865207a65726f604482015267206164647265737360c01b60648201526084016105de565b6000610ac0606083018361132c565b905011610b0f5760405162461bcd60e51b815260206004820152601d60248201527f436f6d70616e793a206e616d652063616e6e6f7420626520656d70747900000060448201526064016105de565b60408051600080825260208201909252905073__$a5a42e46683ad9c79b7b86d5ff60fdf4c1$__63d9ac971f610b48602085018561130f565b836040518363ffffffff1660e01b8152600401610b6692919061137a565b60006040518083038186803b158015610b7e57600080fd5b505af4158015610b92573d6000803e3d6000fd5b50610ba49250505060808301836113d6565b610bad906113f6565b6040516361d9624d60e01b815273__$ad2b23306edd42b5f4873830e307b82d47$__916361d9624d91610be991906001906000906004016114a9565b60006040518083038186803b158015610c0157600080fd5b505af4158015610c15573d6000803e3d6000fd5b505050506000610c23610dd6565b805460ff191660011781559050610c3d606084018461132c565b6002830191610c4d919083611591565b50610c5b60808401846113d6565b60038201610c698282611652565b50610c7c9050604084016020850161130f565b81546001600160a01b0391909116620100000262010000600160b01b03199091161790555050565b6040516337b4746960e11b81526001600160e01b0319851660048201526060906000906001600160a01b03841690636f68e8d290602401602060405180830381865afa158015610cf8573d6000803e3d6000fd5b505050506040513d601f19601f82011682018060405250810190610d1c91906112a6565b90506001600160a01b038116610d8c5760405162461bcd60e51b815260206004820152602f60248201527f4c6962457874656e73696f6e3a206e6f20657874656e73696f6e20737570706f60448201526e393a399033371039b2b632b1ba37b960891b60648201526084016105de565b610dcc8186868080601f016020809104026020016040519081016040528093929190818152602001838380828437600092019190915250610e6c92505050565b9695505050505050565b60408051808201909152601881527f78722e61637469766174696f6e2e73746f726167652e7631000000000000000060209091015260008060ff610e3b60017ff6611e962a52dbc98dd0485088d920890c43e26113c61976f6e171a29d49ce49611776565b604051602001610e4d91815260200190565b60408051601f1981840301815291905280516020909101201692915050565b6060600080846001600160a01b031684604051610e899190611797565b600060405180830381855af49150503d8060008114610ec4576040519150601f19603f3d011682016040523d82523d6000602084013e610ec9565b606091505b50915091508115610edd57915061051d9050565b805115610eed5780518082602001fd5b60405162461bcd60e51b8152602060048201526016602482015275119d5b98dd1a5bdb8818d85b1b081c995d995c9d195960521b60448201526064016105de565b60005b83811015610f49578181015183820152602001610f31565b50506000910152565b60008151808452610f6a816020860160208601610f2e565b601f01601f19169290920160200192915050565b6020815260006109b96020830184610f52565b634e487b7160e01b600052604160045260246000fd5b60405160c0810167ffffffffffffffff81118282101715610fca57610fca610f91565b60405290565b600082601f830112610fe157600080fd5b813567ffffffffffffffff80821115610ffc57610ffc610f91565b604051601f8301601f19908116603f0116810190828211818310171561102457611024610f91565b8160405283815286602085880101111561103d57600080fd5b836020870160208301376000602085830101528094505050505092915050565b60006020828403121561106f57600080fd5b813567ffffffffffffffff81111561108657600080fd5b6103dc84828501610fd0565b6000602082840312156110a457600080fd5b5035919050565b602081526000825160c060208401526110c760e0840182610f52565b90506020840151601f19808584030160408601526110e58383610f52565b92506040860151915080858403016060860152506111038282610f52565b91505060608401516080840152608084015160a084015260a084015160c08401528091505092915050565b600080828403606081121561114257600080fd5b833567ffffffffffffffff81111561115957600080fd5b61116586828701610fd0565b9350506040601f198201121561117a57600080fd5b506020830190509250929050565b60006020828403121561119a57600080fd5b813567ffffffffffffffff8111156111b157600080fd5b820160c081850312156109b957600080fd5b600181811c908216806111d757607f821691505b6020821081036111f757634e487b7160e01b600052602260045260246000fd5b50919050565b61ffff8116811461120d57600080fd5b50565b60006040828403121561122257600080fd5b6040516040810181811067ffffffffffffffff8211171561124557611245610f91565b6040528251611253816111fd565b81526020830151611263816111fd565b60208201529392505050565b60006020828403121561128157600080fd5b815180151581146109b957600080fd5b6001600160a01b038116811461120d57600080fd5b6000602082840312156112b857600080fd5b81516109b981611291565b6060815260006112d66060830185610f52565b905082356112e3816111fd565b61ffff8082166020850152602085013591506112fe826111fd565b808216604085015250509392505050565b60006020828403121561132157600080fd5b81356109b981611291565b6000808335601e1984360301811261134357600080fd5b83018035915067ffffffffffffffff82111561135e57600080fd5b60200191503681900382131561137357600080fd5b9250929050565b6001600160a01b038381168252604060208084018290528451918401829052600092858201929091906060860190855b818110156113c85785518516835294830194918301916001016113aa565b509098975050505050505050565b6000823560be198336030181126113ec57600080fd5b9190910192915050565b600060c0823603121561140857600080fd5b611410610fa7565b823567ffffffffffffffff8082111561142857600080fd5b61143436838701610fd0565b8352602085013591508082111561144a57600080fd5b61145636838701610fd0565b6020840152604085013591508082111561146f57600080fd5b5061147c36828601610fd0565b604083015250606083013560608201526080830135608082015260a083013560a082015280915050919050565b606081526000845160c060608401526114c6610120840182610f52565b90506020860151605f19808584030160808601526114e48383610f52565b925060408801519150808584030160a0860152506115028282610f52565b606088015160c0860152608088015160e086015260a088015161010086015286151560208601529250611533915050565b82151560408301526103dc565b601f82111561158c576000816000526020600020601f850160051c810160208610156115695750805b601f850160051c820191505b8181101561158857828155600101611575565b5050505b505050565b67ffffffffffffffff8311156115a9576115a9610f91565b6115bd836115b783546111c3565b83611540565b6000601f8411600181146115f157600085156115d95750838201355b600019600387901b1c1916600186901b17835561164b565b600083815260209020601f19861690835b828110156116225786850135825560209485019460019092019101611602565b508682101561163f5760001960f88860031b161c19848701351681555b505060018560011b0183555b5050505050565b61165c828361132c565b67ffffffffffffffff81111561167457611674610f91565b6116888161168285546111c3565b85611540565b6000601f8211600181146116bc57600083156116a45750838201355b600019600385901b1c1916600184901b178555611716565b600085815260209020601f19841690835b828110156116ed57868501358255602094850194600190920191016116cd565b508482101561170a5760001960f88660031b161c19848701351681555b505060018360011b0185555b50505050611727602083018361132c565b611735818360018601611591565b5050611744604083018361132c565b611752818360028601611591565b5050606082013560038201556080820135600482015560a082013560058201555050565b8181038181111561051d57634e487b7160e01b600052601160045260246000fd5b600082516113ec818460208701610f2e56fea2646970667358221220d3b65c74eb483f8be72943d81ac72c1bf3e1a67f32063107df826af51f5ea32964736f6c63430008180033",
  "linkReferences": {
    "contracts/libraries/LibAccess.sol": {
      "LibAccess": [
        {
          "length": 20,
          "start": 2488
        },
        {
          "length": 20,
          "start": 2745
        },
        {
          "length": 20,
          "start": 4003
        }
      ]
    },
    "contracts/libraries/LibVectorAddress.sol": {
      "LibVectorAddress": [
        {
          "length": 20,
          "start": 4156
        }
      ]
    }
  },
  "deployedLinkReferences": {
    "contracts/libraries/LibAccess.sol": {
      "LibAccess": [
        {
          "length": 20,
          "start": 1336
        },
        {
          "length": 20,
          "start": 1593
        },
        {
          "length": 20,
          "start": 2851
        }
      ]
    },
    "contracts/libraries/LibVectorAddress.sol": {
      "LibVectorAddress": [
        {
          "length": 20,
          "start": 3004
        }
      ]
    }
  }
}