{
  "_format": "hh-sol-artifact-1",
  "contractName": "CompanyRegistry",
  "sourceName": "contracts/company/CompanyRegistry.sol",
  "abi": [
    {
      "inputs": [
        {
          "components": [
            {
              "internalType": "address",
              "name": "mainAdmin",
              "type": "address"
            },
            {
              "internalType": "address",
              "name": "companyFactory",
              "type": "address"
            },
            {
              "internalType": "address",
              "name": "worldRegistry",
              "type": "address"
            },
            {
              "internalType": "address[]",
              "name": "admins",
              "type": "address[]"
            }
          ],
          "internalType": "struct CompanyRegistryArgs",
          "name": "args",
          "type": "tuple"
        }
      ],
      "stateMutability": "nonpayable",
      "type": "constructor"
    },
    {
      "inputs": [],
      "name": "AccessControlBadConfirmation",
      "type": "error"
    },
    {
      "inputs": [
        {
          "internalType": "address",
          "name": "account",
          "type": "address"
        },
        {
          "internalType": "bytes32",
          "name": "neededRole",
          "type": "bytes32"
        }
      ],
      "name": "AccessControlUnauthorizedAccount",
      "type": "error"
    },
    {
      "inputs": [],
      "name": "ReentrancyGuardReentrantCall",
      "type": "error"
    },
    {
      "anonymous": false,
      "inputs": [
        {
          "indexed": true,
          "internalType": "address",
          "name": "company",
          "type": "address"
        },
        {
          "components": [
            {
              "internalType": "string",
              "name": "x",
              "type": "string"
            },
            {
              "internalType": "string",
              "name": "y",
              "type": "string"
            },
            {
              "internalType": "string",
              "name": "z",
              "type": "string"
            },
            {
              "internalType": "uint256",
              "name": "t",
              "type": "uint256"
            },
            {
              "internalType": "uint256",
              "name": "p",
              "type": "uint256"
            },
            {
              "internalType": "uint256",
              "name": "p_sub",
              "type": "uint256"
            }
          ],
          "indexed": true,
          "internalType": "struct VectorAddress",
          "name": "",
          "type": "tuple"
        }
      ],
      "name": "CompanyRegistered",
      "type": "event"
    },
    {
      "anonymous": false,
      "inputs": [
        {
          "indexed": true,
          "internalType": "address",
          "name": "company",
          "type": "address"
        }
      ],
      "name": "CompanyRemoved",
      "type": "event"
    },
    {
      "anonymous": false,
      "inputs": [
        {
          "indexed": true,
          "internalType": "bytes32",
          "name": "role",
          "type": "bytes32"
        },
        {
          "indexed": true,
          "internalType": "bytes32",
          "name": "previousAdminRole",
          "type": "bytes32"
        },
        {
          "indexed": true,
          "internalType": "bytes32",
          "name": "newAdminRole",
          "type": "bytes32"
        }
      ],
      "name": "RoleAdminChanged",
      "type": "event"
    },
    {
      "anonymous": false,
      "inputs": [
        {
          "indexed": true,
          "internalType": "bytes32",
          "name": "role",
          "type": "bytes32"
        },
        {
          "indexed": true,
          "internalType": "address",
          "name": "account",
          "type": "address"
        },
        {
          "indexed": true,
          "internalType": "address",
          "name": "sender",
          "type": "address"
        }
      ],
      "name": "RoleGranted",
      "type": "event"
    },
    {
      "anonymous": false,
      "inputs": [
        {
          "indexed": true,
          "internalType": "bytes32",
          "name": "role",
          "type": "bytes32"
        },
        {
          "indexed": true,
          "internalType": "address",
          "name": "account",
          "type": "address"
        },
        {
          "indexed": true,
          "internalType": "address",
          "name": "sender",
          "type": "address"
        }
      ],
      "name": "RoleRevoked",
      "type": "event"
    },
    {
      "inputs": [],
      "name": "ADMIN_ROLE",
      "outputs": [
        {
          "internalType": "bytes32",
          "name": "",
          "type": "bytes32"
        }
      ],
      "stateMutability": "view",
      "type": "function"
    },
    {
      "inputs": [],
      "name": "DEFAULT_ADMIN_ROLE",
      "outputs": [
        {
          "internalType": "bytes32",
          "name": "",
          "type": "bytes32"
        }
      ],
      "stateMutability": "view",
      "type": "function"
    },
    {
      "inputs": [],
      "name": "companyFactory",
      "outputs": [
        {
          "internalType": "contract ICompanyFactory",
          "name": "",
          "type": "address"
        }
      ],
      "stateMutability": "view",
      "type": "function"
    },
    {
      "inputs": [],
      "name": "currentCompanyVersion",
      "outputs": [
        {
          "internalType": "uint256",
          "name": "",
          "type": "uint256"
        }
      ],
      "stateMutability": "view",
      "type": "function"
    },
    {
      "inputs": [
        {
          "internalType": "bytes32",
          "name": "role",
          "type": "bytes32"
        }
      ],
      "name": "getRoleAdmin",
      "outputs": [
        {
          "internalType": "bytes32",
          "name": "",
          "type": "bytes32"
        }
      ],
      "stateMutability": "view",
      "type": "function"
    },
    {
      "inputs": [
        {
          "internalType": "bytes32",
          "name": "role",
          "type": "bytes32"
        },
        {
          "internalType": "address",
          "name": "account",
          "type": "address"
        }
      ],
      "name": "grantRole",
      "outputs": [],
      "stateMutability": "nonpayable",
      "type": "function"
    },
    {
      "inputs": [
        {
          "internalType": "bytes32",
          "name": "role",
          "type": "bytes32"
        },
        {
          "internalType": "address",
          "name": "account",
          "type": "address"
        }
      ],
      "name": "hasRole",
      "outputs": [
        {
          "internalType": "bool",
          "name": "",
          "type": "bool"
        }
      ],
      "stateMutability": "view",
      "type": "function"
    },
    {
      "inputs": [
        {
          "internalType": "address",
          "name": "company",
          "type": "address"
        }
      ],
      "name": "isRegisteredCompany",
      "outputs": [
        {
          "internalType": "bool",
          "name": "",
          "type": "bool"
        }
      ],
      "stateMutability": "view",
      "type": "function"
    },
    {
      "inputs": [
        {
          "components": [
            {
              "internalType": "bool",
              "name": "sendTokensToCompanyOwner",
              "type": "bool"
            },
            {
              "internalType": "address",
              "name": "owner",
              "type": "address"
            },
            {
              "components": [
                {
                  "internalType": "string",
                  "name": "x",
                  "type": "string"
                },
                {
                  "internalType": "string",
                  "name": "y",
                  "type": "string"
                },
                {
                  "internalType": "string",
                  "name": "z",
                  "type": "string"
                },
                {
                  "internalType": "uint256",
                  "name": "t",
                  "type": "uint256"
                },
                {
                  "internalType": "uint256",
                  "name": "p",
                  "type": "uint256"
                },
                {
                  "internalType": "uint256",
                  "name": "p_sub",
                  "type": "uint256"
                }
              ],
              "internalType": "struct VectorAddress",
              "name": "vector",
              "type": "tuple"
            },
            {
              "internalType": "bytes",
              "name": "initData",
              "type": "bytes"
            },
            {
              "internalType": "string",
              "name": "name",
              "type": "string"
            }
          ],
          "internalType": "struct CompanyRegistrationRequest",
          "name": "request",
          "type": "tuple"
        }
      ],
      "name": "registerCompany",
      "outputs": [
        {
          "internalType": "address",
          "name": "",
          "type": "address"
        }
      ],
      "stateMutability": "payable",
      "type": "function"
    },
    {
      "inputs": [
        {
          "internalType": "address",
          "name": "company",
          "type": "address"
        }
      ],
      "name": "removeCompany",
      "outputs": [],
      "stateMutability": "nonpayable",
      "type": "function"
    },
    {
      "inputs": [
        {
          "internalType": "bytes32",
          "name": "role",
          "type": "bytes32"
        },
        {
          "internalType": "address",
          "name": "callerConfirmation",
          "type": "address"
        }
      ],
      "name": "renounceRole",
      "outputs": [],
      "stateMutability": "nonpayable",
      "type": "function"
    },
    {
      "inputs": [
        {
          "internalType": "bytes32",
          "name": "role",
          "type": "bytes32"
        },
        {
          "internalType": "address",
          "name": "account",
          "type": "address"
        }
      ],
      "name": "revokeRole",
      "outputs": [],
      "stateMutability": "nonpayable",
      "type": "function"
    },
    {
      "inputs": [
        {
          "internalType": "address",
          "name": "factory",
          "type": "address"
        }
      ],
      "name": "setCompanyFactory",
      "outputs": [],
      "stateMutability": "nonpayable",
      "type": "function"
    },
    {
      "inputs": [
        {
          "internalType": "address",
          "name": "registry",
          "type": "address"
        }
      ],
      "name": "setWorldRegistry",
      "outputs": [],
      "stateMutability": "nonpayable",
      "type": "function"
    },
    {
      "inputs": [
        {
          "internalType": "bytes4",
          "name": "interfaceId",
          "type": "bytes4"
        }
      ],
      "name": "supportsInterface",
      "outputs": [
        {
          "internalType": "bool",
          "name": "",
          "type": "bool"
        }
      ],
      "stateMutability": "view",
      "type": "function"
    },
    {
      "inputs": [
        {
          "internalType": "bytes",
          "name": "initData",
          "type": "bytes"
        }
      ],
      "name": "upgradeCompany",
      "outputs": [],
      "stateMutability": "nonpayable",
      "type": "function"
    },
    {
      "inputs": [],
      "name": "worldRegistry",
      "outputs": [
        {
          "internalType": "contract IWorldRegistryV2",
          "name": "",
          "type": "address"
        }
      ],
      "stateMutability": "view",
      "type": "function"
    },
    {
      "stateMutability": "payable",
      "type": "receive"
    }
  ],
  "bytecode": "0x60806040523480156200001157600080fd5b50604051620021cc380380620021cc83398101604081905262000034916200042a565b600160005580516001600160a01b0316620000ae5760405162461bcd60e51b815260206004820152602f60248201527f436f6d70616e7952656769737472793a206d61696e2061646d696e206164647260448201526e06573732063616e6e6f74206265203608c1b60648201526084015b60405180910390fd5b8051620000be9060009062000302565b508051620000dd90600080516020620021ac8339815191529062000302565b5060208101516001600160a01b03166200014f5760405162461bcd60e51b815260206004820152602c60248201527f436f6d70616e7952656769737472793a20666163746f7279206164647265737360448201526b02063616e6e6f7420626520360a41b6064820152608401620000a5565b60408101516001600160a01b0316620001d15760405162461bcd60e51b815260206004820152603360248201527f436f6d70616e7952656769737472793a20776f726c642072656769737472792060448201527f616464726573732063616e6e6f742062652030000000000000000000000000006064820152608401620000a5565b6020810151600280546001600160a01b039283166001600160a01b03199182161790915560408301516003805491909316911617905560005b816060015151811015620002fa5760006001600160a01b0316826060015182815181106200023c576200023c6200054d565b60200260200101516001600160a01b031603620002af5760405162461bcd60e51b815260206004820152602a60248201527f436f6d70616e7952656769737472793a2061646d696e206164647265737320636044820152690616e6e6f7420626520360b41b6064820152608401620000a5565b620002f0600080516020620021ac83398151915283606001518381518110620002dc57620002dc6200054d565b60200260200101516200030260201b60201c565b506001016200020a565b505062000563565b60008281526001602090815260408083206001600160a01b038516845290915281205460ff166200038f5760008381526001602081815260408084206001600160a01b0387168086529252808420805460ff19169093179092559051339286917f2f8788117e7eff1d82e926ec794901d17c78024a50270940304540a733656f0d9190a450600162000393565b5060005b92915050565b634e487b7160e01b600052604160045260246000fd5b604051608081016001600160401b0381118282101715620003d457620003d462000399565b60405290565b604051601f8201601f191681016001600160401b038111828210171562000405576200040562000399565b604052919050565b80516001600160a01b03811681146200042557600080fd5b919050565b600060208083850312156200043e57600080fd5b82516001600160401b03808211156200045657600080fd5b90840190608082870312156200046b57600080fd5b62000475620003af565b62000480836200040d565b81526200048f8484016200040d565b84820152620004a1604084016200040d565b6040820152606083015182811115620004b957600080fd5b80840193505086601f840112620004cf57600080fd5b825182811115620004e457620004e462000399565b8060051b9250620004f7858401620003da565b81815292840185019285810190898511156200051257600080fd5b948601945b848610156200053b576200052b866200040d565b8252948601949086019062000517565b60608401525090979650505050505050565b634e487b7160e01b600052603260045260246000fd5b611c3980620005736000396000f3fe6080604052600436106101025760003560e01c806382c154e011610095578063a217fddf11610064578063a217fddf146102f1578063d449cf2514610306578063d547741f14610326578063dc1c44be14610346578063e237fbad1461036657600080fd5b806382c154e01461025857806390159c9414610278578063911c2a8c146102b157806391d14854146102d157600080fd5b80632f2ff15d116100d15780632f2ff15d146101cf57806336568abe146101ef5780635c3ce6931461020f57806375b238fc1461022457600080fd5b806301ffc9a71461010e57806320ee2dcc1461014357806322feaee614610165578063248a9ca31461019057600080fd5b3661010957005b600080fd5b34801561011a57600080fd5b5061012e61012936600461130e565b610386565b60405190151581526020015b60405180910390f35b34801561014f57600080fd5b5061016361015e36600461135f565b6103bd565b005b610178610173366004611558565b61079f565b6040516001600160a01b03909116815260200161013a565b34801561019c57600080fd5b506101c16101ab36600461162f565b6000908152600160208190526040909120015490565b60405190815260200161013a565b3480156101db57600080fd5b506101636101ea366004611648565b610b6d565b3480156101fb57600080fd5b5061016361020a366004611648565b610b99565b34801561021b57600080fd5b506101c1610bd1565b34801561023057600080fd5b506101c17fa49807205ce4d355092ef5a8a18f56e8913cf4a201fbe287825b095693c2177581565b34801561026457600080fd5b5061016361027336600461135f565b610c44565b34801561028457600080fd5b5061012e61029336600461135f565b6001600160a01b031660009081526005602052604090205460ff1690565b3480156102bd57600080fd5b50600354610178906001600160a01b031681565b3480156102dd57600080fd5b5061012e6102ec366004611648565b610d17565b3480156102fd57600080fd5b506101c1600081565b34801561031257600080fd5b50610163610321366004611678565b610d42565b34801561033257600080fd5b50610163610341366004611648565b610e2e565b34801561035257600080fd5b50600254610178906001600160a01b031681565b34801561037257600080fd5b5061016361038136600461135f565b610e54565b60006001600160e01b03198216637965db0b60e01b14806103b757506301ffc9a760e01b6001600160e01b03198316145b92915050565b600354604051637856879f60e11b81523360048201526001600160a01b039091169063f0ad0f3e90602401602060405180830381865afa158015610405573d6000803e3d6000fd5b505050506040513d601f19601f8201168201806040525081019061042991906116ea565b61044e5760405162461bcd60e51b815260040161044590611707565b60405180910390fd5b610456610f2e565b6000819050336001600160a01b0316816001600160a01b03166330b67baa6040518163ffffffff1660e01b8152600401602060405180830381865afa1580156104a3573d6000803e3d6000fd5b505050506040513d601f19601f820116820180604052508101906104c7919061174d565b6001600160a01b0316146105435760405162461bcd60e51b815260206004820152603b60248201527f436f6d70616e7952656769737472793a2063616c6c6572206973206e6f74207460448201527f686520706172656e7420776f726c6420666f7220636f6d70616e7900000000006064820152608401610445565b6001600160a01b03821660009081526005602052604090205460ff166105bb5760405162461bcd60e51b815260206004820152602760248201527f436f6d70616e7952656769737472793a20636f6d70616e79206e6f74207265676044820152661a5cdd195c995960ca1b6064820152608401610445565b6000816001600160a01b0316632fcbab9a6040518163ffffffff1660e01b8152600401600060405180830381865afa1580156105fb573d6000803e3d6000fd5b505050506040513d6000823e601f3d908101601f1916820160405261062391908101906117db565b9050826001600160a01b03166351b42b006040518163ffffffff1660e01b8152600401600060405180830381600087803b15801561066057600080fd5b505af1158015610674573d6000803e3d6000fd5b5050506001600160a01b038416600081815260056020526040808220805460ff1916905580516306fdde0360e01b815290516004945061070193926306fdde03928087019290819003870181865afa1580156106d4573d6000803e3d6000fd5b505050506040513d6000823e601f3d908101601f191682016040526106fc91908101906118b1565b610f58565b60405161070e91906118e6565b90815260405190819003602001902080546001600160a01b03191690556006600061073883610fc8565b805160209182012082528101919091526040908101600090812080546001600160a01b031916905590516001600160a01b038516917f842a0c36aded642f477dfd0dc633355e99cc660741c20a3693f73b7a2b93760891a2505061079c6001600055565b50565b600354604051637856879f60e11b81523360048201526000916001600160a01b03169063f0ad0f3e90602401602060405180830381865afa1580156107e8573d6000803e3d6000fd5b505050506040513d601f19601f8201168201806040525081019061080c91906116ea565b6108285760405162461bcd60e51b815260040161044590611707565b610830610f2e565b600061083f8360800151610f58565b905060006001600160a01b031660048260405161085c91906118e6565b908152604051908190036020019020546001600160a01b0316146108d65760405162461bcd60e51b815260206004820152602b60248201527f436f6d70616e7952656769737472793a20636f6d70616e79206e616d6520616c60448201526a3932b0b23c903a30b5b2b760a91b6064820152608401610445565b6002546040805160a0810182526020808701516001600160a01b0390811683523391830191909152868301518284015260608088015190830152608080880151908301529151637be4fdd760e11b8152600093929092169163f7c9fbae916109409160040161192e565b6020604051808303816000875af115801561095f573d6000803e3d6000fd5b505050506040513d601f19601f82011682018060405250810190610983919061174d565b90506001600160a01b0381166109ec5760405162461bcd60e51b815260206004820152602860248201527f436f6d70616e7952656769737472793a20636f6d70616e79206372656174696f6044820152671b8819985a5b195960c21b6064820152608401610445565b806004836040516109fd91906118e6565b908152604080516020928190038301902080546001600160a01b0319166001600160a01b0394851617905591831660009081526005909152818120805460ff19166001179055908501518291600691610a5590610fc8565b8051602091820120825281019190915260400160002080546001600160a01b0319166001600160a01b03929092169190911790553415610b0e57835115610ad75760208401516040516001600160a01b03909116903480156108fc02916000818181858888f19350505050158015610ad1573d6000803e3d6000fd5b50610b0e565b6040516001600160a01b038216903480156108fc02916000818181858888f19350505050158015610b0c573d6000803e3d6000fd5b505b8360400151604051610b209190611a19565b604051908190038120906001600160a01b038316907f7d4bf7edd813e2887ba5c21733818d0fb09a3e972e1dbc39a7f639fda34dd71490600090a3915050610b686001600055565b919050565b60008281526001602081905260409091200154610b898161102b565b610b938383611035565b50505050565b6001600160a01b0381163314610bc25760405163334bd91960e11b815260040160405180910390fd5b610bcc82826110ae565b505050565b6002546040805163e921c27560e01b815290516000926001600160a01b03169163e921c2759160048083019260209291908290030181865afa158015610c1b573d6000803e3d6000fd5b505050506040513d601f19601f82011682018060405250810190610c3f9190611aa7565b905090565b610c6e7fa49807205ce4d355092ef5a8a18f56e8913cf4a201fbe287825b095693c2177533610d17565b610c8a5760405162461bcd60e51b815260040161044590611ac0565b6001600160a01b038116610cf55760405162461bcd60e51b815260206004820152602c60248201527f436f6d70616e7952656769737472793a20666163746f7279206164647265737360448201526b02063616e6e6f7420626520360a41b6064820152608401610445565b600280546001600160a01b0319166001600160a01b0392909216919091179055565b60009182526001602090815260408084206001600160a01b0393909316845291905290205460ff1690565b3360009081526005602052604090205460ff16610db25760405162461bcd60e51b815260206004820152602860248201527f436f6d70616e7952656769737472793a2063616c6c6572206973206e6f74206160448201526720636f6d70616e7960c01b6064820152608401610445565b610dba610f2e565b600254604051634b48b55d60e11b81526001600160a01b03909116906396916aba90610dee90339086908690600401611b07565b600060405180830381600087803b158015610e0857600080fd5b505af1158015610e1c573d6000803e3d6000fd5b50505050610e2a6001600055565b5050565b60008281526001602081905260409091200154610e4a8161102b565b610b9383836110ae565b610e7e7fa49807205ce4d355092ef5a8a18f56e8913cf4a201fbe287825b095693c2177533610d17565b610e9a5760405162461bcd60e51b815260040161044590611ac0565b6001600160a01b038116610f0c5760405162461bcd60e51b815260206004820152603360248201527f436f6d70616e7952656769737472793a20776f726c64207265676973747279206044820152720616464726573732063616e6e6f74206265203606c1b6064820152608401610445565b600380546001600160a01b0319166001600160a01b0392909216919091179055565b600260005403610f5157604051633ee5aeb560e01b815260040160405180910390fd5b6002600055565b60608160005b8151811015610fc157610f90828281518110610f7c57610f7c611b47565b01602001516001600160f81b03191661111b565b828281518110610fa257610fa2611b47565b60200101906001600160f81b031916908160001a905350600101610f5e565b5092915050565b6060816000015182602001518360400151610fe6856060015161116a565b610ff3866080015161116a565b6110008760a0015161116a565b60405160200161101596959493929190611b5d565b6040516020818303038152906040529050919050565b61079c81336111fd565b60006110418383610d17565b6110a65760008381526001602081815260408084206001600160a01b0387168086529252808420805460ff19169093179092559051339286917f2f8788117e7eff1d82e926ec794901d17c78024a50270940304540a733656f0d9190a45060016103b7565b5060006103b7565b60006110ba8383610d17565b156110a65760008381526001602090815260408083206001600160a01b0386168085529252808320805460ff1916905551339286917ff6391f5c32d9c69d2a47ea670b442974b53935d1edc7fd64eb21e047a839171b9190a45060016103b7565b6000604160f81b6001600160f81b03198316108015906111495750602d60f91b6001600160f81b0319831611155b156111665761115d60f883901c6020611bdc565b60f81b92915050565b5090565b6060600061117783611236565b600101905060008167ffffffffffffffff8111156111975761119761137c565b6040519080825280601f01601f1916602001820160405280156111c1576020820181803683370190505b5090508181016020015b600019016f181899199a1a9b1b9c1cb0b131b232b360811b600a86061a8153600a85049450846111cb57509392505050565b6112078282610d17565b610e2a5760405163e2517d3f60e01b81526001600160a01b038216600482015260248101839052604401610445565b60008072184f03e93ff9f4daa797ed6e38ed64bf6a1f0160401b83106112755772184f03e93ff9f4daa797ed6e38ed64bf6a1f0160401b830492506040015b6d04ee2d6d415b85acef810000000083106112a1576d04ee2d6d415b85acef8100000000830492506020015b662386f26fc1000083106112bf57662386f26fc10000830492506010015b6305f5e10083106112d7576305f5e100830492506008015b61271083106112eb57612710830492506004015b606483106112fd576064830492506002015b600a83106103b75760010192915050565b60006020828403121561132057600080fd5b81356001600160e01b03198116811461133857600080fd5b9392505050565b6001600160a01b038116811461079c57600080fd5b8035610b688161133f565b60006020828403121561137157600080fd5b81356113388161133f565b634e487b7160e01b600052604160045260246000fd5b60405160c0810167ffffffffffffffff811182821017156113b5576113b561137c565b60405290565b60405160a0810167ffffffffffffffff811182821017156113b5576113b561137c565b604051601f8201601f1916810167ffffffffffffffff811182821017156114075761140761137c565b604052919050565b801515811461079c57600080fd5b8035610b688161140f565b600067ffffffffffffffff8211156114425761144261137c565b50601f01601f191660200190565b600082601f83011261146157600080fd5b813561147461146f82611428565b6113de565b81815284602083860101111561148957600080fd5b816020850160208301376000918101602001919091529392505050565b600060c082840312156114b857600080fd5b6114c0611392565b9050813567ffffffffffffffff808211156114da57600080fd5b6114e685838601611450565b835260208401359150808211156114fc57600080fd5b61150885838601611450565b6020840152604084013591508082111561152157600080fd5b5061152e84828501611450565b604083015250606082013560608201526080820135608082015260a082013560a082015292915050565b60006020828403121561156a57600080fd5b813567ffffffffffffffff8082111561158257600080fd5b9083019060a0828603121561159657600080fd5b61159e6113bb565b6115a78361141d565b81526115b560208401611354565b60208201526040830135828111156115cc57600080fd5b6115d8878286016114a6565b6040830152506060830135828111156115f057600080fd5b6115fc87828601611450565b60608301525060808301358281111561161457600080fd5b61162087828601611450565b60808301525095945050505050565b60006020828403121561164157600080fd5b5035919050565b6000806040838503121561165b57600080fd5b82359150602083013561166d8161133f565b809150509250929050565b6000806020838503121561168b57600080fd5b823567ffffffffffffffff808211156116a357600080fd5b818501915085601f8301126116b757600080fd5b8135818111156116c657600080fd5b8660208285010111156116d857600080fd5b60209290920196919550909350505050565b6000602082840312156116fc57600080fd5b81516113388161140f565b60208082526026908201527f436f6d70616e7952656769737472793a2063616c6c6572206973206e6f742061604082015265081ddbdc9b1960d21b606082015260800190565b60006020828403121561175f57600080fd5b81516113388161133f565b60005b8381101561178557818101518382015260200161176d565b50506000910152565b600082601f83011261179f57600080fd5b81516117ad61146f82611428565b8181528460208386010111156117c257600080fd5b6117d382602083016020870161176a565b949350505050565b6000602082840312156117ed57600080fd5b815167ffffffffffffffff8082111561180557600080fd5b9083019060c0828603121561181957600080fd5b611821611392565b82518281111561183057600080fd5b61183c8782860161178e565b82525060208301518281111561185157600080fd5b61185d8782860161178e565b60208301525060408301518281111561187557600080fd5b6118818782860161178e565b604083015250606083015160608201526080830151608082015260a083015160a082015280935050505092915050565b6000602082840312156118c357600080fd5b815167ffffffffffffffff8111156118da57600080fd5b6117d38482850161178e565b600082516118f881846020870161176a565b9190910192915050565b6000815180845261191a81602086016020860161176a565b601f01601f19169290920160200192915050565b60208152600060018060a01b0380845116602084015280602085015116604084015250604083015160a06060840152805160c080850152611973610180850182611902565b9050602082015160bf19808684030160e08701526119918383611902565b9250604084015191508086840301610100870152506119b08282611902565b9150506060820151610120850152608082015161014085015260a082015161016085015260608501519150601f19808583030160808601526119f28284611902565b925060808601519150808584030160a086015250611a108282611902565b95945050505050565b600082518051611a2d81856020850161176a565b601f19915081601f8201168401905060208501518051611a5181846020850161176a565b83601f82011683019250505060408501518051611a7281846020850161176a565b83601f82011683019350505050606084015181526080840151602082015260a084015160408201526060810191505092915050565b600060208284031215611ab957600080fd5b5051919050565b60208082526027908201527f436f6d70616e7952656769737472793a2063616c6c6572206973206e6f742061604082015266371030b236b4b760c91b606082015260800190565b6001600160a01b03841681526040602082018190528101829052818360608301376000818301606090810191909152601f909201601f1916010192915050565b634e487b7160e01b600052603260045260246000fd5b600087516020611b708285838d0161176a565b885191840191611b838184848d0161176a565b8851920191611b958184848c0161176a565b8751920191611ba78184848b0161176a565b8651920191611bb98184848a0161176a565b8551920191611bcb818484890161176a565b919091019998505050505050505050565b60ff81811683821601908111156103b757634e487b7160e01b600052601160045260246000fdfea2646970667358221220867f30a78e8333a28c133c82f97cb52d8cc14fddae1a7d5fc469809ba5612fea64736f6c63430008180033a49807205ce4d355092ef5a8a18f56e8913cf4a201fbe287825b095693c21775",
  "linkReferences": {},
  "deployedLinkReferences": {}
}