{
  "_format": "hh-sol-artifact-1",
  "contractName": "CompanyAddExperienceExt",
  "sourceName": "contracts/extensions/company/CompanyAddExperienceExt.sol",
  "abi": [
    {
      "inputs": [
        {
          "internalType": "uint256",
          "name": "value",
          "type": "uint256"
        },
        {
          "internalType": "uint256",
          "name": "length",
          "type": "uint256"
        }
      ],
      "name": "StringsInsufficientHexLength",
      "type": "error"
    },
    {
      "anonymous": false,
      "inputs": [
        {
          "indexed": true,
          "internalType": "address",
          "name": "experience",
          "type": "address"
        },
        {
          "indexed": true,
          "internalType": "uint256",
          "name": "portalId",
          "type": "uint256"
        }
      ],
      "name": "CompanyAddedExperience",
      "type": "event"
    },
    {
      "anonymous": false,
      "inputs": [
        {
          "indexed": true,
          "internalType": "address",
          "name": "experience",
          "type": "address"
        },
        {
          "indexed": false,
          "internalType": "string",
          "name": "reason",
          "type": "string"
        }
      ],
      "name": "CompanyDeactivatedExperience",
      "type": "event"
    },
    {
      "anonymous": false,
      "inputs": [
        {
          "indexed": true,
          "internalType": "address",
          "name": "experience",
          "type": "address"
        }
      ],
      "name": "CompanyReactivatedExperience",
      "type": "event"
    },
    {
      "anonymous": false,
      "inputs": [
        {
          "indexed": true,
          "internalType": "address",
          "name": "experience",
          "type": "address"
        },
        {
          "indexed": false,
          "internalType": "string",
          "name": "reason",
          "type": "string"
        },
        {
          "indexed": true,
          "internalType": "uint256",
          "name": "portalId",
          "type": "uint256"
        }
      ],
      "name": "CompanyRemovedExperience",
      "type": "event"
    },
    {
      "inputs": [
        {
          "components": [
            {
              "internalType": "string",
              "name": "name",
              "type": "string"
            },
            {
              "internalType": "bytes",
              "name": "initData",
              "type": "bytes"
            }
          ],
          "internalType": "struct AddExperienceArgs",
          "name": "args",
          "type": "tuple"
        }
      ],
      "name": "addExperience",
      "outputs": [
        {
          "internalType": "address",
          "name": "experience",
          "type": "address"
        },
        {
          "internalType": "uint256",
          "name": "portalId",
          "type": "uint256"
        }
      ],
      "stateMutability": "nonpayable",
      "type": "function"
    },
    {
      "inputs": [
        {
          "internalType": "address",
          "name": "experience",
          "type": "address"
        },
        {
          "internalType": "string",
          "name": "reason",
          "type": "string"
        }
      ],
      "name": "deactivateExperience",
      "outputs": [],
      "stateMutability": "nonpayable",
      "type": "function"
    },
    {
      "inputs": [
        {
          "components": [
            {
              "internalType": "address",
              "name": "owner",
              "type": "address"
            },
            {
              "internalType": "address",
              "name": "owningRegistry",
              "type": "address"
            },
            {
              "internalType": "address[]",
              "name": "admins",
              "type": "address[]"
            }
          ],
          "internalType": "struct ExtensionInitArgs",
          "name": "args",
          "type": "tuple"
        }
      ],
      "name": "initStorage",
      "outputs": [],
      "stateMutability": "nonpayable",
      "type": "function"
    },
    {
      "inputs": [
        {
          "internalType": "address",
          "name": "myAddress",
          "type": "address"
        }
      ],
      "name": "install",
      "outputs": [],
      "stateMutability": "nonpayable",
      "type": "function"
    },
    {
      "inputs": [],
      "name": "metadata",
      "outputs": [
        {
          "components": [
            {
              "internalType": "string",
              "name": "name",
              "type": "string"
            },
            {
              "components": [
                {
                  "internalType": "uint16",
                  "name": "major",
                  "type": "uint16"
                },
                {
                  "internalType": "uint16",
                  "name": "minor",
                  "type": "uint16"
                }
              ],
              "internalType": "struct Version",
              "name": "version",
              "type": "tuple"
            }
          ],
          "internalType": "struct ExtensionMetadata",
          "name": "",
          "type": "tuple"
        }
      ],
      "stateMutability": "pure",
      "type": "function"
    },
    {
      "inputs": [
        {
          "internalType": "address",
          "name": "experience",
          "type": "address"
        }
      ],
      "name": "reactivateExperience",
      "outputs": [],
      "stateMutability": "nonpayable",
      "type": "function"
    },
    {
      "inputs": [
        {
          "internalType": "address",
          "name": "experience",
          "type": "address"
        },
        {
          "internalType": "string",
          "name": "reason",
          "type": "string"
        }
      ],
      "name": "removeExperience",
      "outputs": [
        {
          "internalType": "uint256",
          "name": "portalId",
          "type": "uint256"
        }
      ],
      "stateMutability": "nonpayable",
      "type": "function"
    },
    {
      "inputs": [
        {
          "internalType": "address",
          "name": "myAddress",
          "type": "address"
        }
      ],
      "name": "upgrade",
      "outputs": [],
      "stateMutability": "nonpayable",
      "type": "function"
    }
  ],
  "bytecode": "0x608060405234801561001057600080fd5b506118bb806100206000396000f3fe608060405234801561001057600080fd5b50600436106100885760003560e01c8063464570b61161005b578063464570b6146100ff578063729963c014610112578063d802a9a214610120578063fcc111841461013357600080fd5b80630900f0101461008d578063243546a6146100a05780632a1b8f9b146100d7578063392f37e9146100ea575b600080fd5b61009e61009b366004610fe7565b50565b005b6100b36100ae366004611104565b610154565b604080516001600160a01b0390931683526020830191909152015b60405180910390f35b61009e6100e5366004610fe7565b6103c6565b6100f26105ea565b6040516100ce9190611210565b61009e61010d366004611255565b61064d565b61009e61009b3660046112da565b61009e61012e366004610fe7565b6107f4565b610146610141366004611255565b610984565b6040519081526020016100ce565b604051637df73e2760e01b8152336004820152600090819073__$a5a42e46683ad9c79b7b86d5ff60fdf4c1$__90637df73e2790602401602060405180830381865af41580156101a8573d6000803e3d6000fd5b505050506040513d601f19601f820116820180604052508101906101cc9190611315565b6101f15760405162461bcd60e51b81526004016101e890611337565b60405180910390fd5b60003090506000816001600160a01b0316632fcbab9a6040518163ffffffff1660e01b8152600401600060405180830381865afa158015610236573d6000803e3d6000fd5b505050506040513d6000823e601f3d908101601f1916820160405261025e91908101906113d9565b9050600061026a610b44565b9050806000016000815461027d906114c5565b90915550805460a08301526040805160608101825283815287516020808301919091528881015182840152825163185b3dd560e11b8152925191926000926001600160a01b038816926330b67baa92600480820193918290030181865afa1580156102ec573d6000803e3d6000fd5b505050506040513d601f19601f8201168201806040525081019061031091906114de565b6040516305117adf60e31b81529091506001600160a01b0382169063288bd6f89061033f9085906004016114fb565b60408051808303816000875af115801561035d573d6000803e3d6000fd5b505050506040513d601f19601f8201168201806040525081019061038191906115c5565b604051919850965086906001600160a01b038916907fdd1416df66cb3941d0ab5716b19acf9c3c0f4afbd2bfe67a0d6a8f6ab6d3afc890600090a35050505050915091565b60408051600480825260a08201909252600091816020015b6040805180820190915260008152606060208201528152602001906001900390816103de57505060408051808201825263121aa35360e11b8152815180830190925260208083527f616464457870657269656e636528416464457870657269656e63654172677329838201528101919091528151919250908290600090610467576104676115f3565b6020026020010181905250604051806040016040528063464570b660e01b6001600160e01b031916815260200160405180606001604052806024815260200161186260249139815250816001815181106104c3576104c36115f3565b6020026020010181905250604051806040016040528063d802a9a260e01b6001600160e01b03191681526020016040518060400160405280601d81526020017f72656163746976617465457870657269656e63652861646472657373290000008152508152508160028151811061053c5761053c6115f3565b6020026020010181905250604051806040016040528063fcc1118460e01b6001600160e01b03191681526020016040518060400160405280602081526020017f72656d6f7665457870657269656e636528616464726573732c737472696e6729815250815250816003815181106105b5576105b56115f3565b60200260200101819052506105e66040518060400160405280846001600160a01b0316815260200183815250610bd2565b5050565b6105f2610f96565b506040805160808101825260178183019081527f436f6d70616e79416464457870657269656e636545787400000000000000000060608301528152815180830190925260018252600060208381019190915281019190915290565b604051637df73e2760e01b815233600482015273__$a5a42e46683ad9c79b7b86d5ff60fdf4c1$__90637df73e2790602401602060405180830381865af415801561069c573d6000803e3d6000fd5b505050506040513d601f19601f820116820180604052508101906106c09190611315565b6106dc5760405162461bcd60e51b81526004016101e890611337565b60003090506000816001600160a01b03166330b67baa6040518163ffffffff1660e01b8152600401602060405180830381865afa158015610721573d6000803e3d6000fd5b505050506040513d601f19601f8201168201806040525081019061074591906114de565b604051632322b85b60e11b81529091506001600160a01b0382169063464570b69061077890889088908890600401611632565b600060405180830381600087803b15801561079257600080fd5b505af11580156107a6573d6000803e3d6000fd5b50505050846001600160a01b03167fc91cc589ef4d878043f7e06130f3d528ea3c4a576304e36f5a59ff581289df7d85856040516107e5929190611657565b60405180910390a25050505050565b604051637df73e2760e01b815233600482015273__$a5a42e46683ad9c79b7b86d5ff60fdf4c1$__90637df73e2790602401602060405180830381865af4158015610843573d6000803e3d6000fd5b505050506040513d601f19601f820116820180604052508101906108679190611315565b6108835760405162461bcd60e51b81526004016101e890611337565b60003090506000816001600160a01b03166330b67baa6040518163ffffffff1660e01b8152600401602060405180830381865afa1580156108c8573d6000803e3d6000fd5b505050506040513d601f19601f820116820180604052508101906108ec91906114de565b604051636c0154d160e11b81526001600160a01b0385811660048301529192509082169063d802a9a290602401600060405180830381600087803b15801561093357600080fd5b505af1158015610947573d6000803e3d6000fd5b50506040516001600160a01b03861692507fd7e0376b54023f1e8815a6ea5ec645b5f27e7d78eb66542e2ace843add91d17a9150600090a2505050565b604051637df73e2760e01b815233600482015260009073__$a5a42e46683ad9c79b7b86d5ff60fdf4c1$__90637df73e2790602401602060405180830381865af41580156109d6573d6000803e3d6000fd5b505050506040513d601f19601f820116820180604052508101906109fa9190611315565b610a165760405162461bcd60e51b81526004016101e890611337565b60003090506000816001600160a01b03166330b67baa6040518163ffffffff1660e01b8152600401602060405180830381865afa158015610a5b573d6000803e3d6000fd5b505050506040513d601f19601f82011682018060405250810190610a7f91906114de565b604051633f30446160e21b81529091506001600160a01b0382169063fcc1118490610ab290899089908990600401611632565b6020604051808303816000875af1158015610ad1573d6000803e3d6000fd5b505050506040513d601f19601f82011682018060405250810190610af5919061166b565b925082866001600160a01b03167f70b2ea755cbec8f93041a2abb839b4f9a525a06fd1a4453d1f2f1e30da3a016b8787604051610b33929190611657565b60405180910390a350509392505050565b60408051808201909152601581527478722e636f6d70616e792e73746f726167652e763160581b60209091015260008060ff610ba160017fb15f88c380b1fa3feb414afd39103c83bfc20f8be60af2ce4a47137881ead482611684565b604051602001610bb391815260200190565b60408051601f1981840301815291905280516020909101201692915050565b6000610bdc610d95565b82516001600160a01b031660009081526020829052604081209192505b836020015151811015610d8f57600084602001518281518110610c1e57610c1e6115f3565b6020908102919091018101518051600486810180546001808201835560009283528683206008830401805463ffffffff600790941690950261010090810a9384021990951660e09690961c9290920294909417905583516001600160e01b0319168152918801909352604090208054919350916001600160a01b0391041615610d1757805461010090046001600160a01b0316600090815260208690526040812087519091906001870190610cd290610dfa565b602080870151604051610cec949392600188019101611734565b60405160208183030381529060405290508060405162461bcd60e51b81526004016101e8919061180d565b50604080518082018252600180825287516001600160a01b03908116602080850191825295516001600160e01b0319166000908152898401909652939094209151825493516001600160a81b0319909416901515610100600160a81b0319161761010093909416929092029290921790915501610bf9565b50505050565b60408051808201909152601881527f78722e657874656e73696f6e732e73746f726167652e7631000000000000000060209091015260008060ff610ba160017fb58ec9ca7ba0606d9fecd9f559655d0e5fec418e6751b65b892bccdfd25eb99f611684565b6060610e106001600160a01b0383166014610e16565b92915050565b6060826000610e26846002611820565b610e31906002611837565b67ffffffffffffffff811115610e4957610e4961100b565b6040519080825280601f01601f191660200182016040528015610e73576020820181803683370190505b509050600360fc1b81600081518110610e8e57610e8e6115f3565b60200101906001600160f81b031916908160001a905350600f60fb1b81600181518110610ebd57610ebd6115f3565b60200101906001600160f81b031916908160001a9053506000610ee1856002611820565b610eec906001611837565b90505b6001811115610f64576f181899199a1a9b1b9c1cb0b131b232b360811b83600f1660108110610f2057610f206115f3565b1a60f81b828281518110610f3657610f366115f3565b60200101906001600160f81b031916908160001a90535060049290921c91610f5d8161184a565b9050610eef565b508115610f8e5760405163e22e27eb60e01b815260048101869052602481018590526044016101e8565b949350505050565b604051806040016040528060608152602001610fcd6040518060400160405280600061ffff168152602001600061ffff1681525090565b905290565b6001600160a01b038116811461009b57600080fd5b600060208284031215610ff957600080fd5b813561100481610fd2565b9392505050565b634e487b7160e01b600052604160045260246000fd5b6040805190810167ffffffffffffffff811182821017156110445761104461100b565b60405290565b60405160c0810167ffffffffffffffff811182821017156110445761104461100b565b604051601f8201601f1916810167ffffffffffffffff811182821017156110965761109661100b565b604052919050565b600067ffffffffffffffff8211156110b8576110b861100b565b50601f01601f191660200190565b60006110d96110d48461109e565b61106d565b90508281528383830111156110ed57600080fd5b828260208301376000602084830101529392505050565b60006020828403121561111657600080fd5b813567ffffffffffffffff8082111561112e57600080fd5b908301906040828603121561114257600080fd5b61114a611021565b82358281111561115957600080fd5b8301601f8101871361116a57600080fd5b611179878235602084016110c6565b82525060208301358281111561118e57600080fd5b80840193505085601f8401126111a357600080fd5b6111b2868435602086016110c6565b602082015295945050505050565b60005b838110156111db5781810151838201526020016111c3565b50506000910152565b600081518084526111fc8160208601602086016111c0565b601f01601f19169290920160200192915050565b60208152600082516060602084015261122c60808401826111e4565b602094850151805161ffff90811660408701529501519094166060909301929092525090919050565b60008060006040848603121561126a57600080fd5b833561127581610fd2565b9250602084013567ffffffffffffffff8082111561129257600080fd5b818601915086601f8301126112a657600080fd5b8135818111156112b557600080fd5b8760208285010111156112c757600080fd5b6020830194508093505050509250925092565b6000602082840312156112ec57600080fd5b813567ffffffffffffffff81111561130357600080fd5b82016060818503121561100457600080fd5b60006020828403121561132757600080fd5b8151801515811461100457600080fd5b60208082526038908201527f466163746f436f6d70616e79416464457870657269656e63654578747279457860408201527f743a207265737472696374656420746f207369676e6572730000000000000000606082015260800190565b600082601f8301126113a557600080fd5b81516113b36110d48261109e565b8181528460208386010111156113c857600080fd5b610f8e8260208301602087016111c0565b6000602082840312156113eb57600080fd5b815167ffffffffffffffff8082111561140357600080fd5b9083019060c0828603121561141757600080fd5b61141f61104a565b82518281111561142e57600080fd5b61143a87828601611394565b82525060208301518281111561144f57600080fd5b61145b87828601611394565b60208301525060408301518281111561147357600080fd5b61147f87828601611394565b604083015250606083015160608201526080830151608082015260a083015160a082015280935050505092915050565b634e487b7160e01b600052601160045260246000fd5b6000600182016114d7576114d76114af565b5060010190565b6000602082840312156114f057600080fd5b815161100481610fd2565b602081526000825160606020840152805160c060808501526115216101408501826111e4565b90506020820151607f19808684030160a087015261153f83836111e4565b925060408401519150808684030160c08701525061155d82826111e4565b915050606082015160e0850152608082015161010085015260a082015161012085015260208501519150601f198085830301604086015261159e82846111e4565b92506040860151915080858403016060860152506115bc82826111e4565b95945050505050565b600080604083850312156115d857600080fd5b82516115e381610fd2565b6020939093015192949293505050565b634e487b7160e01b600052603260045260246000fd5b81835281816020850137506000828201602090810191909152601f909101601f19169091010190565b6001600160a01b03841681526040602082018190526000906115bc9083018486611609565b602081526000610f8e602083018486611609565b60006020828403121561167d57600080fd5b5051919050565b81810381811115610e1057610e106114af565b8054600090600181811c90808316806116b157607f831692505b602080841082036116d257634e487b7160e01b600052602260045260246000fd5b8180156116e657600181146116fb57611728565b60ff1986168952841515850289019650611728565b60008881526020902060005b868110156117205781548b820152908501908301611707565b505084890196505b50505050505092915050565b7f4c6962457874656e73696f6e3a20657874656e73696f6e200000000000000000815260006117666018830187611697565b6c01030ba1030b2323932b9b99d1609d1b8152855161178c81600d840160208a016111c0565b7f20617474656d7074696e6720746f20726575736520612073656c6563746f7200600d929091019182015284516117ca81602c8401602089016111c0565b7f20616c7265616479207265676973746572656420627920000000000000000000602c92909101918201526118026043820185611697565b979650505050505050565b60208152600061100460208301846111e4565b8082028115828204841417610e1057610e106114af565b80820180821115610e1057610e106114af565b600081611859576118596114af565b50600019019056fe64656163746976617465457870657269656e636528616464726573732c737472696e6729a2646970667358221220fb4de331e90728727a7daaea8f3c8c9d7f6f834f361d6bf51e16674e490f7a0364736f6c63430008180033",
  "linkReferences": {
    "contracts/libraries/LibAccess.sol": {
      "LibAccess": [
        {
          "length": 20,
          "start": 398
        },
        {
          "length": 20,
          "start": 1666
        },
        {
          "length": 20,
          "start": 2089
        },
        {
          "length": 20,
          "start": 2492
        }
      ]
    }
  },
  "deployedLinkReferences": {
    "contracts/libraries/LibAccess.sol": {
      "LibAccess": [
        {
          "length": 20,
          "start": 366
        },
        {
          "length": 20,
          "start": 1634
        },
        {
          "length": 20,
          "start": 2057
        },
        {
          "length": 20,
          "start": 2460
        }
      ]
    }
  }
}