{
  "_format": "hh-sol-artifact-1",
  "contractName": "CompanyMintingExt",
  "sourceName": "contracts/extensions/company/CompanyMintingExt.sol",
  "abi": [
    {
      "inputs": [
        {
          "internalType": "uint256",
          "name": "value",
          "type": "uint256"
        },
        {
          "internalType": "uint256",
          "name": "length",
          "type": "uint256"
        }
      ],
      "name": "StringsInsufficientHexLength",
      "type": "error"
    },
    {
      "inputs": [
        {
          "internalType": "address",
          "name": "asset",
          "type": "address"
        },
        {
          "internalType": "address",
          "name": "to",
          "type": "address"
        },
        {
          "internalType": "bytes",
          "name": "extra",
          "type": "bytes"
        }
      ],
      "name": "canMintERC20",
      "outputs": [
        {
          "internalType": "bool",
          "name": "",
          "type": "bool"
        }
      ],
      "stateMutability": "view",
      "type": "function"
    },
    {
      "inputs": [
        {
          "internalType": "address",
          "name": "asset",
          "type": "address"
        },
        {
          "internalType": "address",
          "name": "to",
          "type": "address"
        },
        {
          "internalType": "bytes",
          "name": "extra",
          "type": "bytes"
        }
      ],
      "name": "canMintERC721",
      "outputs": [
        {
          "internalType": "bool",
          "name": "",
          "type": "bool"
        }
      ],
      "stateMutability": "view",
      "type": "function"
    },
    {
      "inputs": [
        {
          "internalType": "address",
          "name": "myAddress",
          "type": "address"
        }
      ],
      "name": "install",
      "outputs": [],
      "stateMutability": "nonpayable",
      "type": "function"
    },
    {
      "inputs": [],
      "name": "metadata",
      "outputs": [
        {
          "components": [
            {
              "internalType": "string",
              "name": "name",
              "type": "string"
            },
            {
              "components": [
                {
                  "internalType": "uint16",
                  "name": "major",
                  "type": "uint16"
                },
                {
                  "internalType": "uint16",
                  "name": "minor",
                  "type": "uint16"
                }
              ],
              "internalType": "struct Version",
              "name": "version",
              "type": "tuple"
            }
          ],
          "internalType": "struct ExtensionMetadata",
          "name": "",
          "type": "tuple"
        }
      ],
      "stateMutability": "pure",
      "type": "function"
    },
    {
      "inputs": [
        {
          "internalType": "address",
          "name": "asset",
          "type": "address"
        },
        {
          "internalType": "address",
          "name": "to",
          "type": "address"
        },
        {
          "internalType": "bytes",
          "name": "data",
          "type": "bytes"
        }
      ],
      "name": "mintERC20",
      "outputs": [],
      "stateMutability": "nonpayable",
      "type": "function"
    },
    {
      "inputs": [
        {
          "internalType": "address",
          "name": "asset",
          "type": "address"
        },
        {
          "internalType": "address",
          "name": "to",
          "type": "address"
        },
        {
          "internalType": "bytes",
          "name": "data",
          "type": "bytes"
        }
      ],
      "name": "mintERC721",
      "outputs": [],
      "stateMutability": "nonpayable",
      "type": "function"
    },
    {
      "inputs": [
        {
          "internalType": "address",
          "name": "asset",
          "type": "address"
        },
        {
          "internalType": "address",
          "name": "holder",
          "type": "address"
        },
        {
          "internalType": "bytes",
          "name": "data",
          "type": "bytes"
        }
      ],
      "name": "revokeERC20",
      "outputs": [],
      "stateMutability": "nonpayable",
      "type": "function"
    },
    {
      "inputs": [
        {
          "internalType": "address",
          "name": "asset",
          "type": "address"
        },
        {
          "internalType": "address",
          "name": "holder",
          "type": "address"
        },
        {
          "internalType": "bytes",
          "name": "data",
          "type": "bytes"
        }
      ],
      "name": "revokeERC721",
      "outputs": [],
      "stateMutability": "nonpayable",
      "type": "function"
    },
    {
      "inputs": [
        {
          "internalType": "address",
          "name": "myAddress",
          "type": "address"
        }
      ],
      "name": "upgrade",
      "outputs": [],
      "stateMutability": "nonpayable",
      "type": "function"
    }
  ],
  "bytecode": "0x608060405234801561001057600080fd5b50611c6b806100206000396000f3fe608060405234801561001057600080fd5b50600436106100935760003560e01c80635076d6e2116100665780635076d6e2146100fb5780638a4142c51461010e5780638e718bf7146101215780638e879f04146101345780639aa405a21461014757600080fd5b80630900f0101461009857806314569d60146100ab5780632a1b8f9b146100d3578063392f37e9146100e6575b600080fd5b6100a96100a6366004611705565b50565b005b6100be6100b9366004611729565b61015a565b60405190151581526020015b60405180910390f35b6100a96100e1366004611705565b610262565b6100ee610513565b6040516100ca919061180b565b6100a9610109366004611729565b61056a565b6100a961011c366004611729565b61069d565b6100a961012f366004611729565b610814565b6100be610142366004611729565b61090b565b6100a9610155366004611729565b6109f1565b6000610164610ab4565b5460ff1661018d5760405162461bcd60e51b815260040161018490611850565b60405180910390fd5b6000306001600160a01b03166312d3e5e16040518163ffffffff1660e01b8152600401602060405180830381865afa1580156101cd573d6000803e3d6000fd5b505050506040513d601f19601f820116820180604052508101906101f19190611887565b90506001600160a01b0381166102495760405162461bcd60e51b815260206004820152601f60248201527f436f6d70616e793a206572633230207265676973747279206e6f7420736574006044820152606401610184565b806102578188888888610b4a565b979650505050505050565b60408051600680825260e08201909252600091816020015b60408051808201909152600081526060602082015281526020019060019003908161027a57905050905060405180604001604052806314569d6060e01b6001600160e01b0319168152602001604051806060016040528060238152602001611b8960239139815250816000815181106102f5576102f56118ba565b60200260200101819052506040518060400160405280638e879f0460e01b6001600160e01b0319168152602001604051806060016040528060248152602001611c126024913981525081600181518110610351576103516118ba565b60200260200101819052506040518060400160405280639aa405a260e01b6001600160e01b03191681526020016040518060400160405280602081526020017f6d696e74455243323028616464726573732c616464726573732c627974657329815250815250816002815181106103ca576103ca6118ba565b60200260200101819052506040518060400160405280638a4142c560e01b6001600160e01b0319168152602001604051806060016040528060218152602001611bce6021913981525081600381518110610426576104266118ba565b60200260200101819052506040518060400160405280635076d6e260e01b6001600160e01b0319168152602001604051806060016040528060228152602001611bac6022913981525081600481518110610482576104826118ba565b60200260200101819052506040518060400160405280638e718bf760e01b6001600160e01b0319168152602001604051806060016040528060238152602001611bef60239139815250816005815181106104de576104de6118ba565b602002602001018190525061050f6040518060400160405280846001600160a01b0316815260200183815250611109565b5050565b61051b6116b4565b506040805160808101825260118183019081527010dbdb5c185b9e535a5b9d1a5b99d15e1d607a1b60608301528152815180830190925260018252600060208381019190915281019190915290565b604051637df73e2760e01b815233600482015273__$a5a42e46683ad9c79b7b86d5ff60fdf4c1$__90637df73e2790602401602060405180830381865af41580156105b9573d6000803e3d6000fd5b505050506040513d601f19601f820116820180604052508101906105dd91906118d0565b6105f95760405162461bcd60e51b8152600401610184906118f2565b610601610ab4565b5460ff166106215760405162461bcd60e51b815260040161018490611850565b6000306001600160a01b03166312d3e5e16040518163ffffffff1660e01b8152600401602060405180830381865afa158015610661573d6000803e3d6000fd5b505050506040513d601f19601f820116820180604052508101906106859190611887565b90508061069581878787876112cc565b505050505050565b604051637df73e2760e01b815233600482015273__$a5a42e46683ad9c79b7b86d5ff60fdf4c1$__90637df73e2790602401602060405180830381865af41580156106ec573d6000803e3d6000fd5b505050506040513d601f19601f8201168201806040525081019061071091906118d0565b61072c5760405162461bcd60e51b8152600401610184906118f2565b610734610ab4565b5460ff166107545760405162461bcd60e51b815260040161018490611850565b6107608484848461090b565b6107ac5760405162461bcd60e51b815260206004820152601a60248201527f436f6d70616e793a2063616e6e6f74206d696e742061737365740000000000006044820152606401610184565b60405163b510391f60e01b81526001600160a01b0385169063b510391f906107dc9086908690869060040161194f565b600060405180830381600087803b1580156107f657600080fd5b505af115801561080a573d6000803e3d6000fd5b5050505050505050565b604051637df73e2760e01b815233600482015273__$a5a42e46683ad9c79b7b86d5ff60fdf4c1$__90637df73e2790602401602060405180830381865af4158015610863573d6000803e3d6000fd5b505050506040513d601f19601f8201168201806040525081019061088791906118d0565b6108a35760405162461bcd60e51b8152600401610184906118f2565b6108ab610ab4565b5460ff166108cb5760405162461bcd60e51b815260040161018490611850565b6000306001600160a01b031663ca6d44296040518163ffffffff1660e01b8152600401602060405180830381865afa158015610661573d6000803e3d6000fd5b6000610915610ab4565b5460ff166109355760405162461bcd60e51b815260040161018490611850565b6000306001600160a01b031663ca6d44296040518163ffffffff1660e01b8152600401602060405180830381865afa158015610975573d6000803e3d6000fd5b505050506040513d601f19601f820116820180604052508101906109999190611887565b90506001600160a01b0381166102495760405162461bcd60e51b815260206004820181905260248201527f436f6d70616e793a20657263373231207265676973747279206e6f74207365746044820152606401610184565b604051637df73e2760e01b815233600482015273__$a5a42e46683ad9c79b7b86d5ff60fdf4c1$__90637df73e2790602401602060405180830381865af4158015610a40573d6000803e3d6000fd5b505050506040513d601f19601f82011682018060405250810190610a6491906118d0565b610a805760405162461bcd60e51b8152600401610184906118f2565b610a88610ab4565b5460ff16610aa85760405162461bcd60e51b815260040161018490611850565b6107608484848461015a565b60408051808201909152601881527f78722e61637469766174696f6e2e73746f726167652e7631000000000000000060209091015260008060ff610b1960017ff6611e962a52dbc98dd0485088d920890c43e26113c61976f6e171a29d49ce496119a5565b604051602001610b2b91815260200190565b60408051601f1981840301815291905280516020909101201692915050565b60405163c3c5a54760e01b81526001600160a01b0385811660048301526000919087169063c3c5a54790602401602060405180830381865afa158015610b94573d6000803e3d6000fd5b505050506040513d601f19601f82011682018060405250810190610bb891906118d0565b610c045760405162461bcd60e51b815260206004820152601d60248201527f436f6d70616e793a206173736574206e6f7420726567697374657265640000006044820152606401610184565b6000859050306001600160a01b0316816001600160a01b0316631d1438486040518163ffffffff1660e01b8152600401602060405180830381865afa158015610c51573d6000803e3d6000fd5b505050506040513d601f19601f82011682018060405250810190610c759190611887565b6001600160a01b031614610ccb5760405162461bcd60e51b815260206004820152601c60248201527f436f6d70616e793a206e6f7420697373756572206f66206173736574000000006044820152606401610184565b604051634f2a605160e11b81526001600160a01b03821690639e54c0a290610cfb9088908890889060040161194f565b602060405180830381865afa158015610d18573d6000803e3d6000fd5b505050506040513d601f19601f82011682018060405250810190610d3c91906118d0565b610d885760405162461bcd60e51b815260206004820152601f60248201527f436f6d70616e793a2063616e6e6f74206d696e7420746f2061646472657373006044820152606401610184565b6000306001600160a01b031663e3d7ad736040518163ffffffff1660e01b8152600401602060405180830381865afa158015610dc8573d6000803e3d6000fd5b505050506040513d601f19601f82011682018060405250810190610dec9190611887565b90506001600160a01b038116610e445760405162461bcd60e51b815260206004820181905260248201527f436f6d70616e793a20617661746172207265676973747279206e6f74207365746044820152606401610184565b60405163c3c5a54760e01b81526001600160a01b03878116600483015282919082169063c3c5a54790602401602060405180830381865afa158015610e8d573d6000803e3d6000fd5b505050506040513d601f19601f82011682018060405250810190610eb191906118d0565b610ec15760019350505050611100565b6000879050806001600160a01b031663181d939b6040518163ffffffff1660e01b8152600401602060405180830381865afa158015610f04573d6000803e3d6000fd5b505050506040513d601f19601f82011682018060405250810190610f2891906118d0565b6110f7576000816001600160a01b031663516f279e6040518163ffffffff1660e01b8152600401602060405180830381865afa158015610f6c573d6000803e3d6000fd5b505050506040513d601f19601f82011682018060405250810190610f909190611887565b90506001600160a01b038116610ffe5760405162461bcd60e51b815260206004820152602d60248201527f436f6d70616e793a20617661746172206c6f636174696f6e206973206e6f742060448201526c616e20657870657269656e636560981b6064820152608401610184565b306001600160a01b0316816001600160a01b0316636904c94d6040518163ffffffff1660e01b8152600401602060405180830381865afa158015611046573d6000803e3d6000fd5b505050506040513d601f19601f8201168201806040525081019061106a9190611887565b6001600160a01b0316146110f55760405162461bcd60e51b815260206004820152604660248201527f436f6d70616e793a20617661746172206c6f636174696f6e206973206e6f742060448201527f696e20616e20657870657269656e6365206f776e6564206279207468697320636064820152656f6d70616e7960d01b608482015260a401610184565b505b60019450505050505b95945050505050565b60006111136114b3565b82516001600160a01b031660009081526020829052604081209192505b8360200151518110156112c657600084602001518281518110611155576111556118ba565b6020908102919091018101518051600486810180546001808201835560009283528683206008830401805463ffffffff600790941690950261010090810a9384021990951660e09690961c9290920294909417905583516001600160e01b0319168152918801909352604090208054919350916001600160a01b039104161561124e57805461010090046001600160a01b031660009081526020869052604081208751909190600187019061120990611518565b602080870151604051611223949392600188019101611a55565b60405160208183030381529060405290508060405162461bcd60e51b81526004016101849190611b34565b50604080518082018252600180825287516001600160a01b03908116602080850191825295516001600160e01b0319166000908152898401909652939094209151825493516001600160a81b0319909416901515610100600160a81b0319161761010093909416929092029290921790915501611130565b50505050565b60405163c3c5a54760e01b81526001600160a01b03858116600483015286169063c3c5a54790602401602060405180830381865afa158015611312573d6000803e3d6000fd5b505050506040513d601f19601f8201168201806040525081019061133691906118d0565b6113825760405162461bcd60e51b815260206004820152601d60248201527f436f6d70616e793a206173736574206e6f7420726567697374657265640000006044820152606401610184565b6000849050306001600160a01b0316816001600160a01b0316631d1438486040518163ffffffff1660e01b8152600401602060405180830381865afa1580156113cf573d6000803e3d6000fd5b505050506040513d601f19601f820116820180604052508101906113f39190611887565b6001600160a01b0316146114495760405162461bcd60e51b815260206004820152601c60248201527f436f6d70616e793a206e6f7420697373756572206f66206173736574000000006044820152606401610184565b6040516326a5ce1160e21b81526001600160a01b03821690639a973844906114799087908790879060040161194f565b600060405180830381600087803b15801561149357600080fd5b505af11580156114a7573d6000803e3d6000fd5b50505050505050505050565b60408051808201909152601881527f78722e657874656e73696f6e732e73746f726167652e7631000000000000000060209091015260008060ff610b1960017fb58ec9ca7ba0606d9fecd9f559655d0e5fec418e6751b65b892bccdfd25eb99f6119a5565b606061152e6001600160a01b0383166014611534565b92915050565b6060826000611544846002611b47565b61154f906002611b5e565b67ffffffffffffffff811115611567576115676118a4565b6040519080825280601f01601f191660200182016040528015611591576020820181803683370190505b509050600360fc1b816000815181106115ac576115ac6118ba565b60200101906001600160f81b031916908160001a905350600f60fb1b816001815181106115db576115db6118ba565b60200101906001600160f81b031916908160001a90535060006115ff856002611b47565b61160a906001611b5e565b90505b6001811115611682576f181899199a1a9b1b9c1cb0b131b232b360811b83600f166010811061163e5761163e6118ba565b1a60f81b828281518110611654576116546118ba565b60200101906001600160f81b031916908160001a90535060049290921c9161167b81611b71565b905061160d565b5081156116ac5760405163e22e27eb60e01b81526004810186905260248101859052604401610184565b949350505050565b6040518060400160405280606081526020016116eb6040518060400160405280600061ffff168152602001600061ffff1681525090565b905290565b6001600160a01b03811681146100a657600080fd5b60006020828403121561171757600080fd5b8135611722816116f0565b9392505050565b6000806000806060858703121561173f57600080fd5b843561174a816116f0565b9350602085013561175a816116f0565b9250604085013567ffffffffffffffff8082111561177757600080fd5b818701915087601f83011261178b57600080fd5b81358181111561179a57600080fd5b8860208285010111156117ac57600080fd5b95989497505060200194505050565b60005b838110156117d65781810151838201526020016117be565b50506000910152565b600081518084526117f78160208601602086016117bb565b601f01601f19169290920160200192915050565b60208152600082516060602084015261182760808401826117df565b602094850151805161ffff90811660408701529501519094166060909301929092525090919050565b6020808252601e908201527f436f6d70616e793a20636f6d70616e79206973206e6f74206163746976650000604082015260600190565b60006020828403121561189957600080fd5b8151611722816116f0565b634e487b7160e01b600052604160045260246000fd5b634e487b7160e01b600052603260045260246000fd5b6000602082840312156118e257600080fd5b8151801515811461172257600080fd5b60208082526038908201527f466163746f436f6d70616e79416464457870657269656e63654578747279457860408201527f743a207265737472696374656420746f207369676e6572730000000000000000606082015260800190565b6001600160a01b03841681526040602082018190528101829052818360608301376000818301606090810191909152601f909201601f1916010192915050565b634e487b7160e01b600052601160045260246000fd5b8181038181111561152e5761152e61198f565b8054600090600181811c90808316806119d257607f831692505b602080841082036119f357634e487b7160e01b600052602260045260246000fd5b818015611a075760018114611a1c57611a49565b60ff1986168952841515850289019650611a49565b60008881526020902060005b86811015611a415781548b820152908501908301611a28565b505084890196505b50505050505092915050565b7f4c6962457874656e73696f6e3a20657874656e73696f6e20000000000000000081526000611a8760188301876119b8565b6c01030ba1030b2323932b9b99d1609d1b81528551611aad81600d840160208a016117bb565b8082019150507f20617474656d7074696e6720746f20726575736520612073656c6563746f723a600d820152600160fd1b80602d8301528551611af781602e850160208a016117bb565b7f2c20776869636820697320616c72656164792072656769737465726564206279602e9390910192830152604e820152610257604f8201856119b8565b60208152600061172260208301846117df565b808202811582820484141761152e5761152e61198f565b8082018082111561152e5761152e61198f565b600081611b8057611b8061198f565b50600019019056fe63616e4d696e74455243323028616464726573732c616464726573732c6279746573297265766f6b65455243323028616464726573732c616464726573732c6279746573296d696e7445524337323128616464726573732c616464726573732c6279746573297265766f6b6545524337323128616464726573732c616464726573732c62797465732963616e4d696e7445524337323128616464726573732c616464726573732c627974657329a264697066735822122012a0fd6ae49cc0a204d44d616265bf9356fbf952d9d3c958838f9703ac8d46df64736f6c63430008180033",
  "linkReferences": {
    "contracts/libraries/LibAccess.sol": {
      "LibAccess": [
        {
          "length": 20,
          "start": 1439
        },
        {
          "length": 20,
          "start": 1746
        },
        {
          "length": 20,
          "start": 2121
        },
        {
          "length": 20,
          "start": 2598
        }
      ]
    }
  },
  "deployedLinkReferences": {
    "contracts/libraries/LibAccess.sol": {
      "LibAccess": [
        {
          "length": 20,
          "start": 1407
        },
        {
          "length": 20,
          "start": 1714
        },
        {
          "length": 20,
          "start": 2089
        },
        {
          "length": 20,
          "start": 2566
        }
      ]
    }
  }
}