{
  "_format": "hh-sol-artifact-1",
  "contractName": "CompanyRegistrationExt",
  "sourceName": "contracts/extensions/registry/company/CompanyRegistrationExt.sol",
  "abi": [
    {
      "anonymous": false,
      "inputs": [
        {
          "indexed": true,
          "internalType": "address",
          "name": "entity",
          "type": "address"
        },
        {
          "indexed": true,
          "internalType": "address",
          "name": "owner",
          "type": "address"
        }
      ],
      "name": "RegistryAddedEntity",
      "type": "event"
    },
    {
      "anonymous": false,
      "inputs": [
        {
          "indexed": true,
          "internalType": "address",
          "name": "old",
          "type": "address"
        },
        {
          "indexed": false,
          "internalType": "address",
          "name": "newVersion",
          "type": "address"
        }
      ],
      "name": "RegistryUpgradedEntity",
      "type": "event"
    },
    {
      "inputs": [
        {
          "components": [
            {
              "internalType": "address",
              "name": "entity",
              "type": "address"
            },
            {
              "internalType": "bytes",
              "name": "entitySignature",
              "type": "bytes"
            },
            {
              "internalType": "uint256",
              "name": "expiration",
              "type": "uint256"
            },
            {
              "components": [
                {
                  "internalType": "uint16",
                  "name": "coveragePeriodDays",
                  "type": "uint16"
                },
                {
                  "internalType": "uint16",
                  "name": "gracePeriodDays",
                  "type": "uint16"
                },
                {
                  "internalType": "uint256",
                  "name": "fee",
                  "type": "uint256"
                }
              ],
              "internalType": "struct RegistrationTerms",
              "name": "terms",
              "type": "tuple"
            }
          ],
          "internalType": "struct ChangeEntityTermsArgs",
          "name": "args",
          "type": "tuple"
        }
      ],
      "name": "changeEntityTerms",
      "outputs": [],
      "stateMutability": "nonpayable",
      "type": "function"
    },
    {
      "inputs": [
        {
          "components": [
            {
              "internalType": "bool",
              "name": "sendTokensToOwner",
              "type": "bool"
            },
            {
              "internalType": "address",
              "name": "owner",
              "type": "address"
            },
            {
              "internalType": "string",
              "name": "name",
              "type": "string"
            },
            {
              "components": [
                {
                  "internalType": "uint16",
                  "name": "coveragePeriodDays",
                  "type": "uint16"
                },
                {
                  "internalType": "uint16",
                  "name": "gracePeriodDays",
                  "type": "uint16"
                },
                {
                  "internalType": "uint256",
                  "name": "fee",
                  "type": "uint256"
                }
              ],
              "internalType": "struct RegistrationTerms",
              "name": "terms",
              "type": "tuple"
            },
            {
              "components": [
                {
                  "internalType": "string",
                  "name": "x",
                  "type": "string"
                },
                {
                  "internalType": "string",
                  "name": "y",
                  "type": "string"
                },
                {
                  "internalType": "string",
                  "name": "z",
                  "type": "string"
                },
                {
                  "internalType": "uint256",
                  "name": "t",
                  "type": "uint256"
                },
                {
                  "internalType": "uint256",
                  "name": "p",
                  "type": "uint256"
                },
                {
                  "internalType": "uint256",
                  "name": "p_sub",
                  "type": "uint256"
                }
              ],
              "internalType": "struct VectorAddress",
              "name": "vector",
              "type": "tuple"
            },
            {
              "internalType": "bytes",
              "name": "initData",
              "type": "bytes"
            },
            {
              "internalType": "bytes",
              "name": "ownerTermsSignature",
              "type": "bytes"
            },
            {
              "internalType": "uint256",
              "name": "expiration",
              "type": "uint256"
            }
          ],
          "internalType": "struct CreateCompanyArgs",
          "name": "args",
          "type": "tuple"
        }
      ],
      "name": "createCompany",
      "outputs": [
        {
          "internalType": "address",
          "name": "",
          "type": "address"
        }
      ],
      "stateMutability": "payable",
      "type": "function"
    },
    {
      "inputs": [
        {
          "internalType": "string",
          "name": "name",
          "type": "string"
        }
      ],
      "name": "getEntityByName",
      "outputs": [
        {
          "internalType": "address",
          "name": "",
          "type": "address"
        }
      ],
      "stateMutability": "view",
      "type": "function"
    },
    {
      "inputs": [
        {
          "components": [
            {
              "internalType": "string",
              "name": "x",
              "type": "string"
            },
            {
              "internalType": "string",
              "name": "y",
              "type": "string"
            },
            {
              "internalType": "string",
              "name": "z",
              "type": "string"
            },
            {
              "internalType": "uint256",
              "name": "t",
              "type": "uint256"
            },
            {
              "internalType": "uint256",
              "name": "p",
              "type": "uint256"
            },
            {
              "internalType": "uint256",
              "name": "p_sub",
              "type": "uint256"
            }
          ],
          "internalType": "struct VectorAddress",
          "name": "vector",
          "type": "tuple"
        }
      ],
      "name": "getEntityByVector",
      "outputs": [
        {
          "internalType": "address",
          "name": "",
          "type": "address"
        }
      ],
      "stateMutability": "view",
      "type": "function"
    },
    {
      "inputs": [
        {
          "components": [
            {
              "internalType": "address",
              "name": "owner",
              "type": "address"
            },
            {
              "internalType": "address",
              "name": "owningRegistry",
              "type": "address"
            },
            {
              "internalType": "address[]",
              "name": "admins",
              "type": "address[]"
            }
          ],
          "internalType": "struct ExtensionInitArgs",
          "name": "args",
          "type": "tuple"
        }
      ],
      "name": "initStorage",
      "outputs": [],
      "stateMutability": "nonpayable",
      "type": "function"
    },
    {
      "inputs": [
        {
          "internalType": "address",
          "name": "myAddress",
          "type": "address"
        }
      ],
      "name": "install",
      "outputs": [],
      "stateMutability": "nonpayable",
      "type": "function"
    },
    {
      "inputs": [
        {
          "internalType": "address",
          "name": "addr",
          "type": "address"
        }
      ],
      "name": "isRegistered",
      "outputs": [
        {
          "internalType": "bool",
          "name": "",
          "type": "bool"
        }
      ],
      "stateMutability": "view",
      "type": "function"
    },
    {
      "inputs": [],
      "name": "metadata",
      "outputs": [
        {
          "components": [
            {
              "internalType": "string",
              "name": "name",
              "type": "string"
            },
            {
              "components": [
                {
                  "internalType": "uint16",
                  "name": "major",
                  "type": "uint16"
                },
                {
                  "internalType": "uint16",
                  "name": "minor",
                  "type": "uint16"
                }
              ],
              "internalType": "struct Version",
              "name": "version",
              "type": "tuple"
            }
          ],
          "internalType": "struct ExtensionMetadata",
          "name": "",
          "type": "tuple"
        }
      ],
      "stateMutability": "pure",
      "type": "function"
    },
    {
      "inputs": [],
      "name": "register",
      "outputs": [],
      "stateMutability": "nonpayable",
      "type": "function"
    },
    {
      "inputs": [
        {
          "internalType": "address",
          "name": "myAddress",
          "type": "address"
        }
      ],
      "name": "upgrade",
      "outputs": [],
      "stateMutability": "nonpayable",
      "type": "function"
    }
  ],
  "bytecode": "0x608060405234801561001057600080fd5b50611be7806100206000396000f3fe6080604052600436106100905760003560e01c80633e88a4e2116100595780633e88a4e21461013c5780634d4965f31461015c578063729963c01461017c578063c3c5a54714610197578063c747e47e146101c757600080fd5b80629ee308146100955780630900f010146100c55780631aa3a008146100e55780632a1b8f9b146100fa578063392f37e91461011a575b600080fd5b6100a86100a33660046111e6565b6101e7565b6040516001600160a01b0390911681526020015b60405180910390f35b3480156100d157600080fd5b506100e36100e036600461123e565b50565b005b3480156100f157600080fd5b506100e3610a8d565b34801561010657600080fd5b506100e361011536600461123e565b610b0c565b34801561012657600080fd5b5061012f610e0d565b6040516100bc91906112a1565b34801561014857600080fd5b506100a86101573660046112e6565b610e69565b34801561016857600080fd5b506100e3610177366004611370565b610eef565b34801561018857600080fd5b506100e36100e03660046113ad565b3480156101a357600080fd5b506101b76101b236600461123e565b610f59565b60405190151581526020016100bc565b3480156101d357600080fd5b506100a86101e2366004611370565b610fd8565b600080306001600160a01b031663911c2a8c6040518163ffffffff1660e01b8152600401602060405180830381865afa158015610228573d6000803e3d6000fd5b505050506040513d601f19601f8201168201806040525081019061024c91906113e8565b90506001600160a01b0381166102c05760405162461bcd60e51b815260206004820152602e60248201527f436f6d70616e79526567697374726174696f6e4578743a20776f726c6420726560448201526d19da5cdd1c9e481b9bdd081cd95d60921b60648201526084015b60405180910390fd5b60008190506000339050806001600160a01b03166386b70bed6040518163ffffffff1660e01b8152600401602060405180830381865afa158015610308573d6000803e3d6000fd5b505050506040513d601f19601f8201168201806040525081019061032c9190611413565b61038c5760405162461bcd60e51b815260206004820152602b60248201527f436f6d70616e79526567697374726174696f6e4578743a20776f726c6420697360448201526a206e6f742061637469766560a81b60648201526084016102b7565b60405163c3c5a54760e01b81523360048201526001600160a01b0383169063c3c5a54790602401602060405180830381865afa1580156103d0573d6000803e3d6000fd5b505050506040513d601f19601f820116820180604052508101906103f49190611413565b6104585760405162461bcd60e51b815260206004820152602f60248201527f436f6d70616e79526567697374726174696f6e4578743a20776f726c6420697360448201526e081b9bdd081c9959da5cdd195c9959608a1b60648201526084016102b7565b600061046a60a0870160808801611447565b61ffff16116104f45760405162461bcd60e51b815260206004820152604a60248201527f526567697374726172526567697374726174696f6e4578743a2067726163652060448201527f706572696f6420726571756972656420666f722072656d6f7661626c6520726560648201526933b4b9ba3930ba34b7b760b11b608482015260a4016102b7565b60006040518060a00160405280876020016020810190610514919061123e565b6001600160a01b0316815233602082015260400161053a36899003890160608a016114a1565b81526101208801356020820152604001610558610100890189611509565b8080601f016020809104026020016040519081016040528093929190818152602001838380828437600092019190915250505091525060405163bf52415b60e01b815290915073__$d81eab81c4f96e94de97b51155a369ac43$__9063bf52415b906105c8908490600401611557565b60006040518083038186803b1580156105e057600080fd5b505af41580156105f4573d6000803e3d6000fd5b506000925061060991505060c08801886115c7565b61061290611674565b905060008160800151116106a55760405162461bcd60e51b815260206004820152604e60248201527f436f6d70616e79526567697374726174696f6e3a20766563746f72206164647260448201527f65737320702076616c7565206d7573742062652067726561746572207468616e60648201526d203020666f7220636f6d70616e7960901b608482015260a4016102b7565b60a08101511561071d5760405162461bcd60e51b815260206004820152603f60248201527f436f6d70616e79526567697374726174696f6e3a20766563746f72206164647260448201527f65737320705f737562206d757374206265203020666f7220636f6d70616e790060648201526084016102b7565b6000610727611053565b8054909150600090610741906001600160a01b03166110e9565b90506001600160a01b0381166107ac5760405162461bcd60e51b815260206004820152602a60248201527f436f6d70616e79526567697374726174696f6e3a20656e7469747920636c6f6e6044820152691a5b99c819985a5b195960b21b60648201526084016102b7565b60006040518060c001604052808b60200160208101906107cc919061123e565b6001600160a01b03168152602001336001600160a01b03168152602001306001600160a01b031681526020018b80604001906108089190611509565b8080601f0160208091040260200160405190810160405280939291908181526020018383808284376000920191909152505050908252506020810186905260400161085660e08d018d611509565b8080601f01602080910402602001604051908101604052809392919081815260200183838082843760009201919091525050509152506040516334d0850960e11b81529091506001600160a01b038316906369a10a12906108bb908490600401611727565b600060405180830381600087803b1580156108d557600080fd5b505af11580156108e9573d6000803e3d6000fd5b5050505060006040518060600160405280846001600160a01b031681526020018c60600180360381019061091d91906114a1565b815260200186905260405163474df87960e01b815290915073__$d81eab81c4f96e94de97b51155a369ac43$__9063474df8799061095f908490600401611810565b60006040518083038186803b15801561097757600080fd5b505af415801561098b573d6000803e3d6000fd5b505050506000341115610a2f576109a560208c018c6118e3565b156109f8576109ba60408c0160208d0161123e565b6001600160a01b03166108fc349081150290604051600060405180830381858888f193505050501580156109f2573d6000803e3d6000fd5b50610a2f565b6040516001600160a01b038416903480156108fc02916000818181858888f19350505050158015610a2d573d6000803e3d6000fd5b505b610a3f60408c0160208d0161123e565b6001600160a01b0316836001600160a01b03167f7377123f9eb561d749cd3a89a83c22035cad6473521acbb981ee1c52d8f0248560405160405180910390a350909998505050505050505050565b610a9633610f59565b610b0a576040805162461bcd60e51b81526020600482015260248101919091527f526567697374726174696f6e4578743a206f6e6c79207265676973746572656460448201527f20656e7469746965732063616e2063616c6c20746869732066756e6374696f6e60648201526084016102b7565b565b60408051600580825260c08201909252600091816020015b604080518082019091526000815260606020820152815260200190600190039081610b245790505090506040518060400160405280633e88a4e260e01b6001600160e01b03191681526020016040518060400160405280601781526020017f676574456e7469747942794e616d6528737472696e672900000000000000000081525081525081600081518110610bbc57610bbc611900565b60200260200101819052506040518060400160405280634d4965f360e01b6001600160e01b03191681526020016040518060600160405280602c8152602001611b86602c913981525081600181518110610c1857610c18611900565b6020026020010181905250604051806040016040528063c3c5a54760e01b6001600160e01b03191681526020016040518060400160405280601581526020017469735265676973746572656428616464726573732960581b81525081525081600281518110610c8957610c89611900565b60200260200101819052506040518060400160405280629ee30860e01b6001600160e01b03191681526020016040518060400160405280602081526020017f637265617465436f6d70616e7928437265617465436f6d70616e79417267732981525081525081600381518110610d0157610d01611900565b6020026020010181905250604051806040016040528063c747e47e60e01b6001600160e01b03191681526020016040518060400160405280602081526020017f676574456e746974794279566563746f7228566563746f72416464726573732981525081525081600481518110610d7a57610d7a611900565b602002602001018190525073__$307c3a572bdf5d9800a89b3fc2eb3d5604$__63964d13f06040518060400160405280856001600160a01b03168152602001848152506040518263ffffffff1660e01b8152600401610dd99190611916565b60006040518083038186803b158015610df157600080fd5b505af4158015610e05573d6000803e3d6000fd5b505050505050565b610e156111aa565b506040805160808101825260168183019081527510dbdb5c185b9e549959da5cdd1c985d1a5bdb915e1d60521b60608301528152815180830190925260018252600060208381019190915281019190915290565b604051631f44527160e11b815260009073__$d81eab81c4f96e94de97b51155a369ac43$__90633e88a4e290610ea590869086906004016119d9565b602060405180830381865af4158015610ec2573d6000803e3d6000fd5b505050506040513d601f19601f82011682018060405250810190610ee691906113e8565b90505b92915050565b604051630bca13f760e41b815273__$d81eab81c4f96e94de97b51155a369ac43$__9063bca13f7090610f26908490600401611a33565b60006040518083038186803b158015610f3e57600080fd5b505af4158015610f52573d6000803e3d6000fd5b5050505050565b60405163c3c5a54760e01b81526001600160a01b038216600482015260009073__$d81eab81c4f96e94de97b51155a369ac43$__9063c3c5a54790602401602060405180830381865af4158015610fb4573d6000803e3d6000fd5b505050506040513d601f19601f82011682018060405250810190610ee99190611413565b6040516332ef671360e21b815260009073__$d81eab81c4f96e94de97b51155a369ac43$__9063cbbd9c4c90611012908590600401611ac2565b602060405180830381865af415801561102f573d6000803e3d6000fd5b505050506040513d601f19601f82011682018060405250810190610ee991906113e8565b60408051808201909152601c81527f78722e656e746974792e666163746f72792e73746f726167652e76310000000060209091015260008060ff6110b860017f8b4ac7cd4466ab0d50fe53a88c5446ca4a450d482bef9ad792e7d9f451497e0f611b64565b6040516020016110ca91815260200190565b60408051601f1981840301815291905280516020909101201692915050565b60006001600160a01b0382166111595760405162461bcd60e51b815260206004820152602f60248201527f4c6962436c6f6e653a20696d706c656d656e746174696f6e2063616e6e6f742060448201526e6265207a65726f206164647265737360881b60648201526084016102b7565b60008260601b9050604051733d602d80600a3d3981f3363d3d373d3d3d363d7360601b81528160148201526e5af43d82803e903d91602b57fd5bf360881b60288201526037816000f0949350505050565b6040518060400160405280606081526020016111e16040518060400160405280600061ffff168152602001600061ffff1681525090565b905290565b6000602082840312156111f857600080fd5b813567ffffffffffffffff81111561120f57600080fd5b8201610140818503121561122257600080fd5b9392505050565b6001600160a01b03811681146100e057600080fd5b60006020828403121561125057600080fd5b813561122281611229565b6000815180845260005b8181101561128157602081850181015186830182015201611265565b506000602082860101526020601f19601f83011685010191505092915050565b6020815260008251606060208401526112bd608084018261125b565b602094850151805161ffff90811660408701529501519094166060909301929092525090919050565b600080602083850312156112f957600080fd5b823567ffffffffffffffff8082111561131157600080fd5b818501915085601f83011261132557600080fd5b81358181111561133457600080fd5b86602082850101111561134657600080fd5b60209290920196919550909350505050565b600060c0828403121561136a57600080fd5b50919050565b60006020828403121561138257600080fd5b813567ffffffffffffffff81111561139957600080fd5b6113a584828501611358565b949350505050565b6000602082840312156113bf57600080fd5b813567ffffffffffffffff8111156113d657600080fd5b82016060818503121561122257600080fd5b6000602082840312156113fa57600080fd5b815161122281611229565b80151581146100e057600080fd5b60006020828403121561142557600080fd5b815161122281611405565b803561ffff8116811461144257600080fd5b919050565b60006020828403121561145957600080fd5b610ee682611430565b634e487b7160e01b600052604160045260246000fd5b60405160c0810167ffffffffffffffff8111828210171561149b5761149b611462565b60405290565b6000606082840312156114b357600080fd5b6040516060810181811067ffffffffffffffff821117156114d6576114d6611462565b6040526114e283611430565b81526114f060208401611430565b6020820152604083013560408201528091505092915050565b6000808335601e1984360301811261152057600080fd5b83018035915067ffffffffffffffff82111561153b57600080fd5b60200191503681900382131561155057600080fd5b9250929050565b602080825282516001600160a01b0390811683830152838201511660408084019190915280840151805161ffff908116606086015292810151909216608084015281015160a083015260009050606083015160c0830152608083015160e0808401526113a561010084018261125b565b6000823560be198336030181126115dd57600080fd5b9190910192915050565b600082601f8301126115f857600080fd5b813567ffffffffffffffff8082111561161357611613611462565b604051601f8301601f19908116603f0116810190828211818310171561163b5761163b611462565b8160405283815286602085880101111561165457600080fd5b836020870160208301376000602085830101528094505050505092915050565b600060c0823603121561168657600080fd5b61168e611478565b823567ffffffffffffffff808211156116a657600080fd5b6116b2368387016115e7565b835260208501359150808211156116c857600080fd5b6116d4368387016115e7565b602084015260408501359150808211156116ed57600080fd5b506116fa368286016115e7565b604083015250606083013560608201526080830135608082015260a083013560a082015280915050919050565b60208152600060018060a01b0380845116602084015280602085015116604084015280604085015116606084015250606083015160c0608084015261176f60e084018261125b565b90506080840151601f19808584030160a0860152815160c0845261179660c085018261125b565b9050602083015184820360208601526117af828261125b565b915050604083015184820360408601526117c9828261125b565b915050606083015160608501526080830151608085015260a083015160a085015260a08701519350818682030160c0870152611805818561125b565b979650505050505050565b602080825282516001600160a01b031682820152820151600090611856604084018261ffff80825116835280602083015116602084015250604081015160408301525050565b50604083015160a080840152805160c08085015261187861018085018261125b565b9050602082015160bf19808684030160e0870152611896838361125b565b9250604084015191508086840301610100870152506118b5828261125b565b6060840151610120870152608084015161014087015260a09093015161016090950194909452509392505050565b6000602082840312156118f557600080fd5b813561122281611405565b634e487b7160e01b600052603260045260246000fd5b602080825282516001600160a01b031682820152828101516040808401819052815160608501819052600093926080600583901b87018101939185019290870190865b818110156119a257888603607f19018352845180516001600160e01b031916875287015187870185905261198f8588018261125b565b9650509386019391860191600101611959565b509398975050505050505050565b81835281816020850137506000828201602090810191909152601f909101601f19169091010190565b6020815260006113a56020830184866119b0565b6000808335601e19843603018112611a0457600080fd5b830160208101925035905067ffffffffffffffff811115611a2457600080fd5b80360382131561155057600080fd5b6020815260008235611a4481611229565b6001600160a01b0316602083810191909152611a62908401846119ed565b60c06040850152611a7760e0850182846119b0565b9150506040840135606084015261ffff80611a9460608701611430565b16608085015280611aa760808701611430565b1660a08501525060a084013560c08401528091505092915050565b602081526000611ad283846119ed565b60c06020850152611ae760e0850182846119b0565b915050611af760208501856119ed565b601f1980868503016040870152611b0f8483856119b0565b9350611b1e60408801886119ed565b935091508086850301606087015250611b388383836119b0565b9250505060608401356080840152608084013560a084015260a084013560c08401528091505092915050565b81810381811115610ee957634e487b7160e01b600052601160045260246000fdfe6368616e6765456e746974795465726d7328616464726573732c526567697374726174696f6e5465726d7329a26469706673582212204fa78c1528f267151d02b9534c989002990cf6a2748ad6f0b74eea6356efa73a64736f6c63430008180033",
  "linkReferences": {
    "contracts/libraries/LibExtensions.sol": {
      "LibExtensions": [
        {
          "length": 20,
          "start": 3495
        }
      ]
    },
    "contracts/libraries/LibRegistration.sol": {
      "LibRegistration": [
        {
          "length": 20,
          "start": 1472
        },
        {
          "length": 20,
          "start": 2391
        },
        {
          "length": 20,
          "start": 3739
        },
        {
          "length": 20,
          "start": 3870
        },
        {
          "length": 20,
          "start": 3994
        },
        {
          "length": 20,
          "start": 4106
        }
      ]
    }
  },
  "deployedLinkReferences": {
    "contracts/libraries/LibExtensions.sol": {
      "LibExtensions": [
        {
          "length": 20,
          "start": 3463
        }
      ]
    },
    "contracts/libraries/LibRegistration.sol": {
      "LibRegistration": [
        {
          "length": 20,
          "start": 1440
        },
        {
          "length": 20,
          "start": 2359
        },
        {
          "length": 20,
          "start": 3707
        },
        {
          "length": 20,
          "start": 3838
        },
        {
          "length": 20,
          "start": 3962
        },
        {
          "length": 20,
          "start": 4074
        }
      ]
    }
  }
}