{
  "_format": "hh-sol-artifact-1",
  "contractName": "ERC20TransferExt",
  "sourceName": "contracts/extensions/asset/erc20/ERC20TransferExt.sol",
  "abi": [
    {
      "inputs": [
        {
          "internalType": "uint256",
          "name": "value",
          "type": "uint256"
        },
        {
          "internalType": "uint256",
          "name": "length",
          "type": "uint256"
        }
      ],
      "name": "StringsInsufficientHexLength",
      "type": "error"
    },
    {
      "inputs": [
        {
          "internalType": "address",
          "name": "",
          "type": "address"
        },
        {
          "internalType": "uint256",
          "name": "",
          "type": "uint256"
        }
      ],
      "name": "approve",
      "outputs": [
        {
          "internalType": "bool",
          "name": "",
          "type": "bool"
        }
      ],
      "stateMutability": "pure",
      "type": "function"
    },
    {
      "inputs": [
        {
          "internalType": "address",
          "name": "myAddress",
          "type": "address"
        }
      ],
      "name": "install",
      "outputs": [],
      "stateMutability": "nonpayable",
      "type": "function"
    },
    {
      "inputs": [],
      "name": "metadata",
      "outputs": [
        {
          "components": [
            {
              "internalType": "string",
              "name": "name",
              "type": "string"
            },
            {
              "components": [
                {
                  "internalType": "uint16",
                  "name": "major",
                  "type": "uint16"
                },
                {
                  "internalType": "uint16",
                  "name": "minor",
                  "type": "uint16"
                }
              ],
              "internalType": "struct Version",
              "name": "version",
              "type": "tuple"
            }
          ],
          "internalType": "struct ExtensionMetadata",
          "name": "",
          "type": "tuple"
        }
      ],
      "stateMutability": "pure",
      "type": "function"
    },
    {
      "inputs": [
        {
          "internalType": "address",
          "name": "",
          "type": "address"
        },
        {
          "internalType": "uint256",
          "name": "",
          "type": "uint256"
        }
      ],
      "name": "transfer",
      "outputs": [
        {
          "internalType": "bool",
          "name": "",
          "type": "bool"
        }
      ],
      "stateMutability": "pure",
      "type": "function"
    },
    {
      "inputs": [
        {
          "internalType": "address",
          "name": "",
          "type": "address"
        },
        {
          "internalType": "address",
          "name": "",
          "type": "address"
        },
        {
          "internalType": "uint256",
          "name": "",
          "type": "uint256"
        }
      ],
      "name": "transferFrom",
      "outputs": [
        {
          "internalType": "bool",
          "name": "",
          "type": "bool"
        }
      ],
      "stateMutability": "pure",
      "type": "function"
    },
    {
      "inputs": [
        {
          "internalType": "address",
          "name": "myAddress",
          "type": "address"
        }
      ],
      "name": "upgrade",
      "outputs": [],
      "stateMutability": "nonpayable",
      "type": "function"
    }
  ],
  "bytecode": "0x608060405234801561001057600080fd5b50610b9a806100206000396000f3fe608060405234801561001057600080fd5b50600436106100625760003560e01c80630900f01014610067578063095ea7b31461007a57806323b872dd146100a25780632a1b8f9b146100b5578063392f37e9146100c8578063a9059cbb146100dd575b600080fd5b610078610075366004610803565b50565b005b61008d610088366004610825565b6100eb565b60405190151581526020015b60405180910390f35b61008d6100b036600461084f565b61014b565b6100786100c3366004610803565b6101a6565b6100d0610360565b60405161009991906108db565b61008d6100b0366004610825565b60405162461bcd60e51b815260206004820152602760248201527f4e54455243323041737365743a20617070726f76616c73206e6f7420616c6c6f6044820152661dd959081e595d60ca1b60648201526000906084015b60405180910390fd5b60405162461bcd60e51b815260206004820152602760248201527f4e54455243323041737365743a207472616e7366657273206e6f7420616c6c6f6044820152661dd959081e595d60ca1b6064820152600090608401610142565b60408051600380825260808201909252600091816020015b6040805180820190915260008152606060208201528152602001906001900390816101be579050509050604051806040016040528063a9059cbb60e01b6001600160e01b03191681526020016040518060400160405280601981526020017f7472616e7366657228616464726573732c75696e7432353629000000000000008152508152508160008151811061025657610256610936565b6020026020010181905250604051806040016040528063095ea7b360e01b6001600160e01b03191681526020016040518060400160405280601881526020017f617070726f766528616464726573732c75696e74323536290000000000000000815250815250816001815181106102cf576102cf610936565b602002602001018190525060405180604001604052806323b872dd60e01b6001600160e01b0319168152602001604051806060016040528060258152602001610b40602591398152508160028151811061032b5761032b610936565b602002602001018190525061035c6040518060400160405280846001600160a01b03168152602001838152506103b6565b5050565b6103686107ab565b506040805160808101825260108183019081526f115490cc8c151c985b9cd9995c915e1d60821b60608301528152815180830190925260018252600060208381019190915281019190915290565b60006103c0610579565b82516001600160a01b031660009081526020829052604081209192505b8360200151518110156105735760008460200151828151811061040257610402610936565b6020908102919091018101518051600486810180546001808201835560009283528683206008830401805463ffffffff600790941690950261010090810a9384021990951660e09690961c9290920294909417905583516001600160e01b0319168152918801909352604090208054919350916001600160a01b03910416156104fb57805461010090046001600160a01b03166000908152602086905260408120875190919060018701906104b69061060f565b6020808701516040516104d09493926001880191016109e9565b60405160208183030381529060405290508060405162461bcd60e51b81526004016101429190610ac2565b50604080518082018252600180825287516001600160a01b03908116602080850191825295516001600160e01b0319166000908152898401909652939094209151825493516001600160a81b0319909416901515610100600160a81b03191617610100939094169290920292909217909155016103dd565b50505050565b60408051808201909152601881527f78722e657874656e73696f6e732e73746f726167652e7631000000000000000060209091015260008060ff6105de60017fb58ec9ca7ba0606d9fecd9f559655d0e5fec418e6751b65b892bccdfd25eb99f610aeb565b6040516020016105f091815260200190565b60408051601f1981840301815291905280516020909101201692915050565b60606106256001600160a01b038316601461062b565b92915050565b606082600061063b846002610afe565b610646906002610b15565b67ffffffffffffffff81111561065e5761065e610920565b6040519080825280601f01601f191660200182016040528015610688576020820181803683370190505b509050600360fc1b816000815181106106a3576106a3610936565b60200101906001600160f81b031916908160001a905350600f60fb1b816001815181106106d2576106d2610936565b60200101906001600160f81b031916908160001a90535060006106f6856002610afe565b610701906001610b15565b90505b6001811115610779576f181899199a1a9b1b9c1cb0b131b232b360811b83600f166010811061073557610735610936565b1a60f81b82828151811061074b5761074b610936565b60200101906001600160f81b031916908160001a90535060049290921c9161077281610b28565b9050610704565b5081156107a35760405163e22e27eb60e01b81526004810186905260248101859052604401610142565b949350505050565b6040518060400160405280606081526020016107e26040518060400160405280600061ffff168152602001600061ffff1681525090565b905290565b80356001600160a01b03811681146107fe57600080fd5b919050565b60006020828403121561081557600080fd5b61081e826107e7565b9392505050565b6000806040838503121561083857600080fd5b610841836107e7565b946020939093013593505050565b60008060006060848603121561086457600080fd5b61086d846107e7565b925061087b602085016107e7565b9150604084013590509250925092565b60005b838110156108a657818101518382015260200161088e565b50506000910152565b600081518084526108c781602086016020860161088b565b601f01601f19169290920160200192915050565b6020815260008251606060208401526108f760808401826108af565b602094850151805161ffff90811660408701529501519094166060909301929092525090919050565b634e487b7160e01b600052604160045260246000fd5b634e487b7160e01b600052603260045260246000fd5b8054600090600181811c908083168061096657607f831692505b6020808410820361098757634e487b7160e01b600052602260045260246000fd5b81801561099b57600181146109b0576109dd565b60ff19861689528415158502890196506109dd565b60008881526020902060005b868110156109d55781548b8201529085019083016109bc565b505084890196505b50505050505092915050565b7f4c6962457874656e73696f6e3a20657874656e73696f6e20000000000000000081526000610a1b601883018761094c565b6c01030ba1030b2323932b9b99d1609d1b81528551610a4181600d840160208a0161088b565b7f20617474656d7074696e6720746f20726575736520612073656c6563746f7200600d92909101918201528451610a7f81602c84016020890161088b565b7f20616c7265616479207265676973746572656420627920000000000000000000602c9290910191820152610ab7604382018561094c565b979650505050505050565b60208152600061081e60208301846108af565b634e487b7160e01b600052601160045260246000fd5b8181038181111561062557610625610ad5565b808202811582820484141761062557610625610ad5565b8082018082111561062557610625610ad5565b600081610b3757610b37610ad5565b50600019019056fe7472616e7366657246726f6d28616464726573732c616464726573732c75696e7432353629a26469706673582212200c22bd0d0a601c8fd77cb86bf9f13ab1384d7b45098c3fca96c09740e27b62c864736f6c63430008180033",
  "linkReferences": {},
  "deployedLinkReferences": {}
}