{
  "_format": "hh-sol-artifact-1",
  "contractName": "ERC20MintingExt",
  "sourceName": "contracts/extensions/asset/erc20/ERC20MintingExt.sol",
  "abi": [
    {
      "inputs": [
        {
          "internalType": "address",
          "name": "spender",
          "type": "address"
        },
        {
          "internalType": "uint256",
          "name": "allowance",
          "type": "uint256"
        },
        {
          "internalType": "uint256",
          "name": "needed",
          "type": "uint256"
        }
      ],
      "name": "ERC20InsufficientAllowance",
      "type": "error"
    },
    {
      "inputs": [
        {
          "internalType": "address",
          "name": "sender",
          "type": "address"
        },
        {
          "internalType": "uint256",
          "name": "balance",
          "type": "uint256"
        },
        {
          "internalType": "uint256",
          "name": "needed",
          "type": "uint256"
        }
      ],
      "name": "ERC20InsufficientBalance",
      "type": "error"
    },
    {
      "inputs": [
        {
          "internalType": "address",
          "name": "approver",
          "type": "address"
        }
      ],
      "name": "ERC20InvalidApprover",
      "type": "error"
    },
    {
      "inputs": [
        {
          "internalType": "address",
          "name": "receiver",
          "type": "address"
        }
      ],
      "name": "ERC20InvalidReceiver",
      "type": "error"
    },
    {
      "inputs": [
        {
          "internalType": "address",
          "name": "sender",
          "type": "address"
        }
      ],
      "name": "ERC20InvalidSender",
      "type": "error"
    },
    {
      "inputs": [
        {
          "internalType": "address",
          "name": "spender",
          "type": "address"
        }
      ],
      "name": "ERC20InvalidSpender",
      "type": "error"
    },
    {
      "inputs": [],
      "name": "ReentrancyGuardReentrantCall",
      "type": "error"
    },
    {
      "inputs": [
        {
          "internalType": "uint256",
          "name": "value",
          "type": "uint256"
        },
        {
          "internalType": "uint256",
          "name": "length",
          "type": "uint256"
        }
      ],
      "name": "StringsInsufficientHexLength",
      "type": "error"
    },
    {
      "anonymous": false,
      "inputs": [
        {
          "indexed": true,
          "internalType": "address",
          "name": "owner",
          "type": "address"
        },
        {
          "indexed": true,
          "internalType": "address",
          "name": "spender",
          "type": "address"
        },
        {
          "indexed": false,
          "internalType": "uint256",
          "name": "value",
          "type": "uint256"
        }
      ],
      "name": "Approval",
      "type": "event"
    },
    {
      "anonymous": false,
      "inputs": [
        {
          "indexed": true,
          "internalType": "address",
          "name": "to",
          "type": "address"
        },
        {
          "indexed": true,
          "internalType": "uint256",
          "name": "amt",
          "type": "uint256"
        }
      ],
      "name": "ERC20Minted",
      "type": "event"
    },
    {
      "anonymous": false,
      "inputs": [
        {
          "indexed": true,
          "internalType": "address",
          "name": "from",
          "type": "address"
        },
        {
          "indexed": true,
          "internalType": "address",
          "name": "to",
          "type": "address"
        },
        {
          "indexed": false,
          "internalType": "uint256",
          "name": "value",
          "type": "uint256"
        }
      ],
      "name": "Transfer",
      "type": "event"
    },
    {
      "inputs": [
        {
          "internalType": "address",
          "name": "to",
          "type": "address"
        },
        {
          "internalType": "bytes",
          "name": "data",
          "type": "bytes"
        }
      ],
      "name": "canMint",
      "outputs": [
        {
          "internalType": "bool",
          "name": "",
          "type": "bool"
        }
      ],
      "stateMutability": "view",
      "type": "function"
    },
    {
      "inputs": [
        {
          "internalType": "address",
          "name": "myAddress",
          "type": "address"
        }
      ],
      "name": "install",
      "outputs": [],
      "stateMutability": "nonpayable",
      "type": "function"
    },
    {
      "inputs": [],
      "name": "metadata",
      "outputs": [
        {
          "components": [
            {
              "internalType": "string",
              "name": "name",
              "type": "string"
            },
            {
              "components": [
                {
                  "internalType": "uint16",
                  "name": "major",
                  "type": "uint16"
                },
                {
                  "internalType": "uint16",
                  "name": "minor",
                  "type": "uint16"
                }
              ],
              "internalType": "struct Version",
              "name": "version",
              "type": "tuple"
            }
          ],
          "internalType": "struct ExtensionMetadata",
          "name": "",
          "type": "tuple"
        }
      ],
      "stateMutability": "pure",
      "type": "function"
    },
    {
      "inputs": [
        {
          "internalType": "address",
          "name": "to",
          "type": "address"
        },
        {
          "internalType": "bytes",
          "name": "data",
          "type": "bytes"
        }
      ],
      "name": "mint",
      "outputs": [],
      "stateMutability": "nonpayable",
      "type": "function"
    },
    {
      "inputs": [
        {
          "internalType": "address",
          "name": "tgt",
          "type": "address"
        },
        {
          "internalType": "bytes",
          "name": "data",
          "type": "bytes"
        }
      ],
      "name": "revoke",
      "outputs": [],
      "stateMutability": "nonpayable",
      "type": "function"
    },
    {
      "inputs": [
        {
          "internalType": "address",
          "name": "myAddress",
          "type": "address"
        }
      ],
      "name": "upgrade",
      "outputs": [],
      "stateMutability": "nonpayable",
      "type": "function"
    }
  ],
  "bytecode": "0x608060405234801561001057600080fd5b5060016000556118d0806100256000396000f3fe608060405234801561001057600080fd5b50600436106100625760003560e01c80630900f010146100675780632a1b8f9b1461007a578063392f37e91461008d5780639a973844146100ab5780639e54c0a2146100be578063b510391f146100e1575b600080fd5b6100786100753660046113de565b50565b005b6100786100883660046113de565b6100f4565b6100956102b2565b6040516100a29190611452565b60405180910390f35b6100786100b9366004611497565b610307565b6100d16100cc366004611497565b61068f565b60405190151581526020016100a2565b6100786100ef366004611497565b6108dc565b60408051600380825260808201909252600091816020015b60408051808201909152600081526060602082015281526020019060019003908161010c5790505090506040518060400160405280639e54c0a260e01b6001600160e01b03191681526020016040518060400160405280601681526020017563616e4d696e7428616464726573732c62797465732960501b8152508152508160008151811061019d5761019d611532565b6020026020010181905250604051806040016040528063b510391f60e01b6001600160e01b0319168152602001604051806040016040528060138152602001726d696e7428616464726573732c62797465732960681b8152508152508160018151811061020c5761020c611532565b60200260200101819052506040518060400160405280639a97384460e01b6001600160e01b0319168152602001604051806040016040528060158152602001747265766f6b6528616464726573732c62797465732960581b8152508152508160028151811061027d5761027d611532565b60200260200101819052506102ae6040518060400160405280846001600160a01b0316815260200183815250610af9565b5050565b6102ba61138d565b5060408051608081018252600f8183019081526e115490cc8c135a5b9d1a5b99d15e1d608a1b60608301528152815180830190925260018252600060208381019190915281019190915290565b61030f610cbc565b6000610319610ce6565b600101546001600160a01b031690503381146103505760405162461bcd60e51b815260040161034790611548565b60405180910390fd5b6000306001600160a01b031663c51aba2b6040518163ffffffff1660e01b8152600401602060405180830381865afa158015610390573d6000803e3d6000fd5b505050506040513d601f19601f820116820180604052508101906103b49190611590565b60405163c3c5a54760e01b81526001600160a01b0384811660048301529192509082169063c3c5a54790602401602060405180830381865afa1580156103fe573d6000803e3d6000fd5b505050506040513d601f19601f8201168201806040525081019061042291906115ad565b61043e5760405162461bcd60e51b8152600401610347906115cf565b816001600160a01b03166386b70bed6040518163ffffffff1660e01b8152600401602060405180830381865afa15801561047c573d6000803e3d6000fd5b505050506040513d601f19601f820116820180604052508101906104a091906115ad565b6104bc5760405162461bcd60e51b81526004016103479061162c565b6001600160a01b0385166105285760405162461bcd60e51b815260206004820152602d60248201527f4e54455243323041737365743a2063616e6e6f74207265766f6b652066726f6d60448201526c207a65726f206164647265737360981b6064820152608401610347565b600061053684860186611675565b9050600081116105a65760405162461bcd60e51b815260206004820152603560248201527f4e54455243323041737365743a207265766f6b6520616d6f756e74206d7573746044820152742062652067726561746572207468616e207a65726f60581b6064820152608401610347565b6040516370a0823160e01b81526001600160a01b0387166004820152819030906370a0823190602401602060405180830381865afa1580156105ec573d6000803e3d6000fd5b505050506040513d601f19601f82011682018060405250810190610610919061168e565b10156106735760405162461bcd60e51b815260206004820152602c60248201527f4e54455243323041737365743a20696e73756666696369656e742062616c616e60448201526b636520746f207265766f6b6560a01b6064820152608401610347565b61067d8682610d72565b50505061068a6001600055565b505050565b60006001600160a01b0384166106f95760405162461bcd60e51b815260206004820152602960248201527f4e54455243323041737365743a2063616e6e6f74206d696e7420746f207a65726044820152686f206164647265737360b81b6064820152608401610347565b6000610703610da8565b9050600061071384860186611675565b9050816001015481836002015461072a91906116bd565b11156107825760405162461bcd60e51b815260206004820152602160248201527f4e54455243323041737365743a206d617820737570706c7920657863656564656044820152601960fa1b6064820152608401610347565b6000306001600160a01b031663e3d7ad736040518163ffffffff1660e01b8152600401602060405180830381865afa1580156107c2573d6000803e3d6000fd5b505050506040513d601f19601f820116820180604052508101906107e69190611590565b60405163c3c5a54760e01b81526001600160a01b0389811660048301529192509082169063c3c5a54790602401602060405180830381865afa158015610830573d6000803e3d6000fd5b505050506040513d601f19601f8201168201806040525081019061085491906115ad565b156108cf576000879050806001600160a01b031663181d939b6040518163ffffffff1660e01b8152600401602060405180830381865afa15801561089c573d6000803e3d6000fd5b505050506040513d601f19601f820116820180604052508101906108c091906115ad565b6108cd576108cd88610e0d565b505b5060019695505050505050565b6108e4610cbc565b60006108ee610ce6565b600101546001600160a01b0316905033811461091c5760405162461bcd60e51b815260040161034790611548565b6000306001600160a01b031663c51aba2b6040518163ffffffff1660e01b8152600401602060405180830381865afa15801561095c573d6000803e3d6000fd5b505050506040513d601f19601f820116820180604052508101906109809190611590565b60405163c3c5a54760e01b81526001600160a01b0384811660048301529192509082169063c3c5a54790602401602060405180830381865afa1580156109ca573d6000803e3d6000fd5b505050506040513d601f19601f820116820180604052508101906109ee91906115ad565b610a0a5760405162461bcd60e51b8152600401610347906115cf565b816001600160a01b03166386b70bed6040518163ffffffff1660e01b8152600401602060405180830381865afa158015610a48573d6000803e3d6000fd5b505050506040513d601f19601f82011682018060405250810190610a6c91906115ad565b610a885760405162461bcd60e51b81526004016103479061162c565b610a9385858561068f565b610adf5760405162461bcd60e51b815260206004820181905260248201527f4e54455243323041737365743a2063616e6e6f74206d696e7420746f6b656e736044820152606401610347565b6000610aed84860186611675565b905061067d8682610fdb565b6000610b0361104b565b82516001600160a01b031660009081526020829052604081209192505b836020015151811015610cb657600084602001518281518110610b4557610b45611532565b6020908102919091018101518051600486810180546001808201835560009283528683206008830401805463ffffffff600790941690950261010090810a9384021990951660e09690961c9290920294909417905583516001600160e01b0319168152918801909352604090208054919350916001600160a01b0391041615610c3e57805461010090046001600160a01b0316600090815260208690526040812087519091906001870190610bf9906110b0565b602080870151604051610c1394939260018801910161176d565b60405160208183030381529060405290508060405162461bcd60e51b81526004016103479190611846565b50604080518082018252600180825287516001600160a01b03908116602080850191825295516001600160e01b0319166000908152898401909652939094209151825493516001600160a81b0319909416901515610100600160a81b0319161761010093909416929092029290921790915501610b20565b50505050565b600260005403610cdf57604051633ee5aeb560e01b815260040160405180910390fd5b6002600055565b60408051808201909152601381527278722e61737365742e73746f726167652e763160681b60209091015260008060ff610d4160017f0db46b7c34197dfe4fa603e9c17ca5ed137d4afe720a374e843bbcf1431eaeb7611859565b604051602001610d5391815260200190565b60408051601f1981840301815291905280516020909101201692915050565b6001600160a01b038216610d9c57604051634b637e8f60e11b815260006004820152602401610347565b6102ae826000836110cc565b60408051808201909152601981527f78722e65726332302e61737365742e73746f726167652e76310000000000000060209091015260008060ff610d4160017f3139feec972a01e581c6c4f7f95f108002217f0982e61e19cad72b737ad6c32a611859565b6000816001600160a01b031663516f279e6040518163ffffffff1660e01b8152600401602060405180830381865afa158015610e4d573d6000803e3d6000fd5b505050506040513d601f19601f82011682018060405250810190610e719190611590565b90506001600160a01b038116610ed35760405162461bcd60e51b815260206004820152602160248201527f4261736541737365743a2061766174617220686173206e6f206c6f636174696f6044820152603760f91b6064820152608401610347565b80610edc610ce6565b6001015460408051636904c94d60e01b815290516001600160a01b0392831692841691636904c94d9160048083019260209291908290030181865afa158015610f29573d6000803e3d6000fd5b505050506040513d601f19601f82011682018060405250810190610f4d9190611590565b6001600160a01b03161461068a5760405162461bcd60e51b815260206004820152604960248201527f4261736541737365743a2061766174617220646f6573206e6f7420616c6c6f7760448201527f20617373657473206f757473696465206f66206974732063757272656e7420656064820152687870657269656e636560b81b608482015260a401610347565b6001600160a01b0382166110055760405163ec442f0560e01b815260006004820152602401610347565b611011600083836110cc565b60405181906001600160a01b038416907f1f98ee45d72cac8271cfd41cc599153bf1465afc3fc1f0b3e2a97b8f1c4253a990600090a35050565b60408051808201909152601881527f78722e657874656e73696f6e732e73746f726167652e7631000000000000000060209091015260008060ff610d4160017fb58ec9ca7ba0606d9fecd9f559655d0e5fec418e6751b65b892bccdfd25eb99f611859565b60606110c66001600160a01b038316601461120d565b92915050565b60006110d6610da8565b90506001600160a01b03841661110557818160020160008282546110fa91906116bd565b9091555061117b9050565b6001600160a01b03841660009081526003820160205260409020548281101561115a5760405163391434e360e21b81526001600160a01b03861660048201526024810182905260448101849052606401610347565b6001600160a01b038516600090815260038301602052604090209083900390555b6001600160a01b0383166111995760028101805483900390556111ba565b6001600160a01b038316600090815260038201602052604090208054830190555b826001600160a01b0316846001600160a01b03167fddf252ad1be2c89b69c2b068fc378daa952ba7f163c4a11628f55a4df523b3ef846040516111ff91815260200190565b60405180910390a350505050565b606082600061121d84600261186c565b6112289060026116bd565b67ffffffffffffffff8111156112405761124061151c565b6040519080825280601f01601f19166020018201604052801561126a576020820181803683370190505b509050600360fc1b8160008151811061128557611285611532565b60200101906001600160f81b031916908160001a905350600f60fb1b816001815181106112b4576112b4611532565b60200101906001600160f81b031916908160001a90535060006112d885600261186c565b6112e39060016116bd565b90505b600181111561135b576f181899199a1a9b1b9c1cb0b131b232b360811b83600f166010811061131757611317611532565b1a60f81b82828151811061132d5761132d611532565b60200101906001600160f81b031916908160001a90535060049290921c9161135481611883565b90506112e6565b5081156113855760405163e22e27eb60e01b81526004810186905260248101859052604401610347565b949350505050565b6040518060400160405280606081526020016113c46040518060400160405280600061ffff168152602001600061ffff1681525090565b905290565b6001600160a01b038116811461007557600080fd5b6000602082840312156113f057600080fd5b81356113fb816113c9565b9392505050565b60005b8381101561141d578181015183820152602001611405565b50506000910152565b6000815180845261143e816020860160208601611402565b601f01601f19169290920160200192915050565b60208152600082516060602084015261146e6080840182611426565b602094850151805161ffff90811660408701529501519094166060909301929092525090919050565b6000806000604084860312156114ac57600080fd5b83356114b7816113c9565b9250602084013567ffffffffffffffff808211156114d457600080fd5b818601915086601f8301126114e857600080fd5b8135818111156114f757600080fd5b87602082850101111561150957600080fd5b6020830194508093505050509250925092565b634e487b7160e01b600052604160045260246000fd5b634e487b7160e01b600052603260045260246000fd5b60208082526028908201527f4261736541737365744d696e74696e674578743a206f6e6c792069737375657260408201526708185b1b1bddd95960c21b606082015260800190565b6000602082840312156115a257600080fd5b81516113fb816113c9565b6000602082840312156115bf57600080fd5b815180151581146113fb57600080fd5b60208082526037908201527f4261736541737365744d696e74696e674578743a20697373756572206973206e60408201527f6f742061207265676973746572656420636f6d70616e79000000000000000000606082015260800190565b60208082526029908201527f4261736541737365744d696e74696e674578743a20697373756572206973206e6040820152686f742061637469766560b81b606082015260800190565b60006020828403121561168757600080fd5b5035919050565b6000602082840312156116a057600080fd5b5051919050565b634e487b7160e01b600052601160045260246000fd5b808201808211156110c6576110c66116a7565b8054600090600181811c90808316806116ea57607f831692505b6020808410820361170b57634e487b7160e01b600052602260045260246000fd5b81801561171f576001811461173457611761565b60ff1986168952841515850289019650611761565b60008881526020902060005b868110156117595781548b820152908501908301611740565b505084890196505b50505050505092915050565b7f4c6962457874656e73696f6e3a20657874656e73696f6e2000000000000000008152600061179f60188301876116d0565b6c01030ba1030b2323932b9b99d1609d1b815285516117c581600d840160208a01611402565b7f20617474656d7074696e6720746f20726575736520612073656c6563746f7200600d9290910191820152845161180381602c840160208901611402565b7f20616c7265616479207265676973746572656420627920000000000000000000602c929091019182015261183b60438201856116d0565b979650505050505050565b6020815260006113fb6020830184611426565b818103818111156110c6576110c66116a7565b80820281158282048414176110c6576110c66116a7565b600081611892576118926116a7565b50600019019056fea26469706673582212204a02253070109f1edfac0957c4767aa11c63c7bceff27e41321af9684f7f286b64736f6c63430008180033",
  "linkReferences": {},
  "deployedLinkReferences": {}
}