{
  "_format": "hh-sol-artifact-1",
  "contractName": "ERC20InfoExt",
  "sourceName": "contracts/extensions/asset/erc20/ERC20InfoExt.sol",
  "abi": [
    {
      "inputs": [
        {
          "internalType": "uint256",
          "name": "value",
          "type": "uint256"
        },
        {
          "internalType": "uint256",
          "name": "length",
          "type": "uint256"
        }
      ],
      "name": "StringsInsufficientHexLength",
      "type": "error"
    },
    {
      "inputs": [
        {
          "internalType": "address",
          "name": "owner",
          "type": "address"
        },
        {
          "internalType": "address",
          "name": "spender",
          "type": "address"
        }
      ],
      "name": "allowance",
      "outputs": [
        {
          "internalType": "uint256",
          "name": "",
          "type": "uint256"
        }
      ],
      "stateMutability": "view",
      "type": "function"
    },
    {
      "inputs": [
        {
          "internalType": "address",
          "name": "account",
          "type": "address"
        }
      ],
      "name": "balanceOf",
      "outputs": [
        {
          "internalType": "uint256",
          "name": "",
          "type": "uint256"
        }
      ],
      "stateMutability": "view",
      "type": "function"
    },
    {
      "inputs": [],
      "name": "decimals",
      "outputs": [
        {
          "internalType": "uint8",
          "name": "",
          "type": "uint8"
        }
      ],
      "stateMutability": "view",
      "type": "function"
    },
    {
      "inputs": [
        {
          "internalType": "address",
          "name": "myAddress",
          "type": "address"
        }
      ],
      "name": "install",
      "outputs": [],
      "stateMutability": "nonpayable",
      "type": "function"
    },
    {
      "inputs": [],
      "name": "issuer",
      "outputs": [
        {
          "internalType": "address",
          "name": "",
          "type": "address"
        }
      ],
      "stateMutability": "view",
      "type": "function"
    },
    {
      "inputs": [],
      "name": "metadata",
      "outputs": [
        {
          "components": [
            {
              "internalType": "string",
              "name": "name",
              "type": "string"
            },
            {
              "components": [
                {
                  "internalType": "uint16",
                  "name": "major",
                  "type": "uint16"
                },
                {
                  "internalType": "uint16",
                  "name": "minor",
                  "type": "uint16"
                }
              ],
              "internalType": "struct Version",
              "name": "version",
              "type": "tuple"
            }
          ],
          "internalType": "struct ExtensionMetadata",
          "name": "",
          "type": "tuple"
        }
      ],
      "stateMutability": "pure",
      "type": "function"
    },
    {
      "inputs": [],
      "name": "name",
      "outputs": [
        {
          "internalType": "string",
          "name": "",
          "type": "string"
        }
      ],
      "stateMutability": "view",
      "type": "function"
    },
    {
      "inputs": [],
      "name": "originAddress",
      "outputs": [
        {
          "internalType": "address",
          "name": "",
          "type": "address"
        }
      ],
      "stateMutability": "view",
      "type": "function"
    },
    {
      "inputs": [],
      "name": "originChainId",
      "outputs": [
        {
          "internalType": "uint256",
          "name": "",
          "type": "uint256"
        }
      ],
      "stateMutability": "view",
      "type": "function"
    },
    {
      "inputs": [],
      "name": "symbol",
      "outputs": [
        {
          "internalType": "string",
          "name": "",
          "type": "string"
        }
      ],
      "stateMutability": "view",
      "type": "function"
    },
    {
      "inputs": [],
      "name": "totalSupply",
      "outputs": [
        {
          "internalType": "uint256",
          "name": "",
          "type": "uint256"
        }
      ],
      "stateMutability": "view",
      "type": "function"
    },
    {
      "inputs": [
        {
          "internalType": "address",
          "name": "myAddress",
          "type": "address"
        }
      ],
      "name": "upgrade",
      "outputs": [],
      "stateMutability": "nonpayable",
      "type": "function"
    }
  ],
  "bytecode": "0x608060405234801561001057600080fd5b5061102a806100206000396000f3fe608060405234801561001057600080fd5b50600436106100b45760003560e01c8063313ce56711610071578063313ce5671461013b578063392f37e91461015557806370a082311461016a57806395d89b411461017d578063dd62ed3e14610185578063e517fedd1461019857600080fd5b806306fdde03146100b95780630900f010146100d75780630ac7f561146100ea57806318160ddd146101005780631d143848146101085780632a1b8f9b14610128575b600080fd5b6100c16101a0565b6040516100ce9190610ce5565b60405180910390f35b6100e86100e5366004610d1b565b50565b005b6100f261023b565b6040519081526020016100ce565b6100f261024e565b610110610261565b6040516001600160a01b0390911681526020016100ce565b6100e8610136366004610d1b565b61027d565b6101436106a0565b60405160ff90911681526020016100ce565b61015d6106b3565b6040516100ce9190610d36565b6100f2610178366004610d1b565b610705565b6100c1610731565b6100f2610193366004610d7b565b610749565b610110610787565b60606101aa6107a6565b60040180546101b890610dae565b80601f01602080910402602001604051908101604052809291908181526020018280546101e490610dae565b80156102315780601f1061020657610100808354040283529160200191610231565b820191906000526020600020905b81548152906001019060200180831161021457829003601f168201915b5050505050905090565b60006102456107a6565b60030154905090565b6000610258610832565b60020154905090565b600061026b6107a6565b600101546001600160a01b0316919050565b6040805160098082526101408201909252600091816020015b60408051808201909152600081526060602082015281526020019060019003908161029657905050905060405180604001604052806306fdde0360e01b6001600160e01b0319168152602001604051806040016040528060068152602001656e616d65282960d01b8152508152508160008151811061031757610317610dfe565b602002602001018190525060405180604001604052806395d89b4160e01b6001600160e01b03191681526020016040518060400160405280600881526020016773796d626f6c282960c01b8152508152508160018151811061037b5761037b610dfe565b60200260200101819052506040518060400160405280631d14384860e01b6001600160e01b031916815260200160405180604001604052806008815260200167697373756572282960c01b815250815250816002815181106103df576103df610dfe565b6020026020010181905250604051806040016040528063e517fedd60e01b6001600160e01b03191681526020016040518060400160405280600f81526020016e6f726967696e41646472657373282960881b8152508152508160038151811061044a5761044a610dfe565b60200260200101819052506040518060400160405280630ac7f56160e01b6001600160e01b03191681526020016040518060400160405280600f81526020016e6f726967696e436861696e4964282960881b815250815250816004815181106104b5576104b5610dfe565b6020026020010181905250604051806040016040528063313ce56760e01b6001600160e01b03191681526020016040518060400160405280600a815260200169646563696d616c73282960b01b8152508152508160058151811061051b5761051b610dfe565b602002602001018190525060405180604001604052806318160ddd60e01b6001600160e01b03191681526020016040518060400160405280600d81526020016c746f74616c537570706c79282960981b8152508152508160068151811061058457610584610dfe565b602002602001018190525060405180604001604052806370a0823160e01b6001600160e01b03191681526020016040518060400160405280601281526020017162616c616e63654f6628616464726573732960701b815250815250816007815181106105f2576105f2610dfe565b6020026020010181905250604051806040016040528063dd62ed3e60e01b6001600160e01b03191681526020016040518060400160405280601a81526020017f616c6c6f77616e636528616464726573732c61646472657373290000000000008152508152508160088151811061066b5761066b610dfe565b602002602001018190525061069c6040518060400160405280846001600160a01b0316815260200183815250610897565b5050565b60006106aa610832565b5460ff16919050565b6106bb610c59565b5060408051608081018252600c8183019081526b115490cc8c125b999bd15e1d60a21b60608301528152815180830190925260018252600060208381019190915281019190915290565b600061070f610832565b6001600160a01b03909216600090815260039290920160205250604090205490565b606061073b6107a6565b60050180546101b890610dae565b6000610753610832565b6001600160a01b03808516600090815260049290920160209081526040808420928616845291905290205490505b92915050565b60006107916107a6565b546201000090046001600160a01b0316919050565b60408051808201909152601381527278722e61737365742e73746f726167652e763160681b60209091015260008060ff61080160017f0db46b7c34197dfe4fa603e9c17ca5ed137d4afe720a374e843bbcf1431eaeb7610e2a565b60405160200161081391815260200190565b60408051601f1981840301815291905280516020909101201692915050565b60408051808201909152601981527f78722e65726332302e61737365742e73746f726167652e76310000000000000060209091015260008060ff61080160017f3139feec972a01e581c6c4f7f95f108002217f0982e61e19cad72b737ad6c32a610e2a565b60006108a1610a63565b82516001600160a01b031660009081526020829052604081209192505b836020015151811015610a5d576000846020015182815181106108e3576108e3610dfe565b6020908102919091018101518051600486810180546001808201835560009283528683206008830401805463ffffffff600790941690950261010090810a9384021990951660e09690961c9290920294909417905583516001600160e01b0319168152918801909352604090208054919350916001600160a01b03910416156109e557805461010090046001600160a01b031660009081526020869052604081208751909190600187019061099790610ac8565b6020808701516040516109b1949392600188019101610eda565b60405160208183030381529060405290508060405162461bcd60e51b81526004016109dc9190610ce5565b60405180910390fd5b50604080518082018252600180825287516001600160a01b03908116602080850191825295516001600160e01b0319166000908152898401909652939094209151825493516001600160a81b0319909416901515610100600160a81b03191617610100939094169290920292909217909155016108be565b50505050565b60408051808201909152601881527f78722e657874656e73696f6e732e73746f726167652e7631000000000000000060209091015260008060ff61080160017fb58ec9ca7ba0606d9fecd9f559655d0e5fec418e6751b65b892bccdfd25eb99f610e2a565b60606107816001600160a01b03831660146060826000610ae9846002610fb3565b610af4906002610fca565b67ffffffffffffffff811115610b0c57610b0c610de8565b6040519080825280601f01601f191660200182016040528015610b36576020820181803683370190505b509050600360fc1b81600081518110610b5157610b51610dfe565b60200101906001600160f81b031916908160001a905350600f60fb1b81600181518110610b8057610b80610dfe565b60200101906001600160f81b031916908160001a9053506000610ba4856002610fb3565b610baf906001610fca565b90505b6001811115610c27576f181899199a1a9b1b9c1cb0b131b232b360811b83600f1660108110610be357610be3610dfe565b1a60f81b828281518110610bf957610bf9610dfe565b60200101906001600160f81b031916908160001a90535060049290921c91610c2081610fdd565b9050610bb2565b508115610c515760405163e22e27eb60e01b815260048101869052602481018590526044016109dc565b949350505050565b604051806040016040528060608152602001610c906040518060400160405280600061ffff168152602001600061ffff1681525090565b905290565b60005b83811015610cb0578181015183820152602001610c98565b50506000910152565b60008151808452610cd1816020860160208601610c95565b601f01601f19169290920160200192915050565b602081526000610cf86020830184610cb9565b9392505050565b80356001600160a01b0381168114610d1657600080fd5b919050565b600060208284031215610d2d57600080fd5b610cf882610cff565b602081526000825160606020840152610d526080840182610cb9565b602094850151805161ffff90811660408701529501519094166060909301929092525090919050565b60008060408385031215610d8e57600080fd5b610d9783610cff565b9150610da560208401610cff565b90509250929050565b600181811c90821680610dc257607f821691505b602082108103610de257634e487b7160e01b600052602260045260246000fd5b50919050565b634e487b7160e01b600052604160045260246000fd5b634e487b7160e01b600052603260045260246000fd5b634e487b7160e01b600052601160045260246000fd5b8181038181111561078157610781610e14565b8054600090600181811c9080831680610e5757607f831692505b60208084108203610e7857634e487b7160e01b600052602260045260246000fd5b818015610e8c5760018114610ea157610ece565b60ff1986168952841515850289019650610ece565b60008881526020902060005b86811015610ec65781548b820152908501908301610ead565b505084890196505b50505050505092915050565b7f4c6962457874656e73696f6e3a20657874656e73696f6e20000000000000000081526000610f0c6018830187610e3d565b6c01030ba1030b2323932b9b99d1609d1b81528551610f3281600d840160208a01610c95565b7f20617474656d7074696e6720746f20726575736520612073656c6563746f7200600d92909101918201528451610f7081602c840160208901610c95565b7f20616c7265616479207265676973746572656420627920000000000000000000602c9290910191820152610fa86043820185610e3d565b979650505050505050565b808202811582820484141761078157610781610e14565b8082018082111561078157610781610e14565b600081610fec57610fec610e14565b50600019019056fea2646970667358221220b6688fff81e704e89267c15ee8fed2ee7c3f5f7317ca8b028e6ced189f697dad64736f6c63430008180033",
  "linkReferences": {},
  "deployedLinkReferences": {}
}