{
  "_format": "hh-sol-artifact-1",
  "contractName": "ERC721Registry",
  "sourceName": "contracts/asset/registry/ERC721Registry.sol",
  "abi": [
    {
      "anonymous": false,
      "inputs": [
        {
          "indexed": true,
          "internalType": "address",
          "name": "entity",
          "type": "address"
        },
        {
          "indexed": true,
          "internalType": "address",
          "name": "by",
          "type": "address"
        }
      ],
      "name": "EntityRegistrationRenewed",
      "type": "event"
    },
    {
      "anonymous": false,
      "inputs": [
        {
          "indexed": true,
          "internalType": "address",
          "name": "world",
          "type": "address"
        },
        {
          "indexed": false,
          "internalType": "string",
          "name": "reason",
          "type": "string"
        }
      ],
      "name": "RegistrarDeactivatedWorld",
      "type": "event"
    },
    {
      "anonymous": false,
      "inputs": [
        {
          "indexed": true,
          "internalType": "address",
          "name": "world",
          "type": "address"
        }
      ],
      "name": "RegistrarReactivatedWorld",
      "type": "event"
    },
    {
      "anonymous": false,
      "inputs": [
        {
          "indexed": true,
          "internalType": "address",
          "name": "world",
          "type": "address"
        },
        {
          "indexed": false,
          "internalType": "string",
          "name": "reason",
          "type": "string"
        }
      ],
      "name": "RegistrarRemovedWorld",
      "type": "event"
    },
    {
      "anonymous": false,
      "inputs": [
        {
          "indexed": true,
          "internalType": "address",
          "name": "entity",
          "type": "address"
        },
        {
          "indexed": true,
          "internalType": "address",
          "name": "owner",
          "type": "address"
        }
      ],
      "name": "RegistryAddedEntity",
      "type": "event"
    },
    {
      "anonymous": false,
      "inputs": [
        {
          "indexed": true,
          "internalType": "address",
          "name": "entity",
          "type": "address"
        },
        {
          "indexed": false,
          "internalType": "string",
          "name": "reason",
          "type": "string"
        }
      ],
      "name": "RegistryDeactivatedEntity",
      "type": "event"
    },
    {
      "anonymous": false,
      "inputs": [
        {
          "indexed": true,
          "internalType": "address",
          "name": "entity",
          "type": "address"
        }
      ],
      "name": "RegistryEnforcedDeactivation",
      "type": "event"
    },
    {
      "anonymous": false,
      "inputs": [
        {
          "indexed": true,
          "internalType": "address",
          "name": "entity",
          "type": "address"
        }
      ],
      "name": "RegistryEnforcedRemoval",
      "type": "event"
    },
    {
      "anonymous": false,
      "inputs": [
        {
          "indexed": true,
          "internalType": "address",
          "name": "entity",
          "type": "address"
        }
      ],
      "name": "RegistryReactivatedEntity",
      "type": "event"
    },
    {
      "anonymous": false,
      "inputs": [
        {
          "indexed": true,
          "internalType": "address",
          "name": "entity",
          "type": "address"
        },
        {
          "indexed": false,
          "internalType": "string",
          "name": "reason",
          "type": "string"
        }
      ],
      "name": "RegistryRemovedEntity",
      "type": "event"
    },
    {
      "inputs": [
        {
          "internalType": "address[]",
          "name": "signers",
          "type": "address[]"
        }
      ],
      "name": "addSigners",
      "outputs": [],
      "stateMutability": "nonpayable",
      "type": "function"
    },
    {
      "inputs": [
        {
          "internalType": "address",
          "name": "original",
          "type": "address"
        },
        {
          "internalType": "uint256",
          "name": "chainId",
          "type": "uint256"
        }
      ],
      "name": "assetExists",
      "outputs": [
        {
          "internalType": "bool",
          "name": "",
          "type": "bool"
        }
      ],
      "stateMutability": "view",
      "type": "function"
    },
    {
      "inputs": [
        {
          "internalType": "address",
          "name": "addr",
          "type": "address"
        }
      ],
      "name": "canBeDeactivated",
      "outputs": [
        {
          "internalType": "bool",
          "name": "",
          "type": "bool"
        }
      ],
      "stateMutability": "view",
      "type": "function"
    },
    {
      "inputs": [
        {
          "internalType": "address",
          "name": "addr",
          "type": "address"
        }
      ],
      "name": "canBeRemoved",
      "outputs": [
        {
          "internalType": "bool",
          "name": "",
          "type": "bool"
        }
      ],
      "stateMutability": "view",
      "type": "function"
    },
    {
      "inputs": [
        {
          "components": [
            {
              "internalType": "address",
              "name": "entity",
              "type": "address"
            },
            {
              "internalType": "bytes",
              "name": "entitySignature",
              "type": "bytes"
            },
            {
              "internalType": "uint256",
              "name": "expiration",
              "type": "uint256"
            },
            {
              "components": [
                {
                  "internalType": "uint16",
                  "name": "coveragePeriodDays",
                  "type": "uint16"
                },
                {
                  "internalType": "uint16",
                  "name": "gracePeriodDays",
                  "type": "uint16"
                },
                {
                  "internalType": "uint256",
                  "name": "fee",
                  "type": "uint256"
                }
              ],
              "internalType": "struct RegistrationTerms",
              "name": "terms",
              "type": "tuple"
            }
          ],
          "internalType": "struct ChangeEntityTermsArgs",
          "name": "args",
          "type": "tuple"
        }
      ],
      "name": "changeEntityTerms",
      "outputs": [],
      "stateMutability": "nonpayable",
      "type": "function"
    },
    {
      "inputs": [
        {
          "internalType": "address",
          "name": "newOwner",
          "type": "address"
        }
      ],
      "name": "changeOwner",
      "outputs": [],
      "stateMutability": "nonpayable",
      "type": "function"
    },
    {
      "inputs": [
        {
          "internalType": "address",
          "name": "asset",
          "type": "address"
        },
        {
          "internalType": "string",
          "name": "reason",
          "type": "string"
        }
      ],
      "name": "deactivateAsset",
      "outputs": [],
      "stateMutability": "nonpayable",
      "type": "function"
    },
    {
      "inputs": [
        {
          "internalType": "contract IRemovableEntity",
          "name": "entity",
          "type": "address"
        },
        {
          "internalType": "string",
          "name": "reason",
          "type": "string"
        }
      ],
      "name": "deactivateEntity",
      "outputs": [],
      "stateMutability": "nonpayable",
      "type": "function"
    },
    {
      "inputs": [
        {
          "internalType": "contract IRemovableEntity",
          "name": "addr",
          "type": "address"
        }
      ],
      "name": "enforceDeactivation",
      "outputs": [],
      "stateMutability": "nonpayable",
      "type": "function"
    },
    {
      "inputs": [
        {
          "internalType": "contract IRemovableEntity",
          "name": "e",
          "type": "address"
        }
      ],
      "name": "enforceRemoval",
      "outputs": [],
      "stateMutability": "nonpayable",
      "type": "function"
    },
    {
      "inputs": [
        {
          "internalType": "string",
          "name": "name",
          "type": "string"
        }
      ],
      "name": "getEntityByName",
      "outputs": [
        {
          "internalType": "address",
          "name": "",
          "type": "address"
        }
      ],
      "stateMutability": "view",
      "type": "function"
    },
    {
      "inputs": [],
      "name": "getEntityImplementation",
      "outputs": [
        {
          "internalType": "address",
          "name": "",
          "type": "address"
        }
      ],
      "stateMutability": "view",
      "type": "function"
    },
    {
      "inputs": [
        {
          "internalType": "address",
          "name": "addr",
          "type": "address"
        }
      ],
      "name": "getEntityTerms",
      "outputs": [
        {
          "components": [
            {
              "internalType": "uint16",
              "name": "coveragePeriodDays",
              "type": "uint16"
            },
            {
              "internalType": "uint16",
              "name": "gracePeriodDays",
              "type": "uint16"
            },
            {
              "internalType": "uint256",
              "name": "fee",
              "type": "uint256"
            }
          ],
          "internalType": "struct RegistrationTerms",
          "name": "",
          "type": "tuple"
        }
      ],
      "stateMutability": "view",
      "type": "function"
    },
    {
      "inputs": [],
      "name": "getEntityVersion",
      "outputs": [
        {
          "components": [
            {
              "internalType": "uint16",
              "name": "major",
              "type": "uint16"
            },
            {
              "internalType": "uint16",
              "name": "minor",
              "type": "uint16"
            }
          ],
          "internalType": "struct Version",
          "name": "",
          "type": "tuple"
        }
      ],
      "stateMutability": "view",
      "type": "function"
    },
    {
      "inputs": [
        {
          "internalType": "address",
          "name": "addr",
          "type": "address"
        }
      ],
      "name": "getExpiration",
      "outputs": [
        {
          "internalType": "uint256",
          "name": "",
          "type": "uint256"
        }
      ],
      "stateMutability": "view",
      "type": "function"
    },
    {
      "inputs": [
        {
          "internalType": "address",
          "name": "addr",
          "type": "address"
        }
      ],
      "name": "getLastRenewal",
      "outputs": [
        {
          "internalType": "uint256",
          "name": "",
          "type": "uint256"
        }
      ],
      "stateMutability": "view",
      "type": "function"
    },
    {
      "inputs": [],
      "name": "getProxyImplementation",
      "outputs": [
        {
          "internalType": "address",
          "name": "",
          "type": "address"
        }
      ],
      "stateMutability": "view",
      "type": "function"
    },
    {
      "inputs": [
        {
          "internalType": "bytes32",
          "name": "role",
          "type": "bytes32"
        },
        {
          "internalType": "address",
          "name": "account",
          "type": "address"
        }
      ],
      "name": "grantRole",
      "outputs": [],
      "stateMutability": "nonpayable",
      "type": "function"
    },
    {
      "inputs": [
        {
          "internalType": "bytes32",
          "name": "role",
          "type": "bytes32"
        },
        {
          "internalType": "address",
          "name": "account",
          "type": "address"
        }
      ],
      "name": "hasRole",
      "outputs": [
        {
          "internalType": "bool",
          "name": "",
          "type": "bool"
        }
      ],
      "stateMutability": "view",
      "type": "function"
    },
    {
      "inputs": [
        {
          "internalType": "address",
          "name": "account",
          "type": "address"
        }
      ],
      "name": "isAdmin",
      "outputs": [
        {
          "internalType": "bool",
          "name": "",
          "type": "bool"
        }
      ],
      "stateMutability": "view",
      "type": "function"
    },
    {
      "inputs": [
        {
          "internalType": "address",
          "name": "addr",
          "type": "address"
        }
      ],
      "name": "isExpired",
      "outputs": [
        {
          "internalType": "bool",
          "name": "",
          "type": "bool"
        }
      ],
      "stateMutability": "view",
      "type": "function"
    },
    {
      "inputs": [
        {
          "internalType": "address",
          "name": "addr",
          "type": "address"
        }
      ],
      "name": "isInGracePeriod",
      "outputs": [
        {
          "internalType": "bool",
          "name": "",
          "type": "bool"
        }
      ],
      "stateMutability": "view",
      "type": "function"
    },
    {
      "inputs": [
        {
          "internalType": "address",
          "name": "addr",
          "type": "address"
        }
      ],
      "name": "isRegistered",
      "outputs": [
        {
          "internalType": "bool",
          "name": "",
          "type": "bool"
        }
      ],
      "stateMutability": "view",
      "type": "function"
    },
    {
      "inputs": [
        {
          "internalType": "address",
          "name": "account",
          "type": "address"
        }
      ],
      "name": "isSigner",
      "outputs": [
        {
          "internalType": "bool",
          "name": "",
          "type": "bool"
        }
      ],
      "stateMutability": "view",
      "type": "function"
    },
    {
      "inputs": [],
      "name": "owner",
      "outputs": [
        {
          "internalType": "address",
          "name": "",
          "type": "address"
        }
      ],
      "stateMutability": "view",
      "type": "function"
    },
    {
      "inputs": [
        {
          "internalType": "address",
          "name": "asset",
          "type": "address"
        }
      ],
      "name": "reactivateAsset",
      "outputs": [],
      "stateMutability": "nonpayable",
      "type": "function"
    },
    {
      "inputs": [
        {
          "internalType": "contract IRemovableEntity",
          "name": "entity",
          "type": "address"
        }
      ],
      "name": "reactivateEntity",
      "outputs": [],
      "stateMutability": "nonpayable",
      "type": "function"
    },
    {
      "inputs": [
        {
          "components": [
            {
              "internalType": "address",
              "name": "issuer",
              "type": "address"
            },
            {
              "internalType": "address",
              "name": "originAddress",
              "type": "address"
            },
            {
              "internalType": "uint256",
              "name": "originChainId",
              "type": "uint256"
            },
            {
              "internalType": "string",
              "name": "name",
              "type": "string"
            },
            {
              "internalType": "string",
              "name": "symbol",
              "type": "string"
            },
            {
              "internalType": "bytes",
              "name": "initData",
              "type": "bytes"
            }
          ],
          "internalType": "struct CreateAssetArgs",
          "name": "args",
          "type": "tuple"
        }
      ],
      "name": "registerAsset",
      "outputs": [
        {
          "internalType": "address",
          "name": "asset",
          "type": "address"
        }
      ],
      "stateMutability": "nonpayable",
      "type": "function"
    },
    {
      "inputs": [
        {
          "internalType": "address",
          "name": "asset",
          "type": "address"
        },
        {
          "internalType": "string",
          "name": "reason",
          "type": "string"
        }
      ],
      "name": "removeAsset",
      "outputs": [],
      "stateMutability": "nonpayable",
      "type": "function"
    },
    {
      "inputs": [
        {
          "internalType": "contract IRemovableEntity",
          "name": "entity",
          "type": "address"
        },
        {
          "internalType": "string",
          "name": "reason",
          "type": "string"
        }
      ],
      "name": "removeEntity",
      "outputs": [],
      "stateMutability": "nonpayable",
      "type": "function"
    },
    {
      "inputs": [
        {
          "internalType": "address[]",
          "name": "signers",
          "type": "address[]"
        }
      ],
      "name": "removeSigners",
      "outputs": [],
      "stateMutability": "nonpayable",
      "type": "function"
    },
    {
      "inputs": [
        {
          "internalType": "address",
          "name": "addr",
          "type": "address"
        }
      ],
      "name": "renewEntity",
      "outputs": [],
      "stateMutability": "payable",
      "type": "function"
    },
    {
      "inputs": [
        {
          "internalType": "bytes32",
          "name": "role",
          "type": "bytes32"
        },
        {
          "internalType": "address",
          "name": "account",
          "type": "address"
        }
      ],
      "name": "revokeRole",
      "outputs": [],
      "stateMutability": "nonpayable",
      "type": "function"
    },
    {
      "inputs": [
        {
          "internalType": "address",
          "name": "_entityImplementation",
          "type": "address"
        }
      ],
      "name": "setEntityImplementation",
      "outputs": [],
      "stateMutability": "nonpayable",
      "type": "function"
    },
    {
      "inputs": [
        {
          "internalType": "address",
          "name": "_proxyImplementation",
          "type": "address"
        }
      ],
      "name": "setProxyImplementation",
      "outputs": [],
      "stateMutability": "nonpayable",
      "type": "function"
    },
    {
      "inputs": [],
      "name": "version",
      "outputs": [
        {
          "components": [
            {
              "internalType": "uint16",
              "name": "major",
              "type": "uint16"
            },
            {
              "internalType": "uint16",
              "name": "minor",
              "type": "uint16"
            }
          ],
          "internalType": "struct Version",
          "name": "",
          "type": "tuple"
        }
      ],
      "stateMutability": "pure",
      "type": "function"
    }
  ],
  "bytecode": "0x608060405234801561001057600080fd5b50612c64806100206000396000f3fe60806040526004361061020f5760003560e01c806390e4b72011610118578063c3c5a547116100a0578063e2482bf91161006f578063e2482bf91461062e578063e8906a2d1461064e578063ec5f56361461066e578063f82e2fb31461068e578063f901dc33146106bb57600080fd5b8063c3c5a547146105bb578063cdbe2211146105db578063d547741f146105fb578063d6fbe0201461061b57600080fd5b8063a6f9dae1116100e7578063a6f9dae11461051b578063a8c88c171461053b578063af08d53d1461055b578063b6db923d1461057b578063ba2eb5411461059b57600080fd5b806390e4b720146104a657806391d14854146104bb578063936079de146104db5780639fdcd3a4146104fb57600080fd5b80634ec70a481161019b578063689c48f01161016a578063689c48f01461041c578063693c79b2146104315780637df73e27146104515780638d361e43146104715780638da5cb5b1461049157600080fd5b80634ec70a481461036357806354fd4d50146103915780635726c94e146103e75780635e0409621461040757600080fd5b806336ba8acc116101e257806336ba8acc146102ab5780633e88a4e2146102cb5780633fe7fd92146103035780634ae134cc146103235780634d4965f31461034357600080fd5b806301f2423014610214578063033a5b601461023657806324d7806c146102565780632f2ff15d1461028b575b600080fd5b34801561022057600080fd5b5061023461022f3660046124c4565b6106db565b005b34801561024257600080fd5b5061023461025136600461252a565b61074a565b34801561026257600080fd5b506102766102713660046124c4565b6108e1565b60405190151581526020015b60405180910390f35b34801561029757600080fd5b506102346102a636600461257f565b610967565b3480156102b757600080fd5b506102346102c63660046124c4565b610a6d565b3480156102d757600080fd5b506102eb6102e63660046125af565b610b9e565b6040516001600160a01b039091168152602001610282565b34801561030f57600080fd5b5061027661031e3660046125f1565b610c22565b34801561032f57600080fd5b5061023461033e3660046124c4565b610c2e565b34801561034f57600080fd5b5061023461035e366004612635565b610c6e565b34801561036f57600080fd5b5061038361037e3660046124c4565b610e02565b604051908152602001610282565b34801561039d57600080fd5b5060408051808201825260008082526020918201819052825180840190935260018352908201525b60408051825161ffff9081168252602093840151169281019290925201610282565b3480156103f357600080fd5b506103836104023660046124c4565b610e82565b34801561041357600080fd5b506103c5610ec5565b34801561042857600080fd5b506102eb610f4a565b34801561043d57600080fd5b5061023461044c3660046124c4565b610fb9565b34801561045d57600080fd5b5061027661046c3660046124c4565b611114565b34801561047d57600080fd5b5061023461048c366004612672565b611157565b34801561049d57600080fd5b506102eb61121f565b3480156104b257600080fd5b506102eb61126a565b3480156104c757600080fd5b506102766104d636600461257f565b6112b5565b3480156104e757600080fd5b506102eb6104f6366004612635565b61133b565b34801561050757600080fd5b506102346105163660046124c4565b61181b565b34801561052757600080fd5b506102346105363660046124c4565b6118ea565b34801561054757600080fd5b506102766105563660046124c4565b6119f7565b34801561056757600080fd5b5061023461057636600461252a565b611a3a565b34801561058757600080fd5b506102766105963660046124c4565b611b90565b3480156105a757600080fd5b506102766105b63660046124c4565b611bd3565b3480156105c757600080fd5b506102766105d63660046124c4565b611c16565b3480156105e757600080fd5b506102346105f63660046124c4565b611c59565b34801561060757600080fd5b5061023461061636600461257f565b611d28565b6102346106293660046124c4565b611dfe565b34801561063a57600080fd5b506102766106493660046124c4565b611e3e565b34801561065a57600080fd5b50610234610669366004612672565b611e81565b34801561067a57600080fd5b5061023461068936600461252a565b611f49565b34801561069a57600080fd5b506106ae6106a93660046124c4565b61208b565b60405161028291906126e7565b3480156106c757600080fd5b506102346106d636600461252a565b612120565b604051630a53217360e11b81526001600160a01b038216600482015273__$1822254560a4f971c7e72253c3a08363e7$__906314a642e6906024015b60006040518083038186803b15801561072f57600080fd5b505af4158015610743573d6000803e3d6000fd5b5050505050565b826000819050336001600160a01b0316816001600160a01b03166369bd91946040518163ffffffff1660e01b8152600401602060405180830381865afa158015610798573d6000803e3d6000fd5b505050506040513d601f19601f820116820180604052508101906107bc9190612711565b6001600160a01b0316146107eb5760405162461bcd60e51b81526004016107e29061272e565b60405180910390fd5b6000339050806001600160a01b0316634f05c1c86040518163ffffffff1660e01b8152600401602060405180830381865afa15801561082e573d6000803e3d6000fd5b505050506040513d601f19601f82011682018060405250810190610852919061278b565b61086e5760405162461bcd60e51b81526004016107e2906127ad565b60405163ede71a1760e01b815273__$1822254560a4f971c7e72253c3a08363e7$__9063ede71a17906108a990899089908990600401612821565b60006040518083038186803b1580156108c157600080fd5b505af41580156108d5573d6000803e3d6000fd5b50505050505050505050565b604051630935e01b60e21b81526001600160a01b038216600482015260009073__$a5a42e46683ad9c79b7b86d5ff60fdf4c1$__906324d7806c906024015b602060405180830381865af415801561093d573d6000803e3d6000fd5b505050506040513d601f19601f82011682018060405250810190610961919061278b565b92915050565b604051630935e01b60e21b815233600482015273__$a5a42e46683ad9c79b7b86d5ff60fdf4c1$__906324d7806c90602401602060405180830381865af41580156109b6573d6000803e3d6000fd5b505050506040513d601f19601f820116820180604052508101906109da919061278b565b6109f65760405162461bcd60e51b81526004016107e29061284f565b604051632f2ff15d60e01b8152600481018390526001600160a01b038216602482015273__$a5a42e46683ad9c79b7b86d5ff60fdf4c1$__90632f2ff15d906044015b60006040518083038186803b158015610a5157600080fd5b505af4158015610a65573d6000803e3d6000fd5b505050505050565b604051630935e01b60e21b815233600482015273__$a5a42e46683ad9c79b7b86d5ff60fdf4c1$__906324d7806c90602401602060405180830381865af4158015610abc573d6000803e3d6000fd5b505050506040513d601f19601f82011682018060405250810190610ae0919061278b565b610afc5760405162461bcd60e51b81526004016107e29061284f565b60405163699f380760e11b81526001600160a01b038216600482015273__$1822254560a4f971c7e72253c3a08363e7$__9063d33e700e9060240160006040518083038186803b158015610b4f57600080fd5b505af4158015610b63573d6000803e3d6000fd5b50506040516001600160a01b03841692507f667d71bfa02caef2a7b621bfee70de813834529ef97b4fdcf65727d950a41a889150600090a250565b604051631f44527160e11b815260009073__$d81eab81c4f96e94de97b51155a369ac43$__90633e88a4e290610bda9086908690600401612884565b602060405180830381865af4158015610bf7573d6000803e3d6000fd5b505050506040513d601f19601f82011682018060405250810190610c1b9190612711565b9392505050565b6000610c1b8383612255565b6040516347ef542760e01b81526001600160a01b038216600482015273__$1822254560a4f971c7e72253c3a08363e7$__906347ef542790602401610717565b610c7b60208201826124c4565b6000819050336001600160a01b0316816001600160a01b03166369bd91946040518163ffffffff1660e01b8152600401602060405180830381865afa158015610cc8573d6000803e3d6000fd5b505050506040513d601f19601f82011682018060405250810190610cec9190612711565b6001600160a01b031614610d125760405162461bcd60e51b81526004016107e29061272e565b6000339050806001600160a01b0316634f05c1c86040518163ffffffff1660e01b8152600401602060405180830381865afa158015610d55573d6000803e3d6000fd5b505050506040513d601f19601f82011682018060405250810190610d79919061278b565b610d955760405162461bcd60e51b81526004016107e2906127ad565b604051630bca13f760e41b815273__$d81eab81c4f96e94de97b51155a369ac43$__9063bca13f7090610dcc9087906004016128db565b60006040518083038186803b158015610de457600080fd5b505af4158015610df8573d6000803e3d6000fd5b5050505050505050565b6040516309d8e14960e31b81526001600160a01b038216600482015260009073__$1822254560a4f971c7e72253c3a08363e7$__90634ec70a48906024015b602060405180830381865af4158015610e5e573d6000803e3d6000fd5b505050506040513d601f19601f820116820180604052508101906109619190612972565b604051632b9364a760e11b81526001600160a01b038216600482015260009073__$1822254560a4f971c7e72253c3a08363e7$__90635726c94e90602401610e41565b604080518082019091526000808252602082015273__$e1fef5d4b1bfc4a605b7eb127c84f71416$__635e0409626040518163ffffffff1660e01b81526004016040805180830381865af4158015610f21573d6000803e3d6000fd5b505050506040513d601f19601f82011682018060405250810190610f45919061298b565b905090565b600073__$e1fef5d4b1bfc4a605b7eb127c84f71416$__63689c48f06040518163ffffffff1660e01b8152600401602060405180830381865af4158015610f95573d6000803e3d6000fd5b505050506040513d601f19601f82011682018060405250810190610f459190612711565b806000819050336001600160a01b0316816001600160a01b03166369bd91946040518163ffffffff1660e01b8152600401602060405180830381865afa158015611007573d6000803e3d6000fd5b505050506040513d601f19601f8201168201806040525081019061102b9190612711565b6001600160a01b0316146110515760405162461bcd60e51b81526004016107e29061272e565b6000339050806001600160a01b0316634f05c1c86040518163ffffffff1660e01b8152600401602060405180830381865afa158015611094573d6000803e3d6000fd5b505050506040513d601f19601f820116820180604052508101906110b8919061278b565b6110d45760405162461bcd60e51b81526004016107e2906127ad565b60405163699f380760e11b81526001600160a01b038516600482015273__$1822254560a4f971c7e72253c3a08363e7$__9063d33e700e90602401610dcc565b604051637df73e2760e01b81526001600160a01b038216600482015260009073__$a5a42e46683ad9c79b7b86d5ff60fdf4c1$__90637df73e2790602401610920565b604051630935e01b60e21b815233600482015273__$a5a42e46683ad9c79b7b86d5ff60fdf4c1$__906324d7806c90602401602060405180830381865af41580156111a6573d6000803e3d6000fd5b505050506040513d601f19601f820116820180604052508101906111ca919061278b565b6111e65760405162461bcd60e51b81526004016107e29061284f565b604051638d361e4360e01b815273__$a5a42e46683ad9c79b7b86d5ff60fdf4c1$__90638d361e4390610a3990859085906004016129f8565b600073__$a5a42e46683ad9c79b7b86d5ff60fdf4c1$__638da5cb5b6040518163ffffffff1660e01b8152600401602060405180830381865af4158015610f95573d6000803e3d6000fd5b600073__$e1fef5d4b1bfc4a605b7eb127c84f71416$__6390e4b7206040518163ffffffff1660e01b8152600401602060405180830381865af4158015610f95573d6000803e3d6000fd5b604051632474521560e21b8152600481018390526001600160a01b038216602482015260009073__$a5a42e46683ad9c79b7b86d5ff60fdf4c1$__906391d1485490604401602060405180830381865af4158015611317573d6000803e3d6000fd5b505050506040513d601f19601f82011682018060405250810190610c1b919061278b565b604051630935e01b60e21b815233600482015260009073__$a5a42e46683ad9c79b7b86d5ff60fdf4c1$__906324d7806c90602401602060405180830381865af415801561138d573d6000803e3d6000fd5b505050506040513d601f19601f820116820180604052508101906113b1919061278b565b6113cd5760405162461bcd60e51b81526004016107e29061284f565b60006113d76122b7565b90506113f66113ec60408501602086016124c4565b8460400135610c22565b156114535760405162461bcd60e51b815260206004820152602760248201527f42617365417373657452656769737472793a20617373657420616c72656164796044820152662065786973747360c81b60648201526084016107e2565b60018101546001600160a01b03166114c55760405162461bcd60e51b815260206004820152602f60248201527f42617365417373657452656769737472793a2070726f787920696d706c656d6560448201526e1b9d185d1a5bdb881b9bdd081cd95d608a1b60648201526084016107e2565b80546001600160a01b03166115355760405162461bcd60e51b815260206004820152603060248201527f42617365417373657452656769737472793a20656e7469747920696d706c656d60448201526f195b9d185d1a5bdb881b9bdd081cd95d60821b60648201526084016107e2565b600181015460009061154f906001600160a01b031661234d565b90506001600160a01b0381166115b75760405162461bcd60e51b815260206004820152602760248201527f42617365417373657452656769737472793a2070726f787920636c6f6e696e676044820152660819985a5b195960ca1b60648201526084016107e2565b8154604051636bc26a1360e11b81526001600160a01b0391821660048201529082169063d784d42690602401600060405180830381600087803b1580156115fd57600080fd5b505af1158015611611573d6000803e3d6000fd5b5050505060006040518060c001604052808680606001906116329190612a46565b8080601f0160208091040260200160405190810160405280939291908181526020018383808284376000920191909152505050908252506020016116796080880188612a46565b8080601f0160208091040260200160405190810160405280939291908181526020018383808284376000920191909152505050908252506020908101906116c2908801886124c4565b6001600160a01b031681526020018660200160208101906116e391906124c4565b6001600160a01b0316815260408088013560208301520161170760a0880188612a46565b8080601f0160208091040260200160405190810160405280939291908181526020018383808284376000920191909152505050915250604051626c7e8560e01b81529091506001600160a01b03831690626c7e859061176a908490600401612ad3565b600060405180830381600087803b15801561178457600080fd5b505af1158015611798573d6000803e3d6000fd5b5050604080516060810182526000808252601e60208301529181019190915291506117c59050838261240e565b6117d260208701876124c4565b6001600160a01b0316836001600160a01b03167f7377123f9eb561d749cd3a89a83c22035cad6473521acbb981ee1c52d8f0248560405160405180910390a35090949350505050565b604051630935e01b60e21b815233600482015273__$a5a42e46683ad9c79b7b86d5ff60fdf4c1$__906324d7806c90602401602060405180830381865af415801561186a573d6000803e3d6000fd5b505050506040513d601f19601f8201168201806040525081019061188e919061278b565b6118aa5760405162461bcd60e51b81526004016107e29061284f565b6040516327f734e960e21b81526001600160a01b038216600482015273__$e1fef5d4b1bfc4a605b7eb127c84f71416$__90639fdcd3a490602401610717565b336001600160a01b031673__$a5a42e46683ad9c79b7b86d5ff60fdf4c1$__638da5cb5b6040518163ffffffff1660e01b8152600401602060405180830381865af415801561193d573d6000803e3d6000fd5b505050506040513d601f19601f820116820180604052508101906119619190612711565b6001600160a01b0316146119b75760405162461bcd60e51b815260206004820152601f60248201527f426173654163636573733a207265737472696374656420746f206f776e65720060448201526064016107e2565b6040516313af403560e01b81526001600160a01b038216600482015273__$a5a42e46683ad9c79b7b86d5ff60fdf4c1$__906313af403590602401610717565b60405163a8c88c1760e01b81526001600160a01b038216600482015260009073__$1822254560a4f971c7e72253c3a08363e7$__9063a8c88c1790602401610920565b826000819050336001600160a01b0316816001600160a01b03166369bd91946040518163ffffffff1660e01b8152600401602060405180830381865afa158015611a88573d6000803e3d6000fd5b505050506040513d601f19601f82011682018060405250810190611aac9190612711565b6001600160a01b031614611ad25760405162461bcd60e51b81526004016107e29061272e565b6000339050806001600160a01b0316634f05c1c86040518163ffffffff1660e01b8152600401602060405180830381865afa158015611b15573d6000803e3d6000fd5b505050506040513d601f19601f82011682018060405250810190611b39919061278b565b611b555760405162461bcd60e51b81526004016107e2906127ad565b604051633f111a5d60e21b815273__$1822254560a4f971c7e72253c3a08363e7$__9063fc446974906108a990899089908990600401612821565b60405163b6db923d60e01b81526001600160a01b038216600482015260009073__$1822254560a4f971c7e72253c3a08363e7$__9063b6db923d90602401610920565b60405163ba2eb54160e01b81526001600160a01b038216600482015260009073__$1822254560a4f971c7e72253c3a08363e7$__9063ba2eb54190602401610920565b60405163c3c5a54760e01b81526001600160a01b038216600482015260009073__$d81eab81c4f96e94de97b51155a369ac43$__9063c3c5a54790602401610920565b604051630935e01b60e21b815233600482015273__$a5a42e46683ad9c79b7b86d5ff60fdf4c1$__906324d7806c90602401602060405180830381865af4158015611ca8573d6000803e3d6000fd5b505050506040513d601f19601f82011682018060405250810190611ccc919061278b565b611ce85760405162461bcd60e51b81526004016107e29061284f565b60405163cdbe221160e01b81526001600160a01b038216600482015273__$e1fef5d4b1bfc4a605b7eb127c84f71416$__9063cdbe221190602401610717565b604051630935e01b60e21b815233600482015273__$a5a42e46683ad9c79b7b86d5ff60fdf4c1$__906324d7806c90602401602060405180830381865af4158015611d77573d6000803e3d6000fd5b505050506040513d601f19601f82011682018060405250810190611d9b919061278b565b611db75760405162461bcd60e51b81526004016107e29061284f565b60405163d547741f60e01b8152600481018390526001600160a01b038216602482015273__$a5a42e46683ad9c79b7b86d5ff60fdf4c1$__9063d547741f90604401610a39565b6040516306b7df0160e51b81526001600160a01b038216600482015273__$1822254560a4f971c7e72253c3a08363e7$__9063d6fbe02090602401610717565b60405163e2482bf960e01b81526001600160a01b038216600482015260009073__$1822254560a4f971c7e72253c3a08363e7$__9063e2482bf990602401610920565b604051630935e01b60e21b815233600482015273__$a5a42e46683ad9c79b7b86d5ff60fdf4c1$__906324d7806c90602401602060405180830381865af4158015611ed0573d6000803e3d6000fd5b505050506040513d601f19601f82011682018060405250810190611ef4919061278b565b611f105760405162461bcd60e51b81526004016107e29061284f565b60405163e8906a2d60e01b815273__$a5a42e46683ad9c79b7b86d5ff60fdf4c1$__9063e8906a2d90610a3990859085906004016129f8565b604051630935e01b60e21b815233600482015273__$a5a42e46683ad9c79b7b86d5ff60fdf4c1$__906324d7806c90602401602060405180830381865af4158015611f98573d6000803e3d6000fd5b505050506040513d601f19601f82011682018060405250810190611fbc919061278b565b611fd85760405162461bcd60e51b81526004016107e29061284f565b60405163ede71a1760e01b815273__$1822254560a4f971c7e72253c3a08363e7$__9063ede71a179061201390869086908690600401612821565b60006040518083038186803b15801561202b57600080fd5b505af415801561203f573d6000803e3d6000fd5b50505050826001600160a01b03167fb75046c01c14bc7fe8ffdd7a34c4c308a3ddb6011b52a2ee88f5d4545e22ced8838360405161207e929190612884565b60405180910390a2505050565b6040805160608101825260008082526020820181905281830152905163f82e2fb360e01b81526001600160a01b038316600482015273__$1822254560a4f971c7e72253c3a08363e7$__9063f82e2fb390602401606060405180830381865af41580156120fc573d6000803e3d6000fd5b505050506040513d601f19601f820116820180604052508101906109619190612b58565b604051630935e01b60e21b815233600482015273__$a5a42e46683ad9c79b7b86d5ff60fdf4c1$__906324d7806c90602401602060405180830381865af415801561216f573d6000803e3d6000fd5b505050506040513d601f19601f82011682018060405250810190612193919061278b565b6121af5760405162461bcd60e51b81526004016107e29061284f565b604051633f111a5d60e21b815273__$1822254560a4f971c7e72253c3a08363e7$__9063fc446974906121ea90869086908690600401612821565b60006040518083038186803b15801561220257600080fd5b505af4158015612216573d6000803e3d6000fd5b50505050826001600160a01b03167f19befd85e4fafbc51c81f6553f2790c1845268610c5acdb88fb188dfc64319ad838360405161207e929190612884565b600080612260612447565b604080516001600160a01b038716602082015290810185905260009060600160408051808303601f19018152918152815160209283012083529082019290925201600020546001600160a01b031614159392505050565b60408051808201909152601c81527f78722e656e746974792e666163746f72792e73746f726167652e76310000000060209091015260008060ff61231c60017f8b4ac7cd4466ab0d50fe53a88c5446ca4a450d482bef9ad792e7d9f451497e0f612bd1565b60405160200161232e91815260200190565b60408051601f1981840301815291905280516020909101201692915050565b60006001600160a01b0382166123bd5760405162461bcd60e51b815260206004820152602f60248201527f4c6962436c6f6e653a20696d706c656d656e746174696f6e2063616e6e6f742060448201526e6265207a65726f206164647265737360881b60648201526084016107e2565b60008260601b9050604051733d602d80600a3d3981f3363d3d373d3d3d363d7360601b81528160148201526e5af43d82803e903d91602b57fd5bf360881b60288201526037816000f0949350505050565b60405163da46da7760e01b815273__$d81eab81c4f96e94de97b51155a369ac43$__9063da46da7790610a399085908590600401612bf2565b60408051808201909152601c81527f78722e61737365742e72656769737472792e73746f726167652e76310000000060209091015260008060ff61231c60017fbd2c19183c4ba9a1559943665cceb499cb872252ed14ead4021247e432f4a035612bd1565b6001600160a01b03811681146124c157600080fd5b50565b6000602082840312156124d657600080fd5b8135610c1b816124ac565b60008083601f8401126124f357600080fd5b50813567ffffffffffffffff81111561250b57600080fd5b60208301915083602082850101111561252357600080fd5b9250929050565b60008060006040848603121561253f57600080fd5b833561254a816124ac565b9250602084013567ffffffffffffffff81111561256657600080fd5b612572868287016124e1565b9497909650939450505050565b6000806040838503121561259257600080fd5b8235915060208301356125a4816124ac565b809150509250929050565b600080602083850312156125c257600080fd5b823567ffffffffffffffff8111156125d957600080fd5b6125e5858286016124e1565b90969095509350505050565b6000806040838503121561260457600080fd5b823561260f816124ac565b946020939093013593505050565b600060c0828403121561262f57600080fd5b50919050565b60006020828403121561264757600080fd5b813567ffffffffffffffff81111561265e57600080fd5b61266a8482850161261d565b949350505050565b6000806020838503121561268557600080fd5b823567ffffffffffffffff8082111561269d57600080fd5b818501915085601f8301126126b157600080fd5b8135818111156126c057600080fd5b8660208260051b85010111156126d557600080fd5b60209290920196919550909350505050565b815161ffff9081168252602080840151909116908201526040808301519082015260608101610961565b60006020828403121561272357600080fd5b8151610c1b816124ac565b6020808252603d908201527f4261736552656d6f7661626c6552656769737472793a2063616c6c657220697360408201527f206e6f742074686520656e746974792773207465726d73206f776e6572000000606082015260800190565b60006020828403121561279d57600080fd5b81518015158114610c1b57600080fd5b6020808252602b908201527f4261736552656d6f7661626c6552656769737472793a2063616c6c657220697360408201526a206e6f742061637469766560a81b606082015260800190565b81835281816020850137506000828201602090810191909152601f909101601f19169091010190565b6001600160a01b038416815260406020820181905260009061284690830184866127f8565b95945050505050565b6020808252818101527f426173654163636573733a207265737472696374656420746f2061646d696e73604082015260600190565b60208152600061266a6020830184866127f8565b61ffff811681146124c157600080fd5b80356128b381612898565b61ffff90811683526020820135906128ca82612898565b166020830152604090810135910152565b60208152600082356128ec816124ac565b6001600160a01b031660208381019190915283013536849003601e1901811261291457600080fd5b830160208101903567ffffffffffffffff81111561293157600080fd5b80360382131561294057600080fd5b60c0604085015261295560e0850182846127f8565b91505060408401356060840152610c1b60808401606086016128a8565b60006020828403121561298457600080fd5b5051919050565b60006040828403121561299d57600080fd5b6040516040810181811067ffffffffffffffff821117156129ce57634e487b7160e01b600052604160045260246000fd5b60405282516129dc81612898565b815260208301516129ec81612898565b60208201529392505050565b60208082528181018390526000908460408401835b86811015612a3b578235612a20816124ac565b6001600160a01b031682529183019190830190600101612a0d565b509695505050505050565b6000808335601e19843603018112612a5d57600080fd5b83018035915067ffffffffffffffff821115612a7857600080fd5b60200191503681900382131561252357600080fd5b6000815180845260005b81811015612ab357602081850181015186830182015201612a97565b506000602082860101526020601f19601f83011685010191505092915050565b602081526000825160c06020840152612aef60e0840182612a8d565b90506020840151601f1980858403016040860152612b0d8383612a8d565b92506040860151915060018060a01b03808316606087015280606088015116608087015250608086015160a086015260a08601519150808584030160c0860152506128468282612a8d565b600060608284031215612b6a57600080fd5b6040516060810181811067ffffffffffffffff82111715612b9b57634e487b7160e01b600052604160045260246000fd5b6040528251612ba981612898565b81526020830151612bb981612898565b60208201526040928301519281019290925250919050565b8181038181111561096157634e487b7160e01b600052601160045260246000fd5b6001600160a01b038316815260808101610c1b602083018461ffff8082511683528060208301511660208401525060408101516040830152505056fea2646970667358221220b5a3c0893124e7831756ae1d8c92ff452013b3d0bd11c42b5daa217dfa90c63d64736f6c63430008180033",
  "linkReferences": {
    "contracts/libraries/LibAccess.sol": {
      "LibAccess": [
        {
          "length": 20,
          "start": 2338
        },
        {
          "length": 20,
          "start": 2460
        },
        {
          "length": 20,
          "start": 2619
        },
        {
          "length": 20,
          "start": 2722
        },
        {
          "length": 20,
          "start": 4437
        },
        {
          "length": 20,
          "start": 4492
        },
        {
          "length": 20,
          "start": 4629
        },
        {
          "length": 20,
          "start": 4675
        },
        {
          "length": 20,
          "start": 4861
        },
        {
          "length": 20,
          "start": 4979
        },
        {
          "length": 20,
          "start": 6224
        },
        {
          "length": 20,
          "start": 6422
        },
        {
          "length": 20,
          "start": 6645
        },
        {
          "length": 20,
          "start": 7310
        },
        {
          "length": 20,
          "start": 7517
        },
        {
          "length": 20,
          "start": 7676
        },
        {
          "length": 20,
          "start": 7862
        },
        {
          "length": 20,
          "start": 7999
        },
        {
          "length": 20,
          "start": 8062
        },
        {
          "length": 20,
          "start": 8533
        }
      ]
    },
    "contracts/libraries/LibEntityRemoval.sol": {
      "LibEntityRemoval": [
        {
          "length": 20,
          "start": 1817
        },
        {
          "length": 20,
          "start": 2205
        },
        {
          "length": 20,
          "start": 2874
        },
        {
          "length": 20,
          "start": 3180
        },
        {
          "length": 20,
          "start": 3651
        },
        {
          "length": 20,
          "start": 3779
        },
        {
          "length": 20,
          "start": 4370
        },
        {
          "length": 20,
          "start": 6712
        },
        {
          "length": 20,
          "start": 7044
        },
        {
          "length": 20,
          "start": 7121
        },
        {
          "length": 20,
          "start": 7188
        },
        {
          "length": 20,
          "start": 7740
        },
        {
          "length": 20,
          "start": 7807
        },
        {
          "length": 20,
          "start": 8199
        },
        {
          "length": 20,
          "start": 8418
        },
        {
          "length": 20,
          "start": 8670
        }
      ]
    },
    "contracts/libraries/LibFactory.sol": {
      "LibFactory": [
        {
          "length": 20,
          "start": 3835
        },
        {
          "length": 20,
          "start": 3950
        },
        {
          "length": 20,
          "start": 4750
        },
        {
          "length": 20,
          "start": 6376
        },
        {
          "length": 20,
          "start": 7462
        }
      ]
    },
    "contracts/libraries/LibRegistration.sol": {
      "LibRegistration": [
        {
          "length": 20,
          "start": 3024
        },
        {
          "length": 20,
          "start": 3524
        },
        {
          "length": 20,
          "start": 7255
        },
        {
          "length": 20,
          "start": 9277
        }
      ]
    }
  },
  "deployedLinkReferences": {
    "contracts/libraries/LibAccess.sol": {
      "LibAccess": [
        {
          "length": 20,
          "start": 2306
        },
        {
          "length": 20,
          "start": 2428
        },
        {
          "length": 20,
          "start": 2587
        },
        {
          "length": 20,
          "start": 2690
        },
        {
          "length": 20,
          "start": 4405
        },
        {
          "length": 20,
          "start": 4460
        },
        {
          "length": 20,
          "start": 4597
        },
        {
          "length": 20,
          "start": 4643
        },
        {
          "length": 20,
          "start": 4829
        },
        {
          "length": 20,
          "start": 4947
        },
        {
          "length": 20,
          "start": 6192
        },
        {
          "length": 20,
          "start": 6390
        },
        {
          "length": 20,
          "start": 6613
        },
        {
          "length": 20,
          "start": 7278
        },
        {
          "length": 20,
          "start": 7485
        },
        {
          "length": 20,
          "start": 7644
        },
        {
          "length": 20,
          "start": 7830
        },
        {
          "length": 20,
          "start": 7967
        },
        {
          "length": 20,
          "start": 8030
        },
        {
          "length": 20,
          "start": 8501
        }
      ]
    },
    "contracts/libraries/LibEntityRemoval.sol": {
      "LibEntityRemoval": [
        {
          "length": 20,
          "start": 1785
        },
        {
          "length": 20,
          "start": 2173
        },
        {
          "length": 20,
          "start": 2842
        },
        {
          "length": 20,
          "start": 3148
        },
        {
          "length": 20,
          "start": 3619
        },
        {
          "length": 20,
          "start": 3747
        },
        {
          "length": 20,
          "start": 4338
        },
        {
          "length": 20,
          "start": 6680
        },
        {
          "length": 20,
          "start": 7012
        },
        {
          "length": 20,
          "start": 7089
        },
        {
          "length": 20,
          "start": 7156
        },
        {
          "length": 20,
          "start": 7708
        },
        {
          "length": 20,
          "start": 7775
        },
        {
          "length": 20,
          "start": 8167
        },
        {
          "length": 20,
          "start": 8386
        },
        {
          "length": 20,
          "start": 8638
        }
      ]
    },
    "contracts/libraries/LibFactory.sol": {
      "LibFactory": [
        {
          "length": 20,
          "start": 3803
        },
        {
          "length": 20,
          "start": 3918
        },
        {
          "length": 20,
          "start": 4718
        },
        {
          "length": 20,
          "start": 6344
        },
        {
          "length": 20,
          "start": 7430
        }
      ]
    },
    "contracts/libraries/LibRegistration.sol": {
      "LibRegistration": [
        {
          "length": 20,
          "start": 2992
        },
        {
          "length": 20,
          "start": 3492
        },
        {
          "length": 20,
          "start": 7223
        },
        {
          "length": 20,
          "start": 9245
        }
      ]
    }
  }
}