{
  "_format": "hh-sol-artifact-1",
  "contractName": "ERC721TransferExt",
  "sourceName": "contracts/extensions/asset/erc721/ERC721TansferExt.sol",
  "abi": [
    {
      "inputs": [
        {
          "internalType": "uint256",
          "name": "tokenId",
          "type": "uint256"
        }
      ],
      "name": "ERC721NonexistentToken",
      "type": "error"
    },
    {
      "inputs": [
        {
          "internalType": "uint256",
          "name": "value",
          "type": "uint256"
        },
        {
          "internalType": "uint256",
          "name": "length",
          "type": "uint256"
        }
      ],
      "name": "StringsInsufficientHexLength",
      "type": "error"
    },
    {
      "inputs": [
        {
          "internalType": "address",
          "name": "",
          "type": "address"
        },
        {
          "internalType": "uint256",
          "name": "",
          "type": "uint256"
        }
      ],
      "name": "approve",
      "outputs": [
        {
          "internalType": "bool",
          "name": "",
          "type": "bool"
        }
      ],
      "stateMutability": "pure",
      "type": "function"
    },
    {
      "inputs": [
        {
          "internalType": "uint256",
          "name": "tokenId",
          "type": "uint256"
        }
      ],
      "name": "getApproved",
      "outputs": [
        {
          "internalType": "address",
          "name": "",
          "type": "address"
        }
      ],
      "stateMutability": "view",
      "type": "function"
    },
    {
      "inputs": [
        {
          "internalType": "address",
          "name": "myAddress",
          "type": "address"
        }
      ],
      "name": "install",
      "outputs": [],
      "stateMutability": "nonpayable",
      "type": "function"
    },
    {
      "inputs": [],
      "name": "metadata",
      "outputs": [
        {
          "components": [
            {
              "internalType": "string",
              "name": "name",
              "type": "string"
            },
            {
              "components": [
                {
                  "internalType": "uint16",
                  "name": "major",
                  "type": "uint16"
                },
                {
                  "internalType": "uint16",
                  "name": "minor",
                  "type": "uint16"
                }
              ],
              "internalType": "struct Version",
              "name": "version",
              "type": "tuple"
            }
          ],
          "internalType": "struct ExtensionMetadata",
          "name": "",
          "type": "tuple"
        }
      ],
      "stateMutability": "pure",
      "type": "function"
    },
    {
      "inputs": [
        {
          "internalType": "address",
          "name": "from",
          "type": "address"
        },
        {
          "internalType": "address",
          "name": "to",
          "type": "address"
        },
        {
          "internalType": "uint256",
          "name": "tokenId",
          "type": "uint256"
        }
      ],
      "name": "safeTransferFrom",
      "outputs": [],
      "stateMutability": "nonpayable",
      "type": "function"
    },
    {
      "inputs": [
        {
          "internalType": "address",
          "name": "",
          "type": "address"
        },
        {
          "internalType": "address",
          "name": "",
          "type": "address"
        },
        {
          "internalType": "uint256",
          "name": "",
          "type": "uint256"
        },
        {
          "internalType": "bytes",
          "name": "",
          "type": "bytes"
        }
      ],
      "name": "safeTransferFrom",
      "outputs": [],
      "stateMutability": "nonpayable",
      "type": "function"
    },
    {
      "inputs": [
        {
          "internalType": "address",
          "name": "",
          "type": "address"
        },
        {
          "internalType": "bool",
          "name": "",
          "type": "bool"
        }
      ],
      "name": "setApprovalForAll",
      "outputs": [],
      "stateMutability": "nonpayable",
      "type": "function"
    },
    {
      "inputs": [
        {
          "internalType": "address",
          "name": "",
          "type": "address"
        },
        {
          "internalType": "address",
          "name": "",
          "type": "address"
        },
        {
          "internalType": "uint256",
          "name": "",
          "type": "uint256"
        }
      ],
      "name": "transferFrom",
      "outputs": [
        {
          "internalType": "bool",
          "name": "",
          "type": "bool"
        }
      ],
      "stateMutability": "pure",
      "type": "function"
    },
    {
      "inputs": [
        {
          "internalType": "address",
          "name": "myAddress",
          "type": "address"
        }
      ],
      "name": "upgrade",
      "outputs": [],
      "stateMutability": "nonpayable",
      "type": "function"
    }
  ],
  "bytecode": "0x608060405234801561001057600080fd5b50610e81806100206000396000f3fe608060405234801561001057600080fd5b50600436106100935760003560e01c80632a1b8f9b116100665780632a1b8f9b1461010c578063392f37e91461011f57806342842e0e14610134578063a22cb46514610147578063b88d4fde1461015a57600080fd5b8063081812fc146100985780630900f010146100c8578063095ea7b3146100db57806323b872dd146100fe575b600080fd5b6100ab6100a6366004610961565b610168565b6040516001600160a01b0390911681526020015b60405180910390f35b6100d96100d6366004610996565b50565b005b6100ee6100e93660046109b1565b610183565b60405190151581526020016100bf565b6100ee6100e93660046109db565b6100d961011a366004610996565b6101a6565b6101276103d0565b6040516100bf9190610a67565b6100d96101423660046109db565b610427565b6100d9610155366004610aac565b610447565b6100d9610155366004610afe565b60006101738261045f565b5061017d826104af565b92915050565b600060405162461bcd60e51b815260040161019d90610bda565b60405180910390fd5b60408051600480825260a08201909252600091816020015b6040805180820190915260008152606060208201528152602001906001900390816101be579050509050604051806040016040528063095ea7b360e01b6001600160e01b03191681526020016040518060400160405280601881526020017f617070726f766528616464726573732c75696e743235362900000000000000008152508152508160008151811061025657610256610c1d565b6020026020010181905250604051806040016040528063081812fc60e01b6001600160e01b031916815260200160405180604001604052806014815260200173676574417070726f7665642875696e743235362960601b815250815250816001815181106102c6576102c6610c1d565b6020026020010181905250604051806040016040528063a22cb46560e01b6001600160e01b03191681526020016040518060400160405280601f81526020017f736574417070726f76616c466f72416c6c28616464726573732c626f6f6c29008152508152508160028151811061033f5761033f610c1d565b602002602001018190525060405180604001604052806323b872dd60e01b6001600160e01b0319168152602001604051806060016040528060258152602001610e27602591398152508160038151811061039b5761039b610c1d565b60200260200101819052506103cc6040518060400160405280846001600160a01b03168152602001838152506104d6565b5050565b6103d8610925565b5060408051608081018252601181830190815270115490cdcc8c551c985b9cd9995c915e1d607a1b60608301528152815180830190925260018252600060208381019190915281019190915290565b61044283838360405180602001604052806000815250610447565b505050565b60405162461bcd60e51b815260040161019d90610bda565b60008061046a610699565b60008481526002820160205260409020549091506001600160a01b0316806104a857604051637e27328960e01b81526004810185905260240161019d565b9392505050565b60006104b9610699565b60009283526004016020525060409020546001600160a01b031690565b60006104e061072f565b82516001600160a01b031660009081526020829052604081209192505b8360200151518110156106935760008460200151828151811061052257610522610c1d565b6020908102919091018101518051600486810180546001808201835560009283528683206008830401805463ffffffff600790941690950261010090810a9384021990951660e09690961c9290920294909417905583516001600160e01b0319168152918801909352604090208054919350916001600160a01b039104161561061b57805461010090046001600160a01b03166000908152602086905260408120875190919060018701906105d690610794565b6020808701516040516105f0949392600188019101610cd0565b60405160208183030381529060405290508060405162461bcd60e51b815260040161019d9190610da9565b50604080518082018252600180825287516001600160a01b03908116602080850191825295516001600160e01b0319166000908152898401909652939094209151825493516001600160a81b0319909416901515610100600160a81b03191617610100939094169290920292909217909155016104fd565b50505050565b60408051808201909152601a81527f78722e6572633732312e61737365742e73746f726167652e763100000000000060209091015260008060ff6106fe60017f60ff308ff8f840802008c7c997a35cbef97f56188316b0b2b2dbc99e530b505f610dd2565b60405160200161071091815260200190565b60408051601f1981840301815291905280516020909101201692915050565b60408051808201909152601881527f78722e657874656e73696f6e732e73746f726167652e7631000000000000000060209091015260008060ff6106fe60017fb58ec9ca7ba0606d9fecd9f559655d0e5fec418e6751b65b892bccdfd25eb99f610dd2565b606061017d6001600160a01b038316601460608260006107b5846002610de5565b6107c0906002610dfc565b67ffffffffffffffff8111156107d8576107d8610ae8565b6040519080825280601f01601f191660200182016040528015610802576020820181803683370190505b509050600360fc1b8160008151811061081d5761081d610c1d565b60200101906001600160f81b031916908160001a905350600f60fb1b8160018151811061084c5761084c610c1d565b60200101906001600160f81b031916908160001a9053506000610870856002610de5565b61087b906001610dfc565b90505b60018111156108f3576f181899199a1a9b1b9c1cb0b131b232b360811b83600f16601081106108af576108af610c1d565b1a60f81b8282815181106108c5576108c5610c1d565b60200101906001600160f81b031916908160001a90535060049290921c916108ec81610e0f565b905061087e565b50811561091d5760405163e22e27eb60e01b8152600481018690526024810185905260440161019d565b949350505050565b60405180604001604052806060815260200161095c6040518060400160405280600061ffff168152602001600061ffff1681525090565b905290565b60006020828403121561097357600080fd5b5035919050565b80356001600160a01b038116811461099157600080fd5b919050565b6000602082840312156109a857600080fd5b6104a88261097a565b600080604083850312156109c457600080fd5b6109cd8361097a565b946020939093013593505050565b6000806000606084860312156109f057600080fd5b6109f98461097a565b9250610a076020850161097a565b9150604084013590509250925092565b60005b83811015610a32578181015183820152602001610a1a565b50506000910152565b60008151808452610a53816020860160208601610a17565b601f01601f19169290920160200192915050565b602081526000825160606020840152610a836080840182610a3b565b602094850151805161ffff90811660408701529501519094166060909301929092525090919050565b60008060408385031215610abf57600080fd5b610ac88361097a565b915060208301358015158114610add57600080fd5b809150509250929050565b634e487b7160e01b600052604160045260246000fd5b60008060008060808587031215610b1457600080fd5b610b1d8561097a565b9350610b2b6020860161097a565b925060408501359150606085013567ffffffffffffffff80821115610b4f57600080fd5b818701915087601f830112610b6357600080fd5b813581811115610b7557610b75610ae8565b604051601f8201601f19908116603f01168101908382118183101715610b9d57610b9d610ae8565b816040528281528a6020848701011115610bb657600080fd5b82602086016020830137600060208483010152809550505050505092959194509250565b60208082526023908201527f4e544552433732313a20746f6b656e206973206e6f6e2d7472616e7366657261604082015262626c6560e81b606082015260800190565b634e487b7160e01b600052603260045260246000fd5b8054600090600181811c9080831680610c4d57607f831692505b60208084108203610c6e57634e487b7160e01b600052602260045260246000fd5b818015610c825760018114610c9757610cc4565b60ff1986168952841515850289019650610cc4565b60008881526020902060005b86811015610cbc5781548b820152908501908301610ca3565b505084890196505b50505050505092915050565b7f4c6962457874656e73696f6e3a20657874656e73696f6e20000000000000000081526000610d026018830187610c33565b6c01030ba1030b2323932b9b99d1609d1b81528551610d2881600d840160208a01610a17565b7f20617474656d7074696e6720746f20726575736520612073656c6563746f7200600d92909101918201528451610d6681602c840160208901610a17565b7f20616c7265616479207265676973746572656420627920000000000000000000602c9290910191820152610d9e6043820185610c33565b979650505050505050565b6020815260006104a86020830184610a3b565b634e487b7160e01b600052601160045260246000fd5b8181038181111561017d5761017d610dbc565b808202811582820484141761017d5761017d610dbc565b8082018082111561017d5761017d610dbc565b600081610e1e57610e1e610dbc565b50600019019056fe7472616e7366657246726f6d28616464726573732c616464726573732c75696e7432353629a2646970667358221220992574fa1914c84cd703d224adb49c58be66b617bbdd7002c5537a3a7575368f64736f6c63430008180033",
  "linkReferences": {},
  "deployedLinkReferences": {}
}