{
  "_format": "hh-sol-artifact-1",
  "contractName": "ERC721MintingExt",
  "sourceName": "contracts/extensions/asset/erc721/ERC721MintingExt.sol",
  "abi": [
    {
      "inputs": [
        {
          "internalType": "address",
          "name": "operator",
          "type": "address"
        },
        {
          "internalType": "uint256",
          "name": "tokenId",
          "type": "uint256"
        }
      ],
      "name": "ERC721InsufficientApproval",
      "type": "error"
    },
    {
      "inputs": [
        {
          "internalType": "address",
          "name": "approver",
          "type": "address"
        }
      ],
      "name": "ERC721InvalidApprover",
      "type": "error"
    },
    {
      "inputs": [
        {
          "internalType": "address",
          "name": "receiver",
          "type": "address"
        }
      ],
      "name": "ERC721InvalidReceiver",
      "type": "error"
    },
    {
      "inputs": [
        {
          "internalType": "address",
          "name": "sender",
          "type": "address"
        }
      ],
      "name": "ERC721InvalidSender",
      "type": "error"
    },
    {
      "inputs": [
        {
          "internalType": "uint256",
          "name": "tokenId",
          "type": "uint256"
        }
      ],
      "name": "ERC721NonexistentToken",
      "type": "error"
    },
    {
      "inputs": [],
      "name": "ReentrancyGuardReentrantCall",
      "type": "error"
    },
    {
      "inputs": [
        {
          "internalType": "uint256",
          "name": "value",
          "type": "uint256"
        },
        {
          "internalType": "uint256",
          "name": "length",
          "type": "uint256"
        }
      ],
      "name": "StringsInsufficientHexLength",
      "type": "error"
    },
    {
      "anonymous": false,
      "inputs": [
        {
          "indexed": true,
          "internalType": "address",
          "name": "owner",
          "type": "address"
        },
        {
          "indexed": true,
          "internalType": "address",
          "name": "approved",
          "type": "address"
        },
        {
          "indexed": true,
          "internalType": "uint256",
          "name": "tokenId",
          "type": "uint256"
        }
      ],
      "name": "Approval",
      "type": "event"
    },
    {
      "anonymous": false,
      "inputs": [
        {
          "indexed": true,
          "internalType": "address",
          "name": "owner",
          "type": "address"
        },
        {
          "indexed": true,
          "internalType": "address",
          "name": "spender",
          "type": "address"
        },
        {
          "indexed": false,
          "internalType": "uint256",
          "name": "value",
          "type": "uint256"
        }
      ],
      "name": "Approval",
      "type": "event"
    },
    {
      "anonymous": false,
      "inputs": [
        {
          "indexed": true,
          "internalType": "address",
          "name": "to",
          "type": "address"
        },
        {
          "indexed": true,
          "internalType": "uint256",
          "name": "amt",
          "type": "uint256"
        }
      ],
      "name": "ERC20Minted",
      "type": "event"
    },
    {
      "anonymous": false,
      "inputs": [
        {
          "indexed": true,
          "internalType": "address",
          "name": "to",
          "type": "address"
        },
        {
          "indexed": true,
          "internalType": "uint256",
          "name": "tokenId",
          "type": "uint256"
        }
      ],
      "name": "ERC721Minted",
      "type": "event"
    },
    {
      "anonymous": false,
      "inputs": [
        {
          "indexed": true,
          "internalType": "address",
          "name": "from",
          "type": "address"
        },
        {
          "indexed": true,
          "internalType": "address",
          "name": "to",
          "type": "address"
        },
        {
          "indexed": true,
          "internalType": "uint256",
          "name": "tokenId",
          "type": "uint256"
        }
      ],
      "name": "Transfer",
      "type": "event"
    },
    {
      "anonymous": false,
      "inputs": [
        {
          "indexed": true,
          "internalType": "address",
          "name": "from",
          "type": "address"
        },
        {
          "indexed": true,
          "internalType": "address",
          "name": "to",
          "type": "address"
        },
        {
          "indexed": false,
          "internalType": "uint256",
          "name": "value",
          "type": "uint256"
        }
      ],
      "name": "Transfer",
      "type": "event"
    },
    {
      "inputs": [
        {
          "internalType": "address",
          "name": "to",
          "type": "address"
        },
        {
          "internalType": "bytes",
          "name": "",
          "type": "bytes"
        }
      ],
      "name": "canMint",
      "outputs": [
        {
          "internalType": "bool",
          "name": "",
          "type": "bool"
        }
      ],
      "stateMutability": "view",
      "type": "function"
    },
    {
      "inputs": [
        {
          "internalType": "address",
          "name": "myAddress",
          "type": "address"
        }
      ],
      "name": "install",
      "outputs": [],
      "stateMutability": "nonpayable",
      "type": "function"
    },
    {
      "inputs": [],
      "name": "metadata",
      "outputs": [
        {
          "components": [
            {
              "internalType": "string",
              "name": "name",
              "type": "string"
            },
            {
              "components": [
                {
                  "internalType": "uint16",
                  "name": "major",
                  "type": "uint16"
                },
                {
                  "internalType": "uint16",
                  "name": "minor",
                  "type": "uint16"
                }
              ],
              "internalType": "struct Version",
              "name": "version",
              "type": "tuple"
            }
          ],
          "internalType": "struct ExtensionMetadata",
          "name": "",
          "type": "tuple"
        }
      ],
      "stateMutability": "pure",
      "type": "function"
    },
    {
      "inputs": [
        {
          "internalType": "address",
          "name": "to",
          "type": "address"
        },
        {
          "internalType": "bytes",
          "name": "data",
          "type": "bytes"
        }
      ],
      "name": "mint",
      "outputs": [],
      "stateMutability": "nonpayable",
      "type": "function"
    },
    {
      "inputs": [
        {
          "internalType": "address",
          "name": "holder",
          "type": "address"
        },
        {
          "internalType": "bytes",
          "name": "data",
          "type": "bytes"
        }
      ],
      "name": "revoke",
      "outputs": [],
      "stateMutability": "nonpayable",
      "type": "function"
    },
    {
      "inputs": [
        {
          "internalType": "address",
          "name": "myAddress",
          "type": "address"
        }
      ],
      "name": "upgrade",
      "outputs": [],
      "stateMutability": "nonpayable",
      "type": "function"
    }
  ],
  "bytecode": "0x608060405234801561001057600080fd5b506001600055611d52806100256000396000f3fe608060405234801561001057600080fd5b50600436106100625760003560e01c80630900f010146100675780632a1b8f9b1461007a578063392f37e91461008d5780639a973844146100ab5780639e54c0a2146100be578063b510391f146100e1575b600080fd5b6100786100753660046117ef565b50565b005b6100786100883660046117ef565b6100f4565b6100956102b2565b6040516100a2919061185c565b60405180910390f35b6100786100b93660046118a1565b610308565b6100d16100cc3660046118a1565b610701565b60405190151581526020016100a2565b6100786100ef3660046118a1565b6108bc565b60408051600380825260808201909252600091816020015b60408051808201909152600081526060602082015281526020019060019003908161010c5790505090506040518060400160405280639e54c0a260e01b6001600160e01b03191681526020016040518060400160405280601681526020017563616e4d696e7428616464726573732c62797465732960501b8152508152508160008151811061019d5761019d61193c565b6020026020010181905250604051806040016040528063b510391f60e01b6001600160e01b0319168152602001604051806040016040528060138152602001726d696e7428616464726573732c62797465732960681b8152508152508160018151811061020c5761020c61193c565b60200260200101819052506040518060400160405280639a97384460e01b6001600160e01b0319168152602001604051806040016040528060158152602001747265766f6b6528616464726573732c62797465732960581b8152508152508160028151811061027d5761027d61193c565b60200260200101819052506102ae6040518060400160405280846001600160a01b0316815260200183815250610afd565b5050565b6102ba61179e565b506040805160808101825260108183019081526f115490cdcc8c535a5b9d1a5b99d15e1d60821b60608301528152815180830190925260018252600060208381019190915281019190915290565b610310610cc0565b600061031a610cea565b600101546001600160a01b031690503381146103515760405162461bcd60e51b815260040161034890611952565b60405180910390fd5b6000306001600160a01b031663c51aba2b6040518163ffffffff1660e01b8152600401602060405180830381865afa158015610391573d6000803e3d6000fd5b505050506040513d601f19601f820116820180604052508101906103b5919061199a565b60405163c3c5a54760e01b81526001600160a01b0384811660048301529192509082169063c3c5a54790602401602060405180830381865afa1580156103ff573d6000803e3d6000fd5b505050506040513d601f19601f8201168201806040525081019061042391906119b7565b61043f5760405162461bcd60e51b8152600401610348906119d9565b816001600160a01b03166386b70bed6040518163ffffffff1660e01b8152600401602060405180830381865afa15801561047d573d6000803e3d6000fd5b505050506040513d601f19601f820116820180604052508101906104a191906119b7565b6104bd5760405162461bcd60e51b815260040161034890611a36565b60006104cb84860186611a7f565b90506001600160a01b03861661052f5760405162461bcd60e51b815260206004820152602360248201527f4e5445524337323141737365743a20746f6b656e20646f6573206e6f742065786044820152621a5cdd60ea1b6064820152608401610348565b600061053a82610d76565b9050866001600160a01b0316816001600160a01b0316146105b75760405162461bcd60e51b815260206004820152603160248201527f4e5445524337323141737365743a206e6f7420746865206f776e6572206f66206044820152701d1bdad95b881a59081c1c9bdd9a591959607a1b6064820152608401610348565b6105c082610dc6565b306001600160a01b031663e3d7ad736040518163ffffffff1660e01b8152600401602060405180830381865afa1580156105fe573d6000803e3d6000fd5b505050506040513d601f19601f82011682018060405250810190610622919061199a565b60405163c3c5a54760e01b81526001600160a01b038981166004830152919091169063c3c5a54790602401602060405180830381865afa15801561066a573d6000803e3d6000fd5b505050506040513d601f19601f8201168201806040525081019061068e91906119b7565b156106ee5760405163e62194f160e01b8152600481018390526001600160a01b0388169063e62194f190602401600060405180830381600087803b1580156106d557600080fd5b505af11580156106e9573d6000803e3d6000fd5b505050505b505050506106fc6001600055565b505050565b60006001600160a01b0384166107695760405162461bcd60e51b815260206004820152602760248201527f4e5445524337323141737365743a206d696e7420746f20746865207a65726f206044820152666164647265737360c81b6064820152608401610348565b306001600160a01b031663e3d7ad736040518163ffffffff1660e01b8152600401602060405180830381865afa1580156107a7573d6000803e3d6000fd5b505050506040513d601f19601f820116820180604052508101906107cb919061199a565b60405163c3c5a54760e01b81526001600160a01b038681166004830152919091169063c3c5a54790602401602060405180830381865afa158015610813573d6000803e3d6000fd5b505050506040513d601f19601f8201168201806040525081019061083791906119b7565b156108b2576000849050806001600160a01b031663181d939b6040518163ffffffff1660e01b8152600401602060405180830381865afa15801561087f573d6000803e3d6000fd5b505050506040513d601f19601f820116820180604052508101906108a391906119b7565b6108b0576108b085610e01565b505b5060019392505050565b6108c4610cc0565b60006108ce610cea565b600101546001600160a01b031690503381146108fc5760405162461bcd60e51b815260040161034890611952565b6000306001600160a01b031663c51aba2b6040518163ffffffff1660e01b8152600401602060405180830381865afa15801561093c573d6000803e3d6000fd5b505050506040513d601f19601f82011682018060405250810190610960919061199a565b60405163c3c5a54760e01b81526001600160a01b0384811660048301529192509082169063c3c5a54790602401602060405180830381865afa1580156109aa573d6000803e3d6000fd5b505050506040513d601f19601f820116820180604052508101906109ce91906119b7565b6109ea5760405162461bcd60e51b8152600401610348906119d9565b816001600160a01b03166386b70bed6040518163ffffffff1660e01b8152600401602060405180830381865afa158015610a28573d6000803e3d6000fd5b505050506040513d601f19601f82011682018060405250810190610a4c91906119b7565b610a685760405162461bcd60e51b815260040161034890611a36565b610a73858585610701565b610acd5760405162461bcd60e51b815260206004820152602560248201527f4e5445524337323141737365743a2063616e6e6f74206d696e7420746f206164604482015264647265737360d81b6064820152608401610348565b6000610ad7610fcf565b90508060010160008154610aea90611aae565b9091555060018101546106ee8782611034565b6000610b0761104e565b82516001600160a01b031660009081526020829052604081209192505b836020015151811015610cba57600084602001518281518110610b4957610b4961193c565b6020908102919091018101518051600486810180546001808201835560009283528683206008830401805463ffffffff600790941690950261010090810a9384021990951660e09690961c9290920294909417905583516001600160e01b0319168152918801909352604090208054919350916001600160a01b0391041615610c4257805461010090046001600160a01b0316600090815260208690526040812087519091906001870190610bfd906110b3565b602080870151604051610c17949392600188019101611b64565b60405160208183030381529060405290508060405162461bcd60e51b81526004016103489190611c4e565b50604080518082018252600180825287516001600160a01b03908116602080850191825295516001600160e01b0319166000908152898401909652939094209151825493516001600160a81b0319909416901515610100600160a81b0319161761010093909416929092029290921790915501610b24565b50505050565b600260005403610ce357604051633ee5aeb560e01b815260040160405180910390fd5b6002600055565b60408051808201909152601381527278722e61737365742e73746f726167652e763160681b60209091015260008060ff610d4560017f0db46b7c34197dfe4fa603e9c17ca5ed137d4afe720a374e843bbcf1431eaeb7611c61565b604051602001610d5791815260200190565b60408051601f1981840301815291905280516020909101201692915050565b600080610d81610fcf565b60008481526002820160205260409020549091506001600160a01b031680610dbf57604051637e27328960e01b815260048101859052602401610348565b9392505050565b6000610dd560008360006110cf565b90506001600160a01b0381166102ae57604051637e27328960e01b815260048101839052602401610348565b6000816001600160a01b031663516f279e6040518163ffffffff1660e01b8152600401602060405180830381865afa158015610e41573d6000803e3d6000fd5b505050506040513d601f19601f82011682018060405250810190610e65919061199a565b90506001600160a01b038116610ec75760405162461bcd60e51b815260206004820152602160248201527f4261736541737365743a2061766174617220686173206e6f206c6f636174696f6044820152603760f91b6064820152608401610348565b80610ed0610cea565b6001015460408051636904c94d60e01b815290516001600160a01b0392831692841691636904c94d9160048083019260209291908290030181865afa158015610f1d573d6000803e3d6000fd5b505050506040513d601f19601f82011682018060405250810190610f41919061199a565b6001600160a01b0316146106fc5760405162461bcd60e51b815260206004820152604960248201527f4261736541737365743a2061766174617220646f6573206e6f7420616c6c6f7760448201527f20617373657473206f757473696465206f66206974732063757272656e7420656064820152687870657269656e636560b81b608482015260a401610348565b60408051808201909152601a81527f78722e6572633732312e61737365742e73746f726167652e763100000000000060209091015260008060ff610d4560017f60ff308ff8f840802008c7c997a35cbef97f56188316b0b2b2dbc99e530b505f611c61565b6102ae8282604051806020016040528060008152506111d6565b60408051808201909152601881527f78722e657874656e73696f6e732e73746f726167652e7631000000000000000060209091015260008060ff610d4560017fb58ec9ca7ba0606d9fecd9f559655d0e5fec418e6751b65b892bccdfd25eb99f611c61565b60606110c96001600160a01b03831660146111ed565b92915050565b6000806110db8461136d565b905060006110e7610fcf565b90506001600160a01b0384161561110357611103828587611394565b6001600160a01b03821615611143576111206000866000806113f8565b6001600160a01b0382166000908152600382016020526040902080546000190190555b6001600160a01b03861615611174576001600160a01b03861660009081526003820160205260409020805460010190555b600085815260028201602052604080822080546001600160a01b0319166001600160a01b038a811691821790925591518893918616917fddf252ad1be2c89b69c2b068fc378daa952ba7f163c4a11628f55a4df523b3ef91a450949350505050565b6111e0838361150c565b6106fc60008484846115ac565b60608260006111fd846002611c74565b611208906002611c8b565b67ffffffffffffffff81111561122057611220611926565b6040519080825280601f01601f19166020018201604052801561124a576020820181803683370190505b509050600360fc1b816000815181106112655761126561193c565b60200101906001600160f81b031916908160001a905350600f60fb1b816001815181106112945761129461193c565b60200101906001600160f81b031916908160001a90535060006112b8856002611c74565b6112c3906001611c8b565b90505b600181111561133b576f181899199a1a9b1b9c1cb0b131b232b360811b83600f16601081106112f7576112f761193c565b1a60f81b82828151811061130d5761130d61193c565b60200101906001600160f81b031916908160001a90535060049290921c9161133481611c9e565b90506112c6565b5081156113655760405163e22e27eb60e01b81526004810186905260248101859052604401610348565b949350505050565b6000611377610fcf565b60009283526002016020525060409020546001600160a01b031690565b61139f8383836116d5565b6106fc576001600160a01b0383166113cd57604051637e27328960e01b815260048101829052602401610348565b60405163177e802f60e01b81526001600160a01b038316600482015260248101829052604401610348565b808061140c57506001600160a01b03821615155b156114ce57600061141c84610d76565b90506001600160a01b038316158015906114485750826001600160a01b0316816001600160a01b031614155b801561145b5750611459818461173a565b155b156114845760405163a9fbf51f60e01b81526001600160a01b0384166004820152602401610348565b81156114cc5783856001600160a01b0316826001600160a01b03167f8c5be1e5ebec7d5bd14f71427d1e84f3dd0314c0f7b2291e5b200ac8c7c3b92560405160405180910390a45b505b60006114d8610fcf565b60009485526004016020525050604090912080546001600160a01b0319166001600160a01b03939093169290921790915550565b6001600160a01b03821661153657604051633250574960e11b815260006004820152602401610348565b6000611544838360006110cf565b90506001600160a01b03811615611571576040516339e3563760e11b815260006004820152602401610348565b60405182906001600160a01b038516907f1292a1381d69fd0f033102672143fff68d426b4b73eb1fa4df2620aeed9a299490600090a3505050565b6001600160a01b0383163b15610cba57604051630a85bd0160e11b81526001600160a01b0384169063150b7a02906115ee903390889087908790600401611cb5565b6020604051808303816000875af1925050508015611629575060408051601f3d908101601f1916820190925261162691810190611cf2565b60015b611692573d808015611657576040519150601f19603f3d011682016040523d82523d6000602084013e61165c565b606091505b50805160000361168a57604051633250574960e11b81526001600160a01b0385166004820152602401610348565b805181602001fd5b6001600160e01b03198116630a85bd0160e11b146116ce57604051633250574960e11b81526001600160a01b0385166004820152602401610348565b5050505050565b60006001600160a01b038316158015906113655750826001600160a01b0316846001600160a01b0316148061170f575061170f848461173a565b806113655750826001600160a01b031661172883611777565b6001600160a01b031614949350505050565b6000611744610fcf565b6001600160a01b039384166000908152600591909101602090815260408083209490951682529290925250205460ff1690565b6000611781610fcf565b60009283526004016020525060409020546001600160a01b031690565b6040518060400160405280606081526020016117d56040518060400160405280600061ffff168152602001600061ffff1681525090565b905290565b6001600160a01b038116811461007557600080fd5b60006020828403121561180157600080fd5b8135610dbf816117da565b60005b8381101561182757818101518382015260200161180f565b50506000910152565b6000815180845261184881602086016020860161180c565b601f01601f19169290920160200192915050565b6020815260008251606060208401526118786080840182611830565b602094850151805161ffff90811660408701529501519094166060909301929092525090919050565b6000806000604084860312156118b657600080fd5b83356118c1816117da565b9250602084013567ffffffffffffffff808211156118de57600080fd5b818601915086601f8301126118f257600080fd5b81358181111561190157600080fd5b87602082850101111561191357600080fd5b6020830194508093505050509250925092565b634e487b7160e01b600052604160045260246000fd5b634e487b7160e01b600052603260045260246000fd5b60208082526028908201527f4261736541737365744d696e74696e674578743a206f6e6c792069737375657260408201526708185b1b1bddd95960c21b606082015260800190565b6000602082840312156119ac57600080fd5b8151610dbf816117da565b6000602082840312156119c957600080fd5b81518015158114610dbf57600080fd5b60208082526037908201527f4261736541737365744d696e74696e674578743a20697373756572206973206e60408201527f6f742061207265676973746572656420636f6d70616e79000000000000000000606082015260800190565b60208082526029908201527f4261736541737365744d696e74696e674578743a20697373756572206973206e6040820152686f742061637469766560b81b606082015260800190565b600060208284031215611a9157600080fd5b5035919050565b634e487b7160e01b600052601160045260246000fd5b600060018201611ac057611ac0611a98565b5060010190565b8054600090600181811c9080831680611ae157607f831692505b60208084108203611b0257634e487b7160e01b600052602260045260246000fd5b818015611b165760018114611b2b57611b58565b60ff1986168952841515850289019650611b58565b60008881526020902060005b86811015611b505781548b820152908501908301611b37565b505084890196505b50505050505092915050565b7f4c6962457874656e73696f6e3a20657874656e73696f6e20000000000000000081526000611b966018830187611ac7565b6c01030ba1030b2323932b9b99d1609d1b81528551611bbc81600d840160208a0161180c565b8082019150507f20617474656d7074696e6720746f20726575736520612073656c6563746f723a600d820152600160fd1b80602d8301528551611c0681602e850160208a0161180c565b7f2c20776869636820697320616c72656164792072656769737465726564206279602e9390910192830152604e820152611c43604f820185611ac7565b979650505050505050565b602081526000610dbf6020830184611830565b818103818111156110c9576110c9611a98565b80820281158282048414176110c9576110c9611a98565b808201808211156110c9576110c9611a98565b600081611cad57611cad611a98565b506000190190565b6001600160a01b0385811682528416602082015260408101839052608060608201819052600090611ce890830184611830565b9695505050505050565b600060208284031215611d0457600080fd5b81516001600160e01b031981168114610dbf57600080fdfea264697066735822122005e354b180aa0df10a1da8eda8a56e466dcd666666c65540838594221ff7bbed64736f6c63430008180033",
  "linkReferences": {},
  "deployedLinkReferences": {}
}