{
  "_format": "hh-sol-artifact-1",
  "contractName": "ERC721InfoExt",
  "sourceName": "contracts/extensions/asset/erc721/ERC721InfoExt.sol",
  "abi": [
    {
      "inputs": [
        {
          "internalType": "address",
          "name": "sender",
          "type": "address"
        },
        {
          "internalType": "uint256",
          "name": "tokenId",
          "type": "uint256"
        },
        {
          "internalType": "address",
          "name": "owner",
          "type": "address"
        }
      ],
      "name": "ERC721IncorrectOwner",
      "type": "error"
    },
    {
      "inputs": [
        {
          "internalType": "address",
          "name": "operator",
          "type": "address"
        },
        {
          "internalType": "uint256",
          "name": "tokenId",
          "type": "uint256"
        }
      ],
      "name": "ERC721InsufficientApproval",
      "type": "error"
    },
    {
      "inputs": [
        {
          "internalType": "address",
          "name": "approver",
          "type": "address"
        }
      ],
      "name": "ERC721InvalidApprover",
      "type": "error"
    },
    {
      "inputs": [
        {
          "internalType": "address",
          "name": "operator",
          "type": "address"
        }
      ],
      "name": "ERC721InvalidOperator",
      "type": "error"
    },
    {
      "inputs": [
        {
          "internalType": "address",
          "name": "owner",
          "type": "address"
        }
      ],
      "name": "ERC721InvalidOwner",
      "type": "error"
    },
    {
      "inputs": [
        {
          "internalType": "address",
          "name": "receiver",
          "type": "address"
        }
      ],
      "name": "ERC721InvalidReceiver",
      "type": "error"
    },
    {
      "inputs": [
        {
          "internalType": "address",
          "name": "sender",
          "type": "address"
        }
      ],
      "name": "ERC721InvalidSender",
      "type": "error"
    },
    {
      "inputs": [
        {
          "internalType": "uint256",
          "name": "tokenId",
          "type": "uint256"
        }
      ],
      "name": "ERC721NonexistentToken",
      "type": "error"
    },
    {
      "inputs": [
        {
          "internalType": "uint256",
          "name": "value",
          "type": "uint256"
        },
        {
          "internalType": "uint256",
          "name": "length",
          "type": "uint256"
        }
      ],
      "name": "StringsInsufficientHexLength",
      "type": "error"
    },
    {
      "inputs": [
        {
          "internalType": "address",
          "name": "owner",
          "type": "address"
        }
      ],
      "name": "balanceOf",
      "outputs": [
        {
          "internalType": "uint256",
          "name": "",
          "type": "uint256"
        }
      ],
      "stateMutability": "view",
      "type": "function"
    },
    {
      "inputs": [
        {
          "internalType": "address",
          "name": "myAddress",
          "type": "address"
        }
      ],
      "name": "install",
      "outputs": [],
      "stateMutability": "nonpayable",
      "type": "function"
    },
    {
      "inputs": [],
      "name": "issuer",
      "outputs": [
        {
          "internalType": "address",
          "name": "",
          "type": "address"
        }
      ],
      "stateMutability": "view",
      "type": "function"
    },
    {
      "inputs": [],
      "name": "metadata",
      "outputs": [
        {
          "components": [
            {
              "internalType": "string",
              "name": "name",
              "type": "string"
            },
            {
              "components": [
                {
                  "internalType": "uint16",
                  "name": "major",
                  "type": "uint16"
                },
                {
                  "internalType": "uint16",
                  "name": "minor",
                  "type": "uint16"
                }
              ],
              "internalType": "struct Version",
              "name": "version",
              "type": "tuple"
            }
          ],
          "internalType": "struct ExtensionMetadata",
          "name": "",
          "type": "tuple"
        }
      ],
      "stateMutability": "pure",
      "type": "function"
    },
    {
      "inputs": [],
      "name": "originAddress",
      "outputs": [
        {
          "internalType": "address",
          "name": "",
          "type": "address"
        }
      ],
      "stateMutability": "view",
      "type": "function"
    },
    {
      "inputs": [],
      "name": "originChainId",
      "outputs": [
        {
          "internalType": "uint256",
          "name": "",
          "type": "uint256"
        }
      ],
      "stateMutability": "view",
      "type": "function"
    },
    {
      "inputs": [
        {
          "internalType": "uint256",
          "name": "tokenId",
          "type": "uint256"
        }
      ],
      "name": "ownerOf",
      "outputs": [
        {
          "internalType": "address",
          "name": "",
          "type": "address"
        }
      ],
      "stateMutability": "view",
      "type": "function"
    },
    {
      "inputs": [
        {
          "internalType": "bytes4",
          "name": "interfaceId",
          "type": "bytes4"
        }
      ],
      "name": "supportsInterface",
      "outputs": [
        {
          "internalType": "bool",
          "name": "",
          "type": "bool"
        }
      ],
      "stateMutability": "view",
      "type": "function"
    },
    {
      "inputs": [],
      "name": "symbol",
      "outputs": [
        {
          "internalType": "string",
          "name": "",
          "type": "string"
        }
      ],
      "stateMutability": "view",
      "type": "function"
    },
    {
      "inputs": [
        {
          "internalType": "uint256",
          "name": "tokenId",
          "type": "uint256"
        }
      ],
      "name": "tokenURI",
      "outputs": [
        {
          "internalType": "string",
          "name": "",
          "type": "string"
        }
      ],
      "stateMutability": "view",
      "type": "function"
    },
    {
      "inputs": [
        {
          "internalType": "address",
          "name": "myAddress",
          "type": "address"
        }
      ],
      "name": "upgrade",
      "outputs": [],
      "stateMutability": "nonpayable",
      "type": "function"
    }
  ],
  "bytecode": "0x608060405234801561001057600080fd5b5061124a806100206000396000f3fe608060405234801561001057600080fd5b50600436106100a95760003560e01c8063392f37e911610071578063392f37e9146101325780636352211e1461014757806370a082311461015a57806395d89b411461016d578063c87b56dd14610182578063e517fedd1461019557600080fd5b806301ffc9a7146100ae5780630900f010146100d65780630ac7f561146100e95780631d143848146100ff5780632a1b8f9b1461011f575b600080fd5b6100c16100bc366004610e7a565b61019d565b60405190151581526020015b60405180910390f35b6100e76100e4366004610ea4565b50565b005b6100f16101ef565b6040519081526020016100cd565b610107610202565b6040516001600160a01b0390911681526020016100cd565b6100e761012d366004610ea4565b61021e565b61013a6105e9565b6040516100cd9190610f1d565b610107610155366004610f62565b61063c565b6100f1610168366004610ea4565b610647565b6101756106a4565b6040516100cd9190610f7b565b610175610190366004610f62565b61073f565b6101076107a7565b60006001600160e01b031982166380ac58cd60e01b14806101ce57506001600160e01b03198216635b5e139f60e01b145b806101e957506001600160e01b031982166301ffc9a760e01b145b92915050565b60006101f96107c6565b60030154905090565b600061020c6107c6565b600101546001600160a01b0316919050565b6040805160088082526101208201909252600091816020015b60408051808201909152600081526060602082015281526020019060019003908161023757905050905060405180604001604052806395d89b4160e01b6001600160e01b03191681526020016040518060400160405280600881526020016773796d626f6c282960c01b815250815250816000815181106102ba576102ba610fa4565b60200260200101819052506040518060400160405280631d14384860e01b6001600160e01b031916815260200160405180604001604052806008815260200167697373756572282960c01b8152508152508160018151811061031e5761031e610fa4565b6020026020010181905250604051806040016040528063e517fedd60e01b6001600160e01b03191681526020016040518060400160405280600f81526020016e6f726967696e41646472657373282960881b8152508152508160028151811061038957610389610fa4565b60200260200101819052506040518060400160405280630ac7f56160e01b6001600160e01b03191681526020016040518060400160405280600f81526020016e6f726967696e436861696e4964282960881b815250815250816003815181106103f4576103f4610fa4565b602002602001018190525060405180604001604052806301ffc9a760e01b6001600160e01b03191681526020016040518060400160405280601981526020017f737570706f727473496e746572666163652862797465733429000000000000008152508152508160048151811061046d5761046d610fa4565b602002602001018190525060405180604001604052806370a0823160e01b6001600160e01b03191681526020016040518060400160405280601281526020017162616c616e63654f6628616464726573732960701b815250815250816005815181106104db576104db610fa4565b60200260200101819052506040518060400160405280636352211e60e01b6001600160e01b03191681526020016040518060400160405280601081526020016f6f776e65724f662875696e743235362960801b8152508152508160068151811061054757610547610fa4565b6020026020010181905250604051806040016040528063c87b56dd60e01b6001600160e01b031916815260200160405180604001604052806011815260200170746f6b656e5552492875696e743235362960781b815250815250816007815181106105b4576105b4610fa4565b60200260200101819052506105e56040518060400160405280846001600160a01b0316815260200183815250610852565b5050565b6105f1610e3e565b5060408051608081018252600d8183019081526c115490cdcc8c525b999bd15e1d609a1b60608301528152815180830190925260018252600060208381019190915281019190915290565b60006101e982610a15565b60006001600160a01b038216610678576040516322718ad960e21b8152600060048201526024015b60405180910390fd5b6000610682610a5e565b6001600160a01b03909316600090815260039093016020525050604090205490565b60606106ae6107c6565b60040180546106bc90610fba565b80601f01602080910402602001604051908101604052809291908181526020018280546106e890610fba565b80156107355780601f1061070a57610100808354040283529160200191610735565b820191906000526020600020905b81548152906001019060200180831161071857829003601f168201915b5050505050905090565b606061074a82610a15565b506000610755610ac3565b9050600081511161077557604051806020016040528060008152506107a0565b8061077f84610ad8565b604051602001610790929190610ff4565b6040516020818303038152906040525b9392505050565b60006107b16107c6565b546201000090046001600160a01b0316919050565b60408051808201909152601381527278722e61737365742e73746f726167652e763160681b60209091015260008060ff61082160017f0db46b7c34197dfe4fa603e9c17ca5ed137d4afe720a374e843bbcf1431eaeb7611039565b60405160200161083391815260200190565b60408051601f1981840301815291905280516020909101201692915050565b600061085c610b6b565b82516001600160a01b031660009081526020829052604081209192505b836020015151811015610a0f5760008460200151828151811061089e5761089e610fa4565b6020908102919091018101518051600486810180546001808201835560009283528683206008830401805463ffffffff600790941690950261010090810a9384021990951660e09690961c9290920294909417905583516001600160e01b0319168152918801909352604090208054919350916001600160a01b039104161561099757805461010090046001600160a01b031660009081526020869052604081208751909190600187019061095290610bd0565b60208087015160405161096c9493926001880191016110e9565b60405160208183030381529060405290508060405162461bcd60e51b815260040161066f9190610f7b565b50604080518082018252600180825287516001600160a01b03908116602080850191825295516001600160e01b0319166000908152898401909652939094209151825493516001600160a81b0319909416901515610100600160a81b0319161761010093909416929092029290921790915501610879565b50505050565b600080610a20610a5e565b60008481526002820160205260409020549091506001600160a01b0316806107a057604051637e27328960e01b81526004810185905260240161066f565b60408051808201909152601a81527f78722e6572633732312e61737365742e73746f726167652e763100000000000060209091015260008060ff61082160017f60ff308ff8f840802008c7c997a35cbef97f56188316b0b2b2dbc99e530b505f611039565b6060610acd610a5e565b80546106bc90610fba565b60606000610ae583610be6565b600101905060008167ffffffffffffffff811115610b0557610b05610f8e565b6040519080825280601f01601f191660200182016040528015610b2f576020820181803683370190505b5090508181016020015b600019016f181899199a1a9b1b9c1cb0b131b232b360811b600a86061a8153600a8504945084610b3957509392505050565b60408051808201909152601881527f78722e657874656e73696f6e732e73746f726167652e7631000000000000000060209091015260008060ff61082160017fb58ec9ca7ba0606d9fecd9f559655d0e5fec418e6751b65b892bccdfd25eb99f611039565b60606101e96001600160a01b0383166014610cbe565b60008072184f03e93ff9f4daa797ed6e38ed64bf6a1f0160401b8310610c255772184f03e93ff9f4daa797ed6e38ed64bf6a1f0160401b830492506040015b6d04ee2d6d415b85acef81000000008310610c51576d04ee2d6d415b85acef8100000000830492506020015b662386f26fc100008310610c6f57662386f26fc10000830492506010015b6305f5e1008310610c87576305f5e100830492506008015b6127108310610c9b57612710830492506004015b60648310610cad576064830492506002015b600a83106101e95760010192915050565b6060826000610cce8460026111d3565b610cd99060026111ea565b67ffffffffffffffff811115610cf157610cf1610f8e565b6040519080825280601f01601f191660200182016040528015610d1b576020820181803683370190505b509050600360fc1b81600081518110610d3657610d36610fa4565b60200101906001600160f81b031916908160001a905350600f60fb1b81600181518110610d6557610d65610fa4565b60200101906001600160f81b031916908160001a9053506000610d898560026111d3565b610d949060016111ea565b90505b6001811115610e0c576f181899199a1a9b1b9c1cb0b131b232b360811b83600f1660108110610dc857610dc8610fa4565b1a60f81b828281518110610dde57610dde610fa4565b60200101906001600160f81b031916908160001a90535060049290921c91610e05816111fd565b9050610d97565b508115610e365760405163e22e27eb60e01b8152600481018690526024810185905260440161066f565b949350505050565b604051806040016040528060608152602001610e756040518060400160405280600061ffff168152602001600061ffff1681525090565b905290565b600060208284031215610e8c57600080fd5b81356001600160e01b0319811681146107a057600080fd5b600060208284031215610eb657600080fd5b81356001600160a01b03811681146107a057600080fd5b60005b83811015610ee8578181015183820152602001610ed0565b50506000910152565b60008151808452610f09816020860160208601610ecd565b601f01601f19169290920160200192915050565b602081526000825160606020840152610f396080840182610ef1565b602094850151805161ffff90811660408701529501519094166060909301929092525090919050565b600060208284031215610f7457600080fd5b5035919050565b6020815260006107a06020830184610ef1565b634e487b7160e01b600052604160045260246000fd5b634e487b7160e01b600052603260045260246000fd5b600181811c90821680610fce57607f821691505b602082108103610fee57634e487b7160e01b600052602260045260246000fd5b50919050565b60008351611006818460208801610ecd565b83519083019061101a818360208801610ecd565b01949350505050565b634e487b7160e01b600052601160045260246000fd5b818103818111156101e9576101e9611023565b8054600090600181811c908083168061106657607f831692505b6020808410820361108757634e487b7160e01b600052602260045260246000fd5b81801561109b57600181146110b0576110dd565b60ff19861689528415158502890196506110dd565b60008881526020902060005b868110156110d55781548b8201529085019083016110bc565b505084890196505b50505050505092915050565b7f4c6962457874656e73696f6e3a20657874656e73696f6e2000000000000000008152600061111b601883018761104c565b6c01030ba1030b2323932b9b99d1609d1b8152855161114181600d840160208a01610ecd565b8082019150507f20617474656d7074696e6720746f20726575736520612073656c6563746f723a600d820152600160fd1b80602d830152855161118b81602e850160208a01610ecd565b7f2c20776869636820697320616c72656164792072656769737465726564206279602e9390910192830152604e8201526111c8604f82018561104c565b979650505050505050565b80820281158282048414176101e9576101e9611023565b808201808211156101e9576101e9611023565b60008161120c5761120c611023565b50600019019056fea264697066735822122045b78fec7cf89ff40e0eaacfa9119af416956f3e1ad6e70112a2f9e9cdfe341264736f6c63430008180033",
  "linkReferences": {},
  "deployedLinkReferences": {}
}