{
  "_format": "hh-sol-artifact-1",
  "contractName": "ERC721Registry",
  "sourceName": "contracts/asset/registry/ERC721Registry.sol",
  "abi": [
    {
      "inputs": [],
      "name": "ReentrancyGuardReentrantCall",
      "type": "error"
    },
    {
      "anonymous": false,
      "inputs": [
        {
          "indexed": true,
          "internalType": "address",
          "name": "entity",
          "type": "address"
        },
        {
          "indexed": true,
          "internalType": "address",
          "name": "by",
          "type": "address"
        }
      ],
      "name": "EntityRegistrationRenewed",
      "type": "event"
    },
    {
      "anonymous": false,
      "inputs": [
        {
          "indexed": true,
          "internalType": "address",
          "name": "world",
          "type": "address"
        },
        {
          "indexed": false,
          "internalType": "string",
          "name": "reason",
          "type": "string"
        }
      ],
      "name": "RegistrarDeactivatedWorld",
      "type": "event"
    },
    {
      "anonymous": false,
      "inputs": [
        {
          "indexed": true,
          "internalType": "address",
          "name": "world",
          "type": "address"
        }
      ],
      "name": "RegistrarReactivatedWorld",
      "type": "event"
    },
    {
      "anonymous": false,
      "inputs": [
        {
          "indexed": true,
          "internalType": "address",
          "name": "world",
          "type": "address"
        },
        {
          "indexed": false,
          "internalType": "string",
          "name": "reason",
          "type": "string"
        }
      ],
      "name": "RegistrarRemovedWorld",
      "type": "event"
    },
    {
      "anonymous": false,
      "inputs": [
        {
          "indexed": true,
          "internalType": "address",
          "name": "entity",
          "type": "address"
        },
        {
          "indexed": true,
          "internalType": "address",
          "name": "owner",
          "type": "address"
        }
      ],
      "name": "RegistryAddedEntity",
      "type": "event"
    },
    {
      "anonymous": false,
      "inputs": [
        {
          "indexed": true,
          "internalType": "address",
          "name": "entity",
          "type": "address"
        },
        {
          "indexed": false,
          "internalType": "string",
          "name": "reason",
          "type": "string"
        }
      ],
      "name": "RegistryDeactivatedEntity",
      "type": "event"
    },
    {
      "anonymous": false,
      "inputs": [
        {
          "indexed": true,
          "internalType": "address",
          "name": "entity",
          "type": "address"
        },
        {
          "indexed": true,
          "internalType": "address",
          "name": "newImplementation",
          "type": "address"
        }
      ],
      "name": "RegistryDowngradedEntity",
      "type": "event"
    },
    {
      "anonymous": false,
      "inputs": [
        {
          "indexed": true,
          "internalType": "address",
          "name": "entity",
          "type": "address"
        }
      ],
      "name": "RegistryEnforcedDeactivation",
      "type": "event"
    },
    {
      "anonymous": false,
      "inputs": [
        {
          "indexed": true,
          "internalType": "address",
          "name": "entity",
          "type": "address"
        }
      ],
      "name": "RegistryEnforcedRemoval",
      "type": "event"
    },
    {
      "anonymous": false,
      "inputs": [
        {
          "indexed": true,
          "internalType": "address",
          "name": "implementation",
          "type": "address"
        }
      ],
      "name": "RegistryEntityImplementationSet",
      "type": "event"
    },
    {
      "anonymous": false,
      "inputs": [
        {
          "indexed": true,
          "internalType": "address",
          "name": "implementation",
          "type": "address"
        }
      ],
      "name": "RegistryProxyImplementationSet",
      "type": "event"
    },
    {
      "anonymous": false,
      "inputs": [
        {
          "indexed": true,
          "internalType": "address",
          "name": "entity",
          "type": "address"
        }
      ],
      "name": "RegistryReactivatedEntity",
      "type": "event"
    },
    {
      "anonymous": false,
      "inputs": [
        {
          "indexed": true,
          "internalType": "address",
          "name": "entity",
          "type": "address"
        },
        {
          "indexed": false,
          "internalType": "string",
          "name": "reason",
          "type": "string"
        }
      ],
      "name": "RegistryRemovedEntity",
      "type": "event"
    },
    {
      "anonymous": false,
      "inputs": [
        {
          "indexed": true,
          "internalType": "address",
          "name": "entity",
          "type": "address"
        },
        {
          "indexed": true,
          "internalType": "address",
          "name": "newImplementation",
          "type": "address"
        }
      ],
      "name": "RegistryUpgradedEntity",
      "type": "event"
    },
    {
      "inputs": [
        {
          "internalType": "address[]",
          "name": "signers",
          "type": "address[]"
        }
      ],
      "name": "addSigners",
      "outputs": [],
      "stateMutability": "nonpayable",
      "type": "function"
    },
    {
      "inputs": [
        {
          "internalType": "address",
          "name": "original",
          "type": "address"
        },
        {
          "internalType": "uint256",
          "name": "chainId",
          "type": "uint256"
        }
      ],
      "name": "assetExists",
      "outputs": [
        {
          "internalType": "bool",
          "name": "",
          "type": "bool"
        }
      ],
      "stateMutability": "view",
      "type": "function"
    },
    {
      "inputs": [
        {
          "internalType": "address",
          "name": "addr",
          "type": "address"
        }
      ],
      "name": "canBeDeactivated",
      "outputs": [
        {
          "internalType": "bool",
          "name": "",
          "type": "bool"
        }
      ],
      "stateMutability": "view",
      "type": "function"
    },
    {
      "inputs": [
        {
          "internalType": "address",
          "name": "addr",
          "type": "address"
        }
      ],
      "name": "canBeRemoved",
      "outputs": [
        {
          "internalType": "bool",
          "name": "",
          "type": "bool"
        }
      ],
      "stateMutability": "view",
      "type": "function"
    },
    {
      "inputs": [
        {
          "components": [
            {
              "internalType": "address",
              "name": "entity",
              "type": "address"
            },
            {
              "internalType": "bytes",
              "name": "entitySignature",
              "type": "bytes"
            },
            {
              "internalType": "uint256",
              "name": "expiration",
              "type": "uint256"
            },
            {
              "components": [
                {
                  "internalType": "uint16",
                  "name": "coveragePeriodDays",
                  "type": "uint16"
                },
                {
                  "internalType": "uint16",
                  "name": "gracePeriodDays",
                  "type": "uint16"
                },
                {
                  "internalType": "uint256",
                  "name": "fee",
                  "type": "uint256"
                }
              ],
              "internalType": "struct RegistrationTerms",
              "name": "terms",
              "type": "tuple"
            }
          ],
          "internalType": "struct ChangeEntityTermsArgs",
          "name": "args",
          "type": "tuple"
        }
      ],
      "name": "changeEntityTerms",
      "outputs": [],
      "stateMutability": "nonpayable",
      "type": "function"
    },
    {
      "inputs": [
        {
          "internalType": "address",
          "name": "newOwner",
          "type": "address"
        }
      ],
      "name": "changeOwner",
      "outputs": [],
      "stateMutability": "nonpayable",
      "type": "function"
    },
    {
      "inputs": [
        {
          "internalType": "address",
          "name": "asset",
          "type": "address"
        },
        {
          "internalType": "string",
          "name": "reason",
          "type": "string"
        }
      ],
      "name": "deactivateAsset",
      "outputs": [],
      "stateMutability": "nonpayable",
      "type": "function"
    },
    {
      "inputs": [
        {
          "internalType": "contract IRemovableEntity",
          "name": "entity",
          "type": "address"
        },
        {
          "internalType": "string",
          "name": "reason",
          "type": "string"
        }
      ],
      "name": "deactivateEntity",
      "outputs": [],
      "stateMutability": "nonpayable",
      "type": "function"
    },
    {
      "inputs": [
        {
          "internalType": "bytes",
          "name": "initData",
          "type": "bytes"
        }
      ],
      "name": "downgradeEntity",
      "outputs": [],
      "stateMutability": "nonpayable",
      "type": "function"
    },
    {
      "inputs": [
        {
          "internalType": "contract IRemovableEntity",
          "name": "addr",
          "type": "address"
        }
      ],
      "name": "enforceDeactivation",
      "outputs": [],
      "stateMutability": "nonpayable",
      "type": "function"
    },
    {
      "inputs": [
        {
          "internalType": "contract IRemovableEntity",
          "name": "e",
          "type": "address"
        }
      ],
      "name": "enforceRemoval",
      "outputs": [],
      "stateMutability": "nonpayable",
      "type": "function"
    },
    {
      "inputs": [
        {
          "internalType": "string",
          "name": "name",
          "type": "string"
        }
      ],
      "name": "getEntityByName",
      "outputs": [
        {
          "internalType": "address",
          "name": "",
          "type": "address"
        }
      ],
      "stateMutability": "view",
      "type": "function"
    },
    {
      "inputs": [],
      "name": "getEntityImplementation",
      "outputs": [
        {
          "internalType": "address",
          "name": "",
          "type": "address"
        }
      ],
      "stateMutability": "view",
      "type": "function"
    },
    {
      "inputs": [
        {
          "internalType": "address",
          "name": "addr",
          "type": "address"
        }
      ],
      "name": "getEntityTerms",
      "outputs": [
        {
          "components": [
            {
              "internalType": "uint16",
              "name": "coveragePeriodDays",
              "type": "uint16"
            },
            {
              "internalType": "uint16",
              "name": "gracePeriodDays",
              "type": "uint16"
            },
            {
              "internalType": "uint256",
              "name": "fee",
              "type": "uint256"
            }
          ],
          "internalType": "struct RegistrationTerms",
          "name": "",
          "type": "tuple"
        }
      ],
      "stateMutability": "view",
      "type": "function"
    },
    {
      "inputs": [],
      "name": "getEntityVersion",
      "outputs": [
        {
          "components": [
            {
              "internalType": "uint16",
              "name": "major",
              "type": "uint16"
            },
            {
              "internalType": "uint16",
              "name": "minor",
              "type": "uint16"
            }
          ],
          "internalType": "struct Version",
          "name": "",
          "type": "tuple"
        }
      ],
      "stateMutability": "view",
      "type": "function"
    },
    {
      "inputs": [
        {
          "internalType": "address",
          "name": "addr",
          "type": "address"
        }
      ],
      "name": "getExpiration",
      "outputs": [
        {
          "internalType": "uint256",
          "name": "",
          "type": "uint256"
        }
      ],
      "stateMutability": "view",
      "type": "function"
    },
    {
      "inputs": [
        {
          "internalType": "address",
          "name": "addr",
          "type": "address"
        }
      ],
      "name": "getLastRenewal",
      "outputs": [
        {
          "internalType": "uint256",
          "name": "",
          "type": "uint256"
        }
      ],
      "stateMutability": "view",
      "type": "function"
    },
    {
      "inputs": [],
      "name": "getProxyImplementation",
      "outputs": [
        {
          "internalType": "address",
          "name": "",
          "type": "address"
        }
      ],
      "stateMutability": "view",
      "type": "function"
    },
    {
      "inputs": [
        {
          "internalType": "bytes32",
          "name": "role",
          "type": "bytes32"
        },
        {
          "internalType": "address",
          "name": "account",
          "type": "address"
        }
      ],
      "name": "grantRole",
      "outputs": [],
      "stateMutability": "nonpayable",
      "type": "function"
    },
    {
      "inputs": [
        {
          "internalType": "bytes32",
          "name": "role",
          "type": "bytes32"
        },
        {
          "internalType": "address",
          "name": "account",
          "type": "address"
        }
      ],
      "name": "hasRole",
      "outputs": [
        {
          "internalType": "bool",
          "name": "",
          "type": "bool"
        }
      ],
      "stateMutability": "view",
      "type": "function"
    },
    {
      "inputs": [
        {
          "internalType": "address",
          "name": "account",
          "type": "address"
        }
      ],
      "name": "isAdmin",
      "outputs": [
        {
          "internalType": "bool",
          "name": "",
          "type": "bool"
        }
      ],
      "stateMutability": "view",
      "type": "function"
    },
    {
      "inputs": [
        {
          "internalType": "address",
          "name": "addr",
          "type": "address"
        }
      ],
      "name": "isExpired",
      "outputs": [
        {
          "internalType": "bool",
          "name": "",
          "type": "bool"
        }
      ],
      "stateMutability": "view",
      "type": "function"
    },
    {
      "inputs": [
        {
          "internalType": "address",
          "name": "addr",
          "type": "address"
        }
      ],
      "name": "isInGracePeriod",
      "outputs": [
        {
          "internalType": "bool",
          "name": "",
          "type": "bool"
        }
      ],
      "stateMutability": "view",
      "type": "function"
    },
    {
      "inputs": [
        {
          "internalType": "address",
          "name": "addr",
          "type": "address"
        }
      ],
      "name": "isRegistered",
      "outputs": [
        {
          "internalType": "bool",
          "name": "",
          "type": "bool"
        }
      ],
      "stateMutability": "view",
      "type": "function"
    },
    {
      "inputs": [
        {
          "internalType": "address",
          "name": "account",
          "type": "address"
        }
      ],
      "name": "isSigner",
      "outputs": [
        {
          "internalType": "bool",
          "name": "",
          "type": "bool"
        }
      ],
      "stateMutability": "view",
      "type": "function"
    },
    {
      "inputs": [],
      "name": "owner",
      "outputs": [
        {
          "internalType": "address",
          "name": "",
          "type": "address"
        }
      ],
      "stateMutability": "view",
      "type": "function"
    },
    {
      "inputs": [
        {
          "internalType": "address",
          "name": "asset",
          "type": "address"
        }
      ],
      "name": "reactivateAsset",
      "outputs": [],
      "stateMutability": "nonpayable",
      "type": "function"
    },
    {
      "inputs": [
        {
          "internalType": "contract IRemovableEntity",
          "name": "entity",
          "type": "address"
        }
      ],
      "name": "reactivateEntity",
      "outputs": [],
      "stateMutability": "nonpayable",
      "type": "function"
    },
    {
      "inputs": [
        {
          "components": [
            {
              "internalType": "address",
              "name": "issuer",
              "type": "address"
            },
            {
              "internalType": "address",
              "name": "originAddress",
              "type": "address"
            },
            {
              "internalType": "uint256",
              "name": "originChainId",
              "type": "uint256"
            },
            {
              "internalType": "string",
              "name": "name",
              "type": "string"
            },
            {
              "internalType": "string",
              "name": "symbol",
              "type": "string"
            },
            {
              "internalType": "bytes",
              "name": "initData",
              "type": "bytes"
            }
          ],
          "internalType": "struct CreateAssetArgs",
          "name": "args",
          "type": "tuple"
        }
      ],
      "name": "registerAsset",
      "outputs": [
        {
          "internalType": "address",
          "name": "asset",
          "type": "address"
        }
      ],
      "stateMutability": "nonpayable",
      "type": "function"
    },
    {
      "inputs": [
        {
          "internalType": "address",
          "name": "asset",
          "type": "address"
        },
        {
          "internalType": "string",
          "name": "reason",
          "type": "string"
        }
      ],
      "name": "removeAsset",
      "outputs": [],
      "stateMutability": "nonpayable",
      "type": "function"
    },
    {
      "inputs": [
        {
          "internalType": "contract IRemovableEntity",
          "name": "entity",
          "type": "address"
        },
        {
          "internalType": "string",
          "name": "reason",
          "type": "string"
        }
      ],
      "name": "removeEntity",
      "outputs": [],
      "stateMutability": "nonpayable",
      "type": "function"
    },
    {
      "inputs": [
        {
          "internalType": "address[]",
          "name": "signers",
          "type": "address[]"
        }
      ],
      "name": "removeSigners",
      "outputs": [],
      "stateMutability": "nonpayable",
      "type": "function"
    },
    {
      "inputs": [
        {
          "internalType": "address",
          "name": "addr",
          "type": "address"
        }
      ],
      "name": "renewEntity",
      "outputs": [],
      "stateMutability": "payable",
      "type": "function"
    },
    {
      "inputs": [
        {
          "internalType": "bytes32",
          "name": "role",
          "type": "bytes32"
        },
        {
          "internalType": "address",
          "name": "account",
          "type": "address"
        }
      ],
      "name": "revokeRole",
      "outputs": [],
      "stateMutability": "nonpayable",
      "type": "function"
    },
    {
      "inputs": [
        {
          "internalType": "address",
          "name": "_entityImplementation",
          "type": "address"
        }
      ],
      "name": "setEntityImplementation",
      "outputs": [],
      "stateMutability": "nonpayable",
      "type": "function"
    },
    {
      "inputs": [
        {
          "internalType": "address",
          "name": "_proxyImplementation",
          "type": "address"
        }
      ],
      "name": "setProxyImplementation",
      "outputs": [],
      "stateMutability": "nonpayable",
      "type": "function"
    },
    {
      "inputs": [
        {
          "internalType": "bytes",
          "name": "initData",
          "type": "bytes"
        }
      ],
      "name": "upgradeEntity",
      "outputs": [],
      "stateMutability": "nonpayable",
      "type": "function"
    },
    {
      "inputs": [],
      "name": "version",
      "outputs": [
        {
          "components": [
            {
              "internalType": "uint16",
              "name": "major",
              "type": "uint16"
            },
            {
              "internalType": "uint16",
              "name": "minor",
              "type": "uint16"
            }
          ],
          "internalType": "struct Version",
          "name": "",
          "type": "tuple"
        }
      ],
      "stateMutability": "pure",
      "type": "function"
    }
  ],
  "bytecode": "0x608060405234801561001057600080fd5b5060016000556132c9806100256000396000f3fe6080604052600436106102255760003560e01c806390e4b72011610123578063c3c5a547116100ab578063e2482bf91161006f578063e2482bf914610684578063e8906a2d146106a4578063ec5f5636146106c4578063f82e2fb3146106e4578063f901dc331461071157600080fd5b8063c3c5a547146105f1578063c625e0ad14610611578063cdbe221114610631578063d547741f14610651578063d6fbe0201461067157600080fd5b8063a6f9dae1116100f2578063a6f9dae114610551578063a8c88c1714610571578063af08d53d14610591578063b6db923d146105b1578063ba2eb541146105d157600080fd5b806390e4b720146104dc57806391d14854146104f1578063936079de146105115780639fdcd3a41461053157600080fd5b80634d4965f3116101b1578063689c48f011610175578063689c48f014610452578063693c79b2146104675780637df73e27146104875780638d361e43146104a75780638da5cb5b146104c757600080fd5b80634d4965f3146103795780634ec70a481461039957806354fd4d50146103c75780635726c94e1461041d5780635e0409621461043d57600080fd5b80632f2ff15d116101f85780632f2ff15d146102c157806336ba8acc146102e15780633e88a4e2146103015780633fe7fd92146103395780634ae134cc1461035957600080fd5b806301f242301461022a578063033a5b601461024c5780630fd020dd1461026c57806324d7806c1461028c575b600080fd5b34801561023657600080fd5b5061024a610245366004612aa8565b610731565b005b34801561025857600080fd5b5061024a610267366004612b0e565b6107a0565b34801561027857600080fd5b5061024a610287366004612b63565b610937565b34801561029857600080fd5b506102ac6102a7366004612aa8565b610b79565b60405190151581526020015b60405180910390f35b3480156102cd57600080fd5b5061024a6102dc366004612ba5565b610bff565b3480156102ed57600080fd5b5061024a6102fc366004612aa8565b610d05565b34801561030d57600080fd5b5061032161031c366004612b63565b610e25565b6040516001600160a01b0390911681526020016102b8565b34801561034557600080fd5b506102ac610354366004612bd5565b610ea9565b34801561036557600080fd5b5061024a610374366004612aa8565b610eb5565b34801561038557600080fd5b5061024a610394366004612c19565b610ef5565b3480156103a557600080fd5b506103b96103b4366004612aa8565b611089565b6040519081526020016102b8565b3480156103d357600080fd5b5060408051808201825260008082526020918201819052825180840190935260018352908201525b60408051825161ffff90811682526020938401511692810192909252016102b8565b34801561042957600080fd5b506103b9610438366004612aa8565b611109565b34801561044957600080fd5b506103fb61114c565b34801561045e57600080fd5b506103216111d1565b34801561047357600080fd5b5061024a610482366004612aa8565b611240565b34801561049357600080fd5b506102ac6104a2366004612aa8565b61139b565b3480156104b357600080fd5b5061024a6104c2366004612c56565b6113de565b3480156104d357600080fd5b506103216114a6565b3480156104e857600080fd5b506103216114b0565b3480156104fd57600080fd5b506102ac61050c366004612ba5565b6114fb565b34801561051d57600080fd5b5061032161052c366004612c19565b611581565b34801561053d57600080fd5b5061024a61054c366004612aa8565b611ae4565b34801561055d57600080fd5b5061024a61056c366004612aa8565b611bb3565b34801561057d57600080fd5b506102ac61058c366004612aa8565b611c52565b34801561059d57600080fd5b5061024a6105ac366004612b0e565b611c95565b3480156105bd57600080fd5b506102ac6105cc366004612aa8565b611deb565b3480156105dd57600080fd5b506102ac6105ec366004612aa8565b611e2e565b3480156105fd57600080fd5b506102ac61060c366004612aa8565b611e71565b34801561061d57600080fd5b5061024a61062c366004612b63565b611eb4565b34801561063d57600080fd5b5061024a61064c366004612aa8565b6120e0565b34801561065d57600080fd5b5061024a61066c366004612ba5565b6121af565b61024a61067f366004612aa8565b612285565b34801561069057600080fd5b506102ac61069f366004612aa8565b6122c5565b3480156106b057600080fd5b5061024a6106bf366004612c56565b612308565b3480156106d057600080fd5b5061024a6106df366004612b0e565b6123d0565b3480156106f057600080fd5b506107046106ff366004612aa8565b6124f6565b6040516102b89190612ccb565b34801561071d57600080fd5b5061024a61072c366004612b0e565b61258b565b604051630a53217360e11b81526001600160a01b038216600482015273__$1822254560a4f971c7e72253c3a08363e7$__906314a642e6906024015b60006040518083038186803b15801561078557600080fd5b505af4158015610799573d6000803e3d6000fd5b5050505050565b826000819050336001600160a01b0316816001600160a01b03166369bd91946040518163ffffffff1660e01b8152600401602060405180830381865afa1580156107ee573d6000803e3d6000fd5b505050506040513d601f19601f820116820180604052508101906108129190612cf5565b6001600160a01b0316146108415760405162461bcd60e51b815260040161083890612d12565b60405180910390fd5b6000339050806001600160a01b0316634f05c1c86040518163ffffffff1660e01b8152600401602060405180830381865afa158015610884573d6000803e3d6000fd5b505050506040513d601f19601f820116820180604052508101906108a89190612d6f565b6108c45760405162461bcd60e51b815260040161083890612d91565b60405163ede71a1760e01b815273__$1822254560a4f971c7e72253c3a08363e7$__9063ede71a17906108ff90899089908990600401612e05565b60006040518083038186803b15801561091757600080fd5b505af415801561092b573d6000803e3d6000fd5b50505050505050505050565b61094033611e71565b61095c5760405162461bcd60e51b815260040161083890612e33565b610964612671565b61096c61273b565b60003390506000816001600160a01b0316630d8e6e2c6040518163ffffffff1660e01b81526004016040805180830381865afa1580156109b0573d6000803e3d6000fd5b505050506040513d601f19601f820116820180604052508101906109d49190612e85565b905060006109e0612765565b60408051808201909152600282015461ffff808216835262010000909104166020820152909150610a129083906127fb565b610a7c5760405162461bcd60e51b815260206004820152603560248201527f52656769737472793a20656e746974792076657273696f6e206973206c657373604482015274207468616e2063757272656e7420616c726561647960581b6064820152608401610838565b8054604051636bc26a1360e11b81526001600160a01b039091166004820152339063d784d42690602401600060405180830381600087803b158015610ac057600080fd5b505af1158015610ad4573d6000803e3d6000fd5b505060405163e20eea0f60e01b815233925063e20eea0f9150610afd9088908890600401612ef2565b600060405180830381600087803b158015610b1757600080fd5b505af1158015610b2b573d6000803e3d6000fd5b505082546040516001600160a01b0390911692503391507fd25150b43a5956fbd806981bc1261635722b4703fdcb605cb574703ad24563bf90600090a3505050610b756001600055565b5050565b604051630935e01b60e21b81526001600160a01b038216600482015260009073__$a5a42e46683ad9c79b7b86d5ff60fdf4c1$__906324d7806c906024015b602060405180830381865af4158015610bd5573d6000803e3d6000fd5b505050506040513d601f19601f82011682018060405250810190610bf99190612d6f565b92915050565b604051630935e01b60e21b815233600482015273__$a5a42e46683ad9c79b7b86d5ff60fdf4c1$__906324d7806c90602401602060405180830381865af4158015610c4e573d6000803e3d6000fd5b505050506040513d601f19601f82011682018060405250810190610c729190612d6f565b610c8e5760405162461bcd60e51b815260040161083890612f06565b604051632f2ff15d60e01b8152600481018390526001600160a01b038216602482015273__$a5a42e46683ad9c79b7b86d5ff60fdf4c1$__90632f2ff15d906044015b60006040518083038186803b158015610ce957600080fd5b505af4158015610cfd573d6000803e3d6000fd5b505050505050565b80610d0f33610b79565b80610d8c5750336001600160a01b0316816001600160a01b0316631d1438486040518163ffffffff1660e01b8152600401602060405180830381865afa158015610d5d573d6000803e3d6000fd5b505050506040513d601f19601f82011682018060405250810190610d819190612cf5565b6001600160a01b0316145b610da85760405162461bcd60e51b815260040161083890612f3b565b610db061273b565b60405163699f380760e11b81526001600160a01b038316600482015273__$1822254560a4f971c7e72253c3a08363e7$__9063d33e700e9060240160006040518083038186803b158015610e0357600080fd5b505af4158015610e17573d6000803e3d6000fd5b50505050610b756001600055565b604051631f44527160e11b815260009073__$d81eab81c4f96e94de97b51155a369ac43$__90633e88a4e290610e619086908690600401612ef2565b602060405180830381865af4158015610e7e573d6000803e3d6000fd5b505050506040513d601f19601f82011682018060405250810190610ea29190612cf5565b9392505050565b6000610ea2838361284c565b6040516347ef542760e01b81526001600160a01b038216600482015273__$1822254560a4f971c7e72253c3a08363e7$__906347ef54279060240161076d565b610f026020820182612aa8565b6000819050336001600160a01b0316816001600160a01b03166369bd91946040518163ffffffff1660e01b8152600401602060405180830381865afa158015610f4f573d6000803e3d6000fd5b505050506040513d601f19601f82011682018060405250810190610f739190612cf5565b6001600160a01b031614610f995760405162461bcd60e51b815260040161083890612d12565b6000339050806001600160a01b0316634f05c1c86040518163ffffffff1660e01b8152600401602060405180830381865afa158015610fdc573d6000803e3d6000fd5b505050506040513d601f19601f820116820180604052508101906110009190612d6f565b61101c5760405162461bcd60e51b815260040161083890612d91565b604051630bca13f760e41b815273__$d81eab81c4f96e94de97b51155a369ac43$__9063bca13f7090611053908790600401612fa5565b60006040518083038186803b15801561106b57600080fd5b505af415801561107f573d6000803e3d6000fd5b5050505050505050565b6040516309d8e14960e31b81526001600160a01b038216600482015260009073__$1822254560a4f971c7e72253c3a08363e7$__90634ec70a48906024015b602060405180830381865af41580156110e5573d6000803e3d6000fd5b505050506040513d601f19601f82011682018060405250810190610bf9919061303c565b604051632b9364a760e11b81526001600160a01b038216600482015260009073__$1822254560a4f971c7e72253c3a08363e7$__90635726c94e906024016110c8565b604080518082019091526000808252602082015273__$e1fef5d4b1bfc4a605b7eb127c84f71416$__635e0409626040518163ffffffff1660e01b81526004016040805180830381865af41580156111a8573d6000803e3d6000fd5b505050506040513d601f19601f820116820180604052508101906111cc9190612e85565b905090565b600073__$e1fef5d4b1bfc4a605b7eb127c84f71416$__63689c48f06040518163ffffffff1660e01b8152600401602060405180830381865af415801561121c573d6000803e3d6000fd5b505050506040513d601f19601f820116820180604052508101906111cc9190612cf5565b806000819050336001600160a01b0316816001600160a01b03166369bd91946040518163ffffffff1660e01b8152600401602060405180830381865afa15801561128e573d6000803e3d6000fd5b505050506040513d601f19601f820116820180604052508101906112b29190612cf5565b6001600160a01b0316146112d85760405162461bcd60e51b815260040161083890612d12565b6000339050806001600160a01b0316634f05c1c86040518163ffffffff1660e01b8152600401602060405180830381865afa15801561131b573d6000803e3d6000fd5b505050506040513d601f19601f8201168201806040525081019061133f9190612d6f565b61135b5760405162461bcd60e51b815260040161083890612d91565b60405163699f380760e11b81526001600160a01b038516600482015273__$1822254560a4f971c7e72253c3a08363e7$__9063d33e700e90602401611053565b604051637df73e2760e01b81526001600160a01b038216600482015260009073__$a5a42e46683ad9c79b7b86d5ff60fdf4c1$__90637df73e2790602401610bb8565b604051630935e01b60e21b815233600482015273__$a5a42e46683ad9c79b7b86d5ff60fdf4c1$__906324d7806c90602401602060405180830381865af415801561142d573d6000803e3d6000fd5b505050506040513d601f19601f820116820180604052508101906114519190612d6f565b61146d5760405162461bcd60e51b815260040161083890612f06565b604051638d361e4360e01b815273__$a5a42e46683ad9c79b7b86d5ff60fdf4c1$__90638d361e4390610cd19085908590600401613055565b60006111cc6128ae565b600073__$e1fef5d4b1bfc4a605b7eb127c84f71416$__6390e4b7206040518163ffffffff1660e01b8152600401602060405180830381865af415801561121c573d6000803e3d6000fd5b604051632474521560e21b8152600481018390526001600160a01b038216602482015260009073__$a5a42e46683ad9c79b7b86d5ff60fdf4c1$__906391d1485490604401602060405180830381865af415801561155d573d6000803e3d6000fd5b505050506040513d601f19601f82011682018060405250810190610ea29190612d6f565b604051630935e01b60e21b815233600482015260009073__$a5a42e46683ad9c79b7b86d5ff60fdf4c1$__906324d7806c90602401602060405180830381865af41580156115d3573d6000803e3d6000fd5b505050506040513d601f19601f820116820180604052508101906115f79190612d6f565b6116135760405162461bcd60e51b815260040161083890612f06565b61161b61273b565b6000611625612765565b905061164461163a6040850160208601612aa8565b8460400135610ea9565b156116a15760405162461bcd60e51b815260206004820152602760248201527f42617365417373657452656769737472793a20617373657420616c72656164796044820152662065786973747360c81b6064820152608401610838565b60018101546001600160a01b03166117135760405162461bcd60e51b815260206004820152602f60248201527f42617365417373657452656769737472793a2070726f787920696d706c656d6560448201526e1b9d185d1a5bdb881b9bdd081cd95d608a1b6064820152608401610838565b80546001600160a01b03166117835760405162461bcd60e51b815260206004820152603060248201527f42617365417373657452656769737472793a20656e7469747920696d706c656d60448201526f195b9d185d1a5bdb881b9bdd081cd95d60821b6064820152608401610838565b600181015460009061179d906001600160a01b03166128c9565b90506001600160a01b0381166118055760405162461bcd60e51b815260206004820152602760248201527f42617365417373657452656769737472793a2070726f787920636c6f6e696e676044820152660819985a5b195960ca1b6064820152608401610838565b8154604051636bc26a1360e11b81526001600160a01b0391821660048201529082169063d784d42690602401600060405180830381600087803b15801561184b57600080fd5b505af115801561185f573d6000803e3d6000fd5b5050505060006040518060c0016040528086806060019061188091906130a3565b8080601f0160208091040260200160405190810160405280939291908181526020018383808284376000920191909152505050908252506020016118c760808801886130a3565b8080601f01602080910402602001604051908101604052809392919081815260200183838082843760009201919091525050509082525060209081019061191090880188612aa8565b6001600160a01b031681526020018660200160208101906119319190612aa8565b6001600160a01b0316815260408088013560208301520161195560a08801886130a3565b8080601f0160208091040260200160405190810160405280939291908181526020018383808284376000920191909152505050915250604051626c7e8560e01b81529091506001600160a01b03831690626c7e85906119b8908490600401613130565b600060405180830381600087803b1580156119d257600080fd5b505af11580156119e6573d6000803e3d6000fd5b5050604080516060810182526000808252601e60208084019190915292820152925073__$d81eab81c4f96e94de97b51155a369ac43$__9150631a4647df908590611a33908a018a612aa8565b846040518463ffffffff1660e01b8152600401611a52939291906131b5565b60006040518083038186803b158015611a6a57600080fd5b505af4158015611a7e573d6000803e3d6000fd5b50611a90925050506020870187612aa8565b6001600160a01b0316836001600160a01b03167f7377123f9eb561d749cd3a89a83c22035cad6473521acbb981ee1c52d8f0248560405160405180910390a3509092505050611adf6001600055565b919050565b604051630935e01b60e21b815233600482015273__$a5a42e46683ad9c79b7b86d5ff60fdf4c1$__906324d7806c90602401602060405180830381865af4158015611b33573d6000803e3d6000fd5b505050506040513d601f19601f82011682018060405250810190611b579190612d6f565b611b735760405162461bcd60e51b815260040161083890612f06565b6040516327f734e960e21b81526001600160a01b038216600482015273__$e1fef5d4b1bfc4a605b7eb127c84f71416$__90639fdcd3a49060240161076d565b33611bbc6128ae565b6001600160a01b031614611c125760405162461bcd60e51b815260206004820152601f60248201527f426173654163636573733a207265737472696374656420746f206f776e6572006044820152606401610838565b6040516313af403560e01b81526001600160a01b038216600482015273__$a5a42e46683ad9c79b7b86d5ff60fdf4c1$__906313af40359060240161076d565b60405163a8c88c1760e01b81526001600160a01b038216600482015260009073__$1822254560a4f971c7e72253c3a08363e7$__9063a8c88c1790602401610bb8565b826000819050336001600160a01b0316816001600160a01b03166369bd91946040518163ffffffff1660e01b8152600401602060405180830381865afa158015611ce3573d6000803e3d6000fd5b505050506040513d601f19601f82011682018060405250810190611d079190612cf5565b6001600160a01b031614611d2d5760405162461bcd60e51b815260040161083890612d12565b6000339050806001600160a01b0316634f05c1c86040518163ffffffff1660e01b8152600401602060405180830381865afa158015611d70573d6000803e3d6000fd5b505050506040513d601f19601f82011682018060405250810190611d949190612d6f565b611db05760405162461bcd60e51b815260040161083890612d91565b604051633f111a5d60e21b815273__$1822254560a4f971c7e72253c3a08363e7$__9063fc446974906108ff90899089908990600401612e05565b60405163b6db923d60e01b81526001600160a01b038216600482015260009073__$1822254560a4f971c7e72253c3a08363e7$__9063b6db923d90602401610bb8565b60405163ba2eb54160e01b81526001600160a01b038216600482015260009073__$1822254560a4f971c7e72253c3a08363e7$__9063ba2eb54190602401610bb8565b60405163c3c5a54760e01b81526001600160a01b038216600482015260009073__$d81eab81c4f96e94de97b51155a369ac43$__9063c3c5a54790602401610bb8565b611ebd33611e71565b611ed95760405162461bcd60e51b815260040161083890612e33565b611ee1612671565b611ee961273b565b60003390506000816001600160a01b0316630d8e6e2c6040518163ffffffff1660e01b81526004016040805180830381865afa158015611f2d573d6000803e3d6000fd5b505050506040513d601f19601f82011682018060405250810190611f519190612e85565b90506000611f5d612765565b60408051808201909152600282015461ffff808216835262010000909104166020820152909150611f8f90839061298a565b611fe75760405162461bcd60e51b815260206004820152602360248201527f52656769737472793a20656e7469747920686173206c6174657374207665727360448201526234b7b760e91b6064820152608401610838565b8054604051636bc26a1360e11b81526001600160a01b039091166004820152339063d784d42690602401600060405180830381600087803b15801561202b57600080fd5b505af115801561203f573d6000803e3d6000fd5b505060405163e20eea0f60e01b815233925063e20eea0f91506120689088908890600401612ef2565b600060405180830381600087803b15801561208257600080fd5b505af1158015612096573d6000803e3d6000fd5b505082546040516001600160a01b0390911692503391507f066b0f46be3664c84e5e14bc4d9fb9be906d657f27b0c8ee4b962ad1530d3f4090600090a3505050610b756001600055565b604051630935e01b60e21b815233600482015273__$a5a42e46683ad9c79b7b86d5ff60fdf4c1$__906324d7806c90602401602060405180830381865af415801561212f573d6000803e3d6000fd5b505050506040513d601f19601f820116820180604052508101906121539190612d6f565b61216f5760405162461bcd60e51b815260040161083890612f06565b60405163cdbe221160e01b81526001600160a01b038216600482015273__$e1fef5d4b1bfc4a605b7eb127c84f71416$__9063cdbe22119060240161076d565b604051630935e01b60e21b815233600482015273__$a5a42e46683ad9c79b7b86d5ff60fdf4c1$__906324d7806c90602401602060405180830381865af41580156121fe573d6000803e3d6000fd5b505050506040513d601f19601f820116820180604052508101906122229190612d6f565b61223e5760405162461bcd60e51b815260040161083890612f06565b60405163d547741f60e01b8152600481018390526001600160a01b038216602482015273__$a5a42e46683ad9c79b7b86d5ff60fdf4c1$__9063d547741f90604401610cd1565b6040516306b7df0160e51b81526001600160a01b038216600482015273__$1822254560a4f971c7e72253c3a08363e7$__9063d6fbe0209060240161076d565b60405163e2482bf960e01b81526001600160a01b038216600482015260009073__$1822254560a4f971c7e72253c3a08363e7$__9063e2482bf990602401610bb8565b604051630935e01b60e21b815233600482015273__$a5a42e46683ad9c79b7b86d5ff60fdf4c1$__906324d7806c90602401602060405180830381865af4158015612357573d6000803e3d6000fd5b505050506040513d601f19601f8201168201806040525081019061237b9190612d6f565b6123975760405162461bcd60e51b815260040161083890612f06565b60405163e8906a2d60e01b815273__$a5a42e46683ad9c79b7b86d5ff60fdf4c1$__9063e8906a2d90610cd19085908590600401613055565b826123da33610b79565b806124575750336001600160a01b0316816001600160a01b0316631d1438486040518163ffffffff1660e01b8152600401602060405180830381865afa158015612428573d6000803e3d6000fd5b505050506040513d601f19601f8201168201806040525081019061244c9190612cf5565b6001600160a01b0316145b6124735760405162461bcd60e51b815260040161083890612f3b565b61247b61273b565b60405163ede71a1760e01b815273__$1822254560a4f971c7e72253c3a08363e7$__9063ede71a17906124b690879087908790600401612e05565b60006040518083038186803b1580156124ce57600080fd5b505af41580156124e2573d6000803e3d6000fd5b505050506124f06001600055565b50505050565b6040805160608101825260008082526020820181905281830152905163f82e2fb360e01b81526001600160a01b038316600482015273__$1822254560a4f971c7e72253c3a08363e7$__9063f82e2fb390602401606060405180830381865af4158015612567573d6000803e3d6000fd5b505050506040513d601f19601f82011682018060405250810190610bf991906131f9565b8261259533610b79565b806126125750336001600160a01b0316816001600160a01b0316631d1438486040518163ffffffff1660e01b8152600401602060405180830381865afa1580156125e3573d6000803e3d6000fd5b505050506040513d601f19601f820116820180604052508101906126079190612cf5565b6001600160a01b0316145b61262e5760405162461bcd60e51b815260040161083890612f3b565b61263661273b565b604051633f111a5d60e21b815273__$1822254560a4f971c7e72253c3a08363e7$__9063fc446974906124b690879087908790600401612e05565b6000339050806001600160a01b03166386b70bed6040518163ffffffff1660e01b8152600401602060405180830381865afa1580156126b4573d6000803e3d6000fd5b505050506040513d601f19601f820116820180604052508101906126d89190612d6f565b6127385760405162461bcd60e51b815260206004820152602b60248201527f4261736552656d6f7661626c6552656769737472793a20656e7469747920697360448201526a206e6f742061637469766560a81b6064820152608401610838565b50565b60026000540361275e57604051633ee5aeb560e01b815260040160405180910390fd5b6002600055565b60408051808201909152601c81527f78722e656e746974792e666163746f72792e73746f726167652e76310000000060209091015260008060ff6127ca60017f8b4ac7cd4466ab0d50fe53a88c5446ca4a450d482bef9ad792e7d9f451497e0f613272565b6040516020016127dc91815260200190565b60408051601f1981840301815291905280516020909101201692915050565b8051825160009161ffff9081169116111561281857506001610bf9565b8151835161ffff91821691160361284357816020015161ffff16836020015161ffff16119050610bf9565b50600092915050565b6000806128576129d2565b604080516001600160a01b038716602082015290810185905260009060600160408051808303601f19018152918152815160209283012083529082019290925201600020546001600160a01b031614159392505050565b6000806128b9612a37565b546001600160a01b031692915050565b60006001600160a01b0382166129395760405162461bcd60e51b815260206004820152602f60248201527f4c6962436c6f6e653a20696d706c656d656e746174696f6e2063616e6e6f742060448201526e6265207a65726f206164647265737360881b6064820152608401610838565b60008260601b9050604051733d602d80600a3d3981f3363d3d373d3d3d363d7360601b81528160148201526e5af43d82803e903d91602b57fd5bf360881b60288201526037816000f0949350505050565b8051825160009161ffff908116911610156129a757506001610bf9565b8151835161ffff91821691160361284357816020015161ffff16836020015161ffff16109050610bf9565b60408051808201909152601c81527f78722e61737365742e72656769737472792e73746f726167652e76310000000060209091015260008060ff6127ca60017fbd2c19183c4ba9a1559943665cceb499cb872252ed14ead4021247e432f4a035613272565b60408051808201909152601481527378722e6163636573732e73746f726167652e763160601b60209091015260008060ff6127ca60017fd870894b15ee1369a593f3670ac51c4ed8201dab473944ee712694d327dd5875613272565b6001600160a01b038116811461273857600080fd5b600060208284031215612aba57600080fd5b8135610ea281612a93565b60008083601f840112612ad757600080fd5b50813567ffffffffffffffff811115612aef57600080fd5b602083019150836020828501011115612b0757600080fd5b9250929050565b600080600060408486031215612b2357600080fd5b8335612b2e81612a93565b9250602084013567ffffffffffffffff811115612b4a57600080fd5b612b5686828701612ac5565b9497909650939450505050565b60008060208385031215612b7657600080fd5b823567ffffffffffffffff811115612b8d57600080fd5b612b9985828601612ac5565b90969095509350505050565b60008060408385031215612bb857600080fd5b823591506020830135612bca81612a93565b809150509250929050565b60008060408385031215612be857600080fd5b8235612bf381612a93565b946020939093013593505050565b600060c08284031215612c1357600080fd5b50919050565b600060208284031215612c2b57600080fd5b813567ffffffffffffffff811115612c4257600080fd5b612c4e84828501612c01565b949350505050565b60008060208385031215612c6957600080fd5b823567ffffffffffffffff80821115612c8157600080fd5b818501915085601f830112612c9557600080fd5b813581811115612ca457600080fd5b8660208260051b8501011115612cb957600080fd5b60209290920196919550909350505050565b815161ffff9081168252602080840151909116908201526040808301519082015260608101610bf9565b600060208284031215612d0757600080fd5b8151610ea281612a93565b6020808252603d908201527f4261736552656d6f7661626c6552656769737472793a2063616c6c657220697360408201527f206e6f742074686520656e746974792773207465726d73206f776e6572000000606082015260800190565b600060208284031215612d8157600080fd5b81518015158114610ea257600080fd5b6020808252602b908201527f4261736552656d6f7661626c6552656769737472793a2063616c6c657220697360408201526a206e6f742061637469766560a81b606082015260800190565b81835281816020850137506000828201602090810191909152601f909101601f19169091010190565b6001600160a01b0384168152604060208201819052600090612e2a9083018486612ddc565b95945050505050565b60208082526022908201527f52656769737472793a20656e74697479206973206e6f74207265676973746572604082015261195960f21b606082015260800190565b61ffff8116811461273857600080fd5b600060408284031215612e9757600080fd5b6040516040810181811067ffffffffffffffff82111715612ec857634e487b7160e01b600052604160045260246000fd5b6040528251612ed681612e75565b81526020830151612ee681612e75565b60208201529392505050565b602081526000612c4e602083018486612ddc565b6020808252818101527f426173654163636573733a207265737472696374656420746f2061646d696e73604082015260600190565b6020808252601f908201527f42617365417373657452656769737472793a20756e617574686f72697a656400604082015260600190565b8035612f7d81612e75565b61ffff9081168352602082013590612f9482612e75565b166020830152604090810135910152565b6020815260008235612fb681612a93565b6001600160a01b031660208381019190915283013536849003601e19018112612fde57600080fd5b830160208101903567ffffffffffffffff811115612ffb57600080fd5b80360382131561300a57600080fd5b60c0604085015261301f60e085018284612ddc565b91505060408401356060840152610ea26080840160608601612f72565b60006020828403121561304e57600080fd5b5051919050565b60208082528181018390526000908460408401835b8681101561309857823561307d81612a93565b6001600160a01b03168252918301919083019060010161306a565b509695505050505050565b6000808335601e198436030181126130ba57600080fd5b83018035915067ffffffffffffffff8211156130d557600080fd5b602001915036819003821315612b0757600080fd5b6000815180845260005b81811015613110576020818501810151868301820152016130f4565b506000602082860101526020601f19601f83011685010191505092915050565b602081526000825160c0602084015261314c60e08401826130ea565b90506020840151601f198085840301604086015261316a83836130ea565b92506040860151915060018060a01b03808316606087015280606088015116608087015250608086015160a086015260a08601519150808584030160c086015250612e2a82826130ea565b6001600160a01b0384811682528316602082015260a08101612c4e604083018461ffff80825116835280602083015116602084015250604081015160408301525050565b60006060828403121561320b57600080fd5b6040516060810181811067ffffffffffffffff8211171561323c57634e487b7160e01b600052604160045260246000fd5b604052825161324a81612e75565b8152602083015161325a81612e75565b60208201526040928301519281019290925250919050565b81810381811115610bf957634e487b7160e01b600052601160045260246000fdfea2646970667358221220b05cc3928eb3beb8659b3c5986feb353285a3532e5b088634ddb4fe6e5958dfc64736f6c63430008180033",
  "linkReferences": {
    "contracts/libraries/LibAccess.sol": {
      "LibAccess": [
        {
          "length": 20,
          "start": 3007
        },
        {
          "length": 20,
          "start": 3129
        },
        {
          "length": 20,
          "start": 3288
        },
        {
          "length": 20,
          "start": 5089
        },
        {
          "length": 20,
          "start": 5144
        },
        {
          "length": 20,
          "start": 5281
        },
        {
          "length": 20,
          "start": 5448
        },
        {
          "length": 20,
          "start": 5566
        },
        {
          "length": 20,
          "start": 6942
        },
        {
          "length": 20,
          "start": 7253
        },
        {
          "length": 20,
          "start": 8474
        },
        {
          "length": 20,
          "start": 8681
        },
        {
          "length": 20,
          "start": 8840
        },
        {
          "length": 20,
          "start": 9026
        },
        {
          "length": 20,
          "start": 9163
        }
      ]
    },
    "contracts/libraries/LibEntityRemoval.sol": {
      "LibEntityRemoval": [
        {
          "length": 20,
          "start": 1908
        },
        {
          "length": 20,
          "start": 2296
        },
        {
          "length": 20,
          "start": 3571
        },
        {
          "length": 20,
          "start": 3832
        },
        {
          "length": 20,
          "start": 4303
        },
        {
          "length": 20,
          "start": 4431
        },
        {
          "length": 20,
          "start": 5022
        },
        {
          "length": 20,
          "start": 7320
        },
        {
          "length": 20,
          "start": 7652
        },
        {
          "length": 20,
          "start": 7729
        },
        {
          "length": 20,
          "start": 7796
        },
        {
          "length": 20,
          "start": 8904
        },
        {
          "length": 20,
          "start": 8971
        },
        {
          "length": 20,
          "start": 9391
        },
        {
          "length": 20,
          "start": 9554
        },
        {
          "length": 20,
          "start": 9834
        }
      ]
    },
    "contracts/libraries/LibFactory.sol": {
      "LibFactory": [
        {
          "length": 20,
          "start": 4487
        },
        {
          "length": 20,
          "start": 4602
        },
        {
          "length": 20,
          "start": 5337
        },
        {
          "length": 20,
          "start": 7094
        },
        {
          "length": 20,
          "start": 8626
        }
      ]
    },
    "contracts/libraries/LibRegistration.sol": {
      "LibRegistration": [
        {
          "length": 20,
          "start": 3676
        },
        {
          "length": 20,
          "start": 4176
        },
        {
          "length": 20,
          "start": 6703
        },
        {
          "length": 20,
          "start": 7863
        }
      ]
    }
  },
  "deployedLinkReferences": {
    "contracts/libraries/LibAccess.sol": {
      "LibAccess": [
        {
          "length": 20,
          "start": 2970
        },
        {
          "length": 20,
          "start": 3092
        },
        {
          "length": 20,
          "start": 3251
        },
        {
          "length": 20,
          "start": 5052
        },
        {
          "length": 20,
          "start": 5107
        },
        {
          "length": 20,
          "start": 5244
        },
        {
          "length": 20,
          "start": 5411
        },
        {
          "length": 20,
          "start": 5529
        },
        {
          "length": 20,
          "start": 6905
        },
        {
          "length": 20,
          "start": 7216
        },
        {
          "length": 20,
          "start": 8437
        },
        {
          "length": 20,
          "start": 8644
        },
        {
          "length": 20,
          "start": 8803
        },
        {
          "length": 20,
          "start": 8989
        },
        {
          "length": 20,
          "start": 9126
        }
      ]
    },
    "contracts/libraries/LibEntityRemoval.sol": {
      "LibEntityRemoval": [
        {
          "length": 20,
          "start": 1871
        },
        {
          "length": 20,
          "start": 2259
        },
        {
          "length": 20,
          "start": 3534
        },
        {
          "length": 20,
          "start": 3795
        },
        {
          "length": 20,
          "start": 4266
        },
        {
          "length": 20,
          "start": 4394
        },
        {
          "length": 20,
          "start": 4985
        },
        {
          "length": 20,
          "start": 7283
        },
        {
          "length": 20,
          "start": 7615
        },
        {
          "length": 20,
          "start": 7692
        },
        {
          "length": 20,
          "start": 7759
        },
        {
          "length": 20,
          "start": 8867
        },
        {
          "length": 20,
          "start": 8934
        },
        {
          "length": 20,
          "start": 9354
        },
        {
          "length": 20,
          "start": 9517
        },
        {
          "length": 20,
          "start": 9797
        }
      ]
    },
    "contracts/libraries/LibFactory.sol": {
      "LibFactory": [
        {
          "length": 20,
          "start": 4450
        },
        {
          "length": 20,
          "start": 4565
        },
        {
          "length": 20,
          "start": 5300
        },
        {
          "length": 20,
          "start": 7057
        },
        {
          "length": 20,
          "start": 8589
        }
      ]
    },
    "contracts/libraries/LibRegistration.sol": {
      "LibRegistration": [
        {
          "length": 20,
          "start": 3639
        },
        {
          "length": 20,
          "start": 4139
        },
        {
          "length": 20,
          "start": 6666
        },
        {
          "length": 20,
          "start": 7826
        }
      ]
    }
  }
}