{
  "_format": "hh-sol-artifact-1",
  "contractName": "ERC721InfoExt",
  "sourceName": "contracts/extensions/asset/erc721/ERC721InfoExt.sol",
  "abi": [
    {
      "inputs": [
        {
          "internalType": "address",
          "name": "sender",
          "type": "address"
        },
        {
          "internalType": "uint256",
          "name": "tokenId",
          "type": "uint256"
        },
        {
          "internalType": "address",
          "name": "owner",
          "type": "address"
        }
      ],
      "name": "ERC721IncorrectOwner",
      "type": "error"
    },
    {
      "inputs": [
        {
          "internalType": "address",
          "name": "operator",
          "type": "address"
        },
        {
          "internalType": "uint256",
          "name": "tokenId",
          "type": "uint256"
        }
      ],
      "name": "ERC721InsufficientApproval",
      "type": "error"
    },
    {
      "inputs": [
        {
          "internalType": "address",
          "name": "approver",
          "type": "address"
        }
      ],
      "name": "ERC721InvalidApprover",
      "type": "error"
    },
    {
      "inputs": [
        {
          "internalType": "address",
          "name": "operator",
          "type": "address"
        }
      ],
      "name": "ERC721InvalidOperator",
      "type": "error"
    },
    {
      "inputs": [
        {
          "internalType": "address",
          "name": "owner",
          "type": "address"
        }
      ],
      "name": "ERC721InvalidOwner",
      "type": "error"
    },
    {
      "inputs": [
        {
          "internalType": "address",
          "name": "receiver",
          "type": "address"
        }
      ],
      "name": "ERC721InvalidReceiver",
      "type": "error"
    },
    {
      "inputs": [
        {
          "internalType": "address",
          "name": "sender",
          "type": "address"
        }
      ],
      "name": "ERC721InvalidSender",
      "type": "error"
    },
    {
      "inputs": [
        {
          "internalType": "uint256",
          "name": "tokenId",
          "type": "uint256"
        }
      ],
      "name": "ERC721NonexistentToken",
      "type": "error"
    },
    {
      "inputs": [
        {
          "internalType": "uint256",
          "name": "value",
          "type": "uint256"
        },
        {
          "internalType": "uint256",
          "name": "length",
          "type": "uint256"
        }
      ],
      "name": "StringsInsufficientHexLength",
      "type": "error"
    },
    {
      "inputs": [
        {
          "internalType": "address",
          "name": "owner",
          "type": "address"
        }
      ],
      "name": "balanceOf",
      "outputs": [
        {
          "internalType": "uint256",
          "name": "",
          "type": "uint256"
        }
      ],
      "stateMutability": "view",
      "type": "function"
    },
    {
      "inputs": [
        {
          "internalType": "address",
          "name": "myAddress",
          "type": "address"
        }
      ],
      "name": "install",
      "outputs": [],
      "stateMutability": "nonpayable",
      "type": "function"
    },
    {
      "inputs": [],
      "name": "issuer",
      "outputs": [
        {
          "internalType": "address",
          "name": "",
          "type": "address"
        }
      ],
      "stateMutability": "view",
      "type": "function"
    },
    {
      "inputs": [],
      "name": "metadata",
      "outputs": [
        {
          "components": [
            {
              "internalType": "string",
              "name": "name",
              "type": "string"
            },
            {
              "components": [
                {
                  "internalType": "uint16",
                  "name": "major",
                  "type": "uint16"
                },
                {
                  "internalType": "uint16",
                  "name": "minor",
                  "type": "uint16"
                }
              ],
              "internalType": "struct Version",
              "name": "version",
              "type": "tuple"
            }
          ],
          "internalType": "struct ExtensionMetadata",
          "name": "",
          "type": "tuple"
        }
      ],
      "stateMutability": "pure",
      "type": "function"
    },
    {
      "inputs": [],
      "name": "name",
      "outputs": [
        {
          "internalType": "string",
          "name": "",
          "type": "string"
        }
      ],
      "stateMutability": "view",
      "type": "function"
    },
    {
      "inputs": [],
      "name": "originAddress",
      "outputs": [
        {
          "internalType": "address",
          "name": "",
          "type": "address"
        }
      ],
      "stateMutability": "view",
      "type": "function"
    },
    {
      "inputs": [],
      "name": "originChainId",
      "outputs": [
        {
          "internalType": "uint256",
          "name": "",
          "type": "uint256"
        }
      ],
      "stateMutability": "view",
      "type": "function"
    },
    {
      "inputs": [
        {
          "internalType": "uint256",
          "name": "tokenId",
          "type": "uint256"
        }
      ],
      "name": "ownerOf",
      "outputs": [
        {
          "internalType": "address",
          "name": "",
          "type": "address"
        }
      ],
      "stateMutability": "view",
      "type": "function"
    },
    {
      "inputs": [
        {
          "internalType": "bytes4",
          "name": "interfaceId",
          "type": "bytes4"
        }
      ],
      "name": "supportsInterface",
      "outputs": [
        {
          "internalType": "bool",
          "name": "",
          "type": "bool"
        }
      ],
      "stateMutability": "view",
      "type": "function"
    },
    {
      "inputs": [],
      "name": "symbol",
      "outputs": [
        {
          "internalType": "string",
          "name": "",
          "type": "string"
        }
      ],
      "stateMutability": "view",
      "type": "function"
    },
    {
      "inputs": [
        {
          "internalType": "uint256",
          "name": "tokenId",
          "type": "uint256"
        }
      ],
      "name": "tokenURI",
      "outputs": [
        {
          "internalType": "string",
          "name": "",
          "type": "string"
        }
      ],
      "stateMutability": "view",
      "type": "function"
    },
    {
      "inputs": [
        {
          "internalType": "address",
          "name": "myAddress",
          "type": "address"
        }
      ],
      "name": "upgrade",
      "outputs": [],
      "stateMutability": "nonpayable",
      "type": "function"
    }
  ],
  "bytecode": "0x608060405234801561001057600080fd5b506112c6806100206000396000f3fe608060405234801561001057600080fd5b50600436106100b45760003560e01c8063392f37e911610071578063392f37e9146101525780636352211e1461016757806370a082311461017a57806395d89b411461018d578063c87b56dd14610195578063e517fedd146101a857600080fd5b806301ffc9a7146100b957806306fdde03146100e15780630900f010146100f65780630ac7f561146101095780631d1438481461011f5780632a1b8f9b1461013f575b600080fd5b6100cc6100c7366004610f07565b6101b0565b60405190151581526020015b60405180910390f35b6100e9610202565b6040516100d89190610f81565b610107610104366004610f94565b50565b005b61011161029d565b6040519081526020016100d8565b6101276102b0565b6040516001600160a01b0390911681526020016100d8565b61010761014d366004610f94565b6102cc565b61015a6106f9565b6040516100d89190610fbd565b610127610175366004611002565b61074c565b610111610188366004610f94565b610757565b6100e96107b4565b6100e96101a3366004611002565b6107cc565b610127610834565b60006001600160e01b031982166380ac58cd60e01b14806101e157506001600160e01b03198216635b5e139f60e01b145b806101fc57506001600160e01b031982166301ffc9a760e01b145b92915050565b606061020c610853565b600401805461021a9061101b565b80601f01602080910402602001604051908101604052809291908181526020018280546102469061101b565b80156102935780601f1061026857610100808354040283529160200191610293565b820191906000526020600020905b81548152906001019060200180831161027657829003601f168201915b5050505050905090565b60006102a7610853565b60030154905090565b60006102ba610853565b600101546001600160a01b0316919050565b6040805160098082526101408201909252600091816020015b6040805180820190915260008152606060208201528152602001906001900390816102e557905050905060405180604001604052806306fdde0360e01b6001600160e01b0319168152602001604051806040016040528060068152602001656e616d65282960d01b815250815250816000815181106103665761036661106b565b602002602001018190525060405180604001604052806395d89b4160e01b6001600160e01b03191681526020016040518060400160405280600881526020016773796d626f6c282960c01b815250815250816001815181106103ca576103ca61106b565b60200260200101819052506040518060400160405280631d14384860e01b6001600160e01b031916815260200160405180604001604052806008815260200167697373756572282960c01b8152508152508160028151811061042e5761042e61106b565b6020026020010181905250604051806040016040528063e517fedd60e01b6001600160e01b03191681526020016040518060400160405280600f81526020016e6f726967696e41646472657373282960881b815250815250816003815181106104995761049961106b565b60200260200101819052506040518060400160405280630ac7f56160e01b6001600160e01b03191681526020016040518060400160405280600f81526020016e6f726967696e436861696e4964282960881b815250815250816004815181106105045761050461106b565b602002602001018190525060405180604001604052806301ffc9a760e01b6001600160e01b03191681526020016040518060400160405280601981526020017f737570706f727473496e746572666163652862797465733429000000000000008152508152508160058151811061057d5761057d61106b565b602002602001018190525060405180604001604052806370a0823160e01b6001600160e01b03191681526020016040518060400160405280601281526020017162616c616e63654f6628616464726573732960701b815250815250816006815181106105eb576105eb61106b565b60200260200101819052506040518060400160405280636352211e60e01b6001600160e01b03191681526020016040518060400160405280601081526020016f6f776e65724f662875696e743235362960801b815250815250816007815181106106575761065761106b565b6020026020010181905250604051806040016040528063c87b56dd60e01b6001600160e01b031916815260200160405180604001604052806011815260200170746f6b656e5552492875696e743235362960781b815250815250816008815181106106c4576106c461106b565b60200260200101819052506106f56040518060400160405280846001600160a01b03168152602001838152506108df565b5050565b610701610ecb565b5060408051608081018252600d8183019081526c115490cdcc8c525b999bd15e1d609a1b60608301528152815180830190925260018252600060208381019190915281019190915290565b60006101fc82610aa2565b60006001600160a01b038216610788576040516322718ad960e21b8152600060048201526024015b60405180910390fd5b6000610792610aeb565b6001600160a01b03909316600090815260039093016020525050604090205490565b60606107be610853565b600501805461021a9061101b565b60606107d782610aa2565b5060006107e2610b50565b90506000815111610802576040518060200160405280600081525061082d565b8061080c84610b65565b60405160200161081d929190611081565b6040516020818303038152906040525b9392505050565b600061083e610853565b546201000090046001600160a01b0316919050565b60408051808201909152601381527278722e61737365742e73746f726167652e763160681b60209091015260008060ff6108ae60017f0db46b7c34197dfe4fa603e9c17ca5ed137d4afe720a374e843bbcf1431eaeb76110c6565b6040516020016108c091815260200190565b60408051601f1981840301815291905280516020909101201692915050565b60006108e9610bf8565b82516001600160a01b031660009081526020829052604081209192505b836020015151811015610a9c5760008460200151828151811061092b5761092b61106b565b6020908102919091018101518051600486810180546001808201835560009283528683206008830401805463ffffffff600790941690950261010090810a9384021990951660e09690961c9290920294909417905583516001600160e01b0319168152918801909352604090208054919350916001600160a01b0391041615610a2457805461010090046001600160a01b03166000908152602086905260408120875190919060018701906109df90610c5d565b6020808701516040516109f9949392600188019101611176565b60405160208183030381529060405290508060405162461bcd60e51b815260040161077f9190610f81565b50604080518082018252600180825287516001600160a01b03908116602080850191825295516001600160e01b0319166000908152898401909652939094209151825493516001600160a81b0319909416901515610100600160a81b0319161761010093909416929092029290921790915501610906565b50505050565b600080610aad610aeb565b60008481526002820160205260409020549091506001600160a01b03168061082d57604051637e27328960e01b81526004810185905260240161077f565b60408051808201909152601a81527f78722e6572633732312e61737365742e73746f726167652e763100000000000060209091015260008060ff6108ae60017f60ff308ff8f840802008c7c997a35cbef97f56188316b0b2b2dbc99e530b505f6110c6565b6060610b5a610aeb565b805461021a9061101b565b60606000610b7283610c73565b600101905060008167ffffffffffffffff811115610b9257610b92611055565b6040519080825280601f01601f191660200182016040528015610bbc576020820181803683370190505b5090508181016020015b600019016f181899199a1a9b1b9c1cb0b131b232b360811b600a86061a8153600a8504945084610bc657509392505050565b60408051808201909152601881527f78722e657874656e73696f6e732e73746f726167652e7631000000000000000060209091015260008060ff6108ae60017fb58ec9ca7ba0606d9fecd9f559655d0e5fec418e6751b65b892bccdfd25eb99f6110c6565b60606101fc6001600160a01b0383166014610d4b565b60008072184f03e93ff9f4daa797ed6e38ed64bf6a1f0160401b8310610cb25772184f03e93ff9f4daa797ed6e38ed64bf6a1f0160401b830492506040015b6d04ee2d6d415b85acef81000000008310610cde576d04ee2d6d415b85acef8100000000830492506020015b662386f26fc100008310610cfc57662386f26fc10000830492506010015b6305f5e1008310610d14576305f5e100830492506008015b6127108310610d2857612710830492506004015b60648310610d3a576064830492506002015b600a83106101fc5760010192915050565b6060826000610d5b84600261124f565b610d66906002611266565b67ffffffffffffffff811115610d7e57610d7e611055565b6040519080825280601f01601f191660200182016040528015610da8576020820181803683370190505b509050600360fc1b81600081518110610dc357610dc361106b565b60200101906001600160f81b031916908160001a905350600f60fb1b81600181518110610df257610df261106b565b60200101906001600160f81b031916908160001a9053506000610e1685600261124f565b610e21906001611266565b90505b6001811115610e99576f181899199a1a9b1b9c1cb0b131b232b360811b83600f1660108110610e5557610e5561106b565b1a60f81b828281518110610e6b57610e6b61106b565b60200101906001600160f81b031916908160001a90535060049290921c91610e9281611279565b9050610e24565b508115610ec35760405163e22e27eb60e01b8152600481018690526024810185905260440161077f565b949350505050565b604051806040016040528060608152602001610f026040518060400160405280600061ffff168152602001600061ffff1681525090565b905290565b600060208284031215610f1957600080fd5b81356001600160e01b03198116811461082d57600080fd5b60005b83811015610f4c578181015183820152602001610f34565b50506000910152565b60008151808452610f6d816020860160208601610f31565b601f01601f19169290920160200192915050565b60208152600061082d6020830184610f55565b600060208284031215610fa657600080fd5b81356001600160a01b038116811461082d57600080fd5b602081526000825160606020840152610fd96080840182610f55565b602094850151805161ffff90811660408701529501519094166060909301929092525090919050565b60006020828403121561101457600080fd5b5035919050565b600181811c9082168061102f57607f821691505b60208210810361104f57634e487b7160e01b600052602260045260246000fd5b50919050565b634e487b7160e01b600052604160045260246000fd5b634e487b7160e01b600052603260045260246000fd5b60008351611093818460208801610f31565b8351908301906110a7818360208801610f31565b01949350505050565b634e487b7160e01b600052601160045260246000fd5b818103818111156101fc576101fc6110b0565b8054600090600181811c90808316806110f357607f831692505b6020808410820361111457634e487b7160e01b600052602260045260246000fd5b818015611128576001811461113d5761116a565b60ff198616895284151585028901965061116a565b60008881526020902060005b868110156111625781548b820152908501908301611149565b505084890196505b50505050505092915050565b7f4c6962457874656e73696f6e3a20657874656e73696f6e200000000000000000815260006111a860188301876110d9565b6c01030ba1030b2323932b9b99d1609d1b815285516111ce81600d840160208a01610f31565b7f20617474656d7074696e6720746f20726575736520612073656c6563746f7200600d9290910191820152845161120c81602c840160208901610f31565b7f20616c7265616479207265676973746572656420627920000000000000000000602c929091019182015261124460438201856110d9565b979650505050505050565b80820281158282048414176101fc576101fc6110b0565b808201808211156101fc576101fc6110b0565b600081611288576112886110b0565b50600019019056fea26469706673582212201cc488b59cec18b05fe394cfb15c62c5e171324860d75e5bb8e90b7f02e4676c64736f6c63430008180033",
  "linkReferences": {},
  "deployedLinkReferences": {}
}