{
  "_format": "hh-sol-artifact-1",
  "contractName": "Experience",
  "sourceName": "contracts/experience/instance/Experience.sol",
  "abi": [
    {
      "inputs": [
        {
          "components": [
            {
              "internalType": "address",
              "name": "companyRegistry",
              "type": "address"
            },
            {
              "internalType": "address",
              "name": "experienceRegistry",
              "type": "address"
            },
            {
              "internalType": "address",
              "name": "portalRegistry",
              "type": "address"
            }
          ],
          "internalType": "struct ExperienceConstructorArgs",
          "name": "args",
          "type": "tuple"
        }
      ],
      "stateMutability": "nonpayable",
      "type": "constructor"
    },
    {
      "anonymous": false,
      "inputs": [
        {
          "indexed": false,
          "internalType": "bytes",
          "name": "newDetails",
          "type": "bytes"
        }
      ],
      "name": "ConnectionDetailsChanged",
      "type": "event"
    },
    {
      "anonymous": false,
      "inputs": [
        {
          "indexed": true,
          "internalType": "address",
          "name": "by",
          "type": "address"
        },
        {
          "indexed": false,
          "internalType": "string",
          "name": "reason",
          "type": "string"
        }
      ],
      "name": "EntityDeactivated",
      "type": "event"
    },
    {
      "anonymous": false,
      "inputs": [
        {
          "indexed": true,
          "internalType": "address",
          "name": "by",
          "type": "address"
        }
      ],
      "name": "EntityReactivated",
      "type": "event"
    },
    {
      "anonymous": false,
      "inputs": [
        {
          "indexed": true,
          "internalType": "address",
          "name": "by",
          "type": "address"
        },
        {
          "indexed": false,
          "internalType": "string",
          "name": "reason",
          "type": "string"
        }
      ],
      "name": "EntityRemoved",
      "type": "event"
    },
    {
      "anonymous": false,
      "inputs": [],
      "name": "ExperienceDeactivated",
      "type": "event"
    },
    {
      "anonymous": false,
      "inputs": [
        {
          "indexed": true,
          "internalType": "address",
          "name": "oldVersion",
          "type": "address"
        },
        {
          "indexed": true,
          "internalType": "address",
          "name": "newVersion",
          "type": "address"
        }
      ],
      "name": "ExperienceUpgraded",
      "type": "event"
    },
    {
      "anonymous": false,
      "inputs": [
        {
          "indexed": true,
          "internalType": "address",
          "name": "hook",
          "type": "address"
        }
      ],
      "name": "HookAdded",
      "type": "event"
    },
    {
      "anonymous": false,
      "inputs": [
        {
          "indexed": true,
          "internalType": "address",
          "name": "hook",
          "type": "address"
        }
      ],
      "name": "HookRemoved",
      "type": "event"
    },
    {
      "anonymous": false,
      "inputs": [
        {
          "indexed": true,
          "internalType": "address",
          "name": "sourceWorld",
          "type": "address"
        },
        {
          "indexed": true,
          "internalType": "address",
          "name": "sourceCompany",
          "type": "address"
        },
        {
          "indexed": true,
          "internalType": "address",
          "name": "avatar",
          "type": "address"
        },
        {
          "indexed": false,
          "internalType": "uint256",
          "name": "attachedFees",
          "type": "uint256"
        }
      ],
      "name": "JumpEntry",
      "type": "event"
    },
    {
      "anonymous": false,
      "inputs": [
        {
          "indexed": false,
          "internalType": "uint256",
          "name": "newFee",
          "type": "uint256"
        }
      ],
      "name": "PortalFeeChanged",
      "type": "event"
    },
    {
      "inputs": [
        {
          "internalType": "address",
          "name": "condition",
          "type": "address"
        }
      ],
      "name": "addPortalCondition",
      "outputs": [],
      "stateMutability": "nonpayable",
      "type": "function"
    },
    {
      "inputs": [
        {
          "internalType": "address[]",
          "name": "signers",
          "type": "address[]"
        }
      ],
      "name": "addSigners",
      "outputs": [],
      "stateMutability": "nonpayable",
      "type": "function"
    },
    {
      "inputs": [
        {
          "internalType": "address",
          "name": "newOwner",
          "type": "address"
        }
      ],
      "name": "changeOwner",
      "outputs": [],
      "stateMutability": "nonpayable",
      "type": "function"
    },
    {
      "inputs": [
        {
          "internalType": "uint256",
          "name": "fee",
          "type": "uint256"
        }
      ],
      "name": "changePortalFee",
      "outputs": [],
      "stateMutability": "nonpayable",
      "type": "function"
    },
    {
      "inputs": [],
      "name": "company",
      "outputs": [
        {
          "internalType": "address",
          "name": "",
          "type": "address"
        }
      ],
      "stateMutability": "view",
      "type": "function"
    },
    {
      "inputs": [],
      "name": "companyRegistry",
      "outputs": [
        {
          "internalType": "address",
          "name": "",
          "type": "address"
        }
      ],
      "stateMutability": "view",
      "type": "function"
    },
    {
      "inputs": [],
      "name": "connectionDetails",
      "outputs": [
        {
          "internalType": "bytes",
          "name": "",
          "type": "bytes"
        }
      ],
      "stateMutability": "view",
      "type": "function"
    },
    {
      "inputs": [
        {
          "internalType": "string",
          "name": "reason",
          "type": "string"
        }
      ],
      "name": "deactivate",
      "outputs": [],
      "stateMutability": "nonpayable",
      "type": "function"
    },
    {
      "inputs": [
        {
          "components": [
            {
              "internalType": "address",
              "name": "sourceWorld",
              "type": "address"
            },
            {
              "internalType": "address",
              "name": "sourceCompany",
              "type": "address"
            },
            {
              "internalType": "address",
              "name": "avatar",
              "type": "address"
            }
          ],
          "internalType": "struct JumpEntryRequest",
          "name": "",
          "type": "tuple"
        }
      ],
      "name": "entering",
      "outputs": [
        {
          "internalType": "bytes",
          "name": "",
          "type": "bytes"
        }
      ],
      "stateMutability": "payable",
      "type": "function"
    },
    {
      "inputs": [],
      "name": "entryFee",
      "outputs": [
        {
          "internalType": "uint256",
          "name": "",
          "type": "uint256"
        }
      ],
      "stateMutability": "view",
      "type": "function"
    },
    {
      "inputs": [],
      "name": "experienceRegistry",
      "outputs": [
        {
          "internalType": "contract IExperienceRegistry",
          "name": "",
          "type": "address"
        }
      ],
      "stateMutability": "view",
      "type": "function"
    },
    {
      "inputs": [
        {
          "internalType": "bytes32",
          "name": "role",
          "type": "bytes32"
        },
        {
          "internalType": "address",
          "name": "account",
          "type": "address"
        }
      ],
      "name": "grantRole",
      "outputs": [],
      "stateMutability": "nonpayable",
      "type": "function"
    },
    {
      "inputs": [
        {
          "internalType": "bytes32",
          "name": "role",
          "type": "bytes32"
        },
        {
          "internalType": "address",
          "name": "account",
          "type": "address"
        }
      ],
      "name": "hasRole",
      "outputs": [
        {
          "internalType": "bool",
          "name": "",
          "type": "bool"
        }
      ],
      "stateMutability": "view",
      "type": "function"
    },
    {
      "inputs": [
        {
          "internalType": "string",
          "name": "name",
          "type": "string"
        },
        {
          "internalType": "address",
          "name": "_world",
          "type": "address"
        },
        {
          "components": [
            {
              "internalType": "string",
              "name": "x",
              "type": "string"
            },
            {
              "internalType": "string",
              "name": "y",
              "type": "string"
            },
            {
              "internalType": "string",
              "name": "z",
              "type": "string"
            },
            {
              "internalType": "uint256",
              "name": "t",
              "type": "uint256"
            },
            {
              "internalType": "uint256",
              "name": "p",
              "type": "uint256"
            },
            {
              "internalType": "uint256",
              "name": "p_sub",
              "type": "uint256"
            }
          ],
          "internalType": "struct VectorAddress",
          "name": "vector",
          "type": "tuple"
        },
        {
          "internalType": "bytes",
          "name": "initData",
          "type": "bytes"
        }
      ],
      "name": "init",
      "outputs": [],
      "stateMutability": "nonpayable",
      "type": "function"
    },
    {
      "inputs": [
        {
          "internalType": "address",
          "name": "account",
          "type": "address"
        }
      ],
      "name": "isAdmin",
      "outputs": [
        {
          "internalType": "bool",
          "name": "",
          "type": "bool"
        }
      ],
      "stateMutability": "view",
      "type": "function"
    },
    {
      "inputs": [],
      "name": "isEntityActive",
      "outputs": [
        {
          "internalType": "bool",
          "name": "",
          "type": "bool"
        }
      ],
      "stateMutability": "view",
      "type": "function"
    },
    {
      "inputs": [],
      "name": "isRemoved",
      "outputs": [
        {
          "internalType": "bool",
          "name": "",
          "type": "bool"
        }
      ],
      "stateMutability": "view",
      "type": "function"
    },
    {
      "inputs": [
        {
          "internalType": "address",
          "name": "account",
          "type": "address"
        }
      ],
      "name": "isSigner",
      "outputs": [
        {
          "internalType": "bool",
          "name": "",
          "type": "bool"
        }
      ],
      "stateMutability": "view",
      "type": "function"
    },
    {
      "inputs": [],
      "name": "name",
      "outputs": [
        {
          "internalType": "string",
          "name": "",
          "type": "string"
        }
      ],
      "stateMutability": "view",
      "type": "function"
    },
    {
      "inputs": [],
      "name": "owner",
      "outputs": [
        {
          "internalType": "address",
          "name": "",
          "type": "address"
        }
      ],
      "stateMutability": "view",
      "type": "function"
    },
    {
      "inputs": [],
      "name": "portalRegistry",
      "outputs": [
        {
          "internalType": "contract IPortalRegistry",
          "name": "",
          "type": "address"
        }
      ],
      "stateMutability": "view",
      "type": "function"
    },
    {
      "inputs": [],
      "name": "reactivate",
      "outputs": [],
      "stateMutability": "nonpayable",
      "type": "function"
    },
    {
      "inputs": [
        {
          "internalType": "string",
          "name": "reason",
          "type": "string"
        }
      ],
      "name": "remove",
      "outputs": [],
      "stateMutability": "nonpayable",
      "type": "function"
    },
    {
      "inputs": [],
      "name": "removePortalCondition",
      "outputs": [],
      "stateMutability": "nonpayable",
      "type": "function"
    },
    {
      "inputs": [
        {
          "internalType": "address[]",
          "name": "signers",
          "type": "address[]"
        }
      ],
      "name": "removeSigners",
      "outputs": [],
      "stateMutability": "nonpayable",
      "type": "function"
    },
    {
      "inputs": [
        {
          "internalType": "bytes32",
          "name": "role",
          "type": "bytes32"
        },
        {
          "internalType": "address",
          "name": "account",
          "type": "address"
        }
      ],
      "name": "revokeRole",
      "outputs": [],
      "stateMutability": "nonpayable",
      "type": "function"
    },
    {
      "inputs": [
        {
          "internalType": "bytes",
          "name": "details",
          "type": "bytes"
        }
      ],
      "name": "setConnectionDetails",
      "outputs": [],
      "stateMutability": "nonpayable",
      "type": "function"
    },
    {
      "inputs": [],
      "name": "termsOwner",
      "outputs": [
        {
          "internalType": "address",
          "name": "",
          "type": "address"
        }
      ],
      "stateMutability": "view",
      "type": "function"
    },
    {
      "inputs": [],
      "name": "vectorAddress",
      "outputs": [
        {
          "components": [
            {
              "internalType": "string",
              "name": "x",
              "type": "string"
            },
            {
              "internalType": "string",
              "name": "y",
              "type": "string"
            },
            {
              "internalType": "string",
              "name": "z",
              "type": "string"
            },
            {
              "internalType": "uint256",
              "name": "t",
              "type": "uint256"
            },
            {
              "internalType": "uint256",
              "name": "p",
              "type": "uint256"
            },
            {
              "internalType": "uint256",
              "name": "p_sub",
              "type": "uint256"
            }
          ],
          "internalType": "struct VectorAddress",
          "name": "",
          "type": "tuple"
        }
      ],
      "stateMutability": "view",
      "type": "function"
    },
    {
      "inputs": [],
      "name": "version",
      "outputs": [
        {
          "components": [
            {
              "internalType": "uint16",
              "name": "major",
              "type": "uint16"
            },
            {
              "internalType": "uint16",
              "name": "minor",
              "type": "uint16"
            }
          ],
          "internalType": "struct Version",
          "name": "",
          "type": "tuple"
        }
      ],
      "stateMutability": "pure",
      "type": "function"
    },
    {
      "inputs": [],
      "name": "world",
      "outputs": [
        {
          "internalType": "address",
          "name": "",
          "type": "address"
        }
      ],
      "stateMutability": "view",
      "type": "function"
    },
    {
      "stateMutability": "payable",
      "type": "receive"
    }
  ],
  "bytecode": "0x60c06040523480156200001157600080fd5b50604051620027ad380380620027ad8339810160408190526200003491620001c9565b80516001600160a01b03166200009d5760405162461bcd60e51b8152602060048201526024808201527f457870657269656e63653a20496e76616c696420636f6d70616e7920726567696044820152637374727960e01b60648201526084015b60405180910390fd5b60208101516001600160a01b0316620001095760405162461bcd60e51b815260206004820152602760248201527f457870657269656e63653a20496e76616c696420657870657269656e636520726044820152666567697374727960c81b606482015260840162000094565b60408101516001600160a01b0316620001715760405162461bcd60e51b815260206004820152602360248201527f457870657269656e63653a20496e76616c696420706f7274616c20726567697360448201526274727960e81b606482015260840162000094565b80516001600160a01b039081166080526020820151811660a052604090910151600080546001600160a01b031916919092161790556200024a565b80516001600160a01b0381168114620001c457600080fd5b919050565b600060608284031215620001dc57600080fd5b604051606081016001600160401b03811182821017156200020d57634e487b7160e01b600052604160045260246000fd5b6040526200021b83620001ac565b81526200022b60208401620001ac565b60208201526200023e60408401620001ac565b60408201529392505050565b60805160a0516125216200028c600039600081816104a7015281816107e001528181610de4015281816111bd015261168b0152600061053b01526125216000f3fe6080604052600436106101dc5760003560e01c80637df73e271161010257806391d1485411610095578063d18611d611610064578063d18611d61461055d578063d547741f14610572578063e8906a2d14610592578063f2aca27d146105b257600080fd5b806391d14854146104c9578063a6f9dae1146104e9578063b666493414610509578063c51aba2b1461052957600080fd5b806386b70bed116100d157806386b70bed1461044b5780638d361e43146104605780638da5cb5b146104805780638f09a6be1461049557600080fd5b80637df73e27146103d65780637e6e1551146103f657806380599e4b1461040b57806383c342631461042b57600080fd5b806330b67baa1161017a57806358779dcf1161014957806358779dcf1461038c5780636904c94d146103a157806369bd9194146103a15780636fdfe1b6146103b657600080fd5b806330b67baa146102df57806354cc5a0b1461030c57806354fd4d501461031f57806357607a371461036c57600080fd5b806324d7806c116101b657806324d7806c1461024b57806327ee999d1461027b5780632f2ff15d1461029d5780632fcbab9a146102bd57600080fd5b806306fdde03146101e8578063072ea61c146102135780631864a47c1461023657600080fd5b366101e357005b600080fd5b3480156101f457600080fd5b506101fd6105d2565b60405161020a9190611b18565b60405180910390f35b34801561021f57600080fd5b5061022861066a565b60405190815260200161020a565b34801561024257600080fd5b506101fd61067a565b34801561025757600080fd5b5061026b610266366004611b43565b61074f565b604051901515815260200161020a565b34801561028757600080fd5b5061029b610296366004611bec565b6107d5565b005b3480156102a957600080fd5b5061029b6102b8366004611c3d565b610873565b3480156102c957600080fd5b506102d2610979565b60405161020a9190611c6d565b3480156102eb57600080fd5b506102f4610ba1565b6040516001600160a01b03909116815260200161020a565b6101fd61031a366004611cf0565b610c28565b34801561032b57600080fd5b50604080518082018252600080825260209182018190528251808401845260018082529083019182528351908152905161ffff16918101919091520161020a565b34801561037857600080fd5b5061029b610387366004611dab565b610dd9565b34801561039857600080fd5b5061029b610ebc565b3480156103ad57600080fd5b506102f4610fcb565b3480156103c257600080fd5b5061029b6103d1366004611b43565b610fea565b3480156103e257600080fd5b5061026b6103f1366004611b43565b611157565b34801561040257600080fd5b5061026b61119a565b34801561041757600080fd5b5061029b610426366004611bec565b6111b2565b34801561043757600080fd5b5061029b610446366004611e5c565b6112b4565b34801561045757600080fd5b5061026b611399565b34801561046c57600080fd5b5061029b61047b366004611e75565b6113ac565b34801561048c57600080fd5b506102f4611474565b3480156104a157600080fd5b506102f47f000000000000000000000000000000000000000000000000000000000000000081565b3480156104d557600080fd5b5061026b6104e4366004611c3d565b6114bf565b3480156104f557600080fd5b5061029b610504366004611b43565b61154c565b34801561051557600080fd5b506000546102f4906001600160a01b031681565b34801561053557600080fd5b506102f47f000000000000000000000000000000000000000000000000000000000000000081565b34801561056957600080fd5b5061029b611680565b34801561057e57600080fd5b5061029b61058d366004611c3d565b61170e565b34801561059e57600080fd5b5061029b6105ad366004611e75565b6117e4565b3480156105be57600080fd5b5061029b6105cd366004611f0a565b6118ac565b60606105dc61197b565b80546105e790611f3f565b80601f016020809104026020016040519081016040528092919081815260200182805461061390611f3f565b80156106605780601f1061063557610100808354040283529160200191610660565b820191906000526020600020905b81548152906001019060200180831161064357829003601f168201915b5050505050905090565b6000610674611a08565b54919050565b606033610685611a6d565b546201000090046001600160a01b0316146106bb5760405162461bcd60e51b81526004016106b290611f79565b60405180910390fd5b336001600160a01b03166386b70bed6040518163ffffffff1660e01b8152600401602060405180830381865afa1580156106f9573d6000803e3d6000fd5b505050506040513d601f19601f8201168201806040525081019061071d9190611fba565b6107395760405162461bcd60e51b81526004016106b290611fdc565b610741611a08565b60010180546105e790611f3f565b604051630935e01b60e21b81526001600160a01b038216600482015260009073__$a5a42e46683ad9c79b7b86d5ff60fdf4c1$__906324d7806c906024015b602060405180830381865af41580156107ab573d6000803e3d6000fd5b505050506040513d601f19601f820116820180604052508101906107cf9190611fba565b92915050565b336001600160a01b037f0000000000000000000000000000000000000000000000000000000000000000161461081d5760405162461bcd60e51b81526004016106b29061201d565b6000610827611a6d565b805460ff191691151591909117905560405133907f246589c99dd263c9b64a2b544e24074c282ca479ba3d2a0e649f9eeaca1e2d6290610868908490611b18565b60405180910390a250565b604051630935e01b60e21b815233600482015273__$a5a42e46683ad9c79b7b86d5ff60fdf4c1$__906324d7806c90602401602060405180830381865af41580156108c2573d6000803e3d6000fd5b505050506040513d601f19601f820116820180604052508101906108e69190611fba565b6109025760405162461bcd60e51b81526004016106b290612062565b604051632f2ff15d60e01b8152600481018390526001600160a01b038216602482015273__$a5a42e46683ad9c79b7b86d5ff60fdf4c1$__90632f2ff15d906044015b60006040518083038186803b15801561095d57600080fd5b505af4158015610971573d6000803e3d6000fd5b505050505050565b6109b26040518060c001604052806060815260200160608152602001606081526020016000815260200160008152602001600081525090565b6109ba611a6d565b6001016040518060c00160405290816000820180546109d890611f3f565b80601f0160208091040260200160405190810160405280929190818152602001828054610a0490611f3f565b8015610a515780601f10610a2657610100808354040283529160200191610a51565b820191906000526020600020905b815481529060010190602001808311610a3457829003601f168201915b50505050508152602001600182018054610a6a90611f3f565b80601f0160208091040260200160405190810160405280929190818152602001828054610a9690611f3f565b8015610ae35780601f10610ab857610100808354040283529160200191610ae3565b820191906000526020600020905b815481529060010190602001808311610ac657829003601f168201915b50505050508152602001600282018054610afc90611f3f565b80601f0160208091040260200160405190810160405280929190818152602001828054610b2890611f3f565b8015610b755780601f10610b4a57610100808354040283529160200191610b75565b820191906000526020600020905b815481529060010190602001808311610b5857829003601f168201915b505050505081526020016003820154815260200160048201548152602001600582015481525050905090565b6000610bab611a6d565b60000160029054906101000a90046001600160a01b03166001600160a01b03166330b67baa6040518163ffffffff1660e01b8152600401602060405180830381865afa158015610bff573d6000803e3d6000fd5b505050506040513d601f19601f82011682018060405250810190610c239190612097565b905090565b6000546060906001600160a01b03163314610c975760405162461bcd60e51b815260206004820152602960248201527f457870657269656e63653a204f6e6c7920706f7274616c2072656769737472796044820152680818d85b8818d85b1b60ba1b60648201526084016106b2565b6000610ca1611a08565b805490915015610d445780543414610cfb5760405162461bcd60e51b815260206004820152601f60248201527f457870657269656e63653a20696e636f727265637420656e747279206665650060448201526064016106b2565b610d03611a6d565b546040516001600160a01b036201000090920491909116903480156108fc02916000818181858888f19350505050158015610d42573d6000803e3d6000fd5b505b806001018054610d5390611f3f565b80601f0160208091040260200160405190810160405280929190818152602001828054610d7f90611f3f565b8015610dcc5780601f10610da157610100808354040283529160200191610dcc565b820191906000526020600020905b815481529060010190602001808311610daf57829003601f168201915b5050505050915050919050565b336001600160a01b037f00000000000000000000000000000000000000000000000000000000000000001614610e215760405162461bcd60e51b81526004016106b29061201d565b8585610e2b61197b565b91610e37919083612116565b506000610e42611a6d565b8054600161ff01600160b01b0319909116620100006001600160a01b03891602178117825590915084908201610e788282612217565b5060009050610e8983850185612335565b90506000610e95611a08565b8251815560208301519091506001820190610eb090826123c2565b50505050505050505050565b33610ec5611a6d565b546201000090046001600160a01b031614610ef25760405162461bcd60e51b81526004016106b290611f79565b336001600160a01b03166386b70bed6040518163ffffffff1660e01b8152600401602060405180830381865afa158015610f30573d6000803e3d6000fd5b505050506040513d601f19601f82011682018060405250810190610f549190611fba565b610f705760405162461bcd60e51b81526004016106b290611fdc565b600080546040805163021665b760e01b815290516001600160a01b039092169263021665b79260048084019382900301818387803b158015610fb157600080fd5b505af1158015610fc5573d6000803e3d6000fd5b50505050565b6000610fd5611a6d565b546201000090046001600160a01b0316919050565b33610ff3611a6d565b546201000090046001600160a01b0316146110205760405162461bcd60e51b81526004016106b290611f79565b336001600160a01b03166386b70bed6040518163ffffffff1660e01b8152600401602060405180830381865afa15801561105e573d6000803e3d6000fd5b505050506040513d601f19601f820116820180604052508101906110829190611fba565b61109e5760405162461bcd60e51b81526004016106b290611fdc565b6001600160a01b0381166110f45760405162461bcd60e51b815260206004820152601d60248201527f457870657269656e63653a20496e76616c696420636f6e646974696f6e00000060448201526064016106b2565b600054604051631169a49960e11b81526001600160a01b038381166004830152909116906322d34932906024015b600060405180830381600087803b15801561113c57600080fd5b505af1158015611150573d6000803e3d6000fd5b5050505050565b604051637df73e2760e01b81526001600160a01b038216600482015260009073__$a5a42e46683ad9c79b7b86d5ff60fdf4c1$__90637df73e279060240161078e565b60006111a4611a6d565b54610100900460ff16919050565b336001600160a01b037f000000000000000000000000000000000000000000000000000000000000000016146111fa5760405162461bcd60e51b81526004016106b29061201d565b611202611a6d565b5460ff16156112625760405162461bcd60e51b815260206004820152602660248201527f52656d6f7661626c65456e746974793a206d757374206465616374697661746560448201526508199a5c9cdd60d21b60648201526084016106b2565b600161126c611a6d565b80549115156101000261ff001990921691909117905560405133907fbf430175840309fcb4cce13557429998477f9f95733cb0d42c170af8aa225d0690610868908490611b18565b336112bd611a6d565b546201000090046001600160a01b0316146112ea5760405162461bcd60e51b81526004016106b290611f79565b336001600160a01b03166386b70bed6040518163ffffffff1660e01b8152600401602060405180830381865afa158015611328573d6000803e3d6000fd5b505050506040513d601f19601f8201168201806040525081019061134c9190611fba565b6113685760405162461bcd60e51b81526004016106b290611fdc565b6000546040516383c3426360e01b8152600481018390526001600160a01b03909116906383c3426390602401611122565b60006113a3611a6d565b5460ff16919050565b604051630935e01b60e21b815233600482015273__$a5a42e46683ad9c79b7b86d5ff60fdf4c1$__906324d7806c90602401602060405180830381865af41580156113fb573d6000803e3d6000fd5b505050506040513d601f19601f8201168201806040525081019061141f9190611fba565b61143b5760405162461bcd60e51b81526004016106b290612062565b604051638d361e4360e01b815273__$a5a42e46683ad9c79b7b86d5ff60fdf4c1$__90638d361e4390610945908590859060040161247c565b600073__$a5a42e46683ad9c79b7b86d5ff60fdf4c1$__638da5cb5b6040518163ffffffff1660e01b8152600401602060405180830381865af4158015610bff573d6000803e3d6000fd5b604051632474521560e21b8152600481018390526001600160a01b038216602482015260009073__$a5a42e46683ad9c79b7b86d5ff60fdf4c1$__906391d1485490604401602060405180830381865af4158015611521573d6000803e3d6000fd5b505050506040513d601f19601f820116820180604052508101906115459190611fba565b9392505050565b336001600160a01b031673__$a5a42e46683ad9c79b7b86d5ff60fdf4c1$__638da5cb5b6040518163ffffffff1660e01b8152600401602060405180830381865af415801561159f573d6000803e3d6000fd5b505050506040513d601f19601f820116820180604052508101906115c39190612097565b6001600160a01b0316146116195760405162461bcd60e51b815260206004820152601f60248201527f426173654163636573733a207265737472696374656420746f206f776e65720060448201526064016106b2565b6040516313af403560e01b81526001600160a01b038216600482015273__$a5a42e46683ad9c79b7b86d5ff60fdf4c1$__906313af40359060240160006040518083038186803b15801561166c57600080fd5b505af4158015611150573d6000803e3d6000fd5b336001600160a01b037f000000000000000000000000000000000000000000000000000000000000000016146116c85760405162461bcd60e51b81526004016106b29061201d565b60016116d2611a6d565b805460ff191691151591909117905560405133907f54ca6a4cb143be493713a7079cc0d6cdbbf0688ee68398b4354b056088f2cbf590600090a2565b604051630935e01b60e21b815233600482015273__$a5a42e46683ad9c79b7b86d5ff60fdf4c1$__906324d7806c90602401602060405180830381865af415801561175d573d6000803e3d6000fd5b505050506040513d601f19601f820116820180604052508101906117819190611fba565b61179d5760405162461bcd60e51b81526004016106b290612062565b60405163d547741f60e01b8152600481018390526001600160a01b038216602482015273__$a5a42e46683ad9c79b7b86d5ff60fdf4c1$__9063d547741f90604401610945565b604051630935e01b60e21b815233600482015273__$a5a42e46683ad9c79b7b86d5ff60fdf4c1$__906324d7806c90602401602060405180830381865af4158015611833573d6000803e3d6000fd5b505050506040513d601f19601f820116820180604052508101906118579190611fba565b6118735760405162461bcd60e51b81526004016106b290612062565b60405163e8906a2d60e01b815273__$a5a42e46683ad9c79b7b86d5ff60fdf4c1$__9063e8906a2d90610945908590859060040161247c565b336118b5611a6d565b546201000090046001600160a01b0316146118e25760405162461bcd60e51b81526004016106b290611f79565b336001600160a01b03166386b70bed6040518163ffffffff1660e01b8152600401602060405180830381865afa158015611920573d6000803e3d6000fd5b505050506040513d601f19601f820116820180604052508101906119449190611fba565b6119605760405162461bcd60e51b81526004016106b290611fdc565b80611969611a08565b6001019061197790826123c2565b5050565b60408051808201909152601481527378722e656e746974792e73746f726167652e763160601b60209091015260008060ff6119d760017fdefc82a28b6578c2a63b29b15450260a5e998242a6300b7fcb30814ee74ae1886124ca565b6040516020016119e991815260200190565b60408051601f1981840301815291905280516020909101201692915050565b60408051808201909152601881527f78722e657870657269656e63652e73746f726167652e7631000000000000000060209091015260008060ff6119d760017fa13db16759b7af0e556c9648625a58e6d20b5ce76e5139c1b3ce33248c0a88526124ca565b60408051808201909152601881527f78722e61637469766174696f6e2e73746f726167652e7631000000000000000060209091015260008060ff6119d760017ff6611e962a52dbc98dd0485088d920890c43e26113c61976f6e171a29d49ce496124ca565b6000815180845260005b81811015611af857602081850181015186830182015201611adc565b506000602082860101526020601f19601f83011685010191505092915050565b6020815260006115456020830184611ad2565b6001600160a01b0381168114611b4057600080fd5b50565b600060208284031215611b5557600080fd5b813561154581611b2b565b634e487b7160e01b600052604160045260246000fd5b600067ffffffffffffffff80841115611b9157611b91611b60565b604051601f8501601f19908116603f01168101908282118183101715611bb957611bb9611b60565b81604052809350858152868686011115611bd257600080fd5b858560208301376000602087830101525050509392505050565b600060208284031215611bfe57600080fd5b813567ffffffffffffffff811115611c1557600080fd5b8201601f81018413611c2657600080fd5b611c3584823560208401611b76565b949350505050565b60008060408385031215611c5057600080fd5b823591506020830135611c6281611b2b565b809150509250929050565b602081526000825160c06020840152611c8960e0840182611ad2565b90506020840151601f1980858403016040860152611ca78383611ad2565b9250604086015191508085840301606086015250611cc58282611ad2565b91505060608401516080840152608084015160a084015260a084015160c08401528091505092915050565b600060608284031215611d0257600080fd5b6040516060810181811067ffffffffffffffff82111715611d2557611d25611b60565b6040528235611d3381611b2b565b81526020830135611d4381611b2b565b60208201526040830135611d5681611b2b565b60408201529392505050565b60008083601f840112611d7457600080fd5b50813567ffffffffffffffff811115611d8c57600080fd5b602083019150836020828501011115611da457600080fd5b9250929050565b60008060008060008060808789031215611dc457600080fd5b863567ffffffffffffffff80821115611ddc57600080fd5b611de88a838b01611d62565b909850965060208901359150611dfd82611b2b565b90945060408801359080821115611e1357600080fd5b9088019060c0828b031215611e2757600080fd5b90935060608801359080821115611e3d57600080fd5b50611e4a89828a01611d62565b979a9699509497509295939492505050565b600060208284031215611e6e57600080fd5b5035919050565b60008060208385031215611e8857600080fd5b823567ffffffffffffffff80821115611ea057600080fd5b818501915085601f830112611eb457600080fd5b813581811115611ec357600080fd5b8660208260051b8501011115611ed857600080fd5b60209290920196919550909350505050565b600082601f830112611efb57600080fd5b61154583833560208501611b76565b600060208284031215611f1c57600080fd5b813567ffffffffffffffff811115611f3357600080fd5b611c3584828501611eea565b600181811c90821680611f5357607f821691505b602082108103611f7357634e487b7160e01b600052602260045260246000fd5b50919050565b60208082526021908201527f457870657269656e63653a204f6e6c7920636f6d70616e792063616e2063616c6040820152601b60fa1b606082015260800190565b600060208284031215611fcc57600080fd5b8151801515811461154557600080fd5b60208082526021908201527f457870657269656e63653a20436f6d70616e79206973206e6f742061637469766040820152606560f81b606082015260800190565b60208082526025908201527f52656d6f7661626c65456e746974793a206f6e6c79206f776e696e6720726567604082015264697374727960d81b606082015260800190565b6020808252818101527f426173654163636573733a207265737472696374656420746f2061646d696e73604082015260600190565b6000602082840312156120a957600080fd5b815161154581611b2b565b601f8211156120fc576000816000526020600020601f850160051c810160208610156120dd5750805b601f850160051c820191505b81811015610971578281556001016120e9565b505050565b600019600383901b1c191660019190911b1790565b67ffffffffffffffff83111561212e5761212e611b60565b6121428361213c8354611f3f565b836120b4565b6000601f841160018114612170576000851561215e5750838201355b6121688682612101565b845550611150565b600083815260209020601f19861690835b828110156121a15786850135825560209485019460019092019101612181565b50868210156121be5760001960f88860031b161c19848701351681555b505060018560011b0183555050505050565b6000808335601e198436030181126121e757600080fd5b83018035915067ffffffffffffffff82111561220257600080fd5b602001915036819003821315611da457600080fd5b61222182836121d0565b67ffffffffffffffff81111561223957612239611b60565b61224d816122478554611f3f565b856120b4565b6000601f82116001811461227b57600083156122695750838201355b6122738482612101565b8655506122d5565b600085815260209020601f19841690835b828110156122ac578685013582556020948501946001909201910161228c565b50848210156122c95760001960f88660031b161c19848701351681555b505060018360011b0185555b505050506122e660208301836121d0565b6122f4818360018601612116565b505061230360408301836121d0565b612311818360028601612116565b5050606082013560038201556080820135600482015560a082013560058201555050565b60006020828403121561234757600080fd5b813567ffffffffffffffff8082111561235f57600080fd5b908301906040828603121561237357600080fd5b60405160408101818110838211171561238e5761238e611b60565b604052823581526020830135828111156123a757600080fd5b6123b387828601611eea565b60208301525095945050505050565b815167ffffffffffffffff8111156123dc576123dc611b60565b6123f0816123ea8454611f3f565b846120b4565b602080601f83116001811461241f576000841561240d5750858301515b6124178582612101565b865550610971565b600085815260208120601f198616915b8281101561244e5788860151825594840194600190910190840161242f565b508582101561246c5787850151600019600388901b60f8161c191681555b5050505050600190811b01905550565b60208082528181018390526000908460408401835b868110156124bf5782356124a481611b2b565b6001600160a01b031682529183019190830190600101612491565b509695505050505050565b818103818111156107cf57634e487b7160e01b600052601160045260246000fdfea2646970667358221220695449ebad00049d0c2c4b254a3160edb1ceff97583c3a01918121512d7e39a564736f6c63430008180033",
  "linkReferences": {
    "contracts/libraries/LibAccess.sol": {
      "LibAccess": [
        {
          "length": 20,
          "start": 2556
        },
        {
          "length": 20,
          "start": 2836
        },
        {
          "length": 20,
          "start": 2995
        },
        {
          "length": 20,
          "start": 5124
        },
        {
          "length": 20,
          "start": 5709
        },
        {
          "length": 20,
          "start": 5846
        },
        {
          "length": 20,
          "start": 5892
        },
        {
          "length": 20,
          "start": 6003
        },
        {
          "length": 20,
          "start": 6116
        },
        {
          "length": 20,
          "start": 6339
        },
        {
          "length": 20,
          "start": 6575
        },
        {
          "length": 20,
          "start": 6734
        },
        {
          "length": 20,
          "start": 6789
        },
        {
          "length": 20,
          "start": 6926
        }
      ]
    }
  },
  "deployedLinkReferences": {
    "contracts/libraries/LibAccess.sol": {
      "LibAccess": [
        {
          "length": 20,
          "start": 1904
        },
        {
          "length": 20,
          "start": 2184
        },
        {
          "length": 20,
          "start": 2343
        },
        {
          "length": 20,
          "start": 4472
        },
        {
          "length": 20,
          "start": 5057
        },
        {
          "length": 20,
          "start": 5194
        },
        {
          "length": 20,
          "start": 5240
        },
        {
          "length": 20,
          "start": 5351
        },
        {
          "length": 20,
          "start": 5464
        },
        {
          "length": 20,
          "start": 5687
        },
        {
          "length": 20,
          "start": 5923
        },
        {
          "length": 20,
          "start": 6082
        },
        {
          "length": 20,
          "start": 6137
        },
        {
          "length": 20,
          "start": 6274
        }
      ]
    }
  }
}