{
  "_format": "hh-sol-artifact-1",
  "contractName": "Experience",
  "sourceName": "contracts/experience/instance/Experience.sol",
  "abi": [
    {
      "inputs": [
        {
          "components": [
            {
              "internalType": "address",
              "name": "companyRegistry",
              "type": "address"
            },
            {
              "internalType": "address",
              "name": "experienceRegistry",
              "type": "address"
            },
            {
              "internalType": "address",
              "name": "portalRegistry",
              "type": "address"
            }
          ],
          "internalType": "struct ExperienceConstructorArgs",
          "name": "args",
          "type": "tuple"
        }
      ],
      "stateMutability": "nonpayable",
      "type": "constructor"
    },
    {
      "anonymous": false,
      "inputs": [
        {
          "indexed": false,
          "internalType": "bytes",
          "name": "newDetails",
          "type": "bytes"
        }
      ],
      "name": "ConnectionDetailsChanged",
      "type": "event"
    },
    {
      "anonymous": false,
      "inputs": [
        {
          "indexed": true,
          "internalType": "address",
          "name": "by",
          "type": "address"
        },
        {
          "indexed": false,
          "internalType": "string",
          "name": "reason",
          "type": "string"
        }
      ],
      "name": "EntityDeactivated",
      "type": "event"
    },
    {
      "anonymous": false,
      "inputs": [
        {
          "indexed": true,
          "internalType": "address",
          "name": "by",
          "type": "address"
        }
      ],
      "name": "EntityReactivated",
      "type": "event"
    },
    {
      "anonymous": false,
      "inputs": [
        {
          "indexed": true,
          "internalType": "address",
          "name": "by",
          "type": "address"
        },
        {
          "indexed": false,
          "internalType": "string",
          "name": "reason",
          "type": "string"
        }
      ],
      "name": "EntityRemoved",
      "type": "event"
    },
    {
      "anonymous": false,
      "inputs": [],
      "name": "ExperienceDeactivated",
      "type": "event"
    },
    {
      "anonymous": false,
      "inputs": [
        {
          "indexed": true,
          "internalType": "address",
          "name": "oldVersion",
          "type": "address"
        },
        {
          "indexed": true,
          "internalType": "address",
          "name": "newVersion",
          "type": "address"
        }
      ],
      "name": "ExperienceUpgraded",
      "type": "event"
    },
    {
      "anonymous": false,
      "inputs": [
        {
          "indexed": true,
          "internalType": "address",
          "name": "hook",
          "type": "address"
        }
      ],
      "name": "HookAdded",
      "type": "event"
    },
    {
      "anonymous": false,
      "inputs": [
        {
          "indexed": true,
          "internalType": "address",
          "name": "hook",
          "type": "address"
        }
      ],
      "name": "HookRemoved",
      "type": "event"
    },
    {
      "anonymous": false,
      "inputs": [
        {
          "indexed": true,
          "internalType": "address",
          "name": "sourceWorld",
          "type": "address"
        },
        {
          "indexed": true,
          "internalType": "address",
          "name": "sourceCompany",
          "type": "address"
        },
        {
          "indexed": true,
          "internalType": "address",
          "name": "avatar",
          "type": "address"
        },
        {
          "indexed": false,
          "internalType": "uint256",
          "name": "attachedFees",
          "type": "uint256"
        }
      ],
      "name": "JumpEntry",
      "type": "event"
    },
    {
      "anonymous": false,
      "inputs": [
        {
          "indexed": false,
          "internalType": "uint256",
          "name": "newFee",
          "type": "uint256"
        }
      ],
      "name": "PortalFeeChanged",
      "type": "event"
    },
    {
      "inputs": [
        {
          "internalType": "address",
          "name": "condition",
          "type": "address"
        }
      ],
      "name": "addPortalCondition",
      "outputs": [],
      "stateMutability": "nonpayable",
      "type": "function"
    },
    {
      "inputs": [
        {
          "internalType": "address[]",
          "name": "signers",
          "type": "address[]"
        }
      ],
      "name": "addSigners",
      "outputs": [],
      "stateMutability": "nonpayable",
      "type": "function"
    },
    {
      "inputs": [
        {
          "internalType": "address",
          "name": "newOwner",
          "type": "address"
        }
      ],
      "name": "changeOwner",
      "outputs": [],
      "stateMutability": "nonpayable",
      "type": "function"
    },
    {
      "inputs": [
        {
          "internalType": "uint256",
          "name": "fee",
          "type": "uint256"
        }
      ],
      "name": "changePortalFee",
      "outputs": [],
      "stateMutability": "nonpayable",
      "type": "function"
    },
    {
      "inputs": [],
      "name": "company",
      "outputs": [
        {
          "internalType": "address",
          "name": "",
          "type": "address"
        }
      ],
      "stateMutability": "view",
      "type": "function"
    },
    {
      "inputs": [],
      "name": "companyRegistry",
      "outputs": [
        {
          "internalType": "address",
          "name": "",
          "type": "address"
        }
      ],
      "stateMutability": "view",
      "type": "function"
    },
    {
      "inputs": [],
      "name": "connectionDetails",
      "outputs": [
        {
          "internalType": "bytes",
          "name": "",
          "type": "bytes"
        }
      ],
      "stateMutability": "view",
      "type": "function"
    },
    {
      "inputs": [
        {
          "internalType": "string",
          "name": "reason",
          "type": "string"
        }
      ],
      "name": "deactivate",
      "outputs": [],
      "stateMutability": "nonpayable",
      "type": "function"
    },
    {
      "inputs": [
        {
          "components": [
            {
              "internalType": "address",
              "name": "sourceWorld",
              "type": "address"
            },
            {
              "internalType": "address",
              "name": "sourceCompany",
              "type": "address"
            },
            {
              "internalType": "address",
              "name": "avatar",
              "type": "address"
            }
          ],
          "internalType": "struct JumpEntryRequest",
          "name": "",
          "type": "tuple"
        }
      ],
      "name": "entering",
      "outputs": [
        {
          "internalType": "bytes",
          "name": "",
          "type": "bytes"
        }
      ],
      "stateMutability": "payable",
      "type": "function"
    },
    {
      "inputs": [],
      "name": "entryFee",
      "outputs": [
        {
          "internalType": "uint256",
          "name": "",
          "type": "uint256"
        }
      ],
      "stateMutability": "view",
      "type": "function"
    },
    {
      "inputs": [],
      "name": "experienceRegistry",
      "outputs": [
        {
          "internalType": "contract IExperienceRegistry",
          "name": "",
          "type": "address"
        }
      ],
      "stateMutability": "view",
      "type": "function"
    },
    {
      "inputs": [
        {
          "internalType": "address",
          "name": "experience",
          "type": "address"
        }
      ],
      "name": "getExperienceInfo",
      "outputs": [
        {
          "components": [
            {
              "internalType": "address",
              "name": "company",
              "type": "address"
            },
            {
              "internalType": "address",
              "name": "world",
              "type": "address"
            },
            {
              "internalType": "uint256",
              "name": "portalId",
              "type": "uint256"
            }
          ],
          "internalType": "struct ExperienceInfo",
          "name": "",
          "type": "tuple"
        }
      ],
      "stateMutability": "view",
      "type": "function"
    },
    {
      "inputs": [
        {
          "internalType": "bytes32",
          "name": "role",
          "type": "bytes32"
        },
        {
          "internalType": "address",
          "name": "account",
          "type": "address"
        }
      ],
      "name": "grantRole",
      "outputs": [],
      "stateMutability": "nonpayable",
      "type": "function"
    },
    {
      "inputs": [
        {
          "internalType": "bytes32",
          "name": "role",
          "type": "bytes32"
        },
        {
          "internalType": "address",
          "name": "account",
          "type": "address"
        }
      ],
      "name": "hasRole",
      "outputs": [
        {
          "internalType": "bool",
          "name": "",
          "type": "bool"
        }
      ],
      "stateMutability": "view",
      "type": "function"
    },
    {
      "inputs": [
        {
          "internalType": "string",
          "name": "name",
          "type": "string"
        },
        {
          "internalType": "address",
          "name": "_world",
          "type": "address"
        },
        {
          "components": [
            {
              "internalType": "string",
              "name": "x",
              "type": "string"
            },
            {
              "internalType": "string",
              "name": "y",
              "type": "string"
            },
            {
              "internalType": "string",
              "name": "z",
              "type": "string"
            },
            {
              "internalType": "uint256",
              "name": "t",
              "type": "uint256"
            },
            {
              "internalType": "uint256",
              "name": "p",
              "type": "uint256"
            },
            {
              "internalType": "uint256",
              "name": "p_sub",
              "type": "uint256"
            }
          ],
          "internalType": "struct VectorAddress",
          "name": "vector",
          "type": "tuple"
        },
        {
          "internalType": "bytes",
          "name": "initData",
          "type": "bytes"
        }
      ],
      "name": "init",
      "outputs": [],
      "stateMutability": "nonpayable",
      "type": "function"
    },
    {
      "inputs": [
        {
          "internalType": "address",
          "name": "account",
          "type": "address"
        }
      ],
      "name": "isAdmin",
      "outputs": [
        {
          "internalType": "bool",
          "name": "",
          "type": "bool"
        }
      ],
      "stateMutability": "view",
      "type": "function"
    },
    {
      "inputs": [],
      "name": "isEntityActive",
      "outputs": [
        {
          "internalType": "bool",
          "name": "",
          "type": "bool"
        }
      ],
      "stateMutability": "view",
      "type": "function"
    },
    {
      "inputs": [],
      "name": "isRemoved",
      "outputs": [
        {
          "internalType": "bool",
          "name": "",
          "type": "bool"
        }
      ],
      "stateMutability": "view",
      "type": "function"
    },
    {
      "inputs": [
        {
          "internalType": "address",
          "name": "account",
          "type": "address"
        }
      ],
      "name": "isSigner",
      "outputs": [
        {
          "internalType": "bool",
          "name": "",
          "type": "bool"
        }
      ],
      "stateMutability": "view",
      "type": "function"
    },
    {
      "inputs": [],
      "name": "name",
      "outputs": [
        {
          "internalType": "string",
          "name": "",
          "type": "string"
        }
      ],
      "stateMutability": "view",
      "type": "function"
    },
    {
      "inputs": [],
      "name": "owner",
      "outputs": [
        {
          "internalType": "address",
          "name": "",
          "type": "address"
        }
      ],
      "stateMutability": "view",
      "type": "function"
    },
    {
      "inputs": [],
      "name": "portalId",
      "outputs": [
        {
          "internalType": "uint256",
          "name": "",
          "type": "uint256"
        }
      ],
      "stateMutability": "view",
      "type": "function"
    },
    {
      "inputs": [],
      "name": "portalRegistry",
      "outputs": [
        {
          "internalType": "contract IPortalRegistry",
          "name": "",
          "type": "address"
        }
      ],
      "stateMutability": "view",
      "type": "function"
    },
    {
      "inputs": [],
      "name": "reactivate",
      "outputs": [],
      "stateMutability": "nonpayable",
      "type": "function"
    },
    {
      "inputs": [
        {
          "internalType": "string",
          "name": "reason",
          "type": "string"
        }
      ],
      "name": "remove",
      "outputs": [],
      "stateMutability": "nonpayable",
      "type": "function"
    },
    {
      "inputs": [],
      "name": "removePortalCondition",
      "outputs": [],
      "stateMutability": "nonpayable",
      "type": "function"
    },
    {
      "inputs": [
        {
          "internalType": "address[]",
          "name": "signers",
          "type": "address[]"
        }
      ],
      "name": "removeSigners",
      "outputs": [],
      "stateMutability": "nonpayable",
      "type": "function"
    },
    {
      "inputs": [
        {
          "internalType": "bytes32",
          "name": "role",
          "type": "bytes32"
        },
        {
          "internalType": "address",
          "name": "account",
          "type": "address"
        }
      ],
      "name": "revokeRole",
      "outputs": [],
      "stateMutability": "nonpayable",
      "type": "function"
    },
    {
      "inputs": [
        {
          "internalType": "bytes",
          "name": "details",
          "type": "bytes"
        }
      ],
      "name": "setConnectionDetails",
      "outputs": [],
      "stateMutability": "nonpayable",
      "type": "function"
    },
    {
      "inputs": [],
      "name": "termsOwner",
      "outputs": [
        {
          "internalType": "address",
          "name": "",
          "type": "address"
        }
      ],
      "stateMutability": "view",
      "type": "function"
    },
    {
      "inputs": [],
      "name": "vectorAddress",
      "outputs": [
        {
          "components": [
            {
              "internalType": "string",
              "name": "x",
              "type": "string"
            },
            {
              "internalType": "string",
              "name": "y",
              "type": "string"
            },
            {
              "internalType": "string",
              "name": "z",
              "type": "string"
            },
            {
              "internalType": "uint256",
              "name": "t",
              "type": "uint256"
            },
            {
              "internalType": "uint256",
              "name": "p",
              "type": "uint256"
            },
            {
              "internalType": "uint256",
              "name": "p_sub",
              "type": "uint256"
            }
          ],
          "internalType": "struct VectorAddress",
          "name": "",
          "type": "tuple"
        }
      ],
      "stateMutability": "view",
      "type": "function"
    },
    {
      "inputs": [],
      "name": "version",
      "outputs": [
        {
          "components": [
            {
              "internalType": "uint16",
              "name": "major",
              "type": "uint16"
            },
            {
              "internalType": "uint16",
              "name": "minor",
              "type": "uint16"
            }
          ],
          "internalType": "struct Version",
          "name": "",
          "type": "tuple"
        }
      ],
      "stateMutability": "pure",
      "type": "function"
    },
    {
      "inputs": [],
      "name": "world",
      "outputs": [
        {
          "internalType": "address",
          "name": "",
          "type": "address"
        }
      ],
      "stateMutability": "view",
      "type": "function"
    },
    {
      "stateMutability": "payable",
      "type": "receive"
    }
  ],
  "bytecode": "0x60e06040523480156200001157600080fd5b5060405162002af938038062002af98339810160408190526200003491620001b8565b80516001600160a01b03166200009d5760405162461bcd60e51b8152602060048201526024808201527f457870657269656e63653a20496e76616c696420636f6d70616e7920726567696044820152637374727960e01b60648201526084015b60405180910390fd5b60208101516001600160a01b0316620001095760405162461bcd60e51b815260206004820152602760248201527f457870657269656e63653a20496e76616c696420657870657269656e636520726044820152666567697374727960c81b606482015260840162000094565b60408101516001600160a01b0316620001715760405162461bcd60e51b815260206004820152602360248201527f457870657269656e63653a20496e76616c696420706f7274616c20726567697360448201526274727960e81b606482015260840162000094565b80516001600160a01b039081166080526020820151811660a0526040909101511660c05262000239565b80516001600160a01b0381168114620001b357600080fd5b919050565b600060608284031215620001cb57600080fd5b604051606081016001600160401b0381118282101715620001fc57634e487b7160e01b600052604160045260246000fd5b6040526200020a836200019b565b81526200021a602084016200019b565b60208201526200022d604084016200019b565b60408201529392505050565b60805160a05160c05161283c620002bd6000396000818161059601528181610cd301528181610d55015281816110110152818161114c01528181611307015281816114280152611549015260008181610522015281816107b201528181610f21015281816113e0015281816118720152611cc4015260006105ca015261283c6000f3fe6080604052600436106101f25760003560e01c80637d692cad1161010d5780638f09a6be116100a0578063c51aba2b1161006f578063c51aba2b146105b8578063d18611d6146105ec578063d547741f14610601578063e8906a2d14610621578063f2aca27d1461064157600080fd5b80638f09a6be1461051057806391d1485414610544578063a6f9dae114610564578063b66649341461058457600080fd5b806383c34263116100dc57806383c34263146104a657806386b70bed146104c65780638d361e43146104db5780638da5cb5b146104fb57600080fd5b80637d692cad1461043c5780637df73e27146104515780637e6e15511461047157806380599e4b1461048657600080fd5b806331468a841161018557806358779dcf1161015457806358779dcf146103f25780636904c94d1461040757806369bd9194146104075780636fdfe1b61461041c57600080fd5b806331468a841461032257806354cc5a0b1461037257806354fd4d501461038557806357607a37146103d257600080fd5b806327ee999d116101c157806327ee999d146102915780632f2ff15d146102b35780632fcbab9a146102d357806330b67baa146102f557600080fd5b806306fdde03146101fe578063072ea61c146102295780631864a47c1461024c57806324d7806c1461026157600080fd5b366101f957005b600080fd5b34801561020a57600080fd5b50610213610661565b6040516102209190611e01565b60405180910390f35b34801561023557600080fd5b5061023e6106f9565b604051908152602001610220565b34801561025857600080fd5b50610213610709565b34801561026d57600080fd5b5061028161027c366004611e2c565b610721565b6040519015158152602001610220565b34801561029d57600080fd5b506102b16102ac366004611ed5565b6107a7565b005b3480156102bf57600080fd5b506102b16102ce366004611f26565b61084e565b3480156102df57600080fd5b506102e8610954565b6040516102209190611f56565b34801561030157600080fd5b5061030a610b7c565b6040516001600160a01b039091168152602001610220565b34801561032e57600080fd5b5061034261033d366004611e2c565b610c03565b6040805182516001600160a01b039081168252602080850151909116908201529181015190820152606001610220565b610213610380366004611fd9565b610d48565b34801561039157600080fd5b50604080518082018252600080825260209182018190528251808401845260018082529083019182528351908152905161ffff169181019190915201610220565b3480156103de57600080fd5b506102b16103ed366004612094565b610f16565b3480156103fe57600080fd5b506102b1611096565b34801561041357600080fd5b5061030a6111bf565b34801561042857600080fd5b506102b1610437366004611e2c565b6111de565b34801561044857600080fd5b5061023e611367565b34801561045d57600080fd5b5061028161046c366004611e2c565b61137a565b34801561047d57600080fd5b506102816113bd565b34801561049257600080fd5b506102b16104a1366004611ed5565b6113d5565b3480156104b257600080fd5b506102b16104c1366004612145565b61147f565b3480156104d257600080fd5b50610281611580565b3480156104e757600080fd5b506102b16104f636600461215e565b611593565b34801561050757600080fd5b5061030a61165b565b34801561051c57600080fd5b5061030a7f000000000000000000000000000000000000000000000000000000000000000081565b34801561055057600080fd5b5061028161055f366004611f26565b6116a6565b34801561057057600080fd5b506102b161057f366004611e2c565b611733565b34801561059057600080fd5b5061030a7f000000000000000000000000000000000000000000000000000000000000000081565b3480156105c457600080fd5b5061030a7f000000000000000000000000000000000000000000000000000000000000000081565b3480156105f857600080fd5b506102b1611867565b34801561060d57600080fd5b506102b161061c366004611f26565b6118f5565b34801561062d57600080fd5b506102b161063c36600461215e565b6119cb565b34801561064d57600080fd5b506102b161065c3660046121f3565b611a93565b606061066b611b62565b805461067690612228565b80601f01602080910402602001604051908101604052809291908181526020018280546106a290612228565b80156106ef5780601f106106c4576101008083540402835291602001916106ef565b820191906000526020600020905b8154815290600101906020018083116106d257829003601f168201915b5050505050905090565b6000610703611bef565b54919050565b6060610713611bef565b600201805461067690612228565b604051630935e01b60e21b81526001600160a01b038216600482015260009073__$a5a42e46683ad9c79b7b86d5ff60fdf4c1$__906324d7806c906024015b602060405180830381865af415801561077d573d6000803e3d6000fd5b505050506040513d601f19601f820116820180604052508101906107a19190612262565b92915050565b336001600160a01b037f000000000000000000000000000000000000000000000000000000000000000016146107f85760405162461bcd60e51b81526004016107ef90612284565b60405180910390fd5b6000610802611c54565b805460ff191691151591909117905560405133907f246589c99dd263c9b64a2b544e24074c282ca479ba3d2a0e649f9eeaca1e2d6290610843908490611e01565b60405180910390a250565b604051630935e01b60e21b815233600482015273__$a5a42e46683ad9c79b7b86d5ff60fdf4c1$__906324d7806c90602401602060405180830381865af415801561089d573d6000803e3d6000fd5b505050506040513d601f19601f820116820180604052508101906108c19190612262565b6108dd5760405162461bcd60e51b81526004016107ef906122c9565b604051632f2ff15d60e01b8152600481018390526001600160a01b038216602482015273__$a5a42e46683ad9c79b7b86d5ff60fdf4c1$__90632f2ff15d906044015b60006040518083038186803b15801561093857600080fd5b505af415801561094c573d6000803e3d6000fd5b505050505050565b61098d6040518060c001604052806060815260200160608152602001606081526020016000815260200160008152602001600081525090565b610995611c54565b6001016040518060c00160405290816000820180546109b390612228565b80601f01602080910402602001604051908101604052809291908181526020018280546109df90612228565b8015610a2c5780601f10610a0157610100808354040283529160200191610a2c565b820191906000526020600020905b815481529060010190602001808311610a0f57829003601f168201915b50505050508152602001600182018054610a4590612228565b80601f0160208091040260200160405190810160405280929190818152602001828054610a7190612228565b8015610abe5780601f10610a9357610100808354040283529160200191610abe565b820191906000526020600020905b815481529060010190602001808311610aa157829003601f168201915b50505050508152602001600282018054610ad790612228565b80601f0160208091040260200160405190810160405280929190818152602001828054610b0390612228565b8015610b505780601f10610b2557610100808354040283529160200191610b50565b820191906000526020600020905b815481529060010190602001808311610b3357829003601f168201915b505050505081526020016003820154815260200160048201548152602001600582015481525050905090565b6000610b86611c54565b60000160029054906101000a90046001600160a01b03166001600160a01b03166330b67baa6040518163ffffffff1660e01b8152600401602060405180830381865afa158015610bda573d6000803e3d6000fd5b505050506040513d601f19601f82011682018060405250810190610bfe91906122fe565b905090565b60408051606081018252600080825260208201819052918101919091526040518060600160405280610c336111bf565b6001600160a01b03168152602001610c496111bf565b6001600160a01b03166330b67baa6040518163ffffffff1660e01b8152600401602060405180830381865afa158015610c86573d6000803e3d6000fd5b505050506040513d601f19601f82011682018060405250810190610caa91906122fe565b6001600160a01b039081168252604051627633d160e71b815285821660048201526020909201917f000000000000000000000000000000000000000000000000000000000000000090911690633b19e88090602401602060405180830381865afa158015610d1c573d6000803e3d6000fd5b505050506040513d601f19601f82011682018060405250810190610d40919061231b565b905292915050565b6060336001600160a01b037f00000000000000000000000000000000000000000000000000000000000000001614610dd45760405162461bcd60e51b815260206004820152602960248201527f457870657269656e63653a204f6e6c7920706f7274616c2072656769737472796044820152680818d85b8818d85b1b60ba1b60648201526084016107ef565b6000610dde611bef565b805490915015610e815780543414610e385760405162461bcd60e51b815260206004820152601f60248201527f457870657269656e63653a20696e636f727265637420656e747279206665650060448201526064016107ef565b610e40611c54565b546040516001600160a01b036201000090920491909116903480156108fc02916000818181858888f19350505050158015610e7f573d6000803e3d6000fd5b505b806002018054610e9090612228565b80601f0160208091040260200160405190810160405280929190818152602001828054610ebc90612228565b8015610f095780601f10610ede57610100808354040283529160200191610f09565b820191906000526020600020905b815481529060010190602001808311610eec57829003601f168201915b5050505050915050919050565b336001600160a01b037f00000000000000000000000000000000000000000000000000000000000000001614610f5e5760405162461bcd60e51b81526004016107ef90612284565b8585610f68611b62565b91610f74919083612396565b506000610f7f611c54565b8054600161ff01600160b01b0319909116620100006001600160a01b03891602178117825590915084908201610fb58282612497565b5060009050610fc6838501856125b5565b90506000610fd2611bef565b8251815560208301519091506002820190610fed9082612642565b50604080516020810182528351815290516303a49da960e01b8152905160048201527f00000000000000000000000000000000000000000000000000000000000000006001600160a01b0316906303a49da9906024016020604051808303816000875af1158015611062573d6000803e3d6000fd5b505050506040513d601f19601f82011682018060405250810190611086919061231b565b6001909101555050505050505050565b3361109f611c54565b546201000090046001600160a01b0316146110cc5760405162461bcd60e51b81526004016107ef906126fc565b336001600160a01b03166386b70bed6040518163ffffffff1660e01b8152600401602060405180830381865afa15801561110a573d6000803e3d6000fd5b505050506040513d601f19601f8201168201806040525081019061112e9190612262565b61114a5760405162461bcd60e51b81526004016107ef9061273d565b7f00000000000000000000000000000000000000000000000000000000000000006001600160a01b031663021665b76040518163ffffffff1660e01b8152600401600060405180830381600087803b1580156111a557600080fd5b505af11580156111b9573d6000803e3d6000fd5b50505050565b60006111c9611c54565b546201000090046001600160a01b0316919050565b336111e7611c54565b546201000090046001600160a01b0316146112145760405162461bcd60e51b81526004016107ef906126fc565b336001600160a01b03166386b70bed6040518163ffffffff1660e01b8152600401602060405180830381865afa158015611252573d6000803e3d6000fd5b505050506040513d601f19601f820116820180604052508101906112769190612262565b6112925760405162461bcd60e51b81526004016107ef9061273d565b6001600160a01b0381166112e85760405162461bcd60e51b815260206004820152601d60248201527f457870657269656e63653a20496e76616c696420636f6e646974696f6e00000060448201526064016107ef565b604051631169a49960e11b81526001600160a01b0382811660048301527f000000000000000000000000000000000000000000000000000000000000000016906322d34932906024015b600060405180830381600087803b15801561134c57600080fd5b505af1158015611360573d6000803e3d6000fd5b5050505050565b6000611371611bef565b60010154905090565b604051637df73e2760e01b81526001600160a01b038216600482015260009073__$a5a42e46683ad9c79b7b86d5ff60fdf4c1$__90637df73e2790602401610760565b60006113c7611c54565b54610100900460ff16919050565b336001600160a01b037f0000000000000000000000000000000000000000000000000000000000000000161461141d5760405162461bcd60e51b81526004016107ef90612284565b61142681611cb9565b7f00000000000000000000000000000000000000000000000000000000000000006001600160a01b0316635e958a1161145d611bef565b60010154836040518363ffffffff1660e01b815260040161133292919061277e565b33611488611c54565b546201000090046001600160a01b0316146114b55760405162461bcd60e51b81526004016107ef906126fc565b336001600160a01b03166386b70bed6040518163ffffffff1660e01b8152600401602060405180830381865afa1580156114f3573d6000803e3d6000fd5b505050506040513d601f19601f820116820180604052508101906115179190612262565b6115335760405162461bcd60e51b81526004016107ef9061273d565b6040516383c3426360e01b8152600481018290527f00000000000000000000000000000000000000000000000000000000000000006001600160a01b0316906383c3426390602401611332565b600061158a611c54565b5460ff16919050565b604051630935e01b60e21b815233600482015273__$a5a42e46683ad9c79b7b86d5ff60fdf4c1$__906324d7806c90602401602060405180830381865af41580156115e2573d6000803e3d6000fd5b505050506040513d601f19601f820116820180604052508101906116069190612262565b6116225760405162461bcd60e51b81526004016107ef906122c9565b604051638d361e4360e01b815273__$a5a42e46683ad9c79b7b86d5ff60fdf4c1$__90638d361e43906109209085908590600401612797565b600073__$a5a42e46683ad9c79b7b86d5ff60fdf4c1$__638da5cb5b6040518163ffffffff1660e01b8152600401602060405180830381865af4158015610bda573d6000803e3d6000fd5b604051632474521560e21b8152600481018390526001600160a01b038216602482015260009073__$a5a42e46683ad9c79b7b86d5ff60fdf4c1$__906391d1485490604401602060405180830381865af4158015611708573d6000803e3d6000fd5b505050506040513d601f19601f8201168201806040525081019061172c9190612262565b9392505050565b336001600160a01b031673__$a5a42e46683ad9c79b7b86d5ff60fdf4c1$__638da5cb5b6040518163ffffffff1660e01b8152600401602060405180830381865af4158015611786573d6000803e3d6000fd5b505050506040513d601f19601f820116820180604052508101906117aa91906122fe565b6001600160a01b0316146118005760405162461bcd60e51b815260206004820152601f60248201527f426173654163636573733a207265737472696374656420746f206f776e65720060448201526064016107ef565b6040516313af403560e01b81526001600160a01b038216600482015273__$a5a42e46683ad9c79b7b86d5ff60fdf4c1$__906313af40359060240160006040518083038186803b15801561185357600080fd5b505af4158015611360573d6000803e3d6000fd5b336001600160a01b037f000000000000000000000000000000000000000000000000000000000000000016146118af5760405162461bcd60e51b81526004016107ef90612284565b60016118b9611c54565b805460ff191691151591909117905560405133907f54ca6a4cb143be493713a7079cc0d6cdbbf0688ee68398b4354b056088f2cbf590600090a2565b604051630935e01b60e21b815233600482015273__$a5a42e46683ad9c79b7b86d5ff60fdf4c1$__906324d7806c90602401602060405180830381865af4158015611944573d6000803e3d6000fd5b505050506040513d601f19601f820116820180604052508101906119689190612262565b6119845760405162461bcd60e51b81526004016107ef906122c9565b60405163d547741f60e01b8152600481018390526001600160a01b038216602482015273__$a5a42e46683ad9c79b7b86d5ff60fdf4c1$__9063d547741f90604401610920565b604051630935e01b60e21b815233600482015273__$a5a42e46683ad9c79b7b86d5ff60fdf4c1$__906324d7806c90602401602060405180830381865af4158015611a1a573d6000803e3d6000fd5b505050506040513d601f19601f82011682018060405250810190611a3e9190612262565b611a5a5760405162461bcd60e51b81526004016107ef906122c9565b60405163e8906a2d60e01b815273__$a5a42e46683ad9c79b7b86d5ff60fdf4c1$__9063e8906a2d906109209085908590600401612797565b33611a9c611c54565b546201000090046001600160a01b031614611ac95760405162461bcd60e51b81526004016107ef906126fc565b336001600160a01b03166386b70bed6040518163ffffffff1660e01b8152600401602060405180830381865afa158015611b07573d6000803e3d6000fd5b505050506040513d601f19601f82011682018060405250810190611b2b9190612262565b611b475760405162461bcd60e51b81526004016107ef9061273d565b80611b50611bef565b60020190611b5e9082612642565b5050565b60408051808201909152601481527378722e656e746974792e73746f726167652e763160601b60209091015260008060ff611bbe60017fdefc82a28b6578c2a63b29b15450260a5e998242a6300b7fcb30814ee74ae1886127e5565b604051602001611bd091815260200190565b60408051601f1981840301815291905280516020909101201692915050565b60408051808201909152601881527f78722e657870657269656e63652e73746f726167652e7631000000000000000060209091015260008060ff611bbe60017fa13db16759b7af0e556c9648625a58e6d20b5ce76e5139c1b3ce33248c0a88526127e5565b60408051808201909152601881527f78722e61637469766174696f6e2e73746f726167652e7631000000000000000060209091015260008060ff611bbe60017ff6611e962a52dbc98dd0485088d920890c43e26113c61976f6e171a29d49ce496127e5565b336001600160a01b037f00000000000000000000000000000000000000000000000000000000000000001614611d015760405162461bcd60e51b81526004016107ef90612284565b611d09611c54565b5460ff1615611d695760405162461bcd60e51b815260206004820152602660248201527f52656d6f7661626c65456e746974793a206d757374206465616374697661746560448201526508199a5c9cdd60d21b60648201526084016107ef565b6001611d73611c54565b80549115156101000261ff001990921691909117905560405133907fbf430175840309fcb4cce13557429998477f9f95733cb0d42c170af8aa225d0690610843908490611e01565b6000815180845260005b81811015611de157602081850181015186830182015201611dc5565b506000602082860101526020601f19601f83011685010191505092915050565b60208152600061172c6020830184611dbb565b6001600160a01b0381168114611e2957600080fd5b50565b600060208284031215611e3e57600080fd5b813561172c81611e14565b634e487b7160e01b600052604160045260246000fd5b600067ffffffffffffffff80841115611e7a57611e7a611e49565b604051601f8501601f19908116603f01168101908282118183101715611ea257611ea2611e49565b81604052809350858152868686011115611ebb57600080fd5b858560208301376000602087830101525050509392505050565b600060208284031215611ee757600080fd5b813567ffffffffffffffff811115611efe57600080fd5b8201601f81018413611f0f57600080fd5b611f1e84823560208401611e5f565b949350505050565b60008060408385031215611f3957600080fd5b823591506020830135611f4b81611e14565b809150509250929050565b602081526000825160c06020840152611f7260e0840182611dbb565b90506020840151601f1980858403016040860152611f908383611dbb565b9250604086015191508085840301606086015250611fae8282611dbb565b91505060608401516080840152608084015160a084015260a084015160c08401528091505092915050565b600060608284031215611feb57600080fd5b6040516060810181811067ffffffffffffffff8211171561200e5761200e611e49565b604052823561201c81611e14565b8152602083013561202c81611e14565b6020820152604083013561203f81611e14565b60408201529392505050565b60008083601f84011261205d57600080fd5b50813567ffffffffffffffff81111561207557600080fd5b60208301915083602082850101111561208d57600080fd5b9250929050565b600080600080600080608087890312156120ad57600080fd5b863567ffffffffffffffff808211156120c557600080fd5b6120d18a838b0161204b565b9098509650602089013591506120e682611e14565b909450604088013590808211156120fc57600080fd5b9088019060c0828b03121561211057600080fd5b9093506060880135908082111561212657600080fd5b5061213389828a0161204b565b979a9699509497509295939492505050565b60006020828403121561215757600080fd5b5035919050565b6000806020838503121561217157600080fd5b823567ffffffffffffffff8082111561218957600080fd5b818501915085601f83011261219d57600080fd5b8135818111156121ac57600080fd5b8660208260051b85010111156121c157600080fd5b60209290920196919550909350505050565b600082601f8301126121e457600080fd5b61172c83833560208501611e5f565b60006020828403121561220557600080fd5b813567ffffffffffffffff81111561221c57600080fd5b611f1e848285016121d3565b600181811c9082168061223c57607f821691505b60208210810361225c57634e487b7160e01b600052602260045260246000fd5b50919050565b60006020828403121561227457600080fd5b8151801515811461172c57600080fd5b60208082526025908201527f52656d6f7661626c65456e746974793a206f6e6c79206f776e696e6720726567604082015264697374727960d81b606082015260800190565b6020808252818101527f426173654163636573733a207265737472696374656420746f2061646d696e73604082015260600190565b60006020828403121561231057600080fd5b815161172c81611e14565b60006020828403121561232d57600080fd5b5051919050565b601f82111561237c576000816000526020600020601f850160051c8101602086101561235d5750805b601f850160051c820191505b8181101561094c57828155600101612369565b505050565b600019600383901b1c191660019190911b1790565b67ffffffffffffffff8311156123ae576123ae611e49565b6123c2836123bc8354612228565b83612334565b6000601f8411600181146123f057600085156123de5750838201355b6123e88682612381565b845550611360565b600083815260209020601f19861690835b828110156124215786850135825560209485019460019092019101612401565b508682101561243e5760001960f88860031b161c19848701351681555b505060018560011b0183555050505050565b6000808335601e1984360301811261246757600080fd5b83018035915067ffffffffffffffff82111561248257600080fd5b60200191503681900382131561208d57600080fd5b6124a18283612450565b67ffffffffffffffff8111156124b9576124b9611e49565b6124cd816124c78554612228565b85612334565b6000601f8211600181146124fb57600083156124e95750838201355b6124f38482612381565b865550612555565b600085815260209020601f19841690835b8281101561252c578685013582556020948501946001909201910161250c565b50848210156125495760001960f88660031b161c19848701351681555b505060018360011b0185555b505050506125666020830183612450565b612574818360018601612396565b50506125836040830183612450565b612591818360028601612396565b5050606082013560038201556080820135600482015560a082013560058201555050565b6000602082840312156125c757600080fd5b813567ffffffffffffffff808211156125df57600080fd5b90830190604082860312156125f357600080fd5b60405160408101818110838211171561260e5761260e611e49565b6040528235815260208301358281111561262757600080fd5b612633878286016121d3565b60208301525095945050505050565b815167ffffffffffffffff81111561265c5761265c611e49565b6126708161266a8454612228565b84612334565b602080601f83116001811461269f576000841561268d5750858301515b6126978582612381565b86555061094c565b600085815260208120601f198616915b828110156126ce578886015182559484019460019091019084016126af565b50858210156126ec5787850151600019600388901b60f8161c191681555b5050505050600190811b01905550565b60208082526021908201527f457870657269656e63653a204f6e6c7920636f6d70616e792063616e2063616c6040820152601b60fa1b606082015260800190565b60208082526021908201527f457870657269656e63653a20436f6d70616e79206973206e6f742061637469766040820152606560f81b606082015260800190565b828152604060208201526000611f1e6040830184611dbb565b60208082528181018390526000908460408401835b868110156127da5782356127bf81611e14565b6001600160a01b0316825291830191908301906001016127ac565b509695505050505050565b818103818111156107a157634e487b7160e01b600052601160045260246000fdfea264697066735822122015e35524ad04a5504cccb65571d2fbc3fef25b3e5e73a50798ff2c945c30e4bf64736f6c63430008180033",
  "linkReferences": {
    "contracts/libraries/LibAccess.sol": {
      "LibAccess": [
        {
          "length": 20,
          "start": 2559
        },
        {
          "length": 20,
          "start": 2848
        },
        {
          "length": 20,
          "start": 3007
        },
        {
          "length": 20,
          "start": 5720
        },
        {
          "length": 20,
          "start": 6245
        },
        {
          "length": 20,
          "start": 6382
        },
        {
          "length": 20,
          "start": 6428
        },
        {
          "length": 20,
          "start": 6539
        },
        {
          "length": 20,
          "start": 6652
        },
        {
          "length": 20,
          "start": 6875
        },
        {
          "length": 20,
          "start": 7111
        },
        {
          "length": 20,
          "start": 7270
        },
        {
          "length": 20,
          "start": 7325
        },
        {
          "length": 20,
          "start": 7462
        }
      ]
    }
  },
  "deployedLinkReferences": {
    "contracts/libraries/LibAccess.sol": {
      "LibAccess": [
        {
          "length": 20,
          "start": 1858
        },
        {
          "length": 20,
          "start": 2147
        },
        {
          "length": 20,
          "start": 2306
        },
        {
          "length": 20,
          "start": 5019
        },
        {
          "length": 20,
          "start": 5544
        },
        {
          "length": 20,
          "start": 5681
        },
        {
          "length": 20,
          "start": 5727
        },
        {
          "length": 20,
          "start": 5838
        },
        {
          "length": 20,
          "start": 5951
        },
        {
          "length": 20,
          "start": 6174
        },
        {
          "length": 20,
          "start": 6410
        },
        {
          "length": 20,
          "start": 6569
        },
        {
          "length": 20,
          "start": 6624
        },
        {
          "length": 20,
          "start": 6761
        }
      ]
    }
  }
}