{
  "_format": "hh-sol-artifact-1",
  "contractName": "ExperienceRegistry",
  "sourceName": "contracts/experience/registry/ExperienceRegistry.sol",
  "abi": [
    {
      "inputs": [
        {
          "components": [
            {
              "internalType": "address",
              "name": "companyRegistry",
              "type": "address"
            },
            {
              "internalType": "address",
              "name": "worldRegistry",
              "type": "address"
            }
          ],
          "internalType": "struct ExperienceRegistryConstructorArgs",
          "name": "args",
          "type": "tuple"
        }
      ],
      "stateMutability": "nonpayable",
      "type": "constructor"
    },
    {
      "anonymous": false,
      "inputs": [
        {
          "indexed": true,
          "internalType": "address",
          "name": "entity",
          "type": "address"
        },
        {
          "indexed": true,
          "internalType": "address",
          "name": "by",
          "type": "address"
        }
      ],
      "name": "EntityRegistrationRenewed",
      "type": "event"
    },
    {
      "anonymous": false,
      "inputs": [
        {
          "indexed": true,
          "internalType": "address",
          "name": "world",
          "type": "address"
        },
        {
          "indexed": false,
          "internalType": "string",
          "name": "reason",
          "type": "string"
        }
      ],
      "name": "RegistrarDeactivatedWorld",
      "type": "event"
    },
    {
      "anonymous": false,
      "inputs": [
        {
          "indexed": true,
          "internalType": "address",
          "name": "world",
          "type": "address"
        }
      ],
      "name": "RegistrarReactivatedWorld",
      "type": "event"
    },
    {
      "anonymous": false,
      "inputs": [
        {
          "indexed": true,
          "internalType": "address",
          "name": "world",
          "type": "address"
        },
        {
          "indexed": false,
          "internalType": "string",
          "name": "reason",
          "type": "string"
        }
      ],
      "name": "RegistrarRemovedWorld",
      "type": "event"
    },
    {
      "anonymous": false,
      "inputs": [
        {
          "indexed": true,
          "internalType": "address",
          "name": "entity",
          "type": "address"
        },
        {
          "indexed": true,
          "internalType": "address",
          "name": "owner",
          "type": "address"
        }
      ],
      "name": "RegistryAddedEntity",
      "type": "event"
    },
    {
      "anonymous": false,
      "inputs": [
        {
          "indexed": true,
          "internalType": "address",
          "name": "entity",
          "type": "address"
        },
        {
          "indexed": false,
          "internalType": "string",
          "name": "reason",
          "type": "string"
        }
      ],
      "name": "RegistryDeactivatedEntity",
      "type": "event"
    },
    {
      "anonymous": false,
      "inputs": [
        {
          "indexed": true,
          "internalType": "address",
          "name": "entity",
          "type": "address"
        }
      ],
      "name": "RegistryEnforcedDeactivation",
      "type": "event"
    },
    {
      "anonymous": false,
      "inputs": [
        {
          "indexed": true,
          "internalType": "address",
          "name": "entity",
          "type": "address"
        }
      ],
      "name": "RegistryEnforcedRemoval",
      "type": "event"
    },
    {
      "anonymous": false,
      "inputs": [
        {
          "indexed": true,
          "internalType": "address",
          "name": "entity",
          "type": "address"
        }
      ],
      "name": "RegistryReactivatedEntity",
      "type": "event"
    },
    {
      "anonymous": false,
      "inputs": [
        {
          "indexed": true,
          "internalType": "address",
          "name": "entity",
          "type": "address"
        },
        {
          "indexed": false,
          "internalType": "string",
          "name": "reason",
          "type": "string"
        }
      ],
      "name": "RegistryRemovedEntity",
      "type": "event"
    },
    {
      "inputs": [
        {
          "internalType": "address[]",
          "name": "signers",
          "type": "address[]"
        }
      ],
      "name": "addSigners",
      "outputs": [],
      "stateMutability": "nonpayable",
      "type": "function"
    },
    {
      "inputs": [
        {
          "internalType": "address",
          "name": "addr",
          "type": "address"
        }
      ],
      "name": "canBeDeactivated",
      "outputs": [
        {
          "internalType": "bool",
          "name": "",
          "type": "bool"
        }
      ],
      "stateMutability": "view",
      "type": "function"
    },
    {
      "inputs": [
        {
          "internalType": "address",
          "name": "addr",
          "type": "address"
        }
      ],
      "name": "canBeRemoved",
      "outputs": [
        {
          "internalType": "bool",
          "name": "",
          "type": "bool"
        }
      ],
      "stateMutability": "view",
      "type": "function"
    },
    {
      "inputs": [
        {
          "components": [
            {
              "internalType": "address",
              "name": "entity",
              "type": "address"
            },
            {
              "internalType": "bytes",
              "name": "entitySignature",
              "type": "bytes"
            },
            {
              "internalType": "uint256",
              "name": "expiration",
              "type": "uint256"
            },
            {
              "components": [
                {
                  "internalType": "uint16",
                  "name": "coveragePeriodDays",
                  "type": "uint16"
                },
                {
                  "internalType": "uint16",
                  "name": "gracePeriodDays",
                  "type": "uint16"
                },
                {
                  "internalType": "uint256",
                  "name": "fee",
                  "type": "uint256"
                }
              ],
              "internalType": "struct RegistrationTerms",
              "name": "terms",
              "type": "tuple"
            }
          ],
          "internalType": "struct ChangeEntityTermsArgs",
          "name": "args",
          "type": "tuple"
        }
      ],
      "name": "changeEntityTerms",
      "outputs": [],
      "stateMutability": "nonpayable",
      "type": "function"
    },
    {
      "inputs": [
        {
          "internalType": "address",
          "name": "newOwner",
          "type": "address"
        }
      ],
      "name": "changeOwner",
      "outputs": [],
      "stateMutability": "nonpayable",
      "type": "function"
    },
    {
      "inputs": [],
      "name": "companyRegistry",
      "outputs": [
        {
          "internalType": "contract ICompanyRegistry",
          "name": "",
          "type": "address"
        }
      ],
      "stateMutability": "view",
      "type": "function"
    },
    {
      "inputs": [
        {
          "components": [
            {
              "internalType": "address",
              "name": "company",
              "type": "address"
            },
            {
              "internalType": "string",
              "name": "name",
              "type": "string"
            },
            {
              "components": [
                {
                  "internalType": "string",
                  "name": "x",
                  "type": "string"
                },
                {
                  "internalType": "string",
                  "name": "y",
                  "type": "string"
                },
                {
                  "internalType": "string",
                  "name": "z",
                  "type": "string"
                },
                {
                  "internalType": "uint256",
                  "name": "t",
                  "type": "uint256"
                },
                {
                  "internalType": "uint256",
                  "name": "p",
                  "type": "uint256"
                },
                {
                  "internalType": "uint256",
                  "name": "p_sub",
                  "type": "uint256"
                }
              ],
              "internalType": "struct VectorAddress",
              "name": "vector",
              "type": "tuple"
            },
            {
              "internalType": "bytes",
              "name": "initData",
              "type": "bytes"
            }
          ],
          "internalType": "struct CreateExperienceArgs",
          "name": "args",
          "type": "tuple"
        }
      ],
      "name": "createExperience",
      "outputs": [
        {
          "internalType": "address",
          "name": "proxy",
          "type": "address"
        },
        {
          "internalType": "uint256",
          "name": "portalId",
          "type": "uint256"
        }
      ],
      "stateMutability": "payable",
      "type": "function"
    },
    {
      "inputs": [
        {
          "internalType": "contract IRemovableEntity",
          "name": "entity",
          "type": "address"
        },
        {
          "internalType": "string",
          "name": "reason",
          "type": "string"
        }
      ],
      "name": "deactivateEntity",
      "outputs": [],
      "stateMutability": "nonpayable",
      "type": "function"
    },
    {
      "inputs": [
        {
          "internalType": "address",
          "name": "company",
          "type": "address"
        },
        {
          "internalType": "address",
          "name": "exp",
          "type": "address"
        },
        {
          "internalType": "string",
          "name": "reason",
          "type": "string"
        }
      ],
      "name": "deactivateExperience",
      "outputs": [],
      "stateMutability": "nonpayable",
      "type": "function"
    },
    {
      "inputs": [
        {
          "internalType": "contract IRemovableEntity",
          "name": "addr",
          "type": "address"
        }
      ],
      "name": "enforceDeactivation",
      "outputs": [],
      "stateMutability": "nonpayable",
      "type": "function"
    },
    {
      "inputs": [
        {
          "internalType": "contract IRemovableEntity",
          "name": "e",
          "type": "address"
        }
      ],
      "name": "enforceRemoval",
      "outputs": [],
      "stateMutability": "nonpayable",
      "type": "function"
    },
    {
      "inputs": [
        {
          "internalType": "string",
          "name": "name",
          "type": "string"
        }
      ],
      "name": "getEntityByName",
      "outputs": [
        {
          "internalType": "address",
          "name": "",
          "type": "address"
        }
      ],
      "stateMutability": "view",
      "type": "function"
    },
    {
      "inputs": [
        {
          "components": [
            {
              "internalType": "string",
              "name": "x",
              "type": "string"
            },
            {
              "internalType": "string",
              "name": "y",
              "type": "string"
            },
            {
              "internalType": "string",
              "name": "z",
              "type": "string"
            },
            {
              "internalType": "uint256",
              "name": "t",
              "type": "uint256"
            },
            {
              "internalType": "uint256",
              "name": "p",
              "type": "uint256"
            },
            {
              "internalType": "uint256",
              "name": "p_sub",
              "type": "uint256"
            }
          ],
          "internalType": "struct VectorAddress",
          "name": "vector",
          "type": "tuple"
        }
      ],
      "name": "getEntityByVector",
      "outputs": [
        {
          "internalType": "address",
          "name": "",
          "type": "address"
        }
      ],
      "stateMutability": "view",
      "type": "function"
    },
    {
      "inputs": [],
      "name": "getEntityImplementation",
      "outputs": [
        {
          "internalType": "address",
          "name": "",
          "type": "address"
        }
      ],
      "stateMutability": "view",
      "type": "function"
    },
    {
      "inputs": [
        {
          "internalType": "address",
          "name": "addr",
          "type": "address"
        }
      ],
      "name": "getEntityTerms",
      "outputs": [
        {
          "components": [
            {
              "internalType": "uint16",
              "name": "coveragePeriodDays",
              "type": "uint16"
            },
            {
              "internalType": "uint16",
              "name": "gracePeriodDays",
              "type": "uint16"
            },
            {
              "internalType": "uint256",
              "name": "fee",
              "type": "uint256"
            }
          ],
          "internalType": "struct RegistrationTerms",
          "name": "",
          "type": "tuple"
        }
      ],
      "stateMutability": "view",
      "type": "function"
    },
    {
      "inputs": [],
      "name": "getEntityVersion",
      "outputs": [
        {
          "components": [
            {
              "internalType": "uint16",
              "name": "major",
              "type": "uint16"
            },
            {
              "internalType": "uint16",
              "name": "minor",
              "type": "uint16"
            }
          ],
          "internalType": "struct Version",
          "name": "",
          "type": "tuple"
        }
      ],
      "stateMutability": "view",
      "type": "function"
    },
    {
      "inputs": [
        {
          "internalType": "address",
          "name": "addr",
          "type": "address"
        }
      ],
      "name": "getExpiration",
      "outputs": [
        {
          "internalType": "uint256",
          "name": "",
          "type": "uint256"
        }
      ],
      "stateMutability": "view",
      "type": "function"
    },
    {
      "inputs": [
        {
          "internalType": "address",
          "name": "addr",
          "type": "address"
        }
      ],
      "name": "getLastRenewal",
      "outputs": [
        {
          "internalType": "uint256",
          "name": "",
          "type": "uint256"
        }
      ],
      "stateMutability": "view",
      "type": "function"
    },
    {
      "inputs": [],
      "name": "getProxyImplementation",
      "outputs": [
        {
          "internalType": "address",
          "name": "",
          "type": "address"
        }
      ],
      "stateMutability": "view",
      "type": "function"
    },
    {
      "inputs": [
        {
          "internalType": "bytes32",
          "name": "role",
          "type": "bytes32"
        },
        {
          "internalType": "address",
          "name": "account",
          "type": "address"
        }
      ],
      "name": "grantRole",
      "outputs": [],
      "stateMutability": "nonpayable",
      "type": "function"
    },
    {
      "inputs": [
        {
          "internalType": "bytes32",
          "name": "role",
          "type": "bytes32"
        },
        {
          "internalType": "address",
          "name": "account",
          "type": "address"
        }
      ],
      "name": "hasRole",
      "outputs": [
        {
          "internalType": "bool",
          "name": "",
          "type": "bool"
        }
      ],
      "stateMutability": "view",
      "type": "function"
    },
    {
      "inputs": [
        {
          "internalType": "address",
          "name": "account",
          "type": "address"
        }
      ],
      "name": "isAdmin",
      "outputs": [
        {
          "internalType": "bool",
          "name": "",
          "type": "bool"
        }
      ],
      "stateMutability": "view",
      "type": "function"
    },
    {
      "inputs": [
        {
          "internalType": "address",
          "name": "addr",
          "type": "address"
        }
      ],
      "name": "isExpired",
      "outputs": [
        {
          "internalType": "bool",
          "name": "",
          "type": "bool"
        }
      ],
      "stateMutability": "view",
      "type": "function"
    },
    {
      "inputs": [
        {
          "internalType": "address",
          "name": "addr",
          "type": "address"
        }
      ],
      "name": "isInGracePeriod",
      "outputs": [
        {
          "internalType": "bool",
          "name": "",
          "type": "bool"
        }
      ],
      "stateMutability": "view",
      "type": "function"
    },
    {
      "inputs": [
        {
          "internalType": "address",
          "name": "addr",
          "type": "address"
        }
      ],
      "name": "isRegistered",
      "outputs": [
        {
          "internalType": "bool",
          "name": "",
          "type": "bool"
        }
      ],
      "stateMutability": "view",
      "type": "function"
    },
    {
      "inputs": [
        {
          "internalType": "address",
          "name": "account",
          "type": "address"
        }
      ],
      "name": "isSigner",
      "outputs": [
        {
          "internalType": "bool",
          "name": "",
          "type": "bool"
        }
      ],
      "stateMutability": "view",
      "type": "function"
    },
    {
      "inputs": [],
      "name": "owner",
      "outputs": [
        {
          "internalType": "address",
          "name": "",
          "type": "address"
        }
      ],
      "stateMutability": "view",
      "type": "function"
    },
    {
      "inputs": [
        {
          "internalType": "contract IRemovableEntity",
          "name": "entity",
          "type": "address"
        }
      ],
      "name": "reactivateEntity",
      "outputs": [],
      "stateMutability": "nonpayable",
      "type": "function"
    },
    {
      "inputs": [
        {
          "internalType": "address",
          "name": "company",
          "type": "address"
        },
        {
          "internalType": "address",
          "name": "exp",
          "type": "address"
        }
      ],
      "name": "reactivateExperience",
      "outputs": [],
      "stateMutability": "nonpayable",
      "type": "function"
    },
    {
      "inputs": [
        {
          "internalType": "contract IRemovableEntity",
          "name": "entity",
          "type": "address"
        },
        {
          "internalType": "string",
          "name": "reason",
          "type": "string"
        }
      ],
      "name": "removeEntity",
      "outputs": [],
      "stateMutability": "nonpayable",
      "type": "function"
    },
    {
      "inputs": [
        {
          "internalType": "address",
          "name": "company",
          "type": "address"
        },
        {
          "internalType": "address",
          "name": "exp",
          "type": "address"
        },
        {
          "internalType": "string",
          "name": "reason",
          "type": "string"
        }
      ],
      "name": "removeExperience",
      "outputs": [
        {
          "internalType": "uint256",
          "name": "portalId",
          "type": "uint256"
        }
      ],
      "stateMutability": "nonpayable",
      "type": "function"
    },
    {
      "inputs": [
        {
          "internalType": "address[]",
          "name": "signers",
          "type": "address[]"
        }
      ],
      "name": "removeSigners",
      "outputs": [],
      "stateMutability": "nonpayable",
      "type": "function"
    },
    {
      "inputs": [
        {
          "internalType": "address",
          "name": "addr",
          "type": "address"
        }
      ],
      "name": "renewEntity",
      "outputs": [],
      "stateMutability": "payable",
      "type": "function"
    },
    {
      "inputs": [
        {
          "internalType": "bytes32",
          "name": "role",
          "type": "bytes32"
        },
        {
          "internalType": "address",
          "name": "account",
          "type": "address"
        }
      ],
      "name": "revokeRole",
      "outputs": [],
      "stateMutability": "nonpayable",
      "type": "function"
    },
    {
      "inputs": [
        {
          "internalType": "address",
          "name": "_entityImplementation",
          "type": "address"
        }
      ],
      "name": "setEntityImplementation",
      "outputs": [],
      "stateMutability": "nonpayable",
      "type": "function"
    },
    {
      "inputs": [
        {
          "internalType": "address",
          "name": "_proxyImplementation",
          "type": "address"
        }
      ],
      "name": "setProxyImplementation",
      "outputs": [],
      "stateMutability": "nonpayable",
      "type": "function"
    },
    {
      "inputs": [],
      "name": "version",
      "outputs": [
        {
          "components": [
            {
              "internalType": "uint16",
              "name": "major",
              "type": "uint16"
            },
            {
              "internalType": "uint16",
              "name": "minor",
              "type": "uint16"
            }
          ],
          "internalType": "struct Version",
          "name": "",
          "type": "tuple"
        }
      ],
      "stateMutability": "pure",
      "type": "function"
    },
    {
      "inputs": [],
      "name": "worldRegistry",
      "outputs": [
        {
          "internalType": "contract IWorldRegistry",
          "name": "",
          "type": "address"
        }
      ],
      "stateMutability": "view",
      "type": "function"
    }
  ],
  "bytecode": "0x60c06040523480156200001157600080fd5b5060405162003aa538038062003aa5833981016040819052620000349162000152565b80516001600160a01b0316620000a65760405162461bcd60e51b815260206004820152602c60248201527f457870657269656e636552656769737472793a20496e76616c696420636f6d7060448201526b616e7920726567697374727960a01b60648201526084015b60405180910390fd5b60208101516001600160a01b0316620001155760405162461bcd60e51b815260206004820152602a60248201527f457870657269656e636552656769737472793a20496e76616c696420776f726c6044820152696420726567697374727960b01b60648201526084016200009d565b80516001600160a01b039081166080526020909101511660a052620001c0565b80516001600160a01b03811681146200014d57600080fd5b919050565b6000604082840312156200016557600080fd5b604080519081016001600160401b03811182821017156200019657634e487b7160e01b600052604160045260246000fd5b604052620001a48362000135565b8152620001b46020840162000135565b60208201529392505050565b60805160a0516138a362000202600039600081816105030152818161098801528181610e18015281816117a901526122600152600061063701526138a36000f3fe6080604052600436106102255760003560e01c806391026f1911610123578063c3c5a547116100ab578063d6fbe0201161006f578063d6fbe020146106b9578063e2482bf9146106cc578063e8906a2d146106ec578063f751e01a1461070c578063f82e2fb31461073e57600080fd5b8063c3c5a54714610605578063c51aba2b14610625578063c747e47e14610659578063cdbe221114610679578063d547741f1461069957600080fd5b8063a6f9dae1116100f2578063a6f9dae114610565578063a8c88c1714610585578063af08d53d146105a5578063b6db923d146105c5578063ba2eb541146105e557600080fd5b806391026f19146104d1578063911c2a8c146104f157806391d14854146105255780639fdcd3a41461054557600080fd5b80634ec70a48116101b1578063693c79b211610175578063693c79b2146104475780637df73e27146104675780638d361e43146104875780638da5cb5b146104a757806390e4b720146104bc57600080fd5b80634ec70a481461038757806354fd4d50146103a75780635726c94e146103fd5780635e0409621461041d578063689c48f01461043257600080fd5b80632f2ff15d116101f85780632f2ff15d146102c15780633e88a4e2146102e157806346213f4a146103195780634ae134cc146103475780634d4965f31461036757600080fd5b806301f242301461022a578063033a5b601461024c578063200e4e111461026c57806324d7806c1461028c575b600080fd5b34801561023657600080fd5b5061024a610245366004612be4565b61076b565b005b34801561025857600080fd5b5061024a610267366004612c49565b6107da565b34801561027857600080fd5b5061024a610287366004612c9d565b610971565b34801561029857600080fd5b506102ac6102a7366004612be4565b610be6565b60405190151581526020015b60405180910390f35b3480156102cd57600080fd5b5061024a6102dc366004612d01565b610c6c565b3480156102ed57600080fd5b506103016102fc366004612d31565b610d72565b6040516001600160a01b0390911681526020016102b8565b34801561032557600080fd5b50610339610334366004612c9d565b610df6565b6040519081526020016102b8565b34801561035357600080fd5b5061024a610362366004612be4565b61110b565b34801561037357600080fd5b5061024a610382366004612d8a565b61114b565b34801561039357600080fd5b506103396103a2366004612be4565b6112df565b3480156103b357600080fd5b5060408051808201825260008082526020918201819052825180840190935260018352908201525b60408051825161ffff90811682526020938401511692810192909252016102b8565b34801561040957600080fd5b50610339610418366004612be4565b61135f565b34801561042957600080fd5b506103db6113a2565b34801561043e57600080fd5b50610301611427565b34801561045357600080fd5b5061024a610462366004612be4565b611496565b34801561047357600080fd5b506102ac610482366004612be4565b6115f1565b34801561049357600080fd5b5061024a6104a2366004612dc6565b611634565b3480156104b357600080fd5b506103016116fc565b3480156104c857600080fd5b50610301611747565b3480156104dd57600080fd5b5061024a6104ec366004612e3a565b611792565b3480156104fd57600080fd5b506103017f000000000000000000000000000000000000000000000000000000000000000081565b34801561053157600080fd5b506102ac610540366004612d01565b611a0c565b34801561055157600080fd5b5061024a610560366004612be4565b611a92565b34801561057157600080fd5b5061024a610580366004612be4565b611b61565b34801561059157600080fd5b506102ac6105a0366004612be4565b611c6e565b3480156105b157600080fd5b5061024a6105c0366004612c49565b611cb1565b3480156105d157600080fd5b506102ac6105e0366004612be4565b611e07565b3480156105f157600080fd5b506102ac610600366004612be4565b611e4a565b34801561061157600080fd5b506102ac610620366004612be4565b611e8d565b34801561063157600080fd5b506103017f000000000000000000000000000000000000000000000000000000000000000081565b34801561066557600080fd5b50610301610674366004612d8a565b611ed0565b34801561068557600080fd5b5061024a610694366004612be4565b611f4b565b3480156106a557600080fd5b5061024a6106b4366004612d01565b61201a565b61024a6106c7366004612be4565b6120f0565b3480156106d857600080fd5b506102ac6106e7366004612be4565b612130565b3480156106f857600080fd5b5061024a610707366004612dc6565b612173565b61071f61071a366004612e68565b61223b565b604080516001600160a01b0390931683526020830191909152016102b8565b34801561074a57600080fd5b5061075e610759366004612be4565b6128ec565b6040516102b89190612ea2565b604051630a53217360e11b81526001600160a01b038216600482015273__$1822254560a4f971c7e72253c3a08363e7$__906314a642e6906024015b60006040518083038186803b1580156107bf57600080fd5b505af41580156107d3573d6000803e3d6000fd5b5050505050565b826000819050336001600160a01b0316816001600160a01b03166369bd91946040518163ffffffff1660e01b8152600401602060405180830381865afa158015610828573d6000803e3d6000fd5b505050506040513d601f19601f8201168201806040525081019061084c9190612ecc565b6001600160a01b03161461087b5760405162461bcd60e51b815260040161087290612ee9565b60405180910390fd5b6000339050806001600160a01b0316634f05c1c86040518163ffffffff1660e01b8152600401602060405180830381865afa1580156108be573d6000803e3d6000fd5b505050506040513d601f19601f820116820180604052508101906108e29190612f46565b6108fe5760405162461bcd60e51b815260040161087290612f68565b60405163ede71a1760e01b815273__$1822254560a4f971c7e72253c3a08363e7$__9063ede71a179061093990899089908990600401612fdc565b60006040518083038186803b15801561095157600080fd5b505af4158015610965573d6000803e3d6000fd5b50505050505050505050565b60405163c3c5a54760e01b815233600482015284907f00000000000000000000000000000000000000000000000000000000000000006001600160a01b03169063c3c5a54790602401602060405180830381865afa1580156109d7573d6000803e3d6000fd5b505050506040513d601f19601f820116820180604052508101906109fb9190612f46565b610a175760405162461bcd60e51b81526004016108729061300a565b336001600160a01b03166386b70bed6040518163ffffffff1660e01b8152600401602060405180830381865afa158015610a55573d6000803e3d6000fd5b505050506040513d601f19601f82011682018060405250810190610a799190612f46565b610a955760405162461bcd60e51b81526004016108729061305e565b6000816001600160a01b03166330b67baa6040518163ffffffff1660e01b8152600401602060405180830381865afa158015610ad5573d6000803e3d6000fd5b505050506040513d601f19601f82011682018060405250810190610af99190612ecc565b90506001600160a01b0381163314610b235760405162461bcd60e51b8152600401610872906130ac565b816001600160a01b03166386b70bed6040518163ffffffff1660e01b8152600401602060405180830381865afa158015610b61573d6000803e3d6000fd5b505050506040513d601f19601f82011682018060405250810190610b859190612f46565b610ba15760405162461bcd60e51b815260040161087290613109565b610bab8686612981565b60405163ede71a1760e01b815273__$1822254560a4f971c7e72253c3a08363e7$__9063ede71a179061093990889088908890600401612fdc565b604051630935e01b60e21b81526001600160a01b038216600482015260009073__$a5a42e46683ad9c79b7b86d5ff60fdf4c1$__906324d7806c906024015b602060405180830381865af4158015610c42573d6000803e3d6000fd5b505050506040513d601f19601f82011682018060405250810190610c669190612f46565b92915050565b604051630935e01b60e21b815233600482015273__$a5a42e46683ad9c79b7b86d5ff60fdf4c1$__906324d7806c90602401602060405180830381865af4158015610cbb573d6000803e3d6000fd5b505050506040513d601f19601f82011682018060405250810190610cdf9190612f46565b610cfb5760405162461bcd60e51b815260040161087290613152565b604051632f2ff15d60e01b8152600481018390526001600160a01b038216602482015273__$a5a42e46683ad9c79b7b86d5ff60fdf4c1$__90632f2ff15d906044015b60006040518083038186803b158015610d5657600080fd5b505af4158015610d6a573d6000803e3d6000fd5b505050505050565b604051631f44527160e11b815260009073__$d81eab81c4f96e94de97b51155a369ac43$__90633e88a4e290610dae9086908690600401613187565b602060405180830381865af4158015610dcb573d6000803e3d6000fd5b505050506040513d601f19601f82011682018060405250810190610def9190612ecc565b9392505050565b60405163c3c5a54760e01b815233600482015260009085906001600160a01b037f0000000000000000000000000000000000000000000000000000000000000000169063c3c5a54790602401602060405180830381865afa158015610e5f573d6000803e3d6000fd5b505050506040513d601f19601f82011682018060405250810190610e839190612f46565b610e9f5760405162461bcd60e51b81526004016108729061300a565b336001600160a01b03166386b70bed6040518163ffffffff1660e01b8152600401602060405180830381865afa158015610edd573d6000803e3d6000fd5b505050506040513d601f19601f82011682018060405250810190610f019190612f46565b610f1d5760405162461bcd60e51b81526004016108729061305e565b6000816001600160a01b03166330b67baa6040518163ffffffff1660e01b8152600401602060405180830381865afa158015610f5d573d6000803e3d6000fd5b505050506040513d601f19601f82011682018060405250810190610f819190612ecc565b90506001600160a01b0381163314610fab5760405162461bcd60e51b8152600401610872906130ac565b816001600160a01b03166386b70bed6040518163ffffffff1660e01b8152600401602060405180830381865afa158015610fe9573d6000803e3d6000fd5b505050506040513d601f19601f8201168201806040525081019061100d9190612f46565b6110295760405162461bcd60e51b815260040161087290613109565b6110338787612981565b604051633f111a5d60e21b815273__$1822254560a4f971c7e72253c3a08363e7$__9063fc4469749061106e90899089908990600401612fdc565b60006040518083038186803b15801561108657600080fd5b505af415801561109a573d6000803e3d6000fd5b50505050856001600160a01b0316637d692cad6040518163ffffffff1660e01b8152600401602060405180830381865afa1580156110dc573d6000803e3d6000fd5b505050506040513d601f19601f82011682018060405250810190611100919061319b565b979650505050505050565b6040516347ef542760e01b81526001600160a01b038216600482015273__$1822254560a4f971c7e72253c3a08363e7$__906347ef5427906024016107a7565b6111586020820182612be4565b6000819050336001600160a01b0316816001600160a01b03166369bd91946040518163ffffffff1660e01b8152600401602060405180830381865afa1580156111a5573d6000803e3d6000fd5b505050506040513d601f19601f820116820180604052508101906111c99190612ecc565b6001600160a01b0316146111ef5760405162461bcd60e51b815260040161087290612ee9565b6000339050806001600160a01b0316634f05c1c86040518163ffffffff1660e01b8152600401602060405180830381865afa158015611232573d6000803e3d6000fd5b505050506040513d601f19601f820116820180604052508101906112569190612f46565b6112725760405162461bcd60e51b815260040161087290612f68565b604051630bca13f760e41b815273__$d81eab81c4f96e94de97b51155a369ac43$__9063bca13f70906112a9908790600401613209565b60006040518083038186803b1580156112c157600080fd5b505af41580156112d5573d6000803e3d6000fd5b5050505050505050565b6040516309d8e14960e31b81526001600160a01b038216600482015260009073__$1822254560a4f971c7e72253c3a08363e7$__90634ec70a48906024015b602060405180830381865af415801561133b573d6000803e3d6000fd5b505050506040513d601f19601f82011682018060405250810190610c66919061319b565b604051632b9364a760e11b81526001600160a01b038216600482015260009073__$1822254560a4f971c7e72253c3a08363e7$__90635726c94e9060240161131e565b604080518082019091526000808252602082015273__$e1fef5d4b1bfc4a605b7eb127c84f71416$__635e0409626040518163ffffffff1660e01b81526004016040805180830381865af41580156113fe573d6000803e3d6000fd5b505050506040513d601f19601f8201168201806040525081019061142291906132dd565b905090565b600073__$e1fef5d4b1bfc4a605b7eb127c84f71416$__63689c48f06040518163ffffffff1660e01b8152600401602060405180830381865af4158015611472573d6000803e3d6000fd5b505050506040513d601f19601f820116820180604052508101906114229190612ecc565b806000819050336001600160a01b0316816001600160a01b03166369bd91946040518163ffffffff1660e01b8152600401602060405180830381865afa1580156114e4573d6000803e3d6000fd5b505050506040513d601f19601f820116820180604052508101906115089190612ecc565b6001600160a01b03161461152e5760405162461bcd60e51b815260040161087290612ee9565b6000339050806001600160a01b0316634f05c1c86040518163ffffffff1660e01b8152600401602060405180830381865afa158015611571573d6000803e3d6000fd5b505050506040513d601f19601f820116820180604052508101906115959190612f46565b6115b15760405162461bcd60e51b815260040161087290612f68565b60405163699f380760e11b81526001600160a01b038516600482015273__$1822254560a4f971c7e72253c3a08363e7$__9063d33e700e906024016112a9565b604051637df73e2760e01b81526001600160a01b038216600482015260009073__$a5a42e46683ad9c79b7b86d5ff60fdf4c1$__90637df73e2790602401610c25565b604051630935e01b60e21b815233600482015273__$a5a42e46683ad9c79b7b86d5ff60fdf4c1$__906324d7806c90602401602060405180830381865af4158015611683573d6000803e3d6000fd5b505050506040513d601f19601f820116820180604052508101906116a79190612f46565b6116c35760405162461bcd60e51b815260040161087290613152565b604051638d361e4360e01b815273__$a5a42e46683ad9c79b7b86d5ff60fdf4c1$__90638d361e4390610d3e908590859060040161333b565b600073__$a5a42e46683ad9c79b7b86d5ff60fdf4c1$__638da5cb5b6040518163ffffffff1660e01b8152600401602060405180830381865af4158015611472573d6000803e3d6000fd5b600073__$e1fef5d4b1bfc4a605b7eb127c84f71416$__6390e4b7206040518163ffffffff1660e01b8152600401602060405180830381865af4158015611472573d6000803e3d6000fd5b60405163c3c5a54760e01b815233600482015282907f00000000000000000000000000000000000000000000000000000000000000006001600160a01b03169063c3c5a54790602401602060405180830381865afa1580156117f8573d6000803e3d6000fd5b505050506040513d601f19601f8201168201806040525081019061181c9190612f46565b6118385760405162461bcd60e51b81526004016108729061300a565b336001600160a01b03166386b70bed6040518163ffffffff1660e01b8152600401602060405180830381865afa158015611876573d6000803e3d6000fd5b505050506040513d601f19601f8201168201806040525081019061189a9190612f46565b6118b65760405162461bcd60e51b81526004016108729061305e565b6000816001600160a01b03166330b67baa6040518163ffffffff1660e01b8152600401602060405180830381865afa1580156118f6573d6000803e3d6000fd5b505050506040513d601f19601f8201168201806040525081019061191a9190612ecc565b90506001600160a01b03811633146119445760405162461bcd60e51b8152600401610872906130ac565b816001600160a01b03166386b70bed6040518163ffffffff1660e01b8152600401602060405180830381865afa158015611982573d6000803e3d6000fd5b505050506040513d601f19601f820116820180604052508101906119a69190612f46565b6119c25760405162461bcd60e51b815260040161087290613109565b6119cc8484612981565b60405163699f380760e11b81526001600160a01b038416600482015273__$1822254560a4f971c7e72253c3a08363e7$__9063d33e700e906024016112a9565b604051632474521560e21b8152600481018390526001600160a01b038216602482015260009073__$a5a42e46683ad9c79b7b86d5ff60fdf4c1$__906391d1485490604401602060405180830381865af4158015611a6e573d6000803e3d6000fd5b505050506040513d601f19601f82011682018060405250810190610def9190612f46565b604051630935e01b60e21b815233600482015273__$a5a42e46683ad9c79b7b86d5ff60fdf4c1$__906324d7806c90602401602060405180830381865af4158015611ae1573d6000803e3d6000fd5b505050506040513d601f19601f82011682018060405250810190611b059190612f46565b611b215760405162461bcd60e51b815260040161087290613152565b6040516327f734e960e21b81526001600160a01b038216600482015273__$e1fef5d4b1bfc4a605b7eb127c84f71416$__90639fdcd3a4906024016107a7565b336001600160a01b031673__$a5a42e46683ad9c79b7b86d5ff60fdf4c1$__638da5cb5b6040518163ffffffff1660e01b8152600401602060405180830381865af4158015611bb4573d6000803e3d6000fd5b505050506040513d601f19601f82011682018060405250810190611bd89190612ecc565b6001600160a01b031614611c2e5760405162461bcd60e51b815260206004820152601f60248201527f426173654163636573733a207265737472696374656420746f206f776e6572006044820152606401610872565b6040516313af403560e01b81526001600160a01b038216600482015273__$a5a42e46683ad9c79b7b86d5ff60fdf4c1$__906313af4035906024016107a7565b60405163a8c88c1760e01b81526001600160a01b038216600482015260009073__$1822254560a4f971c7e72253c3a08363e7$__9063a8c88c1790602401610c25565b826000819050336001600160a01b0316816001600160a01b03166369bd91946040518163ffffffff1660e01b8152600401602060405180830381865afa158015611cff573d6000803e3d6000fd5b505050506040513d601f19601f82011682018060405250810190611d239190612ecc565b6001600160a01b031614611d495760405162461bcd60e51b815260040161087290612ee9565b6000339050806001600160a01b0316634f05c1c86040518163ffffffff1660e01b8152600401602060405180830381865afa158015611d8c573d6000803e3d6000fd5b505050506040513d601f19601f82011682018060405250810190611db09190612f46565b611dcc5760405162461bcd60e51b815260040161087290612f68565b604051633f111a5d60e21b815273__$1822254560a4f971c7e72253c3a08363e7$__9063fc4469749061093990899089908990600401612fdc565b60405163b6db923d60e01b81526001600160a01b038216600482015260009073__$1822254560a4f971c7e72253c3a08363e7$__9063b6db923d90602401610c25565b60405163ba2eb54160e01b81526001600160a01b038216600482015260009073__$1822254560a4f971c7e72253c3a08363e7$__9063ba2eb54190602401610c25565b60405163c3c5a54760e01b81526001600160a01b038216600482015260009073__$d81eab81c4f96e94de97b51155a369ac43$__9063c3c5a54790602401610c25565b6040516332ef671360e21b815260009073__$d81eab81c4f96e94de97b51155a369ac43$__9063cbbd9c4c90611f0a908590600401613389565b602060405180830381865af4158015611f27573d6000803e3d6000fd5b505050506040513d601f19601f82011682018060405250810190610c669190612ecc565b604051630935e01b60e21b815233600482015273__$a5a42e46683ad9c79b7b86d5ff60fdf4c1$__906324d7806c90602401602060405180830381865af4158015611f9a573d6000803e3d6000fd5b505050506040513d601f19601f82011682018060405250810190611fbe9190612f46565b611fda5760405162461bcd60e51b815260040161087290613152565b60405163cdbe221160e01b81526001600160a01b038216600482015273__$e1fef5d4b1bfc4a605b7eb127c84f71416$__9063cdbe2211906024016107a7565b604051630935e01b60e21b815233600482015273__$a5a42e46683ad9c79b7b86d5ff60fdf4c1$__906324d7806c90602401602060405180830381865af4158015612069573d6000803e3d6000fd5b505050506040513d601f19601f8201168201806040525081019061208d9190612f46565b6120a95760405162461bcd60e51b815260040161087290613152565b60405163d547741f60e01b8152600481018390526001600160a01b038216602482015273__$a5a42e46683ad9c79b7b86d5ff60fdf4c1$__9063d547741f90604401610d3e565b6040516306b7df0160e51b81526001600160a01b038216600482015273__$1822254560a4f971c7e72253c3a08363e7$__9063d6fbe020906024016107a7565b60405163e2482bf960e01b81526001600160a01b038216600482015260009073__$1822254560a4f971c7e72253c3a08363e7$__9063e2482bf990602401610c25565b604051630935e01b60e21b815233600482015273__$a5a42e46683ad9c79b7b86d5ff60fdf4c1$__906324d7806c90602401602060405180830381865af41580156121c2573d6000803e3d6000fd5b505050506040513d601f19601f820116820180604052508101906121e69190612f46565b6122025760405162461bcd60e51b815260040161087290613152565b60405163e8906a2d60e01b815273__$a5a42e46683ad9c79b7b86d5ff60fdf4c1$__9063e8906a2d90610d3e908590859060040161333b565b60008061224b6020840184612be4565b60405163c3c5a54760e01b81523360048201527f00000000000000000000000000000000000000000000000000000000000000006001600160a01b03169063c3c5a54790602401602060405180830381865afa1580156122af573d6000803e3d6000fd5b505050506040513d601f19601f820116820180604052508101906122d39190612f46565b6122ef5760405162461bcd60e51b81526004016108729061300a565b336001600160a01b03166386b70bed6040518163ffffffff1660e01b8152600401602060405180830381865afa15801561232d573d6000803e3d6000fd5b505050506040513d601f19601f820116820180604052508101906123519190612f46565b61236d5760405162461bcd60e51b81526004016108729061305e565b6000816001600160a01b03166330b67baa6040518163ffffffff1660e01b8152600401602060405180830381865afa1580156123ad573d6000803e3d6000fd5b505050506040513d601f19601f820116820180604052508101906123d19190612ecc565b90506001600160a01b03811633146123fb5760405162461bcd60e51b8152600401610872906130ac565b816001600160a01b03166386b70bed6040518163ffffffff1660e01b8152600401602060405180830381865afa158015612439573d6000803e3d6000fd5b505050506040513d601f19601f8201168201806040525081019061245d9190612f46565b6124795760405162461bcd60e51b815260040161087290613109565b612486604086018661342b565b61248f906134d7565b6040516361d9624d60e01b815273__$ad2b23306edd42b5f4873830e307b82d47$__916361d9624d916124ca91906001908190600401613642565b60006040518083038186803b1580156124e257600080fd5b505af41580156124f6573d6000803e3d6000fd5b505050506000612504612a75565b60018101549091506001600160a01b031661257a5760405162461bcd60e51b815260206004820152603060248201527f457870657269656e636552656769737472793a2070726f787920696d706c656d60448201526f195b9d185d1a5bdb881b9bdd081cd95d60821b6064820152608401610872565b80546001600160a01b03166125eb5760405162461bcd60e51b815260206004820152603160248201527f457870657269656e636552656769737472793a20656e7469747920696d706c656044820152701b595b9d185d1a5bdb881b9bdd081cd95d607a1b6064820152608401610872565b6001810154612602906001600160a01b0316612b0b565b94506001600160a01b03851661266e5760405162461bcd60e51b815260206004820152602b60248201527f526567697374726172526567697374726174696f6e3a2070726f787920636c6f60448201526a1b9a5b99c819985a5b195960aa1b6064820152608401610872565b8054604051636bc26a1360e11b81526001600160a01b0391821660048201529086169063d784d42690602401600060405180830381600087803b1580156126b457600080fd5b505af11580156126c8573d6000803e3d6000fd5b5050505060006040518060600160405280600061ffff168152602001600161ffff1681526020016000815250905060006040518060600160405280886001600160a01b03168152602001838152602001898060400190612728919061342b565b612731906134d7565b905290506001600160a01b0387166357607a3761275160208b018b61366c565b61275e60208d018d612be4565b61276b60408e018e61342b565b61277860608f018f61366c565b6040518763ffffffff1660e01b8152600401612799969594939291906136b2565b600060405180830381600087803b1580156127b357600080fd5b505af11580156127c7573d6000803e3d6000fd5b50506040516326590a1d60e01b815273__$d81eab81c4f96e94de97b51155a369ac43$__92506326590a1d9150612802908490600401613783565b60006040518083038186803b15801561281a57600080fd5b505af415801561282e573d6000803e3d6000fd5b50505050866001600160a01b0316637d692cad6040518163ffffffff1660e01b8152600401602060405180830381865afa158015612870573d6000803e3d6000fd5b505050506040513d601f19601f82011682018060405250810190612894919061319b565b95506128a36020890189612be4565b6001600160a01b0316876001600160a01b03167f7377123f9eb561d749cd3a89a83c22035cad6473521acbb981ee1c52d8f0248560405160405180910390a35050505050915091565b6040805160608101825260008082526020820181905281830152905163f82e2fb360e01b81526001600160a01b038316600482015273__$1822254560a4f971c7e72253c3a08363e7$__9063f82e2fb390602401606060405180830381865af415801561295d573d6000803e3d6000fd5b505050506040513d601f19601f82011682018060405250810190610c6691906137e2565b6000819050826001600160a01b0316816001600160a01b0316636904c94d6040518163ffffffff1660e01b8152600401602060405180830381865afa1580156129ce573d6000803e3d6000fd5b505050506040513d601f19601f820116820180604052508101906129f29190612ecc565b6001600160a01b031614612a70576040805162461bcd60e51b81526020600482015260248101919091527f457870657269656e636552656d6f76616c4578743a20636f6d70616e7920697360448201527f206e6f7420746865206f776e6572206f662074686520657870657269656e63656064820152608401610872565b505050565b60408051808201909152601c81527f78722e656e746974792e666163746f72792e73746f726167652e76310000000060209091015260008060ff612ada60017f8b4ac7cd4466ab0d50fe53a88c5446ca4a450d482bef9ad792e7d9f451497e0f61384c565b604051602001612aec91815260200190565b60408051601f1981840301815291905280516020909101201692915050565b60006001600160a01b038216612b7b5760405162461bcd60e51b815260206004820152602f60248201527f4c6962436c6f6e653a20696d706c656d656e746174696f6e2063616e6e6f742060448201526e6265207a65726f206164647265737360881b6064820152608401610872565b60008260601b9050604051733d602d80600a3d3981f3363d3d373d3d3d363d7360601b81528160148201526e5af43d82803e903d91602b57fd5bf360881b60288201526037816000f0949350505050565b6001600160a01b0381168114612be157600080fd5b50565b600060208284031215612bf657600080fd5b8135610def81612bcc565b60008083601f840112612c1357600080fd5b5081356001600160401b03811115612c2a57600080fd5b602083019150836020828501011115612c4257600080fd5b9250929050565b600080600060408486031215612c5e57600080fd5b8335612c6981612bcc565b925060208401356001600160401b03811115612c8457600080fd5b612c9086828701612c01565b9497909650939450505050565b60008060008060608587031215612cb357600080fd5b8435612cbe81612bcc565b93506020850135612cce81612bcc565b925060408501356001600160401b03811115612ce957600080fd5b612cf587828801612c01565b95989497509550505050565b60008060408385031215612d1457600080fd5b823591506020830135612d2681612bcc565b809150509250929050565b60008060208385031215612d4457600080fd5b82356001600160401b03811115612d5a57600080fd5b612d6685828601612c01565b90969095509350505050565b600060c08284031215612d8457600080fd5b50919050565b600060208284031215612d9c57600080fd5b81356001600160401b03811115612db257600080fd5b612dbe84828501612d72565b949350505050565b60008060208385031215612dd957600080fd5b82356001600160401b0380821115612df057600080fd5b818501915085601f830112612e0457600080fd5b813581811115612e1357600080fd5b8660208260051b8501011115612e2857600080fd5b60209290920196919550909350505050565b60008060408385031215612e4d57600080fd5b8235612e5881612bcc565b91506020830135612d2681612bcc565b600060208284031215612e7a57600080fd5b81356001600160401b03811115612e9057600080fd5b820160808185031215610def57600080fd5b815161ffff9081168252602080840151909116908201526040808301519082015260608101610c66565b600060208284031215612ede57600080fd5b8151610def81612bcc565b6020808252603d908201527f4261736552656d6f7661626c6552656769737472793a2063616c6c657220697360408201527f206e6f742074686520656e746974792773207465726d73206f776e6572000000606082015260800190565b600060208284031215612f5857600080fd5b81518015158114610def57600080fd5b6020808252602b908201527f4261736552656d6f7661626c6552656769737472793a2063616c6c657220697360408201526a206e6f742061637469766560a81b606082015260800190565b81835281816020850137506000828201602090810191909152601f909101601f19169091010190565b6001600160a01b03841681526040602082018190526000906130019083018486612fb3565b95945050505050565b60208082526034908201527f457870657269656e636552656769737472793a2063616c6c6572206973206e6f6040820152731d0818481c9959da5cdd195c9959081ddbdc9b1960621b606082015260800190565b6020808252602e908201527f457870657269656e636552656769737472793a2063616c6c657220776f726c6460408201526d206973206e6f742061637469766560901b606082015260800190565b6020808252603c908201527f457870657269656e636552656769737472793a20636f6d70616e7920646f657360408201527f206e6f742062656c6f6e6720746f2063616c6c696e6720776f726c6400000000606082015260800190565b60208082526029908201527f457870657269656e636552656769737472793a20636f6d70616e79206973206e6040820152686f742061637469766560b81b606082015260800190565b6020808252818101527f426173654163636573733a207265737472696374656420746f2061646d696e73604082015260600190565b602081526000612dbe602083018486612fb3565b6000602082840312156131ad57600080fd5b5051919050565b6000808335601e198436030181126131cb57600080fd5b83016020810192503590506001600160401b038111156131ea57600080fd5b803603821315612c4257600080fd5b61ffff81168114612be157600080fd5b602081526000823561321a81612bcc565b6001600160a01b0316602083810191909152613238908401846131b4565b60c0604085015261324d60e085018284612fb3565b915050604084013560608401526060840135613268816131f9565b61ffff808216608086015260808601359150613283826131f9565b1660a084810191909152939093013560c0909201919091525090565b634e487b7160e01b600052604160045260246000fd5b60405160c081016001600160401b03811182821017156132d7576132d761329f565b60405290565b6000604082840312156132ef57600080fd5b604051604081018181106001600160401b03821117156133115761331161329f565b604052825161331f816131f9565b8152602083015161332f816131f9565b60208201529392505050565b60208082528181018390526000908460408401835b8681101561337e57823561336381612bcc565b6001600160a01b031682529183019190830190600101613350565b509695505050505050565b60208152600061339983846131b4565b60c060208501526133ae60e085018284612fb3565b9150506133be60208501856131b4565b601f19808685030160408701526133d6848385612fb3565b93506133e560408801886131b4565b9350915080868503016060870152506133ff838383612fb3565b9250505060608401356080840152608084013560a084015260a084013560c08401528091505092915050565b6000823560be1983360301811261344157600080fd5b9190910192915050565b600082601f83011261345c57600080fd5b81356001600160401b03808211156134765761347661329f565b604051601f8301601f19908116603f0116810190828211818310171561349e5761349e61329f565b816040528381528660208588010111156134b757600080fd5b836020870160208301376000602085830101528094505050505092915050565b600060c082360312156134e957600080fd5b6134f16132b5565b82356001600160401b038082111561350857600080fd5b6135143683870161344b565b8352602085013591508082111561352a57600080fd5b6135363683870161344b565b6020840152604085013591508082111561354f57600080fd5b5061355c3682860161344b565b604083015250606083013560608201526080830135608082015260a083013560a082015280915050919050565b6000815180845260005b818110156135af57602081850181015186830182015201613593565b506000602082860101526020601f19601f83011685010191505092915050565b6000815160c084526135e460c0850182613589565b9050602083015184820360208601526135fd8282613589565b915050604083015184820360408601526136178282613589565b915050606083015160608501526080830151608085015260a083015160a08501528091505092915050565b60608152600061365560608301866135cf565b931515602083015250901515604090910152919050565b6000808335601e1984360301811261368357600080fd5b8301803591506001600160401b0382111561369d57600080fd5b602001915036819003821315612c4257600080fd5b6080815260006136c660808301888a612fb3565b6001600160a01b038716602084015282810360408401526136e786806131b4565b60c083526136f960c084018284612fb3565b91505061370960208801886131b4565b838303602085015261371c838284612fb3565b9250505061372d60408801886131b4565b8383036040850152613740838284612fb3565b92505050606087013560608301526080870135608083015260a087013560a08301528381036060850152613775818688612fb3565b9a9950505050505050505050565b602080825282516001600160a01b0316828201528201516000906137c9604084018261ffff80825116835280602083015116602084015250604081015160408301525050565b50604083015160a080840152612dbe60c08401826135cf565b6000606082840312156137f457600080fd5b604051606081018181106001600160401b03821117156138165761381661329f565b6040528251613824816131f9565b81526020830151613834816131f9565b60208201526040928301519281019290925250919050565b81810381811115610c6657634e487b7160e01b600052601160045260246000fdfea264697066735822122066c9260640751058dcef5557cf24707006a2c728b1923d817d9908c9d762ee4264736f6c63430008180033",
  "linkReferences": {
    "contracts/libraries/LibAccess.sol": {
      "LibAccess": [
        {
          "length": 20,
          "start": 3593
        },
        {
          "length": 20,
          "start": 3715
        },
        {
          "length": 20,
          "start": 3874
        },
        {
          "length": 20,
          "start": 6164
        },
        {
          "length": 20,
          "start": 6219
        },
        {
          "length": 20,
          "start": 6356
        },
        {
          "length": 20,
          "start": 6402
        },
        {
          "length": 20,
          "start": 7222
        },
        {
          "length": 20,
          "start": 7337
        },
        {
          "length": 20,
          "start": 7535
        },
        {
          "length": 20,
          "start": 7758
        },
        {
          "length": 20,
          "start": 8546
        },
        {
          "length": 20,
          "start": 8753
        },
        {
          "length": 20,
          "start": 8912
        },
        {
          "length": 20,
          "start": 9098
        },
        {
          "length": 20,
          "start": 9235
        }
      ]
    },
    "contracts/libraries/LibEntityRemoval.sol": {
      "LibEntityRemoval": [
        {
          "length": 20,
          "start": 2443
        },
        {
          "length": 20,
          "start": 2831
        },
        {
          "length": 20,
          "start": 3516
        },
        {
          "length": 20,
          "start": 4676
        },
        {
          "length": 20,
          "start": 4907
        },
        {
          "length": 20,
          "start": 5378
        },
        {
          "length": 20,
          "start": 5506
        },
        {
          "length": 20,
          "start": 6097
        },
        {
          "length": 20,
          "start": 7148
        },
        {
          "length": 20,
          "start": 7825
        },
        {
          "length": 20,
          "start": 8157
        },
        {
          "length": 20,
          "start": 8234
        },
        {
          "length": 20,
          "start": 8301
        },
        {
          "length": 20,
          "start": 8976
        },
        {
          "length": 20,
          "start": 9043
        },
        {
          "length": 20,
          "start": 11045
        }
      ]
    },
    "contracts/libraries/LibFactory.sol": {
      "LibFactory": [
        {
          "length": 20,
          "start": 5562
        },
        {
          "length": 20,
          "start": 5677
        },
        {
          "length": 20,
          "start": 6477
        },
        {
          "length": 20,
          "start": 7489
        },
        {
          "length": 20,
          "start": 8698
        }
      ]
    },
    "contracts/libraries/LibRegistration.sol": {
      "LibRegistration": [
        {
          "length": 20,
          "start": 3974
        },
        {
          "length": 20,
          "start": 5251
        },
        {
          "length": 20,
          "start": 8368
        },
        {
          "length": 20,
          "start": 8420
        },
        {
          "length": 20,
          "start": 10714
        }
      ]
    },
    "contracts/libraries/LibVectorAddress.sol": {
      "LibVectorAddress": [
        {
          "length": 20,
          "start": 9888
        }
      ]
    }
  },
  "deployedLinkReferences": {
    "contracts/libraries/LibAccess.sol": {
      "LibAccess": [
        {
          "length": 20,
          "start": 3079
        },
        {
          "length": 20,
          "start": 3201
        },
        {
          "length": 20,
          "start": 3360
        },
        {
          "length": 20,
          "start": 5650
        },
        {
          "length": 20,
          "start": 5705
        },
        {
          "length": 20,
          "start": 5842
        },
        {
          "length": 20,
          "start": 5888
        },
        {
          "length": 20,
          "start": 6708
        },
        {
          "length": 20,
          "start": 6823
        },
        {
          "length": 20,
          "start": 7021
        },
        {
          "length": 20,
          "start": 7244
        },
        {
          "length": 20,
          "start": 8032
        },
        {
          "length": 20,
          "start": 8239
        },
        {
          "length": 20,
          "start": 8398
        },
        {
          "length": 20,
          "start": 8584
        },
        {
          "length": 20,
          "start": 8721
        }
      ]
    },
    "contracts/libraries/LibEntityRemoval.sol": {
      "LibEntityRemoval": [
        {
          "length": 20,
          "start": 1929
        },
        {
          "length": 20,
          "start": 2317
        },
        {
          "length": 20,
          "start": 3002
        },
        {
          "length": 20,
          "start": 4162
        },
        {
          "length": 20,
          "start": 4393
        },
        {
          "length": 20,
          "start": 4864
        },
        {
          "length": 20,
          "start": 4992
        },
        {
          "length": 20,
          "start": 5583
        },
        {
          "length": 20,
          "start": 6634
        },
        {
          "length": 20,
          "start": 7311
        },
        {
          "length": 20,
          "start": 7643
        },
        {
          "length": 20,
          "start": 7720
        },
        {
          "length": 20,
          "start": 7787
        },
        {
          "length": 20,
          "start": 8462
        },
        {
          "length": 20,
          "start": 8529
        },
        {
          "length": 20,
          "start": 10531
        }
      ]
    },
    "contracts/libraries/LibFactory.sol": {
      "LibFactory": [
        {
          "length": 20,
          "start": 5048
        },
        {
          "length": 20,
          "start": 5163
        },
        {
          "length": 20,
          "start": 5963
        },
        {
          "length": 20,
          "start": 6975
        },
        {
          "length": 20,
          "start": 8184
        }
      ]
    },
    "contracts/libraries/LibRegistration.sol": {
      "LibRegistration": [
        {
          "length": 20,
          "start": 3460
        },
        {
          "length": 20,
          "start": 4737
        },
        {
          "length": 20,
          "start": 7854
        },
        {
          "length": 20,
          "start": 7906
        },
        {
          "length": 20,
          "start": 10200
        }
      ]
    },
    "contracts/libraries/LibVectorAddress.sol": {
      "LibVectorAddress": [
        {
          "length": 20,
          "start": 9374
        }
      ]
    }
  }
}