{
  "_format": "hh-sol-artifact-1",
  "contractName": "Experience",
  "sourceName": "contracts/experience/Experience.sol",
  "abi": [
    {
      "inputs": [
        {
          "components": [
            {
              "internalType": "address",
              "name": "experienceFactory",
              "type": "address"
            },
            {
              "internalType": "address",
              "name": "portalRegistry",
              "type": "address"
            },
            {
              "internalType": "address",
              "name": "experienceRegistry",
              "type": "address"
            }
          ],
          "internalType": "struct ExperienceConstructorArgs",
          "name": "args",
          "type": "tuple"
        }
      ],
      "stateMutability": "nonpayable",
      "type": "constructor"
    },
    {
      "inputs": [],
      "name": "ReentrancyGuardReentrantCall",
      "type": "error"
    },
    {
      "anonymous": false,
      "inputs": [],
      "name": "ExperienceDeactivated",
      "type": "event"
    },
    {
      "anonymous": false,
      "inputs": [
        {
          "indexed": true,
          "internalType": "address",
          "name": "oldVersion",
          "type": "address"
        },
        {
          "indexed": true,
          "internalType": "address",
          "name": "newVersion",
          "type": "address"
        }
      ],
      "name": "ExperienceUpgraded",
      "type": "event"
    },
    {
      "anonymous": false,
      "inputs": [
        {
          "indexed": true,
          "internalType": "address",
          "name": "hook",
          "type": "address"
        }
      ],
      "name": "HookAdded",
      "type": "event"
    },
    {
      "anonymous": false,
      "inputs": [
        {
          "indexed": true,
          "internalType": "address",
          "name": "hook",
          "type": "address"
        }
      ],
      "name": "HookRemoved",
      "type": "event"
    },
    {
      "anonymous": false,
      "inputs": [
        {
          "indexed": true,
          "internalType": "address",
          "name": "sourceWorld",
          "type": "address"
        },
        {
          "indexed": true,
          "internalType": "address",
          "name": "sourceCompany",
          "type": "address"
        },
        {
          "indexed": true,
          "internalType": "address",
          "name": "avatar",
          "type": "address"
        },
        {
          "indexed": false,
          "internalType": "uint256",
          "name": "attachedFees",
          "type": "uint256"
        }
      ],
      "name": "JumpEntry",
      "type": "event"
    },
    {
      "anonymous": false,
      "inputs": [
        {
          "indexed": false,
          "internalType": "uint256",
          "name": "newFee",
          "type": "uint256"
        }
      ],
      "name": "PortalFeeChanged",
      "type": "event"
    },
    {
      "inputs": [
        {
          "internalType": "contract IExperienceHook",
          "name": "_hook",
          "type": "address"
        }
      ],
      "name": "addHook",
      "outputs": [],
      "stateMutability": "nonpayable",
      "type": "function"
    },
    {
      "inputs": [
        {
          "internalType": "contract IPortalCondition",
          "name": "condition",
          "type": "address"
        }
      ],
      "name": "addPortalCondition",
      "outputs": [],
      "stateMutability": "nonpayable",
      "type": "function"
    },
    {
      "inputs": [
        {
          "internalType": "uint256",
          "name": "fee",
          "type": "uint256"
        }
      ],
      "name": "changePortalFee",
      "outputs": [],
      "stateMutability": "nonpayable",
      "type": "function"
    },
    {
      "inputs": [],
      "name": "company",
      "outputs": [
        {
          "internalType": "address",
          "name": "",
          "type": "address"
        }
      ],
      "stateMutability": "view",
      "type": "function"
    },
    {
      "inputs": [],
      "name": "connectionDetails",
      "outputs": [
        {
          "internalType": "bytes",
          "name": "",
          "type": "bytes"
        }
      ],
      "stateMutability": "view",
      "type": "function"
    },
    {
      "inputs": [],
      "name": "deactive",
      "outputs": [],
      "stateMutability": "nonpayable",
      "type": "function"
    },
    {
      "inputs": [
        {
          "components": [
            {
              "internalType": "uint256",
              "name": "entryFee",
              "type": "uint256"
            },
            {
              "internalType": "bytes",
              "name": "connectionDetails",
              "type": "bytes"
            }
          ],
          "internalType": "struct ExperienceInitData",
          "name": "data",
          "type": "tuple"
        }
      ],
      "name": "encodeInitData",
      "outputs": [
        {
          "internalType": "bytes",
          "name": "",
          "type": "bytes"
        }
      ],
      "stateMutability": "pure",
      "type": "function"
    },
    {
      "inputs": [
        {
          "components": [
            {
              "internalType": "address",
              "name": "sourceWorld",
              "type": "address"
            },
            {
              "internalType": "address",
              "name": "sourceCompany",
              "type": "address"
            },
            {
              "internalType": "address",
              "name": "avatar",
              "type": "address"
            }
          ],
          "internalType": "struct JumpEntryRequest",
          "name": "request",
          "type": "tuple"
        }
      ],
      "name": "entering",
      "outputs": [
        {
          "internalType": "bytes",
          "name": "",
          "type": "bytes"
        }
      ],
      "stateMutability": "payable",
      "type": "function"
    },
    {
      "inputs": [],
      "name": "entryFee",
      "outputs": [
        {
          "internalType": "uint256",
          "name": "",
          "type": "uint256"
        }
      ],
      "stateMutability": "view",
      "type": "function"
    },
    {
      "inputs": [],
      "name": "experienceFactory",
      "outputs": [
        {
          "internalType": "address",
          "name": "",
          "type": "address"
        }
      ],
      "stateMutability": "view",
      "type": "function"
    },
    {
      "inputs": [],
      "name": "experienceRegistry",
      "outputs": [
        {
          "internalType": "contract IExperienceRegistry",
          "name": "",
          "type": "address"
        }
      ],
      "stateMutability": "view",
      "type": "function"
    },
    {
      "inputs": [
        {
          "internalType": "address",
          "name": "_company",
          "type": "address"
        },
        {
          "internalType": "string",
          "name": "_name",
          "type": "string"
        },
        {
          "components": [
            {
              "internalType": "string",
              "name": "x",
              "type": "string"
            },
            {
              "internalType": "string",
              "name": "y",
              "type": "string"
            },
            {
              "internalType": "string",
              "name": "z",
              "type": "string"
            },
            {
              "internalType": "uint256",
              "name": "t",
              "type": "uint256"
            },
            {
              "internalType": "uint256",
              "name": "p",
              "type": "uint256"
            },
            {
              "internalType": "uint256",
              "name": "p_sub",
              "type": "uint256"
            }
          ],
          "internalType": "struct VectorAddress",
          "name": "vector",
          "type": "tuple"
        },
        {
          "internalType": "bytes",
          "name": "initData",
          "type": "bytes"
        }
      ],
      "name": "init",
      "outputs": [],
      "stateMutability": "nonpayable",
      "type": "function"
    },
    {
      "inputs": [],
      "name": "isActive",
      "outputs": [
        {
          "internalType": "bool",
          "name": "",
          "type": "bool"
        }
      ],
      "stateMutability": "view",
      "type": "function"
    },
    {
      "inputs": [],
      "name": "name",
      "outputs": [
        {
          "internalType": "string",
          "name": "",
          "type": "string"
        }
      ],
      "stateMutability": "view",
      "type": "function"
    },
    {
      "inputs": [],
      "name": "portalRegistry",
      "outputs": [
        {
          "internalType": "contract IPortalRegistry",
          "name": "",
          "type": "address"
        }
      ],
      "stateMutability": "view",
      "type": "function"
    },
    {
      "inputs": [],
      "name": "removeHook",
      "outputs": [],
      "stateMutability": "nonpayable",
      "type": "function"
    },
    {
      "inputs": [],
      "name": "removePortalCondition",
      "outputs": [],
      "stateMutability": "nonpayable",
      "type": "function"
    },
    {
      "inputs": [
        {
          "internalType": "bytes",
          "name": "initData",
          "type": "bytes"
        }
      ],
      "name": "upgrade",
      "outputs": [
        {
          "internalType": "address",
          "name": "",
          "type": "address"
        }
      ],
      "stateMutability": "nonpayable",
      "type": "function"
    },
    {
      "inputs": [
        {
          "internalType": "address",
          "name": "nextVersion",
          "type": "address"
        }
      ],
      "name": "upgradeComplete",
      "outputs": [],
      "stateMutability": "nonpayable",
      "type": "function"
    },
    {
      "inputs": [],
      "name": "vectorAddress",
      "outputs": [
        {
          "components": [
            {
              "internalType": "string",
              "name": "x",
              "type": "string"
            },
            {
              "internalType": "string",
              "name": "y",
              "type": "string"
            },
            {
              "internalType": "string",
              "name": "z",
              "type": "string"
            },
            {
              "internalType": "uint256",
              "name": "t",
              "type": "uint256"
            },
            {
              "internalType": "uint256",
              "name": "p",
              "type": "uint256"
            },
            {
              "internalType": "uint256",
              "name": "p_sub",
              "type": "uint256"
            }
          ],
          "internalType": "struct VectorAddress",
          "name": "",
          "type": "tuple"
        }
      ],
      "stateMutability": "view",
      "type": "function"
    },
    {
      "inputs": [],
      "name": "version",
      "outputs": [
        {
          "internalType": "uint256",
          "name": "",
          "type": "uint256"
        }
      ],
      "stateMutability": "view",
      "type": "function"
    },
    {
      "inputs": [],
      "name": "world",
      "outputs": [
        {
          "internalType": "address",
          "name": "",
          "type": "address"
        }
      ],
      "stateMutability": "view",
      "type": "function"
    },
    {
      "stateMutability": "payable",
      "type": "receive"
    }
  ],
  "bytecode": "0x60e06040523480156200001157600080fd5b5060405162001fe538038062001fe58339810160408190526200003491620001b9565b600160005580516001600160a01b0316620000965760405162461bcd60e51b815260206004820181905260248201527f457870657269656e63653a207a65726f206164647265737320666163746f727960448201526064015b60405180910390fd5b60208101516001600160a01b0316620001025760405162461bcd60e51b815260206004820152602760248201527f457870657269656e63653a207a65726f206164647265737320706f7274616c526044820152666567697374727960c81b60648201526084016200008d565b60408101516001600160a01b0316620001725760405162461bcd60e51b815260206004820152602b60248201527f457870657269656e63653a207a65726f2061646472657373206578706572696560448201526a6e6365526567697374727960a81b60648201526084016200008d565b80516001600160a01b039081166080526020820151811660a0526040909101511660c0526200023a565b80516001600160a01b0381168114620001b457600080fd5b919050565b600060608284031215620001cc57600080fd5b604051606081016001600160401b0381118282101715620001fd57634e487b7160e01b600052604160045260246000fd5b6040526200020b836200019c565b81526200021b602084016200019c565b60208201526200022e604084016200019c565b60408201529392505050565b60805160a05160c051611d43620002a26000396000818161036b0152818161058801526111ba0152600081816103b401528181610a7301528181610ddf01528181610efc015261110c0152600081816103170152818161061301526112f10152611d436000f3fe6080604052600436106101395760003560e01c806358779dcf116100ab57806383c342631161006f57806383c34263146103395780638f09a6be14610359578063a008f7091461038d578063b6664934146103a2578063d97c02f7146103d6578063fad94ff0146103f657600080fd5b806358779dcf1461029b5780636904c94d146102b05780636fdfe1b6146102c55780637b4e04e8146102e557806381bb20291461030557600080fd5b80632663d1f7116100fd5780632663d1f7146102055780632fcbab9a1461022757806330b67baa14610249578063378f17ff1461025e57806354cc5a0b1461027357806354fd4d501461028657600080fd5b806306fdde0314610145578063072ea61c146101705780631864a47c1461019357806322f3e2d4146101a857806325394645146101cd57600080fd5b3661014057005b600080fd5b34801561015157600080fd5b5061015a610416565b60405161016791906115a8565b60405180910390f35b34801561017c57600080fd5b506101856104b7565b604051908152602001610167565b34801561019f57600080fd5b5061015a6104cc565b3480156101b457600080fd5b506101bd6104e9565b6040519015158152602001610167565b3480156101d957600080fd5b506101ed6101e83660046116d3565b6104fe565b6040516001600160a01b039091168152602001610167565b34801561021157600080fd5b50610225610220366004611720565b610608565b005b34801561023357600080fd5b5061023c6106f0565b604051610167919061173d565b34801561025557600080fd5b506101ed61091e565b34801561026a57600080fd5b5061022561093c565b61015a6102813660046117c0565b610a5e565b34801561029257600080fd5b50610185600181565b3480156102a757600080fd5b50610225610d74565b3480156102bc57600080fd5b506101ed610e54565b3480156102d157600080fd5b506102256102e0366004611720565b610e74565b3480156102f157600080fd5b50610225610300366004611720565b610f5d565b34801561031157600080fd5b506101ed7f000000000000000000000000000000000000000000000000000000000000000081565b34801561034557600080fd5b50610225610354366004611832565b611079565b34801561036557600080fd5b506101ed7f000000000000000000000000000000000000000000000000000000000000000081565b34801561039957600080fd5b506102256111af565b3480156103ae57600080fd5b506101ed7f000000000000000000000000000000000000000000000000000000000000000081565b3480156103e257600080fd5b5061015a6103f136600461184b565b6112bd565b34801561040257600080fd5b506102256104113660046118c2565b6112e6565b6060600061042261150a565b9050806009018054610433906119f3565b80601f016020809104026020016040519081016040528092919081815260200182805461045f906119f3565b80156104ac5780601f10610481576101008083540402835291602001916104ac565b820191906000526020600020905b81548152906001019060200180831161048f57829003601f168201915b505050505091505090565b6000806104c261150a565b600a015492915050565b606060006104d861150a565b905080600b018054610433906119f3565b6000806104f461150a565b5460ff1692915050565b60008061050961150a565b805490915061010090046001600160a01b031633146105435760405162461bcd60e51b815260040161053a90611a2d565b60405180910390fd5b600061054d61150a565b805490915060ff166105715760405162461bcd60e51b815260040161053a90611a72565b604051636d941fe760e01b81526001600160a01b037f00000000000000000000000000000000000000000000000000000000000000001690636d941fe7906105bd9087906004016115a8565b6020604051808303816000875af11580156105dc573d6000803e3d6000fd5b505050506040513d601f19601f820116820180604052508101906106009190611aa2565b949350505050565b336001600160a01b037f000000000000000000000000000000000000000000000000000000000000000016146106505760405162461bcd60e51b815260040161053a90611abf565b600061065a61150a565b805490915060ff1661067e5760405162461bcd60e51b815260040161053a90611a72565b7f69198989339f34e10129e514286bde98979351148754faef989dde18bf6d14da80546001600160a01b031981166001600160a01b03858116918217845560405192169182907ffcdd1163294624e52a4e91ca619f82b1f2c5a096836fbd81f14e0b550fe8317790600090a350505050565b6107296040518060c001604052806060815260200160608152602001606081526020016000815260200160008152602001600081525090565b600061073361150a565b9050806003016040518060c0016040529081600082018054610754906119f3565b80601f0160208091040260200160405190810160405280929190818152602001828054610780906119f3565b80156107cd5780601f106107a2576101008083540402835291602001916107cd565b820191906000526020600020905b8154815290600101906020018083116107b057829003601f168201915b505050505081526020016001820180546107e6906119f3565b80601f0160208091040260200160405190810160405280929190818152602001828054610812906119f3565b801561085f5780601f106108345761010080835404028352916020019161085f565b820191906000526020600020905b81548152906001019060200180831161084257829003601f168201915b50505050508152602001600282018054610878906119f3565b80601f01602080910402602001604051908101604052809291908181526020018280546108a4906119f3565b80156108f15780601f106108c6576101008083540402835291602001916108f1565b820191906000526020600020905b8154815290600101906020018083116108d457829003601f168201915b50505050508152602001600382015481526020016004820154815260200160058201548152505091505090565b60008061092961150a565b600101546001600160a01b031692915050565b600061094661150a565b805490915061010090046001600160a01b031633146109775760405162461bcd60e51b815260040161053a90611a2d565b600061098161150a565b805490915060ff166109a55760405162461bcd60e51b815260040161053a90611a72565b60006109af61150a565b60028101549091506001600160a01b0316610a0c5760405162461bcd60e51b815260206004820152601860248201527f457870657269656e63653a20686f6f6b206e6f74207365740000000000000000604482015260640161053a565b60028101546040516001600160a01b039091169081907f47d0871e905ac6550f54ba266e0d90d2dc8ed67a957c064ca3438eddf4e3fd8990600090a25060020180546001600160a01b03191690555050565b6060610a6861152e565b336001600160a01b037f00000000000000000000000000000000000000000000000000000000000000001614610af65760405162461bcd60e51b815260206004820152602d60248201527f457870657269656e63653a2063616c6c6572206973206e6f742074686520706f60448201526c7274616c20726567697374727960981b606482015260840161053a565b6000610b0061150a565b805490915060ff16610b245760405162461bcd60e51b815260040161053a90611a72565b6000610b2e61150a565b60028101549091506001600160a01b031615610c36576002810154845160208601516040808801519051630a17c10560e21b81523060048201526001600160a01b039384166024820152918316604483015282166064820152600092919091169063285f0414906084016020604051808303816000875af1158015610bb7573d6000803e3d6000fd5b505050506040513d601f19601f82011682018060405250810190610bdb9190611b04565b905080610c345760405162461bcd60e51b815260206004820152602160248201527f457870657269656e63653a20686f6f6b20646973616c6c6f77656420656e74726044820152607960f81b606482015260840161053a565b505b600a81015415610cd45780600a01543414610c935760405162461bcd60e51b815260206004820152601f60248201527f457870657269656e63653a20696e636f727265637420656e7472792066656500604482015260640161053a565b80546040516001600160a01b0361010090920491909116903480156108fc02916000818181858888f19350505050158015610cd2573d6000803e3d6000fd5b505b80600b018054610ce3906119f3565b80601f0160208091040260200160405190810160405280929190818152602001828054610d0f906119f3565b8015610d5c5780601f10610d3157610100808354040283529160200191610d5c565b820191906000526020600020905b815481529060010190602001808311610d3f57829003601f168201915b505050505092505050610d6f6001600055565b919050565b6000610d7e61150a565b805490915061010090046001600160a01b03163314610daf5760405162461bcd60e51b815260040161053a90611a2d565b6000610db961150a565b805490915060ff16610ddd5760405162461bcd60e51b815260040161053a90611a72565b7f00000000000000000000000000000000000000000000000000000000000000006001600160a01b031663021665b76040518163ffffffff1660e01b8152600401600060405180830381600087803b158015610e3857600080fd5b505af1158015610e4c573d6000803e3d6000fd5b505050505050565b600080610e5f61150a565b5461010090046001600160a01b031692915050565b6000610e7e61150a565b805490915061010090046001600160a01b03163314610eaf5760405162461bcd60e51b815260040161053a90611a2d565b6000610eb961150a565b805490915060ff16610edd5760405162461bcd60e51b815260040161053a90611a72565b604051631169a49960e11b81526001600160a01b0384811660048301527f000000000000000000000000000000000000000000000000000000000000000016906322d3493290602401600060405180830381600087803b158015610f4057600080fd5b505af1158015610f54573d6000803e3d6000fd5b50505050505050565b6000610f6761150a565b805490915061010090046001600160a01b03163314610f985760405162461bcd60e51b815260040161053a90611a2d565b6000610fa261150a565b805490915060ff16610fc65760405162461bcd60e51b815260040161053a90611a72565b6001600160a01b03831661101c5760405162461bcd60e51b815260206004820152601d60248201527f457870657269656e63653a20686f6f6b207a65726f2061646472657373000000604482015260640161053a565b600061102661150a565b6002810180546001600160a01b0319166001600160a01b038716908117909155604051919250907f28e00134722f84e69c391c81e4fe022ee3e61048222a8ea2f98c9f235f79750890600090a250505050565b600061108361150a565b805490915061010090046001600160a01b031633146110b45760405162461bcd60e51b815260040161053a90611a2d565b60006110be61150a565b805490915060ff166110e25760405162461bcd60e51b815260040161053a90611a72565b60006110ec61150a565b600a81018590556040516383c3426360e01b8152600481018690529091507f00000000000000000000000000000000000000000000000000000000000000006001600160a01b0316906383c3426390602401600060405180830381600087803b15801561115857600080fd5b505af115801561116c573d6000803e3d6000fd5b505050507fc777ac489c019545540295deb6dee51fa4df4300a7b8c7b0ab785507cafeb1e9846040516111a191815260200190565b60405180910390a150505050565b336001600160a01b037f000000000000000000000000000000000000000000000000000000000000000016146112365760405162461bcd60e51b815260206004820152602660248201527f457870657269656e63653a2063616c6c6572206973206e6f742074686520726560448201526567697374727960d01b606482015260840161053a565b600061124061150a565b805460ff19168155905047156112915780546040516001600160a01b0361010090920491909116904780156108fc02916000818181858888f1935050505015801561128f573d6000803e3d6000fd5b505b6040517f1cabccdc2d1e9b8b0dfdfc82b79b881b7bff3debd9cc6acdbcbac533becbfc4990600090a150565b6060816040516020016112d09190611b26565b6040516020818303038152906040529050919050565b336001600160a01b037f0000000000000000000000000000000000000000000000000000000000000000161461132e5760405162461bcd60e51b815260040161053a90611abf565b600061133861150a565b805490915061010090046001600160a01b0316156113985760405162461bcd60e51b815260206004820152601f60248201527f457870657269656e63653a20616c726561647920696e697469616c697a656400604482015260640161053a565b8054610100600160a81b0319166101006001600160a01b0387160217815581516000906113ce9060209085018101908501611b4b565b84519091508490600384019081906113e69082611c4d565b50602082015160018201906113fb9082611c4d565b50604082015160028201906114109082611c4d565b50606082015181600301556080820151816004015560a082015181600501559050508160000160019054906101000a90046001600160a01b03166001600160a01b03166330b67baa6040518163ffffffff1660e01b8152600401602060405180830381865afa158015611487573d6000803e3d6000fd5b505050506040513d601f19601f820116820180604052508101906114ab9190611aa2565b6001830180546001600160a01b0319166001600160a01b0392909216919091179055600982016114db8682611c4d565b508051600a8301556020810151600b8301906114f79082611c4d565b5050805460ff1916600117905550505050565b7f7ea04aef6bca987a4816974a9eadce73182071dd7a8e8812099e1d973c1ae50590565b60026000540361155157604051633ee5aeb560e01b815260040160405180910390fd5b6002600055565b60005b8381101561157357818101518382015260200161155b565b50506000910152565b60008151808452611594816020860160208601611558565b601f01601f19169290920160200192915050565b6020815260006115bb602083018461157c565b9392505050565b634e487b7160e01b600052604160045260246000fd5b6040805190810167ffffffffffffffff811182821017156115fb576115fb6115c2565b60405290565b60405160c0810167ffffffffffffffff811182821017156115fb576115fb6115c2565b604051601f8201601f1916810167ffffffffffffffff8111828210171561164d5761164d6115c2565b604052919050565b600067ffffffffffffffff82111561166f5761166f6115c2565b50601f01601f191660200190565b600082601f83011261168e57600080fd5b81356116a161169c82611655565b611624565b8181528460208386010111156116b657600080fd5b816020850160208301376000918101602001919091529392505050565b6000602082840312156116e557600080fd5b813567ffffffffffffffff8111156116fc57600080fd5b6106008482850161167d565b6001600160a01b038116811461171d57600080fd5b50565b60006020828403121561173257600080fd5b81356115bb81611708565b602081526000825160c0602084015261175960e084018261157c565b90506020840151601f1980858403016040860152611777838361157c565b9250604086015191508085840301606086015250611795828261157c565b91505060608401516080840152608084015160a084015260a084015160c08401528091505092915050565b6000606082840312156117d257600080fd5b6040516060810181811067ffffffffffffffff821117156117f5576117f56115c2565b604052823561180381611708565b8152602083013561181381611708565b6020820152604083013561182681611708565b60408201529392505050565b60006020828403121561184457600080fd5b5035919050565b60006020828403121561185d57600080fd5b813567ffffffffffffffff8082111561187557600080fd5b908301906040828603121561188957600080fd5b6118916115d8565b823581526020830135828111156118a757600080fd5b6118b38782860161167d565b60208301525095945050505050565b600080600080608085870312156118d857600080fd5b84356118e381611708565b9350602085013567ffffffffffffffff8082111561190057600080fd5b61190c8883890161167d565b9450604087013591508082111561192257600080fd5b9086019060c0828903121561193657600080fd5b61193e611601565b82358281111561194d57600080fd5b6119598a82860161167d565b82525060208301358281111561196e57600080fd5b61197a8a82860161167d565b60208301525060408301358281111561199257600080fd5b61199e8a82860161167d565b604083015250606083013560608201526080830135608082015260a083013560a08201528094505060608701359150808211156119da57600080fd5b506119e78782880161167d565b91505092959194509250565b600181811c90821680611a0757607f821691505b602082108103611a2757634e487b7160e01b600052602260045260246000fd5b50919050565b60208082526025908201527f457870657269656e63653a2063616c6c6572206973206e6f742074686520636f6040820152646d70616e7960d81b606082015260800190565b602080825260169082015275457870657269656e63653a206e6f742061637469766560501b604082015260600190565b600060208284031215611ab457600080fd5b81516115bb81611708565b60208082526025908201527f457870657269656e63653a2063616c6c6572206973206e6f742074686520666160408201526463746f727960d81b606082015260800190565b600060208284031215611b1657600080fd5b815180151581146115bb57600080fd5b602081528151602082015260006020830151604080840152610600606084018261157c565b60006020808385031215611b5e57600080fd5b825167ffffffffffffffff80821115611b7657600080fd5b9084019060408287031215611b8a57600080fd5b611b926115d8565b825181528383015182811115611ba757600080fd5b80840193505086601f840112611bbc57600080fd5b82519150611bcc61169c83611655565b8281528785848601011115611be057600080fd5b611bef83868301878701611558565b938101939093525090949350505050565b601f821115611c48576000816000526020600020601f850160051c81016020861015611c295750805b601f850160051c820191505b81811015610e4c57828155600101611c35565b505050565b815167ffffffffffffffff811115611c6757611c676115c2565b611c7b81611c7584546119f3565b84611c00565b602080601f831160018114611cb05760008415611c985750858301515b600019600386901b1c1916600185901b178555610e4c565b600085815260208120601f198616915b82811015611cdf57888601518255948401946001909101908401611cc0565b5085821015611cfd5787850151600019600388901b60f8161c191681555b5050505050600190811b0190555056fea2646970667358221220577f7a9d4b5fa242930db0cd7fd4c0a90f92271f17422f703f78e43dcc92247a64736f6c63430008180033",
  "linkReferences": {},
  "deployedLinkReferences": {}
}