{
  "_format": "hh-sol-artifact-1",
  "contractName": "Experience",
  "sourceName": "contracts/experience/Experience.sol",
  "abi": [
    {
      "inputs": [
        {
          "components": [
            {
              "internalType": "address",
              "name": "experienceFactory",
              "type": "address"
            },
            {
              "internalType": "address",
              "name": "portalRegistry",
              "type": "address"
            },
            {
              "internalType": "address",
              "name": "experienceRegistry",
              "type": "address"
            }
          ],
          "internalType": "struct ExperienceConstructorArgs",
          "name": "args",
          "type": "tuple"
        }
      ],
      "stateMutability": "nonpayable",
      "type": "constructor"
    },
    {
      "inputs": [],
      "name": "ReentrancyGuardReentrantCall",
      "type": "error"
    },
    {
      "anonymous": false,
      "inputs": [],
      "name": "ExperienceDeactivated",
      "type": "event"
    },
    {
      "anonymous": false,
      "inputs": [
        {
          "indexed": true,
          "internalType": "address",
          "name": "oldVersion",
          "type": "address"
        },
        {
          "indexed": true,
          "internalType": "address",
          "name": "newVersion",
          "type": "address"
        }
      ],
      "name": "ExperienceUpgraded",
      "type": "event"
    },
    {
      "anonymous": false,
      "inputs": [
        {
          "indexed": true,
          "internalType": "address",
          "name": "hook",
          "type": "address"
        }
      ],
      "name": "HookAdded",
      "type": "event"
    },
    {
      "anonymous": false,
      "inputs": [],
      "name": "HookRemoved",
      "type": "event"
    },
    {
      "anonymous": false,
      "inputs": [
        {
          "indexed": true,
          "internalType": "address",
          "name": "hook",
          "type": "address"
        }
      ],
      "name": "HookRemoved",
      "type": "event"
    },
    {
      "anonymous": false,
      "inputs": [
        {
          "indexed": false,
          "internalType": "address",
          "name": "hook",
          "type": "address"
        }
      ],
      "name": "HookSet",
      "type": "event"
    },
    {
      "anonymous": false,
      "inputs": [
        {
          "indexed": true,
          "internalType": "address",
          "name": "sourceWorld",
          "type": "address"
        },
        {
          "indexed": true,
          "internalType": "address",
          "name": "sourceCompany",
          "type": "address"
        },
        {
          "indexed": true,
          "internalType": "address",
          "name": "avatar",
          "type": "address"
        },
        {
          "indexed": false,
          "internalType": "uint256",
          "name": "attachedFees",
          "type": "uint256"
        }
      ],
      "name": "JumpEntry",
      "type": "event"
    },
    {
      "anonymous": false,
      "inputs": [
        {
          "indexed": false,
          "internalType": "uint256",
          "name": "newFee",
          "type": "uint256"
        }
      ],
      "name": "PortalFeeChanged",
      "type": "event"
    },
    {
      "inputs": [
        {
          "internalType": "contract IPortalCondition",
          "name": "condition",
          "type": "address"
        }
      ],
      "name": "addPortalCondition",
      "outputs": [],
      "stateMutability": "nonpayable",
      "type": "function"
    },
    {
      "inputs": [
        {
          "internalType": "uint256",
          "name": "fee",
          "type": "uint256"
        }
      ],
      "name": "changePortalFee",
      "outputs": [],
      "stateMutability": "nonpayable",
      "type": "function"
    },
    {
      "inputs": [],
      "name": "company",
      "outputs": [
        {
          "internalType": "address",
          "name": "",
          "type": "address"
        }
      ],
      "stateMutability": "view",
      "type": "function"
    },
    {
      "inputs": [],
      "name": "connectionDetails",
      "outputs": [
        {
          "internalType": "bytes",
          "name": "",
          "type": "bytes"
        }
      ],
      "stateMutability": "view",
      "type": "function"
    },
    {
      "inputs": [],
      "name": "deactive",
      "outputs": [],
      "stateMutability": "nonpayable",
      "type": "function"
    },
    {
      "inputs": [
        {
          "components": [
            {
              "internalType": "uint256",
              "name": "entryFee",
              "type": "uint256"
            },
            {
              "internalType": "bytes",
              "name": "connectionDetails",
              "type": "bytes"
            }
          ],
          "internalType": "struct ExperienceInitData",
          "name": "data",
          "type": "tuple"
        }
      ],
      "name": "encodeInitData",
      "outputs": [
        {
          "internalType": "bytes",
          "name": "",
          "type": "bytes"
        }
      ],
      "stateMutability": "pure",
      "type": "function"
    },
    {
      "inputs": [
        {
          "components": [
            {
              "internalType": "address",
              "name": "sourceWorld",
              "type": "address"
            },
            {
              "internalType": "address",
              "name": "sourceCompany",
              "type": "address"
            },
            {
              "internalType": "address",
              "name": "avatar",
              "type": "address"
            }
          ],
          "internalType": "struct JumpEntryRequest",
          "name": "request",
          "type": "tuple"
        }
      ],
      "name": "entering",
      "outputs": [
        {
          "internalType": "bytes",
          "name": "",
          "type": "bytes"
        }
      ],
      "stateMutability": "payable",
      "type": "function"
    },
    {
      "inputs": [],
      "name": "entryFee",
      "outputs": [
        {
          "internalType": "uint256",
          "name": "",
          "type": "uint256"
        }
      ],
      "stateMutability": "view",
      "type": "function"
    },
    {
      "inputs": [],
      "name": "experienceFactory",
      "outputs": [
        {
          "internalType": "address",
          "name": "",
          "type": "address"
        }
      ],
      "stateMutability": "view",
      "type": "function"
    },
    {
      "inputs": [],
      "name": "experienceRegistry",
      "outputs": [
        {
          "internalType": "contract IExperienceRegistry",
          "name": "",
          "type": "address"
        }
      ],
      "stateMutability": "view",
      "type": "function"
    },
    {
      "inputs": [],
      "name": "hook",
      "outputs": [
        {
          "internalType": "address",
          "name": "",
          "type": "address"
        }
      ],
      "stateMutability": "view",
      "type": "function"
    },
    {
      "inputs": [
        {
          "internalType": "address",
          "name": "_company",
          "type": "address"
        },
        {
          "internalType": "string",
          "name": "_name",
          "type": "string"
        },
        {
          "components": [
            {
              "internalType": "string",
              "name": "x",
              "type": "string"
            },
            {
              "internalType": "string",
              "name": "y",
              "type": "string"
            },
            {
              "internalType": "string",
              "name": "z",
              "type": "string"
            },
            {
              "internalType": "uint256",
              "name": "t",
              "type": "uint256"
            },
            {
              "internalType": "uint256",
              "name": "p",
              "type": "uint256"
            },
            {
              "internalType": "uint256",
              "name": "p_sub",
              "type": "uint256"
            }
          ],
          "internalType": "struct VectorAddress",
          "name": "vector",
          "type": "tuple"
        },
        {
          "internalType": "bytes",
          "name": "initData",
          "type": "bytes"
        }
      ],
      "name": "init",
      "outputs": [],
      "stateMutability": "nonpayable",
      "type": "function"
    },
    {
      "inputs": [],
      "name": "isActive",
      "outputs": [
        {
          "internalType": "bool",
          "name": "",
          "type": "bool"
        }
      ],
      "stateMutability": "view",
      "type": "function"
    },
    {
      "inputs": [],
      "name": "name",
      "outputs": [
        {
          "internalType": "string",
          "name": "",
          "type": "string"
        }
      ],
      "stateMutability": "view",
      "type": "function"
    },
    {
      "inputs": [],
      "name": "portalRegistry",
      "outputs": [
        {
          "internalType": "contract IPortalRegistry",
          "name": "",
          "type": "address"
        }
      ],
      "stateMutability": "view",
      "type": "function"
    },
    {
      "inputs": [],
      "name": "removeHook",
      "outputs": [],
      "stateMutability": "nonpayable",
      "type": "function"
    },
    {
      "inputs": [],
      "name": "removePortalCondition",
      "outputs": [],
      "stateMutability": "nonpayable",
      "type": "function"
    },
    {
      "inputs": [
        {
          "internalType": "address",
          "name": "_hook",
          "type": "address"
        }
      ],
      "name": "setHook",
      "outputs": [],
      "stateMutability": "nonpayable",
      "type": "function"
    },
    {
      "inputs": [
        {
          "internalType": "bytes",
          "name": "initData",
          "type": "bytes"
        }
      ],
      "name": "upgrade",
      "outputs": [
        {
          "internalType": "address",
          "name": "",
          "type": "address"
        }
      ],
      "stateMutability": "nonpayable",
      "type": "function"
    },
    {
      "inputs": [
        {
          "internalType": "address",
          "name": "nextVersion",
          "type": "address"
        }
      ],
      "name": "upgradeComplete",
      "outputs": [],
      "stateMutability": "nonpayable",
      "type": "function"
    },
    {
      "inputs": [],
      "name": "vectorAddress",
      "outputs": [
        {
          "components": [
            {
              "internalType": "string",
              "name": "x",
              "type": "string"
            },
            {
              "internalType": "string",
              "name": "y",
              "type": "string"
            },
            {
              "internalType": "string",
              "name": "z",
              "type": "string"
            },
            {
              "internalType": "uint256",
              "name": "t",
              "type": "uint256"
            },
            {
              "internalType": "uint256",
              "name": "p",
              "type": "uint256"
            },
            {
              "internalType": "uint256",
              "name": "p_sub",
              "type": "uint256"
            }
          ],
          "internalType": "struct VectorAddress",
          "name": "",
          "type": "tuple"
        }
      ],
      "stateMutability": "view",
      "type": "function"
    },
    {
      "inputs": [],
      "name": "version",
      "outputs": [
        {
          "internalType": "uint256",
          "name": "",
          "type": "uint256"
        }
      ],
      "stateMutability": "view",
      "type": "function"
    },
    {
      "inputs": [],
      "name": "world",
      "outputs": [
        {
          "internalType": "address",
          "name": "",
          "type": "address"
        }
      ],
      "stateMutability": "view",
      "type": "function"
    },
    {
      "stateMutability": "payable",
      "type": "receive"
    }
  ],
  "bytecode": "0x60e06040523480156200001157600080fd5b50604051620023b0380380620023b08339810160408190526200003491620001b9565b600160005580516001600160a01b0316620000965760405162461bcd60e51b815260206004820181905260248201527f457870657269656e63653a207a65726f206164647265737320666163746f727960448201526064015b60405180910390fd5b60208101516001600160a01b0316620001025760405162461bcd60e51b815260206004820152602760248201527f457870657269656e63653a207a65726f206164647265737320706f7274616c526044820152666567697374727960c81b60648201526084016200008d565b60408101516001600160a01b0316620001725760405162461bcd60e51b815260206004820152602b60248201527f457870657269656e63653a207a65726f2061646472657373206578706572696560448201526a6e6365526567697374727960a81b60648201526084016200008d565b80516001600160a01b039081166080526020820151811660a0526040909101511660c0526200023a565b80516001600160a01b0381168114620001b457600080fd5b919050565b600060608284031215620001cc57600080fd5b604051606081016001600160401b0381118282101715620001fd57634e487b7160e01b600052604160045260246000fd5b6040526200020b836200019c565b81526200021b602084016200019c565b60208201526200022e604084016200019c565b60408201529392505050565b60805160a05160c05161210e620002a26000396000818161038b0152818161070601526114ed0152600081816103d401528181610dba015281816111a3015281816112c0015261143f015260008181610337015281816107920152611624015261210e6000f3fe6080604052600436106101445760003560e01c806354fd4d50116100b657806383c342631161006f57806383c34263146103595780638f09a6be14610379578063a008f709146103ad578063b6664934146103c2578063d97c02f7146103f6578063fad94ff01461041657600080fd5b806354fd4d50146102b157806358779dcf146102c65780636904c94d146102db5780636fdfe1b6146102f05780637f5a7c7b1461031057806381bb20291461032557600080fd5b80632663d1f7116101085780632663d1f7146102105780632fcbab9a1461023257806330b67baa14610254578063378f17ff146102695780633dfd38731461027e57806354cc5a0b1461029e57600080fd5b806306fdde0314610150578063072ea61c1461017b5780631864a47c1461019e57806322f3e2d4146101b357806325394645146101d857600080fd5b3661014b57005b600080fd5b34801561015c57600080fd5b50610165610436565b6040516101729190611903565b60405180910390f35b34801561018757600080fd5b506101906104d7565b604051908152602001610172565b3480156101aa57600080fd5b506101656104ec565b3480156101bf57600080fd5b506101c8610509565b6040519015158152602001610172565b3480156101e457600080fd5b506101f86101f3366004611a2e565b61051e565b6040516001600160a01b039091168152602001610172565b34801561021c57600080fd5b5061023061022b366004611a83565b610787565b005b34801561023e57600080fd5b5061024761086f565b6040516101729190611aa0565b34801561026057600080fd5b506101f8610a9d565b34801561027557600080fd5b50610230610abb565b34801561028a57600080fd5b50610230610299366004611a83565b610b7e565b6101656102ac366004611b23565b610da5565b3480156102bd57600080fd5b50610190600181565b3480156102d257600080fd5b50610230611138565b3480156102e757600080fd5b506101f8611218565b3480156102fc57600080fd5b5061023061030b366004611a83565b611238565b34801561031c57600080fd5b506101f8611321565b34801561033157600080fd5b506101f87f000000000000000000000000000000000000000000000000000000000000000081565b34801561036557600080fd5b50610230610374366004611b95565b6113ac565b34801561038557600080fd5b506101f87f000000000000000000000000000000000000000000000000000000000000000081565b3480156103b957600080fd5b506102306114e2565b3480156103ce57600080fd5b506101f87f000000000000000000000000000000000000000000000000000000000000000081565b34801561040257600080fd5b50610165610411366004611bae565b6115f0565b34801561042257600080fd5b50610230610431366004611c25565b611619565b6060600061044261183d565b905080600801805461045390611d56565b80601f016020809104026020016040519081016040528092919081815260200182805461047f90611d56565b80156104cc5780601f106104a1576101008083540402835291602001916104cc565b820191906000526020600020905b8154815290600101906020018083116104af57829003601f168201915b505050505091505090565b6000806104e261183d565b6009015492915050565b606060006104f861183d565b905080600a01805461045390611d56565b60008061051461183d565b5460ff1692915050565b60008061052961183d565b805490915061010090046001600160a01b031633146105635760405162461bcd60e51b815260040161055a90611d90565b60405180910390fd5b600061056d61183d565b805490915060ff166105915760405162461bcd60e51b815260040161055a90611dd5565b60006000805160206120b98339815191526040516364cff67f60e11b8152600481019190915273__$b33bdc01aa0b2bf845e7e40ceebecaaf7e$__9063c99fecfe90602401602060405180830381865af41580156105f3573d6000803e3d6000fd5b505050506040513d601f19601f820116820180604052508101906106179190611e05565b90506001600160a01b038116156106ef576040516316b52d0160e31b81526001600160a01b0382169063b5a9680890610654908890600401611903565b6020604051808303816000875af1158015610673573d6000803e3d6000fd5b505050506040513d601f19601f820116820180604052508101906106979190611e22565b6106ef5760405162461bcd60e51b815260206004820152602360248201527f457870657269656e63653a20686f6f6b20646973616c6c6f776564207570677260448201526261646560e81b606482015260840161055a565b604051636d941fe760e01b81526001600160a01b037f00000000000000000000000000000000000000000000000000000000000000001690636d941fe79061073b908890600401611903565b6020604051808303816000875af115801561075a573d6000803e3d6000fd5b505050506040513d601f19601f8201168201806040525081019061077e9190611e05565b95945050505050565b336001600160a01b037f000000000000000000000000000000000000000000000000000000000000000016146107cf5760405162461bcd60e51b815260040161055a90611e44565b60006107d961183d565b805490915060ff166107fd5760405162461bcd60e51b815260040161055a90611dd5565b7f69198989339f34e10129e514286bde98979351148754faef989dde18bf6d14da80546001600160a01b031981166001600160a01b03858116918217845560405192169182907ffcdd1163294624e52a4e91ca619f82b1f2c5a096836fbd81f14e0b550fe8317790600090a350505050565b6108a86040518060c001604052806060815260200160608152602001606081526020016000815260200160008152602001600081525090565b60006108b261183d565b9050806002016040518060c00160405290816000820180546108d390611d56565b80601f01602080910402602001604051908101604052809291908181526020018280546108ff90611d56565b801561094c5780601f106109215761010080835404028352916020019161094c565b820191906000526020600020905b81548152906001019060200180831161092f57829003601f168201915b5050505050815260200160018201805461096590611d56565b80601f016020809104026020016040519081016040528092919081815260200182805461099190611d56565b80156109de5780601f106109b3576101008083540402835291602001916109de565b820191906000526020600020905b8154815290600101906020018083116109c157829003601f168201915b505050505081526020016002820180546109f790611d56565b80601f0160208091040260200160405190810160405280929190818152602001828054610a2390611d56565b8015610a705780601f10610a4557610100808354040283529160200191610a70565b820191906000526020600020905b815481529060010190602001808311610a5357829003601f168201915b50505050508152602001600382015481526020016004820154815260200160058201548152505091505090565b600080610aa861183d565b600101546001600160a01b031692915050565b610ac433611861565b610ae05760405162461bcd60e51b815260040161055a90611e89565b6000805160206120b983398151915260405163747aa1a560e11b8152600481019190915273__$b33bdc01aa0b2bf845e7e40ceebecaaf7e$__9063e8f5434a9060240160006040518083038186803b158015610b3b57600080fd5b505af4158015610b4f573d6000803e3d6000fd5b50506040517f4abf6d25887ff6b78026f569f956b6d57d5b92cecf0ee91d897ec98e47f656a3925060009150a1565b610b8733611861565b610ba35760405162461bcd60e51b815260040161055a90611e89565b6001600160a01b038116610c0b5760405162461bcd60e51b815260206004820152602960248201527f42617365486f6f6b537570706f72743a20686f6f6b20697320746865207a65726044820152686f206164647265737360b81b606482015260840161055a565b604051631627905560e01b81526001600160a01b038216600482015273__$b33bdc01aa0b2bf845e7e40ceebecaaf7e$__90631627905590602401602060405180830381865af4158015610c63573d6000803e3d6000fd5b505050506040513d601f19601f82011682018060405250810190610c879190611e22565b610ce35760405162461bcd60e51b815260206004820152602760248201527f42617365486f6f6b537570706f72743a20686f6f6b206973206e6f74206120636044820152661bdb9d1c9858dd60ca1b606482015260840161055a565b6000805160206120b9833981519152604051630a8a5ef160e31b815260048101919091526001600160a01b038216602482015273__$b33bdc01aa0b2bf845e7e40ceebecaaf7e$__90635452f7889060440160006040518083038186803b158015610d4d57600080fd5b505af4158015610d61573d6000803e3d6000fd5b50506040516001600160a01b03841681527f4eab7b127c764308788622363ad3e9532de3dfba7845bd4f84c125a22544255a9250602001905060405180910390a150565b6060610daf611889565b336001600160a01b037f00000000000000000000000000000000000000000000000000000000000000001614610e3d5760405162461bcd60e51b815260206004820152602d60248201527f457870657269656e63653a2063616c6c6572206973206e6f742074686520706f60448201526c7274616c20726567697374727960981b606482015260840161055a565b6000610e4761183d565b805490915060ff16610e6b5760405162461bcd60e51b815260040161055a90611dd5565b6000610e7561183d565b905060006000805160206120b98339815191526040516364cff67f60e11b8152600481019190915273__$b33bdc01aa0b2bf845e7e40ceebecaaf7e$__9063c99fecfe90602401602060405180830381865af4158015610ed9573d6000803e3d6000fd5b505050506040513d601f19601f82011682018060405250810190610efd9190611e05565b90506001600160a01b03811615610ff957845160208601516040808801519051630a17c10560e21b81523060048201526001600160a01b03938416602482015291831660448301528216606482015260009183169063285f0414906084016020604051808303816000875af1158015610f7a573d6000803e3d6000fd5b505050506040513d601f19601f82011682018060405250810190610f9e9190611e22565b905080610ff75760405162461bcd60e51b815260206004820152602160248201527f457870657269656e63653a20686f6f6b20646973616c6c6f77656420656e74726044820152607960f81b606482015260840161055a565b505b60098201541561109757816009015434146110565760405162461bcd60e51b815260206004820152601f60248201527f457870657269656e63653a20696e636f727265637420656e7472792066656500604482015260640161055a565b81546040516001600160a01b0361010090920491909116903480156108fc02916000818181858888f19350505050158015611095573d6000803e3d6000fd5b505b81600a0180546110a690611d56565b80601f01602080910402602001604051908101604052809291908181526020018280546110d290611d56565b801561111f5780601f106110f45761010080835404028352916020019161111f565b820191906000526020600020905b81548152906001019060200180831161110257829003601f168201915b505050505093505050506111336001600055565b919050565b600061114261183d565b805490915061010090046001600160a01b031633146111735760405162461bcd60e51b815260040161055a90611d90565b600061117d61183d565b805490915060ff166111a15760405162461bcd60e51b815260040161055a90611dd5565b7f00000000000000000000000000000000000000000000000000000000000000006001600160a01b031663021665b76040518163ffffffff1660e01b8152600401600060405180830381600087803b1580156111fc57600080fd5b505af1158015611210573d6000803e3d6000fd5b505050505050565b60008061122361183d565b5461010090046001600160a01b031692915050565b600061124261183d565b805490915061010090046001600160a01b031633146112735760405162461bcd60e51b815260040161055a90611d90565b600061127d61183d565b805490915060ff166112a15760405162461bcd60e51b815260040161055a90611dd5565b604051631169a49960e11b81526001600160a01b0384811660048301527f000000000000000000000000000000000000000000000000000000000000000016906322d3493290602401600060405180830381600087803b15801561130457600080fd5b505af1158015611318573d6000803e3d6000fd5b50505050505050565b60006000805160206120b98339815191526040516364cff67f60e11b8152600481019190915273__$b33bdc01aa0b2bf845e7e40ceebecaaf7e$__9063c99fecfe90602401602060405180830381865af4158015611383573d6000803e3d6000fd5b505050506040513d601f19601f820116820180604052508101906113a79190611e05565b905090565b60006113b661183d565b805490915061010090046001600160a01b031633146113e75760405162461bcd60e51b815260040161055a90611d90565b60006113f161183d565b805490915060ff166114155760405162461bcd60e51b815260040161055a90611dd5565b600061141f61183d565b600981018590556040516383c3426360e01b8152600481018690529091507f00000000000000000000000000000000000000000000000000000000000000006001600160a01b0316906383c3426390602401600060405180830381600087803b15801561148b57600080fd5b505af115801561149f573d6000803e3d6000fd5b505050507fc777ac489c019545540295deb6dee51fa4df4300a7b8c7b0ab785507cafeb1e9846040516114d491815260200190565b60405180910390a150505050565b336001600160a01b037f000000000000000000000000000000000000000000000000000000000000000016146115695760405162461bcd60e51b815260206004820152602660248201527f457870657269656e63653a2063616c6c6572206973206e6f742074686520726560448201526567697374727960d01b606482015260840161055a565b600061157361183d565b805460ff19168155905047156115c45780546040516001600160a01b0361010090920491909116904780156108fc02916000818181858888f193505050501580156115c2573d6000803e3d6000fd5b505b6040517f1cabccdc2d1e9b8b0dfdfc82b79b881b7bff3debd9cc6acdbcbac533becbfc4990600090a150565b6060816040516020016116039190611ed1565b6040516020818303038152906040529050919050565b336001600160a01b037f000000000000000000000000000000000000000000000000000000000000000016146116615760405162461bcd60e51b815260040161055a90611e44565b600061166b61183d565b805490915061010090046001600160a01b0316156116cb5760405162461bcd60e51b815260206004820152601f60248201527f457870657269656e63653a20616c726561647920696e697469616c697a656400604482015260640161055a565b8054610100600160a81b0319166101006001600160a01b0387160217815581516000906117019060209085018101908501611ef6565b84519091508490600284019081906117199082611ff8565b506020820151600182019061172e9082611ff8565b50604082015160028201906117439082611ff8565b50606082015181600301556080820151816004015560a082015181600501559050508160000160019054906101000a90046001600160a01b03166001600160a01b03166330b67baa6040518163ffffffff1660e01b8152600401602060405180830381865afa1580156117ba573d6000803e3d6000fd5b505050506040513d601f19601f820116820180604052508101906117de9190611e05565b6001830180546001600160a01b0319166001600160a01b03929092169190911790556008820161180e8682611ff8565b50805160098301556020810151600a83019061182a9082611ff8565b5050805460ff1916600117905550505050565b7f7ea04aef6bca987a4816974a9eadce73182071dd7a8e8812099e1d973c1ae50590565b60008061186c61183d565b5461010090046001600160a01b0390811693169290921492915050565b6002600054036118ac57604051633ee5aeb560e01b815260040160405180910390fd5b6002600055565b60005b838110156118ce5781810151838201526020016118b6565b50506000910152565b600081518084526118ef8160208601602086016118b3565b601f01601f19169290920160200192915050565b60208152600061191660208301846118d7565b9392505050565b634e487b7160e01b600052604160045260246000fd5b6040805190810167ffffffffffffffff811182821017156119565761195661191d565b60405290565b60405160c0810167ffffffffffffffff811182821017156119565761195661191d565b604051601f8201601f1916810167ffffffffffffffff811182821017156119a8576119a861191d565b604052919050565b600067ffffffffffffffff8211156119ca576119ca61191d565b50601f01601f191660200190565b600082601f8301126119e957600080fd5b81356119fc6119f7826119b0565b61197f565b818152846020838601011115611a1157600080fd5b816020850160208301376000918101602001919091529392505050565b600060208284031215611a4057600080fd5b813567ffffffffffffffff811115611a5757600080fd5b611a63848285016119d8565b949350505050565b6001600160a01b0381168114611a8057600080fd5b50565b600060208284031215611a9557600080fd5b813561191681611a6b565b602081526000825160c06020840152611abc60e08401826118d7565b90506020840151601f1980858403016040860152611ada83836118d7565b9250604086015191508085840301606086015250611af882826118d7565b91505060608401516080840152608084015160a084015260a084015160c08401528091505092915050565b600060608284031215611b3557600080fd5b6040516060810181811067ffffffffffffffff82111715611b5857611b5861191d565b6040528235611b6681611a6b565b81526020830135611b7681611a6b565b60208201526040830135611b8981611a6b565b60408201529392505050565b600060208284031215611ba757600080fd5b5035919050565b600060208284031215611bc057600080fd5b813567ffffffffffffffff80821115611bd857600080fd5b9083019060408286031215611bec57600080fd5b611bf4611933565b82358152602083013582811115611c0a57600080fd5b611c16878286016119d8565b60208301525095945050505050565b60008060008060808587031215611c3b57600080fd5b8435611c4681611a6b565b9350602085013567ffffffffffffffff80821115611c6357600080fd5b611c6f888389016119d8565b94506040870135915080821115611c8557600080fd5b9086019060c08289031215611c9957600080fd5b611ca161195c565b823582811115611cb057600080fd5b611cbc8a8286016119d8565b825250602083013582811115611cd157600080fd5b611cdd8a8286016119d8565b602083015250604083013582811115611cf557600080fd5b611d018a8286016119d8565b604083015250606083013560608201526080830135608082015260a083013560a0820152809450506060870135915080821115611d3d57600080fd5b50611d4a878288016119d8565b91505092959194509250565b600181811c90821680611d6a57607f821691505b602082108103611d8a57634e487b7160e01b600052602260045260246000fd5b50919050565b60208082526025908201527f457870657269656e63653a2063616c6c6572206973206e6f742074686520636f6040820152646d70616e7960d81b606082015260800190565b602080825260169082015275457870657269656e63653a206e6f742061637469766560501b604082015260600190565b600060208284031215611e1757600080fd5b815161191681611a6b565b600060208284031215611e3457600080fd5b8151801515811461191657600080fd5b60208082526025908201527f457870657269656e63653a2063616c6c6572206973206e6f742074686520666160408201526463746f727960d81b606082015260800190565b60208082526028908201527f42617365486f6f6b537570706f72743a2063616c6c6572206973206e6f74207460408201526734329030b236b4b760c11b606082015260800190565b602081528151602082015260006020830151604080840152611a6360608401826118d7565b60006020808385031215611f0957600080fd5b825167ffffffffffffffff80821115611f2157600080fd5b9084019060408287031215611f3557600080fd5b611f3d611933565b825181528383015182811115611f5257600080fd5b80840193505086601f840112611f6757600080fd5b82519150611f776119f7836119b0565b8281528785848601011115611f8b57600080fd5b611f9a838683018787016118b3565b938101939093525090949350505050565b601f821115611ff3576000816000526020600020601f850160051c81016020861015611fd45750805b601f850160051c820191505b8181101561121057828155600101611fe0565b505050565b815167ffffffffffffffff8111156120125761201261191d565b612026816120208454611d56565b84611fab565b602080601f83116001811461205b57600084156120435750858301515b600019600386901b1c1916600185901b178555611210565b600085815260208120601f198616915b8281101561208a5788860151825594840194600190910190840161206b565b50858210156120a85787850151600019600388901b60f8161c191681555b5050505050600190811b0190555056fe2914b2bb01114b5159800e543f6c1279819fc613124831d49682628c159b8a38a26469706673582212207f5e5feab50feb609976dba898756a72228e6a047a985fbca5a0c5a961340f0664736f6c63430008180033",
  "linkReferences": {
    "contracts/libraries/LibHooks.sol": {
      "LibHooks": [
        {
          "length": 20,
          "start": 2139
        },
        {
          "length": 20,
          "start": 3496
        },
        {
          "length": 20,
          "start": 3787
        },
        {
          "length": 20,
          "start": 4026
        },
        {
          "length": 20,
          "start": 4417
        },
        {
          "length": 20,
          "start": 5611
        }
      ]
    }
  },
  "deployedLinkReferences": {
    "contracts/libraries/LibHooks.sol": {
      "LibHooks": [
        {
          "length": 20,
          "start": 1465
        },
        {
          "length": 20,
          "start": 2822
        },
        {
          "length": 20,
          "start": 3113
        },
        {
          "length": 20,
          "start": 3352
        },
        {
          "length": 20,
          "start": 3743
        },
        {
          "length": 20,
          "start": 4937
        }
      ]
    }
  }
}