{
  "_format": "hh-sol-artifact-1",
  "contractName": "ExperienceFactory",
  "sourceName": "contracts/experience/ExperienceFactory.sol",
  "abi": [
    {
      "inputs": [
        {
          "internalType": "address",
          "name": "mainAdmin",
          "type": "address"
        },
        {
          "internalType": "address[]",
          "name": "admins",
          "type": "address[]"
        }
      ],
      "stateMutability": "nonpayable",
      "type": "constructor"
    },
    {
      "inputs": [],
      "name": "AccessControlBadConfirmation",
      "type": "error"
    },
    {
      "inputs": [
        {
          "internalType": "address",
          "name": "account",
          "type": "address"
        },
        {
          "internalType": "bytes32",
          "name": "neededRole",
          "type": "bytes32"
        }
      ],
      "name": "AccessControlUnauthorizedAccount",
      "type": "error"
    },
    {
      "anonymous": false,
      "inputs": [
        {
          "indexed": true,
          "internalType": "address",
          "name": "oldRegistry",
          "type": "address"
        },
        {
          "indexed": true,
          "internalType": "address",
          "name": "newRegistry",
          "type": "address"
        }
      ],
      "name": "AuthorizedRegistryChanged",
      "type": "event"
    },
    {
      "anonymous": false,
      "inputs": [
        {
          "indexed": true,
          "internalType": "bytes32",
          "name": "role",
          "type": "bytes32"
        },
        {
          "indexed": true,
          "internalType": "bytes32",
          "name": "previousAdminRole",
          "type": "bytes32"
        },
        {
          "indexed": true,
          "internalType": "bytes32",
          "name": "newAdminRole",
          "type": "bytes32"
        }
      ],
      "name": "RoleAdminChanged",
      "type": "event"
    },
    {
      "anonymous": false,
      "inputs": [
        {
          "indexed": true,
          "internalType": "bytes32",
          "name": "role",
          "type": "bytes32"
        },
        {
          "indexed": true,
          "internalType": "address",
          "name": "account",
          "type": "address"
        },
        {
          "indexed": true,
          "internalType": "address",
          "name": "sender",
          "type": "address"
        }
      ],
      "name": "RoleGranted",
      "type": "event"
    },
    {
      "anonymous": false,
      "inputs": [
        {
          "indexed": true,
          "internalType": "bytes32",
          "name": "role",
          "type": "bytes32"
        },
        {
          "indexed": true,
          "internalType": "address",
          "name": "account",
          "type": "address"
        },
        {
          "indexed": true,
          "internalType": "address",
          "name": "sender",
          "type": "address"
        }
      ],
      "name": "RoleRevoked",
      "type": "event"
    },
    {
      "inputs": [],
      "name": "ADMIN_ROLE",
      "outputs": [
        {
          "internalType": "bytes32",
          "name": "",
          "type": "bytes32"
        }
      ],
      "stateMutability": "view",
      "type": "function"
    },
    {
      "inputs": [],
      "name": "DEFAULT_ADMIN_ROLE",
      "outputs": [
        {
          "internalType": "bytes32",
          "name": "",
          "type": "bytes32"
        }
      ],
      "stateMutability": "view",
      "type": "function"
    },
    {
      "inputs": [
        {
          "internalType": "address",
          "name": "owner",
          "type": "address"
        },
        {
          "components": [
            {
              "internalType": "string",
              "name": "x",
              "type": "string"
            },
            {
              "internalType": "string",
              "name": "y",
              "type": "string"
            },
            {
              "internalType": "string",
              "name": "z",
              "type": "string"
            },
            {
              "internalType": "uint256",
              "name": "t",
              "type": "uint256"
            },
            {
              "internalType": "uint256",
              "name": "p",
              "type": "uint256"
            },
            {
              "internalType": "uint256",
              "name": "p_sub",
              "type": "uint256"
            }
          ],
          "internalType": "struct VectorAddress",
          "name": "va",
          "type": "tuple"
        },
        {
          "internalType": "bytes",
          "name": "initData",
          "type": "bytes"
        }
      ],
      "name": "createExperience",
      "outputs": [
        {
          "internalType": "address",
          "name": "proxy",
          "type": "address"
        }
      ],
      "stateMutability": "nonpayable",
      "type": "function"
    },
    {
      "inputs": [
        {
          "internalType": "bytes32",
          "name": "role",
          "type": "bytes32"
        }
      ],
      "name": "getRoleAdmin",
      "outputs": [
        {
          "internalType": "bytes32",
          "name": "",
          "type": "bytes32"
        }
      ],
      "stateMutability": "view",
      "type": "function"
    },
    {
      "inputs": [
        {
          "internalType": "bytes32",
          "name": "role",
          "type": "bytes32"
        },
        {
          "internalType": "address",
          "name": "account",
          "type": "address"
        }
      ],
      "name": "grantRole",
      "outputs": [],
      "stateMutability": "nonpayable",
      "type": "function"
    },
    {
      "inputs": [
        {
          "internalType": "bytes32",
          "name": "role",
          "type": "bytes32"
        },
        {
          "internalType": "address",
          "name": "account",
          "type": "address"
        }
      ],
      "name": "hasRole",
      "outputs": [
        {
          "internalType": "bool",
          "name": "",
          "type": "bool"
        }
      ],
      "stateMutability": "view",
      "type": "function"
    },
    {
      "inputs": [
        {
          "internalType": "address",
          "name": "query",
          "type": "address"
        }
      ],
      "name": "isClone",
      "outputs": [
        {
          "internalType": "bool",
          "name": "result",
          "type": "bool"
        }
      ],
      "stateMutability": "view",
      "type": "function"
    },
    {
      "inputs": [
        {
          "internalType": "bytes32",
          "name": "role",
          "type": "bytes32"
        },
        {
          "internalType": "address",
          "name": "callerConfirmation",
          "type": "address"
        }
      ],
      "name": "renounceRole",
      "outputs": [],
      "stateMutability": "nonpayable",
      "type": "function"
    },
    {
      "inputs": [
        {
          "internalType": "bytes32",
          "name": "role",
          "type": "bytes32"
        },
        {
          "internalType": "address",
          "name": "account",
          "type": "address"
        }
      ],
      "name": "revokeRole",
      "outputs": [],
      "stateMutability": "nonpayable",
      "type": "function"
    },
    {
      "inputs": [
        {
          "internalType": "address",
          "name": "_registry",
          "type": "address"
        }
      ],
      "name": "setAuthorizedRegistry",
      "outputs": [],
      "stateMutability": "nonpayable",
      "type": "function"
    },
    {
      "inputs": [
        {
          "internalType": "address",
          "name": "_implementation",
          "type": "address"
        }
      ],
      "name": "setImplementation",
      "outputs": [],
      "stateMutability": "nonpayable",
      "type": "function"
    },
    {
      "inputs": [
        {
          "internalType": "bytes4",
          "name": "interfaceId",
          "type": "bytes4"
        }
      ],
      "name": "supportsInterface",
      "outputs": [
        {
          "internalType": "bool",
          "name": "",
          "type": "bool"
        }
      ],
      "stateMutability": "view",
      "type": "function"
    }
  ],
  "bytecode": "0x60806040523480156200001157600080fd5b5060405162001052380380620010528339810160408190526200003491620002a6565b81816001600160a01b038216620000a95760405162461bcd60e51b815260206004820152602e60248201527f42617365466163746f72793a206d61696e2061646d696e2063616e6e6f74206260448201526d65207a65726f206164647265737360901b60648201526084015b60405180910390fd5b620000b6600083620001c4565b50620000d26000805160206200103283398151915283620001c4565b5060005b8151811015620001b95760006001600160a01b03168282815181106200010057620001006200038f565b60200260200101516001600160a01b031603620001725760405162461bcd60e51b815260206004820152602960248201527f42617365466163746f72793a2061646d696e2063616e6e6f74206265207a65726044820152686f206164647265737360b81b6064820152608401620000a0565b620001af600080516020620010328339815191528383815181106200019b576200019b6200038f565b6020026020010151620001c460201b60201c565b50600101620000d6565b5050505050620003a5565b6000828152602081815260408083206001600160a01b038516845290915281205460ff1662000269576000838152602081815260408083206001600160a01b03861684529091529020805460ff19166001179055620002203390565b6001600160a01b0316826001600160a01b0316847f2f8788117e7eff1d82e926ec794901d17c78024a50270940304540a733656f0d60405160405180910390a45060016200026d565b5060005b92915050565b80516001600160a01b03811681146200028b57600080fd5b919050565b634e487b7160e01b600052604160045260246000fd5b60008060408385031215620002ba57600080fd5b620002c58362000273565b602084810151919350906001600160401b0380821115620002e557600080fd5b818601915086601f830112620002fa57600080fd5b8151818111156200030f576200030f62000290565b8060051b604051601f19603f8301168101818110858211171562000337576200033762000290565b6040529182528482019250838101850191898311156200035657600080fd5b938501935b828510156200037f576200036f8562000273565b845293850193928501926200035b565b8096505050505050509250929050565b634e487b7160e01b600052603260045260246000fd5b610c7d80620003b56000396000f3fe608060405234801561001057600080fd5b50600436106100b35760003560e01c806336568abe1161007157806336568abe1461017757806375b238fc1461018a57806391d14854146101b1578063a217fddf146101c4578063d547741f146101cc578063d784d426146101df57600080fd5b8062ae3676146100b857806301ffc9a7146100e0578063090741a0146100f35780630dbfbd2714610108578063248a9ca3146101335780632f2ff15d14610164575b600080fd5b6100cb6100c636600461087e565b6101f2565b60405190151581526020015b60405180910390f35b6100cb6100ee3660046108a0565b610267565b61010661010136600461087e565b61029e565b005b61011b6101163660046109df565b610386565b6040516001600160a01b0390911681526020016100d7565b610156610141366004610aec565b60009081526020819052604090206001015490565b6040519081526020016100d7565b610106610172366004610b05565b6104da565b610106610185366004610b05565b610505565b6101567fa49807205ce4d355092ef5a8a18f56e8913cf4a201fbe287825b095693c2177581565b6100cb6101bf366004610b05565b61053d565b610156600081565b6101066101da366004610b05565b610566565b6101066101ed36600461087e565b61058b565b600080600160009054906101000a90046001600160a01b031660601b905060405169363d3d373d3d3d363d7360b01b815281600a8201526e5af43d82803e903d91602b57fd5bf360881b601e82015260408101602d600082873c600d810151600d830151148151835114169350505050919050565b60006001600160e01b03198216637965db0b60e01b148061029857506301ffc9a760e01b6001600160e01b03198316145b92915050565b7fa49807205ce4d355092ef5a8a18f56e8913cf4a201fbe287825b095693c217756102c881610649565b6001600160a01b0382166103395760405162461bcd60e51b815260206004820152602d60248201527f576f726c64466163746f72793a2072656769737472792063616e6e6f7420626560448201526c207a65726f206164647265737360981b60648201526084015b60405180910390fd5b600280546001600160a01b0319166001600160a01b03841690811790915560405181907fc86b12484784843e0f58748ffb8c87f7ee384e04382a190867f3cccc3b6cf97b90600090a35050565b6002546000906001600160a01b03166103f25760405162461bcd60e51b815260206004820152602860248201527f42617365466163746f72793a20617574686f72697a6564207265676973747279604482015267081b9bdd081cd95d60c21b6064820152608401610330565b6002546001600160a01b031633146104635760405162461bcd60e51b815260206004820152602e60248201527f42617365466163746f72793a2063616c6c6572206973206e6f7420617574686f60448201526d72697a656420726567697374727960901b6064820152608401610330565b61046b610656565b60405163b52818a960e01b81529091506001600160a01b0382169063b52818a9906104a0908890889088908890600401610ba0565b600060405180830381600087803b1580156104ba57600080fd5b505af11580156104ce573d6000803e3d6000fd5b50505050949350505050565b6000828152602081905260409020600101546104f581610649565b6104ff8383610673565b50505050565b6001600160a01b038116331461052e5760405163334bd91960e11b815260040160405180910390fd5b6105388282610705565b505050565b6000918252602082815260408084206001600160a01b0393909316845291905290205460ff1690565b60008281526020819052604090206001015461058181610649565b6104ff8383610705565b7fa49807205ce4d355092ef5a8a18f56e8913cf4a201fbe287825b095693c217756105b581610649565b6001600160a01b0382166106265760405162461bcd60e51b815260206004820152603260248201527f42617365466163746f72793a20696d706c656d656e746174696f6e2063616e6e6044820152716f74206265207a65726f206164647265737360701b6064820152608401610330565b50600180546001600160a01b0319166001600160a01b0392909216919091179055565b6106538133610770565b50565b60015460009061066e906001600160a01b03166107ad565b905090565b600061067f838361053d565b6106fd576000838152602081815260408083206001600160a01b03861684529091529020805460ff191660011790556106b53390565b6001600160a01b0316826001600160a01b0316847f2f8788117e7eff1d82e926ec794901d17c78024a50270940304540a733656f0d60405160405180910390a4506001610298565b506000610298565b6000610711838361053d565b156106fd576000838152602081815260408083206001600160a01b0386168085529252808320805460ff1916905551339286917ff6391f5c32d9c69d2a47ea670b442974b53935d1edc7fd64eb21e047a839171b9190a4506001610298565b61077a828261053d565b6107a95760405163e2517d3f60e01b81526001600160a01b038216600482015260248101839052604401610330565b5050565b60006001600160a01b0382166108115760405162461bcd60e51b815260206004820152602360248201527f42617365466163746f72793a20696d706c656d656e746174696f6e206e6f74206044820152621cd95d60ea1b6064820152608401610330565b60008260601b9050604051733d602d80600a3d3981f3363d3d373d3d3d363d7360601b81528160148201526e5af43d82803e903d91602b57fd5bf360881b60288201526037816000f0949350505050565b80356001600160a01b038116811461087957600080fd5b919050565b60006020828403121561089057600080fd5b61089982610862565b9392505050565b6000602082840312156108b257600080fd5b81356001600160e01b03198116811461089957600080fd5b634e487b7160e01b600052604160045260246000fd5b60405160c0810167ffffffffffffffff81118282101715610903576109036108ca565b60405290565b600082601f83011261091a57600080fd5b813567ffffffffffffffff80821115610935576109356108ca565b604051601f8301601f19908116603f0116810190828211818310171561095d5761095d6108ca565b8160405283815286602085880101111561097657600080fd5b836020870160208301376000602085830101528094505050505092915050565b60008083601f8401126109a857600080fd5b50813567ffffffffffffffff8111156109c057600080fd5b6020830191508360208285010111156109d857600080fd5b9250929050565b600080600080606085870312156109f557600080fd5b6109fe85610862565b9350602085013567ffffffffffffffff80821115610a1b57600080fd5b9086019060c08289031215610a2f57600080fd5b610a376108e0565b823582811115610a4657600080fd5b610a528a828601610909565b825250602083013582811115610a6757600080fd5b610a738a828601610909565b602083015250604083013582811115610a8b57600080fd5b610a978a828601610909565b604083015250606083013560608201526080830135608082015260a083013560a0820152809550506040870135915080821115610ad357600080fd5b50610ae087828801610996565b95989497509550505050565b600060208284031215610afe57600080fd5b5035919050565b60008060408385031215610b1857600080fd5b82359150610b2860208401610862565b90509250929050565b6000815180845260005b81811015610b5757602081850181015186830182015201610b3b565b506000602082860101526020601f19601f83011685010191505092915050565b81835281816020850137506000828201602090810191909152601f909101601f19169091010190565b60018060a01b0385168152606060208201526000845160c06060840152610bcb610120840182610b31565b90506020860151605f1980858403016080860152610be98383610b31565b925060408801519150808584030160a086015250610c078282610b31565b915050606086015160c0840152608086015160e084015260a08601516101008401528281036040840152610c3c818587610b77565b97965050505050505056fea2646970667358221220df4a42bada50f4686a00a06b754c3b1848b91fe933893cbd1870ec770df3b6b064736f6c63430008180033a49807205ce4d355092ef5a8a18f56e8913cf4a201fbe287825b095693c21775",
  "linkReferences": {},
  "deployedLinkReferences": {}
}