{
  "_format": "hh-sol-artifact-1",
  "contractName": "Experience",
  "sourceName": "contracts/experience/instance/Experience.sol",
  "abi": [
    {
      "inputs": [
        {
          "components": [
            {
              "internalType": "address",
              "name": "extensionResolver",
              "type": "address"
            },
            {
              "internalType": "address",
              "name": "owningRegistry",
              "type": "address"
            },
            {
              "internalType": "address",
              "name": "companyRegistry",
              "type": "address"
            }
          ],
          "internalType": "struct ExperienceConstructorArgs",
          "name": "args",
          "type": "tuple"
        }
      ],
      "stateMutability": "nonpayable",
      "type": "constructor"
    },
    {
      "anonymous": false,
      "inputs": [
        {
          "indexed": false,
          "internalType": "bytes",
          "name": "newDetails",
          "type": "bytes"
        }
      ],
      "name": "ConnectionDetailsChanged",
      "type": "event"
    },
    {
      "anonymous": false,
      "inputs": [
        {
          "indexed": false,
          "internalType": "string",
          "name": "name",
          "type": "string"
        }
      ],
      "name": "ExtensionDisabled",
      "type": "event"
    },
    {
      "anonymous": false,
      "inputs": [
        {
          "indexed": false,
          "internalType": "string",
          "name": "name",
          "type": "string"
        }
      ],
      "name": "ExtensionEnabled",
      "type": "event"
    },
    {
      "anonymous": false,
      "inputs": [
        {
          "indexed": false,
          "internalType": "string",
          "name": "name",
          "type": "string"
        },
        {
          "components": [
            {
              "internalType": "uint16",
              "name": "major",
              "type": "uint16"
            },
            {
              "internalType": "uint16",
              "name": "minor",
              "type": "uint16"
            }
          ],
          "indexed": false,
          "internalType": "struct Version",
          "name": "version",
          "type": "tuple"
        }
      ],
      "name": "ExtensionInstalled",
      "type": "event"
    },
    {
      "anonymous": false,
      "inputs": [
        {
          "indexed": false,
          "internalType": "string",
          "name": "name",
          "type": "string"
        },
        {
          "components": [
            {
              "internalType": "uint16",
              "name": "major",
              "type": "uint16"
            },
            {
              "internalType": "uint16",
              "name": "minor",
              "type": "uint16"
            }
          ],
          "indexed": false,
          "internalType": "struct Version",
          "name": "version",
          "type": "tuple"
        }
      ],
      "name": "ExtensionRolledBack",
      "type": "event"
    },
    {
      "anonymous": false,
      "inputs": [
        {
          "indexed": false,
          "internalType": "string",
          "name": "name",
          "type": "string"
        },
        {
          "components": [
            {
              "internalType": "uint16",
              "name": "major",
              "type": "uint16"
            },
            {
              "internalType": "uint16",
              "name": "minor",
              "type": "uint16"
            }
          ],
          "indexed": false,
          "internalType": "struct Version",
          "name": "version",
          "type": "tuple"
        }
      ],
      "name": "ExtensionUpgraded",
      "type": "event"
    },
    {
      "anonymous": false,
      "inputs": [
        {
          "indexed": false,
          "internalType": "bytes4",
          "name": "selector",
          "type": "bytes4"
        }
      ],
      "name": "SelectorDisabled",
      "type": "event"
    },
    {
      "anonymous": false,
      "inputs": [
        {
          "indexed": false,
          "internalType": "bytes4",
          "name": "selector",
          "type": "bytes4"
        }
      ],
      "name": "SelectorEnabled",
      "type": "event"
    },
    {
      "stateMutability": "payable",
      "type": "fallback"
    },
    {
      "inputs": [],
      "name": "company",
      "outputs": [
        {
          "internalType": "address",
          "name": "",
          "type": "address"
        }
      ],
      "stateMutability": "view",
      "type": "function"
    },
    {
      "inputs": [],
      "name": "companyRegistry",
      "outputs": [
        {
          "internalType": "contract ICompanyRegistry",
          "name": "",
          "type": "address"
        }
      ],
      "stateMutability": "view",
      "type": "function"
    },
    {
      "inputs": [],
      "name": "entryFee",
      "outputs": [
        {
          "internalType": "uint256",
          "name": "",
          "type": "uint256"
        }
      ],
      "stateMutability": "view",
      "type": "function"
    },
    {
      "inputs": [],
      "name": "experienceRegistry",
      "outputs": [
        {
          "internalType": "address",
          "name": "",
          "type": "address"
        }
      ],
      "stateMutability": "view",
      "type": "function"
    },
    {
      "inputs": [],
      "name": "extResolver",
      "outputs": [
        {
          "internalType": "contract IExtensionResolver",
          "name": "",
          "type": "address"
        }
      ],
      "stateMutability": "view",
      "type": "function"
    },
    {
      "inputs": [
        {
          "internalType": "string",
          "name": "name",
          "type": "string"
        }
      ],
      "name": "getExtensionVersion",
      "outputs": [
        {
          "components": [
            {
              "internalType": "uint16",
              "name": "major",
              "type": "uint16"
            },
            {
              "internalType": "uint16",
              "name": "minor",
              "type": "uint16"
            }
          ],
          "internalType": "struct Version",
          "name": "",
          "type": "tuple"
        }
      ],
      "stateMutability": "view",
      "type": "function"
    },
    {
      "inputs": [
        {
          "internalType": "string",
          "name": "name",
          "type": "string"
        },
        {
          "components": [
            {
              "internalType": "uint16",
              "name": "major",
              "type": "uint16"
            },
            {
              "internalType": "uint16",
              "name": "minor",
              "type": "uint16"
            }
          ],
          "internalType": "struct Version",
          "name": "version",
          "type": "tuple"
        }
      ],
      "name": "hasExtension",
      "outputs": [
        {
          "internalType": "bool",
          "name": "",
          "type": "bool"
        }
      ],
      "stateMutability": "view",
      "type": "function"
    },
    {
      "inputs": [
        {
          "components": [
            {
              "internalType": "address",
              "name": "owner",
              "type": "address"
            },
            {
              "internalType": "address",
              "name": "termsOwner",
              "type": "address"
            },
            {
              "internalType": "address",
              "name": "registry",
              "type": "address"
            },
            {
              "internalType": "string",
              "name": "name",
              "type": "string"
            },
            {
              "components": [
                {
                  "internalType": "string",
                  "name": "x",
                  "type": "string"
                },
                {
                  "internalType": "string",
                  "name": "y",
                  "type": "string"
                },
                {
                  "internalType": "string",
                  "name": "z",
                  "type": "string"
                },
                {
                  "internalType": "uint256",
                  "name": "t",
                  "type": "uint256"
                },
                {
                  "internalType": "uint256",
                  "name": "p",
                  "type": "uint256"
                },
                {
                  "internalType": "uint256",
                  "name": "p_sub",
                  "type": "uint256"
                }
              ],
              "internalType": "struct VectorAddress",
              "name": "vector",
              "type": "tuple"
            },
            {
              "internalType": "bytes",
              "name": "initData",
              "type": "bytes"
            }
          ],
          "internalType": "struct CommonInitArgs",
          "name": "args",
          "type": "tuple"
        }
      ],
      "name": "init",
      "outputs": [],
      "stateMutability": "nonpayable",
      "type": "function"
    },
    {
      "inputs": [],
      "name": "name",
      "outputs": [
        {
          "internalType": "string",
          "name": "",
          "type": "string"
        }
      ],
      "stateMutability": "view",
      "type": "function"
    },
    {
      "inputs": [
        {
          "internalType": "bytes",
          "name": "details",
          "type": "bytes"
        }
      ],
      "name": "setConnectionDetails",
      "outputs": [],
      "stateMutability": "nonpayable",
      "type": "function"
    },
    {
      "inputs": [],
      "name": "vectorAddress",
      "outputs": [
        {
          "components": [
            {
              "internalType": "string",
              "name": "x",
              "type": "string"
            },
            {
              "internalType": "string",
              "name": "y",
              "type": "string"
            },
            {
              "internalType": "string",
              "name": "z",
              "type": "string"
            },
            {
              "internalType": "uint256",
              "name": "t",
              "type": "uint256"
            },
            {
              "internalType": "uint256",
              "name": "p",
              "type": "uint256"
            },
            {
              "internalType": "uint256",
              "name": "p_sub",
              "type": "uint256"
            }
          ],
          "internalType": "struct VectorAddress",
          "name": "",
          "type": "tuple"
        }
      ],
      "stateMutability": "view",
      "type": "function"
    },
    {
      "inputs": [],
      "name": "version",
      "outputs": [
        {
          "components": [
            {
              "internalType": "uint16",
              "name": "major",
              "type": "uint16"
            },
            {
              "internalType": "uint16",
              "name": "minor",
              "type": "uint16"
            }
          ],
          "internalType": "struct Version",
          "name": "",
          "type": "tuple"
        }
      ],
      "stateMutability": "pure",
      "type": "function"
    },
    {
      "inputs": [
        {
          "internalType": "uint256",
          "name": "amount",
          "type": "uint256"
        }
      ],
      "name": "withdraw",
      "outputs": [],
      "stateMutability": "nonpayable",
      "type": "function"
    },
    {
      "inputs": [],
      "name": "world",
      "outputs": [
        {
          "internalType": "address",
          "name": "",
          "type": "address"
        }
      ],
      "stateMutability": "view",
      "type": "function"
    },
    {
      "stateMutability": "payable",
      "type": "receive"
    }
  ],
  "bytecode": "0x60e06040523480156200001157600080fd5b5060405162001f2d38038062001f2d8339810160408190526200003491620001e5565b80516001600160a01b038116620000b85760405162461bcd60e51b815260206004820152603660248201527f456e746974795368656c6c3a20657874656e73696f6e207265736f6c7665722060448201527f63616e6e6f74206265207a65726f20616464726573730000000000000000000060648201526084015b60405180910390fd5b6001600160a01b03908116608052602082015116620001315760405162461bcd60e51b815260206004820152602e60248201527f436f6d70616e793a206f776e696e6752656769737472792063616e6e6f74206260448201526d65207a65726f206164647265737360901b6064820152608401620000af565b60408101516001600160a01b0316620001a55760405162461bcd60e51b815260206004820152602f60248201527f436f6d70616e793a20636f6d70616e7952656769737472792063616e6e6f742060448201526e6265207a65726f206164647265737360881b6064820152608401620000af565b60408101516001600160a01b0390811660c0526020909101511660a05262000266565b80516001600160a01b0381168114620001e057600080fd5b919050565b600060608284031215620001f857600080fd5b604051606081016001600160401b03811182821017156200022957634e487b7160e01b600052604160045260246000fd5b6040526200023783620001c8565b81526200024760208401620001c8565b60208201526200025a60408401620001c8565b60408201529392505050565b60805160a05160c051611c74620002b9600039600081816102f40152610d550152600081816102c00152610a1e015260008181610328015281816103740152818161046c01526109750152611c746000f3fe6080604052600436106100e15760003560e01c806354fd4d501161007f5780638f09a6be116100595780638f09a6be146102ae578063c51aba2b146102e2578063dd2a44c114610316578063f2aca27d1461034a576100e8565b806354fd4d50146102415780636904c94d1461027957806369a10a121461028e576100e8565b80632e1a7d4d116100bb5780632e1a7d4d146101a05780632fcbab9a146101c257806330b67baa146101e457806347d1d09a14610211576100e8565b806306fdde0314610110578063072ea61c1461013b578063238a03861461015e576100e8565b366100e857005b600080356001600160e01b031916905060006101068260003661036a565b9050805160208201f35b34801561011c57600080fd5b506101256103a0565b60405161013291906112d8565b60405180910390f35b34801561014757600080fd5b5061015061043b565b604051908152602001610132565b34801561016a57600080fd5b5061017e6101793660046113da565b61044b565b60408051825161ffff9081168252602093840151169281019290925201610132565b3480156101ac57600080fd5b506101c06101bb36600461140f565b6104ef565b005b3480156101ce57600080fd5b506101d76106ac565b6040516101329190611428565b3480156101f057600080fd5b506101f96108d4565b6040516001600160a01b039091168152602001610132565b34801561021d57600080fd5b5061023161022c3660046114ab565b61095b565b6040519015158152602001610132565b34801561024d57600080fd5b50604080518082018252600080825260209182018190528251808401909352600183529082015261017e565b34801561028557600080fd5b506101f96109f4565b34801561029a57600080fd5b506101c06102a9366004611505565b610a13565b3480156102ba57600080fd5b506101f97f000000000000000000000000000000000000000000000000000000000000000081565b3480156102ee57600080fd5b506101f97f000000000000000000000000000000000000000000000000000000000000000081565b34801561032257600080fd5b506101f97f000000000000000000000000000000000000000000000000000000000000000081565b34801561035657600080fd5b506101c06103653660046113da565b610d40565b60606103988484847f0000000000000000000000000000000000000000000000000000000000000000610f99565b949350505050565b60606103aa6110cb565b60020180546103b890611540565b80601f01602080910402602001604051908101604052809291908181526020018280546103e490611540565b80156104315780601f1061040657610100808354040283529160200191610431565b820191906000526020600020905b81548152906001019060200180831161041457829003601f168201915b5050505050905090565b6000610445611161565b54919050565b6040805180820182526000808252602082015290516311c501c360e11b81527f00000000000000000000000000000000000000000000000000000000000000006001600160a01b03169063238a0386906104a99085906004016112d8565b6040805180830381865afa1580156104c5573d6000803e3d6000fd5b505050506040513d601f19601f820116820180604052508101906104e9919061158d565b92915050565b604051630935e01b60e21b815233600482015273__$a5a42e46683ad9c79b7b86d5ff60fdf4c1$__906324d7806c90602401602060405180830381865af415801561053e573d6000803e3d6000fd5b505050506040513d601f19601f8201168201806040525081019061056291906115ce565b6105b35760405162461bcd60e51b815260206004820181905260248201527f42617369635368656c6c3a207265737472696374656420746f2061646d696e7360448201526064015b60405180910390fd5b478111156106035760405162461bcd60e51b815260206004820181905260248201527f42617369635368656c6c3a20696e73756666696369656e742062616c616e636560448201526064016105aa565b73__$a5a42e46683ad9c79b7b86d5ff60fdf4c1$__638da5cb5b6040518163ffffffff1660e01b8152600401602060405180830381865af415801561064c573d6000803e3d6000fd5b505050506040513d601f19601f820116820180604052508101906106709190611605565b6001600160a01b03166108fc829081150290604051600060405180830381858888f193505050501580156106a8573d6000803e3d6000fd5b5050565b6106e56040518060c001604052806060815260200160608152602001606081526020016000815260200160008152602001600081525090565b6106ed6110cb565b6003016040518060c001604052908160008201805461070b90611540565b80601f016020809104026020016040519081016040528092919081815260200182805461073790611540565b80156107845780601f1061075957610100808354040283529160200191610784565b820191906000526020600020905b81548152906001019060200180831161076757829003601f168201915b5050505050815260200160018201805461079d90611540565b80601f01602080910402602001604051908101604052809291908181526020018280546107c990611540565b80156108165780601f106107eb57610100808354040283529160200191610816565b820191906000526020600020905b8154815290600101906020018083116107f957829003601f168201915b5050505050815260200160028201805461082f90611540565b80601f016020809104026020016040519081016040528092919081815260200182805461085b90611540565b80156108a85780601f1061087d576101008083540402835291602001916108a8565b820191906000526020600020905b81548152906001019060200180831161088b57829003601f168201915b505050505081526020016003820154815260200160048201548152602001600582015481525050905090565b60006108de6110cb565b60000160029054906101000a90046001600160a01b03166001600160a01b03166330b67baa6040518163ffffffff1660e01b8152600401602060405180830381865afa158015610932573d6000803e3d6000fd5b505050506040513d601f19601f820116820180604052508101906109569190611605565b905090565b6040516323e8e84d60e11b81526000906001600160a01b037f000000000000000000000000000000000000000000000000000000000000000016906347d1d09a906109ac9086908690600401611622565b602060405180830381865afa1580156109c9573d6000803e3d6000fd5b505050506040513d601f19601f820116820180604052508101906109ed91906115ce565b9392505050565b60006109fe6110cb565b546201000090046001600160a01b0316919050565b336001600160a01b037f00000000000000000000000000000000000000000000000000000000000000001614610a8b5760405162461bcd60e51b815260206004820152601c60248201527f436f6d70616e793a206f6e6c7920776f726c642072656769737472790000000060448201526064016105aa565b6000610a9d604083016020840161166e565b6001600160a01b031603610b075760405162461bcd60e51b815260206004820152602b60248201527f457870657269656e63653a207465726d73206f776e657220697320746865207a60448201526a65726f206164647265737360a81b60648201526084016105aa565b6000610b16606083018361168b565b905011610b655760405162461bcd60e51b815260206004820181905260248201527f457870657269656e63653a206e616d652063616e6e6f7420626520656d70747960448201526064016105aa565b60408051600080825260208201909252905073__$a5a42e46683ad9c79b7b86d5ff60fdf4c1$__63d9ac971f610b9e602085018561166e565b836040518363ffffffff1660e01b8152600401610bbc9291906116d9565b60006040518083038186803b158015610bd457600080fd5b505af4158015610be8573d6000803e3d6000fd5b50610bfa925050506080830183611735565b610c0390611755565b6040516361d9624d60e01b815273__$ad2b23306edd42b5f4873830e307b82d47$__916361d9624d91610c3e91906001908190600401611808565b60006040518083038186803b158015610c5657600080fd5b505af4158015610c6a573d6000803e3d6000fd5b505050506000610c786110cb565b805460ff191660011781559050610c92606084018461168b565b6002830191610ca2919083611901565b50610cb06080840184611735565b60038201610cbe82826119bc565b50610cd19050604084016020850161166e565b81546001600160a01b0391909116620100000262010000600160b01b03199091161781556000610d0460a085018561168b565b810190610d119190611ada565b90506000610d1d611161565b8251815560208301519091506001820190610d389082611b51565b505050505050565b60405163c3c5a54760e01b81523360048201527f00000000000000000000000000000000000000000000000000000000000000006001600160a01b03169063c3c5a54790602401602060405180830381865afa158015610da4573d6000803e3d6000fd5b505050506040513d601f19601f82011682018060405250810190610dc891906115ce565b610e285760405162461bcd60e51b815260206004820152602b60248201527f436f6d70616e793a2063616c6c6572206973206e6f742061207265676973746560448201526a72656420636f6d70616e7960a81b60648201526084016105aa565b33610e316109f4565b6001600160a01b031614610e995760405162461bcd60e51b815260206004820152602960248201527f436f6d70616e793a2063616c6c6572206973206e6f7420746865206f776e696e6044820152686720636f6d70616e7960b81b60648201526084016105aa565b336001600160a01b03166386b70bed6040518163ffffffff1660e01b8152600401602060405180830381865afa158015610ed7573d6000803e3d6000fd5b505050506040513d601f19601f82011682018060405250810190610efb91906115ce565b610f475760405162461bcd60e51b815260206004820152601e60248201527f436f6d70616e793a20636f6d70616e79206973206e6f7420616374697665000060448201526064016105aa565b80610f50611161565b60010190610f5e9082611b51565b507f2bb826dd17b3affe28ccd3331372cfad3ce4190525768df69719995a6d75478981604051610f8e91906112d8565b60405180910390a150565b6040516337b4746960e11b81526001600160e01b0319851660048201526060906000906001600160a01b03841690636f68e8d290602401602060405180830381865afa158015610fed573d6000803e3d6000fd5b505050506040513d601f19601f820116820180604052508101906110119190611605565b90506001600160a01b0381166110815760405162461bcd60e51b815260206004820152602f60248201527f4c6962457874656e73696f6e3a206e6f20657874656e73696f6e20737570706f60448201526e393a399033371039b2b632b1ba37b960891b60648201526084016105aa565b6110c18186868080601f0160208091040260200160405190810160405280939291908181526020018383808284376000920191909152506111c692505050565b9695505050505050565b60408051808201909152601881527f78722e61637469766174696f6e2e73746f726167652e7631000000000000000060209091015260008060ff61113060017ff6611e962a52dbc98dd0485088d920890c43e26113c61976f6e171a29d49ce49611c0b565b60405160200161114291815260200190565b60408051601f1981840301815291905280516020909101201692915050565b60408051808201909152601881527f78722e657870657269656e63652e73746f726167652e7631000000000000000060209091015260008060ff61113060017fa13db16759b7af0e556c9648625a58e6d20b5ce76e5139c1b3ce33248c0a8852611c0b565b6060600080846001600160a01b0316846040516111e39190611c2c565b600060405180830381855af49150503d806000811461121e576040519150601f19603f3d011682016040523d82523d6000602084013e611223565b606091505b509150915081156112375791506104e99050565b8051156112475780518082602001fd5b60405162461bcd60e51b8152602060048201526016602482015275119d5b98dd1a5bdb8818d85b1b081c995d995c9d195960521b60448201526064016105aa565b60005b838110156112a357818101518382015260200161128b565b50506000910152565b600081518084526112c4816020860160208601611288565b601f01601f19169290920160200192915050565b6020815260006109ed60208301846112ac565b634e487b7160e01b600052604160045260246000fd5b6040805190810167ffffffffffffffff81118282101715611324576113246112eb565b60405290565b60405160c0810167ffffffffffffffff81118282101715611324576113246112eb565b600082601f83011261135e57600080fd5b813567ffffffffffffffff80821115611379576113796112eb565b604051601f8301601f19908116603f011681019082821181831017156113a1576113a16112eb565b816040528381528660208588010111156113ba57600080fd5b836020870160208301376000602085830101528094505050505092915050565b6000602082840312156113ec57600080fd5b813567ffffffffffffffff81111561140357600080fd5b6103988482850161134d565b60006020828403121561142157600080fd5b5035919050565b602081526000825160c0602084015261144460e08401826112ac565b90506020840151601f198085840301604086015261146283836112ac565b925060408601519150808584030160608601525061148082826112ac565b91505060608401516080840152608084015160a084015260a084015160c08401528091505092915050565b60008082840360608112156114bf57600080fd5b833567ffffffffffffffff8111156114d657600080fd5b6114e28682870161134d565b9350506040601f19820112156114f757600080fd5b506020830190509250929050565b60006020828403121561151757600080fd5b813567ffffffffffffffff81111561152e57600080fd5b820160c081850312156109ed57600080fd5b600181811c9082168061155457607f821691505b60208210810361157457634e487b7160e01b600052602260045260246000fd5b50919050565b61ffff8116811461158a57600080fd5b50565b60006040828403121561159f57600080fd5b6115a7611301565b82516115b28161157a565b815260208301516115c28161157a565b60208201529392505050565b6000602082840312156115e057600080fd5b815180151581146109ed57600080fd5b6001600160a01b038116811461158a57600080fd5b60006020828403121561161757600080fd5b81516109ed816115f0565b60608152600061163560608301856112ac565b905082356116428161157a565b61ffff80821660208501526020850135915061165d8261157a565b808216604085015250509392505050565b60006020828403121561168057600080fd5b81356109ed816115f0565b6000808335601e198436030181126116a257600080fd5b83018035915067ffffffffffffffff8211156116bd57600080fd5b6020019150368190038213156116d257600080fd5b9250929050565b6001600160a01b038381168252604060208084018290528451918401829052600092858201929091906060860190855b81811015611727578551851683529483019491830191600101611709565b509098975050505050505050565b6000823560be1983360301811261174b57600080fd5b9190910192915050565b600060c0823603121561176757600080fd5b61176f61132a565b823567ffffffffffffffff8082111561178757600080fd5b6117933683870161134d565b835260208501359150808211156117a957600080fd5b6117b53683870161134d565b602084015260408501359150808211156117ce57600080fd5b506117db3682860161134d565b604083015250606083013560608201526080830135608082015260a083013560a082015280915050919050565b606081526000845160c060608401526118256101208401826112ac565b90506020860151605f198085840301608086015261184383836112ac565b925060408801519150808584030160a08601525061186182826112ac565b606088015160c0860152608088015160e086015260a088015161010086015286151560208601529250611892915050565b8215156040830152610398565b601f8211156118e7576000816000526020600020601f850160051c810160208610156118c85750805b601f850160051c820191505b81811015610d38578281556001016118d4565b505050565b600019600383901b1c191660019190911b1790565b67ffffffffffffffff831115611919576119196112eb565b61192d836119278354611540565b8361189f565b6000601f84116001811461195b57600085156119495750838201355b61195386826118ec565b8455506119b5565b600083815260209020601f19861690835b8281101561198c578685013582556020948501946001909201910161196c565b50868210156119a95760001960f88860031b161c19848701351681555b505060018560011b0183555b5050505050565b6119c6828361168b565b67ffffffffffffffff8111156119de576119de6112eb565b6119f2816119ec8554611540565b8561189f565b6000601f821160018114611a205760008315611a0e5750838201355b611a1884826118ec565b865550611a7a565b600085815260209020601f19841690835b82811015611a515786850135825560209485019460019092019101611a31565b5084821015611a6e5760001960f88660031b161c19848701351681555b505060018360011b0185555b50505050611a8b602083018361168b565b611a99818360018601611901565b5050611aa8604083018361168b565b611ab6818360028601611901565b5050606082013560038201556080820135600482015560a082013560058201555050565b600060208284031215611aec57600080fd5b813567ffffffffffffffff80821115611b0457600080fd5b9083019060408286031215611b1857600080fd5b611b20611301565b82358152602083013582811115611b3657600080fd5b611b428782860161134d565b60208301525095945050505050565b815167ffffffffffffffff811115611b6b57611b6b6112eb565b611b7f81611b798454611540565b8461189f565b602080601f831160018114611bae5760008415611b9c5750858301515b611ba685826118ec565b865550610d38565b600085815260208120601f198616915b82811015611bdd57888601518255948401946001909101908401611bbe565b5085821015611bfb5787850151600019600388901b60f8161c191681555b5050505050600190811b01905550565b818103818111156104e957634e487b7160e01b600052601160045260246000fd5b6000825161174b81846020870161128856fea2646970667358221220e49a40a5e5eb44675a6cb01ae12e5a196df0320fedf9706c06180de221f9cd3764736f6c63430008180033",
  "linkReferences": {
    "contracts/libraries/LibAccess.sol": {
      "LibAccess": [
        {
          "length": 20,
          "start": 1981
        },
        {
          "length": 20,
          "start": 2238
        },
        {
          "length": 20,
          "start": 3634
        }
      ]
    },
    "contracts/libraries/LibVectorAddress.sol": {
      "LibVectorAddress": [
        {
          "length": 20,
          "start": 3787
        }
      ]
    }
  },
  "deployedLinkReferences": {
    "contracts/libraries/LibAccess.sol": {
      "LibAccess": [
        {
          "length": 20,
          "start": 1284
        },
        {
          "length": 20,
          "start": 1541
        },
        {
          "length": 20,
          "start": 2937
        }
      ]
    },
    "contracts/libraries/LibVectorAddress.sol": {
      "LibVectorAddress": [
        {
          "length": 20,
          "start": 3090
        }
      ]
    }
  }
}