{
  "_format": "hh-sol-artifact-1",
  "contractName": "ExperienceRegistry",
  "sourceName": "contracts/experience/registry/ExperienceRegistry.sol",
  "abi": [
    {
      "inputs": [
        {
          "components": [
            {
              "internalType": "address",
              "name": "companyRegistry",
              "type": "address"
            },
            {
              "internalType": "address",
              "name": "worldRegistry",
              "type": "address"
            },
            {
              "internalType": "address",
              "name": "portalRegistry",
              "type": "address"
            }
          ],
          "internalType": "struct ExperienceRegistryConstructorArgs",
          "name": "args",
          "type": "tuple"
        }
      ],
      "stateMutability": "nonpayable",
      "type": "constructor"
    },
    {
      "anonymous": false,
      "inputs": [
        {
          "indexed": true,
          "internalType": "address",
          "name": "entity",
          "type": "address"
        },
        {
          "indexed": true,
          "internalType": "address",
          "name": "by",
          "type": "address"
        }
      ],
      "name": "EntityRegistrationRenewed",
      "type": "event"
    },
    {
      "anonymous": false,
      "inputs": [
        {
          "indexed": true,
          "internalType": "address",
          "name": "world",
          "type": "address"
        },
        {
          "indexed": false,
          "internalType": "string",
          "name": "reason",
          "type": "string"
        }
      ],
      "name": "RegistrarDeactivatedWorld",
      "type": "event"
    },
    {
      "anonymous": false,
      "inputs": [
        {
          "indexed": true,
          "internalType": "address",
          "name": "world",
          "type": "address"
        }
      ],
      "name": "RegistrarReactivatedWorld",
      "type": "event"
    },
    {
      "anonymous": false,
      "inputs": [
        {
          "indexed": true,
          "internalType": "address",
          "name": "world",
          "type": "address"
        },
        {
          "indexed": false,
          "internalType": "string",
          "name": "reason",
          "type": "string"
        }
      ],
      "name": "RegistrarRemovedWorld",
      "type": "event"
    },
    {
      "anonymous": false,
      "inputs": [
        {
          "indexed": true,
          "internalType": "address",
          "name": "entity",
          "type": "address"
        },
        {
          "indexed": true,
          "internalType": "address",
          "name": "owner",
          "type": "address"
        }
      ],
      "name": "RegistryAddedEntity",
      "type": "event"
    },
    {
      "anonymous": false,
      "inputs": [
        {
          "indexed": true,
          "internalType": "address",
          "name": "entity",
          "type": "address"
        },
        {
          "indexed": false,
          "internalType": "string",
          "name": "reason",
          "type": "string"
        }
      ],
      "name": "RegistryDeactivatedEntity",
      "type": "event"
    },
    {
      "anonymous": false,
      "inputs": [
        {
          "indexed": true,
          "internalType": "address",
          "name": "entity",
          "type": "address"
        }
      ],
      "name": "RegistryEnforcedDeactivation",
      "type": "event"
    },
    {
      "anonymous": false,
      "inputs": [
        {
          "indexed": true,
          "internalType": "address",
          "name": "entity",
          "type": "address"
        }
      ],
      "name": "RegistryEnforcedRemoval",
      "type": "event"
    },
    {
      "anonymous": false,
      "inputs": [
        {
          "indexed": true,
          "internalType": "address",
          "name": "entity",
          "type": "address"
        }
      ],
      "name": "RegistryReactivatedEntity",
      "type": "event"
    },
    {
      "anonymous": false,
      "inputs": [
        {
          "indexed": true,
          "internalType": "address",
          "name": "entity",
          "type": "address"
        },
        {
          "indexed": false,
          "internalType": "string",
          "name": "reason",
          "type": "string"
        }
      ],
      "name": "RegistryRemovedEntity",
      "type": "event"
    },
    {
      "inputs": [
        {
          "internalType": "address[]",
          "name": "signers",
          "type": "address[]"
        }
      ],
      "name": "addSigners",
      "outputs": [],
      "stateMutability": "nonpayable",
      "type": "function"
    },
    {
      "inputs": [
        {
          "internalType": "address",
          "name": "addr",
          "type": "address"
        }
      ],
      "name": "canBeDeactivated",
      "outputs": [
        {
          "internalType": "bool",
          "name": "",
          "type": "bool"
        }
      ],
      "stateMutability": "view",
      "type": "function"
    },
    {
      "inputs": [
        {
          "internalType": "address",
          "name": "addr",
          "type": "address"
        }
      ],
      "name": "canBeRemoved",
      "outputs": [
        {
          "internalType": "bool",
          "name": "",
          "type": "bool"
        }
      ],
      "stateMutability": "view",
      "type": "function"
    },
    {
      "inputs": [
        {
          "components": [
            {
              "internalType": "address",
              "name": "entity",
              "type": "address"
            },
            {
              "internalType": "bytes",
              "name": "entitySignature",
              "type": "bytes"
            },
            {
              "internalType": "uint256",
              "name": "expiration",
              "type": "uint256"
            },
            {
              "components": [
                {
                  "internalType": "uint16",
                  "name": "coveragePeriodDays",
                  "type": "uint16"
                },
                {
                  "internalType": "uint16",
                  "name": "gracePeriodDays",
                  "type": "uint16"
                },
                {
                  "internalType": "uint256",
                  "name": "fee",
                  "type": "uint256"
                }
              ],
              "internalType": "struct RegistrationTerms",
              "name": "terms",
              "type": "tuple"
            }
          ],
          "internalType": "struct ChangeEntityTermsArgs",
          "name": "args",
          "type": "tuple"
        }
      ],
      "name": "changeEntityTerms",
      "outputs": [],
      "stateMutability": "nonpayable",
      "type": "function"
    },
    {
      "inputs": [
        {
          "internalType": "address",
          "name": "newOwner",
          "type": "address"
        }
      ],
      "name": "changeOwner",
      "outputs": [],
      "stateMutability": "nonpayable",
      "type": "function"
    },
    {
      "inputs": [],
      "name": "companyRegistry",
      "outputs": [
        {
          "internalType": "contract ICompanyRegistry",
          "name": "",
          "type": "address"
        }
      ],
      "stateMutability": "view",
      "type": "function"
    },
    {
      "inputs": [
        {
          "components": [
            {
              "internalType": "address",
              "name": "company",
              "type": "address"
            },
            {
              "internalType": "string",
              "name": "name",
              "type": "string"
            },
            {
              "components": [
                {
                  "internalType": "string",
                  "name": "x",
                  "type": "string"
                },
                {
                  "internalType": "string",
                  "name": "y",
                  "type": "string"
                },
                {
                  "internalType": "string",
                  "name": "z",
                  "type": "string"
                },
                {
                  "internalType": "uint256",
                  "name": "t",
                  "type": "uint256"
                },
                {
                  "internalType": "uint256",
                  "name": "p",
                  "type": "uint256"
                },
                {
                  "internalType": "uint256",
                  "name": "p_sub",
                  "type": "uint256"
                }
              ],
              "internalType": "struct VectorAddress",
              "name": "vector",
              "type": "tuple"
            },
            {
              "internalType": "bytes",
              "name": "initData",
              "type": "bytes"
            }
          ],
          "internalType": "struct CreateExperienceArgs",
          "name": "args",
          "type": "tuple"
        }
      ],
      "name": "createExperience",
      "outputs": [
        {
          "internalType": "address",
          "name": "proxy",
          "type": "address"
        },
        {
          "internalType": "uint256",
          "name": "portalId",
          "type": "uint256"
        }
      ],
      "stateMutability": "payable",
      "type": "function"
    },
    {
      "inputs": [
        {
          "internalType": "contract IRemovableEntity",
          "name": "entity",
          "type": "address"
        },
        {
          "internalType": "string",
          "name": "reason",
          "type": "string"
        }
      ],
      "name": "deactivateEntity",
      "outputs": [],
      "stateMutability": "nonpayable",
      "type": "function"
    },
    {
      "inputs": [
        {
          "internalType": "address",
          "name": "company",
          "type": "address"
        },
        {
          "internalType": "address",
          "name": "exp",
          "type": "address"
        },
        {
          "internalType": "string",
          "name": "reason",
          "type": "string"
        }
      ],
      "name": "deactivateExperience",
      "outputs": [],
      "stateMutability": "nonpayable",
      "type": "function"
    },
    {
      "inputs": [
        {
          "internalType": "contract IRemovableEntity",
          "name": "addr",
          "type": "address"
        }
      ],
      "name": "enforceDeactivation",
      "outputs": [],
      "stateMutability": "nonpayable",
      "type": "function"
    },
    {
      "inputs": [
        {
          "internalType": "contract IRemovableEntity",
          "name": "e",
          "type": "address"
        }
      ],
      "name": "enforceRemoval",
      "outputs": [],
      "stateMutability": "nonpayable",
      "type": "function"
    },
    {
      "inputs": [
        {
          "internalType": "string",
          "name": "name",
          "type": "string"
        }
      ],
      "name": "getEntityByName",
      "outputs": [
        {
          "internalType": "address",
          "name": "",
          "type": "address"
        }
      ],
      "stateMutability": "view",
      "type": "function"
    },
    {
      "inputs": [
        {
          "components": [
            {
              "internalType": "string",
              "name": "x",
              "type": "string"
            },
            {
              "internalType": "string",
              "name": "y",
              "type": "string"
            },
            {
              "internalType": "string",
              "name": "z",
              "type": "string"
            },
            {
              "internalType": "uint256",
              "name": "t",
              "type": "uint256"
            },
            {
              "internalType": "uint256",
              "name": "p",
              "type": "uint256"
            },
            {
              "internalType": "uint256",
              "name": "p_sub",
              "type": "uint256"
            }
          ],
          "internalType": "struct VectorAddress",
          "name": "vector",
          "type": "tuple"
        }
      ],
      "name": "getEntityByVector",
      "outputs": [
        {
          "internalType": "address",
          "name": "",
          "type": "address"
        }
      ],
      "stateMutability": "view",
      "type": "function"
    },
    {
      "inputs": [],
      "name": "getEntityImplementation",
      "outputs": [
        {
          "internalType": "address",
          "name": "",
          "type": "address"
        }
      ],
      "stateMutability": "view",
      "type": "function"
    },
    {
      "inputs": [
        {
          "internalType": "address",
          "name": "addr",
          "type": "address"
        }
      ],
      "name": "getEntityTerms",
      "outputs": [
        {
          "components": [
            {
              "internalType": "uint16",
              "name": "coveragePeriodDays",
              "type": "uint16"
            },
            {
              "internalType": "uint16",
              "name": "gracePeriodDays",
              "type": "uint16"
            },
            {
              "internalType": "uint256",
              "name": "fee",
              "type": "uint256"
            }
          ],
          "internalType": "struct RegistrationTerms",
          "name": "",
          "type": "tuple"
        }
      ],
      "stateMutability": "view",
      "type": "function"
    },
    {
      "inputs": [],
      "name": "getEntityVersion",
      "outputs": [
        {
          "components": [
            {
              "internalType": "uint16",
              "name": "major",
              "type": "uint16"
            },
            {
              "internalType": "uint16",
              "name": "minor",
              "type": "uint16"
            }
          ],
          "internalType": "struct Version",
          "name": "",
          "type": "tuple"
        }
      ],
      "stateMutability": "view",
      "type": "function"
    },
    {
      "inputs": [
        {
          "internalType": "address",
          "name": "addr",
          "type": "address"
        }
      ],
      "name": "getExpiration",
      "outputs": [
        {
          "internalType": "uint256",
          "name": "",
          "type": "uint256"
        }
      ],
      "stateMutability": "view",
      "type": "function"
    },
    {
      "inputs": [
        {
          "internalType": "address",
          "name": "addr",
          "type": "address"
        }
      ],
      "name": "getLastRenewal",
      "outputs": [
        {
          "internalType": "uint256",
          "name": "",
          "type": "uint256"
        }
      ],
      "stateMutability": "view",
      "type": "function"
    },
    {
      "inputs": [],
      "name": "getProxyImplementation",
      "outputs": [
        {
          "internalType": "address",
          "name": "",
          "type": "address"
        }
      ],
      "stateMutability": "view",
      "type": "function"
    },
    {
      "inputs": [
        {
          "internalType": "bytes32",
          "name": "role",
          "type": "bytes32"
        },
        {
          "internalType": "address",
          "name": "account",
          "type": "address"
        }
      ],
      "name": "grantRole",
      "outputs": [],
      "stateMutability": "nonpayable",
      "type": "function"
    },
    {
      "inputs": [
        {
          "internalType": "bytes32",
          "name": "role",
          "type": "bytes32"
        },
        {
          "internalType": "address",
          "name": "account",
          "type": "address"
        }
      ],
      "name": "hasRole",
      "outputs": [
        {
          "internalType": "bool",
          "name": "",
          "type": "bool"
        }
      ],
      "stateMutability": "view",
      "type": "function"
    },
    {
      "inputs": [
        {
          "internalType": "address",
          "name": "account",
          "type": "address"
        }
      ],
      "name": "isAdmin",
      "outputs": [
        {
          "internalType": "bool",
          "name": "",
          "type": "bool"
        }
      ],
      "stateMutability": "view",
      "type": "function"
    },
    {
      "inputs": [
        {
          "internalType": "address",
          "name": "addr",
          "type": "address"
        }
      ],
      "name": "isExpired",
      "outputs": [
        {
          "internalType": "bool",
          "name": "",
          "type": "bool"
        }
      ],
      "stateMutability": "view",
      "type": "function"
    },
    {
      "inputs": [
        {
          "internalType": "address",
          "name": "addr",
          "type": "address"
        }
      ],
      "name": "isInGracePeriod",
      "outputs": [
        {
          "internalType": "bool",
          "name": "",
          "type": "bool"
        }
      ],
      "stateMutability": "view",
      "type": "function"
    },
    {
      "inputs": [
        {
          "internalType": "address",
          "name": "addr",
          "type": "address"
        }
      ],
      "name": "isRegistered",
      "outputs": [
        {
          "internalType": "bool",
          "name": "",
          "type": "bool"
        }
      ],
      "stateMutability": "view",
      "type": "function"
    },
    {
      "inputs": [
        {
          "internalType": "address",
          "name": "account",
          "type": "address"
        }
      ],
      "name": "isSigner",
      "outputs": [
        {
          "internalType": "bool",
          "name": "",
          "type": "bool"
        }
      ],
      "stateMutability": "view",
      "type": "function"
    },
    {
      "inputs": [],
      "name": "owner",
      "outputs": [
        {
          "internalType": "address",
          "name": "",
          "type": "address"
        }
      ],
      "stateMutability": "view",
      "type": "function"
    },
    {
      "inputs": [],
      "name": "portalRegistry",
      "outputs": [
        {
          "internalType": "contract IPortalRegistry",
          "name": "",
          "type": "address"
        }
      ],
      "stateMutability": "view",
      "type": "function"
    },
    {
      "inputs": [
        {
          "internalType": "contract IRemovableEntity",
          "name": "entity",
          "type": "address"
        }
      ],
      "name": "reactivateEntity",
      "outputs": [],
      "stateMutability": "nonpayable",
      "type": "function"
    },
    {
      "inputs": [
        {
          "internalType": "address",
          "name": "company",
          "type": "address"
        },
        {
          "internalType": "address",
          "name": "exp",
          "type": "address"
        }
      ],
      "name": "reactivateExperience",
      "outputs": [],
      "stateMutability": "nonpayable",
      "type": "function"
    },
    {
      "inputs": [
        {
          "internalType": "contract IRemovableEntity",
          "name": "entity",
          "type": "address"
        },
        {
          "internalType": "string",
          "name": "reason",
          "type": "string"
        }
      ],
      "name": "removeEntity",
      "outputs": [],
      "stateMutability": "nonpayable",
      "type": "function"
    },
    {
      "inputs": [
        {
          "internalType": "address",
          "name": "company",
          "type": "address"
        },
        {
          "internalType": "address",
          "name": "exp",
          "type": "address"
        },
        {
          "internalType": "string",
          "name": "reason",
          "type": "string"
        }
      ],
      "name": "removeExperience",
      "outputs": [
        {
          "internalType": "uint256",
          "name": "portalId",
          "type": "uint256"
        }
      ],
      "stateMutability": "nonpayable",
      "type": "function"
    },
    {
      "inputs": [
        {
          "internalType": "address[]",
          "name": "signers",
          "type": "address[]"
        }
      ],
      "name": "removeSigners",
      "outputs": [],
      "stateMutability": "nonpayable",
      "type": "function"
    },
    {
      "inputs": [
        {
          "internalType": "address",
          "name": "addr",
          "type": "address"
        }
      ],
      "name": "renewEntity",
      "outputs": [],
      "stateMutability": "payable",
      "type": "function"
    },
    {
      "inputs": [
        {
          "internalType": "bytes32",
          "name": "role",
          "type": "bytes32"
        },
        {
          "internalType": "address",
          "name": "account",
          "type": "address"
        }
      ],
      "name": "revokeRole",
      "outputs": [],
      "stateMutability": "nonpayable",
      "type": "function"
    },
    {
      "inputs": [
        {
          "internalType": "address",
          "name": "_entityImplementation",
          "type": "address"
        }
      ],
      "name": "setEntityImplementation",
      "outputs": [],
      "stateMutability": "nonpayable",
      "type": "function"
    },
    {
      "inputs": [
        {
          "internalType": "address",
          "name": "_proxyImplementation",
          "type": "address"
        }
      ],
      "name": "setProxyImplementation",
      "outputs": [],
      "stateMutability": "nonpayable",
      "type": "function"
    },
    {
      "inputs": [],
      "name": "version",
      "outputs": [
        {
          "components": [
            {
              "internalType": "uint16",
              "name": "major",
              "type": "uint16"
            },
            {
              "internalType": "uint16",
              "name": "minor",
              "type": "uint16"
            }
          ],
          "internalType": "struct Version",
          "name": "",
          "type": "tuple"
        }
      ],
      "stateMutability": "pure",
      "type": "function"
    },
    {
      "inputs": [],
      "name": "worldRegistry",
      "outputs": [
        {
          "internalType": "contract IWorldRegistry",
          "name": "",
          "type": "address"
        }
      ],
      "stateMutability": "view",
      "type": "function"
    }
  ],
  "bytecode": "0x60e06040523480156200001157600080fd5b5060405162003e9a38038062003e9a8339810160408190526200003491620001cc565b80516001600160a01b0316620000a65760405162461bcd60e51b815260206004820152602c60248201527f457870657269656e636552656769737472793a20496e76616c696420636f6d7060448201526b616e7920726567697374727960a01b60648201526084015b60405180910390fd5b60208101516001600160a01b0316620001155760405162461bcd60e51b815260206004820152602a60248201527f457870657269656e636552656769737472793a20496e76616c696420776f726c6044820152696420726567697374727960b01b60648201526084016200009d565b60408101516001600160a01b0316620001855760405162461bcd60e51b815260206004820152602b60248201527f457870657269656e636552656769737472793a20496e76616c696420706f727460448201526a616c20726567697374727960a81b60648201526084016200009d565b80516001600160a01b039081166080526020820151811660a0526040909101511660c0526200024d565b80516001600160a01b0381168114620001c757600080fd5b919050565b600060608284031215620001df57600080fd5b604051606081016001600160401b03811182821017156200021057634e487b7160e01b600052604160045260246000fd5b6040526200021e83620001af565b81526200022e60208401620001af565b60208201526200024160408401620001af565b60408201529392505050565b60805160a05160c051613be5620002b5600039600081816105e2015281816110f9015281816111800152818161294b015261297101526000818161050e015281816109c701528181610e5701528181611893015261234a015260006106760152613be56000f3fe6080604052600436106102305760003560e01c806391026f191161012e578063c3c5a547116100ab578063d6fbe0201161006f578063d6fbe020146106f8578063e2482bf91461070b578063e8906a2d1461072b578063f751e01a1461074b578063f82e2fb31461077d57600080fd5b8063c3c5a54714610644578063c51aba2b14610664578063c747e47e14610698578063cdbe2211146106b8578063d547741f146106d857600080fd5b8063a8c88c17116100f2578063a8c88c1714610590578063af08d53d146105b0578063b6664934146105d0578063b6db923d14610604578063ba2eb5411461062457600080fd5b806391026f19146104dc578063911c2a8c146104fc57806391d14854146105305780639fdcd3a414610550578063a6f9dae11461057057600080fd5b80634ec70a48116101bc578063693c79b211610180578063693c79b2146104525780637df73e27146104725780638d361e43146104925780638da5cb5b146104b257806390e4b720146104c757600080fd5b80634ec70a481461039257806354fd4d50146103b25780635726c94e146104085780635e04096214610428578063689c48f01461043d57600080fd5b80632f2ff15d116102035780632f2ff15d146102cc5780633e88a4e2146102ec57806346213f4a146103245780634ae134cc146103525780634d4965f31461037257600080fd5b806301f2423014610235578063033a5b6014610257578063200e4e111461027757806324d7806c14610297575b600080fd5b34801561024157600080fd5b50610255610250366004612ec0565b6107aa565b005b34801561026357600080fd5b50610255610272366004612f25565b610819565b34801561028357600080fd5b50610255610292366004612f79565b6109b0565b3480156102a357600080fd5b506102b76102b2366004612ec0565b610c25565b60405190151581526020015b60405180910390f35b3480156102d857600080fd5b506102556102e7366004612fdd565b610cab565b3480156102f857600080fd5b5061030c61030736600461300d565b610db1565b6040516001600160a01b0390911681526020016102c3565b34801561033057600080fd5b5061034461033f366004612f79565b610e35565b6040519081526020016102c3565b34801561035e57600080fd5b5061025561036d366004612ec0565b6111f5565b34801561037e57600080fd5b5061025561038d366004613066565b611235565b34801561039e57600080fd5b506103446103ad366004612ec0565b6113c9565b3480156103be57600080fd5b5060408051808201825260008082526020918201819052825180840190935260018352908201525b60408051825161ffff90811682526020938401511692810192909252016102c3565b34801561041457600080fd5b50610344610423366004612ec0565b611449565b34801561043457600080fd5b506103e661148c565b34801561044957600080fd5b5061030c611511565b34801561045e57600080fd5b5061025561046d366004612ec0565b611580565b34801561047e57600080fd5b506102b761048d366004612ec0565b6116db565b34801561049e57600080fd5b506102556104ad3660046130a2565b61171e565b3480156104be57600080fd5b5061030c6117e6565b3480156104d357600080fd5b5061030c611831565b3480156104e857600080fd5b506102556104f7366004613116565b61187c565b34801561050857600080fd5b5061030c7f000000000000000000000000000000000000000000000000000000000000000081565b34801561053c57600080fd5b506102b761054b366004612fdd565b611af6565b34801561055c57600080fd5b5061025561056b366004612ec0565b611b7c565b34801561057c57600080fd5b5061025561058b366004612ec0565b611c4b565b34801561059c57600080fd5b506102b76105ab366004612ec0565b611d58565b3480156105bc57600080fd5b506102556105cb366004612f25565b611d9b565b3480156105dc57600080fd5b5061030c7f000000000000000000000000000000000000000000000000000000000000000081565b34801561061057600080fd5b506102b761061f366004612ec0565b611ef1565b34801561063057600080fd5b506102b761063f366004612ec0565b611f34565b34801561065057600080fd5b506102b761065f366004612ec0565b611f77565b34801561067057600080fd5b5061030c7f000000000000000000000000000000000000000000000000000000000000000081565b3480156106a457600080fd5b5061030c6106b3366004613066565b611fba565b3480156106c457600080fd5b506102556106d3366004612ec0565b612035565b3480156106e457600080fd5b506102556106f3366004612fdd565b612104565b610255610706366004612ec0565b6121da565b34801561071757600080fd5b506102b7610726366004612ec0565b61221a565b34801561073757600080fd5b506102556107463660046130a2565b61225d565b61075e610759366004613144565b612325565b604080516001600160a01b0390931683526020830191909152016102c3565b34801561078957600080fd5b5061079d610798366004612ec0565b612b14565b6040516102c3919061317e565b604051630a53217360e11b81526001600160a01b038216600482015273__$1822254560a4f971c7e72253c3a08363e7$__906314a642e6906024015b60006040518083038186803b1580156107fe57600080fd5b505af4158015610812573d6000803e3d6000fd5b5050505050565b826000819050336001600160a01b0316816001600160a01b03166369bd91946040518163ffffffff1660e01b8152600401602060405180830381865afa158015610867573d6000803e3d6000fd5b505050506040513d601f19601f8201168201806040525081019061088b91906131a8565b6001600160a01b0316146108ba5760405162461bcd60e51b81526004016108b1906131c5565b60405180910390fd5b6000339050806001600160a01b0316634f05c1c86040518163ffffffff1660e01b8152600401602060405180830381865afa1580156108fd573d6000803e3d6000fd5b505050506040513d601f19601f820116820180604052508101906109219190613222565b61093d5760405162461bcd60e51b81526004016108b190613244565b60405163ede71a1760e01b815273__$1822254560a4f971c7e72253c3a08363e7$__9063ede71a1790610978908990899089906004016132b8565b60006040518083038186803b15801561099057600080fd5b505af41580156109a4573d6000803e3d6000fd5b50505050505050505050565b60405163c3c5a54760e01b815233600482015284907f00000000000000000000000000000000000000000000000000000000000000006001600160a01b03169063c3c5a54790602401602060405180830381865afa158015610a16573d6000803e3d6000fd5b505050506040513d601f19601f82011682018060405250810190610a3a9190613222565b610a565760405162461bcd60e51b81526004016108b1906132e6565b336001600160a01b03166386b70bed6040518163ffffffff1660e01b8152600401602060405180830381865afa158015610a94573d6000803e3d6000fd5b505050506040513d601f19601f82011682018060405250810190610ab89190613222565b610ad45760405162461bcd60e51b81526004016108b19061333a565b6000816001600160a01b03166330b67baa6040518163ffffffff1660e01b8152600401602060405180830381865afa158015610b14573d6000803e3d6000fd5b505050506040513d601f19601f82011682018060405250810190610b3891906131a8565b90506001600160a01b0381163314610b625760405162461bcd60e51b81526004016108b190613388565b816001600160a01b03166386b70bed6040518163ffffffff1660e01b8152600401602060405180830381865afa158015610ba0573d6000803e3d6000fd5b505050506040513d601f19601f82011682018060405250810190610bc49190613222565b610be05760405162461bcd60e51b81526004016108b1906133e5565b610bea8686612ba9565b60405163ede71a1760e01b815273__$1822254560a4f971c7e72253c3a08363e7$__9063ede71a1790610978908890889088906004016132b8565b604051630935e01b60e21b81526001600160a01b038216600482015260009073__$a5a42e46683ad9c79b7b86d5ff60fdf4c1$__906324d7806c906024015b602060405180830381865af4158015610c81573d6000803e3d6000fd5b505050506040513d601f19601f82011682018060405250810190610ca59190613222565b92915050565b604051630935e01b60e21b815233600482015273__$a5a42e46683ad9c79b7b86d5ff60fdf4c1$__906324d7806c90602401602060405180830381865af4158015610cfa573d6000803e3d6000fd5b505050506040513d601f19601f82011682018060405250810190610d1e9190613222565b610d3a5760405162461bcd60e51b81526004016108b19061342e565b604051632f2ff15d60e01b8152600481018390526001600160a01b038216602482015273__$a5a42e46683ad9c79b7b86d5ff60fdf4c1$__90632f2ff15d906044015b60006040518083038186803b158015610d9557600080fd5b505af4158015610da9573d6000803e3d6000fd5b505050505050565b604051631f44527160e11b815260009073__$d81eab81c4f96e94de97b51155a369ac43$__90633e88a4e290610ded9086908690600401613463565b602060405180830381865af4158015610e0a573d6000803e3d6000fd5b505050506040513d601f19601f82011682018060405250810190610e2e91906131a8565b9392505050565b60405163c3c5a54760e01b815233600482015260009085906001600160a01b037f0000000000000000000000000000000000000000000000000000000000000000169063c3c5a54790602401602060405180830381865afa158015610e9e573d6000803e3d6000fd5b505050506040513d601f19601f82011682018060405250810190610ec29190613222565b610ede5760405162461bcd60e51b81526004016108b1906132e6565b336001600160a01b03166386b70bed6040518163ffffffff1660e01b8152600401602060405180830381865afa158015610f1c573d6000803e3d6000fd5b505050506040513d601f19601f82011682018060405250810190610f409190613222565b610f5c5760405162461bcd60e51b81526004016108b19061333a565b6000816001600160a01b03166330b67baa6040518163ffffffff1660e01b8152600401602060405180830381865afa158015610f9c573d6000803e3d6000fd5b505050506040513d601f19601f82011682018060405250810190610fc091906131a8565b90506001600160a01b0381163314610fea5760405162461bcd60e51b81526004016108b190613388565b816001600160a01b03166386b70bed6040518163ffffffff1660e01b8152600401602060405180830381865afa158015611028573d6000803e3d6000fd5b505050506040513d601f19601f8201168201806040525081019061104c9190613222565b6110685760405162461bcd60e51b81526004016108b1906133e5565b6110728787612ba9565b604051633f111a5d60e21b815273__$1822254560a4f971c7e72253c3a08363e7$__9063fc446974906110ad908990899089906004016132b8565b60006040518083038186803b1580156110c557600080fd5b505af41580156110d9573d6000803e3d6000fd5b5050604051627633d160e71b81526001600160a01b0389811660048301527f0000000000000000000000000000000000000000000000000000000000000000169250633b19e8809150602401602060405180830381865afa158015611142573d6000803e3d6000fd5b505050506040513d601f19601f820116820180604052508101906111669190613477565b604051635e958a1160e01b81529093506001600160a01b037f00000000000000000000000000000000000000000000000000000000000000001690635e958a11906111b990869089908990600401613490565b600060405180830381600087803b1580156111d357600080fd5b505af11580156111e7573d6000803e3d6000fd5b505050505050949350505050565b6040516347ef542760e01b81526001600160a01b038216600482015273__$1822254560a4f971c7e72253c3a08363e7$__906347ef5427906024016107e6565b6112426020820182612ec0565b6000819050336001600160a01b0316816001600160a01b03166369bd91946040518163ffffffff1660e01b8152600401602060405180830381865afa15801561128f573d6000803e3d6000fd5b505050506040513d601f19601f820116820180604052508101906112b391906131a8565b6001600160a01b0316146112d95760405162461bcd60e51b81526004016108b1906131c5565b6000339050806001600160a01b0316634f05c1c86040518163ffffffff1660e01b8152600401602060405180830381865afa15801561131c573d6000803e3d6000fd5b505050506040513d601f19601f820116820180604052508101906113409190613222565b61135c5760405162461bcd60e51b81526004016108b190613244565b604051630bca13f760e41b815273__$d81eab81c4f96e94de97b51155a369ac43$__9063bca13f70906113939087906004016134ff565b60006040518083038186803b1580156113ab57600080fd5b505af41580156113bf573d6000803e3d6000fd5b5050505050505050565b6040516309d8e14960e31b81526001600160a01b038216600482015260009073__$1822254560a4f971c7e72253c3a08363e7$__90634ec70a48906024015b602060405180830381865af4158015611425573d6000803e3d6000fd5b505050506040513d601f19601f82011682018060405250810190610ca59190613477565b604051632b9364a760e11b81526001600160a01b038216600482015260009073__$1822254560a4f971c7e72253c3a08363e7$__90635726c94e90602401611408565b604080518082019091526000808252602082015273__$e1fef5d4b1bfc4a605b7eb127c84f71416$__635e0409626040518163ffffffff1660e01b81526004016040805180830381865af41580156114e8573d6000803e3d6000fd5b505050506040513d601f19601f8201168201806040525081019061150c91906135d3565b905090565b600073__$e1fef5d4b1bfc4a605b7eb127c84f71416$__63689c48f06040518163ffffffff1660e01b8152600401602060405180830381865af415801561155c573d6000803e3d6000fd5b505050506040513d601f19601f8201168201806040525081019061150c91906131a8565b806000819050336001600160a01b0316816001600160a01b03166369bd91946040518163ffffffff1660e01b8152600401602060405180830381865afa1580156115ce573d6000803e3d6000fd5b505050506040513d601f19601f820116820180604052508101906115f291906131a8565b6001600160a01b0316146116185760405162461bcd60e51b81526004016108b1906131c5565b6000339050806001600160a01b0316634f05c1c86040518163ffffffff1660e01b8152600401602060405180830381865afa15801561165b573d6000803e3d6000fd5b505050506040513d601f19601f8201168201806040525081019061167f9190613222565b61169b5760405162461bcd60e51b81526004016108b190613244565b60405163699f380760e11b81526001600160a01b038516600482015273__$1822254560a4f971c7e72253c3a08363e7$__9063d33e700e90602401611393565b604051637df73e2760e01b81526001600160a01b038216600482015260009073__$a5a42e46683ad9c79b7b86d5ff60fdf4c1$__90637df73e2790602401610c64565b604051630935e01b60e21b815233600482015273__$a5a42e46683ad9c79b7b86d5ff60fdf4c1$__906324d7806c90602401602060405180830381865af415801561176d573d6000803e3d6000fd5b505050506040513d601f19601f820116820180604052508101906117919190613222565b6117ad5760405162461bcd60e51b81526004016108b19061342e565b604051638d361e4360e01b815273__$a5a42e46683ad9c79b7b86d5ff60fdf4c1$__90638d361e4390610d7d9085908590600401613631565b600073__$a5a42e46683ad9c79b7b86d5ff60fdf4c1$__638da5cb5b6040518163ffffffff1660e01b8152600401602060405180830381865af415801561155c573d6000803e3d6000fd5b600073__$e1fef5d4b1bfc4a605b7eb127c84f71416$__6390e4b7206040518163ffffffff1660e01b8152600401602060405180830381865af415801561155c573d6000803e3d6000fd5b60405163c3c5a54760e01b815233600482015282907f00000000000000000000000000000000000000000000000000000000000000006001600160a01b03169063c3c5a54790602401602060405180830381865afa1580156118e2573d6000803e3d6000fd5b505050506040513d601f19601f820116820180604052508101906119069190613222565b6119225760405162461bcd60e51b81526004016108b1906132e6565b336001600160a01b03166386b70bed6040518163ffffffff1660e01b8152600401602060405180830381865afa158015611960573d6000803e3d6000fd5b505050506040513d601f19601f820116820180604052508101906119849190613222565b6119a05760405162461bcd60e51b81526004016108b19061333a565b6000816001600160a01b03166330b67baa6040518163ffffffff1660e01b8152600401602060405180830381865afa1580156119e0573d6000803e3d6000fd5b505050506040513d601f19601f82011682018060405250810190611a0491906131a8565b90506001600160a01b0381163314611a2e5760405162461bcd60e51b81526004016108b190613388565b816001600160a01b03166386b70bed6040518163ffffffff1660e01b8152600401602060405180830381865afa158015611a6c573d6000803e3d6000fd5b505050506040513d601f19601f82011682018060405250810190611a909190613222565b611aac5760405162461bcd60e51b81526004016108b1906133e5565b611ab68484612ba9565b60405163699f380760e11b81526001600160a01b038416600482015273__$1822254560a4f971c7e72253c3a08363e7$__9063d33e700e90602401611393565b604051632474521560e21b8152600481018390526001600160a01b038216602482015260009073__$a5a42e46683ad9c79b7b86d5ff60fdf4c1$__906391d1485490604401602060405180830381865af4158015611b58573d6000803e3d6000fd5b505050506040513d601f19601f82011682018060405250810190610e2e9190613222565b604051630935e01b60e21b815233600482015273__$a5a42e46683ad9c79b7b86d5ff60fdf4c1$__906324d7806c90602401602060405180830381865af4158015611bcb573d6000803e3d6000fd5b505050506040513d601f19601f82011682018060405250810190611bef9190613222565b611c0b5760405162461bcd60e51b81526004016108b19061342e565b6040516327f734e960e21b81526001600160a01b038216600482015273__$e1fef5d4b1bfc4a605b7eb127c84f71416$__90639fdcd3a4906024016107e6565b336001600160a01b031673__$a5a42e46683ad9c79b7b86d5ff60fdf4c1$__638da5cb5b6040518163ffffffff1660e01b8152600401602060405180830381865af4158015611c9e573d6000803e3d6000fd5b505050506040513d601f19601f82011682018060405250810190611cc291906131a8565b6001600160a01b031614611d185760405162461bcd60e51b815260206004820152601f60248201527f426173654163636573733a207265737472696374656420746f206f776e65720060448201526064016108b1565b6040516313af403560e01b81526001600160a01b038216600482015273__$a5a42e46683ad9c79b7b86d5ff60fdf4c1$__906313af4035906024016107e6565b60405163a8c88c1760e01b81526001600160a01b038216600482015260009073__$1822254560a4f971c7e72253c3a08363e7$__9063a8c88c1790602401610c64565b826000819050336001600160a01b0316816001600160a01b03166369bd91946040518163ffffffff1660e01b8152600401602060405180830381865afa158015611de9573d6000803e3d6000fd5b505050506040513d601f19601f82011682018060405250810190611e0d91906131a8565b6001600160a01b031614611e335760405162461bcd60e51b81526004016108b1906131c5565b6000339050806001600160a01b0316634f05c1c86040518163ffffffff1660e01b8152600401602060405180830381865afa158015611e76573d6000803e3d6000fd5b505050506040513d601f19601f82011682018060405250810190611e9a9190613222565b611eb65760405162461bcd60e51b81526004016108b190613244565b604051633f111a5d60e21b815273__$1822254560a4f971c7e72253c3a08363e7$__9063fc44697490610978908990899089906004016132b8565b60405163b6db923d60e01b81526001600160a01b038216600482015260009073__$1822254560a4f971c7e72253c3a08363e7$__9063b6db923d90602401610c64565b60405163ba2eb54160e01b81526001600160a01b038216600482015260009073__$1822254560a4f971c7e72253c3a08363e7$__9063ba2eb54190602401610c64565b60405163c3c5a54760e01b81526001600160a01b038216600482015260009073__$d81eab81c4f96e94de97b51155a369ac43$__9063c3c5a54790602401610c64565b6040516332ef671360e21b815260009073__$d81eab81c4f96e94de97b51155a369ac43$__9063cbbd9c4c90611ff490859060040161367f565b602060405180830381865af4158015612011573d6000803e3d6000fd5b505050506040513d601f19601f82011682018060405250810190610ca591906131a8565b604051630935e01b60e21b815233600482015273__$a5a42e46683ad9c79b7b86d5ff60fdf4c1$__906324d7806c90602401602060405180830381865af4158015612084573d6000803e3d6000fd5b505050506040513d601f19601f820116820180604052508101906120a89190613222565b6120c45760405162461bcd60e51b81526004016108b19061342e565b60405163cdbe221160e01b81526001600160a01b038216600482015273__$e1fef5d4b1bfc4a605b7eb127c84f71416$__9063cdbe2211906024016107e6565b604051630935e01b60e21b815233600482015273__$a5a42e46683ad9c79b7b86d5ff60fdf4c1$__906324d7806c90602401602060405180830381865af4158015612153573d6000803e3d6000fd5b505050506040513d601f19601f820116820180604052508101906121779190613222565b6121935760405162461bcd60e51b81526004016108b19061342e565b60405163d547741f60e01b8152600481018390526001600160a01b038216602482015273__$a5a42e46683ad9c79b7b86d5ff60fdf4c1$__9063d547741f90604401610d7d565b6040516306b7df0160e51b81526001600160a01b038216600482015273__$1822254560a4f971c7e72253c3a08363e7$__9063d6fbe020906024016107e6565b60405163e2482bf960e01b81526001600160a01b038216600482015260009073__$1822254560a4f971c7e72253c3a08363e7$__9063e2482bf990602401610c64565b604051630935e01b60e21b815233600482015273__$a5a42e46683ad9c79b7b86d5ff60fdf4c1$__906324d7806c90602401602060405180830381865af41580156122ac573d6000803e3d6000fd5b505050506040513d601f19601f820116820180604052508101906122d09190613222565b6122ec5760405162461bcd60e51b81526004016108b19061342e565b60405163e8906a2d60e01b815273__$a5a42e46683ad9c79b7b86d5ff60fdf4c1$__9063e8906a2d90610d7d9085908590600401613631565b6000806123356020840184612ec0565b60405163c3c5a54760e01b81523360048201527f00000000000000000000000000000000000000000000000000000000000000006001600160a01b03169063c3c5a54790602401602060405180830381865afa158015612399573d6000803e3d6000fd5b505050506040513d601f19601f820116820180604052508101906123bd9190613222565b6123d95760405162461bcd60e51b81526004016108b1906132e6565b336001600160a01b03166386b70bed6040518163ffffffff1660e01b8152600401602060405180830381865afa158015612417573d6000803e3d6000fd5b505050506040513d601f19601f8201168201806040525081019061243b9190613222565b6124575760405162461bcd60e51b81526004016108b19061333a565b6000816001600160a01b03166330b67baa6040518163ffffffff1660e01b8152600401602060405180830381865afa158015612497573d6000803e3d6000fd5b505050506040513d601f19601f820116820180604052508101906124bb91906131a8565b90506001600160a01b03811633146124e55760405162461bcd60e51b81526004016108b190613388565b816001600160a01b03166386b70bed6040518163ffffffff1660e01b8152600401602060405180830381865afa158015612523573d6000803e3d6000fd5b505050506040513d601f19601f820116820180604052508101906125479190613222565b6125635760405162461bcd60e51b81526004016108b1906133e5565b6125706040860186613721565b612579906137cd565b6040516361d9624d60e01b815273__$ad2b23306edd42b5f4873830e307b82d47$__916361d9624d916125b491906001908190600401613938565b60006040518083038186803b1580156125cc57600080fd5b505af41580156125e0573d6000803e3d6000fd5b5050505060006125ee612c9d565b60018101549091506001600160a01b03166126645760405162461bcd60e51b815260206004820152603060248201527f457870657269656e636552656769737472793a2070726f787920696d706c656d60448201526f195b9d185d1a5bdb881b9bdd081cd95d60821b60648201526084016108b1565b80546001600160a01b03166126d55760405162461bcd60e51b815260206004820152603160248201527f457870657269656e636552656769737472793a20656e7469747920696d706c656044820152701b595b9d185d1a5bdb881b9bdd081cd95d607a1b60648201526084016108b1565b60018101546126ec906001600160a01b0316612d33565b94506001600160a01b0385166127585760405162461bcd60e51b815260206004820152602b60248201527f526567697374726172526567697374726174696f6e3a2070726f787920636c6f60448201526a1b9a5b99c819985a5b195960aa1b60648201526084016108b1565b8054604051636bc26a1360e11b81526001600160a01b0391821660048201529086169063d784d42690602401600060405180830381600087803b15801561279e57600080fd5b505af11580156127b2573d6000803e3d6000fd5b5050505060006040518060600160405280600061ffff168152602001600161ffff1681526020016000815250905060006040518060600160405280886001600160a01b031681526020018381526020018980604001906128129190613721565b61281b906137cd565b905290506001600160a01b0387166357607a3761283b60208b018b613962565b61284860208d018d612ec0565b61285560408e018e613721565b61286260608f018f613962565b6040518763ffffffff1660e01b8152600401612883969594939291906139a8565b600060405180830381600087803b15801561289d57600080fd5b505af11580156128b1573d6000803e3d6000fd5b50506040516326590a1d60e01b815273__$d81eab81c4f96e94de97b51155a369ac43$__92506326590a1d91506128ec908490600401613a79565b60006040518083038186803b15801561290457600080fd5b505af4158015612918573d6000803e3d6000fd5b5050505061296f6040518060400160405280601181526020017011d95b995c985d1a5b99c81c1bdc9d185b607a1b8152507f0000000000000000000000000000000000000000000000000000000000000000612df4565b7f00000000000000000000000000000000000000000000000000000000000000006001600160a01b0316633c3f5ff460405180604001604052808a6001600160a01b031681526020018a6001600160a01b031663072ea61c6040518163ffffffff1660e01b8152600401602060405180830381865afa1580156129f6573d6000803e3d6000fd5b505050506040513d601f19601f82011682018060405250810190612a1a9190613477565b90526040516001600160e01b031960e084901b16815281516001600160a01b0316600482015260209091015160248201526044016020604051808303816000875af1158015612a6d573d6000803e3d6000fd5b505050506040513d601f19601f82011682018060405250810190612a919190613477565b9550612abe60405180604001604052806009815260200168141bdc9d185b081a5960ba1b81525087612e3d565b612acb6020890189612ec0565b6001600160a01b0316876001600160a01b03167f7377123f9eb561d749cd3a89a83c22035cad6473521acbb981ee1c52d8f0248560405160405180910390a35050505050915091565b6040805160608101825260008082526020820181905281830152905163f82e2fb360e01b81526001600160a01b038316600482015273__$1822254560a4f971c7e72253c3a08363e7$__9063f82e2fb390602401606060405180830381865af4158015612b85573d6000803e3d6000fd5b505050506040513d601f19601f82011682018060405250810190610ca59190613ad8565b6000819050826001600160a01b0316816001600160a01b0316636904c94d6040518163ffffffff1660e01b8152600401602060405180830381865afa158015612bf6573d6000803e3d6000fd5b505050506040513d601f19601f82011682018060405250810190612c1a91906131a8565b6001600160a01b031614612c98576040805162461bcd60e51b81526020600482015260248101919091527f457870657269656e636552656d6f76616c4578743a20636f6d70616e7920697360448201527f206e6f7420746865206f776e6572206f662074686520657870657269656e636560648201526084016108b1565b505050565b60408051808201909152601c81527f78722e656e746974792e666163746f72792e73746f726167652e76310000000060209091015260008060ff612d0260017f8b4ac7cd4466ab0d50fe53a88c5446ca4a450d482bef9ad792e7d9f451497e0f613b42565b604051602001612d1491815260200190565b60408051601f1981840301815291905280516020909101201692915050565b60006001600160a01b038216612da35760405162461bcd60e51b815260206004820152602f60248201527f4c6962436c6f6e653a20696d706c656d656e746174696f6e2063616e6e6f742060448201526e6265207a65726f206164647265737360881b60648201526084016108b1565b60008260601b9050604051733d602d80600a3d3981f3363d3d373d3d3d363d7360601b81528160148201526e5af43d82803e903d91602b57fd5bf360881b60288201526037816000f0949350505050565b612e398282604051602401612e0a929190613b63565b60408051601f198184030181529190526020810180516001600160e01b031663319af33360e01b179052612e7e565b5050565b612e398282604051602401612e53929190613b8d565b60408051601f198184030181529190526020810180516001600160e01b0316632d839cb360e21b1790525b612e8781612e8a565b50565b60006a636f6e736f6c652e6c6f679050600080835160208501845afa505050565b6001600160a01b0381168114612e8757600080fd5b600060208284031215612ed257600080fd5b8135610e2e81612eab565b60008083601f840112612eef57600080fd5b5081356001600160401b03811115612f0657600080fd5b602083019150836020828501011115612f1e57600080fd5b9250929050565b600080600060408486031215612f3a57600080fd5b8335612f4581612eab565b925060208401356001600160401b03811115612f6057600080fd5b612f6c86828701612edd565b9497909650939450505050565b60008060008060608587031215612f8f57600080fd5b8435612f9a81612eab565b93506020850135612faa81612eab565b925060408501356001600160401b03811115612fc557600080fd5b612fd187828801612edd565b95989497509550505050565b60008060408385031215612ff057600080fd5b82359150602083013561300281612eab565b809150509250929050565b6000806020838503121561302057600080fd5b82356001600160401b0381111561303657600080fd5b61304285828601612edd565b90969095509350505050565b600060c0828403121561306057600080fd5b50919050565b60006020828403121561307857600080fd5b81356001600160401b0381111561308e57600080fd5b61309a8482850161304e565b949350505050565b600080602083850312156130b557600080fd5b82356001600160401b03808211156130cc57600080fd5b818501915085601f8301126130e057600080fd5b8135818111156130ef57600080fd5b8660208260051b850101111561310457600080fd5b60209290920196919550909350505050565b6000806040838503121561312957600080fd5b823561313481612eab565b9150602083013561300281612eab565b60006020828403121561315657600080fd5b81356001600160401b0381111561316c57600080fd5b820160808185031215610e2e57600080fd5b815161ffff9081168252602080840151909116908201526040808301519082015260608101610ca5565b6000602082840312156131ba57600080fd5b8151610e2e81612eab565b6020808252603d908201527f4261736552656d6f7661626c6552656769737472793a2063616c6c657220697360408201527f206e6f742074686520656e746974792773207465726d73206f776e6572000000606082015260800190565b60006020828403121561323457600080fd5b81518015158114610e2e57600080fd5b6020808252602b908201527f4261736552656d6f7661626c6552656769737472793a2063616c6c657220697360408201526a206e6f742061637469766560a81b606082015260800190565b81835281816020850137506000828201602090810191909152601f909101601f19169091010190565b6001600160a01b03841681526040602082018190526000906132dd908301848661328f565b95945050505050565b60208082526034908201527f457870657269656e636552656769737472793a2063616c6c6572206973206e6f6040820152731d0818481c9959da5cdd195c9959081ddbdc9b1960621b606082015260800190565b6020808252602e908201527f457870657269656e636552656769737472793a2063616c6c657220776f726c6460408201526d206973206e6f742061637469766560901b606082015260800190565b6020808252603c908201527f457870657269656e636552656769737472793a20636f6d70616e7920646f657360408201527f206e6f742062656c6f6e6720746f2063616c6c696e6720776f726c6400000000606082015260800190565b60208082526029908201527f457870657269656e636552656769737472793a20636f6d70616e79206973206e6040820152686f742061637469766560b81b606082015260800190565b6020808252818101527f426173654163636573733a207265737472696374656420746f2061646d696e73604082015260600190565b60208152600061309a60208301848661328f565b60006020828403121561348957600080fd5b5051919050565b8381526040602082015260006132dd60408301848661328f565b6000808335601e198436030181126134c157600080fd5b83016020810192503590506001600160401b038111156134e057600080fd5b803603821315612f1e57600080fd5b61ffff81168114612e8757600080fd5b602081526000823561351081612eab565b6001600160a01b031660208381019190915261352e908401846134aa565b60c0604085015261354360e08501828461328f565b91505060408401356060840152606084013561355e816134ef565b61ffff808216608086015260808601359150613579826134ef565b1660a084810191909152939093013560c0909201919091525090565b634e487b7160e01b600052604160045260246000fd5b60405160c081016001600160401b03811182821017156135cd576135cd613595565b60405290565b6000604082840312156135e557600080fd5b604051604081018181106001600160401b038211171561360757613607613595565b6040528251613615816134ef565b81526020830151613625816134ef565b60208201529392505050565b60208082528181018390526000908460408401835b8681101561367457823561365981612eab565b6001600160a01b031682529183019190830190600101613646565b509695505050505050565b60208152600061368f83846134aa565b60c060208501526136a460e08501828461328f565b9150506136b460208501856134aa565b601f19808685030160408701526136cc84838561328f565b93506136db60408801886134aa565b9350915080868503016060870152506136f583838361328f565b9250505060608401356080840152608084013560a084015260a084013560c08401528091505092915050565b6000823560be1983360301811261373757600080fd5b9190910192915050565b600082601f83011261375257600080fd5b81356001600160401b038082111561376c5761376c613595565b604051601f8301601f19908116603f0116810190828211818310171561379457613794613595565b816040528381528660208588010111156137ad57600080fd5b836020870160208301376000602085830101528094505050505092915050565b600060c082360312156137df57600080fd5b6137e76135ab565b82356001600160401b03808211156137fe57600080fd5b61380a36838701613741565b8352602085013591508082111561382057600080fd5b61382c36838701613741565b6020840152604085013591508082111561384557600080fd5b5061385236828601613741565b604083015250606083013560608201526080830135608082015260a083013560a082015280915050919050565b6000815180845260005b818110156138a557602081850181015186830182015201613889565b506000602082860101526020601f19601f83011685010191505092915050565b6000815160c084526138da60c085018261387f565b9050602083015184820360208601526138f3828261387f565b9150506040830151848203604086015261390d828261387f565b915050606083015160608501526080830151608085015260a083015160a08501528091505092915050565b60608152600061394b60608301866138c5565b931515602083015250901515604090910152919050565b6000808335601e1984360301811261397957600080fd5b8301803591506001600160401b0382111561399357600080fd5b602001915036819003821315612f1e57600080fd5b6080815260006139bc60808301888a61328f565b6001600160a01b038716602084015282810360408401526139dd86806134aa565b60c083526139ef60c08401828461328f565b9150506139ff60208801886134aa565b8383036020850152613a1283828461328f565b92505050613a2360408801886134aa565b8383036040850152613a3683828461328f565b92505050606087013560608301526080870135608083015260a087013560a08301528381036060850152613a6b81868861328f565b9a9950505050505050505050565b602080825282516001600160a01b031682820152820151600090613abf604084018261ffff80825116835280602083015116602084015250604081015160408301525050565b50604083015160a08084015261309a60c08401826138c5565b600060608284031215613aea57600080fd5b604051606081018181106001600160401b0382111715613b0c57613b0c613595565b6040528251613b1a816134ef565b81526020830151613b2a816134ef565b60208201526040928301519281019290925250919050565b81810381811115610ca557634e487b7160e01b600052601160045260246000fd5b604081526000613b76604083018561387f565b905060018060a01b03831660208301529392505050565b604081526000613ba0604083018561387f565b9050826020830152939250505056fea26469706673582212204028d423be9e2605f7343a061ebe24a2104442c3e03f2a14c84f8e876f01059464736f6c63430008180033",
  "linkReferences": {
    "contracts/libraries/LibAccess.sol": {
      "LibAccess": [
        {
          "length": 20,
          "start": 3835
        },
        {
          "length": 20,
          "start": 3957
        },
        {
          "length": 20,
          "start": 4116
        },
        {
          "length": 20,
          "start": 6577
        },
        {
          "length": 20,
          "start": 6632
        },
        {
          "length": 20,
          "start": 6769
        },
        {
          "length": 20,
          "start": 6815
        },
        {
          "length": 20,
          "start": 7635
        },
        {
          "length": 20,
          "start": 7750
        },
        {
          "length": 20,
          "start": 7948
        },
        {
          "length": 20,
          "start": 8171
        },
        {
          "length": 20,
          "start": 8959
        },
        {
          "length": 20,
          "start": 9166
        },
        {
          "length": 20,
          "start": 9325
        },
        {
          "length": 20,
          "start": 9511
        },
        {
          "length": 20,
          "start": 9648
        }
      ]
    },
    "contracts/libraries/LibEntityRemoval.sol": {
      "LibEntityRemoval": [
        {
          "length": 20,
          "start": 2685
        },
        {
          "length": 20,
          "start": 3073
        },
        {
          "length": 20,
          "start": 3758
        },
        {
          "length": 20,
          "start": 4918
        },
        {
          "length": 20,
          "start": 5320
        },
        {
          "length": 20,
          "start": 5791
        },
        {
          "length": 20,
          "start": 5919
        },
        {
          "length": 20,
          "start": 6510
        },
        {
          "length": 20,
          "start": 7561
        },
        {
          "length": 20,
          "start": 8238
        },
        {
          "length": 20,
          "start": 8570
        },
        {
          "length": 20,
          "start": 8647
        },
        {
          "length": 20,
          "start": 8714
        },
        {
          "length": 20,
          "start": 9389
        },
        {
          "length": 20,
          "start": 9456
        },
        {
          "length": 20,
          "start": 11776
        }
      ]
    },
    "contracts/libraries/LibFactory.sol": {
      "LibFactory": [
        {
          "length": 20,
          "start": 5975
        },
        {
          "length": 20,
          "start": 6090
        },
        {
          "length": 20,
          "start": 6890
        },
        {
          "length": 20,
          "start": 7902
        },
        {
          "length": 20,
          "start": 9111
        }
      ]
    },
    "contracts/libraries/LibRegistration.sol": {
      "LibRegistration": [
        {
          "length": 20,
          "start": 4216
        },
        {
          "length": 20,
          "start": 5664
        },
        {
          "length": 20,
          "start": 8781
        },
        {
          "length": 20,
          "start": 8833
        },
        {
          "length": 20,
          "start": 11127
        }
      ]
    },
    "contracts/libraries/LibVectorAddress.sol": {
      "LibVectorAddress": [
        {
          "length": 20,
          "start": 10301
        }
      ]
    }
  },
  "deployedLinkReferences": {
    "contracts/libraries/LibAccess.sol": {
      "LibAccess": [
        {
          "length": 20,
          "start": 3142
        },
        {
          "length": 20,
          "start": 3264
        },
        {
          "length": 20,
          "start": 3423
        },
        {
          "length": 20,
          "start": 5884
        },
        {
          "length": 20,
          "start": 5939
        },
        {
          "length": 20,
          "start": 6076
        },
        {
          "length": 20,
          "start": 6122
        },
        {
          "length": 20,
          "start": 6942
        },
        {
          "length": 20,
          "start": 7057
        },
        {
          "length": 20,
          "start": 7255
        },
        {
          "length": 20,
          "start": 7478
        },
        {
          "length": 20,
          "start": 8266
        },
        {
          "length": 20,
          "start": 8473
        },
        {
          "length": 20,
          "start": 8632
        },
        {
          "length": 20,
          "start": 8818
        },
        {
          "length": 20,
          "start": 8955
        }
      ]
    },
    "contracts/libraries/LibEntityRemoval.sol": {
      "LibEntityRemoval": [
        {
          "length": 20,
          "start": 1992
        },
        {
          "length": 20,
          "start": 2380
        },
        {
          "length": 20,
          "start": 3065
        },
        {
          "length": 20,
          "start": 4225
        },
        {
          "length": 20,
          "start": 4627
        },
        {
          "length": 20,
          "start": 5098
        },
        {
          "length": 20,
          "start": 5226
        },
        {
          "length": 20,
          "start": 5817
        },
        {
          "length": 20,
          "start": 6868
        },
        {
          "length": 20,
          "start": 7545
        },
        {
          "length": 20,
          "start": 7877
        },
        {
          "length": 20,
          "start": 7954
        },
        {
          "length": 20,
          "start": 8021
        },
        {
          "length": 20,
          "start": 8696
        },
        {
          "length": 20,
          "start": 8763
        },
        {
          "length": 20,
          "start": 11083
        }
      ]
    },
    "contracts/libraries/LibFactory.sol": {
      "LibFactory": [
        {
          "length": 20,
          "start": 5282
        },
        {
          "length": 20,
          "start": 5397
        },
        {
          "length": 20,
          "start": 6197
        },
        {
          "length": 20,
          "start": 7209
        },
        {
          "length": 20,
          "start": 8418
        }
      ]
    },
    "contracts/libraries/LibRegistration.sol": {
      "LibRegistration": [
        {
          "length": 20,
          "start": 3523
        },
        {
          "length": 20,
          "start": 4971
        },
        {
          "length": 20,
          "start": 8088
        },
        {
          "length": 20,
          "start": 8140
        },
        {
          "length": 20,
          "start": 10434
        }
      ]
    },
    "contracts/libraries/LibVectorAddress.sol": {
      "LibVectorAddress": [
        {
          "length": 20,
          "start": 9608
        }
      ]
    }
  }
}