{
  "_format": "hh-sol-artifact-1",
  "contractName": "Experience",
  "sourceName": "contracts/experience/instance/Experience.sol",
  "abi": [
    {
      "inputs": [
        {
          "components": [
            {
              "internalType": "address",
              "name": "extensionResolver",
              "type": "address"
            },
            {
              "internalType": "address",
              "name": "owningRegistry",
              "type": "address"
            },
            {
              "internalType": "address",
              "name": "companyRegistry",
              "type": "address"
            },
            {
              "internalType": "address",
              "name": "portalRegistry",
              "type": "address"
            }
          ],
          "internalType": "struct ExperienceConstructorArgs",
          "name": "args",
          "type": "tuple"
        }
      ],
      "stateMutability": "nonpayable",
      "type": "constructor"
    },
    {
      "anonymous": false,
      "inputs": [
        {
          "indexed": false,
          "internalType": "string",
          "name": "name",
          "type": "string"
        }
      ],
      "name": "ExtensionDisabled",
      "type": "event"
    },
    {
      "anonymous": false,
      "inputs": [
        {
          "indexed": false,
          "internalType": "string",
          "name": "name",
          "type": "string"
        }
      ],
      "name": "ExtensionEnabled",
      "type": "event"
    },
    {
      "anonymous": false,
      "inputs": [
        {
          "indexed": false,
          "internalType": "string",
          "name": "name",
          "type": "string"
        },
        {
          "components": [
            {
              "internalType": "uint16",
              "name": "major",
              "type": "uint16"
            },
            {
              "internalType": "uint16",
              "name": "minor",
              "type": "uint16"
            }
          ],
          "indexed": false,
          "internalType": "struct Version",
          "name": "version",
          "type": "tuple"
        }
      ],
      "name": "ExtensionInstalled",
      "type": "event"
    },
    {
      "anonymous": false,
      "inputs": [
        {
          "indexed": false,
          "internalType": "string",
          "name": "name",
          "type": "string"
        },
        {
          "components": [
            {
              "internalType": "uint16",
              "name": "major",
              "type": "uint16"
            },
            {
              "internalType": "uint16",
              "name": "minor",
              "type": "uint16"
            }
          ],
          "indexed": false,
          "internalType": "struct Version",
          "name": "version",
          "type": "tuple"
        }
      ],
      "name": "ExtensionRolledBack",
      "type": "event"
    },
    {
      "anonymous": false,
      "inputs": [
        {
          "indexed": false,
          "internalType": "string",
          "name": "name",
          "type": "string"
        },
        {
          "components": [
            {
              "internalType": "uint16",
              "name": "major",
              "type": "uint16"
            },
            {
              "internalType": "uint16",
              "name": "minor",
              "type": "uint16"
            }
          ],
          "indexed": false,
          "internalType": "struct Version",
          "name": "version",
          "type": "tuple"
        }
      ],
      "name": "ExtensionUpgraded",
      "type": "event"
    },
    {
      "anonymous": false,
      "inputs": [
        {
          "indexed": false,
          "internalType": "bytes4",
          "name": "selector",
          "type": "bytes4"
        }
      ],
      "name": "SelectorDisabled",
      "type": "event"
    },
    {
      "anonymous": false,
      "inputs": [
        {
          "indexed": false,
          "internalType": "bytes4",
          "name": "selector",
          "type": "bytes4"
        }
      ],
      "name": "SelectorEnabled",
      "type": "event"
    },
    {
      "stateMutability": "payable",
      "type": "fallback"
    },
    {
      "inputs": [],
      "name": "companyRegistry",
      "outputs": [
        {
          "internalType": "contract ICompanyRegistry",
          "name": "",
          "type": "address"
        }
      ],
      "stateMutability": "view",
      "type": "function"
    },
    {
      "inputs": [],
      "name": "experienceRegistry",
      "outputs": [
        {
          "internalType": "address",
          "name": "",
          "type": "address"
        }
      ],
      "stateMutability": "view",
      "type": "function"
    },
    {
      "inputs": [],
      "name": "extResolver",
      "outputs": [
        {
          "internalType": "contract IExtensionResolver",
          "name": "",
          "type": "address"
        }
      ],
      "stateMutability": "view",
      "type": "function"
    },
    {
      "inputs": [
        {
          "internalType": "string",
          "name": "name",
          "type": "string"
        }
      ],
      "name": "getExtensionVersion",
      "outputs": [
        {
          "components": [
            {
              "internalType": "uint16",
              "name": "major",
              "type": "uint16"
            },
            {
              "internalType": "uint16",
              "name": "minor",
              "type": "uint16"
            }
          ],
          "internalType": "struct Version",
          "name": "",
          "type": "tuple"
        }
      ],
      "stateMutability": "view",
      "type": "function"
    },
    {
      "inputs": [
        {
          "internalType": "string",
          "name": "name",
          "type": "string"
        },
        {
          "components": [
            {
              "internalType": "uint16",
              "name": "major",
              "type": "uint16"
            },
            {
              "internalType": "uint16",
              "name": "minor",
              "type": "uint16"
            }
          ],
          "internalType": "struct Version",
          "name": "version",
          "type": "tuple"
        }
      ],
      "name": "hasExtension",
      "outputs": [
        {
          "internalType": "bool",
          "name": "",
          "type": "bool"
        }
      ],
      "stateMutability": "view",
      "type": "function"
    },
    {
      "inputs": [
        {
          "components": [
            {
              "internalType": "address",
              "name": "owner",
              "type": "address"
            },
            {
              "internalType": "address",
              "name": "termsOwner",
              "type": "address"
            },
            {
              "internalType": "address",
              "name": "registry",
              "type": "address"
            },
            {
              "internalType": "string",
              "name": "name",
              "type": "string"
            },
            {
              "components": [
                {
                  "internalType": "string",
                  "name": "x",
                  "type": "string"
                },
                {
                  "internalType": "string",
                  "name": "y",
                  "type": "string"
                },
                {
                  "internalType": "string",
                  "name": "z",
                  "type": "string"
                },
                {
                  "internalType": "uint256",
                  "name": "t",
                  "type": "uint256"
                },
                {
                  "internalType": "uint256",
                  "name": "p",
                  "type": "uint256"
                },
                {
                  "internalType": "uint256",
                  "name": "p_sub",
                  "type": "uint256"
                }
              ],
              "internalType": "struct VectorAddress",
              "name": "vector",
              "type": "tuple"
            },
            {
              "internalType": "bytes",
              "name": "initData",
              "type": "bytes"
            }
          ],
          "internalType": "struct CommonInitArgs",
          "name": "args",
          "type": "tuple"
        }
      ],
      "name": "init",
      "outputs": [],
      "stateMutability": "nonpayable",
      "type": "function"
    },
    {
      "inputs": [],
      "name": "portalRegistry",
      "outputs": [
        {
          "internalType": "address",
          "name": "",
          "type": "address"
        }
      ],
      "stateMutability": "view",
      "type": "function"
    },
    {
      "inputs": [],
      "name": "version",
      "outputs": [
        {
          "components": [
            {
              "internalType": "uint16",
              "name": "major",
              "type": "uint16"
            },
            {
              "internalType": "uint16",
              "name": "minor",
              "type": "uint16"
            }
          ],
          "internalType": "struct Version",
          "name": "",
          "type": "tuple"
        }
      ],
      "stateMutability": "pure",
      "type": "function"
    },
    {
      "inputs": [
        {
          "internalType": "uint256",
          "name": "amount",
          "type": "uint256"
        }
      ],
      "name": "withdraw",
      "outputs": [],
      "stateMutability": "nonpayable",
      "type": "function"
    },
    {
      "stateMutability": "payable",
      "type": "receive"
    }
  ],
  "bytecode": "0x6101006040523480156200001257600080fd5b50604051620018b4380380620018b4833981016040819052620000359162000263565b80516001600160a01b038116620000b95760405162461bcd60e51b815260206004820152603660248201527f456e746974795368656c6c3a20657874656e73696f6e207265736f6c7665722060448201527f63616e6e6f74206265207a65726f20616464726573730000000000000000000060648201526084015b60405180910390fd5b6001600160a01b03908116608052602082015116620001325760405162461bcd60e51b815260206004820152602e60248201527f436f6d70616e793a206f776e696e6752656769737472792063616e6e6f74206260448201526d65207a65726f206164647265737360901b6064820152608401620000b0565b60408101516001600160a01b0316620001a65760405162461bcd60e51b815260206004820152602f60248201527f436f6d70616e793a20636f6d70616e7952656769737472792063616e6e6f742060448201526e6265207a65726f206164647265737360881b6064820152608401620000b0565b60608101516001600160a01b0316620002195760405162461bcd60e51b815260206004820152602e60248201527f436f6d70616e793a20706f7274616c52656769737472792063616e6e6f74206260448201526d65207a65726f206164647265737360901b6064820152608401620000b0565b60408101516001600160a01b0390811660c0526020820151811660a0526060909101511660e052620002f7565b80516001600160a01b03811681146200025e57600080fd5b919050565b6000608082840312156200027657600080fd5b604051608081016001600160401b0381118282101715620002a757634e487b7160e01b600052604160045260246000fd5b604052620002b58362000246565b8152620002c56020840162000246565b6020820152620002d86040840162000246565b6040820152620002eb6060840162000246565b60608201529392505050565b60805160a05160c05160e0516115676200034d60003960006102080152600061023c0152600081816101bc01526105cd0152600081816102700152818161029c015281816102e9015261054301526115676000f3fe60806040526004361061008a5760003560e01c806369a10a121161005957806369a10a121461018a5780638f09a6be146101aa578063b6664934146101f6578063c51aba2b1461022a578063dd2a44c11461025e57610091565b8063238a0386146100b95780632e1a7d4d1461010057806347d1d09a1461012257806354fd4d501461015257610091565b3661009157005b600080356001600160e01b031916905060006100af82600036610292565b9050805160208201f35b3480156100c557600080fd5b506100d96100d4366004610cd6565b6102c8565b60408051825161ffff90811682526020938401511692810192909252015b60405180910390f35b34801561010c57600080fd5b5061012061011b366004610d0b565b61036c565b005b34801561012e57600080fd5b5061014261013d366004610d24565b610529565b60405190151581526020016100f7565b34801561015e57600080fd5b5060408051808201825260008082526020918201819052825180840190935260018352908201526100d9565b34801561019657600080fd5b506101206101a5366004610d7e565b6105c2565b3480156101b657600080fd5b506101de7f000000000000000000000000000000000000000000000000000000000000000081565b6040516001600160a01b0390911681526020016100f7565b34801561020257600080fd5b506101de7f000000000000000000000000000000000000000000000000000000000000000081565b34801561023657600080fd5b506101de7f000000000000000000000000000000000000000000000000000000000000000081565b34801561026a57600080fd5b506101de7f000000000000000000000000000000000000000000000000000000000000000081565b60606102c08484847f00000000000000000000000000000000000000000000000000000000000000006108ef565b949350505050565b6040805180820182526000808252602082015290516311c501c360e11b81527f00000000000000000000000000000000000000000000000000000000000000006001600160a01b03169063238a038690610326908590600401610e09565b6040805180830381865afa158015610342573d6000803e3d6000fd5b505050506040513d601f19601f820116820180604052508101906103669190610e2f565b92915050565b604051630935e01b60e21b815233600482015273__$a5a42e46683ad9c79b7b86d5ff60fdf4c1$__906324d7806c90602401602060405180830381865af41580156103bb573d6000803e3d6000fd5b505050506040513d601f19601f820116820180604052508101906103df9190610e70565b6104305760405162461bcd60e51b815260206004820181905260248201527f42617369635368656c6c3a207265737472696374656420746f2061646d696e7360448201526064015b60405180910390fd5b478111156104805760405162461bcd60e51b815260206004820181905260248201527f42617369635368656c6c3a20696e73756666696369656e742062616c616e63656044820152606401610427565b73__$a5a42e46683ad9c79b7b86d5ff60fdf4c1$__638da5cb5b6040518163ffffffff1660e01b8152600401602060405180830381865af41580156104c9573d6000803e3d6000fd5b505050506040513d601f19601f820116820180604052508101906104ed9190610ea7565b6001600160a01b03166108fc829081150290604051600060405180830381858888f19350505050158015610525573d6000803e3d6000fd5b5050565b6040516323e8e84d60e11b81526000906001600160a01b037f000000000000000000000000000000000000000000000000000000000000000016906347d1d09a9061057a9086908690600401610ec4565b602060405180830381865afa158015610597573d6000803e3d6000fd5b505050506040513d601f19601f820116820180604052508101906105bb9190610e70565b9392505050565b336001600160a01b037f0000000000000000000000000000000000000000000000000000000000000000161461063a5760405162461bcd60e51b815260206004820152601c60248201527f436f6d70616e793a206f6e6c7920776f726c64207265676973747279000000006044820152606401610427565b600061064c6040830160208401610f10565b6001600160a01b0316036106b65760405162461bcd60e51b815260206004820152602b60248201527f457870657269656e63653a207465726d73206f776e657220697320746865207a60448201526a65726f206164647265737360a81b6064820152608401610427565b60006106c56060830183610f2d565b9050116107145760405162461bcd60e51b815260206004820181905260248201527f457870657269656e63653a206e616d652063616e6e6f7420626520656d7074796044820152606401610427565b60408051600080825260208201909252905073__$a5a42e46683ad9c79b7b86d5ff60fdf4c1$__63d9ac971f61074d6020850185610f10565b836040518363ffffffff1660e01b815260040161076b929190610f7b565b60006040518083038186803b15801561078357600080fd5b505af4158015610797573d6000803e3d6000fd5b506107a9925050506080830183610fd7565b6107b290610ff7565b6040516361d9624d60e01b815273__$ad2b23306edd42b5f4873830e307b82d47$__916361d9624d916107ed919060019081906004016110aa565b60006040518083038186803b15801561080557600080fd5b505af4158015610819573d6000803e3d6000fd5b505050506000610827610a21565b805460ff1916600117815590506108416060840184610f2d565b60028301916108519190836111dd565b5061085f6080840184610fd7565b6003820161086d8282611298565b5061088090506040840160208501610f10565b81546001600160a01b0391909116620100000262010000600160b01b031990911617815560006108b360a0850185610f2d565b8101906108c091906113b6565b905060006108cc610ab7565b82518155602083015190915060018201906108e79082611444565b505050505050565b6040516337b4746960e11b81526001600160e01b0319851660048201526060906000906001600160a01b03841690636f68e8d290602401602060405180830381865afa158015610943573d6000803e3d6000fd5b505050506040513d601f19601f820116820180604052508101906109679190610ea7565b90506001600160a01b0381166109d75760405162461bcd60e51b815260206004820152602f60248201527f4c6962457874656e73696f6e3a206e6f20657874656e73696f6e20737570706f60448201526e393a399033371039b2b632b1ba37b960891b6064820152608401610427565b610a178186868080601f016020809104026020016040519081016040528093929190818152602001838380828437600092019190915250610b1c92505050565b9695505050505050565b60408051808201909152601881527f78722e61637469766174696f6e2e73746f726167652e7631000000000000000060209091015260008060ff610a8660017ff6611e962a52dbc98dd0485088d920890c43e26113c61976f6e171a29d49ce496114fe565b604051602001610a9891815260200190565b60408051601f1981840301815291905280516020909101201692915050565b60408051808201909152601881527f78722e657870657269656e63652e73746f726167652e7631000000000000000060209091015260008060ff610a8660017fa13db16759b7af0e556c9648625a58e6d20b5ce76e5139c1b3ce33248c0a88526114fe565b6060600080846001600160a01b031684604051610b39919061151f565b600060405180830381855af49150503d8060008114610b74576040519150601f19603f3d011682016040523d82523d6000602084013e610b79565b606091505b50915091508115610b8d5791506103669050565b805115610b9d5780518082602001fd5b60405162461bcd60e51b8152602060048201526016602482015275119d5b98dd1a5bdb8818d85b1b081c995d995c9d195960521b6044820152606401610427565b634e487b7160e01b600052604160045260246000fd5b6040805190810167ffffffffffffffff81118282101715610c1757610c17610bde565b60405290565b60405160c0810167ffffffffffffffff81118282101715610c1757610c17610bde565b600067ffffffffffffffff80841115610c5b57610c5b610bde565b604051601f8501601f19908116603f01168101908282118183101715610c8357610c83610bde565b81604052809350858152868686011115610c9c57600080fd5b858560208301376000602087830101525050509392505050565b600082601f830112610cc757600080fd5b6105bb83833560208501610c40565b600060208284031215610ce857600080fd5b813567ffffffffffffffff811115610cff57600080fd5b6102c084828501610cb6565b600060208284031215610d1d57600080fd5b5035919050565b6000808284036060811215610d3857600080fd5b833567ffffffffffffffff811115610d4f57600080fd5b610d5b86828701610cb6565b9350506040601f1982011215610d7057600080fd5b506020830190509250929050565b600060208284031215610d9057600080fd5b813567ffffffffffffffff811115610da757600080fd5b820160c081850312156105bb57600080fd5b60005b83811015610dd4578181015183820152602001610dbc565b50506000910152565b60008151808452610df5816020860160208601610db9565b601f01601f19169290920160200192915050565b6020815260006105bb6020830184610ddd565b61ffff81168114610e2c57600080fd5b50565b600060408284031215610e4157600080fd5b610e49610bf4565b8251610e5481610e1c565b81526020830151610e6481610e1c565b60208201529392505050565b600060208284031215610e8257600080fd5b815180151581146105bb57600080fd5b6001600160a01b0381168114610e2c57600080fd5b600060208284031215610eb957600080fd5b81516105bb81610e92565b606081526000610ed76060830185610ddd565b90508235610ee481610e1c565b61ffff808216602085015260208501359150610eff82610e1c565b808216604085015250509392505050565b600060208284031215610f2257600080fd5b81356105bb81610e92565b6000808335601e19843603018112610f4457600080fd5b83018035915067ffffffffffffffff821115610f5f57600080fd5b602001915036819003821315610f7457600080fd5b9250929050565b6001600160a01b038381168252604060208084018290528451918401829052600092858201929091906060860190855b81811015610fc9578551851683529483019491830191600101610fab565b509098975050505050505050565b6000823560be19833603018112610fed57600080fd5b9190910192915050565b600060c0823603121561100957600080fd5b611011610c1d565b823567ffffffffffffffff8082111561102957600080fd5b61103536838701610cb6565b8352602085013591508082111561104b57600080fd5b61105736838701610cb6565b6020840152604085013591508082111561107057600080fd5b5061107d36828601610cb6565b604083015250606083013560608201526080830135608082015260a083013560a082015280915050919050565b606081526000845160c060608401526110c7610120840182610ddd565b90506020860151605f19808584030160808601526110e58383610ddd565b925060408801519150808584030160a0860152506111038282610ddd565b606088015160c0860152608088015160e086015260a088015161010086015286151560208601529250611134915050565b82151560408301526102c0565b600181811c9082168061115557607f821691505b60208210810361117557634e487b7160e01b600052602260045260246000fd5b50919050565b601f8211156111c3576000816000526020600020601f850160051c810160208610156111a45750805b601f850160051c820191505b818110156108e7578281556001016111b0565b505050565b600019600383901b1c191660019190911b1790565b67ffffffffffffffff8311156111f5576111f5610bde565b611209836112038354611141565b8361117b565b6000601f84116001811461123757600085156112255750838201355b61122f86826111c8565b845550611291565b600083815260209020601f19861690835b828110156112685786850135825560209485019460019092019101611248565b50868210156112855760001960f88860031b161c19848701351681555b505060018560011b0183555b5050505050565b6112a28283610f2d565b67ffffffffffffffff8111156112ba576112ba610bde565b6112ce816112c88554611141565b8561117b565b6000601f8211600181146112fc57600083156112ea5750838201355b6112f484826111c8565b865550611356565b600085815260209020601f19841690835b8281101561132d578685013582556020948501946001909201910161130d565b508482101561134a5760001960f88660031b161c19848701351681555b505060018360011b0185555b505050506113676020830183610f2d565b6113758183600186016111dd565b50506113846040830183610f2d565b6113928183600286016111dd565b5050606082013560038201556080820135600482015560a082013560058201555050565b6000602082840312156113c857600080fd5b813567ffffffffffffffff808211156113e057600080fd5b90830190604082860312156113f457600080fd5b6113fc610bf4565b8235815260208301358281111561141257600080fd5b80840193505085601f84011261142757600080fd5b61143686843560208601610c40565b602082015295945050505050565b815167ffffffffffffffff81111561145e5761145e610bde565b6114728161146c8454611141565b8461117b565b602080601f8311600181146114a1576000841561148f5750858301515b61149985826111c8565b8655506108e7565b600085815260208120601f198616915b828110156114d0578886015182559484019460019091019084016114b1565b50858210156114ee5787850151600019600388901b60f8161c191681555b5050505050600190811b01905550565b8181038181111561036657634e487b7160e01b600052601160045260246000fd5b60008251610fed818460208701610db956fea264697066735822122094942063e755c69f393cd39c1d3b45c6a67bbaa463d04f9b33cd251df5e6c69d64736f6c63430008180033",
  "linkReferences": {
    "contracts/libraries/LibAccess.sol": {
      "LibAccess": [
        {
          "length": 20,
          "start": 1742
        },
        {
          "length": 20,
          "start": 1999
        },
        {
          "length": 20,
          "start": 2677
        }
      ]
    },
    "contracts/libraries/LibVectorAddress.sol": {
      "LibVectorAddress": [
        {
          "length": 20,
          "start": 2830
        }
      ]
    }
  },
  "deployedLinkReferences": {
    "contracts/libraries/LibAccess.sol": {
      "LibAccess": [
        {
          "length": 20,
          "start": 897
        },
        {
          "length": 20,
          "start": 1154
        },
        {
          "length": 20,
          "start": 1832
        }
      ]
    },
    "contracts/libraries/LibVectorAddress.sol": {
      "LibVectorAddress": [
        {
          "length": 20,
          "start": 1985
        }
      ]
    }
  }
}