{
  "_format": "hh-sol-artifact-1",
  "contractName": "Experience",
  "sourceName": "contracts/experience/instance/Experience.sol",
  "abi": [
    {
      "inputs": [
        {
          "components": [
            {
              "internalType": "address",
              "name": "extensionResolver",
              "type": "address"
            },
            {
              "internalType": "address",
              "name": "owningRegistry",
              "type": "address"
            },
            {
              "internalType": "address",
              "name": "companyRegistry",
              "type": "address"
            }
          ],
          "internalType": "struct ExperienceConstructorArgs",
          "name": "args",
          "type": "tuple"
        }
      ],
      "stateMutability": "nonpayable",
      "type": "constructor"
    },
    {
      "anonymous": false,
      "inputs": [
        {
          "indexed": false,
          "internalType": "bytes",
          "name": "newDetails",
          "type": "bytes"
        }
      ],
      "name": "ConnectionDetailsChanged",
      "type": "event"
    },
    {
      "anonymous": false,
      "inputs": [
        {
          "indexed": false,
          "internalType": "string",
          "name": "name",
          "type": "string"
        }
      ],
      "name": "ExtensionDisabled",
      "type": "event"
    },
    {
      "anonymous": false,
      "inputs": [
        {
          "indexed": false,
          "internalType": "string",
          "name": "name",
          "type": "string"
        }
      ],
      "name": "ExtensionEnabled",
      "type": "event"
    },
    {
      "anonymous": false,
      "inputs": [
        {
          "indexed": false,
          "internalType": "string",
          "name": "name",
          "type": "string"
        },
        {
          "components": [
            {
              "internalType": "uint16",
              "name": "major",
              "type": "uint16"
            },
            {
              "internalType": "uint16",
              "name": "minor",
              "type": "uint16"
            }
          ],
          "indexed": false,
          "internalType": "struct Version",
          "name": "version",
          "type": "tuple"
        }
      ],
      "name": "ExtensionInstalled",
      "type": "event"
    },
    {
      "anonymous": false,
      "inputs": [
        {
          "indexed": false,
          "internalType": "string",
          "name": "name",
          "type": "string"
        },
        {
          "components": [
            {
              "internalType": "uint16",
              "name": "major",
              "type": "uint16"
            },
            {
              "internalType": "uint16",
              "name": "minor",
              "type": "uint16"
            }
          ],
          "indexed": false,
          "internalType": "struct Version",
          "name": "version",
          "type": "tuple"
        }
      ],
      "name": "ExtensionRolledBack",
      "type": "event"
    },
    {
      "anonymous": false,
      "inputs": [
        {
          "indexed": false,
          "internalType": "string",
          "name": "name",
          "type": "string"
        },
        {
          "components": [
            {
              "internalType": "uint16",
              "name": "major",
              "type": "uint16"
            },
            {
              "internalType": "uint16",
              "name": "minor",
              "type": "uint16"
            }
          ],
          "indexed": false,
          "internalType": "struct Version",
          "name": "version",
          "type": "tuple"
        }
      ],
      "name": "ExtensionUpgraded",
      "type": "event"
    },
    {
      "anonymous": false,
      "inputs": [
        {
          "indexed": false,
          "internalType": "bytes4",
          "name": "selector",
          "type": "bytes4"
        }
      ],
      "name": "SelectorDisabled",
      "type": "event"
    },
    {
      "anonymous": false,
      "inputs": [
        {
          "indexed": false,
          "internalType": "bytes4",
          "name": "selector",
          "type": "bytes4"
        }
      ],
      "name": "SelectorEnabled",
      "type": "event"
    },
    {
      "stateMutability": "payable",
      "type": "fallback"
    },
    {
      "inputs": [],
      "name": "company",
      "outputs": [
        {
          "internalType": "address",
          "name": "",
          "type": "address"
        }
      ],
      "stateMutability": "view",
      "type": "function"
    },
    {
      "inputs": [],
      "name": "companyRegistry",
      "outputs": [
        {
          "internalType": "contract ICompanyRegistry",
          "name": "",
          "type": "address"
        }
      ],
      "stateMutability": "view",
      "type": "function"
    },
    {
      "inputs": [],
      "name": "entryFee",
      "outputs": [
        {
          "internalType": "uint256",
          "name": "",
          "type": "uint256"
        }
      ],
      "stateMutability": "view",
      "type": "function"
    },
    {
      "inputs": [],
      "name": "experienceRegistry",
      "outputs": [
        {
          "internalType": "address",
          "name": "",
          "type": "address"
        }
      ],
      "stateMutability": "view",
      "type": "function"
    },
    {
      "inputs": [],
      "name": "extResolver",
      "outputs": [
        {
          "internalType": "contract IExtensionResolver",
          "name": "",
          "type": "address"
        }
      ],
      "stateMutability": "view",
      "type": "function"
    },
    {
      "inputs": [
        {
          "internalType": "string",
          "name": "name",
          "type": "string"
        }
      ],
      "name": "getExtensionVersion",
      "outputs": [
        {
          "components": [
            {
              "internalType": "uint16",
              "name": "major",
              "type": "uint16"
            },
            {
              "internalType": "uint16",
              "name": "minor",
              "type": "uint16"
            }
          ],
          "internalType": "struct Version",
          "name": "",
          "type": "tuple"
        }
      ],
      "stateMutability": "view",
      "type": "function"
    },
    {
      "inputs": [
        {
          "internalType": "string",
          "name": "name",
          "type": "string"
        },
        {
          "components": [
            {
              "internalType": "uint16",
              "name": "major",
              "type": "uint16"
            },
            {
              "internalType": "uint16",
              "name": "minor",
              "type": "uint16"
            }
          ],
          "internalType": "struct Version",
          "name": "version",
          "type": "tuple"
        }
      ],
      "name": "hasExtension",
      "outputs": [
        {
          "internalType": "bool",
          "name": "",
          "type": "bool"
        }
      ],
      "stateMutability": "view",
      "type": "function"
    },
    {
      "inputs": [
        {
          "components": [
            {
              "internalType": "address",
              "name": "owner",
              "type": "address"
            },
            {
              "internalType": "address",
              "name": "termsOwner",
              "type": "address"
            },
            {
              "internalType": "address",
              "name": "registry",
              "type": "address"
            },
            {
              "internalType": "string",
              "name": "name",
              "type": "string"
            },
            {
              "components": [
                {
                  "internalType": "string",
                  "name": "x",
                  "type": "string"
                },
                {
                  "internalType": "string",
                  "name": "y",
                  "type": "string"
                },
                {
                  "internalType": "string",
                  "name": "z",
                  "type": "string"
                },
                {
                  "internalType": "uint256",
                  "name": "t",
                  "type": "uint256"
                },
                {
                  "internalType": "uint256",
                  "name": "p",
                  "type": "uint256"
                },
                {
                  "internalType": "uint256",
                  "name": "p_sub",
                  "type": "uint256"
                }
              ],
              "internalType": "struct VectorAddress",
              "name": "vector",
              "type": "tuple"
            },
            {
              "internalType": "bytes",
              "name": "initData",
              "type": "bytes"
            }
          ],
          "internalType": "struct CommonInitArgs",
          "name": "args",
          "type": "tuple"
        }
      ],
      "name": "init",
      "outputs": [],
      "stateMutability": "nonpayable",
      "type": "function"
    },
    {
      "inputs": [],
      "name": "name",
      "outputs": [
        {
          "internalType": "string",
          "name": "",
          "type": "string"
        }
      ],
      "stateMutability": "view",
      "type": "function"
    },
    {
      "inputs": [
        {
          "internalType": "bytes",
          "name": "details",
          "type": "bytes"
        }
      ],
      "name": "setConnectionDetails",
      "outputs": [],
      "stateMutability": "nonpayable",
      "type": "function"
    },
    {
      "inputs": [],
      "name": "vectorAddress",
      "outputs": [
        {
          "components": [
            {
              "internalType": "string",
              "name": "x",
              "type": "string"
            },
            {
              "internalType": "string",
              "name": "y",
              "type": "string"
            },
            {
              "internalType": "string",
              "name": "z",
              "type": "string"
            },
            {
              "internalType": "uint256",
              "name": "t",
              "type": "uint256"
            },
            {
              "internalType": "uint256",
              "name": "p",
              "type": "uint256"
            },
            {
              "internalType": "uint256",
              "name": "p_sub",
              "type": "uint256"
            }
          ],
          "internalType": "struct VectorAddress",
          "name": "",
          "type": "tuple"
        }
      ],
      "stateMutability": "view",
      "type": "function"
    },
    {
      "inputs": [],
      "name": "version",
      "outputs": [
        {
          "components": [
            {
              "internalType": "uint16",
              "name": "major",
              "type": "uint16"
            },
            {
              "internalType": "uint16",
              "name": "minor",
              "type": "uint16"
            }
          ],
          "internalType": "struct Version",
          "name": "",
          "type": "tuple"
        }
      ],
      "stateMutability": "pure",
      "type": "function"
    },
    {
      "inputs": [
        {
          "internalType": "uint256",
          "name": "amount",
          "type": "uint256"
        }
      ],
      "name": "withdraw",
      "outputs": [],
      "stateMutability": "nonpayable",
      "type": "function"
    },
    {
      "inputs": [],
      "name": "world",
      "outputs": [
        {
          "internalType": "address",
          "name": "",
          "type": "address"
        }
      ],
      "stateMutability": "view",
      "type": "function"
    },
    {
      "stateMutability": "payable",
      "type": "receive"
    }
  ],
  "bytecode": "0x60e06040523480156200001157600080fd5b5060405162001e7b38038062001e7b8339810160408190526200003491620001e5565b80516001600160a01b038116620000b85760405162461bcd60e51b815260206004820152603660248201527f456e746974795368656c6c3a20657874656e73696f6e207265736f6c7665722060448201527f63616e6e6f74206265207a65726f20616464726573730000000000000000000060648201526084015b60405180910390fd5b6001600160a01b03908116608052602082015116620001315760405162461bcd60e51b815260206004820152602e60248201527f436f6d70616e793a206f776e696e6752656769737472792063616e6e6f74206260448201526d65207a65726f206164647265737360901b6064820152608401620000af565b60408101516001600160a01b0316620001a55760405162461bcd60e51b815260206004820152602f60248201527f436f6d70616e793a20636f6d70616e7952656769737472792063616e6e6f742060448201526e6265207a65726f206164647265737360881b6064820152608401620000af565b60408101516001600160a01b0390811660c0526020909101511660a05262000266565b80516001600160a01b0381168114620001e057600080fd5b919050565b600060608284031215620001f857600080fd5b604051606081016001600160401b03811182821017156200022957634e487b7160e01b600052604160045260246000fd5b6040526200023783620001c8565b81526200024760208401620001c8565b60208201526200025a60408401620001c8565b60408201529392505050565b60805160a05160c051611bc2620002b9600039600081816102f40152610dcc0152600081816102c00152610a95015260008181610328015281816103a2015281816104e301526109ec0152611bc26000f3fe6080604052600436106100e15760003560e01c806354fd4d501161007f5780638f09a6be116100595780638f09a6be146102ae578063c51aba2b146102e2578063dd2a44c114610316578063f2aca27d1461034a576100e8565b806354fd4d50146102415780636904c94d1461027957806369a10a121461028e576100e8565b80632e1a7d4d116100bb5780632e1a7d4d146101a05780632fcbab9a146101c257806330b67baa146101e457806347d1d09a14610211576100e8565b806306fdde0314610110578063072ea61c1461013b578063238a03861461015e576100e8565b366100e857005b600080356001600160e01b031916905060006101068260003661036a565b9050805160208201f35b34801561011c57600080fd5b50610125610417565b604051610132919061115b565b60405180910390f35b34801561014757600080fd5b506101506104b2565b604051908152602001610132565b34801561016a57600080fd5b5061017e61017936600461127b565b6104c2565b60408051825161ffff9081168252602093840151169281019290925201610132565b3480156101ac57600080fd5b506101c06101bb3660046112af565b610566565b005b3480156101ce57600080fd5b506101d7610723565b60405161013291906112c8565b3480156101f057600080fd5b506101f961094b565b6040516001600160a01b039091168152602001610132565b34801561021d57600080fd5b5061023161022c36600461134b565b6109d2565b6040519015158152602001610132565b34801561024d57600080fd5b50604080518082018252600080825260209182018190528251808401909352600183529082015261017e565b34801561028557600080fd5b506101f9610a6b565b34801561029a57600080fd5b506101c06102a93660046113a4565b610a8a565b3480156102ba57600080fd5b506101f97f000000000000000000000000000000000000000000000000000000000000000081565b3480156102ee57600080fd5b506101f97f000000000000000000000000000000000000000000000000000000000000000081565b34801561032257600080fd5b506101f97f000000000000000000000000000000000000000000000000000000000000000081565b34801561035657600080fd5b506101c061036536600461127b565b610db7565b604051631162ec5760e01b815260609073__$307c3a572bdf5d9800a89b3fc2eb3d5604$__90631162ec57906103ca908790879087907f0000000000000000000000000000000000000000000000000000000000000000906004016113de565b600060405180830381865af41580156103e7573d6000803e3d6000fd5b505050506040513d6000823e601f3d908101601f1916820160405261040f9190810190611430565b949350505050565b6060610421611010565b600201805461042f906114a6565b80601f016020809104026020016040519081016040528092919081815260200182805461045b906114a6565b80156104a85780601f1061047d576101008083540402835291602001916104a8565b820191906000526020600020905b81548152906001019060200180831161048b57829003601f168201915b5050505050905090565b60006104bc6110a6565b54919050565b6040805180820182526000808252602082015290516311c501c360e11b81527f00000000000000000000000000000000000000000000000000000000000000006001600160a01b03169063238a03869061052090859060040161115b565b6040805180830381865afa15801561053c573d6000803e3d6000fd5b505050506040513d601f19601f8201168201806040525081019061056091906114f3565b92915050565b604051630935e01b60e21b815233600482015273__$a5a42e46683ad9c79b7b86d5ff60fdf4c1$__906324d7806c90602401602060405180830381865af41580156105b5573d6000803e3d6000fd5b505050506040513d601f19601f820116820180604052508101906105d99190611534565b61062a5760405162461bcd60e51b815260206004820181905260248201527f42617369635368656c6c3a207265737472696374656420746f2061646d696e7360448201526064015b60405180910390fd5b4781111561067a5760405162461bcd60e51b815260206004820181905260248201527f42617369635368656c6c3a20696e73756666696369656e742062616c616e63656044820152606401610621565b73__$a5a42e46683ad9c79b7b86d5ff60fdf4c1$__638da5cb5b6040518163ffffffff1660e01b8152600401602060405180830381865af41580156106c3573d6000803e3d6000fd5b505050506040513d601f19601f820116820180604052508101906106e7919061156b565b6001600160a01b03166108fc829081150290604051600060405180830381858888f1935050505015801561071f573d6000803e3d6000fd5b5050565b61075c6040518060c001604052806060815260200160608152602001606081526020016000815260200160008152602001600081525090565b610764611010565b6003016040518060c0016040529081600082018054610782906114a6565b80601f01602080910402602001604051908101604052809291908181526020018280546107ae906114a6565b80156107fb5780601f106107d0576101008083540402835291602001916107fb565b820191906000526020600020905b8154815290600101906020018083116107de57829003601f168201915b50505050508152602001600182018054610814906114a6565b80601f0160208091040260200160405190810160405280929190818152602001828054610840906114a6565b801561088d5780601f106108625761010080835404028352916020019161088d565b820191906000526020600020905b81548152906001019060200180831161087057829003601f168201915b505050505081526020016002820180546108a6906114a6565b80601f01602080910402602001604051908101604052809291908181526020018280546108d2906114a6565b801561091f5780601f106108f45761010080835404028352916020019161091f565b820191906000526020600020905b81548152906001019060200180831161090257829003601f168201915b505050505081526020016003820154815260200160048201548152602001600582015481525050905090565b6000610955611010565b60000160029054906101000a90046001600160a01b03166001600160a01b03166330b67baa6040518163ffffffff1660e01b8152600401602060405180830381865afa1580156109a9573d6000803e3d6000fd5b505050506040513d601f19601f820116820180604052508101906109cd919061156b565b905090565b6040516323e8e84d60e11b81526000906001600160a01b037f000000000000000000000000000000000000000000000000000000000000000016906347d1d09a90610a239086908690600401611588565b602060405180830381865afa158015610a40573d6000803e3d6000fd5b505050506040513d601f19601f82011682018060405250810190610a649190611534565b9392505050565b6000610a75611010565b546201000090046001600160a01b0316919050565b336001600160a01b037f00000000000000000000000000000000000000000000000000000000000000001614610b025760405162461bcd60e51b815260206004820152601c60248201527f436f6d70616e793a206f6e6c7920776f726c64207265676973747279000000006044820152606401610621565b6000610b1460408301602084016115d4565b6001600160a01b031603610b7e5760405162461bcd60e51b815260206004820152602b60248201527f457870657269656e63653a207465726d73206f776e657220697320746865207a60448201526a65726f206164647265737360a81b6064820152608401610621565b6000610b8d60608301836115f1565b905011610bdc5760405162461bcd60e51b815260206004820181905260248201527f457870657269656e63653a206e616d652063616e6e6f7420626520656d7074796044820152606401610621565b60408051600080825260208201909252905073__$a5a42e46683ad9c79b7b86d5ff60fdf4c1$__63d9ac971f610c1560208501856115d4565b836040518363ffffffff1660e01b8152600401610c3392919061163e565b60006040518083038186803b158015610c4b57600080fd5b505af4158015610c5f573d6000803e3d6000fd5b50610c7192505050608083018361169a565b610c7a906116ba565b6040516361d9624d60e01b815273__$ad2b23306edd42b5f4873830e307b82d47$__916361d9624d91610cb59190600190819060040161176c565b60006040518083038186803b158015610ccd57600080fd5b505af4158015610ce1573d6000803e3d6000fd5b505050506000610cef611010565b805460ff191660011781559050610d0960608401846115f1565b6002830191610d19919083611865565b50610d27608084018461169a565b60038201610d35828261191f565b50610d48905060408401602085016115d4565b81546001600160a01b0391909116620100000262010000600160b01b03199091161781556000610d7b60a08501856115f1565b810190610d889190611a3c565b90506000610d946110a6565b8251815560208301519091506001820190610daf9082611ab2565b505050505050565b60405163c3c5a54760e01b81523360048201527f00000000000000000000000000000000000000000000000000000000000000006001600160a01b03169063c3c5a54790602401602060405180830381865afa158015610e1b573d6000803e3d6000fd5b505050506040513d601f19601f82011682018060405250810190610e3f9190611534565b610e9f5760405162461bcd60e51b815260206004820152602b60248201527f436f6d70616e793a2063616c6c6572206973206e6f742061207265676973746560448201526a72656420636f6d70616e7960a81b6064820152608401610621565b33610ea8610a6b565b6001600160a01b031614610f105760405162461bcd60e51b815260206004820152602960248201527f436f6d70616e793a2063616c6c6572206973206e6f7420746865206f776e696e6044820152686720636f6d70616e7960b81b6064820152608401610621565b336001600160a01b03166386b70bed6040518163ffffffff1660e01b8152600401602060405180830381865afa158015610f4e573d6000803e3d6000fd5b505050506040513d601f19601f82011682018060405250810190610f729190611534565b610fbe5760405162461bcd60e51b815260206004820152601e60248201527f436f6d70616e793a20636f6d70616e79206973206e6f742061637469766500006044820152606401610621565b80610fc76110a6565b60010190610fd59082611ab2565b507f2bb826dd17b3affe28ccd3331372cfad3ce4190525768df69719995a6d75478981604051611005919061115b565b60405180910390a150565b60408051808201909152601881527f78722e61637469766174696f6e2e73746f726167652e7631000000000000000060209091015260008060ff61107560017ff6611e962a52dbc98dd0485088d920890c43e26113c61976f6e171a29d49ce49611b6b565b60405160200161108791815260200190565b60408051601f1981840301815291905280516020909101201692915050565b60408051808201909152601881527f78722e657870657269656e63652e73746f726167652e7631000000000000000060209091015260008060ff61107560017fa13db16759b7af0e556c9648625a58e6d20b5ce76e5139c1b3ce33248c0a8852611b6b565b60005b8381101561112657818101518382015260200161110e565b50506000910152565b6000815180845261114781602086016020860161110b565b601f01601f19169290920160200192915050565b602081526000610a64602083018461112f565b634e487b7160e01b600052604160045260246000fd5b604080519081016001600160401b03811182821017156111a6576111a661116e565b60405290565b60405160c081016001600160401b03811182821017156111a6576111a661116e565b604051601f8201601f191681016001600160401b03811182821017156111f6576111f661116e565b604052919050565b60006001600160401b038211156112175761121761116e565b50601f01601f191660200190565b600082601f83011261123657600080fd5b8135611249611244826111fe565b6111ce565b81815284602083860101111561125e57600080fd5b816020850160208301376000918101602001919091529392505050565b60006020828403121561128d57600080fd5b81356001600160401b038111156112a357600080fd5b61040f84828501611225565b6000602082840312156112c157600080fd5b5035919050565b602081526000825160c060208401526112e460e084018261112f565b90506020840151601f1980858403016040860152611302838361112f565b9250604086015191508085840301606086015250611320828261112f565b91505060608401516080840152608084015160a084015260a084015160c08401528091505092915050565b600080828403606081121561135f57600080fd5b83356001600160401b0381111561137557600080fd5b61138186828701611225565b9350506040601f198201121561139657600080fd5b506020830190509250929050565b6000602082840312156113b657600080fd5b81356001600160401b038111156113cc57600080fd5b820160c08185031215610a6457600080fd5b63ffffffff60e01b85168152606060208201528260608201528284608083013760008184016080908101919091526001600160a01b03929092166040820152601f909201601f19169091010192915050565b60006020828403121561144257600080fd5b81516001600160401b0381111561145857600080fd5b8201601f8101841361146957600080fd5b8051611477611244826111fe565b81815285602083850101111561148c57600080fd5b61149d82602083016020860161110b565b95945050505050565b600181811c908216806114ba57607f821691505b6020821081036114da57634e487b7160e01b600052602260045260246000fd5b50919050565b61ffff811681146114f057600080fd5b50565b60006040828403121561150557600080fd5b61150d611184565b8251611518816114e0565b81526020830151611528816114e0565b60208201529392505050565b60006020828403121561154657600080fd5b81518015158114610a6457600080fd5b6001600160a01b03811681146114f057600080fd5b60006020828403121561157d57600080fd5b8151610a6481611556565b60608152600061159b606083018561112f565b905082356115a8816114e0565b61ffff8082166020850152602085013591506115c3826114e0565b808216604085015250509392505050565b6000602082840312156115e657600080fd5b8135610a6481611556565b6000808335601e1984360301811261160857600080fd5b8301803591506001600160401b0382111561162257600080fd5b60200191503681900382131561163757600080fd5b9250929050565b6001600160a01b038381168252604060208084018290528451918401829052600092858201929091906060860190855b8181101561168c57855185168352948301949183019160010161166e565b509098975050505050505050565b6000823560be198336030181126116b057600080fd5b9190910192915050565b600060c082360312156116cc57600080fd5b6116d46111ac565b82356001600160401b03808211156116eb57600080fd5b6116f736838701611225565b8352602085013591508082111561170d57600080fd5b61171936838701611225565b6020840152604085013591508082111561173257600080fd5b5061173f36828601611225565b604083015250606083013560608201526080830135608082015260a083013560a082015280915050919050565b606081526000845160c0606084015261178961012084018261112f565b90506020860151605f19808584030160808601526117a7838361112f565b925060408801519150808584030160a0860152506117c5828261112f565b606088015160c0860152608088015160e086015260a0880151610100860152861515602086015292506117f6915050565b821515604083015261040f565b601f82111561184b576000816000526020600020601f850160051c8101602086101561182c5750805b601f850160051c820191505b81811015610daf57828155600101611838565b505050565b600019600383901b1c191660019190911b1790565b6001600160401b0383111561187c5761187c61116e565b6118908361188a83546114a6565b83611803565b6000601f8411600181146118be57600085156118ac5750838201355b6118b68682611850565b845550611918565b600083815260209020601f19861690835b828110156118ef57868501358255602094850194600190920191016118cf565b508682101561190c5760001960f88860031b161c19848701351681555b505060018560011b0183555b5050505050565b61192982836115f1565b6001600160401b038111156119405761194061116e565b6119548161194e85546114a6565b85611803565b6000601f82116001811461198257600083156119705750838201355b61197a8482611850565b8655506119dc565b600085815260209020601f19841690835b828110156119b35786850135825560209485019460019092019101611993565b50848210156119d05760001960f88660031b161c19848701351681555b505060018360011b0185555b505050506119ed60208301836115f1565b6119fb818360018601611865565b5050611a0a60408301836115f1565b611a18818360028601611865565b5050606082013560038201556080820135600482015560a082013560058201555050565b600060208284031215611a4e57600080fd5b81356001600160401b0380821115611a6557600080fd5b9083019060408286031215611a7957600080fd5b611a81611184565b82358152602083013582811115611a9757600080fd5b611aa387828601611225565b60208301525095945050505050565b81516001600160401b03811115611acb57611acb61116e565b611adf81611ad984546114a6565b84611803565b602080601f831160018114611b0e5760008415611afc5750858301515b611b068582611850565b865550610daf565b600085815260208120601f198616915b82811015611b3d57888601518255948401946001909101908401611b1e565b5085821015611b5b5787850151600019600388901b60f8161c191681555b5050505050600190811b01905550565b8181038181111561056057634e487b7160e01b600052601160045260246000fdfea26469706673582212204fcfedc32403ba251728f32d2e026a809c70604cc3cb987dec27d4d911a42fcd64736f6c63430008180033",
  "linkReferences": {
    "contracts/libraries/LibAccess.sol": {
      "LibAccess": [
        {
          "length": 20,
          "start": 2100
        },
        {
          "length": 20,
          "start": 2357
        },
        {
          "length": 20,
          "start": 3753
        }
      ]
    },
    "contracts/libraries/LibExtensions.sol": {
      "LibExtensions": [
        {
          "length": 20,
          "start": 1589
        }
      ]
    },
    "contracts/libraries/LibVectorAddress.sol": {
      "LibVectorAddress": [
        {
          "length": 20,
          "start": 3906
        }
      ]
    }
  },
  "deployedLinkReferences": {
    "contracts/libraries/LibAccess.sol": {
      "LibAccess": [
        {
          "length": 20,
          "start": 1403
        },
        {
          "length": 20,
          "start": 1660
        },
        {
          "length": 20,
          "start": 3056
        }
      ]
    },
    "contracts/libraries/LibExtensions.sol": {
      "LibExtensions": [
        {
          "length": 20,
          "start": 892
        }
      ]
    },
    "contracts/libraries/LibVectorAddress.sol": {
      "LibVectorAddress": [
        {
          "length": 20,
          "start": 3209
        }
      ]
    }
  }
}