{
  "_format": "hh-sol-artifact-1",
  "contractName": "ExperienceRegistrationExt",
  "sourceName": "contracts/extensions/registry/experience/ExperienceRegistrationExt.sol",
  "abi": [
    {
      "anonymous": false,
      "inputs": [
        {
          "indexed": true,
          "internalType": "address",
          "name": "entity",
          "type": "address"
        },
        {
          "indexed": true,
          "internalType": "address",
          "name": "owner",
          "type": "address"
        }
      ],
      "name": "RegistryAddedEntity",
      "type": "event"
    },
    {
      "anonymous": false,
      "inputs": [
        {
          "indexed": true,
          "internalType": "address",
          "name": "old",
          "type": "address"
        },
        {
          "indexed": false,
          "internalType": "address",
          "name": "newVersion",
          "type": "address"
        }
      ],
      "name": "RegistryUpgradedEntity",
      "type": "event"
    },
    {
      "inputs": [
        {
          "components": [
            {
              "internalType": "address",
              "name": "entity",
              "type": "address"
            },
            {
              "internalType": "bytes",
              "name": "entitySignature",
              "type": "bytes"
            },
            {
              "internalType": "uint256",
              "name": "expiration",
              "type": "uint256"
            },
            {
              "components": [
                {
                  "internalType": "uint16",
                  "name": "coveragePeriodDays",
                  "type": "uint16"
                },
                {
                  "internalType": "uint16",
                  "name": "gracePeriodDays",
                  "type": "uint16"
                },
                {
                  "internalType": "uint256",
                  "name": "fee",
                  "type": "uint256"
                }
              ],
              "internalType": "struct RegistrationTerms",
              "name": "terms",
              "type": "tuple"
            }
          ],
          "internalType": "struct ChangeEntityTermsArgs",
          "name": "args",
          "type": "tuple"
        }
      ],
      "name": "changeEntityTerms",
      "outputs": [],
      "stateMutability": "nonpayable",
      "type": "function"
    },
    {
      "inputs": [
        {
          "components": [
            {
              "internalType": "address",
              "name": "company",
              "type": "address"
            },
            {
              "components": [
                {
                  "internalType": "string",
                  "name": "x",
                  "type": "string"
                },
                {
                  "internalType": "string",
                  "name": "y",
                  "type": "string"
                },
                {
                  "internalType": "string",
                  "name": "z",
                  "type": "string"
                },
                {
                  "internalType": "uint256",
                  "name": "t",
                  "type": "uint256"
                },
                {
                  "internalType": "uint256",
                  "name": "p",
                  "type": "uint256"
                },
                {
                  "internalType": "uint256",
                  "name": "p_sub",
                  "type": "uint256"
                }
              ],
              "internalType": "struct VectorAddress",
              "name": "vector",
              "type": "tuple"
            },
            {
              "internalType": "string",
              "name": "name",
              "type": "string"
            },
            {
              "internalType": "uint256",
              "name": "entryFee",
              "type": "uint256"
            },
            {
              "internalType": "bytes",
              "name": "initData",
              "type": "bytes"
            }
          ],
          "internalType": "struct CreateExperienceArgs",
          "name": "args",
          "type": "tuple"
        }
      ],
      "name": "createExperience",
      "outputs": [
        {
          "internalType": "address",
          "name": "experience",
          "type": "address"
        },
        {
          "internalType": "uint256",
          "name": "portalId",
          "type": "uint256"
        }
      ],
      "stateMutability": "nonpayable",
      "type": "function"
    },
    {
      "inputs": [
        {
          "internalType": "string",
          "name": "name",
          "type": "string"
        }
      ],
      "name": "getEntityByName",
      "outputs": [
        {
          "internalType": "address",
          "name": "",
          "type": "address"
        }
      ],
      "stateMutability": "view",
      "type": "function"
    },
    {
      "inputs": [
        {
          "components": [
            {
              "internalType": "string",
              "name": "x",
              "type": "string"
            },
            {
              "internalType": "string",
              "name": "y",
              "type": "string"
            },
            {
              "internalType": "string",
              "name": "z",
              "type": "string"
            },
            {
              "internalType": "uint256",
              "name": "t",
              "type": "uint256"
            },
            {
              "internalType": "uint256",
              "name": "p",
              "type": "uint256"
            },
            {
              "internalType": "uint256",
              "name": "p_sub",
              "type": "uint256"
            }
          ],
          "internalType": "struct VectorAddress",
          "name": "vector",
          "type": "tuple"
        }
      ],
      "name": "getEntityByVector",
      "outputs": [
        {
          "internalType": "address",
          "name": "",
          "type": "address"
        }
      ],
      "stateMutability": "view",
      "type": "function"
    },
    {
      "inputs": [
        {
          "components": [
            {
              "internalType": "address",
              "name": "owner",
              "type": "address"
            },
            {
              "internalType": "address",
              "name": "owningRegistry",
              "type": "address"
            },
            {
              "internalType": "address[]",
              "name": "admins",
              "type": "address[]"
            }
          ],
          "internalType": "struct ExtensionInitArgs",
          "name": "args",
          "type": "tuple"
        }
      ],
      "name": "initStorage",
      "outputs": [],
      "stateMutability": "nonpayable",
      "type": "function"
    },
    {
      "inputs": [
        {
          "internalType": "address",
          "name": "myAddress",
          "type": "address"
        }
      ],
      "name": "install",
      "outputs": [],
      "stateMutability": "nonpayable",
      "type": "function"
    },
    {
      "inputs": [
        {
          "internalType": "address",
          "name": "addr",
          "type": "address"
        }
      ],
      "name": "isRegistered",
      "outputs": [
        {
          "internalType": "bool",
          "name": "",
          "type": "bool"
        }
      ],
      "stateMutability": "view",
      "type": "function"
    },
    {
      "inputs": [],
      "name": "metadata",
      "outputs": [
        {
          "components": [
            {
              "internalType": "string",
              "name": "name",
              "type": "string"
            },
            {
              "components": [
                {
                  "internalType": "uint16",
                  "name": "major",
                  "type": "uint16"
                },
                {
                  "internalType": "uint16",
                  "name": "minor",
                  "type": "uint16"
                }
              ],
              "internalType": "struct Version",
              "name": "version",
              "type": "tuple"
            }
          ],
          "internalType": "struct ExtensionMetadata",
          "name": "",
          "type": "tuple"
        }
      ],
      "stateMutability": "pure",
      "type": "function"
    },
    {
      "inputs": [],
      "name": "register",
      "outputs": [],
      "stateMutability": "nonpayable",
      "type": "function"
    },
    {
      "inputs": [
        {
          "internalType": "address",
          "name": "myAddress",
          "type": "address"
        }
      ],
      "name": "upgrade",
      "outputs": [],
      "stateMutability": "nonpayable",
      "type": "function"
    }
  ],
  "bytecode": "0x608060405234801561001057600080fd5b50611883806100206000396000f3fe608060405234801561001057600080fd5b506004361061009e5760003560e01c806346a9836c1161006657806346a9836c1461011a5780634d4965f31461014c578063729963c01461015f578063c3c5a5471461016d578063c747e47e1461019057600080fd5b80630900f010146100a35780631aa3a008146100b65780632a1b8f9b146100be578063392f37e9146100d15780633e88a4e2146100ef575b600080fd5b6100b46100b1366004610f99565b50565b005b6100b46101a3565b6100b46100cc366004610f99565b610227565b6100d96104b0565b6040516100e69190611003565b60405180910390f35b6101026100fd366004611048565b610513565b6040516001600160a01b0390911681526020016100e6565b61012d6101283660046110ba565b610599565b604080516001600160a01b0390931683526020830191909152016100e6565b6100b461015a36600461110d565b610c8d565b6100b46100b136600461114a565b61018061017b366004610f99565b610cf7565b60405190151581526020016100e6565b61010261019e36600461110d565b610d76565b6101ac33610cf7565b610225576040805162461bcd60e51b81526020600482015260248101919091527f526567697374726174696f6e4578743a206f6e6c79207265676973746572656460448201527f20656e7469746965732063616e2063616c6c20746869732066756e6374696f6e60648201526084015b60405180910390fd5b565b60408051600480825260a08201909252600091816020015b60408051808201909152600081526060602082015281526020019060019003908161023f5790505090506040518060400160405280633e88a4e260e01b6001600160e01b03191681526020016040518060400160405280601781526020017f676574456e7469747942794e616d6528737472696e6729000000000000000000815250815250816000815181106102d7576102d761119b565b6020026020010181905250604051806040016040528063c747e47e60e01b6001600160e01b03191681526020016040518060400160405280602081526020017f676574456e746974794279566563746f7228566563746f724164647265737329815250815250816001815181106103505761035061119b565b6020026020010181905250604051806040016040528063c3c5a54760e01b6001600160e01b03191681526020016040518060400160405280601581526020017469735265676973746572656428616464726573732960581b815250815250816002815181106103c1576103c161119b565b602002602001018190525060405180604001604052806346a9836c60e01b6001600160e01b0319168152602001604051806060016040528060268152602001611828602691398152508160038151811061041d5761041d61119b565b602002602001018190525073__$307c3a572bdf5d9800a89b3fc2eb3d5604$__63964d13f06040518060400160405280856001600160a01b03168152602001848152506040518263ffffffff1660e01b815260040161047c91906111b1565b60006040518083038186803b15801561049457600080fd5b505af41580156104a8573d6000803e3d6000fd5b505050505050565b6104b8610f48565b506040805160808101825260198183019081527f457870657269656e6365526567697374726174696f6e4578740000000000000060608301528152815180830190925260018252600060208381019190915281019190915290565b604051631f44527160e11b815260009073__$d81eab81c4f96e94de97b51155a369ac43$__90633e88a4e29061054f9086908690600401611274565b602060405180830381865af415801561056c573d6000803e3d6000fd5b505050506040513d601f19601f820116820180604052508101906105909190611288565b90505b92915050565b6000806000306001600160a01b031663911c2a8c6040518163ffffffff1660e01b8152600401602060405180830381865afa1580156105dc573d6000803e3d6000fd5b505050506040513d601f19601f820116820180604052508101906106009190611288565b90506001600160a01b0381166106725760405162461bcd60e51b815260206004820152603160248201527f457870657269656e6365526567697374726174696f6e4578743a20776f726c64604482015270081c9959da5cdd1c9e481b9bdd081cd95d607a1b606482015260840161021c565b60008190506000339050806001600160a01b03166386b70bed6040518163ffffffff1660e01b8152600401602060405180830381865afa1580156106ba573d6000803e3d6000fd5b505050506040513d601f19601f820116820180604052508101906106de91906112a5565b61073e5760405162461bcd60e51b815260206004820152602b60248201527f436f6d70616e79526567697374726174696f6e4578743a20776f726c6420697360448201526a206e6f742061637469766560a81b606482015260840161021c565b60405163c3c5a54760e01b81523360048201526001600160a01b0383169063c3c5a54790602401602060405180830381865afa158015610782573d6000803e3d6000fd5b505050506040513d601f19601f820116820180604052508101906107a691906112a5565b61080a5760405162461bcd60e51b815260206004820152602f60248201527f436f6d70616e79526567697374726174696f6e4578743a20776f726c6420697360448201526e081b9bdd081c9959da5cdd195c9959608a1b606482015260840161021c565b61081760208701876112c7565b6108209061139d565b6040516361d9624d60e01b815273__$ad2b23306edd42b5f4873830e307b82d47$__916361d9624d9161085b919060019081906004016114c3565b60006040518083038186803b15801561087357600080fd5b505af4158015610887573d6000803e3d6000fd5b506000925061089c9150506020880188610f99565b6001600160a01b03166330b67baa6040518163ffffffff1660e01b8152600401602060405180830381865afa1580156108d9573d6000803e3d6000fd5b505050506040513d601f19601f820116820180604052508101906108fd9190611288565b90506001600160a01b038116331461097f576040805162461bcd60e51b81526020600482015260248101919091527f457870657269656e6365526567697374726174696f6e3a20636f6d70616e792060448201527f646f6573206e6f742062656c6f6e6720746f2063616c6c696e6720776f726c64606482015260840161021c565b6000610989610df1565b80549091506109a0906001600160a01b0316610e87565b96506001600160a01b038716610a0d5760405162461bcd60e51b815260206004820152602c60248201527f526567697374726172526567697374726174696f6e3a20656e7469747920636c60448201526b1bdb9a5b99c819985a5b195960a21b606482015260840161021c565b6040805160c0810190915260009080610a2960208c018c610f99565b6001600160a01b03168152602090810190610a46908c018c610f99565b6001600160a01b03168152306020820152604090810190610a69908c018c6114ed565b8080601f016020809104026020016040519081016040528093929190818152602001838380828437600092019190915250505090825250602090810190610ab2908c018c6112c7565b610abb9061139d565b8152602001610acd60808c018c6114ed565b8080601f01602080910402602001604051908101604052809392919081815260200183838082843760009201919091525050509152506040516334d0850960e11b8152600198509091506001600160a01b038916906369a10a1290610b3690849060040161153b565b600060405180830381600087803b158015610b5057600080fd5b505af1158015610b64573d6000803e3d6000fd5b50505050600060405180606001604052808a6001600160a01b031681526020016040518060600160405280600061ffff168152602001600161ffff168152602001600081525081526020018b8060200190610bbf91906112c7565b610bc89061139d565b905260405163474df87960e01b815290915073__$d81eab81c4f96e94de97b51155a369ac43$__9063474df87990610c04908490600401611624565b60006040518083038186803b158015610c1c57600080fd5b505af4158015610c30573d6000803e3d6000fd5b50610c429250505060208b018b610f99565b6001600160a01b0316896001600160a01b03167f7377123f9eb561d749cd3a89a83c22035cad6473521acbb981ee1c52d8f0248560405160405180910390a350505050505050915091565b604051630bca13f760e41b815273__$d81eab81c4f96e94de97b51155a369ac43$__9063bca13f7090610cc49084906004016116d5565b60006040518083038186803b158015610cdc57600080fd5b505af4158015610cf0573d6000803e3d6000fd5b5050505050565b60405163c3c5a54760e01b81526001600160a01b038216600482015260009073__$d81eab81c4f96e94de97b51155a369ac43$__9063c3c5a54790602401602060405180830381865af4158015610d52573d6000803e3d6000fd5b505050506040513d601f19601f8201168201806040525081019061059391906112a5565b6040516332ef671360e21b815260009073__$d81eab81c4f96e94de97b51155a369ac43$__9063cbbd9c4c90610db0908590600401611764565b602060405180830381865af4158015610dcd573d6000803e3d6000fd5b505050506040513d601f19601f820116820180604052508101906105939190611288565b60408051808201909152601c81527f78722e656e746974792e666163746f72792e73746f726167652e76310000000060209091015260008060ff610e5660017f8b4ac7cd4466ab0d50fe53a88c5446ca4a450d482bef9ad792e7d9f451497e0f611806565b604051602001610e6891815260200190565b60408051601f1981840301815291905280516020909101201692915050565b60006001600160a01b038216610ef75760405162461bcd60e51b815260206004820152602f60248201527f4c6962436c6f6e653a20696d706c656d656e746174696f6e2063616e6e6f742060448201526e6265207a65726f206164647265737360881b606482015260840161021c565b60008260601b9050604051733d602d80600a3d3981f3363d3d373d3d3d363d7360601b81528160148201526e5af43d82803e903d91602b57fd5bf360881b60288201526037816000f0949350505050565b604051806040016040528060608152602001610f7f6040518060400160405280600061ffff168152602001600061ffff1681525090565b905290565b6001600160a01b03811681146100b157600080fd5b600060208284031215610fab57600080fd5b8135610fb681610f84565b9392505050565b6000815180845260005b81811015610fe357602081850181015186830182015201610fc7565b506000602082860101526020601f19601f83011685010191505092915050565b60208152600082516060602084015261101f6080840182610fbd565b602094850151805161ffff90811660408701529501519094166060909301929092525090919050565b6000806020838503121561105b57600080fd5b823567ffffffffffffffff8082111561107357600080fd5b818501915085601f83011261108757600080fd5b81358181111561109657600080fd5b8660208285010111156110a857600080fd5b60209290920196919550909350505050565b6000602082840312156110cc57600080fd5b813567ffffffffffffffff8111156110e357600080fd5b820160a08185031215610fb657600080fd5b600060c0828403121561110757600080fd5b50919050565b60006020828403121561111f57600080fd5b813567ffffffffffffffff81111561113657600080fd5b611142848285016110f5565b949350505050565b60006020828403121561115c57600080fd5b813567ffffffffffffffff81111561117357600080fd5b820160608185031215610fb657600080fd5b634e487b7160e01b600052604160045260246000fd5b634e487b7160e01b600052603260045260246000fd5b602080825282516001600160a01b031682820152828101516040808401819052815160608501819052600093926080600583901b87018101939185019290870190865b8181101561123d57888603607f19018352845180516001600160e01b031916875287015187870185905261122a85880182610fbd565b96505093860193918601916001016111f4565b509398975050505050505050565b81835281816020850137506000828201602090810191909152601f909101601f19169091010190565b60208152600061114260208301848661124b565b60006020828403121561129a57600080fd5b8151610fb681610f84565b6000602082840312156112b757600080fd5b81518015158114610fb657600080fd5b6000823560be198336030181126112dd57600080fd5b9190910192915050565b60405160c0810167ffffffffffffffff8111828210171561130a5761130a611185565b60405290565b600082601f83011261132157600080fd5b813567ffffffffffffffff8082111561133c5761133c611185565b604051601f8301601f19908116603f0116810190828211818310171561136457611364611185565b8160405283815286602085880101111561137d57600080fd5b836020870160208301376000602085830101528094505050505092915050565b600060c082360312156113af57600080fd5b6113b76112e7565b823567ffffffffffffffff808211156113cf57600080fd5b6113db36838701611310565b835260208501359150808211156113f157600080fd5b6113fd36838701611310565b6020840152604085013591508082111561141657600080fd5b5061142336828601611310565b604083015250606083013560608201526080830135608082015260a083013560a082015280915050919050565b6000815160c0845261146560c0850182610fbd565b90506020830151848203602086015261147e8282610fbd565b915050604083015184820360408601526114988282610fbd565b915050606083015160608501526080830151608085015260a083015160a08501528091505092915050565b6060815260006114d66060830186611450565b931515602083015250901515604090910152919050565b6000808335601e1984360301811261150457600080fd5b83018035915067ffffffffffffffff82111561151f57600080fd5b60200191503681900382131561153457600080fd5b9250929050565b60208152600060018060a01b0380845116602084015280602085015116604084015280604085015116606084015250606083015160c0608084015261158360e0840182610fbd565b90506080840151601f19808584030160a0860152815160c084526115aa60c0850182610fbd565b9050602083015184820360208601526115c38282610fbd565b915050604083015184820360408601526115dd8282610fbd565b915050606083015160608501526080830151608085015260a083015160a085015260a08701519350818682030160c08701526116198185610fbd565b979650505050505050565b602080825282516001600160a01b03168282015282810151805161ffff90811660408086019190915292820151166060840152810151608083015282015160a08083015260009061114260c0840182611450565b6000808335601e1984360301811261168f57600080fd5b830160208101925035905067ffffffffffffffff8111156116af57600080fd5b80360382131561153457600080fd5b803561ffff811681146116d057600080fd5b919050565b60208152600082356116e681610f84565b6001600160a01b031660208381019190915261170490840184611678565b60c0604085015261171960e08501828461124b565b9150506040840135606084015261ffff80611736606087016116be565b16608085015280611749608087016116be565b1660a08501525060a084013560c08401528091505092915050565b6020815260006117748384611678565b60c0602085015261178960e08501828461124b565b9150506117996020850185611678565b601f19808685030160408701526117b184838561124b565b93506117c06040880188611678565b9350915080868503016060870152506117da83838361124b565b9250505060608401356080840152608084013560a084015260a084013560c08401528091505092915050565b8181038181111561059357634e487b7160e01b600052601160045260246000fdfe637265617465457870657269656e636528437265617465457870657269656e63654172677329a264697066735822122075605e6fc9bd7521cbf5ae2d3047499101937a0bc5f51eab1e116eea4ba03b9d64736f6c63430008180033",
  "linkReferences": {
    "contracts/libraries/LibExtensions.sol": {
      "LibExtensions": [
        {
          "length": 20,
          "start": 1098
        }
      ]
    },
    "contracts/libraries/LibRegistration.sol": {
      "LibRegistration": [
        {
          "length": 20,
          "start": 1349
        },
        {
          "length": 20,
          "start": 3068
        },
        {
          "length": 20,
          "start": 3260
        },
        {
          "length": 20,
          "start": 3384
        },
        {
          "length": 20,
          "start": 3496
        }
      ]
    },
    "contracts/libraries/LibVectorAddress.sol": {
      "LibVectorAddress": [
        {
          "length": 20,
          "start": 2127
        }
      ]
    }
  },
  "deployedLinkReferences": {
    "contracts/libraries/LibExtensions.sol": {
      "LibExtensions": [
        {
          "length": 20,
          "start": 1066
        }
      ]
    },
    "contracts/libraries/LibRegistration.sol": {
      "LibRegistration": [
        {
          "length": 20,
          "start": 1317
        },
        {
          "length": 20,
          "start": 3036
        },
        {
          "length": 20,
          "start": 3228
        },
        {
          "length": 20,
          "start": 3352
        },
        {
          "length": 20,
          "start": 3464
        }
      ]
    },
    "contracts/libraries/LibVectorAddress.sol": {
      "LibVectorAddress": [
        {
          "length": 20,
          "start": 2095
        }
      ]
    }
  }
}