{
  "_format": "hh-sol-artifact-1",
  "contractName": "ExperienceRemovalExt",
  "sourceName": "contracts/extensions/registry/experience/ExperienceRemovalExt.sol",
  "abi": [
    {
      "inputs": [
        {
          "internalType": "address",
          "name": "company",
          "type": "address"
        },
        {
          "internalType": "address",
          "name": "exp",
          "type": "address"
        },
        {
          "internalType": "string",
          "name": "reason",
          "type": "string"
        }
      ],
      "name": "deactivateExperience",
      "outputs": [],
      "stateMutability": "nonpayable",
      "type": "function"
    },
    {
      "inputs": [
        {
          "internalType": "address",
          "name": "myAddress",
          "type": "address"
        }
      ],
      "name": "install",
      "outputs": [],
      "stateMutability": "nonpayable",
      "type": "function"
    },
    {
      "inputs": [],
      "name": "metadata",
      "outputs": [
        {
          "components": [
            {
              "internalType": "string",
              "name": "name",
              "type": "string"
            },
            {
              "components": [
                {
                  "internalType": "uint16",
                  "name": "major",
                  "type": "uint16"
                },
                {
                  "internalType": "uint16",
                  "name": "minor",
                  "type": "uint16"
                }
              ],
              "internalType": "struct Version",
              "name": "version",
              "type": "tuple"
            }
          ],
          "internalType": "struct ExtensionMetadata",
          "name": "",
          "type": "tuple"
        }
      ],
      "stateMutability": "pure",
      "type": "function"
    },
    {
      "inputs": [
        {
          "internalType": "address",
          "name": "company",
          "type": "address"
        },
        {
          "internalType": "address",
          "name": "exp",
          "type": "address"
        }
      ],
      "name": "reactivateExperience",
      "outputs": [],
      "stateMutability": "nonpayable",
      "type": "function"
    },
    {
      "inputs": [
        {
          "internalType": "address",
          "name": "company",
          "type": "address"
        },
        {
          "internalType": "address",
          "name": "exp",
          "type": "address"
        },
        {
          "internalType": "string",
          "name": "reason",
          "type": "string"
        }
      ],
      "name": "removeExperience",
      "outputs": [
        {
          "internalType": "uint256",
          "name": "portalId",
          "type": "uint256"
        }
      ],
      "stateMutability": "nonpayable",
      "type": "function"
    },
    {
      "inputs": [
        {
          "internalType": "address",
          "name": "myAddress",
          "type": "address"
        }
      ],
      "name": "upgrade",
      "outputs": [],
      "stateMutability": "nonpayable",
      "type": "function"
    }
  ],
  "bytecode": "0x608060405234801561001057600080fd5b5061108b806100206000396000f3fe608060405234801561001057600080fd5b50600436106100625760003560e01c80630900f01014610067578063200e4e111461007a5780632a1b8f9b1461008d578063392f37e9146100a057806346213f4a146100be57806391026f19146100df575b600080fd5b610078610075366004610c48565b50565b005b610078610088366004610c6c565b6100f2565b61007861009b366004610c48565b610308565b6100a86104e6565b6040516100b59190610d44565b60405180910390f35b6100d16100cc366004610c6c565b610540565b6040519081526020016100b5565b6100786100ed366004610d89565b610753565b6000306001600160a01b031663911c2a8c6040518163ffffffff1660e01b8152600401602060405180830381865afa158015610132573d6000803e3d6000fd5b505050506040513d601f19601f820116820180604052508101906101569190610dc2565b90506001600160a01b0381166101875760405162461bcd60e51b815260040161017e90610ddf565b60405180910390fd5b60405163c3c5a54760e01b815233600482015281906001600160a01b0382169063c3c5a54790602401602060405180830381865afa1580156101cd573d6000803e3d6000fd5b505050506040513d601f19601f820116820180604052508101906101f19190610e2b565b61020d5760405162461bcd60e51b815260040161017e90610e4d565b336001600160a01b03166386b70bed6040518163ffffffff1660e01b8152600401602060405180830381865afa15801561024b573d6000803e3d6000fd5b505050506040513d601f19601f8201168201806040525081019061026f9190610e2b565b61028b5760405162461bcd60e51b815260040161017e90610ea3565b610295868661095e565b60405163ede71a1760e01b815273__$1822254560a4f971c7e72253c3a08363e7$__9063ede71a17906102d090889088908890600401610eec565b60006040518083038186803b1580156102e857600080fd5b505af41580156102fc573d6000803e3d6000fd5b50505050505050505050565b60408051600380825260808201909252600091816020015b604080518082019091526000815260606020820152815260200190600190039081610320579050509050604051806040016040528063200e4e1160e01b6001600160e01b03191681526020016040518060600160405280602c8152602001610fdd602c91398152508160008151811061039b5761039b610f2c565b602002602001018190525060405180604001604052806391026f1960e01b6001600160e01b031916815260200160405180606001604052806025815260200161103160259139815250816001815181106103f7576103f7610f2c565b602002602001018190525060405180604001604052806346213f4a60e01b6001600160e01b0319168152602001604051806060016040528060288152602001611009602891398152508160028151811061045357610453610f2c565b602002602001018190525073__$307c3a572bdf5d9800a89b3fc2eb3d5604$__63964d13f06040518060400160405280856001600160a01b03168152602001848152506040518263ffffffff1660e01b81526004016104b29190610f42565b60006040518083038186803b1580156104ca57600080fd5b505af41580156104de573d6000803e3d6000fd5b505050505050565b6104ee610bf7565b5060408051608081018252601481830190815273115e1c195c9a595b98d954995b5bdd985b115e1d60621b60608301528152815180830190925260018252600060208381019190915281019190915290565b600080306001600160a01b031663911c2a8c6040518163ffffffff1660e01b8152600401602060405180830381865afa158015610581573d6000803e3d6000fd5b505050506040513d601f19601f820116820180604052508101906105a59190610dc2565b90506001600160a01b0381166105cd5760405162461bcd60e51b815260040161017e90610ddf565b60405163c3c5a54760e01b815233600482015281906001600160a01b0382169063c3c5a54790602401602060405180830381865afa158015610613573d6000803e3d6000fd5b505050506040513d601f19601f820116820180604052508101906106379190610e2b565b6106535760405162461bcd60e51b815260040161017e90610e4d565b336001600160a01b03166386b70bed6040518163ffffffff1660e01b8152600401602060405180830381865afa158015610691573d6000803e3d6000fd5b505050506040513d601f19601f820116820180604052508101906106b59190610e2b565b6106d15760405162461bcd60e51b815260040161017e90610ea3565b6106db878761095e565b604051633f111a5d60e21b815273__$1822254560a4f971c7e72253c3a08363e7$__9063fc4469749061071690899089908990600401610eec565b60006040518083038186803b15801561072e57600080fd5b505af4158015610742573d6000803e3d6000fd5b5060019a9950505050505050505050565b6000306001600160a01b031663911c2a8c6040518163ffffffff1660e01b8152600401602060405180830381865afa158015610793573d6000803e3d6000fd5b505050506040513d601f19601f820116820180604052508101906107b79190610dc2565b90506001600160a01b0381166107df5760405162461bcd60e51b815260040161017e90610ddf565b60405163c3c5a54760e01b815233600482015281906001600160a01b0382169063c3c5a54790602401602060405180830381865afa158015610825573d6000803e3d6000fd5b505050506040513d601f19601f820116820180604052508101906108499190610e2b565b6108655760405162461bcd60e51b815260040161017e90610e4d565b336001600160a01b03166386b70bed6040518163ffffffff1660e01b8152600401602060405180830381865afa1580156108a3573d6000803e3d6000fd5b505050506040513d601f19601f820116820180604052508101906108c79190610e2b565b6108e35760405162461bcd60e51b815260040161017e90610ea3565b6108ed848461095e565b60405163699f380760e11b81526001600160a01b038416600482015273__$1822254560a4f971c7e72253c3a08363e7$__9063d33e700e9060240160006040518083038186803b15801561094057600080fd5b505af4158015610954573d6000803e3d6000fd5b5050505050505050565b6000829050336001600160a01b0316816001600160a01b03166330b67baa6040518163ffffffff1660e01b8152600401602060405180830381865afa1580156109ab573d6000803e3d6000fd5b505050506040513d601f19601f820116820180604052508101906109cf9190610dc2565b6001600160a01b031614610a405760405162461bcd60e51b815260206004820152603260248201527f457870657269656e636552656d6f76616c4578743a20636f6d70616e79206e6f6044820152711d081a5b8818d85b1b1a5b99c81ddbdc9b1960721b606482015260840161017e565b806001600160a01b03166386b70bed6040518163ffffffff1660e01b8152600401602060405180830381865afa158015610a7e573d6000803e3d6000fd5b505050506040513d601f19601f82011682018060405250810190610aa29190610e2b565b610b025760405162461bcd60e51b815260206004820152602b60248201527f457870657269656e636552656d6f76616c4578743a20636f6d70616e7920697360448201526a206e6f742061637469766560a81b606482015260840161017e565b6000829050836001600160a01b0316816001600160a01b0316636904c94d6040518163ffffffff1660e01b8152600401602060405180830381865afa158015610b4f573d6000803e3d6000fd5b505050506040513d601f19601f82011682018060405250810190610b739190610dc2565b6001600160a01b031614610bf1576040805162461bcd60e51b81526020600482015260248101919091527f457870657269656e636552656d6f76616c4578743a20636f6d70616e7920697360448201527f206e6f7420746865206f776e6572206f662074686520657870657269656e6365606482015260840161017e565b50505050565b604051806040016040528060608152602001610c2e6040518060400160405280600061ffff168152602001600061ffff1681525090565b905290565b6001600160a01b038116811461007557600080fd5b600060208284031215610c5a57600080fd5b8135610c6581610c33565b9392505050565b60008060008060608587031215610c8257600080fd5b8435610c8d81610c33565b93506020850135610c9d81610c33565b9250604085013567ffffffffffffffff80821115610cba57600080fd5b818701915087601f830112610cce57600080fd5b813581811115610cdd57600080fd5b886020828501011115610cef57600080fd5b95989497505060200194505050565b6000815180845260005b81811015610d2457602081850181015186830182015201610d08565b506000602082860101526020601f19601f83011685010191505092915050565b602081526000825160606020840152610d606080840182610cfe565b602094850151805161ffff90811660408701529501519094166060909301929092525090919050565b60008060408385031215610d9c57600080fd5b8235610da781610c33565b91506020830135610db781610c33565b809150509250929050565b600060208284031215610dd457600080fd5b8151610c6581610c33565b6020808252602c908201527f457870657269656e636552656d6f76616c4578743a20776f726c64207265676960408201526b1cdd1c9e481b9bdd081cd95d60a21b606082015260800190565b600060208284031215610e3d57600080fd5b81518015158114610c6557600080fd5b60208082526036908201527f457870657269656e636552656d6f76616c4578743a2063616c6c6572206973206040820152751b9bdd0818481c9959da5cdd195c9959081ddbdc9b1960521b606082015260800190565b60208082526029908201527f457870657269656e636552656d6f76616c4578743a20776f726c64206973206e6040820152686f742061637469766560b81b606082015260800190565b6001600160a01b03841681526040602082018190528101829052818360608301376000818301606090810191909152601f909201601f1916010192915050565b634e487b7160e01b600052603260045260246000fd5b602080825282516001600160a01b031682820152828101516040808401819052815160608501819052600093926080600583901b87018101939185019290870190865b81811015610fce57888603607f19018352845180516001600160e01b0319168752870151878701859052610fbb85880182610cfe565b9650509386019391860191600101610f85565b50939897505050505050505056fe64656163746976617465457870657269656e636528616464726573732c616464726573732c737472696e672972656d6f7665457870657269656e636528616464726573732c616464726573732c737472696e672972656163746976617465457870657269656e636528616464726573732c6164647265737329a2646970667358221220169f3bd305ed2286b4f15279bfe9d6fb7e04fbe801420cfe4f610a77cadd87a864736f6c63430008180033",
  "linkReferences": {
    "contracts/libraries/LibEntityRemoval.sol": {
      "LibEntityRemoval": [
        {
          "length": 20,
          "start": 708
        },
        {
          "length": 20,
          "start": 1802
        },
        {
          "length": 20,
          "start": 2347
        }
      ]
    },
    "contracts/libraries/LibExtensions.sol": {
      "LibExtensions": [
        {
          "length": 20,
          "start": 1152
        }
      ]
    }
  },
  "deployedLinkReferences": {
    "contracts/libraries/LibEntityRemoval.sol": {
      "LibEntityRemoval": [
        {
          "length": 20,
          "start": 676
        },
        {
          "length": 20,
          "start": 1770
        },
        {
          "length": 20,
          "start": 2315
        }
      ]
    },
    "contracts/libraries/LibExtensions.sol": {
      "LibExtensions": [
        {
          "length": 20,
          "start": 1120
        }
      ]
    }
  }
}