{
  "_format": "hh-sol-artifact-1",
  "contractName": "Experience",
  "sourceName": "contracts/experience/instance/Experience.sol",
  "abi": [
    {
      "inputs": [
        {
          "components": [
            {
              "internalType": "address",
              "name": "companyRegistry",
              "type": "address"
            },
            {
              "internalType": "address",
              "name": "experienceRegistry",
              "type": "address"
            },
            {
              "internalType": "address",
              "name": "portalRegistry",
              "type": "address"
            }
          ],
          "internalType": "struct ExperienceConstructorArgs",
          "name": "args",
          "type": "tuple"
        }
      ],
      "stateMutability": "nonpayable",
      "type": "constructor"
    },
    {
      "inputs": [],
      "name": "ReentrancyGuardReentrantCall",
      "type": "error"
    },
    {
      "anonymous": false,
      "inputs": [
        {
          "indexed": false,
          "internalType": "bytes",
          "name": "newDetails",
          "type": "bytes"
        }
      ],
      "name": "ConnectionDetailsChanged",
      "type": "event"
    },
    {
      "anonymous": false,
      "inputs": [
        {
          "indexed": true,
          "internalType": "address",
          "name": "by",
          "type": "address"
        },
        {
          "indexed": false,
          "internalType": "string",
          "name": "reason",
          "type": "string"
        }
      ],
      "name": "EntityDeactivated",
      "type": "event"
    },
    {
      "anonymous": false,
      "inputs": [
        {
          "indexed": true,
          "internalType": "address",
          "name": "by",
          "type": "address"
        }
      ],
      "name": "EntityReactivated",
      "type": "event"
    },
    {
      "anonymous": false,
      "inputs": [
        {
          "indexed": true,
          "internalType": "address",
          "name": "by",
          "type": "address"
        },
        {
          "indexed": false,
          "internalType": "string",
          "name": "reason",
          "type": "string"
        }
      ],
      "name": "EntityRemoved",
      "type": "event"
    },
    {
      "anonymous": false,
      "inputs": [],
      "name": "ExperienceDeactivated",
      "type": "event"
    },
    {
      "anonymous": false,
      "inputs": [
        {
          "indexed": true,
          "internalType": "address",
          "name": "oldVersion",
          "type": "address"
        },
        {
          "indexed": true,
          "internalType": "address",
          "name": "newVersion",
          "type": "address"
        }
      ],
      "name": "ExperienceUpgraded",
      "type": "event"
    },
    {
      "anonymous": false,
      "inputs": [
        {
          "indexed": true,
          "internalType": "address",
          "name": "hook",
          "type": "address"
        }
      ],
      "name": "HookAdded",
      "type": "event"
    },
    {
      "anonymous": false,
      "inputs": [
        {
          "indexed": true,
          "internalType": "address",
          "name": "hook",
          "type": "address"
        }
      ],
      "name": "HookRemoved",
      "type": "event"
    },
    {
      "anonymous": false,
      "inputs": [
        {
          "indexed": true,
          "internalType": "address",
          "name": "sourceWorld",
          "type": "address"
        },
        {
          "indexed": true,
          "internalType": "address",
          "name": "sourceCompany",
          "type": "address"
        },
        {
          "indexed": true,
          "internalType": "address",
          "name": "avatar",
          "type": "address"
        },
        {
          "indexed": false,
          "internalType": "uint256",
          "name": "attachedFees",
          "type": "uint256"
        }
      ],
      "name": "JumpEntry",
      "type": "event"
    },
    {
      "anonymous": false,
      "inputs": [
        {
          "indexed": false,
          "internalType": "uint256",
          "name": "newFee",
          "type": "uint256"
        }
      ],
      "name": "PortalFeeChanged",
      "type": "event"
    },
    {
      "inputs": [
        {
          "internalType": "address",
          "name": "condition",
          "type": "address"
        }
      ],
      "name": "addPortalCondition",
      "outputs": [],
      "stateMutability": "nonpayable",
      "type": "function"
    },
    {
      "inputs": [
        {
          "internalType": "address[]",
          "name": "signers",
          "type": "address[]"
        }
      ],
      "name": "addSigners",
      "outputs": [],
      "stateMutability": "nonpayable",
      "type": "function"
    },
    {
      "inputs": [
        {
          "internalType": "address",
          "name": "newOwner",
          "type": "address"
        }
      ],
      "name": "changeOwner",
      "outputs": [],
      "stateMutability": "nonpayable",
      "type": "function"
    },
    {
      "inputs": [
        {
          "internalType": "uint256",
          "name": "fee",
          "type": "uint256"
        }
      ],
      "name": "changePortalFee",
      "outputs": [],
      "stateMutability": "nonpayable",
      "type": "function"
    },
    {
      "inputs": [],
      "name": "company",
      "outputs": [
        {
          "internalType": "address",
          "name": "",
          "type": "address"
        }
      ],
      "stateMutability": "view",
      "type": "function"
    },
    {
      "inputs": [],
      "name": "companyRegistry",
      "outputs": [
        {
          "internalType": "address",
          "name": "",
          "type": "address"
        }
      ],
      "stateMutability": "view",
      "type": "function"
    },
    {
      "inputs": [],
      "name": "connectionDetails",
      "outputs": [
        {
          "internalType": "bytes",
          "name": "",
          "type": "bytes"
        }
      ],
      "stateMutability": "view",
      "type": "function"
    },
    {
      "inputs": [
        {
          "internalType": "string",
          "name": "reason",
          "type": "string"
        }
      ],
      "name": "deactivate",
      "outputs": [],
      "stateMutability": "nonpayable",
      "type": "function"
    },
    {
      "inputs": [
        {
          "components": [
            {
              "internalType": "address",
              "name": "sourceWorld",
              "type": "address"
            },
            {
              "internalType": "address",
              "name": "sourceCompany",
              "type": "address"
            },
            {
              "internalType": "address",
              "name": "avatar",
              "type": "address"
            }
          ],
          "internalType": "struct JumpEntryRequest",
          "name": "",
          "type": "tuple"
        }
      ],
      "name": "entering",
      "outputs": [
        {
          "internalType": "bytes",
          "name": "",
          "type": "bytes"
        }
      ],
      "stateMutability": "payable",
      "type": "function"
    },
    {
      "inputs": [],
      "name": "entryFee",
      "outputs": [
        {
          "internalType": "uint256",
          "name": "",
          "type": "uint256"
        }
      ],
      "stateMutability": "view",
      "type": "function"
    },
    {
      "inputs": [],
      "name": "experienceRegistry",
      "outputs": [
        {
          "internalType": "contract IExperienceRegistry",
          "name": "",
          "type": "address"
        }
      ],
      "stateMutability": "view",
      "type": "function"
    },
    {
      "inputs": [
        {
          "internalType": "address",
          "name": "experience",
          "type": "address"
        }
      ],
      "name": "getExperienceInfo",
      "outputs": [
        {
          "components": [
            {
              "internalType": "address",
              "name": "company",
              "type": "address"
            },
            {
              "internalType": "address",
              "name": "world",
              "type": "address"
            },
            {
              "internalType": "uint256",
              "name": "portalId",
              "type": "uint256"
            }
          ],
          "internalType": "struct ExperienceInfo",
          "name": "",
          "type": "tuple"
        }
      ],
      "stateMutability": "view",
      "type": "function"
    },
    {
      "inputs": [
        {
          "internalType": "bytes32",
          "name": "role",
          "type": "bytes32"
        },
        {
          "internalType": "address",
          "name": "account",
          "type": "address"
        }
      ],
      "name": "grantRole",
      "outputs": [],
      "stateMutability": "nonpayable",
      "type": "function"
    },
    {
      "inputs": [
        {
          "internalType": "bytes32",
          "name": "role",
          "type": "bytes32"
        },
        {
          "internalType": "address",
          "name": "account",
          "type": "address"
        }
      ],
      "name": "hasRole",
      "outputs": [
        {
          "internalType": "bool",
          "name": "",
          "type": "bool"
        }
      ],
      "stateMutability": "view",
      "type": "function"
    },
    {
      "inputs": [
        {
          "components": [
            {
              "internalType": "string",
              "name": "name",
              "type": "string"
            },
            {
              "internalType": "address",
              "name": "company",
              "type": "address"
            },
            {
              "components": [
                {
                  "internalType": "string",
                  "name": "x",
                  "type": "string"
                },
                {
                  "internalType": "string",
                  "name": "y",
                  "type": "string"
                },
                {
                  "internalType": "string",
                  "name": "z",
                  "type": "string"
                },
                {
                  "internalType": "uint256",
                  "name": "t",
                  "type": "uint256"
                },
                {
                  "internalType": "uint256",
                  "name": "p",
                  "type": "uint256"
                },
                {
                  "internalType": "uint256",
                  "name": "p_sub",
                  "type": "uint256"
                }
              ],
              "internalType": "struct VectorAddress",
              "name": "vector",
              "type": "tuple"
            },
            {
              "internalType": "bytes",
              "name": "initData",
              "type": "bytes"
            }
          ],
          "internalType": "struct ExperienceInitArgs",
          "name": "args",
          "type": "tuple"
        }
      ],
      "name": "init",
      "outputs": [],
      "stateMutability": "nonpayable",
      "type": "function"
    },
    {
      "inputs": [],
      "name": "initPortal",
      "outputs": [
        {
          "internalType": "uint256",
          "name": "portal",
          "type": "uint256"
        }
      ],
      "stateMutability": "nonpayable",
      "type": "function"
    },
    {
      "inputs": [
        {
          "internalType": "address",
          "name": "account",
          "type": "address"
        }
      ],
      "name": "isAdmin",
      "outputs": [
        {
          "internalType": "bool",
          "name": "",
          "type": "bool"
        }
      ],
      "stateMutability": "view",
      "type": "function"
    },
    {
      "inputs": [],
      "name": "isEntityActive",
      "outputs": [
        {
          "internalType": "bool",
          "name": "",
          "type": "bool"
        }
      ],
      "stateMutability": "view",
      "type": "function"
    },
    {
      "inputs": [],
      "name": "isRemoved",
      "outputs": [
        {
          "internalType": "bool",
          "name": "",
          "type": "bool"
        }
      ],
      "stateMutability": "view",
      "type": "function"
    },
    {
      "inputs": [
        {
          "internalType": "address",
          "name": "account",
          "type": "address"
        }
      ],
      "name": "isSigner",
      "outputs": [
        {
          "internalType": "bool",
          "name": "",
          "type": "bool"
        }
      ],
      "stateMutability": "view",
      "type": "function"
    },
    {
      "inputs": [],
      "name": "name",
      "outputs": [
        {
          "internalType": "string",
          "name": "",
          "type": "string"
        }
      ],
      "stateMutability": "view",
      "type": "function"
    },
    {
      "inputs": [],
      "name": "owner",
      "outputs": [
        {
          "internalType": "address",
          "name": "",
          "type": "address"
        }
      ],
      "stateMutability": "view",
      "type": "function"
    },
    {
      "inputs": [],
      "name": "portalId",
      "outputs": [
        {
          "internalType": "uint256",
          "name": "",
          "type": "uint256"
        }
      ],
      "stateMutability": "view",
      "type": "function"
    },
    {
      "inputs": [],
      "name": "portalRegistry",
      "outputs": [
        {
          "internalType": "contract IPortalRegistry",
          "name": "",
          "type": "address"
        }
      ],
      "stateMutability": "view",
      "type": "function"
    },
    {
      "inputs": [
        {
          "internalType": "bytes",
          "name": "initData",
          "type": "bytes"
        }
      ],
      "name": "postUpgradeInit",
      "outputs": [],
      "stateMutability": "nonpayable",
      "type": "function"
    },
    {
      "inputs": [],
      "name": "reactivate",
      "outputs": [],
      "stateMutability": "nonpayable",
      "type": "function"
    },
    {
      "inputs": [
        {
          "internalType": "string",
          "name": "reason",
          "type": "string"
        }
      ],
      "name": "remove",
      "outputs": [],
      "stateMutability": "nonpayable",
      "type": "function"
    },
    {
      "inputs": [],
      "name": "removePortalCondition",
      "outputs": [],
      "stateMutability": "nonpayable",
      "type": "function"
    },
    {
      "inputs": [
        {
          "internalType": "address[]",
          "name": "signers",
          "type": "address[]"
        }
      ],
      "name": "removeSigners",
      "outputs": [],
      "stateMutability": "nonpayable",
      "type": "function"
    },
    {
      "inputs": [
        {
          "internalType": "bytes32",
          "name": "role",
          "type": "bytes32"
        },
        {
          "internalType": "address",
          "name": "account",
          "type": "address"
        }
      ],
      "name": "revokeRole",
      "outputs": [],
      "stateMutability": "nonpayable",
      "type": "function"
    },
    {
      "inputs": [
        {
          "internalType": "bytes",
          "name": "details",
          "type": "bytes"
        }
      ],
      "name": "setConnectionDetails",
      "outputs": [],
      "stateMutability": "nonpayable",
      "type": "function"
    },
    {
      "inputs": [],
      "name": "termsOwner",
      "outputs": [
        {
          "internalType": "address",
          "name": "",
          "type": "address"
        }
      ],
      "stateMutability": "view",
      "type": "function"
    },
    {
      "inputs": [
        {
          "internalType": "bytes",
          "name": "initData",
          "type": "bytes"
        }
      ],
      "name": "upgrade",
      "outputs": [],
      "stateMutability": "nonpayable",
      "type": "function"
    },
    {
      "inputs": [],
      "name": "vectorAddress",
      "outputs": [
        {
          "components": [
            {
              "internalType": "string",
              "name": "x",
              "type": "string"
            },
            {
              "internalType": "string",
              "name": "y",
              "type": "string"
            },
            {
              "internalType": "string",
              "name": "z",
              "type": "string"
            },
            {
              "internalType": "uint256",
              "name": "t",
              "type": "uint256"
            },
            {
              "internalType": "uint256",
              "name": "p",
              "type": "uint256"
            },
            {
              "internalType": "uint256",
              "name": "p_sub",
              "type": "uint256"
            }
          ],
          "internalType": "struct VectorAddress",
          "name": "",
          "type": "tuple"
        }
      ],
      "stateMutability": "view",
      "type": "function"
    },
    {
      "inputs": [],
      "name": "version",
      "outputs": [
        {
          "components": [
            {
              "internalType": "uint16",
              "name": "major",
              "type": "uint16"
            },
            {
              "internalType": "uint16",
              "name": "minor",
              "type": "uint16"
            }
          ],
          "internalType": "struct Version",
          "name": "",
          "type": "tuple"
        }
      ],
      "stateMutability": "pure",
      "type": "function"
    },
    {
      "inputs": [
        {
          "internalType": "uint256",
          "name": "amount",
          "type": "uint256"
        }
      ],
      "name": "withdraw",
      "outputs": [],
      "stateMutability": "nonpayable",
      "type": "function"
    },
    {
      "inputs": [],
      "name": "world",
      "outputs": [
        {
          "internalType": "address",
          "name": "",
          "type": "address"
        }
      ],
      "stateMutability": "view",
      "type": "function"
    },
    {
      "stateMutability": "payable",
      "type": "receive"
    }
  ],
  "bytecode": "0x60e06040523480156200001157600080fd5b50604051620033eb380380620033eb8339810160408190526200003491620001bd565b600160005580516001600160a01b0316620000a25760405162461bcd60e51b8152602060048201526024808201527f457870657269656e63653a20496e76616c696420636f6d70616e7920726567696044820152637374727960e01b60648201526084015b60405180910390fd5b60208101516001600160a01b03166200010e5760405162461bcd60e51b815260206004820152602760248201527f457870657269656e63653a20496e76616c696420657870657269656e636520726044820152666567697374727960c81b606482015260840162000099565b60408101516001600160a01b0316620001765760405162461bcd60e51b815260206004820152602360248201527f457870657269656e63653a20496e76616c696420706f7274616c20726567697360448201526274727960e81b606482015260840162000099565b80516001600160a01b039081166080526020820151811660a0526040909101511660c0526200023e565b80516001600160a01b0381168114620001b857600080fd5b919050565b600060608284031215620001d057600080fd5b604051606081016001600160401b03811182821017156200020157634e487b7160e01b600052604160045260246000fd5b6040526200020f83620001a0565b81526200021f60208401620001a0565b60208201526200023260408401620001a0565b60408201529392505050565b60805160a05160c0516130f8620002f360003960008181610617015281816109db0152818161102c015281816110ae015281816114000152818161154a015281816119d201528181611afc01528181611c630152611f2c0152600081816105a30152818161091c0152818161099401528181611331015281816115f101528181611ab501528181611edd0152818161207e015281816123da0152818161247b015261259a0152600061064b01526130f86000f3fe60806040526004361061021e5760003560e01c80636fdfe1b6116101235780638f09a6be116100ab578063d18611d61161006f578063d18611d61461066d578063d547741f14610682578063e20eea0f146106a2578063e8906a2d146106c2578063f2aca27d146106e257600080fd5b80638f09a6be1461059157806391d14854146105c5578063a6f9dae1146105e5578063b666493414610605578063c51aba2b1461063957600080fd5b806380599e4b116100f257806380599e4b1461050757806383c342631461052757806386b70bed146105475780638d361e431461055c5780638da5cb5b1461057c57600080fd5b80636fdfe1b61461049d5780637d692cad146104bd5780637df73e27146104d25780637e6e1551146104f257600080fd5b806330b67baa116101a657806357976f311161017557806357976f311461043e57806358779dcf146104535780636904c94d1461046857806369bd91941461046857806369c9632a1461047d57600080fd5b806330b67baa1461036157806331468a841461038e57806354cc5a0b146103de57806354fd4d50146103f157600080fd5b806325394645116101ed57806325394645146102bd57806327ee999d146102df5780632e1a7d4d146102ff5780632f2ff15d1461031f5780632fcbab9a1461033f57600080fd5b806306fdde031461022a578063072ea61c146102555780631864a47c1461027857806324d7806c1461028d57600080fd5b3661022557005b600080fd5b34801561023657600080fd5b5061023f610702565b60405161024c91906126c9565b60405180910390f35b34801561026157600080fd5b5061026a61079a565b60405190815260200161024c565b34801561028457600080fd5b5061023f6107aa565b34801561029957600080fd5b506102ad6102a83660046126f1565b6107c2565b604051901515815260200161024c565b3480156102c957600080fd5b506102dd6102d8366004612756565b610848565b005b3480156102eb57600080fd5b506102dd6102fa366004612756565b610989565b34801561030b57600080fd5b506102dd61031a366004612797565b610a7e565b34801561032b57600080fd5b506102dd61033a3660046127b0565b610baf565b34801561034b57600080fd5b50610354610cad565b60405161024c91906127e0565b34801561036d57600080fd5b50610376610ed5565b6040516001600160a01b03909116815260200161024c565b34801561039a57600080fd5b506103ae6103a93660046126f1565b610f5c565b6040805182516001600160a01b03908116825260208085015190911690820152918101519082015260600161024c565b61023f6103ec366004612915565b6110a1565b3480156103fd57600080fd5b50604080518082018252600080825260209182018190528251808401845260018082529083019182528351908152905161ffff16918101919091520161024c565b34801561044a57600080fd5b5061026a61131c565b34801561045f57600080fd5b506102dd61148c565b34801561047457600080fd5b506103766115c7565b34801561048957600080fd5b506102dd610498366004612a03565b6115e6565b3480156104a957600080fd5b506102dd6104b83660046126f1565b6118a1565b3480156104c957600080fd5b5061026a611a3c565b3480156104de57600080fd5b506102ad6104ed3660046126f1565b611a4f565b3480156104fe57600080fd5b506102ad611a92565b34801561051357600080fd5b506102dd610522366004612756565b611aaa565b34801561053357600080fd5b506102dd610542366004612797565b611b91565b34801561055357600080fd5b506102ad611c9a565b34801561056857600080fd5b506102dd610577366004612b5e565b611cad565b34801561058857600080fd5b50610376611d75565b34801561059d57600080fd5b506103767f000000000000000000000000000000000000000000000000000000000000000081565b3480156105d157600080fd5b506102ad6105e03660046127b0565b611d7f565b3480156105f157600080fd5b506102dd6106003660046126f1565b611e0c565b34801561061157600080fd5b506103767f000000000000000000000000000000000000000000000000000000000000000081565b34801561064557600080fd5b506103767f000000000000000000000000000000000000000000000000000000000000000081565b34801561067957600080fd5b506102dd611ed2565b34801561068e57600080fd5b506102dd61069d3660046127b0565b611f9d565b3480156106ae57600080fd5b506102dd6106bd366004612756565b612073565b3480156106ce57600080fd5b506102dd6106dd366004612b5e565b6120bb565b3480156106ee57600080fd5b506102dd6106fd366004612bd2565b612183565b606061070c61224e565b805461071790612c0e565b80601f016020809104026020016040519081016040528092919081815260200182805461074390612c0e565b80156107905780601f1061076557610100808354040283529160200191610790565b820191906000526020600020905b81548152906001019060200180831161077357829003601f168201915b5050505050905090565b60006107a46122db565b54919050565b60606107b46122db565b600201805461071790612c0e565b604051630935e01b60e21b81526001600160a01b038216600482015260009073__$a5a42e46683ad9c79b7b86d5ff60fdf4c1$__906324d7806c906024015b602060405180830381865af415801561081e573d6000803e3d6000fd5b505050506040513d601f19601f820116820180604052508101906108429190612c48565b92915050565b33610851612340565b546201000090046001600160a01b0316146108875760405162461bcd60e51b815260040161087e90612c6a565b60405180910390fd5b336001600160a01b03166386b70bed6040518163ffffffff1660e01b8152600401602060405180830381865afa1580156108c5573d6000803e3d6000fd5b505050506040513d601f19601f820116820180604052508101906108e99190612c48565b6109055760405162461bcd60e51b815260040161087e90612cab565b60405163c625e0ad60e01b81526001600160a01b037f0000000000000000000000000000000000000000000000000000000000000000169063c625e0ad906109539085908590600401612d15565b600060405180830381600087803b15801561096d57600080fd5b505af1158015610981573d6000803e3d6000fd5b505050505050565b336001600160a01b037f000000000000000000000000000000000000000000000000000000000000000016146109d15760405162461bcd60e51b815260040161087e90612d29565b6109d96123a5565b7f00000000000000000000000000000000000000000000000000000000000000006001600160a01b031663aed784e3610a106122db565b6001015484846040518463ffffffff1660e01b8152600401610a3493929190612d6e565b600060405180830381600087803b158015610a4e57600080fd5b505af1158015610a62573d6000803e3d6000fd5b50505050610a7082826123cf565b610a7a6001600055565b5050565b33610a87612340565b546201000090046001600160a01b031614610ab45760405162461bcd60e51b815260040161087e90612c6a565b336001600160a01b03166386b70bed6040518163ffffffff1660e01b8152600401602060405180830381865afa158015610af2573d6000803e3d6000fd5b505050506040513d601f19601f82011682018060405250810190610b169190612c48565b610b325760405162461bcd60e51b815260040161087e90612cab565b47811115610b825760405162461bcd60e51b815260206004820181905260248201527f457870657269656e63653a20496e73756666696369656e742062616c616e6365604482015260640161087e565b604051339082156108fc029083906000818181858888f19350505050158015610a7a573d6000803e3d6000fd5b604051630935e01b60e21b815233600482015273__$a5a42e46683ad9c79b7b86d5ff60fdf4c1$__906324d7806c90602401602060405180830381865af4158015610bfe573d6000803e3d6000fd5b505050506040513d601f19601f82011682018060405250810190610c229190612c48565b610c3e5760405162461bcd60e51b815260040161087e90612d91565b604051632f2ff15d60e01b8152600481018390526001600160a01b038216602482015273__$a5a42e46683ad9c79b7b86d5ff60fdf4c1$__90632f2ff15d906044015b60006040518083038186803b158015610c9957600080fd5b505af4158015610981573d6000803e3d6000fd5b610ce66040518060c001604052806060815260200160608152602001606081526020016000815260200160008152602001600081525090565b610cee612340565b6001016040518060c0016040529081600082018054610d0c90612c0e565b80601f0160208091040260200160405190810160405280929190818152602001828054610d3890612c0e565b8015610d855780601f10610d5a57610100808354040283529160200191610d85565b820191906000526020600020905b815481529060010190602001808311610d6857829003601f168201915b50505050508152602001600182018054610d9e90612c0e565b80601f0160208091040260200160405190810160405280929190818152602001828054610dca90612c0e565b8015610e175780601f10610dec57610100808354040283529160200191610e17565b820191906000526020600020905b815481529060010190602001808311610dfa57829003601f168201915b50505050508152602001600282018054610e3090612c0e565b80601f0160208091040260200160405190810160405280929190818152602001828054610e5c90612c0e565b8015610ea95780601f10610e7e57610100808354040283529160200191610ea9565b820191906000526020600020905b815481529060010190602001808311610e8c57829003601f168201915b505050505081526020016003820154815260200160048201548152602001600582015481525050905090565b6000610edf612340565b60000160029054906101000a90046001600160a01b03166001600160a01b03166330b67baa6040518163ffffffff1660e01b8152600401602060405180830381865afa158015610f33573d6000803e3d6000fd5b505050506040513d601f19601f82011682018060405250810190610f579190612dc6565b905090565b60408051606081018252600080825260208201819052918101919091526040518060600160405280610f8c6115c7565b6001600160a01b03168152602001610fa26115c7565b6001600160a01b03166330b67baa6040518163ffffffff1660e01b8152600401602060405180830381865afa158015610fdf573d6000803e3d6000fd5b505050506040513d601f19601f820116820180604052508101906110039190612dc6565b6001600160a01b039081168252604051627633d160e71b815285821660048201526020909201917f000000000000000000000000000000000000000000000000000000000000000090911690633b19e88090602401602060405180830381865afa158015611075573d6000803e3d6000fd5b505050506040513d601f19601f820116820180604052508101906110999190612de3565b905292915050565b6060336001600160a01b037f0000000000000000000000000000000000000000000000000000000000000000161461112d5760405162461bcd60e51b815260206004820152602960248201527f457870657269656e63653a204f6e6c7920706f7274616c2072656769737472796044820152680818d85b8818d85b1b60ba1b606482015260840161087e565b6111356123a5565b600061113f6122db565b9050611149612340565b60000160029054906101000a90046001600160a01b03166001600160a01b03166386b70bed6040518163ffffffff1660e01b8152600401602060405180830381865afa15801561119d573d6000803e3d6000fd5b505050506040513d601f19601f820116820180604052508101906111c19190612c48565b6111dd5760405162461bcd60e51b815260040161087e90612cab565b80541561127d57805434146112345760405162461bcd60e51b815260206004820152601f60248201527f457870657269656e63653a20696e636f727265637420656e7472792066656500604482015260640161087e565b61123c612340565b546040516001600160a01b036201000090920491909116903480156108fc02916000818181858888f1935050505015801561127b573d6000803e3d6000fd5b505b80600201805461128c90612c0e565b80601f01602080910402602001604051908101604052809291908181526020018280546112b890612c0e565b80156113055780601f106112da57610100808354040283529160200191611305565b820191906000526020600020905b8154815290600101906020018083116112e857829003601f168201915b50505050509150506113176001600055565b919050565b60006113266123a5565b336001600160a01b037f0000000000000000000000000000000000000000000000000000000000000000161461136e5760405162461bcd60e51b815260040161087e90612d29565b60006113786122db565b905080600101546000146113dd5760405162461bcd60e51b815260206004820152602660248201527f457870657269656e63653a20506f7274616c20616c726561647920696e697469604482015265185b1a5e995960d21b606482015260840161087e565b604080516020810182528254815290516303a49da960e01b8152905160048201527f00000000000000000000000000000000000000000000000000000000000000006001600160a01b0316906303a49da9906024016020604051808303816000875af1158015611451573d6000803e3d6000fd5b505050506040513d601f19601f820116820180604052508101906114759190612de3565b600190910181905590506114896001600055565b90565b33611495612340565b546201000090046001600160a01b0316146114c25760405162461bcd60e51b815260040161087e90612c6a565b336001600160a01b03166386b70bed6040518163ffffffff1660e01b8152600401602060405180830381865afa158015611500573d6000803e3d6000fd5b505050506040513d601f19601f820116820180604052508101906115249190612c48565b6115405760405162461bcd60e51b815260040161087e90612cab565b6115486123a5565b7f00000000000000000000000000000000000000000000000000000000000000006001600160a01b031663021665b76040518163ffffffff1660e01b8152600401600060405180830381600087803b1580156115a357600080fd5b505af11580156115b7573d6000803e3d6000fd5b505050506115c56001600055565b565b60006115d1612340565b546201000090046001600160a01b0316919050565b336001600160a01b037f0000000000000000000000000000000000000000000000000000000000000000161461162e5760405162461bcd60e51b815260040161087e90612d29565b80515161167d5760405162461bcd60e51b815260206004820152601860248201527f457870657269656e63653a20496e76616c6964206e616d650000000000000000604482015260640161087e565b60208101516001600160a01b03166116d75760405162461bcd60e51b815260206004820152601b60248201527f457870657269656e63653a20496e76616c696420636f6d70616e790000000000604482015260640161087e565b60006116e1612340565b80549091506201000090046001600160a01b0316156117425760405162461bcd60e51b815260206004820152601f60248201527f457870657269656e63653a20416c726561647920696e697469616c697a656400604482015260640161087e565b60408083015190516361d9624d60e01b815273__$ad2b23306edd42b5f4873830e307b82d47$__916361d9624d9161178291906001908190600401612dfc565b60006040518083038186803b15801561179a57600080fd5b505af41580156117ae573d6000803e3d6000fd5b5050505081600001516117bf61224e565b906117ca9082612ee0565b50805460208301516001600160a01b0316620100000261ff01600160b01b03199091161760019081178255604083015180519091830190819061180d9082612ee0565b50602082015160018201906118229082612ee0565b50604082015160028201906118379082612ee0565b50606082015181600301556080820151816004015560a08201518160050155905050600082606001518060200190518101906118739190612f9f565b9050600061187f6122db565b825181556020830151909150600282019061189a9082612ee0565b5050505050565b336118aa612340565b546201000090046001600160a01b0316146118d75760405162461bcd60e51b815260040161087e90612c6a565b336001600160a01b03166386b70bed6040518163ffffffff1660e01b8152600401602060405180830381865afa158015611915573d6000803e3d6000fd5b505050506040513d601f19601f820116820180604052508101906119399190612c48565b6119555760405162461bcd60e51b815260040161087e90612cab565b61195d6123a5565b6001600160a01b0381166119b35760405162461bcd60e51b815260206004820152601d60248201527f457870657269656e63653a20496e76616c696420636f6e646974696f6e000000604482015260640161087e565b604051631169a49960e11b81526001600160a01b0382811660048301527f000000000000000000000000000000000000000000000000000000000000000016906322d34932906024015b600060405180830381600087803b158015611a1757600080fd5b505af1158015611a2b573d6000803e3d6000fd5b50505050611a396001600055565b50565b6000611a466122db565b60010154905090565b604051637df73e2760e01b81526001600160a01b038216600482015260009073__$a5a42e46683ad9c79b7b86d5ff60fdf4c1$__90637df73e2790602401610801565b6000611a9c612340565b54610100900460ff16919050565b336001600160a01b037f00000000000000000000000000000000000000000000000000000000000000001614611af25760405162461bcd60e51b815260040161087e90612d29565b611afa6123a5565b7f00000000000000000000000000000000000000000000000000000000000000006001600160a01b0316635e958a11611b316122db565b6001015484846040518463ffffffff1660e01b8152600401611b5593929190612d6e565b600060405180830381600087803b158015611b6f57600080fd5b505af1158015611b83573d6000803e3d6000fd5b50505050610a708282612470565b33611b9a612340565b546201000090046001600160a01b031614611bc75760405162461bcd60e51b815260040161087e90612c6a565b336001600160a01b03166386b70bed6040518163ffffffff1660e01b8152600401602060405180830381865afa158015611c05573d6000803e3d6000fd5b505050506040513d601f19601f82011682018060405250810190611c299190612c48565b611c455760405162461bcd60e51b815260040161087e90612cab565b611c4d6123a5565b6040516383c3426360e01b8152600481018290527f00000000000000000000000000000000000000000000000000000000000000006001600160a01b0316906383c34263906024016119fd565b6000611ca4612340565b5460ff16919050565b604051630935e01b60e21b815233600482015273__$a5a42e46683ad9c79b7b86d5ff60fdf4c1$__906324d7806c90602401602060405180830381865af4158015611cfc573d6000803e3d6000fd5b505050506040513d601f19601f82011682018060405250810190611d209190612c48565b611d3c5760405162461bcd60e51b815260040161087e90612d91565b604051638d361e4360e01b815273__$a5a42e46683ad9c79b7b86d5ff60fdf4c1$__90638d361e4390610c819085908590600401613053565b6000610f57612574565b604051632474521560e21b8152600481018390526001600160a01b038216602482015260009073__$a5a42e46683ad9c79b7b86d5ff60fdf4c1$__906391d1485490604401602060405180830381865af4158015611de1573d6000803e3d6000fd5b505050506040513d601f19601f82011682018060405250810190611e059190612c48565b9392505050565b33611e15612574565b6001600160a01b031614611e6b5760405162461bcd60e51b815260206004820152601f60248201527f426173654163636573733a207265737472696374656420746f206f776e657200604482015260640161087e565b6040516313af403560e01b81526001600160a01b038216600482015273__$a5a42e46683ad9c79b7b86d5ff60fdf4c1$__906313af40359060240160006040518083038186803b158015611ebe57600080fd5b505af415801561189a573d6000803e3d6000fd5b336001600160a01b037f00000000000000000000000000000000000000000000000000000000000000001614611f1a5760405162461bcd60e51b815260040161087e90612d29565b611f226123a5565b611f2a61258f565b7f00000000000000000000000000000000000000000000000000000000000000006001600160a01b031663c0e2e80c611f616122db565b600101546040518263ffffffff1660e01b8152600401611f8391815260200190565b600060405180830381600087803b1580156115a357600080fd5b604051630935e01b60e21b815233600482015273__$a5a42e46683ad9c79b7b86d5ff60fdf4c1$__906324d7806c90602401602060405180830381865af4158015611fec573d6000803e3d6000fd5b505050506040513d601f19601f820116820180604052508101906120109190612c48565b61202c5760405162461bcd60e51b815260040161087e90612d91565b60405163d547741f60e01b8152600481018390526001600160a01b038216602482015273__$a5a42e46683ad9c79b7b86d5ff60fdf4c1$__9063d547741f90604401610c81565b336001600160a01b037f00000000000000000000000000000000000000000000000000000000000000001614610a7a5760405162461bcd60e51b815260040161087e90612d29565b604051630935e01b60e21b815233600482015273__$a5a42e46683ad9c79b7b86d5ff60fdf4c1$__906324d7806c90602401602060405180830381865af415801561210a573d6000803e3d6000fd5b505050506040513d601f19601f8201168201806040525081019061212e9190612c48565b61214a5760405162461bcd60e51b815260040161087e90612d91565b60405163e8906a2d60e01b815273__$a5a42e46683ad9c79b7b86d5ff60fdf4c1$__9063e8906a2d90610c819085908590600401613053565b3361218c612340565b546201000090046001600160a01b0316146121b95760405162461bcd60e51b815260040161087e90612c6a565b336001600160a01b03166386b70bed6040518163ffffffff1660e01b8152600401602060405180830381865afa1580156121f7573d6000803e3d6000fd5b505050506040513d601f19601f8201168201806040525081019061221b9190612c48565b6122375760405162461bcd60e51b815260040161087e90612cab565b806122406122db565b60020190610a7a9082612ee0565b60408051808201909152601481527378722e656e746974792e73746f726167652e763160601b60209091015260008060ff6122aa60017fdefc82a28b6578c2a63b29b15450260a5e998242a6300b7fcb30814ee74ae1886130a1565b6040516020016122bc91815260200190565b60408051601f1981840301815291905280516020909101201692915050565b60408051808201909152601881527f78722e657870657269656e63652e73746f726167652e7631000000000000000060209091015260008060ff6122aa60017fa13db16759b7af0e556c9648625a58e6d20b5ce76e5139c1b3ce33248c0a88526130a1565b60408051808201909152601881527f78722e61637469766174696f6e2e73746f726167652e7631000000000000000060209091015260008060ff6122aa60017ff6611e962a52dbc98dd0485088d920890c43e26113c61976f6e171a29d49ce496130a1565b6002600054036123c857604051633ee5aeb560e01b815260040160405180910390fd5b6002600055565b336001600160a01b037f000000000000000000000000000000000000000000000000000000000000000016146124175760405162461bcd60e51b815260040161087e90612d29565b6000612421612340565b805460ff191691151591909117905560405133907f246589c99dd263c9b64a2b544e24074c282ca479ba3d2a0e649f9eeaca1e2d62906124649085908590612d15565b60405180910390a25050565b336001600160a01b037f000000000000000000000000000000000000000000000000000000000000000016146124b85760405162461bcd60e51b815260040161087e90612d29565b6124c0612340565b5460ff16156125205760405162461bcd60e51b815260206004820152602660248201527f52656d6f7661626c65456e746974793a206d757374206465616374697661746560448201526508199a5c9cdd60d21b606482015260840161087e565b600161252a612340565b80549115156101000261ff001990921691909117905560405133907fbf430175840309fcb4cce13557429998477f9f95733cb0d42c170af8aa225d06906124649085908590612d15565b60008061257f61261d565b546001600160a01b031692915050565b336001600160a01b037f000000000000000000000000000000000000000000000000000000000000000016146125d75760405162461bcd60e51b815260040161087e90612d29565b60016125e1612340565b805460ff191691151591909117905560405133907f54ca6a4cb143be493713a7079cc0d6cdbbf0688ee68398b4354b056088f2cbf590600090a2565b60408051808201909152601481527378722e6163636573732e73746f726167652e763160601b60209091015260008060ff6122aa60017fd870894b15ee1369a593f3670ac51c4ed8201dab473944ee712694d327dd58756130a1565b60005b8381101561269457818101518382015260200161267c565b50506000910152565b600081518084526126b5816020860160208601612679565b601f01601f19169290920160200192915050565b602081526000611e05602083018461269d565b6001600160a01b0381168114611a3957600080fd5b60006020828403121561270357600080fd5b8135611e05816126dc565b60008083601f84011261272057600080fd5b5081356001600160401b0381111561273757600080fd5b60208301915083602082850101111561274f57600080fd5b9250929050565b6000806020838503121561276957600080fd5b82356001600160401b0381111561277f57600080fd5b61278b8582860161270e565b90969095509350505050565b6000602082840312156127a957600080fd5b5035919050565b600080604083850312156127c357600080fd5b8235915060208301356127d5816126dc565b809150509250929050565b602081526000825160c060208401526127fc60e084018261269d565b90506020840151601f198085840301604086015261281a838361269d565b9250604086015191508085840301606086015250612838828261269d565b91505060608401516080840152608084015160a084015260a084015160c08401528091505092915050565b634e487b7160e01b600052604160045260246000fd5b604051608081016001600160401b038111828210171561289b5761289b612863565b60405290565b60405160c081016001600160401b038111828210171561289b5761289b612863565b604080519081016001600160401b038111828210171561289b5761289b612863565b604051601f8201601f191681016001600160401b038111828210171561290d5761290d612863565b604052919050565b60006060828403121561292757600080fd5b604051606081018181106001600160401b038211171561294957612949612863565b6040528235612957816126dc565b81526020830135612967816126dc565b6020820152604083013561297a816126dc565b60408201529392505050565b60006001600160401b0382111561299f5761299f612863565b50601f01601f191660200190565b600082601f8301126129be57600080fd5b81356129d16129cc82612986565b6128e5565b8181528460208386010111156129e657600080fd5b816020850160208301376000918101602001919091529392505050565b600060208284031215612a1557600080fd5b81356001600160401b0380821115612a2c57600080fd5b9083019060808286031215612a4057600080fd5b612a48612879565b823582811115612a5757600080fd5b612a63878286016129ad565b8252506020830135612a74816126dc565b6020820152604083013582811115612a8b57600080fd5b830160c08188031215612a9d57600080fd5b612aa56128a1565b813584811115612ab457600080fd5b612ac0898285016129ad565b825250602082013584811115612ad557600080fd5b612ae1898285016129ad565b602083015250604082013584811115612af957600080fd5b612b05898285016129ad565b604083015250606082013560608201526080820135608082015260a082013560a08201528060408401525050606083013582811115612b4357600080fd5b612b4f878286016129ad565b60608301525095945050505050565b60008060208385031215612b7157600080fd5b82356001600160401b0380821115612b8857600080fd5b818501915085601f830112612b9c57600080fd5b813581811115612bab57600080fd5b8660208260051b8501011115612bc057600080fd5b60209290920196919550909350505050565b600060208284031215612be457600080fd5b81356001600160401b03811115612bfa57600080fd5b612c06848285016129ad565b949350505050565b600181811c90821680612c2257607f821691505b602082108103612c4257634e487b7160e01b600052602260045260246000fd5b50919050565b600060208284031215612c5a57600080fd5b81518015158114611e0557600080fd5b60208082526021908201527f457870657269656e63653a204f6e6c7920636f6d70616e792063616e2063616c6040820152601b60fa1b606082015260800190565b60208082526021908201527f457870657269656e63653a20436f6d70616e79206973206e6f742061637469766040820152606560f81b606082015260800190565b81835281816020850137506000828201602090810191909152601f909101601f19169091010190565b602081526000612c06602083018486612cec565b60208082526025908201527f52656d6f7661626c65456e746974793a206f6e6c79206f776e696e6720726567604082015264697374727960d81b606082015260800190565b838152604060208201526000612d88604083018486612cec565b95945050505050565b6020808252818101527f426173654163636573733a207265737472696374656420746f2061646d696e73604082015260600190565b600060208284031215612dd857600080fd5b8151611e05816126dc565b600060208284031215612df557600080fd5b5051919050565b606081526000845160c06060840152612e1961012084018261269d565b90506020860151605f1980858403016080860152612e37838361269d565b925060408801519150808584030160a086015250612e55828261269d565b606088015160c0860152608088015160e086015260a088015161010086015286151560208601529250612e86915050565b8215156040830152612c06565b601f821115612edb576000816000526020600020601f850160051c81016020861015612ebc5750805b601f850160051c820191505b8181101561098157828155600101612ec8565b505050565b81516001600160401b03811115612ef957612ef9612863565b612f0d81612f078454612c0e565b84612e93565b602080601f831160018114612f425760008415612f2a5750858301515b600019600386901b1c1916600185901b178555610981565b600085815260208120601f198616915b82811015612f7157888601518255948401946001909101908401612f52565b5085821015612f8f5787850151600019600388901b60f8161c191681555b5050505050600190811b01905550565b60006020808385031215612fb257600080fd5b82516001600160401b0380821115612fc957600080fd5b9084019060408287031215612fdd57600080fd5b612fe56128c3565b825181528383015182811115612ffa57600080fd5b80840193505086601f84011261300f57600080fd5b8251915061301f6129cc83612986565b828152878584860101111561303357600080fd5b61304283868301878701612679565b938101939093525090949350505050565b60208082528181018390526000908460408401835b8681101561309657823561307b816126dc565b6001600160a01b031682529183019190830190600101613068565b509695505050505050565b8181038181111561084257634e487b7160e01b600052601160045260246000fdfea2646970667358221220518886a32176dc96183c4364d35fbe7467be25b285f50be19e16eb17aaee3e0b64736f6c63430008180033",
  "linkReferences": {
    "contracts/libraries/LibAccess.sol": {
      "LibAccess": [
        {
          "length": 20,
          "start": 2774
        },
        {
          "length": 20,
          "start": 3767
        },
        {
          "length": 20,
          "start": 3926
        },
        {
          "length": 20,
          "start": 7523
        },
        {
          "length": 20,
          "start": 8117
        },
        {
          "length": 20,
          "start": 8254
        },
        {
          "length": 20,
          "start": 8346
        },
        {
          "length": 20,
          "start": 8572
        },
        {
          "length": 20,
          "start": 8869
        },
        {
          "length": 20,
          "start": 9028
        },
        {
          "length": 20,
          "start": 9155
        },
        {
          "length": 20,
          "start": 9292
        }
      ]
    },
    "contracts/libraries/LibVectorAddress.sol": {
      "LibVectorAddress": [
        {
          "length": 20,
          "start": 6729
        }
      ]
    }
  },
  "deployedLinkReferences": {
    "contracts/libraries/LibAccess.sol": {
      "LibAccess": [
        {
          "length": 20,
          "start": 2019
        },
        {
          "length": 20,
          "start": 3012
        },
        {
          "length": 20,
          "start": 3171
        },
        {
          "length": 20,
          "start": 6768
        },
        {
          "length": 20,
          "start": 7362
        },
        {
          "length": 20,
          "start": 7499
        },
        {
          "length": 20,
          "start": 7591
        },
        {
          "length": 20,
          "start": 7817
        },
        {
          "length": 20,
          "start": 8114
        },
        {
          "length": 20,
          "start": 8273
        },
        {
          "length": 20,
          "start": 8400
        },
        {
          "length": 20,
          "start": 8537
        }
      ]
    },
    "contracts/libraries/LibVectorAddress.sol": {
      "LibVectorAddress": [
        {
          "length": 20,
          "start": 5974
        }
      ]
    }
  }
}