{
  "_format": "hh-sol-artifact-1",
  "contractName": "ExperienceProxy",
  "sourceName": "contracts/experience/ExperienceProxy.sol",
  "abi": [
    {
      "inputs": [
        {
          "components": [
            {
              "internalType": "address",
              "name": "factory",
              "type": "address"
            },
            {
              "internalType": "address",
              "name": "registry",
              "type": "address"
            }
          ],
          "internalType": "struct BaseProxyConstructorArgs",
          "name": "args",
          "type": "tuple"
        }
      ],
      "stateMutability": "nonpayable",
      "type": "constructor"
    },
    {
      "anonymous": false,
      "inputs": [
        {
          "indexed": true,
          "internalType": "address",
          "name": "implementation",
          "type": "address"
        }
      ],
      "name": "ImplementationChanged",
      "type": "event"
    },
    {
      "anonymous": false,
      "inputs": [
        {
          "indexed": true,
          "internalType": "address",
          "name": "sender",
          "type": "address"
        },
        {
          "indexed": false,
          "internalType": "uint256",
          "name": "value",
          "type": "uint256"
        }
      ],
      "name": "ReceivedFunds",
      "type": "event"
    },
    {
      "anonymous": false,
      "inputs": [
        {
          "indexed": true,
          "internalType": "address",
          "name": "signer",
          "type": "address"
        }
      ],
      "name": "SignerAdded",
      "type": "event"
    },
    {
      "anonymous": false,
      "inputs": [
        {
          "indexed": true,
          "internalType": "address",
          "name": "signer",
          "type": "address"
        }
      ],
      "name": "SignerRemoved",
      "type": "event"
    },
    {
      "stateMutability": "payable",
      "type": "fallback"
    },
    {
      "inputs": [
        {
          "internalType": "address[]",
          "name": "signers",
          "type": "address[]"
        }
      ],
      "name": "addSigners",
      "outputs": [],
      "stateMutability": "nonpayable",
      "type": "function"
    },
    {
      "inputs": [],
      "name": "factory",
      "outputs": [
        {
          "internalType": "address",
          "name": "",
          "type": "address"
        }
      ],
      "stateMutability": "view",
      "type": "function"
    },
    {
      "inputs": [],
      "name": "getImplementation",
      "outputs": [
        {
          "internalType": "address",
          "name": "",
          "type": "address"
        }
      ],
      "stateMutability": "view",
      "type": "function"
    },
    {
      "inputs": [
        {
          "internalType": "address",
          "name": "_implementation",
          "type": "address"
        }
      ],
      "name": "initProxy",
      "outputs": [],
      "stateMutability": "nonpayable",
      "type": "function"
    },
    {
      "inputs": [
        {
          "internalType": "address",
          "name": "signer",
          "type": "address"
        }
      ],
      "name": "isSigner",
      "outputs": [
        {
          "internalType": "bool",
          "name": "",
          "type": "bool"
        }
      ],
      "stateMutability": "view",
      "type": "function"
    },
    {
      "inputs": [],
      "name": "registry",
      "outputs": [
        {
          "internalType": "address",
          "name": "",
          "type": "address"
        }
      ],
      "stateMutability": "view",
      "type": "function"
    },
    {
      "inputs": [
        {
          "internalType": "address[]",
          "name": "signers",
          "type": "address[]"
        }
      ],
      "name": "removeSigners",
      "outputs": [],
      "stateMutability": "nonpayable",
      "type": "function"
    },
    {
      "stateMutability": "payable",
      "type": "receive"
    }
  ],
  "bytecode": "0x60c060405234801561001057600080fd5b50604051610ad1380380610ad183398101604081905261002f9161013a565b805181906001600160a01b03166100985760405162461bcd60e51b815260206004820152602260248201527f4261736550726f78793a20666163746f7279206973207a65726f206164647265604482015261737360f01b60648201526084015b60405180910390fd5b60208101516001600160a01b03166100fe5760405162461bcd60e51b815260206004820152602360248201527f4261736550726f78793a207265676973747279206973207a65726f206164647260448201526265737360e81b606482015260840161008f565b80516001600160a01b039081166080526020909101511660a052506101a2565b80516001600160a01b038116811461013557600080fd5b919050565b60006040828403121561014c57600080fd5b604080519081016001600160401b038111828210171561017c57634e487b7160e01b600052604160045260246000fd5b6040526101888361011e565b81526101966020840161011e565b60208201529392505050565b60805160a0516109036101ce600039600061016001526000818161024c015261034101526109036000f3fe6080604052600436106100745760003560e01c80639c0200611161004e5780639c020061146101ef578063aaf10f421461020f578063c45a01551461023a578063e8906a2d1461026e576100b0565b80637b1039991461014e5780637df73e271461019f5780638d361e43146101cf576100b0565b366100b05760405134815233907f5741979df5f3e491501da74d3b0a83dd2496ab1f34929865b3e190a8ad75859a9060200160405180910390a2005b6000805160206108ae83398151915280546001600160a01b0316806101275760405162461bcd60e51b815260206004820152602260248201527f576f726c6450726f78793a20696d706c656d656e746174696f6e206e6f742073604482015261195d60f21b60648201526084015b60405180910390fd5b60405136600082376000803683855af43d806000843e818015610148578184f35b8184fd5b005b34801561015a57600080fd5b506101827f000000000000000000000000000000000000000000000000000000000000000081565b6040516001600160a01b0390911681526020015b60405180910390f35b3480156101ab57600080fd5b506101bf6101ba3660046107ae565b61028e565b6040519015158152602001610196565b3480156101db57600080fd5b5061014c6101ea3660046107d7565b6102d1565b3480156101fb57600080fd5b5061014c61020a3660046107ae565b610336565b34801561021b57600080fd5b506000805160206108ae833981519152546001600160a01b0316610182565b34801561024657600080fd5b506101827f000000000000000000000000000000000000000000000000000000000000000081565b34801561027a57600080fd5b5061014c6102893660046107d7565b61049e565b60006000805160206108ae8339815191526102ca817fe2f4eaae4a9751e85a3e4a7b9587827a877f29914755229b07a7b2da98285f70856104fe565b9392505050565b6000805160206108ae83398151915261030b817fa49807205ce4d355092ef5a8a18f56e8913cf4a201fbe287825b095693c21775336104fe565b6103275760405162461bcd60e51b815260040161011e9061084c565b610331838361052b565b505050565b336001600160a01b037f000000000000000000000000000000000000000000000000000000000000000016146103ae5760405162461bcd60e51b815260206004820181905260248201527f4261736550726f78793a2063616c6c6572206973206e6f7420666163746f7279604482015260640161011e565b6001600160a01b0381166104175760405162461bcd60e51b815260206004820152602a60248201527f576f726c6450726f78793a20696d706c656d656e746174696f6e206973207a65604482015269726f206164647265737360b01b606482015260840161011e565b6000805160206108ae83398151915280546001600160a01b03161561047e5760405162461bcd60e51b815260206004820152601f60248201527f576f726c6450726f78793a20616c726561647920696e697469616c697a656400604482015260640161011e565b80546001600160a01b0319166001600160a01b0392909216919091179055565b6000805160206108ae8339815191526104d8817fa49807205ce4d355092ef5a8a18f56e8913cf4a201fbe287825b095693c21775336104fe565b6104f45760405162461bcd60e51b815260040161011e9061084c565b6103318383610629565b6000918252600192909201602090815260408083206001600160a01b039094168352929052205460ff1690565b6000805160206108ae83398151915260005b82811015610623576105bf7fe2f4eaae4a9751e85a3e4a7b9587827a877f29914755229b07a7b2da98285f7085858481811061057b5761057b610897565b905060200201602081019061059091906107ae565b600091825260018501602090815260408084206001600160a01b0390931684529190529020805460ff19169055565b8383828181106105d1576105d1610897565b90506020020160208101906105e691906107ae565b6001600160a01b03167f3525e22824a8a7df2c9a6029941c824cf95b6447f1e13d5128fd3826d35afe8b60405160405180910390a260010161053d565b50505050565b6000805160206108ae83398151915260005b8281101561062357600084848381811061065757610657610897565b905060200201602081019061066c91906107ae565b6001600160a01b0316036106cc5760405162461bcd60e51b815260206004820152602160248201527f4261736550726f78793a207369676e6572206973207a65726f206164647265736044820152607360f81b606482015260840161011e565b61074a7fe2f4eaae4a9751e85a3e4a7b9587827a877f29914755229b07a7b2da98285f7085858481811061070257610702610897565b905060200201602081019061071791906107ae565b60009182526001808601602090815260408085206001600160a01b0390941685529290529120805460ff19169091179055565b83838281811061075c5761075c610897565b905060200201602081019061077191906107ae565b6001600160a01b03167f47d1c22a25bb3a5d4e481b9b1e6944c2eade3181a0a20b495ed61d35b5323f2460405160405180910390a260010161063b565b6000602082840312156107c057600080fd5b81356001600160a01b03811681146102ca57600080fd5b600080602083850312156107ea57600080fd5b823567ffffffffffffffff8082111561080257600080fd5b818501915085601f83011261081657600080fd5b81358181111561082557600080fd5b8660208260051b850101111561083a57600080fd5b60209290920196919550909350505050565b6020808252602b908201527f426173654163636573733a2063616c6c657220646f6573206e6f74206861766560408201526a2061646d696e20726f6c6560a81b606082015260800190565b634e487b7160e01b600052603260045260246000fdfe69198989339f34e10129e514286bde98979351148754faef989dde18bf6d14daa26469706673582212208da7c59e3b95fac48156d4673355f85427ab8db062e567e7732e0ccfb74770d664736f6c63430008180033",
  "linkReferences": {},
  "deployedLinkReferences": {}
}