{
  "_format": "hh-sol-artifact-1",
  "contractName": "Experience",
  "sourceName": "contracts/experience/instance/Experience.sol",
  "abi": [
    {
      "inputs": [
        {
          "components": [
            {
              "internalType": "address",
              "name": "companyRegistry",
              "type": "address"
            },
            {
              "internalType": "address",
              "name": "experienceRegistry",
              "type": "address"
            },
            {
              "internalType": "address",
              "name": "portalRegistry",
              "type": "address"
            }
          ],
          "internalType": "struct ExperienceConstructorArgs",
          "name": "args",
          "type": "tuple"
        }
      ],
      "stateMutability": "nonpayable",
      "type": "constructor"
    },
    {
      "anonymous": false,
      "inputs": [
        {
          "indexed": false,
          "internalType": "bytes",
          "name": "newDetails",
          "type": "bytes"
        }
      ],
      "name": "ConnectionDetailsChanged",
      "type": "event"
    },
    {
      "anonymous": false,
      "inputs": [
        {
          "indexed": true,
          "internalType": "address",
          "name": "by",
          "type": "address"
        },
        {
          "indexed": false,
          "internalType": "string",
          "name": "reason",
          "type": "string"
        }
      ],
      "name": "EntityDeactivated",
      "type": "event"
    },
    {
      "anonymous": false,
      "inputs": [
        {
          "indexed": true,
          "internalType": "address",
          "name": "by",
          "type": "address"
        }
      ],
      "name": "EntityReactivated",
      "type": "event"
    },
    {
      "anonymous": false,
      "inputs": [
        {
          "indexed": true,
          "internalType": "address",
          "name": "by",
          "type": "address"
        },
        {
          "indexed": false,
          "internalType": "string",
          "name": "reason",
          "type": "string"
        }
      ],
      "name": "EntityRemoved",
      "type": "event"
    },
    {
      "anonymous": false,
      "inputs": [],
      "name": "ExperienceDeactivated",
      "type": "event"
    },
    {
      "anonymous": false,
      "inputs": [
        {
          "indexed": true,
          "internalType": "address",
          "name": "oldVersion",
          "type": "address"
        },
        {
          "indexed": true,
          "internalType": "address",
          "name": "newVersion",
          "type": "address"
        }
      ],
      "name": "ExperienceUpgraded",
      "type": "event"
    },
    {
      "anonymous": false,
      "inputs": [
        {
          "indexed": true,
          "internalType": "address",
          "name": "hook",
          "type": "address"
        }
      ],
      "name": "HookAdded",
      "type": "event"
    },
    {
      "anonymous": false,
      "inputs": [
        {
          "indexed": true,
          "internalType": "address",
          "name": "hook",
          "type": "address"
        }
      ],
      "name": "HookRemoved",
      "type": "event"
    },
    {
      "anonymous": false,
      "inputs": [
        {
          "indexed": true,
          "internalType": "address",
          "name": "sourceWorld",
          "type": "address"
        },
        {
          "indexed": true,
          "internalType": "address",
          "name": "sourceCompany",
          "type": "address"
        },
        {
          "indexed": true,
          "internalType": "address",
          "name": "avatar",
          "type": "address"
        },
        {
          "indexed": false,
          "internalType": "uint256",
          "name": "attachedFees",
          "type": "uint256"
        }
      ],
      "name": "JumpEntry",
      "type": "event"
    },
    {
      "anonymous": false,
      "inputs": [
        {
          "indexed": false,
          "internalType": "uint256",
          "name": "newFee",
          "type": "uint256"
        }
      ],
      "name": "PortalFeeChanged",
      "type": "event"
    },
    {
      "inputs": [
        {
          "internalType": "address",
          "name": "condition",
          "type": "address"
        }
      ],
      "name": "addPortalCondition",
      "outputs": [],
      "stateMutability": "nonpayable",
      "type": "function"
    },
    {
      "inputs": [
        {
          "internalType": "address[]",
          "name": "signers",
          "type": "address[]"
        }
      ],
      "name": "addSigners",
      "outputs": [],
      "stateMutability": "nonpayable",
      "type": "function"
    },
    {
      "inputs": [
        {
          "internalType": "address",
          "name": "newOwner",
          "type": "address"
        }
      ],
      "name": "changeOwner",
      "outputs": [],
      "stateMutability": "nonpayable",
      "type": "function"
    },
    {
      "inputs": [
        {
          "internalType": "uint256",
          "name": "fee",
          "type": "uint256"
        }
      ],
      "name": "changePortalFee",
      "outputs": [],
      "stateMutability": "nonpayable",
      "type": "function"
    },
    {
      "inputs": [],
      "name": "company",
      "outputs": [
        {
          "internalType": "address",
          "name": "",
          "type": "address"
        }
      ],
      "stateMutability": "view",
      "type": "function"
    },
    {
      "inputs": [],
      "name": "companyRegistry",
      "outputs": [
        {
          "internalType": "address",
          "name": "",
          "type": "address"
        }
      ],
      "stateMutability": "view",
      "type": "function"
    },
    {
      "inputs": [],
      "name": "connectionDetails",
      "outputs": [
        {
          "internalType": "bytes",
          "name": "",
          "type": "bytes"
        }
      ],
      "stateMutability": "view",
      "type": "function"
    },
    {
      "inputs": [
        {
          "internalType": "string",
          "name": "reason",
          "type": "string"
        }
      ],
      "name": "deactivate",
      "outputs": [],
      "stateMutability": "nonpayable",
      "type": "function"
    },
    {
      "inputs": [
        {
          "components": [
            {
              "internalType": "address",
              "name": "sourceWorld",
              "type": "address"
            },
            {
              "internalType": "address",
              "name": "sourceCompany",
              "type": "address"
            },
            {
              "internalType": "address",
              "name": "avatar",
              "type": "address"
            }
          ],
          "internalType": "struct JumpEntryRequest",
          "name": "",
          "type": "tuple"
        }
      ],
      "name": "entering",
      "outputs": [
        {
          "internalType": "bytes",
          "name": "",
          "type": "bytes"
        }
      ],
      "stateMutability": "payable",
      "type": "function"
    },
    {
      "inputs": [],
      "name": "entryFee",
      "outputs": [
        {
          "internalType": "uint256",
          "name": "",
          "type": "uint256"
        }
      ],
      "stateMutability": "view",
      "type": "function"
    },
    {
      "inputs": [],
      "name": "experienceRegistry",
      "outputs": [
        {
          "internalType": "contract IExperienceRegistry",
          "name": "",
          "type": "address"
        }
      ],
      "stateMutability": "view",
      "type": "function"
    },
    {
      "inputs": [
        {
          "internalType": "bytes32",
          "name": "role",
          "type": "bytes32"
        },
        {
          "internalType": "address",
          "name": "account",
          "type": "address"
        }
      ],
      "name": "grantRole",
      "outputs": [],
      "stateMutability": "nonpayable",
      "type": "function"
    },
    {
      "inputs": [
        {
          "internalType": "bytes32",
          "name": "role",
          "type": "bytes32"
        },
        {
          "internalType": "address",
          "name": "account",
          "type": "address"
        }
      ],
      "name": "hasRole",
      "outputs": [
        {
          "internalType": "bool",
          "name": "",
          "type": "bool"
        }
      ],
      "stateMutability": "view",
      "type": "function"
    },
    {
      "inputs": [
        {
          "internalType": "string",
          "name": "name",
          "type": "string"
        },
        {
          "internalType": "address",
          "name": "_world",
          "type": "address"
        },
        {
          "components": [
            {
              "internalType": "string",
              "name": "x",
              "type": "string"
            },
            {
              "internalType": "string",
              "name": "y",
              "type": "string"
            },
            {
              "internalType": "string",
              "name": "z",
              "type": "string"
            },
            {
              "internalType": "uint256",
              "name": "t",
              "type": "uint256"
            },
            {
              "internalType": "uint256",
              "name": "p",
              "type": "uint256"
            },
            {
              "internalType": "uint256",
              "name": "p_sub",
              "type": "uint256"
            }
          ],
          "internalType": "struct VectorAddress",
          "name": "vector",
          "type": "tuple"
        },
        {
          "internalType": "bytes",
          "name": "initData",
          "type": "bytes"
        }
      ],
      "name": "init",
      "outputs": [],
      "stateMutability": "nonpayable",
      "type": "function"
    },
    {
      "inputs": [
        {
          "internalType": "address",
          "name": "account",
          "type": "address"
        }
      ],
      "name": "isAdmin",
      "outputs": [
        {
          "internalType": "bool",
          "name": "",
          "type": "bool"
        }
      ],
      "stateMutability": "view",
      "type": "function"
    },
    {
      "inputs": [],
      "name": "isEntityActive",
      "outputs": [
        {
          "internalType": "bool",
          "name": "",
          "type": "bool"
        }
      ],
      "stateMutability": "view",
      "type": "function"
    },
    {
      "inputs": [],
      "name": "isRemoved",
      "outputs": [
        {
          "internalType": "bool",
          "name": "",
          "type": "bool"
        }
      ],
      "stateMutability": "view",
      "type": "function"
    },
    {
      "inputs": [
        {
          "internalType": "address",
          "name": "account",
          "type": "address"
        }
      ],
      "name": "isSigner",
      "outputs": [
        {
          "internalType": "bool",
          "name": "",
          "type": "bool"
        }
      ],
      "stateMutability": "view",
      "type": "function"
    },
    {
      "inputs": [],
      "name": "name",
      "outputs": [
        {
          "internalType": "string",
          "name": "",
          "type": "string"
        }
      ],
      "stateMutability": "view",
      "type": "function"
    },
    {
      "inputs": [],
      "name": "owner",
      "outputs": [
        {
          "internalType": "address",
          "name": "",
          "type": "address"
        }
      ],
      "stateMutability": "view",
      "type": "function"
    },
    {
      "inputs": [],
      "name": "portalRegistry",
      "outputs": [
        {
          "internalType": "contract IPortalRegistry",
          "name": "",
          "type": "address"
        }
      ],
      "stateMutability": "view",
      "type": "function"
    },
    {
      "inputs": [],
      "name": "reactivate",
      "outputs": [],
      "stateMutability": "nonpayable",
      "type": "function"
    },
    {
      "inputs": [
        {
          "internalType": "string",
          "name": "reason",
          "type": "string"
        }
      ],
      "name": "remove",
      "outputs": [],
      "stateMutability": "nonpayable",
      "type": "function"
    },
    {
      "inputs": [],
      "name": "removePortalCondition",
      "outputs": [],
      "stateMutability": "nonpayable",
      "type": "function"
    },
    {
      "inputs": [
        {
          "internalType": "address[]",
          "name": "signers",
          "type": "address[]"
        }
      ],
      "name": "removeSigners",
      "outputs": [],
      "stateMutability": "nonpayable",
      "type": "function"
    },
    {
      "inputs": [
        {
          "internalType": "bytes32",
          "name": "role",
          "type": "bytes32"
        },
        {
          "internalType": "address",
          "name": "account",
          "type": "address"
        }
      ],
      "name": "revokeRole",
      "outputs": [],
      "stateMutability": "nonpayable",
      "type": "function"
    },
    {
      "inputs": [
        {
          "internalType": "bytes",
          "name": "details",
          "type": "bytes"
        }
      ],
      "name": "setConnectionDetails",
      "outputs": [],
      "stateMutability": "nonpayable",
      "type": "function"
    },
    {
      "inputs": [],
      "name": "termsOwner",
      "outputs": [
        {
          "internalType": "address",
          "name": "",
          "type": "address"
        }
      ],
      "stateMutability": "view",
      "type": "function"
    },
    {
      "inputs": [],
      "name": "vectorAddress",
      "outputs": [
        {
          "components": [
            {
              "internalType": "string",
              "name": "x",
              "type": "string"
            },
            {
              "internalType": "string",
              "name": "y",
              "type": "string"
            },
            {
              "internalType": "string",
              "name": "z",
              "type": "string"
            },
            {
              "internalType": "uint256",
              "name": "t",
              "type": "uint256"
            },
            {
              "internalType": "uint256",
              "name": "p",
              "type": "uint256"
            },
            {
              "internalType": "uint256",
              "name": "p_sub",
              "type": "uint256"
            }
          ],
          "internalType": "struct VectorAddress",
          "name": "",
          "type": "tuple"
        }
      ],
      "stateMutability": "view",
      "type": "function"
    },
    {
      "inputs": [],
      "name": "version",
      "outputs": [
        {
          "components": [
            {
              "internalType": "uint16",
              "name": "major",
              "type": "uint16"
            },
            {
              "internalType": "uint16",
              "name": "minor",
              "type": "uint16"
            }
          ],
          "internalType": "struct Version",
          "name": "",
          "type": "tuple"
        }
      ],
      "stateMutability": "pure",
      "type": "function"
    },
    {
      "inputs": [],
      "name": "world",
      "outputs": [
        {
          "internalType": "address",
          "name": "",
          "type": "address"
        }
      ],
      "stateMutability": "view",
      "type": "function"
    },
    {
      "stateMutability": "payable",
      "type": "receive"
    }
  ],
  "bytecode": "0x60e06040523480156200001157600080fd5b5060405162002791380380620027918339810160408190526200003491620001b8565b80516001600160a01b03166200009d5760405162461bcd60e51b8152602060048201526024808201527f457870657269656e63653a20496e76616c696420636f6d70616e7920726567696044820152637374727960e01b60648201526084015b60405180910390fd5b60208101516001600160a01b0316620001095760405162461bcd60e51b815260206004820152602760248201527f457870657269656e63653a20496e76616c696420657870657269656e636520726044820152666567697374727960c81b606482015260840162000094565b60408101516001600160a01b0316620001715760405162461bcd60e51b815260206004820152602360248201527f457870657269656e63653a20496e76616c696420706f7274616c20726567697360448201526274727960e81b606482015260840162000094565b80516001600160a01b039081166080526020820151811660a0526040909101511660c05262000239565b80516001600160a01b0381168114620001b357600080fd5b919050565b600060608284031215620001cb57600080fd5b604051606081016001600160401b0381118282101715620001fc57634e487b7160e01b600052604160045260246000fd5b6040526200020a836200019b565b81526200021a602084016200019b565b60208201526200022d604084016200019b565b60408201529392505050565b60805160a05160c0516124f0620002a16000396000818161051b01528181610b9501528181610eef015281816110aa01526113310152600081816104a70152818161073701528181610d6101528181611170015261165a0152600061054f01526124f06000f3fe6080604052600436106101dc5760003560e01c80637df73e271161010257806391d1485411610095578063d18611d611610064578063d18611d614610571578063d547741f14610586578063e8906a2d146105a6578063f2aca27d146105c657600080fd5b806391d14854146104c9578063a6f9dae1146104e9578063b666493414610509578063c51aba2b1461053d57600080fd5b806386b70bed116100d157806386b70bed1461044b5780638d361e43146104605780638da5cb5b146104805780638f09a6be1461049557600080fd5b80637df73e27146103d65780637e6e1551146103f657806380599e4b1461040b57806383c342631461042b57600080fd5b806330b67baa1161017a57806358779dcf1161014957806358779dcf1461038c5780636904c94d146103a157806369bd9194146103a15780636fdfe1b6146103b657600080fd5b806330b67baa146102df57806354cc5a0b1461030c57806354fd4d501461031f57806357607a371461036c57600080fd5b806324d7806c116101b657806324d7806c1461024b57806327ee999d1461027b5780632f2ff15d1461029d5780632fcbab9a146102bd57600080fd5b806306fdde03146101e8578063072ea61c146102135780631864a47c1461023657600080fd5b366101e357005b600080fd5b3480156101f457600080fd5b506101fd6105e6565b60405161020a9190611ae7565b60405180910390f35b34801561021f57600080fd5b5061022861067e565b60405190815260200161020a565b34801561024257600080fd5b506101fd61068e565b34801561025757600080fd5b5061026b610266366004611b12565b6106a6565b604051901515815260200161020a565b34801561028757600080fd5b5061029b610296366004611bbb565b61072c565b005b3480156102a957600080fd5b5061029b6102b8366004611c0c565b6107d3565b3480156102c957600080fd5b506102d26108d9565b60405161020a9190611c3c565b3480156102eb57600080fd5b506102f4610b01565b6040516001600160a01b03909116815260200161020a565b6101fd61031a366004611cbf565b610b88565b34801561032b57600080fd5b50604080518082018252600080825260209182018190528251808401845260018082529083019182528351908152905161ffff16918101919091520161020a565b34801561037857600080fd5b5061029b610387366004611d7a565b610d56565b34801561039857600080fd5b5061029b610e39565b3480156103ad57600080fd5b506102f4610f62565b3480156103c257600080fd5b5061029b6103d1366004611b12565b610f81565b3480156103e257600080fd5b5061026b6103f1366004611b12565b61110a565b34801561040257600080fd5b5061026b61114d565b34801561041757600080fd5b5061029b610426366004611bbb565b611165565b34801561043757600080fd5b5061029b610446366004611e2b565b611267565b34801561045757600080fd5b5061026b611368565b34801561046c57600080fd5b5061029b61047b366004611e44565b61137b565b34801561048c57600080fd5b506102f4611443565b3480156104a157600080fd5b506102f47f000000000000000000000000000000000000000000000000000000000000000081565b3480156104d557600080fd5b5061026b6104e4366004611c0c565b61148e565b3480156104f557600080fd5b5061029b610504366004611b12565b61151b565b34801561051557600080fd5b506102f47f000000000000000000000000000000000000000000000000000000000000000081565b34801561054957600080fd5b506102f47f000000000000000000000000000000000000000000000000000000000000000081565b34801561057d57600080fd5b5061029b61164f565b34801561059257600080fd5b5061029b6105a1366004611c0c565b6116dd565b3480156105b257600080fd5b5061029b6105c1366004611e44565b6117b3565b3480156105d257600080fd5b5061029b6105e1366004611ed9565b61187b565b60606105f061194a565b80546105fb90611f0e565b80601f016020809104026020016040519081016040528092919081815260200182805461062790611f0e565b80156106745780601f1061064957610100808354040283529160200191610674565b820191906000526020600020905b81548152906001019060200180831161065757829003601f168201915b5050505050905090565b60006106886119d7565b54919050565b60606106986119d7565b60010180546105fb90611f0e565b604051630935e01b60e21b81526001600160a01b038216600482015260009073__$a5a42e46683ad9c79b7b86d5ff60fdf4c1$__906324d7806c906024015b602060405180830381865af4158015610702573d6000803e3d6000fd5b505050506040513d601f19601f820116820180604052508101906107269190611f48565b92915050565b336001600160a01b037f0000000000000000000000000000000000000000000000000000000000000000161461077d5760405162461bcd60e51b815260040161077490611f6a565b60405180910390fd5b6000610787611a3c565b805460ff191691151591909117905560405133907f246589c99dd263c9b64a2b544e24074c282ca479ba3d2a0e649f9eeaca1e2d62906107c8908490611ae7565b60405180910390a250565b604051630935e01b60e21b815233600482015273__$a5a42e46683ad9c79b7b86d5ff60fdf4c1$__906324d7806c90602401602060405180830381865af4158015610822573d6000803e3d6000fd5b505050506040513d601f19601f820116820180604052508101906108469190611f48565b6108625760405162461bcd60e51b815260040161077490611faf565b604051632f2ff15d60e01b8152600481018390526001600160a01b038216602482015273__$a5a42e46683ad9c79b7b86d5ff60fdf4c1$__90632f2ff15d906044015b60006040518083038186803b1580156108bd57600080fd5b505af41580156108d1573d6000803e3d6000fd5b505050505050565b6109126040518060c001604052806060815260200160608152602001606081526020016000815260200160008152602001600081525090565b61091a611a3c565b6001016040518060c001604052908160008201805461093890611f0e565b80601f016020809104026020016040519081016040528092919081815260200182805461096490611f0e565b80156109b15780601f10610986576101008083540402835291602001916109b1565b820191906000526020600020905b81548152906001019060200180831161099457829003601f168201915b505050505081526020016001820180546109ca90611f0e565b80601f01602080910402602001604051908101604052809291908181526020018280546109f690611f0e565b8015610a435780601f10610a1857610100808354040283529160200191610a43565b820191906000526020600020905b815481529060010190602001808311610a2657829003601f168201915b50505050508152602001600282018054610a5c90611f0e565b80601f0160208091040260200160405190810160405280929190818152602001828054610a8890611f0e565b8015610ad55780601f10610aaa57610100808354040283529160200191610ad5565b820191906000526020600020905b815481529060010190602001808311610ab857829003601f168201915b505050505081526020016003820154815260200160048201548152602001600582015481525050905090565b6000610b0b611a3c565b60000160029054906101000a90046001600160a01b03166001600160a01b03166330b67baa6040518163ffffffff1660e01b8152600401602060405180830381865afa158015610b5f573d6000803e3d6000fd5b505050506040513d601f19601f82011682018060405250810190610b839190611fe4565b905090565b6060336001600160a01b037f00000000000000000000000000000000000000000000000000000000000000001614610c145760405162461bcd60e51b815260206004820152602960248201527f457870657269656e63653a204f6e6c7920706f7274616c2072656769737472796044820152680818d85b8818d85b1b60ba1b6064820152608401610774565b6000610c1e6119d7565b805490915015610cc15780543414610c785760405162461bcd60e51b815260206004820152601f60248201527f457870657269656e63653a20696e636f727265637420656e74727920666565006044820152606401610774565b610c80611a3c565b546040516001600160a01b036201000090920491909116903480156108fc02916000818181858888f19350505050158015610cbf573d6000803e3d6000fd5b505b806001018054610cd090611f0e565b80601f0160208091040260200160405190810160405280929190818152602001828054610cfc90611f0e565b8015610d495780601f10610d1e57610100808354040283529160200191610d49565b820191906000526020600020905b815481529060010190602001808311610d2c57829003601f168201915b5050505050915050919050565b336001600160a01b037f00000000000000000000000000000000000000000000000000000000000000001614610d9e5760405162461bcd60e51b815260040161077490611f6a565b8585610da861194a565b91610db4919083612063565b506000610dbf611a3c565b8054600161ff01600160b01b0319909116620100006001600160a01b03891602178117825590915084908201610df58282612164565b5060009050610e0683850185612282565b90506000610e126119d7565b8251815560208301519091506001820190610e2d908261230f565b50505050505050505050565b33610e42611a3c565b546201000090046001600160a01b031614610e6f5760405162461bcd60e51b8152600401610774906123c9565b336001600160a01b03166386b70bed6040518163ffffffff1660e01b8152600401602060405180830381865afa158015610ead573d6000803e3d6000fd5b505050506040513d601f19601f82011682018060405250810190610ed19190611f48565b610eed5760405162461bcd60e51b81526004016107749061240a565b7f00000000000000000000000000000000000000000000000000000000000000006001600160a01b031663021665b76040518163ffffffff1660e01b8152600401600060405180830381600087803b158015610f4857600080fd5b505af1158015610f5c573d6000803e3d6000fd5b50505050565b6000610f6c611a3c565b546201000090046001600160a01b0316919050565b33610f8a611a3c565b546201000090046001600160a01b031614610fb75760405162461bcd60e51b8152600401610774906123c9565b336001600160a01b03166386b70bed6040518163ffffffff1660e01b8152600401602060405180830381865afa158015610ff5573d6000803e3d6000fd5b505050506040513d601f19601f820116820180604052508101906110199190611f48565b6110355760405162461bcd60e51b81526004016107749061240a565b6001600160a01b03811661108b5760405162461bcd60e51b815260206004820152601d60248201527f457870657269656e63653a20496e76616c696420636f6e646974696f6e0000006044820152606401610774565b604051631169a49960e11b81526001600160a01b0382811660048301527f000000000000000000000000000000000000000000000000000000000000000016906322d34932906024015b600060405180830381600087803b1580156110ef57600080fd5b505af1158015611103573d6000803e3d6000fd5b5050505050565b604051637df73e2760e01b81526001600160a01b038216600482015260009073__$a5a42e46683ad9c79b7b86d5ff60fdf4c1$__90637df73e27906024016106e5565b6000611157611a3c565b54610100900460ff16919050565b336001600160a01b037f000000000000000000000000000000000000000000000000000000000000000016146111ad5760405162461bcd60e51b815260040161077490611f6a565b6111b5611a3c565b5460ff16156112155760405162461bcd60e51b815260206004820152602660248201527f52656d6f7661626c65456e746974793a206d757374206465616374697661746560448201526508199a5c9cdd60d21b6064820152608401610774565b600161121f611a3c565b80549115156101000261ff001990921691909117905560405133907fbf430175840309fcb4cce13557429998477f9f95733cb0d42c170af8aa225d06906107c8908490611ae7565b33611270611a3c565b546201000090046001600160a01b03161461129d5760405162461bcd60e51b8152600401610774906123c9565b336001600160a01b03166386b70bed6040518163ffffffff1660e01b8152600401602060405180830381865afa1580156112db573d6000803e3d6000fd5b505050506040513d601f19601f820116820180604052508101906112ff9190611f48565b61131b5760405162461bcd60e51b81526004016107749061240a565b6040516383c3426360e01b8152600481018290527f00000000000000000000000000000000000000000000000000000000000000006001600160a01b0316906383c34263906024016110d5565b6000611372611a3c565b5460ff16919050565b604051630935e01b60e21b815233600482015273__$a5a42e46683ad9c79b7b86d5ff60fdf4c1$__906324d7806c90602401602060405180830381865af41580156113ca573d6000803e3d6000fd5b505050506040513d601f19601f820116820180604052508101906113ee9190611f48565b61140a5760405162461bcd60e51b815260040161077490611faf565b604051638d361e4360e01b815273__$a5a42e46683ad9c79b7b86d5ff60fdf4c1$__90638d361e43906108a5908590859060040161244b565b600073__$a5a42e46683ad9c79b7b86d5ff60fdf4c1$__638da5cb5b6040518163ffffffff1660e01b8152600401602060405180830381865af4158015610b5f573d6000803e3d6000fd5b604051632474521560e21b8152600481018390526001600160a01b038216602482015260009073__$a5a42e46683ad9c79b7b86d5ff60fdf4c1$__906391d1485490604401602060405180830381865af41580156114f0573d6000803e3d6000fd5b505050506040513d601f19601f820116820180604052508101906115149190611f48565b9392505050565b336001600160a01b031673__$a5a42e46683ad9c79b7b86d5ff60fdf4c1$__638da5cb5b6040518163ffffffff1660e01b8152600401602060405180830381865af415801561156e573d6000803e3d6000fd5b505050506040513d601f19601f820116820180604052508101906115929190611fe4565b6001600160a01b0316146115e85760405162461bcd60e51b815260206004820152601f60248201527f426173654163636573733a207265737472696374656420746f206f776e6572006044820152606401610774565b6040516313af403560e01b81526001600160a01b038216600482015273__$a5a42e46683ad9c79b7b86d5ff60fdf4c1$__906313af40359060240160006040518083038186803b15801561163b57600080fd5b505af4158015611103573d6000803e3d6000fd5b336001600160a01b037f000000000000000000000000000000000000000000000000000000000000000016146116975760405162461bcd60e51b815260040161077490611f6a565b60016116a1611a3c565b805460ff191691151591909117905560405133907f54ca6a4cb143be493713a7079cc0d6cdbbf0688ee68398b4354b056088f2cbf590600090a2565b604051630935e01b60e21b815233600482015273__$a5a42e46683ad9c79b7b86d5ff60fdf4c1$__906324d7806c90602401602060405180830381865af415801561172c573d6000803e3d6000fd5b505050506040513d601f19601f820116820180604052508101906117509190611f48565b61176c5760405162461bcd60e51b815260040161077490611faf565b60405163d547741f60e01b8152600481018390526001600160a01b038216602482015273__$a5a42e46683ad9c79b7b86d5ff60fdf4c1$__9063d547741f906044016108a5565b604051630935e01b60e21b815233600482015273__$a5a42e46683ad9c79b7b86d5ff60fdf4c1$__906324d7806c90602401602060405180830381865af4158015611802573d6000803e3d6000fd5b505050506040513d601f19601f820116820180604052508101906118269190611f48565b6118425760405162461bcd60e51b815260040161077490611faf565b60405163e8906a2d60e01b815273__$a5a42e46683ad9c79b7b86d5ff60fdf4c1$__9063e8906a2d906108a5908590859060040161244b565b33611884611a3c565b546201000090046001600160a01b0316146118b15760405162461bcd60e51b8152600401610774906123c9565b336001600160a01b03166386b70bed6040518163ffffffff1660e01b8152600401602060405180830381865afa1580156118ef573d6000803e3d6000fd5b505050506040513d601f19601f820116820180604052508101906119139190611f48565b61192f5760405162461bcd60e51b81526004016107749061240a565b806119386119d7565b60010190611946908261230f565b5050565b60408051808201909152601481527378722e656e746974792e73746f726167652e763160601b60209091015260008060ff6119a660017fdefc82a28b6578c2a63b29b15450260a5e998242a6300b7fcb30814ee74ae188612499565b6040516020016119b891815260200190565b60408051601f1981840301815291905280516020909101201692915050565b60408051808201909152601881527f78722e657870657269656e63652e73746f726167652e7631000000000000000060209091015260008060ff6119a660017fa13db16759b7af0e556c9648625a58e6d20b5ce76e5139c1b3ce33248c0a8852612499565b60408051808201909152601881527f78722e61637469766174696f6e2e73746f726167652e7631000000000000000060209091015260008060ff6119a660017ff6611e962a52dbc98dd0485088d920890c43e26113c61976f6e171a29d49ce49612499565b6000815180845260005b81811015611ac757602081850181015186830182015201611aab565b506000602082860101526020601f19601f83011685010191505092915050565b6020815260006115146020830184611aa1565b6001600160a01b0381168114611b0f57600080fd5b50565b600060208284031215611b2457600080fd5b813561151481611afa565b634e487b7160e01b600052604160045260246000fd5b600067ffffffffffffffff80841115611b6057611b60611b2f565b604051601f8501601f19908116603f01168101908282118183101715611b8857611b88611b2f565b81604052809350858152868686011115611ba157600080fd5b858560208301376000602087830101525050509392505050565b600060208284031215611bcd57600080fd5b813567ffffffffffffffff811115611be457600080fd5b8201601f81018413611bf557600080fd5b611c0484823560208401611b45565b949350505050565b60008060408385031215611c1f57600080fd5b823591506020830135611c3181611afa565b809150509250929050565b602081526000825160c06020840152611c5860e0840182611aa1565b90506020840151601f1980858403016040860152611c768383611aa1565b9250604086015191508085840301606086015250611c948282611aa1565b91505060608401516080840152608084015160a084015260a084015160c08401528091505092915050565b600060608284031215611cd157600080fd5b6040516060810181811067ffffffffffffffff82111715611cf457611cf4611b2f565b6040528235611d0281611afa565b81526020830135611d1281611afa565b60208201526040830135611d2581611afa565b60408201529392505050565b60008083601f840112611d4357600080fd5b50813567ffffffffffffffff811115611d5b57600080fd5b602083019150836020828501011115611d7357600080fd5b9250929050565b60008060008060008060808789031215611d9357600080fd5b863567ffffffffffffffff80821115611dab57600080fd5b611db78a838b01611d31565b909850965060208901359150611dcc82611afa565b90945060408801359080821115611de257600080fd5b9088019060c0828b031215611df657600080fd5b90935060608801359080821115611e0c57600080fd5b50611e1989828a01611d31565b979a9699509497509295939492505050565b600060208284031215611e3d57600080fd5b5035919050565b60008060208385031215611e5757600080fd5b823567ffffffffffffffff80821115611e6f57600080fd5b818501915085601f830112611e8357600080fd5b813581811115611e9257600080fd5b8660208260051b8501011115611ea757600080fd5b60209290920196919550909350505050565b600082601f830112611eca57600080fd5b61151483833560208501611b45565b600060208284031215611eeb57600080fd5b813567ffffffffffffffff811115611f0257600080fd5b611c0484828501611eb9565b600181811c90821680611f2257607f821691505b602082108103611f4257634e487b7160e01b600052602260045260246000fd5b50919050565b600060208284031215611f5a57600080fd5b8151801515811461151457600080fd5b60208082526025908201527f52656d6f7661626c65456e746974793a206f6e6c79206f776e696e6720726567604082015264697374727960d81b606082015260800190565b6020808252818101527f426173654163636573733a207265737472696374656420746f2061646d696e73604082015260600190565b600060208284031215611ff657600080fd5b815161151481611afa565b601f821115612049576000816000526020600020601f850160051c8101602086101561202a5750805b601f850160051c820191505b818110156108d157828155600101612036565b505050565b600019600383901b1c191660019190911b1790565b67ffffffffffffffff83111561207b5761207b611b2f565b61208f836120898354611f0e565b83612001565b6000601f8411600181146120bd57600085156120ab5750838201355b6120b5868261204e565b845550611103565b600083815260209020601f19861690835b828110156120ee57868501358255602094850194600190920191016120ce565b508682101561210b5760001960f88860031b161c19848701351681555b505060018560011b0183555050505050565b6000808335601e1984360301811261213457600080fd5b83018035915067ffffffffffffffff82111561214f57600080fd5b602001915036819003821315611d7357600080fd5b61216e828361211d565b67ffffffffffffffff81111561218657612186611b2f565b61219a816121948554611f0e565b85612001565b6000601f8211600181146121c857600083156121b65750838201355b6121c0848261204e565b865550612222565b600085815260209020601f19841690835b828110156121f957868501358255602094850194600190920191016121d9565b50848210156122165760001960f88660031b161c19848701351681555b505060018360011b0185555b50505050612233602083018361211d565b612241818360018601612063565b5050612250604083018361211d565b61225e818360028601612063565b5050606082013560038201556080820135600482015560a082013560058201555050565b60006020828403121561229457600080fd5b813567ffffffffffffffff808211156122ac57600080fd5b90830190604082860312156122c057600080fd5b6040516040810181811083821117156122db576122db611b2f565b604052823581526020830135828111156122f457600080fd5b61230087828601611eb9565b60208301525095945050505050565b815167ffffffffffffffff81111561232957612329611b2f565b61233d816123378454611f0e565b84612001565b602080601f83116001811461236c576000841561235a5750858301515b612364858261204e565b8655506108d1565b600085815260208120601f198616915b8281101561239b5788860151825594840194600190910190840161237c565b50858210156123b95787850151600019600388901b60f8161c191681555b5050505050600190811b01905550565b60208082526021908201527f457870657269656e63653a204f6e6c7920636f6d70616e792063616e2063616c6040820152601b60fa1b606082015260800190565b60208082526021908201527f457870657269656e63653a20436f6d70616e79206973206e6f742061637469766040820152606560f81b606082015260800190565b60208082528181018390526000908460408401835b8681101561248e57823561247381611afa565b6001600160a01b031682529183019190830190600101612460565b509695505050505050565b8181038181111561072657634e487b7160e01b600052601160045260246000fdfea2646970667358221220c9afcd767a747c33590a2a6ba99521b0fd895af0fcb9d74d8c1a0772fc1a843964736f6c63430008180033",
  "linkReferences": {
    "contracts/libraries/LibAccess.sol": {
      "LibAccess": [
        {
          "length": 20,
          "start": 2408
        },
        {
          "length": 20,
          "start": 2697
        },
        {
          "length": 20,
          "start": 2856
        },
        {
          "length": 20,
          "start": 5068
        },
        {
          "length": 20,
          "start": 5681
        },
        {
          "length": 20,
          "start": 5818
        },
        {
          "length": 20,
          "start": 5864
        },
        {
          "length": 20,
          "start": 5975
        },
        {
          "length": 20,
          "start": 6088
        },
        {
          "length": 20,
          "start": 6311
        },
        {
          "length": 20,
          "start": 6547
        },
        {
          "length": 20,
          "start": 6706
        },
        {
          "length": 20,
          "start": 6761
        },
        {
          "length": 20,
          "start": 6898
        }
      ]
    }
  },
  "deployedLinkReferences": {
    "contracts/libraries/LibAccess.sol": {
      "LibAccess": [
        {
          "length": 20,
          "start": 1735
        },
        {
          "length": 20,
          "start": 2024
        },
        {
          "length": 20,
          "start": 2183
        },
        {
          "length": 20,
          "start": 4395
        },
        {
          "length": 20,
          "start": 5008
        },
        {
          "length": 20,
          "start": 5145
        },
        {
          "length": 20,
          "start": 5191
        },
        {
          "length": 20,
          "start": 5302
        },
        {
          "length": 20,
          "start": 5415
        },
        {
          "length": 20,
          "start": 5638
        },
        {
          "length": 20,
          "start": 5874
        },
        {
          "length": 20,
          "start": 6033
        },
        {
          "length": 20,
          "start": 6088
        },
        {
          "length": 20,
          "start": 6225
        }
      ]
    }
  }
}