{
  "_format": "hh-sol-artifact-1",
  "contractName": "Experience",
  "sourceName": "contracts/experience/Experience.sol",
  "abi": [
    {
      "inputs": [
        {
          "components": [
            {
              "internalType": "address",
              "name": "experienceFactory",
              "type": "address"
            },
            {
              "internalType": "address",
              "name": "portalRegistry",
              "type": "address"
            },
            {
              "internalType": "address",
              "name": "experienceRegistry",
              "type": "address"
            }
          ],
          "internalType": "struct ExperienceConstructorArgs",
          "name": "args",
          "type": "tuple"
        }
      ],
      "stateMutability": "nonpayable",
      "type": "constructor"
    },
    {
      "inputs": [],
      "name": "ReentrancyGuardReentrantCall",
      "type": "error"
    },
    {
      "anonymous": false,
      "inputs": [
        {
          "indexed": true,
          "internalType": "address",
          "name": "oldVersion",
          "type": "address"
        },
        {
          "indexed": true,
          "internalType": "address",
          "name": "newVersion",
          "type": "address"
        }
      ],
      "name": "ExperienceUpgraded",
      "type": "event"
    },
    {
      "anonymous": false,
      "inputs": [
        {
          "indexed": true,
          "internalType": "address",
          "name": "hook",
          "type": "address"
        }
      ],
      "name": "HookAdded",
      "type": "event"
    },
    {
      "anonymous": false,
      "inputs": [
        {
          "indexed": true,
          "internalType": "address",
          "name": "hook",
          "type": "address"
        }
      ],
      "name": "HookRemoved",
      "type": "event"
    },
    {
      "anonymous": false,
      "inputs": [
        {
          "indexed": true,
          "internalType": "address",
          "name": "sourceWorld",
          "type": "address"
        },
        {
          "indexed": true,
          "internalType": "address",
          "name": "sourceCompany",
          "type": "address"
        },
        {
          "indexed": true,
          "internalType": "address",
          "name": "avatar",
          "type": "address"
        },
        {
          "indexed": false,
          "internalType": "uint256",
          "name": "attachedFees",
          "type": "uint256"
        }
      ],
      "name": "JumpEntry",
      "type": "event"
    },
    {
      "anonymous": false,
      "inputs": [
        {
          "indexed": false,
          "internalType": "uint256",
          "name": "newFee",
          "type": "uint256"
        }
      ],
      "name": "PortalFeeChanged",
      "type": "event"
    },
    {
      "inputs": [
        {
          "internalType": "contract IExperienceHook",
          "name": "_hook",
          "type": "address"
        }
      ],
      "name": "addHook",
      "outputs": [],
      "stateMutability": "nonpayable",
      "type": "function"
    },
    {
      "inputs": [
        {
          "internalType": "contract IPortalCondition",
          "name": "condition",
          "type": "address"
        }
      ],
      "name": "addPortalCondition",
      "outputs": [],
      "stateMutability": "nonpayable",
      "type": "function"
    },
    {
      "inputs": [
        {
          "internalType": "uint256",
          "name": "fee",
          "type": "uint256"
        }
      ],
      "name": "changePortalFee",
      "outputs": [],
      "stateMutability": "nonpayable",
      "type": "function"
    },
    {
      "inputs": [],
      "name": "company",
      "outputs": [
        {
          "internalType": "address",
          "name": "",
          "type": "address"
        }
      ],
      "stateMutability": "view",
      "type": "function"
    },
    {
      "inputs": [],
      "name": "connectionDetails",
      "outputs": [
        {
          "internalType": "bytes",
          "name": "",
          "type": "bytes"
        }
      ],
      "stateMutability": "view",
      "type": "function"
    },
    {
      "inputs": [
        {
          "components": [
            {
              "internalType": "uint256",
              "name": "entryFee",
              "type": "uint256"
            },
            {
              "internalType": "bytes",
              "name": "connectionDetails",
              "type": "bytes"
            }
          ],
          "internalType": "struct ExperienceInitData",
          "name": "data",
          "type": "tuple"
        }
      ],
      "name": "encodeInitData",
      "outputs": [
        {
          "internalType": "bytes",
          "name": "",
          "type": "bytes"
        }
      ],
      "stateMutability": "pure",
      "type": "function"
    },
    {
      "inputs": [
        {
          "components": [
            {
              "internalType": "address",
              "name": "sourceWorld",
              "type": "address"
            },
            {
              "internalType": "address",
              "name": "sourceCompany",
              "type": "address"
            },
            {
              "internalType": "address",
              "name": "avatar",
              "type": "address"
            }
          ],
          "internalType": "struct JumpEntryRequest",
          "name": "request",
          "type": "tuple"
        }
      ],
      "name": "entering",
      "outputs": [
        {
          "internalType": "bytes",
          "name": "",
          "type": "bytes"
        }
      ],
      "stateMutability": "payable",
      "type": "function"
    },
    {
      "inputs": [],
      "name": "entryFee",
      "outputs": [
        {
          "internalType": "uint256",
          "name": "",
          "type": "uint256"
        }
      ],
      "stateMutability": "view",
      "type": "function"
    },
    {
      "inputs": [],
      "name": "experienceFactory",
      "outputs": [
        {
          "internalType": "address",
          "name": "",
          "type": "address"
        }
      ],
      "stateMutability": "view",
      "type": "function"
    },
    {
      "inputs": [],
      "name": "experienceRegistry",
      "outputs": [
        {
          "internalType": "contract IExperienceRegistry",
          "name": "",
          "type": "address"
        }
      ],
      "stateMutability": "view",
      "type": "function"
    },
    {
      "inputs": [
        {
          "internalType": "address",
          "name": "_company",
          "type": "address"
        },
        {
          "internalType": "string",
          "name": "_name",
          "type": "string"
        },
        {
          "components": [
            {
              "internalType": "string",
              "name": "x",
              "type": "string"
            },
            {
              "internalType": "string",
              "name": "y",
              "type": "string"
            },
            {
              "internalType": "string",
              "name": "z",
              "type": "string"
            },
            {
              "internalType": "uint256",
              "name": "t",
              "type": "uint256"
            },
            {
              "internalType": "uint256",
              "name": "p",
              "type": "uint256"
            },
            {
              "internalType": "uint256",
              "name": "p_sub",
              "type": "uint256"
            }
          ],
          "internalType": "struct VectorAddress",
          "name": "vector",
          "type": "tuple"
        },
        {
          "internalType": "bytes",
          "name": "initData",
          "type": "bytes"
        }
      ],
      "name": "init",
      "outputs": [],
      "stateMutability": "nonpayable",
      "type": "function"
    },
    {
      "inputs": [],
      "name": "name",
      "outputs": [
        {
          "internalType": "string",
          "name": "",
          "type": "string"
        }
      ],
      "stateMutability": "view",
      "type": "function"
    },
    {
      "inputs": [],
      "name": "portalRegistry",
      "outputs": [
        {
          "internalType": "contract IPortalRegistry",
          "name": "",
          "type": "address"
        }
      ],
      "stateMutability": "view",
      "type": "function"
    },
    {
      "inputs": [],
      "name": "removeHook",
      "outputs": [],
      "stateMutability": "nonpayable",
      "type": "function"
    },
    {
      "inputs": [],
      "name": "removePortalCondition",
      "outputs": [],
      "stateMutability": "nonpayable",
      "type": "function"
    },
    {
      "inputs": [
        {
          "internalType": "bytes",
          "name": "initData",
          "type": "bytes"
        }
      ],
      "name": "upgrade",
      "outputs": [],
      "stateMutability": "nonpayable",
      "type": "function"
    },
    {
      "inputs": [
        {
          "internalType": "address",
          "name": "nextVersion",
          "type": "address"
        }
      ],
      "name": "upgradeComplete",
      "outputs": [],
      "stateMutability": "nonpayable",
      "type": "function"
    },
    {
      "inputs": [],
      "name": "vectorAddress",
      "outputs": [
        {
          "components": [
            {
              "internalType": "string",
              "name": "x",
              "type": "string"
            },
            {
              "internalType": "string",
              "name": "y",
              "type": "string"
            },
            {
              "internalType": "string",
              "name": "z",
              "type": "string"
            },
            {
              "internalType": "uint256",
              "name": "t",
              "type": "uint256"
            },
            {
              "internalType": "uint256",
              "name": "p",
              "type": "uint256"
            },
            {
              "internalType": "uint256",
              "name": "p_sub",
              "type": "uint256"
            }
          ],
          "internalType": "struct VectorAddress",
          "name": "",
          "type": "tuple"
        }
      ],
      "stateMutability": "view",
      "type": "function"
    },
    {
      "inputs": [],
      "name": "version",
      "outputs": [
        {
          "internalType": "uint256",
          "name": "",
          "type": "uint256"
        }
      ],
      "stateMutability": "view",
      "type": "function"
    },
    {
      "inputs": [],
      "name": "world",
      "outputs": [
        {
          "internalType": "address",
          "name": "",
          "type": "address"
        }
      ],
      "stateMutability": "view",
      "type": "function"
    },
    {
      "stateMutability": "payable",
      "type": "receive"
    }
  ],
  "bytecode": "0x60e06040523480156200001157600080fd5b5060405162001d1838038062001d188339810160408190526200003491620001b9565b600160005580516001600160a01b0316620000965760405162461bcd60e51b815260206004820181905260248201527f457870657269656e63653a207a65726f206164647265737320666163746f727960448201526064015b60405180910390fd5b60208101516001600160a01b0316620001025760405162461bcd60e51b815260206004820152602760248201527f457870657269656e63653a207a65726f206164647265737320706f7274616c526044820152666567697374727960c81b60648201526084016200008d565b60408101516001600160a01b0316620001725760405162461bcd60e51b815260206004820152602b60248201527f457870657269656e63653a207a65726f2061646472657373206578706572696560448201526a6e6365526567697374727960a81b60648201526084016200008d565b80516001600160a01b039081166080526020820151811660a0526040909101511660c0526200023a565b80516001600160a01b0381168114620001b457600080fd5b919050565b600060608284031215620001cc57600080fd5b604051606081016001600160401b0381118282101715620001fd57634e487b7160e01b600052604160045260246000fd5b6040526200020b836200019c565b81526200021b602084016200019c565b60208201526200022e604084016200019c565b60408201529392505050565b60805160a05160c051611a7d6200029b6000396000818161038501526105750152600081816103b901528181610a0e01528181610d3301528181610dfe0152610fa0015260008181610331015281816105eb01526110760152611a7d6000f3fe6080604052600436106101235760003560e01c806358779dcf116100a057806383c342631161006457806383c34263146103535780638f09a6be14610373578063b6664934146103a7578063d97c02f7146103db578063fad94ff0146103fb57600080fd5b806358779dcf1461029f5780636904c94d146102b45780636fdfe1b6146102df5780637b4e04e8146102ff57806381bb20291461031f57600080fd5b80632fcbab9a116100e75780632fcbab9a146101ef57806330b67baa14610211578063378f17ff1461026257806354cc5a0b1461027757806354fd4d501461028a57600080fd5b806306fdde031461012f578063072ea61c1461015a5780631864a47c1461019857806325394645146101ad5780632663d1f7146101cf57600080fd5b3661012a57005b600080fd5b34801561013b57600080fd5b5061014461041b565b60405161015191906112ea565b60405180910390f35b34801561016657600080fd5b507f7ea04aef6bca987a4816974a9eadce73182071dd7a8e8812099e1d973c1ae50f545b604051908152602001610151565b3480156101a457600080fd5b506101446104de565b3480156101b957600080fd5b506101cd6101c8366004611415565b61051d565b005b3480156101db57600080fd5b506101cd6101ea36600461146a565b6105e0565b3480156101fb57600080fd5b50610204610699565b6040516101519190611487565b34801561021d57600080fd5b507f7ea04aef6bca987a4816974a9eadce73182071dd7a8e8812099e1d973c1ae506546001600160a01b03165b6040516001600160a01b039091168152602001610151565b34801561026e57600080fd5b506101cd6108e9565b61014461028536600461150a565b6109f9565b34801561029657600080fd5b5061018a600181565b3480156102ab57600080fd5b506101cd610cf9565b3480156102c057600080fd5b50600080516020611a28833981519152546001600160a01b031661024a565b3480156102eb57600080fd5b506101cd6102fa36600461146a565b610da7565b34801561030b57600080fd5b506101cd61031a36600461146a565b610e2d565b34801561032b57600080fd5b5061024a7f000000000000000000000000000000000000000000000000000000000000000081565b34801561035f57600080fd5b506101cd61036e36600461157c565b610f37565b34801561037f57600080fd5b5061024a7f000000000000000000000000000000000000000000000000000000000000000081565b3480156103b357600080fd5b5061024a7f000000000000000000000000000000000000000000000000000000000000000081565b3480156103e757600080fd5b506101446103f6366004611595565b611042565b34801561040757600080fd5b506101cd61041636600461160c565b61106b565b7f7ea04aef6bca987a4816974a9eadce73182071dd7a8e8812099e1d973c1ae50e8054606091600080516020611a288339815191529161045a9061173d565b80601f01602080910402602001604051908101604052809291908181526020018280546104869061173d565b80156104d35780601f106104a8576101008083540402835291602001916104d3565b820191906000526020600020905b8154815290600101906020018083116104b657829003601f168201915b505050505091505090565b7f7ea04aef6bca987a4816974a9eadce73182071dd7a8e8812099e1d973c1ae5108054606091600080516020611a288339815191529161045a9061173d565b600080516020611a2883398151915280546001600160a01b0316331461055e5760405162461bcd60e51b815260040161055590611777565b60405180910390fd5b604051636d941fe760e01b81526001600160a01b037f00000000000000000000000000000000000000000000000000000000000000001690636d941fe7906105aa9085906004016112ea565b600060405180830381600087803b1580156105c457600080fd5b505af11580156105d8573d6000803e3d6000fd5b505050505050565b336001600160a01b037f000000000000000000000000000000000000000000000000000000000000000016146106285760405162461bcd60e51b8152600401610555906117bc565b7f69198989339f34e10129e514286bde98979351148754faef989dde18bf6d14da80546001600160a01b031981166001600160a01b03848116918217845560405192169182907ffcdd1163294624e52a4e91ca619f82b1f2c5a096836fbd81f14e0b550fe8317790600090a3505050565b6106d26040518060c001604052806060815260200160608152602001606081526020016000815260200160008152602001600081525090565b6040805160c081019091527f7ea04aef6bca987a4816974a9eadce73182071dd7a8e8812099e1d973c1ae5088054600080516020611a288339815191529291908290829061071f9061173d565b80601f016020809104026020016040519081016040528092919081815260200182805461074b9061173d565b80156107985780601f1061076d57610100808354040283529160200191610798565b820191906000526020600020905b81548152906001019060200180831161077b57829003601f168201915b505050505081526020016001820180546107b19061173d565b80601f01602080910402602001604051908101604052809291908181526020018280546107dd9061173d565b801561082a5780601f106107ff5761010080835404028352916020019161082a565b820191906000526020600020905b81548152906001019060200180831161080d57829003601f168201915b505050505081526020016002820180546108439061173d565b80601f016020809104026020016040519081016040528092919081815260200182805461086f9061173d565b80156108bc5780601f10610891576101008083540402835291602001916108bc565b820191906000526020600020905b81548152906001019060200180831161089f57829003601f168201915b50505050508152602001600382015481526020016004820154815260200160058201548152505091505090565b600080516020611a2883398151915280546001600160a01b031633146109215760405162461bcd60e51b815260040161055590611777565b7f7ea04aef6bca987a4816974a9eadce73182071dd7a8e8812099e1d973c1ae50754600080516020611a28833981519152906001600160a01b03166109a85760405162461bcd60e51b815260206004820152601860248201527f457870657269656e63653a20686f6f6b206e6f742073657400000000000000006044820152606401610555565b60028101546040516001600160a01b039091169081907f47d0871e905ac6550f54ba266e0d90d2dc8ed67a957c064ca3438eddf4e3fd8990600090a25060020180546001600160a01b031916905550565b6060610a03611270565b336001600160a01b037f00000000000000000000000000000000000000000000000000000000000000001614610a915760405162461bcd60e51b815260206004820152602d60248201527f457870657269656e63653a2063616c6c6572206973206e6f742074686520706f60448201526c7274616c20726567697374727960981b6064820152608401610555565b7f7ea04aef6bca987a4816974a9eadce73182071dd7a8e8812099e1d973c1ae50754600080516020611a28833981519152906001600160a01b031615610bc3576002810154835160208501516040808701519051630a17c10560e21b81523060048201526001600160a01b039384166024820152918316604483015282166064820152600092919091169063285f0414906084016020604051808303816000875af1158015610b44573d6000803e3d6000fd5b505050506040513d601f19601f82011682018060405250810190610b689190611801565b905080610bc15760405162461bcd60e51b815260206004820152602160248201527f457870657269656e63653a20686f6f6b20646973616c6c6f77656420656e74726044820152607960f81b6064820152608401610555565b505b600a81015415610c5a5780600a01543414610c205760405162461bcd60e51b815260206004820152601f60248201527f457870657269656e63653a20696e636f727265637420656e74727920666565006044820152606401610555565b80546040516001600160a01b03909116903480156108fc02916000818181858888f19350505050158015610c58573d6000803e3d6000fd5b505b80600b018054610c699061173d565b80601f0160208091040260200160405190810160405280929190818152602001828054610c959061173d565b8015610ce25780601f10610cb757610100808354040283529160200191610ce2565b820191906000526020600020905b815481529060010190602001808311610cc557829003601f168201915b5050505050915050610cf46001600055565b919050565b600080516020611a2883398151915280546001600160a01b03163314610d315760405162461bcd60e51b815260040161055590611777565b7f00000000000000000000000000000000000000000000000000000000000000006001600160a01b031663021665b76040518163ffffffff1660e01b8152600401600060405180830381600087803b158015610d8c57600080fd5b505af1158015610da0573d6000803e3d6000fd5b5050505050565b600080516020611a2883398151915280546001600160a01b03163314610ddf5760405162461bcd60e51b815260040161055590611777565b604051631169a49960e11b81526001600160a01b0383811660048301527f000000000000000000000000000000000000000000000000000000000000000016906322d34932906024016105aa565b600080516020611a2883398151915280546001600160a01b03163314610e655760405162461bcd60e51b815260040161055590611777565b6001600160a01b038216610ebb5760405162461bcd60e51b815260206004820152601d60248201527f457870657269656e63653a20686f6f6b207a65726f20616464726573730000006044820152606401610555565b7f7ea04aef6bca987a4816974a9eadce73182071dd7a8e8812099e1d973c1ae50780546001600160a01b0319166001600160a01b038416908117909155604051600080516020611a2883398151915291907f28e00134722f84e69c391c81e4fe022ee3e61048222a8ea2f98c9f235f79750890600090a2505050565b600080516020611a2883398151915280546001600160a01b03163314610f6f5760405162461bcd60e51b815260040161055590611777565b6000600080516020611a28833981519152600a81018490556040516383c3426360e01b8152600481018590529091507f00000000000000000000000000000000000000000000000000000000000000006001600160a01b0316906383c3426390602401600060405180830381600087803b158015610fec57600080fd5b505af1158015611000573d6000803e3d6000fd5b505050507fc777ac489c019545540295deb6dee51fa4df4300a7b8c7b0ab785507cafeb1e98360405161103591815260200190565b60405180910390a1505050565b6060816040516020016110559190611823565b6040516020818303038152906040529050919050565b336001600160a01b037f000000000000000000000000000000000000000000000000000000000000000016146110b35760405162461bcd60e51b8152600401610555906117bc565b600080516020611a2883398151915280546001600160a01b03161561111a5760405162461bcd60e51b815260206004820152601f60248201527f457870657269656e63653a20616c726561647920696e697469616c697a6564006044820152606401610555565b80546001600160a01b0319166001600160a01b038616178155815160009061114b9060209085018101908501611848565b8451909150849060038401908190611163908261194a565b5060208201516001820190611178908261194a565b506040820151600282019061118d908261194a565b5060608201516003820155608082015160048083019190915560a09092015160059091015582546040805163185b3dd560e11b815290516001600160a01b03909216926330b67baa9282820192602092908290030181865afa1580156111f7573d6000803e3d6000fd5b505050506040513d601f19601f8201168201806040525081019061121b9190611a0a565b6001830180546001600160a01b0319166001600160a01b03929092169190911790556009820161124b868261194a565b508051600a8301556020810151600b830190611267908261194a565b50505050505050565b60026000540361129357604051633ee5aeb560e01b815260040160405180910390fd5b6002600055565b60005b838110156112b557818101518382015260200161129d565b50506000910152565b600081518084526112d681602086016020860161129a565b601f01601f19169290920160200192915050565b6020815260006112fd60208301846112be565b9392505050565b634e487b7160e01b600052604160045260246000fd5b6040805190810167ffffffffffffffff8111828210171561133d5761133d611304565b60405290565b60405160c0810167ffffffffffffffff8111828210171561133d5761133d611304565b604051601f8201601f1916810167ffffffffffffffff8111828210171561138f5761138f611304565b604052919050565b600067ffffffffffffffff8211156113b1576113b1611304565b50601f01601f191660200190565b600082601f8301126113d057600080fd5b81356113e36113de82611397565b611366565b8181528460208386010111156113f857600080fd5b816020850160208301376000918101602001919091529392505050565b60006020828403121561142757600080fd5b813567ffffffffffffffff81111561143e57600080fd5b61144a848285016113bf565b949350505050565b6001600160a01b038116811461146757600080fd5b50565b60006020828403121561147c57600080fd5b81356112fd81611452565b602081526000825160c060208401526114a360e08401826112be565b90506020840151601f19808584030160408601526114c183836112be565b92506040860151915080858403016060860152506114df82826112be565b91505060608401516080840152608084015160a084015260a084015160c08401528091505092915050565b60006060828403121561151c57600080fd5b6040516060810181811067ffffffffffffffff8211171561153f5761153f611304565b604052823561154d81611452565b8152602083013561155d81611452565b6020820152604083013561157081611452565b60408201529392505050565b60006020828403121561158e57600080fd5b5035919050565b6000602082840312156115a757600080fd5b813567ffffffffffffffff808211156115bf57600080fd5b90830190604082860312156115d357600080fd5b6115db61131a565b823581526020830135828111156115f157600080fd5b6115fd878286016113bf565b60208301525095945050505050565b6000806000806080858703121561162257600080fd5b843561162d81611452565b9350602085013567ffffffffffffffff8082111561164a57600080fd5b611656888389016113bf565b9450604087013591508082111561166c57600080fd5b9086019060c0828903121561168057600080fd5b611688611343565b82358281111561169757600080fd5b6116a38a8286016113bf565b8252506020830135828111156116b857600080fd5b6116c48a8286016113bf565b6020830152506040830135828111156116dc57600080fd5b6116e88a8286016113bf565b604083015250606083013560608201526080830135608082015260a083013560a082015280945050606087013591508082111561172457600080fd5b50611731878288016113bf565b91505092959194509250565b600181811c9082168061175157607f821691505b60208210810361177157634e487b7160e01b600052602260045260246000fd5b50919050565b60208082526025908201527f457870657269656e63653a2063616c6c6572206973206e6f742074686520636f6040820152646d70616e7960d81b606082015260800190565b60208082526025908201527f457870657269656e63653a2063616c6c6572206973206e6f742074686520666160408201526463746f727960d81b606082015260800190565b60006020828403121561181357600080fd5b815180151581146112fd57600080fd5b60208152815160208201526000602083015160408084015261144a60608401826112be565b6000602080838503121561185b57600080fd5b825167ffffffffffffffff8082111561187357600080fd5b908401906040828703121561188757600080fd5b61188f61131a565b8251815283830151828111156118a457600080fd5b80840193505086601f8401126118b957600080fd5b825191506118c96113de83611397565b82815287858486010111156118dd57600080fd5b6118ec8386830187870161129a565b938101939093525090949350505050565b601f821115611945576000816000526020600020601f850160051c810160208610156119265750805b601f850160051c820191505b818110156105d857828155600101611932565b505050565b815167ffffffffffffffff81111561196457611964611304565b61197881611972845461173d565b846118fd565b602080601f8311600181146119ad57600084156119955750858301515b600019600386901b1c1916600185901b1785556105d8565b600085815260208120601f198616915b828110156119dc578886015182559484019460019091019084016119bd565b50858210156119fa5787850151600019600388901b60f8161c191681555b5050505050600190811b01905550565b600060208284031215611a1c57600080fd5b81516112fd8161145256fe7ea04aef6bca987a4816974a9eadce73182071dd7a8e8812099e1d973c1ae505a2646970667358221220103223dfa836531c59ccf0a995fa057709a70583e6d2bf54012ccd5f016246b764736f6c63430008180033",
  "linkReferences": {},
  "deployedLinkReferences": {}
}