{
  "_format": "hh-sol-artifact-1",
  "contractName": "CoreExtensionRegistry",
  "sourceName": "contracts/ext-registry/CoreExtensionRegistry.sol",
  "abi": [
    {
      "inputs": [
        {
          "components": [
            {
              "internalType": "address",
              "name": "owner",
              "type": "address"
            },
            {
              "internalType": "address[]",
              "name": "admins",
              "type": "address[]"
            }
          ],
          "internalType": "struct CoreExtensionRegistryConstructorArgs",
          "name": "args",
          "type": "tuple"
        }
      ],
      "stateMutability": "nonpayable",
      "type": "constructor"
    },
    {
      "inputs": [
        {
          "internalType": "contract IExtension",
          "name": "_extension",
          "type": "address"
        }
      ],
      "name": "addExtension",
      "outputs": [],
      "stateMutability": "nonpayable",
      "type": "function"
    },
    {
      "inputs": [
        {
          "internalType": "contract IExtension[]",
          "name": "_extensions",
          "type": "address[]"
        }
      ],
      "name": "addExtensions",
      "outputs": [],
      "stateMutability": "nonpayable",
      "type": "function"
    },
    {
      "inputs": [
        {
          "internalType": "address[]",
          "name": "signers",
          "type": "address[]"
        }
      ],
      "name": "addSigners",
      "outputs": [],
      "stateMutability": "nonpayable",
      "type": "function"
    },
    {
      "inputs": [
        {
          "internalType": "address",
          "name": "newOwner",
          "type": "address"
        }
      ],
      "name": "changeOwner",
      "outputs": [],
      "stateMutability": "nonpayable",
      "type": "function"
    },
    {
      "inputs": [
        {
          "internalType": "string",
          "name": "name",
          "type": "string"
        }
      ],
      "name": "getExtension",
      "outputs": [
        {
          "internalType": "address",
          "name": "",
          "type": "address"
        }
      ],
      "stateMutability": "view",
      "type": "function"
    },
    {
      "inputs": [
        {
          "internalType": "bytes32",
          "name": "role",
          "type": "bytes32"
        },
        {
          "internalType": "address",
          "name": "account",
          "type": "address"
        }
      ],
      "name": "grantRole",
      "outputs": [],
      "stateMutability": "nonpayable",
      "type": "function"
    },
    {
      "inputs": [
        {
          "internalType": "bytes32",
          "name": "role",
          "type": "bytes32"
        },
        {
          "internalType": "address",
          "name": "account",
          "type": "address"
        }
      ],
      "name": "hasRole",
      "outputs": [
        {
          "internalType": "bool",
          "name": "",
          "type": "bool"
        }
      ],
      "stateMutability": "view",
      "type": "function"
    },
    {
      "inputs": [
        {
          "internalType": "address",
          "name": "account",
          "type": "address"
        }
      ],
      "name": "isAdmin",
      "outputs": [
        {
          "internalType": "bool",
          "name": "",
          "type": "bool"
        }
      ],
      "stateMutability": "view",
      "type": "function"
    },
    {
      "inputs": [
        {
          "internalType": "address",
          "name": "_extension",
          "type": "address"
        }
      ],
      "name": "isRegistered",
      "outputs": [
        {
          "internalType": "bool",
          "name": "",
          "type": "bool"
        }
      ],
      "stateMutability": "view",
      "type": "function"
    },
    {
      "inputs": [
        {
          "internalType": "address",
          "name": "account",
          "type": "address"
        }
      ],
      "name": "isSigner",
      "outputs": [
        {
          "internalType": "bool",
          "name": "",
          "type": "bool"
        }
      ],
      "stateMutability": "view",
      "type": "function"
    },
    {
      "inputs": [],
      "name": "owner",
      "outputs": [
        {
          "internalType": "address",
          "name": "",
          "type": "address"
        }
      ],
      "stateMutability": "view",
      "type": "function"
    },
    {
      "inputs": [
        {
          "internalType": "address",
          "name": "_extension",
          "type": "address"
        }
      ],
      "name": "removeExtension",
      "outputs": [],
      "stateMutability": "nonpayable",
      "type": "function"
    },
    {
      "inputs": [
        {
          "internalType": "address[]",
          "name": "signers",
          "type": "address[]"
        }
      ],
      "name": "removeSigners",
      "outputs": [],
      "stateMutability": "nonpayable",
      "type": "function"
    },
    {
      "inputs": [
        {
          "internalType": "bytes32",
          "name": "role",
          "type": "bytes32"
        },
        {
          "internalType": "address",
          "name": "account",
          "type": "address"
        }
      ],
      "name": "revokeRole",
      "outputs": [],
      "stateMutability": "nonpayable",
      "type": "function"
    },
    {
      "inputs": [
        {
          "internalType": "contract IExtension",
          "name": "_extension",
          "type": "address"
        }
      ],
      "name": "upgradeExtension",
      "outputs": [],
      "stateMutability": "nonpayable",
      "type": "function"
    },
    {
      "inputs": [
        {
          "internalType": "contract IExtension[]",
          "name": "_extensions",
          "type": "address[]"
        }
      ],
      "name": "upgradeExtensions",
      "outputs": [],
      "stateMutability": "nonpayable",
      "type": "function"
    }
  ],
  "bytecode": "0x60806040523480156200001157600080fd5b506040516200106c3803806200106c83398101604081905262000034916200013c565b8051602082015160405163d9ac971f60e01b815273__$a5a42e46683ad9c79b7b86d5ff60fdf4c1$__9263d9ac971f9262000072926004016200023a565b60006040518083038186803b1580156200008b57600080fd5b505af4158015620000a0573d6000803e3d6000fd5b505050505062000298565b634e487b7160e01b600052604160045260246000fd5b604080519081016001600160401b0381118282101715620000e657620000e6620000ab565b60405290565b604051601f8201601f191681016001600160401b0381118282101715620001175762000117620000ab565b604052919050565b80516001600160a01b03811681146200013757600080fd5b919050565b600060208083850312156200015057600080fd5b82516001600160401b03808211156200016857600080fd5b90840190604082870312156200017d57600080fd5b62000187620000c1565b62000192836200011f565b81528383015182811115620001a657600080fd5b80840193505086601f840112620001bc57600080fd5b825182811115620001d157620001d1620000ab565b8060051b9250620001e4858401620000ec565b8181529284018501928581019089851115620001ff57600080fd5b948601945b84861015620002285762000218866200011f565b8252948601949086019062000204565b95830195909552509695505050505050565b6001600160a01b038381168252604060208084018290528451918401829052600092858201929091906060860190855b818110156200028a5785518516835294830194918301916001016200026a565b509098975050505050505050565b610dc480620002a86000396000f3fe608060405234801561001057600080fd5b50600436106101005760003560e01c806391d1485411610097578063c3c5a54711610066578063c3c5a5471461020d578063d4cf798714610220578063d547741f14610233578063e8906a2d1461024657600080fd5b806391d14854146101c15780639e00494f146101d4578063a6f9dae1146101e7578063c22707ee146101fa57600080fd5b80637df73e27116100d35780637df73e27146101685780638d361e431461017b5780638da5cb5b1461018e5780638fdcd4a8146101ae57600080fd5b8063170ff3e11461010557806321ee102b1461011a57806324d7806c1461012d5780632f2ff15d14610155575b600080fd5b610118610113366004610af5565b610259565b005b610118610128366004610af5565b6102c8565b61014061013b366004610af5565b610308565b60405190151581526020015b60405180910390f35b610118610163366004610b12565b61038e565b610140610176366004610af5565b61049d565b610118610189366004610b8e565b6104e0565b6101966105a8565b6040516001600160a01b03909116815260200161014c565b6101186101bc366004610b8e565b61061c565b6101406101cf366004610b12565b610655565b6101186101e2366004610af5565b6106e2565b6101186101f5366004610af5565b610722565b610196610208366004610bd0565b610846565b61014061021b366004610af5565b6108c3565b61011861022e366004610b8e565b610906565b610118610241366004610b12565b61093f565b610118610254366004610b8e565b610a15565b60405163e0ee834160e01b81526001600160a01b038216600482015273__$350336ded3adfd2a8662d7b12d1a871d20$__9063e0ee8341906024015b60006040518083038186803b1580156102ad57600080fd5b505af41580156102c1573d6000803e3d6000fd5b5050505050565b60405163ce8aee9d60e01b81526001600160a01b038216600482015273__$350336ded3adfd2a8662d7b12d1a871d20$__9063ce8aee9d90602401610295565b604051630935e01b60e21b81526001600160a01b038216600482015260009073__$a5a42e46683ad9c79b7b86d5ff60fdf4c1$__906324d7806c906024015b602060405180830381865af4158015610364573d6000803e3d6000fd5b505050506040513d601f19601f820116820180604052508101906103889190610c42565b92915050565b604051630935e01b60e21b815233600482015273__$a5a42e46683ad9c79b7b86d5ff60fdf4c1$__906324d7806c90602401602060405180830381865af41580156103dd573d6000803e3d6000fd5b505050506040513d601f19601f820116820180604052508101906104019190610c42565b6104265760405162461bcd60e51b815260040161041d90610c64565b60405180910390fd5b604051632f2ff15d60e01b8152600481018390526001600160a01b038216602482015273__$a5a42e46683ad9c79b7b86d5ff60fdf4c1$__90632f2ff15d906044015b60006040518083038186803b15801561048157600080fd5b505af4158015610495573d6000803e3d6000fd5b505050505050565b604051637df73e2760e01b81526001600160a01b038216600482015260009073__$a5a42e46683ad9c79b7b86d5ff60fdf4c1$__90637df73e2790602401610347565b604051630935e01b60e21b815233600482015273__$a5a42e46683ad9c79b7b86d5ff60fdf4c1$__906324d7806c90602401602060405180830381865af415801561052f573d6000803e3d6000fd5b505050506040513d601f19601f820116820180604052508101906105539190610c42565b61056f5760405162461bcd60e51b815260040161041d90610c64565b604051638d361e4360e01b815273__$a5a42e46683ad9c79b7b86d5ff60fdf4c1$__90638d361e43906104699085908590600401610cb1565b600073__$a5a42e46683ad9c79b7b86d5ff60fdf4c1$__638da5cb5b6040518163ffffffff1660e01b8152600401602060405180830381865af41580156105f3573d6000803e3d6000fd5b505050506040513d601f19601f820116820180604052508101906106179190610cff565b905090565b60405163ddc2337d60e01b815273__$350336ded3adfd2a8662d7b12d1a871d20$__9063ddc2337d906104699085908590600401610d1c565b604051632474521560e21b8152600481018390526001600160a01b038216602482015260009073__$a5a42e46683ad9c79b7b86d5ff60fdf4c1$__906391d1485490604401602060405180830381865af41580156106b7573d6000803e3d6000fd5b505050506040513d601f19601f820116820180604052508101906106db9190610c42565b9392505050565b604051634c6f7da360e01b81526001600160a01b038216600482015273__$350336ded3adfd2a8662d7b12d1a871d20$__90634c6f7da390602401610295565b336001600160a01b031673__$a5a42e46683ad9c79b7b86d5ff60fdf4c1$__638da5cb5b6040518163ffffffff1660e01b8152600401602060405180830381865af4158015610775573d6000803e3d6000fd5b505050506040513d601f19601f820116820180604052508101906107999190610cff565b6001600160a01b0316146108065760405162461bcd60e51b815260206004820152602e60248201527f436f7265457874656e73696f6e52656769737472793a2063616c6c657220697360448201526d103737ba103a34329037bbb732b960911b606482015260840161041d565b6040516313af403560e01b81526001600160a01b038216600482015273__$a5a42e46683ad9c79b7b86d5ff60fdf4c1$__906313af403590602401610295565b60405163611383f760e11b815260009073__$350336ded3adfd2a8662d7b12d1a871d20$__9063c22707ee906108829086908690600401610d5f565b602060405180830381865af415801561089f573d6000803e3d6000fd5b505050506040513d601f19601f820116820180604052508101906106db9190610cff565b60405163c3c5a54760e01b81526001600160a01b038216600482015260009073__$350336ded3adfd2a8662d7b12d1a871d20$__9063c3c5a54790602401610347565b604051634bbc46e960e01b815273__$350336ded3adfd2a8662d7b12d1a871d20$__90634bbc46e9906104699085908590600401610d1c565b604051630935e01b60e21b815233600482015273__$a5a42e46683ad9c79b7b86d5ff60fdf4c1$__906324d7806c90602401602060405180830381865af415801561098e573d6000803e3d6000fd5b505050506040513d601f19601f820116820180604052508101906109b29190610c42565b6109ce5760405162461bcd60e51b815260040161041d90610c64565b60405163d547741f60e01b8152600481018390526001600160a01b038216602482015273__$a5a42e46683ad9c79b7b86d5ff60fdf4c1$__9063d547741f90604401610469565b604051630935e01b60e21b815233600482015273__$a5a42e46683ad9c79b7b86d5ff60fdf4c1$__906324d7806c90602401602060405180830381865af4158015610a64573d6000803e3d6000fd5b505050506040513d601f19601f82011682018060405250810190610a889190610c42565b610aa45760405162461bcd60e51b815260040161041d90610c64565b60405163e8906a2d60e01b815273__$a5a42e46683ad9c79b7b86d5ff60fdf4c1$__9063e8906a2d906104699085908590600401610cb1565b6001600160a01b0381168114610af257600080fd5b50565b600060208284031215610b0757600080fd5b81356106db81610add565b60008060408385031215610b2557600080fd5b823591506020830135610b3781610add565b809150509250929050565b60008083601f840112610b5457600080fd5b50813567ffffffffffffffff811115610b6c57600080fd5b6020830191508360208260051b8501011115610b8757600080fd5b9250929050565b60008060208385031215610ba157600080fd5b823567ffffffffffffffff811115610bb857600080fd5b610bc485828601610b42565b90969095509350505050565b60008060208385031215610be357600080fd5b823567ffffffffffffffff80821115610bfb57600080fd5b818501915085601f830112610c0f57600080fd5b813581811115610c1e57600080fd5b866020828501011115610c3057600080fd5b60209290920196919550909350505050565b600060208284031215610c5457600080fd5b815180151581146106db57600080fd5b6020808252602d908201527f436f7265457874656e73696f6e52656769737472793a2063616c6c657220697360408201526c103737ba1030b71030b236b4b760991b606082015260800190565b60208082528181018390526000908460408401835b86811015610cf4578235610cd981610add565b6001600160a01b031682529183019190830190600101610cc6565b509695505050505050565b600060208284031215610d1157600080fd5b81516106db81610add565b60208082528181018390526000908460408401835b86811015610cf4578235610d4481610add565b6001600160a01b031682529183019190830190600101610d31565b60208152816020820152818360408301376000818301604090810191909152601f909201601f1916010191905056fea2646970667358221220ea650eb7324cdd97eff1c96883791754922f3843856c59e02d6fa84f27d539c664736f6c63430008180033",
  "linkReferences": {
    "contracts/ext-registry/LibCoreExtensionRegistry.sol": {
      "LibCoreExtensionRegistry": [
        {
          "length": 20,
          "start": 1311
        },
        {
          "length": 20,
          "start": 1422
        },
        {
          "length": 20,
          "start": 2259
        },
        {
          "length": 20,
          "start": 2472
        },
        {
          "length": 20,
          "start": 2816
        },
        {
          "length": 20,
          "start": 2956
        },
        {
          "length": 20,
          "start": 3005
        }
      ]
    },
    "contracts/libraries/LibAccess.sol": {
      "LibAccess": [
        {
          "length": 20,
          "start": 74
        },
        {
          "length": 20,
          "start": 1489
        },
        {
          "length": 20,
          "start": 1611
        },
        {
          "length": 20,
          "start": 1779
        },
        {
          "length": 20,
          "start": 1894
        },
        {
          "length": 20,
          "start": 1949
        },
        {
          "length": 20,
          "start": 2086
        },
        {
          "length": 20,
          "start": 2132
        },
        {
          "length": 20,
          "start": 2341
        },
        {
          "length": 20,
          "start": 2518
        },
        {
          "length": 20,
          "start": 2764
        },
        {
          "length": 20,
          "start": 3068
        },
        {
          "length": 20,
          "start": 3227
        },
        {
          "length": 20,
          "start": 3282
        },
        {
          "length": 20,
          "start": 3419
        }
      ]
    }
  },
  "deployedLinkReferences": {
    "contracts/ext-registry/LibCoreExtensionRegistry.sol": {
      "LibCoreExtensionRegistry": [
        {
          "length": 20,
          "start": 631
        },
        {
          "length": 20,
          "start": 742
        },
        {
          "length": 20,
          "start": 1579
        },
        {
          "length": 20,
          "start": 1792
        },
        {
          "length": 20,
          "start": 2136
        },
        {
          "length": 20,
          "start": 2276
        },
        {
          "length": 20,
          "start": 2325
        }
      ]
    },
    "contracts/libraries/LibAccess.sol": {
      "LibAccess": [
        {
          "length": 20,
          "start": 809
        },
        {
          "length": 20,
          "start": 931
        },
        {
          "length": 20,
          "start": 1099
        },
        {
          "length": 20,
          "start": 1214
        },
        {
          "length": 20,
          "start": 1269
        },
        {
          "length": 20,
          "start": 1406
        },
        {
          "length": 20,
          "start": 1452
        },
        {
          "length": 20,
          "start": 1661
        },
        {
          "length": 20,
          "start": 1838
        },
        {
          "length": 20,
          "start": 2084
        },
        {
          "length": 20,
          "start": 2388
        },
        {
          "length": 20,
          "start": 2547
        },
        {
          "length": 20,
          "start": 2602
        },
        {
          "length": 20,
          "start": 2739
        }
      ]
    }
  }
}