{
  "_format": "hh-sol-artifact-1",
  "contractName": "FactoryExt",
  "sourceName": "contracts/extensions/registry/FactoryExt.sol",
  "abi": [
    {
      "inputs": [],
      "name": "getEntityImplementation",
      "outputs": [
        {
          "internalType": "address",
          "name": "",
          "type": "address"
        }
      ],
      "stateMutability": "view",
      "type": "function"
    },
    {
      "inputs": [],
      "name": "getEntityVersion",
      "outputs": [
        {
          "components": [
            {
              "internalType": "uint16",
              "name": "major",
              "type": "uint16"
            },
            {
              "internalType": "uint16",
              "name": "minor",
              "type": "uint16"
            }
          ],
          "internalType": "struct Version",
          "name": "",
          "type": "tuple"
        }
      ],
      "stateMutability": "view",
      "type": "function"
    },
    {
      "inputs": [
        {
          "components": [
            {
              "internalType": "address",
              "name": "owner",
              "type": "address"
            },
            {
              "internalType": "address",
              "name": "owningRegistry",
              "type": "address"
            },
            {
              "internalType": "address[]",
              "name": "admins",
              "type": "address[]"
            }
          ],
          "internalType": "struct ExtensionInitArgs",
          "name": "args",
          "type": "tuple"
        }
      ],
      "name": "initStorage",
      "outputs": [],
      "stateMutability": "nonpayable",
      "type": "function"
    },
    {
      "inputs": [
        {
          "internalType": "address",
          "name": "myAddress",
          "type": "address"
        }
      ],
      "name": "install",
      "outputs": [],
      "stateMutability": "nonpayable",
      "type": "function"
    },
    {
      "inputs": [],
      "name": "metadata",
      "outputs": [
        {
          "components": [
            {
              "internalType": "string",
              "name": "name",
              "type": "string"
            },
            {
              "components": [
                {
                  "internalType": "uint16",
                  "name": "major",
                  "type": "uint16"
                },
                {
                  "internalType": "uint16",
                  "name": "minor",
                  "type": "uint16"
                }
              ],
              "internalType": "struct Version",
              "name": "version",
              "type": "tuple"
            }
          ],
          "internalType": "struct ExtensionMetadata",
          "name": "",
          "type": "tuple"
        }
      ],
      "stateMutability": "pure",
      "type": "function"
    },
    {
      "inputs": [
        {
          "internalType": "address",
          "name": "_entityImplementation",
          "type": "address"
        }
      ],
      "name": "setEntityImplementation",
      "outputs": [],
      "stateMutability": "nonpayable",
      "type": "function"
    },
    {
      "inputs": [
        {
          "internalType": "address",
          "name": "myAddress",
          "type": "address"
        }
      ],
      "name": "upgrade",
      "outputs": [],
      "stateMutability": "nonpayable",
      "type": "function"
    }
  ],
  "bytecode": "0x608060405234801561001057600080fd5b506107d0806100206000396000f3fe608060405234801561001057600080fd5b506004361061007d5760003560e01c80635e0409621161005b5780635e040962146100c6578063689c48f0146100db578063729963c0146100fb578063cdbe22111461010957600080fd5b80630900f010146100825780632a1b8f9b14610095578063392f37e9146100a8575b600080fd5b61009361009036600461053a565b50565b005b6100936100a336600461053a565b61011c565b6100b0610337565b6040516100bd91906105a4565b60405180910390f35b6100ce610387565b6040516100bd91906105ed565b6100e361040c565b6040516001600160a01b0390911681526020016100bd565b610093610090366004610612565b61009361011736600461053a565b61047b565b60408051600380825260808201909252600091816020015b60408051808201909152600081526060602082015281526020019060019003908161013457505060408051808201825263cdbe221160e01b8152815180830190925260208083527f736574456e74697479496d706c656d656e746174696f6e2861646472657373298382015281019190915281519192509082906000906101bd576101bd61064d565b6020026020010181905250604051806040016040528063689c48f060e01b6001600160e01b03191681526020016040518060400160405280601981526020017f676574456e74697479496d706c656d656e746174696f6e282900000000000000815250815250816001815181106102365761023661064d565b60200260200101819052506040518060400160405280635e04096260e01b6001600160e01b031916815260200160405180604001604052806012815260200171676574456e7469747956657273696f6e282960701b815250815250816002815181106102a4576102a461064d565b602002602001018190525073__$307c3a572bdf5d9800a89b3fc2eb3d5604$__63964d13f06040518060400160405280856001600160a01b03168152602001848152506040518263ffffffff1660e01b81526004016103039190610663565b60006040518083038186803b15801561031b57600080fd5b505af415801561032f573d6000803e3d6000fd5b505050505050565b61033f6104e9565b5060408051608081018252600a81830190815269119858dd1bdc9e515e1d60b21b60608301528152815180830190925260018252600060208381019190915281019190915290565b604080518082019091526000808252602082015273__$e1fef5d4b1bfc4a605b7eb127c84f71416$__635e0409626040518163ffffffff1660e01b81526004016040805180830381865af41580156103e3573d6000803e3d6000fd5b505050506040513d601f19601f820116820180604052508101906104079190610714565b905090565b600073__$e1fef5d4b1bfc4a605b7eb127c84f71416$__63689c48f06040518163ffffffff1660e01b8152600401602060405180830381865af4158015610457573d6000803e3d6000fd5b505050506040513d601f19601f82011682018060405250810190610407919061077d565b60405163cdbe221160e01b81526001600160a01b038216600482015273__$e1fef5d4b1bfc4a605b7eb127c84f71416$__9063cdbe22119060240160006040518083038186803b1580156104ce57600080fd5b505af41580156104e2573d6000803e3d6000fd5b5050505050565b6040518060400160405280606081526020016105206040518060400160405280600061ffff168152602001600061ffff1681525090565b905290565b6001600160a01b038116811461009057600080fd5b60006020828403121561054c57600080fd5b813561055781610525565b9392505050565b6000815180845260005b8181101561058457602081850181015186830182015201610568565b506000602082860101526020601f19601f83011685010191505092915050565b6020815260008251606060208401526105c0608084018261055e565b905060208401516105e56040850182805161ffff908116835260209182015116910152565b509392505050565b6040810161060c8284805161ffff908116835260209182015116910152565b92915050565b60006020828403121561062457600080fd5b813567ffffffffffffffff81111561063b57600080fd5b82016060818503121561055757600080fd5b634e487b7160e01b600052603260045260246000fd5b602080825282516001600160a01b031682820152828101516040808401819052815160608501819052600093926080600583901b87018101939185019290870190865b818110156106ef57888603607f19018352845180516001600160e01b03191687528701518787018590526106dc8588018261055e565b96505093860193918601916001016106a6565b509398975050505050505050565b805161ffff8116811461070f57600080fd5b919050565b60006040828403121561072657600080fd5b6040516040810181811067ffffffffffffffff8211171561075757634e487b7160e01b600052604160045260246000fd5b604052610763836106fd565b8152610771602084016106fd565b60208201529392505050565b60006020828403121561078f57600080fd5b81516105578161052556fea264697066735822122012f3e554f97e29f29bf7db4a6c212cb2966dfca2aff27d13a9ea06b1a394ce6064736f6c63430008180033",
  "linkReferences": {
    "contracts/libraries/LibExtensions.sol": {
      "LibExtensions": [
        {
          "length": 20,
          "start": 721
        }
      ]
    },
    "contracts/libraries/LibFactory.sol": {
      "LibFactory": [
        {
          "length": 20,
          "start": 957
        },
        {
          "length": 20,
          "start": 1072
        },
        {
          "length": 20,
          "start": 1209
        }
      ]
    }
  },
  "deployedLinkReferences": {
    "contracts/libraries/LibExtensions.sol": {
      "LibExtensions": [
        {
          "length": 20,
          "start": 689
        }
      ]
    },
    "contracts/libraries/LibFactory.sol": {
      "LibFactory": [
        {
          "length": 20,
          "start": 925
        },
        {
          "length": 20,
          "start": 1040
        },
        {
          "length": 20,
          "start": 1177
        }
      ]
    }
  }
}