{
  "_format": "hh-sol-artifact-1",
  "contractName": "FactoryExt",
  "sourceName": "contracts/extensions/registry/FactoryExt.sol",
  "abi": [
    {
      "inputs": [
        {
          "internalType": "uint256",
          "name": "value",
          "type": "uint256"
        },
        {
          "internalType": "uint256",
          "name": "length",
          "type": "uint256"
        }
      ],
      "name": "StringsInsufficientHexLength",
      "type": "error"
    },
    {
      "inputs": [],
      "name": "getEntityImplementation",
      "outputs": [
        {
          "internalType": "address",
          "name": "",
          "type": "address"
        }
      ],
      "stateMutability": "view",
      "type": "function"
    },
    {
      "inputs": [],
      "name": "getEntityVersion",
      "outputs": [
        {
          "components": [
            {
              "internalType": "uint16",
              "name": "major",
              "type": "uint16"
            },
            {
              "internalType": "uint16",
              "name": "minor",
              "type": "uint16"
            }
          ],
          "internalType": "struct Version",
          "name": "",
          "type": "tuple"
        }
      ],
      "stateMutability": "view",
      "type": "function"
    },
    {
      "inputs": [
        {
          "components": [
            {
              "internalType": "address",
              "name": "owner",
              "type": "address"
            },
            {
              "internalType": "address",
              "name": "owningRegistry",
              "type": "address"
            },
            {
              "internalType": "address[]",
              "name": "admins",
              "type": "address[]"
            }
          ],
          "internalType": "struct ExtensionInitArgs",
          "name": "args",
          "type": "tuple"
        }
      ],
      "name": "initStorage",
      "outputs": [],
      "stateMutability": "nonpayable",
      "type": "function"
    },
    {
      "inputs": [
        {
          "internalType": "address",
          "name": "myAddress",
          "type": "address"
        }
      ],
      "name": "install",
      "outputs": [],
      "stateMutability": "nonpayable",
      "type": "function"
    },
    {
      "inputs": [],
      "name": "metadata",
      "outputs": [
        {
          "components": [
            {
              "internalType": "string",
              "name": "name",
              "type": "string"
            },
            {
              "components": [
                {
                  "internalType": "uint16",
                  "name": "major",
                  "type": "uint16"
                },
                {
                  "internalType": "uint16",
                  "name": "minor",
                  "type": "uint16"
                }
              ],
              "internalType": "struct Version",
              "name": "version",
              "type": "tuple"
            }
          ],
          "internalType": "struct ExtensionMetadata",
          "name": "",
          "type": "tuple"
        }
      ],
      "stateMutability": "pure",
      "type": "function"
    },
    {
      "inputs": [
        {
          "internalType": "address",
          "name": "_entityImplementation",
          "type": "address"
        }
      ],
      "name": "setEntityImplementation",
      "outputs": [],
      "stateMutability": "nonpayable",
      "type": "function"
    },
    {
      "inputs": [
        {
          "internalType": "address",
          "name": "myAddress",
          "type": "address"
        }
      ],
      "name": "upgrade",
      "outputs": [],
      "stateMutability": "nonpayable",
      "type": "function"
    }
  ],
  "bytecode": "0x608060405234801561001057600080fd5b50610ce3806100206000396000f3fe608060405234801561001057600080fd5b506004361061007d5760003560e01c80635e0409621161005b5780635e040962146100c6578063689c48f0146100db578063729963c0146100fb578063cdbe22111461010957600080fd5b80630900f010146100825780632a1b8f9b14610095578063392f37e9146100a8575b600080fd5b6100936100903660046108da565b50565b005b6100936100a33660046108da565b61011c565b6100b06102d9565b6040516100bd919061094e565b60405180910390f35b6100ce610329565b6040516100bd9190610997565b6100e36103ae565b6040516001600160a01b0390911681526020016100bd565b6100936100903660046109b6565b6100936101173660046108da565b61041d565b60408051600380825260808201909252600091816020015b60408051808201909152600081526060602082015281526020019060019003908161013457505060408051808201825263cdbe221160e01b8152815180830190925260208083527f736574456e74697479496d706c656d656e746174696f6e2861646472657373298382015281019190915281519192509082906000906101bd576101bd610a07565b6020026020010181905250604051806040016040528063689c48f060e01b6001600160e01b03191681526020016040518060400160405280601981526020017f676574456e74697479496d706c656d656e746174696f6e2829000000000000008152508152508160018151811061023657610236610a07565b60200260200101819052506040518060400160405280635e04096260e01b6001600160e01b031916815260200160405180604001604052806012815260200171676574456e7469747956657273696f6e282960701b815250815250816002815181106102a4576102a4610a07565b60200260200101819052506102d56040518060400160405280846001600160a01b031681526020018381525061048b565b5050565b6102e1610889565b5060408051608081018252600a81830190815269119858dd1bdc9e515e1d60b21b60608301528152815180830190925260018252600060208381019190915281019190915290565b604080518082019091526000808252602082015273__$e1fef5d4b1bfc4a605b7eb127c84f71416$__635e0409626040518163ffffffff1660e01b81526004016040805180830381865af4158015610385573d6000803e3d6000fd5b505050506040513d601f19601f820116820180604052508101906103a99190610a34565b905090565b600073__$e1fef5d4b1bfc4a605b7eb127c84f71416$__63689c48f06040518163ffffffff1660e01b8152600401602060405180830381865af41580156103f9573d6000803e3d6000fd5b505050506040513d601f19601f820116820180604052508101906103a99190610a9d565b60405163cdbe221160e01b81526001600160a01b038216600482015273__$e1fef5d4b1bfc4a605b7eb127c84f71416$__9063cdbe22119060240160006040518083038186803b15801561047057600080fd5b505af4158015610484573d6000803e3d6000fd5b5050505050565b6000610495610657565b82516001600160a01b031660009081526020829052604081209192505b836020015151811015610651576000846020015182815181106104d7576104d7610a07565b6020908102919091018101518051600486810180546001808201835560009283528683206008830401805463ffffffff600790941690950261010090810a9384021990951660e09690961c9290920294909417905583516001600160e01b0319168152918801909352604090208054919350916001600160a01b03910416156105d957805461010090046001600160a01b031660009081526020869052604081208751909190600187019061058b906106ed565b6020808701516040516105a5949392600188019101610b57565b60405160208183030381529060405290508060405162461bcd60e51b81526004016105d09190610c30565b60405180910390fd5b50604080518082018252600180825287516001600160a01b03908116602080850191825295516001600160e01b0319166000908152898401909652939094209151825493516001600160a81b0319909416901515610100600160a81b03191617610100939094169290920292909217909155016104b2565b50505050565b60408051808201909152601881527f78722e657874656e73696f6e732e73746f726167652e7631000000000000000060209091015260008060ff6106bc60017fb58ec9ca7ba0606d9fecd9f559655d0e5fec418e6751b65b892bccdfd25eb99f610c59565b6040516020016106ce91815260200190565b60408051601f1981840301815291905280516020909101201692915050565b60606107036001600160a01b0383166014610709565b92915050565b6060826000610719846002610c6c565b610724906002610c83565b67ffffffffffffffff81111561073c5761073c6109f1565b6040519080825280601f01601f191660200182016040528015610766576020820181803683370190505b509050600360fc1b8160008151811061078157610781610a07565b60200101906001600160f81b031916908160001a905350600f60fb1b816001815181106107b0576107b0610a07565b60200101906001600160f81b031916908160001a90535060006107d4856002610c6c565b6107df906001610c83565b90505b6001811115610857576f181899199a1a9b1b9c1cb0b131b232b360811b83600f166010811061081357610813610a07565b1a60f81b82828151811061082957610829610a07565b60200101906001600160f81b031916908160001a90535060049290921c9161085081610c96565b90506107e2565b5081156108815760405163e22e27eb60e01b815260048101869052602481018590526044016105d0565b949350505050565b6040518060400160405280606081526020016108c06040518060400160405280600061ffff168152602001600061ffff1681525090565b905290565b6001600160a01b038116811461009057600080fd5b6000602082840312156108ec57600080fd5b81356108f7816108c5565b9392505050565b60005b83811015610919578181015183820152602001610901565b50506000910152565b6000815180845261093a8160208601602086016108fe565b601f01601f19169290920160200192915050565b60208152600082516060602084015261096a6080840182610922565b9050602084015161098f6040850182805161ffff908116835260209182015116910152565b509392505050565b604081016107038284805161ffff908116835260209182015116910152565b6000602082840312156109c857600080fd5b813567ffffffffffffffff8111156109df57600080fd5b8201606081850312156108f757600080fd5b634e487b7160e01b600052604160045260246000fd5b634e487b7160e01b600052603260045260246000fd5b805161ffff81168114610a2f57600080fd5b919050565b600060408284031215610a4657600080fd5b6040516040810181811067ffffffffffffffff82111715610a7757634e487b7160e01b600052604160045260246000fd5b604052610a8383610a1d565b8152610a9160208401610a1d565b60208201529392505050565b600060208284031215610aaf57600080fd5b81516108f7816108c5565b8054600090600181811c9080831680610ad457607f831692505b60208084108203610af557634e487b7160e01b600052602260045260246000fd5b818015610b095760018114610b1e57610b4b565b60ff1986168952841515850289019650610b4b565b60008881526020902060005b86811015610b435781548b820152908501908301610b2a565b505084890196505b50505050505092915050565b7f4c6962457874656e73696f6e3a20657874656e73696f6e20000000000000000081526000610b896018830187610aba565b6c01030ba1030b2323932b9b99d1609d1b81528551610baf81600d840160208a016108fe565b7f20617474656d7074696e6720746f20726575736520612073656c6563746f7200600d92909101918201528451610bed81602c8401602089016108fe565b7f20616c7265616479207265676973746572656420627920000000000000000000602c9290910191820152610c256043820185610aba565b979650505050505050565b6020815260006108f76020830184610922565b634e487b7160e01b600052601160045260246000fd5b8181038181111561070357610703610c43565b808202811582820484141761070357610703610c43565b8082018082111561070357610703610c43565b600081610ca557610ca5610c43565b50600019019056fea26469706673582212203c9c3939142331b8611ffc609e5efbf8f58d5c17a4823c00ff5aa7d778636a7a64736f6c63430008180033",
  "linkReferences": {
    "contracts/libraries/LibFactory.sol": {
      "LibFactory": [
        {
          "length": 20,
          "start": 863
        },
        {
          "length": 20,
          "start": 978
        },
        {
          "length": 20,
          "start": 1115
        }
      ]
    }
  },
  "deployedLinkReferences": {
    "contracts/libraries/LibFactory.sol": {
      "LibFactory": [
        {
          "length": 20,
          "start": 831
        },
        {
          "length": 20,
          "start": 946
        },
        {
          "length": 20,
          "start": 1083
        }
      ]
    }
  }
}