{
  "_format": "hh-sol-artifact-1",
  "contractName": "LibRegistration",
  "sourceName": "contracts/libraries/LibRegistration.sol",
  "abi": [
    {
      "inputs": [],
      "name": "ECDSAInvalidSignature",
      "type": "error"
    },
    {
      "inputs": [
        {
          "internalType": "uint256",
          "name": "length",
          "type": "uint256"
        }
      ],
      "name": "ECDSAInvalidSignatureLength",
      "type": "error"
    },
    {
      "inputs": [
        {
          "internalType": "bytes32",
          "name": "s",
          "type": "bytes32"
        }
      ],
      "name": "ECDSAInvalidSignatureS",
      "type": "error"
    },
    {
      "inputs": [],
      "name": "DAY",
      "outputs": [
        {
          "internalType": "uint256",
          "name": "",
          "type": "uint256"
        }
      ],
      "stateMutability": "view",
      "type": "function"
    },
    {
      "inputs": [
        {
          "internalType": "string",
          "name": "nm",
          "type": "string"
        }
      ],
      "name": "getEntityByName",
      "outputs": [
        {
          "internalType": "address",
          "name": "",
          "type": "address"
        }
      ],
      "stateMutability": "view",
      "type": "function"
    },
    {
      "inputs": [
        {
          "internalType": "address",
          "name": "addr",
          "type": "address"
        }
      ],
      "name": "isRegistered",
      "outputs": [
        {
          "internalType": "bool",
          "name": "",
          "type": "bool"
        }
      ],
      "stateMutability": "view",
      "type": "function"
    },
    {
      "inputs": [
        {
          "components": [
            {
              "internalType": "address",
              "name": "owner",
              "type": "address"
            },
            {
              "internalType": "address",
              "name": "termsOwner",
              "type": "address"
            },
            {
              "components": [
                {
                  "internalType": "uint16",
                  "name": "coveragePeriodDays",
                  "type": "uint16"
                },
                {
                  "internalType": "uint16",
                  "name": "gracePeriodDays",
                  "type": "uint16"
                },
                {
                  "internalType": "uint256",
                  "name": "fee",
                  "type": "uint256"
                }
              ],
              "internalType": "struct RegistrationTerms",
              "name": "terms",
              "type": "tuple"
            },
            {
              "internalType": "uint256",
              "name": "expiration",
              "type": "uint256"
            },
            {
              "internalType": "bytes",
              "name": "ownerTermsSignature",
              "type": "bytes"
            }
          ],
          "internalType": "struct TermsSignatureVerification",
          "name": "args",
          "type": "tuple"
        }
      ],
      "name": "verifyNewEntityTermsSignature",
      "outputs": [],
      "stateMutability": "view",
      "type": "function"
    }
  ],
  "bytecode": "0x611e2861003a600b82828239805160001a60731461002d57634e487b7160e01b600052600060045260246000fd5b30600052607381538281f3fe73000000000000000000000000000000000000000030146080604052600436106100875760003560e01c8063af2e5d0511610065578063af2e5d05146100f6578063bca13f7014610116578063bf52415b14610136578063c3c5a5471461014957600080fd5b806327cfe8561461008c5780633e88a4e2146100a9578063474df879146100d4575b600080fd5b6100966201518081565b6040519081526020015b60405180910390f35b6100bc6100b7366004611629565b61016c565b6040516001600160a01b0390911681526020016100a0565b8180156100e057600080fd5b506100f46100ef366004611854565b6101ec565b005b81801561010257600080fd5b506100f4610111366004611854565b6106b3565b81801561012257600080fd5b506100f461013136600461197d565b610a48565b6100f46101443660046119b8565b610c1d565b61015c610157366004611a7a565b610da9565b60405190151581526020016100a0565b600080610177610e0b565b9050806002016101bc85858080601f016020809104026020016040519081016040528093929190818152602001838380828437600092019190915250610ea192505050565b6040516101c99190611ab9565b908152604051908190036020019020546001600160a01b03169150505b92915050565b80516001600160a01b0381166102595760405162461bcd60e51b815260206004820152602760248201527f526567697374726174696f6e4578743a20656e74697479206372656174696f6e6044820152660819985a5b195960ca1b60648201526084015b60405180910390fd5b600082602001516020015161ffff16116102d25760405162461bcd60e51b815260206004820152603460248201527f526567697374726174696f6e4578743a20677261636520706572696f64206d75604482015273073742062652067726561746572207468616e20360641b6064820152608401610250565b8060006102dd610e0b565b6001600160a01b03831660008181526020839052604080822081516306fdde0360e01b815291519495509391926103669290916306fdde0391600480830192879291908290030181865afa158015610339573d6000803e3d6000fd5b505050506040513d6000823e601f3d908101601f191682016040526103619190810190611ad5565b610ea1565b905060008151116103895760405162461bcd60e51b815260040161025090611b4c565b60006001600160a01b031683600201826040516103a69190611ab9565b908152604051908190036020019020546001600160a01b0316146104275760405162461bcd60e51b815260206004820152603260248201527f526567697374726174696f6e4d6f64756c653a20656e74697479206e616d6520604482015271185b1c9958591e481c9959da5cdd195c995960721b6064820152608401610250565b81546001600160a01b0316156104b15760405162461bcd60e51b815260206004820152604360248201527f526567697374726174696f6e4d6f64756c653a20656e7469747920616c72656160448201527f64792072656769737465726564207769746820646966666572656e74206e616d606482015262653f3f60e81b608482015260a401610250565b60408051606081018252602080890180515161ffff9081168085528251840151909116928401839052905184015183850181905286546001600160a01b031916331787556001870180546201000090940263ffffffff1990941690921792909217905560028086019190915542600386015591519091869190860190610538908590611ab9565b908152604080519182900360200190912080546001600160a01b03939093166001600160a01b0319909316929092179091558701515151156106aa5760408088015190516329a6121760e21b815260009173__$ad2b23306edd42b5f4873830e307b82d47$__9163a698485c916105b191600401611bbd565b600060405180830381865af41580156105ce573d6000803e3d6000fd5b505050506040513d6000823e601f3d908101601f191682016040526105f69190810190611ad5565b8051602080830191909120600081815260038901909252604090912054919250906001600160a01b03161561067f5760405162461bcd60e51b815260206004820152602960248201527f526567697374726174696f6e4d6f64756c653a20766563746f7220616c726561604482015268647920696e2075736560b81b6064820152608401610250565b6000908152600386016020526040902080546001600160a01b0319166001600160a01b038916179055505b50505050505050565b80516001600160a01b03811661071b5760405162461bcd60e51b815260206004820152602760248201527f4c6962526567697374726174696f6e3a20656e74697479206372656174696f6e6044820152660819985a5b195960ca1b6064820152608401610250565b806000610726610e0b565b6001600160a01b038416600090815260018201602052604090205490915060ff16156107a75760405162461bcd60e51b815260206004820152602a60248201527f526567697374726174696f6e4578743a20656e7469747920616c7265616479206044820152691c9959da5cdd195c995960b21b6064820152608401610250565b60006107ea836001600160a01b03166306fdde036040518163ffffffff1660e01b8152600401600060405180830381865afa158015610339573d6000803e3d6000fd5b9050600081511161080d5760405162461bcd60e51b815260040161025090611b4c565b60006001600160a01b0316826002018260405161082a9190611ab9565b908152604051908190036020019020546001600160a01b0316146108a85760405162461bcd60e51b815260206004820152602f60248201527f526567697374726174696f6e4578743a20656e74697479206e616d6520616c7260448201526e1958591e481c9959da5cdd195c9959608a1b6064820152608401610250565b8382600201826040516108bb9190611ab9565b908152604080516020928190038301902080546001600160a01b0319166001600160a01b0394851617905591861660009081526001858101909252829020805460ff19169091179055850151515115610a415760408086015190516329a6121760e21b815260009173__$ad2b23306edd42b5f4873830e307b82d47$__9163a698485c9161094b91600401611bbd565b600060405180830381865af4158015610968573d6000803e3d6000fd5b505050506040513d6000823e601f3d908101601f191682016040526109909190810190611ad5565b8051602080830191909120600081815260038701909252604090912054919250906001600160a01b031615610a165760405162461bcd60e51b815260206004820152602660248201527f526567697374726174696f6e4578743a20766563746f7220616c726561647920604482015265696e2075736560d01b6064820152608401610250565b6000908152600384016020526040902080546001600160a01b0319166001600160a01b038716179055505b5050505050565b6000610a52610e0b565b905060008181610a656020860186611a7a565b6001600160a01b03908116825260208201929092526040016000208054909250163314610afc576040805162461bcd60e51b81526020600482015260248101919091527f526567697374726174696f6e4d6f64756c653a2073656e646572206973206e6f60448201527f7420746865207465726d73206f776e657220666f722074686520656e746974796064820152608401610250565b336001600160a01b0316634f05c1c86040518163ffffffff1660e01b8152600401602060405180830381865afa158015610b3a573d6000803e3d6000fd5b505050506040513d601f19601f82011682018060405250810190610b5e9190611c40565b610bd05760405162461bcd60e51b815260206004820152603a60248201527f526567697374726174696f6e4d6f64756c653a20656e74697479207465726d7360448201527f206f776e6572206973206e6f206c6f6e676572206163746976650000000000006064820152608401610250565b6000610bdb84610f11565b8051600184018054602084015161ffff908116620100000263ffffffff1990921693169290921791909117905560400151600283015550426003909101555050565b42816060015111610c405760405162461bcd60e51b815260040161025090611c62565b6020808201516040808401518082015181519185015160608701519351600096610c9c969593949391016001600160a01b03959095168552602085019390935261ffff9182166040850152166060830152608082015260a00190565b60408051808303601f190181528282528051602091820120818452838301909252909250600091906020820181803683370190505090508160208201526000610ce482611231565b90506000610cf682866080015161126c565b905084600001516001600160a01b0316816001600160a01b031614610a415760405162461bcd60e51b815260206004820152605860248201527f42617365526567697374726174696f6e4d6f64756c653a20656e74697479206f60448201527f776e6572207369676e617475726520766572696679696e67206665657320616e60648201527f64207465726d73206f776e657220697320696e76616c69640000000000000000608482015260a401610250565b600080610db4610e0b565b6001600160a01b038416600090815260018201602052604090205490915060ff168015610de5575060019392505050565b506001600160a01b03928316600090815260209190915260409020549091161515919050565b60408051808201909152601a81527f78722e726567697374726174696f6e2e73746f726167652e763100000000000060209091015260008060ff610e7060017f271c1317c5e13243c6727efe146b62181e041180f0dc93ece4eabc002b7978cb611cd5565b604051602001610e8291815260200190565b60408051601f1981840301815291905280516020909101201692915050565b60608160005b8151811015610f0a57610ed9828281518110610ec557610ec5611ce8565b01602001516001600160f81b031916611296565b828281518110610eeb57610eeb611ce8565b60200101906001600160f81b031916908160001a905350600101610ea7565b5092915050565b604080516060810182526000808252602082018190528183015290429083013511610f4e5760405162461bcd60e51b815260040161025090611c62565b6000610f58610e0b565b905060008181610f6b6020870187611a7a565b6001600160a01b0390811682526020808301939093526040918201600020805483516309e0b83960e31b81529351919550909116928392634f05c1c892600480830193928290030181865afa158015610fc8573d6000803e3d6000fd5b505050506040513d601f19601f82011682018060405250810190610fec9190611c40565b61105e5760405162461bcd60e51b815260206004820152603e60248201527f42617365526567697374726174696f6e4d6f64756c653a20656e74697479207460448201527f65726d73206f776e6572206973206e6f206c6f6e6765722061637469766500006064820152608401610250565b600061107236879003870160608801611cfe565b604080820151825160208085015184519182019390935261ffff918216818501529116606082015290880135608082015290915060009060a00160408051808303601f1901815282825280516020918201208184528383019092529092506000919060208201818036833701905050905081602082015260006110f482611231565b905060006111438261110960208d018d611d1a565b8080601f01602080910402602001604051908101604052809392919081815260200183838082843760009201919091525061126c92505050565b905061115260208b018b611a7a565b604051637df73e2760e01b81526001600160a01b0383811660048301529190911690637df73e2790602401602060405180830381865afa15801561119a573d6000803e3d6000fd5b505050506040513d601f19601f820116820180604052508101906111be9190611c40565b6112235760405162461bcd60e51b815260206004820152603060248201527f42617365526567697374726174696f6e4d6f64756c653a20656e74697479207360448201526f1a59db985d1d5c99481a5b9d985b1a5960821b6064820152608401610250565b509298975050505050505050565b600061123d82516112e5565b8260405160200161124f929190611d68565b604051602081830303815290604052805190602001209050919050565b60008060008061127c8686611378565b92509250925061128c82826113c5565b5090949350505050565b6000604160f81b6001600160f81b03198316108015906112c45750602d60f91b6001600160f81b0319831611155b156112e1576112d860f883901c6020611dc3565b60f81b92915050565b5090565b606060006112f283611482565b600101905060008167ffffffffffffffff8111156113125761131261169b565b6040519080825280601f01601f19166020018201604052801561133c576020820181803683370190505b5090508181016020015b600019016f181899199a1a9b1b9c1cb0b131b232b360811b600a86061a8153600a850494508461134657509392505050565b600080600083516041036113b25760208401516040850151606086015160001a6113a48882858561155a565b9550955095505050506113be565b50508151600091506002905b9250925092565b60008260038111156113d9576113d9611ddc565b036113e2575050565b60018260038111156113f6576113f6611ddc565b036114145760405163f645eedf60e01b815260040160405180910390fd5b600282600381111561142857611428611ddc565b036114495760405163fce698f760e01b815260048101829052602401610250565b600382600381111561145d5761145d611ddc565b0361147e576040516335e2f38360e21b815260048101829052602401610250565b5050565b60008072184f03e93ff9f4daa797ed6e38ed64bf6a1f0160401b83106114c15772184f03e93ff9f4daa797ed6e38ed64bf6a1f0160401b830492506040015b6d04ee2d6d415b85acef810000000083106114ed576d04ee2d6d415b85acef8100000000830492506020015b662386f26fc10000831061150b57662386f26fc10000830492506010015b6305f5e1008310611523576305f5e100830492506008015b612710831061153757612710830492506004015b60648310611549576064830492506002015b600a83106101e65760010192915050565b600080807f7fffffffffffffffffffffffffffffff5d576e7357a4501ddfe92f46681b20a0841115611595575060009150600390508261161f565b604080516000808252602082018084528a905260ff891692820192909252606081018790526080810186905260019060a0016020604051602081039080840390855afa1580156115e9573d6000803e3d6000fd5b5050604051601f1901519150506001600160a01b0381166116155750600092506001915082905061161f565b9250600091508190505b9450945094915050565b6000806020838503121561163c57600080fd5b823567ffffffffffffffff8082111561165457600080fd5b818501915085601f83011261166857600080fd5b81358181111561167757600080fd5b86602082850101111561168957600080fd5b60209290920196919550909350505050565b634e487b7160e01b600052604160045260246000fd5b6040516060810167ffffffffffffffff811182821017156116d4576116d461169b565b60405290565b60405160c0810167ffffffffffffffff811182821017156116d4576116d461169b565b60405160a0810167ffffffffffffffff811182821017156116d4576116d461169b565b604051601f8201601f1916810167ffffffffffffffff811182821017156117495761174961169b565b604052919050565b80356001600160a01b038116811461176857600080fd5b919050565b803561ffff8116811461176857600080fd5b60006060828403121561179157600080fd5b6117996116b1565b90506117a48261176d565b81526117b26020830161176d565b60208201526040820135604082015292915050565b600067ffffffffffffffff8211156117e1576117e161169b565b50601f01601f191660200190565b60006118026117fd846117c7565b611720565b905082815283838301111561181657600080fd5b828260208301376000602084830101529392505050565b600082601f83011261183e57600080fd5b61184d838335602085016117ef565b9392505050565b60006020828403121561186657600080fd5b813567ffffffffffffffff8082111561187e57600080fd5b9083019060a0828603121561189257600080fd5b61189a6116b1565b6118a383611751565b81526118b2866020850161177f565b60208201526080830135828111156118c957600080fd5b929092019160c083870312156118de57600080fd5b6118e66116da565b8335838111156118f557600080fd5b6119018882870161182d565b82525060208401358381111561191657600080fd5b6119228882870161182d565b60208301525060408401358381111561193a57600080fd5b6119468882870161182d565b604083015250606084013560608201526080840135608082015260a084013560a08201528060408301525080935050505092915050565b60006020828403121561198f57600080fd5b813567ffffffffffffffff8111156119a657600080fd5b820160c0818503121561184d57600080fd5b6000602082840312156119ca57600080fd5b813567ffffffffffffffff808211156119e257600080fd5b9083019060e082860312156119f657600080fd5b6119fe6116fd565b611a0783611751565b8152611a1560208401611751565b6020820152611a27866040850161177f565b604082015260a0830135606082015260c083013582811115611a4857600080fd5b80840193505085601f840112611a5d57600080fd5b611a6c868435602086016117ef565b608082015295945050505050565b600060208284031215611a8c57600080fd5b61184d82611751565b60005b83811015611ab0578181015183820152602001611a98565b50506000910152565b60008251611acb818460208701611a95565b9190910192915050565b600060208284031215611ae757600080fd5b815167ffffffffffffffff811115611afe57600080fd5b8201601f81018413611b0f57600080fd5b8051611b1d6117fd826117c7565b818152856020838501011115611b3257600080fd5b611b43826020830160208601611a95565b95945050505050565b60208082526025908201527f526567697374726174696f6e4578743a20656e74697479206e616d6520697320604082015264656d70747960d81b606082015260800190565b60008151808452611ba9816020860160208601611a95565b601f01601f19169290920160200192915050565b602081526000825160c06020840152611bd960e0840182611b91565b90506020840151601f1980858403016040860152611bf78383611b91565b9250604086015191508085840301606086015250611c158282611b91565b91505060608401516080840152608084015160a084015260a084015160c08401528091505092915050565b600060208284031215611c5257600080fd5b8151801515811461184d57600080fd5b60208082526038908201527f42617365526567697374726174696f6e4d6f64756c653a20657870697261746960408201527f6f6e206d75737420626520696e20746865206675747572650000000000000000606082015260800190565b634e487b7160e01b600052601160045260246000fd5b818103818111156101e6576101e6611cbf565b634e487b7160e01b600052603260045260246000fd5b600060608284031215611d1057600080fd5b61184d838361177f565b6000808335601e19843603018112611d3157600080fd5b83018035915067ffffffffffffffff821115611d4c57600080fd5b602001915036819003821315611d6157600080fd5b9250929050565b7f19457468657265756d205369676e6564204d6573736167653a0a000000000000815260008351611da081601a850160208801611a95565b835190830190611db781601a840160208801611a95565b01601a01949350505050565b60ff81811683821601908111156101e6576101e6611cbf565b634e487b7160e01b600052602160045260246000fdfea2646970667358221220d2e728814c359f69a3904ab0c109c84c65c57f0b22dd19ae6fb8aba31dfbeebe64736f6c63430008180033",
  "linkReferences": {
    "contracts/libraries/LibVectorAddress.sol": {
      "LibVectorAddress": [
        {
          "length": 20,
          "start": 1477
        },
        {
          "length": 20,
          "start": 2399
        }
      ]
    }
  },
  "deployedLinkReferences": {
    "contracts/libraries/LibVectorAddress.sol": {
      "LibVectorAddress": [
        {
          "length": 20,
          "start": 1419
        },
        {
          "length": 20,
          "start": 2341
        }
      ]
    }
  }
}