{
  "_format": "hh-sol-artifact-1",
  "contractName": "LibCoreExtensionRegistry",
  "sourceName": "contracts/ext-registry/LibCoreExtensionRegistry.sol",
  "abi": [
    {
      "inputs": [
        {
          "internalType": "string",
          "name": "name",
          "type": "string"
        }
      ],
      "name": "getExtension",
      "outputs": [
        {
          "internalType": "address",
          "name": "",
          "type": "address"
        }
      ],
      "stateMutability": "view",
      "type": "function"
    },
    {
      "inputs": [
        {
          "internalType": "address",
          "name": "_extension",
          "type": "address"
        }
      ],
      "name": "isRegistered",
      "outputs": [
        {
          "internalType": "bool",
          "name": "",
          "type": "bool"
        }
      ],
      "stateMutability": "view",
      "type": "function"
    }
  ],
  "bytecode": "0x6114e161003a600b82828239805160001a60731461002d57634e487b7160e01b600052600060045260246000fd5b30600052607381538281f3fe73000000000000000000000000000000000000000030146080604052600436106100875760003560e01c8063c3c5a54711610065578063c3c5a547146100fe578063ce8aee9d14610121578063ddc2337d14610141578063e0ee83411461016157600080fd5b80634bbc46e91461008c5780634c6f7da3146100ae578063c22707ee146100ce575b600080fd5b81801561009857600080fd5b506100ac6100a7366004610f62565b610181565b005b8180156100ba57600080fd5b506100ac6100c9366004611014565b6104d4565b6100e16100dc366004611038565b6105da565b6040516001600160a01b0390911681526020015b60405180910390f35b61011161010c366004611014565b61065a565b60405190151581526020016100f5565b81801561012d57600080fd5b506100ac61013c366004611014565b610691565b81801561014d57600080fd5b506100ac61015c366004610f62565b61089c565b81801561016d57600080fd5b506100ac61017c366004611014565b610c3e565b604051632474521560e21b815260008051602061148c833981519152600482015233602482015273__$a5a42e46683ad9c79b7b86d5ff60fdf4c1$__906391d1485490604401602060405180830381865af41580156101e4573d6000803e3d6000fd5b505050506040513d601f19601f8201168201806040525081019061020891906110aa565b61022d5760405162461bcd60e51b8152600401610224906110cc565b60405180910390fd5b6000610237610d66565b905060005b82518110156104cf5760006001600160a01b031683828151811061026257610262611112565b60200260200101516001600160a01b0316036102905760405162461bcd60e51b815260040161022490611128565b60008382815181106102a4576102a4611112565b60200260200101516001600160a01b031663392f37e96040518163ffffffff1660e01b8152600401600060405180830381865afa1580156102e9573d6000803e3d6000fd5b505050506040513d6000823e601f3d908101601f1916820160405261031191908101906111ec565b905060006103228260000151610dcc565b90506000846000018260405161033891906112be565b908152604051908190036020019020546001600160a01b03169050806103b35760405162461bcd60e51b815260206004820152602a60248201527f4c6962436f7265457874656e73696f6e3a20657874656e73696f6e206e6f74206044820152691c9959da5cdd195c995960b21b6064820152608401610224565b6001600160a01b03811660009081526001860160205260408120906103d88282610e8b565b50600101805463ffffffff1916905585518690859081106103fb576103fb611112565b6020026020010151856000018360405161041591906112be565b908152602001604051809103902060006101000a8154816001600160a01b0302191690836001600160a01b031602179055508285600101600088878151811061046057610460611112565b6020908102919091018101516001600160a01b03168252810191909152604001600020815181906104919082611364565b50602091820151805160019283018054929094015161ffff908116620100000263ffffffff199093169116171790915593909301925061023c915050565b505050565b604051632474521560e21b815260008051602061148c833981519152600482015233602482015273__$a5a42e46683ad9c79b7b86d5ff60fdf4c1$__906391d1485490604401602060405180830381865af4158015610537573d6000803e3d6000fd5b505050506040513d601f19601f8201168201806040525081019061055b91906110aa565b6105775760405162461bcd60e51b8152600401610224906110cc565b6040805160018082528183019092526000916020808301908036833701905050905081816000815181106105ad576105ad611112565b60200260200101906001600160a01b031690816001600160a01b0316815250506105d681610181565b5050565b6000806105e5610d66565b90508060000161062a85858080601f016020809104026020016040519081016040528093929190818152602001838380828437600092019190915250610dcc92505050565b60405161063791906112be565b908152604051908190036020019020546001600160a01b03169150505b92915050565b600080610665610d66565b6001600160a01b0390931660009081526001938401602052604090209092015461ffff16151592915050565b604051632474521560e21b815260008051602061148c833981519152600482015233602482015273__$a5a42e46683ad9c79b7b86d5ff60fdf4c1$__906391d1485490604401602060405180830381865af41580156106f4573d6000803e3d6000fd5b505050506040513d601f19601f8201168201806040525081019061071891906110aa565b6107345760405162461bcd60e51b8152600401610224906110cc565b600061073e610d66565b6001600160a01b038316600090815260018201602052604081209192506107658282610e8b565b506001908101805463ffffffff191690556001600160a01b0383166000908152908201602052604080822081518083019092528054829082906107a7906112da565b80601f01602080910402602001604051908101604052809291908181526020018280546107d3906112da565b80156108205780601f106107f557610100808354040283529160200191610820565b820191906000526020600020905b81548152906001019060200180831161080357829003601f168201915b5050509183525050604080518082019091526001929092015461ffff808216845262010000909104166020838101919091520152805190915060009061086590610dcc565b9050826000018160405161087991906112be565b90815260405190819003602001902080546001600160a01b031916905550505050565b604051632474521560e21b815260008051602061148c833981519152600482015233602482015273__$a5a42e46683ad9c79b7b86d5ff60fdf4c1$__906391d1485490604401602060405180830381865af41580156108ff573d6000803e3d6000fd5b505050506040513d601f19601f8201168201806040525081019061092391906110aa565b61093f5760405162461bcd60e51b8152600401610224906110cc565b6000610949610d66565b905060005b82518110156104cf5760006001600160a01b031683828151811061097457610974611112565b60200260200101516001600160a01b0316036109a25760405162461bcd60e51b815260040161022490611128565b60008382815181106109b6576109b6611112565b60200260200101516001600160a01b031663392f37e96040518163ffffffff1660e01b8152600401600060405180830381865afa1580156109fb573d6000803e3d6000fd5b505050506040513d6000823e601f3d908101601f19168201604052610a2391908101906111ec565b60208101515190915061ffff16600003610ab75760405162461bcd60e51b815260206004820152604960248201527f4c6962436f7265457874656e73696f6e3a20696e76616c696420657874656e7360448201527f696f6e2076657273696f6e2e204d7573742068617665206d616a6f722076657260648201526873696f6e203e3d203160b81b608482015260a401610224565b6000610ac68260000151610dcc565b6040519091506000908590610adc9084906112be565b908152604051908190036020019020546001600160a01b031614610b595760405162461bcd60e51b815260206004820152602e60248201527f4c6962436f7265457874656e73696f6e3a20657874656e73696f6e20616c726560448201526d18591e481c9959da5cdd195c995960921b6064820152608401610224565b848381518110610b6b57610b6b611112565b60200260200101518460000182604051610b8591906112be565b908152602001604051809103902060006101000a8154816001600160a01b0302191690836001600160a01b0316021790555081846001016000878681518110610bd057610bd0611112565b6020908102919091018101516001600160a01b0316825281019190915260400160002081518190610c019082611364565b50602091820151805160019283018054929094015161ffff908116620100000263ffffffff199093169116171790915592909201915061094e9050565b604051632474521560e21b815260008051602061148c833981519152600482015233602482015273__$a5a42e46683ad9c79b7b86d5ff60fdf4c1$__906391d1485490604401602060405180830381865af4158015610ca1573d6000803e3d6000fd5b505050506040513d601f19601f82011682018060405250810190610cc591906110aa565b610ce15760405162461bcd60e51b8152600401610224906110cc565b6001600160a01b038116610d075760405162461bcd60e51b815260040161022490611128565b604080516001808252818301909252600091602080830190803683370190505090508181600081518110610d3d57610d3d611112565b60200260200101906001600160a01b031690816001600160a01b0316815250506105d68161089c565b60008060ff60001b6001604051806060016040528060258152602001611467602591398051602090910120610d9b919061143a565b604051602001610dad91815260200190565b60408051601f1981840301815291905280516020909101201692915050565b60608160005b8151811015610e3557610e04828281518110610df057610df0611112565b01602001516001600160f81b031916610e3c565b828281518110610e1657610e16611112565b60200101906001600160f81b031916908160001a905350600101610dd2565b5092915050565b6000604160f81b6001600160f81b0319831610801590610e6a5750602d60f91b6001600160f81b0319831611155b15610e8757610e7e60f883901c602061144d565b60f81b92915050565b5090565b508054610e97906112da565b6000825580601f10610ea7575050565b601f016020900490600052602060002090810190610ec59190610ec8565b50565b5b80821115610e875760008155600101610ec9565b634e487b7160e01b600052604160045260246000fd5b6040805190810167ffffffffffffffff81118282101715610f1657610f16610edd565b60405290565b604051601f8201601f1916810167ffffffffffffffff81118282101715610f4557610f45610edd565b604052919050565b6001600160a01b0381168114610ec557600080fd5b60006020808385031215610f7557600080fd5b823567ffffffffffffffff80821115610f8d57600080fd5b818501915085601f830112610fa157600080fd5b813581811115610fb357610fb3610edd565b8060051b9150610fc4848301610f1c565b8181529183018401918481019088841115610fde57600080fd5b938501935b838510156110085784359250610ff883610f4d565b8282529385019390850190610fe3565b98975050505050505050565b60006020828403121561102657600080fd5b813561103181610f4d565b9392505050565b6000806020838503121561104b57600080fd5b823567ffffffffffffffff8082111561106357600080fd5b818501915085601f83011261107757600080fd5b81358181111561108657600080fd5b86602082850101111561109857600080fd5b60209290920196919550909350505050565b6000602082840312156110bc57600080fd5b8151801515811461103157600080fd5b60208082526026908201527f4c6962436f7265457874656e73696f6e3a207265737472696374656420746f2060408201526561646d696e7360d01b606082015260800190565b634e487b7160e01b600052603260045260246000fd5b6020808252602b908201527f4c6962436f7265457874656e73696f6e3a20657874656e73696f6e206973207a60408201526a65726f206164647265737360a81b606082015260800190565b60005b8381101561118e578181015183820152602001611176565b50506000910152565b805161ffff811681146111a957600080fd5b919050565b6000604082840312156111c057600080fd5b6111c8610ef3565b90506111d382611197565b81526111e160208301611197565b602082015292915050565b600060208083850312156111ff57600080fd5b825167ffffffffffffffff8082111561121757600080fd5b908401906060828703121561122b57600080fd5b611233610ef3565b82518281111561124257600080fd5b8301601f8101881361125357600080fd5b80518381111561126557611265610edd565b611277601f8201601f19168701610f1c565b9350808452888682840101111561128d57600080fd5b61129c81878601888501611173565b50508181526112ad878585016111ae565b848201528094505050505092915050565b600082516112d0818460208701611173565b9190910192915050565b600181811c908216806112ee57607f821691505b60208210810361130e57634e487b7160e01b600052602260045260246000fd5b50919050565b601f8211156104cf576000816000526020600020601f850160051c8101602086101561133d5750805b601f850160051c820191505b8181101561135c57828155600101611349565b505050505050565b815167ffffffffffffffff81111561137e5761137e610edd565b6113928161138c84546112da565b84611314565b602080601f8311600181146113c757600084156113af5750858301515b600019600386901b1c1916600185901b17855561135c565b600085815260208120601f198616915b828110156113f6578886015182559484019460019091019084016113d7565b50858210156114145787850151600019600388901b60f8161c191681555b5050505050600190811b01905550565b634e487b7160e01b600052601160045260246000fd5b8181038181111561065457610654611424565b60ff81811683821601908111156106545761065461142456fe78722e636f72652e657874656e73696f6e2e72656769737472792e73746f726167652e76312172861495e7b85edac73e3cd5fbb42dd675baadf627720e687bcfdaca025096a264697066735822122099f235c952f39a29ec415fd9244d9995001aa5fee562d4496e9702bf7f8abeda64736f6c63430008180033",
  "linkReferences": {
    "contracts/libraries/LibAccess.sol": {
      "LibAccess": [
        {
          "length": 20,
          "start": 484
        },
        {
          "length": 20,
          "start": 1335
        },
        {
          "length": 20,
          "start": 1780
        },
        {
          "length": 20,
          "start": 2303
        },
        {
          "length": 20,
          "start": 3233
        }
      ]
    }
  },
  "deployedLinkReferences": {
    "contracts/libraries/LibAccess.sol": {
      "LibAccess": [
        {
          "length": 20,
          "start": 426
        },
        {
          "length": 20,
          "start": 1277
        },
        {
          "length": 20,
          "start": 1722
        },
        {
          "length": 20,
          "start": 2245
        },
        {
          "length": 20,
          "start": 3175
        }
      ]
    }
  }
}