{
  "_format": "hh-sol-artifact-1",
  "contractName": "LibExtensions",
  "sourceName": "contracts/libraries/LibExtensions.sol",
  "abi": [
    {
      "inputs": [
        {
          "internalType": "uint256",
          "name": "value",
          "type": "uint256"
        },
        {
          "internalType": "uint256",
          "name": "length",
          "type": "uint256"
        }
      ],
      "name": "StringsInsufficientHexLength",
      "type": "error"
    },
    {
      "anonymous": false,
      "inputs": [
        {
          "indexed": false,
          "internalType": "string",
          "name": "name",
          "type": "string"
        }
      ],
      "name": "ExtensionDisabled",
      "type": "event"
    },
    {
      "anonymous": false,
      "inputs": [
        {
          "indexed": false,
          "internalType": "string",
          "name": "name",
          "type": "string"
        }
      ],
      "name": "ExtensionEnabled",
      "type": "event"
    },
    {
      "anonymous": false,
      "inputs": [
        {
          "indexed": false,
          "internalType": "string",
          "name": "name",
          "type": "string"
        },
        {
          "components": [
            {
              "internalType": "uint16",
              "name": "major",
              "type": "uint16"
            },
            {
              "internalType": "uint16",
              "name": "minor",
              "type": "uint16"
            }
          ],
          "indexed": false,
          "internalType": "struct Version",
          "name": "version",
          "type": "tuple"
        }
      ],
      "name": "ExtensionInstalled",
      "type": "event"
    },
    {
      "anonymous": false,
      "inputs": [
        {
          "indexed": false,
          "internalType": "string",
          "name": "name",
          "type": "string"
        },
        {
          "components": [
            {
              "internalType": "uint16",
              "name": "major",
              "type": "uint16"
            },
            {
              "internalType": "uint16",
              "name": "minor",
              "type": "uint16"
            }
          ],
          "indexed": false,
          "internalType": "struct Version",
          "name": "version",
          "type": "tuple"
        }
      ],
      "name": "ExtensionRolledBack",
      "type": "event"
    },
    {
      "anonymous": false,
      "inputs": [
        {
          "indexed": false,
          "internalType": "string",
          "name": "name",
          "type": "string"
        },
        {
          "components": [
            {
              "internalType": "uint16",
              "name": "major",
              "type": "uint16"
            },
            {
              "internalType": "uint16",
              "name": "minor",
              "type": "uint16"
            }
          ],
          "indexed": false,
          "internalType": "struct Version",
          "name": "version",
          "type": "tuple"
        }
      ],
      "name": "ExtensionUpgraded",
      "type": "event"
    },
    {
      "anonymous": false,
      "inputs": [
        {
          "indexed": false,
          "internalType": "bytes4",
          "name": "selector",
          "type": "bytes4"
        }
      ],
      "name": "SelectorDisabled",
      "type": "event"
    },
    {
      "anonymous": false,
      "inputs": [
        {
          "indexed": false,
          "internalType": "bytes4",
          "name": "selector",
          "type": "bytes4"
        }
      ],
      "name": "SelectorEnabled",
      "type": "event"
    },
    {
      "inputs": [
        {
          "internalType": "bytes4",
          "name": "selector",
          "type": "bytes4"
        }
      ],
      "name": "checkCallable",
      "outputs": [
        {
          "internalType": "address",
          "name": "",
          "type": "address"
        }
      ],
      "stateMutability": "view",
      "type": "function"
    },
    {
      "inputs": [
        {
          "internalType": "string",
          "name": "name",
          "type": "string"
        }
      ],
      "name": "getExtensionVersion",
      "outputs": [
        {
          "components": [
            {
              "internalType": "uint16",
              "name": "major",
              "type": "uint16"
            },
            {
              "internalType": "uint16",
              "name": "minor",
              "type": "uint16"
            }
          ],
          "internalType": "struct Version",
          "name": "",
          "type": "tuple"
        }
      ],
      "stateMutability": "view",
      "type": "function"
    },
    {
      "inputs": [
        {
          "internalType": "string",
          "name": "name",
          "type": "string"
        },
        {
          "components": [
            {
              "internalType": "uint16",
              "name": "major",
              "type": "uint16"
            },
            {
              "internalType": "uint16",
              "name": "minor",
              "type": "uint16"
            }
          ],
          "internalType": "struct Version",
          "name": "version",
          "type": "tuple"
        }
      ],
      "name": "hasExtension",
      "outputs": [
        {
          "internalType": "bool",
          "name": "",
          "type": "bool"
        }
      ],
      "stateMutability": "view",
      "type": "function"
    }
  ],
  "bytecode": "0x612cfd61003a600b82828239805160001a60731461002d57634e487b7160e01b600052600060045260246000fd5b30600052607381538281f3fe73000000000000000000000000000000000000000030146080604052600436106100f45760003560e01c80636fcc36cb11610096578063d9228e9d11610070578063d9228e9d1461025f578063e3c94b411461027f578063eeba99011461029f578063fcaf26d7146102bf57600080fd5b80636fcc36cb146101ff578063964d13f01461021f57806397107e081461023f57600080fd5b80633fed2400116100d25780633fed2400146101715780634c6f7da31461019c5780635324b4e2146101bc57806360fdd561146101df57600080fd5b806301232c8f146100f95780631162ec571461011b578063238a038614610151575b600080fd5b81801561010557600080fd5b506101196101143660046121fc565b6102df565b005b81801561012757600080fd5b5061013b61013636600461227e565b61066b565b6040516101489190612333565b60405180910390f35b61016461015f366004612431565b610755565b6040516101489190612465565b61018461017f366004612484565b610832565b6040516001600160a01b039091168152602001610148565b8180156101a857600080fd5b506101196101b73660046121fc565b6108ff565b6101cf6101ca3660046124b7565b610e73565b6040519015158152602001610148565b8180156101eb57600080fd5b5061013b6101fa366004612505565b6110ca565b81801561020b57600080fd5b5061011961021a366004612431565b6111dc565b81801561022b57600080fd5b5061011961023a366004612557565b61129b565b81801561024b57600080fd5b5061011961025a366004612484565b6114b4565b81801561026b57600080fd5b5061011961027a366004612431565b611554565b81801561028b57600080fd5b5061011961029a3660046121fc565b611608565b8180156102ab57600080fd5b506101196102ba366004612484565b611b7e565b8180156102cb57600080fd5b5061013b6102da36600461258b565b611c18565b60006102e9611c62565b90506040518060800160405280600115158152602001836001600160a01b031663392f37e96040518163ffffffff1660e01b8152600401600060405180830381865afa15801561033d573d6000803e3d6000fd5b505050506040513d6000823e601f3d908101601f1916820160405261036591908101906125bb565b81526001600160a01b038416602082015260400160006040519080825280602002602001820160405280156103a4578160200160208202803683370190505b5090526001600160a01b0383166000908152602083815260409091208251815460ff1916901515178155908201518051600183019081906103e59082612731565b506020918201518051600190920180549184015161ffff908116620100000263ffffffff1990931693169290921717905560408301516003830180546001600160a01b039092166001600160a01b03199092169190911790556060830151805161045592600485019201906120cc565b50505060038101805460018101825560009182526020918290200180546001600160a01b0385166001600160a01b031990911681179091556040805160248082019390935281518082039093018352604401905290810180516001600160e01b0316632a1b8f9b60e01b1790526104cc8382611cf8565b506000836001600160a01b031663392f37e96040518163ffffffff1660e01b8152600401600060405180830381865afa15801561050d573d6000803e3d6000fd5b505050506040513d6000823e601f3d908101601f1916820160405261053591908101906125bb565b905060006105468260000151611dba565b905060006001600160a01b0316846002018260405161056591906127f0565b908152604051908190036020019020546001600160a01b0316146105e25760405162461bcd60e51b815260206004820152602960248201527f4c6962457874656e73696f6e3a20657874656e73696f6e20616c7265616479206044820152681a5b9cdd185b1b195960ba1b60648201526084015b60405180910390fd5b8484600201826040516105f591906127f0565b908152602001604051809103902060006101000a8154816001600160a01b0302191690836001600160a01b031602179055507ffe9a3a52d7e1a3740350821816e344a482f9611bc09285fa4132de9645b41bae81836020015160405161065c92919061280c565b60405180910390a15050505050565b6040516337b4746960e11b81526001600160e01b0319851660048201526060906000906001600160a01b03841690636f68e8d290602401602060405180830381865afa1580156106bf573d6000803e3d6000fd5b505050506040513d601f19601f820116820180604052508101906106e3919061283f565b90506001600160a01b03811661070b5760405162461bcd60e51b81526004016105d99061285c565b61074b8186868080601f016020809104026020016040519081016040528093929190818152602001838380828437600092019190915250611cf892505050565b9695505050505050565b60408051808201909152600080825260208201526000610773611c62565b905060008160020161078485611dba565b60405161079191906127f0565b908152604051908190036020019020546001600160a01b03169050806107c95760405162461bcd60e51b81526004016105d9906128ab565b6001600160a01b0381166000908152602083905260409020805460ff16156108145760408051808201909152600282015461ffff808216835262010000909104166020820152610829565b60408051808201909152600080825260208201525b95945050505050565b60008061083d611c62565b6001600160e01b031984166000908152600182016020526040902080549192509061010090046001600160a01b03166108885760405162461bcd60e51b81526004016105d99061285c565b805460ff166108a95760405162461bcd60e51b81526004016105d9906128ec565b805461010090046001600160a01b03166000908152602083905260409020805460ff166108e85760405162461bcd60e51b81526004016105d99061292e565b505461010090046001600160a01b03169392505050565b6000610909611c62565b90506000826001600160a01b031663392f37e96040518163ffffffff1660e01b8152600401600060405180830381865afa15801561094b573d6000803e3d6000fd5b505050506040513d6000823e601f3d908101601f1916820160405261097391908101906125bb565b905060006109848260000151611dba565b90506000836002018260405161099a91906127f0565b908152604051908190036020019020546001600160a01b03169050806109d25760405162461bcd60e51b81526004016105d990612971565b6001600160a01b0381166000908152602085905260408082208151808301909252600101805482908290610a05906126ac565b80601f0160208091040260200160405190810160405280929190818152602001828054610a31906126ac565b8015610a7e5780601f10610a5357610100808354040283529160200191610a7e565b820191906000526020600020905b815481529060010190602001808311610a6157829003601f168201915b5050509183525050604080518082019091526001929092015461ffff80821684526201000090910416602083810191909152908101919091528581015190820151919250610acc9190611e2a565b610b2a5760405162461bcd60e51b815260206004820152602960248201527f4c6962457874656e73696f6e3a206e65772076657273696f6e206d7573742062604482015268329033b932b0ba32b960b91b60648201526084016105d9565b6001600160a01b0382166000908152602086905260408120905b6004820154811015610bba57866001016000836004018381548110610b6b57610b6b6129b6565b6000918252602080832060088304015460079092166004026101000a90910460e01b6001600160e01b0319168352820192909252604001902080546001600160a81b0319169055600101610b44565b506040518060800160405280600115158152602001886001600160a01b031663392f37e96040518163ffffffff1660e01b8152600401600060405180830381865afa158015610c0d573d6000803e3d6000fd5b505050506040513d6000823e601f3d908101601f19168201604052610c3591908101906125bb565b81526001600160a01b03891660208201526040016000604051908082528060200260200182016040528015610c74578160200160208202803683370190505b5090526001600160a01b0388166000908152602088815260409091208251815460ff191690151517815590820151805160018301908190610cb59082612731565b506020918201518051600190920180549184015161ffff908116620100000263ffffffff1990931693169290921717905560408301516003830180546001600160a01b039092166001600160a01b031990921691909117905560608301518051610d2592600485019201906120cc565b5050604080516001600160a01b038a8116602483015286166044808301919091528251808303909101815260649091019091526020810180516001600160e01b031662900f0160e41b1790529050610d7d8882611cf8565b50878760020186604051610d9191906127f0565b908152604080516020928190038301902080546001600160a01b0319166001600160a01b03948516179055918616600090815290899052908120805460ff19168155906001820181610de38282612174565b50600101805463ffffffff191690556003820180546001600160a01b0319169055610e126004830160006121b1565b50506001600160a01b0388166000908152602088905260409081902090517fc89a54122092896020b2ec748ac6822d76b3e068fef5ddd0d1de01dc0629ea2891610e61918891600201906129cc565b60405180910390a15050505050505050565b600080610e7e611c62565b9050600060028201610e8f86611dba565b604051610e9c91906127f0565b908152604051908190036020019020546001600160a01b031603610ec45760009150506110c4565b6000818160028201610ed588611dba565b604051610ee291906127f0565b9081526040805160209281900383019020546001600160a01b03168352828201939093529082016000208251608081018452815460ff16151581528351808501909452600182018054919492938501929182908290610f40906126ac565b80601f0160208091040260200160405190810160405280929190818152602001828054610f6c906126ac565b8015610fb95780601f10610f8e57610100808354040283529160200191610fb9565b820191906000526020600020905b815481529060010190602001808311610f9c57829003601f168201915b50505091835250506040805180820182526001939093015461ffff808216855262010000909104166020848101919091529182019290925291835260038401546001600160a01b031683830152600484018054825181850281018501845281815294909201939290919083018282801561107f57602002820191906000526020600020906000905b82829054906101000a900460e01b6001600160e01b031916815260200190600401906020826003010492830192600103820291508084116110415790505b50505050508152505090508060000151156110bd576110b46110a636869003860186612a02565b602080840151015190611e7b565b925050506110c4565b6000925050505b92915050565b606060006110d6611c62565b6001600160e01b031986166000908152600182016020526040902080549192509061010090046001600160a01b03166111215760405162461bcd60e51b81526004016105d99061285c565b805460ff166111425760405162461bcd60e51b81526004016105d9906128ec565b805461010090046001600160a01b03166000908152602083905260409020805460ff166111815760405162461bcd60e51b81526004016105d99061292e565b8154604080516020601f89018190048102820181019092528781526111cf9261010090046001600160a01b0316918990899081908401838280828437600092019190915250611cf892505050565b93505050505b9392505050565b60006111e6611c62565b90506000816002016111f784611dba565b60405161120491906127f0565b908152604051908190036020019020546001600160a01b031690508061123c5760405162461bcd60e51b81526004016105d9906128ab565b6001600160a01b03811660009081526020839052604090819020805460ff1916815590517f8214b127a091639d26edf96f8395380fc2a1778ac51cd90b36a0d1ba3eed73959061128d908690612333565b60405180910390a150505050565b60006112a5611c62565b9050600081816112b860208601866121fc565b6001600160a01b03166001600160a01b03168152602001908152602001600020905060005b6112ea6020850185612a43565b90508110156114ae5760006113026020860186612a43565b83818110611312576113126129b6565b90506020028101906113249190612a8c565b61132d90612aa2565b80516004808601805460018181018355600092835260208084206008840401805460e09790971c600790941690950261010090810a93840263ffffffff909402199096169290921790935584516001600160e01b031916825291880190915260409020805492935091046001600160a01b03161561142457805461010090046001600160a01b03166000908152602086815260408220919060018701906113df906113da908b018b6121fc565b611ea8565b6020808701516040516113f9949392600188019101612b6b565b60405160208183030381529060405290508060405162461bcd60e51b81526004016105d99190612333565b6040805180820190915260018152602080820190611444908901896121fc565b6001600160a01b0390811690915292516001600160e01b031916600090815260018088016020908152604090922083518154949093015190951661010002610100600160a81b0319921515929092166001600160a81b0319909316929092171790925550016112dd565b50505050565b60006114be611c62565b6001600160e01b031983166000908152600182016020526040902080549192509061010090046001600160a01b03166115095760405162461bcd60e51b81526004016105d99061285c565b805460ff191681556040516001600160e01b0319841681527ff52200093c3aa961cee2578ff68a1af76d1dac598e417ae99c81d1e9f078de6c906020015b60405180910390a1505050565b600061155e611c62565b905060008160020161156f84611dba565b60405161157c91906127f0565b908152604051908190036020019020546001600160a01b03169050806115b45760405162461bcd60e51b81526004016105d9906128ab565b6001600160a01b03811660009081526020839052604090819020805460ff1916600117815590517f28ec24965987700591e4ce426f5f6fc3b8a34f8dfc6ddc33c3dde109213762369061128d908690612333565b6000611612611c62565b90506000826001600160a01b031663392f37e96040518163ffffffff1660e01b8152600401600060405180830381865afa158015611654573d6000803e3d6000fd5b505050506040513d6000823e601f3d908101601f1916820160405261167c91908101906125bb565b9050600061168d8260000151611dba565b9050600083600201826040516116a391906127f0565b908152604051908190036020019020546001600160a01b03169050806116db5760405162461bcd60e51b81526004016105d990612971565b6001600160a01b038116600090815260208590526040808220815180830190925260010180548290829061170e906126ac565b80601f016020809104026020016040519081016040528092919081815260200182805461173a906126ac565b80156117875780601f1061175c57610100808354040283529160200191611787565b820191906000526020600020905b81548152906001019060200180831161176a57829003601f168201915b5050509183525050604080518082019091526001929092015461ffff808216845262010000909104166020838101919091529081019190915285810151908201519192506117d59190611ebe565b6118475760405162461bcd60e51b815260206004820152603b60248201527f4c6962457874656e73696f6e3a206e65772076657273696f6e206d757374206260448201527f65206c657373207468616e2063757272656e742076657273696f6e000000000060648201526084016105d9565b6001600160a01b0382166000908152602086905260408120905b60048201548110156118d757866001016000836004018381548110611888576118886129b6565b6000918252602080832060088304015460079092166004026101000a90910460e01b6001600160e01b0319168352820192909252604001902080546001600160a81b0319169055600101611861565b506040518060800160405280600115158152602001886001600160a01b031663392f37e96040518163ffffffff1660e01b8152600401600060405180830381865afa15801561192a573d6000803e3d6000fd5b505050506040513d6000823e601f3d908101601f1916820160405261195291908101906125bb565b81526001600160a01b03891660208201526040016000604051908082528060200260200182016040528015611991578160200160208202803683370190505b5090526001600160a01b0388166000908152602088815260409091208251815460ff1916901515178155908201518051600183019081906119d29082612731565b506020918201518051600190920180549184015161ffff908116620100000263ffffffff1990931693169290921717905560408301516003830180546001600160a01b039092166001600160a01b031990921691909117905560608301518051611a4292600485019201906120cc565b5050604080516001600160a01b038a8116602483015286166044808301919091528251808303909101815260649091019091526020810180516001600160e01b031662900f0160e41b1790529050611a9a8882611cf8565b50878760020186604051611aae91906127f0565b908152604080516020928190038301902080546001600160a01b0319166001600160a01b03948516179055918616600090815290899052908120805460ff19168155906001820181611b008282612174565b50600101805463ffffffff191690556003820180546001600160a01b0319169055611b2f6004830160006121b1565b50506001600160a01b0388166000908152602088905260409081902090517f30075fead0b0a7bc4da8dc695d8d1f811cfe6557fc576ba2d2a07262afc932ee91610e61918891600201906129cc565b6000611b88611c62565b6001600160e01b031983166000908152600182016020526040902080549192509061010090046001600160a01b0316611bd35760405162461bcd60e51b81526004016105d99061285c565b805460ff191660011781556040516001600160e01b0319841681527f35e89607ad2a982b5dffa74d6bd8e031dd7678f0736ff22a1273467eddafb90e90602001611547565b6060611c5a8484848080601f016020809104026020016040519081016040528093929190818152602001838380828437600092019190915250611cf892505050565b949350505050565b60408051808201909152601881527f78722e657874656e73696f6e732e73746f726167652e7631000000000000000060209091015260008060ff611cc760017fb58ec9ca7ba0606d9fecd9f559655d0e5fec418e6751b65b892bccdfd25eb99f612c5a565b604051602001611cd991815260200190565b60408051601f1981840301815291905280516020909101201692915050565b6060600080846001600160a01b031684604051611d1591906127f0565b600060405180830381855af49150503d8060008114611d50576040519150601f19603f3d011682016040523d82523d6000602084013e611d55565b606091505b50915091508115611d695791506110c49050565b805115611d795780518082602001fd5b60405162461bcd60e51b8152602060048201526016602482015275119d5b98dd1a5bdb8818d85b1b081c995d995c9d195960521b60448201526064016105d9565b60608160005b8151811015611e2357611df2828281518110611dde57611dde6129b6565b01602001516001600160f81b031916611f06565b828281518110611e0457611e046129b6565b60200101906001600160f81b031916908160001a905350600101611dc0565b5092915050565b8051825160009161ffff90811691161015611e47575060016110c4565b8151835161ffff918216911603611e7257816020015161ffff16836020015161ffff161090506110c4565b50600092915050565b8051825160009161ffff91821691161480156111d557505060209081015191015161ffff90811691161490565b60606110c46001600160a01b0383166014611f55565b8051825160009161ffff90811691161115611edb575060016110c4565b8151835161ffff918216911603611e7257816020015161ffff16836020015161ffff161190506110c4565b6000604160f81b6001600160f81b0319831610801590611f345750602d60f91b6001600160f81b0319831611155b15611f5157611f4860f883901c6020612c6d565b60f81b92915050565b5090565b6060826000611f65846002612c86565b611f70906002612c9d565b6001600160401b03811115611f8757611f87612346565b6040519080825280601f01601f191660200182016040528015611fb1576020820181803683370190505b509050600360fc1b81600081518110611fcc57611fcc6129b6565b60200101906001600160f81b031916908160001a905350600f60fb1b81600181518110611ffb57611ffb6129b6565b60200101906001600160f81b031916908160001a905350600061201f856002612c86565b61202a906001612c9d565b90505b60018111156120a2576f181899199a1a9b1b9c1cb0b131b232b360811b83600f166010811061205e5761205e6129b6565b1a60f81b828281518110612074576120746129b6565b60200101906001600160f81b031916908160001a90535060049290921c9161209b81612cb0565b905061202d565b508115611c5a5760405163e22e27eb60e01b815260048101869052602481018590526044016105d9565b828054828255906000526020600020906007016008900481019282156121685791602002820160005b8382111561213657835183826101000a81548163ffffffff021916908360e01c021790555092602001926004016020816003010492830192600103026120f5565b80156121665782816101000a81549063ffffffff0219169055600401602081600301049283019260010302612136565b505b50611f519291506121d2565b508054612180906126ac565b6000825580601f10612190575050565b601f0160209004906000526020600020908101906121ae91906121d2565b50565b5080546000825560070160089004906000526020600020908101906121ae91905b5b80821115611f5157600081556001016121d3565b6001600160a01b03811681146121ae57600080fd5b60006020828403121561220e57600080fd5b81356111d5816121e7565b80356001600160e01b03198116811461223157600080fd5b919050565b60008083601f84011261224857600080fd5b5081356001600160401b0381111561225f57600080fd5b60208301915083602082850101111561227757600080fd5b9250929050565b6000806000806060858703121561229457600080fd5b61229d85612219565b935060208501356001600160401b038111156122b857600080fd5b6122c487828801612236565b90945092505060408501356122d8816121e7565b939692955090935050565b60005b838110156122fe5781810151838201526020016122e6565b50506000910152565b6000815180845261231f8160208601602086016122e3565b601f01601f19169290920160200192915050565b6020815260006111d56020830184612307565b634e487b7160e01b600052604160045260246000fd5b604080519081016001600160401b038111828210171561237e5761237e612346565b60405290565b604051601f8201601f191681016001600160401b03811182821017156123ac576123ac612346565b604052919050565b60006001600160401b038211156123cd576123cd612346565b50601f01601f191660200190565b600082601f8301126123ec57600080fd5b81356123ff6123fa826123b4565b612384565b81815284602083860101111561241457600080fd5b816020850160208301376000918101602001919091529392505050565b60006020828403121561244357600080fd5b81356001600160401b0381111561245957600080fd5b611c5a848285016123db565b604081016110c48284805161ffff908116835260209182015116910152565b60006020828403121561249657600080fd5b6111d582612219565b6000604082840312156124b157600080fd5b50919050565b600080606083850312156124ca57600080fd5b82356001600160401b038111156124e057600080fd5b6124ec858286016123db565b9250506124fc846020850161249f565b90509250929050565b60008060006040848603121561251a57600080fd5b61252384612219565b925060208401356001600160401b0381111561253e57600080fd5b61254a86828701612236565b9497909650939450505050565b60006020828403121561256957600080fd5b81356001600160401b0381111561257f57600080fd5b611c5a8482850161249f565b6000806000604084860312156125a057600080fd5b8335612523816121e7565b61ffff811681146121ae57600080fd5b600060208083850312156125ce57600080fd5b82516001600160401b03808211156125e557600080fd5b9084019081860360608112156125fa57600080fd5b61260261235c565b83518381111561261157600080fd5b84019250601f8301881361262457600080fd5b82516126326123fa826123b4565b818152898783870101111561264657600080fd5b612655828883018988016122e3565b8252506040601f198301121561266a57600080fd5b61267261235c565b9250848401519150612683826125ab565b81835260408401519350612696846125ab565b8285019390935250918101919091529392505050565b600181811c908216806126c057607f821691505b6020821081036124b157634e487b7160e01b600052602260045260246000fd5b601f82111561272c576000816000526020600020601f850160051c810160208610156127095750805b601f850160051c820191505b8181101561272857828155600101612715565b5050505b505050565b81516001600160401b0381111561274a5761274a612346565b61275e8161275884546126ac565b846126e0565b602080601f831160018114612793576000841561277b5750858301515b600019600386901b1c1916600185901b178555612728565b600085815260208120601f198616915b828110156127c2578886015182559484019460019091019084016127a3565b50858210156127e05787850151600019600388901b60f8161c191681555b5050505050600190811b01905550565b600082516128028184602087016122e3565b9190910192915050565b60608152600061281f6060830185612307565b90506111d56020830184805161ffff908116835260209182015116910152565b60006020828403121561285157600080fd5b81516111d5816121e7565b6020808252602f908201527f4c6962457874656e73696f6e3a206e6f20657874656e73696f6e20737570706f60408201526e393a399033371039b2b632b1ba37b960891b606082015260800190565b60208082526021908201527f4c6962457874656e73696f6e3a20657874656e73696f6e206e6f7420666f756e6040820152601960fa1b606082015260800190565b60208082526022908201527f4c6962457874656e73696f6e3a2073656c6563746f72206e6f7420656e61626c604082015261195960f21b606082015260800190565b60208082526023908201527f4c6962457874656e73696f6e3a20657874656e73696f6e206e6f7420656e61626040820152621b195960ea1b606082015260800190565b60208082526025908201527f4c6962457874656e73696f6e3a20657874656e73696f6e206e6f7420696e7374604082015264185b1b195960da1b606082015260800190565b634e487b7160e01b600052603260045260246000fd5b6060815260006129df6060830185612307565b9050825461ffff8082166020850152808260101c16604085015250509392505050565b600060408284031215612a1457600080fd5b612a1c61235c565b8235612a27816125ab565b81526020830135612a37816125ab565b60208201529392505050565b6000808335601e19843603018112612a5a57600080fd5b8301803591506001600160401b03821115612a7457600080fd5b6020019150600581901b360382131561227757600080fd5b60008235603e1983360301811261280257600080fd5b600060408236031215612ab457600080fd5b612abc61235c565b612ac583612219565b815260208301356001600160401b03811115612ae057600080fd5b612aec368286016123db565b60208301525092915050565b60008154612b05816126ac565b60018281168015612b1d5760018114612b3257612b61565b60ff1984168752821515830287019450612b61565b8560005260208060002060005b85811015612b585781548a820152908401908201612b3f565b50505082870194505b5050505092915050565b7f4c6962457874656e73696f6e3a20657874656e73696f6e20000000000000000081526000612b9d6018830187612af8565b6c01030ba1030b2323932b9b99d1609d1b81528551612bc381600d840160208a016122e3565b7f20617474656d7074696e6720746f20726575736520612073656c6563746f7200600d92909101918201528451612c0181602c8401602089016122e3565b7f20616c7265616479207265676973746572656420627920000000000000000000602c9290910191820152612c396043820185612af8565b979650505050505050565b634e487b7160e01b600052601160045260246000fd5b818103818111156110c4576110c4612c44565b60ff81811683821601908111156110c4576110c4612c44565b80820281158282048414176110c4576110c4612c44565b808201808211156110c4576110c4612c44565b600081612cbf57612cbf612c44565b50600019019056fea2646970667358221220d4e14331969e46454f5159ab5ce9226db1aeedc9e5754859c9e858fd1c61f4b364736f6c63430008180033",
  "linkReferences": {},
  "deployedLinkReferences": {}
}