{
  "_format": "hh-sol-artifact-1",
  "contractName": "LibAccess",
  "sourceName": "contracts/libraries/LibAccess.sol",
  "abi": [
    {
      "inputs": [
        {
          "internalType": "bytes32",
          "name": "role",
          "type": "bytes32"
        },
        {
          "internalType": "address",
          "name": "account",
          "type": "address"
        }
      ],
      "name": "hasRole",
      "outputs": [
        {
          "internalType": "bool",
          "name": "",
          "type": "bool"
        }
      ],
      "stateMutability": "view",
      "type": "function"
    },
    {
      "inputs": [
        {
          "internalType": "address",
          "name": "a",
          "type": "address"
        }
      ],
      "name": "isAdmin",
      "outputs": [
        {
          "internalType": "bool",
          "name": "",
          "type": "bool"
        }
      ],
      "stateMutability": "view",
      "type": "function"
    },
    {
      "inputs": [
        {
          "internalType": "address",
          "name": "a",
          "type": "address"
        }
      ],
      "name": "isSigner",
      "outputs": [
        {
          "internalType": "bool",
          "name": "",
          "type": "bool"
        }
      ],
      "stateMutability": "view",
      "type": "function"
    }
  ],
  "bytecode": "0x610c9461003a600b82828239805160001a60731461002d57634e487b7160e01b600052600060045260246000fd5b30600052607381538281f3fe730000000000000000000000000000000000000000301460806040526004361061009d5760003560e01c80638d361e43116100705780638d361e431461011e57806391d148541461013e578063d547741f14610151578063d9ac971f14610171578063e8906a2d1461019157600080fd5b806313af4035146100a257806324d7806c146100c45780632f2ff15d146100eb5780637df73e271461010b575b600080fd5b8180156100ae57600080fd5b506100c26100bd366004610ad8565b6101b1565b005b6100d76100d2366004610ad8565b6102d3565b604051901515815260200160405180910390f35b8180156100f757600080fd5b506100c2610106366004610afa565b610331565b6100d7610119366004610ad8565b6103e1565b81801561012a57600080fd5b506100c2610139366004610b72565b61042d565b6100d761014c366004610afa565b610557565b81801561015d57600080fd5b506100c261016c366004610afa565b610595565b81801561017d57600080fd5b506100c261018c366004610bb4565b610640565b81801561019d57600080fd5b506100c26101ac366004610b72565b610906565b6001600160a01b0381166102245760405162461bcd60e51b815260206004820152602f60248201527f416363657373436f6e74726f6c3a2063616e6e6f7420736574206f776e65722060448201526e746f207a65726f206164647265737360881b60648201526084015b60405180910390fd5b600061022e610a2f565b80546001600160a01b039093166001600160a01b0319909316831781557f9f4e1c871d5fdd0aee1cd182666698a4492b24c6832aac230d07b11046af5a8960009081526001918201602081815260408084208785528252808420805460ff1990811687179091557f2172861495e7b85edac73e3cd5fbb42dd675baadf627720e687bcfdaca025096855292825280842096845295905293902080549093161790915550565b6000806102de610a2f565b7f2172861495e7b85edac73e3cd5fbb42dd675baadf627720e687bcfdaca02509660009081526001909101602090815260408083206001600160a01b039096168352949052929092205460ff1692915050565b6001600160a01b0381166103a05760405162461bcd60e51b815260206004820152603060248201527f416363657373436f6e74726f6c3a2063616e6e6f74206772616e7420726f6c6560448201526f20746f207a65726f206164647265737360801b606482015260840161021b565b60006103aa610a2f565b60009384526001908101602090815260408086206001600160a01b0395909516865293905291909220805460ff1916909117905550565b6000806103ec610a2f565b600080516020610c3f83398151915260009081526001909101602090815260408083206001600160a01b039096168352949052929092205460ff1692915050565b6000610437610a2f565b600080516020610c3f833981519152600090815260018201602052604081209192505b8381101561055057600085858381811061047657610476610c07565b905060200201602081019061048b9190610ad8565b6001600160a01b0316036104fd5760405162461bcd60e51b815260206004820152603360248201527f5368617265644c69624163636573733a2063616e6e6f742072656d6f7665207a60448201527265726f2061646472657373207369676e65727360681b606482015260840161021b565b81600086868481811061051257610512610c07565b90506020020160208101906105279190610ad8565b6001600160a01b031681526020810191909152604001600020805460ff1916905560010161045a565b5050505050565b600080610562610a2f565b60008581526001909101602090815260408083206001600160a01b038716845290915290205460ff169150505b92915050565b6001600160a01b0381166106075760405162461bcd60e51b815260206004820152603360248201527f416363657373436f6e74726f6c3a2063616e6e6f74207265766f6b6520726f6c604482015272652066726f6d207a65726f206164647265737360681b606482015260840161021b565b6000610611610a2f565b6000938452600101602090815260408085206001600160a01b039094168552929052509020805460ff19169055565b600061064a610a2f565b80549091506001600160a01b03161561069b5760405162461bcd60e51b8152602060048201526013602482015272105b1c9958591e481a5b9a5d1a585b1a5e9959606a1b604482015260640161021b565b6001600160a01b0384166106f15760405162461bcd60e51b815260206004820152601c60248201527f4f776e65722063616e6e6f74206265207a65726f206164647265737300000000604482015260640161021b565b80546001600160a01b0319166001600160a01b03851690811782557f9f4e1c871d5fdd0aee1cd182666698a4492b24c6832aac230d07b11046af5a8960009081526001808401602090815260408084207f2172861495e7b85edac73e3cd5fbb42dd675baadf627720e687bcfdaca0250968552818520600080516020610c3f8339815191528652828620968652818452828620805460ff1990811687179091558185528387208054821687179055938790529185208054909316909317909155909290915b858110156108fc5760008787838181106107d2576107d2610c07565b90506020020160208101906107e79190610ad8565b6001600160a01b03160361083d5760405162461bcd60e51b815260206004820152601d60248201527f41646d696e732063616e6e6f74206265207a65726f2061646472657373000000604482015260640161021b565b600183600089898581811061085457610854610c07565b90506020020160208101906108699190610ad8565b6001600160a01b03166001600160a01b0316815260200190815260200160002060006101000a81548160ff02191690831515021790555060018260008989858181106108b7576108b7610c07565b90506020020160208101906108cc9190610ad8565b6001600160a01b031681526020810191909152604001600020805460ff19169115159190911790556001016107b6565b5050505050505050565b6000610910610a2f565b600080516020610c3f833981519152600090815260018201602052604081209192505b8381101561055057600085858381811061094f5761094f610c07565b90506020020160208101906109649190610ad8565b6001600160a01b0316036109d35760405162461bcd60e51b815260206004820152603060248201527f5368617265644c69624163636573733a2063616e6e6f7420616464207a65726f60448201526f2061646472657373207369676e65727360801b606482015260840161021b565b60018260008787858181106109ea576109ea610c07565b90506020020160208101906109ff9190610ad8565b6001600160a01b031681526020810191909152604001600020805460ff1916911515919091179055600101610933565b60408051808201909152601481527378722e6163636573732e73746f726167652e763160601b60209091015260008060ff610a8b60017fd870894b15ee1369a593f3670ac51c4ed8201dab473944ee712694d327dd5875610c1d565b604051602001610a9d91815260200190565b60408051601f1981840301815291905280516020909101201692915050565b80356001600160a01b0381168114610ad357600080fd5b919050565b600060208284031215610aea57600080fd5b610af382610abc565b9392505050565b60008060408385031215610b0d57600080fd5b82359150610b1d60208401610abc565b90509250929050565b60008083601f840112610b3857600080fd5b50813567ffffffffffffffff811115610b5057600080fd5b6020830191508360208260051b8501011115610b6b57600080fd5b9250929050565b60008060208385031215610b8557600080fd5b823567ffffffffffffffff811115610b9c57600080fd5b610ba885828601610b26565b90969095509350505050565b600080600060408486031215610bc957600080fd5b610bd284610abc565b9250602084013567ffffffffffffffff811115610bee57600080fd5b610bfa86828701610b26565b9497909650939450505050565b634e487b7160e01b600052603260045260246000fd5b8181038181111561058f57634e487b7160e01b600052601160045260246000fdfe749410edf1177aefa27612b24d2d51e6441f89613f5ddf9be1d11dfc0d3e4feaa2646970667358221220c632475b8de20823df18c038006eb36a1efcda1f78c74b4f5eac5ccf88593dae64736f6c63430008180033",
  "linkReferences": {},
  "deployedLinkReferences": {}
}