{
  "_format": "hh-sol-artifact-1",
  "contractName": "LibExtensions",
  "sourceName": "contracts/libraries/LibExtensions.sol",
  "abi": [
    {
      "anonymous": false,
      "inputs": [
        {
          "indexed": false,
          "internalType": "string",
          "name": "name",
          "type": "string"
        }
      ],
      "name": "ExtensionDisabled",
      "type": "event"
    },
    {
      "anonymous": false,
      "inputs": [
        {
          "indexed": false,
          "internalType": "string",
          "name": "name",
          "type": "string"
        }
      ],
      "name": "ExtensionEnabled",
      "type": "event"
    },
    {
      "anonymous": false,
      "inputs": [
        {
          "indexed": false,
          "internalType": "bytes4",
          "name": "selector",
          "type": "bytes4"
        }
      ],
      "name": "SelectorDisabled",
      "type": "event"
    },
    {
      "anonymous": false,
      "inputs": [
        {
          "indexed": false,
          "internalType": "bytes4",
          "name": "selector",
          "type": "bytes4"
        }
      ],
      "name": "SelectorEnabled",
      "type": "event"
    },
    {
      "inputs": [
        {
          "internalType": "string",
          "name": "name",
          "type": "string"
        }
      ],
      "name": "getExtensionVersion",
      "outputs": [
        {
          "components": [
            {
              "internalType": "uint16",
              "name": "major",
              "type": "uint16"
            },
            {
              "internalType": "uint16",
              "name": "minor",
              "type": "uint16"
            }
          ],
          "internalType": "struct Version",
          "name": "",
          "type": "tuple"
        }
      ],
      "stateMutability": "view",
      "type": "function"
    },
    {
      "inputs": [
        {
          "internalType": "string",
          "name": "name",
          "type": "string"
        },
        {
          "components": [
            {
              "internalType": "uint16",
              "name": "major",
              "type": "uint16"
            },
            {
              "internalType": "uint16",
              "name": "minor",
              "type": "uint16"
            }
          ],
          "internalType": "struct Version",
          "name": "version",
          "type": "tuple"
        }
      ],
      "name": "hasExtension",
      "outputs": [
        {
          "internalType": "bool",
          "name": "",
          "type": "bool"
        }
      ],
      "stateMutability": "view",
      "type": "function"
    }
  ],
  "bytecode": "0x610c6261003a600b82828239805160001a60731461002d57634e487b7160e01b600052600060045260246000fd5b30600052607381538281f3fe730000000000000000000000000000000000000000301460806040526004361061006c5760003560e01c8063238a0386146100715780635324b4e2146100ab5780636fcc36cb146100ce57806397107e08146100f0578063d9228e9d14610110578063eeba990114610130575b600080fd5b61008461007f366004610964565b610150565b60408051825161ffff90811682526020938401511692810192909252015b60405180910390f35b6100be6100b93660046109a1565b610236565b60405190151581526020016100a2565b8180156100da57600080fd5b506100ee6100e9366004610964565b61048d565b005b8180156100fc57600080fd5b506100ee61010b3660046109fb565b61054c565b81801561011c57600080fd5b506100ee61012b366004610964565b6105ec565b81801561013c57600080fd5b506100ee61014b3660046109fb565b6106a0565b6040805180820190915260008082526020820152600061016e61073a565b905060008160020161017f856107d0565b60405161018c9190610a49565b908152604051908190036020019020546001600160a01b03169050806101cd5760405162461bcd60e51b81526004016101c490610a65565b60405180910390fd5b6001600160a01b0381166000908152602083905260409020805460ff16156102185760408051808201909152600282015461ffff80821683526201000090910416602082015261022d565b60408051808201909152600080825260208201525b95945050505050565b60008061024161073a565b9050600060028201610252866107d0565b60405161025f9190610a49565b908152604051908190036020019020546001600160a01b031603610287576000915050610487565b6000818160028201610298886107d0565b6040516102a59190610a49565b9081526040805160209281900383019020546001600160a01b03168352828201939093529082016000208251608081018452815460ff1615158152835180850190945260018201805491949293850192918290829061030390610aa6565b80601f016020809104026020016040519081016040528092919081815260200182805461032f90610aa6565b801561037c5780601f106103515761010080835404028352916020019161037c565b820191906000526020600020905b81548152906001019060200180831161035f57829003601f168201915b50505091835250506040805180820182526001939093015461ffff808216855262010000909104166020848101919091529182019290925291835260038401546001600160a01b031683830152600484018054825181850281018501845281815294909201939290919083018282801561044257602002820191906000526020600020906000905b82829054906101000a900460e01b6001600160e01b031916815260200190600401906020826003010492830192600103820291508084116104045790505b50505050508152505090508060000151156104805761047761046936869003860186610af7565b602080840151015190610840565b92505050610487565b6000925050505b92915050565b600061049761073a565b90506000816002016104a8846107d0565b6040516104b59190610a49565b908152604051908190036020019020546001600160a01b03169050806104ed5760405162461bcd60e51b81526004016101c490610a65565b6001600160a01b03811660009081526020839052604090819020805460ff1916815590517f8214b127a091639d26edf96f8395380fc2a1778ac51cd90b36a0d1ba3eed73959061053e908690610b52565b60405180910390a150505050565b600061055661073a565b6001600160e01b031983166000908152600182016020526040902080549192509061010090046001600160a01b03166105a15760405162461bcd60e51b81526004016101c490610b85565b805460ff191681556040516001600160e01b0319841681527ff52200093c3aa961cee2578ff68a1af76d1dac598e417ae99c81d1e9f078de6c906020015b60405180910390a1505050565b60006105f661073a565b9050600081600201610607846107d0565b6040516106149190610a49565b908152604051908190036020019020546001600160a01b031690508061064c5760405162461bcd60e51b81526004016101c490610a65565b6001600160a01b03811660009081526020839052604090819020805460ff1916600117815590517f28ec24965987700591e4ce426f5f6fc3b8a34f8dfc6ddc33c3dde109213762369061053e908690610b52565b60006106aa61073a565b6001600160e01b031983166000908152600182016020526040902080549192509061010090046001600160a01b03166106f55760405162461bcd60e51b81526004016101c490610b85565b805460ff191660011781556040516001600160e01b0319841681527f35e89607ad2a982b5dffa74d6bd8e031dd7678f0736ff22a1273467eddafb90e906020016105df565b60408051808201909152601881527f78722e657874656e73696f6e732e73746f726167652e7631000000000000000060209091015260008060ff61079f60017fb58ec9ca7ba0606d9fecd9f559655d0e5fec418e6751b65b892bccdfd25eb99f610bea565b6040516020016107b191815260200190565b60408051601f1981840301815291905280516020909101201692915050565b60608160005b8151811015610839576108088282815181106107f4576107f4610bfd565b01602001516001600160f81b031916610872565b82828151811061081a5761081a610bfd565b60200101906001600160f81b031916908160001a9053506001016107d6565b5092915050565b8051825160009161ffff918216911614801561086b5750816020015161ffff16836020015161ffff16145b9392505050565b6000604160f81b6001600160f81b03198316108015906108a05750602d60f91b6001600160f81b0319831611155b156108bd576108b460f883901c6020610c13565b60f81b92915050565b5090565b634e487b7160e01b600052604160045260246000fd5b600082601f8301126108e857600080fd5b813567ffffffffffffffff80821115610903576109036108c1565b604051601f8301601f19908116603f0116810190828211818310171561092b5761092b6108c1565b8160405283815286602085880101111561094457600080fd5b836020870160208301376000602085830101528094505050505092915050565b60006020828403121561097657600080fd5b813567ffffffffffffffff81111561098d57600080fd5b610999848285016108d7565b949350505050565b60008082840360608112156109b557600080fd5b833567ffffffffffffffff8111156109cc57600080fd5b6109d8868287016108d7565b9350506040601f19820112156109ed57600080fd5b506020830190509250929050565b600060208284031215610a0d57600080fd5b81356001600160e01b03198116811461086b57600080fd5b60005b83811015610a40578181015183820152602001610a28565b50506000910152565b60008251610a5b818460208701610a25565b9190910192915050565b60208082526021908201527f4c6962457874656e73696f6e3a20657874656e73696f6e206e6f7420666f756e6040820152601960fa1b606082015260800190565b600181811c90821680610aba57607f821691505b602082108103610ada57634e487b7160e01b600052602260045260246000fd5b50919050565b803561ffff81168114610af257600080fd5b919050565b600060408284031215610b0957600080fd5b6040516040810181811067ffffffffffffffff82111715610b2c57610b2c6108c1565b604052610b3883610ae0565b8152610b4660208401610ae0565b60208201529392505050565b6020815260008251806020840152610b71816040850160208701610a25565b601f01601f19169190910160400192915050565b6020808252602f908201527f4c6962457874656e73696f6e3a206e6f20657874656e73696f6e20737570706f60408201526e393a399033371039b2b632b1ba37b960891b606082015260800190565b634e487b7160e01b600052601160045260246000fd5b8181038181111561048757610487610bd4565b634e487b7160e01b600052603260045260246000fd5b60ff818116838216019081111561048757610487610bd456fea26469706673582212207ac6db84392d53fa3d31b65245f51bf7c07258ec02a16e5d2d5f97ab92a4c55d64736f6c63430008180033",
  "linkReferences": {},
  "deployedLinkReferences": {}
}