{
  "_format": "hh-sol-artifact-1",
  "contractName": "LibFactory",
  "sourceName": "contracts/libraries/LibFactory.sol",
  "abi": [
    {
      "inputs": [],
      "name": "getEntityImplementation",
      "outputs": [
        {
          "internalType": "address",
          "name": "",
          "type": "address"
        }
      ],
      "stateMutability": "view",
      "type": "function"
    },
    {
      "inputs": [],
      "name": "getEntityVersion",
      "outputs": [
        {
          "components": [
            {
              "internalType": "uint16",
              "name": "major",
              "type": "uint16"
            },
            {
              "internalType": "uint16",
              "name": "minor",
              "type": "uint16"
            }
          ],
          "internalType": "struct Version",
          "name": "",
          "type": "tuple"
        }
      ],
      "stateMutability": "view",
      "type": "function"
    },
    {
      "inputs": [],
      "name": "getProxyImplementation",
      "outputs": [
        {
          "internalType": "address",
          "name": "",
          "type": "address"
        }
      ],
      "stateMutability": "view",
      "type": "function"
    }
  ],
  "bytecode": "0x61040b61003a600b82828239805160001a60731461002d57634e487b7160e01b600052600060045260246000fd5b30600052607381538281f3fe73000000000000000000000000000000000000000030146080604052600436106100615760003560e01c80635e04096214610066578063689c48f01461009557806390e4b720146100b55780639fdcd3a4146100bd578063cdbe2211146100df575b600080fd5b61006e6100ff565b60408051825161ffff90811682526020938401511692810192909252015b60405180910390f35b61009d610148565b6040516001600160a01b03909116815260200161008c565b61009d610163565b8180156100c957600080fd5b506100dd6100d83660046102fe565b610181565b005b8180156100eb57600080fd5b506100dd6100fa3660046102fe565b6101b0565b6040805180820190915260008082526020820152600061011d610268565b6040805180820190915260029091015461ffff80821683526201000090910416602082015292915050565b600080610153610268565b546001600160a01b031692915050565b60008061016e610268565b600101546001600160a01b031692915050565b600061018b610268565b60010180546001600160a01b0319166001600160a01b03939093169290921790915550565b60006101ba610268565b80546001600160a01b0319166001600160a01b03841690811782556040805163054fd4d560e41b815281519394506000936354fd4d50926004808401939192918290030181865afa158015610213573d6000803e3d6000fd5b505050506040513d601f19601f820116820180604052508101906102379190610345565b80516002909301805460209092015161ffff908116620100000263ffffffff19909316941693909317179091555050565b60408051808201909152601c81527f78722e656e746974792e666163746f72792e73746f726167652e76310000000060209091015260008060ff6102cd60017f8b4ac7cd4466ab0d50fe53a88c5446ca4a450d482bef9ad792e7d9f451497e0f6103ae565b6040516020016102df91815260200190565b60408051601f1981840301815291905280516020909101201692915050565b60006020828403121561031057600080fd5b81356001600160a01b038116811461032757600080fd5b9392505050565b805161ffff8116811461034057600080fd5b919050565b60006040828403121561035757600080fd5b6040516040810181811067ffffffffffffffff8211171561038857634e487b7160e01b600052604160045260246000fd5b6040526103948361032e565b81526103a26020840161032e565b60208201529392505050565b818103818111156103cf57634e487b7160e01b600052601160045260246000fd5b9291505056fea26469706673582212202dfee8dcafbe1a718e690c6bf8db8cc5b249cab62cc23cfa5dade29b40af4e6a64736f6c63430008180033",
  "linkReferences": {},
  "deployedLinkReferences": {}
}