{
  "_format": "hh-sol-artifact-1",
  "contractName": "LibRegistration",
  "sourceName": "contracts/libraries/LibRegistration.sol",
  "abi": [
    {
      "inputs": [],
      "name": "ECDSAInvalidSignature",
      "type": "error"
    },
    {
      "inputs": [
        {
          "internalType": "uint256",
          "name": "length",
          "type": "uint256"
        }
      ],
      "name": "ECDSAInvalidSignatureLength",
      "type": "error"
    },
    {
      "inputs": [
        {
          "internalType": "bytes32",
          "name": "s",
          "type": "bytes32"
        }
      ],
      "name": "ECDSAInvalidSignatureS",
      "type": "error"
    },
    {
      "inputs": [],
      "name": "DAY",
      "outputs": [
        {
          "internalType": "uint256",
          "name": "",
          "type": "uint256"
        }
      ],
      "stateMutability": "view",
      "type": "function"
    },
    {
      "inputs": [
        {
          "internalType": "string",
          "name": "nm",
          "type": "string"
        }
      ],
      "name": "getEntityByName",
      "outputs": [
        {
          "internalType": "address",
          "name": "",
          "type": "address"
        }
      ],
      "stateMutability": "view",
      "type": "function"
    },
    {
      "inputs": [
        {
          "components": [
            {
              "internalType": "string",
              "name": "x",
              "type": "string"
            },
            {
              "internalType": "string",
              "name": "y",
              "type": "string"
            },
            {
              "internalType": "string",
              "name": "z",
              "type": "string"
            },
            {
              "internalType": "uint256",
              "name": "t",
              "type": "uint256"
            },
            {
              "internalType": "uint256",
              "name": "p",
              "type": "uint256"
            },
            {
              "internalType": "uint256",
              "name": "p_sub",
              "type": "uint256"
            }
          ],
          "internalType": "struct VectorAddress",
          "name": "vector",
          "type": "tuple"
        }
      ],
      "name": "getEntityByVector",
      "outputs": [
        {
          "internalType": "address",
          "name": "",
          "type": "address"
        }
      ],
      "stateMutability": "view",
      "type": "function"
    },
    {
      "inputs": [
        {
          "internalType": "address",
          "name": "addr",
          "type": "address"
        }
      ],
      "name": "isRegistered",
      "outputs": [
        {
          "internalType": "bool",
          "name": "",
          "type": "bool"
        }
      ],
      "stateMutability": "view",
      "type": "function"
    },
    {
      "inputs": [
        {
          "components": [
            {
              "internalType": "address",
              "name": "owner",
              "type": "address"
            },
            {
              "internalType": "address",
              "name": "termsOwner",
              "type": "address"
            },
            {
              "components": [
                {
                  "internalType": "uint16",
                  "name": "coveragePeriodDays",
                  "type": "uint16"
                },
                {
                  "internalType": "uint16",
                  "name": "gracePeriodDays",
                  "type": "uint16"
                },
                {
                  "internalType": "uint256",
                  "name": "fee",
                  "type": "uint256"
                }
              ],
              "internalType": "struct RegistrationTerms",
              "name": "terms",
              "type": "tuple"
            },
            {
              "internalType": "uint256",
              "name": "expiration",
              "type": "uint256"
            },
            {
              "internalType": "bytes",
              "name": "ownerTermsSignature",
              "type": "bytes"
            }
          ],
          "internalType": "struct TermsSignatureVerification",
          "name": "args",
          "type": "tuple"
        }
      ],
      "name": "verifyNewEntityTermsSignature",
      "outputs": [],
      "stateMutability": "view",
      "type": "function"
    }
  ],
  "bytecode": "0x611f4461003a600b82828239805160001a60731461002d57634e487b7160e01b600052600060045260246000fd5b30600052607381538281f3fe73000000000000000000000000000000000000000030146080604052600436106100925760003560e01c8063bca13f7011610065578063bca13f7014610121578063bf52415b14610141578063c3c5a54714610154578063cbbd9c4c1461017757600080fd5b806327cfe856146100975780633e88a4e2146100b4578063474df879146100df578063af2e5d0514610101575b600080fd5b6100a16201518081565b6040519081526020015b60405180910390f35b6100c76100c23660046116fc565b61018a565b6040516001600160a01b0390911681526020016100ab565b8180156100eb57600080fd5b506100ff6100fa3660046119d2565b61020a565b005b81801561010d57600080fd5b506100ff61011c3660046119d2565b6106d1565b81801561012d57600080fd5b506100ff61013c366004611a61565b610a66565b6100ff61014f366004611a9b565b610c3b565b610167610162366004611b5c565b610dc7565b60405190151581526020016100ab565b6100c7610185366004611b77565b610e29565b600080610195610edf565b9050806002016101da85858080601f016020809104026020016040519081016040528093929190818152602001838380828437600092019190915250610f7592505050565b6040516101e79190611bd7565b908152604051908190036020019020546001600160a01b03169150505b92915050565b80516001600160a01b0381166102775760405162461bcd60e51b815260206004820152602760248201527f526567697374726174696f6e4578743a20656e74697479206372656174696f6e6044820152660819985a5b195960ca1b60648201526084015b60405180910390fd5b600082602001516020015161ffff16116102f05760405162461bcd60e51b815260206004820152603460248201527f526567697374726174696f6e4578743a20677261636520706572696f64206d75604482015273073742062652067726561746572207468616e20360641b606482015260840161026e565b8060006102fb610edf565b6001600160a01b03831660008181526020839052604080822081516306fdde0360e01b815291519495509391926103849290916306fdde0391600480830192879291908290030181865afa158015610357573d6000803e3d6000fd5b505050506040513d6000823e601f3d908101601f1916820160405261037f9190810190611bf3565b610f75565b905060008151116103a75760405162461bcd60e51b815260040161026e90611c69565b60006001600160a01b031683600201826040516103c49190611bd7565b908152604051908190036020019020546001600160a01b0316146104455760405162461bcd60e51b815260206004820152603260248201527f526567697374726174696f6e4d6f64756c653a20656e74697479206e616d6520604482015271185b1c9958591e481c9959da5cdd195c995960721b606482015260840161026e565b81546001600160a01b0316156104cf5760405162461bcd60e51b815260206004820152604360248201527f526567697374726174696f6e4d6f64756c653a20656e7469747920616c72656160448201527f64792072656769737465726564207769746820646966666572656e74206e616d606482015262653f3f60e81b608482015260a40161026e565b60408051606081018252602080890180515161ffff9081168085528251840151909116928401839052905184015183850181905286546001600160a01b031916331787556001870180546201000090940263ffffffff1990941690921792909217905560028086019190915542600386015591519091869190860190610556908590611bd7565b908152604080519182900360200190912080546001600160a01b03939093166001600160a01b0319909316929092179091558701515151156106c85760408088015190516329a6121760e21b815260009173__$ad2b23306edd42b5f4873830e307b82d47$__9163a698485c916105cf91600401611cda565b600060405180830381865af41580156105ec573d6000803e3d6000fd5b505050506040513d6000823e601f3d908101601f191682016040526106149190810190611bf3565b8051602080830191909120600081815260038901909252604090912054919250906001600160a01b03161561069d5760405162461bcd60e51b815260206004820152602960248201527f526567697374726174696f6e4d6f64756c653a20766563746f7220616c726561604482015268647920696e2075736560b81b606482015260840161026e565b6000908152600386016020526040902080546001600160a01b0319166001600160a01b038916179055505b50505050505050565b80516001600160a01b0381166107395760405162461bcd60e51b815260206004820152602760248201527f4c6962526567697374726174696f6e3a20656e74697479206372656174696f6e6044820152660819985a5b195960ca1b606482015260840161026e565b806000610744610edf565b6001600160a01b038416600090815260018201602052604090205490915060ff16156107c55760405162461bcd60e51b815260206004820152602a60248201527f526567697374726174696f6e4578743a20656e7469747920616c7265616479206044820152691c9959da5cdd195c995960b21b606482015260840161026e565b6000610808836001600160a01b03166306fdde036040518163ffffffff1660e01b8152600401600060405180830381865afa158015610357573d6000803e3d6000fd5b9050600081511161082b5760405162461bcd60e51b815260040161026e90611c69565b60006001600160a01b031682600201826040516108489190611bd7565b908152604051908190036020019020546001600160a01b0316146108c65760405162461bcd60e51b815260206004820152602f60248201527f526567697374726174696f6e4578743a20656e74697479206e616d6520616c7260448201526e1958591e481c9959da5cdd195c9959608a1b606482015260840161026e565b8382600201826040516108d99190611bd7565b908152604080516020928190038301902080546001600160a01b0319166001600160a01b0394851617905591861660009081526001858101909252829020805460ff19169091179055850151515115610a5f5760408086015190516329a6121760e21b815260009173__$ad2b23306edd42b5f4873830e307b82d47$__9163a698485c9161096991600401611cda565b600060405180830381865af4158015610986573d6000803e3d6000fd5b505050506040513d6000823e601f3d908101601f191682016040526109ae9190810190611bf3565b8051602080830191909120600081815260038701909252604090912054919250906001600160a01b031615610a345760405162461bcd60e51b815260206004820152602660248201527f526567697374726174696f6e4578743a20766563746f7220616c726561647920604482015265696e2075736560d01b606482015260840161026e565b6000908152600384016020526040902080546001600160a01b0319166001600160a01b038716179055505b5050505050565b6000610a70610edf565b905060008181610a836020860186611b5c565b6001600160a01b03908116825260208201929092526040016000208054909250163314610b1a576040805162461bcd60e51b81526020600482015260248101919091527f526567697374726174696f6e4d6f64756c653a2073656e646572206973206e6f60448201527f7420746865207465726d73206f776e657220666f722074686520656e74697479606482015260840161026e565b336001600160a01b0316634f05c1c86040518163ffffffff1660e01b8152600401602060405180830381865afa158015610b58573d6000803e3d6000fd5b505050506040513d601f19601f82011682018060405250810190610b7c9190611d5d565b610bee5760405162461bcd60e51b815260206004820152603a60248201527f526567697374726174696f6e4d6f64756c653a20656e74697479207465726d7360448201527f206f776e6572206973206e6f206c6f6e67657220616374697665000000000000606482015260840161026e565b6000610bf984610fe5565b8051600184018054602084015161ffff908116620100000263ffffffff1990921693169290921791909117905560400151600283015550426003909101555050565b42816060015111610c5e5760405162461bcd60e51b815260040161026e90611d7f565b6020808201516040808401518082015181519185015160608701519351600096610cba969593949391016001600160a01b03959095168552602085019390935261ffff9182166040850152166060830152608082015260a00190565b60408051808303601f190181528282528051602091820120818452838301909252909250600091906020820181803683370190505090508160208201526000610d0282611305565b90506000610d14828660800151611340565b905084600001516001600160a01b0316816001600160a01b031614610a5f5760405162461bcd60e51b815260206004820152605860248201527f42617365526567697374726174696f6e4d6f64756c653a20656e74697479206f60448201527f776e6572207369676e617475726520766572696679696e67206665657320616e60648201527f64207465726d73206f776e657220697320696e76616c69640000000000000000608482015260a40161026e565b600080610dd2610edf565b6001600160a01b038416600090815260018201602052604090205490915060ff168015610e03575060019392505050565b506001600160a01b03928316600090815260209190915260409020549091161515919050565b600080610e34610edf565b6040516329a6121760e21b815290915060009073__$ad2b23306edd42b5f4873830e307b82d47$__9063a698485c90610e71908790600401611cda565b600060405180830381865af4158015610e8e573d6000803e3d6000fd5b505050506040513d6000823e601f3d908101601f19168201604052610eb69190810190611bf3565b80516020918201206000908152600390930190525060409020546001600160a01b031692915050565b60408051808201909152601a81527f78722e726567697374726174696f6e2e73746f726167652e763100000000000060209091015260008060ff610f4460017f271c1317c5e13243c6727efe146b62181e041180f0dc93ece4eabc002b7978cb611df2565b604051602001610f5691815260200190565b60408051601f1981840301815291905280516020909101201692915050565b60608160005b8151811015610fde57610fad828281518110610f9957610f99611e05565b01602001516001600160f81b03191661136a565b828281518110610fbf57610fbf611e05565b60200101906001600160f81b031916908160001a905350600101610f7b565b5092915050565b6040805160608101825260008082526020820181905281830152904290830135116110225760405162461bcd60e51b815260040161026e90611d7f565b600061102c610edf565b90506000818161103f6020870187611b5c565b6001600160a01b0390811682526020808301939093526040918201600020805483516309e0b83960e31b81529351919550909116928392634f05c1c892600480830193928290030181865afa15801561109c573d6000803e3d6000fd5b505050506040513d601f19601f820116820180604052508101906110c09190611d5d565b6111325760405162461bcd60e51b815260206004820152603e60248201527f42617365526567697374726174696f6e4d6f64756c653a20656e74697479207460448201527f65726d73206f776e6572206973206e6f206c6f6e676572206163746976650000606482015260840161026e565b600061114636879003870160608801611e1b565b604080820151825160208085015184519182019390935261ffff918216818501529116606082015290880135608082015290915060009060a00160408051808303601f1901815282825280516020918201208184528383019092529092506000919060208201818036833701905050905081602082015260006111c882611305565b90506000611217826111dd60208d018d611e37565b8080601f01602080910402602001604051908101604052809392919081815260200183838082843760009201919091525061134092505050565b905061122660208b018b611b5c565b604051637df73e2760e01b81526001600160a01b0383811660048301529190911690637df73e2790602401602060405180830381865afa15801561126e573d6000803e3d6000fd5b505050506040513d601f19601f820116820180604052508101906112929190611d5d565b6112f75760405162461bcd60e51b815260206004820152603060248201527f42617365526567697374726174696f6e4d6f64756c653a20656e74697479207360448201526f1a59db985d1d5c99481a5b9d985b1a5960821b606482015260840161026e565b509298975050505050505050565b600061131182516113b9565b82604051602001611323929190611e84565b604051602081830303815290604052805190602001209050919050565b600080600080611350868661144b565b9250925092506113608282611498565b5090949350505050565b6000604160f81b6001600160f81b03198316108015906113985750602d60f91b6001600160f81b0319831611155b156113b5576113ac60f883901c6020611edf565b60f81b92915050565b5090565b606060006113c683611555565b60010190506000816001600160401b038111156113e5576113e561176d565b6040519080825280601f01601f19166020018201604052801561140f576020820181803683370190505b5090508181016020015b600019016f181899199a1a9b1b9c1cb0b131b232b360811b600a86061a8153600a850494508461141957509392505050565b600080600083516041036114855760208401516040850151606086015160001a6114778882858561162d565b955095509550505050611491565b50508151600091506002905b9250925092565b60008260038111156114ac576114ac611ef8565b036114b5575050565b60018260038111156114c9576114c9611ef8565b036114e75760405163f645eedf60e01b815260040160405180910390fd5b60028260038111156114fb576114fb611ef8565b0361151c5760405163fce698f760e01b81526004810182905260240161026e565b600382600381111561153057611530611ef8565b03611551576040516335e2f38360e21b81526004810182905260240161026e565b5050565b60008072184f03e93ff9f4daa797ed6e38ed64bf6a1f0160401b83106115945772184f03e93ff9f4daa797ed6e38ed64bf6a1f0160401b830492506040015b6d04ee2d6d415b85acef810000000083106115c0576d04ee2d6d415b85acef8100000000830492506020015b662386f26fc1000083106115de57662386f26fc10000830492506010015b6305f5e10083106115f6576305f5e100830492506008015b612710831061160a57612710830492506004015b6064831061161c576064830492506002015b600a83106102045760010192915050565b600080807f7fffffffffffffffffffffffffffffff5d576e7357a4501ddfe92f46681b20a084111561166857506000915060039050826116f2565b604080516000808252602082018084528a905260ff891692820192909252606081018790526080810186905260019060a0016020604051602081039080840390855afa1580156116bc573d6000803e3d6000fd5b5050604051601f1901519150506001600160a01b0381166116e8575060009250600191508290506116f2565b9250600091508190505b9450945094915050565b6000806020838503121561170f57600080fd5b82356001600160401b038082111561172657600080fd5b818501915085601f83011261173a57600080fd5b81358181111561174957600080fd5b86602082850101111561175b57600080fd5b60209290920196919550909350505050565b634e487b7160e01b600052604160045260246000fd5b604051606081016001600160401b03811182821017156117a5576117a561176d565b60405290565b60405160c081016001600160401b03811182821017156117a5576117a561176d565b60405160a081016001600160401b03811182821017156117a5576117a561176d565b604051601f8201601f191681016001600160401b03811182821017156118175761181761176d565b604052919050565b80356001600160a01b038116811461183657600080fd5b919050565b803561ffff8116811461183657600080fd5b60006060828403121561185f57600080fd5b611867611783565b90506118728261183b565b81526118806020830161183b565b60208201526040820135604082015292915050565b60006001600160401b038211156118ae576118ae61176d565b50601f01601f191660200190565b60006118cf6118ca84611895565b6117ef565b90508281528383830111156118e357600080fd5b828260208301376000602084830101529392505050565b600082601f83011261190b57600080fd5b61191a838335602085016118bc565b9392505050565b600060c0828403121561193357600080fd5b61193b6117ab565b905081356001600160401b038082111561195457600080fd5b611960858386016118fa565b8352602084013591508082111561197657600080fd5b611982858386016118fa565b6020840152604084013591508082111561199b57600080fd5b506119a8848285016118fa565b604083015250606082013560608201526080820135608082015260a082013560a082015292915050565b6000602082840312156119e457600080fd5b81356001600160401b03808211156119fb57600080fd5b9083019060a08286031215611a0f57600080fd5b611a17611783565b611a208361181f565b8152611a2f866020850161184d565b6020820152608083013582811115611a4657600080fd5b611a5287828601611921565b60408301525095945050505050565b600060208284031215611a7357600080fd5b81356001600160401b03811115611a8957600080fd5b820160c0818503121561191a57600080fd5b600060208284031215611aad57600080fd5b81356001600160401b0380821115611ac457600080fd5b9083019060e08286031215611ad857600080fd5b611ae06117cd565b611ae98361181f565b8152611af76020840161181f565b6020820152611b09866040850161184d565b604082015260a0830135606082015260c083013582811115611b2a57600080fd5b80840193505085601f840112611b3f57600080fd5b611b4e868435602086016118bc565b608082015295945050505050565b600060208284031215611b6e57600080fd5b61191a8261181f565b600060208284031215611b8957600080fd5b81356001600160401b03811115611b9f57600080fd5b611bab84828501611921565b949350505050565b60005b83811015611bce578181015183820152602001611bb6565b50506000910152565b60008251611be9818460208701611bb3565b9190910192915050565b600060208284031215611c0557600080fd5b81516001600160401b03811115611c1b57600080fd5b8201601f81018413611c2c57600080fd5b8051611c3a6118ca82611895565b818152856020838501011115611c4f57600080fd5b611c60826020830160208601611bb3565b95945050505050565b60208082526025908201527f526567697374726174696f6e4578743a20656e74697479206e616d6520697320604082015264656d70747960d81b606082015260800190565b60008151808452611cc6816020860160208601611bb3565b601f01601f19169290920160200192915050565b602081526000825160c06020840152611cf660e0840182611cae565b90506020840151601f1980858403016040860152611d148383611cae565b9250604086015191508085840301606086015250611d328282611cae565b91505060608401516080840152608084015160a084015260a084015160c08401528091505092915050565b600060208284031215611d6f57600080fd5b8151801515811461191a57600080fd5b60208082526038908201527f42617365526567697374726174696f6e4d6f64756c653a20657870697261746960408201527f6f6e206d75737420626520696e20746865206675747572650000000000000000606082015260800190565b634e487b7160e01b600052601160045260246000fd5b8181038181111561020457610204611ddc565b634e487b7160e01b600052603260045260246000fd5b600060608284031215611e2d57600080fd5b61191a838361184d565b6000808335601e19843603018112611e4e57600080fd5b8301803591506001600160401b03821115611e6857600080fd5b602001915036819003821315611e7d57600080fd5b9250929050565b7f19457468657265756d205369676e6564204d6573736167653a0a000000000000815260008351611ebc81601a850160208801611bb3565b835190830190611ed381601a840160208801611bb3565b01601a01949350505050565b60ff818116838216019081111561020457610204611ddc565b634e487b7160e01b600052602160045260246000fdfea2646970667358221220e0b918d3ae166eabf6d4888eb98d70420fe1e007b5a7e54e222e5a293d520e6364736f6c63430008180033",
  "linkReferences": {
    "contracts/libraries/LibVectorAddress.sol": {
      "LibVectorAddress": [
        {
          "length": 20,
          "start": 1507
        },
        {
          "length": 20,
          "start": 2429
        },
        {
          "length": 20,
          "start": 3715
        }
      ]
    }
  },
  "deployedLinkReferences": {
    "contracts/libraries/LibVectorAddress.sol": {
      "LibVectorAddress": [
        {
          "length": 20,
          "start": 1449
        },
        {
          "length": 20,
          "start": 2371
        },
        {
          "length": 20,
          "start": 3657
        }
      ]
    }
  }
}