{
  "_format": "hh-sol-artifact-1",
  "contractName": "LibAccess",
  "sourceName": "contracts/libraries/LibAccess.sol",
  "abi": [
    {
      "inputs": [
        {
          "internalType": "bytes32",
          "name": "role",
          "type": "bytes32"
        },
        {
          "internalType": "address",
          "name": "account",
          "type": "address"
        }
      ],
      "name": "hasRole",
      "outputs": [
        {
          "internalType": "bool",
          "name": "",
          "type": "bool"
        }
      ],
      "stateMutability": "view",
      "type": "function"
    },
    {
      "inputs": [
        {
          "internalType": "address",
          "name": "a",
          "type": "address"
        }
      ],
      "name": "isAdmin",
      "outputs": [
        {
          "internalType": "bool",
          "name": "",
          "type": "bool"
        }
      ],
      "stateMutability": "view",
      "type": "function"
    },
    {
      "inputs": [
        {
          "internalType": "address",
          "name": "a",
          "type": "address"
        }
      ],
      "name": "isSigner",
      "outputs": [
        {
          "internalType": "bool",
          "name": "",
          "type": "bool"
        }
      ],
      "stateMutability": "view",
      "type": "function"
    },
    {
      "inputs": [],
      "name": "owner",
      "outputs": [
        {
          "internalType": "address",
          "name": "",
          "type": "address"
        }
      ],
      "stateMutability": "view",
      "type": "function"
    }
  ],
  "bytecode": "0x610f2361003a600b82828239805160001a60731461002d57634e487b7160e01b600052600060045260246000fd5b30600052607381538281f3fe73000000000000000000000000000000000000000030146080604052600436106100a85760003560e01c80638da5cb5b116100705780638da5cb5b1461014a57806391d148541461016a578063d547741f1461017d578063d9ac971f1461019d578063e8906a2d146101bd57600080fd5b806313af4035146100ad57806324d7806c146100cf5780632f2ff15d146100f75780637df73e27146101175780638d361e431461012a575b600080fd5b8180156100b957600080fd5b506100cd6100c8366004610d19565b6101dd565b005b6100e26100dd366004610d19565b61034d565b60405190151581526020015b60405180910390f35b81801561010357600080fd5b506100cd610112366004610d34565b6103e9565b6100e2610125366004610d19565b6104ed565b81801561013657600080fd5b506100cd610145366004610dac565b610539565b6101526106bc565b6040516001600160a01b0390911681526020016100ee565b6100e2610178366004610d34565b6106d7565b81801561018957600080fd5b506100cd610198366004610d34565b610715565b8180156101a957600080fd5b506100cd6101b8366004610dee565b610814565b8180156101c957600080fd5b506100cd6101d8366004610dac565b610af4565b336101e6610c70565b546001600160a01b0316146102425760405162461bcd60e51b815260206004820181905260248201527f4163636573734d6f64756c653a206f6e6c79206f776e657220616c6c6f77656460448201526064015b60405180910390fd5b6001600160a01b0381166102b05760405162461bcd60e51b815260206004820152602f60248201527f416363657373436f6e74726f6c3a2063616e6e6f7420736574206f776e65722060448201526e746f207a65726f206164647265737360881b6064820152608401610239565b60006102ba610c70565b80546001600160a01b039093166001600160a01b0319909316831781557f9f4e1c871d5fdd0aee1cd182666698a4492b24c6832aac230d07b11046af5a8960009081526001918201602081815260408084208785528252808420805460ff199081168717909155600080516020610ece833981519152855292825280842096845295905293902080549093161790915550565b600080610358610c70565b600080516020610ece833981519152600090815260018201602090815260408083206001600160a01b038816845290915290205490915060ff16806103e257507f9f4e1c871d5fdd0aee1cd182666698a4492b24c6832aac230d07b11046af5a89600090815260018201602090815260408083206001600160a01b038716845290915290205460ff165b9392505050565b6103f1610c70565b600080516020610ece83398151915260009081526001919091016020908152604080832033845290915290205460ff1661043d5760405162461bcd60e51b815260040161023990610e41565b6001600160a01b0381166104ac5760405162461bcd60e51b815260206004820152603060248201527f416363657373436f6e74726f6c3a2063616e6e6f74206772616e7420726f6c6560448201526f20746f207a65726f206164647265737360801b6064820152608401610239565b60006104b6610c70565b60009384526001908101602090815260408086206001600160a01b0395909516865293905291909220805460ff1916909117905550565b6000806104f8610c70565b600080516020610eae83398151915260009081526001909101602090815260408083206001600160a01b039096168352949052929092205460ff1692915050565b610541610c70565b600080516020610ece83398151915260009081526001919091016020908152604080832033845290915290205460ff1661058d5760405162461bcd60e51b815260040161023990610e41565b6000610597610c70565b905060005b828110156106b65760008484838181106105b8576105b8610e76565b90506020020160208101906105cd9190610d19565b6001600160a01b03160361063f5760405162461bcd60e51b815260206004820152603360248201527f5368617265644c69624163636573733a2063616e6e6f742072656d6f7665207a60448201527265726f2061646472657373207369676e65727360681b6064820152608401610239565b600080516020610eae833981519152600090815260018301602052604081208186868581811061067157610671610e76565b90506020020160208101906106869190610d19565b6001600160a01b031681526020810191909152604001600020805460ff191691151591909117905560010161059c565b50505050565b6000806106c7610c70565b546001600160a01b031692915050565b6000806106e2610c70565b60008581526001909101602090815260408083206001600160a01b038716845290915290205460ff169150505b92915050565b61071d610c70565b600080516020610ece83398151915260009081526001919091016020908152604080832033845290915290205460ff166107695760405162461bcd60e51b815260040161023990610e41565b6001600160a01b0381166107db5760405162461bcd60e51b815260206004820152603360248201527f416363657373436f6e74726f6c3a2063616e6e6f74207265766f6b6520726f6c604482015272652066726f6d207a65726f206164647265737360681b6064820152608401610239565b60006107e5610c70565b6000938452600101602090815260408085206001600160a01b039094168552929052509020805460ff19169055565b600061081e610c70565b80549091506001600160a01b03161561086f5760405162461bcd60e51b8152602060048201526013602482015272105b1c9958591e481a5b9a5d1a585b1a5e9959606a1b6044820152606401610239565b6001600160a01b0384166108c55760405162461bcd60e51b815260206004820152601c60248201527f4f776e65722063616e6e6f74206265207a65726f2061646472657373000000006044820152606401610239565b80546001600160a01b0319166001600160a01b03851690811782557f9f4e1c871d5fdd0aee1cd182666698a4492b24c6832aac230d07b11046af5a8960009081526001808401602081815260408085208686528252808520805460ff199081168617909155600080516020610ece833981519152865283835281862087875283528186208054821686179055600080516020610eae83398151915286529282528085209585529490529282208054909316179091555b82811015610aed57600084848381811061099757610997610e76565b90506020020160208101906109ac9190610d19565b6001600160a01b031603610a025760405162461bcd60e51b815260206004820152601d60248201527f41646d696e732063616e6e6f74206265207a65726f20616464726573730000006044820152606401610239565b600080516020610ece83398151915260009081526001838101602052604082209091868685818110610a3657610a36610e76565b9050602002016020810190610a4b9190610d19565b6001600160a01b0316815260208082019290925260409081016000908120805460ff191694151594909417909355600080516020610eae8339815191528352600185810190925282209091868685818110610aa857610aa8610e76565b9050602002016020810190610abd9190610d19565b6001600160a01b031681526020810191909152604001600020805460ff191691151591909117905560010161097b565b5050505050565b610afc610c70565b600080516020610ece83398151915260009081526001919091016020908152604080832033845290915290205460ff16610b485760405162461bcd60e51b815260040161023990610e41565b6000610b52610c70565b905060005b828110156106b6576000848483818110610b7357610b73610e76565b9050602002016020810190610b889190610d19565b6001600160a01b031603610bf75760405162461bcd60e51b815260206004820152603060248201527f5368617265644c69624163636573733a2063616e6e6f7420616464207a65726f60448201526f2061646472657373207369676e65727360801b6064820152608401610239565b600080516020610eae83398151915260009081526001838101602052604082209091868685818110610c2b57610c2b610e76565b9050602002016020810190610c409190610d19565b6001600160a01b031681526020810191909152604001600020805460ff1916911515919091179055600101610b57565b60408051808201909152601481527378722e6163636573732e73746f726167652e763160601b60209091015260008060ff610ccc60017fd870894b15ee1369a593f3670ac51c4ed8201dab473944ee712694d327dd5875610e8c565b604051602001610cde91815260200190565b60408051601f1981840301815291905280516020909101201692915050565b80356001600160a01b0381168114610d1457600080fd5b919050565b600060208284031215610d2b57600080fd5b6103e282610cfd565b60008060408385031215610d4757600080fd5b82359150610d5760208401610cfd565b90509250929050565b60008083601f840112610d7257600080fd5b50813567ffffffffffffffff811115610d8a57600080fd5b6020830191508360208260051b8501011115610da557600080fd5b9250929050565b60008060208385031215610dbf57600080fd5b823567ffffffffffffffff811115610dd657600080fd5b610de285828601610d60565b90969095509350505050565b600080600060408486031215610e0357600080fd5b610e0c84610cfd565b9250602084013567ffffffffffffffff811115610e2857600080fd5b610e3486828701610d60565b9497909650939450505050565b6020808252818101527f4163636573734d6f64756c653a206f6e6c792061646d696e20616c6c6f776564604082015260600190565b634e487b7160e01b600052603260045260246000fd5b8181038181111561070f57634e487b7160e01b600052601160045260246000fdfe749410edf1177aefa27612b24d2d51e6441f89613f5ddf9be1d11dfc0d3e4fea2172861495e7b85edac73e3cd5fbb42dd675baadf627720e687bcfdaca025096a2646970667358221220682861e3f63e9e42c25ab2787449722b1c0edecaae7c813bc776e7de517fe02564736f6c63430008180033",
  "linkReferences": {},
  "deployedLinkReferences": {}
}