{
  "_format": "hh-sol-artifact-1",
  "contractName": "LibAccess",
  "sourceName": "contracts/libraries/LibAccess.sol",
  "abi": [
    {
      "inputs": [
        {
          "internalType": "bytes32",
          "name": "role",
          "type": "bytes32"
        },
        {
          "internalType": "address",
          "name": "account",
          "type": "address"
        }
      ],
      "name": "hasRole",
      "outputs": [
        {
          "internalType": "bool",
          "name": "",
          "type": "bool"
        }
      ],
      "stateMutability": "view",
      "type": "function"
    },
    {
      "inputs": [
        {
          "internalType": "address",
          "name": "a",
          "type": "address"
        }
      ],
      "name": "isAdmin",
      "outputs": [
        {
          "internalType": "bool",
          "name": "",
          "type": "bool"
        }
      ],
      "stateMutability": "view",
      "type": "function"
    },
    {
      "inputs": [
        {
          "internalType": "address",
          "name": "a",
          "type": "address"
        }
      ],
      "name": "isSigner",
      "outputs": [
        {
          "internalType": "bool",
          "name": "",
          "type": "bool"
        }
      ],
      "stateMutability": "view",
      "type": "function"
    },
    {
      "inputs": [],
      "name": "owner",
      "outputs": [
        {
          "internalType": "address",
          "name": "",
          "type": "address"
        }
      ],
      "stateMutability": "view",
      "type": "function"
    }
  ],
  "bytecode": "0x610d3e61003a600b82828239805160001a60731461002d57634e487b7160e01b600052600060045260246000fd5b30600052607381538281f3fe73000000000000000000000000000000000000000030146080604052600436106100a85760003560e01c80638da5cb5b116100705780638da5cb5b1461014a57806391d148541461016a578063d547741f1461017d578063d9ac971f1461019d578063e8906a2d146101bd57600080fd5b806313af4035146100ad57806324d7806c146100cf5780632f2ff15d146100f75780637df73e27146101175780638d361e431461012a575b600080fd5b8180156100b957600080fd5b506100cd6100c8366004610b69565b6101dd565b005b6100e26100dd366004610b69565b6102ed565b60405190151581526020015b60405180910390f35b81801561010357600080fd5b506100cd610112366004610b84565b610389565b6100e2610125366004610b69565b610439565b81801561013657600080fd5b506100cd610145366004610bfc565b610485565b6101526105b4565b6040516001600160a01b0390911681526020016100ee565b6100e2610178366004610b84565b6105cf565b81801561018957600080fd5b506100cd610198366004610b84565b61060d565b8180156101a957600080fd5b506100cd6101b8366004610c3e565b6106b8565b8180156101c957600080fd5b506100cd6101d8366004610bfc565b610998565b6001600160a01b0381166102505760405162461bcd60e51b815260206004820152602f60248201527f416363657373436f6e74726f6c3a2063616e6e6f7420736574206f776e65722060448201526e746f207a65726f206164647265737360881b60648201526084015b60405180910390fd5b600061025a610ac0565b80546001600160a01b039093166001600160a01b0319909316831781557f9f4e1c871d5fdd0aee1cd182666698a4492b24c6832aac230d07b11046af5a8960009081526001918201602081815260408084208785528252808420805460ff199081168717909155600080516020610ce9833981519152855292825280842096845295905293902080549093161790915550565b6000806102f8610ac0565b600080516020610ce9833981519152600090815260018201602090815260408083206001600160a01b038816845290915290205490915060ff168061038257507f9f4e1c871d5fdd0aee1cd182666698a4492b24c6832aac230d07b11046af5a89600090815260018201602090815260408083206001600160a01b038716845290915290205460ff165b9392505050565b6001600160a01b0381166103f85760405162461bcd60e51b815260206004820152603060248201527f416363657373436f6e74726f6c3a2063616e6e6f74206772616e7420726f6c6560448201526f20746f207a65726f206164647265737360801b6064820152608401610247565b6000610402610ac0565b60009384526001908101602090815260408086206001600160a01b0395909516865293905291909220805460ff1916909117905550565b600080610444610ac0565b600080516020610cc983398151915260009081526001909101602090815260408083206001600160a01b039096168352949052929092205460ff1692915050565b600061048f610ac0565b905060005b828110156105ae5760008484838181106104b0576104b0610c91565b90506020020160208101906104c59190610b69565b6001600160a01b0316036105375760405162461bcd60e51b815260206004820152603360248201527f5368617265644c69624163636573733a2063616e6e6f742072656d6f7665207a60448201527265726f2061646472657373207369676e65727360681b6064820152608401610247565b600080516020610cc9833981519152600090815260018301602052604081208186868581811061056957610569610c91565b905060200201602081019061057e9190610b69565b6001600160a01b031681526020810191909152604001600020805460ff1916911515919091179055600101610494565b50505050565b6000806105bf610ac0565b546001600160a01b031692915050565b6000806105da610ac0565b60008581526001909101602090815260408083206001600160a01b038716845290915290205460ff169150505b92915050565b6001600160a01b03811661067f5760405162461bcd60e51b815260206004820152603360248201527f416363657373436f6e74726f6c3a2063616e6e6f74207265766f6b6520726f6c604482015272652066726f6d207a65726f206164647265737360681b6064820152608401610247565b6000610689610ac0565b6000938452600101602090815260408085206001600160a01b039094168552929052509020805460ff19169055565b60006106c2610ac0565b80549091506001600160a01b0316156107135760405162461bcd60e51b8152602060048201526013602482015272105b1c9958591e481a5b9a5d1a585b1a5e9959606a1b6044820152606401610247565b6001600160a01b0384166107695760405162461bcd60e51b815260206004820152601c60248201527f4f776e65722063616e6e6f74206265207a65726f2061646472657373000000006044820152606401610247565b80546001600160a01b0319166001600160a01b03851690811782557f9f4e1c871d5fdd0aee1cd182666698a4492b24c6832aac230d07b11046af5a8960009081526001808401602081815260408085208686528252808520805460ff199081168617909155600080516020610ce9833981519152865283835281862087875283528186208054821686179055600080516020610cc983398151915286529282528085209585529490529282208054909316179091555b8281101561099157600084848381811061083b5761083b610c91565b90506020020160208101906108509190610b69565b6001600160a01b0316036108a65760405162461bcd60e51b815260206004820152601d60248201527f41646d696e732063616e6e6f74206265207a65726f20616464726573730000006044820152606401610247565b600080516020610ce9833981519152600090815260018381016020526040822090918686858181106108da576108da610c91565b90506020020160208101906108ef9190610b69565b6001600160a01b0316815260208082019290925260409081016000908120805460ff191694151594909417909355600080516020610cc9833981519152835260018581019092528220909186868581811061094c5761094c610c91565b90506020020160208101906109619190610b69565b6001600160a01b031681526020810191909152604001600020805460ff191691151591909117905560010161081f565b5050505050565b60006109a2610ac0565b905060005b828110156105ae5760008484838181106109c3576109c3610c91565b90506020020160208101906109d89190610b69565b6001600160a01b031603610a475760405162461bcd60e51b815260206004820152603060248201527f5368617265644c69624163636573733a2063616e6e6f7420616464207a65726f60448201526f2061646472657373207369676e65727360801b6064820152608401610247565b600080516020610cc983398151915260009081526001838101602052604082209091868685818110610a7b57610a7b610c91565b9050602002016020810190610a909190610b69565b6001600160a01b031681526020810191909152604001600020805460ff19169115159190911790556001016109a7565b60408051808201909152601481527378722e6163636573732e73746f726167652e763160601b60209091015260008060ff610b1c60017fd870894b15ee1369a593f3670ac51c4ed8201dab473944ee712694d327dd5875610ca7565b604051602001610b2e91815260200190565b60408051601f1981840301815291905280516020909101201692915050565b80356001600160a01b0381168114610b6457600080fd5b919050565b600060208284031215610b7b57600080fd5b61038282610b4d565b60008060408385031215610b9757600080fd5b82359150610ba760208401610b4d565b90509250929050565b60008083601f840112610bc257600080fd5b50813567ffffffffffffffff811115610bda57600080fd5b6020830191508360208260051b8501011115610bf557600080fd5b9250929050565b60008060208385031215610c0f57600080fd5b823567ffffffffffffffff811115610c2657600080fd5b610c3285828601610bb0565b90969095509350505050565b600080600060408486031215610c5357600080fd5b610c5c84610b4d565b9250602084013567ffffffffffffffff811115610c7857600080fd5b610c8486828701610bb0565b9497909650939450505050565b634e487b7160e01b600052603260045260246000fd5b8181038181111561060757634e487b7160e01b600052601160045260246000fdfe749410edf1177aefa27612b24d2d51e6441f89613f5ddf9be1d11dfc0d3e4fea2172861495e7b85edac73e3cd5fbb42dd675baadf627720e687bcfdaca025096a2646970667358221220256a09e2437124dbd60c805745795e5b8ceca5c2b96098b4df210140b99e1fb064736f6c63430008180033",
  "linkReferences": {},
  "deployedLinkReferences": {}
}