{
  "_format": "hh-sol-artifact-1",
  "contractName": "LibFactory",
  "sourceName": "contracts/libraries/LibFactory.sol",
  "abi": [
    {
      "anonymous": false,
      "inputs": [
        {
          "indexed": true,
          "internalType": "address",
          "name": "implementation",
          "type": "address"
        }
      ],
      "name": "RegistryEntityImplementationSet",
      "type": "event"
    },
    {
      "anonymous": false,
      "inputs": [
        {
          "indexed": true,
          "internalType": "address",
          "name": "implementation",
          "type": "address"
        }
      ],
      "name": "RegistryProxyImplementationSet",
      "type": "event"
    },
    {
      "inputs": [],
      "name": "getEntityImplementation",
      "outputs": [
        {
          "internalType": "address",
          "name": "",
          "type": "address"
        }
      ],
      "stateMutability": "view",
      "type": "function"
    },
    {
      "inputs": [],
      "name": "getEntityVersion",
      "outputs": [
        {
          "components": [
            {
              "internalType": "uint16",
              "name": "major",
              "type": "uint16"
            },
            {
              "internalType": "uint16",
              "name": "minor",
              "type": "uint16"
            }
          ],
          "internalType": "struct Version",
          "name": "",
          "type": "tuple"
        }
      ],
      "stateMutability": "view",
      "type": "function"
    },
    {
      "inputs": [],
      "name": "getProxyImplementation",
      "outputs": [
        {
          "internalType": "address",
          "name": "",
          "type": "address"
        }
      ],
      "stateMutability": "view",
      "type": "function"
    }
  ],
  "bytecode": "0x61046f61003a600b82828239805160001a60731461002d57634e487b7160e01b600052600060045260246000fd5b30600052607381538281f3fe73000000000000000000000000000000000000000030146080604052600436106100615760003560e01c80635e04096214610066578063689c48f01461009557806390e4b720146100b55780639fdcd3a4146100bd578063cdbe2211146100df575b600080fd5b61006e6100ff565b60408051825161ffff90811682526020938401511692810192909252015b60405180910390f35b61009d610148565b6040516001600160a01b03909116815260200161008c565b61009d610163565b8180156100c957600080fd5b506100dd6100d8366004610362565b610181565b005b8180156100eb57600080fd5b506100dd6100fa366004610362565b6101dc565b6040805180820190915260008082526020820152600061011d6102cc565b6040805180820190915260029091015461ffff80821683526201000090910416602082015292915050565b6000806101536102cc565b546001600160a01b031692915050565b60008061016e6102cc565b600101546001600160a01b031692915050565b600061018b6102cc565b6001810180546001600160a01b0319166001600160a01b038516908117909155604051919250907fbf4f6f961e096ca8c289f3405b3c29c59305d07baeb59ed252fc41f1385f166890600090a25050565b60006101e66102cc565b80546001600160a01b0319166001600160a01b03841690811782556040805163054fd4d560e41b815281519394506000936354fd4d50926004808401939192918290030181865afa15801561023f573d6000803e3d6000fd5b505050506040513d601f19601f8201168201806040525081019061026391906103a9565b8051600284018054602084015161ffff908116620100000263ffffffff199092169316929092179190911790556040519091506001600160a01b038416907f6a7eaefad3a9131d857088e85aa3e3ba4ce8d967a3613355edca2af81bf30c8b90600090a2505050565b60408051808201909152601c81527f78722e656e746974792e666163746f72792e73746f726167652e76310000000060209091015260008060ff61033160017f8b4ac7cd4466ab0d50fe53a88c5446ca4a450d482bef9ad792e7d9f451497e0f610412565b60405160200161034391815260200190565b60408051601f1981840301815291905280516020909101201692915050565b60006020828403121561037457600080fd5b81356001600160a01b038116811461038b57600080fd5b9392505050565b805161ffff811681146103a457600080fd5b919050565b6000604082840312156103bb57600080fd5b6040516040810181811067ffffffffffffffff821117156103ec57634e487b7160e01b600052604160045260246000fd5b6040526103f883610392565b815261040660208401610392565b60208201529392505050565b8181038181111561043357634e487b7160e01b600052601160045260246000fd5b9291505056fea264697066735822122074e55d05cbe3753d18fa084f66d6d7e9d03e09ee54ead309ce8cf9390f70652964736f6c63430008180033",
  "linkReferences": {},
  "deployedLinkReferences": {}
}