{
  "_format": "hh-sol-artifact-1",
  "contractName": "LibRegistration",
  "sourceName": "contracts/libraries/LibRegistration.sol",
  "abi": [
    {
      "inputs": [],
      "name": "ECDSAInvalidSignature",
      "type": "error"
    },
    {
      "inputs": [
        {
          "internalType": "uint256",
          "name": "length",
          "type": "uint256"
        }
      ],
      "name": "ECDSAInvalidSignatureLength",
      "type": "error"
    },
    {
      "inputs": [
        {
          "internalType": "bytes32",
          "name": "s",
          "type": "bytes32"
        }
      ],
      "name": "ECDSAInvalidSignatureS",
      "type": "error"
    },
    {
      "inputs": [],
      "name": "DAY",
      "outputs": [
        {
          "internalType": "uint256",
          "name": "",
          "type": "uint256"
        }
      ],
      "stateMutability": "view",
      "type": "function"
    },
    {
      "inputs": [
        {
          "internalType": "string",
          "name": "nm",
          "type": "string"
        }
      ],
      "name": "getEntityByName",
      "outputs": [
        {
          "internalType": "address",
          "name": "",
          "type": "address"
        }
      ],
      "stateMutability": "view",
      "type": "function"
    },
    {
      "inputs": [
        {
          "components": [
            {
              "internalType": "string",
              "name": "x",
              "type": "string"
            },
            {
              "internalType": "string",
              "name": "y",
              "type": "string"
            },
            {
              "internalType": "string",
              "name": "z",
              "type": "string"
            },
            {
              "internalType": "uint256",
              "name": "t",
              "type": "uint256"
            },
            {
              "internalType": "uint256",
              "name": "p",
              "type": "uint256"
            },
            {
              "internalType": "uint256",
              "name": "p_sub",
              "type": "uint256"
            }
          ],
          "internalType": "struct VectorAddress",
          "name": "vector",
          "type": "tuple"
        }
      ],
      "name": "getEntityByVector",
      "outputs": [
        {
          "internalType": "address",
          "name": "",
          "type": "address"
        }
      ],
      "stateMutability": "view",
      "type": "function"
    },
    {
      "inputs": [
        {
          "internalType": "address",
          "name": "addr",
          "type": "address"
        }
      ],
      "name": "isRegistered",
      "outputs": [
        {
          "internalType": "bool",
          "name": "",
          "type": "bool"
        }
      ],
      "stateMutability": "view",
      "type": "function"
    },
    {
      "inputs": [
        {
          "components": [
            {
              "internalType": "address",
              "name": "owner",
              "type": "address"
            },
            {
              "internalType": "address",
              "name": "termsOwner",
              "type": "address"
            },
            {
              "components": [
                {
                  "internalType": "uint16",
                  "name": "coveragePeriodDays",
                  "type": "uint16"
                },
                {
                  "internalType": "uint16",
                  "name": "gracePeriodDays",
                  "type": "uint16"
                },
                {
                  "internalType": "uint256",
                  "name": "fee",
                  "type": "uint256"
                }
              ],
              "internalType": "struct RegistrationTerms",
              "name": "terms",
              "type": "tuple"
            },
            {
              "internalType": "uint256",
              "name": "expiration",
              "type": "uint256"
            },
            {
              "internalType": "bytes",
              "name": "ownerTermsSignature",
              "type": "bytes"
            }
          ],
          "internalType": "struct TermsSignatureVerification",
          "name": "args",
          "type": "tuple"
        }
      ],
      "name": "verifyNewEntityTermsSignature",
      "outputs": [],
      "stateMutability": "view",
      "type": "function"
    }
  ],
  "bytecode": "0x61205961003a600b82828239805160001a60731461002d57634e487b7160e01b600052600060045260246000fd5b30600052607381538281f3fe73000000000000000000000000000000000000000030146080604052600436106100d95760003560e01c80633e88a4e211610096578063bca13f7011610070578063bca13f7014610208578063bf52415b14610228578063c3c5a5471461023b578063cbbd9c4c1461025e57600080fd5b80633e88a4e21461019d578063745998e1146101c8578063b3aee32d146101e857600080fd5b806303f6b99e146100de5780631a4647df146101005780631d44929d1461012057806326590a1d1461014057806327cfe856146101605780632dbe2ef61461017d575b600080fd5b8180156100ea57600080fd5b506100fe6100f93660046115a5565b610271565b005b81801561010c57600080fd5b506100fe61011b3660046116d0565b6102eb565b81801561012c57600080fd5b506100fe61013b36600461184a565b6103e2565b81801561014c57600080fd5b506100fe61015b366004611886565b610498565b61016a6201518081565b6040519081526020015b60405180910390f35b81801561018957600080fd5b506100fe610198366004611992565b610610565b6101b06101ab3660046119e4565b610772565b6040516001600160a01b039091168152602001610174565b8180156101d457600080fd5b506100fe6101e3366004611a25565b6107f2565b8180156101f457600080fd5b506100fe610203366004611886565b6109a1565b81801561021457600080fd5b506100fe610223366004611a94565b6109b8565b6100fe610236366004611ace565b610aab565b61024e6102493660046115a5565b610c3e565b6040519015158152602001610174565b6101b061026c36600461184a565b610ca0565b600061027b610d56565b6001600160a01b038316600090815260028201602052604090205490915060ff16156102c25760405162461bcd60e51b81526004016102b990611b8f565b60405180910390fd5b6001600160a01b039091166000908152600290910160205260409020805460ff19166001179055565b60006102f5610d56565b6001600160a01b038086166000908152600183016020526040902080549293509116156103345760405162461bcd60e51b81526004016102b990611b8f565b6001600160a01b03841661035a5760405162461bcd60e51b81526004016102b990611bd9565b6000836020015161ffff16116103825760405162461bcd60e51b81526004016102b990611c2c565b80546001600160a01b039094166001600160a01b0319909416939093178355508051600183018054602084015161ffff908116620100000263ffffffff199092169316929092179190911790556040015160028201554260039091015550565b60006103ec610d56565b6040516329a6121760e21b815290915060009073__$ad2b23306edd42b5f4873830e307b82d47$__9063a698485c90610429908690600401611cd0565b600060405180830381865af4158015610446573d6000803e3d6000fd5b505050506040513d6000823e601f3d908101601f1916820160405261046e9190810190611d53565b8051602091820120600090815260049093019052506040902080546001600160a01b031916905550565b6104b481600001518260200151836040015184606001516107f2565b608081015151511561060d5760006104ca610d56565b60808301516040516329a6121760e21b815291925060009173__$ad2b23306edd42b5f4873830e307b82d47$__9163a698485c9161050b9190600401611cd0565b600060405180830381865af4158015610528573d6000803e3d6000fd5b505050506040513d6000823e601f3d908101601f191682016040526105509190810190611d53565b8051602080830191909120600081815260048601909252604090912054919250906001600160a01b0316156105d95760405162461bcd60e51b815260206004820152602960248201527f526567697374726174696f6e4d6f64756c653a20766563746f7220616c726561604482015268647920696e2075736560b81b60648201526084016102b9565b835160009182526004939093016020526040902080546001600160a01b0319166001600160a01b0390931692909217909155505b50565b600061061a610d56565b6001600160a01b038516600090815260028201602052604090205490915060ff16156106585760405162461bcd60e51b81526004016102b990611b8f565b600061069984848080601f016020809104026020016040519081016040528093929190818152602001838380828437600092019190915250610dec92505050565b905060008151116106bc5760405162461bcd60e51b81526004016102b990611dc9565b60006001600160a01b031682600301826040516106d99190611e0e565b908152604051908190036020019020546001600160a01b03161461070f5760405162461bcd60e51b81526004016102b990611e2a565b8482600301826040516107229190611e0e565b908152604080516020928190038301902080546001600160a01b0319166001600160a01b0394851617905596909116600090815260029390930190525092909220805460ff191660011790555050565b60008061077d610d56565b9050806003016107c285858080601f016020809104026020016040519081016040528093929190818152602001838380828437600092019190915250610dec92505050565b6040516107cf9190611e0e565b908152604051908190036020019020546001600160a01b03169150505b92915050565b6001600160a01b0383166108185760405162461bcd60e51b81526004016102b990611bd9565b6000610822610d56565b6001600160a01b038087166000908152600183016020526040902080549293509116156108615760405162461bcd60e51b81526004016102b990611b8f565b6000846020015161ffff16116108895760405162461bcd60e51b81526004016102b990611c2c565b600061089484610dec565b905060008151116108b75760405162461bcd60e51b81526004016102b990611dc9565b60006001600160a01b031683600301826040516108d49190611e0e565b908152604051908190036020019020546001600160a01b03161461090a5760405162461bcd60e51b81526004016102b990611e2a565b86836003018260405161091d9190611e0e565b9081526040805191829003602090810190922080546001600160a01b039485166001600160a01b0319918216179091558554999093169890921697909717835585516001840180549888015161ffff908116620100000263ffffffff19909a1692169190911797909717909655509290930151600283015550426003909101555050565b6104b48160000151826020015183604001516102eb565b60006109c2610d56565b805490915015610a145760405162461bcd60e51b815260206004820181905260248201527f456e7469747952656d6f76616c4578743a207265656e7472616e742063616c6c60448201526064016102b9565b600181556000610a22610d56565b905060006001820181610a3860208701876115a5565b6001600160a01b03166001600160a01b0316815260200190815260200160002090506000610a6585610e5c565b8051600184018054602084015161ffff908116620100000263ffffffff199092169316929092179190911790556040015160028301555042600390910155506000905550565b42816060015111610ace5760405162461bcd60e51b81526004016102b990611e79565b6020808201516040808401518082015181519185015160608701519351600096610b2a969593949391016001600160a01b03959095168552602085019390935261ffff9182166040850152166060830152608082015260a00190565b60408051808303601f190181528282528051602091820120818452838301909252909250600091906020820181803683370190505090508160208201526000610b7282611192565b90506000610b848286608001516111cd565b905084600001516001600160a01b0316816001600160a01b031614610c375760405162461bcd60e51b815260206004820152605860248201527f42617365526567697374726174696f6e4d6f64756c653a20656e74697479206f60448201527f776e6572207369676e617475726520766572696679696e67206665657320616e60648201527f64207465726d73206f776e657220697320696e76616c69640000000000000000608482015260a4016102b9565b5050505050565b600080610c49610d56565b6001600160a01b0384811660009081526001830160205260409020549192501615801590610c7b575060019392505050565b506001600160a01b039092166000908152600290920160205250604090205460ff1690565b600080610cab610d56565b6040516329a6121760e21b815290915060009073__$ad2b23306edd42b5f4873830e307b82d47$__9063a698485c90610ce8908790600401611cd0565b600060405180830381865af4158015610d05573d6000803e3d6000fd5b505050506040513d6000823e601f3d908101601f19168201604052610d2d9190810190611d53565b80516020918201206000908152600490930190525060409020546001600160a01b031692915050565b60408051808201909152601a81527f78722e726567697374726174696f6e2e73746f726167652e763100000000000060209091015260008060ff610dbb60017f271c1317c5e13243c6727efe146b62181e041180f0dc93ece4eabc002b7978cb611eec565b604051602001610dcd91815260200190565b60408051601f1981840301815291905280516020909101201692915050565b60608160005b8151811015610e5557610e24828281518110610e1057610e10611eff565b01602001516001600160f81b0319166111f7565b828281518110610e3657610e36611eff565b60200101906001600160f81b031916908160001a905350600101610df2565b5092915050565b604080516060810182526000808252602082018190528183015290429083013511610e995760405162461bcd60e51b81526004016102b990611e79565b6000610ea3610d56565b905060006001820181610eb960208701876115a5565b6001600160a01b0390811682526020808301939093526040918201600020805483516309e0b83960e31b81529351919550909116928392634f05c1c892600480830193928290030181865afa158015610f16573d6000803e3d6000fd5b505050506040513d601f19601f82011682018060405250810190610f3a9190611f15565b610fac5760405162461bcd60e51b815260206004820152603e60248201527f42617365526567697374726174696f6e4d6f64756c653a20656e74697479207460448201527f65726d73206f776e6572206973206e6f206c6f6e67657220616374697665000060648201526084016102b9565b6000610fc036879003870160608801611f37565b8354604082810151835160208086015184516001600160a01b03909616918601919091528484019290925261ffff908116606085015216608083015288013560a082015290915060009060c00160408051808303601f19018152828252805160209182012081845283830190925290925060009190602082018180368337019050509050816020820152600061105582611192565b905060006110a48261106a60208d018d611f53565b8080601f0160208091040260200160405190810160405280939291908181526020018383808284376000920191909152506111cd92505050565b90506110b360208b018b6115a5565b604051630935e01b60e21b81526001600160a01b03838116600483015291909116906324d7806c90602401602060405180830381865afa1580156110fb573d6000803e3d6000fd5b505050506040513d601f19601f8201168201806040525081019061111f9190611f15565b6111845760405162461bcd60e51b815260206004820152603060248201527f42617365526567697374726174696f6e4d6f64756c653a20656e74697479207360448201526f1a59db985d1d5c99481a5b9d985b1a5960821b60648201526084016102b9565b509298975050505050505050565b600061119e8251611246565b826040516020016111b0929190611f99565b604051602081830303815290604052805190602001209050919050565b6000806000806111dd86866112d8565b9250925092506111ed8282611325565b5090949350505050565b6000604160f81b6001600160f81b03198316108015906112255750602d60f91b6001600160f81b0319831611155b156112425761123960f883901c6020611ff4565b60f81b92915050565b5090565b60606000611253836113e2565b60010190506000816001600160401b03811115611272576112726115c7565b6040519080825280601f01601f19166020018201604052801561129c576020820181803683370190505b5090508181016020015b600019016f181899199a1a9b1b9c1cb0b131b232b360811b600a86061a8153600a85049450846112a657509392505050565b600080600083516041036113125760208401516040850151606086015160001a611304888285856114ba565b95509550955050505061131e565b50508151600091506002905b9250925092565b60008260038111156113395761133961200d565b03611342575050565b60018260038111156113565761135661200d565b036113745760405163f645eedf60e01b815260040160405180910390fd5b60028260038111156113885761138861200d565b036113a95760405163fce698f760e01b8152600481018290526024016102b9565b60038260038111156113bd576113bd61200d565b036113de576040516335e2f38360e21b8152600481018290526024016102b9565b5050565b60008072184f03e93ff9f4daa797ed6e38ed64bf6a1f0160401b83106114215772184f03e93ff9f4daa797ed6e38ed64bf6a1f0160401b830492506040015b6d04ee2d6d415b85acef8100000000831061144d576d04ee2d6d415b85acef8100000000830492506020015b662386f26fc10000831061146b57662386f26fc10000830492506010015b6305f5e1008310611483576305f5e100830492506008015b612710831061149757612710830492506004015b606483106114a9576064830492506002015b600a83106107ec5760010192915050565b600080807f7fffffffffffffffffffffffffffffff5d576e7357a4501ddfe92f46681b20a08411156114f5575060009150600390508261157f565b604080516000808252602082018084528a905260ff891692820192909252606081018790526080810186905260019060a0016020604051602081039080840390855afa158015611549573d6000803e3d6000fd5b5050604051601f1901519150506001600160a01b0381166115755750600092506001915082905061157f565b9250600091508190505b9450945094915050565b80356001600160a01b03811681146115a057600080fd5b919050565b6000602082840312156115b757600080fd5b6115c082611589565b9392505050565b634e487b7160e01b600052604160045260246000fd5b60405160c081016001600160401b03811182821017156115ff576115ff6115c7565b60405290565b60405160a081016001600160401b03811182821017156115ff576115ff6115c7565b604051601f8201601f191681016001600160401b038111828210171561164f5761164f6115c7565b604052919050565b803561ffff811681146115a057600080fd5b60006060828403121561167b57600080fd5b604051606081018181106001600160401b038211171561169d5761169d6115c7565b6040529050806116ac83611657565b81526116ba60208401611657565b6020820152604083013560408201525092915050565b600080600060a084860312156116e557600080fd5b6116ee84611589565b92506116fc60208501611589565b915061170b8560408601611669565b90509250925092565b60006001600160401b0382111561172d5761172d6115c7565b50601f01601f191660200190565b600061174e61174984611714565b611627565b905082815283838301111561176257600080fd5b828260208301376000602084830101529392505050565b600082601f83011261178a57600080fd5b6115c08383356020850161173b565b600060c082840312156117ab57600080fd5b6117b36115dd565b905081356001600160401b03808211156117cc57600080fd5b6117d885838601611779565b835260208401359150808211156117ee57600080fd5b6117fa85838601611779565b6020840152604084013591508082111561181357600080fd5b5061182084828501611779565b604083015250606082013560608201526080820135608082015260a082013560a082015292915050565b60006020828403121561185c57600080fd5b81356001600160401b0381111561187257600080fd5b61187e84828501611799565b949350505050565b60006020828403121561189857600080fd5b81356001600160401b03808211156118af57600080fd5b9083019060e082860312156118c357600080fd5b6118cb611605565b6118d483611589565b81526118e260208401611589565b60208201526118f48660408501611669565b604082015260a08301358281111561190b57600080fd5b61191787828601611779565b60608301525060c08301358281111561192f57600080fd5b61193b87828601611799565b60808301525095945050505050565b60008083601f84011261195c57600080fd5b5081356001600160401b0381111561197357600080fd5b60208301915083602082850101111561198b57600080fd5b9250929050565b6000806000604084860312156119a757600080fd5b6119b084611589565b925060208401356001600160401b038111156119cb57600080fd5b6119d78682870161194a565b9497909650939450505050565b600080602083850312156119f757600080fd5b82356001600160401b03811115611a0d57600080fd5b611a198582860161194a565b90969095509350505050565b60008060008060c08587031215611a3b57600080fd5b611a4485611589565b9350611a5260208601611589565b9250611a618660408701611669565b915060a08501356001600160401b03811115611a7c57600080fd5b611a8887828801611779565b91505092959194509250565b600060208284031215611aa657600080fd5b81356001600160401b03811115611abc57600080fd5b820160c081850312156115c057600080fd5b600060208284031215611ae057600080fd5b81356001600160401b0380821115611af757600080fd5b9083019060e08286031215611b0b57600080fd5b611b13611605565b611b1c83611589565b8152611b2a60208401611589565b6020820152611b3c8660408501611669565b604082015260a0830135606082015260c083013582811115611b5d57600080fd5b80840193505085601f840112611b7257600080fd5b611b818684356020860161173b565b608082015295945050505050565b6020808252602a908201527f4c6962526567697374726174696f6e3a20656e7469747920616c7265616479206040820152691c9959da5cdd195c995960b21b606082015260800190565b60208082526033908201527f4c6962526567697374726174696f6e3a207465726d73206f776e65722063616e6040820152726e6f74206265207a65726f206164647265737360681b606082015260800190565b60208082526034908201527f4c6962526567697374726174696f6e3a20677261636520706572696f64206d75604082015273073742062652067726561746572207468616e20360641b606082015260800190565b60005b83811015611c9b578181015183820152602001611c83565b50506000910152565b60008151808452611cbc816020860160208601611c80565b601f01601f19169290920160200192915050565b602081526000825160c06020840152611cec60e0840182611ca4565b90506020840151601f1980858403016040860152611d0a8383611ca4565b9250604086015191508085840301606086015250611d288282611ca4565b91505060608401516080840152608084015160a084015260a084015160c08401528091505092915050565b600060208284031215611d6557600080fd5b81516001600160401b03811115611d7b57600080fd5b8201601f81018413611d8c57600080fd5b8051611d9a61174982611714565b818152856020838501011115611daf57600080fd5b611dc0826020830160208601611c80565b95945050505050565b60208082526025908201527f4c6962526567697374726174696f6e3a20656e74697479206e616d6520697320604082015264656d70747960d81b606082015260800190565b60008251611e20818460208701611c80565b9190910192915050565b6020808252602f908201527f4c6962526567697374726174696f6e3a20656e74697479206e616d6520616c7260408201526e1958591e481c9959da5cdd195c9959608a1b606082015260800190565b60208082526038908201527f42617365526567697374726174696f6e4d6f64756c653a20657870697261746960408201527f6f6e206d75737420626520696e20746865206675747572650000000000000000606082015260800190565b634e487b7160e01b600052601160045260246000fd5b818103818111156107ec576107ec611ed6565b634e487b7160e01b600052603260045260246000fd5b600060208284031215611f2757600080fd5b815180151581146115c057600080fd5b600060608284031215611f4957600080fd5b6115c08383611669565b6000808335601e19843603018112611f6a57600080fd5b8301803591506001600160401b03821115611f8457600080fd5b60200191503681900382131561198b57600080fd5b7f19457468657265756d205369676e6564204d6573736167653a0a000000000000815260008351611fd181601a850160208801611c80565b835190830190611fe881601a840160208801611c80565b01601a01949350505050565b60ff81811683821601908111156107ec576107ec611ed6565b634e487b7160e01b600052602160045260246000fdfea2646970667358221220118ce37e63decf522ad9c3632bee6cc21c5ac7ccae0bbfb2953f1101e9263d6164736f6c63430008180033",
  "linkReferences": {
    "contracts/libraries/LibVectorAddress.sol": {
      "LibVectorAddress": [
        {
          "length": 20,
          "start": 1083
        },
        {
          "length": 20,
          "start": 1310
        },
        {
          "length": 20,
          "start": 3322
        }
      ]
    }
  },
  "deployedLinkReferences": {
    "contracts/libraries/LibVectorAddress.sol": {
      "LibVectorAddress": [
        {
          "length": 20,
          "start": 1025
        },
        {
          "length": 20,
          "start": 1252
        },
        {
          "length": 20,
          "start": 3264
        }
      ]
    }
  }
}