{
  "_format": "hh-sol-artifact-1",
  "contractName": "NonTransferableERC721Asset",
  "sourceName": "contracts/asset/NonTransferableERC721Asset.sol",
  "abi": [
    {
      "inputs": [
        {
          "components": [
            {
              "internalType": "address",
              "name": "assetFactory",
              "type": "address"
            },
            {
              "internalType": "address",
              "name": "assetRegistry",
              "type": "address"
            },
            {
              "internalType": "address",
              "name": "avatarRegistry",
              "type": "address"
            },
            {
              "internalType": "address",
              "name": "experienceRegistry",
              "type": "address"
            }
          ],
          "internalType": "struct BaseAssetArgs",
          "name": "args",
          "type": "tuple"
        }
      ],
      "stateMutability": "nonpayable",
      "type": "constructor"
    },
    {
      "inputs": [
        {
          "internalType": "address",
          "name": "sender",
          "type": "address"
        },
        {
          "internalType": "uint256",
          "name": "tokenId",
          "type": "uint256"
        },
        {
          "internalType": "address",
          "name": "owner",
          "type": "address"
        }
      ],
      "name": "ERC721IncorrectOwner",
      "type": "error"
    },
    {
      "inputs": [
        {
          "internalType": "address",
          "name": "operator",
          "type": "address"
        },
        {
          "internalType": "uint256",
          "name": "tokenId",
          "type": "uint256"
        }
      ],
      "name": "ERC721InsufficientApproval",
      "type": "error"
    },
    {
      "inputs": [
        {
          "internalType": "address",
          "name": "approver",
          "type": "address"
        }
      ],
      "name": "ERC721InvalidApprover",
      "type": "error"
    },
    {
      "inputs": [
        {
          "internalType": "address",
          "name": "operator",
          "type": "address"
        }
      ],
      "name": "ERC721InvalidOperator",
      "type": "error"
    },
    {
      "inputs": [
        {
          "internalType": "address",
          "name": "owner",
          "type": "address"
        }
      ],
      "name": "ERC721InvalidOwner",
      "type": "error"
    },
    {
      "inputs": [
        {
          "internalType": "address",
          "name": "receiver",
          "type": "address"
        }
      ],
      "name": "ERC721InvalidReceiver",
      "type": "error"
    },
    {
      "inputs": [
        {
          "internalType": "address",
          "name": "sender",
          "type": "address"
        }
      ],
      "name": "ERC721InvalidSender",
      "type": "error"
    },
    {
      "inputs": [
        {
          "internalType": "uint256",
          "name": "tokenId",
          "type": "uint256"
        }
      ],
      "name": "ERC721NonexistentToken",
      "type": "error"
    },
    {
      "inputs": [],
      "name": "ReentrancyGuardReentrantCall",
      "type": "error"
    },
    {
      "anonymous": false,
      "inputs": [
        {
          "indexed": true,
          "internalType": "address",
          "name": "owner",
          "type": "address"
        },
        {
          "indexed": true,
          "internalType": "address",
          "name": "approved",
          "type": "address"
        },
        {
          "indexed": true,
          "internalType": "uint256",
          "name": "tokenId",
          "type": "uint256"
        }
      ],
      "name": "Approval",
      "type": "event"
    },
    {
      "anonymous": false,
      "inputs": [
        {
          "indexed": true,
          "internalType": "address",
          "name": "owner",
          "type": "address"
        },
        {
          "indexed": true,
          "internalType": "address",
          "name": "operator",
          "type": "address"
        },
        {
          "indexed": false,
          "internalType": "bool",
          "name": "approved",
          "type": "bool"
        }
      ],
      "name": "ApprovalForAll",
      "type": "event"
    },
    {
      "anonymous": false,
      "inputs": [
        {
          "indexed": false,
          "internalType": "address",
          "name": "hook",
          "type": "address"
        }
      ],
      "name": "AssetHookAdded",
      "type": "event"
    },
    {
      "anonymous": false,
      "inputs": [
        {
          "indexed": false,
          "internalType": "address",
          "name": "hook",
          "type": "address"
        }
      ],
      "name": "AssetHookRemoved",
      "type": "event"
    },
    {
      "anonymous": false,
      "inputs": [
        {
          "indexed": true,
          "internalType": "address",
          "name": "to",
          "type": "address"
        },
        {
          "indexed": false,
          "internalType": "uint256",
          "name": "tokenId",
          "type": "uint256"
        }
      ],
      "name": "ERC721Minted",
      "type": "event"
    },
    {
      "anonymous": false,
      "inputs": [
        {
          "indexed": true,
          "internalType": "address",
          "name": "oldAsset",
          "type": "address"
        },
        {
          "indexed": true,
          "internalType": "address",
          "name": "newAsset",
          "type": "address"
        }
      ],
      "name": "ERC721Upgraded",
      "type": "event"
    },
    {
      "anonymous": false,
      "inputs": [
        {
          "indexed": true,
          "internalType": "address",
          "name": "from",
          "type": "address"
        },
        {
          "indexed": true,
          "internalType": "address",
          "name": "to",
          "type": "address"
        },
        {
          "indexed": true,
          "internalType": "uint256",
          "name": "tokenId",
          "type": "uint256"
        }
      ],
      "name": "Transfer",
      "type": "event"
    },
    {
      "inputs": [
        {
          "internalType": "contract IAssetHook",
          "name": "_hook",
          "type": "address"
        }
      ],
      "name": "addHook",
      "outputs": [],
      "stateMutability": "nonpayable",
      "type": "function"
    },
    {
      "inputs": [
        {
          "internalType": "address",
          "name": "",
          "type": "address"
        },
        {
          "internalType": "uint256",
          "name": "",
          "type": "uint256"
        }
      ],
      "name": "approve",
      "outputs": [],
      "stateMutability": "nonpayable",
      "type": "function"
    },
    {
      "inputs": [],
      "name": "assetFactory",
      "outputs": [
        {
          "internalType": "address",
          "name": "",
          "type": "address"
        }
      ],
      "stateMutability": "view",
      "type": "function"
    },
    {
      "inputs": [],
      "name": "assetRegistry",
      "outputs": [
        {
          "internalType": "address",
          "name": "",
          "type": "address"
        }
      ],
      "stateMutability": "view",
      "type": "function"
    },
    {
      "inputs": [],
      "name": "assetType",
      "outputs": [
        {
          "internalType": "enum AssetType",
          "name": "",
          "type": "uint8"
        }
      ],
      "stateMutability": "view",
      "type": "function"
    },
    {
      "inputs": [],
      "name": "avatarRegistry",
      "outputs": [
        {
          "internalType": "contract IAvatarRegistry",
          "name": "",
          "type": "address"
        }
      ],
      "stateMutability": "view",
      "type": "function"
    },
    {
      "inputs": [
        {
          "internalType": "address",
          "name": "owner",
          "type": "address"
        }
      ],
      "name": "balanceOf",
      "outputs": [
        {
          "internalType": "uint256",
          "name": "",
          "type": "uint256"
        }
      ],
      "stateMutability": "view",
      "type": "function"
    },
    {
      "inputs": [
        {
          "components": [
            {
              "internalType": "address",
              "name": "issuer",
              "type": "address"
            },
            {
              "internalType": "address",
              "name": "originChainAddress",
              "type": "address"
            },
            {
              "internalType": "uint256",
              "name": "originChainId",
              "type": "uint256"
            },
            {
              "internalType": "string",
              "name": "name",
              "type": "string"
            },
            {
              "internalType": "string",
              "name": "symbol",
              "type": "string"
            },
            {
              "internalType": "string",
              "name": "baseURI",
              "type": "string"
            }
          ],
          "internalType": "struct ERC721InitData",
          "name": "data",
          "type": "tuple"
        }
      ],
      "name": "encodeInitData",
      "outputs": [
        {
          "internalType": "bytes",
          "name": "",
          "type": "bytes"
        }
      ],
      "stateMutability": "pure",
      "type": "function"
    },
    {
      "inputs": [],
      "name": "experienceRegistry",
      "outputs": [
        {
          "internalType": "contract IExperienceRegistry",
          "name": "",
          "type": "address"
        }
      ],
      "stateMutability": "view",
      "type": "function"
    },
    {
      "inputs": [
        {
          "internalType": "uint256",
          "name": "tokenId",
          "type": "uint256"
        }
      ],
      "name": "getApproved",
      "outputs": [
        {
          "internalType": "address",
          "name": "",
          "type": "address"
        }
      ],
      "stateMutability": "view",
      "type": "function"
    },
    {
      "inputs": [],
      "name": "hook",
      "outputs": [
        {
          "internalType": "contract IAssetHook",
          "name": "",
          "type": "address"
        }
      ],
      "stateMutability": "view",
      "type": "function"
    },
    {
      "inputs": [
        {
          "internalType": "bytes",
          "name": "initData",
          "type": "bytes"
        }
      ],
      "name": "init",
      "outputs": [],
      "stateMutability": "nonpayable",
      "type": "function"
    },
    {
      "inputs": [
        {
          "internalType": "address",
          "name": "owner",
          "type": "address"
        },
        {
          "internalType": "address",
          "name": "operator",
          "type": "address"
        }
      ],
      "name": "isApprovedForAll",
      "outputs": [
        {
          "internalType": "bool",
          "name": "",
          "type": "bool"
        }
      ],
      "stateMutability": "view",
      "type": "function"
    },
    {
      "inputs": [],
      "name": "issuer",
      "outputs": [
        {
          "internalType": "address",
          "name": "",
          "type": "address"
        }
      ],
      "stateMutability": "view",
      "type": "function"
    },
    {
      "inputs": [
        {
          "internalType": "address",
          "name": "to",
          "type": "address"
        }
      ],
      "name": "mint",
      "outputs": [
        {
          "internalType": "uint256",
          "name": "id",
          "type": "uint256"
        }
      ],
      "stateMutability": "nonpayable",
      "type": "function"
    },
    {
      "inputs": [],
      "name": "name",
      "outputs": [
        {
          "internalType": "string",
          "name": "",
          "type": "string"
        }
      ],
      "stateMutability": "view",
      "type": "function"
    },
    {
      "inputs": [],
      "name": "originAddress",
      "outputs": [
        {
          "internalType": "address",
          "name": "",
          "type": "address"
        }
      ],
      "stateMutability": "view",
      "type": "function"
    },
    {
      "inputs": [],
      "name": "originChainId",
      "outputs": [
        {
          "internalType": "uint256",
          "name": "",
          "type": "uint256"
        }
      ],
      "stateMutability": "view",
      "type": "function"
    },
    {
      "inputs": [
        {
          "internalType": "uint256",
          "name": "tokenId",
          "type": "uint256"
        }
      ],
      "name": "ownerOf",
      "outputs": [
        {
          "internalType": "address",
          "name": "",
          "type": "address"
        }
      ],
      "stateMutability": "view",
      "type": "function"
    },
    {
      "inputs": [],
      "name": "removeHook",
      "outputs": [],
      "stateMutability": "nonpayable",
      "type": "function"
    },
    {
      "inputs": [
        {
          "internalType": "uint256",
          "name": "tokenId",
          "type": "uint256"
        }
      ],
      "name": "revoke",
      "outputs": [],
      "stateMutability": "nonpayable",
      "type": "function"
    },
    {
      "inputs": [
        {
          "internalType": "address",
          "name": "from",
          "type": "address"
        },
        {
          "internalType": "address",
          "name": "to",
          "type": "address"
        },
        {
          "internalType": "uint256",
          "name": "tokenId",
          "type": "uint256"
        }
      ],
      "name": "safeTransferFrom",
      "outputs": [],
      "stateMutability": "nonpayable",
      "type": "function"
    },
    {
      "inputs": [
        {
          "internalType": "address",
          "name": "",
          "type": "address"
        },
        {
          "internalType": "address",
          "name": "",
          "type": "address"
        },
        {
          "internalType": "uint256",
          "name": "",
          "type": "uint256"
        },
        {
          "internalType": "bytes",
          "name": "",
          "type": "bytes"
        }
      ],
      "name": "safeTransferFrom",
      "outputs": [],
      "stateMutability": "nonpayable",
      "type": "function"
    },
    {
      "inputs": [
        {
          "internalType": "address",
          "name": "",
          "type": "address"
        },
        {
          "internalType": "bool",
          "name": "",
          "type": "bool"
        }
      ],
      "name": "setApprovalForAll",
      "outputs": [],
      "stateMutability": "nonpayable",
      "type": "function"
    },
    {
      "inputs": [
        {
          "internalType": "bytes4",
          "name": "interfaceId",
          "type": "bytes4"
        }
      ],
      "name": "supportsInterface",
      "outputs": [
        {
          "internalType": "bool",
          "name": "",
          "type": "bool"
        }
      ],
      "stateMutability": "view",
      "type": "function"
    },
    {
      "inputs": [],
      "name": "symbol",
      "outputs": [
        {
          "internalType": "string",
          "name": "",
          "type": "string"
        }
      ],
      "stateMutability": "view",
      "type": "function"
    },
    {
      "inputs": [
        {
          "internalType": "uint256",
          "name": "tokenId",
          "type": "uint256"
        }
      ],
      "name": "tokenURI",
      "outputs": [
        {
          "internalType": "string",
          "name": "",
          "type": "string"
        }
      ],
      "stateMutability": "view",
      "type": "function"
    },
    {
      "inputs": [
        {
          "internalType": "address",
          "name": "",
          "type": "address"
        },
        {
          "internalType": "address",
          "name": "",
          "type": "address"
        },
        {
          "internalType": "uint256",
          "name": "",
          "type": "uint256"
        }
      ],
      "name": "transferFrom",
      "outputs": [],
      "stateMutability": "nonpayable",
      "type": "function"
    },
    {
      "inputs": [
        {
          "internalType": "address",
          "name": "newAsset",
          "type": "address"
        }
      ],
      "name": "upgrade",
      "outputs": [],
      "stateMutability": "nonpayable",
      "type": "function"
    },
    {
      "inputs": [],
      "name": "upgraded",
      "outputs": [
        {
          "internalType": "bool",
          "name": "",
          "type": "bool"
        }
      ],
      "stateMutability": "view",
      "type": "function"
    }
  ],
  "bytecode": "0x60e06040523480156200001157600080fd5b506040516200273d3803806200273d833981016040819052620000349162000274565b6001600055805181906001600160a01b0316620000ac5760405162461bcd60e51b815260206004820152602b60248201527f4261736541737365743a206173736574466163746f727920697320746865207a60448201526a65726f206164647265737360a81b60648201526084015b60405180910390fd5b60208101516001600160a01b03166200011d5760405162461bcd60e51b815260206004820152602c60248201527f4261736541737365743a2061737365745265676973747279206973207468652060448201526b7a65726f206164647265737360a01b6064820152608401620000a3565b60408101516001600160a01b03166200018f5760405162461bcd60e51b815260206004820152602d60248201527f4261736541737365743a2061766174617252656769737472792069732074686560448201526c207a65726f206164647265737360981b6064820152608401620000a3565b60608101516001600160a01b0316620002115760405162461bcd60e51b815260206004820152603d60248201527f4e6f6e5472616e7366657261626c654552433732313a20657870657269656e6360448201527f65526567697374727920697320746865207a65726f20616464726573730000006064820152608401620000a3565b80516001600160a01b039081166080526020820151811660a0526040820151811660c052606090910151600180546001600160a01b031916919092161790555062000308565b80516001600160a01b03811681146200026f57600080fd5b919050565b6000608082840312156200028757600080fd5b604051608081016001600160401b0381118282101715620002b857634e487b7160e01b600052604160045260246000fd5b604052620002c68362000257565b8152620002d66020840162000257565b6020820152620002e96040840162000257565b6040820152620002fc6060840162000257565b60608201529392505050565b60805160a05160c0516123f06200034d6000396000818161042c0152610ea601526000818161039b015261058c0152600081816103f201526109bf01526123f06000f3fe608060405234801561001057600080fd5b50600436106101da5760003560e01c80636a62784211610104578063a22cb465116100a2578063c87b56dd11610071578063c87b56dd14610414578063e3d7ad7314610427578063e517fedd1461044e578063e985e9c51461046157600080fd5b8063a22cb465146103bd578063b88d4fde146103cb578063c28de2cd146103d9578063c3acb4d1146103ed57600080fd5b80637f5a7c7b116100de5780637f5a7c7b146103685780638f09a6be1461037b57806395d89b411461038e578063979d7e861461039657600080fd5b80636a6278421461032f57806370a08231146103425780637b4e04e81461035557600080fd5b806320c5429b1161017c57806342842e0e1161014b57806342842e0e146102e35780634ddf47d4146102f657806361f3fcb2146103095780636352211e1461031c57600080fd5b806320c5429b1461029957806323b872dd146102ac578063378f17ff146102ba5780633fe3347a146102c257600080fd5b80630900f010116101b85780630900f01014610247578063095ea7b31461025c5780630ac7f5611461026f5780631d1438481461028657600080fd5b806301ffc9a7146101df57806306fdde0314610207578063081812fc1461021c575b600080fd5b6101f26101ed366004611ada565b610474565b60405190151581526020015b60405180910390f35b61020f6104c6565b6040516101fe9190611b47565b61022f61022a366004611b5a565b610558565b6040516001600160a01b0390911681526020016101fe565b61025a610255366004611b93565b610581565b005b61025a61026a366004611bb0565b61073d565b61027860055481565b6040519081526020016101fe565b60035461022f906001600160a01b031681565b61025a6102a7366004611b5a565b61079e565b61025a61026a366004611bdc565b61025a610917565b6001546102d690600160a81b900460ff1681565b6040516101fe9190611c1d565b61025a6102f1366004611bdc565b610994565b61025a610304366004611d33565b6109b4565b61020f610317366004611d68565b610d4f565b61022f61032a366004611b5a565b610d78565b61027861033d366004611b93565b610d83565b610278610350366004611b93565b610fbc565b61025a610363366004611b93565b611004565b60045461022f906001600160a01b031681565b60015461022f906001600160a01b031681565b61020f6110fe565b61022f7f000000000000000000000000000000000000000000000000000000000000000081565b61025a61026a366004611e57565b61025a61026a366004611e90565b6001546101f290600160a01b900460ff1681565b61022f7f000000000000000000000000000000000000000000000000000000000000000081565b61020f610422366004611b5a565b61110d565b61022f7f000000000000000000000000000000000000000000000000000000000000000081565b60025461022f906001600160a01b031681565b6101f261046f366004611efc565b611175565b60006001600160e01b031982166380ac58cd60e01b14806104a557506001600160e01b03198216635b5e139f60e01b145b806104c057506001600160e01b031982166301ffc9a760e01b145b92915050565b6060600780546104d590611f2a565b80601f016020809104026020016040519081016040528092919081815260200182805461050190611f2a565b801561054e5780601f106105235761010080835404028352916020019161054e565b820191906000526020600020905b81548152906001019060200180831161053157829003601f168201915b5050505050905090565b6000610563826111a3565b506000828152600c60205260409020546001600160a01b03166104c0565b336001600160a01b037f000000000000000000000000000000000000000000000000000000000000000016146105fe5760405162461bcd60e51b815260206004820181905260248201527f4261736541737365743a206f6e6c7920726567697374727920616c6c6f77656460448201526064015b60405180910390fd5b306001600160a01b038216036106935760405162461bcd60e51b815260206004820152604e60248201527f4e6f6e5472616e7366657261626c6545524337323141737365743a206e65772060448201527f7570677261646520636f6e747261637420616464726573732063616e6e6f742060648201526d1b585d18da081bdc9a59da5b985b60921b608482015260a4016105f5565b60065460405163270b6bcf60e11b815260048101919091526001600160a01b03821690634e16d79e90602401600060405180830381600087803b1580156106d957600080fd5b505af11580156106ed573d6000803e3d6000fd5b50506001805460ff60a01b1916600160a01b17905550506040516001600160a01b0382169030907f9603bf83c2911c6b0dd953eb62e0804c697e90855fa1007b93c0964cb39d8e1690600090a350565b60405162461bcd60e51b815260206004820152603060248201527f4e6f6e5472616e7366657261626c654552433732313a20746f6b656e2069732060448201526f6e6f6e2d7472616e7366657261626c6560801b60648201526084016105f5565b6107a66111dc565b6003546001600160a01b03166107ce5760405162461bcd60e51b81526004016105f590611f64565b6000818152600a60205260409020546001600160a01b03168061084c5760405162461bcd60e51b815260206004820152603060248201527f4e6f6e5472616e7366657261626c6545524337323141737365743a20746f6b6560448201526f1b88191bd95cc81b9bdd08195e1a5cdd60821b60648201526084016105f5565b6004546001600160a01b03161561090057600480546040516335661e9560e21b815230928101929092526001600160a01b0383811660248401526044830185905260009291169063d5987a54906064016020604051808303816000875af11580156108bb573d6000803e3d6000fd5b505050506040513d601f19601f820116820180604052508101906108df9190611f9b565b9050806108fe5760405162461bcd60e51b81526004016105f590611fb8565b505b61090982611206565b506109146001600055565b50565b6003546001600160a01b031661093f5760405162461bcd60e51b81526004016105f590611f64565b6004546040516001600160a01b03909116808252907f94dff9f830507f1f2b72515aaaaa174f690a73801b6ab87ae6d75e584de177c89060200160405180910390a150600480546001600160a01b0319169055565b6109af8383836040518060200160405280600081525061073d565b505050565b336001600160a01b037f00000000000000000000000000000000000000000000000000000000000000001614610a2c5760405162461bcd60e51b815260206004820152601f60248201527f4261736541737365743a206f6e6c7920666163746f727920616c6c6f7765640060448201526064016105f5565b600081806020019051810190610a429190612065565b80519091506001600160a01b0316610ab65760405162461bcd60e51b815260206004820152603160248201527f4e6f6e5472616e7366657261626c654552433732313a2069737375657220697360448201527020746865207a65726f206164647265737360781b60648201526084016105f5565b600081606001515111610b175760405162461bcd60e51b8152602060048201526024808201527f4e6f6e5472616e7366657261626c654552433732313a206e616d6520697320656044820152636d70747960e01b60648201526084016105f5565b600081608001515111610b7b5760405162461bcd60e51b815260206004820152602660248201527f4e6f6e5472616e7366657261626c654552433732313a2073796d626f6c20697360448201526520656d70747960d01b60648201526084016105f5565b60008160a001515111610be05760405162461bcd60e51b815260206004820152602760248201527f4e6f6e5472616e7366657261626c654552433732313a206261736555524920696044820152667320656d70747960c81b60648201526084016105f5565b60208101516001600160a01b0316610c605760405162461bcd60e51b815260206004820152603d60248201527f4e6f6e5472616e7366657261626c654552433732313a206f726967696e43686160448201527f696e4164647265737320697320746865207a65726f206164647265737300000060648201526084016105f5565b6000816040015111610cc95760405162461bcd60e51b815260206004820152602c60248201527f4e6f6e5472616e7366657261626c654552433732313a206f726967696e43686160448201526b696e4964206973207a65726f60a01b60648201526084016105f5565b6001805460ff60a81b1916600160a91b1790558051600380546001600160a01b039283166001600160a01b03199182161790915560208301516002805491909316911617905560408101516005556060810151600790610d299082612187565b506080810151600890610d3c9082612187565b5060a08101516009906109af9082612187565b606081604051602001610d629190612247565b6040516020818303038152906040529050919050565b60006104c0826111a3565b6000610d8d6111dc565b6003546001600160a01b0316610db55760405162461bcd60e51b81526004016105f590611f64565b6004546001600160a01b031615610e87576004546006546000916001600160a01b0316906386b841879030908690610dee9060016122e8565b6040516001600160e01b031960e086901b1681526001600160a01b03938416600482015292909116602483015260448201526064016020604051808303816000875af1158015610e42573d6000803e3d6000fd5b505050506040513d601f19601f82011682018060405250810190610e669190611f9b565b905080610e855760405162461bcd60e51b81526004016105f590611fb8565b505b604051632b0fe8e760e21b81526001600160a01b0383811660048301527f0000000000000000000000000000000000000000000000000000000000000000169063ac3fa39c90602401602060405180830381865afa158015610eed573d6000803e3d6000fd5b505050506040513d601f19601f82011682018060405250810190610f119190611f9b565b15610f8c576000829050806001600160a01b031663181d939b6040518163ffffffff1660e01b8152600401602060405180830381865afa158015610f59573d6000803e3d6000fd5b505050506040513d601f19601f82011682018060405250810190610f7d9190611f9b565b610f8a57610f8a83611245565b505b600660008154610f9b906122fb565b9091555050600654610fad8282611409565b610fb76001600055565b919050565b60006001600160a01b038216610fe8576040516322718ad960e21b8152600060048201526024016105f5565b506001600160a01b03166000908152600b602052604090205490565b6003546001600160a01b031661102c5760405162461bcd60e51b81526004016105f590611f64565b6004546001600160a01b03166110aa5760405162461bcd60e51b815260206004820152603760248201527f4e6f6e5472616e7366657261626c6545524337323141737365743a20686f6f6b60448201527f2063616e6e6f74206265207a65726f206164647265737300000000000000000060648201526084016105f5565b600480546001600160a01b0319166001600160a01b0383169081179091556040519081527ff716b9f35a5af170228b0c97201cc581ce2ca1703824fd6b78f3583f28f7eedc9060200160405180910390a150565b6060600880546104d590611f2a565b6060611118826111a3565b506000611123611423565b90506000815111611143576040518060200160405280600081525061116e565b8061114d84611432565b60405160200161115e929190612314565b6040516020818303038152906040525b9392505050565b6001600160a01b039182166000908152600d6020908152604080832093909416825291909152205460ff1690565b6000818152600a60205260408120546001600160a01b0316806104c057604051637e27328960e01b8152600481018490526024016105f5565b6002600054036111ff57604051633ee5aeb560e01b815260040160405180910390fd5b6002600055565b600061121560008360006114c5565b90506001600160a01b03811661124157604051637e27328960e01b8152600481018390526024016105f5565b5050565b6000816001600160a01b031663516f279e6040518163ffffffff1660e01b8152600401602060405180830381865afa158015611285573d6000803e3d6000fd5b505050506040513d601f19601f820116820180604052508101906112a99190612343565b90506001600160a01b03811661130b5760405162461bcd60e51b815260206004820152602160248201527f4261736541737365743a2061766174617220686173206e6f206c6f636174696f6044820152603760f91b60648201526084016105f5565b60035460408051636904c94d60e01b815290516001600160a01b0392831692841691636904c94d9160048083019260209291908290030181865afa158015611357573d6000803e3d6000fd5b505050506040513d601f19601f8201168201806040525081019061137b9190612343565b6001600160a01b0316146112415760405162461bcd60e51b815260206004820152604960248201527f4261736541737365743a2061766174617220646f6573206e6f7420616c6c6f7760448201527f20617373657473206f757473696465206f66206974732063757272656e7420656064820152687870657269656e636560b81b608482015260a4016105f5565b6112418282604051806020016040528060008152506115be565b6060600980546104d590611f2a565b6060600061143f836115d5565b600101905060008167ffffffffffffffff81111561145f5761145f611c45565b6040519080825280601f01601f191660200182016040528015611489576020820181803683370190505b5090508181016020015b600019016f181899199a1a9b1b9c1cb0b131b232b360811b600a86061a8153600a850494508461149357509392505050565b6000828152600a60205260408120546001600160a01b03908116908316156114f2576114f28184866116ad565b6001600160a01b038116156115305761150f600085600080611711565b6001600160a01b0381166000908152600b6020526040902080546000190190555b6001600160a01b0385161561155f576001600160a01b0385166000908152600b60205260409020805460010190555b6000848152600a602052604080822080546001600160a01b0319166001600160a01b0389811691821790925591518793918516917fddf252ad1be2c89b69c2b068fc378daa952ba7f163c4a11628f55a4df523b3ef91a4949350505050565b6115c88383611817565b6109af6000848484611934565b60008072184f03e93ff9f4daa797ed6e38ed64bf6a1f0160401b83106116145772184f03e93ff9f4daa797ed6e38ed64bf6a1f0160401b830492506040015b6d04ee2d6d415b85acef81000000008310611640576d04ee2d6d415b85acef8100000000830492506020015b662386f26fc10000831061165e57662386f26fc10000830492506010015b6305f5e1008310611676576305f5e100830492506008015b612710831061168a57612710830492506004015b6064831061169c576064830492506002015b600a83106104c05760010192915050565b6116b8838383611a5e565b6109af576001600160a01b0383166116e657604051637e27328960e01b8152600481018290526024016105f5565b60405163177e802f60e01b81526001600160a01b0383166004820152602481018290526044016105f5565b808061172557506001600160a01b03821615155b156117e7576000611735846111a3565b90506001600160a01b038316158015906117615750826001600160a01b0316816001600160a01b031614155b801561177457506117728184611175565b155b1561179d5760405163a9fbf51f60e01b81526001600160a01b03841660048201526024016105f5565b81156117e55783856001600160a01b0316826001600160a01b03167f8c5be1e5ebec7d5bd14f71427d1e84f3dd0314c0f7b2291e5b200ac8c7c3b92560405160405180910390a45b505b50506000908152600c6020526040902080546001600160a01b0319166001600160a01b0392909216919091179055565b600154600160a01b900460ff16156118875760405162461bcd60e51b815260206004820152602d60248201527f4e6f6e5472616e7366657261626c6545524332303a206173736574206861732060448201526c1899595b881d5c19dc98591959609a1b60648201526084016105f5565b6001600160a01b0382166118b157604051633250574960e11b8152600060048201526024016105f5565b60006118bf838360006114c5565b90506001600160a01b038116156118ec576040516339e3563760e11b8152600060048201526024016105f5565b826001600160a01b03167f1292a1381d69fd0f033102672143fff68d426b4b73eb1fa4df2620aeed9a29948360405161192791815260200190565b60405180910390a2505050565b6001600160a01b0383163b15611a5857604051630a85bd0160e11b81526001600160a01b0384169063150b7a0290611976903390889087908790600401612360565b6020604051808303816000875af19250505080156119b1575060408051601f3d908101601f191682019092526119ae9181019061239d565b60015b611a1a573d8080156119df576040519150601f19603f3d011682016040523d82523d6000602084013e6119e4565b606091505b508051600003611a1257604051633250574960e11b81526001600160a01b03851660048201526024016105f5565b805181602001fd5b6001600160e01b03198116630a85bd0160e11b14611a5657604051633250574960e11b81526001600160a01b03851660048201526024016105f5565b505b50505050565b60006001600160a01b03831615801590611abc5750826001600160a01b0316846001600160a01b03161480611a985750611a988484611175565b80611abc57506000828152600c60205260409020546001600160a01b038481169116145b949350505050565b6001600160e01b03198116811461091457600080fd5b600060208284031215611aec57600080fd5b813561116e81611ac4565b60005b83811015611b12578181015183820152602001611afa565b50506000910152565b60008151808452611b33816020860160208601611af7565b601f01601f19169290920160200192915050565b60208152600061116e6020830184611b1b565b600060208284031215611b6c57600080fd5b5035919050565b6001600160a01b038116811461091457600080fd5b8035610fb781611b73565b600060208284031215611ba557600080fd5b813561116e81611b73565b60008060408385031215611bc357600080fd5b8235611bce81611b73565b946020939093013593505050565b600080600060608486031215611bf157600080fd5b8335611bfc81611b73565b92506020840135611c0c81611b73565b929592945050506040919091013590565b6020810160038310611c3f57634e487b7160e01b600052602160045260246000fd5b91905290565b634e487b7160e01b600052604160045260246000fd5b60405160c0810167ffffffffffffffff81118282101715611c7e57611c7e611c45565b60405290565b604051601f8201601f1916810167ffffffffffffffff81118282101715611cad57611cad611c45565b604052919050565b600067ffffffffffffffff821115611ccf57611ccf611c45565b50601f01601f191660200190565b600082601f830112611cee57600080fd5b8135611d01611cfc82611cb5565b611c84565b818152846020838601011115611d1657600080fd5b816020850160208301376000918101602001919091529392505050565b600060208284031215611d4557600080fd5b813567ffffffffffffffff811115611d5c57600080fd5b611abc84828501611cdd565b600060208284031215611d7a57600080fd5b813567ffffffffffffffff80821115611d9257600080fd5b9083019060c08286031215611da657600080fd5b611dae611c5b565b611db783611b88565b8152611dc560208401611b88565b602082015260408301356040820152606083013582811115611de657600080fd5b611df287828601611cdd565b606083015250608083013582811115611e0a57600080fd5b611e1687828601611cdd565b60808301525060a083013582811115611e2e57600080fd5b611e3a87828601611cdd565b60a08301525095945050505050565b801515811461091457600080fd5b60008060408385031215611e6a57600080fd5b8235611e7581611b73565b91506020830135611e8581611e49565b809150509250929050565b60008060008060808587031215611ea657600080fd5b8435611eb181611b73565b93506020850135611ec181611b73565b925060408501359150606085013567ffffffffffffffff811115611ee457600080fd5b611ef087828801611cdd565b91505092959194509250565b60008060408385031215611f0f57600080fd5b8235611f1a81611b73565b91506020830135611e8581611b73565b600181811c90821680611f3e57607f821691505b602082108103611f5e57634e487b7160e01b600052602260045260246000fd5b50919050565b6020808252601a908201527f4261736541737365743a206e6f7420696e697469616c697a6564000000000000604082015260600190565b600060208284031215611fad57600080fd5b815161116e81611e49565b6020808252603c908201527f4e6f6e5472616e7366657261626c6545524337323141737365743a206265666f60408201527f72654d696e7420686f6f6b2072656a6563746564207265717565737400000000606082015260800190565b8051610fb781611b73565b600082601f83011261203157600080fd5b815161203f611cfc82611cb5565b81815284602083860101111561205457600080fd5b611abc826020830160208701611af7565b60006020828403121561207757600080fd5b815167ffffffffffffffff8082111561208f57600080fd5b9083019060c082860312156120a357600080fd5b6120ab611c5b565b6120b483612015565b81526120c260208401612015565b6020820152604083015160408201526060830151828111156120e357600080fd5b6120ef87828601612020565b60608301525060808301518281111561210757600080fd5b61211387828601612020565b60808301525060a08301518281111561212b57600080fd5b611e3a87828601612020565b601f8211156109af576000816000526020600020601f850160051c810160208610156121605750805b601f850160051c820191505b8181101561217f5782815560010161216c565b505050505050565b815167ffffffffffffffff8111156121a1576121a1611c45565b6121b5816121af8454611f2a565b84612137565b602080601f8311600181146121ea57600084156121d25750858301515b600019600386901b1c1916600185901b17855561217f565b600085815260208120601f198616915b82811015612219578886015182559484019460019091019084016121fa565b50858210156122375787850151600019600388901b60f8161c191681555b5050505050600190811b01905550565b60208152600060018060a01b038084511660208401528060208501511660408401525060408301516060830152606083015160c0608084015261228d60e0840182611b1b565b90506080840151601f19808584030160a08601526122ab8383611b1b565b925060a08601519150808584030160c0860152506122c98282611b1b565b95945050505050565b634e487b7160e01b600052601160045260246000fd5b808201808211156104c0576104c06122d2565b60006001820161230d5761230d6122d2565b5060010190565b60008351612326818460208801611af7565b83519083019061233a818360208801611af7565b01949350505050565b60006020828403121561235557600080fd5b815161116e81611b73565b6001600160a01b038581168252841660208201526040810183905260806060820181905260009061239390830184611b1b565b9695505050505050565b6000602082840312156123af57600080fd5b815161116e81611ac456fea2646970667358221220cdfd65171e92a6e6f82e0c3229de2ff11f7bed24bd2e79569f451da1617db5e464736f6c63430008180033",
  "linkReferences": {},
  "deployedLinkReferences": {}
}