{
  "_format": "hh-sol-artifact-1",
  "contractName": "NTERC20Asset",
  "sourceName": "contracts/asset/instance/erc20/NTERC20Asset.sol",
  "abi": [
    {
      "inputs": [
        {
          "components": [
            {
              "internalType": "contract IExtensionResolver",
              "name": "extensionResolver",
              "type": "address"
            },
            {
              "internalType": "address",
              "name": "assetRegistry",
              "type": "address"
            },
            {
              "internalType": "address",
              "name": "avatarRegistry",
              "type": "address"
            },
            {
              "internalType": "address",
              "name": "companyRegistry",
              "type": "address"
            }
          ],
          "internalType": "struct BaseAssetConstructorArgs",
          "name": "args",
          "type": "tuple"
        }
      ],
      "stateMutability": "nonpayable",
      "type": "constructor"
    },
    {
      "anonymous": false,
      "inputs": [
        {
          "indexed": false,
          "internalType": "string",
          "name": "name",
          "type": "string"
        }
      ],
      "name": "ExtensionDisabled",
      "type": "event"
    },
    {
      "anonymous": false,
      "inputs": [
        {
          "indexed": false,
          "internalType": "string",
          "name": "name",
          "type": "string"
        }
      ],
      "name": "ExtensionEnabled",
      "type": "event"
    },
    {
      "anonymous": false,
      "inputs": [
        {
          "indexed": false,
          "internalType": "string",
          "name": "name",
          "type": "string"
        },
        {
          "components": [
            {
              "internalType": "uint16",
              "name": "major",
              "type": "uint16"
            },
            {
              "internalType": "uint16",
              "name": "minor",
              "type": "uint16"
            }
          ],
          "indexed": false,
          "internalType": "struct Version",
          "name": "version",
          "type": "tuple"
        }
      ],
      "name": "ExtensionInstalled",
      "type": "event"
    },
    {
      "anonymous": false,
      "inputs": [
        {
          "indexed": false,
          "internalType": "string",
          "name": "name",
          "type": "string"
        },
        {
          "components": [
            {
              "internalType": "uint16",
              "name": "major",
              "type": "uint16"
            },
            {
              "internalType": "uint16",
              "name": "minor",
              "type": "uint16"
            }
          ],
          "indexed": false,
          "internalType": "struct Version",
          "name": "version",
          "type": "tuple"
        }
      ],
      "name": "ExtensionRolledBack",
      "type": "event"
    },
    {
      "anonymous": false,
      "inputs": [
        {
          "indexed": false,
          "internalType": "string",
          "name": "name",
          "type": "string"
        },
        {
          "components": [
            {
              "internalType": "uint16",
              "name": "major",
              "type": "uint16"
            },
            {
              "internalType": "uint16",
              "name": "minor",
              "type": "uint16"
            }
          ],
          "indexed": false,
          "internalType": "struct Version",
          "name": "version",
          "type": "tuple"
        }
      ],
      "name": "ExtensionUpgraded",
      "type": "event"
    },
    {
      "anonymous": false,
      "inputs": [
        {
          "indexed": false,
          "internalType": "bytes4",
          "name": "selector",
          "type": "bytes4"
        }
      ],
      "name": "SelectorDisabled",
      "type": "event"
    },
    {
      "anonymous": false,
      "inputs": [
        {
          "indexed": false,
          "internalType": "bytes4",
          "name": "selector",
          "type": "bytes4"
        }
      ],
      "name": "SelectorEnabled",
      "type": "event"
    },
    {
      "stateMutability": "payable",
      "type": "fallback"
    },
    {
      "inputs": [],
      "name": "assetRegistry",
      "outputs": [
        {
          "internalType": "address",
          "name": "",
          "type": "address"
        }
      ],
      "stateMutability": "view",
      "type": "function"
    },
    {
      "inputs": [],
      "name": "avatarRegistry",
      "outputs": [
        {
          "internalType": "contract IAvatarRegistry",
          "name": "",
          "type": "address"
        }
      ],
      "stateMutability": "view",
      "type": "function"
    },
    {
      "inputs": [],
      "name": "companyRegistry",
      "outputs": [
        {
          "internalType": "contract ICompanyRegistry",
          "name": "",
          "type": "address"
        }
      ],
      "stateMutability": "view",
      "type": "function"
    },
    {
      "inputs": [],
      "name": "extResolver",
      "outputs": [
        {
          "internalType": "contract IExtensionResolver",
          "name": "",
          "type": "address"
        }
      ],
      "stateMutability": "view",
      "type": "function"
    },
    {
      "inputs": [
        {
          "internalType": "string",
          "name": "name",
          "type": "string"
        }
      ],
      "name": "getExtensionVersion",
      "outputs": [
        {
          "components": [
            {
              "internalType": "uint16",
              "name": "major",
              "type": "uint16"
            },
            {
              "internalType": "uint16",
              "name": "minor",
              "type": "uint16"
            }
          ],
          "internalType": "struct Version",
          "name": "",
          "type": "tuple"
        }
      ],
      "stateMutability": "view",
      "type": "function"
    },
    {
      "inputs": [
        {
          "internalType": "string",
          "name": "name",
          "type": "string"
        },
        {
          "components": [
            {
              "internalType": "uint16",
              "name": "major",
              "type": "uint16"
            },
            {
              "internalType": "uint16",
              "name": "minor",
              "type": "uint16"
            }
          ],
          "internalType": "struct Version",
          "name": "version",
          "type": "tuple"
        }
      ],
      "name": "hasExtension",
      "outputs": [
        {
          "internalType": "bool",
          "name": "",
          "type": "bool"
        }
      ],
      "stateMutability": "view",
      "type": "function"
    },
    {
      "inputs": [
        {
          "components": [
            {
              "internalType": "address",
              "name": "owner",
              "type": "address"
            },
            {
              "internalType": "address",
              "name": "termsOwner",
              "type": "address"
            },
            {
              "internalType": "address",
              "name": "registry",
              "type": "address"
            },
            {
              "internalType": "string",
              "name": "name",
              "type": "string"
            },
            {
              "components": [
                {
                  "internalType": "string",
                  "name": "x",
                  "type": "string"
                },
                {
                  "internalType": "string",
                  "name": "y",
                  "type": "string"
                },
                {
                  "internalType": "string",
                  "name": "z",
                  "type": "string"
                },
                {
                  "internalType": "uint256",
                  "name": "t",
                  "type": "uint256"
                },
                {
                  "internalType": "uint256",
                  "name": "p",
                  "type": "uint256"
                },
                {
                  "internalType": "uint256",
                  "name": "p_sub",
                  "type": "uint256"
                }
              ],
              "internalType": "struct VectorAddress",
              "name": "vector",
              "type": "tuple"
            },
            {
              "internalType": "bytes",
              "name": "initData",
              "type": "bytes"
            }
          ],
          "internalType": "struct CommonInitArgs",
          "name": "args",
          "type": "tuple"
        }
      ],
      "name": "init",
      "outputs": [],
      "stateMutability": "nonpayable",
      "type": "function"
    },
    {
      "inputs": [],
      "name": "version",
      "outputs": [
        {
          "components": [
            {
              "internalType": "uint16",
              "name": "major",
              "type": "uint16"
            },
            {
              "internalType": "uint16",
              "name": "minor",
              "type": "uint16"
            }
          ],
          "internalType": "struct Version",
          "name": "",
          "type": "tuple"
        }
      ],
      "stateMutability": "pure",
      "type": "function"
    },
    {
      "inputs": [
        {
          "internalType": "uint256",
          "name": "amount",
          "type": "uint256"
        }
      ],
      "name": "withdraw",
      "outputs": [],
      "stateMutability": "nonpayable",
      "type": "function"
    },
    {
      "stateMutability": "payable",
      "type": "receive"
    }
  ],
  "bytecode": "0x6101006040523480156200001257600080fd5b50604051620018ff380380620018ff83398101604081905262000035916200025e565b805181906001600160a01b038116620000bb5760405162461bcd60e51b815260206004820152603660248201527f456e746974795368656c6c3a20657874656e73696f6e207265736f6c7665722060448201527f63616e6e6f74206265207a65726f20616464726573730000000000000000000060648201526084015b60405180910390fd5b6001600160a01b03908116608052602082015116620001325760405162461bcd60e51b815260206004820152602c60248201527f4261736541737365743a2061737365745265676973747279206973207468652060448201526b7a65726f206164647265737360a01b6064820152608401620000b2565b60408101516001600160a01b0316620001a45760405162461bcd60e51b815260206004820152602d60248201527f4261736541737365743a2061766174617252656769737472792069732074686560448201526c207a65726f206164647265737360981b6064820152608401620000b2565b60608101516001600160a01b0316620002175760405162461bcd60e51b815260206004820152602e60248201527f4261736541737365743a20636f6d70616e79526567697374727920697320746860448201526d65207a65726f206164647265737360901b6064820152608401620000b2565b60208101516001600160a01b0390811660a0526040820151811660c0526060909101511660e05250620002fa565b6001600160a01b03811681146200025b57600080fd5b50565b6000608082840312156200027157600080fd5b604051608081016001600160401b0381118282101715620002a257634e487b7160e01b600052604160045260246000fd5b6040528251620002b28162000245565b81526020830151620002c48162000245565b60208201526040830151620002d98162000245565b60408201526060830151620002ee8162000245565b60608201529392505050565b60805160a05160c05160e0516115af620003506000396000610208015260006102700152600081816101bc01526105cd01526000818161023c0152818161029c015281816102e9015261054301526115af6000f3fe60806040526004361061008a5760003560e01c806369a10a121161005957806369a10a121461018a578063979d7e86146101aa578063c51aba2b146101f6578063dd2a44c11461022a578063e3d7ad731461025e57610091565b8063238a0386146100b95780632e1a7d4d1461010057806347d1d09a1461012257806354fd4d501461015257610091565b3661009157005b600080356001600160e01b031916905060006100af82600036610292565b9050805160208201f35b3480156100c557600080fd5b506100d96100d4366004610fc2565b6102c8565b60408051825161ffff90811682526020938401511692810192909252015b60405180910390f35b34801561010c57600080fd5b5061012061011b366004610ff7565b61036c565b005b34801561012e57600080fd5b5061014261013d366004611010565b610529565b60405190151581526020016100f7565b34801561015e57600080fd5b5060408051808201825260008082526020918201819052825180840190935260018352908201526100d9565b34801561019657600080fd5b506101206101a536600461106a565b6105c2565b3480156101b657600080fd5b506101de7f000000000000000000000000000000000000000000000000000000000000000081565b6040516001600160a01b0390911681526020016100f7565b34801561020257600080fd5b506101de7f000000000000000000000000000000000000000000000000000000000000000081565b34801561023657600080fd5b506101de7f000000000000000000000000000000000000000000000000000000000000000081565b34801561026a57600080fd5b506101de7f000000000000000000000000000000000000000000000000000000000000000081565b60606102c08484847f0000000000000000000000000000000000000000000000000000000000000000610bac565b949350505050565b6040805180820182526000808252602082015290516311c501c360e11b81527f00000000000000000000000000000000000000000000000000000000000000006001600160a01b03169063238a0386906103269085906004016110f5565b6040805180830381865afa158015610342573d6000803e3d6000fd5b505050506040513d601f19601f82011682018060405250810190610366919061111b565b92915050565b604051630935e01b60e21b815233600482015273__$a5a42e46683ad9c79b7b86d5ff60fdf4c1$__906324d7806c90602401602060405180830381865af41580156103bb573d6000803e3d6000fd5b505050506040513d601f19601f820116820180604052508101906103df919061117a565b6104305760405162461bcd60e51b815260206004820181905260248201527f42617369635368656c6c3a207265737472696374656420746f2061646d696e7360448201526064015b60405180910390fd5b478111156104805760405162461bcd60e51b815260206004820181905260248201527f42617369635368656c6c3a20696e73756666696369656e742062616c616e63656044820152606401610427565b73__$a5a42e46683ad9c79b7b86d5ff60fdf4c1$__638da5cb5b6040518163ffffffff1660e01b8152600401602060405180830381865af41580156104c9573d6000803e3d6000fd5b505050506040513d601f19601f820116820180604052508101906104ed91906111b1565b6001600160a01b03166108fc829081150290604051600060405180830381858888f19350505050158015610525573d6000803e3d6000fd5b5050565b6040516323e8e84d60e11b81526000906001600160a01b037f000000000000000000000000000000000000000000000000000000000000000016906347d1d09a9061057a90869086906004016111ce565b602060405180830381865afa158015610597573d6000803e3d6000fd5b505050506040513d601f19601f820116820180604052508101906105bb919061117a565b9392505050565b336001600160a01b037f0000000000000000000000000000000000000000000000000000000000000000161461063a5760405162461bcd60e51b815260206004820181905260248201527f4261736541737365743a206f6e6c7920726567697374727920616c6c6f7765646044820152606401610427565b6000610644610cde565b90506000610650610d6a565b60018301549091506001600160a01b0316156106b85760405162461bcd60e51b815260206004820152602160248201527f4e54455243323041737365743a20616c726561647920696e697469616c697a656044820152601960fa1b6064820152608401610427565b60006106c7602085018561121a565b6001600160a01b0316036107305760405162461bcd60e51b815260206004820152602a60248201527f4e54455243323041737365743a206f776e65722063616e6e6f74206265207a65604482015269726f206164647265737360b01b6064820152608401610427565b6000610742604085016020860161121a565b6001600160a01b0316036107b15760405162461bcd60e51b815260206004820152603060248201527f4e54455243323041737365743a207465726d73206f776e65722063616e6e6f7460448201526f206265207a65726f206164647265737360801b6064820152608401610427565b60006107c3606085016040860161121a565b6001600160a01b03160361082f5760405162461bcd60e51b815260206004820152602d60248201527f4e54455243323041737365743a2072656769737472792063616e6e6f7420626560448201526c207a65726f206164647265737360981b6064820152608401610427565b600061083e6060850185611237565b9050116108985760405162461bcd60e51b815260206004820152602260248201527f4e54455243323041737365743a206e616d652063616e6e6f7420626520656d70604482015261747960f01b6064820152608401610427565b60006108a760a0850185611237565b8101906108b49190611285565b90506000816020015160ff16116109265760405162461bcd60e51b815260206004820152603060248201527f4e54455243323041737365743a20646563696d616c73206d757374206265206760448201526f726561746572207468616e207a65726f60801b6064820152608401610427565b80516001600160a01b03166109a35760405162461bcd60e51b815260206004820152603960248201527f4e54455243323041737365743a206f726967696e20636861696e20616464726560448201527f73732063616e6e6f74206265207a65726f2061646472657373000000000000006064820152608401610427565b6000816040015111610a1d5760405162461bcd60e51b815260206004820152603760248201527f4e54455243323041737365743a206f726967696e20636861696e206964206d7560448201527f73742062652067726561746572207468616e207a65726f0000000000000000006064820152608401610427565b6000816060015111610a8c5760405162461bcd60e51b815260206004820152603260248201527f4e54455243323041737365743a206d617820737570706c79206d7573742062656044820152712067726561746572207468616e207a65726f60701b6064820152608401610427565b600081608001515111610aed5760405162461bcd60e51b8152602060048201526024808201527f4e54455243323041737365743a2073796d626f6c2063616e6e6f7420626520656044820152636d70747960e01b6064820152608401610427565b610afa602085018561121a565b6001840180546001600160a01b0319166001600160a01b039283161790558151845462010000600160b01b0319166201000091909216021783556040810151600384015560808101516004840190610b5290826113bb565b50606081015160018301556020810151825460ff191660ff9091161782556000610b7a610dcf565b805460ff191660011781559050610b946060860186611237565b6002830191610ba491908361147b565b505050505050565b6040516337b4746960e11b81526001600160e01b0319851660048201526060906000906001600160a01b03841690636f68e8d290602401602060405180830381865afa158015610c00573d6000803e3d6000fd5b505050506040513d601f19601f82011682018060405250810190610c2491906111b1565b90506001600160a01b038116610c945760405162461bcd60e51b815260206004820152602f60248201527f4c6962457874656e73696f6e3a206e6f20657874656e73696f6e20737570706f60448201526e393a399033371039b2b632b1ba37b960891b6064820152608401610427565b610cd48186868080601f016020809104026020016040519081016040528093929190818152602001838380828437600092019190915250610e3492505050565b9695505050505050565b60408051808201909152601381527278722e61737365742e73746f726167652e763160681b60209091015260008060ff610d3960017f0db46b7c34197dfe4fa603e9c17ca5ed137d4afe720a374e843bbcf1431eaeb761153c565b604051602001610d4b91815260200190565b60408051601f1981840301815291905280516020909101201692915050565b60408051808201909152601981527f78722e65726332302e61737365742e73746f726167652e76310000000000000060209091015260008060ff610d3960017f3139feec972a01e581c6c4f7f95f108002217f0982e61e19cad72b737ad6c32a61153c565b60408051808201909152601881527f78722e61637469766174696f6e2e73746f726167652e7631000000000000000060209091015260008060ff610d3960017ff6611e962a52dbc98dd0485088d920890c43e26113c61976f6e171a29d49ce4961153c565b6060600080846001600160a01b031684604051610e51919061155d565b600060405180830381855af49150503d8060008114610e8c576040519150601f19603f3d011682016040523d82523d6000602084013e610e91565b606091505b50915091508115610ea55791506103669050565b805115610eb55780518082602001fd5b60405162461bcd60e51b8152602060048201526016602482015275119d5b98dd1a5bdb8818d85b1b081c995d995c9d195960521b6044820152606401610427565b634e487b7160e01b600052604160045260246000fd5b60405160a0810167ffffffffffffffff81118282101715610f2f57610f2f610ef6565b60405290565b600082601f830112610f4657600080fd5b813567ffffffffffffffff80821115610f6157610f61610ef6565b604051601f8301601f19908116603f01168101908282118183101715610f8957610f89610ef6565b81604052838152866020858801011115610fa257600080fd5b836020870160208301376000602085830101528094505050505092915050565b600060208284031215610fd457600080fd5b813567ffffffffffffffff811115610feb57600080fd5b6102c084828501610f35565b60006020828403121561100957600080fd5b5035919050565b600080828403606081121561102457600080fd5b833567ffffffffffffffff81111561103b57600080fd5b61104786828701610f35565b9350506040601f198201121561105c57600080fd5b506020830190509250929050565b60006020828403121561107c57600080fd5b813567ffffffffffffffff81111561109357600080fd5b820160c081850312156105bb57600080fd5b60005b838110156110c05781810151838201526020016110a8565b50506000910152565b600081518084526110e18160208601602086016110a5565b601f01601f19169290920160200192915050565b6020815260006105bb60208301846110c9565b61ffff8116811461111857600080fd5b50565b60006040828403121561112d57600080fd5b6040516040810181811067ffffffffffffffff8211171561115057611150610ef6565b604052825161115e81611108565b8152602083015161116e81611108565b60208201529392505050565b60006020828403121561118c57600080fd5b815180151581146105bb57600080fd5b6001600160a01b038116811461111857600080fd5b6000602082840312156111c357600080fd5b81516105bb8161119c565b6060815260006111e160608301856110c9565b905082356111ee81611108565b61ffff80821660208501526020850135915061120982611108565b808216604085015250509392505050565b60006020828403121561122c57600080fd5b81356105bb8161119c565b6000808335601e1984360301811261124e57600080fd5b83018035915067ffffffffffffffff82111561126957600080fd5b60200191503681900382131561127e57600080fd5b9250929050565b60006020828403121561129757600080fd5b813567ffffffffffffffff808211156112af57600080fd5b9083019060a082860312156112c357600080fd5b6112cb610f0c565b82356112d68161119c565b8152602083013560ff811681146112ec57600080fd5b80602083015250604083013560408201526060830135606082015260808301358281111561131957600080fd5b61132587828601610f35565b60808301525095945050505050565b600181811c9082168061134857607f821691505b60208210810361136857634e487b7160e01b600052602260045260246000fd5b50919050565b601f8211156113b6576000816000526020600020601f850160051c810160208610156113975750805b601f850160051c820191505b81811015610ba4578281556001016113a3565b505050565b815167ffffffffffffffff8111156113d5576113d5610ef6565b6113e9816113e38454611334565b8461136e565b602080601f83116001811461141e57600084156114065750858301515b600019600386901b1c1916600185901b178555610ba4565b600085815260208120601f198616915b8281101561144d5788860151825594840194600190910190840161142e565b508582101561146b5787850151600019600388901b60f8161c191681555b5050505050600190811b01905550565b67ffffffffffffffff83111561149357611493610ef6565b6114a7836114a18354611334565b8361136e565b6000601f8411600181146114db57600085156114c35750838201355b600019600387901b1c1916600186901b178355611535565b600083815260209020601f19861690835b8281101561150c57868501358255602094850194600190920191016114ec565b50868210156115295760001960f88860031b161c19848701351681555b505060018560011b0183555b5050505050565b8181038181111561036657634e487b7160e01b600052601160045260246000fd5b6000825161156f8184602087016110a5565b919091019291505056fea2646970667358221220f1a242a7f0237a9623c4274b8f0cf3f3c99714b04b6f7f7a792fded0d8a1dedd64736f6c63430008180033",
  "linkReferences": {
    "contracts/libraries/LibAccess.sol": {
      "LibAccess": [
        {
          "length": 20,
          "start": 1745
        },
        {
          "length": 20,
          "start": 2002
        }
      ]
    }
  },
  "deployedLinkReferences": {
    "contracts/libraries/LibAccess.sol": {
      "LibAccess": [
        {
          "length": 20,
          "start": 897
        },
        {
          "length": 20,
          "start": 1154
        }
      ]
    }
  }
}