{
  "_format": "hh-sol-artifact-1",
  "contractName": "NTERC721Asset",
  "sourceName": "contracts/asset/instance/erc721/NTERC721Asset.sol",
  "abi": [
    {
      "inputs": [
        {
          "components": [
            {
              "internalType": "address",
              "name": "assetRegistry",
              "type": "address"
            },
            {
              "internalType": "address",
              "name": "avatarRegistry",
              "type": "address"
            },
            {
              "internalType": "address",
              "name": "companyRegistry",
              "type": "address"
            }
          ],
          "internalType": "struct BaseAssetConstructorArgs",
          "name": "args",
          "type": "tuple"
        }
      ],
      "stateMutability": "nonpayable",
      "type": "constructor"
    },
    {
      "inputs": [
        {
          "internalType": "address",
          "name": "operator",
          "type": "address"
        },
        {
          "internalType": "uint256",
          "name": "tokenId",
          "type": "uint256"
        }
      ],
      "name": "ERC721InsufficientApproval",
      "type": "error"
    },
    {
      "inputs": [
        {
          "internalType": "address",
          "name": "approver",
          "type": "address"
        }
      ],
      "name": "ERC721InvalidApprover",
      "type": "error"
    },
    {
      "inputs": [
        {
          "internalType": "address",
          "name": "owner",
          "type": "address"
        }
      ],
      "name": "ERC721InvalidOwner",
      "type": "error"
    },
    {
      "inputs": [
        {
          "internalType": "address",
          "name": "receiver",
          "type": "address"
        }
      ],
      "name": "ERC721InvalidReceiver",
      "type": "error"
    },
    {
      "inputs": [
        {
          "internalType": "address",
          "name": "sender",
          "type": "address"
        }
      ],
      "name": "ERC721InvalidSender",
      "type": "error"
    },
    {
      "inputs": [
        {
          "internalType": "uint256",
          "name": "tokenId",
          "type": "uint256"
        }
      ],
      "name": "ERC721NonexistentToken",
      "type": "error"
    },
    {
      "inputs": [],
      "name": "ReentrancyGuardReentrantCall",
      "type": "error"
    },
    {
      "anonymous": false,
      "inputs": [
        {
          "indexed": true,
          "internalType": "address",
          "name": "owner",
          "type": "address"
        },
        {
          "indexed": true,
          "internalType": "address",
          "name": "approved",
          "type": "address"
        },
        {
          "indexed": true,
          "internalType": "uint256",
          "name": "tokenId",
          "type": "uint256"
        }
      ],
      "name": "Approval",
      "type": "event"
    },
    {
      "anonymous": false,
      "inputs": [
        {
          "indexed": true,
          "internalType": "address",
          "name": "owner",
          "type": "address"
        },
        {
          "indexed": true,
          "internalType": "address",
          "name": "approved",
          "type": "address"
        },
        {
          "indexed": true,
          "internalType": "uint256",
          "name": "tokenId",
          "type": "uint256"
        }
      ],
      "name": "Approval",
      "type": "event"
    },
    {
      "anonymous": false,
      "inputs": [],
      "name": "AssetConditionRemoved",
      "type": "event"
    },
    {
      "anonymous": false,
      "inputs": [
        {
          "indexed": false,
          "internalType": "address",
          "name": "condition",
          "type": "address"
        }
      ],
      "name": "AssetConditionSet",
      "type": "event"
    },
    {
      "anonymous": false,
      "inputs": [
        {
          "indexed": true,
          "internalType": "address",
          "name": "to",
          "type": "address"
        },
        {
          "indexed": true,
          "internalType": "uint256",
          "name": "tokenId",
          "type": "uint256"
        }
      ],
      "name": "ERC721Minted",
      "type": "event"
    },
    {
      "anonymous": false,
      "inputs": [
        {
          "indexed": true,
          "internalType": "address",
          "name": "by",
          "type": "address"
        },
        {
          "indexed": false,
          "internalType": "string",
          "name": "reason",
          "type": "string"
        }
      ],
      "name": "EntityDeactivated",
      "type": "event"
    },
    {
      "anonymous": false,
      "inputs": [
        {
          "indexed": true,
          "internalType": "address",
          "name": "by",
          "type": "address"
        }
      ],
      "name": "EntityReactivated",
      "type": "event"
    },
    {
      "anonymous": false,
      "inputs": [
        {
          "indexed": true,
          "internalType": "address",
          "name": "by",
          "type": "address"
        },
        {
          "indexed": false,
          "internalType": "string",
          "name": "reason",
          "type": "string"
        }
      ],
      "name": "EntityRemoved",
      "type": "event"
    },
    {
      "anonymous": false,
      "inputs": [
        {
          "indexed": true,
          "internalType": "address",
          "name": "from",
          "type": "address"
        },
        {
          "indexed": true,
          "internalType": "address",
          "name": "to",
          "type": "address"
        },
        {
          "indexed": true,
          "internalType": "uint256",
          "name": "tokenId",
          "type": "uint256"
        }
      ],
      "name": "Transfer",
      "type": "event"
    },
    {
      "anonymous": false,
      "inputs": [
        {
          "indexed": true,
          "internalType": "address",
          "name": "from",
          "type": "address"
        },
        {
          "indexed": true,
          "internalType": "address",
          "name": "to",
          "type": "address"
        },
        {
          "indexed": true,
          "internalType": "uint256",
          "name": "tokenId",
          "type": "uint256"
        }
      ],
      "name": "Transfer",
      "type": "event"
    },
    {
      "inputs": [
        {
          "internalType": "address[]",
          "name": "signers",
          "type": "address[]"
        }
      ],
      "name": "addSigners",
      "outputs": [],
      "stateMutability": "nonpayable",
      "type": "function"
    },
    {
      "inputs": [
        {
          "internalType": "address",
          "name": "",
          "type": "address"
        },
        {
          "internalType": "uint256",
          "name": "",
          "type": "uint256"
        }
      ],
      "name": "approve",
      "outputs": [
        {
          "internalType": "bool",
          "name": "",
          "type": "bool"
        }
      ],
      "stateMutability": "pure",
      "type": "function"
    },
    {
      "inputs": [],
      "name": "assetRegistry",
      "outputs": [
        {
          "internalType": "address",
          "name": "",
          "type": "address"
        }
      ],
      "stateMutability": "view",
      "type": "function"
    },
    {
      "inputs": [],
      "name": "avatarRegistry",
      "outputs": [
        {
          "internalType": "contract IAvatarRegistry",
          "name": "",
          "type": "address"
        }
      ],
      "stateMutability": "view",
      "type": "function"
    },
    {
      "inputs": [
        {
          "internalType": "address",
          "name": "owner",
          "type": "address"
        }
      ],
      "name": "balanceOf",
      "outputs": [
        {
          "internalType": "uint256",
          "name": "",
          "type": "uint256"
        }
      ],
      "stateMutability": "view",
      "type": "function"
    },
    {
      "inputs": [
        {
          "internalType": "address",
          "name": "to",
          "type": "address"
        },
        {
          "internalType": "bytes",
          "name": "",
          "type": "bytes"
        }
      ],
      "name": "canMint",
      "outputs": [
        {
          "internalType": "bool",
          "name": "",
          "type": "bool"
        }
      ],
      "stateMutability": "view",
      "type": "function"
    },
    {
      "inputs": [
        {
          "components": [
            {
              "internalType": "address",
              "name": "asset",
              "type": "address"
            },
            {
              "internalType": "address",
              "name": "world",
              "type": "address"
            },
            {
              "internalType": "address",
              "name": "company",
              "type": "address"
            },
            {
              "internalType": "address",
              "name": "experience",
              "type": "address"
            },
            {
              "internalType": "address",
              "name": "avatar",
              "type": "address"
            }
          ],
          "internalType": "struct AssetCheckArgs",
          "name": "args",
          "type": "tuple"
        }
      ],
      "name": "canUseAsset",
      "outputs": [
        {
          "internalType": "bool",
          "name": "",
          "type": "bool"
        }
      ],
      "stateMutability": "view",
      "type": "function"
    },
    {
      "inputs": [
        {
          "components": [
            {
              "internalType": "address",
              "name": "asset",
              "type": "address"
            },
            {
              "internalType": "address",
              "name": "world",
              "type": "address"
            },
            {
              "internalType": "address",
              "name": "company",
              "type": "address"
            },
            {
              "internalType": "address",
              "name": "experience",
              "type": "address"
            },
            {
              "internalType": "address",
              "name": "avatar",
              "type": "address"
            }
          ],
          "internalType": "struct AssetCheckArgs",
          "name": "args",
          "type": "tuple"
        }
      ],
      "name": "canViewAsset",
      "outputs": [
        {
          "internalType": "bool",
          "name": "",
          "type": "bool"
        }
      ],
      "stateMutability": "view",
      "type": "function"
    },
    {
      "inputs": [
        {
          "internalType": "address",
          "name": "newOwner",
          "type": "address"
        }
      ],
      "name": "changeOwner",
      "outputs": [],
      "stateMutability": "nonpayable",
      "type": "function"
    },
    {
      "inputs": [],
      "name": "companyRegistry",
      "outputs": [
        {
          "internalType": "contract ICompanyRegistry",
          "name": "",
          "type": "address"
        }
      ],
      "stateMutability": "view",
      "type": "function"
    },
    {
      "inputs": [
        {
          "internalType": "string",
          "name": "reason",
          "type": "string"
        }
      ],
      "name": "deactivate",
      "outputs": [],
      "stateMutability": "nonpayable",
      "type": "function"
    },
    {
      "inputs": [
        {
          "internalType": "uint256",
          "name": "tokenId",
          "type": "uint256"
        }
      ],
      "name": "getApproved",
      "outputs": [
        {
          "internalType": "address",
          "name": "",
          "type": "address"
        }
      ],
      "stateMutability": "view",
      "type": "function"
    },
    {
      "inputs": [
        {
          "internalType": "bytes32",
          "name": "role",
          "type": "bytes32"
        },
        {
          "internalType": "address",
          "name": "account",
          "type": "address"
        }
      ],
      "name": "grantRole",
      "outputs": [],
      "stateMutability": "nonpayable",
      "type": "function"
    },
    {
      "inputs": [
        {
          "internalType": "bytes32",
          "name": "role",
          "type": "bytes32"
        },
        {
          "internalType": "address",
          "name": "account",
          "type": "address"
        }
      ],
      "name": "hasRole",
      "outputs": [
        {
          "internalType": "bool",
          "name": "",
          "type": "bool"
        }
      ],
      "stateMutability": "view",
      "type": "function"
    },
    {
      "inputs": [
        {
          "components": [
            {
              "internalType": "string",
              "name": "name",
              "type": "string"
            },
            {
              "internalType": "string",
              "name": "symbol",
              "type": "string"
            },
            {
              "internalType": "address",
              "name": "issuer",
              "type": "address"
            },
            {
              "internalType": "address",
              "name": "originAddress",
              "type": "address"
            },
            {
              "internalType": "uint256",
              "name": "originChainId",
              "type": "uint256"
            },
            {
              "internalType": "bytes",
              "name": "initData",
              "type": "bytes"
            }
          ],
          "internalType": "struct AssetInitArgs",
          "name": "args",
          "type": "tuple"
        }
      ],
      "name": "init",
      "outputs": [],
      "stateMutability": "nonpayable",
      "type": "function"
    },
    {
      "inputs": [
        {
          "internalType": "address",
          "name": "account",
          "type": "address"
        }
      ],
      "name": "isAdmin",
      "outputs": [
        {
          "internalType": "bool",
          "name": "",
          "type": "bool"
        }
      ],
      "stateMutability": "view",
      "type": "function"
    },
    {
      "inputs": [
        {
          "internalType": "address",
          "name": "owner",
          "type": "address"
        },
        {
          "internalType": "address",
          "name": "operator",
          "type": "address"
        }
      ],
      "name": "isApprovedForAll",
      "outputs": [
        {
          "internalType": "bool",
          "name": "",
          "type": "bool"
        }
      ],
      "stateMutability": "view",
      "type": "function"
    },
    {
      "inputs": [],
      "name": "isEntityActive",
      "outputs": [
        {
          "internalType": "bool",
          "name": "",
          "type": "bool"
        }
      ],
      "stateMutability": "view",
      "type": "function"
    },
    {
      "inputs": [],
      "name": "isRemoved",
      "outputs": [
        {
          "internalType": "bool",
          "name": "",
          "type": "bool"
        }
      ],
      "stateMutability": "view",
      "type": "function"
    },
    {
      "inputs": [
        {
          "internalType": "address",
          "name": "account",
          "type": "address"
        }
      ],
      "name": "isSigner",
      "outputs": [
        {
          "internalType": "bool",
          "name": "",
          "type": "bool"
        }
      ],
      "stateMutability": "view",
      "type": "function"
    },
    {
      "inputs": [],
      "name": "issuer",
      "outputs": [
        {
          "internalType": "address",
          "name": "",
          "type": "address"
        }
      ],
      "stateMutability": "view",
      "type": "function"
    },
    {
      "inputs": [
        {
          "internalType": "address",
          "name": "to",
          "type": "address"
        },
        {
          "internalType": "bytes",
          "name": "data",
          "type": "bytes"
        }
      ],
      "name": "mint",
      "outputs": [],
      "stateMutability": "nonpayable",
      "type": "function"
    },
    {
      "inputs": [],
      "name": "name",
      "outputs": [
        {
          "internalType": "string",
          "name": "",
          "type": "string"
        }
      ],
      "stateMutability": "view",
      "type": "function"
    },
    {
      "inputs": [],
      "name": "originAddress",
      "outputs": [
        {
          "internalType": "address",
          "name": "",
          "type": "address"
        }
      ],
      "stateMutability": "view",
      "type": "function"
    },
    {
      "inputs": [],
      "name": "originChainId",
      "outputs": [
        {
          "internalType": "uint256",
          "name": "",
          "type": "uint256"
        }
      ],
      "stateMutability": "view",
      "type": "function"
    },
    {
      "inputs": [],
      "name": "owner",
      "outputs": [
        {
          "internalType": "address",
          "name": "",
          "type": "address"
        }
      ],
      "stateMutability": "view",
      "type": "function"
    },
    {
      "inputs": [
        {
          "internalType": "uint256",
          "name": "tokenId",
          "type": "uint256"
        }
      ],
      "name": "ownerOf",
      "outputs": [
        {
          "internalType": "address",
          "name": "",
          "type": "address"
        }
      ],
      "stateMutability": "view",
      "type": "function"
    },
    {
      "inputs": [],
      "name": "reactivate",
      "outputs": [],
      "stateMutability": "nonpayable",
      "type": "function"
    },
    {
      "inputs": [
        {
          "internalType": "string",
          "name": "reason",
          "type": "string"
        }
      ],
      "name": "remove",
      "outputs": [],
      "stateMutability": "nonpayable",
      "type": "function"
    },
    {
      "inputs": [],
      "name": "removeCondition",
      "outputs": [],
      "stateMutability": "nonpayable",
      "type": "function"
    },
    {
      "inputs": [
        {
          "internalType": "address[]",
          "name": "signers",
          "type": "address[]"
        }
      ],
      "name": "removeSigners",
      "outputs": [],
      "stateMutability": "nonpayable",
      "type": "function"
    },
    {
      "inputs": [
        {
          "internalType": "address",
          "name": "holder",
          "type": "address"
        },
        {
          "internalType": "bytes",
          "name": "data",
          "type": "bytes"
        }
      ],
      "name": "revoke",
      "outputs": [],
      "stateMutability": "nonpayable",
      "type": "function"
    },
    {
      "inputs": [
        {
          "internalType": "bytes32",
          "name": "role",
          "type": "bytes32"
        },
        {
          "internalType": "address",
          "name": "account",
          "type": "address"
        }
      ],
      "name": "revokeRole",
      "outputs": [],
      "stateMutability": "nonpayable",
      "type": "function"
    },
    {
      "inputs": [
        {
          "internalType": "address",
          "name": "from",
          "type": "address"
        },
        {
          "internalType": "address",
          "name": "to",
          "type": "address"
        },
        {
          "internalType": "uint256",
          "name": "tokenId",
          "type": "uint256"
        }
      ],
      "name": "safeTransferFrom",
      "outputs": [],
      "stateMutability": "nonpayable",
      "type": "function"
    },
    {
      "inputs": [
        {
          "internalType": "address",
          "name": "",
          "type": "address"
        },
        {
          "internalType": "address",
          "name": "",
          "type": "address"
        },
        {
          "internalType": "uint256",
          "name": "",
          "type": "uint256"
        },
        {
          "internalType": "bytes",
          "name": "",
          "type": "bytes"
        }
      ],
      "name": "safeTransferFrom",
      "outputs": [],
      "stateMutability": "nonpayable",
      "type": "function"
    },
    {
      "inputs": [
        {
          "internalType": "address",
          "name": "",
          "type": "address"
        },
        {
          "internalType": "bool",
          "name": "",
          "type": "bool"
        }
      ],
      "name": "setApprovalForAll",
      "outputs": [],
      "stateMutability": "nonpayable",
      "type": "function"
    },
    {
      "inputs": [
        {
          "internalType": "address",
          "name": "condition",
          "type": "address"
        }
      ],
      "name": "setCondition",
      "outputs": [],
      "stateMutability": "nonpayable",
      "type": "function"
    },
    {
      "inputs": [
        {
          "internalType": "bytes4",
          "name": "interfaceId",
          "type": "bytes4"
        }
      ],
      "name": "supportsInterface",
      "outputs": [
        {
          "internalType": "bool",
          "name": "",
          "type": "bool"
        }
      ],
      "stateMutability": "view",
      "type": "function"
    },
    {
      "inputs": [],
      "name": "symbol",
      "outputs": [
        {
          "internalType": "string",
          "name": "",
          "type": "string"
        }
      ],
      "stateMutability": "view",
      "type": "function"
    },
    {
      "inputs": [],
      "name": "termsOwner",
      "outputs": [
        {
          "internalType": "address",
          "name": "",
          "type": "address"
        }
      ],
      "stateMutability": "view",
      "type": "function"
    },
    {
      "inputs": [
        {
          "internalType": "uint256",
          "name": "tokenId",
          "type": "uint256"
        }
      ],
      "name": "tokenURI",
      "outputs": [
        {
          "internalType": "string",
          "name": "",
          "type": "string"
        }
      ],
      "stateMutability": "view",
      "type": "function"
    },
    {
      "inputs": [
        {
          "internalType": "address",
          "name": "",
          "type": "address"
        },
        {
          "internalType": "address",
          "name": "",
          "type": "address"
        },
        {
          "internalType": "uint256",
          "name": "",
          "type": "uint256"
        }
      ],
      "name": "transferFrom",
      "outputs": [
        {
          "internalType": "bool",
          "name": "",
          "type": "bool"
        }
      ],
      "stateMutability": "pure",
      "type": "function"
    },
    {
      "inputs": [],
      "name": "version",
      "outputs": [
        {
          "components": [
            {
              "internalType": "uint16",
              "name": "major",
              "type": "uint16"
            },
            {
              "internalType": "uint16",
              "name": "minor",
              "type": "uint16"
            }
          ],
          "internalType": "struct Version",
          "name": "",
          "type": "tuple"
        }
      ],
      "stateMutability": "pure",
      "type": "function"
    },
    {
      "stateMutability": "payable",
      "type": "receive"
    }
  ],
  "bytecode": "0x60e06040523480156200001157600080fd5b506040516200379b3803806200379b8339810160408190526200003491620001da565b805181906001600160a01b0316620000a85760405162461bcd60e51b815260206004820152602c60248201527f4261736541737365743a2061737365745265676973747279206973207468652060448201526b7a65726f206164647265737360a01b60648201526084015b60405180910390fd5b60208101516001600160a01b03166200011a5760405162461bcd60e51b815260206004820152602d60248201527f4261736541737365743a2061766174617252656769737472792069732074686560448201526c207a65726f206164647265737360981b60648201526084016200009f565b60408101516001600160a01b03166200018d5760405162461bcd60e51b815260206004820152602e60248201527f4261736541737365743a20636f6d70616e79526567697374727920697320746860448201526d65207a65726f206164647265737360901b60648201526084016200009f565b80516001600160a01b039081166080526020820151811660a0526040909101511660c0525060016000556200025b565b80516001600160a01b0381168114620001d557600080fd5b919050565b600060608284031215620001ed57600080fd5b604051606081016001600160401b03811182821017156200021e57634e487b7160e01b600052604160045260246000fd5b6040526200022c83620001bd565b81526200023c60208401620001bd565b60208201526200024f60408401620001bd565b60408201529392505050565b60805160a05160c0516134e6620002b560003960006106fb015260008181610784015281816114bf015261161d0152600081816105ec0152818161080601528181610c75015281816110a201526119f001526134e66000f3fe60806040526004361061025f5760003560e01c806380599e4b11610144578063b4e75b9b116100b6578063d18611d61161007a578063d18611d61461073d578063d547741f14610752578063e3d7ad7314610772578063e517fedd146107a6578063e8906a2d146107bb578063e985e9c5146107db57600080fd5b8063b4e75b9b1461068e578063b510391f146106ae578063b88d4fde146106ce578063c51aba2b146106e9578063c87b56dd1461071d57600080fd5b806395d89b411161010857806395d89b41146105c5578063979d7e86146105da5780639a9738441461060e5780639e54c0a21461062e578063a22cb4651461064e578063a6f9dae11461066e57600080fd5b806380599e4b1461053b57806386b70bed1461055b5780638d361e43146105705780638da5cb5b1461059057806391d14854146105a557600080fd5b806327ee999d116101dd5780636352211e116101a15780636352211e1461049157806369bd9194146104b15780636acd6481146104c657806370a08231146104e65780637df73e27146105065780637e6e15511461052657600080fd5b806327ee999d146103c45780632f2ff15d146103e45780633fa47f171461040457806342842e0e1461042457806354fd4d501461044457600080fd5b8063095ea7b311610224578063095ea7b3146103315780630ac7f561146103515780631d1438481461037457806323b872dd1461038957806324d7806c146103a457600080fd5b80626c7e851461026b57806301ffc9a71461028d578063021665b7146102c257806306fdde03146102d7578063081812fc146102f957600080fd5b3661026657005b600080fd5b34801561027757600080fd5b5061028b610286366004612aaf565b6107fb565b005b34801561029957600080fd5b506102ad6102a8366004612b03565b610a2b565b60405190151581526020015b60405180910390f35b3480156102ce57600080fd5b5061028b610a7d565b3480156102e357600080fd5b506102ec610af4565b6040516102b99190612b70565b34801561030557600080fd5b50610319610314366004612b83565b610b8c565b6040516001600160a01b0390911681526020016102b9565b34801561033d57600080fd5b506102ad61034c366004612bb1565b610ba1565b34801561035d57600080fd5b50610366610bbb565b6040519081526020016102b9565b34801561038057600080fd5b50610319610bce565b34801561039557600080fd5b506102ad61034c366004612bdd565b3480156103b057600080fd5b506102ad6103bf366004612c1e565b610bea565b3480156103d057600080fd5b5061028b6103df366004612ce7565b610c6a565b3480156103f057600080fd5b5061028b6103ff366004612d1c565b610d08565b34801561041057600080fd5b506102ad61041f366004612d4c565b610e0e565b34801561043057600080fd5b5061028b61043f366004612bdd565b610ea4565b34801561045057600080fd5b50604080518082018252600080825260209182018190528251808401845260018082529083019182528351908152905161ffff1691810191909152016102b9565b34801561049d57600080fd5b506103196104ac366004612b83565b610ebf565b3480156104bd57600080fd5b50610319610eca565b3480156104d257600080fd5b5061028b6104e1366004612c1e565b610ee9565b3480156104f257600080fd5b50610366610501366004612c1e565b610fe4565b34801561051257600080fd5b506102ad610521366004612c1e565b61103c565b34801561053257600080fd5b506102ad61107f565b34801561054757600080fd5b5061028b610556366004612ce7565b611097565b34801561056757600080fd5b506102ad611199565b34801561057c57600080fd5b5061028b61058b366004612de4565b6111ac565b34801561059c57600080fd5b50610319611274565b3480156105b157600080fd5b506102ad6105c0366004612d1c565b6112e8565b3480156105d157600080fd5b506102ec61134a565b3480156105e657600080fd5b506103197f000000000000000000000000000000000000000000000000000000000000000081565b34801561061a57600080fd5b5061028b610629366004612e59565b611362565b34801561063a57600080fd5b506102ad610649366004612e59565b611596565b34801561065a57600080fd5b5061028b610669366004612eec565b61170d565b34801561067a57600080fd5b5061028b610689366004612c1e565b611725565b34801561069a57600080fd5b506102ad6106a9366004612d4c565b611860565b3480156106ba57600080fd5b5061028b6106c9366004612e59565b6118ae565b3480156106da57600080fd5b5061028b610669366004612f1a565b3480156106f557600080fd5b506103197f000000000000000000000000000000000000000000000000000000000000000081565b34801561072957600080fd5b506102ec610738366004612b83565b61197e565b34801561074957600080fd5b5061028b6119e5565b34801561075e57600080fd5b5061028b61076d366004612d1c565b611a73565b34801561077e57600080fd5b506103197f000000000000000000000000000000000000000000000000000000000000000081565b3480156107b257600080fd5b50610319611b49565b3480156107c757600080fd5b5061028b6107d6366004612de4565b611b53565b3480156107e757600080fd5b506102ad6107f6366004612f9a565b611c1b565b336001600160a01b037f0000000000000000000000000000000000000000000000000000000000000000161461084c5760405162461bcd60e51b815260040161084390612fc8565b60405180910390fd5b600061085b60a083018361300d565b810190610868919061305b565b6040805160a081019091529091506109519080610885858061300d565b8080601f0160208091040260200160405190810160405280939291908181526020018383808284376000920191909152505050908252506020908101906108ce9086018661300d565b8080601f0160208091040260200160405190810160405280939291908181526020018383808284376000920191909152505050908252506020016109186060860160408701612c1e565b6001600160a01b031681526020016109366080860160608701612c1e565b6001600160a01b031681526020018460800135815250611c58565b600061095b611f77565b8251519091506109b95760405162461bcd60e51b815260206004820152602360248201527f4e5445524337323141737365743a206261736520555249206d757374206265206044820152621cd95d60ea1b6064820152608401610843565b6109e08260000151604051806040016040528060018152602001602f60f81b81525061200d565b610a185781516040516109f691906020016130de565b60408051601f198184030181529190528190610a129082613185565b50505050565b81518190610a129082613185565b505050565b60006001600160e01b031982166380ac58cd60e01b1480610a5c57506001600160e01b03198216635b5e139f60e01b145b80610a7757506001600160e01b031982166301ffc9a760e01b145b92915050565b33610a86612078565b600101546001600160a01b031614610ab05760405162461bcd60e51b815260040161084390613245565b610ab8612078565b60020180546001600160a01b03191690556040517f0a3b4f225d27c59369c925408168eb6c4619520ef6a721f0225f0db69977416590600090a1565b6060610afe6120d3565b8054610b0990613103565b80601f0160208091040260200160405190810160405280929190818152602001828054610b3590613103565b8015610b825780601f10610b5757610100808354040283529160200191610b82565b820191906000526020600020905b815481529060010190602001808311610b6557829003601f168201915b5050505050905090565b6000610b978261212f565b50610a7782612178565b600060405162461bcd60e51b815260040161084390613288565b6000610bc5612078565b60030154905090565b6000610bd8612078565b600101546001600160a01b0316919050565b604051630935e01b60e21b81526001600160a01b038216600482015260009073__$a5a42e46683ad9c79b7b86d5ff60fdf4c1$__906324d7806c906024015b602060405180830381865af4158015610c46573d6000803e3d6000fd5b505050506040513d601f19601f82011682018060405250810190610a7791906132cb565b336001600160a01b037f00000000000000000000000000000000000000000000000000000000000000001614610cb25760405162461bcd60e51b815260040161084390612fc8565b6000610cbc61219f565b805460ff191691151591909117905560405133907f246589c99dd263c9b64a2b544e24074c282ca479ba3d2a0e649f9eeaca1e2d6290610cfd908490612b70565b60405180910390a250565b604051630935e01b60e21b815233600482015273__$a5a42e46683ad9c79b7b86d5ff60fdf4c1$__906324d7806c90602401602060405180830381865af4158015610d57573d6000803e3d6000fd5b505050506040513d601f19601f82011682018060405250810190610d7b91906132cb565b610d975760405162461bcd60e51b8152600401610843906132e8565b604051632f2ff15d60e01b8152600481018390526001600160a01b038216602482015273__$a5a42e46683ad9c79b7b86d5ff60fdf4c1$__90632f2ff15d906044015b60006040518083038186803b158015610df257600080fd5b505af4158015610e06573d6000803e3d6000fd5b505050505050565b600080610e19612078565b600201546001600160a01b03169050801580610e9d57506040516377b63b9160e11b81526001600160a01b0382169063ef6c772290610e5c90869060040161331d565b602060405180830381865afa158015610e79573d6000803e3d6000fd5b505050506040513d601f19601f82011682018060405250810190610e9d91906132cb565b9392505050565b610a268383836040518060200160405280600081525061170d565b6000610a778261212f565b6000610ed461219f565b546201000090046001600160a01b0316919050565b33610ef2612078565b600101546001600160a01b031614610f1c5760405162461bcd60e51b815260040161084390613245565b6001600160a01b038116610f865760405162461bcd60e51b815260206004820152602b60248201527f4261736541737365743a20636f6e646974696f6e2063616e6e6f74206265207a60448201526a65726f206164647265737360a81b6064820152608401610843565b80610f8f612078565b60020180546001600160a01b0319166001600160a01b0392831617905560405190821681527f74aec62349c3c04102a2d4dba64bd716489a57926996590bb38beffc7fbd40b99060200160405180910390a150565b60006001600160a01b038216611010576040516322718ad960e21b815260006004820152602401610843565b600061101a611f77565b6001600160a01b03909316600090815260039093016020525050604090205490565b604051637df73e2760e01b81526001600160a01b038216600482015260009073__$a5a42e46683ad9c79b7b86d5ff60fdf4c1$__90637df73e2790602401610c29565b600061108961219f565b54610100900460ff16919050565b336001600160a01b037f000000000000000000000000000000000000000000000000000000000000000016146110df5760405162461bcd60e51b815260040161084390612fc8565b6110e761219f565b5460ff16156111475760405162461bcd60e51b815260206004820152602660248201527f52656d6f7661626c65456e746974793a206d757374206465616374697661746560448201526508199a5c9cdd60d21b6064820152608401610843565b600161115161219f565b80549115156101000261ff001990921691909117905560405133907fbf430175840309fcb4cce13557429998477f9f95733cb0d42c170af8aa225d0690610cfd908490612b70565b60006111a361219f565b5460ff16919050565b604051630935e01b60e21b815233600482015273__$a5a42e46683ad9c79b7b86d5ff60fdf4c1$__906324d7806c90602401602060405180830381865af41580156111fb573d6000803e3d6000fd5b505050506040513d601f19601f8201168201806040525081019061121f91906132cb565b61123b5760405162461bcd60e51b8152600401610843906132e8565b604051638d361e4360e01b815273__$a5a42e46683ad9c79b7b86d5ff60fdf4c1$__90638d361e4390610dda9085908590600401613364565b600073__$a5a42e46683ad9c79b7b86d5ff60fdf4c1$__638da5cb5b6040518163ffffffff1660e01b8152600401602060405180830381865af41580156112bf573d6000803e3d6000fd5b505050506040513d601f19601f820116820180604052508101906112e391906133b2565b905090565b604051632474521560e21b8152600481018390526001600160a01b038216602482015260009073__$a5a42e46683ad9c79b7b86d5ff60fdf4c1$__906391d1485490604401602060405180830381865af4158015610e79573d6000803e3d6000fd5b6060611354612078565b6004018054610b0990613103565b61136a612204565b33611373612078565b600101546001600160a01b03161461139d5760405162461bcd60e51b815260040161084390613245565b60006113ab82840184612b83565b90506001600160a01b03841661140f5760405162461bcd60e51b815260206004820152602360248201527f4e5445524337323141737365743a20746f6b656e20646f6573206e6f742065786044820152621a5cdd60ea1b6064820152608401610843565b600061141a8261212f565b9050846001600160a01b0316816001600160a01b0316146114975760405162461bcd60e51b815260206004820152603160248201527f4e5445524337323141737365743a206e6f7420746865206f776e6572206f66206044820152701d1bdad95b881a59081c1c9bdd9a591959607a1b6064820152608401610843565b6114a08261222e565b60405163c3c5a54760e01b81526001600160a01b0386811660048301527f0000000000000000000000000000000000000000000000000000000000000000169063c3c5a54790602401602060405180830381865afa158015611506573d6000803e3d6000fd5b505050506040513d601f19601f8201168201806040525081019061152a91906132cb565b1561158a5760405163e62194f160e01b8152600481018390526001600160a01b0386169063e62194f190602401600060405180830381600087803b15801561157157600080fd5b505af1158015611585573d6000803e3d6000fd5b505050505b5050610a266001600055565b60006001600160a01b0384166115fe5760405162461bcd60e51b815260206004820152602760248201527f4e5445524337323141737365743a206d696e7420746f20746865207a65726f206044820152666164647265737360c81b6064820152608401610843565b60405163c3c5a54760e01b81526001600160a01b0385811660048301527f0000000000000000000000000000000000000000000000000000000000000000169063c3c5a54790602401602060405180830381865afa158015611664573d6000803e3d6000fd5b505050506040513d601f19601f8201168201806040525081019061168891906132cb565b15611703576000849050806001600160a01b031663181d939b6040518163ffffffff1660e01b8152600401602060405180830381865afa1580156116d0573d6000803e3d6000fd5b505050506040513d601f19601f820116820180604052508101906116f491906132cb565b611701576117018561226d565b505b5060019392505050565b60405162461bcd60e51b815260040161084390613288565b336001600160a01b031673__$a5a42e46683ad9c79b7b86d5ff60fdf4c1$__638da5cb5b6040518163ffffffff1660e01b8152600401602060405180830381865af4158015611778573d6000803e3d6000fd5b505050506040513d601f19601f8201168201806040525081019061179c91906133b2565b6001600160a01b0316146117f25760405162461bcd60e51b815260206004820152601f60248201527f426173654163636573733a207265737472696374656420746f206f776e6572006044820152606401610843565b6040516313af403560e01b81526001600160a01b038216600482015273__$a5a42e46683ad9c79b7b86d5ff60fdf4c1$__906313af40359060240160006040518083038186803b15801561184557600080fd5b505af4158015611859573d6000803e3d6000fd5b5050505050565b60008061186b612078565b600201546001600160a01b03169050801580610e9d575060405163eab4ad0360e01b81526001600160a01b0382169063eab4ad0390610e5c90869060040161331d565b6118b6612204565b336118bf612078565b600101546001600160a01b0316146118e95760405162461bcd60e51b815260040161084390613245565b6118f4838383611596565b61194e5760405162461bcd60e51b815260206004820152602560248201527f4e5445524337323141737365743a2063616e6e6f74206d696e7420746f206164604482015264647265737360d81b6064820152608401610843565b6000611958611f77565b9050806001016000815461196b906133e5565b90915550600181015461158a858261243b565b60606119898261212f565b506000611994612455565b905060008151116119b45760405180602001604052806000815250610e9d565b806119be8461245f565b6040516020016119cf9291906133fe565b6040516020818303038152906040529392505050565b336001600160a01b037f00000000000000000000000000000000000000000000000000000000000000001614611a2d5760405162461bcd60e51b815260040161084390612fc8565b6001611a3761219f565b805460ff191691151591909117905560405133907f54ca6a4cb143be493713a7079cc0d6cdbbf0688ee68398b4354b056088f2cbf590600090a2565b604051630935e01b60e21b815233600482015273__$a5a42e46683ad9c79b7b86d5ff60fdf4c1$__906324d7806c90602401602060405180830381865af4158015611ac2573d6000803e3d6000fd5b505050506040513d601f19601f82011682018060405250810190611ae691906132cb565b611b025760405162461bcd60e51b8152600401610843906132e8565b60405163d547741f60e01b8152600481018390526001600160a01b038216602482015273__$a5a42e46683ad9c79b7b86d5ff60fdf4c1$__9063d547741f90604401610dda565b6000610ed4612078565b604051630935e01b60e21b815233600482015273__$a5a42e46683ad9c79b7b86d5ff60fdf4c1$__906324d7806c90602401602060405180830381865af4158015611ba2573d6000803e3d6000fd5b505050506040513d601f19601f82011682018060405250810190611bc691906132cb565b611be25760405162461bcd60e51b8152600401610843906132e8565b60405163e8906a2d60e01b815273__$a5a42e46683ad9c79b7b86d5ff60fdf4c1$__9063e8906a2d90610dda9085908590600401613364565b6000611c25611f77565b6001600160a01b039384166000908152600591909101602090815260408083209490951682529290925250205460ff1690565b6000611c62612078565b60018101549091506001600160a01b031615611cca5760405162461bcd60e51b815260206004820152602160248201527f4e54455243323041737365743a20616c726561647920696e697469616c697a656044820152601960fa1b6064820152608401610843565b60408201516001600160a01b0316611d385760405162461bcd60e51b815260206004820152602b60248201527f4e54455243323041737365743a206973737565722063616e6e6f74206265207a60448201526a65726f206164647265737360a81b6064820152608401610843565b815151611d925760405162461bcd60e51b815260206004820152602260248201527f4e54455243323041737365743a206e616d652063616e6e6f7420626520656d70604482015261747960f01b6064820152608401610843565b600082602001515111611df35760405162461bcd60e51b8152602060048201526024808201527f4e54455243323041737365743a2073796d626f6c2063616e6e6f7420626520656044820152636d70747960e01b6064820152608401610843565b60608201516001600160a01b0316611e695760405162461bcd60e51b815260206004820152603360248201527f4e54455243323041737365743a206f726967696e20616464726573732063616e6044820152726e6f74206265207a65726f206164647265737360681b6064820152608401610843565b6000826080015111611ee35760405162461bcd60e51b815260206004820152603760248201527f4e54455243323041737365743a206f726967696e20636861696e206964206d7560448201527f73742062652067726561746572207468616e207a65726f0000000000000000006064820152608401610843565b8151611eed6120d3565b90611ef89082613185565b5060408201516001820180546001600160a01b0319166001600160a01b039283161790556060830151825462010000600160b01b0319166201000091909216021781556080820151600382015560208201516004820190611f599082613185565b506001611f6461219f565b805460ff19169115159190911790555050565b60408051808201909152601a81527f78722e6572633732312e61737365742e73746f726167652e763100000000000060209091015260008060ff611fdc60017f60ff308ff8f840802008c7c997a35cbef97f56188316b0b2b2dbc99e530b505f61342d565b604051602001611fee91815260200190565b60408051601f1981840301815291905280516020909101201692915050565b60008151835110158015610e9d57508160008151811061202f5761202f613440565b0160200151825184516001600160f81b03199092169185916120509161342d565b8151811061206057612060613440565b01602001516001600160f81b03191614905092915050565b60408051808201909152601381527278722e61737365742e73746f726167652e763160681b60209091015260008060ff611fdc60017f0db46b7c34197dfe4fa603e9c17ca5ed137d4afe720a374e843bbcf1431eaeb761342d565b60408051808201909152601481527378722e656e746974792e73746f726167652e763160601b60209091015260008060ff611fdc60017fdefc82a28b6578c2a63b29b15450260a5e998242a6300b7fcb30814ee74ae18861342d565b60008061213a611f77565b60008481526002820160205260409020549091506001600160a01b031680610e9d57604051637e27328960e01b815260048101859052602401610843565b6000612182611f77565b60009283526004016020525060409020546001600160a01b031690565b60408051808201909152601881527f78722e61637469766174696f6e2e73746f726167652e7631000000000000000060209091015260008060ff611fdc60017ff6611e962a52dbc98dd0485088d920890c43e26113c61976f6e171a29d49ce4961342d565b60026000540361222757604051633ee5aeb560e01b815260040160405180910390fd5b6002600055565b600061223d60008360006124f2565b90506001600160a01b03811661226957604051637e27328960e01b815260048101839052602401610843565b5050565b6000816001600160a01b031663516f279e6040518163ffffffff1660e01b8152600401602060405180830381865afa1580156122ad573d6000803e3d6000fd5b505050506040513d601f19601f820116820180604052508101906122d191906133b2565b90506001600160a01b0381166123335760405162461bcd60e51b815260206004820152602160248201527f4261736541737365743a2061766174617220686173206e6f206c6f636174696f6044820152603760f91b6064820152608401610843565b8061233c612078565b6001015460408051636904c94d60e01b815290516001600160a01b0392831692841691636904c94d9160048083019260209291908290030181865afa158015612389573d6000803e3d6000fd5b505050506040513d601f19601f820116820180604052508101906123ad91906133b2565b6001600160a01b031614610a265760405162461bcd60e51b815260206004820152604960248201527f4261736541737365743a2061766174617220646f6573206e6f7420616c6c6f7760448201527f20617373657473206f757473696465206f66206974732063757272656e7420656064820152687870657269656e636560b81b608482015260a401610843565b6122698282604051806020016040528060008152506125f9565b6060610afe611f77565b6060600061246c83612610565b600101905060008167ffffffffffffffff81111561248c5761248c612c3b565b6040519080825280601f01601f1916602001820160405280156124b6576020820181803683370190505b5090508181016020015b600019016f181899199a1a9b1b9c1cb0b131b232b360811b600a86061a8153600a85049450846124c057509392505050565b6000806124fe846126e8565b9050600061250a611f77565b90506001600160a01b038416156125265761252682858761270f565b6001600160a01b0382161561256657612543600086600080612773565b6001600160a01b0382166000908152600382016020526040902080546000190190555b6001600160a01b03861615612597576001600160a01b03861660009081526003820160205260409020805460010190555b600085815260028201602052604080822080546001600160a01b0319166001600160a01b038a811691821790925591518893918616917fddf252ad1be2c89b69c2b068fc378daa952ba7f163c4a11628f55a4df523b3ef91a450949350505050565b6126038383612887565b610a266000848484612927565b60008072184f03e93ff9f4daa797ed6e38ed64bf6a1f0160401b831061264f5772184f03e93ff9f4daa797ed6e38ed64bf6a1f0160401b830492506040015b6d04ee2d6d415b85acef8100000000831061267b576d04ee2d6d415b85acef8100000000830492506020015b662386f26fc10000831061269957662386f26fc10000830492506010015b6305f5e10083106126b1576305f5e100830492506008015b61271083106126c557612710830492506004015b606483106126d7576064830492506002015b600a8310610a775760010192915050565b60006126f2611f77565b60009283526002016020525060409020546001600160a01b031690565b61271a838383612a49565b610a26576001600160a01b03831661274857604051637e27328960e01b815260048101829052602401610843565b60405163177e802f60e01b81526001600160a01b038316600482015260248101829052604401610843565b808061278757506001600160a01b03821615155b156128495760006127978461212f565b90506001600160a01b038316158015906127c35750826001600160a01b0316816001600160a01b031614155b80156127d657506127d48184611c1b565b155b156127ff5760405163a9fbf51f60e01b81526001600160a01b0384166004820152602401610843565b81156128475783856001600160a01b0316826001600160a01b03167f8c5be1e5ebec7d5bd14f71427d1e84f3dd0314c0f7b2291e5b200ac8c7c3b92560405160405180910390a45b505b6000612853611f77565b60009485526004016020525050604090912080546001600160a01b0319166001600160a01b03939093169290921790915550565b6001600160a01b0382166128b157604051633250574960e11b815260006004820152602401610843565b60006128bf838360006124f2565b90506001600160a01b038116156128ec576040516339e3563760e11b815260006004820152602401610843565b60405182906001600160a01b038516907f1292a1381d69fd0f033102672143fff68d426b4b73eb1fa4df2620aeed9a299490600090a3505050565b6001600160a01b0383163b15610a1257604051630a85bd0160e11b81526001600160a01b0384169063150b7a0290612969903390889087908790600401613456565b6020604051808303816000875af19250505080156129a4575060408051601f3d908101601f191682019092526129a191810190613493565b60015b612a0d573d8080156129d2576040519150601f19603f3d011682016040523d82523d6000602084013e6129d7565b606091505b508051600003612a0557604051633250574960e11b81526001600160a01b0385166004820152602401610843565b805181602001fd5b6001600160e01b03198116630a85bd0160e11b1461185957604051633250574960e11b81526001600160a01b0385166004820152602401610843565b60006001600160a01b03831615801590612aa75750826001600160a01b0316846001600160a01b03161480612a835750612a838484611c1b565b80612aa75750826001600160a01b0316612a9c83612178565b6001600160a01b0316145b949350505050565b600060208284031215612ac157600080fd5b813567ffffffffffffffff811115612ad857600080fd5b820160c08185031215610e9d57600080fd5b6001600160e01b031981168114612b0057600080fd5b50565b600060208284031215612b1557600080fd5b8135610e9d81612aea565b60005b83811015612b3b578181015183820152602001612b23565b50506000910152565b60008151808452612b5c816020860160208601612b20565b601f01601f19169290920160200192915050565b602081526000610e9d6020830184612b44565b600060208284031215612b9557600080fd5b5035919050565b6001600160a01b0381168114612b0057600080fd5b60008060408385031215612bc457600080fd5b8235612bcf81612b9c565b946020939093013593505050565b600080600060608486031215612bf257600080fd5b8335612bfd81612b9c565b92506020840135612c0d81612b9c565b929592945050506040919091013590565b600060208284031215612c3057600080fd5b8135610e9d81612b9c565b634e487b7160e01b600052604160045260246000fd5b600067ffffffffffffffff80841115612c6c57612c6c612c3b565b604051601f8501601f19908116603f01168101908282118183101715612c9457612c94612c3b565b81604052809350858152868686011115612cad57600080fd5b858560208301376000602087830101525050509392505050565b600082601f830112612cd857600080fd5b610e9d83833560208501612c51565b600060208284031215612cf957600080fd5b813567ffffffffffffffff811115612d1057600080fd5b612aa784828501612cc7565b60008060408385031215612d2f57600080fd5b823591506020830135612d4181612b9c565b809150509250929050565b600060a08284031215612d5e57600080fd5b60405160a0810181811067ffffffffffffffff82111715612d8157612d81612c3b565b6040528235612d8f81612b9c565b81526020830135612d9f81612b9c565b60208201526040830135612db281612b9c565b60408201526060830135612dc581612b9c565b60608201526080830135612dd881612b9c565b60808201529392505050565b60008060208385031215612df757600080fd5b823567ffffffffffffffff80821115612e0f57600080fd5b818501915085601f830112612e2357600080fd5b813581811115612e3257600080fd5b8660208260051b8501011115612e4757600080fd5b60209290920196919550909350505050565b600080600060408486031215612e6e57600080fd5b8335612e7981612b9c565b9250602084013567ffffffffffffffff80821115612e9657600080fd5b818601915086601f830112612eaa57600080fd5b813581811115612eb957600080fd5b876020828501011115612ecb57600080fd5b6020830194508093505050509250925092565b8015158114612b0057600080fd5b60008060408385031215612eff57600080fd5b8235612f0a81612b9c565b91506020830135612d4181612ede565b60008060008060808587031215612f3057600080fd5b8435612f3b81612b9c565b93506020850135612f4b81612b9c565b925060408501359150606085013567ffffffffffffffff811115612f6e57600080fd5b8501601f81018713612f7f57600080fd5b612f8e87823560208401612c51565b91505092959194509250565b60008060408385031215612fad57600080fd5b8235612fb881612b9c565b91506020830135612d4181612b9c565b60208082526025908201527f52656d6f7661626c65456e746974793a206f6e6c79206f776e696e6720726567604082015264697374727960d81b606082015260800190565b6000808335601e1984360301811261302457600080fd5b83018035915067ffffffffffffffff82111561303f57600080fd5b60200191503681900382131561305457600080fd5b9250929050565b60006020828403121561306d57600080fd5b813567ffffffffffffffff8082111561308557600080fd5b908301906020828603121561309957600080fd5b6040516020810181811083821117156130b4576130b4612c3b565b6040528235828111156130c657600080fd5b6130d287828601612cc7565b82525095945050505050565b600082516130f0818460208701612b20565b602f60f81b920191825250600101919050565b600181811c9082168061311757607f821691505b60208210810361313757634e487b7160e01b600052602260045260246000fd5b50919050565b601f821115610a26576000816000526020600020601f850160051c810160208610156131665750805b601f850160051c820191505b81811015610e0657828155600101613172565b815167ffffffffffffffff81111561319f5761319f612c3b565b6131b3816131ad8454613103565b8461313d565b602080601f8311600181146131e857600084156131d05750858301515b600019600386901b1c1916600185901b178555610e06565b600085815260208120601f198616915b82811015613217578886015182559484019460019091019084016131f8565b50858210156132355787850151600019600388901b60f8161c191681555b5050505050600190811b01905550565b60208082526023908201527f4261736541737365743a2063616c6c6572206973206e6f7420746865206973736040820152623ab2b960e91b606082015260800190565b60208082526023908201527f4e544552433732313a20746f6b656e206973206e6f6e2d7472616e7366657261604082015262626c6560e81b606082015260800190565b6000602082840312156132dd57600080fd5b8151610e9d81612ede565b6020808252818101527f426173654163636573733a207265737472696374656420746f2061646d696e73604082015260600190565b81516001600160a01b039081168252602080840151821690830152604080840151821690830152606080840151821690830152608092830151169181019190915260a00190565b60208082528181018390526000908460408401835b868110156133a757823561338c81612b9c565b6001600160a01b031682529183019190830190600101613379565b509695505050505050565b6000602082840312156133c457600080fd5b8151610e9d81612b9c565b634e487b7160e01b600052601160045260246000fd5b6000600182016133f7576133f76133cf565b5060010190565b60008351613410818460208801612b20565b835190830190613424818360208801612b20565b01949350505050565b81810381811115610a7757610a776133cf565b634e487b7160e01b600052603260045260246000fd5b6001600160a01b038581168252841660208201526040810183905260806060820181905260009061348990830184612b44565b9695505050505050565b6000602082840312156134a557600080fd5b8151610e9d81612aea56fea2646970667358221220437db7d7226c692adbca1f4fe8da8e9d1994a45cf319f0b20d754534f1831ebc64736f6c63430008180033",
  "linkReferences": {
    "contracts/libraries/LibAccess.sol": {
      "LibAccess": [
        {
          "length": 20,
          "start": 3776
        },
        {
          "length": 20,
          "start": 4050
        },
        {
          "length": 20,
          "start": 4209
        },
        {
          "length": 20,
          "start": 4882
        },
        {
          "length": 20,
          "start": 5238
        },
        {
          "length": 20,
          "start": 5375
        },
        {
          "length": 20,
          "start": 5421
        },
        {
          "length": 20,
          "start": 5573
        },
        {
          "length": 20,
          "start": 6630
        },
        {
          "length": 20,
          "start": 6853
        },
        {
          "length": 20,
          "start": 7485
        },
        {
          "length": 20,
          "start": 7644
        },
        {
          "length": 20,
          "start": 7709
        },
        {
          "length": 20,
          "start": 7846
        }
      ]
    }
  },
  "deployedLinkReferences": {
    "contracts/libraries/LibAccess.sol": {
      "LibAccess": [
        {
          "length": 20,
          "start": 3083
        },
        {
          "length": 20,
          "start": 3357
        },
        {
          "length": 20,
          "start": 3516
        },
        {
          "length": 20,
          "start": 4189
        },
        {
          "length": 20,
          "start": 4545
        },
        {
          "length": 20,
          "start": 4682
        },
        {
          "length": 20,
          "start": 4728
        },
        {
          "length": 20,
          "start": 4880
        },
        {
          "length": 20,
          "start": 5937
        },
        {
          "length": 20,
          "start": 6160
        },
        {
          "length": 20,
          "start": 6792
        },
        {
          "length": 20,
          "start": 6951
        },
        {
          "length": 20,
          "start": 7016
        },
        {
          "length": 20,
          "start": 7153
        }
      ]
    }
  }
}