{
  "_format": "hh-sol-artifact-1",
  "contractName": "NTERC20Asset",
  "sourceName": "contracts/asset/erc20/NTERC20Asset.sol",
  "abi": [
    {
      "inputs": [
        {
          "components": [
            {
              "internalType": "address",
              "name": "assetFactory",
              "type": "address"
            },
            {
              "internalType": "address",
              "name": "assetRegistry",
              "type": "address"
            },
            {
              "internalType": "address",
              "name": "avatarRegistry",
              "type": "address"
            },
            {
              "internalType": "address",
              "name": "companyRegistry",
              "type": "address"
            }
          ],
          "internalType": "struct BaseAssetArgs",
          "name": "args",
          "type": "tuple"
        }
      ],
      "stateMutability": "nonpayable",
      "type": "constructor"
    },
    {
      "inputs": [
        {
          "internalType": "address",
          "name": "spender",
          "type": "address"
        },
        {
          "internalType": "uint256",
          "name": "allowance",
          "type": "uint256"
        },
        {
          "internalType": "uint256",
          "name": "needed",
          "type": "uint256"
        }
      ],
      "name": "ERC20InsufficientAllowance",
      "type": "error"
    },
    {
      "inputs": [
        {
          "internalType": "address",
          "name": "sender",
          "type": "address"
        },
        {
          "internalType": "uint256",
          "name": "balance",
          "type": "uint256"
        },
        {
          "internalType": "uint256",
          "name": "needed",
          "type": "uint256"
        }
      ],
      "name": "ERC20InsufficientBalance",
      "type": "error"
    },
    {
      "inputs": [
        {
          "internalType": "address",
          "name": "approver",
          "type": "address"
        }
      ],
      "name": "ERC20InvalidApprover",
      "type": "error"
    },
    {
      "inputs": [
        {
          "internalType": "address",
          "name": "receiver",
          "type": "address"
        }
      ],
      "name": "ERC20InvalidReceiver",
      "type": "error"
    },
    {
      "inputs": [
        {
          "internalType": "address",
          "name": "sender",
          "type": "address"
        }
      ],
      "name": "ERC20InvalidSender",
      "type": "error"
    },
    {
      "inputs": [
        {
          "internalType": "address",
          "name": "spender",
          "type": "address"
        }
      ],
      "name": "ERC20InvalidSpender",
      "type": "error"
    },
    {
      "inputs": [],
      "name": "ReentrancyGuardReentrantCall",
      "type": "error"
    },
    {
      "anonymous": false,
      "inputs": [
        {
          "indexed": true,
          "internalType": "address",
          "name": "owner",
          "type": "address"
        },
        {
          "indexed": true,
          "internalType": "address",
          "name": "spender",
          "type": "address"
        },
        {
          "indexed": false,
          "internalType": "uint256",
          "name": "value",
          "type": "uint256"
        }
      ],
      "name": "Approval",
      "type": "event"
    },
    {
      "anonymous": false,
      "inputs": [
        {
          "indexed": true,
          "internalType": "address",
          "name": "condition",
          "type": "address"
        }
      ],
      "name": "AssetConditionAdded",
      "type": "event"
    },
    {
      "anonymous": false,
      "inputs": [
        {
          "indexed": true,
          "internalType": "address",
          "name": "condition",
          "type": "address"
        }
      ],
      "name": "AssetConditionRemoved",
      "type": "event"
    },
    {
      "anonymous": false,
      "inputs": [
        {
          "indexed": true,
          "internalType": "address",
          "name": "hook",
          "type": "address"
        }
      ],
      "name": "AssetHookAdded",
      "type": "event"
    },
    {
      "anonymous": false,
      "inputs": [
        {
          "indexed": true,
          "internalType": "address",
          "name": "hook",
          "type": "address"
        }
      ],
      "name": "AssetHookRemoved",
      "type": "event"
    },
    {
      "anonymous": false,
      "inputs": [
        {
          "indexed": true,
          "internalType": "address",
          "name": "to",
          "type": "address"
        },
        {
          "indexed": false,
          "internalType": "uint256",
          "name": "amt",
          "type": "uint256"
        }
      ],
      "name": "ERC20Minted",
      "type": "event"
    },
    {
      "anonymous": false,
      "inputs": [
        {
          "indexed": true,
          "internalType": "address",
          "name": "oldAsset",
          "type": "address"
        },
        {
          "indexed": false,
          "internalType": "address",
          "name": "newAsset",
          "type": "address"
        }
      ],
      "name": "ERC20Upgraded",
      "type": "event"
    },
    {
      "anonymous": false,
      "inputs": [
        {
          "indexed": true,
          "internalType": "address",
          "name": "from",
          "type": "address"
        },
        {
          "indexed": true,
          "internalType": "address",
          "name": "to",
          "type": "address"
        },
        {
          "indexed": false,
          "internalType": "uint256",
          "name": "value",
          "type": "uint256"
        }
      ],
      "name": "Transfer",
      "type": "event"
    },
    {
      "inputs": [
        {
          "internalType": "contract IAssetCondition",
          "name": "condition",
          "type": "address"
        }
      ],
      "name": "addCondition",
      "outputs": [],
      "stateMutability": "nonpayable",
      "type": "function"
    },
    {
      "inputs": [
        {
          "internalType": "contract IAssetHook",
          "name": "_hook",
          "type": "address"
        }
      ],
      "name": "addHook",
      "outputs": [],
      "stateMutability": "nonpayable",
      "type": "function"
    },
    {
      "inputs": [
        {
          "internalType": "address",
          "name": "owner",
          "type": "address"
        },
        {
          "internalType": "address",
          "name": "spender",
          "type": "address"
        }
      ],
      "name": "allowance",
      "outputs": [
        {
          "internalType": "uint256",
          "name": "",
          "type": "uint256"
        }
      ],
      "stateMutability": "view",
      "type": "function"
    },
    {
      "inputs": [
        {
          "internalType": "address",
          "name": "",
          "type": "address"
        },
        {
          "internalType": "uint256",
          "name": "",
          "type": "uint256"
        }
      ],
      "name": "approve",
      "outputs": [
        {
          "internalType": "bool",
          "name": "",
          "type": "bool"
        }
      ],
      "stateMutability": "nonpayable",
      "type": "function"
    },
    {
      "inputs": [],
      "name": "assetFactory",
      "outputs": [
        {
          "internalType": "address",
          "name": "",
          "type": "address"
        }
      ],
      "stateMutability": "view",
      "type": "function"
    },
    {
      "inputs": [],
      "name": "assetRegistry",
      "outputs": [
        {
          "internalType": "address",
          "name": "",
          "type": "address"
        }
      ],
      "stateMutability": "view",
      "type": "function"
    },
    {
      "inputs": [],
      "name": "avatarRegistry",
      "outputs": [
        {
          "internalType": "contract IAvatarRegistry",
          "name": "",
          "type": "address"
        }
      ],
      "stateMutability": "view",
      "type": "function"
    },
    {
      "inputs": [
        {
          "internalType": "address",
          "name": "account",
          "type": "address"
        }
      ],
      "name": "balanceOf",
      "outputs": [
        {
          "internalType": "uint256",
          "name": "",
          "type": "uint256"
        }
      ],
      "stateMutability": "view",
      "type": "function"
    },
    {
      "inputs": [
        {
          "internalType": "address",
          "name": "to",
          "type": "address"
        },
        {
          "internalType": "bytes",
          "name": "data",
          "type": "bytes"
        }
      ],
      "name": "canMint",
      "outputs": [
        {
          "internalType": "bool",
          "name": "",
          "type": "bool"
        }
      ],
      "stateMutability": "view",
      "type": "function"
    },
    {
      "inputs": [
        {
          "components": [
            {
              "internalType": "address",
              "name": "asset",
              "type": "address"
            },
            {
              "internalType": "address",
              "name": "world",
              "type": "address"
            },
            {
              "internalType": "address",
              "name": "company",
              "type": "address"
            },
            {
              "internalType": "address",
              "name": "experience",
              "type": "address"
            },
            {
              "internalType": "address",
              "name": "avatar",
              "type": "address"
            }
          ],
          "internalType": "struct AssetCheckArgs",
          "name": "args",
          "type": "tuple"
        }
      ],
      "name": "canUseAsset",
      "outputs": [
        {
          "internalType": "bool",
          "name": "",
          "type": "bool"
        }
      ],
      "stateMutability": "view",
      "type": "function"
    },
    {
      "inputs": [
        {
          "components": [
            {
              "internalType": "address",
              "name": "asset",
              "type": "address"
            },
            {
              "internalType": "address",
              "name": "world",
              "type": "address"
            },
            {
              "internalType": "address",
              "name": "company",
              "type": "address"
            },
            {
              "internalType": "address",
              "name": "experience",
              "type": "address"
            },
            {
              "internalType": "address",
              "name": "avatar",
              "type": "address"
            }
          ],
          "internalType": "struct AssetCheckArgs",
          "name": "args",
          "type": "tuple"
        }
      ],
      "name": "canViewAsset",
      "outputs": [
        {
          "internalType": "bool",
          "name": "",
          "type": "bool"
        }
      ],
      "stateMutability": "view",
      "type": "function"
    },
    {
      "inputs": [],
      "name": "companyRegistry",
      "outputs": [
        {
          "internalType": "contract ICompanyRegistry",
          "name": "",
          "type": "address"
        }
      ],
      "stateMutability": "view",
      "type": "function"
    },
    {
      "inputs": [],
      "name": "decimals",
      "outputs": [
        {
          "internalType": "uint8",
          "name": "",
          "type": "uint8"
        }
      ],
      "stateMutability": "view",
      "type": "function"
    },
    {
      "inputs": [
        {
          "components": [
            {
              "internalType": "address",
              "name": "originChainAddress",
              "type": "address"
            },
            {
              "internalType": "address",
              "name": "issuer",
              "type": "address"
            },
            {
              "internalType": "uint8",
              "name": "decimals",
              "type": "uint8"
            },
            {
              "internalType": "uint256",
              "name": "originChainId",
              "type": "uint256"
            },
            {
              "internalType": "uint256",
              "name": "maxSupply",
              "type": "uint256"
            },
            {
              "internalType": "string",
              "name": "name",
              "type": "string"
            },
            {
              "internalType": "string",
              "name": "symbol",
              "type": "string"
            }
          ],
          "internalType": "struct ERC20InitData",
          "name": "data",
          "type": "tuple"
        }
      ],
      "name": "encodeInitData",
      "outputs": [
        {
          "internalType": "bytes",
          "name": "",
          "type": "bytes"
        }
      ],
      "stateMutability": "pure",
      "type": "function"
    },
    {
      "inputs": [],
      "name": "hook",
      "outputs": [
        {
          "internalType": "contract IAssetHook",
          "name": "",
          "type": "address"
        }
      ],
      "stateMutability": "view",
      "type": "function"
    },
    {
      "inputs": [
        {
          "internalType": "bytes",
          "name": "initData",
          "type": "bytes"
        }
      ],
      "name": "init",
      "outputs": [],
      "stateMutability": "nonpayable",
      "type": "function"
    },
    {
      "inputs": [],
      "name": "issuer",
      "outputs": [
        {
          "internalType": "address",
          "name": "",
          "type": "address"
        }
      ],
      "stateMutability": "view",
      "type": "function"
    },
    {
      "inputs": [
        {
          "internalType": "address",
          "name": "to",
          "type": "address"
        },
        {
          "internalType": "bytes",
          "name": "data",
          "type": "bytes"
        }
      ],
      "name": "mint",
      "outputs": [],
      "stateMutability": "nonpayable",
      "type": "function"
    },
    {
      "inputs": [],
      "name": "name",
      "outputs": [
        {
          "internalType": "string",
          "name": "",
          "type": "string"
        }
      ],
      "stateMutability": "view",
      "type": "function"
    },
    {
      "inputs": [],
      "name": "originAddress",
      "outputs": [
        {
          "internalType": "address",
          "name": "",
          "type": "address"
        }
      ],
      "stateMutability": "view",
      "type": "function"
    },
    {
      "inputs": [],
      "name": "originChainId",
      "outputs": [
        {
          "internalType": "uint256",
          "name": "",
          "type": "uint256"
        }
      ],
      "stateMutability": "view",
      "type": "function"
    },
    {
      "inputs": [],
      "name": "removeCondition",
      "outputs": [],
      "stateMutability": "nonpayable",
      "type": "function"
    },
    {
      "inputs": [],
      "name": "removeHook",
      "outputs": [],
      "stateMutability": "nonpayable",
      "type": "function"
    },
    {
      "inputs": [
        {
          "internalType": "address",
          "name": "tgt",
          "type": "address"
        },
        {
          "internalType": "bytes",
          "name": "data",
          "type": "bytes"
        }
      ],
      "name": "revoke",
      "outputs": [],
      "stateMutability": "nonpayable",
      "type": "function"
    },
    {
      "inputs": [],
      "name": "symbol",
      "outputs": [
        {
          "internalType": "string",
          "name": "",
          "type": "string"
        }
      ],
      "stateMutability": "view",
      "type": "function"
    },
    {
      "inputs": [],
      "name": "totalSupply",
      "outputs": [
        {
          "internalType": "uint256",
          "name": "",
          "type": "uint256"
        }
      ],
      "stateMutability": "view",
      "type": "function"
    },
    {
      "inputs": [
        {
          "internalType": "address",
          "name": "",
          "type": "address"
        },
        {
          "internalType": "uint256",
          "name": "",
          "type": "uint256"
        }
      ],
      "name": "transfer",
      "outputs": [
        {
          "internalType": "bool",
          "name": "",
          "type": "bool"
        }
      ],
      "stateMutability": "nonpayable",
      "type": "function"
    },
    {
      "inputs": [
        {
          "internalType": "address",
          "name": "",
          "type": "address"
        },
        {
          "internalType": "address",
          "name": "",
          "type": "address"
        },
        {
          "internalType": "uint256",
          "name": "",
          "type": "uint256"
        }
      ],
      "name": "transferFrom",
      "outputs": [
        {
          "internalType": "bool",
          "name": "",
          "type": "bool"
        }
      ],
      "stateMutability": "nonpayable",
      "type": "function"
    },
    {
      "inputs": [
        {
          "internalType": "bytes",
          "name": "initData",
          "type": "bytes"
        }
      ],
      "name": "upgrade",
      "outputs": [
        {
          "internalType": "address",
          "name": "",
          "type": "address"
        }
      ],
      "stateMutability": "nonpayable",
      "type": "function"
    },
    {
      "inputs": [
        {
          "internalType": "address",
          "name": "newAsset",
          "type": "address"
        }
      ],
      "name": "upgradeComplete",
      "outputs": [],
      "stateMutability": "nonpayable",
      "type": "function"
    },
    {
      "inputs": [],
      "name": "version",
      "outputs": [
        {
          "internalType": "uint256",
          "name": "",
          "type": "uint256"
        }
      ],
      "stateMutability": "view",
      "type": "function"
    }
  ],
  "bytecode": "0x610100604052600180553480156200001657600080fd5b5060405162002a4438038062002a44833981016040819052620000399162000259565b6001600055805181906001600160a01b0316620000b15760405162461bcd60e51b815260206004820152602b60248201527f4261736541737365743a206173736574466163746f727920697320746865207a60448201526a65726f206164647265737360a81b60648201526084015b60405180910390fd5b60208101516001600160a01b0316620001225760405162461bcd60e51b815260206004820152602c60248201527f4261736541737365743a2061737365745265676973747279206973207468652060448201526b7a65726f206164647265737360a01b6064820152608401620000a8565b60408101516001600160a01b0316620001945760405162461bcd60e51b815260206004820152602d60248201527f4261736541737365743a2061766174617252656769737472792069732074686560448201526c207a65726f206164647265737360981b6064820152608401620000a8565b60608101516001600160a01b0316620002075760405162461bcd60e51b815260206004820152602e60248201527f4261736541737365743a20636f6d70616e79526567697374727920697320746860448201526d65207a65726f206164647265737360901b6064820152608401620000a8565b80516001600160a01b039081166080526020820151811660a0526040820151811660c0526060909101511660e05250620002ed565b80516001600160a01b03811681146200025457600080fd5b919050565b6000608082840312156200026c57600080fd5b604051608081016001600160401b03811182821017156200029d57634e487b7160e01b600052604160045260246000fd5b604052620002ab836200023c565b8152620002bb602084016200023c565b6020820152620002ce604084016200023c565b6040820152620002e1606084016200023c565b60608201529392505050565b60805160a05160c05160e0516126fa6200034a600039600081816104250152610c840152600081816104a4015261186601526000818161037d01526108270152600081816103fe015281816108b50152610b6c01526126fa6000f3fe608060405234801561001057600080fd5b50600436106101e55760003560e01c80635e7a90051161010f578063a9059cbb116100a2578063c51aba2b11610071578063c51aba2b14610420578063dd62ed3e14610447578063e3d7ad731461049f578063e517fedd146104c657600080fd5b8063a9059cbb146103c5578063b4e75b9b146103d3578063b510391f146103e6578063c3acb4d1146103f957600080fd5b806395d89b41116100de57806395d89b4114610370578063979d7e86146103785780639a9738441461039f5780639e54c0a2146103b257600080fd5b80635e7a90051461032f57806370a08231146103425780637b4e04e8146103555780637f5a7c7b1461036857600080fd5b806323b872dd11610187578063378f17ff11610156578063378f17ff146102f85780633fa47f17146103005780634ddf47d41461031357806354fd4d501461032657600080fd5b806323b872dd146102a557806325394645146102b85780632663d1f7146102cb578063313ce567146102de57600080fd5b80630ac7f561116101c35780630ac7f5611461023557806318160ddd1461024b5780631d1438481461027257806322d349321461029257600080fd5b8063021665b7146101ea57806306fdde03146101f4578063095ea7b314610212575b600080fd5b6101f26104ce565b005b6101fc610565565b6040516102099190611dfd565b60405180910390f35b610225610220366004611e38565b610600565b6040519015158152602001610209565b61023d61065b565b604051908152602001610209565b7fdaa68ed5a13c867185fe05c85f795df599e06c61888bec0f56aca55dd90ee3f95461023d565b61027a61066e565b6040516001600160a01b039091168152602001610209565b6101f26102a0366004611e64565b61068a565b6102256102b3366004611e81565b610780565b61027a6102c6366004611f0b565b6107db565b6101f26102d9366004611e64565b6108aa565b6102e6610a1d565b60405160ff9091168152602001610209565b6101f2610a30565b61022561030e366004611fbd565b610abe565b6101f26103213660046120bb565b610b61565b61023d60015481565b6101fc61033d366004612146565b6110cf565b61023d610350366004611e64565b6110f8565b6101f2610363366004611e64565b611132565b61027a611223565b6101fc61123f565b61027a7f000000000000000000000000000000000000000000000000000000000000000081565b6101f26103ad36600461221e565b611257565b6102256103c036600461221e565b61152e565b6102256102b3366004611e38565b6102256103e1366004611fbd565b611642565b6101f26103f436600461221e565b61169d565b61027a7f000000000000000000000000000000000000000000000000000000000000000081565b61027a7f000000000000000000000000000000000000000000000000000000000000000081565b61023d610455366004612273565b6001600160a01b0391821660009081527fdaa68ed5a13c867185fe05c85f795df599e06c61888bec0f56aca55dd90ee3fb6020908152604080832093909416825291909152205490565b61027a7f000000000000000000000000000000000000000000000000000000000000000081565b61027a611962565b6104d6611980565b600101546001600160a01b0316331461050a5760405162461bcd60e51b8152600401610501906122ac565b60405180910390fd5b6000610514611980565b60038101546040519192506001600160a01b03169081907f2df08b6a3a4aed918c51e7ac3bbbe4f82bb09d26fef89a0c23ddc38c1a3c385b90600090a25060030180546001600160a01b0319169055565b606061056f611980565b600501805461057d906122e3565b80601f01602080910402602001604051908101604052809291908181526020018280546105a9906122e3565b80156105f65780601f106105cb576101008083540402835291602001916105f6565b820191906000526020600020905b8154815290600101906020018083116105d957829003601f168201915b5050505050905090565b60405162461bcd60e51b815260206004820152602760248201527f4e54455243323041737365743a20617070726f76616c73206e6f7420616c6c6f6044820152661dd959081e595d60ca1b6064820152600090608401610501565b6000610665611980565b60040154905090565b6000610678611980565b600101546001600160a01b0316919050565b610692611980565b600101546001600160a01b031633146106bd5760405162461bcd60e51b8152600401610501906122ac565b60006106c7611980565b90506001600160a01b0382166107335760405162461bcd60e51b815260206004820152602b60248201527f4261736541737365743a20636f6e646974696f6e2063616e6e6f74206265207a60448201526a65726f206164647265737360a81b6064820152608401610501565b6003810180546001600160a01b0319166001600160a01b0384169081179091556040517fb17f5e42ddd024b71620166aeff196e5f40a39a3d7fe8082929e768015fbf7c190600090a25050565b60405162461bcd60e51b815260206004820152602760248201527f4e54455243323041737365743a207472616e7366657273206e6f7420616c6c6f6044820152661dd959081e595d60ca1b6064820152600090608401610501565b60006107e5611980565b600101546001600160a01b031633146108105760405162461bcd60e51b8152600401610501906122ac565b604051633cbd429360e01b81526001600160a01b037f00000000000000000000000000000000000000000000000000000000000000001690633cbd42939061085e908690869060040161231d565b6020604051808303816000875af115801561087d573d6000803e3d6000fd5b505050506040513d601f19601f820116820180604052508101906108a19190612357565b90505b92915050565b336001600160a01b037f000000000000000000000000000000000000000000000000000000000000000016146109225760405162461bcd60e51b815260206004820152601f60248201527f4261736541737365743a206f6e6c7920666163746f727920616c6c6f776564006044820152606401610501565b306001600160a01b038216036109a2576040805162461bcd60e51b81526020600482015260248101919091527f4e54455243323041737365743a206e6577207570677261646520636f6e74726160448201527f637420616464726573732063616e6e6f74206d61746368206f726967696e616c6064820152608401610501565b7f69198989339f34e10129e514286bde98979351148754faef989dde18bf6d14da80546001600160a01b031981166001600160a01b038481169182178455604080519283525192169182917fe0cdc3a6eaf24c066560b5cb2e50c08f3d82cce0e3d838dc7032ba68790cd52b919081900360200190a2505050565b6000610a27611980565b5460ff16919050565b610a38611980565b600101546001600160a01b03163314610a635760405162461bcd60e51b8152600401610501906122ac565b6000610a6d611980565b60028101546040519192506001600160a01b03169081907f94dff9f830507f1f2b72515aaaaa174f690a73801b6ab87ae6d75e584de177c890600090a25060020180546001600160a01b0319169055565b600080610ac9611980565b60038101549091506001600160a01b0316610ae75750600192915050565b60038101546040516377b63b9160e11b81526001600160a01b039091169063ef6c772290610b19908690600401612374565b602060405180830381865afa158015610b36573d6000803e3d6000fd5b505050506040513d601f19601f82011682018060405250810190610b5a91906123bb565b9392505050565b336001600160a01b037f00000000000000000000000000000000000000000000000000000000000000001614610bd95760405162461bcd60e51b815260206004820152601f60248201527f4261736541737365743a206f6e6c7920666163746f727920616c6c6f776564006044820152606401610501565b600081806020019051810190610bef919061242d565b60208101519091506001600160a01b0316610c605760405162461bcd60e51b815260206004820152602b60248201527f4e54455243323041737365743a206973737565722063616e6e6f74206265207a60448201526a65726f206164647265737360a81b6064820152608401610501565b6020810151604051632405672560e21b81526001600160a01b0391821660048201527f0000000000000000000000000000000000000000000000000000000000000000909116906390159c9490602401602060405180830381865afa158015610ccd573d6000803e3d6000fd5b505050506040513d601f19601f82011682018060405250810190610cf191906123bb565b610d555760405162461bcd60e51b815260206004820152602f60248201527f4e54455243323041737365743a20697373756572206d7573742062652072656760448201526e6973746572656420636f6d70616e7960881b6064820152608401610501565b80516001600160a01b0316610dd25760405162461bcd60e51b815260206004820152603760248201527f4e54455243323041737365743a206f726967696e436861696e4164647265737360448201527f2063616e6e6f74206265207a65726f20616464726573730000000000000000006064820152608401610501565b60008160a001515111610e325760405162461bcd60e51b815260206004820152602260248201527f4e54455243323041737365743a206e616d652063616e6e6f7420626520656d70604482015261747960f01b6064820152608401610501565b60008160c001515111610e935760405162461bcd60e51b8152602060048201526024808201527f4e54455243323041737365743a2073796d626f6c2063616e6e6f7420626520656044820152636d70747960e01b6064820152608401610501565b6000816060015111610f055760405162461bcd60e51b815260206004820152603560248201527f4e54455243323041737365743a206f726967696e436861696e4964206d7573746044820152742062652067726561746572207468616e207a65726f60581b6064820152608401610501565b6000816080015111610f735760405162461bcd60e51b815260206004820152603160248201527f4e54455243323041737365743a206d6178537570706c79206d7573742062652060448201527067726561746572207468616e207a65726f60781b6064820152608401610501565b7fdaa68ed5a13c867185fe05c85f795df599e06c61888bec0f56aca55dd90ee3fc547fdaa68ed5a13c867185fe05c85f795df599e06c61888bec0f56aca55dd90ee3f89061010090046001600160a01b03161561101c5760405162461bcd60e51b815260206004820152602160248201527f4e54455243323041737365743a20616c726561647920696e697469616c697a656044820152601960fa1b6064820152608401610501565b8151600482018054610100600160a81b0319166101006001600160a01b039384160217905560208301516005830180546001600160a01b03191691909216179055606082015160088201556080820151815560a082015160098201906110829082612546565b5060c0820151600a8201906110979082612546565b506000826040015160ff16116110ae5760126110b4565b81604001515b600491909101805460ff191660ff9092169190911790555050565b6060816040516020016110e29190612606565b6040516020818303038152906040529050919050565b6001600160a01b031660009081527fdaa68ed5a13c867185fe05c85f795df599e06c61888bec0f56aca55dd90ee3fa602052604090205490565b61113a611980565b600101546001600160a01b031633146111655760405162461bcd60e51b8152600401610501906122ac565b600061116f611980565b90506001600160a01b0382166111d65760405162461bcd60e51b815260206004820152602660248201527f4261736541737365743a20686f6f6b2063616e6e6f74206265207a65726f206160448201526564647265737360d01b6064820152608401610501565b6002810180546001600160a01b0319166001600160a01b0384169081179091556040517ff716b9f35a5af170228b0c97201cc581ce2ca1703824fd6b78f3583f28f7eedc90600090a25050565b600061122d611980565b600201546001600160a01b0316919050565b6060611249611980565b600601805461057d906122e3565b61125f6119a4565b611267611980565b600101546001600160a01b031633146112925760405162461bcd60e51b8152600401610501906122ac565b6001600160a01b0383166112fe5760405162461bcd60e51b815260206004820152602d60248201527f4e54455243323041737365743a2063616e6e6f74207265766f6b652066726f6d60448201526c207a65726f206164647265737360981b6064820152608401610501565b6000611308611980565b600201546001600160a01b0316905060006113258385018561268a565b9050600081116113955760405162461bcd60e51b815260206004820152603560248201527f4e54455243323041737365743a207265766f6b6520616d6f756e74206d7573746044820152742062652067726561746572207468616e207a65726f60581b6064820152608401610501565b8061139f866110f8565b10156114025760405162461bcd60e51b815260206004820152602c60248201527f4e54455243323041737365743a20696e73756666696369656e742062616c616e60448201526b636520746f207265766f6b6560a01b6064820152608401610501565b6001600160a01b038216156114f8576040516335661e9560e21b81523060048201526001600160a01b038681166024830152604482018390526000919084169063d5987a54906064016020604051808303816000875af115801561146a573d6000803e3d6000fd5b505050506040513d601f19601f8201168201806040525081019061148e91906123bb565b9050806114f65760405162461bcd60e51b815260206004820152603060248201527f4e54455243323041737365743a206265666f72655265766f6b6520686f6f6b2060448201526f1c995a9958dd1959081c995c5d595cdd60821b6064820152608401610501565b505b6000611503866110f8565b905061151c8682841061151657826119ce565b836119ce565b5050506115296001600055565b505050565b60006001600160a01b0384166115985760405162461bcd60e51b815260206004820152602960248201527f4e54455243323041737365743a2063616e6e6f74206d696e7420746f207a65726044820152686f206164647265737360b81b6064820152608401610501565b7fdaa68ed5a13c867185fe05c85f795df599e06c61888bec0f56aca55dd90ee3f860006115c78585018661268a565b905081600001548183600101546115de91906126a3565b11156116365760405162461bcd60e51b815260206004820152602160248201527f4e54455243323041737365743a206d617820737570706c7920657863656564656044820152601960fa1b6064820152608401610501565b50600195945050505050565b60008061164d611980565b60038101549091506001600160a01b031661166b5750600192915050565b600381015460405163eab4ad0360e01b81526001600160a01b039091169063eab4ad0390610b19908690600401612374565b6116a56119a4565b6116ad611980565b600101546001600160a01b031633146116d85760405162461bcd60e51b8152600401610501906122ac565b6116e383838361152e565b61172f5760405162461bcd60e51b815260206004820181905260248201527f4e54455243323041737365743a2063616e6e6f74206d696e7420746f6b656e736044820152606401610501565b600061173d8284018461268a565b90506000611749611980565b60028101549091506001600160a01b0316156118475760028101546040516386b8418760e01b81523060048201526001600160a01b0387811660248301526044820185905260009216906386b84187906064016020604051808303816000875af11580156117bb573d6000803e3d6000fd5b505050506040513d601f19601f820116820180604052508101906117df91906123bb565b9050806118455760405162461bcd60e51b815260206004820152602e60248201527f4e54455243323041737365743a206265666f72654d696e7420686f6f6b20726560448201526d1a9958dd1959081c995c5d595cdd60921b6064820152608401610501565b505b604051632b0fe8e760e21b81526001600160a01b0386811660048301527f0000000000000000000000000000000000000000000000000000000000000000169063ac3fa39c90602401602060405180830381865afa1580156118ad573d6000803e3d6000fd5b505050506040513d601f19601f820116820180604052508101906118d191906123bb565b1561194c576000859050806001600160a01b031663181d939b6040518163ffffffff1660e01b8152600401602060405180830381865afa158015611919573d6000803e3d6000fd5b505050506040513d601f19601f8201168201806040525081019061193d91906123bb565b61194a5761194a86611a08565b505b6119568583611bda565b50506115296001600055565b600061196c611980565b5461010090046001600160a01b0316919050565b7fdaa68ed5a13c867185fe05c85f795df599e06c61888bec0f56aca55dd90ee3fc90565b6002600054036119c757604051633ee5aeb560e01b815260040160405180910390fd5b6002600055565b6001600160a01b0382166119f857604051634b637e8f60e11b815260006004820152602401610501565b611a0482600083611c57565b5050565b6000816001600160a01b031663516f279e6040518163ffffffff1660e01b8152600401602060405180830381865afa158015611a48573d6000803e3d6000fd5b505050506040513d601f19601f82011682018060405250810190611a6c9190612357565b90506000611a78611980565b90506001600160a01b038216611ada5760405162461bcd60e51b815260206004820152602160248201527f4261736541737365743a2061766174617220686173206e6f206c6f636174696f6044820152603760f91b6064820152608401610501565b600181015460408051636904c94d60e01b815290516001600160a01b0392831692851691636904c94d9160048083019260209291908290030181865afa158015611b28573d6000803e3d6000fd5b505050506040513d601f19601f82011682018060405250810190611b4c9190612357565b6001600160a01b0316146115295760405162461bcd60e51b815260206004820152604960248201527f4261736541737365743a2061766174617220646f6573206e6f7420616c6c6f7760448201527f20617373657473206f757473696465206f66206974732063757272656e7420656064820152687870657269656e636560b81b608482015260a401610501565b6001600160a01b038216611c045760405163ec442f0560e01b815260006004820152602401610501565b611c1060008383611c57565b816001600160a01b03167f1f98ee45d72cac8271cfd41cc599153bf1465afc3fc1f0b3e2a97b8f1c4253a982604051611c4b91815260200190565b60405180910390a25050565b7fdaa68ed5a13c867185fe05c85f795df599e06c61888bec0f56aca55dd90ee3f86001600160a01b038416611ca55781816001016000828254611c9a91906126a3565b90915550611d1b9050565b6001600160a01b038416600090815260028201602052604090205482811015611cfa5760405163391434e360e21b81526001600160a01b03861660048201526024810182905260448101849052606401610501565b6001600160a01b038516600090815260028301602052604090209083900390555b6001600160a01b038316611d39576001810180548390039055611d5a565b6001600160a01b038316600090815260028201602052604090208054830190555b826001600160a01b0316846001600160a01b03167fddf252ad1be2c89b69c2b068fc378daa952ba7f163c4a11628f55a4df523b3ef84604051611d9f91815260200190565b60405180910390a350505050565b60005b83811015611dc8578181015183820152602001611db0565b50506000910152565b60008151808452611de9816020860160208601611dad565b601f01601f19169290920160200192915050565b6020815260006108a16020830184611dd1565b6001600160a01b0381168114611e2557600080fd5b50565b8035611e3381611e10565b919050565b60008060408385031215611e4b57600080fd5b8235611e5681611e10565b946020939093013593505050565b600060208284031215611e7657600080fd5b8135610b5a81611e10565b600080600060608486031215611e9657600080fd5b8335611ea181611e10565b92506020840135611eb181611e10565b929592945050506040919091013590565b60008083601f840112611ed457600080fd5b50813567ffffffffffffffff811115611eec57600080fd5b602083019150836020828501011115611f0457600080fd5b9250929050565b60008060208385031215611f1e57600080fd5b823567ffffffffffffffff811115611f3557600080fd5b611f4185828601611ec2565b90969095509350505050565b634e487b7160e01b600052604160045260246000fd5b60405160e0810167ffffffffffffffff81118282101715611f8657611f86611f4d565b60405290565b604051601f8201601f1916810167ffffffffffffffff81118282101715611fb557611fb5611f4d565b604052919050565b600060a08284031215611fcf57600080fd5b60405160a0810181811067ffffffffffffffff82111715611ff257611ff2611f4d565b604052823561200081611e10565b8152602083013561201081611e10565b6020820152604083013561202381611e10565b6040820152606083013561203681611e10565b6060820152608083013561204981611e10565b60808201529392505050565b600067ffffffffffffffff82111561206f5761206f611f4d565b50601f01601f191660200190565b600061209061208b84612055565b611f8c565b90508281528383830111156120a457600080fd5b828260208301376000602084830101529392505050565b6000602082840312156120cd57600080fd5b813567ffffffffffffffff8111156120e457600080fd5b8201601f810184136120f557600080fd5b6121048482356020840161207d565b949350505050565b60ff81168114611e2557600080fd5b8035611e338161210c565b600082601f83011261213757600080fd5b6108a18383356020850161207d565b60006020828403121561215857600080fd5b813567ffffffffffffffff8082111561217057600080fd5b9083019060e0828603121561218457600080fd5b61218c611f63565b61219583611e28565b81526121a360208401611e28565b60208201526121b46040840161211b565b6040820152606083013560608201526080830135608082015260a0830135828111156121df57600080fd5b6121eb87828601612126565b60a08301525060c08301358281111561220357600080fd5b61220f87828601612126565b60c08301525095945050505050565b60008060006040848603121561223357600080fd5b833561223e81611e10565b9250602084013567ffffffffffffffff81111561225a57600080fd5b61226686828701611ec2565b9497909650939450505050565b6000806040838503121561228657600080fd5b823561229181611e10565b915060208301356122a181611e10565b809150509250929050565b6020808252601e908201527f4261736541737365743a206f6e6c792069737375657220616c6c6f7765640000604082015260600190565b600181811c908216806122f757607f821691505b60208210810361231757634e487b7160e01b600052602260045260246000fd5b50919050565b60208152816020820152818360408301376000818301604090810191909152601f909201601f19160101919050565b8051611e3381611e10565b60006020828403121561236957600080fd5b8151610b5a81611e10565b81516001600160a01b039081168252602080840151821690830152604080840151821690830152606080840151821690830152608092830151169181019190915260a00190565b6000602082840312156123cd57600080fd5b81518015158114610b5a57600080fd5b8051611e338161210c565b600082601f8301126123f957600080fd5b815161240761208b82612055565b81815284602083860101111561241c57600080fd5b612104826020830160208701611dad565b60006020828403121561243f57600080fd5b815167ffffffffffffffff8082111561245757600080fd5b9083019060e0828603121561246b57600080fd5b612473611f63565b61247c8361234c565b815261248a6020840161234c565b602082015261249b604084016123dd565b6040820152606083015160608201526080830151608082015260a0830151828111156124c657600080fd5b6124d2878286016123e8565b60a08301525060c0830151828111156124ea57600080fd5b61220f878286016123e8565b601f821115611529576000816000526020600020601f850160051c8101602086101561251f5750805b601f850160051c820191505b8181101561253e5782815560010161252b565b505050505050565b815167ffffffffffffffff81111561256057612560611f4d565b6125748161256e84546122e3565b846124f6565b602080601f8311600181146125a957600084156125915750858301515b600019600386901b1c1916600185901b17855561253e565b600085815260208120601f198616915b828110156125d8578886015182559484019460019091019084016125b9565b50858210156125f65787850151600019600388901b60f8161c191681555b5050505050600190811b01905550565b60208152600060018060a01b038084511660208401528060208501511660408401525060ff604084015116606083015260608301516080830152608083015160a083015260a083015160e060c0840152612664610100840182611dd1565b905060c0840151601f198483030160e08501526126818282611dd1565b95945050505050565b60006020828403121561269c57600080fd5b5035919050565b808201808211156108a457634e487b7160e01b600052601160045260246000fdfea2646970667358221220543c4059ad657133b4c2d44d168851b1bd366d1fd6e6215eeca306728fbf841c64736f6c63430008180033",
  "linkReferences": {},
  "deployedLinkReferences": {}
}