{
  "_format": "hh-sol-artifact-1",
  "contractName": "NTERC20Asset",
  "sourceName": "contracts/asset/instance/erc20/NTERC20Asset.sol",
  "abi": [
    {
      "inputs": [
        {
          "components": [
            {
              "internalType": "address",
              "name": "assetRegistry",
              "type": "address"
            },
            {
              "internalType": "address",
              "name": "avatarRegistry",
              "type": "address"
            },
            {
              "internalType": "address",
              "name": "companyRegistry",
              "type": "address"
            }
          ],
          "internalType": "struct BaseAssetConstructorArgs",
          "name": "args",
          "type": "tuple"
        }
      ],
      "stateMutability": "nonpayable",
      "type": "constructor"
    },
    {
      "inputs": [
        {
          "internalType": "address",
          "name": "sender",
          "type": "address"
        },
        {
          "internalType": "uint256",
          "name": "balance",
          "type": "uint256"
        },
        {
          "internalType": "uint256",
          "name": "needed",
          "type": "uint256"
        }
      ],
      "name": "ERC20InsufficientBalance",
      "type": "error"
    },
    {
      "inputs": [
        {
          "internalType": "address",
          "name": "receiver",
          "type": "address"
        }
      ],
      "name": "ERC20InvalidReceiver",
      "type": "error"
    },
    {
      "inputs": [
        {
          "internalType": "address",
          "name": "sender",
          "type": "address"
        }
      ],
      "name": "ERC20InvalidSender",
      "type": "error"
    },
    {
      "inputs": [],
      "name": "ReentrancyGuardReentrantCall",
      "type": "error"
    },
    {
      "anonymous": false,
      "inputs": [],
      "name": "AssetConditionRemoved",
      "type": "event"
    },
    {
      "anonymous": false,
      "inputs": [
        {
          "indexed": false,
          "internalType": "address",
          "name": "condition",
          "type": "address"
        }
      ],
      "name": "AssetConditionSet",
      "type": "event"
    },
    {
      "anonymous": false,
      "inputs": [
        {
          "indexed": true,
          "internalType": "address",
          "name": "to",
          "type": "address"
        },
        {
          "indexed": true,
          "internalType": "uint256",
          "name": "amt",
          "type": "uint256"
        }
      ],
      "name": "ERC20Minted",
      "type": "event"
    },
    {
      "anonymous": false,
      "inputs": [
        {
          "indexed": true,
          "internalType": "address",
          "name": "by",
          "type": "address"
        },
        {
          "indexed": false,
          "internalType": "string",
          "name": "reason",
          "type": "string"
        }
      ],
      "name": "EntityDeactivated",
      "type": "event"
    },
    {
      "anonymous": false,
      "inputs": [
        {
          "indexed": true,
          "internalType": "address",
          "name": "by",
          "type": "address"
        }
      ],
      "name": "EntityReactivated",
      "type": "event"
    },
    {
      "anonymous": false,
      "inputs": [
        {
          "indexed": true,
          "internalType": "address",
          "name": "by",
          "type": "address"
        },
        {
          "indexed": false,
          "internalType": "string",
          "name": "reason",
          "type": "string"
        }
      ],
      "name": "EntityRemoved",
      "type": "event"
    },
    {
      "anonymous": false,
      "inputs": [
        {
          "indexed": true,
          "internalType": "address",
          "name": "from",
          "type": "address"
        },
        {
          "indexed": true,
          "internalType": "address",
          "name": "to",
          "type": "address"
        },
        {
          "indexed": false,
          "internalType": "uint256",
          "name": "value",
          "type": "uint256"
        }
      ],
      "name": "Transfer",
      "type": "event"
    },
    {
      "inputs": [
        {
          "internalType": "address[]",
          "name": "signers",
          "type": "address[]"
        }
      ],
      "name": "addSigners",
      "outputs": [],
      "stateMutability": "nonpayable",
      "type": "function"
    },
    {
      "inputs": [
        {
          "internalType": "address",
          "name": "owner",
          "type": "address"
        },
        {
          "internalType": "address",
          "name": "spender",
          "type": "address"
        }
      ],
      "name": "allowance",
      "outputs": [
        {
          "internalType": "uint256",
          "name": "",
          "type": "uint256"
        }
      ],
      "stateMutability": "view",
      "type": "function"
    },
    {
      "inputs": [
        {
          "internalType": "address",
          "name": "",
          "type": "address"
        },
        {
          "internalType": "uint256",
          "name": "",
          "type": "uint256"
        }
      ],
      "name": "approve",
      "outputs": [
        {
          "internalType": "bool",
          "name": "",
          "type": "bool"
        }
      ],
      "stateMutability": "pure",
      "type": "function"
    },
    {
      "inputs": [],
      "name": "assetRegistry",
      "outputs": [
        {
          "internalType": "address",
          "name": "",
          "type": "address"
        }
      ],
      "stateMutability": "view",
      "type": "function"
    },
    {
      "inputs": [],
      "name": "avatarRegistry",
      "outputs": [
        {
          "internalType": "contract IAvatarRegistry",
          "name": "",
          "type": "address"
        }
      ],
      "stateMutability": "view",
      "type": "function"
    },
    {
      "inputs": [
        {
          "internalType": "address",
          "name": "account",
          "type": "address"
        }
      ],
      "name": "balanceOf",
      "outputs": [
        {
          "internalType": "uint256",
          "name": "",
          "type": "uint256"
        }
      ],
      "stateMutability": "view",
      "type": "function"
    },
    {
      "inputs": [
        {
          "internalType": "address",
          "name": "to",
          "type": "address"
        },
        {
          "internalType": "bytes",
          "name": "data",
          "type": "bytes"
        }
      ],
      "name": "canMint",
      "outputs": [
        {
          "internalType": "bool",
          "name": "",
          "type": "bool"
        }
      ],
      "stateMutability": "view",
      "type": "function"
    },
    {
      "inputs": [
        {
          "components": [
            {
              "internalType": "address",
              "name": "asset",
              "type": "address"
            },
            {
              "internalType": "address",
              "name": "world",
              "type": "address"
            },
            {
              "internalType": "address",
              "name": "company",
              "type": "address"
            },
            {
              "internalType": "address",
              "name": "experience",
              "type": "address"
            },
            {
              "internalType": "address",
              "name": "avatar",
              "type": "address"
            }
          ],
          "internalType": "struct AssetCheckArgs",
          "name": "args",
          "type": "tuple"
        }
      ],
      "name": "canUseAsset",
      "outputs": [
        {
          "internalType": "bool",
          "name": "",
          "type": "bool"
        }
      ],
      "stateMutability": "view",
      "type": "function"
    },
    {
      "inputs": [
        {
          "components": [
            {
              "internalType": "address",
              "name": "asset",
              "type": "address"
            },
            {
              "internalType": "address",
              "name": "world",
              "type": "address"
            },
            {
              "internalType": "address",
              "name": "company",
              "type": "address"
            },
            {
              "internalType": "address",
              "name": "experience",
              "type": "address"
            },
            {
              "internalType": "address",
              "name": "avatar",
              "type": "address"
            }
          ],
          "internalType": "struct AssetCheckArgs",
          "name": "args",
          "type": "tuple"
        }
      ],
      "name": "canViewAsset",
      "outputs": [
        {
          "internalType": "bool",
          "name": "",
          "type": "bool"
        }
      ],
      "stateMutability": "view",
      "type": "function"
    },
    {
      "inputs": [
        {
          "internalType": "address",
          "name": "newOwner",
          "type": "address"
        }
      ],
      "name": "changeOwner",
      "outputs": [],
      "stateMutability": "nonpayable",
      "type": "function"
    },
    {
      "inputs": [],
      "name": "companyRegistry",
      "outputs": [
        {
          "internalType": "contract ICompanyRegistry",
          "name": "",
          "type": "address"
        }
      ],
      "stateMutability": "view",
      "type": "function"
    },
    {
      "inputs": [
        {
          "internalType": "string",
          "name": "reason",
          "type": "string"
        }
      ],
      "name": "deactivate",
      "outputs": [],
      "stateMutability": "nonpayable",
      "type": "function"
    },
    {
      "inputs": [],
      "name": "decimals",
      "outputs": [
        {
          "internalType": "uint8",
          "name": "",
          "type": "uint8"
        }
      ],
      "stateMutability": "view",
      "type": "function"
    },
    {
      "inputs": [
        {
          "internalType": "bytes32",
          "name": "role",
          "type": "bytes32"
        },
        {
          "internalType": "address",
          "name": "account",
          "type": "address"
        }
      ],
      "name": "grantRole",
      "outputs": [],
      "stateMutability": "nonpayable",
      "type": "function"
    },
    {
      "inputs": [
        {
          "internalType": "bytes32",
          "name": "role",
          "type": "bytes32"
        },
        {
          "internalType": "address",
          "name": "account",
          "type": "address"
        }
      ],
      "name": "hasRole",
      "outputs": [
        {
          "internalType": "bool",
          "name": "",
          "type": "bool"
        }
      ],
      "stateMutability": "view",
      "type": "function"
    },
    {
      "inputs": [
        {
          "components": [
            {
              "internalType": "string",
              "name": "name",
              "type": "string"
            },
            {
              "internalType": "string",
              "name": "symbol",
              "type": "string"
            },
            {
              "internalType": "address",
              "name": "issuer",
              "type": "address"
            },
            {
              "internalType": "address",
              "name": "originAddress",
              "type": "address"
            },
            {
              "internalType": "uint256",
              "name": "originChainId",
              "type": "uint256"
            },
            {
              "internalType": "bytes",
              "name": "initData",
              "type": "bytes"
            }
          ],
          "internalType": "struct AssetInitArgs",
          "name": "args",
          "type": "tuple"
        }
      ],
      "name": "init",
      "outputs": [],
      "stateMutability": "nonpayable",
      "type": "function"
    },
    {
      "inputs": [
        {
          "internalType": "address",
          "name": "account",
          "type": "address"
        }
      ],
      "name": "isAdmin",
      "outputs": [
        {
          "internalType": "bool",
          "name": "",
          "type": "bool"
        }
      ],
      "stateMutability": "view",
      "type": "function"
    },
    {
      "inputs": [],
      "name": "isEntityActive",
      "outputs": [
        {
          "internalType": "bool",
          "name": "",
          "type": "bool"
        }
      ],
      "stateMutability": "view",
      "type": "function"
    },
    {
      "inputs": [],
      "name": "isRemoved",
      "outputs": [
        {
          "internalType": "bool",
          "name": "",
          "type": "bool"
        }
      ],
      "stateMutability": "view",
      "type": "function"
    },
    {
      "inputs": [
        {
          "internalType": "address",
          "name": "account",
          "type": "address"
        }
      ],
      "name": "isSigner",
      "outputs": [
        {
          "internalType": "bool",
          "name": "",
          "type": "bool"
        }
      ],
      "stateMutability": "view",
      "type": "function"
    },
    {
      "inputs": [],
      "name": "issuer",
      "outputs": [
        {
          "internalType": "address",
          "name": "",
          "type": "address"
        }
      ],
      "stateMutability": "view",
      "type": "function"
    },
    {
      "inputs": [
        {
          "internalType": "address",
          "name": "to",
          "type": "address"
        },
        {
          "internalType": "bytes",
          "name": "data",
          "type": "bytes"
        }
      ],
      "name": "mint",
      "outputs": [],
      "stateMutability": "nonpayable",
      "type": "function"
    },
    {
      "inputs": [],
      "name": "name",
      "outputs": [
        {
          "internalType": "string",
          "name": "",
          "type": "string"
        }
      ],
      "stateMutability": "view",
      "type": "function"
    },
    {
      "inputs": [],
      "name": "originAddress",
      "outputs": [
        {
          "internalType": "address",
          "name": "",
          "type": "address"
        }
      ],
      "stateMutability": "view",
      "type": "function"
    },
    {
      "inputs": [],
      "name": "originChainId",
      "outputs": [
        {
          "internalType": "uint256",
          "name": "",
          "type": "uint256"
        }
      ],
      "stateMutability": "view",
      "type": "function"
    },
    {
      "inputs": [],
      "name": "owner",
      "outputs": [
        {
          "internalType": "address",
          "name": "",
          "type": "address"
        }
      ],
      "stateMutability": "view",
      "type": "function"
    },
    {
      "inputs": [],
      "name": "reactivate",
      "outputs": [],
      "stateMutability": "nonpayable",
      "type": "function"
    },
    {
      "inputs": [
        {
          "internalType": "string",
          "name": "reason",
          "type": "string"
        }
      ],
      "name": "remove",
      "outputs": [],
      "stateMutability": "nonpayable",
      "type": "function"
    },
    {
      "inputs": [],
      "name": "removeCondition",
      "outputs": [],
      "stateMutability": "nonpayable",
      "type": "function"
    },
    {
      "inputs": [
        {
          "internalType": "address[]",
          "name": "signers",
          "type": "address[]"
        }
      ],
      "name": "removeSigners",
      "outputs": [],
      "stateMutability": "nonpayable",
      "type": "function"
    },
    {
      "inputs": [
        {
          "internalType": "address",
          "name": "tgt",
          "type": "address"
        },
        {
          "internalType": "bytes",
          "name": "data",
          "type": "bytes"
        }
      ],
      "name": "revoke",
      "outputs": [],
      "stateMutability": "nonpayable",
      "type": "function"
    },
    {
      "inputs": [
        {
          "internalType": "bytes32",
          "name": "role",
          "type": "bytes32"
        },
        {
          "internalType": "address",
          "name": "account",
          "type": "address"
        }
      ],
      "name": "revokeRole",
      "outputs": [],
      "stateMutability": "nonpayable",
      "type": "function"
    },
    {
      "inputs": [
        {
          "internalType": "address",
          "name": "condition",
          "type": "address"
        }
      ],
      "name": "setCondition",
      "outputs": [],
      "stateMutability": "nonpayable",
      "type": "function"
    },
    {
      "inputs": [],
      "name": "symbol",
      "outputs": [
        {
          "internalType": "string",
          "name": "",
          "type": "string"
        }
      ],
      "stateMutability": "view",
      "type": "function"
    },
    {
      "inputs": [],
      "name": "termsOwner",
      "outputs": [
        {
          "internalType": "address",
          "name": "",
          "type": "address"
        }
      ],
      "stateMutability": "view",
      "type": "function"
    },
    {
      "inputs": [],
      "name": "totalSupply",
      "outputs": [
        {
          "internalType": "uint256",
          "name": "",
          "type": "uint256"
        }
      ],
      "stateMutability": "view",
      "type": "function"
    },
    {
      "inputs": [
        {
          "internalType": "address",
          "name": "",
          "type": "address"
        },
        {
          "internalType": "uint256",
          "name": "",
          "type": "uint256"
        }
      ],
      "name": "transfer",
      "outputs": [
        {
          "internalType": "bool",
          "name": "",
          "type": "bool"
        }
      ],
      "stateMutability": "pure",
      "type": "function"
    },
    {
      "inputs": [
        {
          "internalType": "address",
          "name": "",
          "type": "address"
        },
        {
          "internalType": "address",
          "name": "",
          "type": "address"
        },
        {
          "internalType": "uint256",
          "name": "",
          "type": "uint256"
        }
      ],
      "name": "transferFrom",
      "outputs": [
        {
          "internalType": "bool",
          "name": "",
          "type": "bool"
        }
      ],
      "stateMutability": "pure",
      "type": "function"
    },
    {
      "inputs": [],
      "name": "version",
      "outputs": [
        {
          "components": [
            {
              "internalType": "uint16",
              "name": "major",
              "type": "uint16"
            },
            {
              "internalType": "uint16",
              "name": "minor",
              "type": "uint16"
            }
          ],
          "internalType": "struct Version",
          "name": "",
          "type": "tuple"
        }
      ],
      "stateMutability": "pure",
      "type": "function"
    },
    {
      "stateMutability": "payable",
      "type": "receive"
    }
  ],
  "bytecode": "0x60e06040523480156200001157600080fd5b5060405162002e8d38038062002e8d8339810160408190526200003491620001da565b805181906001600160a01b0316620000a85760405162461bcd60e51b815260206004820152602c60248201527f4261736541737365743a2061737365745265676973747279206973207468652060448201526b7a65726f206164647265737360a01b60648201526084015b60405180910390fd5b60208101516001600160a01b03166200011a5760405162461bcd60e51b815260206004820152602d60248201527f4261736541737365743a2061766174617252656769737472792069732074686560448201526c207a65726f206164647265737360981b60648201526084016200009f565b60408101516001600160a01b03166200018d5760405162461bcd60e51b815260206004820152602e60248201527f4261736541737365743a20636f6d70616e79526567697374727920697320746860448201526d65207a65726f206164647265737360901b60648201526084016200009f565b80516001600160a01b039081166080526020820151811660a0526040909101511660c0525060016000556200025b565b80516001600160a01b0381168114620001d557600080fd5b919050565b600060608284031215620001ed57600080fd5b604051606081016001600160401b03811182821017156200021e57634e487b7160e01b600052604160045260246000fd5b6040526200022c83620001bd565b81526200023c60208401620001bd565b60208201526200024f60408401620001bd565b60408201529392505050565b60805160a05160c051612bdf620002ae60003960006106740152600081816106fd01526115a70152600081816105850152818161075f01528181610c440152818161103201526118d90152612bdf6000f3fe6080604052600436106102335760003560e01c806380599e4b1161012e578063a9059cbb116100ab578063d547741f1161006f578063d547741f146106ab578063dd62ed3e146106cb578063e3d7ad73146106eb578063e517fedd1461071f578063e8906a2d1461073457600080fd5b8063a9059cbb14610607578063b4e75b9b14610622578063b510391f14610642578063c51aba2b14610662578063d18611d61461069657600080fd5b806395d89b41116100f257806395d89b411461055e578063979d7e86146105735780639a973844146105a75780639e54c0a2146105c7578063a6f9dae1146105e757600080fd5b806380599e4b146104d457806386b70bed146104f45780638d361e43146105095780638da5cb5b1461052957806391d148541461053e57600080fd5b806327ee999d116101bc57806369bd91941161018057806369bd91941461044a5780636acd64811461045f57806370a082311461047f5780637df73e271461049f5780637e6e1551146104bf57600080fd5b806327ee999d146103765780632f2ff15d14610396578063313ce567146103b65780633fa47f17146103dd57806354fd4d50146103fd57600080fd5b80630ac7f561116102035780630ac7f561146102d157806318160ddd146102f45780631d1438481461030957806323b872dd1461033657806324d7806c1461035657600080fd5b80626c7e851461023f578063021665b71461026157806306fdde0314610276578063095ea7b3146102a157600080fd5b3661023a57005b600080fd5b34801561024b57600080fd5b5061025f61025a3660046123f2565b610754565b005b34801561026d57600080fd5b5061025f6109ac565b34801561028257600080fd5b5061028b610a23565b604051610298919061242d565b60405180910390f35b3480156102ad57600080fd5b506102c16102bc366004612494565b610abb565b6040519015158152602001610298565b3480156102dd57600080fd5b506102e6610b16565b604051908152602001610298565b34801561030057600080fd5b506102e6610b29565b34801561031557600080fd5b5061031e610b3c565b6040516001600160a01b039091168152602001610298565b34801561034257600080fd5b506102c16103513660046124c0565b610b58565b34801561036257600080fd5b506102c1610371366004612501565b610bb3565b34801561038257600080fd5b5061025f610391366004612534565b610c39565b3480156103a257600080fd5b5061025f6103b13660046125e5565b610cd7565b3480156103c257600080fd5b506103cb610ddd565b60405160ff9091168152602001610298565b3480156103e957600080fd5b506102c16103f8366004612615565b610df0565b34801561040957600080fd5b50604080518082018252600080825260209182018190528251808401845260018082529083019182528351908152905161ffff169181019190915201610298565b34801561045657600080fd5b5061031e610e86565b34801561046b57600080fd5b5061025f61047a366004612501565b610ea5565b34801561048b57600080fd5b506102e661049a366004612501565b610fa0565b3480156104ab57600080fd5b506102c16104ba366004612501565b610fcc565b3480156104cb57600080fd5b506102c161100f565b3480156104e057600080fd5b5061025f6104ef366004612534565b611027565b34801561050057600080fd5b506102c1611129565b34801561051557600080fd5b5061025f6105243660046126ad565b611133565b34801561053557600080fd5b5061031e6111fb565b34801561054a57600080fd5b506102c16105593660046125e5565b61126f565b34801561056a57600080fd5b5061028b6112d1565b34801561057f57600080fd5b5061031e7f000000000000000000000000000000000000000000000000000000000000000081565b3480156105b357600080fd5b5061025f6105c2366004612722565b6112e9565b3480156105d357600080fd5b506102c16105e2366004612722565b611495565b3480156105f357600080fd5b5061025f610602366004612501565b611699565b34801561061357600080fd5b506102c1610351366004612494565b34801561062e57600080fd5b506102c161063d366004612615565b6117d4565b34801561064e57600080fd5b5061025f61065d366004612722565b611822565b34801561066e57600080fd5b5061031e7f000000000000000000000000000000000000000000000000000000000000000081565b3480156106a257600080fd5b5061025f6118ce565b3480156106b757600080fd5b5061025f6106c63660046125e5565b61195c565b3480156106d757600080fd5b506102e66106e63660046127a7565b611a32565b3480156106f757600080fd5b5061031e7f000000000000000000000000000000000000000000000000000000000000000081565b34801561072b57600080fd5b5061031e611a6c565b34801561074057600080fd5b5061025f61074f3660046126ad565b611a76565b336001600160a01b037f000000000000000000000000000000000000000000000000000000000000000016146107a55760405162461bcd60e51b815260040161079c906127d5565b60405180910390fd5b60006107b460a083018361281a565b8101906107c19190612868565b805190915060ff1661082e5760405162461bcd60e51b815260206004820152603060248201527f4e54455243323041737365743a20646563696d616c73206d757374206265206760448201526f726561746572207468616e207a65726f60801b606482015260840161079c565b600081602001511161089d5760405162461bcd60e51b815260206004820152603260248201527f4e54455243323041737365743a206d617820737570706c79206d7573742062656044820152712067726561746572207468616e207a65726f60701b606482015260840161079c565b6040805160a0810190915261098390806108b7858061281a565b8080601f0160208091040260200160405190810160405280939291908181526020018383808284376000920191909152505050908252506020908101906109009086018661281a565b8080601f01602080910402602001604051908101604052809392919081815260200183838082843760009201919091525050509082525060200161094a6060860160408701612501565b6001600160a01b031681526020016109686080860160608701612501565b6001600160a01b031681526020018460800135815250611b3e565b600061098d611e5d565b602083015160018201559151825460ff191660ff909116179091555050565b336109b5611ef3565b600101546001600160a01b0316146109df5760405162461bcd60e51b815260040161079c906128c6565b6109e7611ef3565b60020180546001600160a01b03191690556040517f0a3b4f225d27c59369c925408168eb6c4619520ef6a721f0225f0db69977416590600090a1565b6060610a2d611f4e565b8054610a3890612909565b80601f0160208091040260200160405190810160405280929190818152602001828054610a6490612909565b8015610ab15780601f10610a8657610100808354040283529160200191610ab1565b820191906000526020600020905b815481529060010190602001808311610a9457829003601f168201915b5050505050905090565b60405162461bcd60e51b815260206004820152602760248201527f4e54455243323041737365743a20617070726f76616c73206e6f7420616c6c6f6044820152661dd959081e595d60ca1b606482015260009060840161079c565b6000610b20611ef3565b60030154905090565b6000610b33611e5d565b60020154905090565b6000610b46611ef3565b600101546001600160a01b0316919050565b60405162461bcd60e51b815260206004820152602760248201527f4e54455243323041737365743a207472616e7366657273206e6f7420616c6c6f6044820152661dd959081e595d60ca1b606482015260009060840161079c565b604051630935e01b60e21b81526001600160a01b038216600482015260009073__$a5a42e46683ad9c79b7b86d5ff60fdf4c1$__906324d7806c906024015b602060405180830381865af4158015610c0f573d6000803e3d6000fd5b505050506040513d601f19601f82011682018060405250810190610c339190612943565b92915050565b336001600160a01b037f00000000000000000000000000000000000000000000000000000000000000001614610c815760405162461bcd60e51b815260040161079c906127d5565b6000610c8b611faa565b805460ff191691151591909117905560405133907f246589c99dd263c9b64a2b544e24074c282ca479ba3d2a0e649f9eeaca1e2d6290610ccc90849061242d565b60405180910390a250565b604051630935e01b60e21b815233600482015273__$a5a42e46683ad9c79b7b86d5ff60fdf4c1$__906324d7806c90602401602060405180830381865af4158015610d26573d6000803e3d6000fd5b505050506040513d601f19601f82011682018060405250810190610d4a9190612943565b610d665760405162461bcd60e51b815260040161079c90612965565b604051632f2ff15d60e01b8152600481018390526001600160a01b038216602482015273__$a5a42e46683ad9c79b7b86d5ff60fdf4c1$__90632f2ff15d906044015b60006040518083038186803b158015610dc157600080fd5b505af4158015610dd5573d6000803e3d6000fd5b505050505050565b6000610de7611e5d565b5460ff16919050565b600080610dfb611ef3565b600201546001600160a01b03169050801580610e7f57506040516377b63b9160e11b81526001600160a01b0382169063ef6c772290610e3e90869060040161299a565b602060405180830381865afa158015610e5b573d6000803e3d6000fd5b505050506040513d601f19601f82011682018060405250810190610e7f9190612943565b9392505050565b6000610e90611faa565b546201000090046001600160a01b0316919050565b33610eae611ef3565b600101546001600160a01b031614610ed85760405162461bcd60e51b815260040161079c906128c6565b6001600160a01b038116610f425760405162461bcd60e51b815260206004820152602b60248201527f4261736541737365743a20636f6e646974696f6e2063616e6e6f74206265207a60448201526a65726f206164647265737360a81b606482015260840161079c565b80610f4b611ef3565b60020180546001600160a01b0319166001600160a01b0392831617905560405190821681527f74aec62349c3c04102a2d4dba64bd716489a57926996590bb38beffc7fbd40b99060200160405180910390a150565b6000610faa611e5d565b6001600160a01b03909216600090815260039290920160205250604090205490565b604051637df73e2760e01b81526001600160a01b038216600482015260009073__$a5a42e46683ad9c79b7b86d5ff60fdf4c1$__90637df73e2790602401610bf2565b6000611019611faa565b54610100900460ff16919050565b336001600160a01b037f0000000000000000000000000000000000000000000000000000000000000000161461106f5760405162461bcd60e51b815260040161079c906127d5565b611077611faa565b5460ff16156110d75760405162461bcd60e51b815260206004820152602660248201527f52656d6f7661626c65456e746974793a206d757374206465616374697661746560448201526508199a5c9cdd60d21b606482015260840161079c565b60016110e1611faa565b80549115156101000261ff001990921691909117905560405133907fbf430175840309fcb4cce13557429998477f9f95733cb0d42c170af8aa225d0690610ccc90849061242d565b6000610de7611faa565b604051630935e01b60e21b815233600482015273__$a5a42e46683ad9c79b7b86d5ff60fdf4c1$__906324d7806c90602401602060405180830381865af4158015611182573d6000803e3d6000fd5b505050506040513d601f19601f820116820180604052508101906111a69190612943565b6111c25760405162461bcd60e51b815260040161079c90612965565b604051638d361e4360e01b815273__$a5a42e46683ad9c79b7b86d5ff60fdf4c1$__90638d361e4390610da990859085906004016129e1565b600073__$a5a42e46683ad9c79b7b86d5ff60fdf4c1$__638da5cb5b6040518163ffffffff1660e01b8152600401602060405180830381865af4158015611246573d6000803e3d6000fd5b505050506040513d601f19601f8201168201806040525081019061126a9190612a2f565b905090565b604051632474521560e21b8152600481018390526001600160a01b038216602482015260009073__$a5a42e46683ad9c79b7b86d5ff60fdf4c1$__906391d1485490604401602060405180830381865af4158015610e5b573d6000803e3d6000fd5b60606112db611ef3565b6004018054610a3890612909565b6112f161200f565b336112fa611ef3565b600101546001600160a01b0316146113245760405162461bcd60e51b815260040161079c906128c6565b6001600160a01b0383166113905760405162461bcd60e51b815260206004820152602d60248201527f4e54455243323041737365743a2063616e6e6f74207265766f6b652066726f6d60448201526c207a65726f206164647265737360981b606482015260840161079c565b600061139e82840184612a4c565b90506000811161140e5760405162461bcd60e51b815260206004820152603560248201527f4e54455243323041737365743a207265766f6b6520616d6f756e74206d7573746044820152742062652067726561746572207468616e207a65726f60581b606482015260840161079c565b8061141885610fa0565b101561147b5760405162461bcd60e51b815260206004820152602c60248201527f4e54455243323041737365743a20696e73756666696369656e742062616c616e60448201526b636520746f207265766f6b6560a01b606482015260840161079c565b6114858482612039565b506114906001600055565b505050565b60006001600160a01b0384166114ff5760405162461bcd60e51b815260206004820152602960248201527f4e54455243323041737365743a2063616e6e6f74206d696e7420746f207a65726044820152686f206164647265737360b81b606482015260840161079c565b6000611509611e5d565b9050600061151984860186612a4c565b905081600101548183600201546115309190612a7b565b11156115885760405162461bcd60e51b815260206004820152602160248201527f4e54455243323041737365743a206d617820737570706c7920657863656564656044820152601960fa1b606482015260840161079c565b60405163c3c5a54760e01b81526001600160a01b0387811660048301527f0000000000000000000000000000000000000000000000000000000000000000169063c3c5a54790602401602060405180830381865afa1580156115ee573d6000803e3d6000fd5b505050506040513d601f19601f820116820180604052508101906116129190612943565b1561168d576000869050806001600160a01b031663181d939b6040518163ffffffff1660e01b8152600401602060405180830381865afa15801561165a573d6000803e3d6000fd5b505050506040513d601f19601f8201168201806040525081019061167e9190612943565b61168b5761168b87612073565b505b50600195945050505050565b336001600160a01b031673__$a5a42e46683ad9c79b7b86d5ff60fdf4c1$__638da5cb5b6040518163ffffffff1660e01b8152600401602060405180830381865af41580156116ec573d6000803e3d6000fd5b505050506040513d601f19601f820116820180604052508101906117109190612a2f565b6001600160a01b0316146117665760405162461bcd60e51b815260206004820152601f60248201527f426173654163636573733a207265737472696374656420746f206f776e657200604482015260640161079c565b6040516313af403560e01b81526001600160a01b038216600482015273__$a5a42e46683ad9c79b7b86d5ff60fdf4c1$__906313af40359060240160006040518083038186803b1580156117b957600080fd5b505af41580156117cd573d6000803e3d6000fd5b5050505050565b6000806117df611ef3565b600201546001600160a01b03169050801580610e7f575060405163eab4ad0360e01b81526001600160a01b0382169063eab4ad0390610e3e90869060040161299a565b61182a61200f565b33611833611ef3565b600101546001600160a01b03161461185d5760405162461bcd60e51b815260040161079c906128c6565b611868838383611495565b6118b45760405162461bcd60e51b815260206004820181905260248201527f4e54455243323041737365743a2063616e6e6f74206d696e7420746f6b656e73604482015260640161079c565b60006118c282840184612a4c565b90506114858482612241565b336001600160a01b037f000000000000000000000000000000000000000000000000000000000000000016146119165760405162461bcd60e51b815260040161079c906127d5565b6001611920611faa565b805460ff191691151591909117905560405133907f54ca6a4cb143be493713a7079cc0d6cdbbf0688ee68398b4354b056088f2cbf590600090a2565b604051630935e01b60e21b815233600482015273__$a5a42e46683ad9c79b7b86d5ff60fdf4c1$__906324d7806c90602401602060405180830381865af41580156119ab573d6000803e3d6000fd5b505050506040513d601f19601f820116820180604052508101906119cf9190612943565b6119eb5760405162461bcd60e51b815260040161079c90612965565b60405163d547741f60e01b8152600481018390526001600160a01b038216602482015273__$a5a42e46683ad9c79b7b86d5ff60fdf4c1$__9063d547741f90604401610da9565b6000611a3c611e5d565b6001600160a01b039384166000908152600491909101602090815260408083209490951682529290925250205490565b6000610e90611ef3565b604051630935e01b60e21b815233600482015273__$a5a42e46683ad9c79b7b86d5ff60fdf4c1$__906324d7806c90602401602060405180830381865af4158015611ac5573d6000803e3d6000fd5b505050506040513d601f19601f82011682018060405250810190611ae99190612943565b611b055760405162461bcd60e51b815260040161079c90612965565b60405163e8906a2d60e01b815273__$a5a42e46683ad9c79b7b86d5ff60fdf4c1$__9063e8906a2d90610da990859085906004016129e1565b6000611b48611ef3565b60018101549091506001600160a01b031615611bb05760405162461bcd60e51b815260206004820152602160248201527f4e54455243323041737365743a20616c726561647920696e697469616c697a656044820152601960fa1b606482015260840161079c565b60408201516001600160a01b0316611c1e5760405162461bcd60e51b815260206004820152602b60248201527f4e54455243323041737365743a206973737565722063616e6e6f74206265207a60448201526a65726f206164647265737360a81b606482015260840161079c565b815151611c785760405162461bcd60e51b815260206004820152602260248201527f4e54455243323041737365743a206e616d652063616e6e6f7420626520656d70604482015261747960f01b606482015260840161079c565b600082602001515111611cd95760405162461bcd60e51b8152602060048201526024808201527f4e54455243323041737365743a2073796d626f6c2063616e6e6f7420626520656044820152636d70747960e01b606482015260840161079c565b60608201516001600160a01b0316611d4f5760405162461bcd60e51b815260206004820152603360248201527f4e54455243323041737365743a206f726967696e20616464726573732063616e6044820152726e6f74206265207a65726f206164647265737360681b606482015260840161079c565b6000826080015111611dc95760405162461bcd60e51b815260206004820152603760248201527f4e54455243323041737365743a206f726967696e20636861696e206964206d7560448201527f73742062652067726561746572207468616e207a65726f000000000000000000606482015260840161079c565b8151611dd3611f4e565b90611dde9082612ad6565b5060408201516001820180546001600160a01b0319166001600160a01b039283161790556060830151825462010000600160b01b0319166201000091909216021781556080820151600382015560208201516004820190611e3f9082612ad6565b506001611e4a611faa565b805460ff19169115159190911790555050565b60408051808201909152601981527f78722e65726332302e61737365742e73746f726167652e76310000000000000060209091015260008060ff611ec260017f3139feec972a01e581c6c4f7f95f108002217f0982e61e19cad72b737ad6c32a612b96565b604051602001611ed491815260200190565b60408051601f1981840301815291905280516020909101201692915050565b60408051808201909152601381527278722e61737365742e73746f726167652e763160681b60209091015260008060ff611ec260017f0db46b7c34197dfe4fa603e9c17ca5ed137d4afe720a374e843bbcf1431eaeb7612b96565b60408051808201909152601481527378722e656e746974792e73746f726167652e763160601b60209091015260008060ff611ec260017fdefc82a28b6578c2a63b29b15450260a5e998242a6300b7fcb30814ee74ae188612b96565b60408051808201909152601881527f78722e61637469766174696f6e2e73746f726167652e7631000000000000000060209091015260008060ff611ec260017ff6611e962a52dbc98dd0485088d920890c43e26113c61976f6e171a29d49ce49612b96565b60026000540361203257604051633ee5aeb560e01b815260040160405180910390fd5b6002600055565b6001600160a01b03821661206357604051634b637e8f60e11b81526000600482015260240161079c565b61206f826000836122b1565b5050565b6000816001600160a01b031663516f279e6040518163ffffffff1660e01b8152600401602060405180830381865afa1580156120b3573d6000803e3d6000fd5b505050506040513d601f19601f820116820180604052508101906120d79190612a2f565b90506001600160a01b0381166121395760405162461bcd60e51b815260206004820152602160248201527f4261736541737365743a2061766174617220686173206e6f206c6f636174696f6044820152603760f91b606482015260840161079c565b80612142611ef3565b6001015460408051636904c94d60e01b815290516001600160a01b0392831692841691636904c94d9160048083019260209291908290030181865afa15801561218f573d6000803e3d6000fd5b505050506040513d601f19601f820116820180604052508101906121b39190612a2f565b6001600160a01b0316146114905760405162461bcd60e51b815260206004820152604960248201527f4261736541737365743a2061766174617220646f6573206e6f7420616c6c6f7760448201527f20617373657473206f757473696465206f66206974732063757272656e7420656064820152687870657269656e636560b81b608482015260a40161079c565b6001600160a01b03821661226b5760405163ec442f0560e01b81526000600482015260240161079c565b612277600083836122b1565b60405181906001600160a01b038416907f1f98ee45d72cac8271cfd41cc599153bf1465afc3fc1f0b3e2a97b8f1c4253a990600090a35050565b60006122bb611e5d565b90506001600160a01b0384166122ea57818160020160008282546122df9190612a7b565b909155506123609050565b6001600160a01b03841660009081526003820160205260409020548281101561233f5760405163391434e360e21b81526001600160a01b0386166004820152602481018290526044810184905260640161079c565b6001600160a01b038516600090815260038301602052604090209083900390555b6001600160a01b03831661237e57600281018054839003905561239f565b6001600160a01b038316600090815260038201602052604090208054830190555b826001600160a01b0316846001600160a01b03167fddf252ad1be2c89b69c2b068fc378daa952ba7f163c4a11628f55a4df523b3ef846040516123e491815260200190565b60405180910390a350505050565b60006020828403121561240457600080fd5b813567ffffffffffffffff81111561241b57600080fd5b820160c08185031215610e7f57600080fd5b60006020808352835180602085015260005b8181101561245b5785810183015185820160400152820161243f565b506000604082860101526040601f19601f8301168501019250505092915050565b6001600160a01b038116811461249157600080fd5b50565b600080604083850312156124a757600080fd5b82356124b28161247c565b946020939093013593505050565b6000806000606084860312156124d557600080fd5b83356124e08161247c565b925060208401356124f08161247c565b929592945050506040919091013590565b60006020828403121561251357600080fd5b8135610e7f8161247c565b634e487b7160e01b600052604160045260246000fd5b60006020828403121561254657600080fd5b813567ffffffffffffffff8082111561255e57600080fd5b818401915084601f83011261257257600080fd5b8135818111156125845761258461251e565b604051601f8201601f19908116603f011681019083821181831017156125ac576125ac61251e565b816040528281528760208487010111156125c557600080fd5b826020860160208301376000928101602001929092525095945050505050565b600080604083850312156125f857600080fd5b82359150602083013561260a8161247c565b809150509250929050565b600060a0828403121561262757600080fd5b60405160a0810181811067ffffffffffffffff8211171561264a5761264a61251e565b60405282356126588161247c565b815260208301356126688161247c565b6020820152604083013561267b8161247c565b6040820152606083013561268e8161247c565b606082015260808301356126a18161247c565b60808201529392505050565b600080602083850312156126c057600080fd5b823567ffffffffffffffff808211156126d857600080fd5b818501915085601f8301126126ec57600080fd5b8135818111156126fb57600080fd5b8660208260051b850101111561271057600080fd5b60209290920196919550909350505050565b60008060006040848603121561273757600080fd5b83356127428161247c565b9250602084013567ffffffffffffffff8082111561275f57600080fd5b818601915086601f83011261277357600080fd5b81358181111561278257600080fd5b87602082850101111561279457600080fd5b6020830194508093505050509250925092565b600080604083850312156127ba57600080fd5b82356127c58161247c565b9150602083013561260a8161247c565b60208082526025908201527f52656d6f7661626c65456e746974793a206f6e6c79206f776e696e6720726567604082015264697374727960d81b606082015260800190565b6000808335601e1984360301811261283157600080fd5b83018035915067ffffffffffffffff82111561284c57600080fd5b60200191503681900382131561286157600080fd5b9250929050565b60006040828403121561287a57600080fd5b6040516040810181811067ffffffffffffffff8211171561289d5761289d61251e565b604052823560ff811681146128b157600080fd5b81526020928301359281019290925250919050565b60208082526023908201527f4261736541737365743a2063616c6c6572206973206e6f7420746865206973736040820152623ab2b960e91b606082015260800190565b600181811c9082168061291d57607f821691505b60208210810361293d57634e487b7160e01b600052602260045260246000fd5b50919050565b60006020828403121561295557600080fd5b81518015158114610e7f57600080fd5b6020808252818101527f426173654163636573733a207265737472696374656420746f2061646d696e73604082015260600190565b81516001600160a01b039081168252602080840151821690830152604080840151821690830152606080840151821690830152608092830151169181019190915260a00190565b60208082528181018390526000908460408401835b86811015612a24578235612a098161247c565b6001600160a01b0316825291830191908301906001016129f6565b509695505050505050565b600060208284031215612a4157600080fd5b8151610e7f8161247c565b600060208284031215612a5e57600080fd5b5035919050565b634e487b7160e01b600052601160045260246000fd5b80820180821115610c3357610c33612a65565b601f821115611490576000816000526020600020601f850160051c81016020861015612ab75750805b601f850160051c820191505b81811015610dd557828155600101612ac3565b815167ffffffffffffffff811115612af057612af061251e565b612b0481612afe8454612909565b84612a8e565b602080601f831160018114612b395760008415612b215750858301515b600019600386901b1c1916600185901b178555610dd5565b600085815260208120601f198616915b82811015612b6857888601518255948401946001909101908401612b49565b5085821015612b865787850151600019600388901b60f8161c191681555b5050505050600190811b01905550565b81810381811115610c3357610c33612a6556fea2646970667358221220085afb7473a7ceadec181dbfa7af12ca227790b9651be847b3d813b33998314464736f6c63430008180033",
  "linkReferences": {
    "contracts/libraries/LibAccess.sol": {
      "LibAccess": [
        {
          "length": 20,
          "start": 3714
        },
        {
          "length": 20,
          "start": 3994
        },
        {
          "length": 20,
          "start": 4153
        },
        {
          "length": 20,
          "start": 4763
        },
        {
          "length": 20,
          "start": 5110
        },
        {
          "length": 20,
          "start": 5247
        },
        {
          "length": 20,
          "start": 5293
        },
        {
          "length": 20,
          "start": 5445
        },
        {
          "length": 20,
          "start": 6483
        },
        {
          "length": 20,
          "start": 6706
        },
        {
          "length": 20,
          "start": 7199
        },
        {
          "length": 20,
          "start": 7358
        },
        {
          "length": 20,
          "start": 7481
        },
        {
          "length": 20,
          "start": 7618
        }
      ]
    }
  },
  "deployedLinkReferences": {
    "contracts/libraries/LibAccess.sol": {
      "LibAccess": [
        {
          "length": 20,
          "start": 3028
        },
        {
          "length": 20,
          "start": 3308
        },
        {
          "length": 20,
          "start": 3467
        },
        {
          "length": 20,
          "start": 4077
        },
        {
          "length": 20,
          "start": 4424
        },
        {
          "length": 20,
          "start": 4561
        },
        {
          "length": 20,
          "start": 4607
        },
        {
          "length": 20,
          "start": 4759
        },
        {
          "length": 20,
          "start": 5797
        },
        {
          "length": 20,
          "start": 6020
        },
        {
          "length": 20,
          "start": 6513
        },
        {
          "length": 20,
          "start": 6672
        },
        {
          "length": 20,
          "start": 6795
        },
        {
          "length": 20,
          "start": 6932
        }
      ]
    }
  }
}