{
  "_format": "hh-sol-artifact-1",
  "contractName": "NTERC721Asset",
  "sourceName": "contracts/asset/erc721/NTERC721Asset.sol",
  "abi": [
    {
      "inputs": [
        {
          "components": [
            {
              "internalType": "address",
              "name": "assetFactory",
              "type": "address"
            },
            {
              "internalType": "address",
              "name": "assetRegistry",
              "type": "address"
            },
            {
              "internalType": "address",
              "name": "avatarRegistry",
              "type": "address"
            },
            {
              "internalType": "address",
              "name": "companyRegistry",
              "type": "address"
            }
          ],
          "internalType": "struct BaseAssetArgs",
          "name": "args",
          "type": "tuple"
        }
      ],
      "stateMutability": "nonpayable",
      "type": "constructor"
    },
    {
      "inputs": [
        {
          "internalType": "address",
          "name": "sender",
          "type": "address"
        },
        {
          "internalType": "uint256",
          "name": "tokenId",
          "type": "uint256"
        },
        {
          "internalType": "address",
          "name": "owner",
          "type": "address"
        }
      ],
      "name": "ERC721IncorrectOwner",
      "type": "error"
    },
    {
      "inputs": [
        {
          "internalType": "address",
          "name": "operator",
          "type": "address"
        },
        {
          "internalType": "uint256",
          "name": "tokenId",
          "type": "uint256"
        }
      ],
      "name": "ERC721InsufficientApproval",
      "type": "error"
    },
    {
      "inputs": [
        {
          "internalType": "address",
          "name": "approver",
          "type": "address"
        }
      ],
      "name": "ERC721InvalidApprover",
      "type": "error"
    },
    {
      "inputs": [
        {
          "internalType": "address",
          "name": "operator",
          "type": "address"
        }
      ],
      "name": "ERC721InvalidOperator",
      "type": "error"
    },
    {
      "inputs": [
        {
          "internalType": "address",
          "name": "owner",
          "type": "address"
        }
      ],
      "name": "ERC721InvalidOwner",
      "type": "error"
    },
    {
      "inputs": [
        {
          "internalType": "address",
          "name": "receiver",
          "type": "address"
        }
      ],
      "name": "ERC721InvalidReceiver",
      "type": "error"
    },
    {
      "inputs": [
        {
          "internalType": "address",
          "name": "sender",
          "type": "address"
        }
      ],
      "name": "ERC721InvalidSender",
      "type": "error"
    },
    {
      "inputs": [
        {
          "internalType": "uint256",
          "name": "tokenId",
          "type": "uint256"
        }
      ],
      "name": "ERC721NonexistentToken",
      "type": "error"
    },
    {
      "inputs": [],
      "name": "ReentrancyGuardReentrantCall",
      "type": "error"
    },
    {
      "anonymous": false,
      "inputs": [
        {
          "indexed": true,
          "internalType": "address",
          "name": "owner",
          "type": "address"
        },
        {
          "indexed": true,
          "internalType": "address",
          "name": "approved",
          "type": "address"
        },
        {
          "indexed": true,
          "internalType": "uint256",
          "name": "tokenId",
          "type": "uint256"
        }
      ],
      "name": "Approval",
      "type": "event"
    },
    {
      "anonymous": false,
      "inputs": [
        {
          "indexed": true,
          "internalType": "address",
          "name": "owner",
          "type": "address"
        },
        {
          "indexed": true,
          "internalType": "address",
          "name": "operator",
          "type": "address"
        },
        {
          "indexed": false,
          "internalType": "bool",
          "name": "approved",
          "type": "bool"
        }
      ],
      "name": "ApprovalForAll",
      "type": "event"
    },
    {
      "anonymous": false,
      "inputs": [
        {
          "indexed": true,
          "internalType": "address",
          "name": "condition",
          "type": "address"
        }
      ],
      "name": "AssetConditionAdded",
      "type": "event"
    },
    {
      "anonymous": false,
      "inputs": [
        {
          "indexed": true,
          "internalType": "address",
          "name": "condition",
          "type": "address"
        }
      ],
      "name": "AssetConditionRemoved",
      "type": "event"
    },
    {
      "anonymous": false,
      "inputs": [
        {
          "indexed": true,
          "internalType": "address",
          "name": "hook",
          "type": "address"
        }
      ],
      "name": "AssetHookAdded",
      "type": "event"
    },
    {
      "anonymous": false,
      "inputs": [
        {
          "indexed": true,
          "internalType": "address",
          "name": "hook",
          "type": "address"
        }
      ],
      "name": "AssetHookRemoved",
      "type": "event"
    },
    {
      "anonymous": false,
      "inputs": [
        {
          "indexed": true,
          "internalType": "address",
          "name": "to",
          "type": "address"
        },
        {
          "indexed": true,
          "internalType": "uint256",
          "name": "tokenId",
          "type": "uint256"
        }
      ],
      "name": "ERC721Minted",
      "type": "event"
    },
    {
      "anonymous": false,
      "inputs": [
        {
          "indexed": true,
          "internalType": "address",
          "name": "oldAsset",
          "type": "address"
        },
        {
          "indexed": true,
          "internalType": "address",
          "name": "newAsset",
          "type": "address"
        }
      ],
      "name": "ERC721Upgraded",
      "type": "event"
    },
    {
      "anonymous": false,
      "inputs": [],
      "name": "HookRemoved",
      "type": "event"
    },
    {
      "anonymous": false,
      "inputs": [
        {
          "indexed": false,
          "internalType": "address",
          "name": "hook",
          "type": "address"
        }
      ],
      "name": "HookSet",
      "type": "event"
    },
    {
      "anonymous": false,
      "inputs": [
        {
          "indexed": true,
          "internalType": "address",
          "name": "from",
          "type": "address"
        },
        {
          "indexed": true,
          "internalType": "address",
          "name": "to",
          "type": "address"
        },
        {
          "indexed": true,
          "internalType": "uint256",
          "name": "tokenId",
          "type": "uint256"
        }
      ],
      "name": "Transfer",
      "type": "event"
    },
    {
      "inputs": [
        {
          "internalType": "contract IAssetCondition",
          "name": "condition",
          "type": "address"
        }
      ],
      "name": "addCondition",
      "outputs": [],
      "stateMutability": "nonpayable",
      "type": "function"
    },
    {
      "inputs": [
        {
          "internalType": "address",
          "name": "",
          "type": "address"
        },
        {
          "internalType": "uint256",
          "name": "",
          "type": "uint256"
        }
      ],
      "name": "approve",
      "outputs": [],
      "stateMutability": "nonpayable",
      "type": "function"
    },
    {
      "inputs": [],
      "name": "assetFactory",
      "outputs": [
        {
          "internalType": "address",
          "name": "",
          "type": "address"
        }
      ],
      "stateMutability": "view",
      "type": "function"
    },
    {
      "inputs": [],
      "name": "assetRegistry",
      "outputs": [
        {
          "internalType": "address",
          "name": "",
          "type": "address"
        }
      ],
      "stateMutability": "view",
      "type": "function"
    },
    {
      "inputs": [],
      "name": "avatarRegistry",
      "outputs": [
        {
          "internalType": "contract IAvatarRegistry",
          "name": "",
          "type": "address"
        }
      ],
      "stateMutability": "view",
      "type": "function"
    },
    {
      "inputs": [
        {
          "internalType": "address",
          "name": "owner",
          "type": "address"
        }
      ],
      "name": "balanceOf",
      "outputs": [
        {
          "internalType": "uint256",
          "name": "",
          "type": "uint256"
        }
      ],
      "stateMutability": "view",
      "type": "function"
    },
    {
      "inputs": [
        {
          "internalType": "address",
          "name": "to",
          "type": "address"
        },
        {
          "internalType": "bytes",
          "name": "",
          "type": "bytes"
        }
      ],
      "name": "canMint",
      "outputs": [
        {
          "internalType": "bool",
          "name": "",
          "type": "bool"
        }
      ],
      "stateMutability": "view",
      "type": "function"
    },
    {
      "inputs": [
        {
          "components": [
            {
              "internalType": "address",
              "name": "asset",
              "type": "address"
            },
            {
              "internalType": "address",
              "name": "world",
              "type": "address"
            },
            {
              "internalType": "address",
              "name": "company",
              "type": "address"
            },
            {
              "internalType": "address",
              "name": "experience",
              "type": "address"
            },
            {
              "internalType": "address",
              "name": "avatar",
              "type": "address"
            }
          ],
          "internalType": "struct AssetCheckArgs",
          "name": "args",
          "type": "tuple"
        }
      ],
      "name": "canUseAsset",
      "outputs": [
        {
          "internalType": "bool",
          "name": "",
          "type": "bool"
        }
      ],
      "stateMutability": "view",
      "type": "function"
    },
    {
      "inputs": [
        {
          "components": [
            {
              "internalType": "address",
              "name": "asset",
              "type": "address"
            },
            {
              "internalType": "address",
              "name": "world",
              "type": "address"
            },
            {
              "internalType": "address",
              "name": "company",
              "type": "address"
            },
            {
              "internalType": "address",
              "name": "experience",
              "type": "address"
            },
            {
              "internalType": "address",
              "name": "avatar",
              "type": "address"
            }
          ],
          "internalType": "struct AssetCheckArgs",
          "name": "args",
          "type": "tuple"
        }
      ],
      "name": "canViewAsset",
      "outputs": [
        {
          "internalType": "bool",
          "name": "",
          "type": "bool"
        }
      ],
      "stateMutability": "view",
      "type": "function"
    },
    {
      "inputs": [],
      "name": "companyRegistry",
      "outputs": [
        {
          "internalType": "contract ICompanyRegistry",
          "name": "",
          "type": "address"
        }
      ],
      "stateMutability": "view",
      "type": "function"
    },
    {
      "inputs": [
        {
          "components": [
            {
              "internalType": "address",
              "name": "issuer",
              "type": "address"
            },
            {
              "internalType": "address",
              "name": "originChainAddress",
              "type": "address"
            },
            {
              "internalType": "uint256",
              "name": "originChainId",
              "type": "uint256"
            },
            {
              "internalType": "string",
              "name": "name",
              "type": "string"
            },
            {
              "internalType": "string",
              "name": "symbol",
              "type": "string"
            },
            {
              "internalType": "string",
              "name": "baseURI",
              "type": "string"
            }
          ],
          "internalType": "struct ERC721InitData",
          "name": "data",
          "type": "tuple"
        }
      ],
      "name": "encodeInitData",
      "outputs": [
        {
          "internalType": "bytes",
          "name": "",
          "type": "bytes"
        }
      ],
      "stateMutability": "pure",
      "type": "function"
    },
    {
      "inputs": [
        {
          "internalType": "uint256",
          "name": "tokenId",
          "type": "uint256"
        }
      ],
      "name": "getApproved",
      "outputs": [
        {
          "internalType": "address",
          "name": "",
          "type": "address"
        }
      ],
      "stateMutability": "view",
      "type": "function"
    },
    {
      "inputs": [],
      "name": "hook",
      "outputs": [
        {
          "internalType": "address",
          "name": "",
          "type": "address"
        }
      ],
      "stateMutability": "view",
      "type": "function"
    },
    {
      "inputs": [
        {
          "internalType": "bytes",
          "name": "initData",
          "type": "bytes"
        }
      ],
      "name": "init",
      "outputs": [],
      "stateMutability": "nonpayable",
      "type": "function"
    },
    {
      "inputs": [
        {
          "internalType": "address",
          "name": "owner",
          "type": "address"
        },
        {
          "internalType": "address",
          "name": "operator",
          "type": "address"
        }
      ],
      "name": "isApprovedForAll",
      "outputs": [
        {
          "internalType": "bool",
          "name": "",
          "type": "bool"
        }
      ],
      "stateMutability": "view",
      "type": "function"
    },
    {
      "inputs": [],
      "name": "issuer",
      "outputs": [
        {
          "internalType": "address",
          "name": "",
          "type": "address"
        }
      ],
      "stateMutability": "view",
      "type": "function"
    },
    {
      "inputs": [
        {
          "internalType": "address",
          "name": "to",
          "type": "address"
        },
        {
          "internalType": "bytes",
          "name": "data",
          "type": "bytes"
        }
      ],
      "name": "mint",
      "outputs": [],
      "stateMutability": "nonpayable",
      "type": "function"
    },
    {
      "inputs": [],
      "name": "name",
      "outputs": [
        {
          "internalType": "string",
          "name": "",
          "type": "string"
        }
      ],
      "stateMutability": "view",
      "type": "function"
    },
    {
      "inputs": [],
      "name": "originAddress",
      "outputs": [
        {
          "internalType": "address",
          "name": "",
          "type": "address"
        }
      ],
      "stateMutability": "view",
      "type": "function"
    },
    {
      "inputs": [],
      "name": "originChainId",
      "outputs": [
        {
          "internalType": "uint256",
          "name": "",
          "type": "uint256"
        }
      ],
      "stateMutability": "view",
      "type": "function"
    },
    {
      "inputs": [
        {
          "internalType": "uint256",
          "name": "tokenId",
          "type": "uint256"
        }
      ],
      "name": "ownerOf",
      "outputs": [
        {
          "internalType": "address",
          "name": "",
          "type": "address"
        }
      ],
      "stateMutability": "view",
      "type": "function"
    },
    {
      "inputs": [],
      "name": "removeCondition",
      "outputs": [],
      "stateMutability": "nonpayable",
      "type": "function"
    },
    {
      "inputs": [],
      "name": "removeHook",
      "outputs": [],
      "stateMutability": "nonpayable",
      "type": "function"
    },
    {
      "inputs": [
        {
          "internalType": "address",
          "name": "holder",
          "type": "address"
        },
        {
          "internalType": "bytes",
          "name": "data",
          "type": "bytes"
        }
      ],
      "name": "revoke",
      "outputs": [],
      "stateMutability": "nonpayable",
      "type": "function"
    },
    {
      "inputs": [
        {
          "internalType": "address",
          "name": "from",
          "type": "address"
        },
        {
          "internalType": "address",
          "name": "to",
          "type": "address"
        },
        {
          "internalType": "uint256",
          "name": "tokenId",
          "type": "uint256"
        }
      ],
      "name": "safeTransferFrom",
      "outputs": [],
      "stateMutability": "nonpayable",
      "type": "function"
    },
    {
      "inputs": [
        {
          "internalType": "address",
          "name": "",
          "type": "address"
        },
        {
          "internalType": "address",
          "name": "",
          "type": "address"
        },
        {
          "internalType": "uint256",
          "name": "",
          "type": "uint256"
        },
        {
          "internalType": "bytes",
          "name": "",
          "type": "bytes"
        }
      ],
      "name": "safeTransferFrom",
      "outputs": [],
      "stateMutability": "nonpayable",
      "type": "function"
    },
    {
      "inputs": [
        {
          "internalType": "address",
          "name": "",
          "type": "address"
        },
        {
          "internalType": "bool",
          "name": "",
          "type": "bool"
        }
      ],
      "name": "setApprovalForAll",
      "outputs": [],
      "stateMutability": "nonpayable",
      "type": "function"
    },
    {
      "inputs": [
        {
          "internalType": "address",
          "name": "_hook",
          "type": "address"
        }
      ],
      "name": "setHook",
      "outputs": [],
      "stateMutability": "nonpayable",
      "type": "function"
    },
    {
      "inputs": [
        {
          "internalType": "bytes4",
          "name": "interfaceId",
          "type": "bytes4"
        }
      ],
      "name": "supportsInterface",
      "outputs": [
        {
          "internalType": "bool",
          "name": "",
          "type": "bool"
        }
      ],
      "stateMutability": "view",
      "type": "function"
    },
    {
      "inputs": [],
      "name": "symbol",
      "outputs": [
        {
          "internalType": "string",
          "name": "",
          "type": "string"
        }
      ],
      "stateMutability": "view",
      "type": "function"
    },
    {
      "inputs": [
        {
          "internalType": "uint256",
          "name": "tokenId",
          "type": "uint256"
        }
      ],
      "name": "tokenURI",
      "outputs": [
        {
          "internalType": "string",
          "name": "",
          "type": "string"
        }
      ],
      "stateMutability": "view",
      "type": "function"
    },
    {
      "inputs": [
        {
          "internalType": "address",
          "name": "",
          "type": "address"
        },
        {
          "internalType": "address",
          "name": "",
          "type": "address"
        },
        {
          "internalType": "uint256",
          "name": "",
          "type": "uint256"
        }
      ],
      "name": "transferFrom",
      "outputs": [],
      "stateMutability": "nonpayable",
      "type": "function"
    },
    {
      "inputs": [
        {
          "internalType": "bytes",
          "name": "data",
          "type": "bytes"
        }
      ],
      "name": "upgrade",
      "outputs": [
        {
          "internalType": "address",
          "name": "",
          "type": "address"
        }
      ],
      "stateMutability": "nonpayable",
      "type": "function"
    },
    {
      "inputs": [
        {
          "internalType": "address",
          "name": "nextVersion",
          "type": "address"
        }
      ],
      "name": "upgradeComplete",
      "outputs": [],
      "stateMutability": "nonpayable",
      "type": "function"
    },
    {
      "inputs": [],
      "name": "version",
      "outputs": [
        {
          "internalType": "uint256",
          "name": "",
          "type": "uint256"
        }
      ],
      "stateMutability": "view",
      "type": "function"
    }
  ],
  "bytecode": "0x6101006040523480156200001257600080fd5b506040516200370938038062003709833981016040819052620000359162000255565b6001600055805181906001600160a01b0316620000ad5760405162461bcd60e51b815260206004820152602b60248201527f4261736541737365743a206173736574466163746f727920697320746865207a60448201526a65726f206164647265737360a81b60648201526084015b60405180910390fd5b60208101516001600160a01b03166200011e5760405162461bcd60e51b815260206004820152602c60248201527f4261736541737365743a2061737365745265676973747279206973207468652060448201526b7a65726f206164647265737360a01b6064820152608401620000a4565b60408101516001600160a01b0316620001905760405162461bcd60e51b815260206004820152602d60248201527f4261736541737365743a2061766174617252656769737472792069732074686560448201526c207a65726f206164647265737360981b6064820152608401620000a4565b60608101516001600160a01b0316620002035760405162461bcd60e51b815260206004820152602e60248201527f4261736541737365743a20636f6d70616e79526567697374727920697320746860448201526d65207a65726f206164647265737360901b6064820152608401620000a4565b80516001600160a01b039081166080526020820151811660a0526040820151811660c0526060909101511660e05250620002e9565b80516001600160a01b03811681146200025057600080fd5b919050565b6000608082840312156200026857600080fd5b604051608081016001600160401b03811182821017156200029957634e487b7160e01b600052604160045260246000fd5b604052620002a78362000238565b8152620002b76020840162000238565b6020820152620002ca6040840162000238565b6040820152620002dd6060840162000238565b60608201529392505050565b60805160a05160c05160e0516133bc6200034d600039600081816104a30152610eea0152600081816104dd015281816116bf015261181d0152600081816103ed01526108a301526000818161047c0152818161092f0152610de001526133bc6000f3fe608060405234801561001057600080fd5b50600436106102115760003560e01c806361f3fcb211610125578063b4e75b9b116100ad578063c51aba2b1161007c578063c51aba2b1461049e578063c87b56dd146104c5578063e3d7ad73146104d8578063e517fedd146104ff578063e985e9c51461052257600080fd5b8063b4e75b9b14610443578063b510391f14610456578063b88d4fde14610469578063c3acb4d11461047757600080fd5b806395d89b41116100f457806395d89b41146103e0578063979d7e86146103e85780639a9738441461040f5780639e54c0a214610422578063a22cb4651461043557600080fd5b806361f3fcb21461039f5780636352211e146103b257806370a08231146103c55780637f5a7c7b146103d857600080fd5b806323b872dd116101a85780633dfd3873116101775780633dfd38731461034b5780633fa47f171461035e57806342842e0e146103715780634ddf47d41461038457806354fd4d501461039757600080fd5b806323b872dd1461030f578063253946451461031d5780632663d1f714610330578063378f17ff1461034357600080fd5b8063095ea7b3116101e4578063095ea7b3146102885780630ac7f5611461029b5780631d143848146102cc57806322d34932146102fc57600080fd5b806301ffc9a714610216578063021665b71461023e57806306fdde0314610248578063081812fc1461025d575b600080fd5b6102296102243660046127ff565b610535565b60405190151581526020015b60405180910390f35b610246610587565b005b610250610645565b604051610235919061286c565b61027061026b36600461287f565b6106e7565b6040516001600160a01b039091168152602001610235565b6102466102963660046128bd565b6106fc565b7f2db204426804e067e91705d2dda6628a736fec9e9182470f68b797f52d49efa8545b604051908152602001610235565b7f2db204426804e067e91705d2dda6628a736fec9e9182470f68b797f52d49efa6546001600160a01b0316610270565b61024661030a3660046128e9565b610750565b610246610296366004612906565b61027061032b36600461298f565b610850565b61024661033e3660046128e9565b610924565b610246610a0d565b6102466103593660046128e9565b610ad0565b61022961036c366004612a3e565b610cf7565b61024661037f366004612906565b610db5565b610246610392366004612b52565b610dd5565b6102be600181565b6102506103ad366004612b86565b6112e6565b6102706103c036600461287f565b61130f565b6102be6103d33660046128e9565b61131a565b610270611381565b61025061140c565b6102707f000000000000000000000000000000000000000000000000000000000000000081565b61024661041d366004612c66565b61142b565b610229610430366004612c66565b611796565b610246610296366004612cc8565b610229610451366004612a3e565b611a5a565b610246610464366004612c66565b611ad7565b610246610296366004612d01565b6102707f000000000000000000000000000000000000000000000000000000000000000081565b6102707f000000000000000000000000000000000000000000000000000000000000000081565b6102506104d336600461287f565b611d16565b6102707f000000000000000000000000000000000000000000000000000000000000000081565b6000805160206133478339815191525461010090046001600160a01b0316610270565b610229610530366004612d6c565b611d7d565b60006001600160e01b031982166380ac58cd60e01b148061056657506001600160e01b03198216635b5e139f60e01b145b8061058157506001600160e01b031982166301ffc9a760e01b145b92915050565b600080516020613347833981519152600101546001600160a01b031633146105ca5760405162461bcd60e51b81526004016105c190612d9a565b60405180910390fd5b7f2db204426804e067e91705d2dda6628a736fec9e9182470f68b797f52d49efa754604051600080516020613347833981519152916001600160a01b03169081907f2df08b6a3a4aed918c51e7ac3bbbe4f82bb09d26fef89a0c23ddc38c1a3c385b90600090a25060020180546001600160a01b0319169055565b6060600080516020613347833981519152600401805461066490612dd1565b80601f016020809104026020016040519081016040528092919081815260200182805461069090612dd1565b80156106dd5780601f106106b2576101008083540402835291602001916106dd565b820191906000526020600020905b8154815290600101906020018083116106c057829003601f168201915b5050505050905090565b60006106f282611dca565b5061058182611e02565b60405162461bcd60e51b815260206004820152602360248201527f4e544552433732313a20746f6b656e206973206e6f6e2d7472616e7366657261604482015262626c6560e81b60648201526084016105c1565b600080516020613347833981519152600101546001600160a01b0316331461078a5760405162461bcd60e51b81526004016105c190612d9a565b6000805160206133478339815191526001600160a01b0382166108035760405162461bcd60e51b815260206004820152602b60248201527f4261736541737365743a20636f6e646974696f6e2063616e6e6f74206265207a60448201526a65726f206164647265737360a81b60648201526084016105c1565b6002810180546001600160a01b0319166001600160a01b0384169081179091556040517fb17f5e42ddd024b71620166aeff196e5f40a39a3d7fe8082929e768015fbf7c190600090a25050565b6000600080516020613347833981519152600101546001600160a01b0316331461088c5760405162461bcd60e51b81526004016105c190612d9a565b604051633cbd429360e01b81526001600160a01b037f00000000000000000000000000000000000000000000000000000000000000001690633cbd4293906108da9086908690600401612e0b565b6020604051808303816000875af11580156108f9573d6000803e3d6000fd5b505050506040513d601f19601f8201168201806040525081019061091d9190612e45565b9392505050565b336001600160a01b037f0000000000000000000000000000000000000000000000000000000000000000161461099c5760405162461bcd60e51b815260206004820152601f60248201527f4261736541737365743a206f6e6c7920666163746f727920616c6c6f7765640060448201526064016105c1565b7f69198989339f34e10129e514286bde98979351148754faef989dde18bf6d14da80546001600160a01b031981166001600160a01b03848116918217845560405192169182907f9603bf83c2911c6b0dd953eb62e0804c697e90855fa1007b93c0964cb39d8e1690600090a3505050565b610a1633611e3c565b610a325760405162461bcd60e51b81526004016105c190612e62565b60008051602061332783398151915260405163747aa1a560e11b8152600481019190915273__$b33bdc01aa0b2bf845e7e40ceebecaaf7e$__9063e8f5434a9060240160006040518083038186803b158015610a8d57600080fd5b505af4158015610aa1573d6000803e3d6000fd5b50506040517f4abf6d25887ff6b78026f569f956b6d57d5b92cecf0ee91d897ec98e47f656a3925060009150a1565b610ad933611e3c565b610af55760405162461bcd60e51b81526004016105c190612e62565b6001600160a01b038116610b5d5760405162461bcd60e51b815260206004820152602960248201527f42617365486f6f6b537570706f72743a20686f6f6b20697320746865207a65726044820152686f206164647265737360b81b60648201526084016105c1565b604051631627905560e01b81526001600160a01b038216600482015273__$b33bdc01aa0b2bf845e7e40ceebecaaf7e$__90631627905590602401602060405180830381865af4158015610bb5573d6000803e3d6000fd5b505050506040513d601f19601f82011682018060405250810190610bd99190612eaa565b610c355760405162461bcd60e51b815260206004820152602760248201527f42617365486f6f6b537570706f72743a20686f6f6b206973206e6f74206120636044820152661bdb9d1c9858dd60ca1b60648201526084016105c1565b600080516020613327833981519152604051630a8a5ef160e31b815260048101919091526001600160a01b038216602482015273__$b33bdc01aa0b2bf845e7e40ceebecaaf7e$__90635452f7889060440160006040518083038186803b158015610c9f57600080fd5b505af4158015610cb3573d6000803e3d6000fd5b50506040516001600160a01b03841681527f4eab7b127c764308788622363ad3e9532de3dfba7845bd4f84c125a22544255a9250602001905060405180910390a150565b7f2db204426804e067e91705d2dda6628a736fec9e9182470f68b797f52d49efa754600090600080516020613347833981519152906001600160a01b0316610d425750600192915050565b60028101546040516377b63b9160e11b81526001600160a01b039091169063ef6c772290610d74908690600401612ec7565b602060405180830381865afa158015610d91573d6000803e3d6000fd5b505050506040513d601f19601f8201168201806040525081019061091d9190612eaa565b610dd0838383604051806020016040528060008152506106fc565b505050565b336001600160a01b037f00000000000000000000000000000000000000000000000000000000000000001614610e4d5760405162461bcd60e51b815260206004820152601f60248201527f4261736541737365743a206f6e6c7920666163746f727920616c6c6f7765640060448201526064016105c1565b600081806020019051810190610e639190612f53565b80519091506001600160a01b0316610ec95760405162461bcd60e51b8152602060048201526024808201527f4e544552433732313a2069737375657220697320746865207a65726f206164646044820152637265737360e01b60648201526084016105c1565b8051604051632405672560e21b81526001600160a01b0391821660048201527f0000000000000000000000000000000000000000000000000000000000000000909116906390159c9490602401602060405180830381865afa158015610f33573d6000803e3d6000fd5b505050506040513d601f19601f82011682018060405250810190610f579190612eaa565b610fad5760405162461bcd60e51b815260206004820152602160248201527f4e544552433732313a20697373756572206973206e6f74206120636f6d70616e6044820152607960f81b60648201526084016105c1565b6000816060015151116110025760405162461bcd60e51b815260206004820152601760248201527f4e544552433732313a206e616d6520697320656d70747900000000000000000060448201526064016105c1565b6000816080015151116110575760405162461bcd60e51b815260206004820152601960248201527f4e544552433732313a2073796d626f6c20697320656d7074790000000000000060448201526064016105c1565b60008160a0015151116110ac5760405162461bcd60e51b815260206004820152601a60248201527f4e544552433732313a206261736555524920697320656d70747900000000000060448201526064016105c1565b60208101516001600160a01b031661111f5760405162461bcd60e51b815260206004820152603060248201527f4e544552433732313a206f726967696e436861696e416464726573732069732060448201526f746865207a65726f206164647265737360801b60648201526084016105c1565b60008160400151116111735760405162461bcd60e51b815260206004820152601f60248201527f4e544552433732313a206f726967696e436861696e4964206973207a65726f0060448201526064016105c1565b600080516020613347833981519152546000805160206133678339815191529061010090046001600160a01b0316156111fa5760405162461bcd60e51b815260206004820152602360248201527f4e544552433732313a20617373657420616c726561647920696e697469616c696044820152621e995960ea1b60648201526084016105c1565b81516007820180546001600160a01b039283166001600160a01b031990911617905560208301516006830180549190921661010002610100600160a81b0319909116179055604082015160098201556060820151600a82019061125d9082613074565b506080820151600b8201906112729082613074565b5061129a8260a00151604051806040016040528060018152602001602f60f81b815250611e8a565b6112d5578160a001516040516020016112b39190613133565b60408051601f1981840301815291905281906112cf9082613074565b50505050565b60a082015181906112cf9082613074565b6060816040516020016112f99190613158565b6040516020818303038152906040529050919050565b600061058182611dca565b60006001600160a01b038216611346576040516322718ad960e21b8152600060048201526024016105c1565b506001600160a01b031660009081527f2db204426804e067e91705d2dda6628a736fec9e9182470f68b797f52d49efa2602052604090205490565b60006000805160206133278339815191526040516364cff67f60e11b8152600481019190915273__$b33bdc01aa0b2bf845e7e40ceebecaaf7e$__9063c99fecfe90602401602060405180830381865af41580156113e3573d6000803e3d6000fd5b505050506040513d601f19601f820116820180604052508101906114079190612e45565b905090565b6060600080516020613347833981519152600501805461066490612dd1565b611433611ef5565b600080516020613347833981519152600101546001600160a01b0316331461146d5760405162461bcd60e51b81526004016105c190612d9a565b600061147b8284018461287f565b90506001600160a01b0384166114df5760405162461bcd60e51b815260206004820152602360248201527f4e5445524337323141737365743a20746f6b656e20646f6573206e6f742065786044820152621a5cdd60ea1b60648201526084016105c1565b836001600160a01b03166114f282611f1f565b6001600160a01b0316146115625760405162461bcd60e51b815260206004820152603160248201527f4e5445524337323141737365743a206e6f7420746865206f776e6572206f66206044820152701d1bdad95b881a59081c1c9bdd9a591959607a1b60648201526084016105c1565b60006000805160206133278339815191526040516364cff67f60e11b8152600481019190915273__$b33bdc01aa0b2bf845e7e40ceebecaaf7e$__9063c99fecfe90602401602060405180830381865af41580156115c4573d6000803e3d6000fd5b505050506040513d601f19601f820116820180604052508101906115e89190612e45565b90506001600160a01b03811615611697576040516335661e9560e21b81523060048201526001600160a01b038681166024830152604482018490526000919083169063d5987a54906064016020604051808303816000875af1158015611652573d6000803e3d6000fd5b505050506040513d601f19601f820116820180604052508101906116769190612eaa565b9050806116955760405162461bcd60e51b81526004016105c1906131e3565b505b6116a082611f59565b604051632b0fe8e760e21b81526001600160a01b0386811660048301527f0000000000000000000000000000000000000000000000000000000000000000169063ac3fa39c90602401602060405180830381865afa158015611706573d6000803e3d6000fd5b505050506040513d601f19601f8201168201806040525081019061172a9190612eaa565b1561178a5760405163e62194f160e01b8152600481018390526001600160a01b0386169063e62194f190602401600060405180830381600087803b15801561177157600080fd5b505af1158015611785573d6000803e3d6000fd5b505050505b5050610dd06001600055565b60006001600160a01b0384166117fe5760405162461bcd60e51b815260206004820152602760248201527f4e5445524337323141737365743a206d696e7420746f20746865207a65726f206044820152666164647265737360c81b60648201526084016105c1565b604051632b0fe8e760e21b81526001600160a01b0385811660048301527f0000000000000000000000000000000000000000000000000000000000000000169063ac3fa39c90602401602060405180830381865afa158015611864573d6000803e3d6000fd5b505050506040513d601f19601f820116820180604052508101906118889190612eaa565b15611903576000849050806001600160a01b031663181d939b6040518163ffffffff1660e01b8152600401602060405180830381865afa1580156118d0573d6000803e3d6000fd5b505050506040513d601f19601f820116820180604052508101906118f49190612eaa565b6119015761190185611f98565b505b6000600080516020613367833981519152905060006000805160206133278339815191526040516364cff67f60e11b8152600481019190915273__$b33bdc01aa0b2bf845e7e40ceebecaaf7e$__9063c99fecfe90602401602060405180830381865af4158015611978573d6000803e3d6000fd5b505050506040513d601f19601f8201168201806040525081019061199c9190612e45565b90506001600160a01b03811615611a4e57806001600160a01b031663624a7dc73088856001015460016119cf9190613248565b6040516001600160e01b031960e086901b1681526001600160a01b0393841660048201529290911660248301526044820152606401602060405180830381865afa158015611a21573d6000803e3d6000fd5b505050506040513d601f19601f82011682018060405250810190611a459190612eaa565b9250505061091d565b50600195945050505050565b7f2db204426804e067e91705d2dda6628a736fec9e9182470f68b797f52d49efa754600090600080516020613347833981519152906001600160a01b0316611aa55750600192915050565b600281015460405163eab4ad0360e01b81526001600160a01b039091169063eab4ad0390610d74908690600401612ec7565b611adf611ef5565b600080516020613347833981519152600101546001600160a01b03163314611b195760405162461bcd60e51b81526004016105c190612d9a565b611b24838383611796565b611b7e5760405162461bcd60e51b815260206004820152602560248201527f4e5445524337323141737365743a2063616e6e6f74206d696e7420746f206164604482015264647265737360d81b60648201526084016105c1565b6000600080516020613367833981519152905060006000805160206133278339815191526040516364cff67f60e11b8152600481019190915273__$b33bdc01aa0b2bf845e7e40ceebecaaf7e$__9063c99fecfe90602401602060405180830381865af4158015611bf3573d6000803e3d6000fd5b505050506040513d601f19601f82011682018060405250810190611c179190612e45565b90506001600160a01b03811615611ce5576000816001600160a01b03166386b84187308886600101546001611c4c9190613248565b6040516001600160e01b031960e086901b1681526001600160a01b03938416600482015292909116602483015260448201526064016020604051808303816000875af1158015611ca0573d6000803e3d6000fd5b505050506040513d601f19601f82011682018060405250810190611cc49190612eaa565b905080611ce35760405162461bcd60e51b81526004016105c1906131e3565b505b8160010160008154611cf69061325b565b909155506001820154611d09868261216d565b505050610dd06001600055565b6060611d2182611dca565b506000611d2c612187565b90506000815111611d4c576040518060200160405280600081525061091d565b80611d56846121a3565b604051602001611d67929190613274565b6040516020818303038152906040529392505050565b6001600160a01b0391821660009081527f2db204426804e067e91705d2dda6628a736fec9e9182470f68b797f52d49efa46020908152604080832093909416825291909152205460ff1690565b600080611dd683611f1f565b90506001600160a01b03811661058157604051637e27328960e01b8152600481018490526024016105c1565b60009081527f2db204426804e067e91705d2dda6628a736fec9e9182470f68b797f52d49efa360205260409020546001600160a01b031690565b6000611e6f7f2db204426804e067e91705d2dda6628a736fec9e9182470f68b797f52d49efa6546001600160a01b031690565b6001600160a01b0316826001600160a01b0316149050919050565b6000815183511015801561091d575081600081518110611eac57611eac6132a3565b0160200151825184516001600160f81b0319909216918591611ecd916132b9565b81518110611edd57611edd6132a3565b01602001516001600160f81b03191614905092915050565b600260005403611f1857604051633ee5aeb560e01b815260040160405180910390fd5b6002600055565b60009081527f2db204426804e067e91705d2dda6628a736fec9e9182470f68b797f52d49efa160205260409020546001600160a01b031690565b6000611f686000836000612235565b90506001600160a01b038116611f9457604051637e27328960e01b8152600481018390526024016105c1565b5050565b6000816001600160a01b031663516f279e6040518163ffffffff1660e01b8152600401602060405180830381865afa158015611fd8573d6000803e3d6000fd5b505050506040513d601f19601f82011682018060405250810190611ffc9190612e45565b90506000805160206133478339815191526001600160a01b03821661206d5760405162461bcd60e51b815260206004820152602160248201527f4261736541737365743a2061766174617220686173206e6f206c6f636174696f6044820152603760f91b60648201526084016105c1565b600181015460408051636904c94d60e01b815290516001600160a01b0392831692851691636904c94d9160048083019260209291908290030181865afa1580156120bb573d6000803e3d6000fd5b505050506040513d601f19601f820116820180604052508101906120df9190612e45565b6001600160a01b031614610dd05760405162461bcd60e51b815260206004820152604960248201527f4261736541737365743a2061766174617220646f6573206e6f7420616c6c6f7760448201527f20617373657473206f757473696465206f66206974732063757272656e7420656064820152687870657269656e636560b81b608482015260a4016105c1565b611f9482826040518060200160405280600081525061233f565b6060600080516020613367833981519152805461066490612dd1565b606060006121b083612356565b60010190506000816001600160401b038111156121cf576121cf6129d0565b6040519080825280601f01601f1916602001820160405280156121f9576020820181803683370190505b5090508181016020015b600019016f181899199a1a9b1b9c1cb0b131b232b360811b600a86061a8153600a850494508461220357509392505050565b60008061224184611f1f565b90506000805160206133678339815191526001600160a01b0384161561226c5761226c82858761242e565b6001600160a01b038216156122ac57612289600086600080612492565b6001600160a01b0382166000908152600382016020526040902080546000190190555b6001600160a01b038616156122dd576001600160a01b03861660009081526003820160205260409020805460010190555b600085815260028201602052604080822080546001600160a01b0319166001600160a01b038a811691821790925591518893918616917fddf252ad1be2c89b69c2b068fc378daa952ba7f163c4a11628f55a4df523b3ef91a450949350505050565b61234983836125b7565b610dd06000848484612657565b60008072184f03e93ff9f4daa797ed6e38ed64bf6a1f0160401b83106123955772184f03e93ff9f4daa797ed6e38ed64bf6a1f0160401b830492506040015b6d04ee2d6d415b85acef810000000083106123c1576d04ee2d6d415b85acef8100000000830492506020015b662386f26fc1000083106123df57662386f26fc10000830492506010015b6305f5e10083106123f7576305f5e100830492506008015b612710831061240b57612710830492506004015b6064831061241d576064830492506002015b600a83106105815760010192915050565b612439838383612780565b610dd0576001600160a01b03831661246757604051637e27328960e01b8152600481018290526024016105c1565b60405163177e802f60e01b81526001600160a01b0383166004820152602481018290526044016105c1565b80806124a657506001600160a01b03821615155b156125685760006124b684611dca565b90506001600160a01b038316158015906124e25750826001600160a01b0316816001600160a01b031614155b80156124f557506124f38184611d7d565b155b1561251e5760405163a9fbf51f60e01b81526001600160a01b03841660048201526024016105c1565b81156125665783856001600160a01b0316826001600160a01b03167f8c5be1e5ebec7d5bd14f71427d1e84f3dd0314c0f7b2291e5b200ac8c7c3b92560405160405180910390a45b505b505060009081527f2db204426804e067e91705d2dda6628a736fec9e9182470f68b797f52d49efa36020526040902080546001600160a01b0319166001600160a01b0392909216919091179055565b6001600160a01b0382166125e157604051633250574960e11b8152600060048201526024016105c1565b60006125ef83836000612235565b90506001600160a01b0381161561261c576040516339e3563760e11b8152600060048201526024016105c1565b60405182906001600160a01b038516907f1292a1381d69fd0f033102672143fff68d426b4b73eb1fa4df2620aeed9a299490600090a3505050565b6001600160a01b0383163b156112cf57604051630a85bd0160e11b81526001600160a01b0384169063150b7a02906126999033908890879087906004016132cc565b6020604051808303816000875af19250505080156126d4575060408051601f3d908101601f191682019092526126d191810190613309565b60015b61273d573d808015612702576040519150601f19603f3d011682016040523d82523d6000602084013e612707565b606091505b50805160000361273557604051633250574960e11b81526001600160a01b03851660048201526024016105c1565b805181602001fd5b6001600160e01b03198116630a85bd0160e11b1461277957604051633250574960e11b81526001600160a01b03851660048201526024016105c1565b5050505050565b60006001600160a01b038316158015906127de5750826001600160a01b0316846001600160a01b031614806127ba57506127ba8484611d7d565b806127de5750826001600160a01b03166127d383611e02565b6001600160a01b0316145b949350505050565b6001600160e01b0319811681146127fc57600080fd5b50565b60006020828403121561281157600080fd5b813561091d816127e6565b60005b8381101561283757818101518382015260200161281f565b50506000910152565b6000815180845261285881602086016020860161281c565b601f01601f19169290920160200192915050565b60208152600061091d6020830184612840565b60006020828403121561289157600080fd5b5035919050565b6001600160a01b03811681146127fc57600080fd5b80356128b881612898565b919050565b600080604083850312156128d057600080fd5b82356128db81612898565b946020939093013593505050565b6000602082840312156128fb57600080fd5b813561091d81612898565b60008060006060848603121561291b57600080fd5b833561292681612898565b9250602084013561293681612898565b929592945050506040919091013590565b60008083601f84011261295957600080fd5b5081356001600160401b0381111561297057600080fd5b60208301915083602082850101111561298857600080fd5b9250929050565b600080602083850312156129a257600080fd5b82356001600160401b038111156129b857600080fd5b6129c485828601612947565b90969095509350505050565b634e487b7160e01b600052604160045260246000fd5b60405160c081016001600160401b0381118282101715612a0857612a086129d0565b60405290565b604051601f8201601f191681016001600160401b0381118282101715612a3657612a366129d0565b604052919050565b600060a08284031215612a5057600080fd5b60405160a081018181106001600160401b0382111715612a7257612a726129d0565b6040528235612a8081612898565b81526020830135612a9081612898565b60208201526040830135612aa381612898565b60408201526060830135612ab681612898565b60608201526080830135612ac981612898565b60808201529392505050565b60006001600160401b03821115612aee57612aee6129d0565b50601f01601f191660200190565b600082601f830112612b0d57600080fd5b8135612b20612b1b82612ad5565b612a0e565b818152846020838601011115612b3557600080fd5b816020850160208301376000918101602001919091529392505050565b600060208284031215612b6457600080fd5b81356001600160401b03811115612b7a57600080fd5b6127de84828501612afc565b600060208284031215612b9857600080fd5b81356001600160401b0380821115612baf57600080fd5b9083019060c08286031215612bc357600080fd5b612bcb6129e6565b612bd4836128ad565b8152612be2602084016128ad565b602082015260408301356040820152606083013582811115612c0357600080fd5b612c0f87828601612afc565b606083015250608083013582811115612c2757600080fd5b612c3387828601612afc565b60808301525060a083013582811115612c4b57600080fd5b612c5787828601612afc565b60a08301525095945050505050565b600080600060408486031215612c7b57600080fd5b8335612c8681612898565b925060208401356001600160401b03811115612ca157600080fd5b612cad86828701612947565b9497909650939450505050565b80151581146127fc57600080fd5b60008060408385031215612cdb57600080fd5b8235612ce681612898565b91506020830135612cf681612cba565b809150509250929050565b60008060008060808587031215612d1757600080fd5b8435612d2281612898565b93506020850135612d3281612898565b92506040850135915060608501356001600160401b03811115612d5457600080fd5b612d6087828801612afc565b91505092959194509250565b60008060408385031215612d7f57600080fd5b8235612d8a81612898565b91506020830135612cf681612898565b6020808252601e908201527f4261736541737365743a206f6e6c792069737375657220616c6c6f7765640000604082015260600190565b600181811c90821680612de557607f821691505b602082108103612e0557634e487b7160e01b600052602260045260246000fd5b50919050565b60208152816020820152818360408301376000818301604090810191909152601f909201601f19160101919050565b80516128b881612898565b600060208284031215612e5757600080fd5b815161091d81612898565b60208082526028908201527f42617365486f6f6b537570706f72743a2063616c6c6572206973206e6f74207460408201526734329030b236b4b760c11b606082015260800190565b600060208284031215612ebc57600080fd5b815161091d81612cba565b81516001600160a01b039081168252602080840151821690830152604080840151821690830152606080840151821690830152608092830151169181019190915260a00190565b600082601f830112612f1f57600080fd5b8151612f2d612b1b82612ad5565b818152846020838601011115612f4257600080fd5b6127de82602083016020870161281c565b600060208284031215612f6557600080fd5b81516001600160401b0380821115612f7c57600080fd5b9083019060c08286031215612f9057600080fd5b612f986129e6565b612fa183612e3a565b8152612faf60208401612e3a565b602082015260408301516040820152606083015182811115612fd057600080fd5b612fdc87828601612f0e565b606083015250608083015182811115612ff457600080fd5b61300087828601612f0e565b60808301525060a08301518281111561301857600080fd5b612c5787828601612f0e565b601f821115610dd0576000816000526020600020601f850160051c8101602086101561304d5750805b601f850160051c820191505b8181101561306c57828155600101613059565b505050505050565b81516001600160401b0381111561308d5761308d6129d0565b6130a18161309b8454612dd1565b84613024565b602080601f8311600181146130d657600084156130be5750858301515b600019600386901b1c1916600185901b17855561306c565b600085815260208120601f198616915b82811015613105578886015182559484019460019091019084016130e6565b50858210156131235787850151600019600388901b60f8161c191681555b5050505050600190811b01905550565b6000825161314581846020870161281c565b602f60f81b920191825250600101919050565b60208152600060018060a01b038084511660208401528060208501511660408401525060408301516060830152606083015160c0608084015261319e60e0840182612840565b90506080840151601f19808584030160a08601526131bc8383612840565b925060a08601519150808584030160c0860152506131da8282612840565b95945050505050565b6020808252602f908201527f4e5445524337323141737365743a206265666f72654d696e7420686f6f6b207260408201526e195a9958dd1959081c995c5d595cdd608a1b606082015260800190565b634e487b7160e01b600052601160045260246000fd5b8082018082111561058157610581613232565b60006001820161326d5761326d613232565b5060010190565b6000835161328681846020880161281c565b83519083019061329a81836020880161281c565b01949350505050565b634e487b7160e01b600052603260045260246000fd5b8181038181111561058157610581613232565b6001600160a01b03858116825284166020820152604081018390526080606082018190526000906132ff90830184612840565b9695505050505050565b60006020828403121561331b57600080fd5b815161091d816127e656fe2914b2bb01114b5159800e543f6c1279819fc613124831d49682628c159b8a382db204426804e067e91705d2dda6628a736fec9e9182470f68b797f52d49efa52db204426804e067e91705d2dda6628a736fec9e9182470f68b797f52d49ef9fa264697066735822122056236a0653ce0b9063c7a46c8337bbdb5ba3bb8d07f79a300c75393948a0e82464736f6c63430008180033",
  "linkReferences": {
    "contracts/libraries/LibHooks.sol": {
      "LibHooks": [
        {
          "length": 20,
          "start": 3493
        },
        {
          "length": 20,
          "start": 3784
        },
        {
          "length": 20,
          "start": 4023
        },
        {
          "length": 20,
          "start": 5878
        },
        {
          "length": 20,
          "start": 6359
        },
        {
          "length": 20,
          "start": 7307
        },
        {
          "length": 20,
          "start": 7942
        }
      ]
    }
  },
  "deployedLinkReferences": {
    "contracts/libraries/LibHooks.sol": {
      "LibHooks": [
        {
          "length": 20,
          "start": 2648
        },
        {
          "length": 20,
          "start": 2939
        },
        {
          "length": 20,
          "start": 3178
        },
        {
          "length": 20,
          "start": 5033
        },
        {
          "length": 20,
          "start": 5514
        },
        {
          "length": 20,
          "start": 6462
        },
        {
          "length": 20,
          "start": 7097
        }
      ]
    }
  }
}