{
  "_format": "hh-sol-artifact-1",
  "contractName": "PortalRegistry",
  "sourceName": "contracts/portal/PortalRegistry.sol",
  "abi": [
    {
      "inputs": [
        {
          "components": [
            {
              "internalType": "address",
              "name": "avatarRegistry",
              "type": "address"
            },
            {
              "internalType": "address",
              "name": "experienceRegistry",
              "type": "address"
            }
          ],
          "internalType": "struct PortalRegistryConstructorArgs",
          "name": "args",
          "type": "tuple"
        }
      ],
      "stateMutability": "nonpayable",
      "type": "constructor"
    },
    {
      "inputs": [],
      "name": "ReentrancyGuardReentrantCall",
      "type": "error"
    },
    {
      "anonymous": false,
      "inputs": [
        {
          "indexed": true,
          "internalType": "uint256",
          "name": "portalId",
          "type": "uint256"
        },
        {
          "indexed": true,
          "internalType": "address",
          "name": "avatar",
          "type": "address"
        },
        {
          "indexed": true,
          "internalType": "address",
          "name": "destination",
          "type": "address"
        }
      ],
      "name": "JumpSuccessful",
      "type": "event"
    },
    {
      "anonymous": false,
      "inputs": [
        {
          "indexed": true,
          "internalType": "uint256",
          "name": "portalId",
          "type": "uint256"
        },
        {
          "indexed": true,
          "internalType": "address",
          "name": "experience",
          "type": "address"
        }
      ],
      "name": "PortalAdded",
      "type": "event"
    },
    {
      "anonymous": false,
      "inputs": [
        {
          "indexed": true,
          "internalType": "uint256",
          "name": "portalId",
          "type": "uint256"
        },
        {
          "indexed": true,
          "internalType": "address",
          "name": "condition",
          "type": "address"
        }
      ],
      "name": "PortalConditionAdded",
      "type": "event"
    },
    {
      "anonymous": false,
      "inputs": [
        {
          "indexed": true,
          "internalType": "uint256",
          "name": "portalId",
          "type": "uint256"
        }
      ],
      "name": "PortalConditionRemoved",
      "type": "event"
    },
    {
      "anonymous": false,
      "inputs": [
        {
          "indexed": true,
          "internalType": "uint256",
          "name": "portalId",
          "type": "uint256"
        },
        {
          "indexed": true,
          "internalType": "address",
          "name": "experience",
          "type": "address"
        },
        {
          "indexed": false,
          "internalType": "string",
          "name": "reason",
          "type": "string"
        }
      ],
      "name": "PortalDeactivated",
      "type": "event"
    },
    {
      "anonymous": false,
      "inputs": [
        {
          "indexed": true,
          "internalType": "uint256",
          "name": "portalId",
          "type": "uint256"
        },
        {
          "indexed": true,
          "internalType": "address",
          "name": "oldExperience",
          "type": "address"
        },
        {
          "indexed": true,
          "internalType": "address",
          "name": "newExperience",
          "type": "address"
        }
      ],
      "name": "PortalDestinationUpgraded",
      "type": "event"
    },
    {
      "anonymous": false,
      "inputs": [
        {
          "indexed": true,
          "internalType": "uint256",
          "name": "portalId",
          "type": "uint256"
        },
        {
          "indexed": true,
          "internalType": "uint256",
          "name": "newFee",
          "type": "uint256"
        }
      ],
      "name": "PortalFeeChanged",
      "type": "event"
    },
    {
      "anonymous": false,
      "inputs": [
        {
          "indexed": true,
          "internalType": "uint256",
          "name": "portalId",
          "type": "uint256"
        },
        {
          "indexed": true,
          "internalType": "address",
          "name": "experience",
          "type": "address"
        }
      ],
      "name": "PortalReactivated",
      "type": "event"
    },
    {
      "anonymous": false,
      "inputs": [
        {
          "indexed": true,
          "internalType": "address",
          "name": "newRegistry",
          "type": "address"
        }
      ],
      "name": "PortalRegistryUpgraded",
      "type": "event"
    },
    {
      "anonymous": false,
      "inputs": [
        {
          "indexed": true,
          "internalType": "uint256",
          "name": "portalId",
          "type": "uint256"
        },
        {
          "indexed": true,
          "internalType": "address",
          "name": "experience",
          "type": "address"
        },
        {
          "indexed": false,
          "internalType": "string",
          "name": "reason",
          "type": "string"
        }
      ],
      "name": "PortalRemoved",
      "type": "event"
    },
    {
      "inputs": [
        {
          "internalType": "contract IPortalCondition",
          "name": "condition",
          "type": "address"
        }
      ],
      "name": "addCondition",
      "outputs": [],
      "stateMutability": "nonpayable",
      "type": "function"
    },
    {
      "inputs": [
        {
          "components": [
            {
              "internalType": "uint256",
              "name": "fee",
              "type": "uint256"
            }
          ],
          "internalType": "struct AddPortalRequest",
          "name": "req",
          "type": "tuple"
        }
      ],
      "name": "addPortal",
      "outputs": [
        {
          "internalType": "uint256",
          "name": "",
          "type": "uint256"
        }
      ],
      "stateMutability": "nonpayable",
      "type": "function"
    },
    {
      "inputs": [
        {
          "internalType": "address[]",
          "name": "signers",
          "type": "address[]"
        }
      ],
      "name": "addSigners",
      "outputs": [],
      "stateMutability": "nonpayable",
      "type": "function"
    },
    {
      "inputs": [],
      "name": "avatarRegistry",
      "outputs": [
        {
          "internalType": "contract IAvatarRegistry",
          "name": "",
          "type": "address"
        }
      ],
      "stateMutability": "view",
      "type": "function"
    },
    {
      "inputs": [
        {
          "internalType": "address",
          "name": "newOwner",
          "type": "address"
        }
      ],
      "name": "changeOwner",
      "outputs": [],
      "stateMutability": "nonpayable",
      "type": "function"
    },
    {
      "inputs": [
        {
          "internalType": "uint256",
          "name": "newFee",
          "type": "uint256"
        }
      ],
      "name": "changePortalFee",
      "outputs": [],
      "stateMutability": "nonpayable",
      "type": "function"
    },
    {
      "inputs": [
        {
          "internalType": "uint256",
          "name": "portalId",
          "type": "uint256"
        },
        {
          "internalType": "string",
          "name": "reason",
          "type": "string"
        }
      ],
      "name": "deactivatePortal",
      "outputs": [],
      "stateMutability": "nonpayable",
      "type": "function"
    },
    {
      "inputs": [],
      "name": "experienceRegistry",
      "outputs": [
        {
          "internalType": "contract IExperienceRegistry",
          "name": "",
          "type": "address"
        }
      ],
      "stateMutability": "view",
      "type": "function"
    },
    {
      "inputs": [
        {
          "internalType": "address",
          "name": "experience",
          "type": "address"
        }
      ],
      "name": "getIdForExperience",
      "outputs": [
        {
          "internalType": "uint256",
          "name": "",
          "type": "uint256"
        }
      ],
      "stateMutability": "view",
      "type": "function"
    },
    {
      "inputs": [
        {
          "components": [
            {
              "internalType": "string",
              "name": "x",
              "type": "string"
            },
            {
              "internalType": "string",
              "name": "y",
              "type": "string"
            },
            {
              "internalType": "string",
              "name": "z",
              "type": "string"
            },
            {
              "internalType": "uint256",
              "name": "t",
              "type": "uint256"
            },
            {
              "internalType": "uint256",
              "name": "p",
              "type": "uint256"
            },
            {
              "internalType": "uint256",
              "name": "p_sub",
              "type": "uint256"
            }
          ],
          "internalType": "struct VectorAddress",
          "name": "va",
          "type": "tuple"
        }
      ],
      "name": "getIdForVectorAddress",
      "outputs": [
        {
          "internalType": "uint256",
          "name": "",
          "type": "uint256"
        }
      ],
      "stateMutability": "view",
      "type": "function"
    },
    {
      "inputs": [
        {
          "internalType": "address",
          "name": "experience",
          "type": "address"
        }
      ],
      "name": "getPortalInfoByAddress",
      "outputs": [
        {
          "components": [
            {
              "internalType": "contract IExperience",
              "name": "destination",
              "type": "address"
            },
            {
              "internalType": "contract IPortalCondition",
              "name": "condition",
              "type": "address"
            },
            {
              "internalType": "uint256",
              "name": "fee",
              "type": "uint256"
            },
            {
              "internalType": "bool",
              "name": "active",
              "type": "bool"
            }
          ],
          "internalType": "struct PortalInfo",
          "name": "",
          "type": "tuple"
        }
      ],
      "stateMutability": "view",
      "type": "function"
    },
    {
      "inputs": [
        {
          "internalType": "uint256",
          "name": "portalId",
          "type": "uint256"
        }
      ],
      "name": "getPortalInfoById",
      "outputs": [
        {
          "components": [
            {
              "internalType": "contract IExperience",
              "name": "destination",
              "type": "address"
            },
            {
              "internalType": "contract IPortalCondition",
              "name": "condition",
              "type": "address"
            },
            {
              "internalType": "uint256",
              "name": "fee",
              "type": "uint256"
            },
            {
              "internalType": "bool",
              "name": "active",
              "type": "bool"
            }
          ],
          "internalType": "struct PortalInfo",
          "name": "",
          "type": "tuple"
        }
      ],
      "stateMutability": "view",
      "type": "function"
    },
    {
      "inputs": [
        {
          "components": [
            {
              "internalType": "string",
              "name": "x",
              "type": "string"
            },
            {
              "internalType": "string",
              "name": "y",
              "type": "string"
            },
            {
              "internalType": "string",
              "name": "z",
              "type": "string"
            },
            {
              "internalType": "uint256",
              "name": "t",
              "type": "uint256"
            },
            {
              "internalType": "uint256",
              "name": "p",
              "type": "uint256"
            },
            {
              "internalType": "uint256",
              "name": "p_sub",
              "type": "uint256"
            }
          ],
          "internalType": "struct VectorAddress",
          "name": "va",
          "type": "tuple"
        }
      ],
      "name": "getPortalInfoByVectorAddress",
      "outputs": [
        {
          "components": [
            {
              "internalType": "contract IExperience",
              "name": "destination",
              "type": "address"
            },
            {
              "internalType": "contract IPortalCondition",
              "name": "condition",
              "type": "address"
            },
            {
              "internalType": "uint256",
              "name": "fee",
              "type": "uint256"
            },
            {
              "internalType": "bool",
              "name": "active",
              "type": "bool"
            }
          ],
          "internalType": "struct PortalInfo",
          "name": "",
          "type": "tuple"
        }
      ],
      "stateMutability": "view",
      "type": "function"
    },
    {
      "inputs": [
        {
          "internalType": "bytes32",
          "name": "role",
          "type": "bytes32"
        },
        {
          "internalType": "address",
          "name": "account",
          "type": "address"
        }
      ],
      "name": "grantRole",
      "outputs": [],
      "stateMutability": "nonpayable",
      "type": "function"
    },
    {
      "inputs": [
        {
          "internalType": "bytes32",
          "name": "role",
          "type": "bytes32"
        },
        {
          "internalType": "address",
          "name": "account",
          "type": "address"
        }
      ],
      "name": "hasRole",
      "outputs": [
        {
          "internalType": "bool",
          "name": "",
          "type": "bool"
        }
      ],
      "stateMutability": "view",
      "type": "function"
    },
    {
      "inputs": [
        {
          "internalType": "address",
          "name": "account",
          "type": "address"
        }
      ],
      "name": "isAdmin",
      "outputs": [
        {
          "internalType": "bool",
          "name": "",
          "type": "bool"
        }
      ],
      "stateMutability": "view",
      "type": "function"
    },
    {
      "inputs": [
        {
          "internalType": "address",
          "name": "account",
          "type": "address"
        }
      ],
      "name": "isSigner",
      "outputs": [
        {
          "internalType": "bool",
          "name": "",
          "type": "bool"
        }
      ],
      "stateMutability": "view",
      "type": "function"
    },
    {
      "inputs": [
        {
          "internalType": "uint256",
          "name": "portalId",
          "type": "uint256"
        }
      ],
      "name": "jumpRequest",
      "outputs": [
        {
          "internalType": "bytes",
          "name": "",
          "type": "bytes"
        }
      ],
      "stateMutability": "payable",
      "type": "function"
    },
    {
      "inputs": [],
      "name": "owner",
      "outputs": [
        {
          "internalType": "address",
          "name": "",
          "type": "address"
        }
      ],
      "stateMutability": "view",
      "type": "function"
    },
    {
      "inputs": [
        {
          "internalType": "uint256",
          "name": "portalId",
          "type": "uint256"
        }
      ],
      "name": "reactivatePortal",
      "outputs": [],
      "stateMutability": "nonpayable",
      "type": "function"
    },
    {
      "inputs": [],
      "name": "removeCondition",
      "outputs": [],
      "stateMutability": "nonpayable",
      "type": "function"
    },
    {
      "inputs": [
        {
          "internalType": "uint256",
          "name": "portalId",
          "type": "uint256"
        },
        {
          "internalType": "string",
          "name": "reason",
          "type": "string"
        }
      ],
      "name": "removePortal",
      "outputs": [],
      "stateMutability": "nonpayable",
      "type": "function"
    },
    {
      "inputs": [
        {
          "internalType": "address[]",
          "name": "signers",
          "type": "address[]"
        }
      ],
      "name": "removeSigners",
      "outputs": [],
      "stateMutability": "nonpayable",
      "type": "function"
    },
    {
      "inputs": [
        {
          "internalType": "bytes32",
          "name": "role",
          "type": "bytes32"
        },
        {
          "internalType": "address",
          "name": "account",
          "type": "address"
        }
      ],
      "name": "revokeRole",
      "outputs": [],
      "stateMutability": "nonpayable",
      "type": "function"
    },
    {
      "inputs": [],
      "name": "version",
      "outputs": [
        {
          "components": [
            {
              "internalType": "uint16",
              "name": "major",
              "type": "uint16"
            },
            {
              "internalType": "uint16",
              "name": "minor",
              "type": "uint16"
            }
          ],
          "internalType": "struct Version",
          "name": "",
          "type": "tuple"
        }
      ],
      "stateMutability": "pure",
      "type": "function"
    },
    {
      "inputs": [
        {
          "internalType": "uint256",
          "name": "amount",
          "type": "uint256"
        }
      ],
      "name": "withdraw",
      "outputs": [],
      "stateMutability": "nonpayable",
      "type": "function"
    },
    {
      "stateMutability": "payable",
      "type": "receive"
    }
  ],
  "bytecode": "0x60c06040523480156200001157600080fd5b50604051620035f6380380620035f683398101604081905262000034916200017b565b600160005580516001600160a01b0316620000bc5760405162461bcd60e51b815260206004820152603a60248201527f506f7274616c52656769737472793a204176617461722072656769737472792060448201527f63616e6e6f7420626520746865207a65726f206164647265737300000000000060648201526084015b60405180910390fd5b60208101516001600160a01b03166200013e5760405162461bcd60e51b815260206004820152603e60248201527f506f7274616c52656769737472793a20457870657269656e636520726567697360448201527f7472792063616e6e6f7420626520746865207a65726f206164647265737300006064820152608401620000b3565b80516001600160a01b0390811660a05260209091015116608052620001e9565b80516001600160a01b03811681146200017657600080fd5b919050565b6000604082840312156200018e57600080fd5b604080519081016001600160401b0381118282101715620001bf57634e487b7160e01b600052604160045260246000fd5b604052620001cd836200015e565b8152620001dd602084016200015e565b60208201529392505050565b60805160a0516133af620002476000396000818161054e015261173801526000818161045a015281816105a50152818161073b01528181610cf401528181611221015281816115b001528181611cac0152611e4b01526133af6000f3fe6080604052600436106101855760003560e01c806383c34263116100d1578063a6f9dae11161008a578063c0e2e80c11610064578063c0e2e80c146104fc578063d547741f1461051c578063e3d7ad731461053c578063e8906a2d1461057057600080fd5b8063a6f9dae11461049c578063aa7ff6b7146104bc578063aed784e3146104dc57600080fd5b806383c34263146103bb57806384c4484e146103db5780638d361e43146103fb5780638da5cb5b1461041b5780638f09a6be1461044857806391d148541461047c57600080fd5b8063288b56841161013e5780633b19e880116101185780633b19e8801461030e57806354fd4d501461032e5780635e958a111461037b5780637df73e271461039b57600080fd5b8063288b5684146102ae5780632e1a7d4d146102ce5780632f2ff15d146102ee57600080fd5b8063021665b71461019157806303a49da9146101a8578063102ea6ae146101db578063194663891461023e57806322d349321461025e57806324d7806c1461027e57600080fd5b3661018c57005b600080fd5b34801561019d57600080fd5b506101a6610590565b005b3480156101b457600080fd5b506101c86101c3366004612b99565b610723565b6040519081526020015b60405180910390f35b3480156101e757600080fd5b506101fb6101f6366004612c59565b610aea565b6040516101d2919081516001600160a01b039081168252602080840151909116908201526040808301519082015260609182015115159181019190915260800190565b34801561024a57600080fd5b506101c8610259366004612c59565b610c18565b34801561026a57600080fd5b506101a6610279366004612d47565b610cdf565b34801561028a57600080fd5b5061029e610299366004612d47565b610f44565b60405190151581526020016101d2565b3480156102ba57600080fd5b506101fb6102c9366004612d64565b610fca565b3480156102da57600080fd5b506101a66102e9366004612d64565b61104a565b3480156102fa57600080fd5b506101a6610309366004612d7d565b6110da565b34801561031a57600080fd5b506101c8610329366004612d47565b6111e0565b34801561033a57600080fd5b50604080518082018252600080825260209182018190528251808401845260018082529083019182528351908152905161ffff1691810191909152016101d2565b34801561038757600080fd5b506101a6610396366004612dad565b61120c565b3480156103a757600080fd5b5061029e6103b6366004612d47565b611558565b3480156103c757600080fd5b506101a66103d6366004612d64565b61159b565b6103ee6103e9366004612d64565b611720565b6040516101d29190612e79565b34801561040757600080fd5b506101a6610416366004612e8c565b6119d5565b34801561042757600080fd5b50610430611a9d565b6040516001600160a01b0390911681526020016101d2565b34801561045457600080fd5b506104307f000000000000000000000000000000000000000000000000000000000000000081565b34801561048857600080fd5b5061029e610497366004612d7d565b611aac565b3480156104a857600080fd5b506101a66104b7366004612d47565b611b39565b3480156104c857600080fd5b506101fb6104d7366004612d47565b611c06565b3480156104e857600080fd5b506101a66104f7366004612dad565b611c97565b34801561050857600080fd5b506101a6610517366004612d64565b611e36565b34801561052857600080fd5b506101a6610537366004612d7d565b611fc8565b34801561054857600080fd5b506104307f000000000000000000000000000000000000000000000000000000000000000081565b34801561057c57600080fd5b506101a661058b366004612e8c565b61209e565b60405163c3c5a54760e01b81523360048201527f00000000000000000000000000000000000000000000000000000000000000006001600160a01b03169063c3c5a54790602401602060405180830381865afa1580156105f4573d6000803e3d6000fd5b505050506040513d601f19601f820116820180604052508101906106189190612f01565b61063d5760405162461bcd60e51b815260040161063490612f23565b60405180910390fd5b336001600160a01b03166386b70bed6040518163ffffffff1660e01b8152600401602060405180830381865afa15801561067b573d6000803e3d6000fd5b505050506040513d601f19601f8201168201806040525081019061069f9190612f01565b6106bb5760405162461bcd60e51b815260040161063490612f8b565b60006106c5612166565b3360009081526002820160209081526040808320548084529184905280832060010180546001600160a01b0319169055519293509182917f2e3f0e8f6904984244368dfff28046157a23abf558feb664bf3727766cbd200c91a25050565b60405163c3c5a54760e01b81523360048201526000907f00000000000000000000000000000000000000000000000000000000000000006001600160a01b03169063c3c5a54790602401602060405180830381865afa15801561078a573d6000803e3d6000fd5b505050506040513d601f19601f820116820180604052508101906107ae9190612f01565b6107ca5760405162461bcd60e51b815260040161063490612f23565b336001600160a01b03166386b70bed6040518163ffffffff1660e01b8152600401602060405180830381865afa158015610808573d6000803e3d6000fd5b505050506040513d601f19601f8201168201806040525081019061082c9190612f01565b6108485760405162461bcd60e51b815260040161063490612f8b565b6108506121f3565b6000336001600160a01b0316632fcbab9a6040518163ffffffff1660e01b8152600401600060405180830381865afa158015610890573d6000803e3d6000fd5b505050506040513d6000823e601f3d908101601f191682016040526108b89190810190613038565b6040516329a6121760e21b815290915060009073__$ad2b23306edd42b5f4873830e307b82d47$__9063a698485c906108f590859060040161310e565b600060405180830381865af4158015610912573d6000803e3d6000fd5b505050506040513d6000823e601f3d908101601f1916820160405261093a9190810190613191565b60405160200161094a9190612e79565b604051602081830303815290604052805190602001209050600061096c612166565b6000838152600182016020526040902054909150156109f35760405162461bcd60e51b815260206004820152603d60248201527f506f7274616c52656769737472793a20706f7274616c20616c7265616479206560448201527f786973747320666f72207468697320766563746f7220616464726573730000006064820152608401610634565b8060030160008154610a04906131e4565b909155506003818101546000848152600180850160209081526040808420859055338085526002808901845282862087905582516080810184528281528085018781528e51828601908152606083018881528a8a52968c9052858920925183546001600160a01b03199081166001600160a01b03928316178555925198840180549093169816979097179055945190850155915192909501805460ff191692151592909217909155925191929183917f991e8a89cc0b450dd18d7845eb5952690d2e9b8edb3624d5f5b929f32607829891a39350505050610ae56001600055565b919050565b604080516080810182526000808252602082018190529181018290526060810182905290610b16612166565b6040516329a6121760e21b815290915060009073__$ad2b23306edd42b5f4873830e307b82d47$__9063a698485c90610b5390879060040161310e565b600060405180830381865af4158015610b70573d6000803e3d6000fd5b505050506040513d6000823e601f3d908101601f19168201604052610b989190810190613191565b604051602001610ba89190612e79565b60408051601f19818403018152828252805160209182012060009081526001808701835283822054825295825282902060808401835280546001600160a01b039081168552958101549095169083015260028401549082015260039092015460ff16151560608301525092915050565b6040516329a6121760e21b8152600090819073__$ad2b23306edd42b5f4873830e307b82d47$__9063a698485c90610c5490869060040161310e565b600060405180830381865af4158015610c71573d6000803e3d6000fd5b505050506040513d6000823e601f3d908101601f19168201604052610c999190810190613191565b604051602001610ca99190612e79565b604051602081830303815290604052805190602001209050610cc9612166565b6000918252600101602052604090205492915050565b60405163c3c5a54760e01b81523360048201527f00000000000000000000000000000000000000000000000000000000000000006001600160a01b03169063c3c5a54790602401602060405180830381865afa158015610d43573d6000803e3d6000fd5b505050506040513d601f19601f82011682018060405250810190610d679190612f01565b610d835760405162461bcd60e51b815260040161063490612f23565b336001600160a01b03166386b70bed6040518163ffffffff1660e01b8152600401602060405180830381865afa158015610dc1573d6000803e3d6000fd5b505050506040513d601f19601f82011682018060405250810190610de59190612f01565b610e015760405162461bcd60e51b815260040161063490612f8b565b6000610e0b612166565b90506001600160a01b038216610e795760405162461bcd60e51b815260206004820152602d60248201527f506f7274616c52656769737472793a20636f6e646974696f6e2061646472657360448201526c0732063616e6e6f74206265203609c1b6064820152608401610634565b33600090815260028201602052604081205490819003610ee75760405162461bcd60e51b8152602060048201526024808201527f506f7274616c52656769737472793a20657870657269656e6365206e6f7420666044820152631bdd5b9960e21b6064820152608401610634565b60008181526020839052604080822060010180546001600160a01b0319166001600160a01b0387169081179091559051909183917f50dc6bddd2ee7ed8c2f3a3bc6b995160e945bffd902a4135fccbe2fadbb332099190a3505050565b604051630935e01b60e21b81526001600160a01b038216600482015260009073__$a5a42e46683ad9c79b7b86d5ff60fdf4c1$__906324d7806c906024015b602060405180830381865af4158015610fa0573d6000803e3d6000fd5b505050506040513d601f19601f82011682018060405250810190610fc49190612f01565b92915050565b604080516080810182526000808252602082018190529181018290526060810191909152610ff6612166565b60009283526020908152604092839020835160808101855281546001600160a01b0390811682526001830154169281019290925260028101549382019390935260039092015460ff16151560608301525090565b3361105361221d565b6001600160a01b0316146110a95760405162461bcd60e51b815260206004820152601f60248201527f426173654163636573733a207265737472696374656420746f206f776e6572006044820152606401610634565b604051339082156108fc029083906000818181858888f193505050501580156110d6573d6000803e3d6000fd5b5050565b604051630935e01b60e21b815233600482015273__$a5a42e46683ad9c79b7b86d5ff60fdf4c1$__906324d7806c90602401602060405180830381865af4158015611129573d6000803e3d6000fd5b505050506040513d601f19601f8201168201806040525081019061114d9190612f01565b6111695760405162461bcd60e51b8152600401610634906131fd565b604051632f2ff15d60e01b8152600481018390526001600160a01b038216602482015273__$a5a42e46683ad9c79b7b86d5ff60fdf4c1$__90632f2ff15d906044015b60006040518083038186803b1580156111c457600080fd5b505af41580156111d8573d6000803e3d6000fd5b505050505050565b60006111ea612166565b6001600160a01b03909216600090815260029290920160205250604090205490565b60405163c3c5a54760e01b81523360048201527f00000000000000000000000000000000000000000000000000000000000000006001600160a01b03169063c3c5a54790602401602060405180830381865afa158015611270573d6000803e3d6000fd5b505050506040513d601f19601f820116820180604052508101906112949190612f01565b6112b05760405162461bcd60e51b815260040161063490612f23565b6112b86121f3565b60006112c2612166565b60008581526020828152604091829020825160808101845281546001600160a01b039081168083526001840154909116938201939093526002820154938101939093526003015460ff1615156060830152919250903390811461138d5760405162461bcd60e51b815260206004820152603d60248201527f506f7274616c52656769737472793a206f6e6c7920746865206578706572696560448201527f6e63652063616e2072656d6f766520697473206f776e20706f7274616c0000006064820152608401610634565b60008681526020848152604080832080546001600160a01b03199081168255600182018054909116905560028082018590556003909101805460ff191690556001600160a01b0385168452860190915280822082905580516317e5d5cd60e11b815290513391632fcbab9a91600480830192869291908290030181865afa15801561141c573d6000803e3d6000fd5b505050506040513d6000823e601f3d908101601f191682016040526114449190810190613038565b6040516329a6121760e21b815290915060009073__$ad2b23306edd42b5f4873830e307b82d47$__9063a698485c9061148190859060040161310e565b600060405180830381865af415801561149e573d6000803e3d6000fd5b505050506040513d6000823e601f3d908101601f191682016040526114c69190810190613191565b6040516020016114d69190612e79565b60408051601f198184030181528282528051602091820120600081815260018a019092529181205591506001600160a01b0384169089907fc7954ecb64947e6c1f4cc673d066e6f9a1e839ca003029af6619effde4056b209061153c908b908b90613232565b60405180910390a350505050506115536001600055565b505050565b604051637df73e2760e01b81526001600160a01b038216600482015260009073__$a5a42e46683ad9c79b7b86d5ff60fdf4c1$__90637df73e2790602401610f83565b60405163c3c5a54760e01b81523360048201527f00000000000000000000000000000000000000000000000000000000000000006001600160a01b03169063c3c5a54790602401602060405180830381865afa1580156115ff573d6000803e3d6000fd5b505050506040513d601f19601f820116820180604052508101906116239190612f01565b61163f5760405162461bcd60e51b815260040161063490612f23565b336001600160a01b03166386b70bed6040518163ffffffff1660e01b8152600401602060405180830381865afa15801561167d573d6000803e3d6000fd5b505050506040513d601f19601f820116820180604052508101906116a19190612f01565b6116bd5760405162461bcd60e51b815260040161063490612f8b565b60006116c7612166565b3360009081526002808301602090815260408084205480855291859052808420909201869055905192935091849183917fc45b50c704f83a591e64a45d94b4e274cc467d15386c75d56bef687efe5aea4a9190a3505050565b60405163c3c5a54760e01b81523360048201526060907f00000000000000000000000000000000000000000000000000000000000000006001600160a01b03169063c3c5a54790602401602060405180830381865afa158015611787573d6000803e3d6000fd5b505050506040513d601f19601f820116820180604052508101906117ab9190612f01565b61181d5760405162461bcd60e51b815260206004820152603e60248201527f506f7274616c52656769737472793a204f6e6c7920726567697374657265642060448201527f617661746172732063616e2063616c6c20746869732066756e6374696f6e00006064820152608401610634565b6118256121f3565b600061183083612238565b60e0810151604001519091501561190e578060e00151604001513410156118bf5760405162461bcd60e51b815260206004820152603960248201527f506f7274616c52656769737472793a20496e73756666696369656e742066656560448201527f20617474616368656420746f206a756d702072657175657374000000000000006064820152608401610634565b60008160e0015160400151346118d59190613261565b9050801561190c57604051339082156108fc029083906000818181858888f1935050505015801561190a573d6000803e3d6000fd5b505b505b60208082015160e0830151604090810151815160608082018452838701516001600160a01b0390811683529087015181169582019586523382850190815293516354cc5a0b60e01b815291518116600483015294518516602482015291518416604483015292909116916354cc5a0b9160640160006040518083038185885af115801561199f573d6000803e3d6000fd5b50505050506040513d6000823e601f3d908101601f191682016040526119c89190810190613274565b915050610ae56001600055565b604051630935e01b60e21b815233600482015273__$a5a42e46683ad9c79b7b86d5ff60fdf4c1$__906324d7806c90602401602060405180830381865af4158015611a24573d6000803e3d6000fd5b505050506040513d601f19601f82011682018060405250810190611a489190612f01565b611a645760405162461bcd60e51b8152600401610634906131fd565b604051638d361e4360e01b815273__$a5a42e46683ad9c79b7b86d5ff60fdf4c1$__90638d361e43906111ac90859085906004016132bd565b6000611aa761221d565b905090565b604051632474521560e21b8152600481018390526001600160a01b038216602482015260009073__$a5a42e46683ad9c79b7b86d5ff60fdf4c1$__906391d1485490604401602060405180830381865af4158015611b0e573d6000803e3d6000fd5b505050506040513d601f19601f82011682018060405250810190611b329190612f01565b9392505050565b33611b4261221d565b6001600160a01b031614611b985760405162461bcd60e51b815260206004820152601f60248201527f426173654163636573733a207265737472696374656420746f206f776e6572006044820152606401610634565b6040516313af403560e01b81526001600160a01b038216600482015273__$a5a42e46683ad9c79b7b86d5ff60fdf4c1$__906313af40359060240160006040518083038186803b158015611beb57600080fd5b505af4158015611bff573d6000803e3d6000fd5b5050505050565b604080516080810182526000808252602082018190529181018290526060810182905290611c32612166565b6001600160a01b039384166000908152600280830160209081526040808420548452938152918390208351608081018552815488168152600182015490971692870192909252810154918501919091526003015460ff16151560608401525090919050565b60405163c3c5a54760e01b81523360048201527f00000000000000000000000000000000000000000000000000000000000000006001600160a01b03169063c3c5a54790602401602060405180830381865afa158015611cfb573d6000803e3d6000fd5b505050506040513d601f19601f82011682018060405250810190611d1f9190612f01565b611d3b5760405162461bcd60e51b815260040161063490612f23565b6000611d45612166565b600085815260208290526040902060038101805460ff19169055549091506001600160a01b0316338114611deb5760405162461bcd60e51b815260206004820152604160248201527f506f7274616c52656769737472793a206f6e6c7920746865206578706572696560448201527f6e63652063616e206465616374697661746520697473206f776e20706f7274616064820152601b60fa1b608482015260a401610634565b806001600160a01b0316857fd664386a83f95bfa27301263afc24bea04fdb624796cb0d1c2b6b550937485948686604051611e27929190613232565b60405180910390a35050505050565b60405163c3c5a54760e01b81523360048201527f00000000000000000000000000000000000000000000000000000000000000006001600160a01b03169063c3c5a54790602401602060405180830381865afa158015611e9a573d6000803e3d6000fd5b505050506040513d601f19601f82011682018060405250810190611ebe9190612f01565b611eda5760405162461bcd60e51b815260040161063490612f23565b6000611ee4612166565b600083815260208290526040902060038101805460ff19166001179055549091506001600160a01b0316338114611f8d5760405162461bcd60e51b815260206004820152604160248201527f506f7274616c52656769737472793a206f6e6c7920746865206578706572696560448201527f6e63652063616e207265616374697661746520697473206f776e20706f7274616064820152601b60fa1b608482015260a401610634565b6040516001600160a01b0382169084907f63e7cf6eecf636f1b535fc0cc76507244657f2c1515300f3d43d6b903e3d522d90600090a3505050565b604051630935e01b60e21b815233600482015273__$a5a42e46683ad9c79b7b86d5ff60fdf4c1$__906324d7806c90602401602060405180830381865af4158015612017573d6000803e3d6000fd5b505050506040513d601f19601f8201168201806040525081019061203b9190612f01565b6120575760405162461bcd60e51b8152600401610634906131fd565b60405163d547741f60e01b8152600481018390526001600160a01b038216602482015273__$a5a42e46683ad9c79b7b86d5ff60fdf4c1$__9063d547741f906044016111ac565b604051630935e01b60e21b815233600482015273__$a5a42e46683ad9c79b7b86d5ff60fdf4c1$__906324d7806c90602401602060405180830381865af41580156120ed573d6000803e3d6000fd5b505050506040513d601f19601f820116820180604052508101906121119190612f01565b61212d5760405162461bcd60e51b8152600401610634906131fd565b60405163e8906a2d60e01b815273__$a5a42e46683ad9c79b7b86d5ff60fdf4c1$__9063e8906a2d906111ac90859085906004016132bd565b60408051808201909152601481527378722e706f7274616c2e73746f726167652e763160601b60209091015260008060ff6121c260017f32e6b45acdd074b73c3a2919736df19970ec59317a4f46192bf93b96896df009613261565b6040516020016121d491815260200190565b60408051601f1981840301815291905280516020909101201692915050565b60026000540361221657604051633ee5aeb560e01b815260040160405180910390fd5b6002600055565b600080612228612acd565b546001600160a01b031692915050565b6040805161010081018252600080825260208083018290528284018290526060808401839052608080850184905260a085018490528551808201875284815280840185905280870185905280830185905260c08601528551908101865283815280830184905280860184905290810183905260e084015283516328b793cf60e11b8152935192933393849263516f279e92600480820193918290030181865afa1580156122e9573d6000803e3d6000fd5b505050506040513d601f19601f8201168201806040525081019061230d919061330b565b90506001600160a01b0381166123355760405162461bcd60e51b815260040161063490613328565b600061233f612166565b90506001600160a01b0382166123675760405162461bcd60e51b815260040161063490613328565b6001600160a01b0382166000908152600282016020526040812054908190036124025760405162461bcd60e51b815260206004820152604160248201527f506f7274616c52656769737472793a206e6f20706f7274616c20666f756e642060448201527f666f72207468652061766174617227732063757272656e74206c6f636174696f6064820152603760f91b608482015260a401610634565b85810361246c5760405162461bcd60e51b815260206004820152603260248201527f506f7274616c52656769737472793a2063616e6e6f74206a756d7020746f207460448201527168652073616d6520657870657269656e636560701b6064820152608401610634565b600081815260208390526040902080546001600160a01b03166124f9576040805162461bcd60e51b81526020600482015260248101919091527f506f7274616c52656769737472793a20636f756c64206e6f74206d617020637560448201527f7272656e74206c6f636174696f6e20746f20612076616c696420706f7274616c6064820152608401610634565b6000878152602084905260409020600381015460ff166125745760405162461bcd60e51b815260206004820152603060248201527f506f7274616c52656769737472793a2064657374696e6174696f6e20706f727460448201526f616c206973206e6f742061637469766560801b6064820152608401610634565b80546001600160a01b03166125e15760405162461bcd60e51b815260206004820152602d60248201527f506f7274616c52656769737472793a20696e76616c69642064657374696e617460448201526c1a5bdb881c1bdc9d185b081a59609a1b6064820152608401610634565b60018101546001600160a01b03161561281a576040805160a08101825282546001600160a01b0390811682528454835163185b3dd560e11b8152935160009460208086019493909316926330b67baa926004808401938290030181865afa158015612650573d6000803e3d6000fd5b505050506040513d601f19601f82011682018060405250810190612674919061330b565b6001600160a01b031681526020018460000160009054906101000a90046001600160a01b03166001600160a01b0316636904c94d6040518163ffffffff1660e01b8152600401602060405180830381865afa1580156126d7573d6000803e3d6000fd5b505050506040513d601f19601f820116820180604052508101906126fb919061330b565b6001600160a01b0390811682528554811660208084019190915233604093840152600186015483516313a526a360e31b8152855184166004820152918501518316602483015292840151821660448201526060840151821660648201526080840151821660848201529293501690639d2935189060a4016020604051808303816000875af1158015612791573d6000803e3d6000fd5b505050506040513d601f19601f820116820180604052508101906127b59190612f01565b6128185760405162461bcd60e51b815260206004820152602e60248201527f506f7274616c52656769737472793a20706f7274616c206a756d7020636f6e6460448201526d1a5d1a5bdb9cc81b9bdd081b595d60921b6064820152608401610634565b505b604080516101008101825283546001600160a01b039081168083528454909116602080840191909152835163185b3dd560e11b8152845193948501936330b67baa926004808401939192918290030181865afa15801561287e573d6000803e3d6000fd5b505050506040513d601f19601f820116820180604052508101906128a2919061330b565b6001600160a01b031681526020018360000160009054906101000a90046001600160a01b03166001600160a01b0316636904c94d6040518163ffffffff1660e01b8152600401602060405180830381865afa158015612905573d6000803e3d6000fd5b505050506040513d601f19601f82011682018060405250810190612929919061330b565b6001600160a01b031681526020018260000160009054906101000a90046001600160a01b03166001600160a01b03166330b67baa6040518163ffffffff1660e01b8152600401602060405180830381865afa15801561298c573d6000803e3d6000fd5b505050506040513d601f19601f820116820180604052508101906129b0919061330b565b6001600160a01b031681526020018260000160009054906101000a90046001600160a01b03166001600160a01b0316636904c94d6040518163ffffffff1660e01b8152600401602060405180830381865afa158015612a13573d6000803e3d6000fd5b505050506040513d601f19601f82011682018060405250810190612a37919061330b565b6001600160a01b039081168252604080516080808201835287548416825260018089015485166020848101919091526002808b01548587015260039a8b015460ff9081161515606080880191909152838a0196909652865194850187528a5488168552928a0154909616908301529387015481840152959096015490911615159484019490945292909201529695505050505050565b60408051808201909152601481527378722e6163636573732e73746f726167652e763160601b60209091015260008060ff6121c260017fd870894b15ee1369a593f3670ac51c4ed8201dab473944ee712694d327dd5875613261565b634e487b7160e01b600052604160045260246000fd5b60405160c0810167ffffffffffffffff81118282101715612b6257612b62612b29565b60405290565b604051601f8201601f1916810167ffffffffffffffff81118282101715612b9157612b91612b29565b604052919050565b600060208284031215612bab57600080fd5b6040516020810181811067ffffffffffffffff82111715612bce57612bce612b29565b6040529135825250919050565b600067ffffffffffffffff821115612bf557612bf5612b29565b50601f01601f191660200190565b600082601f830112612c1457600080fd5b8135612c27612c2282612bdb565b612b68565b818152846020838601011115612c3c57600080fd5b816020850160208301376000918101602001919091529392505050565b600060208284031215612c6b57600080fd5b813567ffffffffffffffff80821115612c8357600080fd5b9083019060c08286031215612c9757600080fd5b612c9f612b3f565b823582811115612cae57600080fd5b612cba87828601612c03565b825250602083013582811115612ccf57600080fd5b612cdb87828601612c03565b602083015250604083013582811115612cf357600080fd5b612cff87828601612c03565b604083015250606083013560608201526080830135608082015260a083013560a082015280935050505092915050565b6001600160a01b0381168114612d4457600080fd5b50565b600060208284031215612d5957600080fd5b8135611b3281612d2f565b600060208284031215612d7657600080fd5b5035919050565b60008060408385031215612d9057600080fd5b823591506020830135612da281612d2f565b809150509250929050565b600080600060408486031215612dc257600080fd5b83359250602084013567ffffffffffffffff80821115612de157600080fd5b818601915086601f830112612df557600080fd5b813581811115612e0457600080fd5b876020828501011115612e1657600080fd5b6020830194508093505050509250925092565b60005b83811015612e44578181015183820152602001612e2c565b50506000910152565b60008151808452612e65816020860160208601612e29565b601f01601f19169290920160200192915050565b602081526000611b326020830184612e4d565b60008060208385031215612e9f57600080fd5b823567ffffffffffffffff80821115612eb757600080fd5b818501915085601f830112612ecb57600080fd5b813581811115612eda57600080fd5b8660208260051b8501011115612eef57600080fd5b60209290920196919550909350505050565b600060208284031215612f1357600080fd5b81518015158114611b3257600080fd5b60208082526042908201527f506f7274616c52656769737472793a204f6e6c7920726567697374657265642060408201527f657870657269656e6365732063616e2063616c6c20746869732066756e63746960608201526137b760f11b608082015260a00190565b6020808252603e908201527f506f7274616c52656769737472793a204f6e6c7920616374697665206578706560408201527f7269656e6365732063616e2063616c6c20746869732066756e6374696f6e0000606082015260800190565b6000612ff6612c2284612bdb565b905082815283838301111561300a57600080fd5b611b32836020830184612e29565b600082601f83011261302957600080fd5b611b3283835160208501612fe8565b60006020828403121561304a57600080fd5b815167ffffffffffffffff8082111561306257600080fd5b9083019060c0828603121561307657600080fd5b61307e612b3f565b82518281111561308d57600080fd5b61309987828601613018565b8252506020830151828111156130ae57600080fd5b6130ba87828601613018565b6020830152506040830151828111156130d257600080fd5b6130de87828601613018565b604083015250606083015160608201526080830151608082015260a083015160a082015280935050505092915050565b602081526000825160c0602084015261312a60e0840182612e4d565b90506020840151601f19808584030160408601526131488383612e4d565b92506040860151915080858403016060860152506131668282612e4d565b91505060608401516080840152608084015160a084015260a084015160c08401528091505092915050565b6000602082840312156131a357600080fd5b815167ffffffffffffffff8111156131ba57600080fd5b6131c684828501613018565b949350505050565b634e487b7160e01b600052601160045260246000fd5b6000600182016131f6576131f66131ce565b5060010190565b6020808252818101527f426173654163636573733a207265737472696374656420746f2061646d696e73604082015260600190565b60208152816020820152818360408301376000818301604090810191909152601f909201601f19160101919050565b81810381811115610fc457610fc46131ce565b60006020828403121561328657600080fd5b815167ffffffffffffffff81111561329d57600080fd5b8201601f810184136132ae57600080fd5b6131c684825160208401612fe8565b60208082528181018390526000908460408401835b868110156133005782356132e581612d2f565b6001600160a01b0316825291830191908301906001016132d2565b509695505050505050565b60006020828403121561331d57600080fd5b8151611b3281612d2f565b60208082526031908201527f506f7274616c52656769737472793a20617661746172206973206e6f7420696e6040820152701030903b30b634b2103637b1b0ba34b7b760791b60608201526080019056fea26469706673582212201098b0aa61b97c97af810427536eef19e2086d5e59fb951d81b649fbaeeff82464736f6c63430008180033",
  "linkReferences": {
    "contracts/libraries/LibAccess.sol": {
      "LibAccess": [
        {
          "length": 20,
          "start": 4524
        },
        {
          "length": 20,
          "start": 4918
        },
        {
          "length": 20,
          "start": 5077
        },
        {
          "length": 20,
          "start": 6080
        },
        {
          "length": 20,
          "start": 7217
        },
        {
          "length": 20,
          "start": 7354
        },
        {
          "length": 20,
          "start": 7451
        },
        {
          "length": 20,
          "start": 7677
        },
        {
          "length": 20,
          "start": 8740
        },
        {
          "length": 20,
          "start": 8899
        },
        {
          "length": 20,
          "start": 8954
        },
        {
          "length": 20,
          "start": 9091
        }
      ]
    },
    "contracts/libraries/LibVectorAddress.sol": {
      "LibVectorAddress": [
        {
          "length": 20,
          "start": 2836
        },
        {
          "length": 20,
          "start": 3442
        },
        {
          "length": 20,
          "start": 3699
        },
        {
          "length": 20,
          "start": 5792
        }
      ]
    }
  },
  "deployedLinkReferences": {
    "contracts/libraries/LibAccess.sol": {
      "LibAccess": [
        {
          "length": 20,
          "start": 3941
        },
        {
          "length": 20,
          "start": 4335
        },
        {
          "length": 20,
          "start": 4494
        },
        {
          "length": 20,
          "start": 5497
        },
        {
          "length": 20,
          "start": 6634
        },
        {
          "length": 20,
          "start": 6771
        },
        {
          "length": 20,
          "start": 6868
        },
        {
          "length": 20,
          "start": 7094
        },
        {
          "length": 20,
          "start": 8157
        },
        {
          "length": 20,
          "start": 8316
        },
        {
          "length": 20,
          "start": 8371
        },
        {
          "length": 20,
          "start": 8508
        }
      ]
    },
    "contracts/libraries/LibVectorAddress.sol": {
      "LibVectorAddress": [
        {
          "length": 20,
          "start": 2253
        },
        {
          "length": 20,
          "start": 2859
        },
        {
          "length": 20,
          "start": 3116
        },
        {
          "length": 20,
          "start": 5209
        }
      ]
    }
  }
}