{
  "_format": "hh-sol-artifact-1",
  "contractName": "PortalRegistry",
  "sourceName": "contracts/portal/PortalRegistry.sol",
  "abi": [
    {
      "inputs": [
        {
          "internalType": "address",
          "name": "mainAdmin",
          "type": "address"
        },
        {
          "internalType": "address[]",
          "name": "admins",
          "type": "address[]"
        }
      ],
      "stateMutability": "nonpayable",
      "type": "constructor"
    },
    {
      "inputs": [],
      "name": "AccessControlBadConfirmation",
      "type": "error"
    },
    {
      "inputs": [
        {
          "internalType": "address",
          "name": "account",
          "type": "address"
        },
        {
          "internalType": "bytes32",
          "name": "neededRole",
          "type": "bytes32"
        }
      ],
      "name": "AccessControlUnauthorizedAccount",
      "type": "error"
    },
    {
      "anonymous": false,
      "inputs": [
        {
          "indexed": true,
          "internalType": "uint256",
          "name": "portalId",
          "type": "uint256"
        },
        {
          "indexed": true,
          "internalType": "address",
          "name": "avatar",
          "type": "address"
        },
        {
          "indexed": true,
          "internalType": "address",
          "name": "destination",
          "type": "address"
        }
      ],
      "name": "JumpSuccessful",
      "type": "event"
    },
    {
      "anonymous": false,
      "inputs": [
        {
          "indexed": true,
          "internalType": "uint256",
          "name": "portalId",
          "type": "uint256"
        },
        {
          "indexed": true,
          "internalType": "address",
          "name": "experience",
          "type": "address"
        }
      ],
      "name": "PortalAdded",
      "type": "event"
    },
    {
      "anonymous": false,
      "inputs": [
        {
          "indexed": true,
          "internalType": "uint256",
          "name": "portalId",
          "type": "uint256"
        },
        {
          "indexed": true,
          "internalType": "address",
          "name": "condition",
          "type": "address"
        }
      ],
      "name": "PortalConditionAdded",
      "type": "event"
    },
    {
      "anonymous": false,
      "inputs": [
        {
          "indexed": true,
          "internalType": "uint256",
          "name": "portalId",
          "type": "uint256"
        }
      ],
      "name": "PortalConditionRemoved",
      "type": "event"
    },
    {
      "anonymous": false,
      "inputs": [
        {
          "indexed": false,
          "internalType": "uint256",
          "name": "portalId",
          "type": "uint256"
        },
        {
          "indexed": false,
          "internalType": "address",
          "name": "oldExperience",
          "type": "address"
        },
        {
          "indexed": false,
          "internalType": "address",
          "name": "newExperience",
          "type": "address"
        }
      ],
      "name": "PortalDestinationUpgraded",
      "type": "event"
    },
    {
      "anonymous": false,
      "inputs": [
        {
          "indexed": false,
          "internalType": "uint256",
          "name": "portalId",
          "type": "uint256"
        },
        {
          "indexed": false,
          "internalType": "uint256",
          "name": "newFee",
          "type": "uint256"
        }
      ],
      "name": "PortalFeeChanged",
      "type": "event"
    },
    {
      "anonymous": false,
      "inputs": [
        {
          "indexed": false,
          "internalType": "address",
          "name": "newRegistry",
          "type": "address"
        }
      ],
      "name": "PortalRegistryUpgraded",
      "type": "event"
    },
    {
      "anonymous": false,
      "inputs": [
        {
          "indexed": true,
          "internalType": "bytes32",
          "name": "role",
          "type": "bytes32"
        },
        {
          "indexed": true,
          "internalType": "bytes32",
          "name": "previousAdminRole",
          "type": "bytes32"
        },
        {
          "indexed": true,
          "internalType": "bytes32",
          "name": "newAdminRole",
          "type": "bytes32"
        }
      ],
      "name": "RoleAdminChanged",
      "type": "event"
    },
    {
      "anonymous": false,
      "inputs": [
        {
          "indexed": true,
          "internalType": "bytes32",
          "name": "role",
          "type": "bytes32"
        },
        {
          "indexed": true,
          "internalType": "address",
          "name": "account",
          "type": "address"
        },
        {
          "indexed": true,
          "internalType": "address",
          "name": "sender",
          "type": "address"
        }
      ],
      "name": "RoleGranted",
      "type": "event"
    },
    {
      "anonymous": false,
      "inputs": [
        {
          "indexed": true,
          "internalType": "bytes32",
          "name": "role",
          "type": "bytes32"
        },
        {
          "indexed": true,
          "internalType": "address",
          "name": "account",
          "type": "address"
        },
        {
          "indexed": true,
          "internalType": "address",
          "name": "sender",
          "type": "address"
        }
      ],
      "name": "RoleRevoked",
      "type": "event"
    },
    {
      "inputs": [],
      "name": "ADMIN_ROLE",
      "outputs": [
        {
          "internalType": "bytes32",
          "name": "",
          "type": "bytes32"
        }
      ],
      "stateMutability": "view",
      "type": "function"
    },
    {
      "inputs": [],
      "name": "DEFAULT_ADMIN_ROLE",
      "outputs": [
        {
          "internalType": "bytes32",
          "name": "",
          "type": "bytes32"
        }
      ],
      "stateMutability": "view",
      "type": "function"
    },
    {
      "inputs": [
        {
          "internalType": "contract IPortalCondition",
          "name": "condition",
          "type": "address"
        }
      ],
      "name": "addCondition",
      "outputs": [],
      "stateMutability": "nonpayable",
      "type": "function"
    },
    {
      "inputs": [
        {
          "components": [
            {
              "internalType": "contract IExperience",
              "name": "destination",
              "type": "address"
            },
            {
              "internalType": "uint256",
              "name": "fee",
              "type": "uint256"
            }
          ],
          "internalType": "struct AddPortalRequest",
          "name": "req",
          "type": "tuple"
        }
      ],
      "name": "addPortal",
      "outputs": [
        {
          "internalType": "uint256",
          "name": "",
          "type": "uint256"
        }
      ],
      "stateMutability": "nonpayable",
      "type": "function"
    },
    {
      "inputs": [],
      "name": "avatarRegistry",
      "outputs": [
        {
          "internalType": "contract IAvatarRegistry",
          "name": "",
          "type": "address"
        }
      ],
      "stateMutability": "view",
      "type": "function"
    },
    {
      "inputs": [
        {
          "internalType": "uint256",
          "name": "newFee",
          "type": "uint256"
        }
      ],
      "name": "changePortalFee",
      "outputs": [],
      "stateMutability": "nonpayable",
      "type": "function"
    },
    {
      "inputs": [],
      "name": "experienceRegistry",
      "outputs": [
        {
          "internalType": "address",
          "name": "",
          "type": "address"
        }
      ],
      "stateMutability": "view",
      "type": "function"
    },
    {
      "inputs": [
        {
          "internalType": "address",
          "name": "experience",
          "type": "address"
        }
      ],
      "name": "getIdForExperience",
      "outputs": [
        {
          "internalType": "uint256",
          "name": "",
          "type": "uint256"
        }
      ],
      "stateMutability": "view",
      "type": "function"
    },
    {
      "inputs": [
        {
          "components": [
            {
              "internalType": "string",
              "name": "x",
              "type": "string"
            },
            {
              "internalType": "string",
              "name": "y",
              "type": "string"
            },
            {
              "internalType": "string",
              "name": "z",
              "type": "string"
            },
            {
              "internalType": "uint256",
              "name": "t",
              "type": "uint256"
            },
            {
              "internalType": "uint256",
              "name": "p",
              "type": "uint256"
            },
            {
              "internalType": "uint256",
              "name": "p_sub",
              "type": "uint256"
            }
          ],
          "internalType": "struct VectorAddress",
          "name": "va",
          "type": "tuple"
        }
      ],
      "name": "getIdForVectorAddress",
      "outputs": [
        {
          "internalType": "uint256",
          "name": "",
          "type": "uint256"
        }
      ],
      "stateMutability": "view",
      "type": "function"
    },
    {
      "inputs": [
        {
          "internalType": "address",
          "name": "experience",
          "type": "address"
        }
      ],
      "name": "getPortalInfoByAddress",
      "outputs": [
        {
          "components": [
            {
              "internalType": "contract IExperience",
              "name": "destination",
              "type": "address"
            },
            {
              "internalType": "contract IPortalCondition",
              "name": "condition",
              "type": "address"
            },
            {
              "internalType": "uint256",
              "name": "fee",
              "type": "uint256"
            }
          ],
          "internalType": "struct PortalInfo",
          "name": "",
          "type": "tuple"
        }
      ],
      "stateMutability": "view",
      "type": "function"
    },
    {
      "inputs": [
        {
          "internalType": "uint256",
          "name": "portalId",
          "type": "uint256"
        }
      ],
      "name": "getPortalInfoById",
      "outputs": [
        {
          "components": [
            {
              "internalType": "contract IExperience",
              "name": "destination",
              "type": "address"
            },
            {
              "internalType": "contract IPortalCondition",
              "name": "condition",
              "type": "address"
            },
            {
              "internalType": "uint256",
              "name": "fee",
              "type": "uint256"
            }
          ],
          "internalType": "struct PortalInfo",
          "name": "",
          "type": "tuple"
        }
      ],
      "stateMutability": "view",
      "type": "function"
    },
    {
      "inputs": [
        {
          "components": [
            {
              "internalType": "string",
              "name": "x",
              "type": "string"
            },
            {
              "internalType": "string",
              "name": "y",
              "type": "string"
            },
            {
              "internalType": "string",
              "name": "z",
              "type": "string"
            },
            {
              "internalType": "uint256",
              "name": "t",
              "type": "uint256"
            },
            {
              "internalType": "uint256",
              "name": "p",
              "type": "uint256"
            },
            {
              "internalType": "uint256",
              "name": "p_sub",
              "type": "uint256"
            }
          ],
          "internalType": "struct VectorAddress",
          "name": "va",
          "type": "tuple"
        }
      ],
      "name": "getPortalInfoByVectorAddress",
      "outputs": [
        {
          "components": [
            {
              "internalType": "contract IExperience",
              "name": "destination",
              "type": "address"
            },
            {
              "internalType": "contract IPortalCondition",
              "name": "condition",
              "type": "address"
            },
            {
              "internalType": "uint256",
              "name": "fee",
              "type": "uint256"
            }
          ],
          "internalType": "struct PortalInfo",
          "name": "",
          "type": "tuple"
        }
      ],
      "stateMutability": "view",
      "type": "function"
    },
    {
      "inputs": [
        {
          "internalType": "bytes32",
          "name": "role",
          "type": "bytes32"
        }
      ],
      "name": "getRoleAdmin",
      "outputs": [
        {
          "internalType": "bytes32",
          "name": "",
          "type": "bytes32"
        }
      ],
      "stateMutability": "view",
      "type": "function"
    },
    {
      "inputs": [
        {
          "internalType": "bytes32",
          "name": "role",
          "type": "bytes32"
        },
        {
          "internalType": "address",
          "name": "account",
          "type": "address"
        }
      ],
      "name": "grantRole",
      "outputs": [],
      "stateMutability": "nonpayable",
      "type": "function"
    },
    {
      "inputs": [
        {
          "internalType": "bytes32",
          "name": "role",
          "type": "bytes32"
        },
        {
          "internalType": "address",
          "name": "account",
          "type": "address"
        }
      ],
      "name": "hasRole",
      "outputs": [
        {
          "internalType": "bool",
          "name": "",
          "type": "bool"
        }
      ],
      "stateMutability": "view",
      "type": "function"
    },
    {
      "inputs": [
        {
          "internalType": "uint256",
          "name": "portalId",
          "type": "uint256"
        }
      ],
      "name": "jumpRequest",
      "outputs": [
        {
          "internalType": "bytes",
          "name": "",
          "type": "bytes"
        }
      ],
      "stateMutability": "payable",
      "type": "function"
    },
    {
      "inputs": [],
      "name": "removeCondition",
      "outputs": [],
      "stateMutability": "nonpayable",
      "type": "function"
    },
    {
      "inputs": [
        {
          "internalType": "bytes32",
          "name": "role",
          "type": "bytes32"
        },
        {
          "internalType": "address",
          "name": "callerConfirmation",
          "type": "address"
        }
      ],
      "name": "renounceRole",
      "outputs": [],
      "stateMutability": "nonpayable",
      "type": "function"
    },
    {
      "inputs": [
        {
          "internalType": "bytes32",
          "name": "role",
          "type": "bytes32"
        },
        {
          "internalType": "address",
          "name": "account",
          "type": "address"
        }
      ],
      "name": "revokeRole",
      "outputs": [],
      "stateMutability": "nonpayable",
      "type": "function"
    },
    {
      "inputs": [
        {
          "internalType": "address",
          "name": "registry",
          "type": "address"
        }
      ],
      "name": "setAvatarRegistry",
      "outputs": [],
      "stateMutability": "nonpayable",
      "type": "function"
    },
    {
      "inputs": [
        {
          "internalType": "address",
          "name": "registry",
          "type": "address"
        }
      ],
      "name": "setExperienceRegistry",
      "outputs": [],
      "stateMutability": "nonpayable",
      "type": "function"
    },
    {
      "inputs": [
        {
          "internalType": "bytes4",
          "name": "interfaceId",
          "type": "bytes4"
        }
      ],
      "name": "supportsInterface",
      "outputs": [
        {
          "internalType": "bool",
          "name": "",
          "type": "bool"
        }
      ],
      "stateMutability": "view",
      "type": "function"
    },
    {
      "inputs": [
        {
          "internalType": "address",
          "name": "oldExperience",
          "type": "address"
        },
        {
          "internalType": "address",
          "name": "newExperience",
          "type": "address"
        }
      ],
      "name": "upgradeExperiencePortal",
      "outputs": [],
      "stateMutability": "nonpayable",
      "type": "function"
    },
    {
      "inputs": [
        {
          "internalType": "address",
          "name": "newRegistry",
          "type": "address"
        }
      ],
      "name": "upgradeRegistry",
      "outputs": [],
      "stateMutability": "nonpayable",
      "type": "function"
    },
    {
      "inputs": [],
      "name": "upgraded",
      "outputs": [
        {
          "internalType": "bool",
          "name": "",
          "type": "bool"
        }
      ],
      "stateMutability": "view",
      "type": "function"
    },
    {
      "stateMutability": "payable",
      "type": "receive"
    }
  ],
  "bytecode": "0x60806040523480156200001157600080fd5b5060405162002947380380620029478339810160408190526200003491620002a2565b6001600160a01b038216620000a75760405162461bcd60e51b815260206004820152602e60248201527f506f7274616c52656769737472793a206d61696e2061646d696e20616464726560448201526d073732063616e6e6f7420626520360941b60648201526084015b60405180910390fd5b620000b4600083620001c0565b50620000d06000805160206200292783398151915283620001c0565b5060005b8151811015620001b75760006001600160a01b0316828281518110620000fe57620000fe6200038b565b60200260200101516001600160a01b031603620001705760405162461bcd60e51b815260206004820152602960248201527f506f7274616c52656769737472793a2061646d696e206164647265737320636160448201526806e6e6f7420626520360bc1b60648201526084016200009e565b620001ad600080516020620029278339815191528383815181106200019957620001996200038b565b6020026020010151620001c060201b60201c565b50600101620000d4565b505050620003a1565b6000828152602081815260408083206001600160a01b038516845290915281205460ff1662000265576000838152602081815260408083206001600160a01b03861684529091529020805460ff191660011790556200021c3390565b6001600160a01b0316826001600160a01b0316847f2f8788117e7eff1d82e926ec794901d17c78024a50270940304540a733656f0d60405160405180910390a450600162000269565b5060005b92915050565b80516001600160a01b03811681146200028757600080fd5b919050565b634e487b7160e01b600052604160045260246000fd5b60008060408385031215620002b657600080fd5b620002c1836200026f565b602084810151919350906001600160401b0380821115620002e157600080fd5b818601915086601f830112620002f657600080fd5b8151818111156200030b576200030b6200028c565b8060051b604051601f19603f830116810181811085821117156200033357620003336200028c565b6040529182528482019250838101850191898311156200035257600080fd5b938501935b828510156200037b576200036b856200026f565b8452938501939285019262000357565b8096505050505050509250929050565b634e487b7160e01b600052603260045260246000fd5b61257680620003b16000396000f3fe60806040526004361061016a5760003560e01c80637e6e0602116100d1578063a6c075d41161008a578063c349e28911610064578063c349e28914610546578063c512205c14610566578063d547741f14610586578063e3d7ad73146105a657600080fd5b8063a6c075d41461048c578063aa7ff6b7146104ac578063c28de2cd1461052c57600080fd5b80637e6e0602146103ba57806383c34263146103da57806384c4484e146103fa5780638f09a6be1461041a57806391d1485414610457578063a217fddf1461047757600080fd5b8063288b568411610123578063288b5684146102905780632f2ff15d1461030257806336568abe146103225780633b19e880146103425780633c3f5ff41461037857806375b238fc1461039857600080fd5b806301ffc9a714610176578063021665b7146101ab578063102ea6ae146101c2578063194663891461021257806322d3493214610240578063248a9ca31461026057600080fd5b3661017157005b600080fd5b34801561018257600080fd5b50610196610191366004611dd0565b6105c6565b60405190151581526020015b60405180910390f35b3480156101b757600080fd5b506101c06105fd565b005b3480156101ce57600080fd5b506101e26101dd366004611ee8565b6106b5565b6040805182516001600160a01b0390811682526020808501519091169082015291810151908201526060016101a2565b34801561021e57600080fd5b5061023261022d366004611ee8565b61074a565b6040519081526020016101a2565b34801561024c57600080fd5b506101c061025b366004611fd3565b610792565b34801561026c57600080fd5b5061023261027b366004611ff0565b60009081526020819052604090206001015490565b34801561029c57600080fd5b506101e26102ab366004611ff0565b60408051606080820183526000808352602080840182905292840181905293845260038252928290208251938401835280546001600160a01b03908116855260018201541691840191909152600201549082015290565b34801561030e57600080fd5b506101c061031d366004612009565b61091a565b34801561032e57600080fd5b506101c061033d366004612009565b610945565b34801561034e57600080fd5b5061023261035d366004611fd3565b6001600160a01b031660009081526005602052604090205490565b34801561038457600080fd5b50610232610393366004612039565b61097d565b3480156103a457600080fd5b5061023260008051602061252183398151915281565b3480156103c657600080fd5b506101c06103d5366004611fd3565b610bf7565b3480156103e657600080fd5b506101c06103f5366004611ff0565b610c81565b61040d610408366004611ff0565b610d34565b6040516101a291906120e1565b34801561042657600080fd5b5060015461043f9061010090046001600160a01b031681565b6040516001600160a01b0390911681526020016101a2565b34801561046357600080fd5b50610196610472366004612009565b611153565b34801561048357600080fd5b50610232600081565b34801561049857600080fd5b506101c06104a73660046120f4565b61117c565b3480156104b857600080fd5b506101e26104c7366004611fd3565b6040805160608082018352600080835260208084018290529284018190526001600160a01b0394851681526005835283812054815260038352839020835191820184528054851682526001810154909416918101919091526002909201549082015290565b34801561053857600080fd5b506001546101969060ff1681565b34801561055257600080fd5b506101c0610561366004611fd3565b6112f5565b34801561057257600080fd5b506101c0610581366004611fd3565b61143f565b34801561059257600080fd5b506101c06105a1366004612009565b6114c3565b3480156105b257600080fd5b5060025461043f906001600160a01b031681565b60006001600160e01b03198216637965db0b60e01b14806105f757506301ffc9a760e01b6001600160e01b03198316145b92915050565b33600090815260056020526040812054908190036106365760405162461bcd60e51b815260040161062d90612122565b60405180910390fd5b60015460ff16156106595760405162461bcd60e51b815260040161062d90612177565b33600090815260056020908152604080832054808452600390925280832060010180546001600160a01b031916905551909182917f2e3f0e8f6904984244368dfff28046157a23abf558feb664bf3727766cbd200c9190a25050565b60408051606081018252600080825260208201819052918101829052906106db836114e8565b6040516020016106eb91906120e1565b60408051601f1981840301815282825280516020918201206000908152600482528281205481526003825282902060608401835280546001600160a01b0390811685526001820154169184019190915260020154908201529392505050565b600080610756836114e8565b60405160200161076691906120e1565b60408051601f198184030181529181528151602092830120600090815260049092529020549392505050565b33600090815260056020526040812054908190036107c25760405162461bcd60e51b815260040161062d90612122565b60015460ff16156107e55760405162461bcd60e51b815260040161062d90612177565b6001600160a01b0382166108515760405162461bcd60e51b815260206004820152602d60248201527f506f7274616c52656769737472793a20636f6e646974696f6e2061646472657360448201526c0732063616e6e6f74206265203609c1b606482015260840161062d565b33600090815260056020526040812054908190036108bd5760405162461bcd60e51b8152602060048201526024808201527f506f7274616c52656769737472793a20657870657269656e6365206e6f7420666044820152631bdd5b9960e21b606482015260840161062d565b60008181526003602052604080822060010180546001600160a01b0319166001600160a01b0387169081179091559051909183917f50dc6bddd2ee7ed8c2f3a3bc6b995160e945bffd902a4135fccbe2fadbb332099190a3505050565b6000828152602081905260409020600101546109358161154b565b61093f8383611558565b50505050565b6001600160a01b038116331461096e5760405163334bd91960e11b815260040160405180910390fd5b61097882826115ea565b505050565b60015460009061010090046001600160a01b03166109ad5760405162461bcd60e51b815260040161062d906121c1565b60015461010090046001600160a01b031633146109dc5760405162461bcd60e51b815260040161062d9061220c565b60015460ff16156109ff5760405162461bcd60e51b815260040161062d90612177565b600082600001516001600160a01b0316632fcbab9a6040518163ffffffff1660e01b8152600401600060405180830381865afa158015610a43573d6000803e3d6000fd5b505050506040513d6000823e601f3d908101601f19168201604052610a6b91908101906122b1565b90506000610a78826114e8565b604051602001610a8891906120e1565b60408051601f1981840301815291815281516020928301206000818152600490935291205490915015610b235760405162461bcd60e51b815260206004820152603d60248201527f506f7274616c52656769737472793a20706f7274616c20616c7265616479206560448201527f786973747320666f72207468697320766563746f722061646472657373000000606482015260840161062d565b600660008154610b329061239d565b90915550600654600082815260046020908152604080832084905587516001600160a01b0390811684526005835281842085905581516060810183528951821681528084018581528a8501518285019081528787526003909552838620915182549084166001600160a01b031991821617835590516001830180549185169190921617905592516002909301929092558751905191169183917f991e8a89cc0b450dd18d7845eb5952690d2e9b8edb3624d5f5b929f3260782989190a3949350505050565b600080516020612521833981519152610c0f8161154b565b60015460ff1615610c325760405162461bcd60e51b815260040161062d90612177565b6001600160a01b038216610c585760405162461bcd60e51b815260040161062d906123b6565b50600180546001600160a01b0390921661010002610100600160a81b0319909216919091179055565b3360009081526005602052604081205490819003610cb15760405162461bcd60e51b815260040161062d90612122565b60015460ff1615610cd45760405162461bcd60e51b815260040161062d90612177565b33600090815260056020908152604080832054808452600383529281902060020185905580518381529182018590527fc45b50c704f83a591e64a45d94b4e274cc467d15386c75d56bef687efe5aea4a91015b60405180910390a1505050565b6002546060906001600160a01b0316610d9f5760405162461bcd60e51b815260206004820152602760248201527f506f7274616c52656769737472793a20617661746172207265676973747279206044820152661b9bdd081cd95d60ca1b606482015260840161062d565b600254604051632b0fe8e760e21b81523360048201526001600160a01b039091169063ac3fa39c90602401602060405180830381865afa158015610de7573d6000803e3d6000fd5b505050506040513d601f19601f82011682018060405250810190610e0b91906123fe565b610e685760405162461bcd60e51b815260206004820152602860248201527f506f7274616c52656769737472793a2063616c6c6572206d7573742062652061604482015267371030bb30ba30b960c11b606482015260840161062d565b60015460ff1615610e8b5760405162461bcd60e51b815260040161062d90612177565b6000610e9683611655565b60e0810151602001519091506001600160a01b031615610fb75760e08101516020908101519082015160408084015160608501518551925163f610c1d560e01b81526001600160a01b039485166004820152918416602483015283166044820152908216606482015233608482015291169063f610c1d59060a4016020604051808303816000875af1158015610f30573d6000803e3d6000fd5b505050506040513d601f19601f82011682018060405250810190610f5491906123fe565b610fb75760405162461bcd60e51b815260206004820152602e60248201527f506f7274616c52656769737472793a20706f7274616c206a756d7020636f6e6460448201526d1a5d1a5bdb9cc81b9bdd081b595d60921b606482015260840161062d565b60e08101516040015115611092578060e00151604001513410156110435760405162461bcd60e51b815260206004820152603960248201527f506f7274616c52656769737472793a20496e73756666696369656e742066656560448201527f20617474616368656420746f206a756d70207265717565737400000000000000606482015260840161062d565b60008160e0015160400151346110599190612420565b9050801561109057604051339082156108fc029083906000818181858888f1935050505015801561108e573d6000803e3d6000fd5b505b505b60208082015160e0830151604090810151815160608082018452838701516001600160a01b0390811683529087015181169582019586523382850190815293516354cc5a0b60e01b815291518116600483015294518516602482015291518416604483015292909116916354cc5a0b9160640160006040518083038185885af1158015611123573d6000803e3d6000fd5b50505050506040513d6000823e601f3d908101601f1916820160405261114c9190810190612433565b9392505050565b6000918252602082815260408084206001600160a01b0393909316845291905290205460ff1690565b60015461010090046001600160a01b03166111a95760405162461bcd60e51b815260040161062d906121c1565b60015461010090046001600160a01b031633146111d85760405162461bcd60e51b815260040161062d9061220c565b60015460ff16156111fb5760405162461bcd60e51b815260040161062d90612177565b6001600160a01b038216600090815260056020526040812054908190036112755760405162461bcd60e51b815260206004820152602860248201527f506f7274616c52656769737472793a206f6c6420657870657269656e6365206e6044820152671bdd08199bdd5b9960c21b606482015260840161062d565b6001600160a01b038281166000818152600560209081526040808320869055938716808352848320839055858352600382529184902080546001600160a01b03191684179055835185815290810191909152918201527f9a2d918555b7a5bdb899957e6683ff4e9c81b8a671ca77d3d0ad0ee78343def790606001610d27565b60008051602061252183398151915261130d8161154b565b60015460ff16156113305760405162461bcd60e51b815260040161062d90612177565b6001600160a01b0382166113955760405162461bcd60e51b815260206004820152602660248201527f506f7274616c52656769737472793a207a65726f2061646472657373206e6f74604482015265081d985b1a5960d21b606482015260840161062d565b6006546040516344efdce560e11b815260048101919091526001600160a01b038316906389dfb9ca90602401600060405180830381600087803b1580156113db57600080fd5b505af11580156113ef573d6000803e3d6000fd5b50506001805460ff19168117905550506040516001600160a01b03831681527f5c2aada8346cff55bb7d8df34aadd7c8f457d6e3e14cdaa3c6a03eea86894d009060200160405180910390a15050565b6000805160206125218339815191526114578161154b565b60015460ff161561147a5760405162461bcd60e51b815260040161062d90612177565b6001600160a01b0382166114a05760405162461bcd60e51b815260040161062d906123b6565b50600280546001600160a01b0319166001600160a01b0392909216919091179055565b6000828152602081905260409020600101546114de8161154b565b61093f83836115ea565b60608160000151826020015183604001516115068560600151611c28565b6115138660800151611c28565b6115208760a00151611c28565b60405160200161153596959493929190612484565b6040516020818303038152906040529050919050565b6115558133611cbb565b50565b60006115648383611153565b6115e2576000838152602081815260408083206001600160a01b03861684529091529020805460ff1916600117905561159a3390565b6001600160a01b0316826001600160a01b0316847f2f8788117e7eff1d82e926ec794901d17c78024a50270940304540a733656f0d60405160405180910390a45060016105f7565b5060006105f7565b60006115f68383611153565b156115e2576000838152602081815260408083206001600160a01b0386168085529252808320805460ff1916905551339286917ff6391f5c32d9c69d2a47ea670b442974b53935d1edc7fd64eb21e047a839171b9190a45060016105f7565b60408051610100810182526000808252602080830182905282840182905260608084018390526080840183905260a084018390528451808201865283815280830184905280860184905260c08501528451908101855282815280820183905280850183905260e084015283516328b793cf60e11b8152935192933393849263516f279e92600480820193918290030181865afa1580156116f9573d6000803e3d6000fd5b505050506040513d601f19601f8201168201806040525081019061171d9190612503565b90506001600160a01b03811661178f5760405162461bcd60e51b815260206004820152603160248201527f506f7274616c52656769737472793a20617661746172206973206e6f7420696e6044820152701030903b30b634b2103637b1b0ba34b7b760791b606482015260840161062d565b6001600160a01b038116600090815260056020526040812054908190036118285760405162461bcd60e51b815260206004820152604160248201527f506f7274616c52656769737472793a206e6f20706f7274616c20666f756e642060448201527f666f72207468652061766174617227732063757272656e74206c6f636174696f6064820152603760f91b608482015260a40161062d565b8481036118925760405162461bcd60e51b815260206004820152603260248201527f506f7274616c52656769737472793a2063616e6e6f74206a756d7020746f207460448201527168652073616d6520657870657269656e636560701b606482015260840161062d565b600081815260036020526040902080546001600160a01b031661191f576040805162461bcd60e51b81526020600482015260248101919091527f506f7274616c52656769737472793a20636f756c64206e6f74206d617020637560448201527f7272656e74206c6f636174696f6e20746f20612076616c696420706f7274616c606482015260840161062d565b600086815260036020526040902080546001600160a01b031661199a5760405162461bcd60e51b815260206004820152602d60248201527f506f7274616c52656769737472793a20696e76616c69642064657374696e617460448201526c1a5bdb881c1bdc9d185b081a59609a1b606482015260840161062d565b604080516101008101825283546001600160a01b039081168083528454909116602080840191909152835163185b3dd560e11b8152845193948501936330b67baa926004808401939192918290030181865afa1580156119fe573d6000803e3d6000fd5b505050506040513d601f19601f82011682018060405250810190611a229190612503565b6001600160a01b031681526020018360000160009054906101000a90046001600160a01b03166001600160a01b0316636904c94d6040518163ffffffff1660e01b8152600401602060405180830381865afa158015611a85573d6000803e3d6000fd5b505050506040513d601f19601f82011682018060405250810190611aa99190612503565b6001600160a01b031681526020018260000160009054906101000a90046001600160a01b03166001600160a01b03166330b67baa6040518163ffffffff1660e01b8152600401602060405180830381865afa158015611b0c573d6000803e3d6000fd5b505050506040513d601f19601f82011682018060405250810190611b309190612503565b6001600160a01b031681526020018260000160009054906101000a90046001600160a01b03166001600160a01b0316636904c94d6040518163ffffffff1660e01b8152600401602060405180830381865afa158015611b93573d6000803e3d6000fd5b505050506040513d601f19601f82011682018060405250810190611bb79190612503565b6001600160a01b039081168252604080516060808201835287548416825260018089015485166020848101919091526002998a015484860152808701939093528351918201845287548516825287015490931690830152939094015484840152919091019190915295945050505050565b60606000611c3583611cf8565b600101905060008167ffffffffffffffff811115611c5557611c55611dfa565b6040519080825280601f01601f191660200182016040528015611c7f576020820181803683370190505b5090508181016020015b600019016f181899199a1a9b1b9c1cb0b131b232b360811b600a86061a8153600a8504945084611c8957509392505050565b611cc58282611153565b611cf45760405163e2517d3f60e01b81526001600160a01b03821660048201526024810183905260440161062d565b5050565b60008072184f03e93ff9f4daa797ed6e38ed64bf6a1f0160401b8310611d375772184f03e93ff9f4daa797ed6e38ed64bf6a1f0160401b830492506040015b6d04ee2d6d415b85acef81000000008310611d63576d04ee2d6d415b85acef8100000000830492506020015b662386f26fc100008310611d8157662386f26fc10000830492506010015b6305f5e1008310611d99576305f5e100830492506008015b6127108310611dad57612710830492506004015b60648310611dbf576064830492506002015b600a83106105f75760010192915050565b600060208284031215611de257600080fd5b81356001600160e01b03198116811461114c57600080fd5b634e487b7160e01b600052604160045260246000fd5b60405160c0810167ffffffffffffffff81118282101715611e3357611e33611dfa565b60405290565b604051601f8201601f1916810167ffffffffffffffff81118282101715611e6257611e62611dfa565b604052919050565b600067ffffffffffffffff821115611e8457611e84611dfa565b50601f01601f191660200190565b600082601f830112611ea357600080fd5b8135611eb6611eb182611e6a565b611e39565b818152846020838601011115611ecb57600080fd5b816020850160208301376000918101602001919091529392505050565b600060208284031215611efa57600080fd5b813567ffffffffffffffff80821115611f1257600080fd5b9083019060c08286031215611f2657600080fd5b611f2e611e10565b823582811115611f3d57600080fd5b611f4987828601611e92565b825250602083013582811115611f5e57600080fd5b611f6a87828601611e92565b602083015250604083013582811115611f8257600080fd5b611f8e87828601611e92565b604083015250606083013560608201526080830135608082015260a083013560a082015280935050505092915050565b6001600160a01b038116811461155557600080fd5b600060208284031215611fe557600080fd5b813561114c81611fbe565b60006020828403121561200257600080fd5b5035919050565b6000806040838503121561201c57600080fd5b82359150602083013561202e81611fbe565b809150509250929050565b60006040828403121561204b57600080fd5b6040516040810181811067ffffffffffffffff8211171561206e5761206e611dfa565b604052823561207c81611fbe565b81526020928301359281019290925250919050565b60005b838110156120ac578181015183820152602001612094565b50506000910152565b600081518084526120cd816020860160208601612091565b601f01601f19169290920160200192915050565b60208152600061114c60208301846120b5565b6000806040838503121561210757600080fd5b823561211281611fbe565b9150602083013561202e81611fbe565b60208082526035908201527f506f7274616c52656769737472793a2063616c6c6572206973206e6f742061206040820152747265676973746572656420657870657269656e636560581b606082015260800190565b6020808252602a908201527f506f7274616c52656769737472793a20636f6e747261637420686173206265656040820152691b881d5c19dc9859195960b21b606082015260800190565b6020808252602b908201527f506f7274616c52656769737472793a20657870657269656e636520726567697360408201526a1d1c9e481b9bdd081cd95d60aa1b606082015260800190565b60208082526035908201527f506f7274616c52656769737472793a2063616c6c6572206973206e6f742074686040820152746520657870657269656e636520726567697374727960581b606082015260800190565b600061226f611eb184611e6a565b905082815283838301111561228357600080fd5b61114c836020830184612091565b600082601f8301126122a257600080fd5b61114c83835160208501612261565b6000602082840312156122c357600080fd5b815167ffffffffffffffff808211156122db57600080fd5b9083019060c082860312156122ef57600080fd5b6122f7611e10565b82518281111561230657600080fd5b61231287828601612291565b82525060208301518281111561232757600080fd5b61233387828601612291565b60208301525060408301518281111561234b57600080fd5b61235787828601612291565b604083015250606083015160608201526080830151608082015260a083015160a082015280935050505092915050565b634e487b7160e01b600052601160045260246000fd5b6000600182016123af576123af612387565b5060010190565b60208082526028908201527f506f7274616c52656769737472793a20696e76616c6964207265676973747279604082015267206164647265737360c01b606082015260800190565b60006020828403121561241057600080fd5b8151801515811461114c57600080fd5b818103818111156105f7576105f7612387565b60006020828403121561244557600080fd5b815167ffffffffffffffff81111561245c57600080fd5b8201601f8101841361246d57600080fd5b61247c84825160208401612261565b949350505050565b6000875160206124978285838d01612091565b8851918401916124aa8184848d01612091565b88519201916124bc8184848c01612091565b87519201916124ce8184848b01612091565b86519201916124e08184848a01612091565b85519201916124f28184848901612091565b919091019998505050505050505050565b60006020828403121561251557600080fd5b815161114c81611fbe56fea49807205ce4d355092ef5a8a18f56e8913cf4a201fbe287825b095693c21775a264697066735822122057a7f7b1b16e970eae958817c5d1b8db710160a026352e852a6e338371fe492d64736f6c63430008180033a49807205ce4d355092ef5a8a18f56e8913cf4a201fbe287825b095693c21775",
  "linkReferences": {},
  "deployedLinkReferences": {}
}