{
  "_format": "hh-sol-artifact-1",
  "contractName": "PortalRemovalExt",
  "sourceName": "contracts/extensions/portal/PortalRemovalExt.sol",
  "abi": [
    {
      "inputs": [
        {
          "internalType": "uint256",
          "name": "value",
          "type": "uint256"
        },
        {
          "internalType": "uint256",
          "name": "length",
          "type": "uint256"
        }
      ],
      "name": "StringsInsufficientHexLength",
      "type": "error"
    },
    {
      "anonymous": false,
      "inputs": [
        {
          "indexed": true,
          "internalType": "uint256",
          "name": "portalId",
          "type": "uint256"
        },
        {
          "indexed": true,
          "internalType": "address",
          "name": "experience",
          "type": "address"
        },
        {
          "indexed": false,
          "internalType": "string",
          "name": "reason",
          "type": "string"
        }
      ],
      "name": "PortalDeactivated",
      "type": "event"
    },
    {
      "anonymous": false,
      "inputs": [
        {
          "indexed": true,
          "internalType": "uint256",
          "name": "portalId",
          "type": "uint256"
        },
        {
          "indexed": true,
          "internalType": "address",
          "name": "experience",
          "type": "address"
        }
      ],
      "name": "PortalReactivated",
      "type": "event"
    },
    {
      "anonymous": false,
      "inputs": [
        {
          "indexed": true,
          "internalType": "uint256",
          "name": "portalId",
          "type": "uint256"
        },
        {
          "indexed": true,
          "internalType": "address",
          "name": "experience",
          "type": "address"
        },
        {
          "indexed": false,
          "internalType": "string",
          "name": "reason",
          "type": "string"
        }
      ],
      "name": "PortalRemoved",
      "type": "event"
    },
    {
      "inputs": [
        {
          "internalType": "uint256",
          "name": "portalId",
          "type": "uint256"
        },
        {
          "internalType": "string",
          "name": "reason",
          "type": "string"
        }
      ],
      "name": "deactivatePortal",
      "outputs": [],
      "stateMutability": "nonpayable",
      "type": "function"
    },
    {
      "inputs": [
        {
          "internalType": "address",
          "name": "myAddress",
          "type": "address"
        }
      ],
      "name": "install",
      "outputs": [],
      "stateMutability": "nonpayable",
      "type": "function"
    },
    {
      "inputs": [],
      "name": "metadata",
      "outputs": [
        {
          "components": [
            {
              "internalType": "string",
              "name": "name",
              "type": "string"
            },
            {
              "components": [
                {
                  "internalType": "uint16",
                  "name": "major",
                  "type": "uint16"
                },
                {
                  "internalType": "uint16",
                  "name": "minor",
                  "type": "uint16"
                }
              ],
              "internalType": "struct Version",
              "name": "version",
              "type": "tuple"
            }
          ],
          "internalType": "struct ExtensionMetadata",
          "name": "",
          "type": "tuple"
        }
      ],
      "stateMutability": "pure",
      "type": "function"
    },
    {
      "inputs": [
        {
          "internalType": "uint256",
          "name": "portalId",
          "type": "uint256"
        }
      ],
      "name": "reactivatePortal",
      "outputs": [],
      "stateMutability": "nonpayable",
      "type": "function"
    },
    {
      "inputs": [
        {
          "internalType": "uint256",
          "name": "portalId",
          "type": "uint256"
        },
        {
          "internalType": "string",
          "name": "reason",
          "type": "string"
        }
      ],
      "name": "removePortal",
      "outputs": [],
      "stateMutability": "nonpayable",
      "type": "function"
    },
    {
      "inputs": [
        {
          "internalType": "address",
          "name": "myAddress",
          "type": "address"
        }
      ],
      "name": "upgrade",
      "outputs": [],
      "stateMutability": "nonpayable",
      "type": "function"
    }
  ],
  "bytecode": "0x608060405234801561001057600080fd5b50610f52806100206000396000f3fe608060405234801561001057600080fd5b50600436106100625760003560e01c80630900f010146100675780632a1b8f9b1461007a578063392f37e91461008d5780635e958a11146100ab578063aed784e3146100be578063c0e2e80c146100d1575b600080fd5b610078610075366004610ae9565b50565b005b610078610088366004610ae9565b6100e4565b6100956102ac565b6040516100a29190610b5d565b60405180910390f35b6100786100b9366004610ba2565b610302565b6100786100cc366004610ba2565b61044c565b6100786100df366004610c1e565b610553565b60408051600380825260808201909252600091816020015b6040805180820190915260008152606060208201528152602001906001900390816100fc57505060408051808201825263aed784e360e01b8152815180830190925260208083527f64656163746976617465506f7274616c2875696e743235362c737472696e672983820152810191909152815191925090829060009061018557610185610c4d565b6020026020010181905250604051806040016040528063c0e2e80c60e01b6001600160e01b03191681526020016040518060400160405280601981526020017f72656163746976617465506f7274616c2875696e743235362900000000000000815250815250816001815181106101fe576101fe610c4d565b60200260200101819052506040518060400160405280635e958a1160e01b6001600160e01b03191681526020016040518060400160405280601c81526020017f72656d6f7665506f7274616c2875696e743235362c737472696e6729000000008152508152508160028151811061027757610277610c4d565b60200260200101819052506102a86040518060400160405280846001600160a01b0316815260200183815250610647565b5050565b6102b4610a98565b506040805160808101825260108183019081526f141bdc9d185b14995b5bdd985b115e1d60821b60608301528152815180830190925260018252600060208381019190915281019190915290565b6000306001600160a01b0316638f09a6be6040518163ffffffff1660e01b8152600401602060405180830381865afa158015610342573d6000803e3d6000fd5b505050506040513d601f19601f820116820180604052508101906103669190610c63565b90506001600160a01b03811633146103995760405162461bcd60e51b815260040161039090610c80565b60405180910390fd5b60006103a361080a565b600086815260208281526040808320815160808101835281546001600160a01b039081168083526001840154909116828601526002830154828501526003909201805460ff811615156060840152958c90529386905260ff19909416909255519293509091819088907fc7954ecb64947e6c1f4cc673d066e6f9a1e839ca003029af6619effde4056b209061043b908a908a90610ce9565b60405180910390a350505050505050565b6000306001600160a01b0316638f09a6be6040518163ffffffff1660e01b8152600401602060405180830381865afa15801561048c573d6000803e3d6000fd5b505050506040513d601f19601f820116820180604052508101906104b09190610c63565b90506001600160a01b03811633146104da5760405162461bcd60e51b815260040161039090610c80565b60006104e461080a565b6000868152602082905260409081902060038101805460ff191690555490519192506001600160a01b031690819087907fd664386a83f95bfa27301263afc24bea04fdb624796cb0d1c2b6b55093748594906105439089908990610ce9565b60405180910390a3505050505050565b6000306001600160a01b0316638f09a6be6040518163ffffffff1660e01b8152600401602060405180830381865afa158015610593573d6000803e3d6000fd5b505050506040513d601f19601f820116820180604052508101906105b79190610c63565b90506001600160a01b03811633146105e15760405162461bcd60e51b815260040161039090610c80565b60006105eb61080a565b60008481526020829052604080822060038101805460ff191660011790555490519293506001600160a01b031691829186917f63e7cf6eecf636f1b535fc0cc76507244657f2c1515300f3d43d6b903e3d522d9190a350505050565b6000610651610897565b82516001600160a01b031660009081526020829052604081209192505b8360200151518110156108045760008460200151828151811061069357610693610c4d565b6020908102919091018101518051600486810180546001808201835560009283528683206008830401805463ffffffff600790941690950261010090810a9384021990951660e09690961c9290920294909417905583516001600160e01b0319168152918801909352604090208054919350916001600160a01b039104161561078c57805461010090046001600160a01b0316600090815260208690526040812087519091906001870190610747906108fc565b602080870151604051610761949392600188019101610db5565b60405160208183030381529060405290508060405162461bcd60e51b81526004016103909190610e9f565b50604080518082018252600180825287516001600160a01b03908116602080850191825295516001600160e01b0319166000908152898401909652939094209151825493516001600160a81b0319909416901515610100600160a81b031916176101009390941692909202929092179091550161066e565b50505050565b60408051808201909152601481527378722e706f7274616c2e73746f726167652e763160601b60209091015260008060ff61086660017f32e6b45acdd074b73c3a2919736df19970ec59317a4f46192bf93b96896df009610ec8565b60405160200161087891815260200190565b60408051601f1981840301815291905280516020909101201692915050565b60408051808201909152601881527f78722e657874656e73696f6e732e73746f726167652e7631000000000000000060209091015260008060ff61086660017fb58ec9ca7ba0606d9fecd9f559655d0e5fec418e6751b65b892bccdfd25eb99f610ec8565b60606109126001600160a01b0383166014610918565b92915050565b6060826000610928846002610edb565b610933906002610ef2565b67ffffffffffffffff81111561094b5761094b610c37565b6040519080825280601f01601f191660200182016040528015610975576020820181803683370190505b509050600360fc1b8160008151811061099057610990610c4d565b60200101906001600160f81b031916908160001a905350600f60fb1b816001815181106109bf576109bf610c4d565b60200101906001600160f81b031916908160001a90535060006109e3856002610edb565b6109ee906001610ef2565b90505b6001811115610a66576f181899199a1a9b1b9c1cb0b131b232b360811b83600f1660108110610a2257610a22610c4d565b1a60f81b828281518110610a3857610a38610c4d565b60200101906001600160f81b031916908160001a90535060049290921c91610a5f81610f05565b90506109f1565b508115610a905760405163e22e27eb60e01b81526004810186905260248101859052604401610390565b949350505050565b604051806040016040528060608152602001610acf6040518060400160405280600061ffff168152602001600061ffff1681525090565b905290565b6001600160a01b038116811461007557600080fd5b600060208284031215610afb57600080fd5b8135610b0681610ad4565b9392505050565b60005b83811015610b28578181015183820152602001610b10565b50506000910152565b60008151808452610b49816020860160208601610b0d565b601f01601f19169290920160200192915050565b602081526000825160606020840152610b796080840182610b31565b602094850151805161ffff90811660408701529501519094166060909301929092525090919050565b600080600060408486031215610bb757600080fd5b83359250602084013567ffffffffffffffff80821115610bd657600080fd5b818601915086601f830112610bea57600080fd5b813581811115610bf957600080fd5b876020828501011115610c0b57600080fd5b6020830194508093505050509250925092565b600060208284031215610c3057600080fd5b5035919050565b634e487b7160e01b600052604160045260246000fd5b634e487b7160e01b600052603260045260246000fd5b600060208284031215610c7557600080fd5b8151610b0681610ad4565b60208082526043908201527f506f7274616c526567697374726174696f6e3a204f6e6c79206578706572696560408201527f6e63652072656769737472792063616e2063616c6c20746869732066756e637460608201526234b7b760e91b608082015260a00190565b60208152816020820152818360408301376000818301604090810191909152601f909201601f19160101919050565b8054600090600181811c9080831680610d3257607f831692505b60208084108203610d5357634e487b7160e01b600052602260045260246000fd5b818015610d675760018114610d7c57610da9565b60ff1986168952841515850289019650610da9565b60008881526020902060005b86811015610da15781548b820152908501908301610d88565b505084890196505b50505050505092915050565b7f4c6962457874656e73696f6e3a20657874656e73696f6e20000000000000000081526000610de76018830187610d18565b6c01030ba1030b2323932b9b99d1609d1b81528551610e0d81600d840160208a01610b0d565b8082019150507f20617474656d7074696e6720746f20726575736520612073656c6563746f723a600d820152600160fd1b80602d8301528551610e5781602e850160208a01610b0d565b7f2c20776869636820697320616c72656164792072656769737465726564206279602e9390910192830152604e820152610e94604f820185610d18565b979650505050505050565b602081526000610b066020830184610b31565b634e487b7160e01b600052601160045260246000fd5b8181038181111561091257610912610eb2565b808202811582820484141761091257610912610eb2565b8082018082111561091257610912610eb2565b600081610f1457610f14610eb2565b50600019019056fea26469706673582212206e8ccbf4532840a7395ec0e3e86159ee758dfc6d1fd5e318b1bcc93b27a7f59464736f6c63430008180033",
  "linkReferences": {},
  "deployedLinkReferences": {}
}