{
  "_format": "hh-sol-artifact-1",
  "contractName": "PortalRegistry",
  "sourceName": "contracts/portal/PortalRegistry.sol",
  "abi": [
    {
      "inputs": [
        {
          "components": [
            {
              "internalType": "address",
              "name": "avatarRegistry",
              "type": "address"
            }
          ],
          "internalType": "struct PortalRegistryConstructorArgs",
          "name": "args",
          "type": "tuple"
        }
      ],
      "stateMutability": "nonpayable",
      "type": "constructor"
    },
    {
      "anonymous": false,
      "inputs": [
        {
          "indexed": true,
          "internalType": "uint256",
          "name": "portalId",
          "type": "uint256"
        },
        {
          "indexed": true,
          "internalType": "address",
          "name": "avatar",
          "type": "address"
        },
        {
          "indexed": true,
          "internalType": "address",
          "name": "destination",
          "type": "address"
        }
      ],
      "name": "JumpSuccessful",
      "type": "event"
    },
    {
      "anonymous": false,
      "inputs": [
        {
          "indexed": true,
          "internalType": "uint256",
          "name": "portalId",
          "type": "uint256"
        },
        {
          "indexed": true,
          "internalType": "address",
          "name": "experience",
          "type": "address"
        }
      ],
      "name": "PortalAdded",
      "type": "event"
    },
    {
      "anonymous": false,
      "inputs": [
        {
          "indexed": true,
          "internalType": "uint256",
          "name": "portalId",
          "type": "uint256"
        },
        {
          "indexed": true,
          "internalType": "address",
          "name": "condition",
          "type": "address"
        }
      ],
      "name": "PortalConditionAdded",
      "type": "event"
    },
    {
      "anonymous": false,
      "inputs": [
        {
          "indexed": true,
          "internalType": "uint256",
          "name": "portalId",
          "type": "uint256"
        }
      ],
      "name": "PortalConditionRemoved",
      "type": "event"
    },
    {
      "anonymous": false,
      "inputs": [
        {
          "indexed": true,
          "internalType": "uint256",
          "name": "portalId",
          "type": "uint256"
        },
        {
          "indexed": true,
          "internalType": "address",
          "name": "experience",
          "type": "address"
        },
        {
          "indexed": false,
          "internalType": "string",
          "name": "reason",
          "type": "string"
        }
      ],
      "name": "PortalDeactivated",
      "type": "event"
    },
    {
      "anonymous": false,
      "inputs": [
        {
          "indexed": true,
          "internalType": "uint256",
          "name": "portalId",
          "type": "uint256"
        },
        {
          "indexed": true,
          "internalType": "address",
          "name": "oldExperience",
          "type": "address"
        },
        {
          "indexed": true,
          "internalType": "address",
          "name": "newExperience",
          "type": "address"
        }
      ],
      "name": "PortalDestinationUpgraded",
      "type": "event"
    },
    {
      "anonymous": false,
      "inputs": [
        {
          "indexed": true,
          "internalType": "uint256",
          "name": "portalId",
          "type": "uint256"
        },
        {
          "indexed": true,
          "internalType": "uint256",
          "name": "newFee",
          "type": "uint256"
        }
      ],
      "name": "PortalFeeChanged",
      "type": "event"
    },
    {
      "anonymous": false,
      "inputs": [
        {
          "indexed": true,
          "internalType": "uint256",
          "name": "portalId",
          "type": "uint256"
        },
        {
          "indexed": true,
          "internalType": "address",
          "name": "experience",
          "type": "address"
        }
      ],
      "name": "PortalReactivated",
      "type": "event"
    },
    {
      "anonymous": false,
      "inputs": [
        {
          "indexed": true,
          "internalType": "address",
          "name": "newRegistry",
          "type": "address"
        }
      ],
      "name": "PortalRegistryUpgraded",
      "type": "event"
    },
    {
      "anonymous": false,
      "inputs": [
        {
          "indexed": true,
          "internalType": "uint256",
          "name": "portalId",
          "type": "uint256"
        },
        {
          "indexed": true,
          "internalType": "address",
          "name": "experience",
          "type": "address"
        },
        {
          "indexed": false,
          "internalType": "string",
          "name": "reason",
          "type": "string"
        }
      ],
      "name": "PortalRemoved",
      "type": "event"
    },
    {
      "inputs": [
        {
          "internalType": "contract IPortalCondition",
          "name": "condition",
          "type": "address"
        }
      ],
      "name": "addCondition",
      "outputs": [],
      "stateMutability": "nonpayable",
      "type": "function"
    },
    {
      "inputs": [
        {
          "components": [
            {
              "internalType": "contract IExperience",
              "name": "destination",
              "type": "address"
            },
            {
              "internalType": "uint256",
              "name": "fee",
              "type": "uint256"
            }
          ],
          "internalType": "struct AddPortalRequest",
          "name": "req",
          "type": "tuple"
        }
      ],
      "name": "addPortal",
      "outputs": [
        {
          "internalType": "uint256",
          "name": "",
          "type": "uint256"
        }
      ],
      "stateMutability": "nonpayable",
      "type": "function"
    },
    {
      "inputs": [
        {
          "internalType": "address[]",
          "name": "signers",
          "type": "address[]"
        }
      ],
      "name": "addSigners",
      "outputs": [],
      "stateMutability": "nonpayable",
      "type": "function"
    },
    {
      "inputs": [],
      "name": "avatarRegistry",
      "outputs": [
        {
          "internalType": "contract IAvatarRegistry",
          "name": "",
          "type": "address"
        }
      ],
      "stateMutability": "view",
      "type": "function"
    },
    {
      "inputs": [
        {
          "internalType": "address",
          "name": "newOwner",
          "type": "address"
        }
      ],
      "name": "changeOwner",
      "outputs": [],
      "stateMutability": "nonpayable",
      "type": "function"
    },
    {
      "inputs": [
        {
          "internalType": "uint256",
          "name": "newFee",
          "type": "uint256"
        }
      ],
      "name": "changePortalFee",
      "outputs": [],
      "stateMutability": "nonpayable",
      "type": "function"
    },
    {
      "inputs": [
        {
          "internalType": "uint256",
          "name": "portalId",
          "type": "uint256"
        },
        {
          "internalType": "string",
          "name": "reason",
          "type": "string"
        }
      ],
      "name": "deactivatePortal",
      "outputs": [],
      "stateMutability": "nonpayable",
      "type": "function"
    },
    {
      "inputs": [],
      "name": "experienceRegistry",
      "outputs": [
        {
          "internalType": "contract IExperienceRegistry",
          "name": "",
          "type": "address"
        }
      ],
      "stateMutability": "view",
      "type": "function"
    },
    {
      "inputs": [
        {
          "internalType": "address",
          "name": "experience",
          "type": "address"
        }
      ],
      "name": "getIdForExperience",
      "outputs": [
        {
          "internalType": "uint256",
          "name": "",
          "type": "uint256"
        }
      ],
      "stateMutability": "view",
      "type": "function"
    },
    {
      "inputs": [
        {
          "components": [
            {
              "internalType": "string",
              "name": "x",
              "type": "string"
            },
            {
              "internalType": "string",
              "name": "y",
              "type": "string"
            },
            {
              "internalType": "string",
              "name": "z",
              "type": "string"
            },
            {
              "internalType": "uint256",
              "name": "t",
              "type": "uint256"
            },
            {
              "internalType": "uint256",
              "name": "p",
              "type": "uint256"
            },
            {
              "internalType": "uint256",
              "name": "p_sub",
              "type": "uint256"
            }
          ],
          "internalType": "struct VectorAddress",
          "name": "va",
          "type": "tuple"
        }
      ],
      "name": "getIdForVectorAddress",
      "outputs": [
        {
          "internalType": "uint256",
          "name": "",
          "type": "uint256"
        }
      ],
      "stateMutability": "view",
      "type": "function"
    },
    {
      "inputs": [
        {
          "internalType": "address",
          "name": "experience",
          "type": "address"
        }
      ],
      "name": "getPortalInfoByAddress",
      "outputs": [
        {
          "components": [
            {
              "internalType": "contract IExperience",
              "name": "destination",
              "type": "address"
            },
            {
              "internalType": "contract IPortalCondition",
              "name": "condition",
              "type": "address"
            },
            {
              "internalType": "uint256",
              "name": "fee",
              "type": "uint256"
            },
            {
              "internalType": "bool",
              "name": "active",
              "type": "bool"
            }
          ],
          "internalType": "struct PortalInfo",
          "name": "",
          "type": "tuple"
        }
      ],
      "stateMutability": "view",
      "type": "function"
    },
    {
      "inputs": [
        {
          "internalType": "uint256",
          "name": "portalId",
          "type": "uint256"
        }
      ],
      "name": "getPortalInfoById",
      "outputs": [
        {
          "components": [
            {
              "internalType": "contract IExperience",
              "name": "destination",
              "type": "address"
            },
            {
              "internalType": "contract IPortalCondition",
              "name": "condition",
              "type": "address"
            },
            {
              "internalType": "uint256",
              "name": "fee",
              "type": "uint256"
            },
            {
              "internalType": "bool",
              "name": "active",
              "type": "bool"
            }
          ],
          "internalType": "struct PortalInfo",
          "name": "",
          "type": "tuple"
        }
      ],
      "stateMutability": "view",
      "type": "function"
    },
    {
      "inputs": [
        {
          "components": [
            {
              "internalType": "string",
              "name": "x",
              "type": "string"
            },
            {
              "internalType": "string",
              "name": "y",
              "type": "string"
            },
            {
              "internalType": "string",
              "name": "z",
              "type": "string"
            },
            {
              "internalType": "uint256",
              "name": "t",
              "type": "uint256"
            },
            {
              "internalType": "uint256",
              "name": "p",
              "type": "uint256"
            },
            {
              "internalType": "uint256",
              "name": "p_sub",
              "type": "uint256"
            }
          ],
          "internalType": "struct VectorAddress",
          "name": "va",
          "type": "tuple"
        }
      ],
      "name": "getPortalInfoByVectorAddress",
      "outputs": [
        {
          "components": [
            {
              "internalType": "contract IExperience",
              "name": "destination",
              "type": "address"
            },
            {
              "internalType": "contract IPortalCondition",
              "name": "condition",
              "type": "address"
            },
            {
              "internalType": "uint256",
              "name": "fee",
              "type": "uint256"
            },
            {
              "internalType": "bool",
              "name": "active",
              "type": "bool"
            }
          ],
          "internalType": "struct PortalInfo",
          "name": "",
          "type": "tuple"
        }
      ],
      "stateMutability": "view",
      "type": "function"
    },
    {
      "inputs": [
        {
          "internalType": "bytes32",
          "name": "role",
          "type": "bytes32"
        },
        {
          "internalType": "address",
          "name": "account",
          "type": "address"
        }
      ],
      "name": "grantRole",
      "outputs": [],
      "stateMutability": "nonpayable",
      "type": "function"
    },
    {
      "inputs": [
        {
          "internalType": "bytes32",
          "name": "role",
          "type": "bytes32"
        },
        {
          "internalType": "address",
          "name": "account",
          "type": "address"
        }
      ],
      "name": "hasRole",
      "outputs": [
        {
          "internalType": "bool",
          "name": "",
          "type": "bool"
        }
      ],
      "stateMutability": "view",
      "type": "function"
    },
    {
      "inputs": [
        {
          "internalType": "address",
          "name": "account",
          "type": "address"
        }
      ],
      "name": "isAdmin",
      "outputs": [
        {
          "internalType": "bool",
          "name": "",
          "type": "bool"
        }
      ],
      "stateMutability": "view",
      "type": "function"
    },
    {
      "inputs": [
        {
          "internalType": "address",
          "name": "account",
          "type": "address"
        }
      ],
      "name": "isSigner",
      "outputs": [
        {
          "internalType": "bool",
          "name": "",
          "type": "bool"
        }
      ],
      "stateMutability": "view",
      "type": "function"
    },
    {
      "inputs": [
        {
          "internalType": "uint256",
          "name": "portalId",
          "type": "uint256"
        }
      ],
      "name": "jumpRequest",
      "outputs": [
        {
          "internalType": "bytes",
          "name": "",
          "type": "bytes"
        }
      ],
      "stateMutability": "payable",
      "type": "function"
    },
    {
      "inputs": [],
      "name": "owner",
      "outputs": [
        {
          "internalType": "address",
          "name": "",
          "type": "address"
        }
      ],
      "stateMutability": "view",
      "type": "function"
    },
    {
      "inputs": [
        {
          "internalType": "uint256",
          "name": "portalId",
          "type": "uint256"
        }
      ],
      "name": "reactivatePortal",
      "outputs": [],
      "stateMutability": "nonpayable",
      "type": "function"
    },
    {
      "inputs": [],
      "name": "removeCondition",
      "outputs": [],
      "stateMutability": "nonpayable",
      "type": "function"
    },
    {
      "inputs": [
        {
          "internalType": "uint256",
          "name": "portalId",
          "type": "uint256"
        },
        {
          "internalType": "string",
          "name": "reason",
          "type": "string"
        }
      ],
      "name": "removePortal",
      "outputs": [],
      "stateMutability": "nonpayable",
      "type": "function"
    },
    {
      "inputs": [
        {
          "internalType": "address[]",
          "name": "signers",
          "type": "address[]"
        }
      ],
      "name": "removeSigners",
      "outputs": [],
      "stateMutability": "nonpayable",
      "type": "function"
    },
    {
      "inputs": [
        {
          "internalType": "bytes32",
          "name": "role",
          "type": "bytes32"
        },
        {
          "internalType": "address",
          "name": "account",
          "type": "address"
        }
      ],
      "name": "revokeRole",
      "outputs": [],
      "stateMutability": "nonpayable",
      "type": "function"
    },
    {
      "inputs": [
        {
          "internalType": "address",
          "name": "expReg",
          "type": "address"
        }
      ],
      "name": "setExperienceRegistry",
      "outputs": [],
      "stateMutability": "nonpayable",
      "type": "function"
    },
    {
      "inputs": [],
      "name": "version",
      "outputs": [
        {
          "components": [
            {
              "internalType": "uint16",
              "name": "major",
              "type": "uint16"
            },
            {
              "internalType": "uint16",
              "name": "minor",
              "type": "uint16"
            }
          ],
          "internalType": "struct Version",
          "name": "",
          "type": "tuple"
        }
      ],
      "stateMutability": "pure",
      "type": "function"
    }
  ],
  "bytecode": "0x60a06040523480156200001157600080fd5b5060405162002fad38038062002fad8339810160408190526200003491620000c9565b80516001600160a01b0316620000b65760405162461bcd60e51b815260206004820152603a60248201527f506f7274616c52656769737472793a204176617461722072656769737472792060448201527f63616e6e6f7420626520746865207a65726f2061646472657373000000000000606482015260840160405180910390fd5b516001600160a01b031660805262000131565b600060208284031215620000dc57600080fd5b604051602081016001600160401b03811182821017156200010d57634e487b7160e01b600052604160045260246000fd5b60405282516001600160a01b03811681146200012857600080fd5b81529392505050565b608051612e596200015460003960008181610533015261146d0152612e596000f3fe6080604052600436106101815760003560e01c806383c34263116100d1578063a6f9dae11161008a578063c0e2e80c11610064578063c0e2e80c146104e1578063d547741f14610501578063e3d7ad7314610521578063e8906a2d1461055557600080fd5b8063a6f9dae114610481578063aa7ff6b7146104a1578063aed784e3146104c157600080fd5b806383c34263146103b457806384c4484e146103d45780638d361e43146103f45780638da5cb5b146104145780638f09a6be1461044157806391d148541461046157600080fd5b80632f2ff15d1161013e57806354fd4d501161011857806354fd4d50146103075780635e958a11146103545780637df73e27146103745780637e6e06021461039457600080fd5b80632f2ff15d146102a75780633b19e880146102c75780633c3f5ff4146102e757600080fd5b8063021665b714610186578063102ea6ae1461019d578063194663891461020957806322d349321461023757806324d7806c14610257578063288b568414610287575b600080fd5b34801561019257600080fd5b5061019b610575565b005b3480156101a957600080fd5b506101bd6101b836600461264e565b6106ec565b604051610200919081516001600160a01b039081168252602080840151909116908201526040808301519082015260609182015115159181019190915260800190565b60405180910390f35b34801561021557600080fd5b5061022961022436600461264e565b61081a565b604051908152602001610200565b34801561024357600080fd5b5061019b61025236600461273c565b6108e1565b34801561026357600080fd5b5061027761027236600461273c565b610b2a565b6040519015158152602001610200565b34801561029357600080fd5b506101bd6102a2366004612759565b610bb0565b3480156102b357600080fd5b5061019b6102c2366004612772565b610c30565b3480156102d357600080fd5b506102296102e236600461273c565b610d36565b3480156102f357600080fd5b506102296103023660046127a2565b610d62565b34801561031357600080fd5b50604080518082018252600080825260209182018190528251808401845260018082529083019182528351908152905161ffff169181019190915201610200565b34801561036057600080fd5b5061019b61036f3660046127fa565b61102f565b34801561038057600080fd5b5061027761038f36600461273c565b61110b565b3480156103a057600080fd5b5061019b6103af36600461273c565b61114e565b3480156103c057600080fd5b5061019b6103cf366004612759565b6112ec565b6103e76103e2366004612759565b611455565b60405161020091906128c6565b34801561040057600080fd5b5061019b61040f3660046128d9565b61181a565b34801561042057600080fd5b506104296118e2565b6040516001600160a01b039091168152602001610200565b34801561044d57600080fd5b50600054610429906001600160a01b031681565b34801561046d57600080fd5b5061027761047c366004612772565b611956565b34801561048d57600080fd5b5061019b61049c36600461273c565b6119dc565b3480156104ad57600080fd5b506101bd6104bc36600461273c565b611b17565b3480156104cd57600080fd5b5061019b6104dc3660046127fa565b611ba8565b3480156104ed57600080fd5b5061019b6104fc366004612759565b611c4a565b34801561050d57600080fd5b5061019b61051c366004612772565b611cd9565b34801561052d57600080fd5b506104297f000000000000000000000000000000000000000000000000000000000000000081565b34801561056157600080fd5b5061019b6105703660046128d9565b611daf565b60005460405163c3c5a54760e01b81523360048201526001600160a01b039091169063c3c5a54790602401602060405180830381865afa1580156105bd573d6000803e3d6000fd5b505050506040513d601f19601f820116820180604052508101906105e1919061294e565b6106065760405162461bcd60e51b81526004016105fd90612970565b60405180910390fd5b336001600160a01b03166386b70bed6040518163ffffffff1660e01b8152600401602060405180830381865afa158015610644573d6000803e3d6000fd5b505050506040513d601f19601f82011682018060405250810190610668919061294e565b6106845760405162461bcd60e51b81526004016105fd906129d8565b600061068e611e77565b3360009081526002820160209081526040808320548084529184905280832060010180546001600160a01b0319169055519293509182917f2e3f0e8f6904984244368dfff28046157a23abf558feb664bf3727766cbd200c91a25050565b604080516080810182526000808252602082018190529181018290526060810182905290610718611e77565b6040516329a6121760e21b815290915060009073__$ad2b23306edd42b5f4873830e307b82d47$__9063a698485c90610755908790600401612a35565b600060405180830381865af4158015610772573d6000803e3d6000fd5b505050506040513d6000823e601f3d908101601f1916820160405261079a9190810190612b08565b6040516020016107aa91906128c6565b60408051601f19818403018152828252805160209182012060009081526001808701835283822054825295825282902060808401835280546001600160a01b039081168552958101549095169083015260028401549082015260039092015460ff16151560608301525092915050565b6040516329a6121760e21b8152600090819073__$ad2b23306edd42b5f4873830e307b82d47$__9063a698485c90610856908690600401612a35565b600060405180830381865af4158015610873573d6000803e3d6000fd5b505050506040513d6000823e601f3d908101601f1916820160405261089b9190810190612b08565b6040516020016108ab91906128c6565b6040516020818303038152906040528051906020012090506108cb611e77565b6000918252600101602052604090205492915050565b60005460405163c3c5a54760e01b81523360048201526001600160a01b039091169063c3c5a54790602401602060405180830381865afa158015610929573d6000803e3d6000fd5b505050506040513d601f19601f8201168201806040525081019061094d919061294e565b6109695760405162461bcd60e51b81526004016105fd90612970565b336001600160a01b03166386b70bed6040518163ffffffff1660e01b8152600401602060405180830381865afa1580156109a7573d6000803e3d6000fd5b505050506040513d601f19601f820116820180604052508101906109cb919061294e565b6109e75760405162461bcd60e51b81526004016105fd906129d8565b60006109f1611e77565b90506001600160a01b038216610a5f5760405162461bcd60e51b815260206004820152602d60248201527f506f7274616c52656769737472793a20636f6e646974696f6e2061646472657360448201526c0732063616e6e6f74206265203609c1b60648201526084016105fd565b33600090815260028201602052604081205490819003610acd5760405162461bcd60e51b8152602060048201526024808201527f506f7274616c52656769737472793a20657870657269656e6365206e6f7420666044820152631bdd5b9960e21b60648201526084016105fd565b60008181526020839052604080822060010180546001600160a01b0319166001600160a01b0387169081179091559051909183917f50dc6bddd2ee7ed8c2f3a3bc6b995160e945bffd902a4135fccbe2fadbb332099190a3505050565b604051630935e01b60e21b81526001600160a01b038216600482015260009073__$a5a42e46683ad9c79b7b86d5ff60fdf4c1$__906324d7806c906024015b602060405180830381865af4158015610b86573d6000803e3d6000fd5b505050506040513d601f19601f82011682018060405250810190610baa919061294e565b92915050565b604080516080810182526000808252602082018190529181018290526060810191909152610bdc611e77565b60009283526020908152604092839020835160808101855281546001600160a01b0390811682526001830154169281019290925260028101549382019390935260039092015460ff16151560608301525090565b604051630935e01b60e21b815233600482015273__$a5a42e46683ad9c79b7b86d5ff60fdf4c1$__906324d7806c90602401602060405180830381865af4158015610c7f573d6000803e3d6000fd5b505050506040513d601f19601f82011682018060405250810190610ca3919061294e565b610cbf5760405162461bcd60e51b81526004016105fd90612b45565b604051632f2ff15d60e01b8152600481018390526001600160a01b038216602482015273__$a5a42e46683ad9c79b7b86d5ff60fdf4c1$__90632f2ff15d906044015b60006040518083038186803b158015610d1a57600080fd5b505af4158015610d2e573d6000803e3d6000fd5b505050505050565b6000610d40611e77565b6001600160a01b03909216600090815260029290920160205250604090205490565b600080546001600160a01b03163314610d8d5760405162461bcd60e51b81526004016105fd90612b7a565b600082600001516001600160a01b0316632fcbab9a6040518163ffffffff1660e01b8152600401600060405180830381865afa158015610dd1573d6000803e3d6000fd5b505050506040513d6000823e601f3d908101601f19168201604052610df99190810190612bd7565b6040516329a6121760e21b815290915060009073__$ad2b23306edd42b5f4873830e307b82d47$__9063a698485c90610e36908590600401612a35565b600060405180830381865af4158015610e53573d6000803e3d6000fd5b505050506040513d6000823e601f3d908101601f19168201604052610e7b9190810190612b08565b604051602001610e8b91906128c6565b6040516020818303038152906040528051906020012090506000610ead611e77565b600083815260018201602052604090205490915015610f345760405162461bcd60e51b815260206004820152603d60248201527f506f7274616c52656769737472793a20706f7274616c20616c7265616479206560448201527f786973747320666f72207468697320766563746f72206164647265737300000060648201526084016105fd565b8060030160008154610f4590612cc3565b9091555060038082015460008481526001808501602090815260408084208590558a516001600160a01b0390811685526002808901845282862087905582516080810184528d51831681528085018781528e860151828601908152606083018881528a8a52968c9052858920925183549086166001600160a01b03199182161784559151978301805498861698909216979097179055945190850155915192909501805492151560ff1990931692909217909155885193519293169183917f991e8a89cc0b450dd18d7845eb5952690d2e9b8edb3624d5f5b929f32607829891a395945050505050565b6000546001600160a01b031633146110595760405162461bcd60e51b81526004016105fd90612b7a565b6000611063611e77565b600085815260208281526040808320815160808101835281546001600160a01b039081168083526001840154909116828601526002830154828501526003909201805460ff811615156060840152958b90529386905260ff19909416909255519293509091819087907fc7954ecb64947e6c1f4cc673d066e6f9a1e839ca003029af6619effde4056b20906110fb9089908990612cdc565b60405180910390a3505050505050565b604051637df73e2760e01b81526001600160a01b038216600482015260009073__$a5a42e46683ad9c79b7b86d5ff60fdf4c1$__90637df73e2790602401610b69565b604051630935e01b60e21b815233600482015273__$a5a42e46683ad9c79b7b86d5ff60fdf4c1$__906324d7806c90602401602060405180830381865af415801561119d573d6000803e3d6000fd5b505050506040513d601f19601f820116820180604052508101906111c1919061294e565b6111dd5760405162461bcd60e51b81526004016105fd90612b45565b6001600160a01b0381166112595760405162461bcd60e51b815260206004820152603e60248201527f506f7274616c52656769737472793a20657870657269656e636520726567697360448201527f7472792063616e6e6f7420626520746865207a65726f2061646472657373000060648201526084016105fd565b6000546001600160a01b0316156112ca5760405162461bcd60e51b815260206004820152602f60248201527f506f7274616c52656769737472793a20657870657269656e636520726567697360448201526e1d1c9e48185b1c9958591e481cd95d608a1b60648201526084016105fd565b600080546001600160a01b0319166001600160a01b0392909216919091179055565b60005460405163c3c5a54760e01b81523360048201526001600160a01b039091169063c3c5a54790602401602060405180830381865afa158015611334573d6000803e3d6000fd5b505050506040513d601f19601f82011682018060405250810190611358919061294e565b6113745760405162461bcd60e51b81526004016105fd90612970565b336001600160a01b03166386b70bed6040518163ffffffff1660e01b8152600401602060405180830381865afa1580156113b2573d6000803e3d6000fd5b505050506040513d601f19601f820116820180604052508101906113d6919061294e565b6113f25760405162461bcd60e51b81526004016105fd906129d8565b60006113fc611e77565b3360009081526002808301602090815260408084205480855291859052808420909201869055905192935091849183917fc45b50c704f83a591e64a45d94b4e274cc467d15386c75d56bef687efe5aea4a9190a3505050565b60405163c3c5a54760e01b81523360048201526060907f00000000000000000000000000000000000000000000000000000000000000006001600160a01b03169063c3c5a54790602401602060405180830381865afa1580156114bc573d6000803e3d6000fd5b505050506040513d601f19601f820116820180604052508101906114e0919061294e565b6115525760405162461bcd60e51b815260206004820152603e60248201527f506f7274616c52656769737472793a204f6e6c7920726567697374657265642060448201527f617661746172732063616e2063616c6c20746869732066756e6374696f6e000060648201526084016105fd565b600061155d83611f04565b60e0810151602001519091506001600160a01b03161561167e5760e08101516020908101519082015160408084015160608501518551925163f610c1d560e01b81526001600160a01b039485166004820152918416602483015283166044820152908216606482015233608482015291169063f610c1d59060a4016020604051808303816000875af11580156115f7573d6000803e3d6000fd5b505050506040513d601f19601f8201168201806040525081019061161b919061294e565b61167e5760405162461bcd60e51b815260206004820152602e60248201527f506f7274616c52656769737472793a20706f7274616c206a756d7020636f6e6460448201526d1a5d1a5bdb9cc81b9bdd081b595d60921b60648201526084016105fd565b60e08101516040015115611759578060e001516040015134101561170a5760405162461bcd60e51b815260206004820152603960248201527f506f7274616c52656769737472793a20496e73756666696369656e742066656560448201527f20617474616368656420746f206a756d7020726571756573740000000000000060648201526084016105fd565b60008160e0015160400151346117209190612d0b565b9050801561175757604051339082156108fc029083906000818181858888f19350505050158015611755573d6000803e3d6000fd5b505b505b60208082015160e0830151604090810151815160608082018452838701516001600160a01b0390811683529087015181169582019586523382850190815293516354cc5a0b60e01b815291518116600483015294518516602482015291518416604483015292909116916354cc5a0b9160640160006040518083038185885af11580156117ea573d6000803e3d6000fd5b50505050506040513d6000823e601f3d908101601f191682016040526118139190810190612d1e565b9392505050565b604051630935e01b60e21b815233600482015273__$a5a42e46683ad9c79b7b86d5ff60fdf4c1$__906324d7806c90602401602060405180830381865af4158015611869573d6000803e3d6000fd5b505050506040513d601f19601f8201168201806040525081019061188d919061294e565b6118a95760405162461bcd60e51b81526004016105fd90612b45565b604051638d361e4360e01b815273__$a5a42e46683ad9c79b7b86d5ff60fdf4c1$__90638d361e4390610d029085908590600401612d67565b600073__$a5a42e46683ad9c79b7b86d5ff60fdf4c1$__638da5cb5b6040518163ffffffff1660e01b8152600401602060405180830381865af415801561192d573d6000803e3d6000fd5b505050506040513d601f19601f820116820180604052508101906119519190612db5565b905090565b604051632474521560e21b8152600481018390526001600160a01b038216602482015260009073__$a5a42e46683ad9c79b7b86d5ff60fdf4c1$__906391d1485490604401602060405180830381865af41580156119b8573d6000803e3d6000fd5b505050506040513d601f19601f82011682018060405250810190611813919061294e565b336001600160a01b031673__$a5a42e46683ad9c79b7b86d5ff60fdf4c1$__638da5cb5b6040518163ffffffff1660e01b8152600401602060405180830381865af4158015611a2f573d6000803e3d6000fd5b505050506040513d601f19601f82011682018060405250810190611a539190612db5565b6001600160a01b031614611aa95760405162461bcd60e51b815260206004820152601f60248201527f426173654163636573733a207265737472696374656420746f206f776e65720060448201526064016105fd565b6040516313af403560e01b81526001600160a01b038216600482015273__$a5a42e46683ad9c79b7b86d5ff60fdf4c1$__906313af40359060240160006040518083038186803b158015611afc57600080fd5b505af4158015611b10573d6000803e3d6000fd5b5050505050565b604080516080810182526000808252602082018190529181018290526060810182905290611b43611e77565b6001600160a01b039384166000908152600280830160209081526040808420548452938152918390208351608081018552815488168152600182015490971692870192909252810154918501919091526003015460ff16151560608401525090919050565b6000546001600160a01b03163314611bd25760405162461bcd60e51b81526004016105fd90612b7a565b6000611bdc611e77565b6000858152602082905260409081902060038101805460ff191690555490519192506001600160a01b031690819086907fd664386a83f95bfa27301263afc24bea04fdb624796cb0d1c2b6b5509374859490611c3b9088908890612cdc565b60405180910390a35050505050565b6000546001600160a01b03163314611c745760405162461bcd60e51b81526004016105fd90612b7a565b6000611c7e611e77565b60008381526020829052604080822060038101805460ff191660011790555490519293506001600160a01b031691829185917f63e7cf6eecf636f1b535fc0cc76507244657f2c1515300f3d43d6b903e3d522d9190a3505050565b604051630935e01b60e21b815233600482015273__$a5a42e46683ad9c79b7b86d5ff60fdf4c1$__906324d7806c90602401602060405180830381865af4158015611d28573d6000803e3d6000fd5b505050506040513d601f19601f82011682018060405250810190611d4c919061294e565b611d685760405162461bcd60e51b81526004016105fd90612b45565b60405163d547741f60e01b8152600481018390526001600160a01b038216602482015273__$a5a42e46683ad9c79b7b86d5ff60fdf4c1$__9063d547741f90604401610d02565b604051630935e01b60e21b815233600482015273__$a5a42e46683ad9c79b7b86d5ff60fdf4c1$__906324d7806c90602401602060405180830381865af4158015611dfe573d6000803e3d6000fd5b505050506040513d601f19601f82011682018060405250810190611e22919061294e565b611e3e5760405162461bcd60e51b81526004016105fd90612b45565b60405163e8906a2d60e01b815273__$a5a42e46683ad9c79b7b86d5ff60fdf4c1$__9063e8906a2d90610d029085908590600401612d67565b60408051808201909152601481527378722e706f7274616c2e73746f726167652e763160601b60209091015260008060ff611ed360017f32e6b45acdd074b73c3a2919736df19970ec59317a4f46192bf93b96896df009612d0b565b604051602001611ee591815260200190565b60408051601f1981840301815291905280516020909101201692915050565b6040805161010081018252600080825260208083018290528284018290526060808401839052608080850184905260a085018490528551808201875284815280840185905280870185905280830185905260c08601528551908101865283815280830184905280860184905290810183905260e084015283516328b793cf60e11b8152935192933393849263516f279e92600480820193918290030181865afa158015611fb5573d6000803e3d6000fd5b505050506040513d601f19601f82011682018060405250810190611fd99190612db5565b90506001600160a01b0381166120015760405162461bcd60e51b81526004016105fd90612dd2565b600061200b611e77565b90506001600160a01b0382166120335760405162461bcd60e51b81526004016105fd90612dd2565b6001600160a01b0382166000908152600282016020526040812054908190036120ce5760405162461bcd60e51b815260206004820152604160248201527f506f7274616c52656769737472793a206e6f20706f7274616c20666f756e642060448201527f666f72207468652061766174617227732063757272656e74206c6f636174696f6064820152603760f91b608482015260a4016105fd565b8581036121385760405162461bcd60e51b815260206004820152603260248201527f506f7274616c52656769737472793a2063616e6e6f74206a756d7020746f207460448201527168652073616d6520657870657269656e636560701b60648201526084016105fd565b600081815260208390526040902080546001600160a01b03166121c5576040805162461bcd60e51b81526020600482015260248101919091527f506f7274616c52656769737472793a20636f756c64206e6f74206d617020637560448201527f7272656e74206c6f636174696f6e20746f20612076616c696420706f7274616c60648201526084016105fd565b6000878152602084905260409020600381015460ff166122405760405162461bcd60e51b815260206004820152603060248201527f506f7274616c52656769737472793a2064657374696e6174696f6e20706f727460448201526f616c206973206e6f742061637469766560801b60648201526084016105fd565b80546001600160a01b03166122ad5760405162461bcd60e51b815260206004820152602d60248201527f506f7274616c52656769737472793a20696e76616c69642064657374696e617460448201526c1a5bdb881c1bdc9d185b081a59609a1b60648201526084016105fd565b604080516101008101825283546001600160a01b039081168083528454909116602080840191909152835163185b3dd560e11b8152845193948501936330b67baa926004808401939192918290030181865afa158015612311573d6000803e3d6000fd5b505050506040513d601f19601f820116820180604052508101906123359190612db5565b6001600160a01b031681526020018360000160009054906101000a90046001600160a01b03166001600160a01b0316636904c94d6040518163ffffffff1660e01b8152600401602060405180830381865afa158015612398573d6000803e3d6000fd5b505050506040513d601f19601f820116820180604052508101906123bc9190612db5565b6001600160a01b031681526020018260000160009054906101000a90046001600160a01b03166001600160a01b03166330b67baa6040518163ffffffff1660e01b8152600401602060405180830381865afa15801561241f573d6000803e3d6000fd5b505050506040513d601f19601f820116820180604052508101906124439190612db5565b6001600160a01b031681526020018260000160009054906101000a90046001600160a01b03166001600160a01b0316636904c94d6040518163ffffffff1660e01b8152600401602060405180830381865afa1580156124a6573d6000803e3d6000fd5b505050506040513d601f19601f820116820180604052508101906124ca9190612db5565b6001600160a01b039081168252604080516080808201835287548416825260018089015485166020848101919091526002808b01548587015260039a8b015460ff9081161515606080880191909152838a0196909652865194850187528a5488168552928a0154909616908301529387015481840152959096015490911615159484019490945292909201529695505050505050565b634e487b7160e01b600052604160045260246000fd5b60405160c0810167ffffffffffffffff8111828210171561259957612599612560565b60405290565b604051601f8201601f1916810167ffffffffffffffff811182821017156125c8576125c8612560565b604052919050565b600067ffffffffffffffff8211156125ea576125ea612560565b50601f01601f191660200190565b600082601f83011261260957600080fd5b813561261c612617826125d0565b61259f565b81815284602083860101111561263157600080fd5b816020850160208301376000918101602001919091529392505050565b60006020828403121561266057600080fd5b813567ffffffffffffffff8082111561267857600080fd5b9083019060c0828603121561268c57600080fd5b612694612576565b8235828111156126a357600080fd5b6126af878286016125f8565b8252506020830135828111156126c457600080fd5b6126d0878286016125f8565b6020830152506040830135828111156126e857600080fd5b6126f4878286016125f8565b604083015250606083013560608201526080830135608082015260a083013560a082015280935050505092915050565b6001600160a01b038116811461273957600080fd5b50565b60006020828403121561274e57600080fd5b813561181381612724565b60006020828403121561276b57600080fd5b5035919050565b6000806040838503121561278557600080fd5b82359150602083013561279781612724565b809150509250929050565b6000604082840312156127b457600080fd5b6040516040810181811067ffffffffffffffff821117156127d7576127d7612560565b60405282356127e581612724565b81526020928301359281019290925250919050565b60008060006040848603121561280f57600080fd5b83359250602084013567ffffffffffffffff8082111561282e57600080fd5b818601915086601f83011261284257600080fd5b81358181111561285157600080fd5b87602082850101111561286357600080fd5b6020830194508093505050509250925092565b60005b83811015612891578181015183820152602001612879565b50506000910152565b600081518084526128b2816020860160208601612876565b601f01601f19169290920160200192915050565b602081526000611813602083018461289a565b600080602083850312156128ec57600080fd5b823567ffffffffffffffff8082111561290457600080fd5b818501915085601f83011261291857600080fd5b81358181111561292757600080fd5b8660208260051b850101111561293c57600080fd5b60209290920196919550909350505050565b60006020828403121561296057600080fd5b8151801515811461181357600080fd5b60208082526042908201527f506f7274616c52656769737472793a204f6e6c7920726567697374657265642060408201527f657870657269656e6365732063616e2063616c6c20746869732066756e63746960608201526137b760f11b608082015260a00190565b6020808252603e908201527f506f7274616c52656769737472793a204f6e6c7920616374697665206578706560408201527f7269656e6365732063616e2063616c6c20746869732066756e6374696f6e0000606082015260800190565b602081526000825160c06020840152612a5160e084018261289a565b90506020840151601f1980858403016040860152612a6f838361289a565b9250604086015191508085840301606086015250612a8d828261289a565b91505060608401516080840152608084015160a084015260a084015160c08401528091505092915050565b6000612ac6612617846125d0565b9050828152838383011115612ada57600080fd5b611813836020830184612876565b600082601f830112612af957600080fd5b61181383835160208501612ab8565b600060208284031215612b1a57600080fd5b815167ffffffffffffffff811115612b3157600080fd5b612b3d84828501612ae8565b949350505050565b6020808252818101527f426173654163636573733a207265737472696374656420746f2061646d696e73604082015260600190565b6020808252603f908201527f506f7274616c52656769737472793a204f6e6c7920657870657269656e63652060408201527f72656769737472792063616e2063616c6c20746869732066756e6374696f6e00606082015260800190565b600060208284031215612be957600080fd5b815167ffffffffffffffff80821115612c0157600080fd5b9083019060c08286031215612c1557600080fd5b612c1d612576565b825182811115612c2c57600080fd5b612c3887828601612ae8565b825250602083015182811115612c4d57600080fd5b612c5987828601612ae8565b602083015250604083015182811115612c7157600080fd5b612c7d87828601612ae8565b604083015250606083015160608201526080830151608082015260a083015160a082015280935050505092915050565b634e487b7160e01b600052601160045260246000fd5b600060018201612cd557612cd5612cad565b5060010190565b60208152816020820152818360408301376000818301604090810191909152601f909201601f19160101919050565b81810381811115610baa57610baa612cad565b600060208284031215612d3057600080fd5b815167ffffffffffffffff811115612d4757600080fd5b8201601f81018413612d5857600080fd5b612b3d84825160208401612ab8565b60208082528181018390526000908460408401835b86811015612daa578235612d8f81612724565b6001600160a01b031682529183019190830190600101612d7c565b509695505050505050565b600060208284031215612dc757600080fd5b815161181381612724565b60208082526031908201527f506f7274616c52656769737472793a20617661746172206973206e6f7420696e6040820152701030903b30b634b2103637b1b0ba34b7b760791b60608201526080019056fea2646970667358221220a8ce2ddc3f5977e492bfc92159adc73f8c8e43dccc4202bde2f18adf4fcf141364736f6c63430008180033",
  "linkReferences": {
    "contracts/libraries/LibAccess.sol": {
      "LibAccess": [
        {
          "length": 20,
          "start": 3231
        },
        {
          "length": 20,
          "start": 3481
        },
        {
          "length": 20,
          "start": 3640
        },
        {
          "length": 20,
          "start": 4736
        },
        {
          "length": 20,
          "start": 4791
        },
        {
          "length": 20,
          "start": 6531
        },
        {
          "length": 20,
          "start": 6668
        },
        {
          "length": 20,
          "start": 6714
        },
        {
          "length": 20,
          "start": 6866
        },
        {
          "length": 20,
          "start": 6972
        },
        {
          "length": 20,
          "start": 7195
        },
        {
          "length": 20,
          "start": 7746
        },
        {
          "length": 20,
          "start": 7905
        },
        {
          "length": 20,
          "start": 7960
        },
        {
          "length": 20,
          "start": 8097
        }
      ]
    },
    "contracts/libraries/LibVectorAddress.sol": {
      "LibVectorAddress": [
        {
          "length": 20,
          "start": 2177
        },
        {
          "length": 20,
          "start": 2434
        },
        {
          "length": 20,
          "start": 3938
        }
      ]
    }
  },
  "deployedLinkReferences": {
    "contracts/libraries/LibAccess.sol": {
      "LibAccess": [
        {
          "length": 20,
          "start": 2891
        },
        {
          "length": 20,
          "start": 3141
        },
        {
          "length": 20,
          "start": 3300
        },
        {
          "length": 20,
          "start": 4396
        },
        {
          "length": 20,
          "start": 4451
        },
        {
          "length": 20,
          "start": 6191
        },
        {
          "length": 20,
          "start": 6328
        },
        {
          "length": 20,
          "start": 6374
        },
        {
          "length": 20,
          "start": 6526
        },
        {
          "length": 20,
          "start": 6632
        },
        {
          "length": 20,
          "start": 6855
        },
        {
          "length": 20,
          "start": 7406
        },
        {
          "length": 20,
          "start": 7565
        },
        {
          "length": 20,
          "start": 7620
        },
        {
          "length": 20,
          "start": 7757
        }
      ]
    },
    "contracts/libraries/LibVectorAddress.sol": {
      "LibVectorAddress": [
        {
          "length": 20,
          "start": 1837
        },
        {
          "length": 20,
          "start": 2094
        },
        {
          "length": 20,
          "start": 3598
        }
      ]
    }
  }
}