{
  "_format": "hh-sol-artifact-1",
  "contractName": "PortalRegistryProxy",
  "sourceName": "contracts/portal/PortalRegistryProxy.sol",
  "abi": [
    {
      "inputs": [
        {
          "components": [
            {
              "internalType": "address",
              "name": "impl",
              "type": "address"
            },
            {
              "internalType": "address",
              "name": "owner",
              "type": "address"
            },
            {
              "internalType": "address[]",
              "name": "admins",
              "type": "address[]"
            }
          ],
          "internalType": "struct BaseProxyConstructorArgs",
          "name": "args",
          "type": "tuple"
        }
      ],
      "stateMutability": "nonpayable",
      "type": "constructor"
    },
    {
      "stateMutability": "payable",
      "type": "fallback"
    },
    {
      "inputs": [],
      "name": "getImplementation",
      "outputs": [
        {
          "internalType": "address",
          "name": "",
          "type": "address"
        }
      ],
      "stateMutability": "view",
      "type": "function"
    },
    {
      "inputs": [],
      "name": "getVersion",
      "outputs": [
        {
          "components": [
            {
              "internalType": "uint16",
              "name": "major",
              "type": "uint16"
            },
            {
              "internalType": "uint16",
              "name": "minor",
              "type": "uint16"
            }
          ],
          "internalType": "struct Version",
          "name": "",
          "type": "tuple"
        }
      ],
      "stateMutability": "view",
      "type": "function"
    },
    {
      "inputs": [
        {
          "internalType": "address",
          "name": "_implementation",
          "type": "address"
        }
      ],
      "name": "setImplementation",
      "outputs": [],
      "stateMutability": "nonpayable",
      "type": "function"
    },
    {
      "inputs": [
        {
          "internalType": "uint256",
          "name": "amount",
          "type": "uint256"
        }
      ],
      "name": "withdraw",
      "outputs": [],
      "stateMutability": "nonpayable",
      "type": "function"
    },
    {
      "stateMutability": "payable",
      "type": "receive"
    }
  ],
  "bytecode": "0x60806040523480156200001157600080fd5b5060405162000b3638038062000b36833981016040819052620000349162000304565b805181906001600160a01b038116620000a75760405162461bcd60e51b815260206004820152602b60248201527f456e7469747950726f78793a20696d706c656d656e746174696f6e206973207a60448201526a65726f206164647265737360a81b606482015260840160405180910390fd5b6000620000b3620001da565b80546001600160a01b0319166001600160a01b03841690811782556040805163054fd4d560e41b8152815193945091926354fd4d509260048082019392918290030181865afa1580156200010b573d6000803e3d6000fd5b505050506040513d601f19601f8201168201806040525081019062000131919062000427565b805160018301805460209384015161ffff908116620100000263ffffffff19909216931692909217919091179055830151604080850151905163d9ac971f60e01b815273__$a5a42e46683ad9c79b7b86d5ff60fdf4c1$__9263d9ac971f926200019e9260040162000489565b60006040518083038186803b158015620001b757600080fd5b505af4158015620001cc573d6000803e3d6000fd5b50505050505050506200050f565b60408051808201909152601a81527f78722e656e746974792e70726f78792e73746f726167652e763100000000000060209091015260008060ff6200024160017f96b317a1f8708070b2a4511a91a099fe6a60c4eb4156e5391ede34997b5f7246620004e7565b6040516020016200025491815260200190565b60408051601f1981840301815291905280516020909101201692915050565b634e487b7160e01b600052604160045260246000fd5b604051606081016001600160401b0381118282101715620002ae57620002ae62000273565b60405290565b604051601f8201601f191681016001600160401b0381118282101715620002df57620002df62000273565b604052919050565b80516001600160a01b0381168114620002ff57600080fd5b919050565b600060208083850312156200031857600080fd5b82516001600160401b03808211156200033057600080fd5b90840190606082870312156200034557600080fd5b6200034f62000289565b6200035a83620002e7565b815262000369848401620002e7565b848201526040830151828111156200038057600080fd5b80840193505086601f8401126200039657600080fd5b825182811115620003ab57620003ab62000273565b8060051b9250620003be858401620002b4565b8181529284018501928581019089851115620003d957600080fd5b948601945b848610156200040257620003f286620002e7565b82529486019490860190620003de565b60408401525090979650505050505050565b805161ffff81168114620002ff57600080fd5b6000604082840312156200043a57600080fd5b604080519081016001600160401b03811182821017156200045f576200045f62000273565b6040526200046d8362000414565b81526200047d6020840162000414565b60208201529392505050565b6001600160a01b038381168252604060208084018290528451918401829052600092858201929091906060860190855b81811015620004d9578551851683529483019491830191600101620004b9565b509098975050505050505050565b818103818111156200050957634e487b7160e01b600052601160045260246000fd5b92915050565b610617806200051f6000396000f3fe6080604052600436106100435760003560e01c80630d8e6e2c146100e65780632e1a7d4d14610122578063aaf10f4214610142578063d784d4261461016f5761004a565b3661004a57005b600061005461018f565b80549091506001600160a01b0316806100c05760405162461bcd60e51b815260206004820152602360248201527f456e7469747950726f78793a20696d706c656d656e746174696f6e206e6f74206044820152621cd95d60ea1b60648201526084015b60405180910390fd5b3660008037600080366000845af43d6000803e8080156100df573d6000f35b3d6000fd5b005b3480156100f257600080fd5b506100fb610225565b60408051825161ffff90811682526020938401511692810192909252015b60405180910390f35b34801561012e57600080fd5b506100e461013d3660046104f1565b61026e565b34801561014e57600080fd5b50610157610358565b6040516001600160a01b039091168152602001610119565b34801561017b57600080fd5b506100e461018a36600461050a565b610373565b60408051808201909152601a81527f78722e656e746974792e70726f78792e73746f726167652e763100000000000060209091015260008060ff6101f460017f96b317a1f8708070b2a4511a91a099fe6a60c4eb4156e5391ede34997b5f724661053a565b60405160200161020691815260200190565b60408051601f1981840301815291905280516020909101201692915050565b6040805180820190915260008082526020820152600061024361018f565b6040805180820190915260019091015461ffff80821683526201000090910416602082015292915050565b3361027761048f565b6001600160a01b0316146102cd5760405162461bcd60e51b815260206004820181905260248201527f456e7469747950726f78793a207265737472696374656420746f206f776e657260448201526064016100b7565b478111156103275760405162461bcd60e51b815260206004820152602160248201527f456e7469747950726f78793a20696e73756666696369656e742062616c616e636044820152606560f81b60648201526084016100b7565b604051339082156108fc029083906000818181858888f19350505050158015610354573d6000803e3d6000fd5b5050565b60008061036361018f565b546001600160a01b031692915050565b3361037c61048f565b6001600160a01b0316146103d25760405162461bcd60e51b815260206004820181905260248201527f456e7469747950726f78793a207265737472696374656420746f206f776e657260448201526064016100b7565b6000816001600160a01b03166354fd4d506040518163ffffffff1660e01b81526004016040805180830381865afa158015610411573d6000803e3d6000fd5b505050506040513d601f19601f820116820180604052508101906104359190610578565b9050600061044161018f565b80546001600160a01b039094166001600160a01b03199094169390931783555080516001909201805460209092015161ffff908116620100000263ffffffff19909316931692909217179055565b60008061036360408051808201909152601481527378722e6163636573732e73746f726167652e763160601b60209091015260008060ff6101f460017fd870894b15ee1369a593f3670ac51c4ed8201dab473944ee712694d327dd587561053a565b60006020828403121561050357600080fd5b5035919050565b60006020828403121561051c57600080fd5b81356001600160a01b038116811461053357600080fd5b9392505050565b8181038181111561055b57634e487b7160e01b600052601160045260246000fd5b92915050565b805161ffff8116811461057357600080fd5b919050565b60006040828403121561058a57600080fd5b6040516040810181811067ffffffffffffffff821117156105bb57634e487b7160e01b600052604160045260246000fd5b6040526105c783610561565b81526105d560208401610561565b6020820152939250505056fea2646970667358221220801400d1e015a3c975d1b29818fb3470ea697b28667b4aff0631ad3c7bf1694464736f6c63430008180033",
  "linkReferences": {
    "contracts/libraries/LibAccess.sol": {
      "LibAccess": [
        {
          "length": 20,
          "start": 374
        }
      ]
    }
  },
  "deployedLinkReferences": {}
}