{
  "_format": "hh-sol-artifact-1",
  "contractName": "PortalRegistry",
  "sourceName": "contracts/portal/PortalRegistry.sol",
  "abi": [
    {
      "inputs": [
        {
          "components": [
            {
              "internalType": "address",
              "name": "avatarRegistry",
              "type": "address"
            },
            {
              "internalType": "address",
              "name": "experienceRegistry",
              "type": "address"
            }
          ],
          "internalType": "struct PortalRegistryConstructorArgs",
          "name": "args",
          "type": "tuple"
        }
      ],
      "stateMutability": "nonpayable",
      "type": "constructor"
    },
    {
      "anonymous": false,
      "inputs": [
        {
          "indexed": true,
          "internalType": "uint256",
          "name": "portalId",
          "type": "uint256"
        },
        {
          "indexed": true,
          "internalType": "address",
          "name": "avatar",
          "type": "address"
        },
        {
          "indexed": true,
          "internalType": "address",
          "name": "destination",
          "type": "address"
        }
      ],
      "name": "JumpSuccessful",
      "type": "event"
    },
    {
      "anonymous": false,
      "inputs": [
        {
          "indexed": true,
          "internalType": "uint256",
          "name": "portalId",
          "type": "uint256"
        },
        {
          "indexed": true,
          "internalType": "address",
          "name": "experience",
          "type": "address"
        }
      ],
      "name": "PortalAdded",
      "type": "event"
    },
    {
      "anonymous": false,
      "inputs": [
        {
          "indexed": true,
          "internalType": "uint256",
          "name": "portalId",
          "type": "uint256"
        },
        {
          "indexed": true,
          "internalType": "address",
          "name": "condition",
          "type": "address"
        }
      ],
      "name": "PortalConditionAdded",
      "type": "event"
    },
    {
      "anonymous": false,
      "inputs": [
        {
          "indexed": true,
          "internalType": "uint256",
          "name": "portalId",
          "type": "uint256"
        }
      ],
      "name": "PortalConditionRemoved",
      "type": "event"
    },
    {
      "anonymous": false,
      "inputs": [
        {
          "indexed": true,
          "internalType": "uint256",
          "name": "portalId",
          "type": "uint256"
        },
        {
          "indexed": true,
          "internalType": "address",
          "name": "experience",
          "type": "address"
        },
        {
          "indexed": false,
          "internalType": "string",
          "name": "reason",
          "type": "string"
        }
      ],
      "name": "PortalDeactivated",
      "type": "event"
    },
    {
      "anonymous": false,
      "inputs": [
        {
          "indexed": true,
          "internalType": "uint256",
          "name": "portalId",
          "type": "uint256"
        },
        {
          "indexed": true,
          "internalType": "address",
          "name": "oldExperience",
          "type": "address"
        },
        {
          "indexed": true,
          "internalType": "address",
          "name": "newExperience",
          "type": "address"
        }
      ],
      "name": "PortalDestinationUpgraded",
      "type": "event"
    },
    {
      "anonymous": false,
      "inputs": [
        {
          "indexed": true,
          "internalType": "uint256",
          "name": "portalId",
          "type": "uint256"
        },
        {
          "indexed": true,
          "internalType": "uint256",
          "name": "newFee",
          "type": "uint256"
        }
      ],
      "name": "PortalFeeChanged",
      "type": "event"
    },
    {
      "anonymous": false,
      "inputs": [
        {
          "indexed": true,
          "internalType": "uint256",
          "name": "portalId",
          "type": "uint256"
        },
        {
          "indexed": true,
          "internalType": "address",
          "name": "experience",
          "type": "address"
        }
      ],
      "name": "PortalReactivated",
      "type": "event"
    },
    {
      "anonymous": false,
      "inputs": [
        {
          "indexed": true,
          "internalType": "address",
          "name": "newRegistry",
          "type": "address"
        }
      ],
      "name": "PortalRegistryUpgraded",
      "type": "event"
    },
    {
      "anonymous": false,
      "inputs": [
        {
          "indexed": true,
          "internalType": "uint256",
          "name": "portalId",
          "type": "uint256"
        },
        {
          "indexed": true,
          "internalType": "address",
          "name": "experience",
          "type": "address"
        },
        {
          "indexed": false,
          "internalType": "string",
          "name": "reason",
          "type": "string"
        }
      ],
      "name": "PortalRemoved",
      "type": "event"
    },
    {
      "inputs": [
        {
          "internalType": "contract IPortalCondition",
          "name": "condition",
          "type": "address"
        }
      ],
      "name": "addCondition",
      "outputs": [],
      "stateMutability": "nonpayable",
      "type": "function"
    },
    {
      "inputs": [
        {
          "components": [
            {
              "internalType": "uint256",
              "name": "fee",
              "type": "uint256"
            }
          ],
          "internalType": "struct AddPortalRequest",
          "name": "req",
          "type": "tuple"
        }
      ],
      "name": "addPortal",
      "outputs": [
        {
          "internalType": "uint256",
          "name": "",
          "type": "uint256"
        }
      ],
      "stateMutability": "nonpayable",
      "type": "function"
    },
    {
      "inputs": [
        {
          "internalType": "address[]",
          "name": "signers",
          "type": "address[]"
        }
      ],
      "name": "addSigners",
      "outputs": [],
      "stateMutability": "nonpayable",
      "type": "function"
    },
    {
      "inputs": [],
      "name": "avatarRegistry",
      "outputs": [
        {
          "internalType": "contract IAvatarRegistry",
          "name": "",
          "type": "address"
        }
      ],
      "stateMutability": "view",
      "type": "function"
    },
    {
      "inputs": [
        {
          "internalType": "address",
          "name": "newOwner",
          "type": "address"
        }
      ],
      "name": "changeOwner",
      "outputs": [],
      "stateMutability": "nonpayable",
      "type": "function"
    },
    {
      "inputs": [
        {
          "internalType": "uint256",
          "name": "newFee",
          "type": "uint256"
        }
      ],
      "name": "changePortalFee",
      "outputs": [],
      "stateMutability": "nonpayable",
      "type": "function"
    },
    {
      "inputs": [
        {
          "internalType": "uint256",
          "name": "portalId",
          "type": "uint256"
        },
        {
          "internalType": "string",
          "name": "reason",
          "type": "string"
        }
      ],
      "name": "deactivatePortal",
      "outputs": [],
      "stateMutability": "nonpayable",
      "type": "function"
    },
    {
      "inputs": [],
      "name": "experienceRegistry",
      "outputs": [
        {
          "internalType": "contract IExperienceRegistry",
          "name": "",
          "type": "address"
        }
      ],
      "stateMutability": "view",
      "type": "function"
    },
    {
      "inputs": [
        {
          "internalType": "address",
          "name": "experience",
          "type": "address"
        }
      ],
      "name": "getIdForExperience",
      "outputs": [
        {
          "internalType": "uint256",
          "name": "",
          "type": "uint256"
        }
      ],
      "stateMutability": "view",
      "type": "function"
    },
    {
      "inputs": [
        {
          "components": [
            {
              "internalType": "string",
              "name": "x",
              "type": "string"
            },
            {
              "internalType": "string",
              "name": "y",
              "type": "string"
            },
            {
              "internalType": "string",
              "name": "z",
              "type": "string"
            },
            {
              "internalType": "uint256",
              "name": "t",
              "type": "uint256"
            },
            {
              "internalType": "uint256",
              "name": "p",
              "type": "uint256"
            },
            {
              "internalType": "uint256",
              "name": "p_sub",
              "type": "uint256"
            }
          ],
          "internalType": "struct VectorAddress",
          "name": "va",
          "type": "tuple"
        }
      ],
      "name": "getIdForVectorAddress",
      "outputs": [
        {
          "internalType": "uint256",
          "name": "",
          "type": "uint256"
        }
      ],
      "stateMutability": "view",
      "type": "function"
    },
    {
      "inputs": [
        {
          "internalType": "address",
          "name": "experience",
          "type": "address"
        }
      ],
      "name": "getPortalInfoByAddress",
      "outputs": [
        {
          "components": [
            {
              "internalType": "contract IExperience",
              "name": "destination",
              "type": "address"
            },
            {
              "internalType": "contract IPortalCondition",
              "name": "condition",
              "type": "address"
            },
            {
              "internalType": "uint256",
              "name": "fee",
              "type": "uint256"
            },
            {
              "internalType": "bool",
              "name": "active",
              "type": "bool"
            }
          ],
          "internalType": "struct PortalInfo",
          "name": "",
          "type": "tuple"
        }
      ],
      "stateMutability": "view",
      "type": "function"
    },
    {
      "inputs": [
        {
          "internalType": "uint256",
          "name": "portalId",
          "type": "uint256"
        }
      ],
      "name": "getPortalInfoById",
      "outputs": [
        {
          "components": [
            {
              "internalType": "contract IExperience",
              "name": "destination",
              "type": "address"
            },
            {
              "internalType": "contract IPortalCondition",
              "name": "condition",
              "type": "address"
            },
            {
              "internalType": "uint256",
              "name": "fee",
              "type": "uint256"
            },
            {
              "internalType": "bool",
              "name": "active",
              "type": "bool"
            }
          ],
          "internalType": "struct PortalInfo",
          "name": "",
          "type": "tuple"
        }
      ],
      "stateMutability": "view",
      "type": "function"
    },
    {
      "inputs": [
        {
          "components": [
            {
              "internalType": "string",
              "name": "x",
              "type": "string"
            },
            {
              "internalType": "string",
              "name": "y",
              "type": "string"
            },
            {
              "internalType": "string",
              "name": "z",
              "type": "string"
            },
            {
              "internalType": "uint256",
              "name": "t",
              "type": "uint256"
            },
            {
              "internalType": "uint256",
              "name": "p",
              "type": "uint256"
            },
            {
              "internalType": "uint256",
              "name": "p_sub",
              "type": "uint256"
            }
          ],
          "internalType": "struct VectorAddress",
          "name": "va",
          "type": "tuple"
        }
      ],
      "name": "getPortalInfoByVectorAddress",
      "outputs": [
        {
          "components": [
            {
              "internalType": "contract IExperience",
              "name": "destination",
              "type": "address"
            },
            {
              "internalType": "contract IPortalCondition",
              "name": "condition",
              "type": "address"
            },
            {
              "internalType": "uint256",
              "name": "fee",
              "type": "uint256"
            },
            {
              "internalType": "bool",
              "name": "active",
              "type": "bool"
            }
          ],
          "internalType": "struct PortalInfo",
          "name": "",
          "type": "tuple"
        }
      ],
      "stateMutability": "view",
      "type": "function"
    },
    {
      "inputs": [
        {
          "internalType": "bytes32",
          "name": "role",
          "type": "bytes32"
        },
        {
          "internalType": "address",
          "name": "account",
          "type": "address"
        }
      ],
      "name": "grantRole",
      "outputs": [],
      "stateMutability": "nonpayable",
      "type": "function"
    },
    {
      "inputs": [
        {
          "internalType": "bytes32",
          "name": "role",
          "type": "bytes32"
        },
        {
          "internalType": "address",
          "name": "account",
          "type": "address"
        }
      ],
      "name": "hasRole",
      "outputs": [
        {
          "internalType": "bool",
          "name": "",
          "type": "bool"
        }
      ],
      "stateMutability": "view",
      "type": "function"
    },
    {
      "inputs": [
        {
          "internalType": "address",
          "name": "account",
          "type": "address"
        }
      ],
      "name": "isAdmin",
      "outputs": [
        {
          "internalType": "bool",
          "name": "",
          "type": "bool"
        }
      ],
      "stateMutability": "view",
      "type": "function"
    },
    {
      "inputs": [
        {
          "internalType": "address",
          "name": "account",
          "type": "address"
        }
      ],
      "name": "isSigner",
      "outputs": [
        {
          "internalType": "bool",
          "name": "",
          "type": "bool"
        }
      ],
      "stateMutability": "view",
      "type": "function"
    },
    {
      "inputs": [
        {
          "internalType": "uint256",
          "name": "portalId",
          "type": "uint256"
        }
      ],
      "name": "jumpRequest",
      "outputs": [
        {
          "internalType": "bytes",
          "name": "",
          "type": "bytes"
        }
      ],
      "stateMutability": "payable",
      "type": "function"
    },
    {
      "inputs": [],
      "name": "owner",
      "outputs": [
        {
          "internalType": "address",
          "name": "",
          "type": "address"
        }
      ],
      "stateMutability": "view",
      "type": "function"
    },
    {
      "inputs": [
        {
          "internalType": "uint256",
          "name": "portalId",
          "type": "uint256"
        }
      ],
      "name": "reactivatePortal",
      "outputs": [],
      "stateMutability": "nonpayable",
      "type": "function"
    },
    {
      "inputs": [],
      "name": "removeCondition",
      "outputs": [],
      "stateMutability": "nonpayable",
      "type": "function"
    },
    {
      "inputs": [
        {
          "internalType": "uint256",
          "name": "portalId",
          "type": "uint256"
        },
        {
          "internalType": "string",
          "name": "reason",
          "type": "string"
        }
      ],
      "name": "removePortal",
      "outputs": [],
      "stateMutability": "nonpayable",
      "type": "function"
    },
    {
      "inputs": [
        {
          "internalType": "address[]",
          "name": "signers",
          "type": "address[]"
        }
      ],
      "name": "removeSigners",
      "outputs": [],
      "stateMutability": "nonpayable",
      "type": "function"
    },
    {
      "inputs": [
        {
          "internalType": "bytes32",
          "name": "role",
          "type": "bytes32"
        },
        {
          "internalType": "address",
          "name": "account",
          "type": "address"
        }
      ],
      "name": "revokeRole",
      "outputs": [],
      "stateMutability": "nonpayable",
      "type": "function"
    },
    {
      "inputs": [],
      "name": "version",
      "outputs": [
        {
          "components": [
            {
              "internalType": "uint16",
              "name": "major",
              "type": "uint16"
            },
            {
              "internalType": "uint16",
              "name": "minor",
              "type": "uint16"
            }
          ],
          "internalType": "struct Version",
          "name": "",
          "type": "tuple"
        }
      ],
      "stateMutability": "pure",
      "type": "function"
    }
  ],
  "bytecode": "0x60c06040523480156200001157600080fd5b506040516200305138038062003051833981016040819052620000349162000176565b80516001600160a01b0316620000b75760405162461bcd60e51b815260206004820152603a60248201527f506f7274616c52656769737472793a204176617461722072656769737472792060448201527f63616e6e6f7420626520746865207a65726f206164647265737300000000000060648201526084015b60405180910390fd5b60208101516001600160a01b0316620001395760405162461bcd60e51b815260206004820152603e60248201527f506f7274616c52656769737472793a20457870657269656e636520726567697360448201527f7472792063616e6e6f7420626520746865207a65726f206164647265737300006064820152608401620000ae565b80516001600160a01b0390811660a05260209091015116608052620001e4565b80516001600160a01b03811681146200017157600080fd5b919050565b6000604082840312156200018957600080fd5b604080519081016001600160401b0381118282101715620001ba57634e487b7160e01b600052604160045260246000fd5b604052620001c88362000159565b8152620001d86020840162000159565b60208201529392505050565b60805160a051612e0f620002426000396000818161050801526113fd0152600081816104140152818161055f015281816106f501528181610c9b015281816111250152818161127501528181611b3a0152611bfa0152612e0f6000f3fe6080604052600436106101665760003560e01c806383c34263116100d1578063a6f9dae11161008a578063c0e2e80c11610064578063c0e2e80c146104b6578063d547741f146104d6578063e3d7ad73146104f6578063e8906a2d1461052a57600080fd5b8063a6f9dae114610456578063aa7ff6b714610476578063aed784e31461049657600080fd5b806383c342631461037557806384c4484e146103955780638d361e43146103b55780638da5cb5b146103d55780638f09a6be1461040257806391d148541461043657600080fd5b8063288b568411610123578063288b5684146102885780632f2ff15d146102a85780633b19e880146102c857806354fd4d50146102e85780635e958a11146103355780637df73e271461035557600080fd5b8063021665b71461016b57806303a49da914610182578063102ea6ae146101b5578063194663891461021857806322d349321461023857806324d7806c14610258575b600080fd5b34801561017757600080fd5b5061018061054a565b005b34801561018e57600080fd5b506101a261019d36600461259c565b6106dd565b6040519081526020015b60405180910390f35b3480156101c157600080fd5b506101d56101d036600461265c565b610a91565b6040516101ac919081516001600160a01b039081168252602080840151909116908201526040808301519082015260609182015115159181019190915260800190565b34801561022457600080fd5b506101a261023336600461265c565b610bbf565b34801561024457600080fd5b5061018061025336600461274a565b610c86565b34801561026457600080fd5b5061027861027336600461274a565b610eeb565b60405190151581526020016101ac565b34801561029457600080fd5b506101d56102a3366004612767565b610f71565b3480156102b457600080fd5b506101806102c3366004612780565b610ff1565b3480156102d457600080fd5b506101a26102e336600461274a565b6110f7565b3480156102f457600080fd5b50604080518082018252600080825260209182018190528251808401845260018082529083019182528351908152905161ffff1691810191909152016101ac565b34801561034157600080fd5b506101806103503660046127b0565b611123565b34801561036157600080fd5b5061027861037036600461274a565b61121d565b34801561038157600080fd5b50610180610390366004612767565b611260565b6103a86103a3366004612767565b6113e5565b6040516101ac919061287c565b3480156103c157600080fd5b506101806103d036600461288f565b6117aa565b3480156103e157600080fd5b506103ea611872565b6040516001600160a01b0390911681526020016101ac565b34801561040e57600080fd5b506103ea7f000000000000000000000000000000000000000000000000000000000000000081565b34801561044257600080fd5b50610278610451366004612780565b6118e6565b34801561046257600080fd5b5061018061047136600461274a565b61196c565b34801561048257600080fd5b506101d561049136600461274a565b611aa7565b3480156104a257600080fd5b506101806104b13660046127b0565b611b38565b3480156104c257600080fd5b506101806104d1366004612767565b611bf8565b3480156104e257600080fd5b506101806104f1366004612780565b611ca5565b34801561050257600080fd5b506103ea7f000000000000000000000000000000000000000000000000000000000000000081565b34801561053657600080fd5b5061018061054536600461288f565b611d7b565b60405163c3c5a54760e01b81523360048201527f00000000000000000000000000000000000000000000000000000000000000006001600160a01b03169063c3c5a54790602401602060405180830381865afa1580156105ae573d6000803e3d6000fd5b505050506040513d601f19601f820116820180604052508101906105d29190612904565b6105f75760405162461bcd60e51b81526004016105ee90612926565b60405180910390fd5b336001600160a01b03166386b70bed6040518163ffffffff1660e01b8152600401602060405180830381865afa158015610635573d6000803e3d6000fd5b505050506040513d601f19601f820116820180604052508101906106599190612904565b6106755760405162461bcd60e51b81526004016105ee9061298e565b600061067f611e43565b3360009081526002820160209081526040808320548084529184905280832060010180546001600160a01b0319169055519293509182917f2e3f0e8f6904984244368dfff28046157a23abf558feb664bf3727766cbd200c91a25050565b60405163c3c5a54760e01b81523360048201526000907f00000000000000000000000000000000000000000000000000000000000000006001600160a01b03169063c3c5a54790602401602060405180830381865afa158015610744573d6000803e3d6000fd5b505050506040513d601f19601f820116820180604052508101906107689190612904565b6107845760405162461bcd60e51b81526004016105ee90612926565b336001600160a01b03166386b70bed6040518163ffffffff1660e01b8152600401602060405180830381865afa1580156107c2573d6000803e3d6000fd5b505050506040513d601f19601f820116820180604052508101906107e69190612904565b6108025760405162461bcd60e51b81526004016105ee9061298e565b6000336001600160a01b0316632fcbab9a6040518163ffffffff1660e01b8152600401600060405180830381865afa158015610842573d6000803e3d6000fd5b505050506040513d6000823e601f3d908101601f1916820160405261086a9190810190612a3b565b6040516329a6121760e21b815290915060009073__$ad2b23306edd42b5f4873830e307b82d47$__9063a698485c906108a7908590600401612b11565b600060405180830381865af41580156108c4573d6000803e3d6000fd5b505050506040513d6000823e601f3d908101601f191682016040526108ec9190810190612b94565b6040516020016108fc919061287c565b604051602081830303815290604052805190602001209050600061091e611e43565b6000838152600182016020526040902054909150156109a55760405162461bcd60e51b815260206004820152603d60248201527f506f7274616c52656769737472793a20706f7274616c20616c7265616479206560448201527f786973747320666f72207468697320766563746f72206164647265737300000060648201526084016105ee565b80600301600081546109b690612be7565b909155506003818101546000848152600180850160209081526040808420859055338085526002808901845282862087905582516080810184528281528085018781528e51828601908152606083018881528a8a52968c9052858920925183546001600160a01b03199081166001600160a01b03928316178555925198840180549093169816979097179055945190850155915192909501805460ff191692151592909217909155925191929183917f991e8a89cc0b450dd18d7845eb5952690d2e9b8edb3624d5f5b929f32607829891a395945050505050565b604080516080810182526000808252602082018190529181018290526060810182905290610abd611e43565b6040516329a6121760e21b815290915060009073__$ad2b23306edd42b5f4873830e307b82d47$__9063a698485c90610afa908790600401612b11565b600060405180830381865af4158015610b17573d6000803e3d6000fd5b505050506040513d6000823e601f3d908101601f19168201604052610b3f9190810190612b94565b604051602001610b4f919061287c565b60408051601f19818403018152828252805160209182012060009081526001808701835283822054825295825282902060808401835280546001600160a01b039081168552958101549095169083015260028401549082015260039092015460ff16151560608301525092915050565b6040516329a6121760e21b8152600090819073__$ad2b23306edd42b5f4873830e307b82d47$__9063a698485c90610bfb908690600401612b11565b600060405180830381865af4158015610c18573d6000803e3d6000fd5b505050506040513d6000823e601f3d908101601f19168201604052610c409190810190612b94565b604051602001610c50919061287c565b604051602081830303815290604052805190602001209050610c70611e43565b6000918252600101602052604090205492915050565b60405163c3c5a54760e01b81523360048201527f00000000000000000000000000000000000000000000000000000000000000006001600160a01b03169063c3c5a54790602401602060405180830381865afa158015610cea573d6000803e3d6000fd5b505050506040513d601f19601f82011682018060405250810190610d0e9190612904565b610d2a5760405162461bcd60e51b81526004016105ee90612926565b336001600160a01b03166386b70bed6040518163ffffffff1660e01b8152600401602060405180830381865afa158015610d68573d6000803e3d6000fd5b505050506040513d601f19601f82011682018060405250810190610d8c9190612904565b610da85760405162461bcd60e51b81526004016105ee9061298e565b6000610db2611e43565b90506001600160a01b038216610e205760405162461bcd60e51b815260206004820152602d60248201527f506f7274616c52656769737472793a20636f6e646974696f6e2061646472657360448201526c0732063616e6e6f74206265203609c1b60648201526084016105ee565b33600090815260028201602052604081205490819003610e8e5760405162461bcd60e51b8152602060048201526024808201527f506f7274616c52656769737472793a20657870657269656e6365206e6f7420666044820152631bdd5b9960e21b60648201526084016105ee565b60008181526020839052604080822060010180546001600160a01b0319166001600160a01b0387169081179091559051909183917f50dc6bddd2ee7ed8c2f3a3bc6b995160e945bffd902a4135fccbe2fadbb332099190a3505050565b604051630935e01b60e21b81526001600160a01b038216600482015260009073__$a5a42e46683ad9c79b7b86d5ff60fdf4c1$__906324d7806c906024015b602060405180830381865af4158015610f47573d6000803e3d6000fd5b505050506040513d601f19601f82011682018060405250810190610f6b9190612904565b92915050565b604080516080810182526000808252602082018190529181018290526060810191909152610f9d611e43565b60009283526020908152604092839020835160808101855281546001600160a01b0390811682526001830154169281019290925260028101549382019390935260039092015460ff16151560608301525090565b604051630935e01b60e21b815233600482015273__$a5a42e46683ad9c79b7b86d5ff60fdf4c1$__906324d7806c90602401602060405180830381865af4158015611040573d6000803e3d6000fd5b505050506040513d601f19601f820116820180604052508101906110649190612904565b6110805760405162461bcd60e51b81526004016105ee90612c00565b604051632f2ff15d60e01b8152600481018390526001600160a01b038216602482015273__$a5a42e46683ad9c79b7b86d5ff60fdf4c1$__90632f2ff15d906044015b60006040518083038186803b1580156110db57600080fd5b505af41580156110ef573d6000803e3d6000fd5b505050505050565b6000611101611e43565b6001600160a01b03909216600090815260029290920160205250604090205490565b7f00000000000000000000000000000000000000000000000000000000000000006001600160a01b0316331461116b5760405162461bcd60e51b81526004016105ee90612c35565b6000611175611e43565b600085815260208281526040808320815160808101835281546001600160a01b039081168083526001840154909116828601526002830154828501526003909201805460ff811615156060840152958b90529386905260ff19909416909255519293509091819087907fc7954ecb64947e6c1f4cc673d066e6f9a1e839ca003029af6619effde4056b209061120d9089908990612c92565b60405180910390a3505050505050565b604051637df73e2760e01b81526001600160a01b038216600482015260009073__$a5a42e46683ad9c79b7b86d5ff60fdf4c1$__90637df73e2790602401610f2a565b60405163c3c5a54760e01b81523360048201527f00000000000000000000000000000000000000000000000000000000000000006001600160a01b03169063c3c5a54790602401602060405180830381865afa1580156112c4573d6000803e3d6000fd5b505050506040513d601f19601f820116820180604052508101906112e89190612904565b6113045760405162461bcd60e51b81526004016105ee90612926565b336001600160a01b03166386b70bed6040518163ffffffff1660e01b8152600401602060405180830381865afa158015611342573d6000803e3d6000fd5b505050506040513d601f19601f820116820180604052508101906113669190612904565b6113825760405162461bcd60e51b81526004016105ee9061298e565b600061138c611e43565b3360009081526002808301602090815260408084205480855291859052808420909201869055905192935091849183917fc45b50c704f83a591e64a45d94b4e274cc467d15386c75d56bef687efe5aea4a9190a3505050565b60405163c3c5a54760e01b81523360048201526060907f00000000000000000000000000000000000000000000000000000000000000006001600160a01b03169063c3c5a54790602401602060405180830381865afa15801561144c573d6000803e3d6000fd5b505050506040513d601f19601f820116820180604052508101906114709190612904565b6114e25760405162461bcd60e51b815260206004820152603e60248201527f506f7274616c52656769737472793a204f6e6c7920726567697374657265642060448201527f617661746172732063616e2063616c6c20746869732066756e6374696f6e000060648201526084016105ee565b60006114ed83611ed0565b60e0810151602001519091506001600160a01b03161561160e5760e08101516020908101519082015160408084015160608501518551925163f610c1d560e01b81526001600160a01b039485166004820152918416602483015283166044820152908216606482015233608482015291169063f610c1d59060a4016020604051808303816000875af1158015611587573d6000803e3d6000fd5b505050506040513d601f19601f820116820180604052508101906115ab9190612904565b61160e5760405162461bcd60e51b815260206004820152602e60248201527f506f7274616c52656769737472793a20706f7274616c206a756d7020636f6e6460448201526d1a5d1a5bdb9cc81b9bdd081b595d60921b60648201526084016105ee565b60e081015160400151156116e9578060e001516040015134101561169a5760405162461bcd60e51b815260206004820152603960248201527f506f7274616c52656769737472793a20496e73756666696369656e742066656560448201527f20617474616368656420746f206a756d7020726571756573740000000000000060648201526084016105ee565b60008160e0015160400151346116b09190612cc1565b905080156116e757604051339082156108fc029083906000818181858888f193505050501580156116e5573d6000803e3d6000fd5b505b505b60208082015160e0830151604090810151815160608082018452838701516001600160a01b0390811683529087015181169582019586523382850190815293516354cc5a0b60e01b815291518116600483015294518516602482015291518416604483015292909116916354cc5a0b9160640160006040518083038185885af115801561177a573d6000803e3d6000fd5b50505050506040513d6000823e601f3d908101601f191682016040526117a39190810190612cd4565b9392505050565b604051630935e01b60e21b815233600482015273__$a5a42e46683ad9c79b7b86d5ff60fdf4c1$__906324d7806c90602401602060405180830381865af41580156117f9573d6000803e3d6000fd5b505050506040513d601f19601f8201168201806040525081019061181d9190612904565b6118395760405162461bcd60e51b81526004016105ee90612c00565b604051638d361e4360e01b815273__$a5a42e46683ad9c79b7b86d5ff60fdf4c1$__90638d361e43906110c39085908590600401612d1d565b600073__$a5a42e46683ad9c79b7b86d5ff60fdf4c1$__638da5cb5b6040518163ffffffff1660e01b8152600401602060405180830381865af41580156118bd573d6000803e3d6000fd5b505050506040513d601f19601f820116820180604052508101906118e19190612d6b565b905090565b604051632474521560e21b8152600481018390526001600160a01b038216602482015260009073__$a5a42e46683ad9c79b7b86d5ff60fdf4c1$__906391d1485490604401602060405180830381865af4158015611948573d6000803e3d6000fd5b505050506040513d601f19601f820116820180604052508101906117a39190612904565b336001600160a01b031673__$a5a42e46683ad9c79b7b86d5ff60fdf4c1$__638da5cb5b6040518163ffffffff1660e01b8152600401602060405180830381865af41580156119bf573d6000803e3d6000fd5b505050506040513d601f19601f820116820180604052508101906119e39190612d6b565b6001600160a01b031614611a395760405162461bcd60e51b815260206004820152601f60248201527f426173654163636573733a207265737472696374656420746f206f776e65720060448201526064016105ee565b6040516313af403560e01b81526001600160a01b038216600482015273__$a5a42e46683ad9c79b7b86d5ff60fdf4c1$__906313af40359060240160006040518083038186803b158015611a8c57600080fd5b505af4158015611aa0573d6000803e3d6000fd5b5050505050565b604080516080810182526000808252602082018190529181018290526060810182905290611ad3611e43565b6001600160a01b039384166000908152600280830160209081526040808420548452938152918390208351608081018552815488168152600182015490971692870192909252810154918501919091526003015460ff16151560608401525090919050565b7f00000000000000000000000000000000000000000000000000000000000000006001600160a01b03163314611b805760405162461bcd60e51b81526004016105ee90612c35565b6000611b8a611e43565b6000858152602082905260409081902060038101805460ff191690555490519192506001600160a01b031690819086907fd664386a83f95bfa27301263afc24bea04fdb624796cb0d1c2b6b5509374859490611be99088908890612c92565b60405180910390a35050505050565b7f00000000000000000000000000000000000000000000000000000000000000006001600160a01b03163314611c405760405162461bcd60e51b81526004016105ee90612c35565b6000611c4a611e43565b60008381526020829052604080822060038101805460ff191660011790555490519293506001600160a01b031691829185917f63e7cf6eecf636f1b535fc0cc76507244657f2c1515300f3d43d6b903e3d522d9190a3505050565b604051630935e01b60e21b815233600482015273__$a5a42e46683ad9c79b7b86d5ff60fdf4c1$__906324d7806c90602401602060405180830381865af4158015611cf4573d6000803e3d6000fd5b505050506040513d601f19601f82011682018060405250810190611d189190612904565b611d345760405162461bcd60e51b81526004016105ee90612c00565b60405163d547741f60e01b8152600481018390526001600160a01b038216602482015273__$a5a42e46683ad9c79b7b86d5ff60fdf4c1$__9063d547741f906044016110c3565b604051630935e01b60e21b815233600482015273__$a5a42e46683ad9c79b7b86d5ff60fdf4c1$__906324d7806c90602401602060405180830381865af4158015611dca573d6000803e3d6000fd5b505050506040513d601f19601f82011682018060405250810190611dee9190612904565b611e0a5760405162461bcd60e51b81526004016105ee90612c00565b60405163e8906a2d60e01b815273__$a5a42e46683ad9c79b7b86d5ff60fdf4c1$__9063e8906a2d906110c39085908590600401612d1d565b60408051808201909152601481527378722e706f7274616c2e73746f726167652e763160601b60209091015260008060ff611e9f60017f32e6b45acdd074b73c3a2919736df19970ec59317a4f46192bf93b96896df009612cc1565b604051602001611eb191815260200190565b60408051601f1981840301815291905280516020909101201692915050565b6040805161010081018252600080825260208083018290528284018290526060808401839052608080850184905260a085018490528551808201875284815280840185905280870185905280830185905260c08601528551908101865283815280830184905280860184905290810183905260e084015283516328b793cf60e11b8152935192933393849263516f279e92600480820193918290030181865afa158015611f81573d6000803e3d6000fd5b505050506040513d601f19601f82011682018060405250810190611fa59190612d6b565b90506001600160a01b038116611fcd5760405162461bcd60e51b81526004016105ee90612d88565b6000611fd7611e43565b90506001600160a01b038216611fff5760405162461bcd60e51b81526004016105ee90612d88565b6001600160a01b03821660009081526002820160205260408120549081900361209a5760405162461bcd60e51b815260206004820152604160248201527f506f7274616c52656769737472793a206e6f20706f7274616c20666f756e642060448201527f666f72207468652061766174617227732063757272656e74206c6f636174696f6064820152603760f91b608482015260a4016105ee565b8581036121045760405162461bcd60e51b815260206004820152603260248201527f506f7274616c52656769737472793a2063616e6e6f74206a756d7020746f207460448201527168652073616d6520657870657269656e636560701b60648201526084016105ee565b600081815260208390526040902080546001600160a01b0316612191576040805162461bcd60e51b81526020600482015260248101919091527f506f7274616c52656769737472793a20636f756c64206e6f74206d617020637560448201527f7272656e74206c6f636174696f6e20746f20612076616c696420706f7274616c60648201526084016105ee565b6000878152602084905260409020600381015460ff1661220c5760405162461bcd60e51b815260206004820152603060248201527f506f7274616c52656769737472793a2064657374696e6174696f6e20706f727460448201526f616c206973206e6f742061637469766560801b60648201526084016105ee565b80546001600160a01b03166122795760405162461bcd60e51b815260206004820152602d60248201527f506f7274616c52656769737472793a20696e76616c69642064657374696e617460448201526c1a5bdb881c1bdc9d185b081a59609a1b60648201526084016105ee565b604080516101008101825283546001600160a01b039081168083528454909116602080840191909152835163185b3dd560e11b8152845193948501936330b67baa926004808401939192918290030181865afa1580156122dd573d6000803e3d6000fd5b505050506040513d601f19601f820116820180604052508101906123019190612d6b565b6001600160a01b031681526020018360000160009054906101000a90046001600160a01b03166001600160a01b0316636904c94d6040518163ffffffff1660e01b8152600401602060405180830381865afa158015612364573d6000803e3d6000fd5b505050506040513d601f19601f820116820180604052508101906123889190612d6b565b6001600160a01b031681526020018260000160009054906101000a90046001600160a01b03166001600160a01b03166330b67baa6040518163ffffffff1660e01b8152600401602060405180830381865afa1580156123eb573d6000803e3d6000fd5b505050506040513d601f19601f8201168201806040525081019061240f9190612d6b565b6001600160a01b031681526020018260000160009054906101000a90046001600160a01b03166001600160a01b0316636904c94d6040518163ffffffff1660e01b8152600401602060405180830381865afa158015612472573d6000803e3d6000fd5b505050506040513d601f19601f820116820180604052508101906124969190612d6b565b6001600160a01b039081168252604080516080808201835287548416825260018089015485166020848101919091526002808b01548587015260039a8b015460ff9081161515606080880191909152838a0196909652865194850187528a5488168552928a0154909616908301529387015481840152959096015490911615159484019490945292909201529695505050505050565b634e487b7160e01b600052604160045260246000fd5b60405160c0810167ffffffffffffffff811182821017156125655761256561252c565b60405290565b604051601f8201601f1916810167ffffffffffffffff811182821017156125945761259461252c565b604052919050565b6000602082840312156125ae57600080fd5b6040516020810181811067ffffffffffffffff821117156125d1576125d161252c565b6040529135825250919050565b600067ffffffffffffffff8211156125f8576125f861252c565b50601f01601f191660200190565b600082601f83011261261757600080fd5b813561262a612625826125de565b61256b565b81815284602083860101111561263f57600080fd5b816020850160208301376000918101602001919091529392505050565b60006020828403121561266e57600080fd5b813567ffffffffffffffff8082111561268657600080fd5b9083019060c0828603121561269a57600080fd5b6126a2612542565b8235828111156126b157600080fd5b6126bd87828601612606565b8252506020830135828111156126d257600080fd5b6126de87828601612606565b6020830152506040830135828111156126f657600080fd5b61270287828601612606565b604083015250606083013560608201526080830135608082015260a083013560a082015280935050505092915050565b6001600160a01b038116811461274757600080fd5b50565b60006020828403121561275c57600080fd5b81356117a381612732565b60006020828403121561277957600080fd5b5035919050565b6000806040838503121561279357600080fd5b8235915060208301356127a581612732565b809150509250929050565b6000806000604084860312156127c557600080fd5b83359250602084013567ffffffffffffffff808211156127e457600080fd5b818601915086601f8301126127f857600080fd5b81358181111561280757600080fd5b87602082850101111561281957600080fd5b6020830194508093505050509250925092565b60005b8381101561284757818101518382015260200161282f565b50506000910152565b6000815180845261286881602086016020860161282c565b601f01601f19169290920160200192915050565b6020815260006117a36020830184612850565b600080602083850312156128a257600080fd5b823567ffffffffffffffff808211156128ba57600080fd5b818501915085601f8301126128ce57600080fd5b8135818111156128dd57600080fd5b8660208260051b85010111156128f257600080fd5b60209290920196919550909350505050565b60006020828403121561291657600080fd5b815180151581146117a357600080fd5b60208082526042908201527f506f7274616c52656769737472793a204f6e6c7920726567697374657265642060408201527f657870657269656e6365732063616e2063616c6c20746869732066756e63746960608201526137b760f11b608082015260a00190565b6020808252603e908201527f506f7274616c52656769737472793a204f6e6c7920616374697665206578706560408201527f7269656e6365732063616e2063616c6c20746869732066756e6374696f6e0000606082015260800190565b60006129f9612625846125de565b9050828152838383011115612a0d57600080fd5b6117a383602083018461282c565b600082601f830112612a2c57600080fd5b6117a3838351602085016129eb565b600060208284031215612a4d57600080fd5b815167ffffffffffffffff80821115612a6557600080fd5b9083019060c08286031215612a7957600080fd5b612a81612542565b825182811115612a9057600080fd5b612a9c87828601612a1b565b825250602083015182811115612ab157600080fd5b612abd87828601612a1b565b602083015250604083015182811115612ad557600080fd5b612ae187828601612a1b565b604083015250606083015160608201526080830151608082015260a083015160a082015280935050505092915050565b602081526000825160c06020840152612b2d60e0840182612850565b90506020840151601f1980858403016040860152612b4b8383612850565b9250604086015191508085840301606086015250612b698282612850565b91505060608401516080840152608084015160a084015260a084015160c08401528091505092915050565b600060208284031215612ba657600080fd5b815167ffffffffffffffff811115612bbd57600080fd5b612bc984828501612a1b565b949350505050565b634e487b7160e01b600052601160045260246000fd5b600060018201612bf957612bf9612bd1565b5060010190565b6020808252818101527f426173654163636573733a207265737472696374656420746f2061646d696e73604082015260600190565b6020808252603f908201527f506f7274616c52656769737472793a204f6e6c7920657870657269656e63652060408201527f72656769737472792063616e2063616c6c20746869732066756e6374696f6e00606082015260800190565b60208152816020820152818360408301376000818301604090810191909152601f909201601f19160101919050565b81810381811115610f6b57610f6b612bd1565b600060208284031215612ce657600080fd5b815167ffffffffffffffff811115612cfd57600080fd5b8201601f81018413612d0e57600080fd5b612bc9848251602084016129eb565b60208082528181018390526000908460408401835b86811015612d60578235612d4581612732565b6001600160a01b031682529183019190830190600101612d32565b509695505050505050565b600060208284031215612d7d57600080fd5b81516117a381612732565b60208082526031908201527f506f7274616c52656769737472793a20617661746172206973206e6f7420696e6040820152701030903b30b634b2103637b1b0ba34b7b760791b60608201526080019056fea26469706673582212203f9cf7ead19557ef37999944b4cd0d85ad95e61f7c4bdecae3664736ef49f52864736f6c63430008180033",
  "linkReferences": {
    "contracts/libraries/LibAccess.sol": {
      "LibAccess": [
        {
          "length": 20,
          "start": 4430
        },
        {
          "length": 20,
          "start": 4680
        },
        {
          "length": 20,
          "start": 4839
        },
        {
          "length": 20,
          "start": 5248
        },
        {
          "length": 20,
          "start": 6657
        },
        {
          "length": 20,
          "start": 6794
        },
        {
          "length": 20,
          "start": 6840
        },
        {
          "length": 20,
          "start": 6992
        },
        {
          "length": 20,
          "start": 7098
        },
        {
          "length": 20,
          "start": 7321
        },
        {
          "length": 20,
          "start": 7932
        },
        {
          "length": 20,
          "start": 8091
        },
        {
          "length": 20,
          "start": 8146
        },
        {
          "length": 20,
          "start": 8283
        }
      ]
    },
    "contracts/libraries/LibVectorAddress.sol": {
      "LibVectorAddress": [
        {
          "length": 20,
          "start": 2753
        },
        {
          "length": 20,
          "start": 3348
        },
        {
          "length": 20,
          "start": 3605
        }
      ]
    }
  },
  "deployedLinkReferences": {
    "contracts/libraries/LibAccess.sol": {
      "LibAccess": [
        {
          "length": 20,
          "start": 3852
        },
        {
          "length": 20,
          "start": 4102
        },
        {
          "length": 20,
          "start": 4261
        },
        {
          "length": 20,
          "start": 4670
        },
        {
          "length": 20,
          "start": 6079
        },
        {
          "length": 20,
          "start": 6216
        },
        {
          "length": 20,
          "start": 6262
        },
        {
          "length": 20,
          "start": 6414
        },
        {
          "length": 20,
          "start": 6520
        },
        {
          "length": 20,
          "start": 6743
        },
        {
          "length": 20,
          "start": 7354
        },
        {
          "length": 20,
          "start": 7513
        },
        {
          "length": 20,
          "start": 7568
        },
        {
          "length": 20,
          "start": 7705
        }
      ]
    },
    "contracts/libraries/LibVectorAddress.sol": {
      "LibVectorAddress": [
        {
          "length": 20,
          "start": 2175
        },
        {
          "length": 20,
          "start": 2770
        },
        {
          "length": 20,
          "start": 3027
        }
      ]
    }
  }
}