{
  "_format": "hh-sol-artifact-1",
  "contractName": "PortalRegistry",
  "sourceName": "contracts/portal/registry/PortalRegistry.sol",
  "abi": [
    {
      "inputs": [
        {
          "components": [
            {
              "internalType": "address",
              "name": "owner",
              "type": "address"
            },
            {
              "internalType": "address",
              "name": "extensionsRegistry",
              "type": "address"
            },
            {
              "internalType": "address",
              "name": "experienceRegistry",
              "type": "address"
            },
            {
              "internalType": "address",
              "name": "avatarRegistry",
              "type": "address"
            },
            {
              "internalType": "address[]",
              "name": "admins",
              "type": "address[]"
            }
          ],
          "internalType": "struct PortalRegistryConstructorArgs",
          "name": "args",
          "type": "tuple"
        }
      ],
      "stateMutability": "nonpayable",
      "type": "constructor"
    },
    {
      "anonymous": false,
      "inputs": [
        {
          "indexed": false,
          "internalType": "string",
          "name": "name",
          "type": "string"
        }
      ],
      "name": "ExtensionDisabled",
      "type": "event"
    },
    {
      "anonymous": false,
      "inputs": [
        {
          "indexed": false,
          "internalType": "string",
          "name": "name",
          "type": "string"
        }
      ],
      "name": "ExtensionEnabled",
      "type": "event"
    },
    {
      "anonymous": false,
      "inputs": [
        {
          "indexed": false,
          "internalType": "string",
          "name": "name",
          "type": "string"
        },
        {
          "components": [
            {
              "internalType": "uint16",
              "name": "major",
              "type": "uint16"
            },
            {
              "internalType": "uint16",
              "name": "minor",
              "type": "uint16"
            }
          ],
          "indexed": false,
          "internalType": "struct Version",
          "name": "version",
          "type": "tuple"
        }
      ],
      "name": "ExtensionInstalled",
      "type": "event"
    },
    {
      "anonymous": false,
      "inputs": [
        {
          "indexed": false,
          "internalType": "string",
          "name": "name",
          "type": "string"
        },
        {
          "components": [
            {
              "internalType": "uint16",
              "name": "major",
              "type": "uint16"
            },
            {
              "internalType": "uint16",
              "name": "minor",
              "type": "uint16"
            }
          ],
          "indexed": false,
          "internalType": "struct Version",
          "name": "version",
          "type": "tuple"
        }
      ],
      "name": "ExtensionRolledBack",
      "type": "event"
    },
    {
      "anonymous": false,
      "inputs": [
        {
          "indexed": false,
          "internalType": "string",
          "name": "name",
          "type": "string"
        },
        {
          "components": [
            {
              "internalType": "uint16",
              "name": "major",
              "type": "uint16"
            },
            {
              "internalType": "uint16",
              "name": "minor",
              "type": "uint16"
            }
          ],
          "indexed": false,
          "internalType": "struct Version",
          "name": "version",
          "type": "tuple"
        }
      ],
      "name": "ExtensionUpgraded",
      "type": "event"
    },
    {
      "anonymous": false,
      "inputs": [
        {
          "indexed": false,
          "internalType": "bytes4",
          "name": "selector",
          "type": "bytes4"
        }
      ],
      "name": "SelectorDisabled",
      "type": "event"
    },
    {
      "anonymous": false,
      "inputs": [
        {
          "indexed": false,
          "internalType": "bytes4",
          "name": "selector",
          "type": "bytes4"
        }
      ],
      "name": "SelectorEnabled",
      "type": "event"
    },
    {
      "stateMutability": "payable",
      "type": "fallback"
    },
    {
      "inputs": [],
      "name": "avatarRegistry",
      "outputs": [
        {
          "internalType": "address",
          "name": "",
          "type": "address"
        }
      ],
      "stateMutability": "view",
      "type": "function"
    },
    {
      "inputs": [],
      "name": "experienceRegistry",
      "outputs": [
        {
          "internalType": "address",
          "name": "",
          "type": "address"
        }
      ],
      "stateMutability": "view",
      "type": "function"
    },
    {
      "inputs": [],
      "name": "extRegistry",
      "outputs": [
        {
          "internalType": "contract ICoreExtensionRegistry",
          "name": "",
          "type": "address"
        }
      ],
      "stateMutability": "view",
      "type": "function"
    },
    {
      "inputs": [
        {
          "internalType": "string",
          "name": "name",
          "type": "string"
        }
      ],
      "name": "getExtensionVersion",
      "outputs": [
        {
          "components": [
            {
              "internalType": "uint16",
              "name": "major",
              "type": "uint16"
            },
            {
              "internalType": "uint16",
              "name": "minor",
              "type": "uint16"
            }
          ],
          "internalType": "struct Version",
          "name": "",
          "type": "tuple"
        }
      ],
      "stateMutability": "view",
      "type": "function"
    },
    {
      "inputs": [
        {
          "internalType": "string",
          "name": "name",
          "type": "string"
        },
        {
          "components": [
            {
              "internalType": "uint16",
              "name": "major",
              "type": "uint16"
            },
            {
              "internalType": "uint16",
              "name": "minor",
              "type": "uint16"
            }
          ],
          "internalType": "struct Version",
          "name": "version",
          "type": "tuple"
        }
      ],
      "name": "hasExtension",
      "outputs": [
        {
          "internalType": "bool",
          "name": "",
          "type": "bool"
        }
      ],
      "stateMutability": "view",
      "type": "function"
    },
    {
      "inputs": [
        {
          "internalType": "uint256",
          "name": "amount",
          "type": "uint256"
        }
      ],
      "name": "withdraw",
      "outputs": [],
      "stateMutability": "nonpayable",
      "type": "function"
    },
    {
      "stateMutability": "payable",
      "type": "receive"
    }
  ],
  "bytecode": "0x60e06040523480156200001157600080fd5b5060405162001ddb38038062001ddb833981016040819052620000349162000ce3565b60208101516001600160a01b038116620000bb5760405162461bcd60e51b815260206004820152603560248201527f42617369635368656c6c3a20657874656e73696f6e207265676973747279206360448201527f616e6e6f74206265207a65726f2061646472657373000000000000000000000060648201526084015b60405180910390fd5b6001600160a01b03908116608052604082015116620001315760405162461bcd60e51b815260206004820152602b60248201527f506f7274616c52656769737472793a20496e76616c696420657870657269656e60448201526a636520726567697374727960a81b6064820152608401620000b2565b60608101516001600160a01b03166200019d5760405162461bcd60e51b815260206004820152602760248201527f506f7274616c52656769737472793a20496e76616c69642061766174617220726044820152666567697374727960c81b6064820152608401620000b2565b6040818101516001600160a01b0390811660a05260608301511660c09081528151600580825291810190925260009190816020015b6060815260200190600190039081620001d2579050509050604051806040016040528060098152602001681058d8d95cdcd15e1d60ba1b8152508160008151811062000222576200022262000e19565b60200260200101819052506040518060400160405280601381526020017f506f7274616c436f6e646974696f6e73457874000000000000000000000000008152508160018151811062000279576200027962000e19565b60200260200101819052506040518060400160405280601081526020016f141bdc9d185b14995b5bdd985b115e1d60821b81525081600281518110620002c357620002c362000e19565b60200260200101819052506040518060400160405280601581526020017f506f7274616c526567697374726174696f6e4578740000000000000000000000815250816003815181106200031a576200031a62000e19565b60200260200101819052506040518060400160405280600d81526020016c141bdc9d185b129d5b5c115e1d609a1b8152508160048151811062000361576200036162000e19565b60200260200101819052506000604051806060016040528084600001516001600160a01b0316815260200184608001518152602001838152509050620003ad81620003b660201b60201c565b505050620012a0565b60005b816040015151811015620005165781604001518181518110620003e057620003e062000e19565b602002602001015151600003156200050d5760006080516001600160a01b031663c22707ee846040015184815181106200041e576200041e62000e19565b60200260200101516040518263ffffffff1660e01b815260040162000444919062000e83565b602060405180830381865afa15801562000462573d6000803e3d6000fd5b505050506040513d601f19601f8201168201806040525081019062000488919062000e9f565b9050600083604001518381518110620004a557620004a562000e19565b6020026020010151604051602001620004bf919062000ebd565b60408051601f198184030181529190529050806001600160a01b038316620004fc5760405162461bcd60e51b8152600401620000b2919062000e83565b508162000509816200058a565b5050505b600101620003b9565b508051602082015160405163d9ac971f60e01b815273__$a5a42e46683ad9c79b7b86d5ff60fdf4c1$__9263d9ac971f92620005559260040162000f0e565b60006040518083038186803b1580156200056e57600080fd5b505af415801562000583573d6000803e3d6000fd5b5050505050565b60006200059662000930565b90506040518060800160405280600115158152602001836001600160a01b031663392f37e96040518163ffffffff1660e01b8152600401600060405180830381865afa158015620005eb573d6000803e3d6000fd5b505050506040513d6000823e601f3d908101601f1916820160405262000615919081019062000fc4565b81526001600160a01b0384166020820152604001600060405190808252806020026020018201604052801562000655578160200160208202803683370190505b5090526001600160a01b0383166000908152602083815260409091208251815460ff19169015151781559082015180516001830190819062000698908262001137565b506020918201518051600190920180549184015161ffff908116620100000263ffffffff1990931693169290921717905560408301516003830180546001600160a01b039092166001600160a01b0319909216919091179055606083015180516200070a926004850192019062000b6d565b50505060038101805460018101825560009182526020918290200180546001600160a01b0319166001600160a01b038516908117909155604080516024808201939093528151808203909301835260440190529081018051632a1b8f9b60e01b6001600160e01b0391821617909152620007899084908390620009c916565b506000836001600160a01b031663392f37e96040518163ffffffff1660e01b8152600401600060405180830381865afa158015620007cb573d6000803e3d6000fd5b505050506040513d6000823e601f3d908101601f19168201604052620007f5919081019062000fc4565b8051909150600090620008089062000aa0565b905060006001600160a01b0316846002018260405162000829919062001203565b908152604051908190036020019020546001600160a01b031614620008a35760405162461bcd60e51b815260206004820152602960248201527f4c6962457874656e73696f6e3a20657874656e73696f6e20616c7265616479206044820152681a5b9cdd185b1b195960ba1b6064820152608401620000b2565b848460020182604051620008b8919062001203565b908152602001604051809103902060006101000a8154816001600160a01b0302191690836001600160a01b031602179055507ffe9a3a52d7e1a3740350821816e344a482f9611bc09285fa4132de9645b41bae8183602001516040516200092192919062001221565b60405180910390a15050505050565b60408051808201909152601881527f78722e657874656e73696f6e732e73746f726167652e7631000000000000000060209091015260008060ff6200099760017fb58ec9ca7ba0606d9fecd9f559655d0e5fec418e6751b65b892bccdfd25eb99f6200126e565b604051602001620009aa91815260200190565b60408051601f1981840301815291905280516020909101201692915050565b6060600080846001600160a01b031684604051620009e8919062001203565b600060405180830381855af49150503d806000811462000a25576040519150601f19603f3d011682016040523d82523d6000602084013e62000a2a565b606091505b5091509150811562000a4057915062000a9a9050565b80511562000a515780518082602001fd5b60405162461bcd60e51b815260206004820152601660248201527f46756e6374696f6e2063616c6c207265766572746564000000000000000000006044820152606401620000b2565b92915050565b60608160005b815181101562000b135762000ade82828151811062000ac95762000ac962000e19565b01602001516001600160f81b03191662000b1a565b82828151811062000af35762000af362000e19565b60200101906001600160f81b031916908160001a90535060010162000aa6565b5092915050565b6000604160f81b6001600160f81b031983161080159062000b495750602d60f91b6001600160f81b0319831611155b1562000b695762000b6060f883901c602062001284565b60f81b92915050565b5090565b8280548282559060005260206000209060070160089004810192821562000c0e5791602002820160005b8382111562000bda57835183826101000a81548163ffffffff021916908360e01c0217905550926020019260040160208160030104928301926001030262000b97565b801562000c0c5782816101000a81549063ffffffff021916905560040160208160030104928301926001030262000bda565b505b5062000b699291505b8082111562000b69576000815560010162000c17565b634e487b7160e01b600052604160045260246000fd5b60405160a081016001600160401b038111828210171562000c685762000c6862000c2d565b60405290565b604080519081016001600160401b038111828210171562000c685762000c6862000c2d565b604051601f8201601f191681016001600160401b038111828210171562000cbe5762000cbe62000c2d565b604052919050565b80516001600160a01b038116811462000cde57600080fd5b919050565b6000602080838503121562000cf757600080fd5b82516001600160401b038082111562000d0f57600080fd5b9084019060a0828703121562000d2457600080fd5b62000d2e62000c43565b62000d398362000cc6565b815262000d4884840162000cc6565b8482015262000d5a6040840162000cc6565b604082015262000d6d6060840162000cc6565b606082015260808301518281111562000d8557600080fd5b80840193505086601f84011262000d9b57600080fd5b82518281111562000db05762000db062000c2d565b8060051b925062000dc385840162000c93565b818152928401850192858101908985111562000dde57600080fd5b948601945b8486101562000e075762000df78662000cc6565b8252948601949086019062000de3565b60808401525090979650505050505050565b634e487b7160e01b600052603260045260246000fd5b60005b8381101562000e4c57818101518382015260200162000e32565b50506000910152565b6000815180845262000e6f81602086016020860162000e2f565b601f01601f19169290920160200192915050565b60208152600062000e98602083018462000e55565b9392505050565b60006020828403121562000eb257600080fd5b62000e988262000cc6565b7f42617369635368656c6c3a20657874656e73696f6e206e6f7420666f756e643a8152600160fd1b60208201526000825162000f0181602185016020870162000e2f565b9190910160210192915050565b6001600160a01b038381168252604060208084018290528451918401829052600092858201929091906060860190855b8181101562000f5e57855185168352948301949183019160010162000f3e565b509098975050505050505050565b805161ffff8116811462000cde57600080fd5b60006040828403121562000f9257600080fd5b62000f9c62000c6e565b905062000fa98262000f6c565b815262000fb96020830162000f6c565b602082015292915050565b6000602080838503121562000fd857600080fd5b82516001600160401b038082111562000ff057600080fd5b90840190606082870312156200100557600080fd5b6200100f62000c6e565b8251828111156200101f57600080fd5b8301601f810188136200103157600080fd5b80518381111562001046576200104662000c2d565b6200105a601f8201601f1916870162000c93565b935080845288868284010111156200107157600080fd5b620010828187860188850162000e2f565b5050818152620010958785850162000f7f565b848201528094505050505092915050565b600181811c90821680620010bb57607f821691505b602082108103620010dc57634e487b7160e01b600052602260045260246000fd5b50919050565b601f82111562001132576000816000526020600020601f850160051c810160208610156200110d5750805b601f850160051c820191505b818110156200112e5782815560010162001119565b5050505b505050565b81516001600160401b0381111562001153576200115362000c2d565b6200116b81620011648454620010a6565b84620010e2565b602080601f831160018114620011a357600084156200118a5750858301515b600019600386901b1c1916600185901b1785556200112e565b600085815260208120601f198616915b82811015620011d457888601518255948401946001909101908401620011b3565b5085821015620011f35787850151600019600388901b60f8161c191681555b5050505050600190811b01905550565b600082516200121781846020870162000e2f565b9190910192915050565b60608152600062001236606083018562000e55565b905061ffff808451166020840152806020850151166040840152509392505050565b634e487b7160e01b600052601160045260246000fd5b8181038181111562000a9a5762000a9a62001258565b60ff818116838216019081111562000a9a5762000a9a62001258565b60805160a05160c051610b0b620012d060003960006101b30152600061017f015260006101330152610b0b6000f3fe6080604052600436106100595760003560e01c8063238a0386146100885780632e1a7d4d146100cf57806347d1d09a146100f15780638a854771146101215780638f09a6be1461016d578063e3d7ad73146101a157610060565b3661006057005b600080356001600160e01b0319169050600061007e826000366101d5565b9050805160208201f35b34801561009457600080fd5b506100a86100a3366004610884565b6101ea565b60408051825161ffff90811682526020938401511692810192909252015b60405180910390f35b3480156100db57600080fd5b506100ef6100ea3660046108b9565b610279565b005b3480156100fd57600080fd5b5061011161010c3660046108d2565b610436565b60405190151581526020016100c6565b34801561012d57600080fd5b506101557f000000000000000000000000000000000000000000000000000000000000000081565b6040516001600160a01b0390911681526020016100c6565b34801561017957600080fd5b506101557f000000000000000000000000000000000000000000000000000000000000000081565b3480156101ad57600080fd5b506101557f000000000000000000000000000000000000000000000000000000000000000081565b60606101e28484846104ba565b949350505050565b6040805180820182526000808252602082015290516311c501c360e11b815273__$307c3a572bdf5d9800a89b3fc2eb3d5604$__9063238a03869061023390859060040161097c565b6040805180830381865af415801561024f573d6000803e3d6000fd5b505050506040513d601f19601f8201168201806040525081019061027391906109a2565b92915050565b604051630935e01b60e21b815233600482015273__$a5a42e46683ad9c79b7b86d5ff60fdf4c1$__906324d7806c90602401602060405180830381865af41580156102c8573d6000803e3d6000fd5b505050506040513d601f19601f820116820180604052508101906102ec9190610a01565b61033d5760405162461bcd60e51b815260206004820181905260248201527f42617369635368656c6c3a207265737472696374656420746f2061646d696e7360448201526064015b60405180910390fd5b4781111561038d5760405162461bcd60e51b815260206004820181905260248201527f42617369635368656c6c3a20696e73756666696369656e742062616c616e63656044820152606401610334565b73__$a5a42e46683ad9c79b7b86d5ff60fdf4c1$__638da5cb5b6040518163ffffffff1660e01b8152600401602060405180830381865af41580156103d6573d6000803e3d6000fd5b505050506040513d601f19601f820116820180604052508101906103fa9190610a23565b6001600160a01b03166108fc829081150290604051600060405180830381858888f19350505050158015610432573d6000803e3d6000fd5b5050565b6040516329925a7160e11b815260009073__$307c3a572bdf5d9800a89b3fc2eb3d5604$__90635324b4e2906104729086908690600401610a4c565b602060405180830381865af415801561048f573d6000803e3d6000fd5b505050506040513d601f19601f820116820180604052508101906104b39190610a01565b9392505050565b606060006104c6610689565b6001600160e01b031986166000908152600182016020526040902080549192509061010090046001600160a01b03166105595760405162461bcd60e51b815260206004820152602f60248201527f4c6962457874656e73696f6e3a206e6f20657874656e73696f6e20737570706f60448201526e393a399033371039b2b632b1ba37b960891b6064820152608401610334565b805460ff166105b55760405162461bcd60e51b815260206004820152602260248201527f4c6962457874656e73696f6e3a2073656c6563746f72206e6f7420656e61626c604482015261195960f21b6064820152608401610334565b805461010090046001600160a01b03166000908152602083905260409020805460ff166106305760405162461bcd60e51b815260206004820152602360248201527f4c6962457874656e73696f6e3a20657874656e73696f6e206e6f7420656e61626044820152621b195960ea1b6064820152608401610334565b8154604080516020601f890181900481028201810190925287815261067e9261010090046001600160a01b031691899089908190840183828082843760009201919091525061071f92505050565b979650505050505050565b60408051808201909152601881527f78722e657874656e73696f6e732e73746f726167652e7631000000000000000060209091015260008060ff6106ee60017fb58ec9ca7ba0606d9fecd9f559655d0e5fec418e6751b65b892bccdfd25eb99f610a98565b60405160200161070091815260200190565b60408051601f1981840301815291905280516020909101201692915050565b6060600080846001600160a01b03168460405161073c9190610ab9565b600060405180830381855af49150503d8060008114610777576040519150601f19603f3d011682016040523d82523d6000602084013e61077c565b606091505b509150915081156107905791506102739050565b8051156107a05780518082602001fd5b60405162461bcd60e51b8152602060048201526016602482015275119d5b98dd1a5bdb8818d85b1b081c995d995c9d195960521b6044820152606401610334565b634e487b7160e01b600052604160045260246000fd5b600082601f83011261080857600080fd5b813567ffffffffffffffff80821115610823576108236107e1565b604051601f8301601f19908116603f0116810190828211818310171561084b5761084b6107e1565b8160405283815286602085880101111561086457600080fd5b836020870160208301376000602085830101528094505050505092915050565b60006020828403121561089657600080fd5b813567ffffffffffffffff8111156108ad57600080fd5b6101e2848285016107f7565b6000602082840312156108cb57600080fd5b5035919050565b60008082840360608112156108e657600080fd5b833567ffffffffffffffff8111156108fd57600080fd5b610909868287016107f7565b9350506040601f198201121561091e57600080fd5b506020830190509250929050565b60005b8381101561094757818101518382015260200161092f565b50506000910152565b6000815180845261096881602086016020860161092c565b601f01601f19169290920160200192915050565b6020815260006104b36020830184610950565b61ffff8116811461099f57600080fd5b50565b6000604082840312156109b457600080fd5b6040516040810181811067ffffffffffffffff821117156109d7576109d76107e1565b60405282516109e58161098f565b815260208301516109f58161098f565b60208201529392505050565b600060208284031215610a1357600080fd5b815180151581146104b357600080fd5b600060208284031215610a3557600080fd5b81516001600160a01b03811681146104b357600080fd5b606081526000610a5f6060830185610950565b90508235610a6c8161098f565b61ffff808216602085015260208501359150610a878261098f565b808216604085015250509392505050565b8181038181111561027357634e487b7160e01b600052601160045260246000fd5b60008251610acb81846020870161092c565b919091019291505056fea2646970667358221220648086d4df93f1e6f0cdda52350ef2529dbf19f10639fbea166e704824de0ab864736f6c63430008180033",
  "linkReferences": {
    "contracts/libraries/LibAccess.sol": {
      "LibAccess": [
        {
          "length": 20,
          "start": 1325
        },
        {
          "length": 20,
          "start": 5470
        },
        {
          "length": 20,
          "start": 5727
        }
      ]
    },
    "contracts/libraries/LibExtensions.sol": {
      "LibExtensions": [
        {
          "length": 20,
          "start": 5339
        },
        {
          "length": 20,
          "start": 5912
        }
      ]
    }
  },
  "deployedLinkReferences": {
    "contracts/libraries/LibAccess.sol": {
      "LibAccess": [
        {
          "length": 20,
          "start": 654
        },
        {
          "length": 20,
          "start": 911
        }
      ]
    },
    "contracts/libraries/LibExtensions.sol": {
      "LibExtensions": [
        {
          "length": 20,
          "start": 523
        },
        {
          "length": 20,
          "start": 1096
        }
      ]
    }
  }
}