{
  "_format": "hh-sol-artifact-1",
  "contractName": "RegistrarRemovalExt",
  "sourceName": "contracts/extensions/registry/registrar/RegistrarRemovalExt.sol",
  "abi": [
    {
      "anonymous": false,
      "inputs": [
        {
          "indexed": true,
          "internalType": "address",
          "name": "entity",
          "type": "address"
        },
        {
          "indexed": true,
          "internalType": "address",
          "name": "by",
          "type": "address"
        }
      ],
      "name": "EntityRegistrationRenewed",
      "type": "event"
    },
    {
      "anonymous": false,
      "inputs": [
        {
          "indexed": true,
          "internalType": "address",
          "name": "entity",
          "type": "address"
        },
        {
          "indexed": false,
          "internalType": "string",
          "name": "reason",
          "type": "string"
        }
      ],
      "name": "RegistryDeactivatedEntity",
      "type": "event"
    },
    {
      "anonymous": false,
      "inputs": [
        {
          "indexed": true,
          "internalType": "address",
          "name": "entity",
          "type": "address"
        }
      ],
      "name": "RegistryEnforcedDeactivation",
      "type": "event"
    },
    {
      "anonymous": false,
      "inputs": [
        {
          "indexed": true,
          "internalType": "address",
          "name": "entity",
          "type": "address"
        }
      ],
      "name": "RegistryEnforcedRemoval",
      "type": "event"
    },
    {
      "anonymous": false,
      "inputs": [
        {
          "indexed": true,
          "internalType": "address",
          "name": "entity",
          "type": "address"
        }
      ],
      "name": "RegistryReactivatedEntity",
      "type": "event"
    },
    {
      "anonymous": false,
      "inputs": [
        {
          "indexed": true,
          "internalType": "address",
          "name": "entity",
          "type": "address"
        },
        {
          "indexed": false,
          "internalType": "string",
          "name": "reason",
          "type": "string"
        }
      ],
      "name": "RegistryRemovedEntity",
      "type": "event"
    },
    {
      "inputs": [
        {
          "internalType": "address",
          "name": "addr",
          "type": "address"
        }
      ],
      "name": "canBeDeactivated",
      "outputs": [
        {
          "internalType": "bool",
          "name": "",
          "type": "bool"
        }
      ],
      "stateMutability": "view",
      "type": "function"
    },
    {
      "inputs": [
        {
          "internalType": "address",
          "name": "addr",
          "type": "address"
        }
      ],
      "name": "canBeRemoved",
      "outputs": [
        {
          "internalType": "bool",
          "name": "",
          "type": "bool"
        }
      ],
      "stateMutability": "view",
      "type": "function"
    },
    {
      "inputs": [
        {
          "internalType": "contract IRemovableEntity",
          "name": "entity",
          "type": "address"
        },
        {
          "internalType": "string",
          "name": "reason",
          "type": "string"
        }
      ],
      "name": "deactivateEntity",
      "outputs": [],
      "stateMutability": "nonpayable",
      "type": "function"
    },
    {
      "inputs": [
        {
          "internalType": "contract IRemovableEntity",
          "name": "addr",
          "type": "address"
        }
      ],
      "name": "enforceDeactivation",
      "outputs": [],
      "stateMutability": "nonpayable",
      "type": "function"
    },
    {
      "inputs": [
        {
          "internalType": "contract IRemovableEntity",
          "name": "e",
          "type": "address"
        }
      ],
      "name": "enforceRemoval",
      "outputs": [],
      "stateMutability": "nonpayable",
      "type": "function"
    },
    {
      "inputs": [
        {
          "internalType": "address",
          "name": "addr",
          "type": "address"
        }
      ],
      "name": "getEntityTerms",
      "outputs": [
        {
          "components": [
            {
              "internalType": "uint16",
              "name": "coveragePeriodDays",
              "type": "uint16"
            },
            {
              "internalType": "uint16",
              "name": "gracePeriodDays",
              "type": "uint16"
            },
            {
              "internalType": "uint256",
              "name": "fee",
              "type": "uint256"
            }
          ],
          "internalType": "struct RegistrationTerms",
          "name": "",
          "type": "tuple"
        }
      ],
      "stateMutability": "view",
      "type": "function"
    },
    {
      "inputs": [
        {
          "internalType": "address",
          "name": "addr",
          "type": "address"
        }
      ],
      "name": "getExpiration",
      "outputs": [
        {
          "internalType": "uint256",
          "name": "",
          "type": "uint256"
        }
      ],
      "stateMutability": "view",
      "type": "function"
    },
    {
      "inputs": [
        {
          "internalType": "address",
          "name": "addr",
          "type": "address"
        }
      ],
      "name": "getLastRenewal",
      "outputs": [
        {
          "internalType": "uint256",
          "name": "",
          "type": "uint256"
        }
      ],
      "stateMutability": "view",
      "type": "function"
    },
    {
      "inputs": [
        {
          "components": [
            {
              "internalType": "address",
              "name": "owner",
              "type": "address"
            },
            {
              "internalType": "address",
              "name": "owningRegistry",
              "type": "address"
            },
            {
              "internalType": "address[]",
              "name": "admins",
              "type": "address[]"
            }
          ],
          "internalType": "struct ExtensionInitArgs",
          "name": "args",
          "type": "tuple"
        }
      ],
      "name": "initStorage",
      "outputs": [],
      "stateMutability": "nonpayable",
      "type": "function"
    },
    {
      "inputs": [
        {
          "internalType": "address",
          "name": "myAddress",
          "type": "address"
        }
      ],
      "name": "install",
      "outputs": [],
      "stateMutability": "nonpayable",
      "type": "function"
    },
    {
      "inputs": [
        {
          "internalType": "address",
          "name": "addr",
          "type": "address"
        }
      ],
      "name": "isExpired",
      "outputs": [
        {
          "internalType": "bool",
          "name": "",
          "type": "bool"
        }
      ],
      "stateMutability": "view",
      "type": "function"
    },
    {
      "inputs": [
        {
          "internalType": "address",
          "name": "addr",
          "type": "address"
        }
      ],
      "name": "isInGracePeriod",
      "outputs": [
        {
          "internalType": "bool",
          "name": "",
          "type": "bool"
        }
      ],
      "stateMutability": "view",
      "type": "function"
    },
    {
      "inputs": [],
      "name": "metadata",
      "outputs": [
        {
          "components": [
            {
              "internalType": "string",
              "name": "name",
              "type": "string"
            },
            {
              "components": [
                {
                  "internalType": "uint16",
                  "name": "major",
                  "type": "uint16"
                },
                {
                  "internalType": "uint16",
                  "name": "minor",
                  "type": "uint16"
                }
              ],
              "internalType": "struct Version",
              "name": "version",
              "type": "tuple"
            }
          ],
          "internalType": "struct ExtensionMetadata",
          "name": "",
          "type": "tuple"
        }
      ],
      "stateMutability": "pure",
      "type": "function"
    },
    {
      "inputs": [
        {
          "internalType": "contract IRemovableEntity",
          "name": "entity",
          "type": "address"
        }
      ],
      "name": "reactivateEntity",
      "outputs": [],
      "stateMutability": "nonpayable",
      "type": "function"
    },
    {
      "inputs": [
        {
          "internalType": "contract IRemovableEntity",
          "name": "entity",
          "type": "address"
        },
        {
          "internalType": "string",
          "name": "reason",
          "type": "string"
        }
      ],
      "name": "removeEntity",
      "outputs": [],
      "stateMutability": "nonpayable",
      "type": "function"
    },
    {
      "inputs": [
        {
          "internalType": "address",
          "name": "addr",
          "type": "address"
        }
      ],
      "name": "renewEntity",
      "outputs": [],
      "stateMutability": "payable",
      "type": "function"
    },
    {
      "inputs": [
        {
          "internalType": "address",
          "name": "myAddress",
          "type": "address"
        }
      ],
      "name": "upgrade",
      "outputs": [],
      "stateMutability": "nonpayable",
      "type": "function"
    }
  ],
  "bytecode": "0x608060405234801561001057600080fd5b506114c9806100206000396000f3fe6080604052600436106100fe5760003560e01c8063693c79b211610095578063b6db923d11610064578063b6db923d146102a7578063ba2eb541146102c7578063d6fbe020146102e7578063e2482bf9146102fa578063f82e2fb31461031a57600080fd5b8063693c79b21461021c578063729963c01461023c578063a8c88c1714610257578063af08d53d1461028757600080fd5b8063392f37e9116100d1578063392f37e9146101835780634ae134cc146101ae5780634ec70a48146101ce5780635726c94e146101fc57600080fd5b806301f2423014610103578063033a5b60146101255780630900f010146101455780632a1b8f9b14610163575b600080fd5b34801561010f57600080fd5b5061012361011e36600461111d565b610365565b005b34801561013157600080fd5b50610123610140366004611141565b6103d4565b34801561015157600080fd5b5061012361016036600461111d565b50565b34801561016f57600080fd5b5061012361017e36600461111d565b6104dc565b34801561018f57600080fd5b50610198610ba9565b6040516101a5919061120c565b60405180910390f35b3480156101ba57600080fd5b506101236101c936600461111d565b610c0c565b3480156101da57600080fd5b506101ee6101e936600461111d565b610c4c565b6040519081526020016101a5565b34801561020857600080fd5b506101ee61021736600461111d565b610cd2565b34801561022857600080fd5b5061012361023736600461111d565b610d15565b34801561024857600080fd5b50610123610160366004611251565b34801561026357600080fd5b5061027761027236600461111d565b610de4565b60405190151581526020016101a5565b34801561029357600080fd5b506101236102a2366004611141565b610e64565b3480156102b357600080fd5b506102776102c236600461111d565b610f2e565b3480156102d357600080fd5b506102776102e236600461111d565b610f71565b6101236102f536600461111d565b610fb4565b34801561030657600080fd5b5061027761031536600461111d565b610ff4565b34801561032657600080fd5b5061033a61033536600461111d565b611037565b60408051825161ffff90811682526020808501519091169082015291810151908201526060016101a5565b604051630a53217360e11b81526001600160a01b038216600482015273__$1822254560a4f971c7e72253c3a08363e7$__906314a642e6906024015b60006040518083038186803b1580156103b957600080fd5b505af41580156103cd573d6000803e3d6000fd5b5050505050565b604051630935e01b60e21b815233600482015273__$a5a42e46683ad9c79b7b86d5ff60fdf4c1$__906324d7806c90602401602060405180830381865af4158015610423573d6000803e3d6000fd5b505050506040513d601f19601f82011682018060405250810190610447919061128c565b61046c5760405162461bcd60e51b8152600401610463906112ae565b60405180910390fd5b60405163ede71a1760e01b815273__$1822254560a4f971c7e72253c3a08363e7$__9063ede71a17906104a7908690869086906004016112fd565b60006040518083038186803b1580156104bf57600080fd5b505af41580156104d3573d6000803e3d6000fd5b50505050505050565b60408051600d8082526101c08201909252600091816020015b6040805180820190915260008152606060208201528152602001906001900390816104f5579050509050604051806040016040528063f82e2fb360e01b6001600160e01b03191681526020016040518060400160405280601781526020017f676574456e746974795465726d732861646472657373290000000000000000008152508152508160008151811061058d5761058d61133d565b6020026020010181905250604051806040016040528063b6db923d60e01b6001600160e01b03191681526020016040518060400160405280601981526020017f63616e4265446561637469766174656428616464726573732900000000000000815250815250816001815181106106065761060661133d565b6020026020010181905250604051806040016040528063a8c88c1760e01b6001600160e01b03191681526020016040518060400160405280601581526020017463616e426552656d6f76656428616464726573732960581b815250815250816002815181106106775761067761133d565b60200260200101819052506040518060400160405280634ae134cc60e01b6001600160e01b03191681526020016040518060400160405280601c81526020017f656e666f726365446561637469766174696f6e28616464726573732900000000815250815250816003815181106106f0576106f061133d565b602002602001018190525060405180604001604052806301f2423060e01b6001600160e01b03191681526020016040518060400160405280601781526020017f656e666f72636552656d6f76616c286164647265737329000000000000000000815250815250816004815181106107695761076961133d565b60200260200101819052506040518060400160405280635726c94e60e01b6001600160e01b03191681526020016040518060400160405280601781526020017f6765744c61737452656e6577616c286164647265737329000000000000000000815250815250816005815181106107e2576107e261133d565b60200260200101819052506040518060400160405280634ec70a4860e01b6001600160e01b03191681526020016040518060400160405280601681526020017567657445787069726174696f6e28616464726573732960501b815250815250816006815181106108545761085461133d565b6020026020010181905250604051806040016040528063ba2eb54160e01b6001600160e01b03191681526020016040518060400160405280601281526020017169734578706972656428616464726573732960701b815250815250816007815181106108c2576108c261133d565b6020026020010181905250604051806040016040528063e2482bf960e01b6001600160e01b03191681526020016040518060400160405280601881526020017f6973496e4772616365506572696f6428616464726573732900000000000000008152508152508160088151811061093b5761093b61133d565b6020026020010181905250604051806040016040528063d6fbe02060e01b6001600160e01b03191681526020016040518060400160405280601481526020017372656e6577456e7469747928616464726573732960601b815250815250816009815181106109ab576109ab61133d565b6020026020010181905250604051806040016040528063033a5b6060e01b6001600160e01b03191681526020016040518060400160405280602081526020017f64656163746976617465456e7469747928616464726573732c737472696e672981525081525081600a81518110610a2457610a2461133d565b6020026020010181905250604051806040016040528063693c79b260e01b6001600160e01b03191681526020016040518060400160405280601981526020017f72656163746976617465456e746974792861646472657373290000000000000081525081525081600b81518110610a9d57610a9d61133d565b6020026020010181905250604051806040016040528063af08d53d60e01b6001600160e01b03191681526020016040518060400160405280601c81526020017f72656d6f7665456e7469747928616464726573732c737472696e67290000000081525081525081600c81518110610b1657610b1661133d565b602002602001018190525073__$307c3a572bdf5d9800a89b3fc2eb3d5604$__63964d13f06040518060400160405280856001600160a01b03168152602001848152506040518263ffffffff1660e01b8152600401610b759190611353565b60006040518083038186803b158015610b8d57600080fd5b505af4158015610ba1573d6000803e3d6000fd5b505050505050565b610bb16110cc565b506040805160808101825260198183019081527f526567697374726172456e7469747952656d6f76616c4578740000000000000060608301528152815180830190925260018252600060208381019190915281019190915290565b6040516347ef542760e01b81526001600160a01b038216600482015273__$1822254560a4f971c7e72253c3a08363e7$__906347ef5427906024016103a1565b6040516309d8e14960e31b81526001600160a01b038216600482015260009073__$1822254560a4f971c7e72253c3a08363e7$__90634ec70a48906024015b602060405180830381865af4158015610ca8573d6000803e3d6000fd5b505050506040513d601f19601f82011682018060405250810190610ccc91906113ed565b92915050565b604051632b9364a760e11b81526001600160a01b038216600482015260009073__$1822254560a4f971c7e72253c3a08363e7$__90635726c94e90602401610c8b565b604051630935e01b60e21b815233600482015273__$a5a42e46683ad9c79b7b86d5ff60fdf4c1$__906324d7806c90602401602060405180830381865af4158015610d64573d6000803e3d6000fd5b505050506040513d601f19601f82011682018060405250810190610d88919061128c565b610da45760405162461bcd60e51b8152600401610463906112ae565b60405163699f380760e11b81526001600160a01b038216600482015273__$1822254560a4f971c7e72253c3a08363e7$__9063d33e700e906024016103a1565b60405163a8c88c1760e01b81526001600160a01b038216600482015260009073__$1822254560a4f971c7e72253c3a08363e7$__9063a8c88c17906024015b602060405180830381865af4158015610e40573d6000803e3d6000fd5b505050506040513d601f19601f82011682018060405250810190610ccc919061128c565b604051630935e01b60e21b815233600482015273__$a5a42e46683ad9c79b7b86d5ff60fdf4c1$__906324d7806c90602401602060405180830381865af4158015610eb3573d6000803e3d6000fd5b505050506040513d601f19601f82011682018060405250810190610ed7919061128c565b610ef35760405162461bcd60e51b8152600401610463906112ae565b604051633f111a5d60e21b815273__$1822254560a4f971c7e72253c3a08363e7$__9063fc446974906104a7908690869086906004016112fd565b60405163b6db923d60e01b81526001600160a01b038216600482015260009073__$1822254560a4f971c7e72253c3a08363e7$__9063b6db923d90602401610e23565b60405163ba2eb54160e01b81526001600160a01b038216600482015260009073__$1822254560a4f971c7e72253c3a08363e7$__9063ba2eb54190602401610e23565b6040516306b7df0160e51b81526001600160a01b038216600482015273__$1822254560a4f971c7e72253c3a08363e7$__9063d6fbe020906024016103a1565b60405163e2482bf960e01b81526001600160a01b038216600482015260009073__$1822254560a4f971c7e72253c3a08363e7$__9063e2482bf990602401610e23565b6040805160608101825260008082526020820181905281830152905163f82e2fb360e01b81526001600160a01b038316600482015273__$1822254560a4f971c7e72253c3a08363e7$__9063f82e2fb390602401606060405180830381865af41580156110a8573d6000803e3d6000fd5b505050506040513d601f19601f82011682018060405250810190610ccc919061141d565b6040518060400160405280606081526020016111036040518060400160405280600061ffff168152602001600061ffff1681525090565b905290565b6001600160a01b038116811461016057600080fd5b60006020828403121561112f57600080fd5b813561113a81611108565b9392505050565b60008060006040848603121561115657600080fd5b833561116181611108565b9250602084013567ffffffffffffffff8082111561117e57600080fd5b818601915086601f83011261119257600080fd5b8135818111156111a157600080fd5b8760208285010111156111b357600080fd5b6020830194508093505050509250925092565b6000815180845260005b818110156111ec576020818501810151868301820152016111d0565b506000602082860101526020601f19601f83011685010191505092915050565b60208152600082516060602084015261122860808401826111c6565b602094850151805161ffff90811660408701529501519094166060909301929092525090919050565b60006020828403121561126357600080fd5b813567ffffffffffffffff81111561127a57600080fd5b82016060818503121561113a57600080fd5b60006020828403121561129e57600080fd5b8151801515811461113a57600080fd5b6020808252602f908201527f526567697374726172456e7469747952656d6f76616c4578743a20726573747260408201526e696374656420746f2061646d696e7360881b606082015260800190565b6001600160a01b03841681526040602082018190528101829052818360608301376000818301606090810191909152601f909201601f1916010192915050565b634e487b7160e01b600052603260045260246000fd5b602080825282516001600160a01b031682820152828101516040808401819052815160608501819052600093926080600583901b87018101939185019290870190865b818110156113df57888603607f19018352845180516001600160e01b03191687528701518787018590526113cc858801826111c6565b9650509386019391860191600101611396565b509398975050505050505050565b6000602082840312156113ff57600080fd5b5051919050565b805161ffff8116811461141857600080fd5b919050565b60006060828403121561142f57600080fd5b6040516060810181811067ffffffffffffffff8211171561146057634e487b7160e01b600052604160045260246000fd5b60405261146c83611406565b815261147a60208401611406565b602082015260408301516040820152809150509291505056fea26469706673582212205eb0346df444c64dcdc5eefd0f66a7ad91b202de95f0b18c69d1cd5a49116d5164736f6c63430008180033",
  "linkReferences": {
    "contracts/libraries/LibAccess.sol": {
      "LibAccess": [
        {
          "length": 20,
          "start": 1033
        },
        {
          "length": 20,
          "start": 3402
        },
        {
          "length": 20,
          "start": 3737
        }
      ]
    },
    "contracts/libraries/LibEntityRemoval.sol": {
      "LibEntityRemoval": [
        {
          "length": 20,
          "start": 931
        },
        {
          "length": 20,
          "start": 1179
        },
        {
          "length": 20,
          "start": 3146
        },
        {
          "length": 20,
          "start": 3213
        },
        {
          "length": 20,
          "start": 3347
        },
        {
          "length": 20,
          "start": 3554
        },
        {
          "length": 20,
          "start": 3621
        },
        {
          "length": 20,
          "start": 3874
        },
        {
          "length": 20,
          "start": 3951
        },
        {
          "length": 20,
          "start": 4018
        },
        {
          "length": 20,
          "start": 4082
        },
        {
          "length": 20,
          "start": 4149
        },
        {
          "length": 20,
          "start": 4238
        }
      ]
    },
    "contracts/libraries/LibExtensions.sol": {
      "LibExtensions": [
        {
          "length": 20,
          "start": 2883
        }
      ]
    }
  },
  "deployedLinkReferences": {
    "contracts/libraries/LibAccess.sol": {
      "LibAccess": [
        {
          "length": 20,
          "start": 1001
        },
        {
          "length": 20,
          "start": 3370
        },
        {
          "length": 20,
          "start": 3705
        }
      ]
    },
    "contracts/libraries/LibEntityRemoval.sol": {
      "LibEntityRemoval": [
        {
          "length": 20,
          "start": 899
        },
        {
          "length": 20,
          "start": 1147
        },
        {
          "length": 20,
          "start": 3114
        },
        {
          "length": 20,
          "start": 3181
        },
        {
          "length": 20,
          "start": 3315
        },
        {
          "length": 20,
          "start": 3522
        },
        {
          "length": 20,
          "start": 3589
        },
        {
          "length": 20,
          "start": 3842
        },
        {
          "length": 20,
          "start": 3919
        },
        {
          "length": 20,
          "start": 3986
        },
        {
          "length": 20,
          "start": 4050
        },
        {
          "length": 20,
          "start": 4117
        },
        {
          "length": 20,
          "start": 4206
        }
      ]
    },
    "contracts/libraries/LibExtensions.sol": {
      "LibExtensions": [
        {
          "length": 20,
          "start": 2851
        }
      ]
    }
  }
}