{
  "_format": "hh-sol-artifact-1",
  "contractName": "Registrar",
  "sourceName": "contracts/registrar/Registrar.sol",
  "abi": [
    {
      "inputs": [
        {
          "components": [
            {
              "internalType": "address",
              "name": "registrarFactory",
              "type": "address"
            },
            {
              "internalType": "address",
              "name": "registrarRegistry",
              "type": "address"
            },
            {
              "internalType": "address",
              "name": "worldRegistry",
              "type": "address"
            }
          ],
          "internalType": "struct RegistrarConstructorArgs",
          "name": "args",
          "type": "tuple"
        }
      ],
      "stateMutability": "nonpayable",
      "type": "constructor"
    },
    {
      "anonymous": false,
      "inputs": [
        {
          "indexed": true,
          "internalType": "address",
          "name": "entity",
          "type": "address"
        }
      ],
      "name": "AddressDeactivated",
      "type": "event"
    },
    {
      "anonymous": false,
      "inputs": [
        {
          "indexed": true,
          "internalType": "address",
          "name": "entity",
          "type": "address"
        }
      ],
      "name": "AddressReactivated",
      "type": "event"
    },
    {
      "anonymous": false,
      "inputs": [
        {
          "indexed": true,
          "internalType": "address",
          "name": "entity",
          "type": "address"
        }
      ],
      "name": "AddressRemoved",
      "type": "event"
    },
    {
      "anonymous": false,
      "inputs": [],
      "name": "HookRemoved",
      "type": "event"
    },
    {
      "anonymous": false,
      "inputs": [
        {
          "indexed": false,
          "internalType": "address",
          "name": "hook",
          "type": "address"
        }
      ],
      "name": "HookSet",
      "type": "event"
    },
    {
      "anonymous": false,
      "inputs": [
        {
          "indexed": true,
          "internalType": "address",
          "name": "sender",
          "type": "address"
        },
        {
          "indexed": false,
          "internalType": "uint256",
          "name": "value",
          "type": "uint256"
        }
      ],
      "name": "ReceivedFunds",
      "type": "event"
    },
    {
      "anonymous": false,
      "inputs": [],
      "name": "RegistrarDeactivated",
      "type": "event"
    },
    {
      "anonymous": false,
      "inputs": [],
      "name": "RegistrarReactivated",
      "type": "event"
    },
    {
      "anonymous": false,
      "inputs": [
        {
          "indexed": true,
          "internalType": "address",
          "name": "newVersion",
          "type": "address"
        }
      ],
      "name": "RegistrarUpgraded",
      "type": "event"
    },
    {
      "anonymous": false,
      "inputs": [
        {
          "indexed": true,
          "internalType": "address",
          "name": "world",
          "type": "address"
        },
        {
          "indexed": true,
          "internalType": "address",
          "name": "registrar",
          "type": "address"
        }
      ],
      "name": "RegistryDeactivatedWorld",
      "type": "event"
    },
    {
      "anonymous": false,
      "inputs": [
        {
          "indexed": true,
          "internalType": "address",
          "name": "world",
          "type": "address"
        },
        {
          "indexed": true,
          "internalType": "address",
          "name": "registrar",
          "type": "address"
        }
      ],
      "name": "RegistryReactivatedWorld",
      "type": "event"
    },
    {
      "anonymous": false,
      "inputs": [
        {
          "indexed": true,
          "internalType": "address",
          "name": "world",
          "type": "address"
        },
        {
          "indexed": true,
          "internalType": "address",
          "name": "registrar",
          "type": "address"
        }
      ],
      "name": "RegistryRemovedWorld",
      "type": "event"
    },
    {
      "anonymous": false,
      "inputs": [
        {
          "indexed": true,
          "internalType": "address",
          "name": "signer",
          "type": "address"
        }
      ],
      "name": "SignerAdded",
      "type": "event"
    },
    {
      "anonymous": false,
      "inputs": [
        {
          "indexed": true,
          "internalType": "address",
          "name": "signer",
          "type": "address"
        }
      ],
      "name": "SignerRemoved",
      "type": "event"
    },
    {
      "anonymous": false,
      "inputs": [
        {
          "indexed": true,
          "internalType": "address",
          "name": "world",
          "type": "address"
        },
        {
          "indexed": true,
          "internalType": "address",
          "name": "owner",
          "type": "address"
        },
        {
          "components": [
            {
              "internalType": "string",
              "name": "x",
              "type": "string"
            },
            {
              "internalType": "string",
              "name": "y",
              "type": "string"
            },
            {
              "internalType": "string",
              "name": "z",
              "type": "string"
            },
            {
              "internalType": "uint256",
              "name": "t",
              "type": "uint256"
            },
            {
              "internalType": "uint256",
              "name": "p",
              "type": "uint256"
            },
            {
              "internalType": "uint256",
              "name": "p_sub",
              "type": "uint256"
            }
          ],
          "indexed": false,
          "internalType": "struct VectorAddress",
          "name": "vectorAddress",
          "type": "tuple"
        }
      ],
      "name": "WorldRegistered",
      "type": "event"
    },
    {
      "inputs": [],
      "name": "ADMIN_ROLE",
      "outputs": [
        {
          "internalType": "bytes32",
          "name": "",
          "type": "bytes32"
        }
      ],
      "stateMutability": "view",
      "type": "function"
    },
    {
      "inputs": [],
      "name": "WORLD_TERMS",
      "outputs": [
        {
          "internalType": "bytes32",
          "name": "",
          "type": "bytes32"
        }
      ],
      "stateMutability": "view",
      "type": "function"
    },
    {
      "inputs": [
        {
          "internalType": "address[]",
          "name": "signers",
          "type": "address[]"
        }
      ],
      "name": "addSigners",
      "outputs": [],
      "stateMutability": "nonpayable",
      "type": "function"
    },
    {
      "inputs": [
        {
          "internalType": "address",
          "name": "addr",
          "type": "address"
        }
      ],
      "name": "canBeDeactivated",
      "outputs": [
        {
          "internalType": "bool",
          "name": "",
          "type": "bool"
        }
      ],
      "stateMutability": "view",
      "type": "function"
    },
    {
      "inputs": [
        {
          "internalType": "address",
          "name": "addr",
          "type": "address"
        }
      ],
      "name": "canBeRemoved",
      "outputs": [
        {
          "internalType": "bool",
          "name": "",
          "type": "bool"
        }
      ],
      "stateMutability": "view",
      "type": "function"
    },
    {
      "inputs": [],
      "name": "deactivate",
      "outputs": [],
      "stateMutability": "nonpayable",
      "type": "function"
    },
    {
      "inputs": [
        {
          "internalType": "address",
          "name": "world",
          "type": "address"
        }
      ],
      "name": "deactivateWorld",
      "outputs": [],
      "stateMutability": "nonpayable",
      "type": "function"
    },
    {
      "inputs": [
        {
          "components": [
            {
              "internalType": "address",
              "name": "owner",
              "type": "address"
            },
            {
              "components": [
                {
                  "internalType": "uint256",
                  "name": "fee",
                  "type": "uint256"
                },
                {
                  "internalType": "uint256",
                  "name": "coveragePeriod",
                  "type": "uint256"
                },
                {
                  "internalType": "uint256",
                  "name": "gracePeriod",
                  "type": "uint256"
                }
              ],
              "internalType": "struct RegistrationTerms",
              "name": "worldRegistrationTerms",
              "type": "tuple"
            }
          ],
          "internalType": "struct RegistrarInitData",
          "name": "data",
          "type": "tuple"
        }
      ],
      "name": "encodeInitData",
      "outputs": [
        {
          "internalType": "bytes",
          "name": "",
          "type": "bytes"
        }
      ],
      "stateMutability": "pure",
      "type": "function"
    },
    {
      "inputs": [
        {
          "internalType": "address",
          "name": "addr",
          "type": "address"
        }
      ],
      "name": "forceDeactivation",
      "outputs": [],
      "stateMutability": "nonpayable",
      "type": "function"
    },
    {
      "inputs": [
        {
          "internalType": "address",
          "name": "world",
          "type": "address"
        }
      ],
      "name": "forceRemoval",
      "outputs": [],
      "stateMutability": "nonpayable",
      "type": "function"
    },
    {
      "inputs": [
        {
          "internalType": "address",
          "name": "addr",
          "type": "address"
        }
      ],
      "name": "getEntityTerms",
      "outputs": [
        {
          "components": [
            {
              "internalType": "uint256",
              "name": "fee",
              "type": "uint256"
            },
            {
              "internalType": "uint256",
              "name": "coveragePeriod",
              "type": "uint256"
            },
            {
              "internalType": "uint256",
              "name": "gracePeriod",
              "type": "uint256"
            }
          ],
          "internalType": "struct RegistrationTerms",
          "name": "",
          "type": "tuple"
        }
      ],
      "stateMutability": "view",
      "type": "function"
    },
    {
      "inputs": [
        {
          "internalType": "address",
          "name": "addr",
          "type": "address"
        }
      ],
      "name": "getExpiration",
      "outputs": [
        {
          "internalType": "uint256",
          "name": "",
          "type": "uint256"
        }
      ],
      "stateMutability": "view",
      "type": "function"
    },
    {
      "inputs": [
        {
          "internalType": "address",
          "name": "addr",
          "type": "address"
        }
      ],
      "name": "getLastRenewal",
      "outputs": [
        {
          "internalType": "uint256",
          "name": "",
          "type": "uint256"
        }
      ],
      "stateMutability": "view",
      "type": "function"
    },
    {
      "inputs": [
        {
          "internalType": "bytes32",
          "name": "termsType",
          "type": "bytes32"
        }
      ],
      "name": "getTerms",
      "outputs": [
        {
          "components": [
            {
              "internalType": "uint256",
              "name": "fee",
              "type": "uint256"
            },
            {
              "internalType": "uint256",
              "name": "coveragePeriod",
              "type": "uint256"
            },
            {
              "internalType": "uint256",
              "name": "gracePeriod",
              "type": "uint256"
            }
          ],
          "internalType": "struct RegistrationTerms",
          "name": "",
          "type": "tuple"
        }
      ],
      "stateMutability": "view",
      "type": "function"
    },
    {
      "inputs": [],
      "name": "hook",
      "outputs": [
        {
          "internalType": "address",
          "name": "",
          "type": "address"
        }
      ],
      "stateMutability": "view",
      "type": "function"
    },
    {
      "inputs": [
        {
          "internalType": "string",
          "name": "_name",
          "type": "string"
        },
        {
          "internalType": "bytes",
          "name": "initData",
          "type": "bytes"
        }
      ],
      "name": "init",
      "outputs": [],
      "stateMutability": "nonpayable",
      "type": "function"
    },
    {
      "inputs": [],
      "name": "isActive",
      "outputs": [
        {
          "internalType": "bool",
          "name": "",
          "type": "bool"
        }
      ],
      "stateMutability": "view",
      "type": "function"
    },
    {
      "inputs": [
        {
          "internalType": "address",
          "name": "addr",
          "type": "address"
        }
      ],
      "name": "isExpired",
      "outputs": [
        {
          "internalType": "bool",
          "name": "",
          "type": "bool"
        }
      ],
      "stateMutability": "view",
      "type": "function"
    },
    {
      "inputs": [
        {
          "internalType": "address",
          "name": "addr",
          "type": "address"
        }
      ],
      "name": "isInGracePeriod",
      "outputs": [
        {
          "internalType": "bool",
          "name": "",
          "type": "bool"
        }
      ],
      "stateMutability": "view",
      "type": "function"
    },
    {
      "inputs": [
        {
          "internalType": "address",
          "name": "addr",
          "type": "address"
        }
      ],
      "name": "isRegistered",
      "outputs": [
        {
          "internalType": "bool",
          "name": "",
          "type": "bool"
        }
      ],
      "stateMutability": "view",
      "type": "function"
    },
    {
      "inputs": [
        {
          "internalType": "address",
          "name": "signer",
          "type": "address"
        }
      ],
      "name": "isSigner",
      "outputs": [
        {
          "internalType": "bool",
          "name": "",
          "type": "bool"
        }
      ],
      "stateMutability": "view",
      "type": "function"
    },
    {
      "inputs": [
        {
          "components": [
            {
              "internalType": "address",
              "name": "world",
              "type": "address"
            },
            {
              "internalType": "uint256",
              "name": "expiration",
              "type": "uint256"
            },
            {
              "internalType": "bytes",
              "name": "currentRegistrarSignature",
              "type": "bytes"
            },
            {
              "internalType": "bytes",
              "name": "worldSignature",
              "type": "bytes"
            }
          ],
          "internalType": "struct WorldMigrationArgs",
          "name": "args",
          "type": "tuple"
        }
      ],
      "name": "migrateWorld",
      "outputs": [],
      "stateMutability": "nonpayable",
      "type": "function"
    },
    {
      "inputs": [],
      "name": "name",
      "outputs": [
        {
          "internalType": "string",
          "name": "",
          "type": "string"
        }
      ],
      "stateMutability": "view",
      "type": "function"
    },
    {
      "inputs": [],
      "name": "owner",
      "outputs": [
        {
          "internalType": "address",
          "name": "",
          "type": "address"
        }
      ],
      "stateMutability": "view",
      "type": "function"
    },
    {
      "inputs": [],
      "name": "reactivate",
      "outputs": [],
      "stateMutability": "nonpayable",
      "type": "function"
    },
    {
      "inputs": [
        {
          "internalType": "address",
          "name": "world",
          "type": "address"
        }
      ],
      "name": "reactivateWorld",
      "outputs": [],
      "stateMutability": "nonpayable",
      "type": "function"
    },
    {
      "inputs": [
        {
          "components": [
            {
              "internalType": "bool",
              "name": "sendTokensToWorldOwner",
              "type": "bool"
            },
            {
              "internalType": "address",
              "name": "owner",
              "type": "address"
            },
            {
              "components": [
                {
                  "internalType": "string",
                  "name": "x",
                  "type": "string"
                },
                {
                  "internalType": "string",
                  "name": "y",
                  "type": "string"
                },
                {
                  "internalType": "string",
                  "name": "z",
                  "type": "string"
                },
                {
                  "internalType": "uint256",
                  "name": "t",
                  "type": "uint256"
                },
                {
                  "internalType": "uint256",
                  "name": "p",
                  "type": "uint256"
                },
                {
                  "internalType": "uint256",
                  "name": "p_sub",
                  "type": "uint256"
                }
              ],
              "internalType": "struct VectorAddress",
              "name": "baseVector",
              "type": "tuple"
            },
            {
              "internalType": "string",
              "name": "name",
              "type": "string"
            },
            {
              "internalType": "bytes",
              "name": "initData",
              "type": "bytes"
            },
            {
              "internalType": "bytes",
              "name": "vectorAuthoritySignature",
              "type": "bytes"
            },
            {
              "components": [
                {
                  "internalType": "uint256",
                  "name": "fee",
                  "type": "uint256"
                },
                {
                  "internalType": "uint256",
                  "name": "coveragePeriod",
                  "type": "uint256"
                },
                {
                  "internalType": "uint256",
                  "name": "gracePeriod",
                  "type": "uint256"
                }
              ],
              "internalType": "struct RegistrationTerms",
              "name": "companyTerms",
              "type": "tuple"
            },
            {
              "components": [
                {
                  "internalType": "uint256",
                  "name": "fee",
                  "type": "uint256"
                },
                {
                  "internalType": "uint256",
                  "name": "coveragePeriod",
                  "type": "uint256"
                },
                {
                  "internalType": "uint256",
                  "name": "gracePeriod",
                  "type": "uint256"
                }
              ],
              "internalType": "struct RegistrationTerms",
              "name": "avatarTerms",
              "type": "tuple"
            }
          ],
          "internalType": "struct WorldRegistrationArgs",
          "name": "args",
          "type": "tuple"
        }
      ],
      "name": "registerWorld",
      "outputs": [
        {
          "internalType": "address",
          "name": "world",
          "type": "address"
        }
      ],
      "stateMutability": "payable",
      "type": "function"
    },
    {
      "inputs": [],
      "name": "registrarFactory",
      "outputs": [
        {
          "internalType": "address",
          "name": "",
          "type": "address"
        }
      ],
      "stateMutability": "view",
      "type": "function"
    },
    {
      "inputs": [],
      "name": "registrarRegistry",
      "outputs": [
        {
          "internalType": "contract IRegistrarRegistry",
          "name": "",
          "type": "address"
        }
      ],
      "stateMutability": "view",
      "type": "function"
    },
    {
      "inputs": [],
      "name": "removeHook",
      "outputs": [],
      "stateMutability": "nonpayable",
      "type": "function"
    },
    {
      "inputs": [
        {
          "internalType": "address[]",
          "name": "signers",
          "type": "address[]"
        }
      ],
      "name": "removeSigners",
      "outputs": [],
      "stateMutability": "nonpayable",
      "type": "function"
    },
    {
      "inputs": [
        {
          "internalType": "address",
          "name": "world",
          "type": "address"
        }
      ],
      "name": "removeWorld",
      "outputs": [],
      "stateMutability": "nonpayable",
      "type": "function"
    },
    {
      "inputs": [
        {
          "internalType": "address",
          "name": "world",
          "type": "address"
        }
      ],
      "name": "renewWorldRegistration",
      "outputs": [],
      "stateMutability": "payable",
      "type": "function"
    },
    {
      "inputs": [
        {
          "internalType": "address",
          "name": "_hook",
          "type": "address"
        }
      ],
      "name": "setHook",
      "outputs": [],
      "stateMutability": "nonpayable",
      "type": "function"
    },
    {
      "inputs": [
        {
          "internalType": "bytes32",
          "name": "termsType",
          "type": "bytes32"
        },
        {
          "components": [
            {
              "internalType": "uint256",
              "name": "fee",
              "type": "uint256"
            },
            {
              "internalType": "uint256",
              "name": "coveragePeriod",
              "type": "uint256"
            },
            {
              "internalType": "uint256",
              "name": "gracePeriod",
              "type": "uint256"
            }
          ],
          "internalType": "struct RegistrationTerms",
          "name": "terms",
          "type": "tuple"
        }
      ],
      "name": "setTerms",
      "outputs": [],
      "stateMutability": "nonpayable",
      "type": "function"
    },
    {
      "inputs": [
        {
          "internalType": "bytes",
          "name": "initData",
          "type": "bytes"
        }
      ],
      "name": "upgrade",
      "outputs": [],
      "stateMutability": "nonpayable",
      "type": "function"
    },
    {
      "inputs": [
        {
          "internalType": "address",
          "name": "nextVersion",
          "type": "address"
        }
      ],
      "name": "upgradeComplete",
      "outputs": [],
      "stateMutability": "nonpayable",
      "type": "function"
    },
    {
      "inputs": [],
      "name": "version",
      "outputs": [
        {
          "internalType": "uint256",
          "name": "",
          "type": "uint256"
        }
      ],
      "stateMutability": "view",
      "type": "function"
    },
    {
      "inputs": [
        {
          "internalType": "uint256",
          "name": "amount",
          "type": "uint256"
        }
      ],
      "name": "withdraw",
      "outputs": [],
      "stateMutability": "nonpayable",
      "type": "function"
    },
    {
      "inputs": [],
      "name": "worldRegistry",
      "outputs": [
        {
          "internalType": "contract IWorldRegistry",
          "name": "",
          "type": "address"
        }
      ],
      "stateMutability": "view",
      "type": "function"
    },
    {
      "stateMutability": "payable",
      "type": "receive"
    }
  ],
  "bytecode": "0x60e06040523480156200001157600080fd5b50604051620041de380380620041de8339810160408190526200003491620001c5565b80516001600160a01b0316620000a05760405162461bcd60e51b815260206004820152602660248201527f5265676973747261723a20666163746f727920697320746865207a65726f206160448201526564647265737360d01b60648201526084015b60405180910390fd5b60208101516001600160a01b03166200010c5760405162461bcd60e51b815260206004820152602760248201527f5265676973747261723a20726567697374727920697320746865207a65726f206044820152666164647265737360c81b606482015260840162000097565b60408101516001600160a01b03166200017e5760405162461bcd60e51b815260206004820152602d60248201527f5265676973747261723a20776f726c642072656769737472792069732074686560448201526c207a65726f206164647265737360981b606482015260840162000097565b80516001600160a01b039081166080526020820151811660a0526040909101511660c05262000246565b80516001600160a01b0381168114620001c057600080fd5b919050565b600060608284031215620001d857600080fd5b604051606081016001600160401b03811182821017156200020957634e487b7160e01b600052604160045260246000fd5b6040526200021783620001a8565b81526200022760208401620001a8565b60208201526200023a60408401620001a8565b60408201529392505050565b60805160a05160c051613f06620002d8600039600081816105bb015281816109ac015281816119d901528181611f5f01526129f70152600081816106d701528181610afd015281816112ca015281816113490152818161242901528181612694015261271301526000818161076b01528181610b3601528181610bb501528181611ad80152611b570152613f066000f3fe60806040526004361061023f5760003560e01c80637f5a7c7b1161012e578063ba2eb541116100ab578063e2482bf91161006f578063e2482bf9146106f9578063e8906a2d14610719578063f61ddc0e14610739578063f7b360bb14610759578063f82e2fb31461078d57600080fd5b8063ba2eb54114610650578063c3c5a54714610670578063c8de88eb14610690578063d18611d6146106b0578063dbdc4e62146106c557600080fd5b8063911c2a8c116100f2578063911c2a8c146105a9578063a0ba8b17146105dd578063a8c88c17146105f0578063b6db923d14610610578063b91159971461063057600080fd5b80637f5a7c7b146104f957806381ad1a30146105265780638748a82d146105465780638d361e43146105595780638da5cb5b1461057957600080fd5b80634ec70a48116101bc5780636be39bda116101805780636be39bda146104385780636e24e8f5146104655780636e467f271461048557806375b238fc146104a55780637df73e27146104d957600080fd5b80634ec70a48146103ae57806351b42b00146103ce57806354fd4d50146103e35780635726c94e146103f85780635ae13a941461041857600080fd5b80632e1a7d4d116102035780632e1a7d4d14610309578063378f17ff146103295780633dfd38731461033e57806341f8b6821461035e578063472d755c1461037e57600080fd5b806306fdde031461024b57806322f3e2d41461027657806324a6c532146102a757806325394645146102c95780632663d1f7146102e957600080fd5b3661024657005b600080fd5b34801561025757600080fd5b506102606107ad565b60405161026d9190613105565b60405180910390f35b34801561028257600080fd5b50600080516020613e518339815191525460ff165b604051901515815260200161026d565b3480156102b357600080fd5b506102c76102c2366004613140565b610870565b005b3480156102d557600080fd5b506102c76102e436600461315d565b610a0e565b3480156102f557600080fd5b506102c7610304366004613140565b610b34565b34801561031557600080fd5b506102c76103243660046131ce565b610c49565b34801561033557600080fd5b506102c7610ce8565b34801561034a57600080fd5b506102c7610359366004613140565b610dbd565b34801561036a57600080fd5b506102c7610379366004613140565b610ff6565b34801561038a57600080fd5b506103a0600080516020613e9183398151915281565b60405190815260200161026d565b3480156103ba57600080fd5b506103a06103c9366004613140565b6111ce565b3480156103da57600080fd5b506102c76112c8565b3480156103ef57600080fd5b506103a0600181565b34801561040457600080fd5b506103a0610413366004613140565b611410565b34801561042457600080fd5b506102c76104333660046132c6565b6114c7565b34801561044457600080fd5b506104586104533660046131ce565b6115c7565b60405161026d91906132f3565b34801561047157600080fd5b506102c7610480366004613140565b6116d5565b34801561049157600080fd5b506102c76104a0366004613140565b6118a1565b3480156104b157600080fd5b506103a07fa49807205ce4d355092ef5a8a18f56e8913cf4a201fbe287825b095693c2177581565b3480156104e557600080fd5b506102976104f4366004613140565b611a08565b34801561050557600080fd5b5061050e611a39565b6040516001600160a01b03909116815260200161026d565b34801561053257600080fd5b506102c76105413660046133a0565b611ad6565b6102c7610554366004613140565b611c87565b34801561056557600080fd5b506102c7610574366004613403565b611d6f565b34801561058557600080fd5b50600080516020613e518339815191525461010090046001600160a01b031661050e565b3480156105b557600080fd5b5061050e7f000000000000000000000000000000000000000000000000000000000000000081565b61050e6105eb36600461352f565b611dd4565b3480156105fc57600080fd5b5061029761060b366004613140565b61213c565b34801561061c57600080fd5b5061029761062b366004613140565b612230565b34801561063c57600080fd5b506102c761064b36600461364f565b6122e7565b34801561065c57600080fd5b5061029761066b366004613140565b6124b7565b34801561067c57600080fd5b5061029761068b366004613140565b6125b2565b34801561069c57600080fd5b506102606106ab366004613689565b612669565b3480156106bc57600080fd5b506102c7612692565b3480156106d157600080fd5b5061050e7f000000000000000000000000000000000000000000000000000000000000000081565b34801561070557600080fd5b50610297610714366004613140565b612796565b34801561072557600080fd5b506102c7610734366004613403565b61284d565b34801561074557600080fd5b506102c7610754366004613140565b6128ad565b34801561076557600080fd5b5061050e7f000000000000000000000000000000000000000000000000000000000000000081565b34801561079957600080fd5b506104586107a8366004613140565b612a26565b7f30ca889f9f4b2dc021743abc5b939d195344d63b979198902a1735dd2ef6259b8054606091600080516020613e51833981519152916107ec906136c9565b80601f0160208091040260200160405190810160405280929190818152602001828054610818906136c9565b80156108655780601f1061083a57610100808354040283529160200191610865565b820191906000526020600020905b81548152906001019060200180831161084857829003601f168201915b505050505091505090565b600080516020613e3183398151915261089881600080516020613e7183398151915233612aff565b6108bd5760405162461bcd60e51b81526004016108b490613703565b60405180910390fd5b60006108c7611a39565b90506001600160a01b0381161561098d57604051632a60d45360e11b81526001600160a01b0384811660048301528216906354c1a8a6906024016020604051808303816000875af1158015610920573d6000803e3d6000fd5b505050506040513d601f19601f82011682018060405250810190610944919061374f565b61098d5760405162461bcd60e51b81526020600482015260266024820152600080516020613eb1833981519152604482015265195b5bdd985b60d21b60648201526084016108b4565b604051631253629960e11b81526001600160a01b0384811660048301527f000000000000000000000000000000000000000000000000000000000000000016906324a6c532906024015b600060405180830381600087803b1580156109f157600080fd5b505af1158015610a05573d6000803e3d6000fd5b50505050505050565b6000610a18611a39565b90506001600160a01b03811615610ae6576040516316b52d0160e31b81526001600160a01b0382169063b5a9680890610a579086908690600401613795565b6020604051808303816000875af1158015610a76573d6000803e3d6000fd5b505050506040513d601f19601f82011682018060405250810190610a9a919061374f565b610ae65760405162461bcd60e51b815260206004820181905260248201527f5265676973747261723a20686f6f6b2072656a6563746564207570677261646560448201526064016108b4565b60405163c990b2f960e01b81526001600160a01b037f0000000000000000000000000000000000000000000000000000000000000000169063c990b2f9906109d79086908690600401613795565b7f00000000000000000000000000000000000000000000000000000000000000006001600160a01b0316610baa5760405162461bcd60e51b815260206004820152601a60248201527f5265676973747261723a20666163746f7279206e6f742073657400000000000060448201526064016108b4565b336001600160a01b037f00000000000000000000000000000000000000000000000000000000000000001614610bf25760405162461bcd60e51b81526004016108b4906137b1565b600080516020613e3183398151915280546001600160a01b0319166001600160a01b0383169081179091556040517fd6d9a1a61873818653558475632451393d0d796f8877989786df1e58a2bcba6d90600090a250565b610c5233612b2c565b610c6e5760405162461bcd60e51b81526004016108b4906137f5565b80471015610c8e5760405162461bcd60e51b81526004016108b49061383a565b600080516020613e518339815191525461010090046001600160a01b03166001600160a01b03166108fc829081150290604051600060405180830381858888f19350505050158015610ce4573d6000803e3d6000fd5b5050565b610cf133612b2c565b610d0d5760405162461bcd60e51b81526004016108b49061387e565b7f2914b2bb01114b5159800e543f6c1279819fc613124831d49682628c159b8a3860405163747aa1a560e11b8152600481019190915273__$b33bdc01aa0b2bf845e7e40ceebecaaf7e$__9063e8f5434a9060240160006040518083038186803b158015610d7a57600080fd5b505af4158015610d8e573d6000803e3d6000fd5b50506040517f4abf6d25887ff6b78026f569f956b6d57d5b92cecf0ee91d897ec98e47f656a3925060009150a1565b610dc633612b2c565b610de25760405162461bcd60e51b81526004016108b49061387e565b6001600160a01b038116610e4a5760405162461bcd60e51b815260206004820152602960248201527f42617365486f6f6b537570706f72743a20686f6f6b20697320746865207a65726044820152686f206164647265737360b81b60648201526084016108b4565b604051631627905560e01b81526001600160a01b038216600482015273__$b33bdc01aa0b2bf845e7e40ceebecaaf7e$__90631627905590602401602060405180830381865af4158015610ea2573d6000803e3d6000fd5b505050506040513d601f19601f82011682018060405250810190610ec6919061374f565b610f225760405162461bcd60e51b815260206004820152602760248201527f42617365486f6f6b537570706f72743a20686f6f6b206973206e6f74206120636044820152661bdb9d1c9858dd60ca1b60648201526084016108b4565b7f2914b2bb01114b5159800e543f6c1279819fc613124831d49682628c159b8a38604051630a8a5ef160e31b815260048101919091526001600160a01b038216602482015273__$b33bdc01aa0b2bf845e7e40ceebecaaf7e$__90635452f7889060440160006040518083038186803b158015610f9e57600080fd5b505af4158015610fb2573d6000803e3d6000fd5b50506040516001600160a01b03841681527f4eab7b127c764308788622363ad3e9532de3dfba7845bd4f84c125a22544255a9250602001905060405180910390a150565b600073__$d81eab81c4f96e94de97b51155a369ac43$__6386d5c4be6040518163ffffffff1660e01b8152600401602060405180830381865af4158015611041573d6000803e3d6000fd5b505050506040513d601f19601f8201168201806040525081019061106591906138c6565b60405163496fc44560e11b8152600481018290526001600160a01b038416602482015290915073__$d81eab81c4f96e94de97b51155a369ac43$__906392df888a90604401602060405180830381865af41580156110c7573d6000803e3d6000fd5b505050506040513d601f19601f820116820180604052508101906110eb919061374f565b6111435760405162461bcd60e51b815260206004820152602360248201527f42617365526567697374726174696f6e3a2063616e6e6f74206465616374697660448201526261746560e81b60648201526084016108b4565b816001600160a01b03166351b42b006040518163ffffffff1660e01b8152600401600060405180830381600087803b15801561117e57600080fd5b505af1158015611192573d6000803e3d6000fd5b50506040516001600160a01b03851692507f7709ffacb019fa83579ef81329b77183a5cf551288b670f2e66208f4e878001e9150600090a25050565b600073__$d81eab81c4f96e94de97b51155a369ac43$__6386d5c4be6040518163ffffffff1660e01b8152600401602060405180830381865af4158015611219573d6000803e3d6000fd5b505050506040513d601f19601f8201168201806040525081019061123d91906138c6565b604051637edcd54b60e01b815260048101919091526001600160a01b038316602482015273__$d81eab81c4f96e94de97b51155a369ac43$__90637edcd54b906044015b602060405180830381865af415801561129e573d6000803e3d6000fd5b505050506040513d601f19601f820116820180604052508101906112c291906138c6565b92915050565b7f00000000000000000000000000000000000000000000000000000000000000006001600160a01b031661133e5760405162461bcd60e51b815260206004820152601b60248201527f5265676973747261723a207265676973747279206e6f7420736574000000000060448201526064016108b4565b336001600160a01b037f000000000000000000000000000000000000000000000000000000000000000016146113865760405162461bcd60e51b81526004016108b4906138df565b600080516020613e51833981519152805460ff1916815547156113e45780546040516001600160a01b0361010090920491909116904780156108fc02916000818181858888f193505050501580156113e2573d6000803e3d6000fd5b505b6040517f0e71669e647e967d51bde89c365e3af20b908ccf789ca4feddeb9e226fe28bfb90600090a150565b600073__$d81eab81c4f96e94de97b51155a369ac43$__6386d5c4be6040518163ffffffff1660e01b8152600401602060405180830381865af415801561145b573d6000803e3d6000fd5b505050506040513d601f19601f8201168201806040525081019061147f91906138c6565b60405163034eb5ed60e61b815260048101919091526001600160a01b038316602482015273__$d81eab81c4f96e94de97b51155a369ac43$__9063d3ad7b4090604401611281565b6114d033612b2c565b6114ec5760405162461bcd60e51b81526004016108b4906137f5565b73__$d81eab81c4f96e94de97b51155a369ac43$__6386d5c4be6040518163ffffffff1660e01b8152600401602060405180830381865af4158015611535573d6000803e3d6000fd5b505050506040513d601f19601f8201168201806040525081019061155991906138c6565b604051633ca52ad360e11b815273__$d81eab81c4f96e94de97b51155a369ac43$__9163794a55a69161159391908690869060040161392b565b60006040518083038186803b1580156115ab57600080fd5b505af41580156115bf573d6000803e3d6000fd5b505050505050565b6115eb60405180606001604052806000815260200160008152602001600081525090565b73__$d81eab81c4f96e94de97b51155a369ac43$__6386d5c4be6040518163ffffffff1660e01b8152600401602060405180830381865af4158015611634573d6000803e3d6000fd5b505050506040513d601f19601f8201168201806040525081019061165891906138c6565b6040516343b8717f60e11b815260048101919091526024810183905273__$d81eab81c4f96e94de97b51155a369ac43$__90638770e2fe906044015b606060405180830381865af41580156116b1573d6000803e3d6000fd5b505050506040513d601f19601f820116820180604052508101906112c29190613994565b600073__$d81eab81c4f96e94de97b51155a369ac43$__6386d5c4be6040518163ffffffff1660e01b8152600401602060405180830381865af4158015611720573d6000803e3d6000fd5b505050506040513d601f19601f8201168201806040525081019061174491906138c6565b604051632ca4e79b60e01b8152600481018290526001600160a01b038416602482015290915073__$d81eab81c4f96e94de97b51155a369ac43$__90632ca4e79b90604401602060405180830381865af41580156117a6573d6000803e3d6000fd5b505050506040513d601f19601f820116820180604052508101906117ca919061374f565b6118165760405162461bcd60e51b815260206004820152601f60248201527f42617365526567697374726174696f6e3a2063616e6e6f742072656d6f76650060448201526064016108b4565b816001600160a01b03166351b42b006040518163ffffffff1660e01b8152600401600060405180830381600087803b15801561185157600080fd5b505af1158015611865573d6000803e3d6000fd5b50506040516001600160a01b03851692507f24a12366c02e13fe4a9e03d86a8952e85bb74a456c16e4a18b6d8295700b74bb9150600090a25050565b600080516020613e318339815191526118c981600080516020613e7183398151915233612aff565b6118e55760405162461bcd60e51b81526004016108b490613703565b60006118ef611a39565b90506001600160a01b038116156119ba57604051631e42488d60e31b81526001600160a01b03848116600483015282169063f2124468906024016020604051808303816000875af1158015611948573d6000803e3d6000fd5b505050506040513d601f19601f8201168201806040525081019061196c919061374f565b6119ba5760405162461bcd60e51b815260206004820152602b6024820152600080516020613eb183398151915260448201526a32b0b1ba34bb30ba34b7b760a91b60648201526084016108b4565b604051636e467f2760e01b81526001600160a01b0384811660048301527f00000000000000000000000000000000000000000000000000000000000000001690636e467f27906024016109d7565b6000600080516020613e31833981519152611a3281600080516020613e7183398151915285612aff565b9392505050565b60007f2914b2bb01114b5159800e543f6c1279819fc613124831d49682628c159b8a386040516364cff67f60e11b8152600481019190915273__$b33bdc01aa0b2bf845e7e40ceebecaaf7e$__9063c99fecfe90602401602060405180830381865af4158015611aad573d6000803e3d6000fd5b505050506040513d601f19601f82011682018060405250810190611ad191906139b0565b905090565b7f00000000000000000000000000000000000000000000000000000000000000006001600160a01b0316611b4c5760405162461bcd60e51b815260206004820152601a60248201527f5265676973747261723a20666163746f7279206e6f742073657400000000000060448201526064016108b4565b336001600160a01b037f00000000000000000000000000000000000000000000000000000000000000001614611b945760405162461bcd60e51b81526004016108b4906137b1565b600080516020613e518339815191527f30ca889f9f4b2dc021743abc5b939d195344d63b979198902a1735dd2ef6259b611bce8482613a15565b50805460ff191660011781558151600090611bf29084016020908101908501613ad4565b805183546001600160a01b0390911661010002610100600160a81b031990911617835560208101516040516316b84ea560e21b81529192503091635ae13a9491611c4f91600080516020613e918339815191529190600401613b08565b600060405180830381600087803b158015611c6957600080fd5b505af1158015611c7d573d6000803e3d6000fd5b5050505050505050565b6000611c91611a39565b90506001600160a01b03811615611d575760405163645941d760e01b81526001600160a01b03838116600483015282169063645941d7906024016020604051808303816000875af1158015611cea573d6000803e3d6000fd5b505050506040513d601f19601f82011682018060405250810190611d0e919061374f565b611d575760405162461bcd60e51b81526020600482015260266024820152600080516020613eb1833981519152604482015265195b995dd85b60d21b60648201526084016108b4565b610ce4600080516020613e9183398151915283612b52565b600080516020613e31833981519152611da9817fa49807205ce4d355092ef5a8a18f56e8913cf4a201fbe287825b095693c2177533612aff565b611dc55760405162461bcd60e51b81526004016108b490613b30565b611dcf8383612da4565b505050565b6000600080516020613e31833981519152611dfe81600080516020613e7183398151915233612aff565b611e1a5760405162461bcd60e51b81526004016108b490613703565b6000611e24611a39565b90506001600160a01b03811615611ef1576040516296572360e21b81526001600160a01b038216906302595c8c90611e60908790600401613bee565b6020604051808303816000875af1158015611e7f573d6000803e3d6000fd5b505050506040513d601f19601f82011682018060405250810190611ea3919061374f565b611ef15760405162461bcd60e51b815260206004820152602b6024820152600080516020613eb183398151915260448201526a32b3b4b9ba3930ba34b7b760a91b60648201526084016108b4565b6000604051806101000160405280306001600160a01b0316815260200186602001516001600160a01b031681526020018660400151815260200186606001518152602001866080015181526020018660a0015181526020018660c0015181526020018660e0015181525090507f00000000000000000000000000000000000000000000000000000000000000006001600160a01b031663286e5b60826040518263ffffffff1660e01b8152600401611fa99190613ce5565b6020604051808303816000875af1158015611fc8573d6000803e3d6000fd5b505050506040513d601f19601f82011682018060405250810190611fec91906139b0565b93506001600160a01b0384166120445760405162461bcd60e51b815260206004820152601f60248201527f5265676973747261723a20776f726c64206e6f7420726567697374657265640060448201526064016108b4565b34156120c9578451156120925760208101516040516001600160a01b03909116903480156108fc02916000818181858888f1935050505015801561208c573d6000803e3d6000fd5b506120c9565b6040516001600160a01b038516903480156108fc02916000818181858888f193505050501580156120c7573d6000803e3d6000fd5b505b6120e1600080516020613e9183398151915285612e90565b84602001516001600160a01b0316846001600160a01b03167fee32bdf3024960eab0cc65f92f4ab288808ff5501b8132b269630d3fa070005e876040015160405161212c9190613cff565b60405180910390a3505050919050565b600073__$d81eab81c4f96e94de97b51155a369ac43$__6386d5c4be6040518163ffffffff1660e01b8152600401602060405180830381865af4158015612187573d6000803e3d6000fd5b505050506040513d601f19601f820116820180604052508101906121ab91906138c6565b604051632ca4e79b60e01b815260048101919091526001600160a01b038316602482015273__$d81eab81c4f96e94de97b51155a369ac43$__90632ca4e79b906044015b602060405180830381865af415801561220c573d6000803e3d6000fd5b505050506040513d601f19601f820116820180604052508101906112c2919061374f565b600073__$d81eab81c4f96e94de97b51155a369ac43$__6386d5c4be6040518163ffffffff1660e01b8152600401602060405180830381865af415801561227b573d6000803e3d6000fd5b505050506040513d601f19601f8201168201806040525081019061229f91906138c6565b60405163496fc44560e11b815260048101919091526001600160a01b038316602482015273__$d81eab81c4f96e94de97b51155a369ac43$__906392df888a906044016121ef565b600080516020613e3183398151915261230f81600080516020613e7183398151915233612aff565b61232b5760405162461bcd60e51b81526004016108b490613703565b6000612335611a39565b90506001600160a01b038116156124125760405163043a353560e31b81526001600160a01b038216906321d1a9a890612372908690600401613d5e565b6020604051808303816000875af1158015612391573d6000803e3d6000fd5b505050506040513d601f19601f820116820180604052508101906123b5919061374f565b6124125760405162461bcd60e51b815260206004820152602860248201527f5265676973747261723a20686f6f6b2072656a656374656420776f726c64206d60448201526734b3b930ba34b7b760c11b60648201526084016108b4565b60405163ca69bca760e01b81526001600160a01b037f0000000000000000000000000000000000000000000000000000000000000000169063ca69bca79061245e908690600401613d5e565b600060405180830381600087803b15801561247857600080fd5b505af115801561248c573d6000803e3d6000fd5b50611dcf9250600080516020613e9183398151915291506124b290506020860186613140565b612e90565b60004273__$d81eab81c4f96e94de97b51155a369ac43$__6386d5c4be6040518163ffffffff1660e01b8152600401602060405180830381865af4158015612503573d6000803e3d6000fd5b505050506040513d601f19601f8201168201806040525081019061252791906138c6565b604051637edcd54b60e01b815260048101919091526001600160a01b038416602482015273__$d81eab81c4f96e94de97b51155a369ac43$__90637edcd54b90604401602060405180830381865af4158015612587573d6000803e3d6000fd5b505050506040513d601f19601f820116820180604052508101906125ab91906138c6565b1092915050565b600073__$d81eab81c4f96e94de97b51155a369ac43$__6386d5c4be6040518163ffffffff1660e01b8152600401602060405180830381865af41580156125fd573d6000803e3d6000fd5b505050506040513d601f19601f8201168201806040525081019061262191906138c6565b6040516353f9752960e01b815260048101919091526001600160a01b038316602482015273__$d81eab81c4f96e94de97b51155a369ac43$__906353f97529906044016121ef565b60608160405160200161267c9190613ddb565b6040516020818303038152906040529050919050565b7f00000000000000000000000000000000000000000000000000000000000000006001600160a01b03166127085760405162461bcd60e51b815260206004820152601b60248201527f5265676973747261723a207265676973747279206e6f7420736574000000000060448201526064016108b4565b336001600160a01b037f000000000000000000000000000000000000000000000000000000000000000016146127505760405162461bcd60e51b81526004016108b4906138df565b600080516020613e51833981519152805460ff191660011781556040517f71ee011b98f539a3de85aaa6010f3c0a94b80efc8560b3f29800b48004e69d9990600090a150565b600073__$d81eab81c4f96e94de97b51155a369ac43$__6386d5c4be6040518163ffffffff1660e01b8152600401602060405180830381865af41580156127e1573d6000803e3d6000fd5b505050506040513d601f19601f8201168201806040525081019061280591906138c6565b60405163b76ee61f60e01b815260048101919091526001600160a01b038316602482015273__$d81eab81c4f96e94de97b51155a369ac43$__9063b76ee61f906044016121ef565b600080516020613e31833981519152612887817fa49807205ce4d355092ef5a8a18f56e8913cf4a201fbe287825b095693c2177533612aff565b6128a35760405162461bcd60e51b81526004016108b490613b30565b611dcf8383612f4c565b600080516020613e318339815191526128d581600080516020613e7183398151915233612aff565b6128f15760405162461bcd60e51b81526004016108b490613703565b60006128fb611a39565b90506001600160a01b038116156129d8576040516314146e2d60e11b81526001600160a01b038481166004830152821690632828dc5a906024016020604051808303816000875af1158015612954573d6000803e3d6000fd5b505050506040513d601f19601f82011682018060405250810190612978919061374f565b6129d85760405162461bcd60e51b815260206004820152602b60248201527f5265676973747261723a20686f6f6b2072656a656374656420776f726c64206460448201526a32b0b1ba34bb30ba34b7b760a91b60648201526084016108b4565b604051637b0eee0760e11b81526001600160a01b0384811660048301527f0000000000000000000000000000000000000000000000000000000000000000169063f61ddc0e906024016109d7565b612a4a60405180606001604052806000815260200160008152602001600081525090565b73__$d81eab81c4f96e94de97b51155a369ac43$__6386d5c4be6040518163ffffffff1660e01b8152600401602060405180830381865af4158015612a93573d6000803e3d6000fd5b505050506040513d601f19601f82011682018060405250810190612ab791906138c6565b604051630cc5aa5b60e41b815260048101919091526001600160a01b038316602482015273__$d81eab81c4f96e94de97b51155a369ac43$__9063cc5aa5b090604401611694565b6000918252600192909201602090815260408083206001600160a01b039094168352929052205460ff1690565b600080516020613e518339815191525461010090046001600160a01b0390811691161490565b600073__$d81eab81c4f96e94de97b51155a369ac43$__6386d5c4be6040518163ffffffff1660e01b8152600401602060405180830381865af4158015612b9d573d6000803e3d6000fd5b505050506040513d601f19601f82011682018060405250810190612bc191906138c6565b6040516353f9752960e01b8152600481018290526001600160a01b038416602482015290915073__$d81eab81c4f96e94de97b51155a369ac43$__906353f9752990604401602060405180830381865af4158015612c23573d6000803e3d6000fd5b505050506040513d601f19601f82011682018060405250810190612c47919061374f565b612c935760405162461bcd60e51b815260206004820181905260248201527f42617365526567697374726174696f6e3a206e6f74207265676973746572656460448201526064016108b4565b600083815260208290526040902054341015612cc15760405162461bcd60e51b81526004016108b49061383a565b73__$d81eab81c4f96e94de97b51155a369ac43$__6386d5c4be6040518163ffffffff1660e01b8152600401602060405180830381865af4158015612d0a573d6000803e3d6000fd5b505050506040513d601f19601f82011682018060405250810190612d2e91906138c6565b604051633eb6fb8760e01b81526004810191909152602481018490526001600160a01b038316604482015273__$d81eab81c4f96e94de97b51155a369ac43$__90633eb6fb879060640160006040518083038186803b158015612d9057600080fd5b505af4158015610a05573d6000803e3d6000fd5b600080516020613e3183398151915260005b82811015612e8a57612e26600080516020613e71833981519152858584818110612de257612de2613e1a565b9050602002016020810190612df79190613140565b600091825260018501602090815260408084206001600160a01b0390931684529190529020805460ff19169055565b838382818110612e3857612e38613e1a565b9050602002016020810190612e4d9190613140565b6001600160a01b03167f3525e22824a8a7df2c9a6029941c824cf95b6447f1e13d5128fd3826d35afe8b60405160405180910390a2600101612db6565b50505050565b73__$d81eab81c4f96e94de97b51155a369ac43$__6386d5c4be6040518163ffffffff1660e01b8152600401602060405180830381865af4158015612ed9573d6000803e3d6000fd5b505050506040513d601f19601f82011682018060405250810190612efd91906138c6565b6040516332fee6bf60e11b81526004810191909152602481018390526001600160a01b038216604482015273__$d81eab81c4f96e94de97b51155a369ac43$__906365fdcd7e90606401611593565b600080516020613e3183398151915260005b82811015612e8a576000848483818110612f7a57612f7a613e1a565b9050602002016020810190612f8f9190613140565b6001600160a01b031603612fef5760405162461bcd60e51b815260206004820152602160248201527f4261736550726f78793a207369676e6572206973207a65726f206164647265736044820152607360f81b60648201526084016108b4565b61305b600080516020613e7183398151915285858481811061301357613013613e1a565b90506020020160208101906130289190613140565b60009182526001808601602090815260408085206001600160a01b0390941685529290529120805460ff19169091179055565b83838281811061306d5761306d613e1a565b90506020020160208101906130829190613140565b6001600160a01b03167f47d1c22a25bb3a5d4e481b9b1e6944c2eade3181a0a20b495ed61d35b5323f2460405160405180910390a2600101612f5e565b6000815180845260005b818110156130e5576020818501810151868301820152016130c9565b506000602082860101526020601f19601f83011685010191505092915050565b602081526000611a3260208301846130bf565b6001600160a01b038116811461312d57600080fd5b50565b803561313b81613118565b919050565b60006020828403121561315257600080fd5b8135611a3281613118565b6000806020838503121561317057600080fd5b82356001600160401b038082111561318757600080fd5b818501915085601f83011261319b57600080fd5b8135818111156131aa57600080fd5b8660208285010111156131bc57600080fd5b60209290920196919550909350505050565b6000602082840312156131e057600080fd5b5035919050565b634e487b7160e01b600052604160045260246000fd5b604051606081016001600160401b038111828210171561321f5761321f6131e7565b60405290565b60405160c081016001600160401b038111828210171561321f5761321f6131e7565b60405161010081016001600160401b038111828210171561321f5761321f6131e7565b604080519081016001600160401b038111828210171561321f5761321f6131e7565b60006060828403121561329e57600080fd5b6132a66131fd565b905081358152602082013560208201526040820135604082015292915050565b600080608083850312156132d957600080fd5b823591506132ea846020850161328c565b90509250929050565b815181526020808301519082015260408083015190820152606081016112c2565b600082601f83011261332557600080fd5b81356001600160401b038082111561333f5761333f6131e7565b604051601f8301601f19908116603f01168101908282118183101715613367576133676131e7565b8160405283815286602085880101111561338057600080fd5b836020870160208301376000602085830101528094505050505092915050565b600080604083850312156133b357600080fd5b82356001600160401b03808211156133ca57600080fd5b6133d686838701613314565b935060208501359150808211156133ec57600080fd5b506133f985828601613314565b9150509250929050565b6000806020838503121561341657600080fd5b82356001600160401b038082111561342d57600080fd5b818501915085601f83011261344157600080fd5b81358181111561345057600080fd5b8660208260051b85010111156131bc57600080fd5b801515811461312d57600080fd5b803561313b81613465565b600060c0828403121561349057600080fd5b613498613225565b905081356001600160401b03808211156134b157600080fd5b6134bd85838601613314565b835260208401359150808211156134d357600080fd5b6134df85838601613314565b602084015260408401359150808211156134f857600080fd5b5061350584828501613314565b604083015250606082013560608201526080820135608082015260a082013560a082015292915050565b60006020828403121561354157600080fd5b81356001600160401b038082111561355857600080fd5b90830190610180828603121561356d57600080fd5b613575613247565b61357e83613473565b815261358c60208401613130565b60208201526040830135828111156135a357600080fd5b6135af8782860161347e565b6040830152506060830135828111156135c757600080fd5b6135d387828601613314565b6060830152506080830135828111156135eb57600080fd5b6135f787828601613314565b60808301525060a08301358281111561360f57600080fd5b61361b87828601613314565b60a08301525061362e8660c0850161328c565b60c082015261364186610120850161328c565b60e082015295945050505050565b60006020828403121561366157600080fd5b81356001600160401b0381111561367757600080fd5b820160808185031215611a3257600080fd5b60006080828403121561369b57600080fd5b6136a361326a565b82356136ae81613118565b81526136bd846020850161328c565b60208201529392505050565b600181811c908216806136dd57607f821691505b6020821081036136fd57634e487b7160e01b600052602260045260246000fd5b50919050565b6020808252602c908201527f426173654163636573733a2063616c6c657220646f6573206e6f74206861766560408201526b207369676e657220726f6c6560a01b606082015260800190565b60006020828403121561376157600080fd5b8151611a3281613465565b81835281816020850137506000828201602090810191909152601f909101601f19169091010190565b6020815260006137a960208301848661376c565b949350505050565b60208082526024908201527f5265676973747261723a2063616c6c6572206973206e6f742074686520666163604082015263746f727960e01b606082015260800190565b60208082526025908201527f42617365526567697374726174696f6e3a2063616c6c6572206973206e6f742060408201526430b236b4b760d91b606082015260800190565b60208082526024908201527f42617365526567697374726174696f6e3a20696e73756666696369656e742066604082015263756e647360e01b606082015260800190565b60208082526028908201527f42617365486f6f6b537570706f72743a2063616c6c6572206973206e6f74207460408201526734329030b236b4b760c11b606082015260800190565b6000602082840312156138d857600080fd5b5051919050565b6020808252602c908201527f436f6d70526567697374726172616e793a2063616c6c6572206973206e6f742060408201526b74686520726567697374727960a01b606082015260800190565b8381526020810183905260a081016137a960408301848051825260208082015190830152604090810151910152565b60006060828403121561396c57600080fd5b6139746131fd565b905081518152602082015160208201526040820151604082015292915050565b6000606082840312156139a657600080fd5b611a32838361395a565b6000602082840312156139c257600080fd5b8151611a3281613118565b601f821115611dcf576000816000526020600020601f850160051c810160208610156139f65750805b601f850160051c820191505b818110156115bf57828155600101613a02565b81516001600160401b03811115613a2e57613a2e6131e7565b613a4281613a3c84546136c9565b846139cd565b602080601f831160018114613a775760008415613a5f5750858301515b600019600386901b1c1916600185901b1785556115bf565b600085815260208120601f198616915b82811015613aa657888601518255948401946001909101908401613a87565b5085821015613ac45787850151600019600388901b60f8161c191681555b5050505050600190811b01905550565b600060808284031215613ae657600080fd5b613aee61326a565b8251613af981613118565b81526136bd846020850161395a565b82815260808101611a3260208301848051825260208082015190830152604090810151910152565b6020808252602b908201527f426173654163636573733a2063616c6c657220646f6573206e6f74206861766560408201526a2061646d696e20726f6c6560a81b606082015260800190565b6000815160c08452613b9060c08501826130bf565b905060208301518482036020860152613ba982826130bf565b91505060408301518482036040860152613bc382826130bf565b915050606083015160608501526080830151608085015260a083015160a08501528091505092915050565b60208152613c0160208201835115159052565b60006020830151613c1d60408401826001600160a01b03169052565b5060408301516101806060840152613c396101a0840182613b7b565b90506060840151601f1980858403016080860152613c5783836130bf565b925060808601519150808584030160a0860152613c7483836130bf565b925060a08601519150808584030160c086015250613c9282826130bf565b60c0860151805160e08701526020810151610100870152604081015161012087015290925090505060e0840151805161014085015260208101516101608501526040810151610180850152509392505050565b60208152613c016020820183516001600160a01b03169052565b602081526000611a326020830184613b7b565b6000808335601e19843603018112613d2957600080fd5b83016020810192503590506001600160401b03811115613d4857600080fd5b803603821315613d5757600080fd5b9250929050565b6020815260008235613d6f81613118565b60018060a01b03811660208401525060208301356040830152613d956040840184613d12565b60806060850152613daa60a08501828461376c565b915050613dba6060850185613d12565b848303601f19016080860152613dd183828461376c565b9695505050505050565b81516001600160a01b031681526020808301516080830191613e13908401828051825260208082015190830152604090810151910152565b5092915050565b634e487b7160e01b600052603260045260246000fdfe69198989339f34e10129e514286bde98979351148754faef989dde18bf6d14da30ca889f9f4b2dc021743abc5b939d195344d63b979198902a1735dd2ef6259ae2f4eaae4a9751e85a3e4a7b9587827a877f29914755229b07a7b2da98285f70263256c72064806fe8b1b39ed332bb1a297187f40c35d6fa606f39cd7af702945265676973747261723a20686f6f6b2072656a656374656420776f726c642072a2646970667358221220fa98d395c26b6eda298643d5c0a582cd374aad6f03fd1179d8255ae89dfa52d164736f6c63430008180033",
  "linkReferences": {
    "contracts/libraries/LibHooks.sol": {
      "LibHooks": [
        {
          "length": 20,
          "start": 4125
        },
        {
          "length": 20,
          "start": 4416
        },
        {
          "length": 20,
          "start": 4673
        },
        {
          "length": 20,
          "start": 7499
        }
      ]
    },
    "contracts/libraries/LibRegistration.sol": {
      "LibRegistration": [
        {
          "length": 20,
          "start": 4818
        },
        {
          "length": 20,
          "start": 4965
        },
        {
          "length": 20,
          "start": 5290
        },
        {
          "length": 20,
          "start": 5435
        },
        {
          "length": 20,
          "start": 5868
        },
        {
          "length": 20,
          "start": 6013
        },
        {
          "length": 20,
          "start": 6086
        },
        {
          "length": 20,
          "start": 6208
        },
        {
          "length": 20,
          "start": 6341
        },
        {
          "length": 20,
          "start": 6478
        },
        {
          "length": 20,
          "start": 6577
        },
        {
          "length": 20,
          "start": 6724
        },
        {
          "length": 20,
          "start": 9240
        },
        {
          "length": 20,
          "start": 9385
        },
        {
          "length": 20,
          "start": 9484
        },
        {
          "length": 20,
          "start": 9629
        },
        {
          "length": 20,
          "start": 10132
        },
        {
          "length": 20,
          "start": 10277
        },
        {
          "length": 20,
          "start": 10382
        },
        {
          "length": 20,
          "start": 10527
        },
        {
          "length": 20,
          "start": 10866
        },
        {
          "length": 20,
          "start": 11011
        },
        {
          "length": 20,
          "start": 11556
        },
        {
          "length": 20,
          "start": 11701
        },
        {
          "length": 20,
          "start": 11822
        },
        {
          "length": 20,
          "start": 11969
        },
        {
          "length": 20,
          "start": 12187
        },
        {
          "length": 20,
          "start": 12339
        },
        {
          "length": 20,
          "start": 12650
        },
        {
          "length": 20,
          "start": 12802
        }
      ]
    }
  },
  "deployedLinkReferences": {
    "contracts/libraries/LibHooks.sol": {
      "LibHooks": [
        {
          "length": 20,
          "start": 3397
        },
        {
          "length": 20,
          "start": 3688
        },
        {
          "length": 20,
          "start": 3945
        },
        {
          "length": 20,
          "start": 6771
        }
      ]
    },
    "contracts/libraries/LibRegistration.sol": {
      "LibRegistration": [
        {
          "length": 20,
          "start": 4090
        },
        {
          "length": 20,
          "start": 4237
        },
        {
          "length": 20,
          "start": 4562
        },
        {
          "length": 20,
          "start": 4707
        },
        {
          "length": 20,
          "start": 5140
        },
        {
          "length": 20,
          "start": 5285
        },
        {
          "length": 20,
          "start": 5358
        },
        {
          "length": 20,
          "start": 5480
        },
        {
          "length": 20,
          "start": 5613
        },
        {
          "length": 20,
          "start": 5750
        },
        {
          "length": 20,
          "start": 5849
        },
        {
          "length": 20,
          "start": 5996
        },
        {
          "length": 20,
          "start": 8512
        },
        {
          "length": 20,
          "start": 8657
        },
        {
          "length": 20,
          "start": 8756
        },
        {
          "length": 20,
          "start": 8901
        },
        {
          "length": 20,
          "start": 9404
        },
        {
          "length": 20,
          "start": 9549
        },
        {
          "length": 20,
          "start": 9654
        },
        {
          "length": 20,
          "start": 9799
        },
        {
          "length": 20,
          "start": 10138
        },
        {
          "length": 20,
          "start": 10283
        },
        {
          "length": 20,
          "start": 10828
        },
        {
          "length": 20,
          "start": 10973
        },
        {
          "length": 20,
          "start": 11094
        },
        {
          "length": 20,
          "start": 11241
        },
        {
          "length": 20,
          "start": 11459
        },
        {
          "length": 20,
          "start": 11611
        },
        {
          "length": 20,
          "start": 11922
        },
        {
          "length": 20,
          "start": 12074
        }
      ]
    }
  }
}