{
  "_format": "hh-sol-artifact-1",
  "contractName": "RegistrarWorldRegistrationExt",
  "sourceName": "contracts/extensions/registrar/RegistrarWorldRegistrationExt.sol",
  "abi": [
    {
      "inputs": [
        {
          "internalType": "uint256",
          "name": "value",
          "type": "uint256"
        },
        {
          "internalType": "uint256",
          "name": "length",
          "type": "uint256"
        }
      ],
      "name": "StringsInsufficientHexLength",
      "type": "error"
    },
    {
      "anonymous": false,
      "inputs": [
        {
          "indexed": true,
          "internalType": "address",
          "name": "world",
          "type": "address"
        },
        {
          "indexed": true,
          "internalType": "address",
          "name": "owner",
          "type": "address"
        }
      ],
      "name": "RegistrarAddedWorld",
      "type": "event"
    },
    {
      "anonymous": false,
      "inputs": [
        {
          "indexed": true,
          "internalType": "address",
          "name": "world",
          "type": "address"
        },
        {
          "indexed": false,
          "internalType": "string",
          "name": "reason",
          "type": "string"
        }
      ],
      "name": "RegistrarDeactivatedWorld",
      "type": "event"
    },
    {
      "anonymous": false,
      "inputs": [
        {
          "indexed": true,
          "internalType": "address",
          "name": "world",
          "type": "address"
        }
      ],
      "name": "RegistrarReactivatedWorld",
      "type": "event"
    },
    {
      "anonymous": false,
      "inputs": [
        {
          "indexed": true,
          "internalType": "address",
          "name": "world",
          "type": "address"
        },
        {
          "indexed": false,
          "internalType": "string",
          "name": "reason",
          "type": "string"
        }
      ],
      "name": "RegistrarRemovedWorld",
      "type": "event"
    },
    {
      "inputs": [
        {
          "internalType": "address",
          "name": "world",
          "type": "address"
        },
        {
          "internalType": "string",
          "name": "reason",
          "type": "string"
        }
      ],
      "name": "deactivateWorld",
      "outputs": [],
      "stateMutability": "nonpayable",
      "type": "function"
    },
    {
      "inputs": [
        {
          "components": [
            {
              "internalType": "address",
              "name": "owner",
              "type": "address"
            },
            {
              "internalType": "address",
              "name": "owningRegistry",
              "type": "address"
            },
            {
              "internalType": "address[]",
              "name": "admins",
              "type": "address[]"
            }
          ],
          "internalType": "struct ExtensionInitArgs",
          "name": "args",
          "type": "tuple"
        }
      ],
      "name": "initStorage",
      "outputs": [],
      "stateMutability": "nonpayable",
      "type": "function"
    },
    {
      "inputs": [
        {
          "internalType": "address",
          "name": "myAddress",
          "type": "address"
        }
      ],
      "name": "install",
      "outputs": [],
      "stateMutability": "nonpayable",
      "type": "function"
    },
    {
      "inputs": [],
      "name": "metadata",
      "outputs": [
        {
          "components": [
            {
              "internalType": "string",
              "name": "name",
              "type": "string"
            },
            {
              "components": [
                {
                  "internalType": "uint16",
                  "name": "major",
                  "type": "uint16"
                },
                {
                  "internalType": "uint16",
                  "name": "minor",
                  "type": "uint16"
                }
              ],
              "internalType": "struct Version",
              "name": "version",
              "type": "tuple"
            }
          ],
          "internalType": "struct ExtensionMetadata",
          "name": "",
          "type": "tuple"
        }
      ],
      "stateMutability": "pure",
      "type": "function"
    },
    {
      "inputs": [
        {
          "internalType": "address",
          "name": "world",
          "type": "address"
        }
      ],
      "name": "reactivateWorld",
      "outputs": [],
      "stateMutability": "nonpayable",
      "type": "function"
    },
    {
      "inputs": [
        {
          "components": [
            {
              "internalType": "bool",
              "name": "sendTokensToOwner",
              "type": "bool"
            },
            {
              "internalType": "address",
              "name": "owner",
              "type": "address"
            },
            {
              "components": [
                {
                  "internalType": "string",
                  "name": "x",
                  "type": "string"
                },
                {
                  "internalType": "string",
                  "name": "y",
                  "type": "string"
                },
                {
                  "internalType": "string",
                  "name": "z",
                  "type": "string"
                },
                {
                  "internalType": "uint256",
                  "name": "t",
                  "type": "uint256"
                },
                {
                  "internalType": "uint256",
                  "name": "p",
                  "type": "uint256"
                },
                {
                  "internalType": "uint256",
                  "name": "p_sub",
                  "type": "uint256"
                }
              ],
              "internalType": "struct VectorAddress",
              "name": "baseVector",
              "type": "tuple"
            },
            {
              "internalType": "string",
              "name": "name",
              "type": "string"
            },
            {
              "components": [
                {
                  "internalType": "uint16",
                  "name": "coveragePeriodDays",
                  "type": "uint16"
                },
                {
                  "internalType": "uint16",
                  "name": "gracePeriodDays",
                  "type": "uint16"
                },
                {
                  "internalType": "uint256",
                  "name": "fee",
                  "type": "uint256"
                }
              ],
              "internalType": "struct RegistrationTerms",
              "name": "terms",
              "type": "tuple"
            },
            {
              "internalType": "bytes",
              "name": "ownerTermsSignature",
              "type": "bytes"
            },
            {
              "internalType": "uint256",
              "name": "expiration",
              "type": "uint256"
            },
            {
              "internalType": "bytes",
              "name": "vectorAuthoritySignature",
              "type": "bytes"
            },
            {
              "internalType": "bytes",
              "name": "initData",
              "type": "bytes"
            }
          ],
          "internalType": "struct NewWorldArgs",
          "name": "args",
          "type": "tuple"
        }
      ],
      "name": "registerWorld",
      "outputs": [
        {
          "internalType": "address",
          "name": "world",
          "type": "address"
        }
      ],
      "stateMutability": "payable",
      "type": "function"
    },
    {
      "inputs": [
        {
          "internalType": "address",
          "name": "world",
          "type": "address"
        },
        {
          "internalType": "string",
          "name": "reason",
          "type": "string"
        }
      ],
      "name": "removeWorld",
      "outputs": [],
      "stateMutability": "nonpayable",
      "type": "function"
    },
    {
      "inputs": [
        {
          "internalType": "address",
          "name": "myAddress",
          "type": "address"
        }
      ],
      "name": "upgrade",
      "outputs": [],
      "stateMutability": "nonpayable",
      "type": "function"
    }
  ],
  "bytecode": "0x608060405234801561001057600080fd5b5061178c806100206000396000f3fe60806040526004361061007b5760003560e01c80636b676c561161004e5780636b676c56146101125780636e467f2714610132578063729963c014610152578063df1b7c821461016d57600080fd5b80630900f0101461008057806317e3dd59146100a05780632a1b8f9b146100d0578063392f37e9146100f0575b600080fd5b34801561008c57600080fd5b5061009e61009b366004610e48565b50565b005b6100b36100ae3660046110a1565b61018d565b6040516001600160a01b0390911681526020015b60405180910390f35b3480156100dc57600080fd5b5061009e6100eb366004610e48565b61036b565b3480156100fc57600080fd5b506101056105bb565b6040516100c79190611233565b34801561011e57600080fd5b5061009e61012d366004611278565b61061e565b34801561013e57600080fd5b5061009e61014d366004610e48565b61077b565b34801561015e57600080fd5b5061009e61009b3660046112fd565b34801561017957600080fd5b5061009e610188366004611278565b6108d1565b604051637df73e2760e01b815233600482015260009073__$a5a42e46683ad9c79b7b86d5ff60fdf4c1$__90637df73e2790602401602060405180830381865af41580156101df573d6000803e3d6000fd5b505050506040513d601f19601f820116820180604052508101906102039190611338565b6102285760405162461bcd60e51b815260040161021f90611355565b60405180910390fd5b6000306001600160a01b031663911c2a8c6040518163ffffffff1660e01b8152600401602060405180830381865afa158015610268573d6000803e3d6000fd5b505050506040513d601f19601f8201168201806040525081019061028c9190611396565b9050806001600160a01b031663c9affa4760405180610100016040528086600001511515815260200186602001516001600160a01b0316815260200186606001518152602001866080015181526020018660400151815260200186610100015181526020018660a0015181526020018660c001518152506040518263ffffffff1660e01b815260040161031f9190611426565b6020604051808303816000875af115801561033e573d6000803e3d6000fd5b505050506040513d601f19601f820116820180604052508101906103629190611396565b9150505b919050565b60408051600480825260a08201909252600091816020015b60408051808201909152600081526060602082015281526020019060019003908161038357905050905060405180604001604052806317e3dd5960e01b6001600160e01b03191681526020016040518060400160405280601b81526020017f7265676973746572576f726c64284e6577576f726c64417267732900000000008152508152508160008151811061041b5761041b61150d565b60200260200101819052506040518060400160405280636b676c5660e01b6001600160e01b03191681526020016040518060400160405280601f81526020017f64656163746976617465576f726c6428616464726573732c737472696e672900815250815250816001815181106104945761049461150d565b60200260200101819052506040518060400160405280636e467f2760e01b6001600160e01b03191681526020016040518060400160405280601881526020017f72656163746976617465576f726c6428616464726573732900000000000000008152508152508160028151811061050d5761050d61150d565b6020026020010181905250604051806040016040528063df1b7c8260e01b6001600160e01b03191681526020016040518060400160405280601b81526020017f72656d6f7665576f726c6428616464726573732c737472696e67290000000000815250815250816003815181106105865761058661150d565b60200260200101819052506105b76040518060400160405280846001600160a01b03168152602001838152506109f7565b5050565b6105c3610dec565b5060408051608081018252601d8183019081527f526567697374726172576f726c64526567697374726174696f6e45787400000060608301528152815180830190925260018252600060208381019190915281019190915290565b604051637df73e2760e01b815233600482015273__$a5a42e46683ad9c79b7b86d5ff60fdf4c1$__90637df73e2790602401602060405180830381865af415801561066d573d6000803e3d6000fd5b505050506040513d601f19601f820116820180604052508101906106919190611338565b6106ad5760405162461bcd60e51b815260040161021f90611355565b6000306001600160a01b031663911c2a8c6040518163ffffffff1660e01b8152600401602060405180830381865afa1580156106ed573d6000803e3d6000fd5b505050506040513d601f19601f820116820180604052508101906107119190611396565b6040516219d2db60e51b81529091506001600160a01b0382169063033a5b609061074390879087908790600401611523565b600060405180830381600087803b15801561075d57600080fd5b505af1158015610771573d6000803e3d6000fd5b5050505050505050565b604051637df73e2760e01b815233600482015273__$a5a42e46683ad9c79b7b86d5ff60fdf4c1$__90637df73e2790602401602060405180830381865af41580156107ca573d6000803e3d6000fd5b505050506040513d601f19601f820116820180604052508101906107ee9190611338565b61080a5760405162461bcd60e51b815260040161021f90611355565b6000306001600160a01b031663911c2a8c6040518163ffffffff1660e01b8152600401602060405180830381865afa15801561084a573d6000803e3d6000fd5b505050506040513d601f19601f8201168201806040525081019061086e9190611396565b60405163349e3cd960e11b81526001600160a01b0384811660048301529192509082169063693c79b290602401600060405180830381600087803b1580156108b557600080fd5b505af11580156108c9573d6000803e3d6000fd5b505050505050565b604051637df73e2760e01b815233600482015273__$a5a42e46683ad9c79b7b86d5ff60fdf4c1$__90637df73e2790602401602060405180830381865af4158015610920573d6000803e3d6000fd5b505050506040513d601f19601f820116820180604052508101906109449190611338565b6109605760405162461bcd60e51b815260040161021f90611355565b6000306001600160a01b031663911c2a8c6040518163ffffffff1660e01b8152600401602060405180830381865afa1580156109a0573d6000803e3d6000fd5b505050506040513d601f19601f820116820180604052508101906109c49190611396565b60405163af08d53d60e01b81529091506001600160a01b0382169063af08d53d9061074390879087908790600401611523565b6000610a01610bba565b82516001600160a01b031660009081526020829052604081209192505b836020015151811015610bb457600084602001518281518110610a4357610a4361150d565b6020908102919091018101518051600486810180546001808201835560009283528683206008830401805463ffffffff600790941690950261010090810a9384021990951660e09690961c9290920294909417905583516001600160e01b0319168152918801909352604090208054919350916001600160a01b0391041615610b3c57805461010090046001600160a01b0316600090815260208690526040812087519091906001870190610af790610c50565b602080870151604051610b11949392600188019101611600565b60405160208183030381529060405290508060405162461bcd60e51b815260040161021f91906116d9565b50604080518082018252600180825287516001600160a01b03908116602080850191825295516001600160e01b0319166000908152898401909652939094209151825493516001600160a81b0319909416901515610100600160a81b0319161761010093909416929092029290921790915501610a1e565b50505050565b60408051808201909152601881527f78722e657874656e73696f6e732e73746f726167652e7631000000000000000060209091015260008060ff610c1f60017fb58ec9ca7ba0606d9fecd9f559655d0e5fec418e6751b65b892bccdfd25eb99f611702565b604051602001610c3191815260200190565b60408051601f1981840301815291905280516020909101201692915050565b6060610c666001600160a01b0383166014610c6c565b92915050565b6060826000610c7c846002611715565b610c8790600261172c565b67ffffffffffffffff811115610c9f57610c9f610e6c565b6040519080825280601f01601f191660200182016040528015610cc9576020820181803683370190505b509050600360fc1b81600081518110610ce457610ce461150d565b60200101906001600160f81b031916908160001a905350600f60fb1b81600181518110610d1357610d1361150d565b60200101906001600160f81b031916908160001a9053506000610d37856002611715565b610d4290600161172c565b90505b6001811115610dba576f181899199a1a9b1b9c1cb0b131b232b360811b83600f1660108110610d7657610d7661150d565b1a60f81b828281518110610d8c57610d8c61150d565b60200101906001600160f81b031916908160001a90535060049290921c91610db38161173f565b9050610d45565b508115610de45760405163e22e27eb60e01b8152600481018690526024810185905260440161021f565b949350505050565b604051806040016040528060608152602001610e236040518060400160405280600061ffff168152602001600061ffff1681525090565b905290565b6001600160a01b038116811461009b57600080fd5b803561036681610e28565b600060208284031215610e5a57600080fd5b8135610e6581610e28565b9392505050565b634e487b7160e01b600052604160045260246000fd5b60405160c0810167ffffffffffffffff81118282101715610ea557610ea5610e6c565b60405290565b604051610120810167ffffffffffffffff81118282101715610ea557610ea5610e6c565b801515811461009b57600080fd5b803561036681610ecf565b600082601f830112610ef957600080fd5b813567ffffffffffffffff80821115610f1457610f14610e6c565b604051601f8301601f19908116603f01168101908282118183101715610f3c57610f3c610e6c565b81604052838152866020858801011115610f5557600080fd5b836020870160208301376000602085830101528094505050505092915050565b600060c08284031215610f8757600080fd5b610f8f610e82565b9050813567ffffffffffffffff80821115610fa957600080fd5b610fb585838601610ee8565b83526020840135915080821115610fcb57600080fd5b610fd785838601610ee8565b60208401526040840135915080821115610ff057600080fd5b50610ffd84828501610ee8565b604083015250606082013560608201526080820135608082015260a082013560a082015292915050565b803561ffff8116811461036657600080fd5b60006060828403121561104b57600080fd5b6040516060810181811067ffffffffffffffff8211171561106e5761106e610e6c565b60405290508061107d83611027565b815261108b60208401611027565b6020820152604083013560408201525092915050565b6000602082840312156110b357600080fd5b813567ffffffffffffffff808211156110cb57600080fd5b9083019061016082860312156110e057600080fd5b6110e8610eab565b6110f183610edd565b81526110ff60208401610e3d565b602082015260408301358281111561111657600080fd5b61112287828601610f75565b60408301525060608301358281111561113a57600080fd5b61114687828601610ee8565b6060830152506111598660808501611039565b608082015260e08301358281111561117057600080fd5b61117c87828601610ee8565b60a0830152506101008084013560c0830152610120840135838111156111a157600080fd5b6111ad88828701610ee8565b60e084015250610140840135838111156111c657600080fd5b6111d288828701610ee8565b918301919091525095945050505050565b60005b838110156111fe5781810151838201526020016111e6565b50506000910152565b6000815180845261121f8160208601602086016111e3565b601f01601f19169290920160200192915050565b60208152600082516060602084015261124f6080840182611207565b602094850151805161ffff90811660408701529501519094166060909301929092525090919050565b60008060006040848603121561128d57600080fd5b833561129881610e28565b9250602084013567ffffffffffffffff808211156112b557600080fd5b818601915086601f8301126112c957600080fd5b8135818111156112d857600080fd5b8760208285010111156112ea57600080fd5b6020830194508093505050509250925092565b60006020828403121561130f57600080fd5b813567ffffffffffffffff81111561132657600080fd5b820160608185031215610e6557600080fd5b60006020828403121561134a57600080fd5b8151610e6581610ecf565b60208082526021908201527f466163746f72794578743a207265737472696374656420746f207369676e65726040820152607360f81b606082015260800190565b6000602082840312156113a857600080fd5b8151610e6581610e28565b6000815160c084526113c860c0850182611207565b9050602083015184820360208601526113e18282611207565b915050604083015184820360408601526113fb8282611207565b915050606083015160608501526080830151608085015260a083015160a08501528091505092915050565b6020815261143960208201835115159052565b6000602083015161145560408401826001600160a01b03169052565b506040830151610140806060850152611472610160850183611207565b6060860151805161ffff908116608088015260208201511660a0870152604081015160c0870152909250506080850151601f19808685030160e08701526114b984836113b3565b935060a0870151915080868503016101008701526114d78483611207565b935060c087015191508086850301610120870152506114f68382611207565b92505060e085015181850152508091505092915050565b634e487b7160e01b600052603260045260246000fd5b6001600160a01b03841681526040602082018190528101829052818360608301376000818301606090810191909152601f909201601f1916010192915050565b8054600090600181811c908083168061157d57607f831692505b6020808410820361159e57634e487b7160e01b600052602260045260246000fd5b8180156115b257600181146115c7576115f4565b60ff19861689528415158502890196506115f4565b60008881526020902060005b868110156115ec5781548b8201529085019083016115d3565b505084890196505b50505050505092915050565b7f4c6962457874656e73696f6e3a20657874656e73696f6e200000000000000000815260006116326018830187611563565b6c01030ba1030b2323932b9b99d1609d1b8152855161165881600d840160208a016111e3565b7f20617474656d7074696e6720746f20726575736520612073656c6563746f7200600d9290910191820152845161169681602c8401602089016111e3565b7f20616c7265616479207265676973746572656420627920000000000000000000602c92909101918201526116ce6043820185611563565b979650505050505050565b602081526000610e656020830184611207565b634e487b7160e01b600052601160045260246000fd5b81810381811115610c6657610c666116ec565b8082028115828204841417610c6657610c666116ec565b80820180821115610c6657610c666116ec565b60008161174e5761174e6116ec565b50600019019056fea2646970667358221220bbbd080508e56a3963032554e5ea7402de6238ca4a40a2a1dd6eed2b2841066c64736f6c63430008180033",
  "linkReferences": {
    "contracts/libraries/LibAccess.sol": {
      "LibAccess": [
        {
          "length": 20,
          "start": 453
        },
        {
          "length": 20,
          "start": 1619
        },
        {
          "length": 20,
          "start": 1968
        },
        {
          "length": 20,
          "start": 2310
        }
      ]
    }
  },
  "deployedLinkReferences": {
    "contracts/libraries/LibAccess.sol": {
      "LibAccess": [
        {
          "length": 20,
          "start": 421
        },
        {
          "length": 20,
          "start": 1587
        },
        {
          "length": 20,
          "start": 1936
        },
        {
          "length": 20,
          "start": 2278
        }
      ]
    }
  }
}