{
  "_format": "hh-sol-artifact-1",
  "contractName": "RegistrarRegistrationExt",
  "sourceName": "contracts/extensions/registry/registrar/RegistrarRegistrationExt.sol",
  "abi": [
    {
      "anonymous": false,
      "inputs": [
        {
          "indexed": true,
          "internalType": "address",
          "name": "entity",
          "type": "address"
        },
        {
          "indexed": true,
          "internalType": "address",
          "name": "owner",
          "type": "address"
        }
      ],
      "name": "RegistryAddedEntity",
      "type": "event"
    },
    {
      "anonymous": false,
      "inputs": [
        {
          "indexed": true,
          "internalType": "address",
          "name": "old",
          "type": "address"
        },
        {
          "indexed": false,
          "internalType": "address",
          "name": "newVersion",
          "type": "address"
        }
      ],
      "name": "RegistryUpgradedEntity",
      "type": "event"
    },
    {
      "inputs": [
        {
          "components": [
            {
              "internalType": "address",
              "name": "entity",
              "type": "address"
            },
            {
              "internalType": "bytes",
              "name": "entitySignature",
              "type": "bytes"
            },
            {
              "internalType": "uint256",
              "name": "expiration",
              "type": "uint256"
            },
            {
              "components": [
                {
                  "internalType": "uint16",
                  "name": "coveragePeriodDays",
                  "type": "uint16"
                },
                {
                  "internalType": "uint16",
                  "name": "gracePeriodDays",
                  "type": "uint16"
                },
                {
                  "internalType": "uint256",
                  "name": "fee",
                  "type": "uint256"
                }
              ],
              "internalType": "struct RegistrationTerms",
              "name": "terms",
              "type": "tuple"
            }
          ],
          "internalType": "struct ChangeEntityTermsArgs",
          "name": "args",
          "type": "tuple"
        }
      ],
      "name": "changeEntityTerms",
      "outputs": [],
      "stateMutability": "nonpayable",
      "type": "function"
    },
    {
      "inputs": [
        {
          "components": [
            {
              "internalType": "bool",
              "name": "sendTokensToOwner",
              "type": "bool"
            },
            {
              "internalType": "address",
              "name": "owner",
              "type": "address"
            },
            {
              "internalType": "string",
              "name": "name",
              "type": "string"
            },
            {
              "components": [
                {
                  "internalType": "uint16",
                  "name": "coveragePeriodDays",
                  "type": "uint16"
                },
                {
                  "internalType": "uint16",
                  "name": "gracePeriodDays",
                  "type": "uint16"
                },
                {
                  "internalType": "uint256",
                  "name": "fee",
                  "type": "uint256"
                }
              ],
              "internalType": "struct RegistrationTerms",
              "name": "terms",
              "type": "tuple"
            },
            {
              "internalType": "bytes",
              "name": "initData",
              "type": "bytes"
            },
            {
              "internalType": "bytes",
              "name": "ownerTermsSignature",
              "type": "bytes"
            },
            {
              "internalType": "uint256",
              "name": "expiration",
              "type": "uint256"
            }
          ],
          "internalType": "struct CreateEntityArgs",
          "name": "args",
          "type": "tuple"
        }
      ],
      "name": "createRegistrarNoRemoval",
      "outputs": [
        {
          "internalType": "address",
          "name": "",
          "type": "address"
        }
      ],
      "stateMutability": "payable",
      "type": "function"
    },
    {
      "inputs": [
        {
          "components": [
            {
              "internalType": "bool",
              "name": "sendTokensToOwner",
              "type": "bool"
            },
            {
              "internalType": "address",
              "name": "owner",
              "type": "address"
            },
            {
              "internalType": "string",
              "name": "name",
              "type": "string"
            },
            {
              "components": [
                {
                  "internalType": "uint16",
                  "name": "coveragePeriodDays",
                  "type": "uint16"
                },
                {
                  "internalType": "uint16",
                  "name": "gracePeriodDays",
                  "type": "uint16"
                },
                {
                  "internalType": "uint256",
                  "name": "fee",
                  "type": "uint256"
                }
              ],
              "internalType": "struct RegistrationTerms",
              "name": "terms",
              "type": "tuple"
            },
            {
              "internalType": "bytes",
              "name": "initData",
              "type": "bytes"
            },
            {
              "internalType": "bytes",
              "name": "ownerTermsSignature",
              "type": "bytes"
            },
            {
              "internalType": "uint256",
              "name": "expiration",
              "type": "uint256"
            }
          ],
          "internalType": "struct CreateEntityArgs",
          "name": "args",
          "type": "tuple"
        }
      ],
      "name": "createRemovableRegistrar",
      "outputs": [
        {
          "internalType": "address",
          "name": "",
          "type": "address"
        }
      ],
      "stateMutability": "payable",
      "type": "function"
    },
    {
      "inputs": [
        {
          "internalType": "string",
          "name": "name",
          "type": "string"
        }
      ],
      "name": "getEntityByName",
      "outputs": [
        {
          "internalType": "address",
          "name": "",
          "type": "address"
        }
      ],
      "stateMutability": "view",
      "type": "function"
    },
    {
      "inputs": [
        {
          "components": [
            {
              "internalType": "address",
              "name": "owner",
              "type": "address"
            },
            {
              "internalType": "address",
              "name": "owningRegistry",
              "type": "address"
            },
            {
              "internalType": "address[]",
              "name": "admins",
              "type": "address[]"
            }
          ],
          "internalType": "struct ExtensionInitArgs",
          "name": "args",
          "type": "tuple"
        }
      ],
      "name": "initStorage",
      "outputs": [],
      "stateMutability": "nonpayable",
      "type": "function"
    },
    {
      "inputs": [
        {
          "internalType": "address",
          "name": "myAddress",
          "type": "address"
        }
      ],
      "name": "install",
      "outputs": [],
      "stateMutability": "nonpayable",
      "type": "function"
    },
    {
      "inputs": [
        {
          "internalType": "address",
          "name": "addr",
          "type": "address"
        }
      ],
      "name": "isRegistered",
      "outputs": [
        {
          "internalType": "bool",
          "name": "",
          "type": "bool"
        }
      ],
      "stateMutability": "view",
      "type": "function"
    },
    {
      "inputs": [],
      "name": "metadata",
      "outputs": [
        {
          "components": [
            {
              "internalType": "string",
              "name": "name",
              "type": "string"
            },
            {
              "components": [
                {
                  "internalType": "uint16",
                  "name": "major",
                  "type": "uint16"
                },
                {
                  "internalType": "uint16",
                  "name": "minor",
                  "type": "uint16"
                }
              ],
              "internalType": "struct Version",
              "name": "version",
              "type": "tuple"
            }
          ],
          "internalType": "struct ExtensionMetadata",
          "name": "",
          "type": "tuple"
        }
      ],
      "stateMutability": "pure",
      "type": "function"
    },
    {
      "inputs": [],
      "name": "register",
      "outputs": [],
      "stateMutability": "nonpayable",
      "type": "function"
    },
    {
      "inputs": [
        {
          "internalType": "address",
          "name": "myAddress",
          "type": "address"
        }
      ],
      "name": "upgrade",
      "outputs": [],
      "stateMutability": "nonpayable",
      "type": "function"
    }
  ],
  "bytecode": "0x608060405234801561001057600080fd5b50611cb5806100206000396000f3fe6080604052600436106100915760003560e01c80633e88a4e2116100595780633e88a4e21461013d5780634d4965f31461015d578063729963c01461017d578063974a48cb14610198578063c3c5a547146101ab57600080fd5b80630900f010146100965780631aa3a008146100b6578063299944ab146100cb5780632a1b8f9b146100fb578063392f37e91461011b575b600080fd5b3480156100a257600080fd5b506100b46100b1366004611482565b50565b005b3480156100c257600080fd5b506100b46101db565b6100de6100d93660046114a6565b61025f565b6040516001600160a01b0390911681526020015b60405180910390f35b34801561010757600080fd5b506100b4610116366004611482565b61083a565b34801561012757600080fd5b50610130610b02565b6040516100f29190611528565b34801561014957600080fd5b506100de61015836600461156d565b610b65565b34801561016957600080fd5b506100b46101783660046115df565b610beb565b34801561018957600080fd5b506100b46100b136600461161a565b6100de6101a63660046114a6565b610c55565b3480156101b757600080fd5b506101cb6101c6366004611482565b61125b565b60405190151581526020016100f2565b6101e43361125b565b61025d576040805162461bcd60e51b81526020600482015260248101919091527f526567697374726174696f6e4578743a206f6e6c79207265676973746572656460448201527f20656e7469746965732063616e2063616c6c20746869732066756e6374696f6e60648201526084015b60405180910390fd5b565b604051630935e01b60e21b815233600482015260009073__$a5a42e46683ad9c79b7b86d5ff60fdf4c1$__906324d7806c90602401602060405180830381865af41580156102b1573d6000803e3d6000fd5b505050506040513d601f19601f820116820180604052508101906102d59190611663565b6103215760405162461bcd60e51b815260206004820181905260248201527f466163746f72794578743a207265737472696374656420746f2061646d696e736044820152606401610254565b600061033360a0840160808501611692565b61ffff16116103bd5760405162461bcd60e51b815260206004820152604a60248201527f526567697374726172526567697374726174696f6e4578743a2067726163652060448201527f706572696f6420726571756972656420666f722072656d6f7661626c6520726560648201526933b4b9ba3930ba34b7b760b11b608482015260a401610254565b60006040518060a001604052808460200160208101906103dd9190611482565b6001600160a01b03168152306020820152604001610403368690038601606087016116ad565b8152610100850135602082015260400161042060e0860186611723565b8080601f016020809104026020016040519081016040528093929190818152602001838380828437600092019190915250505091525060405163bf52415b60e01b815290915073__$d81eab81c4f96e94de97b51155a369ac43$__9063bf52415b90610490908490600401611771565b60006040518083038186803b1580156104a857600080fd5b505af41580156104bc573d6000803e3d6000fd5b50506040805160e081018252600060c082018181528252825160208181018552828252808401919091528351908101845281815292820192909252606081018290526080810182905260a08101829052925090506105186112da565b8054909150600090610532906001600160a01b0316611370565b90506001600160a01b03811661055a5760405162461bcd60e51b8152600401610254906117e9565b60006040518060c0016040528088602001602081019061057a9190611482565b6001600160a01b03168152602001306001600160a01b03168152602001306001600160a01b031681526020018880604001906105b69190611723565b8080601f0160208091040260200160405190810160405280939291908181526020018383808284376000920191909152505050908252506020810186905260400161060460c08a018a611723565b8080601f01602080910402602001604051908101604052809392919081815260200183838082843760009201919091525050509152506040516334d0850960e11b81529091506001600160a01b038316906369a10a1290610669908490600401611835565b600060405180830381600087803b15801561068357600080fd5b505af1158015610697573d6000803e3d6000fd5b5050505060006040518060600160405280846001600160a01b03168152602001896060018036038101906106cb91906116ad565b815260200186905260405163474df87960e01b815290915073__$d81eab81c4f96e94de97b51155a369ac43$__9063474df8799061070d90849060040161191e565b60006040518083038186803b15801561072557600080fd5b505af4158015610739573d6000803e3d6000fd5b5050505060003411156107dd5761075360208901896119f1565b156107a6576107686040890160208a01611482565b6001600160a01b03166108fc349081150290604051600060405180830381858888f193505050501580156107a0573d6000803e3d6000fd5b506107dd565b6040516001600160a01b038416903480156108fc02916000818181858888f193505050501580156107db573d6000803e3d6000fd5b505b6107ed6040890160208a01611482565b6001600160a01b0316836001600160a01b03167f7377123f9eb561d749cd3a89a83c22035cad6473521acbb981ee1c52d8f0248560405160405180910390a350909450505050505b919050565b60408051600580825260c08201909252600091816020015b6040805180820190915260008152606060208201528152602001906001900390816108525790505090506040518060400160405280633e88a4e260e01b6001600160e01b03191681526020016040518060400160405280601781526020017f676574456e7469747942794e616d6528737472696e6729000000000000000000815250815250816000815181106108ea576108ea611a0e565b60200260200101819052506040518060400160405280634d4965f360e01b6001600160e01b03191681526020016040518060600160405280602c8152602001611c2a602c91398152508160018151811061094657610946611a0e565b6020026020010181905250604051806040016040528063c3c5a54760e01b6001600160e01b03191681526020016040518060400160405280601581526020017469735265676973746572656428616464726573732960581b815250815250816002815181106109b7576109b7611a0e565b6020026020010181905250604051806040016040528063974a48cb60e01b6001600160e01b03191681526020016040518060600160405280602a8152602001611c56602a913981525081600381518110610a1357610a13611a0e565b6020026020010181905250604051806040016040528063299944ab60e01b6001600160e01b03191681526020016040518060600160405280602a8152602001611c00602a913981525081600481518110610a6f57610a6f611a0e565b602002602001018190525073__$307c3a572bdf5d9800a89b3fc2eb3d5604$__63964d13f06040518060400160405280856001600160a01b03168152602001848152506040518263ffffffff1660e01b8152600401610ace9190611a24565b60006040518083038186803b158015610ae657600080fd5b505af4158015610afa573d6000803e3d6000fd5b505050505050565b610b0a611431565b506040805160808101825260188183019081527f526567697374726172526567697374726174696f6e457874000000000000000060608301528152815180830190925260018252600060208381019190915281019190915290565b604051631f44527160e11b815260009073__$d81eab81c4f96e94de97b51155a369ac43$__90633e88a4e290610ba19086908690600401611ae7565b602060405180830381865af4158015610bbe573d6000803e3d6000fd5b505050506040513d601f19601f82011682018060405250810190610be29190611afb565b90505b92915050565b604051630bca13f760e41b815273__$d81eab81c4f96e94de97b51155a369ac43$__9063bca13f7090610c22908490600401611b47565b60006040518083038186803b158015610c3a57600080fd5b505af4158015610c4e573d6000803e3d6000fd5b5050505050565b604051630935e01b60e21b815233600482015260009073__$a5a42e46683ad9c79b7b86d5ff60fdf4c1$__906324d7806c90602401602060405180830381865af4158015610ca7573d6000803e3d6000fd5b505050506040513d601f19601f82011682018060405250810190610ccb9190611663565b610d175760405162461bcd60e51b815260206004820181905260248201527f466163746f72794578743a207265737472696374656420746f2061646d696e736044820152606401610254565b610d2760a0830160808401611692565b61ffff1615610db85760405162461bcd60e51b815260206004820152605160248201527f526567697374726172526567697374726174696f6e4578743a2067726163652060448201527f706572696f64206e6f7420616c6c6f77656420666f72206e6f6e2d72656d6f7660648201527030b13632903932b3b4b9ba3930ba34b7b760791b608482015260a401610254565b610dc86080830160608401611692565b61ffff1615610e5c5760405162461bcd60e51b815260206004820152605460248201527f526567697374726172526567697374726174696f6e4578743a20636f7665726160448201527f676520706572696f64206e6f7420616c6c6f77656420666f72206e6f6e2d726560648201527336b7bb30b13632903932b3b4b9ba3930ba34b7b760611b608482015260a401610254565b60a082013515610ee55760405162461bcd60e51b815260206004820152604860248201527f526567697374726172526567697374726174696f6e4578743a20666565206e6f60448201527f7420616c6c6f77656420666f72206e6f6e2d72656d6f7661626c65207265676960648201526739ba3930ba34b7b760c11b608482015260a401610254565b6040805160e081018252600060c082018181528252825160208181018552828252808401919091528351908101845281815292820192909252606081018290526080810182905260a0810182905290610f3c6112da565b8054909150600090610f56906001600160a01b0316611370565b90506001600160a01b038116610f7e5760405162461bcd60e51b8152600401610254906117e9565b60006040518060c00160405280876020016020810190610f9e9190611482565b6001600160a01b03168152602001306001600160a01b03168152602001306001600160a01b03168152602001878060400190610fda9190611723565b8080601f0160208091040260200160405190810160405280939291908181526020018383808284376000920191909152505050908252506020810186905260400161102860c0890189611723565b8080601f01602080910402602001604051908101604052809392919081815260200183838082843760009201919091525050509152506040516334d0850960e11b81529091506001600160a01b038316906369a10a129061108d908490600401611835565b600060405180830381600087803b1580156110a757600080fd5b505af11580156110bb573d6000803e3d6000fd5b5050505060006040518060600160405280846001600160a01b03168152602001886060018036038101906110ef91906116ad565b815260200186905260405163af2e5d0560e01b815290915073__$d81eab81c4f96e94de97b51155a369ac43$__9063af2e5d059061113190849060040161191e565b60006040518083038186803b15801561114957600080fd5b505af415801561115d573d6000803e3d6000fd5b5050505060003411156112015761117760208801886119f1565b156111ca5761118c6040880160208901611482565b6001600160a01b03166108fc349081150290604051600060405180830381858888f193505050501580156111c4573d6000803e3d6000fd5b50611201565b6040516001600160a01b038416903480156108fc02916000818181858888f193505050501580156111ff573d6000803e3d6000fd5b505b6112116040880160208901611482565b6001600160a01b0316836001600160a01b03167f7377123f9eb561d749cd3a89a83c22035cad6473521acbb981ee1c52d8f0248560405160405180910390a3509095945050505050565b60405163c3c5a54760e01b81526001600160a01b038216600482015260009073__$d81eab81c4f96e94de97b51155a369ac43$__9063c3c5a54790602401602060405180830381865af41580156112b6573d6000803e3d6000fd5b505050506040513d601f19601f82011682018060405250810190610be59190611663565b60408051808201909152601c81527f78722e656e746974792e666163746f72792e73746f726167652e76310000000060209091015260008060ff61133f60017f8b4ac7cd4466ab0d50fe53a88c5446ca4a450d482bef9ad792e7d9f451497e0f611bde565b60405160200161135191815260200190565b60408051601f1981840301815291905280516020909101201692915050565b60006001600160a01b0382166113e05760405162461bcd60e51b815260206004820152602f60248201527f4c6962436c6f6e653a20696d706c656d656e746174696f6e2063616e6e6f742060448201526e6265207a65726f206164647265737360881b6064820152608401610254565b60008260601b9050604051733d602d80600a3d3981f3363d3d373d3d3d363d7360601b81528160148201526e5af43d82803e903d91602b57fd5bf360881b60288201526037816000f0949350505050565b6040518060400160405280606081526020016114686040518060400160405280600061ffff168152602001600061ffff1681525090565b905290565b6001600160a01b03811681146100b157600080fd5b60006020828403121561149457600080fd5b813561149f8161146d565b9392505050565b6000602082840312156114b857600080fd5b813567ffffffffffffffff8111156114cf57600080fd5b8201610120818503121561149f57600080fd5b6000815180845260005b81811015611508576020818501810151868301820152016114ec565b506000602082860101526020601f19601f83011685010191505092915050565b60208152600082516060602084015261154460808401826114e2565b602094850151805161ffff90811660408701529501519094166060909301929092525090919050565b6000806020838503121561158057600080fd5b823567ffffffffffffffff8082111561159857600080fd5b818501915085601f8301126115ac57600080fd5b8135818111156115bb57600080fd5b8660208285010111156115cd57600080fd5b60209290920196919550909350505050565b6000602082840312156115f157600080fd5b813567ffffffffffffffff81111561160857600080fd5b820160c0818503121561149f57600080fd5b60006020828403121561162c57600080fd5b813567ffffffffffffffff81111561164357600080fd5b82016060818503121561149f57600080fd5b80151581146100b157600080fd5b60006020828403121561167557600080fd5b815161149f81611655565b803561ffff8116811461083557600080fd5b6000602082840312156116a457600080fd5b610be282611680565b6000606082840312156116bf57600080fd5b6040516060810181811067ffffffffffffffff821117156116f057634e487b7160e01b600052604160045260246000fd5b6040526116fc83611680565b815261170a60208401611680565b6020820152604083013560408201528091505092915050565b6000808335601e1984360301811261173a57600080fd5b83018035915067ffffffffffffffff82111561175557600080fd5b60200191503681900382131561176a57600080fd5b9250929050565b602080825282516001600160a01b0390811683830152838201511660408084019190915280840151805161ffff908116606086015292810151909216608084015281015160a083015260009050606083015160c0830152608083015160e0808401526117e16101008401826114e2565b949350505050565b6020808252602c908201527f526567697374726172526567697374726174696f6e3a20656e7469747920636c60408201526b1bdb9a5b99c819985a5b195960a21b606082015260800190565b60208152600060018060a01b0380845116602084015280602085015116604084015280604085015116606084015250606083015160c0608084015261187d60e08401826114e2565b90506080840151601f19808584030160a0860152815160c084526118a460c08501826114e2565b9050602083015184820360208601526118bd82826114e2565b915050604083015184820360408601526118d782826114e2565b915050606083015160608501526080830151608085015260a083015160a085015260a08701519350818682030160c087015261191381856114e2565b979650505050505050565b602080825282516001600160a01b031682820152820151600090611964604084018261ffff80825116835280602083015116602084015250604081015160408301525050565b50604083015160a080840152805160c0808501526119866101808501826114e2565b9050602082015160bf19808684030160e08701526119a483836114e2565b9250604084015191508086840301610100870152506119c382826114e2565b6060840151610120870152608084015161014087015260a09093015161016090950194909452509392505050565b600060208284031215611a0357600080fd5b813561149f81611655565b634e487b7160e01b600052603260045260246000fd5b602080825282516001600160a01b031682820152828101516040808401819052815160608501819052600093926080600583901b87018101939185019290870190865b81811015611ab057888603607f19018352845180516001600160e01b0319168752870151878701859052611a9d858801826114e2565b9650509386019391860191600101611a67565b509398975050505050505050565b81835281816020850137506000828201602090810191909152601f909101601f19169091010190565b6020815260006117e1602083018486611abe565b600060208284031215611b0d57600080fd5b815161149f8161146d565b61ffff80611b2583611680565b16835280611b3560208401611680565b16602084015250604090810135910152565b6020815260008235611b588161146d565b6001600160a01b031660208381019190915283013536849003601e19018112611b8057600080fd5b830160208101903567ffffffffffffffff811115611b9d57600080fd5b803603821315611bac57600080fd5b60c06040850152611bc160e085018284611abe565b9150506040840135606084015261149f6080840160608601611b18565b81810381811115610be557634e487b7160e01b600052601160045260246000fdfe63726561746552656d6f7661626c6552656769737472617228437265617465456e7469747941726773296368616e6765456e746974795465726d7328616464726573732c526567697374726174696f6e5465726d73296372656174655265676973747261724e6f52656d6f76616c28437265617465456e746974794172677329a2646970667358221220e9cc705a0d3e8a01f2597ca93558d1c41588f62126a6e17dda63ee6a751ba9b864736f6c63430008180033",
  "linkReferences": {
    "contracts/libraries/LibAccess.sol": {
      "LibAccess": [
        {
          "length": 20,
          "start": 663
        },
        {
          "length": 20,
          "start": 3213
        }
      ]
    },
    "contracts/libraries/LibExtensions.sol": {
      "LibExtensions": [
        {
          "length": 20,
          "start": 2716
        }
      ]
    },
    "contracts/libraries/LibRegistration.sol": {
      "LibRegistration": [
        {
          "length": 20,
          "start": 1160
        },
        {
          "length": 20,
          "start": 1797
        },
        {
          "length": 20,
          "start": 2967
        },
        {
          "length": 20,
          "start": 3098
        },
        {
          "length": 20,
          "start": 4393
        },
        {
          "length": 20,
          "start": 4764
        }
      ]
    }
  },
  "deployedLinkReferences": {
    "contracts/libraries/LibAccess.sol": {
      "LibAccess": [
        {
          "length": 20,
          "start": 631
        },
        {
          "length": 20,
          "start": 3181
        }
      ]
    },
    "contracts/libraries/LibExtensions.sol": {
      "LibExtensions": [
        {
          "length": 20,
          "start": 2684
        }
      ]
    },
    "contracts/libraries/LibRegistration.sol": {
      "LibRegistration": [
        {
          "length": 20,
          "start": 1128
        },
        {
          "length": 20,
          "start": 1765
        },
        {
          "length": 20,
          "start": 2935
        },
        {
          "length": 20,
          "start": 3066
        },
        {
          "length": 20,
          "start": 4361
        },
        {
          "length": 20,
          "start": 4732
        }
      ]
    }
  }
}