{
  "_format": "hh-sol-artifact-1",
  "contractName": "Registrar",
  "sourceName": "contracts/registrar/instance/Registrar.sol",
  "abi": [
    {
      "inputs": [
        {
          "components": [
            {
              "internalType": "address",
              "name": "registrarRegistry",
              "type": "address"
            },
            {
              "internalType": "address",
              "name": "worldRegistry",
              "type": "address"
            }
          ],
          "internalType": "struct RegistrarConstructorArgs",
          "name": "args",
          "type": "tuple"
        }
      ],
      "stateMutability": "nonpayable",
      "type": "constructor"
    },
    {
      "anonymous": false,
      "inputs": [
        {
          "indexed": true,
          "internalType": "address",
          "name": "by",
          "type": "address"
        },
        {
          "indexed": false,
          "internalType": "string",
          "name": "reason",
          "type": "string"
        }
      ],
      "name": "EntityDeactivated",
      "type": "event"
    },
    {
      "anonymous": false,
      "inputs": [
        {
          "indexed": true,
          "internalType": "address",
          "name": "by",
          "type": "address"
        }
      ],
      "name": "EntityReactivated",
      "type": "event"
    },
    {
      "anonymous": false,
      "inputs": [
        {
          "indexed": true,
          "internalType": "address",
          "name": "by",
          "type": "address"
        },
        {
          "indexed": false,
          "internalType": "string",
          "name": "reason",
          "type": "string"
        }
      ],
      "name": "EntityRemoved",
      "type": "event"
    },
    {
      "anonymous": false,
      "inputs": [
        {
          "indexed": true,
          "internalType": "address",
          "name": "world",
          "type": "address"
        },
        {
          "indexed": true,
          "internalType": "address",
          "name": "owner",
          "type": "address"
        }
      ],
      "name": "RegistrarAddedWorld",
      "type": "event"
    },
    {
      "anonymous": false,
      "inputs": [
        {
          "indexed": true,
          "internalType": "address",
          "name": "world",
          "type": "address"
        },
        {
          "indexed": false,
          "internalType": "string",
          "name": "reason",
          "type": "string"
        }
      ],
      "name": "RegistrarDeactivatedWorld",
      "type": "event"
    },
    {
      "anonymous": false,
      "inputs": [
        {
          "indexed": true,
          "internalType": "address",
          "name": "world",
          "type": "address"
        }
      ],
      "name": "RegistrarReactivatedWorld",
      "type": "event"
    },
    {
      "anonymous": false,
      "inputs": [
        {
          "indexed": true,
          "internalType": "address",
          "name": "world",
          "type": "address"
        },
        {
          "indexed": false,
          "internalType": "string",
          "name": "reason",
          "type": "string"
        }
      ],
      "name": "RegistrarRemovedWorld",
      "type": "event"
    },
    {
      "inputs": [
        {
          "internalType": "address[]",
          "name": "signers",
          "type": "address[]"
        }
      ],
      "name": "addSigners",
      "outputs": [],
      "stateMutability": "nonpayable",
      "type": "function"
    },
    {
      "inputs": [
        {
          "internalType": "address",
          "name": "newOwner",
          "type": "address"
        }
      ],
      "name": "changeOwner",
      "outputs": [],
      "stateMutability": "nonpayable",
      "type": "function"
    },
    {
      "inputs": [
        {
          "internalType": "string",
          "name": "reason",
          "type": "string"
        }
      ],
      "name": "deactivate",
      "outputs": [],
      "stateMutability": "nonpayable",
      "type": "function"
    },
    {
      "inputs": [
        {
          "internalType": "address",
          "name": "world",
          "type": "address"
        },
        {
          "internalType": "string",
          "name": "reason",
          "type": "string"
        }
      ],
      "name": "deactivateWorld",
      "outputs": [],
      "stateMutability": "nonpayable",
      "type": "function"
    },
    {
      "inputs": [
        {
          "internalType": "bytes32",
          "name": "role",
          "type": "bytes32"
        },
        {
          "internalType": "address",
          "name": "account",
          "type": "address"
        }
      ],
      "name": "grantRole",
      "outputs": [],
      "stateMutability": "nonpayable",
      "type": "function"
    },
    {
      "inputs": [
        {
          "internalType": "bytes32",
          "name": "role",
          "type": "bytes32"
        },
        {
          "internalType": "address",
          "name": "account",
          "type": "address"
        }
      ],
      "name": "hasRole",
      "outputs": [
        {
          "internalType": "bool",
          "name": "",
          "type": "bool"
        }
      ],
      "stateMutability": "view",
      "type": "function"
    },
    {
      "inputs": [
        {
          "internalType": "string",
          "name": "name",
          "type": "string"
        },
        {
          "internalType": "address",
          "name": "owner",
          "type": "address"
        },
        {
          "internalType": "bytes",
          "name": "",
          "type": "bytes"
        }
      ],
      "name": "init",
      "outputs": [],
      "stateMutability": "nonpayable",
      "type": "function"
    },
    {
      "inputs": [
        {
          "internalType": "address",
          "name": "account",
          "type": "address"
        }
      ],
      "name": "isAdmin",
      "outputs": [
        {
          "internalType": "bool",
          "name": "",
          "type": "bool"
        }
      ],
      "stateMutability": "view",
      "type": "function"
    },
    {
      "inputs": [],
      "name": "isEntityActive",
      "outputs": [
        {
          "internalType": "bool",
          "name": "",
          "type": "bool"
        }
      ],
      "stateMutability": "view",
      "type": "function"
    },
    {
      "inputs": [],
      "name": "isRemoved",
      "outputs": [
        {
          "internalType": "bool",
          "name": "",
          "type": "bool"
        }
      ],
      "stateMutability": "view",
      "type": "function"
    },
    {
      "inputs": [
        {
          "internalType": "address",
          "name": "account",
          "type": "address"
        }
      ],
      "name": "isSigner",
      "outputs": [
        {
          "internalType": "bool",
          "name": "",
          "type": "bool"
        }
      ],
      "stateMutability": "view",
      "type": "function"
    },
    {
      "inputs": [],
      "name": "isStillActive",
      "outputs": [
        {
          "internalType": "bool",
          "name": "",
          "type": "bool"
        }
      ],
      "stateMutability": "view",
      "type": "function"
    },
    {
      "inputs": [
        {
          "internalType": "address",
          "name": "a",
          "type": "address"
        }
      ],
      "name": "isTermsOwnerSigner",
      "outputs": [
        {
          "internalType": "bool",
          "name": "",
          "type": "bool"
        }
      ],
      "stateMutability": "view",
      "type": "function"
    },
    {
      "inputs": [],
      "name": "name",
      "outputs": [
        {
          "internalType": "string",
          "name": "",
          "type": "string"
        }
      ],
      "stateMutability": "view",
      "type": "function"
    },
    {
      "inputs": [],
      "name": "owner",
      "outputs": [
        {
          "internalType": "address",
          "name": "",
          "type": "address"
        }
      ],
      "stateMutability": "view",
      "type": "function"
    },
    {
      "inputs": [],
      "name": "reactivate",
      "outputs": [],
      "stateMutability": "nonpayable",
      "type": "function"
    },
    {
      "inputs": [
        {
          "internalType": "address",
          "name": "world",
          "type": "address"
        }
      ],
      "name": "reactivateWorld",
      "outputs": [],
      "stateMutability": "nonpayable",
      "type": "function"
    },
    {
      "inputs": [
        {
          "components": [
            {
              "internalType": "bool",
              "name": "sendTokensToOwner",
              "type": "bool"
            },
            {
              "internalType": "address",
              "name": "owner",
              "type": "address"
            },
            {
              "components": [
                {
                  "internalType": "string",
                  "name": "x",
                  "type": "string"
                },
                {
                  "internalType": "string",
                  "name": "y",
                  "type": "string"
                },
                {
                  "internalType": "string",
                  "name": "z",
                  "type": "string"
                },
                {
                  "internalType": "uint256",
                  "name": "t",
                  "type": "uint256"
                },
                {
                  "internalType": "uint256",
                  "name": "p",
                  "type": "uint256"
                },
                {
                  "internalType": "uint256",
                  "name": "p_sub",
                  "type": "uint256"
                }
              ],
              "internalType": "struct VectorAddress",
              "name": "baseVector",
              "type": "tuple"
            },
            {
              "internalType": "string",
              "name": "name",
              "type": "string"
            },
            {
              "components": [
                {
                  "internalType": "uint16",
                  "name": "coveragePeriodDays",
                  "type": "uint16"
                },
                {
                  "internalType": "uint16",
                  "name": "gracePeriodDays",
                  "type": "uint16"
                },
                {
                  "internalType": "uint256",
                  "name": "fee",
                  "type": "uint256"
                }
              ],
              "internalType": "struct RegistrationTerms",
              "name": "terms",
              "type": "tuple"
            },
            {
              "internalType": "bytes",
              "name": "ownerTermsSignature",
              "type": "bytes"
            },
            {
              "internalType": "uint256",
              "name": "expiration",
              "type": "uint256"
            },
            {
              "internalType": "bytes",
              "name": "vectorAuthoritySignature",
              "type": "bytes"
            },
            {
              "internalType": "bytes",
              "name": "initData",
              "type": "bytes"
            }
          ],
          "internalType": "struct NewWorldArgs",
          "name": "args",
          "type": "tuple"
        }
      ],
      "name": "registerWorld",
      "outputs": [
        {
          "internalType": "address",
          "name": "world",
          "type": "address"
        }
      ],
      "stateMutability": "payable",
      "type": "function"
    },
    {
      "inputs": [],
      "name": "registrarRegistry",
      "outputs": [
        {
          "internalType": "address",
          "name": "",
          "type": "address"
        }
      ],
      "stateMutability": "view",
      "type": "function"
    },
    {
      "inputs": [
        {
          "internalType": "string",
          "name": "reason",
          "type": "string"
        }
      ],
      "name": "remove",
      "outputs": [],
      "stateMutability": "nonpayable",
      "type": "function"
    },
    {
      "inputs": [
        {
          "internalType": "address[]",
          "name": "signers",
          "type": "address[]"
        }
      ],
      "name": "removeSigners",
      "outputs": [],
      "stateMutability": "nonpayable",
      "type": "function"
    },
    {
      "inputs": [
        {
          "internalType": "address",
          "name": "world",
          "type": "address"
        },
        {
          "internalType": "string",
          "name": "reason",
          "type": "string"
        }
      ],
      "name": "removeWorld",
      "outputs": [],
      "stateMutability": "nonpayable",
      "type": "function"
    },
    {
      "inputs": [
        {
          "internalType": "bytes32",
          "name": "role",
          "type": "bytes32"
        },
        {
          "internalType": "address",
          "name": "account",
          "type": "address"
        }
      ],
      "name": "revokeRole",
      "outputs": [],
      "stateMutability": "nonpayable",
      "type": "function"
    },
    {
      "inputs": [],
      "name": "termsOwner",
      "outputs": [
        {
          "internalType": "address",
          "name": "",
          "type": "address"
        }
      ],
      "stateMutability": "view",
      "type": "function"
    },
    {
      "inputs": [],
      "name": "version",
      "outputs": [
        {
          "components": [
            {
              "internalType": "uint16",
              "name": "major",
              "type": "uint16"
            },
            {
              "internalType": "uint16",
              "name": "minor",
              "type": "uint16"
            }
          ],
          "internalType": "struct Version",
          "name": "",
          "type": "tuple"
        }
      ],
      "stateMutability": "pure",
      "type": "function"
    },
    {
      "inputs": [],
      "name": "worldRegistry",
      "outputs": [
        {
          "internalType": "contract IWorldRegistry",
          "name": "",
          "type": "address"
        }
      ],
      "stateMutability": "view",
      "type": "function"
    },
    {
      "stateMutability": "payable",
      "type": "receive"
    }
  ],
  "bytecode": "0x60c06040523480156200001157600080fd5b506040516200206a3803806200206a833981016040819052620000349162000142565b80516001600160a01b03166200009f5760405162461bcd60e51b815260206004820152602560248201527f5265676973747261723a20496e76616c69642072656769737472617220726567604482015264697374727960d81b60648201526084015b60405180910390fd5b60208101516001600160a01b0316620001055760405162461bcd60e51b815260206004820152602160248201527f5265676973747261723a20496e76616c696420776f726c6420726567697374726044820152607960f81b606482015260840162000096565b80516001600160a01b039081166080526020909101511660a052620001b0565b80516001600160a01b03811681146200013d57600080fd5b919050565b6000604082840312156200015557600080fd5b604080519081016001600160401b03811182821017156200018657634e487b7160e01b600052604160045260246000fd5b604052620001948362000125565b8152620001a46020840162000125565b60208201529392505050565b60805160a051611e5c6200020e600039600081816103ec015281816105d201528181610a6801528181610b1c01526111750152600081816104950152818161075f015281816107fd01528181610be10152610fe00152611e5c6000f3fe6080604052600436106101855760003560e01c80637e6e1551116100d157806391d148541161008a578063d547741f11610064578063d547741f14610463578063dbdc4e6214610483578063df1b7c82146104b7578063e8906a2d146104d757600080fd5b806391d148541461040e578063a6f9dae11461042e578063d18611d61461044e57600080fd5b80637e6e15511461037057806380599e4b1461038557806386b70bed146102995780638d361e43146103a55780638da5cb5b146103c5578063911c2a8c146103da57600080fd5b80632f2ff15d1161013e57806369bd91941161011857806369bd9194146102fb5780636b676c56146103105780636e467f27146103305780637df73e271461035057600080fd5b80632f2ff15d146102795780634f05c1c81461029957806354fd4d50146102ae57600080fd5b806306fdde03146101915780630a7ee8a0146101bc57806317e3dd59146101ec57806324d7806c1461021757806327ee999d146102375780632e0dd9461461025957600080fd5b3661018c57005b600080fd5b34801561019d57600080fd5b506101a66104f7565b6040516101b391906113ae565b60405180910390f35b3480156101c857600080fd5b506101dc6101d73660046113e4565b61058f565b60405190151581526020016101b3565b6101ff6101fa366004611636565b6105a0565b6040516001600160a01b0390911681526020016101b3565b34801561022357600080fd5b506101dc6102323660046113e4565b6106d4565b34801561024357600080fd5b50610257610252366004611778565b610754565b005b34801561026557600080fd5b506102576102743660046117fe565b6107f2565b34801561028557600080fd5b50610257610294366004611883565b6108f5565b3480156102a557600080fd5b506101dc6109fb565b3480156102ba57600080fd5b50604080518082018252600080825260209182018190528251808401845260018082529083019182528351908152905161ffff1691810191909152016101b3565b34801561030757600080fd5b506101ff610a0e565b34801561031c57600080fd5b5061025761032b3660046118b3565b610a2d565b34801561033c57600080fd5b5061025761034b3660046113e4565b610ad8565b34801561035c57600080fd5b506101dc61036b3660046113e4565b610b7b565b34801561037c57600080fd5b506101dc610bbe565b34801561039157600080fd5b506102576103a0366004611778565b610bd6565b3480156103b157600080fd5b506102576103c0366004611908565b610cd8565b3480156103d157600080fd5b506101ff610da0565b3480156103e657600080fd5b506101ff7f000000000000000000000000000000000000000000000000000000000000000081565b34801561041a57600080fd5b506101dc610429366004611883565b610e14565b34801561043a57600080fd5b506102576104493660046113e4565b610ea1565b34801561045a57600080fd5b50610257610fd5565b34801561046f57600080fd5b5061025761047e366004611883565b611063565b34801561048f57600080fd5b506101ff7f000000000000000000000000000000000000000000000000000000000000000081565b3480156104c357600080fd5b506102576104d23660046118b3565b611139565b3480156104e357600080fd5b506102576104f2366004611908565b6111ae565b6060610501611276565b805461050c9061197d565b80601f01602080910402602001604051908101604052809291908181526020018280546105389061197d565b80156105855780601f1061055a57610100808354040283529160200191610585565b820191906000526020600020905b81548152906001019060200180831161056857829003601f168201915b5050505050905090565b600061059a82610b7b565b92915050565b60006105ab33610b7b565b6105d05760405162461bcd60e51b81526004016105c7906119b7565b60405180910390fd5b7f00000000000000000000000000000000000000000000000000000000000000006001600160a01b0316636ccc41933460405180610120016040528086600001511515815260200186602001516001600160a01b031681526020018660c00151815260200186608001518152602001866040015181526020018660600151815260200186610100015181526020018660a0015181526020018660e001518152506040518363ffffffff1660e01b815260040161068c9190611a58565b60206040518083038185885af11580156106aa573d6000803e3d6000fd5b50505050506040513d601f19601f8201168201806040525081019061059a9190611b5a565b919050565b604051630935e01b60e21b81526001600160a01b038216600482015260009073__$a5a42e46683ad9c79b7b86d5ff60fdf4c1$__906324d7806c906024015b602060405180830381865af4158015610730573d6000803e3d6000fd5b505050506040513d601f19601f8201168201806040525081019061059a9190611b77565b336001600160a01b037f0000000000000000000000000000000000000000000000000000000000000000161461079c5760405162461bcd60e51b81526004016105c790611b94565b60006107a6611303565b805460ff191691151591909117905560405133907f246589c99dd263c9b64a2b544e24074c282ca479ba3d2a0e649f9eeaca1e2d62906107e79084906113ae565b60405180910390a250565b336001600160a01b037f0000000000000000000000000000000000000000000000000000000000000000161461083a5760405162461bcd60e51b81526004016105c790611b94565b8484610844611276565b91610850919083611c26565b50600061085b611303565b805462010000330261ff01600160b01b03199091161760011781556040805160008152602081019182905263d9ac971f60e01b90915290915073__$a5a42e46683ad9c79b7b86d5ff60fdf4c1$__63d9ac971f6108bc878460248101611ce6565b60006040518083038186803b1580156108d457600080fd5b505af41580156108e8573d6000803e3d6000fd5b5050505050505050505050565b604051630935e01b60e21b815233600482015273__$a5a42e46683ad9c79b7b86d5ff60fdf4c1$__906324d7806c90602401602060405180830381865af4158015610944573d6000803e3d6000fd5b505050506040513d601f19601f820116820180604052508101906109689190611b77565b6109845760405162461bcd60e51b81526004016105c790611d42565b604051632f2ff15d60e01b8152600481018390526001600160a01b038216602482015273__$a5a42e46683ad9c79b7b86d5ff60fdf4c1$__90632f2ff15d906044015b60006040518083038186803b1580156109df57600080fd5b505af41580156109f3573d6000803e3d6000fd5b505050505050565b6000610a05611303565b5460ff16919050565b6000610a18611303565b546201000090046001600160a01b0316919050565b610a3633610b7b565b610a525760405162461bcd60e51b81526004016105c7906119b7565b6040516219d2db60e51b81526001600160a01b037f0000000000000000000000000000000000000000000000000000000000000000169063033a5b6090610aa190869086908690600401611d77565b600060405180830381600087803b158015610abb57600080fd5b505af1158015610acf573d6000803e3d6000fd5b50505050505050565b610ae133610b7b565b610afd5760405162461bcd60e51b81526004016105c7906119b7565b60405163349e3cd960e11b81526001600160a01b0382811660048301527f0000000000000000000000000000000000000000000000000000000000000000169063693c79b290602401600060405180830381600087803b158015610b6057600080fd5b505af1158015610b74573d6000803e3d6000fd5b5050505050565b604051637df73e2760e01b81526001600160a01b038216600482015260009073__$a5a42e46683ad9c79b7b86d5ff60fdf4c1$__90637df73e2790602401610713565b6000610bc8611303565b54610100900460ff16919050565b336001600160a01b037f00000000000000000000000000000000000000000000000000000000000000001614610c1e5760405162461bcd60e51b81526004016105c790611b94565b610c26611303565b5460ff1615610c865760405162461bcd60e51b815260206004820152602660248201527f52656d6f7661626c65456e746974793a206d757374206465616374697661746560448201526508199a5c9cdd60d21b60648201526084016105c7565b6001610c90611303565b80549115156101000261ff001990921691909117905560405133907fbf430175840309fcb4cce13557429998477f9f95733cb0d42c170af8aa225d06906107e79084906113ae565b604051630935e01b60e21b815233600482015273__$a5a42e46683ad9c79b7b86d5ff60fdf4c1$__906324d7806c90602401602060405180830381865af4158015610d27573d6000803e3d6000fd5b505050506040513d601f19601f82011682018060405250810190610d4b9190611b77565b610d675760405162461bcd60e51b81526004016105c790611d42565b604051638d361e4360e01b815273__$a5a42e46683ad9c79b7b86d5ff60fdf4c1$__90638d361e43906109c79085908590600401611db7565b600073__$a5a42e46683ad9c79b7b86d5ff60fdf4c1$__638da5cb5b6040518163ffffffff1660e01b8152600401602060405180830381865af4158015610deb573d6000803e3d6000fd5b505050506040513d601f19601f82011682018060405250810190610e0f9190611b5a565b905090565b604051632474521560e21b8152600481018390526001600160a01b038216602482015260009073__$a5a42e46683ad9c79b7b86d5ff60fdf4c1$__906391d1485490604401602060405180830381865af4158015610e76573d6000803e3d6000fd5b505050506040513d601f19601f82011682018060405250810190610e9a9190611b77565b9392505050565b336001600160a01b031673__$a5a42e46683ad9c79b7b86d5ff60fdf4c1$__638da5cb5b6040518163ffffffff1660e01b8152600401602060405180830381865af4158015610ef4573d6000803e3d6000fd5b505050506040513d601f19601f82011682018060405250810190610f189190611b5a565b6001600160a01b031614610f6e5760405162461bcd60e51b815260206004820152601f60248201527f426173654163636573733a207265737472696374656420746f206f776e65720060448201526064016105c7565b6040516313af403560e01b81526001600160a01b038216600482015273__$a5a42e46683ad9c79b7b86d5ff60fdf4c1$__906313af40359060240160006040518083038186803b158015610fc157600080fd5b505af4158015610b74573d6000803e3d6000fd5b336001600160a01b037f0000000000000000000000000000000000000000000000000000000000000000161461101d5760405162461bcd60e51b81526004016105c790611b94565b6001611027611303565b805460ff191691151591909117905560405133907f54ca6a4cb143be493713a7079cc0d6cdbbf0688ee68398b4354b056088f2cbf590600090a2565b604051630935e01b60e21b815233600482015273__$a5a42e46683ad9c79b7b86d5ff60fdf4c1$__906324d7806c90602401602060405180830381865af41580156110b2573d6000803e3d6000fd5b505050506040513d601f19601f820116820180604052508101906110d69190611b77565b6110f25760405162461bcd60e51b81526004016105c790611d42565b60405163d547741f60e01b8152600481018390526001600160a01b038216602482015273__$a5a42e46683ad9c79b7b86d5ff60fdf4c1$__9063d547741f906044016109c7565b61114233610b7b565b61115e5760405162461bcd60e51b81526004016105c7906119b7565b60405163af08d53d60e01b81526001600160a01b037f0000000000000000000000000000000000000000000000000000000000000000169063af08d53d90610aa190869086908690600401611d77565b604051630935e01b60e21b815233600482015273__$a5a42e46683ad9c79b7b86d5ff60fdf4c1$__906324d7806c90602401602060405180830381865af41580156111fd573d6000803e3d6000fd5b505050506040513d601f19601f820116820180604052508101906112219190611b77565b61123d5760405162461bcd60e51b81526004016105c790611d42565b60405163e8906a2d60e01b815273__$a5a42e46683ad9c79b7b86d5ff60fdf4c1$__9063e8906a2d906109c79085908590600401611db7565b60408051808201909152601481527378722e656e746974792e73746f726167652e763160601b60209091015260008060ff6112d260017fdefc82a28b6578c2a63b29b15450260a5e998242a6300b7fcb30814ee74ae188611e05565b6040516020016112e491815260200190565b60408051601f1981840301815291905280516020909101201692915050565b60408051808201909152601881527f78722e61637469766174696f6e2e73746f726167652e7631000000000000000060209091015260008060ff6112d260017ff6611e962a52dbc98dd0485088d920890c43e26113c61976f6e171a29d49ce49611e05565b6000815180845260005b8181101561138e57602081850181015186830182015201611372565b506000602082860101526020601f19601f83011685010191505092915050565b602081526000610e9a6020830184611368565b6001600160a01b03811681146113d657600080fd5b50565b80356106cf816113c1565b6000602082840312156113f657600080fd5b8135610e9a816113c1565b634e487b7160e01b600052604160045260246000fd5b60405160c0810167ffffffffffffffff8111828210171561143a5761143a611401565b60405290565b604051610120810167ffffffffffffffff8111828210171561143a5761143a611401565b80151581146113d657600080fd5b80356106cf81611464565b600082601f83011261148e57600080fd5b813567ffffffffffffffff808211156114a9576114a9611401565b604051601f8301601f19908116603f011681019082821181831017156114d1576114d1611401565b816040528381528660208588010111156114ea57600080fd5b836020870160208301376000602085830101528094505050505092915050565b600060c0828403121561151c57600080fd5b611524611417565b9050813567ffffffffffffffff8082111561153e57600080fd5b61154a8583860161147d565b8352602084013591508082111561156057600080fd5b61156c8583860161147d565b6020840152604084013591508082111561158557600080fd5b506115928482850161147d565b604083015250606082013560608201526080820135608082015260a082013560a082015292915050565b803561ffff811681146106cf57600080fd5b6000606082840312156115e057600080fd5b6040516060810181811067ffffffffffffffff8211171561160357611603611401565b604052905080611612836115bc565b8152611620602084016115bc565b6020820152604083013560408201525092915050565b60006020828403121561164857600080fd5b813567ffffffffffffffff8082111561166057600080fd5b90830190610160828603121561167557600080fd5b61167d611440565b61168683611472565b8152611694602084016113d9565b60208201526040830135828111156116ab57600080fd5b6116b78782860161150a565b6040830152506060830135828111156116cf57600080fd5b6116db8782860161147d565b6060830152506116ee86608085016115ce565b608082015260e08301358281111561170557600080fd5b6117118782860161147d565b60a0830152506101008084013560c08301526101208401358381111561173657600080fd5b6117428882870161147d565b60e0840152506101408401358381111561175b57600080fd5b6117678882870161147d565b918301919091525095945050505050565b60006020828403121561178a57600080fd5b813567ffffffffffffffff8111156117a157600080fd5b6117ad8482850161147d565b949350505050565b60008083601f8401126117c757600080fd5b50813567ffffffffffffffff8111156117df57600080fd5b6020830191508360208285010111156117f757600080fd5b9250929050565b60008060008060006060868803121561181657600080fd5b853567ffffffffffffffff8082111561182e57600080fd5b61183a89838a016117b5565b90975095506020880135915061184f826113c1565b9093506040870135908082111561186557600080fd5b50611872888289016117b5565b969995985093965092949392505050565b6000806040838503121561189657600080fd5b8235915060208301356118a8816113c1565b809150509250929050565b6000806000604084860312156118c857600080fd5b83356118d3816113c1565b9250602084013567ffffffffffffffff8111156118ef57600080fd5b6118fb868287016117b5565b9497909650939450505050565b6000806020838503121561191b57600080fd5b823567ffffffffffffffff8082111561193357600080fd5b818501915085601f83011261194757600080fd5b81358181111561195657600080fd5b8660208260051b850101111561196b57600080fd5b60209290920196919550909350505050565b600181811c9082168061199157607f821691505b6020821081036119b157634e487b7160e01b600052602260045260246000fd5b50919050565b602080825260149082015273456e746974793a206f6e6c79207369676e65727360601b604082015260600190565b6000815160c084526119fa60c0850182611368565b905060208301518482036020860152611a138282611368565b91505060408301518482036040860152611a2d8282611368565b915050606083015160608501526080830151608085015260a083015160a08501528091505092915050565b60208152611a6b60208201835115159052565b60006020830151611a8760408401826001600160a01b03169052565b50604083810151606084810191909152840151805161ffff908116608086015260208201511660a08501529081015160c08401525060808301516101608060e0850152611ad86101808501836119e5565b915060a0850151601f19610100818786030181880152611af88584611368565b945060c088015192508187860301610120880152611b168584611368565b945060e088015192508187860301610140880152611b348584611368565b908801518782039092018488015293509050611b508382611368565b9695505050505050565b600060208284031215611b6c57600080fd5b8151610e9a816113c1565b600060208284031215611b8957600080fd5b8151610e9a81611464565b60208082526025908201527f52656d6f7661626c65456e746974793a206f6e6c79206f776e696e6720726567604082015264697374727960d81b606082015260800190565b601f821115611c21576000816000526020600020601f850160051c81016020861015611c025750805b601f850160051c820191505b818110156109f357828155600101611c0e565b505050565b67ffffffffffffffff831115611c3e57611c3e611401565b611c5283611c4c835461197d565b83611bd9565b6000601f841160018114611c865760008515611c6e5750838201355b600019600387901b1c1916600186901b178355610b74565b600083815260209020601f19861690835b82811015611cb75786850135825560209485019460019092019101611c97565b5086821015611cd45760001960f88860031b161c19848701351681555b505060018560011b0183555050505050565b6001600160a01b038381168252604060208084018290528451918401829052600092858201929091906060860190855b81811015611d34578551851683529483019491830191600101611d16565b509098975050505050505050565b6020808252818101527f426173654163636573733a207265737472696374656420746f2061646d696e73604082015260600190565b6001600160a01b03841681526040602082018190528101829052818360608301376000818301606090810191909152601f909201601f1916010192915050565b60208082528181018390526000908460408401835b86811015611dfa578235611ddf816113c1565b6001600160a01b031682529183019190830190600101611dcc565b509695505050505050565b8181038181111561059a57634e487b7160e01b600052601160045260246000fdfea26469706673582212201b69128a7bded4171d5558aad6e6980b00ea00af23c97b7a6a5249e8820de2c564736f6c63430008180033",
  "linkReferences": {
    "contracts/libraries/LibAccess.sol": {
      "LibAccess": [
        {
          "length": 20,
          "start": 2307
        },
        {
          "length": 20,
          "start": 2724
        },
        {
          "length": 20,
          "start": 2840
        },
        {
          "length": 20,
          "start": 2999
        },
        {
          "length": 20,
          "start": 3498
        },
        {
          "length": 20,
          "start": 3835
        },
        {
          "length": 20,
          "start": 3972
        },
        {
          "length": 20,
          "start": 4018
        },
        {
          "length": 20,
          "start": 4170
        },
        {
          "length": 20,
          "start": 4283
        },
        {
          "length": 20,
          "start": 4506
        },
        {
          "length": 20,
          "start": 4742
        },
        {
          "length": 20,
          "start": 4901
        },
        {
          "length": 20,
          "start": 5073
        },
        {
          "length": 20,
          "start": 5210
        }
      ]
    }
  },
  "deployedLinkReferences": {
    "contracts/libraries/LibAccess.sol": {
      "LibAccess": [
        {
          "length": 20,
          "start": 1781
        },
        {
          "length": 20,
          "start": 2198
        },
        {
          "length": 20,
          "start": 2314
        },
        {
          "length": 20,
          "start": 2473
        },
        {
          "length": 20,
          "start": 2972
        },
        {
          "length": 20,
          "start": 3309
        },
        {
          "length": 20,
          "start": 3446
        },
        {
          "length": 20,
          "start": 3492
        },
        {
          "length": 20,
          "start": 3644
        },
        {
          "length": 20,
          "start": 3757
        },
        {
          "length": 20,
          "start": 3980
        },
        {
          "length": 20,
          "start": 4216
        },
        {
          "length": 20,
          "start": 4375
        },
        {
          "length": 20,
          "start": 4547
        },
        {
          "length": 20,
          "start": 4684
        }
      ]
    }
  }
}