{
  "_format": "hh-sol-artifact-1",
  "contractName": "RegistrarRegistrationExt",
  "sourceName": "contracts/extensions/registry/registrar/RegistrarRegistrationExt.sol",
  "abi": [
    {
      "inputs": [
        {
          "internalType": "uint256",
          "name": "value",
          "type": "uint256"
        },
        {
          "internalType": "uint256",
          "name": "length",
          "type": "uint256"
        }
      ],
      "name": "StringsInsufficientHexLength",
      "type": "error"
    },
    {
      "anonymous": false,
      "inputs": [
        {
          "indexed": true,
          "internalType": "address",
          "name": "entity",
          "type": "address"
        },
        {
          "indexed": true,
          "internalType": "address",
          "name": "owner",
          "type": "address"
        }
      ],
      "name": "RegistryAddedEntity",
      "type": "event"
    },
    {
      "anonymous": false,
      "inputs": [
        {
          "indexed": true,
          "internalType": "address",
          "name": "old",
          "type": "address"
        },
        {
          "indexed": false,
          "internalType": "address",
          "name": "newVersion",
          "type": "address"
        }
      ],
      "name": "RegistryUpgradedEntity",
      "type": "event"
    },
    {
      "inputs": [
        {
          "components": [
            {
              "internalType": "address",
              "name": "entity",
              "type": "address"
            },
            {
              "internalType": "bytes",
              "name": "entitySignature",
              "type": "bytes"
            },
            {
              "internalType": "uint256",
              "name": "expiration",
              "type": "uint256"
            },
            {
              "components": [
                {
                  "internalType": "uint16",
                  "name": "coveragePeriodDays",
                  "type": "uint16"
                },
                {
                  "internalType": "uint16",
                  "name": "gracePeriodDays",
                  "type": "uint16"
                },
                {
                  "internalType": "uint256",
                  "name": "fee",
                  "type": "uint256"
                }
              ],
              "internalType": "struct RegistrationTerms",
              "name": "terms",
              "type": "tuple"
            }
          ],
          "internalType": "struct ChangeEntityTermsArgs",
          "name": "args",
          "type": "tuple"
        }
      ],
      "name": "changeEntityTerms",
      "outputs": [],
      "stateMutability": "nonpayable",
      "type": "function"
    },
    {
      "inputs": [
        {
          "components": [
            {
              "internalType": "bool",
              "name": "sendTokensToOwner",
              "type": "bool"
            },
            {
              "internalType": "address",
              "name": "owner",
              "type": "address"
            },
            {
              "internalType": "string",
              "name": "name",
              "type": "string"
            },
            {
              "components": [
                {
                  "internalType": "uint16",
                  "name": "coveragePeriodDays",
                  "type": "uint16"
                },
                {
                  "internalType": "uint16",
                  "name": "gracePeriodDays",
                  "type": "uint16"
                },
                {
                  "internalType": "uint256",
                  "name": "fee",
                  "type": "uint256"
                }
              ],
              "internalType": "struct RegistrationTerms",
              "name": "terms",
              "type": "tuple"
            },
            {
              "internalType": "bytes",
              "name": "initData",
              "type": "bytes"
            },
            {
              "internalType": "bytes",
              "name": "ownerTermsSignature",
              "type": "bytes"
            },
            {
              "internalType": "uint256",
              "name": "expiration",
              "type": "uint256"
            }
          ],
          "internalType": "struct CreateEntityArgs",
          "name": "args",
          "type": "tuple"
        }
      ],
      "name": "createRegistrarNoRemoval",
      "outputs": [
        {
          "internalType": "address",
          "name": "",
          "type": "address"
        }
      ],
      "stateMutability": "payable",
      "type": "function"
    },
    {
      "inputs": [
        {
          "components": [
            {
              "internalType": "bool",
              "name": "sendTokensToOwner",
              "type": "bool"
            },
            {
              "internalType": "address",
              "name": "owner",
              "type": "address"
            },
            {
              "internalType": "string",
              "name": "name",
              "type": "string"
            },
            {
              "components": [
                {
                  "internalType": "uint16",
                  "name": "coveragePeriodDays",
                  "type": "uint16"
                },
                {
                  "internalType": "uint16",
                  "name": "gracePeriodDays",
                  "type": "uint16"
                },
                {
                  "internalType": "uint256",
                  "name": "fee",
                  "type": "uint256"
                }
              ],
              "internalType": "struct RegistrationTerms",
              "name": "terms",
              "type": "tuple"
            },
            {
              "internalType": "bytes",
              "name": "initData",
              "type": "bytes"
            },
            {
              "internalType": "bytes",
              "name": "ownerTermsSignature",
              "type": "bytes"
            },
            {
              "internalType": "uint256",
              "name": "expiration",
              "type": "uint256"
            }
          ],
          "internalType": "struct CreateEntityArgs",
          "name": "args",
          "type": "tuple"
        }
      ],
      "name": "createRemovableRegistrar",
      "outputs": [
        {
          "internalType": "address",
          "name": "",
          "type": "address"
        }
      ],
      "stateMutability": "payable",
      "type": "function"
    },
    {
      "inputs": [
        {
          "internalType": "string",
          "name": "name",
          "type": "string"
        }
      ],
      "name": "getEntityByName",
      "outputs": [
        {
          "internalType": "address",
          "name": "",
          "type": "address"
        }
      ],
      "stateMutability": "view",
      "type": "function"
    },
    {
      "inputs": [
        {
          "components": [
            {
              "internalType": "string",
              "name": "x",
              "type": "string"
            },
            {
              "internalType": "string",
              "name": "y",
              "type": "string"
            },
            {
              "internalType": "string",
              "name": "z",
              "type": "string"
            },
            {
              "internalType": "uint256",
              "name": "t",
              "type": "uint256"
            },
            {
              "internalType": "uint256",
              "name": "p",
              "type": "uint256"
            },
            {
              "internalType": "uint256",
              "name": "p_sub",
              "type": "uint256"
            }
          ],
          "internalType": "struct VectorAddress",
          "name": "vector",
          "type": "tuple"
        }
      ],
      "name": "getEntityByVector",
      "outputs": [
        {
          "internalType": "address",
          "name": "",
          "type": "address"
        }
      ],
      "stateMutability": "view",
      "type": "function"
    },
    {
      "inputs": [
        {
          "components": [
            {
              "internalType": "address",
              "name": "owner",
              "type": "address"
            },
            {
              "internalType": "address",
              "name": "owningRegistry",
              "type": "address"
            },
            {
              "internalType": "address[]",
              "name": "admins",
              "type": "address[]"
            }
          ],
          "internalType": "struct ExtensionInitArgs",
          "name": "args",
          "type": "tuple"
        }
      ],
      "name": "initStorage",
      "outputs": [],
      "stateMutability": "nonpayable",
      "type": "function"
    },
    {
      "inputs": [
        {
          "internalType": "address",
          "name": "myAddress",
          "type": "address"
        }
      ],
      "name": "install",
      "outputs": [],
      "stateMutability": "nonpayable",
      "type": "function"
    },
    {
      "inputs": [
        {
          "internalType": "address",
          "name": "addr",
          "type": "address"
        }
      ],
      "name": "isRegistered",
      "outputs": [
        {
          "internalType": "bool",
          "name": "",
          "type": "bool"
        }
      ],
      "stateMutability": "view",
      "type": "function"
    },
    {
      "inputs": [],
      "name": "metadata",
      "outputs": [
        {
          "components": [
            {
              "internalType": "string",
              "name": "name",
              "type": "string"
            },
            {
              "components": [
                {
                  "internalType": "uint16",
                  "name": "major",
                  "type": "uint16"
                },
                {
                  "internalType": "uint16",
                  "name": "minor",
                  "type": "uint16"
                }
              ],
              "internalType": "struct Version",
              "name": "version",
              "type": "tuple"
            }
          ],
          "internalType": "struct ExtensionMetadata",
          "name": "",
          "type": "tuple"
        }
      ],
      "stateMutability": "pure",
      "type": "function"
    },
    {
      "inputs": [],
      "name": "register",
      "outputs": [],
      "stateMutability": "nonpayable",
      "type": "function"
    },
    {
      "inputs": [
        {
          "internalType": "address",
          "name": "myAddress",
          "type": "address"
        }
      ],
      "name": "upgrade",
      "outputs": [],
      "stateMutability": "nonpayable",
      "type": "function"
    }
  ],
  "bytecode": "0x608060405234801561001057600080fd5b506122be806100206000396000f3fe60806040526004361061009c5760003560e01c80633e88a4e2116100645780633e88a4e2146101485780634d4965f314610168578063729963c014610188578063974a48cb146101a3578063c3c5a547146101b6578063c747e47e146101e657600080fd5b80630900f010146100a15780631aa3a008146100c1578063299944ab146100d65780632a1b8f9b14610106578063392f37e914610126575b600080fd5b3480156100ad57600080fd5b506100bf6100bc366004611883565b50565b005b3480156100cd57600080fd5b506100bf610206565b6100e96100e43660046118a7565b61028a565b6040516001600160a01b0390911681526020015b60405180910390f35b34801561011257600080fd5b506100bf610121366004611883565b610865565b34801561013257600080fd5b5061013b610acf565b6040516100fd9190611933565b34801561015457600080fd5b506100e9610163366004611978565b610b32565b34801561017457600080fd5b506100bf610183366004611a02565b610bb8565b34801561019457600080fd5b506100bf6100bc366004611a37565b6100e96101b13660046118a7565b610c22565b3480156101c257600080fd5b506101d66101d1366004611883565b611228565b60405190151581526020016100fd565b3480156101f257600080fd5b506100e9610201366004611a02565b6112a7565b61020f33611228565b610288576040805162461bcd60e51b81526020600482015260248101919091527f526567697374726174696f6e4578743a206f6e6c79207265676973746572656460448201527f20656e7469746965732063616e2063616c6c20746869732066756e6374696f6e60648201526084015b60405180910390fd5b565b604051630935e01b60e21b815233600482015260009073__$a5a42e46683ad9c79b7b86d5ff60fdf4c1$__906324d7806c90602401602060405180830381865af41580156102dc573d6000803e3d6000fd5b505050506040513d601f19601f820116820180604052508101906103009190611a80565b61034c5760405162461bcd60e51b815260206004820181905260248201527f466163746f72794578743a207265737472696374656420746f2061646d696e73604482015260640161027f565b600061035e60a0840160808501611aaf565b61ffff16116103e85760405162461bcd60e51b815260206004820152604a60248201527f526567697374726172526567697374726174696f6e4578743a2067726163652060448201527f706572696f6420726571756972656420666f722072656d6f7661626c6520726560648201526933b4b9ba3930ba34b7b760b11b608482015260a40161027f565b60006040518060a001604052808460200160208101906104089190611883565b6001600160a01b0316815230602082015260400161042e36869003860160608701611ae0565b8152610100850135602082015260400161044b60e0860186611b56565b8080601f016020809104026020016040519081016040528093929190818152602001838380828437600092019190915250505091525060405163bf52415b60e01b815290915073__$d81eab81c4f96e94de97b51155a369ac43$__9063bf52415b906104bb908490600401611ba4565b60006040518083038186803b1580156104d357600080fd5b505af41580156104e7573d6000803e3d6000fd5b50506040805160e081018252600060c082018181528252825160208181018552828252808401919091528351908101845281815292820192909252606081018290526080810182905260a0810182905292509050610543611322565b805490915060009061055d906001600160a01b03166113b8565b90506001600160a01b0381166105855760405162461bcd60e51b815260040161027f90611c14565b60006040518060c001604052808860200160208101906105a59190611883565b6001600160a01b03168152602001306001600160a01b03168152602001306001600160a01b031681526020018880604001906105e19190611b56565b8080601f0160208091040260200160405190810160405280939291908181526020018383808284376000920191909152505050908252506020810186905260400161062f60c08a018a611b56565b8080601f01602080910402602001604051908101604052809392919081815260200183838082843760009201919091525050509152506040516334d0850960e11b81529091506001600160a01b038316906369a10a1290610694908490600401611c60565b600060405180830381600087803b1580156106ae57600080fd5b505af11580156106c2573d6000803e3d6000fd5b5050505060006040518060600160405280846001600160a01b03168152602001896060018036038101906106f69190611ae0565b815260200186905260405163474df87960e01b815290915073__$d81eab81c4f96e94de97b51155a369ac43$__9063474df87990610738908490600401611d49565b60006040518083038186803b15801561075057600080fd5b505af4158015610764573d6000803e3d6000fd5b5050505060003411156108085761077e6020890189611e1c565b156107d1576107936040890160208a01611883565b6001600160a01b03166108fc349081150290604051600060405180830381858888f193505050501580156107cb573d6000803e3d6000fd5b50610808565b6040516001600160a01b038416903480156108fc02916000818181858888f19350505050158015610806573d6000803e3d6000fd5b505b6108186040890160208a01611883565b6001600160a01b0316836001600160a01b03167f7377123f9eb561d749cd3a89a83c22035cad6473521acbb981ee1c52d8f0248560405160405180910390a350909450505050505b919050565b60408051600580825260c08201909252600091816020015b60408051808201909152600081526060602082015281526020019060019003908161087d5790505090506040518060400160405280633e88a4e260e01b6001600160e01b03191681526020016040518060400160405280601781526020017f676574456e7469747942794e616d6528737472696e67290000000000000000008152508152508160008151811061091557610915611e39565b60200260200101819052506040518060400160405280634d4965f360e01b6001600160e01b03191681526020016040518060600160405280602c8152602001612233602c91398152508160018151811061097157610971611e39565b6020026020010181905250604051806040016040528063c3c5a54760e01b6001600160e01b03191681526020016040518060400160405280601581526020017469735265676973746572656428616464726573732960581b815250815250816002815181106109e2576109e2611e39565b6020026020010181905250604051806040016040528063974a48cb60e01b6001600160e01b03191681526020016040518060600160405280602a815260200161225f602a913981525081600381518110610a3e57610a3e611e39565b6020026020010181905250604051806040016040528063299944ab60e01b6001600160e01b03191681526020016040518060600160405280602a8152602001612209602a913981525081600481518110610a9a57610a9a611e39565b6020026020010181905250610acb6040518060400160405280846001600160a01b0316815260200183815250611479565b5050565b610ad7611832565b506040805160808101825260188183019081527f526567697374726172526567697374726174696f6e457874000000000000000060608301528152815180830190925260018252600060208381019190915281019190915290565b604051631f44527160e11b815260009073__$d81eab81c4f96e94de97b51155a369ac43$__90633e88a4e290610b6e9086908690600401611e78565b602060405180830381865af4158015610b8b573d6000803e3d6000fd5b505050506040513d601f19601f82011682018060405250810190610baf9190611e8c565b90505b92915050565b604051630bca13f760e41b815273__$d81eab81c4f96e94de97b51155a369ac43$__9063bca13f7090610bef908490600401611eef565b60006040518083038186803b158015610c0757600080fd5b505af4158015610c1b573d6000803e3d6000fd5b5050505050565b604051630935e01b60e21b815233600482015260009073__$a5a42e46683ad9c79b7b86d5ff60fdf4c1$__906324d7806c90602401602060405180830381865af4158015610c74573d6000803e3d6000fd5b505050506040513d601f19601f82011682018060405250810190610c989190611a80565b610ce45760405162461bcd60e51b815260206004820181905260248201527f466163746f72794578743a207265737472696374656420746f2061646d696e73604482015260640161027f565b610cf460a0830160808401611aaf565b61ffff1615610d855760405162461bcd60e51b815260206004820152605160248201527f526567697374726172526567697374726174696f6e4578743a2067726163652060448201527f706572696f64206e6f7420616c6c6f77656420666f72206e6f6e2d72656d6f7660648201527030b13632903932b3b4b9ba3930ba34b7b760791b608482015260a40161027f565b610d956080830160608401611aaf565b61ffff1615610e295760405162461bcd60e51b815260206004820152605460248201527f526567697374726172526567697374726174696f6e4578743a20636f7665726160448201527f676520706572696f64206e6f7420616c6c6f77656420666f72206e6f6e2d726560648201527336b7bb30b13632903932b3b4b9ba3930ba34b7b760611b608482015260a40161027f565b60a082013515610eb25760405162461bcd60e51b815260206004820152604860248201527f526567697374726172526567697374726174696f6e4578743a20666565206e6f60448201527f7420616c6c6f77656420666f72206e6f6e2d72656d6f7661626c65207265676960648201526739ba3930ba34b7b760c11b608482015260a40161027f565b6040805160e081018252600060c082018181528252825160208181018552828252808401919091528351908101845281815292820192909252606081018290526080810182905260a0810182905290610f09611322565b8054909150600090610f23906001600160a01b03166113b8565b90506001600160a01b038116610f4b5760405162461bcd60e51b815260040161027f90611c14565b60006040518060c00160405280876020016020810190610f6b9190611883565b6001600160a01b03168152602001306001600160a01b03168152602001306001600160a01b03168152602001878060400190610fa79190611b56565b8080601f01602080910402602001604051908101604052809392919081815260200183838082843760009201919091525050509082525060208101869052604001610ff560c0890189611b56565b8080601f01602080910402602001604051908101604052809392919081815260200183838082843760009201919091525050509152506040516334d0850960e11b81529091506001600160a01b038316906369a10a129061105a908490600401611c60565b600060405180830381600087803b15801561107457600080fd5b505af1158015611088573d6000803e3d6000fd5b5050505060006040518060600160405280846001600160a01b03168152602001886060018036038101906110bc9190611ae0565b815260200186905260405163af2e5d0560e01b815290915073__$d81eab81c4f96e94de97b51155a369ac43$__9063af2e5d05906110fe908490600401611d49565b60006040518083038186803b15801561111657600080fd5b505af415801561112a573d6000803e3d6000fd5b5050505060003411156111ce576111446020880188611e1c565b15611197576111596040880160208901611883565b6001600160a01b03166108fc349081150290604051600060405180830381858888f19350505050158015611191573d6000803e3d6000fd5b506111ce565b6040516001600160a01b038416903480156108fc02916000818181858888f193505050501580156111cc573d6000803e3d6000fd5b505b6111de6040880160208901611883565b6001600160a01b0316836001600160a01b03167f7377123f9eb561d749cd3a89a83c22035cad6473521acbb981ee1c52d8f0248560405160405180910390a3509095945050505050565b60405163c3c5a54760e01b81526001600160a01b038216600482015260009073__$d81eab81c4f96e94de97b51155a369ac43$__9063c3c5a54790602401602060405180830381865af4158015611283573d6000803e3d6000fd5b505050506040513d601f19601f82011682018060405250810190610bb29190611a80565b6040516332ef671360e21b815260009073__$d81eab81c4f96e94de97b51155a369ac43$__9063cbbd9c4c906112e1908590600401611f7e565b602060405180830381865af41580156112fe573d6000803e3d6000fd5b505050506040513d601f19601f82011682018060405250810190610bb29190611e8c565b60408051808201909152601c81527f78722e656e746974792e666163746f72792e73746f726167652e76310000000060209091015260008060ff61138760017f8b4ac7cd4466ab0d50fe53a88c5446ca4a450d482bef9ad792e7d9f451497e0f612036565b60405160200161139991815260200190565b60408051601f1981840301815291905280516020909101201692915050565b60006001600160a01b0382166114285760405162461bcd60e51b815260206004820152602f60248201527f4c6962436c6f6e653a20696d706c656d656e746174696f6e2063616e6e6f742060448201526e6265207a65726f206164647265737360881b606482015260840161027f565b60008260601b9050604051733d602d80600a3d3981f3363d3d373d3d3d363d7360601b81528160148201526e5af43d82803e903d91602b57fd5bf360881b60288201526037816000f0949350505050565b600061148361163c565b82516001600160a01b031660009081526020829052604081209192505b836020015151811015611636576000846020015182815181106114c5576114c5611e39565b6020908102919091018101518051600486810180546001808201835560009283528683206008830401805463ffffffff600790941690950261010090810a9384021990951660e09690961c9290920294909417905583516001600160e01b0319168152918801909352604090208054919350916001600160a01b03910416156115be57805461010090046001600160a01b0316600090815260208690526040812087519091906001870190611579906116a1565b6020808701516040516115939493926001880191016120e6565b60405160208183030381529060405290508060405162461bcd60e51b815260040161027f91906121b4565b50604080518082018252600180825287516001600160a01b03908116602080850191825295516001600160e01b0319166000908152898401909652939094209151825493516001600160a81b0319909416901515610100600160a81b03191617610100939094169290920292909217909155016114a0565b50505050565b60408051808201909152601881527f78722e657874656e73696f6e732e73746f726167652e7631000000000000000060209091015260008060ff61138760017fb58ec9ca7ba0606d9fecd9f559655d0e5fec418e6751b65b892bccdfd25eb99f612036565b6060610bb26001600160a01b038316601460608260006116c28460026121c7565b6116cd9060026121de565b67ffffffffffffffff8111156116e5576116e5611aca565b6040519080825280601f01601f19166020018201604052801561170f576020820181803683370190505b509050600360fc1b8160008151811061172a5761172a611e39565b60200101906001600160f81b031916908160001a905350600f60fb1b8160018151811061175957611759611e39565b60200101906001600160f81b031916908160001a905350600061177d8560026121c7565b6117889060016121de565b90505b6001811115611800576f181899199a1a9b1b9c1cb0b131b232b360811b83600f16601081106117bc576117bc611e39565b1a60f81b8282815181106117d2576117d2611e39565b60200101906001600160f81b031916908160001a90535060049290921c916117f9816121f1565b905061178b565b50811561182a5760405163e22e27eb60e01b8152600481018690526024810185905260440161027f565b949350505050565b6040518060400160405280606081526020016118696040518060400160405280600061ffff168152602001600061ffff1681525090565b905290565b6001600160a01b03811681146100bc57600080fd5b60006020828403121561189557600080fd5b81356118a08161186e565b9392505050565b6000602082840312156118b957600080fd5b813567ffffffffffffffff8111156118d057600080fd5b820161012081850312156118a057600080fd5b60005b838110156118fe5781810151838201526020016118e6565b50506000910152565b6000815180845261191f8160208601602086016118e3565b601f01601f19169290920160200192915050565b60208152600082516060602084015261194f6080840182611907565b602094850151805161ffff90811660408701529501519094166060909301929092525090919050565b6000806020838503121561198b57600080fd5b823567ffffffffffffffff808211156119a357600080fd5b818501915085601f8301126119b757600080fd5b8135818111156119c657600080fd5b8660208285010111156119d857600080fd5b60209290920196919550909350505050565b600060c082840312156119fc57600080fd5b50919050565b600060208284031215611a1457600080fd5b813567ffffffffffffffff811115611a2b57600080fd5b61182a848285016119ea565b600060208284031215611a4957600080fd5b813567ffffffffffffffff811115611a6057600080fd5b8201606081850312156118a057600080fd5b80151581146100bc57600080fd5b600060208284031215611a9257600080fd5b81516118a081611a72565b803561ffff8116811461086057600080fd5b600060208284031215611ac157600080fd5b610baf82611a9d565b634e487b7160e01b600052604160045260246000fd5b600060608284031215611af257600080fd5b6040516060810181811067ffffffffffffffff82111715611b2357634e487b7160e01b600052604160045260246000fd5b604052611b2f83611a9d565b8152611b3d60208401611a9d565b6020820152604083013560408201528091505092915050565b6000808335601e19843603018112611b6d57600080fd5b83018035915067ffffffffffffffff821115611b8857600080fd5b602001915036819003821315611b9d57600080fd5b9250929050565b602080825282516001600160a01b0390811683830152838201511660408084019190915280840151805161ffff908116606086015292810151909216608084015281015160a083015260009050606083015160c0830152608083015160e08084015261182a610100840182611907565b6020808252602c908201527f526567697374726172526567697374726174696f6e3a20656e7469747920636c60408201526b1bdb9a5b99c819985a5b195960a21b606082015260800190565b60208152600060018060a01b0380845116602084015280602085015116604084015280604085015116606084015250606083015160c06080840152611ca860e0840182611907565b90506080840151601f19808584030160a0860152815160c08452611ccf60c0850182611907565b905060208301518482036020860152611ce88282611907565b91505060408301518482036040860152611d028282611907565b915050606083015160608501526080830151608085015260a083015160a085015260a08701519350818682030160c0870152611d3e8185611907565b979650505050505050565b602080825282516001600160a01b031682820152820151600090611d8f604084018261ffff80825116835280602083015116602084015250604081015160408301525050565b50604083015160a080840152805160c080850152611db1610180850182611907565b9050602082015160bf19808684030160e0870152611dcf8383611907565b925060408401519150808684030161010087015250611dee8282611907565b6060840151610120870152608084015161014087015260a09093015161016090950194909452509392505050565b600060208284031215611e2e57600080fd5b81356118a081611a72565b634e487b7160e01b600052603260045260246000fd5b81835281816020850137506000828201602090810191909152601f909101601f19169091010190565b60208152600061182a602083018486611e4f565b600060208284031215611e9e57600080fd5b81516118a08161186e565b6000808335601e19843603018112611ec057600080fd5b830160208101925035905067ffffffffffffffff811115611ee057600080fd5b803603821315611b9d57600080fd5b6020815260008235611f008161186e565b6001600160a01b0316602083810191909152611f1e90840184611ea9565b60c06040850152611f3360e085018284611e4f565b9150506040840135606084015261ffff80611f5060608701611a9d565b16608085015280611f6360808701611a9d565b1660a08501525060a084013560c08401528091505092915050565b602081526000611f8e8384611ea9565b60c06020850152611fa360e085018284611e4f565b915050611fb36020850185611ea9565b601f1980868503016040870152611fcb848385611e4f565b9350611fda6040880188611ea9565b935091508086850301606087015250611ff4838383611e4f565b9250505060608401356080840152608084013560a084015260a084013560c08401528091505092915050565b634e487b7160e01b600052601160045260246000fd5b81810381811115610bb257610bb2612020565b8054600090600181811c908083168061206357607f831692505b6020808410820361208457634e487b7160e01b600052602260045260246000fd5b81801561209857600181146120ad576120da565b60ff19861689528415158502890196506120da565b60008881526020902060005b868110156120d25781548b8201529085019083016120b9565b505084890196505b50505050505092915050565b7f4c6962457874656e73696f6e3a20657874656e73696f6e200000000000000000815260006121186018830187612049565b6c01030ba1030b2323932b9b99d1609d1b8152855161213e81600d840160208a016118e3565b7f20617474656d7074696e6720746f20726575736520612073656c6563746f7200600d9290910191820152845161217c81602c8401602089016118e3565b7f20616c7265616479207265676973746572656420627920000000000000000000602c9290910191820152611d3e6043820185612049565b602081526000610baf6020830184611907565b8082028115828204841417610bb257610bb2612020565b80820180821115610bb257610bb2612020565b60008161220057612200612020565b50600019019056fe63726561746552656d6f7661626c6552656769737472617228437265617465456e7469747941726773296368616e6765456e746974795465726d7328616464726573732c526567697374726174696f6e5465726d73296372656174655265676973747261724e6f52656d6f76616c28437265617465456e746974794172677329a2646970667358221220d79ba896e5b100d3c0e561d430ba31f17ed4df3f8fa2efe4fd4b9217684a819664736f6c63430008180033",
  "linkReferences": {
    "contracts/libraries/LibAccess.sol": {
      "LibAccess": [
        {
          "length": 20,
          "start": 706
        },
        {
          "length": 20,
          "start": 3162
        }
      ]
    },
    "contracts/libraries/LibRegistration.sol": {
      "LibRegistration": [
        {
          "length": 20,
          "start": 1203
        },
        {
          "length": 20,
          "start": 1840
        },
        {
          "length": 20,
          "start": 2916
        },
        {
          "length": 20,
          "start": 3047
        },
        {
          "length": 20,
          "start": 4342
        },
        {
          "length": 20,
          "start": 4713
        },
        {
          "length": 20,
          "start": 4825
        }
      ]
    }
  },
  "deployedLinkReferences": {
    "contracts/libraries/LibAccess.sol": {
      "LibAccess": [
        {
          "length": 20,
          "start": 674
        },
        {
          "length": 20,
          "start": 3130
        }
      ]
    },
    "contracts/libraries/LibRegistration.sol": {
      "LibRegistration": [
        {
          "length": 20,
          "start": 1171
        },
        {
          "length": 20,
          "start": 1808
        },
        {
          "length": 20,
          "start": 2884
        },
        {
          "length": 20,
          "start": 3015
        },
        {
          "length": 20,
          "start": 4310
        },
        {
          "length": 20,
          "start": 4681
        },
        {
          "length": 20,
          "start": 4793
        }
      ]
    }
  }
}