{
  "_format": "hh-sol-artifact-1",
  "contractName": "Registrar",
  "sourceName": "contracts/registrar/instance/Registrar.sol",
  "abi": [
    {
      "inputs": [
        {
          "components": [
            {
              "internalType": "address",
              "name": "registrarRegistry",
              "type": "address"
            },
            {
              "internalType": "address",
              "name": "worldRegistry",
              "type": "address"
            }
          ],
          "internalType": "struct RegistrarConstructorArgs",
          "name": "args",
          "type": "tuple"
        }
      ],
      "stateMutability": "nonpayable",
      "type": "constructor"
    },
    {
      "inputs": [],
      "name": "ReentrancyGuardReentrantCall",
      "type": "error"
    },
    {
      "anonymous": false,
      "inputs": [
        {
          "indexed": true,
          "internalType": "address",
          "name": "by",
          "type": "address"
        },
        {
          "indexed": false,
          "internalType": "string",
          "name": "reason",
          "type": "string"
        }
      ],
      "name": "EntityDeactivated",
      "type": "event"
    },
    {
      "anonymous": false,
      "inputs": [
        {
          "indexed": true,
          "internalType": "address",
          "name": "by",
          "type": "address"
        }
      ],
      "name": "EntityReactivated",
      "type": "event"
    },
    {
      "anonymous": false,
      "inputs": [
        {
          "indexed": true,
          "internalType": "address",
          "name": "by",
          "type": "address"
        },
        {
          "indexed": false,
          "internalType": "string",
          "name": "reason",
          "type": "string"
        }
      ],
      "name": "EntityRemoved",
      "type": "event"
    },
    {
      "anonymous": false,
      "inputs": [
        {
          "indexed": true,
          "internalType": "address",
          "name": "world",
          "type": "address"
        },
        {
          "indexed": true,
          "internalType": "address",
          "name": "owner",
          "type": "address"
        }
      ],
      "name": "RegistrarAddedWorld",
      "type": "event"
    },
    {
      "anonymous": false,
      "inputs": [
        {
          "indexed": true,
          "internalType": "address",
          "name": "world",
          "type": "address"
        },
        {
          "indexed": false,
          "internalType": "string",
          "name": "reason",
          "type": "string"
        }
      ],
      "name": "RegistrarDeactivatedWorld",
      "type": "event"
    },
    {
      "anonymous": false,
      "inputs": [
        {
          "indexed": true,
          "internalType": "address",
          "name": "world",
          "type": "address"
        }
      ],
      "name": "RegistrarReactivatedWorld",
      "type": "event"
    },
    {
      "anonymous": false,
      "inputs": [
        {
          "indexed": true,
          "internalType": "address",
          "name": "world",
          "type": "address"
        },
        {
          "indexed": false,
          "internalType": "string",
          "name": "reason",
          "type": "string"
        }
      ],
      "name": "RegistrarRemovedWorld",
      "type": "event"
    },
    {
      "inputs": [
        {
          "internalType": "address[]",
          "name": "signers",
          "type": "address[]"
        }
      ],
      "name": "addSigners",
      "outputs": [],
      "stateMutability": "nonpayable",
      "type": "function"
    },
    {
      "inputs": [
        {
          "internalType": "address",
          "name": "newOwner",
          "type": "address"
        }
      ],
      "name": "changeOwner",
      "outputs": [],
      "stateMutability": "nonpayable",
      "type": "function"
    },
    {
      "inputs": [
        {
          "internalType": "string",
          "name": "reason",
          "type": "string"
        }
      ],
      "name": "deactivate",
      "outputs": [],
      "stateMutability": "nonpayable",
      "type": "function"
    },
    {
      "inputs": [
        {
          "internalType": "address",
          "name": "world",
          "type": "address"
        },
        {
          "internalType": "string",
          "name": "reason",
          "type": "string"
        }
      ],
      "name": "deactivateWorld",
      "outputs": [],
      "stateMutability": "nonpayable",
      "type": "function"
    },
    {
      "inputs": [
        {
          "internalType": "bytes32",
          "name": "role",
          "type": "bytes32"
        },
        {
          "internalType": "address",
          "name": "account",
          "type": "address"
        }
      ],
      "name": "grantRole",
      "outputs": [],
      "stateMutability": "nonpayable",
      "type": "function"
    },
    {
      "inputs": [
        {
          "internalType": "bytes32",
          "name": "role",
          "type": "bytes32"
        },
        {
          "internalType": "address",
          "name": "account",
          "type": "address"
        }
      ],
      "name": "hasRole",
      "outputs": [
        {
          "internalType": "bool",
          "name": "",
          "type": "bool"
        }
      ],
      "stateMutability": "view",
      "type": "function"
    },
    {
      "inputs": [
        {
          "internalType": "string",
          "name": "_name",
          "type": "string"
        },
        {
          "internalType": "address",
          "name": "_owner",
          "type": "address"
        },
        {
          "internalType": "bytes",
          "name": "",
          "type": "bytes"
        }
      ],
      "name": "init",
      "outputs": [],
      "stateMutability": "nonpayable",
      "type": "function"
    },
    {
      "inputs": [
        {
          "internalType": "address",
          "name": "account",
          "type": "address"
        }
      ],
      "name": "isAdmin",
      "outputs": [
        {
          "internalType": "bool",
          "name": "",
          "type": "bool"
        }
      ],
      "stateMutability": "view",
      "type": "function"
    },
    {
      "inputs": [],
      "name": "isEntityActive",
      "outputs": [
        {
          "internalType": "bool",
          "name": "",
          "type": "bool"
        }
      ],
      "stateMutability": "view",
      "type": "function"
    },
    {
      "inputs": [],
      "name": "isRemoved",
      "outputs": [
        {
          "internalType": "bool",
          "name": "",
          "type": "bool"
        }
      ],
      "stateMutability": "view",
      "type": "function"
    },
    {
      "inputs": [
        {
          "internalType": "address",
          "name": "account",
          "type": "address"
        }
      ],
      "name": "isSigner",
      "outputs": [
        {
          "internalType": "bool",
          "name": "",
          "type": "bool"
        }
      ],
      "stateMutability": "view",
      "type": "function"
    },
    {
      "inputs": [],
      "name": "isStillActive",
      "outputs": [
        {
          "internalType": "bool",
          "name": "",
          "type": "bool"
        }
      ],
      "stateMutability": "view",
      "type": "function"
    },
    {
      "inputs": [
        {
          "internalType": "address",
          "name": "a",
          "type": "address"
        }
      ],
      "name": "isTermsOwnerSigner",
      "outputs": [
        {
          "internalType": "bool",
          "name": "",
          "type": "bool"
        }
      ],
      "stateMutability": "view",
      "type": "function"
    },
    {
      "inputs": [],
      "name": "name",
      "outputs": [
        {
          "internalType": "string",
          "name": "",
          "type": "string"
        }
      ],
      "stateMutability": "view",
      "type": "function"
    },
    {
      "inputs": [],
      "name": "owner",
      "outputs": [
        {
          "internalType": "address",
          "name": "",
          "type": "address"
        }
      ],
      "stateMutability": "view",
      "type": "function"
    },
    {
      "inputs": [
        {
          "internalType": "bytes",
          "name": "",
          "type": "bytes"
        }
      ],
      "name": "postUpgradeInit",
      "outputs": [],
      "stateMutability": "nonpayable",
      "type": "function"
    },
    {
      "inputs": [],
      "name": "reactivate",
      "outputs": [],
      "stateMutability": "nonpayable",
      "type": "function"
    },
    {
      "inputs": [
        {
          "internalType": "address",
          "name": "world",
          "type": "address"
        }
      ],
      "name": "reactivateWorld",
      "outputs": [],
      "stateMutability": "nonpayable",
      "type": "function"
    },
    {
      "inputs": [
        {
          "components": [
            {
              "internalType": "bool",
              "name": "sendTokensToOwner",
              "type": "bool"
            },
            {
              "internalType": "address",
              "name": "owner",
              "type": "address"
            },
            {
              "components": [
                {
                  "internalType": "string",
                  "name": "x",
                  "type": "string"
                },
                {
                  "internalType": "string",
                  "name": "y",
                  "type": "string"
                },
                {
                  "internalType": "string",
                  "name": "z",
                  "type": "string"
                },
                {
                  "internalType": "uint256",
                  "name": "t",
                  "type": "uint256"
                },
                {
                  "internalType": "uint256",
                  "name": "p",
                  "type": "uint256"
                },
                {
                  "internalType": "uint256",
                  "name": "p_sub",
                  "type": "uint256"
                }
              ],
              "internalType": "struct VectorAddress",
              "name": "baseVector",
              "type": "tuple"
            },
            {
              "internalType": "string",
              "name": "name",
              "type": "string"
            },
            {
              "components": [
                {
                  "internalType": "uint16",
                  "name": "coveragePeriodDays",
                  "type": "uint16"
                },
                {
                  "internalType": "uint16",
                  "name": "gracePeriodDays",
                  "type": "uint16"
                },
                {
                  "internalType": "uint256",
                  "name": "fee",
                  "type": "uint256"
                }
              ],
              "internalType": "struct RegistrationTerms",
              "name": "terms",
              "type": "tuple"
            },
            {
              "internalType": "bytes",
              "name": "ownerTermsSignature",
              "type": "bytes"
            },
            {
              "internalType": "uint256",
              "name": "expiration",
              "type": "uint256"
            },
            {
              "internalType": "bytes",
              "name": "vectorAuthoritySignature",
              "type": "bytes"
            },
            {
              "internalType": "bytes",
              "name": "initData",
              "type": "bytes"
            }
          ],
          "internalType": "struct NewWorldArgs",
          "name": "args",
          "type": "tuple"
        }
      ],
      "name": "registerWorld",
      "outputs": [
        {
          "internalType": "address",
          "name": "world",
          "type": "address"
        }
      ],
      "stateMutability": "payable",
      "type": "function"
    },
    {
      "inputs": [],
      "name": "registrarRegistry",
      "outputs": [
        {
          "internalType": "contract IRegistrarRegistry",
          "name": "",
          "type": "address"
        }
      ],
      "stateMutability": "view",
      "type": "function"
    },
    {
      "inputs": [
        {
          "internalType": "string",
          "name": "reason",
          "type": "string"
        }
      ],
      "name": "remove",
      "outputs": [],
      "stateMutability": "nonpayable",
      "type": "function"
    },
    {
      "inputs": [
        {
          "internalType": "address[]",
          "name": "signers",
          "type": "address[]"
        }
      ],
      "name": "removeSigners",
      "outputs": [],
      "stateMutability": "nonpayable",
      "type": "function"
    },
    {
      "inputs": [
        {
          "internalType": "address",
          "name": "world",
          "type": "address"
        },
        {
          "internalType": "string",
          "name": "reason",
          "type": "string"
        }
      ],
      "name": "removeWorld",
      "outputs": [],
      "stateMutability": "nonpayable",
      "type": "function"
    },
    {
      "inputs": [
        {
          "internalType": "bytes32",
          "name": "role",
          "type": "bytes32"
        },
        {
          "internalType": "address",
          "name": "account",
          "type": "address"
        }
      ],
      "name": "revokeRole",
      "outputs": [],
      "stateMutability": "nonpayable",
      "type": "function"
    },
    {
      "inputs": [],
      "name": "termsOwner",
      "outputs": [
        {
          "internalType": "address",
          "name": "",
          "type": "address"
        }
      ],
      "stateMutability": "view",
      "type": "function"
    },
    {
      "inputs": [
        {
          "internalType": "bytes",
          "name": "initData",
          "type": "bytes"
        }
      ],
      "name": "upgrade",
      "outputs": [],
      "stateMutability": "nonpayable",
      "type": "function"
    },
    {
      "inputs": [],
      "name": "version",
      "outputs": [
        {
          "components": [
            {
              "internalType": "uint16",
              "name": "major",
              "type": "uint16"
            },
            {
              "internalType": "uint16",
              "name": "minor",
              "type": "uint16"
            }
          ],
          "internalType": "struct Version",
          "name": "",
          "type": "tuple"
        }
      ],
      "stateMutability": "pure",
      "type": "function"
    },
    {
      "inputs": [
        {
          "internalType": "uint256",
          "name": "amount",
          "type": "uint256"
        }
      ],
      "name": "withdraw",
      "outputs": [],
      "stateMutability": "nonpayable",
      "type": "function"
    },
    {
      "inputs": [],
      "name": "worldRegistry",
      "outputs": [
        {
          "internalType": "contract IWorldRegistry",
          "name": "",
          "type": "address"
        }
      ],
      "stateMutability": "view",
      "type": "function"
    },
    {
      "stateMutability": "payable",
      "type": "receive"
    }
  ],
  "bytecode": "0x60c06040523480156200001157600080fd5b506040516200246538038062002465833981016040819052620000349162000147565b600160005580516001600160a01b0316620000a45760405162461bcd60e51b815260206004820152602560248201527f5265676973747261723a20496e76616c69642072656769737472617220726567604482015264697374727960d81b60648201526084015b60405180910390fd5b60208101516001600160a01b03166200010a5760405162461bcd60e51b815260206004820152602160248201527f5265676973747261723a20496e76616c696420776f726c6420726567697374726044820152607960f81b60648201526084016200009b565b80516001600160a01b039081166080526020909101511660a052620001b5565b80516001600160a01b03811681146200014257600080fd5b919050565b6000604082840312156200015a57600080fd5b604080519081016001600160401b03811182821017156200018b57634e487b7160e01b600052604160045260246000fd5b60405262000199836200012a565b8152620001a9602084016200012a565b60208201529392505050565b60805160a051612244620002216000396000818161046d0152818161067b01528181610dbd01528181610e8301526113f401526000818161051601528181610929015281816109a101528181610a4201528181610f5201528181611257015261143801526122446000f3fe6080604052600436106101c65760003560e01c80637df73e27116100f757806391d1485411610095578063dbdc4e6211610064578063dbdc4e6214610504578063df1b7c8214610538578063e20eea0f14610558578063e8906a2d1461057857600080fd5b806391d148541461048f578063a6f9dae1146104af578063d18611d6146104cf578063d547741f146104e457600080fd5b806386b70bed116100d157806386b70bed1461031a5780638d361e43146104265780638da5cb5b14610446578063911c2a8c1461045b57600080fd5b80637df73e27146103d15780637e6e1551146103f157806380599e4b1461040657600080fd5b80632e1a7d4d1161016457806354fd4d501161013e57806354fd4d501461032f57806369bd91941461037c5780636b676c56146103915780636e467f27146103b157600080fd5b80632e1a7d4d146102da5780632f2ff15d146102fa5780634f05c1c81461031a57600080fd5b806324d7806c116101a057806324d7806c14610258578063253946451461027857806327ee999d1461029a5780632e0dd946146102ba57600080fd5b806306fdde03146101d25780630a7ee8a0146101fd57806317e3dd591461022d57600080fd5b366101cd57005b600080fd5b3480156101de57600080fd5b506101e7610598565b6040516101f49190611716565b60405180910390f35b34801561020957600080fd5b5061021d610218366004611749565b610630565b60405190151581526020016101f4565b61024061023b36600461199b565b610641565b6040516001600160a01b0390911681526020016101f4565b34801561026457600080fd5b5061021d610273366004611749565b610863565b34801561028457600080fd5b50610298610293366004611b26565b6108e3565b005b3480156102a657600080fd5b506102986102b5366004611b26565b610996565b3480156102c657600080fd5b506102986102d5366004611b68565b610a37565b3480156102e657600080fd5b506102986102f5366004611bed565b610b87565b34801561030657600080fd5b50610298610315366004611c06565b610c4a565b34801561032657600080fd5b5061021d610d48565b34801561033b57600080fd5b50604080518082018252600080825260209182018190528251808401845260018082529083019182528351908152905161ffff1691810191909152016101f4565b34801561038857600080fd5b50610240610d5b565b34801561039d57600080fd5b506102986103ac366004611c36565b610d7a565b3480156103bd57600080fd5b506102986103cc366004611749565b610e37565b3480156103dd57600080fd5b5061021d6103ec366004611749565b610eec565b3480156103fd57600080fd5b5061021d610f2f565b34801561041257600080fd5b50610298610421366004611b26565b610f47565b34801561043257600080fd5b50610298610441366004611c8b565b61104b565b34801561045257600080fd5b50610240611113565b34801561046757600080fd5b506102407f000000000000000000000000000000000000000000000000000000000000000081565b34801561049b57600080fd5b5061021d6104aa366004611c06565b611122565b3480156104bb57600080fd5b506102986104ca366004611749565b6111af565b3480156104db57600080fd5b5061029861124c565b3480156104f057600080fd5b506102986104ff366004611c06565b6112da565b34801561051057600080fd5b506102407f000000000000000000000000000000000000000000000000000000000000000081565b34801561054457600080fd5b50610298610553366004611c36565b6113b0565b34801561056457600080fd5b50610298610573366004611b26565b61142d565b34801561058457600080fd5b50610298610593366004611c8b565b611475565b60606105a261153d565b80546105ad90611d00565b80601f01602080910402602001604051908101604052809291908181526020018280546105d990611d00565b80156106265780601f106105fb57610100808354040283529160200191610626565b820191906000526020600020905b81548152906001019060200180831161060957829003601f168201915b5050505050905090565b600061063b82610eec565b92915050565b600061064c33610eec565b6106715760405162461bcd60e51b815260040161066890611d3a565b60405180910390fd5b6106796115ca565b7f00000000000000000000000000000000000000000000000000000000000000006001600160a01b0316636ccc419360405180610120016040528085600001511515815260200185602001516001600160a01b031681526020018560c00151815260200185608001518152602001856040015181526020018560600151815260200185610100015181526020018560a0015181526020018560e001518152506040518263ffffffff1660e01b81526004016107349190611ddb565b6020604051808303816000875af1158015610753573d6000803e3d6000fd5b505050506040513d601f19601f820116820180604052508101906107779190611edd565b90506001600160a01b0381166107cf5760405162461bcd60e51b815260206004820181905260248201527f5265676973747261723a20776f726c64206372656174696f6e206661696c65646044820152606401610668565b34156108545781511561081d5760208201516040516001600160a01b03909116903480156108fc02916000818181858888f19350505050158015610817573d6000803e3d6000fd5b50610854565b6040516001600160a01b038216903480156108fc02916000818181858888f19350505050158015610852573d6000803e3d6000fd5b505b61085e6001600055565b919050565b604051630935e01b60e21b81526001600160a01b038216600482015260009073__$a5a42e46683ad9c79b7b86d5ff60fdf4c1$__906324d7806c906024015b602060405180830381865af41580156108bf573d6000803e3d6000fd5b505050506040513d601f19601f8201168201806040525081019061063b9190611efa565b336108ec6115f4565b6001600160a01b0316146109125760405162461bcd60e51b815260040161066890611f17565b60405163c625e0ad60e01b81526001600160a01b037f0000000000000000000000000000000000000000000000000000000000000000169063c625e0ad906109609085908590600401611f77565b600060405180830381600087803b15801561097a57600080fd5b505af115801561098e573d6000803e3d6000fd5b505050505050565b336001600160a01b037f000000000000000000000000000000000000000000000000000000000000000016146109de5760405162461bcd60e51b815260040161066890611f93565b60006109e861160f565b805460ff191691151591909117905560405133907f246589c99dd263c9b64a2b544e24074c282ca479ba3d2a0e649f9eeaca1e2d6290610a2b9085908590611f77565b60405180910390a25050565b336001600160a01b037f00000000000000000000000000000000000000000000000000000000000000001614610a7f5760405162461bcd60e51b815260040161066890611f93565b83610acc5760405162461bcd60e51b815260206004820152601860248201527f5265676973747261723a206e616d6520726571756972656400000000000000006044820152606401610668565b8484610ad661153d565b91610ae2919083612020565b506000610aed61160f565b805462010000330261ff01600160b01b03199091161760011781556040805160008152602081019182905263d9ac971f60e01b90915290915073__$a5a42e46683ad9c79b7b86d5ff60fdf4c1$__63d9ac971f610b4e8784602481016120e0565b60006040518083038186803b158015610b6657600080fd5b505af4158015610b7a573d6000803e3d6000fd5b5050505050505050505050565b33610b906115f4565b6001600160a01b031614610bb65760405162461bcd60e51b815260040161066890611f17565b47811115610c065760405162461bcd60e51b815260206004820152601f60248201527f5265676973747261723a20696e73756666696369656e742062616c616e6365006044820152606401610668565b610c0e611113565b6001600160a01b03166108fc829081150290604051600060405180830381858888f19350505050158015610c46573d6000803e3d6000fd5b5050565b604051630935e01b60e21b815233600482015273__$a5a42e46683ad9c79b7b86d5ff60fdf4c1$__906324d7806c90602401602060405180830381865af4158015610c99573d6000803e3d6000fd5b505050506040513d601f19601f82011682018060405250810190610cbd9190611efa565b610cd95760405162461bcd60e51b81526004016106689061213c565b604051632f2ff15d60e01b8152600481018390526001600160a01b038216602482015273__$a5a42e46683ad9c79b7b86d5ff60fdf4c1$__90632f2ff15d906044015b60006040518083038186803b158015610d3457600080fd5b505af415801561098e573d6000803e3d6000fd5b6000610d5261160f565b5460ff16919050565b6000610d6561160f565b546201000090046001600160a01b0316919050565b610d8333610eec565b610d9f5760405162461bcd60e51b815260040161066890611d3a565b610da76115ca565b6040516219d2db60e51b81526001600160a01b037f0000000000000000000000000000000000000000000000000000000000000000169063033a5b6090610df690869086908690600401612171565b600060405180830381600087803b158015610e1057600080fd5b505af1158015610e24573d6000803e3d6000fd5b50505050610e326001600055565b505050565b610e4033610eec565b610e5c5760405162461bcd60e51b815260040161066890611d3a565b610e646115ca565b60405163349e3cd960e11b81526001600160a01b0382811660048301527f0000000000000000000000000000000000000000000000000000000000000000169063693c79b290602401600060405180830381600087803b158015610ec757600080fd5b505af1158015610edb573d6000803e3d6000fd5b50505050610ee96001600055565b50565b604051637df73e2760e01b81526001600160a01b038216600482015260009073__$a5a42e46683ad9c79b7b86d5ff60fdf4c1$__90637df73e27906024016108a2565b6000610f3961160f565b54610100900460ff16919050565b336001600160a01b037f00000000000000000000000000000000000000000000000000000000000000001614610f8f5760405162461bcd60e51b815260040161066890611f93565b610f9761160f565b5460ff1615610ff75760405162461bcd60e51b815260206004820152602660248201527f52656d6f7661626c65456e746974793a206d757374206465616374697661746560448201526508199a5c9cdd60d21b6064820152608401610668565b600161100161160f565b80549115156101000261ff001990921691909117905560405133907fbf430175840309fcb4cce13557429998477f9f95733cb0d42c170af8aa225d0690610a2b9085908590611f77565b604051630935e01b60e21b815233600482015273__$a5a42e46683ad9c79b7b86d5ff60fdf4c1$__906324d7806c90602401602060405180830381865af415801561109a573d6000803e3d6000fd5b505050506040513d601f19601f820116820180604052508101906110be9190611efa565b6110da5760405162461bcd60e51b81526004016106689061213c565b604051638d361e4360e01b815273__$a5a42e46683ad9c79b7b86d5ff60fdf4c1$__90638d361e4390610d1c908590859060040161219f565b600061111d6115f4565b905090565b604051632474521560e21b8152600481018390526001600160a01b038216602482015260009073__$a5a42e46683ad9c79b7b86d5ff60fdf4c1$__906391d1485490604401602060405180830381865af4158015611184573d6000803e3d6000fd5b505050506040513d601f19601f820116820180604052508101906111a89190611efa565b9392505050565b336111b86115f4565b6001600160a01b0316146111de5760405162461bcd60e51b815260040161066890611f17565b6040516313af403560e01b81526001600160a01b038216600482015273__$a5a42e46683ad9c79b7b86d5ff60fdf4c1$__906313af40359060240160006040518083038186803b15801561123157600080fd5b505af4158015611245573d6000803e3d6000fd5b5050505050565b336001600160a01b037f000000000000000000000000000000000000000000000000000000000000000016146112945760405162461bcd60e51b815260040161066890611f93565b600161129e61160f565b805460ff191691151591909117905560405133907f54ca6a4cb143be493713a7079cc0d6cdbbf0688ee68398b4354b056088f2cbf590600090a2565b604051630935e01b60e21b815233600482015273__$a5a42e46683ad9c79b7b86d5ff60fdf4c1$__906324d7806c90602401602060405180830381865af4158015611329573d6000803e3d6000fd5b505050506040513d601f19601f8201168201806040525081019061134d9190611efa565b6113695760405162461bcd60e51b81526004016106689061213c565b60405163d547741f60e01b8152600481018390526001600160a01b038216602482015273__$a5a42e46683ad9c79b7b86d5ff60fdf4c1$__9063d547741f90604401610d1c565b6113b933610eec565b6113d55760405162461bcd60e51b815260040161066890611d3a565b6113dd6115ca565b60405163af08d53d60e01b81526001600160a01b037f0000000000000000000000000000000000000000000000000000000000000000169063af08d53d90610df690869086908690600401612171565b336001600160a01b037f00000000000000000000000000000000000000000000000000000000000000001614610c465760405162461bcd60e51b815260040161066890611f93565b604051630935e01b60e21b815233600482015273__$a5a42e46683ad9c79b7b86d5ff60fdf4c1$__906324d7806c90602401602060405180830381865af41580156114c4573d6000803e3d6000fd5b505050506040513d601f19601f820116820180604052508101906114e89190611efa565b6115045760405162461bcd60e51b81526004016106689061213c565b60405163e8906a2d60e01b815273__$a5a42e46683ad9c79b7b86d5ff60fdf4c1$__9063e8906a2d90610d1c908590859060040161219f565b60408051808201909152601481527378722e656e746974792e73746f726167652e763160601b60209091015260008060ff61159960017fdefc82a28b6578c2a63b29b15450260a5e998242a6300b7fcb30814ee74ae1886121ed565b6040516020016115ab91815260200190565b60408051601f1981840301815291905280516020909101201692915050565b6002600054036115ed57604051633ee5aeb560e01b815260040160405180910390fd5b6002600055565b6000806115ff611674565b546001600160a01b031692915050565b60408051808201909152601881527f78722e61637469766174696f6e2e73746f726167652e7631000000000000000060209091015260008060ff61159960017ff6611e962a52dbc98dd0485088d920890c43e26113c61976f6e171a29d49ce496121ed565b60408051808201909152601481527378722e6163636573732e73746f726167652e763160601b60209091015260008060ff61159960017fd870894b15ee1369a593f3670ac51c4ed8201dab473944ee712694d327dd58756121ed565b6000815180845260005b818110156116f6576020818501810151868301820152016116da565b506000602082860101526020601f19601f83011685010191505092915050565b6020815260006111a860208301846116d0565b6001600160a01b0381168114610ee957600080fd5b803561085e81611729565b60006020828403121561175b57600080fd5b81356111a881611729565b634e487b7160e01b600052604160045260246000fd5b60405160c0810167ffffffffffffffff8111828210171561179f5761179f611766565b60405290565b604051610120810167ffffffffffffffff8111828210171561179f5761179f611766565b8015158114610ee957600080fd5b803561085e816117c9565b600082601f8301126117f357600080fd5b813567ffffffffffffffff8082111561180e5761180e611766565b604051601f8301601f19908116603f0116810190828211818310171561183657611836611766565b8160405283815286602085880101111561184f57600080fd5b836020870160208301376000602085830101528094505050505092915050565b600060c0828403121561188157600080fd5b61188961177c565b9050813567ffffffffffffffff808211156118a357600080fd5b6118af858386016117e2565b835260208401359150808211156118c557600080fd5b6118d1858386016117e2565b602084015260408401359150808211156118ea57600080fd5b506118f7848285016117e2565b604083015250606082013560608201526080820135608082015260a082013560a082015292915050565b803561ffff8116811461085e57600080fd5b60006060828403121561194557600080fd5b6040516060810181811067ffffffffffffffff8211171561196857611968611766565b60405290508061197783611921565b815261198560208401611921565b6020820152604083013560408201525092915050565b6000602082840312156119ad57600080fd5b813567ffffffffffffffff808211156119c557600080fd5b9083019061016082860312156119da57600080fd5b6119e26117a5565b6119eb836117d7565b81526119f96020840161173e565b6020820152604083013582811115611a1057600080fd5b611a1c8782860161186f565b604083015250606083013582811115611a3457600080fd5b611a40878286016117e2565b606083015250611a538660808501611933565b608082015260e083013582811115611a6a57600080fd5b611a76878286016117e2565b60a0830152506101008084013560c083015261012084013583811115611a9b57600080fd5b611aa7888287016117e2565b60e08401525061014084013583811115611ac057600080fd5b611acc888287016117e2565b918301919091525095945050505050565b60008083601f840112611aef57600080fd5b50813567ffffffffffffffff811115611b0757600080fd5b602083019150836020828501011115611b1f57600080fd5b9250929050565b60008060208385031215611b3957600080fd5b823567ffffffffffffffff811115611b5057600080fd5b611b5c85828601611add565b90969095509350505050565b600080600080600060608688031215611b8057600080fd5b853567ffffffffffffffff80821115611b9857600080fd5b611ba489838a01611add565b909750955060208801359150611bb982611729565b90935060408701359080821115611bcf57600080fd5b50611bdc88828901611add565b969995985093965092949392505050565b600060208284031215611bff57600080fd5b5035919050565b60008060408385031215611c1957600080fd5b823591506020830135611c2b81611729565b809150509250929050565b600080600060408486031215611c4b57600080fd5b8335611c5681611729565b9250602084013567ffffffffffffffff811115611c7257600080fd5b611c7e86828701611add565b9497909650939450505050565b60008060208385031215611c9e57600080fd5b823567ffffffffffffffff80821115611cb657600080fd5b818501915085601f830112611cca57600080fd5b813581811115611cd957600080fd5b8660208260051b8501011115611cee57600080fd5b60209290920196919550909350505050565b600181811c90821680611d1457607f821691505b602082108103611d3457634e487b7160e01b600052602260045260246000fd5b50919050565b602080825260149082015273456e746974793a206f6e6c79207369676e65727360601b604082015260600190565b6000815160c08452611d7d60c08501826116d0565b905060208301518482036020860152611d9682826116d0565b91505060408301518482036040860152611db082826116d0565b915050606083015160608501526080830151608085015260a083015160a08501528091505092915050565b60208152611dee60208201835115159052565b60006020830151611e0a60408401826001600160a01b03169052565b50604083810151606084810191909152840151805161ffff908116608086015260208201511660a08501529081015160c08401525060808301516101608060e0850152611e5b610180850183611d68565b915060a0850151601f19610100818786030181880152611e7b85846116d0565b945060c088015192508187860301610120880152611e9985846116d0565b945060e088015192508187860301610140880152611eb785846116d0565b908801518782039092018488015293509050611ed383826116d0565b9695505050505050565b600060208284031215611eef57600080fd5b81516111a881611729565b600060208284031215611f0c57600080fd5b81516111a8816117c9565b6020808252601f908201527f426173654163636573733a207265737472696374656420746f206f776e657200604082015260600190565b81835281816020850137506000828201602090810191909152601f909101601f19169091010190565b602081526000611f8b602083018486611f4e565b949350505050565b60208082526025908201527f52656d6f7661626c65456e746974793a206f6e6c79206f776e696e6720726567604082015264697374727960d81b606082015260800190565b601f821115610e32576000816000526020600020601f850160051c810160208610156120015750805b601f850160051c820191505b8181101561098e5782815560010161200d565b67ffffffffffffffff83111561203857612038611766565b61204c836120468354611d00565b83611fd8565b6000601f84116001811461208057600085156120685750838201355b600019600387901b1c1916600186901b178355611245565b600083815260209020601f19861690835b828110156120b15786850135825560209485019460019092019101612091565b50868210156120ce5760001960f88860031b161c19848701351681555b505060018560011b0183555050505050565b6001600160a01b038381168252604060208084018290528451918401829052600092858201929091906060860190855b8181101561212e578551851683529483019491830191600101612110565b509098975050505050505050565b6020808252818101527f426173654163636573733a207265737472696374656420746f2061646d696e73604082015260600190565b6001600160a01b03841681526040602082018190526000906121969083018486611f4e565b95945050505050565b60208082528181018390526000908460408401835b868110156121e25782356121c781611729565b6001600160a01b0316825291830191908301906001016121b4565b509695505050505050565b8181038181111561063b57634e487b7160e01b600052601160045260246000fdfea2646970667358221220674d3e33bc6165376b8df1f51be08bd024cbde5a5470d665b7a042181cea0ac564736f6c63430008180033",
  "linkReferences": {
    "contracts/libraries/LibAccess.sol": {
      "LibAccess": [
        {
          "length": 20,
          "start": 2725
        },
        {
          "length": 20,
          "start": 3401
        },
        {
          "length": 20,
          "start": 3712
        },
        {
          "length": 20,
          "start": 3871
        },
        {
          "length": 20,
          "start": 4398
        },
        {
          "length": 20,
          "start": 4737
        },
        {
          "length": 20,
          "start": 4874
        },
        {
          "length": 20,
          "start": 4971
        },
        {
          "length": 20,
          "start": 5149
        },
        {
          "length": 20,
          "start": 5392
        },
        {
          "length": 20,
          "start": 5551
        },
        {
          "length": 20,
          "start": 5803
        },
        {
          "length": 20,
          "start": 5940
        }
      ]
    }
  },
  "deployedLinkReferences": {
    "contracts/libraries/LibAccess.sol": {
      "LibAccess": [
        {
          "length": 20,
          "start": 2180
        },
        {
          "length": 20,
          "start": 2856
        },
        {
          "length": 20,
          "start": 3167
        },
        {
          "length": 20,
          "start": 3326
        },
        {
          "length": 20,
          "start": 3853
        },
        {
          "length": 20,
          "start": 4192
        },
        {
          "length": 20,
          "start": 4329
        },
        {
          "length": 20,
          "start": 4426
        },
        {
          "length": 20,
          "start": 4604
        },
        {
          "length": 20,
          "start": 4847
        },
        {
          "length": 20,
          "start": 5006
        },
        {
          "length": 20,
          "start": 5258
        },
        {
          "length": 20,
          "start": 5395
        }
      ]
    }
  }
}