{
  "_format": "hh-sol-artifact-1",
  "contractName": "RegistrarRegistry",
  "sourceName": "contracts/RegistrarRegistry.sol",
  "abi": [
    {
      "inputs": [
        {
          "internalType": "address",
          "name": "defaultAdmin",
          "type": "address"
        },
        {
          "internalType": "address[]",
          "name": "registerers",
          "type": "address[]"
        }
      ],
      "stateMutability": "nonpayable",
      "type": "constructor"
    },
    {
      "inputs": [],
      "name": "AccessControlBadConfirmation",
      "type": "error"
    },
    {
      "inputs": [
        {
          "internalType": "address",
          "name": "account",
          "type": "address"
        },
        {
          "internalType": "bytes32",
          "name": "neededRole",
          "type": "bytes32"
        }
      ],
      "name": "AccessControlUnauthorizedAccount",
      "type": "error"
    },
    {
      "anonymous": false,
      "inputs": [
        {
          "indexed": false,
          "internalType": "uint256",
          "name": "id",
          "type": "uint256"
        },
        {
          "indexed": false,
          "internalType": "address payable",
          "name": "signer",
          "type": "address"
        },
        {
          "indexed": false,
          "internalType": "uint256",
          "name": "tokens",
          "type": "uint256"
        }
      ],
      "name": "RegistrarAdded",
      "type": "event"
    },
    {
      "anonymous": false,
      "inputs": [
        {
          "indexed": true,
          "internalType": "bytes32",
          "name": "role",
          "type": "bytes32"
        },
        {
          "indexed": true,
          "internalType": "bytes32",
          "name": "previousAdminRole",
          "type": "bytes32"
        },
        {
          "indexed": true,
          "internalType": "bytes32",
          "name": "newAdminRole",
          "type": "bytes32"
        }
      ],
      "name": "RoleAdminChanged",
      "type": "event"
    },
    {
      "anonymous": false,
      "inputs": [
        {
          "indexed": true,
          "internalType": "bytes32",
          "name": "role",
          "type": "bytes32"
        },
        {
          "indexed": true,
          "internalType": "address",
          "name": "account",
          "type": "address"
        },
        {
          "indexed": true,
          "internalType": "address",
          "name": "sender",
          "type": "address"
        }
      ],
      "name": "RoleGranted",
      "type": "event"
    },
    {
      "anonymous": false,
      "inputs": [
        {
          "indexed": true,
          "internalType": "bytes32",
          "name": "role",
          "type": "bytes32"
        },
        {
          "indexed": true,
          "internalType": "address",
          "name": "account",
          "type": "address"
        },
        {
          "indexed": true,
          "internalType": "address",
          "name": "sender",
          "type": "address"
        }
      ],
      "name": "RoleRevoked",
      "type": "event"
    },
    {
      "anonymous": false,
      "inputs": [
        {
          "indexed": false,
          "internalType": "uint256",
          "name": "id",
          "type": "uint256"
        },
        {
          "indexed": false,
          "internalType": "address[]",
          "name": "signers",
          "type": "address[]"
        }
      ],
      "name": "SignersAdded",
      "type": "event"
    },
    {
      "anonymous": false,
      "inputs": [
        {
          "indexed": false,
          "internalType": "uint256",
          "name": "id",
          "type": "uint256"
        },
        {
          "indexed": false,
          "internalType": "address[]",
          "name": "signers",
          "type": "address[]"
        }
      ],
      "name": "SignersRemoved",
      "type": "event"
    },
    {
      "inputs": [],
      "name": "DEFAULT_ADMIN_ROLE",
      "outputs": [
        {
          "internalType": "bytes32",
          "name": "",
          "type": "bytes32"
        }
      ],
      "stateMutability": "view",
      "type": "function"
    },
    {
      "inputs": [
        {
          "internalType": "uint256",
          "name": "registrarId",
          "type": "uint256"
        },
        {
          "internalType": "address[]",
          "name": "signers",
          "type": "address[]"
        }
      ],
      "name": "addSigners",
      "outputs": [],
      "stateMutability": "nonpayable",
      "type": "function"
    },
    {
      "inputs": [
        {
          "internalType": "bytes32",
          "name": "role",
          "type": "bytes32"
        }
      ],
      "name": "getRoleAdmin",
      "outputs": [
        {
          "internalType": "bytes32",
          "name": "",
          "type": "bytes32"
        }
      ],
      "stateMutability": "view",
      "type": "function"
    },
    {
      "inputs": [
        {
          "internalType": "bytes32",
          "name": "role",
          "type": "bytes32"
        },
        {
          "internalType": "address",
          "name": "account",
          "type": "address"
        }
      ],
      "name": "grantRole",
      "outputs": [],
      "stateMutability": "nonpayable",
      "type": "function"
    },
    {
      "inputs": [
        {
          "internalType": "bytes32",
          "name": "role",
          "type": "bytes32"
        },
        {
          "internalType": "address",
          "name": "account",
          "type": "address"
        }
      ],
      "name": "hasRole",
      "outputs": [
        {
          "internalType": "bool",
          "name": "",
          "type": "bool"
        }
      ],
      "stateMutability": "view",
      "type": "function"
    },
    {
      "inputs": [
        {
          "internalType": "uint256",
          "name": "id",
          "type": "uint256"
        },
        {
          "internalType": "address",
          "name": "account",
          "type": "address"
        }
      ],
      "name": "isRegistrar",
      "outputs": [
        {
          "internalType": "bool",
          "name": "",
          "type": "bool"
        }
      ],
      "stateMutability": "view",
      "type": "function"
    },
    {
      "inputs": [
        {
          "internalType": "address payable",
          "name": "signer",
          "type": "address"
        }
      ],
      "name": "register",
      "outputs": [],
      "stateMutability": "payable",
      "type": "function"
    },
    {
      "inputs": [],
      "name": "registrarCount",
      "outputs": [
        {
          "internalType": "uint256",
          "name": "",
          "type": "uint256"
        }
      ],
      "stateMutability": "view",
      "type": "function"
    },
    {
      "inputs": [
        {
          "internalType": "uint256",
          "name": "",
          "type": "uint256"
        }
      ],
      "name": "registrars",
      "outputs": [
        {
          "internalType": "uint256",
          "name": "id",
          "type": "uint256"
        }
      ],
      "stateMutability": "view",
      "type": "function"
    },
    {
      "inputs": [
        {
          "internalType": "uint256",
          "name": "registrarId",
          "type": "uint256"
        },
        {
          "internalType": "address[]",
          "name": "signers",
          "type": "address[]"
        }
      ],
      "name": "removeSigners",
      "outputs": [],
      "stateMutability": "nonpayable",
      "type": "function"
    },
    {
      "inputs": [
        {
          "internalType": "bytes32",
          "name": "role",
          "type": "bytes32"
        },
        {
          "internalType": "address",
          "name": "callerConfirmation",
          "type": "address"
        }
      ],
      "name": "renounceRole",
      "outputs": [],
      "stateMutability": "nonpayable",
      "type": "function"
    },
    {
      "inputs": [
        {
          "internalType": "bytes32",
          "name": "role",
          "type": "bytes32"
        },
        {
          "internalType": "address",
          "name": "account",
          "type": "address"
        }
      ],
      "name": "revokeRole",
      "outputs": [],
      "stateMutability": "nonpayable",
      "type": "function"
    },
    {
      "inputs": [
        {
          "internalType": "bytes4",
          "name": "interfaceId",
          "type": "bytes4"
        }
      ],
      "name": "supportsInterface",
      "outputs": [
        {
          "internalType": "bool",
          "name": "",
          "type": "bool"
        }
      ],
      "stateMutability": "view",
      "type": "function"
    }
  ],
  "bytecode": "0x60806040523480156200001157600080fd5b5060405162000cca38038062000cca833981016040819052620000349162000175565b6200004160008362000093565b5060005b81518110156200008a57620000806000801b8383815181106200006c576200006c6200025e565b60200260200101516200009360201b60201c565b5060010162000045565b50505062000274565b6000828152602081815260408083206001600160a01b038516845290915281205460ff1662000138576000838152602081815260408083206001600160a01b03861684529091529020805460ff19166001179055620000ef3390565b6001600160a01b0316826001600160a01b0316847f2f8788117e7eff1d82e926ec794901d17c78024a50270940304540a733656f0d60405160405180910390a45060016200013c565b5060005b92915050565b80516001600160a01b03811681146200015a57600080fd5b919050565b634e487b7160e01b600052604160045260246000fd5b600080604083850312156200018957600080fd5b620001948362000142565b602084810151919350906001600160401b0380821115620001b457600080fd5b818601915086601f830112620001c957600080fd5b815181811115620001de57620001de6200015f565b8060051b604051601f19603f830116810181811085821117156200020657620002066200015f565b6040529182528482019250838101850191898311156200022557600080fd5b938501935b828510156200024e576200023e8562000142565b845293850193928501926200022a565b8096505050505050509250929050565b634e487b7160e01b600052603260045260246000fd5b610a4680620002846000396000f3fe6080604052600436106100c25760003560e01c80634420e4861161007f5780638c9d518f116100595780638c9d518f1461021257806391d148541461025c578063a217fddf1461027c578063d547741f1461029157600080fd5b80634420e486146101bf5780636ed562e2146101d25780638683869a146101f257600080fd5b806301ffc9a7146100c757806312f83832146100fc5780631c8f8a9314610137578063248a9ca31461014d5780632f2ff15d1461017d57806336568abe1461019f575b600080fd5b3480156100d357600080fd5b506100e76100e2366004610789565b6102b1565b60405190151581526020015b60405180910390f35b34801561010857600080fd5b506101296101173660046107ba565b60026020526000908152604090205481565b6040519081526020016100f3565b34801561014357600080fd5b5061012960015481565b34801561015957600080fd5b506101296101683660046107ba565b60009081526020819052604090206001015490565b34801561018957600080fd5b5061019d6101983660046107f8565b6102e8565b005b3480156101ab57600080fd5b5061019d6101ba3660046107f8565b610313565b61019d6101cd366004610828565b61034b565b3480156101de57600080fd5b5061019d6101ed36600461085b565b61042c565b3480156101fe57600080fd5b5061019d61020d36600461085b565b610520565b34801561021e57600080fd5b506100e761022d3660046107f8565b60008281526002602090815260408083206001600160a01b038516845260010190915290205460ff1692915050565b34801561026857600080fd5b506100e76102773660046107f8565b6105f4565b34801561028857600080fd5b50610129600081565b34801561029d57600080fd5b5061019d6102ac3660046107f8565b61061d565b60006001600160e01b03198216637965db0b60e01b14806102e257506301ffc9a760e01b6001600160e01b03198316145b92915050565b60008281526020819052604090206001015461030381610642565b61030d838361064f565b50505050565b6001600160a01b038116331461033c5760405163334bd91960e11b815260040160405180910390fd5b61034682826106e1565b505050565b600061035681610642565b6001600081546103659061092c565b909155506001805460008181526002602090815260408083209384556001600160a01b03871683528385019091529020805460ff191690921790915534156103de576040516001600160a01b038416903480156108fc02916000818181858888f193505050501580156103dc573d6000803e3d6000fd5b505b600154604080519182526001600160a01b03851660208301523482820152517f6edfd39c9b67407df83954fc12114fcb61527289665a8a845594d5609bbf5d959181900360600190a1505050565b6000828152600260209081526040808320338452600101909152902054829060ff166104735760405162461bcd60e51b815260040161046a90610953565b60405180910390fd5b6000838152600260205260408120905b83518110156104e05760018260010160008684815181106104a6576104a66109a1565b6020908102919091018101516001600160a01b03168252810191909152604001600020805460ff1916911515919091179055600101610483565b507fe2d402c8ff08afd038f229e913adc60fbff04823b0dc2e6acb6dbd7d2659a27384846040516105129291906109b7565b60405180910390a150505050565b6000828152600260209081526040808320338452600101909152902054829060ff1661055e5760405162461bcd60e51b815260040161046a90610953565b6000838152600260205260408120905b83518110156105c25781600101600085838151811061058f5761058f6109a1565b6020908102919091018101516001600160a01b03168252810191909152604001600020805460ff1916905560010161056e565b507fda76d0d06982b9db2df3e6a38436f1b02dec8e1e412c7720267e5de00d962fc784846040516105129291906109b7565b6000918252602082815260408084206001600160a01b0393909316845291905290205460ff1690565b60008281526020819052604090206001015461063881610642565b61030d83836106e1565b61064c813361074c565b50565b600061065b83836105f4565b6106d9576000838152602081815260408083206001600160a01b03861684529091529020805460ff191660011790556106913390565b6001600160a01b0316826001600160a01b0316847f2f8788117e7eff1d82e926ec794901d17c78024a50270940304540a733656f0d60405160405180910390a45060016102e2565b5060006102e2565b60006106ed83836105f4565b156106d9576000838152602081815260408083206001600160a01b0386168085529252808320805460ff1916905551339286917ff6391f5c32d9c69d2a47ea670b442974b53935d1edc7fd64eb21e047a839171b9190a45060016102e2565b61075682826105f4565b6107855760405163e2517d3f60e01b81526001600160a01b03821660048201526024810183905260440161046a565b5050565b60006020828403121561079b57600080fd5b81356001600160e01b0319811681146107b357600080fd5b9392505050565b6000602082840312156107cc57600080fd5b5035919050565b6001600160a01b038116811461064c57600080fd5b80356107f3816107d3565b919050565b6000806040838503121561080b57600080fd5b82359150602083013561081d816107d3565b809150509250929050565b60006020828403121561083a57600080fd5b81356107b3816107d3565b634e487b7160e01b600052604160045260246000fd5b6000806040838503121561086e57600080fd5b8235915060208084013567ffffffffffffffff8082111561088e57600080fd5b818601915086601f8301126108a257600080fd5b8135818111156108b4576108b4610845565b8060051b604051601f19603f830116810181811085821117156108d9576108d9610845565b6040529182528482019250838101850191898311156108f757600080fd5b938501935b8285101561091c5761090d856107e8565b845293850193928501926108fc565b8096505050505050509250929050565b60006001820161094c57634e487b7160e01b600052601160045260246000fd5b5060010190565b6020808252602e908201527f52656769737472617252656769737472793a2063616c6c6572206973206e6f7460408201526d103a3432903932b3b4b9ba3930b960911b606082015260800190565b634e487b7160e01b600052603260045260246000fd5b60006040820184835260206040602085015281855180845260608601915060208701935060005b81811015610a035784516001600160a01b0316835293830193918301916001016109de565b509097965050505050505056fea2646970667358221220f1e31ec0dda92efc894cd473de4f38b3cc7c6644cba9109a0457876d0d789af864736f6c63430008180033",
  "linkReferences": {},
  "deployedLinkReferences": {}
}