{
  "_format": "hh-sol-artifact-1",
  "contractName": "RegistrarRegistry",
  "sourceName": "contracts/registrar/RegistrarRegistry.sol",
  "abi": [
    {
      "inputs": [
        {
          "internalType": "address",
          "name": "mainAdmin",
          "type": "address"
        },
        {
          "internalType": "address[]",
          "name": "registerers",
          "type": "address[]"
        },
        {
          "internalType": "contract IRegistrarFactory",
          "name": "_factory",
          "type": "address"
        }
      ],
      "stateMutability": "nonpayable",
      "type": "constructor"
    },
    {
      "inputs": [],
      "name": "AccessControlBadConfirmation",
      "type": "error"
    },
    {
      "inputs": [
        {
          "internalType": "address",
          "name": "account",
          "type": "address"
        },
        {
          "internalType": "bytes32",
          "name": "neededRole",
          "type": "bytes32"
        }
      ],
      "name": "AccessControlUnauthorizedAccount",
      "type": "error"
    },
    {
      "inputs": [],
      "name": "ECDSAInvalidSignature",
      "type": "error"
    },
    {
      "inputs": [
        {
          "internalType": "uint256",
          "name": "length",
          "type": "uint256"
        }
      ],
      "name": "ECDSAInvalidSignatureLength",
      "type": "error"
    },
    {
      "inputs": [
        {
          "internalType": "bytes32",
          "name": "s",
          "type": "bytes32"
        }
      ],
      "name": "ECDSAInvalidSignatureS",
      "type": "error"
    },
    {
      "inputs": [],
      "name": "ReentrancyGuardReentrantCall",
      "type": "error"
    },
    {
      "anonymous": false,
      "inputs": [
        {
          "indexed": true,
          "internalType": "address",
          "name": "entity",
          "type": "address"
        }
      ],
      "name": "AddressDeactivated",
      "type": "event"
    },
    {
      "anonymous": false,
      "inputs": [
        {
          "indexed": true,
          "internalType": "address",
          "name": "entity",
          "type": "address"
        }
      ],
      "name": "AddressReactivated",
      "type": "event"
    },
    {
      "anonymous": false,
      "inputs": [
        {
          "indexed": true,
          "internalType": "address",
          "name": "entity",
          "type": "address"
        }
      ],
      "name": "AddressRemoved",
      "type": "event"
    },
    {
      "anonymous": false,
      "inputs": [
        {
          "indexed": true,
          "internalType": "address",
          "name": "registrarContract",
          "type": "address"
        },
        {
          "indexed": true,
          "internalType": "address",
          "name": "owner",
          "type": "address"
        },
        {
          "indexed": false,
          "internalType": "uint256",
          "name": "tokens",
          "type": "uint256"
        }
      ],
      "name": "RegistryAddedRegistrar",
      "type": "event"
    },
    {
      "anonymous": false,
      "inputs": [
        {
          "indexed": true,
          "internalType": "address",
          "name": "registrarContract",
          "type": "address"
        }
      ],
      "name": "RegistryDeactivatedRegistrar",
      "type": "event"
    },
    {
      "anonymous": false,
      "inputs": [
        {
          "indexed": true,
          "internalType": "address",
          "name": "registrarContract",
          "type": "address"
        }
      ],
      "name": "RegistryReactivatedRegistrar",
      "type": "event"
    },
    {
      "anonymous": false,
      "inputs": [
        {
          "indexed": true,
          "internalType": "address",
          "name": "registrarContract",
          "type": "address"
        }
      ],
      "name": "RegistryRemovedRegistrar",
      "type": "event"
    },
    {
      "anonymous": false,
      "inputs": [
        {
          "indexed": true,
          "internalType": "address",
          "name": "registrarContract",
          "type": "address"
        },
        {
          "indexed": false,
          "internalType": "address",
          "name": "newVersion",
          "type": "address"
        }
      ],
      "name": "RegistryUpgradedRegistrar",
      "type": "event"
    },
    {
      "anonymous": false,
      "inputs": [
        {
          "indexed": true,
          "internalType": "bytes32",
          "name": "role",
          "type": "bytes32"
        },
        {
          "indexed": true,
          "internalType": "bytes32",
          "name": "previousAdminRole",
          "type": "bytes32"
        },
        {
          "indexed": true,
          "internalType": "bytes32",
          "name": "newAdminRole",
          "type": "bytes32"
        }
      ],
      "name": "RoleAdminChanged",
      "type": "event"
    },
    {
      "anonymous": false,
      "inputs": [
        {
          "indexed": true,
          "internalType": "bytes32",
          "name": "role",
          "type": "bytes32"
        },
        {
          "indexed": true,
          "internalType": "address",
          "name": "account",
          "type": "address"
        },
        {
          "indexed": true,
          "internalType": "address",
          "name": "sender",
          "type": "address"
        }
      ],
      "name": "RoleGranted",
      "type": "event"
    },
    {
      "anonymous": false,
      "inputs": [
        {
          "indexed": true,
          "internalType": "bytes32",
          "name": "role",
          "type": "bytes32"
        },
        {
          "indexed": true,
          "internalType": "address",
          "name": "account",
          "type": "address"
        },
        {
          "indexed": true,
          "internalType": "address",
          "name": "sender",
          "type": "address"
        }
      ],
      "name": "RoleRevoked",
      "type": "event"
    },
    {
      "inputs": [],
      "name": "ADMIN_ROLE",
      "outputs": [
        {
          "internalType": "bytes32",
          "name": "",
          "type": "bytes32"
        }
      ],
      "stateMutability": "view",
      "type": "function"
    },
    {
      "inputs": [],
      "name": "DEFAULT_ADMIN_ROLE",
      "outputs": [
        {
          "internalType": "bytes32",
          "name": "",
          "type": "bytes32"
        }
      ],
      "stateMutability": "view",
      "type": "function"
    },
    {
      "inputs": [],
      "name": "REGISTER_ROLE",
      "outputs": [
        {
          "internalType": "bytes32",
          "name": "",
          "type": "bytes32"
        }
      ],
      "stateMutability": "view",
      "type": "function"
    },
    {
      "inputs": [],
      "name": "TERMS_REGISTRAR",
      "outputs": [
        {
          "internalType": "bytes32",
          "name": "",
          "type": "bytes32"
        }
      ],
      "stateMutability": "view",
      "type": "function"
    },
    {
      "inputs": [
        {
          "internalType": "address",
          "name": "addr",
          "type": "address"
        }
      ],
      "name": "canBeDeactivated",
      "outputs": [
        {
          "internalType": "bool",
          "name": "",
          "type": "bool"
        }
      ],
      "stateMutability": "view",
      "type": "function"
    },
    {
      "inputs": [
        {
          "internalType": "address",
          "name": "addr",
          "type": "address"
        }
      ],
      "name": "canBeRemoved",
      "outputs": [
        {
          "internalType": "bool",
          "name": "",
          "type": "bool"
        }
      ],
      "stateMutability": "view",
      "type": "function"
    },
    {
      "inputs": [],
      "name": "currentRegistrarVersion",
      "outputs": [
        {
          "internalType": "uint256",
          "name": "",
          "type": "uint256"
        }
      ],
      "stateMutability": "view",
      "type": "function"
    },
    {
      "inputs": [
        {
          "internalType": "address",
          "name": "registrar",
          "type": "address"
        }
      ],
      "name": "deactivateRegistrar",
      "outputs": [],
      "stateMutability": "nonpayable",
      "type": "function"
    },
    {
      "inputs": [],
      "name": "factory",
      "outputs": [
        {
          "internalType": "contract IRegistrarFactory",
          "name": "",
          "type": "address"
        }
      ],
      "stateMutability": "view",
      "type": "function"
    },
    {
      "inputs": [
        {
          "internalType": "address",
          "name": "addr",
          "type": "address"
        }
      ],
      "name": "forceDeactivation",
      "outputs": [],
      "stateMutability": "nonpayable",
      "type": "function"
    },
    {
      "inputs": [
        {
          "internalType": "address",
          "name": "world",
          "type": "address"
        }
      ],
      "name": "forceRemoval",
      "outputs": [],
      "stateMutability": "nonpayable",
      "type": "function"
    },
    {
      "inputs": [
        {
          "internalType": "address",
          "name": "addr",
          "type": "address"
        }
      ],
      "name": "getEntityTerms",
      "outputs": [
        {
          "components": [
            {
              "internalType": "uint256",
              "name": "fee",
              "type": "uint256"
            },
            {
              "internalType": "uint256",
              "name": "coveragePeriod",
              "type": "uint256"
            },
            {
              "internalType": "uint256",
              "name": "gracePeriod",
              "type": "uint256"
            }
          ],
          "internalType": "struct RegistrationTerms",
          "name": "",
          "type": "tuple"
        }
      ],
      "stateMutability": "view",
      "type": "function"
    },
    {
      "inputs": [
        {
          "internalType": "address",
          "name": "addr",
          "type": "address"
        }
      ],
      "name": "getExpiration",
      "outputs": [
        {
          "internalType": "uint256",
          "name": "",
          "type": "uint256"
        }
      ],
      "stateMutability": "view",
      "type": "function"
    },
    {
      "inputs": [
        {
          "internalType": "address",
          "name": "addr",
          "type": "address"
        }
      ],
      "name": "getLastRenewal",
      "outputs": [
        {
          "internalType": "uint256",
          "name": "",
          "type": "uint256"
        }
      ],
      "stateMutability": "view",
      "type": "function"
    },
    {
      "inputs": [
        {
          "internalType": "string",
          "name": "name",
          "type": "string"
        }
      ],
      "name": "getRegistrarByName",
      "outputs": [
        {
          "internalType": "address",
          "name": "",
          "type": "address"
        }
      ],
      "stateMutability": "view",
      "type": "function"
    },
    {
      "inputs": [
        {
          "internalType": "bytes32",
          "name": "role",
          "type": "bytes32"
        }
      ],
      "name": "getRoleAdmin",
      "outputs": [
        {
          "internalType": "bytes32",
          "name": "",
          "type": "bytes32"
        }
      ],
      "stateMutability": "view",
      "type": "function"
    },
    {
      "inputs": [
        {
          "internalType": "bytes32",
          "name": "termsType",
          "type": "bytes32"
        }
      ],
      "name": "getTerms",
      "outputs": [
        {
          "components": [
            {
              "internalType": "uint256",
              "name": "fee",
              "type": "uint256"
            },
            {
              "internalType": "uint256",
              "name": "coveragePeriod",
              "type": "uint256"
            },
            {
              "internalType": "uint256",
              "name": "gracePeriod",
              "type": "uint256"
            }
          ],
          "internalType": "struct RegistrationTerms",
          "name": "",
          "type": "tuple"
        }
      ],
      "stateMutability": "view",
      "type": "function"
    },
    {
      "inputs": [
        {
          "internalType": "bytes32",
          "name": "role",
          "type": "bytes32"
        },
        {
          "internalType": "address",
          "name": "account",
          "type": "address"
        }
      ],
      "name": "grantRole",
      "outputs": [],
      "stateMutability": "nonpayable",
      "type": "function"
    },
    {
      "inputs": [
        {
          "internalType": "bytes32",
          "name": "role",
          "type": "bytes32"
        },
        {
          "internalType": "address",
          "name": "account",
          "type": "address"
        }
      ],
      "name": "hasRole",
      "outputs": [
        {
          "internalType": "bool",
          "name": "",
          "type": "bool"
        }
      ],
      "stateMutability": "view",
      "type": "function"
    },
    {
      "inputs": [
        {
          "internalType": "address",
          "name": "addr",
          "type": "address"
        }
      ],
      "name": "isExpired",
      "outputs": [
        {
          "internalType": "bool",
          "name": "",
          "type": "bool"
        }
      ],
      "stateMutability": "view",
      "type": "function"
    },
    {
      "inputs": [
        {
          "internalType": "address",
          "name": "addr",
          "type": "address"
        }
      ],
      "name": "isInGracePeriod",
      "outputs": [
        {
          "internalType": "bool",
          "name": "",
          "type": "bool"
        }
      ],
      "stateMutability": "view",
      "type": "function"
    },
    {
      "inputs": [
        {
          "internalType": "address",
          "name": "addr",
          "type": "address"
        }
      ],
      "name": "isRegistered",
      "outputs": [
        {
          "internalType": "bool",
          "name": "",
          "type": "bool"
        }
      ],
      "stateMutability": "view",
      "type": "function"
    },
    {
      "inputs": [
        {
          "internalType": "address",
          "name": "reg",
          "type": "address"
        }
      ],
      "name": "isRegistrar",
      "outputs": [
        {
          "internalType": "bool",
          "name": "",
          "type": "bool"
        }
      ],
      "stateMutability": "view",
      "type": "function"
    },
    {
      "inputs": [
        {
          "components": [
            {
              "internalType": "address",
              "name": "world",
              "type": "address"
            },
            {
              "internalType": "uint256",
              "name": "expiration",
              "type": "uint256"
            },
            {
              "internalType": "bytes",
              "name": "currentRegistrarSignature",
              "type": "bytes"
            },
            {
              "internalType": "bytes",
              "name": "worldSignature",
              "type": "bytes"
            }
          ],
          "internalType": "struct WorldMigrationArgs",
          "name": "args",
          "type": "tuple"
        }
      ],
      "name": "migrateRegistrar",
      "outputs": [],
      "stateMutability": "nonpayable",
      "type": "function"
    },
    {
      "inputs": [],
      "name": "owner",
      "outputs": [
        {
          "internalType": "address",
          "name": "",
          "type": "address"
        }
      ],
      "stateMutability": "view",
      "type": "function"
    },
    {
      "inputs": [
        {
          "internalType": "address",
          "name": "registrar",
          "type": "address"
        }
      ],
      "name": "reactivateRegistrar",
      "outputs": [],
      "stateMutability": "nonpayable",
      "type": "function"
    },
    {
      "inputs": [
        {
          "components": [
            {
              "internalType": "bool",
              "name": "sendTokensToOwner",
              "type": "bool"
            },
            {
              "internalType": "string",
              "name": "name",
              "type": "string"
            },
            {
              "internalType": "address payable",
              "name": "owner",
              "type": "address"
            },
            {
              "internalType": "bytes",
              "name": "initData",
              "type": "bytes"
            }
          ],
          "internalType": "struct CreateRegistrarArgs",
          "name": "args",
          "type": "tuple"
        }
      ],
      "name": "register",
      "outputs": [],
      "stateMutability": "payable",
      "type": "function"
    },
    {
      "inputs": [
        {
          "internalType": "address",
          "name": "",
          "type": "address"
        }
      ],
      "name": "registrars",
      "outputs": [
        {
          "internalType": "bool",
          "name": "",
          "type": "bool"
        }
      ],
      "stateMutability": "view",
      "type": "function"
    },
    {
      "inputs": [
        {
          "internalType": "address",
          "name": "registrar",
          "type": "address"
        }
      ],
      "name": "removeRegistrar",
      "outputs": [],
      "stateMutability": "nonpayable",
      "type": "function"
    },
    {
      "inputs": [
        {
          "internalType": "address",
          "name": "addr",
          "type": "address"
        }
      ],
      "name": "renewRegistrarRegistration",
      "outputs": [],
      "stateMutability": "payable",
      "type": "function"
    },
    {
      "inputs": [
        {
          "internalType": "bytes32",
          "name": "role",
          "type": "bytes32"
        },
        {
          "internalType": "address",
          "name": "callerConfirmation",
          "type": "address"
        }
      ],
      "name": "renounceRole",
      "outputs": [],
      "stateMutability": "nonpayable",
      "type": "function"
    },
    {
      "inputs": [
        {
          "internalType": "bytes32",
          "name": "role",
          "type": "bytes32"
        },
        {
          "internalType": "address",
          "name": "account",
          "type": "address"
        }
      ],
      "name": "revokeRole",
      "outputs": [],
      "stateMutability": "nonpayable",
      "type": "function"
    },
    {
      "inputs": [
        {
          "internalType": "bytes32",
          "name": "termsType",
          "type": "bytes32"
        },
        {
          "components": [
            {
              "internalType": "uint256",
              "name": "fee",
              "type": "uint256"
            },
            {
              "internalType": "uint256",
              "name": "coveragePeriod",
              "type": "uint256"
            },
            {
              "internalType": "uint256",
              "name": "gracePeriod",
              "type": "uint256"
            }
          ],
          "internalType": "struct RegistrationTerms",
          "name": "terms",
          "type": "tuple"
        }
      ],
      "name": "setTerms",
      "outputs": [],
      "stateMutability": "nonpayable",
      "type": "function"
    },
    {
      "inputs": [
        {
          "internalType": "bytes4",
          "name": "interfaceId",
          "type": "bytes4"
        }
      ],
      "name": "supportsInterface",
      "outputs": [
        {
          "internalType": "bool",
          "name": "",
          "type": "bool"
        }
      ],
      "stateMutability": "view",
      "type": "function"
    },
    {
      "inputs": [
        {
          "internalType": "bytes",
          "name": "initData",
          "type": "bytes"
        }
      ],
      "name": "upgradeRegistrar",
      "outputs": [],
      "stateMutability": "nonpayable",
      "type": "function"
    },
    {
      "inputs": [
        {
          "internalType": "uint256",
          "name": "amount",
          "type": "uint256"
        }
      ],
      "name": "withdraw",
      "outputs": [],
      "stateMutability": "nonpayable",
      "type": "function"
    },
    {
      "stateMutability": "payable",
      "type": "receive"
    }
  ],
  "bytecode": "0x60806040523480156200001157600080fd5b506040516200366238038062003662833981016040819052620000349162000399565b600180556001600160a01b038316620000ba5760405162461bcd60e51b815260206004820152603360248201527f52656769737472617252656769737472793a206d61696e41646d696e2063616e60448201527f6e6f74206265207a65726f20616464726573730000000000000000000000000060648201526084015b60405180910390fd5b6001600160a01b0381166200012c5760405162461bcd60e51b815260206004820152603160248201527f52656769737472617252656769737472793a20666163746f72792063616e6e6f60448201527074206265207a65726f206164647265737360781b6064820152608401620000b1565b62000139600084620002a9565b50620001667fa49807205ce4d355092ef5a8a18f56e8913cf4a201fbe287825b095693c2177584620002a9565b50620001826000805160206200364283398151915284620002a9565b50600380546001600160a01b038086166001600160a01b031992831617909255600280549284169290911691909117905560005b82518110156200029f5760006001600160a01b0316838281518110620001e057620001e062000496565b60200260200101516001600160a01b031603620002585760405162461bcd60e51b815260206004820152602f60248201527f52656769737472617252656769737472793a207265676973746572657220636160448201526e6e6e6f74206265206164647265737360881b6064820152608401620000b1565b620002956000805160206200364283398151915284838151811062000281576200028162000496565b6020026020010151620002a960201b60201c565b50600101620001b6565b50505050620004ac565b6000828152602081815260408083206001600160a01b038516845290915281205460ff166200034e576000838152602081815260408083206001600160a01b03861684529091529020805460ff19166001179055620003053390565b6001600160a01b0316826001600160a01b0316847f2f8788117e7eff1d82e926ec794901d17c78024a50270940304540a733656f0d60405160405180910390a450600162000352565b5060005b92915050565b6001600160a01b03811681146200036e57600080fd5b50565b80516200037e8162000358565b919050565b634e487b7160e01b600052604160045260246000fd5b600080600060608486031215620003af57600080fd5b8351620003bc8162000358565b602085810151919450906001600160401b0380821115620003dc57600080fd5b818701915087601f830112620003f157600080fd5b81518181111562000406576200040662000383565b8060051b604051601f19603f830116810181811085821117156200042e576200042e62000383565b60405291825284820192508381018501918a8311156200044d57600080fd5b938501935b828510156200047657620004668562000371565b8452938501939285019262000452565b8097505050505050506200048d6040850162000371565b90509250925092565b634e487b7160e01b600052603260045260246000fd5b61318680620004bc6000396000f3fe6080604052600436106102135760003560e01c806391d1485411610118578063c45a0155116100a0578063d3a875601161006f578063d3a875601461066c578063d547741f14610681578063d5db72eb146106a1578063e2482bf9146106da578063f82e2fb3146106fa57600080fd5b8063c45a0155146105ec578063c4e445d71461060c578063c990b2f91461062c578063ca69bca71461064c57600080fd5b8063b6db923d116100e7578063b6db923d14610538578063ba2eb54114610558578063ba904eed14610578578063bea43e4c14610598578063c3c5a547146105cc57600080fd5b806391d14854146104c3578063a217fddf146104e3578063a3879b03146104f8578063a8c88c171461051857600080fd5b8063593051e91161019b5780636e24e8f51161016a5780636e24e8f5146103ff57806374f533171461041f57806375b238fc1461044157806389aeca76146104755780638da5cb5b146104a557600080fd5b8063593051e91461038c5780635ae13a941461039f5780636369cfe8146103bf5780636be39bda146103d257600080fd5b80632f2ff15d116101e25780632f2ff15d146102ec57806336568abe1461030c57806341f8b6821461032c5780634ec70a481461034c5780635726c94e1461036c57600080fd5b806301ffc9a71461021f5780631b14e01b14610254578063248a9ca31461028c5780632e1a7d4d146102ca57600080fd5b3661021a57005b600080fd5b34801561022b57600080fd5b5061023f61023a366004612a36565b61071a565b60405190151581526020015b60405180910390f35b34801561026057600080fd5b5061027461026f366004612aa6565b610751565b6040516001600160a01b03909116815260200161024b565b34801561029857600080fd5b506102bc6102a7366004612b57565b60009081526020819052604090206001015490565b60405190815260200161024b565b3480156102d657600080fd5b506102ea6102e5366004612b57565b61078a565b005b3480156102f857600080fd5b506102ea610307366004612b85565b610816565b34801561031857600080fd5b506102ea610327366004612b85565b610841565b34801561033857600080fd5b506102ea610347366004612bb5565b610879565b34801561035857600080fd5b506102bc610367366004612bb5565b610a51565b34801561037857600080fd5b506102bc610387366004612bb5565b610b45565b6102ea61039a366004612bea565b610bfc565b3480156103ab57600080fd5b506102ea6103ba366004612c27565b610fd5565b6102ea6103cd366004612bb5565b6110d5565b3480156103de57600080fd5b506103f26103ed366004612b57565b6110ff565b60405161024b9190612c80565b34801561040b57600080fd5b506102ea61041a366004612bb5565b61120d565b34801561042b57600080fd5b506102bc60008051602061313183398151915281565b34801561044d57600080fd5b506102bc7fa49807205ce4d355092ef5a8a18f56e8913cf4a201fbe287825b095693c2177581565b34801561048157600080fd5b5061023f610490366004612bb5565b60046020526000908152604090205460ff1681565b3480156104b157600080fd5b506003546001600160a01b0316610274565b3480156104cf57600080fd5b5061023f6104de366004612b85565b6113d9565b3480156104ef57600080fd5b506102bc600081565b34801561050457600080fd5b506102ea610513366004612bb5565b611402565b34801561052457600080fd5b5061023f610533366004612bb5565b6114f8565b34801561054457600080fd5b5061023f610553366004612bb5565b6115ec565b34801561056457600080fd5b5061023f610573366004612bb5565b6116a3565b34801561058457600080fd5b506102ea610593366004612bb5565b61179e565b3480156105a457600080fd5b506102bc7f233411c0fdd64c33e18cc1153384028aa3f5d8f8f4755e8a9c97384d19243e3a81565b3480156105d857600080fd5b5061023f6105e7366004612bb5565b61181b565b3480156105f857600080fd5b50600254610274906001600160a01b031681565b34801561061857600080fd5b506102ea610627366004612bb5565b6118d2565b34801561063857600080fd5b506102ea610647366004612ca1565b6119c8565b34801561065857600080fd5b506102ea610667366004612bea565b611ab5565b34801561067857600080fd5b506102bc611b58565b34801561068d57600080fd5b506102ea61069c366004612b85565b611bcb565b3480156106ad57600080fd5b5061023f6106bc366004612bb5565b6001600160a01b031660009081526004602052604090205460ff1690565b3480156106e657600080fd5b5061023f6106f5366004612bb5565b611bf0565b34801561070657600080fd5b506103f2610715366004612bb5565b611ca7565b60006001600160e01b03198216637965db0b60e01b148061074b57506301ffc9a760e01b6001600160e01b03198316145b92915050565b6000600561075e83611d80565b60405161076b9190612d37565b908152604051908190036020019020546001600160a01b031692915050565b61079333611df0565b6107b85760405162461bcd60e51b81526004016107af90612d53565b60405180910390fd5b804710156107d85760405162461bcd60e51b81526004016107af90612d98565b6003546040516001600160a01b039091169082156108fc029083906000818181858888f19350505050158015610812573d6000803e3d6000fd5b5050565b60008281526020819052604090206001015461083181611e1c565b61083b8383611e26565b50505050565b6001600160a01b038116331461086a5760405163334bd91960e11b815260040160405180910390fd5b6108748282611eb8565b505050565b600073__$d81eab81c4f96e94de97b51155a369ac43$__6386d5c4be6040518163ffffffff1660e01b8152600401602060405180830381865af41580156108c4573d6000803e3d6000fd5b505050506040513d601f19601f820116820180604052508101906108e89190612ddc565b60405163496fc44560e11b8152600481018290526001600160a01b038416602482015290915073__$d81eab81c4f96e94de97b51155a369ac43$__906392df888a90604401602060405180830381865af415801561094a573d6000803e3d6000fd5b505050506040513d601f19601f8201168201806040525081019061096e9190612e03565b6109c65760405162461bcd60e51b815260206004820152602360248201527f42617365526567697374726174696f6e3a2063616e6e6f74206465616374697660448201526261746560e81b60648201526084016107af565b816001600160a01b03166351b42b006040518163ffffffff1660e01b8152600401600060405180830381600087803b158015610a0157600080fd5b505af1158015610a15573d6000803e3d6000fd5b50506040516001600160a01b03851692507f7709ffacb019fa83579ef81329b77183a5cf551288b670f2e66208f4e878001e9150600090a25050565b600073__$d81eab81c4f96e94de97b51155a369ac43$__6386d5c4be6040518163ffffffff1660e01b8152600401602060405180830381865af4158015610a9c573d6000803e3d6000fd5b505050506040513d601f19601f82011682018060405250810190610ac09190612ddc565b604051637edcd54b60e01b815260048101919091526001600160a01b038316602482015273__$d81eab81c4f96e94de97b51155a369ac43$__90637edcd54b906044015b602060405180830381865af4158015610b21573d6000803e3d6000fd5b505050506040513d601f19601f8201168201806040525081019061074b9190612ddc565b600073__$d81eab81c4f96e94de97b51155a369ac43$__6386d5c4be6040518163ffffffff1660e01b8152600401602060405180830381865af4158015610b90573d6000803e3d6000fd5b505050506040513d601f19601f82011682018060405250810190610bb49190612ddc565b60405163034eb5ed60e61b815260048101919091526001600160a01b038316602482015273__$d81eab81c4f96e94de97b51155a369ac43$__9063d3ad7b4090604401610b04565b610c14600080516020613131833981519152336113d9565b610c305760405162461bcd60e51b81526004016107af90612e20565b610c38611f23565b6000610c4a6060830160408401612bb5565b6001600160a01b031603610cb85760405162461bcd60e51b815260206004820152602f60248201527f52656769737472617252656769737472793a206f776e65722063616e6e6f742060448201526e6265207a65726f206164647265737360881b60648201526084016107af565b6000610d04610cca6020840184612e6d565b8080601f016020809104026020016040519081016040528093929190818152602001838380828437600092019190915250611d8092505050565b905060006001600160a01b0316600582604051610d219190612d37565b908152604051908190036020019020546001600160a01b031614610da05760405162461bcd60e51b815260206004820152603060248201527f52656769737472617252656769737472793a20726567697374726172206e616d60448201526f6520616c72656164792065786973747360801b60648201526084016107af565b6002546000906001600160a01b03166327138081610dc16020860186612e6d565b610dce6060880188612e6d565b6040518563ffffffff1660e01b8152600401610ded9493929190612ee4565b6020604051808303816000875af1158015610e0c573d6000803e3d6000fd5b505050506040513d601f19601f82011682018060405250810190610e309190612f16565b90506001600160a01b038116610ea45760405162461bcd60e51b815260206004820152603360248201527f52656769737472617252656769737472793a207265676973747261722063616e6044820152726e6f74206265207a65726f206164647265737360681b60648201526084016107af565b3415610f4157610eb76020840184612f33565b15610f0a57610ecc6060840160408501612bb5565b6001600160a01b03166108fc349081150290604051600060405180830381858888f19350505050158015610f04573d6000803e3d6000fd5b50610f41565b6040516001600160a01b038216903480156108fc02916000818181858888f19350505050158015610f3f573d6000803e3d6000fd5b505b610f6b7f233411c0fdd64c33e18cc1153384028aa3f5d8f8f4755e8a9c97384d19243e3a82611f4d565b610f7b6060840160408501612bb5565b6001600160a01b0316816001600160a01b03167fc5e959f904a1dcfebdcbb0700c65be3ca0b06041ed01b109d193d9a8c9e6376434604051610fbf91815260200190565b60405180910390a35050610fd260018055565b50565b610fde33611df0565b610ffa5760405162461bcd60e51b81526004016107af90612d53565b73__$d81eab81c4f96e94de97b51155a369ac43$__6386d5c4be6040518163ffffffff1660e01b8152600401602060405180830381865af4158015611043573d6000803e3d6000fd5b505050506040513d601f19601f820116820180604052508101906110679190612ddc565b604051633ca52ad360e11b815273__$d81eab81c4f96e94de97b51155a369ac43$__9163794a55a6916110a1919086908690600401612f50565b60006040518083038186803b1580156110b957600080fd5b505af41580156110cd573d6000803e3d6000fd5b505050505050565b610fd27f233411c0fdd64c33e18cc1153384028aa3f5d8f8f4755e8a9c97384d19243e3a82612009565b61112360405180606001604052806000815260200160008152602001600081525090565b73__$d81eab81c4f96e94de97b51155a369ac43$__6386d5c4be6040518163ffffffff1660e01b8152600401602060405180830381865af415801561116c573d6000803e3d6000fd5b505050506040513d601f19601f820116820180604052508101906111909190612ddc565b6040516343b8717f60e11b815260048101919091526024810183905273__$d81eab81c4f96e94de97b51155a369ac43$__90638770e2fe906044015b606060405180830381865af41580156111e9573d6000803e3d6000fd5b505050506040513d601f19601f8201168201806040525081019061074b9190612f7f565b600073__$d81eab81c4f96e94de97b51155a369ac43$__6386d5c4be6040518163ffffffff1660e01b8152600401602060405180830381865af4158015611258573d6000803e3d6000fd5b505050506040513d601f19601f8201168201806040525081019061127c9190612ddc565b604051632ca4e79b60e01b8152600481018290526001600160a01b038416602482015290915073__$d81eab81c4f96e94de97b51155a369ac43$__90632ca4e79b90604401602060405180830381865af41580156112de573d6000803e3d6000fd5b505050506040513d601f19601f820116820180604052508101906113029190612e03565b61134e5760405162461bcd60e51b815260206004820152601f60248201527f42617365526567697374726174696f6e3a2063616e6e6f742072656d6f76650060448201526064016107af565b816001600160a01b03166351b42b006040518163ffffffff1660e01b8152600401600060405180830381600087803b15801561138957600080fd5b505af115801561139d573d6000803e3d6000fd5b50506040516001600160a01b03851692507f24a12366c02e13fe4a9e03d86a8952e85bb74a456c16e4a18b6d8295700b74bb9150600090a25050565b6000918252602082815260408084206001600160a01b0393909316845291905290205460ff1690565b61141a600080516020613131833981519152336113d9565b6114365760405162461bcd60e51b81526004016107af90612e20565b6001600160a01b03811660009081526004602052604090205460ff1661146e5760405162461bcd60e51b81526004016107af90612fbb565b806001600160a01b03166351b42b006040518163ffffffff1660e01b8152600401600060405180830381600087803b1580156114a957600080fd5b505af11580156114bd573d6000803e3d6000fd5b50506040516001600160a01b03841692507f6c944de2f88cfed148e1497e0d0a3d0682a73925ded9bb406a7b1f707af308529150600090a250565b600073__$d81eab81c4f96e94de97b51155a369ac43$__6386d5c4be6040518163ffffffff1660e01b8152600401602060405180830381865af4158015611543573d6000803e3d6000fd5b505050506040513d601f19601f820116820180604052508101906115679190612ddc565b604051632ca4e79b60e01b815260048101919091526001600160a01b038316602482015273__$d81eab81c4f96e94de97b51155a369ac43$__90632ca4e79b906044015b602060405180830381865af41580156115c8573d6000803e3d6000fd5b505050506040513d601f19601f8201168201806040525081019061074b9190612e03565b600073__$d81eab81c4f96e94de97b51155a369ac43$__6386d5c4be6040518163ffffffff1660e01b8152600401602060405180830381865af4158015611637573d6000803e3d6000fd5b505050506040513d601f19601f8201168201806040525081019061165b9190612ddc565b60405163496fc44560e11b815260048101919091526001600160a01b038316602482015273__$d81eab81c4f96e94de97b51155a369ac43$__906392df888a906044016115ab565b60004273__$d81eab81c4f96e94de97b51155a369ac43$__6386d5c4be6040518163ffffffff1660e01b8152600401602060405180830381865af41580156116ef573d6000803e3d6000fd5b505050506040513d601f19601f820116820180604052508101906117139190612ddc565b604051637edcd54b60e01b815260048101919091526001600160a01b038416602482015273__$d81eab81c4f96e94de97b51155a369ac43$__90637edcd54b90604401602060405180830381865af4158015611773573d6000803e3d6000fd5b505050506040513d601f19601f820116820180604052508101906117979190612ddc565b1092915050565b6117b6600080516020613131833981519152336113d9565b6117d25760405162461bcd60e51b81526004016107af90612e20565b6001600160a01b038116600081815260046020526040808220805460ff19169055517f7a10717b3fc89c8473f417dce9dc833cc99c47761d9404749619267ecbf346869190a250565b600073__$d81eab81c4f96e94de97b51155a369ac43$__6386d5c4be6040518163ffffffff1660e01b8152600401602060405180830381865af4158015611866573d6000803e3d6000fd5b505050506040513d601f19601f8201168201806040525081019061188a9190612ddc565b6040516353f9752960e01b815260048101919091526001600160a01b038316602482015273__$d81eab81c4f96e94de97b51155a369ac43$__906353f97529906044016115ab565b6118ea600080516020613131833981519152336113d9565b6119065760405162461bcd60e51b81526004016107af90612e20565b6001600160a01b03811660009081526004602052604090205460ff1661193e5760405162461bcd60e51b81526004016107af90612fbb565b806001600160a01b031663d18611d66040518163ffffffff1660e01b8152600401600060405180830381600087803b15801561197957600080fd5b505af115801561198d573d6000803e3d6000fd5b50506040516001600160a01b03841692507f284e4498b0f30c0b6b069b1bb0d330149ec7a9f4b030d36809a0a3a83eae538a9150600090a250565b3360009081526004602052604090205460ff166119f75760405162461bcd60e51b81526004016107af90613006565b60025460405163bff5a0f960e01b81526000916001600160a01b03169063bff5a0f990611a2c90339087908790600401613054565b6020604051808303816000875af1158015611a4b573d6000803e3d6000fd5b505050506040513d601f19601f82011682018060405250810190611a6f9190612f16565b6040516001600160a01b038216815290915033907f03a710f2b2e72b3ec04c32ee095d4183f7c2a62793c02de28a21b77e645426839060200160405180910390a2505050565b3360009081526004602052604090205460ff16611ae45760405162461bcd60e51b81526004016107af90613006565b611aed81612264565b611afa6020820182612bb5565b60405163d713a53360e01b81523360048201526001600160a01b03919091169063d713a53390602401600060405180830381600087803b158015611b3d57600080fd5b505af1158015611b51573d6000803e3d6000fd5b5050505050565b6002546040805163e921c27560e01b815290516000926001600160a01b03169163e921c2759160048083019260209291908290030181865afa158015611ba2573d6000803e3d6000fd5b505050506040513d601f19601f82011682018060405250810190611bc69190612ddc565b905090565b600082815260208190526040902060010154611be681611e1c565b61083b8383611eb8565b600073__$d81eab81c4f96e94de97b51155a369ac43$__6386d5c4be6040518163ffffffff1660e01b8152600401602060405180830381865af4158015611c3b573d6000803e3d6000fd5b505050506040513d601f19601f82011682018060405250810190611c5f9190612ddc565b60405163b76ee61f60e01b815260048101919091526001600160a01b038316602482015273__$d81eab81c4f96e94de97b51155a369ac43$__9063b76ee61f906044016115ab565b611ccb60405180606001604052806000815260200160008152602001600081525090565b73__$d81eab81c4f96e94de97b51155a369ac43$__6386d5c4be6040518163ffffffff1660e01b8152600401602060405180830381865af4158015611d14573d6000803e3d6000fd5b505050506040513d601f19601f82011682018060405250810190611d389190612ddc565b604051630cc5aa5b60e41b815260048101919091526001600160a01b038316602482015273__$d81eab81c4f96e94de97b51155a369ac43$__9063cc5aa5b0906044016111cc565b60608160005b8151811015611de957611db8828281518110611da457611da4613082565b01602001516001600160f81b031916612609565b828281518110611dca57611dca613082565b60200101906001600160f81b031916908160001a905350600101611d86565b5092915050565b600061074b7fa49807205ce4d355092ef5a8a18f56e8913cf4a201fbe287825b095693c21775836113d9565b610fd28133612658565b6000611e3283836113d9565b611eb0576000838152602081815260408083206001600160a01b03861684529091529020805460ff19166001179055611e683390565b6001600160a01b0316826001600160a01b0316847f2f8788117e7eff1d82e926ec794901d17c78024a50270940304540a733656f0d60405160405180910390a450600161074b565b50600061074b565b6000611ec483836113d9565b15611eb0576000838152602081815260408083206001600160a01b0386168085529252808320805460ff1916905551339286917ff6391f5c32d9c69d2a47ea670b442974b53935d1edc7fd64eb21e047a839171b9190a450600161074b565b600260015403611f4657604051633ee5aeb560e01b815260040160405180910390fd5b6002600155565b73__$d81eab81c4f96e94de97b51155a369ac43$__6386d5c4be6040518163ffffffff1660e01b8152600401602060405180830381865af4158015611f96573d6000803e3d6000fd5b505050506040513d601f19601f82011682018060405250810190611fba9190612ddc565b6040516332fee6bf60e11b81526004810191909152602481018390526001600160a01b038216604482015273__$d81eab81c4f96e94de97b51155a369ac43$__906365fdcd7e906064016110a1565b600073__$d81eab81c4f96e94de97b51155a369ac43$__6386d5c4be6040518163ffffffff1660e01b8152600401602060405180830381865af4158015612054573d6000803e3d6000fd5b505050506040513d601f19601f820116820180604052508101906120789190612ddc565b6040516353f9752960e01b8152600481018290526001600160a01b038416602482015290915073__$d81eab81c4f96e94de97b51155a369ac43$__906353f9752990604401602060405180830381865af41580156120da573d6000803e3d6000fd5b505050506040513d601f19601f820116820180604052508101906120fe9190612e03565b61214a5760405162461bcd60e51b815260206004820181905260248201527f42617365526567697374726174696f6e3a206e6f74207265676973746572656460448201526064016107af565b6000838152602082905260409020543410156121785760405162461bcd60e51b81526004016107af90612d98565b73__$d81eab81c4f96e94de97b51155a369ac43$__6386d5c4be6040518163ffffffff1660e01b8152600401602060405180830381865af41580156121c1573d6000803e3d6000fd5b505050506040513d601f19601f820116820180604052508101906121e59190612ddc565b604051633eb6fb8760e01b81526004810191909152602481018490526001600160a01b038316604482015273__$d81eab81c4f96e94de97b51155a369ac43$__90633eb6fb879060640160006040518083038186803b15801561224757600080fd5b505af415801561225b573d6000803e3d6000fd5b50505050505050565b428160200135116122c65760405162461bcd60e51b815260206004820152602660248201527f5265676973747261723a206d6967726174696f6e207369676e617475726520656044820152651e1c1a5c995960d21b60648201526084016107af565b60006122d56020830183612bb5565b90506000816001600160a01b0316632b20e3976040518163ffffffff1660e01b8152600401602060405180830381865afa158015612317573d6000803e3d6000fd5b505050506040513d601f19601f8201168201806040525081019061233b9190612f16565b9050600061234c6020850185612bb5565b604080516001600160a01b039092166020838101919091523091830191909152850135606082015260800160408051808303601f1901815282825280516020918201208184528383019092529092506000919060208201818036833701905050905081602082015260006123bf82612691565b90506123ce6040870187612e6d565b90506000036124b357836001600160a01b03166322f3e2d46040518163ffffffff1660e01b8152600401602060405180830381865afa158015612415573d6000803e3d6000fd5b505050506040513d601f19601f820116820180604052508101906124399190612e03565b156124ae576040805162461bcd60e51b81526020600482015260248101919091527f5265676973747261723a2063757272656e74207265676973747261722069732060448201527f61637469766520627574206e6f207369676e61747572652070726f766964656460648201526084016107af565b61257c565b6000612500826124c660408a018a612e6d565b8080601f0160208091040260200160405190810160405280939291908181526020018383808284376000920191909152506126cc92505050565b9050846001600160a01b0316816001600160a01b03161461257a5760405162461bcd60e51b815260206004820152602e60248201527f5265676973747261723a2063757272656e74207265676973747261722073696760448201526d1b985d1d5c99481a5b9d985b1a5960921b60648201526084016107af565b505b600061258f826124c660608a018a612e6d565b905061259e6020880188612bb5565b6001600160a01b0316816001600160a01b03161461225b5760405162461bcd60e51b815260206004820152602260248201527f5265676973747261723a20776f726c64207369676e617475726520696e76616c6044820152611a5960f21b60648201526084016107af565b6000604160f81b6001600160f81b03198316108015906126375750602d60f91b6001600160f81b0319831611155b156126545761264b60f883901c6020613098565b60f81b92915050565b5090565b61266282826113d9565b6108125760405163e2517d3f60e01b81526001600160a01b0382166004820152602481018390526044016107af565b600061269d82516126f6565b826040516020016126af9291906130bf565b604051602081830303815290604052805190602001209050919050565b6000806000806126dc8686612789565b9250925092506126ec82826127d6565b5090949350505050565b606060006127038361288f565b600101905060008167ffffffffffffffff81111561272357612723612a67565b6040519080825280601f01601f19166020018201604052801561274d576020820181803683370190505b5090508181016020015b600019016f181899199a1a9b1b9c1cb0b131b232b360811b600a86061a8153600a850494508461275757509392505050565b600080600083516041036127c35760208401516040850151606086015160001a6127b588828585612967565b9550955095505050506127cf565b50508151600091506002905b9250925092565b60008260038111156127ea576127ea61311a565b036127f3575050565b60018260038111156128075761280761311a565b036128255760405163f645eedf60e01b815260040160405180910390fd5b60028260038111156128395761283961311a565b0361285a5760405163fce698f760e01b8152600481018290526024016107af565b600382600381111561286e5761286e61311a565b03610812576040516335e2f38360e21b8152600481018290526024016107af565b60008072184f03e93ff9f4daa797ed6e38ed64bf6a1f0160401b83106128ce5772184f03e93ff9f4daa797ed6e38ed64bf6a1f0160401b830492506040015b6d04ee2d6d415b85acef810000000083106128fa576d04ee2d6d415b85acef8100000000830492506020015b662386f26fc10000831061291857662386f26fc10000830492506010015b6305f5e1008310612930576305f5e100830492506008015b612710831061294457612710830492506004015b60648310612956576064830492506002015b600a831061074b5760010192915050565b600080807f7fffffffffffffffffffffffffffffff5d576e7357a4501ddfe92f46681b20a08411156129a25750600091506003905082612a2c565b604080516000808252602082018084528a905260ff891692820192909252606081018790526080810186905260019060a0016020604051602081039080840390855afa1580156129f6573d6000803e3d6000fd5b5050604051601f1901519150506001600160a01b038116612a2257506000925060019150829050612a2c565b9250600091508190505b9450945094915050565b600060208284031215612a4857600080fd5b81356001600160e01b031981168114612a6057600080fd5b9392505050565b634e487b7160e01b600052604160045260246000fd5b6040516060810167ffffffffffffffff81118282101715612aa057612aa0612a67565b60405290565b600060208284031215612ab857600080fd5b813567ffffffffffffffff80821115612ad057600080fd5b818401915084601f830112612ae457600080fd5b813581811115612af657612af6612a67565b604051601f8201601f19908116603f01168101908382118183101715612b1e57612b1e612a67565b81604052828152876020848701011115612b3757600080fd5b826020860160208301376000928101602001929092525095945050505050565b600060208284031215612b6957600080fd5b5035919050565b6001600160a01b0381168114610fd257600080fd5b60008060408385031215612b9857600080fd5b823591506020830135612baa81612b70565b809150509250929050565b600060208284031215612bc757600080fd5b8135612a6081612b70565b600060808284031215612be457600080fd5b50919050565b600060208284031215612bfc57600080fd5b813567ffffffffffffffff811115612c1357600080fd5b612c1f84828501612bd2565b949350505050565b6000808284036080811215612c3b57600080fd5b833592506060601f1982011215612c5157600080fd5b50612c5a612a7d565b602084013581526040840135602082015260608401356040820152809150509250929050565b8151815260208083015190820152604080830151908201526060810161074b565b60008060208385031215612cb457600080fd5b823567ffffffffffffffff80821115612ccc57600080fd5b818501915085601f830112612ce057600080fd5b813581811115612cef57600080fd5b866020828501011115612d0157600080fd5b60209290920196919550909350505050565b60005b83811015612d2e578181015183820152602001612d16565b50506000910152565b60008251612d49818460208701612d13565b9190910192915050565b60208082526025908201527f42617365526567697374726174696f6e3a2063616c6c6572206973206e6f742060408201526430b236b4b760d91b606082015260800190565b60208082526024908201527f42617365526567697374726174696f6e3a20696e73756666696369656e742066604082015263756e647360e01b606082015260800190565b600060208284031215612dee57600080fd5b5051919050565b8015158114610fd257600080fd5b600060208284031215612e1557600080fd5b8151612a6081612df5565b6020808252602d908201527f52656769737472617252656769737472793a2063616c6c6572206973206e6f7460408201526c1030903932b3b4b9ba32b932b960991b606082015260800190565b6000808335601e19843603018112612e8457600080fd5b83018035915067ffffffffffffffff821115612e9f57600080fd5b602001915036819003821315612eb457600080fd5b9250929050565b81835281816020850137506000828201602090810191909152601f909101601f19169091010190565b604081526000612ef8604083018688612ebb565b8281036020840152612f0b818587612ebb565b979650505050505050565b600060208284031215612f2857600080fd5b8151612a6081612b70565b600060208284031215612f4557600080fd5b8135612a6081612df5565b8381526020810183905260a08101612c1f60408301848051825260208082015190830152604090810151910152565b600060608284031215612f9157600080fd5b612f99612a7d565b8251815260208301516020820152604083015160408201528091505092915050565b6020808252602b908201527f52656769737472617252656769737472793a2072656769737472617220646f6560408201526a1cc81b9bdd08195e1a5cdd60aa1b606082015260800190565b6020808252602e908201527f52656769737472617252656769737472793a207265676973747261722069642060408201526d191bd95cc81b9bdd08195e1a5cdd60921b606082015260800190565b6001600160a01b03841681526040602082018190526000906130799083018486612ebb565b95945050505050565b634e487b7160e01b600052603260045260246000fd5b60ff818116838216019081111561074b57634e487b7160e01b600052601160045260246000fd5b7f19457468657265756d205369676e6564204d6573736167653a0a0000000000008152600083516130f781601a850160208801612d13565b83519083019061310e81601a840160208801612d13565b01601a01949350505050565b634e487b7160e01b600052602160045260246000fdfed1f21ec03a6eb050fba156f5316dad461735df521fb446dd42c5a4728e9c70fea26469706673582212203355fd8f689c6111c55ce63b269c0912a25465908e07656130bde34bbf54f38f64736f6c63430008180033d1f21ec03a6eb050fba156f5316dad461735df521fb446dd42c5a4728e9c70fe",
  "linkReferences": {
    "contracts/libraries/LibRegistration.sol": {
      "LibRegistration": [
        {
          "length": 20,
          "start": 3385
        },
        {
          "length": 20,
          "start": 3532
        },
        {
          "length": 20,
          "start": 3857
        },
        {
          "length": 20,
          "start": 4002
        },
        {
          "length": 20,
          "start": 4101
        },
        {
          "length": 20,
          "start": 4246
        },
        {
          "length": 20,
          "start": 5304
        },
        {
          "length": 20,
          "start": 5426
        },
        {
          "length": 20,
          "start": 5601
        },
        {
          "length": 20,
          "start": 5738
        },
        {
          "length": 20,
          "start": 5837
        },
        {
          "length": 20,
          "start": 5984
        },
        {
          "length": 20,
          "start": 6584
        },
        {
          "length": 20,
          "start": 6729
        },
        {
          "length": 20,
          "start": 6828
        },
        {
          "length": 20,
          "start": 6973
        },
        {
          "length": 20,
          "start": 7012
        },
        {
          "length": 20,
          "start": 7157
        },
        {
          "length": 20,
          "start": 7387
        },
        {
          "length": 20,
          "start": 7532
        },
        {
          "length": 20,
          "start": 8368
        },
        {
          "length": 20,
          "start": 8513
        },
        {
          "length": 20,
          "start": 8585
        },
        {
          "length": 20,
          "start": 8730
        },
        {
          "length": 20,
          "start": 9227
        },
        {
          "length": 20,
          "start": 9379
        },
        {
          "length": 20,
          "start": 9417
        },
        {
          "length": 20,
          "start": 9564
        },
        {
          "length": 20,
          "start": 9782
        },
        {
          "length": 20,
          "start": 9934
        }
      ]
    }
  },
  "deployedLinkReferences": {
    "contracts/libraries/LibRegistration.sol": {
      "LibRegistration": [
        {
          "length": 20,
          "start": 2173
        },
        {
          "length": 20,
          "start": 2320
        },
        {
          "length": 20,
          "start": 2645
        },
        {
          "length": 20,
          "start": 2790
        },
        {
          "length": 20,
          "start": 2889
        },
        {
          "length": 20,
          "start": 3034
        },
        {
          "length": 20,
          "start": 4092
        },
        {
          "length": 20,
          "start": 4214
        },
        {
          "length": 20,
          "start": 4389
        },
        {
          "length": 20,
          "start": 4526
        },
        {
          "length": 20,
          "start": 4625
        },
        {
          "length": 20,
          "start": 4772
        },
        {
          "length": 20,
          "start": 5372
        },
        {
          "length": 20,
          "start": 5517
        },
        {
          "length": 20,
          "start": 5616
        },
        {
          "length": 20,
          "start": 5761
        },
        {
          "length": 20,
          "start": 5800
        },
        {
          "length": 20,
          "start": 5945
        },
        {
          "length": 20,
          "start": 6175
        },
        {
          "length": 20,
          "start": 6320
        },
        {
          "length": 20,
          "start": 7156
        },
        {
          "length": 20,
          "start": 7301
        },
        {
          "length": 20,
          "start": 7373
        },
        {
          "length": 20,
          "start": 7518
        },
        {
          "length": 20,
          "start": 8015
        },
        {
          "length": 20,
          "start": 8167
        },
        {
          "length": 20,
          "start": 8205
        },
        {
          "length": 20,
          "start": 8352
        },
        {
          "length": 20,
          "start": 8570
        },
        {
          "length": 20,
          "start": 8722
        }
      ]
    }
  }
}