{
  "_format": "hh-sol-artifact-1",
  "contractName": "RegistrarRegistry",
  "sourceName": "contracts/registrar/registry/RegistrarRegistry.sol",
  "abi": [
    {
      "anonymous": false,
      "inputs": [
        {
          "indexed": true,
          "internalType": "address",
          "name": "entity",
          "type": "address"
        },
        {
          "indexed": true,
          "internalType": "address",
          "name": "by",
          "type": "address"
        }
      ],
      "name": "EntityRegistrationRenewed",
      "type": "event"
    },
    {
      "anonymous": false,
      "inputs": [
        {
          "indexed": true,
          "internalType": "address",
          "name": "world",
          "type": "address"
        },
        {
          "indexed": false,
          "internalType": "string",
          "name": "reason",
          "type": "string"
        }
      ],
      "name": "RegistrarDeactivatedWorld",
      "type": "event"
    },
    {
      "anonymous": false,
      "inputs": [
        {
          "indexed": true,
          "internalType": "address",
          "name": "world",
          "type": "address"
        }
      ],
      "name": "RegistrarReactivatedWorld",
      "type": "event"
    },
    {
      "anonymous": false,
      "inputs": [
        {
          "indexed": true,
          "internalType": "address",
          "name": "world",
          "type": "address"
        },
        {
          "indexed": false,
          "internalType": "string",
          "name": "reason",
          "type": "string"
        }
      ],
      "name": "RegistrarRemovedWorld",
      "type": "event"
    },
    {
      "anonymous": false,
      "inputs": [
        {
          "indexed": true,
          "internalType": "address",
          "name": "entity",
          "type": "address"
        },
        {
          "indexed": true,
          "internalType": "address",
          "name": "owner",
          "type": "address"
        }
      ],
      "name": "RegistryAddedEntity",
      "type": "event"
    },
    {
      "anonymous": false,
      "inputs": [
        {
          "indexed": true,
          "internalType": "address",
          "name": "entity",
          "type": "address"
        },
        {
          "indexed": false,
          "internalType": "string",
          "name": "reason",
          "type": "string"
        }
      ],
      "name": "RegistryDeactivatedEntity",
      "type": "event"
    },
    {
      "anonymous": false,
      "inputs": [
        {
          "indexed": true,
          "internalType": "address",
          "name": "entity",
          "type": "address"
        }
      ],
      "name": "RegistryEnforcedDeactivation",
      "type": "event"
    },
    {
      "anonymous": false,
      "inputs": [
        {
          "indexed": true,
          "internalType": "address",
          "name": "entity",
          "type": "address"
        }
      ],
      "name": "RegistryEnforcedRemoval",
      "type": "event"
    },
    {
      "anonymous": false,
      "inputs": [
        {
          "indexed": true,
          "internalType": "address",
          "name": "entity",
          "type": "address"
        }
      ],
      "name": "RegistryReactivatedEntity",
      "type": "event"
    },
    {
      "anonymous": false,
      "inputs": [
        {
          "indexed": true,
          "internalType": "address",
          "name": "entity",
          "type": "address"
        },
        {
          "indexed": false,
          "internalType": "string",
          "name": "reason",
          "type": "string"
        }
      ],
      "name": "RegistryRemovedEntity",
      "type": "event"
    },
    {
      "inputs": [
        {
          "internalType": "address[]",
          "name": "signers",
          "type": "address[]"
        }
      ],
      "name": "addSigners",
      "outputs": [],
      "stateMutability": "nonpayable",
      "type": "function"
    },
    {
      "inputs": [
        {
          "internalType": "address",
          "name": "addr",
          "type": "address"
        }
      ],
      "name": "canBeDeactivated",
      "outputs": [
        {
          "internalType": "bool",
          "name": "",
          "type": "bool"
        }
      ],
      "stateMutability": "view",
      "type": "function"
    },
    {
      "inputs": [
        {
          "internalType": "address",
          "name": "addr",
          "type": "address"
        }
      ],
      "name": "canBeRemoved",
      "outputs": [
        {
          "internalType": "bool",
          "name": "",
          "type": "bool"
        }
      ],
      "stateMutability": "view",
      "type": "function"
    },
    {
      "inputs": [
        {
          "components": [
            {
              "internalType": "address",
              "name": "entity",
              "type": "address"
            },
            {
              "internalType": "bytes",
              "name": "entitySignature",
              "type": "bytes"
            },
            {
              "internalType": "uint256",
              "name": "expiration",
              "type": "uint256"
            },
            {
              "components": [
                {
                  "internalType": "uint16",
                  "name": "coveragePeriodDays",
                  "type": "uint16"
                },
                {
                  "internalType": "uint16",
                  "name": "gracePeriodDays",
                  "type": "uint16"
                },
                {
                  "internalType": "uint256",
                  "name": "fee",
                  "type": "uint256"
                }
              ],
              "internalType": "struct RegistrationTerms",
              "name": "terms",
              "type": "tuple"
            }
          ],
          "internalType": "struct ChangeEntityTermsArgs",
          "name": "args",
          "type": "tuple"
        }
      ],
      "name": "changeEntityTerms",
      "outputs": [],
      "stateMutability": "nonpayable",
      "type": "function"
    },
    {
      "inputs": [
        {
          "internalType": "address",
          "name": "newOwner",
          "type": "address"
        }
      ],
      "name": "changeOwner",
      "outputs": [],
      "stateMutability": "nonpayable",
      "type": "function"
    },
    {
      "inputs": [
        {
          "components": [
            {
              "internalType": "bool",
              "name": "sendTokensToOwner",
              "type": "bool"
            },
            {
              "internalType": "address",
              "name": "owner",
              "type": "address"
            },
            {
              "internalType": "string",
              "name": "name",
              "type": "string"
            },
            {
              "internalType": "bytes",
              "name": "initData",
              "type": "bytes"
            }
          ],
          "internalType": "struct CreateNonRemovableRegistrarArgs",
          "name": "args",
          "type": "tuple"
        }
      ],
      "name": "createNonRemovableRegistrar",
      "outputs": [
        {
          "internalType": "address",
          "name": "",
          "type": "address"
        }
      ],
      "stateMutability": "payable",
      "type": "function"
    },
    {
      "inputs": [
        {
          "components": [
            {
              "internalType": "bool",
              "name": "sendTokensToOwner",
              "type": "bool"
            },
            {
              "internalType": "address",
              "name": "owner",
              "type": "address"
            },
            {
              "internalType": "uint256",
              "name": "expiration",
              "type": "uint256"
            },
            {
              "components": [
                {
                  "internalType": "uint16",
                  "name": "coveragePeriodDays",
                  "type": "uint16"
                },
                {
                  "internalType": "uint16",
                  "name": "gracePeriodDays",
                  "type": "uint16"
                },
                {
                  "internalType": "uint256",
                  "name": "fee",
                  "type": "uint256"
                }
              ],
              "internalType": "struct RegistrationTerms",
              "name": "terms",
              "type": "tuple"
            },
            {
              "internalType": "string",
              "name": "name",
              "type": "string"
            },
            {
              "internalType": "bytes",
              "name": "initData",
              "type": "bytes"
            },
            {
              "internalType": "bytes",
              "name": "ownerTermsSignature",
              "type": "bytes"
            }
          ],
          "internalType": "struct CreateRegistrarArgs",
          "name": "args",
          "type": "tuple"
        }
      ],
      "name": "createRemovableRegistrar",
      "outputs": [
        {
          "internalType": "address",
          "name": "",
          "type": "address"
        }
      ],
      "stateMutability": "payable",
      "type": "function"
    },
    {
      "inputs": [
        {
          "internalType": "contract IRemovableEntity",
          "name": "entity",
          "type": "address"
        },
        {
          "internalType": "string",
          "name": "reason",
          "type": "string"
        }
      ],
      "name": "deactivateEntity",
      "outputs": [],
      "stateMutability": "nonpayable",
      "type": "function"
    },
    {
      "inputs": [
        {
          "internalType": "contract IRemovableEntity",
          "name": "addr",
          "type": "address"
        }
      ],
      "name": "enforceDeactivation",
      "outputs": [],
      "stateMutability": "nonpayable",
      "type": "function"
    },
    {
      "inputs": [
        {
          "internalType": "contract IRemovableEntity",
          "name": "e",
          "type": "address"
        }
      ],
      "name": "enforceRemoval",
      "outputs": [],
      "stateMutability": "nonpayable",
      "type": "function"
    },
    {
      "inputs": [
        {
          "internalType": "string",
          "name": "name",
          "type": "string"
        }
      ],
      "name": "getEntityByName",
      "outputs": [
        {
          "internalType": "address",
          "name": "",
          "type": "address"
        }
      ],
      "stateMutability": "view",
      "type": "function"
    },
    {
      "inputs": [],
      "name": "getEntityImplementation",
      "outputs": [
        {
          "internalType": "address",
          "name": "",
          "type": "address"
        }
      ],
      "stateMutability": "view",
      "type": "function"
    },
    {
      "inputs": [
        {
          "internalType": "address",
          "name": "addr",
          "type": "address"
        }
      ],
      "name": "getEntityTerms",
      "outputs": [
        {
          "components": [
            {
              "internalType": "uint16",
              "name": "coveragePeriodDays",
              "type": "uint16"
            },
            {
              "internalType": "uint16",
              "name": "gracePeriodDays",
              "type": "uint16"
            },
            {
              "internalType": "uint256",
              "name": "fee",
              "type": "uint256"
            }
          ],
          "internalType": "struct RegistrationTerms",
          "name": "",
          "type": "tuple"
        }
      ],
      "stateMutability": "view",
      "type": "function"
    },
    {
      "inputs": [],
      "name": "getEntityVersion",
      "outputs": [
        {
          "components": [
            {
              "internalType": "uint16",
              "name": "major",
              "type": "uint16"
            },
            {
              "internalType": "uint16",
              "name": "minor",
              "type": "uint16"
            }
          ],
          "internalType": "struct Version",
          "name": "",
          "type": "tuple"
        }
      ],
      "stateMutability": "view",
      "type": "function"
    },
    {
      "inputs": [
        {
          "internalType": "address",
          "name": "addr",
          "type": "address"
        }
      ],
      "name": "getExpiration",
      "outputs": [
        {
          "internalType": "uint256",
          "name": "",
          "type": "uint256"
        }
      ],
      "stateMutability": "view",
      "type": "function"
    },
    {
      "inputs": [
        {
          "internalType": "address",
          "name": "addr",
          "type": "address"
        }
      ],
      "name": "getLastRenewal",
      "outputs": [
        {
          "internalType": "uint256",
          "name": "",
          "type": "uint256"
        }
      ],
      "stateMutability": "view",
      "type": "function"
    },
    {
      "inputs": [],
      "name": "getProxyImplementation",
      "outputs": [
        {
          "internalType": "address",
          "name": "",
          "type": "address"
        }
      ],
      "stateMutability": "view",
      "type": "function"
    },
    {
      "inputs": [
        {
          "internalType": "bytes32",
          "name": "role",
          "type": "bytes32"
        },
        {
          "internalType": "address",
          "name": "account",
          "type": "address"
        }
      ],
      "name": "grantRole",
      "outputs": [],
      "stateMutability": "nonpayable",
      "type": "function"
    },
    {
      "inputs": [
        {
          "internalType": "bytes32",
          "name": "role",
          "type": "bytes32"
        },
        {
          "internalType": "address",
          "name": "account",
          "type": "address"
        }
      ],
      "name": "hasRole",
      "outputs": [
        {
          "internalType": "bool",
          "name": "",
          "type": "bool"
        }
      ],
      "stateMutability": "view",
      "type": "function"
    },
    {
      "inputs": [
        {
          "internalType": "address",
          "name": "account",
          "type": "address"
        }
      ],
      "name": "isAdmin",
      "outputs": [
        {
          "internalType": "bool",
          "name": "",
          "type": "bool"
        }
      ],
      "stateMutability": "view",
      "type": "function"
    },
    {
      "inputs": [
        {
          "internalType": "address",
          "name": "addr",
          "type": "address"
        }
      ],
      "name": "isExpired",
      "outputs": [
        {
          "internalType": "bool",
          "name": "",
          "type": "bool"
        }
      ],
      "stateMutability": "view",
      "type": "function"
    },
    {
      "inputs": [
        {
          "internalType": "address",
          "name": "addr",
          "type": "address"
        }
      ],
      "name": "isInGracePeriod",
      "outputs": [
        {
          "internalType": "bool",
          "name": "",
          "type": "bool"
        }
      ],
      "stateMutability": "view",
      "type": "function"
    },
    {
      "inputs": [
        {
          "internalType": "address",
          "name": "addr",
          "type": "address"
        }
      ],
      "name": "isRegistered",
      "outputs": [
        {
          "internalType": "bool",
          "name": "",
          "type": "bool"
        }
      ],
      "stateMutability": "view",
      "type": "function"
    },
    {
      "inputs": [
        {
          "internalType": "address",
          "name": "account",
          "type": "address"
        }
      ],
      "name": "isSigner",
      "outputs": [
        {
          "internalType": "bool",
          "name": "",
          "type": "bool"
        }
      ],
      "stateMutability": "view",
      "type": "function"
    },
    {
      "inputs": [],
      "name": "owner",
      "outputs": [
        {
          "internalType": "address",
          "name": "",
          "type": "address"
        }
      ],
      "stateMutability": "view",
      "type": "function"
    },
    {
      "inputs": [
        {
          "internalType": "contract IRemovableEntity",
          "name": "entity",
          "type": "address"
        }
      ],
      "name": "reactivateEntity",
      "outputs": [],
      "stateMutability": "nonpayable",
      "type": "function"
    },
    {
      "inputs": [
        {
          "internalType": "contract IRemovableEntity",
          "name": "entity",
          "type": "address"
        },
        {
          "internalType": "string",
          "name": "reason",
          "type": "string"
        }
      ],
      "name": "removeEntity",
      "outputs": [],
      "stateMutability": "nonpayable",
      "type": "function"
    },
    {
      "inputs": [
        {
          "internalType": "address[]",
          "name": "signers",
          "type": "address[]"
        }
      ],
      "name": "removeSigners",
      "outputs": [],
      "stateMutability": "nonpayable",
      "type": "function"
    },
    {
      "inputs": [
        {
          "internalType": "address",
          "name": "addr",
          "type": "address"
        }
      ],
      "name": "renewEntity",
      "outputs": [],
      "stateMutability": "payable",
      "type": "function"
    },
    {
      "inputs": [
        {
          "internalType": "bytes32",
          "name": "role",
          "type": "bytes32"
        },
        {
          "internalType": "address",
          "name": "account",
          "type": "address"
        }
      ],
      "name": "revokeRole",
      "outputs": [],
      "stateMutability": "nonpayable",
      "type": "function"
    },
    {
      "inputs": [
        {
          "internalType": "address",
          "name": "_entityImplementation",
          "type": "address"
        }
      ],
      "name": "setEntityImplementation",
      "outputs": [],
      "stateMutability": "nonpayable",
      "type": "function"
    },
    {
      "inputs": [
        {
          "internalType": "address",
          "name": "_proxyImplementation",
          "type": "address"
        }
      ],
      "name": "setProxyImplementation",
      "outputs": [],
      "stateMutability": "nonpayable",
      "type": "function"
    },
    {
      "inputs": [],
      "name": "version",
      "outputs": [
        {
          "components": [
            {
              "internalType": "uint16",
              "name": "major",
              "type": "uint16"
            },
            {
              "internalType": "uint16",
              "name": "minor",
              "type": "uint16"
            }
          ],
          "internalType": "struct Version",
          "name": "",
          "type": "tuple"
        }
      ],
      "stateMutability": "pure",
      "type": "function"
    }
  ],
  "bytecode": "0x608060405234801561001057600080fd5b50612c76806100206000396000f3fe6080604052600436106101ee5760003560e01c80638da5cb5b1161010d578063b6db923d116100a0578063d547741f1161006f578063d547741f146105a0578063d6fbe020146105c0578063e2482bf9146105d3578063e8906a2d146105f3578063f82e2fb31461061357600080fd5b8063b6db923d14610520578063ba2eb54114610540578063c3c5a54714610560578063cdbe22111461058057600080fd5b8063a6f9dae1116100dc578063a6f9dae1146104ad578063a8c88c17146104cd578063af08d53d146104ed578063b496858e1461050d57600080fd5b80638da5cb5b1461044357806390e4b7201461045857806391d148541461046d5780639fdcd3a41461048d57600080fd5b80634ec70a4811610185578063689c48f011610154578063689c48f0146103ce578063693c79b2146103e35780637df73e27146104035780638d361e431461042357600080fd5b80634ec70a481461031557806354fd4d50146103435780635726c94e146103995780635e040962146103b957600080fd5b80632f2ff15d116101c15780632f2ff15d146102955780633e88a4e2146102b55780634ae134cc146102d55780634d4965f3146102f557600080fd5b806301f24230146101f3578063033a5b601461021557806324d7806c146102355780632c5eae6d1461026a575b600080fd5b3480156101ff57600080fd5b5061021361020e3660046122f6565b610640565b005b34801561022157600080fd5b5061021361023036600461235c565b6106af565b34801561024157600080fd5b506102556102503660046122f6565b610846565b60405190151581526020015b60405180910390f35b61027d6102783660046123b1565b6108cc565b6040516001600160a01b039091168152602001610261565b3480156102a157600080fd5b506102136102b03660046123ed565b610d50565b3480156102c157600080fd5b5061027d6102d036600461241d565b610e56565b3480156102e157600080fd5b506102136102f03660046122f6565b610eda565b34801561030157600080fd5b5061021361031036600461245f565b610f1a565b34801561032157600080fd5b506103356103303660046122f6565b6110ae565b604051908152602001610261565b34801561034f57600080fd5b5060408051808201825260008082526020918201819052825180840190935260018352908201525b60408051825161ffff9081168252602093840151169281019290925201610261565b3480156103a557600080fd5b506103356103b43660046122f6565b61112e565b3480156103c557600080fd5b50610377611171565b3480156103da57600080fd5b5061027d6111f6565b3480156103ef57600080fd5b506102136103fe3660046122f6565b611265565b34801561040f57600080fd5b5061025561041e3660046122f6565b6113c0565b34801561042f57600080fd5b5061021361043e36600461249a565b611403565b34801561044f57600080fd5b5061027d6114cb565b34801561046457600080fd5b5061027d611516565b34801561047957600080fd5b506102556104883660046123ed565b611561565b34801561049957600080fd5b506102136104a83660046122f6565b6115e7565b3480156104b957600080fd5b506102136104c83660046122f6565b6116b6565b3480156104d957600080fd5b506102556104e83660046122f6565b6117c3565b3480156104f957600080fd5b5061021361050836600461235c565b611806565b61027d61051b36600461250f565b61195c565b34801561052c57600080fd5b5061025561053b3660046122f6565b611cc0565b34801561054c57600080fd5b5061025561055b3660046122f6565b611d03565b34801561056c57600080fd5b5061025561057b3660046122f6565b611d46565b34801561058c57600080fd5b5061021361059b3660046122f6565b611d89565b3480156105ac57600080fd5b506102136105bb3660046123ed565b611e58565b6102136105ce3660046122f6565b611f2e565b3480156105df57600080fd5b506102556105ee3660046122f6565b611f6e565b3480156105ff57600080fd5b5061021361060e36600461249a565b611fb1565b34801561061f57600080fd5b5061063361062e3660046122f6565b612079565b604051610261919061254a565b604051630a53217360e11b81526001600160a01b038216600482015273__$1822254560a4f971c7e72253c3a08363e7$__906314a642e6906024015b60006040518083038186803b15801561069457600080fd5b505af41580156106a8573d6000803e3d6000fd5b5050505050565b826000819050336001600160a01b0316816001600160a01b03166369bd91946040518163ffffffff1660e01b8152600401602060405180830381865afa1580156106fd573d6000803e3d6000fd5b505050506040513d601f19601f820116820180604052508101906107219190612574565b6001600160a01b0316146107505760405162461bcd60e51b815260040161074790612591565b60405180910390fd5b6000339050806001600160a01b0316634f05c1c86040518163ffffffff1660e01b8152600401602060405180830381865afa158015610793573d6000803e3d6000fd5b505050506040513d601f19601f820116820180604052508101906107b791906125fc565b6107d35760405162461bcd60e51b815260040161074790612619565b60405163ede71a1760e01b815273__$1822254560a4f971c7e72253c3a08363e7$__9063ede71a179061080e9089908990899060040161268d565b60006040518083038186803b15801561082657600080fd5b505af415801561083a573d6000803e3d6000fd5b50505050505050505050565b604051630935e01b60e21b81526001600160a01b038216600482015260009073__$a5a42e46683ad9c79b7b86d5ff60fdf4c1$__906324d7806c906024015b602060405180830381865af41580156108a2573d6000803e3d6000fd5b505050506040513d601f19601f820116820180604052508101906108c691906125fc565b92915050565b604051637df73e2760e01b815233600482015260009073__$a5a42e46683ad9c79b7b86d5ff60fdf4c1$__90637df73e2790602401602060405180830381865af415801561091e573d6000803e3d6000fd5b505050506040513d601f19601f8201168201806040525081019061094291906125fc565b61095e5760405162461bcd60e51b8152600401610747906126bb565b428260400135116109bd5760405162461bcd60e51b8152602060048201526024808201527f52656769737472617252656769737472793a207369676e6174757265206578706044820152631a5c995960e21b6064820152608401610747565b60006109cf60a0840160808501612714565b61ffff1611610a3f5760405162461bcd60e51b815260206004820152603660248201527f52656769737472617252656769737472793a20677261636520706572696f642060448201527506d7573742062652067726561746572207468616e20360541b6064820152608401610747565b6000610a4961210e565b80549091506001600160a01b0316610a735760405162461bcd60e51b815260040161074790612731565b60006040518060a00160405280856020016020810190610a9391906122f6565b6001600160a01b03168152306020820152604001610ab9368790038701606088016127b8565b8152604080870135602083015201610ad5610100870187612805565b8080601f016020809104026020016040519081016040528093929190818152602001838380828437600092019190915250505091525060405163bf52415b60e01b815290915073__$d81eab81c4f96e94de97b51155a369ac43$__9063bf52415b90610b4590849060040161284c565b60006040518083038186803b158015610b5d57600080fd5b505af4158015610b71573d6000803e3d6000fd5b5050835460009250610b8c91506001600160a01b03166121a4565b90506001600160a01b038116610bb45760405162461bcd60e51b8152600401610747906128fc565b6001600160a01b038116632e0dd946610bd060c0880188612805565b610be060408a0160208b016122f6565b610bed60e08b018b612805565b6040518663ffffffff1660e01b8152600401610c0d959493929190612948565b600060405180830381600087803b158015610c2757600080fd5b505af1158015610c3b573d6000803e3d6000fd5b50505050610c5c8186606001803603810190610c5791906127b8565b612265565b3415610cf957610c6f602086018661298a565b15610cc257610c8460408601602087016122f6565b6001600160a01b03166108fc349081150290604051600060405180830381858888f19350505050158015610cbc573d6000803e3d6000fd5b50610cf9565b6040516001600160a01b038216903480156108fc02916000818181858888f19350505050158015610cf7573d6000803e3d6000fd5b505b610d0960408601602087016122f6565b6001600160a01b0316816001600160a01b03167f7377123f9eb561d749cd3a89a83c22035cad6473521acbb981ee1c52d8f0248560405160405180910390a3949350505050565b604051630935e01b60e21b815233600482015273__$a5a42e46683ad9c79b7b86d5ff60fdf4c1$__906324d7806c90602401602060405180830381865af4158015610d9f573d6000803e3d6000fd5b505050506040513d601f19601f82011682018060405250810190610dc391906125fc565b610ddf5760405162461bcd60e51b8152600401610747906129a7565b604051632f2ff15d60e01b8152600481018390526001600160a01b038216602482015273__$a5a42e46683ad9c79b7b86d5ff60fdf4c1$__90632f2ff15d906044015b60006040518083038186803b158015610e3a57600080fd5b505af4158015610e4e573d6000803e3d6000fd5b505050505050565b604051631f44527160e11b815260009073__$d81eab81c4f96e94de97b51155a369ac43$__90633e88a4e290610e9290869086906004016129dc565b602060405180830381865af4158015610eaf573d6000803e3d6000fd5b505050506040513d601f19601f82011682018060405250810190610ed39190612574565b9392505050565b6040516347ef542760e01b81526001600160a01b038216600482015273__$1822254560a4f971c7e72253c3a08363e7$__906347ef54279060240161067c565b610f2760208201826122f6565b6000819050336001600160a01b0316816001600160a01b03166369bd91946040518163ffffffff1660e01b8152600401602060405180830381865afa158015610f74573d6000803e3d6000fd5b505050506040513d601f19601f82011682018060405250810190610f989190612574565b6001600160a01b031614610fbe5760405162461bcd60e51b815260040161074790612591565b6000339050806001600160a01b0316634f05c1c86040518163ffffffff1660e01b8152600401602060405180830381865afa158015611001573d6000803e3d6000fd5b505050506040513d601f19601f8201168201806040525081019061102591906125fc565b6110415760405162461bcd60e51b815260040161074790612619565b604051630bca13f760e41b815273__$d81eab81c4f96e94de97b51155a369ac43$__9063bca13f7090611078908790600401612a2b565b60006040518083038186803b15801561109057600080fd5b505af41580156110a4573d6000803e3d6000fd5b5050505050505050565b6040516309d8e14960e31b81526001600160a01b038216600482015260009073__$1822254560a4f971c7e72253c3a08363e7$__90634ec70a48906024015b602060405180830381865af415801561110a573d6000803e3d6000fd5b505050506040513d601f19601f820116820180604052508101906108c69190612ac2565b604051632b9364a760e11b81526001600160a01b038216600482015260009073__$1822254560a4f971c7e72253c3a08363e7$__90635726c94e906024016110ed565b604080518082019091526000808252602082015273__$e1fef5d4b1bfc4a605b7eb127c84f71416$__635e0409626040518163ffffffff1660e01b81526004016040805180830381865af41580156111cd573d6000803e3d6000fd5b505050506040513d601f19601f820116820180604052508101906111f19190612adb565b905090565b600073__$e1fef5d4b1bfc4a605b7eb127c84f71416$__63689c48f06040518163ffffffff1660e01b8152600401602060405180830381865af4158015611241573d6000803e3d6000fd5b505050506040513d601f19601f820116820180604052508101906111f19190612574565b806000819050336001600160a01b0316816001600160a01b03166369bd91946040518163ffffffff1660e01b8152600401602060405180830381865afa1580156112b3573d6000803e3d6000fd5b505050506040513d601f19601f820116820180604052508101906112d79190612574565b6001600160a01b0316146112fd5760405162461bcd60e51b815260040161074790612591565b6000339050806001600160a01b0316634f05c1c86040518163ffffffff1660e01b8152600401602060405180830381865afa158015611340573d6000803e3d6000fd5b505050506040513d601f19601f8201168201806040525081019061136491906125fc565b6113805760405162461bcd60e51b815260040161074790612619565b60405163699f380760e11b81526001600160a01b038516600482015273__$1822254560a4f971c7e72253c3a08363e7$__9063d33e700e90602401611078565b604051637df73e2760e01b81526001600160a01b038216600482015260009073__$a5a42e46683ad9c79b7b86d5ff60fdf4c1$__90637df73e2790602401610885565b604051630935e01b60e21b815233600482015273__$a5a42e46683ad9c79b7b86d5ff60fdf4c1$__906324d7806c90602401602060405180830381865af4158015611452573d6000803e3d6000fd5b505050506040513d601f19601f8201168201806040525081019061147691906125fc565b6114925760405162461bcd60e51b8152600401610747906129a7565b604051638d361e4360e01b815273__$a5a42e46683ad9c79b7b86d5ff60fdf4c1$__90638d361e4390610e229085908590600401612b48565b600073__$a5a42e46683ad9c79b7b86d5ff60fdf4c1$__638da5cb5b6040518163ffffffff1660e01b8152600401602060405180830381865af4158015611241573d6000803e3d6000fd5b600073__$e1fef5d4b1bfc4a605b7eb127c84f71416$__6390e4b7206040518163ffffffff1660e01b8152600401602060405180830381865af4158015611241573d6000803e3d6000fd5b604051632474521560e21b8152600481018390526001600160a01b038216602482015260009073__$a5a42e46683ad9c79b7b86d5ff60fdf4c1$__906391d1485490604401602060405180830381865af41580156115c3573d6000803e3d6000fd5b505050506040513d601f19601f82011682018060405250810190610ed391906125fc565b604051630935e01b60e21b815233600482015273__$a5a42e46683ad9c79b7b86d5ff60fdf4c1$__906324d7806c90602401602060405180830381865af4158015611636573d6000803e3d6000fd5b505050506040513d601f19601f8201168201806040525081019061165a91906125fc565b6116765760405162461bcd60e51b8152600401610747906129a7565b6040516327f734e960e21b81526001600160a01b038216600482015273__$e1fef5d4b1bfc4a605b7eb127c84f71416$__90639fdcd3a49060240161067c565b336001600160a01b031673__$a5a42e46683ad9c79b7b86d5ff60fdf4c1$__638da5cb5b6040518163ffffffff1660e01b8152600401602060405180830381865af4158015611709573d6000803e3d6000fd5b505050506040513d601f19601f8201168201806040525081019061172d9190612574565b6001600160a01b0316146117835760405162461bcd60e51b815260206004820152601f60248201527f426173654163636573733a207265737472696374656420746f206f776e6572006044820152606401610747565b6040516313af403560e01b81526001600160a01b038216600482015273__$a5a42e46683ad9c79b7b86d5ff60fdf4c1$__906313af40359060240161067c565b60405163a8c88c1760e01b81526001600160a01b038216600482015260009073__$1822254560a4f971c7e72253c3a08363e7$__9063a8c88c1790602401610885565b826000819050336001600160a01b0316816001600160a01b03166369bd91946040518163ffffffff1660e01b8152600401602060405180830381865afa158015611854573d6000803e3d6000fd5b505050506040513d601f19601f820116820180604052508101906118789190612574565b6001600160a01b03161461189e5760405162461bcd60e51b815260040161074790612591565b6000339050806001600160a01b0316634f05c1c86040518163ffffffff1660e01b8152600401602060405180830381865afa1580156118e1573d6000803e3d6000fd5b505050506040513d601f19601f8201168201806040525081019061190591906125fc565b6119215760405162461bcd60e51b815260040161074790612619565b604051633f111a5d60e21b815273__$1822254560a4f971c7e72253c3a08363e7$__9063fc4469749061080e9089908990899060040161268d565b604051637df73e2760e01b815233600482015260009073__$a5a42e46683ad9c79b7b86d5ff60fdf4c1$__90637df73e2790602401602060405180830381865af41580156119ae573d6000803e3d6000fd5b505050506040513d601f19601f820116820180604052508101906119d291906125fc565b6119ee5760405162461bcd60e51b8152600401610747906126bb565b60006119f861210e565b60018101549091506001600160a01b0316611a715760405162461bcd60e51b815260206004820152603360248201527f526567697374726172526567697374726174696f6e3a2070726f787920696d706044820152721b195b595b9d185d1a5bdb881b9bdd081cd95d606a1b6064820152608401610747565b80546001600160a01b0316611a985760405162461bcd60e51b815260040161074790612731565b6001810154600090611ab2906001600160a01b03166121a4565b90506001600160a01b038116611ada5760405162461bcd60e51b8152600401610747906128fc565b8154604051636bc26a1360e11b81526001600160a01b0391821660048201529082169063d784d42690602401600060405180830381600087803b158015611b2057600080fd5b505af1158015611b34573d6000803e3d6000fd5b5050506001600160a01b0382169050632e0dd946611b556040870187612805565b611b656040890160208a016122f6565b611b7260608a018a612805565b6040518663ffffffff1660e01b8152600401611b92959493929190612948565b600060405180830381600087803b158015611bac57600080fd5b505af1158015611bc0573d6000803e3d6000fd5b50505050611bcd8161229e565b3415611c6a57611be0602085018561298a565b15611c3357611bf560408501602086016122f6565b6001600160a01b03166108fc349081150290604051600060405180830381858888f19350505050158015611c2d573d6000803e3d6000fd5b50611c6a565b6040516001600160a01b038216903480156108fc02916000818181858888f19350505050158015611c68573d6000803e3d6000fd5b505b611c7a60408501602086016122f6565b6001600160a01b0316816001600160a01b03167f7377123f9eb561d749cd3a89a83c22035cad6473521acbb981ee1c52d8f0248560405160405180910390a39392505050565b60405163b6db923d60e01b81526001600160a01b038216600482015260009073__$1822254560a4f971c7e72253c3a08363e7$__9063b6db923d90602401610885565b60405163ba2eb54160e01b81526001600160a01b038216600482015260009073__$1822254560a4f971c7e72253c3a08363e7$__9063ba2eb54190602401610885565b60405163c3c5a54760e01b81526001600160a01b038216600482015260009073__$d81eab81c4f96e94de97b51155a369ac43$__9063c3c5a54790602401610885565b604051630935e01b60e21b815233600482015273__$a5a42e46683ad9c79b7b86d5ff60fdf4c1$__906324d7806c90602401602060405180830381865af4158015611dd8573d6000803e3d6000fd5b505050506040513d601f19601f82011682018060405250810190611dfc91906125fc565b611e185760405162461bcd60e51b8152600401610747906129a7565b60405163cdbe221160e01b81526001600160a01b038216600482015273__$e1fef5d4b1bfc4a605b7eb127c84f71416$__9063cdbe22119060240161067c565b604051630935e01b60e21b815233600482015273__$a5a42e46683ad9c79b7b86d5ff60fdf4c1$__906324d7806c90602401602060405180830381865af4158015611ea7573d6000803e3d6000fd5b505050506040513d601f19601f82011682018060405250810190611ecb91906125fc565b611ee75760405162461bcd60e51b8152600401610747906129a7565b60405163d547741f60e01b8152600481018390526001600160a01b038216602482015273__$a5a42e46683ad9c79b7b86d5ff60fdf4c1$__9063d547741f90604401610e22565b6040516306b7df0160e51b81526001600160a01b038216600482015273__$1822254560a4f971c7e72253c3a08363e7$__9063d6fbe0209060240161067c565b60405163e2482bf960e01b81526001600160a01b038216600482015260009073__$1822254560a4f971c7e72253c3a08363e7$__9063e2482bf990602401610885565b604051630935e01b60e21b815233600482015273__$a5a42e46683ad9c79b7b86d5ff60fdf4c1$__906324d7806c90602401602060405180830381865af4158015612000573d6000803e3d6000fd5b505050506040513d601f19601f8201168201806040525081019061202491906125fc565b6120405760405162461bcd60e51b8152600401610747906129a7565b60405163e8906a2d60e01b815273__$a5a42e46683ad9c79b7b86d5ff60fdf4c1$__9063e8906a2d90610e229085908590600401612b48565b6040805160608101825260008082526020820181905281830152905163f82e2fb360e01b81526001600160a01b038316600482015273__$1822254560a4f971c7e72253c3a08363e7$__9063f82e2fb390602401606060405180830381865af41580156120ea573d6000803e3d6000fd5b505050506040513d601f19601f820116820180604052508101906108c69190612b96565b60408051808201909152601c81527f78722e656e746974792e666163746f72792e73746f726167652e76310000000060209091015260008060ff61217360017f8b4ac7cd4466ab0d50fe53a88c5446ca4a450d482bef9ad792e7d9f451497e0f612be3565b60405160200161218591815260200190565b60408051601f1981840301815291905280516020909101201692915050565b60006001600160a01b0382166122145760405162461bcd60e51b815260206004820152602f60248201527f4c6962436c6f6e653a20696d706c656d656e746174696f6e2063616e6e6f742060448201526e6265207a65726f206164647265737360881b6064820152608401610747565b60008260601b9050604051733d602d80600a3d3981f3363d3d373d3d3d363d7360601b81528160148201526e5af43d82803e903d91602b57fd5bf360881b60288201526037816000f0949350505050565b60405163da46da7760e01b815273__$d81eab81c4f96e94de97b51155a369ac43$__9063da46da7790610e229085908590600401612c04565b60405163750f981960e11b81526001600160a01b038216600482015273__$d81eab81c4f96e94de97b51155a369ac43$__9063ea1f30329060240161067c565b6001600160a01b03811681146122f357600080fd5b50565b60006020828403121561230857600080fd5b8135610ed3816122de565b60008083601f84011261232557600080fd5b50813567ffffffffffffffff81111561233d57600080fd5b60208301915083602082850101111561235557600080fd5b9250929050565b60008060006040848603121561237157600080fd5b833561237c816122de565b9250602084013567ffffffffffffffff81111561239857600080fd5b6123a486828701612313565b9497909650939450505050565b6000602082840312156123c357600080fd5b813567ffffffffffffffff8111156123da57600080fd5b82016101208185031215610ed357600080fd5b6000806040838503121561240057600080fd5b823591506020830135612412816122de565b809150509250929050565b6000806020838503121561243057600080fd5b823567ffffffffffffffff81111561244757600080fd5b61245385828601612313565b90969095509350505050565b60006020828403121561247157600080fd5b813567ffffffffffffffff81111561248857600080fd5b820160c08185031215610ed357600080fd5b600080602083850312156124ad57600080fd5b823567ffffffffffffffff808211156124c557600080fd5b818501915085601f8301126124d957600080fd5b8135818111156124e857600080fd5b8660208260051b85010111156124fd57600080fd5b60209290920196919550909350505050565b60006020828403121561252157600080fd5b813567ffffffffffffffff81111561253857600080fd5b820160808185031215610ed357600080fd5b815161ffff90811682526020808401519091169082015260408083015190820152606081016108c6565b60006020828403121561258657600080fd5b8151610ed3816122de565b6020808252603d908201527f4261736552656d6f7661626c6552656769737472793a2063616c6c657220697360408201527f206e6f742074686520656e746974792773207465726d73206f776e6572000000606082015260800190565b80151581146122f357600080fd5b60006020828403121561260e57600080fd5b8151610ed3816125ee565b6020808252602b908201527f4261736552656d6f7661626c6552656769737472793a2063616c6c657220697360408201526a206e6f742061637469766560a81b606082015260800190565b81835281816020850137506000828201602090810191909152601f909101601f19169091010190565b6001600160a01b03841681526040602082018190526000906126b29083018486612664565b95945050505050565b60208082526029908201527f52656769737472617252656769737472793a2063616c6c6572206973206e6f7460408201526810309039b4b3b732b960b91b606082015260800190565b61ffff811681146122f357600080fd5b60006020828403121561272657600080fd5b8135610ed381612704565b60208082526030908201527f52656769737472617252656769737472793a20656e7469747920696d706c656d60408201526f195b9d185d1a5bdb881b9bdd081cd95d60821b606082015260800190565b6040516060810167ffffffffffffffff811182821017156127b257634e487b7160e01b600052604160045260246000fd5b60405290565b6000606082840312156127ca57600080fd5b6127d2612781565b82356127dd81612704565b815260208301356127ed81612704565b60208201526040928301359281019290925250919050565b6000808335601e1984360301811261281c57600080fd5b83018035915067ffffffffffffffff82111561283757600080fd5b60200191503681900382131561235557600080fd5b602080825282516001600160a01b0390811683830152838201511660408084019190915280840151805161ffff9081166060860152818401511660808501529081015160a08401526000919050606084015160c0840152608084015160e08085015280518061010086015260005b818110156128d757828101840151868201610120015283016128ba565b506101209250600083828701015282601f19601f830116860101935050505092915050565b6020808252602c908201527f526567697374726172526567697374726174696f6e3a20656e7469747920636c60408201526b1bdb9a5b99c819985a5b195960a21b606082015260800190565b60608152600061295c606083018789612664565b6001600160a01b0386166020840152828103604084015261297e818587612664565b98975050505050505050565b60006020828403121561299c57600080fd5b8135610ed3816125ee565b6020808252818101527f426173654163636573733a207265737472696374656420746f2061646d696e73604082015260600190565b6020815260006129f0602083018486612664565b949350505050565b8035612a0381612704565b61ffff9081168352602082013590612a1a82612704565b166020830152604090810135910152565b6020815260008235612a3c816122de565b6001600160a01b031660208381019190915283013536849003601e19018112612a6457600080fd5b830160208101903567ffffffffffffffff811115612a8157600080fd5b803603821315612a9057600080fd5b60c06040850152612aa560e085018284612664565b91505060408401356060840152610ed360808401606086016129f8565b600060208284031215612ad457600080fd5b5051919050565b600060408284031215612aed57600080fd5b6040516040810181811067ffffffffffffffff82111715612b1e57634e487b7160e01b600052604160045260246000fd5b6040528251612b2c81612704565b81526020830151612b3c81612704565b60208201529392505050565b60208082528181018390526000908460408401835b86811015612b8b578235612b70816122de565b6001600160a01b031682529183019190830190600101612b5d565b509695505050505050565b600060608284031215612ba857600080fd5b612bb0612781565b8251612bbb81612704565b81526020830151612bcb81612704565b60208201526040928301519281019290925250919050565b818103818111156108c657634e487b7160e01b600052601160045260246000fd5b6001600160a01b038316815260808101610ed3602083018461ffff8082511683528060208301511660208401525060408101516040830152505056fea2646970667358221220d1402fedd85f32eb7475b8361a92d3a577687e4dad9e03976ab92b04d38d910364736f6c63430008180033",
  "linkReferences": {
    "contracts/libraries/LibAccess.sol": {
      "LibAccess": [
        {
          "length": 20,
          "start": 2183
        },
        {
          "length": 20,
          "start": 2308
        },
        {
          "length": 20,
          "start": 3461
        },
        {
          "length": 20,
          "start": 3620
        },
        {
          "length": 20,
          "start": 5121
        },
        {
          "length": 20,
          "start": 5176
        },
        {
          "length": 20,
          "start": 5313
        },
        {
          "length": 20,
          "start": 5359
        },
        {
          "length": 20,
          "start": 5545
        },
        {
          "length": 20,
          "start": 5660
        },
        {
          "length": 20,
          "start": 5858
        },
        {
          "length": 20,
          "start": 6081
        },
        {
          "length": 20,
          "start": 6548
        },
        {
          "length": 20,
          "start": 7614
        },
        {
          "length": 20,
          "start": 7821
        },
        {
          "length": 20,
          "start": 7980
        },
        {
          "length": 20,
          "start": 8166
        },
        {
          "length": 20,
          "start": 8303
        }
      ]
    },
    "contracts/libraries/LibEntityRemoval.sol": {
      "LibEntityRemoval": [
        {
          "length": 20,
          "start": 1662
        },
        {
          "length": 20,
          "start": 2050
        },
        {
          "length": 20,
          "start": 3864
        },
        {
          "length": 20,
          "start": 4335
        },
        {
          "length": 20,
          "start": 4463
        },
        {
          "length": 20,
          "start": 5054
        },
        {
          "length": 20,
          "start": 6148
        },
        {
          "length": 20,
          "start": 6480
        },
        {
          "length": 20,
          "start": 7425
        },
        {
          "length": 20,
          "start": 7492
        },
        {
          "length": 20,
          "start": 8044
        },
        {
          "length": 20,
          "start": 8111
        },
        {
          "length": 20,
          "start": 8400
        }
      ]
    },
    "contracts/libraries/LibFactory.sol": {
      "LibFactory": [
        {
          "length": 20,
          "start": 4519
        },
        {
          "length": 20,
          "start": 4634
        },
        {
          "length": 20,
          "start": 5434
        },
        {
          "length": 20,
          "start": 5812
        },
        {
          "length": 20,
          "start": 7766
        }
      ]
    },
    "contracts/libraries/LibRegistration.sol": {
      "LibRegistration": [
        {
          "length": 20,
          "start": 2877
        },
        {
          "length": 20,
          "start": 3720
        },
        {
          "length": 20,
          "start": 4208
        },
        {
          "length": 20,
          "start": 7559
        },
        {
          "length": 20,
          "start": 8852
        },
        {
          "length": 20,
          "start": 8924
        }
      ]
    }
  },
  "deployedLinkReferences": {
    "contracts/libraries/LibAccess.sol": {
      "LibAccess": [
        {
          "length": 20,
          "start": 2151
        },
        {
          "length": 20,
          "start": 2276
        },
        {
          "length": 20,
          "start": 3429
        },
        {
          "length": 20,
          "start": 3588
        },
        {
          "length": 20,
          "start": 5089
        },
        {
          "length": 20,
          "start": 5144
        },
        {
          "length": 20,
          "start": 5281
        },
        {
          "length": 20,
          "start": 5327
        },
        {
          "length": 20,
          "start": 5513
        },
        {
          "length": 20,
          "start": 5628
        },
        {
          "length": 20,
          "start": 5826
        },
        {
          "length": 20,
          "start": 6049
        },
        {
          "length": 20,
          "start": 6516
        },
        {
          "length": 20,
          "start": 7582
        },
        {
          "length": 20,
          "start": 7789
        },
        {
          "length": 20,
          "start": 7948
        },
        {
          "length": 20,
          "start": 8134
        },
        {
          "length": 20,
          "start": 8271
        }
      ]
    },
    "contracts/libraries/LibEntityRemoval.sol": {
      "LibEntityRemoval": [
        {
          "length": 20,
          "start": 1630
        },
        {
          "length": 20,
          "start": 2018
        },
        {
          "length": 20,
          "start": 3832
        },
        {
          "length": 20,
          "start": 4303
        },
        {
          "length": 20,
          "start": 4431
        },
        {
          "length": 20,
          "start": 5022
        },
        {
          "length": 20,
          "start": 6116
        },
        {
          "length": 20,
          "start": 6448
        },
        {
          "length": 20,
          "start": 7393
        },
        {
          "length": 20,
          "start": 7460
        },
        {
          "length": 20,
          "start": 8012
        },
        {
          "length": 20,
          "start": 8079
        },
        {
          "length": 20,
          "start": 8368
        }
      ]
    },
    "contracts/libraries/LibFactory.sol": {
      "LibFactory": [
        {
          "length": 20,
          "start": 4487
        },
        {
          "length": 20,
          "start": 4602
        },
        {
          "length": 20,
          "start": 5402
        },
        {
          "length": 20,
          "start": 5780
        },
        {
          "length": 20,
          "start": 7734
        }
      ]
    },
    "contracts/libraries/LibRegistration.sol": {
      "LibRegistration": [
        {
          "length": 20,
          "start": 2845
        },
        {
          "length": 20,
          "start": 3688
        },
        {
          "length": 20,
          "start": 4176
        },
        {
          "length": 20,
          "start": 7527
        },
        {
          "length": 20,
          "start": 8820
        },
        {
          "length": 20,
          "start": 8892
        }
      ]
    }
  }
}