{
  "_format": "hh-sol-artifact-1",
  "contractName": "RegistrarRegistry",
  "sourceName": "contracts/RegistrarRegistry.sol",
  "abi": [
    {
      "inputs": [
        {
          "internalType": "address[]",
          "name": "registerers",
          "type": "address[]"
        }
      ],
      "stateMutability": "nonpayable",
      "type": "constructor"
    },
    {
      "inputs": [],
      "name": "AccessControlBadConfirmation",
      "type": "error"
    },
    {
      "inputs": [
        {
          "internalType": "address",
          "name": "account",
          "type": "address"
        },
        {
          "internalType": "bytes32",
          "name": "neededRole",
          "type": "bytes32"
        }
      ],
      "name": "AccessControlUnauthorizedAccount",
      "type": "error"
    },
    {
      "anonymous": false,
      "inputs": [
        {
          "indexed": false,
          "internalType": "uint256",
          "name": "id",
          "type": "uint256"
        },
        {
          "indexed": false,
          "internalType": "address payable",
          "name": "signer",
          "type": "address"
        },
        {
          "indexed": false,
          "internalType": "uint256",
          "name": "tokens",
          "type": "uint256"
        }
      ],
      "name": "RegistrarAdded",
      "type": "event"
    },
    {
      "anonymous": false,
      "inputs": [
        {
          "indexed": true,
          "internalType": "bytes32",
          "name": "role",
          "type": "bytes32"
        },
        {
          "indexed": true,
          "internalType": "bytes32",
          "name": "previousAdminRole",
          "type": "bytes32"
        },
        {
          "indexed": true,
          "internalType": "bytes32",
          "name": "newAdminRole",
          "type": "bytes32"
        }
      ],
      "name": "RoleAdminChanged",
      "type": "event"
    },
    {
      "anonymous": false,
      "inputs": [
        {
          "indexed": true,
          "internalType": "bytes32",
          "name": "role",
          "type": "bytes32"
        },
        {
          "indexed": true,
          "internalType": "address",
          "name": "account",
          "type": "address"
        },
        {
          "indexed": true,
          "internalType": "address",
          "name": "sender",
          "type": "address"
        }
      ],
      "name": "RoleGranted",
      "type": "event"
    },
    {
      "anonymous": false,
      "inputs": [
        {
          "indexed": true,
          "internalType": "bytes32",
          "name": "role",
          "type": "bytes32"
        },
        {
          "indexed": true,
          "internalType": "address",
          "name": "account",
          "type": "address"
        },
        {
          "indexed": true,
          "internalType": "address",
          "name": "sender",
          "type": "address"
        }
      ],
      "name": "RoleRevoked",
      "type": "event"
    },
    {
      "anonymous": false,
      "inputs": [
        {
          "indexed": false,
          "internalType": "uint256",
          "name": "id",
          "type": "uint256"
        },
        {
          "indexed": false,
          "internalType": "address[]",
          "name": "signers",
          "type": "address[]"
        }
      ],
      "name": "SignersAdded",
      "type": "event"
    },
    {
      "anonymous": false,
      "inputs": [
        {
          "indexed": false,
          "internalType": "uint256",
          "name": "id",
          "type": "uint256"
        },
        {
          "indexed": false,
          "internalType": "address[]",
          "name": "signers",
          "type": "address[]"
        }
      ],
      "name": "SignersRemoved",
      "type": "event"
    },
    {
      "inputs": [],
      "name": "DEFAULT_ADMIN_ROLE",
      "outputs": [
        {
          "internalType": "bytes32",
          "name": "",
          "type": "bytes32"
        }
      ],
      "stateMutability": "view",
      "type": "function"
    },
    {
      "inputs": [
        {
          "internalType": "uint256",
          "name": "registrarId",
          "type": "uint256"
        },
        {
          "internalType": "address[]",
          "name": "signers",
          "type": "address[]"
        }
      ],
      "name": "addSigners",
      "outputs": [],
      "stateMutability": "nonpayable",
      "type": "function"
    },
    {
      "inputs": [
        {
          "internalType": "bytes32",
          "name": "role",
          "type": "bytes32"
        }
      ],
      "name": "getRoleAdmin",
      "outputs": [
        {
          "internalType": "bytes32",
          "name": "",
          "type": "bytes32"
        }
      ],
      "stateMutability": "view",
      "type": "function"
    },
    {
      "inputs": [
        {
          "internalType": "bytes32",
          "name": "role",
          "type": "bytes32"
        },
        {
          "internalType": "address",
          "name": "account",
          "type": "address"
        }
      ],
      "name": "grantRole",
      "outputs": [],
      "stateMutability": "nonpayable",
      "type": "function"
    },
    {
      "inputs": [
        {
          "internalType": "bytes32",
          "name": "role",
          "type": "bytes32"
        },
        {
          "internalType": "address",
          "name": "account",
          "type": "address"
        }
      ],
      "name": "hasRole",
      "outputs": [
        {
          "internalType": "bool",
          "name": "",
          "type": "bool"
        }
      ],
      "stateMutability": "view",
      "type": "function"
    },
    {
      "inputs": [
        {
          "internalType": "uint256",
          "name": "id",
          "type": "uint256"
        },
        {
          "internalType": "address",
          "name": "account",
          "type": "address"
        }
      ],
      "name": "isRegistrar",
      "outputs": [
        {
          "internalType": "bool",
          "name": "",
          "type": "bool"
        }
      ],
      "stateMutability": "view",
      "type": "function"
    },
    {
      "inputs": [
        {
          "internalType": "address payable",
          "name": "signer",
          "type": "address"
        }
      ],
      "name": "register",
      "outputs": [],
      "stateMutability": "payable",
      "type": "function"
    },
    {
      "inputs": [],
      "name": "registrarCount",
      "outputs": [
        {
          "internalType": "uint256",
          "name": "",
          "type": "uint256"
        }
      ],
      "stateMutability": "view",
      "type": "function"
    },
    {
      "inputs": [
        {
          "internalType": "uint256",
          "name": "",
          "type": "uint256"
        }
      ],
      "name": "registrars",
      "outputs": [
        {
          "internalType": "uint256",
          "name": "id",
          "type": "uint256"
        }
      ],
      "stateMutability": "view",
      "type": "function"
    },
    {
      "inputs": [
        {
          "internalType": "uint256",
          "name": "registrarId",
          "type": "uint256"
        }
      ],
      "name": "removeRegistrar",
      "outputs": [],
      "stateMutability": "nonpayable",
      "type": "function"
    },
    {
      "inputs": [
        {
          "internalType": "uint256",
          "name": "registrarId",
          "type": "uint256"
        },
        {
          "internalType": "address[]",
          "name": "signers",
          "type": "address[]"
        }
      ],
      "name": "removeSigners",
      "outputs": [],
      "stateMutability": "nonpayable",
      "type": "function"
    },
    {
      "inputs": [
        {
          "internalType": "bytes32",
          "name": "role",
          "type": "bytes32"
        },
        {
          "internalType": "address",
          "name": "callerConfirmation",
          "type": "address"
        }
      ],
      "name": "renounceRole",
      "outputs": [],
      "stateMutability": "nonpayable",
      "type": "function"
    },
    {
      "inputs": [
        {
          "internalType": "bytes32",
          "name": "role",
          "type": "bytes32"
        },
        {
          "internalType": "address",
          "name": "account",
          "type": "address"
        }
      ],
      "name": "revokeRole",
      "outputs": [],
      "stateMutability": "nonpayable",
      "type": "function"
    },
    {
      "inputs": [
        {
          "internalType": "bytes4",
          "name": "interfaceId",
          "type": "bytes4"
        }
      ],
      "name": "supportsInterface",
      "outputs": [
        {
          "internalType": "bool",
          "name": "",
          "type": "bool"
        }
      ],
      "stateMutability": "view",
      "type": "function"
    }
  ],
  "bytecode": "0x60806040523480156200001157600080fd5b5060405162000cfc38038062000cfc833981016040819052620000349162000166565b60005b81518110156200007c57620000726000801b8383815181106200005e576200005e62000238565b60200260200101516200008460201b60201c565b5060010162000037565b50506200024e565b6000828152602081815260408083206001600160a01b038516845290915281205460ff1662000129576000838152602081815260408083206001600160a01b03861684529091529020805460ff19166001179055620000e03390565b6001600160a01b0316826001600160a01b0316847f2f8788117e7eff1d82e926ec794901d17c78024a50270940304540a733656f0d60405160405180910390a45060016200012d565b5060005b92915050565b634e487b7160e01b600052604160045260246000fd5b80516001600160a01b03811681146200016157600080fd5b919050565b600060208083850312156200017a57600080fd5b82516001600160401b03808211156200019257600080fd5b818501915085601f830112620001a757600080fd5b815181811115620001bc57620001bc62000133565b8060051b604051601f19603f83011681018181108582111715620001e457620001e462000133565b6040529182528482019250838101850191888311156200020357600080fd5b938501935b828510156200022c576200021c8562000149565b8452938501939285019262000208565b98975050505050505050565b634e487b7160e01b600052603260045260246000fd5b610a9e806200025e6000396000f3fe6080604052600436106100dd5760003560e01c80635e09f8ee1161007f5780638c9d518f116100595780638c9d518f1461024d57806391d1485414610297578063a217fddf146102b7578063d547741f146102cc57600080fd5b80635e09f8ee146101ed5780636ed562e21461020d5780638683869a1461022d57600080fd5b8063248a9ca3116100bb578063248a9ca3146101685780632f2ff15d1461019857806336568abe146101ba5780634420e486146101da57600080fd5b806301ffc9a7146100e257806312f83832146101175780631c8f8a9314610152575b600080fd5b3480156100ee57600080fd5b506101026100fd3660046107e1565b6102ec565b60405190151581526020015b60405180910390f35b34801561012357600080fd5b50610144610132366004610812565b60026020526000908152604090205481565b60405190815260200161010e565b34801561015e57600080fd5b5061014460015481565b34801561017457600080fd5b50610144610183366004610812565b60009081526020819052604090206001015490565b3480156101a457600080fd5b506101b86101b3366004610850565b610323565b005b3480156101c657600080fd5b506101b86101d5366004610850565b61034e565b6101b86101e8366004610880565b610386565b3480156101f957600080fd5b506101b8610208366004610812565b610467565b34801561021957600080fd5b506101b86102283660046108b3565b610484565b34801561023957600080fd5b506101b86102483660046108b3565b610578565b34801561025957600080fd5b50610102610268366004610850565b60008281526002602090815260408083206001600160a01b038516845260010190915290205460ff1692915050565b3480156102a357600080fd5b506101026102b2366004610850565b61064c565b3480156102c357600080fd5b50610144600081565b3480156102d857600080fd5b506101b86102e7366004610850565b610675565b60006001600160e01b03198216637965db0b60e01b148061031d57506301ffc9a760e01b6001600160e01b03198316145b92915050565b60008281526020819052604090206001015461033e8161069a565b61034883836106a7565b50505050565b6001600160a01b03811633146103775760405163334bd91960e11b815260040160405180910390fd5b6103818282610739565b505050565b60006103918161069a565b6001600081546103a090610984565b909155506001805460008181526002602090815260408083209384556001600160a01b03871683528385019091529020805460ff19169092179091553415610419576040516001600160a01b038416903480156108fc02916000818181858888f19350505050158015610417573d6000803e3d6000fd5b505b600154604080519182526001600160a01b03851660208301523482820152517f6edfd39c9b67407df83954fc12114fcb61527289665a8a845594d5609bbf5d959181900360600190a1505050565b60006104728161069a565b50600090815260026020526040812055565b6000828152600260209081526040808320338452600101909152902054829060ff166104cb5760405162461bcd60e51b81526004016104c2906109ab565b60405180910390fd5b6000838152600260205260408120905b83518110156105385760018260010160008684815181106104fe576104fe6109f9565b6020908102919091018101516001600160a01b03168252810191909152604001600020805460ff19169115159190911790556001016104db565b507fe2d402c8ff08afd038f229e913adc60fbff04823b0dc2e6acb6dbd7d2659a273848460405161056a929190610a0f565b60405180910390a150505050565b6000828152600260209081526040808320338452600101909152902054829060ff166105b65760405162461bcd60e51b81526004016104c2906109ab565b6000838152600260205260408120905b835181101561061a578160010160008583815181106105e7576105e76109f9565b6020908102919091018101516001600160a01b03168252810191909152604001600020805460ff191690556001016105c6565b507fda76d0d06982b9db2df3e6a38436f1b02dec8e1e412c7720267e5de00d962fc7848460405161056a929190610a0f565b6000918252602082815260408084206001600160a01b0393909316845291905290205460ff1690565b6000828152602081905260409020600101546106908161069a565b6103488383610739565b6106a481336107a4565b50565b60006106b3838361064c565b610731576000838152602081815260408083206001600160a01b03861684529091529020805460ff191660011790556106e93390565b6001600160a01b0316826001600160a01b0316847f2f8788117e7eff1d82e926ec794901d17c78024a50270940304540a733656f0d60405160405180910390a450600161031d565b50600061031d565b6000610745838361064c565b15610731576000838152602081815260408083206001600160a01b0386168085529252808320805460ff1916905551339286917ff6391f5c32d9c69d2a47ea670b442974b53935d1edc7fd64eb21e047a839171b9190a450600161031d565b6107ae828261064c565b6107dd5760405163e2517d3f60e01b81526001600160a01b0382166004820152602481018390526044016104c2565b5050565b6000602082840312156107f357600080fd5b81356001600160e01b03198116811461080b57600080fd5b9392505050565b60006020828403121561082457600080fd5b5035919050565b6001600160a01b03811681146106a457600080fd5b803561084b8161082b565b919050565b6000806040838503121561086357600080fd5b8235915060208301356108758161082b565b809150509250929050565b60006020828403121561089257600080fd5b813561080b8161082b565b634e487b7160e01b600052604160045260246000fd5b600080604083850312156108c657600080fd5b8235915060208084013567ffffffffffffffff808211156108e657600080fd5b818601915086601f8301126108fa57600080fd5b81358181111561090c5761090c61089d565b8060051b604051601f19603f830116810181811085821117156109315761093161089d565b60405291825284820192508381018501918983111561094f57600080fd5b938501935b828510156109745761096585610840565b84529385019392850192610954565b8096505050505050509250929050565b6000600182016109a457634e487b7160e01b600052601160045260246000fd5b5060010190565b6020808252602e908201527f52656769737472617252656769737472793a2063616c6c6572206973206e6f7460408201526d103a3432903932b3b4b9ba3930b960911b606082015260800190565b634e487b7160e01b600052603260045260246000fd5b60006040820184835260206040602085015281855180845260608601915060208701935060005b81811015610a5b5784516001600160a01b031683529383019391830191600101610a36565b509097965050505050505056fea2646970667358221220cf68f141ddd0ea17542752fc98486f828cc9a675081c68281c1767f7bfca2ddb64736f6c63430008180033",
  "linkReferences": {},
  "deployedLinkReferences": {}
}