{
  "_format": "hh-sol-artifact-1",
  "contractName": "Registrar",
  "sourceName": "contracts/registrar/instance/Registrar.sol",
  "abi": [
    {
      "inputs": [
        {
          "components": [
            {
              "internalType": "address",
              "name": "extensionResolver",
              "type": "address"
            },
            {
              "internalType": "address",
              "name": "owningRegistry",
              "type": "address"
            },
            {
              "internalType": "address",
              "name": "worldRegistry",
              "type": "address"
            }
          ],
          "internalType": "struct RegistrarConstructorArgs",
          "name": "args",
          "type": "tuple"
        }
      ],
      "stateMutability": "nonpayable",
      "type": "constructor"
    },
    {
      "anonymous": false,
      "inputs": [
        {
          "indexed": false,
          "internalType": "string",
          "name": "name",
          "type": "string"
        }
      ],
      "name": "ExtensionDisabled",
      "type": "event"
    },
    {
      "anonymous": false,
      "inputs": [
        {
          "indexed": false,
          "internalType": "string",
          "name": "name",
          "type": "string"
        }
      ],
      "name": "ExtensionEnabled",
      "type": "event"
    },
    {
      "anonymous": false,
      "inputs": [
        {
          "indexed": false,
          "internalType": "string",
          "name": "name",
          "type": "string"
        },
        {
          "components": [
            {
              "internalType": "uint16",
              "name": "major",
              "type": "uint16"
            },
            {
              "internalType": "uint16",
              "name": "minor",
              "type": "uint16"
            }
          ],
          "indexed": false,
          "internalType": "struct Version",
          "name": "version",
          "type": "tuple"
        }
      ],
      "name": "ExtensionInstalled",
      "type": "event"
    },
    {
      "anonymous": false,
      "inputs": [
        {
          "indexed": false,
          "internalType": "string",
          "name": "name",
          "type": "string"
        },
        {
          "components": [
            {
              "internalType": "uint16",
              "name": "major",
              "type": "uint16"
            },
            {
              "internalType": "uint16",
              "name": "minor",
              "type": "uint16"
            }
          ],
          "indexed": false,
          "internalType": "struct Version",
          "name": "version",
          "type": "tuple"
        }
      ],
      "name": "ExtensionRolledBack",
      "type": "event"
    },
    {
      "anonymous": false,
      "inputs": [
        {
          "indexed": false,
          "internalType": "string",
          "name": "name",
          "type": "string"
        },
        {
          "components": [
            {
              "internalType": "uint16",
              "name": "major",
              "type": "uint16"
            },
            {
              "internalType": "uint16",
              "name": "minor",
              "type": "uint16"
            }
          ],
          "indexed": false,
          "internalType": "struct Version",
          "name": "version",
          "type": "tuple"
        }
      ],
      "name": "ExtensionUpgraded",
      "type": "event"
    },
    {
      "anonymous": false,
      "inputs": [
        {
          "indexed": false,
          "internalType": "bytes4",
          "name": "selector",
          "type": "bytes4"
        }
      ],
      "name": "SelectorDisabled",
      "type": "event"
    },
    {
      "anonymous": false,
      "inputs": [
        {
          "indexed": false,
          "internalType": "bytes4",
          "name": "selector",
          "type": "bytes4"
        }
      ],
      "name": "SelectorEnabled",
      "type": "event"
    },
    {
      "stateMutability": "payable",
      "type": "fallback"
    },
    {
      "inputs": [],
      "name": "extResolver",
      "outputs": [
        {
          "internalType": "contract IExtensionResolver",
          "name": "",
          "type": "address"
        }
      ],
      "stateMutability": "view",
      "type": "function"
    },
    {
      "inputs": [
        {
          "internalType": "string",
          "name": "name",
          "type": "string"
        }
      ],
      "name": "getExtensionVersion",
      "outputs": [
        {
          "components": [
            {
              "internalType": "uint16",
              "name": "major",
              "type": "uint16"
            },
            {
              "internalType": "uint16",
              "name": "minor",
              "type": "uint16"
            }
          ],
          "internalType": "struct Version",
          "name": "",
          "type": "tuple"
        }
      ],
      "stateMutability": "view",
      "type": "function"
    },
    {
      "inputs": [
        {
          "internalType": "string",
          "name": "name",
          "type": "string"
        },
        {
          "components": [
            {
              "internalType": "uint16",
              "name": "major",
              "type": "uint16"
            },
            {
              "internalType": "uint16",
              "name": "minor",
              "type": "uint16"
            }
          ],
          "internalType": "struct Version",
          "name": "version",
          "type": "tuple"
        }
      ],
      "name": "hasExtension",
      "outputs": [
        {
          "internalType": "bool",
          "name": "",
          "type": "bool"
        }
      ],
      "stateMutability": "view",
      "type": "function"
    },
    {
      "inputs": [
        {
          "components": [
            {
              "internalType": "address",
              "name": "owner",
              "type": "address"
            },
            {
              "internalType": "address",
              "name": "termsOwner",
              "type": "address"
            },
            {
              "internalType": "address",
              "name": "registry",
              "type": "address"
            },
            {
              "internalType": "string",
              "name": "name",
              "type": "string"
            },
            {
              "components": [
                {
                  "internalType": "string",
                  "name": "x",
                  "type": "string"
                },
                {
                  "internalType": "string",
                  "name": "y",
                  "type": "string"
                },
                {
                  "internalType": "string",
                  "name": "z",
                  "type": "string"
                },
                {
                  "internalType": "uint256",
                  "name": "t",
                  "type": "uint256"
                },
                {
                  "internalType": "uint256",
                  "name": "p",
                  "type": "uint256"
                },
                {
                  "internalType": "uint256",
                  "name": "p_sub",
                  "type": "uint256"
                }
              ],
              "internalType": "struct VectorAddress",
              "name": "vector",
              "type": "tuple"
            },
            {
              "internalType": "bytes",
              "name": "initData",
              "type": "bytes"
            }
          ],
          "internalType": "struct CommonInitArgs",
          "name": "args",
          "type": "tuple"
        }
      ],
      "name": "init",
      "outputs": [],
      "stateMutability": "nonpayable",
      "type": "function"
    },
    {
      "inputs": [],
      "name": "name",
      "outputs": [
        {
          "internalType": "string",
          "name": "",
          "type": "string"
        }
      ],
      "stateMutability": "view",
      "type": "function"
    },
    {
      "inputs": [],
      "name": "registrarRegistry",
      "outputs": [
        {
          "internalType": "contract IRegistrarRegistry",
          "name": "",
          "type": "address"
        }
      ],
      "stateMutability": "view",
      "type": "function"
    },
    {
      "inputs": [],
      "name": "version",
      "outputs": [
        {
          "components": [
            {
              "internalType": "uint16",
              "name": "major",
              "type": "uint16"
            },
            {
              "internalType": "uint16",
              "name": "minor",
              "type": "uint16"
            }
          ],
          "internalType": "struct Version",
          "name": "",
          "type": "tuple"
        }
      ],
      "stateMutability": "pure",
      "type": "function"
    },
    {
      "inputs": [
        {
          "internalType": "uint256",
          "name": "amount",
          "type": "uint256"
        }
      ],
      "name": "withdraw",
      "outputs": [],
      "stateMutability": "nonpayable",
      "type": "function"
    },
    {
      "inputs": [],
      "name": "worldRegistry",
      "outputs": [
        {
          "internalType": "contract IWorldRegistry",
          "name": "",
          "type": "address"
        }
      ],
      "stateMutability": "view",
      "type": "function"
    },
    {
      "stateMutability": "payable",
      "type": "receive"
    }
  ],
  "bytecode": "0x60e06040523480156200001157600080fd5b50604051620013b4380380620013b48339810160408190526200003491620001e7565b80516001600160a01b038116620000b85760405162461bcd60e51b815260206004820152603660248201527f456e746974795368656c6c3a20657874656e73696f6e207265736f6c7665722060448201527f63616e6e6f74206265207a65726f20616464726573730000000000000000000060648201526084015b60405180910390fd5b6001600160a01b03908116608052602082015116620001335760405162461bcd60e51b815260206004820152603060248201527f5265676973747261723a206f776e696e6752656769737472792063616e6e6f7460448201526f206265207a65726f206164647265737360801b6064820152608401620000af565b60408101516001600160a01b0316620001a75760405162461bcd60e51b815260206004820152602f60248201527f5265676973747261723a20776f726c6452656769737472792063616e6e6f742060448201526e6265207a65726f206164647265737360881b6064820152608401620000af565b60208101516001600160a01b0390811660a0526040909101511660c05262000268565b80516001600160a01b0381168114620001e257600080fd5b919050565b600060608284031215620001fa57600080fd5b604051606081016001600160401b03811182821017156200022b57634e487b7160e01b600052604160045260246000fd5b6040526200023983620001ca565b81526200024960208401620001ca565b60208201526200025c60408401620001ca565b60408201529392505050565b60805160a05160c051611100620002b460003960006101e201526000818161022e01526106d1015260008181610262015281816102bc015281816103ed015261064701526111006000f3fe60806040526004361061008a5760003560e01c806354fd4d501161005957806354fd4d501461017857806369a10a12146101b0578063911c2a8c146101d0578063dbdc4e621461021c578063dd2a44c11461025057610091565b806306fdde03146100b9578063238a0386146100e45780632e1a7d4d1461012657806347d1d09a1461014857610091565b3661009157005b600080356001600160e01b031916905060006100af82600036610284565b9050805160208201f35b3480156100c557600080fd5b506100ce610331565b6040516100db91906109d4565b60405180910390f35b3480156100f057600080fd5b506101046100ff366004610ad5565b6103cc565b60408051825161ffff90811682526020938401511692810192909252016100db565b34801561013257600080fd5b50610146610141366004610b0a565b610470565b005b34801561015457600080fd5b50610168610163366004610b23565b61062d565b60405190151581526020016100db565b34801561018457600080fd5b506040805180820182526000808252602091820181905282518084019093526001835290820152610104565b3480156101bc57600080fd5b506101466101cb366004610c57565b6106c6565b3480156101dc57600080fd5b506102047f000000000000000000000000000000000000000000000000000000000000000081565b6040516001600160a01b0390911681526020016100db565b34801561022857600080fd5b506102047f000000000000000000000000000000000000000000000000000000000000000081565b34801561025c57600080fd5b506102047f000000000000000000000000000000000000000000000000000000000000000081565b604051631162ec5760e01b815260609073__$307c3a572bdf5d9800a89b3fc2eb3d5604$__90631162ec57906102e4908790879087907f000000000000000000000000000000000000000000000000000000000000000090600401610d3f565b600060405180830381865af4158015610301573d6000803e3d6000fd5b505050506040513d6000823e601f3d908101601f191682016040526103299190810190610d91565b949350505050565b606061033b6108ee565b600201805461034990610e08565b80601f016020809104026020016040519081016040528092919081815260200182805461037590610e08565b80156103c25780601f10610397576101008083540402835291602001916103c2565b820191906000526020600020905b8154815290600101906020018083116103a557829003601f168201915b5050505050905090565b6040805180820182526000808252602082015290516311c501c360e11b81527f00000000000000000000000000000000000000000000000000000000000000006001600160a01b03169063238a03869061042a9085906004016109d4565b6040805180830381865afa158015610446573d6000803e3d6000fd5b505050506040513d601f19601f8201168201806040525081019061046a9190610e52565b92915050565b604051630935e01b60e21b815233600482015273__$a5a42e46683ad9c79b7b86d5ff60fdf4c1$__906324d7806c90602401602060405180830381865af41580156104bf573d6000803e3d6000fd5b505050506040513d601f19601f820116820180604052508101906104e39190610eb1565b6105345760405162461bcd60e51b815260206004820181905260248201527f42617369635368656c6c3a207265737472696374656420746f2061646d696e7360448201526064015b60405180910390fd5b478111156105845760405162461bcd60e51b815260206004820181905260248201527f42617369635368656c6c3a20696e73756666696369656e742062616c616e6365604482015260640161052b565b73__$a5a42e46683ad9c79b7b86d5ff60fdf4c1$__638da5cb5b6040518163ffffffff1660e01b8152600401602060405180830381865af41580156105cd573d6000803e3d6000fd5b505050506040513d601f19601f820116820180604052508101906105f19190610ed3565b6001600160a01b03166108fc829081150290604051600060405180830381858888f19350505050158015610629573d6000803e3d6000fd5b5050565b6040516323e8e84d60e11b81526000906001600160a01b037f000000000000000000000000000000000000000000000000000000000000000016906347d1d09a9061067e9086908690600401610ef0565b602060405180830381865afa15801561069b573d6000803e3d6000fd5b505050506040513d601f19601f820116820180604052508101906106bf9190610eb1565b9392505050565b336001600160a01b037f000000000000000000000000000000000000000000000000000000000000000016146107495760405162461bcd60e51b815260206004820152602260248201527f5265676973747261723a206f6e6c792072656769737472617220726567697374604482015261727960f01b606482015260840161052b565b6000816060015151116107a95760405162461bcd60e51b815260206004820152602260248201527f4c69625265676973747261723a206e616d652063616e6e6f7420626520656d70604482015261747960f01b606482015260840161052b565b60208101516001600160a01b031661081c5760405162461bcd60e51b815260206004820152603060248201527f4c69625265676973747261723a207465726d73206f776e65722063616e6e6f7460448201526f206265207a65726f206164647265737360801b606482015260840161052b565b60408051600081526020810191829052825163d9ac971f60e01b9092529073__$a5a42e46683ad9c79b7b86d5ff60fdf4c1$__9063d9ac971f90610864908460248101610f3c565b60006040518083038186803b15801561087c57600080fd5b505af4158015610890573d6000803e3d6000fd5b50505050600061089e6108ee565b805460ff19166001178155606084015190915060028201906108c09082610fe9565b5060209092015182546001600160a01b03909116620100000262010000600160b01b03199091161790915550565b60408051808201909152601881527f78722e61637469766174696f6e2e73746f726167652e7631000000000000000060209091015260008060ff61095360017ff6611e962a52dbc98dd0485088d920890c43e26113c61976f6e171a29d49ce496110a9565b60405160200161096591815260200190565b60408051601f1981840301815291905280516020909101201692915050565b60005b8381101561099f578181015183820152602001610987565b50506000910152565b600081518084526109c0816020860160208601610984565b601f01601f19169290920160200192915050565b6020815260006106bf60208301846109a8565b634e487b7160e01b600052604160045260246000fd5b60405160c0810167ffffffffffffffff81118282101715610a2057610a206109e7565b60405290565b604051601f8201601f1916810167ffffffffffffffff81118282101715610a4f57610a4f6109e7565b604052919050565b600067ffffffffffffffff821115610a7157610a716109e7565b50601f01601f191660200190565b600082601f830112610a9057600080fd5b8135610aa3610a9e82610a57565b610a26565b818152846020838601011115610ab857600080fd5b816020850160208301376000918101602001919091529392505050565b600060208284031215610ae757600080fd5b813567ffffffffffffffff811115610afe57600080fd5b61032984828501610a7f565b600060208284031215610b1c57600080fd5b5035919050565b6000808284036060811215610b3757600080fd5b833567ffffffffffffffff811115610b4e57600080fd5b610b5a86828701610a7f565b9350506040601f1982011215610b6f57600080fd5b506020830190509250929050565b6001600160a01b0381168114610b9257600080fd5b50565b8035610ba081610b7d565b919050565b600060c08284031215610bb757600080fd5b610bbf6109fd565b9050813567ffffffffffffffff80821115610bd957600080fd5b610be585838601610a7f565b83526020840135915080821115610bfb57600080fd5b610c0785838601610a7f565b60208401526040840135915080821115610c2057600080fd5b50610c2d84828501610a7f565b604083015250606082013560608201526080820135608082015260a082013560a082015292915050565b600060208284031215610c6957600080fd5b813567ffffffffffffffff80821115610c8157600080fd5b9083019060c08286031215610c9557600080fd5b610c9d6109fd565b610ca683610b95565b8152610cb460208401610b95565b6020820152610cc560408401610b95565b6040820152606083013582811115610cdc57600080fd5b610ce887828601610a7f565b606083015250608083013582811115610d0057600080fd5b610d0c87828601610ba5565b60808301525060a083013582811115610d2457600080fd5b610d3087828601610a7f565b60a08301525095945050505050565b63ffffffff60e01b85168152606060208201528260608201528284608083013760008184016080908101919091526001600160a01b03929092166040820152601f909201601f19169091010192915050565b600060208284031215610da357600080fd5b815167ffffffffffffffff811115610dba57600080fd5b8201601f81018413610dcb57600080fd5b8051610dd9610a9e82610a57565b818152856020838501011115610dee57600080fd5b610dff826020830160208601610984565b95945050505050565b600181811c90821680610e1c57607f821691505b602082108103610e3c57634e487b7160e01b600052602260045260246000fd5b50919050565b61ffff81168114610b9257600080fd5b600060408284031215610e6457600080fd5b6040516040810181811067ffffffffffffffff82111715610e8757610e876109e7565b6040528251610e9581610e42565b81526020830151610ea581610e42565b60208201529392505050565b600060208284031215610ec357600080fd5b815180151581146106bf57600080fd5b600060208284031215610ee557600080fd5b81516106bf81610b7d565b606081526000610f0360608301856109a8565b90508235610f1081610e42565b61ffff808216602085015260208501359150610f2b82610e42565b808216604085015250509392505050565b6001600160a01b038381168252604060208084018290528451918401829052600092858201929091906060860190855b81811015610f8a578551851683529483019491830191600101610f6c565b509098975050505050505050565b601f821115610fe4576000816000526020600020601f850160051c81016020861015610fc15750805b601f850160051c820191505b81811015610fe057828155600101610fcd565b5050505b505050565b815167ffffffffffffffff811115611003576110036109e7565b611017816110118454610e08565b84610f98565b602080601f83116001811461104c57600084156110345750858301515b600019600386901b1c1916600185901b178555610fe0565b600085815260208120601f198616915b8281101561107b5788860151825594840194600190910190840161105c565b50858210156110995787850151600019600388901b60f8161c191681555b5050505050600190811b01905550565b8181038181111561046a57634e487b7160e01b600052601160045260246000fdfea2646970667358221220d6548421db325818179e7313fb80003316d841bbd883ad2c3660c4a09608d20d64736f6c63430008180033",
  "linkReferences": {
    "contracts/libraries/LibAccess.sol": {
      "LibAccess": [
        {
          "length": 20,
          "start": 1849
        },
        {
          "length": 20,
          "start": 2106
        },
        {
          "length": 20,
          "start": 2800
        }
      ]
    },
    "contracts/libraries/LibExtensions.sol": {
      "LibExtensions": [
        {
          "length": 20,
          "start": 1354
        }
      ]
    }
  },
  "deployedLinkReferences": {
    "contracts/libraries/LibAccess.sol": {
      "LibAccess": [
        {
          "length": 20,
          "start": 1157
        },
        {
          "length": 20,
          "start": 1414
        },
        {
          "length": 20,
          "start": 2108
        }
      ]
    },
    "contracts/libraries/LibExtensions.sol": {
      "LibExtensions": [
        {
          "length": 20,
          "start": 662
        }
      ]
    }
  }
}