{
  "_format": "hh-sol-artifact-1",
  "contractName": "RegistrarRegistrationExt",
  "sourceName": "contracts/extensions/registry/registrar/RegistrarRegistrationExt.sol",
  "abi": [
    {
      "anonymous": false,
      "inputs": [
        {
          "indexed": true,
          "internalType": "address",
          "name": "entity",
          "type": "address"
        },
        {
          "indexed": true,
          "internalType": "address",
          "name": "owner",
          "type": "address"
        }
      ],
      "name": "RegistryAddedEntity",
      "type": "event"
    },
    {
      "anonymous": false,
      "inputs": [
        {
          "indexed": true,
          "internalType": "address",
          "name": "old",
          "type": "address"
        },
        {
          "indexed": false,
          "internalType": "address",
          "name": "newVersion",
          "type": "address"
        }
      ],
      "name": "RegistryUpgradedEntity",
      "type": "event"
    },
    {
      "inputs": [
        {
          "components": [
            {
              "internalType": "address",
              "name": "entity",
              "type": "address"
            },
            {
              "internalType": "bytes",
              "name": "entitySignature",
              "type": "bytes"
            },
            {
              "internalType": "uint256",
              "name": "expiration",
              "type": "uint256"
            },
            {
              "components": [
                {
                  "internalType": "uint16",
                  "name": "coveragePeriodDays",
                  "type": "uint16"
                },
                {
                  "internalType": "uint16",
                  "name": "gracePeriodDays",
                  "type": "uint16"
                },
                {
                  "internalType": "uint256",
                  "name": "fee",
                  "type": "uint256"
                }
              ],
              "internalType": "struct RegistrationTerms",
              "name": "terms",
              "type": "tuple"
            }
          ],
          "internalType": "struct ChangeEntityTermsArgs",
          "name": "args",
          "type": "tuple"
        }
      ],
      "name": "changeEntityTerms",
      "outputs": [],
      "stateMutability": "nonpayable",
      "type": "function"
    },
    {
      "inputs": [
        {
          "components": [
            {
              "internalType": "bool",
              "name": "sendTokensToOwner",
              "type": "bool"
            },
            {
              "internalType": "address",
              "name": "owner",
              "type": "address"
            },
            {
              "internalType": "string",
              "name": "name",
              "type": "string"
            },
            {
              "components": [
                {
                  "internalType": "uint16",
                  "name": "coveragePeriodDays",
                  "type": "uint16"
                },
                {
                  "internalType": "uint16",
                  "name": "gracePeriodDays",
                  "type": "uint16"
                },
                {
                  "internalType": "uint256",
                  "name": "fee",
                  "type": "uint256"
                }
              ],
              "internalType": "struct RegistrationTerms",
              "name": "terms",
              "type": "tuple"
            },
            {
              "internalType": "bytes",
              "name": "initData",
              "type": "bytes"
            },
            {
              "internalType": "bytes",
              "name": "ownerTermsSignature",
              "type": "bytes"
            },
            {
              "internalType": "uint256",
              "name": "expiration",
              "type": "uint256"
            }
          ],
          "internalType": "struct CreateEntityArgs",
          "name": "args",
          "type": "tuple"
        }
      ],
      "name": "createRegistrarNoRemoval",
      "outputs": [
        {
          "internalType": "address",
          "name": "",
          "type": "address"
        }
      ],
      "stateMutability": "payable",
      "type": "function"
    },
    {
      "inputs": [
        {
          "components": [
            {
              "internalType": "bool",
              "name": "sendTokensToOwner",
              "type": "bool"
            },
            {
              "internalType": "address",
              "name": "owner",
              "type": "address"
            },
            {
              "internalType": "string",
              "name": "name",
              "type": "string"
            },
            {
              "components": [
                {
                  "internalType": "uint16",
                  "name": "coveragePeriodDays",
                  "type": "uint16"
                },
                {
                  "internalType": "uint16",
                  "name": "gracePeriodDays",
                  "type": "uint16"
                },
                {
                  "internalType": "uint256",
                  "name": "fee",
                  "type": "uint256"
                }
              ],
              "internalType": "struct RegistrationTerms",
              "name": "terms",
              "type": "tuple"
            },
            {
              "internalType": "bytes",
              "name": "initData",
              "type": "bytes"
            },
            {
              "internalType": "bytes",
              "name": "ownerTermsSignature",
              "type": "bytes"
            },
            {
              "internalType": "uint256",
              "name": "expiration",
              "type": "uint256"
            }
          ],
          "internalType": "struct CreateEntityArgs",
          "name": "args",
          "type": "tuple"
        }
      ],
      "name": "createRemovableRegistrar",
      "outputs": [
        {
          "internalType": "address",
          "name": "",
          "type": "address"
        }
      ],
      "stateMutability": "payable",
      "type": "function"
    },
    {
      "inputs": [
        {
          "internalType": "string",
          "name": "name",
          "type": "string"
        }
      ],
      "name": "getEntityByName",
      "outputs": [
        {
          "internalType": "address",
          "name": "",
          "type": "address"
        }
      ],
      "stateMutability": "view",
      "type": "function"
    },
    {
      "inputs": [
        {
          "components": [
            {
              "internalType": "string",
              "name": "x",
              "type": "string"
            },
            {
              "internalType": "string",
              "name": "y",
              "type": "string"
            },
            {
              "internalType": "string",
              "name": "z",
              "type": "string"
            },
            {
              "internalType": "uint256",
              "name": "t",
              "type": "uint256"
            },
            {
              "internalType": "uint256",
              "name": "p",
              "type": "uint256"
            },
            {
              "internalType": "uint256",
              "name": "p_sub",
              "type": "uint256"
            }
          ],
          "internalType": "struct VectorAddress",
          "name": "vector",
          "type": "tuple"
        }
      ],
      "name": "getEntityByVector",
      "outputs": [
        {
          "internalType": "address",
          "name": "",
          "type": "address"
        }
      ],
      "stateMutability": "view",
      "type": "function"
    },
    {
      "inputs": [
        {
          "components": [
            {
              "internalType": "address",
              "name": "owner",
              "type": "address"
            },
            {
              "internalType": "address",
              "name": "owningRegistry",
              "type": "address"
            },
            {
              "internalType": "address[]",
              "name": "admins",
              "type": "address[]"
            }
          ],
          "internalType": "struct ExtensionInitArgs",
          "name": "args",
          "type": "tuple"
        }
      ],
      "name": "initStorage",
      "outputs": [],
      "stateMutability": "nonpayable",
      "type": "function"
    },
    {
      "inputs": [
        {
          "internalType": "address",
          "name": "myAddress",
          "type": "address"
        }
      ],
      "name": "install",
      "outputs": [],
      "stateMutability": "nonpayable",
      "type": "function"
    },
    {
      "inputs": [
        {
          "internalType": "address",
          "name": "addr",
          "type": "address"
        }
      ],
      "name": "isRegistered",
      "outputs": [
        {
          "internalType": "bool",
          "name": "",
          "type": "bool"
        }
      ],
      "stateMutability": "view",
      "type": "function"
    },
    {
      "inputs": [],
      "name": "metadata",
      "outputs": [
        {
          "components": [
            {
              "internalType": "string",
              "name": "name",
              "type": "string"
            },
            {
              "components": [
                {
                  "internalType": "uint16",
                  "name": "major",
                  "type": "uint16"
                },
                {
                  "internalType": "uint16",
                  "name": "minor",
                  "type": "uint16"
                }
              ],
              "internalType": "struct Version",
              "name": "version",
              "type": "tuple"
            }
          ],
          "internalType": "struct ExtensionMetadata",
          "name": "",
          "type": "tuple"
        }
      ],
      "stateMutability": "pure",
      "type": "function"
    },
    {
      "inputs": [],
      "name": "register",
      "outputs": [],
      "stateMutability": "nonpayable",
      "type": "function"
    },
    {
      "inputs": [
        {
          "internalType": "address",
          "name": "myAddress",
          "type": "address"
        }
      ],
      "name": "upgrade",
      "outputs": [],
      "stateMutability": "nonpayable",
      "type": "function"
    }
  ],
  "bytecode": "0x608060405234801561001057600080fd5b50611e1e806100206000396000f3fe60806040526004361061009c5760003560e01c80633e88a4e2116100645780633e88a4e2146101485780634d4965f314610168578063729963c014610188578063974a48cb146101a3578063c3c5a547146101b6578063c747e47e146101e657600080fd5b80630900f010146100a15780631aa3a008146100c1578063299944ab146100d65780632a1b8f9b14610106578063392f37e914610126575b600080fd5b3480156100ad57600080fd5b506100bf6100bc366004611528565b50565b005b3480156100cd57600080fd5b506100bf610206565b6100e96100e436600461154c565b61028a565b6040516001600160a01b0390911681526020015b60405180910390f35b34801561011257600080fd5b506100bf610121366004611528565b610865565b34801561013257600080fd5b5061013b610b2d565b6040516100fd91906115ce565b34801561015457600080fd5b506100e9610163366004611613565b610b90565b34801561017457600080fd5b506100bf61018336600461169d565b610c16565b34801561019457600080fd5b506100bf6100bc3660046116da565b6100e96101b136600461154c565b610c80565b3480156101c257600080fd5b506101d66101d1366004611528565b611286565b60405190151581526020016100fd565b3480156101f257600080fd5b506100e961020136600461169d565b611305565b61020f33611286565b610288576040805162461bcd60e51b81526020600482015260248101919091527f526567697374726174696f6e4578743a206f6e6c79207265676973746572656460448201527f20656e7469746965732063616e2063616c6c20746869732066756e6374696f6e60648201526084015b60405180910390fd5b565b604051630935e01b60e21b815233600482015260009073__$a5a42e46683ad9c79b7b86d5ff60fdf4c1$__906324d7806c90602401602060405180830381865af41580156102dc573d6000803e3d6000fd5b505050506040513d601f19601f820116820180604052508101906103009190611723565b61034c5760405162461bcd60e51b815260206004820181905260248201527f466163746f72794578743a207265737472696374656420746f2061646d696e73604482015260640161027f565b600061035e60a0840160808501611752565b61ffff16116103e85760405162461bcd60e51b815260206004820152604a60248201527f526567697374726172526567697374726174696f6e4578743a2067726163652060448201527f706572696f6420726571756972656420666f722072656d6f7661626c6520726560648201526933b4b9ba3930ba34b7b760b11b608482015260a40161027f565b60006040518060a001604052808460200160208101906104089190611528565b6001600160a01b0316815230602082015260400161042e3686900386016060870161176d565b8152610100850135602082015260400161044b60e08601866117e3565b8080601f016020809104026020016040519081016040528093929190818152602001838380828437600092019190915250505091525060405163bf52415b60e01b815290915073__$d81eab81c4f96e94de97b51155a369ac43$__9063bf52415b906104bb908490600401611831565b60006040518083038186803b1580156104d357600080fd5b505af41580156104e7573d6000803e3d6000fd5b50506040805160e081018252600060c082018181528252825160208181018552828252808401919091528351908101845281815292820192909252606081018290526080810182905260a0810182905292509050610543611380565b805490915060009061055d906001600160a01b0316611416565b90506001600160a01b0381166105855760405162461bcd60e51b815260040161027f906118a1565b60006040518060c001604052808860200160208101906105a59190611528565b6001600160a01b03168152602001306001600160a01b03168152602001306001600160a01b031681526020018880604001906105e191906117e3565b8080601f0160208091040260200160405190810160405280939291908181526020018383808284376000920191909152505050908252506020810186905260400161062f60c08a018a6117e3565b8080601f01602080910402602001604051908101604052809392919081815260200183838082843760009201919091525050509152506040516334d0850960e11b81529091506001600160a01b038316906369a10a12906106949084906004016118ed565b600060405180830381600087803b1580156106ae57600080fd5b505af11580156106c2573d6000803e3d6000fd5b5050505060006040518060600160405280846001600160a01b03168152602001896060018036038101906106f6919061176d565b815260200186905260405163474df87960e01b815290915073__$d81eab81c4f96e94de97b51155a369ac43$__9063474df879906107389084906004016119d6565b60006040518083038186803b15801561075057600080fd5b505af4158015610764573d6000803e3d6000fd5b5050505060003411156108085761077e6020890189611aa9565b156107d1576107936040890160208a01611528565b6001600160a01b03166108fc349081150290604051600060405180830381858888f193505050501580156107cb573d6000803e3d6000fd5b50610808565b6040516001600160a01b038416903480156108fc02916000818181858888f19350505050158015610806573d6000803e3d6000fd5b505b6108186040890160208a01611528565b6001600160a01b0316836001600160a01b03167f7377123f9eb561d749cd3a89a83c22035cad6473521acbb981ee1c52d8f0248560405160405180910390a350909450505050505b919050565b60408051600580825260c08201909252600091816020015b60408051808201909152600081526060602082015281526020019060019003908161087d5790505090506040518060400160405280633e88a4e260e01b6001600160e01b03191681526020016040518060400160405280601781526020017f676574456e7469747942794e616d6528737472696e67290000000000000000008152508152508160008151811061091557610915611ac6565b60200260200101819052506040518060400160405280634d4965f360e01b6001600160e01b03191681526020016040518060600160405280602c8152602001611d93602c91398152508160018151811061097157610971611ac6565b6020026020010181905250604051806040016040528063c3c5a54760e01b6001600160e01b03191681526020016040518060400160405280601581526020017469735265676973746572656428616464726573732960581b815250815250816002815181106109e2576109e2611ac6565b6020026020010181905250604051806040016040528063974a48cb60e01b6001600160e01b03191681526020016040518060600160405280602a8152602001611dbf602a913981525081600381518110610a3e57610a3e611ac6565b6020026020010181905250604051806040016040528063299944ab60e01b6001600160e01b03191681526020016040518060600160405280602a8152602001611d69602a913981525081600481518110610a9a57610a9a611ac6565b602002602001018190525073__$307c3a572bdf5d9800a89b3fc2eb3d5604$__63964d13f06040518060400160405280856001600160a01b03168152602001848152506040518263ffffffff1660e01b8152600401610af99190611adc565b60006040518083038186803b158015610b1157600080fd5b505af4158015610b25573d6000803e3d6000fd5b505050505050565b610b356114d7565b506040805160808101825260188183019081527f526567697374726172526567697374726174696f6e457874000000000000000060608301528152815180830190925260018252600060208381019190915281019190915290565b604051631f44527160e11b815260009073__$d81eab81c4f96e94de97b51155a369ac43$__90633e88a4e290610bcc9086908690600401611b9f565b602060405180830381865af4158015610be9573d6000803e3d6000fd5b505050506040513d601f19601f82011682018060405250810190610c0d9190611bb3565b90505b92915050565b604051630bca13f760e41b815273__$d81eab81c4f96e94de97b51155a369ac43$__9063bca13f7090610c4d908490600401611c16565b60006040518083038186803b158015610c6557600080fd5b505af4158015610c79573d6000803e3d6000fd5b5050505050565b604051630935e01b60e21b815233600482015260009073__$a5a42e46683ad9c79b7b86d5ff60fdf4c1$__906324d7806c90602401602060405180830381865af4158015610cd2573d6000803e3d6000fd5b505050506040513d601f19601f82011682018060405250810190610cf69190611723565b610d425760405162461bcd60e51b815260206004820181905260248201527f466163746f72794578743a207265737472696374656420746f2061646d696e73604482015260640161027f565b610d5260a0830160808401611752565b61ffff1615610de35760405162461bcd60e51b815260206004820152605160248201527f526567697374726172526567697374726174696f6e4578743a2067726163652060448201527f706572696f64206e6f7420616c6c6f77656420666f72206e6f6e2d72656d6f7660648201527030b13632903932b3b4b9ba3930ba34b7b760791b608482015260a40161027f565b610df36080830160608401611752565b61ffff1615610e875760405162461bcd60e51b815260206004820152605460248201527f526567697374726172526567697374726174696f6e4578743a20636f7665726160448201527f676520706572696f64206e6f7420616c6c6f77656420666f72206e6f6e2d726560648201527336b7bb30b13632903932b3b4b9ba3930ba34b7b760611b608482015260a40161027f565b60a082013515610f105760405162461bcd60e51b815260206004820152604860248201527f526567697374726172526567697374726174696f6e4578743a20666565206e6f60448201527f7420616c6c6f77656420666f72206e6f6e2d72656d6f7661626c65207265676960648201526739ba3930ba34b7b760c11b608482015260a40161027f565b6040805160e081018252600060c082018181528252825160208181018552828252808401919091528351908101845281815292820192909252606081018290526080810182905260a0810182905290610f67611380565b8054909150600090610f81906001600160a01b0316611416565b90506001600160a01b038116610fa95760405162461bcd60e51b815260040161027f906118a1565b60006040518060c00160405280876020016020810190610fc99190611528565b6001600160a01b03168152602001306001600160a01b03168152602001306001600160a01b0316815260200187806040019061100591906117e3565b8080601f0160208091040260200160405190810160405280939291908181526020018383808284376000920191909152505050908252506020810186905260400161105360c08901896117e3565b8080601f01602080910402602001604051908101604052809392919081815260200183838082843760009201919091525050509152506040516334d0850960e11b81529091506001600160a01b038316906369a10a12906110b89084906004016118ed565b600060405180830381600087803b1580156110d257600080fd5b505af11580156110e6573d6000803e3d6000fd5b5050505060006040518060600160405280846001600160a01b031681526020018860600180360381019061111a919061176d565b815260200186905260405163af2e5d0560e01b815290915073__$d81eab81c4f96e94de97b51155a369ac43$__9063af2e5d059061115c9084906004016119d6565b60006040518083038186803b15801561117457600080fd5b505af4158015611188573d6000803e3d6000fd5b50505050600034111561122c576111a26020880188611aa9565b156111f5576111b76040880160208901611528565b6001600160a01b03166108fc349081150290604051600060405180830381858888f193505050501580156111ef573d6000803e3d6000fd5b5061122c565b6040516001600160a01b038416903480156108fc02916000818181858888f1935050505015801561122a573d6000803e3d6000fd5b505b61123c6040880160208901611528565b6001600160a01b0316836001600160a01b03167f7377123f9eb561d749cd3a89a83c22035cad6473521acbb981ee1c52d8f0248560405160405180910390a3509095945050505050565b60405163c3c5a54760e01b81526001600160a01b038216600482015260009073__$d81eab81c4f96e94de97b51155a369ac43$__9063c3c5a54790602401602060405180830381865af41580156112e1573d6000803e3d6000fd5b505050506040513d601f19601f82011682018060405250810190610c109190611723565b6040516332ef671360e21b815260009073__$d81eab81c4f96e94de97b51155a369ac43$__9063cbbd9c4c9061133f908590600401611ca5565b602060405180830381865af415801561135c573d6000803e3d6000fd5b505050506040513d601f19601f82011682018060405250810190610c109190611bb3565b60408051808201909152601c81527f78722e656e746974792e666163746f72792e73746f726167652e76310000000060209091015260008060ff6113e560017f8b4ac7cd4466ab0d50fe53a88c5446ca4a450d482bef9ad792e7d9f451497e0f611d47565b6040516020016113f791815260200190565b60408051601f1981840301815291905280516020909101201692915050565b60006001600160a01b0382166114865760405162461bcd60e51b815260206004820152602f60248201527f4c6962436c6f6e653a20696d706c656d656e746174696f6e2063616e6e6f742060448201526e6265207a65726f206164647265737360881b606482015260840161027f565b60008260601b9050604051733d602d80600a3d3981f3363d3d373d3d3d363d7360601b81528160148201526e5af43d82803e903d91602b57fd5bf360881b60288201526037816000f0949350505050565b60405180604001604052806060815260200161150e6040518060400160405280600061ffff168152602001600061ffff1681525090565b905290565b6001600160a01b03811681146100bc57600080fd5b60006020828403121561153a57600080fd5b813561154581611513565b9392505050565b60006020828403121561155e57600080fd5b813567ffffffffffffffff81111561157557600080fd5b8201610120818503121561154557600080fd5b6000815180845260005b818110156115ae57602081850181015186830182015201611592565b506000602082860101526020601f19601f83011685010191505092915050565b6020815260008251606060208401526115ea6080840182611588565b602094850151805161ffff90811660408701529501519094166060909301929092525090919050565b6000806020838503121561162657600080fd5b823567ffffffffffffffff8082111561163e57600080fd5b818501915085601f83011261165257600080fd5b81358181111561166157600080fd5b86602082850101111561167357600080fd5b60209290920196919550909350505050565b600060c0828403121561169757600080fd5b50919050565b6000602082840312156116af57600080fd5b813567ffffffffffffffff8111156116c657600080fd5b6116d284828501611685565b949350505050565b6000602082840312156116ec57600080fd5b813567ffffffffffffffff81111561170357600080fd5b82016060818503121561154557600080fd5b80151581146100bc57600080fd5b60006020828403121561173557600080fd5b815161154581611715565b803561ffff8116811461086057600080fd5b60006020828403121561176457600080fd5b610c0d82611740565b60006060828403121561177f57600080fd5b6040516060810181811067ffffffffffffffff821117156117b057634e487b7160e01b600052604160045260246000fd5b6040526117bc83611740565b81526117ca60208401611740565b6020820152604083013560408201528091505092915050565b6000808335601e198436030181126117fa57600080fd5b83018035915067ffffffffffffffff82111561181557600080fd5b60200191503681900382131561182a57600080fd5b9250929050565b602080825282516001600160a01b0390811683830152838201511660408084019190915280840151805161ffff908116606086015292810151909216608084015281015160a083015260009050606083015160c0830152608083015160e0808401526116d2610100840182611588565b6020808252602c908201527f526567697374726172526567697374726174696f6e3a20656e7469747920636c60408201526b1bdb9a5b99c819985a5b195960a21b606082015260800190565b60208152600060018060a01b0380845116602084015280602085015116604084015280604085015116606084015250606083015160c0608084015261193560e0840182611588565b90506080840151601f19808584030160a0860152815160c0845261195c60c0850182611588565b9050602083015184820360208601526119758282611588565b9150506040830151848203604086015261198f8282611588565b915050606083015160608501526080830151608085015260a083015160a085015260a08701519350818682030160c08701526119cb8185611588565b979650505050505050565b602080825282516001600160a01b031682820152820151600090611a1c604084018261ffff80825116835280602083015116602084015250604081015160408301525050565b50604083015160a080840152805160c080850152611a3e610180850182611588565b9050602082015160bf19808684030160e0870152611a5c8383611588565b925060408401519150808684030161010087015250611a7b8282611588565b6060840151610120870152608084015161014087015260a09093015161016090950194909452509392505050565b600060208284031215611abb57600080fd5b813561154581611715565b634e487b7160e01b600052603260045260246000fd5b602080825282516001600160a01b031682820152828101516040808401819052815160608501819052600093926080600583901b87018101939185019290870190865b81811015611b6857888603607f19018352845180516001600160e01b0319168752870151878701859052611b5585880182611588565b9650509386019391860191600101611b1f565b509398975050505050505050565b81835281816020850137506000828201602090810191909152601f909101601f19169091010190565b6020815260006116d2602083018486611b76565b600060208284031215611bc557600080fd5b815161154581611513565b6000808335601e19843603018112611be757600080fd5b830160208101925035905067ffffffffffffffff811115611c0757600080fd5b80360382131561182a57600080fd5b6020815260008235611c2781611513565b6001600160a01b0316602083810191909152611c4590840184611bd0565b60c06040850152611c5a60e085018284611b76565b9150506040840135606084015261ffff80611c7760608701611740565b16608085015280611c8a60808701611740565b1660a08501525060a084013560c08401528091505092915050565b602081526000611cb58384611bd0565b60c06020850152611cca60e085018284611b76565b915050611cda6020850185611bd0565b601f1980868503016040870152611cf2848385611b76565b9350611d016040880188611bd0565b935091508086850301606087015250611d1b838383611b76565b9250505060608401356080840152608084013560a084015260a084013560c08401528091505092915050565b81810381811115610c1057634e487b7160e01b600052601160045260246000fdfe63726561746552656d6f7661626c6552656769737472617228437265617465456e7469747941726773296368616e6765456e746974795465726d7328616464726573732c526567697374726174696f6e5465726d73296372656174655265676973747261724e6f52656d6f76616c28437265617465456e746974794172677329a2646970667358221220502fd8ab66e85b852bd7e6427d1122c9665fe3a9e5d0bcc4a6618f8a15e4253c64736f6c63430008180033",
  "linkReferences": {
    "contracts/libraries/LibAccess.sol": {
      "LibAccess": [
        {
          "length": 20,
          "start": 706
        },
        {
          "length": 20,
          "start": 3256
        }
      ]
    },
    "contracts/libraries/LibExtensions.sol": {
      "LibExtensions": [
        {
          "length": 20,
          "start": 2759
        }
      ]
    },
    "contracts/libraries/LibRegistration.sol": {
      "LibRegistration": [
        {
          "length": 20,
          "start": 1203
        },
        {
          "length": 20,
          "start": 1840
        },
        {
          "length": 20,
          "start": 3010
        },
        {
          "length": 20,
          "start": 3141
        },
        {
          "length": 20,
          "start": 4436
        },
        {
          "length": 20,
          "start": 4807
        },
        {
          "length": 20,
          "start": 4919
        }
      ]
    }
  },
  "deployedLinkReferences": {
    "contracts/libraries/LibAccess.sol": {
      "LibAccess": [
        {
          "length": 20,
          "start": 674
        },
        {
          "length": 20,
          "start": 3224
        }
      ]
    },
    "contracts/libraries/LibExtensions.sol": {
      "LibExtensions": [
        {
          "length": 20,
          "start": 2727
        }
      ]
    },
    "contracts/libraries/LibRegistration.sol": {
      "LibRegistration": [
        {
          "length": 20,
          "start": 1171
        },
        {
          "length": 20,
          "start": 1808
        },
        {
          "length": 20,
          "start": 2978
        },
        {
          "length": 20,
          "start": 3109
        },
        {
          "length": 20,
          "start": 4404
        },
        {
          "length": 20,
          "start": 4775
        },
        {
          "length": 20,
          "start": 4887
        }
      ]
    }
  }
}