{
  "_format": "hh-sol-artifact-1",
  "contractName": "RegistrarExtResolver",
  "sourceName": "contracts/registrar/instance/RegistrarExtResolver.sol",
  "abi": [
    {
      "inputs": [
        {
          "components": [
            {
              "internalType": "contract ICoreExtensionRegistry",
              "name": "extensionsRegistry",
              "type": "address"
            },
            {
              "internalType": "address",
              "name": "owner",
              "type": "address"
            },
            {
              "internalType": "address[]",
              "name": "admins",
              "type": "address[]"
            }
          ],
          "internalType": "struct BaseExtResolverConstructorArgs",
          "name": "args",
          "type": "tuple"
        }
      ],
      "stateMutability": "nonpayable",
      "type": "constructor"
    },
    {
      "anonymous": false,
      "inputs": [
        {
          "indexed": false,
          "internalType": "string",
          "name": "name",
          "type": "string"
        }
      ],
      "name": "ExtensionDisabled",
      "type": "event"
    },
    {
      "anonymous": false,
      "inputs": [
        {
          "indexed": false,
          "internalType": "string",
          "name": "name",
          "type": "string"
        }
      ],
      "name": "ExtensionEnabled",
      "type": "event"
    },
    {
      "anonymous": false,
      "inputs": [
        {
          "indexed": false,
          "internalType": "string",
          "name": "name",
          "type": "string"
        },
        {
          "components": [
            {
              "internalType": "uint16",
              "name": "major",
              "type": "uint16"
            },
            {
              "internalType": "uint16",
              "name": "minor",
              "type": "uint16"
            }
          ],
          "indexed": false,
          "internalType": "struct Version",
          "name": "version",
          "type": "tuple"
        }
      ],
      "name": "ExtensionInstalled",
      "type": "event"
    },
    {
      "anonymous": false,
      "inputs": [
        {
          "indexed": false,
          "internalType": "string",
          "name": "name",
          "type": "string"
        },
        {
          "components": [
            {
              "internalType": "uint16",
              "name": "major",
              "type": "uint16"
            },
            {
              "internalType": "uint16",
              "name": "minor",
              "type": "uint16"
            }
          ],
          "indexed": false,
          "internalType": "struct Version",
          "name": "version",
          "type": "tuple"
        }
      ],
      "name": "ExtensionRolledBack",
      "type": "event"
    },
    {
      "anonymous": false,
      "inputs": [
        {
          "indexed": false,
          "internalType": "string",
          "name": "name",
          "type": "string"
        },
        {
          "components": [
            {
              "internalType": "uint16",
              "name": "major",
              "type": "uint16"
            },
            {
              "internalType": "uint16",
              "name": "minor",
              "type": "uint16"
            }
          ],
          "indexed": false,
          "internalType": "struct Version",
          "name": "version",
          "type": "tuple"
        }
      ],
      "name": "ExtensionUpgraded",
      "type": "event"
    },
    {
      "anonymous": false,
      "inputs": [
        {
          "indexed": false,
          "internalType": "bytes4",
          "name": "selector",
          "type": "bytes4"
        }
      ],
      "name": "SelectorDisabled",
      "type": "event"
    },
    {
      "anonymous": false,
      "inputs": [
        {
          "indexed": false,
          "internalType": "bytes4",
          "name": "selector",
          "type": "bytes4"
        }
      ],
      "name": "SelectorEnabled",
      "type": "event"
    },
    {
      "stateMutability": "nonpayable",
      "type": "fallback"
    },
    {
      "inputs": [
        {
          "internalType": "address[]",
          "name": "signers",
          "type": "address[]"
        }
      ],
      "name": "addSigners",
      "outputs": [],
      "stateMutability": "nonpayable",
      "type": "function"
    },
    {
      "inputs": [
        {
          "internalType": "address",
          "name": "newOwner",
          "type": "address"
        }
      ],
      "name": "changeOwner",
      "outputs": [],
      "stateMutability": "nonpayable",
      "type": "function"
    },
    {
      "inputs": [],
      "name": "extRegistry",
      "outputs": [
        {
          "internalType": "contract ICoreExtensionRegistry",
          "name": "",
          "type": "address"
        }
      ],
      "stateMutability": "view",
      "type": "function"
    },
    {
      "inputs": [
        {
          "internalType": "string",
          "name": "name",
          "type": "string"
        }
      ],
      "name": "getExtensionVersion",
      "outputs": [
        {
          "components": [
            {
              "internalType": "uint16",
              "name": "major",
              "type": "uint16"
            },
            {
              "internalType": "uint16",
              "name": "minor",
              "type": "uint16"
            }
          ],
          "internalType": "struct Version",
          "name": "",
          "type": "tuple"
        }
      ],
      "stateMutability": "view",
      "type": "function"
    },
    {
      "inputs": [
        {
          "internalType": "bytes32",
          "name": "role",
          "type": "bytes32"
        },
        {
          "internalType": "address",
          "name": "account",
          "type": "address"
        }
      ],
      "name": "grantRole",
      "outputs": [],
      "stateMutability": "nonpayable",
      "type": "function"
    },
    {
      "inputs": [
        {
          "internalType": "string",
          "name": "name",
          "type": "string"
        },
        {
          "components": [
            {
              "internalType": "uint16",
              "name": "major",
              "type": "uint16"
            },
            {
              "internalType": "uint16",
              "name": "minor",
              "type": "uint16"
            }
          ],
          "internalType": "struct Version",
          "name": "version",
          "type": "tuple"
        }
      ],
      "name": "hasExtension",
      "outputs": [
        {
          "internalType": "bool",
          "name": "",
          "type": "bool"
        }
      ],
      "stateMutability": "view",
      "type": "function"
    },
    {
      "inputs": [
        {
          "internalType": "bytes32",
          "name": "role",
          "type": "bytes32"
        },
        {
          "internalType": "address",
          "name": "account",
          "type": "address"
        }
      ],
      "name": "hasRole",
      "outputs": [
        {
          "internalType": "bool",
          "name": "",
          "type": "bool"
        }
      ],
      "stateMutability": "view",
      "type": "function"
    },
    {
      "inputs": [
        {
          "internalType": "address",
          "name": "account",
          "type": "address"
        }
      ],
      "name": "isAdmin",
      "outputs": [
        {
          "internalType": "bool",
          "name": "",
          "type": "bool"
        }
      ],
      "stateMutability": "view",
      "type": "function"
    },
    {
      "inputs": [
        {
          "internalType": "address",
          "name": "account",
          "type": "address"
        }
      ],
      "name": "isSigner",
      "outputs": [
        {
          "internalType": "bool",
          "name": "",
          "type": "bool"
        }
      ],
      "stateMutability": "view",
      "type": "function"
    },
    {
      "inputs": [
        {
          "internalType": "bytes4",
          "name": "selector",
          "type": "bytes4"
        }
      ],
      "name": "lookup",
      "outputs": [
        {
          "internalType": "address",
          "name": "",
          "type": "address"
        }
      ],
      "stateMutability": "view",
      "type": "function"
    },
    {
      "inputs": [],
      "name": "owner",
      "outputs": [
        {
          "internalType": "address",
          "name": "",
          "type": "address"
        }
      ],
      "stateMutability": "view",
      "type": "function"
    },
    {
      "inputs": [
        {
          "internalType": "address[]",
          "name": "signers",
          "type": "address[]"
        }
      ],
      "name": "removeSigners",
      "outputs": [],
      "stateMutability": "nonpayable",
      "type": "function"
    },
    {
      "inputs": [
        {
          "internalType": "bytes32",
          "name": "role",
          "type": "bytes32"
        },
        {
          "internalType": "address",
          "name": "account",
          "type": "address"
        }
      ],
      "name": "revokeRole",
      "outputs": [],
      "stateMutability": "nonpayable",
      "type": "function"
    },
    {
      "inputs": [
        {
          "internalType": "string",
          "name": "name",
          "type": "string"
        }
      ],
      "name": "rollbackExtension",
      "outputs": [],
      "stateMutability": "nonpayable",
      "type": "function"
    },
    {
      "inputs": [
        {
          "internalType": "string",
          "name": "name",
          "type": "string"
        }
      ],
      "name": "upgradeExtension",
      "outputs": [],
      "stateMutability": "nonpayable",
      "type": "function"
    }
  ],
  "bytecode": "0x60a06040523480156200001157600080fd5b506040516200386038038062003860833981016040819052620000349162000bf4565b805181906001600160a01b0316620000b95760405162461bcd60e51b815260206004820152603a60248201527f426173654578745265736f6c7665723a20657874656e73696f6e20726567697360448201527f7472792063616e6e6f74206265207a65726f206164647265737300000000000060648201526084015b60405180910390fd5b60208101516001600160a01b03166200012b5760405162461bcd60e51b815260206004820152602d60248201527f426173654578745265736f6c7665723a206f776e65722063616e6e6f7420626560448201526c207a65726f206164647265737360981b6064820152608401620000b0565b80516001600160a01b03166080526020810151604080830151905163d9ac971f60e01b815273__$a5a42e46683ad9c79b7b86d5ff60fdf4c1$__9263d9ac971f926200017a9260040162000d0d565b60006040518083038186803b1580156200019357600080fd5b505af4158015620001a8573d6000803e3d6000fd5b506000935060049250620001ba915050565b604051908082528060200260200182016040528015620001ef57816020015b6060815260200190600190039081620001d95790505b509050604051806040016040528060098152602001681058d8d95cdcd15e1d60ba1b815250816000815181106200022a576200022a62000d6b565b60200260200101819052506040518060400160405280601d81526020017f526567697374726172576f726c64526567697374726174696f6e4578740000008152508160018151811062000281576200028162000d6b565b60200260200101819052506040518060400160405280601281526020017114995b5bdd98589b19515b9d1a5d1e515e1d60721b81525081600281518110620002cd57620002cd62000d6b565b60200260200101819052506040518060400160405280600d81526020016c15195c9b5cd3dddb995c915e1d609a1b8152508160038151811062000314576200031462000d6b565b6020908102919091018101919091526040805191820190528181526200033a8162000343565b5050506200119b565b60005b8151518110156200049b57815180518290811062000368576200036862000d6b565b60200260200101515160000315620004925760006080516001600160a01b031663c22707ee84600001518481518110620003a657620003a662000d6b565b60200260200101516040518263ffffffff1660e01b8152600401620003cc919062000dd5565b602060405180830381865afa158015620003ea573d6000803e3d6000fd5b505050506040513d601f19601f8201168201806040525081019062000410919062000df1565b90506001600160a01b03811662000483576000836000015183815181106200043c576200043c62000d6b565b602002602001015160405160200162000456919062000e11565b60405160208183030381529060405290508060405162461bcd60e51b8152600401620000b0919062000dd5565b806200048f816200049f565b50505b60010162000346565b5050565b6000620004ab62000845565b90506040518060800160405280600115158152602001836001600160a01b031663392f37e96040518163ffffffff1660e01b8152600401600060405180830381865afa15801562000500573d6000803e3d6000fd5b505050506040513d6000823e601f3d908101601f191682016040526200052a919081019062000ebf565b81526001600160a01b038416602082015260400160006040519080825280602002602001820160405280156200056a578160200160208202803683370190505b5090526001600160a01b0383166000908152602083815260409091208251815460ff191690151517815590820151805160018301908190620005ad908262001032565b506020918201518051600190920180549184015161ffff908116620100000263ffffffff1990931693169290921717905560408301516003830180546001600160a01b039092166001600160a01b0319909216919091179055606083015180516200061f926004850192019062000a82565b50505060038101805460018101825560009182526020918290200180546001600160a01b0319166001600160a01b038516908117909155604080516024808201939093528151808203909301835260440190529081018051632a1b8f9b60e01b6001600160e01b03918216179091526200069e9084908390620008de16565b506000836001600160a01b031663392f37e96040518163ffffffff1660e01b8152600401600060405180830381865afa158015620006e0573d6000803e3d6000fd5b505050506040513d6000823e601f3d908101601f191682016040526200070a919081019062000ebf565b80519091506000906200071d90620009b5565b905060006001600160a01b031684600201826040516200073e9190620010fe565b908152604051908190036020019020546001600160a01b031614620007b85760405162461bcd60e51b815260206004820152602960248201527f4c6962457874656e73696f6e3a20657874656e73696f6e20616c7265616479206044820152681a5b9cdd185b1b195960ba1b6064820152608401620000b0565b848460020182604051620007cd9190620010fe565b908152602001604051809103902060006101000a8154816001600160a01b0302191690836001600160a01b031602179055507ffe9a3a52d7e1a3740350821816e344a482f9611bc09285fa4132de9645b41bae818360200151604051620008369291906200111c565b60405180910390a15050505050565b60408051808201909152601881527f78722e657874656e73696f6e732e73746f726167652e7631000000000000000060209091015260008060ff620008ac60017fb58ec9ca7ba0606d9fecd9f559655d0e5fec418e6751b65b892bccdfd25eb99f62001169565b604051602001620008bf91815260200190565b60408051601f1981840301815291905280516020909101201692915050565b6060600080846001600160a01b031684604051620008fd9190620010fe565b600060405180830381855af49150503d80600081146200093a576040519150601f19603f3d011682016040523d82523d6000602084013e6200093f565b606091505b5091509150811562000955579150620009af9050565b805115620009665780518082602001fd5b60405162461bcd60e51b815260206004820152601660248201527f46756e6374696f6e2063616c6c207265766572746564000000000000000000006044820152606401620000b0565b92915050565b60608160005b815181101562000a2857620009f3828281518110620009de57620009de62000d6b565b01602001516001600160f81b03191662000a2f565b82828151811062000a085762000a0862000d6b565b60200101906001600160f81b031916908160001a905350600101620009bb565b5092915050565b6000604160f81b6001600160f81b031983161080159062000a5e5750602d60f91b6001600160f81b0319831611155b1562000a7e5762000a7560f883901c60206200117f565b60f81b92915050565b5090565b8280548282559060005260206000209060070160089004810192821562000b235791602002820160005b8382111562000aef57835183826101000a81548163ffffffff021916908360e01c0217905550926020019260040160208160030104928301926001030262000aac565b801562000b215782816101000a81549063ffffffff021916905560040160208160030104928301926001030262000aef565b505b5062000a7e9291505b8082111562000a7e576000815560010162000b2c565b634e487b7160e01b600052604160045260246000fd5b604051606081016001600160401b038111828210171562000b7d5762000b7d62000b42565b60405290565b604080519081016001600160401b038111828210171562000b7d5762000b7d62000b42565b604051601f8201601f191681016001600160401b038111828210171562000bd35762000bd362000b42565b604052919050565b6001600160a01b038116811462000bf157600080fd5b50565b6000602080838503121562000c0857600080fd5b82516001600160401b038082111562000c2057600080fd5b908401906060828703121562000c3557600080fd5b62000c3f62000b58565b825162000c4c8162000bdb565b81528284015162000c5d8162000bdb565b8185015260408301518281111562000c7457600080fd5b80840193505086601f84011262000c8a57600080fd5b82518281111562000c9f5762000c9f62000b42565b8060051b925062000cb285840162000ba8565b818152928401850192858101908985111562000ccd57600080fd5b948601945b8486101562000cfb578551925062000cea8362000bdb565b828252948601949086019062000cd2565b60408401525090979650505050505050565b6001600160a01b038381168252604060208084018290528451918401829052600092858201929091906060860190855b8181101562000d5d57855185168352948301949183019160010162000d3d565b509098975050505050505050565b634e487b7160e01b600052603260045260246000fd5b60005b8381101562000d9e57818101518382015260200162000d84565b50506000910152565b6000815180845262000dc181602086016020860162000d81565b601f01601f19169290920160200192915050565b60208152600062000dea602083018462000da7565b9392505050565b60006020828403121562000e0457600080fd5b815162000dea8162000bdb565b7f42617369635368656c6c3a20657874656e73696f6e206e6f7420666f756e643a8152600160fd1b60208201526000825162000e5581602185016020870162000d81565b9190910160210192915050565b805161ffff8116811462000e7557600080fd5b919050565b60006040828403121562000e8d57600080fd5b62000e9762000b83565b905062000ea48262000e62565b815262000eb46020830162000e62565b602082015292915050565b6000602080838503121562000ed357600080fd5b82516001600160401b038082111562000eeb57600080fd5b908401906060828703121562000f0057600080fd5b62000f0a62000b83565b82518281111562000f1a57600080fd5b8301601f8101881362000f2c57600080fd5b80518381111562000f415762000f4162000b42565b62000f55601f8201601f1916870162000ba8565b9350808452888682840101111562000f6c57600080fd5b62000f7d8187860188850162000d81565b505081815262000f908785850162000e7a565b848201528094505050505092915050565b600181811c9082168062000fb657607f821691505b60208210810362000fd757634e487b7160e01b600052602260045260246000fd5b50919050565b601f8211156200102d576000816000526020600020601f850160051c81016020861015620010085750805b601f850160051c820191505b81811015620010295782815560010162001014565b5050505b505050565b81516001600160401b038111156200104e576200104e62000b42565b62001066816200105f845462000fa1565b8462000fdd565b602080601f8311600181146200109e5760008415620010855750858301515b600019600386901b1c1916600185901b17855562001029565b600085815260208120601f198616915b82811015620010cf57888601518255948401946001909101908401620010ae565b5085821015620010ee5787850151600019600388901b60f8161c191681555b5050505050600190811b01905550565b600082516200111281846020870162000d81565b9190910192915050565b60608152600062001131606083018562000da7565b905061ffff808451166020840152806020850151166040840152509392505050565b634e487b7160e01b600052601160045260246000fd5b81810381811115620009af57620009af62001153565b60ff8181168382160190811115620009af57620009af62001153565b60805161269b620011c5600039600081816101e5015281816107c80152610951015261269b6000f3fe608060405234801561001057600080fd5b50600436106100f55760003560e01c80638d361e4311610097578063a26d889011610066578063a26d889014610248578063a6f9dae11461025b578063d547741f1461026e578063e8906a2d14610281576100f5565b80638d361e43146102075780638da5cb5b1461021a57806391d14854146102225780639da6ecc014610235576100f5565b806347d1d09a116100d357806347d1d09a1461018f5780636f68e8d2146101a25780637df73e27146101cd5780638a854771146101e0576100f5565b8063238a03861461011d57806324d7806c146101575780632f2ff15d1461017a575b600080356001600160e01b0319169050600061011382600036610294565b9050805160208201f35b61013061012b366004611e92565b6102a9565b60408051825161ffff90811682526020938401511692810192909252015b60405180910390f35b61016a610165366004611edc565b610338565b604051901515815260200161014e565b61018d610188366004611ef9565b6103b8565b005b61016a61019d366004611f29565b6104c7565b6101b56101b0366004611f83565b61054b565b6040516001600160a01b03909116815260200161014e565b61016a6101db366004611edc565b610556565b6101b57f000000000000000000000000000000000000000000000000000000000000000081565b61018d610215366004611fad565b610599565b6101b5610661565b61016a610230366004611ef9565b6106d5565b61018d610243366004612022565b61071f565b61018d610256366004612022565b6108a8565b61018d610269366004611edc565b610a2b565b61018d61027c366004611ef9565b610b74565b61018d61028f366004611fad565b610c4a565b60606102a1848484610d12565b949350505050565b6040805180820182526000808252602082015290516311c501c360e11b815273__$307c3a572bdf5d9800a89b3fc2eb3d5604$__9063238a0386906102f29085906004016120d2565b6040805180830381865af415801561030e573d6000803e3d6000fd5b505050506040513d601f19601f820116820180604052508101906103329190612137565b92915050565b604051630935e01b60e21b81526001600160a01b038216600482015260009073__$a5a42e46683ad9c79b7b86d5ff60fdf4c1$__906324d7806c906024015b602060405180830381865af4158015610394573d6000803e3d6000fd5b505050506040513d601f19601f820116820180604052508101906103329190612153565b604051630935e01b60e21b815233600482015273__$a5a42e46683ad9c79b7b86d5ff60fdf4c1$__906324d7806c90602401602060405180830381865af4158015610407573d6000803e3d6000fd5b505050506040513d601f19601f8201168201806040525081019061042b9190612153565b6104505760405162461bcd60e51b815260040161044790612175565b60405180910390fd5b604051632f2ff15d60e01b8152600481018390526001600160a01b038216602482015273__$a5a42e46683ad9c79b7b86d5ff60fdf4c1$__90632f2ff15d906044015b60006040518083038186803b1580156104ab57600080fd5b505af41580156104bf573d6000803e3d6000fd5b505050505050565b6040516329925a7160e11b815260009073__$307c3a572bdf5d9800a89b3fc2eb3d5604$__90635324b4e29061050390869086906004016121bb565b602060405180830381865af4158015610520573d6000803e3d6000fd5b505050506040513d601f19601f820116820180604052508101906105449190612153565b9392505050565b600061033282610e22565b604051637df73e2760e01b81526001600160a01b038216600482015260009073__$a5a42e46683ad9c79b7b86d5ff60fdf4c1$__90637df73e2790602401610377565b604051630935e01b60e21b815233600482015273__$a5a42e46683ad9c79b7b86d5ff60fdf4c1$__906324d7806c90602401602060405180830381865af41580156105e8573d6000803e3d6000fd5b505050506040513d601f19601f8201168201806040525081019061060c9190612153565b6106285760405162461bcd60e51b815260040161044790612175565b604051638d361e4360e01b815273__$a5a42e46683ad9c79b7b86d5ff60fdf4c1$__90638d361e43906104939085908590600401612207565b600073__$a5a42e46683ad9c79b7b86d5ff60fdf4c1$__638da5cb5b6040518163ffffffff1660e01b8152600401602060405180830381865af41580156106ac573d6000803e3d6000fd5b505050506040513d601f19601f820116820180604052508101906106d09190612255565b905090565b604051632474521560e21b8152600481018390526001600160a01b038216602482015260009073__$a5a42e46683ad9c79b7b86d5ff60fdf4c1$__906391d1485490604401610503565b604051630935e01b60e21b815233600482015273__$a5a42e46683ad9c79b7b86d5ff60fdf4c1$__906324d7806c90602401602060405180830381865af415801561076e573d6000803e3d6000fd5b505050506040513d601f19601f820116820180604052508101906107929190612153565b6107ae5760405162461bcd60e51b815260040161044790612175565b60405163611383f760e11b81526000906001600160a01b037f0000000000000000000000000000000000000000000000000000000000000000169063c22707ee906107ff9086908690600401612272565b602060405180830381865afa15801561081c573d6000803e3d6000fd5b505050506040513d601f19601f820116820180604052508101906108409190612255565b90506001600160a01b0381166108985760405162461bcd60e51b815260206004820152601f60248201527f42617369635368656c6c3a20657874656e73696f6e206e6f7420666f756e64006044820152606401610447565b806108a281610eef565b50505050565b604051630935e01b60e21b815233600482015273__$a5a42e46683ad9c79b7b86d5ff60fdf4c1$__906324d7806c90602401602060405180830381865af41580156108f7573d6000803e3d6000fd5b505050506040513d601f19601f8201168201806040525081019061091b9190612153565b6109375760405162461bcd60e51b815260040161044790612175565b60405163611383f760e11b81526000906001600160a01b037f0000000000000000000000000000000000000000000000000000000000000000169063c22707ee906109889086908690600401612272565b602060405180830381865afa1580156109a5573d6000803e3d6000fd5b505050506040513d601f19601f820116820180604052508101906109c99190612255565b90506001600160a01b038116610a215760405162461bcd60e51b815260206004820152601f60248201527f42617369635368656c6c3a20657874656e73696f6e206e6f7420666f756e64006044820152606401610447565b806108a281611463565b336001600160a01b031673__$a5a42e46683ad9c79b7b86d5ff60fdf4c1$__638da5cb5b6040518163ffffffff1660e01b8152600401602060405180830381865af4158015610a7e573d6000803e3d6000fd5b505050506040513d601f19601f82011682018060405250810190610aa29190612255565b6001600160a01b031614610b065760405162461bcd60e51b815260206004820152602560248201527f42617369634578745265736f6c7665723a207265737472696374656420746f2060448201526437bbb732b960d91b6064820152608401610447565b6040516313af403560e01b81526001600160a01b038216600482015273__$a5a42e46683ad9c79b7b86d5ff60fdf4c1$__906313af40359060240160006040518083038186803b158015610b5957600080fd5b505af4158015610b6d573d6000803e3d6000fd5b5050505050565b604051630935e01b60e21b815233600482015273__$a5a42e46683ad9c79b7b86d5ff60fdf4c1$__906324d7806c90602401602060405180830381865af4158015610bc3573d6000803e3d6000fd5b505050506040513d601f19601f82011682018060405250810190610be79190612153565b610c035760405162461bcd60e51b815260040161044790612175565b60405163d547741f60e01b8152600481018390526001600160a01b038216602482015273__$a5a42e46683ad9c79b7b86d5ff60fdf4c1$__9063d547741f90604401610493565b604051630935e01b60e21b815233600482015273__$a5a42e46683ad9c79b7b86d5ff60fdf4c1$__906324d7806c90602401602060405180830381865af4158015610c99573d6000803e3d6000fd5b505050506040513d601f19601f82011682018060405250810190610cbd9190612153565b610cd95760405162461bcd60e51b815260040161044790612175565b60405163e8906a2d60e01b815273__$a5a42e46683ad9c79b7b86d5ff60fdf4c1$__9063e8906a2d906104939085908590600401612207565b60606000610d1e6119d9565b6001600160e01b031986166000908152600182016020526040902080549192509061010090046001600160a01b0316610d695760405162461bcd60e51b8152600401610447906122a1565b805460ff16610d8a5760405162461bcd60e51b8152600401610447906122f0565b805461010090046001600160a01b03166000908152602083905260409020805460ff16610dc95760405162461bcd60e51b815260040161044790612332565b8154604080516020601f8901819004810282018101909252878152610e179261010090046001600160a01b0316918990899081908401838280828437600092019190915250611a6f92505050565b979650505050505050565b600080610e2d6119d9565b6001600160e01b031984166000908152600182016020526040902080549192509061010090046001600160a01b0316610e785760405162461bcd60e51b8152600401610447906122a1565b805460ff16610e995760405162461bcd60e51b8152600401610447906122f0565b805461010090046001600160a01b03166000908152602083905260409020805460ff16610ed85760405162461bcd60e51b815260040161044790612332565b505461010090046001600160a01b03169392505050565b6000610ef96119d9565b90506000826001600160a01b031663392f37e96040518163ffffffff1660e01b8152600401600060405180830381865afa158015610f3b573d6000803e3d6000fd5b505050506040513d6000823e601f3d908101601f19168201604052610f639190810190612375565b90506000610f748260000151611b31565b905060008360020182604051610f8a919061242f565b908152604051908190036020019020546001600160a01b0316905080610fc25760405162461bcd60e51b81526004016104479061244b565b6001600160a01b0381166000908152602085905260408082208151808301909252600101805482908290610ff590612490565b80601f016020809104026020016040519081016040528092919081815260200182805461102190612490565b801561106e5780601f106110435761010080835404028352916020019161106e565b820191906000526020600020905b81548152906001019060200180831161105157829003601f168201915b5050509183525050604080518082019091526001929092015461ffff808216845262010000909104166020838101919091529081019190915285810151908201519192506110bc9190611ba1565b61111a5760405162461bcd60e51b815260206004820152602960248201527f4c6962457874656e73696f6e3a206e65772076657273696f6e206d7573742062604482015268329033b932b0ba32b960b91b6064820152608401610447565b6001600160a01b0382166000908152602086905260408120905b60048201548110156111aa5786600101600083600401838154811061115b5761115b6124ca565b6000918252602080832060088304015460079092166004026101000a90910460e01b6001600160e01b0319168352820192909252604001902080546001600160a81b0319169055600101611134565b506040518060800160405280600115158152602001886001600160a01b031663392f37e96040518163ffffffff1660e01b8152600401600060405180830381865afa1580156111fd573d6000803e3d6000fd5b505050506040513d6000823e601f3d908101601f191682016040526112259190810190612375565b81526001600160a01b03891660208201526040016000604051908082528060200260200182016040528015611264578160200160208202803683370190505b5090526001600160a01b0388166000908152602088815260409091208251815460ff1916901515178155908201518051600183019081906112a5908261252d565b506020918201518051600190920180549184015161ffff908116620100000263ffffffff1990931693169290921717905560408301516003830180546001600160a01b039092166001600160a01b0319909216919091179055606083015180516113159260048501920190611c89565b5050604080516001600160a01b038a8116602483015286166044808301919091528251808303909101815260649091019091526020810180516001600160e01b031662900f0160e41b179052905061136d8882611a6f565b50878760020186604051611381919061242f565b908152604080516020928190038301902080546001600160a01b0319166001600160a01b03948516179055918616600090815290899052908120805460ff191681559060018201816113d38282611d31565b50600101805463ffffffff191690556003820180546001600160a01b0319169055611402600483016000611d6e565b50506001600160a01b0388166000908152602088905260409081902090517fc89a54122092896020b2ec748ac6822d76b3e068fef5ddd0d1de01dc0629ea2891611451918891600201906125ed565b60405180910390a15050505050505050565b600061146d6119d9565b90506000826001600160a01b031663392f37e96040518163ffffffff1660e01b8152600401600060405180830381865afa1580156114af573d6000803e3d6000fd5b505050506040513d6000823e601f3d908101601f191682016040526114d79190810190612375565b905060006114e88260000151611b31565b9050600083600201826040516114fe919061242f565b908152604051908190036020019020546001600160a01b03169050806115365760405162461bcd60e51b81526004016104479061244b565b6001600160a01b038116600090815260208590526040808220815180830190925260010180548290829061156990612490565b80601f016020809104026020016040519081016040528092919081815260200182805461159590612490565b80156115e25780601f106115b7576101008083540402835291602001916115e2565b820191906000526020600020905b8154815290600101906020018083116115c557829003601f168201915b5050509183525050604080518082019091526001929092015461ffff808216845262010000909104166020838101919091529081019190915285810151908201519192506116309190611bf2565b6116a25760405162461bcd60e51b815260206004820152603b60248201527f4c6962457874656e73696f6e3a206e65772076657273696f6e206d757374206260448201527f65206c657373207468616e2063757272656e742076657273696f6e00000000006064820152608401610447565b6001600160a01b0382166000908152602086905260408120905b6004820154811015611732578660010160008360040183815481106116e3576116e36124ca565b6000918252602080832060088304015460079092166004026101000a90910460e01b6001600160e01b0319168352820192909252604001902080546001600160a81b03191690556001016116bc565b506040518060800160405280600115158152602001886001600160a01b031663392f37e96040518163ffffffff1660e01b8152600401600060405180830381865afa158015611785573d6000803e3d6000fd5b505050506040513d6000823e601f3d908101601f191682016040526117ad9190810190612375565b81526001600160a01b038916602082015260400160006040519080825280602002602001820160405280156117ec578160200160208202803683370190505b5090526001600160a01b0388166000908152602088815260409091208251815460ff19169015151781559082015180516001830190819061182d908261252d565b506020918201518051600190920180549184015161ffff908116620100000263ffffffff1990931693169290921717905560408301516003830180546001600160a01b039092166001600160a01b03199092169190911790556060830151805161189d9260048501920190611c89565b5050604080516001600160a01b038a8116602483015286166044808301919091528251808303909101815260649091019091526020810180516001600160e01b031662900f0160e41b17905290506118f58882611a6f565b50878760020186604051611909919061242f565b908152604080516020928190038301902080546001600160a01b0319166001600160a01b03948516179055918616600090815290899052908120805460ff1916815590600182018161195b8282611d31565b50600101805463ffffffff191690556003820180546001600160a01b031916905561198a600483016000611d6e565b50506001600160a01b0388166000908152602088905260409081902090517f30075fead0b0a7bc4da8dc695d8d1f811cfe6557fc576ba2d2a07262afc932ee91611451918891600201906125ed565b60408051808201909152601881527f78722e657874656e73696f6e732e73746f726167652e7631000000000000000060209091015260008060ff611a3e60017fb58ec9ca7ba0606d9fecd9f559655d0e5fec418e6751b65b892bccdfd25eb99f612639565b604051602001611a5091815260200190565b60408051601f1981840301815291905280516020909101201692915050565b6060600080846001600160a01b031684604051611a8c919061242f565b600060405180830381855af49150503d8060008114611ac7576040519150601f19603f3d011682016040523d82523d6000602084013e611acc565b606091505b50915091508115611ae05791506103329050565b805115611af05780518082602001fd5b60405162461bcd60e51b8152602060048201526016602482015275119d5b98dd1a5bdb8818d85b1b081c995d995c9d195960521b6044820152606401610447565b60608160005b8151811015611b9a57611b69828281518110611b5557611b556124ca565b01602001516001600160f81b031916611c3a565b828281518110611b7b57611b7b6124ca565b60200101906001600160f81b031916908160001a905350600101611b37565b5092915050565b8051825160009161ffff90811691161015611bbe57506001610332565b8151835161ffff918216911603611be957816020015161ffff16836020015161ffff16109050610332565b50600092915050565b8051825160009161ffff90811691161115611c0f57506001610332565b8151835161ffff918216911603611be957816020015161ffff16836020015161ffff16119050610332565b6000604160f81b6001600160f81b0319831610801590611c685750602d60f91b6001600160f81b0319831611155b15611c8557611c7c60f883901c602061264c565b60f81b92915050565b5090565b82805482825590600052602060002090600701600890048101928215611d255791602002820160005b83821115611cf357835183826101000a81548163ffffffff021916908360e01c02179055509260200192600401602081600301049283019260010302611cb2565b8015611d235782816101000a81549063ffffffff0219169055600401602081600301049283019260010302611cf3565b505b50611c85929150611d8f565b508054611d3d90612490565b6000825580601f10611d4d575050565b601f016020900490600052602060002090810190611d6b9190611d8f565b50565b508054600082556007016008900490600052602060002090810190611d6b91905b5b80821115611c855760008155600101611d90565b634e487b7160e01b600052604160045260246000fd5b6040805190810167ffffffffffffffff81118282101715611ddd57611ddd611da4565b60405290565b604051601f8201601f1916810167ffffffffffffffff81118282101715611e0c57611e0c611da4565b604052919050565b600067ffffffffffffffff821115611e2e57611e2e611da4565b50601f01601f191660200190565b600082601f830112611e4d57600080fd5b8135611e60611e5b82611e14565b611de3565b818152846020838601011115611e7557600080fd5b816020850160208301376000918101602001919091529392505050565b600060208284031215611ea457600080fd5b813567ffffffffffffffff811115611ebb57600080fd5b6102a184828501611e3c565b6001600160a01b0381168114611d6b57600080fd5b600060208284031215611eee57600080fd5b813561054481611ec7565b60008060408385031215611f0c57600080fd5b823591506020830135611f1e81611ec7565b809150509250929050565b6000808284036060811215611f3d57600080fd5b833567ffffffffffffffff811115611f5457600080fd5b611f6086828701611e3c565b9350506040601f1982011215611f7557600080fd5b506020830190509250929050565b600060208284031215611f9557600080fd5b81356001600160e01b03198116811461054457600080fd5b60008060208385031215611fc057600080fd5b823567ffffffffffffffff80821115611fd857600080fd5b818501915085601f830112611fec57600080fd5b813581811115611ffb57600080fd5b8660208260051b850101111561201057600080fd5b60209290920196919550909350505050565b6000806020838503121561203557600080fd5b823567ffffffffffffffff8082111561204d57600080fd5b818501915085601f83011261206157600080fd5b81358181111561207057600080fd5b86602082850101111561201057600080fd5b60005b8381101561209d578181015183820152602001612085565b50506000910152565b600081518084526120be816020860160208601612082565b601f01601f19169290920160200192915050565b60208152600061054460208301846120a6565b61ffff81168114611d6b57600080fd5b60006040828403121561210757600080fd5b61210f611dba565b9050815161211c816120e5565b8152602082015161212c816120e5565b602082015292915050565b60006040828403121561214957600080fd5b61054483836120f5565b60006020828403121561216557600080fd5b8151801515811461054457600080fd5b60208082526026908201527f42617369634578745265736f6c7665723a207265737472696374656420746f2060408201526561646d696e7360d01b606082015260800190565b6060815260006121ce60608301856120a6565b905082356121db816120e5565b61ffff8082166020850152602085013591506121f6826120e5565b808216604085015250509392505050565b60208082528181018390526000908460408401835b8681101561224a57823561222f81611ec7565b6001600160a01b03168252918301919083019060010161221c565b509695505050505050565b60006020828403121561226757600080fd5b815161054481611ec7565b60208152816020820152818360408301376000818301604090810191909152601f909201601f19160101919050565b6020808252602f908201527f4c6962457874656e73696f6e3a206e6f20657874656e73696f6e20737570706f60408201526e393a399033371039b2b632b1ba37b960891b606082015260800190565b60208082526022908201527f4c6962457874656e73696f6e3a2073656c6563746f72206e6f7420656e61626c604082015261195960f21b606082015260800190565b60208082526023908201527f4c6962457874656e73696f6e3a20657874656e73696f6e206e6f7420656e61626040820152621b195960ea1b606082015260800190565b6000602080838503121561238857600080fd5b825167ffffffffffffffff808211156123a057600080fd5b90840190606082870312156123b457600080fd5b6123bc611dba565b8251828111156123cb57600080fd5b83019150601f820187136123de57600080fd5b81516123ec611e5b82611e14565b818152888683860101111561240057600080fd5b61240f82878301888701612082565b82525061241e878486016120f5565b848201528094505050505092915050565b60008251612441818460208701612082565b9190910192915050565b60208082526025908201527f4c6962457874656e73696f6e3a20657874656e73696f6e206e6f7420696e7374604082015264185b1b195960da1b606082015260800190565b600181811c908216806124a457607f821691505b6020821081036124c457634e487b7160e01b600052602260045260246000fd5b50919050565b634e487b7160e01b600052603260045260246000fd5b601f821115612528576000816000526020600020601f850160051c810160208610156125095750805b601f850160051c820191505b818110156104bf57828155600101612515565b505050565b815167ffffffffffffffff81111561254757612547611da4565b61255b816125558454612490565b846124e0565b602080601f83116001811461259057600084156125785750858301515b600019600386901b1c1916600185901b1785556104bf565b600085815260208120601f198616915b828110156125bf578886015182559484019460019091019084016125a0565b50858210156125dd5787850151600019600388901b60f8161c191681555b5050505050600190811b01905550565b60608152600061260060608301856120a6565b9050825461ffff8082166020850152808260101c16604085015250509392505050565b634e487b7160e01b600052601160045260246000fd5b8181038181111561033257610332612623565b60ff81811683821601908111156103325761033261262356fea2646970667358221220ca2acca767d5b95c633b9093d0e84221779c0f2acf3d34547bfaebe6d2dd4e3464736f6c63430008180033",
  "linkReferences": {
    "contracts/libraries/LibAccess.sol": {
      "LibAccess": [
        {
          "length": 20,
          "start": 338
        },
        {
          "length": 20,
          "start": 5406
        },
        {
          "length": 20,
          "start": 5522
        },
        {
          "length": 20,
          "start": 5690
        },
        {
          "length": 20,
          "start": 5948
        },
        {
          "length": 20,
          "start": 6003
        },
        {
          "length": 20,
          "start": 6140
        },
        {
          "length": 20,
          "start": 6186
        },
        {
          "length": 20,
          "start": 6338
        },
        {
          "length": 20,
          "start": 6393
        },
        {
          "length": 20,
          "start": 6786
        },
        {
          "length": 20,
          "start": 7164
        },
        {
          "length": 20,
          "start": 7401
        },
        {
          "length": 20,
          "start": 7502
        },
        {
          "length": 20,
          "start": 7661
        },
        {
          "length": 20,
          "start": 7716
        },
        {
          "length": 20,
          "start": 7853
        }
      ]
    },
    "contracts/libraries/LibExtensions.sol": {
      "LibExtensions": [
        {
          "length": 20,
          "start": 5263
        },
        {
          "length": 20,
          "start": 5790
        }
      ]
    }
  },
  "deployedLinkReferences": {
    "contracts/libraries/LibAccess.sol": {
      "LibAccess": [
        {
          "length": 20,
          "start": 857
        },
        {
          "length": 20,
          "start": 973
        },
        {
          "length": 20,
          "start": 1141
        },
        {
          "length": 20,
          "start": 1399
        },
        {
          "length": 20,
          "start": 1454
        },
        {
          "length": 20,
          "start": 1591
        },
        {
          "length": 20,
          "start": 1637
        },
        {
          "length": 20,
          "start": 1789
        },
        {
          "length": 20,
          "start": 1844
        },
        {
          "length": 20,
          "start": 2237
        },
        {
          "length": 20,
          "start": 2615
        },
        {
          "length": 20,
          "start": 2852
        },
        {
          "length": 20,
          "start": 2953
        },
        {
          "length": 20,
          "start": 3112
        },
        {
          "length": 20,
          "start": 3167
        },
        {
          "length": 20,
          "start": 3304
        }
      ]
    },
    "contracts/libraries/LibExtensions.sol": {
      "LibExtensions": [
        {
          "length": 20,
          "start": 714
        },
        {
          "length": 20,
          "start": 1241
        }
      ]
    }
  }
}