{
  "_format": "hh-sol-artifact-1",
  "contractName": "RegistrarWorldRegistrationExt",
  "sourceName": "contracts/extensions/registrar/RegistrarWorldRegistrationExt.sol",
  "abi": [
    {
      "anonymous": false,
      "inputs": [
        {
          "indexed": true,
          "internalType": "address",
          "name": "world",
          "type": "address"
        },
        {
          "indexed": true,
          "internalType": "address",
          "name": "owner",
          "type": "address"
        }
      ],
      "name": "RegistrarAddedWorld",
      "type": "event"
    },
    {
      "anonymous": false,
      "inputs": [
        {
          "indexed": true,
          "internalType": "address",
          "name": "world",
          "type": "address"
        },
        {
          "indexed": false,
          "internalType": "string",
          "name": "reason",
          "type": "string"
        }
      ],
      "name": "RegistrarDeactivatedWorld",
      "type": "event"
    },
    {
      "anonymous": false,
      "inputs": [
        {
          "indexed": true,
          "internalType": "address",
          "name": "world",
          "type": "address"
        }
      ],
      "name": "RegistrarReactivatedWorld",
      "type": "event"
    },
    {
      "anonymous": false,
      "inputs": [
        {
          "indexed": true,
          "internalType": "address",
          "name": "world",
          "type": "address"
        },
        {
          "indexed": false,
          "internalType": "string",
          "name": "reason",
          "type": "string"
        }
      ],
      "name": "RegistrarRemovedWorld",
      "type": "event"
    },
    {
      "inputs": [
        {
          "internalType": "address",
          "name": "world",
          "type": "address"
        },
        {
          "internalType": "string",
          "name": "reason",
          "type": "string"
        }
      ],
      "name": "deactivateWorld",
      "outputs": [],
      "stateMutability": "nonpayable",
      "type": "function"
    },
    {
      "inputs": [
        {
          "components": [
            {
              "internalType": "address",
              "name": "owner",
              "type": "address"
            },
            {
              "internalType": "address",
              "name": "owningRegistry",
              "type": "address"
            },
            {
              "internalType": "address[]",
              "name": "admins",
              "type": "address[]"
            }
          ],
          "internalType": "struct ExtensionInitArgs",
          "name": "args",
          "type": "tuple"
        }
      ],
      "name": "initStorage",
      "outputs": [],
      "stateMutability": "nonpayable",
      "type": "function"
    },
    {
      "inputs": [
        {
          "internalType": "address",
          "name": "myAddress",
          "type": "address"
        }
      ],
      "name": "install",
      "outputs": [],
      "stateMutability": "nonpayable",
      "type": "function"
    },
    {
      "inputs": [],
      "name": "metadata",
      "outputs": [
        {
          "components": [
            {
              "internalType": "string",
              "name": "name",
              "type": "string"
            },
            {
              "components": [
                {
                  "internalType": "uint16",
                  "name": "major",
                  "type": "uint16"
                },
                {
                  "internalType": "uint16",
                  "name": "minor",
                  "type": "uint16"
                }
              ],
              "internalType": "struct Version",
              "name": "version",
              "type": "tuple"
            }
          ],
          "internalType": "struct ExtensionMetadata",
          "name": "",
          "type": "tuple"
        }
      ],
      "stateMutability": "pure",
      "type": "function"
    },
    {
      "inputs": [
        {
          "internalType": "address",
          "name": "world",
          "type": "address"
        }
      ],
      "name": "reactivateWorld",
      "outputs": [],
      "stateMutability": "nonpayable",
      "type": "function"
    },
    {
      "inputs": [
        {
          "components": [
            {
              "internalType": "bool",
              "name": "sendTokensToOwner",
              "type": "bool"
            },
            {
              "internalType": "address",
              "name": "owner",
              "type": "address"
            },
            {
              "components": [
                {
                  "internalType": "string",
                  "name": "x",
                  "type": "string"
                },
                {
                  "internalType": "string",
                  "name": "y",
                  "type": "string"
                },
                {
                  "internalType": "string",
                  "name": "z",
                  "type": "string"
                },
                {
                  "internalType": "uint256",
                  "name": "t",
                  "type": "uint256"
                },
                {
                  "internalType": "uint256",
                  "name": "p",
                  "type": "uint256"
                },
                {
                  "internalType": "uint256",
                  "name": "p_sub",
                  "type": "uint256"
                }
              ],
              "internalType": "struct VectorAddress",
              "name": "baseVector",
              "type": "tuple"
            },
            {
              "internalType": "string",
              "name": "name",
              "type": "string"
            },
            {
              "components": [
                {
                  "internalType": "uint16",
                  "name": "coveragePeriodDays",
                  "type": "uint16"
                },
                {
                  "internalType": "uint16",
                  "name": "gracePeriodDays",
                  "type": "uint16"
                },
                {
                  "internalType": "uint256",
                  "name": "fee",
                  "type": "uint256"
                }
              ],
              "internalType": "struct RegistrationTerms",
              "name": "terms",
              "type": "tuple"
            },
            {
              "internalType": "bytes",
              "name": "ownerTermsSignature",
              "type": "bytes"
            },
            {
              "internalType": "uint256",
              "name": "expiration",
              "type": "uint256"
            },
            {
              "internalType": "bytes",
              "name": "vectorAuthoritySignature",
              "type": "bytes"
            },
            {
              "internalType": "bytes",
              "name": "initData",
              "type": "bytes"
            }
          ],
          "internalType": "struct NewWorldArgs",
          "name": "args",
          "type": "tuple"
        }
      ],
      "name": "registerWorld",
      "outputs": [
        {
          "internalType": "address",
          "name": "world",
          "type": "address"
        }
      ],
      "stateMutability": "payable",
      "type": "function"
    },
    {
      "inputs": [
        {
          "internalType": "address",
          "name": "world",
          "type": "address"
        },
        {
          "internalType": "string",
          "name": "reason",
          "type": "string"
        }
      ],
      "name": "removeWorld",
      "outputs": [],
      "stateMutability": "nonpayable",
      "type": "function"
    },
    {
      "inputs": [
        {
          "internalType": "address",
          "name": "myAddress",
          "type": "address"
        }
      ],
      "name": "upgrade",
      "outputs": [],
      "stateMutability": "nonpayable",
      "type": "function"
    }
  ],
  "bytecode": "0x608060405234801561001057600080fd5b5061128a806100206000396000f3fe60806040526004361061007b5760003560e01c80636b676c561161004e5780636b676c56146101125780636e467f2714610132578063729963c014610152578063df1b7c821461016d57600080fd5b80630900f0101461008057806317e3dd59146100a05780632a1b8f9b146100d0578063392f37e9146100f0575b600080fd5b34801561008c57600080fd5b5061009e61009b366004610aa9565b50565b005b6100b36100ae366004610d02565b61018d565b6040516001600160a01b0390911681526020015b60405180910390f35b3480156100dc57600080fd5b5061009e6100eb366004610aa9565b61036b565b3480156100fc57600080fd5b50610105610619565b6040516100c79190610e8a565b34801561011e57600080fd5b5061009e61012d366004610ecf565b61067c565b34801561013e57600080fd5b5061009e61014d366004610aa9565b6107d9565b34801561015e57600080fd5b5061009e61009b366004610f54565b34801561017957600080fd5b5061009e610188366004610ecf565b610927565b604051637df73e2760e01b815233600482015260009073__$a5a42e46683ad9c79b7b86d5ff60fdf4c1$__90637df73e2790602401602060405180830381865af41580156101df573d6000803e3d6000fd5b505050506040513d601f19601f820116820180604052508101906102039190610f8f565b6102285760405162461bcd60e51b815260040161021f90610fac565b60405180910390fd5b6000306001600160a01b031663911c2a8c6040518163ffffffff1660e01b8152600401602060405180830381865afa158015610268573d6000803e3d6000fd5b505050506040513d601f19601f8201168201806040525081019061028c9190610fed565b9050806001600160a01b031663c9affa4760405180610100016040528086600001511515815260200186602001516001600160a01b0316815260200186606001518152602001866080015181526020018660400151815260200186610100015181526020018660a0015181526020018660c001518152506040518263ffffffff1660e01b815260040161031f919061107d565b6020604051808303816000875af115801561033e573d6000803e3d6000fd5b505050506040513d601f19601f820116820180604052508101906103629190610fed565b9150505b919050565b60408051600480825260a08201909252600091816020015b60408051808201909152600081526060602082015281526020019060019003908161038357905050905060405180604001604052806317e3dd5960e01b6001600160e01b03191681526020016040518060400160405280601b81526020017f7265676973746572576f726c64284e6577576f726c64417267732900000000008152508152508160008151811061041b5761041b611164565b60200260200101819052506040518060400160405280636b676c5660e01b6001600160e01b03191681526020016040518060400160405280601f81526020017f64656163746976617465576f726c6428616464726573732c737472696e6729008152508152508160018151811061049457610494611164565b60200260200101819052506040518060400160405280636e467f2760e01b6001600160e01b03191681526020016040518060400160405280601881526020017f72656163746976617465576f726c6428616464726573732900000000000000008152508152508160028151811061050d5761050d611164565b6020026020010181905250604051806040016040528063df1b7c8260e01b6001600160e01b03191681526020016040518060400160405280601b81526020017f72656d6f7665576f726c6428616464726573732c737472696e672900000000008152508152508160038151811061058657610586611164565b602002602001018190525073__$307c3a572bdf5d9800a89b3fc2eb3d5604$__63964d13f06040518060400160405280856001600160a01b03168152602001848152506040518263ffffffff1660e01b81526004016105e5919061117a565b60006040518083038186803b1580156105fd57600080fd5b505af4158015610611573d6000803e3d6000fd5b505050505050565b610621610a4d565b5060408051608081018252601d8183019081527f526567697374726172576f726c64526567697374726174696f6e45787400000060608301528152815180830190925260018252600060208381019190915281019190915290565b604051637df73e2760e01b815233600482015273__$a5a42e46683ad9c79b7b86d5ff60fdf4c1$__90637df73e2790602401602060405180830381865af41580156106cb573d6000803e3d6000fd5b505050506040513d601f19601f820116820180604052508101906106ef9190610f8f565b61070b5760405162461bcd60e51b815260040161021f90610fac565b6000306001600160a01b031663911c2a8c6040518163ffffffff1660e01b8152600401602060405180830381865afa15801561074b573d6000803e3d6000fd5b505050506040513d601f19601f8201168201806040525081019061076f9190610fed565b6040516219d2db60e51b81529091506001600160a01b0382169063033a5b60906107a190879087908790600401611214565b600060405180830381600087803b1580156107bb57600080fd5b505af11580156107cf573d6000803e3d6000fd5b5050505050505050565b604051637df73e2760e01b815233600482015273__$a5a42e46683ad9c79b7b86d5ff60fdf4c1$__90637df73e2790602401602060405180830381865af4158015610828573d6000803e3d6000fd5b505050506040513d601f19601f8201168201806040525081019061084c9190610f8f565b6108685760405162461bcd60e51b815260040161021f90610fac565b6000306001600160a01b031663911c2a8c6040518163ffffffff1660e01b8152600401602060405180830381865afa1580156108a8573d6000803e3d6000fd5b505050506040513d601f19601f820116820180604052508101906108cc9190610fed565b60405163349e3cd960e11b81526001600160a01b0384811660048301529192509082169063693c79b290602401600060405180830381600087803b15801561091357600080fd5b505af1158015610611573d6000803e3d6000fd5b604051637df73e2760e01b815233600482015273__$a5a42e46683ad9c79b7b86d5ff60fdf4c1$__90637df73e2790602401602060405180830381865af4158015610976573d6000803e3d6000fd5b505050506040513d601f19601f8201168201806040525081019061099a9190610f8f565b6109b65760405162461bcd60e51b815260040161021f90610fac565b6000306001600160a01b031663911c2a8c6040518163ffffffff1660e01b8152600401602060405180830381865afa1580156109f6573d6000803e3d6000fd5b505050506040513d601f19601f82011682018060405250810190610a1a9190610fed565b60405163af08d53d60e01b81529091506001600160a01b0382169063af08d53d906107a190879087908790600401611214565b604051806040016040528060608152602001610a846040518060400160405280600061ffff168152602001600061ffff1681525090565b905290565b6001600160a01b038116811461009b57600080fd5b803561036681610a89565b600060208284031215610abb57600080fd5b8135610ac681610a89565b9392505050565b634e487b7160e01b600052604160045260246000fd5b60405160c0810167ffffffffffffffff81118282101715610b0657610b06610acd565b60405290565b604051610120810167ffffffffffffffff81118282101715610b0657610b06610acd565b801515811461009b57600080fd5b803561036681610b30565b600082601f830112610b5a57600080fd5b813567ffffffffffffffff80821115610b7557610b75610acd565b604051601f8301601f19908116603f01168101908282118183101715610b9d57610b9d610acd565b81604052838152866020858801011115610bb657600080fd5b836020870160208301376000602085830101528094505050505092915050565b600060c08284031215610be857600080fd5b610bf0610ae3565b9050813567ffffffffffffffff80821115610c0a57600080fd5b610c1685838601610b49565b83526020840135915080821115610c2c57600080fd5b610c3885838601610b49565b60208401526040840135915080821115610c5157600080fd5b50610c5e84828501610b49565b604083015250606082013560608201526080820135608082015260a082013560a082015292915050565b803561ffff8116811461036657600080fd5b600060608284031215610cac57600080fd5b6040516060810181811067ffffffffffffffff82111715610ccf57610ccf610acd565b604052905080610cde83610c88565b8152610cec60208401610c88565b6020820152604083013560408201525092915050565b600060208284031215610d1457600080fd5b813567ffffffffffffffff80821115610d2c57600080fd5b908301906101608286031215610d4157600080fd5b610d49610b0c565b610d5283610b3e565b8152610d6060208401610a9e565b6020820152604083013582811115610d7757600080fd5b610d8387828601610bd6565b604083015250606083013582811115610d9b57600080fd5b610da787828601610b49565b606083015250610dba8660808501610c9a565b608082015260e083013582811115610dd157600080fd5b610ddd87828601610b49565b60a0830152506101008084013560c083015261012084013583811115610e0257600080fd5b610e0e88828701610b49565b60e08401525061014084013583811115610e2757600080fd5b610e3388828701610b49565b918301919091525095945050505050565b6000815180845260005b81811015610e6a57602081850181015186830182015201610e4e565b506000602082860101526020601f19601f83011685010191505092915050565b602081526000825160606020840152610ea66080840182610e44565b602094850151805161ffff90811660408701529501519094166060909301929092525090919050565b600080600060408486031215610ee457600080fd5b8335610eef81610a89565b9250602084013567ffffffffffffffff80821115610f0c57600080fd5b818601915086601f830112610f2057600080fd5b813581811115610f2f57600080fd5b876020828501011115610f4157600080fd5b6020830194508093505050509250925092565b600060208284031215610f6657600080fd5b813567ffffffffffffffff811115610f7d57600080fd5b820160608185031215610ac657600080fd5b600060208284031215610fa157600080fd5b8151610ac681610b30565b60208082526021908201527f466163746f72794578743a207265737472696374656420746f207369676e65726040820152607360f81b606082015260800190565b600060208284031215610fff57600080fd5b8151610ac681610a89565b6000815160c0845261101f60c0850182610e44565b9050602083015184820360208601526110388282610e44565b915050604083015184820360408601526110528282610e44565b915050606083015160608501526080830151608085015260a083015160a08501528091505092915050565b6020815261109060208201835115159052565b600060208301516110ac60408401826001600160a01b03169052565b5060408301516101408060608501526110c9610160850183610e44565b6060860151805161ffff908116608088015260208201511660a0870152604081015160c0870152909250506080850151601f19808685030160e0870152611110848361100a565b935060a08701519150808685030161010087015261112e8483610e44565b935060c0870151915080868503016101208701525061114d8382610e44565b92505060e085015181850152508091505092915050565b634e487b7160e01b600052603260045260246000fd5b602080825282516001600160a01b031682820152828101516040808401819052815160608501819052600093926080600583901b87018101939185019290870190865b8181101561120657888603607f19018352845180516001600160e01b03191687528701518787018590526111f385880182610e44565b96505093860193918601916001016111bd565b509398975050505050505050565b6001600160a01b03841681526040602082018190528101829052818360608301376000818301606090810191909152601f909201601f191601019291505056fea26469706673582212209aac95526e2d951028b7d15274b2dcdde22da42da0058761688b78c676334c4164736f6c63430008180033",
  "linkReferences": {
    "contracts/libraries/LibAccess.sol": {
      "LibAccess": [
        {
          "length": 20,
          "start": 453
        },
        {
          "length": 20,
          "start": 1713
        },
        {
          "length": 20,
          "start": 2062
        },
        {
          "length": 20,
          "start": 2396
        }
      ]
    },
    "contracts/libraries/LibExtensions.sol": {
      "LibExtensions": [
        {
          "length": 20,
          "start": 1459
        }
      ]
    }
  },
  "deployedLinkReferences": {
    "contracts/libraries/LibAccess.sol": {
      "LibAccess": [
        {
          "length": 20,
          "start": 421
        },
        {
          "length": 20,
          "start": 1681
        },
        {
          "length": 20,
          "start": 2030
        },
        {
          "length": 20,
          "start": 2364
        }
      ]
    },
    "contracts/libraries/LibExtensions.sol": {
      "LibExtensions": [
        {
          "length": 20,
          "start": 1427
        }
      ]
    }
  }
}