{
  "_format": "hh-sol-artifact-1",
  "contractName": "RegistrarRegistry",
  "sourceName": "contracts/registrar/registry/RegistrarRegistry.sol",
  "abi": [
    {
      "inputs": [
        {
          "components": [
            {
              "internalType": "address",
              "name": "owner",
              "type": "address"
            },
            {
              "internalType": "address",
              "name": "extensionsRegistry",
              "type": "address"
            },
            {
              "internalType": "address[]",
              "name": "admins",
              "type": "address[]"
            }
          ],
          "internalType": "struct RegistrarRegistryConstructorArgs",
          "name": "args",
          "type": "tuple"
        }
      ],
      "stateMutability": "nonpayable",
      "type": "constructor"
    },
    {
      "anonymous": false,
      "inputs": [
        {
          "indexed": false,
          "internalType": "string",
          "name": "name",
          "type": "string"
        }
      ],
      "name": "ExtensionDisabled",
      "type": "event"
    },
    {
      "anonymous": false,
      "inputs": [
        {
          "indexed": false,
          "internalType": "string",
          "name": "name",
          "type": "string"
        }
      ],
      "name": "ExtensionEnabled",
      "type": "event"
    },
    {
      "anonymous": false,
      "inputs": [
        {
          "indexed": false,
          "internalType": "string",
          "name": "name",
          "type": "string"
        },
        {
          "components": [
            {
              "internalType": "uint16",
              "name": "major",
              "type": "uint16"
            },
            {
              "internalType": "uint16",
              "name": "minor",
              "type": "uint16"
            }
          ],
          "indexed": false,
          "internalType": "struct Version",
          "name": "version",
          "type": "tuple"
        }
      ],
      "name": "ExtensionInstalled",
      "type": "event"
    },
    {
      "anonymous": false,
      "inputs": [
        {
          "indexed": false,
          "internalType": "string",
          "name": "name",
          "type": "string"
        },
        {
          "components": [
            {
              "internalType": "uint16",
              "name": "major",
              "type": "uint16"
            },
            {
              "internalType": "uint16",
              "name": "minor",
              "type": "uint16"
            }
          ],
          "indexed": false,
          "internalType": "struct Version",
          "name": "version",
          "type": "tuple"
        }
      ],
      "name": "ExtensionRolledBack",
      "type": "event"
    },
    {
      "anonymous": false,
      "inputs": [
        {
          "indexed": false,
          "internalType": "string",
          "name": "name",
          "type": "string"
        },
        {
          "components": [
            {
              "internalType": "uint16",
              "name": "major",
              "type": "uint16"
            },
            {
              "internalType": "uint16",
              "name": "minor",
              "type": "uint16"
            }
          ],
          "indexed": false,
          "internalType": "struct Version",
          "name": "version",
          "type": "tuple"
        }
      ],
      "name": "ExtensionUpgraded",
      "type": "event"
    },
    {
      "anonymous": false,
      "inputs": [
        {
          "indexed": false,
          "internalType": "bytes4",
          "name": "selector",
          "type": "bytes4"
        }
      ],
      "name": "SelectorDisabled",
      "type": "event"
    },
    {
      "anonymous": false,
      "inputs": [
        {
          "indexed": false,
          "internalType": "bytes4",
          "name": "selector",
          "type": "bytes4"
        }
      ],
      "name": "SelectorEnabled",
      "type": "event"
    },
    {
      "stateMutability": "payable",
      "type": "fallback"
    },
    {
      "inputs": [],
      "name": "extRegistry",
      "outputs": [
        {
          "internalType": "contract ICoreExtensionRegistry",
          "name": "",
          "type": "address"
        }
      ],
      "stateMutability": "view",
      "type": "function"
    },
    {
      "inputs": [
        {
          "internalType": "string",
          "name": "name",
          "type": "string"
        }
      ],
      "name": "getExtensionVersion",
      "outputs": [
        {
          "components": [
            {
              "internalType": "uint16",
              "name": "major",
              "type": "uint16"
            },
            {
              "internalType": "uint16",
              "name": "minor",
              "type": "uint16"
            }
          ],
          "internalType": "struct Version",
          "name": "",
          "type": "tuple"
        }
      ],
      "stateMutability": "view",
      "type": "function"
    },
    {
      "inputs": [
        {
          "internalType": "string",
          "name": "name",
          "type": "string"
        },
        {
          "components": [
            {
              "internalType": "uint16",
              "name": "major",
              "type": "uint16"
            },
            {
              "internalType": "uint16",
              "name": "minor",
              "type": "uint16"
            }
          ],
          "internalType": "struct Version",
          "name": "version",
          "type": "tuple"
        }
      ],
      "name": "hasExtension",
      "outputs": [
        {
          "internalType": "bool",
          "name": "",
          "type": "bool"
        }
      ],
      "stateMutability": "view",
      "type": "function"
    },
    {
      "inputs": [],
      "name": "isStillActive",
      "outputs": [
        {
          "internalType": "bool",
          "name": "",
          "type": "bool"
        }
      ],
      "stateMutability": "pure",
      "type": "function"
    },
    {
      "inputs": [
        {
          "internalType": "address",
          "name": "a",
          "type": "address"
        }
      ],
      "name": "isTermsOwnerSigner",
      "outputs": [
        {
          "internalType": "bool",
          "name": "",
          "type": "bool"
        }
      ],
      "stateMutability": "view",
      "type": "function"
    },
    {
      "inputs": [
        {
          "internalType": "uint256",
          "name": "amount",
          "type": "uint256"
        }
      ],
      "name": "withdraw",
      "outputs": [],
      "stateMutability": "nonpayable",
      "type": "function"
    },
    {
      "stateMutability": "payable",
      "type": "receive"
    }
  ],
  "bytecode": "0x60a06040523480156200001157600080fd5b50604051620011153803806200111583398101604081905262000034916200053e565b60208101516001600160a01b038116620000bb5760405162461bcd60e51b815260206004820152603560248201527f42617369635368656c6c3a20657874656e73696f6e207265676973747279206360448201527f616e6e6f74206265207a65726f2061646472657373000000000000000000000060648201526084015b60405180910390fd5b6001600160a01b031660805260408051600480825260a08201909252600091816020015b6060815260200190600190039081620000df579050509050604051806040016040528060098152602001681058d8d95cdcd15e1d60ba1b815250816000815181106200012f576200012f6200064e565b60200260200101819052506040518060400160405280600a815260200169119858dd1bdc9e515e1d60b21b815250816001815181106200017357620001736200064e565b60200260200101819052506040518060400160405280601881526020017f526567697374726172526567697374726174696f6e457874000000000000000081525081600281518110620001ca57620001ca6200064e565b60200260200101819052506040518060400160405280601981526020017f526567697374726172456e7469747952656d6f76616c45787400000000000000815250816003815181106200022157620002216200064e565b60200260200101819052506000604051806060016040528084600001516001600160a01b03168152602001846040015181526020018381525090506200026d816200027660201b60201c565b50505062000793565b60005b816040015151811015620004395781604001518181518110620002a057620002a06200064e565b60200260200101515160000315620004305760006080516001600160a01b031663c22707ee84604001518481518110620002de57620002de6200064e565b60200260200101516040518263ffffffff1660e01b81526004016200030491906200068a565b602060405180830381865afa15801562000322573d6000803e3d6000fd5b505050506040513d601f19601f82011682018060405250810190620003489190620006bf565b90506000836040015183815181106200036557620003656200064e565b60200260200101516040516020016200037f9190620006e4565b60408051601f198184030181529190529050806001600160a01b038316620003bc5760405162461bcd60e51b8152600401620000b291906200068a565b506040516301232c8f60e01b81526001600160a01b0383166004820152829073__$307c3a572bdf5d9800a89b3fc2eb3d5604$__906301232c8f9060240160006040518083038186803b1580156200041357600080fd5b505af415801562000428573d6000803e3d6000fd5b505050505050505b60010162000279565b508051602082015160405163d9ac971f60e01b815273__$a5a42e46683ad9c79b7b86d5ff60fdf4c1$__9263d9ac971f92620004789260040162000735565b60006040518083038186803b1580156200049157600080fd5b505af4158015620004a6573d6000803e3d6000fd5b5050505050565b634e487b7160e01b600052604160045260246000fd5b604051606081016001600160401b0381118282101715620004e857620004e8620004ad565b60405290565b604051601f8201601f191681016001600160401b0381118282101715620005195762000519620004ad565b604052919050565b80516001600160a01b03811681146200053957600080fd5b919050565b600060208083850312156200055257600080fd5b82516001600160401b03808211156200056a57600080fd5b90840190606082870312156200057f57600080fd5b62000589620004c3565b620005948362000521565b8152620005a384840162000521565b84820152604083015182811115620005ba57600080fd5b80840193505086601f840112620005d057600080fd5b825182811115620005e557620005e5620004ad565b8060051b9250620005f8858401620004ee565b81815292840185019285810190898511156200061357600080fd5b948601945b848610156200063c576200062c8662000521565b8252948601949086019062000618565b60408401525090979650505050505050565b634e487b7160e01b600052603260045260246000fd5b60005b838110156200068157818101518382015260200162000667565b50506000910152565b6020815260008251806020840152620006ab81604085016020870162000664565b601f01601f19169190910160400192915050565b600060208284031215620006d257600080fd5b620006dd8262000521565b9392505050565b7f42617369635368656c6c3a20657874656e73696f6e206e6f7420666f756e643a8152600160fd1b6020820152600082516200072881602185016020870162000664565b9190910160210192915050565b6001600160a01b038381168252604060208084018290528451918401829052600092858201929091906060860190855b818110156200078557855185168352948301949183019160010162000765565b509098975050505050505050565b608051610966620007af600039600061016701526109666000f3fe6080604052600436106100595760003560e01c80630a7ee8a014610088578063238a0386146100bd5780632e1a7d4d146100ff57806347d1d09a146101215780634f05c1c8146101415780638a8547711461015557610060565b3661006057005b600080356001600160e01b0319169050600061007e826000366101a1565b9050805160208201f35b34801561009457600080fd5b506100a86100a3366004610593565b61022c565b60405190151581526020015b60405180910390f35b3480156100c957600080fd5b506100dd6100d8366004610675565b6102b1565b60408051825161ffff90811682526020938401511692810192909252016100b4565b34801561010b57600080fd5b5061011f61011a3660046106aa565b61033a565b005b34801561012d57600080fd5b506100a861013c3660046106c3565b6104f7565b34801561014d57600080fd5b5060016100a8565b34801561016157600080fd5b506101897f000000000000000000000000000000000000000000000000000000000000000081565b6040516001600160a01b0390911681526020016100b4565b6040516360fdd56160e01b815260609073__$307c3a572bdf5d9800a89b3fc2eb3d5604$__906360fdd561906101df9087908790879060040161071d565b600060405180830381865af41580156101fc573d6000803e3d6000fd5b505050506040513d6000823e601f3d908101601f191682016040526102249190810190610780565b949350505050565b604051637df73e2760e01b81526001600160a01b038216600482015260009073__$a5a42e46683ad9c79b7b86d5ff60fdf4c1$__90637df73e2790602401602060405180830381865af4158015610287573d6000803e3d6000fd5b505050506040513d601f19601f820116820180604052508101906102ab91906107f7565b92915050565b6040805180820182526000808252602082015290516311c501c360e11b815273__$307c3a572bdf5d9800a89b3fc2eb3d5604$__9063238a0386906102fa908590600401610845565b6040805180830381865af4158015610316573d6000803e3d6000fd5b505050506040513d601f19601f820116820180604052508101906102ab9190610868565b604051630935e01b60e21b815233600482015273__$a5a42e46683ad9c79b7b86d5ff60fdf4c1$__906324d7806c90602401602060405180830381865af4158015610389573d6000803e3d6000fd5b505050506040513d601f19601f820116820180604052508101906103ad91906107f7565b6103fe5760405162461bcd60e51b815260206004820181905260248201527f42617369635368656c6c3a207265737472696374656420746f2061646d696e7360448201526064015b60405180910390fd5b4781111561044e5760405162461bcd60e51b815260206004820181905260248201527f42617369635368656c6c3a20696e73756666696369656e742062616c616e636560448201526064016103f5565b73__$a5a42e46683ad9c79b7b86d5ff60fdf4c1$__638da5cb5b6040518163ffffffff1660e01b8152600401602060405180830381865af4158015610497573d6000803e3d6000fd5b505050506040513d601f19601f820116820180604052508101906104bb91906108c7565b6001600160a01b03166108fc829081150290604051600060405180830381858888f193505050501580156104f3573d6000803e3d6000fd5b5050565b6040516329925a7160e11b815260009073__$307c3a572bdf5d9800a89b3fc2eb3d5604$__90635324b4e29061053390869086906004016108e4565b602060405180830381865af4158015610550573d6000803e3d6000fd5b505050506040513d601f19601f8201168201806040525081019061057491906107f7565b9392505050565b6001600160a01b038116811461059057600080fd5b50565b6000602082840312156105a557600080fd5b81356105748161057b565b634e487b7160e01b600052604160045260246000fd5b604051601f8201601f1916810167ffffffffffffffff811182821017156105ef576105ef6105b0565b604052919050565b600067ffffffffffffffff821115610611576106116105b0565b50601f01601f191660200190565b600082601f83011261063057600080fd5b813561064361063e826105f7565b6105c6565b81815284602083860101111561065857600080fd5b816020850160208301376000918101602001919091529392505050565b60006020828403121561068757600080fd5b813567ffffffffffffffff81111561069e57600080fd5b6102248482850161061f565b6000602082840312156106bc57600080fd5b5035919050565b60008082840360608112156106d757600080fd5b833567ffffffffffffffff8111156106ee57600080fd5b6106fa8682870161061f565b9350506040601f198201121561070f57600080fd5b506020830190509250929050565b63ffffffff60e01b8416815260406020820152816040820152818360608301376000818301606090810191909152601f909201601f1916010192915050565b60005b8381101561077757818101518382015260200161075f565b50506000910152565b60006020828403121561079257600080fd5b815167ffffffffffffffff8111156107a957600080fd5b8201601f810184136107ba57600080fd5b80516107c861063e826105f7565b8181528560208385010111156107dd57600080fd5b6107ee82602083016020860161075c565b95945050505050565b60006020828403121561080957600080fd5b8151801515811461057457600080fd5b6000815180845261083181602086016020860161075c565b601f01601f19169290920160200192915050565b6020815260006105746020830184610819565b61ffff8116811461059057600080fd5b60006040828403121561087a57600080fd5b6040516040810181811067ffffffffffffffff8211171561089d5761089d6105b0565b60405282516108ab81610858565b815260208301516108bb81610858565b60208201529392505050565b6000602082840312156108d957600080fd5b81516105748161057b565b6060815260006108f76060830185610819565b9050823561090481610858565b61ffff80821660208501526020850135915061091f82610858565b80821660408501525050939250505056fea2646970667358221220949ca7673d714894968a99aa071f11d17c0bfbe2ff2643ddc0f98b0b665de25364736f6c63430008180033",
  "linkReferences": {
    "contracts/libraries/LibAccess.sol": {
      "LibAccess": [
        {
          "length": 20,
          "start": 1104
        },
        {
          "length": 20,
          "start": 2556
        },
        {
          "length": 20,
          "start": 2814
        },
        {
          "length": 20,
          "start": 3071
        }
      ]
    },
    "contracts/libraries/LibExtensions.sol": {
      "LibExtensions": [
        {
          "length": 20,
          "start": 989
        },
        {
          "length": 20,
          "start": 2402
        },
        {
          "length": 20,
          "start": 2689
        },
        {
          "length": 20,
          "start": 3256
        }
      ]
    }
  },
  "deployedLinkReferences": {
    "contracts/libraries/LibAccess.sol": {
      "LibAccess": [
        {
          "length": 20,
          "start": 589
        },
        {
          "length": 20,
          "start": 847
        },
        {
          "length": 20,
          "start": 1104
        }
      ]
    },
    "contracts/libraries/LibExtensions.sol": {
      "LibExtensions": [
        {
          "length": 20,
          "start": 435
        },
        {
          "length": 20,
          "start": 722
        },
        {
          "length": 20,
          "start": 1289
        }
      ]
    }
  }
}