{
  "_format": "hh-sol-artifact-1",
  "contractName": "Registrar",
  "sourceName": "contracts/registrar/instance/Registrar.sol",
  "abi": [
    {
      "inputs": [
        {
          "components": [
            {
              "internalType": "address",
              "name": "extensionResolver",
              "type": "address"
            },
            {
              "internalType": "address",
              "name": "owningRegistry",
              "type": "address"
            },
            {
              "internalType": "address",
              "name": "worldRegistry",
              "type": "address"
            }
          ],
          "internalType": "struct RegistrarConstructorArgs",
          "name": "args",
          "type": "tuple"
        }
      ],
      "stateMutability": "nonpayable",
      "type": "constructor"
    },
    {
      "anonymous": false,
      "inputs": [
        {
          "indexed": false,
          "internalType": "string",
          "name": "name",
          "type": "string"
        }
      ],
      "name": "ExtensionDisabled",
      "type": "event"
    },
    {
      "anonymous": false,
      "inputs": [
        {
          "indexed": false,
          "internalType": "string",
          "name": "name",
          "type": "string"
        }
      ],
      "name": "ExtensionEnabled",
      "type": "event"
    },
    {
      "anonymous": false,
      "inputs": [
        {
          "indexed": false,
          "internalType": "string",
          "name": "name",
          "type": "string"
        },
        {
          "components": [
            {
              "internalType": "uint16",
              "name": "major",
              "type": "uint16"
            },
            {
              "internalType": "uint16",
              "name": "minor",
              "type": "uint16"
            }
          ],
          "indexed": false,
          "internalType": "struct Version",
          "name": "version",
          "type": "tuple"
        }
      ],
      "name": "ExtensionInstalled",
      "type": "event"
    },
    {
      "anonymous": false,
      "inputs": [
        {
          "indexed": false,
          "internalType": "string",
          "name": "name",
          "type": "string"
        },
        {
          "components": [
            {
              "internalType": "uint16",
              "name": "major",
              "type": "uint16"
            },
            {
              "internalType": "uint16",
              "name": "minor",
              "type": "uint16"
            }
          ],
          "indexed": false,
          "internalType": "struct Version",
          "name": "version",
          "type": "tuple"
        }
      ],
      "name": "ExtensionRolledBack",
      "type": "event"
    },
    {
      "anonymous": false,
      "inputs": [
        {
          "indexed": false,
          "internalType": "string",
          "name": "name",
          "type": "string"
        },
        {
          "components": [
            {
              "internalType": "uint16",
              "name": "major",
              "type": "uint16"
            },
            {
              "internalType": "uint16",
              "name": "minor",
              "type": "uint16"
            }
          ],
          "indexed": false,
          "internalType": "struct Version",
          "name": "version",
          "type": "tuple"
        }
      ],
      "name": "ExtensionUpgraded",
      "type": "event"
    },
    {
      "anonymous": false,
      "inputs": [
        {
          "indexed": false,
          "internalType": "bytes4",
          "name": "selector",
          "type": "bytes4"
        }
      ],
      "name": "SelectorDisabled",
      "type": "event"
    },
    {
      "anonymous": false,
      "inputs": [
        {
          "indexed": false,
          "internalType": "bytes4",
          "name": "selector",
          "type": "bytes4"
        }
      ],
      "name": "SelectorEnabled",
      "type": "event"
    },
    {
      "stateMutability": "payable",
      "type": "fallback"
    },
    {
      "inputs": [],
      "name": "extResolver",
      "outputs": [
        {
          "internalType": "contract IExtensionResolver",
          "name": "",
          "type": "address"
        }
      ],
      "stateMutability": "view",
      "type": "function"
    },
    {
      "inputs": [
        {
          "internalType": "string",
          "name": "name",
          "type": "string"
        }
      ],
      "name": "getExtensionVersion",
      "outputs": [
        {
          "components": [
            {
              "internalType": "uint16",
              "name": "major",
              "type": "uint16"
            },
            {
              "internalType": "uint16",
              "name": "minor",
              "type": "uint16"
            }
          ],
          "internalType": "struct Version",
          "name": "",
          "type": "tuple"
        }
      ],
      "stateMutability": "view",
      "type": "function"
    },
    {
      "inputs": [
        {
          "internalType": "string",
          "name": "name",
          "type": "string"
        },
        {
          "components": [
            {
              "internalType": "uint16",
              "name": "major",
              "type": "uint16"
            },
            {
              "internalType": "uint16",
              "name": "minor",
              "type": "uint16"
            }
          ],
          "internalType": "struct Version",
          "name": "version",
          "type": "tuple"
        }
      ],
      "name": "hasExtension",
      "outputs": [
        {
          "internalType": "bool",
          "name": "",
          "type": "bool"
        }
      ],
      "stateMutability": "view",
      "type": "function"
    },
    {
      "inputs": [
        {
          "components": [
            {
              "internalType": "address",
              "name": "owner",
              "type": "address"
            },
            {
              "internalType": "address",
              "name": "termsOwner",
              "type": "address"
            },
            {
              "internalType": "address",
              "name": "registry",
              "type": "address"
            },
            {
              "internalType": "string",
              "name": "name",
              "type": "string"
            },
            {
              "components": [
                {
                  "internalType": "string",
                  "name": "x",
                  "type": "string"
                },
                {
                  "internalType": "string",
                  "name": "y",
                  "type": "string"
                },
                {
                  "internalType": "string",
                  "name": "z",
                  "type": "string"
                },
                {
                  "internalType": "uint256",
                  "name": "t",
                  "type": "uint256"
                },
                {
                  "internalType": "uint256",
                  "name": "p",
                  "type": "uint256"
                },
                {
                  "internalType": "uint256",
                  "name": "p_sub",
                  "type": "uint256"
                }
              ],
              "internalType": "struct VectorAddress",
              "name": "vector",
              "type": "tuple"
            },
            {
              "internalType": "bytes",
              "name": "initData",
              "type": "bytes"
            }
          ],
          "internalType": "struct CommonInitArgs",
          "name": "args",
          "type": "tuple"
        }
      ],
      "name": "init",
      "outputs": [],
      "stateMutability": "nonpayable",
      "type": "function"
    },
    {
      "inputs": [],
      "name": "name",
      "outputs": [
        {
          "internalType": "string",
          "name": "",
          "type": "string"
        }
      ],
      "stateMutability": "view",
      "type": "function"
    },
    {
      "inputs": [],
      "name": "registrarRegistry",
      "outputs": [
        {
          "internalType": "contract IRegistrarRegistry",
          "name": "",
          "type": "address"
        }
      ],
      "stateMutability": "view",
      "type": "function"
    },
    {
      "inputs": [],
      "name": "version",
      "outputs": [
        {
          "components": [
            {
              "internalType": "uint16",
              "name": "major",
              "type": "uint16"
            },
            {
              "internalType": "uint16",
              "name": "minor",
              "type": "uint16"
            }
          ],
          "internalType": "struct Version",
          "name": "",
          "type": "tuple"
        }
      ],
      "stateMutability": "pure",
      "type": "function"
    },
    {
      "inputs": [
        {
          "internalType": "uint256",
          "name": "amount",
          "type": "uint256"
        }
      ],
      "name": "withdraw",
      "outputs": [],
      "stateMutability": "nonpayable",
      "type": "function"
    },
    {
      "inputs": [],
      "name": "worldRegistry",
      "outputs": [
        {
          "internalType": "contract IWorldRegistry",
          "name": "",
          "type": "address"
        }
      ],
      "stateMutability": "view",
      "type": "function"
    },
    {
      "stateMutability": "payable",
      "type": "receive"
    }
  ],
  "bytecode": "0x60e06040523480156200001157600080fd5b5060405162001462380380620014628339810160408190526200003491620001e7565b80516001600160a01b038116620000b85760405162461bcd60e51b815260206004820152603660248201527f456e746974795368656c6c3a20657874656e73696f6e207265736f6c7665722060448201527f63616e6e6f74206265207a65726f20616464726573730000000000000000000060648201526084015b60405180910390fd5b6001600160a01b03908116608052602082015116620001335760405162461bcd60e51b815260206004820152603060248201527f5265676973747261723a206f776e696e6752656769737472792063616e6e6f7460448201526f206265207a65726f206164647265737360801b6064820152608401620000af565b60408101516001600160a01b0316620001a75760405162461bcd60e51b815260206004820152602f60248201527f5265676973747261723a20776f726c6452656769737472792063616e6e6f742060448201526e6265207a65726f206164647265737360881b6064820152608401620000af565b60208101516001600160a01b0390811660a0526040909101511660c05262000268565b80516001600160a01b0381168114620001e257600080fd5b919050565b600060608284031215620001fa57600080fd5b604051606081016001600160401b03811182821017156200022b57634e487b7160e01b600052604160045260246000fd5b6040526200023983620001ca565b81526200024960208401620001ca565b60208201526200025c60408401620001ca565b60408201529392505050565b60805160a05160c0516111ae620002b460003960006101e201526000818161022e015261065a0152600081816102620152818161028e0152818161037601526105d001526111ae6000f3fe60806040526004361061008a5760003560e01c806354fd4d501161005957806354fd4d501461017857806369a10a12146101b0578063911c2a8c146101d0578063dbdc4e621461021c578063dd2a44c11461025057610091565b806306fdde03146100b9578063238a0386146100e45780632e1a7d4d1461012657806347d1d09a1461014857610091565b3661009157005b600080356001600160e01b031916905060006100af82600036610284565b9050805160208201f35b3480156100c557600080fd5b506100ce6102ba565b6040516100db9190610b51565b60405180910390f35b3480156100f057600080fd5b506101046100ff366004610c30565b610355565b60408051825161ffff90811682526020938401511692810192909252016100db565b34801561013257600080fd5b50610146610141366004610c65565b6103f9565b005b34801561015457600080fd5b50610168610163366004610c7e565b6105b6565b60405190151581526020016100db565b34801561018457600080fd5b506040805180820182526000808252602091820181905282518084019093526001835290820152610104565b3480156101bc57600080fd5b506101466101cb366004610db2565b61064f565b3480156101dc57600080fd5b506102047f000000000000000000000000000000000000000000000000000000000000000081565b6040516001600160a01b0390911681526020016100db565b34801561022857600080fd5b506102047f000000000000000000000000000000000000000000000000000000000000000081565b34801561025c57600080fd5b506102047f000000000000000000000000000000000000000000000000000000000000000081565b60606102b28484847f0000000000000000000000000000000000000000000000000000000000000000610877565b949350505050565b60606102c46109a9565b60020180546102d290610e9a565b80601f01602080910402602001604051908101604052809291908181526020018280546102fe90610e9a565b801561034b5780601f106103205761010080835404028352916020019161034b565b820191906000526020600020905b81548152906001019060200180831161032e57829003601f168201915b5050505050905090565b6040805180820182526000808252602082015290516311c501c360e11b81527f00000000000000000000000000000000000000000000000000000000000000006001600160a01b03169063238a0386906103b3908590600401610b51565b6040805180830381865afa1580156103cf573d6000803e3d6000fd5b505050506040513d601f19601f820116820180604052508101906103f39190610ee4565b92915050565b604051630935e01b60e21b815233600482015273__$a5a42e46683ad9c79b7b86d5ff60fdf4c1$__906324d7806c90602401602060405180830381865af4158015610448573d6000803e3d6000fd5b505050506040513d601f19601f8201168201806040525081019061046c9190610f43565b6104bd5760405162461bcd60e51b815260206004820181905260248201527f42617369635368656c6c3a207265737472696374656420746f2061646d696e7360448201526064015b60405180910390fd5b4781111561050d5760405162461bcd60e51b815260206004820181905260248201527f42617369635368656c6c3a20696e73756666696369656e742062616c616e636560448201526064016104b4565b73__$a5a42e46683ad9c79b7b86d5ff60fdf4c1$__638da5cb5b6040518163ffffffff1660e01b8152600401602060405180830381865af4158015610556573d6000803e3d6000fd5b505050506040513d601f19601f8201168201806040525081019061057a9190610f65565b6001600160a01b03166108fc829081150290604051600060405180830381858888f193505050501580156105b2573d6000803e3d6000fd5b5050565b6040516323e8e84d60e11b81526000906001600160a01b037f000000000000000000000000000000000000000000000000000000000000000016906347d1d09a906106079086908690600401610f82565b602060405180830381865afa158015610624573d6000803e3d6000fd5b505050506040513d601f19601f820116820180604052508101906106489190610f43565b9392505050565b336001600160a01b037f000000000000000000000000000000000000000000000000000000000000000016146106d25760405162461bcd60e51b815260206004820152602260248201527f5265676973747261723a206f6e6c792072656769737472617220726567697374604482015261727960f01b60648201526084016104b4565b6000816060015151116107325760405162461bcd60e51b815260206004820152602260248201527f4c69625265676973747261723a206e616d652063616e6e6f7420626520656d70604482015261747960f01b60648201526084016104b4565b60208101516001600160a01b03166107a55760405162461bcd60e51b815260206004820152603060248201527f4c69625265676973747261723a207465726d73206f776e65722063616e6e6f7460448201526f206265207a65726f206164647265737360801b60648201526084016104b4565b60408051600081526020810191829052825163d9ac971f60e01b9092529073__$a5a42e46683ad9c79b7b86d5ff60fdf4c1$__9063d9ac971f906107ed908460248101610fce565b60006040518083038186803b15801561080557600080fd5b505af4158015610819573d6000803e3d6000fd5b5050505060006108276109a9565b805460ff1916600117815560608401519091506002820190610849908261107b565b5060209092015182546001600160a01b03909116620100000262010000600160b01b03199091161790915550565b6040516337b4746960e11b81526001600160e01b0319851660048201526060906000906001600160a01b03841690636f68e8d290602401602060405180830381865afa1580156108cb573d6000803e3d6000fd5b505050506040513d601f19601f820116820180604052508101906108ef9190610f65565b90506001600160a01b03811661095f5760405162461bcd60e51b815260206004820152602f60248201527f4c6962457874656e73696f6e3a206e6f20657874656e73696f6e20737570706f60448201526e393a399033371039b2b632b1ba37b960891b60648201526084016104b4565b61099f8186868080601f016020809104026020016040519081016040528093929190818152602001838380828437600092019190915250610a3f92505050565b9695505050505050565b60408051808201909152601881527f78722e61637469766174696f6e2e73746f726167652e7631000000000000000060209091015260008060ff610a0e60017ff6611e962a52dbc98dd0485088d920890c43e26113c61976f6e171a29d49ce4961113b565b604051602001610a2091815260200190565b60408051601f1981840301815291905280516020909101201692915050565b6060600080846001600160a01b031684604051610a5c919061115c565b600060405180830381855af49150503d8060008114610a97576040519150601f19603f3d011682016040523d82523d6000602084013e610a9c565b606091505b50915091508115610ab05791506103f39050565b805115610ac05780518082602001fd5b60405162461bcd60e51b8152602060048201526016602482015275119d5b98dd1a5bdb8818d85b1b081c995d995c9d195960521b60448201526064016104b4565b60005b83811015610b1c578181015183820152602001610b04565b50506000910152565b60008151808452610b3d816020860160208601610b01565b601f01601f19169290920160200192915050565b6020815260006106486020830184610b25565b634e487b7160e01b600052604160045260246000fd5b60405160c0810167ffffffffffffffff81118282101715610b9d57610b9d610b64565b60405290565b600082601f830112610bb457600080fd5b813567ffffffffffffffff80821115610bcf57610bcf610b64565b604051601f8301601f19908116603f01168101908282118183101715610bf757610bf7610b64565b81604052838152866020858801011115610c1057600080fd5b836020870160208301376000602085830101528094505050505092915050565b600060208284031215610c4257600080fd5b813567ffffffffffffffff811115610c5957600080fd5b6102b284828501610ba3565b600060208284031215610c7757600080fd5b5035919050565b6000808284036060811215610c9257600080fd5b833567ffffffffffffffff811115610ca957600080fd5b610cb586828701610ba3565b9350506040601f1982011215610cca57600080fd5b506020830190509250929050565b6001600160a01b0381168114610ced57600080fd5b50565b8035610cfb81610cd8565b919050565b600060c08284031215610d1257600080fd5b610d1a610b7a565b9050813567ffffffffffffffff80821115610d3457600080fd5b610d4085838601610ba3565b83526020840135915080821115610d5657600080fd5b610d6285838601610ba3565b60208401526040840135915080821115610d7b57600080fd5b50610d8884828501610ba3565b604083015250606082013560608201526080820135608082015260a082013560a082015292915050565b600060208284031215610dc457600080fd5b813567ffffffffffffffff80821115610ddc57600080fd5b9083019060c08286031215610df057600080fd5b610df8610b7a565b610e0183610cf0565b8152610e0f60208401610cf0565b6020820152610e2060408401610cf0565b6040820152606083013582811115610e3757600080fd5b610e4387828601610ba3565b606083015250608083013582811115610e5b57600080fd5b610e6787828601610d00565b60808301525060a083013582811115610e7f57600080fd5b610e8b87828601610ba3565b60a08301525095945050505050565b600181811c90821680610eae57607f821691505b602082108103610ece57634e487b7160e01b600052602260045260246000fd5b50919050565b61ffff81168114610ced57600080fd5b600060408284031215610ef657600080fd5b6040516040810181811067ffffffffffffffff82111715610f1957610f19610b64565b6040528251610f2781610ed4565b81526020830151610f3781610ed4565b60208201529392505050565b600060208284031215610f5557600080fd5b8151801515811461064857600080fd5b600060208284031215610f7757600080fd5b815161064881610cd8565b606081526000610f956060830185610b25565b90508235610fa281610ed4565b61ffff808216602085015260208501359150610fbd82610ed4565b808216604085015250509392505050565b6001600160a01b038381168252604060208084018290528451918401829052600092858201929091906060860190855b8181101561101c578551851683529483019491830191600101610ffe565b509098975050505050505050565b601f821115611076576000816000526020600020601f850160051c810160208610156110535750805b601f850160051c820191505b818110156110725782815560010161105f565b5050505b505050565b815167ffffffffffffffff81111561109557611095610b64565b6110a9816110a38454610e9a565b8461102a565b602080601f8311600181146110de57600084156110c65750858301515b600019600386901b1c1916600185901b178555611072565b600085815260208120601f198616915b8281101561110d578886015182559484019460019091019084016110ee565b508582101561112b5787850151600019600388901b60f8161c191681555b5050505050600190811b01905550565b818103818111156103f357634e487b7160e01b600052601160045260246000fd5b6000825161116e818460208701610b01565b919091019291505056fea2646970667358221220fce522c3aadcdb83a9574702ecb8a25b52eaf40fdd04ac2a8942b3e13ab1056964736f6c63430008180033",
  "linkReferences": {
    "contracts/libraries/LibAccess.sol": {
      "LibAccess": [
        {
          "length": 20,
          "start": 1730
        },
        {
          "length": 20,
          "start": 1987
        },
        {
          "length": 20,
          "start": 2681
        }
      ]
    }
  },
  "deployedLinkReferences": {
    "contracts/libraries/LibAccess.sol": {
      "LibAccess": [
        {
          "length": 20,
          "start": 1038
        },
        {
          "length": 20,
          "start": 1295
        },
        {
          "length": 20,
          "start": 1989
        }
      ]
    }
  }
}