{
  "_format": "hh-sol-artifact-1",
  "contractName": "RemovableEntityExt",
  "sourceName": "contracts/extensions/entity/RemovableEntityExt.sol",
  "abi": [
    {
      "anonymous": false,
      "inputs": [
        {
          "indexed": true,
          "internalType": "address",
          "name": "by",
          "type": "address"
        },
        {
          "indexed": false,
          "internalType": "string",
          "name": "reason",
          "type": "string"
        }
      ],
      "name": "EntityDeactivated",
      "type": "event"
    },
    {
      "anonymous": false,
      "inputs": [
        {
          "indexed": true,
          "internalType": "address",
          "name": "by",
          "type": "address"
        }
      ],
      "name": "EntityReactivated",
      "type": "event"
    },
    {
      "anonymous": false,
      "inputs": [
        {
          "indexed": true,
          "internalType": "address",
          "name": "by",
          "type": "address"
        },
        {
          "indexed": false,
          "internalType": "string",
          "name": "reason",
          "type": "string"
        }
      ],
      "name": "EntityRemoved",
      "type": "event"
    },
    {
      "inputs": [
        {
          "internalType": "string",
          "name": "reason",
          "type": "string"
        }
      ],
      "name": "deactivate",
      "outputs": [],
      "stateMutability": "nonpayable",
      "type": "function"
    },
    {
      "inputs": [
        {
          "components": [
            {
              "internalType": "address",
              "name": "owner",
              "type": "address"
            },
            {
              "internalType": "address",
              "name": "termsOwner",
              "type": "address"
            },
            {
              "internalType": "address",
              "name": "registry",
              "type": "address"
            },
            {
              "internalType": "string",
              "name": "name",
              "type": "string"
            },
            {
              "components": [
                {
                  "internalType": "string",
                  "name": "x",
                  "type": "string"
                },
                {
                  "internalType": "string",
                  "name": "y",
                  "type": "string"
                },
                {
                  "internalType": "string",
                  "name": "z",
                  "type": "string"
                },
                {
                  "internalType": "uint256",
                  "name": "t",
                  "type": "uint256"
                },
                {
                  "internalType": "uint256",
                  "name": "p",
                  "type": "uint256"
                },
                {
                  "internalType": "uint256",
                  "name": "p_sub",
                  "type": "uint256"
                }
              ],
              "internalType": "struct VectorAddress",
              "name": "vector",
              "type": "tuple"
            },
            {
              "internalType": "bytes",
              "name": "initData",
              "type": "bytes"
            }
          ],
          "internalType": "struct CommonInitArgs",
          "name": "args",
          "type": "tuple"
        }
      ],
      "name": "init",
      "outputs": [],
      "stateMutability": "nonpayable",
      "type": "function"
    },
    {
      "inputs": [
        {
          "components": [
            {
              "internalType": "address",
              "name": "owner",
              "type": "address"
            },
            {
              "internalType": "address",
              "name": "owningRegistry",
              "type": "address"
            },
            {
              "internalType": "address[]",
              "name": "admins",
              "type": "address[]"
            }
          ],
          "internalType": "struct ExtensionInitArgs",
          "name": "args",
          "type": "tuple"
        }
      ],
      "name": "initStorage",
      "outputs": [],
      "stateMutability": "nonpayable",
      "type": "function"
    },
    {
      "inputs": [
        {
          "internalType": "address",
          "name": "myAddress",
          "type": "address"
        }
      ],
      "name": "install",
      "outputs": [],
      "stateMutability": "nonpayable",
      "type": "function"
    },
    {
      "inputs": [],
      "name": "isEntityActive",
      "outputs": [
        {
          "internalType": "bool",
          "name": "",
          "type": "bool"
        }
      ],
      "stateMutability": "view",
      "type": "function"
    },
    {
      "inputs": [],
      "name": "isRemoved",
      "outputs": [
        {
          "internalType": "bool",
          "name": "",
          "type": "bool"
        }
      ],
      "stateMutability": "view",
      "type": "function"
    },
    {
      "inputs": [],
      "name": "metadata",
      "outputs": [
        {
          "components": [
            {
              "internalType": "string",
              "name": "name",
              "type": "string"
            },
            {
              "components": [
                {
                  "internalType": "uint16",
                  "name": "major",
                  "type": "uint16"
                },
                {
                  "internalType": "uint16",
                  "name": "minor",
                  "type": "uint16"
                }
              ],
              "internalType": "struct Version",
              "name": "version",
              "type": "tuple"
            }
          ],
          "internalType": "struct ExtensionMetadata",
          "name": "",
          "type": "tuple"
        }
      ],
      "stateMutability": "pure",
      "type": "function"
    },
    {
      "inputs": [],
      "name": "name",
      "outputs": [
        {
          "internalType": "string",
          "name": "",
          "type": "string"
        }
      ],
      "stateMutability": "view",
      "type": "function"
    },
    {
      "inputs": [],
      "name": "reactivate",
      "outputs": [],
      "stateMutability": "nonpayable",
      "type": "function"
    },
    {
      "inputs": [
        {
          "internalType": "string",
          "name": "reason",
          "type": "string"
        }
      ],
      "name": "remove",
      "outputs": [],
      "stateMutability": "nonpayable",
      "type": "function"
    },
    {
      "inputs": [],
      "name": "termsOwner",
      "outputs": [
        {
          "internalType": "address",
          "name": "",
          "type": "address"
        }
      ],
      "stateMutability": "view",
      "type": "function"
    },
    {
      "inputs": [
        {
          "internalType": "address",
          "name": "myAddress",
          "type": "address"
        }
      ],
      "name": "upgrade",
      "outputs": [],
      "stateMutability": "nonpayable",
      "type": "function"
    },
    {
      "inputs": [],
      "name": "version",
      "outputs": [
        {
          "components": [
            {
              "internalType": "uint16",
              "name": "major",
              "type": "uint16"
            },
            {
              "internalType": "uint16",
              "name": "minor",
              "type": "uint16"
            }
          ],
          "internalType": "struct Version",
          "name": "",
          "type": "tuple"
        }
      ],
      "stateMutability": "pure",
      "type": "function"
    }
  ],
  "bytecode": "0x608060405234801561001057600080fd5b5061119e806100206000396000f3fe608060405234801561001057600080fd5b50600436106100cf5760003560e01c806369a10a121161008c5780637e6e1551116100665780637e6e15511461019657806380599e4b146101ae57806386b70bed146101c1578063d18611d6146101c957600080fd5b806369a10a121461015557806369bd919414610168578063729963c01461018857600080fd5b806306fdde03146100d45780630900f010146100f257806327ee999d146101055780632a1b8f9b14610118578063392f37e91461012b57806354fd4d5014610140575b600080fd5b6100dc6101d1565b6040516100e99190610b7e565b60405180910390f35b610103610100366004610b98565b50565b005b610103610113366004610bd7565b61026c565b610103610126366004610b98565b6102fe565b610133610637565b6040516100e99190610c88565b61014861068f565b6040516100e99190610cd1565b610103610163366004610cf6565b6106f7565b61017061091e565b6040516001600160a01b0390911681526020016100e9565b610103610100366004610d31565b61019e61093d565b60405190151581526020016100e9565b6101036101bc366004610bd7565b610955565b61019e6109da565b6101036109ed565b60606101db610a66565b60020180546101e990610d6c565b80601f016020809104026020016040519081016040528092919081815260200182805461021590610d6c565b80156102625780601f1061023757610100808354040283529160200191610262565b820191906000526020600020905b81548152906001019060200180831161024557829003601f168201915b5050505050905090565b610274610a66565b600101546001600160a01b031633146102a85760405162461bcd60e51b815260040161029f90610da6565b60405180910390fd5b60006102b2610a66565b805460ff191691151591909117905560405133907f246589c99dd263c9b64a2b544e24074c282ca479ba3d2a0e649f9eeaca1e2d62906102f3908490610b7e565b60405180910390a250565b60408051600680825260e08201909252600091816020015b60408051808201909152600081526060602082015281526020019060019003908161031657905050905060405180604001604052806327ee999d60e01b6001600160e01b03191681526020016040518060400160405280600c81526020016b64656163746976617465282960a01b8152508152508160008151811061039d5761039d610df7565b6020026020010181905250604051806040016040528063d18611d660e01b6001600160e01b03191681526020016040518060400160405280600c81526020016b72656163746976617465282960a01b8152508152508160018151811061040557610405610df7565b602002602001018190525060405180604001604052806380599e4b60e01b6001600160e01b03191681526020016040518060400160405280600e81526020016d72656d6f766528737472696e672960901b8152508152508160028151811061046f5761046f610df7565b602002602001018190525060405180604001604052806386b70bed60e01b6001600160e01b03191681526020016040518060400160405280601081526020016f6973456e74697479416374697665282960801b815250815250816003815181106104db576104db610df7565b60200260200101819052506040518060400160405280637e6e155160e01b6001600160e01b03191681526020016040518060400160405280600b81526020016a697352656d6f766564282960a81b8152508152508160048151811061054257610542610df7565b602002602001018190525060405180604001604052806306fdde0360e01b6001600160e01b0319168152602001604051806040016040528060068152602001656e616d65282960d01b815250815250816005815181106105a4576105a4610df7565b602002602001018190525073__$307c3a572bdf5d9800a89b3fc2eb3d5604$__63964d13f06040518060400160405280856001600160a01b03168152602001848152506040518263ffffffff1660e01b81526004016106039190610e0d565b60006040518083038186803b15801561061b57600080fd5b505af415801561062f573d6000803e3d6000fd5b505050505050565b61063f610afc565b506040805160808101825260128183019081527114995b5bdd98589b19515b9d1a5d1e515e1d60721b60608301528152815180830190925260018252600060208381019190915281019190915290565b604080518082019091526000808252602082015260405162461bcd60e51b815260206004820152602360248201527f52656d6f7661626c65456e746974794578743a206e6f7420696d706c656d656e6044820152621d195960ea1b606482015260840161029f565b6000610701610a66565b80549091506201000090046001600160a01b0316156107725760405162461bcd60e51b815260206004820152602760248201527f52656d6f7661626c65456e746974794578743a20616c726561647920696e69746044820152661a585b1a5e995960ca1b606482015260840161029f565b60018101546001600160a01b03166107e85760405162461bcd60e51b815260206004820152603360248201527f52656d6f7661626c65456e746974794578743a2072656769737472792063616e6044820152726e6f74206265207a65726f206164647265737360681b606482015260840161029f565b60006107fa6040840160208501610b98565b6001600160a01b03160361086f5760405162461bcd60e51b815260206004820152603660248201527f52656d6f7661626c65456e746974794578743a207465726d73206f776e65722060448201527563616e6e6f74206265207a65726f206164647265737360501b606482015260840161029f565b61087c6060830183610ea7565b600283019161088c919083610f42565b5061089d6040830160208401610b98565b815460ff196001600160a01b039290921662010000029190911661ff01600160b01b03199091161760011781556108d76080830183611003565b600382016108e58282611023565b506108f890506060830160408401610b98565b60019190910180546001600160a01b0319166001600160a01b0390921691909117905550565b6000610928610a66565b546201000090046001600160a01b0316919050565b6000610947610a66565b54610100900460ff16919050565b61095d610a66565b600101546001600160a01b031633146109885760405162461bcd60e51b815260040161029f90610da6565b6001610992610a66565b80549115156101000261ff001990921691909117905560405133907fbf430175840309fcb4cce13557429998477f9f95733cb0d42c170af8aa225d06906102f3908490610b7e565b60006109e4610a66565b5460ff16919050565b6109f5610a66565b600101546001600160a01b03163314610a205760405162461bcd60e51b815260040161029f90610da6565b6001610a2a610a66565b805460ff191691151591909117905560405133907f54ca6a4cb143be493713a7079cc0d6cdbbf0688ee68398b4354b056088f2cbf590600090a2565b60408051808201909152601881527f78722e61637469766174696f6e2e73746f726167652e7631000000000000000060209091015260008060ff610acb60017ff6611e962a52dbc98dd0485088d920890c43e26113c61976f6e171a29d49ce49611147565b604051602001610add91815260200190565b60408051601f1981840301815291905280516020909101201692915050565b604051806040016040528060608152602001610b336040518060400160405280600061ffff168152602001600061ffff1681525090565b905290565b6000815180845260005b81811015610b5e57602081850181015186830182015201610b42565b506000602082860101526020601f19601f83011685010191505092915050565b602081526000610b916020830184610b38565b9392505050565b600060208284031215610baa57600080fd5b81356001600160a01b0381168114610b9157600080fd5b634e487b7160e01b600052604160045260246000fd5b600060208284031215610be957600080fd5b813567ffffffffffffffff80821115610c0157600080fd5b818401915084601f830112610c1557600080fd5b813581811115610c2757610c27610bc1565b604051601f8201601f19908116603f01168101908382118183101715610c4f57610c4f610bc1565b81604052828152876020848701011115610c6857600080fd5b826020860160208301376000928101602001929092525095945050505050565b602081526000825160606020840152610ca46080840182610b38565b90506020840151610cc96040850182805161ffff908116835260209182015116910152565b509392505050565b60408101610cf08284805161ffff908116835260209182015116910152565b92915050565b600060208284031215610d0857600080fd5b813567ffffffffffffffff811115610d1f57600080fd5b820160c08185031215610b9157600080fd5b600060208284031215610d4357600080fd5b813567ffffffffffffffff811115610d5a57600080fd5b820160608185031215610b9157600080fd5b600181811c90821680610d8057607f821691505b602082108103610da057634e487b7160e01b600052602260045260246000fd5b50919050565b60208082526031908201527f52656d6f7661626c65456e746974794578743a207265737472696374656420746040820152706f206f776e696e6720726567697374727960781b606082015260800190565b634e487b7160e01b600052603260045260246000fd5b602080825282516001600160a01b031682820152828101516040808401819052815160608501819052600093926080600583901b87018101939185019290870190865b81811015610e9957888603607f19018352845180516001600160e01b0319168752870151878701859052610e8685880182610b38565b9650509386019391860191600101610e50565b509398975050505050505050565b6000808335601e19843603018112610ebe57600080fd5b83018035915067ffffffffffffffff821115610ed957600080fd5b602001915036819003821315610eee57600080fd5b9250929050565b601f821115610f3d576000816000526020600020601f850160051c81016020861015610f1e5750805b601f850160051c820191505b8181101561062f57828155600101610f2a565b505050565b67ffffffffffffffff831115610f5a57610f5a610bc1565b610f6e83610f688354610d6c565b83610ef5565b6000601f841160018114610fa25760008515610f8a5750838201355b600019600387901b1c1916600186901b178355610ffc565b600083815260209020601f19861690835b82811015610fd35786850135825560209485019460019092019101610fb3565b5086821015610ff05760001960f88860031b161c19848701351681555b505060018560011b0183555b5050505050565b6000823560be1983360301811261101957600080fd5b9190910192915050565b61102d8283610ea7565b67ffffffffffffffff81111561104557611045610bc1565b611059816110538554610d6c565b85610ef5565b6000601f82116001811461108d57600083156110755750838201355b600019600385901b1c1916600184901b1785556110e7565b600085815260209020601f19841690835b828110156110be578685013582556020948501946001909201910161109e565b50848210156110db5760001960f88660031b161c19848701351681555b505060018360011b0185555b505050506110f86020830183610ea7565b611106818360018601610f42565b50506111156040830183610ea7565b611123818360028601610f42565b5050606082013560038201556080820135600482015560a082013560058201555050565b81810381811115610cf057634e487b7160e01b600052601160045260246000fdfea26469706673582212208350fb9d35826ef672f015829fe0b21bfff2b606747dbf8fd25ad65d01713ecd64736f6c63430008180033",
  "linkReferences": {
    "contracts/libraries/LibExtensions.sol": {
      "LibExtensions": [
        {
          "length": 20,
          "start": 1489
        }
      ]
    }
  },
  "deployedLinkReferences": {
    "contracts/libraries/LibExtensions.sol": {
      "LibExtensions": [
        {
          "length": 20,
          "start": 1457
        }
      ]
    }
  }
}