{
  "_format": "hh-sol-artifact-1",
  "contractName": "TermsOwnerExt",
  "sourceName": "contracts/extensions/registry/TermsOwnerExt.sol",
  "abi": [
    {
      "inputs": [
        {
          "components": [
            {
              "internalType": "address",
              "name": "owner",
              "type": "address"
            },
            {
              "internalType": "address",
              "name": "owningRegistry",
              "type": "address"
            },
            {
              "internalType": "address[]",
              "name": "admins",
              "type": "address[]"
            }
          ],
          "internalType": "struct ExtensionInitArgs",
          "name": "args",
          "type": "tuple"
        }
      ],
      "name": "initStorage",
      "outputs": [],
      "stateMutability": "nonpayable",
      "type": "function"
    },
    {
      "inputs": [
        {
          "internalType": "address",
          "name": "myAddress",
          "type": "address"
        }
      ],
      "name": "install",
      "outputs": [],
      "stateMutability": "nonpayable",
      "type": "function"
    },
    {
      "inputs": [],
      "name": "isStillActive",
      "outputs": [
        {
          "internalType": "bool",
          "name": "",
          "type": "bool"
        }
      ],
      "stateMutability": "view",
      "type": "function"
    },
    {
      "inputs": [
        {
          "internalType": "address",
          "name": "a",
          "type": "address"
        }
      ],
      "name": "isTermsOwnerSigner",
      "outputs": [
        {
          "internalType": "bool",
          "name": "",
          "type": "bool"
        }
      ],
      "stateMutability": "view",
      "type": "function"
    },
    {
      "inputs": [],
      "name": "metadata",
      "outputs": [
        {
          "components": [
            {
              "internalType": "string",
              "name": "name",
              "type": "string"
            },
            {
              "components": [
                {
                  "internalType": "uint16",
                  "name": "major",
                  "type": "uint16"
                },
                {
                  "internalType": "uint16",
                  "name": "minor",
                  "type": "uint16"
                }
              ],
              "internalType": "struct Version",
              "name": "version",
              "type": "tuple"
            }
          ],
          "internalType": "struct ExtensionMetadata",
          "name": "",
          "type": "tuple"
        }
      ],
      "stateMutability": "pure",
      "type": "function"
    },
    {
      "inputs": [
        {
          "internalType": "address",
          "name": "myAddress",
          "type": "address"
        }
      ],
      "name": "upgrade",
      "outputs": [],
      "stateMutability": "nonpayable",
      "type": "function"
    }
  ],
  "bytecode": "0x608060405234801561001057600080fd5b5061066a806100206000396000f3fe608060405234801561001057600080fd5b50600436106100625760003560e01c80630900f010146100675780630a7ee8a01461007a5780632a1b8f9b146100a2578063392f37e9146100b55780634f05c1c8146100ca578063729963c0146100d2575b600080fd5b61007861007536600461044b565b50565b005b61008d61008836600461044b565b6100e0565b60405190151581526020015b60405180910390f35b6100786100b036600461044b565b610165565b6100bd610313565b60405161009991906104c1565b61008d610366565b610078610075366004610506565b604051637df73e2760e01b81526001600160a01b038216600482015260009073__$a5a42e46683ad9c79b7b86d5ff60fdf4c1$__90637df73e2790602401602060405180830381865af415801561013b573d6000803e3d6000fd5b505050506040513d601f19601f8201168201806040525081019061015f9190610541565b92915050565b60408051600280825260608201909252600091816020015b60408051808201909152600081526060602082015281526020019060019003908161017d5790505090506040518060400160405280634f05c1c860e01b6001600160e01b03191681526020016040518060400160405280600f81526020016e69735374696c6c416374697665282960881b8152508152508160008151811061020757610207610563565b60200260200101819052506040518060400160405280630a7ee8a060e01b6001600160e01b03191681526020016040518060400160405280601b81526020017f69735465726d734f776e65725369676e657228616464726573732900000000008152508152508160018151811061028057610280610563565b602002602001018190525073__$307c3a572bdf5d9800a89b3fc2eb3d5604$__63964d13f06040518060400160405280856001600160a01b03168152602001848152506040518263ffffffff1660e01b81526004016102df9190610579565b60006040518083038186803b1580156102f757600080fd5b505af415801561030b573d6000803e3d6000fd5b505050505050565b61031b61040f565b5060408051608081018252600d8183019081526c15195c9b5cd3dddb995c915e1d609a1b60608301528152815180830190925260018252600060208381019190915281019190915290565b6000610370610379565b5460ff16919050565b60408051808201909152601881527f78722e61637469766174696f6e2e73746f726167652e7631000000000000000060209091015260008060ff6103de60017ff6611e962a52dbc98dd0485088d920890c43e26113c61976f6e171a29d49ce49610613565b6040516020016103f091815260200190565b60408051601f1981840301815291905280516020909101201692915050565b6040518060400160405280606081526020016104466040518060400160405280600061ffff168152602001600061ffff1681525090565b905290565b60006020828403121561045d57600080fd5b81356001600160a01b038116811461047457600080fd5b9392505050565b6000815180845260005b818110156104a157602081850181015186830182015201610485565b506000602082860101526020601f19601f83011685010191505092915050565b6020815260008251606060208401526104dd608084018261047b565b602094850151805161ffff90811660408701529501519094166060909301929092525090919050565b60006020828403121561051857600080fd5b813567ffffffffffffffff81111561052f57600080fd5b82016060818503121561047457600080fd5b60006020828403121561055357600080fd5b8151801515811461047457600080fd5b634e487b7160e01b600052603260045260246000fd5b602080825282516001600160a01b031682820152828101516040808401819052815160608501819052600093926080600583901b87018101939185019290870190865b8181101561060557888603607f19018352845180516001600160e01b03191687528701518787018590526105f28588018261047b565b96505093860193918601916001016105bc565b509398975050505050505050565b8181038181111561015f57634e487b7160e01b600052601160045260246000fdfea2646970667358221220b748810c21c94e05f5785dc2a0cd4ffb95fb938ea46ae1dacc845936bdacd00d64736f6c63430008180033",
  "linkReferences": {
    "contracts/libraries/LibAccess.sol": {
      "LibAccess": [
        {
          "length": 20,
          "start": 289
        }
      ]
    },
    "contracts/libraries/LibExtensions.sol": {
      "LibExtensions": [
        {
          "length": 20,
          "start": 685
        }
      ]
    }
  },
  "deployedLinkReferences": {
    "contracts/libraries/LibAccess.sol": {
      "LibAccess": [
        {
          "length": 20,
          "start": 257
        }
      ]
    },
    "contracts/libraries/LibExtensions.sol": {
      "LibExtensions": [
        {
          "length": 20,
          "start": 653
        }
      ]
    }
  }
}