{
  "_format": "hh-sol-artifact-1",
  "contractName": "WorldRegistryV2",
  "sourceName": "contracts/world/v0.2/WorldRegistryV2.sol",
  "abi": [
    {
      "inputs": [
        {
          "components": [
            {
              "internalType": "address",
              "name": "vectorAuthority",
              "type": "address"
            },
            {
              "internalType": "address",
              "name": "worldFactory",
              "type": "address"
            },
            {
              "internalType": "address",
              "name": "registrarRegistry",
              "type": "address"
            },
            {
              "internalType": "address",
              "name": "defaultAdmin",
              "type": "address"
            },
            {
              "internalType": "address",
              "name": "oldWorldRegistry",
              "type": "address"
            },
            {
              "internalType": "address[]",
              "name": "otherAdmins",
              "type": "address[]"
            }
          ],
          "internalType": "struct WorldRegistryContructorArgs",
          "name": "args",
          "type": "tuple"
        }
      ],
      "stateMutability": "nonpayable",
      "type": "constructor"
    },
    {
      "inputs": [],
      "name": "AccessControlBadConfirmation",
      "type": "error"
    },
    {
      "inputs": [
        {
          "internalType": "address",
          "name": "account",
          "type": "address"
        },
        {
          "internalType": "bytes32",
          "name": "neededRole",
          "type": "bytes32"
        }
      ],
      "name": "AccessControlUnauthorizedAccount",
      "type": "error"
    },
    {
      "inputs": [],
      "name": "ECDSAInvalidSignature",
      "type": "error"
    },
    {
      "inputs": [
        {
          "internalType": "uint256",
          "name": "length",
          "type": "uint256"
        }
      ],
      "name": "ECDSAInvalidSignatureLength",
      "type": "error"
    },
    {
      "inputs": [
        {
          "internalType": "bytes32",
          "name": "s",
          "type": "bytes32"
        }
      ],
      "name": "ECDSAInvalidSignatureS",
      "type": "error"
    },
    {
      "inputs": [],
      "name": "ReentrancyGuardReentrantCall",
      "type": "error"
    },
    {
      "anonymous": false,
      "inputs": [
        {
          "indexed": true,
          "internalType": "bytes32",
          "name": "role",
          "type": "bytes32"
        },
        {
          "indexed": true,
          "internalType": "bytes32",
          "name": "previousAdminRole",
          "type": "bytes32"
        },
        {
          "indexed": true,
          "internalType": "bytes32",
          "name": "newAdminRole",
          "type": "bytes32"
        }
      ],
      "name": "RoleAdminChanged",
      "type": "event"
    },
    {
      "anonymous": false,
      "inputs": [
        {
          "indexed": true,
          "internalType": "bytes32",
          "name": "role",
          "type": "bytes32"
        },
        {
          "indexed": true,
          "internalType": "address",
          "name": "account",
          "type": "address"
        },
        {
          "indexed": true,
          "internalType": "address",
          "name": "sender",
          "type": "address"
        }
      ],
      "name": "RoleGranted",
      "type": "event"
    },
    {
      "anonymous": false,
      "inputs": [
        {
          "indexed": true,
          "internalType": "bytes32",
          "name": "role",
          "type": "bytes32"
        },
        {
          "indexed": true,
          "internalType": "address",
          "name": "account",
          "type": "address"
        },
        {
          "indexed": true,
          "internalType": "address",
          "name": "sender",
          "type": "address"
        }
      ],
      "name": "RoleRevoked",
      "type": "event"
    },
    {
      "anonymous": false,
      "inputs": [
        {
          "indexed": true,
          "internalType": "address",
          "name": "authority",
          "type": "address"
        }
      ],
      "name": "VectorAddressAuthorityAdded",
      "type": "event"
    },
    {
      "anonymous": false,
      "inputs": [
        {
          "indexed": true,
          "internalType": "address",
          "name": "authority",
          "type": "address"
        }
      ],
      "name": "VectorAddressAuthorityRemoved",
      "type": "event"
    },
    {
      "anonymous": false,
      "inputs": [
        {
          "indexed": true,
          "internalType": "address",
          "name": "world",
          "type": "address"
        },
        {
          "indexed": true,
          "internalType": "address",
          "name": "owner",
          "type": "address"
        },
        {
          "components": [
            {
              "internalType": "string",
              "name": "x",
              "type": "string"
            },
            {
              "internalType": "string",
              "name": "y",
              "type": "string"
            },
            {
              "internalType": "string",
              "name": "z",
              "type": "string"
            },
            {
              "internalType": "uint256",
              "name": "t",
              "type": "uint256"
            },
            {
              "internalType": "uint256",
              "name": "p",
              "type": "uint256"
            },
            {
              "internalType": "uint256",
              "name": "p_sub",
              "type": "uint256"
            }
          ],
          "indexed": false,
          "internalType": "struct VectorAddress",
          "name": "vectorAddress",
          "type": "tuple"
        }
      ],
      "name": "WorldRegistered",
      "type": "event"
    },
    {
      "inputs": [],
      "name": "ADMIN_ROLE",
      "outputs": [
        {
          "internalType": "bytes32",
          "name": "",
          "type": "bytes32"
        }
      ],
      "stateMutability": "view",
      "type": "function"
    },
    {
      "inputs": [],
      "name": "DEFAULT_ADMIN_ROLE",
      "outputs": [
        {
          "internalType": "bytes32",
          "name": "",
          "type": "bytes32"
        }
      ],
      "stateMutability": "view",
      "type": "function"
    },
    {
      "inputs": [],
      "name": "VECTOR_AUTHORITY_ROLE",
      "outputs": [
        {
          "internalType": "bytes32",
          "name": "",
          "type": "bytes32"
        }
      ],
      "stateMutability": "view",
      "type": "function"
    },
    {
      "inputs": [
        {
          "internalType": "address",
          "name": "auth",
          "type": "address"
        }
      ],
      "name": "addVectorAddressAuthority",
      "outputs": [],
      "stateMutability": "nonpayable",
      "type": "function"
    },
    {
      "inputs": [],
      "name": "currentWorldVersion",
      "outputs": [
        {
          "internalType": "string",
          "name": "",
          "type": "string"
        }
      ],
      "stateMutability": "view",
      "type": "function"
    },
    {
      "inputs": [
        {
          "internalType": "bytes32",
          "name": "role",
          "type": "bytes32"
        }
      ],
      "name": "getRoleAdmin",
      "outputs": [
        {
          "internalType": "bytes32",
          "name": "",
          "type": "bytes32"
        }
      ],
      "stateMutability": "view",
      "type": "function"
    },
    {
      "inputs": [
        {
          "internalType": "string",
          "name": "name",
          "type": "string"
        }
      ],
      "name": "getWorldByName",
      "outputs": [
        {
          "internalType": "address",
          "name": "",
          "type": "address"
        }
      ],
      "stateMutability": "view",
      "type": "function"
    },
    {
      "inputs": [
        {
          "internalType": "bytes32",
          "name": "role",
          "type": "bytes32"
        },
        {
          "internalType": "address",
          "name": "account",
          "type": "address"
        }
      ],
      "name": "grantRole",
      "outputs": [],
      "stateMutability": "nonpayable",
      "type": "function"
    },
    {
      "inputs": [
        {
          "internalType": "bytes32",
          "name": "role",
          "type": "bytes32"
        },
        {
          "internalType": "address",
          "name": "account",
          "type": "address"
        }
      ],
      "name": "hasRole",
      "outputs": [
        {
          "internalType": "bool",
          "name": "",
          "type": "bool"
        }
      ],
      "stateMutability": "view",
      "type": "function"
    },
    {
      "inputs": [
        {
          "internalType": "address",
          "name": "auth",
          "type": "address"
        }
      ],
      "name": "isVectorAddressAuthority",
      "outputs": [
        {
          "internalType": "bool",
          "name": "",
          "type": "bool"
        }
      ],
      "stateMutability": "view",
      "type": "function"
    },
    {
      "inputs": [
        {
          "internalType": "address",
          "name": "world",
          "type": "address"
        }
      ],
      "name": "isWorld",
      "outputs": [
        {
          "internalType": "bool",
          "name": "",
          "type": "bool"
        }
      ],
      "stateMutability": "view",
      "type": "function"
    },
    {
      "inputs": [],
      "name": "previousRegistry",
      "outputs": [
        {
          "internalType": "contract IWorldRegistryV1",
          "name": "",
          "type": "address"
        }
      ],
      "stateMutability": "view",
      "type": "function"
    },
    {
      "inputs": [
        {
          "components": [
            {
              "internalType": "bool",
              "name": "sendTokensToWorldOwner",
              "type": "bool"
            },
            {
              "internalType": "address",
              "name": "oldWorld",
              "type": "address"
            },
            {
              "internalType": "address",
              "name": "owner",
              "type": "address"
            },
            {
              "components": [
                {
                  "internalType": "string",
                  "name": "x",
                  "type": "string"
                },
                {
                  "internalType": "string",
                  "name": "y",
                  "type": "string"
                },
                {
                  "internalType": "string",
                  "name": "z",
                  "type": "string"
                },
                {
                  "internalType": "uint256",
                  "name": "t",
                  "type": "uint256"
                },
                {
                  "internalType": "uint256",
                  "name": "p",
                  "type": "uint256"
                },
                {
                  "internalType": "uint256",
                  "name": "p_sub",
                  "type": "uint256"
                }
              ],
              "internalType": "struct VectorAddress",
              "name": "baseVector",
              "type": "tuple"
            },
            {
              "internalType": "string",
              "name": "name",
              "type": "string"
            },
            {
              "internalType": "uint256",
              "name": "registrarId",
              "type": "uint256"
            },
            {
              "internalType": "bytes",
              "name": "initData",
              "type": "bytes"
            },
            {
              "internalType": "bytes",
              "name": "vectorAuthoritySignature",
              "type": "bytes"
            }
          ],
          "internalType": "struct WorldRegistrationRequest",
          "name": "request",
          "type": "tuple"
        }
      ],
      "name": "register",
      "outputs": [],
      "stateMutability": "payable",
      "type": "function"
    },
    {
      "inputs": [],
      "name": "registrarRegistry",
      "outputs": [
        {
          "internalType": "contract IRegistrarRegistry",
          "name": "",
          "type": "address"
        }
      ],
      "stateMutability": "view",
      "type": "function"
    },
    {
      "inputs": [
        {
          "internalType": "uint256",
          "name": "registrarId",
          "type": "uint256"
        },
        {
          "internalType": "address",
          "name": "oldWorld",
          "type": "address"
        },
        {
          "internalType": "bytes",
          "name": "initData",
          "type": "bytes"
        }
      ],
      "name": "registrarUpgradeWorld",
      "outputs": [],
      "stateMutability": "nonpayable",
      "type": "function"
    },
    {
      "inputs": [
        {
          "internalType": "address",
          "name": "auth",
          "type": "address"
        }
      ],
      "name": "removeVectorAddressAuthority",
      "outputs": [],
      "stateMutability": "nonpayable",
      "type": "function"
    },
    {
      "inputs": [
        {
          "internalType": "bytes32",
          "name": "role",
          "type": "bytes32"
        },
        {
          "internalType": "address",
          "name": "callerConfirmation",
          "type": "address"
        }
      ],
      "name": "renounceRole",
      "outputs": [],
      "stateMutability": "nonpayable",
      "type": "function"
    },
    {
      "inputs": [
        {
          "internalType": "bytes32",
          "name": "role",
          "type": "bytes32"
        },
        {
          "internalType": "address",
          "name": "account",
          "type": "address"
        }
      ],
      "name": "revokeRole",
      "outputs": [],
      "stateMutability": "nonpayable",
      "type": "function"
    },
    {
      "inputs": [
        {
          "internalType": "string",
          "name": "version",
          "type": "string"
        }
      ],
      "name": "setCurrentWorldVersion",
      "outputs": [],
      "stateMutability": "nonpayable",
      "type": "function"
    },
    {
      "inputs": [
        {
          "internalType": "address",
          "name": "factory",
          "type": "address"
        }
      ],
      "name": "setWorldFactory",
      "outputs": [],
      "stateMutability": "nonpayable",
      "type": "function"
    },
    {
      "inputs": [
        {
          "internalType": "bytes4",
          "name": "interfaceId",
          "type": "bytes4"
        }
      ],
      "name": "supportsInterface",
      "outputs": [
        {
          "internalType": "bool",
          "name": "",
          "type": "bool"
        }
      ],
      "stateMutability": "view",
      "type": "function"
    },
    {
      "inputs": [],
      "name": "vectorAuthority",
      "outputs": [
        {
          "internalType": "address",
          "name": "",
          "type": "address"
        }
      ],
      "stateMutability": "view",
      "type": "function"
    },
    {
      "inputs": [],
      "name": "worldFactory",
      "outputs": [
        {
          "internalType": "contract IWorldFactoryV2",
          "name": "",
          "type": "address"
        }
      ],
      "stateMutability": "view",
      "type": "function"
    },
    {
      "inputs": [
        {
          "internalType": "bytes",
          "name": "initData",
          "type": "bytes"
        }
      ],
      "name": "worldUpgradeSelf",
      "outputs": [],
      "stateMutability": "nonpayable",
      "type": "function"
    },
    {
      "stateMutability": "payable",
      "type": "receive"
    }
  ],
  "bytecode": "0x60c0604052600360809081526218171960e91b60a0526009906200002490826200052d565b503480156200003257600080fd5b506040516200311438038062003114833981016040819052620000559162000674565b600160005580516001600160a01b0316620000cf5760405162461bcd60e51b815260206004820152602f60248201527f576f726c645265676973747279305f323a20766563746f72417574686f72697460448201526e0792063616e6e6f742062652030783608c1b60648201526084015b60405180910390fd5b60208101516001600160a01b0316620001405760405162461bcd60e51b815260206004820152602c60248201527f576f726c645265676973747279305f323a20776f726c64466163746f7279206360448201526b0616e6e6f74206265203078360a41b6064820152608401620000c6565b60608101516001600160a01b0316620001b15760405162461bcd60e51b815260206004820152602c60248201527f576f726c645265676973747279305f323a2064656661756c7441646d696e206360448201526b0616e6e6f74206265203078360a41b6064820152608401620000c6565b60408101516001600160a01b0316620002275760405162461bcd60e51b815260206004820152603160248201527f576f726c645265676973747279305f323a20726567697374726172526567697360448201527007472792063616e6e6f742062652030783607c1b6064820152608401620000c6565b8051600280546001600160a01b039283166001600160a01b03199182161790915560208301516003805491841691831691909117905560808301516004805491841691831691909117905560408301516005805491909316911617905560608101516200029790600090620003ef565b50620002bd600080516020620030f48339815191528260600151620003ef60201b60201c565b508051620002ed907f2758c8c5d77b29e60fffbf4a2bcb0fc98a947bd2a0dead06fdc32cd3cef1168d90620003ef565b5060005b8160a0015151811015620003e75760006001600160a01b03168260a001518281518110620003235762000323620007bd565b60200260200101516001600160a01b0316036200039c5760405162461bcd60e51b815260206004820152603060248201527f576f726c645265676973747279305f323a206f7468657241646d696e7320636160448201526f06e6e6f7420636f6e7461696e203078360841b6064820152608401620000c6565b620003dd600080516020620030f48339815191528360a001518381518110620003c957620003c9620007bd565b6020026020010151620003ef60201b60201c565b50600101620002f1565b5050620007d3565b60008281526001602090815260408083206001600160a01b038516845290915281205460ff166200047c5760008381526001602081815260408084206001600160a01b0387168086529252808420805460ff19169093179092559051339286917f2f8788117e7eff1d82e926ec794901d17c78024a50270940304540a733656f0d9190a450600162000480565b5060005b92915050565b634e487b7160e01b600052604160045260246000fd5b600181811c90821680620004b157607f821691505b602082108103620004d257634e487b7160e01b600052602260045260246000fd5b50919050565b601f82111562000528576000816000526020600020601f850160051c81016020861015620005035750805b601f850160051c820191505b8181101562000524578281556001016200050f565b5050505b505050565b81516001600160401b0381111562000549576200054962000486565b62000561816200055a84546200049c565b84620004d8565b602080601f831160018114620005995760008415620005805750858301515b600019600386901b1c1916600185901b17855562000524565b600085815260208120601f198616915b82811015620005ca57888601518255948401946001909101908401620005a9565b5085821015620005e95787850151600019600388901b60f8161c191681555b5050505050600190811b01905550565b60405160c081016001600160401b03811182821017156200061e576200061e62000486565b60405290565b604051601f8201601f191681016001600160401b03811182821017156200064f576200064f62000486565b604052919050565b80516001600160a01b03811681146200066f57600080fd5b919050565b600060208083850312156200068857600080fd5b82516001600160401b0380821115620006a057600080fd5b9084019060c08287031215620006b557600080fd5b620006bf620005f9565b620006ca8362000657565b8152620006d984840162000657565b84820152620006eb6040840162000657565b6040820152620006fe6060840162000657565b6060820152620007116080840162000657565b608082015260a0830151828111156200072957600080fd5b80840193505086601f8401126200073f57600080fd5b82518281111562000754576200075462000486565b8060051b92506200076785840162000624565b81815292840185019285810190898511156200078257600080fd5b948601945b84861015620007ab576200079b8662000657565b8252948601949086019062000787565b60a08401525090979650505050505050565b634e487b7160e01b600052603260045260246000fd5b61291180620007e36000396000f3fe60806040526004361061014f5760003560e01c80638f51aa6d116100b6578063b7722c7f1161006f578063b7722c7f146103d7578063d547741f146103f7578063db8d746614610417578063dbdc4e6214610437578063e3ffb4bf14610457578063f0ad0f3e1461047757600080fd5b80638f51aa6d1461032f57806391d148541461034f578063933b415b1461036f578063968638df14610382578063a217fddf146103a2578063a7b9af23146103b757600080fd5b80632f2ff15d116101085780632f2ff15d1461026b57806336568abe1461028b57806337959c2d146102ab57806368f52a97146102cd5780636d80bf31146102ed57806375b238fc1461030d57600080fd5b806301ffc9a71461015b5780630c743051146101905780630dc3897d146101b257806311022380146101ea578063248a9ca31461020a5780632ef7579b1461024957600080fd5b3661015657005b600080fd5b34801561016757600080fd5b5061017b610176366004611cca565b6104b0565b60405190151581526020015b60405180910390f35b34801561019c57600080fd5b506101a56104e7565b6040516101879190611d4b565b3480156101be57600080fd5b506003546101d2906001600160a01b031681565b6040516001600160a01b039091168152602001610187565b3480156101f657600080fd5b506004546101d2906001600160a01b031681565b34801561021657600080fd5b5061023b610225366004611d5e565b6000908152600160208190526040909120015490565b604051908152602001610187565b34801561025557600080fd5b50610269610264366004611de4565b610575565b005b34801561027757600080fd5b50610269610286366004611e3f565b610aef565b34801561029757600080fd5b506102696102a6366004611e3f565b610b1b565b3480156102b757600080fd5b5061023b60008051602061289c83398151915281565b3480156102d957600080fd5b506102696102e8366004611e6f565b610b53565b3480156102f957600080fd5b5061017b610308366004611e6f565b610c0f565b34801561031957600080fd5b5061023b6000805160206128bc83398151915281565b34801561033b57600080fd5b5061026961034a366004611e8c565b610c29565b34801561035b57600080fd5b5061017b61036a366004611e3f565b610d1a565b61026961037d3660046120a5565b610d45565b34801561038e57600080fd5b506002546101d2906001600160a01b031681565b3480156103ae57600080fd5b5061023b600081565b3480156103c357600080fd5b506102696103d23660046121bb565b6114a3565b3480156103e357600080fd5b506101d26103f23660046121bb565b6114e3565b34801561040357600080fd5b50610269610412366004611e3f565b61151c565b34801561042357600080fd5b50610269610432366004611e6f565b611542565b34801561044357600080fd5b506005546101d2906001600160a01b031681565b34801561046357600080fd5b50610269610472366004611e6f565b6115b4565b34801561048357600080fd5b5061017b610492366004611e6f565b6001600160a01b031660009081526007602052604090205460ff1690565b60006001600160e01b03198216637965db0b60e01b14806104e157506301ffc9a760e01b6001600160e01b03198316145b92915050565b600980546104f4906121f7565b80601f0160208091040260200160405190810160405280929190818152602001828054610520906121f7565b801561056d5780601f106105425761010080835404028352916020019161056d565b820191906000526020600020905b81548152906001019060200180831161055057829003601f168201915b505050505081565b600554604051638c9d518f60e01b81526004810186905233602482015285916001600160a01b031690638c9d518f90604401602060405180830381865afa1580156105c4573d6000803e3d6000fd5b505050506040513d601f19601f820116820180604052508101906105e89190612231565b61060d5760405162461bcd60e51b81526004016106049061224e565b60405180910390fd5b610615611626565b60048054604051637856879f60e11b81526001600160a01b038781169382019390935291169063f0ad0f3e90602401602060405180830381865afa158015610661573d6000803e3d6000fd5b505050506040513d601f19601f820116820180604052508101906106859190612231565b6107085760405162461bcd60e51b815260206004820152604860248201527f576f726c645265676973747279305f323a206f6c64576f726c64206973206e6f60448201527f7420612076616c696420776f726c64207570677261646561626c65206279207260648201526732b3b4b9ba3930b960c11b608482015260a401610604565b600084905060006040518060a00160405280836001600160a01b031663893d20e86040518163ffffffff1660e01b8152600401602060405180830381865afa158015610758573d6000803e3d6000fd5b505050506040513d601f19601f8201168201806040525081019061077c919061229f565b6001600160a01b03168152602001876001600160a01b03168152602001836001600160a01b031663382af56d6040518163ffffffff1660e01b8152600401600060405180830381865afa1580156107d7573d6000803e3d6000fd5b505050506040513d6000823e601f3d908101601f191682016040526107ff9190810190612301565b8152602001610872846001600160a01b03166317d7de7c6040518163ffffffff1660e01b8152600401600060405180830381865afa158015610845573d6000803e3d6000fd5b505050506040513d6000823e601f3d908101601f1916820160405261086d91908101906123d6565b611650565b815260200186868080601f016020809104026020016040519081016040528093929190818152602001838380828437600092018290525093909452505060035460405163082f91ff60e41b815293945090926001600160a01b0390911691506382f91ff0906108e590859060040161247d565b6020604051808303816000875af1158015610904573d6000803e3d6000fd5b505050506040513d601f19601f82011682018060405250810190610928919061229f565b90506001600160a01b0381166109505760405162461bcd60e51b8152600401610604906124fe565b806006610994856001600160a01b03166317d7de7c6040518163ffffffff1660e01b8152600401600060405180830381865afa158015610845573d6000803e3d6000fd5b6040516109a19190612545565b908152604080516020928190038301812080546001600160a01b0319166001600160a01b0395861617905584841660009081526007909352818320805460ff1916600117905563382af56d60e01b81529051849360089392610a58929189169163382af56d9160048082019287929091908290030181865afa158015610a2b573d6000803e3d6000fd5b505050506040513d6000823e601f3d908101601f19168201604052610a539190810190612301565b6116c0565b80516020918201208252810191909152604090810160002080546001600160a01b0319166001600160a01b039384161790555162900f0160e41b8152828216600482015290841690630900f01090602401600060405180830381600087803b158015610ac357600080fd5b505af1158015610ad7573d6000803e3d6000fd5b50505050505050610ae86001600055565b5050505050565b60008281526001602081905260409091200154610b0b81611723565b610b158383611730565b50505050565b6001600160a01b0381163314610b445760405163334bd91960e11b815260040160405180910390fd5b610b4e82826117a9565b505050565b610b6b6000805160206128bc83398151915233610d1a565b610b875760405162461bcd60e51b815260040161060490612561565b6001600160a01b038116610bed5760405162461bcd60e51b815260206004820152602760248201527f576f726c645265676973747279305f323a20666163746f72792063616e6e6f746044820152660206265203078360cc1b6064820152608401610604565b600380546001600160a01b0319166001600160a01b0392909216919091179055565b60006104e160008051602061289c83398151915283610d1a565b3360009081526007602052604090205460ff16610c9e5760405162461bcd60e51b815260206004820152602d60248201527f576f726c645265676973747279305f323a2063616c6c6572206973206e6f742060448201526c18481d985b1a590815dbdc9b19609a1b6064820152608401610604565b610ca6611626565b60035460405163390b9e3d60e01b81526001600160a01b039091169063390b9e3d90610cda903390869086906004016125a6565b600060405180830381600087803b158015610cf457600080fd5b505af1158015610d08573d6000803e3d6000fd5b50505050610d166001600055565b5050565b60009182526001602090815260408084206001600160a01b0393909316845291905290205460ff1690565b60a0810151600554604051638c9d518f60e01b8152600481018390523360248201526001600160a01b0390911690638c9d518f90604401602060405180830381865afa158015610d99573d6000803e3d6000fd5b505050506040513d601f19601f82011682018060405250810190610dbd9190612231565b610dd95760405162461bcd60e51b81526004016106049061224e565b610de1611626565b6000610df08360800151611650565b905060006001600160a01b0316600682604051610e0d9190612545565b908152604051908190036020019020546001600160a01b031614610e815760405162461bcd60e51b815260206004820152602560248201527f576f726c645265676973747279305f323a206e616d6520616c726561647920696044820152646e2075736560d81b6064820152608401610604565b6004546001600160a01b031615801590610ea7575060208301516001600160a01b031615155b15610fa157600480546020850151604051637856879f60e11b81526001600160a01b0391821693810193909352169063f0ad0f3e90602401602060405180830381865afa158015610efc573d6000803e3d6000fd5b505050506040513d601f19601f82011682018060405250810190610f209190612231565b610fa15760405162461bcd60e51b815260206004820152604660248201527f576f726c645265676973747279305f323a206f6c64576f726c64206973206e6f60448201527f7420612076616c696420776f726c642066726f6d2070726576696f757320726560648201526567697374727960d01b608482015260a401610604565b60a083015160e08401516060850151600092610fbc92611816565b9050610fd660008051602061289c83398151915282610d1a565b6110585760405162461bcd60e51b815260206004820152604760248201527f576f726c645265676973747279305f323a20766563746f72207369676e65722060448201527f6973206e6f7420612076616c696420766563746f72206164647265737320617560648201526674686f7269747960c81b608482015260a401610604565b606084015151516000036110c45760405162461bcd60e51b815260206004820152602d60248201527f576f726c645265676973747279305f323a2062617365566563746f722e78206360448201526c616e6e6f74206265207a65726f60981b6064820152608401610604565b836060015160200151516000036111335760405162461bcd60e51b815260206004820152602d60248201527f576f726c645265676973747279305f323a2062617365566563746f722e79206360448201526c616e6e6f74206265207a65726f60981b6064820152608401610604565b836060015160400151516000036111a25760405162461bcd60e51b815260206004820152602d60248201527f576f726c645265676973747279305f323a2062617365566563746f722e7a206360448201526c616e6e6f74206265207a65726f60981b6064820152608401610604565b60006040518060c00160405280866060015160000151815260200186606001516020015181526020018660600151604001518152602001866060015160600151815260200160008152602001600081525090506000611200826116c0565b8051602091820120600081815260089092526040909120549091506001600160a01b0316156112815760405162461bcd60e51b815260206004820152602760248201527f576f726c645265676973747279305f323a20766563746f7220616c726561647960448201526620696e2075736560c81b6064820152608401610604565b6003546040805160a081018252888201516001600160a01b0390811682526020808b01518216908301528183018690526060820188905260c08a01516080830152915163082f91ff60e41b815260009392909216916382f91ff0916112e89160040161247d565b6020604051808303816000875af1158015611307573d6000803e3d6000fd5b505050506040513d601f19601f8201168201806040525081019061132b919061229f565b90506001600160a01b0381166113535760405162461bcd60e51b8152600401610604906124fe565b806006866040516113649190612545565b908152604080516020928190038301902080546001600160a01b03199081166001600160a01b0395861617909155928416600081815260078452828120805460ff1916600117905586815260089093529120805490921617905534156114455786511561140e5786604001516001600160a01b03166108fc349081150290604051600060405180830381858888f19350505050158015611408573d6000803e3d6000fd5b50611445565b6040516001600160a01b038216903480156108fc02916000818181858888f19350505050158015611443573d6000803e3d6000fd5b505b86604001516001600160a01b0316816001600160a01b03167fee32bdf3024960eab0cc65f92f4ab288808ff5501b8132b269630d3fa070005e8560405161148c91906125e6565b60405180910390a35050505050610d166001600055565b6114bb6000805160206128bc83398151915233610d1a565b6114d75760405162461bcd60e51b815260040161060490612561565b6009610d168282612649565b600060066114f083611650565b6040516114fd9190612545565b908152604051908190036020019020546001600160a01b031692915050565b6000828152600160208190526040909120015461153881611723565b610b1583836117a9565b61155a6000805160206128bc83398151915233610d1a565b6115765760405162461bcd60e51b815260040161060490612561565b6001600160a01b03811661159c5760405162461bcd60e51b815260040161060490612708565b610d1660008051602061289c83398151915282611730565b6115cc6000805160206128bc83398151915233610d1a565b6115e85760405162461bcd60e51b815260040161060490612561565b6001600160a01b03811661160e5760405162461bcd60e51b815260040161060490612708565b610d1660008051602061289c833981519152826117a9565b60026000540361164957604051633ee5aeb560e01b815260040160405180910390fd5b6002600055565b60608160005b81518110156116b9576116888282815181106116745761167461274c565b01602001516001600160f81b03191661189e565b82828151811061169a5761169a61274c565b60200101906001600160f81b031916908160001a905350600101611656565b5092915050565b60608160000151826020015183604001516116de85606001516118ed565b6116eb86608001516118ed565b6116f88760a001516118ed565b60405160200161170d96959493929190612762565b6040516020818303038152906040529050919050565b61172d813361197f565b50565b600061173c8383610d1a565b6117a15760008381526001602081815260408084206001600160a01b0387168086529252808420805460ff19169093179092559051339286917f2f8788117e7eff1d82e926ec794901d17c78024a50270940304540a733656f0d9190a45060016104e1565b5060006104e1565b60006117b58383610d1a565b156117a15760008381526001602090815260408083206001600160a01b0386168085529252808320805460ff1916905551339286917ff6391f5c32d9c69d2a47ea670b442974b53935d1edc7fd64eb21e047a839171b9190a45060016104e1565b600080611822856116c0565b9050600081856040516020016118399291906127e1565b60408051808303601f19018152828252805160208083019190912081855284840190935290935090916000916020820181803683370190505090508160208201526000611885826119b8565b905061189181886119f3565b9998505050505050505050565b6000604160f81b6001600160f81b03198316108015906118cc5750602d60f91b6001600160f81b0319831611155b156118e9576118e060f883901c6020612803565b60f81b92915050565b5090565b606060006118fa83611a1d565b60010190506000816001600160401b0381111561191957611919611ecd565b6040519080825280601f01601f191660200182016040528015611943576020820181803683370190505b5090508181016020015b600019016f181899199a1a9b1b9c1cb0b131b232b360811b600a86061a8153600a850494508461194d57509392505050565b6119898282610d1a565b610d165760405163e2517d3f60e01b81526001600160a01b038216600482015260248101839052604401610604565b60006119c482516118ed565b826040516020016119d692919061282a565b604051602081830303815290604052805190602001209050919050565b600080600080611a038686611af5565b925092509250611a138282611b42565b5090949350505050565b60008072184f03e93ff9f4daa797ed6e38ed64bf6a1f0160401b8310611a5c5772184f03e93ff9f4daa797ed6e38ed64bf6a1f0160401b830492506040015b6d04ee2d6d415b85acef81000000008310611a88576d04ee2d6d415b85acef8100000000830492506020015b662386f26fc100008310611aa657662386f26fc10000830492506010015b6305f5e1008310611abe576305f5e100830492506008015b6127108310611ad257612710830492506004015b60648310611ae4576064830492506002015b600a83106104e15760010192915050565b60008060008351604103611b2f5760208401516040850151606086015160001a611b2188828585611bfb565b955095509550505050611b3b565b50508151600091506002905b9250925092565b6000826003811115611b5657611b56612885565b03611b5f575050565b6001826003811115611b7357611b73612885565b03611b915760405163f645eedf60e01b815260040160405180910390fd5b6002826003811115611ba557611ba5612885565b03611bc65760405163fce698f760e01b815260048101829052602401610604565b6003826003811115611bda57611bda612885565b03610d16576040516335e2f38360e21b815260048101829052602401610604565b600080807f7fffffffffffffffffffffffffffffff5d576e7357a4501ddfe92f46681b20a0841115611c365750600091506003905082611cc0565b604080516000808252602082018084528a905260ff891692820192909252606081018790526080810186905260019060a0016020604051602081039080840390855afa158015611c8a573d6000803e3d6000fd5b5050604051601f1901519150506001600160a01b038116611cb657506000925060019150829050611cc0565b9250600091508190505b9450945094915050565b600060208284031215611cdc57600080fd5b81356001600160e01b031981168114611cf457600080fd5b9392505050565b60005b83811015611d16578181015183820152602001611cfe565b50506000910152565b60008151808452611d37816020860160208601611cfb565b601f01601f19169290920160200192915050565b602081526000611cf46020830184611d1f565b600060208284031215611d7057600080fd5b5035919050565b6001600160a01b038116811461172d57600080fd5b8035611d9781611d77565b919050565b60008083601f840112611dae57600080fd5b5081356001600160401b03811115611dc557600080fd5b602083019150836020828501011115611ddd57600080fd5b9250929050565b60008060008060608587031215611dfa57600080fd5b843593506020850135611e0c81611d77565b925060408501356001600160401b03811115611e2757600080fd5b611e3387828801611d9c565b95989497509550505050565b60008060408385031215611e5257600080fd5b823591506020830135611e6481611d77565b809150509250929050565b600060208284031215611e8157600080fd5b8135611cf481611d77565b60008060208385031215611e9f57600080fd5b82356001600160401b03811115611eb557600080fd5b611ec185828601611d9c565b90969095509350505050565b634e487b7160e01b600052604160045260246000fd5b60405160c081016001600160401b0381118282101715611f0557611f05611ecd565b60405290565b60405161010081016001600160401b0381118282101715611f0557611f05611ecd565b604051601f8201601f191681016001600160401b0381118282101715611f5657611f56611ecd565b604052919050565b801515811461172d57600080fd5b8035611d9781611f5e565b60006001600160401b03821115611f9057611f90611ecd565b50601f01601f191660200190565b600082601f830112611faf57600080fd5b8135611fc2611fbd82611f77565b611f2e565b818152846020838601011115611fd757600080fd5b816020850160208301376000918101602001919091529392505050565b600060c0828403121561200657600080fd5b61200e611ee3565b905081356001600160401b038082111561202757600080fd5b61203385838601611f9e565b8352602084013591508082111561204957600080fd5b61205585838601611f9e565b6020840152604084013591508082111561206e57600080fd5b5061207b84828501611f9e565b604083015250606082013560608201526080820135608082015260a082013560a082015292915050565b6000602082840312156120b757600080fd5b81356001600160401b03808211156120ce57600080fd5b9083019061010082860312156120e357600080fd5b6120eb611f0b565b6120f483611f6c565b815261210260208401611d8c565b602082015261211360408401611d8c565b604082015260608301358281111561212a57600080fd5b61213687828601611ff4565b60608301525060808301358281111561214e57600080fd5b61215a87828601611f9e565b60808301525060a083013560a082015260c08301358281111561217c57600080fd5b61218887828601611f9e565b60c08301525060e0830135828111156121a057600080fd5b6121ac87828601611f9e565b60e08301525095945050505050565b6000602082840312156121cd57600080fd5b81356001600160401b038111156121e357600080fd5b6121ef84828501611f9e565b949350505050565b600181811c9082168061220b57607f821691505b60208210810361222b57634e487b7160e01b600052602260045260246000fd5b50919050565b60006020828403121561224357600080fd5b8151611cf481611f5e565b60208082526031908201527f576f726c645265676973747279305f323a2063616c6c6572206973206e6f742060408201527030903b30b634b2103932b3b4b9ba3930b960791b606082015260800190565b6000602082840312156122b157600080fd5b8151611cf481611d77565b600082601f8301126122cd57600080fd5b81516122db611fbd82611f77565b8181528460208386010111156122f057600080fd5b6121ef826020830160208701611cfb565b60006020828403121561231357600080fd5b81516001600160401b038082111561232a57600080fd5b9083019060c0828603121561233e57600080fd5b612346611ee3565b82518281111561235557600080fd5b612361878286016122bc565b82525060208301518281111561237657600080fd5b612382878286016122bc565b60208301525060408301518281111561239a57600080fd5b6123a6878286016122bc565b604083015250606083015160608201526080830151608082015260a083015160a082015280935050505092915050565b6000602082840312156123e857600080fd5b81516001600160401b038111156123fe57600080fd5b6121ef848285016122bc565b6000815160c0845261241f60c0850182611d1f565b9050602083015184820360208601526124388282611d1f565b915050604083015184820360408601526124528282611d1f565b915050606083015160608501526080830151608085015260a083015160a08501528091505092915050565b60208152600060018060a01b0380845116602084015280602085015116604084015250604083015160a060608401526124b960c084018261240a565b90506060840151601f19808584030160808601526124d78383611d1f565b925060808601519150808584030160a0860152506124f58282611d1f565b95945050505050565b60208082526027908201527f576f726c645265676973747279305f323a20776f726c64206372656174696f6e6040820152660819985a5b195960ca1b606082015260800190565b60008251612557818460208701611cfb565b9190910192915050565b60208082526025908201527f576f726c645265676973747279305f323a2063616c6c6572206973206e6f742060408201526430b236b4b760d91b606082015260800190565b6001600160a01b03841681526040602082018190528101829052818360608301376000818301606090810191909152601f909201601f1916010192915050565b602081526000611cf4602083018461240a565b601f821115610b4e576000816000526020600020601f850160051c810160208610156126225750805b601f850160051c820191505b818110156126415782815560010161262e565b505050505050565b81516001600160401b0381111561266257612662611ecd565b6126768161267084546121f7565b846125f9565b602080601f8311600181146126ab57600084156126935750858301515b600019600386901b1c1916600185901b178555612641565b600085815260208120601f198616915b828110156126da578886015182559484019460019091019084016126bb565b50858210156126f85787850151600019600388901b60f8161c191681555b5050505050600190811b01905550565b60208082526024908201527f576f726c645265676973747279305f323a20617574682063616e6e6f742062656040820152630203078360e41b606082015260800190565b634e487b7160e01b600052603260045260246000fd5b6000875160206127758285838d01611cfb565b8851918401916127888184848d01611cfb565b885192019161279a8184848c01611cfb565b87519201916127ac8184848b01611cfb565b86519201916127be8184848a01611cfb565b85519201916127d08184848901611cfb565b919091019998505050505050505050565b6040815260006127f46040830185611d1f565b90508260208301529392505050565b60ff81811683821601908111156104e157634e487b7160e01b600052601160045260246000fd5b7f19457468657265756d205369676e6564204d6573736167653a0a00000000000081526000835161286281601a850160208801611cfb565b83519083019061287981601a840160208801611cfb565b01601a01949350505050565b634e487b7160e01b600052602160045260246000fdfe2758c8c5d77b29e60fffbf4a2bcb0fc98a947bd2a0dead06fdc32cd3cef1168da49807205ce4d355092ef5a8a18f56e8913cf4a201fbe287825b095693c21775a264697066735822122049b9adc8665346bfbed453c2c5f08d2fcde8c944533813cef8f1e9ded9f8f4be64736f6c63430008180033a49807205ce4d355092ef5a8a18f56e8913cf4a201fbe287825b095693c21775",
  "linkReferences": {},
  "deployedLinkReferences": {}
}