{
  "_format": "hh-sol-artifact-1",
  "contractName": "World0_2",
  "sourceName": "contracts/world/v0.2/World0_2.sol",
  "abi": [
    {
      "inputs": [
        {
          "components": [
            {
              "internalType": "address",
              "name": "worldFactory",
              "type": "address"
            },
            {
              "internalType": "address",
              "name": "worldRegistry",
              "type": "address"
            },
            {
              "internalType": "address",
              "name": "companyRegistry",
              "type": "address"
            },
            {
              "internalType": "address",
              "name": "avatarRegistry",
              "type": "address"
            }
          ],
          "internalType": "struct WorldConstructorArgs",
          "name": "args",
          "type": "tuple"
        }
      ],
      "stateMutability": "nonpayable",
      "type": "constructor"
    },
    {
      "inputs": [],
      "name": "AccessControlBadConfirmation",
      "type": "error"
    },
    {
      "inputs": [
        {
          "internalType": "address",
          "name": "account",
          "type": "address"
        },
        {
          "internalType": "bytes32",
          "name": "neededRole",
          "type": "bytes32"
        }
      ],
      "name": "AccessControlUnauthorizedAccount",
      "type": "error"
    },
    {
      "inputs": [],
      "name": "ReentrancyGuardReentrantCall",
      "type": "error"
    },
    {
      "anonymous": false,
      "inputs": [
        {
          "indexed": true,
          "internalType": "address",
          "name": "avatar",
          "type": "address"
        },
        {
          "indexed": true,
          "internalType": "address",
          "name": "experience",
          "type": "address"
        }
      ],
      "name": "AvatarRegistered",
      "type": "event"
    },
    {
      "anonymous": false,
      "inputs": [
        {
          "indexed": true,
          "internalType": "address",
          "name": "company",
          "type": "address"
        },
        {
          "components": [
            {
              "internalType": "string",
              "name": "x",
              "type": "string"
            },
            {
              "internalType": "string",
              "name": "y",
              "type": "string"
            },
            {
              "internalType": "string",
              "name": "z",
              "type": "string"
            },
            {
              "internalType": "uint256",
              "name": "t",
              "type": "uint256"
            },
            {
              "internalType": "uint256",
              "name": "p",
              "type": "uint256"
            },
            {
              "internalType": "uint256",
              "name": "p_sub",
              "type": "uint256"
            }
          ],
          "indexed": false,
          "internalType": "struct VectorAddress",
          "name": "vector",
          "type": "tuple"
        },
        {
          "indexed": false,
          "internalType": "string",
          "name": "name",
          "type": "string"
        }
      ],
      "name": "CompanyRegistered",
      "type": "event"
    },
    {
      "anonymous": false,
      "inputs": [
        {
          "indexed": true,
          "internalType": "address",
          "name": "sender",
          "type": "address"
        },
        {
          "indexed": false,
          "internalType": "uint256",
          "name": "value",
          "type": "uint256"
        }
      ],
      "name": "ReceivedFunds",
      "type": "event"
    },
    {
      "anonymous": false,
      "inputs": [
        {
          "indexed": true,
          "internalType": "bytes32",
          "name": "role",
          "type": "bytes32"
        },
        {
          "indexed": true,
          "internalType": "bytes32",
          "name": "previousAdminRole",
          "type": "bytes32"
        },
        {
          "indexed": true,
          "internalType": "bytes32",
          "name": "newAdminRole",
          "type": "bytes32"
        }
      ],
      "name": "RoleAdminChanged",
      "type": "event"
    },
    {
      "anonymous": false,
      "inputs": [
        {
          "indexed": true,
          "internalType": "bytes32",
          "name": "role",
          "type": "bytes32"
        },
        {
          "indexed": true,
          "internalType": "address",
          "name": "account",
          "type": "address"
        },
        {
          "indexed": true,
          "internalType": "address",
          "name": "sender",
          "type": "address"
        }
      ],
      "name": "RoleGranted",
      "type": "event"
    },
    {
      "anonymous": false,
      "inputs": [
        {
          "indexed": true,
          "internalType": "bytes32",
          "name": "role",
          "type": "bytes32"
        },
        {
          "indexed": true,
          "internalType": "address",
          "name": "account",
          "type": "address"
        },
        {
          "indexed": true,
          "internalType": "address",
          "name": "sender",
          "type": "address"
        }
      ],
      "name": "RoleRevoked",
      "type": "event"
    },
    {
      "anonymous": false,
      "inputs": [
        {
          "indexed": true,
          "internalType": "address",
          "name": "signer",
          "type": "address"
        }
      ],
      "name": "SignerAdded",
      "type": "event"
    },
    {
      "anonymous": false,
      "inputs": [
        {
          "indexed": true,
          "internalType": "address",
          "name": "signer",
          "type": "address"
        }
      ],
      "name": "SignerRemoved",
      "type": "event"
    },
    {
      "anonymous": false,
      "inputs": [],
      "name": "WorldHookRemoved",
      "type": "event"
    },
    {
      "anonymous": false,
      "inputs": [
        {
          "indexed": true,
          "internalType": "address",
          "name": "hook",
          "type": "address"
        }
      ],
      "name": "WorldHookSet",
      "type": "event"
    },
    {
      "anonymous": false,
      "inputs": [
        {
          "indexed": true,
          "internalType": "address",
          "name": "oldWorld",
          "type": "address"
        },
        {
          "indexed": true,
          "internalType": "address",
          "name": "newWorld",
          "type": "address"
        }
      ],
      "name": "WorldUpgraded",
      "type": "event"
    },
    {
      "inputs": [],
      "name": "DEFAULT_ADMIN_ROLE",
      "outputs": [
        {
          "internalType": "bytes32",
          "name": "",
          "type": "bytes32"
        }
      ],
      "stateMutability": "view",
      "type": "function"
    },
    {
      "inputs": [],
      "name": "SIGNER_ROLE",
      "outputs": [
        {
          "internalType": "bytes32",
          "name": "",
          "type": "bytes32"
        }
      ],
      "stateMutability": "view",
      "type": "function"
    },
    {
      "inputs": [
        {
          "internalType": "address[]",
          "name": "sigs",
          "type": "address[]"
        }
      ],
      "name": "addSigners",
      "outputs": [],
      "stateMutability": "nonpayable",
      "type": "function"
    },
    {
      "inputs": [],
      "name": "avatarRegistry",
      "outputs": [
        {
          "internalType": "contract IAvatarRegistry",
          "name": "",
          "type": "address"
        }
      ],
      "stateMutability": "view",
      "type": "function"
    },
    {
      "inputs": [],
      "name": "companyRegistry",
      "outputs": [
        {
          "internalType": "contract ICompanyRegistry",
          "name": "",
          "type": "address"
        }
      ],
      "stateMutability": "view",
      "type": "function"
    },
    {
      "inputs": [],
      "name": "getBaseVector",
      "outputs": [
        {
          "components": [
            {
              "internalType": "string",
              "name": "x",
              "type": "string"
            },
            {
              "internalType": "string",
              "name": "y",
              "type": "string"
            },
            {
              "internalType": "string",
              "name": "z",
              "type": "string"
            },
            {
              "internalType": "uint256",
              "name": "t",
              "type": "uint256"
            },
            {
              "internalType": "uint256",
              "name": "p",
              "type": "uint256"
            },
            {
              "internalType": "uint256",
              "name": "p_sub",
              "type": "uint256"
            }
          ],
          "internalType": "struct VectorAddress",
          "name": "",
          "type": "tuple"
        }
      ],
      "stateMutability": "view",
      "type": "function"
    },
    {
      "inputs": [],
      "name": "getName",
      "outputs": [
        {
          "internalType": "string",
          "name": "",
          "type": "string"
        }
      ],
      "stateMutability": "view",
      "type": "function"
    },
    {
      "inputs": [],
      "name": "getOwner",
      "outputs": [
        {
          "internalType": "address",
          "name": "",
          "type": "address"
        }
      ],
      "stateMutability": "view",
      "type": "function"
    },
    {
      "inputs": [
        {
          "internalType": "bytes32",
          "name": "role",
          "type": "bytes32"
        }
      ],
      "name": "getRoleAdmin",
      "outputs": [
        {
          "internalType": "bytes32",
          "name": "",
          "type": "bytes32"
        }
      ],
      "stateMutability": "view",
      "type": "function"
    },
    {
      "inputs": [
        {
          "internalType": "bytes32",
          "name": "role",
          "type": "bytes32"
        },
        {
          "internalType": "address",
          "name": "account",
          "type": "address"
        }
      ],
      "name": "grantRole",
      "outputs": [],
      "stateMutability": "nonpayable",
      "type": "function"
    },
    {
      "inputs": [
        {
          "internalType": "bytes32",
          "name": "role",
          "type": "bytes32"
        },
        {
          "internalType": "address",
          "name": "account",
          "type": "address"
        }
      ],
      "name": "hasRole",
      "outputs": [
        {
          "internalType": "bool",
          "name": "",
          "type": "bool"
        }
      ],
      "stateMutability": "view",
      "type": "function"
    },
    {
      "inputs": [],
      "name": "hook",
      "outputs": [
        {
          "internalType": "contract IWorldHook",
          "name": "",
          "type": "address"
        }
      ],
      "stateMutability": "view",
      "type": "function"
    },
    {
      "inputs": [
        {
          "components": [
            {
              "internalType": "address",
              "name": "owner",
              "type": "address"
            },
            {
              "internalType": "address",
              "name": "oldWorld",
              "type": "address"
            },
            {
              "components": [
                {
                  "internalType": "string",
                  "name": "x",
                  "type": "string"
                },
                {
                  "internalType": "string",
                  "name": "y",
                  "type": "string"
                },
                {
                  "internalType": "string",
                  "name": "z",
                  "type": "string"
                },
                {
                  "internalType": "uint256",
                  "name": "t",
                  "type": "uint256"
                },
                {
                  "internalType": "uint256",
                  "name": "p",
                  "type": "uint256"
                },
                {
                  "internalType": "uint256",
                  "name": "p_sub",
                  "type": "uint256"
                }
              ],
              "internalType": "struct VectorAddress",
              "name": "baseVector",
              "type": "tuple"
            },
            {
              "internalType": "string",
              "name": "name",
              "type": "string"
            },
            {
              "internalType": "bytes",
              "name": "initData",
              "type": "bytes"
            }
          ],
          "internalType": "struct WorldCreateRequest",
          "name": "request",
          "type": "tuple"
        }
      ],
      "name": "init",
      "outputs": [],
      "stateMutability": "nonpayable",
      "type": "function"
    },
    {
      "inputs": [],
      "name": "name",
      "outputs": [
        {
          "internalType": "string",
          "name": "",
          "type": "string"
        }
      ],
      "stateMutability": "view",
      "type": "function"
    },
    {
      "inputs": [
        {
          "components": [
            {
              "internalType": "bool",
              "name": "sendTokensToAvatarOwner",
              "type": "bool"
            },
            {
              "internalType": "address",
              "name": "avatarOwner",
              "type": "address"
            },
            {
              "internalType": "address",
              "name": "defaultExperience",
              "type": "address"
            },
            {
              "internalType": "string",
              "name": "username",
              "type": "string"
            },
            {
              "internalType": "bytes",
              "name": "initData",
              "type": "bytes"
            }
          ],
          "internalType": "struct AvatarRegistrationRequest",
          "name": "args",
          "type": "tuple"
        }
      ],
      "name": "registerAvatar",
      "outputs": [
        {
          "internalType": "address",
          "name": "avatar",
          "type": "address"
        }
      ],
      "stateMutability": "nonpayable",
      "type": "function"
    },
    {
      "inputs": [
        {
          "components": [
            {
              "internalType": "address",
              "name": "owner",
              "type": "address"
            },
            {
              "internalType": "string",
              "name": "name",
              "type": "string"
            },
            {
              "internalType": "bytes",
              "name": "initData",
              "type": "bytes"
            }
          ],
          "internalType": "struct CompanyRegistrationArgs",
          "name": "args",
          "type": "tuple"
        }
      ],
      "name": "registerCompany",
      "outputs": [
        {
          "internalType": "address",
          "name": "company",
          "type": "address"
        }
      ],
      "stateMutability": "nonpayable",
      "type": "function"
    },
    {
      "inputs": [],
      "name": "removeHook",
      "outputs": [],
      "stateMutability": "nonpayable",
      "type": "function"
    },
    {
      "inputs": [
        {
          "internalType": "address[]",
          "name": "sigs",
          "type": "address[]"
        }
      ],
      "name": "removeSigners",
      "outputs": [],
      "stateMutability": "nonpayable",
      "type": "function"
    },
    {
      "inputs": [
        {
          "internalType": "bytes32",
          "name": "role",
          "type": "bytes32"
        },
        {
          "internalType": "address",
          "name": "callerConfirmation",
          "type": "address"
        }
      ],
      "name": "renounceRole",
      "outputs": [],
      "stateMutability": "nonpayable",
      "type": "function"
    },
    {
      "inputs": [
        {
          "internalType": "bytes32",
          "name": "role",
          "type": "bytes32"
        },
        {
          "internalType": "address",
          "name": "account",
          "type": "address"
        }
      ],
      "name": "revokeRole",
      "outputs": [],
      "stateMutability": "nonpayable",
      "type": "function"
    },
    {
      "inputs": [
        {
          "internalType": "contract IWorldHook",
          "name": "_hook",
          "type": "address"
        }
      ],
      "name": "setHook",
      "outputs": [],
      "stateMutability": "nonpayable",
      "type": "function"
    },
    {
      "inputs": [
        {
          "internalType": "bytes4",
          "name": "interfaceId",
          "type": "bytes4"
        }
      ],
      "name": "supportsInterface",
      "outputs": [
        {
          "internalType": "bool",
          "name": "",
          "type": "bool"
        }
      ],
      "stateMutability": "view",
      "type": "function"
    },
    {
      "inputs": [
        {
          "internalType": "bytes",
          "name": "initData",
          "type": "bytes"
        }
      ],
      "name": "upgrade",
      "outputs": [],
      "stateMutability": "nonpayable",
      "type": "function"
    },
    {
      "inputs": [
        {
          "internalType": "address",
          "name": "nextVersion",
          "type": "address"
        }
      ],
      "name": "upgradeComplete",
      "outputs": [],
      "stateMutability": "nonpayable",
      "type": "function"
    },
    {
      "inputs": [],
      "name": "upgraded",
      "outputs": [
        {
          "internalType": "bool",
          "name": "",
          "type": "bool"
        }
      ],
      "stateMutability": "view",
      "type": "function"
    },
    {
      "inputs": [],
      "name": "version",
      "outputs": [
        {
          "internalType": "string",
          "name": "",
          "type": "string"
        }
      ],
      "stateMutability": "view",
      "type": "function"
    },
    {
      "inputs": [],
      "name": "worldFactory",
      "outputs": [
        {
          "internalType": "address",
          "name": "",
          "type": "address"
        }
      ],
      "stateMutability": "view",
      "type": "function"
    },
    {
      "inputs": [],
      "name": "worldRegistry",
      "outputs": [
        {
          "internalType": "contract IWorldRegistry0_2",
          "name": "",
          "type": "address"
        }
      ],
      "stateMutability": "view",
      "type": "function"
    },
    {
      "stateMutability": "payable",
      "type": "receive"
    }
  ],
  "bytecode": "0x60806040523480156200001157600080fd5b5060405162002bde38038062002bde833981016040819052620000349162000286565b600160005580516001600160a01b0316620000ac5760405162461bcd60e51b815260206004820152602d60248201527f576f726c64305f323a20776f726c64466163746f72792063616e6e6f7420626560448201526c207a65726f206164647265737360981b60648201526084015b60405180910390fd5b60208101516001600160a01b03166200011f5760405162461bcd60e51b815260206004820152602e60248201527f576f726c64305f323a20776f726c6452656769737472792063616e6e6f74206260448201526d65207a65726f206164647265737360901b6064820152608401620000a3565b60408101516001600160a01b0316620001945760405162461bcd60e51b815260206004820152603060248201527f576f726c64305f323a20636f6d70616e7952656769737472792063616e6e6f7460448201526f206265207a65726f206164647265737360801b6064820152608401620000a3565b60608101516001600160a01b0316620002085760405162461bcd60e51b815260206004820152602f60248201527f576f726c64305f323a2061766174617252656769737472792063616e6e6f742060448201526e6265207a65726f206164647265737360881b6064820152608401620000a3565b6020810151600280546001600160a01b03199081166001600160a01b0393841617909155825160038054831691841691909117905560408301516004805483169184169190911790556060909201516005805490931691161790556200031a565b80516001600160a01b03811681146200028157600080fd5b919050565b6000608082840312156200029957600080fd5b604051608081016001600160401b0381118282101715620002ca57634e487b7160e01b600052604160045260246000fd5b604052620002d88362000269565b8152620002e86020840162000269565b6020820152620002fb6040840162000269565b60408201526200030e6060840162000269565b60608201529392505050565b6128b4806200032a6000396000f3fe6080604052600436106101bb5760003560e01c806358eae73b116100ec578063a1ebf35d1161008a578063c51aba2b11610064578063c51aba2b1461053d578063d547741f1461055d578063e3d7ad731461057d578063e8906a2d1461059d57600080fd5b8063a1ebf35d146104e5578063a217fddf14610507578063c28de2cd1461051c57600080fd5b8063893d20e8116100c6578063893d20e8146104675780638d361e4314610485578063911c2a8c146104a557806391d14854146104c557600080fd5b806358eae73b1461040757806361445eb7146104275780637f5a7c7b1461044757600080fd5b80632f2ff15d11610159578063382af56d11610133578063382af56d146103765780633dfd3873146103985780634d575f3d146103b857806354fd4d50146103d857600080fd5b80632f2ff15d1461032157806336568abe14610341578063378f17ff1461036157600080fd5b806317d7de7c1161019557806317d7de7c1461028b578063248a9ca3146102a057806325394645146102df5780632663d1f71461030157600080fd5b806301ffc9a7146101fc57806306fdde03146102315780630dc3897d1461025357600080fd5b366101f75760405134815233907f5741979df5f3e491501da74d3b0a83dd2496ab1f34929865b3e190a8ad75859a9060200160405180910390a2005b600080fd5b34801561020857600080fd5b5061021c610217366004611e46565b6105bd565b60405190151581526020015b60405180910390f35b34801561023d57600080fd5b506102466105f4565b6040516102289190611ebd565b34801561025f57600080fd5b50600354610273906001600160a01b031681565b6040516001600160a01b039091168152602001610228565b34801561029757600080fd5b50610246610682565b3480156102ac57600080fd5b506102d16102bb366004611ed0565b6000908152600160208190526040909120015490565b604051908152602001610228565b3480156102eb57600080fd5b506102ff6102fa366004611ee9565b610714565b005b34801561030d57600080fd5b506102ff61031c366004611f7b565b610807565b34801561032d57600080fd5b506102ff61033c366004611f98565b610945565b34801561034d57600080fd5b506102ff61035c366004611f98565b610971565b34801561036d57600080fd5b506102ff6109a9565b34801561038257600080fd5b5061038b6109f0565b604051610228919061203b565b3480156103a457600080fd5b506102ff6103b3366004611f7b565b610c0f565b3480156103c457600080fd5b506102736103d336600461215f565b610cc9565b3480156103e457600080fd5b506102466040518060400160405280600381526020016218171960e91b81525081565b34801561041357600080fd5b50610273610422366004612227565b610ff7565b34801561043357600080fd5b506102ff610442366004612393565b61151f565b34801561045357600080fd5b50600854610273906001600160a01b031681565b34801561047357600080fd5b506006546001600160a01b0316610273565b34801561049157600080fd5b506102ff6104a036600461242b565b611a27565b3480156104b157600080fd5b50600254610273906001600160a01b031681565b3480156104d157600080fd5b5061021c6104e0366004611f98565b611b12565b3480156104f157600080fd5b506102d160008051602061285f83398151915281565b34801561051357600080fd5b506102d1600081565b34801561052857600080fd5b5060055461021c90600160a01b900460ff1681565b34801561054957600080fd5b50600454610273906001600160a01b031681565b34801561056957600080fd5b506102ff610578366004611f98565b611b3d565b34801561058957600080fd5b50600554610273906001600160a01b031681565b3480156105a957600080fd5b506102ff6105b836600461242b565b611b63565b60006001600160e01b03198216637965db0b60e01b14806105ee57506301ffc9a760e01b6001600160e01b03198316145b92915050565b600f8054610601906124dd565b80601f016020809104026020016040519081016040528092919081815260200182805461062d906124dd565b801561067a5780601f1061064f5761010080835404028352916020019161067a565b820191906000526020600020905b81548152906001019060200180831161065d57829003601f168201915b505050505081565b6060600f8054610691906124dd565b80601f01602080910402602001604051908101604052809291908181526020018280546106bd906124dd565b801561070a5780601f106106df5761010080835404028352916020019161070a565b820191906000526020600020905b8154815290600101906020018083116106ed57829003601f168201915b5050505050905090565b60008051602061285f83398151915261072c81611cf3565b600554600160a01b900460ff161561078b5760405162461bcd60e51b815260206004820181905260248201527f576f726c64305f323a20776f726c6420616c726561647920757067726164656460448201526064015b60405180910390fd5b6005805460ff60a01b1916600160a01b179055600254604051638f51aa6d60e01b81526001600160a01b0390911690638f51aa6d906107d09086908690600401612517565b600060405180830381600087803b1580156107ea57600080fd5b505af11580156107fe573d6000803e3d6000fd5b50505050505050565b6002546001600160a01b031661085f5760405162461bcd60e51b815260206004820152601f60248201527f576f726c64305f323a20776f726c645265676973747279206e6f7420736574006044820152606401610782565b6002546001600160a01b031633146108b95760405162461bcd60e51b815260206004820181905260248201527f576f726c64305f323a2063616c6c6572206973206e6f742072656769737472796044820152606401610782565b6005805460ff60a01b1916600160a01b17905547801561090b576040516001600160a01b0383169082156108fc029083906000818181858888f19350505050158015610909573d6000803e3d6000fd5b505b6040516001600160a01b0383169030907ff1fe458d696ab302f212b76fb0e63c85d19c1bcb4c3e61d3a4470e76d136321890600090a35050565b6000828152600160208190526040909120015461096181611cf3565b61096b8383611cfd565b50505050565b6001600160a01b038116331461099a5760405163334bd91960e11b815260040160405180910390fd5b6109a48282611d76565b505050565b60006109b481611cf3565b600880546001600160a01b03191690556040517fd6bb5977e74678fe79d7effa6d93a6e996630cf696c32a815b00fda893b87b5a90600090a150565b610a296040518060c001604052806060815260200160608152602001606081526020016000815260200160008152602001600081525090565b60096040518060c0016040529081600082018054610a46906124dd565b80601f0160208091040260200160405190810160405280929190818152602001828054610a72906124dd565b8015610abf5780601f10610a9457610100808354040283529160200191610abf565b820191906000526020600020905b815481529060010190602001808311610aa257829003601f168201915b50505050508152602001600182018054610ad8906124dd565b80601f0160208091040260200160405190810160405280929190818152602001828054610b04906124dd565b8015610b515780601f10610b2657610100808354040283529160200191610b51565b820191906000526020600020905b815481529060010190602001808311610b3457829003601f168201915b50505050508152602001600282018054610b6a906124dd565b80601f0160208091040260200160405190810160405280929190818152602001828054610b96906124dd565b8015610be35780601f10610bb857610100808354040283529160200191610be3565b820191906000526020600020905b815481529060010190602001808311610bc657829003601f168201915b505050505081526020016003820154815260200160048201548152602001600582015481525050905090565b6000610c1a81611cf3565b6001600160a01b038216610c7e5760405162461bcd60e51b815260206004820152602560248201527f576f726c64305f323a20686f6f6b2063616e6e6f74206265207a65726f206164604482015264647265737360d81b6064820152608401610782565b600880546001600160a01b0319166001600160a01b0384169081179091556040517f2e0d4a0d6b6807573b280bc3dd0c83d52c5115e86a427cc6506e9a040f64b47790600090a25050565b6000610ce360008051602061285f83398151915233611b12565b610d2f5760405162461bcd60e51b815260206004820152601e60248201527f576f726c64305f323a2063616c6c6572206973206e6f74207369676e657200006044820152606401610782565b610d37611de3565b60208201516001600160a01b0316610da75760405162461bcd60e51b815260206004820152602d60248201527f576f726c64305f323a20617661746172206f776e65722063616e6e6f7420626560448201526c207a65726f206164647265737360981b6064820152608401610782565b600082606001515111610e0e5760405162461bcd60e51b815260206004820152602960248201527f576f726c64305f323a2061766174617220757365726e616d652063616e6e6f7460448201526820626520656d70747960b81b6064820152608401610782565b6008546001600160a01b031615610ef257600854604051633e6ff77160e21b81526001600160a01b039091169063f9bfddc490610e4f908590600401612546565b6020604051808303816000875af1158015610e6e573d6000803e3d6000fd5b505050506040513d601f19601f82011682018060405250810190610e9291906125b6565b610ef25760405162461bcd60e51b815260206004820152602b60248201527f576f726c64305f323a20686f6f6b2072656a656374656420617661746172207260448201526a32b3b4b9ba3930ba34b7b760a91b6064820152608401610782565b6005546040805160a0810182528451151581526020808601516001600160a01b03908116918301919091528583015181168284015260608087015190830152608080870151908301529151634d575f3d60e01b81529190921691634d575f3d91610f5f9190600401612546565b6020604051808303816000875af1158015610f7e573d6000803e3d6000fd5b505050506040513d601f19601f82011682018060405250810190610fa291906125d3565b905081604001516001600160a01b0316816001600160a01b03167f0ada65c939d4c317368a1a88ef5f00697bfe4e748e24d6722c1a0d04c26a4b8660405160405180910390a3610ff26001600055565b919050565b600061101160008051602061285f83398151915233611b12565b61105d5760405162461bcd60e51b815260206004820152601e60248201527f576f726c64305f323a2063616c6c6572206973206e6f74207369676e657200006044820152606401610782565b611065611de3565b81516001600160a01b03166110d35760405162461bcd60e51b815260206004820152602e60248201527f576f726c64305f323a20636f6d70616e79206f776e65722063616e6e6f74206260448201526d65207a65726f206164647265737360901b6064820152608401610782565b6000826020015151116111375760405162461bcd60e51b815260206004820152602660248201527f576f726c64305f323a20636f6d70616e79206e616d652063616e6e6f7420626560448201526520656d70747960d01b6064820152608401610782565b6008546001600160a01b03161561121c576008546040516391c74e9560e01b81526001600160a01b03909116906391c74e95906111789085906004016125f0565b6020604051808303816000875af1158015611197573d6000803e3d6000fd5b505050506040513d601f19601f820116820180604052508101906111bb91906125b6565b61121c5760405162461bcd60e51b815260206004820152602c60248201527f576f726c64305f323a20686f6f6b2072656a656374656420636f6d70616e792060448201526b3932b3b4b9ba3930ba34b7b760a11b6064820152608401610782565b60106000815461122b9061263b565b9190508190555060006040518060c001604052806009600001805461124f906124dd565b80601f016020809104026020016040519081016040528092919081815260200182805461127b906124dd565b80156112c85780601f1061129d576101008083540402835291602001916112c8565b820191906000526020600020905b8154815290600101906020018083116112ab57829003601f168201915b50505050508152602001600960010180546112e2906124dd565b80601f016020809104026020016040519081016040528092919081815260200182805461130e906124dd565b801561135b5780601f106113305761010080835404028352916020019161135b565b820191906000526020600020905b81548152906001019060200180831161133e57829003601f168201915b5050505050815260200160096002018054611375906124dd565b80601f01602080910402602001604051908101604052809291908181526020018280546113a1906124dd565b80156113ee5780601f106113c3576101008083540402835291602001916113ee565b820191906000526020600020905b8154815290600101906020018083116113d157829003601f168201915b505050505081526020016009600301548152602001601054815260200160008152509050600460009054906101000a90046001600160a01b03166001600160a01b031663cb70d6c4604051806080016040528086600001516001600160a01b031681526020018481526020018660400151815260200186602001518152506040518263ffffffff1660e01b81526004016114889190612662565b6020604051808303816000875af11580156114a7573d6000803e3d6000fd5b505050506040513d601f19601f820116820180604052508101906114cb91906125d3565b9150816001600160a01b03167f3ae5cc94bcf37dd89d282cbe7f9842a176a101aa41ce7af3ed66fa58a2466c6282856020015160405161150c9291906126cc565b60405180910390a250610ff26001600055565b6003546001600160a01b03166115775760405162461bcd60e51b815260206004820152601e60248201527f576f726c64305f323a20776f726c64466163746f7279206e6f742073657400006044820152606401610782565b6003546001600160a01b031633146115d15760405162461bcd60e51b815260206004820152601f60248201527f576f726c64305f323a2063616c6c6572206973206e6f7420666163746f7279006044820152606401610782565b80516001600160a01b03166116375760405162461bcd60e51b815260206004820152602660248201527f576f726c64305f323a206f776e65722063616e6e6f74206265207a65726f206160448201526564647265737360d01b6064820152608401610782565b6040810151515160000361169b5760405162461bcd60e51b815260206004820152602560248201527f576f726c64305f323a2062617365566563746f722e782063616e6e6f74206265604482015264207a65726f60d81b6064820152608401610782565b806040015160200151516000036117025760405162461bcd60e51b815260206004820152602560248201527f576f726c64305f323a2062617365566563746f722e792063616e6e6f74206265604482015264207a65726f60d81b6064820152608401610782565b806040015160400151516000036117695760405162461bcd60e51b815260206004820152602560248201527f576f726c64305f323a2062617365566563746f722e7a2063616e6e6f74206265604482015264207a65726f60d81b6064820152608401610782565b604081015160800151156117cb5760405162461bcd60e51b815260206004820152602360248201527f576f726c64305f323a2062617365566563746f722e70206d757374206265207a60448201526265726f60e81b6064820152608401610782565b604081015160a00151156118315760405162461bcd60e51b815260206004820152602760248201527f576f726c64305f323a2062617365566563746f722e705f737562206d757374206044820152666265207a65726f60c81b6064820152608401610782565b6000816060015151116118865760405162461bcd60e51b815260206004820152601e60248201527f576f726c64305f323a206e616d652063616e6e6f7420626520656d70747900006044820152606401610782565b8051600680546001600160a01b0319166001600160a01b039092169190911790556040810151805160099081906118bd9082612741565b50602082015160018201906118d29082612741565b50604082015160028201906118e79082612741565b5060608281015160038301556080830151600483015560a090920151600590910155810151600f906119199082612741565b50600060108190556020820151600780546001600160a01b0319166001600160a01b03928316179055600654611950929116611cfd565b506006546119769060008051602061285f833981519152906001600160a01b0316611cfd565b5060208101516001600160a01b031615611a2457600081602001516001600160a01b031663893d20e86040518163ffffffff1660e01b8152600401602060405180830381865afa1580156119ce573d6000803e3d6000fd5b505050506040513d601f19601f820116820180604052508101906119f291906125d3565b6006549091506001600160a01b03808316911614611a22576109a460008051602061285f83398151915282611cfd565b505b50565b6000611a3281611cf3565b60005b82518110156109a45760006001600160a01b0316838281518110611a5b57611a5b612801565b60200260200101516001600160a01b031603611a895760405162461bcd60e51b815260040161078290612817565b611aba60008051602061285f833981519152848381518110611aad57611aad612801565b6020026020010151611d76565b50828181518110611acd57611acd612801565b60200260200101516001600160a01b03167f3525e22824a8a7df2c9a6029941c824cf95b6447f1e13d5128fd3826d35afe8b60405160405180910390a2600101611a35565b60009182526001602090815260408084206001600160a01b0393909316845291905290205460ff1690565b60008281526001602081905260409091200154611b5981611cf3565b61096b8383611d76565b6000611b6e81611cf3565b600554600160a01b900460ff1615611bc85760405162461bcd60e51b815260206004820181905260248201527f576f726c64305f323a20776f726c6420616c72656164792075706772616465646044820152606401610782565b60005b82518110156109a45760006001600160a01b0316838281518110611bf157611bf1612801565b60200260200101516001600160a01b031603611c1f5760405162461bcd60e51b815260040161078290612817565b611c5060008051602061285f833981519152848381518110611c4357611c43612801565b6020026020010151611cfd565b611c9c5760405162461bcd60e51b815260206004820152601c60248201527f576f726c64305f323a207369676e657220726f6c65206661696c6564000000006044820152606401610782565b828181518110611cae57611cae612801565b60200260200101516001600160a01b03167f47d1c22a25bb3a5d4e481b9b1e6944c2eade3181a0a20b495ed61d35b5323f2460405160405180910390a2600101611bcb565b611a248133611e0d565b6000611d098383611b12565b611d6e5760008381526001602081815260408084206001600160a01b0387168086529252808420805460ff19169093179092559051339286917f2f8788117e7eff1d82e926ec794901d17c78024a50270940304540a733656f0d9190a45060016105ee565b5060006105ee565b6000611d828383611b12565b15611d6e5760008381526001602090815260408083206001600160a01b0386168085529252808320805460ff1916905551339286917ff6391f5c32d9c69d2a47ea670b442974b53935d1edc7fd64eb21e047a839171b9190a45060016105ee565b600260005403611e0657604051633ee5aeb560e01b815260040160405180910390fd5b6002600055565b611e178282611b12565b611a225760405163e2517d3f60e01b81526001600160a01b038216600482015260248101839052604401610782565b600060208284031215611e5857600080fd5b81356001600160e01b031981168114611e7057600080fd5b9392505050565b6000815180845260005b81811015611e9d57602081850181015186830182015201611e81565b506000602082860101526020601f19601f83011685010191505092915050565b602081526000611e706020830184611e77565b600060208284031215611ee257600080fd5b5035919050565b60008060208385031215611efc57600080fd5b823567ffffffffffffffff80821115611f1457600080fd5b818501915085601f830112611f2857600080fd5b813581811115611f3757600080fd5b866020828501011115611f4957600080fd5b60209290920196919550909350505050565b6001600160a01b0381168114611a2457600080fd5b8035610ff281611f5b565b600060208284031215611f8d57600080fd5b8135611e7081611f5b565b60008060408385031215611fab57600080fd5b823591506020830135611fbd81611f5b565b809150509250929050565b6000815160c08452611fdd60c0850182611e77565b905060208301518482036020860152611ff68282611e77565b915050604083015184820360408601526120108282611e77565b915050606083015160608501526080830151608085015260a083015160a08501528091505092915050565b602081526000611e706020830184611fc8565b634e487b7160e01b600052604160045260246000fd5b60405160a0810167ffffffffffffffff811182821017156120875761208761204e565b60405290565b60405160c0810167ffffffffffffffff811182821017156120875761208761204e565b604051601f8201601f1916810167ffffffffffffffff811182821017156120d9576120d961204e565b604052919050565b8015158114611a2457600080fd5b600082601f83011261210057600080fd5b813567ffffffffffffffff81111561211a5761211a61204e565b61212d601f8201601f19166020016120b0565b81815284602083860101111561214257600080fd5b816020850160208301376000918101602001919091529392505050565b60006020828403121561217157600080fd5b813567ffffffffffffffff8082111561218957600080fd5b9083019060a0828603121561219d57600080fd5b6121a5612064565b82356121b0816120e1565b815260208301356121c081611f5b565b60208201526121d160408401611f70565b60408201526060830135828111156121e857600080fd5b6121f4878286016120ef565b60608301525060808301358281111561220c57600080fd5b612218878286016120ef565b60808301525095945050505050565b60006020828403121561223957600080fd5b813567ffffffffffffffff8082111561225157600080fd5b908301906060828603121561226557600080fd5b6040516060810181811083821117156122805761228061204e565b604052823561228e81611f5b565b81526020830135828111156122a257600080fd5b6122ae878286016120ef565b6020830152506040830135828111156122c657600080fd5b6122d2878286016120ef565b60408301525095945050505050565b600060c082840312156122f357600080fd5b6122fb61208d565b9050813567ffffffffffffffff8082111561231557600080fd5b612321858386016120ef565b8352602084013591508082111561233757600080fd5b612343858386016120ef565b6020840152604084013591508082111561235c57600080fd5b50612369848285016120ef565b604083015250606082013560608201526080820135608082015260a082013560a082015292915050565b6000602082840312156123a557600080fd5b813567ffffffffffffffff808211156123bd57600080fd5b9083019060a082860312156123d157600080fd5b6123d9612064565b6123e283611f70565b81526123f060208401611f70565b602082015260408301358281111561240757600080fd5b612413878286016122e1565b6040830152506060830135828111156121e857600080fd5b6000602080838503121561243e57600080fd5b823567ffffffffffffffff8082111561245657600080fd5b818501915085601f83011261246a57600080fd5b81358181111561247c5761247c61204e565b8060051b915061248d8483016120b0565b81815291830184019184810190888411156124a757600080fd5b938501935b838510156124d157843592506124c183611f5b565b82825293850193908501906124ac565b98975050505050505050565b600181811c908216806124f157607f821691505b60208210810361251157634e487b7160e01b600052602260045260246000fd5b50919050565b60208152816020820152818360408301376000818301604090810191909152601f909201601f19160101919050565b602081528151151560208201526000602083015160018060a01b0380821660408501528060408601511660608501525050606083015160a0608084015261259060c0840182611e77565b90506080840151601f198483030160a08501526125ad8282611e77565b95945050505050565b6000602082840312156125c857600080fd5b8151611e70816120e1565b6000602082840312156125e557600080fd5b8151611e7081611f5b565b602080825282516001600160a01b0316828201528201516060604083015260009061261e6080840182611e77565b90506040840151601f198483030160608501526125ad8282611e77565b60006001820161265b57634e487b7160e01b600052601160045260246000fd5b5060010190565b602080825282516001600160a01b0316828201528201516080604083015260009061269060a0840182611fc8565b90506040840151601f19808584030160608601526126ae8383611e77565b92506060860151915080858403016080860152506125ad8282611e77565b6040815260006126df6040830185611fc8565b82810360208401526125ad8185611e77565b601f8211156109a4576000816000526020600020601f850160051c8101602086101561271a5750805b601f850160051c820191505b8181101561273957828155600101612726565b505050505050565b815167ffffffffffffffff81111561275b5761275b61204e565b61276f8161276984546124dd565b846126f1565b602080601f8311600181146127a4576000841561278c5750858301515b600019600386901b1c1916600185901b178555612739565b600085815260208120601f198616915b828110156127d3578886015182559484019460019091019084016127b4565b50858210156127f15787850151600019600388901b60f8161c191681555b5050505050600190811b01905550565b634e487b7160e01b600052603260045260246000fd5b60208082526027908201527f576f726c64305f323a207369676e65722063616e6e6f74206265207a65726f206040820152666164647265737360c81b60608201526080019056fee2f4eaae4a9751e85a3e4a7b9587827a877f29914755229b07a7b2da98285f70a264697066735822122051f65c5e7cbea469188f25b6300870319f904ecbf24a7ec36af5991f244bb17064736f6c63430008180033",
  "linkReferences": {},
  "deployedLinkReferences": {}
}