{
  "_format": "hh-sol-artifact-1",
  "contractName": "WorldRegistrationExt",
  "sourceName": "contracts/extensions/registry/world/WorldRegistrationExt.sol",
  "abi": [
    {
      "anonymous": false,
      "inputs": [
        {
          "indexed": true,
          "internalType": "address",
          "name": "entity",
          "type": "address"
        },
        {
          "indexed": true,
          "internalType": "address",
          "name": "owner",
          "type": "address"
        }
      ],
      "name": "RegistryAddedEntity",
      "type": "event"
    },
    {
      "anonymous": false,
      "inputs": [
        {
          "indexed": true,
          "internalType": "address",
          "name": "old",
          "type": "address"
        },
        {
          "indexed": false,
          "internalType": "address",
          "name": "newVersion",
          "type": "address"
        }
      ],
      "name": "RegistryUpgradedEntity",
      "type": "event"
    },
    {
      "inputs": [
        {
          "components": [
            {
              "internalType": "address",
              "name": "entity",
              "type": "address"
            },
            {
              "internalType": "bytes",
              "name": "entitySignature",
              "type": "bytes"
            },
            {
              "internalType": "uint256",
              "name": "expiration",
              "type": "uint256"
            },
            {
              "components": [
                {
                  "internalType": "uint16",
                  "name": "coveragePeriodDays",
                  "type": "uint16"
                },
                {
                  "internalType": "uint16",
                  "name": "gracePeriodDays",
                  "type": "uint16"
                },
                {
                  "internalType": "uint256",
                  "name": "fee",
                  "type": "uint256"
                }
              ],
              "internalType": "struct RegistrationTerms",
              "name": "terms",
              "type": "tuple"
            }
          ],
          "internalType": "struct ChangeEntityTermsArgs",
          "name": "args",
          "type": "tuple"
        }
      ],
      "name": "changeEntityTerms",
      "outputs": [],
      "stateMutability": "nonpayable",
      "type": "function"
    },
    {
      "inputs": [
        {
          "components": [
            {
              "internalType": "bool",
              "name": "sendTokensToOwner",
              "type": "bool"
            },
            {
              "internalType": "address",
              "name": "owner",
              "type": "address"
            },
            {
              "internalType": "string",
              "name": "name",
              "type": "string"
            },
            {
              "components": [
                {
                  "internalType": "uint16",
                  "name": "coveragePeriodDays",
                  "type": "uint16"
                },
                {
                  "internalType": "uint16",
                  "name": "gracePeriodDays",
                  "type": "uint16"
                },
                {
                  "internalType": "uint256",
                  "name": "fee",
                  "type": "uint256"
                }
              ],
              "internalType": "struct RegistrationTerms",
              "name": "terms",
              "type": "tuple"
            },
            {
              "components": [
                {
                  "internalType": "string",
                  "name": "x",
                  "type": "string"
                },
                {
                  "internalType": "string",
                  "name": "y",
                  "type": "string"
                },
                {
                  "internalType": "string",
                  "name": "z",
                  "type": "string"
                },
                {
                  "internalType": "uint256",
                  "name": "t",
                  "type": "uint256"
                },
                {
                  "internalType": "uint256",
                  "name": "p",
                  "type": "uint256"
                },
                {
                  "internalType": "uint256",
                  "name": "p_sub",
                  "type": "uint256"
                }
              ],
              "internalType": "struct VectorAddress",
              "name": "vector",
              "type": "tuple"
            },
            {
              "internalType": "bytes",
              "name": "initData",
              "type": "bytes"
            },
            {
              "internalType": "bytes",
              "name": "ownerTermsSignature",
              "type": "bytes"
            },
            {
              "internalType": "uint256",
              "name": "expiration",
              "type": "uint256"
            }
          ],
          "internalType": "struct CreateWorldArgs",
          "name": "args",
          "type": "tuple"
        }
      ],
      "name": "createWorld",
      "outputs": [
        {
          "internalType": "address",
          "name": "",
          "type": "address"
        }
      ],
      "stateMutability": "payable",
      "type": "function"
    },
    {
      "inputs": [
        {
          "internalType": "string",
          "name": "name",
          "type": "string"
        }
      ],
      "name": "getEntityByName",
      "outputs": [
        {
          "internalType": "address",
          "name": "",
          "type": "address"
        }
      ],
      "stateMutability": "view",
      "type": "function"
    },
    {
      "inputs": [
        {
          "components": [
            {
              "internalType": "string",
              "name": "x",
              "type": "string"
            },
            {
              "internalType": "string",
              "name": "y",
              "type": "string"
            },
            {
              "internalType": "string",
              "name": "z",
              "type": "string"
            },
            {
              "internalType": "uint256",
              "name": "t",
              "type": "uint256"
            },
            {
              "internalType": "uint256",
              "name": "p",
              "type": "uint256"
            },
            {
              "internalType": "uint256",
              "name": "p_sub",
              "type": "uint256"
            }
          ],
          "internalType": "struct VectorAddress",
          "name": "vector",
          "type": "tuple"
        }
      ],
      "name": "getEntityByVector",
      "outputs": [
        {
          "internalType": "address",
          "name": "",
          "type": "address"
        }
      ],
      "stateMutability": "view",
      "type": "function"
    },
    {
      "inputs": [
        {
          "components": [
            {
              "internalType": "address",
              "name": "owner",
              "type": "address"
            },
            {
              "internalType": "address",
              "name": "owningRegistry",
              "type": "address"
            },
            {
              "internalType": "address[]",
              "name": "admins",
              "type": "address[]"
            }
          ],
          "internalType": "struct ExtensionInitArgs",
          "name": "args",
          "type": "tuple"
        }
      ],
      "name": "initStorage",
      "outputs": [],
      "stateMutability": "nonpayable",
      "type": "function"
    },
    {
      "inputs": [
        {
          "internalType": "address",
          "name": "myAddress",
          "type": "address"
        }
      ],
      "name": "install",
      "outputs": [],
      "stateMutability": "nonpayable",
      "type": "function"
    },
    {
      "inputs": [
        {
          "internalType": "address",
          "name": "addr",
          "type": "address"
        }
      ],
      "name": "isRegistered",
      "outputs": [
        {
          "internalType": "bool",
          "name": "",
          "type": "bool"
        }
      ],
      "stateMutability": "view",
      "type": "function"
    },
    {
      "inputs": [],
      "name": "metadata",
      "outputs": [
        {
          "components": [
            {
              "internalType": "string",
              "name": "name",
              "type": "string"
            },
            {
              "components": [
                {
                  "internalType": "uint16",
                  "name": "major",
                  "type": "uint16"
                },
                {
                  "internalType": "uint16",
                  "name": "minor",
                  "type": "uint16"
                }
              ],
              "internalType": "struct Version",
              "name": "version",
              "type": "tuple"
            }
          ],
          "internalType": "struct ExtensionMetadata",
          "name": "",
          "type": "tuple"
        }
      ],
      "stateMutability": "pure",
      "type": "function"
    },
    {
      "inputs": [],
      "name": "register",
      "outputs": [],
      "stateMutability": "nonpayable",
      "type": "function"
    },
    {
      "inputs": [
        {
          "internalType": "address",
          "name": "myAddress",
          "type": "address"
        }
      ],
      "name": "upgrade",
      "outputs": [],
      "stateMutability": "nonpayable",
      "type": "function"
    }
  ],
  "bytecode": "0x608060405234801561001057600080fd5b50611aa8806100206000396000f3fe6080604052600436106100915760003560e01c80634d4965f3116100595780634d4965f31461014e578063729963c01461016e578063c3c5a54714610189578063c747e47e146101b9578063c9affa47146101d957600080fd5b80630900f010146100965780631aa3a008146100b65780632a1b8f9b146100cb578063392f37e9146100eb5780633e88a4e214610116575b600080fd5b3480156100a257600080fd5b506100b46100b1366004611098565b50565b005b3480156100c257600080fd5b506100b46101ec565b3480156100d757600080fd5b506100b46100e6366004611098565b610270565b3480156100f757600080fd5b506101006104f9565b60405161010d9190611102565b60405180910390f35b34801561012257600080fd5b50610136610131366004611147565b610553565b6040516001600160a01b03909116815260200161010d565b34801561015a57600080fd5b506100b46101693660046111d1565b6105d9565b34801561017a57600080fd5b506100b46100b136600461120e565b34801561019557600080fd5b506101a96101a4366004611098565b610643565b604051901515815260200161010d565b3480156101c557600080fd5b506101366101d43660046111d1565b6106c2565b6101366101e7366004611249565b61073d565b6101f533610643565b61026e576040805162461bcd60e51b81526020600482015260248101919091527f526567697374726174696f6e4578743a206f6e6c79207265676973746572656460448201527f20656e7469746965732063616e2063616c6c20746869732066756e6374696f6e60648201526084015b60405180910390fd5b565b60408051600480825260a08201909252600091816020015b6040805180820190915260008152606060208201528152602001906001900390816102885790505090506040518060400160405280633e88a4e260e01b6001600160e01b03191681526020016040518060400160405280601781526020017f676574456e7469747942794e616d6528737472696e6729000000000000000000815250815250816000815181106103205761032061129b565b60200260200101819052506040518060400160405280634d4965f360e01b6001600160e01b03191681526020016040518060600160405280602c8152602001611a47602c91398152508160018151811061037c5761037c61129b565b6020026020010181905250604051806040016040528063c3c5a54760e01b6001600160e01b03191681526020016040518060400160405280601581526020017469735265676973746572656428616464726573732960581b815250815250816002815181106103ed576103ed61129b565b6020026020010181905250604051806040016040528063c9affa4760e01b6001600160e01b03191681526020016040518060400160405280601d81526020017f637265617465576f726c6428437265617465456e746974794172677329000000815250815250816003815181106104665761046661129b565b602002602001018190525073__$307c3a572bdf5d9800a89b3fc2eb3d5604$__63964d13f06040518060400160405280856001600160a01b03168152602001848152506040518263ffffffff1660e01b81526004016104c591906112b1565b60006040518083038186803b1580156104dd57600080fd5b505af41580156104f1573d6000803e3d6000fd5b505050505050565b610501611047565b506040805160808101825260148183019081527315dbdc9b19149959da5cdd1c985d1a5bdb915e1d60621b60608301528152815180830190925260018252600060208381019190915281019190915290565b604051631f44527160e11b815260009073__$d81eab81c4f96e94de97b51155a369ac43$__90633e88a4e29061058f9086908690600401611374565b602060405180830381865af41580156105ac573d6000803e3d6000fd5b505050506040513d601f19601f820116820180604052508101906105d09190611388565b90505b92915050565b604051630bca13f760e41b815273__$d81eab81c4f96e94de97b51155a369ac43$__9063bca13f7090610610908490600401611404565b60006040518083038186803b15801561062857600080fd5b505af415801561063c573d6000803e3d6000fd5b5050505050565b60405163c3c5a54760e01b81526001600160a01b038216600482015260009073__$d81eab81c4f96e94de97b51155a369ac43$__9063c3c5a54790602401602060405180830381865af415801561069e573d6000803e3d6000fd5b505050506040513d601f19601f820116820180604052508101906105d391906114a1565b6040516332ef671360e21b815260009073__$d81eab81c4f96e94de97b51155a369ac43$__9063cbbd9c4c906106fc9085906004016114be565b602060405180830381865af4158015610719573d6000803e3d6000fd5b505050506040513d601f19601f820116820180604052508101906105d39190611388565b6000306001600160a01b031663dbdc4e626040518163ffffffff1660e01b8152600401602060405180830381865afa15801561077d573d6000803e3d6000fd5b505050506040513d601f19601f820116820180604052508101906107a19190611388565b60405163c3c5a54760e01b81523360048201526001600160a01b03919091169063c3c5a54790602401602060405180830381865afa1580156107e7573d6000803e3d6000fd5b505050506040513d601f19601f8201168201806040525081019061080b91906114a1565b61087d5760405162461bcd60e51b815260206004820152603a60248201527f576f726c64526567697374726174696f6e4578743a2063616c6c65722069732060448201527f6e6f7420612072656769737465726564207265676973747261720000000000006064820152608401610265565b336001600160a01b0316634f05c1c86040518163ffffffff1660e01b8152600401602060405180830381865afa1580156108bb573d6000803e3d6000fd5b505050506040513d601f19601f820116820180604052508101906108df91906114a1565b61093e5760405162461bcd60e51b815260206004820152602a60248201527f576f726c64526567697374726174696f6e3a20726567697374726172206973206044820152696e6f742061637469766560b01b6064820152608401610265565b600061095060a0840160808501611560565b61ffff16116109d65760405162461bcd60e51b815260206004820152604660248201527f576f726c64526567697374726174696f6e4578743a206772616365207065726960448201527f6f6420726571756972656420666f722072656d6f7661626c65207265676973746064820152653930ba34b7b760d11b608482015260a401610265565b6109e360c083018361157b565b6109ec90611651565b6040516361d9624d60e01b815273__$ad2b23306edd42b5f4873830e307b82d47$__916361d9624d91610a2791906000908190600401611777565b60006040518083038186803b158015610a3f57600080fd5b505af4158015610a53573d6000803e3d6000fd5b5050505060006040518060a00160405280846020016020810190610a779190611098565b6001600160a01b03168152336020820152604001610a9d368690038601606087016117a1565b81526101208501356020820152604001610abb610100860186611809565b8080601f016020809104026020016040519081016040528093929190818152602001838380828437600092019190915250505091525060405163bf52415b60e01b815290915073__$d81eab81c4f96e94de97b51155a369ac43$__9063bf52415b90610b2b908490600401611850565b60006040518083038186803b158015610b4357600080fd5b505af4158015610b57573d6000803e3d6000fd5b505050506000610b65610ef0565b8054909150600090610b7f906001600160a01b0316610f86565b90506001600160a01b038116610be85760405162461bcd60e51b815260206004820152602860248201527f576f726c64526567697374726174696f6e3a20656e7469747920636c6f6e696e60448201526719c819985a5b195960c21b6064820152608401610265565b60006040518060c00160405280876020016020810190610c089190611098565b6001600160a01b03168152602001336001600160a01b03168152602001306001600160a01b03168152602001878060400190610c449190611809565b8080601f016020809104026020016040519081016040528093929190818152602001838380828437600092019190915250505090825250602001610c8b60c089018961157b565b610c9490611651565b8152602001610ca660e0890189611809565b8080601f01602080910402602001604051908101604052809392919081815260200183838082843760009201919091525050509152506040516334d0850960e11b81529091506001600160a01b038316906369a10a1290610d0b9084906004016118c0565b600060405180830381600087803b158015610d2557600080fd5b505af1158015610d39573d6000803e3d6000fd5b5050505060006040518060600160405280846001600160a01b0316815260200188606001803603810190610d6d91906117a1565b8152602001610d7f60c08a018a61157b565b610d8890611651565b905260405163474df87960e01b815290915073__$d81eab81c4f96e94de97b51155a369ac43$__9063474df87990610dc49084906004016119a9565b60006040518083038186803b158015610ddc57600080fd5b505af4158015610df0573d6000803e3d6000fd5b505050506000341115610e9457610e0a6020880188611a08565b15610e5d57610e1f6040880160208901611098565b6001600160a01b03166108fc349081150290604051600060405180830381858888f19350505050158015610e57573d6000803e3d6000fd5b50610e94565b6040516001600160a01b038416903480156108fc02916000818181858888f19350505050158015610e92573d6000803e3d6000fd5b505b610ea46040880160208901611098565b6001600160a01b0316836001600160a01b03167f7377123f9eb561d749cd3a89a83c22035cad6473521acbb981ee1c52d8f0248560405160405180910390a3509093505050505b919050565b60408051808201909152601c81527f78722e656e746974792e666163746f72792e73746f726167652e76310000000060209091015260008060ff610f5560017f8b4ac7cd4466ab0d50fe53a88c5446ca4a450d482bef9ad792e7d9f451497e0f611a25565b604051602001610f6791815260200190565b60408051601f1981840301815291905280516020909101201692915050565b60006001600160a01b038216610ff65760405162461bcd60e51b815260206004820152602f60248201527f4c6962436c6f6e653a20696d706c656d656e746174696f6e2063616e6e6f742060448201526e6265207a65726f206164647265737360881b6064820152608401610265565b60008260601b9050604051733d602d80600a3d3981f3363d3d373d3d3d363d7360601b81528160148201526e5af43d82803e903d91602b57fd5bf360881b60288201526037816000f0949350505050565b60405180604001604052806060815260200161107e6040518060400160405280600061ffff168152602001600061ffff1681525090565b905290565b6001600160a01b03811681146100b157600080fd5b6000602082840312156110aa57600080fd5b81356110b581611083565b9392505050565b6000815180845260005b818110156110e2576020818501810151868301820152016110c6565b506000602082860101526020601f19601f83011685010191505092915050565b60208152600082516060602084015261111e60808401826110bc565b602094850151805161ffff90811660408701529501519094166060909301929092525090919050565b6000806020838503121561115a57600080fd5b823567ffffffffffffffff8082111561117257600080fd5b818501915085601f83011261118657600080fd5b81358181111561119557600080fd5b8660208285010111156111a757600080fd5b60209290920196919550909350505050565b600060c082840312156111cb57600080fd5b50919050565b6000602082840312156111e357600080fd5b813567ffffffffffffffff8111156111fa57600080fd5b611206848285016111b9565b949350505050565b60006020828403121561122057600080fd5b813567ffffffffffffffff81111561123757600080fd5b8201606081850312156110b557600080fd5b60006020828403121561125b57600080fd5b813567ffffffffffffffff81111561127257600080fd5b820161014081850312156110b557600080fd5b634e487b7160e01b600052604160045260246000fd5b634e487b7160e01b600052603260045260246000fd5b602080825282516001600160a01b031682820152828101516040808401819052815160608501819052600093926080600583901b87018101939185019290870190865b8181101561133d57888603607f19018352845180516001600160e01b031916875287015187870185905261132a858801826110bc565b96505093860193918601916001016112f4565b509398975050505050505050565b81835281816020850137506000828201602090810191909152601f909101601f19169091010190565b60208152600061120660208301848661134b565b60006020828403121561139a57600080fd5b81516110b581611083565b6000808335601e198436030181126113bc57600080fd5b830160208101925035905067ffffffffffffffff8111156113dc57600080fd5b8036038213156113eb57600080fd5b9250929050565b803561ffff81168114610eeb57600080fd5b602081526000823561141581611083565b6001600160a01b0316602083810191909152611433908401846113a5565b60c0604085015261144860e08501828461134b565b9150506040840135606084015261ffff80611465606087016113f2565b16608085015280611478608087016113f2565b1660a08501525060a084013560c08401528091505092915050565b80151581146100b157600080fd5b6000602082840312156114b357600080fd5b81516110b581611493565b6020815260006114ce83846113a5565b60c060208501526114e360e08501828461134b565b9150506114f360208501856113a5565b601f198086850301604087015261150b84838561134b565b935061151a60408801886113a5565b93509150808685030160608701525061153483838361134b565b9250505060608401356080840152608084013560a084015260a084013560c08401528091505092915050565b60006020828403121561157257600080fd5b6105d0826113f2565b6000823560be1983360301811261159157600080fd5b9190910192915050565b60405160c0810167ffffffffffffffff811182821017156115be576115be611285565b60405290565b600082601f8301126115d557600080fd5b813567ffffffffffffffff808211156115f0576115f0611285565b604051601f8301601f19908116603f0116810190828211818310171561161857611618611285565b8160405283815286602085880101111561163157600080fd5b836020870160208301376000602085830101528094505050505092915050565b600060c0823603121561166357600080fd5b61166b61159b565b823567ffffffffffffffff8082111561168357600080fd5b61168f368387016115c4565b835260208501359150808211156116a557600080fd5b6116b1368387016115c4565b602084015260408501359150808211156116ca57600080fd5b506116d7368286016115c4565b604083015250606083013560608201526080830135608082015260a083013560a082015280915050919050565b6000815160c0845261171960c08501826110bc565b90506020830151848203602086015261173282826110bc565b9150506040830151848203604086015261174c82826110bc565b915050606083015160608501526080830151608085015260a083015160a08501528091505092915050565b60608152600061178a6060830186611704565b931515602083015250901515604090910152919050565b6000606082840312156117b357600080fd5b6040516060810181811067ffffffffffffffff821117156117d6576117d6611285565b6040526117e2836113f2565b81526117f0602084016113f2565b6020820152604083013560408201528091505092915050565b6000808335601e1984360301811261182057600080fd5b83018035915067ffffffffffffffff82111561183b57600080fd5b6020019150368190038213156113eb57600080fd5b602080825282516001600160a01b0390811683830152838201511660408084019190915280840151805161ffff908116606086015292810151909216608084015281015160a083015260009050606083015160c0830152608083015160e0808401526112066101008401826110bc565b60208152600060018060a01b0380845116602084015280602085015116604084015280604085015116606084015250606083015160c0608084015261190860e08401826110bc565b90506080840151601f19808584030160a0860152815160c0845261192f60c08501826110bc565b90506020830151848203602086015261194882826110bc565b9150506040830151848203604086015261196282826110bc565b915050606083015160608501526080830151608085015260a083015160a085015260a08701519350818682030160c087015261199e81856110bc565b979650505050505050565b602080825282516001600160a01b0316828201528201516000906119ef604084018261ffff80825116835280602083015116602084015250604081015160408301525050565b50604083015160a08084015261120660c0840182611704565b600060208284031215611a1a57600080fd5b81356110b581611493565b818103818111156105d357634e487b7160e01b600052601160045260246000fdfe6368616e6765456e746974795465726d7328616464726573732c526567697374726174696f6e5465726d7329a26469706673582212204153620a4ddb45d57bf68a1e5f004b6717fa6d21da375b62f8cf7500b85057ae64736f6c63430008180033",
  "linkReferences": {
    "contracts/libraries/LibExtensions.sol": {
      "LibExtensions": [
        {
          "length": 20,
          "start": 1171
        }
      ]
    },
    "contracts/libraries/LibRegistration.sol": {
      "LibRegistration": [
        {
          "length": 20,
          "start": 1413
        },
        {
          "length": 20,
          "start": 1544
        },
        {
          "length": 20,
          "start": 1668
        },
        {
          "length": 20,
          "start": 1780
        },
        {
          "length": 20,
          "start": 2851
        },
        {
          "length": 20,
          "start": 3516
        }
      ]
    },
    "contracts/libraries/LibVectorAddress.sol": {
      "LibVectorAddress": [
        {
          "length": 20,
          "start": 2587
        }
      ]
    }
  },
  "deployedLinkReferences": {
    "contracts/libraries/LibExtensions.sol": {
      "LibExtensions": [
        {
          "length": 20,
          "start": 1139
        }
      ]
    },
    "contracts/libraries/LibRegistration.sol": {
      "LibRegistration": [
        {
          "length": 20,
          "start": 1381
        },
        {
          "length": 20,
          "start": 1512
        },
        {
          "length": 20,
          "start": 1636
        },
        {
          "length": 20,
          "start": 1748
        },
        {
          "length": 20,
          "start": 2819
        },
        {
          "length": 20,
          "start": 3484
        }
      ]
    },
    "contracts/libraries/LibVectorAddress.sol": {
      "LibVectorAddress": [
        {
          "length": 20,
          "start": 2555
        }
      ]
    }
  }
}