{
  "_format": "hh-sol-artifact-1",
  "contractName": "WorldRegistrationExt",
  "sourceName": "contracts/extensions/registry/world/WorldRegistrationExt.sol",
  "abi": [
    {
      "inputs": [
        {
          "internalType": "uint256",
          "name": "value",
          "type": "uint256"
        },
        {
          "internalType": "uint256",
          "name": "length",
          "type": "uint256"
        }
      ],
      "name": "StringsInsufficientHexLength",
      "type": "error"
    },
    {
      "anonymous": false,
      "inputs": [
        {
          "indexed": true,
          "internalType": "address",
          "name": "entity",
          "type": "address"
        },
        {
          "indexed": true,
          "internalType": "address",
          "name": "owner",
          "type": "address"
        }
      ],
      "name": "RegistryAddedEntity",
      "type": "event"
    },
    {
      "anonymous": false,
      "inputs": [
        {
          "indexed": true,
          "internalType": "address",
          "name": "old",
          "type": "address"
        },
        {
          "indexed": false,
          "internalType": "address",
          "name": "newVersion",
          "type": "address"
        }
      ],
      "name": "RegistryUpgradedEntity",
      "type": "event"
    },
    {
      "inputs": [
        {
          "components": [
            {
              "internalType": "address",
              "name": "entity",
              "type": "address"
            },
            {
              "internalType": "bytes",
              "name": "entitySignature",
              "type": "bytes"
            },
            {
              "internalType": "uint256",
              "name": "expiration",
              "type": "uint256"
            },
            {
              "components": [
                {
                  "internalType": "uint16",
                  "name": "coveragePeriodDays",
                  "type": "uint16"
                },
                {
                  "internalType": "uint16",
                  "name": "gracePeriodDays",
                  "type": "uint16"
                },
                {
                  "internalType": "uint256",
                  "name": "fee",
                  "type": "uint256"
                }
              ],
              "internalType": "struct RegistrationTerms",
              "name": "terms",
              "type": "tuple"
            }
          ],
          "internalType": "struct ChangeEntityTermsArgs",
          "name": "args",
          "type": "tuple"
        }
      ],
      "name": "changeEntityTerms",
      "outputs": [],
      "stateMutability": "nonpayable",
      "type": "function"
    },
    {
      "inputs": [
        {
          "components": [
            {
              "internalType": "bool",
              "name": "sendTokensToOwner",
              "type": "bool"
            },
            {
              "internalType": "address",
              "name": "owner",
              "type": "address"
            },
            {
              "internalType": "string",
              "name": "name",
              "type": "string"
            },
            {
              "components": [
                {
                  "internalType": "uint16",
                  "name": "coveragePeriodDays",
                  "type": "uint16"
                },
                {
                  "internalType": "uint16",
                  "name": "gracePeriodDays",
                  "type": "uint16"
                },
                {
                  "internalType": "uint256",
                  "name": "fee",
                  "type": "uint256"
                }
              ],
              "internalType": "struct RegistrationTerms",
              "name": "terms",
              "type": "tuple"
            },
            {
              "components": [
                {
                  "internalType": "string",
                  "name": "x",
                  "type": "string"
                },
                {
                  "internalType": "string",
                  "name": "y",
                  "type": "string"
                },
                {
                  "internalType": "string",
                  "name": "z",
                  "type": "string"
                },
                {
                  "internalType": "uint256",
                  "name": "t",
                  "type": "uint256"
                },
                {
                  "internalType": "uint256",
                  "name": "p",
                  "type": "uint256"
                },
                {
                  "internalType": "uint256",
                  "name": "p_sub",
                  "type": "uint256"
                }
              ],
              "internalType": "struct VectorAddress",
              "name": "vector",
              "type": "tuple"
            },
            {
              "internalType": "bytes",
              "name": "initData",
              "type": "bytes"
            },
            {
              "internalType": "bytes",
              "name": "ownerTermsSignature",
              "type": "bytes"
            },
            {
              "internalType": "uint256",
              "name": "expiration",
              "type": "uint256"
            }
          ],
          "internalType": "struct CreateWorldArgs",
          "name": "args",
          "type": "tuple"
        }
      ],
      "name": "createWorld",
      "outputs": [
        {
          "internalType": "address",
          "name": "",
          "type": "address"
        }
      ],
      "stateMutability": "payable",
      "type": "function"
    },
    {
      "inputs": [
        {
          "internalType": "string",
          "name": "name",
          "type": "string"
        }
      ],
      "name": "getEntityByName",
      "outputs": [
        {
          "internalType": "address",
          "name": "",
          "type": "address"
        }
      ],
      "stateMutability": "view",
      "type": "function"
    },
    {
      "inputs": [
        {
          "components": [
            {
              "internalType": "string",
              "name": "x",
              "type": "string"
            },
            {
              "internalType": "string",
              "name": "y",
              "type": "string"
            },
            {
              "internalType": "string",
              "name": "z",
              "type": "string"
            },
            {
              "internalType": "uint256",
              "name": "t",
              "type": "uint256"
            },
            {
              "internalType": "uint256",
              "name": "p",
              "type": "uint256"
            },
            {
              "internalType": "uint256",
              "name": "p_sub",
              "type": "uint256"
            }
          ],
          "internalType": "struct VectorAddress",
          "name": "vector",
          "type": "tuple"
        }
      ],
      "name": "getEntityByVector",
      "outputs": [
        {
          "internalType": "address",
          "name": "",
          "type": "address"
        }
      ],
      "stateMutability": "view",
      "type": "function"
    },
    {
      "inputs": [
        {
          "components": [
            {
              "internalType": "address",
              "name": "owner",
              "type": "address"
            },
            {
              "internalType": "address",
              "name": "owningRegistry",
              "type": "address"
            },
            {
              "internalType": "address[]",
              "name": "admins",
              "type": "address[]"
            }
          ],
          "internalType": "struct ExtensionInitArgs",
          "name": "args",
          "type": "tuple"
        }
      ],
      "name": "initStorage",
      "outputs": [],
      "stateMutability": "nonpayable",
      "type": "function"
    },
    {
      "inputs": [
        {
          "internalType": "address",
          "name": "myAddress",
          "type": "address"
        }
      ],
      "name": "install",
      "outputs": [],
      "stateMutability": "nonpayable",
      "type": "function"
    },
    {
      "inputs": [
        {
          "internalType": "address",
          "name": "addr",
          "type": "address"
        }
      ],
      "name": "isRegistered",
      "outputs": [
        {
          "internalType": "bool",
          "name": "",
          "type": "bool"
        }
      ],
      "stateMutability": "view",
      "type": "function"
    },
    {
      "inputs": [],
      "name": "metadata",
      "outputs": [
        {
          "components": [
            {
              "internalType": "string",
              "name": "name",
              "type": "string"
            },
            {
              "components": [
                {
                  "internalType": "uint16",
                  "name": "major",
                  "type": "uint16"
                },
                {
                  "internalType": "uint16",
                  "name": "minor",
                  "type": "uint16"
                }
              ],
              "internalType": "struct Version",
              "name": "version",
              "type": "tuple"
            }
          ],
          "internalType": "struct ExtensionMetadata",
          "name": "",
          "type": "tuple"
        }
      ],
      "stateMutability": "pure",
      "type": "function"
    },
    {
      "inputs": [],
      "name": "register",
      "outputs": [],
      "stateMutability": "nonpayable",
      "type": "function"
    },
    {
      "inputs": [
        {
          "internalType": "address",
          "name": "myAddress",
          "type": "address"
        }
      ],
      "name": "upgrade",
      "outputs": [],
      "stateMutability": "nonpayable",
      "type": "function"
    }
  ],
  "bytecode": "0x608060405234801561001057600080fd5b50611f43806100206000396000f3fe6080604052600436106100915760003560e01c80634d4965f3116100595780634d4965f31461014e578063729963c01461016e578063c3c5a54714610189578063c747e47e146101b9578063c9affa47146101d957600080fd5b80630900f010146100965780631aa3a008146100b65780632a1b8f9b146100cb578063392f37e9146100eb5780633e88a4e214610116575b600080fd5b3480156100a257600080fd5b506100b46100b13660046113f3565b50565b005b3480156100c257600080fd5b506100b46101ec565b3480156100d757600080fd5b506100b46100e63660046113f3565b610270565b3480156100f757600080fd5b5061010061049b565b60405161010d9190611467565b60405180910390f35b34801561012257600080fd5b506101366101313660046114ac565b6104f5565b6040516001600160a01b03909116815260200161010d565b34801561015a57600080fd5b506100b4610169366004611536565b61057b565b34801561017a57600080fd5b506100b46100b136600461156b565b34801561019557600080fd5b506101a96101a43660046113f3565b6105e5565b604051901515815260200161010d565b3480156101c557600080fd5b506101366101d4366004611536565b610664565b6101366101e73660046115a6565b6106df565b6101f5336105e5565b61026e576040805162461bcd60e51b81526020600482015260248101919091527f526567697374726174696f6e4578743a206f6e6c79207265676973746572656460448201527f20656e7469746965732063616e2063616c6c20746869732066756e6374696f6e60648201526084015b60405180910390fd5b565b60408051600480825260a08201909252600091816020015b6040805180820190915260008152606060208201528152602001906001900390816102885790505090506040518060400160405280633e88a4e260e01b6001600160e01b03191681526020016040518060400160405280601781526020017f676574456e7469747942794e616d6528737472696e672900000000000000000081525081525081600081518110610320576103206115f8565b60200260200101819052506040518060400160405280634d4965f360e01b6001600160e01b03191681526020016040518060600160405280602c8152602001611ee2602c91398152508160018151811061037c5761037c6115f8565b6020026020010181905250604051806040016040528063c3c5a54760e01b6001600160e01b03191681526020016040518060400160405280601581526020017469735265676973746572656428616464726573732960581b815250815250816002815181106103ed576103ed6115f8565b6020026020010181905250604051806040016040528063c9affa4760e01b6001600160e01b03191681526020016040518060400160405280601d81526020017f637265617465576f726c6428437265617465456e74697479417267732900000081525081525081600381518110610466576104666115f8565b60200260200101819052506104976040518060400160405280846001600160a01b0316815260200183815250610e92565b5050565b6104a36113a2565b506040805160808101825260148183019081527315dbdc9b19149959da5cdd1c985d1a5bdb915e1d60621b60608301528152815180830190925260018252600060208381019190915281019190915290565b604051631f44527160e11b815260009073__$d81eab81c4f96e94de97b51155a369ac43$__90633e88a4e2906105319086908690600401611637565b602060405180830381865af415801561054e573d6000803e3d6000fd5b505050506040513d601f19601f82011682018060405250810190610572919061164b565b90505b92915050565b604051630bca13f760e41b815273__$d81eab81c4f96e94de97b51155a369ac43$__9063bca13f70906105b29084906004016116c7565b60006040518083038186803b1580156105ca57600080fd5b505af41580156105de573d6000803e3d6000fd5b5050505050565b60405163c3c5a54760e01b81526001600160a01b038216600482015260009073__$d81eab81c4f96e94de97b51155a369ac43$__9063c3c5a54790602401602060405180830381865af4158015610640573d6000803e3d6000fd5b505050506040513d601f19601f820116820180604052508101906105759190611764565b6040516332ef671360e21b815260009073__$d81eab81c4f96e94de97b51155a369ac43$__9063cbbd9c4c9061069e908590600401611781565b602060405180830381865af41580156106bb573d6000803e3d6000fd5b505050506040513d601f19601f82011682018060405250810190610575919061164b565b6000306001600160a01b031663dbdc4e626040518163ffffffff1660e01b8152600401602060405180830381865afa15801561071f573d6000803e3d6000fd5b505050506040513d601f19601f82011682018060405250810190610743919061164b565b60405163c3c5a54760e01b81523360048201526001600160a01b03919091169063c3c5a54790602401602060405180830381865afa158015610789573d6000803e3d6000fd5b505050506040513d601f19601f820116820180604052508101906107ad9190611764565b61081f5760405162461bcd60e51b815260206004820152603a60248201527f576f726c64526567697374726174696f6e4578743a2063616c6c65722069732060448201527f6e6f7420612072656769737465726564207265676973747261720000000000006064820152608401610265565b336001600160a01b0316634f05c1c86040518163ffffffff1660e01b8152600401602060405180830381865afa15801561085d573d6000803e3d6000fd5b505050506040513d601f19601f820116820180604052508101906108819190611764565b6108e05760405162461bcd60e51b815260206004820152602a60248201527f576f726c64526567697374726174696f6e3a20726567697374726172206973206044820152696e6f742061637469766560b01b6064820152608401610265565b60006108f260a0840160808501611823565b61ffff16116109785760405162461bcd60e51b815260206004820152604660248201527f576f726c64526567697374726174696f6e4578743a206772616365207065726960448201527f6f6420726571756972656420666f722072656d6f7661626c65207265676973746064820152653930ba34b7b760d11b608482015260a401610265565b61098560c083018361183e565b61098e90611914565b6040516361d9624d60e01b815273__$ad2b23306edd42b5f4873830e307b82d47$__916361d9624d916109c991906000908190600401611a3a565b60006040518083038186803b1580156109e157600080fd5b505af41580156109f5573d6000803e3d6000fd5b5050505060006040518060a00160405280846020016020810190610a1991906113f3565b6001600160a01b03168152336020820152604001610a3f36869003860160608701611a64565b81526101208501356020820152604001610a5d610100860186611acc565b8080601f016020809104026020016040519081016040528093929190818152602001838380828437600092019190915250505091525060405163bf52415b60e01b815290915073__$d81eab81c4f96e94de97b51155a369ac43$__9063bf52415b90610acd908490600401611b13565b60006040518083038186803b158015610ae557600080fd5b505af4158015610af9573d6000803e3d6000fd5b505050506000610b07611055565b8054909150600090610b21906001600160a01b03166110eb565b90506001600160a01b038116610b8a5760405162461bcd60e51b815260206004820152602860248201527f576f726c64526567697374726174696f6e3a20656e7469747920636c6f6e696e60448201526719c819985a5b195960c21b6064820152608401610265565b60006040518060c00160405280876020016020810190610baa91906113f3565b6001600160a01b03168152602001336001600160a01b03168152602001306001600160a01b03168152602001878060400190610be69190611acc565b8080601f016020809104026020016040519081016040528093929190818152602001838380828437600092019190915250505090825250602001610c2d60c089018961183e565b610c3690611914565b8152602001610c4860e0890189611acc565b8080601f01602080910402602001604051908101604052809392919081815260200183838082843760009201919091525050509152506040516334d0850960e11b81529091506001600160a01b038316906369a10a1290610cad908490600401611b83565b600060405180830381600087803b158015610cc757600080fd5b505af1158015610cdb573d6000803e3d6000fd5b5050505060006040518060600160405280846001600160a01b0316815260200188606001803603810190610d0f9190611a64565b8152602001610d2160c08a018a61183e565b610d2a90611914565b905260405163474df87960e01b815290915073__$d81eab81c4f96e94de97b51155a369ac43$__9063474df87990610d66908490600401611c6c565b60006040518083038186803b158015610d7e57600080fd5b505af4158015610d92573d6000803e3d6000fd5b505050506000341115610e3657610dac6020880188611ccb565b15610dff57610dc160408801602089016113f3565b6001600160a01b03166108fc349081150290604051600060405180830381858888f19350505050158015610df9573d6000803e3d6000fd5b50610e36565b6040516001600160a01b038416903480156108fc02916000818181858888f19350505050158015610e34573d6000803e3d6000fd5b505b610e4660408801602089016113f3565b6001600160a01b0316836001600160a01b03167f7377123f9eb561d749cd3a89a83c22035cad6473521acbb981ee1c52d8f0248560405160405180910390a3509093505050505b919050565b6000610e9c6111ac565b82516001600160a01b031660009081526020829052604081209192505b83602001515181101561104f57600084602001518281518110610ede57610ede6115f8565b6020908102919091018101518051600486810180546001808201835560009283528683206008830401805463ffffffff600790941690950261010090810a9384021990951660e09690961c9290920294909417905583516001600160e01b0319168152918801909352604090208054919350916001600160a01b0391041615610fd757805461010090046001600160a01b0316600090815260208690526040812087519091906001870190610f9290611211565b602080870151604051610fac949392600188019101611d85565b60405160208183030381529060405290508060405162461bcd60e51b81526004016102659190611e64565b50604080518082018252600180825287516001600160a01b03908116602080850191825295516001600160e01b0319166000908152898401909652939094209151825493516001600160a81b0319909416901515610100600160a81b0319161761010093909416929092029290921790915501610eb9565b50505050565b60408051808201909152601c81527f78722e656e746974792e666163746f72792e73746f726167652e76310000000060209091015260008060ff6110ba60017f8b4ac7cd4466ab0d50fe53a88c5446ca4a450d482bef9ad792e7d9f451497e0f611e8d565b6040516020016110cc91815260200190565b60408051601f1981840301815291905280516020909101201692915050565b60006001600160a01b03821661115b5760405162461bcd60e51b815260206004820152602f60248201527f4c6962436c6f6e653a20696d706c656d656e746174696f6e2063616e6e6f742060448201526e6265207a65726f206164647265737360881b6064820152608401610265565b60008260601b9050604051733d602d80600a3d3981f3363d3d373d3d3d363d7360601b81528160148201526e5af43d82803e903d91602b57fd5bf360881b60288201526037816000f0949350505050565b60408051808201909152601881527f78722e657874656e73696f6e732e73746f726167652e7631000000000000000060209091015260008060ff6110ba60017fb58ec9ca7ba0606d9fecd9f559655d0e5fec418e6751b65b892bccdfd25eb99f611e8d565b60606105756001600160a01b03831660146060826000611232846002611ea0565b61123d906002611eb7565b67ffffffffffffffff811115611255576112556115e2565b6040519080825280601f01601f19166020018201604052801561127f576020820181803683370190505b509050600360fc1b8160008151811061129a5761129a6115f8565b60200101906001600160f81b031916908160001a905350600f60fb1b816001815181106112c9576112c96115f8565b60200101906001600160f81b031916908160001a90535060006112ed856002611ea0565b6112f8906001611eb7565b90505b6001811115611370576f181899199a1a9b1b9c1cb0b131b232b360811b83600f166010811061132c5761132c6115f8565b1a60f81b828281518110611342576113426115f8565b60200101906001600160f81b031916908160001a90535060049290921c9161136981611eca565b90506112fb565b50811561139a5760405163e22e27eb60e01b81526004810186905260248101859052604401610265565b949350505050565b6040518060400160405280606081526020016113d96040518060400160405280600061ffff168152602001600061ffff1681525090565b905290565b6001600160a01b03811681146100b157600080fd5b60006020828403121561140557600080fd5b8135611410816113de565b9392505050565b60005b8381101561143257818101518382015260200161141a565b50506000910152565b60008151808452611453816020860160208601611417565b601f01601f19169290920160200192915050565b602081526000825160606020840152611483608084018261143b565b602094850151805161ffff90811660408701529501519094166060909301929092525090919050565b600080602083850312156114bf57600080fd5b823567ffffffffffffffff808211156114d757600080fd5b818501915085601f8301126114eb57600080fd5b8135818111156114fa57600080fd5b86602082850101111561150c57600080fd5b60209290920196919550909350505050565b600060c0828403121561153057600080fd5b50919050565b60006020828403121561154857600080fd5b813567ffffffffffffffff81111561155f57600080fd5b61139a8482850161151e565b60006020828403121561157d57600080fd5b813567ffffffffffffffff81111561159457600080fd5b82016060818503121561141057600080fd5b6000602082840312156115b857600080fd5b813567ffffffffffffffff8111156115cf57600080fd5b8201610140818503121561141057600080fd5b634e487b7160e01b600052604160045260246000fd5b634e487b7160e01b600052603260045260246000fd5b81835281816020850137506000828201602090810191909152601f909101601f19169091010190565b60208152600061139a60208301848661160e565b60006020828403121561165d57600080fd5b8151611410816113de565b6000808335601e1984360301811261167f57600080fd5b830160208101925035905067ffffffffffffffff81111561169f57600080fd5b8036038213156116ae57600080fd5b9250929050565b803561ffff81168114610e8d57600080fd5b60208152600082356116d8816113de565b6001600160a01b03166020838101919091526116f690840184611668565b60c0604085015261170b60e08501828461160e565b9150506040840135606084015261ffff80611728606087016116b5565b1660808501528061173b608087016116b5565b1660a08501525060a084013560c08401528091505092915050565b80151581146100b157600080fd5b60006020828403121561177657600080fd5b815161141081611756565b6020815260006117918384611668565b60c060208501526117a660e08501828461160e565b9150506117b66020850185611668565b601f19808685030160408701526117ce84838561160e565b93506117dd6040880188611668565b9350915080868503016060870152506117f783838361160e565b9250505060608401356080840152608084013560a084015260a084013560c08401528091505092915050565b60006020828403121561183557600080fd5b610572826116b5565b6000823560be1983360301811261185457600080fd5b9190910192915050565b60405160c0810167ffffffffffffffff81118282101715611881576118816115e2565b60405290565b600082601f83011261189857600080fd5b813567ffffffffffffffff808211156118b3576118b36115e2565b604051601f8301601f19908116603f011681019082821181831017156118db576118db6115e2565b816040528381528660208588010111156118f457600080fd5b836020870160208301376000602085830101528094505050505092915050565b600060c0823603121561192657600080fd5b61192e61185e565b823567ffffffffffffffff8082111561194657600080fd5b61195236838701611887565b8352602085013591508082111561196857600080fd5b61197436838701611887565b6020840152604085013591508082111561198d57600080fd5b5061199a36828601611887565b604083015250606083013560608201526080830135608082015260a083013560a082015280915050919050565b6000815160c084526119dc60c085018261143b565b9050602083015184820360208601526119f5828261143b565b91505060408301518482036040860152611a0f828261143b565b915050606083015160608501526080830151608085015260a083015160a08501528091505092915050565b606081526000611a4d60608301866119c7565b931515602083015250901515604090910152919050565b600060608284031215611a7657600080fd5b6040516060810181811067ffffffffffffffff82111715611a9957611a996115e2565b604052611aa5836116b5565b8152611ab3602084016116b5565b6020820152604083013560408201528091505092915050565b6000808335601e19843603018112611ae357600080fd5b83018035915067ffffffffffffffff821115611afe57600080fd5b6020019150368190038213156116ae57600080fd5b602080825282516001600160a01b0390811683830152838201511660408084019190915280840151805161ffff908116606086015292810151909216608084015281015160a083015260009050606083015160c0830152608083015160e08084015261139a61010084018261143b565b60208152600060018060a01b0380845116602084015280602085015116604084015280604085015116606084015250606083015160c06080840152611bcb60e084018261143b565b90506080840151601f19808584030160a0860152815160c08452611bf260c085018261143b565b905060208301518482036020860152611c0b828261143b565b91505060408301518482036040860152611c25828261143b565b915050606083015160608501526080830151608085015260a083015160a085015260a08701519350818682030160c0870152611c61818561143b565b979650505050505050565b602080825282516001600160a01b031682820152820151600090611cb2604084018261ffff80825116835280602083015116602084015250604081015160408301525050565b50604083015160a08084015261139a60c08401826119c7565b600060208284031215611cdd57600080fd5b813561141081611756565b8054600090600181811c9080831680611d0257607f831692505b60208084108203611d2357634e487b7160e01b600052602260045260246000fd5b818015611d375760018114611d4c57611d79565b60ff1986168952841515850289019650611d79565b60008881526020902060005b86811015611d715781548b820152908501908301611d58565b505084890196505b50505050505092915050565b7f4c6962457874656e73696f6e3a20657874656e73696f6e20000000000000000081526000611db76018830187611ce8565b6c01030ba1030b2323932b9b99d1609d1b81528551611ddd81600d840160208a01611417565b8082019150507f20617474656d7074696e6720746f20726575736520612073656c6563746f723a600d820152600160fd1b80602d8301528551611e2781602e850160208a01611417565b7f2c20776869636820697320616c72656164792072656769737465726564206279602e9390910192830152604e820152611c61604f820185611ce8565b602081526000610572602083018461143b565b634e487b7160e01b600052601160045260246000fd5b8181038181111561057557610575611e77565b808202811582820484141761057557610575611e77565b8082018082111561057557610575611e77565b600081611ed957611ed9611e77565b50600019019056fe6368616e6765456e746974795465726d7328616464726573732c526567697374726174696f6e5465726d7329a26469706673582212209bcc62dca1df6e80c3e0027e4e6ccef6b67f797184d70ec239a72f4fdd551dbe64736f6c63430008180033",
  "linkReferences": {
    "contracts/libraries/LibRegistration.sol": {
      "LibRegistration": [
        {
          "length": 20,
          "start": 1319
        },
        {
          "length": 20,
          "start": 1450
        },
        {
          "length": 20,
          "start": 1574
        },
        {
          "length": 20,
          "start": 1686
        },
        {
          "length": 20,
          "start": 2757
        },
        {
          "length": 20,
          "start": 3422
        }
      ]
    },
    "contracts/libraries/LibVectorAddress.sol": {
      "LibVectorAddress": [
        {
          "length": 20,
          "start": 2493
        }
      ]
    }
  },
  "deployedLinkReferences": {
    "contracts/libraries/LibRegistration.sol": {
      "LibRegistration": [
        {
          "length": 20,
          "start": 1287
        },
        {
          "length": 20,
          "start": 1418
        },
        {
          "length": 20,
          "start": 1542
        },
        {
          "length": 20,
          "start": 1654
        },
        {
          "length": 20,
          "start": 2725
        },
        {
          "length": 20,
          "start": 3390
        }
      ]
    },
    "contracts/libraries/LibVectorAddress.sol": {
      "LibVectorAddress": [
        {
          "length": 20,
          "start": 2461
        }
      ]
    }
  }
}