{
  "_format": "hh-sol-artifact-1",
  "contractName": "WorldFactoryV2",
  "sourceName": "contracts/world/v0.2/WorldFactoryV2.sol",
  "abi": [
    {
      "inputs": [
        {
          "internalType": "address",
          "name": "mainAdmin",
          "type": "address"
        },
        {
          "internalType": "address[]",
          "name": "admins",
          "type": "address[]"
        }
      ],
      "stateMutability": "nonpayable",
      "type": "constructor"
    },
    {
      "inputs": [],
      "name": "AccessControlBadConfirmation",
      "type": "error"
    },
    {
      "inputs": [
        {
          "internalType": "address",
          "name": "account",
          "type": "address"
        },
        {
          "internalType": "bytes32",
          "name": "neededRole",
          "type": "bytes32"
        }
      ],
      "name": "AccessControlUnauthorizedAccount",
      "type": "error"
    },
    {
      "anonymous": false,
      "inputs": [
        {
          "indexed": true,
          "internalType": "address",
          "name": "oldRegistry",
          "type": "address"
        },
        {
          "indexed": true,
          "internalType": "address",
          "name": "newRegistry",
          "type": "address"
        }
      ],
      "name": "AuthorizedRegistryChanged",
      "type": "event"
    },
    {
      "anonymous": false,
      "inputs": [
        {
          "indexed": true,
          "internalType": "bytes32",
          "name": "role",
          "type": "bytes32"
        },
        {
          "indexed": true,
          "internalType": "bytes32",
          "name": "previousAdminRole",
          "type": "bytes32"
        },
        {
          "indexed": true,
          "internalType": "bytes32",
          "name": "newAdminRole",
          "type": "bytes32"
        }
      ],
      "name": "RoleAdminChanged",
      "type": "event"
    },
    {
      "anonymous": false,
      "inputs": [
        {
          "indexed": true,
          "internalType": "bytes32",
          "name": "role",
          "type": "bytes32"
        },
        {
          "indexed": true,
          "internalType": "address",
          "name": "account",
          "type": "address"
        },
        {
          "indexed": true,
          "internalType": "address",
          "name": "sender",
          "type": "address"
        }
      ],
      "name": "RoleGranted",
      "type": "event"
    },
    {
      "anonymous": false,
      "inputs": [
        {
          "indexed": true,
          "internalType": "bytes32",
          "name": "role",
          "type": "bytes32"
        },
        {
          "indexed": true,
          "internalType": "address",
          "name": "account",
          "type": "address"
        },
        {
          "indexed": true,
          "internalType": "address",
          "name": "sender",
          "type": "address"
        }
      ],
      "name": "RoleRevoked",
      "type": "event"
    },
    {
      "inputs": [],
      "name": "ADMIN_ROLE",
      "outputs": [
        {
          "internalType": "bytes32",
          "name": "",
          "type": "bytes32"
        }
      ],
      "stateMutability": "view",
      "type": "function"
    },
    {
      "inputs": [],
      "name": "DEFAULT_ADMIN_ROLE",
      "outputs": [
        {
          "internalType": "bytes32",
          "name": "",
          "type": "bytes32"
        }
      ],
      "stateMutability": "view",
      "type": "function"
    },
    {
      "inputs": [
        {
          "components": [
            {
              "internalType": "address",
              "name": "owner",
              "type": "address"
            },
            {
              "internalType": "address",
              "name": "oldWorld",
              "type": "address"
            },
            {
              "components": [
                {
                  "internalType": "string",
                  "name": "x",
                  "type": "string"
                },
                {
                  "internalType": "string",
                  "name": "y",
                  "type": "string"
                },
                {
                  "internalType": "string",
                  "name": "z",
                  "type": "string"
                },
                {
                  "internalType": "uint256",
                  "name": "t",
                  "type": "uint256"
                },
                {
                  "internalType": "uint256",
                  "name": "p",
                  "type": "uint256"
                },
                {
                  "internalType": "uint256",
                  "name": "p_sub",
                  "type": "uint256"
                }
              ],
              "internalType": "struct VectorAddress",
              "name": "baseVector",
              "type": "tuple"
            },
            {
              "internalType": "string",
              "name": "name",
              "type": "string"
            },
            {
              "internalType": "bytes",
              "name": "initData",
              "type": "bytes"
            }
          ],
          "internalType": "struct WorldCreateRequest",
          "name": "request",
          "type": "tuple"
        }
      ],
      "name": "createWorld",
      "outputs": [
        {
          "internalType": "address",
          "name": "world",
          "type": "address"
        }
      ],
      "stateMutability": "nonpayable",
      "type": "function"
    },
    {
      "inputs": [],
      "name": "getImplementation",
      "outputs": [
        {
          "internalType": "address",
          "name": "",
          "type": "address"
        }
      ],
      "stateMutability": "view",
      "type": "function"
    },
    {
      "inputs": [],
      "name": "getProxyImplementation",
      "outputs": [
        {
          "internalType": "address",
          "name": "",
          "type": "address"
        }
      ],
      "stateMutability": "view",
      "type": "function"
    },
    {
      "inputs": [
        {
          "internalType": "bytes32",
          "name": "role",
          "type": "bytes32"
        }
      ],
      "name": "getRoleAdmin",
      "outputs": [
        {
          "internalType": "bytes32",
          "name": "",
          "type": "bytes32"
        }
      ],
      "stateMutability": "view",
      "type": "function"
    },
    {
      "inputs": [
        {
          "internalType": "bytes32",
          "name": "role",
          "type": "bytes32"
        },
        {
          "internalType": "address",
          "name": "account",
          "type": "address"
        }
      ],
      "name": "grantRole",
      "outputs": [],
      "stateMutability": "nonpayable",
      "type": "function"
    },
    {
      "inputs": [
        {
          "internalType": "bytes32",
          "name": "role",
          "type": "bytes32"
        },
        {
          "internalType": "address",
          "name": "account",
          "type": "address"
        }
      ],
      "name": "hasRole",
      "outputs": [
        {
          "internalType": "bool",
          "name": "",
          "type": "bool"
        }
      ],
      "stateMutability": "view",
      "type": "function"
    },
    {
      "inputs": [
        {
          "internalType": "address",
          "name": "query",
          "type": "address"
        }
      ],
      "name": "isClone",
      "outputs": [
        {
          "internalType": "bool",
          "name": "result",
          "type": "bool"
        }
      ],
      "stateMutability": "view",
      "type": "function"
    },
    {
      "inputs": [
        {
          "internalType": "bytes32",
          "name": "role",
          "type": "bytes32"
        },
        {
          "internalType": "address",
          "name": "callerConfirmation",
          "type": "address"
        }
      ],
      "name": "renounceRole",
      "outputs": [],
      "stateMutability": "nonpayable",
      "type": "function"
    },
    {
      "inputs": [
        {
          "internalType": "bytes32",
          "name": "role",
          "type": "bytes32"
        },
        {
          "internalType": "address",
          "name": "account",
          "type": "address"
        }
      ],
      "name": "revokeRole",
      "outputs": [],
      "stateMutability": "nonpayable",
      "type": "function"
    },
    {
      "inputs": [
        {
          "internalType": "address",
          "name": "_registry",
          "type": "address"
        }
      ],
      "name": "setAuthorizedRegistry",
      "outputs": [],
      "stateMutability": "nonpayable",
      "type": "function"
    },
    {
      "inputs": [
        {
          "internalType": "address",
          "name": "_implementation",
          "type": "address"
        },
        {
          "internalType": "uint256",
          "name": "version",
          "type": "uint256"
        }
      ],
      "name": "setImplementation",
      "outputs": [],
      "stateMutability": "nonpayable",
      "type": "function"
    },
    {
      "inputs": [
        {
          "internalType": "address",
          "name": "_proxyImplementation",
          "type": "address"
        }
      ],
      "name": "setProxyImplementation",
      "outputs": [],
      "stateMutability": "nonpayable",
      "type": "function"
    },
    {
      "inputs": [
        {
          "internalType": "bytes4",
          "name": "interfaceId",
          "type": "bytes4"
        }
      ],
      "name": "supportsInterface",
      "outputs": [
        {
          "internalType": "bool",
          "name": "",
          "type": "bool"
        }
      ],
      "stateMutability": "view",
      "type": "function"
    },
    {
      "inputs": [],
      "name": "supportsVersion",
      "outputs": [
        {
          "internalType": "uint256",
          "name": "",
          "type": "uint256"
        }
      ],
      "stateMutability": "view",
      "type": "function"
    },
    {
      "inputs": [
        {
          "internalType": "address",
          "name": "world",
          "type": "address"
        },
        {
          "internalType": "bytes",
          "name": "initData",
          "type": "bytes"
        }
      ],
      "name": "upgradeWorld",
      "outputs": [],
      "stateMutability": "nonpayable",
      "type": "function"
    }
  ],
  "bytecode": "0x60806040523480156200001157600080fd5b5060405162001546380380620015468339810160408190526200003491620002a6565b81816001600160a01b038216620000a95760405162461bcd60e51b815260206004820152602e60248201527f42617365466163746f72793a206d61696e2061646d696e2063616e6e6f74206260448201526d65207a65726f206164647265737360901b60648201526084015b60405180910390fd5b620000b6600083620001c4565b50620000d26000805160206200152683398151915283620001c4565b5060005b8151811015620001b95760006001600160a01b03168282815181106200010057620001006200038f565b60200260200101516001600160a01b031603620001725760405162461bcd60e51b815260206004820152602960248201527f42617365466163746f72793a2061646d696e2063616e6e6f74206265207a65726044820152686f206164647265737360b81b6064820152608401620000a0565b620001af600080516020620015268339815191528383815181106200019b576200019b6200038f565b6020026020010151620001c460201b60201c565b50600101620000d6565b5050505050620003a5565b6000828152602081815260408083206001600160a01b038516845290915281205460ff1662000269576000838152602081815260408083206001600160a01b03861684529091529020805460ff19166001179055620002203390565b6001600160a01b0316826001600160a01b0316847f2f8788117e7eff1d82e926ec794901d17c78024a50270940304540a733656f0d60405160405180910390a45060016200026d565b5060005b92915050565b80516001600160a01b03811681146200028b57600080fd5b919050565b634e487b7160e01b600052604160045260246000fd5b60008060408385031215620002ba57600080fd5b620002c58362000273565b602084810151919350906001600160401b0380821115620002e557600080fd5b818601915086601f830112620002fa57600080fd5b8151818111156200030f576200030f62000290565b8060051b604051601f19603f8301168101818110858211171562000337576200033762000290565b6040529182528482019250838101850191898311156200035657600080fd5b938501935b828510156200037f576200036f8562000273565b845293850193928501926200035b565b8096505050505050509250929050565b634e487b7160e01b600052603260045260246000fd5b61117180620003b56000396000f3fe608060405234801561001057600080fd5b506004361061010a5760003560e01c806375b238fc116100a25780639fdcd3a4116100715780639fdcd3a414610240578063a217fddf14610253578063aaf10f421461025b578063d547741f1461026c578063e921c2751461027f57600080fd5b806375b238fc146101dc57806382f91ff0146101f157806390e4b7201461021c57806391d148541461022d57600080fd5b80632f2ff15d116100de5780632f2ff15d146101905780633033a4e5146101a357806336568abe146101b6578063390b9e3d146101c957600080fd5b8062ae36761461010f57806301ffc9a714610137578063090741a01461014a578063248a9ca31461015f575b600080fd5b61012261011d366004610b6f565b610288565b60405190151581526020015b60405180910390f35b610122610145366004610b91565b6102fd565b61015d610158366004610b6f565b610334565b005b61018261016d366004610bbb565b60009081526020819052604090206001015490565b60405190815260200161012e565b61015d61019e366004610bd4565b61040a565b61015d6101b1366004610c00565b610435565b61015d6101c4366004610bd4565b61055c565b61015d6101d7366004610c2a565b610594565b61018260008051602061111c83398151915281565b6102046101ff366004610e4e565b6106aa565b6040516001600160a01b03909116815260200161012e565b6002546001600160a01b0316610204565b61012261023b366004610bd4565b6107cb565b61015d61024e366004610b6f565b6107f4565b610182600081565b6001546001600160a01b0316610204565b61015d61027a366004610bd4565b6108ab565b61018260045481565b600080600160009054906101000a90046001600160a01b031660601b905060405169363d3d373d3d3d363d7360b01b815281600a8201526e5af43d82803e903d91602b57fd5bf360881b601e82015260408101602d600082873c600d810151600d830151148151835114169350505050919050565b60006001600160e01b03198216637965db0b60e01b148061032e57506301ffc9a760e01b6001600160e01b03198316145b92915050565b60008051602061111c83398151915261034c816108d0565b6001600160a01b0382166103bd5760405162461bcd60e51b815260206004820152602d60248201527f576f726c64466163746f72793a2072656769737472792063616e6e6f7420626560448201526c207a65726f206164647265737360981b60648201526084015b60405180910390fd5b600380546001600160a01b0319166001600160a01b03841690811790915560405181907fc86b12484784843e0f58748ffb8c87f7ee384e04382a190867f3cccc3b6cf97b90600090a35050565b600082815260208190526040902060010154610425816108d0565b61042f83836108dd565b50505050565b60008051602061111c83398151915261044d816108d0565b6001600160a01b0383166104be5760405162461bcd60e51b815260206004820152603260248201527f42617365466163746f72793a20696d706c656d656e746174696f6e2063616e6e6044820152716f74206265207a65726f206164647265737360701b60648201526084016103b4565b60045482116105355760405162461bcd60e51b815260206004820152603960248201527f42617365466163746f72793a2076657273696f6e206d7573742062652067726560448201527f61746572207468616e2063757272656e742076657273696f6e0000000000000060648201526084016103b4565b50600180546001600160a01b0319166001600160a01b039390931692909217909155600455565b6001600160a01b03811633146105855760405163334bd91960e11b815260040160405180910390fd5b61058f828261096f565b505050565b6003546001600160a01b03166105bc5760405162461bcd60e51b81526004016103b490610f25565b6003546001600160a01b031633146105e65760405162461bcd60e51b81526004016103b490610f6d565b600154604051632663d1f760e01b81526001600160a01b03918216600482015290841690632663d1f790602401600060405180830381600087803b15801561062d57600080fd5b505af1158015610641573d6000803e3d6000fd5b5050604051631377d1f560e21b81526001600160a01b0386169250634ddf47d491506106739085908590600401610fbb565b600060405180830381600087803b15801561068d57600080fd5b505af11580156106a1573d6000803e3d6000fd5b50505050505050565b6003546000906001600160a01b03166106d55760405162461bcd60e51b81526004016103b490610f25565b6003546001600160a01b031633146106ff5760405162461bcd60e51b81526004016103b490610f6d565b6107076109da565b600154604051639c02006160e01b81526001600160a01b039182166004820152919250821690639c02006190602401600060405180830381600087803b15801561075057600080fd5b505af1158015610764573d6000803e3d6000fd5b50506040516361445eb760e01b81526001600160a01b03841692506361445eb79150610794908590600401611030565b600060405180830381600087803b1580156107ae57600080fd5b505af11580156107c2573d6000803e3d6000fd5b50505050919050565b6000918252602082815260408084206001600160a01b0393909316845291905290205460ff1690565b60008051602061111c83398151915261080c816108d0565b6001600160a01b0382166108885760405162461bcd60e51b815260206004820152603860248201527f42617365466163746f72793a2070726f787920696d706c656d656e746174696f60448201527f6e2063616e6e6f74206265207a65726f2061646472657373000000000000000060648201526084016103b4565b50600280546001600160a01b0319166001600160a01b0392909216919091179055565b6000828152602081905260409020600101546108c6816108d0565b61042f838361096f565b6108da8133610a61565b50565b60006108e983836107cb565b610967576000838152602081815260408083206001600160a01b03861684529091529020805460ff1916600117905561091f3390565b6001600160a01b0316826001600160a01b0316847f2f8788117e7eff1d82e926ec794901d17c78024a50270940304540a733656f0d60405160405180910390a450600161032e565b50600061032e565b600061097b83836107cb565b15610967576000838152602081815260408083206001600160a01b0386168085529252808320805460ff1916905551339286917ff6391f5c32d9c69d2a47ea670b442974b53935d1edc7fd64eb21e047a839171b9190a450600161032e565b6002546000906001600160a01b0316610a475760405162461bcd60e51b815260206004820152602960248201527f42617365466163746f72793a2070726f787920696d706c656d656e746174696f6044820152681b881b9bdd081cd95d60ba1b60648201526084016103b4565b600254610a5c906001600160a01b0316610a9e565b905090565b610a6b82826107cb565b610a9a5760405163e2517d3f60e01b81526001600160a01b0382166004820152602481018390526044016103b4565b5050565b60006001600160a01b038216610b025760405162461bcd60e51b815260206004820152602360248201527f42617365466163746f72793a20696d706c656d656e746174696f6e206e6f74206044820152621cd95d60ea1b60648201526084016103b4565b60008260601b9050604051733d602d80600a3d3981f3363d3d373d3d3d363d7360601b81528160148201526e5af43d82803e903d91602b57fd5bf360881b60288201526037816000f0949350505050565b80356001600160a01b0381168114610b6a57600080fd5b919050565b600060208284031215610b8157600080fd5b610b8a82610b53565b9392505050565b600060208284031215610ba357600080fd5b81356001600160e01b031981168114610b8a57600080fd5b600060208284031215610bcd57600080fd5b5035919050565b60008060408385031215610be757600080fd5b82359150610bf760208401610b53565b90509250929050565b60008060408385031215610c1357600080fd5b610c1c83610b53565b946020939093013593505050565b600080600060408486031215610c3f57600080fd5b610c4884610b53565b9250602084013567ffffffffffffffff80821115610c6557600080fd5b818601915086601f830112610c7957600080fd5b813581811115610c8857600080fd5b876020828501011115610c9a57600080fd5b6020830194508093505050509250925092565b634e487b7160e01b600052604160045260246000fd5b60405160c0810167ffffffffffffffff81118282101715610ce657610ce6610cad565b60405290565b60405160a0810167ffffffffffffffff81118282101715610ce657610ce6610cad565b600082601f830112610d2057600080fd5b813567ffffffffffffffff80821115610d3b57610d3b610cad565b604051601f8301601f19908116603f01168101908282118183101715610d6357610d63610cad565b81604052838152866020858801011115610d7c57600080fd5b836020870160208301376000602085830101528094505050505092915050565b600060c08284031215610dae57600080fd5b610db6610cc3565b9050813567ffffffffffffffff80821115610dd057600080fd5b610ddc85838601610d0f565b83526020840135915080821115610df257600080fd5b610dfe85838601610d0f565b60208401526040840135915080821115610e1757600080fd5b50610e2484828501610d0f565b604083015250606082013560608201526080820135608082015260a082013560a082015292915050565b600060208284031215610e6057600080fd5b813567ffffffffffffffff80821115610e7857600080fd5b9083019060a08286031215610e8c57600080fd5b610e94610cec565b610e9d83610b53565b8152610eab60208401610b53565b6020820152604083013582811115610ec257600080fd5b610ece87828601610d9c565b604083015250606083013582811115610ee657600080fd5b610ef287828601610d0f565b606083015250608083013582811115610f0a57600080fd5b610f1687828601610d0f565b60808301525095945050505050565b60208082526028908201527f42617365466163746f72793a20617574686f72697a6564207265676973747279604082015267081b9bdd081cd95d60c21b606082015260800190565b6020808252602e908201527f42617365466163746f72793a2063616c6c6572206973206e6f7420617574686f60408201526d72697a656420726567697374727960901b606082015260800190565b60208152816020820152818360408301376000818301604090810191909152601f909201601f19160101919050565b6000815180845260005b8181101561101057602081850181015186830182015201610ff4565b506000602082860101526020601f19601f83011685010191505092915050565b60208152600060018060a01b0380845116602084015280602085015116604084015250604083015160a06060840152805160c080850152611075610180850182610fea565b9050602082015160bf19808684030160e08701526110938383610fea565b9250604084015191508086840301610100870152506110b28282610fea565b9150506060820151610120850152608082015161014085015260a082015161016085015260608501519150601f19808583030160808601526110f48284610fea565b925060808601519150808584030160a0860152506111128282610fea565b9594505050505056fea49807205ce4d355092ef5a8a18f56e8913cf4a201fbe287825b095693c21775a2646970667358221220dc04bd5d18d0b83df833785014095efe5bea3ff0b9e8cf73e64af9e8cbbaf3ec64736f6c63430008180033a49807205ce4d355092ef5a8a18f56e8913cf4a201fbe287825b095693c21775",
  "linkReferences": {},
  "deployedLinkReferences": {}
}