{
  "_format": "hh-sol-artifact-1",
  "contractName": "World",
  "sourceName": "contracts/world/instance/World.sol",
  "abi": [
    {
      "inputs": [
        {
          "components": [
            {
              "internalType": "address",
              "name": "registrarRegistry",
              "type": "address"
            },
            {
              "internalType": "address",
              "name": "worldRegistry",
              "type": "address"
            },
            {
              "internalType": "address",
              "name": "avatarRegistry",
              "type": "address"
            },
            {
              "internalType": "address",
              "name": "companyRegistry",
              "type": "address"
            },
            {
              "internalType": "address",
              "name": "experienceRegistry",
              "type": "address"
            }
          ],
          "internalType": "struct WorldConstructorArgs",
          "name": "args",
          "type": "tuple"
        }
      ],
      "stateMutability": "nonpayable",
      "type": "constructor"
    },
    {
      "anonymous": false,
      "inputs": [
        {
          "indexed": true,
          "internalType": "address",
          "name": "by",
          "type": "address"
        },
        {
          "indexed": false,
          "internalType": "string",
          "name": "reason",
          "type": "string"
        }
      ],
      "name": "EntityDeactivated",
      "type": "event"
    },
    {
      "anonymous": false,
      "inputs": [
        {
          "indexed": true,
          "internalType": "address",
          "name": "by",
          "type": "address"
        }
      ],
      "name": "EntityReactivated",
      "type": "event"
    },
    {
      "anonymous": false,
      "inputs": [
        {
          "indexed": true,
          "internalType": "address",
          "name": "by",
          "type": "address"
        },
        {
          "indexed": false,
          "internalType": "string",
          "name": "reason",
          "type": "string"
        }
      ],
      "name": "EntityRemoved",
      "type": "event"
    },
    {
      "anonymous": false,
      "inputs": [
        {
          "indexed": true,
          "internalType": "address",
          "name": "avatar",
          "type": "address"
        },
        {
          "indexed": true,
          "internalType": "address",
          "name": "owner",
          "type": "address"
        }
      ],
      "name": "WorldAddedAvatar",
      "type": "event"
    },
    {
      "anonymous": false,
      "inputs": [
        {
          "indexed": true,
          "internalType": "address",
          "name": "company",
          "type": "address"
        },
        {
          "indexed": true,
          "internalType": "address",
          "name": "owner",
          "type": "address"
        },
        {
          "components": [
            {
              "internalType": "string",
              "name": "x",
              "type": "string"
            },
            {
              "internalType": "string",
              "name": "y",
              "type": "string"
            },
            {
              "internalType": "string",
              "name": "z",
              "type": "string"
            },
            {
              "internalType": "uint256",
              "name": "t",
              "type": "uint256"
            },
            {
              "internalType": "uint256",
              "name": "p",
              "type": "uint256"
            },
            {
              "internalType": "uint256",
              "name": "p_sub",
              "type": "uint256"
            }
          ],
          "indexed": false,
          "internalType": "struct VectorAddress",
          "name": "vector",
          "type": "tuple"
        }
      ],
      "name": "WorldAddedCompany",
      "type": "event"
    },
    {
      "anonymous": false,
      "inputs": [
        {
          "indexed": true,
          "internalType": "address",
          "name": "company",
          "type": "address"
        },
        {
          "indexed": true,
          "internalType": "address",
          "name": "owner",
          "type": "address"
        }
      ],
      "name": "WorldAddedCompany",
      "type": "event"
    },
    {
      "anonymous": false,
      "inputs": [
        {
          "indexed": true,
          "internalType": "address",
          "name": "experience",
          "type": "address"
        },
        {
          "indexed": true,
          "internalType": "address",
          "name": "company",
          "type": "address"
        },
        {
          "indexed": false,
          "internalType": "uint256",
          "name": "portalId",
          "type": "uint256"
        }
      ],
      "name": "WorldAddedExperience",
      "type": "event"
    },
    {
      "anonymous": false,
      "inputs": [
        {
          "indexed": true,
          "internalType": "address",
          "name": "company",
          "type": "address"
        },
        {
          "indexed": false,
          "internalType": "string",
          "name": "reason",
          "type": "string"
        }
      ],
      "name": "WorldDeactivatedCompany",
      "type": "event"
    },
    {
      "anonymous": false,
      "inputs": [
        {
          "indexed": true,
          "internalType": "address",
          "name": "experience",
          "type": "address"
        },
        {
          "indexed": true,
          "internalType": "address",
          "name": "company",
          "type": "address"
        },
        {
          "indexed": false,
          "internalType": "string",
          "name": "reason",
          "type": "string"
        }
      ],
      "name": "WorldDeactivatedExperience",
      "type": "event"
    },
    {
      "anonymous": false,
      "inputs": [
        {
          "indexed": true,
          "internalType": "address",
          "name": "company",
          "type": "address"
        }
      ],
      "name": "WorldReactivatedCompany",
      "type": "event"
    },
    {
      "anonymous": false,
      "inputs": [
        {
          "indexed": true,
          "internalType": "address",
          "name": "experience",
          "type": "address"
        },
        {
          "indexed": true,
          "internalType": "address",
          "name": "company",
          "type": "address"
        }
      ],
      "name": "WorldReactivatedExperience",
      "type": "event"
    },
    {
      "anonymous": false,
      "inputs": [
        {
          "indexed": true,
          "internalType": "address",
          "name": "company",
          "type": "address"
        },
        {
          "indexed": false,
          "internalType": "string",
          "name": "reason",
          "type": "string"
        }
      ],
      "name": "WorldRemovedCompany",
      "type": "event"
    },
    {
      "anonymous": false,
      "inputs": [
        {
          "indexed": true,
          "internalType": "address",
          "name": "experience",
          "type": "address"
        },
        {
          "indexed": true,
          "internalType": "address",
          "name": "company",
          "type": "address"
        },
        {
          "indexed": false,
          "internalType": "string",
          "name": "reason",
          "type": "string"
        },
        {
          "indexed": false,
          "internalType": "uint256",
          "name": "portalId",
          "type": "uint256"
        }
      ],
      "name": "WorldRemovedExperience",
      "type": "event"
    },
    {
      "inputs": [
        {
          "components": [
            {
              "components": [
                {
                  "internalType": "string",
                  "name": "x",
                  "type": "string"
                },
                {
                  "internalType": "string",
                  "name": "y",
                  "type": "string"
                },
                {
                  "internalType": "string",
                  "name": "z",
                  "type": "string"
                },
                {
                  "internalType": "uint256",
                  "name": "t",
                  "type": "uint256"
                },
                {
                  "internalType": "uint256",
                  "name": "p",
                  "type": "uint256"
                },
                {
                  "internalType": "uint256",
                  "name": "p_sub",
                  "type": "uint256"
                }
              ],
              "internalType": "struct VectorAddress",
              "name": "vector",
              "type": "tuple"
            },
            {
              "internalType": "string",
              "name": "name",
              "type": "string"
            },
            {
              "internalType": "bytes",
              "name": "initData",
              "type": "bytes"
            }
          ],
          "internalType": "struct NewExperienceArgs",
          "name": "args",
          "type": "tuple"
        }
      ],
      "name": "addExperience",
      "outputs": [
        {
          "internalType": "address",
          "name": "experience",
          "type": "address"
        },
        {
          "internalType": "uint256",
          "name": "portalId",
          "type": "uint256"
        }
      ],
      "stateMutability": "payable",
      "type": "function"
    },
    {
      "inputs": [
        {
          "internalType": "address[]",
          "name": "signers",
          "type": "address[]"
        }
      ],
      "name": "addSigners",
      "outputs": [],
      "stateMutability": "nonpayable",
      "type": "function"
    },
    {
      "inputs": [],
      "name": "avatarRegistry",
      "outputs": [
        {
          "internalType": "contract IAvatarRegistry",
          "name": "",
          "type": "address"
        }
      ],
      "stateMutability": "view",
      "type": "function"
    },
    {
      "inputs": [],
      "name": "baseVector",
      "outputs": [
        {
          "components": [
            {
              "internalType": "string",
              "name": "x",
              "type": "string"
            },
            {
              "internalType": "string",
              "name": "y",
              "type": "string"
            },
            {
              "internalType": "string",
              "name": "z",
              "type": "string"
            },
            {
              "internalType": "uint256",
              "name": "t",
              "type": "uint256"
            },
            {
              "internalType": "uint256",
              "name": "p",
              "type": "uint256"
            },
            {
              "internalType": "uint256",
              "name": "p_sub",
              "type": "uint256"
            }
          ],
          "internalType": "struct VectorAddress",
          "name": "",
          "type": "tuple"
        }
      ],
      "stateMutability": "view",
      "type": "function"
    },
    {
      "inputs": [
        {
          "internalType": "address",
          "name": "newOwner",
          "type": "address"
        }
      ],
      "name": "changeOwner",
      "outputs": [],
      "stateMutability": "nonpayable",
      "type": "function"
    },
    {
      "inputs": [],
      "name": "companyRegistry",
      "outputs": [
        {
          "internalType": "contract ICompanyRegistry",
          "name": "",
          "type": "address"
        }
      ],
      "stateMutability": "view",
      "type": "function"
    },
    {
      "inputs": [
        {
          "internalType": "string",
          "name": "reason",
          "type": "string"
        }
      ],
      "name": "deactivate",
      "outputs": [],
      "stateMutability": "nonpayable",
      "type": "function"
    },
    {
      "inputs": [
        {
          "internalType": "address",
          "name": "company",
          "type": "address"
        },
        {
          "internalType": "string",
          "name": "reason",
          "type": "string"
        }
      ],
      "name": "deactivateCompany",
      "outputs": [],
      "stateMutability": "nonpayable",
      "type": "function"
    },
    {
      "inputs": [
        {
          "internalType": "address",
          "name": "experience",
          "type": "address"
        },
        {
          "internalType": "string",
          "name": "reason",
          "type": "string"
        }
      ],
      "name": "deactivateExperience",
      "outputs": [],
      "stateMutability": "nonpayable",
      "type": "function"
    },
    {
      "inputs": [],
      "name": "experienceRegistry",
      "outputs": [
        {
          "internalType": "contract IExperienceRegistry",
          "name": "",
          "type": "address"
        }
      ],
      "stateMutability": "view",
      "type": "function"
    },
    {
      "inputs": [
        {
          "internalType": "bytes32",
          "name": "role",
          "type": "bytes32"
        },
        {
          "internalType": "address",
          "name": "account",
          "type": "address"
        }
      ],
      "name": "grantRole",
      "outputs": [],
      "stateMutability": "nonpayable",
      "type": "function"
    },
    {
      "inputs": [
        {
          "internalType": "bytes32",
          "name": "role",
          "type": "bytes32"
        },
        {
          "internalType": "address",
          "name": "account",
          "type": "address"
        }
      ],
      "name": "hasRole",
      "outputs": [
        {
          "internalType": "bool",
          "name": "",
          "type": "bool"
        }
      ],
      "stateMutability": "view",
      "type": "function"
    },
    {
      "inputs": [
        {
          "internalType": "string",
          "name": "name",
          "type": "string"
        },
        {
          "internalType": "address",
          "name": "owner",
          "type": "address"
        },
        {
          "components": [
            {
              "internalType": "string",
              "name": "x",
              "type": "string"
            },
            {
              "internalType": "string",
              "name": "y",
              "type": "string"
            },
            {
              "internalType": "string",
              "name": "z",
              "type": "string"
            },
            {
              "internalType": "uint256",
              "name": "t",
              "type": "uint256"
            },
            {
              "internalType": "uint256",
              "name": "p",
              "type": "uint256"
            },
            {
              "internalType": "uint256",
              "name": "p_sub",
              "type": "uint256"
            }
          ],
          "internalType": "struct VectorAddress",
          "name": "vector",
          "type": "tuple"
        },
        {
          "internalType": "bytes",
          "name": "",
          "type": "bytes"
        }
      ],
      "name": "init",
      "outputs": [],
      "stateMutability": "nonpayable",
      "type": "function"
    },
    {
      "inputs": [
        {
          "internalType": "address",
          "name": "account",
          "type": "address"
        }
      ],
      "name": "isAdmin",
      "outputs": [
        {
          "internalType": "bool",
          "name": "",
          "type": "bool"
        }
      ],
      "stateMutability": "view",
      "type": "function"
    },
    {
      "inputs": [],
      "name": "isEntityActive",
      "outputs": [
        {
          "internalType": "bool",
          "name": "",
          "type": "bool"
        }
      ],
      "stateMutability": "view",
      "type": "function"
    },
    {
      "inputs": [],
      "name": "isRemoved",
      "outputs": [
        {
          "internalType": "bool",
          "name": "",
          "type": "bool"
        }
      ],
      "stateMutability": "view",
      "type": "function"
    },
    {
      "inputs": [
        {
          "internalType": "address",
          "name": "account",
          "type": "address"
        }
      ],
      "name": "isSigner",
      "outputs": [
        {
          "internalType": "bool",
          "name": "",
          "type": "bool"
        }
      ],
      "stateMutability": "view",
      "type": "function"
    },
    {
      "inputs": [],
      "name": "isStillActive",
      "outputs": [
        {
          "internalType": "bool",
          "name": "",
          "type": "bool"
        }
      ],
      "stateMutability": "view",
      "type": "function"
    },
    {
      "inputs": [
        {
          "internalType": "address",
          "name": "a",
          "type": "address"
        }
      ],
      "name": "isTermsOwnerSigner",
      "outputs": [
        {
          "internalType": "bool",
          "name": "",
          "type": "bool"
        }
      ],
      "stateMutability": "view",
      "type": "function"
    },
    {
      "inputs": [],
      "name": "name",
      "outputs": [
        {
          "internalType": "string",
          "name": "",
          "type": "string"
        }
      ],
      "stateMutability": "view",
      "type": "function"
    },
    {
      "inputs": [],
      "name": "owner",
      "outputs": [
        {
          "internalType": "address",
          "name": "",
          "type": "address"
        }
      ],
      "stateMutability": "view",
      "type": "function"
    },
    {
      "inputs": [],
      "name": "reactivate",
      "outputs": [],
      "stateMutability": "nonpayable",
      "type": "function"
    },
    {
      "inputs": [
        {
          "internalType": "address",
          "name": "company",
          "type": "address"
        }
      ],
      "name": "reactivateCompany",
      "outputs": [],
      "stateMutability": "nonpayable",
      "type": "function"
    },
    {
      "inputs": [
        {
          "internalType": "address",
          "name": "experience",
          "type": "address"
        }
      ],
      "name": "reactivateExperience",
      "outputs": [],
      "stateMutability": "nonpayable",
      "type": "function"
    },
    {
      "inputs": [
        {
          "components": [
            {
              "internalType": "bool",
              "name": "sendTokensToOwner",
              "type": "bool"
            },
            {
              "internalType": "address",
              "name": "owner",
              "type": "address"
            },
            {
              "internalType": "address",
              "name": "startingExperience",
              "type": "address"
            },
            {
              "internalType": "string",
              "name": "name",
              "type": "string"
            },
            {
              "internalType": "bytes",
              "name": "initData",
              "type": "bytes"
            }
          ],
          "internalType": "struct NewAvatarArgs",
          "name": "args",
          "type": "tuple"
        }
      ],
      "name": "registerAvatar",
      "outputs": [
        {
          "internalType": "address",
          "name": "avatar",
          "type": "address"
        }
      ],
      "stateMutability": "payable",
      "type": "function"
    },
    {
      "inputs": [
        {
          "components": [
            {
              "internalType": "bool",
              "name": "sendTokensToOwner",
              "type": "bool"
            },
            {
              "internalType": "address",
              "name": "owner",
              "type": "address"
            },
            {
              "internalType": "string",
              "name": "name",
              "type": "string"
            },
            {
              "components": [
                {
                  "internalType": "uint16",
                  "name": "coveragePeriodDays",
                  "type": "uint16"
                },
                {
                  "internalType": "uint16",
                  "name": "gracePeriodDays",
                  "type": "uint16"
                },
                {
                  "internalType": "uint256",
                  "name": "fee",
                  "type": "uint256"
                }
              ],
              "internalType": "struct RegistrationTerms",
              "name": "terms",
              "type": "tuple"
            },
            {
              "internalType": "bytes",
              "name": "ownerTermsSignature",
              "type": "bytes"
            },
            {
              "internalType": "uint256",
              "name": "expiration",
              "type": "uint256"
            },
            {
              "internalType": "bytes",
              "name": "initData",
              "type": "bytes"
            }
          ],
          "internalType": "struct NewCompanyArgs",
          "name": "args",
          "type": "tuple"
        }
      ],
      "name": "registerCompany",
      "outputs": [
        {
          "internalType": "address",
          "name": "company",
          "type": "address"
        }
      ],
      "stateMutability": "payable",
      "type": "function"
    },
    {
      "inputs": [
        {
          "internalType": "string",
          "name": "reason",
          "type": "string"
        }
      ],
      "name": "remove",
      "outputs": [],
      "stateMutability": "nonpayable",
      "type": "function"
    },
    {
      "inputs": [
        {
          "internalType": "address",
          "name": "company",
          "type": "address"
        },
        {
          "internalType": "string",
          "name": "reason",
          "type": "string"
        }
      ],
      "name": "removeCompany",
      "outputs": [],
      "stateMutability": "nonpayable",
      "type": "function"
    },
    {
      "inputs": [
        {
          "internalType": "address",
          "name": "experience",
          "type": "address"
        },
        {
          "internalType": "string",
          "name": "reason",
          "type": "string"
        }
      ],
      "name": "removeExperience",
      "outputs": [
        {
          "internalType": "uint256",
          "name": "portalId",
          "type": "uint256"
        }
      ],
      "stateMutability": "nonpayable",
      "type": "function"
    },
    {
      "inputs": [
        {
          "internalType": "address[]",
          "name": "signers",
          "type": "address[]"
        }
      ],
      "name": "removeSigners",
      "outputs": [],
      "stateMutability": "nonpayable",
      "type": "function"
    },
    {
      "inputs": [
        {
          "internalType": "bytes32",
          "name": "role",
          "type": "bytes32"
        },
        {
          "internalType": "address",
          "name": "account",
          "type": "address"
        }
      ],
      "name": "revokeRole",
      "outputs": [],
      "stateMutability": "nonpayable",
      "type": "function"
    },
    {
      "inputs": [],
      "name": "termsOwner",
      "outputs": [
        {
          "internalType": "address",
          "name": "",
          "type": "address"
        }
      ],
      "stateMutability": "view",
      "type": "function"
    },
    {
      "inputs": [],
      "name": "version",
      "outputs": [
        {
          "components": [
            {
              "internalType": "uint16",
              "name": "major",
              "type": "uint16"
            },
            {
              "internalType": "uint16",
              "name": "minor",
              "type": "uint16"
            }
          ],
          "internalType": "struct Version",
          "name": "",
          "type": "tuple"
        }
      ],
      "stateMutability": "pure",
      "type": "function"
    },
    {
      "inputs": [
        {
          "internalType": "uint256",
          "name": "amount",
          "type": "uint256"
        }
      ],
      "name": "withdraw",
      "outputs": [],
      "stateMutability": "nonpayable",
      "type": "function"
    },
    {
      "inputs": [],
      "name": "worldRegistry",
      "outputs": [
        {
          "internalType": "address",
          "name": "",
          "type": "address"
        }
      ],
      "stateMutability": "view",
      "type": "function"
    },
    {
      "stateMutability": "payable",
      "type": "receive"
    }
  ],
  "bytecode": "0x6101006040523480156200001257600080fd5b506040516200396038038062003960833981016040819052620000359162000208565b60208101516001600160a01b0316620000955760405162461bcd60e51b815260206004820152601d60248201527f576f726c643a20496e76616c696420776f726c6420726567697374727900000060448201526064015b60405180910390fd5b60408101516001600160a01b0316620000f15760405162461bcd60e51b815260206004820152601e60248201527f576f726c643a20496e76616c696420617661746172207265676973747279000060448201526064016200008c565b60608101516001600160a01b03166200014d5760405162461bcd60e51b815260206004820152601f60248201527f576f726c643a20496e76616c696420636f6d70616e792072656769737472790060448201526064016200008c565b60808101516001600160a01b0316620001b45760405162461bcd60e51b815260206004820152602260248201527f576f726c643a20496e76616c696420657870657269656e636520726567697374604482015261727960f01b60648201526084016200008c565b60208101516001600160a01b0390811660809081526040830151821660a0526060830151821660c052909101511660e052620002af565b80516001600160a01b03811681146200020357600080fd5b919050565b600060a082840312156200021b57600080fd5b60405160a081016001600160401b03811182821017156200024c57634e487b7160e01b600052604160045260246000fd5b6040526200025a83620001eb565b81526200026a60208401620001eb565b60208201526200027d60408401620001eb565b60408201526200029060608401620001eb565b6060820152620002a360808401620001eb565b60808201529392505050565b60805160a05160c05160e05161360062000360600039600081816104f601528181610c0b015281816113f101528181611f2901526122a30152600081816105be0152818161084e01528181610ad201528181611205015281816112cd01528181611ab001528181611df701528181611ff9015261217f01526000818161066701526114d901526000818161052a01528181610a1d0152818161161d015281816117ac0152611c8901526136006000f3fe6080604052600436106102085760003560e01c80637e6e155111610118578063a6f9dae1116100a0578063d802a9a21161006f578063d802a9a214610615578063ddf83cff14610635578063e3d7ad7314610655578063e8906a2d14610689578063fcc11184146106a957600080fd5b8063a6f9dae11461058c578063c51aba2b146105ac578063d18611d6146105e0578063d547741f146105f557600080fd5b80638da5cb5b116100e75780638da5cb5b146104cf5780638f09a6be146104e4578063911c2a8c1461051857806391d148541461054c578063a18cd5cc1461056c57600080fd5b80637e6e15511461047a57806380599e4b1461048f57806386b70bed146103c35780638d361e43146104af57600080fd5b80633f995c2c1161019b5780634f05c1c81161016a5780634f05c1c8146103c357806354fd4d50146103d857806357607a371461042557806369bd9194146104455780637df73e271461045a57600080fd5b80633f995c2c1461034e578063412456c814610370578063464570b6146103905780634d575f3d146103b057600080fd5b806327ee999d116101d757806327ee999d146102ba578063288bd6f8146102dc5780632e1a7d4d1461030e5780632f2ff15d1461032e57600080fd5b806306fdde03146102145780630a7ee8a01461023f57806318c538c71461026f57806324d7806c1461029a57600080fd5b3661020f57005b600080fd5b34801561022057600080fd5b506102296106d7565b6040516102369190612516565b60405180910390f35b34801561024b57600080fd5b5061025f61025a366004612551565b61076f565b6040519015158152602001610236565b61028261027d366004612732565b610780565b6040516001600160a01b039091168152602001610236565b3480156102a657600080fd5b5061025f6102b5366004612551565b610992565b3480156102c657600080fd5b506102da6102d5366004612826565b610a12565b005b6102ef6102ea366004612862565b610ab0565b604080516001600160a01b039093168352602083019190915201610236565b34801561031a57600080fd5b506102da6103293660046129aa565b610cd5565b34801561033a57600080fd5b506102da6103493660046129c3565b610e9b565b34801561035a57600080fd5b50610363610fa1565b6040516102369190612a66565b34801561037c57600080fd5b506102da61038b366004612ac1565b6111c9565b34801561039c57600080fd5b506102da6103ab366004612ac1565b6112b8565b6102826103be366004612b15565b6114b0565b3480156103cf57600080fd5b5061025f6115ff565b3480156103e457600080fd5b50604080518082018252600080825260209182018190528251808401845260018082529083019182528351908152905161ffff169181019190915201610236565b34801561043157600080fd5b506102da610440366004612bdc565b611612565b34801561045157600080fd5b50610282611727565b34801561046657600080fd5b5061025f610475366004612551565b611746565b34801561048657600080fd5b5061025f611789565b34801561049b57600080fd5b506102da6104aa366004612826565b6117a1565b3480156104bb57600080fd5b506102da6104ca366004612c8c565b6118a3565b3480156104db57600080fd5b5061028261196b565b3480156104f057600080fd5b506102827f000000000000000000000000000000000000000000000000000000000000000081565b34801561052457600080fd5b506102827f000000000000000000000000000000000000000000000000000000000000000081565b34801561055857600080fd5b5061025f6105673660046129c3565b6119df565b34801561057857600080fd5b506102da610587366004612551565b611a6c565b34801561059857600080fd5b506102da6105a7366004612551565b611b43565b3480156105b857600080fd5b506102827f000000000000000000000000000000000000000000000000000000000000000081565b3480156105ec57600080fd5b506102da611c7e565b34801561060157600080fd5b506102da6106103660046129c3565b611d0c565b34801561062157600080fd5b506102da610630366004612551565b611de2565b34801561064157600080fd5b506102da610650366004612ac1565b611fbe565b34801561066157600080fd5b506102827f000000000000000000000000000000000000000000000000000000000000000081565b34801561069557600080fd5b506102da6106a4366004612c8c565b61209f565b3480156106b557600080fd5b506106c96106c4366004612ac1565b612167565b604051908152602001610236565b60606106e1612379565b80546106ec90612d00565b80601f016020809104026020016040519081016040528092919081815260200182805461071890612d00565b80156107655780601f1061073a57610100808354040283529160200191610765565b820191906000526020600020905b81548152906001019060200180831161074857829003601f168201915b5050505050905090565b600061077a82611746565b92915050565b600061078b33611746565b6107b05760405162461bcd60e51b81526004016107a790612d3a565b60405180910390fd5b6000306001600160a01b0316633f995c2c6040518163ffffffff1660e01b8152600401600060405180830381865afa1580156107f0573d6000803e3d6000fd5b505050506040513d6000823e601f3d908101601f191682016040526108189190810190612dad565b90506000610824612406565b9050806000016000815461083790612e98565b9190508190555080600001548260800181815250507f00000000000000000000000000000000000000000000000000000000000000006001600160a01b0316629ee30860405180610100016040528087600001511515815260200187602001516001600160a01b0316815260200187604001518152602001876060015181526020018581526020018760c001518152602001876080015181526020018760a001518152506040518263ffffffff1660e01b81526004016108f79190612eb1565b6020604051808303816000875af1158015610916573d6000803e3d6000fd5b505050506040513d601f19601f8201168201806040525081019061093a9190612f98565b925083602001516001600160a01b0316836001600160a01b03167f54617c01ce8b2322d3c9640ac735f08c961dbd1d004e423027b43b2d1edd3713846040516109839190612a66565b60405180910390a35050919050565b604051630935e01b60e21b81526001600160a01b038216600482015260009073__$a5a42e46683ad9c79b7b86d5ff60fdf4c1$__906324d7806c906024015b602060405180830381865af41580156109ee573d6000803e3d6000fd5b505050506040513d601f19601f8201168201806040525081019061077a9190612fb5565b336001600160a01b037f00000000000000000000000000000000000000000000000000000000000000001614610a5a5760405162461bcd60e51b81526004016107a790612fd2565b6000610a64612461565b805460ff191691151591909117905560405133907f246589c99dd263c9b64a2b544e24074c282ca479ba3d2a0e649f9eeaca1e2d6290610aa5908490612516565b60405180910390a250565b60405163c3c5a54760e01b815233600482015260009081906001600160a01b037f0000000000000000000000000000000000000000000000000000000000000000169063c3c5a54790602401602060405180830381865afa158015610b19573d6000803e3d6000fd5b505050506040513d601f19601f82011682018060405250810190610b3d9190612fb5565b610b595760405162461bcd60e51b81526004016107a790613017565b336001600160a01b03166386b70bed6040518163ffffffff1660e01b8152600401602060405180830381865afa158015610b97573d6000803e3d6000fd5b505050506040513d601f19601f82011682018060405250810190610bbb9190612fb5565b610bd75760405162461bcd60e51b81526004016107a79061304e565b60408051608081018252338152602085810151908201528451818301528482015160608201529051637ba8f00d60e11b81527f00000000000000000000000000000000000000000000000000000000000000006001600160a01b03169063f751e01a90610c48908490600401613085565b60408051808303816000875af1158015610c66573d6000803e3d6000fd5b505050506040513d601f19601f82011682018060405250810190610c8a91906130f8565b604051818152919450925033906001600160a01b038516907fb1ffa3fb5eb8fc3f04e75f6e99aa96c5f27a31a456be69fc2f303e93791c836f9060200160405180910390a350915091565b336001600160a01b031673__$a5a42e46683ad9c79b7b86d5ff60fdf4c1$__638da5cb5b6040518163ffffffff1660e01b8152600401602060405180830381865af4158015610d28573d6000803e3d6000fd5b505050506040513d601f19601f82011682018060405250810190610d4c9190612f98565b6001600160a01b031614610da25760405162461bcd60e51b815260206004820152601f60248201527f426173654163636573733a207265737472696374656420746f206f776e65720060448201526064016107a7565b47811115610df25760405162461bcd60e51b815260206004820152601f60248201527f5265676973747261723a20696e73756666696369656e742062616c616e63650060448201526064016107a7565b73__$a5a42e46683ad9c79b7b86d5ff60fdf4c1$__638da5cb5b6040518163ffffffff1660e01b8152600401602060405180830381865af4158015610e3b573d6000803e3d6000fd5b505050506040513d601f19601f82011682018060405250810190610e5f9190612f98565b6001600160a01b03166108fc829081150290604051600060405180830381858888f19350505050158015610e97573d6000803e3d6000fd5b5050565b604051630935e01b60e21b815233600482015273__$a5a42e46683ad9c79b7b86d5ff60fdf4c1$__906324d7806c90602401602060405180830381865af4158015610eea573d6000803e3d6000fd5b505050506040513d601f19601f82011682018060405250810190610f0e9190612fb5565b610f2a5760405162461bcd60e51b81526004016107a790613126565b604051632f2ff15d60e01b8152600481018390526001600160a01b038216602482015273__$a5a42e46683ad9c79b7b86d5ff60fdf4c1$__90632f2ff15d906044015b60006040518083038186803b158015610f8557600080fd5b505af4158015610f99573d6000803e3d6000fd5b505050505050565b610fda6040518060c001604052806060815260200160608152602001606081526020016000815260200160008152602001600081525090565b610fe2612461565b6001016040518060c001604052908160008201805461100090612d00565b80601f016020809104026020016040519081016040528092919081815260200182805461102c90612d00565b80156110795780601f1061104e57610100808354040283529160200191611079565b820191906000526020600020905b81548152906001019060200180831161105c57829003601f168201915b5050505050815260200160018201805461109290612d00565b80601f01602080910402602001604051908101604052809291908181526020018280546110be90612d00565b801561110b5780601f106110e05761010080835404028352916020019161110b565b820191906000526020600020905b8154815290600101906020018083116110ee57829003601f168201915b5050505050815260200160028201805461112490612d00565b80601f016020809104026020016040519081016040528092919081815260200182805461115090612d00565b801561119d5780601f106111725761010080835404028352916020019161119d565b820191906000526020600020905b81548152906001019060200180831161118057829003601f168201915b505050505081526020016003820154815260200160048201548152602001600582015481525050905090565b6111d233611746565b6111ee5760405162461bcd60e51b81526004016107a790612d3a565b60405163af08d53d60e01b81526001600160a01b037f0000000000000000000000000000000000000000000000000000000000000000169063af08d53d9061123e90869086908690600401613184565b600060405180830381600087803b15801561125857600080fd5b505af115801561126c573d6000803e3d6000fd5b50505050826001600160a01b03167f85bcddb7ad336b17bbd594aeb2faef5a5e2e5e81027612388e17361cc099245883836040516112ab9291906131a9565b60405180910390a2505050565b60405163c3c5a54760e01b81523360048201527f00000000000000000000000000000000000000000000000000000000000000006001600160a01b03169063c3c5a54790602401602060405180830381865afa15801561131c573d6000803e3d6000fd5b505050506040513d601f19601f820116820180604052508101906113409190612fb5565b61135c5760405162461bcd60e51b81526004016107a790613017565b336001600160a01b03166386b70bed6040518163ffffffff1660e01b8152600401602060405180830381865afa15801561139a573d6000803e3d6000fd5b505050506040513d601f19601f820116820180604052508101906113be9190612fb5565b6113da5760405162461bcd60e51b81526004016107a79061304e565b60405163200e4e1160e01b81526001600160a01b037f0000000000000000000000000000000000000000000000000000000000000000169063200e4e119061142c9033908790879087906004016131bd565b600060405180830381600087803b15801561144657600080fd5b505af115801561145a573d6000803e3d6000fd5b50505050336001600160a01b0316836001600160a01b03167f990609095a0655f0bf40676d0de09db5980e172581bfff57d42e049fd197879d84846040516114a39291906131a9565b60405180910390a3505050565b60006114bb33611746565b6114d75760405162461bcd60e51b81526004016107a790612d3a565b7f00000000000000000000000000000000000000000000000000000000000000006001600160a01b03166304fb06ca6040518060a0016040528085600001511515815260200185604001516001600160a01b0316815260200185602001516001600160a01b031681526020018560600151815260200185608001518152506040518263ffffffff1660e01b815260040161157191906131f4565b6020604051808303816000875af1158015611590573d6000803e3d6000fd5b505050506040513d601f19601f820116820180604052508101906115b49190612f98565b905081602001516001600160a01b0316816001600160a01b03167fae3ac995f520a02d8a5a99cfc75a431f6596a0c592a9d4bca8f044be75c256a160405160405180910390a3919050565b6000611609612461565b5460ff16919050565b336001600160a01b037f0000000000000000000000000000000000000000000000000000000000000000161461165a5760405162461bcd60e51b81526004016107a790612fd2565b8585611664612379565b916116709190836132a8565b50600061167b612461565b8054600161ff01600160b01b03199091163362010000021781178255909150849082016116a882826133ad565b50506040805160008152602081019182905263d9ac971f60e01b90915273__$a5a42e46683ad9c79b7b86d5ff60fdf4c1$__63d9ac971f6116ed8884602481016134d0565b60006040518083038186803b15801561170557600080fd5b505af4158015611719573d6000803e3d6000fd5b505050505050505050505050565b6000611731612461565b546201000090046001600160a01b0316919050565b604051637df73e2760e01b81526001600160a01b038216600482015260009073__$a5a42e46683ad9c79b7b86d5ff60fdf4c1$__90637df73e27906024016109d1565b6000611793612461565b54610100900460ff16919050565b336001600160a01b037f000000000000000000000000000000000000000000000000000000000000000016146117e95760405162461bcd60e51b81526004016107a790612fd2565b6117f1612461565b5460ff16156118515760405162461bcd60e51b815260206004820152602660248201527f52656d6f7661626c65456e746974793a206d757374206465616374697661746560448201526508199a5c9cdd60d21b60648201526084016107a7565b600161185b612461565b80549115156101000261ff001990921691909117905560405133907fbf430175840309fcb4cce13557429998477f9f95733cb0d42c170af8aa225d0690610aa5908490612516565b604051630935e01b60e21b815233600482015273__$a5a42e46683ad9c79b7b86d5ff60fdf4c1$__906324d7806c90602401602060405180830381865af41580156118f2573d6000803e3d6000fd5b505050506040513d601f19601f820116820180604052508101906119169190612fb5565b6119325760405162461bcd60e51b81526004016107a790613126565b604051638d361e4360e01b815273__$a5a42e46683ad9c79b7b86d5ff60fdf4c1$__90638d361e4390610f6d908590859060040161352c565b600073__$a5a42e46683ad9c79b7b86d5ff60fdf4c1$__638da5cb5b6040518163ffffffff1660e01b8152600401602060405180830381865af41580156119b6573d6000803e3d6000fd5b505050506040513d601f19601f820116820180604052508101906119da9190612f98565b905090565b604051632474521560e21b8152600481018390526001600160a01b038216602482015260009073__$a5a42e46683ad9c79b7b86d5ff60fdf4c1$__906391d1485490604401602060405180830381865af4158015611a41573d6000803e3d6000fd5b505050506040513d601f19601f82011682018060405250810190611a659190612fb5565b9392505050565b611a7533611746565b611a915760405162461bcd60e51b81526004016107a790612d3a565b60405163349e3cd960e11b81526001600160a01b0382811660048301527f0000000000000000000000000000000000000000000000000000000000000000169063693c79b290602401600060405180830381600087803b158015611af457600080fd5b505af1158015611b08573d6000803e3d6000fd5b50506040516001600160a01b03841692507fb4a7f68ad1950fa37a0e8002ea6b109f2ee2b7a6539909dc27463fe5200dc71c9150600090a250565b336001600160a01b031673__$a5a42e46683ad9c79b7b86d5ff60fdf4c1$__638da5cb5b6040518163ffffffff1660e01b8152600401602060405180830381865af4158015611b96573d6000803e3d6000fd5b505050506040513d601f19601f82011682018060405250810190611bba9190612f98565b6001600160a01b031614611c105760405162461bcd60e51b815260206004820152601f60248201527f426173654163636573733a207265737472696374656420746f206f776e65720060448201526064016107a7565b6040516313af403560e01b81526001600160a01b038216600482015273__$a5a42e46683ad9c79b7b86d5ff60fdf4c1$__906313af40359060240160006040518083038186803b158015611c6357600080fd5b505af4158015611c77573d6000803e3d6000fd5b5050505050565b336001600160a01b037f00000000000000000000000000000000000000000000000000000000000000001614611cc65760405162461bcd60e51b81526004016107a790612fd2565b6001611cd0612461565b805460ff191691151591909117905560405133907f54ca6a4cb143be493713a7079cc0d6cdbbf0688ee68398b4354b056088f2cbf590600090a2565b604051630935e01b60e21b815233600482015273__$a5a42e46683ad9c79b7b86d5ff60fdf4c1$__906324d7806c90602401602060405180830381865af4158015611d5b573d6000803e3d6000fd5b505050506040513d601f19601f82011682018060405250810190611d7f9190612fb5565b611d9b5760405162461bcd60e51b81526004016107a790613126565b60405163d547741f60e01b8152600481018390526001600160a01b038216602482015273__$a5a42e46683ad9c79b7b86d5ff60fdf4c1$__9063d547741f90604401610f6d565b60405163c3c5a54760e01b81523360048201527f00000000000000000000000000000000000000000000000000000000000000006001600160a01b03169063c3c5a54790602401602060405180830381865afa158015611e46573d6000803e3d6000fd5b505050506040513d601f19601f82011682018060405250810190611e6a9190612fb5565b611e865760405162461bcd60e51b81526004016107a790613017565b336001600160a01b03166386b70bed6040518163ffffffff1660e01b8152600401602060405180830381865afa158015611ec4573d6000803e3d6000fd5b505050506040513d601f19601f82011682018060405250810190611ee89190612fb5565b611f045760405162461bcd60e51b81526004016107a79061304e565b6040516391026f1960e01b81523360048201526001600160a01b0382811660248301527f000000000000000000000000000000000000000000000000000000000000000016906391026f1990604401600060405180830381600087803b158015611f6d57600080fd5b505af1158015611f81573d6000803e3d6000fd5b50506040513392506001600160a01b03841691507f4d74c7e46459bf5359fc73c9172e714783111c16f0754ee570ef2358bf788a4190600090a350565b611fc733611746565b611fe35760405162461bcd60e51b81526004016107a790612d3a565b6040516219d2db60e51b81526001600160a01b037f0000000000000000000000000000000000000000000000000000000000000000169063033a5b609061203290869086908690600401613184565b600060405180830381600087803b15801561204c57600080fd5b505af1158015612060573d6000803e3d6000fd5b50505050826001600160a01b03167f8c4407955521e664922a84334fc7ae6c76eee5bebb108e6a18591299efb11ade83836040516112ab9291906131a9565b604051630935e01b60e21b815233600482015273__$a5a42e46683ad9c79b7b86d5ff60fdf4c1$__906324d7806c90602401602060405180830381865af41580156120ee573d6000803e3d6000fd5b505050506040513d601f19601f820116820180604052508101906121129190612fb5565b61212e5760405162461bcd60e51b81526004016107a790613126565b60405163e8906a2d60e01b815273__$a5a42e46683ad9c79b7b86d5ff60fdf4c1$__9063e8906a2d90610f6d908590859060040161352c565b60405163c3c5a54760e01b81523360048201526000907f00000000000000000000000000000000000000000000000000000000000000006001600160a01b03169063c3c5a54790602401602060405180830381865afa1580156121ce573d6000803e3d6000fd5b505050506040513d601f19601f820116820180604052508101906121f29190612fb5565b61220e5760405162461bcd60e51b81526004016107a790613017565b336001600160a01b03166386b70bed6040518163ffffffff1660e01b8152600401602060405180830381865afa15801561224c573d6000803e3d6000fd5b505050506040513d601f19601f820116820180604052508101906122709190612fb5565b61228c5760405162461bcd60e51b81526004016107a79061304e565b6040516323109fa560e11b81526001600160a01b037f000000000000000000000000000000000000000000000000000000000000000016906346213f4a906122de9033908890889088906004016131bd565b6020604051808303816000875af11580156122fd573d6000803e3d6000fd5b505050506040513d601f19601f82011682018060405250810190612321919061357a565b9050336001600160a01b0316846001600160a01b03167fb52c461b2acc91ebfc0aff718481ab840088a472e01d28e9c368320cda4c887685858560405161236a93929190613593565b60405180910390a39392505050565b60408051808201909152601481527378722e656e746974792e73746f726167652e763160601b60209091015260008060ff6123d560017fdefc82a28b6578c2a63b29b15450260a5e998242a6300b7fcb30814ee74ae1886135b7565b6040516020016123e791815260200190565b60408051601f1981840301815291905280516020909101201692915050565b60408051808201909152601381527278722e776f726c642e73746f726167652e763160681b60209091015260008060ff6123d560017fbc8378efb4bd30899c6e5d9a95eb33c0dfb78706c9d8aadf9a4218e2dbb5791e6135b7565b60408051808201909152601881527f78722e61637469766174696f6e2e73746f726167652e7631000000000000000060209091015260008060ff6123d560017ff6611e962a52dbc98dd0485088d920890c43e26113c61976f6e171a29d49ce496135b7565b60005b838110156124e15781810151838201526020016124c9565b50506000910152565b600081518084526125028160208601602086016124c6565b601f01601f19169290920160200192915050565b602081526000611a6560208301846124ea565b6001600160a01b038116811461253e57600080fd5b50565b803561254c81612529565b919050565b60006020828403121561256357600080fd5b8135611a6581612529565b634e487b7160e01b600052604160045260246000fd5b604051606081016001600160401b03811182821017156125a6576125a661256e565b60405290565b60405160e081016001600160401b03811182821017156125a6576125a661256e565b60405160c081016001600160401b03811182821017156125a6576125a661256e565b60405160a081016001600160401b03811182821017156125a6576125a661256e565b604051601f8201601f191681016001600160401b038111828210171561263a5761263a61256e565b604052919050565b801515811461253e57600080fd5b803561254c81612642565b60006001600160401b038211156126745761267461256e565b50601f01601f191660200190565b600082601f83011261269357600080fd5b81356126a66126a18261265b565b612612565b8181528460208386010111156126bb57600080fd5b816020850160208301376000918101602001919091529392505050565b803561ffff8116811461254c57600080fd5b6000606082840312156126fc57600080fd5b612704612584565b905061270f826126d8565b815261271d602083016126d8565b60208201526040820135604082015292915050565b60006020828403121561274457600080fd5b81356001600160401b038082111561275b57600080fd5b90830190610120828603121561277057600080fd5b6127786125ac565b61278183612650565b815261278f60208401612541565b60208201526040830135828111156127a657600080fd5b6127b287828601612682565b6040830152506127c586606085016126ea565b606082015260c0830135828111156127dc57600080fd5b6127e887828601612682565b60808301525060e083013560a08201526101008301358281111561280b57600080fd5b61281787828601612682565b60c08301525095945050505050565b60006020828403121561283857600080fd5b81356001600160401b0381111561284e57600080fd5b61285a84828501612682565b949350505050565b60006020828403121561287457600080fd5b81356001600160401b038082111561288b57600080fd5b908301906060828603121561289f57600080fd5b6128a7612584565b8235828111156128b657600080fd5b830160c081880312156128c857600080fd5b6128d06125ce565b8135848111156128df57600080fd5b6128eb89828501612682565b82525060208201358481111561290057600080fd5b61290c89828501612682565b60208301525060408201358481111561292457600080fd5b61293089828501612682565b604083015250606082013560608201526080820135608082015260a082013560a0820152808352505060208301358281111561296b57600080fd5b61297787828601612682565b60208301525060408301358281111561298f57600080fd5b61299b87828601612682565b60408301525095945050505050565b6000602082840312156129bc57600080fd5b5035919050565b600080604083850312156129d657600080fd5b8235915060208301356129e881612529565b809150509250929050565b6000815160c08452612a0860c08501826124ea565b905060208301518482036020860152612a2182826124ea565b91505060408301518482036040860152612a3b82826124ea565b915050606083015160608501526080830151608085015260a083015160a08501528091505092915050565b602081526000611a6560208301846129f3565b60008083601f840112612a8b57600080fd5b5081356001600160401b03811115612aa257600080fd5b602083019150836020828501011115612aba57600080fd5b9250929050565b600080600060408486031215612ad657600080fd5b8335612ae181612529565b925060208401356001600160401b03811115612afc57600080fd5b612b0886828701612a79565b9497909650939450505050565b600060208284031215612b2757600080fd5b81356001600160401b0380821115612b3e57600080fd5b9083019060a08286031215612b5257600080fd5b612b5a6125f0565b8235612b6581612642565b81526020830135612b7581612529565b6020820152612b8660408401612541565b6040820152606083013582811115612b9d57600080fd5b612ba987828601612682565b606083015250608083013582811115612bc157600080fd5b612bcd87828601612682565b60808301525095945050505050565b60008060008060008060808789031215612bf557600080fd5b86356001600160401b0380821115612c0c57600080fd5b612c188a838b01612a79565b909850965060208901359150612c2d82612529565b90945060408801359080821115612c4357600080fd5b9088019060c0828b031215612c5757600080fd5b90935060608801359080821115612c6d57600080fd5b50612c7a89828a01612a79565b979a9699509497509295939492505050565b60008060208385031215612c9f57600080fd5b82356001600160401b0380821115612cb657600080fd5b818501915085601f830112612cca57600080fd5b813581811115612cd957600080fd5b8660208260051b8501011115612cee57600080fd5b60209290920196919550909350505050565b600181811c90821680612d1457607f821691505b602082108103612d3457634e487b7160e01b600052602260045260246000fd5b50919050565b602080825260149082015273456e746974793a206f6e6c79207369676e65727360601b604082015260600190565b600082601f830112612d7957600080fd5b8151612d876126a18261265b565b818152846020838601011115612d9c57600080fd5b61285a8260208301602087016124c6565b600060208284031215612dbf57600080fd5b81516001600160401b0380821115612dd657600080fd5b9083019060c08286031215612dea57600080fd5b612df26125ce565b825182811115612e0157600080fd5b612e0d87828601612d68565b825250602083015182811115612e2257600080fd5b612e2e87828601612d68565b602083015250604083015182811115612e4657600080fd5b612e5287828601612d68565b604083015250606083015160608201526080830151608082015260a083015160a082015280935050505092915050565b634e487b7160e01b600052601160045260246000fd5b600060018201612eaa57612eaa612e82565b5060010190565b60208152612ec460208201835115159052565b60006020830151612ee060408401826001600160a01b03169052565b506040830151610140806060850152612efd6101608501836124ea565b6060860151805161ffff908116608088015260208201511660a0870152604081015160c0870152909250506080850151601f19808685030160e0870152612f4484836129f3565b935060a087015191508086850301610100870152612f6284836124ea565b935060c08701519150808685030161012087015250612f8183826124ea565b92505060e085015181850152508091505092915050565b600060208284031215612faa57600080fd5b8151611a6581612529565b600060208284031215612fc757600080fd5b8151611a6581612642565b60208082526025908201527f52656d6f7661626c65456e746974793a206f6e6c79206f776e696e6720726567604082015264697374727960d81b606082015260800190565b6020808252601d908201527f576f726c643a20436f6d70616e79206e6f742072656769737465726564000000604082015260600190565b60208082526019908201527f576f726c643a20436f6d70616e79206e6f742061637469766500000000000000604082015260600190565b602080825282516001600160a01b031682820152820151608060408301526000906130b360a08401826124ea565b90506040840151601f19808584030160608601526130d183836129f3565b92506060860151915080858403016080860152506130ef82826124ea565b95945050505050565b6000806040838503121561310b57600080fd5b825161311681612529565b6020939093015192949293505050565b6020808252818101527f426173654163636573733a207265737472696374656420746f2061646d696e73604082015260600190565b81835281816020850137506000828201602090810191909152601f909101601f19169091010190565b6001600160a01b03841681526040602082018190526000906130ef908301848661315b565b60208152600061285a60208301848661315b565b6001600160a01b038581168252841660208201526060604082018190526000906131ea908301848661315b565b9695505050505050565b602081528151151560208201526000602083015160018060a01b0380821660408501528060408601511660608501525050606083015160a0608084015261323e60c08401826124ea565b90506080840151601f198483030160a08501526130ef82826124ea565b601f8211156132a3576000816000526020600020601f850160051c810160208610156132845750805b601f850160051c820191505b81811015610f9957828155600101613290565b505050565b6001600160401b038311156132bf576132bf61256e565b6132d3836132cd8354612d00565b8361325b565b6000601f84116001811461330757600085156132ef5750838201355b600019600387901b1c1916600186901b178355611c77565b600083815260209020601f19861690835b828110156133385786850135825560209485019460019092019101613318565b50868210156133555760001960f88860031b161c19848701351681555b505060018560011b0183555050505050565b6000808335601e1984360301811261337e57600080fd5b8301803591506001600160401b0382111561339857600080fd5b602001915036819003821315612aba57600080fd5b6133b78283613367565b6001600160401b038111156133ce576133ce61256e565b6133e2816133dc8554612d00565b8561325b565b6000601f82116001811461341657600083156133fe5750838201355b600019600385901b1c1916600184901b178555613470565b600085815260209020601f19841690835b828110156134475786850135825560209485019460019092019101613427565b50848210156134645760001960f88660031b161c19848701351681555b505060018360011b0185555b505050506134816020830183613367565b61348f8183600186016132a8565b505061349e6040830183613367565b6134ac8183600286016132a8565b5050606082013560038201556080820135600482015560a082013560058201555050565b6001600160a01b038381168252604060208084018290528451918401829052600092858201929091906060860190855b8181101561351e578551851683529483019491830191600101613500565b509098975050505050505050565b60208082528181018390526000908460408401835b8681101561356f57823561355481612529565b6001600160a01b031682529183019190830190600101613541565b509695505050505050565b60006020828403121561358c57600080fd5b5051919050565b6040815260006135a760408301858761315b565b9050826020830152949350505050565b8181038181111561077a5761077a612e8256fea264697066735822122054058159ed8c7c27fef4f8c21a6a621c0f80a4394f2d901b2897e6c6070fe8a864736f6c63430008180033",
  "linkReferences": {
    "contracts/libraries/LibAccess.sol": {
      "LibAccess": [
        {
          "length": 20,
          "start": 3347
        },
        {
          "length": 20,
          "start": 4161
        },
        {
          "length": 20,
          "start": 4436
        },
        {
          "length": 20,
          "start": 4624
        },
        {
          "length": 20,
          "start": 4783
        },
        {
          "length": 20,
          "start": 6695
        },
        {
          "length": 20,
          "start": 6855
        },
        {
          "length": 20,
          "start": 7192
        },
        {
          "length": 20,
          "start": 7329
        },
        {
          "length": 20,
          "start": 7375
        },
        {
          "length": 20,
          "start": 7527
        },
        {
          "length": 20,
          "start": 7855
        },
        {
          "length": 20,
          "start": 8078
        },
        {
          "length": 20,
          "start": 8321
        },
        {
          "length": 20,
          "start": 8480
        },
        {
          "length": 20,
          "start": 9236
        },
        {
          "length": 20,
          "start": 9373
        }
      ]
    }
  },
  "deployedLinkReferences": {
    "contracts/libraries/LibAccess.sol": {
      "LibAccess": [
        {
          "length": 20,
          "start": 2483
        },
        {
          "length": 20,
          "start": 3297
        },
        {
          "length": 20,
          "start": 3572
        },
        {
          "length": 20,
          "start": 3760
        },
        {
          "length": 20,
          "start": 3919
        },
        {
          "length": 20,
          "start": 5831
        },
        {
          "length": 20,
          "start": 5991
        },
        {
          "length": 20,
          "start": 6328
        },
        {
          "length": 20,
          "start": 6465
        },
        {
          "length": 20,
          "start": 6511
        },
        {
          "length": 20,
          "start": 6663
        },
        {
          "length": 20,
          "start": 6991
        },
        {
          "length": 20,
          "start": 7214
        },
        {
          "length": 20,
          "start": 7457
        },
        {
          "length": 20,
          "start": 7616
        },
        {
          "length": 20,
          "start": 8372
        },
        {
          "length": 20,
          "start": 8509
        }
      ]
    }
  }
}