{
  "_format": "hh-sol-artifact-1",
  "contractName": "WorldAddAvatarExt",
  "sourceName": "contracts/extensions/world/WorldAddAvatarExt.sol",
  "abi": [
    {
      "anonymous": false,
      "inputs": [
        {
          "indexed": true,
          "internalType": "address",
          "name": "avatar",
          "type": "address"
        },
        {
          "indexed": true,
          "internalType": "address",
          "name": "owner",
          "type": "address"
        }
      ],
      "name": "WorldAddedAvatar",
      "type": "event"
    },
    {
      "inputs": [
        {
          "components": [
            {
              "internalType": "address",
              "name": "owner",
              "type": "address"
            },
            {
              "internalType": "address",
              "name": "owningRegistry",
              "type": "address"
            },
            {
              "internalType": "address[]",
              "name": "admins",
              "type": "address[]"
            }
          ],
          "internalType": "struct ExtensionInitArgs",
          "name": "args",
          "type": "tuple"
        }
      ],
      "name": "initStorage",
      "outputs": [],
      "stateMutability": "nonpayable",
      "type": "function"
    },
    {
      "inputs": [
        {
          "internalType": "address",
          "name": "myAddress",
          "type": "address"
        }
      ],
      "name": "install",
      "outputs": [],
      "stateMutability": "nonpayable",
      "type": "function"
    },
    {
      "inputs": [],
      "name": "metadata",
      "outputs": [
        {
          "components": [
            {
              "internalType": "string",
              "name": "name",
              "type": "string"
            },
            {
              "components": [
                {
                  "internalType": "uint16",
                  "name": "major",
                  "type": "uint16"
                },
                {
                  "internalType": "uint16",
                  "name": "minor",
                  "type": "uint16"
                }
              ],
              "internalType": "struct Version",
              "name": "version",
              "type": "tuple"
            }
          ],
          "internalType": "struct ExtensionMetadata",
          "name": "",
          "type": "tuple"
        }
      ],
      "stateMutability": "pure",
      "type": "function"
    },
    {
      "inputs": [
        {
          "components": [
            {
              "internalType": "bool",
              "name": "sendTokensToOwner",
              "type": "bool"
            },
            {
              "internalType": "address",
              "name": "owner",
              "type": "address"
            },
            {
              "internalType": "string",
              "name": "name",
              "type": "string"
            },
            {
              "internalType": "bytes",
              "name": "initData",
              "type": "bytes"
            }
          ],
          "internalType": "struct NewAvatarArgs",
          "name": "args",
          "type": "tuple"
        }
      ],
      "name": "registerAvatar",
      "outputs": [
        {
          "internalType": "address",
          "name": "avatar",
          "type": "address"
        }
      ],
      "stateMutability": "payable",
      "type": "function"
    },
    {
      "inputs": [
        {
          "internalType": "address",
          "name": "myAddress",
          "type": "address"
        }
      ],
      "name": "upgrade",
      "outputs": [],
      "stateMutability": "nonpayable",
      "type": "function"
    }
  ],
  "bytecode": "0x608060405234801561001057600080fd5b50610998806100206000396000f3fe60806040526004361061004a5760003560e01c80630900f0101461004f5780632a1b8f9b1461006f578063392f37e91461008f578063729963c0146100ba5780637686e5f5146100d5575b600080fd5b34801561005b57600080fd5b5061006d61006a366004610580565b50565b005b34801561007b57600080fd5b5061006d61008a366004610580565b610100565b34801561009b57600080fd5b506100a4610242565b6040516100b191906105ea565b60405180910390f35b3480156100c657600080fd5b5061006d61006a36600461062f565b6100e86100e336600461074d565b610299565b6040516001600160a01b0390911681526020016100b1565b604080516001808252818301909252600091816020015b6040805180820190915260008152606060208201528152602001906001900390816101175790505090506040518060400160405280637686e5f560e01b6001600160e01b03191681526020016040518060400160405280601d81526020017f7265676973746572417661746172284e65774176617461724172677329000000815250815250816000815181106101af576101af610818565b602002602001018190525073__$307c3a572bdf5d9800a89b3fc2eb3d5604$__63964d13f06040518060400160405280856001600160a01b03168152602001848152506040518263ffffffff1660e01b815260040161020e919061082e565b60006040518083038186803b15801561022657600080fd5b505af415801561023a573d6000803e3d6000fd5b505050505050565b61024a61052f565b506040805160808101825260118183019081527015dbdc9b19105919105d985d185c915e1d607a1b60608301528152815180830190925260018252600060208381019190915281019190915290565b604051637df73e2760e01b815233600482015260009073__$a5a42e46683ad9c79b7b86d5ff60fdf4c1$__90637df73e2790602401602060405180830381865af41580156102eb573d6000803e3d6000fd5b505050506040513d601f19601f8201168201806040525081019061030f91906108c8565b6103715760405162461bcd60e51b815260206004820152602860248201527f576f726c644164644176617461724578743a207265737472696374656420746f604482015267207369676e65727360c01b60648201526084015b60405180910390fd5b6000306001600160a01b031663e3d7ad736040518163ffffffff1660e01b8152600401602060405180830381865afa1580156103b1573d6000803e3d6000fd5b505050506040513d601f19601f820116820180604052508101906103d591906108e5565b90506001600160a01b0381166104415760405162461bcd60e51b815260206004820152602b60248201527f576f726c644164644176617461724578743a20636f6d70616e7920726567697360448201526a1d1c9e481b9bdd081cd95d60aa1b6064820152608401610368565b604080516080810182528451151581526020808601516001600160a01b03908116918301919091528583015182840152606080870151908301529151632a7e520960e21b8152839283169163a9f948249161049f9190600401610902565b6020604051808303816000875af11580156104be573d6000803e3d6000fd5b505050506040513d601f19601f820116820180604052508101906104e291906108e5565b925083602001516001600160a01b0316836001600160a01b03167fae3ac995f520a02d8a5a99cfc75a431f6596a0c592a9d4bca8f044be75c256a160405160405180910390a35050919050565b6040518060400160405280606081526020016105666040518060400160405280600061ffff168152602001600061ffff1681525090565b905290565b6001600160a01b038116811461006a57600080fd5b60006020828403121561059257600080fd5b813561059d8161056b565b9392505050565b6000815180845260005b818110156105ca576020818501810151868301820152016105ae565b506000602082860101526020601f19601f83011685010191505092915050565b60208152600082516060602084015261060660808401826105a4565b602094850151805161ffff90811660408701529501519094166060909301929092525090919050565b60006020828403121561064157600080fd5b813567ffffffffffffffff81111561065857600080fd5b82016060818503121561059d57600080fd5b634e487b7160e01b600052604160045260246000fd5b6040516080810167ffffffffffffffff811182821017156106a3576106a361066a565b60405290565b801515811461006a57600080fd5b600067ffffffffffffffff808411156106d2576106d261066a565b604051601f8501601f19908116603f011681019082821181831017156106fa576106fa61066a565b8160405280935085815286868601111561071357600080fd5b858560208301376000602087830101525050509392505050565b600082601f83011261073e57600080fd5b61059d838335602085016106b7565b60006020828403121561075f57600080fd5b813567ffffffffffffffff8082111561077757600080fd5b908301906080828603121561078b57600080fd5b610793610680565b823561079e816106a9565b815260208301356107ae8161056b565b60208201526040830135828111156107c557600080fd5b8301601f810187136107d657600080fd5b6107e5878235602084016106b7565b6040830152506060830135828111156107fd57600080fd5b6108098782860161072d565b60608301525095945050505050565b634e487b7160e01b600052603260045260246000fd5b602080825282516001600160a01b031682820152828101516040808401819052815160608501819052600093926080600583901b87018101939185019290870190865b818110156108ba57888603607f19018352845180516001600160e01b03191687528701518787018590526108a7858801826105a4565b9650509386019391860191600101610871565b509398975050505050505050565b6000602082840312156108da57600080fd5b815161059d816106a9565b6000602082840312156108f757600080fd5b815161059d8161056b565b6020815281511515602082015260018060a01b036020830151166040820152600060408301516080606084015261093c60a08401826105a4565b90506060840151601f1984830301608085015261095982826105a4565b9594505050505056fea2646970667358221220e7604cfd68c2d3345b0825b4a665f956aa7953d16d227cad72ca41093cc3381864736f6c63430008180033",
  "linkReferences": {
    "contracts/libraries/LibAccess.sol": {
      "LibAccess": [
        {
          "length": 20,
          "start": 721
        }
      ]
    },
    "contracts/libraries/LibExtensions.sol": {
      "LibExtensions": [
        {
          "length": 20,
          "start": 476
        }
      ]
    }
  },
  "deployedLinkReferences": {
    "contracts/libraries/LibAccess.sol": {
      "LibAccess": [
        {
          "length": 20,
          "start": 689
        }
      ]
    },
    "contracts/libraries/LibExtensions.sol": {
      "LibExtensions": [
        {
          "length": 20,
          "start": 444
        }
      ]
    }
  }
}