{
  "_format": "hh-sol-artifact-1",
  "contractName": "WorldRegistryProxy",
  "sourceName": "contracts/world/registry/WorldRegistryProxy.sol",
  "abi": [
    {
      "inputs": [
        {
          "components": [
            {
              "internalType": "address",
              "name": "owner",
              "type": "address"
            },
            {
              "internalType": "address",
              "name": "impl",
              "type": "address"
            },
            {
              "internalType": "address",
              "name": "vectorAuthority",
              "type": "address"
            },
            {
              "internalType": "address[]",
              "name": "admins",
              "type": "address[]"
            }
          ],
          "internalType": "struct WorldRegistryProxyConstructorArgs",
          "name": "args",
          "type": "tuple"
        }
      ],
      "stateMutability": "nonpayable",
      "type": "constructor"
    },
    {
      "stateMutability": "payable",
      "type": "fallback"
    },
    {
      "inputs": [],
      "name": "getImplementation",
      "outputs": [
        {
          "internalType": "address",
          "name": "",
          "type": "address"
        }
      ],
      "stateMutability": "view",
      "type": "function"
    },
    {
      "inputs": [],
      "name": "getVersion",
      "outputs": [
        {
          "components": [
            {
              "internalType": "uint16",
              "name": "major",
              "type": "uint16"
            },
            {
              "internalType": "uint16",
              "name": "minor",
              "type": "uint16"
            }
          ],
          "internalType": "struct Version",
          "name": "",
          "type": "tuple"
        }
      ],
      "stateMutability": "view",
      "type": "function"
    },
    {
      "inputs": [
        {
          "internalType": "address",
          "name": "_implementation",
          "type": "address"
        }
      ],
      "name": "setImplementation",
      "outputs": [],
      "stateMutability": "nonpayable",
      "type": "function"
    },
    {
      "stateMutability": "payable",
      "type": "receive"
    }
  ],
  "bytecode": "0x60806040523480156200001157600080fd5b5060405162000c4f38038062000c4f833981016040819052620000349162000503565b60408051606080820183526020808501516001600160a01b0390811680855286519091169184019190915290840151928201929092529080620000d25760405162461bcd60e51b815260206004820152602b60248201527f456e7469747950726f78793a20696d706c656d656e746174696f6e206973207a60448201526a65726f206164647265737360a81b60648201526084015b60405180910390fd5b6000620000de620002bf565b80546001600160a01b0319166001600160a01b03841690811782556040805163054fd4d560e41b8152815193945091926354fd4d509260048082019392918290030181865afa15801562000136573d6000803e3d6000fd5b505050506040513d601f19601f820116820180604052508101906200015c919062000639565b805160018301805460209384015161ffff908116620100000263ffffffff19909216931692909217919091179055830151604080850151905163d9ac971f60e01b815273__$a5a42e46683ad9c79b7b86d5ff60fdf4c1$__9263d9ac971f92620001c9926004016200069b565b60006040518083038186803b158015620001e257600080fd5b505af4158015620001f7573d6000803e3d6000fd5b50505060408501516001600160a01b0316935062000282925050505760405162461bcd60e51b815260206004820152603460248201527f576f726c64526567697374727950726f78793a20766563746f7220617574686f60448201527f72697479206973207a65726f20616464726573730000000000000000000000006064820152608401620000c9565b620002b87ff4624c0c441d71d84320078141641151f1c713f1d4d2a15382f6a42904d8d13882604001516200035860201b60201c565b5062000721565b60408051808201909152601a81527f78722e656e746974792e70726f78792e73746f726167652e763100000000000060209091015260008060ff6200032660017f96b317a1f8708070b2a4511a91a099fe6a60c4eb4156e5391ede34997b5f7246620006f9565b6040516020016200033991815260200190565b60408051601f1981840301815291905280516020909101201692915050565b6001600160a01b038116620003c95760405162461bcd60e51b815260206004820152603060248201527f416363657373436f6e74726f6c3a2063616e6e6f74206772616e7420726f6c6560448201526f20746f207a65726f206164647265737360801b6064820152608401620000c9565b6000620003d56200040b565b60009384526001908101602090815260408086206001600160a01b03909516865293905291909220805460ff1916909117905550565b60408051808201909152601481527f78722e6163636573732e73746f726167652e763100000000000000000000000060209091015260008060ff6200032660017fd870894b15ee1369a593f3670ac51c4ed8201dab473944ee712694d327dd5875620006f9565b634e487b7160e01b600052604160045260246000fd5b604051608081016001600160401b0381118282101715620004ad57620004ad62000472565b60405290565b604051601f8201601f191681016001600160401b0381118282101715620004de57620004de62000472565b604052919050565b80516001600160a01b0381168114620004fe57600080fd5b919050565b600060208083850312156200051757600080fd5b82516001600160401b03808211156200052f57600080fd5b90840190608082870312156200054457600080fd5b6200054e62000488565b6200055983620004e6565b815262000568848401620004e6565b848201526200057a60408401620004e6565b60408201526060830151828111156200059257600080fd5b80840193505086601f840112620005a857600080fd5b825182811115620005bd57620005bd62000472565b8060051b9250620005d0858401620004b3565b8181529284018501928581019089851115620005eb57600080fd5b948601945b8486101562000614576200060486620004e6565b82529486019490860190620005f0565b60608401525090979650505050505050565b805161ffff81168114620004fe57600080fd5b6000604082840312156200064c57600080fd5b604080519081016001600160401b038111828210171562000671576200067162000472565b6040526200067f8362000626565b81526200068f6020840162000626565b60208201529392505050565b6001600160a01b038381168252604060208084018290528451918401829052600092858201929091906060860190855b81811015620006eb578551851683529483019491830191600101620006cb565b509098975050505050505050565b818103818111156200071b57634e487b7160e01b600052601160045260246000fd5b92915050565b61051e80620007316000396000f3fe6080604052600436106100385760003560e01c80630d8e6e2c146100db578063aaf10f4214610117578063d784d426146101445761003f565b3661003f57005b6000610049610164565b80549091506001600160a01b0316806100b55760405162461bcd60e51b815260206004820152602360248201527f456e7469747950726f78793a20696d706c656d656e746174696f6e206e6f74206044820152621cd95d60ea1b60648201526084015b60405180910390fd5b3660008037600080366000845af43d6000803e8080156100d4573d6000f35b3d6000fd5b005b3480156100e757600080fd5b506100f06101fa565b60408051825161ffff90811682526020938401511692810192909252015b60405180910390f35b34801561012357600080fd5b5061012c610243565b6040516001600160a01b03909116815260200161010e565b34801561015057600080fd5b506100d961015f366004610400565b61025e565b60408051808201909152601a81527f78722e656e746974792e70726f78792e73746f726167652e763100000000000060209091015260008060ff6101c960017f96b317a1f8708070b2a4511a91a099fe6a60c4eb4156e5391ede34997b5f7246610424565b6040516020016101db91815260200190565b60408051601f1981840301815291905280516020909101201692915050565b60408051808201909152600080825260208201526000610218610164565b6040805180820190915260019091015461ffff80821683526201000090910416602082015292915050565b60008061024e610164565b546001600160a01b031692915050565b336001600160a01b031673__$a5a42e46683ad9c79b7b86d5ff60fdf4c1$__638da5cb5b6040518163ffffffff1660e01b8152600401602060405180830381865af41580156102b1573d6000803e3d6000fd5b505050506040513d601f19601f820116820180604052508101906102d5919061044b565b6001600160a01b03161461032b5760405162461bcd60e51b815260206004820181905260248201527f456e7469747950726f78793a207265737472696374656420746f206f776e657260448201526064016100ac565b6000816001600160a01b03166354fd4d506040518163ffffffff1660e01b81526004016040805180830381865afa15801561036a573d6000803e3d6000fd5b505050506040513d601f19601f8201168201806040525081019061038e919061047f565b9050600061039a610164565b80546001600160a01b039094166001600160a01b03199094169390931783555080516001909201805460209092015161ffff908116620100000263ffffffff19909316931692909217179055565b6001600160a01b03811681146103fd57600080fd5b50565b60006020828403121561041257600080fd5b813561041d816103e8565b9392505050565b8181038181111561044557634e487b7160e01b600052601160045260246000fd5b92915050565b60006020828403121561045d57600080fd5b815161041d816103e8565b805161ffff8116811461047a57600080fd5b919050565b60006040828403121561049157600080fd5b6040516040810181811067ffffffffffffffff821117156104c257634e487b7160e01b600052604160045260246000fd5b6040526104ce83610468565b81526104dc60208401610468565b6020820152939250505056fea2646970667358221220e4bc0ebd6dbe39338f147f936d54c37f226103fde653f1da6cb0ecac4211d26a64736f6c63430008180033",
  "linkReferences": {
    "contracts/libraries/LibAccess.sol": {
      "LibAccess": [
        {
          "length": 20,
          "start": 417
        },
        {
          "length": 20,
          "start": 2459
        }
      ]
    }
  },
  "deployedLinkReferences": {
    "contracts/libraries/LibAccess.sol": {
      "LibAccess": [
        {
          "length": 20,
          "start": 618
        }
      ]
    }
  }
}