{
  "_format": "hh-sol-artifact-1",
  "contractName": "World",
  "sourceName": "contracts/world/instance/World.sol",
  "abi": [
    {
      "inputs": [
        {
          "components": [
            {
              "internalType": "address",
              "name": "extensionResolver",
              "type": "address"
            },
            {
              "internalType": "address",
              "name": "owningRegistry",
              "type": "address"
            },
            {
              "internalType": "address",
              "name": "registrarRegistry",
              "type": "address"
            },
            {
              "internalType": "address",
              "name": "companyRegistry",
              "type": "address"
            }
          ],
          "internalType": "struct WorldConstructorArgs",
          "name": "args",
          "type": "tuple"
        }
      ],
      "stateMutability": "nonpayable",
      "type": "constructor"
    },
    {
      "anonymous": false,
      "inputs": [
        {
          "indexed": false,
          "internalType": "string",
          "name": "name",
          "type": "string"
        }
      ],
      "name": "ExtensionDisabled",
      "type": "event"
    },
    {
      "anonymous": false,
      "inputs": [
        {
          "indexed": false,
          "internalType": "string",
          "name": "name",
          "type": "string"
        }
      ],
      "name": "ExtensionEnabled",
      "type": "event"
    },
    {
      "anonymous": false,
      "inputs": [
        {
          "indexed": false,
          "internalType": "string",
          "name": "name",
          "type": "string"
        },
        {
          "components": [
            {
              "internalType": "uint16",
              "name": "major",
              "type": "uint16"
            },
            {
              "internalType": "uint16",
              "name": "minor",
              "type": "uint16"
            }
          ],
          "indexed": false,
          "internalType": "struct Version",
          "name": "version",
          "type": "tuple"
        }
      ],
      "name": "ExtensionInstalled",
      "type": "event"
    },
    {
      "anonymous": false,
      "inputs": [
        {
          "indexed": false,
          "internalType": "string",
          "name": "name",
          "type": "string"
        },
        {
          "components": [
            {
              "internalType": "uint16",
              "name": "major",
              "type": "uint16"
            },
            {
              "internalType": "uint16",
              "name": "minor",
              "type": "uint16"
            }
          ],
          "indexed": false,
          "internalType": "struct Version",
          "name": "version",
          "type": "tuple"
        }
      ],
      "name": "ExtensionRolledBack",
      "type": "event"
    },
    {
      "anonymous": false,
      "inputs": [
        {
          "indexed": false,
          "internalType": "string",
          "name": "name",
          "type": "string"
        },
        {
          "components": [
            {
              "internalType": "uint16",
              "name": "major",
              "type": "uint16"
            },
            {
              "internalType": "uint16",
              "name": "minor",
              "type": "uint16"
            }
          ],
          "indexed": false,
          "internalType": "struct Version",
          "name": "version",
          "type": "tuple"
        }
      ],
      "name": "ExtensionUpgraded",
      "type": "event"
    },
    {
      "anonymous": false,
      "inputs": [
        {
          "indexed": false,
          "internalType": "bytes4",
          "name": "selector",
          "type": "bytes4"
        }
      ],
      "name": "SelectorDisabled",
      "type": "event"
    },
    {
      "anonymous": false,
      "inputs": [
        {
          "indexed": false,
          "internalType": "bytes4",
          "name": "selector",
          "type": "bytes4"
        }
      ],
      "name": "SelectorEnabled",
      "type": "event"
    },
    {
      "stateMutability": "payable",
      "type": "fallback"
    },
    {
      "inputs": [],
      "name": "baseVector",
      "outputs": [
        {
          "components": [
            {
              "internalType": "string",
              "name": "x",
              "type": "string"
            },
            {
              "internalType": "string",
              "name": "y",
              "type": "string"
            },
            {
              "internalType": "string",
              "name": "z",
              "type": "string"
            },
            {
              "internalType": "uint256",
              "name": "t",
              "type": "uint256"
            },
            {
              "internalType": "uint256",
              "name": "p",
              "type": "uint256"
            },
            {
              "internalType": "uint256",
              "name": "p_sub",
              "type": "uint256"
            }
          ],
          "internalType": "struct VectorAddress",
          "name": "",
          "type": "tuple"
        }
      ],
      "stateMutability": "view",
      "type": "function"
    },
    {
      "inputs": [],
      "name": "companyRegistry",
      "outputs": [
        {
          "internalType": "address",
          "name": "",
          "type": "address"
        }
      ],
      "stateMutability": "view",
      "type": "function"
    },
    {
      "inputs": [],
      "name": "extResolver",
      "outputs": [
        {
          "internalType": "contract IExtensionResolver",
          "name": "",
          "type": "address"
        }
      ],
      "stateMutability": "view",
      "type": "function"
    },
    {
      "inputs": [
        {
          "internalType": "string",
          "name": "name",
          "type": "string"
        }
      ],
      "name": "getExtensionVersion",
      "outputs": [
        {
          "components": [
            {
              "internalType": "uint16",
              "name": "major",
              "type": "uint16"
            },
            {
              "internalType": "uint16",
              "name": "minor",
              "type": "uint16"
            }
          ],
          "internalType": "struct Version",
          "name": "",
          "type": "tuple"
        }
      ],
      "stateMutability": "view",
      "type": "function"
    },
    {
      "inputs": [
        {
          "internalType": "string",
          "name": "name",
          "type": "string"
        },
        {
          "components": [
            {
              "internalType": "uint16",
              "name": "major",
              "type": "uint16"
            },
            {
              "internalType": "uint16",
              "name": "minor",
              "type": "uint16"
            }
          ],
          "internalType": "struct Version",
          "name": "version",
          "type": "tuple"
        }
      ],
      "name": "hasExtension",
      "outputs": [
        {
          "internalType": "bool",
          "name": "",
          "type": "bool"
        }
      ],
      "stateMutability": "view",
      "type": "function"
    },
    {
      "inputs": [
        {
          "components": [
            {
              "internalType": "address",
              "name": "owner",
              "type": "address"
            },
            {
              "internalType": "address",
              "name": "termsOwner",
              "type": "address"
            },
            {
              "internalType": "address",
              "name": "registry",
              "type": "address"
            },
            {
              "internalType": "string",
              "name": "name",
              "type": "string"
            },
            {
              "components": [
                {
                  "internalType": "string",
                  "name": "x",
                  "type": "string"
                },
                {
                  "internalType": "string",
                  "name": "y",
                  "type": "string"
                },
                {
                  "internalType": "string",
                  "name": "z",
                  "type": "string"
                },
                {
                  "internalType": "uint256",
                  "name": "t",
                  "type": "uint256"
                },
                {
                  "internalType": "uint256",
                  "name": "p",
                  "type": "uint256"
                },
                {
                  "internalType": "uint256",
                  "name": "p_sub",
                  "type": "uint256"
                }
              ],
              "internalType": "struct VectorAddress",
              "name": "vector",
              "type": "tuple"
            },
            {
              "internalType": "bytes",
              "name": "initData",
              "type": "bytes"
            }
          ],
          "internalType": "struct CommonInitArgs",
          "name": "args",
          "type": "tuple"
        }
      ],
      "name": "init",
      "outputs": [],
      "stateMutability": "nonpayable",
      "type": "function"
    },
    {
      "inputs": [],
      "name": "name",
      "outputs": [
        {
          "internalType": "string",
          "name": "",
          "type": "string"
        }
      ],
      "stateMutability": "view",
      "type": "function"
    },
    {
      "inputs": [],
      "name": "registrarRegistry",
      "outputs": [
        {
          "internalType": "contract IRegistrarRegistry",
          "name": "",
          "type": "address"
        }
      ],
      "stateMutability": "view",
      "type": "function"
    },
    {
      "inputs": [],
      "name": "version",
      "outputs": [
        {
          "components": [
            {
              "internalType": "uint16",
              "name": "major",
              "type": "uint16"
            },
            {
              "internalType": "uint16",
              "name": "minor",
              "type": "uint16"
            }
          ],
          "internalType": "struct Version",
          "name": "",
          "type": "tuple"
        }
      ],
      "stateMutability": "pure",
      "type": "function"
    },
    {
      "inputs": [
        {
          "internalType": "uint256",
          "name": "amount",
          "type": "uint256"
        }
      ],
      "name": "withdraw",
      "outputs": [],
      "stateMutability": "nonpayable",
      "type": "function"
    },
    {
      "inputs": [],
      "name": "worldRegistry",
      "outputs": [
        {
          "internalType": "contract IWorldRegistry",
          "name": "",
          "type": "address"
        }
      ],
      "stateMutability": "view",
      "type": "function"
    },
    {
      "stateMutability": "payable",
      "type": "receive"
    }
  ],
  "bytecode": "0x6101006040523480156200001257600080fd5b50604051620019a5380380620019a5833981016040819052620000359162000260565b80516001600160a01b038116620000b95760405162461bcd60e51b815260206004820152603660248201527f456e746974795368656c6c3a20657874656e73696f6e207265736f6c7665722060448201527f63616e6e6f74206265207a65726f20616464726573730000000000000000000060648201526084015b60405180910390fd5b6001600160a01b03908116608052602082015116620001305760405162461bcd60e51b815260206004820152602c60248201527f576f726c643a206f776e696e6752656769737472792063616e6e6f742062652060448201526b7a65726f206164647265737360a01b6064820152608401620000b0565b60408101516001600160a01b0316620001a45760405162461bcd60e51b815260206004820152602f60248201527f576f726c643a2072656769737472617252656769737472792063616e6e6f742060448201526e6265207a65726f206164647265737360881b6064820152608401620000b0565b60608101516001600160a01b0316620002165760405162461bcd60e51b815260206004820152602d60248201527f576f726c643a20636f6d70616e7952656769737472792063616e6e6f7420626560448201526c207a65726f206164647265737360981b6064820152608401620000b0565b60408101516001600160a01b0390811660c0526020820151811660a0526060909101511660e052620002f4565b80516001600160a01b03811681146200025b57600080fd5b919050565b6000608082840312156200027357600080fd5b604051608081016001600160401b0381118282101715620002a457634e487b7160e01b600052604160045260246000fd5b604052620002b28362000243565b8152620002c26020840162000243565b6020820152620002d56040840162000243565b6040820152620002e86060840162000243565b60608201529392505050565b60805160a05160c05160e05161165b6200034a60003960006102660152600061029a01526000818161021a01526109650152600081816102ce015281816103280152818161045901526108db015261165b6000f3fe6080604052600436106100a05760003560e01c806354fd4d501161006457806354fd4d50146101b057806369a10a12146101e8578063911c2a8c14610208578063c51aba2b14610254578063dbdc4e6214610288578063dd2a44c1146102bc576100a7565b806306fdde03146100cf578063238a0386146100fa5780632e1a7d4d1461013c5780633f995c2c1461015e57806347d1d09a14610180576100a7565b366100a757005b600080356001600160e01b031916905060006100c5826000366102f0565b9050805160208201f35b3480156100db57600080fd5b506100e461039d565b6040516100f19190610d21565b60405180910390f35b34801561010657600080fd5b5061011a610115366004610e22565b610438565b60408051825161ffff90811682526020938401511692810192909252016100f1565b34801561014857600080fd5b5061015c610157366004610e57565b6104dc565b005b34801561016a57600080fd5b50610173610699565b6040516100f19190610e70565b34801561018c57600080fd5b506101a061019b366004610ef3565b6108c1565b60405190151581526020016100f1565b3480156101bc57600080fd5b50604080518082018252600080825260209182018190528251808401909352600183529082015261011a565b3480156101f457600080fd5b5061015c610203366004610f4d565b61095a565b34801561021457600080fd5b5061023c7f000000000000000000000000000000000000000000000000000000000000000081565b6040516001600160a01b0390911681526020016100f1565b34801561026057600080fd5b5061023c7f000000000000000000000000000000000000000000000000000000000000000081565b34801561029457600080fd5b5061023c7f000000000000000000000000000000000000000000000000000000000000000081565b3480156102c857600080fd5b5061023c7f000000000000000000000000000000000000000000000000000000000000000081565b604051631162ec5760e01b815260609073__$307c3a572bdf5d9800a89b3fc2eb3d5604$__90631162ec5790610350908790879087907f000000000000000000000000000000000000000000000000000000000000000090600401610f88565b600060405180830381865af415801561036d573d6000803e3d6000fd5b505050506040513d6000823e601f3d908101601f191682016040526103959190810190610fda565b949350505050565b60606103a7610c3b565b60020180546103b590611051565b80601f01602080910402602001604051908101604052809291908181526020018280546103e190611051565b801561042e5780601f106104035761010080835404028352916020019161042e565b820191906000526020600020905b81548152906001019060200180831161041157829003601f168201915b5050505050905090565b6040805180820182526000808252602082015290516311c501c360e11b81527f00000000000000000000000000000000000000000000000000000000000000006001600160a01b03169063238a038690610496908590600401610d21565b6040805180830381865afa1580156104b2573d6000803e3d6000fd5b505050506040513d601f19601f820116820180604052508101906104d6919061109e565b92915050565b604051630935e01b60e21b815233600482015273__$a5a42e46683ad9c79b7b86d5ff60fdf4c1$__906324d7806c90602401602060405180830381865af415801561052b573d6000803e3d6000fd5b505050506040513d601f19601f8201168201806040525081019061054f91906110fd565b6105a05760405162461bcd60e51b815260206004820181905260248201527f42617369635368656c6c3a207265737472696374656420746f2061646d696e7360448201526064015b60405180910390fd5b478111156105f05760405162461bcd60e51b815260206004820181905260248201527f42617369635368656c6c3a20696e73756666696369656e742062616c616e63656044820152606401610597565b73__$a5a42e46683ad9c79b7b86d5ff60fdf4c1$__638da5cb5b6040518163ffffffff1660e01b8152600401602060405180830381865af4158015610639573d6000803e3d6000fd5b505050506040513d601f19601f8201168201806040525081019061065d9190611134565b6001600160a01b03166108fc829081150290604051600060405180830381858888f19350505050158015610695573d6000803e3d6000fd5b5050565b6106d26040518060c001604052806060815260200160608152602001606081526020016000815260200160008152602001600081525090565b6106da610c3b565b6003016040518060c00160405290816000820180546106f890611051565b80601f016020809104026020016040519081016040528092919081815260200182805461072490611051565b80156107715780601f1061074657610100808354040283529160200191610771565b820191906000526020600020905b81548152906001019060200180831161075457829003601f168201915b5050505050815260200160018201805461078a90611051565b80601f01602080910402602001604051908101604052809291908181526020018280546107b690611051565b80156108035780601f106107d857610100808354040283529160200191610803565b820191906000526020600020905b8154815290600101906020018083116107e657829003601f168201915b5050505050815260200160028201805461081c90611051565b80601f016020809104026020016040519081016040528092919081815260200182805461084890611051565b80156108955780601f1061086a57610100808354040283529160200191610895565b820191906000526020600020905b81548152906001019060200180831161087857829003601f168201915b505050505081526020016003820154815260200160048201548152602001600582015481525050905090565b6040516323e8e84d60e11b81526000906001600160a01b037f000000000000000000000000000000000000000000000000000000000000000016906347d1d09a906109129086908690600401611151565b602060405180830381865afa15801561092f573d6000803e3d6000fd5b505050506040513d601f19601f8201168201806040525081019061095391906110fd565b9392505050565b336001600160a01b037f000000000000000000000000000000000000000000000000000000000000000016146109d25760405162461bcd60e51b815260206004820152601a60248201527f576f726c643a206f6e6c7920776f726c642072656769737472790000000000006044820152606401610597565b60006109e4604083016020840161119d565b6001600160a01b031603610a495760405162461bcd60e51b815260206004820152602660248201527f576f726c643a207465726d73206f776e657220697320746865207a65726f206160448201526564647265737360d01b6064820152608401610597565b6000610a5860608301836111ba565b905011610aa75760405162461bcd60e51b815260206004820152601b60248201527f576f726c643a206e616d652063616e6e6f7420626520656d70747900000000006044820152606401610597565b60408051600080825260208201909252905073__$a5a42e46683ad9c79b7b86d5ff60fdf4c1$__63d9ac971f610ae0602085018561119d565b836040518363ffffffff1660e01b8152600401610afe929190611208565b60006040518083038186803b158015610b1657600080fd5b505af4158015610b2a573d6000803e3d6000fd5b50610b3c925050506080830183611264565b610b4590611284565b6040516361d9624d60e01b815273__$ad2b23306edd42b5f4873830e307b82d47$__916361d9624d91610b8091906000908190600401611337565b60006040518083038186803b158015610b9857600080fd5b505af4158015610bac573d6000803e3d6000fd5b505050506000610bba610c3b565b805460ff191660011781559050610bd460608401846111ba565b6002830191610be491908361141f565b50610bf26080840184611264565b60038201610c0082826114e0565b50610c139050604084016020850161119d565b81546001600160a01b0391909116620100000262010000600160b01b03199091161790555050565b60408051808201909152601881527f78722e61637469766174696f6e2e73746f726167652e7631000000000000000060209091015260008060ff610ca060017ff6611e962a52dbc98dd0485088d920890c43e26113c61976f6e171a29d49ce49611604565b604051602001610cb291815260200190565b60408051601f1981840301815291905280516020909101201692915050565b60005b83811015610cec578181015183820152602001610cd4565b50506000910152565b60008151808452610d0d816020860160208601610cd1565b601f01601f19169290920160200192915050565b6020815260006109536020830184610cf5565b634e487b7160e01b600052604160045260246000fd5b60405160c0810167ffffffffffffffff81118282101715610d6d57610d6d610d34565b60405290565b604051601f8201601f1916810167ffffffffffffffff81118282101715610d9c57610d9c610d34565b604052919050565b600067ffffffffffffffff821115610dbe57610dbe610d34565b50601f01601f191660200190565b600082601f830112610ddd57600080fd5b8135610df0610deb82610da4565b610d73565b818152846020838601011115610e0557600080fd5b816020850160208301376000918101602001919091529392505050565b600060208284031215610e3457600080fd5b813567ffffffffffffffff811115610e4b57600080fd5b61039584828501610dcc565b600060208284031215610e6957600080fd5b5035919050565b602081526000825160c06020840152610e8c60e0840182610cf5565b90506020840151601f1980858403016040860152610eaa8383610cf5565b9250604086015191508085840301606086015250610ec88282610cf5565b91505060608401516080840152608084015160a084015260a084015160c08401528091505092915050565b6000808284036060811215610f0757600080fd5b833567ffffffffffffffff811115610f1e57600080fd5b610f2a86828701610dcc565b9350506040601f1982011215610f3f57600080fd5b506020830190509250929050565b600060208284031215610f5f57600080fd5b813567ffffffffffffffff811115610f7657600080fd5b820160c0818503121561095357600080fd5b63ffffffff60e01b85168152606060208201528260608201528284608083013760008184016080908101919091526001600160a01b03929092166040820152601f909201601f19169091010192915050565b600060208284031215610fec57600080fd5b815167ffffffffffffffff81111561100357600080fd5b8201601f8101841361101457600080fd5b8051611022610deb82610da4565b81815285602083850101111561103757600080fd5b611048826020830160208601610cd1565b95945050505050565b600181811c9082168061106557607f821691505b60208210810361108557634e487b7160e01b600052602260045260246000fd5b50919050565b61ffff8116811461109b57600080fd5b50565b6000604082840312156110b057600080fd5b6040516040810181811067ffffffffffffffff821117156110d3576110d3610d34565b60405282516110e18161108b565b815260208301516110f18161108b565b60208201529392505050565b60006020828403121561110f57600080fd5b8151801515811461095357600080fd5b6001600160a01b038116811461109b57600080fd5b60006020828403121561114657600080fd5b81516109538161111f565b6060815260006111646060830185610cf5565b905082356111718161108b565b61ffff80821660208501526020850135915061118c8261108b565b808216604085015250509392505050565b6000602082840312156111af57600080fd5b81356109538161111f565b6000808335601e198436030181126111d157600080fd5b83018035915067ffffffffffffffff8211156111ec57600080fd5b60200191503681900382131561120157600080fd5b9250929050565b6001600160a01b038381168252604060208084018290528451918401829052600092858201929091906060860190855b81811015611256578551851683529483019491830191600101611238565b509098975050505050505050565b6000823560be1983360301811261127a57600080fd5b9190910192915050565b600060c0823603121561129657600080fd5b61129e610d4a565b823567ffffffffffffffff808211156112b657600080fd5b6112c236838701610dcc565b835260208501359150808211156112d857600080fd5b6112e436838701610dcc565b602084015260408501359150808211156112fd57600080fd5b5061130a36828601610dcc565b604083015250606083013560608201526080830135608082015260a083013560a082015280915050919050565b606081526000845160c06060840152611354610120840182610cf5565b90506020860151605f19808584030160808601526113728383610cf5565b925060408801519150808584030160a0860152506113908282610cf5565b606088015160c0860152608088015160e086015260a0880151610100860152861515602086015292506113c1915050565b8215156040830152610395565b601f82111561141a576000816000526020600020601f850160051c810160208610156113f75750805b601f850160051c820191505b8181101561141657828155600101611403565b5050505b505050565b67ffffffffffffffff83111561143757611437610d34565b61144b836114458354611051565b836113ce565b6000601f84116001811461147f57600085156114675750838201355b600019600387901b1c1916600186901b1783556114d9565b600083815260209020601f19861690835b828110156114b05786850135825560209485019460019092019101611490565b50868210156114cd5760001960f88860031b161c19848701351681555b505060018560011b0183555b5050505050565b6114ea82836111ba565b67ffffffffffffffff81111561150257611502610d34565b611516816115108554611051565b856113ce565b6000601f82116001811461154a57600083156115325750838201355b600019600385901b1c1916600184901b1785556115a4565b600085815260209020601f19841690835b8281101561157b578685013582556020948501946001909201910161155b565b50848210156115985760001960f88660031b161c19848701351681555b505060018360011b0185555b505050506115b560208301836111ba565b6115c381836001860161141f565b50506115d260408301836111ba565b6115e081836002860161141f565b5050606082013560038201556080820135600482015560a082013560058201555050565b818103818111156104d657634e487b7160e01b600052601160045260246000fdfea2646970667358221220e99fed97ff80de1933aabd36bad744bafbd72bfa12ba9af8a704adc57663ce4d64736f6c63430008180033",
  "linkReferences": {
    "contracts/libraries/LibAccess.sol": {
      "LibAccess": [
        {
          "length": 20,
          "start": 2107
        },
        {
          "length": 20,
          "start": 2364
        },
        {
          "length": 20,
          "start": 3589
        }
      ]
    },
    "contracts/libraries/LibExtensions.sol": {
      "LibExtensions": [
        {
          "length": 20,
          "start": 1612
        }
      ]
    },
    "contracts/libraries/LibVectorAddress.sol": {
      "LibVectorAddress": [
        {
          "length": 20,
          "start": 3742
        }
      ]
    }
  },
  "deployedLinkReferences": {
    "contracts/libraries/LibAccess.sol": {
      "LibAccess": [
        {
          "length": 20,
          "start": 1265
        },
        {
          "length": 20,
          "start": 1522
        },
        {
          "length": 20,
          "start": 2747
        }
      ]
    },
    "contracts/libraries/LibExtensions.sol": {
      "LibExtensions": [
        {
          "length": 20,
          "start": 770
        }
      ]
    },
    "contracts/libraries/LibVectorAddress.sol": {
      "LibVectorAddress": [
        {
          "length": 20,
          "start": 2900
        }
      ]
    }
  }
}