{
  "_format": "hh-sol-artifact-1",
  "contractName": "WorldRegistrationExt",
  "sourceName": "contracts/extensions/registry/world/WorldRegistrationExt.sol",
  "abi": [
    {
      "anonymous": false,
      "inputs": [
        {
          "indexed": true,
          "internalType": "address",
          "name": "entity",
          "type": "address"
        },
        {
          "indexed": true,
          "internalType": "address",
          "name": "owner",
          "type": "address"
        }
      ],
      "name": "RegistryAddedEntity",
      "type": "event"
    },
    {
      "anonymous": false,
      "inputs": [
        {
          "indexed": true,
          "internalType": "address",
          "name": "old",
          "type": "address"
        },
        {
          "indexed": false,
          "internalType": "address",
          "name": "newVersion",
          "type": "address"
        }
      ],
      "name": "RegistryUpgradedEntity",
      "type": "event"
    },
    {
      "inputs": [
        {
          "components": [
            {
              "internalType": "address",
              "name": "entity",
              "type": "address"
            },
            {
              "internalType": "bytes",
              "name": "entitySignature",
              "type": "bytes"
            },
            {
              "internalType": "uint256",
              "name": "expiration",
              "type": "uint256"
            },
            {
              "components": [
                {
                  "internalType": "uint16",
                  "name": "coveragePeriodDays",
                  "type": "uint16"
                },
                {
                  "internalType": "uint16",
                  "name": "gracePeriodDays",
                  "type": "uint16"
                },
                {
                  "internalType": "uint256",
                  "name": "fee",
                  "type": "uint256"
                }
              ],
              "internalType": "struct RegistrationTerms",
              "name": "terms",
              "type": "tuple"
            }
          ],
          "internalType": "struct ChangeEntityTermsArgs",
          "name": "args",
          "type": "tuple"
        }
      ],
      "name": "changeEntityTerms",
      "outputs": [],
      "stateMutability": "nonpayable",
      "type": "function"
    },
    {
      "inputs": [
        {
          "components": [
            {
              "internalType": "bool",
              "name": "sendTokensToOwner",
              "type": "bool"
            },
            {
              "internalType": "address",
              "name": "owner",
              "type": "address"
            },
            {
              "internalType": "string",
              "name": "name",
              "type": "string"
            },
            {
              "components": [
                {
                  "internalType": "uint16",
                  "name": "coveragePeriodDays",
                  "type": "uint16"
                },
                {
                  "internalType": "uint16",
                  "name": "gracePeriodDays",
                  "type": "uint16"
                },
                {
                  "internalType": "uint256",
                  "name": "fee",
                  "type": "uint256"
                }
              ],
              "internalType": "struct RegistrationTerms",
              "name": "terms",
              "type": "tuple"
            },
            {
              "components": [
                {
                  "internalType": "string",
                  "name": "x",
                  "type": "string"
                },
                {
                  "internalType": "string",
                  "name": "y",
                  "type": "string"
                },
                {
                  "internalType": "string",
                  "name": "z",
                  "type": "string"
                },
                {
                  "internalType": "uint256",
                  "name": "t",
                  "type": "uint256"
                },
                {
                  "internalType": "uint256",
                  "name": "p",
                  "type": "uint256"
                },
                {
                  "internalType": "uint256",
                  "name": "p_sub",
                  "type": "uint256"
                }
              ],
              "internalType": "struct VectorAddress",
              "name": "vector",
              "type": "tuple"
            },
            {
              "internalType": "bytes",
              "name": "initData",
              "type": "bytes"
            },
            {
              "internalType": "bytes",
              "name": "ownerTermsSignature",
              "type": "bytes"
            },
            {
              "internalType": "uint256",
              "name": "expiration",
              "type": "uint256"
            }
          ],
          "internalType": "struct CreateWorldArgs",
          "name": "args",
          "type": "tuple"
        }
      ],
      "name": "createWorld",
      "outputs": [
        {
          "internalType": "address",
          "name": "",
          "type": "address"
        }
      ],
      "stateMutability": "payable",
      "type": "function"
    },
    {
      "inputs": [
        {
          "internalType": "string",
          "name": "name",
          "type": "string"
        }
      ],
      "name": "getEntityByName",
      "outputs": [
        {
          "internalType": "address",
          "name": "",
          "type": "address"
        }
      ],
      "stateMutability": "view",
      "type": "function"
    },
    {
      "inputs": [
        {
          "components": [
            {
              "internalType": "address",
              "name": "owner",
              "type": "address"
            },
            {
              "internalType": "address",
              "name": "owningRegistry",
              "type": "address"
            },
            {
              "internalType": "address[]",
              "name": "admins",
              "type": "address[]"
            }
          ],
          "internalType": "struct ExtensionInitArgs",
          "name": "args",
          "type": "tuple"
        }
      ],
      "name": "initStorage",
      "outputs": [],
      "stateMutability": "nonpayable",
      "type": "function"
    },
    {
      "inputs": [
        {
          "internalType": "address",
          "name": "myAddress",
          "type": "address"
        }
      ],
      "name": "install",
      "outputs": [],
      "stateMutability": "nonpayable",
      "type": "function"
    },
    {
      "inputs": [
        {
          "internalType": "address",
          "name": "addr",
          "type": "address"
        }
      ],
      "name": "isRegistered",
      "outputs": [
        {
          "internalType": "bool",
          "name": "",
          "type": "bool"
        }
      ],
      "stateMutability": "view",
      "type": "function"
    },
    {
      "inputs": [],
      "name": "metadata",
      "outputs": [
        {
          "components": [
            {
              "internalType": "string",
              "name": "name",
              "type": "string"
            },
            {
              "components": [
                {
                  "internalType": "uint16",
                  "name": "major",
                  "type": "uint16"
                },
                {
                  "internalType": "uint16",
                  "name": "minor",
                  "type": "uint16"
                }
              ],
              "internalType": "struct Version",
              "name": "version",
              "type": "tuple"
            }
          ],
          "internalType": "struct ExtensionMetadata",
          "name": "",
          "type": "tuple"
        }
      ],
      "stateMutability": "pure",
      "type": "function"
    },
    {
      "inputs": [],
      "name": "register",
      "outputs": [],
      "stateMutability": "nonpayable",
      "type": "function"
    },
    {
      "inputs": [
        {
          "internalType": "address",
          "name": "myAddress",
          "type": "address"
        }
      ],
      "name": "upgrade",
      "outputs": [],
      "stateMutability": "nonpayable",
      "type": "function"
    }
  ],
  "bytecode": "0x608060405234801561001057600080fd5b5061193f806100206000396000f3fe6080604052600436106100865760003560e01c80633e88a4e2116100595780633e88a4e21461010b5780634d4965f314610143578063729963c014610163578063c3c5a5471461017e578063c9affa47146101ae57600080fd5b80630900f0101461008b5780631aa3a008146100ab5780632a1b8f9b146100c0578063392f37e9146100e0575b600080fd5b34801561009757600080fd5b506100a96100a6366004610ff2565b50565b005b3480156100b757600080fd5b506100a96101c1565b3480156100cc57600080fd5b506100a96100db366004610ff2565b610245565b3480156100ec57600080fd5b506100f56104ce565b604051610102919061105c565b60405180910390f35b34801561011757600080fd5b5061012b6101263660046110a1565b610528565b6040516001600160a01b039091168152602001610102565b34801561014f57600080fd5b506100a961015e366004611113565b6105ae565b34801561016f57600080fd5b506100a96100a636600461114e565b34801561018a57600080fd5b5061019e610199366004610ff2565b610618565b6040519015158152602001610102565b61012b6101bc366004611189565b610697565b6101ca33610618565b610243576040805162461bcd60e51b81526020600482015260248101919091527f526567697374726174696f6e4578743a206f6e6c79207265676973746572656460448201527f20656e7469746965732063616e2063616c6c20746869732066756e6374696f6e60648201526084015b60405180910390fd5b565b60408051600480825260a08201909252600091816020015b60408051808201909152600081526060602082015281526020019060019003908161025d5790505090506040518060400160405280633e88a4e260e01b6001600160e01b03191681526020016040518060400160405280601781526020017f676574456e7469747942794e616d6528737472696e6729000000000000000000815250815250816000815181106102f5576102f56111db565b60200260200101819052506040518060400160405280634d4965f360e01b6001600160e01b03191681526020016040518060600160405280602c81526020016118de602c913981525081600181518110610351576103516111db565b6020026020010181905250604051806040016040528063c3c5a54760e01b6001600160e01b03191681526020016040518060400160405280601581526020017469735265676973746572656428616464726573732960581b815250815250816002815181106103c2576103c26111db565b6020026020010181905250604051806040016040528063c9affa4760e01b6001600160e01b03191681526020016040518060400160405280601d81526020017f637265617465576f726c6428437265617465456e7469747941726773290000008152508152508160038151811061043b5761043b6111db565b602002602001018190525073__$307c3a572bdf5d9800a89b3fc2eb3d5604$__63964d13f06040518060400160405280856001600160a01b03168152602001848152506040518263ffffffff1660e01b815260040161049a91906111f1565b60006040518083038186803b1580156104b257600080fd5b505af41580156104c6573d6000803e3d6000fd5b505050505050565b6104d6610fa1565b506040805160808101825260148183019081527315dbdc9b19149959da5cdd1c985d1a5bdb915e1d60621b60608301528152815180830190925260018252600060208381019190915281019190915290565b604051631f44527160e11b815260009073__$d81eab81c4f96e94de97b51155a369ac43$__90633e88a4e29061056490869086906004016112b4565b602060405180830381865af4158015610581573d6000803e3d6000fd5b505050506040513d601f19601f820116820180604052508101906105a591906112d0565b90505b92915050565b604051630bca13f760e41b815273__$d81eab81c4f96e94de97b51155a369ac43$__9063bca13f70906105e590849060040161132e565b60006040518083038186803b1580156105fd57600080fd5b505af4158015610611573d6000803e3d6000fd5b5050505050565b60405163c3c5a54760e01b81526001600160a01b038216600482015260009073__$d81eab81c4f96e94de97b51155a369ac43$__9063c3c5a54790602401602060405180830381865af4158015610673573d6000803e3d6000fd5b505050506040513d601f19601f820116820180604052508101906105a891906113d3565b6000306001600160a01b031663dbdc4e626040518163ffffffff1660e01b8152600401602060405180830381865afa1580156106d7573d6000803e3d6000fd5b505050506040513d601f19601f820116820180604052508101906106fb91906112d0565b60405163c3c5a54760e01b81523360048201526001600160a01b03919091169063c3c5a54790602401602060405180830381865afa158015610741573d6000803e3d6000fd5b505050506040513d601f19601f8201168201806040525081019061076591906113d3565b6107d75760405162461bcd60e51b815260206004820152603a60248201527f576f726c64526567697374726174696f6e4578743a2063616c6c65722069732060448201527f6e6f742061207265676973746572656420726567697374726172000000000000606482015260840161023a565b336001600160a01b0316634f05c1c86040518163ffffffff1660e01b8152600401602060405180830381865afa158015610815573d6000803e3d6000fd5b505050506040513d601f19601f8201168201806040525081019061083991906113d3565b6108985760405162461bcd60e51b815260206004820152602a60248201527f576f726c64526567697374726174696f6e3a20726567697374726172206973206044820152696e6f742061637469766560b01b606482015260840161023a565b60006108aa60a08401608085016113f0565b61ffff16116109305760405162461bcd60e51b815260206004820152604660248201527f576f726c64526567697374726174696f6e4578743a206772616365207065726960448201527f6f6420726571756972656420666f722072656d6f7661626c65207265676973746064820152653930ba34b7b760d11b608482015260a40161023a565b61093d60c083018361140b565b610946906114e1565b6040516361d9624d60e01b815273__$ad2b23306edd42b5f4873830e307b82d47$__916361d9624d9161098191906000908190600401611607565b60006040518083038186803b15801561099957600080fd5b505af41580156109ad573d6000803e3d6000fd5b5050505060006040518060a001604052808460200160208101906109d19190610ff2565b6001600160a01b031681523360208201526040016109f736869003860160608701611631565b81526101208501356020820152604001610a15610100860186611699565b8080601f016020809104026020016040519081016040528093929190818152602001838380828437600092019190915250505091525060405163bf52415b60e01b815290915073__$d81eab81c4f96e94de97b51155a369ac43$__9063bf52415b90610a859084906004016116e7565b60006040518083038186803b158015610a9d57600080fd5b505af4158015610ab1573d6000803e3d6000fd5b505050506000610abf610e4a565b8054909150600090610ad9906001600160a01b0316610ee0565b90506001600160a01b038116610b425760405162461bcd60e51b815260206004820152602860248201527f576f726c64526567697374726174696f6e3a20656e7469747920636c6f6e696e60448201526719c819985a5b195960c21b606482015260840161023a565b60006040518060c00160405280876020016020810190610b629190610ff2565b6001600160a01b03168152602001336001600160a01b03168152602001306001600160a01b03168152602001878060400190610b9e9190611699565b8080601f016020809104026020016040519081016040528093929190818152602001838380828437600092019190915250505090825250602001610be560c089018961140b565b610bee906114e1565b8152602001610c0060e0890189611699565b8080601f01602080910402602001604051908101604052809392919081815260200183838082843760009201919091525050509152506040516334d0850960e11b81529091506001600160a01b038316906369a10a1290610c65908490600401611757565b600060405180830381600087803b158015610c7f57600080fd5b505af1158015610c93573d6000803e3d6000fd5b5050505060006040518060600160405280846001600160a01b0316815260200188606001803603810190610cc79190611631565b8152602001610cd960c08a018a61140b565b610ce2906114e1565b905260405163474df87960e01b815290915073__$d81eab81c4f96e94de97b51155a369ac43$__9063474df87990610d1e908490600401611840565b60006040518083038186803b158015610d3657600080fd5b505af4158015610d4a573d6000803e3d6000fd5b505050506000341115610dee57610d64602088018861189f565b15610db757610d796040880160208901610ff2565b6001600160a01b03166108fc349081150290604051600060405180830381858888f19350505050158015610db1573d6000803e3d6000fd5b50610dee565b6040516001600160a01b038416903480156108fc02916000818181858888f19350505050158015610dec573d6000803e3d6000fd5b505b610dfe6040880160208901610ff2565b6001600160a01b0316836001600160a01b03167f7377123f9eb561d749cd3a89a83c22035cad6473521acbb981ee1c52d8f0248560405160405180910390a3509093505050505b919050565b60408051808201909152601c81527f78722e656e746974792e666163746f72792e73746f726167652e76310000000060209091015260008060ff610eaf60017f8b4ac7cd4466ab0d50fe53a88c5446ca4a450d482bef9ad792e7d9f451497e0f6118bc565b604051602001610ec191815260200190565b60408051601f1981840301815291905280516020909101201692915050565b60006001600160a01b038216610f505760405162461bcd60e51b815260206004820152602f60248201527f4c6962436c6f6e653a20696d706c656d656e746174696f6e2063616e6e6f742060448201526e6265207a65726f206164647265737360881b606482015260840161023a565b60008260601b9050604051733d602d80600a3d3981f3363d3d373d3d3d363d7360601b81528160148201526e5af43d82803e903d91602b57fd5bf360881b60288201526037816000f0949350505050565b604051806040016040528060608152602001610fd86040518060400160405280600061ffff168152602001600061ffff1681525090565b905290565b6001600160a01b03811681146100a657600080fd5b60006020828403121561100457600080fd5b813561100f81610fdd565b9392505050565b6000815180845260005b8181101561103c57602081850181015186830182015201611020565b506000602082860101526020601f19601f83011685010191505092915050565b6020815260008251606060208401526110786080840182611016565b602094850151805161ffff90811660408701529501519094166060909301929092525090919050565b600080602083850312156110b457600080fd5b823567ffffffffffffffff808211156110cc57600080fd5b818501915085601f8301126110e057600080fd5b8135818111156110ef57600080fd5b86602082850101111561110157600080fd5b60209290920196919550909350505050565b60006020828403121561112557600080fd5b813567ffffffffffffffff81111561113c57600080fd5b820160c0818503121561100f57600080fd5b60006020828403121561116057600080fd5b813567ffffffffffffffff81111561117757600080fd5b82016060818503121561100f57600080fd5b60006020828403121561119b57600080fd5b813567ffffffffffffffff8111156111b257600080fd5b8201610140818503121561100f57600080fd5b634e487b7160e01b600052604160045260246000fd5b634e487b7160e01b600052603260045260246000fd5b602080825282516001600160a01b031682820152828101516040808401819052815160608501819052600093926080600583901b87018101939185019290870190865b8181101561127d57888603607f19018352845180516001600160e01b031916875287015187870185905261126a85880182611016565b9650509386019391860191600101611234565b509398975050505050505050565b81835281816020850137506000828201602090810191909152601f909101601f19169091010190565b6020815260006112c860208301848661128b565b949350505050565b6000602082840312156112e257600080fd5b815161100f81610fdd565b803561ffff81168114610e4557600080fd5b61ffff8061130c836112ed565b1683528061131c602084016112ed565b16602084015250604090810135910152565b602081526000823561133f81610fdd565b6001600160a01b031660208381019190915283013536849003601e1901811261136757600080fd5b830160208101903567ffffffffffffffff81111561138457600080fd5b80360382131561139357600080fd5b60c060408501526113a860e08501828461128b565b9150506040840135606084015261100f60808401606086016112ff565b80151581146100a657600080fd5b6000602082840312156113e557600080fd5b815161100f816113c5565b60006020828403121561140257600080fd5b6105a5826112ed565b6000823560be1983360301811261142157600080fd5b9190910192915050565b60405160c0810167ffffffffffffffff8111828210171561144e5761144e6111c5565b60405290565b600082601f83011261146557600080fd5b813567ffffffffffffffff80821115611480576114806111c5565b604051601f8301601f19908116603f011681019082821181831017156114a8576114a86111c5565b816040528381528660208588010111156114c157600080fd5b836020870160208301376000602085830101528094505050505092915050565b600060c082360312156114f357600080fd5b6114fb61142b565b823567ffffffffffffffff8082111561151357600080fd5b61151f36838701611454565b8352602085013591508082111561153557600080fd5b61154136838701611454565b6020840152604085013591508082111561155a57600080fd5b5061156736828601611454565b604083015250606083013560608201526080830135608082015260a083013560a082015280915050919050565b6000815160c084526115a960c0850182611016565b9050602083015184820360208601526115c28282611016565b915050604083015184820360408601526115dc8282611016565b915050606083015160608501526080830151608085015260a083015160a08501528091505092915050565b60608152600061161a6060830186611594565b931515602083015250901515604090910152919050565b60006060828403121561164357600080fd5b6040516060810181811067ffffffffffffffff82111715611666576116666111c5565b604052611672836112ed565b8152611680602084016112ed565b6020820152604083013560408201528091505092915050565b6000808335601e198436030181126116b057600080fd5b83018035915067ffffffffffffffff8211156116cb57600080fd5b6020019150368190038213156116e057600080fd5b9250929050565b602080825282516001600160a01b0390811683830152838201511660408084019190915280840151805161ffff908116606086015292810151909216608084015281015160a083015260009050606083015160c0830152608083015160e0808401526112c8610100840182611016565b60208152600060018060a01b0380845116602084015280602085015116604084015280604085015116606084015250606083015160c0608084015261179f60e0840182611016565b90506080840151601f19808584030160a0860152815160c084526117c660c0850182611016565b9050602083015184820360208601526117df8282611016565b915050604083015184820360408601526117f98282611016565b915050606083015160608501526080830151608085015260a083015160a085015260a08701519350818682030160c08701526118358185611016565b979650505050505050565b602080825282516001600160a01b031682820152820151600090611886604084018261ffff80825116835280602083015116602084015250604081015160408301525050565b50604083015160a0808401526112c860c0840182611594565b6000602082840312156118b157600080fd5b813561100f816113c5565b818103818111156105a857634e487b7160e01b600052601160045260246000fdfe6368616e6765456e746974795465726d7328616464726573732c526567697374726174696f6e5465726d7329a26469706673582212201dbf15cba3f0bddf0d518a230d149b53721090af5566b4362f53ad17c3f5357d64736f6c63430008180033",
  "linkReferences": {
    "contracts/libraries/LibExtensions.sol": {
      "LibExtensions": [
        {
          "length": 20,
          "start": 1128
        }
      ]
    },
    "contracts/libraries/LibRegistration.sol": {
      "LibRegistration": [
        {
          "length": 20,
          "start": 1370
        },
        {
          "length": 20,
          "start": 1501
        },
        {
          "length": 20,
          "start": 1625
        },
        {
          "length": 20,
          "start": 2685
        },
        {
          "length": 20,
          "start": 3350
        }
      ]
    },
    "contracts/libraries/LibVectorAddress.sol": {
      "LibVectorAddress": [
        {
          "length": 20,
          "start": 2421
        }
      ]
    }
  },
  "deployedLinkReferences": {
    "contracts/libraries/LibExtensions.sol": {
      "LibExtensions": [
        {
          "length": 20,
          "start": 1096
        }
      ]
    },
    "contracts/libraries/LibRegistration.sol": {
      "LibRegistration": [
        {
          "length": 20,
          "start": 1338
        },
        {
          "length": 20,
          "start": 1469
        },
        {
          "length": 20,
          "start": 1593
        },
        {
          "length": 20,
          "start": 2653
        },
        {
          "length": 20,
          "start": 3318
        }
      ]
    },
    "contracts/libraries/LibVectorAddress.sol": {
      "LibVectorAddress": [
        {
          "length": 20,
          "start": 2389
        }
      ]
    }
  }
}