{
  "_format": "hh-sol-artifact-1",
  "contractName": "World",
  "sourceName": "contracts/world/instance/World.sol",
  "abi": [
    {
      "inputs": [
        {
          "components": [
            {
              "internalType": "address",
              "name": "extensionResolver",
              "type": "address"
            },
            {
              "internalType": "address",
              "name": "owningRegistry",
              "type": "address"
            },
            {
              "internalType": "address",
              "name": "registrarRegistry",
              "type": "address"
            },
            {
              "internalType": "address",
              "name": "companyRegistry",
              "type": "address"
            },
            {
              "internalType": "address",
              "name": "avatarRegistry",
              "type": "address"
            },
            {
              "internalType": "address",
              "name": "experienceRegistry",
              "type": "address"
            }
          ],
          "internalType": "struct WorldConstructorArgs",
          "name": "args",
          "type": "tuple"
        }
      ],
      "stateMutability": "nonpayable",
      "type": "constructor"
    },
    {
      "anonymous": false,
      "inputs": [
        {
          "indexed": false,
          "internalType": "string",
          "name": "name",
          "type": "string"
        }
      ],
      "name": "ExtensionDisabled",
      "type": "event"
    },
    {
      "anonymous": false,
      "inputs": [
        {
          "indexed": false,
          "internalType": "string",
          "name": "name",
          "type": "string"
        }
      ],
      "name": "ExtensionEnabled",
      "type": "event"
    },
    {
      "anonymous": false,
      "inputs": [
        {
          "indexed": false,
          "internalType": "string",
          "name": "name",
          "type": "string"
        },
        {
          "components": [
            {
              "internalType": "uint16",
              "name": "major",
              "type": "uint16"
            },
            {
              "internalType": "uint16",
              "name": "minor",
              "type": "uint16"
            }
          ],
          "indexed": false,
          "internalType": "struct Version",
          "name": "version",
          "type": "tuple"
        }
      ],
      "name": "ExtensionInstalled",
      "type": "event"
    },
    {
      "anonymous": false,
      "inputs": [
        {
          "indexed": false,
          "internalType": "string",
          "name": "name",
          "type": "string"
        },
        {
          "components": [
            {
              "internalType": "uint16",
              "name": "major",
              "type": "uint16"
            },
            {
              "internalType": "uint16",
              "name": "minor",
              "type": "uint16"
            }
          ],
          "indexed": false,
          "internalType": "struct Version",
          "name": "version",
          "type": "tuple"
        }
      ],
      "name": "ExtensionRolledBack",
      "type": "event"
    },
    {
      "anonymous": false,
      "inputs": [
        {
          "indexed": false,
          "internalType": "string",
          "name": "name",
          "type": "string"
        },
        {
          "components": [
            {
              "internalType": "uint16",
              "name": "major",
              "type": "uint16"
            },
            {
              "internalType": "uint16",
              "name": "minor",
              "type": "uint16"
            }
          ],
          "indexed": false,
          "internalType": "struct Version",
          "name": "version",
          "type": "tuple"
        }
      ],
      "name": "ExtensionUpgraded",
      "type": "event"
    },
    {
      "anonymous": false,
      "inputs": [
        {
          "indexed": false,
          "internalType": "bytes4",
          "name": "selector",
          "type": "bytes4"
        }
      ],
      "name": "SelectorDisabled",
      "type": "event"
    },
    {
      "anonymous": false,
      "inputs": [
        {
          "indexed": false,
          "internalType": "bytes4",
          "name": "selector",
          "type": "bytes4"
        }
      ],
      "name": "SelectorEnabled",
      "type": "event"
    },
    {
      "stateMutability": "payable",
      "type": "fallback"
    },
    {
      "inputs": [],
      "name": "avatarRegistry",
      "outputs": [
        {
          "internalType": "address",
          "name": "",
          "type": "address"
        }
      ],
      "stateMutability": "view",
      "type": "function"
    },
    {
      "inputs": [],
      "name": "baseVector",
      "outputs": [
        {
          "components": [
            {
              "internalType": "string",
              "name": "x",
              "type": "string"
            },
            {
              "internalType": "string",
              "name": "y",
              "type": "string"
            },
            {
              "internalType": "string",
              "name": "z",
              "type": "string"
            },
            {
              "internalType": "uint256",
              "name": "t",
              "type": "uint256"
            },
            {
              "internalType": "uint256",
              "name": "p",
              "type": "uint256"
            },
            {
              "internalType": "uint256",
              "name": "p_sub",
              "type": "uint256"
            }
          ],
          "internalType": "struct VectorAddress",
          "name": "",
          "type": "tuple"
        }
      ],
      "stateMutability": "view",
      "type": "function"
    },
    {
      "inputs": [],
      "name": "companyRegistry",
      "outputs": [
        {
          "internalType": "address",
          "name": "",
          "type": "address"
        }
      ],
      "stateMutability": "view",
      "type": "function"
    },
    {
      "inputs": [],
      "name": "experienceRegistry",
      "outputs": [
        {
          "internalType": "address",
          "name": "",
          "type": "address"
        }
      ],
      "stateMutability": "view",
      "type": "function"
    },
    {
      "inputs": [],
      "name": "extResolver",
      "outputs": [
        {
          "internalType": "contract IExtensionResolver",
          "name": "",
          "type": "address"
        }
      ],
      "stateMutability": "view",
      "type": "function"
    },
    {
      "inputs": [
        {
          "internalType": "string",
          "name": "name",
          "type": "string"
        }
      ],
      "name": "getExtensionVersion",
      "outputs": [
        {
          "components": [
            {
              "internalType": "uint16",
              "name": "major",
              "type": "uint16"
            },
            {
              "internalType": "uint16",
              "name": "minor",
              "type": "uint16"
            }
          ],
          "internalType": "struct Version",
          "name": "",
          "type": "tuple"
        }
      ],
      "stateMutability": "view",
      "type": "function"
    },
    {
      "inputs": [
        {
          "internalType": "string",
          "name": "name",
          "type": "string"
        },
        {
          "components": [
            {
              "internalType": "uint16",
              "name": "major",
              "type": "uint16"
            },
            {
              "internalType": "uint16",
              "name": "minor",
              "type": "uint16"
            }
          ],
          "internalType": "struct Version",
          "name": "version",
          "type": "tuple"
        }
      ],
      "name": "hasExtension",
      "outputs": [
        {
          "internalType": "bool",
          "name": "",
          "type": "bool"
        }
      ],
      "stateMutability": "view",
      "type": "function"
    },
    {
      "inputs": [
        {
          "components": [
            {
              "internalType": "address",
              "name": "owner",
              "type": "address"
            },
            {
              "internalType": "address",
              "name": "termsOwner",
              "type": "address"
            },
            {
              "internalType": "address",
              "name": "registry",
              "type": "address"
            },
            {
              "internalType": "string",
              "name": "name",
              "type": "string"
            },
            {
              "components": [
                {
                  "internalType": "string",
                  "name": "x",
                  "type": "string"
                },
                {
                  "internalType": "string",
                  "name": "y",
                  "type": "string"
                },
                {
                  "internalType": "string",
                  "name": "z",
                  "type": "string"
                },
                {
                  "internalType": "uint256",
                  "name": "t",
                  "type": "uint256"
                },
                {
                  "internalType": "uint256",
                  "name": "p",
                  "type": "uint256"
                },
                {
                  "internalType": "uint256",
                  "name": "p_sub",
                  "type": "uint256"
                }
              ],
              "internalType": "struct VectorAddress",
              "name": "vector",
              "type": "tuple"
            },
            {
              "internalType": "bytes",
              "name": "initData",
              "type": "bytes"
            }
          ],
          "internalType": "struct CommonInitArgs",
          "name": "args",
          "type": "tuple"
        }
      ],
      "name": "init",
      "outputs": [],
      "stateMutability": "nonpayable",
      "type": "function"
    },
    {
      "inputs": [],
      "name": "name",
      "outputs": [
        {
          "internalType": "string",
          "name": "",
          "type": "string"
        }
      ],
      "stateMutability": "view",
      "type": "function"
    },
    {
      "inputs": [],
      "name": "registrarRegistry",
      "outputs": [
        {
          "internalType": "contract IRegistrarRegistry",
          "name": "",
          "type": "address"
        }
      ],
      "stateMutability": "view",
      "type": "function"
    },
    {
      "inputs": [],
      "name": "version",
      "outputs": [
        {
          "components": [
            {
              "internalType": "uint16",
              "name": "major",
              "type": "uint16"
            },
            {
              "internalType": "uint16",
              "name": "minor",
              "type": "uint16"
            }
          ],
          "internalType": "struct Version",
          "name": "",
          "type": "tuple"
        }
      ],
      "stateMutability": "pure",
      "type": "function"
    },
    {
      "inputs": [
        {
          "internalType": "uint256",
          "name": "amount",
          "type": "uint256"
        }
      ],
      "name": "withdraw",
      "outputs": [],
      "stateMutability": "nonpayable",
      "type": "function"
    },
    {
      "inputs": [],
      "name": "worldRegistry",
      "outputs": [
        {
          "internalType": "contract IWorldRegistry",
          "name": "",
          "type": "address"
        }
      ],
      "stateMutability": "view",
      "type": "function"
    },
    {
      "stateMutability": "payable",
      "type": "receive"
    }
  ],
  "bytecode": "0x6101406040523480156200001257600080fd5b5060405162001b6b38038062001b6b83398101604081905262000035916200035c565b80516001600160a01b038116620000b95760405162461bcd60e51b815260206004820152603660248201527f456e746974795368656c6c3a20657874656e73696f6e207265736f6c7665722060448201527f63616e6e6f74206265207a65726f20616464726573730000000000000000000060648201526084015b60405180910390fd5b6001600160a01b03908116608052602082015116620001305760405162461bcd60e51b815260206004820152602c60248201527f576f726c643a206f776e696e6752656769737472792063616e6e6f742062652060448201526b7a65726f206164647265737360a01b6064820152608401620000b0565b60408101516001600160a01b0316620001a45760405162461bcd60e51b815260206004820152602f60248201527f576f726c643a2072656769737472617252656769737472792063616e6e6f742060448201526e6265207a65726f206164647265737360881b6064820152608401620000b0565b60608101516001600160a01b0316620002165760405162461bcd60e51b815260206004820152602d60248201527f576f726c643a20636f6d70616e7952656769737472792063616e6e6f7420626560448201526c207a65726f206164647265737360981b6064820152608401620000b0565b60808101516001600160a01b0316620002875760405162461bcd60e51b815260206004820152602c60248201527f576f726c643a2061766174617252656769737472792063616e6e6f742062652060448201526b7a65726f206164647265737360a01b6064820152608401620000b0565b60a08101516001600160a01b0316620002fc5760405162461bcd60e51b815260206004820152603060248201527f576f726c643a20657870657269656e636552656769737472792063616e6e6f7460448201526f206265207a65726f206164647265737360801b6064820152608401620000b0565b60408101516001600160a01b0390811660c0526020820151811660a09081526060830151821660e052608083015182166101005290910151166101205262000416565b80516001600160a01b03811681146200035757600080fd5b919050565b600060c082840312156200036f57600080fd5b60405160c081016001600160401b0381118282101715620003a057634e487b7160e01b600052604160045260246000fd5b604052620003ae836200033f565b8152620003be602084016200033f565b6020820152620003d1604084016200033f565b6040820152620003e4606084016200033f565b6060820152620003f7608084016200033f565b60808201526200040a60a084016200033f565b60a08201529392505050565b60805160a05160c05160e05161010051610120516116e96200048260003960006102400152600061035c015260006102c0015260006102f401526000818161028c01526109f3015260008181610328015281816103b6015281816104e7015261096901526116e96000f3fe6080604052600436106100c65760003560e01c806369a10a121161007f578063c51aba2b11610059578063c51aba2b146102ae578063dbdc4e62146102e2578063dd2a44c114610316578063e3d7ad731461034a576100cd565b806369a10a121461020e5780638f09a6be1461022e578063911c2a8c1461027a576100cd565b806306fdde03146100f5578063238a0386146101205780632e1a7d4d146101625780633f995c2c1461018457806347d1d09a146101a657806354fd4d50146101d6576100cd565b366100cd57005b600080356001600160e01b031916905060006100eb8260003661037e565b9050805160208201f35b34801561010157600080fd5b5061010a61042b565b6040516101179190610daf565b60405180910390f35b34801561012c57600080fd5b5061014061013b366004610eb0565b6104c6565b60408051825161ffff9081168252602093840151169281019290925201610117565b34801561016e57600080fd5b5061018261017d366004610ee5565b61056a565b005b34801561019057600080fd5b50610199610727565b6040516101179190610efe565b3480156101b257600080fd5b506101c66101c1366004610f81565b61094f565b6040519015158152602001610117565b3480156101e257600080fd5b506040805180820182526000808252602091820181905282518084019093526001835290820152610140565b34801561021a57600080fd5b50610182610229366004610fdb565b6109e8565b34801561023a57600080fd5b506102627f000000000000000000000000000000000000000000000000000000000000000081565b6040516001600160a01b039091168152602001610117565b34801561028657600080fd5b506102627f000000000000000000000000000000000000000000000000000000000000000081565b3480156102ba57600080fd5b506102627f000000000000000000000000000000000000000000000000000000000000000081565b3480156102ee57600080fd5b506102627f000000000000000000000000000000000000000000000000000000000000000081565b34801561032257600080fd5b506102627f000000000000000000000000000000000000000000000000000000000000000081565b34801561035657600080fd5b506102627f000000000000000000000000000000000000000000000000000000000000000081565b604051631162ec5760e01b815260609073__$307c3a572bdf5d9800a89b3fc2eb3d5604$__90631162ec57906103de908790879087907f000000000000000000000000000000000000000000000000000000000000000090600401611016565b600060405180830381865af41580156103fb573d6000803e3d6000fd5b505050506040513d6000823e601f3d908101601f191682016040526104239190810190611068565b949350505050565b6060610435610cc9565b6002018054610443906110df565b80601f016020809104026020016040519081016040528092919081815260200182805461046f906110df565b80156104bc5780601f10610491576101008083540402835291602001916104bc565b820191906000526020600020905b81548152906001019060200180831161049f57829003601f168201915b5050505050905090565b6040805180820182526000808252602082015290516311c501c360e11b81527f00000000000000000000000000000000000000000000000000000000000000006001600160a01b03169063238a038690610524908590600401610daf565b6040805180830381865afa158015610540573d6000803e3d6000fd5b505050506040513d601f19601f82011682018060405250810190610564919061112c565b92915050565b604051630935e01b60e21b815233600482015273__$a5a42e46683ad9c79b7b86d5ff60fdf4c1$__906324d7806c90602401602060405180830381865af41580156105b9573d6000803e3d6000fd5b505050506040513d601f19601f820116820180604052508101906105dd919061118b565b61062e5760405162461bcd60e51b815260206004820181905260248201527f42617369635368656c6c3a207265737472696374656420746f2061646d696e7360448201526064015b60405180910390fd5b4781111561067e5760405162461bcd60e51b815260206004820181905260248201527f42617369635368656c6c3a20696e73756666696369656e742062616c616e63656044820152606401610625565b73__$a5a42e46683ad9c79b7b86d5ff60fdf4c1$__638da5cb5b6040518163ffffffff1660e01b8152600401602060405180830381865af41580156106c7573d6000803e3d6000fd5b505050506040513d601f19601f820116820180604052508101906106eb91906111c2565b6001600160a01b03166108fc829081150290604051600060405180830381858888f19350505050158015610723573d6000803e3d6000fd5b5050565b6107606040518060c001604052806060815260200160608152602001606081526020016000815260200160008152602001600081525090565b610768610cc9565b6003016040518060c0016040529081600082018054610786906110df565b80601f01602080910402602001604051908101604052809291908181526020018280546107b2906110df565b80156107ff5780601f106107d4576101008083540402835291602001916107ff565b820191906000526020600020905b8154815290600101906020018083116107e257829003601f168201915b50505050508152602001600182018054610818906110df565b80601f0160208091040260200160405190810160405280929190818152602001828054610844906110df565b80156108915780601f1061086657610100808354040283529160200191610891565b820191906000526020600020905b81548152906001019060200180831161087457829003601f168201915b505050505081526020016002820180546108aa906110df565b80601f01602080910402602001604051908101604052809291908181526020018280546108d6906110df565b80156109235780601f106108f857610100808354040283529160200191610923565b820191906000526020600020905b81548152906001019060200180831161090657829003601f168201915b505050505081526020016003820154815260200160048201548152602001600582015481525050905090565b6040516323e8e84d60e11b81526000906001600160a01b037f000000000000000000000000000000000000000000000000000000000000000016906347d1d09a906109a090869086906004016111df565b602060405180830381865afa1580156109bd573d6000803e3d6000fd5b505050506040513d601f19601f820116820180604052508101906109e1919061118b565b9392505050565b336001600160a01b037f00000000000000000000000000000000000000000000000000000000000000001614610a605760405162461bcd60e51b815260206004820152601a60248201527f576f726c643a206f6e6c7920776f726c642072656769737472790000000000006044820152606401610625565b6000610a72604083016020840161122b565b6001600160a01b031603610ad75760405162461bcd60e51b815260206004820152602660248201527f576f726c643a207465726d73206f776e657220697320746865207a65726f206160448201526564647265737360d01b6064820152608401610625565b6000610ae66060830183611248565b905011610b355760405162461bcd60e51b815260206004820152601b60248201527f576f726c643a206e616d652063616e6e6f7420626520656d70747900000000006044820152606401610625565b60408051600080825260208201909252905073__$a5a42e46683ad9c79b7b86d5ff60fdf4c1$__63d9ac971f610b6e602085018561122b565b836040518363ffffffff1660e01b8152600401610b8c929190611296565b60006040518083038186803b158015610ba457600080fd5b505af4158015610bb8573d6000803e3d6000fd5b50610bca9250505060808301836112f2565b610bd390611312565b6040516361d9624d60e01b815273__$ad2b23306edd42b5f4873830e307b82d47$__916361d9624d91610c0e919060009081906004016113c5565b60006040518083038186803b158015610c2657600080fd5b505af4158015610c3a573d6000803e3d6000fd5b505050506000610c48610cc9565b805460ff191660011781559050610c626060840184611248565b6002830191610c729190836114ad565b50610c8060808401846112f2565b60038201610c8e828261156e565b50610ca19050604084016020850161122b565b81546001600160a01b0391909116620100000262010000600160b01b03199091161790555050565b60408051808201909152601881527f78722e61637469766174696f6e2e73746f726167652e7631000000000000000060209091015260008060ff610d2e60017ff6611e962a52dbc98dd0485088d920890c43e26113c61976f6e171a29d49ce49611692565b604051602001610d4091815260200190565b60408051601f1981840301815291905280516020909101201692915050565b60005b83811015610d7a578181015183820152602001610d62565b50506000910152565b60008151808452610d9b816020860160208601610d5f565b601f01601f19169290920160200192915050565b6020815260006109e16020830184610d83565b634e487b7160e01b600052604160045260246000fd5b60405160c0810167ffffffffffffffff81118282101715610dfb57610dfb610dc2565b60405290565b604051601f8201601f1916810167ffffffffffffffff81118282101715610e2a57610e2a610dc2565b604052919050565b600067ffffffffffffffff821115610e4c57610e4c610dc2565b50601f01601f191660200190565b600082601f830112610e6b57600080fd5b8135610e7e610e7982610e32565b610e01565b818152846020838601011115610e9357600080fd5b816020850160208301376000918101602001919091529392505050565b600060208284031215610ec257600080fd5b813567ffffffffffffffff811115610ed957600080fd5b61042384828501610e5a565b600060208284031215610ef757600080fd5b5035919050565b602081526000825160c06020840152610f1a60e0840182610d83565b90506020840151601f1980858403016040860152610f388383610d83565b9250604086015191508085840301606086015250610f568282610d83565b91505060608401516080840152608084015160a084015260a084015160c08401528091505092915050565b6000808284036060811215610f9557600080fd5b833567ffffffffffffffff811115610fac57600080fd5b610fb886828701610e5a565b9350506040601f1982011215610fcd57600080fd5b506020830190509250929050565b600060208284031215610fed57600080fd5b813567ffffffffffffffff81111561100457600080fd5b820160c081850312156109e157600080fd5b63ffffffff60e01b85168152606060208201528260608201528284608083013760008184016080908101919091526001600160a01b03929092166040820152601f909201601f19169091010192915050565b60006020828403121561107a57600080fd5b815167ffffffffffffffff81111561109157600080fd5b8201601f810184136110a257600080fd5b80516110b0610e7982610e32565b8181528560208385010111156110c557600080fd5b6110d6826020830160208601610d5f565b95945050505050565b600181811c908216806110f357607f821691505b60208210810361111357634e487b7160e01b600052602260045260246000fd5b50919050565b61ffff8116811461112957600080fd5b50565b60006040828403121561113e57600080fd5b6040516040810181811067ffffffffffffffff8211171561116157611161610dc2565b604052825161116f81611119565b8152602083015161117f81611119565b60208201529392505050565b60006020828403121561119d57600080fd5b815180151581146109e157600080fd5b6001600160a01b038116811461112957600080fd5b6000602082840312156111d457600080fd5b81516109e1816111ad565b6060815260006111f26060830185610d83565b905082356111ff81611119565b61ffff80821660208501526020850135915061121a82611119565b808216604085015250509392505050565b60006020828403121561123d57600080fd5b81356109e1816111ad565b6000808335601e1984360301811261125f57600080fd5b83018035915067ffffffffffffffff82111561127a57600080fd5b60200191503681900382131561128f57600080fd5b9250929050565b6001600160a01b038381168252604060208084018290528451918401829052600092858201929091906060860190855b818110156112e45785518516835294830194918301916001016112c6565b509098975050505050505050565b6000823560be1983360301811261130857600080fd5b9190910192915050565b600060c0823603121561132457600080fd5b61132c610dd8565b823567ffffffffffffffff8082111561134457600080fd5b61135036838701610e5a565b8352602085013591508082111561136657600080fd5b61137236838701610e5a565b6020840152604085013591508082111561138b57600080fd5b5061139836828601610e5a565b604083015250606083013560608201526080830135608082015260a083013560a082015280915050919050565b606081526000845160c060608401526113e2610120840182610d83565b90506020860151605f19808584030160808601526114008383610d83565b925060408801519150808584030160a08601525061141e8282610d83565b606088015160c0860152608088015160e086015260a08801516101008601528615156020860152925061144f915050565b8215156040830152610423565b601f8211156114a8576000816000526020600020601f850160051c810160208610156114855750805b601f850160051c820191505b818110156114a457828155600101611491565b5050505b505050565b67ffffffffffffffff8311156114c5576114c5610dc2565b6114d9836114d383546110df565b8361145c565b6000601f84116001811461150d57600085156114f55750838201355b600019600387901b1c1916600186901b178355611567565b600083815260209020601f19861690835b8281101561153e578685013582556020948501946001909201910161151e565b508682101561155b5760001960f88860031b161c19848701351681555b505060018560011b0183555b5050505050565b6115788283611248565b67ffffffffffffffff81111561159057611590610dc2565b6115a48161159e85546110df565b8561145c565b6000601f8211600181146115d857600083156115c05750838201355b600019600385901b1c1916600184901b178555611632565b600085815260209020601f19841690835b8281101561160957868501358255602094850194600190920191016115e9565b50848210156116265760001960f88660031b161c19848701351681555b505060018360011b0185555b505050506116436020830183611248565b6116518183600186016114ad565b50506116606040830183611248565b61166e8183600286016114ad565b5050606082013560038201556080820135600482015560a082013560058201555050565b8181038181111561056457634e487b7160e01b600052601160045260246000fdfea264697066735822122047b56eb900997ca4234af8c62524e27e62499e8a55082618cb47d980dfa391d664736f6c63430008180033",
  "linkReferences": {
    "contracts/libraries/LibAccess.sol": {
      "LibAccess": [
        {
          "length": 20,
          "start": 2561
        },
        {
          "length": 20,
          "start": 2818
        },
        {
          "length": 20,
          "start": 4043
        }
      ]
    },
    "contracts/libraries/LibExtensions.sol": {
      "LibExtensions": [
        {
          "length": 20,
          "start": 2066
        }
      ]
    },
    "contracts/libraries/LibVectorAddress.sol": {
      "LibVectorAddress": [
        {
          "length": 20,
          "start": 4196
        }
      ]
    }
  },
  "deployedLinkReferences": {
    "contracts/libraries/LibAccess.sol": {
      "LibAccess": [
        {
          "length": 20,
          "start": 1407
        },
        {
          "length": 20,
          "start": 1664
        },
        {
          "length": 20,
          "start": 2889
        }
      ]
    },
    "contracts/libraries/LibExtensions.sol": {
      "LibExtensions": [
        {
          "length": 20,
          "start": 912
        }
      ]
    },
    "contracts/libraries/LibVectorAddress.sol": {
      "LibVectorAddress": [
        {
          "length": 20,
          "start": 3042
        }
      ]
    }
  }
}