{
  "_format": "hh-sol-artifact-1",
  "contractName": "WorldAddCompanyExt",
  "sourceName": "contracts/extensions/world/WorldAddCompanyExt.sol",
  "abi": [
    {
      "anonymous": false,
      "inputs": [
        {
          "indexed": true,
          "internalType": "address",
          "name": "company",
          "type": "address"
        },
        {
          "indexed": true,
          "internalType": "address",
          "name": "owner",
          "type": "address"
        },
        {
          "components": [
            {
              "internalType": "string",
              "name": "x",
              "type": "string"
            },
            {
              "internalType": "string",
              "name": "y",
              "type": "string"
            },
            {
              "internalType": "string",
              "name": "z",
              "type": "string"
            },
            {
              "internalType": "uint256",
              "name": "t",
              "type": "uint256"
            },
            {
              "internalType": "uint256",
              "name": "p",
              "type": "uint256"
            },
            {
              "internalType": "uint256",
              "name": "p_sub",
              "type": "uint256"
            }
          ],
          "indexed": false,
          "internalType": "struct VectorAddress",
          "name": "vector",
          "type": "tuple"
        }
      ],
      "name": "WorldAddedCompany",
      "type": "event"
    },
    {
      "inputs": [
        {
          "internalType": "address",
          "name": "world",
          "type": "address"
        },
        {
          "internalType": "string",
          "name": "reason",
          "type": "string"
        }
      ],
      "name": "deactivateCompany",
      "outputs": [],
      "stateMutability": "nonpayable",
      "type": "function"
    },
    {
      "inputs": [
        {
          "components": [
            {
              "internalType": "address",
              "name": "owner",
              "type": "address"
            },
            {
              "internalType": "address",
              "name": "owningRegistry",
              "type": "address"
            },
            {
              "internalType": "address[]",
              "name": "admins",
              "type": "address[]"
            }
          ],
          "internalType": "struct ExtensionInitArgs",
          "name": "args",
          "type": "tuple"
        }
      ],
      "name": "initStorage",
      "outputs": [],
      "stateMutability": "nonpayable",
      "type": "function"
    },
    {
      "inputs": [
        {
          "internalType": "address",
          "name": "myAddress",
          "type": "address"
        }
      ],
      "name": "install",
      "outputs": [],
      "stateMutability": "nonpayable",
      "type": "function"
    },
    {
      "inputs": [],
      "name": "metadata",
      "outputs": [
        {
          "components": [
            {
              "internalType": "string",
              "name": "name",
              "type": "string"
            },
            {
              "components": [
                {
                  "internalType": "uint16",
                  "name": "major",
                  "type": "uint16"
                },
                {
                  "internalType": "uint16",
                  "name": "minor",
                  "type": "uint16"
                }
              ],
              "internalType": "struct Version",
              "name": "version",
              "type": "tuple"
            }
          ],
          "internalType": "struct ExtensionMetadata",
          "name": "",
          "type": "tuple"
        }
      ],
      "stateMutability": "pure",
      "type": "function"
    },
    {
      "inputs": [
        {
          "internalType": "address",
          "name": "world",
          "type": "address"
        }
      ],
      "name": "reactivateCompany",
      "outputs": [],
      "stateMutability": "nonpayable",
      "type": "function"
    },
    {
      "inputs": [
        {
          "components": [
            {
              "internalType": "bool",
              "name": "sendTokensToOwner",
              "type": "bool"
            },
            {
              "internalType": "address",
              "name": "owner",
              "type": "address"
            },
            {
              "internalType": "string",
              "name": "name",
              "type": "string"
            },
            {
              "components": [
                {
                  "internalType": "uint16",
                  "name": "coveragePeriodDays",
                  "type": "uint16"
                },
                {
                  "internalType": "uint16",
                  "name": "gracePeriodDays",
                  "type": "uint16"
                },
                {
                  "internalType": "uint256",
                  "name": "fee",
                  "type": "uint256"
                }
              ],
              "internalType": "struct RegistrationTerms",
              "name": "terms",
              "type": "tuple"
            },
            {
              "internalType": "bytes",
              "name": "ownerTermsSignature",
              "type": "bytes"
            },
            {
              "internalType": "uint256",
              "name": "expiration",
              "type": "uint256"
            },
            {
              "internalType": "bytes",
              "name": "initData",
              "type": "bytes"
            }
          ],
          "internalType": "struct NewCompanyArgs",
          "name": "args",
          "type": "tuple"
        }
      ],
      "name": "registerCompany",
      "outputs": [
        {
          "internalType": "address",
          "name": "company",
          "type": "address"
        }
      ],
      "stateMutability": "payable",
      "type": "function"
    },
    {
      "inputs": [
        {
          "internalType": "address",
          "name": "world",
          "type": "address"
        },
        {
          "internalType": "string",
          "name": "reason",
          "type": "string"
        }
      ],
      "name": "removeCompany",
      "outputs": [],
      "stateMutability": "nonpayable",
      "type": "function"
    },
    {
      "inputs": [
        {
          "internalType": "address",
          "name": "myAddress",
          "type": "address"
        }
      ],
      "name": "upgrade",
      "outputs": [],
      "stateMutability": "nonpayable",
      "type": "function"
    }
  ],
  "bytecode": "0x608060405234801561001057600080fd5b50611515806100206000396000f3fe60806040526004361061007b5760003560e01c8063412456c81161004e578063412456c814610112578063729963c014610132578063a18cd5cc1461014d578063ddf83cff1461016d57600080fd5b80630900f0101461008057806318c538c7146100a05780632a1b8f9b146100d0578063392f37e9146100f0575b600080fd5b34801561008c57600080fd5b5061009e61009b366004610c69565b50565b005b6100b36100ae366004610e31565b61018d565b6040516001600160a01b0390911681526020015b60405180910390f35b3480156100dc57600080fd5b5061009e6100eb366004610c69565b6104c2565b3480156100fc57600080fd5b50610105610753565b6040516100c79190610f76565b34801561011e57600080fd5b5061009e61012d366004610fbb565b6107ab565b34801561013e57600080fd5b5061009e61009b366004611040565b34801561015957600080fd5b5061009e610168366004610c69565b610909565b34801561017957600080fd5b5061009e610188366004610fbb565b610a57565b604051637df73e2760e01b815233600482015260009073__$a5a42e46683ad9c79b7b86d5ff60fdf4c1$__90637df73e2790602401602060405180830381865af41580156101df573d6000803e3d6000fd5b505050506040513d601f19601f82011682018060405250810190610203919061107b565b6102285760405162461bcd60e51b815260040161021f90611098565b60405180910390fd5b6000306001600160a01b031663c51aba2b6040518163ffffffff1660e01b8152600401602060405180830381865afa158015610268573d6000803e3d6000fd5b505050506040513d601f19601f8201168201806040525081019061028c91906110d9565b90506001600160a01b0381166102f95760405162461bcd60e51b815260206004820152602c60248201527f576f726c64416464436f6d70616e794578743a20636f6d70616e79207265676960448201526b1cdd1c9e481b9bdd081cd95d60a21b606482015260840161021f565b60008190506000306001600160a01b0316633f995c2c6040518163ffffffff1660e01b8152600401600060405180830381865afa15801561033e573d6000803e3d6000fd5b505050506040513d6000823e601f3d908101601f191682016040526103669190810190611143565b90506000610372610b7c565b905080600001600081546103859061122f565b919050819055508060000154826080018181525050826001600160a01b0316629ee30860405180610100016040528089600001511515815260200189602001516001600160a01b0316815260200189604001518152602001896060015181526020018581526020018960c001518152602001896080015181526020018960a001518152506040518263ffffffff1660e01b815260040161042591906112bb565b6020604051808303816000875af1158015610444573d6000803e3d6000fd5b505050506040513d601f19601f8201168201806040525081019061046891906110d9565b945085602001516001600160a01b0316856001600160a01b03167f54617c01ce8b2322d3c9640ac735f08c961dbd1d004e423027b43b2d1edd3713846040516104b191906113a2565b60405180910390a350505050919050565b60408051600480825260a08201909252600091816020015b6040805180820190915260008152606060208201528152602001906001900390816104da57905050905060405180604001604052806318c538c760e01b6001600160e01b03191681526020016040518060400160405280601d81526020017f7265676973746572576f726c64284e6577436f6d70616e79417267732900000081525081525081600081518110610572576105726113b5565b6020026020010181905250604051806040016040528063ddf83cff60e01b6001600160e01b03191681526020016040518060600160405280602181526020016114bf60219139815250816001815181106105ce576105ce6113b5565b6020026020010181905250604051806040016040528063a18cd5cc60e01b6001600160e01b03191681526020016040518060400160405280601a81526020017f72656163746976617465436f6d70616e7928616464726573732900000000000081525081525081600281518110610647576106476113b5565b6020026020010181905250604051806040016040528063412456c860e01b6001600160e01b03191681526020016040518060400160405280601d81526020017f72656d6f7665436f6d70616e7928616464726573732c737472696e6729000000815250815250816003815181106106c0576106c06113b5565b602002602001018190525073__$307c3a572bdf5d9800a89b3fc2eb3d5604$__63964d13f06040518060400160405280856001600160a01b03168152602001848152506040518263ffffffff1660e01b815260040161071f91906113cb565b60006040518083038186803b15801561073757600080fd5b505af415801561074b573d6000803e3d6000fd5b505050505050565b61075b610c08565b506040805160808101825260128183019081527115dbdc9b1910591910dbdb5c185b9e515e1d60721b60608301528152815180830190925260018252600060208381019190915281019190915290565b604051637df73e2760e01b815233600482015273__$a5a42e46683ad9c79b7b86d5ff60fdf4c1$__90637df73e2790602401602060405180830381865af41580156107fa573d6000803e3d6000fd5b505050506040513d601f19601f8201168201806040525081019061081e919061107b565b61083a5760405162461bcd60e51b815260040161021f90611098565b6000306001600160a01b031663c51aba2b6040518163ffffffff1660e01b8152600401602060405180830381865afa15801561087a573d6000803e3d6000fd5b505050506040513d601f19601f8201168201806040525081019061089e91906110d9565b60405163af08d53d60e01b81529091506001600160a01b0382169063af08d53d906108d190879087908790600401611465565b600060405180830381600087803b1580156108eb57600080fd5b505af11580156108ff573d6000803e3d6000fd5b5050505050505050565b604051637df73e2760e01b815233600482015273__$a5a42e46683ad9c79b7b86d5ff60fdf4c1$__90637df73e2790602401602060405180830381865af4158015610958573d6000803e3d6000fd5b505050506040513d601f19601f8201168201806040525081019061097c919061107b565b6109985760405162461bcd60e51b815260040161021f90611098565b6000306001600160a01b031663c51aba2b6040518163ffffffff1660e01b8152600401602060405180830381865afa1580156109d8573d6000803e3d6000fd5b505050506040513d601f19601f820116820180604052508101906109fc91906110d9565b60405163349e3cd960e11b81526001600160a01b0384811660048301529192509082169063693c79b290602401600060405180830381600087803b158015610a4357600080fd5b505af115801561074b573d6000803e3d6000fd5b604051637df73e2760e01b815233600482015273__$a5a42e46683ad9c79b7b86d5ff60fdf4c1$__90637df73e2790602401602060405180830381865af4158015610aa6573d6000803e3d6000fd5b505050506040513d601f19601f82011682018060405250810190610aca919061107b565b610ae65760405162461bcd60e51b815260040161021f90611098565b6000306001600160a01b031663c51aba2b6040518163ffffffff1660e01b8152600401602060405180830381865afa158015610b26573d6000803e3d6000fd5b505050506040513d601f19601f82011682018060405250810190610b4a91906110d9565b6040516219d2db60e51b81529091506001600160a01b0382169063033a5b60906108d190879087908790600401611465565b60408051808201909152601381527278722e776f726c642e73746f726167652e763160681b60209091015260008060ff610bd760017fbc8378efb4bd30899c6e5d9a95eb33c0dfb78706c9d8aadf9a4218e2dbb5791e6114a5565b604051602001610be991815260200190565b60408051601f1981840301815291905280516020909101201692915050565b604051806040016040528060608152602001610c3f6040518060400160405280600061ffff168152602001600061ffff1681525090565b905290565b6001600160a01b038116811461009b57600080fd5b8035610c6481610c44565b919050565b600060208284031215610c7b57600080fd5b8135610c8681610c44565b9392505050565b634e487b7160e01b600052604160045260246000fd5b60405160e0810167ffffffffffffffff81118282101715610cc657610cc6610c8d565b60405290565b60405160c0810167ffffffffffffffff81118282101715610cc657610cc6610c8d565b604051601f8201601f1916810167ffffffffffffffff81118282101715610d1857610d18610c8d565b604052919050565b801515811461009b57600080fd5b8035610c6481610d20565b600067ffffffffffffffff821115610d5357610d53610c8d565b50601f01601f191660200190565b600082601f830112610d7257600080fd5b8135610d85610d8082610d39565b610cef565b818152846020838601011115610d9a57600080fd5b816020850160208301376000918101602001919091529392505050565b803561ffff81168114610c6457600080fd5b600060608284031215610ddb57600080fd5b6040516060810181811067ffffffffffffffff82111715610dfe57610dfe610c8d565b604052905080610e0d83610db7565b8152610e1b60208401610db7565b6020820152604083013560408201525092915050565b600060208284031215610e4357600080fd5b813567ffffffffffffffff80821115610e5b57600080fd5b908301906101208286031215610e7057600080fd5b610e78610ca3565b610e8183610d2e565b8152610e8f60208401610c59565b6020820152604083013582811115610ea657600080fd5b610eb287828601610d61565b604083015250610ec58660608501610dc9565b606082015260c083013582811115610edc57600080fd5b610ee887828601610d61565b60808301525060e083013560a082015261010083013582811115610f0b57600080fd5b610f1787828601610d61565b60c08301525095945050505050565b60005b83811015610f41578181015183820152602001610f29565b50506000910152565b60008151808452610f62816020860160208601610f26565b601f01601f19169290920160200192915050565b602081526000825160606020840152610f926080840182610f4a565b602094850151805161ffff90811660408701529501519094166060909301929092525090919050565b600080600060408486031215610fd057600080fd5b8335610fdb81610c44565b9250602084013567ffffffffffffffff80821115610ff857600080fd5b818601915086601f83011261100c57600080fd5b81358181111561101b57600080fd5b87602082850101111561102d57600080fd5b6020830194508093505050509250925092565b60006020828403121561105257600080fd5b813567ffffffffffffffff81111561106957600080fd5b820160608185031215610c8657600080fd5b60006020828403121561108d57600080fd5b8151610c8681610d20565b60208082526021908201527f466163746f72794578743a207265737472696374656420746f207369676e65726040820152607360f81b606082015260800190565b6000602082840312156110eb57600080fd5b8151610c8681610c44565b600082601f83011261110757600080fd5b8151611115610d8082610d39565b81815284602083860101111561112a57600080fd5b61113b826020830160208701610f26565b949350505050565b60006020828403121561115557600080fd5b815167ffffffffffffffff8082111561116d57600080fd5b9083019060c0828603121561118157600080fd5b611189610ccc565b82518281111561119857600080fd5b6111a4878286016110f6565b8252506020830151828111156111b957600080fd5b6111c5878286016110f6565b6020830152506040830151828111156111dd57600080fd5b6111e9878286016110f6565b604083015250606083015160608201526080830151608082015260a083015160a082015280935050505092915050565b634e487b7160e01b600052601160045260246000fd5b60006001820161124157611241611219565b5060010190565b6000815160c0845261125d60c0850182610f4a565b9050602083015184820360208601526112768282610f4a565b915050604083015184820360408601526112908282610f4a565b915050606083015160608501526080830151608085015260a083015160a08501528091505092915050565b602081526112ce60208201835115159052565b600060208301516112ea60408401826001600160a01b03169052565b506040830151610140806060850152611307610160850183610f4a565b6060860151805161ffff908116608088015260208201511660a0870152604081015160c0870152909250506080850151601f19808685030160e087015261134e8483611248565b935060a08701519150808685030161010087015261136c8483610f4a565b935060c0870151915080868503016101208701525061138b8382610f4a565b92505060e085015181850152508091505092915050565b602081526000610c866020830184611248565b634e487b7160e01b600052603260045260246000fd5b602080825282516001600160a01b031682820152828101516040808401819052815160608501819052600093926080600583901b87018101939185019290870190865b8181101561145757888603607f19018352845180516001600160e01b031916875287015187870185905261144485880182610f4a565b965050938601939186019160010161140e565b509398975050505050505050565b6001600160a01b03841681526040602082018190528101829052818360608301376000818301606090810191909152601f909201601f1916010192915050565b818103818111156114b8576114b8611219565b9291505056fe64656163746976617465436f6d70616e7928616464726573732c737472696e6729a2646970667358221220926a5774a9348bd7db30a222df83c17c32287270cf301856b61c3c92d17d639c64736f6c63430008180033",
  "linkReferences": {
    "contracts/libraries/LibAccess.sol": {
      "LibAccess": [
        {
          "length": 20,
          "start": 453
        },
        {
          "length": 20,
          "start": 2016
        },
        {
          "length": 20,
          "start": 2366
        },
        {
          "length": 20,
          "start": 2700
        }
      ]
    },
    "contracts/libraries/LibExtensions.sol": {
      "LibExtensions": [
        {
          "length": 20,
          "start": 1773
        }
      ]
    }
  },
  "deployedLinkReferences": {
    "contracts/libraries/LibAccess.sol": {
      "LibAccess": [
        {
          "length": 20,
          "start": 421
        },
        {
          "length": 20,
          "start": 1984
        },
        {
          "length": 20,
          "start": 2334
        },
        {
          "length": 20,
          "start": 2668
        }
      ]
    },
    "contracts/libraries/LibExtensions.sol": {
      "LibExtensions": [
        {
          "length": 20,
          "start": 1741
        }
      ]
    }
  }
}