{
  "_format": "hh-sol-artifact-1",
  "contractName": "WorldRegistry",
  "sourceName": "contracts/world/WorldRegistry.sol",
  "abi": [
    {
      "inputs": [
        {
          "internalType": "address",
          "name": "vectorAuthority",
          "type": "address"
        },
        {
          "internalType": "contract IRegistrarRegistry",
          "name": "regRegistry",
          "type": "address"
        },
        {
          "internalType": "contract IWorldFactory",
          "name": "factory",
          "type": "address"
        },
        {
          "internalType": "address",
          "name": "defaultAdmin",
          "type": "address"
        }
      ],
      "stateMutability": "nonpayable",
      "type": "constructor"
    },
    {
      "inputs": [],
      "name": "AccessControlBadConfirmation",
      "type": "error"
    },
    {
      "inputs": [
        {
          "internalType": "address",
          "name": "account",
          "type": "address"
        },
        {
          "internalType": "bytes32",
          "name": "neededRole",
          "type": "bytes32"
        }
      ],
      "name": "AccessControlUnauthorizedAccount",
      "type": "error"
    },
    {
      "anonymous": false,
      "inputs": [
        {
          "indexed": true,
          "internalType": "bytes32",
          "name": "role",
          "type": "bytes32"
        },
        {
          "indexed": true,
          "internalType": "bytes32",
          "name": "previousAdminRole",
          "type": "bytes32"
        },
        {
          "indexed": true,
          "internalType": "bytes32",
          "name": "newAdminRole",
          "type": "bytes32"
        }
      ],
      "name": "RoleAdminChanged",
      "type": "event"
    },
    {
      "anonymous": false,
      "inputs": [
        {
          "indexed": true,
          "internalType": "bytes32",
          "name": "role",
          "type": "bytes32"
        },
        {
          "indexed": true,
          "internalType": "address",
          "name": "account",
          "type": "address"
        },
        {
          "indexed": true,
          "internalType": "address",
          "name": "sender",
          "type": "address"
        }
      ],
      "name": "RoleGranted",
      "type": "event"
    },
    {
      "anonymous": false,
      "inputs": [
        {
          "indexed": true,
          "internalType": "bytes32",
          "name": "role",
          "type": "bytes32"
        },
        {
          "indexed": true,
          "internalType": "address",
          "name": "account",
          "type": "address"
        },
        {
          "indexed": true,
          "internalType": "address",
          "name": "sender",
          "type": "address"
        }
      ],
      "name": "RoleRevoked",
      "type": "event"
    },
    {
      "anonymous": false,
      "inputs": [
        {
          "indexed": true,
          "internalType": "address",
          "name": "authority",
          "type": "address"
        }
      ],
      "name": "VectorAddressAuthorityAdded",
      "type": "event"
    },
    {
      "anonymous": false,
      "inputs": [
        {
          "indexed": true,
          "internalType": "address",
          "name": "authority",
          "type": "address"
        }
      ],
      "name": "VectorAddressAuthorityRemoved",
      "type": "event"
    },
    {
      "anonymous": false,
      "inputs": [
        {
          "indexed": true,
          "internalType": "address",
          "name": "world",
          "type": "address"
        },
        {
          "indexed": true,
          "internalType": "address",
          "name": "owner",
          "type": "address"
        },
        {
          "components": [
            {
              "internalType": "string",
              "name": "x",
              "type": "string"
            },
            {
              "internalType": "string",
              "name": "y",
              "type": "string"
            },
            {
              "internalType": "string",
              "name": "z",
              "type": "string"
            },
            {
              "internalType": "uint256",
              "name": "t",
              "type": "uint256"
            },
            {
              "internalType": "uint256",
              "name": "p",
              "type": "uint256"
            },
            {
              "internalType": "uint256",
              "name": "p_sub",
              "type": "uint256"
            }
          ],
          "indexed": false,
          "internalType": "struct VectorAddress",
          "name": "vectorAddress",
          "type": "tuple"
        }
      ],
      "name": "WorldRegistered",
      "type": "event"
    },
    {
      "inputs": [],
      "name": "DEFAULT_ADMIN_ROLE",
      "outputs": [
        {
          "internalType": "bytes32",
          "name": "",
          "type": "bytes32"
        }
      ],
      "stateMutability": "view",
      "type": "function"
    },
    {
      "inputs": [],
      "name": "VECTOR_ADDRESS_AUTHORITY",
      "outputs": [
        {
          "internalType": "bytes32",
          "name": "",
          "type": "bytes32"
        }
      ],
      "stateMutability": "view",
      "type": "function"
    },
    {
      "inputs": [
        {
          "internalType": "address",
          "name": "auth",
          "type": "address"
        }
      ],
      "name": "addVectorAddressAuthority",
      "outputs": [],
      "stateMutability": "nonpayable",
      "type": "function"
    },
    {
      "inputs": [
        {
          "internalType": "bytes32",
          "name": "role",
          "type": "bytes32"
        }
      ],
      "name": "getRoleAdmin",
      "outputs": [
        {
          "internalType": "bytes32",
          "name": "",
          "type": "bytes32"
        }
      ],
      "stateMutability": "view",
      "type": "function"
    },
    {
      "inputs": [
        {
          "internalType": "bytes32",
          "name": "role",
          "type": "bytes32"
        },
        {
          "internalType": "address",
          "name": "account",
          "type": "address"
        }
      ],
      "name": "grantRole",
      "outputs": [],
      "stateMutability": "nonpayable",
      "type": "function"
    },
    {
      "inputs": [
        {
          "internalType": "bytes32",
          "name": "role",
          "type": "bytes32"
        },
        {
          "internalType": "address",
          "name": "account",
          "type": "address"
        }
      ],
      "name": "hasRole",
      "outputs": [
        {
          "internalType": "bool",
          "name": "",
          "type": "bool"
        }
      ],
      "stateMutability": "view",
      "type": "function"
    },
    {
      "inputs": [
        {
          "internalType": "address",
          "name": "auth",
          "type": "address"
        }
      ],
      "name": "isVectorAddressAuthority",
      "outputs": [
        {
          "internalType": "bool",
          "name": "",
          "type": "bool"
        }
      ],
      "stateMutability": "view",
      "type": "function"
    },
    {
      "inputs": [
        {
          "internalType": "address",
          "name": "world",
          "type": "address"
        }
      ],
      "name": "isWorld",
      "outputs": [
        {
          "internalType": "bool",
          "name": "",
          "type": "bool"
        }
      ],
      "stateMutability": "view",
      "type": "function"
    },
    {
      "inputs": [
        {
          "internalType": "uint256",
          "name": "registrarId",
          "type": "uint256"
        },
        {
          "internalType": "address",
          "name": "_owner",
          "type": "address"
        },
        {
          "internalType": "bytes",
          "name": "initData",
          "type": "bytes"
        },
        {
          "internalType": "bool",
          "name": "tokensToOwner",
          "type": "bool"
        }
      ],
      "name": "register",
      "outputs": [],
      "stateMutability": "payable",
      "type": "function"
    },
    {
      "inputs": [],
      "name": "registrarRegistry",
      "outputs": [
        {
          "internalType": "contract IRegistrarRegistry",
          "name": "",
          "type": "address"
        }
      ],
      "stateMutability": "view",
      "type": "function"
    },
    {
      "inputs": [
        {
          "internalType": "address",
          "name": "auth",
          "type": "address"
        }
      ],
      "name": "removeVectorAddressAuthority",
      "outputs": [],
      "stateMutability": "nonpayable",
      "type": "function"
    },
    {
      "inputs": [
        {
          "internalType": "bytes32",
          "name": "role",
          "type": "bytes32"
        },
        {
          "internalType": "address",
          "name": "callerConfirmation",
          "type": "address"
        }
      ],
      "name": "renounceRole",
      "outputs": [],
      "stateMutability": "nonpayable",
      "type": "function"
    },
    {
      "inputs": [
        {
          "internalType": "bytes32",
          "name": "role",
          "type": "bytes32"
        },
        {
          "internalType": "address",
          "name": "account",
          "type": "address"
        }
      ],
      "name": "revokeRole",
      "outputs": [],
      "stateMutability": "nonpayable",
      "type": "function"
    },
    {
      "inputs": [
        {
          "internalType": "bytes4",
          "name": "interfaceId",
          "type": "bytes4"
        }
      ],
      "name": "supportsInterface",
      "outputs": [
        {
          "internalType": "bool",
          "name": "",
          "type": "bool"
        }
      ],
      "stateMutability": "view",
      "type": "function"
    },
    {
      "inputs": [
        {
          "internalType": "uint256",
          "name": "registrarId",
          "type": "uint256"
        },
        {
          "internalType": "address",
          "name": "oldWorld",
          "type": "address"
        },
        {
          "internalType": "bytes",
          "name": "initData",
          "type": "bytes"
        }
      ],
      "name": "upgradeWorld",
      "outputs": [],
      "stateMutability": "nonpayable",
      "type": "function"
    },
    {
      "inputs": [],
      "name": "worldFactory",
      "outputs": [
        {
          "internalType": "contract IWorldFactory",
          "name": "",
          "type": "address"
        }
      ],
      "stateMutability": "view",
      "type": "function"
    },
    {
      "inputs": [
        {
          "internalType": "address",
          "name": "",
          "type": "address"
        }
      ],
      "name": "worldsByContractAddress",
      "outputs": [
        {
          "internalType": "address",
          "name": "",
          "type": "address"
        }
      ],
      "stateMutability": "view",
      "type": "function"
    },
    {
      "inputs": [
        {
          "internalType": "string",
          "name": "",
          "type": "string"
        }
      ],
      "name": "worldsByName",
      "outputs": [
        {
          "internalType": "address",
          "name": "",
          "type": "address"
        }
      ],
      "stateMutability": "view",
      "type": "function"
    },
    {
      "inputs": [
        {
          "internalType": "string",
          "name": "",
          "type": "string"
        }
      ],
      "name": "worldsVectorAddress",
      "outputs": [
        {
          "internalType": "address",
          "name": "",
          "type": "address"
        }
      ],
      "stateMutability": "view",
      "type": "function"
    }
  ],
  "bytecode": "0x60806040523480156200001157600080fd5b5060405162001dd238038062001dd283398101604081905262000034916200026d565b600180546001600160a01b038086166001600160a01b0319928316179092556002805492851692909116919091179055620000716000826200011d565b506200009e7f63bd1b4836789b043d73790415051a74ff7505ddd2ea4e9e3f425a2d5bf50a52856200011d565b506040516001600160a01b038516907f2e94fbb33fe77c307894cc42bed4204a9981f2bac4fc65655ba49ec4e5ac313490600090a260408051808201909152601681527f566563746f7241646472657373417574686f72697479000000000000000000006020820152620001139085620001cc565b5050505062000337565b6000828152602081815260408083206001600160a01b038516845290915281205460ff16620001c2576000838152602081815260408083206001600160a01b03861684529091529020805460ff19166001179055620001793390565b6001600160a01b0316826001600160a01b0316847f2f8788117e7eff1d82e926ec794901d17c78024a50270940304540a733656f0d60405160405180910390a4506001620001c6565b5060005b92915050565b620002198282604051602401620001e5929190620002d5565b60408051601f198184030181529190526020810180516001600160e01b0390811663319af33360e01b179091526200021d16565b5050565b62000233816200023660201b62000ee41760201c565b50565b60006a636f6e736f6c652e6c6f679050600080835160208501845afa505050565b6001600160a01b03811681146200023357600080fd5b600080600080608085870312156200028457600080fd5b8451620002918162000257565b6020860151909450620002a48162000257565b6040860151909350620002b78162000257565b6060860151909250620002ca8162000257565b939692955090935050565b604081526000835180604084015260005b81811015620003055760208187018101516060868401015201620002e6565b50600060608285018101919091526001600160a01b03949094166020840152601f01601f191690910190910192915050565b611a8b80620003476000396000f3fe6080604052600436106101145760003560e01c80636d80bf31116100a0578063dbdc4e6211610064578063dbdc4e6214610366578063e3ffb4bf14610386578063eee7517d146103a6578063f0ad0f3e146103c6578063fbde846e1461040157600080fd5b80636d80bf31146102d157806391d14854146102f1578063a217fddf14610311578063d547741f14610326578063db8d74661461034657600080fd5b80632f2ff15d116100e75780632f2ff15d1461020557806336568abe146102275780633fece62d146102475780634fd0f6ee1461027d5780635389c2211461029057600080fd5b806301ffc9a7146101195780630dc3897d1461014e578063186cd03614610186578063248a9ca3146101c7575b600080fd5b34801561012557600080fd5b506101396101343660046112e3565b610423565b60405190151581526020015b60405180910390f35b34801561015a57600080fd5b5060025461016e906001600160a01b031681565b6040516001600160a01b039091168152602001610145565b34801561019257600080fd5b5061016e6101a13660046113ac565b80516020818301810180516004825292820191909301209152546001600160a01b031681565b3480156101d357600080fd5b506101f76101e236600461142c565b60009081526020819052604090206001015490565b604051908152602001610145565b34801561021157600080fd5b5061022561022036600461145a565b61045a565b005b34801561023357600080fd5b5061022561024236600461145a565b610485565b34801561025357600080fd5b5061016e61026236600461148a565b6003602052600090815260409020546001600160a01b031681565b61022561028b3660046114fe565b6104bd565b34801561029c57600080fd5b5061016e6102ab3660046113ac565b80516020818301810180516005825292820191909301209152546001600160a01b031681565b3480156102dd57600080fd5b506101396102ec36600461148a565b610904565b3480156102fd57600080fd5b5061013961030c36600461145a565b61091a565b34801561031d57600080fd5b506101f7600081565b34801561033257600080fd5b5061022561034136600461145a565b610943565b34801561035257600080fd5b5061022561036136600461148a565b610968565b34801561037257600080fd5b5060015461016e906001600160a01b031681565b34801561039257600080fd5b506102256103a136600461148a565b6109c3565b3480156103b257600080fd5b506102256103c1366004611572565b610a1e565b3480156103d257600080fd5b506101396103e136600461148a565b6001600160a01b0390811660009081526003602052604090205416151590565b34801561040d57600080fd5b506101f7600080516020611a3683398151915281565b60006001600160e01b03198216637965db0b60e01b148061045457506301ffc9a760e01b6001600160e01b03198316145b92915050565b60008281526020819052604090206001015461047581610f05565b61047f8383610f12565b50505050565b6001600160a01b03811633146104ae5760405163334bd91960e11b815260040160405180910390fd5b6104b88282610fa4565b505050565b600154604051638c9d518f60e01b81526004810187905233602482015286916001600160a01b031690638c9d518f90604401602060405180830381865afa15801561050c573d6000803e3d6000fd5b505050506040513d601f19601f8201168201806040525081019061053091906115ce565b6105555760405162461bcd60e51b815260040161054c906115eb565b60405180910390fd5b60025460405163260b3c8760e21b81526000916001600160a01b03169063982cf21c9061058a90899089908990600401611639565b6020604051808303816000875af11580156105a9573d6000803e3d6000fd5b505050506040513d601f19601f820116820180604052508101906105cd9190611679565b90506001600160a01b0381166105f55760405162461bcd60e51b815260040161054c90611696565b6000610665826001600160a01b03166317d7de7c6040518163ffffffff1660e01b8152600401600060405180830381865afa158015610638573d6000803e3d6000fd5b505050506040513d6000823e601f3d908101601f19168201604052610660919081019061174b565b61100f565b905060006001600160a01b03166005826040516106829190611780565b908152604051908190036020019020546001600160a01b0316146106b85760405162461bcd60e51b815260040161054c9061179c565b6001600160a01b03821660008181526003602052604080822080546001600160a01b03191684179055805163382af56d60e01b81529051859360049361074d93919263382af56d92808701929190819003870181865afa158015610720573d6000803e3d6000fd5b505050506040513d6000823e601f3d908101601f1916820160405261074891908101906117de565b61107f565b60405161075a9190611780565b908152602001604051809103902060006101000a8154816001600160a01b0302191690836001600160a01b031602179055508160058260405161079d9190611780565b90815260405190819003602001902080546001600160a01b03929092166001600160a01b0319909216919091179055341561084a578315610813576040516001600160a01b038816903480156108fc02916000818181858888f1935050505015801561080d573d6000803e3d6000fd5b5061084a565b6040516001600160a01b038316903480156108fc02916000818181858888f19350505050158015610848573d6000803e3d6000fd5b505b866001600160a01b0316826001600160a01b03167fee32bdf3024960eab0cc65f92f4ab288808ff5501b8132b269630d3fa070005e846001600160a01b031663382af56d6040518163ffffffff1660e01b8152600401600060405180830381865afa1580156108bd573d6000803e3d6000fd5b505050506040513d6000823e601f3d908101601f191682016040526108e591908101906117de565b6040516108f291906118e0565b60405180910390a35050505050505050565b6000610454600080516020611a36833981519152835b6000918252602082815260408084206001600160a01b0393909316845291905290205460ff1690565b60008281526020819052604090206001015461095e81610f05565b61047f8383610fa4565b600061097381610f05565b61098b600080516020611a368339815191528361045a565b6040516001600160a01b038316907f2e94fbb33fe77c307894cc42bed4204a9981f2bac4fc65655ba49ec4e5ac313490600090a25050565b60006109ce81610f05565b6109e6600080516020611a3683398151915283610943565b6040516001600160a01b038316907f90667489bdb375ee846a3b76202e18921f93dbca04e24a56a47eb570c5a3484390600090a25050565b600154604051638c9d518f60e01b81526004810186905233602482015285916001600160a01b031690638c9d518f90604401602060405180830381865afa158015610a6d573d6000803e3d6000fd5b505050506040513d601f19601f82011682018060405250810190610a9191906115ce565b610aad5760405162461bcd60e51b815260040161054c906115eb565b6001600160a01b0380851660009081526003602052604090205416610b145760405162461bcd60e51b815260206004820152601e60248201527f576f726c6452656769737472793a20776f726c64206e6f7420666f756e640000604482015260640161054c565b6000846001600160a01b031663893d20e86040518163ffffffff1660e01b8152600401602060405180830381865afa158015610b54573d6000803e3d6000fd5b505050506040513d601f19601f82011682018060405250810190610b789190611679565b60025460405163260b3c8760e21b81529192506000916001600160a01b039091169063982cf21c90610bb290859089908990600401611639565b6020604051808303816000875af1158015610bd1573d6000803e3d6000fd5b505050506040513d601f19601f82011682018060405250810190610bf59190611679565b90506001600160a01b038116610c1d5760405162461bcd60e51b815260040161054c90611696565b6001600160a01b0380871660008181526003602052604080822080546001600160a01b0319908116909155938516808352818320805490951617909355825163382af56d60e01b81529251600493610c94939263382af56d9282870192819003870181865afa158015610720573d6000803e3d6000fd5b604051610ca19190611780565b9081526040805191829003602001822080546001600160a01b031916905563382af56d60e01b8252518291600491610d05916001600160a01b0385169163382af56d9185810191600091819003870181865afa158015610720573d6000803e3d6000fd5b604051610d129190611780565b908152602001604051809103902060006101000a8154816001600160a01b0302191690836001600160a01b031602179055506005610d87876001600160a01b03166317d7de7c6040518163ffffffff1660e01b8152600401600060405180830381865afa158015610638573d6000803e3d6000fd5b604051610d949190611780565b908152602001604051809103902060006101000a8154906001600160a01b0302191690556000610dfb826001600160a01b03166317d7de7c6040518163ffffffff1660e01b8152600401600060405180830381865afa158015610638573d6000803e3d6000fd5b905060006001600160a01b0316600582604051610e189190611780565b908152604051908190036020019020546001600160a01b031614610e4e5760405162461bcd60e51b815260040161054c9061179c565b81600582604051610e5f9190611780565b90815260405190819003602001812080546001600160a01b039384166001600160a01b031990911617905562900f0160e41b8152838216600482015290881690630900f01090602401600060405180830381600087803b158015610ec257600080fd5b505af1158015610ed6573d6000803e3d6000fd5b505050505050505050505050565b60006a636f6e736f6c652e6c6f679050600080835160208501845afa505050565b610f0f81336110e2565b50565b6000610f1e838361091a565b610f9c576000838152602081815260408083206001600160a01b03861684529091529020805460ff19166001179055610f543390565b6001600160a01b0316826001600160a01b0316847f2f8788117e7eff1d82e926ec794901d17c78024a50270940304540a733656f0d60405160405180910390a4506001610454565b506000610454565b6000610fb0838361091a565b15610f9c576000838152602081815260408083206001600160a01b0386168085529252808320805460ff1916905551339286917ff6391f5c32d9c69d2a47ea670b442974b53935d1edc7fd64eb21e047a839171b9190a4506001610454565b60608160005b81518110156110785761104782828151811061103357611033611963565b01602001516001600160f81b03191661111f565b82828151811061105957611059611963565b60200101906001600160f81b031916908160001a905350600101611015565b5092915050565b606081600001518260200151836040015161109d856060015161116e565b6110aa866080015161116e565b6110b78760a0015161116e565b6040516020016110cc96959493929190611979565b6040516020818303038152906040529050919050565b6110ec828261091a565b61111b5760405163e2517d3f60e01b81526001600160a01b03821660048201526024810183905260440161054c565b5050565b6000604160f81b6001600160f81b031983161080159061114d5750602d60f91b6001600160f81b0319831611155b1561116a5761116160f883901c60206119f8565b60f81b92915050565b5090565b6060600061117b83611201565b600101905060008167ffffffffffffffff81111561119b5761119b611314565b6040519080825280601f01601f1916602001820160405280156111c5576020820181803683370190505b5090508181016020015b600019016f181899199a1a9b1b9c1cb0b131b232b360811b600a86061a8153600a85049450846111cf57509392505050565b60008072184f03e93ff9f4daa797ed6e38ed64bf6a1f0160401b83106112405772184f03e93ff9f4daa797ed6e38ed64bf6a1f0160401b830492506040015b6d04ee2d6d415b85acef8100000000831061126c576d04ee2d6d415b85acef8100000000830492506020015b662386f26fc10000831061128a57662386f26fc10000830492506010015b6305f5e10083106112a2576305f5e100830492506008015b61271083106112b657612710830492506004015b606483106112c8576064830492506002015b600a83106104545760010192915050565b6112e1611a1f565b565b6000602082840312156112f557600080fd5b81356001600160e01b03198116811461130d57600080fd5b9392505050565b634e487b7160e01b600052604160045260246000fd5b60405160c0810167ffffffffffffffff8111828210171561134d5761134d611314565b60405290565b604051601f8201601f1916810167ffffffffffffffff8111828210171561137c5761137c611314565b604052919050565b600067ffffffffffffffff82111561139e5761139e611314565b50601f01601f191660200190565b6000602082840312156113be57600080fd5b813567ffffffffffffffff8111156113d557600080fd5b8201601f810184136113e657600080fd5b80356113f96113f482611384565b611353565b81815285602083850101111561140e57600080fd5b81602084016020830137600091810160200191909152949350505050565b60006020828403121561143e57600080fd5b5035919050565b6001600160a01b0381168114610f0f57600080fd5b6000806040838503121561146d57600080fd5b82359150602083013561147f81611445565b809150509250929050565b60006020828403121561149c57600080fd5b813561130d81611445565b60008083601f8401126114b957600080fd5b50813567ffffffffffffffff8111156114d157600080fd5b6020830191508360208285010111156114e957600080fd5b9250929050565b8015158114610f0f57600080fd5b60008060008060006080868803121561151657600080fd5b85359450602086013561152881611445565b9350604086013567ffffffffffffffff81111561154457600080fd5b611550888289016114a7565b9094509250506060860135611564816114f0565b809150509295509295909350565b6000806000806060858703121561158857600080fd5b84359350602085013561159a81611445565b9250604085013567ffffffffffffffff8111156115b657600080fd5b6115c2878288016114a7565b95989497509550505050565b6000602082840312156115e057600080fd5b815161130d816114f0565b6020808252602e908201527f576f726c6452656769737472793a2063616c6c6572206973206e6f742061207660408201526d30b634b2103932b3b4b9ba3930b960911b606082015260800190565b6001600160a01b03841681526040602082018190528101829052818360608301376000818301606090810191909152601f909201601f1916010192915050565b60006020828403121561168b57600080fd5b815161130d81611445565b60208082526024908201527f576f726c6452656769737472793a20776f726c64206372656174696f6e2066616040820152631a5b195960e21b606082015260800190565b60005b838110156116f55781810151838201526020016116dd565b50506000910152565b600082601f83011261170f57600080fd5b815161171d6113f482611384565b81815284602083860101111561173257600080fd5b6117438260208301602087016116da565b949350505050565b60006020828403121561175d57600080fd5b815167ffffffffffffffff81111561177457600080fd5b611743848285016116fe565b600082516117928184602087016116da565b9190910192915050565b60208082526022908201527f576f726c6452656769737472793a206e616d6520616c726561647920696e2075604082015261736560f01b606082015260800190565b6000602082840312156117f057600080fd5b815167ffffffffffffffff8082111561180857600080fd5b9083019060c0828603121561181c57600080fd5b61182461132a565b82518281111561183357600080fd5b61183f878286016116fe565b82525060208301518281111561185457600080fd5b611860878286016116fe565b60208301525060408301518281111561187857600080fd5b611884878286016116fe565b604083015250606083015160608201526080830151608082015260a083015160a082015280935050505092915050565b600081518084526118cc8160208601602086016116da565b601f01601f19169290920160200192915050565b602081526000825160c060208401526118fc60e08401826118b4565b90506020840151601f198085840301604086015261191a83836118b4565b925060408601519150808584030160608601525061193882826118b4565b91505060608401516080840152608084015160a084015260a084015160c08401528091505092915050565b634e487b7160e01b600052603260045260246000fd5b60008751602061198c8285838d016116da565b88519184019161199f8184848d016116da565b88519201916119b18184848c016116da565b87519201916119c38184848b016116da565b86519201916119d58184848a016116da565b85519201916119e781848489016116da565b919091019998505050505050505050565b60ff818116838216019081111561045457634e487b7160e01b600052601160045260246000fd5b634e487b7160e01b600052605160045260246000fdfe63bd1b4836789b043d73790415051a74ff7505ddd2ea4e9e3f425a2d5bf50a52a26469706673582212203cfa471cede85d71c44b36245220f0a3f50fba8d4e43c6fdcaf9e92d0f433b4864736f6c63430008180033",
  "linkReferences": {},
  "deployedLinkReferences": {}
}