{
  "_format": "hh-sol-artifact-1",
  "contractName": "WorldAddAvatarExt",
  "sourceName": "contracts/extensions/world/WorldAddAvatarExt.sol",
  "abi": [
    {
      "inputs": [
        {
          "internalType": "uint256",
          "name": "value",
          "type": "uint256"
        },
        {
          "internalType": "uint256",
          "name": "length",
          "type": "uint256"
        }
      ],
      "name": "StringsInsufficientHexLength",
      "type": "error"
    },
    {
      "anonymous": false,
      "inputs": [
        {
          "indexed": true,
          "internalType": "address",
          "name": "avatar",
          "type": "address"
        },
        {
          "indexed": true,
          "internalType": "address",
          "name": "owner",
          "type": "address"
        }
      ],
      "name": "WorldAddedAvatar",
      "type": "event"
    },
    {
      "inputs": [
        {
          "components": [
            {
              "internalType": "address",
              "name": "owner",
              "type": "address"
            },
            {
              "internalType": "address",
              "name": "owningRegistry",
              "type": "address"
            },
            {
              "internalType": "address[]",
              "name": "admins",
              "type": "address[]"
            }
          ],
          "internalType": "struct ExtensionInitArgs",
          "name": "args",
          "type": "tuple"
        }
      ],
      "name": "initStorage",
      "outputs": [],
      "stateMutability": "nonpayable",
      "type": "function"
    },
    {
      "inputs": [
        {
          "internalType": "address",
          "name": "myAddress",
          "type": "address"
        }
      ],
      "name": "install",
      "outputs": [],
      "stateMutability": "nonpayable",
      "type": "function"
    },
    {
      "inputs": [],
      "name": "metadata",
      "outputs": [
        {
          "components": [
            {
              "internalType": "string",
              "name": "name",
              "type": "string"
            },
            {
              "components": [
                {
                  "internalType": "uint16",
                  "name": "major",
                  "type": "uint16"
                },
                {
                  "internalType": "uint16",
                  "name": "minor",
                  "type": "uint16"
                }
              ],
              "internalType": "struct Version",
              "name": "version",
              "type": "tuple"
            }
          ],
          "internalType": "struct ExtensionMetadata",
          "name": "",
          "type": "tuple"
        }
      ],
      "stateMutability": "pure",
      "type": "function"
    },
    {
      "inputs": [
        {
          "components": [
            {
              "internalType": "bool",
              "name": "sendTokensToOwner",
              "type": "bool"
            },
            {
              "internalType": "address",
              "name": "owner",
              "type": "address"
            },
            {
              "internalType": "string",
              "name": "name",
              "type": "string"
            },
            {
              "internalType": "bytes",
              "name": "initData",
              "type": "bytes"
            }
          ],
          "internalType": "struct NewAvatarArgs",
          "name": "args",
          "type": "tuple"
        }
      ],
      "name": "registerAvatar",
      "outputs": [
        {
          "internalType": "address",
          "name": "avatar",
          "type": "address"
        }
      ],
      "stateMutability": "payable",
      "type": "function"
    },
    {
      "inputs": [
        {
          "internalType": "address",
          "name": "myAddress",
          "type": "address"
        }
      ],
      "name": "upgrade",
      "outputs": [],
      "stateMutability": "nonpayable",
      "type": "function"
    }
  ],
  "bytecode": "0x608060405234801561001057600080fd5b50610e92806100206000396000f3fe60806040526004361061004a5760003560e01c80630900f0101461004f5780632a1b8f9b1461006f578063392f37e91461008f578063729963c0146100ba5780637686e5f5146100d5575b600080fd5b34801561005b57600080fd5b5061006d61006a366004610917565b50565b005b34801561007b57600080fd5b5061006d61008a366004610917565b610100565b34801561009b57600080fd5b506100a46101e4565b6040516100b1919061098b565b60405180910390f35b3480156100c657600080fd5b5061006d61006a3660046109d0565b6100e86100e3366004610aee565b61023b565b6040516001600160a01b0390911681526020016100b1565b604080516001808252818301909252600091816020015b6040805180820190915260008152606060208201528152602001906001900390816101175790505090506040518060400160405280637686e5f560e01b6001600160e01b03191681526020016040518060400160405280601d81526020017f7265676973746572417661746172284e65774176617461724172677329000000815250815250816000815181106101af576101af610bb9565b60200260200101819052506101e06040518060400160405280846001600160a01b03168152602001838152506104d1565b5050565b6101ec6108c6565b506040805160808101825260118183019081527015dbdc9b19105919105d985d185c915e1d607a1b60608301528152815180830190925260018252600060208381019190915281019190915290565b604051637df73e2760e01b815233600482015260009073__$a5a42e46683ad9c79b7b86d5ff60fdf4c1$__90637df73e2790602401602060405180830381865af415801561028d573d6000803e3d6000fd5b505050506040513d601f19601f820116820180604052508101906102b19190610bcf565b6103135760405162461bcd60e51b815260206004820152602860248201527f576f726c644164644176617461724578743a207265737472696374656420746f604482015267207369676e65727360c01b60648201526084015b60405180910390fd5b6000306001600160a01b031663e3d7ad736040518163ffffffff1660e01b8152600401602060405180830381865afa158015610353573d6000803e3d6000fd5b505050506040513d601f19601f820116820180604052508101906103779190610bec565b90506001600160a01b0381166103e35760405162461bcd60e51b815260206004820152602b60248201527f576f726c644164644176617461724578743a20636f6d70616e7920726567697360448201526a1d1c9e481b9bdd081cd95d60aa1b606482015260840161030a565b604080516080810182528451151581526020808601516001600160a01b03908116918301919091528583015182840152606080870151908301529151632a7e520960e21b8152839283169163a9f94824916104419190600401610c09565b6020604051808303816000875af1158015610460573d6000803e3d6000fd5b505050506040513d601f19601f820116820180604052508101906104849190610bec565b925083602001516001600160a01b0316836001600160a01b03167fae3ac995f520a02d8a5a99cfc75a431f6596a0c592a9d4bca8f044be75c256a160405160405180910390a35050919050565b60006104db610694565b82516001600160a01b031660009081526020829052604081209192505b83602001515181101561068e5760008460200151828151811061051d5761051d610bb9565b6020908102919091018101518051600486810180546001808201835560009283528683206008830401805463ffffffff600790941690950261010090810a9384021990951660e09690961c9290920294909417905583516001600160e01b0319168152918801909352604090208054919350916001600160a01b039104161561061657805461010090046001600160a01b03166000908152602086905260408120875190919060018701906105d19061072a565b6020808701516040516105eb949392600188019101610d06565b60405160208183030381529060405290508060405162461bcd60e51b815260040161030a9190610ddf565b50604080518082018252600180825287516001600160a01b03908116602080850191825295516001600160e01b0319166000908152898401909652939094209151825493516001600160a81b0319909416901515610100600160a81b03191617610100939094169290920292909217909155016104f8565b50505050565b60408051808201909152601881527f78722e657874656e73696f6e732e73746f726167652e7631000000000000000060209091015260008060ff6106f960017fb58ec9ca7ba0606d9fecd9f559655d0e5fec418e6751b65b892bccdfd25eb99f610e08565b60405160200161070b91815260200190565b60408051601f1981840301815291905280516020909101201692915050565b60606107406001600160a01b0383166014610746565b92915050565b6060826000610756846002610e1b565b610761906002610e32565b67ffffffffffffffff81111561077957610779610a0b565b6040519080825280601f01601f1916602001820160405280156107a3576020820181803683370190505b509050600360fc1b816000815181106107be576107be610bb9565b60200101906001600160f81b031916908160001a905350600f60fb1b816001815181106107ed576107ed610bb9565b60200101906001600160f81b031916908160001a9053506000610811856002610e1b565b61081c906001610e32565b90505b6001811115610894576f181899199a1a9b1b9c1cb0b131b232b360811b83600f166010811061085057610850610bb9565b1a60f81b82828151811061086657610866610bb9565b60200101906001600160f81b031916908160001a90535060049290921c9161088d81610e45565b905061081f565b5081156108be5760405163e22e27eb60e01b8152600481018690526024810185905260440161030a565b949350505050565b6040518060400160405280606081526020016108fd6040518060400160405280600061ffff168152602001600061ffff1681525090565b905290565b6001600160a01b038116811461006a57600080fd5b60006020828403121561092957600080fd5b813561093481610902565b9392505050565b60005b8381101561095657818101518382015260200161093e565b50506000910152565b6000815180845261097781602086016020860161093b565b601f01601f19169290920160200192915050565b6020815260008251606060208401526109a7608084018261095f565b602094850151805161ffff90811660408701529501519094166060909301929092525090919050565b6000602082840312156109e257600080fd5b813567ffffffffffffffff8111156109f957600080fd5b82016060818503121561093457600080fd5b634e487b7160e01b600052604160045260246000fd5b6040516080810167ffffffffffffffff81118282101715610a4457610a44610a0b565b60405290565b801515811461006a57600080fd5b600067ffffffffffffffff80841115610a7357610a73610a0b565b604051601f8501601f19908116603f01168101908282118183101715610a9b57610a9b610a0b565b81604052809350858152868686011115610ab457600080fd5b858560208301376000602087830101525050509392505050565b600082601f830112610adf57600080fd5b61093483833560208501610a58565b600060208284031215610b0057600080fd5b813567ffffffffffffffff80821115610b1857600080fd5b9083019060808286031215610b2c57600080fd5b610b34610a21565b8235610b3f81610a4a565b81526020830135610b4f81610902565b6020820152604083013582811115610b6657600080fd5b8301601f81018713610b7757600080fd5b610b8687823560208401610a58565b604083015250606083013582811115610b9e57600080fd5b610baa87828601610ace565b60608301525095945050505050565b634e487b7160e01b600052603260045260246000fd5b600060208284031215610be157600080fd5b815161093481610a4a565b600060208284031215610bfe57600080fd5b815161093481610902565b6020815281511515602082015260018060a01b0360208301511660408201526000604083015160806060840152610c4360a084018261095f565b90506060840151601f19848303016080850152610c60828261095f565b95945050505050565b8054600090600181811c9080831680610c8357607f831692505b60208084108203610ca457634e487b7160e01b600052602260045260246000fd5b818015610cb85760018114610ccd57610cfa565b60ff1986168952841515850289019650610cfa565b60008881526020902060005b86811015610cf25781548b820152908501908301610cd9565b505084890196505b50505050505092915050565b7f4c6962457874656e73696f6e3a20657874656e73696f6e20000000000000000081526000610d386018830187610c69565b6c01030ba1030b2323932b9b99d1609d1b81528551610d5e81600d840160208a0161093b565b7f20617474656d7074696e6720746f20726575736520612073656c6563746f7200600d92909101918201528451610d9c81602c84016020890161093b565b7f20616c7265616479207265676973746572656420627920000000000000000000602c9290910191820152610dd46043820185610c69565b979650505050505050565b602081526000610934602083018461095f565b634e487b7160e01b600052601160045260246000fd5b8181038181111561074057610740610df2565b808202811582820484141761074057610740610df2565b8082018082111561074057610740610df2565b600081610e5457610e54610df2565b50600019019056fea2646970667358221220f40be3bb0ffb6a073a121d9a90ef231006e6b3a16c1a6d208e3399910ec4ab5064736f6c63430008180033",
  "linkReferences": {
    "contracts/libraries/LibAccess.sol": {
      "LibAccess": [
        {
          "length": 20,
          "start": 627
        }
      ]
    }
  },
  "deployedLinkReferences": {
    "contracts/libraries/LibAccess.sol": {
      "LibAccess": [
        {
          "length": 20,
          "start": 595
        }
      ]
    }
  }
}