{
  "_format": "hh-sol-artifact-1",
  "contractName": "World",
  "sourceName": "contracts/world/instance/World.sol",
  "abi": [
    {
      "inputs": [
        {
          "components": [
            {
              "internalType": "address",
              "name": "extensionResolver",
              "type": "address"
            },
            {
              "internalType": "address",
              "name": "owningRegistry",
              "type": "address"
            },
            {
              "internalType": "address",
              "name": "registrarRegistry",
              "type": "address"
            },
            {
              "internalType": "address",
              "name": "companyRegistry",
              "type": "address"
            },
            {
              "internalType": "address",
              "name": "avatarRegistry",
              "type": "address"
            },
            {
              "internalType": "address",
              "name": "experienceRegistry",
              "type": "address"
            }
          ],
          "internalType": "struct WorldConstructorArgs",
          "name": "args",
          "type": "tuple"
        }
      ],
      "stateMutability": "nonpayable",
      "type": "constructor"
    },
    {
      "anonymous": false,
      "inputs": [
        {
          "indexed": false,
          "internalType": "string",
          "name": "name",
          "type": "string"
        }
      ],
      "name": "ExtensionDisabled",
      "type": "event"
    },
    {
      "anonymous": false,
      "inputs": [
        {
          "indexed": false,
          "internalType": "string",
          "name": "name",
          "type": "string"
        }
      ],
      "name": "ExtensionEnabled",
      "type": "event"
    },
    {
      "anonymous": false,
      "inputs": [
        {
          "indexed": false,
          "internalType": "string",
          "name": "name",
          "type": "string"
        },
        {
          "components": [
            {
              "internalType": "uint16",
              "name": "major",
              "type": "uint16"
            },
            {
              "internalType": "uint16",
              "name": "minor",
              "type": "uint16"
            }
          ],
          "indexed": false,
          "internalType": "struct Version",
          "name": "version",
          "type": "tuple"
        }
      ],
      "name": "ExtensionInstalled",
      "type": "event"
    },
    {
      "anonymous": false,
      "inputs": [
        {
          "indexed": false,
          "internalType": "string",
          "name": "name",
          "type": "string"
        },
        {
          "components": [
            {
              "internalType": "uint16",
              "name": "major",
              "type": "uint16"
            },
            {
              "internalType": "uint16",
              "name": "minor",
              "type": "uint16"
            }
          ],
          "indexed": false,
          "internalType": "struct Version",
          "name": "version",
          "type": "tuple"
        }
      ],
      "name": "ExtensionRolledBack",
      "type": "event"
    },
    {
      "anonymous": false,
      "inputs": [
        {
          "indexed": false,
          "internalType": "string",
          "name": "name",
          "type": "string"
        },
        {
          "components": [
            {
              "internalType": "uint16",
              "name": "major",
              "type": "uint16"
            },
            {
              "internalType": "uint16",
              "name": "minor",
              "type": "uint16"
            }
          ],
          "indexed": false,
          "internalType": "struct Version",
          "name": "version",
          "type": "tuple"
        }
      ],
      "name": "ExtensionUpgraded",
      "type": "event"
    },
    {
      "anonymous": false,
      "inputs": [
        {
          "indexed": false,
          "internalType": "bytes4",
          "name": "selector",
          "type": "bytes4"
        }
      ],
      "name": "SelectorDisabled",
      "type": "event"
    },
    {
      "anonymous": false,
      "inputs": [
        {
          "indexed": false,
          "internalType": "bytes4",
          "name": "selector",
          "type": "bytes4"
        }
      ],
      "name": "SelectorEnabled",
      "type": "event"
    },
    {
      "stateMutability": "payable",
      "type": "fallback"
    },
    {
      "inputs": [],
      "name": "avatarRegistry",
      "outputs": [
        {
          "internalType": "address",
          "name": "",
          "type": "address"
        }
      ],
      "stateMutability": "view",
      "type": "function"
    },
    {
      "inputs": [],
      "name": "baseVector",
      "outputs": [
        {
          "components": [
            {
              "internalType": "string",
              "name": "x",
              "type": "string"
            },
            {
              "internalType": "string",
              "name": "y",
              "type": "string"
            },
            {
              "internalType": "string",
              "name": "z",
              "type": "string"
            },
            {
              "internalType": "uint256",
              "name": "t",
              "type": "uint256"
            },
            {
              "internalType": "uint256",
              "name": "p",
              "type": "uint256"
            },
            {
              "internalType": "uint256",
              "name": "p_sub",
              "type": "uint256"
            }
          ],
          "internalType": "struct VectorAddress",
          "name": "",
          "type": "tuple"
        }
      ],
      "stateMutability": "view",
      "type": "function"
    },
    {
      "inputs": [],
      "name": "companyRegistry",
      "outputs": [
        {
          "internalType": "address",
          "name": "",
          "type": "address"
        }
      ],
      "stateMutability": "view",
      "type": "function"
    },
    {
      "inputs": [],
      "name": "experienceRegistry",
      "outputs": [
        {
          "internalType": "address",
          "name": "",
          "type": "address"
        }
      ],
      "stateMutability": "view",
      "type": "function"
    },
    {
      "inputs": [],
      "name": "extResolver",
      "outputs": [
        {
          "internalType": "contract IExtensionResolver",
          "name": "",
          "type": "address"
        }
      ],
      "stateMutability": "view",
      "type": "function"
    },
    {
      "inputs": [
        {
          "internalType": "string",
          "name": "name",
          "type": "string"
        }
      ],
      "name": "getExtensionVersion",
      "outputs": [
        {
          "components": [
            {
              "internalType": "uint16",
              "name": "major",
              "type": "uint16"
            },
            {
              "internalType": "uint16",
              "name": "minor",
              "type": "uint16"
            }
          ],
          "internalType": "struct Version",
          "name": "",
          "type": "tuple"
        }
      ],
      "stateMutability": "view",
      "type": "function"
    },
    {
      "inputs": [
        {
          "internalType": "string",
          "name": "name",
          "type": "string"
        },
        {
          "components": [
            {
              "internalType": "uint16",
              "name": "major",
              "type": "uint16"
            },
            {
              "internalType": "uint16",
              "name": "minor",
              "type": "uint16"
            }
          ],
          "internalType": "struct Version",
          "name": "version",
          "type": "tuple"
        }
      ],
      "name": "hasExtension",
      "outputs": [
        {
          "internalType": "bool",
          "name": "",
          "type": "bool"
        }
      ],
      "stateMutability": "view",
      "type": "function"
    },
    {
      "inputs": [
        {
          "components": [
            {
              "internalType": "address",
              "name": "owner",
              "type": "address"
            },
            {
              "internalType": "address",
              "name": "termsOwner",
              "type": "address"
            },
            {
              "internalType": "address",
              "name": "registry",
              "type": "address"
            },
            {
              "internalType": "string",
              "name": "name",
              "type": "string"
            },
            {
              "components": [
                {
                  "internalType": "string",
                  "name": "x",
                  "type": "string"
                },
                {
                  "internalType": "string",
                  "name": "y",
                  "type": "string"
                },
                {
                  "internalType": "string",
                  "name": "z",
                  "type": "string"
                },
                {
                  "internalType": "uint256",
                  "name": "t",
                  "type": "uint256"
                },
                {
                  "internalType": "uint256",
                  "name": "p",
                  "type": "uint256"
                },
                {
                  "internalType": "uint256",
                  "name": "p_sub",
                  "type": "uint256"
                }
              ],
              "internalType": "struct VectorAddress",
              "name": "vector",
              "type": "tuple"
            },
            {
              "internalType": "bytes",
              "name": "initData",
              "type": "bytes"
            }
          ],
          "internalType": "struct CommonInitArgs",
          "name": "args",
          "type": "tuple"
        }
      ],
      "name": "init",
      "outputs": [],
      "stateMutability": "nonpayable",
      "type": "function"
    },
    {
      "inputs": [],
      "name": "name",
      "outputs": [
        {
          "internalType": "string",
          "name": "",
          "type": "string"
        }
      ],
      "stateMutability": "view",
      "type": "function"
    },
    {
      "inputs": [],
      "name": "registrarRegistry",
      "outputs": [
        {
          "internalType": "contract IRegistrarRegistry",
          "name": "",
          "type": "address"
        }
      ],
      "stateMutability": "view",
      "type": "function"
    },
    {
      "inputs": [],
      "name": "version",
      "outputs": [
        {
          "components": [
            {
              "internalType": "uint16",
              "name": "major",
              "type": "uint16"
            },
            {
              "internalType": "uint16",
              "name": "minor",
              "type": "uint16"
            }
          ],
          "internalType": "struct Version",
          "name": "",
          "type": "tuple"
        }
      ],
      "stateMutability": "pure",
      "type": "function"
    },
    {
      "inputs": [
        {
          "internalType": "uint256",
          "name": "amount",
          "type": "uint256"
        }
      ],
      "name": "withdraw",
      "outputs": [],
      "stateMutability": "nonpayable",
      "type": "function"
    },
    {
      "inputs": [],
      "name": "worldRegistry",
      "outputs": [
        {
          "internalType": "contract IWorldRegistry",
          "name": "",
          "type": "address"
        }
      ],
      "stateMutability": "view",
      "type": "function"
    },
    {
      "stateMutability": "payable",
      "type": "receive"
    }
  ],
  "bytecode": "0x6101406040523480156200001257600080fd5b5060405162001c0f38038062001c0f83398101604081905262000035916200035c565b80516001600160a01b038116620000b95760405162461bcd60e51b815260206004820152603660248201527f456e746974795368656c6c3a20657874656e73696f6e207265736f6c7665722060448201527f63616e6e6f74206265207a65726f20616464726573730000000000000000000060648201526084015b60405180910390fd5b6001600160a01b03908116608052602082015116620001305760405162461bcd60e51b815260206004820152602c60248201527f576f726c643a206f776e696e6752656769737472792063616e6e6f742062652060448201526b7a65726f206164647265737360a01b6064820152608401620000b0565b60408101516001600160a01b0316620001a45760405162461bcd60e51b815260206004820152602f60248201527f576f726c643a2072656769737472617252656769737472792063616e6e6f742060448201526e6265207a65726f206164647265737360881b6064820152608401620000b0565b60608101516001600160a01b0316620002165760405162461bcd60e51b815260206004820152602d60248201527f576f726c643a20636f6d70616e7952656769737472792063616e6e6f7420626560448201526c207a65726f206164647265737360981b6064820152608401620000b0565b60808101516001600160a01b0316620002875760405162461bcd60e51b815260206004820152602c60248201527f576f726c643a2061766174617252656769737472792063616e6e6f742062652060448201526b7a65726f206164647265737360a01b6064820152608401620000b0565b60a08101516001600160a01b0316620002fc5760405162461bcd60e51b815260206004820152603060248201527f576f726c643a20657870657269656e636552656769737472792063616e6e6f7460448201526f206265207a65726f206164647265737360801b6064820152608401620000b0565b60408101516001600160a01b0390811660c0526020820151811660a09081526060830151821660e052608083015182166101005290910151166101205262000416565b80516001600160a01b03811681146200035757600080fd5b919050565b600060c082840312156200036f57600080fd5b60405160c081016001600160401b0381118282101715620003a057634e487b7160e01b600052604160045260246000fd5b604052620003ae836200033f565b8152620003be602084016200033f565b6020820152620003d1604084016200033f565b6040820152620003e4606084016200033f565b6060820152620003f7608084016200033f565b60808201526200040a60a084016200033f565b60a08201529392505050565b60805160a05160c05160e051610100516101205161178d6200048260003960006102400152600061035c015260006102c0015260006102f401526000818161028c015261097c015260008181610328015281816103880152818161047001526108f2015261178d6000f3fe6080604052600436106100c65760003560e01c806369a10a121161007f578063c51aba2b11610059578063c51aba2b146102ae578063dbdc4e62146102e2578063dd2a44c114610316578063e3d7ad731461034a576100cd565b806369a10a121461020e5780638f09a6be1461022e578063911c2a8c1461027a576100cd565b806306fdde03146100f5578063238a0386146101205780632e1a7d4d146101625780633f995c2c1461018457806347d1d09a146101a657806354fd4d50146101d6576100cd565b366100cd57005b600080356001600160e01b031916905060006100eb8260003661037e565b9050805160208201f35b34801561010157600080fd5b5061010a6103b4565b6040516101179190610f2c565b60405180910390f35b34801561012c57600080fd5b5061014061013b36600461100b565b61044f565b60408051825161ffff9081168252602093840151169281019290925201610117565b34801561016e57600080fd5b5061018261017d366004611040565b6104f3565b005b34801561019057600080fd5b506101996106b0565b6040516101179190611059565b3480156101b257600080fd5b506101c66101c13660046110dc565b6108d8565b6040519015158152602001610117565b3480156101e257600080fd5b506040805180820182526000808252602091820181905282518084019093526001835290820152610140565b34801561021a57600080fd5b50610182610229366004611136565b610971565b34801561023a57600080fd5b506102627f000000000000000000000000000000000000000000000000000000000000000081565b6040516001600160a01b039091168152602001610117565b34801561028657600080fd5b506102627f000000000000000000000000000000000000000000000000000000000000000081565b3480156102ba57600080fd5b506102627f000000000000000000000000000000000000000000000000000000000000000081565b3480156102ee57600080fd5b506102627f000000000000000000000000000000000000000000000000000000000000000081565b34801561032257600080fd5b506102627f000000000000000000000000000000000000000000000000000000000000000081565b34801561035657600080fd5b506102627f000000000000000000000000000000000000000000000000000000000000000081565b60606103ac8484847f0000000000000000000000000000000000000000000000000000000000000000610c52565b949350505050565b60606103be610d84565b60020180546103cc90611171565b80601f01602080910402602001604051908101604052809291908181526020018280546103f890611171565b80156104455780601f1061041a57610100808354040283529160200191610445565b820191906000526020600020905b81548152906001019060200180831161042857829003601f168201915b5050505050905090565b6040805180820182526000808252602082015290516311c501c360e11b81527f00000000000000000000000000000000000000000000000000000000000000006001600160a01b03169063238a0386906104ad908590600401610f2c565b6040805180830381865afa1580156104c9573d6000803e3d6000fd5b505050506040513d601f19601f820116820180604052508101906104ed91906111be565b92915050565b604051630935e01b60e21b815233600482015273__$a5a42e46683ad9c79b7b86d5ff60fdf4c1$__906324d7806c90602401602060405180830381865af4158015610542573d6000803e3d6000fd5b505050506040513d601f19601f82011682018060405250810190610566919061121d565b6105b75760405162461bcd60e51b815260206004820181905260248201527f42617369635368656c6c3a207265737472696374656420746f2061646d696e7360448201526064015b60405180910390fd5b478111156106075760405162461bcd60e51b815260206004820181905260248201527f42617369635368656c6c3a20696e73756666696369656e742062616c616e636560448201526064016105ae565b73__$a5a42e46683ad9c79b7b86d5ff60fdf4c1$__638da5cb5b6040518163ffffffff1660e01b8152600401602060405180830381865af4158015610650573d6000803e3d6000fd5b505050506040513d601f19601f820116820180604052508101906106749190611254565b6001600160a01b03166108fc829081150290604051600060405180830381858888f193505050501580156106ac573d6000803e3d6000fd5b5050565b6106e96040518060c001604052806060815260200160608152602001606081526020016000815260200160008152602001600081525090565b6106f1610d84565b6003016040518060c001604052908160008201805461070f90611171565b80601f016020809104026020016040519081016040528092919081815260200182805461073b90611171565b80156107885780601f1061075d57610100808354040283529160200191610788565b820191906000526020600020905b81548152906001019060200180831161076b57829003601f168201915b505050505081526020016001820180546107a190611171565b80601f01602080910402602001604051908101604052809291908181526020018280546107cd90611171565b801561081a5780601f106107ef5761010080835404028352916020019161081a565b820191906000526020600020905b8154815290600101906020018083116107fd57829003601f168201915b5050505050815260200160028201805461083390611171565b80601f016020809104026020016040519081016040528092919081815260200182805461085f90611171565b80156108ac5780601f10610881576101008083540402835291602001916108ac565b820191906000526020600020905b81548152906001019060200180831161088f57829003601f168201915b505050505081526020016003820154815260200160048201548152602001600582015481525050905090565b6040516323e8e84d60e11b81526000906001600160a01b037f000000000000000000000000000000000000000000000000000000000000000016906347d1d09a906109299086908690600401611271565b602060405180830381865afa158015610946573d6000803e3d6000fd5b505050506040513d601f19601f8201168201806040525081019061096a919061121d565b9392505050565b336001600160a01b037f000000000000000000000000000000000000000000000000000000000000000016146109e95760405162461bcd60e51b815260206004820152601a60248201527f576f726c643a206f6e6c7920776f726c6420726567697374727900000000000060448201526064016105ae565b60006109fb60408301602084016112bd565b6001600160a01b031603610a605760405162461bcd60e51b815260206004820152602660248201527f576f726c643a207465726d73206f776e657220697320746865207a65726f206160448201526564647265737360d01b60648201526084016105ae565b6000610a6f60608301836112da565b905011610abe5760405162461bcd60e51b815260206004820152601b60248201527f576f726c643a206e616d652063616e6e6f7420626520656d707479000000000060448201526064016105ae565b60408051600080825260208201909252905073__$a5a42e46683ad9c79b7b86d5ff60fdf4c1$__63d9ac971f610af760208501856112bd565b836040518363ffffffff1660e01b8152600401610b15929190611328565b60006040518083038186803b158015610b2d57600080fd5b505af4158015610b41573d6000803e3d6000fd5b50610b53925050506080830183611384565b610b5c906113a4565b6040516361d9624d60e01b815273__$ad2b23306edd42b5f4873830e307b82d47$__916361d9624d91610b9791906000908190600401611457565b60006040518083038186803b158015610baf57600080fd5b505af4158015610bc3573d6000803e3d6000fd5b505050506000610bd1610d84565b805460ff191660011781559050610beb60608401846112da565b6002830191610bfb91908361153f565b50610c096080840184611384565b60038201610c178282611600565b50610c2a905060408401602085016112bd565b81546001600160a01b0391909116620100000262010000600160b01b03199091161790555050565b6040516337b4746960e11b81526001600160e01b0319851660048201526060906000906001600160a01b03841690636f68e8d290602401602060405180830381865afa158015610ca6573d6000803e3d6000fd5b505050506040513d601f19601f82011682018060405250810190610cca9190611254565b90506001600160a01b038116610d3a5760405162461bcd60e51b815260206004820152602f60248201527f4c6962457874656e73696f6e3a206e6f20657874656e73696f6e20737570706f60448201526e393a399033371039b2b632b1ba37b960891b60648201526084016105ae565b610d7a8186868080601f016020809104026020016040519081016040528093929190818152602001838380828437600092019190915250610e1a92505050565b9695505050505050565b60408051808201909152601881527f78722e61637469766174696f6e2e73746f726167652e7631000000000000000060209091015260008060ff610de960017ff6611e962a52dbc98dd0485088d920890c43e26113c61976f6e171a29d49ce49611724565b604051602001610dfb91815260200190565b60408051601f1981840301815291905280516020909101201692915050565b6060600080846001600160a01b031684604051610e379190611745565b600060405180830381855af49150503d8060008114610e72576040519150601f19603f3d011682016040523d82523d6000602084013e610e77565b606091505b50915091508115610e8b5791506104ed9050565b805115610e9b5780518082602001fd5b60405162461bcd60e51b8152602060048201526016602482015275119d5b98dd1a5bdb8818d85b1b081c995d995c9d195960521b60448201526064016105ae565b60005b83811015610ef7578181015183820152602001610edf565b50506000910152565b60008151808452610f18816020860160208601610edc565b601f01601f19169290920160200192915050565b60208152600061096a6020830184610f00565b634e487b7160e01b600052604160045260246000fd5b60405160c0810167ffffffffffffffff81118282101715610f7857610f78610f3f565b60405290565b600082601f830112610f8f57600080fd5b813567ffffffffffffffff80821115610faa57610faa610f3f565b604051601f8301601f19908116603f01168101908282118183101715610fd257610fd2610f3f565b81604052838152866020858801011115610feb57600080fd5b836020870160208301376000602085830101528094505050505092915050565b60006020828403121561101d57600080fd5b813567ffffffffffffffff81111561103457600080fd5b6103ac84828501610f7e565b60006020828403121561105257600080fd5b5035919050565b602081526000825160c0602084015261107560e0840182610f00565b90506020840151601f19808584030160408601526110938383610f00565b92506040860151915080858403016060860152506110b18282610f00565b91505060608401516080840152608084015160a084015260a084015160c08401528091505092915050565b60008082840360608112156110f057600080fd5b833567ffffffffffffffff81111561110757600080fd5b61111386828701610f7e565b9350506040601f198201121561112857600080fd5b506020830190509250929050565b60006020828403121561114857600080fd5b813567ffffffffffffffff81111561115f57600080fd5b820160c0818503121561096a57600080fd5b600181811c9082168061118557607f821691505b6020821081036111a557634e487b7160e01b600052602260045260246000fd5b50919050565b61ffff811681146111bb57600080fd5b50565b6000604082840312156111d057600080fd5b6040516040810181811067ffffffffffffffff821117156111f3576111f3610f3f565b6040528251611201816111ab565b81526020830151611211816111ab565b60208201529392505050565b60006020828403121561122f57600080fd5b8151801515811461096a57600080fd5b6001600160a01b03811681146111bb57600080fd5b60006020828403121561126657600080fd5b815161096a8161123f565b6060815260006112846060830185610f00565b90508235611291816111ab565b61ffff8082166020850152602085013591506112ac826111ab565b808216604085015250509392505050565b6000602082840312156112cf57600080fd5b813561096a8161123f565b6000808335601e198436030181126112f157600080fd5b83018035915067ffffffffffffffff82111561130c57600080fd5b60200191503681900382131561132157600080fd5b9250929050565b6001600160a01b038381168252604060208084018290528451918401829052600092858201929091906060860190855b81811015611376578551851683529483019491830191600101611358565b509098975050505050505050565b6000823560be1983360301811261139a57600080fd5b9190910192915050565b600060c082360312156113b657600080fd5b6113be610f55565b823567ffffffffffffffff808211156113d657600080fd5b6113e236838701610f7e565b835260208501359150808211156113f857600080fd5b61140436838701610f7e565b6020840152604085013591508082111561141d57600080fd5b5061142a36828601610f7e565b604083015250606083013560608201526080830135608082015260a083013560a082015280915050919050565b606081526000845160c06060840152611474610120840182610f00565b90506020860151605f19808584030160808601526114928383610f00565b925060408801519150808584030160a0860152506114b08282610f00565b606088015160c0860152608088015160e086015260a0880151610100860152861515602086015292506114e1915050565b82151560408301526103ac565b601f82111561153a576000816000526020600020601f850160051c810160208610156115175750805b601f850160051c820191505b8181101561153657828155600101611523565b5050505b505050565b67ffffffffffffffff83111561155757611557610f3f565b61156b836115658354611171565b836114ee565b6000601f84116001811461159f57600085156115875750838201355b600019600387901b1c1916600186901b1783556115f9565b600083815260209020601f19861690835b828110156115d057868501358255602094850194600190920191016115b0565b50868210156115ed5760001960f88860031b161c19848701351681555b505060018560011b0183555b5050505050565b61160a82836112da565b67ffffffffffffffff81111561162257611622610f3f565b611636816116308554611171565b856114ee565b6000601f82116001811461166a57600083156116525750838201355b600019600385901b1c1916600184901b1785556116c4565b600085815260209020601f19841690835b8281101561169b578685013582556020948501946001909201910161167b565b50848210156116b85760001960f88660031b161c19848701351681555b505060018360011b0185555b505050506116d560208301836112da565b6116e381836001860161153f565b50506116f260408301836112da565b61170081836002860161153f565b5050606082013560038201556080820135600482015560a082013560058201555050565b818103818111156104ed57634e487b7160e01b600052601160045260246000fd5b6000825161139a818460208701610edc56fea26469706673582212205412a4bd97cf8ea84b671af77254cb4fda639acb44d3d97da03310b92b79e22764736f6c63430008180033",
  "linkReferences": {
    "contracts/libraries/LibAccess.sol": {
      "LibAccess": [
        {
          "length": 20,
          "start": 2442
        },
        {
          "length": 20,
          "start": 2699
        },
        {
          "length": 20,
          "start": 3924
        }
      ]
    },
    "contracts/libraries/LibVectorAddress.sol": {
      "LibVectorAddress": [
        {
          "length": 20,
          "start": 4077
        }
      ]
    }
  },
  "deployedLinkReferences": {
    "contracts/libraries/LibAccess.sol": {
      "LibAccess": [
        {
          "length": 20,
          "start": 1288
        },
        {
          "length": 20,
          "start": 1545
        },
        {
          "length": 20,
          "start": 2770
        }
      ]
    },
    "contracts/libraries/LibVectorAddress.sol": {
      "LibVectorAddress": [
        {
          "length": 20,
          "start": 2923
        }
      ]
    }
  }
}