{
  "_format": "hh-sol-artifact-1",
  "contractName": "WorldFactory0_2",
  "sourceName": "contracts/world/v0.2/WorldFactory0_2.sol",
  "abi": [
    {
      "inputs": [
        {
          "internalType": "address",
          "name": "mainAdmin",
          "type": "address"
        },
        {
          "internalType": "address[]",
          "name": "admins",
          "type": "address[]"
        }
      ],
      "stateMutability": "nonpayable",
      "type": "constructor"
    },
    {
      "inputs": [],
      "name": "AccessControlBadConfirmation",
      "type": "error"
    },
    {
      "inputs": [
        {
          "internalType": "address",
          "name": "account",
          "type": "address"
        },
        {
          "internalType": "bytes32",
          "name": "neededRole",
          "type": "bytes32"
        }
      ],
      "name": "AccessControlUnauthorizedAccount",
      "type": "error"
    },
    {
      "anonymous": false,
      "inputs": [
        {
          "indexed": true,
          "internalType": "address",
          "name": "oldRegistry",
          "type": "address"
        },
        {
          "indexed": true,
          "internalType": "address",
          "name": "newRegistry",
          "type": "address"
        }
      ],
      "name": "AuthorizedRegistryChanged",
      "type": "event"
    },
    {
      "anonymous": false,
      "inputs": [
        {
          "indexed": true,
          "internalType": "bytes32",
          "name": "role",
          "type": "bytes32"
        },
        {
          "indexed": true,
          "internalType": "bytes32",
          "name": "previousAdminRole",
          "type": "bytes32"
        },
        {
          "indexed": true,
          "internalType": "bytes32",
          "name": "newAdminRole",
          "type": "bytes32"
        }
      ],
      "name": "RoleAdminChanged",
      "type": "event"
    },
    {
      "anonymous": false,
      "inputs": [
        {
          "indexed": true,
          "internalType": "bytes32",
          "name": "role",
          "type": "bytes32"
        },
        {
          "indexed": true,
          "internalType": "address",
          "name": "account",
          "type": "address"
        },
        {
          "indexed": true,
          "internalType": "address",
          "name": "sender",
          "type": "address"
        }
      ],
      "name": "RoleGranted",
      "type": "event"
    },
    {
      "anonymous": false,
      "inputs": [
        {
          "indexed": true,
          "internalType": "bytes32",
          "name": "role",
          "type": "bytes32"
        },
        {
          "indexed": true,
          "internalType": "address",
          "name": "account",
          "type": "address"
        },
        {
          "indexed": true,
          "internalType": "address",
          "name": "sender",
          "type": "address"
        }
      ],
      "name": "RoleRevoked",
      "type": "event"
    },
    {
      "inputs": [],
      "name": "ADMIN_ROLE",
      "outputs": [
        {
          "internalType": "bytes32",
          "name": "",
          "type": "bytes32"
        }
      ],
      "stateMutability": "view",
      "type": "function"
    },
    {
      "inputs": [],
      "name": "DEFAULT_ADMIN_ROLE",
      "outputs": [
        {
          "internalType": "bytes32",
          "name": "",
          "type": "bytes32"
        }
      ],
      "stateMutability": "view",
      "type": "function"
    },
    {
      "inputs": [
        {
          "components": [
            {
              "internalType": "address",
              "name": "owner",
              "type": "address"
            },
            {
              "internalType": "address",
              "name": "oldWorld",
              "type": "address"
            },
            {
              "components": [
                {
                  "internalType": "string",
                  "name": "x",
                  "type": "string"
                },
                {
                  "internalType": "string",
                  "name": "y",
                  "type": "string"
                },
                {
                  "internalType": "string",
                  "name": "z",
                  "type": "string"
                },
                {
                  "internalType": "uint256",
                  "name": "t",
                  "type": "uint256"
                },
                {
                  "internalType": "uint256",
                  "name": "p",
                  "type": "uint256"
                },
                {
                  "internalType": "uint256",
                  "name": "p_sub",
                  "type": "uint256"
                }
              ],
              "internalType": "struct VectorAddress",
              "name": "baseVector",
              "type": "tuple"
            },
            {
              "internalType": "string",
              "name": "name",
              "type": "string"
            },
            {
              "internalType": "bytes",
              "name": "initData",
              "type": "bytes"
            }
          ],
          "internalType": "struct WorldCreateRequest",
          "name": "request",
          "type": "tuple"
        }
      ],
      "name": "createWorld",
      "outputs": [
        {
          "internalType": "address",
          "name": "world",
          "type": "address"
        }
      ],
      "stateMutability": "nonpayable",
      "type": "function"
    },
    {
      "inputs": [],
      "name": "getImplementation",
      "outputs": [
        {
          "internalType": "address",
          "name": "",
          "type": "address"
        }
      ],
      "stateMutability": "view",
      "type": "function"
    },
    {
      "inputs": [
        {
          "internalType": "bytes32",
          "name": "role",
          "type": "bytes32"
        }
      ],
      "name": "getRoleAdmin",
      "outputs": [
        {
          "internalType": "bytes32",
          "name": "",
          "type": "bytes32"
        }
      ],
      "stateMutability": "view",
      "type": "function"
    },
    {
      "inputs": [
        {
          "internalType": "bytes32",
          "name": "role",
          "type": "bytes32"
        },
        {
          "internalType": "address",
          "name": "account",
          "type": "address"
        }
      ],
      "name": "grantRole",
      "outputs": [],
      "stateMutability": "nonpayable",
      "type": "function"
    },
    {
      "inputs": [
        {
          "internalType": "bytes32",
          "name": "role",
          "type": "bytes32"
        },
        {
          "internalType": "address",
          "name": "account",
          "type": "address"
        }
      ],
      "name": "hasRole",
      "outputs": [
        {
          "internalType": "bool",
          "name": "",
          "type": "bool"
        }
      ],
      "stateMutability": "view",
      "type": "function"
    },
    {
      "inputs": [
        {
          "internalType": "address",
          "name": "query",
          "type": "address"
        }
      ],
      "name": "isClone",
      "outputs": [
        {
          "internalType": "bool",
          "name": "result",
          "type": "bool"
        }
      ],
      "stateMutability": "view",
      "type": "function"
    },
    {
      "inputs": [
        {
          "internalType": "bytes32",
          "name": "role",
          "type": "bytes32"
        },
        {
          "internalType": "address",
          "name": "callerConfirmation",
          "type": "address"
        }
      ],
      "name": "renounceRole",
      "outputs": [],
      "stateMutability": "nonpayable",
      "type": "function"
    },
    {
      "inputs": [
        {
          "internalType": "bytes32",
          "name": "role",
          "type": "bytes32"
        },
        {
          "internalType": "address",
          "name": "account",
          "type": "address"
        }
      ],
      "name": "revokeRole",
      "outputs": [],
      "stateMutability": "nonpayable",
      "type": "function"
    },
    {
      "inputs": [
        {
          "internalType": "address",
          "name": "_registry",
          "type": "address"
        }
      ],
      "name": "setAuthorizedRegistry",
      "outputs": [],
      "stateMutability": "nonpayable",
      "type": "function"
    },
    {
      "inputs": [
        {
          "internalType": "address",
          "name": "_implementation",
          "type": "address"
        }
      ],
      "name": "setImplementation",
      "outputs": [],
      "stateMutability": "nonpayable",
      "type": "function"
    },
    {
      "inputs": [
        {
          "internalType": "address",
          "name": "_proxyImplementation",
          "type": "address"
        }
      ],
      "name": "setProxyImplementation",
      "outputs": [],
      "stateMutability": "nonpayable",
      "type": "function"
    },
    {
      "inputs": [
        {
          "internalType": "bytes4",
          "name": "interfaceId",
          "type": "bytes4"
        }
      ],
      "name": "supportsInterface",
      "outputs": [
        {
          "internalType": "bool",
          "name": "",
          "type": "bool"
        }
      ],
      "stateMutability": "view",
      "type": "function"
    },
    {
      "inputs": [
        {
          "internalType": "address",
          "name": "world",
          "type": "address"
        },
        {
          "internalType": "bytes",
          "name": "initData",
          "type": "bytes"
        }
      ],
      "name": "upgradeWorld",
      "outputs": [],
      "stateMutability": "nonpayable",
      "type": "function"
    }
  ],
  "bytecode": "0x60806040523480156200001157600080fd5b5060405162001471380380620014718339810160408190526200003491620002a6565b81816001600160a01b038216620000a95760405162461bcd60e51b815260206004820152602e60248201527f42617365466163746f72793a206d61696e2061646d696e2063616e6e6f74206260448201526d65207a65726f206164647265737360901b60648201526084015b60405180910390fd5b620000b6600083620001c4565b50620000d26000805160206200145183398151915283620001c4565b5060005b8151811015620001b95760006001600160a01b03168282815181106200010057620001006200038f565b60200260200101516001600160a01b031603620001725760405162461bcd60e51b815260206004820152602960248201527f42617365466163746f72793a2061646d696e2063616e6e6f74206265207a65726044820152686f206164647265737360b81b6064820152608401620000a0565b620001af600080516020620014518339815191528383815181106200019b576200019b6200038f565b6020026020010151620001c460201b60201c565b50600101620000d6565b5050505050620003a5565b6000828152602081815260408083206001600160a01b038516845290915281205460ff1662000269576000838152602081815260408083206001600160a01b03861684529091529020805460ff19166001179055620002203390565b6001600160a01b0316826001600160a01b0316847f2f8788117e7eff1d82e926ec794901d17c78024a50270940304540a733656f0d60405160405180910390a45060016200026d565b5060005b92915050565b80516001600160a01b03811681146200028b57600080fd5b919050565b634e487b7160e01b600052604160045260246000fd5b60008060408385031215620002ba57600080fd5b620002c58362000273565b602084810151919350906001600160401b0380821115620002e557600080fd5b818601915086601f830112620002fa57600080fd5b8151818111156200030f576200030f62000290565b8060051b604051601f19603f8301168101818110858211171562000337576200033762000290565b6040529182528482019250838101850191898311156200035657600080fd5b938501935b828510156200037f576200036f8562000273565b845293850193928501926200035b565b8096505050505050509250929050565b634e487b7160e01b600052603260045260246000fd5b61109c80620003b56000396000f3fe608060405234801561001057600080fd5b50600436106100f45760003560e01c806375b238fc11610097578063a217fddf11610066578063a217fddf14610219578063aaf10f4214610221578063d547741f14610232578063d784d4261461024557600080fd5b806375b238fc146101b357806382f91ff0146101c857806391d14854146101f35780639fdcd3a41461020657600080fd5b8063248a9ca3116100d3578063248a9ca3146101495780632f2ff15d1461017a57806336568abe1461018d578063390b9e3d146101a057600080fd5b8062ae3676146100f957806301ffc9a714610121578063090741a014610134575b600080fd5b61010c610107366004610ac4565b610258565b60405190151581526020015b60405180910390f35b61010c61012f366004610ae6565b6102cd565b610147610142366004610ac4565b610304565b005b61016c610157366004610b10565b60009081526020819052604090206001015490565b604051908152602001610118565b610147610188366004610b29565b6103da565b61014761019b366004610b29565b610405565b6101476101ae366004610b55565b61043d565b61016c60008051602061104783398151915281565b6101db6101d6366004610d79565b610553565b6040516001600160a01b039091168152602001610118565b61010c610201366004610b29565b610674565b610147610214366004610ac4565b61069d565b61016c600081565b6001546001600160a01b03166101db565b610147610240366004610b29565b610754565b610147610253366004610ac4565b610779565b600080600160009054906101000a90046001600160a01b031660601b905060405169363d3d373d3d3d363d7360b01b815281600a8201526e5af43d82803e903d91602b57fd5bf360881b601e82015260408101602d600082873c600d810151600d830151148151835114169350505050919050565b60006001600160e01b03198216637965db0b60e01b14806102fe57506301ffc9a760e01b6001600160e01b03198316145b92915050565b60008051602061104783398151915261031c81610825565b6001600160a01b03821661038d5760405162461bcd60e51b815260206004820152602d60248201527f576f726c64466163746f72793a2072656769737472792063616e6e6f7420626560448201526c207a65726f206164647265737360981b60648201526084015b60405180910390fd5b600380546001600160a01b0319166001600160a01b03841690811790915560405181907fc86b12484784843e0f58748ffb8c87f7ee384e04382a190867f3cccc3b6cf97b90600090a35050565b6000828152602081905260409020600101546103f581610825565b6103ff8383610832565b50505050565b6001600160a01b038116331461042e5760405163334bd91960e11b815260040160405180910390fd5b61043882826108c4565b505050565b6003546001600160a01b03166104655760405162461bcd60e51b815260040161038490610e50565b6003546001600160a01b0316331461048f5760405162461bcd60e51b815260040161038490610e98565b600154604051632663d1f760e01b81526001600160a01b03918216600482015290841690632663d1f790602401600060405180830381600087803b1580156104d657600080fd5b505af11580156104ea573d6000803e3d6000fd5b5050604051631377d1f560e21b81526001600160a01b0386169250634ddf47d4915061051c9085908590600401610ee6565b600060405180830381600087803b15801561053657600080fd5b505af115801561054a573d6000803e3d6000fd5b50505050505050565b6003546000906001600160a01b031661057e5760405162461bcd60e51b815260040161038490610e50565b6003546001600160a01b031633146105a85760405162461bcd60e51b815260040161038490610e98565b6105b061092f565b600154604051639c02006160e01b81526001600160a01b039182166004820152919250821690639c02006190602401600060405180830381600087803b1580156105f957600080fd5b505af115801561060d573d6000803e3d6000fd5b50506040516361445eb760e01b81526001600160a01b03841692506361445eb7915061063d908590600401610f5b565b600060405180830381600087803b15801561065757600080fd5b505af115801561066b573d6000803e3d6000fd5b50505050919050565b6000918252602082815260408084206001600160a01b0393909316845291905290205460ff1690565b6000805160206110478339815191526106b581610825565b6001600160a01b0382166107315760405162461bcd60e51b815260206004820152603860248201527f42617365466163746f72793a2070726f787920696d706c656d656e746174696f60448201527f6e2063616e6e6f74206265207a65726f206164647265737300000000000000006064820152608401610384565b50600280546001600160a01b0319166001600160a01b0392909216919091179055565b60008281526020819052604090206001015461076f81610825565b6103ff83836108c4565b60008051602061104783398151915261079181610825565b6001600160a01b0382166108025760405162461bcd60e51b815260206004820152603260248201527f42617365466163746f72793a20696d706c656d656e746174696f6e2063616e6e6044820152716f74206265207a65726f206164647265737360701b6064820152608401610384565b50600180546001600160a01b0319166001600160a01b0392909216919091179055565b61082f81336109b6565b50565b600061083e8383610674565b6108bc576000838152602081815260408083206001600160a01b03861684529091529020805460ff191660011790556108743390565b6001600160a01b0316826001600160a01b0316847f2f8788117e7eff1d82e926ec794901d17c78024a50270940304540a733656f0d60405160405180910390a45060016102fe565b5060006102fe565b60006108d08383610674565b156108bc576000838152602081815260408083206001600160a01b0386168085529252808320805460ff1916905551339286917ff6391f5c32d9c69d2a47ea670b442974b53935d1edc7fd64eb21e047a839171b9190a45060016102fe565b6002546000906001600160a01b031661099c5760405162461bcd60e51b815260206004820152602960248201527f42617365466163746f72793a2070726f787920696d706c656d656e746174696f6044820152681b881b9bdd081cd95d60ba1b6064820152608401610384565b6002546109b1906001600160a01b03166109f3565b905090565b6109c08282610674565b6109ef5760405163e2517d3f60e01b81526001600160a01b038216600482015260248101839052604401610384565b5050565b60006001600160a01b038216610a575760405162461bcd60e51b815260206004820152602360248201527f42617365466163746f72793a20696d706c656d656e746174696f6e206e6f74206044820152621cd95d60ea1b6064820152608401610384565b60008260601b9050604051733d602d80600a3d3981f3363d3d373d3d3d363d7360601b81528160148201526e5af43d82803e903d91602b57fd5bf360881b60288201526037816000f0949350505050565b80356001600160a01b0381168114610abf57600080fd5b919050565b600060208284031215610ad657600080fd5b610adf82610aa8565b9392505050565b600060208284031215610af857600080fd5b81356001600160e01b031981168114610adf57600080fd5b600060208284031215610b2257600080fd5b5035919050565b60008060408385031215610b3c57600080fd5b82359150610b4c60208401610aa8565b90509250929050565b600080600060408486031215610b6a57600080fd5b610b7384610aa8565b9250602084013567ffffffffffffffff80821115610b9057600080fd5b818601915086601f830112610ba457600080fd5b813581811115610bb357600080fd5b876020828501011115610bc557600080fd5b6020830194508093505050509250925092565b634e487b7160e01b600052604160045260246000fd5b60405160c0810167ffffffffffffffff81118282101715610c1157610c11610bd8565b60405290565b60405160a0810167ffffffffffffffff81118282101715610c1157610c11610bd8565b600082601f830112610c4b57600080fd5b813567ffffffffffffffff80821115610c6657610c66610bd8565b604051601f8301601f19908116603f01168101908282118183101715610c8e57610c8e610bd8565b81604052838152866020858801011115610ca757600080fd5b836020870160208301376000602085830101528094505050505092915050565b600060c08284031215610cd957600080fd5b610ce1610bee565b9050813567ffffffffffffffff80821115610cfb57600080fd5b610d0785838601610c3a565b83526020840135915080821115610d1d57600080fd5b610d2985838601610c3a565b60208401526040840135915080821115610d4257600080fd5b50610d4f84828501610c3a565b604083015250606082013560608201526080820135608082015260a082013560a082015292915050565b600060208284031215610d8b57600080fd5b813567ffffffffffffffff80821115610da357600080fd5b9083019060a08286031215610db757600080fd5b610dbf610c17565b610dc883610aa8565b8152610dd660208401610aa8565b6020820152604083013582811115610ded57600080fd5b610df987828601610cc7565b604083015250606083013582811115610e1157600080fd5b610e1d87828601610c3a565b606083015250608083013582811115610e3557600080fd5b610e4187828601610c3a565b60808301525095945050505050565b60208082526028908201527f42617365466163746f72793a20617574686f72697a6564207265676973747279604082015267081b9bdd081cd95d60c21b606082015260800190565b6020808252602e908201527f42617365466163746f72793a2063616c6c6572206973206e6f7420617574686f60408201526d72697a656420726567697374727960901b606082015260800190565b60208152816020820152818360408301376000818301604090810191909152601f909201601f19160101919050565b6000815180845260005b81811015610f3b57602081850181015186830182015201610f1f565b506000602082860101526020601f19601f83011685010191505092915050565b60208152600060018060a01b0380845116602084015280602085015116604084015250604083015160a06060840152805160c080850152610fa0610180850182610f15565b9050602082015160bf19808684030160e0870152610fbe8383610f15565b925060408401519150808684030161010087015250610fdd8282610f15565b9150506060820151610120850152608082015161014085015260a082015161016085015260608501519150601f198085830301608086015261101f8284610f15565b925060808601519150808584030160a08601525061103d8282610f15565b9594505050505056fea49807205ce4d355092ef5a8a18f56e8913cf4a201fbe287825b095693c21775a2646970667358221220b025c3c0e73ce2185e6fa6128355757e97d46736987b2350a1569f8355c68dca64736f6c63430008180033a49807205ce4d355092ef5a8a18f56e8913cf4a201fbe287825b095693c21775",
  "linkReferences": {},
  "deployedLinkReferences": {}
}