{
  "_format": "hh-sol-artifact-1",
  "contractName": "WorldAddCompanyExt",
  "sourceName": "contracts/extensions/world/WorldAddCompanyExt.sol",
  "abi": [
    {
      "inputs": [
        {
          "internalType": "uint256",
          "name": "value",
          "type": "uint256"
        },
        {
          "internalType": "uint256",
          "name": "length",
          "type": "uint256"
        }
      ],
      "name": "StringsInsufficientHexLength",
      "type": "error"
    },
    {
      "anonymous": false,
      "inputs": [
        {
          "indexed": true,
          "internalType": "address",
          "name": "company",
          "type": "address"
        },
        {
          "indexed": true,
          "internalType": "address",
          "name": "owner",
          "type": "address"
        },
        {
          "components": [
            {
              "internalType": "string",
              "name": "x",
              "type": "string"
            },
            {
              "internalType": "string",
              "name": "y",
              "type": "string"
            },
            {
              "internalType": "string",
              "name": "z",
              "type": "string"
            },
            {
              "internalType": "uint256",
              "name": "t",
              "type": "uint256"
            },
            {
              "internalType": "uint256",
              "name": "p",
              "type": "uint256"
            },
            {
              "internalType": "uint256",
              "name": "p_sub",
              "type": "uint256"
            }
          ],
          "indexed": false,
          "internalType": "struct VectorAddress",
          "name": "vector",
          "type": "tuple"
        }
      ],
      "name": "WorldAddedCompany",
      "type": "event"
    },
    {
      "inputs": [
        {
          "internalType": "address",
          "name": "world",
          "type": "address"
        },
        {
          "internalType": "string",
          "name": "reason",
          "type": "string"
        }
      ],
      "name": "deactivateCompany",
      "outputs": [],
      "stateMutability": "nonpayable",
      "type": "function"
    },
    {
      "inputs": [
        {
          "components": [
            {
              "internalType": "address",
              "name": "owner",
              "type": "address"
            },
            {
              "internalType": "address",
              "name": "owningRegistry",
              "type": "address"
            },
            {
              "internalType": "address[]",
              "name": "admins",
              "type": "address[]"
            }
          ],
          "internalType": "struct ExtensionInitArgs",
          "name": "args",
          "type": "tuple"
        }
      ],
      "name": "initStorage",
      "outputs": [],
      "stateMutability": "nonpayable",
      "type": "function"
    },
    {
      "inputs": [
        {
          "internalType": "address",
          "name": "myAddress",
          "type": "address"
        }
      ],
      "name": "install",
      "outputs": [],
      "stateMutability": "nonpayable",
      "type": "function"
    },
    {
      "inputs": [],
      "name": "metadata",
      "outputs": [
        {
          "components": [
            {
              "internalType": "string",
              "name": "name",
              "type": "string"
            },
            {
              "components": [
                {
                  "internalType": "uint16",
                  "name": "major",
                  "type": "uint16"
                },
                {
                  "internalType": "uint16",
                  "name": "minor",
                  "type": "uint16"
                }
              ],
              "internalType": "struct Version",
              "name": "version",
              "type": "tuple"
            }
          ],
          "internalType": "struct ExtensionMetadata",
          "name": "",
          "type": "tuple"
        }
      ],
      "stateMutability": "pure",
      "type": "function"
    },
    {
      "inputs": [
        {
          "internalType": "address",
          "name": "world",
          "type": "address"
        }
      ],
      "name": "reactivateCompany",
      "outputs": [],
      "stateMutability": "nonpayable",
      "type": "function"
    },
    {
      "inputs": [
        {
          "components": [
            {
              "internalType": "bool",
              "name": "sendTokensToOwner",
              "type": "bool"
            },
            {
              "internalType": "address",
              "name": "owner",
              "type": "address"
            },
            {
              "internalType": "string",
              "name": "name",
              "type": "string"
            },
            {
              "components": [
                {
                  "internalType": "uint16",
                  "name": "coveragePeriodDays",
                  "type": "uint16"
                },
                {
                  "internalType": "uint16",
                  "name": "gracePeriodDays",
                  "type": "uint16"
                },
                {
                  "internalType": "uint256",
                  "name": "fee",
                  "type": "uint256"
                }
              ],
              "internalType": "struct RegistrationTerms",
              "name": "terms",
              "type": "tuple"
            },
            {
              "internalType": "bytes",
              "name": "ownerTermsSignature",
              "type": "bytes"
            },
            {
              "internalType": "uint256",
              "name": "expiration",
              "type": "uint256"
            },
            {
              "internalType": "bytes",
              "name": "initData",
              "type": "bytes"
            }
          ],
          "internalType": "struct NewCompanyArgs",
          "name": "args",
          "type": "tuple"
        }
      ],
      "name": "registerCompany",
      "outputs": [
        {
          "internalType": "address",
          "name": "company",
          "type": "address"
        }
      ],
      "stateMutability": "payable",
      "type": "function"
    },
    {
      "inputs": [
        {
          "internalType": "address",
          "name": "world",
          "type": "address"
        },
        {
          "internalType": "string",
          "name": "reason",
          "type": "string"
        }
      ],
      "name": "removeCompany",
      "outputs": [],
      "stateMutability": "nonpayable",
      "type": "function"
    },
    {
      "inputs": [
        {
          "internalType": "address",
          "name": "myAddress",
          "type": "address"
        }
      ],
      "name": "upgrade",
      "outputs": [],
      "stateMutability": "nonpayable",
      "type": "function"
    }
  ],
  "bytecode": "0x608060405234801561001057600080fd5b506119b6806100206000396000f3fe60806040526004361061007b5760003560e01c8063412456c81161004e578063412456c814610112578063729963c014610132578063a18cd5cc1461014d578063ddf83cff1461016d57600080fd5b80630900f0101461008057806318c538c7146100a05780632a1b8f9b146100d0578063392f37e9146100f0575b600080fd5b34801561008c57600080fd5b5061009e61009b366004610fd7565b50565b005b6100b36100ae36600461119f565b61018d565b6040516001600160a01b0390911681526020015b60405180910390f35b3480156100dc57600080fd5b5061009e6100eb366004610fd7565b6104c2565b3480156100fc57600080fd5b506101056106f5565b6040516100c791906112e4565b34801561011e57600080fd5b5061009e61012d366004611329565b61074d565b34801561013e57600080fd5b5061009e61009b3660046113ae565b34801561015957600080fd5b5061009e610168366004610fd7565b6108ab565b34801561017957600080fd5b5061009e610188366004611329565b610a01565b604051637df73e2760e01b815233600482015260009073__$a5a42e46683ad9c79b7b86d5ff60fdf4c1$__90637df73e2790602401602060405180830381865af41580156101df573d6000803e3d6000fd5b505050506040513d601f19601f8201168201806040525081019061020391906113e9565b6102285760405162461bcd60e51b815260040161021f90611406565b60405180910390fd5b6000306001600160a01b031663c51aba2b6040518163ffffffff1660e01b8152600401602060405180830381865afa158015610268573d6000803e3d6000fd5b505050506040513d601f19601f8201168201806040525081019061028c9190611447565b90506001600160a01b0381166102f95760405162461bcd60e51b815260206004820152602c60248201527f576f726c64416464436f6d70616e794578743a20636f6d70616e79207265676960448201526b1cdd1c9e481b9bdd081cd95d60a21b606482015260840161021f565b60008190506000306001600160a01b0316633f995c2c6040518163ffffffff1660e01b8152600401600060405180830381865afa15801561033e573d6000803e3d6000fd5b505050506040513d6000823e601f3d908101601f1916820160405261036691908101906114a9565b90506000610372610b26565b9050806000016000815461038590611595565b919050819055508060000154826080018181525050826001600160a01b0316629ee30860405180610100016040528089600001511515815260200189602001516001600160a01b0316815260200189604001518152602001896060015181526020018581526020018960c001518152602001896080015181526020018960a001518152506040518263ffffffff1660e01b81526004016104259190611621565b6020604051808303816000875af1158015610444573d6000803e3d6000fd5b505050506040513d601f19601f820116820180604052508101906104689190611447565b945085602001516001600160a01b0316856001600160a01b03167f54617c01ce8b2322d3c9640ac735f08c961dbd1d004e423027b43b2d1edd3713846040516104b19190611708565b60405180910390a350505050919050565b60408051600480825260a08201909252600091816020015b6040805180820190915260008152606060208201528152602001906001900390816104da57905050905060405180604001604052806318c538c760e01b6001600160e01b03191681526020016040518060400160405280601d81526020017f7265676973746572576f726c64284e6577436f6d70616e794172677329000000815250815250816000815181106105725761057261171b565b6020026020010181905250604051806040016040528063ddf83cff60e01b6001600160e01b031916815260200160405180606001604052806021815260200161196060219139815250816001815181106105ce576105ce61171b565b6020026020010181905250604051806040016040528063a18cd5cc60e01b6001600160e01b03191681526020016040518060400160405280601a81526020017f72656163746976617465436f6d70616e79286164647265737329000000000000815250815250816002815181106106475761064761171b565b6020026020010181905250604051806040016040528063412456c860e01b6001600160e01b03191681526020016040518060400160405280601d81526020017f72656d6f7665436f6d70616e7928616464726573732c737472696e6729000000815250815250816003815181106106c0576106c061171b565b60200260200101819052506106f16040518060400160405280846001600160a01b0316815260200183815250610bb2565b5050565b6106fd610f76565b506040805160808101825260128183019081527115dbdc9b1910591910dbdb5c185b9e515e1d60721b60608301528152815180830190925260018252600060208381019190915281019190915290565b604051637df73e2760e01b815233600482015273__$a5a42e46683ad9c79b7b86d5ff60fdf4c1$__90637df73e2790602401602060405180830381865af415801561079c573d6000803e3d6000fd5b505050506040513d601f19601f820116820180604052508101906107c091906113e9565b6107dc5760405162461bcd60e51b815260040161021f90611406565b6000306001600160a01b031663c51aba2b6040518163ffffffff1660e01b8152600401602060405180830381865afa15801561081c573d6000803e3d6000fd5b505050506040513d601f19601f820116820180604052508101906108409190611447565b60405163af08d53d60e01b81529091506001600160a01b0382169063af08d53d9061087390879087908790600401611731565b600060405180830381600087803b15801561088d57600080fd5b505af11580156108a1573d6000803e3d6000fd5b5050505050505050565b604051637df73e2760e01b815233600482015273__$a5a42e46683ad9c79b7b86d5ff60fdf4c1$__90637df73e2790602401602060405180830381865af41580156108fa573d6000803e3d6000fd5b505050506040513d601f19601f8201168201806040525081019061091e91906113e9565b61093a5760405162461bcd60e51b815260040161021f90611406565b6000306001600160a01b031663c51aba2b6040518163ffffffff1660e01b8152600401602060405180830381865afa15801561097a573d6000803e3d6000fd5b505050506040513d601f19601f8201168201806040525081019061099e9190611447565b60405163349e3cd960e11b81526001600160a01b0384811660048301529192509082169063693c79b290602401600060405180830381600087803b1580156109e557600080fd5b505af11580156109f9573d6000803e3d6000fd5b505050505050565b604051637df73e2760e01b815233600482015273__$a5a42e46683ad9c79b7b86d5ff60fdf4c1$__90637df73e2790602401602060405180830381865af4158015610a50573d6000803e3d6000fd5b505050506040513d601f19601f82011682018060405250810190610a7491906113e9565b610a905760405162461bcd60e51b815260040161021f90611406565b6000306001600160a01b031663c51aba2b6040518163ffffffff1660e01b8152600401602060405180830381865afa158015610ad0573d6000803e3d6000fd5b505050506040513d601f19601f82011682018060405250810190610af49190611447565b6040516219d2db60e51b81529091506001600160a01b0382169063033a5b609061087390879087908790600401611731565b60408051808201909152601381527278722e776f726c642e73746f726167652e763160681b60209091015260008060ff610b8160017fbc8378efb4bd30899c6e5d9a95eb33c0dfb78706c9d8aadf9a4218e2dbb5791e611771565b604051602001610b9391815260200190565b60408051601f1981840301815291905280516020909101201692915050565b6000610bbc610d75565b82516001600160a01b031660009081526020829052604081209192505b836020015151811015610d6f57600084602001518281518110610bfe57610bfe61171b565b6020908102919091018101518051600486810180546001808201835560009283528683206008830401805463ffffffff600790941690950261010090810a9384021990951660e09690961c9290920294909417905583516001600160e01b0319168152918801909352604090208054919350916001600160a01b0391041615610cf757805461010090046001600160a01b0316600090815260208690526040812087519091906001870190610cb290610dda565b602080870151604051610ccc949392600188019101611821565b60405160208183030381529060405290508060405162461bcd60e51b815260040161021f919061190b565b50604080518082018252600180825287516001600160a01b03908116602080850191825295516001600160e01b0319166000908152898401909652939094209151825493516001600160a81b0319909416901515610100600160a81b0319161761010093909416929092029290921790915501610bd9565b50505050565b60408051808201909152601881527f78722e657874656e73696f6e732e73746f726167652e7631000000000000000060209091015260008060ff610b8160017fb58ec9ca7ba0606d9fecd9f559655d0e5fec418e6751b65b892bccdfd25eb99f611771565b6060610df06001600160a01b0383166014610df6565b92915050565b6060826000610e0684600261191e565b610e11906002611935565b67ffffffffffffffff811115610e2957610e29610ffb565b6040519080825280601f01601f191660200182016040528015610e53576020820181803683370190505b509050600360fc1b81600081518110610e6e57610e6e61171b565b60200101906001600160f81b031916908160001a905350600f60fb1b81600181518110610e9d57610e9d61171b565b60200101906001600160f81b031916908160001a9053506000610ec185600261191e565b610ecc906001611935565b90505b6001811115610f44576f181899199a1a9b1b9c1cb0b131b232b360811b83600f1660108110610f0057610f0061171b565b1a60f81b828281518110610f1657610f1661171b565b60200101906001600160f81b031916908160001a90535060049290921c91610f3d81611948565b9050610ecf565b508115610f6e5760405163e22e27eb60e01b8152600481018690526024810185905260440161021f565b949350505050565b604051806040016040528060608152602001610fad6040518060400160405280600061ffff168152602001600061ffff1681525090565b905290565b6001600160a01b038116811461009b57600080fd5b8035610fd281610fb2565b919050565b600060208284031215610fe957600080fd5b8135610ff481610fb2565b9392505050565b634e487b7160e01b600052604160045260246000fd5b60405160e0810167ffffffffffffffff8111828210171561103457611034610ffb565b60405290565b60405160c0810167ffffffffffffffff8111828210171561103457611034610ffb565b604051601f8201601f1916810167ffffffffffffffff8111828210171561108657611086610ffb565b604052919050565b801515811461009b57600080fd5b8035610fd28161108e565b600067ffffffffffffffff8211156110c1576110c1610ffb565b50601f01601f191660200190565b600082601f8301126110e057600080fd5b81356110f36110ee826110a7565b61105d565b81815284602083860101111561110857600080fd5b816020850160208301376000918101602001919091529392505050565b803561ffff81168114610fd257600080fd5b60006060828403121561114957600080fd5b6040516060810181811067ffffffffffffffff8211171561116c5761116c610ffb565b60405290508061117b83611125565b815261118960208401611125565b6020820152604083013560408201525092915050565b6000602082840312156111b157600080fd5b813567ffffffffffffffff808211156111c957600080fd5b9083019061012082860312156111de57600080fd5b6111e6611011565b6111ef8361109c565b81526111fd60208401610fc7565b602082015260408301358281111561121457600080fd5b611220878286016110cf565b6040830152506112338660608501611137565b606082015260c08301358281111561124a57600080fd5b611256878286016110cf565b60808301525060e083013560a08201526101008301358281111561127957600080fd5b611285878286016110cf565b60c08301525095945050505050565b60005b838110156112af578181015183820152602001611297565b50506000910152565b600081518084526112d0816020860160208601611294565b601f01601f19169290920160200192915050565b60208152600082516060602084015261130060808401826112b8565b602094850151805161ffff90811660408701529501519094166060909301929092525090919050565b60008060006040848603121561133e57600080fd5b833561134981610fb2565b9250602084013567ffffffffffffffff8082111561136657600080fd5b818601915086601f83011261137a57600080fd5b81358181111561138957600080fd5b87602082850101111561139b57600080fd5b6020830194508093505050509250925092565b6000602082840312156113c057600080fd5b813567ffffffffffffffff8111156113d757600080fd5b820160608185031215610ff457600080fd5b6000602082840312156113fb57600080fd5b8151610ff48161108e565b60208082526021908201527f466163746f72794578743a207265737472696374656420746f207369676e65726040820152607360f81b606082015260800190565b60006020828403121561145957600080fd5b8151610ff481610fb2565b600082601f83011261147557600080fd5b81516114836110ee826110a7565b81815284602083860101111561149857600080fd5b610f6e826020830160208701611294565b6000602082840312156114bb57600080fd5b815167ffffffffffffffff808211156114d357600080fd5b9083019060c082860312156114e757600080fd5b6114ef61103a565b8251828111156114fe57600080fd5b61150a87828601611464565b82525060208301518281111561151f57600080fd5b61152b87828601611464565b60208301525060408301518281111561154357600080fd5b61154f87828601611464565b604083015250606083015160608201526080830151608082015260a083015160a082015280935050505092915050565b634e487b7160e01b600052601160045260246000fd5b6000600182016115a7576115a761157f565b5060010190565b6000815160c084526115c360c08501826112b8565b9050602083015184820360208601526115dc82826112b8565b915050604083015184820360408601526115f682826112b8565b915050606083015160608501526080830151608085015260a083015160a08501528091505092915050565b6020815261163460208201835115159052565b6000602083015161165060408401826001600160a01b03169052565b50604083015161014080606085015261166d6101608501836112b8565b6060860151805161ffff908116608088015260208201511660a0870152604081015160c0870152909250506080850151601f19808685030160e08701526116b484836115ae565b935060a0870151915080868503016101008701526116d284836112b8565b935060c087015191508086850301610120870152506116f183826112b8565b92505060e085015181850152508091505092915050565b602081526000610ff460208301846115ae565b634e487b7160e01b600052603260045260246000fd5b6001600160a01b03841681526040602082018190528101829052818360608301376000818301606090810191909152601f909201601f1916010192915050565b81810381811115610df057610df061157f565b8054600090600181811c908083168061179e57607f831692505b602080841082036117bf57634e487b7160e01b600052602260045260246000fd5b8180156117d357600181146117e857611815565b60ff1986168952841515850289019650611815565b60008881526020902060005b8681101561180d5781548b8201529085019083016117f4565b505084890196505b50505050505092915050565b7f4c6962457874656e73696f6e3a20657874656e73696f6e200000000000000000815260006118536018830187611784565b6c01030ba1030b2323932b9b99d1609d1b8152855161187981600d840160208a01611294565b8082019150507f20617474656d7074696e6720746f20726575736520612073656c6563746f723a600d820152600160fd1b80602d83015285516118c381602e850160208a01611294565b7f2c20776869636820697320616c72656164792072656769737465726564206279602e9390910192830152604e820152611900604f820185611784565b979650505050505050565b602081526000610ff460208301846112b8565b8082028115828204841417610df057610df061157f565b80820180821115610df057610df061157f565b6000816119575761195761157f565b50600019019056fe64656163746976617465436f6d70616e7928616464726573732c737472696e6729a264697066735822122015de56175d66d3bf760857d13185cd7f002824fd5be95cc2288f16481e6454fc64736f6c63430008180033",
  "linkReferences": {
    "contracts/libraries/LibAccess.sol": {
      "LibAccess": [
        {
          "length": 20,
          "start": 453
        },
        {
          "length": 20,
          "start": 1922
        },
        {
          "length": 20,
          "start": 2272
        },
        {
          "length": 20,
          "start": 2614
        }
      ]
    }
  },
  "deployedLinkReferences": {
    "contracts/libraries/LibAccess.sol": {
      "LibAccess": [
        {
          "length": 20,
          "start": 421
        },
        {
          "length": 20,
          "start": 1890
        },
        {
          "length": 20,
          "start": 2240
        },
        {
          "length": 20,
          "start": 2582
        }
      ]
    }
  }
}