{
  "_format": "hh-sol-artifact-1",
  "contractName": "WorldV2",
  "sourceName": "contracts/world/v0.2/WorldV2.sol",
  "abi": [
    {
      "inputs": [
        {
          "components": [
            {
              "internalType": "address",
              "name": "worldFactory",
              "type": "address"
            },
            {
              "internalType": "address",
              "name": "worldRegistry",
              "type": "address"
            },
            {
              "internalType": "address",
              "name": "companyRegistry",
              "type": "address"
            },
            {
              "internalType": "address",
              "name": "avatarRegistry",
              "type": "address"
            }
          ],
          "internalType": "struct WorldConstructorArgs",
          "name": "args",
          "type": "tuple"
        }
      ],
      "stateMutability": "nonpayable",
      "type": "constructor"
    },
    {
      "inputs": [],
      "name": "ReentrancyGuardReentrantCall",
      "type": "error"
    },
    {
      "anonymous": false,
      "inputs": [
        {
          "indexed": true,
          "internalType": "address",
          "name": "avatar",
          "type": "address"
        },
        {
          "indexed": true,
          "internalType": "address",
          "name": "experience",
          "type": "address"
        }
      ],
      "name": "AvatarRegistered",
      "type": "event"
    },
    {
      "anonymous": false,
      "inputs": [
        {
          "indexed": true,
          "internalType": "address",
          "name": "company",
          "type": "address"
        },
        {
          "components": [
            {
              "internalType": "string",
              "name": "x",
              "type": "string"
            },
            {
              "internalType": "string",
              "name": "y",
              "type": "string"
            },
            {
              "internalType": "string",
              "name": "z",
              "type": "string"
            },
            {
              "internalType": "uint256",
              "name": "t",
              "type": "uint256"
            },
            {
              "internalType": "uint256",
              "name": "p",
              "type": "uint256"
            },
            {
              "internalType": "uint256",
              "name": "p_sub",
              "type": "uint256"
            }
          ],
          "indexed": false,
          "internalType": "struct VectorAddress",
          "name": "vector",
          "type": "tuple"
        },
        {
          "indexed": false,
          "internalType": "string",
          "name": "name",
          "type": "string"
        }
      ],
      "name": "CompanyRegistered",
      "type": "event"
    },
    {
      "anonymous": false,
      "inputs": [
        {
          "indexed": true,
          "internalType": "address",
          "name": "sender",
          "type": "address"
        },
        {
          "indexed": false,
          "internalType": "uint256",
          "name": "value",
          "type": "uint256"
        }
      ],
      "name": "ReceivedFunds",
      "type": "event"
    },
    {
      "anonymous": false,
      "inputs": [
        {
          "indexed": true,
          "internalType": "address",
          "name": "signer",
          "type": "address"
        }
      ],
      "name": "SignerAdded",
      "type": "event"
    },
    {
      "anonymous": false,
      "inputs": [
        {
          "indexed": true,
          "internalType": "address",
          "name": "signer",
          "type": "address"
        }
      ],
      "name": "SignerRemoved",
      "type": "event"
    },
    {
      "anonymous": false,
      "inputs": [],
      "name": "WorldHookRemoved",
      "type": "event"
    },
    {
      "anonymous": false,
      "inputs": [
        {
          "indexed": true,
          "internalType": "address",
          "name": "hook",
          "type": "address"
        }
      ],
      "name": "WorldHookSet",
      "type": "event"
    },
    {
      "anonymous": false,
      "inputs": [
        {
          "indexed": true,
          "internalType": "address",
          "name": "oldWorld",
          "type": "address"
        },
        {
          "indexed": true,
          "internalType": "address",
          "name": "newWorld",
          "type": "address"
        }
      ],
      "name": "WorldUpgraded",
      "type": "event"
    },
    {
      "inputs": [
        {
          "internalType": "address[]",
          "name": "signers",
          "type": "address[]"
        }
      ],
      "name": "addSigners",
      "outputs": [],
      "stateMutability": "nonpayable",
      "type": "function"
    },
    {
      "inputs": [],
      "name": "avatarRegistry",
      "outputs": [
        {
          "internalType": "contract IAvatarRegistry",
          "name": "",
          "type": "address"
        }
      ],
      "stateMutability": "view",
      "type": "function"
    },
    {
      "inputs": [],
      "name": "companyRegistry",
      "outputs": [
        {
          "internalType": "contract ICompanyRegistry",
          "name": "",
          "type": "address"
        }
      ],
      "stateMutability": "view",
      "type": "function"
    },
    {
      "inputs": [],
      "name": "getBaseVector",
      "outputs": [
        {
          "components": [
            {
              "internalType": "string",
              "name": "x",
              "type": "string"
            },
            {
              "internalType": "string",
              "name": "y",
              "type": "string"
            },
            {
              "internalType": "string",
              "name": "z",
              "type": "string"
            },
            {
              "internalType": "uint256",
              "name": "t",
              "type": "uint256"
            },
            {
              "internalType": "uint256",
              "name": "p",
              "type": "uint256"
            },
            {
              "internalType": "uint256",
              "name": "p_sub",
              "type": "uint256"
            }
          ],
          "internalType": "struct VectorAddress",
          "name": "",
          "type": "tuple"
        }
      ],
      "stateMutability": "view",
      "type": "function"
    },
    {
      "inputs": [],
      "name": "getName",
      "outputs": [
        {
          "internalType": "string",
          "name": "",
          "type": "string"
        }
      ],
      "stateMutability": "view",
      "type": "function"
    },
    {
      "inputs": [],
      "name": "getOwner",
      "outputs": [
        {
          "internalType": "address",
          "name": "",
          "type": "address"
        }
      ],
      "stateMutability": "view",
      "type": "function"
    },
    {
      "inputs": [],
      "name": "hook",
      "outputs": [
        {
          "internalType": "contract IWorldHook",
          "name": "",
          "type": "address"
        }
      ],
      "stateMutability": "view",
      "type": "function"
    },
    {
      "inputs": [
        {
          "components": [
            {
              "internalType": "address",
              "name": "owner",
              "type": "address"
            },
            {
              "internalType": "address",
              "name": "oldWorld",
              "type": "address"
            },
            {
              "components": [
                {
                  "internalType": "string",
                  "name": "x",
                  "type": "string"
                },
                {
                  "internalType": "string",
                  "name": "y",
                  "type": "string"
                },
                {
                  "internalType": "string",
                  "name": "z",
                  "type": "string"
                },
                {
                  "internalType": "uint256",
                  "name": "t",
                  "type": "uint256"
                },
                {
                  "internalType": "uint256",
                  "name": "p",
                  "type": "uint256"
                },
                {
                  "internalType": "uint256",
                  "name": "p_sub",
                  "type": "uint256"
                }
              ],
              "internalType": "struct VectorAddress",
              "name": "baseVector",
              "type": "tuple"
            },
            {
              "internalType": "string",
              "name": "name",
              "type": "string"
            },
            {
              "internalType": "bytes",
              "name": "initData",
              "type": "bytes"
            }
          ],
          "internalType": "struct WorldCreateRequest",
          "name": "request",
          "type": "tuple"
        }
      ],
      "name": "init",
      "outputs": [],
      "stateMutability": "nonpayable",
      "type": "function"
    },
    {
      "inputs": [
        {
          "internalType": "address",
          "name": "signer",
          "type": "address"
        }
      ],
      "name": "isSigner",
      "outputs": [
        {
          "internalType": "bool",
          "name": "",
          "type": "bool"
        }
      ],
      "stateMutability": "view",
      "type": "function"
    },
    {
      "inputs": [
        {
          "components": [
            {
              "internalType": "bool",
              "name": "sendTokensToAvatarOwner",
              "type": "bool"
            },
            {
              "internalType": "address",
              "name": "avatarOwner",
              "type": "address"
            },
            {
              "internalType": "address",
              "name": "defaultExperience",
              "type": "address"
            },
            {
              "internalType": "string",
              "name": "username",
              "type": "string"
            },
            {
              "internalType": "bytes",
              "name": "initData",
              "type": "bytes"
            }
          ],
          "internalType": "struct AvatarRegistrationRequest",
          "name": "args",
          "type": "tuple"
        }
      ],
      "name": "registerAvatar",
      "outputs": [
        {
          "internalType": "address",
          "name": "avatar",
          "type": "address"
        }
      ],
      "stateMutability": "payable",
      "type": "function"
    },
    {
      "inputs": [
        {
          "components": [
            {
              "internalType": "bool",
              "name": "sendTokensToCompanyOwner",
              "type": "bool"
            },
            {
              "internalType": "address",
              "name": "owner",
              "type": "address"
            },
            {
              "internalType": "string",
              "name": "name",
              "type": "string"
            },
            {
              "internalType": "bytes",
              "name": "initData",
              "type": "bytes"
            }
          ],
          "internalType": "struct CompanyRegistrationArgs",
          "name": "args",
          "type": "tuple"
        }
      ],
      "name": "registerCompany",
      "outputs": [
        {
          "internalType": "address",
          "name": "company",
          "type": "address"
        }
      ],
      "stateMutability": "payable",
      "type": "function"
    },
    {
      "inputs": [],
      "name": "removeHook",
      "outputs": [],
      "stateMutability": "nonpayable",
      "type": "function"
    },
    {
      "inputs": [
        {
          "internalType": "address[]",
          "name": "signers",
          "type": "address[]"
        }
      ],
      "name": "removeSigners",
      "outputs": [],
      "stateMutability": "nonpayable",
      "type": "function"
    },
    {
      "inputs": [
        {
          "internalType": "contract IWorldHook",
          "name": "_hook",
          "type": "address"
        }
      ],
      "name": "setHook",
      "outputs": [],
      "stateMutability": "nonpayable",
      "type": "function"
    },
    {
      "inputs": [
        {
          "internalType": "bytes",
          "name": "initData",
          "type": "bytes"
        }
      ],
      "name": "upgrade",
      "outputs": [],
      "stateMutability": "nonpayable",
      "type": "function"
    },
    {
      "inputs": [
        {
          "internalType": "address",
          "name": "nextVersion",
          "type": "address"
        }
      ],
      "name": "upgradeComplete",
      "outputs": [],
      "stateMutability": "nonpayable",
      "type": "function"
    },
    {
      "inputs": [],
      "name": "version",
      "outputs": [
        {
          "internalType": "uint256",
          "name": "",
          "type": "uint256"
        }
      ],
      "stateMutability": "view",
      "type": "function"
    },
    {
      "inputs": [
        {
          "internalType": "uint256",
          "name": "amount",
          "type": "uint256"
        }
      ],
      "name": "withdraw",
      "outputs": [],
      "stateMutability": "nonpayable",
      "type": "function"
    },
    {
      "inputs": [],
      "name": "worldFactory",
      "outputs": [
        {
          "internalType": "address",
          "name": "",
          "type": "address"
        }
      ],
      "stateMutability": "view",
      "type": "function"
    },
    {
      "inputs": [],
      "name": "worldRegistry",
      "outputs": [
        {
          "internalType": "contract IWorldRegistryV2",
          "name": "",
          "type": "address"
        }
      ],
      "stateMutability": "view",
      "type": "function"
    },
    {
      "stateMutability": "payable",
      "type": "receive"
    }
  ],
  "bytecode": "0x6101006040523480156200001257600080fd5b5060405162002bb038038062002bb083398101604081905262000035916200025a565b600160005580516001600160a01b0316620000ad5760405162461bcd60e51b815260206004820152602d60248201527f576f726c64305f323a20776f726c64466163746f72792063616e6e6f7420626560448201526c207a65726f206164647265737360981b60648201526084015b60405180910390fd5b60208101516001600160a01b0316620001205760405162461bcd60e51b815260206004820152602e60248201527f576f726c64305f323a20776f726c6452656769737472792063616e6e6f74206260448201526d65207a65726f206164647265737360901b6064820152608401620000a4565b60408101516001600160a01b0316620001955760405162461bcd60e51b815260206004820152603060248201527f576f726c64305f323a20636f6d70616e7952656769737472792063616e6e6f7460448201526f206265207a65726f206164647265737360801b6064820152608401620000a4565b60608101516001600160a01b0316620002095760405162461bcd60e51b815260206004820152602f60248201527f576f726c64305f323a2061766174617252656769737472792063616e6e6f742060448201526e6265207a65726f206164647265737360881b6064820152608401620000a4565b60208101516001600160a01b039081166080528151811660a0526040820151811660c0526060909101511660e052620002ee565b80516001600160a01b03811681146200025557600080fd5b919050565b6000608082840312156200026d57600080fd5b604051608081016001600160401b03811182821017156200029e57634e487b7160e01b600052604160045260246000fd5b604052620002ac836200023d565b8152620002bc602084016200023d565b6020820152620002cf604084016200023d565b6040820152620002e2606084016200023d565b60608201529392505050565b60805160a05160c05160e051612857620003596000396000818161041901526114090152600081816103e5015261095201526000818161017601528181610b4701528181610bc60152818161153801526115b70152600081816103b10152610ad701526128576000f3fe6080604052600436106101235760003560e01c806354fd4d50116100a05780638d361e43116100645780638d361e431461037f578063911c2a8c1461039f578063c51aba2b146103d3578063e3d7ad7314610407578063e8906a2d1461043b57600080fd5b806354fd4d50146102b657806361445eb7146102d95780637df73e27146102f95780637f5a7c7b14610329578063893d20e81461035457600080fd5b80632e1a7d4d116100e75780632e1a7d4d1461022c578063378f17ff1461024c578063382af56d146102615780633dfd3873146102835780634d575f3d146102a357600080fd5b80630dc3897d1461016457806317d7de7c146101b55780631c2fbedc146101d757806325394645146101ea5780632663d1f71461020c57600080fd5b3661015f5760405134815233907f5741979df5f3e491501da74d3b0a83dd2496ab1f34929865b3e190a8ad75859a9060200160405180910390a2005b600080fd5b34801561017057600080fd5b506101987f000000000000000000000000000000000000000000000000000000000000000081565b6040516001600160a01b0390911681526020015b60405180910390f35b3480156101c157600080fd5b506101ca61045b565b6040516101ac9190611de9565b6101986101e5366004611f44565b61051e565b3480156101f657600080fd5b5061020a610205366004611ffb565b610a7c565b005b34801561021857600080fd5b5061020a61022736600461206d565b610b45565b34801561023857600080fd5b5061020a61024736600461208a565b610c92565b34801561025857600080fd5b5061020a610d74565b34801561026d57600080fd5b50610276610e12565b6040516101ac9190612116565b34801561028f57600080fd5b5061020a61029e36600461206d565b611062565b6101986102b1366004612129565b6111df565b3480156102c257600080fd5b506102cb600281565b6040519081526020016101ac565b3480156102e557600080fd5b5061020a6102f43660046122a3565b611536565b34801561030557600080fd5b5061031961031436600461206d565b611a1e565b60405190151581526020016101ac565b34801561033557600080fd5b506000805160206127e2833981519152546001600160a01b0316610198565b34801561036057600080fd5b506000805160206127a2833981519152546001600160a01b0316610198565b34801561038b57600080fd5b5061020a61039a36600461233b565b611a4f565b3480156103ab57600080fd5b506101987f000000000000000000000000000000000000000000000000000000000000000081565b3480156103df57600080fd5b506101987f000000000000000000000000000000000000000000000000000000000000000081565b34801561041357600080fd5b506101987f000000000000000000000000000000000000000000000000000000000000000081565b34801561044757600080fd5b5061020a61045636600461233b565b611a9d565b7f56d7bc8c87dcf17af82d688c532aeaaf98988789f376198bffdb298b88a9593a80546060916000805160206127a28339815191529161049a9061239e565b80601f01602080910402602001604051908101604052809291908181526020018280546104c69061239e565b80156105135780601f106104e857610100808354040283529160200191610513565b820191906000526020600020905b8154815290600101906020018083116104f657829003601f168201915b505050505091505090565b6000600080516020612782833981519152610548816000805160206127c283398151915233611aeb565b61056d5760405162461bcd60e51b8152600401610564906123d2565b60405180910390fd5b610575611b18565b60208301516001600160a01b03166105e65760405162461bcd60e51b815260206004820152602e60248201527f576f726c64305f323a20636f6d70616e79206f776e65722063616e6e6f74206260448201526d65207a65726f206164647265737360901b6064820152608401610564565b60008360400151511161064a5760405162461bcd60e51b815260206004820152602660248201527f576f726c64305f323a20636f6d70616e79206e616d652063616e6e6f7420626560448201526520656d70747960d01b6064820152608401610564565b6000805160206127e2833981519152546000805160206127a2833981519152906001600160a01b03161561074e57600281015460405163e76c26f760e01b81526001600160a01b039091169063e76c26f7906106aa90879060040161241e565b6020604051808303816000875af11580156106c9573d6000803e3d6000fd5b505050506040513d601f19601f820116820180604052508101906106ed919061247e565b61074e5760405162461bcd60e51b815260206004820152602c60248201527f576f726c64305f323a20686f6f6b2072656a656374656420636f6d70616e792060448201526b3932b3b4b9ba3930ba34b7b760a11b6064820152608401610564565b80600a016000815461075f9061249b565b9190508190555060006040518060c001604052808360030160000180546107859061239e565b80601f01602080910402602001604051908101604052809291908181526020018280546107b19061239e565b80156107fe5780601f106107d3576101008083540402835291602001916107fe565b820191906000526020600020905b8154815290600101906020018083116107e157829003601f168201915b5050505050815260200183600301600101805461081a9061239e565b80601f01602080910402602001604051908101604052809291908181526020018280546108469061239e565b80156108935780601f1061086857610100808354040283529160200191610893565b820191906000526020600020905b81548152906001019060200180831161087657829003601f168201915b505050505081526020018360030160020180546108af9061239e565b80601f01602080910402602001604051908101604052809291908181526020018280546108db9061239e565b80156109285780601f106108fd57610100808354040283529160200191610928565b820191906000526020600020905b81548152906001019060200180831161090b57829003601f168201915b505050505081526020018360030160030154815260200183600a01548152602001600081525090507f00000000000000000000000000000000000000000000000000000000000000006001600160a01b03166322feaee6346040518060a0016040528089600001511515815260200189602001516001600160a01b031681526020018581526020018960600151815260200189604001518152506040518363ffffffff1660e01b81526004016109de91906124c2565b60206040518083038185885af11580156109fc573d6000803e3d6000fd5b50505050506040513d601f19601f82011682018060405250810190610a219190612538565b9350836001600160a01b03167f3ae5cc94bcf37dd89d282cbe7f9842a176a101aa41ce7af3ed66fa58a2466c62828760400151604051610a62929190612555565b60405180910390a25050610a766001600055565b50919050565b600080516020612782833981519152610aa48160008051602061280283398151915233611aeb565b610ac05760405162461bcd60e51b81526004016105649061257a565b6040516324d733bb60e21b81526001600160a01b037f0000000000000000000000000000000000000000000000000000000000000000169063935cceec90610b0e90869086906004016125c5565b600060405180830381600087803b158015610b2857600080fd5b505af1158015610b3c573d6000803e3d6000fd5b50505050505050565b7f00000000000000000000000000000000000000000000000000000000000000006001600160a01b0316610bbb5760405162461bcd60e51b815260206004820152601e60248201527f576f726c64305f323a20776f726c64466163746f7279206e6f742073657400006044820152606401610564565b336001600160a01b037f00000000000000000000000000000000000000000000000000000000000000001614610c335760405162461bcd60e51b815260206004820152601f60248201527f576f726c64305f323a2063616c6c6572206973206e6f7420666163746f7279006044820152606401610564565b60008051602061278283398151915280546001600160a01b031981166001600160a01b03848116918217845560405192169182907ff1fe458d696ab302f212b76fb0e63c85d19c1bcb4c3e61d3a4470e76d136321890600090a3505050565b600080516020612782833981519152610cba8160008051602061280283398151915233611aeb565b610cd65760405162461bcd60e51b81526004016105649061257a565b47821115610d265760405162461bcd60e51b815260206004820181905260248201527f576f726c64305f323a20616d6f756e7420657863656564732062616c616e63656044820152606401610564565b6000805160206127a283398151915280546040516001600160a01b03909116906108fc8515029085906000818181858888f19350505050158015610d6e573d6000803e3d6000fd5b50505050565b600080516020612782833981519152610d9c8160008051602061280283398151915233611aeb565b610db85760405162461bcd60e51b81526004016105649061257a565b6000805160206127e283398151915280546001600160a01b03191690556040516000805160206127a2833981519152907fd6bb5977e74678fe79d7effa6d93a6e996630cf696c32a815b00fda893b87b5a90600090a15050565b610e4b6040518060c001604052806060815260200160608152602001606081526020016000815260200160008152602001600081525090565b6040805160c081019091527f56d7bc8c87dcf17af82d688c532aeaaf98988789f376198bffdb298b88a9593480546000805160206127a283398151915292919082908290610e989061239e565b80601f0160208091040260200160405190810160405280929190818152602001828054610ec49061239e565b8015610f115780601f10610ee657610100808354040283529160200191610f11565b820191906000526020600020905b815481529060010190602001808311610ef457829003601f168201915b50505050508152602001600182018054610f2a9061239e565b80601f0160208091040260200160405190810160405280929190818152602001828054610f569061239e565b8015610fa35780601f10610f7857610100808354040283529160200191610fa3565b820191906000526020600020905b815481529060010190602001808311610f8657829003601f168201915b50505050508152602001600282018054610fbc9061239e565b80601f0160208091040260200160405190810160405280929190818152602001828054610fe89061239e565b80156110355780601f1061100a57610100808354040283529160200191611035565b820191906000526020600020905b81548152906001019060200180831161101857829003601f168201915b50505050508152602001600382015481526020016004820154815260200160058201548152505091505090565b60008051602061278283398151915261108a8160008051602061280283398151915233611aeb565b6110a65760405162461bcd60e51b81526004016105649061257a565b6001600160a01b03821661110a5760405162461bcd60e51b815260206004820152602560248201527f576f726c64305f323a20686f6f6b2063616e6e6f74206265207a65726f206164604482015264647265737360d81b6064820152608401610564565b6000826001600160a01b03163b116111755760405162461bcd60e51b815260206004820152602860248201527f576f726c64305f323a20686f6f6b2061646472657373206973206e6f7420612060448201526718dbdb9d1c9858dd60c21b6064820152608401610564565b6000805160206127e283398151915280546001600160a01b0319166001600160a01b0384169081179091556040516000805160206127a283398151915291907f2e0d4a0d6b6807573b280bc3dd0c83d52c5115e86a427cc6506e9a040f64b47790600090a2505050565b6000600080516020612782833981519152611209816000805160206127c283398151915233611aeb565b6112255760405162461bcd60e51b8152600401610564906123d2565b61122d611b18565b60208301516001600160a01b031661129d5760405162461bcd60e51b815260206004820152602d60248201527f576f726c64305f323a20617661746172206f776e65722063616e6e6f7420626560448201526c207a65726f206164647265737360981b6064820152608401610564565b6000836060015151116113045760405162461bcd60e51b815260206004820152602960248201527f576f726c64305f323a2061766174617220757365726e616d652063616e6e6f7460448201526820626520656d70747960b81b6064820152608401610564565b6000805160206127e2833981519152546000805160206127a2833981519152906001600160a01b031615611407576002810154604051633e6ff77160e21b81526001600160a01b039091169063f9bfddc4906113649087906004016125f4565b6020604051808303816000875af1158015611383573d6000803e3d6000fd5b505050506040513d601f19601f820116820180604052508101906113a7919061247e565b6114075760405162461bcd60e51b815260206004820152602b60248201527f576f726c64305f323a20686f6f6b2072656a656374656420617661746172207260448201526a32b3b4b9ba3930ba34b7b760a91b6064820152608401610564565b7f00000000000000000000000000000000000000000000000000000000000000006001600160a01b0316634d575f3d346040518060a0016040528088600001511515815260200188602001516001600160a01b0316815260200188604001516001600160a01b031681526020018860600151815260200188608001518152506040518363ffffffff1660e01b81526004016114a291906125f4565b60206040518083038185885af11580156114c0573d6000803e3d6000fd5b50505050506040513d601f19601f820116820180604052508101906114e59190612538565b925083604001516001600160a01b0316836001600160a01b03167f0ada65c939d4c317368a1a88ef5f00697bfe4e748e24d6722c1a0d04c26a4b8660405160405180910390a350610a766001600055565b7f00000000000000000000000000000000000000000000000000000000000000006001600160a01b03166115ac5760405162461bcd60e51b815260206004820152601e60248201527f576f726c64305f323a20776f726c64466163746f7279206e6f742073657400006044820152606401610564565b336001600160a01b037f000000000000000000000000000000000000000000000000000000000000000016146116245760405162461bcd60e51b815260206004820152601f60248201527f576f726c64305f323a2063616c6c6572206973206e6f7420666163746f7279006044820152606401610564565b8051600080516020612782833981519152906001600160a01b031661169a5760405162461bcd60e51b815260206004820152602660248201527f576f726c64305f323a206f776e65722063616e6e6f74206265207a65726f206160448201526564647265737360d01b6064820152608401610564565b604082015151516000036116fe5760405162461bcd60e51b815260206004820152602560248201527f576f726c64305f323a2062617365566563746f722e782063616e6e6f74206265604482015264207a65726f60d81b6064820152608401610564565b816040015160200151516000036117655760405162461bcd60e51b815260206004820152602560248201527f576f726c64305f323a2062617365566563746f722e792063616e6e6f74206265604482015264207a65726f60d81b6064820152608401610564565b816040015160400151516000036117cc5760405162461bcd60e51b815260206004820152602560248201527f576f726c64305f323a2062617365566563746f722e7a2063616e6e6f74206265604482015264207a65726f60d81b6064820152608401610564565b6040820151608001511561182e5760405162461bcd60e51b815260206004820152602360248201527f576f726c64305f323a2062617365566563746f722e70206d757374206265207a60448201526265726f60e81b6064820152608401610564565b604082015160a00151156118945760405162461bcd60e51b815260206004820152602760248201527f576f726c64305f323a2062617365566563746f722e705f737562206d757374206044820152666265207a65726f60c81b6064820152608401610564565b6000826060015151116118e95760405162461bcd60e51b815260206004820152601e60248201527f576f726c64305f323a206e616d652063616e6e6f7420626520656d70747900006044820152606401610564565b81516000805160206127a283398151915280546001600160a01b0319166001600160a01b03909216919091178155604083015180517f56d7bc8c87dcf17af82d688c532aeaaf98988789f376198bffdb298b88a9593490819061194c90826126ab565b506020820151600182019061196190826126ab565b506040820151600282019061197690826126ab565b5060608281015160038301556080830151600483015560a09092015160059091015583015160098201906119aa90826126ab565b506000600a82015560208301516001820180546001600160a01b0319166001600160a01b0392831617905581546119f39184916000805160206128028339815191529116611b42565b8054611a199083906000805160206127c2833981519152906001600160a01b0316611b42565b505050565b6000600080516020612782833981519152611a48816000805160206127c283398151915285611aeb565b9392505050565b600080516020612782833981519152611a778160008051602061280283398151915233611aeb565b611a935760405162461bcd60e51b81526004016105649061257a565b611a198383611b75565b600080516020612782833981519152611ac58160008051602061280283398151915233611aeb565b611ae15760405162461bcd60e51b81526004016105649061257a565b611a198383611c5b565b6000918252600192909201602090815260408083206001600160a01b039094168352929052205460ff1690565b600260005403611b3b57604051633ee5aeb560e01b815260040160405180910390fd5b6002600055565b60009182526001928301602090815260408084206001600160a01b0390931684529190529020805460ff19169091179055565b60008051602061278283398151915260005b82811015610d6e57611bf76000805160206127c2833981519152858584818110611bb357611bb361276b565b9050602002016020810190611bc8919061206d565b600091825260018501602090815260408084206001600160a01b0390931684529190529020805460ff19169055565b838382818110611c0957611c0961276b565b9050602002016020810190611c1e919061206d565b6001600160a01b03167f3525e22824a8a7df2c9a6029941c824cf95b6447f1e13d5128fd3826d35afe8b60405160405180910390a2600101611b87565b60008051602061278283398151915260005b82811015610d6e576000848483818110611c8957611c8961276b565b9050602002016020810190611c9e919061206d565b6001600160a01b031603611cfe5760405162461bcd60e51b815260206004820152602160248201527f4261736550726f78793a207369676e6572206973207a65726f206164647265736044820152607360f81b6064820152608401610564565b611d3f6000805160206127c2833981519152858584818110611d2257611d2261276b565b9050602002016020810190611d37919061206d565b849190611b42565b838382818110611d5157611d5161276b565b9050602002016020810190611d66919061206d565b6001600160a01b03167f47d1c22a25bb3a5d4e481b9b1e6944c2eade3181a0a20b495ed61d35b5323f2460405160405180910390a2600101611c6d565b6000815180845260005b81811015611dc957602081850181015186830182015201611dad565b506000602082860101526020601f19601f83011685010191505092915050565b602081526000611a486020830184611da3565b634e487b7160e01b600052604160045260246000fd5b6040516080810167ffffffffffffffff81118282101715611e3557611e35611dfc565b60405290565b60405160a0810167ffffffffffffffff81118282101715611e3557611e35611dfc565b60405160c0810167ffffffffffffffff81118282101715611e3557611e35611dfc565b8015158114611e8f57600080fd5b50565b6001600160a01b0381168114611e8f57600080fd5b8035611eb281611e92565b919050565b600082601f830112611ec857600080fd5b813567ffffffffffffffff80821115611ee357611ee3611dfc565b604051601f8301601f19908116603f01168101908282118183101715611f0b57611f0b611dfc565b81604052838152866020858801011115611f2457600080fd5b836020870160208301376000602085830101528094505050505092915050565b600060208284031215611f5657600080fd5b813567ffffffffffffffff80821115611f6e57600080fd5b9083019060808286031215611f8257600080fd5b611f8a611e12565b8235611f9581611e81565b81526020830135611fa581611e92565b6020820152604083013582811115611fbc57600080fd5b611fc887828601611eb7565b604083015250606083013582811115611fe057600080fd5b611fec87828601611eb7565b60608301525095945050505050565b6000806020838503121561200e57600080fd5b823567ffffffffffffffff8082111561202657600080fd5b818501915085601f83011261203a57600080fd5b81358181111561204957600080fd5b86602082850101111561205b57600080fd5b60209290920196919550909350505050565b60006020828403121561207f57600080fd5b8135611a4881611e92565b60006020828403121561209c57600080fd5b5035919050565b6000815160c084526120b860c0850182611da3565b9050602083015184820360208601526120d18282611da3565b915050604083015184820360408601526120eb8282611da3565b915050606083015160608501526080830151608085015260a083015160a08501528091505092915050565b602081526000611a4860208301846120a3565b60006020828403121561213b57600080fd5b813567ffffffffffffffff8082111561215357600080fd5b9083019060a0828603121561216757600080fd5b61216f611e3b565b823561217a81611e81565b8152602083013561218a81611e92565b602082015261219b60408401611ea7565b60408201526060830135828111156121b257600080fd5b6121be87828601611eb7565b6060830152506080830135828111156121d657600080fd5b6121e287828601611eb7565b60808301525095945050505050565b600060c0828403121561220357600080fd5b61220b611e5e565b9050813567ffffffffffffffff8082111561222557600080fd5b61223185838601611eb7565b8352602084013591508082111561224757600080fd5b61225385838601611eb7565b6020840152604084013591508082111561226c57600080fd5b5061227984828501611eb7565b604083015250606082013560608201526080820135608082015260a082013560a082015292915050565b6000602082840312156122b557600080fd5b813567ffffffffffffffff808211156122cd57600080fd5b9083019060a082860312156122e157600080fd5b6122e9611e3b565b6122f283611ea7565b815261230060208401611ea7565b602082015260408301358281111561231757600080fd5b612323878286016121f1565b6040830152506060830135828111156121b257600080fd5b6000806020838503121561234e57600080fd5b823567ffffffffffffffff8082111561236657600080fd5b818501915085601f83011261237a57600080fd5b81358181111561238957600080fd5b8660208260051b850101111561205b57600080fd5b600181811c908216806123b257607f821691505b602082108103610a7657634e487b7160e01b600052602260045260246000fd5b6020808252602c908201527f426173654163636573733a2063616c6c657220646f6573206e6f74206861766560408201526b207369676e657220726f6c6560a01b606082015260800190565b6020815281511515602082015260018060a01b036020830151166040820152600060408301516080606084015261245860a0840182611da3565b90506060840151601f198483030160808501526124758282611da3565b95945050505050565b60006020828403121561249057600080fd5b8151611a4881611e81565b6000600182016124bb57634e487b7160e01b600052601160045260246000fd5b5060010190565b6020815281511515602082015260018060a01b0360208301511660408201526000604083015160a060608401526124fc60c08401826120a3565b90506060840151601f198085840301608086015261251a8383611da3565b925060808601519150808584030160a0860152506124758282611da3565b60006020828403121561254a57600080fd5b8151611a4881611e92565b60408152600061256860408301856120a3565b82810360208401526124758185611da3565b6020808252602b908201527f426173654163636573733a2063616c6c657220646f6573206e6f74206861766560408201526a2061646d696e20726f6c6560a81b606082015260800190565b60208152816020820152818360408301376000818301604090810191909152601f909201601f19160101919050565b602081528151151560208201526000602083015160018060a01b0380821660408501528060408601511660608501525050606083015160a0608084015261263e60c0840182611da3565b90506080840151601f198483030160a08501526124758282611da3565b601f821115611a19576000816000526020600020601f850160051c810160208610156126845750805b601f850160051c820191505b818110156126a357828155600101612690565b505050505050565b815167ffffffffffffffff8111156126c5576126c5611dfc565b6126d9816126d3845461239e565b8461265b565b602080601f83116001811461270e57600084156126f65750858301515b600019600386901b1c1916600185901b1785556126a3565b600085815260208120601f198616915b8281101561273d5788860151825594840194600190910190840161271e565b508582101561275b5787850151600019600388901b60f8161c191681555b5050505050600190811b01905550565b634e487b7160e01b600052603260045260246000fdfe69198989339f34e10129e514286bde98979351148754faef989dde18bf6d14da56d7bc8c87dcf17af82d688c532aeaaf98988789f376198bffdb298b88a95931e2f4eaae4a9751e85a3e4a7b9587827a877f29914755229b07a7b2da98285f7056d7bc8c87dcf17af82d688c532aeaaf98988789f376198bffdb298b88a95933a49807205ce4d355092ef5a8a18f56e8913cf4a201fbe287825b095693c21775a264697066735822122002209a88e6e89db513448e98adf1d640494b4dafb21e3fbe7e4d102230e26ac664736f6c63430008180033",
  "linkReferences": {},
  "deployedLinkReferences": {}
}