{
  "_format": "hh-sol-artifact-1",
  "contractName": "WorldRegistry",
  "sourceName": "contracts/world/registry/WorldRegistry.sol",
  "abi": [
    {
      "inputs": [
        {
          "components": [
            {
              "internalType": "address",
              "name": "owner",
              "type": "address"
            },
            {
              "internalType": "address",
              "name": "vectorAuthority",
              "type": "address"
            },
            {
              "internalType": "address",
              "name": "extensionsRegistry",
              "type": "address"
            },
            {
              "internalType": "address",
              "name": "registrarRegistry",
              "type": "address"
            },
            {
              "internalType": "address[]",
              "name": "admins",
              "type": "address[]"
            }
          ],
          "internalType": "struct WorldRegistryConstructorArgs",
          "name": "args",
          "type": "tuple"
        }
      ],
      "stateMutability": "nonpayable",
      "type": "constructor"
    },
    {
      "anonymous": false,
      "inputs": [
        {
          "indexed": false,
          "internalType": "string",
          "name": "name",
          "type": "string"
        }
      ],
      "name": "ExtensionDisabled",
      "type": "event"
    },
    {
      "anonymous": false,
      "inputs": [
        {
          "indexed": false,
          "internalType": "string",
          "name": "name",
          "type": "string"
        }
      ],
      "name": "ExtensionEnabled",
      "type": "event"
    },
    {
      "anonymous": false,
      "inputs": [
        {
          "indexed": false,
          "internalType": "string",
          "name": "name",
          "type": "string"
        },
        {
          "components": [
            {
              "internalType": "uint16",
              "name": "major",
              "type": "uint16"
            },
            {
              "internalType": "uint16",
              "name": "minor",
              "type": "uint16"
            }
          ],
          "indexed": false,
          "internalType": "struct Version",
          "name": "version",
          "type": "tuple"
        }
      ],
      "name": "ExtensionInstalled",
      "type": "event"
    },
    {
      "anonymous": false,
      "inputs": [
        {
          "indexed": false,
          "internalType": "string",
          "name": "name",
          "type": "string"
        },
        {
          "components": [
            {
              "internalType": "uint16",
              "name": "major",
              "type": "uint16"
            },
            {
              "internalType": "uint16",
              "name": "minor",
              "type": "uint16"
            }
          ],
          "indexed": false,
          "internalType": "struct Version",
          "name": "version",
          "type": "tuple"
        }
      ],
      "name": "ExtensionRolledBack",
      "type": "event"
    },
    {
      "anonymous": false,
      "inputs": [
        {
          "indexed": false,
          "internalType": "string",
          "name": "name",
          "type": "string"
        },
        {
          "components": [
            {
              "internalType": "uint16",
              "name": "major",
              "type": "uint16"
            },
            {
              "internalType": "uint16",
              "name": "minor",
              "type": "uint16"
            }
          ],
          "indexed": false,
          "internalType": "struct Version",
          "name": "version",
          "type": "tuple"
        }
      ],
      "name": "ExtensionUpgraded",
      "type": "event"
    },
    {
      "anonymous": false,
      "inputs": [
        {
          "indexed": false,
          "internalType": "bytes4",
          "name": "selector",
          "type": "bytes4"
        }
      ],
      "name": "SelectorDisabled",
      "type": "event"
    },
    {
      "anonymous": false,
      "inputs": [
        {
          "indexed": false,
          "internalType": "bytes4",
          "name": "selector",
          "type": "bytes4"
        }
      ],
      "name": "SelectorEnabled",
      "type": "event"
    },
    {
      "stateMutability": "payable",
      "type": "fallback"
    },
    {
      "inputs": [
        {
          "internalType": "address",
          "name": "a",
          "type": "address"
        }
      ],
      "name": "addVectorAddressAuthority",
      "outputs": [],
      "stateMutability": "nonpayable",
      "type": "function"
    },
    {
      "inputs": [],
      "name": "extRegistry",
      "outputs": [
        {
          "internalType": "contract ICoreExtensionRegistry",
          "name": "",
          "type": "address"
        }
      ],
      "stateMutability": "view",
      "type": "function"
    },
    {
      "inputs": [
        {
          "internalType": "string",
          "name": "name",
          "type": "string"
        }
      ],
      "name": "getExtensionVersion",
      "outputs": [
        {
          "components": [
            {
              "internalType": "uint16",
              "name": "major",
              "type": "uint16"
            },
            {
              "internalType": "uint16",
              "name": "minor",
              "type": "uint16"
            }
          ],
          "internalType": "struct Version",
          "name": "",
          "type": "tuple"
        }
      ],
      "stateMutability": "view",
      "type": "function"
    },
    {
      "inputs": [
        {
          "internalType": "string",
          "name": "name",
          "type": "string"
        },
        {
          "components": [
            {
              "internalType": "uint16",
              "name": "major",
              "type": "uint16"
            },
            {
              "internalType": "uint16",
              "name": "minor",
              "type": "uint16"
            }
          ],
          "internalType": "struct Version",
          "name": "version",
          "type": "tuple"
        }
      ],
      "name": "hasExtension",
      "outputs": [
        {
          "internalType": "bool",
          "name": "",
          "type": "bool"
        }
      ],
      "stateMutability": "view",
      "type": "function"
    },
    {
      "inputs": [
        {
          "internalType": "address",
          "name": "a",
          "type": "address"
        }
      ],
      "name": "isVectorAddressAuthority",
      "outputs": [
        {
          "internalType": "bool",
          "name": "",
          "type": "bool"
        }
      ],
      "stateMutability": "view",
      "type": "function"
    },
    {
      "inputs": [],
      "name": "registrarRegistry",
      "outputs": [
        {
          "internalType": "address",
          "name": "",
          "type": "address"
        }
      ],
      "stateMutability": "view",
      "type": "function"
    },
    {
      "inputs": [
        {
          "internalType": "address",
          "name": "a",
          "type": "address"
        }
      ],
      "name": "removeVectorAddressAuthority",
      "outputs": [],
      "stateMutability": "nonpayable",
      "type": "function"
    },
    {
      "inputs": [
        {
          "internalType": "uint256",
          "name": "amount",
          "type": "uint256"
        }
      ],
      "name": "withdraw",
      "outputs": [],
      "stateMutability": "nonpayable",
      "type": "function"
    },
    {
      "stateMutability": "payable",
      "type": "receive"
    }
  ],
  "bytecode": "0x60c06040523480156200001157600080fd5b506040516200182a3803806200182a83398101604081905262000034916200080d565b60408101516001600160a01b038116620000bb5760405162461bcd60e51b815260206004820152603560248201527f42617369635368656c6c3a20657874656e73696f6e207265676973747279206360448201527f616e6e6f74206265207a65726f2061646472657373000000000000000000000060648201526084015b60405180910390fd5b6001600160a01b03908116608052606082015116620001435760405162461bcd60e51b815260206004820152603760248201527f576f726c6452656769737472793a20726567697374726172526567697374727960448201527f2063616e6e6f74206265207a65726f20616464726573730000000000000000006064820152608401620000b2565b60208101516001600160a01b0316620001c55760405162461bcd60e51b815260206004820152603560248201527f576f726c6452656769737472793a20766563746f72417574686f72697479206360448201527f616e6e6f74206265207a65726f206164647265737300000000000000000000006064820152608401620000b2565b60608101516001600160a01b031660a05260408051600580825260c08201909252600091816020015b6060815260200190600190039081620001ee579050509050604051806040016040528060098152602001681058d8d95cdcd15e1d60ba1b815250816000815181106200023e576200023e62000943565b60200260200101819052506040518060400160405280600a815260200169119858dd1bdc9e515e1d60b21b8152508160018151811062000282576200028262000943565b60200260200101819052506040518060400160405280601481526020017f576f726c64526567697374726174696f6e45787400000000000000000000000081525081600281518110620002d957620002d962000943565b60200260200101819052506040518060400160405280600f81526020016e15dbdc9b1914995b5bdd985b115e1d608a1b8152508160038151811062000322576200032262000943565b60200260200101819052506040518060400160405280601281526020017110da185b99d9549959da5cdd1c985c915e1d60721b815250816004815181106200036e576200036e62000943565b60200260200101819052506000604051806060016040528084600001516001600160a01b0316815260200184608001518152602001838152509050620003ba81620003f960201b60201c565b620003f07ff4624c0c441d71d84320078141641151f1c713f1d4d2a15382f6a42904d8d13884602001516200063060201b60201c565b50505062000ab0565b60005b816040015151811015620005bc578160400151818151811062000423576200042362000943565b60200260200101515160000315620005b35760006080516001600160a01b031663c22707ee8460400151848151811062000461576200046162000943565b60200260200101516040518263ffffffff1660e01b81526004016200048791906200097f565b602060405180830381865afa158015620004a5573d6000803e3d6000fd5b505050506040513d601f19601f82011682018060405250810190620004cb9190620009b4565b9050600083604001518381518110620004e857620004e862000943565b6020026020010151604051602001620005029190620009d9565b60408051601f198184030181529190529050806001600160a01b0383166200053f5760405162461bcd60e51b8152600401620000b291906200097f565b506040516301232c8f60e01b81526001600160a01b0383166004820152829073__$307c3a572bdf5d9800a89b3fc2eb3d5604$__906301232c8f9060240160006040518083038186803b1580156200059657600080fd5b505af4158015620005ab573d6000803e3d6000fd5b505050505050505b600101620003fc565b508051602082015160405163d9ac971f60e01b815273__$a5a42e46683ad9c79b7b86d5ff60fdf4c1$__9263d9ac971f92620005fb9260040162000a2a565b60006040518083038186803b1580156200061457600080fd5b505af415801562000629573d6000803e3d6000fd5b5050505050565b6001600160a01b038116620006a15760405162461bcd60e51b815260206004820152603060248201527f416363657373436f6e74726f6c3a2063616e6e6f74206772616e7420726f6c6560448201526f20746f207a65726f206164647265737360801b6064820152608401620000b2565b6000620006ad620006e3565b60009384526001908101602090815260408086206001600160a01b03909516865293905291909220805460ff1916909117905550565b60408051808201909152601481527f78722e6163636573732e73746f726167652e763100000000000000000000000060209091015260008060ff6200074a60017fd870894b15ee1369a593f3670ac51c4ed8201dab473944ee712694d327dd587562000a88565b6040516020016200075d91815260200190565b60408051601f1981840301815291905280516020909101201692915050565b634e487b7160e01b600052604160045260246000fd5b60405160a081016001600160401b0381118282101715620007b757620007b76200077c565b60405290565b604051601f8201601f191681016001600160401b0381118282101715620007e857620007e86200077c565b604052919050565b80516001600160a01b03811681146200080857600080fd5b919050565b600060208083850312156200082157600080fd5b82516001600160401b03808211156200083957600080fd5b9084019060a082870312156200084e57600080fd5b6200085862000792565b6200086383620007f0565b815262000872848401620007f0565b848201526200088460408401620007f0565b60408201526200089760608401620007f0565b6060820152608083015182811115620008af57600080fd5b80840193505086601f840112620008c557600080fd5b825182811115620008da57620008da6200077c565b8060051b9250620008ed858401620007bd565b81815292840185019285810190898511156200090857600080fd5b948601945b8486101562000931576200092186620007f0565b825294860194908601906200090d565b60808401525090979650505050505050565b634e487b7160e01b600052603260045260246000fd5b60005b83811015620009765781810151838201526020016200095c565b50506000910152565b6020815260008251806020840152620009a081604085016020870162000959565b601f01601f19169190910160400192915050565b600060208284031215620009c757600080fd5b620009d282620007f0565b9392505050565b7f42617369635368656c6c3a20657874656e73696f6e206e6f7420666f756e643a8152600160fd1b60208201526000825162000a1d81602185016020870162000959565b9190910160210192915050565b6001600160a01b038381168252604060208084018290528451918401829052600092858201929091906060860190855b8181101562000a7a57855185168352948301949183019160010162000a5a565b509098975050505050505050565b8181038181111562000aaa57634e487b7160e01b600052601160045260246000fd5b92915050565b60805160a051610d5462000ad660003960006101e5015260006101790152610d546000f3fe60806040526004361061007f5760003560e01c80638a8547711161004e5780638a85477114610167578063db8d7466146101b3578063dbdc4e62146101d3578063e3ffb4bf1461020757610086565b8063238a0386146100ae5780632e1a7d4d146100f557806347d1d09a146101175780636d80bf311461014757610086565b3661008657005b600080356001600160e01b031916905060006100a482600036610227565b9050805160208201f35b3480156100ba57600080fd5b506100ce6100c93660046109db565b6102b2565b60408051825161ffff90811682526020938401511692810192909252015b60405180910390f35b34801561010157600080fd5b50610115610110366004610a10565b610341565b005b34801561012357600080fd5b50610137610132366004610a29565b6104d2565b60405190151581526020016100ec565b34801561015357600080fd5b50610137610162366004610a98565b610556565b34801561017357600080fd5b5061019b7f000000000000000000000000000000000000000000000000000000000000000081565b6040516001600160a01b0390911681526020016100ec565b3480156101bf57600080fd5b506101156101ce366004610a98565b6105fb565b3480156101df57600080fd5b5061019b7f000000000000000000000000000000000000000000000000000000000000000081565b34801561021357600080fd5b50610115610222366004610a98565b6106b7565b6040516360fdd56160e01b815260609073__$307c3a572bdf5d9800a89b3fc2eb3d5604$__906360fdd5619061026590879087908790600401610ab5565b600060405180830381865af4158015610282573d6000803e3d6000fd5b505050506040513d6000823e601f3d908101601f191682016040526102aa9190810190610b18565b949350505050565b6040805180820182526000808252602082015290516311c501c360e11b815273__$307c3a572bdf5d9800a89b3fc2eb3d5604$__9063238a0386906102fb908590600401610bbb565b6040805180830381865af4158015610317573d6000803e3d6000fd5b505050506040513d601f19601f8201168201806040525081019061033b9190610bde565b92915050565b604051630935e01b60e21b815233600482015273__$a5a42e46683ad9c79b7b86d5ff60fdf4c1$__906324d7806c90602401602060405180830381865af4158015610390573d6000803e3d6000fd5b505050506040513d601f19601f820116820180604052508101906103b49190610c3d565b6103d95760405162461bcd60e51b81526004016103d090610c5f565b60405180910390fd5b478111156104295760405162461bcd60e51b815260206004820181905260248201527f42617369635368656c6c3a20696e73756666696369656e742062616c616e636560448201526064016103d0565b73__$a5a42e46683ad9c79b7b86d5ff60fdf4c1$__638da5cb5b6040518163ffffffff1660e01b8152600401602060405180830381865af4158015610472573d6000803e3d6000fd5b505050506040513d601f19601f820116820180604052508101906104969190610c94565b6001600160a01b03166108fc829081150290604051600060405180830381858888f193505050501580156104ce573d6000803e3d6000fd5b5050565b6040516329925a7160e11b815260009073__$307c3a572bdf5d9800a89b3fc2eb3d5604$__90635324b4e29061050e9086908690600401610cb1565b602060405180830381865af415801561052b573d6000803e3d6000fd5b505050506040513d601f19601f8201168201806040525081019061054f9190610c3d565b9392505050565b604051632474521560e21b81527ff4624c0c441d71d84320078141641151f1c713f1d4d2a15382f6a42904d8d13860048201526001600160a01b038216602482015260009073__$a5a42e46683ad9c79b7b86d5ff60fdf4c1$__906391d1485490604401602060405180830381865af41580156105d7573d6000803e3d6000fd5b505050506040513d601f19601f8201168201806040525081019061033b9190610c3d565b604051630935e01b60e21b815233600482015273__$a5a42e46683ad9c79b7b86d5ff60fdf4c1$__906324d7806c90602401602060405180830381865af415801561064a573d6000803e3d6000fd5b505050506040513d601f19601f8201168201806040525081019061066e9190610c3d565b61068a5760405162461bcd60e51b81526004016103d090610c5f565b6106b47ff4624c0c441d71d84320078141641151f1c713f1d4d2a15382f6a42904d8d138826107da565b50565b604051630935e01b60e21b815233600482015273__$a5a42e46683ad9c79b7b86d5ff60fdf4c1$__906324d7806c90602401602060405180830381865af4158015610706573d6000803e3d6000fd5b505050506040513d601f19601f8201168201806040525081019061072a9190610c3d565b6107465760405162461bcd60e51b81526004016103d090610c5f565b60405163d547741f60e01b81527ff4624c0c441d71d84320078141641151f1c713f1d4d2a15382f6a42904d8d13860048201526001600160a01b038216602482015273__$a5a42e46683ad9c79b7b86d5ff60fdf4c1$__9063d547741f9060440160006040518083038186803b1580156107bf57600080fd5b505af41580156107d3573d6000803e3d6000fd5b5050505050565b6001600160a01b0381166108495760405162461bcd60e51b815260206004820152603060248201527f416363657373436f6e74726f6c3a2063616e6e6f74206772616e7420726f6c6560448201526f20746f207a65726f206164647265737360801b60648201526084016103d0565b6000610853610889565b60009384526001908101602090815260408086206001600160a01b03909516865293905291909220805460ff1916909117905550565b60408051808201909152601481527378722e6163636573732e73746f726167652e763160601b60209091015260008060ff6108e560017fd870894b15ee1369a593f3670ac51c4ed8201dab473944ee712694d327dd5875610cfd565b6040516020016108f791815260200190565b60408051601f1981840301815291905280516020909101201692915050565b634e487b7160e01b600052604160045260246000fd5b604051601f8201601f1916810167ffffffffffffffff8111828210171561095557610955610916565b604052919050565b600067ffffffffffffffff82111561097757610977610916565b50601f01601f191660200190565b600082601f83011261099657600080fd5b81356109a96109a48261095d565b61092c565b8181528460208386010111156109be57600080fd5b816020850160208301376000918101602001919091529392505050565b6000602082840312156109ed57600080fd5b813567ffffffffffffffff811115610a0457600080fd5b6102aa84828501610985565b600060208284031215610a2257600080fd5b5035919050565b6000808284036060811215610a3d57600080fd5b833567ffffffffffffffff811115610a5457600080fd5b610a6086828701610985565b9350506040601f1982011215610a7557600080fd5b506020830190509250929050565b6001600160a01b03811681146106b457600080fd5b600060208284031215610aaa57600080fd5b813561054f81610a83565b63ffffffff60e01b8416815260406020820152816040820152818360608301376000818301606090810191909152601f909201601f1916010192915050565b60005b83811015610b0f578181015183820152602001610af7565b50506000910152565b600060208284031215610b2a57600080fd5b815167ffffffffffffffff811115610b4157600080fd5b8201601f81018413610b5257600080fd5b8051610b606109a48261095d565b818152856020838501011115610b7557600080fd5b610b86826020830160208601610af4565b95945050505050565b60008151808452610ba7816020860160208601610af4565b601f01601f19169290920160200192915050565b60208152600061054f6020830184610b8f565b61ffff811681146106b457600080fd5b600060408284031215610bf057600080fd5b6040516040810181811067ffffffffffffffff82111715610c1357610c13610916565b6040528251610c2181610bce565b81526020830151610c3181610bce565b60208201529392505050565b600060208284031215610c4f57600080fd5b8151801515811461054f57600080fd5b6020808252818101527f42617369635368656c6c3a207265737472696374656420746f2061646d696e73604082015260600190565b600060208284031215610ca657600080fd5b815161054f81610a83565b606081526000610cc46060830185610b8f565b90508235610cd181610bce565b61ffff808216602085015260208501359150610cec82610bce565b808216604085015250509392505050565b8181038181111561033b57634e487b7160e01b600052601160045260246000fdfea2646970667358221220236bcbc85e71ac8f17cc717c495723f90c49c5067cf0eafb50a141f7af40706c64736f6c63430008180033",
  "linkReferences": {
    "contracts/libraries/LibAccess.sol": {
      "LibAccess": [
        {
          "length": 20,
          "start": 1491
        },
        {
          "length": 20,
          "start": 3628
        },
        {
          "length": 20,
          "start": 3841
        },
        {
          "length": 20,
          "start": 4211
        },
        {
          "length": 20,
          "start": 4326
        },
        {
          "length": 20,
          "start": 4514
        },
        {
          "length": 20,
          "start": 4704
        }
      ]
    },
    "contracts/libraries/LibExtensions.sol": {
      "LibExtensions": [
        {
          "length": 20,
          "start": 1376
        },
        {
          "length": 20,
          "start": 3343
        },
        {
          "length": 20,
          "start": 3497
        },
        {
          "length": 20,
          "start": 4026
        }
      ]
    }
  },
  "deployedLinkReferences": {
    "contracts/libraries/LibAccess.sol": {
      "LibAccess": [
        {
          "length": 20,
          "start": 854
        },
        {
          "length": 20,
          "start": 1067
        },
        {
          "length": 20,
          "start": 1437
        },
        {
          "length": 20,
          "start": 1552
        },
        {
          "length": 20,
          "start": 1740
        },
        {
          "length": 20,
          "start": 1930
        }
      ]
    },
    "contracts/libraries/LibExtensions.sol": {
      "LibExtensions": [
        {
          "length": 20,
          "start": 569
        },
        {
          "length": 20,
          "start": 723
        },
        {
          "length": 20,
          "start": 1252
        }
      ]
    }
  }
}