{
  "_format": "hh-sol-artifact-1",
  "contractName": "AccessModule",
  "sourceName": "contracts/modules/access/AccessModule.sol",
  "abi": [
    {
      "inputs": [
        {
          "internalType": "address",
          "name": "r",
          "type": "address"
        }
      ],
      "stateMutability": "nonpayable",
      "type": "constructor"
    },
    {
      "anonymous": false,
      "inputs": [
        {
          "indexed": false,
          "internalType": "address",
          "name": "owner",
          "type": "address"
        }
      ],
      "name": "OwnerChanged",
      "type": "event"
    },
    {
      "inputs": [
        {
          "internalType": "address[]",
          "name": "signers",
          "type": "address[]"
        }
      ],
      "name": "addSigners",
      "outputs": [],
      "stateMutability": "nonpayable",
      "type": "function"
    },
    {
      "inputs": [
        {
          "internalType": "bytes32",
          "name": "role",
          "type": "bytes32"
        },
        {
          "internalType": "address",
          "name": "account",
          "type": "address"
        }
      ],
      "name": "grantRole",
      "outputs": [],
      "stateMutability": "nonpayable",
      "type": "function"
    },
    {
      "inputs": [
        {
          "internalType": "bytes32",
          "name": "role",
          "type": "bytes32"
        },
        {
          "internalType": "address",
          "name": "account",
          "type": "address"
        }
      ],
      "name": "hasRole",
      "outputs": [
        {
          "internalType": "bool",
          "name": "",
          "type": "bool"
        }
      ],
      "stateMutability": "view",
      "type": "function"
    },
    {
      "inputs": [
        {
          "internalType": "address",
          "name": "_owner",
          "type": "address"
        },
        {
          "internalType": "address[]",
          "name": "admins",
          "type": "address[]"
        }
      ],
      "name": "init",
      "outputs": [],
      "stateMutability": "nonpayable",
      "type": "function"
    },
    {
      "inputs": [
        {
          "internalType": "address",
          "name": "a",
          "type": "address"
        }
      ],
      "name": "isSigner",
      "outputs": [
        {
          "internalType": "bool",
          "name": "",
          "type": "bool"
        }
      ],
      "stateMutability": "view",
      "type": "function"
    },
    {
      "inputs": [],
      "name": "name",
      "outputs": [
        {
          "internalType": "string",
          "name": "",
          "type": "string"
        }
      ],
      "stateMutability": "view",
      "type": "function"
    },
    {
      "inputs": [],
      "name": "owner",
      "outputs": [
        {
          "internalType": "address",
          "name": "",
          "type": "address"
        }
      ],
      "stateMutability": "view",
      "type": "function"
    },
    {
      "inputs": [],
      "name": "registry",
      "outputs": [
        {
          "internalType": "contract IModuleRegistry",
          "name": "",
          "type": "address"
        }
      ],
      "stateMutability": "view",
      "type": "function"
    },
    {
      "inputs": [
        {
          "internalType": "address[]",
          "name": "signers",
          "type": "address[]"
        }
      ],
      "name": "removeSigners",
      "outputs": [],
      "stateMutability": "nonpayable",
      "type": "function"
    },
    {
      "inputs": [
        {
          "internalType": "bytes32",
          "name": "role",
          "type": "bytes32"
        },
        {
          "internalType": "address",
          "name": "account",
          "type": "address"
        }
      ],
      "name": "revokeRole",
      "outputs": [],
      "stateMutability": "nonpayable",
      "type": "function"
    },
    {
      "inputs": [
        {
          "internalType": "address",
          "name": "o",
          "type": "address"
        }
      ],
      "name": "setOwner",
      "outputs": [],
      "stateMutability": "nonpayable",
      "type": "function"
    },
    {
      "inputs": [],
      "name": "version",
      "outputs": [
        {
          "components": [
            {
              "internalType": "uint16",
              "name": "major",
              "type": "uint16"
            },
            {
              "internalType": "uint16",
              "name": "minor",
              "type": "uint16"
            }
          ],
          "internalType": "struct ModuleVersion",
          "name": "",
          "type": "tuple"
        }
      ],
      "stateMutability": "view",
      "type": "function"
    }
  ],
  "bytecode": "0x608060405234801561001057600080fd5b50604051610f9e380380610f9e83398101604081905261002f916100c9565b6001600160a01b0381166100a45760405162461bcd60e51b815260206004820152603260248201527f416363657373436f6e74726f6c3a2063616e6e6f742073657420726567697374604482015271727920746f207a65726f206164647265737360701b606482015260840160405180910390fd5b600080546001600160a01b0319166001600160a01b03929092169190911790556100f9565b6000602082840312156100db57600080fd5b81516001600160a01b03811681146100f257600080fd5b9392505050565b610e96806101086000396000f3fe608060405234801561001057600080fd5b50600436106100b45760003560e01c80637df73e27116100715780637df73e27146101a25780638d361e43146101c55780638da5cb5b146101d857806391d14854146101e0578063d547741f146101f3578063e8906a2d1461020657600080fd5b806306fdde03146100b957806313af4035146100fc5780632f2ff15d146101115780633c5a3cea1461012457806354fd4d50146101375780637b10399914610177575b600080fd5b6100e66040518060400160405280600e81526020016d125058d8d95cdcd0dbdb9d1c9bdb60921b81525081565b6040516100f39190610c3a565b60405180910390f35b61010f61010a366004610ca5565b610219565b005b61010f61011f366004610cc7565b610389565b61010f610132366004610d3f565b61048d565b604080518082018252600080825260209182018190528251808401845260018082529083019182528351908152905161ffff1691810191909152016100f3565b60005461018a906001600160a01b031681565b6040516001600160a01b0390911681526020016100f3565b6101b56101b0366004610ca5565b6106d4565b60405190151581526020016100f3565b61010f6101d3366004610d92565b610732565b61018a6108c7565b6101b56101ee366004610cc7565b6108e2565b61010f610201366004610cc7565b610920565b61010f610214366004610d92565b610a1f565b33610222610bad565b546001600160a01b03161461027e5760405162461bcd60e51b815260206004820181905260248201527f4163636573734d6f64756c653a206f6e6c79206f776e657220616c6c6f77656460448201526064015b60405180910390fd5b6001600160a01b0381166102ec5760405162461bcd60e51b815260206004820152602f60248201527f416363657373436f6e74726f6c3a2063616e6e6f7420736574206f776e65722060448201526e746f207a65726f206164647265737360881b6064820152608401610275565b60006102f6610bad565b80546001600160a01b039093166001600160a01b0319909316831781557f9f4e1c871d5fdd0aee1cd182666698a4492b24c6832aac230d07b11046af5a8960009081526001918201602081815260408084208785528252808420805460ff199081168717909155600080516020610e41833981519152855292825280842096845295905293902080549093161790915550565b610391610bad565b600080516020610e4183398151915260009081526001919091016020908152604080832033845290915290205460ff166103dd5760405162461bcd60e51b815260040161027590610dd4565b6001600160a01b03811661044c5760405162461bcd60e51b815260206004820152603060248201527f416363657373436f6e74726f6c3a2063616e6e6f74206772616e7420726f6c6560448201526f20746f207a65726f206164647265737360801b6064820152608401610275565b6000610456610bad565b60009384526001908101602090815260408086206001600160a01b0395909516865293905291909220805460ff1916909117905550565b6000610497610bad565b80549091506001600160a01b0316156104e85760405162461bcd60e51b8152602060048201526013602482015272105b1c9958591e481a5b9a5d1a585b1a5e9959606a1b6044820152606401610275565b6001600160a01b03841661053e5760405162461bcd60e51b815260206004820152601c60248201527f4f776e65722063616e6e6f74206265207a65726f2061646472657373000000006044820152606401610275565b80546001600160a01b0319166001600160a01b03851690811782557f9f4e1c871d5fdd0aee1cd182666698a4492b24c6832aac230d07b11046af5a8960009081526001808401602081815260408085208686528252808520805460ff199081168617909155600080516020610e4183398151915286529282528085209585529490529282208054909316179091555b828110156106cd5760008484838181106105e9576105e9610e09565b90506020020160208101906105fe9190610ca5565b6001600160a01b0316036106545760405162461bcd60e51b815260206004820152601d60248201527f41646d696e732063616e6e6f74206265207a65726f20616464726573730000006044820152606401610275565b600080516020610e418339815191526000908152600183810160205260408220909186868581811061068857610688610e09565b905060200201602081019061069d9190610ca5565b6001600160a01b031681526020810191909152604001600020805460ff19169115159190911790556001016105cd565b5050505050565b6000806106df610bad565b7f749410edf1177aefa27612b24d2d51e6441f89613f5ddf9be1d11dfc0d3e4fea60009081526001909101602090815260408083206001600160a01b039096168352949052929092205460ff1692915050565b61073a610bad565b600080516020610e4183398151915260009081526001919091016020908152604080832033845290915290205460ff166107865760405162461bcd60e51b815260040161027590610dd4565b6000610790610bad565b905060005b828110156108c15760008484838181106107b1576107b1610e09565b90506020020160208101906107c69190610ca5565b6001600160a01b0316036108385760405162461bcd60e51b815260206004820152603360248201527f5368617265644c69624163636573733a2063616e6e6f742072656d6f7665207a60448201527265726f2061646472657373207369676e65727360681b6064820152608401610275565b7f749410edf1177aefa27612b24d2d51e6441f89613f5ddf9be1d11dfc0d3e4fea600090815260018301602052604081208186868581811061087c5761087c610e09565b90506020020160208101906108919190610ca5565b6001600160a01b031681526020810191909152604001600020805460ff1916911515919091179055600101610795565b50505050565b6000806108d2610bad565b546001600160a01b031692915050565b6000806108ed610bad565b60008581526001909101602090815260408083206001600160a01b038716845290915290205460ff169150505b92915050565b610928610bad565b600080516020610e4183398151915260009081526001919091016020908152604080832033845290915290205460ff166109745760405162461bcd60e51b815260040161027590610dd4565b6001600160a01b0381166109e65760405162461bcd60e51b815260206004820152603360248201527f416363657373436f6e74726f6c3a2063616e6e6f74207265766f6b6520726f6c604482015272652066726f6d207a65726f206164647265737360681b6064820152608401610275565b60006109f0610bad565b6000938452600101602090815260408085206001600160a01b039094168552929052509020805460ff19169055565b610a27610bad565b600080516020610e4183398151915260009081526001919091016020908152604080832033845290915290205460ff16610a735760405162461bcd60e51b815260040161027590610dd4565b6000610a7d610bad565b905060005b828110156108c1576000848483818110610a9e57610a9e610e09565b9050602002016020810190610ab39190610ca5565b6001600160a01b031603610b225760405162461bcd60e51b815260206004820152603060248201527f5368617265644c69624163636573733a2063616e6e6f7420616464207a65726f60448201526f2061646472657373207369676e65727360801b6064820152608401610275565b7f749410edf1177aefa27612b24d2d51e6441f89613f5ddf9be1d11dfc0d3e4fea60009081526001838101602052604082209091868685818110610b6857610b68610e09565b9050602002016020810190610b7d9190610ca5565b6001600160a01b031681526020810191909152604001600020805460ff1916911515919091179055600101610a82565b60408051808201909152601481527378722e6163636573732e73746f726167652e763160601b60209091015260008060ff610c0960017fd870894b15ee1369a593f3670ac51c4ed8201dab473944ee712694d327dd5875610e1f565b604051602001610c1b91815260200190565b60408051601f1981840301815291905280516020909101201692915050565b60006020808352835180602085015260005b81811015610c6857858101830151858201604001528201610c4c565b506000604082860101526040601f19601f8301168501019250505092915050565b80356001600160a01b0381168114610ca057600080fd5b919050565b600060208284031215610cb757600080fd5b610cc082610c89565b9392505050565b60008060408385031215610cda57600080fd5b82359150610cea60208401610c89565b90509250929050565b60008083601f840112610d0557600080fd5b50813567ffffffffffffffff811115610d1d57600080fd5b6020830191508360208260051b8501011115610d3857600080fd5b9250929050565b600080600060408486031215610d5457600080fd5b610d5d84610c89565b9250602084013567ffffffffffffffff811115610d7957600080fd5b610d8586828701610cf3565b9497909650939450505050565b60008060208385031215610da557600080fd5b823567ffffffffffffffff811115610dbc57600080fd5b610dc885828601610cf3565b90969095509350505050565b6020808252818101527f4163636573734d6f64756c653a206f6e6c792061646d696e20616c6c6f776564604082015260600190565b634e487b7160e01b600052603260045260246000fd5b8181038181111561091a57634e487b7160e01b600052601160045260246000fdfe2172861495e7b85edac73e3cd5fbb42dd675baadf627720e687bcfdaca025096a26469706673582212202ea43116972e7181c071094972c5f9f804717e1d072a831a303db4abef51e82f64736f6c63430008180033",
  "linkReferences": {},
  "deployedLinkReferences": {}
}