{
  "_format": "hh-sol-artifact-1",
  "contractName": "ControlChangeModule",
  "sourceName": "contracts/modules/registry/control-change/ControlChangeModule.sol",
  "abi": [
    {
      "inputs": [
        {
          "internalType": "address",
          "name": "_moduleRegistry",
          "type": "address"
        }
      ],
      "stateMutability": "nonpayable",
      "type": "constructor"
    },
    {
      "inputs": [],
      "name": "ECDSAInvalidSignature",
      "type": "error"
    },
    {
      "inputs": [
        {
          "internalType": "uint256",
          "name": "length",
          "type": "uint256"
        }
      ],
      "name": "ECDSAInvalidSignatureLength",
      "type": "error"
    },
    {
      "inputs": [
        {
          "internalType": "bytes32",
          "name": "s",
          "type": "bytes32"
        }
      ],
      "name": "ECDSAInvalidSignatureS",
      "type": "error"
    },
    {
      "anonymous": false,
      "inputs": [
        {
          "indexed": true,
          "internalType": "address",
          "name": "entity",
          "type": "address"
        },
        {
          "indexed": true,
          "internalType": "address",
          "name": "newController",
          "type": "address"
        }
      ],
      "name": "ControllerChanged",
      "type": "event"
    },
    {
      "inputs": [],
      "name": "DAY",
      "outputs": [
        {
          "internalType": "uint256",
          "name": "",
          "type": "uint256"
        }
      ],
      "stateMutability": "view",
      "type": "function"
    },
    {
      "inputs": [
        {
          "components": [
            {
              "internalType": "address",
              "name": "entity",
              "type": "address"
            },
            {
              "internalType": "bytes",
              "name": "oldControllerSignature",
              "type": "bytes"
            },
            {
              "internalType": "bytes",
              "name": "entitySignature",
              "type": "bytes"
            },
            {
              "internalType": "uint256",
              "name": "expiration",
              "type": "uint256"
            }
          ],
          "internalType": "struct ChangeControllerArgsNoTerms",
          "name": "args",
          "type": "tuple"
        }
      ],
      "name": "changeControllerNoTerms",
      "outputs": [],
      "stateMutability": "nonpayable",
      "type": "function"
    },
    {
      "inputs": [
        {
          "components": [
            {
              "internalType": "address",
              "name": "entity",
              "type": "address"
            },
            {
              "internalType": "bytes",
              "name": "oldControllerSignature",
              "type": "bytes"
            },
            {
              "internalType": "bytes",
              "name": "entitySignature",
              "type": "bytes"
            },
            {
              "internalType": "uint256",
              "name": "expiration",
              "type": "uint256"
            },
            {
              "components": [
                {
                  "internalType": "uint256",
                  "name": "fee",
                  "type": "uint256"
                },
                {
                  "internalType": "uint256",
                  "name": "coveragePeriodDays",
                  "type": "uint256"
                },
                {
                  "internalType": "uint256",
                  "name": "gracePeriodDays",
                  "type": "uint256"
                }
              ],
              "internalType": "struct RegistrationTerms",
              "name": "terms",
              "type": "tuple"
            }
          ],
          "internalType": "struct ChangeControllerArgsWithTerms",
          "name": "args",
          "type": "tuple"
        }
      ],
      "name": "changeControllerWithTerms",
      "outputs": [],
      "stateMutability": "nonpayable",
      "type": "function"
    },
    {
      "inputs": [],
      "name": "name",
      "outputs": [
        {
          "internalType": "string",
          "name": "",
          "type": "string"
        }
      ],
      "stateMutability": "view",
      "type": "function"
    },
    {
      "inputs": [],
      "name": "version",
      "outputs": [
        {
          "components": [
            {
              "internalType": "uint16",
              "name": "major",
              "type": "uint16"
            },
            {
              "internalType": "uint16",
              "name": "minor",
              "type": "uint16"
            }
          ],
          "internalType": "struct ModuleVersion",
          "name": "",
          "type": "tuple"
        }
      ],
      "stateMutability": "pure",
      "type": "function"
    }
  ],
  "bytecode": "0x60a060405234801561001057600080fd5b506040516111b33803806111b383398101604081905261002f916100c0565b6001600160a01b0381166100af5760405162461bcd60e51b815260206004820152603b60248201527f456e7469747952656d6f76616c4d6f64756c653a206d6f64756c65207265676960448201527f737472792063616e6e6f74206265207a65726f20616464726573730000000000606482015260840160405180910390fd5b6001600160a01b03166080526100f0565b6000602082840312156100d257600080fd5b81516001600160a01b03811681146100e957600080fd5b9392505050565b6080516110ab610108600039600050506110ab6000f3fe608060405234801561001057600080fd5b50600436106100575760003560e01c806306fdde031461005c57806327cfe8561461009f578063541b160d146100b757806354fd4d50146100cc578063e35a67bb1461010c575b600080fd5b6100896040518060400160405280600e81526020016d49436f6e74726f6c4368616e676560901b81525081565b6040516100969190610d4f565b60405180910390f35b6100a96201518081565b604051908152602001610096565b6100ca6100c5366004610d82565b61011f565b005b604080518082018252600080825260209182018190528251808401845260018082529083019182528351908152905161ffff169181019190915201610096565b6100ca61011a366004610dc4565b6101ca565b61012881610261565b6000610132610575565b9050600081816101456020860186610dff565b6001600160a01b03168152602080820192909252604001600090812080546001600160a01b031916339081178255426004830155600582019290925592509061019090850185610dff565b6001600160a01b03167f6aef1fb5b23d0e109fc7f2b0601019e1edbacd177e31a441ec8548e8dd14f0f760405160405180910390a3505050565b6101d38161060b565b60006101dd610575565b9050600081816101f06020860186610dff565b6001600160a01b03168152602081019190915260400160002080546001600160a01b031916331781559050608083016001820161024482828135815560208201356001820155604082013560028201555050565b505042600482015560006005820155336101906020850185610dff565b4281606001351161028d5760405162461bcd60e51b815260040161028490610e28565b60405180910390fd5b6000610297610575565b9050600081816102aa6020860186610dff565b6001600160a01b039081168252602080830193909352604090910160009081208054909450909116916102df90860186610dff565b604080516001600160a01b03909216602083015233908201526060808701359082015260800160408051808303601f19018152828252805160209182012081845283830190925290925060009190602082018180368337019050509050816020820152600061034d82610980565b905061035c6020880188610e84565b90506000036103e957836001600160a01b0316634f05c1c86040518163ffffffff1660e01b8152600401602060405180830381865afa1580156103a3573d6000803e3d6000fd5b505050506040513d601f19601f820116820180604052508101906103c79190610ed2565b156103e45760405162461bcd60e51b815260040161028490610ef4565b6104c1565b6000610436826103fc60208b018b610e84565b8080601f0160208091040260200160405190810160405280939291908181526020018383808284376000920191909152506109bb92505050565b6040516253f74560e51b81526001600160a01b03808316600483015291925090861690630a7ee8a090602401602060405180830381865afa15801561047f573d6000803e3d6000fd5b505050506040513d601f19601f820116820180604052508101906104a39190610ed2565b6104bf5760405162461bcd60e51b815260040161028490610f52565b505b60006104d4826103fc60408b018b610e84565b90506104e36020890189610dff565b604051637df73e2760e01b81526001600160a01b0383811660048301529190911690637df73e2790602401602060405180830381865afa15801561052b573d6000803e3d6000fd5b505050506040513d601f19601f8201168201806040525081019061054f9190610ed2565b61056b5760405162461bcd60e51b815260040161028490610fa0565b5050505050505050565b60408051808201909152601a81527f78722e726567697374726174696f6e2e76312e73746f7261676500000000000060209091015260008060ff6105da60017f298bb06b387cf42ef0d699a946970827af7863e6cebf6ab1f9ef36af7a931163610fe3565b6040516020016105ec91815260200190565b60408051601f1981840301815291905280516020909101201692915050565b4281606001351161062e5760405162461bcd60e51b815260040161028490610e28565b6000610638610575565b90506000818161064b6020860186610dff565b6001600160a01b0390811682526020808301939093526040909101600090812080549094509091169161068090860186610dff565b604080516001600160a01b0390921660208301523390820152606086810135908201526080808701359082015260a0808701359082015260c0808701359082015260e00160408051601f19818403018152919052805160209182012091506000906106ed90870187610dff565b604080516001600160a01b03909216602083015233908201526060808801359082015260800160408051808303601f19018152828252805160209182012081845283830190925290925060009190602082018180368337505060408051602080825281830190925292935060009291508082018180368337019050509050836020830152826020820152600061078283610980565b9050600061078f83610980565b905061079e60208b018b610e84565b905060000361082b57866001600160a01b0316634f05c1c86040518163ffffffff1660e01b8152600401602060405180830381865afa1580156107e5573d6000803e3d6000fd5b505050506040513d601f19601f820116820180604052508101906108099190610ed2565b156108265760405162461bcd60e51b815260040161028490610ef4565b6108c9565b600061083e826103fc60208e018e610e84565b6040516253f74560e51b81526001600160a01b03808316600483015291925090891690630a7ee8a090602401602060405180830381865afa158015610887573d6000803e3d6000fd5b505050506040513d601f19601f820116820180604052508101906108ab9190610ed2565b6108c75760405162461bcd60e51b815260040161028490610f52565b505b60006108dc836103fc60408e018e610e84565b90506108eb60208c018c610dff565b604051637df73e2760e01b81526001600160a01b0383811660048301529190911690637df73e2790602401602060405180830381865afa158015610933573d6000803e3d6000fd5b505050506040513d601f19601f820116820180604052508101906109579190610ed2565b6109735760405162461bcd60e51b815260040161028490610fa0565b5050505050505050505050565b600061098c82516109e7565b8260405160200161099e929190611004565b604051602081830303815290604052805190602001209050919050565b6000806000806109cb8686610a7a565b9250925092506109db8282610ac7565b50909150505b92915050565b606060006109f483610b84565b600101905060008167ffffffffffffffff811115610a1457610a14610e6e565b6040519080825280601f01601f191660200182016040528015610a3e576020820181803683370190505b5090508181016020015b600019016f181899199a1a9b1b9c1cb0b131b232b360811b600a86061a8153600a8504945084610a4857509392505050565b60008060008351604103610ab45760208401516040850151606086015160001a610aa688828585610c5c565b955095509550505050610ac0565b50508151600091506002905b9250925092565b6000826003811115610adb57610adb61105f565b03610ae4575050565b6001826003811115610af857610af861105f565b03610b165760405163f645eedf60e01b815260040160405180910390fd5b6002826003811115610b2a57610b2a61105f565b03610b4b5760405163fce698f760e01b815260048101829052602401610284565b6003826003811115610b5f57610b5f61105f565b03610b80576040516335e2f38360e21b815260048101829052602401610284565b5050565b60008072184f03e93ff9f4daa797ed6e38ed64bf6a1f0160401b8310610bc35772184f03e93ff9f4daa797ed6e38ed64bf6a1f0160401b830492506040015b6d04ee2d6d415b85acef81000000008310610bef576d04ee2d6d415b85acef8100000000830492506020015b662386f26fc100008310610c0d57662386f26fc10000830492506010015b6305f5e1008310610c25576305f5e100830492506008015b6127108310610c3957612710830492506004015b60648310610c4b576064830492506002015b600a83106109e15760010192915050565b600080807f7fffffffffffffffffffffffffffffff5d576e7357a4501ddfe92f46681b20a0841115610c975750600091506003905082610d21565b604080516000808252602082018084528a905260ff891692820192909252606081018790526080810186905260019060a0016020604051602081039080840390855afa158015610ceb573d6000803e3d6000fd5b5050604051601f1901519150506001600160a01b038116610d1757506000925060019150829050610d21565b9250600091508190505b9450945094915050565b60005b83811015610d46578181015183820152602001610d2e565b50506000910152565b6020815260008251806020840152610d6e816040850160208701610d2b565b601f01601f19169190910160400192915050565b600060208284031215610d9457600080fd5b813567ffffffffffffffff811115610dab57600080fd5b820160808185031215610dbd57600080fd5b9392505050565b600060208284031215610dd657600080fd5b813567ffffffffffffffff811115610ded57600080fd5b820160e08185031215610dbd57600080fd5b600060208284031215610e1157600080fd5b81356001600160a01b0381168114610dbd57600080fd5b60208082526026908201527f5265676973747261723a206d6967726174696f6e207369676e617475726520656040820152651e1c1a5c995960d21b606082015260800190565b634e487b7160e01b600052604160045260246000fd5b6000808335601e19843603018112610e9b57600080fd5b83018035915067ffffffffffffffff821115610eb657600080fd5b602001915036819003821315610ecb57600080fd5b9250929050565b600060208284031215610ee457600080fd5b81518015158114610dbd57600080fd5b602080825260409082018190527f5265676973747261723a2063757272656e742072656769737472617220697320908201527f61637469766520627574206e6f207369676e61747572652070726f7669646564606082015260800190565b6020808252602e908201527f5265676973747261723a2063757272656e74207265676973747261722073696760408201526d1b985d1d5c99481a5b9d985b1a5960921b606082015260800190565b60208082526023908201527f5265676973747261723a20656e74697479207369676e617475726520696e76616040820152621b1a5960ea1b606082015260800190565b818103818111156109e157634e487b7160e01b600052601160045260246000fd5b7f19457468657265756d205369676e6564204d6573736167653a0a00000000000081526000835161103c81601a850160208801610d2b565b83519083019061105381601a840160208801610d2b565b01601a01949350505050565b634e487b7160e01b600052602160045260246000fdfea2646970667358221220bc59163b42956019c433a8a0ad175157a5179dcd003e9ca597657eb007ca765664736f6c63430008180033",
  "linkReferences": {},
  "deployedLinkReferences": {}
}