{
  "_format": "hh-sol-artifact-1",
  "contractName": "ControlChangeModule",
  "sourceName": "contracts/modules/control-change/ControlChangeModule.sol",
  "abi": [
    {
      "inputs": [],
      "name": "ECDSAInvalidSignature",
      "type": "error"
    },
    {
      "inputs": [
        {
          "internalType": "uint256",
          "name": "length",
          "type": "uint256"
        }
      ],
      "name": "ECDSAInvalidSignatureLength",
      "type": "error"
    },
    {
      "inputs": [
        {
          "internalType": "bytes32",
          "name": "s",
          "type": "bytes32"
        }
      ],
      "name": "ECDSAInvalidSignatureS",
      "type": "error"
    },
    {
      "anonymous": false,
      "inputs": [
        {
          "indexed": true,
          "internalType": "address",
          "name": "entity",
          "type": "address"
        },
        {
          "indexed": true,
          "internalType": "address",
          "name": "newController",
          "type": "address"
        }
      ],
      "name": "ControllerChanged",
      "type": "event"
    },
    {
      "inputs": [],
      "name": "DAY",
      "outputs": [
        {
          "internalType": "uint256",
          "name": "",
          "type": "uint256"
        }
      ],
      "stateMutability": "view",
      "type": "function"
    },
    {
      "inputs": [
        {
          "components": [
            {
              "internalType": "address",
              "name": "entity",
              "type": "address"
            },
            {
              "internalType": "bytes",
              "name": "oldControllerSignature",
              "type": "bytes"
            },
            {
              "internalType": "bytes",
              "name": "entitySignature",
              "type": "bytes"
            },
            {
              "internalType": "uint256",
              "name": "expiration",
              "type": "uint256"
            }
          ],
          "internalType": "struct ChangeControllerArgsNoTerms",
          "name": "args",
          "type": "tuple"
        }
      ],
      "name": "changeControllerNoTerms",
      "outputs": [],
      "stateMutability": "nonpayable",
      "type": "function"
    },
    {
      "inputs": [
        {
          "components": [
            {
              "internalType": "address",
              "name": "entity",
              "type": "address"
            },
            {
              "internalType": "bytes",
              "name": "oldControllerSignature",
              "type": "bytes"
            },
            {
              "internalType": "bytes",
              "name": "entitySignature",
              "type": "bytes"
            },
            {
              "internalType": "uint256",
              "name": "expiration",
              "type": "uint256"
            },
            {
              "components": [
                {
                  "internalType": "uint16",
                  "name": "coveragePeriodDays",
                  "type": "uint16"
                },
                {
                  "internalType": "uint16",
                  "name": "gracePeriodDays",
                  "type": "uint16"
                },
                {
                  "internalType": "uint256",
                  "name": "fee",
                  "type": "uint256"
                }
              ],
              "internalType": "struct RegistrationTerms",
              "name": "terms",
              "type": "tuple"
            }
          ],
          "internalType": "struct ChangeControllerArgsWithTerms",
          "name": "args",
          "type": "tuple"
        }
      ],
      "name": "changeControllerWithTerms",
      "outputs": [],
      "stateMutability": "nonpayable",
      "type": "function"
    },
    {
      "inputs": [],
      "name": "name",
      "outputs": [
        {
          "internalType": "string",
          "name": "",
          "type": "string"
        }
      ],
      "stateMutability": "view",
      "type": "function"
    },
    {
      "inputs": [],
      "name": "version",
      "outputs": [
        {
          "components": [
            {
              "internalType": "uint16",
              "name": "major",
              "type": "uint16"
            },
            {
              "internalType": "uint16",
              "name": "minor",
              "type": "uint16"
            }
          ],
          "internalType": "struct ModuleVersion",
          "name": "",
          "type": "tuple"
        }
      ],
      "stateMutability": "pure",
      "type": "function"
    }
  ],
  "bytecode": "0x608060405234801561001057600080fd5b5061113f806100206000396000f3fe608060405234801561001057600080fd5b50600436106100575760003560e01c806306fdde031461005c57806327cfe8561461009f578063541b160d146100b757806354fd4d50146100cc5780638036b0721461010c575b600080fd5b6100896040518060400160405280600e81526020016d49436f6e74726f6c4368616e676560901b81525081565b6040516100969190610d5f565b60405180910390f35b6100a96201518081565b604051908152602001610096565b6100ca6100c5366004610d92565b61011f565b005b604080518082018252600080825260209182018190528251808401845260018082529083019182528351908152905161ffff169181019190915201610096565b6100ca61011a366004610dd4565b6101ca565b6101288161024a565b600061013261055e565b9050600081816101456020860186610e0f565b6001600160a01b03168152602080820192909252604001600090812080546001600160a01b031916339081178255426003830155600482019290925592509061019090850185610e0f565b6001600160a01b03167f6aef1fb5b23d0e109fc7f2b0601019e1edbacd177e31a441ec8548e8dd14f0f760405160405180910390a3505050565b6101d3816105f4565b60006101dd61055e565b9050600081816101f06020860186610e0f565b6001600160a01b03168152602081019190915260400160002080546001600160a01b031916331781559050608083016001820161022d8282610e4b565b505042600382015560006004820155336101906020850185610e0f565b428160600135116102765760405162461bcd60e51b815260040161026d90610e9f565b60405180910390fd5b600061028061055e565b9050600081816102936020860186610e0f565b6001600160a01b039081168252602080830193909352604090910160009081208054909450909116916102c890860186610e0f565b604080516001600160a01b03909216602083015233908201526060808701359082015260800160408051808303601f19018152828252805160209182012081845283830190925290925060009190602082018180368337019050509050816020820152600061033682610990565b90506103456020880188610efb565b90506000036103d257836001600160a01b0316634f05c1c86040518163ffffffff1660e01b8152600401602060405180830381865afa15801561038c573d6000803e3d6000fd5b505050506040513d601f19601f820116820180604052508101906103b09190610f49565b156103cd5760405162461bcd60e51b815260040161026d90610f6b565b6104aa565b600061041f826103e560208b018b610efb565b8080601f0160208091040260200160405190810160405280939291908181526020018383808284376000920191909152506109cb92505050565b6040516253f74560e51b81526001600160a01b03808316600483015291925090861690630a7ee8a090602401602060405180830381865afa158015610468573d6000803e3d6000fd5b505050506040513d601f19601f8201168201806040525081019061048c9190610f49565b6104a85760405162461bcd60e51b815260040161026d90610fc9565b505b60006104bd826103e560408b018b610efb565b90506104cc6020890189610e0f565b604051637df73e2760e01b81526001600160a01b0383811660048301529190911690637df73e2790602401602060405180830381865afa158015610514573d6000803e3d6000fd5b505050506040513d601f19601f820116820180604052508101906105389190610f49565b6105545760405162461bcd60e51b815260040161026d90611017565b5050505050505050565b60408051808201909152601a81527f78722e726567697374726174696f6e2e76312e73746f7261676500000000000060209091015260008060ff6105c360017f298bb06b387cf42ef0d699a946970827af7863e6cebf6ab1f9ef36af7a93116361105a565b6040516020016105d591815260200190565b60408051601f1981840301815291905280516020909101201692915050565b428160600135116106175760405162461bcd60e51b815260040161026d90610e9f565b600061062161055e565b9050600081816106346020860186610e0f565b6001600160a01b0390811682526020808301939093526040909101600090812080549094509091169161066990860186610e0f565b33606087013560c088013561068460a08a0160808b0161107b565b61069460c08b0160a08c0161107b565b604080516001600160a01b03978816602082015296909516948601949094526060850192909252608084015261ffff90811660a08401521660c082015260e00160408051601f19818403018152919052805160209182012091506000906106fd90870187610e0f565b604080516001600160a01b03909216602083015233908201526060808801359082015260800160408051808303601f19018152828252805160209182012081845283830190925290925060009190602082018180368337505060408051602080825281830190925292935060009291508082018180368337019050509050836020830152826020820152600061079283610990565b9050600061079f83610990565b90506107ae60208b018b610efb565b905060000361083b57866001600160a01b0316634f05c1c86040518163ffffffff1660e01b8152600401602060405180830381865afa1580156107f5573d6000803e3d6000fd5b505050506040513d601f19601f820116820180604052508101906108199190610f49565b156108365760405162461bcd60e51b815260040161026d90610f6b565b6108d9565b600061084e826103e560208e018e610efb565b6040516253f74560e51b81526001600160a01b03808316600483015291925090891690630a7ee8a090602401602060405180830381865afa158015610897573d6000803e3d6000fd5b505050506040513d601f19601f820116820180604052508101906108bb9190610f49565b6108d75760405162461bcd60e51b815260040161026d90610fc9565b505b60006108ec836103e560408e018e610efb565b90506108fb60208c018c610e0f565b604051637df73e2760e01b81526001600160a01b0383811660048301529190911690637df73e2790602401602060405180830381865afa158015610943573d6000803e3d6000fd5b505050506040513d601f19601f820116820180604052508101906109679190610f49565b6109835760405162461bcd60e51b815260040161026d90611017565b5050505050505050505050565b600061099c82516109f7565b826040516020016109ae929190611098565b604051602081830303815290604052805190602001209050919050565b6000806000806109db8686610a8a565b9250925092506109eb8282610ad7565b50909150505b92915050565b60606000610a0483610b94565b600101905060008167ffffffffffffffff811115610a2457610a24610ee5565b6040519080825280601f01601f191660200182016040528015610a4e576020820181803683370190505b5090508181016020015b600019016f181899199a1a9b1b9c1cb0b131b232b360811b600a86061a8153600a8504945084610a5857509392505050565b60008060008351604103610ac45760208401516040850151606086015160001a610ab688828585610c6c565b955095509550505050610ad0565b50508151600091506002905b9250925092565b6000826003811115610aeb57610aeb6110f3565b03610af4575050565b6001826003811115610b0857610b086110f3565b03610b265760405163f645eedf60e01b815260040160405180910390fd5b6002826003811115610b3a57610b3a6110f3565b03610b5b5760405163fce698f760e01b81526004810182905260240161026d565b6003826003811115610b6f57610b6f6110f3565b03610b90576040516335e2f38360e21b81526004810182905260240161026d565b5050565b60008072184f03e93ff9f4daa797ed6e38ed64bf6a1f0160401b8310610bd35772184f03e93ff9f4daa797ed6e38ed64bf6a1f0160401b830492506040015b6d04ee2d6d415b85acef81000000008310610bff576d04ee2d6d415b85acef8100000000830492506020015b662386f26fc100008310610c1d57662386f26fc10000830492506010015b6305f5e1008310610c35576305f5e100830492506008015b6127108310610c4957612710830492506004015b60648310610c5b576064830492506002015b600a83106109f15760010192915050565b600080807f7fffffffffffffffffffffffffffffff5d576e7357a4501ddfe92f46681b20a0841115610ca75750600091506003905082610d31565b604080516000808252602082018084528a905260ff891692820192909252606081018790526080810186905260019060a0016020604051602081039080840390855afa158015610cfb573d6000803e3d6000fd5b5050604051601f1901519150506001600160a01b038116610d2757506000925060019150829050610d31565b9250600091508190505b9450945094915050565b60005b83811015610d56578181015183820152602001610d3e565b50506000910152565b6020815260008251806020840152610d7e816040850160208701610d3b565b601f01601f19169190910160400192915050565b600060208284031215610da457600080fd5b813567ffffffffffffffff811115610dbb57600080fd5b820160808185031215610dcd57600080fd5b9392505050565b600060208284031215610de657600080fd5b813567ffffffffffffffff811115610dfd57600080fd5b820160e08185031215610dcd57600080fd5b600060208284031215610e2157600080fd5b81356001600160a01b0381168114610dcd57600080fd5b61ffff81168114610e4857600080fd5b50565b8135610e5681610e38565b61ffff8116905081548161ffff1982161783556020840135610e7781610e38565b63ffff00008160101b168363ffffffff19841617178455505050604082013560018201555050565b60208082526026908201527f5265676973747261723a206d6967726174696f6e207369676e617475726520656040820152651e1c1a5c995960d21b606082015260800190565b634e487b7160e01b600052604160045260246000fd5b6000808335601e19843603018112610f1257600080fd5b83018035915067ffffffffffffffff821115610f2d57600080fd5b602001915036819003821315610f4257600080fd5b9250929050565b600060208284031215610f5b57600080fd5b81518015158114610dcd57600080fd5b602080825260409082018190527f5265676973747261723a2063757272656e742072656769737472617220697320908201527f61637469766520627574206e6f207369676e61747572652070726f7669646564606082015260800190565b6020808252602e908201527f5265676973747261723a2063757272656e74207265676973747261722073696760408201526d1b985d1d5c99481a5b9d985b1a5960921b606082015260800190565b60208082526023908201527f5265676973747261723a20656e74697479207369676e617475726520696e76616040820152621b1a5960ea1b606082015260800190565b818103818111156109f157634e487b7160e01b600052601160045260246000fd5b60006020828403121561108d57600080fd5b8135610dcd81610e38565b7f19457468657265756d205369676e6564204d6573736167653a0a0000000000008152600083516110d081601a850160208801610d3b565b8351908301906110e781601a840160208801610d3b565b01601a01949350505050565b634e487b7160e01b600052602160045260246000fdfea264697066735822122006c85d92c3d87ce62873c4d339e330ce6dc4d163bfa599a27521cdc52d0799cb64736f6c63430008180033",
  "linkReferences": {},
  "deployedLinkReferences": {}
}