{
  "_format": "hh-sol-artifact-1",
  "contractName": "EntityRemovalModule",
  "sourceName": "contracts/modules/entity/removal/EntityRemovalModule.sol",
  "abi": [
    {
      "anonymous": false,
      "inputs": [
        {
          "indexed": true,
          "internalType": "address",
          "name": "entity",
          "type": "address"
        },
        {
          "indexed": true,
          "internalType": "address",
          "name": "by",
          "type": "address"
        }
      ],
      "name": "EntityRegistrationRenewed",
      "type": "event"
    },
    {
      "anonymous": false,
      "inputs": [
        {
          "indexed": true,
          "internalType": "address",
          "name": "entity",
          "type": "address"
        },
        {
          "indexed": false,
          "internalType": "string",
          "name": "reason",
          "type": "string"
        }
      ],
      "name": "RegistryDeactivatedEntity",
      "type": "event"
    },
    {
      "anonymous": false,
      "inputs": [
        {
          "indexed": true,
          "internalType": "address",
          "name": "entity",
          "type": "address"
        }
      ],
      "name": "RegistryEnforcedDeactivation",
      "type": "event"
    },
    {
      "anonymous": false,
      "inputs": [
        {
          "indexed": true,
          "internalType": "address",
          "name": "entity",
          "type": "address"
        }
      ],
      "name": "RegistryEnforcedRemoval",
      "type": "event"
    },
    {
      "anonymous": false,
      "inputs": [
        {
          "indexed": true,
          "internalType": "address",
          "name": "entity",
          "type": "address"
        }
      ],
      "name": "RegistryReactivatedEntity",
      "type": "event"
    },
    {
      "anonymous": false,
      "inputs": [
        {
          "indexed": true,
          "internalType": "address",
          "name": "entity",
          "type": "address"
        },
        {
          "indexed": false,
          "internalType": "string",
          "name": "reason",
          "type": "string"
        }
      ],
      "name": "RegistryRemovedEntity",
      "type": "event"
    },
    {
      "inputs": [
        {
          "internalType": "address",
          "name": "addr",
          "type": "address"
        }
      ],
      "name": "canBeDeactivated",
      "outputs": [
        {
          "internalType": "bool",
          "name": "",
          "type": "bool"
        }
      ],
      "stateMutability": "view",
      "type": "function"
    },
    {
      "inputs": [
        {
          "internalType": "address",
          "name": "addr",
          "type": "address"
        }
      ],
      "name": "canBeRemoved",
      "outputs": [
        {
          "internalType": "bool",
          "name": "",
          "type": "bool"
        }
      ],
      "stateMutability": "view",
      "type": "function"
    },
    {
      "inputs": [
        {
          "internalType": "contract IRemovableEntity",
          "name": "entity",
          "type": "address"
        },
        {
          "internalType": "string",
          "name": "reason",
          "type": "string"
        }
      ],
      "name": "deactivateEntity",
      "outputs": [],
      "stateMutability": "nonpayable",
      "type": "function"
    },
    {
      "inputs": [
        {
          "internalType": "contract IRemovableEntity",
          "name": "addr",
          "type": "address"
        }
      ],
      "name": "enforceDeactivation",
      "outputs": [],
      "stateMutability": "nonpayable",
      "type": "function"
    },
    {
      "inputs": [
        {
          "internalType": "contract IRemovableEntity",
          "name": "e",
          "type": "address"
        }
      ],
      "name": "enforceRemoval",
      "outputs": [],
      "stateMutability": "nonpayable",
      "type": "function"
    },
    {
      "inputs": [
        {
          "internalType": "address",
          "name": "addr",
          "type": "address"
        }
      ],
      "name": "getEntityTerms",
      "outputs": [
        {
          "components": [
            {
              "internalType": "uint16",
              "name": "coveragePeriodDays",
              "type": "uint16"
            },
            {
              "internalType": "uint16",
              "name": "gracePeriodDays",
              "type": "uint16"
            },
            {
              "internalType": "uint256",
              "name": "fee",
              "type": "uint256"
            }
          ],
          "internalType": "struct RegistrationTerms",
          "name": "",
          "type": "tuple"
        }
      ],
      "stateMutability": "view",
      "type": "function"
    },
    {
      "inputs": [
        {
          "internalType": "address",
          "name": "addr",
          "type": "address"
        }
      ],
      "name": "getExpiration",
      "outputs": [
        {
          "internalType": "uint256",
          "name": "",
          "type": "uint256"
        }
      ],
      "stateMutability": "view",
      "type": "function"
    },
    {
      "inputs": [
        {
          "internalType": "address",
          "name": "addr",
          "type": "address"
        }
      ],
      "name": "getLastRenewal",
      "outputs": [
        {
          "internalType": "uint256",
          "name": "",
          "type": "uint256"
        }
      ],
      "stateMutability": "view",
      "type": "function"
    },
    {
      "inputs": [
        {
          "internalType": "address",
          "name": "addr",
          "type": "address"
        }
      ],
      "name": "isExpired",
      "outputs": [
        {
          "internalType": "bool",
          "name": "",
          "type": "bool"
        }
      ],
      "stateMutability": "view",
      "type": "function"
    },
    {
      "inputs": [
        {
          "internalType": "address",
          "name": "addr",
          "type": "address"
        }
      ],
      "name": "isInGracePeriod",
      "outputs": [
        {
          "internalType": "bool",
          "name": "",
          "type": "bool"
        }
      ],
      "stateMutability": "view",
      "type": "function"
    },
    {
      "inputs": [],
      "name": "name",
      "outputs": [
        {
          "internalType": "string",
          "name": "",
          "type": "string"
        }
      ],
      "stateMutability": "view",
      "type": "function"
    },
    {
      "inputs": [
        {
          "internalType": "contract IRemovableEntity",
          "name": "entity",
          "type": "address"
        }
      ],
      "name": "reactivateEntity",
      "outputs": [],
      "stateMutability": "nonpayable",
      "type": "function"
    },
    {
      "inputs": [
        {
          "internalType": "contract IRemovableEntity",
          "name": "entity",
          "type": "address"
        },
        {
          "internalType": "string",
          "name": "reason",
          "type": "string"
        }
      ],
      "name": "removeEntity",
      "outputs": [],
      "stateMutability": "nonpayable",
      "type": "function"
    },
    {
      "inputs": [
        {
          "internalType": "address",
          "name": "addr",
          "type": "address"
        }
      ],
      "name": "renewEntity",
      "outputs": [],
      "stateMutability": "payable",
      "type": "function"
    },
    {
      "inputs": [],
      "name": "version",
      "outputs": [
        {
          "components": [
            {
              "internalType": "uint16",
              "name": "major",
              "type": "uint16"
            },
            {
              "internalType": "uint16",
              "name": "minor",
              "type": "uint16"
            }
          ],
          "internalType": "struct ModuleVersion",
          "name": "",
          "type": "tuple"
        }
      ],
      "stateMutability": "pure",
      "type": "function"
    }
  ],
  "bytecode": "0x608060405234801561001057600080fd5b506117b8806100206000396000f3fe6080604052600436106100e85760003560e01c8063693c79b21161008a578063ba2eb54111610059578063ba2eb541146102ca578063d6fbe020146102ea578063e2482bf9146102fd578063f82e2fb31461031d57600080fd5b8063693c79b21461023a578063a8c88c171461025a578063af08d53d1461028a578063b6db923d146102aa57600080fd5b80634ae134cc116100c65780634ae134cc1461017f5780634ec70a481461019f57806354fd4d50146101cd5780635726c94e1461021a57600080fd5b806301f24230146100ed578063033a5b601461010f57806306fdde031461012f575b600080fd5b3480156100f957600080fd5b5061010d61010836600461141b565b610368565b005b34801561011b57600080fd5b5061010d61012a36600461143f565b61059a565b34801561013b57600080fd5b506101696040518060400160405280600e81526020016d12515b9d1a5d1e54995b5bdd985b60921b81525081565b60405161017691906114e8565b60405180910390f35b34801561018b57600080fd5b5061010d61019a36600461141b565b610694565b3480156101ab57600080fd5b506101bf6101ba36600461141b565b6107f5565b604051908152602001610176565b3480156101d957600080fd5b50604080518082018252600080825260209182018190528251808401845260018082529083019182528351908152905161ffff169181019190915201610176565b34801561022657600080fd5b506101bf61023536600461141b565b610863565b34801561024657600080fd5b5061010d61025536600461141b565b610891565b34801561026657600080fd5b5061027a61027536600461141b565b61096f565b6040519015158152602001610176565b34801561029657600080fd5b5061010d6102a536600461143f565b6109fa565b3480156102b657600080fd5b5061027a6102c536600461141b565b610d14565b3480156102d657600080fd5b5061027a6102e536600461141b565b610dc5565b61010d6102f836600461141b565b610e35565b34801561030957600080fd5b5061027a61031836600461141b565b611189565b34801561032957600080fd5b5061033d61033836600461141b565b61123b565b60408051825161ffff9081168252602080850151909116908201529181015190820152606001610176565b806103728161096f565b6103d65760405162461bcd60e51b815260206004820152602a60248201527f5374617475734368616e6765734578743a20656e746974792063616e6e6f74206044820152691899481c995b5bdd995960b21b60648201526084015b60405180910390fd5b60006103e06112ae565b6040516380599e4b60e01b815260206004820152602860248201527f52656d6f76616c20656e666f726365642064756520746f207465726d732065786044820152673834b930ba34b7b760c11b60648201529091506001600160a01b038416906380599e4b90608401600060405180830381600087803b15801561046357600080fd5b505af1158015610477573d6000803e3d6000fd5b5050506001600160a01b0380841660009081526020849052604080822080546001600160a01b031916815560018101805463ffffffff191690556002810183905560038101839055600490810183905581516306fdde0360e01b81529151929450610532938816926306fdde0392808301928792918290030181865afa158015610505573d6000803e3d6000fd5b505050506040513d6000823e601f3d908101601f1916820160405261052d9190810190611531565b611344565b9050816002018160405161054691906115d3565b90815260405190819003602001812080546001600160a01b03191690556001600160a01b038416907f7e6cd5861b1d4fa3f22e1534c246a20812a09a8c06fa2caaacdc5e70e72c7bf690600090a250505050565b60006105a46112ae565b6001600160a01b0380861660009081526020839052604090208054929350911633146105e25760405162461bcd60e51b81526004016103cd906115ef565b426004808301919091556040516327ee999d60e01b81526001600160a01b038716916327ee999d9161061891889188910161164c565b600060405180830381600087803b15801561063257600080fd5b505af1158015610646573d6000803e3d6000fd5b50505050846001600160a01b03167fb75046c01c14bc7fe8ffdd7a34c4c308a3ddb6011b52a2ee88f5d4545e22ced8858560405161068592919061164c565b60405180910390a25050505050565b61069d81610d14565b6107005760405162461bcd60e51b815260206004820152602e60248201527f456e7469747952656d6f76616c4578743a20456e746974792063616e6e6f742060448201526d18994819195858dd1a5d985d195960921b60648201526084016103cd565b6040516327ee999d60e01b815260206004820152602d60248201527f446561637469766174696f6e20656e666f726365642064756520746f2074657260448201526c36b99032bc3834b930ba34b7b760991b60648201526001600160a01b038216906327ee999d90608401600060405180830381600087803b15801561078557600080fd5b505af1158015610799573d6000803e3d6000fd5b5050505060006107a76112ae565b6001600160a01b0383166000818152602083905260408082204260048201559051939450927f34aed9d8955237d766c06c12b28987720163d0a7655bca0e23f470ae6e2e51c79190a2505050565b6000806108006112ae565b6001600160a01b038416600090815260208290526040812060018101549293509161ffff169003610835575060009392505050565b600181015461084c90620151809061ffff16611691565b816003015461085b91906116ae565b949350505050565b60008061086e6112ae565b6001600160a01b0390931660009081526020939093525050604090206003015490565b600061089b6112ae565b6001600160a01b0380841660009081526020839052604090208054929350911633146108d95760405162461bcd60e51b81526004016103cd906115ef565b60008160040181905550826001600160a01b031663d18611d66040518163ffffffff1660e01b8152600401600060405180830381600087803b15801561091e57600080fd5b505af1158015610932573d6000803e3d6000fd5b50506040516001600160a01b03861692507f667d71bfa02caef2a7b621bfee70de813834529ef97b4fdcf65727d950a41a889150600090a2505050565b60008061097a6112ae565b6001600160a01b038416600090815260208290526040812060018101549293509161ffff1690036109af575060009392505050565b80600401546000036109c5575060009392505050565b60018101546000906109df90620151809061ffff16611691565b82600401546109ee91906116ae565b42101595945050505050565b6000610a046112ae565b6001600160a01b038086166000908152602083905260409020805492935091163314610a985760405162461bcd60e51b815260206004820152603f60248201527f456e7469747952656d6f76616c4578743a2063616c6c6572206973206e6f742060448201527f74686520656e74697479277320726567697374726174696f6e206f776e65720060648201526084016103cd565b6000816004015411610b125760405162461bcd60e51b815260206004820152603b60248201527f456e7469747952656d6f76616c4578743a20656e74697479206d75737420626560448201527f206465616374697661746564206265666f72652072656d6f76616c000000000060648201526084016103cd565b6001810154610b2f90620151809062010000900461ffff16611691565b8160040154610b3e91906116ae565b4211610bb25760405162461bcd60e51b815260206004820152603b60248201527f456e7469747952656d6f76616c4578743a20646561637469766174696f6e206760448201527f7261636520706572696f6420686173206e6f742065787069726564000000000060648201526084016103cd565b6040516380599e4b60e01b81526001600160a01b038616906380599e4b90610be0908790879060040161164c565b600060405180830381600087803b158015610bfa57600080fd5b505af1158015610c0e573d6000803e3d6000fd5b5050506001600160a01b03861660008181526020859052604080822080546001600160a01b031916815560018101805463ffffffff191690556002810183905560038101839055600490810183905581516306fdde0360e01b81529151929450610c9993926306fdde0392808301928792918290030181865afa158015610505573d6000803e3d6000fd5b90508260020181604051610cad91906115d3565b90815260405190819003602001812080546001600160a01b03191690556001600160a01b038716907f19befd85e4fafbc51c81f6553f2790c1845268610c5acdb88fb188dfc64319ad90610d04908890889061164c565b60405180910390a2505050505050565b600080610d1f6112ae565b6001600160a01b038416600090815260208290526040812060018101549293509161ffff169003610d54575060009392505050565b6001810154600090610d6e90620151809061ffff16611691565b8260030154610d7d91906116ae565b6001830154909150600090610da090620151809062010000900461ffff16611691565b610daa90836116ae565b9050814210158015610dbb57508042105b9695505050505050565b600080610dd06112ae565b6001600160a01b038416600090815260208290526040812060018101549293509161ffff169003610e05575060009392505050565b6001810154610e1c90620151809061ffff16611691565b8160030154610e2b91906116ae565b4211949350505050565b6000610e3f6112ae565b6001600160a01b038316600090815260208290526040902060018101549192509061ffff16610ec75760405162461bcd60e51b815260206004820152602e60248201527f52656e6577616c4578743a20456e7469747920646f6573206e6f74206861766560448201526d2072656e6577616c207465726d7360901b60648201526084016103cd565b805460408051634173b41760e01b815290516001600160a01b03909216916000918391634173b417916004808201926060929091908290030181865afa158015610f15573d6000803e3d6000fd5b505050506040513d601f19601f82011682018060405250810190610f3991906116d8565b90506000816020015161ffff161161101f5760405162461bcd60e51b815260206004820152609160248201527f52656e6577616c4578743a20526567697374726174696f6e207465726d73207260448201527f657175697265206120677261636520706572696f64206576656e207768656e2060648201527f6e6f20636f76657261676520706572696f64206578697374732e20546869732060848201527f697320746f2070726f7669646520612072656d6f76616c20677261636520706560a48201527072696f6420666f7220656e74697469657360781b60c482015260e4016103cd565b6040810151348111156110895760405162461bcd60e51b815260206004820152602c60248201527f52656e6577616c4578743a20496e73756666696369656e742066756e6473206660448201526b6f72206e6577207465726d7360a01b60648201526084016103cd565b8151600185018054602085015161ffff908116620100000263ffffffff19909216931692909217919091179055604082015160028501554260038501556000600485018190556110d98234611740565b9050801561111057604051339082156108fc029083906000818181858888f1935050505015801561110e573d6000803e3d6000fd5b505b84546040516001600160a01b039091169083156108fc029084906000818181858888f19350505050158015611149573d6000803e3d6000fd5b5060405133906001600160a01b038916907fa12a76e3489e01490944982156e006ccdf24101e35463342943c1b0d069ef07e90600090a350505050505050565b6000806111946112ae565b6001600160a01b038416600090815260208290526040812060018101549293509161ffff1690036111c9575060009392505050565b60018101546000906111e390620151809061ffff16611691565b82600301546111f291906116ae565b600183015490915060009061121590620151809062010000900461ffff16611691565b61121f90836116ae565b905042821080801561123057508142105b979650505050505050565b60408051606081018252600080825260208201819052918101829052906112606112ae565b6001600160a01b03909316600090815260209384526040908190208151606081018352600182015461ffff808216835262010000909104169581019590955260020154908401525090919050565b60408051808201909152601a81527f78722e726567697374726174696f6e2e76312e73746f7261676500000000000060209091015260008060ff61131360017f298bb06b387cf42ef0d699a946970827af7863e6cebf6ab1f9ef36af7a931163611740565b60405160200161132591815260200190565b60408051601f1981840301815291905280516020909101201692915050565b60608160005b81518110156113ad5761137c82828151811061136857611368611753565b01602001516001600160f81b0319166113b4565b82828151811061138e5761138e611753565b60200101906001600160f81b031916908160001a90535060010161134a565b5092915050565b6000604160f81b6001600160f81b03198316108015906113e25750602d60f91b6001600160f81b0319831611155b156113ff576113f660f883901c6020611769565b60f81b92915050565b5090565b6001600160a01b038116811461141857600080fd5b50565b60006020828403121561142d57600080fd5b813561143881611403565b9392505050565b60008060006040848603121561145457600080fd5b833561145f81611403565b9250602084013567ffffffffffffffff8082111561147c57600080fd5b818601915086601f83011261149057600080fd5b81358181111561149f57600080fd5b8760208285010111156114b157600080fd5b6020830194508093505050509250925092565b60005b838110156114df5781810151838201526020016114c7565b50506000910152565b60208152600082518060208401526115078160408501602087016114c4565b601f01601f19169190910160400192915050565b634e487b7160e01b600052604160045260246000fd5b60006020828403121561154357600080fd5b815167ffffffffffffffff8082111561155b57600080fd5b818401915084601f83011261156f57600080fd5b8151818111156115815761158161151b565b604051601f8201601f19908116603f011681019083821181831017156115a9576115a961151b565b816040528281528760208487010111156115c257600080fd5b6112308360208301602088016114c4565b600082516115e58184602087016114c4565b9190910192915050565b6020808252603c908201527f456e7469747952656d6f76616c3a2063616c6c6572206973206e6f742074686560408201527f20656e74697479277320726567697374726174696f6e206f776e657200000000606082015260800190565b60208152816020820152818360408301376000818301604090810191909152601f909201601f19160101919050565b634e487b7160e01b600052601160045260246000fd5b80820281158282048414176116a8576116a861167b565b92915050565b808201808211156116a8576116a861167b565b805161ffff811681146116d357600080fd5b919050565b6000606082840312156116ea57600080fd5b6040516060810181811067ffffffffffffffff8211171561170d5761170d61151b565b604052611719836116c1565b8152611727602084016116c1565b6020820152604083015160408201528091505092915050565b818103818111156116a8576116a861167b565b634e487b7160e01b600052603260045260246000fd5b60ff81811683821601908111156116a8576116a861167b56fea2646970667358221220c38a24a176f11eef7fefde6c936b55c2981bea076a608dfb2a6064d8a1b7fe8764736f6c63430008180033",
  "linkReferences": {},
  "deployedLinkReferences": {}
}