{
  "_format": "hh-sol-artifact-1",
  "contractName": "ExampleProxy",
  "sourceName": "contracts/example/ExampleProxy.sol",
  "abi": [
    {
      "inputs": [
        {
          "components": [
            {
              "internalType": "contract IModuleRegistry",
              "name": "moduleRegistry",
              "type": "address"
            },
            {
              "internalType": "address",
              "name": "owner",
              "type": "address"
            },
            {
              "internalType": "address[]",
              "name": "admins",
              "type": "address[]"
            }
          ],
          "internalType": "struct BaseProxyContstructorArgs",
          "name": "args",
          "type": "tuple"
        }
      ],
      "stateMutability": "nonpayable",
      "type": "constructor"
    },
    {
      "anonymous": false,
      "inputs": [
        {
          "indexed": true,
          "internalType": "address",
          "name": "newImpl",
          "type": "address"
        },
        {
          "components": [
            {
              "internalType": "uint16",
              "name": "major",
              "type": "uint16"
            },
            {
              "internalType": "uint16",
              "name": "minor",
              "type": "uint16"
            }
          ],
          "indexed": false,
          "internalType": "struct ModuleVersion",
          "name": "version",
          "type": "tuple"
        }
      ],
      "name": "ProxyImplementationChanged",
      "type": "event"
    },
    {
      "stateMutability": "nonpayable",
      "type": "fallback"
    },
    {
      "inputs": [],
      "name": "getModuleRegistry",
      "outputs": [
        {
          "internalType": "contract IModuleRegistry",
          "name": "",
          "type": "address"
        }
      ],
      "stateMutability": "view",
      "type": "function"
    },
    {
      "inputs": [],
      "name": "implementationVersion",
      "outputs": [
        {
          "components": [
            {
              "internalType": "uint16",
              "name": "major",
              "type": "uint16"
            },
            {
              "internalType": "uint16",
              "name": "minor",
              "type": "uint16"
            }
          ],
          "internalType": "struct ModuleVersion",
          "name": "",
          "type": "tuple"
        }
      ],
      "stateMutability": "view",
      "type": "function"
    },
    {
      "inputs": [],
      "name": "registry",
      "outputs": [
        {
          "internalType": "contract IModuleRegistry",
          "name": "",
          "type": "address"
        }
      ],
      "stateMutability": "view",
      "type": "function"
    },
    {
      "inputs": [
        {
          "internalType": "address",
          "name": "_newImplementation",
          "type": "address"
        }
      ],
      "name": "setImplementation",
      "outputs": [],
      "stateMutability": "nonpayable",
      "type": "function"
    },
    {
      "inputs": [
        {
          "internalType": "address",
          "name": "tgt",
          "type": "address"
        },
        {
          "internalType": "bytes",
          "name": "data",
          "type": "bytes"
        }
      ],
      "name": "staticLoop",
      "outputs": [
        {
          "internalType": "bytes",
          "name": "",
          "type": "bytes"
        }
      ],
      "stateMutability": "nonpayable",
      "type": "function"
    },
    {
      "stateMutability": "payable",
      "type": "receive"
    }
  ],
  "bytecode": "0x60a06040523480156200001157600080fd5b5060405162000b9738038062000b97833981016040819052620000349162000236565b805181906001600160a01b0316620000ad5760405162461bcd60e51b815260206004820152603160248201527f436f726550726f78793a206d6f64756c652072656769737472792063616e6e6f60448201527074206265207a65726f206164647265737360781b60648201526084015b60405180910390fd5b60208101516001600160a01b0316620001195760405162461bcd60e51b815260206004820152602760248201527f436f726550726f78793a206f776e65722063616e6e6f74206265207a65726f206044820152666164647265737360c81b6064820152608401620000a4565b80516001600160a01b031660808190526020820151604080840151905163c82909d760e01b815273__$a5a42e46683ad9c79b7b86d5ff60fdf4c1$__9363c82909d7936200016f9391929091906004016200034f565b60006040518083038186803b1580156200018857600080fd5b505af41580156200019d573d6000803e3d6000fd5b505050505050620003b6565b634e487b7160e01b600052604160045260246000fd5b604051606081016001600160401b0381118282101715620001e457620001e4620001a9565b60405290565b604051601f8201601f191681016001600160401b0381118282101715620002155762000215620001a9565b604052919050565b6001600160a01b03811681146200023357600080fd5b50565b600060208083850312156200024a57600080fd5b82516001600160401b03808211156200026257600080fd5b90840190606082870312156200027757600080fd5b62000281620001bf565b82516200028e816200021d565b8152828401516200029f816200021d565b81850152604083015182811115620002b657600080fd5b80840193505086601f840112620002cc57600080fd5b825182811115620002e157620002e1620001a9565b8060051b9250620002f4858401620001ea565b81815292840185019285810190898511156200030f57600080fd5b948601945b848610156200033d57855192506200032c836200021d565b828252948601949086019062000314565b60408401525090979650505050505050565b60006060820160018060a01b038087168452602081871660208601526060604086015282865180855260808701915060208801945060005b81811015620003a757855185168352948301949183019160010162000387565b50909998505050505050505050565b6080516107be620003d96000396000818161011c015261018501526107be6000f3fe60806040526004361061004e5760003560e01c806306bfcec6146100a157806310925940146100dd5780637b1039991461010a578063d784d42614610156578063edec79521461017657610055565b3661005557005b34801561006157600080fd5b50600061006c6101a9565b546040516001600160a01b03909116915036600082376000803683855af43d806000843e81801561009b578184f35b8184fd5b005b3480156100ad57600080fd5b506100b661023f565b60408051825161ffff90811682526020938401511692810192909252015b60405180910390f35b3480156100e957600080fd5b506100fd6100f83660046105bb565b610286565b6040516100d49190610661565b34801561011657600080fd5b5061013e7f000000000000000000000000000000000000000000000000000000000000000081565b6040516001600160a01b0390911681526020016100d4565b34801561016257600080fd5b5061009f6101713660046106b0565b610300565b34801561018257600080fd5b507f000000000000000000000000000000000000000000000000000000000000000061013e565b60408051808201909152601881527f78722e636f72652e70726f78792e73746f726167652e7631000000000000000060209091015260008060ff61020e60017fb1163b579b809663cc4ceb6dc6de3859bb0da0f6817cd88b9cc7dd85b2825f486106d2565b60405160200161022091815260200190565b60408051601f1981840301815291905280516020909101201692915050565b604080518082019091526000808252602082015261025b6101a9565b604080518082019091526001919091015461ffff808216835262010000909104166020820152919050565b60603330146102dc5760405162461bcd60e51b815260206004820152601e60248201527f456e7469747950726f78793a206f6e6c792073656c6620616c6c6f776564000060448201526064015b60405180910390fd5b600080835160208501865af43d604051816000823e8280156102fc578282f35b8282fd5b604051632474521560e21b81527f2172861495e7b85edac73e3cd5fbb42dd675baadf627720e687bcfdaca025096600482015233602482015273__$a5a42e46683ad9c79b7b86d5ff60fdf4c1$__906391d1485490604401602060405180830381865af4158015610375573d6000803e3d6000fd5b505050506040513d601f19601f8201168201806040525081019061039991906106f9565b6103e55760405162461bcd60e51b815260206004820152601f60248201527f456e7469747950726f78793a206f6e6c792061646d696e20616c6c6f7765640060448201526064016102d3565b6001600160a01b0381166104535760405162461bcd60e51b815260206004820152602f60248201527f456e7469747950726f78793a20696d706c656d656e746174696f6e206973207460448201526e6865207a65726f206164647265737360881b60648201526084016102d3565b600061045d6101a9565b80546001600160a01b0319166001600160a01b03841690811782556040805163054fd4d560e41b815281519394506000936354fd4d50926004808401939192918290030181865afa1580156104b6573d6000803e3d6000fd5b505050506040513d601f19601f820116820180604052508101906104da919061072d565b80516001840180546020808501805161ffff908116620100000263ffffffff1990941695811695861793909317909355604080519485529251909116908301529192506001600160a01b038516917f62856e62ea3f3cabc4ad2d32ac6d70e1f55ed589c915439c4dec9f5c729dd0f0910160405180910390a2505050565b80356001600160a01b038116811461056f57600080fd5b919050565b634e487b7160e01b600052604160045260246000fd5b604051601f8201601f1916810167ffffffffffffffff811182821017156105b3576105b3610574565b604052919050565b600080604083850312156105ce57600080fd5b6105d783610558565b915060208084013567ffffffffffffffff808211156105f557600080fd5b818601915086601f83011261060957600080fd5b81358181111561061b5761061b610574565b61062d601f8201601f1916850161058a565b9150808252878482850101111561064357600080fd5b80848401858401376000848284010152508093505050509250929050565b60006020808352835180602085015260005b8181101561068f57858101830151858201604001528201610673565b506000604082860101526040601f19601f8301168501019250505092915050565b6000602082840312156106c257600080fd5b6106cb82610558565b9392505050565b818103818111156106f357634e487b7160e01b600052601160045260246000fd5b92915050565b60006020828403121561070b57600080fd5b815180151581146106cb57600080fd5b805161ffff8116811461056f57600080fd5b60006040828403121561073f57600080fd5b6040516040810181811067ffffffffffffffff8211171561076257610762610574565b60405261076e8361071b565b815261077c6020840161071b565b6020820152939250505056fea264697066735822122004874050aa39eedc090e3c9d48ff1eb730f8aadc3e04e2a806ba6f65e953a6fd64736f6c63430008180033",
  "linkReferences": {
    "contracts/libraries/LibAccess.sol": {
      "LibAccess": [
        {
          "length": 20,
          "start": 322
        },
        {
          "length": 20,
          "start": 1812
        }
      ]
    }
  },
  "deployedLinkReferences": {
    "contracts/libraries/LibAccess.sol": {
      "LibAccess": [
        {
          "length": 20,
          "start": 827
        }
      ]
    }
  }
}