{
  "_format": "hh-sol-artifact-1",
  "contractName": "Example",
  "sourceName": "contracts/example/Example.sol",
  "abi": [
    {
      "inputs": [
        {
          "internalType": "contract IModuleRegistry",
          "name": "_registry",
          "type": "address"
        }
      ],
      "stateMutability": "nonpayable",
      "type": "constructor"
    },
    {
      "anonymous": false,
      "inputs": [
        {
          "indexed": true,
          "internalType": "uint16",
          "name": "major",
          "type": "uint16"
        },
        {
          "indexed": true,
          "internalType": "uint16",
          "name": "minor",
          "type": "uint16"
        }
      ],
      "name": "AppRollback",
      "type": "event"
    },
    {
      "anonymous": false,
      "inputs": [
        {
          "indexed": true,
          "internalType": "uint16",
          "name": "major",
          "type": "uint16"
        },
        {
          "indexed": true,
          "internalType": "uint16",
          "name": "minor",
          "type": "uint16"
        }
      ],
      "name": "AppUpgraded",
      "type": "event"
    },
    {
      "anonymous": false,
      "inputs": [
        {
          "indexed": true,
          "internalType": "address",
          "name": "module",
          "type": "address"
        },
        {
          "indexed": true,
          "internalType": "uint16",
          "name": "major",
          "type": "uint16"
        },
        {
          "indexed": true,
          "internalType": "uint16",
          "name": "minor",
          "type": "uint16"
        },
        {
          "indexed": false,
          "internalType": "string",
          "name": "name",
          "type": "string"
        }
      ],
      "name": "ModuleRolledBack",
      "type": "event"
    },
    {
      "anonymous": false,
      "inputs": [
        {
          "indexed": true,
          "internalType": "address",
          "name": "module",
          "type": "address"
        },
        {
          "indexed": true,
          "internalType": "uint16",
          "name": "major",
          "type": "uint16"
        },
        {
          "indexed": true,
          "internalType": "uint16",
          "name": "minor",
          "type": "uint16"
        },
        {
          "indexed": false,
          "internalType": "string",
          "name": "name",
          "type": "string"
        }
      ],
      "name": "ModuleUpgraded",
      "type": "event"
    },
    {
      "inputs": [
        {
          "internalType": "address[]",
          "name": "signers",
          "type": "address[]"
        }
      ],
      "name": "addSigners",
      "outputs": [],
      "stateMutability": "nonpayable",
      "type": "function"
    },
    {
      "inputs": [],
      "name": "getModuleRegistry",
      "outputs": [
        {
          "internalType": "contract IModuleRegistry",
          "name": "",
          "type": "address"
        }
      ],
      "stateMutability": "view",
      "type": "function"
    },
    {
      "inputs": [
        {
          "internalType": "address",
          "name": "account",
          "type": "address"
        }
      ],
      "name": "isOwner",
      "outputs": [
        {
          "internalType": "bool",
          "name": "",
          "type": "bool"
        }
      ],
      "stateMutability": "view",
      "type": "function"
    },
    {
      "inputs": [
        {
          "internalType": "address",
          "name": "a",
          "type": "address"
        }
      ],
      "name": "isSigner",
      "outputs": [
        {
          "internalType": "bool",
          "name": "",
          "type": "bool"
        }
      ],
      "stateMutability": "view",
      "type": "function"
    },
    {
      "inputs": [],
      "name": "owner",
      "outputs": [
        {
          "internalType": "address",
          "name": "",
          "type": "address"
        }
      ],
      "stateMutability": "view",
      "type": "function"
    },
    {
      "inputs": [],
      "name": "registry",
      "outputs": [
        {
          "internalType": "contract IModuleRegistry",
          "name": "",
          "type": "address"
        }
      ],
      "stateMutability": "view",
      "type": "function"
    },
    {
      "inputs": [],
      "name": "version",
      "outputs": [
        {
          "components": [
            {
              "internalType": "uint16",
              "name": "major",
              "type": "uint16"
            },
            {
              "internalType": "uint16",
              "name": "minor",
              "type": "uint16"
            }
          ],
          "internalType": "struct ModuleVersion",
          "name": "",
          "type": "tuple"
        }
      ],
      "stateMutability": "pure",
      "type": "function"
    },
    {
      "inputs": [
        {
          "internalType": "uint256",
          "name": "amount",
          "type": "uint256"
        }
      ],
      "name": "withdraw",
      "outputs": [],
      "stateMutability": "nonpayable",
      "type": "function"
    },
    {
      "stateMutability": "payable",
      "type": "receive"
    }
  ],
  "bytecode": "0x60a060405234801561001057600080fd5b506040516108cf3803806108cf83398101604081905261002f916100ab565b6001600160a01b03811661009a5760405162461bcd60e51b815260206004820152602860248201527f4578616d706c653a2072656769737472792063616e6e6f74206265207a65726f604482015267206164647265737360c01b606482015260840160405180910390fd5b6001600160a01b03166080526100db565b6000602082840312156100bd57600080fd5b81516001600160a01b03811681146100d457600080fd5b9392505050565b6080516107d26100fd6000396000818161014101526101df01526107d26000f3fe60806040526004361061007f5760003560e01c80637df73e271161004e5780637df73e271461017b5780638da5cb5b1461019b578063e8906a2d146101b0578063edec7952146101d057600080fd5b80632e1a7d4d1461008b5780632f54bf6e146100ad57806354fd4d50146100e25780637b1039991461012f57600080fd5b3661008657005b600080fd5b34801561009757600080fd5b506100ab6100a636600461064c565b610203565b005b3480156100b957600080fd5b506100cd6100c836600461067d565b610353565b60405190151581526020015b60405180910390f35b3480156100ee57600080fd5b50604080518082018252600080825260209182018190528251808401845260018082529083019182528351908152905161ffff1691810191909152016100d9565b34801561013b57600080fd5b506101637f000000000000000000000000000000000000000000000000000000000000000081565b6040516001600160a01b0390911681526020016100d9565b34801561018757600080fd5b506100cd61019636600461067d565b6103fe565b3480156101a757600080fd5b50610163610486565b3480156101bc57600080fd5b506100ab6101cb36600461069a565b6104fa565b3480156101dc57600080fd5b507f0000000000000000000000000000000000000000000000000000000000000000610163565b604051632474521560e21b81527f2172861495e7b85edac73e3cd5fbb42dd675baadf627720e687bcfdaca025096600482015233602482015273__$a5a42e46683ad9c79b7b86d5ff60fdf4c1$__906391d1485490604401602060405180830381865af4158015610278573d6000803e3d6000fd5b505050506040513d601f19601f8201168201806040525081019061029c919061070f565b6102ed5760405162461bcd60e51b815260206004820152601f60248201527f4578616d706c653a2063616c6c6572206973206e6f7420616e2061646d696e0060448201526064015b60405180910390fd5b604051632e1a7d4d60e01b81526004810182905273__$cb183d3fe110e97b3d919d8dcd9dc82049$__90632e1a7d4d9060240160006040518083038186803b15801561033857600080fd5b505af415801561034c573d6000803e3d6000fd5b5050505050565b604051632474521560e21b81527f2172861495e7b85edac73e3cd5fbb42dd675baadf627720e687bcfdaca02509660048201526001600160a01b038216602482015260009073__$a5a42e46683ad9c79b7b86d5ff60fdf4c1$__906391d1485490604401602060405180830381865af41580156103d4573d6000803e3d6000fd5b505050506040513d601f19601f820116820180604052508101906103f8919061070f565b92915050565b604051637df73e2760e01b81526001600160a01b0382166004820152600090819073__$a5a42e46683ad9c79b7b86d5ff60fdf4c1$__90637df73e2790602401602060405180830381865af415801561045b573d6000803e3d6000fd5b505050506040513d601f19601f8201168201806040525081019061047f919061070f565b9392505050565b600073__$a5a42e46683ad9c79b7b86d5ff60fdf4c1$__638da5cb5b6040518163ffffffff1660e01b8152600401602060405180830381865af41580156104d1573d6000803e3d6000fd5b505050506040513d601f19601f820116820180604052508101906104f59190610731565b905090565b604051632474521560e21b81527f2172861495e7b85edac73e3cd5fbb42dd675baadf627720e687bcfdaca025096600482015233602482015273__$a5a42e46683ad9c79b7b86d5ff60fdf4c1$__906391d1485490604401602060405180830381865af415801561056f573d6000803e3d6000fd5b505050506040513d601f19601f82011682018060405250810190610593919061070f565b6105df5760405162461bcd60e51b815260206004820152601f60248201527f4578616d706c653a2063616c6c6572206973206e6f7420616e2061646d696e0060448201526064016102e4565b60405163e8906a2d60e01b815273__$a5a42e46683ad9c79b7b86d5ff60fdf4c1$__9063e8906a2d90610618908590859060040161074e565b60006040518083038186803b15801561063057600080fd5b505af4158015610644573d6000803e3d6000fd5b505050505050565b60006020828403121561065e57600080fd5b5035919050565b6001600160a01b038116811461067a57600080fd5b50565b60006020828403121561068f57600080fd5b813561047f81610665565b600080602083850312156106ad57600080fd5b823567ffffffffffffffff808211156106c557600080fd5b818501915085601f8301126106d957600080fd5b8135818111156106e857600080fd5b8660208260051b85010111156106fd57600080fd5b60209290920196919550909350505050565b60006020828403121561072157600080fd5b8151801515811461047f57600080fd5b60006020828403121561074357600080fd5b815161047f81610665565b60208082528181018390526000908460408401835b8681101561079157823561077681610665565b6001600160a01b031682529183019190830190600101610763565b50969550505050505056fea264697066735822122036efd2752ac35a051c699fec6be35640bcf06d966591198535c5605360d5e39964736f6c63430008180033",
  "linkReferences": {
    "contracts/libraries/LibAccess.sol": {
      "LibAccess": [
        {
          "length": 20,
          "start": 827
        },
        {
          "length": 20,
          "start": 1175
        },
        {
          "length": 20,
          "start": 1310
        },
        {
          "length": 20,
          "start": 1415
        },
        {
          "length": 20,
          "start": 1586
        },
        {
          "length": 20,
          "start": 1771
        }
      ]
    },
    "contracts/libraries/LibFunds.sol": {
      "LibFunds": [
        {
          "length": 20,
          "start": 1024
        }
      ]
    }
  },
  "deployedLinkReferences": {
    "contracts/libraries/LibAccess.sol": {
      "LibAccess": [
        {
          "length": 20,
          "start": 574
        },
        {
          "length": 20,
          "start": 922
        },
        {
          "length": 20,
          "start": 1057
        },
        {
          "length": 20,
          "start": 1162
        },
        {
          "length": 20,
          "start": 1333
        },
        {
          "length": 20,
          "start": 1518
        }
      ]
    },
    "contracts/libraries/LibFunds.sol": {
      "LibFunds": [
        {
          "length": 20,
          "start": 771
        }
      ]
    }
  }
}