{
  "_format": "hh-sol-artifact-1",
  "contractName": "FundsModule",
  "sourceName": "contracts/modules/funds/FundsModule.sol",
  "abi": [
    {
      "inputs": [
        {
          "internalType": "address",
          "name": "_moduleRegistry",
          "type": "address"
        }
      ],
      "stateMutability": "nonpayable",
      "type": "constructor"
    },
    {
      "inputs": [],
      "name": "name",
      "outputs": [
        {
          "internalType": "string",
          "name": "",
          "type": "string"
        }
      ],
      "stateMutability": "view",
      "type": "function"
    },
    {
      "inputs": [],
      "name": "version",
      "outputs": [
        {
          "components": [
            {
              "internalType": "uint16",
              "name": "major",
              "type": "uint16"
            },
            {
              "internalType": "uint16",
              "name": "minor",
              "type": "uint16"
            }
          ],
          "internalType": "struct ModuleVersion",
          "name": "",
          "type": "tuple"
        }
      ],
      "stateMutability": "pure",
      "type": "function"
    },
    {
      "inputs": [
        {
          "internalType": "uint256",
          "name": "amount",
          "type": "uint256"
        }
      ],
      "name": "withdraw",
      "outputs": [],
      "stateMutability": "nonpayable",
      "type": "function"
    }
  ],
  "bytecode": "0x60a060405234801561001057600080fd5b5060405161042138038061042183398101604081905261002f916100c0565b6001600160a01b0381166100af5760405162461bcd60e51b815260206004820152603360248201527f46756e64734d6f64756c653a206d6f64756c652072656769737472792063616e60448201527f6e6f74206265207a65726f206164647265737300000000000000000000000000606482015260840160405180910390fd5b6001600160a01b03166080526100f0565b6000602082840312156100d257600080fd5b81516001600160a01b03811681146100e957600080fd5b9392505050565b608051610319610108600039600050506103196000f3fe608060405234801561001057600080fd5b50600436106100415760003560e01c806306fdde03146100465780632e1a7d4d1461008757806354fd4d501461009c575b600080fd5b6100716040518060400160405280600c81526020016b4946756e64734d6f64756c6560a01b81525081565b60405161007e919061024b565b60405180910390f35b61009a61009536600461029a565b6100dc565b005b604080518082018252600080825260209182018190528251808401845260018082529083019182528351908152905161ffff16918101919091520161007e565b600073__$a5a42e46683ad9c79b7b86d5ff60fdf4c1$__638da5cb5b6040518163ffffffff1660e01b8152600401602060405180830381865af4158015610127573d6000803e3d6000fd5b505050506040513d601f19601f8201168201806040525081019061014b91906102b3565b90506001600160a01b03811633146101b65760405162461bcd60e51b8152602060048201526024808201527f46756e64734d6f64756c653a2063616c6c6572206973206e6f7420746865206f6044820152633bb732b960e11b60648201526084015b60405180910390fd5b814710156102105760405162461bcd60e51b815260206004820152602160248201527f46756e64734d6f64756c653a20696e73756666696369656e742062616c616e636044820152606560f81b60648201526084016101ad565b6040516001600160a01b0382169083156108fc029084906000818181858888f19350505050158015610246573d6000803e3d6000fd5b505050565b60006020808352835180602085015260005b818110156102795785810183015185820160400152820161025d565b506000604082860101526040601f19601f8301168501019250505092915050565b6000602082840312156102ac57600080fd5b5035919050565b6000602082840312156102c557600080fd5b81516001600160a01b03811681146102dc57600080fd5b939250505056fea264697066735822122064bdd617386eff1427868eb4bb83f4fe2ffdb96da2a2b76ca5bcd73e44d63c3164736f6c63430008180033",
  "linkReferences": {
    "contracts/libraries/LibAccess.sol": {
      "LibAccess": [
        {
          "length": 20,
          "start": 488
        }
      ]
    }
  },
  "deployedLinkReferences": {
    "contracts/libraries/LibAccess.sol": {
      "LibAccess": [
        {
          "length": 20,
          "start": 224
        }
      ]
    }
  }
}