{
  "_format": "hh-sol-artifact-1",
  "contractName": "LibEntityRemoval",
  "sourceName": "contracts/libraries/registry/LibEntityRemoval.sol",
  "abi": [
    {
      "inputs": [
        {
          "internalType": "address",
          "name": "addr",
          "type": "address"
        }
      ],
      "name": "canBeDeactivated",
      "outputs": [
        {
          "internalType": "bool",
          "name": "",
          "type": "bool"
        }
      ],
      "stateMutability": "view",
      "type": "function"
    },
    {
      "inputs": [
        {
          "internalType": "address",
          "name": "addr",
          "type": "address"
        }
      ],
      "name": "canBeRemoved",
      "outputs": [
        {
          "internalType": "bool",
          "name": "",
          "type": "bool"
        }
      ],
      "stateMutability": "view",
      "type": "function"
    },
    {
      "inputs": [
        {
          "internalType": "address",
          "name": "addr",
          "type": "address"
        }
      ],
      "name": "getEntityTerms",
      "outputs": [
        {
          "components": [
            {
              "internalType": "uint16",
              "name": "coveragePeriodDays",
              "type": "uint16"
            },
            {
              "internalType": "uint16",
              "name": "gracePeriodDays",
              "type": "uint16"
            },
            {
              "internalType": "uint256",
              "name": "fee",
              "type": "uint256"
            }
          ],
          "internalType": "struct RegistrationTerms",
          "name": "",
          "type": "tuple"
        }
      ],
      "stateMutability": "view",
      "type": "function"
    },
    {
      "inputs": [
        {
          "internalType": "address",
          "name": "addr",
          "type": "address"
        }
      ],
      "name": "getExpiration",
      "outputs": [
        {
          "internalType": "uint256",
          "name": "",
          "type": "uint256"
        }
      ],
      "stateMutability": "view",
      "type": "function"
    },
    {
      "inputs": [
        {
          "internalType": "address",
          "name": "addr",
          "type": "address"
        }
      ],
      "name": "getLastRenewal",
      "outputs": [
        {
          "internalType": "uint256",
          "name": "",
          "type": "uint256"
        }
      ],
      "stateMutability": "view",
      "type": "function"
    },
    {
      "inputs": [
        {
          "internalType": "address",
          "name": "addr",
          "type": "address"
        }
      ],
      "name": "isExpired",
      "outputs": [
        {
          "internalType": "bool",
          "name": "",
          "type": "bool"
        }
      ],
      "stateMutability": "view",
      "type": "function"
    },
    {
      "inputs": [
        {
          "internalType": "address",
          "name": "addr",
          "type": "address"
        }
      ],
      "name": "isInGracePeriod",
      "outputs": [
        {
          "internalType": "bool",
          "name": "",
          "type": "bool"
        }
      ],
      "stateMutability": "view",
      "type": "function"
    }
  ],
  "bytecode": "0x610c9961003a600b82828239805160001a60731461002d57634e487b7160e01b600052600060045260246000fd5b30600052607381538281f3fe73000000000000000000000000000000000000000030146080604052600436106100d95760003560e01c8063ba2eb54111610096578063e2482bf911610070578063e2482bf9146101e2578063ede71a17146101f5578063f82e2fb314610215578063fc4469741461025357600080fd5b8063ba2eb5411461018f578063d33e700e146101a2578063d6fbe020146101c257600080fd5b806314a642e6146100de57806347ef5427146101005780634ec70a48146101205780635726c94e14610146578063a8c88c1714610159578063b6db923d1461017c575b600080fd5b8180156100ea57600080fd5b506100fe6100f936600461097a565b610273565b005b81801561010c57600080fd5b506100fe61011b36600461097a565b610362565b61013361012e36600461097a565b610395565b6040519081526020015b60405180910390f35b61013361015436600461097a565b6104a2565b61016c61016736600461097a565b6104d6565b604051901515815260200161013d565b61016c61018a36600461097a565b6105da565b61016c61019d36600461097a565b61060e565b8180156101ae57600080fd5b506100fe6101bd36600461097a565b610642565b8180156101ce57600080fd5b506100fe6101dd36600461097a565b610675565b61016c6101f036600461097a565b6106a8565b81801561020157600080fd5b506100fe61021036600461099e565b6106dc565b61022861022336600461097a565b6107ca565b60408051825161ffff908116825260208085015190911690820152918101519082015260600161013d565b81801561025f57600080fd5b506100fe61026e36600461099e565b6108ce565b600061027d6108f9565b6040516001600160a01b0384166024820152909150600090621f242360e41b906044015b60408051601f198184030181529181526020820180516001600160e01b03166001600160e01b031990941693909317909252905163357403db60e01b815290915073__$6dc8254553924b42d81e398d08547dd3f6$__9063357403db90610317906001600160a01b038616908590600401610a47565b600060405180830381865af4158015610334573d6000803e3d6000fd5b505050506040513d6000823e601f3d908101601f1916820160405261035c9190810190610a9f565b50505050565b600061036c6108f9565b6040516001600160a01b03841660248201529091506000906312b84d3360e21b906044016102a1565b6000806103a06108f9565b6040516001600160a01b03851660248201529091506000906309d8e14960e31b906044015b60408051601f198184030181529181526020820180516001600160e01b03166001600160e01b031990941693909317909252905163ab43549160e01b815290915060009073__$6dc8254553924b42d81e398d08547dd3f6$__9063ab4354919061043e906001600160a01b038716908690600401610a47565b600060405180830381865af415801561045b573d6000803e3d6000fd5b505050506040513d6000823e601f3d908101601f191682016040526104839190810190610a9f565b9050808060200190518101906104999190610b4c565b95945050505050565b6000806104ad6108f9565b6040516001600160a01b0385166024820152909150600090632b9364a760e11b906044016103c5565b6000806104e16108f9565b6040516001600160a01b038516602482015290915060009063a8c88c1760e01b906044015b60408051601f198184030181529181526020820180516001600160e01b03166001600160e01b031990941693909317909252905163ab43549160e01b815290915060009073__$6dc8254553924b42d81e398d08547dd3f6$__9063ab4354919061057f906001600160a01b038716908690600401610a47565b600060405180830381865af415801561059c573d6000803e3d6000fd5b505050506040513d6000823e601f3d908101601f191682016040526105c49190810190610a9f565b9050808060200190518101906104999190610b65565b6000806105e56108f9565b6040516001600160a01b038516602482015290915060009063b6db923d60e01b90604401610506565b6000806106196108f9565b6040516001600160a01b038516602482015290915060009063ba2eb54160e01b90604401610506565b600061064c6108f9565b6040516001600160a01b038416602482015290915060009063349e3cd960e11b906044016102a1565b600061067f6108f9565b6040516001600160a01b03841660248201529091506000906306b7df0160e51b906044016102a1565b6000806106b36108f9565b6040516001600160a01b038516602482015290915060009063e2482bf960e01b90604401610506565b60006106e66108f9565b9050600063033a5b6060e01b85858560405160240161070793929190610b87565b60408051601f198184030181529181526020820180516001600160e01b03166001600160e01b031990941693909317909252905163357403db60e01b815290915073__$6dc8254553924b42d81e398d08547dd3f6$__9063357403db9061077d906001600160a01b038616908590600401610a47565b600060405180830381865af415801561079a573d6000803e3d6000fd5b505050506040513d6000823e601f3d908101601f191682016040526107c29190810190610a9f565b505050505050565b60408051606081018252600080825260208201819052918101829052906107ef6108f9565b604080516001600160a01b0386811660248084019190915283518084039091018152604490920183526020820180516001600160e01b031663f82e2fb360e01b179052915163ab43549160e01b81529293509160009173__$6dc8254553924b42d81e398d08547dd3f6$__9163ab4354919161087391908716908690600401610a47565b600060405180830381865af4158015610890573d6000803e3d6000fd5b505050506040513d6000823e601f3d908101601f191682016040526108b89190810190610a9f565b9050808060200190518101906104999190610bde565b60006108d86108f9565b9050600063af08d53d60e01b85858560405160240161070793929190610b87565b6000306001600160a01b031663937d97026040518163ffffffff1660e01b8152600401602060405180830381865afa158015610939573d6000803e3d6000fd5b505050506040513d601f19601f8201168201806040525081019061095d9190610c46565b905090565b6001600160a01b038116811461097757600080fd5b50565b60006020828403121561098c57600080fd5b813561099781610962565b9392505050565b6000806000604084860312156109b357600080fd5b83356109be81610962565b9250602084013567ffffffffffffffff808211156109db57600080fd5b818601915086601f8301126109ef57600080fd5b8135818111156109fe57600080fd5b876020828501011115610a1057600080fd5b6020830194508093505050509250925092565b60005b83811015610a3e578181015183820152602001610a26565b50506000910152565b60018060a01b03831681526040602082015260008251806040840152610a74816060850160208701610a23565b601f01601f1916919091016060019392505050565b634e487b7160e01b600052604160045260246000fd5b600060208284031215610ab157600080fd5b815167ffffffffffffffff80821115610ac957600080fd5b818401915084601f830112610add57600080fd5b815181811115610aef57610aef610a89565b604051601f8201601f19908116603f01168101908382118183101715610b1757610b17610a89565b81604052828152876020848701011115610b3057600080fd5b610b41836020830160208801610a23565b979650505050505050565b600060208284031215610b5e57600080fd5b5051919050565b600060208284031215610b7757600080fd5b8151801515811461099757600080fd5b6001600160a01b03841681526040602082018190528101829052818360608301376000818301606090810191909152601f909201601f1916010192915050565b805161ffff81168114610bd957600080fd5b919050565b600060608284031215610bf057600080fd5b6040516060810181811067ffffffffffffffff82111715610c1357610c13610a89565b604052610c1f83610bc7565b8152610c2d60208401610bc7565b6020820152604083015160408201528091505092915050565b600060208284031215610c5857600080fd5b81516109978161096256fea26469706673582212207456ef4e107f47f1840b2bf9f923b1303506ef427c074bbf2629b8727f6b477264736f6c63430008180033",
  "linkReferences": {
    "contracts/core/LibDelegation.sol": {
      "LibDelegation": [
        {
          "length": 20,
          "start": 798
        },
        {
          "length": 20,
          "start": 1093
        },
        {
          "length": 20,
          "start": 1414
        },
        {
          "length": 20,
          "start": 1924
        },
        {
          "length": 20,
          "start": 2177
        }
      ]
    }
  },
  "deployedLinkReferences": {
    "contracts/core/LibDelegation.sol": {
      "LibDelegation": [
        {
          "length": 20,
          "start": 740
        },
        {
          "length": 20,
          "start": 1035
        },
        {
          "length": 20,
          "start": 1356
        },
        {
          "length": 20,
          "start": 1866
        },
        {
          "length": 20,
          "start": 2119
        }
      ]
    }
  }
}