{
  "_format": "hh-sol-artifact-1",
  "contractName": "SharedLibEntityFactory",
  "sourceName": "contracts/shared-libs/SharedLibEntityFactory.sol",
  "abi": [
    {
      "anonymous": false,
      "inputs": [
        {
          "indexed": true,
          "internalType": "address",
          "name": "registry",
          "type": "address"
        }
      ],
      "name": "FactoryAuthorizedRegistryChanged",
      "type": "event"
    },
    {
      "anonymous": false,
      "inputs": [
        {
          "indexed": true,
          "internalType": "address",
          "name": "newImpl",
          "type": "address"
        },
        {
          "components": [
            {
              "internalType": "uint16",
              "name": "major",
              "type": "uint16"
            },
            {
              "internalType": "uint16",
              "name": "minor",
              "type": "uint16"
            }
          ],
          "indexed": false,
          "internalType": "struct ModuleVersion",
          "name": "version",
          "type": "tuple"
        }
      ],
      "name": "FactoryImplementationChanged",
      "type": "event"
    },
    {
      "anonymous": false,
      "inputs": [
        {
          "indexed": true,
          "internalType": "address",
          "name": "newImpl",
          "type": "address"
        }
      ],
      "name": "FactoryProxyImplementationChanged",
      "type": "event"
    },
    {
      "inputs": [],
      "name": "currentImplVersion",
      "outputs": [
        {
          "components": [
            {
              "internalType": "uint16",
              "name": "major",
              "type": "uint16"
            },
            {
              "internalType": "uint16",
              "name": "minor",
              "type": "uint16"
            }
          ],
          "internalType": "struct ModuleVersion",
          "name": "",
          "type": "tuple"
        }
      ],
      "stateMutability": "view",
      "type": "function"
    },
    {
      "inputs": [],
      "name": "getImplementation",
      "outputs": [
        {
          "internalType": "address",
          "name": "",
          "type": "address"
        }
      ],
      "stateMutability": "view",
      "type": "function"
    }
  ],
  "bytecode": "0x6105c361003a600b82828239805160001a60731461002d57634e487b7160e01b600052600060045260246000fd5b30600052607381538281f3fe73000000000000000000000000000000000000000030146080604052600436106100615760003560e01c8063090741a0146100665780639fdcd3a414610088578063aaf10f42146100a8578063d0825a40146100cd578063d784d426146100e2575b600080fd5b81801561007257600080fd5b50610086610081366004610497565b610102565b005b81801561009457600080fd5b506100866100a3366004610497565b610158565b6100b061022f565b6040516001600160a01b0390911681526020015b60405180910390f35b6100d5610248565b6040516100c491906104c7565b8180156100ee57600080fd5b506100866100fd366004610497565b61028f565b8061010b610401565b60030180546001600160a01b0319166001600160a01b03928316179055604051908216907fad0dfe0fda258f94a82030e324cf394efbbbd24d325b18fa4ec97de8bd4ddbe390600090a250565b6001600160a01b0381166101d95760405162461bcd60e51b815260206004820152603a60248201527f456e74697479466163746f72793a2070726f787920696d706c656d656e74617460448201527f696f6e2063616e6e6f74206265207a65726f206164647265737300000000000060648201526084015b60405180910390fd5b806101e2610401565b60020180546001600160a01b0319166001600160a01b03928316179055604051908216907f991c4b332a60195e524c352f317b88fad3ed04c18e3dbe71f556c4decf821e7390600090a250565b6000610239610401565b546001600160a01b0316919050565b6040805180820190915260008082526020820152610264610401565b604080518082019091526001919091015461ffff808216835262010000909104166020820152919050565b6001600160a01b0381166103025760405162461bcd60e51b815260206004820152603460248201527f456e74697479466163746f72793a20696d706c656d656e746174696f6e2063616044820152736e6e6f74206265207a65726f206164647265737360601b60648201526084016101d0565b600061030c610401565b80546001600160a01b0319166001600160a01b03841690811782556040805163054fd4d560e41b815281519394506000936354fd4d50926004808401939192918290030181865afa158015610365573d6000803e3d6000fd5b505050506040513d601f19601f820116820180604052508101906103899190610503565b8051600184018054602084015161ffff908116620100000263ffffffff199092169316929092179190911790556040519091506001600160a01b038416907f0c20d59c7000776631094c0c82c594445eea20883b1be077d60cbf4ec4114e16906103f49084906104c7565b60405180910390a2505050565b60408051808201909152601c81527f78722e656e746974792e666163746f72792e73746f726167652e76310000000060209091015260008060ff61046660017f8b4ac7cd4466ab0d50fe53a88c5446ca4a450d482bef9ad792e7d9f451497e0f61056c565b60405160200161047891815260200190565b60408051601f1981840301815291905280516020909101201692915050565b6000602082840312156104a957600080fd5b81356001600160a01b03811681146104c057600080fd5b9392505050565b604081016104e68284805161ffff908116835260209182015116910152565b92915050565b805161ffff811681146104fe57600080fd5b919050565b60006040828403121561051557600080fd5b6040516040810181811067ffffffffffffffff8211171561054657634e487b7160e01b600052604160045260246000fd5b604052610552836104ec565b8152610560602084016104ec565b60208201529392505050565b818103818111156104e657634e487b7160e01b600052601160045260246000fdfea2646970667358221220c6cd7b5fae18642d1b97ba4f70081581d58f17e755ce34d61f708a9fe4a8e51964736f6c63430008180033",
  "linkReferences": {},
  "deployedLinkReferences": {}
}