{
  "_format": "hh-sol-artifact-1",
  "contractName": "LibRegistration",
  "sourceName": "contracts/libraries/registry/LibRegistration.sol",
  "abi": [
    {
      "inputs": [
        {
          "internalType": "string",
          "name": "name",
          "type": "string"
        }
      ],
      "name": "getEntityByName",
      "outputs": [
        {
          "internalType": "address",
          "name": "",
          "type": "address"
        }
      ],
      "stateMutability": "view",
      "type": "function"
    },
    {
      "inputs": [
        {
          "internalType": "address",
          "name": "addr",
          "type": "address"
        }
      ],
      "name": "isRegistered",
      "outputs": [
        {
          "internalType": "bool",
          "name": "",
          "type": "bool"
        }
      ],
      "stateMutability": "view",
      "type": "function"
    }
  ],
  "bytecode": "0x610a1b61003a600b82828239805160001a60731461002d57634e487b7160e01b600052600060045260246000fd5b30600052607381538281f3fe730000000000000000000000000000000000000000301460806040526004361061006c5760003560e01c80633e88a4e214610071578063a1a8a1c6146100a1578063a5c77532146100c3578063bca13f70146100e3578063c3c5a54714610103578063ffdf9f6814610126575b600080fd5b61008461007f3660046105eb565b610146565b6040516001600160a01b0390911681526020015b60405180910390f35b8180156100ad57600080fd5b506100c16100bc366004610675565b61024e565b005b8180156100cf57600080fd5b506100c16100de3660046106b1565b61033e565b8180156100ef57600080fd5b506100c16100fe3660046106e7565b610428565b610116610111366004610675565b61044f565b6040519015158152602001610098565b81801561013257600080fd5b506100c161014136600461073b565b610542565b600080610151610582565b90506000633e88a4e260e01b8585604051602401610170929190610790565b60408051601f198184030181529181526020820180516001600160e01b03166001600160e01b031990941693909317909252905163ab43549160e01b815290915060009073__$6dc8254553924b42d81e398d08547dd3f6$__9063ab435491906101e9906001600160a01b0387169086906004016107c8565b600060405180830381865af4158015610206573d6000803e3d6000fd5b505050506040513d6000823e601f3d908101601f1916820160405261022e9190810190610820565b90508080602001905181019061024491906108cd565b9695505050505050565b6000610258610582565b6040516001600160a01b03841660248201529091506000906350d450e360e11b906044015b60408051601f198184030181529181526020820180516001600160e01b03166001600160e01b031990941693909317909252905163357403db60e01b815290915073__$6dc8254553924b42d81e398d08547dd3f6$__9063357403db906102f3906001600160a01b0386169085906004016107c8565b600060405180830381865af4158015610310573d6000803e3d6000fd5b505050506040513d6000823e601f3d908101601f191682016040526103389190810190610820565b50505050565b6000610348610582565b905060006291281f60e01b84846040516024016103669291906108ea565b60408051601f198184030181529181526020820180516001600160e01b03166001600160e01b031990941693909317909252905163357403db60e01b815290915073__$6dc8254553924b42d81e398d08547dd3f6$__9063357403db906103dc906001600160a01b0386169085906004016107c8565b600060405180830381865af41580156103f9573d6000803e3d6000fd5b505050506040513d6000823e601f3d908101601f191682016040526104219190810190610820565b5050505050565b6000610432610582565b9050600063cc437f3d60e01b8360405160240161027d9190610932565b60008061045a610582565b604080516001600160a01b0386811660248084019190915283518084039091018152604490920183526020820180516001600160e01b031663c3c5a54760e01b179052915163ab43549160e01b81529293509160009173__$6dc8254553924b42d81e398d08547dd3f6$__9163ab435491916104de919087169086906004016107c8565b600060405180830381865af41580156104fb573d6000803e3d6000fd5b505050506040513d6000823e601f3d908101601f191682016040526105239190810190610820565b90508080602001905181019061053991906109c3565b95945050505050565b600061054c610582565b6040516001600160a01b038516602482015261ffff84166044820152909150600090600162040c1360e31b031990606401610366565b6000306001600160a01b031663443bd1d06040518163ffffffff1660e01b8152600401602060405180830381865afa1580156105c2573d6000803e3d6000fd5b505050506040513d601f19601f820116820180604052508101906105e691906108cd565b905090565b600080602083850312156105fe57600080fd5b823567ffffffffffffffff8082111561061657600080fd5b818501915085601f83011261062a57600080fd5b81358181111561063957600080fd5b86602082850101111561064b57600080fd5b60209290920196919550909350505050565b6001600160a01b038116811461067257600080fd5b50565b60006020828403121561068757600080fd5b81356106928161065d565b9392505050565b6000606082840312156106ab57600080fd5b50919050565b600080608083850312156106c457600080fd5b82356106cf8161065d565b91506106de8460208501610699565b90509250929050565b6000602082840312156106f957600080fd5b813567ffffffffffffffff81111561071057600080fd5b61071c84828501610699565b949350505050565b803561ffff8116811461073657600080fd5b919050565b6000806040838503121561074e57600080fd5b82356107598161065d565b91506106de60208401610724565b81835281816020850137506000828201602090810191909152601f909101601f19169091010190565b60208152600061071c602083018486610767565b60005b838110156107bf5781810151838201526020016107a7565b50506000910152565b60018060a01b038316815260406020820152600082518060408401526107f58160608501602087016107a4565b601f01601f1916919091016060019392505050565b634e487b7160e01b600052604160045260246000fd5b60006020828403121561083257600080fd5b815167ffffffffffffffff8082111561084a57600080fd5b818401915084601f83011261085e57600080fd5b8151818111156108705761087061080a565b604051601f8201601f19908116603f011681019083821181831017156108985761089861080a565b816040528281528760208487010111156108b157600080fd5b6108c28360208301602088016107a4565b979650505050505050565b6000602082840312156108df57600080fd5b81516106928161065d565b6001600160a01b03831681526080810161ffff8061090785610724565b1660208401528061091a60208601610724565b16604084015250604083013560608301529392505050565b60208152600082356109438161065d565b6001600160a01b031660208381019190915283013536849003601e1901811261096b57600080fd5b830160208101903567ffffffffffffffff81111561098857600080fd5b80360382131561099757600080fd5b606060408501526109ac608085018284610767565b915050604084013560608401528091505092915050565b6000602082840312156109d557600080fd5b8151801515811461069257600080fdfea264697066735822122070b8a54df86840f56ed62a1da867bdea1db6fd408fee9cbc883d1ddadeeac88164736f6c63430008180033",
  "linkReferences": {
    "contracts/core/LibDelegation.sol": {
      "LibDelegation": [
        {
          "length": 20,
          "start": 496
        },
        {
          "length": 20,
          "start": 762
        },
        {
          "length": 20,
          "start": 995
        },
        {
          "length": 20,
          "start": 1260
        }
      ]
    }
  },
  "deployedLinkReferences": {
    "contracts/core/LibDelegation.sol": {
      "LibDelegation": [
        {
          "length": 20,
          "start": 438
        },
        {
          "length": 20,
          "start": 704
        },
        {
          "length": 20,
          "start": 937
        },
        {
          "length": 20,
          "start": 1202
        }
      ]
    }
  }
}