{
  "_format": "hh-sol-artifact-1",
  "contractName": "SharedLibAccess",
  "sourceName": "contracts/shared-libs/SharedLibAccess.sol",
  "abi": [
    {
      "inputs": [
        {
          "internalType": "bytes32",
          "name": "role",
          "type": "bytes32"
        },
        {
          "internalType": "address",
          "name": "account",
          "type": "address"
        }
      ],
      "name": "hasRole",
      "outputs": [
        {
          "internalType": "bool",
          "name": "",
          "type": "bool"
        }
      ],
      "stateMutability": "view",
      "type": "function"
    },
    {
      "inputs": [
        {
          "internalType": "address",
          "name": "a",
          "type": "address"
        }
      ],
      "name": "isSigner",
      "outputs": [
        {
          "internalType": "bool",
          "name": "",
          "type": "bool"
        }
      ],
      "stateMutability": "view",
      "type": "function"
    },
    {
      "inputs": [],
      "name": "owner",
      "outputs": [
        {
          "internalType": "address",
          "name": "",
          "type": "address"
        }
      ],
      "stateMutability": "view",
      "type": "function"
    }
  ],
  "bytecode": "0x610c1e61003a600b82828239805160001a60731461002d57634e487b7160e01b600052600060045260246000fd5b30600052607381538281f3fe730000000000000000000000000000000000000000301460806040526004361061009d5760003560e01c80638da5cb5b116100705780638da5cb5b1461012c57806391d148541461014c578063d547741f1461015f578063d9ac971f1461017f578063e8906a2d1461019f57600080fd5b806313af4035146100a25780632f2ff15d146100c45780637df73e27146100e45780638d361e431461010c575b600080fd5b8180156100ae57600080fd5b506100c26100bd366004610a82565b6101bf565b005b8180156100d057600080fd5b506100c26100df366004610aa4565b6102e1565b6100f76100f2366004610a82565b610391565b60405190151581526020015b60405180910390f35b81801561011857600080fd5b506100c2610127366004610b1c565b6103ef565b610134610530565b6040516001600160a01b039091168152602001610103565b6100f761015a366004610aa4565b61054b565b81801561016b57600080fd5b506100c261017a366004610aa4565b610589565b81801561018b57600080fd5b506100c261019a366004610b5e565b610634565b8180156101ab57600080fd5b506100c26101ba366004610b1c565b61089f565b6001600160a01b0381166102325760405162461bcd60e51b815260206004820152602f60248201527f416363657373436f6e74726f6c3a2063616e6e6f7420736574206f776e65722060448201526e746f207a65726f206164647265737360881b60648201526084015b60405180910390fd5b600061023c6109d9565b80546001600160a01b039093166001600160a01b0319909316831781557f9f4e1c871d5fdd0aee1cd182666698a4492b24c6832aac230d07b11046af5a8960009081526001918201602081815260408084208785528252808420805460ff1990811687179091557f2172861495e7b85edac73e3cd5fbb42dd675baadf627720e687bcfdaca025096855292825280842096845295905293902080549093161790915550565b6001600160a01b0381166103505760405162461bcd60e51b815260206004820152603060248201527f416363657373436f6e74726f6c3a2063616e6e6f74206772616e7420726f6c6560448201526f20746f207a65726f206164647265737360801b6064820152608401610229565b600061035a6109d9565b60009384526001908101602090815260408086206001600160a01b0395909516865293905291909220805460ff1916909117905550565b60008061039c6109d9565b7f749410edf1177aefa27612b24d2d51e6441f89613f5ddf9be1d11dfc0d3e4fea60009081526001909101602090815260408083206001600160a01b039096168352949052929092205460ff1692915050565b60006103f96109d9565b905060005b8281101561052a57600084848381811061041a5761041a610bb1565b905060200201602081019061042f9190610a82565b6001600160a01b0316036104a15760405162461bcd60e51b815260206004820152603360248201527f5368617265644c69624163636573733a2063616e6e6f742072656d6f7665207a60448201527265726f2061646472657373207369676e65727360681b6064820152608401610229565b7f749410edf1177aefa27612b24d2d51e6441f89613f5ddf9be1d11dfc0d3e4fea60009081526001830160205260408120818686858181106104e5576104e5610bb1565b90506020020160208101906104fa9190610a82565b6001600160a01b031681526020810191909152604001600020805460ff19169115159190911790556001016103fe565b50505050565b60008061053b6109d9565b546001600160a01b031692915050565b6000806105566109d9565b60008581526001909101602090815260408083206001600160a01b038716845290915290205460ff169150505b92915050565b6001600160a01b0381166105fb5760405162461bcd60e51b815260206004820152603360248201527f416363657373436f6e74726f6c3a2063616e6e6f74207265766f6b6520726f6c604482015272652066726f6d207a65726f206164647265737360681b6064820152608401610229565b60006106056109d9565b6000938452600101602090815260408085206001600160a01b039094168552929052509020805460ff19169055565b600061063e6109d9565b80549091506001600160a01b03161561068f5760405162461bcd60e51b8152602060048201526013602482015272105b1c9958591e481a5b9a5d1a585b1a5e9959606a1b6044820152606401610229565b6001600160a01b0384166106e55760405162461bcd60e51b815260206004820152601c60248201527f4f776e65722063616e6e6f74206265207a65726f2061646472657373000000006044820152606401610229565b80546001600160a01b0319166001600160a01b03851690811782557f9f4e1c871d5fdd0aee1cd182666698a4492b24c6832aac230d07b11046af5a8960009081526001808401602081815260408085208686528252808520805460ff1990811686179091557f2172861495e7b85edac73e3cd5fbb42dd675baadf627720e687bcfdaca02509686529282528085209585529490529282208054909316179091555b828110156108985760008484838181106107a2576107a2610bb1565b90506020020160208101906107b79190610a82565b6001600160a01b03160361080d5760405162461bcd60e51b815260206004820152601d60248201527f41646d696e732063616e6e6f74206265207a65726f20616464726573730000006044820152606401610229565b7f2172861495e7b85edac73e3cd5fbb42dd675baadf627720e687bcfdaca0250966000908152600183810160205260408220909186868581811061085357610853610bb1565b90506020020160208101906108689190610a82565b6001600160a01b031681526020810191909152604001600020805460ff1916911515919091179055600101610786565b5050505050565b60006108a96109d9565b905060005b8281101561052a5760008484838181106108ca576108ca610bb1565b90506020020160208101906108df9190610a82565b6001600160a01b03160361094e5760405162461bcd60e51b815260206004820152603060248201527f5368617265644c69624163636573733a2063616e6e6f7420616464207a65726f60448201526f2061646472657373207369676e65727360801b6064820152608401610229565b7f749410edf1177aefa27612b24d2d51e6441f89613f5ddf9be1d11dfc0d3e4fea6000908152600183810160205260408220909186868581811061099457610994610bb1565b90506020020160208101906109a99190610a82565b6001600160a01b031681526020810191909152604001600020805460ff19169115159190911790556001016108ae565b60408051808201909152601481527378722e6163636573732e73746f726167652e763160601b60209091015260008060ff610a3560017fd870894b15ee1369a593f3670ac51c4ed8201dab473944ee712694d327dd5875610bc7565b604051602001610a4791815260200190565b60408051601f1981840301815291905280516020909101201692915050565b80356001600160a01b0381168114610a7d57600080fd5b919050565b600060208284031215610a9457600080fd5b610a9d82610a66565b9392505050565b60008060408385031215610ab757600080fd5b82359150610ac760208401610a66565b90509250929050565b60008083601f840112610ae257600080fd5b50813567ffffffffffffffff811115610afa57600080fd5b6020830191508360208260051b8501011115610b1557600080fd5b9250929050565b60008060208385031215610b2f57600080fd5b823567ffffffffffffffff811115610b4657600080fd5b610b5285828601610ad0565b90969095509350505050565b600080600060408486031215610b7357600080fd5b610b7c84610a66565b9250602084013567ffffffffffffffff811115610b9857600080fd5b610ba486828701610ad0565b9497909650939450505050565b634e487b7160e01b600052603260045260246000fd5b8181038181111561058357634e487b7160e01b600052601160045260246000fdfea26469706673582212205d9bb9dfabae973c545babbec124b1c8173310a74345214e9533cbf8601c6f8d64736f6c63430008180033",
  "linkReferences": {},
  "deployedLinkReferences": {}
}