{
  "_format": "hh-sol-artifact-1",
  "contractName": "LibDelegation",
  "sourceName": "contracts/core/LibDelegation.sol",
  "abi": [
    {
      "inputs": [
        {
          "internalType": "address",
          "name": "tgt",
          "type": "address"
        },
        {
          "internalType": "bytes",
          "name": "data",
          "type": "bytes"
        }
      ],
      "name": "sCall",
      "outputs": [
        {
          "internalType": "bytes",
          "name": "",
          "type": "bytes"
        }
      ],
      "stateMutability": "view",
      "type": "function"
    }
  ],
  "bytecode": "0x6103f461003a600b82828239805160001a60731461002d57634e487b7160e01b600052600060045260246000fd5b30600052607381538281f3fe73000000000000000000000000000000000000000030146080604052600436106100405760003560e01c8063357403db14610045578063ab4354911461007b575b600080fd5b81801561005157600080fd5b50610065610060366004610243565b61008e565b6040516100729190610363565b60405180910390f35b610065610089366004610243565b6100a3565b606061009a83836101bc565b90505b92915050565b60606000631092594060e01b84846040516024016100c2929190610376565b604051602081830303815290604052906001600160e01b0319166020820180516001600160e01b0383818316178352505050509050600080306001600160a01b03168360405161011291906103a2565b600060405180830381855afa9150503d806000811461014d576040519150601f19603f3d011682016040523d82523d6000602084013e610152565b606091505b5091509150811561016757925061009d915050565b8051156101775780518082602001fd5b60405162461bcd60e51b8152602060048201526016602482015275119d5b98dd1a5bdb8818d85b1b081c995d995c9d195960521b604482015260640160405180910390fd5b6060600080846001600160a01b0316846040516101d991906103a2565b600060405180830381855af49150503d8060008114610214576040519150601f19603f3d011682016040523d82523d6000602084013e610219565b606091505b5091509150811561016757915061009d9050565b634e487b7160e01b600052604160045260246000fd5b6000806040838503121561025657600080fd5b82356001600160a01b038116811461026d57600080fd5b9150602083013567ffffffffffffffff8082111561028a57600080fd5b818501915085601f83011261029e57600080fd5b8135818111156102b0576102b061022d565b604051601f8201601f19908116603f011681019083821181831017156102d8576102d861022d565b816040528281528860208487010111156102f157600080fd5b8260208601602083013760006020848301015280955050505050509250929050565b60005b8381101561032e578181015183820152602001610316565b50506000910152565b6000815180845261034f816020860160208601610313565b601f01601f19169290920160200192915050565b60208152600061009a6020830184610337565b6001600160a01b038316815260406020820181905260009061039a90830184610337565b949350505050565b600082516103b4818460208701610313565b919091019291505056fea2646970667358221220a9880461978127cf709c32a794f56db83221ab8ec19c5e931d866e77e079429964736f6c63430008180033",
  "linkReferences": {},
  "deployedLinkReferences": {}
}