{
  "_format": "hh-sol-artifact-1",
  "contractName": "LibRegistrarRegistration",
  "sourceName": "contracts/libraries/registrar/LibRegistrarRegistration.sol",
  "abi": [
    {
      "inputs": [],
      "name": "currentImplVersion",
      "outputs": [
        {
          "components": [
            {
              "internalType": "uint16",
              "name": "major",
              "type": "uint16"
            },
            {
              "internalType": "uint16",
              "name": "minor",
              "type": "uint16"
            }
          ],
          "internalType": "struct ModuleVersion",
          "name": "",
          "type": "tuple"
        }
      ],
      "stateMutability": "view",
      "type": "function"
    },
    {
      "inputs": [
        {
          "internalType": "string",
          "name": "name",
          "type": "string"
        }
      ],
      "name": "getEntityByName",
      "outputs": [
        {
          "internalType": "address",
          "name": "",
          "type": "address"
        }
      ],
      "stateMutability": "view",
      "type": "function"
    },
    {
      "inputs": [],
      "name": "getImplementation",
      "outputs": [
        {
          "internalType": "address",
          "name": "",
          "type": "address"
        }
      ],
      "stateMutability": "view",
      "type": "function"
    },
    {
      "inputs": [
        {
          "internalType": "address",
          "name": "addr",
          "type": "address"
        }
      ],
      "name": "isRegistered",
      "outputs": [
        {
          "internalType": "bool",
          "name": "",
          "type": "bool"
        }
      ],
      "stateMutability": "view",
      "type": "function"
    }
  ],
  "bytecode": "0x610ee761003a600b82828239805160001a60731461002d57634e487b7160e01b600052600060045260246000fd5b30600052607381538281f3fe73000000000000000000000000000000000000000030146080604052600436106100b35760003560e01c8063bca13f701161007b578063bca13f7014610152578063c3c5a54714610172578063c625e0ad14610195578063d0825a40146101b5578063d784d426146101df578063fae9b4f2146101ff57600080fd5b806316cd48ff146100b85780633e88a4e2146100da5780639fdcd3a41461010a578063a655925b1461012a578063aaf10f421461014a575b600080fd5b8180156100c457600080fd5b506100d86100d33660046108b9565b61021f565b005b6100ed6100e836600461093d565b610299565b6040516001600160a01b0390911681526020015b60405180910390f35b81801561011657600080fd5b506100d8610125366004610997565b61032b565b81801561013657600080fd5b506100d86101453660046109b4565b61037f565b6100ed6103c5565b81801561015e57600080fd5b506100d861016d3660046109ef565b61044d565b610185610180366004610997565b610493565b6040519015158152602001610101565b8180156101a157600080fd5b506100d86101b036600461093d565b61052b565b6101bd6105a8565b60408051825161ffff9081168252602093840151169281019290925201610101565b8180156101eb57600080fd5b506100d86101fa366004610997565b61063c565b81801561020b57600080fd5b506100d861021a366004610a2a565b61068f565b60006102296106d5565b604051633ca46b3b60e21b815290915073__$99c26cf02cd87b7954163a4a294ae04049$__9063f291acec906102659084908690600401610ae2565b60006040518083038186803b15801561027d57600080fd5b505af4158015610291573d6000803e3d6000fd5b505050505050565b6000806102a46107ec565b604051638e60b3d760e01b815290915073__$99c26cf02cd87b7954163a4a294ae04049$__90638e60b3d7906102e290849088908890600401610b7e565b602060405180830381865af41580156102ff573d6000803e3d6000fd5b505050506040513d601f19601f820116820180604052508101906103239190610ba1565b949350505050565b60006103356106d5565b60405163518c3f8360e11b8152600481018290526001600160a01b038416602482015290915073__$99c26cf02cd87b7954163a4a294ae04049$__9063a3187f0690604401610265565b60006103896106d5565b60405163b7bcf29f60e01b815290915073__$99c26cf02cd87b7954163a4a294ae04049$__9063b7bcf29f906102659084908690600401610bbe565b6000806103d06107ec565b60405163865ff09160e01b81526004810182905290915073__$99c26cf02cd87b7954163a4a294ae04049$__9063865ff09190602401602060405180830381865af4158015610423573d6000803e3d6000fd5b505050506040513d601f19601f820116820180604052508101906104479190610ba1565b91505090565b60006104576106d5565b604051630136671360e11b815290915073__$99c26cf02cd87b7954163a4a294ae04049$__9063026cce26906102659084908690600401610c4b565b60008061049e6107ec565b6040516372ab062f60e01b8152600481018290526001600160a01b038516602482015290915073__$99c26cf02cd87b7954163a4a294ae04049$__906372ab062f90604401602060405180830381865af4158015610500573d6000803e3d6000fd5b505050506040513d601f19601f820116820180604052508101906105249190610ca9565b9392505050565b60006105356106d5565b60405163201fd1fd60e11b815290915073__$99c26cf02cd87b7954163a4a294ae04049$__9063403fa3fa9061057390849087908790600401610b7e565b60006040518083038186803b15801561058b57600080fd5b505af415801561059f573d6000803e3d6000fd5b50505050505050565b604080518082019091526000808252602082015260006105c66107ec565b604051632a4c46d360e21b81526004810182905290915073__$99c26cf02cd87b7954163a4a294ae04049$__9063a9311b4c906024016040805180830381865af4158015610618573d6000803e3d6000fd5b505050506040513d601f19601f820116820180604052508101906104479190610cdd565b60006106466106d5565b6040516222c66f60e81b8152600481018290526001600160a01b038416602482015290915073__$99c26cf02cd87b7954163a4a294ae04049$__906322c66f0090604401610265565b60006106996106d5565b604051633bb9062360e01b815290915073__$99c26cf02cd87b7954163a4a294ae04049$__90633bb90623906102659084908690600401610d46565b600080306001600160a01b031663edec79526040518163ffffffff1660e01b8152600401602060405180830381865afa158015610716573d6000803e3d6000fd5b505050506040513d601f19601f8201168201806040525081019061073a9190610ba1565b90506001600160a01b03811661076b5760405162461bcd60e51b815260040161076290610df8565b60405180910390fd5b6040516304cfe2f560e11b815273__$e4b830ddb33873d2f2bc545c7dd1917103$__9063099fc5ea906107ab906001600160a01b03851690600401610e56565b602060405180830381865af41580156107c8573d6000803e3d6000fd5b505050506040513d601f19601f820116820180604052508101906104479190610e98565b600080306001600160a01b031663edec79526040518163ffffffff1660e01b8152600401602060405180830381865afa15801561082d573d6000803e3d6000fd5b505050506040513d601f19601f820116820180604052508101906108519190610ba1565b90506001600160a01b0381166108795760405162461bcd60e51b815260040161076290610df8565b6040516399ca110760e01b815273__$e4b830ddb33873d2f2bc545c7dd1917103$__906399ca1107906107ab906001600160a01b03851690600401610e56565b6000602082840312156108cb57600080fd5b813567ffffffffffffffff8111156108e257600080fd5b820160a0818503121561052457600080fd5b60008083601f84011261090657600080fd5b50813567ffffffffffffffff81111561091e57600080fd5b60208301915083602082850101111561093657600080fd5b9250929050565b6000806020838503121561095057600080fd5b823567ffffffffffffffff81111561096757600080fd5b610973858286016108f4565b90969095509350505050565b6001600160a01b038116811461099457600080fd5b50565b6000602082840312156109a957600080fd5b81356105248161097f565b6000602082840312156109c657600080fd5b813567ffffffffffffffff8111156109dd57600080fd5b82016080818503121561052457600080fd5b600060208284031215610a0157600080fd5b813567ffffffffffffffff811115610a1857600080fd5b82016060818503121561052457600080fd5b600060208284031215610a3c57600080fd5b813567ffffffffffffffff811115610a5357600080fd5b820160e0818503121561052457600080fd5b801515811461099457600080fd5b6000808335601e19843603018112610a8a57600080fd5b830160208101925035905067ffffffffffffffff811115610aaa57600080fd5b80360382131561093657600080fd5b81835281816020850137506000828201602090810191909152601f909101601f19169091010190565b8281526040602082015260008235610af981610a65565b151560408301526020830135610b0e8161097f565b6001600160a01b03166060830152610b296040840184610a73565b60a06080850152610b3e60e085018284610ab9565b915050610b4e6060850185610a73565b848303603f190160a0860152610b65838284610ab9565b92505050608084013560c0840152809150509392505050565b838152604060208201526000610b98604083018486610ab9565b95945050505050565b600060208284031215610bb357600080fd5b81516105248161097f565b8281526040602082015260008235610bd581610a65565b151560408301526020830135610bea8161097f565b6001600160a01b03166060830152610c056040840184610a73565b608080850152610c1960c085018284610ab9565b915050610c296060850185610a73565b848303603f190160a0860152610c40838284610ab9565b979650505050505050565b8281526040602082015260008235610c628161097f565b6001600160a01b03166040830152610c7d6020840184610a73565b606080850152610c9160a085018284610ab9565b91505060408401356080840152809150509392505050565b600060208284031215610cbb57600080fd5b815161052481610a65565b805161ffff81168114610cd857600080fd5b919050565b600060408284031215610cef57600080fd5b6040516040810181811067ffffffffffffffff82111715610d2057634e487b7160e01b600052604160045260246000fd5b604052610d2c83610cc6565b8152610d3a60208401610cc6565b60208201529392505050565b8281526040602082015260008235610d5d81610a65565b151560408301526020830135610d728161097f565b6001600160a01b03166060830152610d8d6040840184610a73565b60e06080850152610da361012085018284610ab9565b915050610db36060850185610a73565b848303603f190160a0860152610dca838284610ab9565b92505050608084013560c084015260a084013560e084015260c0840135610100840152809150509392505050565b602080825260409082018190527f4c6962526567697374726172526567697374726174696f6e3a206d6f64756c65908201527f2072656769737472792063616e6e6f74206265207a65726f2061646472657373606082015260800190565b6001600160a01b039190911681526040602082018190526016908201527524a932b3b4b9ba3930b92932b3b4b9ba3930ba34b7b760511b606082015260800190565b600060208284031215610eaa57600080fd5b505191905056fea2646970667358221220e6ad16fdebb6ade376e85cdbcfcd0b037c3dea94848e8e477e577600e8096f5164736f6c63430008180033",
  "linkReferences": {
    "contracts/core/LibModule.sol": {
      "LibModule": [
        {
          "length": 20,
          "start": 1972
        },
        {
          "length": 20,
          "start": 2242
        }
      ]
    },
    "contracts/libraries/registry/LibRegistration.sol": {
      "LibRegistration": [
        {
          "length": 20,
          "start": 629
        },
        {
          "length": 20,
          "start": 752
        },
        {
          "length": 20,
          "start": 919
        },
        {
          "length": 20,
          "start": 981
        },
        {
          "length": 20,
          "start": 1059
        },
        {
          "length": 20,
          "start": 1187
        },
        {
          "length": 20,
          "start": 1280
        },
        {
          "length": 20,
          "start": 1409
        },
        {
          "length": 20,
          "start": 1561
        },
        {
          "length": 20,
          "start": 1703
        },
        {
          "length": 20,
          "start": 1765
        }
      ]
    }
  },
  "deployedLinkReferences": {
    "contracts/core/LibModule.sol": {
      "LibModule": [
        {
          "length": 20,
          "start": 1914
        },
        {
          "length": 20,
          "start": 2184
        }
      ]
    },
    "contracts/libraries/registry/LibRegistration.sol": {
      "LibRegistration": [
        {
          "length": 20,
          "start": 571
        },
        {
          "length": 20,
          "start": 694
        },
        {
          "length": 20,
          "start": 861
        },
        {
          "length": 20,
          "start": 923
        },
        {
          "length": 20,
          "start": 1001
        },
        {
          "length": 20,
          "start": 1129
        },
        {
          "length": 20,
          "start": 1222
        },
        {
          "length": 20,
          "start": 1351
        },
        {
          "length": 20,
          "start": 1503
        },
        {
          "length": 20,
          "start": 1645
        },
        {
          "length": 20,
          "start": 1707
        }
      ]
    }
  }
}