{
  "_format": "hh-sol-artifact-1",
  "contractName": "ModuleRegistry",
  "sourceName": "contracts/core/mod-registry/ModuleRegistry.sol",
  "abi": [
    {
      "inputs": [
        {
          "components": [
            {
              "internalType": "address",
              "name": "owner",
              "type": "address"
            },
            {
              "internalType": "address[]",
              "name": "admins",
              "type": "address[]"
            }
          ],
          "internalType": "struct ModuleRegistryConstructorArgs",
          "name": "args",
          "type": "tuple"
        }
      ],
      "stateMutability": "nonpayable",
      "type": "constructor"
    },
    {
      "inputs": [],
      "name": "AccessControlBadConfirmation",
      "type": "error"
    },
    {
      "inputs": [
        {
          "internalType": "address",
          "name": "account",
          "type": "address"
        },
        {
          "internalType": "bytes32",
          "name": "neededRole",
          "type": "bytes32"
        }
      ],
      "name": "AccessControlUnauthorizedAccount",
      "type": "error"
    },
    {
      "anonymous": false,
      "inputs": [
        {
          "indexed": true,
          "internalType": "address",
          "name": "module",
          "type": "address"
        },
        {
          "indexed": true,
          "internalType": "uint16",
          "name": "major",
          "type": "uint16"
        },
        {
          "indexed": true,
          "internalType": "uint16",
          "name": "minor",
          "type": "uint16"
        },
        {
          "indexed": false,
          "internalType": "string",
          "name": "name",
          "type": "string"
        }
      ],
      "name": "ModuleAdded",
      "type": "event"
    },
    {
      "anonymous": false,
      "inputs": [
        {
          "indexed": false,
          "internalType": "string",
          "name": "name",
          "type": "string"
        }
      ],
      "name": "ModuleDisabled",
      "type": "event"
    },
    {
      "anonymous": false,
      "inputs": [
        {
          "indexed": false,
          "internalType": "string",
          "name": "name",
          "type": "string"
        }
      ],
      "name": "ModuleEnabled",
      "type": "event"
    },
    {
      "anonymous": false,
      "inputs": [
        {
          "indexed": true,
          "internalType": "address",
          "name": "module",
          "type": "address"
        },
        {
          "indexed": true,
          "internalType": "uint16",
          "name": "major",
          "type": "uint16"
        },
        {
          "indexed": true,
          "internalType": "uint16",
          "name": "minor",
          "type": "uint16"
        },
        {
          "indexed": false,
          "internalType": "string",
          "name": "name",
          "type": "string"
        }
      ],
      "name": "ModuleRolledBack",
      "type": "event"
    },
    {
      "anonymous": false,
      "inputs": [
        {
          "indexed": true,
          "internalType": "address",
          "name": "module",
          "type": "address"
        },
        {
          "indexed": true,
          "internalType": "uint16",
          "name": "major",
          "type": "uint16"
        },
        {
          "indexed": true,
          "internalType": "uint16",
          "name": "minor",
          "type": "uint16"
        },
        {
          "indexed": false,
          "internalType": "string",
          "name": "name",
          "type": "string"
        }
      ],
      "name": "ModuleUpgraded",
      "type": "event"
    },
    {
      "anonymous": false,
      "inputs": [
        {
          "indexed": true,
          "internalType": "bytes32",
          "name": "role",
          "type": "bytes32"
        },
        {
          "indexed": true,
          "internalType": "bytes32",
          "name": "previousAdminRole",
          "type": "bytes32"
        },
        {
          "indexed": true,
          "internalType": "bytes32",
          "name": "newAdminRole",
          "type": "bytes32"
        }
      ],
      "name": "RoleAdminChanged",
      "type": "event"
    },
    {
      "anonymous": false,
      "inputs": [
        {
          "indexed": true,
          "internalType": "bytes32",
          "name": "role",
          "type": "bytes32"
        },
        {
          "indexed": true,
          "internalType": "address",
          "name": "account",
          "type": "address"
        },
        {
          "indexed": true,
          "internalType": "address",
          "name": "sender",
          "type": "address"
        }
      ],
      "name": "RoleGranted",
      "type": "event"
    },
    {
      "anonymous": false,
      "inputs": [
        {
          "indexed": true,
          "internalType": "bytes32",
          "name": "role",
          "type": "bytes32"
        },
        {
          "indexed": true,
          "internalType": "address",
          "name": "account",
          "type": "address"
        },
        {
          "indexed": true,
          "internalType": "address",
          "name": "sender",
          "type": "address"
        }
      ],
      "name": "RoleRevoked",
      "type": "event"
    },
    {
      "inputs": [],
      "name": "DEFAULT_ADMIN_ROLE",
      "outputs": [
        {
          "internalType": "bytes32",
          "name": "",
          "type": "bytes32"
        }
      ],
      "stateMutability": "view",
      "type": "function"
    },
    {
      "inputs": [
        {
          "internalType": "string",
          "name": "name",
          "type": "string"
        }
      ],
      "name": "disable",
      "outputs": [],
      "stateMutability": "nonpayable",
      "type": "function"
    },
    {
      "inputs": [
        {
          "internalType": "string",
          "name": "name",
          "type": "string"
        }
      ],
      "name": "enable",
      "outputs": [],
      "stateMutability": "nonpayable",
      "type": "function"
    },
    {
      "inputs": [
        {
          "internalType": "string",
          "name": "name",
          "type": "string"
        }
      ],
      "name": "get",
      "outputs": [
        {
          "components": [
            {
              "internalType": "bool",
              "name": "enabled",
              "type": "bool"
            },
            {
              "internalType": "address",
              "name": "module",
              "type": "address"
            },
            {
              "components": [
                {
                  "internalType": "uint16",
                  "name": "major",
                  "type": "uint16"
                },
                {
                  "internalType": "uint16",
                  "name": "minor",
                  "type": "uint16"
                }
              ],
              "internalType": "struct ModuleVersion",
              "name": "version",
              "type": "tuple"
            }
          ],
          "internalType": "struct ModuleReference",
          "name": "",
          "type": "tuple"
        }
      ],
      "stateMutability": "view",
      "type": "function"
    },
    {
      "inputs": [
        {
          "internalType": "bytes32",
          "name": "role",
          "type": "bytes32"
        }
      ],
      "name": "getRoleAdmin",
      "outputs": [
        {
          "internalType": "bytes32",
          "name": "",
          "type": "bytes32"
        }
      ],
      "stateMutability": "view",
      "type": "function"
    },
    {
      "inputs": [
        {
          "internalType": "string",
          "name": "name",
          "type": "string"
        }
      ],
      "name": "getVersion",
      "outputs": [
        {
          "components": [
            {
              "internalType": "uint16",
              "name": "major",
              "type": "uint16"
            },
            {
              "internalType": "uint16",
              "name": "minor",
              "type": "uint16"
            }
          ],
          "internalType": "struct ModuleVersion",
          "name": "",
          "type": "tuple"
        }
      ],
      "stateMutability": "view",
      "type": "function"
    },
    {
      "inputs": [
        {
          "internalType": "bytes32",
          "name": "role",
          "type": "bytes32"
        },
        {
          "internalType": "address",
          "name": "account",
          "type": "address"
        }
      ],
      "name": "grantRole",
      "outputs": [],
      "stateMutability": "nonpayable",
      "type": "function"
    },
    {
      "inputs": [
        {
          "internalType": "bytes32",
          "name": "role",
          "type": "bytes32"
        },
        {
          "internalType": "address",
          "name": "account",
          "type": "address"
        }
      ],
      "name": "hasRole",
      "outputs": [
        {
          "internalType": "bool",
          "name": "",
          "type": "bool"
        }
      ],
      "stateMutability": "view",
      "type": "function"
    },
    {
      "inputs": [
        {
          "internalType": "address",
          "name": "account",
          "type": "address"
        }
      ],
      "name": "isOwner",
      "outputs": [
        {
          "internalType": "bool",
          "name": "",
          "type": "bool"
        }
      ],
      "stateMutability": "view",
      "type": "function"
    },
    {
      "inputs": [],
      "name": "owner",
      "outputs": [
        {
          "internalType": "address",
          "name": "",
          "type": "address"
        }
      ],
      "stateMutability": "view",
      "type": "function"
    },
    {
      "inputs": [
        {
          "internalType": "contract IModule",
          "name": "mod",
          "type": "address"
        }
      ],
      "name": "put",
      "outputs": [],
      "stateMutability": "nonpayable",
      "type": "function"
    },
    {
      "inputs": [
        {
          "internalType": "bytes32",
          "name": "role",
          "type": "bytes32"
        },
        {
          "internalType": "address",
          "name": "callerConfirmation",
          "type": "address"
        }
      ],
      "name": "renounceRole",
      "outputs": [],
      "stateMutability": "nonpayable",
      "type": "function"
    },
    {
      "inputs": [
        {
          "internalType": "bytes32",
          "name": "role",
          "type": "bytes32"
        },
        {
          "internalType": "address",
          "name": "account",
          "type": "address"
        }
      ],
      "name": "revokeRole",
      "outputs": [],
      "stateMutability": "nonpayable",
      "type": "function"
    },
    {
      "inputs": [
        {
          "internalType": "contract IModule",
          "name": "mod",
          "type": "address"
        }
      ],
      "name": "rollback",
      "outputs": [],
      "stateMutability": "nonpayable",
      "type": "function"
    },
    {
      "inputs": [
        {
          "internalType": "bytes4",
          "name": "interfaceId",
          "type": "bytes4"
        }
      ],
      "name": "supportsInterface",
      "outputs": [
        {
          "internalType": "bool",
          "name": "",
          "type": "bool"
        }
      ],
      "stateMutability": "view",
      "type": "function"
    },
    {
      "inputs": [
        {
          "internalType": "contract IModule",
          "name": "mod",
          "type": "address"
        }
      ],
      "name": "upgrade",
      "outputs": [],
      "stateMutability": "nonpayable",
      "type": "function"
    }
  ],
  "bytecode": "0x60806040523480156200001157600080fd5b5060405162001c9138038062001c9183398101604081905262000034916200034d565b80516001600160a01b0316620000a65760405162461bcd60e51b815260206004820152602c60248201527f4d6f64756c6552656769737472793a206f776e65722063616e6e6f742062652060448201526b7a65726f206164647265737360a01b60648201526084015b60405180910390fd5b8051600180546001600160a01b0319166001600160a01b038316179055620000df9060008051602062001c71833981519152906200020d565b5080516200010f907f9f4e1c871d5fdd0aee1cd182666698a4492b24c6832aac230d07b11046af5a89906200020d565b5060005b816020015151811015620002055760006001600160a01b0316826020015182815181106200014557620001456200044b565b60200260200101516001600160a01b031603620001ba5760405162461bcd60e51b815260206004820152602c60248201527f4d6f64756c6552656769737472793a2061646d696e2063616e6e6f742062652060448201526b7a65726f206164647265737360a01b60648201526084016200009d565b620001fb60008051602062001c7183398151915283602001518381518110620001e757620001e76200044b565b60200260200101516200020d60201b60201c565b5060010162000113565b505062000461565b6000828152602081815260408083206001600160a01b038516845290915281205460ff16620002b2576000838152602081815260408083206001600160a01b03861684529091529020805460ff19166001179055620002693390565b6001600160a01b0316826001600160a01b0316847f2f8788117e7eff1d82e926ec794901d17c78024a50270940304540a733656f0d60405160405180910390a4506001620002b6565b5060005b92915050565b634e487b7160e01b600052604160045260246000fd5b604080519081016001600160401b0381118282101715620002f757620002f7620002bc565b60405290565b604051601f8201601f191681016001600160401b0381118282101715620003285762000328620002bc565b604052919050565b80516001600160a01b03811681146200034857600080fd5b919050565b600060208083850312156200036157600080fd5b82516001600160401b03808211156200037957600080fd5b90840190604082870312156200038e57600080fd5b62000398620002d2565b620003a38362000330565b81528383015182811115620003b757600080fd5b80840193505086601f840112620003cd57600080fd5b825182811115620003e257620003e2620002bc565b8060051b9250620003f5858401620002fd565b81815292840185019285810190898511156200041057600080fd5b948601945b848610156200043957620004298662000330565b8252948601949086019062000415565b95830195909552509695505050505050565b634e487b7160e01b600052603260045260246000fd5b61180080620004716000396000f3fe608060405234801561001057600080fd5b50600436106101005760003560e01c80638da5cb5b11610097578063b8724c5911610066578063b8724c5914610254578063d547741f14610267578063e29983811461027a578063f0e220701461028d57600080fd5b80638da5cb5b146101fb57806391d1485414610226578063a217fddf14610239578063b124ed581461024157600080fd5b80632f54bf6e116100d35780632f54bf6e1461018657806336568abe146101a85780633ab50a9c146101bb578063693ec85e146101db57600080fd5b806301ffc9a7146101055780630900f0101461012d578063248a9ca3146101425780632f2ff15d14610173575b600080fd5b61011861011336600461134b565b6102a0565b60405190151581526020015b60405180910390f35b61014061013b366004611391565b6102d7565b005b6101656101503660046113ae565b60009081526020819052604090206001015490565b604051908152602001610124565b6101406101813660046113c7565b6105e6565b610118610194366004611391565b6001546001600160a01b0390811691161490565b6101406101b63660046113c7565b610611565b6101ce6101c93660046113f7565b610649565b6040516101249190611469565b6101ee6101e93660046113f7565b6106e5565b6040516101249190611488565b60015461020e906001600160a01b031681565b6040516001600160a01b039091168152602001610124565b6101186102343660046113c7565b6107cb565b610165600081565b61014061024f366004611391565b6107f4565b6101406102623660046113f7565b610b46565b6101406102753660046113c7565b610c52565b6101406102883660046113f7565b610c77565b61014061029b366004611391565b610d73565b60006001600160e01b03198216637965db0b60e01b14806102d157506301ffc9a760e01b6001600160e01b03198316145b92915050565b6102ef6000805160206117ab833981519152336107cb565b6103145760405162461bcd60e51b815260040161030b906114c9565b60405180910390fd5b803b6103325760405162461bcd60e51b815260040161030b9061150f565b60006103a2826001600160a01b03166306fdde036040518163ffffffff1660e01b8152600401600060405180830381865afa158015610375573d6000803e3d6000fd5b505050506040513d6000823e601f3d908101601f1916820160405261039d919081019061158b565b6110ac565b90506000826001600160a01b03166354fd4d506040518163ffffffff1660e01b81526004016040805180830381865afa1580156103e3573d6000803e3d6000fd5b505050506040513d601f19601f82011682018060405250810190610407919061164f565b9050600060028360405161041b91906116aa565b908152604051908190036020019020805490915061010090046001600160a01b03166104595760405162461bcd60e51b815260040161030b906116c6565b60408051808201909152600182015461ffff80821683526201000090910416602082015261048890839061111c565b6104e85760405162461bcd60e51b815260206004820152602b60248201527f56657273696f6e436f6e74726f6c3a206e65772076657273696f6e206d75737460448201526a1031329033b932b0ba32b960a91b606482015260840161030b565b60408051606081018252600181526001600160a01b0386166020820152808201849052905160029061051b9086906116aa565b908152604080516020928190038301812084518154868601516001600160a81b0319909116911515610100600160a81b031916919091176101006001600160a01b039283160217825594909201518051600190930180549185015161ffff94851663ffffffff1990931692909217620100009285169290920291909117905591850151855190821693911691908716907f9b67e7109d8fdb7a87b5517e4556c4da1d00f8e8a04d91146ec9dd52e55cb741906105d890889061170b565b60405180910390a450505050565b6000828152602081905260409020600101546106018161116d565b61060b838361117a565b50505050565b6001600160a01b038116331461063a5760405163334bd91960e11b815260040160405180910390fd5b610644828261120c565b505050565b6040805180820190915260008082526020820152600261069e84848080601f0160208091040260200160405190810160405280939291908181526020018383808284376000920191909152506110ac92505050565b6040516106ab91906116aa565b90815260408051918290036020908101832083830190925260019091015461ffff8082168452620100009091041690820152905092915050565b61071860408051606081018252600080825260208083018290528351808501855282815290810191909152909182015290565b600261075984848080601f0160208091040260200160405190810160405280939291908181526020018383808284376000920191909152506110ac92505050565b60405161076691906116aa565b908152604080519182900360209081018320606084018352805460ff8116151585526001600160a01b0361010090910416848301528251808401845260019091015461ffff808216835262010000909104169181019190915290820152905092915050565b6000918252602082815260408084206001600160a01b0393909316845291905290205460ff1690565b61080c6000805160206117ab833981519152336107cb565b6108285760405162461bcd60e51b815260040161030b906114c9565b803b6108465760405162461bcd60e51b815260040161030b9061150f565b6000610889826001600160a01b03166306fdde036040518163ffffffff1660e01b8152600401600060405180830381865afa158015610375573d6000803e3d6000fd5b905060006001600160a01b03166002826040516108a691906116aa565b908152604051908190036020019020546001600160a01b0361010090910416146109205760405162461bcd60e51b815260206004820152602560248201527f4d6f64756c6552656769737472793a206d6f64756c6520616c72656164792065604482015264786973747360d81b606482015260840161030b565b6040518060600160405280600115158152602001836001600160a01b03168152602001836001600160a01b03166354fd4d506040518163ffffffff1660e01b81526004016040805180830381865afa158015610980573d6000803e3d6000fd5b505050506040513d601f19601f820116820180604052508101906109a4919061164f565b8152506002826040516109b791906116aa565b908152604080516020928190038301812084518154868601516001600160a81b0319909116911515610100600160a81b031916919091176101006001600160a01b039283160217825594830151805160019092018054919095015161ffff92831663ffffffff19909216919091176201000092909116919091021790925563054fd4d560e41b82528051928516926354fd4d509260048082019392918290030181865afa158015610a6c573d6000803e3d6000fd5b505050506040513d601f19601f82011682018060405250810190610a90919061164f565b6020015161ffff16826001600160a01b03166354fd4d506040518163ffffffff1660e01b81526004016040805180830381865afa158015610ad5573d6000803e3d6000fd5b505050506040513d601f19601f82011682018060405250810190610af9919061164f565b6000015161ffff16836001600160a01b03167f9488e2c9bf445de7746d7bbaa63fbf9496577675e43c3d19756f14e87201506084604051610b3a919061170b565b60405180910390a45050565b610b5e6000805160206117ab833981519152336107cb565b610b7a5760405162461bcd60e51b815260040161030b906114c9565b60006002610bbd84848080601f0160208091040260200160405190810160405280939291908181526020018383808284376000920191909152506110ac92505050565b604051610bca91906116aa565b908152604051908190036020019020805490915061010090046001600160a01b0316610c085760405162461bcd60e51b815260040161030b906116c6565b805460ff191660011781556040517f1f264ce410da1335cfd3406a911f2e8e799ec1ef8b0c11bbe4e34e1e37b8b91e90610c45908590859061173e565b60405180910390a1505050565b600082815260208190526040902060010154610c6d8161116d565b61060b838361120c565b610c8f6000805160206117ab833981519152336107cb565b610cab5760405162461bcd60e51b815260040161030b906114c9565b60006002610cee84848080601f0160208091040260200160405190810160405280939291908181526020018383808284376000920191909152506110ac92505050565b604051610cfb91906116aa565b908152604051908190036020019020805490915061010090046001600160a01b0316610d395760405162461bcd60e51b815260040161030b906116c6565b805460ff191681556040517f4f7d09272488a4e1d2bdd4b79642f69f199a465f296f0ffb5c780c23ea001e8590610c45908590859061173e565b610d8b6000805160206117ab833981519152336107cb565b610da75760405162461bcd60e51b815260040161030b906114c9565b803b610dc55760405162461bcd60e51b815260040161030b9061150f565b6000610e08826001600160a01b03166306fdde036040518163ffffffff1660e01b8152600401600060405180830381865afa158015610375573d6000803e3d6000fd5b90506000826001600160a01b03166354fd4d506040518163ffffffff1660e01b81526004016040805180830381865afa158015610e49573d6000803e3d6000fd5b505050506040513d601f19601f82011682018060405250810190610e6d919061164f565b90506000600283604051610e8191906116aa565b908152604051908190036020019020805490915061010090046001600160a01b0316610ebf5760405162461bcd60e51b815260040161030b906116c6565b60408051808201909152600182015461ffff808216835262010000909104166020820152610eee908390611277565b610f585760405162461bcd60e51b815260206004820152603560248201527f56657273696f6e436f6e74726f6c3a206e65772076657273696f6e206d757374604482015274081899481b195cdcc81d1a185b8818dd5c9c995b9d605a1b606482015260840161030b565b6040518060600160405280600115158152602001856001600160a01b03168152602001856001600160a01b03166354fd4d506040518163ffffffff1660e01b81526004016040805180830381865afa158015610fb8573d6000803e3d6000fd5b505050506040513d601f19601f82011682018060405250810190610fdc919061164f565b815250600284604051610fef91906116aa565b908152604080516020928190038301812084518154868601516001600160a81b0319909116911515610100600160a81b031916919091176101006001600160a01b039283160217825594909201518051600190930180549185015161ffff94851663ffffffff1990931692909217620100009285169290920291909117905591850151855190821693911691908716907fdd4223d7adf330d926b2439b094e90c172c6167445300918a9d619a70dc5dff8906105d890889061170b565b60608160005b8151811015611115576110e48282815181106110d0576110d061176d565b01602001516001600160f81b0319166112bf565b8282815181106110f6576110f661176d565b60200101906001600160f81b031916908160001a9053506001016110b2565b5092915050565b8051825160009161ffff90811691161115611139575060016102d1565b8151835161ffff91821691160361116457816020015161ffff16836020015161ffff161190506102d1565b50600092915050565b611177813361130e565b50565b600061118683836107cb565b611204576000838152602081815260408083206001600160a01b03861684529091529020805460ff191660011790556111bc3390565b6001600160a01b0316826001600160a01b0316847f2f8788117e7eff1d82e926ec794901d17c78024a50270940304540a733656f0d60405160405180910390a45060016102d1565b5060006102d1565b600061121883836107cb565b15611204576000838152602081815260408083206001600160a01b0386168085529252808320805460ff1916905551339286917ff6391f5c32d9c69d2a47ea670b442974b53935d1edc7fd64eb21e047a839171b9190a45060016102d1565b8051825160009161ffff90811691161015611294575060016102d1565b8151835161ffff91821691160361116457816020015161ffff16836020015161ffff161090506102d1565b6000604160f81b6001600160f81b03198316108015906112ed5750602d60f91b6001600160f81b0319831611155b1561130a5761130160f883901c6020611783565b60f81b92915050565b5090565b61131882826107cb565b6113475760405163e2517d3f60e01b81526001600160a01b03821660048201526024810183905260440161030b565b5050565b60006020828403121561135d57600080fd5b81356001600160e01b03198116811461137557600080fd5b9392505050565b6001600160a01b038116811461117757600080fd5b6000602082840312156113a357600080fd5b81356113758161137c565b6000602082840312156113c057600080fd5b5035919050565b600080604083850312156113da57600080fd5b8235915060208301356113ec8161137c565b809150509250929050565b6000806020838503121561140a57600080fd5b823567ffffffffffffffff8082111561142257600080fd5b818501915085601f83011261143657600080fd5b81358181111561144557600080fd5b86602082850101111561145757600080fd5b60209290920196919550909350505050565b604081016102d18284805161ffff908116835260209182015116910152565b8151151581526020808301516001600160a01b031690820152604080830151608083019161111590840182805161ffff908116835260209182015116910152565b60208082526026908201527f4d6f64756c6552656769737472793a2063616c6c6572206973206e6f7420616e6040820152651030b236b4b760d11b606082015260800190565b60208082526022908201527f4d6f64756c6552656769737472793a206d6f64756c6520686173206e6f20636f604082015261646560f01b606082015260800190565b634e487b7160e01b600052604160045260246000fd5b60005b8381101561158257818101518382015260200161156a565b50506000910152565b60006020828403121561159d57600080fd5b815167ffffffffffffffff808211156115b557600080fd5b818401915084601f8301126115c957600080fd5b8151818111156115db576115db611551565b604051601f8201601f19908116603f0116810190838211818310171561160357611603611551565b8160405282815287602084870101111561161c57600080fd5b61162d836020830160208801611567565b979650505050505050565b805161ffff8116811461164a57600080fd5b919050565b60006040828403121561166157600080fd5b6040516040810181811067ffffffffffffffff8211171561168457611684611551565b60405261169083611638565b815261169e60208401611638565b60208201529392505050565b600082516116bc818460208701611567565b9190910192915050565b60208082526025908201527f4d6f64756c6552656769737472793a206d6f64756c6520646f6573206e6f7420604082015264195e1a5cdd60da1b606082015260800190565b602081526000825180602084015261172a816040850160208701611567565b601f01601f19169190910160400192915050565b60208152816020820152818360408301376000818301604090810191909152601f909201601f19160101919050565b634e487b7160e01b600052603260045260246000fd5b60ff81811683821601908111156102d157634e487b7160e01b600052601160045260246000fdfe2172861495e7b85edac73e3cd5fbb42dd675baadf627720e687bcfdaca025096a2646970667358221220e31ec65c2b73b9035a6f356a93bb040fd42807bcacf2c4c3e748a92d98405b5e64736f6c634300081800332172861495e7b85edac73e3cd5fbb42dd675baadf627720e687bcfdaca025096",
  "linkReferences": {},
  "deployedLinkReferences": {}
}