{
  "_format": "hh-sol-artifact-1",
  "contractName": "Registrar",
  "sourceName": "contracts/registrar/instance/Registrar.sol",
  "abi": [
    {
      "inputs": [
        {
          "components": [
            {
              "internalType": "contract IModuleRegistry",
              "name": "moduleRegistry",
              "type": "address"
            },
            {
              "internalType": "contract IRegistry",
              "name": "owningRegistry",
              "type": "address"
            }
          ],
          "internalType": "struct BaseEntityConstructorArgs",
          "name": "args",
          "type": "tuple"
        }
      ],
      "stateMutability": "nonpayable",
      "type": "constructor"
    },
    {
      "anonymous": false,
      "inputs": [
        {
          "indexed": true,
          "internalType": "address",
          "name": "by",
          "type": "address"
        },
        {
          "indexed": false,
          "internalType": "string",
          "name": "reason",
          "type": "string"
        }
      ],
      "name": "EntityDeactivated",
      "type": "event"
    },
    {
      "anonymous": false,
      "inputs": [
        {
          "indexed": true,
          "internalType": "address",
          "name": "by",
          "type": "address"
        }
      ],
      "name": "EntityReactivated",
      "type": "event"
    },
    {
      "anonymous": false,
      "inputs": [
        {
          "indexed": true,
          "internalType": "address",
          "name": "by",
          "type": "address"
        },
        {
          "indexed": false,
          "internalType": "string",
          "name": "reason",
          "type": "string"
        }
      ],
      "name": "EntityRemoved",
      "type": "event"
    },
    {
      "anonymous": false,
      "inputs": [
        {
          "components": [
            {
              "internalType": "uint256",
              "name": "fee",
              "type": "uint256"
            },
            {
              "internalType": "uint256",
              "name": "coveragePeriodDays",
              "type": "uint256"
            },
            {
              "internalType": "uint256",
              "name": "gracePeriodDays",
              "type": "uint256"
            }
          ],
          "indexed": false,
          "internalType": "struct RegistrationTerms",
          "name": "newTerms",
          "type": "tuple"
        }
      ],
      "name": "TermsChanged",
      "type": "event"
    },
    {
      "inputs": [
        {
          "internalType": "address[]",
          "name": "signers",
          "type": "address[]"
        }
      ],
      "name": "addSigners",
      "outputs": [],
      "stateMutability": "nonpayable",
      "type": "function"
    },
    {
      "inputs": [
        {
          "internalType": "string",
          "name": "reason",
          "type": "string"
        }
      ],
      "name": "deactivate",
      "outputs": [],
      "stateMutability": "nonpayable",
      "type": "function"
    },
    {
      "inputs": [
        {
          "internalType": "address",
          "name": "world",
          "type": "address"
        }
      ],
      "name": "deactivateWorld",
      "outputs": [],
      "stateMutability": "nonpayable",
      "type": "function"
    },
    {
      "inputs": [],
      "name": "getModuleRegistry",
      "outputs": [
        {
          "internalType": "contract IModuleRegistry",
          "name": "",
          "type": "address"
        }
      ],
      "stateMutability": "view",
      "type": "function"
    },
    {
      "inputs": [],
      "name": "getTerms",
      "outputs": [
        {
          "components": [
            {
              "internalType": "uint256",
              "name": "fee",
              "type": "uint256"
            },
            {
              "internalType": "uint256",
              "name": "coveragePeriodDays",
              "type": "uint256"
            },
            {
              "internalType": "uint256",
              "name": "gracePeriodDays",
              "type": "uint256"
            }
          ],
          "internalType": "struct RegistrationTerms",
          "name": "",
          "type": "tuple"
        }
      ],
      "stateMutability": "view",
      "type": "function"
    },
    {
      "inputs": [
        {
          "internalType": "bytes32",
          "name": "role",
          "type": "bytes32"
        },
        {
          "internalType": "address",
          "name": "account",
          "type": "address"
        }
      ],
      "name": "grantRole",
      "outputs": [],
      "stateMutability": "nonpayable",
      "type": "function"
    },
    {
      "inputs": [
        {
          "internalType": "bytes32",
          "name": "role",
          "type": "bytes32"
        },
        {
          "internalType": "address",
          "name": "account",
          "type": "address"
        }
      ],
      "name": "hasRole",
      "outputs": [
        {
          "internalType": "bool",
          "name": "",
          "type": "bool"
        }
      ],
      "stateMutability": "view",
      "type": "function"
    },
    {
      "inputs": [
        {
          "internalType": "address",
          "name": "owner",
          "type": "address"
        },
        {
          "internalType": "string",
          "name": "nm",
          "type": "string"
        },
        {
          "internalType": "bytes",
          "name": "initData",
          "type": "bytes"
        }
      ],
      "name": "init",
      "outputs": [],
      "stateMutability": "nonpayable",
      "type": "function"
    },
    {
      "inputs": [],
      "name": "isEntityActive",
      "outputs": [
        {
          "internalType": "bool",
          "name": "",
          "type": "bool"
        }
      ],
      "stateMutability": "view",
      "type": "function"
    },
    {
      "inputs": [],
      "name": "isRemoved",
      "outputs": [
        {
          "internalType": "bool",
          "name": "",
          "type": "bool"
        }
      ],
      "stateMutability": "view",
      "type": "function"
    },
    {
      "inputs": [
        {
          "internalType": "address",
          "name": "a",
          "type": "address"
        }
      ],
      "name": "isSigner",
      "outputs": [
        {
          "internalType": "bool",
          "name": "",
          "type": "bool"
        }
      ],
      "stateMutability": "view",
      "type": "function"
    },
    {
      "inputs": [],
      "name": "isStillActive",
      "outputs": [
        {
          "internalType": "bool",
          "name": "",
          "type": "bool"
        }
      ],
      "stateMutability": "view",
      "type": "function"
    },
    {
      "inputs": [
        {
          "internalType": "address",
          "name": "a",
          "type": "address"
        }
      ],
      "name": "isTermsOwnerSigner",
      "outputs": [
        {
          "internalType": "bool",
          "name": "",
          "type": "bool"
        }
      ],
      "stateMutability": "view",
      "type": "function"
    },
    {
      "inputs": [],
      "name": "moduleRegistry",
      "outputs": [
        {
          "internalType": "contract IModuleRegistry",
          "name": "",
          "type": "address"
        }
      ],
      "stateMutability": "view",
      "type": "function"
    },
    {
      "inputs": [],
      "name": "name",
      "outputs": [
        {
          "internalType": "string",
          "name": "",
          "type": "string"
        }
      ],
      "stateMutability": "view",
      "type": "function"
    },
    {
      "inputs": [],
      "name": "owner",
      "outputs": [
        {
          "internalType": "address",
          "name": "",
          "type": "address"
        }
      ],
      "stateMutability": "view",
      "type": "function"
    },
    {
      "inputs": [],
      "name": "owningRegistry",
      "outputs": [
        {
          "internalType": "contract IRegistry",
          "name": "",
          "type": "address"
        }
      ],
      "stateMutability": "view",
      "type": "function"
    },
    {
      "inputs": [
        {
          "internalType": "bytes",
          "name": "data",
          "type": "bytes"
        }
      ],
      "name": "postUpgradeInit",
      "outputs": [],
      "stateMutability": "nonpayable",
      "type": "function"
    },
    {
      "inputs": [],
      "name": "reactivate",
      "outputs": [],
      "stateMutability": "nonpayable",
      "type": "function"
    },
    {
      "inputs": [
        {
          "internalType": "address",
          "name": "world",
          "type": "address"
        }
      ],
      "name": "reactivateWorld",
      "outputs": [],
      "stateMutability": "nonpayable",
      "type": "function"
    },
    {
      "inputs": [
        {
          "components": [
            {
              "internalType": "bool",
              "name": "sendTokensToWorldOwner",
              "type": "bool"
            },
            {
              "internalType": "address",
              "name": "owner",
              "type": "address"
            },
            {
              "components": [
                {
                  "internalType": "string",
                  "name": "x",
                  "type": "string"
                },
                {
                  "internalType": "string",
                  "name": "y",
                  "type": "string"
                },
                {
                  "internalType": "string",
                  "name": "z",
                  "type": "string"
                },
                {
                  "internalType": "uint256",
                  "name": "t",
                  "type": "uint256"
                },
                {
                  "internalType": "uint256",
                  "name": "p",
                  "type": "uint256"
                },
                {
                  "internalType": "uint256",
                  "name": "p_sub",
                  "type": "uint256"
                }
              ],
              "internalType": "struct VectorAddress",
              "name": "baseVector",
              "type": "tuple"
            },
            {
              "internalType": "string",
              "name": "name",
              "type": "string"
            },
            {
              "internalType": "bytes",
              "name": "vectorAuthoritySignature",
              "type": "bytes"
            },
            {
              "internalType": "bytes",
              "name": "initData",
              "type": "bytes"
            }
          ],
          "internalType": "struct CreateWorldArgs",
          "name": "args",
          "type": "tuple"
        }
      ],
      "name": "registerWorld",
      "outputs": [
        {
          "internalType": "address",
          "name": "world",
          "type": "address"
        }
      ],
      "stateMutability": "payable",
      "type": "function"
    },
    {
      "inputs": [
        {
          "internalType": "string",
          "name": "reason",
          "type": "string"
        }
      ],
      "name": "remove",
      "outputs": [],
      "stateMutability": "nonpayable",
      "type": "function"
    },
    {
      "inputs": [
        {
          "internalType": "address[]",
          "name": "signers",
          "type": "address[]"
        }
      ],
      "name": "removeSigners",
      "outputs": [],
      "stateMutability": "nonpayable",
      "type": "function"
    },
    {
      "inputs": [
        {
          "internalType": "address",
          "name": "world",
          "type": "address"
        }
      ],
      "name": "removeWorld",
      "outputs": [],
      "stateMutability": "nonpayable",
      "type": "function"
    },
    {
      "inputs": [
        {
          "internalType": "bytes32",
          "name": "role",
          "type": "bytes32"
        },
        {
          "internalType": "address",
          "name": "account",
          "type": "address"
        }
      ],
      "name": "revokeRole",
      "outputs": [],
      "stateMutability": "nonpayable",
      "type": "function"
    },
    {
      "inputs": [
        {
          "internalType": "address",
          "name": "o",
          "type": "address"
        }
      ],
      "name": "setOwner",
      "outputs": [],
      "stateMutability": "nonpayable",
      "type": "function"
    },
    {
      "inputs": [
        {
          "components": [
            {
              "internalType": "uint256",
              "name": "fee",
              "type": "uint256"
            },
            {
              "internalType": "uint256",
              "name": "coveragePeriodDays",
              "type": "uint256"
            },
            {
              "internalType": "uint256",
              "name": "gracePeriodDays",
              "type": "uint256"
            }
          ],
          "internalType": "struct RegistrationTerms",
          "name": "terms",
          "type": "tuple"
        }
      ],
      "name": "setTerms",
      "outputs": [],
      "stateMutability": "nonpayable",
      "type": "function"
    },
    {
      "inputs": [
        {
          "internalType": "bytes",
          "name": "data",
          "type": "bytes"
        }
      ],
      "name": "upgrade",
      "outputs": [],
      "stateMutability": "nonpayable",
      "type": "function"
    },
    {
      "inputs": [],
      "name": "version",
      "outputs": [
        {
          "components": [
            {
              "internalType": "uint16",
              "name": "major",
              "type": "uint16"
            },
            {
              "internalType": "uint16",
              "name": "minor",
              "type": "uint16"
            }
          ],
          "internalType": "struct ModuleVersion",
          "name": "",
          "type": "tuple"
        }
      ],
      "stateMutability": "pure",
      "type": "function"
    },
    {
      "inputs": [
        {
          "internalType": "uint256",
          "name": "amount",
          "type": "uint256"
        }
      ],
      "name": "withdraw",
      "outputs": [],
      "stateMutability": "nonpayable",
      "type": "function"
    }
  ],
  "bytecode": "0x60c06040523480156200001157600080fd5b50604051620021ff380380620021ff833981016040819052620000349162000163565b8051819081906001600160a01b0316620000b05760405162461bcd60e51b815260206004820152603260248201527f42617365456e746974793a206d6f64756c652072656769737472792063616e6e6044820152716f74206265207a65726f206164647265737360701b60648201526084015b60405180910390fd5b60208101516001600160a01b0316620001275760405162461bcd60e51b815260206004820152603260248201527f42617365456e746974793a206f776e696e672072656769737472792063616e6e6044820152716f74206265207a65726f206164647265737360701b6064820152608401620000a7565b80516001600160a01b039081166080526020909101511660a05250620001d59050565b6001600160a01b03811681146200016057600080fd5b50565b6000604082840312156200017657600080fd5b604080519081016001600160401b0381118282101715620001a757634e487b7160e01b600052604160045260246000fd5b6040528251620001b7816200014a565b81526020830151620001c9816200014a565b60208201529392505050565b60805160a051611fe16200021e600039600081816104c4015281816108a8015281816109b701528181610d8801526112270152600081816104f8015261059e0152611fe16000f3fe6080604052600436106101cd5760003560e01c80637e6e1551116100f7578063ac60aee511610095578063e20eea0f11610064578063e20eea0f1461054f578063e8906a2d1461056f578063edec79521461058f578063f61ddc0e1461026f57600080fd5b8063ac60aee5146104b2578063b95459e4146104e6578063d18611d61461051a578063d547741f1461052f57600080fd5b80638d361e43116100d15780638d361e431461043d5780638da5cb5b1461045d57806391d14854146104725780639dcaea8d1461049257600080fd5b80637e6e1551146103f357806380599e4b1461040857806386b70bed1461042857600080fd5b80632e1a7d4d1161016f5780634f05c1c81161013e5780634f05c1c81461039157806354fd4d50146103a65780636e467f271461026f5780637df73e271461021d57600080fd5b80632e1a7d4d146102fa5780632f2ff15d1461031a57806331d582fc1461033a5780634173b4171461035a57600080fd5b806324a6c532116101ab57806324a6c5321461026f578063253946451461028f57806325a528b4146102af57806327ee999d146102da57600080fd5b806306fdde03146101d25780630a7ee8a01461021d57806313af40351461024d575b600080fd5b3480156101de57600080fd5b50610207604051806040016040528060098152602001682932b3b4b9ba3930b960b91b81525081565b604051610214919061166c565b60405180910390f35b34801561022957600080fd5b5061023d6102383660046116db565b6105c2565b6040519015158152602001610214565b34801561025957600080fd5b5061026d6102683660046116db565b610647565b005b34801561027b57600080fd5b5061026d61028a3660046116db565b61075c565b34801561029b57600080fd5b5061026d6102aa366004611741565b6107ee565b6102c26102bd36600461191a565b610915565b6040516001600160a01b039091168152602001610214565b3480156102e657600080fd5b5061026d6102f5366004611a15565b6109ac565b34801561030657600080fd5b5061026d610315366004611a52565b610a4a565b34801561032657600080fd5b5061026d610335366004611a6b565b610b1f565b34801561034657600080fd5b5061026d610355366004611a9b565b610c31565b34801561036657600080fd5b5061036f610cff565b6040805182518152602080840151908201529181015190820152606001610214565b34801561039d57600080fd5b5061023d610d52565b3480156103b257600080fd5b50604080518082018252600080825260209182018190528251808401845260018082529083019182528351908152905161ffff169181019190915201610214565b3480156103ff57600080fd5b5061023d610d65565b34801561041457600080fd5b5061026d610423366004611a15565b610d7d565b34801561043457600080fd5b5061023d610e17565b34801561044957600080fd5b5061026d610458366004611ab3565b610e21565b34801561046957600080fd5b506102c2610efd565b34801561047e57600080fd5b5061023d61048d366004611a6b565b610f71565b34801561049e57600080fd5b5061026d6104ad366004611b28565b610ffe565b3480156104be57600080fd5b506102c27f000000000000000000000000000000000000000000000000000000000000000081565b3480156104f257600080fd5b506102c27f000000000000000000000000000000000000000000000000000000000000000081565b34801561052657600080fd5b5061026d61121c565b34801561053b57600080fd5b5061026d61054a366004611a6b565b6112aa565b34801561055b57600080fd5b5061026d61056a366004611741565b611394565b34801561057b57600080fd5b5061026d61058a366004611ab3565b61143b565b34801561059b57600080fd5b507f00000000000000000000000000000000000000000000000000000000000000006102c2565b604051637df73e2760e01b81526001600160a01b038216600482015260009073__$a5a42e46683ad9c79b7b86d5ff60fdf4c1$__90637df73e2790602401602060405180830381865af415801561061d573d6000803e3d6000fd5b505050506040513d601f19601f820116820180604052508101906106419190611bab565b92915050565b336001600160a01b031673__$a5a42e46683ad9c79b7b86d5ff60fdf4c1$__638da5cb5b6040518163ffffffff1660e01b8152600401602060405180830381865af415801561069a573d6000803e3d6000fd5b505050506040513d601f19601f820116820180604052508101906106be9190611bc8565b6001600160a01b0316146106ed5760405162461bcd60e51b81526004016106e490611be5565b60405180910390fd5b6040516313af403560e01b81526001600160a01b038216600482015273__$a5a42e46683ad9c79b7b86d5ff60fdf4c1$__906313af4035906024015b60006040518083038186803b15801561074157600080fd5b505af4158015610755573d6000803e3d6000fd5b5050505050565b604051637df73e2760e01b815233600482015273__$a5a42e46683ad9c79b7b86d5ff60fdf4c1$__90637df73e2790602401602060405180830381865af41580156107ab573d6000803e3d6000fd5b505050506040513d601f19601f820116820180604052508101906107cf9190611bab565b6107eb5760405162461bcd60e51b81526004016106e490611c28565b50565b604051632474521560e21b8152600080516020611f8c833981519152600482015233602482015273__$a5a42e46683ad9c79b7b86d5ff60fdf4c1$__906391d1485490604401602060405180830381865af4158015610851573d6000803e3d6000fd5b505050506040513d601f19601f820116820180604052508101906108759190611bab565b6108915760405162461bcd60e51b81526004016106e490611c6a565b60405163c625e0ad60e01b81526001600160a01b037f0000000000000000000000000000000000000000000000000000000000000000169063c625e0ad906108df9085908590600401611cac565b600060405180830381600087803b1580156108f957600080fd5b505af115801561090d573d6000803e3d6000fd5b505050505050565b604051637df73e2760e01b815233600482015260009073__$a5a42e46683ad9c79b7b86d5ff60fdf4c1$__90637df73e2790602401602060405180830381865af4158015610967573d6000803e3d6000fd5b505050506040513d601f19601f8201168201806040525081019061098b9190611bab565b6109a75760405162461bcd60e51b81526004016106e490611c28565b919050565b336001600160a01b037f000000000000000000000000000000000000000000000000000000000000000016146109f45760405162461bcd60e51b81526004016106e490611cdb565b60006109fe611517565b805460ff191691151591909117905560405133907f246589c99dd263c9b64a2b544e24074c282ca479ba3d2a0e649f9eeaca1e2d6290610a3f90849061166c565b60405180910390a250565b336001600160a01b031673__$a5a42e46683ad9c79b7b86d5ff60fdf4c1$__638da5cb5b6040518163ffffffff1660e01b8152600401602060405180830381865af4158015610a9d573d6000803e3d6000fd5b505050506040513d601f19601f82011682018060405250810190610ac19190611bc8565b6001600160a01b031614610ae75760405162461bcd60e51b81526004016106e490611be5565b604051632e1a7d4d60e01b81526004810182905273__$cb183d3fe110e97b3d919d8dcd9dc82049$__90632e1a7d4d90602401610729565b604051632474521560e21b8152600080516020611f8c833981519152600482015233602482015273__$a5a42e46683ad9c79b7b86d5ff60fdf4c1$__906391d1485490604401602060405180830381865af4158015610b82573d6000803e3d6000fd5b505050506040513d601f19601f82011682018060405250810190610ba69190611bab565b610bc25760405162461bcd60e51b81526004016106e490611c6a565b604051632f2ff15d60e01b8152600481018390526001600160a01b038216602482015273__$a5a42e46683ad9c79b7b86d5ff60fdf4c1$__90632f2ff15d906044015b60006040518083038186803b158015610c1d57600080fd5b505af415801561090d573d6000803e3d6000fd5b604051632474521560e21b8152600080516020611f8c833981519152600482015233602482015273__$a5a42e46683ad9c79b7b86d5ff60fdf4c1$__906391d1485490604401602060405180830381865af4158015610c94573d6000803e3d6000fd5b505050506040513d601f19601f82011682018060405250810190610cb89190611bab565b610cd45760405162461bcd60e51b81526004016106e490611c6a565b80610cdd6115ad565b813581556020820135600182015560408201356002820155505050565b505050565b610d2360405180606001604052806000815260200160008152602001600081525090565b610d2b6115ad565b60408051606081018252825481526001830154602082015260029092015490820152919050565b6000610d5c611610565b5460ff16919050565b6000610d6f611517565b54610100900460ff16919050565b336001600160a01b037f00000000000000000000000000000000000000000000000000000000000000001614610dc55760405162461bcd60e51b81526004016106e490611cdb565b6001610dcf611517565b80549115156101000261ff001990921691909117905560405133907fbf430175840309fcb4cce13557429998477f9f95733cb0d42c170af8aa225d0690610a3f90849061166c565b6000610d5c611517565b604051632474521560e21b8152600080516020611f8c833981519152600482015233602482015273__$a5a42e46683ad9c79b7b86d5ff60fdf4c1$__906391d1485490604401602060405180830381865af4158015610e84573d6000803e3d6000fd5b505050506040513d601f19601f82011682018060405250810190610ea89190611bab565b610ec45760405162461bcd60e51b81526004016106e490611c6a565b604051638d361e4360e01b815273__$a5a42e46683ad9c79b7b86d5ff60fdf4c1$__90638d361e4390610c059085908590600401611d28565b600073__$a5a42e46683ad9c79b7b86d5ff60fdf4c1$__638da5cb5b6040518163ffffffff1660e01b8152600401602060405180830381865af4158015610f48573d6000803e3d6000fd5b505050506040513d601f19601f82011682018060405250810190610f6c9190611bc8565b905090565b604051632474521560e21b8152600481018390526001600160a01b038216602482015260009073__$a5a42e46683ad9c79b7b86d5ff60fdf4c1$__906391d1485490604401602060405180830381865af4158015610fd3573d6000803e3d6000fd5b505050506040513d601f19601f82011682018060405250810190610ff79190611bab565b9392505050565b6000611008611610565b80549091506201000090046001600160a01b0316156110695760405162461bcd60e51b815260206004820152601e60248201527f5265676973747261723a20616c726561647920696e697469616c697a6564000060448201526064016106e4565b6001600160a01b0386166110cf5760405162461bcd60e51b815260206004820152602760248201527f5265676973747261723a206f776e65722063616e6e6f74206265207a65726f206044820152666164647265737360c81b60648201526084016106e4565b8361111c5760405162461bcd60e51b815260206004820152601f60248201527f5265676973747261723a206e616d652063616e6e6f7420626520656d7074790060448201526064016106e4565b805462010000600160b01b031916620100006001600160a01b038816021781556001810161114b858783611df2565b50600061115a83850185611eb2565b9050806111656115ad565b815181556020820151600182015560409091015160029091015573__$a5a42e46683ad9c79b7b86d5ff60fdf4c1$__63d9ac971f8860006040519080825280602002602001820160405280156111c5578160200160208202803683370190505b506040518363ffffffff1660e01b81526004016111e3929190611f0e565b60006040518083038186803b1580156111fb57600080fd5b505af415801561120f573d6000803e3d6000fd5b5050505050505050505050565b336001600160a01b037f000000000000000000000000000000000000000000000000000000000000000016146112645760405162461bcd60e51b81526004016106e490611cdb565b600161126e611517565b805460ff191691151591909117905560405133907f54ca6a4cb143be493713a7079cc0d6cdbbf0688ee68398b4354b056088f2cbf590600090a2565b604051632474521560e21b8152600080516020611f8c833981519152600482015233602482015273__$a5a42e46683ad9c79b7b86d5ff60fdf4c1$__906391d1485490604401602060405180830381865af415801561130d573d6000803e3d6000fd5b505050506040513d601f19601f820116820180604052508101906113319190611bab565b61134d5760405162461bcd60e51b81526004016106e490611c6a565b60405163d547741f60e01b8152600481018390526001600160a01b038216602482015273__$a5a42e46683ad9c79b7b86d5ff60fdf4c1$__9063d547741f90604401610c05565b604051632474521560e21b8152600080516020611f8c833981519152600482015233602482015273__$a5a42e46683ad9c79b7b86d5ff60fdf4c1$__906391d1485490604401602060405180830381865af41580156113f7573d6000803e3d6000fd5b505050506040513d601f19601f8201168201806040525081019061141b9190611bab565b6114375760405162461bcd60e51b81526004016106e490611c6a565b5050565b604051632474521560e21b8152600080516020611f8c833981519152600482015233602482015273__$a5a42e46683ad9c79b7b86d5ff60fdf4c1$__906391d1485490604401602060405180830381865af415801561149e573d6000803e3d6000fd5b505050506040513d601f19601f820116820180604052508101906114c29190611bab565b6114de5760405162461bcd60e51b81526004016106e490611c6a565b60405163e8906a2d60e01b815273__$a5a42e46683ad9c79b7b86d5ff60fdf4c1$__9063e8906a2d90610c059085908590600401611d28565b60408051808201909152601881527f78722e61637469766174696f6e2e76312e73746f72616765000000000000000060209091015260008060ff61157c60017fbdfc4f9279b6914d072e91c3452c88ca0bfbcebcba4de5f40748c7663e67029e611f6a565b60405160200161158e91815260200190565b60408051601f1981840301815291905280516020909101201692915050565b6040805180820190915260208082527f78722e726567697374726174696f6e2e7465726d732e76312e73746f7261676591015260008060ff61157c60017f1327f49f130d53aa8da40cf208c11cd4d9f6641443720a1d436a61d50ac5e6dd611f6a565b60408051808201909152601481527378722e656e746974792e73746f726167652e763160601b60209091015260008060ff61157c60017fdefc82a28b6578c2a63b29b15450260a5e998242a6300b7fcb30814ee74ae188611f6a565b60006020808352835180602085015260005b8181101561169a5785810183015185820160400152820161167e565b506000604082860101526040601f19601f8301168501019250505092915050565b6001600160a01b03811681146107eb57600080fd5b80356109a7816116bb565b6000602082840312156116ed57600080fd5b8135610ff7816116bb565b60008083601f84011261170a57600080fd5b50813567ffffffffffffffff81111561172257600080fd5b60208301915083602082850101111561173a57600080fd5b9250929050565b6000806020838503121561175457600080fd5b823567ffffffffffffffff81111561176b57600080fd5b611777858286016116f8565b90969095509350505050565b634e487b7160e01b600052604160045260246000fd5b60405160c0810167ffffffffffffffff811182821017156117bc576117bc611783565b60405290565b80151581146107eb57600080fd5b80356109a7816117c2565b600082601f8301126117ec57600080fd5b813567ffffffffffffffff8082111561180757611807611783565b604051601f8301601f19908116603f0116810190828211818310171561182f5761182f611783565b8160405283815286602085880101111561184857600080fd5b836020870160208301376000602085830101528094505050505092915050565b600060c0828403121561187a57600080fd5b611882611799565b9050813567ffffffffffffffff8082111561189c57600080fd5b6118a8858386016117db565b835260208401359150808211156118be57600080fd5b6118ca858386016117db565b602084015260408401359150808211156118e357600080fd5b506118f0848285016117db565b604083015250606082013560608201526080820135608082015260a082013560a082015292915050565b60006020828403121561192c57600080fd5b813567ffffffffffffffff8082111561194457600080fd5b9083019060c0828603121561195857600080fd5b611960611799565b611969836117d0565b8152611977602084016116d0565b602082015260408301358281111561198e57600080fd5b61199a87828601611868565b6040830152506060830135828111156119b257600080fd5b6119be878286016117db565b6060830152506080830135828111156119d657600080fd5b6119e2878286016117db565b60808301525060a0830135828111156119fa57600080fd5b611a06878286016117db565b60a08301525095945050505050565b600060208284031215611a2757600080fd5b813567ffffffffffffffff811115611a3e57600080fd5b611a4a848285016117db565b949350505050565b600060208284031215611a6457600080fd5b5035919050565b60008060408385031215611a7e57600080fd5b823591506020830135611a90816116bb565b809150509250929050565b600060608284031215611aad57600080fd5b50919050565b60008060208385031215611ac657600080fd5b823567ffffffffffffffff80821115611ade57600080fd5b818501915085601f830112611af257600080fd5b813581811115611b0157600080fd5b8660208260051b8501011115611b1657600080fd5b60209290920196919550909350505050565b600080600080600060608688031215611b4057600080fd5b8535611b4b816116bb565b9450602086013567ffffffffffffffff80821115611b6857600080fd5b611b7489838a016116f8565b90965094506040880135915080821115611b8d57600080fd5b50611b9a888289016116f8565b969995985093965092949392505050565b600060208284031215611bbd57600080fd5b8151610ff7816117c2565b600060208284031215611bda57600080fd5b8151610ff7816116bb565b60208082526023908201527f42617365456e746974793a2063616c6c6572206973206e6f7420746865206f776040820152623732b960e91b606082015260800190565b60208082526022908201527f42617365456e746974793a2063616c6c6572206973206e6f742061207369676e60408201526132b960f11b606082015260800190565b60208082526022908201527f42617365456e746974793a2063616c6c6572206973206e6f7420616e2061646d60408201526134b760f11b606082015260800190565b60208152816020820152818360408301376000818301604090810191909152601f909201601f19160101919050565b6020808252602d908201527f42617365456e746974793a2063616c6c6572206973206e6f7420746865206f7760408201526c6e696e6720726567697374727960981b606082015260800190565b60208082528181018390526000908460408401835b86811015611d6b578235611d50816116bb565b6001600160a01b031682529183019190830190600101611d3d565b509695505050505050565b600181811c90821680611d8a57607f821691505b602082108103611aad57634e487b7160e01b600052602260045260246000fd5b601f821115610cfa576000816000526020600020601f850160051c81016020861015611dd35750805b601f850160051c820191505b8181101561090d57828155600101611ddf565b67ffffffffffffffff831115611e0a57611e0a611783565b611e1e83611e188354611d76565b83611daa565b6000601f841160018114611e525760008515611e3a5750838201355b600019600387901b1c1916600186901b178355610755565b600083815260209020601f19861690835b82811015611e835786850135825560209485019460019092019101611e63565b5086821015611ea05760001960f88860031b161c19848701351681555b505060018560011b0183555050505050565b600060608284031215611ec457600080fd5b6040516060810181811067ffffffffffffffff82111715611ee757611ee7611783565b80604052508235815260208301356020820152604083013560408201528091505092915050565b6001600160a01b038381168252604060208084018290528451918401829052600092858201929091906060860190855b81811015611f5c578551851683529483019491830191600101611f3e565b509098975050505050505050565b8181038181111561064157634e487b7160e01b600052601160045260246000fdfe2172861495e7b85edac73e3cd5fbb42dd675baadf627720e687bcfdaca025096a26469706673582212207155536f6ba033a6dae4d364a627c799a5ef761fa25f8c5b179cc18bd9337b4b64736f6c63430008180033",
  "linkReferences": {
    "contracts/libraries/LibAccess.sol": {
      "LibAccess": [
        {
          "length": 20,
          "start": 2049
        },
        {
          "length": 20,
          "start": 2161
        },
        {
          "length": 20,
          "start": 2345
        },
        {
          "length": 20,
          "start": 2447
        },
        {
          "length": 20,
          "start": 2613
        },
        {
          "length": 20,
          "start": 2891
        },
        {
          "length": 20,
          "start": 3188
        },
        {
          "length": 20,
          "start": 3430
        },
        {
          "length": 20,
          "start": 3589
        },
        {
          "length": 20,
          "start": 3704
        },
        {
          "length": 20,
          "start": 4200
        },
        {
          "length": 20,
          "start": 4337
        },
        {
          "length": 20,
          "start": 4383
        },
        {
          "length": 20,
          "start": 4535
        },
        {
          "length": 20,
          "start": 5023
        },
        {
          "length": 20,
          "start": 5361
        },
        {
          "length": 20,
          "start": 5520
        },
        {
          "length": 20,
          "start": 5595
        },
        {
          "length": 20,
          "start": 5762
        },
        {
          "length": 20,
          "start": 5899
        }
      ]
    },
    "contracts/libraries/LibFunds.sol": {
      "LibFunds": [
        {
          "length": 20,
          "start": 3355
        }
      ]
    }
  },
  "deployedLinkReferences": {
    "contracts/libraries/LibAccess.sol": {
      "LibAccess": [
        {
          "length": 20,
          "start": 1507
        },
        {
          "length": 20,
          "start": 1619
        },
        {
          "length": 20,
          "start": 1803
        },
        {
          "length": 20,
          "start": 1905
        },
        {
          "length": 20,
          "start": 2071
        },
        {
          "length": 20,
          "start": 2349
        },
        {
          "length": 20,
          "start": 2646
        },
        {
          "length": 20,
          "start": 2888
        },
        {
          "length": 20,
          "start": 3047
        },
        {
          "length": 20,
          "start": 3162
        },
        {
          "length": 20,
          "start": 3658
        },
        {
          "length": 20,
          "start": 3795
        },
        {
          "length": 20,
          "start": 3841
        },
        {
          "length": 20,
          "start": 3993
        },
        {
          "length": 20,
          "start": 4481
        },
        {
          "length": 20,
          "start": 4819
        },
        {
          "length": 20,
          "start": 4978
        },
        {
          "length": 20,
          "start": 5053
        },
        {
          "length": 20,
          "start": 5220
        },
        {
          "length": 20,
          "start": 5357
        }
      ]
    },
    "contracts/libraries/LibFunds.sol": {
      "LibFunds": [
        {
          "length": 20,
          "start": 2813
        }
      ]
    }
  }
}