{
  "_format": "hh-sol-artifact-1",
  "contractName": "RegistrarFactoryProxy",
  "sourceName": "contracts/modules/registrar-factory/RegistrarFactoryProxy.sol",
  "abi": [
    {
      "inputs": [
        {
          "components": [
            {
              "internalType": "address",
              "name": "owner",
              "type": "address"
            },
            {
              "internalType": "address[]",
              "name": "admins",
              "type": "address[]"
            }
          ],
          "internalType": "struct BaseProxyContstructorArgs",
          "name": "args",
          "type": "tuple"
        }
      ],
      "stateMutability": "nonpayable",
      "type": "constructor"
    },
    {
      "anonymous": false,
      "inputs": [
        {
          "indexed": true,
          "internalType": "address",
          "name": "newImpl",
          "type": "address"
        },
        {
          "components": [
            {
              "internalType": "uint16",
              "name": "major",
              "type": "uint16"
            },
            {
              "internalType": "uint16",
              "name": "minor",
              "type": "uint16"
            }
          ],
          "indexed": false,
          "internalType": "struct ModuleVersion",
          "name": "version",
          "type": "tuple"
        }
      ],
      "name": "ProxyImplementationChanged",
      "type": "event"
    },
    {
      "stateMutability": "payable",
      "type": "fallback"
    },
    {
      "inputs": [],
      "name": "implementationVersion",
      "outputs": [
        {
          "components": [
            {
              "internalType": "uint16",
              "name": "major",
              "type": "uint16"
            },
            {
              "internalType": "uint16",
              "name": "minor",
              "type": "uint16"
            }
          ],
          "internalType": "struct ModuleVersion",
          "name": "",
          "type": "tuple"
        }
      ],
      "stateMutability": "view",
      "type": "function"
    },
    {
      "inputs": [
        {
          "internalType": "address",
          "name": "_newImplementation",
          "type": "address"
        }
      ],
      "name": "setImplementation",
      "outputs": [],
      "stateMutability": "nonpayable",
      "type": "function"
    },
    {
      "inputs": [
        {
          "internalType": "address",
          "name": "tgt",
          "type": "address"
        },
        {
          "internalType": "bytes",
          "name": "data",
          "type": "bytes"
        }
      ],
      "name": "staticLoop",
      "outputs": [
        {
          "internalType": "bytes",
          "name": "",
          "type": "bytes"
        }
      ],
      "stateMutability": "nonpayable",
      "type": "function"
    },
    {
      "stateMutability": "payable",
      "type": "receive"
    }
  ],
  "bytecode": "0x60806040523480156200001157600080fd5b5060405162000ca238038062000ca283398101604081905262000034916200025b565b805181906001600160a01b0316620000a25760405162461bcd60e51b815260206004820152602760248201527f436f726550726f78793a206f776e65722063616e6e6f74206265207a65726f206044820152666164647265737360c81b606482015260840160405180910390fd5b8051602082015160405163d9ac971f60e01b815273__$a5a42e46683ad9c79b7b86d5ff60fdf4c1$__9263d9ac971f92620000e09260040162000359565b60006040518083038186803b158015620000f957600080fd5b505af41580156200010e573d6000803e3d6000fd5b50505050506200013860405180606001604052806021815260200162000c8160219139306200013f565b5062000419565b6200018c828260405160240162000158929190620003b7565b60408051601f198184030181529190526020810180516001600160e01b0390811663319af33360e01b179091526200019016565b5050565b620001a681620001a960201b620005711760201c565b50565b60006a636f6e736f6c652e6c6f679050600080835160208501845afa505050565b634e487b7160e01b600052604160045260246000fd5b604080519081016001600160401b0381118282101715620002055762000205620001ca565b60405290565b604051601f8201601f191681016001600160401b0381118282101715620002365762000236620001ca565b604052919050565b80516001600160a01b03811681146200025657600080fd5b919050565b600060208083850312156200026f57600080fd5b82516001600160401b03808211156200028757600080fd5b90840190604082870312156200029c57600080fd5b620002a6620001e0565b620002b1836200023e565b81528383015182811115620002c557600080fd5b80840193505086601f840112620002db57600080fd5b825182811115620002f057620002f0620001ca565b8060051b9250620003038584016200020b565b81815292840185019285810190898511156200031e57600080fd5b948601945b84861015620003475762000337866200023e565b8252948601949086019062000323565b95830195909552509695505050505050565b6001600160a01b038381168252604060208084018290528451918401829052600092858201929091906060860190855b81811015620003a957855185168352948301949183019160010162000389565b509098975050505050505050565b604081526000835180604084015260005b81811015620003e75760208187018101516060868401015201620003c8565b50600060608285018101919091526001600160a01b03949094166020840152601f01601f191690910190910192915050565b61085880620004296000396000f3fe6080604052600436106100385760003560e01c806306bfcec6146100bc57806310925940146100f8578063d784d426146101255761003f565b3661003f57005b6000610049610145565b5460408051808201909152601a81527f42617365436f726550726f78793a2046616c6c6261636b20746f00000000000060208201526001600160a01b03909116915061009590826101db565b60405136600082376000803683855af43d806000843e8180156100b6578184f35b8184fd5b005b3480156100c857600080fd5b506100d1610224565b60408051825161ffff90811682526020938401511692810192909252015b60405180910390f35b34801561010457600080fd5b5061011861011336600461060b565b61026b565b6040516100ef91906106f7565b34801561013157600080fd5b506100ba610140366004610711565b610319565b60408051808201909152601881527f78722e636f72652e70726f78792e73746f726167652e7631000000000000000060209091015260008060ff6101aa60017fb1163b579b809663cc4ceb6dc6de3859bb0da0f6817cd88b9cc7dd85b2825f4861072c565b6040516020016101bc91815260200190565b60408051601f1981840301815291905280516020909101201692915050565b61022082826040516024016101f1929190610753565b60408051601f198184030181529190526020810180516001600160e01b031663319af33360e01b179052610592565b5050565b6040805180820190915260008082526020820152610240610145565b604080518082019091526001919091015461ffff808216835262010000909104166020820152919050565b60603330146102c15760405162461bcd60e51b815260206004820152601e60248201527f456e7469747950726f78793a206f6e6c792073656c6620616c6c6f776564000060448201526064015b60405180910390fd5b6102f560405180604001604052806012815260200171537461746963206c6f6f706261636b20746f60701b815250846101db565b600080835160208501865af43d604051816000823e828015610315578282f35b8282fd5b604051632474521560e21b81527f2172861495e7b85edac73e3cd5fbb42dd675baadf627720e687bcfdaca025096600482015233602482015273__$a5a42e46683ad9c79b7b86d5ff60fdf4c1$__906391d1485490604401602060405180830381865af415801561038e573d6000803e3d6000fd5b505050506040513d601f19601f820116820180604052508101906103b2919061077d565b6103fe5760405162461bcd60e51b815260206004820152601f60248201527f456e7469747950726f78793a206f6e6c792061646d696e20616c6c6f7765640060448201526064016102b8565b6001600160a01b03811661046c5760405162461bcd60e51b815260206004820152602f60248201527f456e7469747950726f78793a20696d706c656d656e746174696f6e206973207460448201526e6865207a65726f206164647265737360881b60648201526084016102b8565b6000610476610145565b80546001600160a01b0319166001600160a01b03841690811782556040805163054fd4d560e41b815281519394506000936354fd4d50926004808401939192918290030181865afa1580156104cf573d6000803e3d6000fd5b505050506040513d601f19601f820116820180604052508101906104f391906107b1565b80516001840180546020808501805161ffff908116620100000263ffffffff1990941695811695861793909317909355604080519485529251909116908301529192506001600160a01b038516917f62856e62ea3f3cabc4ad2d32ac6d70e1f55ed589c915439c4dec9f5c729dd0f0910160405180910390a2505050565b60006a636f6e736f6c652e6c6f679050600080835160208501845afa505050565b61059b81610571565b50565b6105a661080c565b565b80356001600160a01b03811681146105bf57600080fd5b919050565b634e487b7160e01b600052604160045260246000fd5b604051601f8201601f1916810167ffffffffffffffff81118282101715610603576106036105c4565b604052919050565b6000806040838503121561061e57600080fd5b610627836105a8565b915060208084013567ffffffffffffffff8082111561064557600080fd5b818601915086601f83011261065957600080fd5b81358181111561066b5761066b6105c4565b61067d601f8201601f191685016105da565b9150808252878482850101111561069357600080fd5b80848401858401376000848284010152508093505050509250929050565b6000815180845260005b818110156106d7576020818501810151868301820152016106bb565b506000602082860101526020601f19601f83011685010191505092915050565b60208152600061070a60208301846106b1565b9392505050565b60006020828403121561072357600080fd5b61070a826105a8565b8181038181111561074d57634e487b7160e01b600052601160045260246000fd5b92915050565b60408152600061076660408301856106b1565b905060018060a01b03831660208301529392505050565b60006020828403121561078f57600080fd5b8151801515811461070a57600080fd5b805161ffff811681146105bf57600080fd5b6000604082840312156107c357600080fd5b6040516040810181811067ffffffffffffffff821117156107e6576107e66105c4565b6040526107f28361079f565b81526108006020840161079f565b60208201529392505050565b634e487b7160e01b600052605160045260246000fdfea2646970667358221220c2d0ced71dd9f2f88ccd35933ca8692255baa97ba490afecf7a160d0e221e9f364736f6c63430008180033526567697374726172466163746f727950726f787920636f6e7374727563746f72",
  "linkReferences": {
    "contracts/libraries/LibAccess.sol": {
      "LibAccess": [
        {
          "length": 20,
          "start": 184
        },
        {
          "length": 20,
          "start": 1917
        }
      ]
    }
  },
  "deployedLinkReferences": {
    "contracts/libraries/LibAccess.sol": {
      "LibAccess": [
        {
          "length": 20,
          "start": 852
        }
      ]
    }
  }
}