{
  "_format": "hh-sol-artifact-1",
  "contractName": "Registrar",
  "sourceName": "contracts/registrar/instance/Registrar.sol",
  "abi": [
    {
      "inputs": [
        {
          "components": [
            {
              "internalType": "contract IRegistry",
              "name": "owningRegistry",
              "type": "address"
            }
          ],
          "internalType": "struct BaseEntityConstructorArgs",
          "name": "args",
          "type": "tuple"
        }
      ],
      "stateMutability": "nonpayable",
      "type": "constructor"
    },
    {
      "anonymous": false,
      "inputs": [
        {
          "indexed": true,
          "internalType": "address",
          "name": "by",
          "type": "address"
        },
        {
          "indexed": false,
          "internalType": "string",
          "name": "reason",
          "type": "string"
        }
      ],
      "name": "EntityDeactivated",
      "type": "event"
    },
    {
      "anonymous": false,
      "inputs": [
        {
          "indexed": true,
          "internalType": "address",
          "name": "by",
          "type": "address"
        }
      ],
      "name": "EntityReactivated",
      "type": "event"
    },
    {
      "anonymous": false,
      "inputs": [
        {
          "indexed": true,
          "internalType": "address",
          "name": "by",
          "type": "address"
        },
        {
          "indexed": false,
          "internalType": "string",
          "name": "reason",
          "type": "string"
        }
      ],
      "name": "EntityRemoved",
      "type": "event"
    },
    {
      "anonymous": false,
      "inputs": [
        {
          "components": [
            {
              "internalType": "uint16",
              "name": "coveragePeriodDays",
              "type": "uint16"
            },
            {
              "internalType": "uint16",
              "name": "gracePeriodDays",
              "type": "uint16"
            },
            {
              "internalType": "uint256",
              "name": "fee",
              "type": "uint256"
            }
          ],
          "indexed": false,
          "internalType": "struct RegistrationTerms",
          "name": "newTerms",
          "type": "tuple"
        }
      ],
      "name": "TermsChanged",
      "type": "event"
    },
    {
      "inputs": [
        {
          "internalType": "address[]",
          "name": "signers",
          "type": "address[]"
        }
      ],
      "name": "addSigners",
      "outputs": [],
      "stateMutability": "nonpayable",
      "type": "function"
    },
    {
      "inputs": [
        {
          "internalType": "string",
          "name": "reason",
          "type": "string"
        }
      ],
      "name": "deactivate",
      "outputs": [],
      "stateMutability": "nonpayable",
      "type": "function"
    },
    {
      "inputs": [
        {
          "internalType": "address",
          "name": "world",
          "type": "address"
        }
      ],
      "name": "deactivateWorld",
      "outputs": [],
      "stateMutability": "nonpayable",
      "type": "function"
    },
    {
      "inputs": [],
      "name": "getTerms",
      "outputs": [
        {
          "components": [
            {
              "internalType": "uint16",
              "name": "coveragePeriodDays",
              "type": "uint16"
            },
            {
              "internalType": "uint16",
              "name": "gracePeriodDays",
              "type": "uint16"
            },
            {
              "internalType": "uint256",
              "name": "fee",
              "type": "uint256"
            }
          ],
          "internalType": "struct RegistrationTerms",
          "name": "",
          "type": "tuple"
        }
      ],
      "stateMutability": "view",
      "type": "function"
    },
    {
      "inputs": [
        {
          "internalType": "bytes32",
          "name": "role",
          "type": "bytes32"
        },
        {
          "internalType": "address",
          "name": "account",
          "type": "address"
        }
      ],
      "name": "grantRole",
      "outputs": [],
      "stateMutability": "nonpayable",
      "type": "function"
    },
    {
      "inputs": [
        {
          "internalType": "bytes32",
          "name": "role",
          "type": "bytes32"
        },
        {
          "internalType": "address",
          "name": "account",
          "type": "address"
        }
      ],
      "name": "hasRole",
      "outputs": [
        {
          "internalType": "bool",
          "name": "",
          "type": "bool"
        }
      ],
      "stateMutability": "view",
      "type": "function"
    },
    {
      "inputs": [
        {
          "internalType": "address",
          "name": "owner",
          "type": "address"
        },
        {
          "internalType": "string",
          "name": "nm",
          "type": "string"
        },
        {
          "internalType": "bytes",
          "name": "initData",
          "type": "bytes"
        }
      ],
      "name": "init",
      "outputs": [],
      "stateMutability": "nonpayable",
      "type": "function"
    },
    {
      "inputs": [],
      "name": "isEntityActive",
      "outputs": [
        {
          "internalType": "bool",
          "name": "",
          "type": "bool"
        }
      ],
      "stateMutability": "view",
      "type": "function"
    },
    {
      "inputs": [],
      "name": "isRemoved",
      "outputs": [
        {
          "internalType": "bool",
          "name": "",
          "type": "bool"
        }
      ],
      "stateMutability": "view",
      "type": "function"
    },
    {
      "inputs": [
        {
          "internalType": "address",
          "name": "a",
          "type": "address"
        }
      ],
      "name": "isSigner",
      "outputs": [
        {
          "internalType": "bool",
          "name": "",
          "type": "bool"
        }
      ],
      "stateMutability": "view",
      "type": "function"
    },
    {
      "inputs": [],
      "name": "isStillActive",
      "outputs": [
        {
          "internalType": "bool",
          "name": "",
          "type": "bool"
        }
      ],
      "stateMutability": "view",
      "type": "function"
    },
    {
      "inputs": [
        {
          "internalType": "address",
          "name": "a",
          "type": "address"
        }
      ],
      "name": "isTermsOwnerSigner",
      "outputs": [
        {
          "internalType": "bool",
          "name": "",
          "type": "bool"
        }
      ],
      "stateMutability": "view",
      "type": "function"
    },
    {
      "inputs": [],
      "name": "name",
      "outputs": [
        {
          "internalType": "string",
          "name": "",
          "type": "string"
        }
      ],
      "stateMutability": "view",
      "type": "function"
    },
    {
      "inputs": [],
      "name": "owner",
      "outputs": [
        {
          "internalType": "address",
          "name": "",
          "type": "address"
        }
      ],
      "stateMutability": "view",
      "type": "function"
    },
    {
      "inputs": [],
      "name": "owningRegistry",
      "outputs": [
        {
          "internalType": "contract IRegistry",
          "name": "",
          "type": "address"
        }
      ],
      "stateMutability": "view",
      "type": "function"
    },
    {
      "inputs": [
        {
          "internalType": "bytes",
          "name": "data",
          "type": "bytes"
        }
      ],
      "name": "postUpgradeInit",
      "outputs": [],
      "stateMutability": "nonpayable",
      "type": "function"
    },
    {
      "inputs": [],
      "name": "reactivate",
      "outputs": [],
      "stateMutability": "nonpayable",
      "type": "function"
    },
    {
      "inputs": [
        {
          "internalType": "address",
          "name": "world",
          "type": "address"
        }
      ],
      "name": "reactivateWorld",
      "outputs": [],
      "stateMutability": "nonpayable",
      "type": "function"
    },
    {
      "inputs": [
        {
          "components": [
            {
              "internalType": "bool",
              "name": "sendTokensToWorldOwner",
              "type": "bool"
            },
            {
              "internalType": "address",
              "name": "owner",
              "type": "address"
            },
            {
              "components": [
                {
                  "internalType": "string",
                  "name": "x",
                  "type": "string"
                },
                {
                  "internalType": "string",
                  "name": "y",
                  "type": "string"
                },
                {
                  "internalType": "string",
                  "name": "z",
                  "type": "string"
                },
                {
                  "internalType": "uint256",
                  "name": "t",
                  "type": "uint256"
                },
                {
                  "internalType": "uint256",
                  "name": "p",
                  "type": "uint256"
                },
                {
                  "internalType": "uint256",
                  "name": "p_sub",
                  "type": "uint256"
                }
              ],
              "internalType": "struct VectorAddress",
              "name": "baseVector",
              "type": "tuple"
            },
            {
              "internalType": "string",
              "name": "name",
              "type": "string"
            },
            {
              "internalType": "bytes",
              "name": "vectorAuthoritySignature",
              "type": "bytes"
            },
            {
              "internalType": "bytes",
              "name": "initData",
              "type": "bytes"
            }
          ],
          "internalType": "struct CreateWorldArgs",
          "name": "args",
          "type": "tuple"
        }
      ],
      "name": "registerWorld",
      "outputs": [
        {
          "internalType": "address",
          "name": "world",
          "type": "address"
        }
      ],
      "stateMutability": "payable",
      "type": "function"
    },
    {
      "inputs": [
        {
          "internalType": "string",
          "name": "reason",
          "type": "string"
        }
      ],
      "name": "remove",
      "outputs": [],
      "stateMutability": "nonpayable",
      "type": "function"
    },
    {
      "inputs": [
        {
          "internalType": "address[]",
          "name": "signers",
          "type": "address[]"
        }
      ],
      "name": "removeSigners",
      "outputs": [],
      "stateMutability": "nonpayable",
      "type": "function"
    },
    {
      "inputs": [
        {
          "internalType": "address",
          "name": "world",
          "type": "address"
        }
      ],
      "name": "removeWorld",
      "outputs": [],
      "stateMutability": "nonpayable",
      "type": "function"
    },
    {
      "inputs": [
        {
          "internalType": "bytes32",
          "name": "role",
          "type": "bytes32"
        },
        {
          "internalType": "address",
          "name": "account",
          "type": "address"
        }
      ],
      "name": "revokeRole",
      "outputs": [],
      "stateMutability": "nonpayable",
      "type": "function"
    },
    {
      "inputs": [
        {
          "internalType": "address",
          "name": "o",
          "type": "address"
        }
      ],
      "name": "setOwner",
      "outputs": [],
      "stateMutability": "nonpayable",
      "type": "function"
    },
    {
      "inputs": [
        {
          "components": [
            {
              "internalType": "uint16",
              "name": "coveragePeriodDays",
              "type": "uint16"
            },
            {
              "internalType": "uint16",
              "name": "gracePeriodDays",
              "type": "uint16"
            },
            {
              "internalType": "uint256",
              "name": "fee",
              "type": "uint256"
            }
          ],
          "internalType": "struct RegistrationTerms",
          "name": "terms",
          "type": "tuple"
        }
      ],
      "name": "setTerms",
      "outputs": [],
      "stateMutability": "nonpayable",
      "type": "function"
    },
    {
      "inputs": [
        {
          "internalType": "bytes",
          "name": "data",
          "type": "bytes"
        }
      ],
      "name": "upgrade",
      "outputs": [],
      "stateMutability": "nonpayable",
      "type": "function"
    },
    {
      "inputs": [],
      "name": "version",
      "outputs": [
        {
          "components": [
            {
              "internalType": "uint16",
              "name": "major",
              "type": "uint16"
            },
            {
              "internalType": "uint16",
              "name": "minor",
              "type": "uint16"
            }
          ],
          "internalType": "struct ModuleVersion",
          "name": "",
          "type": "tuple"
        }
      ],
      "stateMutability": "pure",
      "type": "function"
    },
    {
      "inputs": [
        {
          "internalType": "uint256",
          "name": "amount",
          "type": "uint256"
        }
      ],
      "name": "withdraw",
      "outputs": [],
      "stateMutability": "nonpayable",
      "type": "function"
    }
  ],
  "bytecode": "0x60a06040523480156200001157600080fd5b506040516200214c3803806200214c8339810160408190526200003491620000c5565b8051819081906001600160a01b0316620000af5760405162461bcd60e51b815260206004820152603260248201527f42617365456e746974793a206f776e696e672072656769737472792063616e6e6044820152716f74206265207a65726f206164647265737360701b606482015260840160405180910390fd5b516001600160a01b0316608052506200012d9050565b600060208284031215620000d857600080fd5b604051602081016001600160401b03811182821017156200010957634e487b7160e01b600052604160045260246000fd5b60405282516001600160a01b03811681146200012457600080fd5b81529392505050565b608051611fe76200016560003960008181610497015281816108340152818161094301528181610c4801526110ff0152611fe76000f3fe6080604052600436106101b75760003560e01c80637e6e1551116100ec578063ac60aee51161008a578063e20eea0f11610064578063e20eea0f146104ee578063e8906a2d1461050e578063f61ddc0e14610259578063f92dc24f1461052e57600080fd5b8063ac60aee514610485578063d18611d6146104b9578063d547741f146104ce57600080fd5b80638d361e43116100c65780638d361e43146104105780638da5cb5b1461043057806391d14854146104455780639dcaea8d1461046557600080fd5b80637e6e1551146103c657806380599e4b146103db57806386b70bed146103fb57600080fd5b80632e1a7d4d116101595780634f05c1c8116101335780634f05c1c81461036457806354fd4d50146103795780636e467f27146102595780637df73e271461020757600080fd5b80632e1a7d4d146102e45780632f2ff15d146103045780634173b4171461032457600080fd5b806324a6c5321161019557806324a6c53214610259578063253946451461027957806325a528b41461029957806327ee999d146102c457600080fd5b806306fdde03146101bc5780630a7ee8a01461020757806313af403514610237575b600080fd5b3480156101c857600080fd5b506101f1604051806040016040528060098152602001682932b3b4b9ba3930b960b91b81525081565b6040516101fe91906115ff565b60405180910390f35b34801561021357600080fd5b5061022761022236600461166e565b61054e565b60405190151581526020016101fe565b34801561024357600080fd5b5061025761025236600461166e565b6105d3565b005b34801561026557600080fd5b5061025761027436600461166e565b6106e8565b34801561028557600080fd5b506102576102943660046116d4565b61077a565b6102ac6102a73660046118ad565b6108a1565b6040516001600160a01b0390911681526020016101fe565b3480156102d057600080fd5b506102576102df3660046119a8565b610938565b3480156102f057600080fd5b506102576102ff3660046119e5565b6109d6565b34801561031057600080fd5b5061025761031f3660046119fe565b610aab565b34801561033057600080fd5b50610339610bbd565b60408051825161ffff90811682526020808501519091169082015291810151908201526060016101fe565b34801561037057600080fd5b50610227610c12565b34801561038557600080fd5b50604080518082018252600080825260209182018190528251808401845260018082529083019182528351908152905161ffff1691810191909152016101fe565b3480156103d257600080fd5b50610227610c25565b3480156103e757600080fd5b506102576103f63660046119a8565b610c3d565b34801561040757600080fd5b50610227610cd7565b34801561041c57600080fd5b5061025761042b366004611a2e565b610ce1565b34801561043c57600080fd5b506102ac610dbd565b34801561045157600080fd5b506102276104603660046119fe565b610e31565b34801561047157600080fd5b50610257610480366004611aa3565b610ebe565b34801561049157600080fd5b506102ac7f000000000000000000000000000000000000000000000000000000000000000081565b3480156104c557600080fd5b506102576110f4565b3480156104da57600080fd5b506102576104e93660046119fe565b611182565b3480156104fa57600080fd5b506102576105093660046116d4565b61126c565b34801561051a57600080fd5b50610257610529366004611a2e565b611313565b34801561053a57600080fd5b50610257610549366004611b26565b6113ef565b604051637df73e2760e01b81526001600160a01b038216600482015260009073__$a5a42e46683ad9c79b7b86d5ff60fdf4c1$__90637df73e2790602401602060405180830381865af41580156105a9573d6000803e3d6000fd5b505050506040513d601f19601f820116820180604052508101906105cd9190611b3e565b92915050565b336001600160a01b031673__$a5a42e46683ad9c79b7b86d5ff60fdf4c1$__638da5cb5b6040518163ffffffff1660e01b8152600401602060405180830381865af4158015610626573d6000803e3d6000fd5b505050506040513d601f19601f8201168201806040525081019061064a9190611b5b565b6001600160a01b0316146106795760405162461bcd60e51b815260040161067090611b78565b60405180910390fd5b6040516313af403560e01b81526001600160a01b038216600482015273__$a5a42e46683ad9c79b7b86d5ff60fdf4c1$__906313af4035906024015b60006040518083038186803b1580156106cd57600080fd5b505af41580156106e1573d6000803e3d6000fd5b5050505050565b604051637df73e2760e01b815233600482015273__$a5a42e46683ad9c79b7b86d5ff60fdf4c1$__90637df73e2790602401602060405180830381865af4158015610737573d6000803e3d6000fd5b505050506040513d601f19601f8201168201806040525081019061075b9190611b3e565b6107775760405162461bcd60e51b815260040161067090611bbb565b50565b604051632474521560e21b8152600080516020611f92833981519152600482015233602482015273__$a5a42e46683ad9c79b7b86d5ff60fdf4c1$__906391d1485490604401602060405180830381865af41580156107dd573d6000803e3d6000fd5b505050506040513d601f19601f820116820180604052508101906108019190611b3e565b61081d5760405162461bcd60e51b815260040161067090611bfd565b60405163c625e0ad60e01b81526001600160a01b037f0000000000000000000000000000000000000000000000000000000000000000169063c625e0ad9061086b9085908590600401611c3f565b600060405180830381600087803b15801561088557600080fd5b505af1158015610899573d6000803e3d6000fd5b505050505050565b604051637df73e2760e01b815233600482015260009073__$a5a42e46683ad9c79b7b86d5ff60fdf4c1$__90637df73e2790602401602060405180830381865af41580156108f3573d6000803e3d6000fd5b505050506040513d601f19601f820116820180604052508101906109179190611b3e565b6109335760405162461bcd60e51b815260040161067090611bbb565b919050565b336001600160a01b037f000000000000000000000000000000000000000000000000000000000000000016146109805760405162461bcd60e51b815260040161067090611c6e565b600061098a6114aa565b805460ff191691151591909117905560405133907f246589c99dd263c9b64a2b544e24074c282ca479ba3d2a0e649f9eeaca1e2d62906109cb9084906115ff565b60405180910390a250565b336001600160a01b031673__$a5a42e46683ad9c79b7b86d5ff60fdf4c1$__638da5cb5b6040518163ffffffff1660e01b8152600401602060405180830381865af4158015610a29573d6000803e3d6000fd5b505050506040513d601f19601f82011682018060405250810190610a4d9190611b5b565b6001600160a01b031614610a735760405162461bcd60e51b815260040161067090611b78565b604051632e1a7d4d60e01b81526004810182905273__$cb183d3fe110e97b3d919d8dcd9dc82049$__90632e1a7d4d906024016106b5565b604051632474521560e21b8152600080516020611f92833981519152600482015233602482015273__$a5a42e46683ad9c79b7b86d5ff60fdf4c1$__906391d1485490604401602060405180830381865af4158015610b0e573d6000803e3d6000fd5b505050506040513d601f19601f82011682018060405250810190610b329190611b3e565b610b4e5760405162461bcd60e51b815260040161067090611bfd565b604051632f2ff15d60e01b8152600481018390526001600160a01b038216602482015273__$a5a42e46683ad9c79b7b86d5ff60fdf4c1$__90632f2ff15d906044015b60006040518083038186803b158015610ba957600080fd5b505af4158015610899573d6000803e3d6000fd5b6040805160608101825260008082526020820181905291810191909152610be2611540565b60408051606081018252825461ffff80821683526201000090910416602082015260019092015490820152919050565b6000610c1c6115a3565b5460ff16919050565b6000610c2f6114aa565b54610100900460ff16919050565b336001600160a01b037f00000000000000000000000000000000000000000000000000000000000000001614610c855760405162461bcd60e51b815260040161067090611c6e565b6001610c8f6114aa565b80549115156101000261ff001990921691909117905560405133907fbf430175840309fcb4cce13557429998477f9f95733cb0d42c170af8aa225d06906109cb9084906115ff565b6000610c1c6114aa565b604051632474521560e21b8152600080516020611f92833981519152600482015233602482015273__$a5a42e46683ad9c79b7b86d5ff60fdf4c1$__906391d1485490604401602060405180830381865af4158015610d44573d6000803e3d6000fd5b505050506040513d601f19601f82011682018060405250810190610d689190611b3e565b610d845760405162461bcd60e51b815260040161067090611bfd565b604051638d361e4360e01b815273__$a5a42e46683ad9c79b7b86d5ff60fdf4c1$__90638d361e4390610b919085908590600401611cbb565b600073__$a5a42e46683ad9c79b7b86d5ff60fdf4c1$__638da5cb5b6040518163ffffffff1660e01b8152600401602060405180830381865af4158015610e08573d6000803e3d6000fd5b505050506040513d601f19601f82011682018060405250810190610e2c9190611b5b565b905090565b604051632474521560e21b8152600481018390526001600160a01b038216602482015260009073__$a5a42e46683ad9c79b7b86d5ff60fdf4c1$__906391d1485490604401602060405180830381865af4158015610e93573d6000803e3d6000fd5b505050506040513d601f19601f82011682018060405250810190610eb79190611b3e565b9392505050565b6000610ec86115a3565b80549091506201000090046001600160a01b031615610f295760405162461bcd60e51b815260206004820152601e60248201527f5265676973747261723a20616c726561647920696e697469616c697a656400006044820152606401610670565b6001600160a01b038616610f8f5760405162461bcd60e51b815260206004820152602760248201527f5265676973747261723a206f776e65722063616e6e6f74206265207a65726f206044820152666164647265737360c81b6064820152608401610670565b83610fdc5760405162461bcd60e51b815260206004820152601f60248201527f5265676973747261723a206e616d652063616e6e6f7420626520656d707479006044820152606401610670565b805462010000600160b01b031916620100006001600160a01b038816021781556001810161100b858783611d85565b50600061101a83850185611e55565b905080611025611540565b81518154602084015161ffff908116620100000263ffffffff1990921692169190911717815560409091015160019091015573__$a5a42e46683ad9c79b7b86d5ff60fdf4c1$__63d9ac971f88600060405190808252806020026020018201604052801561109d578160200160208202803683370190505b506040518363ffffffff1660e01b81526004016110bb929190611ec0565b60006040518083038186803b1580156110d357600080fd5b505af41580156110e7573d6000803e3d6000fd5b5050505050505050505050565b336001600160a01b037f0000000000000000000000000000000000000000000000000000000000000000161461113c5760405162461bcd60e51b815260040161067090611c6e565b60016111466114aa565b805460ff191691151591909117905560405133907f54ca6a4cb143be493713a7079cc0d6cdbbf0688ee68398b4354b056088f2cbf590600090a2565b604051632474521560e21b8152600080516020611f92833981519152600482015233602482015273__$a5a42e46683ad9c79b7b86d5ff60fdf4c1$__906391d1485490604401602060405180830381865af41580156111e5573d6000803e3d6000fd5b505050506040513d601f19601f820116820180604052508101906112099190611b3e565b6112255760405162461bcd60e51b815260040161067090611bfd565b60405163d547741f60e01b8152600481018390526001600160a01b038216602482015273__$a5a42e46683ad9c79b7b86d5ff60fdf4c1$__9063d547741f90604401610b91565b604051632474521560e21b8152600080516020611f92833981519152600482015233602482015273__$a5a42e46683ad9c79b7b86d5ff60fdf4c1$__906391d1485490604401602060405180830381865af41580156112cf573d6000803e3d6000fd5b505050506040513d601f19601f820116820180604052508101906112f39190611b3e565b61130f5760405162461bcd60e51b815260040161067090611bfd565b5050565b604051632474521560e21b8152600080516020611f92833981519152600482015233602482015273__$a5a42e46683ad9c79b7b86d5ff60fdf4c1$__906391d1485490604401602060405180830381865af4158015611376573d6000803e3d6000fd5b505050506040513d601f19601f8201168201806040525081019061139a9190611b3e565b6113b65760405162461bcd60e51b815260040161067090611bfd565b60405163e8906a2d60e01b815273__$a5a42e46683ad9c79b7b86d5ff60fdf4c1$__9063e8906a2d90610b919085908590600401611cbb565b604051632474521560e21b8152600080516020611f92833981519152600482015233602482015273__$a5a42e46683ad9c79b7b86d5ff60fdf4c1$__906391d1485490604401602060405180830381865af4158015611452573d6000803e3d6000fd5b505050506040513d601f19601f820116820180604052508101906114769190611b3e565b6114925760405162461bcd60e51b815260040161067090611bfd565b8061149b611540565b6114a58282611f1c565b505050565b60408051808201909152601881527f78722e61637469766174696f6e2e76312e73746f72616765000000000000000060209091015260008060ff61150f60017fbdfc4f9279b6914d072e91c3452c88ca0bfbcebcba4de5f40748c7663e67029e611f70565b60405160200161152191815260200190565b60408051601f1981840301815291905280516020909101201692915050565b6040805180820190915260208082527f78722e726567697374726174696f6e2e7465726d732e76312e73746f7261676591015260008060ff61150f60017f1327f49f130d53aa8da40cf208c11cd4d9f6641443720a1d436a61d50ac5e6dd611f70565b60408051808201909152601481527378722e656e746974792e73746f726167652e763160601b60209091015260008060ff61150f60017fdefc82a28b6578c2a63b29b15450260a5e998242a6300b7fcb30814ee74ae188611f70565b60006020808352835180602085015260005b8181101561162d57858101830151858201604001528201611611565b506000604082860101526040601f19601f8301168501019250505092915050565b6001600160a01b038116811461077757600080fd5b80356109338161164e565b60006020828403121561168057600080fd5b8135610eb78161164e565b60008083601f84011261169d57600080fd5b50813567ffffffffffffffff8111156116b557600080fd5b6020830191508360208285010111156116cd57600080fd5b9250929050565b600080602083850312156116e757600080fd5b823567ffffffffffffffff8111156116fe57600080fd5b61170a8582860161168b565b90969095509350505050565b634e487b7160e01b600052604160045260246000fd5b60405160c0810167ffffffffffffffff8111828210171561174f5761174f611716565b60405290565b801515811461077757600080fd5b803561093381611755565b600082601f83011261177f57600080fd5b813567ffffffffffffffff8082111561179a5761179a611716565b604051601f8301601f19908116603f011681019082821181831017156117c2576117c2611716565b816040528381528660208588010111156117db57600080fd5b836020870160208301376000602085830101528094505050505092915050565b600060c0828403121561180d57600080fd5b61181561172c565b9050813567ffffffffffffffff8082111561182f57600080fd5b61183b8583860161176e565b8352602084013591508082111561185157600080fd5b61185d8583860161176e565b6020840152604084013591508082111561187657600080fd5b506118838482850161176e565b604083015250606082013560608201526080820135608082015260a082013560a082015292915050565b6000602082840312156118bf57600080fd5b813567ffffffffffffffff808211156118d757600080fd5b9083019060c082860312156118eb57600080fd5b6118f361172c565b6118fc83611763565b815261190a60208401611663565b602082015260408301358281111561192157600080fd5b61192d878286016117fb565b60408301525060608301358281111561194557600080fd5b6119518782860161176e565b60608301525060808301358281111561196957600080fd5b6119758782860161176e565b60808301525060a08301358281111561198d57600080fd5b6119998782860161176e565b60a08301525095945050505050565b6000602082840312156119ba57600080fd5b813567ffffffffffffffff8111156119d157600080fd5b6119dd8482850161176e565b949350505050565b6000602082840312156119f757600080fd5b5035919050565b60008060408385031215611a1157600080fd5b823591506020830135611a238161164e565b809150509250929050565b60008060208385031215611a4157600080fd5b823567ffffffffffffffff80821115611a5957600080fd5b818501915085601f830112611a6d57600080fd5b813581811115611a7c57600080fd5b8660208260051b8501011115611a9157600080fd5b60209290920196919550909350505050565b600080600080600060608688031215611abb57600080fd5b8535611ac68161164e565b9450602086013567ffffffffffffffff80821115611ae357600080fd5b611aef89838a0161168b565b90965094506040880135915080821115611b0857600080fd5b50611b158882890161168b565b969995985093965092949392505050565b600060608284031215611b3857600080fd5b50919050565b600060208284031215611b5057600080fd5b8151610eb781611755565b600060208284031215611b6d57600080fd5b8151610eb78161164e565b60208082526023908201527f42617365456e746974793a2063616c6c6572206973206e6f7420746865206f776040820152623732b960e91b606082015260800190565b60208082526022908201527f42617365456e746974793a2063616c6c6572206973206e6f742061207369676e60408201526132b960f11b606082015260800190565b60208082526022908201527f42617365456e746974793a2063616c6c6572206973206e6f7420616e2061646d60408201526134b760f11b606082015260800190565b60208152816020820152818360408301376000818301604090810191909152601f909201601f19160101919050565b6020808252602d908201527f42617365456e746974793a2063616c6c6572206973206e6f7420746865206f7760408201526c6e696e6720726567697374727960981b606082015260800190565b60208082528181018390526000908460408401835b86811015611cfe578235611ce38161164e565b6001600160a01b031682529183019190830190600101611cd0565b509695505050505050565b600181811c90821680611d1d57607f821691505b602082108103611b3857634e487b7160e01b600052602260045260246000fd5b601f8211156114a5576000816000526020600020601f850160051c81016020861015611d665750805b601f850160051c820191505b8181101561089957828155600101611d72565b67ffffffffffffffff831115611d9d57611d9d611716565b611db183611dab8354611d09565b83611d3d565b6000601f841160018114611de55760008515611dcd5750838201355b600019600387901b1c1916600186901b1783556106e1565b600083815260209020601f19861690835b82811015611e165786850135825560209485019460019092019101611df6565b5086821015611e335760001960f88860031b161c19848701351681555b505060018560011b0183555050505050565b61ffff8116811461077757600080fd5b600060608284031215611e6757600080fd5b6040516060810181811067ffffffffffffffff82111715611e8a57611e8a611716565b6040528235611e9881611e45565b81526020830135611ea881611e45565b60208201526040928301359281019290925250919050565b6001600160a01b038381168252604060208084018290528451918401829052600092858201929091906060860190855b81811015611f0e578551851683529483019491830191600101611ef0565b509098975050505050505050565b8135611f2781611e45565b61ffff8116905081548161ffff1982161783556020840135611f4881611e45565b63ffff00008160101b168363ffffffff19841617178455505050604082013560018201555050565b818103818111156105cd57634e487b7160e01b600052601160045260246000fdfe2172861495e7b85edac73e3cd5fbb42dd675baadf627720e687bcfdaca025096a2646970667358221220ede08c28b4741f8aa95cb3570c799cbf0a8a19b63870b30cefcadd65ec453c6764736f6c63430008180033",
  "linkReferences": {
    "contracts/libraries/LibAccess.sol": {
      "LibAccess": [
        {
          "length": 20,
          "start": 1748
        },
        {
          "length": 20,
          "start": 1860
        },
        {
          "length": 20,
          "start": 2044
        },
        {
          "length": 20,
          "start": 2146
        },
        {
          "length": 20,
          "start": 2312
        },
        {
          "length": 20,
          "start": 2590
        },
        {
          "length": 20,
          "start": 2887
        },
        {
          "length": 20,
          "start": 3129
        },
        {
          "length": 20,
          "start": 3288
        },
        {
          "length": 20,
          "start": 3695
        },
        {
          "length": 20,
          "start": 3832
        },
        {
          "length": 20,
          "start": 3878
        },
        {
          "length": 20,
          "start": 4030
        },
        {
          "length": 20,
          "start": 4542
        },
        {
          "length": 20,
          "start": 4880
        },
        {
          "length": 20,
          "start": 5039
        },
        {
          "length": 20,
          "start": 5114
        },
        {
          "length": 20,
          "start": 5281
        },
        {
          "length": 20,
          "start": 5418
        },
        {
          "length": 20,
          "start": 5501
        }
      ]
    },
    "contracts/libraries/LibFunds.sol": {
      "LibFunds": [
        {
          "length": 20,
          "start": 3054
        }
      ]
    }
  },
  "deployedLinkReferences": {
    "contracts/libraries/LibAccess.sol": {
      "LibAccess": [
        {
          "length": 20,
          "start": 1391
        },
        {
          "length": 20,
          "start": 1503
        },
        {
          "length": 20,
          "start": 1687
        },
        {
          "length": 20,
          "start": 1789
        },
        {
          "length": 20,
          "start": 1955
        },
        {
          "length": 20,
          "start": 2233
        },
        {
          "length": 20,
          "start": 2530
        },
        {
          "length": 20,
          "start": 2772
        },
        {
          "length": 20,
          "start": 2931
        },
        {
          "length": 20,
          "start": 3338
        },
        {
          "length": 20,
          "start": 3475
        },
        {
          "length": 20,
          "start": 3521
        },
        {
          "length": 20,
          "start": 3673
        },
        {
          "length": 20,
          "start": 4185
        },
        {
          "length": 20,
          "start": 4523
        },
        {
          "length": 20,
          "start": 4682
        },
        {
          "length": 20,
          "start": 4757
        },
        {
          "length": 20,
          "start": 4924
        },
        {
          "length": 20,
          "start": 5061
        },
        {
          "length": 20,
          "start": 5144
        }
      ]
    },
    "contracts/libraries/LibFunds.sol": {
      "LibFunds": [
        {
          "length": 20,
          "start": 2697
        }
      ]
    }
  }
}