{
  "_format": "hh-sol-artifact-1",
  "contractName": "RegistrarProxy",
  "sourceName": "contracts/registrar/instance/RegistrarProxy.sol",
  "abi": [
    {
      "inputs": [
        {
          "components": [
            {
              "internalType": "address",
              "name": "owningRegistry",
              "type": "address"
            }
          ],
          "internalType": "struct BaseEntityProxyConstructorArgs",
          "name": "args",
          "type": "tuple"
        }
      ],
      "stateMutability": "nonpayable",
      "type": "constructor"
    },
    {
      "anonymous": false,
      "inputs": [
        {
          "indexed": true,
          "internalType": "address",
          "name": "newImpl",
          "type": "address"
        },
        {
          "components": [
            {
              "internalType": "uint16",
              "name": "major",
              "type": "uint16"
            },
            {
              "internalType": "uint16",
              "name": "minor",
              "type": "uint16"
            }
          ],
          "indexed": false,
          "internalType": "struct ModuleVersion",
          "name": "version",
          "type": "tuple"
        }
      ],
      "name": "ProxyImplementationChanged",
      "type": "event"
    },
    {
      "stateMutability": "nonpayable",
      "type": "fallback"
    },
    {
      "inputs": [],
      "name": "implementationVersion",
      "outputs": [
        {
          "components": [
            {
              "internalType": "uint16",
              "name": "major",
              "type": "uint16"
            },
            {
              "internalType": "uint16",
              "name": "minor",
              "type": "uint16"
            }
          ],
          "internalType": "struct ModuleVersion",
          "name": "",
          "type": "tuple"
        }
      ],
      "stateMutability": "view",
      "type": "function"
    },
    {
      "inputs": [],
      "name": "isAutomaticUpgrade",
      "outputs": [
        {
          "internalType": "bool",
          "name": "",
          "type": "bool"
        }
      ],
      "stateMutability": "view",
      "type": "function"
    },
    {
      "inputs": [],
      "name": "owningRegistry",
      "outputs": [
        {
          "internalType": "address",
          "name": "",
          "type": "address"
        }
      ],
      "stateMutability": "view",
      "type": "function"
    },
    {
      "inputs": [
        {
          "internalType": "bool",
          "name": "_alwaysUseLatest",
          "type": "bool"
        }
      ],
      "name": "setAutomaticUpgrade",
      "outputs": [],
      "stateMutability": "nonpayable",
      "type": "function"
    },
    {
      "inputs": [
        {
          "internalType": "address",
          "name": "_newImplementation",
          "type": "address"
        }
      ],
      "name": "setImplementation",
      "outputs": [],
      "stateMutability": "nonpayable",
      "type": "function"
    },
    {
      "inputs": [
        {
          "internalType": "address",
          "name": "tgt",
          "type": "address"
        },
        {
          "internalType": "bytes",
          "name": "data",
          "type": "bytes"
        }
      ],
      "name": "staticLoop",
      "outputs": [
        {
          "internalType": "bytes",
          "name": "",
          "type": "bytes"
        }
      ],
      "stateMutability": "nonpayable",
      "type": "function"
    },
    {
      "stateMutability": "payable",
      "type": "receive"
    }
  ],
  "bytecode": "0x60a060405234801561001057600080fd5b50604051610a16380380610a1683398101604081905261002f916100c5565b805181906001600160a01b03166100b25760405162461bcd60e51b815260206004820152603360248201527f456e7469747950726f78793a206f776e696e672072656769737472792063616e60448201527f6e6f74206265207a65726f206164647265737300000000000000000000000000606482015260840160405180910390fd5b516001600160a01b03166080525061012a565b6000602082840312156100d757600080fd5b604051602081016001600160401b038111828210171561010757634e487b7160e01b600052604160045260246000fd5b60405282516001600160a01b038116811461012157600080fd5b81529392505050565b6080516108ca61014c60003960008181610172015261044101526108ca6000f3fe6080604052600436106100595760003560e01c806306bfcec6146100b257806310925940146100ee57806316aa8b941461011b5780634e0e09021461013b578063ac60aee514610160578063d784d426146101ac57610060565b3661006057005b34801561006c57600080fd5b5060006100776101cc565b805460405191925061010090046001600160a01b03169036600082376000803683855af43d806000843e8180156100ac578184f35b8184fd5b005b3480156100be57600080fd5b506100c7610262565b60408051825161ffff90811682526020938401511692810192909252015b60405180910390f35b3480156100fa57600080fd5b5061010e61010936600461069e565b6102a9565b6040516100e59190610744565b34801561012757600080fd5b506100b06101363660046107a4565b610323565b34801561014757600080fd5b50610150610423565b60405190151581526020016100e5565b34801561016c57600080fd5b506101947f000000000000000000000000000000000000000000000000000000000000000081565b6040516001600160a01b0390911681526020016100e5565b3480156101b857600080fd5b506100b06101c73660046107c8565b610436565b60408051808201909152601881527f78722e636f72652e70726f78792e73746f726167652e7631000000000000000060209091015260008060ff61023160017fb1163b579b809663cc4ceb6dc6de3859bb0da0f6817cd88b9cc7dd85b2825f486107e3565b60405160200161024391815260200190565b60408051601f1981840301815291905280516020909101201692915050565b604080518082019091526000808252602082015261027e6101cc565b604080518082019091526001919091015461ffff808216835262010000909104166020820152919050565b60603330146102ff5760405162461bcd60e51b815260206004820152601e60248201527f456e7469747950726f78793a206f6e6c792073656c6620616c6c6f776564000060448201526064015b60405180910390fd5b600080835160208501865af43d604051816000823e82801561031f578282f35b8282fd5b604051632474521560e21b81527f2172861495e7b85edac73e3cd5fbb42dd675baadf627720e687bcfdaca025096600482015233602482015273__$a5a42e46683ad9c79b7b86d5ff60fdf4c1$__906391d1485490604401602060405180830381865af4158015610398573d6000803e3d6000fd5b505050506040513d601f19601f820116820180604052508101906103bc919061080a565b6104085760405162461bcd60e51b815260206004820152601f60248201527f456e7469747950726f78793a206f6e6c792061646d696e20616c6c6f7765640060448201526064016102f6565b806104116101cc565b805460ff191691151591909117905550565b600061042d6101cc565b5460ff16919050565b336001600160a01b037f000000000000000000000000000000000000000000000000000000000000000016146104c05760405162461bcd60e51b815260206004820152602960248201527f456e7469747950726f78793a206f6e6c79206f776e696e6720726567697374726044820152681e48185b1b1bddd95960ba1b60648201526084016102f6565b6001600160a01b03811661052e5760405162461bcd60e51b815260206004820152602f60248201527f456e7469747950726f78793a20696d706c656d656e746174696f6e206973207460448201526e6865207a65726f206164647265737360881b60648201526084016102f6565b60006105386101cc565b8054610100600160a81b0319166101006001600160a01b0385169081029190911782556040805163054fd4d560e41b815281519394506000936354fd4d50926004808401939192918290030181865afa158015610599573d6000803e3d6000fd5b505050506040513d601f19601f820116820180604052508101906105bd9190610839565b80516001840180546020808501805161ffff908116620100000263ffffffff1990941695811695861793909317909355604080519485529251909116908301529192506001600160a01b038516917f62856e62ea3f3cabc4ad2d32ac6d70e1f55ed589c915439c4dec9f5c729dd0f0910160405180910390a2505050565b80356001600160a01b038116811461065257600080fd5b919050565b634e487b7160e01b600052604160045260246000fd5b604051601f8201601f1916810167ffffffffffffffff8111828210171561069657610696610657565b604052919050565b600080604083850312156106b157600080fd5b6106ba8361063b565b915060208084013567ffffffffffffffff808211156106d857600080fd5b818601915086601f8301126106ec57600080fd5b8135818111156106fe576106fe610657565b610710601f8201601f1916850161066d565b9150808252878482850101111561072657600080fd5b80848401858401376000848284010152508093505050509250929050565b60006020808352835180602085015260005b8181101561077257858101830151858201604001528201610756565b506000604082860101526040601f19601f8301168501019250505092915050565b80151581146107a157600080fd5b50565b6000602082840312156107b657600080fd5b81356107c181610793565b9392505050565b6000602082840312156107da57600080fd5b6107c18261063b565b8181038181111561080457634e487b7160e01b600052601160045260246000fd5b92915050565b60006020828403121561081c57600080fd5b81516107c181610793565b805161ffff8116811461065257600080fd5b60006040828403121561084b57600080fd5b6040516040810181811067ffffffffffffffff8211171561086e5761086e610657565b60405261087a83610827565b815261088860208401610827565b6020820152939250505056fea2646970667358221220efb0d2ebfd9e9a503dd9b1ada0df448d269c06c9f5bb7d5068feca06fe77cb2264736f6c63430008180033",
  "linkReferences": {
    "contracts/libraries/LibAccess.sol": {
      "LibAccess": [
        {
          "length": 20,
          "start": 1194
        }
      ]
    }
  },
  "deployedLinkReferences": {
    "contracts/libraries/LibAccess.sol": {
      "LibAccess": [
        {
          "length": 20,
          "start": 862
        }
      ]
    }
  }
}