{
  "_format": "hh-sol-artifact-1",
  "contractName": "RegistrarFactory",
  "sourceName": "contracts/modules/registrar-factory/RegistrarFactory.sol",
  "abi": [
    {
      "inputs": [
        {
          "components": [
            {
              "internalType": "address",
              "name": "owner",
              "type": "address"
            },
            {
              "internalType": "address[]",
              "name": "admins",
              "type": "address[]"
            }
          ],
          "internalType": "struct BaseEntityFactoryConstructorArgs",
          "name": "args",
          "type": "tuple"
        }
      ],
      "stateMutability": "nonpayable",
      "type": "constructor"
    },
    {
      "anonymous": false,
      "inputs": [
        {
          "indexed": true,
          "internalType": "address",
          "name": "registry",
          "type": "address"
        }
      ],
      "name": "FactoryAuthorizedRegistryChanged",
      "type": "event"
    },
    {
      "anonymous": false,
      "inputs": [
        {
          "indexed": true,
          "internalType": "address",
          "name": "newImpl",
          "type": "address"
        },
        {
          "components": [
            {
              "internalType": "uint16",
              "name": "major",
              "type": "uint16"
            },
            {
              "internalType": "uint16",
              "name": "minor",
              "type": "uint16"
            }
          ],
          "indexed": false,
          "internalType": "struct ModuleVersion",
          "name": "version",
          "type": "tuple"
        }
      ],
      "name": "FactoryImplementationChanged",
      "type": "event"
    },
    {
      "anonymous": false,
      "inputs": [
        {
          "indexed": true,
          "internalType": "address",
          "name": "newImpl",
          "type": "address"
        }
      ],
      "name": "FactoryProxyImplementationChanged",
      "type": "event"
    },
    {
      "inputs": [
        {
          "internalType": "address",
          "name": "owner",
          "type": "address"
        },
        {
          "internalType": "string",
          "name": "nm",
          "type": "string"
        },
        {
          "internalType": "bytes",
          "name": "initData",
          "type": "bytes"
        }
      ],
      "name": "createEntity",
      "outputs": [
        {
          "internalType": "address",
          "name": "proxy",
          "type": "address"
        }
      ],
      "stateMutability": "nonpayable",
      "type": "function"
    },
    {
      "inputs": [],
      "name": "currentImplVersion",
      "outputs": [
        {
          "components": [
            {
              "internalType": "uint16",
              "name": "major",
              "type": "uint16"
            },
            {
              "internalType": "uint16",
              "name": "minor",
              "type": "uint16"
            }
          ],
          "internalType": "struct ModuleVersion",
          "name": "",
          "type": "tuple"
        }
      ],
      "stateMutability": "view",
      "type": "function"
    },
    {
      "inputs": [],
      "name": "getEntityImplementation",
      "outputs": [
        {
          "internalType": "address",
          "name": "",
          "type": "address"
        }
      ],
      "stateMutability": "view",
      "type": "function"
    },
    {
      "inputs": [],
      "name": "name",
      "outputs": [
        {
          "internalType": "string",
          "name": "",
          "type": "string"
        }
      ],
      "stateMutability": "view",
      "type": "function"
    },
    {
      "inputs": [
        {
          "internalType": "address",
          "name": "reg",
          "type": "address"
        }
      ],
      "name": "setAuthorizedRegistry",
      "outputs": [],
      "stateMutability": "nonpayable",
      "type": "function"
    },
    {
      "inputs": [
        {
          "internalType": "address",
          "name": "newImpl",
          "type": "address"
        }
      ],
      "name": "setEntityImplementation",
      "outputs": [],
      "stateMutability": "nonpayable",
      "type": "function"
    },
    {
      "inputs": [
        {
          "internalType": "address",
          "name": "newImpl",
          "type": "address"
        }
      ],
      "name": "setProxyImplementation",
      "outputs": [],
      "stateMutability": "nonpayable",
      "type": "function"
    },
    {
      "inputs": [
        {
          "internalType": "address",
          "name": "entity",
          "type": "address"
        },
        {
          "internalType": "bytes",
          "name": "data",
          "type": "bytes"
        }
      ],
      "name": "upgradeEntity",
      "outputs": [],
      "stateMutability": "nonpayable",
      "type": "function"
    },
    {
      "inputs": [],
      "name": "version",
      "outputs": [
        {
          "components": [
            {
              "internalType": "uint16",
              "name": "major",
              "type": "uint16"
            },
            {
              "internalType": "uint16",
              "name": "minor",
              "type": "uint16"
            }
          ],
          "internalType": "struct ModuleVersion",
          "name": "",
          "type": "tuple"
        }
      ],
      "stateMutability": "view",
      "type": "function"
    }
  ],
  "bytecode": "0x60806040523480156200001157600080fd5b506040516200145838038062001458833981016040819052620000349162000213565b8051602082015160405163d9ac971f60e01b8152839273__$a5a42e46683ad9c79b7b86d5ff60fdf4c1$__9263d9ac971f926200007692919060040162000311565b60006040518083038186803b1580156200008f57600080fd5b505af4158015620000a4573d6000803e3d6000fd5b5050505050620000f06040518060400160405280601c81526020017f526567697374726172466163746f727920636f6e7374727563746f720000000081525030620000f760201b60201c565b50620003d1565b620001448282604051602401620001109291906200036f565b60408051601f198184030181529190526020810180516001600160e01b0390811663319af33360e01b179091526200014816565b5050565b6200015e816200016160201b62000a731760201c565b50565b60006a636f6e736f6c652e6c6f679050600080835160208501845afa505050565b634e487b7160e01b600052604160045260246000fd5b604080519081016001600160401b0381118282101715620001bd57620001bd62000182565b60405290565b604051601f8201601f191681016001600160401b0381118282101715620001ee57620001ee62000182565b604052919050565b80516001600160a01b03811681146200020e57600080fd5b919050565b600060208083850312156200022757600080fd5b82516001600160401b03808211156200023f57600080fd5b90840190604082870312156200025457600080fd5b6200025e62000198565b6200026983620001f6565b815283830151828111156200027d57600080fd5b80840193505086601f8401126200029357600080fd5b825182811115620002a857620002a862000182565b8060051b9250620002bb858401620001c3565b8181529284018501928581019089851115620002d657600080fd5b948601945b84861015620002ff57620002ef86620001f6565b82529486019490860190620002db565b95830195909552509695505050505050565b6001600160a01b038381168252604060208084018290528451918401829052600092858201929091906060860190855b818110156200036157855185168352948301949183019160010162000341565b509098975050505050505050565b604081526000835180604084015260005b818110156200039f576020818701810151606086840101520162000380565b50600060608285018101919091526001600160a01b03949094166020840152601f01601f191690910190910192915050565b61107780620003e16000396000f3fe608060405234801561001057600080fd5b50600436106100935760003560e01c8063689c48f011610066578063689c48f0146101475780639fdcd3a41461014f578063cdbe221114610162578063d0825a401461011d578063e1ec64811461017557600080fd5b806306fdde0314610098578063090741a0146100dd5780634c5eac87146100f257806354fd4d501461011d575b600080fd5b6100c76040518060400160405280601081526020016f526567697374726172466163746f727960801b81525081565b6040516100d49190610cad565b60405180910390f35b6100f06100eb366004610d18565b610188565b005b610105610100366004610d83565b610309565b6040516001600160a01b0390911681526020016100d4565b610125610459565b60408051825161ffff90811682526020938401511692810192909252016100d4565b6101056104a0565b6100f061015d366004610d18565b6104bc565b6100f0610170366004610d18565b610640565b6100f0610183366004610e04565b610872565b604051632474521560e21b81527f2172861495e7b85edac73e3cd5fbb42dd675baadf627720e687bcfdaca025096600482015233602482015273__$a5a42e46683ad9c79b7b86d5ff60fdf4c1$__906391d1485490604401602060405180830381865af41580156101fd573d6000803e3d6000fd5b505050506040513d601f19601f820116820180604052508101906102219190610e57565b6102465760405162461bcd60e51b815260040161023d90610e79565b60405180910390fd5b6001600160a01b0381166102b35760405162461bcd60e51b815260206004820152602e60248201527f456e74697479466163746f72793a2072656769737472792063616e6e6f74206260448201526d65207a65726f206164647265737360901b606482015260840161023d565b806102bc610a94565b60020180546001600160a01b0319166001600160a01b03928316179055604051908216907fad0dfe0fda258f94a82030e324cf394efbbbd24d325b18fa4ec97de8bd4ddbe390600090a250565b6000610313610a94565b600201546001600160a01b0316331461033e5760405162461bcd60e51b815260040161023d90610ebe565b61036c6040518060400160405280600d81526020016c436c6f6e696e672070726f787960981b815250610b2a565b610374610b70565b9050806001600160a01b031663d784d42661038d610a94565b6001015460405160e083901b6001600160e01b03191681526001600160a01b039091166004820152602401600060405180830381600087803b1580156103d257600080fd5b505af11580156103e6573d6000803e3d6000fd5b5050604051639dcaea8d60e01b81526001600160a01b0384169250639dcaea8d915061041e9089908990899089908990600401610f2f565b600060405180830381600087803b15801561043857600080fd5b505af115801561044c573d6000803e3d6000fd5b5050505095945050505050565b6040805180820190915260008082526020820152610475610a94565b604080518082019091526003919091015461ffff808216835262010000909104166020820152919050565b60006104aa610a94565b600101546001600160a01b0316919050565b604051632474521560e21b81527f2172861495e7b85edac73e3cd5fbb42dd675baadf627720e687bcfdaca025096600482015233602482015273__$a5a42e46683ad9c79b7b86d5ff60fdf4c1$__906391d1485490604401602060405180830381865af4158015610531573d6000803e3d6000fd5b505050506040513d601f19601f820116820180604052508101906105559190610e57565b6105715760405162461bcd60e51b815260040161023d90610e79565b6001600160a01b0381166105ed5760405162461bcd60e51b815260206004820152603a60248201527f456e74697479466163746f72793a2070726f787920696d706c656d656e74617460448201527f696f6e2063616e6e6f74206265207a65726f2061646472657373000000000000606482015260840161023d565b806105f6610a94565b80546001600160a01b0319166001600160a01b03928316179055604051908216907f991c4b332a60195e524c352f317b88fad3ed04c18e3dbe71f556c4decf821e7390600090a250565b604051632474521560e21b81527f2172861495e7b85edac73e3cd5fbb42dd675baadf627720e687bcfdaca025096600482015233602482015273__$a5a42e46683ad9c79b7b86d5ff60fdf4c1$__906391d1485490604401602060405180830381865af41580156106b5573d6000803e3d6000fd5b505050506040513d601f19601f820116820180604052508101906106d99190610e57565b6106f55760405162461bcd60e51b815260040161023d90610e79565b6001600160a01b0381166107685760405162461bcd60e51b815260206004820152603460248201527f456e74697479466163746f72793a20696d706c656d656e746174696f6e2063616044820152736e6e6f74206265207a65726f206164647265737360601b606482015260840161023d565b6000610772610a94565b6001810180546001600160a01b0319166001600160a01b0385169081179091556040805163054fd4d560e41b815281519394506000936354fd4d50926004808401939192918290030181865afa1580156107d0573d6000803e3d6000fd5b505050506040513d601f19601f820116820180604052508101906107f49190610f85565b80516003840180546020808501805161ffff908116620100000263ffffffff1990941695811695861793909317909355604080519485529251909116908301529192506001600160a01b038516917f0c20d59c7000776631094c0c82c594445eea20883b1be077d60cbf4ec4114e16910160405180910390a2505050565b61087a610a94565b600201546001600160a01b031633146108a55760405162461bcd60e51b815260040161023d90610ebe565b8260006108b0610a94565b90506000826001600160a01b03166354fd4d506040518163ffffffff1660e01b81526004016040805180830381865afa1580156108f1573d6000803e3d6000fd5b505050506040513d601f19601f820116820180604052508101906109159190610f85565b60408051808201909152600384015461ffff808216835262010000909104166020820152909150610947908290610b91565b6109aa5760405162461bcd60e51b815260206004820152602e60248201527f526567697374726172466163746f72793a20656e746974792076657273696f6e60448201526d20697320757020746f206461746560901b606482015260840161023d565b6001820154604051636bc26a1360e11b81526001600160a01b0391821660048201529087169063d784d42690602401600060405180830381600087803b1580156109f357600080fd5b505af1158015610a07573d6000803e3d6000fd5b505060405163e20eea0f60e01b81526001600160a01b038616925063e20eea0f9150610a399088908890600401610fee565b600060405180830381600087803b158015610a5357600080fd5b505af1158015610a67573d6000803e3d6000fd5b50505050505050505050565b60006a636f6e736f6c652e6c6f679050600080835160208501845afa505050565b60408051808201909152601c81527f78722e656e746974792e666163746f72792e73746f726167652e76310000000060209091015260008060ff610af960017f8b4ac7cd4466ab0d50fe53a88c5446ca4a450d482bef9ad792e7d9f451497e0f61100a565b604051602001610b0b91815260200190565b60408051601f1981840301815291905280516020909101201692915050565b610b6d81604051602401610b3e9190610cad565b60408051601f198184030181529190526020810180516001600160e01b031663104c13eb60e21b179052610be3565b50565b6000610b8c610b7d610a94565b546001600160a01b0316610bec565b905090565b8051825160009161ffff90811691161015610bae57506001610bdd565b8151835161ffff918216911603610bd957816020015161ffff16836020015161ffff16109050610bdd565b5060005b92915050565b610b6d81610a73565b60006001600160a01b038216610c525760405162461bcd60e51b815260206004820152602560248201527f456e7469747943726561746f723a20696d706c656d656e746174696f6e206e6f6044820152641d081cd95d60da1b606482015260840161023d565b60008260601b9050604051733d602d80600a3d3981f3363d3d373d3d3d363d7360601b81528160148201526e5af43d82803e903d91602b57fd5bf360881b60288201526037816000f0949350505050565b610cab61102b565b565b60006020808352835180602085015260005b81811015610cdb57858101830151858201604001528201610cbf565b506000604082860101526040601f19601f8301168501019250505092915050565b80356001600160a01b0381168114610d1357600080fd5b919050565b600060208284031215610d2a57600080fd5b610d3382610cfc565b9392505050565b60008083601f840112610d4c57600080fd5b50813567ffffffffffffffff811115610d6457600080fd5b602083019150836020828501011115610d7c57600080fd5b9250929050565b600080600080600060608688031215610d9b57600080fd5b610da486610cfc565b9450602086013567ffffffffffffffff80821115610dc157600080fd5b610dcd89838a01610d3a565b90965094506040880135915080821115610de657600080fd5b50610df388828901610d3a565b969995985093965092949392505050565b600080600060408486031215610e1957600080fd5b610e2284610cfc565b9250602084013567ffffffffffffffff811115610e3e57600080fd5b610e4a86828701610d3a565b9497909650939450505050565b600060208284031215610e6957600080fd5b81518015158114610d3357600080fd5b60208082526025908201527f42617365456e74697479466163746f72793a206f6e6c792061646d696e20616c6040820152641b1bddd95960da1b606082015260800190565b60208082526028908201527f42617365456e74697479466163746f72793a206f6e6c7920726567697374727960408201526708185b1b1bddd95960c21b606082015260800190565b81835281816020850137506000828201602090810191909152601f909101601f19169091010190565b6001600160a01b0386168152606060208201819052600090610f549083018688610f06565b8281036040840152610f67818587610f06565b98975050505050505050565b805161ffff81168114610d1357600080fd5b600060408284031215610f9757600080fd5b6040516040810181811067ffffffffffffffff82111715610fc857634e487b7160e01b600052604160045260246000fd5b604052610fd483610f73565b8152610fe260208401610f73565b60208201529392505050565b602081526000611002602083018486610f06565b949350505050565b81810381811115610bdd57634e487b7160e01b600052601160045260246000fd5b634e487b7160e01b600052605160045260246000fdfea2646970667358221220012e7cf026948310816d91ddfd76b752df00ce4bef3c8aef480c4dc9d17a0fd564736f6c63430008180033",
  "linkReferences": {
    "contracts/libraries/LibAccess.sol": {
      "LibAccess": [
        {
          "length": 20,
          "start": 76
        },
        {
          "length": 20,
          "start": 1444
        },
        {
          "length": 20,
          "start": 2264
        },
        {
          "length": 20,
          "start": 2652
        }
      ]
    }
  },
  "deployedLinkReferences": {
    "contracts/libraries/LibAccess.sol": {
      "LibAccess": [
        {
          "length": 20,
          "start": 451
        },
        {
          "length": 20,
          "start": 1271
        },
        {
          "length": 20,
          "start": 1659
        }
      ]
    }
  }
}