{
  "_format": "hh-sol-artifact-1",
  "contractName": "RegistrarRegistration",
  "sourceName": "contracts/modules/registrar/registration/RegistrarRegistration.sol",
  "abi": [
    {
      "inputs": [
        {
          "internalType": "address",
          "name": "_registry",
          "type": "address"
        }
      ],
      "stateMutability": "nonpayable",
      "type": "constructor"
    },
    {
      "inputs": [],
      "name": "ECDSAInvalidSignature",
      "type": "error"
    },
    {
      "inputs": [
        {
          "internalType": "uint256",
          "name": "length",
          "type": "uint256"
        }
      ],
      "name": "ECDSAInvalidSignatureLength",
      "type": "error"
    },
    {
      "inputs": [
        {
          "internalType": "bytes32",
          "name": "s",
          "type": "bytes32"
        }
      ],
      "name": "ECDSAInvalidSignatureS",
      "type": "error"
    },
    {
      "anonymous": false,
      "inputs": [
        {
          "indexed": true,
          "internalType": "address",
          "name": "registry",
          "type": "address"
        }
      ],
      "name": "FactoryAuthorizedRegistryChanged",
      "type": "event"
    },
    {
      "anonymous": false,
      "inputs": [
        {
          "indexed": true,
          "internalType": "address",
          "name": "newImpl",
          "type": "address"
        },
        {
          "components": [
            {
              "internalType": "uint16",
              "name": "major",
              "type": "uint16"
            },
            {
              "internalType": "uint16",
              "name": "minor",
              "type": "uint16"
            }
          ],
          "indexed": false,
          "internalType": "struct ModuleVersion",
          "name": "version",
          "type": "tuple"
        }
      ],
      "name": "FactoryImplementationChanged",
      "type": "event"
    },
    {
      "anonymous": false,
      "inputs": [
        {
          "indexed": true,
          "internalType": "address",
          "name": "newImpl",
          "type": "address"
        }
      ],
      "name": "FactoryProxyImplementationChanged",
      "type": "event"
    },
    {
      "inputs": [],
      "name": "DAY",
      "outputs": [
        {
          "internalType": "uint256",
          "name": "",
          "type": "uint256"
        }
      ],
      "stateMutability": "view",
      "type": "function"
    },
    {
      "inputs": [
        {
          "components": [
            {
              "internalType": "address",
              "name": "entity",
              "type": "address"
            },
            {
              "internalType": "bytes",
              "name": "entitySignature",
              "type": "bytes"
            },
            {
              "internalType": "uint256",
              "name": "expiration",
              "type": "uint256"
            }
          ],
          "internalType": "struct ChangeEntityTermsArgs",
          "name": "args",
          "type": "tuple"
        }
      ],
      "name": "changeEntityTerms",
      "outputs": [],
      "stateMutability": "nonpayable",
      "type": "function"
    },
    {
      "inputs": [],
      "name": "currentImplVersion",
      "outputs": [
        {
          "components": [
            {
              "internalType": "uint16",
              "name": "major",
              "type": "uint16"
            },
            {
              "internalType": "uint16",
              "name": "minor",
              "type": "uint16"
            }
          ],
          "internalType": "struct ModuleVersion",
          "name": "",
          "type": "tuple"
        }
      ],
      "stateMutability": "view",
      "type": "function"
    },
    {
      "inputs": [
        {
          "internalType": "string",
          "name": "nm",
          "type": "string"
        }
      ],
      "name": "getEntityByName",
      "outputs": [
        {
          "internalType": "address",
          "name": "",
          "type": "address"
        }
      ],
      "stateMutability": "view",
      "type": "function"
    },
    {
      "inputs": [],
      "name": "getImplementation",
      "outputs": [
        {
          "internalType": "address",
          "name": "",
          "type": "address"
        }
      ],
      "stateMutability": "view",
      "type": "function"
    },
    {
      "inputs": [],
      "name": "getModuleRegistry",
      "outputs": [
        {
          "internalType": "contract IModuleRegistry",
          "name": "",
          "type": "address"
        }
      ],
      "stateMutability": "view",
      "type": "function"
    },
    {
      "inputs": [
        {
          "internalType": "address",
          "name": "addr",
          "type": "address"
        }
      ],
      "name": "isRegistered",
      "outputs": [
        {
          "internalType": "bool",
          "name": "",
          "type": "bool"
        }
      ],
      "stateMutability": "view",
      "type": "function"
    },
    {
      "inputs": [],
      "name": "moduleRegistry",
      "outputs": [
        {
          "internalType": "contract IModuleRegistry",
          "name": "",
          "type": "address"
        }
      ],
      "stateMutability": "view",
      "type": "function"
    },
    {
      "inputs": [],
      "name": "name",
      "outputs": [
        {
          "internalType": "string",
          "name": "",
          "type": "string"
        }
      ],
      "stateMutability": "view",
      "type": "function"
    },
    {
      "inputs": [
        {
          "components": [
            {
              "internalType": "bool",
              "name": "sendTokensToOwner",
              "type": "bool"
            },
            {
              "internalType": "address",
              "name": "owner",
              "type": "address"
            },
            {
              "internalType": "string",
              "name": "name",
              "type": "string"
            },
            {
              "internalType": "bytes",
              "name": "initData",
              "type": "bytes"
            }
          ],
          "internalType": "struct RegisterEntityArgsNoTermsNoRemoval",
          "name": "args",
          "type": "tuple"
        }
      ],
      "name": "registerEntityNoTermsNoRemoval",
      "outputs": [],
      "stateMutability": "payable",
      "type": "function"
    },
    {
      "inputs": [
        {
          "components": [
            {
              "internalType": "bool",
              "name": "sendTokensToOwner",
              "type": "bool"
            },
            {
              "internalType": "address",
              "name": "owner",
              "type": "address"
            },
            {
              "internalType": "string",
              "name": "name",
              "type": "string"
            },
            {
              "internalType": "bytes",
              "name": "initData",
              "type": "bytes"
            },
            {
              "internalType": "uint256",
              "name": "gracePeriodDays",
              "type": "uint256"
            }
          ],
          "internalType": "struct RegisterEntityArgsNoTermsWithRemoval",
          "name": "args",
          "type": "tuple"
        }
      ],
      "name": "registerEntityNoTermsWithRemoval",
      "outputs": [],
      "stateMutability": "payable",
      "type": "function"
    },
    {
      "inputs": [
        {
          "components": [
            {
              "internalType": "bool",
              "name": "sendTokensToOwner",
              "type": "bool"
            },
            {
              "internalType": "address",
              "name": "owner",
              "type": "address"
            },
            {
              "internalType": "string",
              "name": "name",
              "type": "string"
            },
            {
              "internalType": "bytes",
              "name": "initData",
              "type": "bytes"
            },
            {
              "components": [
                {
                  "internalType": "uint256",
                  "name": "fee",
                  "type": "uint256"
                },
                {
                  "internalType": "uint256",
                  "name": "coveragePeriodDays",
                  "type": "uint256"
                },
                {
                  "internalType": "uint256",
                  "name": "gracePeriodDays",
                  "type": "uint256"
                }
              ],
              "internalType": "struct RegistrationTerms",
              "name": "terms",
              "type": "tuple"
            }
          ],
          "internalType": "struct RegisterEntityArgsWithTerms",
          "name": "args",
          "type": "tuple"
        }
      ],
      "name": "registerEntityWithTerms",
      "outputs": [],
      "stateMutability": "payable",
      "type": "function"
    },
    {
      "inputs": [
        {
          "internalType": "address",
          "name": "newImpl",
          "type": "address"
        }
      ],
      "name": "setImplementation",
      "outputs": [],
      "stateMutability": "nonpayable",
      "type": "function"
    },
    {
      "inputs": [
        {
          "internalType": "address",
          "name": "newImpl",
          "type": "address"
        }
      ],
      "name": "setProxyImplementation",
      "outputs": [],
      "stateMutability": "nonpayable",
      "type": "function"
    },
    {
      "inputs": [
        {
          "internalType": "bytes",
          "name": "data",
          "type": "bytes"
        }
      ],
      "name": "upgradeEntity",
      "outputs": [],
      "stateMutability": "nonpayable",
      "type": "function"
    },
    {
      "inputs": [],
      "name": "version",
      "outputs": [
        {
          "components": [
            {
              "internalType": "uint16",
              "name": "major",
              "type": "uint16"
            },
            {
              "internalType": "uint16",
              "name": "minor",
              "type": "uint16"
            }
          ],
          "internalType": "struct ModuleVersion",
          "name": "",
          "type": "tuple"
        }
      ],
      "stateMutability": "pure",
      "type": "function"
    }
  ],
  "bytecode": "0x60a06040523480156200001157600080fd5b5060405162002487380380620024878339810160408190526200003491620000c7565b6001600160a01b038116620000b55760405162461bcd60e51b815260206004820152603360248201527f526567697374726174696f6e4d6f64756c653a2072656769737472792063616e60448201527f6e6f74206265207a65726f206164647265737300000000000000000000000000606482015260840160405180910390fd5b6001600160a01b0316608052620000f9565b600060208284031215620000da57600080fd5b81516001600160a01b0381168114620000f257600080fd5b9392505050565b60805161236b6200011c6000396000818161025f0152610348015261236b6000f3fe6080604052600436106100f35760003560e01c8063c3c5a5471161008a578063d784d42611610059578063d784d42614610306578063ddf2b1ee14610326578063edec795214610339578063edeff6a71461036c57600080fd5b8063c3c5a54714610281578063c625e0ad146102b1578063cc437f3d146102d1578063d0825a40146102f157600080fd5b80639fdcd3a4116100c65780639fdcd3a414610203578063a60b592a14610225578063aaf10f4214610238578063b95459e41461024d57600080fd5b806306fdde03146100f857806327cfe856146101505780633e88a4e21461017557806354fd4d50146101ad575b600080fd5b34801561010457600080fd5b5061013a6040518060400160405280601681526020017524a932b3b4b9ba3930b92932b3b4b9ba3930ba34b7b760511b81525081565b6040516101479190611d40565b60405180910390f35b34801561015c57600080fd5b506101676201518081565b604051908152602001610147565b34801561018157600080fd5b50610195610190366004611dbc565b61037f565b6040516001600160a01b039091168152602001610147565b3480156101b957600080fd5b5060408051808201825260008082526020918201819052825180840190935260018352908201525b60408051825161ffff9081168252602093840151169281019290925201610147565b34801561020f57600080fd5b5061022361021e366004611dfe565b6103ff565b005b610223610233366004611e2e565b61058f565b34801561024457600080fd5b50610195610694565b34801561025957600080fd5b506101957f000000000000000000000000000000000000000000000000000000000000000081565b34801561028d57600080fd5b506102a161029c366004611dfe565b6106ad565b6040519015158152602001610147565b3480156102bd57600080fd5b506102236102cc366004611dbc565b61070f565b3480156102dd57600080fd5b506102236102ec366004611e69565b610791565b3480156102fd57600080fd5b506101e1610874565b34801561031257600080fd5b50610223610321366004611dfe565b6108bb565b610223610334366004611ea4565b610ae8565b34801561034557600080fd5b507f0000000000000000000000000000000000000000000000000000000000000000610195565b61022361037a366004611edf565b610b81565b60008061038a610e9f565b9050806002016103cf85858080601f016020809104026020016040519081016040528093929190818152602001838380828437600092019190915250610f3592505050565b6040516103dc9190611f1a565b908152604051908190036020019020546001600160a01b03169150505b92915050565b604051632474521560e21b81527f2172861495e7b85edac73e3cd5fbb42dd675baadf627720e687bcfdaca025096600482015233602482015273__$a5a42e46683ad9c79b7b86d5ff60fdf4c1$__906391d1485490604401602060405180830381865af4158015610474573d6000803e3d6000fd5b505050506040513d601f19601f820116820180604052508101906104989190611f47565b6104bd5760405162461bcd60e51b81526004016104b490611f64565b60405180910390fd5b6001600160a01b0381166105395760405162461bcd60e51b815260206004820152603a60248201527f456e74697479466163746f72793a2070726f787920696d706c656d656e74617460448201527f696f6e2063616e6e6f74206265207a65726f206164647265737300000000000060648201526084016104b4565b80610542610fa5565b60020180546001600160a01b0319166001600160a01b03928316179055604051908216907f991c4b332a60195e524c352f317b88fad3ed04c18e3dbe71f556c4decf821e7390600090a250565b60006105c36105a46040840160208501611dfe565b6105b16040850185611fa9565b6105be6060870187611fa9565b61100a565b905060008190506105f48160405180606001604052806000815260200160008152602001866080013581525061108f565b341561068f576106076020840184611ff0565b1561065a5761061c6040840160208501611dfe565b6001600160a01b03166108fc349081150290604051600060405180830381858888f19350505050158015610654573d6000803e3d6000fd5b50505050565b6040516001600160a01b038216903480156108fc02916000818181858888f19350505050158015610654573d6000803e3d6000fd5b505050565b600061069e610fa5565b546001600160a01b0316919050565b6000806106b8610e9f565b6001600160a01b038416600090815260018201602052604090205490915060ff1680156106e9575060019392505050565b506001600160a01b03928316600090815260209190915260409020549091161515919050565b610718336106ad565b6107825760405162461bcd60e51b815260206004820152603560248201527f526567697374726174696f6e4d6f64756c653a2073656e646572206973206e6f604482015274742061207265676973746572656420656e7469747960581b60648201526084016104b4565b61078d33838361129c565b5050565b600061079b610e9f565b9050600081816107ae6020860186611dfe565b6001600160a01b039081168252602082019290925260400160002080549092501633146108435760405162461bcd60e51b815260206004820152603960248201527f526567697374726174696f6e4d6f64756c653a2073656e646572206973206e6f60448201527f7420746865206f776e6572206f662074686520656e746974790000000000000060648201526084016104b4565b600061084e84611467565b805160018401556020810151600284015560400151600383015550426004909101555050565b6040805180820190915260008082526020820152610890610fa5565b604080518082019091526001919091015461ffff808216835262010000909104166020820152919050565b604051632474521560e21b81527f2172861495e7b85edac73e3cd5fbb42dd675baadf627720e687bcfdaca025096600482015233602482015273__$a5a42e46683ad9c79b7b86d5ff60fdf4c1$__906391d1485490604401602060405180830381865af4158015610930573d6000803e3d6000fd5b505050506040513d601f19601f820116820180604052508101906109549190611f47565b6109705760405162461bcd60e51b81526004016104b490611f64565b6001600160a01b0381166109e35760405162461bcd60e51b815260206004820152603460248201527f456e74697479466163746f72793a20696d706c656d656e746174696f6e2063616044820152736e6e6f74206265207a65726f206164647265737360601b60648201526084016104b4565b60006109ed610fa5565b80546001600160a01b0319166001600160a01b03841690811782556040805163054fd4d560e41b815281519394506000936354fd4d50926004808401939192918290030181865afa158015610a46573d6000803e3d6000fd5b505050506040513d601f19601f82011682018060405250810190610a6a9190612063565b80516001840180546020808501805161ffff908116620100000263ffffffff1990941695811695861793909317909355604080519485529251909116908301529192506001600160a01b038516917f0c20d59c7000776631094c0c82c594445eea20883b1be077d60cbf4ec4114e16910160405180910390a2505050565b6000610afd6105a46040840160208501611dfe565b90506001600160a01b038116610b655760405162461bcd60e51b815260206004820152602760248201527f526567697374726174696f6e4578743a20656e74697479206372656174696f6e6044820152660819985a5b195960ca1b60648201526084016104b4565b806105f481610b7c368690038601608087016120be565b61108f565b6000610b966105a46040840160208501611dfe565b90506001600160a01b038116610c055760405162461bcd60e51b815260206004820152602e60248201527f42617365526567697374726174696f6e4d6f64756c653a20656e74697479206360448201526d1c99585d1a5bdb8819985a5b195960921b60648201526084016104b4565b806000610c10610e9f565b6001600160a01b038416600090815260018201602052604090205490915060ff1615610c915760405162461bcd60e51b815260206004820152602a60248201527f526567697374726174696f6e4578743a20656e7469747920616c7265616479206044820152691c9959da5cdd195c995960b21b60648201526084016104b4565b6000610d01836001600160a01b03166306fdde036040518163ffffffff1660e01b8152600401600060405180830381865afa158015610cd4573d6000803e3d6000fd5b505050506040513d6000823e601f3d908101601f19168201604052610cfc91908101906120fa565b610f35565b905060006001600160a01b03168260020182604051610d209190611f1a565b908152604051908190036020019020546001600160a01b031614610d9e5760405162461bcd60e51b815260206004820152602f60248201527f526567697374726174696f6e4578743a20656e74697479206e616d6520616c7260448201526e1958591e481c9959da5cdd195c9959608a1b60648201526084016104b4565b838260020182604051610db19190611f1a565b908152604080516020928190038301902080546001600160a01b0319166001600160a01b039485161790559186166000908152600185810190925291909120805460ff191690911790553415610e9857610e0e6020860186611ff0565b15610e6157610e236040860160208701611dfe565b6001600160a01b03166108fc349081150290604051600060405180830381858888f19350505050158015610e5b573d6000803e3d6000fd5b50610e98565b6040516001600160a01b038516903480156108fc02916000818181858888f19350505050158015610e96573d6000803e3d6000fd5b505b5050505050565b60408051808201909152601a81527f78722e726567697374726174696f6e2e76312e73746f7261676500000000000060209091015260008060ff610f0460017f298bb06b387cf42ef0d699a946970827af7863e6cebf6ab1f9ef36af7a9311636121bd565b604051602001610f1691815260200190565b60408051601f1981840301815291905280516020909101201692915050565b60608160005b8151811015610f9e57610f6d828281518110610f5957610f596121d0565b01602001516001600160f81b031916611710565b828281518110610f7f57610f7f6121d0565b60200101906001600160f81b031916908160001a905350600101610f3b565b5092915050565b60408051808201909152601c81527f78722e656e746974792e666163746f72792e73746f726167652e76310000000060209091015260008060ff610f0460017f8b4ac7cd4466ab0d50fe53a88c5446ca4a450d482bef9ad792e7d9f451497e0f6121bd565b60008061101a878787878761175f565b90506001600160a01b0381166110855760405162461bcd60e51b815260206004820152602a60248201527f526567697374726174696f6e4d6f64756c653a20656e746974792063726561746044820152691a5bdb8819985a5b195960b21b60648201526084016104b4565b9695505050505050565b6000611099610e9f565b6001600160a01b03841660008181526020839052604080822081516306fdde0360e01b815291519495509391926110f59290916306fdde0391600480830192879291908290030181865afa158015610cd4573d6000803e3d6000fd5b905060006001600160a01b031683600201826040516111149190611f1a565b908152604051908190036020019020546001600160a01b0316146111955760405162461bcd60e51b815260206004820152603260248201527f526567697374726174696f6e4d6f64756c653a20656e74697479206e616d6520604482015271185b1c9958591e481c9959da5cdd195c995960721b60648201526084016104b4565b81546001600160a01b03161561121f5760405162461bcd60e51b815260206004820152604360248201527f526567697374726174696f6e4d6f64756c653a20656e7469747920616c72656160448201527f64792072656769737465726564207769746820646966666572656e74206e616d606482015262653f3f60e81b608482015260a4016104b4565b81546001600160a01b031916331782558351600183015560208401516002808401919091556040808601516003850155426004850155518691850190611266908490611f1a565b90815260405190819003602001902080546001600160a01b03929092166001600160a01b03199092169190911790555050505050565b8260006112a7610fa5565b90506000826001600160a01b03166354fd4d506040518163ffffffff1660e01b81526004016040805180830381865afa1580156112e8573d6000803e3d6000fd5b505050506040513d601f19601f8201168201806040525081019061130c9190612063565b60408051808201909152600184015461ffff80821683526201000090910416602082015290915061133e90829061184b565b6113a15760405162461bcd60e51b815260206004820152602e60248201527f526567697374726172466163746f72793a20656e746974792076657273696f6e60448201526d20697320757020746f206461746560901b60648201526084016104b4565b8154604051636bc26a1360e11b81526001600160a01b0391821660048201529087169063d784d42690602401600060405180830381600087803b1580156113e757600080fd5b505af11580156113fb573d6000803e3d6000fd5b505060405163e20eea0f60e01b81526001600160a01b038616925063e20eea0f915061142d908890889060040161220f565b600060405180830381600087803b15801561144757600080fd5b505af115801561145b573d6000803e3d6000fd5b50505050505050505050565b61148b60405180606001604052806000815260200160008152602001600081525090565b6000611495610e9f565b9050600081816114a86020870187611dfe565b6001600160a01b03166001600160a01b03168152602001908152602001600020905060008160000160009054906101000a90046001600160a01b031690506000816001600160a01b0316634173b4176040518163ffffffff1660e01b8152600401606060405180830381865afa158015611526573d6000803e3d6000fd5b505050506040513d601f19601f8201168201806040525081019061154a919061222b565b90506000816000015182602001518360400151896040013560405160200161158b949392919093845260208401929092526040830152606082015260800190565b60408051808303601f1901815282825280516020918201208184528383019092529092506000919060208201818036833701905050905081602082015260006115d38261189c565b90506000611622826115e860208d018d611fa9565b8080601f0160208091040260200160405190810160405280939291908181526020018383808284376000920191909152506118d792505050565b905061163160208b018b611dfe565b604051637df73e2760e01b81526001600160a01b0383811660048301529190911690637df73e2790602401602060405180830381865afa158015611679573d6000803e3d6000fd5b505050506040513d601f19601f8201168201806040525081019061169d9190611f47565b6117025760405162461bcd60e51b815260206004820152603060248201527f42617365526567697374726174696f6e4d6f64756c653a20656e74697479207360448201526f1a59db985d1d5c99481a5b9d985b1a5960821b60648201526084016104b4565b509298975050505050505050565b6000604160f81b6001600160f81b031983161080159061173e5750602d60f91b6001600160f81b0319831611155b1561175b5761175260f883901c6020612267565b60f81b92915050565b5090565b6000611769611901565b9050806001600160a01b031663d784d426611782610fa5565b5460405160e083901b6001600160e01b03191681526001600160a01b039091166004820152602401600060405180830381600087803b1580156117c457600080fd5b505af11580156117d8573d6000803e3d6000fd5b5050604051639dcaea8d60e01b81526001600160a01b0384169250639dcaea8d91506118109089908990899089908990600401612280565b600060405180830381600087803b15801561182a57600080fd5b505af115801561183e573d6000803e3d6000fd5b5050505095945050505050565b8051825160009161ffff90811691161015611868575060016103f9565b8151835161ffff91821691160361189357816020015161ffff16836020015161ffff161090506103f9565b50600092915050565b60006118a88251611925565b826040516020016118ba9291906122c4565b604051602081830303815290604052805190602001209050919050565b6000806000806118e786866119b8565b9250925092506118f78282611a05565b5090949350505050565b600061192061190e610fa5565b600201546001600160a01b0316611abe565b905090565b6060600061193283611b75565b600101905060008167ffffffffffffffff8111156119525761195261200d565b6040519080825280601f01601f19166020018201604052801561197c576020820181803683370190505b5090508181016020015b600019016f181899199a1a9b1b9c1cb0b131b232b360811b600a86061a8153600a850494508461198657509392505050565b600080600083516041036119f25760208401516040850151606086015160001a6119e488828585611c4d565b9550955095505050506119fe565b50508151600091506002905b9250925092565b6000826003811115611a1957611a1961231f565b03611a22575050565b6001826003811115611a3657611a3661231f565b03611a545760405163f645eedf60e01b815260040160405180910390fd5b6002826003811115611a6857611a6861231f565b03611a895760405163fce698f760e01b8152600481018290526024016104b4565b6003826003811115611a9d57611a9d61231f565b0361078d576040516335e2f38360e21b8152600481018290526024016104b4565b60006001600160a01b038216611b245760405162461bcd60e51b815260206004820152602560248201527f456e7469747943726561746f723a20696d706c656d656e746174696f6e206e6f6044820152641d081cd95d60da1b60648201526084016104b4565b60008260601b9050604051733d602d80600a3d3981f3363d3d373d3d3d363d7360601b81528160148201526e5af43d82803e903d91602b57fd5bf360881b60288201526037816000f0949350505050565b60008072184f03e93ff9f4daa797ed6e38ed64bf6a1f0160401b8310611bb45772184f03e93ff9f4daa797ed6e38ed64bf6a1f0160401b830492506040015b6d04ee2d6d415b85acef81000000008310611be0576d04ee2d6d415b85acef8100000000830492506020015b662386f26fc100008310611bfe57662386f26fc10000830492506010015b6305f5e1008310611c16576305f5e100830492506008015b6127108310611c2a57612710830492506004015b60648310611c3c576064830492506002015b600a83106103f95760010192915050565b600080807f7fffffffffffffffffffffffffffffff5d576e7357a4501ddfe92f46681b20a0841115611c885750600091506003905082611d12565b604080516000808252602082018084528a905260ff891692820192909252606081018790526080810186905260019060a0016020604051602081039080840390855afa158015611cdc573d6000803e3d6000fd5b5050604051601f1901519150506001600160a01b038116611d0857506000925060019150829050611d12565b9250600091508190505b9450945094915050565b60005b83811015611d37578181015183820152602001611d1f565b50506000910152565b6020815260008251806020840152611d5f816040850160208701611d1c565b601f01601f19169190910160400192915050565b60008083601f840112611d8557600080fd5b50813567ffffffffffffffff811115611d9d57600080fd5b602083019150836020828501011115611db557600080fd5b9250929050565b60008060208385031215611dcf57600080fd5b823567ffffffffffffffff811115611de657600080fd5b611df285828601611d73565b90969095509350505050565b600060208284031215611e1057600080fd5b81356001600160a01b0381168114611e2757600080fd5b9392505050565b600060208284031215611e4057600080fd5b813567ffffffffffffffff811115611e5757600080fd5b820160a08185031215611e2757600080fd5b600060208284031215611e7b57600080fd5b813567ffffffffffffffff811115611e9257600080fd5b820160608185031215611e2757600080fd5b600060208284031215611eb657600080fd5b813567ffffffffffffffff811115611ecd57600080fd5b820160e08185031215611e2757600080fd5b600060208284031215611ef157600080fd5b813567ffffffffffffffff811115611f0857600080fd5b820160808185031215611e2757600080fd5b60008251611f2c818460208701611d1c565b9190910192915050565b8015158114611f4457600080fd5b50565b600060208284031215611f5957600080fd5b8151611e2781611f36565b60208082526025908201527f42617365456e74697479466163746f72793a206f6e6c792061646d696e20616c6040820152641b1bddd95960da1b606082015260800190565b6000808335601e19843603018112611fc057600080fd5b83018035915067ffffffffffffffff821115611fdb57600080fd5b602001915036819003821315611db557600080fd5b60006020828403121561200257600080fd5b8135611e2781611f36565b634e487b7160e01b600052604160045260246000fd5b6040516060810167ffffffffffffffff811182821017156120465761204661200d565b60405290565b805161ffff8116811461205e57600080fd5b919050565b60006040828403121561207557600080fd5b6040516040810181811067ffffffffffffffff821117156120985761209861200d565b6040526120a48361204c565b81526120b26020840161204c565b60208201529392505050565b6000606082840312156120d057600080fd5b6120d8612023565b8235815260208301356020820152604083013560408201528091505092915050565b60006020828403121561210c57600080fd5b815167ffffffffffffffff8082111561212457600080fd5b818401915084601f83011261213857600080fd5b81518181111561214a5761214a61200d565b604051601f8201601f19908116603f011681019083821181831017156121725761217261200d565b8160405282815287602084870101111561218b57600080fd5b61219c836020830160208801611d1c565b979650505050505050565b634e487b7160e01b600052601160045260246000fd5b818103818111156103f9576103f96121a7565b634e487b7160e01b600052603260045260246000fd5b81835281816020850137506000828201602090810191909152601f909101601f19169091010190565b6020815260006122236020830184866121e6565b949350505050565b60006060828403121561223d57600080fd5b612245612023565b8251815260208301516020820152604083015160408201528091505092915050565b60ff81811683821601908111156103f9576103f96121a7565b6001600160a01b03861681526060602082018190526000906122a590830186886121e6565b82810360408401526122b88185876121e6565b98975050505050505050565b7f19457468657265756d205369676e6564204d6573736167653a0a0000000000008152600083516122fc81601a850160208801611d1c565b83519083019061231381601a840160208801611d1c565b01601a01949350505050565b634e487b7160e01b600052602160045260246000fdfea26469706673582212208bc43b23ab9bbd471f66e777384a99fa0289b2fe31de54c4bd95dad43c37f14664736f6c63430008180033",
  "linkReferences": {
    "contracts/libraries/LibAccess.sol": {
      "LibAccess": [
        {
          "length": 20,
          "start": 1366
        },
        {
          "length": 20,
          "start": 2578
        }
      ]
    }
  },
  "deployedLinkReferences": {
    "contracts/libraries/LibAccess.sol": {
      "LibAccess": [
        {
          "length": 20,
          "start": 1082
        },
        {
          "length": 20,
          "start": 2294
        }
      ]
    }
  }
}