{
  "_format": "hh-sol-artifact-1",
  "contractName": "RegistrationModule",
  "sourceName": "contracts/modules/registration/RegistrationModule.sol",
  "abi": [
    {
      "inputs": [],
      "name": "ECDSAInvalidSignature",
      "type": "error"
    },
    {
      "inputs": [
        {
          "internalType": "uint256",
          "name": "length",
          "type": "uint256"
        }
      ],
      "name": "ECDSAInvalidSignatureLength",
      "type": "error"
    },
    {
      "inputs": [
        {
          "internalType": "bytes32",
          "name": "s",
          "type": "bytes32"
        }
      ],
      "name": "ECDSAInvalidSignatureS",
      "type": "error"
    },
    {
      "inputs": [],
      "name": "DAY",
      "outputs": [
        {
          "internalType": "uint256",
          "name": "",
          "type": "uint256"
        }
      ],
      "stateMutability": "view",
      "type": "function"
    },
    {
      "inputs": [
        {
          "components": [
            {
              "internalType": "address",
              "name": "entity",
              "type": "address"
            },
            {
              "internalType": "bytes",
              "name": "entitySignature",
              "type": "bytes"
            },
            {
              "internalType": "uint256",
              "name": "expiration",
              "type": "uint256"
            }
          ],
          "internalType": "struct ChangeEntityTermsArgs",
          "name": "args",
          "type": "tuple"
        }
      ],
      "name": "changeEntityTerms",
      "outputs": [],
      "stateMutability": "nonpayable",
      "type": "function"
    },
    {
      "inputs": [
        {
          "internalType": "string",
          "name": "nm",
          "type": "string"
        }
      ],
      "name": "getEntityByName",
      "outputs": [
        {
          "internalType": "address",
          "name": "",
          "type": "address"
        }
      ],
      "stateMutability": "view",
      "type": "function"
    },
    {
      "inputs": [
        {
          "internalType": "address",
          "name": "addr",
          "type": "address"
        }
      ],
      "name": "isRegistered",
      "outputs": [
        {
          "internalType": "bool",
          "name": "",
          "type": "bool"
        }
      ],
      "stateMutability": "view",
      "type": "function"
    },
    {
      "inputs": [],
      "name": "name",
      "outputs": [
        {
          "internalType": "string",
          "name": "",
          "type": "string"
        }
      ],
      "stateMutability": "view",
      "type": "function"
    },
    {
      "inputs": [
        {
          "internalType": "address",
          "name": "a",
          "type": "address"
        }
      ],
      "name": "registerEntityNoTermsNoRemoval",
      "outputs": [],
      "stateMutability": "nonpayable",
      "type": "function"
    },
    {
      "inputs": [
        {
          "internalType": "address",
          "name": "a",
          "type": "address"
        },
        {
          "internalType": "uint16",
          "name": "gracePeriodDays",
          "type": "uint16"
        }
      ],
      "name": "registerEntityNoTermsWithRemoval",
      "outputs": [],
      "stateMutability": "nonpayable",
      "type": "function"
    },
    {
      "inputs": [
        {
          "internalType": "address",
          "name": "a",
          "type": "address"
        },
        {
          "components": [
            {
              "internalType": "uint16",
              "name": "coveragePeriodDays",
              "type": "uint16"
            },
            {
              "internalType": "uint16",
              "name": "gracePeriodDays",
              "type": "uint16"
            },
            {
              "internalType": "uint256",
              "name": "fee",
              "type": "uint256"
            }
          ],
          "internalType": "struct RegistrationTerms",
          "name": "terms",
          "type": "tuple"
        }
      ],
      "name": "registerEntityWithTerms",
      "outputs": [],
      "stateMutability": "nonpayable",
      "type": "function"
    },
    {
      "inputs": [],
      "name": "version",
      "outputs": [
        {
          "components": [
            {
              "internalType": "uint16",
              "name": "major",
              "type": "uint16"
            },
            {
              "internalType": "uint16",
              "name": "minor",
              "type": "uint16"
            }
          ],
          "internalType": "struct ModuleVersion",
          "name": "",
          "type": "tuple"
        }
      ],
      "stateMutability": "view",
      "type": "function"
    }
  ],
  "bytecode": "0x608060405234801561001057600080fd5b506115a5806100206000396000f3fe608060405234801561001057600080fd5b50600436106100925760003560e01c806354fd4d501161006657806354fd4d5014610131578063a1a8a1c614610171578063c3c5a54714610184578063cc437f3d146101a7578063ffdf9f68146101ba57600080fd5b806291281f1461009757806306fdde03146100ac57806327cfe856146100ee5780633e88a4e214610106575b600080fd5b6100aa6100a53660046110a7565b6101cd565b005b6100d86040518060400160405280600d81526020016c24a932b3b4b9ba3930ba34b7b760991b81525081565b6040516100e591906110ff565b60405180910390f35b6100f86201518081565b6040519081526020016100e5565b610119610114366004611132565b61021a565b6040516001600160a01b0390911681526020016100e5565b604080518082018252600080825260209182018190528251808401845260018082529083019182528351908152905161ffff1691810191909152016100e5565b6100aa61017f3660046111a4565b61029a565b6101976101923660046111a4565b610502565b60405190151581526020016100e5565b6100aa6101b53660046111c6565b610564565b6100aa6101c8366004611216565b610663565b6001600160a01b0382166101fc5760405162461bcd60e51b81526004016101f39061124d565b60405180910390fd5b8161021581610210368590038501856112d3565b6106b2565b505050565b6000806102256108dc565b90508060020161026a85858080601f01602080910402602001604051908101604052809392919081815260200183838082843760009201919091525061097292505050565b6040516102779190611320565b908152604051908190036020019020546001600160a01b03169150505b92915050565b6001600160a01b0381166103075760405162461bcd60e51b815260206004820152602e60248201527f42617365526567697374726174696f6e4d6f64756c653a20656e74697479206360448201526d1c99585d1a5bdb8819985a5b195960921b60648201526084016101f3565b8060006103126108dc565b6001600160a01b038416600090815260018201602052604090205490915060ff16156103935760405162461bcd60e51b815260206004820152602a60248201527f526567697374726174696f6e4578743a20656e7469747920616c7265616479206044820152691c9959da5cdd195c995960b21b60648201526084016101f3565b6000610403836001600160a01b03166306fdde036040518163ffffffff1660e01b8152600401600060405180830381865afa1580156103d6573d6000803e3d6000fd5b505050506040513d6000823e601f3d908101601f191682016040526103fe919081019061133c565b610972565b905060006001600160a01b031682600201826040516104229190611320565b908152604051908190036020019020546001600160a01b0316146104a05760405162461bcd60e51b815260206004820152602f60248201527f526567697374726174696f6e4578743a20656e74697479206e616d6520616c7260448201526e1958591e481c9959da5cdd195c9959608a1b60648201526084016101f3565b8382600201826040516104b39190611320565b908152604080516020928190038301902080546001600160a01b0319166001600160a01b03948516179055959091166000908152600193840190915293909320805460ff191690911790555050565b60008061050d6108dc565b6001600160a01b038416600090815260018201602052604090205490915060ff16801561053e575060019392505050565b506001600160a01b03928316600090815260209190915260409020549091161515919050565b600061056e6108dc565b90506000818161058160208601866111a4565b6001600160a01b039081168252602082019290925260400160002080549092501633146106165760405162461bcd60e51b815260206004820152603960248201527f526567697374726174696f6e4d6f64756c653a2073656e646572206973206e6f60448201527f7420746865206f776e6572206f662074686520656e746974790000000000000060648201526084016101f3565b6000610621846109e2565b8051600184018054602084015161ffff908116620100000263ffffffff1990921693169290921791909117905560400151600283015550426003909101555050565b6001600160a01b0382166106895760405162461bcd60e51b81526004016101f39061124d565b604080516060810182526000808252602082015261ffff83169181019190915282906102159082905b60006106bc6108dc565b6001600160a01b03841660008181526020839052604080822081516306fdde0360e01b815291519495509391926107189290916306fdde0391600480830192879291908290030181865afa1580156103d6573d6000803e3d6000fd5b905060006001600160a01b031683600201826040516107379190611320565b908152604051908190036020019020546001600160a01b0316146107b85760405162461bcd60e51b815260206004820152603260248201527f526567697374726174696f6e4d6f64756c653a20656e74697479206e616d6520604482015271185b1c9958591e481c9959da5cdd195c995960721b60648201526084016101f3565b81546001600160a01b0316156108425760405162461bcd60e51b815260206004820152604360248201527f526567697374726174696f6e4d6f64756c653a20656e7469747920616c72656160448201527f64792072656769737465726564207769746820646966666572656e74206e616d606482015262653f3f60e81b608482015260a4016101f3565b81546001600160a01b031916331782558351600183018054602087015161ffff908116620100000263ffffffff19909216931692909217919091179055604080850151600280850191909155426003850155905186918501906108a6908490611320565b90815260405190819003602001902080546001600160a01b03929092166001600160a01b03199092169190911790555050505050565b60408051808201909152601a81527f78722e726567697374726174696f6e2e76312e73746f7261676500000000000060209091015260008060ff61094160017f298bb06b387cf42ef0d699a946970827af7863e6cebf6ab1f9ef36af7a9311636113ff565b60405160200161095391815260200190565b60408051601f1981840301815291905280516020909101201692915050565b60608160005b81518110156109db576109aa82828151811061099657610996611412565b01602001516001600160f81b031916610c7b565b8282815181106109bc576109bc611412565b60200101906001600160f81b031916908160001a905350600101610978565b5092915050565b6040805160608101825260008082526020820181905291810182905290610a076108dc565b905060008181610a1a60208701876111a4565b6001600160a01b03166001600160a01b03168152602001908152602001600020905060008160000160009054906101000a90046001600160a01b031690506000816001600160a01b0316634173b4176040518163ffffffff1660e01b8152600401606060405180830381865afa158015610a98573d6000803e3d6000fd5b505050506040513d601f19601f82011682018060405250810190610abc9190611428565b604080820151825160208085015184519182019390935261ffff918216818501529116606082015290880135608082015290915060009060a00160408051808303601f190181528282528051602091820120818452838301909252909250600091906020820181803683370190505090508160208201526000610b3e82610cca565b90506000610b8d82610b5360208d018d611475565b8080601f016020809104026020016040519081016040528093929190818152602001838380828437600092019190915250610d0592505050565b9050610b9c60208b018b6111a4565b604051637df73e2760e01b81526001600160a01b0383811660048301529190911690637df73e2790602401602060405180830381865afa158015610be4573d6000803e3d6000fd5b505050506040513d601f19601f82011682018060405250810190610c0891906114c3565b610c6d5760405162461bcd60e51b815260206004820152603060248201527f42617365526567697374726174696f6e4d6f64756c653a20656e74697479207360448201526f1a59db985d1d5c99481a5b9d985b1a5960821b60648201526084016101f3565b509298975050505050505050565b6000604160f81b6001600160f81b0319831610801590610ca95750602d60f91b6001600160f81b0319831611155b15610cc657610cbd60f883901c60206114e5565b60f81b92915050565b5090565b6000610cd68251610d2f565b82604051602001610ce89291906114fe565b604051602081830303815290604052805190602001209050919050565b600080600080610d158686610dc2565b925092509250610d258282610e0f565b5090949350505050565b60606000610d3c83610ecc565b600101905060008167ffffffffffffffff811115610d5c57610d5c611294565b6040519080825280601f01601f191660200182016040528015610d86576020820181803683370190505b5090508181016020015b600019016f181899199a1a9b1b9c1cb0b131b232b360811b600a86061a8153600a8504945084610d9057509392505050565b60008060008351604103610dfc5760208401516040850151606086015160001a610dee88828585610fa4565b955095509550505050610e08565b50508151600091506002905b9250925092565b6000826003811115610e2357610e23611559565b03610e2c575050565b6001826003811115610e4057610e40611559565b03610e5e5760405163f645eedf60e01b815260040160405180910390fd5b6002826003811115610e7257610e72611559565b03610e935760405163fce698f760e01b8152600481018290526024016101f3565b6003826003811115610ea757610ea7611559565b03610ec8576040516335e2f38360e21b8152600481018290526024016101f3565b5050565b60008072184f03e93ff9f4daa797ed6e38ed64bf6a1f0160401b8310610f0b5772184f03e93ff9f4daa797ed6e38ed64bf6a1f0160401b830492506040015b6d04ee2d6d415b85acef81000000008310610f37576d04ee2d6d415b85acef8100000000830492506020015b662386f26fc100008310610f5557662386f26fc10000830492506010015b6305f5e1008310610f6d576305f5e100830492506008015b6127108310610f8157612710830492506004015b60648310610f93576064830492506002015b600a83106102945760010192915050565b600080807f7fffffffffffffffffffffffffffffff5d576e7357a4501ddfe92f46681b20a0841115610fdf5750600091506003905082611069565b604080516000808252602082018084528a905260ff891692820192909252606081018790526080810186905260019060a0016020604051602081039080840390855afa158015611033573d6000803e3d6000fd5b5050604051601f1901519150506001600160a01b03811661105f57506000925060019150829050611069565b9250600091508190505b9450945094915050565b80356001600160a01b038116811461108a57600080fd5b919050565b6000606082840312156110a157600080fd5b50919050565b600080608083850312156110ba57600080fd5b6110c383611073565b91506110d2846020850161108f565b90509250929050565b60005b838110156110f65781810151838201526020016110de565b50506000910152565b602081526000825180602084015261111e8160408501602087016110db565b601f01601f19169190910160400192915050565b6000806020838503121561114557600080fd5b823567ffffffffffffffff8082111561115d57600080fd5b818501915085601f83011261117157600080fd5b81358181111561118057600080fd5b86602082850101111561119257600080fd5b60209290920196919550909350505050565b6000602082840312156111b657600080fd5b6111bf82611073565b9392505050565b6000602082840312156111d857600080fd5b813567ffffffffffffffff8111156111ef57600080fd5b6111fb8482850161108f565b949350505050565b61ffff8116811461121357600080fd5b50565b6000806040838503121561122957600080fd5b61123283611073565b9150602083013561124281611203565b809150509250929050565b60208082526027908201527f526567697374726174696f6e4578743a20656e74697479206372656174696f6e6040820152660819985a5b195960ca1b606082015260800190565b634e487b7160e01b600052604160045260246000fd5b6040516060810167ffffffffffffffff811182821017156112cd576112cd611294565b60405290565b6000606082840312156112e557600080fd5b6112ed6112aa565b82356112f881611203565b8152602083013561130881611203565b60208201526040928301359281019290925250919050565b600082516113328184602087016110db565b9190910192915050565b60006020828403121561134e57600080fd5b815167ffffffffffffffff8082111561136657600080fd5b818401915084601f83011261137a57600080fd5b81518181111561138c5761138c611294565b604051601f8201601f19908116603f011681019083821181831017156113b4576113b4611294565b816040528281528760208487010111156113cd57600080fd5b6113de8360208301602088016110db565b979650505050505050565b634e487b7160e01b600052601160045260246000fd5b81810381811115610294576102946113e9565b634e487b7160e01b600052603260045260246000fd5b60006060828403121561143a57600080fd5b6114426112aa565b825161144d81611203565b8152602083015161145d81611203565b60208201526040928301519281019290925250919050565b6000808335601e1984360301811261148c57600080fd5b83018035915067ffffffffffffffff8211156114a757600080fd5b6020019150368190038213156114bc57600080fd5b9250929050565b6000602082840312156114d557600080fd5b815180151581146111bf57600080fd5b60ff8181168382160190811115610294576102946113e9565b7f19457468657265756d205369676e6564204d6573736167653a0a00000000000081526000835161153681601a8501602088016110db565b83519083019061154d81601a8401602088016110db565b01601a01949350505050565b634e487b7160e01b600052602160045260246000fdfea2646970667358221220c21f42d9d30137a5ef0468ff885fde9343f2ee21556f21b31e78666757797d9964736f6c63430008180033",
  "linkReferences": {},
  "deployedLinkReferences": {}
}