{
  "_format": "hh-sol-artifact-1",
  "contractName": "RegistrationProxy",
  "sourceName": "contracts/modules/registration/RegistrationProxy.sol",
  "abi": [
    {
      "inputs": [
        {
          "components": [
            {
              "internalType": "address",
              "name": "owner",
              "type": "address"
            },
            {
              "internalType": "address[]",
              "name": "admins",
              "type": "address[]"
            }
          ],
          "internalType": "struct BaseProxyContstructorArgs",
          "name": "args",
          "type": "tuple"
        }
      ],
      "stateMutability": "nonpayable",
      "type": "constructor"
    },
    {
      "anonymous": false,
      "inputs": [
        {
          "indexed": true,
          "internalType": "address",
          "name": "newImpl",
          "type": "address"
        },
        {
          "components": [
            {
              "internalType": "uint16",
              "name": "major",
              "type": "uint16"
            },
            {
              "internalType": "uint16",
              "name": "minor",
              "type": "uint16"
            }
          ],
          "indexed": false,
          "internalType": "struct ModuleVersion",
          "name": "version",
          "type": "tuple"
        }
      ],
      "name": "ProxyImplementationChanged",
      "type": "event"
    },
    {
      "stateMutability": "payable",
      "type": "fallback"
    },
    {
      "inputs": [],
      "name": "implementationVersion",
      "outputs": [
        {
          "components": [
            {
              "internalType": "uint16",
              "name": "major",
              "type": "uint16"
            },
            {
              "internalType": "uint16",
              "name": "minor",
              "type": "uint16"
            }
          ],
          "internalType": "struct ModuleVersion",
          "name": "",
          "type": "tuple"
        }
      ],
      "stateMutability": "view",
      "type": "function"
    },
    {
      "inputs": [
        {
          "internalType": "address",
          "name": "_newImplementation",
          "type": "address"
        }
      ],
      "name": "setImplementation",
      "outputs": [],
      "stateMutability": "nonpayable",
      "type": "function"
    },
    {
      "inputs": [
        {
          "internalType": "address",
          "name": "tgt",
          "type": "address"
        },
        {
          "internalType": "bytes",
          "name": "data",
          "type": "bytes"
        }
      ],
      "name": "staticLoop",
      "outputs": [
        {
          "internalType": "bytes",
          "name": "",
          "type": "bytes"
        }
      ],
      "stateMutability": "nonpayable",
      "type": "function"
    },
    {
      "stateMutability": "payable",
      "type": "receive"
    }
  ],
  "bytecode": "0x60806040523480156200001157600080fd5b5060405162000b4f38038062000b4f8339810160408190526200003491620001ab565b805181906001600160a01b0316620000a25760405162461bcd60e51b815260206004820152602760248201527f436f726550726f78793a206f776e65722063616e6e6f74206265207a65726f206044820152666164647265737360c81b606482015260840160405180910390fd5b8051602082015160405163d9ac971f60e01b815273__$a5a42e46683ad9c79b7b86d5ff60fdf4c1$__9263d9ac971f92620000e092600401620002a9565b60006040518083038186803b158015620000f957600080fd5b505af41580156200010e573d6000803e3d6000fd5b50505050505062000307565b634e487b7160e01b600052604160045260246000fd5b604080519081016001600160401b03811182821017156200015557620001556200011a565b60405290565b604051601f8201601f191681016001600160401b03811182821017156200018657620001866200011a565b604052919050565b80516001600160a01b0381168114620001a657600080fd5b919050565b60006020808385031215620001bf57600080fd5b82516001600160401b0380821115620001d757600080fd5b9084019060408287031215620001ec57600080fd5b620001f662000130565b62000201836200018e565b815283830151828111156200021557600080fd5b80840193505086601f8401126200022b57600080fd5b8251828111156200024057620002406200011a565b8060051b9250620002538584016200015b565b81815292840185019285810190898511156200026e57600080fd5b948601945b84861015620002975762000287866200018e565b8252948601949086019062000273565b95830195909552509695505050505050565b6001600160a01b038381168252604060208084018290528451918401829052600092858201929091906060860190855b81811015620002f9578551851683529483019491830191600101620002d9565b509098975050505050505050565b61083880620003176000396000f3fe6080604052600436106100385760003560e01c806306bfcec6146100bc57806310925940146100f8578063d784d426146101255761003f565b3661003f57005b6000610049610145565b5460408051808201909152601a81527f42617365436f726550726f78793a2046616c6c6261636b20746f00000000000060208201526001600160a01b03909116915061009590826101db565b60405136600082376000803683855af43d806000843e8180156100b6578184f35b8184fd5b005b3480156100c857600080fd5b506100d1610224565b60408051825161ffff90811682526020938401511692810192909252015b60405180910390f35b34801561010457600080fd5b50610118610113366004610601565b61026b565b6040516100ef91906106ed565b34801561013157600080fd5b506100ba610140366004610707565b610319565b60408051808201909152601881527f78722e636f72652e70726f78792e73746f726167652e7631000000000000000060209091015260008060ff6101aa60017fb1163b579b809663cc4ceb6dc6de3859bb0da0f6817cd88b9cc7dd85b2825f48610722565b6040516020016101bc91815260200190565b60408051601f1981840301815291905280516020909101201692915050565b61022082826040516024016101f1929190610749565b60408051601f198184030181529190526020810180516001600160e01b031663319af33360e01b179052610571565b5050565b6040805180820190915260008082526020820152610240610145565b604080518082019091526001919091015461ffff808216835262010000909104166020820152919050565b60603330146102c15760405162461bcd60e51b815260206004820152601e60248201527f456e7469747950726f78793a206f6e6c792073656c6620616c6c6f776564000060448201526064015b60405180910390fd5b6102f560405180604001604052806012815260200171537461746963206c6f6f706261636b20746f60701b815250846101db565b600080835160208501865af43d604051816000823e828015610315578282f35b8282fd5b604051632474521560e21b81527f2172861495e7b85edac73e3cd5fbb42dd675baadf627720e687bcfdaca025096600482015233602482015273__$a5a42e46683ad9c79b7b86d5ff60fdf4c1$__906391d1485490604401602060405180830381865af415801561038e573d6000803e3d6000fd5b505050506040513d601f19601f820116820180604052508101906103b29190610773565b6103fe5760405162461bcd60e51b815260206004820152601f60248201527f456e7469747950726f78793a206f6e6c792061646d696e20616c6c6f7765640060448201526064016102b8565b6001600160a01b03811661046c5760405162461bcd60e51b815260206004820152602f60248201527f456e7469747950726f78793a20696d706c656d656e746174696f6e206973207460448201526e6865207a65726f206164647265737360881b60648201526084016102b8565b6000610476610145565b80546001600160a01b0319166001600160a01b03841690811782556040805163054fd4d560e41b815281519394506000936354fd4d50926004808401939192918290030181865afa1580156104cf573d6000803e3d6000fd5b505050506040513d601f19601f820116820180604052508101906104f391906107a7565b80516001840180546020808501805161ffff908116620100000263ffffffff1990941695811695861793909317909355604080519485529251909116908301529192506001600160a01b038516917f62856e62ea3f3cabc4ad2d32ac6d70e1f55ed589c915439c4dec9f5c729dd0f0910160405180910390a2505050565b61057a8161057d565b50565b60006a636f6e736f6c652e6c6f679050600080835160208501845afa505050565b80356001600160a01b03811681146105b557600080fd5b919050565b634e487b7160e01b600052604160045260246000fd5b604051601f8201601f1916810167ffffffffffffffff811182821017156105f9576105f96105ba565b604052919050565b6000806040838503121561061457600080fd5b61061d8361059e565b915060208084013567ffffffffffffffff8082111561063b57600080fd5b818601915086601f83011261064f57600080fd5b813581811115610661576106616105ba565b610673601f8201601f191685016105d0565b9150808252878482850101111561068957600080fd5b80848401858401376000848284010152508093505050509250929050565b6000815180845260005b818110156106cd576020818501810151868301820152016106b1565b506000602082860101526020601f19601f83011685010191505092915050565b60208152600061070060208301846106a7565b9392505050565b60006020828403121561071957600080fd5b6107008261059e565b8181038181111561074357634e487b7160e01b600052601160045260246000fd5b92915050565b60408152600061075c60408301856106a7565b905060018060a01b03831660208301529392505050565b60006020828403121561078557600080fd5b8151801515811461070057600080fd5b805161ffff811681146105b557600080fd5b6000604082840312156107b957600080fd5b6040516040810181811067ffffffffffffffff821117156107dc576107dc6105ba565b6040526107e883610795565b81526107f660208401610795565b6020820152939250505056fea264697066735822122004f184d4a2aeb0562cbe593d4e3225426be1d6d922eb2ef3571152a2f98e271a64736f6c63430008180033",
  "linkReferences": {
    "contracts/libraries/LibAccess.sol": {
      "LibAccess": [
        {
          "length": 20,
          "start": 184
        },
        {
          "length": 20,
          "start": 1643
        }
      ]
    }
  },
  "deployedLinkReferences": {
    "contracts/libraries/LibAccess.sol": {
      "LibAccess": [
        {
          "length": 20,
          "start": 852
        }
      ]
    }
  }
}