{
  "_format": "hh-sol-artifact-1",
  "contractName": "RegistrarRegistry",
  "sourceName": "contracts/registrar/registry/RegistrarRegistry.sol",
  "abi": [
    {
      "anonymous": false,
      "inputs": [
        {
          "indexed": true,
          "internalType": "uint16",
          "name": "major",
          "type": "uint16"
        },
        {
          "indexed": true,
          "internalType": "uint16",
          "name": "minor",
          "type": "uint16"
        }
      ],
      "name": "AppRollback",
      "type": "event"
    },
    {
      "anonymous": false,
      "inputs": [
        {
          "indexed": true,
          "internalType": "uint16",
          "name": "major",
          "type": "uint16"
        },
        {
          "indexed": true,
          "internalType": "uint16",
          "name": "minor",
          "type": "uint16"
        }
      ],
      "name": "AppUpgraded",
      "type": "event"
    },
    {
      "anonymous": false,
      "inputs": [
        {
          "indexed": true,
          "internalType": "address",
          "name": "entity",
          "type": "address"
        },
        {
          "indexed": true,
          "internalType": "address",
          "name": "by",
          "type": "address"
        }
      ],
      "name": "EntityRegistrationRenewed",
      "type": "event"
    },
    {
      "anonymous": false,
      "inputs": [
        {
          "indexed": true,
          "internalType": "address",
          "name": "module",
          "type": "address"
        },
        {
          "indexed": true,
          "internalType": "uint16",
          "name": "major",
          "type": "uint16"
        },
        {
          "indexed": true,
          "internalType": "uint16",
          "name": "minor",
          "type": "uint16"
        },
        {
          "indexed": false,
          "internalType": "string",
          "name": "name",
          "type": "string"
        }
      ],
      "name": "ModuleRolledBack",
      "type": "event"
    },
    {
      "anonymous": false,
      "inputs": [
        {
          "indexed": true,
          "internalType": "address",
          "name": "module",
          "type": "address"
        },
        {
          "indexed": true,
          "internalType": "uint16",
          "name": "major",
          "type": "uint16"
        },
        {
          "indexed": true,
          "internalType": "uint16",
          "name": "minor",
          "type": "uint16"
        },
        {
          "indexed": false,
          "internalType": "string",
          "name": "name",
          "type": "string"
        }
      ],
      "name": "ModuleUpgraded",
      "type": "event"
    },
    {
      "anonymous": false,
      "inputs": [
        {
          "indexed": true,
          "internalType": "address",
          "name": "registrarContract",
          "type": "address"
        },
        {
          "indexed": true,
          "internalType": "address",
          "name": "owner",
          "type": "address"
        }
      ],
      "name": "RegistryAddedRegistrar",
      "type": "event"
    },
    {
      "anonymous": false,
      "inputs": [
        {
          "indexed": true,
          "internalType": "address",
          "name": "factory",
          "type": "address"
        }
      ],
      "name": "RegistryChangedEntityFactory",
      "type": "event"
    },
    {
      "anonymous": false,
      "inputs": [
        {
          "indexed": true,
          "internalType": "address",
          "name": "removalModule",
          "type": "address"
        }
      ],
      "name": "RegistryChangedEntityRemovalLogic",
      "type": "event"
    },
    {
      "anonymous": false,
      "inputs": [
        {
          "indexed": true,
          "internalType": "address",
          "name": "registration",
          "type": "address"
        }
      ],
      "name": "RegistryChangedRegistrationLogic",
      "type": "event"
    },
    {
      "anonymous": false,
      "inputs": [
        {
          "indexed": true,
          "internalType": "address",
          "name": "entity",
          "type": "address"
        },
        {
          "indexed": false,
          "internalType": "string",
          "name": "reason",
          "type": "string"
        }
      ],
      "name": "RegistryDeactivatedEntity",
      "type": "event"
    },
    {
      "anonymous": false,
      "inputs": [
        {
          "indexed": true,
          "internalType": "address",
          "name": "registrarContract",
          "type": "address"
        }
      ],
      "name": "RegistryDeactivatedRegistrar",
      "type": "event"
    },
    {
      "anonymous": false,
      "inputs": [
        {
          "indexed": true,
          "internalType": "address",
          "name": "entity",
          "type": "address"
        }
      ],
      "name": "RegistryEnforcedDeactivation",
      "type": "event"
    },
    {
      "anonymous": false,
      "inputs": [
        {
          "indexed": true,
          "internalType": "address",
          "name": "entity",
          "type": "address"
        }
      ],
      "name": "RegistryEnforcedRemoval",
      "type": "event"
    },
    {
      "anonymous": false,
      "inputs": [
        {
          "indexed": true,
          "internalType": "address",
          "name": "entity",
          "type": "address"
        }
      ],
      "name": "RegistryReactivatedEntity",
      "type": "event"
    },
    {
      "anonymous": false,
      "inputs": [
        {
          "indexed": true,
          "internalType": "address",
          "name": "registrarContract",
          "type": "address"
        }
      ],
      "name": "RegistryReactivatedRegistrar",
      "type": "event"
    },
    {
      "anonymous": false,
      "inputs": [
        {
          "indexed": true,
          "internalType": "address",
          "name": "entity",
          "type": "address"
        },
        {
          "indexed": false,
          "internalType": "string",
          "name": "reason",
          "type": "string"
        }
      ],
      "name": "RegistryRemovedEntity",
      "type": "event"
    },
    {
      "anonymous": false,
      "inputs": [
        {
          "indexed": true,
          "internalType": "address",
          "name": "registrarContract",
          "type": "address"
        }
      ],
      "name": "RegistryRemovedRegistrar",
      "type": "event"
    },
    {
      "anonymous": false,
      "inputs": [
        {
          "indexed": true,
          "internalType": "address",
          "name": "registrarContract",
          "type": "address"
        },
        {
          "indexed": false,
          "internalType": "address",
          "name": "newVersion",
          "type": "address"
        }
      ],
      "name": "RegistryUpgradedRegistrar",
      "type": "event"
    },
    {
      "anonymous": false,
      "inputs": [
        {
          "components": [
            {
              "internalType": "uint16",
              "name": "coveragePeriodDays",
              "type": "uint16"
            },
            {
              "internalType": "uint16",
              "name": "gracePeriodDays",
              "type": "uint16"
            },
            {
              "internalType": "uint256",
              "name": "fee",
              "type": "uint256"
            }
          ],
          "indexed": false,
          "internalType": "struct RegistrationTerms",
          "name": "newTerms",
          "type": "tuple"
        }
      ],
      "name": "TermsChanged",
      "type": "event"
    },
    {
      "inputs": [
        {
          "internalType": "address[]",
          "name": "signers",
          "type": "address[]"
        }
      ],
      "name": "addSigners",
      "outputs": [],
      "stateMutability": "nonpayable",
      "type": "function"
    },
    {
      "inputs": [
        {
          "internalType": "address",
          "name": "addr",
          "type": "address"
        }
      ],
      "name": "canBeDeactivated",
      "outputs": [
        {
          "internalType": "bool",
          "name": "",
          "type": "bool"
        }
      ],
      "stateMutability": "view",
      "type": "function"
    },
    {
      "inputs": [
        {
          "internalType": "address",
          "name": "addr",
          "type": "address"
        }
      ],
      "name": "canBeRemoved",
      "outputs": [
        {
          "internalType": "bool",
          "name": "",
          "type": "bool"
        }
      ],
      "stateMutability": "view",
      "type": "function"
    },
    {
      "inputs": [
        {
          "components": [
            {
              "internalType": "address",
              "name": "entity",
              "type": "address"
            },
            {
              "internalType": "bytes",
              "name": "entitySignature",
              "type": "bytes"
            },
            {
              "internalType": "uint256",
              "name": "expiration",
              "type": "uint256"
            }
          ],
          "internalType": "struct ChangeEntityTermsArgs",
          "name": "args",
          "type": "tuple"
        }
      ],
      "name": "changeEntityTerms",
      "outputs": [],
      "stateMutability": "nonpayable",
      "type": "function"
    },
    {
      "inputs": [
        {
          "components": [
            {
              "internalType": "bool",
              "name": "sendTokensToOwner",
              "type": "bool"
            },
            {
              "internalType": "address",
              "name": "owner",
              "type": "address"
            },
            {
              "internalType": "string",
              "name": "name",
              "type": "string"
            },
            {
              "internalType": "bytes",
              "name": "initData",
              "type": "bytes"
            }
          ],
          "internalType": "struct CreateRegistrarArgs",
          "name": "args",
          "type": "tuple"
        }
      ],
      "name": "createRegistrar",
      "outputs": [
        {
          "internalType": "address",
          "name": "",
          "type": "address"
        }
      ],
      "stateMutability": "payable",
      "type": "function"
    },
    {
      "inputs": [
        {
          "internalType": "contract IRemovableEntity",
          "name": "entity",
          "type": "address"
        },
        {
          "internalType": "string",
          "name": "reason",
          "type": "string"
        }
      ],
      "name": "deactivateEntity",
      "outputs": [],
      "stateMutability": "nonpayable",
      "type": "function"
    },
    {
      "inputs": [
        {
          "internalType": "contract IRemovableEntity",
          "name": "addr",
          "type": "address"
        }
      ],
      "name": "enforceDeactivation",
      "outputs": [],
      "stateMutability": "nonpayable",
      "type": "function"
    },
    {
      "inputs": [
        {
          "internalType": "contract IRemovableEntity",
          "name": "e",
          "type": "address"
        }
      ],
      "name": "enforceRemoval",
      "outputs": [],
      "stateMutability": "nonpayable",
      "type": "function"
    },
    {
      "inputs": [],
      "name": "entityFactory",
      "outputs": [
        {
          "internalType": "address",
          "name": "",
          "type": "address"
        }
      ],
      "stateMutability": "view",
      "type": "function"
    },
    {
      "inputs": [],
      "name": "entityRemovalLogic",
      "outputs": [
        {
          "internalType": "address",
          "name": "",
          "type": "address"
        }
      ],
      "stateMutability": "view",
      "type": "function"
    },
    {
      "inputs": [
        {
          "internalType": "string",
          "name": "nm",
          "type": "string"
        }
      ],
      "name": "getEntityByName",
      "outputs": [
        {
          "internalType": "address",
          "name": "",
          "type": "address"
        }
      ],
      "stateMutability": "view",
      "type": "function"
    },
    {
      "inputs": [
        {
          "internalType": "address",
          "name": "addr",
          "type": "address"
        }
      ],
      "name": "getEntityTerms",
      "outputs": [
        {
          "components": [
            {
              "internalType": "uint16",
              "name": "coveragePeriodDays",
              "type": "uint16"
            },
            {
              "internalType": "uint16",
              "name": "gracePeriodDays",
              "type": "uint16"
            },
            {
              "internalType": "uint256",
              "name": "fee",
              "type": "uint256"
            }
          ],
          "internalType": "struct RegistrationTerms",
          "name": "",
          "type": "tuple"
        }
      ],
      "stateMutability": "view",
      "type": "function"
    },
    {
      "inputs": [
        {
          "internalType": "address",
          "name": "addr",
          "type": "address"
        }
      ],
      "name": "getExpiration",
      "outputs": [
        {
          "internalType": "uint256",
          "name": "",
          "type": "uint256"
        }
      ],
      "stateMutability": "view",
      "type": "function"
    },
    {
      "inputs": [
        {
          "internalType": "address",
          "name": "addr",
          "type": "address"
        }
      ],
      "name": "getLastRenewal",
      "outputs": [
        {
          "internalType": "uint256",
          "name": "",
          "type": "uint256"
        }
      ],
      "stateMutability": "view",
      "type": "function"
    },
    {
      "inputs": [],
      "name": "getTerms",
      "outputs": [
        {
          "components": [
            {
              "internalType": "uint16",
              "name": "coveragePeriodDays",
              "type": "uint16"
            },
            {
              "internalType": "uint16",
              "name": "gracePeriodDays",
              "type": "uint16"
            },
            {
              "internalType": "uint256",
              "name": "fee",
              "type": "uint256"
            }
          ],
          "internalType": "struct RegistrationTerms",
          "name": "",
          "type": "tuple"
        }
      ],
      "stateMutability": "view",
      "type": "function"
    },
    {
      "inputs": [
        {
          "internalType": "bytes32",
          "name": "role",
          "type": "bytes32"
        },
        {
          "internalType": "address",
          "name": "account",
          "type": "address"
        }
      ],
      "name": "grantRole",
      "outputs": [],
      "stateMutability": "nonpayable",
      "type": "function"
    },
    {
      "inputs": [
        {
          "internalType": "bytes32",
          "name": "role",
          "type": "bytes32"
        },
        {
          "internalType": "address",
          "name": "account",
          "type": "address"
        }
      ],
      "name": "hasRole",
      "outputs": [
        {
          "internalType": "bool",
          "name": "",
          "type": "bool"
        }
      ],
      "stateMutability": "view",
      "type": "function"
    },
    {
      "inputs": [
        {
          "internalType": "address",
          "name": "addr",
          "type": "address"
        }
      ],
      "name": "isExpired",
      "outputs": [
        {
          "internalType": "bool",
          "name": "",
          "type": "bool"
        }
      ],
      "stateMutability": "view",
      "type": "function"
    },
    {
      "inputs": [
        {
          "internalType": "address",
          "name": "addr",
          "type": "address"
        }
      ],
      "name": "isInGracePeriod",
      "outputs": [
        {
          "internalType": "bool",
          "name": "",
          "type": "bool"
        }
      ],
      "stateMutability": "view",
      "type": "function"
    },
    {
      "inputs": [
        {
          "internalType": "address",
          "name": "addr",
          "type": "address"
        }
      ],
      "name": "isRegistered",
      "outputs": [
        {
          "internalType": "bool",
          "name": "",
          "type": "bool"
        }
      ],
      "stateMutability": "view",
      "type": "function"
    },
    {
      "inputs": [
        {
          "internalType": "address",
          "name": "a",
          "type": "address"
        }
      ],
      "name": "isSigner",
      "outputs": [
        {
          "internalType": "bool",
          "name": "",
          "type": "bool"
        }
      ],
      "stateMutability": "view",
      "type": "function"
    },
    {
      "inputs": [],
      "name": "isStillActive",
      "outputs": [
        {
          "internalType": "bool",
          "name": "",
          "type": "bool"
        }
      ],
      "stateMutability": "pure",
      "type": "function"
    },
    {
      "inputs": [
        {
          "internalType": "address",
          "name": "a",
          "type": "address"
        }
      ],
      "name": "isTermsOwnerSigner",
      "outputs": [
        {
          "internalType": "bool",
          "name": "",
          "type": "bool"
        }
      ],
      "stateMutability": "view",
      "type": "function"
    },
    {
      "inputs": [],
      "name": "name",
      "outputs": [
        {
          "internalType": "string",
          "name": "",
          "type": "string"
        }
      ],
      "stateMutability": "view",
      "type": "function"
    },
    {
      "inputs": [],
      "name": "owner",
      "outputs": [
        {
          "internalType": "address",
          "name": "",
          "type": "address"
        }
      ],
      "stateMutability": "view",
      "type": "function"
    },
    {
      "inputs": [
        {
          "internalType": "contract IRemovableEntity",
          "name": "entity",
          "type": "address"
        }
      ],
      "name": "reactivateEntity",
      "outputs": [],
      "stateMutability": "nonpayable",
      "type": "function"
    },
    {
      "inputs": [],
      "name": "registrationLogic",
      "outputs": [
        {
          "internalType": "address",
          "name": "",
          "type": "address"
        }
      ],
      "stateMutability": "view",
      "type": "function"
    },
    {
      "inputs": [
        {
          "internalType": "contract IRemovableEntity",
          "name": "entity",
          "type": "address"
        },
        {
          "internalType": "string",
          "name": "reason",
          "type": "string"
        }
      ],
      "name": "removeEntity",
      "outputs": [],
      "stateMutability": "nonpayable",
      "type": "function"
    },
    {
      "inputs": [
        {
          "internalType": "address[]",
          "name": "signers",
          "type": "address[]"
        }
      ],
      "name": "removeSigners",
      "outputs": [],
      "stateMutability": "nonpayable",
      "type": "function"
    },
    {
      "inputs": [
        {
          "internalType": "address",
          "name": "addr",
          "type": "address"
        }
      ],
      "name": "renewEntity",
      "outputs": [],
      "stateMutability": "payable",
      "type": "function"
    },
    {
      "inputs": [
        {
          "internalType": "bytes32",
          "name": "role",
          "type": "bytes32"
        },
        {
          "internalType": "address",
          "name": "account",
          "type": "address"
        }
      ],
      "name": "revokeRole",
      "outputs": [],
      "stateMutability": "nonpayable",
      "type": "function"
    },
    {
      "inputs": [
        {
          "internalType": "address",
          "name": "factory",
          "type": "address"
        }
      ],
      "name": "setEntityFactory",
      "outputs": [],
      "stateMutability": "nonpayable",
      "type": "function"
    },
    {
      "inputs": [
        {
          "internalType": "address",
          "name": "removalModule",
          "type": "address"
        }
      ],
      "name": "setEntityRemovalLogic",
      "outputs": [],
      "stateMutability": "nonpayable",
      "type": "function"
    },
    {
      "inputs": [
        {
          "internalType": "address",
          "name": "o",
          "type": "address"
        }
      ],
      "name": "setOwner",
      "outputs": [],
      "stateMutability": "nonpayable",
      "type": "function"
    },
    {
      "inputs": [
        {
          "internalType": "address",
          "name": "registration",
          "type": "address"
        }
      ],
      "name": "setRegistrationLogic",
      "outputs": [],
      "stateMutability": "nonpayable",
      "type": "function"
    },
    {
      "inputs": [
        {
          "components": [
            {
              "internalType": "uint16",
              "name": "coveragePeriodDays",
              "type": "uint16"
            },
            {
              "internalType": "uint16",
              "name": "gracePeriodDays",
              "type": "uint16"
            },
            {
              "internalType": "uint256",
              "name": "fee",
              "type": "uint256"
            }
          ],
          "internalType": "struct RegistrationTerms",
          "name": "terms",
          "type": "tuple"
        }
      ],
      "name": "setTerms",
      "outputs": [],
      "stateMutability": "nonpayable",
      "type": "function"
    },
    {
      "inputs": [
        {
          "internalType": "address",
          "name": "tgt",
          "type": "address"
        },
        {
          "internalType": "bytes",
          "name": "data",
          "type": "bytes"
        }
      ],
      "name": "staticLoop",
      "outputs": [
        {
          "internalType": "bytes",
          "name": "",
          "type": "bytes"
        }
      ],
      "stateMutability": "nonpayable",
      "type": "function"
    },
    {
      "inputs": [
        {
          "internalType": "bytes",
          "name": "data",
          "type": "bytes"
        }
      ],
      "name": "upgradeEntity",
      "outputs": [],
      "stateMutability": "nonpayable",
      "type": "function"
    },
    {
      "inputs": [],
      "name": "version",
      "outputs": [
        {
          "components": [
            {
              "internalType": "uint16",
              "name": "major",
              "type": "uint16"
            },
            {
              "internalType": "uint16",
              "name": "minor",
              "type": "uint16"
            }
          ],
          "internalType": "struct ModuleVersion",
          "name": "",
          "type": "tuple"
        }
      ],
      "stateMutability": "pure",
      "type": "function"
    },
    {
      "stateMutability": "payable",
      "type": "receive"
    }
  ],
  "bytecode": "0x608060405234801561001057600080fd5b5061290a806100206000396000f3fe6080604052600436106102345760003560e01c806391d148541161012e578063cc437f3d116100ab578063e8906a2d1161006f578063e8906a2d146106c6578063f82e2fb3146106e6578063f92dc24f14610706578063f953ad5314610726578063fb365ea91461074657600080fd5b8063cc437f3d14610633578063d547741f14610653578063d6b66c5814610673578063d6fbe02014610693578063e2482bf9146106a657600080fd5b8063b1c5617b116100f2578063b1c5617b1461059e578063b6db923d146105b3578063ba2eb541146105d3578063c3c5a547146105f3578063c625e0ad1461061357600080fd5b806391d14854146105165780639d1c1b8214610536578063a524841c1461054b578063a8c88c171461055e578063af08d53d1461057e57600080fd5b80634173b417116101bc5780635726c94e116101805780635726c94e146104a1578063693c79b2146104c15780637df73e27146102d55780638d361e43146104e15780638da5cb5b1461050157600080fd5b80634173b417146103b25780634ae134cc146103f25780634ec70a48146104125780634f05c1c81461044057806354fd4d501461045457600080fd5b80631092594011610203578063109259401461030557806313af4035146103255780632f2ff15d14610345578063360eca46146103655780633e88a4e21461039257600080fd5b806301f2423014610240578063033a5b601461026257806306fdde03146102825780630a7ee8a0146102d557600080fd5b3661023b57005b600080fd5b34801561024c57600080fd5b5061026061025b3660046120cf565b610766565b005b34801561026e57600080fd5b5061026061027d366004612135565b6107d5565b34801561028e57600080fd5b506102bf60405180604001604052806011815260200170526567697374726172526567697374727960781b81525081565b6040516102cc91906121d0565b60405180910390f35b3480156102e157600080fd5b506102f56102f03660046120cf565b6108f1565b60405190151581526020016102cc565b34801561031157600080fd5b506102bf61032036600461222a565b610977565b34801561033157600080fd5b506102606103403660046120cf565b6109ec565b34801561035157600080fd5b506102606103603660046122d2565b610ac9565b34801561037157600080fd5b5061037a610be3565b6040516001600160a01b0390911681526020016102cc565b34801561039e57600080fd5b5061037a6103ad366004612302565b610bff565b3480156103be57600080fd5b506103c7610c83565b60408051825161ffff90811682526020808501519091169082015291810151908201526060016102cc565b3480156103fe57600080fd5b5061026061040d3660046120cf565b610cd8565b34801561041e57600080fd5b5061043261042d3660046120cf565b610d18565b6040519081526020016102cc565b34801561044c57600080fd5b5060016102f5565b34801561046057600080fd5b50604080518082018252600080825260209182018190528251808401845260018082529083019182528351908152905161ffff1691810191909152016102cc565b3480156104ad57600080fd5b506104326104bc3660046120cf565b610d98565b3480156104cd57600080fd5b506102606104dc3660046120cf565b610ddb565b3480156104ed57600080fd5b506102606104fc366004612344565b610ebe565b34801561050d57600080fd5b5061037a610f9a565b34801561052257600080fd5b506102f56105313660046122d2565b61100e565b34801561054257600080fd5b5061037a611094565b61037a6105593660046123b9565b6110ad565b34801561056a57600080fd5b506102f56105793660046120cf565b6113cb565b34801561058a57600080fd5b50610260610599366004612135565b61140e565b3480156105aa57600080fd5b5061037a6114ec565b3480156105bf57600080fd5b506102f56105ce3660046120cf565b611508565b3480156105df57600080fd5b506102f56105ee3660046120cf565b61154b565b3480156105ff57600080fd5b506102f561060e3660046120cf565b61158e565b34801561061f57600080fd5b5061026061062e366004612302565b6115d1565b34801561063f57600080fd5b5061026061064e36600461240c565b611719565b34801561065f57600080fd5b5061026061066e3660046122d2565b6117f3565b34801561067f57600080fd5b5061026061068e3660046120cf565b6118dd565b6102606106a13660046120cf565b611a1a565b3480156106b257600080fd5b506102f56106c13660046120cf565b611a5a565b3480156106d257600080fd5b506102606106e1366004612344565b611a9d565b3480156106f257600080fd5b506103c76107013660046120cf565b611b79565b34801561071257600080fd5b50610260610721366004612449565b611c0e565b34801561073257600080fd5b506102606107413660046120cf565b611cc3565b34801561075257600080fd5b506102606107613660046120cf565b611e0f565b604051630a53217360e11b81526001600160a01b038216600482015273__$a900877f9a487562fda6a6ff9e324dfa90$__906314a642e6906024015b60006040518083038186803b1580156107ba57600080fd5b505af41580156107ce573d6000803e3d6000fd5b5050505050565b604051632474521560e21b8152600080516020612895833981519152600482015233602482015273__$a5a42e46683ad9c79b7b86d5ff60fdf4c1$__906391d1485490604401602060405180830381865af4158015610838573d6000803e3d6000fd5b505050506040513d601f19601f8201168201806040525081019061085c9190612473565b6108815760405162461bcd60e51b815260040161087890612490565b60405180910390fd5b60405163ede71a1760e01b815273__$a900877f9a487562fda6a6ff9e324dfa90$__9063ede71a17906108bc908690869086906004016124fc565b60006040518083038186803b1580156108d457600080fd5b505af41580156108e8573d6000803e3d6000fd5b50505050505050565b604051637df73e2760e01b81526001600160a01b038216600482015260009073__$a5a42e46683ad9c79b7b86d5ff60fdf4c1$__90637df73e27906024015b602060405180830381865af415801561094d573d6000803e3d6000fd5b505050506040513d601f19601f820116820180604052508101906109719190612473565b92915050565b60603330146109c85760405162461bcd60e51b815260206004820152601e60248201527f42617365436f72654170703a206f6e6c792073656c6620616c6c6f77656400006044820152606401610878565b600080835160208501865af43d604051816000823e8280156109e8578282f35b8282fd5b336001600160a01b031673__$a5a42e46683ad9c79b7b86d5ff60fdf4c1$__638da5cb5b6040518163ffffffff1660e01b8152600401602060405180830381865af4158015610a3f573d6000803e3d6000fd5b505050506040513d601f19601f82011682018060405250810190610a63919061252a565b6001600160a01b031614610a895760405162461bcd60e51b815260040161087890612547565b6040516313af403560e01b81526001600160a01b038216600482015273__$a5a42e46683ad9c79b7b86d5ff60fdf4c1$__906313af4035906024016107a2565b604051632474521560e21b81526000805160206128b5833981519152600482015233602482015273__$a5a42e46683ad9c79b7b86d5ff60fdf4c1$__906391d1485490604401602060405180830381865af4158015610b2c573d6000803e3d6000fd5b505050506040513d601f19601f82011682018060405250810190610b509190612473565b610b6c5760405162461bcd60e51b81526004016108789061258b565b604051632f2ff15d60e01b8152600481018390526001600160a01b038216602482015273__$a5a42e46683ad9c79b7b86d5ff60fdf4c1$__90632f2ff15d906044015b60006040518083038186803b158015610bc757600080fd5b505af4158015610bdb573d6000803e3d6000fd5b505050505050565b6000610bed611f5b565b600201546001600160a01b0316919050565b604051631f44527160e11b815260009073__$99c26cf02cd87b7954163a4a294ae04049$__90633e88a4e290610c3b90869086906004016125ce565b602060405180830381865af4158015610c58573d6000803e3d6000fd5b505050506040513d601f19601f82011682018060405250810190610c7c919061252a565b9392505050565b6040805160608101825260008082526020820181905291810191909152610ca8611fea565b60408051606081018252825461ffff80821683526201000090910416602082015260019092015490820152919050565b6040516347ef542760e01b81526001600160a01b038216600482015273__$a900877f9a487562fda6a6ff9e324dfa90$__906347ef5427906024016107a2565b6040516309d8e14960e31b81526001600160a01b038216600482015260009073__$a900877f9a487562fda6a6ff9e324dfa90$__90634ec70a48906024015b602060405180830381865af4158015610d74573d6000803e3d6000fd5b505050506040513d601f19601f8201168201806040525081019061097191906125e2565b604051632b9364a760e11b81526001600160a01b038216600482015260009073__$a900877f9a487562fda6a6ff9e324dfa90$__90635726c94e90602401610d57565b604051632474521560e21b8152600080516020612895833981519152600482015233602482015273__$a5a42e46683ad9c79b7b86d5ff60fdf4c1$__906391d1485490604401602060405180830381865af4158015610e3e573d6000803e3d6000fd5b505050506040513d601f19601f82011682018060405250810190610e629190612473565b610e7e5760405162461bcd60e51b815260040161087890612490565b60405163699f380760e11b81526001600160a01b038216600482015273__$a900877f9a487562fda6a6ff9e324dfa90$__9063d33e700e906024016107a2565b604051632474521560e21b81526000805160206128b5833981519152600482015233602482015273__$a5a42e46683ad9c79b7b86d5ff60fdf4c1$__906391d1485490604401602060405180830381865af4158015610f21573d6000803e3d6000fd5b505050506040513d601f19601f82011682018060405250810190610f459190612473565b610f615760405162461bcd60e51b81526004016108789061258b565b604051638d361e4360e01b815273__$a5a42e46683ad9c79b7b86d5ff60fdf4c1$__90638d361e4390610baf90859085906004016125fb565b600073__$a5a42e46683ad9c79b7b86d5ff60fdf4c1$__638da5cb5b6040518163ffffffff1660e01b8152600401602060405180830381865af4158015610fe5573d6000803e3d6000fd5b505050506040513d601f19601f82011682018060405250810190611009919061252a565b905090565b604051632474521560e21b8152600481018390526001600160a01b038216602482015260009073__$a5a42e46683ad9c79b7b86d5ff60fdf4c1$__906391d1485490604401602060405180830381865af4158015611070573d6000803e3d6000fd5b505050506040513d601f19601f82011682018060405250810190610c7c9190612473565b600061109e611f5b565b546001600160a01b0316919050565b604051632474521560e21b8152600080516020612895833981519152600482015233602482015260009073__$a5a42e46683ad9c79b7b86d5ff60fdf4c1$__906391d1485490604401602060405180830381865af4158015611113573d6000803e3d6000fd5b505050506040513d601f19601f820116820180604052508101906111379190612473565b6111535760405162461bcd60e51b815260040161087890612490565b6111746040518060600160405280602281526020016128736022913961204f565b600061117e611f5b565b546001600160a01b03169050600081634c5eac876111a260408701602088016120cf565b6111af6040880188612649565b6111bc60608a018a612649565b6040518663ffffffff1660e01b81526004016111dc959493929190612690565b6020604051808303816000875af11580156111fb573d6000803e3d6000fd5b505050506040513d601f19601f8201168201806040525081019061121f919061252a565b90506001600160a01b0381166112895760405162461bcd60e51b815260206004820152602960248201527f52656769737472617252656769737472793a20656e74697479206372656174696044820152681bdb8819985a5b195960ba1b6064820152608401610878565b73__$99c26cf02cd87b7954163a4a294ae04049$__63a5c77532826112ac611fea565b60405160e084901b6001600160e01b03191681526001600160a01b039092166004830152805461ffff808216602485015260109190911c16604483015260010154606482015260840160006040518083038186803b15801561130d57600080fd5b505af4158015611321573d6000803e3d6000fd5b505050506000341115610c7c5761133b60208501856126d4565b1561138e5761135060408501602086016120cf565b6001600160a01b03166108fc349081150290604051600060405180830381858888f19350505050158015611388573d6000803e3d6000fd5b50610c7c565b6040516001600160a01b038216903480156108fc02916000818181858888f193505050501580156113c3573d6000803e3d6000fd5b509392505050565b60405163a8c88c1760e01b81526001600160a01b038216600482015260009073__$a900877f9a487562fda6a6ff9e324dfa90$__9063a8c88c1790602401610930565b604051632474521560e21b8152600080516020612895833981519152600482015233602482015273__$a5a42e46683ad9c79b7b86d5ff60fdf4c1$__906391d1485490604401602060405180830381865af4158015611471573d6000803e3d6000fd5b505050506040513d601f19601f820116820180604052508101906114959190612473565b6114b15760405162461bcd60e51b815260040161087890612490565b604051633f111a5d60e21b815273__$a900877f9a487562fda6a6ff9e324dfa90$__9063fc446974906108bc908690869086906004016124fc565b60006114f6611f5b565b600101546001600160a01b0316919050565b60405163b6db923d60e01b81526001600160a01b038216600482015260009073__$a900877f9a487562fda6a6ff9e324dfa90$__9063b6db923d90602401610930565b60405163ba2eb54160e01b81526001600160a01b038216600482015260009073__$a900877f9a487562fda6a6ff9e324dfa90$__9063ba2eb54190602401610930565b60405163c3c5a54760e01b81526001600160a01b038216600482015260009073__$99c26cf02cd87b7954163a4a294ae04049$__9063c3c5a54790602401610930565b6115da3361158e565b80156116435750336001600160a01b0316634f05c1c86040518163ffffffff1660e01b8152600401602060405180830381865afa15801561161f573d6000803e3d6000fd5b505050506040513d601f19601f820116820180604052508101906116439190612473565b6116ac5760405162461bcd60e51b815260206004820152603460248201527f52656769737472617252656769737472793a2063616c6c6572206973206e6f746044820152732061207265676973746572656420656e7469747960601b6064820152608401610878565b60006116b6611f5b565b5460405163e1ec648160e01b81526001600160a01b039091169150819063e1ec6481906116eb903390879087906004016124fc565b600060405180830381600087803b15801561170557600080fd5b505af11580156108e8573d6000803e3d6000fd5b604051632474521560e21b8152600080516020612895833981519152600482015233602482015273__$a5a42e46683ad9c79b7b86d5ff60fdf4c1$__906391d1485490604401602060405180830381865af415801561177c573d6000803e3d6000fd5b505050506040513d601f19601f820116820180604052508101906117a09190612473565b6117bc5760405162461bcd60e51b815260040161087890612490565b604051630bca13f760e41b815273__$99c26cf02cd87b7954163a4a294ae04049$__9063bca13f70906107a29084906004016126f1565b604051632474521560e21b81526000805160206128b5833981519152600482015233602482015273__$a5a42e46683ad9c79b7b86d5ff60fdf4c1$__906391d1485490604401602060405180830381865af4158015611856573d6000803e3d6000fd5b505050506040513d601f19601f8201168201806040525081019061187a9190612473565b6118965760405162461bcd60e51b81526004016108789061258b565b60405163d547741f60e01b8152600481018390526001600160a01b038216602482015273__$a5a42e46683ad9c79b7b86d5ff60fdf4c1$__9063d547741f90604401610baf565b604051632474521560e21b81526000805160206128b5833981519152600482015233602482015273__$a5a42e46683ad9c79b7b86d5ff60fdf4c1$__906391d1485490604401602060405180830381865af4158015611940573d6000803e3d6000fd5b505050506040513d601f19601f820116820180604052508101906119649190612473565b6119805760405162461bcd60e51b81526004016108789061258b565b6001600160a01b0381166119f05760405162461bcd60e51b815260206004820152603160248201527f52656769737472617252656769737472793a20666163746f72792063616e6e6f60448201527074206265207a65726f206164647265737360781b6064820152608401610878565b806119f9611f5b565b80546001600160a01b0319166001600160a01b039290921691909117905550565b6040516306b7df0160e51b81526001600160a01b038216600482015273__$a900877f9a487562fda6a6ff9e324dfa90$__9063d6fbe020906024016107a2565b60405163e2482bf960e01b81526001600160a01b038216600482015260009073__$a900877f9a487562fda6a6ff9e324dfa90$__9063e2482bf990602401610930565b604051632474521560e21b81526000805160206128b5833981519152600482015233602482015273__$a5a42e46683ad9c79b7b86d5ff60fdf4c1$__906391d1485490604401602060405180830381865af4158015611b00573d6000803e3d6000fd5b505050506040513d601f19601f82011682018060405250810190611b249190612473565b611b405760405162461bcd60e51b81526004016108789061258b565b60405163e8906a2d60e01b815273__$a5a42e46683ad9c79b7b86d5ff60fdf4c1$__9063e8906a2d90610baf90859085906004016125fb565b6040805160608101825260008082526020820181905281830152905163f82e2fb360e01b81526001600160a01b038316600482015273__$a900877f9a487562fda6a6ff9e324dfa90$__9063f82e2fb390602401606060405180830381865af4158015611bea573d6000803e3d6000fd5b505050506040513d601f19601f820116820180604052508101906109719190612792565b336001600160a01b031673__$a5a42e46683ad9c79b7b86d5ff60fdf4c1$__638da5cb5b6040518163ffffffff1660e01b8152600401602060405180830381865af4158015611c61573d6000803e3d6000fd5b505050506040513d601f19601f82011682018060405250810190611c85919061252a565b6001600160a01b031614611cab5760405162461bcd60e51b815260040161087890612547565b80611cb4611fea565b611cbe82826127fd565b505050565b604051632474521560e21b81526000805160206128b5833981519152600482015233602482015273__$a5a42e46683ad9c79b7b86d5ff60fdf4c1$__906391d1485490604401602060405180830381865af4158015611d26573d6000803e3d6000fd5b505050506040513d601f19601f82011682018060405250810190611d4a9190612473565b611d665760405162461bcd60e51b81526004016108789061258b565b6001600160a01b038116611de25760405162461bcd60e51b815260206004820152603d60248201527f52656769737472617252656769737472793a20726567697374726174696f6e2060448201527f6d6f64756c652063616e6e6f74206265207a65726f20616464726573730000006064820152608401610878565b80611deb611f5b565b60020180546001600160a01b0319166001600160a01b039290921691909117905550565b604051632474521560e21b81526000805160206128b5833981519152600482015233602482015273__$a5a42e46683ad9c79b7b86d5ff60fdf4c1$__906391d1485490604401602060405180830381865af4158015611e72573d6000803e3d6000fd5b505050506040513d601f19601f82011682018060405250810190611e969190612473565b611eb25760405162461bcd60e51b81526004016108789061258b565b6001600160a01b038116611f2e5760405162461bcd60e51b815260206004820152603860248201527f52656769737472617252656769737472793a2072656d6f76616c206d6f64756c60448201527f652063616e6e6f74206265207a65726f206164647265737300000000000000006064820152608401610878565b80611f37611f5b565b60010180546001600160a01b0319166001600160a01b039290921691909117905550565b60408051808201909152601681527578722e72656769737472792e73746f726167652e763160501b60209091015260008060ff611fb960017fc5f6dd0a16ba2679a801f9aed1d229beafc737458cf016d01db07e1357fb69f0612851565b604051602001611fcb91815260200190565b60408051601f1981840301815291905280516020909101201692915050565b60408051808201909152601981527f78722e7465726d732e6f776e65722e76312e73746f726167650000000000000060209091015260008060ff611fb960017f6274f56e891028f724b0a56de72de004867f1de7f1819ab332079272d9c19f10612851565b6120928160405160240161206391906121d0565b60408051601f198184030181529190526020810180516001600160e01b031663104c13eb60e21b179052612095565b50565b6120928160006a636f6e736f6c652e6c6f679050600080835160208501845afa505050565b6001600160a01b038116811461209257600080fd5b6000602082840312156120e157600080fd5b8135610c7c816120ba565b60008083601f8401126120fe57600080fd5b50813567ffffffffffffffff81111561211657600080fd5b60208301915083602082850101111561212e57600080fd5b9250929050565b60008060006040848603121561214a57600080fd5b8335612155816120ba565b9250602084013567ffffffffffffffff81111561217157600080fd5b61217d868287016120ec565b9497909650939450505050565b6000815180845260005b818110156121b057602081850181015186830182015201612194565b506000602082860101526020601f19601f83011685010191505092915050565b602081526000610c7c602083018461218a565b634e487b7160e01b600052604160045260246000fd5b604051601f8201601f1916810167ffffffffffffffff81118282101715612222576122226121e3565b604052919050565b6000806040838503121561223d57600080fd5b8235612248816120ba565b915060208381013567ffffffffffffffff8082111561226657600080fd5b818601915086601f83011261227a57600080fd5b81358181111561228c5761228c6121e3565b61229e601f8201601f191685016121f9565b915080825287848285010111156122b457600080fd5b80848401858401376000848284010152508093505050509250929050565b600080604083850312156122e557600080fd5b8235915060208301356122f7816120ba565b809150509250929050565b6000806020838503121561231557600080fd5b823567ffffffffffffffff81111561232c57600080fd5b612338858286016120ec565b90969095509350505050565b6000806020838503121561235757600080fd5b823567ffffffffffffffff8082111561236f57600080fd5b818501915085601f83011261238357600080fd5b81358181111561239257600080fd5b8660208260051b85010111156123a757600080fd5b60209290920196919550909350505050565b6000602082840312156123cb57600080fd5b813567ffffffffffffffff8111156123e257600080fd5b820160808185031215610c7c57600080fd5b60006060828403121561240657600080fd5b50919050565b60006020828403121561241e57600080fd5b813567ffffffffffffffff81111561243557600080fd5b612441848285016123f4565b949350505050565b60006060828403121561245b57600080fd5b610c7c83836123f4565b801515811461209257600080fd5b60006020828403121561248557600080fd5b8151610c7c81612465565b60208082526023908201527f42617365436f72654170703a2063616c6c6572206973206e6f742061207369676040820152623732b960e91b606082015260800190565b81835281816020850137506000828201602090810191909152601f909101601f19169091010190565b6001600160a01b038416815260406020820181905260009061252190830184866124d3565b95945050505050565b60006020828403121561253c57600080fd5b8151610c7c816120ba565b60208082526024908201527f42617365436f72654170703a2063616c6c6572206973206e6f7420746865206f6040820152633bb732b960e11b606082015260800190565b60208082526023908201527f42617365436f72654170703a2063616c6c6572206973206e6f7420616e20616460408201526236b4b760e91b606082015260800190565b6020815260006124416020830184866124d3565b6000602082840312156125f457600080fd5b5051919050565b60208082528181018390526000908460408401835b8681101561263e578235612623816120ba565b6001600160a01b031682529183019190830190600101612610565b509695505050505050565b6000808335601e1984360301811261266057600080fd5b83018035915067ffffffffffffffff82111561267b57600080fd5b60200191503681900382131561212e57600080fd5b6001600160a01b03861681526060602082018190526000906126b590830186886124d3565b82810360408401526126c88185876124d3565b98975050505050505050565b6000602082840312156126e657600080fd5b8135610c7c81612465565b6020815260008235612702816120ba565b6001600160a01b031660208381019190915283013536849003601e1901811261272a57600080fd5b830160208101903567ffffffffffffffff81111561274757600080fd5b80360382131561275657600080fd5b6060604085015261276b6080850182846124d3565b915050604084013560608401528091505092915050565b61ffff8116811461209257600080fd5b6000606082840312156127a457600080fd5b6040516060810181811067ffffffffffffffff821117156127c7576127c76121e3565b60405282516127d581612782565b815260208301516127e581612782565b60208201526040928301519281019290925250919050565b813561280881612782565b61ffff8116905081548161ffff198216178355602084013561282981612782565b63ffff00008160101b168363ffffffff19841617178455505050604082013560018201555050565b8181038181111561097157634e487b7160e01b600052601160045260246000fdfe52656769737472617252656769737472793a20637265617465526567697374726172749410edf1177aefa27612b24d2d51e6441f89613f5ddf9be1d11dfc0d3e4fea2172861495e7b85edac73e3cd5fbb42dd675baadf627720e687bcfdaca025096a264697066735822122067545b817bf30720bda8d454342f29486cf2dca7c8adeae4129126dbf521024164736f6c63430008180033",
  "linkReferences": {
    "contracts/libraries/LibAccess.sol": {
      "LibAccess": [
        {
          "length": 20,
          "start": 2078
        },
        {
          "length": 20,
          "start": 2354
        },
        {
          "length": 20,
          "start": 2584
        },
        {
          "length": 20,
          "start": 2759
        },
        {
          "length": 20,
          "start": 2834
        },
        {
          "length": 20,
          "start": 2993
        },
        {
          "length": 20,
          "start": 3620
        },
        {
          "length": 20,
          "start": 3847
        },
        {
          "length": 20,
          "start": 3984
        },
        {
          "length": 20,
          "start": 4030
        },
        {
          "length": 20,
          "start": 4182
        },
        {
          "length": 20,
          "start": 4345
        },
        {
          "length": 20,
          "start": 5207
        },
        {
          "length": 20,
          "start": 5986
        },
        {
          "length": 20,
          "start": 6204
        },
        {
          "length": 20,
          "start": 6363
        },
        {
          "length": 20,
          "start": 6438
        },
        {
          "length": 20,
          "start": 6886
        },
        {
          "length": 20,
          "start": 7023
        },
        {
          "length": 20,
          "start": 7226
        },
        {
          "length": 20,
          "start": 7436
        },
        {
          "length": 20,
          "start": 7768
        }
      ]
    },
    "contracts/libraries/registry/LibEntityRemoval.sol": {
      "LibEntityRemoval": [
        {
          "length": 20,
          "start": 1956
        },
        {
          "length": 20,
          "start": 2224
        },
        {
          "length": 20,
          "start": 3350
        },
        {
          "length": 20,
          "start": 3417
        },
        {
          "length": 20,
          "start": 3545
        },
        {
          "length": 20,
          "start": 3772
        },
        {
          "length": 20,
          "start": 5132
        },
        {
          "length": 20,
          "start": 5344
        },
        {
          "length": 20,
          "start": 5449
        },
        {
          "length": 20,
          "start": 5516
        },
        {
          "length": 20,
          "start": 6744
        },
        {
          "length": 20,
          "start": 6811
        },
        {
          "length": 20,
          "start": 7120
        }
      ]
    },
    "contracts/libraries/registry/LibRegistration.sol": {
      "LibRegistration": [
        {
          "length": 20,
          "start": 3121
        },
        {
          "length": 20,
          "start": 4779
        },
        {
          "length": 20,
          "start": 5583
        },
        {
          "length": 20,
          "start": 6123
        }
      ]
    }
  },
  "deployedLinkReferences": {
    "contracts/libraries/LibAccess.sol": {
      "LibAccess": [
        {
          "length": 20,
          "start": 2046
        },
        {
          "length": 20,
          "start": 2322
        },
        {
          "length": 20,
          "start": 2552
        },
        {
          "length": 20,
          "start": 2727
        },
        {
          "length": 20,
          "start": 2802
        },
        {
          "length": 20,
          "start": 2961
        },
        {
          "length": 20,
          "start": 3588
        },
        {
          "length": 20,
          "start": 3815
        },
        {
          "length": 20,
          "start": 3952
        },
        {
          "length": 20,
          "start": 3998
        },
        {
          "length": 20,
          "start": 4150
        },
        {
          "length": 20,
          "start": 4313
        },
        {
          "length": 20,
          "start": 5175
        },
        {
          "length": 20,
          "start": 5954
        },
        {
          "length": 20,
          "start": 6172
        },
        {
          "length": 20,
          "start": 6331
        },
        {
          "length": 20,
          "start": 6406
        },
        {
          "length": 20,
          "start": 6854
        },
        {
          "length": 20,
          "start": 6991
        },
        {
          "length": 20,
          "start": 7194
        },
        {
          "length": 20,
          "start": 7404
        },
        {
          "length": 20,
          "start": 7736
        }
      ]
    },
    "contracts/libraries/registry/LibEntityRemoval.sol": {
      "LibEntityRemoval": [
        {
          "length": 20,
          "start": 1924
        },
        {
          "length": 20,
          "start": 2192
        },
        {
          "length": 20,
          "start": 3318
        },
        {
          "length": 20,
          "start": 3385
        },
        {
          "length": 20,
          "start": 3513
        },
        {
          "length": 20,
          "start": 3740
        },
        {
          "length": 20,
          "start": 5100
        },
        {
          "length": 20,
          "start": 5312
        },
        {
          "length": 20,
          "start": 5417
        },
        {
          "length": 20,
          "start": 5484
        },
        {
          "length": 20,
          "start": 6712
        },
        {
          "length": 20,
          "start": 6779
        },
        {
          "length": 20,
          "start": 7088
        }
      ]
    },
    "contracts/libraries/registry/LibRegistration.sol": {
      "LibRegistration": [
        {
          "length": 20,
          "start": 3089
        },
        {
          "length": 20,
          "start": 4747
        },
        {
          "length": 20,
          "start": 5551
        },
        {
          "length": 20,
          "start": 6091
        }
      ]
    }
  }
}