{
  "_format": "hh-sol-artifact-1",
  "contractName": "SignersModule",
  "sourceName": "contracts/modules/signers/SignersModule.sol",
  "abi": [
    {
      "inputs": [
        {
          "internalType": "address",
          "name": "_moduleRegistry",
          "type": "address"
        }
      ],
      "stateMutability": "nonpayable",
      "type": "constructor"
    },
    {
      "anonymous": false,
      "inputs": [
        {
          "indexed": true,
          "internalType": "address",
          "name": "signer",
          "type": "address"
        }
      ],
      "name": "SignerAdded",
      "type": "event"
    },
    {
      "anonymous": false,
      "inputs": [
        {
          "indexed": true,
          "internalType": "address",
          "name": "signer",
          "type": "address"
        }
      ],
      "name": "SignerRemoved",
      "type": "event"
    },
    {
      "inputs": [
        {
          "internalType": "address[]",
          "name": "signers",
          "type": "address[]"
        }
      ],
      "name": "addSigners",
      "outputs": [],
      "stateMutability": "nonpayable",
      "type": "function"
    },
    {
      "inputs": [
        {
          "internalType": "address[]",
          "name": "signers",
          "type": "address[]"
        }
      ],
      "name": "init",
      "outputs": [],
      "stateMutability": "nonpayable",
      "type": "function"
    },
    {
      "inputs": [
        {
          "internalType": "address",
          "name": "a",
          "type": "address"
        }
      ],
      "name": "isSigner",
      "outputs": [
        {
          "internalType": "bool",
          "name": "",
          "type": "bool"
        }
      ],
      "stateMutability": "view",
      "type": "function"
    },
    {
      "inputs": [],
      "name": "name",
      "outputs": [
        {
          "internalType": "string",
          "name": "",
          "type": "string"
        }
      ],
      "stateMutability": "view",
      "type": "function"
    },
    {
      "inputs": [
        {
          "internalType": "address[]",
          "name": "signers",
          "type": "address[]"
        }
      ],
      "name": "removeSigners",
      "outputs": [],
      "stateMutability": "nonpayable",
      "type": "function"
    },
    {
      "inputs": [],
      "name": "version",
      "outputs": [
        {
          "components": [
            {
              "internalType": "uint16",
              "name": "major",
              "type": "uint16"
            },
            {
              "internalType": "uint16",
              "name": "minor",
              "type": "uint16"
            }
          ],
          "internalType": "struct ModuleVersion",
          "name": "",
          "type": "tuple"
        }
      ],
      "stateMutability": "pure",
      "type": "function"
    }
  ],
  "bytecode": "0x60a060405234801561001057600080fd5b50604051610a89380380610a8983398101604081905261002f916100c0565b6001600160a01b0381166100af5760405162461bcd60e51b815260206004820152603360248201527f46756e64734d6f64756c653a206d6f64756c652072656769737472792063616e60448201527f6e6f74206265207a65726f206164647265737300000000000000000000000000606482015260840160405180910390fd5b6001600160a01b03166080526100f0565b6000602082840312156100d257600080fd5b81516001600160a01b03811681146100e957600080fd5b9392505050565b60805161095b61012e60003960008181610158015281816102d30152818161037a0152818161048101528181610581015261061f015261095b6000f3fe608060405234801561001057600080fd5b50600436106100625760003560e01c806306fdde031461006757806354fd4d50146100aa5780637df73e27146100ea5780638d361e431461010d578063c6044c4614610122578063e8906a2d14610135575b600080fd5b6100946040518060400160405280600e81526020016d495369676e6572734d6f64756c6560901b81525081565b6040516100a191906106e4565b60405180910390f35b604080518082018252600080825260209182018190528251808401845260018082529083019182528351908152905161ffff1691810191909152016100a1565b6100fd6100f836600461074f565b610148565b60405190151581526020016100a1565b61012061011b366004610787565b610298565b005b610120610130366004610787565b610472565b610120610143366004610787565b610546565b604080516399ca110760e01b81527f00000000000000000000000000000000000000000000000000000000000000006001600160a01b031660048201526024810191909152600e60448201526d125058d8d95cdcd0dbdb9d1c9bdb60921b606482015260009073__$e4b830ddb33873d2f2bc545c7dd1917103$__906399ca110790608401602060405180830381865af41580156101ea573d6000803e3d6000fd5b505050506040513d601f19601f8201168201806040525081019061020e919061084c565b60405163363c03dd60e21b815260048101919091526001600160a01b038316602482015273__$412454bdda9b7d294afe72572b607fd9f8$__9063d8f00f7490604401602060405180830381865af415801561026e573d6000803e3d6000fd5b505050506040513d601f19601f820116820180604052508101906102929190610865565b92915050565b604051632474521560e21b81527f2172861495e7b85edac73e3cd5fbb42dd675baadf627720e687bcfdaca02509660048201523360248201527f00000000000000000000000000000000000000000000000000000000000000006001600160a01b0316906391d1485490604401602060405180830381865afa158015610322573d6000803e3d6000fd5b505050506040513d601f19601f820116820180604052508101906103469190610865565b61036b5760405162461bcd60e51b815260040161036290610887565b60405180910390fd5b6040516310b021c760e31b81527f00000000000000000000000000000000000000000000000000000000000000006001600160a01b0316600482015273__$a5a42e46683ad9c79b7b86d5ff60fdf4c1$__906385810e3890602401602060405180830381865af41580156103e3573d6000803e3d6000fd5b505050506040513d601f19601f82011682018060405250810190610407919061084c565b6040516357158ad960e11b815273__$412454bdda9b7d294afe72572b607fd9f8$__9163ae2b15b29161043f919085906004016108cc565b60006040518083038186803b15801561045757600080fd5b505af415801561046b573d6000803e3d6000fd5b5050505050565b6040516310b021c760e31b81527f00000000000000000000000000000000000000000000000000000000000000006001600160a01b0316600482015273__$a5a42e46683ad9c79b7b86d5ff60fdf4c1$__906385810e3890602401602060405180830381865af41580156104ea573d6000803e3d6000fd5b505050506040513d601f19601f8201168201806040525081019061050e919061084c565b6040516318bc413760e11b815273__$412454bdda9b7d294afe72572b607fd9f8$__91633178826e9161043f919085906004016108cc565b604051632474521560e21b81527f2172861495e7b85edac73e3cd5fbb42dd675baadf627720e687bcfdaca02509660048201523360248201527f00000000000000000000000000000000000000000000000000000000000000006001600160a01b0316906391d1485490604401602060405180830381865afa1580156105d0573d6000803e3d6000fd5b505050506040513d601f19601f820116820180604052508101906105f49190610865565b6106105760405162461bcd60e51b815260040161036290610887565b6040516310b021c760e31b81527f00000000000000000000000000000000000000000000000000000000000000006001600160a01b0316600482015273__$a5a42e46683ad9c79b7b86d5ff60fdf4c1$__906385810e3890602401602060405180830381865af4158015610688573d6000803e3d6000fd5b505050506040513d601f19601f820116820180604052508101906106ac919061084c565b60405163c75e31d360e01b815273__$412454bdda9b7d294afe72572b607fd9f8$__9163c75e31d39161043f919085906004016108cc565b60006020808352835180602085015260005b81811015610712578581018301518582016040015282016106f6565b506000604082860101526040601f19601f8301168501019250505092915050565b80356001600160a01b038116811461074a57600080fd5b919050565b60006020828403121561076157600080fd5b61076a82610733565b9392505050565b634e487b7160e01b600052604160045260246000fd5b6000602080838503121561079a57600080fd5b823567ffffffffffffffff808211156107b257600080fd5b818501915085601f8301126107c657600080fd5b8135818111156107d8576107d8610771565b8060051b604051601f19603f830116810181811085821117156107fd576107fd610771565b60405291825284820192508381018501918883111561081b57600080fd5b938501935b828510156108405761083185610733565b84529385019392850192610820565b98975050505050505050565b60006020828403121561085e57600080fd5b5051919050565b60006020828403121561087757600080fd5b8151801515811461076a57600080fd5b60208082526025908201527f5369676e6572734d6f64756c653a2063616c6c6572206973206e6f7420616e2060408201526430b236b4b760d91b606082015260800190565b60006040820184835260206040602085015281855180845260608601915060208701935060005b818110156109185784516001600160a01b0316835293830193918301916001016108f3565b509097965050505050505056fea264697066735822122082e7b7cf6a4892c04f8d385c2530c6c12facf7733bc89f13549ea5f114aa3ca364736f6c63430008180033",
  "linkReferences": {
    "contracts/core/LibModule.sol": {
      "LibModule": [
        {
          "length": 20,
          "start": 734
        }
      ]
    },
    "contracts/libraries/LibAccess.sol": {
      "LibAccess": [
        {
          "length": 20,
          "start": 1239
        },
        {
          "length": 20,
          "start": 1502
        },
        {
          "length": 20,
          "start": 1916
        }
      ]
    },
    "contracts/shared-libs/SharedLibSigners.sol": {
      "SharedLibSigners": [
        {
          "length": 20,
          "start": 866
        },
        {
          "length": 20,
          "start": 1348
        },
        {
          "length": 20,
          "start": 1611
        },
        {
          "length": 20,
          "start": 2025
        }
      ]
    }
  },
  "deployedLinkReferences": {
    "contracts/core/LibModule.sol": {
      "LibModule": [
        {
          "length": 20,
          "start": 432
        }
      ]
    },
    "contracts/libraries/LibAccess.sol": {
      "LibAccess": [
        {
          "length": 20,
          "start": 937
        },
        {
          "length": 20,
          "start": 1200
        },
        {
          "length": 20,
          "start": 1614
        }
      ]
    },
    "contracts/shared-libs/SharedLibSigners.sol": {
      "SharedLibSigners": [
        {
          "length": 20,
          "start": 564
        },
        {
          "length": 20,
          "start": 1046
        },
        {
          "length": 20,
          "start": 1309
        },
        {
          "length": 20,
          "start": 1723
        }
      ]
    }
  }
}