{
  "_format": "hh-sol-artifact-1",
  "contractName": "AvatarFactory",
  "sourceName": "contracts/avatar/AvatarFactory.sol",
  "abi": [
    {
      "inputs": [
        {
          "internalType": "address",
          "name": "mainAdmin",
          "type": "address"
        },
        {
          "internalType": "address[]",
          "name": "admins",
          "type": "address[]"
        }
      ],
      "stateMutability": "nonpayable",
      "type": "constructor"
    },
    {
      "inputs": [],
      "name": "AccessControlBadConfirmation",
      "type": "error"
    },
    {
      "inputs": [
        {
          "internalType": "address",
          "name": "account",
          "type": "address"
        },
        {
          "internalType": "bytes32",
          "name": "neededRole",
          "type": "bytes32"
        }
      ],
      "name": "AccessControlUnauthorizedAccount",
      "type": "error"
    },
    {
      "anonymous": false,
      "inputs": [
        {
          "indexed": true,
          "internalType": "address",
          "name": "oldRegistry",
          "type": "address"
        },
        {
          "indexed": true,
          "internalType": "address",
          "name": "newRegistry",
          "type": "address"
        }
      ],
      "name": "AuthorizedRegistryChanged",
      "type": "event"
    },
    {
      "anonymous": false,
      "inputs": [
        {
          "indexed": true,
          "internalType": "bytes32",
          "name": "role",
          "type": "bytes32"
        },
        {
          "indexed": true,
          "internalType": "bytes32",
          "name": "previousAdminRole",
          "type": "bytes32"
        },
        {
          "indexed": true,
          "internalType": "bytes32",
          "name": "newAdminRole",
          "type": "bytes32"
        }
      ],
      "name": "RoleAdminChanged",
      "type": "event"
    },
    {
      "anonymous": false,
      "inputs": [
        {
          "indexed": true,
          "internalType": "bytes32",
          "name": "role",
          "type": "bytes32"
        },
        {
          "indexed": true,
          "internalType": "address",
          "name": "account",
          "type": "address"
        },
        {
          "indexed": true,
          "internalType": "address",
          "name": "sender",
          "type": "address"
        }
      ],
      "name": "RoleGranted",
      "type": "event"
    },
    {
      "anonymous": false,
      "inputs": [
        {
          "indexed": true,
          "internalType": "bytes32",
          "name": "role",
          "type": "bytes32"
        },
        {
          "indexed": true,
          "internalType": "address",
          "name": "account",
          "type": "address"
        },
        {
          "indexed": true,
          "internalType": "address",
          "name": "sender",
          "type": "address"
        }
      ],
      "name": "RoleRevoked",
      "type": "event"
    },
    {
      "inputs": [],
      "name": "ADMIN_ROLE",
      "outputs": [
        {
          "internalType": "bytes32",
          "name": "",
          "type": "bytes32"
        }
      ],
      "stateMutability": "view",
      "type": "function"
    },
    {
      "inputs": [],
      "name": "DEFAULT_ADMIN_ROLE",
      "outputs": [
        {
          "internalType": "bytes32",
          "name": "",
          "type": "bytes32"
        }
      ],
      "stateMutability": "view",
      "type": "function"
    },
    {
      "inputs": [
        {
          "internalType": "address",
          "name": "owner",
          "type": "address"
        },
        {
          "internalType": "address",
          "name": "defaultExperience",
          "type": "address"
        },
        {
          "internalType": "string",
          "name": "username",
          "type": "string"
        },
        {
          "internalType": "bytes",
          "name": "initData",
          "type": "bytes"
        }
      ],
      "name": "createAvatar",
      "outputs": [
        {
          "internalType": "address",
          "name": "proxy",
          "type": "address"
        }
      ],
      "stateMutability": "nonpayable",
      "type": "function"
    },
    {
      "inputs": [],
      "name": "getImplementation",
      "outputs": [
        {
          "internalType": "address",
          "name": "",
          "type": "address"
        }
      ],
      "stateMutability": "view",
      "type": "function"
    },
    {
      "inputs": [],
      "name": "getProxyImplementation",
      "outputs": [
        {
          "internalType": "address",
          "name": "",
          "type": "address"
        }
      ],
      "stateMutability": "view",
      "type": "function"
    },
    {
      "inputs": [
        {
          "internalType": "bytes32",
          "name": "role",
          "type": "bytes32"
        }
      ],
      "name": "getRoleAdmin",
      "outputs": [
        {
          "internalType": "bytes32",
          "name": "",
          "type": "bytes32"
        }
      ],
      "stateMutability": "view",
      "type": "function"
    },
    {
      "inputs": [
        {
          "internalType": "bytes32",
          "name": "role",
          "type": "bytes32"
        },
        {
          "internalType": "address",
          "name": "account",
          "type": "address"
        }
      ],
      "name": "grantRole",
      "outputs": [],
      "stateMutability": "nonpayable",
      "type": "function"
    },
    {
      "inputs": [
        {
          "internalType": "bytes32",
          "name": "role",
          "type": "bytes32"
        },
        {
          "internalType": "address",
          "name": "account",
          "type": "address"
        }
      ],
      "name": "hasRole",
      "outputs": [
        {
          "internalType": "bool",
          "name": "",
          "type": "bool"
        }
      ],
      "stateMutability": "view",
      "type": "function"
    },
    {
      "inputs": [
        {
          "internalType": "bytes32",
          "name": "role",
          "type": "bytes32"
        },
        {
          "internalType": "address",
          "name": "callerConfirmation",
          "type": "address"
        }
      ],
      "name": "renounceRole",
      "outputs": [],
      "stateMutability": "nonpayable",
      "type": "function"
    },
    {
      "inputs": [
        {
          "internalType": "bytes32",
          "name": "role",
          "type": "bytes32"
        },
        {
          "internalType": "address",
          "name": "account",
          "type": "address"
        }
      ],
      "name": "revokeRole",
      "outputs": [],
      "stateMutability": "nonpayable",
      "type": "function"
    },
    {
      "inputs": [
        {
          "internalType": "address",
          "name": "_registry",
          "type": "address"
        }
      ],
      "name": "setAuthorizedRegistry",
      "outputs": [],
      "stateMutability": "nonpayable",
      "type": "function"
    },
    {
      "inputs": [
        {
          "internalType": "address",
          "name": "_implementation",
          "type": "address"
        },
        {
          "internalType": "uint256",
          "name": "version",
          "type": "uint256"
        }
      ],
      "name": "setImplementation",
      "outputs": [],
      "stateMutability": "nonpayable",
      "type": "function"
    },
    {
      "inputs": [
        {
          "internalType": "address",
          "name": "_proxyImplementation",
          "type": "address"
        }
      ],
      "name": "setProxyImplementation",
      "outputs": [],
      "stateMutability": "nonpayable",
      "type": "function"
    },
    {
      "inputs": [
        {
          "internalType": "bytes4",
          "name": "interfaceId",
          "type": "bytes4"
        }
      ],
      "name": "supportsInterface",
      "outputs": [
        {
          "internalType": "bool",
          "name": "",
          "type": "bool"
        }
      ],
      "stateMutability": "view",
      "type": "function"
    },
    {
      "inputs": [],
      "name": "supportsVersion",
      "outputs": [
        {
          "internalType": "uint256",
          "name": "",
          "type": "uint256"
        }
      ],
      "stateMutability": "view",
      "type": "function"
    },
    {
      "inputs": [
        {
          "internalType": "address",
          "name": "avatar",
          "type": "address"
        },
        {
          "internalType": "bytes",
          "name": "initData",
          "type": "bytes"
        }
      ],
      "name": "upgradeAvatar",
      "outputs": [],
      "stateMutability": "nonpayable",
      "type": "function"
    }
  ],
  "bytecode": "0x60806040523480156200001157600080fd5b5060405162001436380380620014368339810160408190526200003491620002a6565b81816001600160a01b038216620000a95760405162461bcd60e51b815260206004820152602e60248201527f42617365466163746f72793a206d61696e2061646d696e2063616e6e6f74206260448201526d65207a65726f206164647265737360901b60648201526084015b60405180910390fd5b620000b6600083620001c4565b50620000d26000805160206200141683398151915283620001c4565b5060005b8151811015620001b95760006001600160a01b03168282815181106200010057620001006200038f565b60200260200101516001600160a01b031603620001725760405162461bcd60e51b815260206004820152602960248201527f42617365466163746f72793a2061646d696e2063616e6e6f74206265207a65726044820152686f206164647265737360b81b6064820152608401620000a0565b620001af600080516020620014168339815191528383815181106200019b576200019b6200038f565b6020026020010151620001c460201b60201c565b50600101620000d6565b5050505050620003a5565b6000828152602081815260408083206001600160a01b038516845290915281205460ff1662000269576000838152602081815260408083206001600160a01b03861684529091529020805460ff19166001179055620002203390565b6001600160a01b0316826001600160a01b0316847f2f8788117e7eff1d82e926ec794901d17c78024a50270940304540a733656f0d60405160405180910390a45060016200026d565b5060005b92915050565b80516001600160a01b03811681146200028b57600080fd5b919050565b634e487b7160e01b600052604160045260246000fd5b60008060408385031215620002ba57600080fd5b620002c58362000273565b602084810151919350906001600160401b0380821115620002e557600080fd5b818601915086601f830112620002fa57600080fd5b8151818111156200030f576200030f62000290565b8060051b604051601f19603f8301168101818110858211171562000337576200033762000290565b6040529182528482019250838101850191898311156200035657600080fd5b938501935b828510156200037f576200036f8562000273565b845293850193928501926200035b565b8096505050505050509250929050565b634e487b7160e01b600052603260045260246000fd5b61106180620003b56000396000f3fe608060405234801561001057600080fd5b50600436106101005760003560e01c806375b238fc11610097578063a217fddf11610066578063a217fddf14610236578063aaf10f421461023e578063d547741f1461024f578063e921c2751461026257600080fd5b806375b238fc146101ea57806390e4b720146101ff57806391d14854146102105780639fdcd3a41461022357600080fd5b80632f2ff15d116100d35780632f2ff15d146101865780633007c545146101995780633033a4e5146101c457806336568abe146101d757600080fd5b806301ffc9a714610105578063090741a01461012d578063180aef9914610142578063248a9ca314610155575b600080fd5b610118610113366004610bfd565b61026b565b60405190151581526020015b60405180910390f35b61014061013b366004610c43565b6102a2565b005b610140610150366004610c60565b610378565b610178610163366004610ce5565b60009081526020819052604090206001015490565b604051908152602001610124565b610140610194366004610cfe565b610554565b6101ac6101a7366004610dba565b61057f565b6040516001600160a01b039091168152602001610124565b6101406101d2366004610e6e565b6106a9565b6101406101e5366004610cfe565b61083d565b61017860008051602061100c83398151915281565b6002546001600160a01b03166101ac565b61011861021e366004610cfe565b610875565b610140610231366004610c43565b61089e565b610178600081565b6001546001600160a01b03166101ac565b61014061025d366004610cfe565b610955565b61017860045481565b60006001600160e01b03198216637965db0b60e01b148061029c57506301ffc9a760e01b6001600160e01b03198316145b92915050565b60008051602061100c8339815191526102ba8161097a565b6001600160a01b03821661032b5760405162461bcd60e51b815260206004820152602d60248201527f576f726c64466163746f72793a2072656769737472792063616e6e6f7420626560448201526c207a65726f206164647265737360981b60648201526084015b60405180910390fd5b600380546001600160a01b0319166001600160a01b03841690811790915560405181907fc86b12484784843e0f58748ffb8c87f7ee384e04382a190867f3cccc3b6cf97b90600090a35050565b6003546001600160a01b03166103a05760405162461bcd60e51b815260040161032290610e9a565b6003546001600160a01b031633146103ca5760405162461bcd60e51b815260040161032290610ee2565b6000836001600160a01b031663aaf10f426040518163ffffffff1660e01b8152600401602060405180830381865afa15801561040a573d6000803e3d6000fd5b505050506040513d601f19601f8201168201806040525081019061042e9190610f30565b6001549091506001600160a01b039081169082160361048f5760405162461bcd60e51b815260206004820152601d60248201527f416c7265616479206f6e20746865206c61746573742076657273696f6e0000006044820152606401610322565b600154604051632663d1f760e01b81526001600160a01b03918216600482015290851690632663d1f790602401600060405180830381600087803b1580156104d657600080fd5b505af11580156104ea573d6000803e3d6000fd5b5050604051631377d1f560e21b81526001600160a01b0387169250634ddf47d4915061051c9086908690600401610f4d565b600060405180830381600087803b15801561053657600080fd5b505af115801561054a573d6000803e3d6000fd5b5050505050505050565b60008281526020819052604090206001015461056f8161097a565b6105798383610987565b50505050565b6003546000906001600160a01b03166105aa5760405162461bcd60e51b815260040161032290610e9a565b6003546001600160a01b031633146105d45760405162461bcd60e51b815260040161032290610ee2565b6105dc610a19565b600154604051639c02006160e01b81526001600160a01b039182166004820152919250821690639c02006190602401600060405180830381600087803b15801561062557600080fd5b505af1158015610639573d6000803e3d6000fd5b5050604051633909d4d760e21b81526001600160a01b038416925063e427535c915061066f908890889088908890600401610fc2565b600060405180830381600087803b15801561068957600080fd5b505af115801561069d573d6000803e3d6000fd5b50505050949350505050565b60008051602061100c8339815191526106c18161097a565b6001600160a01b0383166107325760405162461bcd60e51b815260206004820152603260248201527f42617365466163746f72793a20696d706c656d656e746174696f6e2063616e6e6044820152716f74206265207a65726f206164647265737360701b6064820152608401610322565b60045482116107a95760405162461bcd60e51b815260206004820152603960248201527f42617365466163746f72793a2076657273696f6e206d7573742062652067726560448201527f61746572207468616e2063757272656e742076657273696f6e000000000000006064820152608401610322565b6001546001600160a01b038085169116036108165760405162461bcd60e51b815260206004820152602760248201527f42617365466163746f72793a20696d706c656d656e746174696f6e20616c726560448201526618591e481cd95d60ca1b6064820152608401610322565b50600180546001600160a01b0319166001600160a01b039390931692909217909155600455565b6001600160a01b03811633146108665760405163334bd91960e11b815260040160405180910390fd5b6108708282610aa0565b505050565b6000918252602082815260408084206001600160a01b0393909316845291905290205460ff1690565b60008051602061100c8339815191526108b68161097a565b6001600160a01b0382166109325760405162461bcd60e51b815260206004820152603860248201527f42617365466163746f72793a2070726f787920696d706c656d656e746174696f60448201527f6e2063616e6e6f74206265207a65726f206164647265737300000000000000006064820152608401610322565b50600280546001600160a01b0319166001600160a01b0392909216919091179055565b6000828152602081905260409020600101546109708161097a565b6105798383610aa0565b6109848133610b0b565b50565b60006109938383610875565b610a11576000838152602081815260408083206001600160a01b03861684529091529020805460ff191660011790556109c93390565b6001600160a01b0316826001600160a01b0316847f2f8788117e7eff1d82e926ec794901d17c78024a50270940304540a733656f0d60405160405180910390a450600161029c565b50600061029c565b6002546000906001600160a01b0316610a865760405162461bcd60e51b815260206004820152602960248201527f42617365466163746f72793a2070726f787920696d706c656d656e746174696f6044820152681b881b9bdd081cd95d60ba1b6064820152608401610322565b600254610a9b906001600160a01b0316610b48565b905090565b6000610aac8383610875565b15610a11576000838152602081815260408083206001600160a01b0386168085529252808320805460ff1916905551339286917ff6391f5c32d9c69d2a47ea670b442974b53935d1edc7fd64eb21e047a839171b9190a450600161029c565b610b158282610875565b610b445760405163e2517d3f60e01b81526001600160a01b038216600482015260248101839052604401610322565b5050565b60006001600160a01b038216610bac5760405162461bcd60e51b815260206004820152602360248201527f42617365466163746f72793a20696d706c656d656e746174696f6e206e6f74206044820152621cd95d60ea1b6064820152608401610322565b60008260601b9050604051733d602d80600a3d3981f3363d3d373d3d3d363d7360601b81528160148201526e5af43d82803e903d91602b57fd5bf360881b60288201526037816000f0949350505050565b600060208284031215610c0f57600080fd5b81356001600160e01b031981168114610c2757600080fd5b9392505050565b6001600160a01b038116811461098457600080fd5b600060208284031215610c5557600080fd5b8135610c2781610c2e565b600080600060408486031215610c7557600080fd5b8335610c8081610c2e565b9250602084013567ffffffffffffffff80821115610c9d57600080fd5b818601915086601f830112610cb157600080fd5b813581811115610cc057600080fd5b876020828501011115610cd257600080fd5b6020830194508093505050509250925092565b600060208284031215610cf757600080fd5b5035919050565b60008060408385031215610d1157600080fd5b823591506020830135610d2381610c2e565b809150509250929050565b634e487b7160e01b600052604160045260246000fd5b600067ffffffffffffffff80841115610d5f57610d5f610d2e565b604051601f8501601f19908116603f01168101908282118183101715610d8757610d87610d2e565b81604052809350858152868686011115610da057600080fd5b858560208301376000602087830101525050509392505050565b60008060008060808587031215610dd057600080fd5b8435610ddb81610c2e565b93506020850135610deb81610c2e565b9250604085013567ffffffffffffffff80821115610e0857600080fd5b818701915087601f830112610e1c57600080fd5b610e2b88833560208501610d44565b93506060870135915080821115610e4157600080fd5b508501601f81018713610e5357600080fd5b610e6287823560208401610d44565b91505092959194509250565b60008060408385031215610e8157600080fd5b8235610e8c81610c2e565b946020939093013593505050565b60208082526028908201527f42617365466163746f72793a20617574686f72697a6564207265676973747279604082015267081b9bdd081cd95d60c21b606082015260800190565b6020808252602e908201527f42617365466163746f72793a2063616c6c6572206973206e6f7420617574686f60408201526d72697a656420726567697374727960901b606082015260800190565b600060208284031215610f4257600080fd5b8151610c2781610c2e565b60208152816020820152818360408301376000818301604090810191909152601f909201601f19160101919050565b6000815180845260005b81811015610fa257602081850181015186830182015201610f86565b506000602082860101526020601f19601f83011685010191505092915050565b6001600160a01b03858116825284166020820152608060408201819052600090610fee90830185610f7c565b82810360608401526110008185610f7c565b97965050505050505056fea49807205ce4d355092ef5a8a18f56e8913cf4a201fbe287825b095693c21775a264697066735822122060449c46cb779ae378f2c7ebf708df86a2c2a6376d918b62a742b567bdf0225064736f6c63430008180033a49807205ce4d355092ef5a8a18f56e8913cf4a201fbe287825b095693c21775",
  "linkReferences": {},
  "deployedLinkReferences": {}
}