{
  "_format": "hh-sol-artifact-1",
  "contractName": "WorldRegistryV2",
  "sourceName": "contracts/world/v0.2/WorldRegistryV2.sol",
  "abi": [
    {
      "inputs": [
        {
          "components": [
            {
              "internalType": "address",
              "name": "vectorAuthority",
              "type": "address"
            },
            {
              "internalType": "address",
              "name": "worldFactory",
              "type": "address"
            },
            {
              "internalType": "address",
              "name": "registrarRegistry",
              "type": "address"
            },
            {
              "internalType": "address",
              "name": "defaultAdmin",
              "type": "address"
            },
            {
              "internalType": "address",
              "name": "oldWorldRegistry",
              "type": "address"
            },
            {
              "internalType": "address[]",
              "name": "otherAdmins",
              "type": "address[]"
            }
          ],
          "internalType": "struct WorldRegistryContructorArgs",
          "name": "args",
          "type": "tuple"
        }
      ],
      "stateMutability": "nonpayable",
      "type": "constructor"
    },
    {
      "inputs": [],
      "name": "AccessControlBadConfirmation",
      "type": "error"
    },
    {
      "inputs": [
        {
          "internalType": "address",
          "name": "account",
          "type": "address"
        },
        {
          "internalType": "bytes32",
          "name": "neededRole",
          "type": "bytes32"
        }
      ],
      "name": "AccessControlUnauthorizedAccount",
      "type": "error"
    },
    {
      "inputs": [],
      "name": "ECDSAInvalidSignature",
      "type": "error"
    },
    {
      "inputs": [
        {
          "internalType": "uint256",
          "name": "length",
          "type": "uint256"
        }
      ],
      "name": "ECDSAInvalidSignatureLength",
      "type": "error"
    },
    {
      "inputs": [
        {
          "internalType": "bytes32",
          "name": "s",
          "type": "bytes32"
        }
      ],
      "name": "ECDSAInvalidSignatureS",
      "type": "error"
    },
    {
      "inputs": [],
      "name": "ReentrancyGuardReentrantCall",
      "type": "error"
    },
    {
      "anonymous": false,
      "inputs": [
        {
          "indexed": true,
          "internalType": "bytes32",
          "name": "role",
          "type": "bytes32"
        },
        {
          "indexed": true,
          "internalType": "bytes32",
          "name": "previousAdminRole",
          "type": "bytes32"
        },
        {
          "indexed": true,
          "internalType": "bytes32",
          "name": "newAdminRole",
          "type": "bytes32"
        }
      ],
      "name": "RoleAdminChanged",
      "type": "event"
    },
    {
      "anonymous": false,
      "inputs": [
        {
          "indexed": true,
          "internalType": "bytes32",
          "name": "role",
          "type": "bytes32"
        },
        {
          "indexed": true,
          "internalType": "address",
          "name": "account",
          "type": "address"
        },
        {
          "indexed": true,
          "internalType": "address",
          "name": "sender",
          "type": "address"
        }
      ],
      "name": "RoleGranted",
      "type": "event"
    },
    {
      "anonymous": false,
      "inputs": [
        {
          "indexed": true,
          "internalType": "bytes32",
          "name": "role",
          "type": "bytes32"
        },
        {
          "indexed": true,
          "internalType": "address",
          "name": "account",
          "type": "address"
        },
        {
          "indexed": true,
          "internalType": "address",
          "name": "sender",
          "type": "address"
        }
      ],
      "name": "RoleRevoked",
      "type": "event"
    },
    {
      "anonymous": false,
      "inputs": [
        {
          "indexed": true,
          "internalType": "address",
          "name": "authority",
          "type": "address"
        }
      ],
      "name": "VectorAddressAuthorityAdded",
      "type": "event"
    },
    {
      "anonymous": false,
      "inputs": [
        {
          "indexed": true,
          "internalType": "address",
          "name": "authority",
          "type": "address"
        }
      ],
      "name": "VectorAddressAuthorityRemoved",
      "type": "event"
    },
    {
      "anonymous": false,
      "inputs": [
        {
          "indexed": true,
          "internalType": "address",
          "name": "world",
          "type": "address"
        },
        {
          "indexed": true,
          "internalType": "address",
          "name": "owner",
          "type": "address"
        },
        {
          "components": [
            {
              "internalType": "string",
              "name": "x",
              "type": "string"
            },
            {
              "internalType": "string",
              "name": "y",
              "type": "string"
            },
            {
              "internalType": "string",
              "name": "z",
              "type": "string"
            },
            {
              "internalType": "uint256",
              "name": "t",
              "type": "uint256"
            },
            {
              "internalType": "uint256",
              "name": "p",
              "type": "uint256"
            },
            {
              "internalType": "uint256",
              "name": "p_sub",
              "type": "uint256"
            }
          ],
          "indexed": false,
          "internalType": "struct VectorAddress",
          "name": "vectorAddress",
          "type": "tuple"
        }
      ],
      "name": "WorldRegistered",
      "type": "event"
    },
    {
      "inputs": [],
      "name": "ADMIN_ROLE",
      "outputs": [
        {
          "internalType": "bytes32",
          "name": "",
          "type": "bytes32"
        }
      ],
      "stateMutability": "view",
      "type": "function"
    },
    {
      "inputs": [],
      "name": "DEFAULT_ADMIN_ROLE",
      "outputs": [
        {
          "internalType": "bytes32",
          "name": "",
          "type": "bytes32"
        }
      ],
      "stateMutability": "view",
      "type": "function"
    },
    {
      "inputs": [],
      "name": "VECTOR_AUTHORITY_ROLE",
      "outputs": [
        {
          "internalType": "bytes32",
          "name": "",
          "type": "bytes32"
        }
      ],
      "stateMutability": "view",
      "type": "function"
    },
    {
      "inputs": [
        {
          "internalType": "address",
          "name": "auth",
          "type": "address"
        }
      ],
      "name": "addVectorAddressAuthority",
      "outputs": [],
      "stateMutability": "nonpayable",
      "type": "function"
    },
    {
      "inputs": [],
      "name": "currentWorldVersion",
      "outputs": [
        {
          "internalType": "uint256",
          "name": "",
          "type": "uint256"
        }
      ],
      "stateMutability": "view",
      "type": "function"
    },
    {
      "inputs": [
        {
          "internalType": "bytes32",
          "name": "role",
          "type": "bytes32"
        }
      ],
      "name": "getRoleAdmin",
      "outputs": [
        {
          "internalType": "bytes32",
          "name": "",
          "type": "bytes32"
        }
      ],
      "stateMutability": "view",
      "type": "function"
    },
    {
      "inputs": [
        {
          "internalType": "string",
          "name": "name",
          "type": "string"
        }
      ],
      "name": "getWorldByName",
      "outputs": [
        {
          "internalType": "address",
          "name": "",
          "type": "address"
        }
      ],
      "stateMutability": "view",
      "type": "function"
    },
    {
      "inputs": [
        {
          "internalType": "bytes32",
          "name": "role",
          "type": "bytes32"
        },
        {
          "internalType": "address",
          "name": "account",
          "type": "address"
        }
      ],
      "name": "grantRole",
      "outputs": [],
      "stateMutability": "nonpayable",
      "type": "function"
    },
    {
      "inputs": [
        {
          "internalType": "bytes32",
          "name": "role",
          "type": "bytes32"
        },
        {
          "internalType": "address",
          "name": "account",
          "type": "address"
        }
      ],
      "name": "hasRole",
      "outputs": [
        {
          "internalType": "bool",
          "name": "",
          "type": "bool"
        }
      ],
      "stateMutability": "view",
      "type": "function"
    },
    {
      "inputs": [
        {
          "internalType": "address",
          "name": "auth",
          "type": "address"
        }
      ],
      "name": "isVectorAddressAuthority",
      "outputs": [
        {
          "internalType": "bool",
          "name": "",
          "type": "bool"
        }
      ],
      "stateMutability": "view",
      "type": "function"
    },
    {
      "inputs": [
        {
          "internalType": "address",
          "name": "world",
          "type": "address"
        }
      ],
      "name": "isWorld",
      "outputs": [
        {
          "internalType": "bool",
          "name": "",
          "type": "bool"
        }
      ],
      "stateMutability": "view",
      "type": "function"
    },
    {
      "inputs": [],
      "name": "previousRegistry",
      "outputs": [
        {
          "internalType": "contract IWorldRegistryV1",
          "name": "",
          "type": "address"
        }
      ],
      "stateMutability": "view",
      "type": "function"
    },
    {
      "inputs": [
        {
          "components": [
            {
              "internalType": "bool",
              "name": "sendTokensToWorldOwner",
              "type": "bool"
            },
            {
              "internalType": "address",
              "name": "oldWorld",
              "type": "address"
            },
            {
              "internalType": "address",
              "name": "owner",
              "type": "address"
            },
            {
              "components": [
                {
                  "internalType": "string",
                  "name": "x",
                  "type": "string"
                },
                {
                  "internalType": "string",
                  "name": "y",
                  "type": "string"
                },
                {
                  "internalType": "string",
                  "name": "z",
                  "type": "string"
                },
                {
                  "internalType": "uint256",
                  "name": "t",
                  "type": "uint256"
                },
                {
                  "internalType": "uint256",
                  "name": "p",
                  "type": "uint256"
                },
                {
                  "internalType": "uint256",
                  "name": "p_sub",
                  "type": "uint256"
                }
              ],
              "internalType": "struct VectorAddress",
              "name": "baseVector",
              "type": "tuple"
            },
            {
              "internalType": "string",
              "name": "name",
              "type": "string"
            },
            {
              "internalType": "uint256",
              "name": "registrarId",
              "type": "uint256"
            },
            {
              "internalType": "bytes",
              "name": "initData",
              "type": "bytes"
            },
            {
              "internalType": "bytes",
              "name": "vectorAuthoritySignature",
              "type": "bytes"
            }
          ],
          "internalType": "struct WorldRegistrationRequest",
          "name": "request",
          "type": "tuple"
        }
      ],
      "name": "register",
      "outputs": [],
      "stateMutability": "payable",
      "type": "function"
    },
    {
      "inputs": [],
      "name": "registrarRegistry",
      "outputs": [
        {
          "internalType": "contract IRegistrarRegistry",
          "name": "",
          "type": "address"
        }
      ],
      "stateMutability": "view",
      "type": "function"
    },
    {
      "inputs": [
        {
          "internalType": "address",
          "name": "auth",
          "type": "address"
        }
      ],
      "name": "removeVectorAddressAuthority",
      "outputs": [],
      "stateMutability": "nonpayable",
      "type": "function"
    },
    {
      "inputs": [
        {
          "internalType": "bytes32",
          "name": "role",
          "type": "bytes32"
        },
        {
          "internalType": "address",
          "name": "callerConfirmation",
          "type": "address"
        }
      ],
      "name": "renounceRole",
      "outputs": [],
      "stateMutability": "nonpayable",
      "type": "function"
    },
    {
      "inputs": [
        {
          "internalType": "bytes32",
          "name": "role",
          "type": "bytes32"
        },
        {
          "internalType": "address",
          "name": "account",
          "type": "address"
        }
      ],
      "name": "revokeRole",
      "outputs": [],
      "stateMutability": "nonpayable",
      "type": "function"
    },
    {
      "inputs": [
        {
          "internalType": "address",
          "name": "factory",
          "type": "address"
        }
      ],
      "name": "setWorldFactory",
      "outputs": [],
      "stateMutability": "nonpayable",
      "type": "function"
    },
    {
      "inputs": [
        {
          "internalType": "bytes4",
          "name": "interfaceId",
          "type": "bytes4"
        }
      ],
      "name": "supportsInterface",
      "outputs": [
        {
          "internalType": "bool",
          "name": "",
          "type": "bool"
        }
      ],
      "stateMutability": "view",
      "type": "function"
    },
    {
      "inputs": [
        {
          "internalType": "bytes",
          "name": "initData",
          "type": "bytes"
        }
      ],
      "name": "upgradeWorld",
      "outputs": [],
      "stateMutability": "nonpayable",
      "type": "function"
    },
    {
      "inputs": [],
      "name": "vectorAuthority",
      "outputs": [
        {
          "internalType": "address",
          "name": "",
          "type": "address"
        }
      ],
      "stateMutability": "view",
      "type": "function"
    },
    {
      "inputs": [],
      "name": "worldFactory",
      "outputs": [
        {
          "internalType": "contract IWorldFactoryV2",
          "name": "",
          "type": "address"
        }
      ],
      "stateMutability": "view",
      "type": "function"
    },
    {
      "stateMutability": "payable",
      "type": "receive"
    }
  ],
  "bytecode": "0x60806040523480156200001157600080fd5b5060405162002638380380620026388339810160408190526200003491620004f6565b600160005580516001600160a01b0316620000ae5760405162461bcd60e51b815260206004820152602f60248201527f576f726c645265676973747279305f323a20766563746f72417574686f72697460448201526e0792063616e6e6f742062652030783608c1b60648201526084015b60405180910390fd5b60208101516001600160a01b03166200011f5760405162461bcd60e51b815260206004820152602c60248201527f576f726c645265676973747279305f323a20776f726c64466163746f7279206360448201526b0616e6e6f74206265203078360a41b6064820152608401620000a5565b60608101516001600160a01b0316620001905760405162461bcd60e51b815260206004820152602c60248201527f576f726c645265676973747279305f323a2064656661756c7441646d696e206360448201526b0616e6e6f74206265203078360a41b6064820152608401620000a5565b60408101516001600160a01b0316620002065760405162461bcd60e51b815260206004820152603160248201527f576f726c645265676973747279305f323a20726567697374726172526567697360448201527007472792063616e6e6f742062652030783607c1b6064820152608401620000a5565b8051600280546001600160a01b039283166001600160a01b03199182161790915560208301516003805491841691831691909117905560808301516004805491841691831691909117905560408301516005805491909316911617905560608101516200027690600090620003ce565b506200029c600080516020620026188339815191528260600151620003ce60201b60201c565b508051620002cc907f2758c8c5d77b29e60fffbf4a2bcb0fc98a947bd2a0dead06fdc32cd3cef1168d90620003ce565b5060005b8160a0015151811015620003c65760006001600160a01b03168260a0015182815181106200030257620003026200063f565b60200260200101516001600160a01b0316036200037b5760405162461bcd60e51b815260206004820152603060248201527f576f726c645265676973747279305f323a206f7468657241646d696e7320636160448201526f06e6e6f7420636f6e7461696e203078360841b6064820152608401620000a5565b620003bc600080516020620026188339815191528360a001518381518110620003a857620003a86200063f565b6020026020010151620003ce60201b60201c565b50600101620002d0565b505062000655565b60008281526001602090815260408083206001600160a01b038516845290915281205460ff166200045b5760008381526001602081815260408084206001600160a01b0387168086529252808420805460ff19169093179092559051339286917f2f8788117e7eff1d82e926ec794901d17c78024a50270940304540a733656f0d9190a45060016200045f565b5060005b92915050565b634e487b7160e01b600052604160045260246000fd5b60405160c081016001600160401b0381118282101715620004a057620004a062000465565b60405290565b604051601f8201601f191681016001600160401b0381118282101715620004d157620004d162000465565b604052919050565b80516001600160a01b0381168114620004f157600080fd5b919050565b600060208083850312156200050a57600080fd5b82516001600160401b03808211156200052257600080fd5b9084019060c082870312156200053757600080fd5b620005416200047b565b6200054c83620004d9565b81526200055b848401620004d9565b848201526200056d60408401620004d9565b60408201526200058060608401620004d9565b60608201526200059360808401620004d9565b608082015260a083015182811115620005ab57600080fd5b80840193505086601f840112620005c157600080fd5b825182811115620005d657620005d662000465565b8060051b9250620005e9858401620004a6565b81815292840185019285810190898511156200060457600080fd5b948601945b848610156200062d576200061d86620004d9565b8252948601949086019062000609565b60a08401525090979650505050505050565b634e487b7160e01b600052603260045260246000fd5b611fb380620006656000396000f3fe6080604052600436106101395760003560e01c806391d14854116100ab578063b7722c7f1161006f578063b7722c7f14610374578063d547741f14610394578063db8d7466146103b4578063dbdc4e62146103d4578063e3ffb4bf146103f4578063f0ad0f3e1461041457600080fd5b806391d14854146102ec578063933b415b1461030c578063935cceec1461031f578063968638df1461033f578063a217fddf1461035f57600080fd5b80632f2ff15d116100fd5780632f2ff15d1461022657806336568abe1461024857806337959c2d1461026857806368f52a971461028a5780636d80bf31146102aa57806375b238fc146102ca57600080fd5b806301ffc9a7146101455780630c7430511461017a5780630dc3897d1461019d57806311022380146101d5578063248a9ca3146101f557600080fd5b3661014057005b600080fd5b34801561015157600080fd5b50610165610160366004611722565b61044d565b60405190151581526020015b60405180910390f35b34801561018657600080fd5b5061018f610484565b604051908152602001610171565b3480156101a957600080fd5b506003546101bd906001600160a01b031681565b6040516001600160a01b039091168152602001610171565b3480156101e157600080fd5b506004546101bd906001600160a01b031681565b34801561020157600080fd5b5061018f610210366004611753565b6000908152600160208190526040909120015490565b34801561023257600080fd5b50610246610241366004611791565b6104f7565b005b34801561025457600080fd5b50610246610263366004611791565b610523565b34801561027457600080fd5b5061018f600080516020611f3e83398151915281565b34801561029657600080fd5b506102466102a53660046117c1565b61055b565b3480156102b657600080fd5b506101656102c53660046117c1565b610620565b3480156102d657600080fd5b5061018f600080516020611f5e83398151915281565b3480156102f857600080fd5b50610165610307366004611791565b610636565b61024661031a366004611999565b610661565b34801561032b57600080fd5b5061024661033a366004611ab0565b610e4d565b34801561034b57600080fd5b506002546101bd906001600160a01b031681565b34801561036b57600080fd5b5061018f600081565b34801561038057600080fd5b506101bd61038f366004611b22565b610f3a565b3480156103a057600080fd5b506102466103af366004611791565b610f73565b3480156103c057600080fd5b506102466103cf3660046117c1565b610f99565b3480156103e057600080fd5b506005546101bd906001600160a01b031681565b34801561040057600080fd5b5061024661040f3660046117c1565b61100b565b34801561042057600080fd5b5061016561042f3660046117c1565b6001600160a01b031660009081526007602052604090205460ff1690565b60006001600160e01b03198216637965db0b60e01b148061047e57506301ffc9a760e01b6001600160e01b03198316145b92915050565b6003546040805163e921c27560e01b815290516000926001600160a01b03169163e921c2759160048083019260209291908290030181865afa1580156104ce573d6000803e3d6000fd5b505050506040513d601f19601f820116820180604052508101906104f29190611b5f565b905090565b600082815260016020819052604090912001546105138161107d565b61051d838361108a565b50505050565b6001600160a01b038116331461054c5760405163334bd91960e11b815260040160405180910390fd5b6105568282611103565b505050565b610573600080516020611f5e83398151915233610636565b6105985760405162461bcd60e51b815260040161058f90611b78565b60405180910390fd5b6001600160a01b0381166105fe5760405162461bcd60e51b815260206004820152602760248201527f576f726c645265676973747279305f323a20666163746f72792063616e6e6f746044820152660206265203078360cc1b606482015260840161058f565b600380546001600160a01b0319166001600160a01b0392909216919091179055565b600061047e600080516020611f3e833981519152835b60009182526001602090815260408084206001600160a01b0393909316845291905290205460ff1690565b60a0810151600554604051638c9d518f60e01b8152600481018390523360248201526001600160a01b0390911690638c9d518f90604401602060405180830381865afa1580156106b5573d6000803e3d6000fd5b505050506040513d601f19601f820116820180604052508101906106d99190611bbd565b61073f5760405162461bcd60e51b815260206004820152603160248201527f576f726c645265676973747279305f323a2063616c6c6572206973206e6f742060448201527030903b30b634b2103932b3b4b9ba3930b960791b606482015260840161058f565b610747611170565b6000610756836080015161119a565b905060006001600160a01b03166006826040516107739190611bfe565b908152604051908190036020019020546001600160a01b0316146107e75760405162461bcd60e51b815260206004820152602560248201527f576f726c645265676973747279305f323a206e616d6520616c726561647920696044820152646e2075736560d81b606482015260840161058f565b6004546001600160a01b03161580159061080d575060208301516001600160a01b031615155b1561090757600480546020850151604051637856879f60e11b81526001600160a01b0391821693810193909352169063f0ad0f3e90602401602060405180830381865afa158015610862573d6000803e3d6000fd5b505050506040513d601f19601f820116820180604052508101906108869190611bbd565b6109075760405162461bcd60e51b815260206004820152604660248201527f576f726c645265676973747279305f323a206f6c64576f726c64206973206e6f60448201527f7420612076616c696420776f726c642066726f6d2070726576696f757320726560648201526567697374727960d01b608482015260a40161058f565b60a083015160e084015160608501516000926109229261120a565b905061093c600080516020611f3e83398151915282610636565b6109be5760405162461bcd60e51b815260206004820152604760248201527f576f726c645265676973747279305f323a20766563746f72207369676e65722060448201527f6973206e6f7420612076616c696420766563746f72206164647265737320617560648201526674686f7269747960c81b608482015260a40161058f565b60608401515151600003610a2a5760405162461bcd60e51b815260206004820152602d60248201527f576f726c645265676973747279305f323a2062617365566563746f722e78206360448201526c616e6e6f74206265207a65726f60981b606482015260840161058f565b83606001516020015151600003610a995760405162461bcd60e51b815260206004820152602d60248201527f576f726c645265676973747279305f323a2062617365566563746f722e79206360448201526c616e6e6f74206265207a65726f60981b606482015260840161058f565b83606001516040015151600003610b085760405162461bcd60e51b815260206004820152602d60248201527f576f726c645265676973747279305f323a2062617365566563746f722e7a206360448201526c616e6e6f74206265207a65726f60981b606482015260840161058f565b60006040518060c00160405280866060015160000151815260200186606001516020015181526020018660600151604001518152602001866060015160600151815260200160008152602001600081525090506000610b6682611292565b8051602091820120600081815260089092526040909120549091506001600160a01b031615610be75760405162461bcd60e51b815260206004820152602760248201527f576f726c645265676973747279305f323a20766563746f7220616c726561647960448201526620696e2075736560c81b606482015260840161058f565b6003546040805160a081018252888201516001600160a01b0390811682526020808b01518216908301528183018690526060820188905260c08a01516080830152915163082f91ff60e41b815260009392909216916382f91ff091610c4e91600401611cb9565b6020604051808303816000875af1158015610c6d573d6000803e3d6000fd5b505050506040513d601f19601f82011682018060405250810190610c919190611d3a565b90506001600160a01b038116610cf95760405162461bcd60e51b815260206004820152602760248201527f576f726c645265676973747279305f323a20776f726c64206372656174696f6e6044820152660819985a5b195960ca1b606482015260840161058f565b80600686604051610d0a9190611bfe565b908152604080516020928190038301902080546001600160a01b03199081166001600160a01b0395861617909155928416600081815260078452828120805460ff191660011790558681526008909352912080549092161790553415610deb57865115610db45786604001516001600160a01b03166108fc349081150290604051600060405180830381858888f19350505050158015610dae573d6000803e3d6000fd5b50610deb565b6040516001600160a01b038216903480156108fc02916000818181858888f19350505050158015610de9573d6000803e3d6000fd5b505b86604001516001600160a01b0316816001600160a01b03167fee32bdf3024960eab0cc65f92f4ab288808ff5501b8132b269630d3fa070005e85604051610e329190611d57565b60405180910390a35050505050610e496001600055565b5050565b3360009081526007602052604090205460ff16610ec25760405162461bcd60e51b815260206004820152602d60248201527f576f726c645265676973747279305f323a2063616c6c6572206973206e6f742060448201526c18481d985b1a590815dbdc9b19609a1b606482015260840161058f565b610eca611170565b60035460405163390b9e3d60e01b81526001600160a01b039091169063390b9e3d90610efe90339086908690600401611d6a565b600060405180830381600087803b158015610f1857600080fd5b505af1158015610f2c573d6000803e3d6000fd5b50505050610e496001600055565b60006006610f478361119a565b604051610f549190611bfe565b908152604051908190036020019020546001600160a01b031692915050565b60008281526001602081905260409091200154610f8f8161107d565b61051d8383611103565b610fb1600080516020611f5e83398151915233610636565b610fcd5760405162461bcd60e51b815260040161058f90611b78565b6001600160a01b038116610ff35760405162461bcd60e51b815260040161058f90611daa565b610e49600080516020611f3e8339815191528261108a565b611023600080516020611f5e83398151915233610636565b61103f5760405162461bcd60e51b815260040161058f90611b78565b6001600160a01b0381166110655760405162461bcd60e51b815260040161058f90611daa565b610e49600080516020611f3e83398151915282611103565b61108781336112f5565b50565b60006110968383610636565b6110fb5760008381526001602081815260408084206001600160a01b0387168086529252808420805460ff19169093179092559051339286917f2f8788117e7eff1d82e926ec794901d17c78024a50270940304540a733656f0d9190a450600161047e565b50600061047e565b600061110f8383610636565b156110fb5760008381526001602090815260408083206001600160a01b0386168085529252808320805460ff1916905551339286917ff6391f5c32d9c69d2a47ea670b442974b53935d1edc7fd64eb21e047a839171b9190a450600161047e565b60026000540361119357604051633ee5aeb560e01b815260040160405180910390fd5b6002600055565b60608160005b8151811015611203576111d28282815181106111be576111be611dee565b01602001516001600160f81b03191661132e565b8282815181106111e4576111e4611dee565b60200101906001600160f81b031916908160001a9053506001016111a0565b5092915050565b60008061121685611292565b90506000818560405160200161122d929190611e04565b60408051808303601f190181528282528051602080830191909120818552848401909352909350909160009160208201818036833701905050905081602082015260006112798261137d565b905061128581886113b8565b9998505050505050505050565b60608160000151826020015183604001516112b085606001516113e2565b6112bd86608001516113e2565b6112ca8760a001516113e2565b6040516020016112df96959493929190611e26565b6040516020818303038152906040529050919050565b6112ff8282610636565b610e495760405163e2517d3f60e01b81526001600160a01b03821660048201526024810183905260440161058f565b6000604160f81b6001600160f81b031983161080159061135c5750602d60f91b6001600160f81b0319831611155b156113795761137060f883901c6020611ea5565b60f81b92915050565b5090565b600061138982516113e2565b8260405160200161139b929190611ecc565b604051602081830303815290604052805190602001209050919050565b6000806000806113c88686611475565b9250925092506113d882826114c2565b5090949350505050565b606060006113ef8361157b565b600101905060008167ffffffffffffffff81111561140f5761140f6117de565b6040519080825280601f01601f191660200182016040528015611439576020820181803683370190505b5090508181016020015b600019016f181899199a1a9b1b9c1cb0b131b232b360811b600a86061a8153600a850494508461144357509392505050565b600080600083516041036114af5760208401516040850151606086015160001a6114a188828585611653565b9550955095505050506114bb565b50508151600091506002905b9250925092565b60008260038111156114d6576114d6611f27565b036114df575050565b60018260038111156114f3576114f3611f27565b036115115760405163f645eedf60e01b815260040160405180910390fd5b600282600381111561152557611525611f27565b036115465760405163fce698f760e01b81526004810182905260240161058f565b600382600381111561155a5761155a611f27565b03610e49576040516335e2f38360e21b81526004810182905260240161058f565b60008072184f03e93ff9f4daa797ed6e38ed64bf6a1f0160401b83106115ba5772184f03e93ff9f4daa797ed6e38ed64bf6a1f0160401b830492506040015b6d04ee2d6d415b85acef810000000083106115e6576d04ee2d6d415b85acef8100000000830492506020015b662386f26fc10000831061160457662386f26fc10000830492506010015b6305f5e100831061161c576305f5e100830492506008015b612710831061163057612710830492506004015b60648310611642576064830492506002015b600a831061047e5760010192915050565b600080807f7fffffffffffffffffffffffffffffff5d576e7357a4501ddfe92f46681b20a084111561168e5750600091506003905082611718565b604080516000808252602082018084528a905260ff891692820192909252606081018790526080810186905260019060a0016020604051602081039080840390855afa1580156116e2573d6000803e3d6000fd5b5050604051601f1901519150506001600160a01b03811661170e57506000925060019150829050611718565b9250600091508190505b9450945094915050565b60006020828403121561173457600080fd5b81356001600160e01b03198116811461174c57600080fd5b9392505050565b60006020828403121561176557600080fd5b5035919050565b6001600160a01b038116811461108757600080fd5b803561178c8161176c565b919050565b600080604083850312156117a457600080fd5b8235915060208301356117b68161176c565b809150509250929050565b6000602082840312156117d357600080fd5b813561174c8161176c565b634e487b7160e01b600052604160045260246000fd5b60405160c0810167ffffffffffffffff81118282101715611817576118176117de565b60405290565b604051610100810167ffffffffffffffff81118282101715611817576118176117de565b801515811461108757600080fd5b803561178c81611841565b600082601f83011261186b57600080fd5b813567ffffffffffffffff80821115611886576118866117de565b604051601f8301601f19908116603f011681019082821181831017156118ae576118ae6117de565b816040528381528660208588010111156118c757600080fd5b836020870160208301376000602085830101528094505050505092915050565b600060c082840312156118f957600080fd5b6119016117f4565b9050813567ffffffffffffffff8082111561191b57600080fd5b6119278583860161185a565b8352602084013591508082111561193d57600080fd5b6119498583860161185a565b6020840152604084013591508082111561196257600080fd5b5061196f8482850161185a565b604083015250606082013560608201526080820135608082015260a082013560a082015292915050565b6000602082840312156119ab57600080fd5b813567ffffffffffffffff808211156119c357600080fd5b9083019061010082860312156119d857600080fd5b6119e061181d565b6119e98361184f565b81526119f760208401611781565b6020820152611a0860408401611781565b6040820152606083013582811115611a1f57600080fd5b611a2b878286016118e7565b606083015250608083013582811115611a4357600080fd5b611a4f8782860161185a565b60808301525060a083013560a082015260c083013582811115611a7157600080fd5b611a7d8782860161185a565b60c08301525060e083013582811115611a9557600080fd5b611aa18782860161185a565b60e08301525095945050505050565b60008060208385031215611ac357600080fd5b823567ffffffffffffffff80821115611adb57600080fd5b818501915085601f830112611aef57600080fd5b813581811115611afe57600080fd5b866020828501011115611b1057600080fd5b60209290920196919550909350505050565b600060208284031215611b3457600080fd5b813567ffffffffffffffff811115611b4b57600080fd5b611b578482850161185a565b949350505050565b600060208284031215611b7157600080fd5b5051919050565b60208082526025908201527f576f726c645265676973747279305f323a2063616c6c6572206973206e6f742060408201526430b236b4b760d91b606082015260800190565b600060208284031215611bcf57600080fd5b815161174c81611841565b60005b83811015611bf5578181015183820152602001611bdd565b50506000910152565b60008251611c10818460208701611bda565b9190910192915050565b60008151808452611c32816020860160208601611bda565b601f01601f19169290920160200192915050565b6000815160c08452611c5b60c0850182611c1a565b905060208301518482036020860152611c748282611c1a565b91505060408301518482036040860152611c8e8282611c1a565b915050606083015160608501526080830151608085015260a083015160a08501528091505092915050565b60208152600060018060a01b0380845116602084015280602085015116604084015250604083015160a06060840152611cf560c0840182611c46565b90506060840151601f1980858403016080860152611d138383611c1a565b925060808601519150808584030160a086015250611d318282611c1a565b95945050505050565b600060208284031215611d4c57600080fd5b815161174c8161176c565b60208152600061174c6020830184611c46565b6001600160a01b03841681526040602082018190528101829052818360608301376000818301606090810191909152601f909201601f1916010192915050565b60208082526024908201527f576f726c645265676973747279305f323a20617574682063616e6e6f742062656040820152630203078360e41b606082015260800190565b634e487b7160e01b600052603260045260246000fd5b604081526000611e176040830185611c1a565b90508260208301529392505050565b600087516020611e398285838d01611bda565b885191840191611e4c8184848d01611bda565b8851920191611e5e8184848c01611bda565b8751920191611e708184848b01611bda565b8651920191611e828184848a01611bda565b8551920191611e948184848901611bda565b919091019998505050505050505050565b60ff818116838216019081111561047e57634e487b7160e01b600052601160045260246000fd5b7f19457468657265756d205369676e6564204d6573736167653a0a000000000000815260008351611f0481601a850160208801611bda565b835190830190611f1b81601a840160208801611bda565b01601a01949350505050565b634e487b7160e01b600052602160045260246000fdfe2758c8c5d77b29e60fffbf4a2bcb0fc98a947bd2a0dead06fdc32cd3cef1168da49807205ce4d355092ef5a8a18f56e8913cf4a201fbe287825b095693c21775a2646970667358221220525a36d6685960eba86ee36c3ab9e128c292fa605779c9e4aba33f46ec28c86f64736f6c63430008180033a49807205ce4d355092ef5a8a18f56e8913cf4a201fbe287825b095693c21775",
  "linkReferences": {},
  "deployedLinkReferences": {}
}