{
  "_format": "hh-sol-artifact-1",
  "contractName": "LibWorldV2Storage",
  "sourceName": "contracts/libraries/LibWorldV2Storage.sol",
  "abi": [
    {
      "inputs": [],
      "name": "WorldStorageSlot",
      "outputs": [
        {
          "internalType": "bytes32",
          "name": "",
          "type": "bytes32"
        }
      ],
      "stateMutability": "view",
      "type": "function"
    }
  ],
  "bytecode": "0x60a6610038600b82828239805160001a607314602b57634e487b7160e01b600052600060045260246000fd5b30600052607381538281f3fe730000000000000000000000000000000000000000301460806040526004361060335760003560e01c80638b5ffcd2146038575b600080fd5b605e7f56d7bc8c87dcf17af82d688c532aeaaf98988789f376198bffdb298b88a9593181565b60405190815260200160405180910390f3fea26469706673582212207bdebaab1f74e77a4ac650839eabd835e27da1d70279ed22304899ecc14deea864736f6c63430008180033",
  "linkReferences": {},
  "deployedLinkReferences": {}
}