{
  "contracts/World.sol": {
    "World": {
      "abi": [
        {
          "inputs": [
            {
              "internalType": "address",
              "name": "defaultAdmin",
              "type": "address"
            },
            {
              "internalType": "string",
              "name": "_name",
              "type": "string"
            },
            {
              "components": [
                {
                  "internalType": "string",
                  "name": "x",
                  "type": "string"
                },
                {
                  "internalType": "string",
                  "name": "y",
                  "type": "string"
                },
                {
                  "internalType": "string",
                  "name": "z",
                  "type": "string"
                },
                {
                  "internalType": "uint256",
                  "name": "t",
                  "type": "uint256"
                },
                {
                  "internalType": "uint256",
                  "name": "p",
                  "type": "uint256"
                },
                {
                  "internalType": "uint256",
                  "name": "p_sub",
                  "type": "uint256"
                }
              ],
              "internalType": "struct VectorAddress",
              "name": "_baseVector",
              "type": "tuple"
            }
          ],
          "stateMutability": "nonpayable",
          "type": "constructor"
        },
        {
          "inputs": [],
          "name": "AccessControlBadConfirmation",
          "type": "error"
        },
        {
          "inputs": [
            {
              "internalType": "address",
              "name": "account",
              "type": "address"
            },
            {
              "internalType": "bytes32",
              "name": "neededRole",
              "type": "bytes32"
            }
          ],
          "name": "AccessControlUnauthorizedAccount",
          "type": "error"
        },
        {
          "anonymous": false,
          "inputs": [
            {
              "indexed": true,
              "internalType": "address",
              "name": "sender",
              "type": "address"
            },
            {
              "indexed": false,
              "internalType": "uint256",
              "name": "value",
              "type": "uint256"
            }
          ],
          "name": "ReceivedFunds",
          "type": "event"
        },
        {
          "anonymous": false,
          "inputs": [
            {
              "indexed": true,
              "internalType": "bytes32",
              "name": "role",
              "type": "bytes32"
            },
            {
              "indexed": true,
              "internalType": "bytes32",
              "name": "previousAdminRole",
              "type": "bytes32"
            },
            {
              "indexed": true,
              "internalType": "bytes32",
              "name": "newAdminRole",
              "type": "bytes32"
            }
          ],
          "name": "RoleAdminChanged",
          "type": "event"
        },
        {
          "anonymous": false,
          "inputs": [
            {
              "indexed": true,
              "internalType": "bytes32",
              "name": "role",
              "type": "bytes32"
            },
            {
              "indexed": true,
              "internalType": "address",
              "name": "account",
              "type": "address"
            },
            {
              "indexed": true,
              "internalType": "address",
              "name": "sender",
              "type": "address"
            }
          ],
          "name": "RoleGranted",
          "type": "event"
        },
        {
          "anonymous": false,
          "inputs": [
            {
              "indexed": true,
              "internalType": "bytes32",
              "name": "role",
              "type": "bytes32"
            },
            {
              "indexed": true,
              "internalType": "address",
              "name": "account",
              "type": "address"
            },
            {
              "indexed": true,
              "internalType": "address",
              "name": "sender",
              "type": "address"
            }
          ],
          "name": "RoleRevoked",
          "type": "event"
        },
        {
          "inputs": [],
          "name": "DEFAULT_ADMIN_ROLE",
          "outputs": [
            {
              "internalType": "bytes32",
              "name": "",
              "type": "bytes32"
            }
          ],
          "stateMutability": "view",
          "type": "function"
        },
        {
          "inputs": [
            {
              "internalType": "address[]",
              "name": "sigs",
              "type": "address[]"
            }
          ],
          "name": "addSigners",
          "outputs": [],
          "stateMutability": "nonpayable",
          "type": "function"
        },
        {
          "inputs": [],
          "name": "baseVector",
          "outputs": [
            {
              "internalType": "string",
              "name": "x",
              "type": "string"
            },
            {
              "internalType": "string",
              "name": "y",
              "type": "string"
            },
            {
              "internalType": "string",
              "name": "z",
              "type": "string"
            },
            {
              "internalType": "uint256",
              "name": "t",
              "type": "uint256"
            },
            {
              "internalType": "uint256",
              "name": "p",
              "type": "uint256"
            },
            {
              "internalType": "uint256",
              "name": "p_sub",
              "type": "uint256"
            }
          ],
          "stateMutability": "view",
          "type": "function"
        },
        {
          "inputs": [
            {
              "internalType": "bytes32",
              "name": "role",
              "type": "bytes32"
            }
          ],
          "name": "getRoleAdmin",
          "outputs": [
            {
              "internalType": "bytes32",
              "name": "",
              "type": "bytes32"
            }
          ],
          "stateMutability": "view",
          "type": "function"
        },
        {
          "inputs": [
            {
              "internalType": "bytes32",
              "name": "role",
              "type": "bytes32"
            },
            {
              "internalType": "address",
              "name": "account",
              "type": "address"
            }
          ],
          "name": "grantRole",
          "outputs": [],
          "stateMutability": "nonpayable",
          "type": "function"
        },
        {
          "inputs": [
            {
              "internalType": "bytes32",
              "name": "role",
              "type": "bytes32"
            },
            {
              "internalType": "address",
              "name": "account",
              "type": "address"
            }
          ],
          "name": "hasRole",
          "outputs": [
            {
              "internalType": "bool",
              "name": "",
              "type": "bool"
            }
          ],
          "stateMutability": "view",
          "type": "function"
        },
        {
          "inputs": [],
          "name": "name",
          "outputs": [
            {
              "internalType": "string",
              "name": "",
              "type": "string"
            }
          ],
          "stateMutability": "view",
          "type": "function"
        },
        {
          "inputs": [
            {
              "internalType": "address[]",
              "name": "sigs",
              "type": "address[]"
            }
          ],
          "name": "removeSigners",
          "outputs": [],
          "stateMutability": "nonpayable",
          "type": "function"
        },
        {
          "inputs": [
            {
              "internalType": "bytes32",
              "name": "role",
              "type": "bytes32"
            },
            {
              "internalType": "address",
              "name": "callerConfirmation",
              "type": "address"
            }
          ],
          "name": "renounceRole",
          "outputs": [],
          "stateMutability": "nonpayable",
          "type": "function"
        },
        {
          "inputs": [
            {
              "internalType": "bytes32",
              "name": "role",
              "type": "bytes32"
            },
            {
              "internalType": "address",
              "name": "account",
              "type": "address"
            }
          ],
          "name": "revokeRole",
          "outputs": [],
          "stateMutability": "nonpayable",
          "type": "function"
        },
        {
          "inputs": [
            {
              "internalType": "bytes4",
              "name": "interfaceId",
              "type": "bytes4"
            }
          ],
          "name": "supportsInterface",
          "outputs": [
            {
              "internalType": "bool",
              "name": "",
              "type": "bool"
            }
          ],
          "stateMutability": "view",
          "type": "function"
        },
        {
          "stateMutability": "payable",
          "type": "receive"
        }
      ],
      "evm": {
        "bytecode": {
          "linkReferences": {},
          "object": "60806040523480156200001157600080fd5b5060405162000f2a38038062000f2a83398101604081905262000034916200026e565b80518190600190819062000049908262000429565b506020820151600182019062000060908262000429565b506040820151600282019062000077908262000429565b50606082015160038201556080820151600482015560a0909101516005909101556007620000a6838262000429565b50620000b4600084620000be565b50505050620004f5565b6000828152602081815260408083206001600160a01b038516845290915281205460ff1662000163576000838152602081815260408083206001600160a01b03861684529091529020805460ff191660011790556200011a3390565b6001600160a01b0316826001600160a01b0316847f2f8788117e7eff1d82e926ec794901d17c78024a50270940304540a733656f0d60405160405180910390a450600162000167565b5060005b92915050565b634e487b7160e01b600052604160045260246000fd5b60405160c081016001600160401b0381118282101715620001a857620001a86200016d565b60405290565b604051601f8201601f191681016001600160401b0381118282101715620001d957620001d96200016d565b604052919050565b600082601f830112620001f357600080fd5b81516001600160401b038111156200020f576200020f6200016d565b602062000225601f8301601f19168201620001ae565b82815285828487010111156200023a57600080fd5b60005b838110156200025a5785810183015182820184015282016200023d565b506000928101909101919091529392505050565b6000806000606084860312156200028457600080fd5b83516001600160a01b03811681146200029c57600080fd5b60208501519093506001600160401b0380821115620002ba57600080fd5b620002c887838801620001e1565b93506040860151915080821115620002df57600080fd5b9085019060c08288031215620002f457600080fd5b620002fe62000183565b8251828111156200030e57600080fd5b6200031c89828601620001e1565b8252506020830151828111156200033257600080fd5b6200034089828601620001e1565b6020830152506040830151828111156200035957600080fd5b6200036789828601620001e1565b604083015250606083015160608201526080830151608082015260a083015160a08201528093505050509250925092565b600181811c90821680620003ad57607f821691505b602082108103620003ce57634e487b7160e01b600052602260045260246000fd5b50919050565b601f82111562000424576000816000526020600020601f850160051c81016020861015620003ff5750805b601f850160051c820191505b8181101562000420578281556001016200040b565b5050505b505050565b81516001600160401b038111156200044557620004456200016d565b6200045d8162000456845462000398565b84620003d4565b602080601f8311600181146200049557600084156200047c5750858301515b600019600386901b1c1916600185901b17855562000420565b600085815260208120601f198616915b82811015620004c657888601518255948401946001909101908401620004a5565b5085821015620004e55787850151600019600388901b60f8161c191681555b5050505050600190811b01905550565b610a2580620005056000396000f3fe6080604052600436106100a05760003560e01c80633f995c2c116100645780633f995c2c146101b85780638d361e43146101df57806391d14854146101ff578063a217fddf1461021f578063d547741f14610234578063e8906a2d1461025457600080fd5b806301ffc9a7146100e157806306fdde0314610116578063248a9ca3146101385780632f2ff15d1461017657806336568abe1461019857600080fd5b366100dc5760405134815233907f5741979df5f3e491501da74d3b0a83dd2496ab1f34929865b3e190a8ad75859a9060200160405180910390a2005b600080fd5b3480156100ed57600080fd5b506101016100fc366004610781565b610274565b60405190151581526020015b60405180910390f35b34801561012257600080fd5b5061012b6102ab565b60405161010d91906107f8565b34801561014457600080fd5b5061016861015336600461080b565b60009081526020819052604090206001015490565b60405190815260200161010d565b34801561018257600080fd5b50610196610191366004610840565b610339565b005b3480156101a457600080fd5b506101966101b3366004610840565b610364565b3480156101c457600080fd5b506101cd61039c565b60405161010d9695949392919061086c565b3480156101eb57600080fd5b506101966101fa3660046108da565b61055c565b34801561020b57600080fd5b5061010161021a366004610840565b6105a2565b34801561022b57600080fd5b50610168600081565b34801561024057600080fd5b5061019661024f366004610840565b6105cb565b34801561026057600080fd5b5061019661026f3660046108da565b6105f0565b60006001600160e01b03198216637965db0b60e01b14806102a557506301ffc9a760e01b6001600160e01b03198316145b92915050565b600780546102b89061099f565b80601f01602080910402602001604051908101604052809291908181526020018280546102e49061099f565b80156103315780601f1061030657610100808354040283529160200191610331565b820191906000526020600020905b81548152906001019060200180831161031457829003601f168201915b505050505081565b60008281526020819052604090206001015461035481610636565b61035e8383610643565b50505050565b6001600160a01b038116331461038d5760405163334bd91960e11b815260040160405180910390fd5b61039782826106d5565b505050565b6001805481906103ab9061099f565b80601f01602080910402602001604051908101604052809291908181526020018280546103d79061099f565b80156104245780601f106103f957610100808354040283529160200191610424565b820191906000526020600020905b81548152906001019060200180831161040757829003601f168201915b5050505050908060010180546104399061099f565b80601f01602080910402602001604051908101604052809291908181526020018280546104659061099f565b80156104b25780601f10610487576101008083540402835291602001916104b2565b820191906000526020600020905b81548152906001019060200180831161049557829003601f168201915b5050505050908060020180546104c79061099f565b80601f01602080910402602001604051908101604052809291908181526020018280546104f39061099f565b80156105405780601f1061051557610100808354040283529160200191610540565b820191906000526020600020905b81548152906001019060200180831161052357829003601f168201915b5050505050908060030154908060040154908060050154905086565b600061056781610636565b60005b8251811015610397576105996000801b84838151811061058c5761058c6109d9565b60200260200101516106d5565b5060010161056a565b6000918252602082815260408084206001600160a01b0393909316845291905290205460ff1690565b6000828152602081905260409020600101546105e681610636565b61035e83836106d5565b60006105fb81610636565b60005b82518110156103975761062d6000801b848381518110610620576106206109d9565b6020026020010151610643565b506001016105fe565b6106408133610740565b50565b600061064f83836105a2565b6106cd576000838152602081815260408083206001600160a01b03861684529091529020805460ff191660011790556106853390565b6001600160a01b0316826001600160a01b0316847f2f8788117e7eff1d82e926ec794901d17c78024a50270940304540a733656f0d60405160405180910390a45060016102a5565b5060006102a5565b60006106e183836105a2565b156106cd576000838152602081815260408083206001600160a01b0386168085529252808320805460ff1916905551339286917ff6391f5c32d9c69d2a47ea670b442974b53935d1edc7fd64eb21e047a839171b9190a45060016102a5565b61074a82826105a2565b61077d5760405163e2517d3f60e01b81526001600160a01b03821660048201526024810183905260440160405180910390fd5b5050565b60006020828403121561079357600080fd5b81356001600160e01b0319811681146107ab57600080fd5b9392505050565b6000815180845260005b818110156107d8576020818501810151868301820152016107bc565b506000602082860101526020601f19601f83011685010191505092915050565b6020815260006107ab60208301846107b2565b60006020828403121561081d57600080fd5b5035919050565b80356001600160a01b038116811461083b57600080fd5b919050565b6000806040838503121561085357600080fd5b8235915061086360208401610824565b90509250929050565b60c08152600061087f60c08301896107b2565b828103602084015261089181896107b2565b905082810360408401526108a581886107b2565b60608401969096525050608081019290925260a0909101529392505050565b634e487b7160e01b600052604160045260246000fd5b600060208083850312156108ed57600080fd5b823567ffffffffffffffff8082111561090557600080fd5b818501915085601f83011261091957600080fd5b81358181111561092b5761092b6108c4565b8060051b604051601f19603f83011681018181108582111715610950576109506108c4565b60405291825284820192508381018501918883111561096e57600080fd5b938501935b828510156109935761098485610824565b84529385019392850192610973565b98975050505050505050565b600181811c908216806109b357607f821691505b6020821081036109d357634e487b7160e01b600052602260045260246000fd5b50919050565b634e487b7160e01b600052603260045260246000fdfea264697066735822122016f375517a8aae5c4de5f1cf733688942f36a632e4c58927da2088b42cdf7eef64736f6c63430008180033",
          "opcodes": "PUSH1 0x80 PUSH1 0x40 MSTORE CALLVALUE DUP1 ISZERO PUSH3 0x11 JUMPI PUSH1 0x0 DUP1 REVERT JUMPDEST POP PUSH1 0x40 MLOAD PUSH3 0xF2A CODESIZE SUB DUP1 PUSH3 0xF2A DUP4 CODECOPY DUP2 ADD PUSH1 0x40 DUP2 SWAP1 MSTORE PUSH3 0x34 SWAP2 PUSH3 0x26E JUMP JUMPDEST DUP1 MLOAD DUP2 SWAP1 PUSH1 0x1 SWAP1 DUP2 SWAP1 PUSH3 0x49 SWAP1 DUP3 PUSH3 0x429 JUMP JUMPDEST POP PUSH1 0x20 DUP3 ADD MLOAD PUSH1 0x1 DUP3 ADD SWAP1 PUSH3 0x60 SWAP1 DUP3 PUSH3 0x429 JUMP JUMPDEST POP PUSH1 0x40 DUP3 ADD MLOAD PUSH1 0x2 DUP3 ADD SWAP1 PUSH3 0x77 SWAP1 DUP3 PUSH3 0x429 JUMP JUMPDEST POP PUSH1 0x60 DUP3 ADD MLOAD PUSH1 0x3 DUP3 ADD SSTORE PUSH1 0x80 DUP3 ADD MLOAD PUSH1 0x4 DUP3 ADD SSTORE PUSH1 0xA0 SWAP1 SWAP2 ADD MLOAD PUSH1 0x5 SWAP1 SWAP2 ADD SSTORE PUSH1 0x7 PUSH3 0xA6 DUP4 DUP3 PUSH3 0x429 JUMP JUMPDEST POP PUSH3 0xB4 PUSH1 0x0 DUP5 PUSH3 0xBE JUMP JUMPDEST POP POP POP POP PUSH3 0x4F5 JUMP JUMPDEST PUSH1 0x0 DUP3 DUP2 MSTORE PUSH1 0x20 DUP2 DUP2 MSTORE PUSH1 0x40 DUP1 DUP4 KECCAK256 PUSH1 0x1 PUSH1 0x1 PUSH1 0xA0 SHL SUB DUP6 AND DUP5 MSTORE SWAP1 SWAP2 MSTORE DUP2 KECCAK256 SLOAD PUSH1 0xFF AND PUSH3 0x163 JUMPI PUSH1 0x0 DUP4 DUP2 MSTORE PUSH1 0x20 DUP2 DUP2 MSTORE PUSH1 0x40 DUP1 DUP4 KECCAK256 PUSH1 0x1 PUSH1 0x1 PUSH1 0xA0 SHL SUB DUP7 AND DUP5 MSTORE SWAP1 SWAP2 MSTORE SWAP1 KECCAK256 DUP1 SLOAD PUSH1 0xFF NOT AND PUSH1 0x1 OR SWAP1 SSTORE PUSH3 0x11A CALLER SWAP1 JUMP JUMPDEST PUSH1 0x1 PUSH1 0x1 PUSH1 0xA0 SHL SUB AND DUP3 PUSH1 0x1 PUSH1 0x1 PUSH1 0xA0 SHL SUB AND DUP5 PUSH32 0x2F8788117E7EFF1D82E926EC794901D17C78024A50270940304540A733656F0D PUSH1 0x40 MLOAD PUSH1 0x40 MLOAD DUP1 SWAP2 SUB SWAP1 LOG4 POP PUSH1 0x1 PUSH3 0x167 JUMP JUMPDEST POP PUSH1 0x0 JUMPDEST SWAP3 SWAP2 POP POP JUMP JUMPDEST PUSH4 0x4E487B71 PUSH1 0xE0 SHL PUSH1 0x0 MSTORE PUSH1 0x41 PUSH1 0x4 MSTORE PUSH1 0x24 PUSH1 0x0 REVERT JUMPDEST PUSH1 0x40 MLOAD PUSH1 0xC0 DUP2 ADD PUSH1 0x1 PUSH1 0x1 PUSH1 0x40 SHL SUB DUP2 GT DUP3 DUP3 LT OR ISZERO PUSH3 0x1A8 JUMPI PUSH3 0x1A8 PUSH3 0x16D JUMP JUMPDEST PUSH1 0x40 MSTORE SWAP1 JUMP JUMPDEST PUSH1 0x40 MLOAD PUSH1 0x1F DUP3 ADD PUSH1 0x1F NOT AND DUP2 ADD PUSH1 0x1 PUSH1 0x1 PUSH1 0x40 SHL SUB DUP2 GT DUP3 DUP3 LT OR ISZERO PUSH3 0x1D9 JUMPI PUSH3 0x1D9 PUSH3 0x16D JUMP JUMPDEST PUSH1 0x40 MSTORE SWAP2 SWAP1 POP JUMP JUMPDEST PUSH1 0x0 DUP3 PUSH1 0x1F DUP4 ADD SLT PUSH3 0x1F3 JUMPI PUSH1 0x0 DUP1 REVERT JUMPDEST DUP2 MLOAD PUSH1 0x1 PUSH1 0x1 PUSH1 0x40 SHL SUB DUP2 GT ISZERO PUSH3 0x20F JUMPI PUSH3 0x20F PUSH3 0x16D JUMP JUMPDEST PUSH1 0x20 PUSH3 0x225 PUSH1 0x1F DUP4 ADD PUSH1 0x1F NOT AND DUP3 ADD PUSH3 0x1AE JUMP JUMPDEST DUP3 DUP2 MSTORE DUP6 DUP3 DUP5 DUP8 ADD ADD GT ISZERO PUSH3 0x23A JUMPI PUSH1 0x0 DUP1 REVERT JUMPDEST PUSH1 0x0 JUMPDEST DUP4 DUP2 LT ISZERO PUSH3 0x25A JUMPI DUP6 DUP2 ADD DUP4 ADD MLOAD DUP3 DUP3 ADD DUP5 ADD MSTORE DUP3 ADD PUSH3 0x23D JUMP JUMPDEST POP PUSH1 0x0 SWAP3 DUP2 ADD SWAP1 SWAP2 ADD SWAP2 SWAP1 SWAP2 MSTORE SWAP4 SWAP3 POP POP POP JUMP JUMPDEST PUSH1 0x0 DUP1 PUSH1 0x0 PUSH1 0x60 DUP5 DUP7 SUB SLT ISZERO PUSH3 0x284 JUMPI PUSH1 0x0 DUP1 REVERT JUMPDEST DUP4 MLOAD PUSH1 0x1 PUSH1 0x1 PUSH1 0xA0 SHL SUB DUP2 AND DUP2 EQ PUSH3 0x29C JUMPI PUSH1 0x0 DUP1 REVERT JUMPDEST PUSH1 0x20 DUP6 ADD MLOAD SWAP1 SWAP4 POP PUSH1 0x1 PUSH1 0x1 PUSH1 0x40 SHL SUB DUP1 DUP3 GT ISZERO PUSH3 0x2BA JUMPI PUSH1 0x0 DUP1 REVERT JUMPDEST PUSH3 0x2C8 DUP8 DUP4 DUP9 ADD PUSH3 0x1E1 JUMP JUMPDEST SWAP4 POP PUSH1 0x40 DUP7 ADD MLOAD SWAP2 POP DUP1 DUP3 GT ISZERO PUSH3 0x2DF JUMPI PUSH1 0x0 DUP1 REVERT JUMPDEST SWAP1 DUP6 ADD SWAP1 PUSH1 0xC0 DUP3 DUP9 SUB SLT ISZERO PUSH3 0x2F4 JUMPI PUSH1 0x0 DUP1 REVERT JUMPDEST PUSH3 0x2FE PUSH3 0x183 JUMP JUMPDEST DUP3 MLOAD DUP3 DUP2 GT ISZERO PUSH3 0x30E JUMPI PUSH1 0x0 DUP1 REVERT JUMPDEST PUSH3 0x31C DUP10 DUP3 DUP7 ADD PUSH3 0x1E1 JUMP JUMPDEST DUP3 MSTORE POP PUSH1 0x20 DUP4 ADD MLOAD DUP3 DUP2 GT ISZERO PUSH3 0x332 JUMPI PUSH1 0x0 DUP1 REVERT JUMPDEST PUSH3 0x340 DUP10 DUP3 DUP7 ADD PUSH3 0x1E1 JUMP JUMPDEST PUSH1 0x20 DUP4 ADD MSTORE POP PUSH1 0x40 DUP4 ADD MLOAD DUP3 DUP2 GT ISZERO PUSH3 0x359 JUMPI PUSH1 0x0 DUP1 REVERT JUMPDEST PUSH3 0x367 DUP10 DUP3 DUP7 ADD PUSH3 0x1E1 JUMP JUMPDEST PUSH1 0x40 DUP4 ADD MSTORE POP PUSH1 0x60 DUP4 ADD MLOAD PUSH1 0x60 DUP3 ADD MSTORE PUSH1 0x80 DUP4 ADD MLOAD PUSH1 0x80 DUP3 ADD MSTORE PUSH1 0xA0 DUP4 ADD MLOAD PUSH1 0xA0 DUP3 ADD MSTORE DUP1 SWAP4 POP POP POP POP SWAP3 POP SWAP3 POP SWAP3 JUMP JUMPDEST PUSH1 0x1 DUP2 DUP2 SHR SWAP1 DUP3 AND DUP1 PUSH3 0x3AD JUMPI PUSH1 0x7F DUP3 AND SWAP2 POP JUMPDEST PUSH1 0x20 DUP3 LT DUP2 SUB PUSH3 0x3CE JUMPI PUSH4 0x4E487B71 PUSH1 0xE0 SHL PUSH1 0x0 MSTORE PUSH1 0x22 PUSH1 0x4 MSTORE PUSH1 0x24 PUSH1 0x0 REVERT JUMPDEST POP SWAP2 SWAP1 POP JUMP JUMPDEST PUSH1 0x1F DUP3 GT ISZERO PUSH3 0x424 JUMPI PUSH1 0x0 DUP2 PUSH1 0x0 MSTORE PUSH1 0x20 PUSH1 0x0 KECCAK256 PUSH1 0x1F DUP6 ADD PUSH1 0x5 SHR DUP2 ADD PUSH1 0x20 DUP7 LT ISZERO PUSH3 0x3FF JUMPI POP DUP1 JUMPDEST PUSH1 0x1F DUP6 ADD PUSH1 0x5 SHR DUP3 ADD SWAP2 POP JUMPDEST DUP2 DUP2 LT ISZERO PUSH3 0x420 JUMPI DUP3 DUP2 SSTORE PUSH1 0x1 ADD PUSH3 0x40B JUMP JUMPDEST POP POP POP JUMPDEST POP POP POP JUMP JUMPDEST DUP2 MLOAD PUSH1 0x1 PUSH1 0x1 PUSH1 0x40 SHL SUB DUP2 GT ISZERO PUSH3 0x445 JUMPI PUSH3 0x445 PUSH3 0x16D JUMP JUMPDEST PUSH3 0x45D DUP2 PUSH3 0x456 DUP5 SLOAD PUSH3 0x398 JUMP JUMPDEST DUP5 PUSH3 0x3D4 JUMP JUMPDEST PUSH1 0x20 DUP1 PUSH1 0x1F DUP4 GT PUSH1 0x1 DUP2 EQ PUSH3 0x495 JUMPI PUSH1 0x0 DUP5 ISZERO PUSH3 0x47C JUMPI POP DUP6 DUP4 ADD MLOAD JUMPDEST PUSH1 0x0 NOT PUSH1 0x3 DUP7 SWAP1 SHL SHR NOT AND PUSH1 0x1 DUP6 SWAP1 SHL OR DUP6 SSTORE PUSH3 0x420 JUMP JUMPDEST PUSH1 0x0 DUP6 DUP2 MSTORE PUSH1 0x20 DUP2 KECCAK256 PUSH1 0x1F NOT DUP7 AND SWAP2 JUMPDEST DUP3 DUP2 LT ISZERO PUSH3 0x4C6 JUMPI DUP9 DUP7 ADD MLOAD DUP3 SSTORE SWAP5 DUP5 ADD SWAP5 PUSH1 0x1 SWAP1 SWAP2 ADD SWAP1 DUP5 ADD PUSH3 0x4A5 JUMP JUMPDEST POP DUP6 DUP3 LT ISZERO PUSH3 0x4E5 JUMPI DUP8 DUP6 ADD MLOAD PUSH1 0x0 NOT PUSH1 0x3 DUP9 SWAP1 SHL PUSH1 0xF8 AND SHR NOT AND DUP2 SSTORE JUMPDEST POP POP POP POP POP PUSH1 0x1 SWAP1 DUP2 SHL ADD SWAP1 SSTORE POP JUMP JUMPDEST PUSH2 0xA25 DUP1 PUSH3 0x505 PUSH1 0x0 CODECOPY PUSH1 0x0 RETURN INVALID PUSH1 0x80 PUSH1 0x40 MSTORE PUSH1 0x4 CALLDATASIZE LT PUSH2 0xA0 JUMPI PUSH1 0x0 CALLDATALOAD PUSH1 0xE0 SHR DUP1 PUSH4 0x3F995C2C GT PUSH2 0x64 JUMPI DUP1 PUSH4 0x3F995C2C EQ PUSH2 0x1B8 JUMPI DUP1 PUSH4 0x8D361E43 EQ PUSH2 0x1DF JUMPI DUP1 PUSH4 0x91D14854 EQ PUSH2 0x1FF JUMPI DUP1 PUSH4 0xA217FDDF EQ PUSH2 0x21F JUMPI DUP1 PUSH4 0xD547741F EQ PUSH2 0x234 JUMPI DUP1 PUSH4 0xE8906A2D EQ PUSH2 0x254 JUMPI PUSH1 0x0 DUP1 REVERT JUMPDEST DUP1 PUSH4 0x1FFC9A7 EQ PUSH2 0xE1 JUMPI DUP1 PUSH4 0x6FDDE03 EQ PUSH2 0x116 JUMPI DUP1 PUSH4 0x248A9CA3 EQ PUSH2 0x138 JUMPI DUP1 PUSH4 0x2F2FF15D EQ PUSH2 0x176 JUMPI DUP1 PUSH4 0x36568ABE EQ PUSH2 0x198 JUMPI PUSH1 0x0 DUP1 REVERT JUMPDEST CALLDATASIZE PUSH2 0xDC JUMPI PUSH1 0x40 MLOAD CALLVALUE DUP2 MSTORE CALLER SWAP1 PUSH32 0x5741979DF5F3E491501DA74D3B0A83DD2496AB1F34929865B3E190A8AD75859A SWAP1 PUSH1 0x20 ADD PUSH1 0x40 MLOAD DUP1 SWAP2 SUB SWAP1 LOG2 STOP JUMPDEST PUSH1 0x0 DUP1 REVERT JUMPDEST CALLVALUE DUP1 ISZERO PUSH2 0xED JUMPI PUSH1 0x0 DUP1 REVERT JUMPDEST POP PUSH2 0x101 PUSH2 0xFC CALLDATASIZE PUSH1 0x4 PUSH2 0x781 JUMP JUMPDEST PUSH2 0x274 JUMP JUMPDEST PUSH1 0x40 MLOAD SWAP1 ISZERO ISZERO DUP2 MSTORE PUSH1 0x20 ADD JUMPDEST PUSH1 0x40 MLOAD DUP1 SWAP2 SUB SWAP1 RETURN JUMPDEST CALLVALUE DUP1 ISZERO PUSH2 0x122 JUMPI PUSH1 0x0 DUP1 REVERT JUMPDEST POP PUSH2 0x12B PUSH2 0x2AB JUMP JUMPDEST PUSH1 0x40 MLOAD PUSH2 0x10D SWAP2 SWAP1 PUSH2 0x7F8 JUMP JUMPDEST CALLVALUE DUP1 ISZERO PUSH2 0x144 JUMPI PUSH1 0x0 DUP1 REVERT JUMPDEST POP PUSH2 0x168 PUSH2 0x153 CALLDATASIZE PUSH1 0x4 PUSH2 0x80B JUMP JUMPDEST PUSH1 0x0 SWAP1 DUP2 MSTORE PUSH1 0x20 DUP2 SWAP1 MSTORE PUSH1 0x40 SWAP1 KECCAK256 PUSH1 0x1 ADD SLOAD SWAP1 JUMP JUMPDEST PUSH1 0x40 MLOAD SWAP1 DUP2 MSTORE PUSH1 0x20 ADD PUSH2 0x10D JUMP JUMPDEST CALLVALUE DUP1 ISZERO PUSH2 0x182 JUMPI PUSH1 0x0 DUP1 REVERT JUMPDEST POP PUSH2 0x196 PUSH2 0x191 CALLDATASIZE PUSH1 0x4 PUSH2 0x840 JUMP JUMPDEST PUSH2 0x339 JUMP JUMPDEST STOP JUMPDEST CALLVALUE DUP1 ISZERO PUSH2 0x1A4 JUMPI PUSH1 0x0 DUP1 REVERT JUMPDEST POP PUSH2 0x196 PUSH2 0x1B3 CALLDATASIZE PUSH1 0x4 PUSH2 0x840 JUMP JUMPDEST PUSH2 0x364 JUMP JUMPDEST CALLVALUE DUP1 ISZERO PUSH2 0x1C4 JUMPI PUSH1 0x0 DUP1 REVERT JUMPDEST POP PUSH2 0x1CD PUSH2 0x39C JUMP JUMPDEST PUSH1 0x40 MLOAD PUSH2 0x10D SWAP7 SWAP6 SWAP5 SWAP4 SWAP3 SWAP2 SWAP1 PUSH2 0x86C JUMP JUMPDEST CALLVALUE DUP1 ISZERO PUSH2 0x1EB JUMPI PUSH1 0x0 DUP1 REVERT JUMPDEST POP PUSH2 0x196 PUSH2 0x1FA CALLDATASIZE PUSH1 0x4 PUSH2 0x8DA JUMP JUMPDEST PUSH2 0x55C JUMP JUMPDEST CALLVALUE DUP1 ISZERO PUSH2 0x20B JUMPI PUSH1 0x0 DUP1 REVERT JUMPDEST POP PUSH2 0x101 PUSH2 0x21A CALLDATASIZE PUSH1 0x4 PUSH2 0x840 JUMP JUMPDEST PUSH2 0x5A2 JUMP JUMPDEST CALLVALUE DUP1 ISZERO PUSH2 0x22B JUMPI PUSH1 0x0 DUP1 REVERT JUMPDEST POP PUSH2 0x168 PUSH1 0x0 DUP2 JUMP JUMPDEST CALLVALUE DUP1 ISZERO PUSH2 0x240 JUMPI PUSH1 0x0 DUP1 REVERT JUMPDEST POP PUSH2 0x196 PUSH2 0x24F CALLDATASIZE PUSH1 0x4 PUSH2 0x840 JUMP JUMPDEST PUSH2 0x5CB JUMP JUMPDEST CALLVALUE DUP1 ISZERO PUSH2 0x260 JUMPI PUSH1 0x0 DUP1 REVERT JUMPDEST POP PUSH2 0x196 PUSH2 0x26F CALLDATASIZE PUSH1 0x4 PUSH2 0x8DA JUMP JUMPDEST PUSH2 0x5F0 JUMP JUMPDEST PUSH1 0x0 PUSH1 0x1 PUSH1 0x1 PUSH1 0xE0 SHL SUB NOT DUP3 AND PUSH4 0x7965DB0B PUSH1 0xE0 SHL EQ DUP1 PUSH2 0x2A5 JUMPI POP PUSH4 0x1FFC9A7 PUSH1 0xE0 SHL PUSH1 0x1 PUSH1 0x1 PUSH1 0xE0 SHL SUB NOT DUP4 AND EQ JUMPDEST SWAP3 SWAP2 POP POP JUMP JUMPDEST PUSH1 0x7 DUP1 SLOAD PUSH2 0x2B8 SWAP1 PUSH2 0x99F JUMP JUMPDEST DUP1 PUSH1 0x1F ADD PUSH1 0x20 DUP1 SWAP2 DIV MUL PUSH1 0x20 ADD PUSH1 0x40 MLOAD SWAP1 DUP2 ADD PUSH1 0x40 MSTORE DUP1 SWAP3 SWAP2 SWAP1 DUP2 DUP2 MSTORE PUSH1 0x20 ADD DUP3 DUP1 SLOAD PUSH2 0x2E4 SWAP1 PUSH2 0x99F JUMP JUMPDEST DUP1 ISZERO PUSH2 0x331 JUMPI DUP1 PUSH1 0x1F LT PUSH2 0x306 JUMPI PUSH2 0x100 DUP1 DUP4 SLOAD DIV MUL DUP4 MSTORE SWAP2 PUSH1 0x20 ADD SWAP2 PUSH2 0x331 JUMP JUMPDEST DUP3 ADD SWAP2 SWAP1 PUSH1 0x0 MSTORE PUSH1 0x20 PUSH1 0x0 KECCAK256 SWAP1 JUMPDEST DUP2 SLOAD DUP2 MSTORE SWAP1 PUSH1 0x1 ADD SWAP1 PUSH1 0x20 ADD DUP1 DUP4 GT PUSH2 0x314 JUMPI DUP3 SWAP1 SUB PUSH1 0x1F AND DUP3 ADD SWAP2 JUMPDEST POP POP POP POP POP DUP2 JUMP JUMPDEST PUSH1 0x0 DUP3 DUP2 MSTORE PUSH1 0x20 DUP2 SWAP1 MSTORE PUSH1 0x40 SWAP1 KECCAK256 PUSH1 0x1 ADD SLOAD PUSH2 0x354 DUP2 PUSH2 0x636 JUMP JUMPDEST PUSH2 0x35E DUP4 DUP4 PUSH2 0x643 JUMP JUMPDEST POP POP POP POP JUMP JUMPDEST PUSH1 0x1 PUSH1 0x1 PUSH1 0xA0 SHL SUB DUP2 AND CALLER EQ PUSH2 0x38D JUMPI PUSH1 0x40 MLOAD PUSH4 0x334BD919 PUSH1 0xE1 SHL DUP2 MSTORE PUSH1 0x4 ADD PUSH1 0x40 MLOAD DUP1 SWAP2 SUB SWAP1 REVERT JUMPDEST PUSH2 0x397 DUP3 DUP3 PUSH2 0x6D5 JUMP JUMPDEST POP POP POP JUMP JUMPDEST PUSH1 0x1 DUP1 SLOAD DUP2 SWAP1 PUSH2 0x3AB SWAP1 PUSH2 0x99F JUMP JUMPDEST DUP1 PUSH1 0x1F ADD PUSH1 0x20 DUP1 SWAP2 DIV MUL PUSH1 0x20 ADD PUSH1 0x40 MLOAD SWAP1 DUP2 ADD PUSH1 0x40 MSTORE DUP1 SWAP3 SWAP2 SWAP1 DUP2 DUP2 MSTORE PUSH1 0x20 ADD DUP3 DUP1 SLOAD PUSH2 0x3D7 SWAP1 PUSH2 0x99F JUMP JUMPDEST DUP1 ISZERO PUSH2 0x424 JUMPI DUP1 PUSH1 0x1F LT PUSH2 0x3F9 JUMPI PUSH2 0x100 DUP1 DUP4 SLOAD DIV MUL DUP4 MSTORE SWAP2 PUSH1 0x20 ADD SWAP2 PUSH2 0x424 JUMP JUMPDEST DUP3 ADD SWAP2 SWAP1 PUSH1 0x0 MSTORE PUSH1 0x20 PUSH1 0x0 KECCAK256 SWAP1 JUMPDEST DUP2 SLOAD DUP2 MSTORE SWAP1 PUSH1 0x1 ADD SWAP1 PUSH1 0x20 ADD DUP1 DUP4 GT PUSH2 0x407 JUMPI DUP3 SWAP1 SUB PUSH1 0x1F AND DUP3 ADD SWAP2 JUMPDEST POP POP POP POP POP SWAP1 DUP1 PUSH1 0x1 ADD DUP1 SLOAD PUSH2 0x439 SWAP1 PUSH2 0x99F JUMP JUMPDEST DUP1 PUSH1 0x1F ADD PUSH1 0x20 DUP1 SWAP2 DIV MUL PUSH1 0x20 ADD PUSH1 0x40 MLOAD SWAP1 DUP2 ADD PUSH1 0x40 MSTORE DUP1 SWAP3 SWAP2 SWAP1 DUP2 DUP2 MSTORE PUSH1 0x20 ADD DUP3 DUP1 SLOAD PUSH2 0x465 SWAP1 PUSH2 0x99F JUMP JUMPDEST DUP1 ISZERO PUSH2 0x4B2 JUMPI DUP1 PUSH1 0x1F LT PUSH2 0x487 JUMPI PUSH2 0x100 DUP1 DUP4 SLOAD DIV MUL DUP4 MSTORE SWAP2 PUSH1 0x20 ADD SWAP2 PUSH2 0x4B2 JUMP JUMPDEST DUP3 ADD SWAP2 SWAP1 PUSH1 0x0 MSTORE PUSH1 0x20 PUSH1 0x0 KECCAK256 SWAP1 JUMPDEST DUP2 SLOAD DUP2 MSTORE SWAP1 PUSH1 0x1 ADD SWAP1 PUSH1 0x20 ADD DUP1 DUP4 GT PUSH2 0x495 JUMPI DUP3 SWAP1 SUB PUSH1 0x1F AND DUP3 ADD SWAP2 JUMPDEST POP POP POP POP POP SWAP1 DUP1 PUSH1 0x2 ADD DUP1 SLOAD PUSH2 0x4C7 SWAP1 PUSH2 0x99F JUMP JUMPDEST DUP1 PUSH1 0x1F ADD PUSH1 0x20 DUP1 SWAP2 DIV MUL PUSH1 0x20 ADD PUSH1 0x40 MLOAD SWAP1 DUP2 ADD PUSH1 0x40 MSTORE DUP1 SWAP3 SWAP2 SWAP1 DUP2 DUP2 MSTORE PUSH1 0x20 ADD DUP3 DUP1 SLOAD PUSH2 0x4F3 SWAP1 PUSH2 0x99F JUMP JUMPDEST DUP1 ISZERO PUSH2 0x540 JUMPI DUP1 PUSH1 0x1F LT PUSH2 0x515 JUMPI PUSH2 0x100 DUP1 DUP4 SLOAD DIV MUL DUP4 MSTORE SWAP2 PUSH1 0x20 ADD SWAP2 PUSH2 0x540 JUMP JUMPDEST DUP3 ADD SWAP2 SWAP1 PUSH1 0x0 MSTORE PUSH1 0x20 PUSH1 0x0 KECCAK256 SWAP1 JUMPDEST DUP2 SLOAD DUP2 MSTORE SWAP1 PUSH1 0x1 ADD SWAP1 PUSH1 0x20 ADD DUP1 DUP4 GT PUSH2 0x523 JUMPI DUP3 SWAP1 SUB PUSH1 0x1F AND DUP3 ADD SWAP2 JUMPDEST POP POP POP POP POP SWAP1 DUP1 PUSH1 0x3 ADD SLOAD SWAP1 DUP1 PUSH1 0x4 ADD SLOAD SWAP1 DUP1 PUSH1 0x5 ADD SLOAD SWAP1 POP DUP7 JUMP JUMPDEST PUSH1 0x0 PUSH2 0x567 DUP2 PUSH2 0x636 JUMP JUMPDEST PUSH1 0x0 JUMPDEST DUP3 MLOAD DUP2 LT ISZERO PUSH2 0x397 JUMPI PUSH2 0x599 PUSH1 0x0 DUP1 SHL DUP5 DUP4 DUP2 MLOAD DUP2 LT PUSH2 0x58C JUMPI PUSH2 0x58C PUSH2 0x9D9 JUMP JUMPDEST PUSH1 0x20 MUL PUSH1 0x20 ADD ADD MLOAD PUSH2 0x6D5 JUMP JUMPDEST POP PUSH1 0x1 ADD PUSH2 0x56A JUMP JUMPDEST PUSH1 0x0 SWAP2 DUP3 MSTORE PUSH1 0x20 DUP3 DUP2 MSTORE PUSH1 0x40 DUP1 DUP5 KECCAK256 PUSH1 0x1 PUSH1 0x1 PUSH1 0xA0 SHL SUB SWAP4 SWAP1 SWAP4 AND DUP5 MSTORE SWAP2 SWAP1 MSTORE SWAP1 KECCAK256 SLOAD PUSH1 0xFF AND SWAP1 JUMP JUMPDEST PUSH1 0x0 DUP3 DUP2 MSTORE PUSH1 0x20 DUP2 SWAP1 MSTORE PUSH1 0x40 SWAP1 KECCAK256 PUSH1 0x1 ADD SLOAD PUSH2 0x5E6 DUP2 PUSH2 0x636 JUMP JUMPDEST PUSH2 0x35E DUP4 DUP4 PUSH2 0x6D5 JUMP JUMPDEST PUSH1 0x0 PUSH2 0x5FB DUP2 PUSH2 0x636 JUMP JUMPDEST PUSH1 0x0 JUMPDEST DUP3 MLOAD DUP2 LT ISZERO PUSH2 0x397 JUMPI PUSH2 0x62D PUSH1 0x0 DUP1 SHL DUP5 DUP4 DUP2 MLOAD DUP2 LT PUSH2 0x620 JUMPI PUSH2 0x620 PUSH2 0x9D9 JUMP JUMPDEST PUSH1 0x20 MUL PUSH1 0x20 ADD ADD MLOAD PUSH2 0x643 JUMP JUMPDEST POP PUSH1 0x1 ADD PUSH2 0x5FE JUMP JUMPDEST PUSH2 0x640 DUP2 CALLER PUSH2 0x740 JUMP JUMPDEST POP JUMP JUMPDEST PUSH1 0x0 PUSH2 0x64F DUP4 DUP4 PUSH2 0x5A2 JUMP JUMPDEST PUSH2 0x6CD JUMPI PUSH1 0x0 DUP4 DUP2 MSTORE PUSH1 0x20 DUP2 DUP2 MSTORE PUSH1 0x40 DUP1 DUP4 KECCAK256 PUSH1 0x1 PUSH1 0x1 PUSH1 0xA0 SHL SUB DUP7 AND DUP5 MSTORE SWAP1 SWAP2 MSTORE SWAP1 KECCAK256 DUP1 SLOAD PUSH1 0xFF NOT AND PUSH1 0x1 OR SWAP1 SSTORE PUSH2 0x685 CALLER SWAP1 JUMP JUMPDEST PUSH1 0x1 PUSH1 0x1 PUSH1 0xA0 SHL SUB AND DUP3 PUSH1 0x1 PUSH1 0x1 PUSH1 0xA0 SHL SUB AND DUP5 PUSH32 0x2F8788117E7EFF1D82E926EC794901D17C78024A50270940304540A733656F0D PUSH1 0x40 MLOAD PUSH1 0x40 MLOAD DUP1 SWAP2 SUB SWAP1 LOG4 POP PUSH1 0x1 PUSH2 0x2A5 JUMP JUMPDEST POP PUSH1 0x0 PUSH2 0x2A5 JUMP JUMPDEST PUSH1 0x0 PUSH2 0x6E1 DUP4 DUP4 PUSH2 0x5A2 JUMP JUMPDEST ISZERO PUSH2 0x6CD JUMPI PUSH1 0x0 DUP4 DUP2 MSTORE PUSH1 0x20 DUP2 DUP2 MSTORE PUSH1 0x40 DUP1 DUP4 KECCAK256 PUSH1 0x1 PUSH1 0x1 PUSH1 0xA0 SHL SUB DUP7 AND DUP1 DUP6 MSTORE SWAP3 MSTORE DUP1 DUP4 KECCAK256 DUP1 SLOAD PUSH1 0xFF NOT AND SWAP1 SSTORE MLOAD CALLER SWAP3 DUP7 SWAP2 PUSH32 0xF6391F5C32D9C69D2A47EA670B442974B53935D1EDC7FD64EB21E047A839171B SWAP2 SWAP1 LOG4 POP PUSH1 0x1 PUSH2 0x2A5 JUMP JUMPDEST PUSH2 0x74A DUP3 DUP3 PUSH2 0x5A2 JUMP JUMPDEST PUSH2 0x77D JUMPI PUSH1 0x40 MLOAD PUSH4 0xE2517D3F PUSH1 0xE0 SHL DUP2 MSTORE PUSH1 0x1 PUSH1 0x1 PUSH1 0xA0 SHL SUB DUP3 AND PUSH1 0x4 DUP3 ADD MSTORE PUSH1 0x24 DUP2 ADD DUP4 SWAP1 MSTORE PUSH1 0x44 ADD PUSH1 0x40 MLOAD DUP1 SWAP2 SUB SWAP1 REVERT JUMPDEST POP POP JUMP JUMPDEST PUSH1 0x0 PUSH1 0x20 DUP3 DUP5 SUB SLT ISZERO PUSH2 0x793 JUMPI PUSH1 0x0 DUP1 REVERT JUMPDEST DUP2 CALLDATALOAD PUSH1 0x1 PUSH1 0x1 PUSH1 0xE0 SHL SUB NOT DUP2 AND DUP2 EQ PUSH2 0x7AB JUMPI PUSH1 0x0 DUP1 REVERT JUMPDEST SWAP4 SWAP3 POP POP POP JUMP JUMPDEST PUSH1 0x0 DUP2 MLOAD DUP1 DUP5 MSTORE PUSH1 0x0 JUMPDEST DUP2 DUP2 LT ISZERO PUSH2 0x7D8 JUMPI PUSH1 0x20 DUP2 DUP6 ADD DUP2 ADD MLOAD DUP7 DUP4 ADD DUP3 ADD MSTORE ADD PUSH2 0x7BC JUMP JUMPDEST POP PUSH1 0x0 PUSH1 0x20 DUP3 DUP7 ADD ADD MSTORE PUSH1 0x20 PUSH1 0x1F NOT PUSH1 0x1F DUP4 ADD AND DUP6 ADD ADD SWAP2 POP POP SWAP3 SWAP2 POP POP JUMP JUMPDEST PUSH1 0x20 DUP2 MSTORE PUSH1 0x0 PUSH2 0x7AB PUSH1 0x20 DUP4 ADD DUP5 PUSH2 0x7B2 JUMP JUMPDEST PUSH1 0x0 PUSH1 0x20 DUP3 DUP5 SUB SLT ISZERO PUSH2 0x81D JUMPI PUSH1 0x0 DUP1 REVERT JUMPDEST POP CALLDATALOAD SWAP2 SWAP1 POP JUMP JUMPDEST DUP1 CALLDATALOAD PUSH1 0x1 PUSH1 0x1 PUSH1 0xA0 SHL SUB DUP2 AND DUP2 EQ PUSH2 0x83B JUMPI PUSH1 0x0 DUP1 REVERT JUMPDEST SWAP2 SWAP1 POP JUMP JUMPDEST PUSH1 0x0 DUP1 PUSH1 0x40 DUP4 DUP6 SUB SLT ISZERO PUSH2 0x853 JUMPI PUSH1 0x0 DUP1 REVERT JUMPDEST DUP3 CALLDATALOAD SWAP2 POP PUSH2 0x863 PUSH1 0x20 DUP5 ADD PUSH2 0x824 JUMP JUMPDEST SWAP1 POP SWAP3 POP SWAP3 SWAP1 POP JUMP JUMPDEST PUSH1 0xC0 DUP2 MSTORE PUSH1 0x0 PUSH2 0x87F PUSH1 0xC0 DUP4 ADD DUP10 PUSH2 0x7B2 JUMP JUMPDEST DUP3 DUP2 SUB PUSH1 0x20 DUP5 ADD MSTORE PUSH2 0x891 DUP2 DUP10 PUSH2 0x7B2 JUMP JUMPDEST SWAP1 POP DUP3 DUP2 SUB PUSH1 0x40 DUP5 ADD MSTORE PUSH2 0x8A5 DUP2 DUP9 PUSH2 0x7B2 JUMP JUMPDEST PUSH1 0x60 DUP5 ADD SWAP7 SWAP1 SWAP7 MSTORE POP POP PUSH1 0x80 DUP2 ADD SWAP3 SWAP1 SWAP3 MSTORE PUSH1 0xA0 SWAP1 SWAP2 ADD MSTORE SWAP4 SWAP3 POP POP POP JUMP JUMPDEST PUSH4 0x4E487B71 PUSH1 0xE0 SHL PUSH1 0x0 MSTORE PUSH1 0x41 PUSH1 0x4 MSTORE PUSH1 0x24 PUSH1 0x0 REVERT JUMPDEST PUSH1 0x0 PUSH1 0x20 DUP1 DUP4 DUP6 SUB SLT ISZERO PUSH2 0x8ED JUMPI PUSH1 0x0 DUP1 REVERT JUMPDEST DUP3 CALLDATALOAD PUSH8 0xFFFFFFFFFFFFFFFF DUP1 DUP3 GT ISZERO PUSH2 0x905 JUMPI PUSH1 0x0 DUP1 REVERT JUMPDEST DUP2 DUP6 ADD SWAP2 POP DUP6 PUSH1 0x1F DUP4 ADD SLT PUSH2 0x919 JUMPI PUSH1 0x0 DUP1 REVERT JUMPDEST DUP2 CALLDATALOAD DUP2 DUP2 GT ISZERO PUSH2 0x92B JUMPI PUSH2 0x92B PUSH2 0x8C4 JUMP JUMPDEST DUP1 PUSH1 0x5 SHL PUSH1 0x40 MLOAD PUSH1 0x1F NOT PUSH1 0x3F DUP4 ADD AND DUP2 ADD DUP2 DUP2 LT DUP6 DUP3 GT OR ISZERO PUSH2 0x950 JUMPI PUSH2 0x950 PUSH2 0x8C4 JUMP JUMPDEST PUSH1 0x40 MSTORE SWAP2 DUP3 MSTORE DUP5 DUP3 ADD SWAP3 POP DUP4 DUP2 ADD DUP6 ADD SWAP2 DUP9 DUP4 GT ISZERO PUSH2 0x96E JUMPI PUSH1 0x0 DUP1 REVERT JUMPDEST SWAP4 DUP6 ADD SWAP4 JUMPDEST DUP3 DUP6 LT ISZERO PUSH2 0x993 JUMPI PUSH2 0x984 DUP6 PUSH2 0x824 JUMP JUMPDEST DUP5 MSTORE SWAP4 DUP6 ADD SWAP4 SWAP3 DUP6 ADD SWAP3 PUSH2 0x973 JUMP JUMPDEST SWAP9 SWAP8 POP POP POP POP POP POP POP POP JUMP JUMPDEST PUSH1 0x1 DUP2 DUP2 SHR SWAP1 DUP3 AND DUP1 PUSH2 0x9B3 JUMPI PUSH1 0x7F DUP3 AND SWAP2 POP JUMPDEST PUSH1 0x20 DUP3 LT DUP2 SUB PUSH2 0x9D3 JUMPI PUSH4 0x4E487B71 PUSH1 0xE0 SHL PUSH1 0x0 MSTORE PUSH1 0x22 PUSH1 0x4 MSTORE PUSH1 0x24 PUSH1 0x0 REVERT JUMPDEST POP SWAP2 SWAP1 POP JUMP JUMPDEST PUSH4 0x4E487B71 PUSH1 0xE0 SHL PUSH1 0x0 MSTORE PUSH1 0x32 PUSH1 0x4 MSTORE PUSH1 0x24 PUSH1 0x0 REVERT INVALID LOG2 PUSH5 0x6970667358 0x22 SLT KECCAK256 AND RETURN PUSH22 0x517A8AAE5C4DE5F1CF733688942F36A632E4C58927DA KECCAK256 DUP9 0xB4 0x2C 0xDF PUSH31 0xEF64736F6C6343000818003300000000000000000000000000000000000000 "
        },
        "methodIdentifiers": {
          "DEFAULT_ADMIN_ROLE()": "a217fddf",
          "addSigners(address[])": "e8906a2d",
          "baseVector()": "3f995c2c",
          "getRoleAdmin(bytes32)": "248a9ca3",
          "grantRole(bytes32,address)": "2f2ff15d",
          "hasRole(bytes32,address)": "91d14854",
          "name()": "06fdde03",
          "removeSigners(address[])": "8d361e43",
          "renounceRole(bytes32,address)": "36568abe",
          "revokeRole(bytes32,address)": "d547741f",
          "supportsInterface(bytes4)": "01ffc9a7"
        }
      }
    }
  }
}