{
  "_format": "hh-sol-artifact-1",
  "contractName": "WorldRegistry",
  "sourceName": "contracts/world/v0.1/WorldRegistry.sol",
  "abi": [
    {
      "inputs": [
        {
          "internalType": "address",
          "name": "vectorAuthority",
          "type": "address"
        },
        {
          "internalType": "contract IRegistrarRegistry",
          "name": "regRegistry",
          "type": "address"
        },
        {
          "internalType": "contract IWorldFactory",
          "name": "factory",
          "type": "address"
        },
        {
          "internalType": "address",
          "name": "defaultAdmin",
          "type": "address"
        }
      ],
      "stateMutability": "nonpayable",
      "type": "constructor"
    },
    {
      "inputs": [],
      "name": "AccessControlBadConfirmation",
      "type": "error"
    },
    {
      "inputs": [
        {
          "internalType": "address",
          "name": "account",
          "type": "address"
        },
        {
          "internalType": "bytes32",
          "name": "neededRole",
          "type": "bytes32"
        }
      ],
      "name": "AccessControlUnauthorizedAccount",
      "type": "error"
    },
    {
      "anonymous": false,
      "inputs": [
        {
          "indexed": true,
          "internalType": "bytes32",
          "name": "role",
          "type": "bytes32"
        },
        {
          "indexed": true,
          "internalType": "bytes32",
          "name": "previousAdminRole",
          "type": "bytes32"
        },
        {
          "indexed": true,
          "internalType": "bytes32",
          "name": "newAdminRole",
          "type": "bytes32"
        }
      ],
      "name": "RoleAdminChanged",
      "type": "event"
    },
    {
      "anonymous": false,
      "inputs": [
        {
          "indexed": true,
          "internalType": "bytes32",
          "name": "role",
          "type": "bytes32"
        },
        {
          "indexed": true,
          "internalType": "address",
          "name": "account",
          "type": "address"
        },
        {
          "indexed": true,
          "internalType": "address",
          "name": "sender",
          "type": "address"
        }
      ],
      "name": "RoleGranted",
      "type": "event"
    },
    {
      "anonymous": false,
      "inputs": [
        {
          "indexed": true,
          "internalType": "bytes32",
          "name": "role",
          "type": "bytes32"
        },
        {
          "indexed": true,
          "internalType": "address",
          "name": "account",
          "type": "address"
        },
        {
          "indexed": true,
          "internalType": "address",
          "name": "sender",
          "type": "address"
        }
      ],
      "name": "RoleRevoked",
      "type": "event"
    },
    {
      "anonymous": false,
      "inputs": [
        {
          "indexed": true,
          "internalType": "address",
          "name": "authority",
          "type": "address"
        }
      ],
      "name": "VectorAddressAuthorityAdded",
      "type": "event"
    },
    {
      "anonymous": false,
      "inputs": [
        {
          "indexed": true,
          "internalType": "address",
          "name": "authority",
          "type": "address"
        }
      ],
      "name": "VectorAddressAuthorityRemoved",
      "type": "event"
    },
    {
      "anonymous": false,
      "inputs": [
        {
          "indexed": true,
          "internalType": "address",
          "name": "world",
          "type": "address"
        },
        {
          "indexed": true,
          "internalType": "address",
          "name": "owner",
          "type": "address"
        },
        {
          "components": [
            {
              "internalType": "string",
              "name": "x",
              "type": "string"
            },
            {
              "internalType": "string",
              "name": "y",
              "type": "string"
            },
            {
              "internalType": "string",
              "name": "z",
              "type": "string"
            },
            {
              "internalType": "uint256",
              "name": "t",
              "type": "uint256"
            },
            {
              "internalType": "uint256",
              "name": "p",
              "type": "uint256"
            },
            {
              "internalType": "uint256",
              "name": "p_sub",
              "type": "uint256"
            }
          ],
          "indexed": false,
          "internalType": "struct VectorAddress",
          "name": "vectorAddress",
          "type": "tuple"
        }
      ],
      "name": "WorldRegistered",
      "type": "event"
    },
    {
      "inputs": [],
      "name": "DEFAULT_ADMIN_ROLE",
      "outputs": [
        {
          "internalType": "bytes32",
          "name": "",
          "type": "bytes32"
        }
      ],
      "stateMutability": "view",
      "type": "function"
    },
    {
      "inputs": [],
      "name": "VECTOR_ADDRESS_AUTHORITY",
      "outputs": [
        {
          "internalType": "bytes32",
          "name": "",
          "type": "bytes32"
        }
      ],
      "stateMutability": "view",
      "type": "function"
    },
    {
      "inputs": [
        {
          "internalType": "address",
          "name": "auth",
          "type": "address"
        }
      ],
      "name": "addVectorAddressAuthority",
      "outputs": [],
      "stateMutability": "nonpayable",
      "type": "function"
    },
    {
      "inputs": [
        {
          "internalType": "bytes32",
          "name": "role",
          "type": "bytes32"
        }
      ],
      "name": "getRoleAdmin",
      "outputs": [
        {
          "internalType": "bytes32",
          "name": "",
          "type": "bytes32"
        }
      ],
      "stateMutability": "view",
      "type": "function"
    },
    {
      "inputs": [
        {
          "internalType": "bytes32",
          "name": "role",
          "type": "bytes32"
        },
        {
          "internalType": "address",
          "name": "account",
          "type": "address"
        }
      ],
      "name": "grantRole",
      "outputs": [],
      "stateMutability": "nonpayable",
      "type": "function"
    },
    {
      "inputs": [
        {
          "internalType": "bytes32",
          "name": "role",
          "type": "bytes32"
        },
        {
          "internalType": "address",
          "name": "account",
          "type": "address"
        }
      ],
      "name": "hasRole",
      "outputs": [
        {
          "internalType": "bool",
          "name": "",
          "type": "bool"
        }
      ],
      "stateMutability": "view",
      "type": "function"
    },
    {
      "inputs": [
        {
          "internalType": "address",
          "name": "auth",
          "type": "address"
        }
      ],
      "name": "isVectorAddressAuthority",
      "outputs": [
        {
          "internalType": "bool",
          "name": "",
          "type": "bool"
        }
      ],
      "stateMutability": "view",
      "type": "function"
    },
    {
      "inputs": [
        {
          "internalType": "address",
          "name": "world",
          "type": "address"
        }
      ],
      "name": "isWorld",
      "outputs": [
        {
          "internalType": "bool",
          "name": "",
          "type": "bool"
        }
      ],
      "stateMutability": "view",
      "type": "function"
    },
    {
      "inputs": [
        {
          "internalType": "uint256",
          "name": "registrarId",
          "type": "uint256"
        },
        {
          "internalType": "address",
          "name": "_owner",
          "type": "address"
        },
        {
          "internalType": "bytes",
          "name": "initData",
          "type": "bytes"
        },
        {
          "internalType": "bool",
          "name": "tokensToOwner",
          "type": "bool"
        }
      ],
      "name": "register",
      "outputs": [],
      "stateMutability": "payable",
      "type": "function"
    },
    {
      "inputs": [],
      "name": "registrarRegistry",
      "outputs": [
        {
          "internalType": "contract IRegistrarRegistry",
          "name": "",
          "type": "address"
        }
      ],
      "stateMutability": "view",
      "type": "function"
    },
    {
      "inputs": [
        {
          "internalType": "address",
          "name": "auth",
          "type": "address"
        }
      ],
      "name": "removeVectorAddressAuthority",
      "outputs": [],
      "stateMutability": "nonpayable",
      "type": "function"
    },
    {
      "inputs": [
        {
          "internalType": "bytes32",
          "name": "role",
          "type": "bytes32"
        },
        {
          "internalType": "address",
          "name": "callerConfirmation",
          "type": "address"
        }
      ],
      "name": "renounceRole",
      "outputs": [],
      "stateMutability": "nonpayable",
      "type": "function"
    },
    {
      "inputs": [
        {
          "internalType": "bytes32",
          "name": "role",
          "type": "bytes32"
        },
        {
          "internalType": "address",
          "name": "account",
          "type": "address"
        }
      ],
      "name": "revokeRole",
      "outputs": [],
      "stateMutability": "nonpayable",
      "type": "function"
    },
    {
      "inputs": [
        {
          "internalType": "bytes4",
          "name": "interfaceId",
          "type": "bytes4"
        }
      ],
      "name": "supportsInterface",
      "outputs": [
        {
          "internalType": "bool",
          "name": "",
          "type": "bool"
        }
      ],
      "stateMutability": "view",
      "type": "function"
    },
    {
      "inputs": [
        {
          "internalType": "uint256",
          "name": "registrarId",
          "type": "uint256"
        },
        {
          "internalType": "address",
          "name": "oldWorld",
          "type": "address"
        },
        {
          "internalType": "bytes",
          "name": "initData",
          "type": "bytes"
        }
      ],
      "name": "upgradeWorld",
      "outputs": [],
      "stateMutability": "nonpayable",
      "type": "function"
    },
    {
      "inputs": [],
      "name": "worldFactory",
      "outputs": [
        {
          "internalType": "contract IWorldFactory",
          "name": "",
          "type": "address"
        }
      ],
      "stateMutability": "view",
      "type": "function"
    },
    {
      "inputs": [
        {
          "internalType": "address",
          "name": "",
          "type": "address"
        }
      ],
      "name": "worldsByContractAddress",
      "outputs": [
        {
          "internalType": "address",
          "name": "",
          "type": "address"
        }
      ],
      "stateMutability": "view",
      "type": "function"
    },
    {
      "inputs": [
        {
          "internalType": "string",
          "name": "",
          "type": "string"
        }
      ],
      "name": "worldsByName",
      "outputs": [
        {
          "internalType": "address",
          "name": "",
          "type": "address"
        }
      ],
      "stateMutability": "view",
      "type": "function"
    },
    {
      "inputs": [
        {
          "internalType": "string",
          "name": "",
          "type": "string"
        }
      ],
      "name": "worldsVectorAddress",
      "outputs": [
        {
          "internalType": "address",
          "name": "",
          "type": "address"
        }
      ],
      "stateMutability": "view",
      "type": "function"
    }
  ],
  "bytecode": "0x60806040523480156200001157600080fd5b5060405162001c6738038062001c678339810160408190526200003491620001a5565b600180546001600160a01b038086166001600160a01b031992831617909255600280549285169290911691909117905562000071600082620000dd565b506200009e7f63bd1b4836789b043d73790415051a74ff7505ddd2ea4e9e3f425a2d5bf50a5285620000dd565b506040516001600160a01b038516907f2e94fbb33fe77c307894cc42bed4204a9981f2bac4fc65655ba49ec4e5ac313490600090a2505050506200020d565b6000828152602081815260408083206001600160a01b038516845290915281205460ff1662000182576000838152602081815260408083206001600160a01b03861684529091529020805460ff19166001179055620001393390565b6001600160a01b0316826001600160a01b0316847f2f8788117e7eff1d82e926ec794901d17c78024a50270940304540a733656f0d60405160405180910390a450600162000186565b5060005b92915050565b6001600160a01b0381168114620001a257600080fd5b50565b60008060008060808587031215620001bc57600080fd5b8451620001c9816200018c565b6020860151909450620001dc816200018c565b6040860151909350620001ef816200018c565b606086015190925062000202816200018c565b939692955090935050565b611a4a806200021d6000396000f3fe6080604052600436106101145760003560e01c80636d80bf31116100a0578063dbdc4e6211610064578063dbdc4e6214610366578063e3ffb4bf14610386578063eee7517d146103a6578063f0ad0f3e146103c6578063fbde846e1461040157600080fd5b80636d80bf31146102d157806391d14854146102f1578063a217fddf14610311578063d547741f14610326578063db8d74661461034657600080fd5b80632f2ff15d116100e75780632f2ff15d1461020557806336568abe146102275780633fece62d146102475780634fd0f6ee1461027d5780635389c2211461029057600080fd5b806301ffc9a7146101195780630dc3897d1461014e578063186cd03614610186578063248a9ca3146101c7575b600080fd5b34801561012557600080fd5b506101396101343660046112b8565b610423565b60405190151581526020015b60405180910390f35b34801561015a57600080fd5b5060025461016e906001600160a01b031681565b6040516001600160a01b039091168152602001610145565b34801561019257600080fd5b5061016e6101a1366004611381565b80516020818301810180516004825292820191909301209152546001600160a01b031681565b3480156101d357600080fd5b506101f76101e2366004611401565b60009081526020819052604090206001015490565b604051908152602001610145565b34801561021157600080fd5b5061022561022036600461142f565b61045a565b005b34801561023357600080fd5b5061022561024236600461142f565b610485565b34801561025357600080fd5b5061016e61026236600461145f565b6003602052600090815260409020546001600160a01b031681565b61022561028b3660046114d3565b6104bd565b34801561029c57600080fd5b5061016e6102ab366004611381565b80516020818301810180516005825292820191909301209152546001600160a01b031681565b3480156102dd57600080fd5b506101396102ec36600461145f565b610904565b3480156102fd57600080fd5b5061013961030c36600461142f565b61091a565b34801561031d57600080fd5b506101f7600081565b34801561033257600080fd5b5061022561034136600461142f565b610943565b34801561035257600080fd5b5061022561036136600461145f565b610968565b34801561037257600080fd5b5060015461016e906001600160a01b031681565b34801561039257600080fd5b506102256103a136600461145f565b6109c3565b3480156103b257600080fd5b506102256103c1366004611547565b610a1e565b3480156103d257600080fd5b506101396103e136600461145f565b6001600160a01b0390811660009081526003602052604090205416151590565b34801561040d57600080fd5b506101f76000805160206119f583398151915281565b60006001600160e01b03198216637965db0b60e01b148061045457506301ffc9a760e01b6001600160e01b03198316145b92915050565b60008281526020819052604090206001015461047581610ee4565b61047f8383610ef1565b50505050565b6001600160a01b03811633146104ae5760405163334bd91960e11b815260040160405180910390fd5b6104b88282610f83565b505050565b600154604051638c9d518f60e01b81526004810187905233602482015286916001600160a01b031690638c9d518f90604401602060405180830381865afa15801561050c573d6000803e3d6000fd5b505050506040513d601f19601f8201168201806040525081019061053091906115a3565b6105555760405162461bcd60e51b815260040161054c906115c0565b60405180910390fd5b60025460405163260b3c8760e21b81526000916001600160a01b03169063982cf21c9061058a9089908990899060040161160e565b6020604051808303816000875af11580156105a9573d6000803e3d6000fd5b505050506040513d601f19601f820116820180604052508101906105cd919061164e565b90506001600160a01b0381166105f55760405162461bcd60e51b815260040161054c9061166b565b6000610665826001600160a01b03166317d7de7c6040518163ffffffff1660e01b8152600401600060405180830381865afa158015610638573d6000803e3d6000fd5b505050506040513d6000823e601f3d908101601f191682016040526106609190810190611720565b610fee565b905060006001600160a01b03166005826040516106829190611755565b908152604051908190036020019020546001600160a01b0316146106b85760405162461bcd60e51b815260040161054c90611771565b6001600160a01b03821660008181526003602052604080822080546001600160a01b03191684179055805163382af56d60e01b81529051859360049361074d93919263382af56d92808701929190819003870181865afa158015610720573d6000803e3d6000fd5b505050506040513d6000823e601f3d908101601f1916820160405261074891908101906117b3565b61105e565b60405161075a9190611755565b908152602001604051809103902060006101000a8154816001600160a01b0302191690836001600160a01b031602179055508160058260405161079d9190611755565b90815260405190819003602001902080546001600160a01b03929092166001600160a01b0319909216919091179055341561084a578315610813576040516001600160a01b038816903480156108fc02916000818181858888f1935050505015801561080d573d6000803e3d6000fd5b5061084a565b6040516001600160a01b038316903480156108fc02916000818181858888f19350505050158015610848573d6000803e3d6000fd5b505b866001600160a01b0316826001600160a01b03167fee32bdf3024960eab0cc65f92f4ab288808ff5501b8132b269630d3fa070005e846001600160a01b031663382af56d6040518163ffffffff1660e01b8152600401600060405180830381865afa1580156108bd573d6000803e3d6000fd5b505050506040513d6000823e601f3d908101601f191682016040526108e591908101906117b3565b6040516108f291906118b5565b60405180910390a35050505050505050565b60006104546000805160206119f5833981519152835b6000918252602082815260408084206001600160a01b0393909316845291905290205460ff1690565b60008281526020819052604090206001015461095e81610ee4565b61047f8383610f83565b600061097381610ee4565b61098b6000805160206119f58339815191528361045a565b6040516001600160a01b038316907f2e94fbb33fe77c307894cc42bed4204a9981f2bac4fc65655ba49ec4e5ac313490600090a25050565b60006109ce81610ee4565b6109e66000805160206119f583398151915283610943565b6040516001600160a01b038316907f90667489bdb375ee846a3b76202e18921f93dbca04e24a56a47eb570c5a3484390600090a25050565b600154604051638c9d518f60e01b81526004810186905233602482015285916001600160a01b031690638c9d518f90604401602060405180830381865afa158015610a6d573d6000803e3d6000fd5b505050506040513d601f19601f82011682018060405250810190610a9191906115a3565b610aad5760405162461bcd60e51b815260040161054c906115c0565b6001600160a01b0380851660009081526003602052604090205416610b145760405162461bcd60e51b815260206004820152601e60248201527f576f726c6452656769737472793a20776f726c64206e6f7420666f756e640000604482015260640161054c565b6000846001600160a01b031663893d20e86040518163ffffffff1660e01b8152600401602060405180830381865afa158015610b54573d6000803e3d6000fd5b505050506040513d601f19601f82011682018060405250810190610b78919061164e565b60025460405163260b3c8760e21b81529192506000916001600160a01b039091169063982cf21c90610bb29085908990899060040161160e565b6020604051808303816000875af1158015610bd1573d6000803e3d6000fd5b505050506040513d601f19601f82011682018060405250810190610bf5919061164e565b90506001600160a01b038116610c1d5760405162461bcd60e51b815260040161054c9061166b565b6001600160a01b0380871660008181526003602052604080822080546001600160a01b0319908116909155938516808352818320805490951617909355825163382af56d60e01b81529251600493610c94939263382af56d9282870192819003870181865afa158015610720573d6000803e3d6000fd5b604051610ca19190611755565b9081526040805191829003602001822080546001600160a01b031916905563382af56d60e01b8252518291600491610d05916001600160a01b0385169163382af56d9185810191600091819003870181865afa158015610720573d6000803e3d6000fd5b604051610d129190611755565b908152602001604051809103902060006101000a8154816001600160a01b0302191690836001600160a01b031602179055506005610d87876001600160a01b03166317d7de7c6040518163ffffffff1660e01b8152600401600060405180830381865afa158015610638573d6000803e3d6000fd5b604051610d949190611755565b908152602001604051809103902060006101000a8154906001600160a01b0302191690556000610dfb826001600160a01b03166317d7de7c6040518163ffffffff1660e01b8152600401600060405180830381865afa158015610638573d6000803e3d6000fd5b905060006001600160a01b0316600582604051610e189190611755565b908152604051908190036020019020546001600160a01b031614610e4e5760405162461bcd60e51b815260040161054c90611771565b81600582604051610e5f9190611755565b90815260405190819003602001812080546001600160a01b039384166001600160a01b031990911617905562900f0160e41b8152838216600482015290881690630900f01090602401600060405180830381600087803b158015610ec257600080fd5b505af1158015610ed6573d6000803e3d6000fd5b505050505050505050505050565b610eee81336110c1565b50565b6000610efd838361091a565b610f7b576000838152602081815260408083206001600160a01b03861684529091529020805460ff19166001179055610f333390565b6001600160a01b0316826001600160a01b0316847f2f8788117e7eff1d82e926ec794901d17c78024a50270940304540a733656f0d60405160405180910390a4506001610454565b506000610454565b6000610f8f838361091a565b15610f7b576000838152602081815260408083206001600160a01b0386168085529252808320805460ff1916905551339286917ff6391f5c32d9c69d2a47ea670b442974b53935d1edc7fd64eb21e047a839171b9190a4506001610454565b60608160005b81518110156110575761102682828151811061101257611012611938565b01602001516001600160f81b0319166110fe565b82828151811061103857611038611938565b60200101906001600160f81b031916908160001a905350600101610ff4565b5092915050565b606081600001518260200151836040015161107c856060015161114d565b611089866080015161114d565b6110968760a0015161114d565b6040516020016110ab9695949392919061194e565b6040516020818303038152906040529050919050565b6110cb828261091a565b6110fa5760405163e2517d3f60e01b81526001600160a01b03821660048201526024810183905260440161054c565b5050565b6000604160f81b6001600160f81b031983161080159061112c5750602d60f91b6001600160f81b0319831611155b156111495761114060f883901c60206119cd565b60f81b92915050565b5090565b6060600061115a836111e0565b600101905060008167ffffffffffffffff81111561117a5761117a6112e9565b6040519080825280601f01601f1916602001820160405280156111a4576020820181803683370190505b5090508181016020015b600019016f181899199a1a9b1b9c1cb0b131b232b360811b600a86061a8153600a85049450846111ae57509392505050565b60008072184f03e93ff9f4daa797ed6e38ed64bf6a1f0160401b831061121f5772184f03e93ff9f4daa797ed6e38ed64bf6a1f0160401b830492506040015b6d04ee2d6d415b85acef8100000000831061124b576d04ee2d6d415b85acef8100000000830492506020015b662386f26fc10000831061126957662386f26fc10000830492506010015b6305f5e1008310611281576305f5e100830492506008015b612710831061129557612710830492506004015b606483106112a7576064830492506002015b600a83106104545760010192915050565b6000602082840312156112ca57600080fd5b81356001600160e01b0319811681146112e257600080fd5b9392505050565b634e487b7160e01b600052604160045260246000fd5b60405160c0810167ffffffffffffffff81118282101715611322576113226112e9565b60405290565b604051601f8201601f1916810167ffffffffffffffff81118282101715611351576113516112e9565b604052919050565b600067ffffffffffffffff821115611373576113736112e9565b50601f01601f191660200190565b60006020828403121561139357600080fd5b813567ffffffffffffffff8111156113aa57600080fd5b8201601f810184136113bb57600080fd5b80356113ce6113c982611359565b611328565b8181528560208385010111156113e357600080fd5b81602084016020830137600091810160200191909152949350505050565b60006020828403121561141357600080fd5b5035919050565b6001600160a01b0381168114610eee57600080fd5b6000806040838503121561144257600080fd5b8235915060208301356114548161141a565b809150509250929050565b60006020828403121561147157600080fd5b81356112e28161141a565b60008083601f84011261148e57600080fd5b50813567ffffffffffffffff8111156114a657600080fd5b6020830191508360208285010111156114be57600080fd5b9250929050565b8015158114610eee57600080fd5b6000806000806000608086880312156114eb57600080fd5b8535945060208601356114fd8161141a565b9350604086013567ffffffffffffffff81111561151957600080fd5b6115258882890161147c565b9094509250506060860135611539816114c5565b809150509295509295909350565b6000806000806060858703121561155d57600080fd5b84359350602085013561156f8161141a565b9250604085013567ffffffffffffffff81111561158b57600080fd5b6115978782880161147c565b95989497509550505050565b6000602082840312156115b557600080fd5b81516112e2816114c5565b6020808252602e908201527f576f726c6452656769737472793a2063616c6c6572206973206e6f742061207660408201526d30b634b2103932b3b4b9ba3930b960911b606082015260800190565b6001600160a01b03841681526040602082018190528101829052818360608301376000818301606090810191909152601f909201601f1916010192915050565b60006020828403121561166057600080fd5b81516112e28161141a565b60208082526024908201527f576f726c6452656769737472793a20776f726c64206372656174696f6e2066616040820152631a5b195960e21b606082015260800190565b60005b838110156116ca5781810151838201526020016116b2565b50506000910152565b600082601f8301126116e457600080fd5b81516116f26113c982611359565b81815284602083860101111561170757600080fd5b6117188260208301602087016116af565b949350505050565b60006020828403121561173257600080fd5b815167ffffffffffffffff81111561174957600080fd5b611718848285016116d3565b600082516117678184602087016116af565b9190910192915050565b60208082526022908201527f576f726c6452656769737472793a206e616d6520616c726561647920696e2075604082015261736560f01b606082015260800190565b6000602082840312156117c557600080fd5b815167ffffffffffffffff808211156117dd57600080fd5b9083019060c082860312156117f157600080fd5b6117f96112ff565b82518281111561180857600080fd5b611814878286016116d3565b82525060208301518281111561182957600080fd5b611835878286016116d3565b60208301525060408301518281111561184d57600080fd5b611859878286016116d3565b604083015250606083015160608201526080830151608082015260a083015160a082015280935050505092915050565b600081518084526118a18160208601602086016116af565b601f01601f19169290920160200192915050565b602081526000825160c060208401526118d160e0840182611889565b90506020840151601f19808584030160408601526118ef8383611889565b925060408601519150808584030160608601525061190d8282611889565b91505060608401516080840152608084015160a084015260a084015160c08401528091505092915050565b634e487b7160e01b600052603260045260246000fd5b6000875160206119618285838d016116af565b8851918401916119748184848d016116af565b88519201916119868184848c016116af565b87519201916119988184848b016116af565b86519201916119aa8184848a016116af565b85519201916119bc81848489016116af565b919091019998505050505050505050565b60ff818116838216019081111561045457634e487b7160e01b600052601160045260246000fdfe63bd1b4836789b043d73790415051a74ff7505ddd2ea4e9e3f425a2d5bf50a52a26469706673582212207f95529a63e9ca0efac8a8a906cce0bdf44c4d34cdc130ec5e1e0a75a10a69fc64736f6c63430008180033",
  "linkReferences": {},
  "deployedLinkReferences": {}
}