{
  "_format": "hh-sol-artifact-1",
  "contractName": "MultiAssetRegistry",
  "sourceName": "contracts/asset/MultiAssetRegistry.sol",
  "abi": [
    {
      "inputs": [
        {
          "components": [
            {
              "internalType": "address",
              "name": "mainAdmin",
              "type": "address"
            },
            {
              "internalType": "address[]",
              "name": "admins",
              "type": "address[]"
            },
            {
              "internalType": "contract IAssetRegistry[]",
              "name": "registries",
              "type": "address[]"
            }
          ],
          "internalType": "struct MultiAssetRegistryConstructorArgs",
          "name": "args",
          "type": "tuple"
        }
      ],
      "stateMutability": "nonpayable",
      "type": "constructor"
    },
    {
      "inputs": [],
      "name": "AccessControlBadConfirmation",
      "type": "error"
    },
    {
      "inputs": [
        {
          "internalType": "address",
          "name": "account",
          "type": "address"
        },
        {
          "internalType": "bytes32",
          "name": "neededRole",
          "type": "bytes32"
        }
      ],
      "name": "AccessControlUnauthorizedAccount",
      "type": "error"
    },
    {
      "anonymous": false,
      "inputs": [
        {
          "indexed": true,
          "internalType": "bytes32",
          "name": "role",
          "type": "bytes32"
        },
        {
          "indexed": true,
          "internalType": "bytes32",
          "name": "previousAdminRole",
          "type": "bytes32"
        },
        {
          "indexed": true,
          "internalType": "bytes32",
          "name": "newAdminRole",
          "type": "bytes32"
        }
      ],
      "name": "RoleAdminChanged",
      "type": "event"
    },
    {
      "anonymous": false,
      "inputs": [
        {
          "indexed": true,
          "internalType": "bytes32",
          "name": "role",
          "type": "bytes32"
        },
        {
          "indexed": true,
          "internalType": "address",
          "name": "account",
          "type": "address"
        },
        {
          "indexed": true,
          "internalType": "address",
          "name": "sender",
          "type": "address"
        }
      ],
      "name": "RoleGranted",
      "type": "event"
    },
    {
      "anonymous": false,
      "inputs": [
        {
          "indexed": true,
          "internalType": "bytes32",
          "name": "role",
          "type": "bytes32"
        },
        {
          "indexed": true,
          "internalType": "address",
          "name": "account",
          "type": "address"
        },
        {
          "indexed": true,
          "internalType": "address",
          "name": "sender",
          "type": "address"
        }
      ],
      "name": "RoleRevoked",
      "type": "event"
    },
    {
      "inputs": [],
      "name": "ADMIN_ROLE",
      "outputs": [
        {
          "internalType": "bytes32",
          "name": "",
          "type": "bytes32"
        }
      ],
      "stateMutability": "view",
      "type": "function"
    },
    {
      "inputs": [],
      "name": "DEFAULT_ADMIN_ROLE",
      "outputs": [
        {
          "internalType": "bytes32",
          "name": "",
          "type": "bytes32"
        }
      ],
      "stateMutability": "view",
      "type": "function"
    },
    {
      "inputs": [
        {
          "internalType": "bytes32",
          "name": "role",
          "type": "bytes32"
        }
      ],
      "name": "getRoleAdmin",
      "outputs": [
        {
          "internalType": "bytes32",
          "name": "",
          "type": "bytes32"
        }
      ],
      "stateMutability": "view",
      "type": "function"
    },
    {
      "inputs": [
        {
          "internalType": "bytes32",
          "name": "role",
          "type": "bytes32"
        },
        {
          "internalType": "address",
          "name": "account",
          "type": "address"
        }
      ],
      "name": "grantRole",
      "outputs": [],
      "stateMutability": "nonpayable",
      "type": "function"
    },
    {
      "inputs": [
        {
          "internalType": "bytes32",
          "name": "role",
          "type": "bytes32"
        },
        {
          "internalType": "address",
          "name": "account",
          "type": "address"
        }
      ],
      "name": "hasRole",
      "outputs": [
        {
          "internalType": "bool",
          "name": "",
          "type": "bool"
        }
      ],
      "stateMutability": "view",
      "type": "function"
    },
    {
      "inputs": [
        {
          "internalType": "address",
          "name": "asset",
          "type": "address"
        }
      ],
      "name": "isRegisteredAsset",
      "outputs": [
        {
          "internalType": "bool",
          "name": "",
          "type": "bool"
        }
      ],
      "stateMutability": "view",
      "type": "function"
    },
    {
      "inputs": [
        {
          "internalType": "contract IAssetRegistry",
          "name": "registry",
          "type": "address"
        }
      ],
      "name": "registerRegistry",
      "outputs": [],
      "stateMutability": "nonpayable",
      "type": "function"
    },
    {
      "inputs": [
        {
          "internalType": "uint256",
          "name": "",
          "type": "uint256"
        }
      ],
      "name": "registries",
      "outputs": [
        {
          "internalType": "contract IAssetRegistry",
          "name": "",
          "type": "address"
        }
      ],
      "stateMutability": "view",
      "type": "function"
    },
    {
      "inputs": [
        {
          "internalType": "bytes32",
          "name": "role",
          "type": "bytes32"
        },
        {
          "internalType": "address",
          "name": "callerConfirmation",
          "type": "address"
        }
      ],
      "name": "renounceRole",
      "outputs": [],
      "stateMutability": "nonpayable",
      "type": "function"
    },
    {
      "inputs": [
        {
          "internalType": "bytes32",
          "name": "role",
          "type": "bytes32"
        },
        {
          "internalType": "address",
          "name": "account",
          "type": "address"
        }
      ],
      "name": "revokeRole",
      "outputs": [],
      "stateMutability": "nonpayable",
      "type": "function"
    },
    {
      "inputs": [
        {
          "internalType": "bytes4",
          "name": "interfaceId",
          "type": "bytes4"
        }
      ],
      "name": "supportsInterface",
      "outputs": [
        {
          "internalType": "bool",
          "name": "",
          "type": "bool"
        }
      ],
      "stateMutability": "view",
      "type": "function"
    }
  ],
  "bytecode": "0x60806040523480156200001157600080fd5b5060405162000e2d38038062000e2d833981016040819052620000349162000585565b80516001600160a01b0316620000ab5760405162461bcd60e51b815260206004820152603160248201527f4d756c7469417373657452656769737472793a206d61696e41646d696e20697360448201527020746865207a65726f206164647265737360781b60648201526084015b60405180910390fd5b600081602001515111620001025760405162461bcd60e51b815260206004820152601d60248201527f4d756c7469417373657452656769737472793a206e6f2061646d696e730000006044820152606401620000a2565b600081604001515111620001635760405162461bcd60e51b815260206004820152602160248201527f4d756c7469417373657452656769737472793a206e6f207265676973747269656044820152607360f81b6064820152608401620000a2565b80516200017390600090620003a1565b508051620001929060008051602062000e0d83398151915290620003a1565b5060005b816020015151811015620002895760006001600160a01b031682602001518281518110620001c857620001c86200069a565b60200260200101516001600160a01b0316036200023e5760405162461bcd60e51b815260206004820152602d60248201527f4d756c7469417373657452656769737472793a2061646d696e2069732074686560448201526c207a65726f206164647265737360981b6064820152608401620000a2565b6200027f60008051602062000e0d833981519152836020015183815181106200026b576200026b6200069a565b6020026020010151620003a160201b60201c565b5060010162000196565b5060005b816040015151811015620003995760006001600160a01b031682604001518281518110620002bf57620002bf6200069a565b60200260200101516001600160a01b031603620003385760405162461bcd60e51b815260206004820152603060248201527f4d756c7469417373657452656769737472793a2072656769737472792069732060448201526f746865207a65726f206164647265737360801b6064820152608401620000a2565b6001826040015182815181106200035357620003536200069a565b60209081029190910181015182546001808201855560009485529290932090920180546001600160a01b0319166001600160a01b0390931692909217909155016200028d565b5050620006b0565b6000828152602081815260408083206001600160a01b038516845290915281205460ff1662000446576000838152602081815260408083206001600160a01b03861684529091529020805460ff19166001179055620003fd3390565b6001600160a01b0316826001600160a01b0316847f2f8788117e7eff1d82e926ec794901d17c78024a50270940304540a733656f0d60405160405180910390a45060016200044a565b5060005b92915050565b634e487b7160e01b600052604160045260246000fd5b604051606081016001600160401b03811182821017156200048b576200048b62000450565b60405290565b604051601f8201601f191681016001600160401b0381118282101715620004bc57620004bc62000450565b604052919050565b6001600160a01b0381168114620004da57600080fd5b50565b60006001600160401b03821115620004f957620004f962000450565b5060051b60200190565b600082601f8301126200051557600080fd5b815160206200052e6200052883620004dd565b62000491565b8083825260208201915060208460051b8701019350868411156200055157600080fd5b602086015b848110156200057a5780516200056c81620004c4565b835291830191830162000556565b509695505050505050565b600060208083850312156200059957600080fd5b82516001600160401b0380821115620005b157600080fd5b9084019060608287031215620005c657600080fd5b620005d062000466565b8251620005dd81620004c4565b81528284015182811115620005f157600080fd5b8301601f810188136200060357600080fd5b8051620006146200052882620004dd565b81815260059190911b8201860190868101908a8311156200063457600080fd5b928701925b828410156200065f5783516200064f81620004c4565b8252928701929087019062000639565b80888601525050505060408301519350818411156200067d57600080fd5b6200068b8785850162000503565b60408201529695505050505050565b634e487b7160e01b600052603260045260246000fd5b61074d80620006c06000396000f3fe608060405234801561001057600080fd5b50600436106100a95760003560e01c806375b238fc1161007157806375b238fc1461015a57806379bea29e1461018157806391d1485414610194578063a217fddf146101a7578063adec5618146101af578063d547741f146101c257600080fd5b806301ffc9a7146100ae578063248a9ca3146100d65780632f2ff15d1461010757806336568abe1461011c5780636347c9001461012f575b600080fd5b6100c16100bc366004610633565b6101d5565b60405190151581526020015b60405180910390f35b6100f96100e4366004610664565b60009081526020819052604090206001015490565b6040519081526020016100cd565b61011a610115366004610692565b61020c565b005b61011a61012a366004610692565b610237565b61014261013d366004610664565b61026f565b6040516001600160a01b0390911681526020016100cd565b6100f97fa49807205ce4d355092ef5a8a18f56e8913cf4a201fbe287825b095693c2177581565b61011a61018f3660046106c2565b610299565b6100c16101a2366004610692565b6103e7565b6100f9600081565b6100c16101bd3660046106c2565b610410565b61011a6101d0366004610692565b6104c7565b60006001600160e01b03198216637965db0b60e01b148061020657506301ffc9a760e01b6001600160e01b03198316145b92915050565b600082815260208190526040902060010154610227816104ec565b61023183836104f9565b50505050565b6001600160a01b03811633146102605760405163334bd91960e11b815260040160405180910390fd5b61026a828261058b565b505050565b6001818154811061027f57600080fd5b6000918252602090912001546001600160a01b0316905081565b6102c37fa49807205ce4d355092ef5a8a18f56e8913cf4a201fbe287825b095693c21775336103e7565b6103275760405162461bcd60e51b815260206004820152602a60248201527f4d756c7469417373657452656769737472793a2063616c6c6572206973206e6f6044820152693a1030b71030b236b4b760b11b60648201526084015b60405180910390fd5b6001600160a01b0381166103965760405162461bcd60e51b815260206004820152603060248201527f4d756c7469417373657452656769737472793a2072656769737472792069732060448201526f746865207a65726f206164647265737360801b606482015260840161031e565b6001805480820182556000919091527fb10e2d527612073b26eecdfd717e6a320cf44b4afac2b0732d9fcbe2b7fa0cf60180546001600160a01b0319166001600160a01b0392909216919091179055565b6000918252602082815260408084206001600160a01b0393909316845291905290205460ff1690565b6000805b6001548110156104be5760018181548110610431576104316106df565b6000918252602090912001546040516315bd8ac360e31b81526001600160a01b0385811660048301529091169063adec561890602401602060405180830381865afa158015610484573d6000803e3d6000fd5b505050506040513d601f19601f820116820180604052508101906104a891906106f5565b156104b65750600192915050565b600101610414565b50600092915050565b6000828152602081905260409020600101546104e2816104ec565b610231838361058b565b6104f681336105f6565b50565b600061050583836103e7565b610583576000838152602081815260408083206001600160a01b03861684529091529020805460ff1916600117905561053b3390565b6001600160a01b0316826001600160a01b0316847f2f8788117e7eff1d82e926ec794901d17c78024a50270940304540a733656f0d60405160405180910390a4506001610206565b506000610206565b600061059783836103e7565b15610583576000838152602081815260408083206001600160a01b0386168085529252808320805460ff1916905551339286917ff6391f5c32d9c69d2a47ea670b442974b53935d1edc7fd64eb21e047a839171b9190a4506001610206565b61060082826103e7565b61062f5760405163e2517d3f60e01b81526001600160a01b03821660048201526024810183905260440161031e565b5050565b60006020828403121561064557600080fd5b81356001600160e01b03198116811461065d57600080fd5b9392505050565b60006020828403121561067657600080fd5b5035919050565b6001600160a01b03811681146104f657600080fd5b600080604083850312156106a557600080fd5b8235915060208301356106b78161067d565b809150509250929050565b6000602082840312156106d457600080fd5b813561065d8161067d565b634e487b7160e01b600052603260045260246000fd5b60006020828403121561070757600080fd5b8151801515811461065d57600080fdfea2646970667358221220fa6294827c4b83e51c10a37936ebb803d2f5ed4ec36b641abe5b1dcf900589eb64736f6c63430008180033a49807205ce4d355092ef5a8a18f56e8913cf4a201fbe287825b095693c21775",
  "linkReferences": {},
  "deployedLinkReferences": {}
}