{
  "_format": "hh-sol-artifact-1",
  "contractName": "PortalRegistry",
  "sourceName": "contracts/portal/PortalRegistry.sol",
  "abi": [
    {
      "inputs": [
        {
          "internalType": "address",
          "name": "mainAdmin",
          "type": "address"
        },
        {
          "internalType": "address[]",
          "name": "admins",
          "type": "address[]"
        }
      ],
      "stateMutability": "nonpayable",
      "type": "constructor"
    },
    {
      "inputs": [],
      "name": "AccessControlBadConfirmation",
      "type": "error"
    },
    {
      "inputs": [
        {
          "internalType": "address",
          "name": "account",
          "type": "address"
        },
        {
          "internalType": "bytes32",
          "name": "neededRole",
          "type": "bytes32"
        }
      ],
      "name": "AccessControlUnauthorizedAccount",
      "type": "error"
    },
    {
      "anonymous": false,
      "inputs": [
        {
          "indexed": true,
          "internalType": "uint256",
          "name": "portalId",
          "type": "uint256"
        },
        {
          "indexed": true,
          "internalType": "address",
          "name": "avatar",
          "type": "address"
        },
        {
          "indexed": true,
          "internalType": "address",
          "name": "destination",
          "type": "address"
        }
      ],
      "name": "JumpSuccessful",
      "type": "event"
    },
    {
      "anonymous": false,
      "inputs": [
        {
          "indexed": true,
          "internalType": "uint256",
          "name": "portalId",
          "type": "uint256"
        },
        {
          "indexed": true,
          "internalType": "address",
          "name": "experience",
          "type": "address"
        }
      ],
      "name": "PortalAdded",
      "type": "event"
    },
    {
      "anonymous": false,
      "inputs": [
        {
          "indexed": true,
          "internalType": "uint256",
          "name": "portalId",
          "type": "uint256"
        },
        {
          "indexed": true,
          "internalType": "address",
          "name": "condition",
          "type": "address"
        }
      ],
      "name": "PortalConditionAdded",
      "type": "event"
    },
    {
      "anonymous": false,
      "inputs": [
        {
          "indexed": true,
          "internalType": "uint256",
          "name": "portalId",
          "type": "uint256"
        }
      ],
      "name": "PortalConditionRemoved",
      "type": "event"
    },
    {
      "anonymous": false,
      "inputs": [
        {
          "indexed": false,
          "internalType": "uint256",
          "name": "portalId",
          "type": "uint256"
        },
        {
          "indexed": false,
          "internalType": "address",
          "name": "oldExperience",
          "type": "address"
        },
        {
          "indexed": false,
          "internalType": "address",
          "name": "newExperience",
          "type": "address"
        }
      ],
      "name": "PortalDestinationUpgraded",
      "type": "event"
    },
    {
      "anonymous": false,
      "inputs": [
        {
          "indexed": false,
          "internalType": "uint256",
          "name": "portalId",
          "type": "uint256"
        },
        {
          "indexed": false,
          "internalType": "uint256",
          "name": "newFee",
          "type": "uint256"
        }
      ],
      "name": "PortalFeeChanged",
      "type": "event"
    },
    {
      "anonymous": false,
      "inputs": [
        {
          "indexed": false,
          "internalType": "address",
          "name": "newRegistry",
          "type": "address"
        }
      ],
      "name": "PortalRegistryUpgraded",
      "type": "event"
    },
    {
      "anonymous": false,
      "inputs": [
        {
          "indexed": true,
          "internalType": "uint256",
          "name": "portalId",
          "type": "uint256"
        },
        {
          "indexed": true,
          "internalType": "address",
          "name": "experience",
          "type": "address"
        }
      ],
      "name": "PortalRemoved",
      "type": "event"
    },
    {
      "anonymous": false,
      "inputs": [
        {
          "indexed": true,
          "internalType": "bytes32",
          "name": "role",
          "type": "bytes32"
        },
        {
          "indexed": true,
          "internalType": "bytes32",
          "name": "previousAdminRole",
          "type": "bytes32"
        },
        {
          "indexed": true,
          "internalType": "bytes32",
          "name": "newAdminRole",
          "type": "bytes32"
        }
      ],
      "name": "RoleAdminChanged",
      "type": "event"
    },
    {
      "anonymous": false,
      "inputs": [
        {
          "indexed": true,
          "internalType": "bytes32",
          "name": "role",
          "type": "bytes32"
        },
        {
          "indexed": true,
          "internalType": "address",
          "name": "account",
          "type": "address"
        },
        {
          "indexed": true,
          "internalType": "address",
          "name": "sender",
          "type": "address"
        }
      ],
      "name": "RoleGranted",
      "type": "event"
    },
    {
      "anonymous": false,
      "inputs": [
        {
          "indexed": true,
          "internalType": "bytes32",
          "name": "role",
          "type": "bytes32"
        },
        {
          "indexed": true,
          "internalType": "address",
          "name": "account",
          "type": "address"
        },
        {
          "indexed": true,
          "internalType": "address",
          "name": "sender",
          "type": "address"
        }
      ],
      "name": "RoleRevoked",
      "type": "event"
    },
    {
      "inputs": [],
      "name": "ADMIN_ROLE",
      "outputs": [
        {
          "internalType": "bytes32",
          "name": "",
          "type": "bytes32"
        }
      ],
      "stateMutability": "view",
      "type": "function"
    },
    {
      "inputs": [],
      "name": "DEFAULT_ADMIN_ROLE",
      "outputs": [
        {
          "internalType": "bytes32",
          "name": "",
          "type": "bytes32"
        }
      ],
      "stateMutability": "view",
      "type": "function"
    },
    {
      "inputs": [
        {
          "internalType": "contract IPortalCondition",
          "name": "condition",
          "type": "address"
        }
      ],
      "name": "addCondition",
      "outputs": [],
      "stateMutability": "nonpayable",
      "type": "function"
    },
    {
      "inputs": [
        {
          "components": [
            {
              "internalType": "contract IExperience",
              "name": "destination",
              "type": "address"
            },
            {
              "internalType": "uint256",
              "name": "fee",
              "type": "uint256"
            }
          ],
          "internalType": "struct AddPortalRequest",
          "name": "req",
          "type": "tuple"
        }
      ],
      "name": "addPortal",
      "outputs": [
        {
          "internalType": "uint256",
          "name": "",
          "type": "uint256"
        }
      ],
      "stateMutability": "nonpayable",
      "type": "function"
    },
    {
      "inputs": [],
      "name": "avatarRegistry",
      "outputs": [
        {
          "internalType": "contract IAvatarRegistry",
          "name": "",
          "type": "address"
        }
      ],
      "stateMutability": "view",
      "type": "function"
    },
    {
      "inputs": [
        {
          "internalType": "uint256",
          "name": "newFee",
          "type": "uint256"
        }
      ],
      "name": "changePortalFee",
      "outputs": [],
      "stateMutability": "nonpayable",
      "type": "function"
    },
    {
      "inputs": [],
      "name": "experienceRegistry",
      "outputs": [
        {
          "internalType": "address",
          "name": "",
          "type": "address"
        }
      ],
      "stateMutability": "view",
      "type": "function"
    },
    {
      "inputs": [
        {
          "internalType": "address",
          "name": "experience",
          "type": "address"
        }
      ],
      "name": "getIdForExperience",
      "outputs": [
        {
          "internalType": "uint256",
          "name": "",
          "type": "uint256"
        }
      ],
      "stateMutability": "view",
      "type": "function"
    },
    {
      "inputs": [
        {
          "components": [
            {
              "internalType": "string",
              "name": "x",
              "type": "string"
            },
            {
              "internalType": "string",
              "name": "y",
              "type": "string"
            },
            {
              "internalType": "string",
              "name": "z",
              "type": "string"
            },
            {
              "internalType": "uint256",
              "name": "t",
              "type": "uint256"
            },
            {
              "internalType": "uint256",
              "name": "p",
              "type": "uint256"
            },
            {
              "internalType": "uint256",
              "name": "p_sub",
              "type": "uint256"
            }
          ],
          "internalType": "struct VectorAddress",
          "name": "va",
          "type": "tuple"
        }
      ],
      "name": "getIdForVectorAddress",
      "outputs": [
        {
          "internalType": "uint256",
          "name": "",
          "type": "uint256"
        }
      ],
      "stateMutability": "view",
      "type": "function"
    },
    {
      "inputs": [
        {
          "internalType": "address",
          "name": "experience",
          "type": "address"
        }
      ],
      "name": "getPortalInfoByAddress",
      "outputs": [
        {
          "components": [
            {
              "internalType": "contract IExperience",
              "name": "destination",
              "type": "address"
            },
            {
              "internalType": "contract IPortalCondition",
              "name": "condition",
              "type": "address"
            },
            {
              "internalType": "uint256",
              "name": "fee",
              "type": "uint256"
            },
            {
              "internalType": "bool",
              "name": "active",
              "type": "bool"
            }
          ],
          "internalType": "struct PortalInfo",
          "name": "",
          "type": "tuple"
        }
      ],
      "stateMutability": "view",
      "type": "function"
    },
    {
      "inputs": [
        {
          "internalType": "uint256",
          "name": "portalId",
          "type": "uint256"
        }
      ],
      "name": "getPortalInfoById",
      "outputs": [
        {
          "components": [
            {
              "internalType": "contract IExperience",
              "name": "destination",
              "type": "address"
            },
            {
              "internalType": "contract IPortalCondition",
              "name": "condition",
              "type": "address"
            },
            {
              "internalType": "uint256",
              "name": "fee",
              "type": "uint256"
            },
            {
              "internalType": "bool",
              "name": "active",
              "type": "bool"
            }
          ],
          "internalType": "struct PortalInfo",
          "name": "",
          "type": "tuple"
        }
      ],
      "stateMutability": "view",
      "type": "function"
    },
    {
      "inputs": [
        {
          "components": [
            {
              "internalType": "string",
              "name": "x",
              "type": "string"
            },
            {
              "internalType": "string",
              "name": "y",
              "type": "string"
            },
            {
              "internalType": "string",
              "name": "z",
              "type": "string"
            },
            {
              "internalType": "uint256",
              "name": "t",
              "type": "uint256"
            },
            {
              "internalType": "uint256",
              "name": "p",
              "type": "uint256"
            },
            {
              "internalType": "uint256",
              "name": "p_sub",
              "type": "uint256"
            }
          ],
          "internalType": "struct VectorAddress",
          "name": "va",
          "type": "tuple"
        }
      ],
      "name": "getPortalInfoByVectorAddress",
      "outputs": [
        {
          "components": [
            {
              "internalType": "contract IExperience",
              "name": "destination",
              "type": "address"
            },
            {
              "internalType": "contract IPortalCondition",
              "name": "condition",
              "type": "address"
            },
            {
              "internalType": "uint256",
              "name": "fee",
              "type": "uint256"
            },
            {
              "internalType": "bool",
              "name": "active",
              "type": "bool"
            }
          ],
          "internalType": "struct PortalInfo",
          "name": "",
          "type": "tuple"
        }
      ],
      "stateMutability": "view",
      "type": "function"
    },
    {
      "inputs": [
        {
          "internalType": "bytes32",
          "name": "role",
          "type": "bytes32"
        }
      ],
      "name": "getRoleAdmin",
      "outputs": [
        {
          "internalType": "bytes32",
          "name": "",
          "type": "bytes32"
        }
      ],
      "stateMutability": "view",
      "type": "function"
    },
    {
      "inputs": [
        {
          "internalType": "bytes32",
          "name": "role",
          "type": "bytes32"
        },
        {
          "internalType": "address",
          "name": "account",
          "type": "address"
        }
      ],
      "name": "grantRole",
      "outputs": [],
      "stateMutability": "nonpayable",
      "type": "function"
    },
    {
      "inputs": [
        {
          "internalType": "bytes32",
          "name": "role",
          "type": "bytes32"
        },
        {
          "internalType": "address",
          "name": "account",
          "type": "address"
        }
      ],
      "name": "hasRole",
      "outputs": [
        {
          "internalType": "bool",
          "name": "",
          "type": "bool"
        }
      ],
      "stateMutability": "view",
      "type": "function"
    },
    {
      "inputs": [
        {
          "internalType": "uint256",
          "name": "portalId",
          "type": "uint256"
        }
      ],
      "name": "jumpRequest",
      "outputs": [
        {
          "internalType": "bytes",
          "name": "",
          "type": "bytes"
        }
      ],
      "stateMutability": "payable",
      "type": "function"
    },
    {
      "inputs": [],
      "name": "removeCondition",
      "outputs": [],
      "stateMutability": "nonpayable",
      "type": "function"
    },
    {
      "inputs": [
        {
          "internalType": "uint256",
          "name": "portalId",
          "type": "uint256"
        }
      ],
      "name": "removePortal",
      "outputs": [],
      "stateMutability": "nonpayable",
      "type": "function"
    },
    {
      "inputs": [
        {
          "internalType": "bytes32",
          "name": "role",
          "type": "bytes32"
        },
        {
          "internalType": "address",
          "name": "callerConfirmation",
          "type": "address"
        }
      ],
      "name": "renounceRole",
      "outputs": [],
      "stateMutability": "nonpayable",
      "type": "function"
    },
    {
      "inputs": [
        {
          "internalType": "bytes32",
          "name": "role",
          "type": "bytes32"
        },
        {
          "internalType": "address",
          "name": "account",
          "type": "address"
        }
      ],
      "name": "revokeRole",
      "outputs": [],
      "stateMutability": "nonpayable",
      "type": "function"
    },
    {
      "inputs": [
        {
          "internalType": "address",
          "name": "registry",
          "type": "address"
        }
      ],
      "name": "setAvatarRegistry",
      "outputs": [],
      "stateMutability": "nonpayable",
      "type": "function"
    },
    {
      "inputs": [
        {
          "internalType": "address",
          "name": "registry",
          "type": "address"
        }
      ],
      "name": "setExperienceRegistry",
      "outputs": [],
      "stateMutability": "nonpayable",
      "type": "function"
    },
    {
      "inputs": [
        {
          "internalType": "bytes4",
          "name": "interfaceId",
          "type": "bytes4"
        }
      ],
      "name": "supportsInterface",
      "outputs": [
        {
          "internalType": "bool",
          "name": "",
          "type": "bool"
        }
      ],
      "stateMutability": "view",
      "type": "function"
    },
    {
      "inputs": [
        {
          "internalType": "address",
          "name": "oldExperience",
          "type": "address"
        },
        {
          "internalType": "address",
          "name": "newExperience",
          "type": "address"
        }
      ],
      "name": "upgradeExperiencePortal",
      "outputs": [],
      "stateMutability": "nonpayable",
      "type": "function"
    },
    {
      "stateMutability": "payable",
      "type": "receive"
    }
  ],
  "bytecode": "0x60806040523480156200001157600080fd5b506040516200288c3803806200288c8339810160408190526200003491620002a2565b6001600160a01b038216620000a75760405162461bcd60e51b815260206004820152602e60248201527f506f7274616c52656769737472793a206d61696e2061646d696e20616464726560448201526d073732063616e6e6f7420626520360941b60648201526084015b60405180910390fd5b620000b4600083620001c0565b50620000d06000805160206200286c83398151915283620001c0565b5060005b8151811015620001b75760006001600160a01b0316828281518110620000fe57620000fe6200038b565b60200260200101516001600160a01b031603620001705760405162461bcd60e51b815260206004820152602960248201527f506f7274616c52656769737472793a2061646d696e206164647265737320636160448201526806e6e6f7420626520360bc1b60648201526084016200009e565b620001ad6000805160206200286c8339815191528383815181106200019957620001996200038b565b6020026020010151620001c060201b60201c565b50600101620000d4565b505050620003a1565b6000828152602081815260408083206001600160a01b038516845290915281205460ff1662000265576000838152602081815260408083206001600160a01b03861684529091529020805460ff191660011790556200021c3390565b6001600160a01b0316826001600160a01b0316847f2f8788117e7eff1d82e926ec794901d17c78024a50270940304540a733656f0d60405160405180910390a450600162000269565b5060005b92915050565b80516001600160a01b03811681146200028757600080fd5b919050565b634e487b7160e01b600052604160045260246000fd5b60008060408385031215620002b657600080fd5b620002c1836200026f565b602084810151919350906001600160401b0380821115620002e157600080fd5b818601915086601f830112620002f657600080fd5b8151818111156200030b576200030b6200028c565b8060051b604051601f19603f830116810181811085821117156200033357620003336200028c565b6040529182528482019250838101850191898311156200035257600080fd5b938501935b828510156200037b576200036b856200026f565b8452938501939285019262000357565b8096505050505050509250929050565b634e487b7160e01b600052603260045260246000fd5b6124bb80620003b16000396000f3fe60806040526004361061014f5760003560e01c80637e6e0602116100b6578063a6c075d41161006f578063a6c075d4146104b1578063aa7ff6b7146104d1578063b8e7d08314610568578063c512205c14610588578063d547741f146105a8578063e3d7ad73146105c857600080fd5b80637e6e0602146103e457806383c342631461040457806384c4484e146104245780638f09a6be1461044457806391d148541461047c578063a217fddf1461049c57600080fd5b8063288b568411610108578063288b5684146102885780632f2ff15d1461031a57806336568abe1461033a5780633b19e8801461035a5780633c3f5ff41461039057806375b238fc146103b057600080fd5b806301ffc9a71461015b578063021665b714610190578063102ea6ae146101a7578063194663891461020a57806322d3493214610238578063248a9ca31461025857600080fd5b3661015657005b600080fd5b34801561016757600080fd5b5061017b610176366004611d7f565b6105e8565b60405190151581526020015b60405180910390f35b34801561019c57600080fd5b506101a561061f565b005b3480156101b357600080fd5b506101c76101c2366004611e97565b6106b4565b604051610187919081516001600160a01b039081168252602080840151909116908201526040808301519082015260609182015115159181019190915260800190565b34801561021657600080fd5b5061022a610225366004611e97565b610762565b604051908152602001610187565b34801561024457600080fd5b506101a5610253366004611f82565b6107aa565b34801561026457600080fd5b5061022a610273366004611f9f565b60009081526020819052604090206001015490565b34801561029457600080fd5b506101c76102a3366004611f9f565b60408051608081018252600080825260208201819052918101829052606081019190915250600090815260036020818152604092839020835160808101855281546001600160a01b0390811682526001830154169281019290925260028101549382019390935291015460ff161515606082015290565b34801561032657600080fd5b506101a5610335366004611fb8565b61090f565b34801561034657600080fd5b506101a5610355366004611fb8565b61093a565b34801561036657600080fd5b5061022a610375366004611f82565b6001600160a01b031660009081526005602052604090205490565b34801561039c57600080fd5b5061022a6103ab366004611fe8565b610972565b3480156103bc57600080fd5b5061022a7fa49807205ce4d355092ef5a8a18f56e8913cf4a201fbe287825b095693c2177581565b3480156103f057600080fd5b506101a56103ff366004611f82565b610bdc565b34801561041057600080fd5b506101a561041f366004611f9f565b610c4f565b610437610432366004611f9f565b610cdf565b6040516101879190612090565b34801561045057600080fd5b50600154610464906001600160a01b031681565b6040516001600160a01b039091168152602001610187565b34801561048857600080fd5b5061017b610497366004611fb8565b6110db565b3480156104a857600080fd5b5061022a600081565b3480156104bd57600080fd5b506101a56104cc3660046120a3565b611104565b3480156104dd57600080fd5b506101c76104ec366004611f82565b60408051608080820183526000808352602080840182905283850182905260609384018290526001600160a01b0395861682526005815284822054825260038082529185902085519384018652805487168452600181015490961690830152600285015493820193909352929091015460ff1615159082015290565b34801561057457600080fd5b506101a5610583366004611f9f565b611250565b34801561059457600080fd5b506101a56105a3366004611f82565b61135f565b3480156105b457600080fd5b506101a56105c3366004611fb8565b6113d2565b3480156105d457600080fd5b50600254610464906001600160a01b031681565b60006001600160e01b03198216637965db0b60e01b148061061957506301ffc9a760e01b6001600160e01b03198316145b92915050565b33600090815260056020526040812054908190036106585760405162461bcd60e51b815260040161064f906120d1565b60405180910390fd5b33600090815260056020908152604080832054808452600390925280832060010180546001600160a01b031916905551909182917f2e3f0e8f6904984244368dfff28046157a23abf558feb664bf3727766cbd200c9190a25050565b6040805160808101825260008082526020820181905291810182905260608101829052906106e1836113f7565b6040516020016106f19190612090565b60408051601f19818403018152828252805160209182012060009081526004825282812054815260038083529083902060808501845280546001600160a01b03908116865260018201541692850192909252600282015492840192909252015460ff16151560608201529392505050565b60008061076e836113f7565b60405160200161077e9190612090565b60408051601f198184030181529181528151602092830120600090815260049092529020549392505050565b33600090815260056020526040812054908190036107da5760405162461bcd60e51b815260040161064f906120d1565b6001600160a01b0382166108465760405162461bcd60e51b815260206004820152602d60248201527f506f7274616c52656769737472793a20636f6e646974696f6e2061646472657360448201526c0732063616e6e6f74206265203609c1b606482015260840161064f565b33600090815260056020526040812054908190036108b25760405162461bcd60e51b8152602060048201526024808201527f506f7274616c52656769737472793a20657870657269656e6365206e6f7420666044820152631bdd5b9960e21b606482015260840161064f565b60008181526003602052604080822060010180546001600160a01b0319166001600160a01b0387169081179091559051909183917f50dc6bddd2ee7ed8c2f3a3bc6b995160e945bffd902a4135fccbe2fadbb332099190a3505050565b60008281526020819052604090206001015461092a8161145a565b6109348383611467565b50505050565b6001600160a01b03811633146109635760405163334bd91960e11b815260040160405180910390fd5b61096d82826114f9565b505050565b6001546000906001600160a01b031661099d5760405162461bcd60e51b815260040161064f90612126565b6001546001600160a01b031633146109c75760405162461bcd60e51b815260040161064f90612171565b600082600001516001600160a01b0316632fcbab9a6040518163ffffffff1660e01b8152600401600060405180830381865afa158015610a0b573d6000803e3d6000fd5b505050506040513d6000823e601f3d908101601f19168201604052610a339190810190612216565b90506000610a40826113f7565b604051602001610a509190612090565b60408051601f1981840301815291815281516020928301206000818152600490935291205490915015610aeb5760405162461bcd60e51b815260206004820152603d60248201527f506f7274616c52656769737472793a20706f7274616c20616c7265616479206560448201527f786973747320666f72207468697320766563746f722061646472657373000000606482015260840161064f565b600660008154610afa90612302565b90915550600654600082815260046020908152604080832084905587516001600160a01b0390811684526005835281842085905581516080810183528951821681528084018581528a850151828501908152600160608401818152898952600397889052868920945185549087166001600160a01b0319918216178655935191850180549287169290941691909117909255516002830155519301805493151560ff19909416939093179092558751905191169183917f991e8a89cc0b450dd18d7845eb5952690d2e9b8edb3624d5f5b929f3260782989190a3949350505050565b7fa49807205ce4d355092ef5a8a18f56e8913cf4a201fbe287825b095693c21775610c068161145a565b6001600160a01b038216610c2c5760405162461bcd60e51b815260040161064f9061231b565b50600180546001600160a01b0319166001600160a01b0392909216919091179055565b3360009081526005602052604081205490819003610c7f5760405162461bcd60e51b815260040161064f906120d1565b33600090815260056020908152604080832054808452600383529281902060020185905580518381529182018590527fc45b50c704f83a591e64a45d94b4e274cc467d15386c75d56bef687efe5aea4a91015b60405180910390a1505050565b6002546060906001600160a01b0316610d4a5760405162461bcd60e51b815260206004820152602760248201527f506f7274616c52656769737472793a20617661746172207265676973747279206044820152661b9bdd081cd95d60ca1b606482015260840161064f565b600254604051632b0fe8e760e21b81523360048201526001600160a01b039091169063ac3fa39c90602401602060405180830381865afa158015610d92573d6000803e3d6000fd5b505050506040513d601f19601f82011682018060405250810190610db69190612363565b610e135760405162461bcd60e51b815260206004820152602860248201527f506f7274616c52656769737472793a2063616c6c6572206d7573742062652061604482015267371030bb30ba30b960c11b606482015260840161064f565b6000610e1e83611564565b60e0810151602001519091506001600160a01b031615610f3f5760e08101516020908101519082015160408084015160608501518551925163f610c1d560e01b81526001600160a01b039485166004820152918416602483015283166044820152908216606482015233608482015291169063f610c1d59060a4016020604051808303816000875af1158015610eb8573d6000803e3d6000fd5b505050506040513d601f19601f82011682018060405250810190610edc9190612363565b610f3f5760405162461bcd60e51b815260206004820152602e60248201527f506f7274616c52656769737472793a20706f7274616c206a756d7020636f6e6460448201526d1a5d1a5bdb9cc81b9bdd081b595d60921b606482015260840161064f565b60e0810151604001511561101a578060e0015160400151341015610fcb5760405162461bcd60e51b815260206004820152603960248201527f506f7274616c52656769737472793a20496e73756666696369656e742066656560448201527f20617474616368656420746f206a756d70207265717565737400000000000000606482015260840161064f565b60008160e001516040015134610fe19190612385565b9050801561101857604051339082156108fc029083906000818181858888f19350505050158015611016573d6000803e3d6000fd5b505b505b60208082015160e0830151604090810151815160608082018452838701516001600160a01b0390811683529087015181169582019586523382850190815293516354cc5a0b60e01b815291518116600483015294518516602482015291518416604483015292909116916354cc5a0b9160640160006040518083038185885af11580156110ab573d6000803e3d6000fd5b50505050506040513d6000823e601f3d908101601f191682016040526110d49190810190612398565b9392505050565b6000918252602082815260408084206001600160a01b0393909316845291905290205460ff1690565b6001546001600160a01b031661112c5760405162461bcd60e51b815260040161064f90612126565b6001546001600160a01b031633146111565760405162461bcd60e51b815260040161064f90612171565b6001600160a01b038216600090815260056020526040812054908190036111d05760405162461bcd60e51b815260206004820152602860248201527f506f7274616c52656769737472793a206f6c6420657870657269656e6365206e6044820152671bdd08199bdd5b9960c21b606482015260840161064f565b6001600160a01b038281166000818152600560209081526040808320869055938716808352848320839055858352600382529184902080546001600160a01b03191684179055835185815290810191909152918201527f9a2d918555b7a5bdb899957e6683ff4e9c81b8a671ca77d3d0ad0ee78343def790606001610cd2565b6001546001600160a01b03166112785760405162461bcd60e51b815260040161064f90612126565b6001546001600160a01b031633146112a25760405162461bcd60e51b815260040161064f90612171565b600081815260036020526040902080546001600160a01b03166113075760405162461bcd60e51b815260206004820181905260248201527f506f7274616c52656769737472793a20706f7274616c206e6f7420666f756e64604482015260640161064f565b80546000838152600360208190526040808320909101805460ff19169055516001600160a01b0390921691829185917f13b77dc007846286ed9dd4847c263cbd6da1b4579576af86d89c0f5503f2b4219190a3505050565b7fa49807205ce4d355092ef5a8a18f56e8913cf4a201fbe287825b095693c217756113898161145a565b6001600160a01b0382166113af5760405162461bcd60e51b815260040161064f9061231b565b50600280546001600160a01b0319166001600160a01b0392909216919091179055565b6000828152602081905260409020600101546113ed8161145a565b61093483836114f9565b60608160000151826020015183604001516114158560600151611bd7565b6114228660800151611bd7565b61142f8760a00151611bd7565b604051602001611444969594939291906123e9565b6040516020818303038152906040529050919050565b6114648133611c6a565b50565b600061147383836110db565b6114f1576000838152602081815260408083206001600160a01b03861684529091529020805460ff191660011790556114a93390565b6001600160a01b0316826001600160a01b0316847f2f8788117e7eff1d82e926ec794901d17c78024a50270940304540a733656f0d60405160405180910390a4506001610619565b506000610619565b600061150583836110db565b156114f1576000838152602081815260408083206001600160a01b0386168085529252808320805460ff1916905551339286917ff6391f5c32d9c69d2a47ea670b442974b53935d1edc7fd64eb21e047a839171b9190a4506001610619565b6040805161010081018252600080825260208083018290528284018290526060808401839052608080850184905260a085018490528551808201875284815280840185905280870185905280830185905260c08601528551908101865283815280830184905280860184905290810183905260e084015283516328b793cf60e11b8152935192933393849263516f279e92600480820193918290030181865afa158015611615573d6000803e3d6000fd5b505050506040513d601f19601f820116820180604052508101906116399190612468565b90506001600160a01b0381166116ab5760405162461bcd60e51b815260206004820152603160248201527f506f7274616c52656769737472793a20617661746172206973206e6f7420696e6044820152701030903b30b634b2103637b1b0ba34b7b760791b606482015260840161064f565b6001600160a01b038116600090815260056020526040812054908190036117445760405162461bcd60e51b815260206004820152604160248201527f506f7274616c52656769737472793a206e6f20706f7274616c20666f756e642060448201527f666f72207468652061766174617227732063757272656e74206c6f636174696f6064820152603760f91b608482015260a40161064f565b8481036117ae5760405162461bcd60e51b815260206004820152603260248201527f506f7274616c52656769737472793a2063616e6e6f74206a756d7020746f207460448201527168652073616d6520657870657269656e636560701b606482015260840161064f565b600081815260036020526040902080546001600160a01b031661183b576040805162461bcd60e51b81526020600482015260248101919091527f506f7274616c52656769737472793a20636f756c64206e6f74206d617020637560448201527f7272656e74206c6f636174696f6e20746f20612076616c696420706f7274616c606482015260840161064f565b60008681526003602081905260409091209081015460ff166118b85760405162461bcd60e51b815260206004820152603060248201527f506f7274616c52656769737472793a2064657374696e6174696f6e20706f727460448201526f616c206973206e6f742061637469766560801b606482015260840161064f565b80546001600160a01b03166119255760405162461bcd60e51b815260206004820152602d60248201527f506f7274616c52656769737472793a20696e76616c69642064657374696e617460448201526c1a5bdb881c1bdc9d185b081a59609a1b606482015260840161064f565b604080516101008101825283546001600160a01b039081168083528454909116602080840191909152835163185b3dd560e11b8152845193948501936330b67baa926004808401939192918290030181865afa158015611989573d6000803e3d6000fd5b505050506040513d601f19601f820116820180604052508101906119ad9190612468565b6001600160a01b031681526020018360000160009054906101000a90046001600160a01b03166001600160a01b0316636904c94d6040518163ffffffff1660e01b8152600401602060405180830381865afa158015611a10573d6000803e3d6000fd5b505050506040513d601f19601f82011682018060405250810190611a349190612468565b6001600160a01b031681526020018260000160009054906101000a90046001600160a01b03166001600160a01b03166330b67baa6040518163ffffffff1660e01b8152600401602060405180830381865afa158015611a97573d6000803e3d6000fd5b505050506040513d601f19601f82011682018060405250810190611abb9190612468565b6001600160a01b031681526020018260000160009054906101000a90046001600160a01b03166001600160a01b0316636904c94d6040518163ffffffff1660e01b8152600401602060405180830381865afa158015611b1e573d6000803e3d6000fd5b505050506040513d601f19601f82011682018060405250810190611b429190612468565b6001600160a01b039081168252604080516080808201835287548416825260018089015485166020848101919091526002808b01548587015260039a8b015460ff9081161515606080880191909152838a0196909652865194850187528a5488168552928a01549096169083015293870154818401529590960154909116151594840194909452929092015295945050505050565b60606000611be483611ca7565b600101905060008167ffffffffffffffff811115611c0457611c04611da9565b6040519080825280601f01601f191660200182016040528015611c2e576020820181803683370190505b5090508181016020015b600019016f181899199a1a9b1b9c1cb0b131b232b360811b600a86061a8153600a8504945084611c3857509392505050565b611c7482826110db565b611ca35760405163e2517d3f60e01b81526001600160a01b03821660048201526024810183905260440161064f565b5050565b60008072184f03e93ff9f4daa797ed6e38ed64bf6a1f0160401b8310611ce65772184f03e93ff9f4daa797ed6e38ed64bf6a1f0160401b830492506040015b6d04ee2d6d415b85acef81000000008310611d12576d04ee2d6d415b85acef8100000000830492506020015b662386f26fc100008310611d3057662386f26fc10000830492506010015b6305f5e1008310611d48576305f5e100830492506008015b6127108310611d5c57612710830492506004015b60648310611d6e576064830492506002015b600a83106106195760010192915050565b600060208284031215611d9157600080fd5b81356001600160e01b0319811681146110d457600080fd5b634e487b7160e01b600052604160045260246000fd5b60405160c0810167ffffffffffffffff81118282101715611de257611de2611da9565b60405290565b604051601f8201601f1916810167ffffffffffffffff81118282101715611e1157611e11611da9565b604052919050565b600067ffffffffffffffff821115611e3357611e33611da9565b50601f01601f191660200190565b600082601f830112611e5257600080fd5b8135611e65611e6082611e19565b611de8565b818152846020838601011115611e7a57600080fd5b816020850160208301376000918101602001919091529392505050565b600060208284031215611ea957600080fd5b813567ffffffffffffffff80821115611ec157600080fd5b9083019060c08286031215611ed557600080fd5b611edd611dbf565b823582811115611eec57600080fd5b611ef887828601611e41565b825250602083013582811115611f0d57600080fd5b611f1987828601611e41565b602083015250604083013582811115611f3157600080fd5b611f3d87828601611e41565b604083015250606083013560608201526080830135608082015260a083013560a082015280935050505092915050565b6001600160a01b038116811461146457600080fd5b600060208284031215611f9457600080fd5b81356110d481611f6d565b600060208284031215611fb157600080fd5b5035919050565b60008060408385031215611fcb57600080fd5b823591506020830135611fdd81611f6d565b809150509250929050565b600060408284031215611ffa57600080fd5b6040516040810181811067ffffffffffffffff8211171561201d5761201d611da9565b604052823561202b81611f6d565b81526020928301359281019290925250919050565b60005b8381101561205b578181015183820152602001612043565b50506000910152565b6000815180845261207c816020860160208601612040565b601f01601f19169290920160200192915050565b6020815260006110d46020830184612064565b600080604083850312156120b657600080fd5b82356120c181611f6d565b91506020830135611fdd81611f6d565b60208082526035908201527f506f7274616c52656769737472793a2063616c6c6572206973206e6f742061206040820152747265676973746572656420657870657269656e636560581b606082015260800190565b6020808252602b908201527f506f7274616c52656769737472793a20657870657269656e636520726567697360408201526a1d1c9e481b9bdd081cd95d60aa1b606082015260800190565b60208082526035908201527f506f7274616c52656769737472793a2063616c6c6572206973206e6f742074686040820152746520657870657269656e636520726567697374727960581b606082015260800190565b60006121d4611e6084611e19565b90508281528383830111156121e857600080fd5b6110d4836020830184612040565b600082601f83011261220757600080fd5b6110d4838351602085016121c6565b60006020828403121561222857600080fd5b815167ffffffffffffffff8082111561224057600080fd5b9083019060c0828603121561225457600080fd5b61225c611dbf565b82518281111561226b57600080fd5b612277878286016121f6565b82525060208301518281111561228c57600080fd5b612298878286016121f6565b6020830152506040830151828111156122b057600080fd5b6122bc878286016121f6565b604083015250606083015160608201526080830151608082015260a083015160a082015280935050505092915050565b634e487b7160e01b600052601160045260246000fd5b600060018201612314576123146122ec565b5060010190565b60208082526028908201527f506f7274616c52656769737472793a20696e76616c6964207265676973747279604082015267206164647265737360c01b606082015260800190565b60006020828403121561237557600080fd5b815180151581146110d457600080fd5b81810381811115610619576106196122ec565b6000602082840312156123aa57600080fd5b815167ffffffffffffffff8111156123c157600080fd5b8201601f810184136123d257600080fd5b6123e1848251602084016121c6565b949350505050565b6000875160206123fc8285838d01612040565b88519184019161240f8184848d01612040565b88519201916124218184848c01612040565b87519201916124338184848b01612040565b86519201916124458184848a01612040565b85519201916124578184848901612040565b919091019998505050505050505050565b60006020828403121561247a57600080fd5b81516110d481611f6d56fea264697066735822122064f2e3a9ceb3a5008a01c73a239c48b3c0be9c553c63a516a043346fe793880464736f6c63430008180033a49807205ce4d355092ef5a8a18f56e8913cf4a201fbe287825b095693c21775",
  "linkReferences": {},
  "deployedLinkReferences": {}
}