{
  "_format": "hh-sol-artifact-1",
  "contractName": "PortalRegistry",
  "sourceName": "contracts/portal/PortalRegistry.sol",
  "abi": [
    {
      "inputs": [
        {
          "internalType": "address",
          "name": "mainAdmin",
          "type": "address"
        },
        {
          "internalType": "address[]",
          "name": "admins",
          "type": "address[]"
        }
      ],
      "stateMutability": "nonpayable",
      "type": "constructor"
    },
    {
      "inputs": [],
      "name": "AccessControlBadConfirmation",
      "type": "error"
    },
    {
      "inputs": [
        {
          "internalType": "address",
          "name": "account",
          "type": "address"
        },
        {
          "internalType": "bytes32",
          "name": "neededRole",
          "type": "bytes32"
        }
      ],
      "name": "AccessControlUnauthorizedAccount",
      "type": "error"
    },
    {
      "anonymous": false,
      "inputs": [
        {
          "indexed": true,
          "internalType": "uint256",
          "name": "portalId",
          "type": "uint256"
        },
        {
          "indexed": true,
          "internalType": "address",
          "name": "avatar",
          "type": "address"
        },
        {
          "indexed": true,
          "internalType": "address",
          "name": "destination",
          "type": "address"
        }
      ],
      "name": "JumpSuccessful",
      "type": "event"
    },
    {
      "anonymous": false,
      "inputs": [
        {
          "indexed": true,
          "internalType": "uint256",
          "name": "portalId",
          "type": "uint256"
        },
        {
          "indexed": true,
          "internalType": "address",
          "name": "experience",
          "type": "address"
        }
      ],
      "name": "PortalAdded",
      "type": "event"
    },
    {
      "anonymous": false,
      "inputs": [
        {
          "indexed": true,
          "internalType": "uint256",
          "name": "portalId",
          "type": "uint256"
        },
        {
          "indexed": true,
          "internalType": "address",
          "name": "condition",
          "type": "address"
        }
      ],
      "name": "PortalConditionAdded",
      "type": "event"
    },
    {
      "anonymous": false,
      "inputs": [
        {
          "indexed": true,
          "internalType": "uint256",
          "name": "portalId",
          "type": "uint256"
        }
      ],
      "name": "PortalConditionRemoved",
      "type": "event"
    },
    {
      "anonymous": false,
      "inputs": [
        {
          "indexed": false,
          "internalType": "uint256",
          "name": "portalId",
          "type": "uint256"
        },
        {
          "indexed": false,
          "internalType": "address",
          "name": "oldExperience",
          "type": "address"
        },
        {
          "indexed": false,
          "internalType": "address",
          "name": "newExperience",
          "type": "address"
        }
      ],
      "name": "PortalDestinationUpgraded",
      "type": "event"
    },
    {
      "anonymous": false,
      "inputs": [
        {
          "indexed": false,
          "internalType": "uint256",
          "name": "portalId",
          "type": "uint256"
        },
        {
          "indexed": false,
          "internalType": "uint256",
          "name": "newFee",
          "type": "uint256"
        }
      ],
      "name": "PortalFeeChanged",
      "type": "event"
    },
    {
      "anonymous": false,
      "inputs": [
        {
          "indexed": false,
          "internalType": "address",
          "name": "newRegistry",
          "type": "address"
        }
      ],
      "name": "PortalRegistryUpgraded",
      "type": "event"
    },
    {
      "anonymous": false,
      "inputs": [
        {
          "indexed": true,
          "internalType": "bytes32",
          "name": "role",
          "type": "bytes32"
        },
        {
          "indexed": true,
          "internalType": "bytes32",
          "name": "previousAdminRole",
          "type": "bytes32"
        },
        {
          "indexed": true,
          "internalType": "bytes32",
          "name": "newAdminRole",
          "type": "bytes32"
        }
      ],
      "name": "RoleAdminChanged",
      "type": "event"
    },
    {
      "anonymous": false,
      "inputs": [
        {
          "indexed": true,
          "internalType": "bytes32",
          "name": "role",
          "type": "bytes32"
        },
        {
          "indexed": true,
          "internalType": "address",
          "name": "account",
          "type": "address"
        },
        {
          "indexed": true,
          "internalType": "address",
          "name": "sender",
          "type": "address"
        }
      ],
      "name": "RoleGranted",
      "type": "event"
    },
    {
      "anonymous": false,
      "inputs": [
        {
          "indexed": true,
          "internalType": "bytes32",
          "name": "role",
          "type": "bytes32"
        },
        {
          "indexed": true,
          "internalType": "address",
          "name": "account",
          "type": "address"
        },
        {
          "indexed": true,
          "internalType": "address",
          "name": "sender",
          "type": "address"
        }
      ],
      "name": "RoleRevoked",
      "type": "event"
    },
    {
      "inputs": [],
      "name": "ADMIN_ROLE",
      "outputs": [
        {
          "internalType": "bytes32",
          "name": "",
          "type": "bytes32"
        }
      ],
      "stateMutability": "view",
      "type": "function"
    },
    {
      "inputs": [],
      "name": "DEFAULT_ADMIN_ROLE",
      "outputs": [
        {
          "internalType": "bytes32",
          "name": "",
          "type": "bytes32"
        }
      ],
      "stateMutability": "view",
      "type": "function"
    },
    {
      "inputs": [
        {
          "internalType": "contract IPortalCondition",
          "name": "condition",
          "type": "address"
        }
      ],
      "name": "addCondition",
      "outputs": [],
      "stateMutability": "nonpayable",
      "type": "function"
    },
    {
      "inputs": [
        {
          "components": [
            {
              "internalType": "contract IExperience",
              "name": "destination",
              "type": "address"
            },
            {
              "internalType": "uint256",
              "name": "fee",
              "type": "uint256"
            }
          ],
          "internalType": "struct AddPortalRequest",
          "name": "req",
          "type": "tuple"
        }
      ],
      "name": "addPortal",
      "outputs": [
        {
          "internalType": "uint256",
          "name": "",
          "type": "uint256"
        }
      ],
      "stateMutability": "nonpayable",
      "type": "function"
    },
    {
      "inputs": [],
      "name": "avatarRegistry",
      "outputs": [
        {
          "internalType": "contract IAvatarRegistry",
          "name": "",
          "type": "address"
        }
      ],
      "stateMutability": "view",
      "type": "function"
    },
    {
      "inputs": [
        {
          "internalType": "uint256",
          "name": "newFee",
          "type": "uint256"
        }
      ],
      "name": "changePortalFee",
      "outputs": [],
      "stateMutability": "nonpayable",
      "type": "function"
    },
    {
      "inputs": [],
      "name": "experienceRegistry",
      "outputs": [
        {
          "internalType": "address",
          "name": "",
          "type": "address"
        }
      ],
      "stateMutability": "view",
      "type": "function"
    },
    {
      "inputs": [
        {
          "internalType": "address",
          "name": "experience",
          "type": "address"
        }
      ],
      "name": "getIdForExperience",
      "outputs": [
        {
          "internalType": "uint256",
          "name": "",
          "type": "uint256"
        }
      ],
      "stateMutability": "view",
      "type": "function"
    },
    {
      "inputs": [
        {
          "components": [
            {
              "internalType": "string",
              "name": "x",
              "type": "string"
            },
            {
              "internalType": "string",
              "name": "y",
              "type": "string"
            },
            {
              "internalType": "string",
              "name": "z",
              "type": "string"
            },
            {
              "internalType": "uint256",
              "name": "t",
              "type": "uint256"
            },
            {
              "internalType": "uint256",
              "name": "p",
              "type": "uint256"
            },
            {
              "internalType": "uint256",
              "name": "p_sub",
              "type": "uint256"
            }
          ],
          "internalType": "struct VectorAddress",
          "name": "va",
          "type": "tuple"
        }
      ],
      "name": "getIdForVectorAddress",
      "outputs": [
        {
          "internalType": "uint256",
          "name": "",
          "type": "uint256"
        }
      ],
      "stateMutability": "view",
      "type": "function"
    },
    {
      "inputs": [
        {
          "internalType": "address",
          "name": "experience",
          "type": "address"
        }
      ],
      "name": "getPortalInfoByAddress",
      "outputs": [
        {
          "components": [
            {
              "internalType": "contract IExperience",
              "name": "destination",
              "type": "address"
            },
            {
              "internalType": "contract IPortalCondition",
              "name": "condition",
              "type": "address"
            },
            {
              "internalType": "uint256",
              "name": "fee",
              "type": "uint256"
            }
          ],
          "internalType": "struct PortalInfo",
          "name": "",
          "type": "tuple"
        }
      ],
      "stateMutability": "view",
      "type": "function"
    },
    {
      "inputs": [
        {
          "internalType": "uint256",
          "name": "portalId",
          "type": "uint256"
        }
      ],
      "name": "getPortalInfoById",
      "outputs": [
        {
          "components": [
            {
              "internalType": "contract IExperience",
              "name": "destination",
              "type": "address"
            },
            {
              "internalType": "contract IPortalCondition",
              "name": "condition",
              "type": "address"
            },
            {
              "internalType": "uint256",
              "name": "fee",
              "type": "uint256"
            }
          ],
          "internalType": "struct PortalInfo",
          "name": "",
          "type": "tuple"
        }
      ],
      "stateMutability": "view",
      "type": "function"
    },
    {
      "inputs": [
        {
          "components": [
            {
              "internalType": "string",
              "name": "x",
              "type": "string"
            },
            {
              "internalType": "string",
              "name": "y",
              "type": "string"
            },
            {
              "internalType": "string",
              "name": "z",
              "type": "string"
            },
            {
              "internalType": "uint256",
              "name": "t",
              "type": "uint256"
            },
            {
              "internalType": "uint256",
              "name": "p",
              "type": "uint256"
            },
            {
              "internalType": "uint256",
              "name": "p_sub",
              "type": "uint256"
            }
          ],
          "internalType": "struct VectorAddress",
          "name": "va",
          "type": "tuple"
        }
      ],
      "name": "getPortalInfoByVectorAddress",
      "outputs": [
        {
          "components": [
            {
              "internalType": "contract IExperience",
              "name": "destination",
              "type": "address"
            },
            {
              "internalType": "contract IPortalCondition",
              "name": "condition",
              "type": "address"
            },
            {
              "internalType": "uint256",
              "name": "fee",
              "type": "uint256"
            }
          ],
          "internalType": "struct PortalInfo",
          "name": "",
          "type": "tuple"
        }
      ],
      "stateMutability": "view",
      "type": "function"
    },
    {
      "inputs": [
        {
          "internalType": "bytes32",
          "name": "role",
          "type": "bytes32"
        }
      ],
      "name": "getRoleAdmin",
      "outputs": [
        {
          "internalType": "bytes32",
          "name": "",
          "type": "bytes32"
        }
      ],
      "stateMutability": "view",
      "type": "function"
    },
    {
      "inputs": [
        {
          "internalType": "bytes32",
          "name": "role",
          "type": "bytes32"
        },
        {
          "internalType": "address",
          "name": "account",
          "type": "address"
        }
      ],
      "name": "grantRole",
      "outputs": [],
      "stateMutability": "nonpayable",
      "type": "function"
    },
    {
      "inputs": [
        {
          "internalType": "bytes32",
          "name": "role",
          "type": "bytes32"
        },
        {
          "internalType": "address",
          "name": "account",
          "type": "address"
        }
      ],
      "name": "hasRole",
      "outputs": [
        {
          "internalType": "bool",
          "name": "",
          "type": "bool"
        }
      ],
      "stateMutability": "view",
      "type": "function"
    },
    {
      "inputs": [
        {
          "internalType": "uint256",
          "name": "portalId",
          "type": "uint256"
        }
      ],
      "name": "jumpRequest",
      "outputs": [
        {
          "internalType": "bytes",
          "name": "",
          "type": "bytes"
        }
      ],
      "stateMutability": "payable",
      "type": "function"
    },
    {
      "inputs": [],
      "name": "removeCondition",
      "outputs": [],
      "stateMutability": "nonpayable",
      "type": "function"
    },
    {
      "inputs": [
        {
          "internalType": "bytes32",
          "name": "role",
          "type": "bytes32"
        },
        {
          "internalType": "address",
          "name": "callerConfirmation",
          "type": "address"
        }
      ],
      "name": "renounceRole",
      "outputs": [],
      "stateMutability": "nonpayable",
      "type": "function"
    },
    {
      "inputs": [
        {
          "internalType": "bytes32",
          "name": "role",
          "type": "bytes32"
        },
        {
          "internalType": "address",
          "name": "account",
          "type": "address"
        }
      ],
      "name": "revokeRole",
      "outputs": [],
      "stateMutability": "nonpayable",
      "type": "function"
    },
    {
      "inputs": [
        {
          "internalType": "address",
          "name": "registry",
          "type": "address"
        }
      ],
      "name": "setAvatarRegistry",
      "outputs": [],
      "stateMutability": "nonpayable",
      "type": "function"
    },
    {
      "inputs": [
        {
          "internalType": "address",
          "name": "registry",
          "type": "address"
        }
      ],
      "name": "setExperienceRegistry",
      "outputs": [],
      "stateMutability": "nonpayable",
      "type": "function"
    },
    {
      "inputs": [
        {
          "internalType": "bytes4",
          "name": "interfaceId",
          "type": "bytes4"
        }
      ],
      "name": "supportsInterface",
      "outputs": [
        {
          "internalType": "bool",
          "name": "",
          "type": "bool"
        }
      ],
      "stateMutability": "view",
      "type": "function"
    },
    {
      "inputs": [
        {
          "internalType": "address",
          "name": "oldExperience",
          "type": "address"
        },
        {
          "internalType": "address",
          "name": "newExperience",
          "type": "address"
        }
      ],
      "name": "upgradeExperiencePortal",
      "outputs": [],
      "stateMutability": "nonpayable",
      "type": "function"
    },
    {
      "stateMutability": "payable",
      "type": "receive"
    }
  ],
  "bytecode": "0x60806040523480156200001157600080fd5b5060405162002632380380620026328339810160408190526200003491620002a2565b6001600160a01b038216620000a75760405162461bcd60e51b815260206004820152602e60248201527f506f7274616c52656769737472793a206d61696e2061646d696e20616464726560448201526d073732063616e6e6f7420626520360941b60648201526084015b60405180910390fd5b620000b4600083620001c0565b50620000d06000805160206200261283398151915283620001c0565b5060005b8151811015620001b75760006001600160a01b0316828281518110620000fe57620000fe6200038b565b60200260200101516001600160a01b031603620001705760405162461bcd60e51b815260206004820152602960248201527f506f7274616c52656769737472793a2061646d696e206164647265737320636160448201526806e6e6f7420626520360bc1b60648201526084016200009e565b620001ad600080516020620026128339815191528383815181106200019957620001996200038b565b6020026020010151620001c060201b60201c565b50600101620000d4565b505050620003a1565b6000828152602081815260408083206001600160a01b038516845290915281205460ff1662000265576000838152602081815260408083206001600160a01b03861684529091529020805460ff191660011790556200021c3390565b6001600160a01b0316826001600160a01b0316847f2f8788117e7eff1d82e926ec794901d17c78024a50270940304540a733656f0d60405160405180910390a450600162000269565b5060005b92915050565b80516001600160a01b03811681146200028757600080fd5b919050565b634e487b7160e01b600052604160045260246000fd5b60008060408385031215620002b657600080fd5b620002c1836200026f565b602084810151919350906001600160401b0380821115620002e157600080fd5b818601915086601f830112620002f657600080fd5b8151818111156200030b576200030b6200028c565b8060051b604051601f19603f830116810181811085821117156200033357620003336200028c565b6040529182528482019250838101850191898311156200035257600080fd5b938501935b828510156200037b576200036b856200026f565b8452938501939285019262000357565b8096505050505050509250929050565b634e487b7160e01b600052603260045260246000fd5b61226180620003b16000396000f3fe6080604052600436106101445760003560e01c806375b238fc116100b6578063a217fddf1161006f578063a217fddf1461045e578063a6c075d414610473578063aa7ff6b714610493578063c512205c14610513578063d547741f14610533578063e3d7ad731461055357600080fd5b806375b238fc146103725780637e6e0602146103a657806383c34263146103c657806384c4484e146103e65780638f09a6be1461040657806391d148541461043e57600080fd5b8063248a9ca311610108578063248a9ca31461023a578063288b56841461026a5780632f2ff15d146102dc57806336568abe146102fc5780633b19e8801461031c5780633c3f5ff41461035257600080fd5b806301ffc9a714610150578063021665b714610185578063102ea6ae1461019c57806319466389146101ec57806322d349321461021a57600080fd5b3661014b57005b600080fd5b34801561015c57600080fd5b5061017061016b366004611b25565b610573565b60405190151581526020015b60405180910390f35b34801561019157600080fd5b5061019a6105aa565b005b3480156101a857600080fd5b506101bc6101b7366004611c3d565b61063f565b6040805182516001600160a01b03908116825260208085015190911690820152918101519082015260600161017c565b3480156101f857600080fd5b5061020c610207366004611c3d565b6106d4565b60405190815260200161017c565b34801561022657600080fd5b5061019a610235366004611d28565b61071c565b34801561024657600080fd5b5061020c610255366004611d45565b60009081526020819052604090206001015490565b34801561027657600080fd5b506101bc610285366004611d45565b60408051606080820183526000808352602080840182905292840181905293845260038252928290208251938401835280546001600160a01b03908116855260018201541691840191909152600201549082015290565b3480156102e857600080fd5b5061019a6102f7366004611d5e565b610881565b34801561030857600080fd5b5061019a610317366004611d5e565b6108ac565b34801561032857600080fd5b5061020c610337366004611d28565b6001600160a01b031660009081526005602052604090205490565b34801561035e57600080fd5b5061020c61036d366004611d8e565b6108e4565b34801561037e57600080fd5b5061020c7fa49807205ce4d355092ef5a8a18f56e8913cf4a201fbe287825b095693c2177581565b3480156103b257600080fd5b5061019a6103c1366004611d28565b610b31565b3480156103d257600080fd5b5061019a6103e1366004611d45565b610ba4565b6103f96103f4366004611d45565b610c34565b60405161017c9190611e36565b34801561041257600080fd5b50600154610426906001600160a01b031681565b6040516001600160a01b03909116815260200161017c565b34801561044a57600080fd5b50610170610459366004611d5e565b611030565b34801561046a57600080fd5b5061020c600081565b34801561047f57600080fd5b5061019a61048e366004611e49565b611059565b34801561049f57600080fd5b506101bc6104ae366004611d28565b6040805160608082018352600080835260208084018290529284018190526001600160a01b0394851681526005835283812054815260038352839020835191820184528054851682526001810154909416918101919091526002909201549082015290565b34801561051f57600080fd5b5061019a61052e366004611d28565b6111a5565b34801561053f57600080fd5b5061019a61054e366004611d5e565b611218565b34801561055f57600080fd5b50600254610426906001600160a01b031681565b60006001600160e01b03198216637965db0b60e01b14806105a457506301ffc9a760e01b6001600160e01b03198316145b92915050565b33600090815260056020526040812054908190036105e35760405162461bcd60e51b81526004016105da90611e77565b60405180910390fd5b33600090815260056020908152604080832054808452600390925280832060010180546001600160a01b031916905551909182917f2e3f0e8f6904984244368dfff28046157a23abf558feb664bf3727766cbd200c9190a25050565b60408051606081018252600080825260208201819052918101829052906106658361123d565b6040516020016106759190611e36565b60408051601f1981840301815282825280516020918201206000908152600482528281205481526003825282902060608401835280546001600160a01b0390811685526001820154169184019190915260020154908201529392505050565b6000806106e08361123d565b6040516020016106f09190611e36565b60408051601f198184030181529181528151602092830120600090815260049092529020549392505050565b336000908152600560205260408120549081900361074c5760405162461bcd60e51b81526004016105da90611e77565b6001600160a01b0382166107b85760405162461bcd60e51b815260206004820152602d60248201527f506f7274616c52656769737472793a20636f6e646974696f6e2061646472657360448201526c0732063616e6e6f74206265203609c1b60648201526084016105da565b33600090815260056020526040812054908190036108245760405162461bcd60e51b8152602060048201526024808201527f506f7274616c52656769737472793a20657870657269656e6365206e6f7420666044820152631bdd5b9960e21b60648201526084016105da565b60008181526003602052604080822060010180546001600160a01b0319166001600160a01b0387169081179091559051909183917f50dc6bddd2ee7ed8c2f3a3bc6b995160e945bffd902a4135fccbe2fadbb332099190a3505050565b60008281526020819052604090206001015461089c816112a0565b6108a683836112ad565b50505050565b6001600160a01b03811633146108d55760405163334bd91960e11b815260040160405180910390fd5b6108df828261133f565b505050565b6001546000906001600160a01b031661090f5760405162461bcd60e51b81526004016105da90611ecc565b6001546001600160a01b031633146109395760405162461bcd60e51b81526004016105da90611f17565b600082600001516001600160a01b0316632fcbab9a6040518163ffffffff1660e01b8152600401600060405180830381865afa15801561097d573d6000803e3d6000fd5b505050506040513d6000823e601f3d908101601f191682016040526109a59190810190611fbc565b905060006109b28261123d565b6040516020016109c29190611e36565b60408051601f1981840301815291815281516020928301206000818152600490935291205490915015610a5d5760405162461bcd60e51b815260206004820152603d60248201527f506f7274616c52656769737472793a20706f7274616c20616c7265616479206560448201527f786973747320666f72207468697320766563746f72206164647265737300000060648201526084016105da565b600660008154610a6c906120a8565b90915550600654600082815260046020908152604080832084905587516001600160a01b0390811684526005835281842085905581516060810183528951821681528084018581528a8501518285019081528787526003909552838620915182549084166001600160a01b031991821617835590516001830180549185169190921617905592516002909301929092558751905191169183917f991e8a89cc0b450dd18d7845eb5952690d2e9b8edb3624d5f5b929f3260782989190a3949350505050565b7fa49807205ce4d355092ef5a8a18f56e8913cf4a201fbe287825b095693c21775610b5b816112a0565b6001600160a01b038216610b815760405162461bcd60e51b81526004016105da906120c1565b50600180546001600160a01b0319166001600160a01b0392909216919091179055565b3360009081526005602052604081205490819003610bd45760405162461bcd60e51b81526004016105da90611e77565b33600090815260056020908152604080832054808452600383529281902060020185905580518381529182018590527fc45b50c704f83a591e64a45d94b4e274cc467d15386c75d56bef687efe5aea4a91015b60405180910390a1505050565b6002546060906001600160a01b0316610c9f5760405162461bcd60e51b815260206004820152602760248201527f506f7274616c52656769737472793a20617661746172207265676973747279206044820152661b9bdd081cd95d60ca1b60648201526084016105da565b600254604051632b0fe8e760e21b81523360048201526001600160a01b039091169063ac3fa39c90602401602060405180830381865afa158015610ce7573d6000803e3d6000fd5b505050506040513d601f19601f82011682018060405250810190610d0b9190612109565b610d685760405162461bcd60e51b815260206004820152602860248201527f506f7274616c52656769737472793a2063616c6c6572206d7573742062652061604482015267371030bb30ba30b960c11b60648201526084016105da565b6000610d73836113aa565b60e0810151602001519091506001600160a01b031615610e945760e08101516020908101519082015160408084015160608501518551925163f610c1d560e01b81526001600160a01b039485166004820152918416602483015283166044820152908216606482015233608482015291169063f610c1d59060a4016020604051808303816000875af1158015610e0d573d6000803e3d6000fd5b505050506040513d601f19601f82011682018060405250810190610e319190612109565b610e945760405162461bcd60e51b815260206004820152602e60248201527f506f7274616c52656769737472793a20706f7274616c206a756d7020636f6e6460448201526d1a5d1a5bdb9cc81b9bdd081b595d60921b60648201526084016105da565b60e08101516040015115610f6f578060e0015160400151341015610f205760405162461bcd60e51b815260206004820152603960248201527f506f7274616c52656769737472793a20496e73756666696369656e742066656560448201527f20617474616368656420746f206a756d7020726571756573740000000000000060648201526084016105da565b60008160e001516040015134610f36919061212b565b90508015610f6d57604051339082156108fc029083906000818181858888f19350505050158015610f6b573d6000803e3d6000fd5b505b505b60208082015160e0830151604090810151815160608082018452838701516001600160a01b0390811683529087015181169582019586523382850190815293516354cc5a0b60e01b815291518116600483015294518516602482015291518416604483015292909116916354cc5a0b9160640160006040518083038185885af1158015611000573d6000803e3d6000fd5b50505050506040513d6000823e601f3d908101601f19168201604052611029919081019061213e565b9392505050565b6000918252602082815260408084206001600160a01b0393909316845291905290205460ff1690565b6001546001600160a01b03166110815760405162461bcd60e51b81526004016105da90611ecc565b6001546001600160a01b031633146110ab5760405162461bcd60e51b81526004016105da90611f17565b6001600160a01b038216600090815260056020526040812054908190036111255760405162461bcd60e51b815260206004820152602860248201527f506f7274616c52656769737472793a206f6c6420657870657269656e6365206e6044820152671bdd08199bdd5b9960c21b60648201526084016105da565b6001600160a01b038281166000818152600560209081526040808320869055938716808352848320839055858352600382529184902080546001600160a01b03191684179055835185815290810191909152918201527f9a2d918555b7a5bdb899957e6683ff4e9c81b8a671ca77d3d0ad0ee78343def790606001610c27565b7fa49807205ce4d355092ef5a8a18f56e8913cf4a201fbe287825b095693c217756111cf816112a0565b6001600160a01b0382166111f55760405162461bcd60e51b81526004016105da906120c1565b50600280546001600160a01b0319166001600160a01b0392909216919091179055565b600082815260208190526040902060010154611233816112a0565b6108a6838361133f565b606081600001518260200151836040015161125b856060015161197d565b611268866080015161197d565b6112758760a0015161197d565b60405160200161128a9695949392919061218f565b6040516020818303038152906040529050919050565b6112aa8133611a10565b50565b60006112b98383611030565b611337576000838152602081815260408083206001600160a01b03861684529091529020805460ff191660011790556112ef3390565b6001600160a01b0316826001600160a01b0316847f2f8788117e7eff1d82e926ec794901d17c78024a50270940304540a733656f0d60405160405180910390a45060016105a4565b5060006105a4565b600061134b8383611030565b15611337576000838152602081815260408083206001600160a01b0386168085529252808320805460ff1916905551339286917ff6391f5c32d9c69d2a47ea670b442974b53935d1edc7fd64eb21e047a839171b9190a45060016105a4565b60408051610100810182526000808252602080830182905282840182905260608084018390526080840183905260a084018390528451808201865283815280830184905280860184905260c08501528451908101855282815280820183905280850183905260e084015283516328b793cf60e11b8152935192933393849263516f279e92600480820193918290030181865afa15801561144e573d6000803e3d6000fd5b505050506040513d601f19601f82011682018060405250810190611472919061220e565b90506001600160a01b0381166114e45760405162461bcd60e51b815260206004820152603160248201527f506f7274616c52656769737472793a20617661746172206973206e6f7420696e6044820152701030903b30b634b2103637b1b0ba34b7b760791b60648201526084016105da565b6001600160a01b0381166000908152600560205260408120549081900361157d5760405162461bcd60e51b815260206004820152604160248201527f506f7274616c52656769737472793a206e6f20706f7274616c20666f756e642060448201527f666f72207468652061766174617227732063757272656e74206c6f636174696f6064820152603760f91b608482015260a4016105da565b8481036115e75760405162461bcd60e51b815260206004820152603260248201527f506f7274616c52656769737472793a2063616e6e6f74206a756d7020746f207460448201527168652073616d6520657870657269656e636560701b60648201526084016105da565b600081815260036020526040902080546001600160a01b0316611674576040805162461bcd60e51b81526020600482015260248101919091527f506f7274616c52656769737472793a20636f756c64206e6f74206d617020637560448201527f7272656e74206c6f636174696f6e20746f20612076616c696420706f7274616c60648201526084016105da565b600086815260036020526040902080546001600160a01b03166116ef5760405162461bcd60e51b815260206004820152602d60248201527f506f7274616c52656769737472793a20696e76616c69642064657374696e617460448201526c1a5bdb881c1bdc9d185b081a59609a1b60648201526084016105da565b604080516101008101825283546001600160a01b039081168083528454909116602080840191909152835163185b3dd560e11b8152845193948501936330b67baa926004808401939192918290030181865afa158015611753573d6000803e3d6000fd5b505050506040513d601f19601f82011682018060405250810190611777919061220e565b6001600160a01b031681526020018360000160009054906101000a90046001600160a01b03166001600160a01b0316636904c94d6040518163ffffffff1660e01b8152600401602060405180830381865afa1580156117da573d6000803e3d6000fd5b505050506040513d601f19601f820116820180604052508101906117fe919061220e565b6001600160a01b031681526020018260000160009054906101000a90046001600160a01b03166001600160a01b03166330b67baa6040518163ffffffff1660e01b8152600401602060405180830381865afa158015611861573d6000803e3d6000fd5b505050506040513d601f19601f82011682018060405250810190611885919061220e565b6001600160a01b031681526020018260000160009054906101000a90046001600160a01b03166001600160a01b0316636904c94d6040518163ffffffff1660e01b8152600401602060405180830381865afa1580156118e8573d6000803e3d6000fd5b505050506040513d601f19601f8201168201806040525081019061190c919061220e565b6001600160a01b039081168252604080516060808201835287548416825260018089015485166020848101919091526002998a015484860152808701939093528351918201845287548516825287015490931690830152939094015484840152919091019190915295945050505050565b6060600061198a83611a4d565b600101905060008167ffffffffffffffff8111156119aa576119aa611b4f565b6040519080825280601f01601f1916602001820160405280156119d4576020820181803683370190505b5090508181016020015b600019016f181899199a1a9b1b9c1cb0b131b232b360811b600a86061a8153600a85049450846119de57509392505050565b611a1a8282611030565b611a495760405163e2517d3f60e01b81526001600160a01b0382166004820152602481018390526044016105da565b5050565b60008072184f03e93ff9f4daa797ed6e38ed64bf6a1f0160401b8310611a8c5772184f03e93ff9f4daa797ed6e38ed64bf6a1f0160401b830492506040015b6d04ee2d6d415b85acef81000000008310611ab8576d04ee2d6d415b85acef8100000000830492506020015b662386f26fc100008310611ad657662386f26fc10000830492506010015b6305f5e1008310611aee576305f5e100830492506008015b6127108310611b0257612710830492506004015b60648310611b14576064830492506002015b600a83106105a45760010192915050565b600060208284031215611b3757600080fd5b81356001600160e01b03198116811461102957600080fd5b634e487b7160e01b600052604160045260246000fd5b60405160c0810167ffffffffffffffff81118282101715611b8857611b88611b4f565b60405290565b604051601f8201601f1916810167ffffffffffffffff81118282101715611bb757611bb7611b4f565b604052919050565b600067ffffffffffffffff821115611bd957611bd9611b4f565b50601f01601f191660200190565b600082601f830112611bf857600080fd5b8135611c0b611c0682611bbf565b611b8e565b818152846020838601011115611c2057600080fd5b816020850160208301376000918101602001919091529392505050565b600060208284031215611c4f57600080fd5b813567ffffffffffffffff80821115611c6757600080fd5b9083019060c08286031215611c7b57600080fd5b611c83611b65565b823582811115611c9257600080fd5b611c9e87828601611be7565b825250602083013582811115611cb357600080fd5b611cbf87828601611be7565b602083015250604083013582811115611cd757600080fd5b611ce387828601611be7565b604083015250606083013560608201526080830135608082015260a083013560a082015280935050505092915050565b6001600160a01b03811681146112aa57600080fd5b600060208284031215611d3a57600080fd5b813561102981611d13565b600060208284031215611d5757600080fd5b5035919050565b60008060408385031215611d7157600080fd5b823591506020830135611d8381611d13565b809150509250929050565b600060408284031215611da057600080fd5b6040516040810181811067ffffffffffffffff82111715611dc357611dc3611b4f565b6040528235611dd181611d13565b81526020928301359281019290925250919050565b60005b83811015611e01578181015183820152602001611de9565b50506000910152565b60008151808452611e22816020860160208601611de6565b601f01601f19169290920160200192915050565b6020815260006110296020830184611e0a565b60008060408385031215611e5c57600080fd5b8235611e6781611d13565b91506020830135611d8381611d13565b60208082526035908201527f506f7274616c52656769737472793a2063616c6c6572206973206e6f742061206040820152747265676973746572656420657870657269656e636560581b606082015260800190565b6020808252602b908201527f506f7274616c52656769737472793a20657870657269656e636520726567697360408201526a1d1c9e481b9bdd081cd95d60aa1b606082015260800190565b60208082526035908201527f506f7274616c52656769737472793a2063616c6c6572206973206e6f742074686040820152746520657870657269656e636520726567697374727960581b606082015260800190565b6000611f7a611c0684611bbf565b9050828152838383011115611f8e57600080fd5b611029836020830184611de6565b600082601f830112611fad57600080fd5b61102983835160208501611f6c565b600060208284031215611fce57600080fd5b815167ffffffffffffffff80821115611fe657600080fd5b9083019060c08286031215611ffa57600080fd5b612002611b65565b82518281111561201157600080fd5b61201d87828601611f9c565b82525060208301518281111561203257600080fd5b61203e87828601611f9c565b60208301525060408301518281111561205657600080fd5b61206287828601611f9c565b604083015250606083015160608201526080830151608082015260a083015160a082015280935050505092915050565b634e487b7160e01b600052601160045260246000fd5b6000600182016120ba576120ba612092565b5060010190565b60208082526028908201527f506f7274616c52656769737472793a20696e76616c6964207265676973747279604082015267206164647265737360c01b606082015260800190565b60006020828403121561211b57600080fd5b8151801515811461102957600080fd5b818103818111156105a4576105a4612092565b60006020828403121561215057600080fd5b815167ffffffffffffffff81111561216757600080fd5b8201601f8101841361217857600080fd5b61218784825160208401611f6c565b949350505050565b6000875160206121a28285838d01611de6565b8851918401916121b58184848d01611de6565b88519201916121c78184848c01611de6565b87519201916121d98184848b01611de6565b86519201916121eb8184848a01611de6565b85519201916121fd8184848901611de6565b919091019998505050505050505050565b60006020828403121561222057600080fd5b815161102981611d1356fea2646970667358221220c91687f363203fc5c8e0a302941225ed737f78ab4a4a7d76d92e5dcb894b014664736f6c63430008180033a49807205ce4d355092ef5a8a18f56e8913cf4a201fbe287825b095693c21775",
  "linkReferences": {},
  "deployedLinkReferences": {}
}