{
  "_format": "hh-sol-artifact-1",
  "contractName": "CompanyRegistry",
  "sourceName": "contracts/company/CompanyRegistry.sol",
  "abi": [
    {
      "inputs": [
        {
          "components": [
            {
              "internalType": "address",
              "name": "mainAdmin",
              "type": "address"
            },
            {
              "internalType": "address",
              "name": "companyFactory",
              "type": "address"
            },
            {
              "internalType": "address",
              "name": "worldRegistry",
              "type": "address"
            },
            {
              "internalType": "address[]",
              "name": "admins",
              "type": "address[]"
            }
          ],
          "internalType": "struct CompanyRegistryArgs",
          "name": "args",
          "type": "tuple"
        }
      ],
      "stateMutability": "nonpayable",
      "type": "constructor"
    },
    {
      "inputs": [],
      "name": "AccessControlBadConfirmation",
      "type": "error"
    },
    {
      "inputs": [
        {
          "internalType": "address",
          "name": "account",
          "type": "address"
        },
        {
          "internalType": "bytes32",
          "name": "neededRole",
          "type": "bytes32"
        }
      ],
      "name": "AccessControlUnauthorizedAccount",
      "type": "error"
    },
    {
      "inputs": [],
      "name": "ReentrancyGuardReentrantCall",
      "type": "error"
    },
    {
      "anonymous": false,
      "inputs": [
        {
          "indexed": true,
          "internalType": "address",
          "name": "company",
          "type": "address"
        },
        {
          "components": [
            {
              "internalType": "string",
              "name": "x",
              "type": "string"
            },
            {
              "internalType": "string",
              "name": "y",
              "type": "string"
            },
            {
              "internalType": "string",
              "name": "z",
              "type": "string"
            },
            {
              "internalType": "uint256",
              "name": "t",
              "type": "uint256"
            },
            {
              "internalType": "uint256",
              "name": "p",
              "type": "uint256"
            },
            {
              "internalType": "uint256",
              "name": "p_sub",
              "type": "uint256"
            }
          ],
          "indexed": true,
          "internalType": "struct VectorAddress",
          "name": "",
          "type": "tuple"
        }
      ],
      "name": "CompanyRegistered",
      "type": "event"
    },
    {
      "anonymous": false,
      "inputs": [
        {
          "indexed": true,
          "internalType": "bytes32",
          "name": "role",
          "type": "bytes32"
        },
        {
          "indexed": true,
          "internalType": "bytes32",
          "name": "previousAdminRole",
          "type": "bytes32"
        },
        {
          "indexed": true,
          "internalType": "bytes32",
          "name": "newAdminRole",
          "type": "bytes32"
        }
      ],
      "name": "RoleAdminChanged",
      "type": "event"
    },
    {
      "anonymous": false,
      "inputs": [
        {
          "indexed": true,
          "internalType": "bytes32",
          "name": "role",
          "type": "bytes32"
        },
        {
          "indexed": true,
          "internalType": "address",
          "name": "account",
          "type": "address"
        },
        {
          "indexed": true,
          "internalType": "address",
          "name": "sender",
          "type": "address"
        }
      ],
      "name": "RoleGranted",
      "type": "event"
    },
    {
      "anonymous": false,
      "inputs": [
        {
          "indexed": true,
          "internalType": "bytes32",
          "name": "role",
          "type": "bytes32"
        },
        {
          "indexed": true,
          "internalType": "address",
          "name": "account",
          "type": "address"
        },
        {
          "indexed": true,
          "internalType": "address",
          "name": "sender",
          "type": "address"
        }
      ],
      "name": "RoleRevoked",
      "type": "event"
    },
    {
      "inputs": [],
      "name": "ADMIN_ROLE",
      "outputs": [
        {
          "internalType": "bytes32",
          "name": "",
          "type": "bytes32"
        }
      ],
      "stateMutability": "view",
      "type": "function"
    },
    {
      "inputs": [],
      "name": "DEFAULT_ADMIN_ROLE",
      "outputs": [
        {
          "internalType": "bytes32",
          "name": "",
          "type": "bytes32"
        }
      ],
      "stateMutability": "view",
      "type": "function"
    },
    {
      "inputs": [],
      "name": "companyFactory",
      "outputs": [
        {
          "internalType": "contract ICompanyFactory",
          "name": "",
          "type": "address"
        }
      ],
      "stateMutability": "view",
      "type": "function"
    },
    {
      "inputs": [],
      "name": "currentCompanyVersion",
      "outputs": [
        {
          "internalType": "string",
          "name": "",
          "type": "string"
        }
      ],
      "stateMutability": "view",
      "type": "function"
    },
    {
      "inputs": [
        {
          "internalType": "bytes32",
          "name": "role",
          "type": "bytes32"
        }
      ],
      "name": "getRoleAdmin",
      "outputs": [
        {
          "internalType": "bytes32",
          "name": "",
          "type": "bytes32"
        }
      ],
      "stateMutability": "view",
      "type": "function"
    },
    {
      "inputs": [
        {
          "internalType": "bytes32",
          "name": "role",
          "type": "bytes32"
        },
        {
          "internalType": "address",
          "name": "account",
          "type": "address"
        }
      ],
      "name": "grantRole",
      "outputs": [],
      "stateMutability": "nonpayable",
      "type": "function"
    },
    {
      "inputs": [
        {
          "internalType": "bytes32",
          "name": "role",
          "type": "bytes32"
        },
        {
          "internalType": "address",
          "name": "account",
          "type": "address"
        }
      ],
      "name": "hasRole",
      "outputs": [
        {
          "internalType": "bool",
          "name": "",
          "type": "bool"
        }
      ],
      "stateMutability": "view",
      "type": "function"
    },
    {
      "inputs": [
        {
          "internalType": "address",
          "name": "company",
          "type": "address"
        }
      ],
      "name": "isRegisteredCompany",
      "outputs": [
        {
          "internalType": "bool",
          "name": "",
          "type": "bool"
        }
      ],
      "stateMutability": "view",
      "type": "function"
    },
    {
      "inputs": [
        {
          "components": [
            {
              "internalType": "bool",
              "name": "sendTokensToCompanyOwner",
              "type": "bool"
            },
            {
              "internalType": "address",
              "name": "owner",
              "type": "address"
            },
            {
              "components": [
                {
                  "internalType": "string",
                  "name": "x",
                  "type": "string"
                },
                {
                  "internalType": "string",
                  "name": "y",
                  "type": "string"
                },
                {
                  "internalType": "string",
                  "name": "z",
                  "type": "string"
                },
                {
                  "internalType": "uint256",
                  "name": "t",
                  "type": "uint256"
                },
                {
                  "internalType": "uint256",
                  "name": "p",
                  "type": "uint256"
                },
                {
                  "internalType": "uint256",
                  "name": "p_sub",
                  "type": "uint256"
                }
              ],
              "internalType": "struct VectorAddress",
              "name": "vector",
              "type": "tuple"
            },
            {
              "internalType": "bytes",
              "name": "initData",
              "type": "bytes"
            },
            {
              "internalType": "string",
              "name": "name",
              "type": "string"
            }
          ],
          "internalType": "struct CompanyRegistrationRequest",
          "name": "request",
          "type": "tuple"
        }
      ],
      "name": "registerCompany",
      "outputs": [
        {
          "internalType": "address",
          "name": "",
          "type": "address"
        }
      ],
      "stateMutability": "payable",
      "type": "function"
    },
    {
      "inputs": [
        {
          "internalType": "bytes32",
          "name": "role",
          "type": "bytes32"
        },
        {
          "internalType": "address",
          "name": "callerConfirmation",
          "type": "address"
        }
      ],
      "name": "renounceRole",
      "outputs": [],
      "stateMutability": "nonpayable",
      "type": "function"
    },
    {
      "inputs": [
        {
          "internalType": "bytes32",
          "name": "role",
          "type": "bytes32"
        },
        {
          "internalType": "address",
          "name": "account",
          "type": "address"
        }
      ],
      "name": "revokeRole",
      "outputs": [],
      "stateMutability": "nonpayable",
      "type": "function"
    },
    {
      "inputs": [
        {
          "internalType": "address",
          "name": "factory",
          "type": "address"
        }
      ],
      "name": "setCompanyFactory",
      "outputs": [],
      "stateMutability": "nonpayable",
      "type": "function"
    },
    {
      "inputs": [
        {
          "internalType": "string",
          "name": "version",
          "type": "string"
        }
      ],
      "name": "setCurrentCompanyVersion",
      "outputs": [],
      "stateMutability": "nonpayable",
      "type": "function"
    },
    {
      "inputs": [
        {
          "internalType": "address",
          "name": "registry",
          "type": "address"
        }
      ],
      "name": "setWorldRegistry",
      "outputs": [],
      "stateMutability": "nonpayable",
      "type": "function"
    },
    {
      "inputs": [
        {
          "internalType": "bytes4",
          "name": "interfaceId",
          "type": "bytes4"
        }
      ],
      "name": "supportsInterface",
      "outputs": [
        {
          "internalType": "bool",
          "name": "",
          "type": "bool"
        }
      ],
      "stateMutability": "view",
      "type": "function"
    },
    {
      "inputs": [
        {
          "internalType": "bytes",
          "name": "initData",
          "type": "bytes"
        }
      ],
      "name": "upgradeCompany",
      "outputs": [],
      "stateMutability": "nonpayable",
      "type": "function"
    },
    {
      "inputs": [],
      "name": "worldRegistry",
      "outputs": [
        {
          "internalType": "contract IWorldRegistry0_2",
          "name": "",
          "type": "address"
        }
      ],
      "stateMutability": "view",
      "type": "function"
    },
    {
      "stateMutability": "payable",
      "type": "receive"
    }
  ],
  "bytecode": "0x60c06040526003608090815262302e3160e81b60a05260079062000024908262000461565b503480156200003257600080fd5b506040516200245f3803806200245f8339810160408190526200005591620005a8565b600160005580516001600160a01b0316620000cf5760405162461bcd60e51b815260206004820152602f60248201527f436f6d70616e7952656769737472793a206d61696e2061646d696e206164647260448201526e06573732063616e6e6f74206265203608c1b60648201526084015b60405180910390fd5b8051620000df9060009062000323565b508051620000fe906000805160206200243f8339815191529062000323565b5060208101516001600160a01b0316620001705760405162461bcd60e51b815260206004820152602c60248201527f436f6d70616e7952656769737472793a20666163746f7279206164647265737360448201526b02063616e6e6f7420626520360a41b6064820152608401620000c6565b60408101516001600160a01b0316620001f25760405162461bcd60e51b815260206004820152603360248201527f436f6d70616e7952656769737472793a20776f726c642072656769737472792060448201527f616464726573732063616e6e6f742062652030000000000000000000000000006064820152608401620000c6565b6020810151600280546001600160a01b039283166001600160a01b03199182161790915560408301516003805491909316911617905560005b8160600151518110156200031b5760006001600160a01b0316826060015182815181106200025d576200025d620006cb565b60200260200101516001600160a01b031603620002d05760405162461bcd60e51b815260206004820152602a60248201527f436f6d70616e7952656769737472793a2061646d696e206164647265737320636044820152690616e6e6f7420626520360b41b6064820152608401620000c6565b620003116000805160206200243f83398151915283606001518381518110620002fd57620002fd620006cb565b60200260200101516200032360201b60201c565b506001016200022b565b5050620006e1565b60008281526001602090815260408083206001600160a01b038516845290915281205460ff16620003b05760008381526001602081815260408084206001600160a01b0387168086529252808420805460ff19169093179092559051339286917f2f8788117e7eff1d82e926ec794901d17c78024a50270940304540a733656f0d9190a4506001620003b4565b5060005b92915050565b634e487b7160e01b600052604160045260246000fd5b600181811c90821680620003e557607f821691505b6020821081036200040657634e487b7160e01b600052602260045260246000fd5b50919050565b601f8211156200045c576000816000526020600020601f850160051c81016020861015620004375750805b601f850160051c820191505b81811015620004585782815560010162000443565b5050505b505050565b81516001600160401b038111156200047d576200047d620003ba565b62000495816200048e8454620003d0565b846200040c565b602080601f831160018114620004cd5760008415620004b45750858301515b600019600386901b1c1916600185901b17855562000458565b600085815260208120601f198616915b82811015620004fe57888601518255948401946001909101908401620004dd565b50858210156200051d5787850151600019600388901b60f8161c191681555b5050505050600190811b01905550565b604051608081016001600160401b0381118282101715620005525762000552620003ba565b60405290565b604051601f8201601f191681016001600160401b0381118282101715620005835762000583620003ba565b604052919050565b80516001600160a01b0381168114620005a357600080fd5b919050565b60006020808385031215620005bc57600080fd5b82516001600160401b0380821115620005d457600080fd5b9084019060808287031215620005e957600080fd5b620005f36200052d565b620005fe836200058b565b81526200060d8484016200058b565b848201526200061f604084016200058b565b60408201526060830151828111156200063757600080fd5b80840193505086601f8401126200064d57600080fd5b825182811115620006625762000662620003ba565b8060051b92506200067585840162000558565b81815292840185019285810190898511156200069057600080fd5b948601945b84861015620006b957620006a9866200058b565b8252948601949086019062000695565b60608401525090979650505050505050565b634e487b7160e01b600052603260045260246000fd5b611d4e80620006f16000396000f3fe6080604052600436106101025760003560e01c806383ba84cb11610095578063a217fddf11610064578063a217fddf146102ec578063d449cf2514610301578063d547741f14610321578063dc1c44be14610341578063e237fbad1461036157600080fd5b806383ba84cb1461025357806390159c9414610273578063911c2a8c146102ac57806391d14854146102cc57600080fd5b806336568abe116100d157806336568abe146101cf5780635c3ce693146101ef57806375b238fc1461021157806382c154e01461023357600080fd5b806301ffc9a71461010e57806322feaee614610143578063248a9ca31461016e5780632f2ff15d146101ad57600080fd5b3661010957005b600080fd5b34801561011a57600080fd5b5061012e610129366004611357565b610381565b60405190151581526020015b60405180910390f35b610156610151366004611584565b6103b8565b6040516001600160a01b03909116815260200161013a565b34801561017a57600080fd5b5061019f61018936600461165b565b6000908152600160208190526040909120015490565b60405190815260200161013a565b3480156101b957600080fd5b506101cd6101c8366004611674565b6107ca565b005b3480156101db57600080fd5b506101cd6101ea366004611674565b6107f6565b3480156101fb57600080fd5b5061020461082e565b60405161013a91906116f4565b34801561021d57600080fd5b5061019f600080516020611cf983398151915281565b34801561023f57600080fd5b506101cd61024e366004611707565b6108bc565b34801561025f57600080fd5b506101cd61026e366004611724565b610962565b34801561027f57600080fd5b5061012e61028e366004611707565b6001600160a01b031660009081526005602052604090205460ff1690565b3480156102b857600080fd5b50600354610156906001600160a01b031681565b3480156102d857600080fd5b5061012e6102e7366004611674565b610986565b3480156102f857600080fd5b5061019f600081565b34801561030d57600080fd5b506101cd61031c366004611761565b6109b1565b34801561032d57600080fd5b506101cd61033c366004611674565b610e9a565b34801561034d57600080fd5b50600254610156906001600160a01b031681565b34801561036d57600080fd5b506101cd61037c366004611707565b610ec0565b60006001600160e01b03198216637965db0b60e01b14806103b257506301ffc9a760e01b6001600160e01b03198316145b92915050565b600354604051637856879f60e11b81523360048201526000916001600160a01b03169063f0ad0f3e90602401602060405180830381865afa158015610401573d6000803e3d6000fd5b505050506040513d601f19601f8201168201806040525081019061042591906117d3565b6104855760405162461bcd60e51b815260206004820152602660248201527f436f6d70616e7952656769737472793a2063616c6c6572206973206e6f742061604482015265081ddbdc9b1960d21b60648201526084015b60405180910390fd5b61048d610f6d565b600061049c8360800151610f97565b905060006001600160a01b03166004826040516104b991906117f0565b908152604051908190036020019020546001600160a01b0316146105335760405162461bcd60e51b815260206004820152602b60248201527f436f6d70616e7952656769737472793a20636f6d70616e79206e616d6520616c60448201526a3932b0b23c903a30b5b2b760a91b606482015260840161047c565b6002546040805160a0810182526020808701516001600160a01b0390811683523391830191909152868301518284015260608088015190830152608080880151908301529151637be4fdd760e11b8152600093929092169163f7c9fbae9161059d9160040161180c565b6020604051808303816000875af11580156105bc573d6000803e3d6000fd5b505050506040513d601f19601f820116820180604052508101906105e091906118f7565b90506001600160a01b0381166106495760405162461bcd60e51b815260206004820152602860248201527f436f6d70616e7952656769737472793a20636f6d70616e79206372656174696f6044820152671b8819985a5b195960c21b606482015260840161047c565b8060048360405161065a91906117f0565b908152604080516020928190038301902080546001600160a01b0319166001600160a01b0394851617905591831660009081526005909152818120805460ff191660011790559085015182916006916106b290611007565b8051602091820120825281019190915260400160002080546001600160a01b0319166001600160a01b0392909216919091179055341561076b578351156107345760208401516040516001600160a01b03909116903480156108fc02916000818181858888f1935050505015801561072e573d6000803e3d6000fd5b5061076b565b6040516001600160a01b038216903480156108fc02916000818181858888f19350505050158015610769573d6000803e3d6000fd5b505b836040015160405161077d9190611914565b604051908190038120906001600160a01b038316907f7d4bf7edd813e2887ba5c21733818d0fb09a3e972e1dbc39a7f639fda34dd71490600090a39150506107c56001600055565b919050565b600082815260016020819052604090912001546107e681611071565b6107f0838361107e565b50505050565b6001600160a01b038116331461081f5760405163334bd91960e11b815260040160405180910390fd5b61082982826110f7565b505050565b6007805461083b906119a2565b80601f0160208091040260200160405190810160405280929190818152602001828054610867906119a2565b80156108b45780601f10610889576101008083540402835291602001916108b4565b820191906000526020600020905b81548152906001019060200180831161089757829003601f168201915b505050505081565b600080516020611cf98339815191526108d481611071565b6001600160a01b03821661093f5760405162461bcd60e51b815260206004820152602c60248201527f436f6d70616e7952656769737472793a20666163746f7279206164647265737360448201526b02063616e6e6f7420626520360a41b606482015260840161047c565b50600280546001600160a01b0319166001600160a01b0392909216919091179055565b600080516020611cf983398151915261097a81611071565b60076108298382611a2c565b60009182526001602090815260408084206001600160a01b0393909316845291905290205460ff1690565b3360009081526005602052604090205460ff16610a215760405162461bcd60e51b815260206004820152602860248201527f436f6d70616e7952656769737472793a2063616c6c6572206973206e6f74206160448201526720636f6d70616e7960c01b606482015260840161047c565b610a29610f6d565b60003390506000610a9e826001600160a01b03166306fdde036040518163ffffffff1660e01b8152600401600060405180830381865afa158015610a71573d6000803e3d6000fd5b505050506040513d6000823e601f3d908101601f19168201604052610a999190810190611b31565b610f97565b905060006040518060a00160405280846001600160a01b0316638da5cb5b6040518163ffffffff1660e01b8152600401602060405180830381865afa158015610aeb573d6000803e3d6000fd5b505050506040513d601f19601f82011682018060405250810190610b0f91906118f7565b6001600160a01b03168152602001846001600160a01b03166330b67baa6040518163ffffffff1660e01b8152600401602060405180830381865afa158015610b5b573d6000803e3d6000fd5b505050506040513d601f19601f82011682018060405250810190610b7f91906118f7565b6001600160a01b03168152602001846001600160a01b0316632fcbab9a6040518163ffffffff1660e01b8152600401600060405180830381865afa158015610bcb573d6000803e3d6000fd5b505050506040513d6000823e601f3d908101601f19168201604052610bf39190810190611b66565b815260200186868080601f01602080910402602001604051908101604052809392919081815260200183838082843760009201829052509385525050604080516306fdde0360e01b815290516020909401936001600160a01b038916936306fdde0393506004808401939192918290030181865afa158015610c79573d6000803e3d6000fd5b505050506040513d6000823e601f3d908101601f19168201604052610ca19190810190611b31565b9052600254604051637be4fdd760e11b81529192506000916001600160a01b039091169063f7c9fbae90610cd990859060040161180c565b6020604051808303816000875af1158015610cf8573d6000803e3d6000fd5b505050506040513d601f19601f82011682018060405250810190610d1c91906118f7565b90506001600160a01b038116610d845760405162461bcd60e51b815260206004820152602760248201527f436f6d70616e7952656769737472793a20636f6d70616e7920757067726164656044820152660819985a5b195960ca1b606482015260840161047c565b80600484604051610d9591906117f0565b908152604080516020928190038301902080546001600160a01b0319166001600160a01b0394851617905591831660009081526005909152818120805460ff19166001179055908301518291600691610ded90611007565b80516020918201208252810191909152604090810160002080546001600160a01b0319166001600160a01b0393841617905551632663d1f760e01b8152828216600482015290851690632663d1f790602401600060405180830381600087803b158015610e5957600080fd5b505af1158015610e6d573d6000803e3d6000fd5b5050336000908152600560205260409020805460ff1916905550610e96945061106a9350505050565b5050565b60008281526001602081905260409091200154610eb681611071565b6107f083836110f7565b600080516020611cf9833981519152610ed881611071565b6001600160a01b038216610f4a5760405162461bcd60e51b815260206004820152603360248201527f436f6d70616e7952656769737472793a20776f726c64207265676973747279206044820152720616464726573732063616e6e6f74206265203606c1b606482015260840161047c565b50600380546001600160a01b0319166001600160a01b0392909216919091179055565b600260005403610f9057604051633ee5aeb560e01b815260040160405180910390fd5b6002600055565b60608160005b815181101561100057610fcf828281518110610fbb57610fbb611c3c565b01602001516001600160f81b031916611164565b828281518110610fe157610fe1611c3c565b60200101906001600160f81b031916908160001a905350600101610f9d565b5092915050565b606081600001518260200151836040015161102585606001516111b3565b61103286608001516111b3565b61103f8760a001516111b3565b60405160200161105496959493929190611c52565b6040516020818303038152906040529050919050565b6001600055565b61107b8133611246565b50565b600061108a8383610986565b6110ef5760008381526001602081815260408084206001600160a01b0387168086529252808420805460ff19169093179092559051339286917f2f8788117e7eff1d82e926ec794901d17c78024a50270940304540a733656f0d9190a45060016103b2565b5060006103b2565b60006111038383610986565b156110ef5760008381526001602090815260408083206001600160a01b0386168085529252808320805460ff1916905551339286917ff6391f5c32d9c69d2a47ea670b442974b53935d1edc7fd64eb21e047a839171b9190a45060016103b2565b6000604160f81b6001600160f81b03198316108015906111925750602d60f91b6001600160f81b0319831611155b156111af576111a660f883901c6020611cd1565b60f81b92915050565b5090565b606060006111c08361127f565b600101905060008167ffffffffffffffff8111156111e0576111e0611388565b6040519080825280601f01601f19166020018201604052801561120a576020820181803683370190505b5090508181016020015b600019016f181899199a1a9b1b9c1cb0b131b232b360811b600a86061a8153600a850494508461121457509392505050565b6112508282610986565b610e965760405163e2517d3f60e01b81526001600160a01b03821660048201526024810183905260440161047c565b60008072184f03e93ff9f4daa797ed6e38ed64bf6a1f0160401b83106112be5772184f03e93ff9f4daa797ed6e38ed64bf6a1f0160401b830492506040015b6d04ee2d6d415b85acef810000000083106112ea576d04ee2d6d415b85acef8100000000830492506020015b662386f26fc10000831061130857662386f26fc10000830492506010015b6305f5e1008310611320576305f5e100830492506008015b612710831061133457612710830492506004015b60648310611346576064830492506002015b600a83106103b25760010192915050565b60006020828403121561136957600080fd5b81356001600160e01b03198116811461138157600080fd5b9392505050565b634e487b7160e01b600052604160045260246000fd5b60405160c0810167ffffffffffffffff811182821017156113c1576113c1611388565b60405290565b60405160a0810167ffffffffffffffff811182821017156113c1576113c1611388565b604051601f8201601f1916810167ffffffffffffffff8111828210171561141357611413611388565b604052919050565b801515811461107b57600080fd5b80356107c58161141b565b6001600160a01b038116811461107b57600080fd5b80356107c581611434565b600067ffffffffffffffff82111561146e5761146e611388565b50601f01601f191660200190565b600082601f83011261148d57600080fd5b81356114a061149b82611454565b6113ea565b8181528460208386010111156114b557600080fd5b816020850160208301376000918101602001919091529392505050565b600060c082840312156114e457600080fd5b6114ec61139e565b9050813567ffffffffffffffff8082111561150657600080fd5b6115128583860161147c565b8352602084013591508082111561152857600080fd5b6115348583860161147c565b6020840152604084013591508082111561154d57600080fd5b5061155a8482850161147c565b604083015250606082013560608201526080820135608082015260a082013560a082015292915050565b60006020828403121561159657600080fd5b813567ffffffffffffffff808211156115ae57600080fd5b9083019060a082860312156115c257600080fd5b6115ca6113c7565b6115d383611429565b81526115e160208401611449565b60208201526040830135828111156115f857600080fd5b611604878286016114d2565b60408301525060608301358281111561161c57600080fd5b6116288782860161147c565b60608301525060808301358281111561164057600080fd5b61164c8782860161147c565b60808301525095945050505050565b60006020828403121561166d57600080fd5b5035919050565b6000806040838503121561168757600080fd5b82359150602083013561169981611434565b809150509250929050565b60005b838110156116bf5781810151838201526020016116a7565b50506000910152565b600081518084526116e08160208601602086016116a4565b601f01601f19169290920160200192915050565b60208152600061138160208301846116c8565b60006020828403121561171957600080fd5b813561138181611434565b60006020828403121561173657600080fd5b813567ffffffffffffffff81111561174d57600080fd5b6117598482850161147c565b949350505050565b6000806020838503121561177457600080fd5b823567ffffffffffffffff8082111561178c57600080fd5b818501915085601f8301126117a057600080fd5b8135818111156117af57600080fd5b8660208285010111156117c157600080fd5b60209290920196919550909350505050565b6000602082840312156117e557600080fd5b81516113818161141b565b600082516118028184602087016116a4565b9190910192915050565b60208152600060018060a01b0380845116602084015280602085015116604084015250604083015160a06060840152805160c0808501526118516101808501826116c8565b9050602082015160bf19808684030160e087015261186f83836116c8565b92506040840151915080868403016101008701525061188e82826116c8565b9150506060820151610120850152608082015161014085015260a082015161016085015260608501519150601f19808583030160808601526118d082846116c8565b925060808601519150808584030160a0860152506118ee82826116c8565b95945050505050565b60006020828403121561190957600080fd5b815161138181611434565b6000825180516119288185602085016116a4565b601f19915081601f820116840190506020850151805161194c8184602085016116a4565b83601f8201168301925050506040850151805161196d8184602085016116a4565b83601f82011683019350505050606084015181526080840151602082015260a084015160408201526060810191505092915050565b600181811c908216806119b657607f821691505b6020821081036119d657634e487b7160e01b600052602260045260246000fd5b50919050565b601f821115610829576000816000526020600020601f850160051c81016020861015611a055750805b601f850160051c820191505b81811015611a2457828155600101611a11565b505050505050565b815167ffffffffffffffff811115611a4657611a46611388565b611a5a81611a5484546119a2565b846119dc565b602080601f831160018114611a8f5760008415611a775750858301515b600019600386901b1c1916600185901b178555611a24565b600085815260208120601f198616915b82811015611abe57888601518255948401946001909101908401611a9f565b5085821015611adc5787850151600019600388901b60f8161c191681555b5050505050600190811b01905550565b600082601f830112611afd57600080fd5b8151611b0b61149b82611454565b818152846020838601011115611b2057600080fd5b6117598260208301602087016116a4565b600060208284031215611b4357600080fd5b815167ffffffffffffffff811115611b5a57600080fd5b61175984828501611aec565b600060208284031215611b7857600080fd5b815167ffffffffffffffff80821115611b9057600080fd5b9083019060c08286031215611ba457600080fd5b611bac61139e565b825182811115611bbb57600080fd5b611bc787828601611aec565b825250602083015182811115611bdc57600080fd5b611be887828601611aec565b602083015250604083015182811115611c0057600080fd5b611c0c87828601611aec565b604083015250606083015160608201526080830151608082015260a083015160a082015280935050505092915050565b634e487b7160e01b600052603260045260246000fd5b600087516020611c658285838d016116a4565b885191840191611c788184848d016116a4565b8851920191611c8a8184848c016116a4565b8751920191611c9c8184848b016116a4565b8651920191611cae8184848a016116a4565b8551920191611cc081848489016116a4565b919091019998505050505050505050565b60ff81811683821601908111156103b257634e487b7160e01b600052601160045260246000fdfea49807205ce4d355092ef5a8a18f56e8913cf4a201fbe287825b095693c21775a26469706673582212205c4d93a04f665ce7073ca106a0d5aac613e8fa0a68313339ec44ab99e27a596164736f6c63430008180033a49807205ce4d355092ef5a8a18f56e8913cf4a201fbe287825b095693c21775",
  "linkReferences": {},
  "deployedLinkReferences": {}
}