{
  "_format": "hh-sol-artifact-1",
  "contractName": "CompanyRegistry",
  "sourceName": "contracts/company/CompanyRegistry.sol",
  "abi": [
    {
      "inputs": [
        {
          "components": [
            {
              "internalType": "address",
              "name": "mainAdmin",
              "type": "address"
            },
            {
              "internalType": "address",
              "name": "companyFactory",
              "type": "address"
            },
            {
              "internalType": "address",
              "name": "worldRegistry",
              "type": "address"
            },
            {
              "internalType": "address[]",
              "name": "admins",
              "type": "address[]"
            }
          ],
          "internalType": "struct CompanyRegistryArgs",
          "name": "args",
          "type": "tuple"
        }
      ],
      "stateMutability": "nonpayable",
      "type": "constructor"
    },
    {
      "inputs": [],
      "name": "AccessControlBadConfirmation",
      "type": "error"
    },
    {
      "inputs": [
        {
          "internalType": "address",
          "name": "account",
          "type": "address"
        },
        {
          "internalType": "bytes32",
          "name": "neededRole",
          "type": "bytes32"
        }
      ],
      "name": "AccessControlUnauthorizedAccount",
      "type": "error"
    },
    {
      "inputs": [],
      "name": "ReentrancyGuardReentrantCall",
      "type": "error"
    },
    {
      "anonymous": false,
      "inputs": [
        {
          "indexed": true,
          "internalType": "address",
          "name": "company",
          "type": "address"
        },
        {
          "components": [
            {
              "internalType": "string",
              "name": "x",
              "type": "string"
            },
            {
              "internalType": "string",
              "name": "y",
              "type": "string"
            },
            {
              "internalType": "string",
              "name": "z",
              "type": "string"
            },
            {
              "internalType": "uint256",
              "name": "t",
              "type": "uint256"
            },
            {
              "internalType": "uint256",
              "name": "p",
              "type": "uint256"
            },
            {
              "internalType": "uint256",
              "name": "p_sub",
              "type": "uint256"
            }
          ],
          "indexed": true,
          "internalType": "struct VectorAddress",
          "name": "",
          "type": "tuple"
        }
      ],
      "name": "CompanyRegistered",
      "type": "event"
    },
    {
      "anonymous": false,
      "inputs": [
        {
          "indexed": true,
          "internalType": "bytes32",
          "name": "role",
          "type": "bytes32"
        },
        {
          "indexed": true,
          "internalType": "bytes32",
          "name": "previousAdminRole",
          "type": "bytes32"
        },
        {
          "indexed": true,
          "internalType": "bytes32",
          "name": "newAdminRole",
          "type": "bytes32"
        }
      ],
      "name": "RoleAdminChanged",
      "type": "event"
    },
    {
      "anonymous": false,
      "inputs": [
        {
          "indexed": true,
          "internalType": "bytes32",
          "name": "role",
          "type": "bytes32"
        },
        {
          "indexed": true,
          "internalType": "address",
          "name": "account",
          "type": "address"
        },
        {
          "indexed": true,
          "internalType": "address",
          "name": "sender",
          "type": "address"
        }
      ],
      "name": "RoleGranted",
      "type": "event"
    },
    {
      "anonymous": false,
      "inputs": [
        {
          "indexed": true,
          "internalType": "bytes32",
          "name": "role",
          "type": "bytes32"
        },
        {
          "indexed": true,
          "internalType": "address",
          "name": "account",
          "type": "address"
        },
        {
          "indexed": true,
          "internalType": "address",
          "name": "sender",
          "type": "address"
        }
      ],
      "name": "RoleRevoked",
      "type": "event"
    },
    {
      "inputs": [],
      "name": "ADMIN_ROLE",
      "outputs": [
        {
          "internalType": "bytes32",
          "name": "",
          "type": "bytes32"
        }
      ],
      "stateMutability": "view",
      "type": "function"
    },
    {
      "inputs": [],
      "name": "DEFAULT_ADMIN_ROLE",
      "outputs": [
        {
          "internalType": "bytes32",
          "name": "",
          "type": "bytes32"
        }
      ],
      "stateMutability": "view",
      "type": "function"
    },
    {
      "inputs": [],
      "name": "companyFactory",
      "outputs": [
        {
          "internalType": "contract ICompanyFactory",
          "name": "",
          "type": "address"
        }
      ],
      "stateMutability": "view",
      "type": "function"
    },
    {
      "inputs": [
        {
          "internalType": "bytes32",
          "name": "role",
          "type": "bytes32"
        }
      ],
      "name": "getRoleAdmin",
      "outputs": [
        {
          "internalType": "bytes32",
          "name": "",
          "type": "bytes32"
        }
      ],
      "stateMutability": "view",
      "type": "function"
    },
    {
      "inputs": [
        {
          "internalType": "bytes32",
          "name": "role",
          "type": "bytes32"
        },
        {
          "internalType": "address",
          "name": "account",
          "type": "address"
        }
      ],
      "name": "grantRole",
      "outputs": [],
      "stateMutability": "nonpayable",
      "type": "function"
    },
    {
      "inputs": [
        {
          "internalType": "bytes32",
          "name": "role",
          "type": "bytes32"
        },
        {
          "internalType": "address",
          "name": "account",
          "type": "address"
        }
      ],
      "name": "hasRole",
      "outputs": [
        {
          "internalType": "bool",
          "name": "",
          "type": "bool"
        }
      ],
      "stateMutability": "view",
      "type": "function"
    },
    {
      "inputs": [
        {
          "internalType": "address",
          "name": "company",
          "type": "address"
        }
      ],
      "name": "isRegisteredCompany",
      "outputs": [
        {
          "internalType": "bool",
          "name": "",
          "type": "bool"
        }
      ],
      "stateMutability": "view",
      "type": "function"
    },
    {
      "inputs": [
        {
          "components": [
            {
              "internalType": "address",
              "name": "owner",
              "type": "address"
            },
            {
              "components": [
                {
                  "internalType": "string",
                  "name": "x",
                  "type": "string"
                },
                {
                  "internalType": "string",
                  "name": "y",
                  "type": "string"
                },
                {
                  "internalType": "string",
                  "name": "z",
                  "type": "string"
                },
                {
                  "internalType": "uint256",
                  "name": "t",
                  "type": "uint256"
                },
                {
                  "internalType": "uint256",
                  "name": "p",
                  "type": "uint256"
                },
                {
                  "internalType": "uint256",
                  "name": "p_sub",
                  "type": "uint256"
                }
              ],
              "internalType": "struct VectorAddress",
              "name": "vector",
              "type": "tuple"
            },
            {
              "internalType": "bytes",
              "name": "initData",
              "type": "bytes"
            },
            {
              "internalType": "string",
              "name": "name",
              "type": "string"
            }
          ],
          "internalType": "struct CompanyRegistrationRequest",
          "name": "request",
          "type": "tuple"
        }
      ],
      "name": "registerCompany",
      "outputs": [
        {
          "internalType": "address",
          "name": "",
          "type": "address"
        }
      ],
      "stateMutability": "nonpayable",
      "type": "function"
    },
    {
      "inputs": [
        {
          "internalType": "bytes32",
          "name": "role",
          "type": "bytes32"
        },
        {
          "internalType": "address",
          "name": "callerConfirmation",
          "type": "address"
        }
      ],
      "name": "renounceRole",
      "outputs": [],
      "stateMutability": "nonpayable",
      "type": "function"
    },
    {
      "inputs": [
        {
          "internalType": "bytes32",
          "name": "role",
          "type": "bytes32"
        },
        {
          "internalType": "address",
          "name": "account",
          "type": "address"
        }
      ],
      "name": "revokeRole",
      "outputs": [],
      "stateMutability": "nonpayable",
      "type": "function"
    },
    {
      "inputs": [
        {
          "internalType": "address",
          "name": "factory",
          "type": "address"
        }
      ],
      "name": "setCompanyFactory",
      "outputs": [],
      "stateMutability": "nonpayable",
      "type": "function"
    },
    {
      "inputs": [
        {
          "internalType": "address",
          "name": "registry",
          "type": "address"
        }
      ],
      "name": "setWorldRegistry",
      "outputs": [],
      "stateMutability": "nonpayable",
      "type": "function"
    },
    {
      "inputs": [
        {
          "internalType": "bytes4",
          "name": "interfaceId",
          "type": "bytes4"
        }
      ],
      "name": "supportsInterface",
      "outputs": [
        {
          "internalType": "bool",
          "name": "",
          "type": "bool"
        }
      ],
      "stateMutability": "view",
      "type": "function"
    },
    {
      "inputs": [
        {
          "internalType": "bytes",
          "name": "initData",
          "type": "bytes"
        }
      ],
      "name": "upgradeCompany",
      "outputs": [],
      "stateMutability": "nonpayable",
      "type": "function"
    },
    {
      "inputs": [],
      "name": "worldRegistry",
      "outputs": [
        {
          "internalType": "contract IWorldRegistry0_2",
          "name": "",
          "type": "address"
        }
      ],
      "stateMutability": "view",
      "type": "function"
    }
  ],
  "bytecode": "0x60806040523480156200001157600080fd5b5060405162001ed738038062001ed783398101604081905262000034916200042a565b600160005580516001600160a01b0316620000ae5760405162461bcd60e51b815260206004820152602f60248201527f436f6d70616e7952656769737472793a206d61696e2061646d696e206164647260448201526e06573732063616e6e6f74206265203608c1b60648201526084015b60405180910390fd5b8051620000be9060009062000302565b508051620000dd9060008051602062001eb78339815191529062000302565b5060208101516001600160a01b03166200014f5760405162461bcd60e51b815260206004820152602c60248201527f436f6d70616e7952656769737472793a20666163746f7279206164647265737360448201526b02063616e6e6f7420626520360a41b6064820152608401620000a5565b60408101516001600160a01b0316620001d15760405162461bcd60e51b815260206004820152603360248201527f436f6d70616e7952656769737472793a20776f726c642072656769737472792060448201527f616464726573732063616e6e6f742062652030000000000000000000000000006064820152608401620000a5565b6020810151600280546001600160a01b039283166001600160a01b03199182161790915560408301516003805491909316911617905560005b816060015151811015620002fa5760006001600160a01b0316826060015182815181106200023c576200023c6200054d565b60200260200101516001600160a01b031603620002af5760405162461bcd60e51b815260206004820152602a60248201527f436f6d70616e7952656769737472793a2061646d696e206164647265737320636044820152690616e6e6f7420626520360b41b6064820152608401620000a5565b620002f060008051602062001eb783398151915283606001518381518110620002dc57620002dc6200054d565b60200260200101516200030260201b60201c565b506001016200020a565b505062000563565b60008281526001602090815260408083206001600160a01b038516845290915281205460ff166200038f5760008381526001602081815260408084206001600160a01b0387168086529252808420805460ff19169093179092559051339286917f2f8788117e7eff1d82e926ec794901d17c78024a50270940304540a733656f0d9190a450600162000393565b5060005b92915050565b634e487b7160e01b600052604160045260246000fd5b604051608081016001600160401b0381118282101715620003d457620003d462000399565b60405290565b604051601f8201601f191681016001600160401b038111828210171562000405576200040562000399565b604052919050565b80516001600160a01b03811681146200042557600080fd5b919050565b600060208083850312156200043e57600080fd5b82516001600160401b03808211156200045657600080fd5b90840190608082870312156200046b57600080fd5b62000475620003af565b62000480836200040d565b81526200048f8484016200040d565b84820152620004a1604084016200040d565b6040820152606083015182811115620004b957600080fd5b80840193505086601f840112620004cf57600080fd5b825182811115620004e457620004e462000399565b8060051b9250620004f7858401620003da565b81815292840185019285810190898511156200051257600080fd5b948601945b848610156200053b576200052b866200040d565b8252948601949086019062000517565b60608401525090979650505050505050565b634e487b7160e01b600052603260045260246000fd5b61194480620005736000396000f3fe608060405234801561001057600080fd5b50600436106100f55760003560e01c8063911c2a8c11610097578063d449cf2511610066578063d449cf251461023b578063d547741f1461024e578063dc1c44be14610261578063e237fbad1461027457600080fd5b8063911c2a8c146101e257806391d148541461020d578063a217fddf14610220578063cb70d6c41461022857600080fd5b806336568abe116100d357806336568abe1461016957806375b238fc1461017c57806382c154e0146101a357806390159c94146101b657600080fd5b806301ffc9a7146100fa578063248a9ca3146101225780632f2ff15d14610154575b600080fd5b61010d61010836600461114b565b610287565b60405190151581526020015b60405180910390f35b61014661013036600461117c565b6000908152600160208190526040909120015490565b604051908152602001610119565b6101676101623660046111aa565b6102be565b005b6101676101773660046111aa565b6102ea565b6101467fa49807205ce4d355092ef5a8a18f56e8913cf4a201fbe287825b095693c2177581565b6101676101b13660046111da565b610322565b61010d6101c43660046111da565b6001600160a01b031660009081526005602052604090205460ff1690565b6003546101f5906001600160a01b031681565b6040516001600160a01b039091168152602001610119565b61010d61021b3660046111aa565b6103df565b610146600081565b6101f5610236366004611308565b61040a565b610167610249366004611464565b610793565b61016761025c3660046111aa565b610c7c565b6002546101f5906001600160a01b031681565b6101676102823660046111da565b610ca2565b60006001600160e01b03198216637965db0b60e01b14806102b857506301ffc9a760e01b6001600160e01b03198316145b92915050565b600082815260016020819052604090912001546102da81610d61565b6102e48383610d6e565b50505050565b6001600160a01b03811633146103135760405163334bd91960e11b815260040160405180910390fd5b61031d8282610de7565b505050565b7fa49807205ce4d355092ef5a8a18f56e8913cf4a201fbe287825b095693c2177561034c81610d61565b6001600160a01b0382166103bc5760405162461bcd60e51b815260206004820152602c60248201527f436f6d70616e7952656769737472793a20666163746f7279206164647265737360448201526b02063616e6e6f7420626520360a41b60648201526084015b60405180910390fd5b50600280546001600160a01b0319166001600160a01b0392909216919091179055565b60009182526001602090815260408084206001600160a01b0393909316845291905290205460ff1690565b600354604051637856879f60e11b81523360048201526000916001600160a01b03169063f0ad0f3e90602401602060405180830381865afa158015610453573d6000803e3d6000fd5b505050506040513d601f19601f8201168201806040525081019061047791906114d6565b6104d25760405162461bcd60e51b815260206004820152602660248201527f436f6d70616e7952656769737472793a2063616c6c6572206973206e6f742061604482015265081ddbdc9b1960d21b60648201526084016103b3565b6104da610e54565b60006104e98360600151610e7e565b905060006001600160a01b0316600482604051610506919061151c565b908152604051908190036020019020546001600160a01b0316146105805760405162461bcd60e51b815260206004820152602b60248201527f436f6d70616e7952656769737472793a20636f6d70616e79206e616d6520616c60448201526a3932b0b23c903a30b5b2b760a91b60648201526084016103b3565b6002546040805160a08101825285516001600160a01b03908116825233602080840191909152870151828401528683015160608084019190915287015160808301529151637be4fdd760e11b8152600093929092169163f7c9fbae916105e891600401611564565b6020604051808303816000875af1158015610607573d6000803e3d6000fd5b505050506040513d601f19601f8201168201806040525081019061062b919061164f565b90506001600160a01b0381166106945760405162461bcd60e51b815260206004820152602860248201527f436f6d70616e7952656769737472793a20636f6d70616e79206372656174696f6044820152671b8819985a5b195960c21b60648201526084016103b3565b806004836040516106a5919061151c565b908152604080516020928190038301902080546001600160a01b0319166001600160a01b03948516179055918316600090815260058252918220805460ff1916600117905585015182916006916106fb90610eee565b80519060200120815260200190815260200160002060006101000a8154816001600160a01b0302191690836001600160a01b031602179055508360200151604051610746919061166c565b604051908190038120906001600160a01b038316907f7d4bf7edd813e2887ba5c21733818d0fb09a3e972e1dbc39a7f639fda34dd71490600090a391505061078e6001600055565b919050565b3360009081526005602052604090205460ff166108035760405162461bcd60e51b815260206004820152602860248201527f436f6d70616e7952656769737472793a2063616c6c6572206973206e6f74206160448201526720636f6d70616e7960c01b60648201526084016103b3565b61080b610e54565b60003390506000610880826001600160a01b03166306fdde036040518163ffffffff1660e01b8152600401600060405180830381865afa158015610853573d6000803e3d6000fd5b505050506040513d6000823e601f3d908101601f1916820160405261087b9190810190611747565b610e7e565b905060006040518060a00160405280846001600160a01b0316638da5cb5b6040518163ffffffff1660e01b8152600401602060405180830381865afa1580156108cd573d6000803e3d6000fd5b505050506040513d601f19601f820116820180604052508101906108f1919061164f565b6001600160a01b03168152602001846001600160a01b03166330b67baa6040518163ffffffff1660e01b8152600401602060405180830381865afa15801561093d573d6000803e3d6000fd5b505050506040513d601f19601f82011682018060405250810190610961919061164f565b6001600160a01b03168152602001846001600160a01b0316632fcbab9a6040518163ffffffff1660e01b8152600401600060405180830381865afa1580156109ad573d6000803e3d6000fd5b505050506040513d6000823e601f3d908101601f191682016040526109d5919081019061177c565b815260200186868080601f01602080910402602001604051908101604052809392919081815260200183838082843760009201829052509385525050604080516306fdde0360e01b815290516020909401936001600160a01b038916936306fdde0393506004808401939192918290030181865afa158015610a5b573d6000803e3d6000fd5b505050506040513d6000823e601f3d908101601f19168201604052610a839190810190611747565b9052600254604051637be4fdd760e11b81529192506000916001600160a01b039091169063f7c9fbae90610abb908590600401611564565b6020604051808303816000875af1158015610ada573d6000803e3d6000fd5b505050506040513d601f19601f82011682018060405250810190610afe919061164f565b90506001600160a01b038116610b665760405162461bcd60e51b815260206004820152602760248201527f436f6d70616e7952656769737472793a20636f6d70616e7920757067726164656044820152660819985a5b195960ca1b60648201526084016103b3565b80600484604051610b77919061151c565b908152604080516020928190038301902080546001600160a01b0319166001600160a01b0394851617905591831660009081526005909152818120805460ff19166001179055908301518291600691610bcf90610eee565b80516020918201208252810191909152604090810160002080546001600160a01b0319166001600160a01b0393841617905551632663d1f760e01b8152828216600482015290851690632663d1f790602401600060405180830381600087803b158015610c3b57600080fd5b505af1158015610c4f573d6000803e3d6000fd5b5050336000908152600560205260409020805460ff1916905550610c789450610f519350505050565b5050565b60008281526001602081905260409091200154610c9881610d61565b6102e48383610de7565b7fa49807205ce4d355092ef5a8a18f56e8913cf4a201fbe287825b095693c21775610ccc81610d61565b6001600160a01b038216610d3e5760405162461bcd60e51b815260206004820152603360248201527f436f6d70616e7952656769737472793a20776f726c64207265676973747279206044820152720616464726573732063616e6e6f74206265203606c1b60648201526084016103b3565b50600380546001600160a01b0319166001600160a01b0392909216919091179055565b610d6b8133610f58565b50565b6000610d7a83836103df565b610ddf5760008381526001602081815260408084206001600160a01b0387168086529252808420805460ff19169093179092559051339286917f2f8788117e7eff1d82e926ec794901d17c78024a50270940304540a733656f0d9190a45060016102b8565b5060006102b8565b6000610df383836103df565b15610ddf5760008381526001602090815260408083206001600160a01b0386168085529252808320805460ff1916905551339286917ff6391f5c32d9c69d2a47ea670b442974b53935d1edc7fd64eb21e047a839171b9190a45060016102b8565b600260005403610e7757604051633ee5aeb560e01b815260040160405180910390fd5b6002600055565b60608160005b8151811015610ee757610eb6828281518110610ea257610ea2611852565b01602001516001600160f81b031916610f91565b828281518110610ec857610ec8611852565b60200101906001600160f81b031916908160001a905350600101610e84565b5092915050565b6060816000015182602001518360400151610f0c8560600151610fe0565b610f198660800151610fe0565b610f268760a00151610fe0565b604051602001610f3b96959493929190611868565b6040516020818303038152906040529050919050565b6001600055565b610f6282826103df565b610c785760405163e2517d3f60e01b81526001600160a01b0382166004820152602481018390526044016103b3565b6000604160f81b6001600160f81b0319831610801590610fbf5750602d60f91b6001600160f81b0319831611155b15610fdc57610fd360f883901c60206118e7565b60f81b92915050565b5090565b60606000610fed83611073565b600101905060008167ffffffffffffffff81111561100d5761100d6111f7565b6040519080825280601f01601f191660200182016040528015611037576020820181803683370190505b5090508181016020015b600019016f181899199a1a9b1b9c1cb0b131b232b360811b600a86061a8153600a850494508461104157509392505050565b60008072184f03e93ff9f4daa797ed6e38ed64bf6a1f0160401b83106110b25772184f03e93ff9f4daa797ed6e38ed64bf6a1f0160401b830492506040015b6d04ee2d6d415b85acef810000000083106110de576d04ee2d6d415b85acef8100000000830492506020015b662386f26fc1000083106110fc57662386f26fc10000830492506010015b6305f5e1008310611114576305f5e100830492506008015b612710831061112857612710830492506004015b6064831061113a576064830492506002015b600a83106102b85760010192915050565b60006020828403121561115d57600080fd5b81356001600160e01b03198116811461117557600080fd5b9392505050565b60006020828403121561118e57600080fd5b5035919050565b6001600160a01b0381168114610d6b57600080fd5b600080604083850312156111bd57600080fd5b8235915060208301356111cf81611195565b809150509250929050565b6000602082840312156111ec57600080fd5b813561117581611195565b634e487b7160e01b600052604160045260246000fd5b6040516080810167ffffffffffffffff81118282101715611230576112306111f7565b60405290565b60405160c0810167ffffffffffffffff81118282101715611230576112306111f7565b604051601f8201601f1916810167ffffffffffffffff81118282101715611282576112826111f7565b604052919050565b600067ffffffffffffffff8211156112a4576112a46111f7565b50601f01601f191660200190565b600082601f8301126112c357600080fd5b81356112d66112d18261128a565b611259565b8181528460208386010111156112eb57600080fd5b816020850160208301376000918101602001919091529392505050565b60006020828403121561131a57600080fd5b813567ffffffffffffffff8082111561133257600080fd5b908301906080828603121561134657600080fd5b61134e61120d565b823561135981611195565b815260208301358281111561136d57600080fd5b830160c0818803121561137f57600080fd5b611387611236565b81358481111561139657600080fd5b6113a2898285016112b2565b8252506020820135848111156113b757600080fd5b6113c3898285016112b2565b6020830152506040820135848111156113db57600080fd5b6113e7898285016112b2565b604083015250606082013560608201526080820135608082015260a082013560a0820152806020840152505060408301358281111561142557600080fd5b611431878286016112b2565b60408301525060608301358281111561144957600080fd5b611455878286016112b2565b60608301525095945050505050565b6000806020838503121561147757600080fd5b823567ffffffffffffffff8082111561148f57600080fd5b818501915085601f8301126114a357600080fd5b8135818111156114b257600080fd5b8660208285010111156114c457600080fd5b60209290920196919550909350505050565b6000602082840312156114e857600080fd5b8151801515811461117557600080fd5b60005b838110156115135781810151838201526020016114fb565b50506000910152565b6000825161152e8184602087016114f8565b9190910192915050565b600081518084526115508160208601602086016114f8565b601f01601f19169290920160200192915050565b60208152600060018060a01b0380845116602084015280602085015116604084015250604083015160a06060840152805160c0808501526115a9610180850182611538565b9050602082015160bf19808684030160e08701526115c78383611538565b9250604084015191508086840301610100870152506115e68282611538565b9150506060820151610120850152608082015161014085015260a082015161016085015260608501519150601f19808583030160808601526116288284611538565b925060808601519150808584030160a0860152506116468282611538565b95945050505050565b60006020828403121561166157600080fd5b815161117581611195565b6000825180516116808185602085016114f8565b601f19915081601f82011684019050602085015180516116a48184602085016114f8565b83601f820116830192505050604085015180516116c58184602085016114f8565b83601f82011683019350505050606084015181526080840151602082015260a084015160408201526060810191505092915050565b600082601f83011261170b57600080fd5b81516117196112d18261128a565b81815284602083860101111561172e57600080fd5b61173f8260208301602087016114f8565b949350505050565b60006020828403121561175957600080fd5b815167ffffffffffffffff81111561177057600080fd5b61173f848285016116fa565b60006020828403121561178e57600080fd5b815167ffffffffffffffff808211156117a657600080fd5b9083019060c082860312156117ba57600080fd5b6117c2611236565b8251828111156117d157600080fd5b6117dd878286016116fa565b8252506020830151828111156117f257600080fd5b6117fe878286016116fa565b60208301525060408301518281111561181657600080fd5b611822878286016116fa565b604083015250606083015160608201526080830151608082015260a083015160a082015280935050505092915050565b634e487b7160e01b600052603260045260246000fd5b60008751602061187b8285838d016114f8565b88519184019161188e8184848d016114f8565b88519201916118a08184848c016114f8565b87519201916118b28184848b016114f8565b86519201916118c48184848a016114f8565b85519201916118d681848489016114f8565b919091019998505050505050505050565b60ff81811683821601908111156102b857634e487b7160e01b600052601160045260246000fdfea26469706673582212202fa5dc60c95f0fd0e685180724864b0b4eae930f21f5bb47919f00e2d3642aea64736f6c63430008180033a49807205ce4d355092ef5a8a18f56e8913cf4a201fbe287825b095693c21775",
  "linkReferences": {},
  "deployedLinkReferences": {}
}