{
  "_format": "hh-sol-artifact-1",
  "contractName": "CompanyRegistry",
  "sourceName": "contracts/company/CompanyRegistry.sol",
  "abi": [
    {
      "inputs": [
        {
          "components": [
            {
              "internalType": "address",
              "name": "mainAdmin",
              "type": "address"
            },
            {
              "internalType": "address",
              "name": "companyFactory",
              "type": "address"
            },
            {
              "internalType": "address",
              "name": "worldRegistry",
              "type": "address"
            },
            {
              "internalType": "address[]",
              "name": "admins",
              "type": "address[]"
            }
          ],
          "internalType": "struct CompanyRegistryArgs",
          "name": "args",
          "type": "tuple"
        }
      ],
      "stateMutability": "nonpayable",
      "type": "constructor"
    },
    {
      "inputs": [],
      "name": "AccessControlBadConfirmation",
      "type": "error"
    },
    {
      "inputs": [
        {
          "internalType": "address",
          "name": "account",
          "type": "address"
        },
        {
          "internalType": "bytes32",
          "name": "neededRole",
          "type": "bytes32"
        }
      ],
      "name": "AccessControlUnauthorizedAccount",
      "type": "error"
    },
    {
      "inputs": [],
      "name": "ReentrancyGuardReentrantCall",
      "type": "error"
    },
    {
      "anonymous": false,
      "inputs": [
        {
          "indexed": true,
          "internalType": "address",
          "name": "company",
          "type": "address"
        },
        {
          "components": [
            {
              "internalType": "string",
              "name": "x",
              "type": "string"
            },
            {
              "internalType": "string",
              "name": "y",
              "type": "string"
            },
            {
              "internalType": "string",
              "name": "z",
              "type": "string"
            },
            {
              "internalType": "uint256",
              "name": "t",
              "type": "uint256"
            },
            {
              "internalType": "uint256",
              "name": "p",
              "type": "uint256"
            },
            {
              "internalType": "uint256",
              "name": "p_sub",
              "type": "uint256"
            }
          ],
          "indexed": true,
          "internalType": "struct VectorAddress",
          "name": "",
          "type": "tuple"
        }
      ],
      "name": "CompanyRegistered",
      "type": "event"
    },
    {
      "anonymous": false,
      "inputs": [
        {
          "indexed": true,
          "internalType": "bytes32",
          "name": "role",
          "type": "bytes32"
        },
        {
          "indexed": true,
          "internalType": "bytes32",
          "name": "previousAdminRole",
          "type": "bytes32"
        },
        {
          "indexed": true,
          "internalType": "bytes32",
          "name": "newAdminRole",
          "type": "bytes32"
        }
      ],
      "name": "RoleAdminChanged",
      "type": "event"
    },
    {
      "anonymous": false,
      "inputs": [
        {
          "indexed": true,
          "internalType": "bytes32",
          "name": "role",
          "type": "bytes32"
        },
        {
          "indexed": true,
          "internalType": "address",
          "name": "account",
          "type": "address"
        },
        {
          "indexed": true,
          "internalType": "address",
          "name": "sender",
          "type": "address"
        }
      ],
      "name": "RoleGranted",
      "type": "event"
    },
    {
      "anonymous": false,
      "inputs": [
        {
          "indexed": true,
          "internalType": "bytes32",
          "name": "role",
          "type": "bytes32"
        },
        {
          "indexed": true,
          "internalType": "address",
          "name": "account",
          "type": "address"
        },
        {
          "indexed": true,
          "internalType": "address",
          "name": "sender",
          "type": "address"
        }
      ],
      "name": "RoleRevoked",
      "type": "event"
    },
    {
      "inputs": [],
      "name": "ADMIN_ROLE",
      "outputs": [
        {
          "internalType": "bytes32",
          "name": "",
          "type": "bytes32"
        }
      ],
      "stateMutability": "view",
      "type": "function"
    },
    {
      "inputs": [],
      "name": "DEFAULT_ADMIN_ROLE",
      "outputs": [
        {
          "internalType": "bytes32",
          "name": "",
          "type": "bytes32"
        }
      ],
      "stateMutability": "view",
      "type": "function"
    },
    {
      "inputs": [],
      "name": "companyFactory",
      "outputs": [
        {
          "internalType": "contract ICompanyFactory",
          "name": "",
          "type": "address"
        }
      ],
      "stateMutability": "view",
      "type": "function"
    },
    {
      "inputs": [],
      "name": "currentCompanyVersion",
      "outputs": [
        {
          "internalType": "uint256",
          "name": "",
          "type": "uint256"
        }
      ],
      "stateMutability": "view",
      "type": "function"
    },
    {
      "inputs": [
        {
          "internalType": "bytes32",
          "name": "role",
          "type": "bytes32"
        }
      ],
      "name": "getRoleAdmin",
      "outputs": [
        {
          "internalType": "bytes32",
          "name": "",
          "type": "bytes32"
        }
      ],
      "stateMutability": "view",
      "type": "function"
    },
    {
      "inputs": [
        {
          "internalType": "bytes32",
          "name": "role",
          "type": "bytes32"
        },
        {
          "internalType": "address",
          "name": "account",
          "type": "address"
        }
      ],
      "name": "grantRole",
      "outputs": [],
      "stateMutability": "nonpayable",
      "type": "function"
    },
    {
      "inputs": [
        {
          "internalType": "bytes32",
          "name": "role",
          "type": "bytes32"
        },
        {
          "internalType": "address",
          "name": "account",
          "type": "address"
        }
      ],
      "name": "hasRole",
      "outputs": [
        {
          "internalType": "bool",
          "name": "",
          "type": "bool"
        }
      ],
      "stateMutability": "view",
      "type": "function"
    },
    {
      "inputs": [
        {
          "internalType": "address",
          "name": "company",
          "type": "address"
        }
      ],
      "name": "isRegisteredCompany",
      "outputs": [
        {
          "internalType": "bool",
          "name": "",
          "type": "bool"
        }
      ],
      "stateMutability": "view",
      "type": "function"
    },
    {
      "inputs": [
        {
          "components": [
            {
              "internalType": "bool",
              "name": "sendTokensToCompanyOwner",
              "type": "bool"
            },
            {
              "internalType": "address",
              "name": "owner",
              "type": "address"
            },
            {
              "components": [
                {
                  "internalType": "string",
                  "name": "x",
                  "type": "string"
                },
                {
                  "internalType": "string",
                  "name": "y",
                  "type": "string"
                },
                {
                  "internalType": "string",
                  "name": "z",
                  "type": "string"
                },
                {
                  "internalType": "uint256",
                  "name": "t",
                  "type": "uint256"
                },
                {
                  "internalType": "uint256",
                  "name": "p",
                  "type": "uint256"
                },
                {
                  "internalType": "uint256",
                  "name": "p_sub",
                  "type": "uint256"
                }
              ],
              "internalType": "struct VectorAddress",
              "name": "vector",
              "type": "tuple"
            },
            {
              "internalType": "bytes",
              "name": "initData",
              "type": "bytes"
            },
            {
              "internalType": "string",
              "name": "name",
              "type": "string"
            }
          ],
          "internalType": "struct CompanyRegistrationRequest",
          "name": "request",
          "type": "tuple"
        }
      ],
      "name": "registerCompany",
      "outputs": [
        {
          "internalType": "address",
          "name": "",
          "type": "address"
        }
      ],
      "stateMutability": "payable",
      "type": "function"
    },
    {
      "inputs": [
        {
          "internalType": "bytes32",
          "name": "role",
          "type": "bytes32"
        },
        {
          "internalType": "address",
          "name": "callerConfirmation",
          "type": "address"
        }
      ],
      "name": "renounceRole",
      "outputs": [],
      "stateMutability": "nonpayable",
      "type": "function"
    },
    {
      "inputs": [
        {
          "internalType": "bytes32",
          "name": "role",
          "type": "bytes32"
        },
        {
          "internalType": "address",
          "name": "account",
          "type": "address"
        }
      ],
      "name": "revokeRole",
      "outputs": [],
      "stateMutability": "nonpayable",
      "type": "function"
    },
    {
      "inputs": [
        {
          "internalType": "address",
          "name": "factory",
          "type": "address"
        }
      ],
      "name": "setCompanyFactory",
      "outputs": [],
      "stateMutability": "nonpayable",
      "type": "function"
    },
    {
      "inputs": [
        {
          "internalType": "address",
          "name": "registry",
          "type": "address"
        }
      ],
      "name": "setWorldRegistry",
      "outputs": [],
      "stateMutability": "nonpayable",
      "type": "function"
    },
    {
      "inputs": [
        {
          "internalType": "bytes4",
          "name": "interfaceId",
          "type": "bytes4"
        }
      ],
      "name": "supportsInterface",
      "outputs": [
        {
          "internalType": "bool",
          "name": "",
          "type": "bool"
        }
      ],
      "stateMutability": "view",
      "type": "function"
    },
    {
      "inputs": [
        {
          "internalType": "bytes",
          "name": "initData",
          "type": "bytes"
        }
      ],
      "name": "upgradeCompany",
      "outputs": [],
      "stateMutability": "nonpayable",
      "type": "function"
    },
    {
      "inputs": [],
      "name": "worldRegistry",
      "outputs": [
        {
          "internalType": "contract IWorldRegistryV2",
          "name": "",
          "type": "address"
        }
      ],
      "stateMutability": "view",
      "type": "function"
    },
    {
      "stateMutability": "payable",
      "type": "receive"
    }
  ],
  "bytecode": "0x60806040523480156200001157600080fd5b5060405162001c4638038062001c4683398101604081905262000034916200042a565b600160005580516001600160a01b0316620000ae5760405162461bcd60e51b815260206004820152602f60248201527f436f6d70616e7952656769737472793a206d61696e2061646d696e206164647260448201526e06573732063616e6e6f74206265203608c1b60648201526084015b60405180910390fd5b8051620000be9060009062000302565b508051620000dd9060008051602062001c268339815191529062000302565b5060208101516001600160a01b03166200014f5760405162461bcd60e51b815260206004820152602c60248201527f436f6d70616e7952656769737472793a20666163746f7279206164647265737360448201526b02063616e6e6f7420626520360a41b6064820152608401620000a5565b60408101516001600160a01b0316620001d15760405162461bcd60e51b815260206004820152603360248201527f436f6d70616e7952656769737472793a20776f726c642072656769737472792060448201527f616464726573732063616e6e6f742062652030000000000000000000000000006064820152608401620000a5565b6020810151600280546001600160a01b039283166001600160a01b03199182161790915560408301516003805491909316911617905560005b816060015151811015620002fa5760006001600160a01b0316826060015182815181106200023c576200023c6200054d565b60200260200101516001600160a01b031603620002af5760405162461bcd60e51b815260206004820152602a60248201527f436f6d70616e7952656769737472793a2061646d696e206164647265737320636044820152690616e6e6f7420626520360b41b6064820152608401620000a5565b620002f060008051602062001c2683398151915283606001518381518110620002dc57620002dc6200054d565b60200260200101516200030260201b60201c565b506001016200020a565b505062000563565b60008281526001602090815260408083206001600160a01b038516845290915281205460ff166200038f5760008381526001602081815260408084206001600160a01b0387168086529252808420805460ff19169093179092559051339286917f2f8788117e7eff1d82e926ec794901d17c78024a50270940304540a733656f0d9190a450600162000393565b5060005b92915050565b634e487b7160e01b600052604160045260246000fd5b604051608081016001600160401b0381118282101715620003d457620003d462000399565b60405290565b604051601f8201601f191681016001600160401b038111828210171562000405576200040562000399565b604052919050565b80516001600160a01b03811681146200042557600080fd5b919050565b600060208083850312156200043e57600080fd5b82516001600160401b03808211156200045657600080fd5b90840190608082870312156200046b57600080fd5b62000475620003af565b62000480836200040d565b81526200048f8484016200040d565b84820152620004a1604084016200040d565b6040820152606083015182811115620004b957600080fd5b80840193505086601f840112620004cf57600080fd5b825182811115620004e457620004e462000399565b8060051b9250620004f7858401620003da565b81815292840185019285810190898511156200051257600080fd5b948601945b848610156200053b576200052b866200040d565b8252948601949086019062000517565b60608401525090979650505050505050565b634e487b7160e01b600052603260045260246000fd5b6116b380620005736000396000f3fe6080604052600436106100f75760003560e01c806390159c941161008a578063d449cf2511610059578063d449cf25146102db578063d547741f146102fb578063dc1c44be1461031b578063e237fbad1461033b57600080fd5b806390159c941461024d578063911c2a8c1461028657806391d14854146102a6578063a217fddf146102c657600080fd5b806336568abe116100c657806336568abe146101c45780635c3ce693146101e457806375b238fc146101f957806382c154e01461022d57600080fd5b806301ffc9a71461010357806322feaee614610138578063248a9ca3146101635780632f2ff15d146101a257600080fd5b366100fe57005b600080fd5b34801561010f57600080fd5b5061012361011e366004610f48565b61035b565b60405190151581526020015b60405180910390f35b61014b610146366004611153565b610392565b6040516001600160a01b03909116815260200161012f565b34801561016f57600080fd5b5061019461017e36600461122a565b6000908152600160208190526040909120015490565b60405190815260200161012f565b3480156101ae57600080fd5b506101c26101bd366004611243565b6107a4565b005b3480156101d057600080fd5b506101c26101df366004611243565b6107d0565b3480156101f057600080fd5b50610194610808565b34801561020557600080fd5b506101947fa49807205ce4d355092ef5a8a18f56e8913cf4a201fbe287825b095693c2177581565b34801561023957600080fd5b506101c2610248366004611273565b61087b565b34801561025957600080fd5b50610123610268366004611273565b6001600160a01b031660009081526005602052604090205460ff1690565b34801561029257600080fd5b5060035461014b906001600160a01b031681565b3480156102b257600080fd5b506101236102c1366004611243565b61094e565b3480156102d257600080fd5b50610194600081565b3480156102e757600080fd5b506101c26102f6366004611290565b610979565b34801561030757600080fd5b506101c2610316366004611243565b610a65565b34801561032757600080fd5b5060025461014b906001600160a01b031681565b34801561034757600080fd5b506101c2610356366004611273565b610a8b565b60006001600160e01b03198216637965db0b60e01b148061038c57506301ffc9a760e01b6001600160e01b03198316145b92915050565b600354604051637856879f60e11b81523360048201526000916001600160a01b03169063f0ad0f3e90602401602060405180830381865afa1580156103db573d6000803e3d6000fd5b505050506040513d601f19601f820116820180604052508101906103ff9190611302565b61045f5760405162461bcd60e51b815260206004820152602660248201527f436f6d70616e7952656769737472793a2063616c6c6572206973206e6f742061604482015265081ddbdc9b1960d21b60648201526084015b60405180910390fd5b610467610b65565b60006104768360800151610b8f565b905060006001600160a01b03166004826040516104939190611343565b908152604051908190036020019020546001600160a01b03161461050d5760405162461bcd60e51b815260206004820152602b60248201527f436f6d70616e7952656769737472793a20636f6d70616e79206e616d6520616c60448201526a3932b0b23c903a30b5b2b760a91b6064820152608401610456565b6002546040805160a0810182526020808701516001600160a01b0390811683523391830191909152868301518284015260608088015190830152608080880151908301529151637be4fdd760e11b8152600093929092169163f7c9fbae916105779160040161138b565b6020604051808303816000875af1158015610596573d6000803e3d6000fd5b505050506040513d601f19601f820116820180604052508101906105ba9190611476565b90506001600160a01b0381166106235760405162461bcd60e51b815260206004820152602860248201527f436f6d70616e7952656769737472793a20636f6d70616e79206372656174696f6044820152671b8819985a5b195960c21b6064820152608401610456565b806004836040516106349190611343565b908152604080516020928190038301902080546001600160a01b0319166001600160a01b0394851617905591831660009081526005909152818120805460ff1916600117905590850151829160069161068c90610bff565b8051602091820120825281019190915260400160002080546001600160a01b0319166001600160a01b039290921691909117905534156107455783511561070e5760208401516040516001600160a01b03909116903480156108fc02916000818181858888f19350505050158015610708573d6000803e3d6000fd5b50610745565b6040516001600160a01b038216903480156108fc02916000818181858888f19350505050158015610743573d6000803e3d6000fd5b505b83604001516040516107579190611493565b604051908190038120906001600160a01b038316907f7d4bf7edd813e2887ba5c21733818d0fb09a3e972e1dbc39a7f639fda34dd71490600090a391505061079f6001600055565b919050565b600082815260016020819052604090912001546107c081610c62565b6107ca8383610c6f565b50505050565b6001600160a01b03811633146107f95760405163334bd91960e11b815260040160405180910390fd5b6108038282610ce8565b505050565b6002546040805163e921c27560e01b815290516000926001600160a01b03169163e921c2759160048083019260209291908290030181865afa158015610852573d6000803e3d6000fd5b505050506040513d601f19601f820116820180604052508101906108769190611521565b905090565b6108a57fa49807205ce4d355092ef5a8a18f56e8913cf4a201fbe287825b095693c217753361094e565b6108c15760405162461bcd60e51b81526004016104569061153a565b6001600160a01b03811661092c5760405162461bcd60e51b815260206004820152602c60248201527f436f6d70616e7952656769737472793a20666163746f7279206164647265737360448201526b02063616e6e6f7420626520360a41b6064820152608401610456565b600280546001600160a01b0319166001600160a01b0392909216919091179055565b60009182526001602090815260408084206001600160a01b0393909316845291905290205460ff1690565b3360009081526005602052604090205460ff166109e95760405162461bcd60e51b815260206004820152602860248201527f436f6d70616e7952656769737472793a2063616c6c6572206973206e6f74206160448201526720636f6d70616e7960c01b6064820152608401610456565b6109f1610b65565b600254604051634b48b55d60e11b81526001600160a01b03909116906396916aba90610a2590339086908690600401611581565b600060405180830381600087803b158015610a3f57600080fd5b505af1158015610a53573d6000803e3d6000fd5b50505050610a616001600055565b5050565b60008281526001602081905260409091200154610a8181610c62565b6107ca8383610ce8565b610ab57fa49807205ce4d355092ef5a8a18f56e8913cf4a201fbe287825b095693c217753361094e565b610ad15760405162461bcd60e51b81526004016104569061153a565b6001600160a01b038116610b435760405162461bcd60e51b815260206004820152603360248201527f436f6d70616e7952656769737472793a20776f726c64207265676973747279206044820152720616464726573732063616e6e6f74206265203606c1b6064820152608401610456565b600380546001600160a01b0319166001600160a01b0392909216919091179055565b600260005403610b8857604051633ee5aeb560e01b815260040160405180910390fd5b6002600055565b60608160005b8151811015610bf857610bc7828281518110610bb357610bb36115c1565b01602001516001600160f81b031916610d55565b828281518110610bd957610bd96115c1565b60200101906001600160f81b031916908160001a905350600101610b95565b5092915050565b6060816000015182602001518360400151610c1d8560600151610da4565b610c2a8660800151610da4565b610c378760a00151610da4565b604051602001610c4c969594939291906115d7565b6040516020818303038152906040529050919050565b610c6c8133610e37565b50565b6000610c7b838361094e565b610ce05760008381526001602081815260408084206001600160a01b0387168086529252808420805460ff19169093179092559051339286917f2f8788117e7eff1d82e926ec794901d17c78024a50270940304540a733656f0d9190a450600161038c565b50600061038c565b6000610cf4838361094e565b15610ce05760008381526001602090815260408083206001600160a01b0386168085529252808320805460ff1916905551339286917ff6391f5c32d9c69d2a47ea670b442974b53935d1edc7fd64eb21e047a839171b9190a450600161038c565b6000604160f81b6001600160f81b0319831610801590610d835750602d60f91b6001600160f81b0319831611155b15610da057610d9760f883901c6020611656565b60f81b92915050565b5090565b60606000610db183610e70565b600101905060008167ffffffffffffffff811115610dd157610dd1610f79565b6040519080825280601f01601f191660200182016040528015610dfb576020820181803683370190505b5090508181016020015b600019016f181899199a1a9b1b9c1cb0b131b232b360811b600a86061a8153600a8504945084610e0557509392505050565b610e41828261094e565b610a615760405163e2517d3f60e01b81526001600160a01b038216600482015260248101839052604401610456565b60008072184f03e93ff9f4daa797ed6e38ed64bf6a1f0160401b8310610eaf5772184f03e93ff9f4daa797ed6e38ed64bf6a1f0160401b830492506040015b6d04ee2d6d415b85acef81000000008310610edb576d04ee2d6d415b85acef8100000000830492506020015b662386f26fc100008310610ef957662386f26fc10000830492506010015b6305f5e1008310610f11576305f5e100830492506008015b6127108310610f2557612710830492506004015b60648310610f37576064830492506002015b600a831061038c5760010192915050565b600060208284031215610f5a57600080fd5b81356001600160e01b031981168114610f7257600080fd5b9392505050565b634e487b7160e01b600052604160045260246000fd5b60405160c0810167ffffffffffffffff81118282101715610fb257610fb2610f79565b60405290565b60405160a0810167ffffffffffffffff81118282101715610fb257610fb2610f79565b8015158114610c6c57600080fd5b803561079f81610fdb565b6001600160a01b0381168114610c6c57600080fd5b803561079f81610ff4565b600082601f83011261102557600080fd5b813567ffffffffffffffff8082111561104057611040610f79565b604051601f8301601f19908116603f0116810190828211818310171561106857611068610f79565b8160405283815286602085880101111561108157600080fd5b836020870160208301376000602085830101528094505050505092915050565b600060c082840312156110b357600080fd5b6110bb610f8f565b9050813567ffffffffffffffff808211156110d557600080fd5b6110e185838601611014565b835260208401359150808211156110f757600080fd5b61110385838601611014565b6020840152604084013591508082111561111c57600080fd5b5061112984828501611014565b604083015250606082013560608201526080820135608082015260a082013560a082015292915050565b60006020828403121561116557600080fd5b813567ffffffffffffffff8082111561117d57600080fd5b9083019060a0828603121561119157600080fd5b611199610fb8565b6111a283610fe9565b81526111b060208401611009565b60208201526040830135828111156111c757600080fd5b6111d3878286016110a1565b6040830152506060830135828111156111eb57600080fd5b6111f787828601611014565b60608301525060808301358281111561120f57600080fd5b61121b87828601611014565b60808301525095945050505050565b60006020828403121561123c57600080fd5b5035919050565b6000806040838503121561125657600080fd5b82359150602083013561126881610ff4565b809150509250929050565b60006020828403121561128557600080fd5b8135610f7281610ff4565b600080602083850312156112a357600080fd5b823567ffffffffffffffff808211156112bb57600080fd5b818501915085601f8301126112cf57600080fd5b8135818111156112de57600080fd5b8660208285010111156112f057600080fd5b60209290920196919550909350505050565b60006020828403121561131457600080fd5b8151610f7281610fdb565b60005b8381101561133a578181015183820152602001611322565b50506000910152565b6000825161135581846020870161131f565b9190910192915050565b6000815180845261137781602086016020860161131f565b601f01601f19169290920160200192915050565b60208152600060018060a01b0380845116602084015280602085015116604084015250604083015160a06060840152805160c0808501526113d061018085018261135f565b9050602082015160bf19808684030160e08701526113ee838361135f565b92506040840151915080868403016101008701525061140d828261135f565b9150506060820151610120850152608082015161014085015260a082015161016085015260608501519150601f198085830301608086015261144f828461135f565b925060808601519150808584030160a08601525061146d828261135f565b95945050505050565b60006020828403121561148857600080fd5b8151610f7281610ff4565b6000825180516114a781856020850161131f565b601f19915081601f82011684019050602085015180516114cb81846020850161131f565b83601f820116830192505050604085015180516114ec81846020850161131f565b83601f82011683019350505050606084015181526080840151602082015260a084015160408201526060810191505092915050565b60006020828403121561153357600080fd5b5051919050565b60208082526027908201527f436f6d70616e7952656769737472793a2063616c6c6572206973206e6f742061604082015266371030b236b4b760c91b606082015260800190565b6001600160a01b03841681526040602082018190528101829052818360608301376000818301606090810191909152601f909201601f1916010192915050565b634e487b7160e01b600052603260045260246000fd5b6000875160206115ea8285838d0161131f565b8851918401916115fd8184848d0161131f565b885192019161160f8184848c0161131f565b87519201916116218184848b0161131f565b86519201916116338184848a0161131f565b8551920191611645818484890161131f565b919091019998505050505050505050565b60ff818116838216019081111561038c57634e487b7160e01b600052601160045260246000fdfea26469706673582212200d21d702a5376922725ac4bf58ded444942f7a5417940295cf612166539716c964736f6c63430008180033a49807205ce4d355092ef5a8a18f56e8913cf4a201fbe287825b095693c21775",
  "linkReferences": {},
  "deployedLinkReferences": {}
}