{
  "_format": "hh-sol-artifact-1",
  "contractName": "World0_2",
  "sourceName": "contracts/world/v0.2/World0_2.sol",
  "abi": [
    {
      "inputs": [
        {
          "components": [
            {
              "internalType": "address",
              "name": "worldFactory",
              "type": "address"
            },
            {
              "internalType": "address",
              "name": "worldRegistry",
              "type": "address"
            },
            {
              "internalType": "address",
              "name": "companyRegistry",
              "type": "address"
            },
            {
              "internalType": "address",
              "name": "avatarRegistry",
              "type": "address"
            }
          ],
          "internalType": "struct WorldConstructorArgs",
          "name": "args",
          "type": "tuple"
        }
      ],
      "stateMutability": "nonpayable",
      "type": "constructor"
    },
    {
      "inputs": [],
      "name": "AccessControlBadConfirmation",
      "type": "error"
    },
    {
      "inputs": [
        {
          "internalType": "address",
          "name": "account",
          "type": "address"
        },
        {
          "internalType": "bytes32",
          "name": "neededRole",
          "type": "bytes32"
        }
      ],
      "name": "AccessControlUnauthorizedAccount",
      "type": "error"
    },
    {
      "inputs": [],
      "name": "ReentrancyGuardReentrantCall",
      "type": "error"
    },
    {
      "anonymous": false,
      "inputs": [
        {
          "indexed": true,
          "internalType": "address",
          "name": "avatar",
          "type": "address"
        },
        {
          "indexed": true,
          "internalType": "address",
          "name": "experience",
          "type": "address"
        }
      ],
      "name": "AvatarRegistered",
      "type": "event"
    },
    {
      "anonymous": false,
      "inputs": [
        {
          "indexed": true,
          "internalType": "address",
          "name": "company",
          "type": "address"
        },
        {
          "components": [
            {
              "internalType": "string",
              "name": "x",
              "type": "string"
            },
            {
              "internalType": "string",
              "name": "y",
              "type": "string"
            },
            {
              "internalType": "string",
              "name": "z",
              "type": "string"
            },
            {
              "internalType": "uint256",
              "name": "t",
              "type": "uint256"
            },
            {
              "internalType": "uint256",
              "name": "p",
              "type": "uint256"
            },
            {
              "internalType": "uint256",
              "name": "p_sub",
              "type": "uint256"
            }
          ],
          "indexed": false,
          "internalType": "struct VectorAddress",
          "name": "vector",
          "type": "tuple"
        },
        {
          "indexed": false,
          "internalType": "string",
          "name": "name",
          "type": "string"
        }
      ],
      "name": "CompanyRegistered",
      "type": "event"
    },
    {
      "anonymous": false,
      "inputs": [
        {
          "indexed": true,
          "internalType": "address",
          "name": "sender",
          "type": "address"
        },
        {
          "indexed": false,
          "internalType": "uint256",
          "name": "value",
          "type": "uint256"
        }
      ],
      "name": "ReceivedFunds",
      "type": "event"
    },
    {
      "anonymous": false,
      "inputs": [
        {
          "indexed": true,
          "internalType": "bytes32",
          "name": "role",
          "type": "bytes32"
        },
        {
          "indexed": true,
          "internalType": "bytes32",
          "name": "previousAdminRole",
          "type": "bytes32"
        },
        {
          "indexed": true,
          "internalType": "bytes32",
          "name": "newAdminRole",
          "type": "bytes32"
        }
      ],
      "name": "RoleAdminChanged",
      "type": "event"
    },
    {
      "anonymous": false,
      "inputs": [
        {
          "indexed": true,
          "internalType": "bytes32",
          "name": "role",
          "type": "bytes32"
        },
        {
          "indexed": true,
          "internalType": "address",
          "name": "account",
          "type": "address"
        },
        {
          "indexed": true,
          "internalType": "address",
          "name": "sender",
          "type": "address"
        }
      ],
      "name": "RoleGranted",
      "type": "event"
    },
    {
      "anonymous": false,
      "inputs": [
        {
          "indexed": true,
          "internalType": "bytes32",
          "name": "role",
          "type": "bytes32"
        },
        {
          "indexed": true,
          "internalType": "address",
          "name": "account",
          "type": "address"
        },
        {
          "indexed": true,
          "internalType": "address",
          "name": "sender",
          "type": "address"
        }
      ],
      "name": "RoleRevoked",
      "type": "event"
    },
    {
      "anonymous": false,
      "inputs": [
        {
          "indexed": true,
          "internalType": "address",
          "name": "signer",
          "type": "address"
        }
      ],
      "name": "SignerAdded",
      "type": "event"
    },
    {
      "anonymous": false,
      "inputs": [
        {
          "indexed": true,
          "internalType": "address",
          "name": "signer",
          "type": "address"
        }
      ],
      "name": "SignerRemoved",
      "type": "event"
    },
    {
      "anonymous": false,
      "inputs": [],
      "name": "WorldHookRemoved",
      "type": "event"
    },
    {
      "anonymous": false,
      "inputs": [
        {
          "indexed": true,
          "internalType": "address",
          "name": "hook",
          "type": "address"
        }
      ],
      "name": "WorldHookSet",
      "type": "event"
    },
    {
      "anonymous": false,
      "inputs": [
        {
          "indexed": true,
          "internalType": "address",
          "name": "oldWorld",
          "type": "address"
        },
        {
          "indexed": true,
          "internalType": "address",
          "name": "newWorld",
          "type": "address"
        }
      ],
      "name": "WorldUpgraded",
      "type": "event"
    },
    {
      "inputs": [],
      "name": "DEFAULT_ADMIN_ROLE",
      "outputs": [
        {
          "internalType": "bytes32",
          "name": "",
          "type": "bytes32"
        }
      ],
      "stateMutability": "view",
      "type": "function"
    },
    {
      "inputs": [],
      "name": "SIGNER_ROLE",
      "outputs": [
        {
          "internalType": "bytes32",
          "name": "",
          "type": "bytes32"
        }
      ],
      "stateMutability": "view",
      "type": "function"
    },
    {
      "inputs": [
        {
          "internalType": "address[]",
          "name": "sigs",
          "type": "address[]"
        }
      ],
      "name": "addSigners",
      "outputs": [],
      "stateMutability": "nonpayable",
      "type": "function"
    },
    {
      "inputs": [],
      "name": "avatarRegistry",
      "outputs": [
        {
          "internalType": "contract IAvatarRegistry",
          "name": "",
          "type": "address"
        }
      ],
      "stateMutability": "view",
      "type": "function"
    },
    {
      "inputs": [],
      "name": "companyRegistry",
      "outputs": [
        {
          "internalType": "contract ICompanyRegistry",
          "name": "",
          "type": "address"
        }
      ],
      "stateMutability": "view",
      "type": "function"
    },
    {
      "inputs": [],
      "name": "getBaseVector",
      "outputs": [
        {
          "components": [
            {
              "internalType": "string",
              "name": "x",
              "type": "string"
            },
            {
              "internalType": "string",
              "name": "y",
              "type": "string"
            },
            {
              "internalType": "string",
              "name": "z",
              "type": "string"
            },
            {
              "internalType": "uint256",
              "name": "t",
              "type": "uint256"
            },
            {
              "internalType": "uint256",
              "name": "p",
              "type": "uint256"
            },
            {
              "internalType": "uint256",
              "name": "p_sub",
              "type": "uint256"
            }
          ],
          "internalType": "struct VectorAddress",
          "name": "",
          "type": "tuple"
        }
      ],
      "stateMutability": "view",
      "type": "function"
    },
    {
      "inputs": [],
      "name": "getName",
      "outputs": [
        {
          "internalType": "string",
          "name": "",
          "type": "string"
        }
      ],
      "stateMutability": "view",
      "type": "function"
    },
    {
      "inputs": [],
      "name": "getOwner",
      "outputs": [
        {
          "internalType": "address",
          "name": "",
          "type": "address"
        }
      ],
      "stateMutability": "view",
      "type": "function"
    },
    {
      "inputs": [
        {
          "internalType": "bytes32",
          "name": "role",
          "type": "bytes32"
        }
      ],
      "name": "getRoleAdmin",
      "outputs": [
        {
          "internalType": "bytes32",
          "name": "",
          "type": "bytes32"
        }
      ],
      "stateMutability": "view",
      "type": "function"
    },
    {
      "inputs": [
        {
          "internalType": "bytes32",
          "name": "role",
          "type": "bytes32"
        },
        {
          "internalType": "address",
          "name": "account",
          "type": "address"
        }
      ],
      "name": "grantRole",
      "outputs": [],
      "stateMutability": "nonpayable",
      "type": "function"
    },
    {
      "inputs": [
        {
          "internalType": "bytes32",
          "name": "role",
          "type": "bytes32"
        },
        {
          "internalType": "address",
          "name": "account",
          "type": "address"
        }
      ],
      "name": "hasRole",
      "outputs": [
        {
          "internalType": "bool",
          "name": "",
          "type": "bool"
        }
      ],
      "stateMutability": "view",
      "type": "function"
    },
    {
      "inputs": [],
      "name": "hook",
      "outputs": [
        {
          "internalType": "contract IWorldHook",
          "name": "",
          "type": "address"
        }
      ],
      "stateMutability": "view",
      "type": "function"
    },
    {
      "inputs": [
        {
          "components": [
            {
              "internalType": "address",
              "name": "owner",
              "type": "address"
            },
            {
              "internalType": "address",
              "name": "oldWorld",
              "type": "address"
            },
            {
              "components": [
                {
                  "internalType": "string",
                  "name": "x",
                  "type": "string"
                },
                {
                  "internalType": "string",
                  "name": "y",
                  "type": "string"
                },
                {
                  "internalType": "string",
                  "name": "z",
                  "type": "string"
                },
                {
                  "internalType": "uint256",
                  "name": "t",
                  "type": "uint256"
                },
                {
                  "internalType": "uint256",
                  "name": "p",
                  "type": "uint256"
                },
                {
                  "internalType": "uint256",
                  "name": "p_sub",
                  "type": "uint256"
                }
              ],
              "internalType": "struct VectorAddress",
              "name": "baseVector",
              "type": "tuple"
            },
            {
              "internalType": "string",
              "name": "name",
              "type": "string"
            },
            {
              "internalType": "bytes",
              "name": "initData",
              "type": "bytes"
            }
          ],
          "internalType": "struct WorldCreateRequest",
          "name": "request",
          "type": "tuple"
        }
      ],
      "name": "init",
      "outputs": [],
      "stateMutability": "nonpayable",
      "type": "function"
    },
    {
      "inputs": [
        {
          "internalType": "address",
          "name": "signer",
          "type": "address"
        }
      ],
      "name": "isSigner",
      "outputs": [
        {
          "internalType": "bool",
          "name": "",
          "type": "bool"
        }
      ],
      "stateMutability": "view",
      "type": "function"
    },
    {
      "inputs": [],
      "name": "name",
      "outputs": [
        {
          "internalType": "string",
          "name": "",
          "type": "string"
        }
      ],
      "stateMutability": "view",
      "type": "function"
    },
    {
      "inputs": [
        {
          "components": [
            {
              "internalType": "bool",
              "name": "sendTokensToAvatarOwner",
              "type": "bool"
            },
            {
              "internalType": "address",
              "name": "avatarOwner",
              "type": "address"
            },
            {
              "internalType": "address",
              "name": "defaultExperience",
              "type": "address"
            },
            {
              "internalType": "string",
              "name": "username",
              "type": "string"
            },
            {
              "internalType": "bytes",
              "name": "initData",
              "type": "bytes"
            }
          ],
          "internalType": "struct AvatarRegistrationRequest",
          "name": "args",
          "type": "tuple"
        }
      ],
      "name": "registerAvatar",
      "outputs": [
        {
          "internalType": "address",
          "name": "avatar",
          "type": "address"
        }
      ],
      "stateMutability": "payable",
      "type": "function"
    },
    {
      "inputs": [
        {
          "components": [
            {
              "internalType": "bool",
              "name": "sendTokensToCompanyOwner",
              "type": "bool"
            },
            {
              "internalType": "address",
              "name": "owner",
              "type": "address"
            },
            {
              "internalType": "string",
              "name": "name",
              "type": "string"
            },
            {
              "internalType": "bytes",
              "name": "initData",
              "type": "bytes"
            }
          ],
          "internalType": "struct CompanyRegistrationArgs",
          "name": "args",
          "type": "tuple"
        }
      ],
      "name": "registerCompany",
      "outputs": [
        {
          "internalType": "address",
          "name": "company",
          "type": "address"
        }
      ],
      "stateMutability": "payable",
      "type": "function"
    },
    {
      "inputs": [],
      "name": "removeHook",
      "outputs": [],
      "stateMutability": "nonpayable",
      "type": "function"
    },
    {
      "inputs": [
        {
          "internalType": "address[]",
          "name": "sigs",
          "type": "address[]"
        }
      ],
      "name": "removeSigners",
      "outputs": [],
      "stateMutability": "nonpayable",
      "type": "function"
    },
    {
      "inputs": [
        {
          "internalType": "bytes32",
          "name": "role",
          "type": "bytes32"
        },
        {
          "internalType": "address",
          "name": "callerConfirmation",
          "type": "address"
        }
      ],
      "name": "renounceRole",
      "outputs": [],
      "stateMutability": "nonpayable",
      "type": "function"
    },
    {
      "inputs": [
        {
          "internalType": "bytes32",
          "name": "role",
          "type": "bytes32"
        },
        {
          "internalType": "address",
          "name": "account",
          "type": "address"
        }
      ],
      "name": "revokeRole",
      "outputs": [],
      "stateMutability": "nonpayable",
      "type": "function"
    },
    {
      "inputs": [
        {
          "internalType": "contract IWorldHook",
          "name": "_hook",
          "type": "address"
        }
      ],
      "name": "setHook",
      "outputs": [],
      "stateMutability": "nonpayable",
      "type": "function"
    },
    {
      "inputs": [
        {
          "internalType": "bytes4",
          "name": "interfaceId",
          "type": "bytes4"
        }
      ],
      "name": "supportsInterface",
      "outputs": [
        {
          "internalType": "bool",
          "name": "",
          "type": "bool"
        }
      ],
      "stateMutability": "view",
      "type": "function"
    },
    {
      "inputs": [
        {
          "internalType": "bytes",
          "name": "initData",
          "type": "bytes"
        }
      ],
      "name": "upgrade",
      "outputs": [],
      "stateMutability": "nonpayable",
      "type": "function"
    },
    {
      "inputs": [
        {
          "internalType": "address",
          "name": "nextVersion",
          "type": "address"
        }
      ],
      "name": "upgradeComplete",
      "outputs": [],
      "stateMutability": "nonpayable",
      "type": "function"
    },
    {
      "inputs": [],
      "name": "upgraded",
      "outputs": [
        {
          "internalType": "bool",
          "name": "",
          "type": "bool"
        }
      ],
      "stateMutability": "view",
      "type": "function"
    },
    {
      "inputs": [],
      "name": "version",
      "outputs": [
        {
          "internalType": "string",
          "name": "",
          "type": "string"
        }
      ],
      "stateMutability": "view",
      "type": "function"
    },
    {
      "inputs": [
        {
          "internalType": "uint256",
          "name": "amount",
          "type": "uint256"
        }
      ],
      "name": "withdraw",
      "outputs": [],
      "stateMutability": "nonpayable",
      "type": "function"
    },
    {
      "inputs": [],
      "name": "worldFactory",
      "outputs": [
        {
          "internalType": "address",
          "name": "",
          "type": "address"
        }
      ],
      "stateMutability": "view",
      "type": "function"
    },
    {
      "inputs": [],
      "name": "worldRegistry",
      "outputs": [
        {
          "internalType": "contract IWorldRegistry0_2",
          "name": "",
          "type": "address"
        }
      ],
      "stateMutability": "view",
      "type": "function"
    },
    {
      "stateMutability": "payable",
      "type": "receive"
    }
  ],
  "bytecode": "0x6101006040523480156200001257600080fd5b5060405162002e5938038062002e5983398101604081905262000035916200025a565b600160005580516001600160a01b0316620000ad5760405162461bcd60e51b815260206004820152602d60248201527f576f726c64305f323a20776f726c64466163746f72792063616e6e6f7420626560448201526c207a65726f206164647265737360981b60648201526084015b60405180910390fd5b60208101516001600160a01b0316620001205760405162461bcd60e51b815260206004820152602e60248201527f576f726c64305f323a20776f726c6452656769737472792063616e6e6f74206260448201526d65207a65726f206164647265737360901b6064820152608401620000a4565b60408101516001600160a01b0316620001955760405162461bcd60e51b815260206004820152603060248201527f576f726c64305f323a20636f6d70616e7952656769737472792063616e6e6f7460448201526f206265207a65726f206164647265737360801b6064820152608401620000a4565b60608101516001600160a01b0316620002095760405162461bcd60e51b815260206004820152602f60248201527f576f726c64305f323a2061766174617252656769737472792063616e6e6f742060448201526e6265207a65726f206164647265737360881b6064820152608401620000a4565b60208101516001600160a01b039081166080528151811660a0526040820151811660c0526060909101511660e052620002ee565b80516001600160a01b03811681146200025557600080fd5b919050565b6000608082840312156200026d57600080fd5b604051608081016001600160401b03811182821017156200029e57634e487b7160e01b600052604160045260246000fd5b604052620002ac836200023d565b8152620002bc602084016200023d565b6020820152620002cf604084016200023d565b6040820152620002e2606084016200023d565b60608201529392505050565b60805160a05160c05160e051612b00620003596000396000818161060501526115a20152600081816105b10152610bc201526000818161027b015281816116cf015261174e01526000818161050c01528181610d7901528181610de90152610e680152612b006000f3fe6080604052600436106101d15760003560e01c806354fd4d50116100f757806391d1485411610095578063c51aba2b11610064578063c51aba2b1461059f578063d547741f146105d3578063e3d7ad73146105f3578063e8906a2d1461062757600080fd5b806391d148541461052e578063a1ebf35d1461054e578063a217fddf14610570578063c28de2cd1461058557600080fd5b80637f5a7c7b116100d15780637f5a7c7b14610497578063893d20e8146104b75780638d361e43146104da578063911c2a8c146104fa57600080fd5b806354fd4d501461042857806361445eb7146104575780637df73e271461047757600080fd5b80632663d1f71161016f578063378f17ff1161013e578063378f17ff146103be578063382af56d146103d35780633dfd3873146103f55780634d575f3d1461041557600080fd5b80632663d1f71461033e5780632e1a7d4d1461035e5780632f2ff15d1461037e57806336568abe1461039e57600080fd5b806317d7de7c116101ab57806317d7de7c146102b55780631c2fbedc146102ca578063248a9ca3146102dd578063253946451461031c57600080fd5b806301ffc9a71461021257806306fdde03146102475780630dc3897d1461026957600080fd5b3661020d5760405134815233907f5741979df5f3e491501da74d3b0a83dd2496ab1f34929865b3e190a8ad75859a9060200160405180910390a2005b600080fd5b34801561021e57600080fd5b5061023261022d36600461205a565b610647565b60405190151581526020015b60405180910390f35b34801561025357600080fd5b5061025c61067e565b60405161023e91906120d1565b34801561027557600080fd5b5061029d7f000000000000000000000000000000000000000000000000000000000000000081565b6040516001600160a01b03909116815260200161023e565b3480156102c157600080fd5b5061025c61070c565b61029d6102d8366004612238565b61079e565b3480156102e957600080fd5b5061030e6102f83660046122ef565b6000908152600160208190526040909120015490565b60405190815260200161023e565b34801561032857600080fd5b5061033c610337366004612308565b610cea565b005b34801561034a57600080fd5b5061033c61035936600461237a565b610de7565b34801561036a57600080fd5b5061033c6103793660046122ef565b610f5b565b34801561038a57600080fd5b5061033c610399366004612397565b610ff9565b3480156103aa57600080fd5b5061033c6103b9366004612397565b611025565b3480156103ca57600080fd5b5061033c611058565b3480156103df57600080fd5b506103e861109f565b60405161023e919061243a565b34801561040157600080fd5b5061033c61041036600461237a565b6112be565b61029d61042336600461244d565b611378565b34801561043457600080fd5b5061025c6040518060400160405280600381526020016218171960e91b81525081565b34801561046357600080fd5b5061033c6104723660046125c7565b6116cd565b34801561048357600080fd5b5061023261049236600461237a565b611c28565b3480156104a357600080fd5b5060045461029d906001600160a01b031681565b3480156104c357600080fd5b5060025461010090046001600160a01b031661029d565b3480156104e657600080fd5b5061033c6104f536600461265f565b611c42565b34801561050657600080fd5b5061029d7f000000000000000000000000000000000000000000000000000000000000000081565b34801561053a57600080fd5b50610232610549366004612397565b611d2d565b34801561055a57600080fd5b5061030e600080516020612aab83398151915281565b34801561057c57600080fd5b5061030e600081565b34801561059157600080fd5b506002546102329060ff1681565b3480156105ab57600080fd5b5061029d7f000000000000000000000000000000000000000000000000000000000000000081565b3480156105df57600080fd5b5061033c6105ee366004612397565b611d58565b3480156105ff57600080fd5b5061029d7f000000000000000000000000000000000000000000000000000000000000000081565b34801561063357600080fd5b5061033c61064236600461265f565b611d7e565b60006001600160e01b03198216637965db0b60e01b148061067857506301ffc9a760e01b6001600160e01b03198316145b92915050565b600b805461068b90612711565b80601f01602080910402602001604051908101604052809291908181526020018280546106b790612711565b80156107045780601f106106d957610100808354040283529160200191610704565b820191906000526020600020905b8154815290600101906020018083116106e757829003601f168201915b505050505081565b6060600b805461071b90612711565b80601f016020809104026020016040519081016040528092919081815260200182805461074790612711565b80156107945780601f1061076957610100808354040283529160200191610794565b820191906000526020600020905b81548152906001019060200180831161077757829003601f168201915b5050505050905090565b60006107b8600080516020612aab83398151915233611d2d565b6108095760405162461bcd60e51b815260206004820152601e60248201527f576f726c64305f323a2063616c6c6572206973206e6f74207369676e6572000060448201526064015b60405180910390fd5b610811611f07565b60208201516001600160a01b03166108825760405162461bcd60e51b815260206004820152602e60248201527f576f726c64305f323a20636f6d70616e79206f776e65722063616e6e6f74206260448201526d65207a65726f206164647265737360901b6064820152608401610800565b6000826040015151116108e65760405162461bcd60e51b815260206004820152602660248201527f576f726c64305f323a20636f6d70616e79206e616d652063616e6e6f7420626560448201526520656d70747960d01b6064820152608401610800565b6004546001600160a01b0316156109ca576004805460405163e76c26f760e01b81526001600160a01b039091169163e76c26f7916109269186910161274b565b6020604051808303816000875af1158015610945573d6000803e3d6000fd5b505050506040513d601f19601f8201168201806040525081019061096991906127ab565b6109ca5760405162461bcd60e51b815260206004820152602c60248201527f576f726c64305f323a20686f6f6b2072656a656374656420636f6d70616e792060448201526b3932b3b4b9ba3930ba34b7b760a11b6064820152608401610800565b600c600081546109d9906127c8565b9190508190555060006040518060c00160405280600560000180546109fd90612711565b80601f0160208091040260200160405190810160405280929190818152602001828054610a2990612711565b8015610a765780601f10610a4b57610100808354040283529160200191610a76565b820191906000526020600020905b815481529060010190602001808311610a5957829003601f168201915b5050505050815260200160056001018054610a9090612711565b80601f0160208091040260200160405190810160405280929190818152602001828054610abc90612711565b8015610b095780601f10610ade57610100808354040283529160200191610b09565b820191906000526020600020905b815481529060010190602001808311610aec57829003601f168201915b5050505050815260200160056002018054610b2390612711565b80601f0160208091040260200160405190810160405280929190818152602001828054610b4f90612711565b8015610b9c5780601f10610b7157610100808354040283529160200191610b9c565b820191906000526020600020905b815481529060010190602001808311610b7f57829003601f168201915b505050505081526020016005600301548152602001600c548152602001600081525090507f00000000000000000000000000000000000000000000000000000000000000006001600160a01b03166322feaee6346040518060a0016040528087600001511515815260200187602001516001600160a01b031681526020018581526020018760600151815260200187604001518152506040518363ffffffff1660e01b8152600401610c4e91906127ef565b60206040518083038185885af1158015610c6c573d6000803e3d6000fd5b50505050506040513d601f19601f82011682018060405250810190610c919190612865565b9150816001600160a01b03167f3ae5cc94bcf37dd89d282cbe7f9842a176a101aa41ce7af3ed66fa58a2466c62828560400151604051610cd2929190612882565b60405180910390a250610ce56001600055565b919050565b600080516020612aab833981519152610d0281611f31565b60025460ff1615610d555760405162461bcd60e51b815260206004820181905260248201527f576f726c64305f323a20776f726c6420616c72656164792075706772616465646044820152606401610800565b6002805460ff19166001179055604051638f51aa6d60e01b81526001600160a01b037f00000000000000000000000000000000000000000000000000000000000000001690638f51aa6d90610db090869086906004016128a7565b600060405180830381600087803b158015610dca57600080fd5b505af1158015610dde573d6000803e3d6000fd5b50505050505050565b7f00000000000000000000000000000000000000000000000000000000000000006001600160a01b0316610e5d5760405162461bcd60e51b815260206004820152601f60248201527f576f726c64305f323a20776f726c645265676973747279206e6f7420736574006044820152606401610800565b336001600160a01b037f00000000000000000000000000000000000000000000000000000000000000001614610ed55760405162461bcd60e51b815260206004820181905260248201527f576f726c64305f323a2063616c6c6572206973206e6f742072656769737472796044820152606401610800565b6002805460ff19166001179055478015610f21576040516001600160a01b0383169082156108fc029083906000818181858888f19350505050158015610f1f573d6000803e3d6000fd5b505b6040516001600160a01b0383169030907ff1fe458d696ab302f212b76fb0e63c85d19c1bcb4c3e61d3a4470e76d136321890600090a35050565b6000610f6681611f31565b47821115610fb65760405162461bcd60e51b815260206004820181905260248201527f576f726c64305f323a20616d6f756e7420657863656564732062616c616e63656044820152606401610800565b6002546040516101009091046001600160a01b0316906108fc8415029084906000818181858888f19350505050158015610ff4573d6000803e3d6000fd5b505050565b6000828152600160208190526040909120015461101581611f31565b61101f8383611f3b565b50505050565b6001600160a01b038116331461104e5760405163334bd91960e11b815260040160405180910390fd5b610ff48282611fb4565b600061106381611f31565b600480546001600160a01b03191690556040517fd6bb5977e74678fe79d7effa6d93a6e996630cf696c32a815b00fda893b87b5a90600090a150565b6110d86040518060c001604052806060815260200160608152602001606081526020016000815260200160008152602001600081525090565b60056040518060c00160405290816000820180546110f590612711565b80601f016020809104026020016040519081016040528092919081815260200182805461112190612711565b801561116e5780601f106111435761010080835404028352916020019161116e565b820191906000526020600020905b81548152906001019060200180831161115157829003601f168201915b5050505050815260200160018201805461118790612711565b80601f01602080910402602001604051908101604052809291908181526020018280546111b390612711565b80156112005780601f106111d557610100808354040283529160200191611200565b820191906000526020600020905b8154815290600101906020018083116111e357829003601f168201915b5050505050815260200160028201805461121990612711565b80601f016020809104026020016040519081016040528092919081815260200182805461124590612711565b80156112925780601f1061126757610100808354040283529160200191611292565b820191906000526020600020905b81548152906001019060200180831161127557829003601f168201915b505050505081526020016003820154815260200160048201548152602001600582015481525050905090565b60006112c981611f31565b6001600160a01b03821661132d5760405162461bcd60e51b815260206004820152602560248201527f576f726c64305f323a20686f6f6b2063616e6e6f74206265207a65726f206164604482015264647265737360d81b6064820152608401610800565b600480546001600160a01b0319166001600160a01b0384169081179091556040517f2e0d4a0d6b6807573b280bc3dd0c83d52c5115e86a427cc6506e9a040f64b47790600090a25050565b6000611392600080516020612aab83398151915233611d2d565b6113de5760405162461bcd60e51b815260206004820152601e60248201527f576f726c64305f323a2063616c6c6572206973206e6f74207369676e657200006044820152606401610800565b6113e6611f07565b60208201516001600160a01b03166114565760405162461bcd60e51b815260206004820152602d60248201527f576f726c64305f323a20617661746172206f776e65722063616e6e6f7420626560448201526c207a65726f206164647265737360981b6064820152608401610800565b6000826060015151116114bd5760405162461bcd60e51b815260206004820152602960248201527f576f726c64305f323a2061766174617220757365726e616d652063616e6e6f7460448201526820626520656d70747960b81b6064820152608401610800565b6004546001600160a01b0316156115a05760048054604051633e6ff77160e21b81526001600160a01b039091169163f9bfddc4916114fd918691016128d6565b6020604051808303816000875af115801561151c573d6000803e3d6000fd5b505050506040513d601f19601f8201168201806040525081019061154091906127ab565b6115a05760405162461bcd60e51b815260206004820152602b60248201527f576f726c64305f323a20686f6f6b2072656a656374656420617661746172207260448201526a32b3b4b9ba3930ba34b7b760a91b6064820152608401610800565b7f00000000000000000000000000000000000000000000000000000000000000006001600160a01b0316634d575f3d6040518060a0016040528085600001511515815260200185602001516001600160a01b0316815260200185604001516001600160a01b031681526020018560600151815260200185608001518152506040518263ffffffff1660e01b815260040161163a91906128d6565b6020604051808303816000875af1158015611659573d6000803e3d6000fd5b505050506040513d601f19601f8201168201806040525081019061167d9190612865565b905081604001516001600160a01b0316816001600160a01b03167f0ada65c939d4c317368a1a88ef5f00697bfe4e748e24d6722c1a0d04c26a4b8660405160405180910390a3610ce56001600055565b7f00000000000000000000000000000000000000000000000000000000000000006001600160a01b03166117435760405162461bcd60e51b815260206004820152601e60248201527f576f726c64305f323a20776f726c64466163746f7279206e6f742073657400006044820152606401610800565b336001600160a01b037f000000000000000000000000000000000000000000000000000000000000000016146117bb5760405162461bcd60e51b815260206004820152601f60248201527f576f726c64305f323a2063616c6c6572206973206e6f7420666163746f7279006044820152606401610800565b80516001600160a01b03166118215760405162461bcd60e51b815260206004820152602660248201527f576f726c64305f323a206f776e65722063616e6e6f74206265207a65726f206160448201526564647265737360d01b6064820152608401610800565b604081015151516000036118855760405162461bcd60e51b815260206004820152602560248201527f576f726c64305f323a2062617365566563746f722e782063616e6e6f74206265604482015264207a65726f60d81b6064820152608401610800565b806040015160200151516000036118ec5760405162461bcd60e51b815260206004820152602560248201527f576f726c64305f323a2062617365566563746f722e792063616e6e6f74206265604482015264207a65726f60d81b6064820152608401610800565b806040015160400151516000036119535760405162461bcd60e51b815260206004820152602560248201527f576f726c64305f323a2062617365566563746f722e7a2063616e6e6f74206265604482015264207a65726f60d81b6064820152608401610800565b604081015160800151156119b55760405162461bcd60e51b815260206004820152602360248201527f576f726c64305f323a2062617365566563746f722e70206d757374206265207a60448201526265726f60e81b6064820152608401610800565b604081015160a0015115611a1b5760405162461bcd60e51b815260206004820152602760248201527f576f726c64305f323a2062617365566563746f722e705f737562206d757374206044820152666265207a65726f60c81b6064820152608401610800565b600081606001515111611a705760405162461bcd60e51b815260206004820152601e60248201527f576f726c64305f323a206e616d652063616e6e6f7420626520656d70747900006044820152606401610800565b8051600280546001600160a01b0390921661010002610100600160a81b0319909216919091179055604081015180516005908190611aae908261298d565b5060208201516001820190611ac3908261298d565b5060408201516002820190611ad8908261298d565b5060608281015160038301556080830151600483015560a090920151600590910155810151600b90611b0a908261298d565b506000600c8190556020820151600380546001600160a01b0319166001600160a01b03928316179055600254611b47929161010090910416611f3b565b50600254611b7290600080516020612aab8339815191529061010090046001600160a01b0316611f3b565b5060208101516001600160a01b031615611c2557600081602001516001600160a01b031663893d20e86040518163ffffffff1660e01b8152600401602060405180830381865afa158015611bca573d6000803e3d6000fd5b505050506040513d601f19601f82011682018060405250810190611bee9190612865565b6002549091506001600160a01b038083166101009092041614611c2357610ff4600080516020612aab83398151915282611f3b565b505b50565b6000610678600080516020612aab83398151915283611d2d565b6000611c4d81611f31565b60005b8251811015610ff45760006001600160a01b0316838281518110611c7657611c76612a4d565b60200260200101516001600160a01b031603611ca45760405162461bcd60e51b815260040161080090612a63565b611cd5600080516020612aab833981519152848381518110611cc857611cc8612a4d565b6020026020010151611fb4565b50828181518110611ce857611ce8612a4d565b60200260200101516001600160a01b03167f3525e22824a8a7df2c9a6029941c824cf95b6447f1e13d5128fd3826d35afe8b60405160405180910390a2600101611c50565b60009182526001602090815260408084206001600160a01b0393909316845291905290205460ff1690565b60008281526001602081905260409091200154611d7481611f31565b61101f8383611fb4565b6000611d8981611f31565b60025460ff1615611ddc5760405162461bcd60e51b815260206004820181905260248201527f576f726c64305f323a20776f726c6420616c72656164792075706772616465646044820152606401610800565b60005b8251811015610ff45760006001600160a01b0316838281518110611e0557611e05612a4d565b60200260200101516001600160a01b031603611e335760405162461bcd60e51b815260040161080090612a63565b611e64600080516020612aab833981519152848381518110611e5757611e57612a4d565b6020026020010151611f3b565b611eb05760405162461bcd60e51b815260206004820152601c60248201527f576f726c64305f323a207369676e657220726f6c65206661696c6564000000006044820152606401610800565b828181518110611ec257611ec2612a4d565b60200260200101516001600160a01b03167f47d1c22a25bb3a5d4e481b9b1e6944c2eade3181a0a20b495ed61d35b5323f2460405160405180910390a2600101611ddf565b600260005403611f2a57604051633ee5aeb560e01b815260040160405180910390fd5b6002600055565b611c258133612021565b6000611f478383611d2d565b611fac5760008381526001602081815260408084206001600160a01b0387168086529252808420805460ff19169093179092559051339286917f2f8788117e7eff1d82e926ec794901d17c78024a50270940304540a733656f0d9190a4506001610678565b506000610678565b6000611fc08383611d2d565b15611fac5760008381526001602090815260408083206001600160a01b0386168085529252808320805460ff1916905551339286917ff6391f5c32d9c69d2a47ea670b442974b53935d1edc7fd64eb21e047a839171b9190a4506001610678565b61202b8282611d2d565b611c235760405163e2517d3f60e01b81526001600160a01b038216600482015260248101839052604401610800565b60006020828403121561206c57600080fd5b81356001600160e01b03198116811461208457600080fd5b9392505050565b6000815180845260005b818110156120b157602081850181015186830182015201612095565b506000602082860101526020601f19601f83011685010191505092915050565b602081526000612084602083018461208b565b634e487b7160e01b600052604160045260246000fd5b6040516080810167ffffffffffffffff8111828210171561211d5761211d6120e4565b60405290565b60405160a0810167ffffffffffffffff8111828210171561211d5761211d6120e4565b60405160c0810167ffffffffffffffff8111828210171561211d5761211d6120e4565b604051601f8201601f1916810167ffffffffffffffff81118282101715612192576121926120e4565b604052919050565b8015158114611c2557600080fd5b6001600160a01b0381168114611c2557600080fd5b8035610ce5816121a8565b600082601f8301126121d957600080fd5b813567ffffffffffffffff8111156121f3576121f36120e4565b612206601f8201601f1916602001612169565b81815284602083860101111561221b57600080fd5b816020850160208301376000918101602001919091529392505050565b60006020828403121561224a57600080fd5b813567ffffffffffffffff8082111561226257600080fd5b908301906080828603121561227657600080fd5b61227e6120fa565b82356122898161219a565b81526020830135612299816121a8565b60208201526040830135828111156122b057600080fd5b6122bc878286016121c8565b6040830152506060830135828111156122d457600080fd5b6122e0878286016121c8565b60608301525095945050505050565b60006020828403121561230157600080fd5b5035919050565b6000806020838503121561231b57600080fd5b823567ffffffffffffffff8082111561233357600080fd5b818501915085601f83011261234757600080fd5b81358181111561235657600080fd5b86602082850101111561236857600080fd5b60209290920196919550909350505050565b60006020828403121561238c57600080fd5b8135612084816121a8565b600080604083850312156123aa57600080fd5b8235915060208301356123bc816121a8565b809150509250929050565b6000815160c084526123dc60c085018261208b565b9050602083015184820360208601526123f5828261208b565b9150506040830151848203604086015261240f828261208b565b915050606083015160608501526080830151608085015260a083015160a08501528091505092915050565b60208152600061208460208301846123c7565b60006020828403121561245f57600080fd5b813567ffffffffffffffff8082111561247757600080fd5b9083019060a0828603121561248b57600080fd5b612493612123565b823561249e8161219a565b815260208301356124ae816121a8565b60208201526124bf604084016121bd565b60408201526060830135828111156124d657600080fd5b6124e2878286016121c8565b6060830152506080830135828111156124fa57600080fd5b612506878286016121c8565b60808301525095945050505050565b600060c0828403121561252757600080fd5b61252f612146565b9050813567ffffffffffffffff8082111561254957600080fd5b612555858386016121c8565b8352602084013591508082111561256b57600080fd5b612577858386016121c8565b6020840152604084013591508082111561259057600080fd5b5061259d848285016121c8565b604083015250606082013560608201526080820135608082015260a082013560a082015292915050565b6000602082840312156125d957600080fd5b813567ffffffffffffffff808211156125f157600080fd5b9083019060a0828603121561260557600080fd5b61260d612123565b612616836121bd565b8152612624602084016121bd565b602082015260408301358281111561263b57600080fd5b61264787828601612515565b6040830152506060830135828111156124d657600080fd5b6000602080838503121561267257600080fd5b823567ffffffffffffffff8082111561268a57600080fd5b818501915085601f83011261269e57600080fd5b8135818111156126b0576126b06120e4565b8060051b91506126c1848301612169565b81815291830184019184810190888411156126db57600080fd5b938501935b8385101561270557843592506126f5836121a8565b82825293850193908501906126e0565b98975050505050505050565b600181811c9082168061272557607f821691505b60208210810361274557634e487b7160e01b600052602260045260246000fd5b50919050565b6020815281511515602082015260018060a01b036020830151166040820152600060408301516080606084015261278560a084018261208b565b90506060840151601f198483030160808501526127a2828261208b565b95945050505050565b6000602082840312156127bd57600080fd5b81516120848161219a565b6000600182016127e857634e487b7160e01b600052601160045260246000fd5b5060010190565b6020815281511515602082015260018060a01b0360208301511660408201526000604083015160a0606084015261282960c08401826123c7565b90506060840151601f1980858403016080860152612847838361208b565b925060808601519150808584030160a0860152506127a2828261208b565b60006020828403121561287757600080fd5b8151612084816121a8565b60408152600061289560408301856123c7565b82810360208401526127a2818561208b565b60208152816020820152818360408301376000818301604090810191909152601f909201601f19160101919050565b602081528151151560208201526000602083015160018060a01b0380821660408501528060408601511660608501525050606083015160a0608084015261292060c084018261208b565b90506080840151601f198483030160a08501526127a2828261208b565b601f821115610ff4576000816000526020600020601f850160051c810160208610156129665750805b601f850160051c820191505b8181101561298557828155600101612972565b505050505050565b815167ffffffffffffffff8111156129a7576129a76120e4565b6129bb816129b58454612711565b8461293d565b602080601f8311600181146129f057600084156129d85750858301515b600019600386901b1c1916600185901b178555612985565b600085815260208120601f198616915b82811015612a1f57888601518255948401946001909101908401612a00565b5085821015612a3d5787850151600019600388901b60f8161c191681555b5050505050600190811b01905550565b634e487b7160e01b600052603260045260246000fd5b60208082526027908201527f576f726c64305f323a207369676e65722063616e6e6f74206265207a65726f206040820152666164647265737360c81b60608201526080019056fee2f4eaae4a9751e85a3e4a7b9587827a877f29914755229b07a7b2da98285f70a2646970667358221220872ac7969b9865f3f0993bdab4742f30b2540401b087913e6f9fac263aa6b2f664736f6c63430008180033",
  "linkReferences": {},
  "deployedLinkReferences": {}
}