{
  "_format": "hh-sol-artifact-1",
  "contractName": "World0_2",
  "sourceName": "contracts/world/v0.2/World0_2.sol",
  "abi": [
    {
      "inputs": [
        {
          "components": [
            {
              "internalType": "address",
              "name": "worldFactory",
              "type": "address"
            },
            {
              "internalType": "address",
              "name": "worldRegistry",
              "type": "address"
            },
            {
              "internalType": "address",
              "name": "companyRegistry",
              "type": "address"
            },
            {
              "internalType": "address",
              "name": "avatarRegistry",
              "type": "address"
            }
          ],
          "internalType": "struct WorldConstructorArgs",
          "name": "args",
          "type": "tuple"
        }
      ],
      "stateMutability": "nonpayable",
      "type": "constructor"
    },
    {
      "inputs": [],
      "name": "AccessControlBadConfirmation",
      "type": "error"
    },
    {
      "inputs": [
        {
          "internalType": "address",
          "name": "account",
          "type": "address"
        },
        {
          "internalType": "bytes32",
          "name": "neededRole",
          "type": "bytes32"
        }
      ],
      "name": "AccessControlUnauthorizedAccount",
      "type": "error"
    },
    {
      "inputs": [],
      "name": "ReentrancyGuardReentrantCall",
      "type": "error"
    },
    {
      "anonymous": false,
      "inputs": [
        {
          "indexed": true,
          "internalType": "address",
          "name": "avatar",
          "type": "address"
        },
        {
          "indexed": true,
          "internalType": "address",
          "name": "experience",
          "type": "address"
        }
      ],
      "name": "AvatarRegistered",
      "type": "event"
    },
    {
      "anonymous": false,
      "inputs": [
        {
          "indexed": true,
          "internalType": "address",
          "name": "company",
          "type": "address"
        },
        {
          "components": [
            {
              "internalType": "string",
              "name": "x",
              "type": "string"
            },
            {
              "internalType": "string",
              "name": "y",
              "type": "string"
            },
            {
              "internalType": "string",
              "name": "z",
              "type": "string"
            },
            {
              "internalType": "uint256",
              "name": "t",
              "type": "uint256"
            },
            {
              "internalType": "uint256",
              "name": "p",
              "type": "uint256"
            },
            {
              "internalType": "uint256",
              "name": "p_sub",
              "type": "uint256"
            }
          ],
          "indexed": false,
          "internalType": "struct VectorAddress",
          "name": "vector",
          "type": "tuple"
        },
        {
          "indexed": false,
          "internalType": "string",
          "name": "name",
          "type": "string"
        }
      ],
      "name": "CompanyRegistered",
      "type": "event"
    },
    {
      "anonymous": false,
      "inputs": [
        {
          "indexed": true,
          "internalType": "address",
          "name": "sender",
          "type": "address"
        },
        {
          "indexed": false,
          "internalType": "uint256",
          "name": "value",
          "type": "uint256"
        }
      ],
      "name": "ReceivedFunds",
      "type": "event"
    },
    {
      "anonymous": false,
      "inputs": [
        {
          "indexed": true,
          "internalType": "bytes32",
          "name": "role",
          "type": "bytes32"
        },
        {
          "indexed": true,
          "internalType": "bytes32",
          "name": "previousAdminRole",
          "type": "bytes32"
        },
        {
          "indexed": true,
          "internalType": "bytes32",
          "name": "newAdminRole",
          "type": "bytes32"
        }
      ],
      "name": "RoleAdminChanged",
      "type": "event"
    },
    {
      "anonymous": false,
      "inputs": [
        {
          "indexed": true,
          "internalType": "bytes32",
          "name": "role",
          "type": "bytes32"
        },
        {
          "indexed": true,
          "internalType": "address",
          "name": "account",
          "type": "address"
        },
        {
          "indexed": true,
          "internalType": "address",
          "name": "sender",
          "type": "address"
        }
      ],
      "name": "RoleGranted",
      "type": "event"
    },
    {
      "anonymous": false,
      "inputs": [
        {
          "indexed": true,
          "internalType": "bytes32",
          "name": "role",
          "type": "bytes32"
        },
        {
          "indexed": true,
          "internalType": "address",
          "name": "account",
          "type": "address"
        },
        {
          "indexed": true,
          "internalType": "address",
          "name": "sender",
          "type": "address"
        }
      ],
      "name": "RoleRevoked",
      "type": "event"
    },
    {
      "anonymous": false,
      "inputs": [
        {
          "indexed": true,
          "internalType": "address",
          "name": "signer",
          "type": "address"
        }
      ],
      "name": "SignerAdded",
      "type": "event"
    },
    {
      "anonymous": false,
      "inputs": [
        {
          "indexed": true,
          "internalType": "address",
          "name": "signer",
          "type": "address"
        }
      ],
      "name": "SignerRemoved",
      "type": "event"
    },
    {
      "anonymous": false,
      "inputs": [],
      "name": "WorldHookRemoved",
      "type": "event"
    },
    {
      "anonymous": false,
      "inputs": [
        {
          "indexed": true,
          "internalType": "address",
          "name": "hook",
          "type": "address"
        }
      ],
      "name": "WorldHookSet",
      "type": "event"
    },
    {
      "anonymous": false,
      "inputs": [
        {
          "indexed": true,
          "internalType": "address",
          "name": "oldWorld",
          "type": "address"
        },
        {
          "indexed": true,
          "internalType": "address",
          "name": "newWorld",
          "type": "address"
        }
      ],
      "name": "WorldUpgraded",
      "type": "event"
    },
    {
      "inputs": [],
      "name": "DEFAULT_ADMIN_ROLE",
      "outputs": [
        {
          "internalType": "bytes32",
          "name": "",
          "type": "bytes32"
        }
      ],
      "stateMutability": "view",
      "type": "function"
    },
    {
      "inputs": [],
      "name": "SIGNER_ROLE",
      "outputs": [
        {
          "internalType": "bytes32",
          "name": "",
          "type": "bytes32"
        }
      ],
      "stateMutability": "view",
      "type": "function"
    },
    {
      "inputs": [
        {
          "internalType": "address[]",
          "name": "sigs",
          "type": "address[]"
        }
      ],
      "name": "addSigners",
      "outputs": [],
      "stateMutability": "nonpayable",
      "type": "function"
    },
    {
      "inputs": [],
      "name": "avatarRegistry",
      "outputs": [
        {
          "internalType": "contract IAvatarRegistry",
          "name": "",
          "type": "address"
        }
      ],
      "stateMutability": "view",
      "type": "function"
    },
    {
      "inputs": [],
      "name": "companyRegistry",
      "outputs": [
        {
          "internalType": "contract ICompanyRegistry",
          "name": "",
          "type": "address"
        }
      ],
      "stateMutability": "view",
      "type": "function"
    },
    {
      "inputs": [],
      "name": "getBaseVector",
      "outputs": [
        {
          "components": [
            {
              "internalType": "string",
              "name": "x",
              "type": "string"
            },
            {
              "internalType": "string",
              "name": "y",
              "type": "string"
            },
            {
              "internalType": "string",
              "name": "z",
              "type": "string"
            },
            {
              "internalType": "uint256",
              "name": "t",
              "type": "uint256"
            },
            {
              "internalType": "uint256",
              "name": "p",
              "type": "uint256"
            },
            {
              "internalType": "uint256",
              "name": "p_sub",
              "type": "uint256"
            }
          ],
          "internalType": "struct VectorAddress",
          "name": "",
          "type": "tuple"
        }
      ],
      "stateMutability": "view",
      "type": "function"
    },
    {
      "inputs": [],
      "name": "getName",
      "outputs": [
        {
          "internalType": "string",
          "name": "",
          "type": "string"
        }
      ],
      "stateMutability": "view",
      "type": "function"
    },
    {
      "inputs": [],
      "name": "getOwner",
      "outputs": [
        {
          "internalType": "address",
          "name": "",
          "type": "address"
        }
      ],
      "stateMutability": "view",
      "type": "function"
    },
    {
      "inputs": [
        {
          "internalType": "bytes32",
          "name": "role",
          "type": "bytes32"
        }
      ],
      "name": "getRoleAdmin",
      "outputs": [
        {
          "internalType": "bytes32",
          "name": "",
          "type": "bytes32"
        }
      ],
      "stateMutability": "view",
      "type": "function"
    },
    {
      "inputs": [
        {
          "internalType": "bytes32",
          "name": "role",
          "type": "bytes32"
        },
        {
          "internalType": "address",
          "name": "account",
          "type": "address"
        }
      ],
      "name": "grantRole",
      "outputs": [],
      "stateMutability": "nonpayable",
      "type": "function"
    },
    {
      "inputs": [
        {
          "internalType": "bytes32",
          "name": "role",
          "type": "bytes32"
        },
        {
          "internalType": "address",
          "name": "account",
          "type": "address"
        }
      ],
      "name": "hasRole",
      "outputs": [
        {
          "internalType": "bool",
          "name": "",
          "type": "bool"
        }
      ],
      "stateMutability": "view",
      "type": "function"
    },
    {
      "inputs": [],
      "name": "hook",
      "outputs": [
        {
          "internalType": "contract IWorldHook",
          "name": "",
          "type": "address"
        }
      ],
      "stateMutability": "view",
      "type": "function"
    },
    {
      "inputs": [
        {
          "components": [
            {
              "internalType": "address",
              "name": "owner",
              "type": "address"
            },
            {
              "internalType": "address",
              "name": "oldWorld",
              "type": "address"
            },
            {
              "components": [
                {
                  "internalType": "string",
                  "name": "x",
                  "type": "string"
                },
                {
                  "internalType": "string",
                  "name": "y",
                  "type": "string"
                },
                {
                  "internalType": "string",
                  "name": "z",
                  "type": "string"
                },
                {
                  "internalType": "uint256",
                  "name": "t",
                  "type": "uint256"
                },
                {
                  "internalType": "uint256",
                  "name": "p",
                  "type": "uint256"
                },
                {
                  "internalType": "uint256",
                  "name": "p_sub",
                  "type": "uint256"
                }
              ],
              "internalType": "struct VectorAddress",
              "name": "baseVector",
              "type": "tuple"
            },
            {
              "internalType": "string",
              "name": "name",
              "type": "string"
            },
            {
              "internalType": "bytes",
              "name": "initData",
              "type": "bytes"
            }
          ],
          "internalType": "struct WorldCreateRequest",
          "name": "request",
          "type": "tuple"
        }
      ],
      "name": "init",
      "outputs": [],
      "stateMutability": "nonpayable",
      "type": "function"
    },
    {
      "inputs": [],
      "name": "name",
      "outputs": [
        {
          "internalType": "string",
          "name": "",
          "type": "string"
        }
      ],
      "stateMutability": "view",
      "type": "function"
    },
    {
      "inputs": [
        {
          "components": [
            {
              "internalType": "bool",
              "name": "sendTokensToAvatarOwner",
              "type": "bool"
            },
            {
              "internalType": "address",
              "name": "avatarOwner",
              "type": "address"
            },
            {
              "internalType": "address",
              "name": "defaultExperience",
              "type": "address"
            },
            {
              "internalType": "string",
              "name": "username",
              "type": "string"
            },
            {
              "internalType": "bytes",
              "name": "initData",
              "type": "bytes"
            }
          ],
          "internalType": "struct AvatarRegistrationRequest",
          "name": "args",
          "type": "tuple"
        }
      ],
      "name": "registerAvatar",
      "outputs": [
        {
          "internalType": "address",
          "name": "avatar",
          "type": "address"
        }
      ],
      "stateMutability": "nonpayable",
      "type": "function"
    },
    {
      "inputs": [
        {
          "components": [
            {
              "internalType": "address",
              "name": "owner",
              "type": "address"
            },
            {
              "internalType": "string",
              "name": "name",
              "type": "string"
            },
            {
              "internalType": "bytes",
              "name": "initData",
              "type": "bytes"
            }
          ],
          "internalType": "struct CompanyRegistrationArgs",
          "name": "args",
          "type": "tuple"
        }
      ],
      "name": "registerCompany",
      "outputs": [
        {
          "internalType": "address",
          "name": "company",
          "type": "address"
        }
      ],
      "stateMutability": "nonpayable",
      "type": "function"
    },
    {
      "inputs": [],
      "name": "removeHook",
      "outputs": [],
      "stateMutability": "nonpayable",
      "type": "function"
    },
    {
      "inputs": [
        {
          "internalType": "address[]",
          "name": "sigs",
          "type": "address[]"
        }
      ],
      "name": "removeSigners",
      "outputs": [],
      "stateMutability": "nonpayable",
      "type": "function"
    },
    {
      "inputs": [
        {
          "internalType": "bytes32",
          "name": "role",
          "type": "bytes32"
        },
        {
          "internalType": "address",
          "name": "callerConfirmation",
          "type": "address"
        }
      ],
      "name": "renounceRole",
      "outputs": [],
      "stateMutability": "nonpayable",
      "type": "function"
    },
    {
      "inputs": [
        {
          "internalType": "bytes32",
          "name": "role",
          "type": "bytes32"
        },
        {
          "internalType": "address",
          "name": "account",
          "type": "address"
        }
      ],
      "name": "revokeRole",
      "outputs": [],
      "stateMutability": "nonpayable",
      "type": "function"
    },
    {
      "inputs": [
        {
          "internalType": "contract IWorldHook",
          "name": "_hook",
          "type": "address"
        }
      ],
      "name": "setHook",
      "outputs": [],
      "stateMutability": "nonpayable",
      "type": "function"
    },
    {
      "inputs": [
        {
          "internalType": "bytes4",
          "name": "interfaceId",
          "type": "bytes4"
        }
      ],
      "name": "supportsInterface",
      "outputs": [
        {
          "internalType": "bool",
          "name": "",
          "type": "bool"
        }
      ],
      "stateMutability": "view",
      "type": "function"
    },
    {
      "inputs": [
        {
          "internalType": "bytes",
          "name": "initData",
          "type": "bytes"
        }
      ],
      "name": "upgrade",
      "outputs": [],
      "stateMutability": "nonpayable",
      "type": "function"
    },
    {
      "inputs": [
        {
          "internalType": "address",
          "name": "nextVersion",
          "type": "address"
        }
      ],
      "name": "upgradeComplete",
      "outputs": [],
      "stateMutability": "nonpayable",
      "type": "function"
    },
    {
      "inputs": [],
      "name": "upgraded",
      "outputs": [
        {
          "internalType": "bool",
          "name": "",
          "type": "bool"
        }
      ],
      "stateMutability": "view",
      "type": "function"
    },
    {
      "inputs": [],
      "name": "worldFactory",
      "outputs": [
        {
          "internalType": "address",
          "name": "",
          "type": "address"
        }
      ],
      "stateMutability": "view",
      "type": "function"
    },
    {
      "inputs": [],
      "name": "worldRegistry",
      "outputs": [
        {
          "internalType": "contract IWorldRegistry0_2",
          "name": "",
          "type": "address"
        }
      ],
      "stateMutability": "view",
      "type": "function"
    },
    {
      "stateMutability": "payable",
      "type": "receive"
    }
  ],
  "bytecode": "0x60806040523480156200001157600080fd5b5060405162002b9438038062002b94833981016040819052620000349162000286565b600160005580516001600160a01b0316620000ac5760405162461bcd60e51b815260206004820152602d60248201527f576f726c64305f323a20776f726c64466163746f72792063616e6e6f7420626560448201526c207a65726f206164647265737360981b60648201526084015b60405180910390fd5b60208101516001600160a01b03166200011f5760405162461bcd60e51b815260206004820152602e60248201527f576f726c64305f323a20776f726c6452656769737472792063616e6e6f74206260448201526d65207a65726f206164647265737360901b6064820152608401620000a3565b60408101516001600160a01b0316620001945760405162461bcd60e51b815260206004820152603060248201527f576f726c64305f323a20636f6d70616e7952656769737472792063616e6e6f7460448201526f206265207a65726f206164647265737360801b6064820152608401620000a3565b60608101516001600160a01b0316620002085760405162461bcd60e51b815260206004820152602f60248201527f576f726c64305f323a2061766174617252656769737472792063616e6e6f742060448201526e6265207a65726f206164647265737360881b6064820152608401620000a3565b6020810151600280546001600160a01b03199081166001600160a01b0393841617909155825160038054831691841691909117905560408301516004805483169184169190911790556060909201516005805490931691161790556200031a565b80516001600160a01b03811681146200028157600080fd5b919050565b6000608082840312156200029957600080fd5b604051608081016001600160401b0381118282101715620002ca57634e487b7160e01b600052604160045260246000fd5b604052620002d88362000269565b8152620002e86020840162000269565b6020820152620002fb6040840162000269565b60408201526200030e6060840162000269565b60608201529392505050565b61286a806200032a6000396000f3fe6080604052600436106101a05760003560e01c806358eae73b116100ec578063a1ebf35d1161008a578063c51aba2b11610064578063c51aba2b146104f3578063d547741f14610513578063e3d7ad7314610533578063e8906a2d1461055357600080fd5b8063a1ebf35d1461049b578063a217fddf146104bd578063c28de2cd146104d257600080fd5b8063893d20e8116100c6578063893d20e81461041d5780638d361e431461043b578063911c2a8c1461045b57806391d148541461047b57600080fd5b806358eae73b146103bd57806361445eb7146103dd5780637f5a7c7b146103fd57600080fd5b80632663d1f711610159578063378f17ff11610133578063378f17ff14610346578063382af56d1461035b5780633dfd38731461037d5780634d575f3d1461039d57600080fd5b80632663d1f7146102e65780632f2ff15d1461030657806336568abe1461032657600080fd5b806301ffc9a7146101e157806306fdde03146102165780630dc3897d1461023857806317d7de7c14610270578063248a9ca31461028557806325394645146102c457600080fd5b366101dc5760405134815233907f5741979df5f3e491501da74d3b0a83dd2496ab1f34929865b3e190a8ad75859a9060200160405180910390a2005b600080fd5b3480156101ed57600080fd5b506102016101fc366004611dfc565b610573565b60405190151581526020015b60405180910390f35b34801561022257600080fd5b5061022b6105aa565b60405161020d9190611e73565b34801561024457600080fd5b50600354610258906001600160a01b031681565b6040516001600160a01b03909116815260200161020d565b34801561027c57600080fd5b5061022b610638565b34801561029157600080fd5b506102b66102a0366004611e86565b6000908152600160208190526040909120015490565b60405190815260200161020d565b3480156102d057600080fd5b506102e46102df366004611e9f565b6106ca565b005b3480156102f257600080fd5b506102e4610301366004611f31565b6107bd565b34801561031257600080fd5b506102e4610321366004611f4e565b6108fb565b34801561033257600080fd5b506102e4610341366004611f4e565b610927565b34801561035257600080fd5b506102e461095f565b34801561036757600080fd5b506103706109a6565b60405161020d9190611ff1565b34801561038957600080fd5b506102e4610398366004611f31565b610bc5565b3480156103a957600080fd5b506102586103b8366004612115565b610c7f565b3480156103c957600080fd5b506102586103d83660046121dd565b610fad565b3480156103e957600080fd5b506102e46103f8366004612349565b6114d5565b34801561040957600080fd5b50600854610258906001600160a01b031681565b34801561042957600080fd5b506006546001600160a01b0316610258565b34801561044757600080fd5b506102e46104563660046123e1565b6119dd565b34801561046757600080fd5b50600254610258906001600160a01b031681565b34801561048757600080fd5b50610201610496366004611f4e565b611ac8565b3480156104a757600080fd5b506102b660008051602061281583398151915281565b3480156104c957600080fd5b506102b6600081565b3480156104de57600080fd5b5060055461020190600160a01b900460ff1681565b3480156104ff57600080fd5b50600454610258906001600160a01b031681565b34801561051f57600080fd5b506102e461052e366004611f4e565b611af3565b34801561053f57600080fd5b50600554610258906001600160a01b031681565b34801561055f57600080fd5b506102e461056e3660046123e1565b611b19565b60006001600160e01b03198216637965db0b60e01b14806105a457506301ffc9a760e01b6001600160e01b03198316145b92915050565b600f80546105b790612493565b80601f01602080910402602001604051908101604052809291908181526020018280546105e390612493565b80156106305780601f1061060557610100808354040283529160200191610630565b820191906000526020600020905b81548152906001019060200180831161061357829003601f168201915b505050505081565b6060600f805461064790612493565b80601f016020809104026020016040519081016040528092919081815260200182805461067390612493565b80156106c05780601f10610695576101008083540402835291602001916106c0565b820191906000526020600020905b8154815290600101906020018083116106a357829003601f168201915b5050505050905090565b6000805160206128158339815191526106e281611ca9565b600554600160a01b900460ff16156107415760405162461bcd60e51b815260206004820181905260248201527f576f726c64305f323a20776f726c6420616c726561647920757067726164656460448201526064015b60405180910390fd5b6005805460ff60a01b1916600160a01b179055600254604051638f51aa6d60e01b81526001600160a01b0390911690638f51aa6d9061078690869086906004016124cd565b600060405180830381600087803b1580156107a057600080fd5b505af11580156107b4573d6000803e3d6000fd5b50505050505050565b6002546001600160a01b03166108155760405162461bcd60e51b815260206004820152601f60248201527f576f726c64305f323a20776f726c645265676973747279206e6f7420736574006044820152606401610738565b6002546001600160a01b0316331461086f5760405162461bcd60e51b815260206004820181905260248201527f576f726c64305f323a2063616c6c6572206973206e6f742072656769737472796044820152606401610738565b6005805460ff60a01b1916600160a01b1790554780156108c1576040516001600160a01b0383169082156108fc029083906000818181858888f193505050501580156108bf573d6000803e3d6000fd5b505b6040516001600160a01b0383169030907ff1fe458d696ab302f212b76fb0e63c85d19c1bcb4c3e61d3a4470e76d136321890600090a35050565b6000828152600160208190526040909120015461091781611ca9565b6109218383611cb3565b50505050565b6001600160a01b03811633146109505760405163334bd91960e11b815260040160405180910390fd5b61095a8282611d2c565b505050565b600061096a81611ca9565b600880546001600160a01b03191690556040517fd6bb5977e74678fe79d7effa6d93a6e996630cf696c32a815b00fda893b87b5a90600090a150565b6109df6040518060c001604052806060815260200160608152602001606081526020016000815260200160008152602001600081525090565b60096040518060c00160405290816000820180546109fc90612493565b80601f0160208091040260200160405190810160405280929190818152602001828054610a2890612493565b8015610a755780601f10610a4a57610100808354040283529160200191610a75565b820191906000526020600020905b815481529060010190602001808311610a5857829003601f168201915b50505050508152602001600182018054610a8e90612493565b80601f0160208091040260200160405190810160405280929190818152602001828054610aba90612493565b8015610b075780601f10610adc57610100808354040283529160200191610b07565b820191906000526020600020905b815481529060010190602001808311610aea57829003601f168201915b50505050508152602001600282018054610b2090612493565b80601f0160208091040260200160405190810160405280929190818152602001828054610b4c90612493565b8015610b995780601f10610b6e57610100808354040283529160200191610b99565b820191906000526020600020905b815481529060010190602001808311610b7c57829003601f168201915b505050505081526020016003820154815260200160048201548152602001600582015481525050905090565b6000610bd081611ca9565b6001600160a01b038216610c345760405162461bcd60e51b815260206004820152602560248201527f576f726c64305f323a20686f6f6b2063616e6e6f74206265207a65726f206164604482015264647265737360d81b6064820152608401610738565b600880546001600160a01b0319166001600160a01b0384169081179091556040517f2e0d4a0d6b6807573b280bc3dd0c83d52c5115e86a427cc6506e9a040f64b47790600090a25050565b6000610c9960008051602061281583398151915233611ac8565b610ce55760405162461bcd60e51b815260206004820152601e60248201527f576f726c64305f323a2063616c6c6572206973206e6f74207369676e657200006044820152606401610738565b610ced611d99565b60208201516001600160a01b0316610d5d5760405162461bcd60e51b815260206004820152602d60248201527f576f726c64305f323a20617661746172206f776e65722063616e6e6f7420626560448201526c207a65726f206164647265737360981b6064820152608401610738565b600082606001515111610dc45760405162461bcd60e51b815260206004820152602960248201527f576f726c64305f323a2061766174617220757365726e616d652063616e6e6f7460448201526820626520656d70747960b81b6064820152608401610738565b6008546001600160a01b031615610ea857600854604051633e6ff77160e21b81526001600160a01b039091169063f9bfddc490610e059085906004016124fc565b6020604051808303816000875af1158015610e24573d6000803e3d6000fd5b505050506040513d601f19601f82011682018060405250810190610e48919061256c565b610ea85760405162461bcd60e51b815260206004820152602b60248201527f576f726c64305f323a20686f6f6b2072656a656374656420617661746172207260448201526a32b3b4b9ba3930ba34b7b760a91b6064820152608401610738565b6005546040805160a0810182528451151581526020808601516001600160a01b03908116918301919091528583015181168284015260608087015190830152608080870151908301529151634d575f3d60e01b81529190921691634d575f3d91610f1591906004016124fc565b6020604051808303816000875af1158015610f34573d6000803e3d6000fd5b505050506040513d601f19601f82011682018060405250810190610f589190612589565b905081604001516001600160a01b0316816001600160a01b03167f0ada65c939d4c317368a1a88ef5f00697bfe4e748e24d6722c1a0d04c26a4b8660405160405180910390a3610fa86001600055565b919050565b6000610fc760008051602061281583398151915233611ac8565b6110135760405162461bcd60e51b815260206004820152601e60248201527f576f726c64305f323a2063616c6c6572206973206e6f74207369676e657200006044820152606401610738565b61101b611d99565b81516001600160a01b03166110895760405162461bcd60e51b815260206004820152602e60248201527f576f726c64305f323a20636f6d70616e79206f776e65722063616e6e6f74206260448201526d65207a65726f206164647265737360901b6064820152608401610738565b6000826020015151116110ed5760405162461bcd60e51b815260206004820152602660248201527f576f726c64305f323a20636f6d70616e79206e616d652063616e6e6f7420626560448201526520656d70747960d01b6064820152608401610738565b6008546001600160a01b0316156111d2576008546040516391c74e9560e01b81526001600160a01b03909116906391c74e959061112e9085906004016125a6565b6020604051808303816000875af115801561114d573d6000803e3d6000fd5b505050506040513d601f19601f82011682018060405250810190611171919061256c565b6111d25760405162461bcd60e51b815260206004820152602c60248201527f576f726c64305f323a20686f6f6b2072656a656374656420636f6d70616e792060448201526b3932b3b4b9ba3930ba34b7b760a11b6064820152608401610738565b6010600081546111e1906125f1565b9190508190555060006040518060c001604052806009600001805461120590612493565b80601f016020809104026020016040519081016040528092919081815260200182805461123190612493565b801561127e5780601f106112535761010080835404028352916020019161127e565b820191906000526020600020905b81548152906001019060200180831161126157829003601f168201915b505050505081526020016009600101805461129890612493565b80601f01602080910402602001604051908101604052809291908181526020018280546112c490612493565b80156113115780601f106112e657610100808354040283529160200191611311565b820191906000526020600020905b8154815290600101906020018083116112f457829003601f168201915b505050505081526020016009600201805461132b90612493565b80601f016020809104026020016040519081016040528092919081815260200182805461135790612493565b80156113a45780601f10611379576101008083540402835291602001916113a4565b820191906000526020600020905b81548152906001019060200180831161138757829003601f168201915b505050505081526020016009600301548152602001601054815260200160008152509050600460009054906101000a90046001600160a01b03166001600160a01b031663cb70d6c4604051806080016040528086600001516001600160a01b031681526020018481526020018660400151815260200186602001518152506040518263ffffffff1660e01b815260040161143e9190612618565b6020604051808303816000875af115801561145d573d6000803e3d6000fd5b505050506040513d601f19601f820116820180604052508101906114819190612589565b9150816001600160a01b03167f3ae5cc94bcf37dd89d282cbe7f9842a176a101aa41ce7af3ed66fa58a2466c628285602001516040516114c2929190612682565b60405180910390a250610fa86001600055565b6003546001600160a01b031661152d5760405162461bcd60e51b815260206004820152601e60248201527f576f726c64305f323a20776f726c64466163746f7279206e6f742073657400006044820152606401610738565b6003546001600160a01b031633146115875760405162461bcd60e51b815260206004820152601f60248201527f576f726c64305f323a2063616c6c6572206973206e6f7420666163746f7279006044820152606401610738565b80516001600160a01b03166115ed5760405162461bcd60e51b815260206004820152602660248201527f576f726c64305f323a206f776e65722063616e6e6f74206265207a65726f206160448201526564647265737360d01b6064820152608401610738565b604081015151516000036116515760405162461bcd60e51b815260206004820152602560248201527f576f726c64305f323a2062617365566563746f722e782063616e6e6f74206265604482015264207a65726f60d81b6064820152608401610738565b806040015160200151516000036116b85760405162461bcd60e51b815260206004820152602560248201527f576f726c64305f323a2062617365566563746f722e792063616e6e6f74206265604482015264207a65726f60d81b6064820152608401610738565b8060400151604001515160000361171f5760405162461bcd60e51b815260206004820152602560248201527f576f726c64305f323a2062617365566563746f722e7a2063616e6e6f74206265604482015264207a65726f60d81b6064820152608401610738565b604081015160800151156117815760405162461bcd60e51b815260206004820152602360248201527f576f726c64305f323a2062617365566563746f722e70206d757374206265207a60448201526265726f60e81b6064820152608401610738565b604081015160a00151156117e75760405162461bcd60e51b815260206004820152602760248201527f576f726c64305f323a2062617365566563746f722e705f737562206d757374206044820152666265207a65726f60c81b6064820152608401610738565b60008160600151511161183c5760405162461bcd60e51b815260206004820152601e60248201527f576f726c64305f323a206e616d652063616e6e6f7420626520656d70747900006044820152606401610738565b8051600680546001600160a01b0319166001600160a01b0390921691909117905560408101518051600990819061187390826126f7565b506020820151600182019061188890826126f7565b506040820151600282019061189d90826126f7565b5060608281015160038301556080830151600483015560a090920151600590910155810151600f906118cf90826126f7565b50600060108190556020820151600780546001600160a01b0319166001600160a01b03928316179055600654611906929116611cb3565b5060065461192c90600080516020612815833981519152906001600160a01b0316611cb3565b5060208101516001600160a01b0316156119da57600081602001516001600160a01b031663893d20e86040518163ffffffff1660e01b8152600401602060405180830381865afa158015611984573d6000803e3d6000fd5b505050506040513d601f19601f820116820180604052508101906119a89190612589565b6006549091506001600160a01b038083169116146119d85761095a60008051602061281583398151915282611cb3565b505b50565b60006119e881611ca9565b60005b825181101561095a5760006001600160a01b0316838281518110611a1157611a116127b7565b60200260200101516001600160a01b031603611a3f5760405162461bcd60e51b8152600401610738906127cd565b611a70600080516020612815833981519152848381518110611a6357611a636127b7565b6020026020010151611d2c565b50828181518110611a8357611a836127b7565b60200260200101516001600160a01b03167f3525e22824a8a7df2c9a6029941c824cf95b6447f1e13d5128fd3826d35afe8b60405160405180910390a26001016119eb565b60009182526001602090815260408084206001600160a01b0393909316845291905290205460ff1690565b60008281526001602081905260409091200154611b0f81611ca9565b6109218383611d2c565b6000611b2481611ca9565b600554600160a01b900460ff1615611b7e5760405162461bcd60e51b815260206004820181905260248201527f576f726c64305f323a20776f726c6420616c72656164792075706772616465646044820152606401610738565b60005b825181101561095a5760006001600160a01b0316838281518110611ba757611ba76127b7565b60200260200101516001600160a01b031603611bd55760405162461bcd60e51b8152600401610738906127cd565b611c06600080516020612815833981519152848381518110611bf957611bf96127b7565b6020026020010151611cb3565b611c525760405162461bcd60e51b815260206004820152601c60248201527f576f726c64305f323a207369676e657220726f6c65206661696c6564000000006044820152606401610738565b828181518110611c6457611c646127b7565b60200260200101516001600160a01b03167f47d1c22a25bb3a5d4e481b9b1e6944c2eade3181a0a20b495ed61d35b5323f2460405160405180910390a2600101611b81565b6119da8133611dc3565b6000611cbf8383611ac8565b611d245760008381526001602081815260408084206001600160a01b0387168086529252808420805460ff19169093179092559051339286917f2f8788117e7eff1d82e926ec794901d17c78024a50270940304540a733656f0d9190a45060016105a4565b5060006105a4565b6000611d388383611ac8565b15611d245760008381526001602090815260408083206001600160a01b0386168085529252808320805460ff1916905551339286917ff6391f5c32d9c69d2a47ea670b442974b53935d1edc7fd64eb21e047a839171b9190a45060016105a4565b600260005403611dbc57604051633ee5aeb560e01b815260040160405180910390fd5b6002600055565b611dcd8282611ac8565b6119d85760405163e2517d3f60e01b81526001600160a01b038216600482015260248101839052604401610738565b600060208284031215611e0e57600080fd5b81356001600160e01b031981168114611e2657600080fd5b9392505050565b6000815180845260005b81811015611e5357602081850181015186830182015201611e37565b506000602082860101526020601f19601f83011685010191505092915050565b602081526000611e266020830184611e2d565b600060208284031215611e9857600080fd5b5035919050565b60008060208385031215611eb257600080fd5b823567ffffffffffffffff80821115611eca57600080fd5b818501915085601f830112611ede57600080fd5b813581811115611eed57600080fd5b866020828501011115611eff57600080fd5b60209290920196919550909350505050565b6001600160a01b03811681146119da57600080fd5b8035610fa881611f11565b600060208284031215611f4357600080fd5b8135611e2681611f11565b60008060408385031215611f6157600080fd5b823591506020830135611f7381611f11565b809150509250929050565b6000815160c08452611f9360c0850182611e2d565b905060208301518482036020860152611fac8282611e2d565b91505060408301518482036040860152611fc68282611e2d565b915050606083015160608501526080830151608085015260a083015160a08501528091505092915050565b602081526000611e266020830184611f7e565b634e487b7160e01b600052604160045260246000fd5b60405160a0810167ffffffffffffffff8111828210171561203d5761203d612004565b60405290565b60405160c0810167ffffffffffffffff8111828210171561203d5761203d612004565b604051601f8201601f1916810167ffffffffffffffff8111828210171561208f5761208f612004565b604052919050565b80151581146119da57600080fd5b600082601f8301126120b657600080fd5b813567ffffffffffffffff8111156120d0576120d0612004565b6120e3601f8201601f1916602001612066565b8181528460208386010111156120f857600080fd5b816020850160208301376000918101602001919091529392505050565b60006020828403121561212757600080fd5b813567ffffffffffffffff8082111561213f57600080fd5b9083019060a0828603121561215357600080fd5b61215b61201a565b823561216681612097565b8152602083013561217681611f11565b602082015261218760408401611f26565b604082015260608301358281111561219e57600080fd5b6121aa878286016120a5565b6060830152506080830135828111156121c257600080fd5b6121ce878286016120a5565b60808301525095945050505050565b6000602082840312156121ef57600080fd5b813567ffffffffffffffff8082111561220757600080fd5b908301906060828603121561221b57600080fd5b60405160608101818110838211171561223657612236612004565b604052823561224481611f11565b815260208301358281111561225857600080fd5b612264878286016120a5565b60208301525060408301358281111561227c57600080fd5b612288878286016120a5565b60408301525095945050505050565b600060c082840312156122a957600080fd5b6122b1612043565b9050813567ffffffffffffffff808211156122cb57600080fd5b6122d7858386016120a5565b835260208401359150808211156122ed57600080fd5b6122f9858386016120a5565b6020840152604084013591508082111561231257600080fd5b5061231f848285016120a5565b604083015250606082013560608201526080820135608082015260a082013560a082015292915050565b60006020828403121561235b57600080fd5b813567ffffffffffffffff8082111561237357600080fd5b9083019060a0828603121561238757600080fd5b61238f61201a565b61239883611f26565b81526123a660208401611f26565b60208201526040830135828111156123bd57600080fd5b6123c987828601612297565b60408301525060608301358281111561219e57600080fd5b600060208083850312156123f457600080fd5b823567ffffffffffffffff8082111561240c57600080fd5b818501915085601f83011261242057600080fd5b81358181111561243257612432612004565b8060051b9150612443848301612066565b818152918301840191848101908884111561245d57600080fd5b938501935b83851015612487578435925061247783611f11565b8282529385019390850190612462565b98975050505050505050565b600181811c908216806124a757607f821691505b6020821081036124c757634e487b7160e01b600052602260045260246000fd5b50919050565b60208152816020820152818360408301376000818301604090810191909152601f909201601f19160101919050565b602081528151151560208201526000602083015160018060a01b0380821660408501528060408601511660608501525050606083015160a0608084015261254660c0840182611e2d565b90506080840151601f198483030160a08501526125638282611e2d565b95945050505050565b60006020828403121561257e57600080fd5b8151611e2681612097565b60006020828403121561259b57600080fd5b8151611e2681611f11565b602080825282516001600160a01b031682820152820151606060408301526000906125d46080840182611e2d565b90506040840151601f198483030160608501526125638282611e2d565b60006001820161261157634e487b7160e01b600052601160045260246000fd5b5060010190565b602080825282516001600160a01b0316828201528201516080604083015260009061264660a0840182611f7e565b90506040840151601f19808584030160608601526126648383611e2d565b92506060860151915080858403016080860152506125638282611e2d565b6040815260006126956040830185611f7e565b82810360208401526125638185611e2d565b601f82111561095a576000816000526020600020601f850160051c810160208610156126d05750805b601f850160051c820191505b818110156126ef578281556001016126dc565b505050505050565b815167ffffffffffffffff81111561271157612711612004565b6127258161271f8454612493565b846126a7565b602080601f83116001811461275a57600084156127425750858301515b600019600386901b1c1916600185901b1785556126ef565b600085815260208120601f198616915b828110156127895788860151825594840194600190910190840161276a565b50858210156127a75787850151600019600388901b60f8161c191681555b5050505050600190811b01905550565b634e487b7160e01b600052603260045260246000fd5b60208082526027908201527f576f726c64305f323a207369676e65722063616e6e6f74206265207a65726f206040820152666164647265737360c81b60608201526080019056fee2f4eaae4a9751e85a3e4a7b9587827a877f29914755229b07a7b2da98285f70a264697066735822122039f6fa11e59d6e9ebb8cb0807a9b0c25fa07b9a0d15fa4b884fef9ac15878cdd64736f6c63430008180033",
  "linkReferences": {},
  "deployedLinkReferences": {}
}