{
  "_format": "hh-sol-artifact-1",
  "contractName": "World0_2",
  "sourceName": "contracts/world/v0.2/World0_2.sol",
  "abi": [
    {
      "inputs": [
        {
          "components": [
            {
              "internalType": "address",
              "name": "worldFactory",
              "type": "address"
            },
            {
              "internalType": "address",
              "name": "worldRegistry",
              "type": "address"
            },
            {
              "internalType": "address",
              "name": "companyRegistry",
              "type": "address"
            },
            {
              "internalType": "address",
              "name": "avatarRegistry",
              "type": "address"
            }
          ],
          "internalType": "struct WorldConstructorArgs",
          "name": "args",
          "type": "tuple"
        }
      ],
      "stateMutability": "nonpayable",
      "type": "constructor"
    },
    {
      "inputs": [],
      "name": "AccessControlBadConfirmation",
      "type": "error"
    },
    {
      "inputs": [
        {
          "internalType": "address",
          "name": "account",
          "type": "address"
        },
        {
          "internalType": "bytes32",
          "name": "neededRole",
          "type": "bytes32"
        }
      ],
      "name": "AccessControlUnauthorizedAccount",
      "type": "error"
    },
    {
      "inputs": [],
      "name": "ReentrancyGuardReentrantCall",
      "type": "error"
    },
    {
      "anonymous": false,
      "inputs": [
        {
          "indexed": true,
          "internalType": "address",
          "name": "avatar",
          "type": "address"
        },
        {
          "indexed": true,
          "internalType": "address",
          "name": "experience",
          "type": "address"
        }
      ],
      "name": "AvatarRegistered",
      "type": "event"
    },
    {
      "anonymous": false,
      "inputs": [
        {
          "indexed": true,
          "internalType": "address",
          "name": "company",
          "type": "address"
        },
        {
          "components": [
            {
              "internalType": "string",
              "name": "x",
              "type": "string"
            },
            {
              "internalType": "string",
              "name": "y",
              "type": "string"
            },
            {
              "internalType": "string",
              "name": "z",
              "type": "string"
            },
            {
              "internalType": "uint256",
              "name": "t",
              "type": "uint256"
            },
            {
              "internalType": "uint256",
              "name": "p",
              "type": "uint256"
            },
            {
              "internalType": "uint256",
              "name": "p_sub",
              "type": "uint256"
            }
          ],
          "indexed": false,
          "internalType": "struct VectorAddress",
          "name": "vector",
          "type": "tuple"
        },
        {
          "indexed": false,
          "internalType": "string",
          "name": "name",
          "type": "string"
        }
      ],
      "name": "CompanyRegistered",
      "type": "event"
    },
    {
      "anonymous": false,
      "inputs": [
        {
          "indexed": true,
          "internalType": "address",
          "name": "sender",
          "type": "address"
        },
        {
          "indexed": false,
          "internalType": "uint256",
          "name": "value",
          "type": "uint256"
        }
      ],
      "name": "ReceivedFunds",
      "type": "event"
    },
    {
      "anonymous": false,
      "inputs": [
        {
          "indexed": true,
          "internalType": "bytes32",
          "name": "role",
          "type": "bytes32"
        },
        {
          "indexed": true,
          "internalType": "bytes32",
          "name": "previousAdminRole",
          "type": "bytes32"
        },
        {
          "indexed": true,
          "internalType": "bytes32",
          "name": "newAdminRole",
          "type": "bytes32"
        }
      ],
      "name": "RoleAdminChanged",
      "type": "event"
    },
    {
      "anonymous": false,
      "inputs": [
        {
          "indexed": true,
          "internalType": "bytes32",
          "name": "role",
          "type": "bytes32"
        },
        {
          "indexed": true,
          "internalType": "address",
          "name": "account",
          "type": "address"
        },
        {
          "indexed": true,
          "internalType": "address",
          "name": "sender",
          "type": "address"
        }
      ],
      "name": "RoleGranted",
      "type": "event"
    },
    {
      "anonymous": false,
      "inputs": [
        {
          "indexed": true,
          "internalType": "bytes32",
          "name": "role",
          "type": "bytes32"
        },
        {
          "indexed": true,
          "internalType": "address",
          "name": "account",
          "type": "address"
        },
        {
          "indexed": true,
          "internalType": "address",
          "name": "sender",
          "type": "address"
        }
      ],
      "name": "RoleRevoked",
      "type": "event"
    },
    {
      "anonymous": false,
      "inputs": [
        {
          "indexed": true,
          "internalType": "address",
          "name": "signer",
          "type": "address"
        }
      ],
      "name": "SignerAdded",
      "type": "event"
    },
    {
      "anonymous": false,
      "inputs": [
        {
          "indexed": true,
          "internalType": "address",
          "name": "signer",
          "type": "address"
        }
      ],
      "name": "SignerRemoved",
      "type": "event"
    },
    {
      "anonymous": false,
      "inputs": [],
      "name": "WorldHookRemoved",
      "type": "event"
    },
    {
      "anonymous": false,
      "inputs": [
        {
          "indexed": true,
          "internalType": "address",
          "name": "hook",
          "type": "address"
        }
      ],
      "name": "WorldHookSet",
      "type": "event"
    },
    {
      "anonymous": false,
      "inputs": [
        {
          "indexed": true,
          "internalType": "address",
          "name": "oldWorld",
          "type": "address"
        },
        {
          "indexed": true,
          "internalType": "address",
          "name": "newWorld",
          "type": "address"
        }
      ],
      "name": "WorldUpgraded",
      "type": "event"
    },
    {
      "inputs": [],
      "name": "DEFAULT_ADMIN_ROLE",
      "outputs": [
        {
          "internalType": "bytes32",
          "name": "",
          "type": "bytes32"
        }
      ],
      "stateMutability": "view",
      "type": "function"
    },
    {
      "inputs": [],
      "name": "SIGNER_ROLE",
      "outputs": [
        {
          "internalType": "bytes32",
          "name": "",
          "type": "bytes32"
        }
      ],
      "stateMutability": "view",
      "type": "function"
    },
    {
      "inputs": [
        {
          "internalType": "address[]",
          "name": "sigs",
          "type": "address[]"
        }
      ],
      "name": "addSigners",
      "outputs": [],
      "stateMutability": "nonpayable",
      "type": "function"
    },
    {
      "inputs": [],
      "name": "avatarRegistry",
      "outputs": [
        {
          "internalType": "contract IAvatarRegistry",
          "name": "",
          "type": "address"
        }
      ],
      "stateMutability": "view",
      "type": "function"
    },
    {
      "inputs": [],
      "name": "companyRegistry",
      "outputs": [
        {
          "internalType": "contract ICompanyRegistry",
          "name": "",
          "type": "address"
        }
      ],
      "stateMutability": "view",
      "type": "function"
    },
    {
      "inputs": [],
      "name": "getBaseVector",
      "outputs": [
        {
          "components": [
            {
              "internalType": "string",
              "name": "x",
              "type": "string"
            },
            {
              "internalType": "string",
              "name": "y",
              "type": "string"
            },
            {
              "internalType": "string",
              "name": "z",
              "type": "string"
            },
            {
              "internalType": "uint256",
              "name": "t",
              "type": "uint256"
            },
            {
              "internalType": "uint256",
              "name": "p",
              "type": "uint256"
            },
            {
              "internalType": "uint256",
              "name": "p_sub",
              "type": "uint256"
            }
          ],
          "internalType": "struct VectorAddress",
          "name": "",
          "type": "tuple"
        }
      ],
      "stateMutability": "view",
      "type": "function"
    },
    {
      "inputs": [],
      "name": "getName",
      "outputs": [
        {
          "internalType": "string",
          "name": "",
          "type": "string"
        }
      ],
      "stateMutability": "view",
      "type": "function"
    },
    {
      "inputs": [],
      "name": "getOwner",
      "outputs": [
        {
          "internalType": "address",
          "name": "",
          "type": "address"
        }
      ],
      "stateMutability": "view",
      "type": "function"
    },
    {
      "inputs": [
        {
          "internalType": "bytes32",
          "name": "role",
          "type": "bytes32"
        }
      ],
      "name": "getRoleAdmin",
      "outputs": [
        {
          "internalType": "bytes32",
          "name": "",
          "type": "bytes32"
        }
      ],
      "stateMutability": "view",
      "type": "function"
    },
    {
      "inputs": [
        {
          "internalType": "bytes32",
          "name": "role",
          "type": "bytes32"
        },
        {
          "internalType": "address",
          "name": "account",
          "type": "address"
        }
      ],
      "name": "grantRole",
      "outputs": [],
      "stateMutability": "nonpayable",
      "type": "function"
    },
    {
      "inputs": [
        {
          "internalType": "bytes32",
          "name": "role",
          "type": "bytes32"
        },
        {
          "internalType": "address",
          "name": "account",
          "type": "address"
        }
      ],
      "name": "hasRole",
      "outputs": [
        {
          "internalType": "bool",
          "name": "",
          "type": "bool"
        }
      ],
      "stateMutability": "view",
      "type": "function"
    },
    {
      "inputs": [],
      "name": "hook",
      "outputs": [
        {
          "internalType": "contract IWorldHook",
          "name": "",
          "type": "address"
        }
      ],
      "stateMutability": "view",
      "type": "function"
    },
    {
      "inputs": [
        {
          "components": [
            {
              "internalType": "address",
              "name": "owner",
              "type": "address"
            },
            {
              "internalType": "address",
              "name": "oldWorld",
              "type": "address"
            },
            {
              "components": [
                {
                  "internalType": "string",
                  "name": "x",
                  "type": "string"
                },
                {
                  "internalType": "string",
                  "name": "y",
                  "type": "string"
                },
                {
                  "internalType": "string",
                  "name": "z",
                  "type": "string"
                },
                {
                  "internalType": "uint256",
                  "name": "t",
                  "type": "uint256"
                },
                {
                  "internalType": "uint256",
                  "name": "p",
                  "type": "uint256"
                },
                {
                  "internalType": "uint256",
                  "name": "p_sub",
                  "type": "uint256"
                }
              ],
              "internalType": "struct VectorAddress",
              "name": "baseVector",
              "type": "tuple"
            },
            {
              "internalType": "string",
              "name": "name",
              "type": "string"
            },
            {
              "internalType": "bytes",
              "name": "initData",
              "type": "bytes"
            }
          ],
          "internalType": "struct WorldCreateRequest",
          "name": "request",
          "type": "tuple"
        }
      ],
      "name": "init",
      "outputs": [],
      "stateMutability": "nonpayable",
      "type": "function"
    },
    {
      "inputs": [
        {
          "internalType": "address",
          "name": "signer",
          "type": "address"
        }
      ],
      "name": "isSigner",
      "outputs": [
        {
          "internalType": "bool",
          "name": "",
          "type": "bool"
        }
      ],
      "stateMutability": "view",
      "type": "function"
    },
    {
      "inputs": [],
      "name": "name",
      "outputs": [
        {
          "internalType": "string",
          "name": "",
          "type": "string"
        }
      ],
      "stateMutability": "view",
      "type": "function"
    },
    {
      "inputs": [
        {
          "components": [
            {
              "internalType": "bool",
              "name": "sendTokensToAvatarOwner",
              "type": "bool"
            },
            {
              "internalType": "address",
              "name": "avatarOwner",
              "type": "address"
            },
            {
              "internalType": "address",
              "name": "defaultExperience",
              "type": "address"
            },
            {
              "internalType": "string",
              "name": "username",
              "type": "string"
            },
            {
              "internalType": "bytes",
              "name": "initData",
              "type": "bytes"
            }
          ],
          "internalType": "struct AvatarRegistrationRequest",
          "name": "args",
          "type": "tuple"
        }
      ],
      "name": "registerAvatar",
      "outputs": [
        {
          "internalType": "address",
          "name": "avatar",
          "type": "address"
        }
      ],
      "stateMutability": "nonpayable",
      "type": "function"
    },
    {
      "inputs": [
        {
          "components": [
            {
              "internalType": "address",
              "name": "owner",
              "type": "address"
            },
            {
              "internalType": "string",
              "name": "name",
              "type": "string"
            },
            {
              "internalType": "bytes",
              "name": "initData",
              "type": "bytes"
            }
          ],
          "internalType": "struct CompanyRegistrationArgs",
          "name": "args",
          "type": "tuple"
        }
      ],
      "name": "registerCompany",
      "outputs": [
        {
          "internalType": "address",
          "name": "company",
          "type": "address"
        }
      ],
      "stateMutability": "nonpayable",
      "type": "function"
    },
    {
      "inputs": [],
      "name": "removeHook",
      "outputs": [],
      "stateMutability": "nonpayable",
      "type": "function"
    },
    {
      "inputs": [
        {
          "internalType": "address[]",
          "name": "sigs",
          "type": "address[]"
        }
      ],
      "name": "removeSigners",
      "outputs": [],
      "stateMutability": "nonpayable",
      "type": "function"
    },
    {
      "inputs": [
        {
          "internalType": "bytes32",
          "name": "role",
          "type": "bytes32"
        },
        {
          "internalType": "address",
          "name": "callerConfirmation",
          "type": "address"
        }
      ],
      "name": "renounceRole",
      "outputs": [],
      "stateMutability": "nonpayable",
      "type": "function"
    },
    {
      "inputs": [
        {
          "internalType": "bytes32",
          "name": "role",
          "type": "bytes32"
        },
        {
          "internalType": "address",
          "name": "account",
          "type": "address"
        }
      ],
      "name": "revokeRole",
      "outputs": [],
      "stateMutability": "nonpayable",
      "type": "function"
    },
    {
      "inputs": [
        {
          "internalType": "contract IWorldHook",
          "name": "_hook",
          "type": "address"
        }
      ],
      "name": "setHook",
      "outputs": [],
      "stateMutability": "nonpayable",
      "type": "function"
    },
    {
      "inputs": [
        {
          "internalType": "bytes4",
          "name": "interfaceId",
          "type": "bytes4"
        }
      ],
      "name": "supportsInterface",
      "outputs": [
        {
          "internalType": "bool",
          "name": "",
          "type": "bool"
        }
      ],
      "stateMutability": "view",
      "type": "function"
    },
    {
      "inputs": [
        {
          "internalType": "bytes",
          "name": "initData",
          "type": "bytes"
        }
      ],
      "name": "upgrade",
      "outputs": [],
      "stateMutability": "nonpayable",
      "type": "function"
    },
    {
      "inputs": [
        {
          "internalType": "address",
          "name": "nextVersion",
          "type": "address"
        }
      ],
      "name": "upgradeComplete",
      "outputs": [],
      "stateMutability": "nonpayable",
      "type": "function"
    },
    {
      "inputs": [],
      "name": "upgraded",
      "outputs": [
        {
          "internalType": "bool",
          "name": "",
          "type": "bool"
        }
      ],
      "stateMutability": "view",
      "type": "function"
    },
    {
      "inputs": [],
      "name": "version",
      "outputs": [
        {
          "internalType": "string",
          "name": "",
          "type": "string"
        }
      ],
      "stateMutability": "view",
      "type": "function"
    },
    {
      "inputs": [
        {
          "internalType": "uint256",
          "name": "amount",
          "type": "uint256"
        }
      ],
      "name": "withdraw",
      "outputs": [],
      "stateMutability": "nonpayable",
      "type": "function"
    },
    {
      "inputs": [],
      "name": "worldFactory",
      "outputs": [
        {
          "internalType": "address",
          "name": "",
          "type": "address"
        }
      ],
      "stateMutability": "view",
      "type": "function"
    },
    {
      "inputs": [],
      "name": "worldRegistry",
      "outputs": [
        {
          "internalType": "contract IWorldRegistry0_2",
          "name": "",
          "type": "address"
        }
      ],
      "stateMutability": "view",
      "type": "function"
    },
    {
      "stateMutability": "payable",
      "type": "receive"
    }
  ],
  "bytecode": "0x6101006040523480156200001257600080fd5b5060405162002e2b38038062002e2b83398101604081905262000035916200025a565b600160005580516001600160a01b0316620000ad5760405162461bcd60e51b815260206004820152602d60248201527f576f726c64305f323a20776f726c64466163746f72792063616e6e6f7420626560448201526c207a65726f206164647265737360981b60648201526084015b60405180910390fd5b60208101516001600160a01b0316620001205760405162461bcd60e51b815260206004820152602e60248201527f576f726c64305f323a20776f726c6452656769737472792063616e6e6f74206260448201526d65207a65726f206164647265737360901b6064820152608401620000a4565b60408101516001600160a01b0316620001955760405162461bcd60e51b815260206004820152603060248201527f576f726c64305f323a20636f6d70616e7952656769737472792063616e6e6f7460448201526f206265207a65726f206164647265737360801b6064820152608401620000a4565b60608101516001600160a01b0316620002095760405162461bcd60e51b815260206004820152602f60248201527f576f726c64305f323a2061766174617252656769737472792063616e6e6f742060448201526e6265207a65726f206164647265737360881b6064820152608401620000a4565b60208101516001600160a01b039081166080528151811660a0526040820151811660c0526060909101511660e052620002ee565b80516001600160a01b03811681146200025557600080fd5b919050565b6000608082840312156200026d57600080fd5b604051608081016001600160401b03811182821017156200029e57634e487b7160e01b600052604160045260246000fd5b604052620002ac836200023d565b8152620002bc602084016200023d565b6020820152620002cf604084016200023d565b6040820152620002e2606084016200023d565b60608201529392505050565b60805160a05160c05160e051612ad2620003596000396000818161061f01526110750152600081816105cb01526115c101526000818161027b015281816116d901526117580152600081816105260152818161084c015281816108bc015261093b0152612ad26000f3fe6080604052600436106101d15760003560e01c806358eae73b116100f757806391d1485411610095578063c51aba2b11610064578063c51aba2b146105b9578063d547741f146105ed578063e3d7ad731461060d578063e8906a2d1461064157600080fd5b806391d1485414610548578063a1ebf35d14610568578063a217fddf1461058a578063c28de2cd1461059f57600080fd5b80637f5a7c7b116100d15780637f5a7c7b146104b1578063893d20e8146104d15780638d361e43146104f4578063911c2a8c1461051457600080fd5b806358eae73b1461045157806361445eb7146104715780637df73e271461049157600080fd5b80632e1a7d4d1161016f578063382af56d1161013e578063382af56d146103c05780633dfd3873146103e25780634d575f3d1461040257806354fd4d501461042257600080fd5b80632e1a7d4d1461034b5780632f2ff15d1461036b57806336568abe1461038b578063378f17ff146103ab57600080fd5b806317d7de7c116101ab57806317d7de7c146102b5578063248a9ca3146102ca57806325394645146103095780632663d1f71461032b57600080fd5b806301ffc9a71461021257806306fdde03146102475780630dc3897d1461026957600080fd5b3661020d5760405134815233907f5741979df5f3e491501da74d3b0a83dd2496ab1f34929865b3e190a8ad75859a9060200160405180910390a2005b600080fd5b34801561021e57600080fd5b5061023261022d366004612064565b610661565b60405190151581526020015b60405180910390f35b34801561025357600080fd5b5061025c610698565b60405161023e91906120db565b34801561027557600080fd5b5061029d7f000000000000000000000000000000000000000000000000000000000000000081565b6040516001600160a01b03909116815260200161023e565b3480156102c157600080fd5b5061025c610726565b3480156102d657600080fd5b506102fb6102e53660046120ee565b6000908152600160208190526040909120015490565b60405190815260200161023e565b34801561031557600080fd5b50610329610324366004612107565b6107b8565b005b34801561033757600080fd5b50610329610346366004612199565b6108ba565b34801561035757600080fd5b506103296103663660046120ee565b610a2e565b34801561037757600080fd5b506103296103863660046121b6565b610acc565b34801561039757600080fd5b506103296103a63660046121b6565b610af8565b3480156103b757600080fd5b50610329610b2b565b3480156103cc57600080fd5b506103d5610b72565b60405161023e9190612259565b3480156103ee57600080fd5b506103296103fd366004612199565b610d91565b34801561040e57600080fd5b5061029d61041d36600461237d565b610e4b565b34801561042e57600080fd5b5061025c6040518060400160405280600381526020016218171960e91b81525081565b34801561045d57600080fd5b5061029d61046c366004612445565b6111a5565b34801561047d57600080fd5b5061032961048c3660046125b1565b6116d7565b34801561049d57600080fd5b506102326104ac366004612199565b611c32565b3480156104bd57600080fd5b5060045461029d906001600160a01b031681565b3480156104dd57600080fd5b5060025461010090046001600160a01b031661029d565b34801561050057600080fd5b5061032961050f366004612649565b611c4c565b34801561052057600080fd5b5061029d7f000000000000000000000000000000000000000000000000000000000000000081565b34801561055457600080fd5b506102326105633660046121b6565b611d37565b34801561057457600080fd5b506102fb600080516020612a7d83398151915281565b34801561059657600080fd5b506102fb600081565b3480156105ab57600080fd5b506002546102329060ff1681565b3480156105c557600080fd5b5061029d7f000000000000000000000000000000000000000000000000000000000000000081565b3480156105f957600080fd5b506103296106083660046121b6565b611d62565b34801561061957600080fd5b5061029d7f000000000000000000000000000000000000000000000000000000000000000081565b34801561064d57600080fd5b5061032961065c366004612649565b611d88565b60006001600160e01b03198216637965db0b60e01b148061069257506301ffc9a760e01b6001600160e01b03198316145b92915050565b600b80546106a5906126fb565b80601f01602080910402602001604051908101604052809291908181526020018280546106d1906126fb565b801561071e5780601f106106f35761010080835404028352916020019161071e565b820191906000526020600020905b81548152906001019060200180831161070157829003601f168201915b505050505081565b6060600b8054610735906126fb565b80601f0160208091040260200160405190810160405280929190818152602001828054610761906126fb565b80156107ae5780601f10610783576101008083540402835291602001916107ae565b820191906000526020600020905b81548152906001019060200180831161079157829003601f168201915b5050505050905090565b600080516020612a7d8339815191526107d081611f11565b60025460ff16156108285760405162461bcd60e51b815260206004820181905260248201527f576f726c64305f323a20776f726c6420616c726561647920757067726164656460448201526064015b60405180910390fd5b6002805460ff19166001179055604051638f51aa6d60e01b81526001600160a01b037f00000000000000000000000000000000000000000000000000000000000000001690638f51aa6d906108839086908690600401612735565b600060405180830381600087803b15801561089d57600080fd5b505af11580156108b1573d6000803e3d6000fd5b50505050505050565b7f00000000000000000000000000000000000000000000000000000000000000006001600160a01b03166109305760405162461bcd60e51b815260206004820152601f60248201527f576f726c64305f323a20776f726c645265676973747279206e6f742073657400604482015260640161081f565b336001600160a01b037f000000000000000000000000000000000000000000000000000000000000000016146109a85760405162461bcd60e51b815260206004820181905260248201527f576f726c64305f323a2063616c6c6572206973206e6f74207265676973747279604482015260640161081f565b6002805460ff191660011790554780156109f4576040516001600160a01b0383169082156108fc029083906000818181858888f193505050501580156109f2573d6000803e3d6000fd5b505b6040516001600160a01b0383169030907ff1fe458d696ab302f212b76fb0e63c85d19c1bcb4c3e61d3a4470e76d136321890600090a35050565b6000610a3981611f11565b47821115610a895760405162461bcd60e51b815260206004820181905260248201527f576f726c64305f323a20616d6f756e7420657863656564732062616c616e6365604482015260640161081f565b6002546040516101009091046001600160a01b0316906108fc8415029084906000818181858888f19350505050158015610ac7573d6000803e3d6000fd5b505050565b60008281526001602081905260409091200154610ae881611f11565b610af28383611f1b565b50505050565b6001600160a01b0381163314610b215760405163334bd91960e11b815260040160405180910390fd5b610ac78282611f94565b6000610b3681611f11565b600480546001600160a01b03191690556040517fd6bb5977e74678fe79d7effa6d93a6e996630cf696c32a815b00fda893b87b5a90600090a150565b610bab6040518060c001604052806060815260200160608152602001606081526020016000815260200160008152602001600081525090565b60056040518060c0016040529081600082018054610bc8906126fb565b80601f0160208091040260200160405190810160405280929190818152602001828054610bf4906126fb565b8015610c415780601f10610c1657610100808354040283529160200191610c41565b820191906000526020600020905b815481529060010190602001808311610c2457829003601f168201915b50505050508152602001600182018054610c5a906126fb565b80601f0160208091040260200160405190810160405280929190818152602001828054610c86906126fb565b8015610cd35780601f10610ca857610100808354040283529160200191610cd3565b820191906000526020600020905b815481529060010190602001808311610cb657829003601f168201915b50505050508152602001600282018054610cec906126fb565b80601f0160208091040260200160405190810160405280929190818152602001828054610d18906126fb565b8015610d655780601f10610d3a57610100808354040283529160200191610d65565b820191906000526020600020905b815481529060010190602001808311610d4857829003601f168201915b505050505081526020016003820154815260200160048201548152602001600582015481525050905090565b6000610d9c81611f11565b6001600160a01b038216610e005760405162461bcd60e51b815260206004820152602560248201527f576f726c64305f323a20686f6f6b2063616e6e6f74206265207a65726f206164604482015264647265737360d81b606482015260840161081f565b600480546001600160a01b0319166001600160a01b0384169081179091556040517f2e0d4a0d6b6807573b280bc3dd0c83d52c5115e86a427cc6506e9a040f64b47790600090a25050565b6000610e65600080516020612a7d83398151915233611d37565b610eb15760405162461bcd60e51b815260206004820152601e60248201527f576f726c64305f323a2063616c6c6572206973206e6f74207369676e65720000604482015260640161081f565b610eb9612001565b60208201516001600160a01b0316610f295760405162461bcd60e51b815260206004820152602d60248201527f576f726c64305f323a20617661746172206f776e65722063616e6e6f7420626560448201526c207a65726f206164647265737360981b606482015260840161081f565b600082606001515111610f905760405162461bcd60e51b815260206004820152602960248201527f576f726c64305f323a2061766174617220757365726e616d652063616e6e6f7460448201526820626520656d70747960b81b606482015260840161081f565b6004546001600160a01b0316156110735760048054604051633e6ff77160e21b81526001600160a01b039091169163f9bfddc491610fd091869101612764565b6020604051808303816000875af1158015610fef573d6000803e3d6000fd5b505050506040513d601f19601f8201168201806040525081019061101391906127d4565b6110735760405162461bcd60e51b815260206004820152602b60248201527f576f726c64305f323a20686f6f6b2072656a656374656420617661746172207260448201526a32b3b4b9ba3930ba34b7b760a91b606482015260840161081f565b7f00000000000000000000000000000000000000000000000000000000000000006001600160a01b0316634d575f3d6040518060a0016040528085600001511515815260200185602001516001600160a01b0316815260200185604001516001600160a01b031681526020018560600151815260200185608001518152506040518263ffffffff1660e01b815260040161110d9190612764565b6020604051808303816000875af115801561112c573d6000803e3d6000fd5b505050506040513d601f19601f8201168201806040525081019061115091906127f1565b905081604001516001600160a01b0316816001600160a01b03167f0ada65c939d4c317368a1a88ef5f00697bfe4e748e24d6722c1a0d04c26a4b8660405160405180910390a36111a06001600055565b919050565b60006111bf600080516020612a7d83398151915233611d37565b61120b5760405162461bcd60e51b815260206004820152601e60248201527f576f726c64305f323a2063616c6c6572206973206e6f74207369676e65720000604482015260640161081f565b611213612001565b81516001600160a01b03166112815760405162461bcd60e51b815260206004820152602e60248201527f576f726c64305f323a20636f6d70616e79206f776e65722063616e6e6f74206260448201526d65207a65726f206164647265737360901b606482015260840161081f565b6000826020015151116112e55760405162461bcd60e51b815260206004820152602660248201527f576f726c64305f323a20636f6d70616e79206e616d652063616e6e6f7420626560448201526520656d70747960d01b606482015260840161081f565b6004546001600160a01b0316156113c957600480546040516391c74e9560e01b81526001600160a01b03909116916391c74e95916113259186910161280e565b6020604051808303816000875af1158015611344573d6000803e3d6000fd5b505050506040513d601f19601f8201168201806040525081019061136891906127d4565b6113c95760405162461bcd60e51b815260206004820152602c60248201527f576f726c64305f323a20686f6f6b2072656a656374656420636f6d70616e792060448201526b3932b3b4b9ba3930ba34b7b760a11b606482015260840161081f565b600c600081546113d890612859565b9190508190555060006040518060c00160405280600560000180546113fc906126fb565b80601f0160208091040260200160405190810160405280929190818152602001828054611428906126fb565b80156114755780601f1061144a57610100808354040283529160200191611475565b820191906000526020600020905b81548152906001019060200180831161145857829003601f168201915b505050505081526020016005600101805461148f906126fb565b80601f01602080910402602001604051908101604052809291908181526020018280546114bb906126fb565b80156115085780601f106114dd57610100808354040283529160200191611508565b820191906000526020600020905b8154815290600101906020018083116114eb57829003601f168201915b5050505050815260200160056002018054611522906126fb565b80601f016020809104026020016040519081016040528092919081815260200182805461154e906126fb565b801561159b5780601f106115705761010080835404028352916020019161159b565b820191906000526020600020905b81548152906001019060200180831161157e57829003601f168201915b505050505081526020016005600301548152602001600c548152602001600081525090507f00000000000000000000000000000000000000000000000000000000000000006001600160a01b031663cb70d6c4604051806080016040528086600001516001600160a01b031681526020018481526020018660400151815260200186602001518152506040518263ffffffff1660e01b81526004016116409190612880565b6020604051808303816000875af115801561165f573d6000803e3d6000fd5b505050506040513d601f19601f8201168201806040525081019061168391906127f1565b9150816001600160a01b03167f3ae5cc94bcf37dd89d282cbe7f9842a176a101aa41ce7af3ed66fa58a2466c628285602001516040516116c49291906128ea565b60405180910390a2506111a06001600055565b7f00000000000000000000000000000000000000000000000000000000000000006001600160a01b031661174d5760405162461bcd60e51b815260206004820152601e60248201527f576f726c64305f323a20776f726c64466163746f7279206e6f74207365740000604482015260640161081f565b336001600160a01b037f000000000000000000000000000000000000000000000000000000000000000016146117c55760405162461bcd60e51b815260206004820152601f60248201527f576f726c64305f323a2063616c6c6572206973206e6f7420666163746f727900604482015260640161081f565b80516001600160a01b031661182b5760405162461bcd60e51b815260206004820152602660248201527f576f726c64305f323a206f776e65722063616e6e6f74206265207a65726f206160448201526564647265737360d01b606482015260840161081f565b6040810151515160000361188f5760405162461bcd60e51b815260206004820152602560248201527f576f726c64305f323a2062617365566563746f722e782063616e6e6f74206265604482015264207a65726f60d81b606482015260840161081f565b806040015160200151516000036118f65760405162461bcd60e51b815260206004820152602560248201527f576f726c64305f323a2062617365566563746f722e792063616e6e6f74206265604482015264207a65726f60d81b606482015260840161081f565b8060400151604001515160000361195d5760405162461bcd60e51b815260206004820152602560248201527f576f726c64305f323a2062617365566563746f722e7a2063616e6e6f74206265604482015264207a65726f60d81b606482015260840161081f565b604081015160800151156119bf5760405162461bcd60e51b815260206004820152602360248201527f576f726c64305f323a2062617365566563746f722e70206d757374206265207a60448201526265726f60e81b606482015260840161081f565b604081015160a0015115611a255760405162461bcd60e51b815260206004820152602760248201527f576f726c64305f323a2062617365566563746f722e705f737562206d757374206044820152666265207a65726f60c81b606482015260840161081f565b600081606001515111611a7a5760405162461bcd60e51b815260206004820152601e60248201527f576f726c64305f323a206e616d652063616e6e6f7420626520656d7074790000604482015260640161081f565b8051600280546001600160a01b0390921661010002610100600160a81b0319909216919091179055604081015180516005908190611ab8908261295f565b5060208201516001820190611acd908261295f565b5060408201516002820190611ae2908261295f565b5060608281015160038301556080830151600483015560a090920151600590910155810151600b90611b14908261295f565b506000600c8190556020820151600380546001600160a01b0319166001600160a01b03928316179055600254611b51929161010090910416611f1b565b50600254611b7c90600080516020612a7d8339815191529061010090046001600160a01b0316611f1b565b5060208101516001600160a01b031615611c2f57600081602001516001600160a01b031663893d20e86040518163ffffffff1660e01b8152600401602060405180830381865afa158015611bd4573d6000803e3d6000fd5b505050506040513d601f19601f82011682018060405250810190611bf891906127f1565b6002549091506001600160a01b038083166101009092041614611c2d57610ac7600080516020612a7d83398151915282611f1b565b505b50565b6000610692600080516020612a7d83398151915283611d37565b6000611c5781611f11565b60005b8251811015610ac75760006001600160a01b0316838281518110611c8057611c80612a1f565b60200260200101516001600160a01b031603611cae5760405162461bcd60e51b815260040161081f90612a35565b611cdf600080516020612a7d833981519152848381518110611cd257611cd2612a1f565b6020026020010151611f94565b50828181518110611cf257611cf2612a1f565b60200260200101516001600160a01b03167f3525e22824a8a7df2c9a6029941c824cf95b6447f1e13d5128fd3826d35afe8b60405160405180910390a2600101611c5a565b60009182526001602090815260408084206001600160a01b0393909316845291905290205460ff1690565b60008281526001602081905260409091200154611d7e81611f11565b610af28383611f94565b6000611d9381611f11565b60025460ff1615611de65760405162461bcd60e51b815260206004820181905260248201527f576f726c64305f323a20776f726c6420616c7265616479207570677261646564604482015260640161081f565b60005b8251811015610ac75760006001600160a01b0316838281518110611e0f57611e0f612a1f565b60200260200101516001600160a01b031603611e3d5760405162461bcd60e51b815260040161081f90612a35565b611e6e600080516020612a7d833981519152848381518110611e6157611e61612a1f565b6020026020010151611f1b565b611eba5760405162461bcd60e51b815260206004820152601c60248201527f576f726c64305f323a207369676e657220726f6c65206661696c656400000000604482015260640161081f565b828181518110611ecc57611ecc612a1f565b60200260200101516001600160a01b03167f47d1c22a25bb3a5d4e481b9b1e6944c2eade3181a0a20b495ed61d35b5323f2460405160405180910390a2600101611de9565b611c2f813361202b565b6000611f278383611d37565b611f8c5760008381526001602081815260408084206001600160a01b0387168086529252808420805460ff19169093179092559051339286917f2f8788117e7eff1d82e926ec794901d17c78024a50270940304540a733656f0d9190a4506001610692565b506000610692565b6000611fa08383611d37565b15611f8c5760008381526001602090815260408083206001600160a01b0386168085529252808320805460ff1916905551339286917ff6391f5c32d9c69d2a47ea670b442974b53935d1edc7fd64eb21e047a839171b9190a4506001610692565b60026000540361202457604051633ee5aeb560e01b815260040160405180910390fd5b6002600055565b6120358282611d37565b611c2d5760405163e2517d3f60e01b81526001600160a01b03821660048201526024810183905260440161081f565b60006020828403121561207657600080fd5b81356001600160e01b03198116811461208e57600080fd5b9392505050565b6000815180845260005b818110156120bb5760208185018101518683018201520161209f565b506000602082860101526020601f19601f83011685010191505092915050565b60208152600061208e6020830184612095565b60006020828403121561210057600080fd5b5035919050565b6000806020838503121561211a57600080fd5b823567ffffffffffffffff8082111561213257600080fd5b818501915085601f83011261214657600080fd5b81358181111561215557600080fd5b86602082850101111561216757600080fd5b60209290920196919550909350505050565b6001600160a01b0381168114611c2f57600080fd5b80356111a081612179565b6000602082840312156121ab57600080fd5b813561208e81612179565b600080604083850312156121c957600080fd5b8235915060208301356121db81612179565b809150509250929050565b6000815160c084526121fb60c0850182612095565b9050602083015184820360208601526122148282612095565b9150506040830151848203604086015261222e8282612095565b915050606083015160608501526080830151608085015260a083015160a08501528091505092915050565b60208152600061208e60208301846121e6565b634e487b7160e01b600052604160045260246000fd5b60405160a0810167ffffffffffffffff811182821017156122a5576122a561226c565b60405290565b60405160c0810167ffffffffffffffff811182821017156122a5576122a561226c565b604051601f8201601f1916810167ffffffffffffffff811182821017156122f7576122f761226c565b604052919050565b8015158114611c2f57600080fd5b600082601f83011261231e57600080fd5b813567ffffffffffffffff8111156123385761233861226c565b61234b601f8201601f19166020016122ce565b81815284602083860101111561236057600080fd5b816020850160208301376000918101602001919091529392505050565b60006020828403121561238f57600080fd5b813567ffffffffffffffff808211156123a757600080fd5b9083019060a082860312156123bb57600080fd5b6123c3612282565b82356123ce816122ff565b815260208301356123de81612179565b60208201526123ef6040840161218e565b604082015260608301358281111561240657600080fd5b6124128782860161230d565b60608301525060808301358281111561242a57600080fd5b6124368782860161230d565b60808301525095945050505050565b60006020828403121561245757600080fd5b813567ffffffffffffffff8082111561246f57600080fd5b908301906060828603121561248357600080fd5b60405160608101818110838211171561249e5761249e61226c565b60405282356124ac81612179565b81526020830135828111156124c057600080fd5b6124cc8782860161230d565b6020830152506040830135828111156124e457600080fd5b6124f08782860161230d565b60408301525095945050505050565b600060c0828403121561251157600080fd5b6125196122ab565b9050813567ffffffffffffffff8082111561253357600080fd5b61253f8583860161230d565b8352602084013591508082111561255557600080fd5b6125618583860161230d565b6020840152604084013591508082111561257a57600080fd5b506125878482850161230d565b604083015250606082013560608201526080820135608082015260a082013560a082015292915050565b6000602082840312156125c357600080fd5b813567ffffffffffffffff808211156125db57600080fd5b9083019060a082860312156125ef57600080fd5b6125f7612282565b6126008361218e565b815261260e6020840161218e565b602082015260408301358281111561262557600080fd5b612631878286016124ff565b60408301525060608301358281111561240657600080fd5b6000602080838503121561265c57600080fd5b823567ffffffffffffffff8082111561267457600080fd5b818501915085601f83011261268857600080fd5b81358181111561269a5761269a61226c565b8060051b91506126ab8483016122ce565b81815291830184019184810190888411156126c557600080fd5b938501935b838510156126ef57843592506126df83612179565b82825293850193908501906126ca565b98975050505050505050565b600181811c9082168061270f57607f821691505b60208210810361272f57634e487b7160e01b600052602260045260246000fd5b50919050565b60208152816020820152818360408301376000818301604090810191909152601f909201601f19160101919050565b602081528151151560208201526000602083015160018060a01b0380821660408501528060408601511660608501525050606083015160a060808401526127ae60c0840182612095565b90506080840151601f198483030160a08501526127cb8282612095565b95945050505050565b6000602082840312156127e657600080fd5b815161208e816122ff565b60006020828403121561280357600080fd5b815161208e81612179565b602080825282516001600160a01b0316828201528201516060604083015260009061283c6080840182612095565b90506040840151601f198483030160608501526127cb8282612095565b60006001820161287957634e487b7160e01b600052601160045260246000fd5b5060010190565b602080825282516001600160a01b031682820152820151608060408301526000906128ae60a08401826121e6565b90506040840151601f19808584030160608601526128cc8383612095565b92506060860151915080858403016080860152506127cb8282612095565b6040815260006128fd60408301856121e6565b82810360208401526127cb8185612095565b601f821115610ac7576000816000526020600020601f850160051c810160208610156129385750805b601f850160051c820191505b8181101561295757828155600101612944565b505050505050565b815167ffffffffffffffff8111156129795761297961226c565b61298d8161298784546126fb565b8461290f565b602080601f8311600181146129c257600084156129aa5750858301515b600019600386901b1c1916600185901b178555612957565b600085815260208120601f198616915b828110156129f1578886015182559484019460019091019084016129d2565b5085821015612a0f5787850151600019600388901b60f8161c191681555b5050505050600190811b01905550565b634e487b7160e01b600052603260045260246000fd5b60208082526027908201527f576f726c64305f323a207369676e65722063616e6e6f74206265207a65726f206040820152666164647265737360c81b60608201526080019056fee2f4eaae4a9751e85a3e4a7b9587827a877f29914755229b07a7b2da98285f70a26469706673582212200b997b61ff4523221c01e85eed2d65c2b67dd97152197f0480a4d66f9d3ca01564736f6c63430008180033",
  "linkReferences": {},
  "deployedLinkReferences": {}
}