{
  "_format": "hh-sol-artifact-1",
  "contractName": "LibBaseProxy",
  "sourceName": "contracts/libraries/LibBaseProxy.sol",
  "abi": [
    {
      "inputs": [],
      "name": "BaseStorageSlot",
      "outputs": [
        {
          "internalType": "bytes32",
          "name": "",
          "type": "bytes32"
        }
      ],
      "stateMutability": "view",
      "type": "function"
    }
  ],
  "bytecode": "0x60a6610038600b82828239805160001a607314602b57634e487b7160e01b600052600060045260246000fd5b30600052607381538281f3fe730000000000000000000000000000000000000000301460806040526004361060335760003560e01c8063666219e3146038575b600080fd5b605e7f1f07e7b49187e1cf67924ca1fa35732211c5bb2c23b6b53ee47453438de7285e81565b60405190815260200160405180910390f3fea26469706673582212203fd11c42b781ef673493f57943931296c3ff360ad77fe05bd4e609896d2561ed64736f6c63430008180033",
  "linkReferences": {},
  "deployedLinkReferences": {}
}