{
  "_format": "hh-sol-artifact-1",
  "contractName": "LibProxyAccess",
  "sourceName": "contracts/libraries/LibBaseProxy.sol",
  "abi": [
    {
      "inputs": [],
      "name": "ADMIN_ROLE",
      "outputs": [
        {
          "internalType": "bytes32",
          "name": "",
          "type": "bytes32"
        }
      ],
      "stateMutability": "view",
      "type": "function"
    },
    {
      "inputs": [],
      "name": "SIGNER_ROLE",
      "outputs": [
        {
          "internalType": "bytes32",
          "name": "",
          "type": "bytes32"
        }
      ],
      "stateMutability": "view",
      "type": "function"
    }
  ],
  "bytecode": "0x60d6610039600b82828239805160001a60731461002c57634e487b7160e01b600052600060045260246000fd5b30600052607381538281f3fe7300000000000000000000000000000000000000003014608060405260043610603d5760003560e01c806375b238fc146042578063a1ebf35d14607a575b600080fd5b60687fa49807205ce4d355092ef5a8a18f56e8913cf4a201fbe287825b095693c2177581565b60405190815260200160405180910390f35b60687fe2f4eaae4a9751e85a3e4a7b9587827a877f29914755229b07a7b2da98285f708156fea2646970667358221220eabd5c55497fb5506a2b2d407d32f777199a1a059616b1eda31b81680c49115364736f6c63430008180033",
  "linkReferences": {},
  "deployedLinkReferences": {}
}