{
  "_format": "hh-sol-artifact-1",
  "contractName": "AssetRegistry",
  "sourceName": "contracts/asset/AssetRegistry.sol",
  "abi": [
    {
      "inputs": [
        {
          "internalType": "address[]",
          "name": "admins",
          "type": "address[]"
        },
        {
          "internalType": "address",
          "name": "_assetFactory",
          "type": "address"
        }
      ],
      "stateMutability": "nonpayable",
      "type": "constructor"
    },
    {
      "inputs": [],
      "name": "AccessControlBadConfirmation",
      "type": "error"
    },
    {
      "inputs": [
        {
          "internalType": "address",
          "name": "account",
          "type": "address"
        },
        {
          "internalType": "bytes32",
          "name": "neededRole",
          "type": "bytes32"
        }
      ],
      "name": "AccessControlUnauthorizedAccount",
      "type": "error"
    },
    {
      "anonymous": false,
      "inputs": [
        {
          "indexed": true,
          "internalType": "address",
          "name": "asset",
          "type": "address"
        },
        {
          "indexed": true,
          "internalType": "address",
          "name": "condition",
          "type": "address"
        }
      ],
      "name": "AssetConditionAdded",
      "type": "event"
    },
    {
      "anonymous": false,
      "inputs": [
        {
          "indexed": true,
          "internalType": "address",
          "name": "asset",
          "type": "address"
        }
      ],
      "name": "AssetConditionRemoved",
      "type": "event"
    },
    {
      "anonymous": false,
      "inputs": [
        {
          "indexed": true,
          "internalType": "address",
          "name": "asset",
          "type": "address"
        },
        {
          "indexed": false,
          "internalType": "uint256",
          "name": "assetType",
          "type": "uint256"
        }
      ],
      "name": "AssetCreated",
      "type": "event"
    },
    {
      "anonymous": false,
      "inputs": [
        {
          "indexed": true,
          "internalType": "bytes32",
          "name": "role",
          "type": "bytes32"
        },
        {
          "indexed": true,
          "internalType": "bytes32",
          "name": "previousAdminRole",
          "type": "bytes32"
        },
        {
          "indexed": true,
          "internalType": "bytes32",
          "name": "newAdminRole",
          "type": "bytes32"
        }
      ],
      "name": "RoleAdminChanged",
      "type": "event"
    },
    {
      "anonymous": false,
      "inputs": [
        {
          "indexed": true,
          "internalType": "bytes32",
          "name": "role",
          "type": "bytes32"
        },
        {
          "indexed": true,
          "internalType": "address",
          "name": "account",
          "type": "address"
        },
        {
          "indexed": true,
          "internalType": "address",
          "name": "sender",
          "type": "address"
        }
      ],
      "name": "RoleGranted",
      "type": "event"
    },
    {
      "anonymous": false,
      "inputs": [
        {
          "indexed": true,
          "internalType": "bytes32",
          "name": "role",
          "type": "bytes32"
        },
        {
          "indexed": true,
          "internalType": "address",
          "name": "account",
          "type": "address"
        },
        {
          "indexed": true,
          "internalType": "address",
          "name": "sender",
          "type": "address"
        }
      ],
      "name": "RoleRevoked",
      "type": "event"
    },
    {
      "inputs": [],
      "name": "DEFAULT_ADMIN_ROLE",
      "outputs": [
        {
          "internalType": "bytes32",
          "name": "",
          "type": "bytes32"
        }
      ],
      "stateMutability": "view",
      "type": "function"
    },
    {
      "inputs": [
        {
          "internalType": "address",
          "name": "asset",
          "type": "address"
        },
        {
          "internalType": "address",
          "name": "condition",
          "type": "address"
        }
      ],
      "name": "addAssetCondition",
      "outputs": [],
      "stateMutability": "nonpayable",
      "type": "function"
    },
    {
      "inputs": [
        {
          "internalType": "address",
          "name": "original",
          "type": "address"
        },
        {
          "internalType": "uint256",
          "name": "chainId",
          "type": "uint256"
        }
      ],
      "name": "assetExists",
      "outputs": [
        {
          "internalType": "bool",
          "name": "",
          "type": "bool"
        }
      ],
      "stateMutability": "view",
      "type": "function"
    },
    {
      "inputs": [],
      "name": "assetFactory",
      "outputs": [
        {
          "internalType": "contract IAssetFactory",
          "name": "",
          "type": "address"
        }
      ],
      "stateMutability": "view",
      "type": "function"
    },
    {
      "inputs": [
        {
          "internalType": "bytes32",
          "name": "",
          "type": "bytes32"
        }
      ],
      "name": "assetsByOriginalAddressAndChain",
      "outputs": [
        {
          "internalType": "address",
          "name": "",
          "type": "address"
        }
      ],
      "stateMutability": "view",
      "type": "function"
    },
    {
      "inputs": [
        {
          "internalType": "address",
          "name": "asset",
          "type": "address"
        },
        {
          "internalType": "address",
          "name": "world",
          "type": "address"
        },
        {
          "internalType": "address",
          "name": "company",
          "type": "address"
        },
        {
          "internalType": "address",
          "name": "experience",
          "type": "address"
        }
      ],
      "name": "canUseAsset",
      "outputs": [
        {
          "internalType": "bool",
          "name": "",
          "type": "bool"
        }
      ],
      "stateMutability": "view",
      "type": "function"
    },
    {
      "inputs": [
        {
          "internalType": "address",
          "name": "asset",
          "type": "address"
        },
        {
          "internalType": "address",
          "name": "world",
          "type": "address"
        },
        {
          "internalType": "address",
          "name": "company",
          "type": "address"
        },
        {
          "internalType": "address",
          "name": "experience",
          "type": "address"
        }
      ],
      "name": "canViewAsset",
      "outputs": [
        {
          "internalType": "bool",
          "name": "",
          "type": "bool"
        }
      ],
      "stateMutability": "view",
      "type": "function"
    },
    {
      "inputs": [
        {
          "internalType": "address",
          "name": "asset",
          "type": "address"
        }
      ],
      "name": "getAssetCondition",
      "outputs": [
        {
          "internalType": "contract IAssetCondition",
          "name": "",
          "type": "address"
        }
      ],
      "stateMutability": "view",
      "type": "function"
    },
    {
      "inputs": [
        {
          "internalType": "bytes32",
          "name": "role",
          "type": "bytes32"
        }
      ],
      "name": "getRoleAdmin",
      "outputs": [
        {
          "internalType": "bytes32",
          "name": "",
          "type": "bytes32"
        }
      ],
      "stateMutability": "view",
      "type": "function"
    },
    {
      "inputs": [
        {
          "internalType": "bytes32",
          "name": "role",
          "type": "bytes32"
        },
        {
          "internalType": "address",
          "name": "account",
          "type": "address"
        }
      ],
      "name": "grantRole",
      "outputs": [],
      "stateMutability": "nonpayable",
      "type": "function"
    },
    {
      "inputs": [
        {
          "internalType": "bytes32",
          "name": "role",
          "type": "bytes32"
        },
        {
          "internalType": "address",
          "name": "account",
          "type": "address"
        }
      ],
      "name": "hasRole",
      "outputs": [
        {
          "internalType": "bool",
          "name": "",
          "type": "bool"
        }
      ],
      "stateMutability": "view",
      "type": "function"
    },
    {
      "inputs": [
        {
          "internalType": "address",
          "name": "asset",
          "type": "address"
        }
      ],
      "name": "isRegisteredAsset",
      "outputs": [
        {
          "internalType": "bool",
          "name": "",
          "type": "bool"
        }
      ],
      "stateMutability": "view",
      "type": "function"
    },
    {
      "inputs": [
        {
          "internalType": "uint256",
          "name": "assetType",
          "type": "uint256"
        },
        {
          "internalType": "bytes",
          "name": "initData",
          "type": "bytes"
        }
      ],
      "name": "registerAsset",
      "outputs": [
        {
          "internalType": "address",
          "name": "asset",
          "type": "address"
        }
      ],
      "stateMutability": "nonpayable",
      "type": "function"
    },
    {
      "inputs": [
        {
          "internalType": "address",
          "name": "",
          "type": "address"
        }
      ],
      "name": "registeredAssets",
      "outputs": [
        {
          "internalType": "address",
          "name": "issuer",
          "type": "address"
        },
        {
          "internalType": "contract IAssetCondition",
          "name": "condition",
          "type": "address"
        }
      ],
      "stateMutability": "view",
      "type": "function"
    },
    {
      "inputs": [
        {
          "internalType": "address",
          "name": "asset",
          "type": "address"
        }
      ],
      "name": "removeAssetCondition",
      "outputs": [],
      "stateMutability": "nonpayable",
      "type": "function"
    },
    {
      "inputs": [
        {
          "internalType": "bytes32",
          "name": "role",
          "type": "bytes32"
        },
        {
          "internalType": "address",
          "name": "callerConfirmation",
          "type": "address"
        }
      ],
      "name": "renounceRole",
      "outputs": [],
      "stateMutability": "nonpayable",
      "type": "function"
    },
    {
      "inputs": [
        {
          "internalType": "bytes32",
          "name": "role",
          "type": "bytes32"
        },
        {
          "internalType": "address",
          "name": "account",
          "type": "address"
        }
      ],
      "name": "revokeRole",
      "outputs": [],
      "stateMutability": "nonpayable",
      "type": "function"
    },
    {
      "inputs": [
        {
          "internalType": "address",
          "name": "_assetFactory",
          "type": "address"
        }
      ],
      "name": "setAssetFactory",
      "outputs": [],
      "stateMutability": "nonpayable",
      "type": "function"
    },
    {
      "inputs": [
        {
          "internalType": "bytes4",
          "name": "interfaceId",
          "type": "bytes4"
        }
      ],
      "name": "supportsInterface",
      "outputs": [
        {
          "internalType": "bool",
          "name": "",
          "type": "bool"
        }
      ],
      "stateMutability": "view",
      "type": "function"
    },
    {
      "inputs": [
        {
          "internalType": "address",
          "name": "asset",
          "type": "address"
        },
        {
          "internalType": "uint256",
          "name": "assetType",
          "type": "uint256"
        },
        {
          "internalType": "bytes",
          "name": "initData",
          "type": "bytes"
        }
      ],
      "name": "upgradeAsset",
      "outputs": [],
      "stateMutability": "nonpayable",
      "type": "function"
    }
  ],
  "bytecode": "0x60806040523480156200001157600080fd5b50604051620018ee380380620018ee833981016040819052620000349162000298565b6001600160a01b038116620000b65760405162461bcd60e51b815260206004820152603360248201527f417373657452656769737472793a20617373657420666163746f72792063616e60448201527f6e6f74206265207a65726f20616464726573730000000000000000000000000060648201526084015b60405180910390fd5b600180546001600160a01b0319166001600160a01b03831617905560005b8251811015620001ad5760006001600160a01b0316838281518110620000fe57620000fe6200037e565b60200260200101516001600160a01b031603620001725760405162461bcd60e51b815260206004820152602b60248201527f417373657452656769737472793a2061646d696e2063616e6e6f74206265207a60448201526a65726f206164647265737360a81b6064820152608401620000ad565b620001a36000801b8483815181106200018f576200018f6200037e565b6020026020010151620001b660201b60201c565b50600101620000d4565b50505062000394565b6000828152602081815260408083206001600160a01b038516845290915281205460ff166200025b576000838152602081815260408083206001600160a01b03861684529091529020805460ff19166001179055620002123390565b6001600160a01b0316826001600160a01b0316847f2f8788117e7eff1d82e926ec794901d17c78024a50270940304540a733656f0d60405160405180910390a45060016200025f565b5060005b92915050565b634e487b7160e01b600052604160045260246000fd5b80516001600160a01b03811681146200029357600080fd5b919050565b60008060408385031215620002ac57600080fd5b82516001600160401b0380821115620002c457600080fd5b818501915085601f830112620002d957600080fd5b8151602082821115620002f057620002f062000265565b8160051b604051601f19603f8301168101818110868211171562000318576200031862000265565b6040529283528183019350848101820192898411156200033757600080fd5b948201945b83861015620003605762000350866200027b565b855294820194938201936200033c565b96506200037190508782016200027b565b9450505050509250929050565b634e487b7160e01b600052603260045260246000fd5b61154a80620003a46000396000f3fe608060405234801561001057600080fd5b506004361061012c5760003560e01c80637c9b4abd116100ad578063c3acb4d111610071578063c3acb4d11461030a578063c8f4fe0f1461031d578063d547741f14610330578063eea99a4214610343578063f87115361461036c57600080fd5b80637c9b4abd1461029b57806391d14854146102ae578063a217fddf146102c1578063a71e33c8146102c9578063adec5618146102dc57600080fd5b80632f2ff15d116100f45780632f2ff15d146101c557806336568abe146101d85780633fe7fd92146101eb5780636330347a146102415780636404246b1461025457600080fd5b806301ffc9a714610131578063087e3ff31461015957806318f22e1a1461016e578063248a9ca31461018157806329f2691d146101b2575b600080fd5b61014461013f3660046111a3565b6103c0565b60405190151581526020015b60405180910390f35b61016c610167366004611232565b6103f7565b005b61014461017c36600461128e565b61092d565b6101a461018f3660046112ea565b60009081526020819052604090206001015490565b604051908152602001610150565b61016c6101c0366004611303565b6109f7565b61016c6101d3366004611320565b610ab9565b61016c6101e6366004611320565b610ae4565b6101446101f9366004611350565b604080516001600160a01b0393841660208083019190915281830193909352815180820383018152606090910182528051908301206000908152600390925290205416151590565b61016c61024f36600461137c565b610b1c565b610283610262366004611303565b6001600160a01b039081166000908152600260205260409020600101541690565b6040516001600160a01b039091168152602001610150565b6101446102a936600461128e565b610be6565b6101446102bc366004611320565b610c6a565b6101a4600081565b6102836102d73660046113aa565b610c93565b6101446102ea366004611303565b6001600160a01b0390811660009081526002602052604090205416151590565b600154610283906001600160a01b031681565b61016c61032b366004611303565b610f97565b61016c61033e366004611320565b611037565b6102836103513660046112ea565b6003602052600090815260409020546001600160a01b031681565b6103a061037a366004611303565b600260205260009081526040902080546001909101546001600160a01b03918216911682565b604080516001600160a01b03938416815292909116602083015201610150565b60006001600160e01b03198216637965db0b60e01b14806103f157506301ffc9a760e01b6001600160e01b03198316145b92915050565b6001600160a01b03848116600090815260026020526040902054166104375760405162461bcd60e51b815260040161042e906113f6565b60405180910390fd5b6001600160a01b038481166000908152600260205260409020541633146104705760405162461bcd60e51b815260040161042e90611439565b6001600160a01b0384166000818152600260209081526040808320815163e517fedd60e01b815291519094899493909263e517fedd92600480830193928290030181865afa1580156104c6573d6000803e3d6000fd5b505050506040513d601f19601f820116820180604052508101906104ea9190611486565b826001600160a01b0316630ac7f5616040518163ffffffff1660e01b8152600401602060405180830381865afa158015610528573d6000803e3d6000fd5b505050506040513d601f19601f8201168201806040525081019061054c91906114a3565b604080516001600160a01b03909316602084015282015260600160408051808303601f1901815282825280516020918201206000818152600390925291812080546001600160a01b03191690556001546319efc5b360e21b8452919350916001600160a01b03909116906367bf16cc906105ce908a908a908a906004016114bc565b6020604051808303816000875af11580156105ed573d6000803e3d6000fd5b505050506040513d601f19601f820116820180604052508101906106119190611486565b9050876001600160a01b0316816001600160a01b03160361069a5760405162461bcd60e51b815260206004820152603b60248201527f417373657452656769737472793a204e6577206173736574206164647265737360448201527f20636f6e666c696374732077697468206f6c6420616464726573730000000000606482015260840161042e565b60408051808201825285546001600160a01b039081168252600180880154821660208085019182528684166000818152600290925290869020945185549085166001600160a01b031991821617865591519490920180549484169490911693909317909255915162900f0160e41b815260048101919091528291851690630900f01090602401600060405180830381600087803b15801561073a57600080fd5b505af115801561074e573d6000803e3d6000fd5b505050506000816001600160a01b031663e517fedd6040518163ffffffff1660e01b8152600401602060405180830381865afa158015610792573d6000803e3d6000fd5b505050506040513d601f19601f820116820180604052508101906107b69190611486565b826001600160a01b0316630ac7f5616040518163ffffffff1660e01b8152600401602060405180830381865afa1580156107f4573d6000803e3d6000fd5b505050506040513d601f19601f8201168201806040525081019061081891906114a3565b604080516001600160a01b039093166020840152820152606001604051602081830303815290604052805190602001209050826003600083815260200190815260200160002060006101000a8154816001600160a01b0302191690836001600160a01b03160217905550600260008b6001600160a01b03166001600160a01b03168152602001908152602001600020600080820160006101000a8154906001600160a01b0302191690556001820160006101000a8154906001600160a01b0302191690555050826001600160a01b03167f20df459a0f7f1bc64a42346a9e6536111a3512be01de7a0f5327a4e13b3370388a60405161091991815260200190565b60405180910390a250505050505050505050565b6001600160a01b0384811660009081526002602052604081206001015490911615806109ee57506001600160a01b03858116600081815260026020526040908190206001015490516342a3defb60e11b8152600481019290925286831660248301528583166044830152848316606483015290911690638547bdf6906084015b602060405180830381865afa1580156109ca573d6000803e3d6000fd5b505050506040513d601f19601f820116820180604052508101906109ee91906114f2565b95945050505050565b6001600160a01b0381811660009081526002602052604090205416610a2e5760405162461bcd60e51b815260040161042e906113f6565b6001600160a01b03818116600090815260026020526040902054163314610a675760405162461bcd60e51b815260040161042e90611439565b6001600160a01b03811660008181526002602052604080822060010180546001600160a01b0319169055517f2df08b6a3a4aed918c51e7ac3bbbe4f82bb09d26fef89a0c23ddc38c1a3c385b9190a250565b600082815260208190526040902060010154610ad48161105c565b610ade8383611069565b50505050565b6001600160a01b0381163314610b0d5760405163334bd91960e11b815260040160405180910390fd5b610b1782826110fb565b505050565b6001600160a01b0382811660009081526002602052604090205416610b535760405162461bcd60e51b815260040161042e906113f6565b6001600160a01b03828116600090815260026020526040902054163314610b8c5760405162461bcd60e51b815260040161042e90611439565b6001600160a01b0382811660008181526002602052604080822060010180546001600160a01b0319169486169485179055517f346add9ce96faba84ec87eed014c98788ff9c07019ca39689e78678bf6ae15349190a35050565b6001600160a01b0384811660009081526002602052604081206001015490911615806109ee57506001600160a01b0385811660008181526002602052604090819020600101549051630336ff4760e01b8152600481019290925286831660248301528583166044830152848316606483015290911690630336ff47906084016109ad565b6000918252602082815260408084206001600160a01b0393909316845291905290205460ff1690565b600080610c9f8161105c565b6001546001600160a01b0316610d035760405162461bcd60e51b8152602060048201526024808201527f417373657452656769737472793a20617373657420666163746f7279206e6f74604482015263081cd95d60e21b606482015260840161042e565b6001546040516319efc5b360e21b81526001600160a01b03909116906367bf16cc90610d37908890889088906004016114bc565b6020604051808303816000875af1158015610d56573d6000803e3d6000fd5b505050506040513d601f19601f82011682018060405250810190610d7a9190611486565b915060008290506040518060400160405280826001600160a01b0316631d1438486040518163ffffffff1660e01b8152600401602060405180830381865afa158015610dca573d6000803e3d6000fd5b505050506040513d601f19601f82011682018060405250810190610dee9190611486565b6001600160a01b039081168252600060209283018190528682168152600283526040808220855181549085166001600160a01b031991821617825595850151600190910180549185169190961617909455835163e517fedd60e01b8152935190939185169263e517fedd92600480820193918290030181865afa158015610e79573d6000803e3d6000fd5b505050506040513d601f19601f82011682018060405250810190610e9d9190611486565b826001600160a01b0316630ac7f5616040518163ffffffff1660e01b8152600401602060405180830381865afa158015610edb573d6000803e3d6000fd5b505050506040513d601f19601f82011682018060405250810190610eff91906114a3565b604080516001600160a01b03909316602084015282015260600160408051808303601f1901815282825280516020918201206000818152600383529290922080546001600160a01b0319166001600160a01b0389169081179091558a845291935090917f20df459a0f7f1bc64a42346a9e6536111a3512be01de7a0f5327a4e13b337038910160405180910390a25050509392505050565b6000610fa28161105c565b6001600160a01b0382166110145760405162461bcd60e51b815260206004820152603360248201527f417373657452656769737472793a20617373657420666163746f72792063616e6044820152726e6f74206265207a65726f206164647265737360681b606482015260840161042e565b50600180546001600160a01b0319166001600160a01b0392909216919091179055565b6000828152602081905260409020600101546110528161105c565b610ade83836110fb565b6110668133611166565b50565b60006110758383610c6a565b6110f3576000838152602081815260408083206001600160a01b03861684529091529020805460ff191660011790556110ab3390565b6001600160a01b0316826001600160a01b0316847f2f8788117e7eff1d82e926ec794901d17c78024a50270940304540a733656f0d60405160405180910390a45060016103f1565b5060006103f1565b60006111078383610c6a565b156110f3576000838152602081815260408083206001600160a01b0386168085529252808320805460ff1916905551339286917ff6391f5c32d9c69d2a47ea670b442974b53935d1edc7fd64eb21e047a839171b9190a45060016103f1565b6111708282610c6a565b61119f5760405163e2517d3f60e01b81526001600160a01b03821660048201526024810183905260440161042e565b5050565b6000602082840312156111b557600080fd5b81356001600160e01b0319811681146111cd57600080fd5b9392505050565b6001600160a01b038116811461106657600080fd5b60008083601f8401126111fb57600080fd5b50813567ffffffffffffffff81111561121357600080fd5b60208301915083602082850101111561122b57600080fd5b9250929050565b6000806000806060858703121561124857600080fd5b8435611253816111d4565b935060208501359250604085013567ffffffffffffffff81111561127657600080fd5b611282878288016111e9565b95989497509550505050565b600080600080608085870312156112a457600080fd5b84356112af816111d4565b935060208501356112bf816111d4565b925060408501356112cf816111d4565b915060608501356112df816111d4565b939692955090935050565b6000602082840312156112fc57600080fd5b5035919050565b60006020828403121561131557600080fd5b81356111cd816111d4565b6000806040838503121561133357600080fd5b823591506020830135611345816111d4565b809150509250929050565b6000806040838503121561136357600080fd5b823561136e816111d4565b946020939093013593505050565b6000806040838503121561138f57600080fd5b823561139a816111d4565b91506020830135611345816111d4565b6000806000604084860312156113bf57600080fd5b83359250602084013567ffffffffffffffff8111156113dd57600080fd5b6113e9868287016111e9565b9497909650939450505050565b60208082526023908201527f417373657452656769737472793a206173736574206e6f7420726567697374656040820152621c995960ea1b606082015260800190565b6020808252602d908201527f417373657452656769737472793a2063616c6c6572206973206e6f742074686560408201526c1030b9b9b2ba1034b9b9bab2b960991b606082015260800190565b60006020828403121561149857600080fd5b81516111cd816111d4565b6000602082840312156114b557600080fd5b5051919050565b83815260406020820152816040820152818360608301376000818301606090810191909152601f909201601f1916010192915050565b60006020828403121561150457600080fd5b815180151581146111cd57600080fdfea264697066735822122054277b71b0d872541688a455597b67148ae64b4d063e4ef68c3cb702d82591c464736f6c63430008180033",
  "linkReferences": {},
  "deployedLinkReferences": {}
}