{
  "_format": "hh-sol-artifact-1",
  "contractName": "NTERC20Proxy",
  "sourceName": "contracts/asset/NTERC20Proxy.sol",
  "abi": [
    {
      "inputs": [
        {
          "components": [
            {
              "internalType": "address",
              "name": "factory",
              "type": "address"
            },
            {
              "internalType": "address",
              "name": "registry",
              "type": "address"
            }
          ],
          "internalType": "struct BaseProxyConstructorArgs",
          "name": "args",
          "type": "tuple"
        }
      ],
      "stateMutability": "nonpayable",
      "type": "constructor"
    },
    {
      "anonymous": false,
      "inputs": [
        {
          "indexed": true,
          "internalType": "address",
          "name": "implementation",
          "type": "address"
        }
      ],
      "name": "ImplementationChanged",
      "type": "event"
    },
    {
      "anonymous": false,
      "inputs": [
        {
          "indexed": true,
          "internalType": "address",
          "name": "sender",
          "type": "address"
        },
        {
          "indexed": false,
          "internalType": "uint256",
          "name": "value",
          "type": "uint256"
        }
      ],
      "name": "ReceivedFunds",
      "type": "event"
    },
    {
      "anonymous": false,
      "inputs": [
        {
          "indexed": true,
          "internalType": "address",
          "name": "signer",
          "type": "address"
        }
      ],
      "name": "SignerAdded",
      "type": "event"
    },
    {
      "anonymous": false,
      "inputs": [
        {
          "indexed": true,
          "internalType": "address",
          "name": "signer",
          "type": "address"
        }
      ],
      "name": "SignerRemoved",
      "type": "event"
    },
    {
      "stateMutability": "payable",
      "type": "fallback"
    },
    {
      "inputs": [
        {
          "internalType": "address[]",
          "name": "signers",
          "type": "address[]"
        }
      ],
      "name": "addSigners",
      "outputs": [],
      "stateMutability": "nonpayable",
      "type": "function"
    },
    {
      "inputs": [],
      "name": "factory",
      "outputs": [
        {
          "internalType": "address",
          "name": "",
          "type": "address"
        }
      ],
      "stateMutability": "view",
      "type": "function"
    },
    {
      "inputs": [],
      "name": "getImplementation",
      "outputs": [
        {
          "internalType": "address",
          "name": "",
          "type": "address"
        }
      ],
      "stateMutability": "view",
      "type": "function"
    },
    {
      "inputs": [
        {
          "internalType": "address",
          "name": "_implementation",
          "type": "address"
        }
      ],
      "name": "initProxy",
      "outputs": [],
      "stateMutability": "nonpayable",
      "type": "function"
    },
    {
      "inputs": [
        {
          "internalType": "address",
          "name": "signer",
          "type": "address"
        }
      ],
      "name": "isSigner",
      "outputs": [
        {
          "internalType": "bool",
          "name": "",
          "type": "bool"
        }
      ],
      "stateMutability": "view",
      "type": "function"
    },
    {
      "inputs": [],
      "name": "registry",
      "outputs": [
        {
          "internalType": "address",
          "name": "",
          "type": "address"
        }
      ],
      "stateMutability": "view",
      "type": "function"
    },
    {
      "inputs": [
        {
          "internalType": "address[]",
          "name": "signers",
          "type": "address[]"
        }
      ],
      "name": "removeSigners",
      "outputs": [],
      "stateMutability": "nonpayable",
      "type": "function"
    },
    {
      "inputs": [
        {
          "internalType": "address",
          "name": "impl",
          "type": "address"
        }
      ],
      "name": "setImplementation",
      "outputs": [],
      "stateMutability": "nonpayable",
      "type": "function"
    },
    {
      "stateMutability": "payable",
      "type": "receive"
    }
  ],
  "bytecode": "0x60c060405234801561001057600080fd5b50604051610bc5380380610bc583398101604081905261002f9161013a565b805181906001600160a01b03166100985760405162461bcd60e51b815260206004820152602260248201527f4261736550726f78793a20666163746f7279206973207a65726f206164647265604482015261737360f01b60648201526084015b60405180910390fd5b60208101516001600160a01b03166100fe5760405162461bcd60e51b815260206004820152602360248201527f4261736550726f78793a207265676973747279206973207a65726f206164647260448201526265737360e81b606482015260840161008f565b80516001600160a01b039081166080526020909101511660a052506101a2565b80516001600160a01b038116811461013557600080fd5b919050565b60006040828403121561014c57600080fd5b604080519081016001600160401b038111828210171561017c57634e487b7160e01b600052604160045260246000fd5b6040526101888361011e565b81526101966020840161011e565b60208201529392505050565b60805160a0516109f06101d56000396000818161016901526104d2015260008181610255015261036a01526109f06000f3fe60806040526004361061007f5760003560e01c8063aaf10f421161004e578063aaf10f4214610218578063c45a015514610243578063d784d42614610277578063e8906a2d14610297576100bc565b80637b103999146101575780637df73e27146101a85780638d361e43146101d85780639c020061146101f8576100bc565b366100bc5760405134815233907f5741979df5f3e491501da74d3b0a83dd2496ab1f34929865b3e190a8ad75859a9060200160405180910390a25b005b60008051602061099b83398151915280546001600160a01b0316806101335760405162461bcd60e51b815260206004820152602260248201527f576f726c6450726f78793a20696d706c656d656e746174696f6e206e6f742073604482015261195d60f21b60648201526084015b60405180910390fd5b3660008037600080366000845af43d6000803e808015610152573d6000f35b3d6000fd5b34801561016357600080fd5b5061018b7f000000000000000000000000000000000000000000000000000000000000000081565b6040516001600160a01b0390911681526020015b60405180910390f35b3480156101b457600080fd5b506101c86101c336600461089b565b6102b7565b604051901515815260200161019f565b3480156101e457600080fd5b506100ba6101f33660046108c4565b6102fa565b34801561020457600080fd5b506100ba61021336600461089b565b61035f565b34801561022457600080fd5b5060008051602061099b833981519152546001600160a01b031661018b565b34801561024f57600080fd5b5061018b7f000000000000000000000000000000000000000000000000000000000000000081565b34801561028357600080fd5b506100ba61029236600461089b565b6104c7565b3480156102a357600080fd5b506100ba6102b23660046108c4565b6105a0565b600060008051602061099b8339815191526102f3817fe2f4eaae4a9751e85a3e4a7b9587827a877f29914755229b07a7b2da98285f7085610600565b9392505050565b60008051602061099b833981519152610334817fa49807205ce4d355092ef5a8a18f56e8913cf4a201fbe287825b095693c2177533610600565b6103505760405162461bcd60e51b815260040161012a90610939565b61035a838361062d565b505050565b336001600160a01b037f000000000000000000000000000000000000000000000000000000000000000016146103d75760405162461bcd60e51b815260206004820181905260248201527f4261736550726f78793a2063616c6c6572206973206e6f7420666163746f7279604482015260640161012a565b6001600160a01b0381166104405760405162461bcd60e51b815260206004820152602a60248201527f576f726c6450726f78793a20696d706c656d656e746174696f6e206973207a65604482015269726f206164647265737360b01b606482015260840161012a565b60008051602061099b83398151915280546001600160a01b0316156104a75760405162461bcd60e51b815260206004820152601f60248201527f576f726c6450726f78793a20616c726561647920696e697469616c697a656400604482015260640161012a565b80546001600160a01b0319166001600160a01b0392909216919091179055565b336001600160a01b037f000000000000000000000000000000000000000000000000000000000000000016146105495760405162461bcd60e51b815260206004820152602160248201527f4261736550726f78793a2063616c6c6572206973206e6f7420726567697374726044820152607960f81b606482015260840161012a565b60008051602061099b83398151915280546001600160a01b0319166001600160a01b03831690811782556040517f2989b377844ae55f0ca303ad21490d8519f8cf871ad6b5ba3dbec736bb54c63f90600090a25050565b60008051602061099b8339815191526105da817fa49807205ce4d355092ef5a8a18f56e8913cf4a201fbe287825b095693c2177533610600565b6105f65760405162461bcd60e51b815260040161012a90610939565b61035a8383610706565b6000918252600192909201602090815260408083206001600160a01b039094168352929052205460ff1690565b60008051602061099b83398151915260005b828110156107005761069c7fe2f4eaae4a9751e85a3e4a7b9587827a877f29914755229b07a7b2da98285f7085858481811061067d5761067d610984565b9050602002016020810190610692919061089b565b8491906000610862565b8383828181106106ae576106ae610984565b90506020020160208101906106c3919061089b565b6001600160a01b03167f3525e22824a8a7df2c9a6029941c824cf95b6447f1e13d5128fd3826d35afe8b60405160405180910390a260010161063f565b50505050565b60008051602061099b83398151915260005b8281101561070057600084848381811061073457610734610984565b9050602002016020810190610749919061089b565b6001600160a01b0316036107a95760405162461bcd60e51b815260206004820152602160248201527f4261736550726f78793a207369676e6572206973207a65726f206164647265736044820152607360f81b606482015260840161012a565b6107fe7fe2f4eaae4a9751e85a3e4a7b9587827a877f29914755229b07a7b2da98285f708585848181106107df576107df610984565b90506020020160208101906107f4919061089b565b8491906001610862565b83838281811061081057610810610984565b9050602002016020810190610825919061089b565b6001600160a01b03167f47d1c22a25bb3a5d4e481b9b1e6944c2eade3181a0a20b495ed61d35b5323f2460405160405180910390a2600101610718565b60009283526001909301602090815260408084206001600160a01b0390931684529190529020805491151560ff19909216919091179055565b6000602082840312156108ad57600080fd5b81356001600160a01b03811681146102f357600080fd5b600080602083850312156108d757600080fd5b823567ffffffffffffffff808211156108ef57600080fd5b818501915085601f83011261090357600080fd5b81358181111561091257600080fd5b8660208260051b850101111561092757600080fd5b60209290920196919550909350505050565b6020808252602b908201527f426173654163636573733a2063616c6c657220646f6573206e6f74206861766560408201526a2061646d696e20726f6c6560a81b606082015260800190565b634e487b7160e01b600052603260045260246000fdfe1f07e7b49187e1cf67924ca1fa35732211c5bb2c23b6b53ee47453438de7285ea2646970667358221220af539d8b588f717d28ec8917343390dc7a04e669dd29ed2deb8557eae1f44ebe64736f6c63430008180033",
  "linkReferences": {},
  "deployedLinkReferences": {}
}