{
  "_format": "hh-sol-artifact-1",
  "contractName": "AssetRegistrationExt",
  "sourceName": "contracts/extensions/registry/asset/AssetRegistrationExt.sol",
  "abi": [
    {
      "inputs": [
        {
          "internalType": "uint256",
          "name": "value",
          "type": "uint256"
        },
        {
          "internalType": "uint256",
          "name": "length",
          "type": "uint256"
        }
      ],
      "name": "StringsInsufficientHexLength",
      "type": "error"
    },
    {
      "anonymous": false,
      "inputs": [
        {
          "indexed": true,
          "internalType": "address",
          "name": "entity",
          "type": "address"
        },
        {
          "indexed": true,
          "internalType": "address",
          "name": "owner",
          "type": "address"
        }
      ],
      "name": "RegistryAddedEntity",
      "type": "event"
    },
    {
      "anonymous": false,
      "inputs": [
        {
          "indexed": true,
          "internalType": "address",
          "name": "old",
          "type": "address"
        },
        {
          "indexed": false,
          "internalType": "address",
          "name": "newVersion",
          "type": "address"
        }
      ],
      "name": "RegistryUpgradedEntity",
      "type": "event"
    },
    {
      "inputs": [
        {
          "components": [
            {
              "internalType": "address",
              "name": "entity",
              "type": "address"
            },
            {
              "internalType": "bytes",
              "name": "entitySignature",
              "type": "bytes"
            },
            {
              "internalType": "uint256",
              "name": "expiration",
              "type": "uint256"
            },
            {
              "components": [
                {
                  "internalType": "uint16",
                  "name": "coveragePeriodDays",
                  "type": "uint16"
                },
                {
                  "internalType": "uint16",
                  "name": "gracePeriodDays",
                  "type": "uint16"
                },
                {
                  "internalType": "uint256",
                  "name": "fee",
                  "type": "uint256"
                }
              ],
              "internalType": "struct RegistrationTerms",
              "name": "terms",
              "type": "tuple"
            }
          ],
          "internalType": "struct ChangeEntityTermsArgs",
          "name": "args",
          "type": "tuple"
        }
      ],
      "name": "changeEntityTerms",
      "outputs": [],
      "stateMutability": "nonpayable",
      "type": "function"
    },
    {
      "inputs": [
        {
          "components": [
            {
              "internalType": "address",
              "name": "owner",
              "type": "address"
            },
            {
              "internalType": "string",
              "name": "name",
              "type": "string"
            },
            {
              "internalType": "bytes",
              "name": "initData",
              "type": "bytes"
            }
          ],
          "internalType": "struct CreateAssetArgs",
          "name": "args",
          "type": "tuple"
        }
      ],
      "name": "createAsset",
      "outputs": [
        {
          "internalType": "address",
          "name": "",
          "type": "address"
        }
      ],
      "stateMutability": "payable",
      "type": "function"
    },
    {
      "inputs": [
        {
          "internalType": "string",
          "name": "name",
          "type": "string"
        }
      ],
      "name": "getEntityByName",
      "outputs": [
        {
          "internalType": "address",
          "name": "",
          "type": "address"
        }
      ],
      "stateMutability": "view",
      "type": "function"
    },
    {
      "inputs": [
        {
          "components": [
            {
              "internalType": "string",
              "name": "x",
              "type": "string"
            },
            {
              "internalType": "string",
              "name": "y",
              "type": "string"
            },
            {
              "internalType": "string",
              "name": "z",
              "type": "string"
            },
            {
              "internalType": "uint256",
              "name": "t",
              "type": "uint256"
            },
            {
              "internalType": "uint256",
              "name": "p",
              "type": "uint256"
            },
            {
              "internalType": "uint256",
              "name": "p_sub",
              "type": "uint256"
            }
          ],
          "internalType": "struct VectorAddress",
          "name": "vector",
          "type": "tuple"
        }
      ],
      "name": "getEntityByVector",
      "outputs": [
        {
          "internalType": "address",
          "name": "",
          "type": "address"
        }
      ],
      "stateMutability": "view",
      "type": "function"
    },
    {
      "inputs": [
        {
          "components": [
            {
              "internalType": "address",
              "name": "owner",
              "type": "address"
            },
            {
              "internalType": "address",
              "name": "owningRegistry",
              "type": "address"
            },
            {
              "internalType": "address[]",
              "name": "admins",
              "type": "address[]"
            }
          ],
          "internalType": "struct ExtensionInitArgs",
          "name": "args",
          "type": "tuple"
        }
      ],
      "name": "initStorage",
      "outputs": [],
      "stateMutability": "nonpayable",
      "type": "function"
    },
    {
      "inputs": [
        {
          "internalType": "address",
          "name": "myAddress",
          "type": "address"
        }
      ],
      "name": "install",
      "outputs": [],
      "stateMutability": "nonpayable",
      "type": "function"
    },
    {
      "inputs": [
        {
          "internalType": "address",
          "name": "addr",
          "type": "address"
        }
      ],
      "name": "isRegistered",
      "outputs": [
        {
          "internalType": "bool",
          "name": "",
          "type": "bool"
        }
      ],
      "stateMutability": "view",
      "type": "function"
    },
    {
      "inputs": [],
      "name": "metadata",
      "outputs": [
        {
          "components": [
            {
              "internalType": "string",
              "name": "name",
              "type": "string"
            },
            {
              "components": [
                {
                  "internalType": "uint16",
                  "name": "major",
                  "type": "uint16"
                },
                {
                  "internalType": "uint16",
                  "name": "minor",
                  "type": "uint16"
                }
              ],
              "internalType": "struct Version",
              "name": "version",
              "type": "tuple"
            }
          ],
          "internalType": "struct ExtensionMetadata",
          "name": "",
          "type": "tuple"
        }
      ],
      "stateMutability": "pure",
      "type": "function"
    },
    {
      "inputs": [],
      "name": "register",
      "outputs": [],
      "stateMutability": "nonpayable",
      "type": "function"
    },
    {
      "inputs": [
        {
          "internalType": "address",
          "name": "myAddress",
          "type": "address"
        }
      ],
      "name": "upgrade",
      "outputs": [],
      "stateMutability": "nonpayable",
      "type": "function"
    }
  ],
  "bytecode": "0x608060405234801561001057600080fd5b506117ea806100206000396000f3fe6080604052600436106100915760003560e01c80634d4965f3116100595780634d4965f31461014e578063729963c01461016e578063c041a65b14610189578063c3c5a5471461019c578063c747e47e146101cc57600080fd5b80630900f010146100965780631aa3a008146100b65780632a1b8f9b146100cb578063392f37e9146100eb5780633e88a4e214610116575b600080fd5b3480156100a257600080fd5b506100b46100b1366004610fcb565b50565b005b3480156100c257600080fd5b506100b46101ec565b3480156100d757600080fd5b506100b46100e6366004610fcb565b610270565b3480156100f757600080fd5b5061010061043f565b60405161010d919061103f565b60405180910390f35b34801561012257600080fd5b50610136610131366004611084565b610499565b6040516001600160a01b03909116815260200161010d565b34801561015a57600080fd5b506100b461016936600461110e565b61051f565b34801561017a57600080fd5b506100b46100b1366004611155565b610136610197366004611155565b610589565b3480156101a857600080fd5b506101bc6101b7366004610fcb565b610970565b604051901515815260200161010d565b3480156101d857600080fd5b506101366101e736600461110e565b6109ef565b6101f533610970565b61026e576040805162461bcd60e51b81526020600482015260248101919091527f526567697374726174696f6e4578743a206f6e6c79207265676973746572656460448201527f20656e7469746965732063616e2063616c6c20746869732066756e6374696f6e60648201526084015b60405180910390fd5b565b60408051600380825260808201909252600091816020015b6040805180820190915260008152606060208201528152602001906001900390816102885790505090506040518060400160405280633e88a4e260e01b6001600160e01b03191681526020016040518060400160405280601781526020017f676574456e7469747942794e616d6528737472696e672900000000000000000081525081525081600081518110610320576103206111a0565b6020026020010181905250604051806040016040528063c3c5a54760e01b6001600160e01b03191681526020016040518060400160405280601581526020017469735265676973746572656428616464726573732960581b81525081525081600181518110610391576103916111a0565b6020026020010181905250604051806040016040528063c041a65b60e01b6001600160e01b03191681526020016040518060400160405280601c81526020017f63726561746541737365742843726561746541737365744172677329000000008152508152508160028151811061040a5761040a6111a0565b602002602001018190525061043b6040518060400160405280846001600160a01b0316815260200183815250610a6a565b5050565b610447610f7a565b5060408051608081018252601481830190815273105cdcd95d149959da5cdd1c985d1a5bdb915e1d60621b60608301528152815180830190925260018252600060208381019190915281019190915290565b604051631f44527160e11b815260009073__$d81eab81c4f96e94de97b51155a369ac43$__90633e88a4e2906104d590869086906004016111df565b602060405180830381865af41580156104f2573d6000803e3d6000fd5b505050506040513d601f19601f8201168201806040525081019061051691906111f3565b90505b92915050565b604051630bca13f760e41b815273__$d81eab81c4f96e94de97b51155a369ac43$__9063bca13f709061055690849060040161126f565b60006040518083038186803b15801561056e57600080fd5b505af4158015610582573d6000803e3d6000fd5b5050505050565b604051630935e01b60e21b815233600482015260009073__$a5a42e46683ad9c79b7b86d5ff60fdf4c1$__906324d7806c90602401602060405180830381865af41580156105db573d6000803e3d6000fd5b505050506040513d601f19601f820116820180604052508101906105ff91906112fe565b61064b5760405162461bcd60e51b815260206004820181905260248201527f466163746f72794578743a207265737472696374656420746f2061646d696e736044820152606401610265565b6000610655610c2d565b805490915060009061066f906001600160a01b0316610cc3565b90506001600160a01b0381166106d85760405162461bcd60e51b815260206004820152602860248201527f4552433230526567697374726174696f6e3a20656e7469747920636c6f6e696e60448201526719c819985a5b195960c21b6064820152608401610265565b6040805160e081018252600060c080830182815283528351602081810186528382528085019190915284518082018652838152848601526060840183905260016080850181905260a085015284519182019094529192909190819061073f90890189610fcb565b6001600160a01b0316815260209081019061075c90890189610fcb565b6001600160a01b03168152602001306001600160a01b031681526020018780602001906107899190611320565b8080601f016020809104026020016040519081016040528093929190818152602001838380828437600092019190915250505090825250602081018490526040908101906107d990890189611320565b8080601f01602080910402602001604051908101604052809392919081815260200183838082843760009201919091525050509152506040516334d0850960e11b81529091506001600160a01b038416906369a10a129061083e908490600401611367565b600060405180830381600087803b15801561085857600080fd5b505af115801561086c573d6000803e3d6000fd5b505060408051606080820183526001600160a01b0388168252825190810183526000808252601e60208381019190915282850191909152820152808201869052905163af2e5d0560e01b815290925073__$d81eab81c4f96e94de97b51155a369ac43$__915063af2e5d05906108e6908490600401611450565b60006040518083038186803b1580156108fe57600080fd5b505af4158015610912573d6000803e3d6000fd5b50610924925050506020880188610fcb565b6001600160a01b0316846001600160a01b03167f7377123f9eb561d749cd3a89a83c22035cad6473521acbb981ee1c52d8f0248560405160405180910390a3509193505050505b919050565b60405163c3c5a54760e01b81526001600160a01b038216600482015260009073__$d81eab81c4f96e94de97b51155a369ac43$__9063c3c5a54790602401602060405180830381865af41580156109cb573d6000803e3d6000fd5b505050506040513d601f19601f8201168201806040525081019061051991906112fe565b6040516332ef671360e21b815260009073__$d81eab81c4f96e94de97b51155a369ac43$__9063cbbd9c4c90610a29908590600401611519565b602060405180830381865af4158015610a46573d6000803e3d6000fd5b505050506040513d601f19601f8201168201806040525081019061051991906111f3565b6000610a74610d84565b82516001600160a01b031660009081526020829052604081209192505b836020015151811015610c2757600084602001518281518110610ab657610ab66111a0565b6020908102919091018101518051600486810180546001808201835560009283528683206008830401805463ffffffff600790941690950261010090810a9384021990951660e09690961c9290920294909417905583516001600160e01b0319168152918801909352604090208054919350916001600160a01b0391041615610baf57805461010090046001600160a01b0316600090815260208690526040812087519091906001870190610b6a90610de9565b602080870151604051610b84949392600188019101611658565b60405160208183030381529060405290508060405162461bcd60e51b81526004016102659190611737565b50604080518082018252600180825287516001600160a01b03908116602080850191825295516001600160e01b0319166000908152898401909652939094209151825493516001600160a81b0319909416901515610100600160a81b0319161761010093909416929092029290921790915501610a91565b50505050565b60408051808201909152601c81527f78722e656e746974792e666163746f72792e73746f726167652e76310000000060209091015260008060ff610c9260017f8b4ac7cd4466ab0d50fe53a88c5446ca4a450d482bef9ad792e7d9f451497e0f611760565b604051602001610ca491815260200190565b60408051601f1981840301815291905280516020909101201692915050565b60006001600160a01b038216610d335760405162461bcd60e51b815260206004820152602f60248201527f4c6962436c6f6e653a20696d706c656d656e746174696f6e2063616e6e6f742060448201526e6265207a65726f206164647265737360881b6064820152608401610265565b60008260601b9050604051733d602d80600a3d3981f3363d3d373d3d3d363d7360601b81528160148201526e5af43d82803e903d91602b57fd5bf360881b60288201526037816000f0949350505050565b60408051808201909152601881527f78722e657874656e73696f6e732e73746f726167652e7631000000000000000060209091015260008060ff610c9260017fb58ec9ca7ba0606d9fecd9f559655d0e5fec418e6751b65b892bccdfd25eb99f611760565b60606105196001600160a01b03831660146060826000610e0a846002611773565b610e1590600261178a565b67ffffffffffffffff811115610e2d57610e2d61118a565b6040519080825280601f01601f191660200182016040528015610e57576020820181803683370190505b509050600360fc1b81600081518110610e7257610e726111a0565b60200101906001600160f81b031916908160001a905350600f60fb1b81600181518110610ea157610ea16111a0565b60200101906001600160f81b031916908160001a9053506000610ec5856002611773565b610ed090600161178a565b90505b6001811115610f48576f181899199a1a9b1b9c1cb0b131b232b360811b83600f1660108110610f0457610f046111a0565b1a60f81b828281518110610f1a57610f1a6111a0565b60200101906001600160f81b031916908160001a90535060049290921c91610f418161179d565b9050610ed3565b508115610f725760405163e22e27eb60e01b81526004810186905260248101859052604401610265565b949350505050565b604051806040016040528060608152602001610fb16040518060400160405280600061ffff168152602001600061ffff1681525090565b905290565b6001600160a01b03811681146100b157600080fd5b600060208284031215610fdd57600080fd5b8135610fe881610fb6565b9392505050565b60005b8381101561100a578181015183820152602001610ff2565b50506000910152565b6000815180845261102b816020860160208601610fef565b601f01601f19169290920160200192915050565b60208152600082516060602084015261105b6080840182611013565b602094850151805161ffff90811660408701529501519094166060909301929092525090919050565b6000806020838503121561109757600080fd5b823567ffffffffffffffff808211156110af57600080fd5b818501915085601f8301126110c357600080fd5b8135818111156110d257600080fd5b8660208285010111156110e457600080fd5b60209290920196919550909350505050565b600060c0828403121561110857600080fd5b50919050565b60006020828403121561112057600080fd5b813567ffffffffffffffff81111561113757600080fd5b610f72848285016110f6565b60006060828403121561110857600080fd5b60006020828403121561116757600080fd5b813567ffffffffffffffff81111561117e57600080fd5b610f7284828501611143565b634e487b7160e01b600052604160045260246000fd5b634e487b7160e01b600052603260045260246000fd5b81835281816020850137506000828201602090810191909152601f909101601f19169091010190565b602081526000610f726020830184866111b6565b60006020828403121561120557600080fd5b8151610fe881610fb6565b6000808335601e1984360301811261122757600080fd5b830160208101925035905067ffffffffffffffff81111561124757600080fd5b80360382131561125657600080fd5b9250929050565b803561ffff8116811461096b57600080fd5b602081526000823561128081610fb6565b6001600160a01b031660208381019190915261129e90840184611210565b60c060408501526112b360e0850182846111b6565b9150506040840135606084015261ffff806112d06060870161125d565b166080850152806112e36080870161125d565b1660a08501525060a084013560c08401528091505092915050565b60006020828403121561131057600080fd5b81518015158114610fe857600080fd5b6000808335601e1984360301811261133757600080fd5b83018035915067ffffffffffffffff82111561135257600080fd5b60200191503681900382131561125657600080fd5b60208152600060018060a01b0380845116602084015280602085015116604084015280604085015116606084015250606083015160c060808401526113af60e0840182611013565b90506080840151601f19808584030160a0860152815160c084526113d660c0850182611013565b9050602083015184820360208601526113ef8282611013565b915050604083015184820360408601526114098282611013565b915050606083015160608501526080830151608085015260a083015160a085015260a08701519350818682030160c08701526114458185611013565b979650505050505050565b602080825282516001600160a01b03168282015282810151805161ffff90811660408086019190915292820151166060840152810151608083015282015160a080830152805160c080840152600091906114ae610180850182611013565b9050602082015160bf19808684030160e08701526114cc8383611013565b9250604084015191508086840301610100870152506114eb8282611013565b6060840151610120870152608084015161014087015260a09093015161016090950194909452509392505050565b6020815260006115298384611210565b60c0602085015261153e60e0850182846111b6565b91505061154e6020850185611210565b601f19808685030160408701526115668483856111b6565b93506115756040880188611210565b93509150808685030160608701525061158f8383836111b6565b9250505060608401356080840152608084013560a084015260a084013560c08401528091505092915050565b8054600090600181811c90808316806115d557607f831692505b602080841082036115f657634e487b7160e01b600052602260045260246000fd5b81801561160a576001811461161f5761164c565b60ff198616895284151585028901965061164c565b60008881526020902060005b868110156116445781548b82015290850190830161162b565b505084890196505b50505050505092915050565b7f4c6962457874656e73696f6e3a20657874656e73696f6e2000000000000000008152600061168a60188301876115bb565b6c01030ba1030b2323932b9b99d1609d1b815285516116b081600d840160208a01610fef565b8082019150507f20617474656d7074696e6720746f20726575736520612073656c6563746f723a600d820152600160fd1b80602d83015285516116fa81602e850160208a01610fef565b7f2c20776869636820697320616c72656164792072656769737465726564206279602e9390910192830152604e820152611445604f8201856115bb565b6020815260006105166020830184611013565b634e487b7160e01b600052601160045260246000fd5b818103818111156105195761051961174a565b80820281158282048414176105195761051961174a565b808201808211156105195761051961174a565b6000816117ac576117ac61174a565b50600019019056fea26469706673582212206bd22e2c701bf379d41c5d18efceaa9297905337620e128bbc08b6f1f067d1fe64736f6c63430008180033",
  "linkReferences": {
    "contracts/libraries/LibAccess.sol": {
      "LibAccess": [
        {
          "length": 20,
          "start": 1473
        }
      ]
    },
    "contracts/libraries/LibRegistration.sol": {
      "LibRegistration": [
        {
          "length": 20,
          "start": 1227
        },
        {
          "length": 20,
          "start": 1358
        },
        {
          "length": 20,
          "start": 2269
        },
        {
          "length": 20,
          "start": 2481
        },
        {
          "length": 20,
          "start": 2593
        }
      ]
    }
  },
  "deployedLinkReferences": {
    "contracts/libraries/LibAccess.sol": {
      "LibAccess": [
        {
          "length": 20,
          "start": 1441
        }
      ]
    },
    "contracts/libraries/LibRegistration.sol": {
      "LibRegistration": [
        {
          "length": 20,
          "start": 1195
        },
        {
          "length": 20,
          "start": 1326
        },
        {
          "length": 20,
          "start": 2237
        },
        {
          "length": 20,
          "start": 2449
        },
        {
          "length": 20,
          "start": 2561
        }
      ]
    }
  }
}