{
  "_format": "hh-sol-artifact-1",
  "contractName": "AssetConditionExt",
  "sourceName": "contracts/extensions/asset/AssetConditionExt.sol",
  "abi": [
    {
      "inputs": [
        {
          "internalType": "uint256",
          "name": "value",
          "type": "uint256"
        },
        {
          "internalType": "uint256",
          "name": "length",
          "type": "uint256"
        }
      ],
      "name": "StringsInsufficientHexLength",
      "type": "error"
    },
    {
      "anonymous": false,
      "inputs": [],
      "name": "AssetConditionRemoved",
      "type": "event"
    },
    {
      "anonymous": false,
      "inputs": [
        {
          "indexed": false,
          "internalType": "address",
          "name": "condition",
          "type": "address"
        }
      ],
      "name": "AssetConditionSet",
      "type": "event"
    },
    {
      "inputs": [
        {
          "components": [
            {
              "internalType": "address",
              "name": "asset",
              "type": "address"
            },
            {
              "internalType": "address",
              "name": "world",
              "type": "address"
            },
            {
              "internalType": "address",
              "name": "company",
              "type": "address"
            },
            {
              "internalType": "address",
              "name": "experience",
              "type": "address"
            },
            {
              "internalType": "address",
              "name": "avatar",
              "type": "address"
            }
          ],
          "internalType": "struct AssetCheckArgs",
          "name": "args",
          "type": "tuple"
        }
      ],
      "name": "canUseAsset",
      "outputs": [
        {
          "internalType": "bool",
          "name": "",
          "type": "bool"
        }
      ],
      "stateMutability": "view",
      "type": "function"
    },
    {
      "inputs": [
        {
          "components": [
            {
              "internalType": "address",
              "name": "asset",
              "type": "address"
            },
            {
              "internalType": "address",
              "name": "world",
              "type": "address"
            },
            {
              "internalType": "address",
              "name": "company",
              "type": "address"
            },
            {
              "internalType": "address",
              "name": "experience",
              "type": "address"
            },
            {
              "internalType": "address",
              "name": "avatar",
              "type": "address"
            }
          ],
          "internalType": "struct AssetCheckArgs",
          "name": "args",
          "type": "tuple"
        }
      ],
      "name": "canViewAsset",
      "outputs": [
        {
          "internalType": "bool",
          "name": "",
          "type": "bool"
        }
      ],
      "stateMutability": "view",
      "type": "function"
    },
    {
      "inputs": [
        {
          "internalType": "address",
          "name": "myAddress",
          "type": "address"
        }
      ],
      "name": "install",
      "outputs": [],
      "stateMutability": "nonpayable",
      "type": "function"
    },
    {
      "inputs": [],
      "name": "metadata",
      "outputs": [
        {
          "components": [
            {
              "internalType": "string",
              "name": "name",
              "type": "string"
            },
            {
              "components": [
                {
                  "internalType": "uint16",
                  "name": "major",
                  "type": "uint16"
                },
                {
                  "internalType": "uint16",
                  "name": "minor",
                  "type": "uint16"
                }
              ],
              "internalType": "struct Version",
              "name": "version",
              "type": "tuple"
            }
          ],
          "internalType": "struct ExtensionMetadata",
          "name": "",
          "type": "tuple"
        }
      ],
      "stateMutability": "pure",
      "type": "function"
    },
    {
      "inputs": [],
      "name": "removeCondition",
      "outputs": [],
      "stateMutability": "nonpayable",
      "type": "function"
    },
    {
      "inputs": [
        {
          "internalType": "address",
          "name": "condition",
          "type": "address"
        }
      ],
      "name": "setCondition",
      "outputs": [],
      "stateMutability": "nonpayable",
      "type": "function"
    },
    {
      "inputs": [
        {
          "internalType": "address",
          "name": "myAddress",
          "type": "address"
        }
      ],
      "name": "upgrade",
      "outputs": [],
      "stateMutability": "nonpayable",
      "type": "function"
    }
  ],
  "bytecode": "0x608060405234801561001057600080fd5b506112f7806100206000396000f3fe608060405234801561001057600080fd5b506004361061007d5760003560e01c8063392f37e91161005b578063392f37e9146100b05780633fa47f17146100ce5780636acd6481146100f1578063b4e75b9b1461010457600080fd5b8063021665b7146100825780630900f0101461008c5780632a1b8f9b1461009d575b600080fd5b61008a610117565b005b61008a61009a366004610e6c565b50565b61008a6100ab366004610e6c565b610361565b6100b861059d565b6040516100c59190610ed9565b60405180910390f35b6100e16100dc366004610f34565b6105f4565b60405190151581526020016100c5565b61008a6100ff366004610e6c565b610697565b6100e1610112366004610f34565b610960565b60006101216109bb565b600101546001600160a01b031690503381146101845760405162461bcd60e51b815260206004820152601e60248201527f4261736541737365743a206f6e6c792069737375657220616c6c6f776564000060448201526064015b60405180910390fd5b306001600160a01b031663c51aba2b6040518163ffffffff1660e01b8152600401602060405180830381865afa1580156101c2573d6000803e3d6000fd5b505050506040513d601f19601f820116820180604052508101906101e69190610fd4565b60405163c3c5a54760e01b81526001600160a01b038381166004830152919091169063c3c5a54790602401602060405180830381865afa15801561022e573d6000803e3d6000fd5b505050506040513d601f19601f820116820180604052508101906102529190610ff1565b61026e5760405162461bcd60e51b815260040161017b90611013565b806001600160a01b03166386b70bed6040518163ffffffff1660e01b8152600401602060405180830381865afa1580156102ac573d6000803e3d6000fd5b505050506040513d601f19601f820116820180604052508101906102d09190610ff1565b61031c5760405162461bcd60e51b815260206004820152601f60248201527f4261736541737365743a20697373756572206973206e6f742061637469766500604482015260640161017b565b6103246109bb565b60020180546001600160a01b03191690556040517f0a3b4f225d27c59369c925408168eb6c4619520ef6a721f0225f0db69977416590600090a150565b60408051600480825260a08201909252600091816020015b6040805180820190915260008152606060208201528152602001906001900390816103795790505090506040518060400160405280636acd648160e01b6001600160e01b031916815260200160405180604001604052806015815260200174736574436f6e646974696f6e28616464726573732960581b8152508152508160008151811061040957610409611060565b6020026020010181905250604051806040016040528063021665b760e01b6001600160e01b03191681526020016040518060400160405280601181526020017072656d6f7665436f6e646974696f6e282960781b8152508152508160018151811061047657610476611060565b6020026020010181905250604051806040016040528063b4e75b9b60e01b6001600160e01b03191681526020016040518060400160405280601c81526020017f63616e566965774173736574284173736574436865636b417267732900000000815250815250816002815181106104ef576104ef611060565b60200260200101819052506040518060400160405280633fa47f1760e01b6001600160e01b03191681526020016040518060400160405280601b81526020017f63616e5573654173736574284173736574436865636b417267732900000000008152508152508160038151811061056857610568611060565b60200260200101819052506105996040518060400160405280846001600160a01b0316815260200183815250610a47565b5050565b6105a5610e0b565b5060408051608081018252601181830190815270105cdcd95d10dbdb991a5d1a5bdb915e1d607a1b60608301528152815180830190925260018252600060208381019190915281019190915290565b6000806105ff6109bb565b60028101549091506001600160a01b031661061d5750600192915050565b60028101546040516377b63b9160e11b81526001600160a01b039091169063ef6c77229061064f908690600401611076565b602060405180830381865afa15801561066c573d6000803e3d6000fd5b505050506040513d601f19601f820116820180604052508101906106909190610ff1565b9392505050565b60006106a16109bb565b600101546001600160a01b031690503381146106ff5760405162461bcd60e51b815260206004820152601e60248201527f4261736541737365743a206f6e6c792069737375657220616c6c6f7765640000604482015260640161017b565b306001600160a01b031663c51aba2b6040518163ffffffff1660e01b8152600401602060405180830381865afa15801561073d573d6000803e3d6000fd5b505050506040513d601f19601f820116820180604052508101906107619190610fd4565b60405163c3c5a54760e01b81526001600160a01b038381166004830152919091169063c3c5a54790602401602060405180830381865afa1580156107a9573d6000803e3d6000fd5b505050506040513d601f19601f820116820180604052508101906107cd9190610ff1565b6107e95760405162461bcd60e51b815260040161017b90611013565b806001600160a01b03166386b70bed6040518163ffffffff1660e01b8152600401602060405180830381865afa158015610827573d6000803e3d6000fd5b505050506040513d601f19601f8201168201806040525081019061084b9190610ff1565b6108975760405162461bcd60e51b815260206004820152601f60248201527f4261736541737365743a20697373756572206973206e6f742061637469766500604482015260640161017b565b6001600160a01b0382166109015760405162461bcd60e51b815260206004820152602b60248201527f4261736541737365743a20636f6e646974696f6e2063616e6e6f74206265207a60448201526a65726f206164647265737360a81b606482015260840161017b565b8161090a6109bb565b60020180546001600160a01b0319166001600160a01b0392831617905560405190831681527f74aec62349c3c04102a2d4dba64bd716489a57926996590bb38beffc7fbd40b99060200160405180910390a15050565b60008061096b6109bb565b60028101549091506001600160a01b03166109895750600192915050565b600281015460405163eab4ad0360e01b81526001600160a01b039091169063eab4ad039061064f908690600401611076565b60408051808201909152601381527278722e61737365742e73746f726167652e763160681b60209091015260008060ff610a1660017f0db46b7c34197dfe4fa603e9c17ca5ed137d4afe720a374e843bbcf1431eaeb76110d3565b604051602001610a2891815260200190565b60408051601f1981840301815291905280516020909101201692915050565b6000610a51610c0a565b82516001600160a01b031660009081526020829052604081209192505b836020015151811015610c0457600084602001518281518110610a9357610a93611060565b6020908102919091018101518051600486810180546001808201835560009283528683206008830401805463ffffffff600790941690950261010090810a9384021990951660e09690961c9290920294909417905583516001600160e01b0319168152918801909352604090208054919350916001600160a01b0391041615610b8c57805461010090046001600160a01b0316600090815260208690526040812087519091906001870190610b4790610c6f565b602080870151604051610b61949392600188019101611183565b60405160208183030381529060405290508060405162461bcd60e51b815260040161017b919061126d565b50604080518082018252600180825287516001600160a01b03908116602080850191825295516001600160e01b0319166000908152898401909652939094209151825493516001600160a81b0319909416901515610100600160a81b0319161761010093909416929092029290921790915501610a6e565b50505050565b60408051808201909152601881527f78722e657874656e73696f6e732e73746f726167652e7631000000000000000060209091015260008060ff610a1660017fb58ec9ca7ba0606d9fecd9f559655d0e5fec418e6751b65b892bccdfd25eb99f6110d3565b6060610c856001600160a01b0383166014610c8b565b92915050565b6060826000610c9b846002611280565b610ca6906002611297565b67ffffffffffffffff811115610cbe57610cbe610f1e565b6040519080825280601f01601f191660200182016040528015610ce8576020820181803683370190505b509050600360fc1b81600081518110610d0357610d03611060565b60200101906001600160f81b031916908160001a905350600f60fb1b81600181518110610d3257610d32611060565b60200101906001600160f81b031916908160001a9053506000610d56856002611280565b610d61906001611297565b90505b6001811115610dd9576f181899199a1a9b1b9c1cb0b131b232b360811b83600f1660108110610d9557610d95611060565b1a60f81b828281518110610dab57610dab611060565b60200101906001600160f81b031916908160001a90535060049290921c91610dd2816112aa565b9050610d64565b508115610e035760405163e22e27eb60e01b8152600481018690526024810185905260440161017b565b949350505050565b604051806040016040528060608152602001610e426040518060400160405280600061ffff168152602001600061ffff1681525090565b905290565b6001600160a01b038116811461009a57600080fd5b8035610e6781610e47565b919050565b600060208284031215610e7e57600080fd5b813561069081610e47565b60005b83811015610ea4578181015183820152602001610e8c565b50506000910152565b60008151808452610ec5816020860160208601610e89565b601f01601f19169290920160200192915050565b602081526000825160606020840152610ef56080840182610ead565b602094850151805161ffff90811660408701529501519094166060909301929092525090919050565b634e487b7160e01b600052604160045260246000fd5b600060a08284031215610f4657600080fd5b60405160a0810181811067ffffffffffffffff82111715610f7757634e487b7160e01b600052604160045260246000fd5b6040528235610f8581610e47565b81526020830135610f9581610e47565b6020820152610fa660408401610e5c565b6040820152610fb760608401610e5c565b6060820152610fc860808401610e5c565b60808201529392505050565b600060208284031215610fe657600080fd5b815161069081610e47565b60006020828403121561100357600080fd5b8151801515811461069057600080fd5b6020808252602d908201527f4261736541737365743a20697373756572206973206e6f74206120726567697360408201526c746572656420636f6d70616e7960981b606082015260800190565b634e487b7160e01b600052603260045260246000fd5b81516001600160a01b039081168252602080840151821690830152604080840151821690830152606080840151821690830152608092830151169181019190915260a00190565b634e487b7160e01b600052601160045260246000fd5b81810381811115610c8557610c856110bd565b8054600090600181811c908083168061110057607f831692505b6020808410820361112157634e487b7160e01b600052602260045260246000fd5b818015611135576001811461114a57611177565b60ff1986168952841515850289019650611177565b60008881526020902060005b8681101561116f5781548b820152908501908301611156565b505084890196505b50505050505092915050565b7f4c6962457874656e73696f6e3a20657874656e73696f6e200000000000000000815260006111b560188301876110e6565b6c01030ba1030b2323932b9b99d1609d1b815285516111db81600d840160208a01610e89565b8082019150507f20617474656d7074696e6720746f20726575736520612073656c6563746f723a600d820152600160fd1b80602d830152855161122581602e850160208a01610e89565b7f2c20776869636820697320616c72656164792072656769737465726564206279602e9390910192830152604e820152611262604f8201856110e6565b979650505050505050565b6020815260006106906020830184610ead565b8082028115828204841417610c8557610c856110bd565b80820180821115610c8557610c856110bd565b6000816112b9576112b96110bd565b50600019019056fea26469706673582212203d215b2eee5364ed7dac4d8db7916bd56bf5b48c09b6f1277553e18c7c48374864736f6c63430008180033",
  "linkReferences": {},
  "deployedLinkReferences": {}
}