{
  "_format": "hh-sol-artifact-1",
  "contractName": "AvatarInfoExt",
  "sourceName": "contracts/extensions/avatar/AvatarInfoExt.sol",
  "abi": [
    {
      "inputs": [
        {
          "internalType": "uint256",
          "name": "value",
          "type": "uint256"
        },
        {
          "internalType": "uint256",
          "name": "length",
          "type": "uint256"
        }
      ],
      "name": "StringsInsufficientHexLength",
      "type": "error"
    },
    {
      "inputs": [],
      "name": "appearanceDetails",
      "outputs": [
        {
          "internalType": "bytes",
          "name": "",
          "type": "bytes"
        }
      ],
      "stateMutability": "view",
      "type": "function"
    },
    {
      "inputs": [],
      "name": "avatarOwnerSigningNonce",
      "outputs": [
        {
          "internalType": "uint256",
          "name": "",
          "type": "uint256"
        }
      ],
      "stateMutability": "view",
      "type": "function"
    },
    {
      "inputs": [],
      "name": "canReceiveTokensOutsideOfExperience",
      "outputs": [
        {
          "internalType": "bool",
          "name": "",
          "type": "bool"
        }
      ],
      "stateMutability": "view",
      "type": "function"
    },
    {
      "inputs": [
        {
          "internalType": "address",
          "name": "signer",
          "type": "address"
        }
      ],
      "name": "companySigningNonce",
      "outputs": [
        {
          "internalType": "uint256",
          "name": "",
          "type": "uint256"
        }
      ],
      "stateMutability": "view",
      "type": "function"
    },
    {
      "inputs": [
        {
          "internalType": "address",
          "name": "myAddress",
          "type": "address"
        }
      ],
      "name": "install",
      "outputs": [],
      "stateMutability": "nonpayable",
      "type": "function"
    },
    {
      "inputs": [],
      "name": "location",
      "outputs": [
        {
          "internalType": "address",
          "name": "",
          "type": "address"
        }
      ],
      "stateMutability": "view",
      "type": "function"
    },
    {
      "inputs": [],
      "name": "metadata",
      "outputs": [
        {
          "components": [
            {
              "internalType": "string",
              "name": "name",
              "type": "string"
            },
            {
              "components": [
                {
                  "internalType": "uint16",
                  "name": "major",
                  "type": "uint16"
                },
                {
                  "internalType": "uint16",
                  "name": "minor",
                  "type": "uint16"
                }
              ],
              "internalType": "struct Version",
              "name": "version",
              "type": "tuple"
            }
          ],
          "internalType": "struct ExtensionMetadata",
          "name": "",
          "type": "tuple"
        }
      ],
      "stateMutability": "pure",
      "type": "function"
    },
    {
      "inputs": [],
      "name": "name",
      "outputs": [
        {
          "internalType": "string",
          "name": "",
          "type": "string"
        }
      ],
      "stateMutability": "view",
      "type": "function"
    },
    {
      "inputs": [
        {
          "internalType": "bytes",
          "name": "details",
          "type": "bytes"
        }
      ],
      "name": "setAppearanceDetails",
      "outputs": [],
      "stateMutability": "nonpayable",
      "type": "function"
    },
    {
      "inputs": [
        {
          "internalType": "bool",
          "name": "canReceive",
          "type": "bool"
        }
      ],
      "name": "setCanReceiveTokensOutsideOfExperience",
      "outputs": [],
      "stateMutability": "nonpayable",
      "type": "function"
    },
    {
      "inputs": [
        {
          "internalType": "address",
          "name": "myAddress",
          "type": "address"
        }
      ],
      "name": "upgrade",
      "outputs": [],
      "stateMutability": "nonpayable",
      "type": "function"
    },
    {
      "inputs": [],
      "name": "username",
      "outputs": [
        {
          "internalType": "string",
          "name": "",
          "type": "string"
        }
      ],
      "stateMutability": "view",
      "type": "function"
    }
  ],
  "bytecode": "0x608060405234801561001057600080fd5b50611399806100206000396000f3fe608060405234801561001057600080fd5b50600436106100b45760003560e01c8063516f279e11610071578063516f279e1461014757806361fac54d146100df5780638970220e14610167578063949a1ddc1461016f5780639d870bf614610182578063f890d7c91461019557600080fd5b806303f7d3ba146100b957806306fdde03146100df5780630900f010146100f4578063181d939b146101075780632a1b8f9b1461011f578063392f37e914610132575b600080fd5b6100cc6100c7366004610e18565b61019d565b6040519081526020015b60405180910390f35b6100e76101c9565b6040516100d69190610e8c565b610105610102366004610e18565b50565b005b61010f610264565b60405190151581526020016100d6565b61010561012d366004610e18565b610277565b61013a6106a4565b6040516100d69190610e9f565b61014f6106f7565b6040516001600160a01b0390911681526020016100d6565b6100e7610715565b61010561017d366004610efa565b61072d565b610105610190366004610fab565b610816565b6100cc6108fe565b60006101a7610911565b6001600160a01b03909216600090815260019290920160205250604090205490565b60606101d361099e565b60020180546101e190610fcd565b80601f016020809104026020016040519081016040528092919081815260200182805461020d90610fcd565b801561025a5780601f1061022f5761010080835404028352916020019161025a565b820191906000526020600020905b81548152906001019060200180831161023d57829003601f168201915b5050505050905090565b600061026e610911565b5460ff16919050565b6040805160098082526101408201909252600091816020015b60408051808201909152600081526060602082015281526020019060019003908161029057905050905060405180604001604052806306fdde0360e01b6001600160e01b0319168152602001604051806040016040528060068152602001656e616d65282960d01b8152508152508160008151811061031157610311611007565b602002602001018190525060405180604001604052806361fac54d60e01b6001600160e01b03191681526020016040518060400160405280600a815260200169757365726e616d65282960b01b8152508152508160018151811061037757610377611007565b6020026020010181905250604051806040016040528063516f279e60e01b6001600160e01b03191681526020016040518060400160405280600a8152602001696c6f636174696f6e282960b01b815250815250816002815181106103dd576103dd611007565b60200260200101819052506040518060400160405280638970220e60e01b6001600160e01b031916815260200160405180604001604052806013815260200172617070656172616e636544657461696c73282960681b8152508152508160038151811061044c5761044c611007565b6020026020010181905250604051806040016040528063181d939b60e01b6001600160e01b031916815260200160405180606001604052806025815260200161131360259139815250816004815181106104a8576104a8611007565b602002602001018190525060405180604001604052806303f7d3ba60e01b6001600160e01b03191681526020016040518060400160405280601c81526020017f636f6d70616e795369676e696e674e6f6e6365286164647265737329000000008152508152508160058151811061052157610521611007565b6020026020010181905250604051806040016040528063f890d7c960e01b6001600160e01b03191681526020016040518060400160405280601981526020017f6176617461724f776e65725369676e696e674e6f6e63652829000000000000008152508152508160068151811061059a5761059a611007565b60200260200101819052506040518060400160405280639d870bf660e01b6001600160e01b03191681526020016040518060600160405280602c8152602001611338602c9139815250816007815181106105f6576105f6611007565b6020026020010181905250604051806040016040528063949a1ddc60e01b6001600160e01b03191681526020016040518060400160405280601b81526020017f736574417070656172616e636544657461696c732862797465732900000000008152508152508160088151811061066f5761066f611007565b60200260200101819052506106a06040518060400160405280846001600160a01b0316815260200183815250610a03565b5050565b6106ac610dc7565b5060408051608081018252600d8183019081526c105d985d185c925b999bd15e1d609a1b60608301528152815180830190925260018252600060208381019190915281019190915290565b6000610701610911565b5461010090046001600160a01b0316919050565b606061071f610911565b60030180546101e190610fcd565b336001600160a01b031673__$a5a42e46683ad9c79b7b86d5ff60fdf4c1$__638da5cb5b6040518163ffffffff1660e01b8152600401602060405180830381865af4158015610780573d6000803e3d6000fd5b505050506040513d601f19601f820116820180604052508101906107a4919061101d565b6001600160a01b0316146107ff5760405162461bcd60e51b815260206004820152601f60248201527f4176617461723a2063616c6c6572206973206e6f7420746865206f776e65720060448201526064015b60405180910390fd5b80610808610911565b600301906106a0908261108b565b336001600160a01b031673__$a5a42e46683ad9c79b7b86d5ff60fdf4c1$__638da5cb5b6040518163ffffffff1660e01b8152600401602060405180830381865af4158015610869573d6000803e3d6000fd5b505050506040513d601f19601f8201168201806040525081019061088d919061101d565b6001600160a01b0316146108e35760405162461bcd60e51b815260206004820152601f60248201527f4176617461723a2063616c6c6572206973206e6f7420746865206f776e65720060448201526064016107f6565b806108ec610911565b805460ff191691151591909117905550565b6000610908610911565b60020154905090565b60408051808201909152601481527378722e6176617461722e73746f726167652e763160601b60209091015260008060ff61096d60017f4fd0b807f0bccdb8b9f7d6f3136b4bff018fd299ff833e7b8768182dc5b9a532611161565b60405160200161097f91815260200190565b60408051601f1981840301815291905280516020909101201692915050565b60408051808201909152601881527f78722e61637469766174696f6e2e73746f726167652e7631000000000000000060209091015260008060ff61096d60017ff6611e962a52dbc98dd0485088d920890c43e26113c61976f6e171a29d49ce49611161565b6000610a0d610bc6565b82516001600160a01b031660009081526020829052604081209192505b836020015151811015610bc057600084602001518281518110610a4f57610a4f611007565b6020908102919091018101518051600486810180546001808201835560009283528683206008830401805463ffffffff600790941690950261010090810a9384021990951660e09690961c9290920294909417905583516001600160e01b0319168152918801909352604090208054919350916001600160a01b0391041615610b4857805461010090046001600160a01b0316600090815260208690526040812087519091906001870190610b0390610c2b565b602080870151604051610b1d9493926001880191016111e7565b60405160208183030381529060405290508060405162461bcd60e51b81526004016107f69190610e8c565b50604080518082018252600180825287516001600160a01b03908116602080850191825295516001600160e01b0319166000908152898401909652939094209151825493516001600160a81b0319909416901515610100600160a81b0319161761010093909416929092029290921790915501610a2a565b50505050565b60408051808201909152601881527f78722e657874656e73696f6e732e73746f726167652e7631000000000000000060209091015260008060ff61096d60017fb58ec9ca7ba0606d9fecd9f559655d0e5fec418e6751b65b892bccdfd25eb99f611161565b6060610c416001600160a01b0383166014610c47565b92915050565b6060826000610c578460026112d1565b610c629060026112e8565b67ffffffffffffffff811115610c7a57610c7a610ee4565b6040519080825280601f01601f191660200182016040528015610ca4576020820181803683370190505b509050600360fc1b81600081518110610cbf57610cbf611007565b60200101906001600160f81b031916908160001a905350600f60fb1b81600181518110610cee57610cee611007565b60200101906001600160f81b031916908160001a9053506000610d128560026112d1565b610d1d9060016112e8565b90505b6001811115610d95576f181899199a1a9b1b9c1cb0b131b232b360811b83600f1660108110610d5157610d51611007565b1a60f81b828281518110610d6757610d67611007565b60200101906001600160f81b031916908160001a90535060049290921c91610d8e816112fb565b9050610d20565b508115610dbf5760405163e22e27eb60e01b815260048101869052602481018590526044016107f6565b949350505050565b604051806040016040528060608152602001610dfe6040518060400160405280600061ffff168152602001600061ffff1681525090565b905290565b6001600160a01b038116811461010257600080fd5b600060208284031215610e2a57600080fd5b8135610e3581610e03565b9392505050565b60005b83811015610e57578181015183820152602001610e3f565b50506000910152565b60008151808452610e78816020860160208601610e3c565b601f01601f19169290920160200192915050565b602081526000610e356020830184610e60565b602081526000825160606020840152610ebb6080840182610e60565b602094850151805161ffff90811660408701529501519094166060909301929092525090919050565b634e487b7160e01b600052604160045260246000fd5b600060208284031215610f0c57600080fd5b813567ffffffffffffffff80821115610f2457600080fd5b818401915084601f830112610f3857600080fd5b813581811115610f4a57610f4a610ee4565b604051601f8201601f19908116603f01168101908382118183101715610f7257610f72610ee4565b81604052828152876020848701011115610f8b57600080fd5b826020860160208301376000928101602001929092525095945050505050565b600060208284031215610fbd57600080fd5b81358015158114610e3557600080fd5b600181811c90821680610fe157607f821691505b60208210810361100157634e487b7160e01b600052602260045260246000fd5b50919050565b634e487b7160e01b600052603260045260246000fd5b60006020828403121561102f57600080fd5b8151610e3581610e03565b601f821115611086576000816000526020600020601f850160051c810160208610156110635750805b601f850160051c820191505b818110156110825782815560010161106f565b5050505b505050565b815167ffffffffffffffff8111156110a5576110a5610ee4565b6110b9816110b38454610fcd565b8461103a565b602080601f8311600181146110ee57600084156110d65750858301515b600019600386901b1c1916600185901b178555611082565b600085815260208120601f198616915b8281101561111d578886015182559484019460019091019084016110fe565b508582101561113b5787850151600019600388901b60f8161c191681555b5050505050600190811b01905550565b634e487b7160e01b600052601160045260246000fd5b81810381811115610c4157610c4161114b565b6000815461118181610fcd565b6001828116801561119957600181146111ae576111dd565b60ff19841687528215158302870194506111dd565b8560005260208060002060005b858110156111d45781548a8201529084019082016111bb565b50505082870194505b5050505092915050565b7f4c6962457874656e73696f6e3a20657874656e73696f6e200000000000000000815260006112196018830187611174565b6c01030ba1030b2323932b9b99d1609d1b8152855161123f81600d840160208a01610e3c565b8082019150507f20617474656d7074696e6720746f20726575736520612073656c6563746f723a600d820152600160fd1b80602d830152855161128981602e850160208a01610e3c565b7f2c20776869636820697320616c72656164792072656769737465726564206279602e9390910192830152604e8201526112c6604f820185611174565b979650505050505050565b8082028115828204841417610c4157610c4161114b565b80820180821115610c4157610c4161114b565b60008161130a5761130a61114b565b50600019019056fe63616e52656365697665546f6b656e734f7574736964654f66457870657269656e6365282973657443616e52656365697665546f6b656e734f7574736964654f66457870657269656e636528626f6f6c29a264697066735822122012ec2dcc9ee6e7a72e95116283628629c479bba29e008ba494431fee7e0d3beb64736f6c63430008180033",
  "linkReferences": {
    "contracts/libraries/LibAccess.sol": {
      "LibAccess": [
        {
          "length": 20,
          "start": 1881
        },
        {
          "length": 20,
          "start": 2114
        }
      ]
    }
  },
  "deployedLinkReferences": {
    "contracts/libraries/LibAccess.sol": {
      "LibAccess": [
        {
          "length": 20,
          "start": 1849
        },
        {
          "length": 20,
          "start": 2082
        }
      ]
    }
  }
}