{
  "_format": "hh-sol-artifact-1",
  "contractName": "AvatarRegistry",
  "sourceName": "contracts/avatar/registry/AvatarRegistry.sol",
  "abi": [
    {
      "inputs": [
        {
          "components": [
            {
              "internalType": "address",
              "name": "owner",
              "type": "address"
            },
            {
              "internalType": "address",
              "name": "extensionsRegistry",
              "type": "address"
            },
            {
              "internalType": "address",
              "name": "worldRegistry",
              "type": "address"
            },
            {
              "internalType": "address[]",
              "name": "admins",
              "type": "address[]"
            }
          ],
          "internalType": "struct AvatarRegistryConstructorArgs",
          "name": "args",
          "type": "tuple"
        }
      ],
      "stateMutability": "nonpayable",
      "type": "constructor"
    },
    {
      "anonymous": false,
      "inputs": [
        {
          "indexed": false,
          "internalType": "string",
          "name": "name",
          "type": "string"
        }
      ],
      "name": "ExtensionDisabled",
      "type": "event"
    },
    {
      "anonymous": false,
      "inputs": [
        {
          "indexed": false,
          "internalType": "string",
          "name": "name",
          "type": "string"
        }
      ],
      "name": "ExtensionEnabled",
      "type": "event"
    },
    {
      "anonymous": false,
      "inputs": [
        {
          "indexed": false,
          "internalType": "string",
          "name": "name",
          "type": "string"
        },
        {
          "components": [
            {
              "internalType": "uint16",
              "name": "major",
              "type": "uint16"
            },
            {
              "internalType": "uint16",
              "name": "minor",
              "type": "uint16"
            }
          ],
          "indexed": false,
          "internalType": "struct Version",
          "name": "version",
          "type": "tuple"
        }
      ],
      "name": "ExtensionInstalled",
      "type": "event"
    },
    {
      "anonymous": false,
      "inputs": [
        {
          "indexed": false,
          "internalType": "string",
          "name": "name",
          "type": "string"
        },
        {
          "components": [
            {
              "internalType": "uint16",
              "name": "major",
              "type": "uint16"
            },
            {
              "internalType": "uint16",
              "name": "minor",
              "type": "uint16"
            }
          ],
          "indexed": false,
          "internalType": "struct Version",
          "name": "version",
          "type": "tuple"
        }
      ],
      "name": "ExtensionRolledBack",
      "type": "event"
    },
    {
      "anonymous": false,
      "inputs": [
        {
          "indexed": false,
          "internalType": "string",
          "name": "name",
          "type": "string"
        },
        {
          "components": [
            {
              "internalType": "uint16",
              "name": "major",
              "type": "uint16"
            },
            {
              "internalType": "uint16",
              "name": "minor",
              "type": "uint16"
            }
          ],
          "indexed": false,
          "internalType": "struct Version",
          "name": "version",
          "type": "tuple"
        }
      ],
      "name": "ExtensionUpgraded",
      "type": "event"
    },
    {
      "anonymous": false,
      "inputs": [
        {
          "indexed": false,
          "internalType": "bytes4",
          "name": "selector",
          "type": "bytes4"
        }
      ],
      "name": "SelectorDisabled",
      "type": "event"
    },
    {
      "anonymous": false,
      "inputs": [
        {
          "indexed": false,
          "internalType": "bytes4",
          "name": "selector",
          "type": "bytes4"
        }
      ],
      "name": "SelectorEnabled",
      "type": "event"
    },
    {
      "stateMutability": "payable",
      "type": "fallback"
    },
    {
      "inputs": [],
      "name": "extRegistry",
      "outputs": [
        {
          "internalType": "contract ICoreExtensionRegistry",
          "name": "",
          "type": "address"
        }
      ],
      "stateMutability": "view",
      "type": "function"
    },
    {
      "inputs": [
        {
          "internalType": "string",
          "name": "name",
          "type": "string"
        }
      ],
      "name": "getExtensionVersion",
      "outputs": [
        {
          "components": [
            {
              "internalType": "uint16",
              "name": "major",
              "type": "uint16"
            },
            {
              "internalType": "uint16",
              "name": "minor",
              "type": "uint16"
            }
          ],
          "internalType": "struct Version",
          "name": "",
          "type": "tuple"
        }
      ],
      "stateMutability": "view",
      "type": "function"
    },
    {
      "inputs": [
        {
          "internalType": "string",
          "name": "name",
          "type": "string"
        },
        {
          "components": [
            {
              "internalType": "uint16",
              "name": "major",
              "type": "uint16"
            },
            {
              "internalType": "uint16",
              "name": "minor",
              "type": "uint16"
            }
          ],
          "internalType": "struct Version",
          "name": "version",
          "type": "tuple"
        }
      ],
      "name": "hasExtension",
      "outputs": [
        {
          "internalType": "bool",
          "name": "",
          "type": "bool"
        }
      ],
      "stateMutability": "view",
      "type": "function"
    },
    {
      "inputs": [
        {
          "internalType": "uint256",
          "name": "amount",
          "type": "uint256"
        }
      ],
      "name": "withdraw",
      "outputs": [],
      "stateMutability": "nonpayable",
      "type": "function"
    },
    {
      "inputs": [],
      "name": "worldRegistry",
      "outputs": [
        {
          "internalType": "address",
          "name": "",
          "type": "address"
        }
      ],
      "stateMutability": "view",
      "type": "function"
    },
    {
      "stateMutability": "payable",
      "type": "receive"
    }
  ],
  "bytecode": "0x60c06040523480156200001157600080fd5b5060405162001c7438038062001c74833981016040819052620000349162000bd8565b60208101516001600160a01b038116620000bb5760405162461bcd60e51b815260206004820152603560248201527f42617369635368656c6c3a20657874656e73696f6e207265676973747279206360448201527f616e6e6f74206265207a65726f2061646472657373000000000000000000000060648201526084015b60405180910390fd5b6001600160a01b03908116608052604082015116620001435760405162461bcd60e51b815260206004820152603460248201527f41766174617252656769737472793a20776f726c64526567697374727920636160448201527f6e6e6f74206265207a65726f20616464726573730000000000000000000000006064820152608401620000b2565b6040818101516001600160a01b031660a0528051600380825260808201909252600091816020015b60608152602001906001900390816200016b579050509050604051806040016040528060098152602001681058d8d95cdcd15e1d60ba1b81525081600081518110620001bb57620001bb62000cfb565b60200260200101819052506040518060400160405280600a815260200169119858dd1bdc9e515e1d60b21b81525081600181518110620001ff57620001ff62000cfb565b60200260200101819052506040518060400160405280601581526020017f417661746172526567697374726174696f6e45787400000000000000000000008152508160028151811062000256576200025662000cfb565b60200260200101819052506000604051806060016040528084600001516001600160a01b0316815260200184606001518152602001838152509050620002a281620002ab60201b60201c565b50505062001182565b60005b8160400151518110156200040b5781604001518181518110620002d557620002d562000cfb565b60200260200101515160000315620004025760006080516001600160a01b031663c22707ee8460400151848151811062000313576200031362000cfb565b60200260200101516040518263ffffffff1660e01b815260040162000339919062000d65565b602060405180830381865afa15801562000357573d6000803e3d6000fd5b505050506040513d601f19601f820116820180604052508101906200037d919062000d81565b90506000836040015183815181106200039a576200039a62000cfb565b6020026020010151604051602001620003b4919062000d9f565b60408051601f198184030181529190529050806001600160a01b038316620003f15760405162461bcd60e51b8152600401620000b2919062000d65565b5081620003fe816200047f565b5050505b600101620002ae565b508051602082015160405163d9ac971f60e01b815273__$a5a42e46683ad9c79b7b86d5ff60fdf4c1$__9263d9ac971f926200044a9260040162000df0565b60006040518083038186803b1580156200046357600080fd5b505af415801562000478573d6000803e3d6000fd5b5050505050565b60006200048b62000825565b90506040518060800160405280600115158152602001836001600160a01b031663392f37e96040518163ffffffff1660e01b8152600401600060405180830381865afa158015620004e0573d6000803e3d6000fd5b505050506040513d6000823e601f3d908101601f191682016040526200050a919081019062000ea6565b81526001600160a01b038416602082015260400160006040519080825280602002602001820160405280156200054a578160200160208202803683370190505b5090526001600160a01b0383166000908152602083815260409091208251815460ff1916901515178155908201518051600183019081906200058d908262001019565b506020918201518051600190920180549184015161ffff908116620100000263ffffffff1990931693169290921717905560408301516003830180546001600160a01b039092166001600160a01b031990921691909117905560608301518051620005ff926004850192019062000a62565b50505060038101805460018101825560009182526020918290200180546001600160a01b0319166001600160a01b038516908117909155604080516024808201939093528151808203909301835260440190529081018051632a1b8f9b60e01b6001600160e01b03918216179091526200067e9084908390620008be16565b506000836001600160a01b031663392f37e96040518163ffffffff1660e01b8152600401600060405180830381865afa158015620006c0573d6000803e3d6000fd5b505050506040513d6000823e601f3d908101601f19168201604052620006ea919081019062000ea6565b8051909150600090620006fd9062000995565b905060006001600160a01b031684600201826040516200071e9190620010e5565b908152604051908190036020019020546001600160a01b031614620007985760405162461bcd60e51b815260206004820152602960248201527f4c6962457874656e73696f6e3a20657874656e73696f6e20616c7265616479206044820152681a5b9cdd185b1b195960ba1b6064820152608401620000b2565b848460020182604051620007ad9190620010e5565b908152602001604051809103902060006101000a8154816001600160a01b0302191690836001600160a01b031602179055507ffe9a3a52d7e1a3740350821816e344a482f9611bc09285fa4132de9645b41bae8183602001516040516200081692919062001103565b60405180910390a15050505050565b60408051808201909152601881527f78722e657874656e73696f6e732e73746f726167652e7631000000000000000060209091015260008060ff6200088c60017fb58ec9ca7ba0606d9fecd9f559655d0e5fec418e6751b65b892bccdfd25eb99f62001150565b6040516020016200089f91815260200190565b60408051601f1981840301815291905280516020909101201692915050565b6060600080846001600160a01b031684604051620008dd9190620010e5565b600060405180830381855af49150503d80600081146200091a576040519150601f19603f3d011682016040523d82523d6000602084013e6200091f565b606091505b50915091508115620009355791506200098f9050565b805115620009465780518082602001fd5b60405162461bcd60e51b815260206004820152601660248201527f46756e6374696f6e2063616c6c207265766572746564000000000000000000006044820152606401620000b2565b92915050565b60608160005b815181101562000a0857620009d3828281518110620009be57620009be62000cfb565b01602001516001600160f81b03191662000a0f565b828281518110620009e857620009e862000cfb565b60200101906001600160f81b031916908160001a9053506001016200099b565b5092915050565b6000604160f81b6001600160f81b031983161080159062000a3e5750602d60f91b6001600160f81b0319831611155b1562000a5e5762000a5560f883901c602062001166565b60f81b92915050565b5090565b8280548282559060005260206000209060070160089004810192821562000b035791602002820160005b8382111562000acf57835183826101000a81548163ffffffff021916908360e01c0217905550926020019260040160208160030104928301926001030262000a8c565b801562000b015782816101000a81549063ffffffff021916905560040160208160030104928301926001030262000acf565b505b5062000a5e9291505b8082111562000a5e576000815560010162000b0c565b634e487b7160e01b600052604160045260246000fd5b604051608081016001600160401b038111828210171562000b5d5762000b5d62000b22565b60405290565b604080519081016001600160401b038111828210171562000b5d5762000b5d62000b22565b604051601f8201601f191681016001600160401b038111828210171562000bb35762000bb362000b22565b604052919050565b80516001600160a01b038116811462000bd357600080fd5b919050565b6000602080838503121562000bec57600080fd5b82516001600160401b038082111562000c0457600080fd5b908401906080828703121562000c1957600080fd5b62000c2362000b38565b62000c2e8362000bbb565b815262000c3d84840162000bbb565b8482015262000c4f6040840162000bbb565b604082015260608301518281111562000c6757600080fd5b80840193505086601f84011262000c7d57600080fd5b82518281111562000c925762000c9262000b22565b8060051b925062000ca585840162000b88565b818152928401850192858101908985111562000cc057600080fd5b948601945b8486101562000ce95762000cd98662000bbb565b8252948601949086019062000cc5565b60608401525090979650505050505050565b634e487b7160e01b600052603260045260246000fd5b60005b8381101562000d2e57818101518382015260200162000d14565b50506000910152565b6000815180845262000d5181602086016020860162000d11565b601f01601f19169290920160200192915050565b60208152600062000d7a602083018462000d37565b9392505050565b60006020828403121562000d9457600080fd5b62000d7a8262000bbb565b7f42617369635368656c6c3a20657874656e73696f6e206e6f7420666f756e643a8152600160fd1b60208201526000825162000de381602185016020870162000d11565b9190910160210192915050565b6001600160a01b038381168252604060208084018290528451918401829052600092858201929091906060860190855b8181101562000e4057855185168352948301949183019160010162000e20565b509098975050505050505050565b805161ffff8116811462000bd357600080fd5b60006040828403121562000e7457600080fd5b62000e7e62000b63565b905062000e8b8262000e4e565b815262000e9b6020830162000e4e565b602082015292915050565b6000602080838503121562000eba57600080fd5b82516001600160401b038082111562000ed257600080fd5b908401906060828703121562000ee757600080fd5b62000ef162000b63565b82518281111562000f0157600080fd5b8301601f8101881362000f1357600080fd5b80518381111562000f285762000f2862000b22565b62000f3c601f8201601f1916870162000b88565b9350808452888682840101111562000f5357600080fd5b62000f648187860188850162000d11565b505081815262000f778785850162000e61565b848201528094505050505092915050565b600181811c9082168062000f9d57607f821691505b60208210810362000fbe57634e487b7160e01b600052602260045260246000fd5b50919050565b601f82111562001014576000816000526020600020601f850160051c8101602086101562000fef5750805b601f850160051c820191505b81811015620010105782815560010162000ffb565b5050505b505050565b81516001600160401b0381111562001035576200103562000b22565b6200104d8162001046845462000f88565b8462000fc4565b602080601f8311600181146200108557600084156200106c5750858301515b600019600386901b1c1916600185901b17855562001010565b600085815260208120601f198616915b82811015620010b65788860151825594840194600190910190840162001095565b5085821015620010d55787850151600019600388901b60f8161c191681555b5050505050600190811b01905550565b60008251620010f981846020870162000d11565b9190910192915050565b60608152600062001118606083018562000d37565b905061ffff808451166020840152806020850151166040840152509392505050565b634e487b7160e01b600052601160045260246000fd5b818103818111156200098f576200098f6200113a565b60ff81811683821601908111156200098f576200098f6200113a565b60805160a051610acc620011a86000396000610174015260006101280152610acc6000f3fe60806040526004361061004e5760003560e01c8063238a03861461007d5780632e1a7d4d146100c457806347d1d09a146100e65780638a85477114610116578063911c2a8c1461016257610055565b3661005557005b600080356001600160e01b0319169050600061007382600036610196565b9050805160208201f35b34801561008957600080fd5b5061009d610098366004610845565b6101ab565b60408051825161ffff90811682526020938401511692810192909252015b60405180910390f35b3480156100d057600080fd5b506100e46100df36600461087a565b61023a565b005b3480156100f257600080fd5b50610106610101366004610893565b6103f7565b60405190151581526020016100bb565b34801561012257600080fd5b5061014a7f000000000000000000000000000000000000000000000000000000000000000081565b6040516001600160a01b0390911681526020016100bb565b34801561016e57600080fd5b5061014a7f000000000000000000000000000000000000000000000000000000000000000081565b60606101a384848461047b565b949350505050565b6040805180820182526000808252602082015290516311c501c360e11b815273__$307c3a572bdf5d9800a89b3fc2eb3d5604$__9063238a0386906101f490859060040161093d565b6040805180830381865af4158015610210573d6000803e3d6000fd5b505050506040513d601f19601f820116820180604052508101906102349190610963565b92915050565b604051630935e01b60e21b815233600482015273__$a5a42e46683ad9c79b7b86d5ff60fdf4c1$__906324d7806c90602401602060405180830381865af4158015610289573d6000803e3d6000fd5b505050506040513d601f19601f820116820180604052508101906102ad91906109c2565b6102fe5760405162461bcd60e51b815260206004820181905260248201527f42617369635368656c6c3a207265737472696374656420746f2061646d696e7360448201526064015b60405180910390fd5b4781111561034e5760405162461bcd60e51b815260206004820181905260248201527f42617369635368656c6c3a20696e73756666696369656e742062616c616e636560448201526064016102f5565b73__$a5a42e46683ad9c79b7b86d5ff60fdf4c1$__638da5cb5b6040518163ffffffff1660e01b8152600401602060405180830381865af4158015610397573d6000803e3d6000fd5b505050506040513d601f19601f820116820180604052508101906103bb91906109e4565b6001600160a01b03166108fc829081150290604051600060405180830381858888f193505050501580156103f3573d6000803e3d6000fd5b5050565b6040516329925a7160e11b815260009073__$307c3a572bdf5d9800a89b3fc2eb3d5604$__90635324b4e2906104339086908690600401610a0d565b602060405180830381865af4158015610450573d6000803e3d6000fd5b505050506040513d601f19601f8201168201806040525081019061047491906109c2565b9392505050565b6060600061048761064a565b6001600160e01b031986166000908152600182016020526040902080549192509061010090046001600160a01b031661051a5760405162461bcd60e51b815260206004820152602f60248201527f4c6962457874656e73696f6e3a206e6f20657874656e73696f6e20737570706f60448201526e393a399033371039b2b632b1ba37b960891b60648201526084016102f5565b805460ff166105765760405162461bcd60e51b815260206004820152602260248201527f4c6962457874656e73696f6e3a2073656c6563746f72206e6f7420656e61626c604482015261195960f21b60648201526084016102f5565b805461010090046001600160a01b03166000908152602083905260409020805460ff166105f15760405162461bcd60e51b815260206004820152602360248201527f4c6962457874656e73696f6e3a20657874656e73696f6e206e6f7420656e61626044820152621b195960ea1b60648201526084016102f5565b8154604080516020601f890181900481028201810190925287815261063f9261010090046001600160a01b03169189908990819084018382808284376000920191909152506106e092505050565b979650505050505050565b60408051808201909152601881527f78722e657874656e73696f6e732e73746f726167652e7631000000000000000060209091015260008060ff6106af60017fb58ec9ca7ba0606d9fecd9f559655d0e5fec418e6751b65b892bccdfd25eb99f610a59565b6040516020016106c191815260200190565b60408051601f1981840301815291905280516020909101201692915050565b6060600080846001600160a01b0316846040516106fd9190610a7a565b600060405180830381855af49150503d8060008114610738576040519150601f19603f3d011682016040523d82523d6000602084013e61073d565b606091505b509150915081156107515791506102349050565b8051156107615780518082602001fd5b60405162461bcd60e51b8152602060048201526016602482015275119d5b98dd1a5bdb8818d85b1b081c995d995c9d195960521b60448201526064016102f5565b634e487b7160e01b600052604160045260246000fd5b600082601f8301126107c957600080fd5b813567ffffffffffffffff808211156107e4576107e46107a2565b604051601f8301601f19908116603f0116810190828211818310171561080c5761080c6107a2565b8160405283815286602085880101111561082557600080fd5b836020870160208301376000602085830101528094505050505092915050565b60006020828403121561085757600080fd5b813567ffffffffffffffff81111561086e57600080fd5b6101a3848285016107b8565b60006020828403121561088c57600080fd5b5035919050565b60008082840360608112156108a757600080fd5b833567ffffffffffffffff8111156108be57600080fd5b6108ca868287016107b8565b9350506040601f19820112156108df57600080fd5b506020830190509250929050565b60005b838110156109085781810151838201526020016108f0565b50506000910152565b600081518084526109298160208601602086016108ed565b601f01601f19169290920160200192915050565b6020815260006104746020830184610911565b61ffff8116811461096057600080fd5b50565b60006040828403121561097557600080fd5b6040516040810181811067ffffffffffffffff82111715610998576109986107a2565b60405282516109a681610950565b815260208301516109b681610950565b60208201529392505050565b6000602082840312156109d457600080fd5b8151801515811461047457600080fd5b6000602082840312156109f657600080fd5b81516001600160a01b038116811461047457600080fd5b606081526000610a206060830185610911565b90508235610a2d81610950565b61ffff808216602085015260208501359150610a4882610950565b808216604085015250509392505050565b8181038181111561023457634e487b7160e01b600052601160045260246000fd5b60008251610a8c8184602087016108ed565b919091019291505056fea2646970667358221220c6d7e562007067bfaec0e3fddaa870265b928b021a251d3365e676e25a1d0f1364736f6c63430008180033",
  "linkReferences": {
    "contracts/libraries/LibAccess.sol": {
      "LibAccess": [
        {
          "length": 20,
          "start": 1058
        },
        {
          "length": 20,
          "start": 5111
        },
        {
          "length": 20,
          "start": 5368
        }
      ]
    },
    "contracts/libraries/LibExtensions.sol": {
      "LibExtensions": [
        {
          "length": 20,
          "start": 4980
        },
        {
          "length": 20,
          "start": 5553
        }
      ]
    }
  },
  "deployedLinkReferences": {
    "contracts/libraries/LibAccess.sol": {
      "LibAccess": [
        {
          "length": 20,
          "start": 591
        },
        {
          "length": 20,
          "start": 848
        }
      ]
    },
    "contracts/libraries/LibExtensions.sol": {
      "LibExtensions": [
        {
          "length": 20,
          "start": 460
        },
        {
          "length": 20,
          "start": 1033
        }
      ]
    }
  }
}