{
  "_format": "hh-sol-artifact-1",
  "contractName": "BasicEntityExt",
  "sourceName": "contracts/entity/extensions/basic-entity/BasicEntityExt.sol",
  "abi": [
    {
      "inputs": [
        {
          "internalType": "bytes32",
          "name": "role",
          "type": "bytes32"
        },
        {
          "internalType": "address",
          "name": "account",
          "type": "address"
        }
      ],
      "name": "hasRole",
      "outputs": [
        {
          "internalType": "bool",
          "name": "",
          "type": "bool"
        }
      ],
      "stateMutability": "view",
      "type": "function"
    },
    {
      "inputs": [
        {
          "internalType": "address",
          "name": "",
          "type": "address"
        },
        {
          "internalType": "string",
          "name": "",
          "type": "string"
        },
        {
          "internalType": "bytes",
          "name": "",
          "type": "bytes"
        }
      ],
      "name": "init",
      "outputs": [],
      "stateMutability": "pure",
      "type": "function"
    },
    {
      "inputs": [
        {
          "internalType": "address",
          "name": "",
          "type": "address"
        },
        {
          "internalType": "string",
          "name": "_name",
          "type": "string"
        },
        {
          "internalType": "uint256",
          "name": "_version",
          "type": "uint256"
        },
        {
          "internalType": "bytes",
          "name": "",
          "type": "bytes"
        }
      ],
      "name": "initStorage",
      "outputs": [],
      "stateMutability": "nonpayable",
      "type": "function"
    },
    {
      "inputs": [
        {
          "internalType": "address",
          "name": "myAddress",
          "type": "address"
        }
      ],
      "name": "install",
      "outputs": [],
      "stateMutability": "nonpayable",
      "type": "function"
    },
    {
      "inputs": [
        {
          "internalType": "address",
          "name": "",
          "type": "address"
        }
      ],
      "name": "isSigner",
      "outputs": [
        {
          "internalType": "bool",
          "name": "",
          "type": "bool"
        }
      ],
      "stateMutability": "pure",
      "type": "function"
    },
    {
      "inputs": [
        {
          "internalType": "address",
          "name": "",
          "type": "address"
        }
      ],
      "name": "isYourFactory",
      "outputs": [
        {
          "internalType": "bool",
          "name": "",
          "type": "bool"
        }
      ],
      "stateMutability": "pure",
      "type": "function"
    },
    {
      "inputs": [],
      "name": "metadata",
      "outputs": [
        {
          "components": [
            {
              "internalType": "string",
              "name": "name",
              "type": "string"
            },
            {
              "internalType": "uint256",
              "name": "version",
              "type": "uint256"
            }
          ],
          "internalType": "struct ExtensionMetadata",
          "name": "",
          "type": "tuple"
        }
      ],
      "stateMutability": "pure",
      "type": "function"
    },
    {
      "inputs": [],
      "name": "name",
      "outputs": [
        {
          "internalType": "string",
          "name": "",
          "type": "string"
        }
      ],
      "stateMutability": "view",
      "type": "function"
    },
    {
      "inputs": [
        {
          "internalType": "address",
          "name": "myAddress",
          "type": "address"
        },
        {
          "internalType": "uint256",
          "name": "currentVersion",
          "type": "uint256"
        }
      ],
      "name": "upgrade",
      "outputs": [],
      "stateMutability": "nonpayable",
      "type": "function"
    },
    {
      "inputs": [],
      "name": "version",
      "outputs": [
        {
          "internalType": "uint256",
          "name": "",
          "type": "uint256"
        }
      ],
      "stateMutability": "view",
      "type": "function"
    }
  ],
  "bytecode": "0x608060405234801561001057600080fd5b50610caf806100206000396000f3fe608060405234801561001057600080fd5b506004361061009e5760003560e01c80635efefd54116100665780635efefd541461017a5780637df73e271461018d57806391d14854146101a05780639dcaea8d146101b3578063e0622b27146101c657600080fd5b806306fdde03146100a3578063109462f9146100c15780632a1b8f9b146100e4578063392f37e9146100f957806354fd4d5014610164575b600080fd5b6100ab6101d8565b6040516100b89190610818565b60405180910390f35b6100d46100cf366004610847565b610273565b60405190151581526020016100b8565b6100f76100f2366004610847565b6102d9565b005b610157604080518082019091526060815260006020820152506040805160808101825260189181019182527f78722e656e746974792e4261736963456e74697479457874000000000000000060608201529081526001602082015290565b6040516100b89190610862565b61016c6104f9565b6040519081526020016100b8565b6100f76101883660046108dd565b61050c565b6100d461019b366004610847565b610606565b6100d46101ae366004610967565b610662565b6100f76101c1366004610993565b6106f1565b6100f76101d4366004610a14565b5050565b60606101e2610745565b60010180546101f090610a3e565b80601f016020809104026020016040519081016040528092919081815260200182805461021c90610a3e565b80156102695780601f1061023e57610100808354040283529160200191610269565b820191906000526020600020905b81548152906001019060200180831161024c57829003601f168201915b5050505050905090565b60405162461bcd60e51b815260206004820152602d60248201527f4261736963456e746974794578743a206973596f7572466163746f7279206e6f60448201526c1d081a5b5c1b195b595b9d1959609a1b60648201526000906084015b60405180910390fd5b60408051600580825260c08201909252600091816020015b60408051808201909152600080825260208201528152602001906001900390816102f15750506040805180820190915260008082526306fdde0360e01b60208301528251929350909183919061034957610349610a8e565b602002602001018190525060405180604001604052806000151581526020016354fd4d5060e01b6001600160e01b0319168152508160018151811061039057610390610a8e565b60200260200101819052506040518060400160405280600115158152602001639dcaea8d60e01b6001600160e01b031916815250816002815181106103d7576103d7610a8e565b60200260200101819052506040518060400160405280600115158152602001637df73e2760e01b6001600160e01b0319168152508160038151811061041e5761041e610a8e565b6020026020010181905250604051806040016040528060011515815260200163109462f960e01b6001600160e01b0319168152508160048151811061046557610465610a8e565b6020908102919091018101919091526040805180820182526001600160a01b038516815291820183905251630964d13f60e41b815273__$873ca04b9e3da3ca7cba95b77f569299f5$__9063964d13f0906104c4908490600401610aa4565b60006040518083038186803b1580156104dc57600080fd5b505af41580156104f0573d6000803e3d6000fd5b50505050505050565b6000610503610745565b60020154905090565b6000610516610745565b905080600101805461052790610a3e565b1590506105825760405162461bcd60e51b815260206004820152602360248201527f4261736963456e746974794578743a20616c726561647920696e697469616c696044820152621e995960ea1b60648201526084016102d0565b846105db5760405162461bcd60e51b8152602060048201526024808201527f4261736963456e746974794578743a206e616d652063616e6e6f7420626520656044820152636d70747960e01b60648201526084016102d0565b600181016105ea868883610b6e565b5060028101939093555050805461ffff19166001179055505050565b60405162461bcd60e51b815260206004820152602860248201527f4261736963456e746974794578743a2069735369676e6572206e6f7420696d706044820152671b195b595b9d195960c21b60648201526000906084016102d0565b604051632474521560e21b8152600481018390526001600160a01b038216602482015260009073__$a603c36e8140f8f0796c2626c9f8eff514$__906391d1485490604401602060405180830381865af41580156106c4573d6000803e3d6000fd5b505050506040513d601f19601f820116820180604052508101906106e89190610c2f565b90505b92915050565b60405162461bcd60e51b8152602060048201526024808201527f4261736963456e746974794578743a20696e6974206e6f7420696d706c656d656044820152631b9d195960e21b60648201526084016102d0565b60408051808201909152601481527378722e656e746974792e76312e73746f7261676560601b60209091015260008060ff6107a160017f84ac6d389319b31dfa7e40b43a93bfd20be6d560d5d23ad6fb0131d161f3e470610c58565b6040516020016107b391815260200190565b60408051601f1981840301815291905280516020909101201692915050565b6000815180845260005b818110156107f8576020818501810151868301820152016107dc565b506000602082860101526020601f19601f83011685010191505092915050565b6020815260006106e860208301846107d2565b80356001600160a01b038116811461084257600080fd5b919050565b60006020828403121561085957600080fd5b6106e88261082b565b60208152600082516040602084015261087e60608401826107d2565b9050602084015160408401528091505092915050565b60008083601f8401126108a657600080fd5b50813567ffffffffffffffff8111156108be57600080fd5b6020830191508360208285010111156108d657600080fd5b9250929050565b600080600080600080608087890312156108f657600080fd5b6108ff8761082b565b9550602087013567ffffffffffffffff8082111561091c57600080fd5b6109288a838b01610894565b909750955060408901359450606089013591508082111561094857600080fd5b5061095589828a01610894565b979a9699509497509295939492505050565b6000806040838503121561097a57600080fd5b8235915061098a6020840161082b565b90509250929050565b6000806000806000606086880312156109ab57600080fd5b6109b48661082b565b9450602086013567ffffffffffffffff808211156109d157600080fd5b6109dd89838a01610894565b909650945060408801359150808211156109f657600080fd5b50610a0388828901610894565b969995985093965092949392505050565b60008060408385031215610a2757600080fd5b610a308361082b565b946020939093013593505050565b600181811c90821680610a5257607f821691505b602082108103610a7257634e487b7160e01b600052602260045260246000fd5b50919050565b634e487b7160e01b600052604160045260246000fd5b634e487b7160e01b600052603260045260246000fd5b602080825282516001600160a01b03168282015282810151604080840181905281516060850181905260009392830191849160808701905b80841015610b115784518051151583528601516001600160e01b03191686830152938501936001939093019290820190610adc565b50979650505050505050565b601f821115610b69576000816000526020600020601f850160051c81016020861015610b465750805b601f850160051c820191505b81811015610b6557828155600101610b52565b5050505b505050565b67ffffffffffffffff831115610b8657610b86610a78565b610b9a83610b948354610a3e565b83610b1d565b6000601f841160018114610bce5760008515610bb65750838201355b600019600387901b1c1916600186901b178355610c28565b600083815260209020601f19861690835b82811015610bff5786850135825560209485019460019092019101610bdf565b5086821015610c1c5760001960f88860031b161c19848701351681555b505060018560011b0183555b5050505050565b600060208284031215610c4157600080fd5b81518015158114610c5157600080fd5b9392505050565b818103818111156106eb57634e487b7160e01b600052601160045260246000fdfea26469706673582212200f6e16fe253dad58286ec7726840ded841fa1fe7a3bc1c9d863aedbebf7b1b2664736f6c63430008180033",
  "linkReferences": {
    "contracts/core/LibAccess.sol": {
      "LibAccess": [
        {
          "length": 20,
          "start": 1706
        }
      ]
    },
    "contracts/core/LibExtensions.sol": {
      "LibExtensions": [
        {
          "length": 20,
          "start": 1212
        }
      ]
    }
  },
  "deployedLinkReferences": {
    "contracts/core/LibAccess.sol": {
      "LibAccess": [
        {
          "length": 20,
          "start": 1674
        }
      ]
    },
    "contracts/core/LibExtensions.sol": {
      "LibExtensions": [
        {
          "length": 20,
          "start": 1180
        }
      ]
    }
  }
}