{
  "_format": "hh-sol-artifact-1",
  "contractName": "CompanyRegistry",
  "sourceName": "contracts/company/registry/CompanyRegistry.sol",
  "abi": [
    {
      "inputs": [
        {
          "components": [
            {
              "internalType": "address",
              "name": "owner",
              "type": "address"
            },
            {
              "internalType": "address",
              "name": "extensionsRegistry",
              "type": "address"
            },
            {
              "internalType": "address",
              "name": "worldRegistry",
              "type": "address"
            },
            {
              "internalType": "address[]",
              "name": "admins",
              "type": "address[]"
            }
          ],
          "internalType": "struct CompanyRegistryConstructorArgs",
          "name": "args",
          "type": "tuple"
        }
      ],
      "stateMutability": "nonpayable",
      "type": "constructor"
    },
    {
      "anonymous": false,
      "inputs": [
        {
          "indexed": false,
          "internalType": "string",
          "name": "name",
          "type": "string"
        }
      ],
      "name": "ExtensionDisabled",
      "type": "event"
    },
    {
      "anonymous": false,
      "inputs": [
        {
          "indexed": false,
          "internalType": "string",
          "name": "name",
          "type": "string"
        }
      ],
      "name": "ExtensionEnabled",
      "type": "event"
    },
    {
      "anonymous": false,
      "inputs": [
        {
          "indexed": false,
          "internalType": "string",
          "name": "name",
          "type": "string"
        },
        {
          "components": [
            {
              "internalType": "uint16",
              "name": "major",
              "type": "uint16"
            },
            {
              "internalType": "uint16",
              "name": "minor",
              "type": "uint16"
            }
          ],
          "indexed": false,
          "internalType": "struct Version",
          "name": "version",
          "type": "tuple"
        }
      ],
      "name": "ExtensionInstalled",
      "type": "event"
    },
    {
      "anonymous": false,
      "inputs": [
        {
          "indexed": false,
          "internalType": "string",
          "name": "name",
          "type": "string"
        },
        {
          "components": [
            {
              "internalType": "uint16",
              "name": "major",
              "type": "uint16"
            },
            {
              "internalType": "uint16",
              "name": "minor",
              "type": "uint16"
            }
          ],
          "indexed": false,
          "internalType": "struct Version",
          "name": "version",
          "type": "tuple"
        }
      ],
      "name": "ExtensionRolledBack",
      "type": "event"
    },
    {
      "anonymous": false,
      "inputs": [
        {
          "indexed": false,
          "internalType": "string",
          "name": "name",
          "type": "string"
        },
        {
          "components": [
            {
              "internalType": "uint16",
              "name": "major",
              "type": "uint16"
            },
            {
              "internalType": "uint16",
              "name": "minor",
              "type": "uint16"
            }
          ],
          "indexed": false,
          "internalType": "struct Version",
          "name": "version",
          "type": "tuple"
        }
      ],
      "name": "ExtensionUpgraded",
      "type": "event"
    },
    {
      "anonymous": false,
      "inputs": [
        {
          "indexed": false,
          "internalType": "bytes4",
          "name": "selector",
          "type": "bytes4"
        }
      ],
      "name": "SelectorDisabled",
      "type": "event"
    },
    {
      "anonymous": false,
      "inputs": [
        {
          "indexed": false,
          "internalType": "bytes4",
          "name": "selector",
          "type": "bytes4"
        }
      ],
      "name": "SelectorEnabled",
      "type": "event"
    },
    {
      "stateMutability": "payable",
      "type": "fallback"
    },
    {
      "inputs": [],
      "name": "extRegistry",
      "outputs": [
        {
          "internalType": "contract ICoreExtensionRegistry",
          "name": "",
          "type": "address"
        }
      ],
      "stateMutability": "view",
      "type": "function"
    },
    {
      "inputs": [
        {
          "internalType": "string",
          "name": "name",
          "type": "string"
        }
      ],
      "name": "getExtensionVersion",
      "outputs": [
        {
          "components": [
            {
              "internalType": "uint16",
              "name": "major",
              "type": "uint16"
            },
            {
              "internalType": "uint16",
              "name": "minor",
              "type": "uint16"
            }
          ],
          "internalType": "struct Version",
          "name": "",
          "type": "tuple"
        }
      ],
      "stateMutability": "view",
      "type": "function"
    },
    {
      "inputs": [
        {
          "internalType": "string",
          "name": "name",
          "type": "string"
        },
        {
          "components": [
            {
              "internalType": "uint16",
              "name": "major",
              "type": "uint16"
            },
            {
              "internalType": "uint16",
              "name": "minor",
              "type": "uint16"
            }
          ],
          "internalType": "struct Version",
          "name": "version",
          "type": "tuple"
        }
      ],
      "name": "hasExtension",
      "outputs": [
        {
          "internalType": "bool",
          "name": "",
          "type": "bool"
        }
      ],
      "stateMutability": "view",
      "type": "function"
    },
    {
      "inputs": [
        {
          "internalType": "uint256",
          "name": "amount",
          "type": "uint256"
        }
      ],
      "name": "withdraw",
      "outputs": [],
      "stateMutability": "nonpayable",
      "type": "function"
    },
    {
      "inputs": [],
      "name": "worldRegistry",
      "outputs": [
        {
          "internalType": "address",
          "name": "",
          "type": "address"
        }
      ],
      "stateMutability": "view",
      "type": "function"
    },
    {
      "stateMutability": "payable",
      "type": "receive"
    }
  ],
  "bytecode": "0x60c06040523480156200001157600080fd5b5060405162001cc138038062001cc1833981016040819052620000349162000c25565b60208101516001600160a01b038116620000bb5760405162461bcd60e51b815260206004820152603560248201527f42617369635368656c6c3a20657874656e73696f6e207265676973747279206360448201527f616e6e6f74206265207a65726f2061646472657373000000000000000000000060648201526084015b60405180910390fd5b6001600160a01b03908116608052604082015116620001435760405162461bcd60e51b815260206004820152603560248201527f436f6d70616e7952656769737472793a20776f726c645265676973747279206360448201527f616e6e6f74206265207a65726f206164647265737300000000000000000000006064820152608401620000b2565b6040818101516001600160a01b031660a09081528151600480825291810190925260009190816020015b60608152602001906001900390816200016d579050509050604051806040016040528060098152602001681058d8d95cdcd15e1d60ba1b81525081600081518110620001bd57620001bd62000d48565b60200260200101819052506040518060400160405280600a815260200169119858dd1bdc9e515e1d60b21b8152508160018151811062000201576200020162000d48565b60200260200101819052506040518060400160405280601681526020017f436f6d70616e79526567697374726174696f6e457874000000000000000000008152508160028151811062000258576200025862000d48565b60200260200101819052506040518060400160405280601181526020017010dbdb5c185b9e54995b5bdd985b115e1d607a1b81525081600381518110620002a357620002a362000d48565b60200260200101819052506000604051806060016040528084600001516001600160a01b0316815260200184606001518152602001838152509050620002ef81620002f860201b60201c565b505050620011cf565b60005b81604001515181101562000458578160400151818151811062000322576200032262000d48565b602002602001015151600003156200044f5760006080516001600160a01b031663c22707ee8460400151848151811062000360576200036062000d48565b60200260200101516040518263ffffffff1660e01b815260040162000386919062000db2565b602060405180830381865afa158015620003a4573d6000803e3d6000fd5b505050506040513d601f19601f82011682018060405250810190620003ca919062000dce565b9050600083604001518381518110620003e757620003e762000d48565b602002602001015160405160200162000401919062000dec565b60408051601f198184030181529190529050806001600160a01b0383166200043e5760405162461bcd60e51b8152600401620000b2919062000db2565b50816200044b81620004cc565b5050505b600101620002fb565b508051602082015160405163d9ac971f60e01b815273__$a5a42e46683ad9c79b7b86d5ff60fdf4c1$__9263d9ac971f92620004979260040162000e3d565b60006040518083038186803b158015620004b057600080fd5b505af4158015620004c5573d6000803e3d6000fd5b5050505050565b6000620004d862000872565b90506040518060800160405280600115158152602001836001600160a01b031663392f37e96040518163ffffffff1660e01b8152600401600060405180830381865afa1580156200052d573d6000803e3d6000fd5b505050506040513d6000823e601f3d908101601f1916820160405262000557919081019062000ef3565b81526001600160a01b0384166020820152604001600060405190808252806020026020018201604052801562000597578160200160208202803683370190505b5090526001600160a01b0383166000908152602083815260409091208251815460ff191690151517815590820151805160018301908190620005da908262001066565b506020918201518051600190920180549184015161ffff908116620100000263ffffffff1990931693169290921717905560408301516003830180546001600160a01b039092166001600160a01b0319909216919091179055606083015180516200064c926004850192019062000aaf565b50505060038101805460018101825560009182526020918290200180546001600160a01b0319166001600160a01b038516908117909155604080516024808201939093528151808203909301835260440190529081018051632a1b8f9b60e01b6001600160e01b0391821617909152620006cb90849083906200090b16565b506000836001600160a01b031663392f37e96040518163ffffffff1660e01b8152600401600060405180830381865afa1580156200070d573d6000803e3d6000fd5b505050506040513d6000823e601f3d908101601f1916820160405262000737919081019062000ef3565b80519091506000906200074a90620009e2565b905060006001600160a01b031684600201826040516200076b919062001132565b908152604051908190036020019020546001600160a01b031614620007e55760405162461bcd60e51b815260206004820152602960248201527f4c6962457874656e73696f6e3a20657874656e73696f6e20616c7265616479206044820152681a5b9cdd185b1b195960ba1b6064820152608401620000b2565b848460020182604051620007fa919062001132565b908152602001604051809103902060006101000a8154816001600160a01b0302191690836001600160a01b031602179055507ffe9a3a52d7e1a3740350821816e344a482f9611bc09285fa4132de9645b41bae8183602001516040516200086392919062001150565b60405180910390a15050505050565b60408051808201909152601881527f78722e657874656e73696f6e732e73746f726167652e7631000000000000000060209091015260008060ff620008d960017fb58ec9ca7ba0606d9fecd9f559655d0e5fec418e6751b65b892bccdfd25eb99f6200119d565b604051602001620008ec91815260200190565b60408051601f1981840301815291905280516020909101201692915050565b6060600080846001600160a01b0316846040516200092a919062001132565b600060405180830381855af49150503d806000811462000967576040519150601f19603f3d011682016040523d82523d6000602084013e6200096c565b606091505b5091509150811562000982579150620009dc9050565b805115620009935780518082602001fd5b60405162461bcd60e51b815260206004820152601660248201527f46756e6374696f6e2063616c6c207265766572746564000000000000000000006044820152606401620000b2565b92915050565b60608160005b815181101562000a555762000a2082828151811062000a0b5762000a0b62000d48565b01602001516001600160f81b03191662000a5c565b82828151811062000a355762000a3562000d48565b60200101906001600160f81b031916908160001a905350600101620009e8565b5092915050565b6000604160f81b6001600160f81b031983161080159062000a8b5750602d60f91b6001600160f81b0319831611155b1562000aab5762000aa260f883901c6020620011b3565b60f81b92915050565b5090565b8280548282559060005260206000209060070160089004810192821562000b505791602002820160005b8382111562000b1c57835183826101000a81548163ffffffff021916908360e01c0217905550926020019260040160208160030104928301926001030262000ad9565b801562000b4e5782816101000a81549063ffffffff021916905560040160208160030104928301926001030262000b1c565b505b5062000aab9291505b8082111562000aab576000815560010162000b59565b634e487b7160e01b600052604160045260246000fd5b604051608081016001600160401b038111828210171562000baa5762000baa62000b6f565b60405290565b604080519081016001600160401b038111828210171562000baa5762000baa62000b6f565b604051601f8201601f191681016001600160401b038111828210171562000c005762000c0062000b6f565b604052919050565b80516001600160a01b038116811462000c2057600080fd5b919050565b6000602080838503121562000c3957600080fd5b82516001600160401b038082111562000c5157600080fd5b908401906080828703121562000c6657600080fd5b62000c7062000b85565b62000c7b8362000c08565b815262000c8a84840162000c08565b8482015262000c9c6040840162000c08565b604082015260608301518281111562000cb457600080fd5b80840193505086601f84011262000cca57600080fd5b82518281111562000cdf5762000cdf62000b6f565b8060051b925062000cf285840162000bd5565b818152928401850192858101908985111562000d0d57600080fd5b948601945b8486101562000d365762000d268662000c08565b8252948601949086019062000d12565b60608401525090979650505050505050565b634e487b7160e01b600052603260045260246000fd5b60005b8381101562000d7b57818101518382015260200162000d61565b50506000910152565b6000815180845262000d9e81602086016020860162000d5e565b601f01601f19169290920160200192915050565b60208152600062000dc7602083018462000d84565b9392505050565b60006020828403121562000de157600080fd5b62000dc78262000c08565b7f42617369635368656c6c3a20657874656e73696f6e206e6f7420666f756e643a8152600160fd1b60208201526000825162000e3081602185016020870162000d5e565b9190910160210192915050565b6001600160a01b038381168252604060208084018290528451918401829052600092858201929091906060860190855b8181101562000e8d57855185168352948301949183019160010162000e6d565b509098975050505050505050565b805161ffff8116811462000c2057600080fd5b60006040828403121562000ec157600080fd5b62000ecb62000bb0565b905062000ed88262000e9b565b815262000ee86020830162000e9b565b602082015292915050565b6000602080838503121562000f0757600080fd5b82516001600160401b038082111562000f1f57600080fd5b908401906060828703121562000f3457600080fd5b62000f3e62000bb0565b82518281111562000f4e57600080fd5b8301601f8101881362000f6057600080fd5b80518381111562000f755762000f7562000b6f565b62000f89601f8201601f1916870162000bd5565b9350808452888682840101111562000fa057600080fd5b62000fb18187860188850162000d5e565b505081815262000fc48785850162000eae565b848201528094505050505092915050565b600181811c9082168062000fea57607f821691505b6020821081036200100b57634e487b7160e01b600052602260045260246000fd5b50919050565b601f82111562001061576000816000526020600020601f850160051c810160208610156200103c5750805b601f850160051c820191505b818110156200105d5782815560010162001048565b5050505b505050565b81516001600160401b0381111562001082576200108262000b6f565b6200109a8162001093845462000fd5565b8462001011565b602080601f831160018114620010d25760008415620010b95750858301515b600019600386901b1c1916600185901b1785556200105d565b600085815260208120601f198616915b828110156200110357888601518255948401946001909101908401620010e2565b5085821015620011225787850151600019600388901b60f8161c191681555b5050505050600190811b01905550565b600082516200114681846020870162000d5e565b9190910192915050565b60608152600062001165606083018562000d84565b905061ffff808451166020840152806020850151166040840152509392505050565b634e487b7160e01b600052601160045260246000fd5b81810381811115620009dc57620009dc62001187565b60ff8181168382160190811115620009dc57620009dc62001187565b60805160a051610acc620011f56000396000610174015260006101280152610acc6000f3fe60806040526004361061004e5760003560e01c8063238a03861461007d5780632e1a7d4d146100c457806347d1d09a146100e65780638a85477114610116578063911c2a8c1461016257610055565b3661005557005b600080356001600160e01b0319169050600061007382600036610196565b9050805160208201f35b34801561008957600080fd5b5061009d610098366004610845565b6101ab565b60408051825161ffff90811682526020938401511692810192909252015b60405180910390f35b3480156100d057600080fd5b506100e46100df36600461087a565b61023a565b005b3480156100f257600080fd5b50610106610101366004610893565b6103f7565b60405190151581526020016100bb565b34801561012257600080fd5b5061014a7f000000000000000000000000000000000000000000000000000000000000000081565b6040516001600160a01b0390911681526020016100bb565b34801561016e57600080fd5b5061014a7f000000000000000000000000000000000000000000000000000000000000000081565b60606101a384848461047b565b949350505050565b6040805180820182526000808252602082015290516311c501c360e11b815273__$307c3a572bdf5d9800a89b3fc2eb3d5604$__9063238a0386906101f490859060040161093d565b6040805180830381865af4158015610210573d6000803e3d6000fd5b505050506040513d601f19601f820116820180604052508101906102349190610963565b92915050565b604051630935e01b60e21b815233600482015273__$a5a42e46683ad9c79b7b86d5ff60fdf4c1$__906324d7806c90602401602060405180830381865af4158015610289573d6000803e3d6000fd5b505050506040513d601f19601f820116820180604052508101906102ad91906109c2565b6102fe5760405162461bcd60e51b815260206004820181905260248201527f42617369635368656c6c3a207265737472696374656420746f2061646d696e7360448201526064015b60405180910390fd5b4781111561034e5760405162461bcd60e51b815260206004820181905260248201527f42617369635368656c6c3a20696e73756666696369656e742062616c616e636560448201526064016102f5565b73__$a5a42e46683ad9c79b7b86d5ff60fdf4c1$__638da5cb5b6040518163ffffffff1660e01b8152600401602060405180830381865af4158015610397573d6000803e3d6000fd5b505050506040513d601f19601f820116820180604052508101906103bb91906109e4565b6001600160a01b03166108fc829081150290604051600060405180830381858888f193505050501580156103f3573d6000803e3d6000fd5b5050565b6040516329925a7160e11b815260009073__$307c3a572bdf5d9800a89b3fc2eb3d5604$__90635324b4e2906104339086908690600401610a0d565b602060405180830381865af4158015610450573d6000803e3d6000fd5b505050506040513d601f19601f8201168201806040525081019061047491906109c2565b9392505050565b6060600061048761064a565b6001600160e01b031986166000908152600182016020526040902080549192509061010090046001600160a01b031661051a5760405162461bcd60e51b815260206004820152602f60248201527f4c6962457874656e73696f6e3a206e6f20657874656e73696f6e20737570706f60448201526e393a399033371039b2b632b1ba37b960891b60648201526084016102f5565b805460ff166105765760405162461bcd60e51b815260206004820152602260248201527f4c6962457874656e73696f6e3a2073656c6563746f72206e6f7420656e61626c604482015261195960f21b60648201526084016102f5565b805461010090046001600160a01b03166000908152602083905260409020805460ff166105f15760405162461bcd60e51b815260206004820152602360248201527f4c6962457874656e73696f6e3a20657874656e73696f6e206e6f7420656e61626044820152621b195960ea1b60648201526084016102f5565b8154604080516020601f890181900481028201810190925287815261063f9261010090046001600160a01b03169189908990819084018382808284376000920191909152506106e092505050565b979650505050505050565b60408051808201909152601881527f78722e657874656e73696f6e732e73746f726167652e7631000000000000000060209091015260008060ff6106af60017fb58ec9ca7ba0606d9fecd9f559655d0e5fec418e6751b65b892bccdfd25eb99f610a59565b6040516020016106c191815260200190565b60408051601f1981840301815291905280516020909101201692915050565b6060600080846001600160a01b0316846040516106fd9190610a7a565b600060405180830381855af49150503d8060008114610738576040519150601f19603f3d011682016040523d82523d6000602084013e61073d565b606091505b509150915081156107515791506102349050565b8051156107615780518082602001fd5b60405162461bcd60e51b8152602060048201526016602482015275119d5b98dd1a5bdb8818d85b1b081c995d995c9d195960521b60448201526064016102f5565b634e487b7160e01b600052604160045260246000fd5b600082601f8301126107c957600080fd5b813567ffffffffffffffff808211156107e4576107e46107a2565b604051601f8301601f19908116603f0116810190828211818310171561080c5761080c6107a2565b8160405283815286602085880101111561082557600080fd5b836020870160208301376000602085830101528094505050505092915050565b60006020828403121561085757600080fd5b813567ffffffffffffffff81111561086e57600080fd5b6101a3848285016107b8565b60006020828403121561088c57600080fd5b5035919050565b60008082840360608112156108a757600080fd5b833567ffffffffffffffff8111156108be57600080fd5b6108ca868287016107b8565b9350506040601f19820112156108df57600080fd5b506020830190509250929050565b60005b838110156109085781810151838201526020016108f0565b50506000910152565b600081518084526109298160208601602086016108ed565b601f01601f19169290920160200192915050565b6020815260006104746020830184610911565b61ffff8116811461096057600080fd5b50565b60006040828403121561097557600080fd5b6040516040810181811067ffffffffffffffff82111715610998576109986107a2565b60405282516109a681610950565b815260208301516109b681610950565b60208201529392505050565b6000602082840312156109d457600080fd5b8151801515811461047457600080fd5b6000602082840312156109f657600080fd5b81516001600160a01b038116811461047457600080fd5b606081526000610a206060830185610911565b90508235610a2d81610950565b61ffff808216602085015260208501359150610a4882610950565b808216604085015250509392505050565b8181038181111561023457634e487b7160e01b600052601160045260246000fd5b60008251610a8c8184602087016108ed565b919091019291505056fea264697066735822122057429c6b112344dcf8fea7f5bede7d1375c60be008d1f1b9982d79a4db72a7ad64736f6c63430008180033",
  "linkReferences": {
    "contracts/libraries/LibAccess.sol": {
      "LibAccess": [
        {
          "length": 20,
          "start": 1135
        },
        {
          "length": 20,
          "start": 5188
        },
        {
          "length": 20,
          "start": 5445
        }
      ]
    },
    "contracts/libraries/LibExtensions.sol": {
      "LibExtensions": [
        {
          "length": 20,
          "start": 5057
        },
        {
          "length": 20,
          "start": 5630
        }
      ]
    }
  },
  "deployedLinkReferences": {
    "contracts/libraries/LibAccess.sol": {
      "LibAccess": [
        {
          "length": 20,
          "start": 591
        },
        {
          "length": 20,
          "start": 848
        }
      ]
    },
    "contracts/libraries/LibExtensions.sol": {
      "LibExtensions": [
        {
          "length": 20,
          "start": 460
        },
        {
          "length": 20,
          "start": 1033
        }
      ]
    }
  }
}