{
  "_format": "hh-sol-artifact-1",
  "contractName": "ControllerChangeExt",
  "sourceName": "contracts/registry/extensions/controller-change/ControllerChangeExt.sol",
  "abi": [
    {
      "inputs": [],
      "name": "ECDSAInvalidSignature",
      "type": "error"
    },
    {
      "inputs": [
        {
          "internalType": "uint256",
          "name": "length",
          "type": "uint256"
        }
      ],
      "name": "ECDSAInvalidSignatureLength",
      "type": "error"
    },
    {
      "inputs": [
        {
          "internalType": "bytes32",
          "name": "s",
          "type": "bytes32"
        }
      ],
      "name": "ECDSAInvalidSignatureS",
      "type": "error"
    },
    {
      "anonymous": false,
      "inputs": [
        {
          "indexed": true,
          "internalType": "address",
          "name": "entity",
          "type": "address"
        },
        {
          "indexed": true,
          "internalType": "address",
          "name": "newController",
          "type": "address"
        }
      ],
      "name": "ControllerChanged",
      "type": "event"
    },
    {
      "inputs": [],
      "name": "DAY",
      "outputs": [
        {
          "internalType": "uint256",
          "name": "",
          "type": "uint256"
        }
      ],
      "stateMutability": "view",
      "type": "function"
    },
    {
      "inputs": [
        {
          "components": [
            {
              "internalType": "address",
              "name": "entity",
              "type": "address"
            },
            {
              "internalType": "bytes",
              "name": "oldControllerSignature",
              "type": "bytes"
            },
            {
              "internalType": "bytes",
              "name": "entitySignature",
              "type": "bytes"
            },
            {
              "internalType": "uint256",
              "name": "expiration",
              "type": "uint256"
            }
          ],
          "internalType": "struct ChangeControllerArgsNoTerms",
          "name": "args",
          "type": "tuple"
        }
      ],
      "name": "changeControllerNoTerms",
      "outputs": [],
      "stateMutability": "nonpayable",
      "type": "function"
    },
    {
      "inputs": [
        {
          "components": [
            {
              "internalType": "address",
              "name": "entity",
              "type": "address"
            },
            {
              "internalType": "bytes",
              "name": "oldControllerSignature",
              "type": "bytes"
            },
            {
              "internalType": "bytes",
              "name": "entitySignature",
              "type": "bytes"
            },
            {
              "internalType": "uint256",
              "name": "expiration",
              "type": "uint256"
            },
            {
              "components": [
                {
                  "internalType": "uint256",
                  "name": "fee",
                  "type": "uint256"
                },
                {
                  "internalType": "uint256",
                  "name": "coveragePeriodDays",
                  "type": "uint256"
                },
                {
                  "internalType": "uint256",
                  "name": "gracePeriodDays",
                  "type": "uint256"
                }
              ],
              "internalType": "struct RegistrationTerms",
              "name": "terms",
              "type": "tuple"
            }
          ],
          "internalType": "struct ChangeControllerArgsWithTerms",
          "name": "args",
          "type": "tuple"
        }
      ],
      "name": "changeControllerWithTerms",
      "outputs": [],
      "stateMutability": "nonpayable",
      "type": "function"
    },
    {
      "inputs": [
        {
          "internalType": "bytes32",
          "name": "role",
          "type": "bytes32"
        },
        {
          "internalType": "address",
          "name": "account",
          "type": "address"
        }
      ],
      "name": "hasRole",
      "outputs": [
        {
          "internalType": "bool",
          "name": "",
          "type": "bool"
        }
      ],
      "stateMutability": "view",
      "type": "function"
    },
    {
      "inputs": [
        {
          "internalType": "address",
          "name": "",
          "type": "address"
        },
        {
          "internalType": "string",
          "name": "",
          "type": "string"
        },
        {
          "internalType": "uint256",
          "name": "",
          "type": "uint256"
        },
        {
          "internalType": "bytes",
          "name": "",
          "type": "bytes"
        }
      ],
      "name": "initStorage",
      "outputs": [],
      "stateMutability": "nonpayable",
      "type": "function"
    },
    {
      "inputs": [
        {
          "internalType": "address",
          "name": "myAddress",
          "type": "address"
        }
      ],
      "name": "install",
      "outputs": [],
      "stateMutability": "nonpayable",
      "type": "function"
    },
    {
      "inputs": [],
      "name": "metadata",
      "outputs": [
        {
          "components": [
            {
              "internalType": "string",
              "name": "name",
              "type": "string"
            },
            {
              "internalType": "uint256",
              "name": "version",
              "type": "uint256"
            }
          ],
          "internalType": "struct ExtensionMetadata",
          "name": "",
          "type": "tuple"
        }
      ],
      "stateMutability": "pure",
      "type": "function"
    },
    {
      "inputs": [
        {
          "internalType": "address",
          "name": "myAddress",
          "type": "address"
        },
        {
          "internalType": "uint256",
          "name": "currentVersion",
          "type": "uint256"
        }
      ],
      "name": "upgrade",
      "outputs": [],
      "stateMutability": "nonpayable",
      "type": "function"
    }
  ],
  "bytecode": "0x608060405234801561001057600080fd5b5061172c806100206000396000f3fe608060405234801561001057600080fd5b50600436106100885760003560e01c80635efefd541161005b5780635efefd54146100e757806391d14854146100fd578063e0622b2714610120578063e35a67bb1461013257600080fd5b806327cfe8561461008d5780632a1b8f9b146100aa578063392f37e9146100bf578063541b160d146100d4575b600080fd5b6100976201518081565b6040519081526020015b60405180910390f35b6100bd6100b8366004611176565b610145565b005b6100c7610287565b6040516100a191906111b5565b6100bd6100e23660046111fb565b6102cf565b6100bd6100f5366004611286565b505050505050565b61011061010b366004611310565b61047d565b60405190151581526020016100a1565b6100bd61012e36600461133c565b5050565b6100bd610140366004611366565b61050c565b60408051600280825260608201909252600091816020015b604080518082019091526000808252602082015281526020019060019003908161015d57505060408051808201909152600080825263541b160d60e01b6020830152825192935090918391906101b5576101b56113b7565b6020026020010181905250604051806040016040528060001515815260200163e35a67bb60e01b6001600160e01b031916815250816001815181106101fc576101fc6113b7565b602002602001018190525073__$873ca04b9e3da3ca7cba95b77f569299f5$__63964d13f06040518060400160405280856001600160a01b03168152602001848152506040518263ffffffff1660e01b815260040161025b91906113cd565b60006040518083038186803b15801561027357600080fd5b505af41580156100f5573d6000803e3d6000fd5b60408051808201909152606081526000602082015260405180604001604052806040518060600160405280602381526020016116d46023913981526020016001815250905090565b6102dc6020820182611176565b60006102e661069f565b6001600160a01b03838116600090815260208390526040902054919250166103555760405162461bcd60e51b815260206004820181905260248201527f5265676973747261723a20656e74697479206e6f74207265676973746572656460448201526064015b60405180910390fd5b604051637298e1d760e11b8152336004820152309063e531c3ae90602401602060405180830381865afa158015610390573d6000803e3d6000fd5b505050506040513d601f19601f820116820180604052508101906103b49190611446565b6103d05760405162461bcd60e51b815260040161034c90611468565b6103d983610735565b60006103e361069f565b9050600081816103f66020880188611176565b6001600160a01b03168152602080820192909252604001600090812080546001600160a01b031916339081178255426004830155600582019290925592509061044190870187611176565b6001600160a01b03167f6aef1fb5b23d0e109fc7f2b0601019e1edbacd177e31a441ec8548e8dd14f0f760405160405180910390a35050505050565b604051632474521560e21b8152600481018390526001600160a01b038216602482015260009073__$a603c36e8140f8f0796c2626c9f8eff514$__906391d1485490604401602060405180830381865af41580156104df573d6000803e3d6000fd5b505050506040513d601f19601f820116820180604052508101906105039190611446565b90505b92915050565b6105196020820182611176565b600061052361069f565b6001600160a01b038381166000908152602083905260409020549192501661058d5760405162461bcd60e51b815260206004820181905260248201527f5265676973747261723a20656e74697479206e6f742072656769737465726564604482015260640161034c565b604051637298e1d760e11b8152336004820152309063e531c3ae90602401602060405180830381865afa1580156105c8573d6000803e3d6000fd5b505050506040513d601f19601f820116820180604052508101906105ec9190611446565b6106085760405162461bcd60e51b815260040161034c90611468565b61061183610a40565b600061061b61069f565b90506000818161062e6020880188611176565b6001600160a01b03168152602081019190915260400160002080546001600160a01b031916331781559050608085016001820161068282828135815560208201356001820155604082013560028201555050565b505042600482015560006005820155336104416020870187611176565b60408051808201909152601a81527f78722e726567697374726174696f6e2e76312e73746f7261676500000000000060209091015260008060ff61070460017f298bb06b387cf42ef0d699a946970827af7863e6cebf6ab1f9ef36af7a9311636114c5565b60405160200161071691815260200190565b60408051601f1981840301815291905280516020909101201692915050565b428160600135116107585760405162461bcd60e51b815260040161034c906114e6565b600061076261069f565b9050600081816107756020860186611176565b6001600160a01b039081168252602080830193909352604090910160009081208054909450909116916107aa90860186611176565b604080516001600160a01b03909216602083015233908201526060808701359082015260800160408051808303601f19018152828252805160209182012081845283830190925290925060009190602082018180368337019050509050816020820152600061081882610db5565b9050610827602088018861152c565b90506000036108b457836001600160a01b0316634f05c1c86040518163ffffffff1660e01b8152600401602060405180830381865afa15801561086e573d6000803e3d6000fd5b505050506040513d601f19601f820116820180604052508101906108929190611446565b156108af5760405162461bcd60e51b815260040161034c90611573565b61098c565b6000610901826108c760208b018b61152c565b8080601f016020809104026020016040519081016040528093929190818152602001838380828437600092019190915250610df092505050565b6040516253f74560e51b81526001600160a01b03808316600483015291925090861690630a7ee8a090602401602060405180830381865afa15801561094a573d6000803e3d6000fd5b505050506040513d601f19601f8201168201806040525081019061096e9190611446565b61098a5760405162461bcd60e51b815260040161034c906115d1565b505b600061099f826108c760408b018b61152c565b90506109ae6020890189611176565b604051637df73e2760e01b81526001600160a01b0383811660048301529190911690637df73e2790602401602060405180830381865afa1580156109f6573d6000803e3d6000fd5b505050506040513d601f19601f82011682018060405250810190610a1a9190611446565b610a365760405162461bcd60e51b815260040161034c9061161f565b5050505050505050565b42816060013511610a635760405162461bcd60e51b815260040161034c906114e6565b6000610a6d61069f565b905060008181610a806020860186611176565b6001600160a01b03908116825260208083019390935260409091016000908120805490945090911691610ab590860186611176565b604080516001600160a01b0390921660208301523390820152606086810135908201526080808701359082015260a0808701359082015260c0808701359082015260e00160408051601f1981840301815291905280516020918201209150600090610b2290870187611176565b604080516001600160a01b03909216602083015233908201526060808801359082015260800160408051808303601f190181528282528051602091820120818452838301909252909250600091906020820181803683375050604080516020808252818301909252929350600092915080820181803683370190505090508360208301528260208201526000610bb783610db5565b90506000610bc483610db5565b9050610bd360208b018b61152c565b9050600003610c6057866001600160a01b0316634f05c1c86040518163ffffffff1660e01b8152600401602060405180830381865afa158015610c1a573d6000803e3d6000fd5b505050506040513d601f19601f82011682018060405250810190610c3e9190611446565b15610c5b5760405162461bcd60e51b815260040161034c90611573565b610cfe565b6000610c73826108c760208e018e61152c565b6040516253f74560e51b81526001600160a01b03808316600483015291925090891690630a7ee8a090602401602060405180830381865afa158015610cbc573d6000803e3d6000fd5b505050506040513d601f19601f82011682018060405250810190610ce09190611446565b610cfc5760405162461bcd60e51b815260040161034c906115d1565b505b6000610d11836108c760408e018e61152c565b9050610d2060208c018c611176565b604051637df73e2760e01b81526001600160a01b0383811660048301529190911690637df73e2790602401602060405180830381865afa158015610d68573d6000803e3d6000fd5b505050506040513d601f19601f82011682018060405250810190610d8c9190611446565b610da85760405162461bcd60e51b815260040161034c9061161f565b5050505050505050505050565b6000610dc18251610e1a565b82604051602001610dd3929190611662565b604051602081830303815290604052805190602001209050919050565b600080600080610e008686610ead565b925092509250610e108282610efa565b5090949350505050565b60606000610e2783610fb3565b600101905060008167ffffffffffffffff811115610e4757610e476113a1565b6040519080825280601f01601f191660200182016040528015610e71576020820181803683370190505b5090508181016020015b600019016f181899199a1a9b1b9c1cb0b131b232b360811b600a86061a8153600a8504945084610e7b57509392505050565b60008060008351604103610ee75760208401516040850151606086015160001a610ed98882858561108b565b955095509550505050610ef3565b50508151600091506002905b9250925092565b6000826003811115610f0e57610f0e6116bd565b03610f17575050565b6001826003811115610f2b57610f2b6116bd565b03610f495760405163f645eedf60e01b815260040160405180910390fd5b6002826003811115610f5d57610f5d6116bd565b03610f7e5760405163fce698f760e01b81526004810182905260240161034c565b6003826003811115610f9257610f926116bd565b0361012e576040516335e2f38360e21b81526004810182905260240161034c565b60008072184f03e93ff9f4daa797ed6e38ed64bf6a1f0160401b8310610ff25772184f03e93ff9f4daa797ed6e38ed64bf6a1f0160401b830492506040015b6d04ee2d6d415b85acef8100000000831061101e576d04ee2d6d415b85acef8100000000830492506020015b662386f26fc10000831061103c57662386f26fc10000830492506010015b6305f5e1008310611054576305f5e100830492506008015b612710831061106857612710830492506004015b6064831061107a576064830492506002015b600a83106105065760010192915050565b600080807f7fffffffffffffffffffffffffffffff5d576e7357a4501ddfe92f46681b20a08411156110c65750600091506003905082611150565b604080516000808252602082018084528a905260ff891692820192909252606081018790526080810186905260019060a0016020604051602081039080840390855afa15801561111a573d6000803e3d6000fd5b5050604051601f1901519150506001600160a01b03811661114657506000925060019150829050611150565b9250600091508190505b9450945094915050565b80356001600160a01b038116811461117157600080fd5b919050565b60006020828403121561118857600080fd5b6105038261115a565b60005b838110156111ac578181015183820152602001611194565b50506000910152565b60208152600082516040602084015280518060608501526111dd816080860160208501611191565b60209490940151604084015250506080601f909201601f1916010190565b60006020828403121561120d57600080fd5b813567ffffffffffffffff81111561122457600080fd5b82016080818503121561123657600080fd5b9392505050565b60008083601f84011261124f57600080fd5b50813567ffffffffffffffff81111561126757600080fd5b60208301915083602082850101111561127f57600080fd5b9250929050565b6000806000806000806080878903121561129f57600080fd5b6112a88761115a565b9550602087013567ffffffffffffffff808211156112c557600080fd5b6112d18a838b0161123d565b90975095506040890135945060608901359150808211156112f157600080fd5b506112fe89828a0161123d565b979a9699509497509295939492505050565b6000806040838503121561132357600080fd5b823591506113336020840161115a565b90509250929050565b6000806040838503121561134f57600080fd5b6113588361115a565b946020939093013593505050565b60006020828403121561137857600080fd5b813567ffffffffffffffff81111561138f57600080fd5b820160e0818503121561123657600080fd5b634e487b7160e01b600052604160045260246000fd5b634e487b7160e01b600052603260045260246000fd5b602080825282516001600160a01b03168282015282810151604080840181905281516060850181905260009392830191849160808701905b8084101561143a5784518051151583528601516001600160e01b03191686830152938501936001939093019290820190611405565b50979650505050505050565b60006020828403121561145857600080fd5b8151801515811461123657600080fd5b60208082526039908201527f436f6e74726f6c6c65724368616e6765734578743a2063616c6c65722069732060408201527f6e6f7420616e20616374697665207465726d73206f776e657200000000000000606082015260800190565b8181038181111561050657634e487b7160e01b600052601160045260246000fd5b60208082526026908201527f5265676973747261723a206d6967726174696f6e207369676e617475726520656040820152651e1c1a5c995960d21b606082015260800190565b6000808335601e1984360301811261154357600080fd5b83018035915067ffffffffffffffff82111561155e57600080fd5b60200191503681900382131561127f57600080fd5b602080825260409082018190527f5265676973747261723a2063757272656e742072656769737472617220697320908201527f61637469766520627574206e6f207369676e61747572652070726f7669646564606082015260800190565b6020808252602e908201527f5265676973747261723a2063757272656e74207265676973747261722073696760408201526d1b985d1d5c99481a5b9d985b1a5960921b606082015260800190565b60208082526023908201527f5265676973747261723a20656e74697479207369676e617475726520696e76616040820152621b1a5960ea1b606082015260800190565b7f19457468657265756d205369676e6564204d6573736167653a0a00000000000081526000835161169a81601a850160208801611191565b8351908301906116b181601a840160208801611191565b01601a01949350505050565b634e487b7160e01b600052602160045260246000fdfe78722e726567697374726174696f6e2e436f6e74726f6c6c65724368616e6765457874a2646970667358221220e825608039fba025bc2bd43534b13db61897f1a7b07395b4b3058201e29da62f64736f6c63430008180033",
  "linkReferences": {
    "contracts/core/LibAccess.sol": {
      "LibAccess": [
        {
          "length": 20,
          "start": 1221
        }
      ]
    },
    "contracts/core/LibExtensions.sol": {
      "LibExtensions": [
        {
          "length": 20,
          "start": 553
        }
      ]
    }
  },
  "deployedLinkReferences": {
    "contracts/core/LibAccess.sol": {
      "LibAccess": [
        {
          "length": 20,
          "start": 1189
        }
      ]
    },
    "contracts/core/LibExtensions.sol": {
      "LibExtensions": [
        {
          "length": 20,
          "start": 521
        }
      ]
    }
  }
}