{
  "_format": "hh-sol-artifact-1",
  "contractName": "CoreExtensionRegistry",
  "sourceName": "contracts/core/ext-registry/CoreExtensionRegistry.sol",
  "abi": [
    {
      "inputs": [
        {
          "components": [
            {
              "internalType": "address",
              "name": "owner",
              "type": "address"
            },
            {
              "internalType": "address[]",
              "name": "otherAdmins",
              "type": "address[]"
            }
          ],
          "internalType": "struct CoreExtensionRegistryConstructorArgs",
          "name": "args",
          "type": "tuple"
        }
      ],
      "stateMutability": "nonpayable",
      "type": "constructor"
    },
    {
      "anonymous": false,
      "inputs": [
        {
          "indexed": true,
          "internalType": "address",
          "name": "oldOwner",
          "type": "address"
        },
        {
          "indexed": true,
          "internalType": "address",
          "name": "newOwner",
          "type": "address"
        }
      ],
      "name": "OwnerChanged",
      "type": "event"
    },
    {
      "anonymous": false,
      "inputs": [
        {
          "indexed": true,
          "internalType": "bytes32",
          "name": "role",
          "type": "bytes32"
        },
        {
          "indexed": true,
          "internalType": "address",
          "name": "account",
          "type": "address"
        }
      ],
      "name": "RoleGranted",
      "type": "event"
    },
    {
      "inputs": [
        {
          "internalType": "contract IExtension",
          "name": "_extension",
          "type": "address"
        }
      ],
      "name": "addExtension",
      "outputs": [],
      "stateMutability": "nonpayable",
      "type": "function"
    },
    {
      "inputs": [
        {
          "internalType": "contract IExtension[]",
          "name": "_extensions",
          "type": "address[]"
        }
      ],
      "name": "addExtensions",
      "outputs": [],
      "stateMutability": "nonpayable",
      "type": "function"
    },
    {
      "inputs": [
        {
          "internalType": "string",
          "name": "name",
          "type": "string"
        }
      ],
      "name": "getExtension",
      "outputs": [
        {
          "internalType": "address",
          "name": "",
          "type": "address"
        }
      ],
      "stateMutability": "view",
      "type": "function"
    },
    {
      "inputs": [
        {
          "internalType": "address",
          "name": "_extension",
          "type": "address"
        }
      ],
      "name": "isRegistered",
      "outputs": [
        {
          "internalType": "bool",
          "name": "",
          "type": "bool"
        }
      ],
      "stateMutability": "view",
      "type": "function"
    },
    {
      "inputs": [
        {
          "internalType": "address",
          "name": "_extension",
          "type": "address"
        }
      ],
      "name": "removeExtension",
      "outputs": [],
      "stateMutability": "nonpayable",
      "type": "function"
    },
    {
      "inputs": [
        {
          "internalType": "contract IExtension",
          "name": "_extension",
          "type": "address"
        }
      ],
      "name": "upgradeExtension",
      "outputs": [],
      "stateMutability": "nonpayable",
      "type": "function"
    },
    {
      "inputs": [
        {
          "internalType": "contract IExtension[]",
          "name": "_extensions",
          "type": "address[]"
        }
      ],
      "name": "upgradeExtensions",
      "outputs": [],
      "stateMutability": "nonpayable",
      "type": "function"
    }
  ],
  "bytecode": "0x60806040523480156200001157600080fd5b5060405162000ab738038062000ab783398101604081905262000034916200037b565b80516200004190620000a4565b60005b8160200151518110156200009c576200009360008051602062000a97833981519152836020015183815181106200007f576200007f62000479565b60200260200101516200017460201b60201c565b60010162000044565b5050620004b7565b6000620000b062000251565b80546001600160a01b038481166001600160a01b03198316811784557f9f4e1c871d5fdd0aee1cd182666698a4492b24c6832aac230d07b11046af5a8960009081526001808601602081815260408085208686528252808520805460ff19908116861790915560008051602062000a9783398151915286529282528085208686529091528084208054909216909217905551949550919092169283917fb532073b38c83145e3e5135377a08bf9aab55bc0fd7c1179cd4fb995d2a5159c91a3505050565b6001600160a01b038116620001e65760405162461bcd60e51b815260206004820152602e60248201527f4c69624163636573733a2063616e6e6f74206772616e7420726f6c652077697460448201526d68207a65726f206164647265737360901b606482015260840160405180910390fd5b6000620001f262000251565b600084815260028201602090815260408083206001600160a01b0387168085529252808320805460ff19166001179055519293509185917f2ae6a113c0ed5b78a53413ffbb7679881f11145ccfba4fb92e863dfcd5a1d2f391a3505050565b60408051808201909152601481527f78722e6163636573732e76312e73746f7261676500000000000000000000000060209091015260008060ff620002b860017f635029241f0ffc6f0ed7ed889a32900dcb67a3f08955f2b339ffb28b145bb4ec6200048f565b604051602001620002cb91815260200190565b60408051601f1981840301815291905280516020909101201692915050565b634e487b7160e01b600052604160045260246000fd5b604080519081016001600160401b0381118282101715620003255762000325620002ea565b60405290565b604051601f8201601f191681016001600160401b0381118282101715620003565762000356620002ea565b604052919050565b80516001600160a01b03811681146200037657600080fd5b919050565b600060208083850312156200038f57600080fd5b82516001600160401b0380821115620003a757600080fd5b9084019060408287031215620003bc57600080fd5b620003c662000300565b620003d1836200035e565b81528383015182811115620003e557600080fd5b80840193505086601f840112620003fb57600080fd5b825182811115620004105762000410620002ea565b8060051b9250620004238584016200032b565b81815292840185019285810190898511156200043e57600080fd5b948601945b84861015620004675762000457866200035e565b8252948601949086019062000443565b95830195909552509695505050505050565b634e487b7160e01b600052603260045260246000fd5b81810381811115620004b157634e487b7160e01b600052601160045260246000fd5b92915050565b6105d080620004c76000396000f3fe608060405234801561001057600080fd5b506004361061007d5760003560e01c80639e00494f1161005b5780639e00494f146100bd578063c22707ee146100d0578063c3c5a54714610100578063d4cf79871461012357600080fd5b8063170ff3e11461008257806321ee102b146100975780638fdcd4a8146100aa575b600080fd5b6100956100903660046103ec565b610136565b005b6100956100a53660046103ec565b6101a5565b6100956100b8366004610409565b6101e5565b6100956100cb3660046103ec565b610252565b6100e36100de36600461047e565b610292565b6040516001600160a01b0390911681526020015b60405180910390f35b61011361010e3660046103ec565b610316565b60405190151581526020016100f7565b610095610131366004610409565b61039b565b60405163e0ee834160e01b81526001600160a01b038216600482015273__$c6fa7c6f736596c33b36e71e0fae7203c6$__9063e0ee8341906024015b60006040518083038186803b15801561018a57600080fd5b505af415801561019e573d6000803e3d6000fd5b5050505050565b60405163ce8aee9d60e01b81526001600160a01b038216600482015273__$c6fa7c6f736596c33b36e71e0fae7203c6$__9063ce8aee9d90602401610172565b60405163ddc2337d60e01b815273__$c6fa7c6f736596c33b36e71e0fae7203c6$__9063ddc2337d9061021e90859085906004016104de565b60006040518083038186803b15801561023657600080fd5b505af415801561024a573d6000803e3d6000fd5b505050505050565b604051634c6f7da360e01b81526001600160a01b038216600482015273__$c6fa7c6f736596c33b36e71e0fae7203c6$__90634c6f7da390602401610172565b60405163611383f760e11b815260009073__$c6fa7c6f736596c33b36e71e0fae7203c6$__9063c22707ee906102ce908690869060040161052c565b602060405180830381865af41580156102eb573d6000803e3d6000fd5b505050506040513d601f19601f8201168201806040525081019061030f919061055b565b9392505050565b60405163c3c5a54760e01b81526001600160a01b038216600482015260009073__$c6fa7c6f736596c33b36e71e0fae7203c6$__9063c3c5a54790602401602060405180830381865af4158015610371573d6000803e3d6000fd5b505050506040513d601f19601f820116820180604052508101906103959190610578565b92915050565b604051634bbc46e960e01b815273__$c6fa7c6f736596c33b36e71e0fae7203c6$__90634bbc46e99061021e90859085906004016104de565b6001600160a01b03811681146103e957600080fd5b50565b6000602082840312156103fe57600080fd5b813561030f816103d4565b6000806020838503121561041c57600080fd5b823567ffffffffffffffff8082111561043457600080fd5b818501915085601f83011261044857600080fd5b81358181111561045757600080fd5b8660208260051b850101111561046c57600080fd5b60209290920196919550909350505050565b6000806020838503121561049157600080fd5b823567ffffffffffffffff808211156104a957600080fd5b818501915085601f8301126104bd57600080fd5b8135818111156104cc57600080fd5b86602082850101111561046c57600080fd5b60208082528181018390526000908460408401835b86811015610521578235610506816103d4565b6001600160a01b0316825291830191908301906001016104f3565b509695505050505050565b60208152816020820152818360408301376000818301604090810191909152601f909201601f19160101919050565b60006020828403121561056d57600080fd5b815161030f816103d4565b60006020828403121561058a57600080fd5b8151801515811461030f57600080fdfea26469706673582212205db9b572ad80480bc7641ddda6858985d67b3ae730fef1bce921b4b33bc3b2b664736f6c634300081800332172861495e7b85edac73e3cd5fbb42dd675baadf627720e687bcfdaca025096",
  "linkReferences": {
    "contracts/core/ext-registry/LibCoreExtensionRegistry.sol": {
      "LibCoreExtensionRegistry": [
        {
          "length": 20,
          "start": 1563
        },
        {
          "length": 20,
          "start": 1674
        },
        {
          "length": 20,
          "start": 1723
        },
        {
          "length": 20,
          "start": 1847
        },
        {
          "length": 20,
          "start": 1899
        },
        {
          "length": 20,
          "start": 2046
        },
        {
          "length": 20,
          "start": 2161
        }
      ]
    }
  },
  "deployedLinkReferences": {
    "contracts/core/ext-registry/LibCoreExtensionRegistry.sol": {
      "LibCoreExtensionRegistry": [
        {
          "length": 20,
          "start": 340
        },
        {
          "length": 20,
          "start": 451
        },
        {
          "length": 20,
          "start": 500
        },
        {
          "length": 20,
          "start": 624
        },
        {
          "length": 20,
          "start": 676
        },
        {
          "length": 20,
          "start": 823
        },
        {
          "length": 20,
          "start": 938
        }
      ]
    }
  }
}