{
  "_format": "hh-sol-artifact-1",
  "contractName": "EntityRemovalExt",
  "sourceName": "contracts/registry/extensions/entity-removal/EntityRemovalExt.sol",
  "abi": [
    {
      "anonymous": false,
      "inputs": [
        {
          "indexed": true,
          "internalType": "address",
          "name": "entity",
          "type": "address"
        },
        {
          "indexed": true,
          "internalType": "address",
          "name": "by",
          "type": "address"
        }
      ],
      "name": "EntityRegistrationRenewed",
      "type": "event"
    },
    {
      "anonymous": false,
      "inputs": [
        {
          "indexed": true,
          "internalType": "address",
          "name": "entity",
          "type": "address"
        },
        {
          "indexed": false,
          "internalType": "string",
          "name": "reason",
          "type": "string"
        }
      ],
      "name": "RegistryDeactivatedEntity",
      "type": "event"
    },
    {
      "anonymous": false,
      "inputs": [
        {
          "indexed": true,
          "internalType": "address",
          "name": "entity",
          "type": "address"
        }
      ],
      "name": "RegistryEnforcedDeactivation",
      "type": "event"
    },
    {
      "anonymous": false,
      "inputs": [
        {
          "indexed": true,
          "internalType": "address",
          "name": "entity",
          "type": "address"
        }
      ],
      "name": "RegistryEnforcedRemoval",
      "type": "event"
    },
    {
      "anonymous": false,
      "inputs": [
        {
          "indexed": true,
          "internalType": "address",
          "name": "entity",
          "type": "address"
        }
      ],
      "name": "RegistryReactivatedEntity",
      "type": "event"
    },
    {
      "anonymous": false,
      "inputs": [
        {
          "indexed": true,
          "internalType": "address",
          "name": "entity",
          "type": "address"
        },
        {
          "indexed": false,
          "internalType": "string",
          "name": "reason",
          "type": "string"
        }
      ],
      "name": "RegistryRemovedEntity",
      "type": "event"
    },
    {
      "inputs": [
        {
          "internalType": "address",
          "name": "addr",
          "type": "address"
        }
      ],
      "name": "canBeDeactivated",
      "outputs": [
        {
          "internalType": "bool",
          "name": "",
          "type": "bool"
        }
      ],
      "stateMutability": "view",
      "type": "function"
    },
    {
      "inputs": [
        {
          "internalType": "address",
          "name": "addr",
          "type": "address"
        }
      ],
      "name": "canBeRemoved",
      "outputs": [
        {
          "internalType": "bool",
          "name": "",
          "type": "bool"
        }
      ],
      "stateMutability": "view",
      "type": "function"
    },
    {
      "inputs": [
        {
          "internalType": "contract IRemovableEntity",
          "name": "entity",
          "type": "address"
        },
        {
          "internalType": "string",
          "name": "reason",
          "type": "string"
        }
      ],
      "name": "deactivateEntity",
      "outputs": [],
      "stateMutability": "nonpayable",
      "type": "function"
    },
    {
      "inputs": [
        {
          "internalType": "contract IRemovableEntity",
          "name": "addr",
          "type": "address"
        }
      ],
      "name": "enforceDeactivation",
      "outputs": [],
      "stateMutability": "nonpayable",
      "type": "function"
    },
    {
      "inputs": [
        {
          "internalType": "contract IRemovableEntity",
          "name": "e",
          "type": "address"
        }
      ],
      "name": "enforceRemoval",
      "outputs": [],
      "stateMutability": "nonpayable",
      "type": "function"
    },
    {
      "inputs": [
        {
          "internalType": "address",
          "name": "addr",
          "type": "address"
        }
      ],
      "name": "getExpiration",
      "outputs": [
        {
          "internalType": "uint256",
          "name": "",
          "type": "uint256"
        }
      ],
      "stateMutability": "view",
      "type": "function"
    },
    {
      "inputs": [
        {
          "internalType": "address",
          "name": "addr",
          "type": "address"
        }
      ],
      "name": "getLastRenewal",
      "outputs": [
        {
          "internalType": "uint256",
          "name": "",
          "type": "uint256"
        }
      ],
      "stateMutability": "view",
      "type": "function"
    },
    {
      "inputs": [
        {
          "internalType": "bytes32",
          "name": "role",
          "type": "bytes32"
        },
        {
          "internalType": "address",
          "name": "account",
          "type": "address"
        }
      ],
      "name": "hasRole",
      "outputs": [
        {
          "internalType": "bool",
          "name": "",
          "type": "bool"
        }
      ],
      "stateMutability": "view",
      "type": "function"
    },
    {
      "inputs": [
        {
          "internalType": "address",
          "name": "",
          "type": "address"
        },
        {
          "internalType": "string",
          "name": "",
          "type": "string"
        },
        {
          "internalType": "uint256",
          "name": "",
          "type": "uint256"
        },
        {
          "internalType": "bytes",
          "name": "",
          "type": "bytes"
        }
      ],
      "name": "initStorage",
      "outputs": [],
      "stateMutability": "nonpayable",
      "type": "function"
    },
    {
      "inputs": [
        {
          "internalType": "address",
          "name": "myAddress",
          "type": "address"
        }
      ],
      "name": "install",
      "outputs": [],
      "stateMutability": "nonpayable",
      "type": "function"
    },
    {
      "inputs": [
        {
          "internalType": "address",
          "name": "addr",
          "type": "address"
        }
      ],
      "name": "isExpired",
      "outputs": [
        {
          "internalType": "bool",
          "name": "",
          "type": "bool"
        }
      ],
      "stateMutability": "view",
      "type": "function"
    },
    {
      "inputs": [
        {
          "internalType": "address",
          "name": "addr",
          "type": "address"
        }
      ],
      "name": "isInGracePeriod",
      "outputs": [
        {
          "internalType": "bool",
          "name": "",
          "type": "bool"
        }
      ],
      "stateMutability": "view",
      "type": "function"
    },
    {
      "inputs": [],
      "name": "metadata",
      "outputs": [
        {
          "components": [
            {
              "internalType": "string",
              "name": "name",
              "type": "string"
            },
            {
              "internalType": "uint256",
              "name": "version",
              "type": "uint256"
            }
          ],
          "internalType": "struct ExtensionMetadata",
          "name": "",
          "type": "tuple"
        }
      ],
      "stateMutability": "pure",
      "type": "function"
    },
    {
      "inputs": [
        {
          "internalType": "contract IRemovableEntity",
          "name": "entity",
          "type": "address"
        }
      ],
      "name": "reactivateEntity",
      "outputs": [],
      "stateMutability": "nonpayable",
      "type": "function"
    },
    {
      "inputs": [
        {
          "internalType": "contract IRemovableEntity",
          "name": "entity",
          "type": "address"
        },
        {
          "internalType": "string",
          "name": "reason",
          "type": "string"
        }
      ],
      "name": "removeEntity",
      "outputs": [],
      "stateMutability": "nonpayable",
      "type": "function"
    },
    {
      "inputs": [
        {
          "internalType": "address",
          "name": "addr",
          "type": "address"
        }
      ],
      "name": "renewEntity",
      "outputs": [],
      "stateMutability": "payable",
      "type": "function"
    },
    {
      "inputs": [
        {
          "internalType": "address",
          "name": "myAddress",
          "type": "address"
        },
        {
          "internalType": "uint256",
          "name": "currentVersion",
          "type": "uint256"
        }
      ],
      "name": "upgrade",
      "outputs": [],
      "stateMutability": "nonpayable",
      "type": "function"
    }
  ],
  "bytecode": "0x608060405234801561001057600080fd5b50611eec806100206000396000f3fe6080604052600436106100fe5760003560e01c8063693c79b211610095578063b6db923d11610064578063b6db923d146102fd578063ba2eb5411461031d578063d6fbe0201461033d578063e0622b2714610350578063e2482bf91461036f57600080fd5b8063693c79b21461026d57806391d148541461028d578063a8c88c17146102bd578063af08d53d146102dd57600080fd5b80634ae134cc116100d15780634ae134cc146101dc5780634ec70a48146101fc5780635726c94e1461022a5780635efefd541461024a57600080fd5b806301f2423014610103578063033a5b60146101255780632a1b8f9b14610145578063392f37e914610165575b600080fd5b34801561010f57600080fd5b5061012361011e366004611977565b61038f565b005b34801561013157600080fd5b506101236101403660046119e4565b6105c1565b34801561015157600080fd5b50610123610160366004611977565b610734565b34801561017157600080fd5b506040805180820182526060808252600060209283015282516080810184529283018281527f78722e726567697374726174696f6e2e456e7469747952656d6f76616c4578749184019190915282526001908201526040516101d39190611a5d565b60405180910390f35b3480156101e857600080fd5b506101236101f7366004611977565b6107bd565b34801561020857600080fd5b5061021c610217366004611977565b61091e565b6040519081526020016101d3565b34801561023657600080fd5b5061021c610245366004611977565b610984565b34801561025657600080fd5b50610123610265366004611aa3565b505050505050565b34801561027957600080fd5b50610123610288366004611977565b6109b2565b34801561029957600080fd5b506102ad6102a8366004611b2f565b610b0b565b60405190151581526020016101d3565b3480156102c957600080fd5b506102ad6102d8366004611977565b610b9a565b3480156102e957600080fd5b506101236102f83660046119e4565b610c1d565b34801561030957600080fd5b506102ad610318366004611977565b610fa8565b34801561032957600080fd5b506102ad610338366004611977565b611048565b61012361034b366004611977565b6110b0565b34801561035c57600080fd5b5061012361036b366004611b5f565b5050565b34801561037b57600080fd5b506102ad61038a366004611977565b6113dd565b8061039981610b9a565b6103fd5760405162461bcd60e51b815260206004820152602a60248201527f5374617475734368616e6765734578743a20656e746974792063616e6e6f74206044820152691899481c995b5bdd995960b21b60648201526084015b60405180910390fd5b600061040761147e565b6040516380599e4b60e01b815260206004820152602860248201527f52656d6f76616c20656e666f726365642064756520746f207465726d732065786044820152673834b930ba34b7b760c11b60648201529091506001600160a01b038416906380599e4b90608401600060405180830381600087803b15801561048a57600080fd5b505af115801561049e573d6000803e3d6000fd5b5050506001600160a01b0380841660009081526020849052604080822080546001600160a01b03191681556001810183905560028101839055600381018390556004808201849055600590910183905581516306fdde0360e01b81529151929450610559938816926306fdde0392808301928792918290030181865afa15801561052c573d6000803e3d6000fd5b505050506040513d6000823e601f3d908101601f191682016040526105549190810190611ba1565b611514565b9050816002018160405161056d9190611c43565b90815260405190819003602001812080546001600160a01b03191690556001600160a01b038416907f7e6cd5861b1d4fa3f22e1534c246a20812a09a8c06fa2caaacdc5e70e72c7bf690600090a250505050565b604051637298e1d760e11b8152336004820152309063e531c3ae90602401602060405180830381865afa1580156105fc573d6000803e3d6000fd5b505050506040513d601f19601f820116820180604052508101906106209190611c5f565b61063c5760405162461bcd60e51b81526004016103f490611c81565b600061064661147e565b6001600160a01b0380861660009081526020839052604090208054929350911633146106845760405162461bcd60e51b81526004016103f490611cd3565b4260058201556040516327ee999d60e01b81526001600160a01b038616906327ee999d906106b89087908790600401611d30565b600060405180830381600087803b1580156106d257600080fd5b505af11580156106e6573d6000803e3d6000fd5b50505050846001600160a01b03167fb75046c01c14bc7fe8ffdd7a34c4c308a3ddb6011b52a2ee88f5d4545e22ced88585604051610725929190611d30565b60405180910390a25050505050565b600061073e611584565b6040805180820182526001600160a01b0385168152602081018390529051630964d13f60e41b815291925073__$873ca04b9e3da3ca7cba95b77f569299f5$__9163964d13f09161079191600401611d5f565b60006040518083038186803b1580156107a957600080fd5b505af4158015610265573d6000803e3d6000fd5b6107c681610fa8565b6108295760405162461bcd60e51b815260206004820152602e60248201527f456e7469747952656d6f76616c4578743a20456e746974792063616e6e6f742060448201526d18994819195858dd1a5d985d195960921b60648201526084016103f4565b6040516327ee999d60e01b815260206004820152602d60248201527f446561637469766174696f6e20656e666f726365642064756520746f2074657260448201526c36b99032bc3834b930ba34b7b760991b60648201526001600160a01b038216906327ee999d90608401600060405180830381600087803b1580156108ae57600080fd5b505af11580156108c2573d6000803e3d6000fd5b5050505060006108d061147e565b6001600160a01b0383166000818152602083905260408082204260058201559051939450927f34aed9d8955237d766c06c12b28987720163d0a7655bca0e23f470ae6e2e51c79190a2505050565b60008061092961147e565b6001600160a01b0384166000908152602082905260408120600281015492935091900361095a575060009392505050565b600281015461096d906201518090611dee565b816004015461097c9190611e05565b949350505050565b60008061098f61147e565b6001600160a01b0390931660009081526020939093525050604090206004015490565b604051637298e1d760e11b8152336004820152309063e531c3ae90602401602060405180830381865afa1580156109ed573d6000803e3d6000fd5b505050506040513d601f19601f82011682018060405250810190610a119190611c5f565b610a2d5760405162461bcd60e51b81526004016103f490611c81565b6000610a3761147e565b6001600160a01b038084166000908152602083905260409020805492935091163314610a755760405162461bcd60e51b81526004016103f490611cd3565b60008160050181905550826001600160a01b031663d18611d66040518163ffffffff1660e01b8152600401600060405180830381600087803b158015610aba57600080fd5b505af1158015610ace573d6000803e3d6000fd5b50506040516001600160a01b03861692507f667d71bfa02caef2a7b621bfee70de813834529ef97b4fdcf65727d950a41a889150600090a2505050565b604051632474521560e21b8152600481018390526001600160a01b038216602482015260009073__$a603c36e8140f8f0796c2626c9f8eff514$__906391d1485490604401602060405180830381865af4158015610b6d573d6000803e3d6000fd5b505050506040513d601f19601f82011682018060405250810190610b919190611c5f565b90505b92915050565b600080610ba561147e565b6001600160a01b03841660009081526020829052604081206002810154929350919003610bd6575060009392505050565b8060050154600003610bec575060009392505050565b6002810154600090610c02906201518090611dee565b8260050154610c119190611e05565b42101595945050505050565b604051637298e1d760e11b8152336004820152309063e531c3ae90602401602060405180830381865afa158015610c58573d6000803e3d6000fd5b505050506040513d601f19601f82011682018060405250810190610c7c9190611c5f565b610c985760405162461bcd60e51b81526004016103f490611c81565b6000610ca261147e565b6001600160a01b038086166000908152602083905260409020805492935091163314610d365760405162461bcd60e51b815260206004820152603f60248201527f456e7469747952656d6f76616c4578743a2063616c6c6572206973206e6f742060448201527f74686520656e74697479277320726567697374726174696f6e206f776e65720060648201526084016103f4565b6000816005015411610db05760405162461bcd60e51b815260206004820152603b60248201527f456e7469747952656d6f76616c4578743a20656e74697479206d75737420626560448201527f206465616374697661746564206265666f72652072656d6f76616c000000000060648201526084016103f4565b6003810154610dc3906201518090611dee565b8160050154610dd29190611e05565b4211610e465760405162461bcd60e51b815260206004820152603b60248201527f456e7469747952656d6f76616c4578743a20646561637469766174696f6e206760448201527f7261636520706572696f6420686173206e6f742065787069726564000000000060648201526084016103f4565b6040516380599e4b60e01b81526001600160a01b038616906380599e4b90610e749087908790600401611d30565b600060405180830381600087803b158015610e8e57600080fd5b505af1158015610ea2573d6000803e3d6000fd5b5050506001600160a01b03861660008181526020859052604080822080546001600160a01b03191681556001810183905560028101839055600381018390556004808201849055600590910183905581516306fdde0360e01b81529151929450610f2d93926306fdde0392808301928792918290030181865afa15801561052c573d6000803e3d6000fd5b90508260020181604051610f419190611c43565b90815260405190819003602001812080546001600160a01b03191690556001600160a01b038716907f19befd85e4fafbc51c81f6553f2790c1845268610c5acdb88fb188dfc64319ad90610f989088908890611d30565b60405180910390a2505050505050565b600080610fb361147e565b6001600160a01b03841660009081526020829052604081206002810154929350919003610fe4575060009392505050565b6002810154600090610ffa906201518090611dee565b82600401546110099190611e05565b905060006201518083600101600201546110239190611dee565b61102d9083611e05565b905081421015801561103e57508042105b9695505050505050565b60008061105361147e565b6001600160a01b03841660009081526020829052604081206002810154929350919003611084575060009392505050565b6002810154611097906201518090611dee565b81600401546110a69190611e05565b4211949350505050565b60006110ba61147e565b6001600160a01b038316600090815260208290526040902060028101549192509061113e5760405162461bcd60e51b815260206004820152602e60248201527f52656e6577616c4578743a20456e7469747920646f6573206e6f74206861766560448201526d2072656e6577616c207465726d7360901b60648201526084016103f4565b805460408051634173b41760e01b815290516001600160a01b03909216916000918391634173b417916004808201926060929091908290030181865afa15801561118c573d6000803e3d6000fd5b505050506040513d601f19601f820116820180604052508101906111b09190611e18565b905060008160400151116112925760405162461bcd60e51b815260206004820152609160248201527f52656e6577616c4578743a20526567697374726174696f6e207465726d73207260448201527f657175697265206120677261636520706572696f64206576656e207768656e2060648201527f6e6f20636f76657261676520706572696f64206578697374732e20546869732060848201527f697320746f2070726f7669646520612072656d6f76616c20677261636520706560a48201527072696f6420666f7220656e74697469657360781b60c482015260e4016103f4565b8051348111156112f95760405162461bcd60e51b815260206004820152602c60248201527f52656e6577616c4578743a20496e73756666696369656e742066756e6473206660448201526b6f72206e6577207465726d7360a01b60648201526084016103f4565b81516001850155602082015160028501556040820151600385015542600485015560006005850181905561132d8234611e74565b9050801561136457604051339082156108fc029083906000818181858888f19350505050158015611362573d6000803e3d6000fd5b505b84546040516001600160a01b039091169083156108fc029084906000818181858888f1935050505015801561139d573d6000803e3d6000fd5b5060405133906001600160a01b038916907fa12a76e3489e01490944982156e006ccdf24101e35463342943c1b0d069ef07e90600090a350505050505050565b6000806113e861147e565b6001600160a01b03841660009081526020829052604081206002810154929350919003611419575060009392505050565b600281015460009061142f906201518090611dee565b826004015461143e9190611e05565b905060006201518083600101600201546114589190611dee565b6114629083611e05565b905042821080801561147357508142105b979650505050505050565b60408051808201909152601a81527f78722e726567697374726174696f6e2e76312e73746f7261676500000000000060209091015260008060ff6114e360017f298bb06b387cf42ef0d699a946970827af7863e6cebf6ab1f9ef36af7a931163611e74565b6040516020016114f591815260200190565b60408051601f1981840301815291905280516020909101201692915050565b60608160005b815181101561157d5761154c82828151811061153857611538611e87565b01602001516001600160f81b031916611910565b82828151811061155e5761155e611e87565b60200101906001600160f81b031916908160001a90535060010161151a565b5092915050565b60408051600c8082526101a08201909252606091816020015b604080518082019091526000808252602082015281526020019060019003908161159d575050604080518082019091526000808252632b9364a760e11b6020830152825192935090918391906115f5576115f5611e87565b60200260200101819052506040518060400160405280600015158152602001634ec70a4860e01b6001600160e01b0319168152508160018151811061163c5761163c611e87565b6020026020010181905250604051806040016040528060001515815260200163ba2eb54160e01b6001600160e01b0319168152508160028151811061168357611683611e87565b6020026020010181905250604051806040016040528060001515815260200163e2482bf960e01b6001600160e01b031916815250816003815181106116ca576116ca611e87565b6020026020010181905250604051806040016040528060001515815260200163d6fbe02060e01b6001600160e01b0319168152508160048151811061171157611711611e87565b6020026020010181905250604051806040016040528060001515815260200163033a5b6060e01b6001600160e01b0319168152508160058151811061175857611758611e87565b6020026020010181905250604051806040016040528060001515815260200163693c79b260e01b6001600160e01b0319168152508160068151811061179f5761179f611e87565b6020026020010181905250604051806040016040528060001515815260200163af08d53d60e01b6001600160e01b031916815250816007815181106117e6576117e6611e87565b6020026020010181905250604051806040016040528060001515815260200163b6db923d60e01b6001600160e01b0319168152508160088151811061182d5761182d611e87565b6020026020010181905250604051806040016040528060001515815260200163a8c88c1760e01b6001600160e01b0319168152508160098151811061187457611874611e87565b60200260200101819052506040518060400160405280600015158152602001634ae134cc60e01b6001600160e01b03191681525081600a815181106118bb576118bb611e87565b602002602001018190525060405180604001604052806000151581526020016301f2423060e01b6001600160e01b03191681525081600b8151811061190257611902611e87565b602002602001018190525090565b6000604160f81b6001600160f81b031983161080159061193e5750602d60f91b6001600160f81b0319831611155b1561195b5761195260f883901c6020611e9d565b60f81b92915050565b5090565b6001600160a01b038116811461197457600080fd5b50565b60006020828403121561198957600080fd5b81356119948161195f565b9392505050565b60008083601f8401126119ad57600080fd5b50813567ffffffffffffffff8111156119c557600080fd5b6020830191508360208285010111156119dd57600080fd5b9250929050565b6000806000604084860312156119f957600080fd5b8335611a048161195f565b9250602084013567ffffffffffffffff811115611a2057600080fd5b611a2c8682870161199b565b9497909650939450505050565b60005b83811015611a54578181015183820152602001611a3c565b50506000910152565b6020815260008251604060208401528051806060850152611a85816080860160208501611a39565b60209490940151604084015250506080601f909201601f1916010190565b60008060008060008060808789031215611abc57600080fd5b8635611ac78161195f565b9550602087013567ffffffffffffffff80821115611ae457600080fd5b611af08a838b0161199b565b9097509550604089013594506060890135915080821115611b1057600080fd5b50611b1d89828a0161199b565b979a9699509497509295939492505050565b60008060408385031215611b4257600080fd5b823591506020830135611b548161195f565b809150509250929050565b60008060408385031215611b7257600080fd5b8235611b7d8161195f565b946020939093013593505050565b634e487b7160e01b600052604160045260246000fd5b600060208284031215611bb357600080fd5b815167ffffffffffffffff80821115611bcb57600080fd5b818401915084601f830112611bdf57600080fd5b815181811115611bf157611bf1611b8b565b604051601f8201601f19908116603f01168101908382118183101715611c1957611c19611b8b565b81604052828152876020848701011115611c3257600080fd5b611473836020830160208801611a39565b60008251611c55818460208701611a39565b9190910192915050565b600060208284031215611c7157600080fd5b8151801515811461199457600080fd5b60208082526032908201527f456e7469747952656d6f76616c3a2063616c6c6572206973206e6f7420616e2060408201527130b1ba34bb32903a32b936b99037bbb732b960711b606082015260800190565b6020808252603c908201527f456e7469747952656d6f76616c3a2063616c6c6572206973206e6f742074686560408201527f20656e74697479277320726567697374726174696f6e206f776e657200000000606082015260800190565b60208152816020820152818360408301376000818301604090810191909152601f909201601f19160101919050565b602080825282516001600160a01b03168282015282810151604080840181905281516060850181905260009392830191849160808701905b80841015611dcc5784518051151583528601516001600160e01b03191686830152938501936001939093019290820190611d97565b50979650505050505050565b634e487b7160e01b600052601160045260246000fd5b8082028115828204841417610b9457610b94611dd8565b80820180821115610b9457610b94611dd8565b600060608284031215611e2a57600080fd5b6040516060810181811067ffffffffffffffff82111715611e4d57611e4d611b8b565b80604052508251815260208301516020820152604083015160408201528091505092915050565b81810381811115610b9457610b94611dd8565b634e487b7160e01b600052603260045260246000fd5b60ff8181168382160190811115610b9457610b94611dd856fea2646970667358221220fe4381fc71b8b194ff6fd84dd5fff2a203c63ae577ca82b621aaf539b8496e8364736f6c63430008180033",
  "linkReferences": {
    "contracts/core/LibAccess.sol": {
      "LibAccess": [
        {
          "length": 20,
          "start": 2899
        }
      ]
    },
    "contracts/core/LibExtensions.sol": {
      "LibExtensions": [
        {
          "length": 20,
          "start": 1931
        }
      ]
    }
  },
  "deployedLinkReferences": {
    "contracts/core/LibAccess.sol": {
      "LibAccess": [
        {
          "length": 20,
          "start": 2867
        }
      ]
    },
    "contracts/core/LibExtensions.sol": {
      "LibExtensions": [
        {
          "length": 20,
          "start": 1899
        }
      ]
    }
  }
}