{
  "_format": "hh-sol-artifact-1",
  "contractName": "ERC20InfoExt",
  "sourceName": "contracts/extensions/asset/erc20/ERC20InfoExt.sol",
  "abi": [
    {
      "inputs": [
        {
          "internalType": "uint256",
          "name": "value",
          "type": "uint256"
        },
        {
          "internalType": "uint256",
          "name": "length",
          "type": "uint256"
        }
      ],
      "name": "StringsInsufficientHexLength",
      "type": "error"
    },
    {
      "inputs": [
        {
          "internalType": "address",
          "name": "owner",
          "type": "address"
        },
        {
          "internalType": "address",
          "name": "spender",
          "type": "address"
        }
      ],
      "name": "allowance",
      "outputs": [
        {
          "internalType": "uint256",
          "name": "",
          "type": "uint256"
        }
      ],
      "stateMutability": "view",
      "type": "function"
    },
    {
      "inputs": [
        {
          "internalType": "address",
          "name": "account",
          "type": "address"
        }
      ],
      "name": "balanceOf",
      "outputs": [
        {
          "internalType": "uint256",
          "name": "",
          "type": "uint256"
        }
      ],
      "stateMutability": "view",
      "type": "function"
    },
    {
      "inputs": [],
      "name": "decimals",
      "outputs": [
        {
          "internalType": "uint8",
          "name": "",
          "type": "uint8"
        }
      ],
      "stateMutability": "view",
      "type": "function"
    },
    {
      "inputs": [
        {
          "internalType": "address",
          "name": "myAddress",
          "type": "address"
        }
      ],
      "name": "install",
      "outputs": [],
      "stateMutability": "nonpayable",
      "type": "function"
    },
    {
      "inputs": [],
      "name": "issuer",
      "outputs": [
        {
          "internalType": "address",
          "name": "",
          "type": "address"
        }
      ],
      "stateMutability": "view",
      "type": "function"
    },
    {
      "inputs": [],
      "name": "metadata",
      "outputs": [
        {
          "components": [
            {
              "internalType": "string",
              "name": "name",
              "type": "string"
            },
            {
              "components": [
                {
                  "internalType": "uint16",
                  "name": "major",
                  "type": "uint16"
                },
                {
                  "internalType": "uint16",
                  "name": "minor",
                  "type": "uint16"
                }
              ],
              "internalType": "struct Version",
              "name": "version",
              "type": "tuple"
            }
          ],
          "internalType": "struct ExtensionMetadata",
          "name": "",
          "type": "tuple"
        }
      ],
      "stateMutability": "pure",
      "type": "function"
    },
    {
      "inputs": [],
      "name": "originAddress",
      "outputs": [
        {
          "internalType": "address",
          "name": "",
          "type": "address"
        }
      ],
      "stateMutability": "view",
      "type": "function"
    },
    {
      "inputs": [],
      "name": "originChainId",
      "outputs": [
        {
          "internalType": "uint256",
          "name": "",
          "type": "uint256"
        }
      ],
      "stateMutability": "view",
      "type": "function"
    },
    {
      "inputs": [],
      "name": "symbol",
      "outputs": [
        {
          "internalType": "string",
          "name": "",
          "type": "string"
        }
      ],
      "stateMutability": "view",
      "type": "function"
    },
    {
      "inputs": [],
      "name": "totalSupply",
      "outputs": [
        {
          "internalType": "uint256",
          "name": "",
          "type": "uint256"
        }
      ],
      "stateMutability": "view",
      "type": "function"
    },
    {
      "inputs": [
        {
          "internalType": "address",
          "name": "myAddress",
          "type": "address"
        }
      ],
      "name": "upgrade",
      "outputs": [],
      "stateMutability": "nonpayable",
      "type": "function"
    }
  ],
  "bytecode": "0x608060405234801561001057600080fd5b50610faa806100206000396000f3fe608060405234801561001057600080fd5b50600436106100a95760003560e01c8063313ce56711610071578063313ce56714610117578063392f37e91461013157806370a082311461014657806395d89b4114610159578063dd62ed3e1461016e578063e517fedd1461018157600080fd5b80630900f010146100ae5780630ac7f561146100c157806318160ddd146100dc5780631d143848146100e45780632a1b8f9b14610104575b600080fd5b6100bf6100bc366004610c20565b50565b005b6100c9610189565b6040519081526020015b60405180910390f35b6100c961019c565b6100ec6101af565b6040516001600160a01b0390911681526020016100d3565b6100bf610112366004610c20565b6101cb565b61011f61058c565b60405160ff90911681526020016100d3565b61013961059f565b6040516100d39190610c92565b6100c9610154366004610c20565b6105f1565b61016161061d565b6040516100d39190610cd7565b6100c961017c366004610cea565b6106b8565b6100ec6106f6565b6000610193610715565b60030154905090565b60006101a66107a1565b60020154905090565b60006101b9610715565b600101546001600160a01b0316919050565b6040805160088082526101208201909252600091816020015b6040805180820190915260008152606060208201528152602001906001900390816101e457905050905060405180604001604052806395d89b4160e01b6001600160e01b03191681526020016040518060400160405280600881526020016773796d626f6c282960c01b8152508152508160008151811061026757610267610d33565b60200260200101819052506040518060400160405280631d14384860e01b6001600160e01b031916815260200160405180604001604052806008815260200167697373756572282960c01b815250815250816001815181106102cb576102cb610d33565b6020026020010181905250604051806040016040528063e517fedd60e01b6001600160e01b03191681526020016040518060400160405280600f81526020016e6f726967696e41646472657373282960881b8152508152508160028151811061033657610336610d33565b60200260200101819052506040518060400160405280630ac7f56160e01b6001600160e01b03191681526020016040518060400160405280600f81526020016e6f726967696e436861696e4964282960881b815250815250816003815181106103a1576103a1610d33565b6020026020010181905250604051806040016040528063313ce56760e01b6001600160e01b03191681526020016040518060400160405280600a815260200169646563696d616c73282960b01b8152508152508160048151811061040757610407610d33565b602002602001018190525060405180604001604052806318160ddd60e01b6001600160e01b03191681526020016040518060400160405280600d81526020016c746f74616c537570706c79282960981b8152508152508160058151811061047057610470610d33565b602002602001018190525060405180604001604052806370a0823160e01b6001600160e01b03191681526020016040518060400160405280601281526020017162616c616e63654f6628616464726573732960701b815250815250816006815181106104de576104de610d33565b6020026020010181905250604051806040016040528063dd62ed3e60e01b6001600160e01b03191681526020016040518060400160405280601a81526020017f616c6c6f77616e636528616464726573732c61646472657373290000000000008152508152508160078151811061055757610557610d33565b60200260200101819052506105886040518060400160405280846001600160a01b0316815260200183815250610806565b5050565b60006105966107a1565b5460ff16919050565b6105a7610bc8565b5060408051608081018252600c8183019081526b115490cc8c125b999bd15e1d60a21b60608301528152815180830190925260018252600060208381019190915281019190915290565b60006105fb6107a1565b6001600160a01b03909216600090815260039290920160205250604090205490565b6060610627610715565b600401805461063590610d49565b80601f016020809104026020016040519081016040528092919081815260200182805461066190610d49565b80156106ae5780601f10610683576101008083540402835291602001916106ae565b820191906000526020600020905b81548152906001019060200180831161069157829003601f168201915b5050505050905090565b60006106c26107a1565b6001600160a01b03808516600090815260049290920160209081526040808420928616845291905290205490505b92915050565b6000610700610715565b546201000090046001600160a01b0316919050565b60408051808201909152601381527278722e61737365742e73746f726167652e763160681b60209091015260008060ff61077060017f0db46b7c34197dfe4fa603e9c17ca5ed137d4afe720a374e843bbcf1431eaeb7610d99565b60405160200161078291815260200190565b60408051601f1981840301815291905280516020909101201692915050565b60408051808201909152601981527f78722e65726332302e61737365742e73746f726167652e76310000000000000060209091015260008060ff61077060017f3139feec972a01e581c6c4f7f95f108002217f0982e61e19cad72b737ad6c32a610d99565b60006108106109d2565b82516001600160a01b031660009081526020829052604081209192505b8360200151518110156109cc5760008460200151828151811061085257610852610d33565b6020908102919091018101518051600486810180546001808201835560009283528683206008830401805463ffffffff600790941690950261010090810a9384021990951660e09690961c9290920294909417905583516001600160e01b0319168152918801909352604090208054919350916001600160a01b039104161561095457805461010090046001600160a01b031660009081526020869052604081208751909190600187019061090690610a37565b602080870151604051610920949392600188019101610e49565b60405160208183030381529060405290508060405162461bcd60e51b815260040161094b9190610cd7565b60405180910390fd5b50604080518082018252600180825287516001600160a01b03908116602080850191825295516001600160e01b0319166000908152898401909652939094209151825493516001600160a81b0319909416901515610100600160a81b031916176101009390941692909202929092179091550161082d565b50505050565b60408051808201909152601881527f78722e657874656e73696f6e732e73746f726167652e7631000000000000000060209091015260008060ff61077060017fb58ec9ca7ba0606d9fecd9f559655d0e5fec418e6751b65b892bccdfd25eb99f610d99565b60606106f06001600160a01b03831660146060826000610a58846002610f33565b610a63906002610f4a565b67ffffffffffffffff811115610a7b57610a7b610d1d565b6040519080825280601f01601f191660200182016040528015610aa5576020820181803683370190505b509050600360fc1b81600081518110610ac057610ac0610d33565b60200101906001600160f81b031916908160001a905350600f60fb1b81600181518110610aef57610aef610d33565b60200101906001600160f81b031916908160001a9053506000610b13856002610f33565b610b1e906001610f4a565b90505b6001811115610b96576f181899199a1a9b1b9c1cb0b131b232b360811b83600f1660108110610b5257610b52610d33565b1a60f81b828281518110610b6857610b68610d33565b60200101906001600160f81b031916908160001a90535060049290921c91610b8f81610f5d565b9050610b21565b508115610bc05760405163e22e27eb60e01b8152600481018690526024810185905260440161094b565b949350505050565b604051806040016040528060608152602001610bff6040518060400160405280600061ffff168152602001600061ffff1681525090565b905290565b80356001600160a01b0381168114610c1b57600080fd5b919050565b600060208284031215610c3257600080fd5b610c3b82610c04565b9392505050565b60005b83811015610c5d578181015183820152602001610c45565b50506000910152565b60008151808452610c7e816020860160208601610c42565b601f01601f19169290920160200192915050565b602081526000825160606020840152610cae6080840182610c66565b602094850151805161ffff90811660408701529501519094166060909301929092525090919050565b602081526000610c3b6020830184610c66565b60008060408385031215610cfd57600080fd5b610d0683610c04565b9150610d1460208401610c04565b90509250929050565b634e487b7160e01b600052604160045260246000fd5b634e487b7160e01b600052603260045260246000fd5b600181811c90821680610d5d57607f821691505b602082108103610d7d57634e487b7160e01b600052602260045260246000fd5b50919050565b634e487b7160e01b600052601160045260246000fd5b818103818111156106f0576106f0610d83565b8054600090600181811c9080831680610dc657607f831692505b60208084108203610de757634e487b7160e01b600052602260045260246000fd5b818015610dfb5760018114610e1057610e3d565b60ff1986168952841515850289019650610e3d565b60008881526020902060005b86811015610e355781548b820152908501908301610e1c565b505084890196505b50505050505092915050565b7f4c6962457874656e73696f6e3a20657874656e73696f6e20000000000000000081526000610e7b6018830187610dac565b6c01030ba1030b2323932b9b99d1609d1b81528551610ea181600d840160208a01610c42565b8082019150507f20617474656d7074696e6720746f20726575736520612073656c6563746f723a600d820152600160fd1b80602d8301528551610eeb81602e850160208a01610c42565b7f2c20776869636820697320616c72656164792072656769737465726564206279602e9390910192830152604e820152610f28604f820185610dac565b979650505050505050565b80820281158282048414176106f0576106f0610d83565b808201808211156106f0576106f0610d83565b600081610f6c57610f6c610d83565b50600019019056fea26469706673582212206a5b2a2adf6c304ff81d609a783bee663dffffc3a13179366ad2be25dbfb9a9864736f6c63430008180033",
  "linkReferences": {},
  "deployedLinkReferences": {}
}