{
  "_format": "hh-sol-artifact-1",
  "contractName": "ERC721Registry",
  "sourceName": "contracts/asset/registry/ERC721Registry.sol",
  "abi": [
    {
      "inputs": [
        {
          "components": [
            {
              "internalType": "address",
              "name": "owner",
              "type": "address"
            },
            {
              "internalType": "address",
              "name": "extensionsRegistry",
              "type": "address"
            },
            {
              "internalType": "address[]",
              "name": "admins",
              "type": "address[]"
            }
          ],
          "internalType": "struct ERC721RegistryConstructorArgs",
          "name": "args",
          "type": "tuple"
        }
      ],
      "stateMutability": "nonpayable",
      "type": "constructor"
    },
    {
      "anonymous": false,
      "inputs": [
        {
          "indexed": false,
          "internalType": "string",
          "name": "name",
          "type": "string"
        }
      ],
      "name": "ExtensionDisabled",
      "type": "event"
    },
    {
      "anonymous": false,
      "inputs": [
        {
          "indexed": false,
          "internalType": "string",
          "name": "name",
          "type": "string"
        }
      ],
      "name": "ExtensionEnabled",
      "type": "event"
    },
    {
      "anonymous": false,
      "inputs": [
        {
          "indexed": false,
          "internalType": "string",
          "name": "name",
          "type": "string"
        },
        {
          "components": [
            {
              "internalType": "uint16",
              "name": "major",
              "type": "uint16"
            },
            {
              "internalType": "uint16",
              "name": "minor",
              "type": "uint16"
            }
          ],
          "indexed": false,
          "internalType": "struct Version",
          "name": "version",
          "type": "tuple"
        }
      ],
      "name": "ExtensionInstalled",
      "type": "event"
    },
    {
      "anonymous": false,
      "inputs": [
        {
          "indexed": false,
          "internalType": "string",
          "name": "name",
          "type": "string"
        },
        {
          "components": [
            {
              "internalType": "uint16",
              "name": "major",
              "type": "uint16"
            },
            {
              "internalType": "uint16",
              "name": "minor",
              "type": "uint16"
            }
          ],
          "indexed": false,
          "internalType": "struct Version",
          "name": "version",
          "type": "tuple"
        }
      ],
      "name": "ExtensionRolledBack",
      "type": "event"
    },
    {
      "anonymous": false,
      "inputs": [
        {
          "indexed": false,
          "internalType": "string",
          "name": "name",
          "type": "string"
        },
        {
          "components": [
            {
              "internalType": "uint16",
              "name": "major",
              "type": "uint16"
            },
            {
              "internalType": "uint16",
              "name": "minor",
              "type": "uint16"
            }
          ],
          "indexed": false,
          "internalType": "struct Version",
          "name": "version",
          "type": "tuple"
        }
      ],
      "name": "ExtensionUpgraded",
      "type": "event"
    },
    {
      "anonymous": false,
      "inputs": [
        {
          "indexed": false,
          "internalType": "bytes4",
          "name": "selector",
          "type": "bytes4"
        }
      ],
      "name": "SelectorDisabled",
      "type": "event"
    },
    {
      "anonymous": false,
      "inputs": [
        {
          "indexed": false,
          "internalType": "bytes4",
          "name": "selector",
          "type": "bytes4"
        }
      ],
      "name": "SelectorEnabled",
      "type": "event"
    },
    {
      "stateMutability": "payable",
      "type": "fallback"
    },
    {
      "inputs": [],
      "name": "extRegistry",
      "outputs": [
        {
          "internalType": "contract ICoreExtensionRegistry",
          "name": "",
          "type": "address"
        }
      ],
      "stateMutability": "view",
      "type": "function"
    },
    {
      "inputs": [
        {
          "internalType": "string",
          "name": "name",
          "type": "string"
        }
      ],
      "name": "getExtensionVersion",
      "outputs": [
        {
          "components": [
            {
              "internalType": "uint16",
              "name": "major",
              "type": "uint16"
            },
            {
              "internalType": "uint16",
              "name": "minor",
              "type": "uint16"
            }
          ],
          "internalType": "struct Version",
          "name": "",
          "type": "tuple"
        }
      ],
      "stateMutability": "view",
      "type": "function"
    },
    {
      "inputs": [
        {
          "internalType": "string",
          "name": "name",
          "type": "string"
        },
        {
          "components": [
            {
              "internalType": "uint16",
              "name": "major",
              "type": "uint16"
            },
            {
              "internalType": "uint16",
              "name": "minor",
              "type": "uint16"
            }
          ],
          "internalType": "struct Version",
          "name": "version",
          "type": "tuple"
        }
      ],
      "name": "hasExtension",
      "outputs": [
        {
          "internalType": "bool",
          "name": "",
          "type": "bool"
        }
      ],
      "stateMutability": "view",
      "type": "function"
    },
    {
      "inputs": [
        {
          "internalType": "uint256",
          "name": "amount",
          "type": "uint256"
        }
      ],
      "name": "withdraw",
      "outputs": [],
      "stateMutability": "nonpayable",
      "type": "function"
    },
    {
      "stateMutability": "payable",
      "type": "receive"
    }
  ],
  "bytecode": "0x60a06040523480156200001157600080fd5b5060405162001bd538038062001bd5833981016040819052620000349162000b95565b60208101516001600160a01b038116620000bb5760405162461bcd60e51b815260206004820152603560248201527f42617369635368656c6c3a20657874656e73696f6e207265676973747279206360448201527f616e6e6f74206265207a65726f2061646472657373000000000000000000000060648201526084015b60405180910390fd5b6001600160a01b031660805260408051600480825260a08201909252600091816020015b6060815260200190600190039081620000df579050509050604051806040016040528060098152602001681058d8d95cdcd15e1d60ba1b815250816000815181106200012f576200012f62000ca5565b60200260200101819052506040518060400160405280600a815260200169119858dd1bdc9e515e1d60b21b8152508160018151811062000173576200017362000ca5565b60200260200101819052506040518060400160405280601481526020017f4173736574526567697374726174696f6e45787400000000000000000000000081525081600281518110620001ca57620001ca62000ca5565b60200260200101819052506040518060400160405280600f81526020016e105cdcd95d14995b5bdd985b115e1d608a1b8152508160038151811062000213576200021362000ca5565b60200260200101819052506000604051806060016040528084600001516001600160a01b03168152602001846040015181526020018381525090506200025f816200026860201b60201c565b5050506200112c565b60005b816040015151811015620003c8578160400151818151811062000292576200029262000ca5565b60200260200101515160000315620003bf5760006080516001600160a01b031663c22707ee84604001518481518110620002d057620002d062000ca5565b60200260200101516040518263ffffffff1660e01b8152600401620002f6919062000d0f565b602060405180830381865afa15801562000314573d6000803e3d6000fd5b505050506040513d601f19601f820116820180604052508101906200033a919062000d2b565b905060008360400151838151811062000357576200035762000ca5565b602002602001015160405160200162000371919062000d49565b60408051601f198184030181529190529050806001600160a01b038316620003ae5760405162461bcd60e51b8152600401620000b2919062000d0f565b5081620003bb816200043c565b5050505b6001016200026b565b508051602082015160405163d9ac971f60e01b815273__$a5a42e46683ad9c79b7b86d5ff60fdf4c1$__9263d9ac971f92620004079260040162000d9a565b60006040518083038186803b1580156200042057600080fd5b505af415801562000435573d6000803e3d6000fd5b5050505050565b600062000448620007e2565b90506040518060800160405280600115158152602001836001600160a01b031663392f37e96040518163ffffffff1660e01b8152600401600060405180830381865afa1580156200049d573d6000803e3d6000fd5b505050506040513d6000823e601f3d908101601f19168201604052620004c7919081019062000e50565b81526001600160a01b0384166020820152604001600060405190808252806020026020018201604052801562000507578160200160208202803683370190505b5090526001600160a01b0383166000908152602083815260409091208251815460ff1916901515178155908201518051600183019081906200054a908262000fc3565b506020918201518051600190920180549184015161ffff908116620100000263ffffffff1990931693169290921717905560408301516003830180546001600160a01b039092166001600160a01b031990921691909117905560608301518051620005bc926004850192019062000a1f565b50505060038101805460018101825560009182526020918290200180546001600160a01b0319166001600160a01b038516908117909155604080516024808201939093528151808203909301835260440190529081018051632a1b8f9b60e01b6001600160e01b03918216179091526200063b90849083906200087b16565b506000836001600160a01b031663392f37e96040518163ffffffff1660e01b8152600401600060405180830381865afa1580156200067d573d6000803e3d6000fd5b505050506040513d6000823e601f3d908101601f19168201604052620006a7919081019062000e50565b8051909150600090620006ba9062000952565b905060006001600160a01b03168460020182604051620006db91906200108f565b908152604051908190036020019020546001600160a01b031614620007555760405162461bcd60e51b815260206004820152602960248201527f4c6962457874656e73696f6e3a20657874656e73696f6e20616c7265616479206044820152681a5b9cdd185b1b195960ba1b6064820152608401620000b2565b8484600201826040516200076a91906200108f565b908152602001604051809103902060006101000a8154816001600160a01b0302191690836001600160a01b031602179055507ffe9a3a52d7e1a3740350821816e344a482f9611bc09285fa4132de9645b41bae818360200151604051620007d3929190620010ad565b60405180910390a15050505050565b60408051808201909152601881527f78722e657874656e73696f6e732e73746f726167652e7631000000000000000060209091015260008060ff6200084960017fb58ec9ca7ba0606d9fecd9f559655d0e5fec418e6751b65b892bccdfd25eb99f620010fa565b6040516020016200085c91815260200190565b60408051601f1981840301815291905280516020909101201692915050565b6060600080846001600160a01b0316846040516200089a91906200108f565b600060405180830381855af49150503d8060008114620008d7576040519150601f19603f3d011682016040523d82523d6000602084013e620008dc565b606091505b50915091508115620008f25791506200094c9050565b805115620009035780518082602001fd5b60405162461bcd60e51b815260206004820152601660248201527f46756e6374696f6e2063616c6c207265766572746564000000000000000000006044820152606401620000b2565b92915050565b60608160005b8151811015620009c557620009908282815181106200097b576200097b62000ca5565b01602001516001600160f81b031916620009cc565b828281518110620009a557620009a562000ca5565b60200101906001600160f81b031916908160001a90535060010162000958565b5092915050565b6000604160f81b6001600160f81b0319831610801590620009fb5750602d60f91b6001600160f81b0319831611155b1562000a1b5762000a1260f883901c602062001110565b60f81b92915050565b5090565b8280548282559060005260206000209060070160089004810192821562000ac05791602002820160005b8382111562000a8c57835183826101000a81548163ffffffff021916908360e01c0217905550926020019260040160208160030104928301926001030262000a49565b801562000abe5782816101000a81549063ffffffff021916905560040160208160030104928301926001030262000a8c565b505b5062000a1b9291505b8082111562000a1b576000815560010162000ac9565b634e487b7160e01b600052604160045260246000fd5b604051606081016001600160401b038111828210171562000b1a5762000b1a62000adf565b60405290565b604080519081016001600160401b038111828210171562000b1a5762000b1a62000adf565b604051601f8201601f191681016001600160401b038111828210171562000b705762000b7062000adf565b604052919050565b80516001600160a01b038116811462000b9057600080fd5b919050565b6000602080838503121562000ba957600080fd5b82516001600160401b038082111562000bc157600080fd5b908401906060828703121562000bd657600080fd5b62000be062000af5565b62000beb8362000b78565b815262000bfa84840162000b78565b8482015260408301518281111562000c1157600080fd5b80840193505086601f84011262000c2757600080fd5b82518281111562000c3c5762000c3c62000adf565b8060051b925062000c4f85840162000b45565b818152928401850192858101908985111562000c6a57600080fd5b948601945b8486101562000c935762000c838662000b78565b8252948601949086019062000c6f565b60408401525090979650505050505050565b634e487b7160e01b600052603260045260246000fd5b60005b8381101562000cd857818101518382015260200162000cbe565b50506000910152565b6000815180845262000cfb81602086016020860162000cbb565b601f01601f19169290920160200192915050565b60208152600062000d24602083018462000ce1565b9392505050565b60006020828403121562000d3e57600080fd5b62000d248262000b78565b7f42617369635368656c6c3a20657874656e73696f6e206e6f7420666f756e643a8152600160fd1b60208201526000825162000d8d81602185016020870162000cbb565b9190910160210192915050565b6001600160a01b038381168252604060208084018290528451918401829052600092858201929091906060860190855b8181101562000dea57855185168352948301949183019160010162000dca565b509098975050505050505050565b805161ffff8116811462000b9057600080fd5b60006040828403121562000e1e57600080fd5b62000e2862000b20565b905062000e358262000df8565b815262000e456020830162000df8565b602082015292915050565b6000602080838503121562000e6457600080fd5b82516001600160401b038082111562000e7c57600080fd5b908401906060828703121562000e9157600080fd5b62000e9b62000b20565b82518281111562000eab57600080fd5b8301601f8101881362000ebd57600080fd5b80518381111562000ed25762000ed262000adf565b62000ee6601f8201601f1916870162000b45565b9350808452888682840101111562000efd57600080fd5b62000f0e8187860188850162000cbb565b505081815262000f218785850162000e0b565b848201528094505050505092915050565b600181811c9082168062000f4757607f821691505b60208210810362000f6857634e487b7160e01b600052602260045260246000fd5b50919050565b601f82111562000fbe576000816000526020600020601f850160051c8101602086101562000f995750805b601f850160051c820191505b8181101562000fba5782815560010162000fa5565b5050505b505050565b81516001600160401b0381111562000fdf5762000fdf62000adf565b62000ff78162000ff0845462000f32565b8462000f6e565b602080601f8311600181146200102f5760008415620010165750858301515b600019600386901b1c1916600185901b17855562000fba565b600085815260208120601f198616915b8281101562001060578886015182559484019460019091019084016200103f565b50858210156200107f5787850151600019600388901b60f8161c191681555b5050505050600190811b01905550565b60008251620010a381846020870162000cbb565b9190910192915050565b606081526000620010c2606083018562000ce1565b905061ffff808451166020840152806020850151166040840152509392505050565b634e487b7160e01b600052601160045260246000fd5b818103818111156200094c576200094c620010e4565b60ff81811683821601908111156200094c576200094c620010e4565b608051610a8d62001148600039600061011d0152610a8d6000f3fe6080604052600436106100435760003560e01c8063238a0386146100725780632e1a7d4d146100b957806347d1d09a146100db5780638a8547711461010b5761004a565b3661004a57005b600080356001600160e01b0319169050600061006882600036610157565b9050805160208201f35b34801561007e57600080fd5b5061009261008d366004610806565b61016c565b60408051825161ffff90811682526020938401511692810192909252015b60405180910390f35b3480156100c557600080fd5b506100d96100d436600461083b565b6101fb565b005b3480156100e757600080fd5b506100fb6100f6366004610854565b6103b8565b60405190151581526020016100b0565b34801561011757600080fd5b5061013f7f000000000000000000000000000000000000000000000000000000000000000081565b6040516001600160a01b0390911681526020016100b0565b606061016484848461043c565b949350505050565b6040805180820182526000808252602082015290516311c501c360e11b815273__$307c3a572bdf5d9800a89b3fc2eb3d5604$__9063238a0386906101b59085906004016108fe565b6040805180830381865af41580156101d1573d6000803e3d6000fd5b505050506040513d601f19601f820116820180604052508101906101f59190610924565b92915050565b604051630935e01b60e21b815233600482015273__$a5a42e46683ad9c79b7b86d5ff60fdf4c1$__906324d7806c90602401602060405180830381865af415801561024a573d6000803e3d6000fd5b505050506040513d601f19601f8201168201806040525081019061026e9190610983565b6102bf5760405162461bcd60e51b815260206004820181905260248201527f42617369635368656c6c3a207265737472696374656420746f2061646d696e7360448201526064015b60405180910390fd5b4781111561030f5760405162461bcd60e51b815260206004820181905260248201527f42617369635368656c6c3a20696e73756666696369656e742062616c616e636560448201526064016102b6565b73__$a5a42e46683ad9c79b7b86d5ff60fdf4c1$__638da5cb5b6040518163ffffffff1660e01b8152600401602060405180830381865af4158015610358573d6000803e3d6000fd5b505050506040513d601f19601f8201168201806040525081019061037c91906109a5565b6001600160a01b03166108fc829081150290604051600060405180830381858888f193505050501580156103b4573d6000803e3d6000fd5b5050565b6040516329925a7160e11b815260009073__$307c3a572bdf5d9800a89b3fc2eb3d5604$__90635324b4e2906103f490869086906004016109ce565b602060405180830381865af4158015610411573d6000803e3d6000fd5b505050506040513d601f19601f820116820180604052508101906104359190610983565b9392505050565b6060600061044861060b565b6001600160e01b031986166000908152600182016020526040902080549192509061010090046001600160a01b03166104db5760405162461bcd60e51b815260206004820152602f60248201527f4c6962457874656e73696f6e3a206e6f20657874656e73696f6e20737570706f60448201526e393a399033371039b2b632b1ba37b960891b60648201526084016102b6565b805460ff166105375760405162461bcd60e51b815260206004820152602260248201527f4c6962457874656e73696f6e3a2073656c6563746f72206e6f7420656e61626c604482015261195960f21b60648201526084016102b6565b805461010090046001600160a01b03166000908152602083905260409020805460ff166105b25760405162461bcd60e51b815260206004820152602360248201527f4c6962457874656e73696f6e3a20657874656e73696f6e206e6f7420656e61626044820152621b195960ea1b60648201526084016102b6565b8154604080516020601f89018190048102820181019092528781526106009261010090046001600160a01b03169189908990819084018382808284376000920191909152506106a192505050565b979650505050505050565b60408051808201909152601881527f78722e657874656e73696f6e732e73746f726167652e7631000000000000000060209091015260008060ff61067060017fb58ec9ca7ba0606d9fecd9f559655d0e5fec418e6751b65b892bccdfd25eb99f610a1a565b60405160200161068291815260200190565b60408051601f1981840301815291905280516020909101201692915050565b6060600080846001600160a01b0316846040516106be9190610a3b565b600060405180830381855af49150503d80600081146106f9576040519150601f19603f3d011682016040523d82523d6000602084013e6106fe565b606091505b509150915081156107125791506101f59050565b8051156107225780518082602001fd5b60405162461bcd60e51b8152602060048201526016602482015275119d5b98dd1a5bdb8818d85b1b081c995d995c9d195960521b60448201526064016102b6565b634e487b7160e01b600052604160045260246000fd5b600082601f83011261078a57600080fd5b813567ffffffffffffffff808211156107a5576107a5610763565b604051601f8301601f19908116603f011681019082821181831017156107cd576107cd610763565b816040528381528660208588010111156107e657600080fd5b836020870160208301376000602085830101528094505050505092915050565b60006020828403121561081857600080fd5b813567ffffffffffffffff81111561082f57600080fd5b61016484828501610779565b60006020828403121561084d57600080fd5b5035919050565b600080828403606081121561086857600080fd5b833567ffffffffffffffff81111561087f57600080fd5b61088b86828701610779565b9350506040601f19820112156108a057600080fd5b506020830190509250929050565b60005b838110156108c95781810151838201526020016108b1565b50506000910152565b600081518084526108ea8160208601602086016108ae565b601f01601f19169290920160200192915050565b60208152600061043560208301846108d2565b61ffff8116811461092157600080fd5b50565b60006040828403121561093657600080fd5b6040516040810181811067ffffffffffffffff8211171561095957610959610763565b604052825161096781610911565b8152602083015161097781610911565b60208201529392505050565b60006020828403121561099557600080fd5b8151801515811461043557600080fd5b6000602082840312156109b757600080fd5b81516001600160a01b038116811461043557600080fd5b6060815260006109e160608301856108d2565b905082356109ee81610911565b61ffff808216602085015260208501359150610a0982610911565b808216604085015250509392505050565b818103818111156101f557634e487b7160e01b600052601160045260246000fd5b60008251610a4d8184602087016108ae565b919091019291505056fea2646970667358221220578c8b5673a6ef48d297b69b692d804da2ee9b140023036028ee56ff72e7125d64736f6c63430008180033",
  "linkReferences": {
    "contracts/libraries/LibAccess.sol": {
      "LibAccess": [
        {
          "length": 20,
          "start": 991
        },
        {
          "length": 20,
          "start": 4952
        },
        {
          "length": 20,
          "start": 5209
        }
      ]
    },
    "contracts/libraries/LibExtensions.sol": {
      "LibExtensions": [
        {
          "length": 20,
          "start": 4821
        },
        {
          "length": 20,
          "start": 5394
        }
      ]
    }
  },
  "deployedLinkReferences": {
    "contracts/libraries/LibAccess.sol": {
      "LibAccess": [
        {
          "length": 20,
          "start": 528
        },
        {
          "length": 20,
          "start": 785
        }
      ]
    },
    "contracts/libraries/LibExtensions.sol": {
      "LibExtensions": [
        {
          "length": 20,
          "start": 397
        },
        {
          "length": 20,
          "start": 970
        }
      ]
    }
  }
}