{
  "_format": "hh-sol-artifact-1",
  "contractName": "ExperienceInfoExt",
  "sourceName": "contracts/extensions/experience/ExperienceInfoExt.sol",
  "abi": [
    {
      "inputs": [
        {
          "internalType": "uint256",
          "name": "value",
          "type": "uint256"
        },
        {
          "internalType": "uint256",
          "name": "length",
          "type": "uint256"
        }
      ],
      "name": "StringsInsufficientHexLength",
      "type": "error"
    },
    {
      "anonymous": false,
      "inputs": [
        {
          "indexed": false,
          "internalType": "bytes",
          "name": "newDetails",
          "type": "bytes"
        }
      ],
      "name": "ConnectionDetailsChanged",
      "type": "event"
    },
    {
      "inputs": [],
      "name": "company",
      "outputs": [
        {
          "internalType": "address",
          "name": "",
          "type": "address"
        }
      ],
      "stateMutability": "view",
      "type": "function"
    },
    {
      "inputs": [],
      "name": "connectionDetails",
      "outputs": [
        {
          "internalType": "bytes",
          "name": "",
          "type": "bytes"
        }
      ],
      "stateMutability": "view",
      "type": "function"
    },
    {
      "inputs": [],
      "name": "entryFee",
      "outputs": [
        {
          "internalType": "uint256",
          "name": "",
          "type": "uint256"
        }
      ],
      "stateMutability": "view",
      "type": "function"
    },
    {
      "inputs": [
        {
          "internalType": "address",
          "name": "myAddress",
          "type": "address"
        }
      ],
      "name": "install",
      "outputs": [],
      "stateMutability": "nonpayable",
      "type": "function"
    },
    {
      "inputs": [],
      "name": "metadata",
      "outputs": [
        {
          "components": [
            {
              "internalType": "string",
              "name": "name",
              "type": "string"
            },
            {
              "components": [
                {
                  "internalType": "uint16",
                  "name": "major",
                  "type": "uint16"
                },
                {
                  "internalType": "uint16",
                  "name": "minor",
                  "type": "uint16"
                }
              ],
              "internalType": "struct Version",
              "name": "version",
              "type": "tuple"
            }
          ],
          "internalType": "struct ExtensionMetadata",
          "name": "",
          "type": "tuple"
        }
      ],
      "stateMutability": "pure",
      "type": "function"
    },
    {
      "inputs": [
        {
          "internalType": "bytes",
          "name": "details",
          "type": "bytes"
        }
      ],
      "name": "setConnectionDetails",
      "outputs": [],
      "stateMutability": "nonpayable",
      "type": "function"
    },
    {
      "inputs": [
        {
          "internalType": "address",
          "name": "myAddress",
          "type": "address"
        }
      ],
      "name": "upgrade",
      "outputs": [],
      "stateMutability": "nonpayable",
      "type": "function"
    },
    {
      "inputs": [],
      "name": "vectorAddress",
      "outputs": [
        {
          "components": [
            {
              "internalType": "string",
              "name": "x",
              "type": "string"
            },
            {
              "internalType": "string",
              "name": "y",
              "type": "string"
            },
            {
              "internalType": "string",
              "name": "z",
              "type": "string"
            },
            {
              "internalType": "uint256",
              "name": "t",
              "type": "uint256"
            },
            {
              "internalType": "uint256",
              "name": "p",
              "type": "uint256"
            },
            {
              "internalType": "uint256",
              "name": "p_sub",
              "type": "uint256"
            }
          ],
          "internalType": "struct VectorAddress",
          "name": "",
          "type": "tuple"
        }
      ],
      "stateMutability": "view",
      "type": "function"
    },
    {
      "inputs": [],
      "name": "world",
      "outputs": [
        {
          "internalType": "address",
          "name": "",
          "type": "address"
        }
      ],
      "stateMutability": "view",
      "type": "function"
    }
  ],
  "bytecode": "0x608060405234801561001057600080fd5b506115d8806100206000396000f3fe608060405234801561001057600080fd5b50600436106100935760003560e01c80632fcbab9a116100665780632fcbab9a146100ee57806330b67baa14610103578063392f37e9146101235780636904c94d14610138578063f2aca27d1461014057600080fd5b8063072ea61c146100985780630900f010146100b35780631864a47c146100c65780632a1b8f9b146100db575b600080fd5b6100a0610153565b6040519081526020015b60405180910390f35b6100c46100c1366004611025565b50565b005b6100ce610163565b6040516100aa9190611099565b6100c46100e9366004611025565b6101fe565b6100f66104eb565b6040516100aa91906110ac565b61010b610713565b6040516001600160a01b0390911681526020016100aa565b61012b61079a565b6040516100aa919061112f565b61010b6107f1565b6100c461014e36600461118a565b610810565b600061015d610b15565b54919050565b606061016d610b15565b600101805461017b9061123b565b80601f01602080910402602001604051908101604052809291908181526020018280546101a79061123b565b80156101f45780601f106101c9576101008083540402835291602001916101f4565b820191906000526020600020905b8154815290600101906020018083116101d757829003601f168201915b5050505050905090565b60408051600680825260e08201909252600091816020015b6040805180820190915260008152606060208201528152602001906001900390816102165790505090506040518060400160405280636904c94d60e01b6001600160e01b031916815260200160405180604001604052806009815260200168636f6d70616e79282960b81b8152508152508160008151811061029a5761029a611275565b602002602001018190525060405180604001604052806330b67baa60e01b6001600160e01b031916815260200160405180604001604052806007815260200166776f726c64282960c81b815250815250816001815181106102fd576102fd611275565b60200260200101819052506040518060400160405280632fcbab9a60e01b6001600160e01b03191681526020016040518060400160405280600f81526020016e766563746f7241646472657373282960881b8152508152508160028151811061036857610368611275565b6020026020010181905250604051806040016040528063072ea61c60e01b6001600160e01b03191681526020016040518060400160405280600a815260200169656e747279466565282960b01b815250815250816003815181106103ce576103ce611275565b6020026020010181905250604051806040016040528063f2aca27d60e01b6001600160e01b03191681526020016040518060400160405280601b81526020017f736574436f6e6e656374696f6e44657461696c732862797465732900000000008152508152508160048151811061044757610447611275565b60200260200101819052506040518060400160405280631864a47c60e01b6001600160e01b031916815260200160405180604001604052806013815260200172636f6e6e656374696f6e44657461696c73282960681b815250815250816005815181106104b6576104b6611275565b60200260200101819052506104e76040518060400160405280846001600160a01b0316815260200183815250610bab565b5050565b6105246040518060c001604052806060815260200160608152602001606081526020016000815260200160008152602001600081525090565b61052c610d6e565b6003016040518060c001604052908160008201805461054a9061123b565b80601f01602080910402602001604051908101604052809291908181526020018280546105769061123b565b80156105c35780601f10610598576101008083540402835291602001916105c3565b820191906000526020600020905b8154815290600101906020018083116105a657829003601f168201915b505050505081526020016001820180546105dc9061123b565b80601f01602080910402602001604051908101604052809291908181526020018280546106089061123b565b80156106555780601f1061062a57610100808354040283529160200191610655565b820191906000526020600020905b81548152906001019060200180831161063857829003601f168201915b5050505050815260200160028201805461066e9061123b565b80601f016020809104026020016040519081016040528092919081815260200182805461069a9061123b565b80156106e75780601f106106bc576101008083540402835291602001916106e7565b820191906000526020600020905b8154815290600101906020018083116106ca57829003601f168201915b505050505081526020016003820154815260200160048201548152602001600582015481525050905090565b600061071d610d6e565b60000160029054906101000a90046001600160a01b03166001600160a01b03166330b67baa6040518163ffffffff1660e01b8152600401602060405180830381865afa158015610771573d6000803e3d6000fd5b505050506040513d601f19601f82011682018060405250810190610795919061128b565b905090565b6107a2610fd4565b5060408051608081018252601181830190815270115e1c195c9a595b98d9525b999bd15e1d607a1b60608301528152815180830190925260018252600060208381019190915281019190915290565b60006107fb610d6e565b546201000090046001600160a01b0316919050565b6000306001600160a01b031663c51aba2b6040518163ffffffff1660e01b8152600401602060405180830381865afa158015610850573d6000803e3d6000fd5b505050506040513d601f19601f82011682018060405250810190610874919061128b565b90506001600160a01b0381166108db5760405162461bcd60e51b815260206004820152602160248201527f436f6d70616e793a20636f6d70616e79207265676973747279206e6f742073656044820152601d60fa1b60648201526084015b60405180910390fd5b60405163c3c5a54760e01b81523360048201526001600160a01b0382169063c3c5a54790602401602060405180830381865afa15801561091f573d6000803e3d6000fd5b505050506040513d601f19601f8201168201806040525081019061094391906112a8565b6109a35760405162461bcd60e51b815260206004820152602b60248201527f436f6d70616e793a2063616c6c6572206973206e6f742061207265676973746560448201526a72656420636f6d70616e7960a81b60648201526084016108d2565b336109ac6107f1565b6001600160a01b031614610a145760405162461bcd60e51b815260206004820152602960248201527f436f6d70616e793a2063616c6c6572206973206e6f7420746865206f776e696e6044820152686720636f6d70616e7960b81b60648201526084016108d2565b336001600160a01b03166386b70bed6040518163ffffffff1660e01b8152600401602060405180830381865afa158015610a52573d6000803e3d6000fd5b505050506040513d601f19601f82011682018060405250810190610a7691906112a8565b610ac25760405162461bcd60e51b815260206004820152601e60248201527f436f6d70616e793a20636f6d70616e79206973206e6f7420616374697665000060448201526064016108d2565b81610acb610b15565b60010190610ad9908261131b565b507f2bb826dd17b3affe28ccd3331372cfad3ce4190525768df69719995a6d75478982604051610b099190611099565b60405180910390a15050565b60408051808201909152601881527f78722e657870657269656e63652e73746f726167652e7631000000000000000060209091015260008060ff610b7a60017fa13db16759b7af0e556c9648625a58e6d20b5ce76e5139c1b3ce33248c0a88526113f1565b604051602001610b8c91815260200190565b60408051601f1981840301815291905280516020909101201692915050565b6000610bb5610dd3565b82516001600160a01b031660009081526020829052604081209192505b836020015151811015610d6857600084602001518281518110610bf757610bf7611275565b6020908102919091018101518051600486810180546001808201835560009283528683206008830401805463ffffffff600790941690950261010090810a9384021990951660e09690961c9290920294909417905583516001600160e01b0319168152918801909352604090208054919350916001600160a01b0391041615610cf057805461010090046001600160a01b0316600090815260208690526040812087519091906001870190610cab90610e38565b602080870151604051610cc5949392600188019101611477565b60405160208183030381529060405290508060405162461bcd60e51b81526004016108d29190611099565b50604080518082018252600180825287516001600160a01b03908116602080850191825295516001600160e01b0319166000908152898401909652939094209151825493516001600160a81b0319909416901515610100600160a81b0319161761010093909416929092029290921790915501610bd2565b50505050565b60408051808201909152601881527f78722e61637469766174696f6e2e73746f726167652e7631000000000000000060209091015260008060ff610b7a60017ff6611e962a52dbc98dd0485088d920890c43e26113c61976f6e171a29d49ce496113f1565b60408051808201909152601881527f78722e657874656e73696f6e732e73746f726167652e7631000000000000000060209091015260008060ff610b7a60017fb58ec9ca7ba0606d9fecd9f559655d0e5fec418e6751b65b892bccdfd25eb99f6113f1565b6060610e4e6001600160a01b0383166014610e54565b92915050565b6060826000610e64846002611561565b610e6f906002611578565b67ffffffffffffffff811115610e8757610e87611174565b6040519080825280601f01601f191660200182016040528015610eb1576020820181803683370190505b509050600360fc1b81600081518110610ecc57610ecc611275565b60200101906001600160f81b031916908160001a905350600f60fb1b81600181518110610efb57610efb611275565b60200101906001600160f81b031916908160001a9053506000610f1f856002611561565b610f2a906001611578565b90505b6001811115610fa2576f181899199a1a9b1b9c1cb0b131b232b360811b83600f1660108110610f5e57610f5e611275565b1a60f81b828281518110610f7457610f74611275565b60200101906001600160f81b031916908160001a90535060049290921c91610f9b8161158b565b9050610f2d565b508115610fcc5760405163e22e27eb60e01b815260048101869052602481018590526044016108d2565b949350505050565b60405180604001604052806060815260200161100b6040518060400160405280600061ffff168152602001600061ffff1681525090565b905290565b6001600160a01b03811681146100c157600080fd5b60006020828403121561103757600080fd5b813561104281611010565b9392505050565b60005b8381101561106457818101518382015260200161104c565b50506000910152565b60008151808452611085816020860160208601611049565b601f01601f19169290920160200192915050565b602081526000611042602083018461106d565b602081526000825160c060208401526110c860e084018261106d565b90506020840151601f19808584030160408601526110e6838361106d565b9250604086015191508085840301606086015250611104828261106d565b91505060608401516080840152608084015160a084015260a084015160c08401528091505092915050565b60208152600082516060602084015261114b608084018261106d565b602094850151805161ffff90811660408701529501519094166060909301929092525090919050565b634e487b7160e01b600052604160045260246000fd5b60006020828403121561119c57600080fd5b813567ffffffffffffffff808211156111b457600080fd5b818401915084601f8301126111c857600080fd5b8135818111156111da576111da611174565b604051601f8201601f19908116603f0116810190838211818310171561120257611202611174565b8160405282815287602084870101111561121b57600080fd5b826020860160208301376000928101602001929092525095945050505050565b600181811c9082168061124f57607f821691505b60208210810361126f57634e487b7160e01b600052602260045260246000fd5b50919050565b634e487b7160e01b600052603260045260246000fd5b60006020828403121561129d57600080fd5b815161104281611010565b6000602082840312156112ba57600080fd5b8151801515811461104257600080fd5b601f821115611316576000816000526020600020601f850160051c810160208610156112f35750805b601f850160051c820191505b81811015611312578281556001016112ff565b5050505b505050565b815167ffffffffffffffff81111561133557611335611174565b61134981611343845461123b565b846112ca565b602080601f83116001811461137e57600084156113665750858301515b600019600386901b1c1916600185901b178555611312565b600085815260208120601f198616915b828110156113ad5788860151825594840194600190910190840161138e565b50858210156113cb5787850151600019600388901b60f8161c191681555b5050505050600190811b01905550565b634e487b7160e01b600052601160045260246000fd5b81810381811115610e4e57610e4e6113db565b600081546114118161123b565b60018281168015611429576001811461143e5761146d565b60ff198416875282151583028701945061146d565b8560005260208060002060005b858110156114645781548a82015290840190820161144b565b50505082870194505b5050505092915050565b7f4c6962457874656e73696f6e3a20657874656e73696f6e200000000000000000815260006114a96018830187611404565b6c01030ba1030b2323932b9b99d1609d1b815285516114cf81600d840160208a01611049565b8082019150507f20617474656d7074696e6720746f20726575736520612073656c6563746f723a600d820152600160fd1b80602d830152855161151981602e850160208a01611049565b7f2c20776869636820697320616c72656164792072656769737465726564206279602e9390910192830152604e820152611556604f820185611404565b979650505050505050565b8082028115828204841417610e4e57610e4e6113db565b80820180821115610e4e57610e4e6113db565b60008161159a5761159a6113db565b50600019019056fea2646970667358221220ec0a489c7033e2df0f6faa59a767a8f7d646367e1fad3a1e86d31268c5bb684064736f6c63430008180033",
  "linkReferences": {},
  "deployedLinkReferences": {}
}