{
  "_format": "hh-sol-artifact-1",
  "contractName": "ExperienceJumpExt",
  "sourceName": "contracts/extensions/experience/ExperienceJumpExt.sol",
  "abi": [
    {
      "inputs": [
        {
          "internalType": "uint256",
          "name": "value",
          "type": "uint256"
        },
        {
          "internalType": "uint256",
          "name": "length",
          "type": "uint256"
        }
      ],
      "name": "StringsInsufficientHexLength",
      "type": "error"
    },
    {
      "inputs": [
        {
          "components": [
            {
              "internalType": "address",
              "name": "sourceWorld",
              "type": "address"
            },
            {
              "internalType": "address",
              "name": "sourceCompany",
              "type": "address"
            },
            {
              "internalType": "address",
              "name": "avatar",
              "type": "address"
            }
          ],
          "internalType": "struct JumpEntryRequest",
          "name": "",
          "type": "tuple"
        }
      ],
      "name": "entering",
      "outputs": [
        {
          "internalType": "bytes",
          "name": "",
          "type": "bytes"
        }
      ],
      "stateMutability": "payable",
      "type": "function"
    },
    {
      "inputs": [
        {
          "internalType": "address",
          "name": "myAddress",
          "type": "address"
        }
      ],
      "name": "install",
      "outputs": [],
      "stateMutability": "nonpayable",
      "type": "function"
    },
    {
      "inputs": [],
      "name": "metadata",
      "outputs": [
        {
          "components": [
            {
              "internalType": "string",
              "name": "name",
              "type": "string"
            },
            {
              "components": [
                {
                  "internalType": "uint16",
                  "name": "major",
                  "type": "uint16"
                },
                {
                  "internalType": "uint16",
                  "name": "minor",
                  "type": "uint16"
                }
              ],
              "internalType": "struct Version",
              "name": "version",
              "type": "tuple"
            }
          ],
          "internalType": "struct ExtensionMetadata",
          "name": "",
          "type": "tuple"
        }
      ],
      "stateMutability": "pure",
      "type": "function"
    },
    {
      "inputs": [
        {
          "internalType": "address",
          "name": "myAddress",
          "type": "address"
        }
      ],
      "name": "upgrade",
      "outputs": [],
      "stateMutability": "nonpayable",
      "type": "function"
    }
  ],
  "bytecode": "0x608060405234801561001057600080fd5b50610de3806100206000396000f3fe60806040526004361061003f5760003560e01c80630900f010146100445780632a1b8f9b14610064578063392f37e91461008457806354cc5a0b146100af575b600080fd5b34801561005057600080fd5b5061006261005f3660046109f3565b50565b005b34801561007057600080fd5b5061006261007f3660046109f3565b6100cf565b34801561009057600080fd5b506100996101b3565b6040516100a69190610a67565b60405180910390f35b6100c26100bd366004610ac2565b61020a565b6040516100a69190610b42565b604080516001808252818301909252600091816020015b6040805180820190915260008152606060208201528152602001906001900390816100e657905050905060405180604001604052806354cc5a0b60e01b6001600160e01b03191681526020016040518060400160405280601a81526020017f656e746572696e67284a756d70456e74727952657175657374290000000000008152508152508160008151811061017e5761017e610b55565b60200260200101819052506101af6040518060400160405280846001600160a01b03168152602001838152506104e3565b5050565b6101bb6109a2565b5060408051608081018252601181830190815270115e1c195c9a595b98d9529d5b5c115e1d607a1b60608301528152815180830190925260018252600060208381019190915281019190915290565b60606000306001600160a01b031663b66649346040518163ffffffff1660e01b8152600401602060405180830381865afa15801561024c573d6000803e3d6000fd5b505050506040513d601f19601f820116820180604052508101906102709190610b6b565b90506001600160a01b0381166102d95760405162461bcd60e51b815260206004820152602360248201527f457870657269656e63653a20706f7274616c207265676973747279206e6f74206044820152621cd95d60ea1b60648201526084015b60405180910390fd5b6001600160a01b03811633146103475760405162461bcd60e51b815260206004820152602d60248201527f457870657269656e63653a2063616c6c6572206973206e6f742074686520706f60448201526c7274616c20726567697374727960981b60648201526084016102d0565b61034f6106a6565b5460ff1661039f5760405162461bcd60e51b815260206004820181905260248201527f457870657269656e63653a206e6f742063757272656e746c792061637469766560448201526064016102d0565b60006103a961073c565b80549091501561044c57805434146104035760405162461bcd60e51b815260206004820152601f60248201527f457870657269656e63653a20696e636f727265637420656e747279206665650060448201526064016102d0565b61040b6106a6565b546040516001600160a01b036201000090920491909116903480156108fc02916000818181858888f1935050505015801561044a573d6000803e3d6000fd5b505b80600101805461045b90610b88565b80601f016020809104026020016040519081016040528092919081815260200182805461048790610b88565b80156104d45780601f106104a9576101008083540402835291602001916104d4565b820191906000526020600020905b8154815290600101906020018083116104b757829003601f168201915b50505050509250505b50919050565b60006104ed6107a1565b82516001600160a01b031660009081526020829052604081209192505b8360200151518110156106a05760008460200151828151811061052f5761052f610b55565b6020908102919091018101518051600486810180546001808201835560009283528683206008830401805463ffffffff600790941690950261010090810a9384021990951660e09690961c9290920294909417905583516001600160e01b0319168152918801909352604090208054919350916001600160a01b039104161561062857805461010090046001600160a01b03166000908152602086905260408120875190919060018701906105e390610806565b6020808701516040516105fd949392600188019101610c59565b60405160208183030381529060405290508060405162461bcd60e51b81526004016102d09190610b42565b50604080518082018252600180825287516001600160a01b03908116602080850191825295516001600160e01b0319166000908152898401909652939094209151825493516001600160a81b0319909416901515610100600160a81b031916176101009390941692909202929092179091550161050a565b50505050565b60408051808201909152601881527f78722e61637469766174696f6e2e73746f726167652e7631000000000000000060209091015260008060ff61070b60017ff6611e962a52dbc98dd0485088d920890c43e26113c61976f6e171a29d49ce49610d59565b60405160200161071d91815260200190565b60408051601f1981840301815291905280516020909101201692915050565b60408051808201909152601881527f78722e657870657269656e63652e73746f726167652e7631000000000000000060209091015260008060ff61070b60017fa13db16759b7af0e556c9648625a58e6d20b5ce76e5139c1b3ce33248c0a8852610d59565b60408051808201909152601881527f78722e657874656e73696f6e732e73746f726167652e7631000000000000000060209091015260008060ff61070b60017fb58ec9ca7ba0606d9fecd9f559655d0e5fec418e6751b65b892bccdfd25eb99f610d59565b606061081c6001600160a01b0383166014610822565b92915050565b6060826000610832846002610d6c565b61083d906002610d83565b67ffffffffffffffff81111561085557610855610aac565b6040519080825280601f01601f19166020018201604052801561087f576020820181803683370190505b509050600360fc1b8160008151811061089a5761089a610b55565b60200101906001600160f81b031916908160001a905350600f60fb1b816001815181106108c9576108c9610b55565b60200101906001600160f81b031916908160001a90535060006108ed856002610d6c565b6108f8906001610d83565b90505b6001811115610970576f181899199a1a9b1b9c1cb0b131b232b360811b83600f166010811061092c5761092c610b55565b1a60f81b82828151811061094257610942610b55565b60200101906001600160f81b031916908160001a90535060049290921c9161096981610d96565b90506108fb565b50811561099a5760405163e22e27eb60e01b815260048101869052602481018590526044016102d0565b949350505050565b6040518060400160405280606081526020016109d96040518060400160405280600061ffff168152602001600061ffff1681525090565b905290565b6001600160a01b038116811461005f57600080fd5b600060208284031215610a0557600080fd5b8135610a10816109de565b9392505050565b60005b83811015610a32578181015183820152602001610a1a565b50506000910152565b60008151808452610a53816020860160208601610a17565b601f01601f19169290920160200192915050565b602081526000825160606020840152610a836080840182610a3b565b602094850151805161ffff90811660408701529501519094166060909301929092525090919050565b634e487b7160e01b600052604160045260246000fd5b600060608284031215610ad457600080fd5b6040516060810181811067ffffffffffffffff82111715610b0557634e487b7160e01b600052604160045260246000fd5b6040528235610b13816109de565b81526020830135610b23816109de565b60208201526040830135610b36816109de565b60408201529392505050565b602081526000610a106020830184610a3b565b634e487b7160e01b600052603260045260246000fd5b600060208284031215610b7d57600080fd5b8151610a10816109de565b600181811c90821680610b9c57607f821691505b6020821081036104dd57634e487b7160e01b600052602260045260246000fd5b8054600090600181811c9080831680610bd657607f831692505b60208084108203610bf757634e487b7160e01b600052602260045260246000fd5b818015610c0b5760018114610c2057610c4d565b60ff1986168952841515850289019650610c4d565b60008881526020902060005b86811015610c455781548b820152908501908301610c2c565b505084890196505b50505050505092915050565b7f4c6962457874656e73696f6e3a20657874656e73696f6e20000000000000000081526000610c8b6018830187610bbc565b6c01030ba1030b2323932b9b99d1609d1b81528551610cb181600d840160208a01610a17565b8082019150507f20617474656d7074696e6720746f20726575736520612073656c6563746f723a600d820152600160fd1b80602d8301528551610cfb81602e850160208a01610a17565b7f2c20776869636820697320616c72656164792072656769737465726564206279602e9390910192830152604e820152610d38604f820185610bbc565b979650505050505050565b634e487b7160e01b600052601160045260246000fd5b8181038181111561081c5761081c610d43565b808202811582820484141761081c5761081c610d43565b8082018082111561081c5761081c610d43565b600081610da557610da5610d43565b50600019019056fea2646970667358221220380f33eff7d59eed6e4767d68d5681b7cfe85b43d429d0b2bcb7d0e2b93fc64264736f6c63430008180033",
  "linkReferences": {},
  "deployedLinkReferences": {}
}