{
  "_format": "hh-sol-artifact-1",
  "contractName": "FundsExtension",
  "sourceName": "contracts/core/extensions/funding/FundsExtension.sol",
  "abi": [
    {
      "anonymous": false,
      "inputs": [
        {
          "indexed": true,
          "internalType": "address",
          "name": "oldOwner",
          "type": "address"
        },
        {
          "indexed": true,
          "internalType": "address",
          "name": "newOwner",
          "type": "address"
        }
      ],
      "name": "OwnerChanged",
      "type": "event"
    },
    {
      "inputs": [
        {
          "internalType": "bytes32",
          "name": "role",
          "type": "bytes32"
        },
        {
          "internalType": "address",
          "name": "account",
          "type": "address"
        }
      ],
      "name": "hasRole",
      "outputs": [
        {
          "internalType": "bool",
          "name": "",
          "type": "bool"
        }
      ],
      "stateMutability": "view",
      "type": "function"
    },
    {
      "inputs": [
        {
          "internalType": "address",
          "name": "owner",
          "type": "address"
        },
        {
          "internalType": "string",
          "name": "",
          "type": "string"
        },
        {
          "internalType": "uint256",
          "name": "",
          "type": "uint256"
        },
        {
          "internalType": "bytes",
          "name": "",
          "type": "bytes"
        }
      ],
      "name": "initStorage",
      "outputs": [],
      "stateMutability": "nonpayable",
      "type": "function"
    },
    {
      "inputs": [
        {
          "internalType": "address",
          "name": "myAddress",
          "type": "address"
        }
      ],
      "name": "install",
      "outputs": [],
      "stateMutability": "nonpayable",
      "type": "function"
    },
    {
      "inputs": [],
      "name": "metadata",
      "outputs": [
        {
          "components": [
            {
              "internalType": "string",
              "name": "name",
              "type": "string"
            },
            {
              "internalType": "uint256",
              "name": "version",
              "type": "uint256"
            }
          ],
          "internalType": "struct ExtensionMetadata",
          "name": "",
          "type": "tuple"
        }
      ],
      "stateMutability": "pure",
      "type": "function"
    },
    {
      "inputs": [
        {
          "internalType": "address",
          "name": "myAddress",
          "type": "address"
        },
        {
          "internalType": "uint256",
          "name": "currentVersion",
          "type": "uint256"
        }
      ],
      "name": "upgrade",
      "outputs": [],
      "stateMutability": "nonpayable",
      "type": "function"
    },
    {
      "inputs": [
        {
          "internalType": "uint256",
          "name": "amount",
          "type": "uint256"
        }
      ],
      "name": "withdraw",
      "outputs": [],
      "stateMutability": "nonpayable",
      "type": "function"
    }
  ],
  "bytecode": "0x608060405234801561001057600080fd5b50610abb806100206000396000f3fe608060405234801561001057600080fd5b50600436106100625760003560e01c80632a1b8f9b146100675780632e1a7d4d1461007c578063392f37e91461008f5780635efefd54146100f657806391d1485414610109578063e0622b271461012c575b600080fd5b61007a610075366004610766565b61013e565b005b61007a61008a36600461078a565b6102a5565b6100e0604080518082019091526060815260006020820152506040805160808101825260109181019182526f1e1c8b98dbdc994b919d5b991cd15e1d60821b60608201529081526001602082015290565b6040516100ed91906107e9565b60405180910390f35b61007a610104366004610864565b6104c9565b61011c6101173660046108f0565b6104da565b60405190151581526020016100ed565b61007a61013a366004610920565b5050565b6101a26040518060400160405280601781526020017f496e7374616c6c696e6720657874656e73696f6e20746f000000000000000000815250306040518060400160405280600b81526020016a457874204164647265737360a81b81525084610569565b604080516001808252818301909252600091816020015b60408051808201909152600080825260208201528152602001906001900390816101b9575050604080518082019091526000808252632e1a7d4d60e01b6020830152825192935090918391906102115761021161094c565b6020908102919091018101919091526040805180820182526001600160a01b038516815291820183905251630964d13f60e41b815273__$873ca04b9e3da3ca7cba95b77f569299f5$__9063964d13f090610270908490600401610962565b60006040518083038186803b15801561028857600080fd5b505af415801561029c573d6000803e3d6000fd5b50505050505050565b336001600160a01b031673__$a603c36e8140f8f0796c2626c9f8eff514$__638da5cb5b6040518163ffffffff1660e01b8152600401602060405180830381865af41580156102f8573d6000803e3d6000fd5b505050506040513d601f19601f8201168201806040525081019061031c91906109db565b6001600160a01b0316146103775760405162461bcd60e51b815260206004820152601860248201527f42617365457874656e73696f6e3a206e6f74206f776e6572000000000000000060448201526064015b60405180910390fd5b600073__$a603c36e8140f8f0796c2626c9f8eff514$__638da5cb5b6040518163ffffffff1660e01b8152600401602060405180830381865af41580156103c2573d6000803e3d6000fd5b505050506040513d601f19601f820116820180604052508101906103e691906109db565b90506001600160a01b03811661043e5760405162461bcd60e51b815260206004820152601760248201527f4c696246756e64733a206f776e6572206e6f7420736574000000000000000000604482015260640161036e565b8147101561048e5760405162461bcd60e51b815260206004820152601e60248201527f4c696246756e64733a20696e73756666696369656e742062616c616e63650000604482015260640161036e565b6040516001600160a01b0382169083156108fc029084906000818181858888f193505050501580156104c4573d6000803e3d6000fd5b505050565b6104d2866105b8565b505050505050565b604051632474521560e21b8152600481018390526001600160a01b038216602482015260009073__$a603c36e8140f8f0796c2626c9f8eff514$__906391d1485490604401602060405180830381865af415801561053c573d6000803e3d6000fd5b505050506040513d601f19601f8201168201806040525081019061056091906109f8565b90505b92915050565b6105b2848484846040516024016105839493929190610a1a565b60408051601f198184030181529190526020810180516001600160e01b031663aabc9a3160e01b179052610697565b50505050565b60006105c26106a3565b80546001600160a01b038481166001600160a01b03198316811784557f9f4e1c871d5fdd0aee1cd182666698a4492b24c6832aac230d07b11046af5a8960009081526001808601602081815260408085208686528252808520805460ff1990811686179091557f2172861495e7b85edac73e3cd5fbb42dd675baadf627720e687bcfdaca02509686529282528085208686529091528084208054909216909217905551949550919092169283917fb532073b38c83145e3e5135377a08bf9aab55bc0fd7c1179cd4fb995d2a5159c91a3505050565b6106a081610730565b50565b60408051808201909152601481527378722e6163636573732e76312e73746f7261676560601b60209091015260008060ff6106ff60017f635029241f0ffc6f0ed7ed889a32900dcb67a3f08955f2b339ffb28b145bb4ec610a64565b60405160200161071191815260200190565b60408051601f1981840301815291905280516020909101201692915050565b60006a636f6e736f6c652e6c6f679050600080835160208501845afa505050565b6001600160a01b03811681146106a057600080fd5b60006020828403121561077857600080fd5b813561078381610751565b9392505050565b60006020828403121561079c57600080fd5b5035919050565b6000815180845260005b818110156107c9576020818501810151868301820152016107ad565b506000602082860101526020601f19601f83011685010191505092915050565b60208152600082516040602084015261080560608401826107a3565b9050602084015160408401528091505092915050565b60008083601f84011261082d57600080fd5b50813567ffffffffffffffff81111561084557600080fd5b60208301915083602082850101111561085d57600080fd5b9250929050565b6000806000806000806080878903121561087d57600080fd5b863561088881610751565b9550602087013567ffffffffffffffff808211156108a557600080fd5b6108b18a838b0161081b565b90975095506040890135945060608901359150808211156108d157600080fd5b506108de89828a0161081b565b979a9699509497509295939492505050565b6000806040838503121561090357600080fd5b82359150602083013561091581610751565b809150509250929050565b6000806040838503121561093357600080fd5b823561093e81610751565b946020939093013593505050565b634e487b7160e01b600052603260045260246000fd5b602080825282516001600160a01b03168282015282810151604080840181905281516060850181905260009392830191849160808701905b808410156109cf5784518051151583528601516001600160e01b0319168683015293850193600193909301929082019061099a565b50979650505050505050565b6000602082840312156109ed57600080fd5b815161078381610751565b600060208284031215610a0a57600080fd5b8151801515811461078357600080fd5b608081526000610a2d60808301876107a3565b6001600160a01b0386811660208501528382036040850152610a4f82876107a3565b92508085166060850152505095945050505050565b8181038181111561056357634e487b7160e01b600052601160045260246000fdfea26469706673582212202a7d121f415283145391430b8cdabe85e2b7fd3dfe855fb41cb485c91c047ffa64736f6c63430008180033",
  "linkReferences": {
    "contracts/core/LibAccess.sol": {
      "LibAccess": [
        {
          "length": 20,
          "start": 721
        },
        {
          "length": 20,
          "start": 923
        },
        {
          "length": 20,
          "start": 1314
        }
      ]
    },
    "contracts/core/LibExtensions.sol": {
      "LibExtensions": [
        {
          "length": 20,
          "start": 616
        }
      ]
    }
  },
  "deployedLinkReferences": {
    "contracts/core/LibAccess.sol": {
      "LibAccess": [
        {
          "length": 20,
          "start": 689
        },
        {
          "length": 20,
          "start": 891
        },
        {
          "length": 20,
          "start": 1282
        }
      ]
    },
    "contracts/core/LibExtensions.sol": {
      "LibExtensions": [
        {
          "length": 20,
          "start": 584
        }
      ]
    }
  }
}