{
  "_format": "hh-sol-artifact-1",
  "contractName": "LibFactory",
  "sourceName": "contracts/libraries/LibFactory.sol",
  "abi": [
    {
      "inputs": [],
      "name": "getEntityImplementation",
      "outputs": [
        {
          "internalType": "address",
          "name": "",
          "type": "address"
        }
      ],
      "stateMutability": "view",
      "type": "function"
    },
    {
      "inputs": [],
      "name": "getEntityVersion",
      "outputs": [
        {
          "components": [
            {
              "internalType": "uint16",
              "name": "major",
              "type": "uint16"
            },
            {
              "internalType": "uint16",
              "name": "minor",
              "type": "uint16"
            }
          ],
          "internalType": "struct Version",
          "name": "",
          "type": "tuple"
        }
      ],
      "stateMutability": "view",
      "type": "function"
    }
  ],
  "bytecode": "0x61038061003a600b82828239805160001a60731461002d57634e487b7160e01b600052600060045260246000fd5b30600052607381538281f3fe730000000000000000000000000000000000000000301460806040526004361061004b5760003560e01c80635e04096214610050578063689c48f01461007f578063cdbe22111461009f575b600080fd5b6100586100c1565b60408051825161ffff90811682526020938401511692810192909252015b60405180910390f35b61008761010a565b6040516001600160a01b039091168152602001610076565b8180156100ab57600080fd5b506100bf6100ba366004610273565b610125565b005b604080518082019091526000808252602082015260006100df6101dd565b6040805180820190915260019091015461ffff80821683526201000090910416602082015292915050565b6000806101156101dd565b546001600160a01b031692915050565b600061012f6101dd565b80546001600160a01b0319166001600160a01b03841690811782556040805163054fd4d560e41b815281519394506000936354fd4d50926004808401939192918290030181865afa158015610188573d6000803e3d6000fd5b505050506040513d601f19601f820116820180604052508101906101ac91906102ba565b80516001909301805460209092015161ffff908116620100000263ffffffff19909316941693909317179091555050565b60408051808201909152601c81527f78722e656e746974792e666163746f72792e73746f726167652e76310000000060209091015260008060ff61024260017f8b4ac7cd4466ab0d50fe53a88c5446ca4a450d482bef9ad792e7d9f451497e0f610323565b60405160200161025491815260200190565b60408051601f1981840301815291905280516020909101201692915050565b60006020828403121561028557600080fd5b81356001600160a01b038116811461029c57600080fd5b9392505050565b805161ffff811681146102b557600080fd5b919050565b6000604082840312156102cc57600080fd5b6040516040810181811067ffffffffffffffff821117156102fd57634e487b7160e01b600052604160045260246000fd5b604052610309836102a3565b8152610317602084016102a3565b60208201529392505050565b8181038181111561034457634e487b7160e01b600052601160045260246000fd5b9291505056fea2646970667358221220c50cdfe89ed103df4e55dd9c402c59f01c71ee8fb05c9113b09142c467c96a0e64736f6c63430008180033",
  "linkReferences": {},
  "deployedLinkReferences": {}
}