{
  "_format": "hh-sol-artifact-1",
  "contractName": "LibCoreExtensionRegistry",
  "sourceName": "contracts/core/ext-registry/LibCoreExtensionRegistry.sol",
  "abi": [
    {
      "inputs": [
        {
          "internalType": "string",
          "name": "name",
          "type": "string"
        }
      ],
      "name": "getExtension",
      "outputs": [
        {
          "internalType": "address",
          "name": "",
          "type": "address"
        }
      ],
      "stateMutability": "view",
      "type": "function"
    },
    {
      "inputs": [
        {
          "internalType": "address",
          "name": "_extension",
          "type": "address"
        }
      ],
      "name": "isRegistered",
      "outputs": [
        {
          "internalType": "bool",
          "name": "",
          "type": "bool"
        }
      ],
      "stateMutability": "view",
      "type": "function"
    }
  ],
  "bytecode": "0x61126f61003a600b82828239805160001a60731461002d57634e487b7160e01b600052600060045260246000fd5b30600052607381538281f3fe73000000000000000000000000000000000000000030146080604052600436106100875760003560e01c8063c3c5a54711610065578063c3c5a547146100fe578063ce8aee9d14610121578063ddc2337d14610141578063e0ee83411461016157600080fd5b80634bbc46e91461008c5780634c6f7da3146100ae578063c22707ee146100ce575b600080fd5b81801561009857600080fd5b506100ac6100a7366004610d9b565b610181565b005b8180156100ba57600080fd5b506100ac6100c9366004610e4d565b610460565b6100e16100dc366004610e71565b610566565b6040516001600160a01b0390911681526020015b60405180910390f35b61011161010c366004610e4d565b6105e6565b60405190151581526020016100f5565b81801561012d57600080fd5b506100ac61013c366004610e4d565b610619565b81801561014d57600080fd5b506100ac61015c366004610d9b565b6107fa565b81801561016d57600080fd5b506100ac61017c366004610e4d565b610a9d565b604051632474521560e21b81526000805160206111f5833981519152600482015233602482015273__$a603c36e8140f8f0796c2626c9f8eff514$__906391d1485490604401602060405180830381865af41580156101e4573d6000803e3d6000fd5b505050506040513d601f19601f820116820180604052508101906102089190610ee3565b61022d5760405162461bcd60e51b815260040161022490610f05565b60405180910390fd5b6000610237610b9f565b905060005b825181101561045b57600083828151811061025957610259610f4b565b60200260200101516001600160a01b031663392f37e96040518163ffffffff1660e01b8152600401600060405180830381865afa15801561029e573d6000803e3d6000fd5b505050506040513d6000823e601f3d908101601f191682016040526102c69190810190610f85565b905060006102d78260000151610c05565b9050600084600001826040516102ed919061104c565b908152604051908190036020019020546001600160a01b03169050806103685760405162461bcd60e51b815260206004820152602a60248201527f4c6962436f7265457874656e73696f6e3a20657874656e73696f6e206e6f74206044820152691c9959da5cdd195c995960b21b6064820152608401610224565b6001600160a01b038116600090815260018601602052604081209061038d8282610cc4565b600182016000905550508584815181106103a9576103a9610f4b565b602002602001015185600001836040516103c3919061104c565b908152602001604051809103902060006101000a8154816001600160a01b0302191690836001600160a01b031602179055508285600101600088878151811061040e5761040e610f4b565b6020908102919091018101516001600160a01b031682528101919091526040016000208151819061043f90826110f2565b506020919091015160019182015593909301925061023c915050565b505050565b604051632474521560e21b81526000805160206111f5833981519152600482015233602482015273__$a603c36e8140f8f0796c2626c9f8eff514$__906391d1485490604401602060405180830381865af41580156104c3573d6000803e3d6000fd5b505050506040513d601f19601f820116820180604052508101906104e79190610ee3565b6105035760405162461bcd60e51b815260040161022490610f05565b60408051600180825281830190925260009160208083019080368337019050509050818160008151811061053957610539610f4b565b60200260200101906001600160a01b031690816001600160a01b03168152505061056281610181565b5050565b600080610571610b9f565b9050806000016105b685858080601f016020809104026020016040519081016040528093929190818152602001838380828437600092019190915250610c0592505050565b6040516105c3919061104c565b908152604051908190036020019020546001600160a01b03169150505b92915050565b6000806105f1610b9f565b6001600160a01b03909316600090815260019384016020526040902090920154151592915050565b604051632474521560e21b81526000805160206111f5833981519152600482015233602482015273__$a603c36e8140f8f0796c2626c9f8eff514$__906391d1485490604401602060405180830381865af415801561067c573d6000803e3d6000fd5b505050506040513d601f19601f820116820180604052508101906106a09190610ee3565b6106bc5760405162461bcd60e51b815260040161022490610f05565b60006106c6610b9f565b6001600160a01b038316600090815260018201602052604081209192506106ed8282610cc4565b50600060019182018190556001600160a01b03841681529082016020526040808220815180830190925280548290829061072690611068565b80601f016020809104026020016040519081016040528092919081815260200182805461075290611068565b801561079f5780601f106107745761010080835404028352916020019161079f565b820191906000526020600020905b81548152906001019060200180831161078257829003601f168201915b50505050508152602001600182015481525050905060006107c38260000151610c05565b905082600001816040516107d7919061104c565b90815260405190819003602001902080546001600160a01b031916905550505050565b604051632474521560e21b81526000805160206111f5833981519152600482015233602482015273__$a603c36e8140f8f0796c2626c9f8eff514$__906391d1485490604401602060405180830381865af415801561085d573d6000803e3d6000fd5b505050506040513d601f19601f820116820180604052508101906108819190610ee3565b61089d5760405162461bcd60e51b815260040161022490610f05565b60006108a7610b9f565b905060005b825181101561045b5760008382815181106108c9576108c9610f4b565b60200260200101516001600160a01b031663392f37e96040518163ffffffff1660e01b8152600401600060405180830381865afa15801561090e573d6000803e3d6000fd5b505050506040513d6000823e601f3d908101601f191682016040526109369190810190610f85565b905060006109478260000151610c05565b604051909150600090859061095d90849061104c565b908152604051908190036020019020546001600160a01b0316146109da5760405162461bcd60e51b815260206004820152602e60248201527f4c6962436f7265457874656e73696f6e3a20657874656e73696f6e20616c726560448201526d18591e481c9959da5cdd195c995960921b6064820152608401610224565b8483815181106109ec576109ec610f4b565b60200260200101518460000182604051610a06919061104c565b908152602001604051809103902060006101000a8154816001600160a01b0302191690836001600160a01b0316021790555081846001016000878681518110610a5157610a51610f4b565b6020908102919091018101516001600160a01b0316825281019190915260400160002081518190610a8290826110f2565b50602091909101516001918201559290920191506108ac9050565b604051632474521560e21b81526000805160206111f5833981519152600482015233602482015273__$a603c36e8140f8f0796c2626c9f8eff514$__906391d1485490604401602060405180830381865af4158015610b00573d6000803e3d6000fd5b505050506040513d601f19601f82011682018060405250810190610b249190610ee3565b610b405760405162461bcd60e51b815260040161022490610f05565b604080516001808252818301909252600091602080830190803683370190505090508181600081518110610b7657610b76610f4b565b60200260200101906001600160a01b031690816001600160a01b031681525050610562816107fa565b60008060ff60001b6001604051806060016040528060258152602001611215602591398051602090910120610bd491906111c8565b604051602001610be691815260200190565b60408051601f1981840301815291905280516020909101201692915050565b60608160005b8151811015610c6e57610c3d828281518110610c2957610c29610f4b565b01602001516001600160f81b031916610c75565b828281518110610c4f57610c4f610f4b565b60200101906001600160f81b031916908160001a905350600101610c0b565b5092915050565b6000604160f81b6001600160f81b0319831610801590610ca35750602d60f91b6001600160f81b0319831611155b15610cc057610cb760f883901c60206111db565b60f81b92915050565b5090565b508054610cd090611068565b6000825580601f10610ce0575050565b601f016020900490600052602060002090810190610cfe9190610d01565b50565b5b80821115610cc05760008155600101610d02565b634e487b7160e01b600052604160045260246000fd5b6040805190810167ffffffffffffffff81118282101715610d4f57610d4f610d16565b60405290565b604051601f8201601f1916810167ffffffffffffffff81118282101715610d7e57610d7e610d16565b604052919050565b6001600160a01b0381168114610cfe57600080fd5b60006020808385031215610dae57600080fd5b823567ffffffffffffffff80821115610dc657600080fd5b818501915085601f830112610dda57600080fd5b813581811115610dec57610dec610d16565b8060051b9150610dfd848301610d55565b8181529183018401918481019088841115610e1757600080fd5b938501935b83851015610e415784359250610e3183610d86565b8282529385019390850190610e1c565b98975050505050505050565b600060208284031215610e5f57600080fd5b8135610e6a81610d86565b9392505050565b60008060208385031215610e8457600080fd5b823567ffffffffffffffff80821115610e9c57600080fd5b818501915085601f830112610eb057600080fd5b813581811115610ebf57600080fd5b866020828501011115610ed157600080fd5b60209290920196919550909350505050565b600060208284031215610ef557600080fd5b81518015158114610e6a57600080fd5b60208082526026908201527f4c6962436f7265457874656e73696f6e3a207265737472696374656420746f2060408201526561646d696e7360d01b606082015260800190565b634e487b7160e01b600052603260045260246000fd5b60005b83811015610f7c578181015183820152602001610f64565b50506000910152565b60006020808385031215610f9857600080fd5b825167ffffffffffffffff80821115610fb057600080fd5b9084019060408287031215610fc457600080fd5b610fcc610d2c565b825182811115610fdb57600080fd5b8301601f81018813610fec57600080fd5b805183811115610ffe57610ffe610d16565b611010601f8201601f19168701610d55565b9350808452888682840101111561102657600080fd5b61103581878601888501610f61565b505090815290820151918101919091529392505050565b6000825161105e818460208701610f61565b9190910192915050565b600181811c9082168061107c57607f821691505b60208210810361109c57634e487b7160e01b600052602260045260246000fd5b50919050565b601f82111561045b576000816000526020600020601f850160051c810160208610156110cb5750805b601f850160051c820191505b818110156110ea578281556001016110d7565b505050505050565b815167ffffffffffffffff81111561110c5761110c610d16565b6111208161111a8454611068565b846110a2565b602080601f831160018114611155576000841561113d5750858301515b600019600386901b1c1916600185901b1785556110ea565b600085815260208120601f198616915b8281101561118457888601518255948401946001909101908401611165565b50858210156111a25787850151600019600388901b60f8161c191681555b5050505050600190811b01905550565b634e487b7160e01b600052601160045260246000fd5b818103818111156105e0576105e06111b2565b60ff81811683821601908111156105e0576105e06111b256fe2172861495e7b85edac73e3cd5fbb42dd675baadf627720e687bcfdaca02509678722e636f72652e76312e657874656e73696f6e2e72656769737472792e73746f72616765a26469706673582212207e7b381abee7bb97aa15ef9cb5b27997fa904a18331aa536cf5d46ad5135c7f164736f6c63430008180033",
  "linkReferences": {
    "contracts/core/LibAccess.sol": {
      "LibAccess": [
        {
          "length": 20,
          "start": 484
        },
        {
          "length": 20,
          "start": 1219
        },
        {
          "length": 20,
          "start": 1660
        },
        {
          "length": 20,
          "start": 2141
        },
        {
          "length": 20,
          "start": 2816
        }
      ]
    }
  },
  "deployedLinkReferences": {
    "contracts/core/LibAccess.sol": {
      "LibAccess": [
        {
          "length": 20,
          "start": 426
        },
        {
          "length": 20,
          "start": 1161
        },
        {
          "length": 20,
          "start": 1602
        },
        {
          "length": 20,
          "start": 2083
        },
        {
          "length": 20,
          "start": 2758
        }
      ]
    }
  }
}