{
  "_format": "hh-sol-artifact-1",
  "contractName": "LibAccess",
  "sourceName": "contracts/core/LibAccess.sol",
  "abi": [
    {
      "anonymous": false,
      "inputs": [
        {
          "indexed": true,
          "internalType": "address",
          "name": "oldOwner",
          "type": "address"
        },
        {
          "indexed": true,
          "internalType": "address",
          "name": "newOwner",
          "type": "address"
        }
      ],
      "name": "OwnerChanged",
      "type": "event"
    },
    {
      "anonymous": false,
      "inputs": [
        {
          "indexed": true,
          "internalType": "bytes32",
          "name": "role",
          "type": "bytes32"
        },
        {
          "indexed": true,
          "internalType": "address",
          "name": "account",
          "type": "address"
        }
      ],
      "name": "RoleGranted",
      "type": "event"
    },
    {
      "anonymous": false,
      "inputs": [
        {
          "indexed": true,
          "internalType": "bytes32",
          "name": "role",
          "type": "bytes32"
        },
        {
          "indexed": true,
          "internalType": "address",
          "name": "account",
          "type": "address"
        }
      ],
      "name": "RoleRevoked",
      "type": "event"
    },
    {
      "inputs": [
        {
          "internalType": "bytes32",
          "name": "role",
          "type": "bytes32"
        },
        {
          "internalType": "address",
          "name": "account",
          "type": "address"
        }
      ],
      "name": "hasRole",
      "outputs": [
        {
          "internalType": "bool",
          "name": "",
          "type": "bool"
        }
      ],
      "stateMutability": "view",
      "type": "function"
    },
    {
      "inputs": [],
      "name": "owner",
      "outputs": [
        {
          "internalType": "address",
          "name": "",
          "type": "address"
        }
      ],
      "stateMutability": "view",
      "type": "function"
    }
  ],
  "bytecode": "0x61060361003a600b82828239805160001a60731461002d57634e487b7160e01b600052600060045260246000fd5b30600052607381538281f3fe73000000000000000000000000000000000000000030146080604052600436106100615760003560e01c806313af4035146100665780632f2ff15d146100885780638da5cb5b146100a857806391d14854146100cd578063d547741f146100f0575b600080fd5b81801561007257600080fd5b50610086610081366004610565565b610110565b005b81801561009457600080fd5b506100866100a3366004610580565b610188565b6100b0610196565b6040516001600160a01b0390911681526020015b60405180910390f35b6100e06100db366004610580565b6101b1565b60405190151581526020016100c4565b8180156100fc57600080fd5b5061008661010b366004610580565b6101c6565b6001600160a01b03811661017c5760405162461bcd60e51b815260206004820152602860248201527f4c69624163636573733a206e6577206f776e657220697320746865207a65726f604482015267206164647265737360c01b60648201526084015b60405180910390fd5b6101858161029a565b50565b6101928282610379565b5050565b6000806101a161044f565b546001600160a01b031692915050565b60006101bd83836104dc565b90505b92915050565b6001600160a01b0381166102345760405162461bcd60e51b815260206004820152602f60248201527f4c69624163636573733a2063616e6e6f74207265766f6b6520726f6c6520776960448201526e7468207a65726f206164647265737360881b6064820152608401610173565b600061023e61044f565b600084815260028201602090815260408083206001600160a01b0387168085529252808320805460ff19169055519293509185917f155aaafb6329a2098580462df33ec4b7441b19729b9601c5fc17ae1cf99a8a5291a3505050565b60006102a461044f565b80546001600160a01b038481166001600160a01b03198316811784557f9f4e1c871d5fdd0aee1cd182666698a4492b24c6832aac230d07b11046af5a8960009081526001808601602081815260408085208686528252808520805460ff1990811686179091557f2172861495e7b85edac73e3cd5fbb42dd675baadf627720e687bcfdaca02509686529282528085208686529091528084208054909216909217905551949550919092169283917fb532073b38c83145e3e5135377a08bf9aab55bc0fd7c1179cd4fb995d2a5159c91a3505050565b6001600160a01b0381166103e65760405162461bcd60e51b815260206004820152602e60248201527f4c69624163636573733a2063616e6e6f74206772616e7420726f6c652077697460448201526d68207a65726f206164647265737360901b6064820152608401610173565b60006103f061044f565b600084815260028201602090815260408083206001600160a01b0387168085529252808320805460ff19166001179055519293509185917f2ae6a113c0ed5b78a53413ffbb7679881f11145ccfba4fb92e863dfcd5a1d2f391a3505050565b60408051808201909152601481527378722e6163636573732e76312e73746f7261676560601b60209091015260008060ff6104ab60017f635029241f0ffc6f0ed7ed889a32900dcb67a3f08955f2b339ffb28b145bb4ec6105ac565b6040516020016104bd91815260200190565b60408051601f1981840301815291905280516020909101201692915050565b6000806104e761044f565b600085815260018201602090815260408083206001600160a01b038816845290915290205490915060ff16806105415750600084815260028201602090815260408083206001600160a01b038716845290915290205460ff165b949350505050565b80356001600160a01b038116811461056057600080fd5b919050565b60006020828403121561057757600080fd5b6101bd82610549565b6000806040838503121561059357600080fd5b823591506105a360208401610549565b90509250929050565b818103818111156101c057634e487b7160e01b600052601160045260246000fdfea2646970667358221220737a497c82734017fff7ae67c4815fda14e115f63a49c67b5bfd28b4eaeeedc264736f6c63430008180033",
  "linkReferences": {},
  "deployedLinkReferences": {}
}