{
  "_format": "hh-sol-artifact-1",
  "contractName": "LibExtensions",
  "sourceName": "contracts/core/LibExtensions.sol",
  "abi": [
    {
      "anonymous": false,
      "inputs": [
        {
          "indexed": false,
          "internalType": "string",
          "name": "name",
          "type": "string"
        }
      ],
      "name": "ExtensionDisabled",
      "type": "event"
    },
    {
      "anonymous": false,
      "inputs": [
        {
          "indexed": false,
          "internalType": "string",
          "name": "name",
          "type": "string"
        }
      ],
      "name": "ExtensionEnabled",
      "type": "event"
    },
    {
      "anonymous": false,
      "inputs": [
        {
          "indexed": false,
          "internalType": "string",
          "name": "name",
          "type": "string"
        },
        {
          "indexed": false,
          "internalType": "uint256",
          "name": "version",
          "type": "uint256"
        }
      ],
      "name": "ExtensionInstalled",
      "type": "event"
    },
    {
      "anonymous": false,
      "inputs": [
        {
          "indexed": false,
          "internalType": "string",
          "name": "name",
          "type": "string"
        },
        {
          "indexed": false,
          "internalType": "uint256",
          "name": "version",
          "type": "uint256"
        }
      ],
      "name": "ExtensionUpgraded",
      "type": "event"
    },
    {
      "anonymous": false,
      "inputs": [
        {
          "indexed": false,
          "internalType": "bytes4",
          "name": "selector",
          "type": "bytes4"
        }
      ],
      "name": "SelectorDisabled",
      "type": "event"
    },
    {
      "anonymous": false,
      "inputs": [
        {
          "indexed": false,
          "internalType": "bytes4",
          "name": "selector",
          "type": "bytes4"
        }
      ],
      "name": "SelectorEnabled",
      "type": "event"
    },
    {
      "inputs": [
        {
          "internalType": "bytes4",
          "name": "selector",
          "type": "bytes4"
        }
      ],
      "name": "checkCallable",
      "outputs": [
        {
          "internalType": "address",
          "name": "",
          "type": "address"
        }
      ],
      "stateMutability": "view",
      "type": "function"
    },
    {
      "inputs": [
        {
          "internalType": "string",
          "name": "name",
          "type": "string"
        }
      ],
      "name": "getExtensionVersion",
      "outputs": [
        {
          "internalType": "uint256",
          "name": "",
          "type": "uint256"
        }
      ],
      "stateMutability": "view",
      "type": "function"
    },
    {
      "inputs": [
        {
          "internalType": "string",
          "name": "name",
          "type": "string"
        },
        {
          "internalType": "uint256",
          "name": "version",
          "type": "uint256"
        }
      ],
      "name": "hasExtension",
      "outputs": [
        {
          "internalType": "bool",
          "name": "",
          "type": "bool"
        }
      ],
      "stateMutability": "view",
      "type": "function"
    }
  ],
  "bytecode": "0x6120e061003a600b82828239805160001a60731461002d57634e487b7160e01b600052600060045260246000fd5b30600052607381538281f3fe73000000000000000000000000000000000000000030146080604052600436106100d95760003560e01c806360fdd5611161009657806397107e081161007057806397107e0814610225578063d9228e9d14610245578063eeba990114610265578063fcaf26d71461028557600080fd5b806360fdd561146101c55780636fcc36cb146101e5578063964d13f01461020557600080fd5b806301232c8f146100de5780631f66968414610100578063238a0386146101365780633fed2400146101575780634c6f7da3146101825780635d536d6a146101a2575b600080fd5b8180156100ea57600080fd5b506100fe6100f93660046118b6565b6102a5565b005b81801561010c57600080fd5b5061012061011b366004611940565b61060c565b60405161012d91906119f6565b60405180910390f35b610149610144366004611af7565b6106f6565b60405190815260200161012d565b61016a610165366004611b2c565b61078f565b6040516001600160a01b03909116815260200161012d565b81801561018e57600080fd5b506100fe61019d3660046118b6565b61083e565b6101b56101b0366004611b47565b610c68565b604051901515815260200161012d565b8180156101d157600080fd5b506101206101e0366004611b8c565b610e84565b8180156101f157600080fd5b506100fe610200366004611af7565b610fd2565b81801561021157600080fd5b506100fe610220366004611bdf565b611091565b81801561023157600080fd5b506100fe610240366004611b2c565b611335565b81801561025157600080fd5b506100fe610260366004611af7565b6113d6565b81801561027157600080fd5b506100fe610280366004611b2c565b61148a565b81801561029157600080fd5b506101206102a0366004611c1a565b611525565b60006102af61156f565b90506040518060800160405280600115158152602001836001600160a01b031663392f37e96040518163ffffffff1660e01b8152600401600060405180830381865afa158015610303573d6000803e3d6000fd5b505050506040513d6000823e601f3d908101601f1916820160405261032b9190810190611c3a565b81526001600160a01b0384166020820152604001600060405190808252806020026020018201604052801561036a578160200160208202803683370190505b5090526001600160a01b0383166000908152602083815260409091208251815460ff1916901515178155908201518051600183019081906103ab9082611d75565b506020918201516001919091015560408301516003830180546001600160a01b0319166001600160a01b03909216919091179055606083015180516103f69260048501920190611786565b50505060038101805460018101825560009182526020918290200180546001600160a01b0385166001600160a01b031990911681179091556040805160248082019390935281518082039093018352604401905290810180516001600160e01b0316632a1b8f9b60e01b17905261046d8382611605565b506000836001600160a01b031663392f37e96040518163ffffffff1660e01b8152600401600060405180830381865afa1580156104ae573d6000803e3d6000fd5b505050506040513d6000823e601f3d908101601f191682016040526104d69190810190611c3a565b905060006104e782600001516116c7565b905060006001600160a01b031684600201826040516105069190611e35565b908152604051908190036020019020546001600160a01b0316146105835760405162461bcd60e51b815260206004820152602960248201527f4c6962457874656e73696f6e3a20657874656e73696f6e20616c7265616479206044820152681a5b9cdd185b1b195960ba1b60648201526084015b60405180910390fd5b8484600201826040516105969190611e35565b908152602001604051809103902060006101000a8154816001600160a01b0302191690836001600160a01b031602179055507fcc41583ea38c76616695c64cf48b9aa77099b2a86adea7f513d7eee1f466ebd58183602001516040516105fd929190611e51565b60405180910390a15050505050565b604051637be79ac560e01b81526001600160e01b0319851660048201526060906000906001600160a01b03841690637be79ac590602401602060405180830381865afa158015610660573d6000803e3d6000fd5b505050506040513d601f19601f820116820180604052508101906106849190611e73565b90506001600160a01b0381166106ac5760405162461bcd60e51b815260040161057a90611e90565b6106ec8186868080601f01602080910402602001604051908101604052809392919081815260200183838082843760009201919091525061160592505050565b9695505050505050565b60008061070161156f565b9050600081600201610712856116c7565b60405161071f9190611e35565b908152604051908190036020019020546001600160a01b03169050806107575760405162461bcd60e51b815260040161057a90611edf565b6001600160a01b0381166000908152602083905260409020805460ff1615610783576002810154610786565b60005b95945050505050565b60008061079a61156f565b6001600160e01b03198416600090815260018201602052604090208054919250906201000090046001600160a01b03166107e65760405162461bcd60e51b815260040161057a90611e90565b80546201000090046001600160a01b03166000908152602083905260409020805460ff166108265760405162461bcd60e51b815260040161057a90611f20565b50546201000090046001600160a01b03169392505050565b600061084861156f565b905060006108bb836001600160a01b031663392f37e96040518163ffffffff1660e01b8152600401600060405180830381865afa15801561088d573d6000803e3d6000fd5b505050506040513d6000823e601f3d908101601f191682016040526108b59190810190611c3a565b516116c7565b9050600082600201826040516108d19190611e35565b908152604051908190036020019020546001600160a01b03169050806109475760405162461bcd60e51b815260206004820152602560248201527f4c6962457874656e73696f6e3a20657874656e73696f6e206e6f7420696e7374604482015264185b1b195960da1b606482015260840161057a565b6001600160a01b0381166000908152602084905260408120905b60048201548110156109d75784600101600083600401838154811061098857610988611f63565b6000918252602080832060088304015460079092166004026101000a90910460e01b6001600160e01b0319168352820192909252604001902080546001600160b01b0319169055600101610961565b506040518060800160405280600115158152602001866001600160a01b031663392f37e96040518163ffffffff1660e01b8152600401600060405180830381865afa158015610a2a573d6000803e3d6000fd5b505050506040513d6000823e601f3d908101601f19168201604052610a529190810190611c3a565b81526001600160a01b03871660208201526040016000604051908082528060200260200182016040528015610a91578160200160208202803683370190505b5090526001600160a01b0386166000908152602086815260409091208251815460ff191690151517815590820151805160018301908190610ad29082611d75565b506020918201516001919091015560408301516003830180546001600160a01b0319166001600160a01b0390921691909117905560608301518051610b1d9260048501920190611786565b5050604080516001600160a01b03888116602483015285166044808301919091528251808303909101815260649091019091526020810180516001600160e01b031663e0622b2760e01b1790529050610b768682611605565b50858560020185604051610b8a9190611e35565b908152604080516020928190038301902080546001600160a01b0319166001600160a01b03948516179055918516600090815290879052908120805460ff19168155906001820181610bdc828261182e565b5060006001919091018190556003830180546001600160a01b0319169055610c0890600484019061186b565b50506001600160a01b038616600090815260208690526040908190206002015490517f7c8996ab473190080a1698fb0341cf0af0c365ede802e6007a926eca04036eea91610c5891879190611e51565b60405180910390a1505050505050565b600080610c7361156f565b9050600060028201610c84866116c7565b604051610c919190611e35565b908152604051908190036020019020546001600160a01b031603610cb9576000915050610e7e565b6000818160028201610cca886116c7565b604051610cd79190611e35565b9081526040805160209281900383019020546001600160a01b03168352828201939093529082016000208251608081018452815460ff16151581528351808501909452600182018054919492938501929182908290610d3590611cea565b80601f0160208091040260200160405190810160405280929190818152602001828054610d6190611cea565b8015610dae5780601f10610d8357610100808354040283529160200191610dae565b820191906000526020600020905b815481529060010190602001808311610d9157829003601f168201915b50505091835250506001919091015460209182015290825260038301546001600160a01b0316828201526004830180546040805182850281018501825282815294019392830182828015610e4e57602002820191906000526020600020906000905b82829054906101000a900460e01b6001600160e01b03191681526020019060040190602082600301049283019260010382029150808411610e105790505b5050505050815250509050806000015115610e7757838160200151602001511492505050610e7e565b6000925050505b92915050565b60606000610e9061156f565b6001600160e01b03198616600090815260018201602052604090208054919250906201000090046001600160a01b0316610edc5760405162461bcd60e51b815260040161057a90611e90565b805460ff16610f385760405162461bcd60e51b815260206004820152602260248201527f4c6962457874656e73696f6e3a2073656c6563746f72206e6f7420656e61626c604482015261195960f21b606482015260840161057a565b80546201000090046001600160a01b03166000908152602083905260409020805460ff16610f785760405162461bcd60e51b815260040161057a90611f20565b8154604080516020601f8901819004810282018101909252878152610fc7926201000090046001600160a01b031691899089908190840183828082843760009201919091525061160592505050565b979650505050505050565b6000610fdc61156f565b9050600081600201610fed846116c7565b604051610ffa9190611e35565b908152604051908190036020019020546001600160a01b03169050806110325760405162461bcd60e51b815260040161057a90611edf565b6001600160a01b03811660009081526020839052604090819020805460ff1916815590517f8214b127a091639d26edf96f8395380fc2a1778ac51cd90b36a0d1ba3eed7395906110839086906119f6565b60405180910390a150505050565b600061109b61156f565b9050600081816110ae60208601866118b6565b6001600160a01b03166001600160a01b031681526020019081526020016000209050600061116a8260010160000180546110e790611cea565b80601f016020809104026020016040519081016040528092919081815260200182805461111390611cea565b80156111605780601f1061113557610100808354040283529160200191611160565b820191906000526020600020905b81548152906001019060200180831161114357829003601f168201915b50505050506116c7565b905060005b61117c6020860186611f79565b905081101561132e57366111936020870187611f79565b838181106111a3576111a3611f63565b905060400201905060008560010160008360200160208101906111c69190611b2c565b6001600160e01b031916815260208082019290925260400160002091506111ef90830183611fc3565b15801561120357508054610100900460ff16155b801561121e575080546201000090046001600160a01b031615155b15611261576000846040516020016112369190611fe5565b60405160208183030381529060405290508060405162461bcd60e51b815260040161057a91906119f6565b60408051606081019091526001815260208082019061128290850185611fc3565b15158152602090810190611298908a018a6118b6565b6001600160a01b031690526001870160006112b96040860160208701611b2c565b6001600160e01b03191681526020808201929092526040908101600020835181549385015194909201516001600160a01b0316620100000262010000600160b01b03199415156101000261ff00199315159390931661ffff19909416939093179190911792909216179055505060010161116f565b5050505050565b600061133f61156f565b6001600160e01b03198316600090815260018201602052604090208054919250906201000090046001600160a01b031661138b5760405162461bcd60e51b815260040161057a90611e90565b805460ff191681556040516001600160e01b0319841681527ff52200093c3aa961cee2578ff68a1af76d1dac598e417ae99c81d1e9f078de6c906020015b60405180910390a1505050565b60006113e061156f565b90506000816002016113f1846116c7565b6040516113fe9190611e35565b908152604051908190036020019020546001600160a01b03169050806114365760405162461bcd60e51b815260040161057a90611edf565b6001600160a01b03811660009081526020839052604090819020805460ff1916600117815590517f28ec24965987700591e4ce426f5f6fc3b8a34f8dfc6ddc33c3dde10921376236906110839086906119f6565b600061149461156f565b6001600160e01b03198316600090815260018201602052604090208054919250906201000090046001600160a01b03166114e05760405162461bcd60e51b815260040161057a90611e90565b805460ff191660011781556040516001600160e01b0319841681527f35e89607ad2a982b5dffa74d6bd8e031dd7678f0736ff22a1273467eddafb90e906020016113c9565b60606115678484848080601f01602080910402602001604051908101604052809392919081815260200183838082843760009201919091525061160592505050565b949350505050565b60408051808201909152601781527f78722e657874656e73696f6e2e76312e73746f7261676500000000000000000060209091015260008060ff6115d460017f1292a532f6708584c640bd1e8f4417a90448457dee41fd12ab2a5e716bf3c09161207e565b6040516020016115e691815260200190565b60408051601f1981840301815291905280516020909101201692915050565b6060600080846001600160a01b0316846040516116229190611e35565b600060405180830381855af49150503d806000811461165d576040519150601f19603f3d011682016040523d82523d6000602084013e611662565b606091505b50915091508115611676579150610e7e9050565b8051156116865780518082602001fd5b60405162461bcd60e51b8152602060048201526016602482015275119d5b98dd1a5bdb8818d85b1b081c995d995c9d195960521b604482015260640161057a565b60608160005b8151811015611730576116ff8282815181106116eb576116eb611f63565b01602001516001600160f81b031916611737565b82828151811061171157611711611f63565b60200101906001600160f81b031916908160001a9053506001016116cd565b5092915050565b6000604160f81b6001600160f81b03198316108015906117655750602d60f91b6001600160f81b0319831611155b156117825761177960f883901c6020612091565b60f81b92915050565b5090565b828054828255906000526020600020906007016008900481019282156118225791602002820160005b838211156117f057835183826101000a81548163ffffffff021916908360e01c021790555092602001926004016020816003010492830192600103026117af565b80156118205782816101000a81549063ffffffff02191690556004016020816003010492830192600103026117f0565b505b5061178292915061188c565b50805461183a90611cea565b6000825580601f1061184a575050565b601f016020900490600052602060002090810190611868919061188c565b50565b50805460008255600701600890049060005260206000209081019061186891905b5b80821115611782576000815560010161188d565b6001600160a01b038116811461186857600080fd5b6000602082840312156118c857600080fd5b81356118d3816118a1565b9392505050565b80356001600160e01b0319811681146118f257600080fd5b919050565b60008083601f84011261190957600080fd5b50813567ffffffffffffffff81111561192157600080fd5b60208301915083602082850101111561193957600080fd5b9250929050565b6000806000806060858703121561195657600080fd5b61195f856118da565b9350602085013567ffffffffffffffff81111561197b57600080fd5b611987878288016118f7565b909450925050604085013561199b816118a1565b939692955090935050565b60005b838110156119c15781810151838201526020016119a9565b50506000910152565b600081518084526119e28160208601602086016119a6565b601f01601f19169290920160200192915050565b6020815260006118d360208301846119ca565b634e487b7160e01b600052604160045260246000fd5b6040805190810167ffffffffffffffff81118282101715611a4257611a42611a09565b60405290565b604051601f8201601f1916810167ffffffffffffffff81118282101715611a7157611a71611a09565b604052919050565b600067ffffffffffffffff821115611a9357611a93611a09565b50601f01601f191660200190565b600082601f830112611ab257600080fd5b8135611ac5611ac082611a79565b611a48565b818152846020838601011115611ada57600080fd5b816020850160208301376000918101602001919091529392505050565b600060208284031215611b0957600080fd5b813567ffffffffffffffff811115611b2057600080fd5b61156784828501611aa1565b600060208284031215611b3e57600080fd5b6118d3826118da565b60008060408385031215611b5a57600080fd5b823567ffffffffffffffff811115611b7157600080fd5b611b7d85828601611aa1565b95602094909401359450505050565b600080600060408486031215611ba157600080fd5b611baa846118da565b9250602084013567ffffffffffffffff811115611bc657600080fd5b611bd2868287016118f7565b9497909650939450505050565b600060208284031215611bf157600080fd5b813567ffffffffffffffff811115611c0857600080fd5b8201604081850312156118d357600080fd5b600080600060408486031215611c2f57600080fd5b8335611baa816118a1565b60006020808385031215611c4d57600080fd5b825167ffffffffffffffff80821115611c6557600080fd5b9084019060408287031215611c7957600080fd5b611c81611a1f565b825182811115611c9057600080fd5b83019150601f82018713611ca357600080fd5b8151611cb1611ac082611a79565b8181528886838601011115611cc557600080fd5b611cd4828783018887016119a6565b8252509183015192820192909252949350505050565b600181811c90821680611cfe57607f821691505b602082108103611d1e57634e487b7160e01b600052602260045260246000fd5b50919050565b601f821115611d70576000816000526020600020601f850160051c81016020861015611d4d5750805b601f850160051c820191505b81811015611d6c57828155600101611d59565b5050505b505050565b815167ffffffffffffffff811115611d8f57611d8f611a09565b611da381611d9d8454611cea565b84611d24565b602080601f831160018114611dd85760008415611dc05750858301515b600019600386901b1c1916600185901b178555611d6c565b600085815260208120601f198616915b82811015611e0757888601518255948401946001909101908401611de8565b5085821015611e255787850151600019600388901b60f8161c191681555b5050505050600190811b01905550565b60008251611e478184602087016119a6565b9190910192915050565b604081526000611e6460408301856119ca565b90508260208301529392505050565b600060208284031215611e8557600080fd5b81516118d3816118a1565b6020808252602f908201527f4c6962457874656e73696f6e3a206e6f20657874656e73696f6e20737570706f60408201526e393a399033371039b2b632b1ba37b960891b606082015260800190565b60208082526021908201527f4c6962457874656e73696f6e3a20657874656e73696f6e206e6f7420666f756e6040820152601960fa1b606082015260800190565b60208082526023908201527f4c6962457874656e73696f6e3a20657874656e73696f6e206e6f7420656e61626040820152621b195960ea1b606082015260800190565b634e487b7160e01b600052603260045260246000fd5b6000808335601e19843603018112611f9057600080fd5b83018035915067ffffffffffffffff821115611fab57600080fd5b6020019150600681901b360382131561193957600080fd5b600060208284031215611fd557600080fd5b813580151581146118d357600080fd5b7f4c6962457874656e73696f6e3a20657874656e73696f6e00000000000000000081526000825161201d8160178501602087016119a6565b7f20617474656d7074696e6720746f20726575736520612073656c6563746f722060179390910192830152506d616c726561647920696e2075736560901b6037820152604501919050565b634e487b7160e01b600052601160045260246000fd5b81810381811115610e7e57610e7e612068565b60ff8181168382160190811115610e7e57610e7e61206856fea2646970667358221220a1eb762568f9af6c5f4735a9041341c6b2fad35610ca703072c53260530b97cf64736f6c63430008180033",
  "linkReferences": {},
  "deployedLinkReferences": {}
}