{
  "_format": "hh-sol-artifact-1",
  "contractName": "NTERC721Asset",
  "sourceName": "contracts/asset/instance/erc721/NTERC721Asset.sol",
  "abi": [
    {
      "inputs": [
        {
          "components": [
            {
              "internalType": "contract IExtensionResolver",
              "name": "extensionResolver",
              "type": "address"
            },
            {
              "internalType": "address",
              "name": "assetRegistry",
              "type": "address"
            },
            {
              "internalType": "address",
              "name": "avatarRegistry",
              "type": "address"
            },
            {
              "internalType": "address",
              "name": "companyRegistry",
              "type": "address"
            }
          ],
          "internalType": "struct BaseAssetConstructorArgs",
          "name": "_args",
          "type": "tuple"
        }
      ],
      "stateMutability": "nonpayable",
      "type": "constructor"
    },
    {
      "anonymous": false,
      "inputs": [
        {
          "indexed": false,
          "internalType": "string",
          "name": "name",
          "type": "string"
        }
      ],
      "name": "ExtensionDisabled",
      "type": "event"
    },
    {
      "anonymous": false,
      "inputs": [
        {
          "indexed": false,
          "internalType": "string",
          "name": "name",
          "type": "string"
        }
      ],
      "name": "ExtensionEnabled",
      "type": "event"
    },
    {
      "anonymous": false,
      "inputs": [
        {
          "indexed": false,
          "internalType": "string",
          "name": "name",
          "type": "string"
        },
        {
          "components": [
            {
              "internalType": "uint16",
              "name": "major",
              "type": "uint16"
            },
            {
              "internalType": "uint16",
              "name": "minor",
              "type": "uint16"
            }
          ],
          "indexed": false,
          "internalType": "struct Version",
          "name": "version",
          "type": "tuple"
        }
      ],
      "name": "ExtensionInstalled",
      "type": "event"
    },
    {
      "anonymous": false,
      "inputs": [
        {
          "indexed": false,
          "internalType": "string",
          "name": "name",
          "type": "string"
        },
        {
          "components": [
            {
              "internalType": "uint16",
              "name": "major",
              "type": "uint16"
            },
            {
              "internalType": "uint16",
              "name": "minor",
              "type": "uint16"
            }
          ],
          "indexed": false,
          "internalType": "struct Version",
          "name": "version",
          "type": "tuple"
        }
      ],
      "name": "ExtensionRolledBack",
      "type": "event"
    },
    {
      "anonymous": false,
      "inputs": [
        {
          "indexed": false,
          "internalType": "string",
          "name": "name",
          "type": "string"
        },
        {
          "components": [
            {
              "internalType": "uint16",
              "name": "major",
              "type": "uint16"
            },
            {
              "internalType": "uint16",
              "name": "minor",
              "type": "uint16"
            }
          ],
          "indexed": false,
          "internalType": "struct Version",
          "name": "version",
          "type": "tuple"
        }
      ],
      "name": "ExtensionUpgraded",
      "type": "event"
    },
    {
      "anonymous": false,
      "inputs": [
        {
          "indexed": false,
          "internalType": "bytes4",
          "name": "selector",
          "type": "bytes4"
        }
      ],
      "name": "SelectorDisabled",
      "type": "event"
    },
    {
      "anonymous": false,
      "inputs": [
        {
          "indexed": false,
          "internalType": "bytes4",
          "name": "selector",
          "type": "bytes4"
        }
      ],
      "name": "SelectorEnabled",
      "type": "event"
    },
    {
      "stateMutability": "payable",
      "type": "fallback"
    },
    {
      "inputs": [],
      "name": "assetRegistry",
      "outputs": [
        {
          "internalType": "address",
          "name": "",
          "type": "address"
        }
      ],
      "stateMutability": "view",
      "type": "function"
    },
    {
      "inputs": [],
      "name": "avatarRegistry",
      "outputs": [
        {
          "internalType": "contract IAvatarRegistry",
          "name": "",
          "type": "address"
        }
      ],
      "stateMutability": "view",
      "type": "function"
    },
    {
      "inputs": [],
      "name": "companyRegistry",
      "outputs": [
        {
          "internalType": "contract ICompanyRegistry",
          "name": "",
          "type": "address"
        }
      ],
      "stateMutability": "view",
      "type": "function"
    },
    {
      "inputs": [],
      "name": "extResolver",
      "outputs": [
        {
          "internalType": "contract IExtensionResolver",
          "name": "",
          "type": "address"
        }
      ],
      "stateMutability": "view",
      "type": "function"
    },
    {
      "inputs": [
        {
          "internalType": "string",
          "name": "name",
          "type": "string"
        }
      ],
      "name": "getExtensionVersion",
      "outputs": [
        {
          "components": [
            {
              "internalType": "uint16",
              "name": "major",
              "type": "uint16"
            },
            {
              "internalType": "uint16",
              "name": "minor",
              "type": "uint16"
            }
          ],
          "internalType": "struct Version",
          "name": "",
          "type": "tuple"
        }
      ],
      "stateMutability": "view",
      "type": "function"
    },
    {
      "inputs": [
        {
          "internalType": "string",
          "name": "name",
          "type": "string"
        },
        {
          "components": [
            {
              "internalType": "uint16",
              "name": "major",
              "type": "uint16"
            },
            {
              "internalType": "uint16",
              "name": "minor",
              "type": "uint16"
            }
          ],
          "internalType": "struct Version",
          "name": "version",
          "type": "tuple"
        }
      ],
      "name": "hasExtension",
      "outputs": [
        {
          "internalType": "bool",
          "name": "",
          "type": "bool"
        }
      ],
      "stateMutability": "view",
      "type": "function"
    },
    {
      "inputs": [
        {
          "components": [
            {
              "internalType": "address",
              "name": "owner",
              "type": "address"
            },
            {
              "internalType": "address",
              "name": "termsOwner",
              "type": "address"
            },
            {
              "internalType": "address",
              "name": "registry",
              "type": "address"
            },
            {
              "internalType": "string",
              "name": "name",
              "type": "string"
            },
            {
              "components": [
                {
                  "internalType": "string",
                  "name": "x",
                  "type": "string"
                },
                {
                  "internalType": "string",
                  "name": "y",
                  "type": "string"
                },
                {
                  "internalType": "string",
                  "name": "z",
                  "type": "string"
                },
                {
                  "internalType": "uint256",
                  "name": "t",
                  "type": "uint256"
                },
                {
                  "internalType": "uint256",
                  "name": "p",
                  "type": "uint256"
                },
                {
                  "internalType": "uint256",
                  "name": "p_sub",
                  "type": "uint256"
                }
              ],
              "internalType": "struct VectorAddress",
              "name": "vector",
              "type": "tuple"
            },
            {
              "internalType": "bytes",
              "name": "initData",
              "type": "bytes"
            }
          ],
          "internalType": "struct CommonInitArgs",
          "name": "args",
          "type": "tuple"
        }
      ],
      "name": "init",
      "outputs": [],
      "stateMutability": "nonpayable",
      "type": "function"
    },
    {
      "inputs": [],
      "name": "version",
      "outputs": [
        {
          "components": [
            {
              "internalType": "uint16",
              "name": "major",
              "type": "uint16"
            },
            {
              "internalType": "uint16",
              "name": "minor",
              "type": "uint16"
            }
          ],
          "internalType": "struct Version",
          "name": "",
          "type": "tuple"
        }
      ],
      "stateMutability": "pure",
      "type": "function"
    },
    {
      "inputs": [
        {
          "internalType": "uint256",
          "name": "amount",
          "type": "uint256"
        }
      ],
      "name": "withdraw",
      "outputs": [],
      "stateMutability": "nonpayable",
      "type": "function"
    },
    {
      "stateMutability": "payable",
      "type": "receive"
    }
  ],
  "bytecode": "0x6101006040523480156200001257600080fd5b50604051620019b1380380620019b183398101604081905262000035916200025e565b805181906001600160a01b038116620000bb5760405162461bcd60e51b815260206004820152603660248201527f456e746974795368656c6c3a20657874656e73696f6e207265736f6c7665722060448201527f63616e6e6f74206265207a65726f20616464726573730000000000000000000060648201526084015b60405180910390fd5b6001600160a01b03908116608052602082015116620001325760405162461bcd60e51b815260206004820152602c60248201527f4261736541737365743a2061737365745265676973747279206973207468652060448201526b7a65726f206164647265737360a01b6064820152608401620000b2565b60408101516001600160a01b0316620001a45760405162461bcd60e51b815260206004820152602d60248201527f4261736541737365743a2061766174617252656769737472792069732074686560448201526c207a65726f206164647265737360981b6064820152608401620000b2565b60608101516001600160a01b0316620002175760405162461bcd60e51b815260206004820152602e60248201527f4261736541737365743a20636f6d70616e79526567697374727920697320746860448201526d65207a65726f206164647265737360901b6064820152608401620000b2565b60208101516001600160a01b0390811660a0526040820151811660c0526060909101511660e05250620002fa565b6001600160a01b03811681146200025b57600080fd5b50565b6000608082840312156200027157600080fd5b604051608081016001600160401b0381118282101715620002a257634e487b7160e01b600052604160045260246000fd5b6040528251620002b28162000245565b81526020830151620002c48162000245565b60208201526040830151620002d98162000245565b60408201526060830151620002ee8162000245565b60608201529392505050565b60805160a05160c05160e051611661620003506000396000610208015260006102700152600081816101bc01526105cd01526000818161023c0152818161029c015281816102e9015261054301526116616000f3fe60806040526004361061008a5760003560e01c806369a10a121161005957806369a10a121461018a578063979d7e86146101aa578063c51aba2b146101f6578063dd2a44c11461022a578063e3d7ad731461025e57610091565b8063238a0386146100b95780632e1a7d4d1461010057806347d1d09a1461012257806354fd4d501461015257610091565b3661009157005b600080356001600160e01b031916905060006100af82600036610292565b9050805160208201f35b3480156100c557600080fd5b506100d96100d4366004610ff5565b6102c8565b60408051825161ffff90811682526020938401511692810192909252015b60405180910390f35b34801561010c57600080fd5b5061012061011b36600461102a565b61036c565b005b34801561012e57600080fd5b5061014261013d366004611043565b610529565b60405190151581526020016100f7565b34801561015e57600080fd5b5060408051808201825260008082526020918201819052825180840190935260018352908201526100d9565b34801561019657600080fd5b506101206101a536600461109d565b6105c2565b3480156101b657600080fd5b506101de7f000000000000000000000000000000000000000000000000000000000000000081565b6040516001600160a01b0390911681526020016100f7565b34801561020257600080fd5b506101de7f000000000000000000000000000000000000000000000000000000000000000081565b34801561023657600080fd5b506101de7f000000000000000000000000000000000000000000000000000000000000000081565b34801561026a57600080fd5b506101de7f000000000000000000000000000000000000000000000000000000000000000081565b60606102c08484847f0000000000000000000000000000000000000000000000000000000000000000610b74565b949350505050565b6040805180820182526000808252602082015290516311c501c360e11b81527f00000000000000000000000000000000000000000000000000000000000000006001600160a01b03169063238a038690610326908590600401611128565b6040805180830381865afa158015610342573d6000803e3d6000fd5b505050506040513d601f19601f82011682018060405250810190610366919061114e565b92915050565b604051630935e01b60e21b815233600482015273__$a5a42e46683ad9c79b7b86d5ff60fdf4c1$__906324d7806c90602401602060405180830381865af41580156103bb573d6000803e3d6000fd5b505050506040513d601f19601f820116820180604052508101906103df91906111ad565b6104305760405162461bcd60e51b815260206004820181905260248201527f42617369635368656c6c3a207265737472696374656420746f2061646d696e7360448201526064015b60405180910390fd5b478111156104805760405162461bcd60e51b815260206004820181905260248201527f42617369635368656c6c3a20696e73756666696369656e742062616c616e63656044820152606401610427565b73__$a5a42e46683ad9c79b7b86d5ff60fdf4c1$__638da5cb5b6040518163ffffffff1660e01b8152600401602060405180830381865af41580156104c9573d6000803e3d6000fd5b505050506040513d601f19601f820116820180604052508101906104ed91906111e4565b6001600160a01b03166108fc829081150290604051600060405180830381858888f19350505050158015610525573d6000803e3d6000fd5b5050565b6040516323e8e84d60e11b81526000906001600160a01b037f000000000000000000000000000000000000000000000000000000000000000016906347d1d09a9061057a9086908690600401611201565b602060405180830381865afa158015610597573d6000803e3d6000fd5b505050506040513d601f19601f820116820180604052508101906105bb91906111ad565b9392505050565b336001600160a01b037f0000000000000000000000000000000000000000000000000000000000000000161461063a5760405162461bcd60e51b815260206004820181905260248201527f4261736541737365743a206f6e6c7920726567697374727920616c6c6f7765646044820152606401610427565b6000610644610ca6565b90506000610650610d32565b60018301549091506001600160a01b0316156106b95760405162461bcd60e51b815260206004820152602260248201527f4e5445524337323141737365743a20616c726561647920696e697469616c697a604482015261195960f21b6064820152608401610427565b60006106c8602085018561124d565b6001600160a01b0316036107325760405162461bcd60e51b815260206004820152602b60248201527f4e5445524337323141737365743a206f776e65722063616e6e6f74206265207a60448201526a65726f206164647265737360a81b6064820152608401610427565b6000610744604085016020860161124d565b6001600160a01b0316036107b45760405162461bcd60e51b815260206004820152603160248201527f4e5445524337323141737365743a207465726d73206f776e65722063616e6e6f60448201527074206265207a65726f206164647265737360781b6064820152608401610427565b60006107c6606085016040860161124d565b6001600160a01b0316036108335760405162461bcd60e51b815260206004820152602e60248201527f4e5445524337323141737365743a2072656769737472792063616e6e6f74206260448201526d65207a65726f206164647265737360901b6064820152608401610427565b6000610842606085018561126a565b90501161089d5760405162461bcd60e51b815260206004820152602360248201527f4e5445524337323141737365743a206e616d652063616e6e6f7420626520656d60448201526270747960e81b6064820152608401610427565b60006108ac60a085018561126a565b8101906108b991906112b8565b905060008160600151511161091c5760405162461bcd60e51b815260206004820152602360248201527f4e5445524337323141737365743a206261736520555249206d757374206265206044820152621cd95d60ea1b6064820152608401610427565b80516001600160a01b03166109995760405162461bcd60e51b815260206004820152603a60248201527f4e5445524337323141737365743a206f726967696e20636861696e206164647260448201527f6573732063616e6e6f74206265207a65726f20616464726573730000000000006064820152608401610427565b6000816020015111610a135760405162461bcd60e51b815260206004820152603860248201527f4e5445524337323141737365743a206f726967696e20636861696e206964206d60448201527f7573742062652067726561746572207468616e207a65726f00000000000000006064820152608401610427565b600081604001515111610a385760405162461bcd60e51b815260040161042790611366565b600081604001515111610a5d5760405162461bcd60e51b815260040161042790611366565b610a6a602085018561124d565b6001840180546001600160a01b0319166001600160a01b039283161790558151845462010000600160b01b0319166201000091909216021783556020810151600384015560408101516004840190610ac29082611432565b50610aea8160600151604051806040016040528060018152602001602f60f81b815250610d97565b610b25578060600151604051602001610b0391906114f2565b60408051601f198184030181529190528290610b1f9082611432565b50610b38565b60608101518290610b369082611432565b505b6000610b42610e02565b805460ff191660011781559050610b5c606086018661126a565b6002830191610b6c919083611517565b505050505050565b6040516337b4746960e11b81526001600160e01b0319851660048201526060906000906001600160a01b03841690636f68e8d290602401602060405180830381865afa158015610bc8573d6000803e3d6000fd5b505050506040513d601f19601f82011682018060405250810190610bec91906111e4565b90506001600160a01b038116610c5c5760405162461bcd60e51b815260206004820152602f60248201527f4c6962457874656e73696f6e3a206e6f20657874656e73696f6e20737570706f60448201526e393a399033371039b2b632b1ba37b960891b6064820152608401610427565b610c9c8186868080601f016020809104026020016040519081016040528093929190818152602001838380828437600092019190915250610e6792505050565b9695505050505050565b60408051808201909152601381527278722e61737365742e73746f726167652e763160681b60209091015260008060ff610d0160017f0db46b7c34197dfe4fa603e9c17ca5ed137d4afe720a374e843bbcf1431eaeb76115d8565b604051602001610d1391815260200190565b60408051601f1981840301815291905280516020909101201692915050565b60408051808201909152601a81527f78722e6572633732312e61737365742e73746f726167652e763100000000000060209091015260008060ff610d0160017f60ff308ff8f840802008c7c997a35cbef97f56188316b0b2b2dbc99e530b505f6115d8565b600081518351101580156105bb575081600081518110610db957610db96115f9565b0160200151825184516001600160f81b0319909216918591610dda916115d8565b81518110610dea57610dea6115f9565b01602001516001600160f81b03191614905092915050565b60408051808201909152601881527f78722e61637469766174696f6e2e73746f726167652e7631000000000000000060209091015260008060ff610d0160017ff6611e962a52dbc98dd0485088d920890c43e26113c61976f6e171a29d49ce496115d8565b6060600080846001600160a01b031684604051610e84919061160f565b600060405180830381855af49150503d8060008114610ebf576040519150601f19603f3d011682016040523d82523d6000602084013e610ec4565b606091505b50915091508115610ed85791506103669050565b805115610ee85780518082602001fd5b60405162461bcd60e51b8152602060048201526016602482015275119d5b98dd1a5bdb8818d85b1b081c995d995c9d195960521b6044820152606401610427565b634e487b7160e01b600052604160045260246000fd5b6040516080810167ffffffffffffffff81118282101715610f6257610f62610f29565b60405290565b600082601f830112610f7957600080fd5b813567ffffffffffffffff80821115610f9457610f94610f29565b604051601f8301601f19908116603f01168101908282118183101715610fbc57610fbc610f29565b81604052838152866020858801011115610fd557600080fd5b836020870160208301376000602085830101528094505050505092915050565b60006020828403121561100757600080fd5b813567ffffffffffffffff81111561101e57600080fd5b6102c084828501610f68565b60006020828403121561103c57600080fd5b5035919050565b600080828403606081121561105757600080fd5b833567ffffffffffffffff81111561106e57600080fd5b61107a86828701610f68565b9350506040601f198201121561108f57600080fd5b506020830190509250929050565b6000602082840312156110af57600080fd5b813567ffffffffffffffff8111156110c657600080fd5b820160c081850312156105bb57600080fd5b60005b838110156110f35781810151838201526020016110db565b50506000910152565b600081518084526111148160208601602086016110d8565b601f01601f19169290920160200192915050565b6020815260006105bb60208301846110fc565b61ffff8116811461114b57600080fd5b50565b60006040828403121561116057600080fd5b6040516040810181811067ffffffffffffffff8211171561118357611183610f29565b60405282516111918161113b565b815260208301516111a18161113b565b60208201529392505050565b6000602082840312156111bf57600080fd5b815180151581146105bb57600080fd5b6001600160a01b038116811461114b57600080fd5b6000602082840312156111f657600080fd5b81516105bb816111cf565b60608152600061121460608301856110fc565b905082356112218161113b565b61ffff80821660208501526020850135915061123c8261113b565b808216604085015250509392505050565b60006020828403121561125f57600080fd5b81356105bb816111cf565b6000808335601e1984360301811261128157600080fd5b83018035915067ffffffffffffffff82111561129c57600080fd5b6020019150368190038213156112b157600080fd5b9250929050565b6000602082840312156112ca57600080fd5b813567ffffffffffffffff808211156112e257600080fd5b90830190608082860312156112f657600080fd5b6112fe610f3f565b8235611309816111cf565b81526020838101359082015260408301358281111561132757600080fd5b61133387828601610f68565b60408301525060608301358281111561134b57600080fd5b61135787828601610f68565b60608301525095945050505050565b60208082526025908201527f4e5445524337323141737365743a2073796d626f6c2063616e6e6f7420626520604082015264656d70747960d81b606082015260800190565b600181811c908216806113bf57607f821691505b6020821081036113df57634e487b7160e01b600052602260045260246000fd5b50919050565b601f82111561142d576000816000526020600020601f850160051c8101602086101561140e5750805b601f850160051c820191505b81811015610b6c5782815560010161141a565b505050565b815167ffffffffffffffff81111561144c5761144c610f29565b6114608161145a84546113ab565b846113e5565b602080601f831160018114611495576000841561147d5750858301515b600019600386901b1c1916600185901b178555610b6c565b600085815260208120601f198616915b828110156114c4578886015182559484019460019091019084016114a5565b50858210156114e25787850151600019600388901b60f8161c191681555b5050505050600190811b01905550565b600082516115048184602087016110d8565b602f60f81b920191825250600101919050565b67ffffffffffffffff83111561152f5761152f610f29565b6115438361153d83546113ab565b836113e5565b6000601f841160018114611577576000851561155f5750838201355b600019600387901b1c1916600186901b1783556115d1565b600083815260209020601f19861690835b828110156115a85786850135825560209485019460019092019101611588565b50868210156115c55760001960f88860031b161c19848701351681555b505060018560011b0183555b5050505050565b8181038181111561036657634e487b7160e01b600052601160045260246000fd5b634e487b7160e01b600052603260045260246000fd5b600082516116218184602087016110d8565b919091019291505056fea26469706673582212200fea2f08cc25256905b1a962e7f35e8cf86bac6657e46f99dbdb48d4f751b4dd64736f6c63430008180033",
  "linkReferences": {
    "contracts/libraries/LibAccess.sol": {
      "LibAccess": [
        {
          "length": 20,
          "start": 1745
        },
        {
          "length": 20,
          "start": 2002
        }
      ]
    }
  },
  "deployedLinkReferences": {
    "contracts/libraries/LibAccess.sol": {
      "LibAccess": [
        {
          "length": 20,
          "start": 897
        },
        {
          "length": 20,
          "start": 1154
        }
      ]
    }
  }
}