{
  "_format": "hh-sol-artifact-1",
  "contractName": "PortalJumpExt",
  "sourceName": "contracts/extensions/portal/PortalJumpExt.sol",
  "abi": [
    {
      "inputs": [
        {
          "internalType": "uint256",
          "name": "value",
          "type": "uint256"
        },
        {
          "internalType": "uint256",
          "name": "length",
          "type": "uint256"
        }
      ],
      "name": "StringsInsufficientHexLength",
      "type": "error"
    },
    {
      "inputs": [
        {
          "internalType": "address",
          "name": "myAddress",
          "type": "address"
        }
      ],
      "name": "install",
      "outputs": [],
      "stateMutability": "nonpayable",
      "type": "function"
    },
    {
      "inputs": [
        {
          "internalType": "uint256",
          "name": "portalId",
          "type": "uint256"
        }
      ],
      "name": "jumpRequest",
      "outputs": [
        {
          "internalType": "bytes",
          "name": "",
          "type": "bytes"
        }
      ],
      "stateMutability": "payable",
      "type": "function"
    },
    {
      "inputs": [],
      "name": "metadata",
      "outputs": [
        {
          "components": [
            {
              "internalType": "string",
              "name": "name",
              "type": "string"
            },
            {
              "components": [
                {
                  "internalType": "uint16",
                  "name": "major",
                  "type": "uint16"
                },
                {
                  "internalType": "uint16",
                  "name": "minor",
                  "type": "uint16"
                }
              ],
              "internalType": "struct Version",
              "name": "version",
              "type": "tuple"
            }
          ],
          "internalType": "struct ExtensionMetadata",
          "name": "",
          "type": "tuple"
        }
      ],
      "stateMutability": "pure",
      "type": "function"
    },
    {
      "inputs": [
        {
          "internalType": "address",
          "name": "myAddress",
          "type": "address"
        }
      ],
      "name": "upgrade",
      "outputs": [],
      "stateMutability": "nonpayable",
      "type": "function"
    }
  ],
  "bytecode": "0x608060405234801561001057600080fd5b50611646806100206000396000f3fe60806040526004361061003f5760003560e01c80630900f010146100445780632a1b8f9b14610064578063392f37e91461008457806384c4484e146100af575b600080fd5b34801561005057600080fd5b5061006261005f3660046111dc565b50565b005b34801561007057600080fd5b5061006261007f3660046111dc565b6100cf565b34801561009057600080fd5b506100996101aa565b6040516100a69190611250565b60405180910390f35b6100c26100bd366004611295565b6101fd565b6040516100a691906112ae565b604080516001808252818301909252600091816020015b6040805180820190915260008152606060208201528152602001906001900390816100e657905050905060405180604001604052806384c4484e60e01b6001600160e01b0319168152602001604051806040016040528060148152602001736a756d70526571756573742875696e743235362960601b81525081525081600081518110610175576101756112d7565b60200260200101819052506101a66040518060400160405280846001600160a01b03168152602001838152506106de565b5050565b6101b261118b565b5060408051608081018252600d8183019081526c141bdc9d185b129d5b5c115e1d609a1b60608301528152815180830190925260018252600060208381019190915281019190915290565b60606000306001600160a01b031663e3d7ad736040518163ffffffff1660e01b8152600401602060405180830381865afa15801561023f573d6000803e3d6000fd5b505050506040513d601f19601f8201168201806040525081019061026391906112ed565b60405163c3c5a54760e01b815233600482015290915081906001600160a01b0382169063c3c5a54790602401602060405180830381865afa1580156102ac573d6000803e3d6000fd5b505050506040513d601f19601f820116820180604052508101906102d0919061130a565b6103475760405162461bcd60e51b815260206004820152603a60248201527f506f7274616c4a756d703a204f6e6c792072656769737465726564206176617460448201527f6172732063616e2063616c6c20746869732066756e6374696f6e00000000000060648201526084015b60405180910390fd5b336001600160a01b03166386b70bed6040518163ffffffff1660e01b8152600401602060405180830381865afa158015610385573d6000803e3d6000fd5b505050506040513d601f19601f820116820180604052508101906103a9919061130a565b6104145760405162461bcd60e51b815260206004820152603660248201527f506f7274616c4a756d703a204f6e6c792061637469766520617661746172732060448201527531b0b71031b0b636103a3434b990333ab731ba34b7b760511b606482015260840161033e565b600061041f856108a1565b60e0810151602001519091506001600160a01b0316156105405760e08101516020908101519082015160408084015160608501518551925163f610c1d560e01b81526001600160a01b039485166004820152918416602483015283166044820152908216606482015233608482015291169063f610c1d59060a4016020604051808303816000875af11580156104b9573d6000803e3d6000fd5b505050506040513d601f19601f820116820180604052508101906104dd919061130a565b6105405760405162461bcd60e51b815260206004820152602e60248201527f506f7274616c52656769737472793a20706f7274616c206a756d7020636f6e6460448201526d1a5d1a5bdb9cc81b9bdd081b595d60921b606482015260840161033e565b60e0810151604001511561061b578060e00151604001513410156105cc5760405162461bcd60e51b815260206004820152603960248201527f506f7274616c52656769737472793a20496e73756666696369656e742066656560448201527f20617474616368656420746f206a756d70207265717565737400000000000000606482015260840161033e565b60008160e0015160400151346105e29190611342565b9050801561061957604051339082156108fc029083906000818181858888f19350505050158015610617573d6000803e3d6000fd5b505b505b60208082015160e0830151604090810151815160608082018452838701516001600160a01b0390811683529087015181169582019586523382850190815293516354cc5a0b60e01b815291518116600483015294518516602482015291518416604483015292909116916354cc5a0b9160640160006040518083038185885af11580156106ac573d6000803e3d6000fd5b50505050506040513d6000823e601f3d908101601f191682016040526106d59190810190611355565b95945050505050565b60006106e8610efd565b82516001600160a01b031660009081526020829052604081209192505b83602001515181101561089b5760008460200151828151811061072a5761072a6112d7565b6020908102919091018101518051600486810180546001808201835560009283528683206008830401805463ffffffff600790941690950261010090810a9384021990951660e09690961c9290920294909417905583516001600160e01b0319168152918801909352604090208054919350916001600160a01b039104161561082357805461010090046001600160a01b03166000908152602086905260408120875190919060018701906107de90610f93565b6020808701516040516107f894939260018801910161149f565b60405160208183030381529060405290508060405162461bcd60e51b815260040161033e91906112ae565b50604080518082018252600180825287516001600160a01b03908116602080850191825295516001600160e01b0319166000908152898401909652939094209151825493516001600160a81b0319909416901515610100600160a81b0319161761010093909416929092029290921790915501610705565b50505050565b6040805161010081018252600080825260208083018290528284018290526060808401839052608080850184905260a085018490528551808201875284815280840185905280870185905280830185905260c08601528551908101865283815280830184905280860184905290810183905260e084015283516328b793cf60e11b8152935192933393849263516f279e92600480820193918290030181865afa158015610952573d6000803e3d6000fd5b505050506040513d601f19601f8201168201806040525081019061097691906112ed565b90506001600160a01b03811661099e5760405162461bcd60e51b815260040161033e9061157e565b60006109a8610faf565b90506001600160a01b0382166109d05760405162461bcd60e51b815260040161033e9061157e565b6001600160a01b038216600090815260028201602052604081205490819003610a6b5760405162461bcd60e51b815260206004820152604160248201527f506f7274616c52656769737472793a206e6f20706f7274616c20666f756e642060448201527f666f72207468652061766174617227732063757272656e74206c6f636174696f6064820152603760f91b608482015260a40161033e565b858103610ad55760405162461bcd60e51b815260206004820152603260248201527f506f7274616c52656769737472793a2063616e6e6f74206a756d7020746f207460448201527168652073616d6520657870657269656e636560701b606482015260840161033e565b600081815260208390526040902080546001600160a01b0316610b62576040805162461bcd60e51b81526020600482015260248101919091527f506f7274616c52656769737472793a20636f756c64206e6f74206d617020637560448201527f7272656e74206c6f636174696f6e20746f20612076616c696420706f7274616c606482015260840161033e565b6000878152602084905260409020600381015460ff16610bdd5760405162461bcd60e51b815260206004820152603060248201527f506f7274616c52656769737472793a2064657374696e6174696f6e20706f727460448201526f616c206973206e6f742061637469766560801b606482015260840161033e565b80546001600160a01b0316610c4a5760405162461bcd60e51b815260206004820152602d60248201527f506f7274616c52656769737472793a20696e76616c69642064657374696e617460448201526c1a5bdb881c1bdc9d185b081a59609a1b606482015260840161033e565b604080516101008101825283546001600160a01b039081168083528454909116602080840191909152835163185b3dd560e11b8152845193948501936330b67baa926004808401939192918290030181865afa158015610cae573d6000803e3d6000fd5b505050506040513d601f19601f82011682018060405250810190610cd291906112ed565b6001600160a01b031681526020018360000160009054906101000a90046001600160a01b03166001600160a01b0316636904c94d6040518163ffffffff1660e01b8152600401602060405180830381865afa158015610d35573d6000803e3d6000fd5b505050506040513d601f19601f82011682018060405250810190610d5991906112ed565b6001600160a01b031681526020018260000160009054906101000a90046001600160a01b03166001600160a01b03166330b67baa6040518163ffffffff1660e01b8152600401602060405180830381865afa158015610dbc573d6000803e3d6000fd5b505050506040513d601f19601f82011682018060405250810190610de091906112ed565b6001600160a01b031681526020018260000160009054906101000a90046001600160a01b03166001600160a01b0316636904c94d6040518163ffffffff1660e01b8152600401602060405180830381865afa158015610e43573d6000803e3d6000fd5b505050506040513d601f19601f82011682018060405250810190610e6791906112ed565b6001600160a01b039081168252604080516080808201835287548416825260018089015485166020848101919091526002808b01548587015260039a8b015460ff9081161515606080880191909152838a0196909652865194850187528a5488168552928a0154909616908301529387015481840152959096015490911615159484019490945292909201529695505050505050565b60408051808201909152601881527f78722e657874656e73696f6e732e73746f726167652e7631000000000000000060209091015260008060ff610f6260017fb58ec9ca7ba0606d9fecd9f559655d0e5fec418e6751b65b892bccdfd25eb99f611342565b604051602001610f7491815260200190565b60408051601f1981840301815291905280516020909101201692915050565b6060610fa96001600160a01b038316601461100b565b92915050565b60408051808201909152601481527378722e706f7274616c2e73746f726167652e763160601b60209091015260008060ff610f6260017f32e6b45acdd074b73c3a2919736df19970ec59317a4f46192bf93b96896df009611342565b606082600061101b8460026115cf565b6110269060026115e6565b67ffffffffffffffff81111561103e5761103e6112c1565b6040519080825280601f01601f191660200182016040528015611068576020820181803683370190505b509050600360fc1b81600081518110611083576110836112d7565b60200101906001600160f81b031916908160001a905350600f60fb1b816001815181106110b2576110b26112d7565b60200101906001600160f81b031916908160001a90535060006110d68560026115cf565b6110e19060016115e6565b90505b6001811115611159576f181899199a1a9b1b9c1cb0b131b232b360811b83600f1660108110611115576111156112d7565b1a60f81b82828151811061112b5761112b6112d7565b60200101906001600160f81b031916908160001a90535060049290921c91611152816115f9565b90506110e4565b5081156111835760405163e22e27eb60e01b8152600481018690526024810185905260440161033e565b949350505050565b6040518060400160405280606081526020016111c26040518060400160405280600061ffff168152602001600061ffff1681525090565b905290565b6001600160a01b038116811461005f57600080fd5b6000602082840312156111ee57600080fd5b81356111f9816111c7565b9392505050565b60005b8381101561121b578181015183820152602001611203565b50506000910152565b6000815180845261123c816020860160208601611200565b601f01601f19169290920160200192915050565b60208152600082516060602084015261126c6080840182611224565b602094850151805161ffff90811660408701529501519094166060909301929092525090919050565b6000602082840312156112a757600080fd5b5035919050565b6020815260006111f96020830184611224565b634e487b7160e01b600052604160045260246000fd5b634e487b7160e01b600052603260045260246000fd5b6000602082840312156112ff57600080fd5b81516111f9816111c7565b60006020828403121561131c57600080fd5b815180151581146111f957600080fd5b634e487b7160e01b600052601160045260246000fd5b81810381811115610fa957610fa961132c565b60006020828403121561136757600080fd5b815167ffffffffffffffff8082111561137f57600080fd5b818401915084601f83011261139357600080fd5b8151818111156113a5576113a56112c1565b604051601f8201601f19908116603f011681019083821181831017156113cd576113cd6112c1565b816040528281528760208487010111156113e657600080fd5b6113f7836020830160208801611200565b979650505050505050565b8054600090600181811c908083168061141c57607f831692505b6020808410820361143d57634e487b7160e01b600052602260045260246000fd5b818015611451576001811461146657611493565b60ff1986168952841515850289019650611493565b60008881526020902060005b8681101561148b5781548b820152908501908301611472565b505084890196505b50505050505092915050565b7f4c6962457874656e73696f6e3a20657874656e73696f6e200000000000000000815260006114d16018830187611402565b6c01030ba1030b2323932b9b99d1609d1b815285516114f781600d840160208a01611200565b8082019150507f20617474656d7074696e6720746f20726575736520612073656c6563746f723a600d820152600160fd1b80602d830152855161154181602e850160208a01611200565b7f2c20776869636820697320616c72656164792072656769737465726564206279602e9390910192830152604e8201526113f7604f820185611402565b60208082526031908201527f506f7274616c52656769737472793a20617661746172206973206e6f7420696e6040820152701030903b30b634b2103637b1b0ba34b7b760791b606082015260800190565b8082028115828204841417610fa957610fa961132c565b80820180821115610fa957610fa961132c565b6000816116085761160861132c565b50600019019056fea2646970667358221220f07ae3adf25a94e1a5ab8040297e53aaba55078280e2927163e134b54f66ac5664736f6c63430008180033",
  "linkReferences": {},
  "deployedLinkReferences": {}
}