{
  "_format": "hh-sol-artifact-1",
  "contractName": "PortalConditionsExt",
  "sourceName": "contracts/extensions/portal/PortalConditionsExt.sol",
  "abi": [
    {
      "inputs": [
        {
          "internalType": "uint256",
          "name": "value",
          "type": "uint256"
        },
        {
          "internalType": "uint256",
          "name": "length",
          "type": "uint256"
        }
      ],
      "name": "StringsInsufficientHexLength",
      "type": "error"
    },
    {
      "anonymous": false,
      "inputs": [
        {
          "indexed": true,
          "internalType": "uint256",
          "name": "portalId",
          "type": "uint256"
        },
        {
          "indexed": true,
          "internalType": "address",
          "name": "condition",
          "type": "address"
        }
      ],
      "name": "PortalConditionAdded",
      "type": "event"
    },
    {
      "anonymous": false,
      "inputs": [
        {
          "indexed": true,
          "internalType": "uint256",
          "name": "portalId",
          "type": "uint256"
        }
      ],
      "name": "PortalConditionRemoved",
      "type": "event"
    },
    {
      "inputs": [
        {
          "internalType": "contract IPortalCondition",
          "name": "condition",
          "type": "address"
        }
      ],
      "name": "addCondition",
      "outputs": [],
      "stateMutability": "nonpayable",
      "type": "function"
    },
    {
      "inputs": [
        {
          "internalType": "address",
          "name": "myAddress",
          "type": "address"
        }
      ],
      "name": "install",
      "outputs": [],
      "stateMutability": "nonpayable",
      "type": "function"
    },
    {
      "inputs": [],
      "name": "metadata",
      "outputs": [
        {
          "components": [
            {
              "internalType": "string",
              "name": "name",
              "type": "string"
            },
            {
              "components": [
                {
                  "internalType": "uint16",
                  "name": "major",
                  "type": "uint16"
                },
                {
                  "internalType": "uint16",
                  "name": "minor",
                  "type": "uint16"
                }
              ],
              "internalType": "struct Version",
              "name": "version",
              "type": "tuple"
            }
          ],
          "internalType": "struct ExtensionMetadata",
          "name": "",
          "type": "tuple"
        }
      ],
      "stateMutability": "pure",
      "type": "function"
    },
    {
      "inputs": [],
      "name": "removeCondition",
      "outputs": [],
      "stateMutability": "nonpayable",
      "type": "function"
    },
    {
      "inputs": [
        {
          "internalType": "address",
          "name": "myAddress",
          "type": "address"
        }
      ],
      "name": "upgrade",
      "outputs": [],
      "stateMutability": "nonpayable",
      "type": "function"
    }
  ],
  "bytecode": "0x608060405234801561001057600080fd5b50610fc8806100206000396000f3fe608060405234801561001057600080fd5b50600436106100575760003560e01c8063021665b71461005c5780630900f0101461006657806322d34932146100775780632a1b8f9b1461008a578063392f37e91461009d575b600080fd5b6100646100bb565b005b610064610074366004610b96565b50565b610064610085366004610b96565b610299565b610064610098366004610b96565b610549565b6100a561069b565b6040516100b29190610c0a565b60405180910390f35b6000306001600160a01b0316638f09a6be6040518163ffffffff1660e01b8152600401602060405180830381865afa1580156100fb573d6000803e3d6000fd5b505050506040513d601f19601f8201168201806040525081019061011f9190610c4f565b60405163c3c5a54760e01b815233600482015290915081906001600160a01b0382169063c3c5a54790602401602060405180830381865afa158015610168573d6000803e3d6000fd5b505050506040513d601f19601f8201168201806040525081019061018c9190610c6c565b6101b15760405162461bcd60e51b81526004016101a890610c8e565b60405180910390fd5b336001600160a01b03166386b70bed6040518163ffffffff1660e01b8152600401602060405180830381865afa1580156101ef573d6000803e3d6000fd5b505050506040513d601f19601f820116820180604052508101906102139190610c6c565b61022f5760405162461bcd60e51b81526004016101a890610cfa565b60006102396106f4565b3360009081526002820160209081526040808320548084529184905280832060010180546001600160a01b0319169055519293509182917f2e3f0e8f6904984244368dfff28046157a23abf558feb664bf3727766cbd200c91a250505050565b6000306001600160a01b0316638f09a6be6040518163ffffffff1660e01b8152600401602060405180830381865afa1580156102d9573d6000803e3d6000fd5b505050506040513d601f19601f820116820180604052508101906102fd9190610c4f565b60405163c3c5a54760e01b815233600482015290915081906001600160a01b0382169063c3c5a54790602401602060405180830381865afa158015610346573d6000803e3d6000fd5b505050506040513d601f19601f8201168201806040525081019061036a9190610c6c565b6103865760405162461bcd60e51b81526004016101a890610c8e565b336001600160a01b03166386b70bed6040518163ffffffff1660e01b8152600401602060405180830381865afa1580156103c4573d6000803e3d6000fd5b505050506040513d601f19601f820116820180604052508101906103e89190610c6c565b6104045760405162461bcd60e51b81526004016101a890610cfa565b600061040e6106f4565b90506001600160a01b03841661047c5760405162461bcd60e51b815260206004820152602d60248201527f506f7274616c52656769737472793a20636f6e646974696f6e2061646472657360448201526c0732063616e6e6f74206265203609c1b60648201526084016101a8565b336000908152600282016020526040812054908190036104ea5760405162461bcd60e51b8152602060048201526024808201527f506f7274616c52656769737472793a20657870657269656e6365206e6f7420666044820152631bdd5b9960e21b60648201526084016101a8565b60008181526020839052604080822060010180546001600160a01b0319166001600160a01b0389169081179091559051909183917f50dc6bddd2ee7ed8c2f3a3bc6b995160e945bffd902a4135fccbe2fadbb332099190a35050505050565b60408051600280825260608201909252600091816020015b60408051808201909152600081526060602082015281526020019060019003908161056157905050905060405180604001604052806322d3493260e01b6001600160e01b03191681526020016040518060400160405280601e81526020017f616464436f6e646974696f6e2849506f7274616c436f6e646974696f6e290000815250815250816000815181106105f9576105f9610d78565b6020026020010181905250604051806040016040528063021665b760e01b6001600160e01b03191681526020016040518060400160405280601181526020017072656d6f7665436f6e646974696f6e282960781b8152508152508160018151811061066657610666610d78565b60200260200101819052506106976040518060400160405280846001600160a01b0316815260200183815250610781565b5050565b6106a3610b45565b5060408051608081018252601381830190815272141bdc9d185b10dbdb991a5d1a5bdb9cd15e1d606a1b60608301528152815180830190925260018252600060208381019190915281019190915290565b60408051808201909152601481527378722e706f7274616c2e73746f726167652e763160601b60209091015260008060ff61075060017f32e6b45acdd074b73c3a2919736df19970ec59317a4f46192bf93b96896df009610da4565b60405160200161076291815260200190565b60408051601f1981840301815291905280516020909101201692915050565b600061078b610944565b82516001600160a01b031660009081526020829052604081209192505b83602001515181101561093e576000846020015182815181106107cd576107cd610d78565b6020908102919091018101518051600486810180546001808201835560009283528683206008830401805463ffffffff600790941690950261010090810a9384021990951660e09690961c9290920294909417905583516001600160e01b0319168152918801909352604090208054919350916001600160a01b03910416156108c657805461010090046001600160a01b0316600090815260208690526040812087519091906001870190610881906109a9565b60208087015160405161089b949392600188019101610e54565b60405160208183030381529060405290508060405162461bcd60e51b81526004016101a89190610f3e565b50604080518082018252600180825287516001600160a01b03908116602080850191825295516001600160e01b0319166000908152898401909652939094209151825493516001600160a81b0319909416901515610100600160a81b03191617610100939094169290920292909217909155016107a8565b50505050565b60408051808201909152601881527f78722e657874656e73696f6e732e73746f726167652e7631000000000000000060209091015260008060ff61075060017fb58ec9ca7ba0606d9fecd9f559655d0e5fec418e6751b65b892bccdfd25eb99f610da4565b60606109bf6001600160a01b03831660146109c5565b92915050565b60608260006109d5846002610f51565b6109e0906002610f68565b67ffffffffffffffff8111156109f8576109f8610d62565b6040519080825280601f01601f191660200182016040528015610a22576020820181803683370190505b509050600360fc1b81600081518110610a3d57610a3d610d78565b60200101906001600160f81b031916908160001a905350600f60fb1b81600181518110610a6c57610a6c610d78565b60200101906001600160f81b031916908160001a9053506000610a90856002610f51565b610a9b906001610f68565b90505b6001811115610b13576f181899199a1a9b1b9c1cb0b131b232b360811b83600f1660108110610acf57610acf610d78565b1a60f81b828281518110610ae557610ae5610d78565b60200101906001600160f81b031916908160001a90535060049290921c91610b0c81610f7b565b9050610a9e565b508115610b3d5760405163e22e27eb60e01b815260048101869052602481018590526044016101a8565b949350505050565b604051806040016040528060608152602001610b7c6040518060400160405280600061ffff168152602001600061ffff1681525090565b905290565b6001600160a01b038116811461007457600080fd5b600060208284031215610ba857600080fd5b8135610bb381610b81565b9392505050565b60005b83811015610bd5578181015183820152602001610bbd565b50506000910152565b60008151808452610bf6816020860160208601610bba565b601f01601f19169290920160200192915050565b602081526000825160606020840152610c266080840182610bde565b602094850151805161ffff90811660408701529501519094166060909301929092525090919050565b600060208284031215610c6157600080fd5b8151610bb381610b81565b600060208284031215610c7e57600080fd5b81518015158114610bb357600080fd5b60208082526046908201527f506f7274616c526567697374726174696f6e3a204f6e6c79207265676973746560408201527f72656420657870657269656e6365732063616e2063616c6c20746869732066756060820152653731ba34b7b760d11b608082015260a00190565b60208082526042908201527f506f7274616c526567697374726174696f6e3a204f6e6c79206163746976652060408201527f657870657269656e6365732063616e2063616c6c20746869732066756e63746960608201526137b760f11b608082015260a00190565b634e487b7160e01b600052604160045260246000fd5b634e487b7160e01b600052603260045260246000fd5b634e487b7160e01b600052601160045260246000fd5b818103818111156109bf576109bf610d8e565b8054600090600181811c9080831680610dd157607f831692505b60208084108203610df257634e487b7160e01b600052602260045260246000fd5b818015610e065760018114610e1b57610e48565b60ff1986168952841515850289019650610e48565b60008881526020902060005b86811015610e405781548b820152908501908301610e27565b505084890196505b50505050505092915050565b7f4c6962457874656e73696f6e3a20657874656e73696f6e20000000000000000081526000610e866018830187610db7565b6c01030ba1030b2323932b9b99d1609d1b81528551610eac81600d840160208a01610bba565b8082019150507f20617474656d7074696e6720746f20726575736520612073656c6563746f723a600d820152600160fd1b80602d8301528551610ef681602e850160208a01610bba565b7f2c20776869636820697320616c72656164792072656769737465726564206279602e9390910192830152604e820152610f33604f820185610db7565b979650505050505050565b602081526000610bb36020830184610bde565b80820281158282048414176109bf576109bf610d8e565b808201808211156109bf576109bf610d8e565b600081610f8a57610f8a610d8e565b50600019019056fea26469706673582212200f5e9037ccfc0bfe3273ec082aca067506817a29b07055e8c191f8fa53270b2264736f6c63430008180033",
  "linkReferences": {},
  "deployedLinkReferences": {}
}