{
  "_format": "hh-sol-artifact-1",
  "contractName": "PortalRegistrationExt",
  "sourceName": "contracts/extensions/portal/PortalRegistrationExt.sol",
  "abi": [
    {
      "inputs": [
        {
          "internalType": "uint256",
          "name": "value",
          "type": "uint256"
        },
        {
          "internalType": "uint256",
          "name": "length",
          "type": "uint256"
        }
      ],
      "name": "StringsInsufficientHexLength",
      "type": "error"
    },
    {
      "anonymous": false,
      "inputs": [
        {
          "indexed": true,
          "internalType": "uint256",
          "name": "portalId",
          "type": "uint256"
        },
        {
          "indexed": true,
          "internalType": "address",
          "name": "experience",
          "type": "address"
        }
      ],
      "name": "PortalAdded",
      "type": "event"
    },
    {
      "anonymous": false,
      "inputs": [
        {
          "indexed": true,
          "internalType": "uint256",
          "name": "portalId",
          "type": "uint256"
        },
        {
          "indexed": true,
          "internalType": "uint256",
          "name": "newFee",
          "type": "uint256"
        }
      ],
      "name": "PortalFeeChanged",
      "type": "event"
    },
    {
      "inputs": [
        {
          "components": [
            {
              "internalType": "contract IExperience",
              "name": "destination",
              "type": "address"
            },
            {
              "internalType": "uint256",
              "name": "fee",
              "type": "uint256"
            }
          ],
          "internalType": "struct AddPortalRequest",
          "name": "req",
          "type": "tuple"
        }
      ],
      "name": "addPortal",
      "outputs": [
        {
          "internalType": "uint256",
          "name": "",
          "type": "uint256"
        }
      ],
      "stateMutability": "nonpayable",
      "type": "function"
    },
    {
      "inputs": [
        {
          "internalType": "uint256",
          "name": "newFee",
          "type": "uint256"
        }
      ],
      "name": "changePortalFee",
      "outputs": [],
      "stateMutability": "nonpayable",
      "type": "function"
    },
    {
      "inputs": [
        {
          "internalType": "address",
          "name": "experience",
          "type": "address"
        }
      ],
      "name": "getIdForExperience",
      "outputs": [
        {
          "internalType": "uint256",
          "name": "",
          "type": "uint256"
        }
      ],
      "stateMutability": "view",
      "type": "function"
    },
    {
      "inputs": [
        {
          "components": [
            {
              "internalType": "string",
              "name": "x",
              "type": "string"
            },
            {
              "internalType": "string",
              "name": "y",
              "type": "string"
            },
            {
              "internalType": "string",
              "name": "z",
              "type": "string"
            },
            {
              "internalType": "uint256",
              "name": "t",
              "type": "uint256"
            },
            {
              "internalType": "uint256",
              "name": "p",
              "type": "uint256"
            },
            {
              "internalType": "uint256",
              "name": "p_sub",
              "type": "uint256"
            }
          ],
          "internalType": "struct VectorAddress",
          "name": "va",
          "type": "tuple"
        }
      ],
      "name": "getIdForVectorAddress",
      "outputs": [
        {
          "internalType": "uint256",
          "name": "",
          "type": "uint256"
        }
      ],
      "stateMutability": "view",
      "type": "function"
    },
    {
      "inputs": [
        {
          "internalType": "address",
          "name": "experience",
          "type": "address"
        }
      ],
      "name": "getPortalInfoByAddress",
      "outputs": [
        {
          "components": [
            {
              "internalType": "contract IExperience",
              "name": "destination",
              "type": "address"
            },
            {
              "internalType": "contract IPortalCondition",
              "name": "condition",
              "type": "address"
            },
            {
              "internalType": "uint256",
              "name": "fee",
              "type": "uint256"
            },
            {
              "internalType": "bool",
              "name": "active",
              "type": "bool"
            }
          ],
          "internalType": "struct PortalInfo",
          "name": "",
          "type": "tuple"
        }
      ],
      "stateMutability": "view",
      "type": "function"
    },
    {
      "inputs": [
        {
          "internalType": "uint256",
          "name": "portalId",
          "type": "uint256"
        }
      ],
      "name": "getPortalInfoById",
      "outputs": [
        {
          "components": [
            {
              "internalType": "contract IExperience",
              "name": "destination",
              "type": "address"
            },
            {
              "internalType": "contract IPortalCondition",
              "name": "condition",
              "type": "address"
            },
            {
              "internalType": "uint256",
              "name": "fee",
              "type": "uint256"
            },
            {
              "internalType": "bool",
              "name": "active",
              "type": "bool"
            }
          ],
          "internalType": "struct PortalInfo",
          "name": "",
          "type": "tuple"
        }
      ],
      "stateMutability": "view",
      "type": "function"
    },
    {
      "inputs": [
        {
          "components": [
            {
              "internalType": "string",
              "name": "x",
              "type": "string"
            },
            {
              "internalType": "string",
              "name": "y",
              "type": "string"
            },
            {
              "internalType": "string",
              "name": "z",
              "type": "string"
            },
            {
              "internalType": "uint256",
              "name": "t",
              "type": "uint256"
            },
            {
              "internalType": "uint256",
              "name": "p",
              "type": "uint256"
            },
            {
              "internalType": "uint256",
              "name": "p_sub",
              "type": "uint256"
            }
          ],
          "internalType": "struct VectorAddress",
          "name": "va",
          "type": "tuple"
        }
      ],
      "name": "getPortalInfoByVectorAddress",
      "outputs": [
        {
          "components": [
            {
              "internalType": "contract IExperience",
              "name": "destination",
              "type": "address"
            },
            {
              "internalType": "contract IPortalCondition",
              "name": "condition",
              "type": "address"
            },
            {
              "internalType": "uint256",
              "name": "fee",
              "type": "uint256"
            },
            {
              "internalType": "bool",
              "name": "active",
              "type": "bool"
            }
          ],
          "internalType": "struct PortalInfo",
          "name": "",
          "type": "tuple"
        }
      ],
      "stateMutability": "view",
      "type": "function"
    },
    {
      "inputs": [
        {
          "internalType": "address",
          "name": "myAddress",
          "type": "address"
        }
      ],
      "name": "install",
      "outputs": [],
      "stateMutability": "nonpayable",
      "type": "function"
    },
    {
      "inputs": [],
      "name": "metadata",
      "outputs": [
        {
          "components": [
            {
              "internalType": "string",
              "name": "name",
              "type": "string"
            },
            {
              "components": [
                {
                  "internalType": "uint16",
                  "name": "major",
                  "type": "uint16"
                },
                {
                  "internalType": "uint16",
                  "name": "minor",
                  "type": "uint16"
                }
              ],
              "internalType": "struct Version",
              "name": "version",
              "type": "tuple"
            }
          ],
          "internalType": "struct ExtensionMetadata",
          "name": "",
          "type": "tuple"
        }
      ],
      "stateMutability": "pure",
      "type": "function"
    },
    {
      "inputs": [
        {
          "internalType": "address",
          "name": "myAddress",
          "type": "address"
        }
      ],
      "name": "upgrade",
      "outputs": [],
      "stateMutability": "nonpayable",
      "type": "function"
    }
  ],
  "bytecode": "0x608060405234801561001057600080fd5b50611b55806100206000396000f3fe608060405234801561001057600080fd5b506004361061009e5760003560e01c8063392f37e911610066578063392f37e91461015c5780633b19e880146101715780633c3f5ff41461018457806383c3426314610197578063aa7ff6b7146101aa57600080fd5b80630900f010146100a3578063102ea6ae146100b65780631946638914610115578063288b5684146101365780632a1b8f9b14610149575b600080fd5b6100b46100b136600461139d565b50565b005b6100c96100c43660046114af565b6101bd565b60405161010c919081516001600160a01b039081168252602080840151909116908201526040808301519082015260609182015115159181019190915260800190565b60405180910390f35b6101286101233660046114af565b6102eb565b60405190815260200161010c565b6100c9610144366004611585565b6103b2565b6100b461015736600461139d565b610432565b6101646107b4565b60405161010c91906115ee565b61012861017f36600461139d565b61080f565b610128610192366004611633565b61083b565b6100b46101a5366004611585565b610bd4565b6100c96101b836600461139d565b610e6a565b6040805160808101825260008082526020820181905291810182905260608101829052906101e9610efb565b6040516329a6121760e21b815290915060009073__$ad2b23306edd42b5f4873830e307b82d47$__9063a698485c9061022690879060040161168b565b600060405180830381865af4158015610243573d6000803e3d6000fd5b505050506040513d6000823e601f3d908101601f1916820160405261026b9190810190611753565b60405160200161027b9190611788565b60408051601f19818403018152828252805160209182012060009081526001808701835283822054825295825282902060808401835280546001600160a01b039081168552958101549095169083015260028401549082015260039092015460ff16151560608301525092915050565b6040516329a6121760e21b8152600090819073__$ad2b23306edd42b5f4873830e307b82d47$__9063a698485c9061032790869060040161168b565b600060405180830381865af4158015610344573d6000803e3d6000fd5b505050506040513d6000823e601f3d908101601f1916820160405261036c9190810190611753565b60405160200161037c9190611788565b60405160208183030381529060405280519060200120905061039c610efb565b6000918252600101602052604090205492915050565b6040805160808101825260008082526020820181905291810182905260608101919091526103de610efb565b60009283526020908152604092839020835160808101855281546001600160a01b0390811682526001830154169281019290925260028101549382019390935260039092015460ff16151560608301525090565b6040805160078082526101008201909252600091816020015b60408051808201909152600081526060602082015281526020019060019003908161044b579050509050604051806040016040528063288b568460e01b6001600160e01b03191681526020016040518060400160405280601a81526020017f676574506f7274616c496e666f427949642875696e7432353629000000000000815250815250816000815181106104e3576104e361179b565b6020026020010181905250604051806040016040528063aa7ff6b760e01b6001600160e01b03191681526020016040518060400160405280601f81526020017f676574506f7274616c496e666f427941646472657373286164647265737329008152508152508160018151811061055c5761055c61179b565b6020026020010181905250604051806040016040528063102ea6ae60e01b6001600160e01b03191681526020016040518060600160405280602b8152602001611af5602b9139815250816002815181106105b8576105b861179b565b60200260200101819052506040518060400160405280633b19e88060e01b6001600160e01b03191681526020016040518060400160405280601b81526020017f6765744964466f72457870657269656e63652861646472657373290000000000815250815250816003815181106106315761063161179b565b60200260200101819052506040518060400160405280631946638960e01b6001600160e01b0319168152602001604051806060016040528060248152602001611ad1602491398152508160048151811061068d5761068d61179b565b60200260200101819052506040518060400160405280633c3f5ff460e01b6001600160e01b03191681526020016040518060400160405280601b81526020017f616464506f7274616c28416464506f7274616c52657175657374290000000000815250815250816005815181106107065761070661179b565b602002602001018190525060405180604001604052806383c3426360e01b6001600160e01b03191681526020016040518060400160405280601881526020017f6368616e6765506f7274616c4665652875696e743235362900000000000000008152508152508160068151811061077f5761077f61179b565b60200260200101819052506107b06040518060400160405280846001600160a01b0316815260200183815250610f88565b5050565b6107bc61134c565b5060408051608081018252601581830190815274141bdc9d185b149959da5cdd1c985d1a5bdb915e1d605a1b60608301528152815180830190925260018252600060208381019190915281019190915290565b6000610819610efb565b6001600160a01b03909216600090815260029290920160205250604090205490565b600080306001600160a01b0316638f09a6be6040518163ffffffff1660e01b8152600401602060405180830381865afa15801561087c573d6000803e3d6000fd5b505050506040513d601f19601f820116820180604052508101906108a091906117b1565b90506001600160a01b03811633146109315760405162461bcd60e51b815260206004820152604360248201527f506f7274616c526567697374726174696f6e3a204f6e6c79206578706572696560448201527f6e63652072656769737472792063616e2063616c6c20746869732066756e637460648201526234b7b760e91b608482015260a4015b60405180910390fd5b600083600001516001600160a01b0316632fcbab9a6040518163ffffffff1660e01b8152600401600060405180830381865afa158015610975573d6000803e3d6000fd5b505050506040513d6000823e601f3d908101601f1916820160405261099d91908101906117ce565b6040516329a6121760e21b815290915060009073__$ad2b23306edd42b5f4873830e307b82d47$__9063a698485c906109da90859060040161168b565b600060405180830381865af41580156109f7573d6000803e3d6000fd5b505050506040513d6000823e601f3d908101601f19168201604052610a1f9190810190611753565b604051602001610a2f9190611788565b6040516020818303038152906040528051906020012090506000610a51610efb565b600083815260018201602052604090205490915015610ad85760405162461bcd60e51b815260206004820152603d60248201527f506f7274616c52656769737472793a20706f7274616c20616c7265616479206560448201527f786973747320666f72207468697320766563746f7220616464726573730000006064820152608401610928565b8060030160008154610ae9906118ba565b9091555060038082015460008481526001808501602090815260408084208590558b516001600160a01b0390811685526002808901845282862087905582516080810184528e51831681528085018781528f860151828601908152606083018881528a8a52968c9052858920925183549086166001600160a01b03199182161784559151978301805498861698909216979097179055945190850155915192909501805492151560ff1990931692909217909155895193519293169183917f991e8a89cc0b450dd18d7845eb5952690d2e9b8edb3624d5f5b929f32607829891a39695505050505050565b6000306001600160a01b0316638f09a6be6040518163ffffffff1660e01b8152600401602060405180830381865afa158015610c14573d6000803e3d6000fd5b505050506040513d601f19601f82011682018060405250810190610c3891906117b1565b60405163c3c5a54760e01b815233600482015290915081906001600160a01b0382169063c3c5a54790602401602060405180830381865afa158015610c81573d6000803e3d6000fd5b505050506040513d601f19601f82011682018060405250810190610ca591906118d3565b610d265760405162461bcd60e51b815260206004820152604660248201527f506f7274616c526567697374726174696f6e3a204f6e6c79207265676973746560448201527f72656420657870657269656e6365732063616e2063616c6c20746869732066756064820152653731ba34b7b760d11b608482015260a401610928565b336001600160a01b03166386b70bed6040518163ffffffff1660e01b8152600401602060405180830381865afa158015610d64573d6000803e3d6000fd5b505050506040513d601f19601f82011682018060405250810190610d8891906118d3565b610e055760405162461bcd60e51b815260206004820152604260248201527f506f7274616c526567697374726174696f6e3a204f6e6c79206163746976652060448201527f657870657269656e6365732063616e2063616c6c20746869732066756e63746960648201526137b760f11b608482015260a401610928565b6000610e0f610efb565b3360009081526002808301602090815260408084205480855291859052808420909201889055905192935091869183917fc45b50c704f83a591e64a45d94b4e274cc467d15386c75d56bef687efe5aea4a9190a35050505050565b604080516080810182526000808252602082018190529181018290526060810182905290610e96610efb565b6001600160a01b039384166000908152600280830160209081526040808420548452938152918390208351608081018552815488168152600182015490971692870192909252810154918501919091526003015460ff16151560608401525090919050565b60408051808201909152601481527378722e706f7274616c2e73746f726167652e763160601b60209091015260008060ff610f5760017f32e6b45acdd074b73c3a2919736df19970ec59317a4f46192bf93b96896df0096118f5565b604051602001610f6991815260200190565b60408051601f1981840301815291905280516020909101201692915050565b6000610f9261114b565b82516001600160a01b031660009081526020829052604081209192505b83602001515181101561114557600084602001518281518110610fd457610fd461179b565b6020908102919091018101518051600486810180546001808201835560009283528683206008830401805463ffffffff600790941690950261010090810a9384021990951660e09690961c9290920294909417905583516001600160e01b0319168152918801909352604090208054919350916001600160a01b03910416156110cd57805461010090046001600160a01b0316600090815260208690526040812087519091906001870190611088906111b0565b6020808701516040516110a29493926001880191016119a5565b60405160208183030381529060405290508060405162461bcd60e51b81526004016109289190611788565b50604080518082018252600180825287516001600160a01b03908116602080850191825295516001600160e01b0319166000908152898401909652939094209151825493516001600160a81b0319909416901515610100600160a81b0319161761010093909416929092029290921790915501610faf565b50505050565b60408051808201909152601881527f78722e657874656e73696f6e732e73746f726167652e7631000000000000000060209091015260008060ff610f5760017fb58ec9ca7ba0606d9fecd9f559655d0e5fec418e6751b65b892bccdfd25eb99f6118f5565b60606111c66001600160a01b03831660146111cc565b92915050565b60608260006111dc846002611a8f565b6111e7906002611aa6565b67ffffffffffffffff8111156111ff576111ff6113c1565b6040519080825280601f01601f191660200182016040528015611229576020820181803683370190505b509050600360fc1b816000815181106112445761124461179b565b60200101906001600160f81b031916908160001a905350600f60fb1b816001815181106112735761127361179b565b60200101906001600160f81b031916908160001a9053506000611297856002611a8f565b6112a2906001611aa6565b90505b600181111561131a576f181899199a1a9b1b9c1cb0b131b232b360811b83600f16601081106112d6576112d661179b565b1a60f81b8282815181106112ec576112ec61179b565b60200101906001600160f81b031916908160001a90535060049290921c9161131381611ab9565b90506112a5565b5081156113445760405163e22e27eb60e01b81526004810186905260248101859052604401610928565b949350505050565b6040518060400160405280606081526020016113836040518060400160405280600061ffff168152602001600061ffff1681525090565b905290565b6001600160a01b03811681146100b157600080fd5b6000602082840312156113af57600080fd5b81356113ba81611388565b9392505050565b634e487b7160e01b600052604160045260246000fd5b60405160c0810167ffffffffffffffff811182821017156113fa576113fa6113c1565b60405290565b604051601f8201601f1916810167ffffffffffffffff81118282101715611429576114296113c1565b604052919050565b600067ffffffffffffffff82111561144b5761144b6113c1565b50601f01601f191660200190565b600082601f83011261146a57600080fd5b813561147d61147882611431565b611400565b81815284602083860101111561149257600080fd5b816020850160208301376000918101602001919091529392505050565b6000602082840312156114c157600080fd5b813567ffffffffffffffff808211156114d957600080fd5b9083019060c082860312156114ed57600080fd5b6114f56113d7565b82358281111561150457600080fd5b61151087828601611459565b82525060208301358281111561152557600080fd5b61153187828601611459565b60208301525060408301358281111561154957600080fd5b61155587828601611459565b604083015250606083013560608201526080830135608082015260a083013560a082015280935050505092915050565b60006020828403121561159757600080fd5b5035919050565b60005b838110156115b95781810151838201526020016115a1565b50506000910152565b600081518084526115da81602086016020860161159e565b601f01601f19169290920160200192915050565b60208152600082516060602084015261160a60808401826115c2565b602094850151805161ffff90811660408701529501519094166060909301929092525090919050565b60006040828403121561164557600080fd5b6040516040810181811067ffffffffffffffff82111715611668576116686113c1565b604052823561167681611388565b81526020928301359281019290925250919050565b602081526000825160c060208401526116a760e08401826115c2565b90506020840151601f19808584030160408601526116c583836115c2565b92506040860151915080858403016060860152506116e382826115c2565b91505060608401516080840152608084015160a084015260a084015160c08401528091505092915050565b600082601f83011261171f57600080fd5b815161172d61147882611431565b81815284602083860101111561174257600080fd5b61134482602083016020870161159e565b60006020828403121561176557600080fd5b815167ffffffffffffffff81111561177c57600080fd5b6113448482850161170e565b6020815260006113ba60208301846115c2565b634e487b7160e01b600052603260045260246000fd5b6000602082840312156117c357600080fd5b81516113ba81611388565b6000602082840312156117e057600080fd5b815167ffffffffffffffff808211156117f857600080fd5b9083019060c0828603121561180c57600080fd5b6118146113d7565b82518281111561182357600080fd5b61182f8782860161170e565b82525060208301518281111561184457600080fd5b6118508782860161170e565b60208301525060408301518281111561186857600080fd5b6118748782860161170e565b604083015250606083015160608201526080830151608082015260a083015160a082015280935050505092915050565b634e487b7160e01b600052601160045260246000fd5b6000600182016118cc576118cc6118a4565b5060010190565b6000602082840312156118e557600080fd5b815180151581146113ba57600080fd5b818103818111156111c6576111c66118a4565b8054600090600181811c908083168061192257607f831692505b6020808410820361194357634e487b7160e01b600052602260045260246000fd5b818015611957576001811461196c57611999565b60ff1986168952841515850289019650611999565b60008881526020902060005b868110156119915781548b820152908501908301611978565b505084890196505b50505050505092915050565b7f4c6962457874656e73696f6e3a20657874656e73696f6e200000000000000000815260006119d76018830187611908565b6c01030ba1030b2323932b9b99d1609d1b815285516119fd81600d840160208a0161159e565b8082019150507f20617474656d7074696e6720746f20726575736520612073656c6563746f723a600d820152600160fd1b80602d8301528551611a4781602e850160208a0161159e565b7f2c20776869636820697320616c72656164792072656769737465726564206279602e9390910192830152604e820152611a84604f820185611908565b979650505050505050565b80820281158282048414176111c6576111c66118a4565b808201808211156111c6576111c66118a4565b600081611ac857611ac86118a4565b50600019019056fe6765744964466f72566563746f724164647265737328566563746f724164647265737329676574506f7274616c496e666f4279566563746f724164647265737328566563746f724164647265737329a264697066735822122042f2bffcb580002707a16699dbaa600146f2b1a9bf9ac72e429755da7005666664736f6c63430008180033",
  "linkReferences": {
    "contracts/libraries/LibVectorAddress.sol": {
      "LibVectorAddress": [
        {
          "length": 20,
          "start": 542
        },
        {
          "length": 20,
          "start": 799
        },
        {
          "length": 20,
          "start": 2514
        }
      ]
    }
  },
  "deployedLinkReferences": {
    "contracts/libraries/LibVectorAddress.sol": {
      "LibVectorAddress": [
        {
          "length": 20,
          "start": 510
        },
        {
          "length": 20,
          "start": 767
        },
        {
          "length": 20,
          "start": 2482
        }
      ]
    }
  }
}