{
  "_format": "hh-sol-artifact-1",
  "contractName": "Registrar",
  "sourceName": "contracts/registrar/instance/Registrar.sol",
  "abi": [
    {
      "inputs": [
        {
          "components": [
            {
              "internalType": "address",
              "name": "owner",
              "type": "address"
            },
            {
              "internalType": "address[]",
              "name": "otherAdmins",
              "type": "address[]"
            },
            {
              "internalType": "address",
              "name": "extensionManager",
              "type": "address"
            },
            {
              "internalType": "address",
              "name": "factory",
              "type": "address"
            },
            {
              "internalType": "address",
              "name": "registry",
              "type": "address"
            }
          ],
          "internalType": "struct RegistrarConstructorArgs",
          "name": "args",
          "type": "tuple"
        }
      ],
      "stateMutability": "nonpayable",
      "type": "constructor"
    },
    {
      "anonymous": false,
      "inputs": [
        {
          "indexed": true,
          "internalType": "address",
          "name": "oldOwner",
          "type": "address"
        },
        {
          "indexed": true,
          "internalType": "address",
          "name": "newOwner",
          "type": "address"
        }
      ],
      "name": "OwnerChanged",
      "type": "event"
    },
    {
      "anonymous": false,
      "inputs": [
        {
          "indexed": true,
          "internalType": "bytes32",
          "name": "role",
          "type": "bytes32"
        },
        {
          "indexed": true,
          "internalType": "address",
          "name": "account",
          "type": "address"
        }
      ],
      "name": "RoleGranted",
      "type": "event"
    },
    {
      "stateMutability": "payable",
      "type": "fallback"
    },
    {
      "inputs": [
        {
          "internalType": "address",
          "name": "newOwner",
          "type": "address"
        }
      ],
      "name": "changeOwner",
      "outputs": [],
      "stateMutability": "nonpayable",
      "type": "function"
    },
    {
      "inputs": [
        {
          "components": [
            {
              "internalType": "uint256",
              "name": "fee",
              "type": "uint256"
            },
            {
              "internalType": "uint256",
              "name": "coveragePeriodDays",
              "type": "uint256"
            },
            {
              "internalType": "uint256",
              "name": "gracePeriodDays",
              "type": "uint256"
            }
          ],
          "internalType": "struct RegistrationTerms",
          "name": "terms",
          "type": "tuple"
        }
      ],
      "name": "encodeInitData",
      "outputs": [
        {
          "internalType": "bytes",
          "name": "",
          "type": "bytes"
        }
      ],
      "stateMutability": "pure",
      "type": "function"
    },
    {
      "inputs": [],
      "name": "extManager",
      "outputs": [
        {
          "internalType": "contract IExtensionManager",
          "name": "",
          "type": "address"
        }
      ],
      "stateMutability": "view",
      "type": "function"
    },
    {
      "inputs": [],
      "name": "factory",
      "outputs": [
        {
          "internalType": "address",
          "name": "",
          "type": "address"
        }
      ],
      "stateMutability": "view",
      "type": "function"
    },
    {
      "inputs": [
        {
          "internalType": "string",
          "name": "name",
          "type": "string"
        }
      ],
      "name": "getExtensionVersion",
      "outputs": [
        {
          "internalType": "uint256",
          "name": "",
          "type": "uint256"
        }
      ],
      "stateMutability": "view",
      "type": "function"
    },
    {
      "inputs": [
        {
          "internalType": "bytes32",
          "name": "role",
          "type": "bytes32"
        },
        {
          "internalType": "address",
          "name": "account",
          "type": "address"
        }
      ],
      "name": "grantRole",
      "outputs": [],
      "stateMutability": "nonpayable",
      "type": "function"
    },
    {
      "inputs": [
        {
          "internalType": "string",
          "name": "name",
          "type": "string"
        },
        {
          "internalType": "uint256",
          "name": "version",
          "type": "uint256"
        }
      ],
      "name": "hasExtension",
      "outputs": [
        {
          "internalType": "bool",
          "name": "",
          "type": "bool"
        }
      ],
      "stateMutability": "view",
      "type": "function"
    },
    {
      "inputs": [
        {
          "internalType": "bytes32",
          "name": "role",
          "type": "bytes32"
        },
        {
          "internalType": "address",
          "name": "account",
          "type": "address"
        }
      ],
      "name": "hasRole",
      "outputs": [
        {
          "internalType": "bool",
          "name": "",
          "type": "bool"
        }
      ],
      "stateMutability": "view",
      "type": "function"
    },
    {
      "inputs": [
        {
          "internalType": "address",
          "name": "owner",
          "type": "address"
        },
        {
          "internalType": "string",
          "name": "name",
          "type": "string"
        },
        {
          "internalType": "bytes",
          "name": "initData",
          "type": "bytes"
        }
      ],
      "name": "init",
      "outputs": [],
      "stateMutability": "nonpayable",
      "type": "function"
    },
    {
      "inputs": [
        {
          "internalType": "address",
          "name": "a",
          "type": "address"
        }
      ],
      "name": "isSigner",
      "outputs": [
        {
          "internalType": "bool",
          "name": "",
          "type": "bool"
        }
      ],
      "stateMutability": "view",
      "type": "function"
    },
    {
      "inputs": [
        {
          "internalType": "address",
          "name": "a",
          "type": "address"
        }
      ],
      "name": "isTermsOwnerSigner",
      "outputs": [
        {
          "internalType": "bool",
          "name": "",
          "type": "bool"
        }
      ],
      "stateMutability": "view",
      "type": "function"
    },
    {
      "inputs": [
        {
          "internalType": "address",
          "name": "f",
          "type": "address"
        }
      ],
      "name": "isYourFactory",
      "outputs": [
        {
          "internalType": "bool",
          "name": "",
          "type": "bool"
        }
      ],
      "stateMutability": "view",
      "type": "function"
    },
    {
      "inputs": [
        {
          "internalType": "address",
          "name": "r",
          "type": "address"
        }
      ],
      "name": "isYourRegistry",
      "outputs": [
        {
          "internalType": "bool",
          "name": "",
          "type": "bool"
        }
      ],
      "stateMutability": "view",
      "type": "function"
    },
    {
      "inputs": [],
      "name": "owner",
      "outputs": [
        {
          "internalType": "address",
          "name": "",
          "type": "address"
        }
      ],
      "stateMutability": "view",
      "type": "function"
    },
    {
      "inputs": [],
      "name": "registry",
      "outputs": [
        {
          "internalType": "address",
          "name": "",
          "type": "address"
        }
      ],
      "stateMutability": "view",
      "type": "function"
    },
    {
      "inputs": [
        {
          "internalType": "bytes32",
          "name": "role",
          "type": "bytes32"
        },
        {
          "internalType": "address",
          "name": "account",
          "type": "address"
        }
      ],
      "name": "revokeRole",
      "outputs": [],
      "stateMutability": "nonpayable",
      "type": "function"
    },
    {
      "inputs": [],
      "name": "version",
      "outputs": [
        {
          "internalType": "uint256",
          "name": "",
          "type": "uint256"
        }
      ],
      "stateMutability": "view",
      "type": "function"
    },
    {
      "stateMutability": "payable",
      "type": "receive"
    }
  ],
  "bytecode": "0x610100604052600160a0523480156200001757600080fd5b5060405162001889380380620018898339810160408190526200003a9162000499565b6040805160608101825282516001600160a01b039081168083526020808601519084015284840151909116928201929092529015620000805780516200008090620001c5565b60005b816020015151811015620000db57620000d26000805160206200186983398151915283602001518381518110620000be57620000be620005cc565b60200260200101516200029560201b60201c565b60010162000083565b50604001516001600160a01b03908116608052606082015116620001465760405162461bcd60e51b815260206004820152601e60248201527f466163746f72792063616e6e6f74206265207a65726f2061646472657373000060448201526064015b60405180910390fd5b60808101516001600160a01b0316620001a25760405162461bcd60e51b815260206004820152601f60248201527f52656769737472792063616e6e6f74206265207a65726f20616464726573730060448201526064016200013d565b60608101516001600160a01b0390811660c0526080909101511660e0526200060a565b6000620001d16200036f565b80546001600160a01b038481166001600160a01b03198316811784557f9f4e1c871d5fdd0aee1cd182666698a4492b24c6832aac230d07b11046af5a8960009081526001808601602081815260408085208686528252808520805460ff1990811686179091556000805160206200186983398151915286529282528085208686529091528084208054909216909217905551949550919092169283917fb532073b38c83145e3e5135377a08bf9aab55bc0fd7c1179cd4fb995d2a5159c91a3505050565b6001600160a01b038116620003045760405162461bcd60e51b815260206004820152602e60248201527f4c69624163636573733a2063616e6e6f74206772616e7420726f6c652077697460448201526d68207a65726f206164647265737360901b60648201526084016200013d565b6000620003106200036f565b600084815260028201602090815260408083206001600160a01b0387168085529252808320805460ff19166001179055519293509185917f2ae6a113c0ed5b78a53413ffbb7679881f11145ccfba4fb92e863dfcd5a1d2f391a3505050565b60408051808201909152601481527f78722e6163636573732e76312e73746f7261676500000000000000000000000060209091015260008060ff620003d660017f635029241f0ffc6f0ed7ed889a32900dcb67a3f08955f2b339ffb28b145bb4ec620005e2565b604051602001620003e991815260200190565b60408051601f1981840301815291905280516020909101201692915050565b634e487b7160e01b600052604160045260246000fd5b60405160a081016001600160401b038111828210171562000443576200044362000408565b60405290565b604051601f8201601f191681016001600160401b038111828210171562000474576200047462000408565b604052919050565b80516001600160a01b03811681146200049457600080fd5b919050565b60006020808385031215620004ad57600080fd5b82516001600160401b0380821115620004c557600080fd5b9084019060a08287031215620004da57600080fd5b620004e46200041e565b620004ef836200047c565b815283830151828111156200050357600080fd5b8301601f810188136200051557600080fd5b8051838111156200052a576200052a62000408565b8060051b93506200053d86850162000449565b818152938201860193868101908a8611156200055857600080fd5b928701925b85841015620005815762000571846200047c565b825292870192908701906200055d565b848801525062000597915050604084016200047c565b6040820152620005aa606084016200047c565b6060820152620005bd608084016200047c565b60808201529695505050505050565b634e487b7160e01b600052603260045260246000fd5b818103818111156200060457634e487b7160e01b600052601160045260246000fd5b92915050565b60805160a05160c05160e051611202620006676000396000818161014e01526103150152600081816101d0015261040a0152600081816102c101526109170152600081816103b601528181610484015261088201526112026000f3fe6080604052600436106101025760003560e01c80637b103999116100955780639dcaea8d116100645780639dcaea8d146103845780639f294b75146103a4578063a6f9dae1146103d8578063c45a0155146103f8578063d547741f1461042c57610109565b80637b103999146103035780637df73e27146101935780638da5cb5b1461034f57806391d148541461036457610109565b8063238a0386116100d1578063238a03861461025f5780632f2ff15d1461028d57806354fd4d50146102af5780635d536d6a146102e357610109565b806302896827146101315780630a7ee8a014610193578063109462f9146101b357806321cdbdd81461020057610109565b3661010957005b600080356001600160e01b031916905060006101278260003661044c565b9050805160208201f35b34801561013d57600080fd5b5061017e61014c366004610c3e565b7f00000000000000000000000000000000000000000000000000000000000000006001600160a01b0390811691161490565b60405190151581526020015b60405180910390f35b34801561019f57600080fd5b5061017e6101ae366004610c3e565b6104f9565b3480156101bf57600080fd5b5061017e6101ce366004610c3e565b7f00000000000000000000000000000000000000000000000000000000000000006001600160a01b0390811691161490565b34801561020c57600080fd5b5061025261021b366004610c5b565b6040805182356020808301919091528301358183015291810135606080840191909152815180840390910181526080909201905290565b60405161018a9190610cc3565b34801561026b57600080fd5b5061027f61027a366004610d9b565b6105a4565b60405190815260200161018a565b34801561029957600080fd5b506102ad6102a8366004610dd0565b61061f565b005b3480156102bb57600080fd5b5061027f7f000000000000000000000000000000000000000000000000000000000000000081565b3480156102ef57600080fd5b5061017e6102fe366004610e00565b61073c565b34801561030f57600080fd5b506103377f000000000000000000000000000000000000000000000000000000000000000081565b6040516001600160a01b03909116815260200161018a565b34801561035b57600080fd5b506103376107c0565b34801561037057600080fd5b5061017e61037f366004610dd0565b610834565b34801561039057600080fd5b506102ad61039f366004610e8e565b61087e565b3480156103b057600080fd5b506103377f000000000000000000000000000000000000000000000000000000000000000081565b3480156103e457600080fd5b506102ad6103f3366004610c3e565b610a37565b34801561040457600080fd5b506103377f000000000000000000000000000000000000000000000000000000000000000081565b34801561043857600080fd5b506102ad610447366004610dd0565b610b42565b6040516307d9a5a160e21b815260609073__$873ca04b9e3da3ca7cba95b77f569299f5$__90631f669684906104ac908790879087907f000000000000000000000000000000000000000000000000000000000000000090600401610f3a565b600060405180830381865af41580156104c9573d6000803e3d6000fd5b505050506040513d6000823e601f3d908101601f191682016040526104f19190810190610f76565b949350505050565b604051632474521560e21b81527f749410edf1177aefa27612b24d2d51e6441f89613f5ddf9be1d11dfc0d3e4fea60048201526001600160a01b038216602482015260009073__$a603c36e8140f8f0796c2626c9f8eff514$__906391d1485490604401602060405180830381865af415801561057a573d6000803e3d6000fd5b505050506040513d601f19601f8201168201806040525081019061059e9190610fed565b92915050565b6040516311c501c360e11b815260009073__$873ca04b9e3da3ca7cba95b77f569299f5$__9063238a0386906105de908590600401610cc3565b602060405180830381865af41580156105fb573d6000803e3d6000fd5b505050506040513d601f19601f8201168201806040525081019061059e919061100f565b336001600160a01b031673__$a603c36e8140f8f0796c2626c9f8eff514$__638da5cb5b6040518163ffffffff1660e01b8152600401602060405180830381865af4158015610672573d6000803e3d6000fd5b505050506040513d601f19601f820116820180604052508101906106969190611028565b6001600160a01b0316146106c55760405162461bcd60e51b81526004016106bc90611045565b60405180910390fd5b604051632f2ff15d60e01b8152600481018390526001600160a01b038216602482015273__$a603c36e8140f8f0796c2626c9f8eff514$__90632f2ff15d906044015b60006040518083038186803b15801561072057600080fd5b505af4158015610734573d6000803e3d6000fd5b505050505050565b604051632ea9b6b560e11b815260009073__$873ca04b9e3da3ca7cba95b77f569299f5$__90635d536d6a906107789086908690600401611073565b602060405180830381865af4158015610795573d6000803e3d6000fd5b505050506040513d601f19601f820116820180604052508101906107b99190610fed565b9392505050565b600073__$a603c36e8140f8f0796c2626c9f8eff514$__638da5cb5b6040518163ffffffff1660e01b8152600401602060405180830381865af415801561080b573d6000803e3d6000fd5b505050506040513d601f19601f8201168201806040525081019061082f9190611028565b905090565b604051632474521560e21b8152600481018390526001600160a01b038216602482015260009073__$a603c36e8140f8f0796c2626c9f8eff514$__906391d1485490604401610778565b60007f00000000000000000000000000000000000000000000000000000000000000006001600160a01b03166383b7db636040518163ffffffff1660e01b8152600401600060405180830381865afa1580156108de573d6000803e3d6000fd5b505050506040513d6000823e601f3d908101601f191682016040526109069190810190611095565b90506000635efefd5460e01b8787877f0000000000000000000000000000000000000000000000000000000000000000888860405160240161094d96959493929190611147565b60408051601f198184030181529190526020810180516001600160e01b03166001600160e01b031990931692909217909152905060005b8251811015610a2d5773__$873ca04b9e3da3ca7cba95b77f569299f5$__63fcaf26d78483815181106109b9576109b9611192565b6020026020010151846040518363ffffffff1660e01b81526004016109df9291906111a8565b600060405180830381865af41580156109fc573d6000803e3d6000fd5b505050506040513d6000823e601f3d908101601f19168201604052610a249190810190610f76565b50600101610984565b5050505050505050565b336001600160a01b031673__$a603c36e8140f8f0796c2626c9f8eff514$__638da5cb5b6040518163ffffffff1660e01b8152600401602060405180830381865af4158015610a8a573d6000803e3d6000fd5b505050506040513d601f19601f82011682018060405250810190610aae9190611028565b6001600160a01b031614610ad45760405162461bcd60e51b81526004016106bc90611045565b6040516313af403560e01b81526001600160a01b038216600482015273__$a603c36e8140f8f0796c2626c9f8eff514$__906313af40359060240160006040518083038186803b158015610b2757600080fd5b505af4158015610b3b573d6000803e3d6000fd5b5050505050565b336001600160a01b031673__$a603c36e8140f8f0796c2626c9f8eff514$__638da5cb5b6040518163ffffffff1660e01b8152600401602060405180830381865af4158015610b95573d6000803e3d6000fd5b505050506040513d601f19601f82011682018060405250810190610bb99190611028565b6001600160a01b031614610bdf5760405162461bcd60e51b81526004016106bc90611045565b60405163d547741f60e01b8152600481018390526001600160a01b038216602482015273__$a603c36e8140f8f0796c2626c9f8eff514$__9063d547741f90604401610708565b6001600160a01b0381168114610c3b57600080fd5b50565b600060208284031215610c5057600080fd5b81356107b981610c26565b600060608284031215610c6d57600080fd5b50919050565b60005b83811015610c8e578181015183820152602001610c76565b50506000910152565b60008151808452610caf816020860160208601610c73565b601f01601f19169290920160200192915050565b6020815260006107b96020830184610c97565b634e487b7160e01b600052604160045260246000fd5b604051601f8201601f1916810167ffffffffffffffff81118282101715610d1557610d15610cd6565b604052919050565b600067ffffffffffffffff821115610d3757610d37610cd6565b50601f01601f191660200190565b600082601f830112610d5657600080fd5b8135610d69610d6482610d1d565b610cec565b818152846020838601011115610d7e57600080fd5b816020850160208301376000918101602001919091529392505050565b600060208284031215610dad57600080fd5b813567ffffffffffffffff811115610dc457600080fd5b6104f184828501610d45565b60008060408385031215610de357600080fd5b823591506020830135610df581610c26565b809150509250929050565b60008060408385031215610e1357600080fd5b823567ffffffffffffffff811115610e2a57600080fd5b610e3685828601610d45565b95602094909401359450505050565b60008083601f840112610e5757600080fd5b50813567ffffffffffffffff811115610e6f57600080fd5b602083019150836020828501011115610e8757600080fd5b9250929050565b600080600080600060608688031215610ea657600080fd5b8535610eb181610c26565b9450602086013567ffffffffffffffff80821115610ece57600080fd5b610eda89838a01610e45565b90965094506040880135915080821115610ef357600080fd5b50610f0088828901610e45565b969995985093965092949392505050565b81835281816020850137506000828201602090810191909152601f909101601f19169091010190565b63ffffffff60e01b85168152606060208201526000610f5d606083018587610f11565b905060018060a01b038316604083015295945050505050565b600060208284031215610f8857600080fd5b815167ffffffffffffffff811115610f9f57600080fd5b8201601f81018413610fb057600080fd5b8051610fbe610d6482610d1d565b818152856020838501011115610fd357600080fd5b610fe4826020830160208601610c73565b95945050505050565b600060208284031215610fff57600080fd5b815180151581146107b957600080fd5b60006020828403121561102157600080fd5b5051919050565b60006020828403121561103a57600080fd5b81516107b981610c26565b60208082526014908201527321b7b932a9b432b6361d103737ba1037bbb732b960611b604082015260600190565b6040815260006110866040830185610c97565b90508260208301529392505050565b600060208083850312156110a857600080fd5b825167ffffffffffffffff808211156110c057600080fd5b818501915085601f8301126110d457600080fd5b8151818111156110e6576110e6610cd6565b8060051b91506110f7848301610cec565b818152918301840191848101908884111561111157600080fd5b938501935b8385101561113b578451925061112b83610c26565b8282529385019390850190611116565b98975050505050505050565b6001600160a01b038716815260806020820181905260009061116c9083018789610f11565b8560408401528281036060840152611185818587610f11565b9998505050505050505050565b634e487b7160e01b600052603260045260246000fd5b6001600160a01b03831681526040602082018190526000906104f190830184610c9756fea264697066735822122005a6d6de6368ae6d3aef0752f2dfba0dddbf9047be352af1d8fe36444591cc4e64736f6c634300081800332172861495e7b85edac73e3cd5fbb42dd675baadf627720e687bcfdaca025096",
  "linkReferences": {
    "contracts/core/LibAccess.sol": {
      "LibAccess": [
        {
          "length": 20,
          "start": 2983
        },
        {
          "length": 20,
          "start": 3218
        },
        {
          "length": 20,
          "start": 3409
        },
        {
          "length": 20,
          "start": 3627
        },
        {
          "length": 20,
          "start": 3779
        },
        {
          "length": 20,
          "start": 4266
        },
        {
          "length": 20,
          "start": 4441
        },
        {
          "length": 20,
          "start": 4533
        },
        {
          "length": 20,
          "start": 4715
        }
      ]
    },
    "contracts/core/LibExtensions.sol": {
      "LibExtensions": [
        {
          "length": 20,
          "start": 2757
        },
        {
          "length": 20,
          "start": 3101
        },
        {
          "length": 20,
          "start": 3509
        },
        {
          "length": 20,
          "start": 4086
        }
      ]
    }
  },
  "deployedLinkReferences": {
    "contracts/core/LibAccess.sol": {
      "LibAccess": [
        {
          "length": 20,
          "start": 1344
        },
        {
          "length": 20,
          "start": 1579
        },
        {
          "length": 20,
          "start": 1770
        },
        {
          "length": 20,
          "start": 1988
        },
        {
          "length": 20,
          "start": 2140
        },
        {
          "length": 20,
          "start": 2627
        },
        {
          "length": 20,
          "start": 2802
        },
        {
          "length": 20,
          "start": 2894
        },
        {
          "length": 20,
          "start": 3076
        }
      ]
    },
    "contracts/core/LibExtensions.sol": {
      "LibExtensions": [
        {
          "length": 20,
          "start": 1118
        },
        {
          "length": 20,
          "start": 1462
        },
        {
          "length": 20,
          "start": 1870
        },
        {
          "length": 20,
          "start": 2447
        }
      ]
    }
  }
}