{
  "_format": "hh-sol-artifact-1",
  "contractName": "RegistrarFactory",
  "sourceName": "contracts/registrar/factory/RegistrarFactory.sol",
  "abi": [
    {
      "inputs": [
        {
          "components": [
            {
              "internalType": "address",
              "name": "owner",
              "type": "address"
            },
            {
              "internalType": "address[]",
              "name": "otherAdmins",
              "type": "address[]"
            }
          ],
          "internalType": "struct EntityFactoryConstructorArgs",
          "name": "args",
          "type": "tuple"
        }
      ],
      "stateMutability": "nonpayable",
      "type": "constructor"
    },
    {
      "anonymous": false,
      "inputs": [
        {
          "indexed": true,
          "internalType": "address",
          "name": "newImpl",
          "type": "address"
        },
        {
          "indexed": false,
          "internalType": "uint256",
          "name": "version",
          "type": "uint256"
        }
      ],
      "name": "FactoryImplementationChanged",
      "type": "event"
    },
    {
      "anonymous": false,
      "inputs": [
        {
          "indexed": true,
          "internalType": "address",
          "name": "newImpl",
          "type": "address"
        }
      ],
      "name": "FactoryProxyImplementationChanged",
      "type": "event"
    },
    {
      "anonymous": false,
      "inputs": [
        {
          "indexed": true,
          "internalType": "bytes32",
          "name": "role",
          "type": "bytes32"
        },
        {
          "indexed": true,
          "internalType": "address",
          "name": "account",
          "type": "address"
        }
      ],
      "name": "RoleGranted",
      "type": "event"
    },
    {
      "inputs": [
        {
          "internalType": "address",
          "name": "owner",
          "type": "address"
        },
        {
          "internalType": "string",
          "name": "name",
          "type": "string"
        },
        {
          "internalType": "bytes",
          "name": "initData",
          "type": "bytes"
        }
      ],
      "name": "createEntity",
      "outputs": [
        {
          "internalType": "address",
          "name": "proxy",
          "type": "address"
        }
      ],
      "stateMutability": "nonpayable",
      "type": "function"
    },
    {
      "inputs": [],
      "name": "currentImplVersion",
      "outputs": [
        {
          "internalType": "uint256",
          "name": "",
          "type": "uint256"
        }
      ],
      "stateMutability": "view",
      "type": "function"
    },
    {
      "inputs": [],
      "name": "getImplementation",
      "outputs": [
        {
          "internalType": "address",
          "name": "",
          "type": "address"
        }
      ],
      "stateMutability": "view",
      "type": "function"
    },
    {
      "inputs": [
        {
          "internalType": "address",
          "name": "registry",
          "type": "address"
        }
      ],
      "name": "setAuthorizedRegistry",
      "outputs": [],
      "stateMutability": "nonpayable",
      "type": "function"
    },
    {
      "inputs": [
        {
          "internalType": "address",
          "name": "newImplementation",
          "type": "address"
        },
        {
          "internalType": "uint256",
          "name": "version",
          "type": "uint256"
        }
      ],
      "name": "setImplementation",
      "outputs": [],
      "stateMutability": "nonpayable",
      "type": "function"
    },
    {
      "inputs": [
        {
          "internalType": "address",
          "name": "newImplementation",
          "type": "address"
        }
      ],
      "name": "setProxyImplementation",
      "outputs": [],
      "stateMutability": "nonpayable",
      "type": "function"
    }
  ],
  "bytecode": "0x60806040523480156200001157600080fd5b50604051620012a7380380620012a7833981016040819052620000349162000406565b805181906001600160a01b0316620000965760405162461bcd60e51b815260206004820152602b60248201526000805160206200128783398151915260448201526a65726f206164647265737360a81b60648201526084015b60405180910390fd5b80516040516313af403560e01b81526001600160a01b03909116600482015273__$a603c36e8140f8f0796c2626c9f8eff514$__906313af40359060240160006040518083038186803b158015620000ed57600080fd5b505af415801562000102573d6000803e3d6000fd5b5050505060005b816020015151811015620001f95760006001600160a01b0316826020015182815181106200013b576200013b62000504565b60200260200101516001600160a01b0316036200019e5760405162461bcd60e51b815260206004820152602b60248201526000805160206200128783398151915260448201526a65726f206164647265737360a81b60648201526084016200008d565b620001f07f2172861495e7b85edac73e3cd5fbb42dd675baadf627720e687bcfdaca02509683602001518381518110620001dc57620001dc62000504565b60200260200101516200020260201b60201c565b60010162000109565b50505062000542565b6001600160a01b038116620002715760405162461bcd60e51b815260206004820152602e60248201527f4c69624163636573733a2063616e6e6f74206772616e7420726f6c652077697460448201526d68207a65726f206164647265737360901b60648201526084016200008d565b60006200027d620002dc565b600084815260028201602090815260408083206001600160a01b0387168085529252808320805460ff19166001179055519293509185917f2ae6a113c0ed5b78a53413ffbb7679881f11145ccfba4fb92e863dfcd5a1d2f391a3505050565b60408051808201909152601481527f78722e6163636573732e76312e73746f7261676500000000000000000000000060209091015260008060ff6200034360017f635029241f0ffc6f0ed7ed889a32900dcb67a3f08955f2b339ffb28b145bb4ec6200051a565b6040516020016200035691815260200190565b60408051601f1981840301815291905280516020909101201692915050565b634e487b7160e01b600052604160045260246000fd5b604080519081016001600160401b0381118282101715620003b057620003b062000375565b60405290565b604051601f8201601f191681016001600160401b0381118282101715620003e157620003e162000375565b604052919050565b80516001600160a01b03811681146200040157600080fd5b919050565b600060208083850312156200041a57600080fd5b82516001600160401b03808211156200043257600080fd5b90840190604082870312156200044757600080fd5b620004516200038b565b6200045c83620003e9565b815283830151828111156200047057600080fd5b80840193505086601f8401126200048657600080fd5b8251828111156200049b576200049b62000375565b8060051b9250620004ae858401620003b6565b8181529284018501928581019089851115620004c957600080fd5b948601945b84861015620004f257620004e286620003e9565b82529486019490860190620004ce565b95830195909552509695505050505050565b634e487b7160e01b600052603260045260246000fd5b818103818111156200053c57634e487b7160e01b600052601160045260246000fd5b92915050565b610d3580620005526000396000f3fe608060405234801561001057600080fd5b50600436106100625760003560e01c8063090741a0146100675780633033a4e51461007c5780634c5eac871461008f5780639fdcd3a4146100bf578063aaf10f42146100d2578063d0825a40146100da575b600080fd5b61007a610075366004610acf565b6100f0565b005b61007a61008a366004610af3565b6102cf565b6100a261009d366004610b68565b6104eb565b6040516001600160a01b0390911681526020015b60405180910390f35b61007a6100cd366004610acf565b610730565b6100a261093b565b6100e2610957565b6040519081526020016100b6565b336001600160a01b031673__$a603c36e8140f8f0796c2626c9f8eff514$__638da5cb5b6040518163ffffffff1660e01b8152600401602060405180830381865af4158015610143573d6000803e3d6000fd5b505050506040513d601f19601f820116820180604052508101906101679190610beb565b6001600160a01b031614806102105750604051632474521560e21b81527f2172861495e7b85edac73e3cd5fbb42dd675baadf627720e687bcfdaca025096600482015233602482015273__$a603c36e8140f8f0796c2626c9f8eff514$__906391d1485490604401602060405180830381865af41580156101ec573d6000803e3d6000fd5b505050506040513d601f19601f820116820180604052508101906102109190610c08565b6102355760405162461bcd60e51b815260040161022c90610c2a565b60405180910390fd5b6001600160a01b0381166102a25760405162461bcd60e51b815260206004820152602e60248201527f456e74697479466163746f72793a2072656769737472792063616e6e6f74206260448201526d65207a65726f206164647265737360901b606482015260840161022c565b806102ab61096a565b60020180546001600160a01b0319166001600160a01b039290921691909117905550565b336001600160a01b031673__$a603c36e8140f8f0796c2626c9f8eff514$__638da5cb5b6040518163ffffffff1660e01b8152600401602060405180830381865af4158015610322573d6000803e3d6000fd5b505050506040513d601f19601f820116820180604052508101906103469190610beb565b6001600160a01b031614806103ef5750604051632474521560e21b81527f2172861495e7b85edac73e3cd5fbb42dd675baadf627720e687bcfdaca025096600482015233602482015273__$a603c36e8140f8f0796c2626c9f8eff514$__906391d1485490604401602060405180830381865af41580156103cb573d6000803e3d6000fd5b505050506040513d601f19601f820116820180604052508101906103ef9190610c08565b61040b5760405162461bcd60e51b815260040161022c90610c2a565b6001600160a01b03821661047e5760405162461bcd60e51b815260206004820152603460248201527f456e74697479466163746f72793a20696d706c656d656e746174696f6e2063616044820152736e6e6f74206265207a65726f206164647265737360601b606482015260840161022c565b600061048861096a565b6001810180546001600160a01b0319166001600160a01b03861690811790915560038201849055604051848152919250907f28e99c2ae1a70ad78406faa30f6d2ab3a20d78a6a7752df271b3ab661fe0552a9060200160405180910390a2505050565b60006104f561096a565b600201546001600160a01b0316331461055c5760405162461bcd60e51b8152602060048201526024808201527f456e74697479466163746f72793a206f6e6c7920726567697374727920616c6c6044820152631bddd95960e21b606482015260840161022c565b600061056661096a565b80549091506001600160a01b03166105d45760405162461bcd60e51b815260206004820152602b60248201527f456e74697479466163746f72793a2070726f787920696d706c656d656e74617460448201526a1a5bdb881b9bdd081cd95d60aa1b606482015260840161022c565b60018101546001600160a01b031661063c5760405162461bcd60e51b815260206004820152602560248201527f456e74697479466163746f72793a20696d706c656d656e746174696f6e206e6f6044820152641d081cd95d60da1b606482015260840161022c565b8054610650906001600160a01b0316610a00565b60018201546003830154604051633033a4e560e01b81526001600160a01b0392831660048201526024810191909152919350831690633033a4e590604401600060405180830381600087803b1580156106a857600080fd5b505af11580156106bc573d6000803e3d6000fd5b5050604051639dcaea8d60e01b81526001600160a01b0385169250639dcaea8d91506106f4908a908a908a908a908a90600401610c94565b600060405180830381600087803b15801561070e57600080fd5b505af1158015610722573d6000803e3d6000fd5b505050505095945050505050565b336001600160a01b031673__$a603c36e8140f8f0796c2626c9f8eff514$__638da5cb5b6040518163ffffffff1660e01b8152600401602060405180830381865af4158015610783573d6000803e3d6000fd5b505050506040513d601f19601f820116820180604052508101906107a79190610beb565b6001600160a01b031614806108505750604051632474521560e21b81527f2172861495e7b85edac73e3cd5fbb42dd675baadf627720e687bcfdaca025096600482015233602482015273__$a603c36e8140f8f0796c2626c9f8eff514$__906391d1485490604401602060405180830381865af415801561082c573d6000803e3d6000fd5b505050506040513d601f19601f820116820180604052508101906108509190610c08565b61086c5760405162461bcd60e51b815260040161022c90610c2a565b6001600160a01b0381166108e85760405162461bcd60e51b815260206004820152603a60248201527f456e74697479466163746f72793a2070726f787920696d706c656d656e74617460448201527f696f6e2063616e6e6f74206265207a65726f2061646472657373000000000000606482015260840161022c565b806108f161096a565b80546001600160a01b0319166001600160a01b03928316179055604051908216907f991c4b332a60195e524c352f317b88fad3ed04c18e3dbe71f556c4decf821e7390600090a250565b600061094561096a565b600101546001600160a01b0316919050565b600061096161096a565b60030154905090565b60408051808201909152601b81527f78722e656e74697479666163746f72792e76312e73746f72616765000000000060209091015260008060ff6109cf60017faf9ac5124b6fdc67a1baa48381f4ce55c72e1a6c21c3fdda2d30b95679ead5db610cd8565b6040516020016109e191815260200190565b60408051601f1981840301815291905280516020909101201692915050565b60006001600160a01b038216610a665760405162461bcd60e51b815260206004820152602560248201527f456e7469747943726561746f723a20696d706c656d656e746174696f6e206e6f6044820152641d081cd95d60da1b606482015260840161022c565b60008260601b9050604051733d602d80600a3d3981f3363d3d373d3d3d363d7360601b81528160148201526e5af43d82803e903d91602b57fd5bf360881b60288201526037816000f0949350505050565b6001600160a01b0381168114610acc57600080fd5b50565b600060208284031215610ae157600080fd5b8135610aec81610ab7565b9392505050565b60008060408385031215610b0657600080fd5b8235610b1181610ab7565b946020939093013593505050565b60008083601f840112610b3157600080fd5b50813567ffffffffffffffff811115610b4957600080fd5b602083019150836020828501011115610b6157600080fd5b9250929050565b600080600080600060608688031215610b8057600080fd5b8535610b8b81610ab7565b9450602086013567ffffffffffffffff80821115610ba857600080fd5b610bb489838a01610b1f565b90965094506040880135915080821115610bcd57600080fd5b50610bda88828901610b1f565b969995985093965092949392505050565b600060208284031215610bfd57600080fd5b8151610aec81610ab7565b600060208284031215610c1a57600080fd5b81518015158114610aec57600080fd5b60208082526021908201527f456e74697479466163746f72793a206f6e6c792061646d696e20616c6c6f77656040820152601960fa1b606082015260800190565b81835281816020850137506000828201602090810191909152601f909101601f19169091010190565b6001600160a01b0386168152606060208201819052600090610cb99083018688610c6b565b8281036040840152610ccc818587610c6b565b98975050505050505050565b81810381811115610cf957634e487b7160e01b600052601160045260246000fd5b9291505056fea2646970667358221220dd95c008c776309a6a880d48d6dae5d6a86536a8b4a29e6f4d0abf8a5baf099664736f6c63430008180033456e74697479466163746f72793a2061646d696e2063616e6e6f74206265207a",
  "linkReferences": {
    "contracts/core/LibAccess.sol": {
      "LibAccess": [
        {
          "length": 20,
          "start": 183
        },
        {
          "length": 20,
          "start": 1614
        },
        {
          "length": 20,
          "start": 1796
        },
        {
          "length": 20,
          "start": 2093
        },
        {
          "length": 20,
          "start": 2275
        },
        {
          "length": 20,
          "start": 3214
        },
        {
          "length": 20,
          "start": 3396
        }
      ]
    }
  },
  "deployedLinkReferences": {
    "contracts/core/LibAccess.sol": {
      "LibAccess": [
        {
          "length": 20,
          "start": 252
        },
        {
          "length": 20,
          "start": 434
        },
        {
          "length": 20,
          "start": 731
        },
        {
          "length": 20,
          "start": 913
        },
        {
          "length": 20,
          "start": 1852
        },
        {
          "length": 20,
          "start": 2034
        }
      ]
    }
  }
}