{
  "_format": "hh-sol-artifact-1",
  "contractName": "RegistrarRegistry",
  "sourceName": "contracts/registrar/registry/RegistrarRegistry.sol",
  "abi": [
    {
      "inputs": [
        {
          "components": [
            {
              "internalType": "address",
              "name": "owner",
              "type": "address"
            },
            {
              "internalType": "address[]",
              "name": "otherAdmins",
              "type": "address[]"
            },
            {
              "internalType": "address",
              "name": "extensionManager",
              "type": "address"
            },
            {
              "internalType": "address",
              "name": "entityCreator",
              "type": "address"
            },
            {
              "components": [
                {
                  "internalType": "uint256",
                  "name": "fee",
                  "type": "uint256"
                },
                {
                  "internalType": "uint256",
                  "name": "coveragePeriodDays",
                  "type": "uint256"
                },
                {
                  "internalType": "uint256",
                  "name": "gracePeriodDays",
                  "type": "uint256"
                }
              ],
              "internalType": "struct RegistrationTerms",
              "name": "registrarTerms",
              "type": "tuple"
            }
          ],
          "internalType": "struct RegistrarRegistryConstructorArgs",
          "name": "args",
          "type": "tuple"
        }
      ],
      "stateMutability": "nonpayable",
      "type": "constructor"
    },
    {
      "anonymous": false,
      "inputs": [
        {
          "indexed": true,
          "internalType": "address",
          "name": "oldOwner",
          "type": "address"
        },
        {
          "indexed": true,
          "internalType": "address",
          "name": "newOwner",
          "type": "address"
        }
      ],
      "name": "OwnerChanged",
      "type": "event"
    },
    {
      "anonymous": false,
      "inputs": [
        {
          "indexed": true,
          "internalType": "bytes32",
          "name": "role",
          "type": "bytes32"
        },
        {
          "indexed": true,
          "internalType": "address",
          "name": "account",
          "type": "address"
        }
      ],
      "name": "RoleGranted",
      "type": "event"
    },
    {
      "stateMutability": "payable",
      "type": "fallback"
    },
    {
      "inputs": [
        {
          "internalType": "address",
          "name": "newOwner",
          "type": "address"
        }
      ],
      "name": "changeOwner",
      "outputs": [],
      "stateMutability": "nonpayable",
      "type": "function"
    },
    {
      "inputs": [
        {
          "internalType": "address",
          "name": "owner",
          "type": "address"
        },
        {
          "internalType": "string",
          "name": "name",
          "type": "string"
        },
        {
          "internalType": "bytes",
          "name": "initData",
          "type": "bytes"
        }
      ],
      "name": "createEntityInstance",
      "outputs": [
        {
          "internalType": "address",
          "name": "",
          "type": "address"
        }
      ],
      "stateMutability": "nonpayable",
      "type": "function"
    },
    {
      "inputs": [],
      "name": "entityFactory",
      "outputs": [
        {
          "internalType": "contract IEntityFactory",
          "name": "",
          "type": "address"
        }
      ],
      "stateMutability": "view",
      "type": "function"
    },
    {
      "inputs": [],
      "name": "extManager",
      "outputs": [
        {
          "internalType": "contract IExtensionManager",
          "name": "",
          "type": "address"
        }
      ],
      "stateMutability": "view",
      "type": "function"
    },
    {
      "inputs": [
        {
          "internalType": "string",
          "name": "name",
          "type": "string"
        }
      ],
      "name": "getExtensionVersion",
      "outputs": [
        {
          "internalType": "uint256",
          "name": "",
          "type": "uint256"
        }
      ],
      "stateMutability": "view",
      "type": "function"
    },
    {
      "inputs": [
        {
          "internalType": "bytes32",
          "name": "role",
          "type": "bytes32"
        },
        {
          "internalType": "address",
          "name": "account",
          "type": "address"
        }
      ],
      "name": "grantRole",
      "outputs": [],
      "stateMutability": "nonpayable",
      "type": "function"
    },
    {
      "inputs": [
        {
          "internalType": "string",
          "name": "name",
          "type": "string"
        },
        {
          "internalType": "uint256",
          "name": "version",
          "type": "uint256"
        }
      ],
      "name": "hasExtension",
      "outputs": [
        {
          "internalType": "bool",
          "name": "",
          "type": "bool"
        }
      ],
      "stateMutability": "view",
      "type": "function"
    },
    {
      "inputs": [
        {
          "internalType": "bytes32",
          "name": "role",
          "type": "bytes32"
        },
        {
          "internalType": "address",
          "name": "account",
          "type": "address"
        }
      ],
      "name": "hasRole",
      "outputs": [
        {
          "internalType": "bool",
          "name": "",
          "type": "bool"
        }
      ],
      "stateMutability": "view",
      "type": "function"
    },
    {
      "inputs": [],
      "name": "isActive",
      "outputs": [
        {
          "internalType": "bool",
          "name": "",
          "type": "bool"
        }
      ],
      "stateMutability": "pure",
      "type": "function"
    },
    {
      "inputs": [
        {
          "internalType": "address",
          "name": "caller",
          "type": "address"
        }
      ],
      "name": "isActiveTermsOwner",
      "outputs": [
        {
          "internalType": "bool",
          "name": "",
          "type": "bool"
        }
      ],
      "stateMutability": "view",
      "type": "function"
    },
    {
      "inputs": [
        {
          "internalType": "address",
          "name": "_signer",
          "type": "address"
        }
      ],
      "name": "isTermsOwnerSigner",
      "outputs": [
        {
          "internalType": "bool",
          "name": "",
          "type": "bool"
        }
      ],
      "stateMutability": "view",
      "type": "function"
    },
    {
      "inputs": [],
      "name": "owner",
      "outputs": [
        {
          "internalType": "address",
          "name": "",
          "type": "address"
        }
      ],
      "stateMutability": "view",
      "type": "function"
    },
    {
      "inputs": [
        {
          "internalType": "bytes32",
          "name": "role",
          "type": "bytes32"
        },
        {
          "internalType": "address",
          "name": "account",
          "type": "address"
        }
      ],
      "name": "revokeRole",
      "outputs": [],
      "stateMutability": "nonpayable",
      "type": "function"
    },
    {
      "stateMutability": "payable",
      "type": "receive"
    }
  ],
  "bytecode": "0x60c06040523480156200001157600080fd5b5060405162001b0f38038062001b0f8339810160408190526200003491620006dc565b6040805160608101825282516001600160a01b0390811680835260208086015190840152848401519091169282019290925290156200007a5780516200007a9062000375565b60005b816020015151811015620000d557620000cc60008051602062001aef83398151915283602001518381518110620000b857620000b862000809565b60200260200101516200044560201b60201c565b6001016200007d565b506040908101516001600160a01b0316608081905281516383b7db6360e01b815291516000926383b7db6391600480830192869291908290030181865afa15801562000125573d6000803e3d6000fd5b505050506040513d6000823e601f3d908101601f191682016040526200014f91908101906200081f565b82516080808501516040805182516020808301919091528301518183015291015160608201529293506000926317bfbf5560e21b92916001910160408051601f1981840301815290829052620001aa93929160240162000917565b60408051601f198184030181529190526020810180516001600160e01b03166001600160e01b03199093169290921790915260608401519091506001600160a01b03166200024b5760405162461bcd60e51b8152602060048201526024808201527f456e7469747943726561746f722063616e6e6f74206265207a65726f206164646044820152637265737360e01b60648201526084015b60405180910390fd5b60608301516001600160a01b031660a05260005b8251811015620003125773__$873ca04b9e3da3ca7cba95b77f569299f5$__63fcaf26d784838151811062000298576200029862000809565b6020026020010151846040518363ffffffff1660e01b8152600401620002c092919062000974565b600060405180830381865af4158015620002de573d6000803e3d6000fd5b505050506040513d6000823e601f3d908101601f19168201604052620003089190810190620009a2565b506001016200025f565b5060005b8360200151518110156200036b57620003627f749410edf1177aefa27612b24d2d51e6441f89613f5ddf9be1d11dfc0d3e4fea85602001518381518110620000b857620000b862000809565b60010162000316565b5050505062000a68565b6000620003816200051f565b80546001600160a01b038481166001600160a01b03198316811784557f9f4e1c871d5fdd0aee1cd182666698a4492b24c6832aac230d07b11046af5a8960009081526001808601602081815260408085208686528252808520805460ff19908116861790915560008051602062001aef83398151915286529282528085208686529091528084208054909216909217905551949550919092169283917fb532073b38c83145e3e5135377a08bf9aab55bc0fd7c1179cd4fb995d2a5159c91a3505050565b6001600160a01b038116620004b45760405162461bcd60e51b815260206004820152602e60248201527f4c69624163636573733a2063616e6e6f74206772616e7420726f6c652077697460448201526d68207a65726f206164647265737360901b606482015260840162000242565b6000620004c06200051f565b600084815260028201602090815260408083206001600160a01b0387168085529252808320805460ff19166001179055519293509185917f2ae6a113c0ed5b78a53413ffbb7679881f11145ccfba4fb92e863dfcd5a1d2f391a3505050565b60408051808201909152601481527f78722e6163636573732e76312e73746f7261676500000000000000000000000060209091015260008060ff6200058660017f635029241f0ffc6f0ed7ed889a32900dcb67a3f08955f2b339ffb28b145bb4ec62000a40565b6040516020016200059991815260200190565b60408051601f1981840301815291905280516020909101201692915050565b634e487b7160e01b600052604160045260246000fd5b60405160a081016001600160401b0381118282101715620005f357620005f3620005b8565b60405290565b604051601f8201601f191681016001600160401b0381118282101715620006245762000624620005b8565b604052919050565b6001600160a01b03811681146200064257600080fd5b50565b805162000652816200062c565b919050565b60006001600160401b03821115620006735762000673620005b8565b5060051b60200190565b6000606082840312156200069057600080fd5b604051606081016001600160401b0381118282101715620006b557620006b5620005b8565b80604052508091508251815260208301516020820152604083015160408201525092915050565b60006020808385031215620006f057600080fd5b82516001600160401b03808211156200070857600080fd5b9084019060e082870312156200071d57600080fd5b62000727620005ce565b825162000734816200062c565b815282840151828111156200074857600080fd5b83019150601f820187136200075c57600080fd5b8151620007736200076d8262000657565b620005f9565b81815260059190911b830185019085810190898311156200079357600080fd5b938601935b82851015620007be578451620007ae816200062c565b8252938601939086019062000798565b8387015250620007d390506040840162000645565b6040820152620007e66060840162000645565b6060820152620007fa87608085016200067d565b60808201529695505050505050565b634e487b7160e01b600052603260045260246000fd5b600060208083850312156200083357600080fd5b82516001600160401b038111156200084a57600080fd5b8301601f810185136200085c57600080fd5b80516200086d6200076d8262000657565b81815260059190911b820183019083810190878311156200088d57600080fd5b928401925b82841015620008b8578351620008a8816200062c565b8252928401929084019062000892565b979650505050505050565b60005b83811015620008e0578181015183820152602001620008c6565b50506000910152565b6000815180845262000903816020860160208601620008c3565b601f01601f19169290920160200192915050565b60018060a01b0384168152608060208201526011608082015270526567697374726172526567697374727960781b60a082015260ff8316604082015260c0606082015260006200096b60c0830184620008e9565b95945050505050565b6001600160a01b03831681526040602082018190526000906200099a90830184620008e9565b949350505050565b600060208284031215620009b557600080fd5b81516001600160401b0380821115620009cd57600080fd5b818401915084601f830112620009e257600080fd5b815181811115620009f757620009f7620005b8565b62000a0c601f8201601f1916602001620005f9565b915080825285602082850101111562000a2457600080fd5b62000a37816020840160208601620008c3565b50949350505050565b8181038181111562000a6257634e487b7160e01b600052601160045260246000fd5b92915050565b60805160a05161105362000a9c6000396000818161022d0152610671015260008181610261015261031b01526110536000f3fe6080604052600436106100c65760003560e01c80638da5cb5b1161007f5780639f294b75116100595780639f294b751461024f578063a6f9dae114610283578063d547741f146102a3578063e531c3ae146102c3576100cd565b80638da5cb5b146101e657806391d14854146101fb5780639d1c1b821461021b576100cd565b80630a7ee8a0146100f557806322f3e2d41461012a578063238a03861461013e5780632f2ff15d1461016c5780635d536d6a1461018e578063821059e4146101ae576100cd565b366100cd57005b600080356001600160e01b031916905060006100eb826000366102e3565b9050805160208201f35b34801561010157600080fd5b50610115610110366004610b9a565b610390565b60405190151581526020015b60405180910390f35b34801561013657600080fd5b506001610115565b34801561014a57600080fd5b5061015e610159366004610c7c565b61043b565b604051908152602001610121565b34801561017857600080fd5b5061018c610187366004610cb1565b6104b6565b005b34801561019a57600080fd5b506101156101a9366004610ce1565b6105d3565b3480156101ba57600080fd5b506101ce6101c9366004610d6f565b610657565b6040516001600160a01b039091168152602001610121565b3480156101f257600080fd5b506101ce6106fb565b34801561020757600080fd5b50610115610216366004610cb1565b61076f565b34801561022757600080fd5b506101ce7f000000000000000000000000000000000000000000000000000000000000000081565b34801561025b57600080fd5b506101ce7f000000000000000000000000000000000000000000000000000000000000000081565b34801561028f57600080fd5b5061018c61029e366004610b9a565b6107b9565b3480156102af57600080fd5b5061018c6102be366004610cb1565b6108c4565b3480156102cf57600080fd5b506101156102de366004610b9a565b6109a8565b6040516307d9a5a160e21b815260609073__$873ca04b9e3da3ca7cba95b77f569299f5$__90631f66968490610343908790879087907f000000000000000000000000000000000000000000000000000000000000000090600401610e1b565b600060405180830381865af4158015610360573d6000803e3d6000fd5b505050506040513d6000823e601f3d908101601f191682016040526103889190810190610e7b565b949350505050565b604051632474521560e21b81527f749410edf1177aefa27612b24d2d51e6441f89613f5ddf9be1d11dfc0d3e4fea60048201526001600160a01b038216602482015260009073__$a603c36e8140f8f0796c2626c9f8eff514$__906391d1485490604401602060405180830381865af4158015610411573d6000803e3d6000fd5b505050506040513d601f19601f820116820180604052508101906104359190610ef2565b92915050565b6040516311c501c360e11b815260009073__$873ca04b9e3da3ca7cba95b77f569299f5$__9063238a038690610475908590600401610f40565b602060405180830381865af4158015610492573d6000803e3d6000fd5b505050506040513d601f19601f820116820180604052508101906104359190610f53565b336001600160a01b031673__$a603c36e8140f8f0796c2626c9f8eff514$__638da5cb5b6040518163ffffffff1660e01b8152600401602060405180830381865af4158015610509573d6000803e3d6000fd5b505050506040513d601f19601f8201168201806040525081019061052d9190610f6c565b6001600160a01b03161461055c5760405162461bcd60e51b815260040161055390610f89565b60405180910390fd5b604051632f2ff15d60e01b8152600481018390526001600160a01b038216602482015273__$a603c36e8140f8f0796c2626c9f8eff514$__90632f2ff15d906044015b60006040518083038186803b1580156105b757600080fd5b505af41580156105cb573d6000803e3d6000fd5b505050505050565b604051632ea9b6b560e11b815260009073__$873ca04b9e3da3ca7cba95b77f569299f5$__90635d536d6a9061060f9086908690600401610fb7565b602060405180830381865af415801561062c573d6000803e3d6000fd5b505050506040513d601f19601f820116820180604052508101906106509190610ef2565b9392505050565b604051634c5eac8760e01b81526000906001600160a01b037f00000000000000000000000000000000000000000000000000000000000000001690634c5eac87906106ae9089908990899089908990600401610fd9565b6020604051808303816000875af11580156106cd573d6000803e3d6000fd5b505050506040513d601f19601f820116820180604052508101906106f19190610f6c565b9695505050505050565b600073__$a603c36e8140f8f0796c2626c9f8eff514$__638da5cb5b6040518163ffffffff1660e01b8152600401602060405180830381865af4158015610746573d6000803e3d6000fd5b505050506040513d601f19601f8201168201806040525081019061076a9190610f6c565b905090565b604051632474521560e21b8152600481018390526001600160a01b038216602482015260009073__$a603c36e8140f8f0796c2626c9f8eff514$__906391d148549060440161060f565b336001600160a01b031673__$a603c36e8140f8f0796c2626c9f8eff514$__638da5cb5b6040518163ffffffff1660e01b8152600401602060405180830381865af415801561080c573d6000803e3d6000fd5b505050506040513d601f19601f820116820180604052508101906108309190610f6c565b6001600160a01b0316146108565760405162461bcd60e51b815260040161055390610f89565b6040516313af403560e01b81526001600160a01b038216600482015273__$a603c36e8140f8f0796c2626c9f8eff514$__906313af40359060240160006040518083038186803b1580156108a957600080fd5b505af41580156108bd573d6000803e3d6000fd5b5050505050565b336001600160a01b031673__$a603c36e8140f8f0796c2626c9f8eff514$__638da5cb5b6040518163ffffffff1660e01b8152600401602060405180830381865af4158015610917573d6000803e3d6000fd5b505050506040513d601f19601f8201168201806040525081019061093b9190610f6c565b6001600160a01b0316146109615760405162461bcd60e51b815260040161055390610f89565b60405163d547741f60e01b8152600481018390526001600160a01b038216602482015273__$a603c36e8140f8f0796c2626c9f8eff514$__9063d547741f9060440161059f565b604051632474521560e21b81527f749410edf1177aefa27612b24d2d51e6441f89613f5ddf9be1d11dfc0d3e4fea60048201526001600160a01b038216602482015260009073__$a603c36e8140f8f0796c2626c9f8eff514$__906391d1485490604401602060405180830381865af4158015610a29573d6000803e3d6000fd5b505050506040513d601f19601f82011682018060405250810190610a4d9190610ef2565b80610af55750604051632474521560e21b81527f2172861495e7b85edac73e3cd5fbb42dd675baadf627720e687bcfdaca02509660048201526001600160a01b038316602482015273__$a603c36e8140f8f0796c2626c9f8eff514$__906391d1485490604401602060405180830381865af4158015610ad1573d6000803e3d6000fd5b505050506040513d601f19601f82011682018060405250810190610af59190610ef2565b806104355750816001600160a01b031673__$a603c36e8140f8f0796c2626c9f8eff514$__638da5cb5b6040518163ffffffff1660e01b8152600401602060405180830381865af4158015610b4e573d6000803e3d6000fd5b505050506040513d601f19601f82011682018060405250810190610b729190610f6c565b6001600160a01b03161492915050565b6001600160a01b0381168114610b9757600080fd5b50565b600060208284031215610bac57600080fd5b813561065081610b82565b634e487b7160e01b600052604160045260246000fd5b604051601f8201601f1916810167ffffffffffffffff81118282101715610bf657610bf6610bb7565b604052919050565b600067ffffffffffffffff821115610c1857610c18610bb7565b50601f01601f191660200190565b600082601f830112610c3757600080fd5b8135610c4a610c4582610bfe565b610bcd565b818152846020838601011115610c5f57600080fd5b816020850160208301376000918101602001919091529392505050565b600060208284031215610c8e57600080fd5b813567ffffffffffffffff811115610ca557600080fd5b61038884828501610c26565b60008060408385031215610cc457600080fd5b823591506020830135610cd681610b82565b809150509250929050565b60008060408385031215610cf457600080fd5b823567ffffffffffffffff811115610d0b57600080fd5b610d1785828601610c26565b95602094909401359450505050565b60008083601f840112610d3857600080fd5b50813567ffffffffffffffff811115610d5057600080fd5b602083019150836020828501011115610d6857600080fd5b9250929050565b600080600080600060608688031215610d8757600080fd5b8535610d9281610b82565b9450602086013567ffffffffffffffff80821115610daf57600080fd5b610dbb89838a01610d26565b90965094506040880135915080821115610dd457600080fd5b50610de188828901610d26565b969995985093965092949392505050565b81835281816020850137506000828201602090810191909152601f909101601f19169091010190565b63ffffffff60e01b85168152606060208201526000610e3e606083018587610df2565b905060018060a01b038316604083015295945050505050565b60005b83811015610e72578181015183820152602001610e5a565b50506000910152565b600060208284031215610e8d57600080fd5b815167ffffffffffffffff811115610ea457600080fd5b8201601f81018413610eb557600080fd5b8051610ec3610c4582610bfe565b818152856020838501011115610ed857600080fd5b610ee9826020830160208601610e57565b95945050505050565b600060208284031215610f0457600080fd5b8151801515811461065057600080fd5b60008151808452610f2c816020860160208601610e57565b601f01601f19169290920160200192915050565b6020815260006106506020830184610f14565b600060208284031215610f6557600080fd5b5051919050565b600060208284031215610f7e57600080fd5b815161065081610b82565b60208082526014908201527321b7b932a9b432b6361d103737ba1037bbb732b960611b604082015260600190565b604081526000610fca6040830185610f14565b90508260208301529392505050565b6001600160a01b0386168152606060208201819052600090610ffe9083018688610df2565b8281036040840152611011818587610df2565b9897505050505050505056fea26469706673582212204e7fa493d2a2f1e9e2a8fa742ead81960660399c4e236a1d67bb12ff2f81819964736f6c634300081800332172861495e7b85edac73e3cd5fbb42dd675baadf627720e687bcfdaca025096",
  "linkReferences": {
    "contracts/core/LibAccess.sol": {
      "LibAccess": [
        {
          "length": 20,
          "start": 3699
        },
        {
          "length": 20,
          "start": 3934
        },
        {
          "length": 20,
          "start": 4125
        },
        {
          "length": 20,
          "start": 4507
        },
        {
          "length": 20,
          "start": 4659
        },
        {
          "length": 20,
          "start": 4705
        },
        {
          "length": 20,
          "start": 4880
        },
        {
          "length": 20,
          "start": 4972
        },
        {
          "length": 20,
          "start": 5154
        },
        {
          "length": 20,
          "start": 5259
        },
        {
          "length": 20,
          "start": 5427
        },
        {
          "length": 20,
          "start": 5539
        }
      ]
    },
    "contracts/core/LibExtensions.sol": {
      "LibExtensions": [
        {
          "length": 20,
          "start": 619
        },
        {
          "length": 20,
          "start": 3473
        },
        {
          "length": 20,
          "start": 3817
        },
        {
          "length": 20,
          "start": 4225
        }
      ]
    }
  },
  "deployedLinkReferences": {
    "contracts/core/LibAccess.sol": {
      "LibAccess": [
        {
          "length": 20,
          "start": 983
        },
        {
          "length": 20,
          "start": 1218
        },
        {
          "length": 20,
          "start": 1409
        },
        {
          "length": 20,
          "start": 1791
        },
        {
          "length": 20,
          "start": 1943
        },
        {
          "length": 20,
          "start": 1989
        },
        {
          "length": 20,
          "start": 2164
        },
        {
          "length": 20,
          "start": 2256
        },
        {
          "length": 20,
          "start": 2438
        },
        {
          "length": 20,
          "start": 2543
        },
        {
          "length": 20,
          "start": 2711
        },
        {
          "length": 20,
          "start": 2823
        }
      ]
    },
    "contracts/core/LibExtensions.sol": {
      "LibExtensions": [
        {
          "length": 20,
          "start": 757
        },
        {
          "length": 20,
          "start": 1101
        },
        {
          "length": 20,
          "start": 1509
        }
      ]
    }
  }
}