{
  "_format": "hh-sol-artifact-1",
  "contractName": "RegistrarRegistry",
  "sourceName": "contracts/registrar/registry/RegistrarRegistry.sol",
  "abi": [
    {
      "inputs": [
        {
          "components": [
            {
              "internalType": "address",
              "name": "owner",
              "type": "address"
            },
            {
              "internalType": "address",
              "name": "extensionsRegistry",
              "type": "address"
            },
            {
              "internalType": "address[]",
              "name": "admins",
              "type": "address[]"
            }
          ],
          "internalType": "struct RegistrarRegistryConstructorArgs",
          "name": "args",
          "type": "tuple"
        }
      ],
      "stateMutability": "nonpayable",
      "type": "constructor"
    },
    {
      "anonymous": false,
      "inputs": [
        {
          "indexed": false,
          "internalType": "string",
          "name": "name",
          "type": "string"
        }
      ],
      "name": "ExtensionDisabled",
      "type": "event"
    },
    {
      "anonymous": false,
      "inputs": [
        {
          "indexed": false,
          "internalType": "string",
          "name": "name",
          "type": "string"
        }
      ],
      "name": "ExtensionEnabled",
      "type": "event"
    },
    {
      "anonymous": false,
      "inputs": [
        {
          "indexed": false,
          "internalType": "string",
          "name": "name",
          "type": "string"
        },
        {
          "components": [
            {
              "internalType": "uint16",
              "name": "major",
              "type": "uint16"
            },
            {
              "internalType": "uint16",
              "name": "minor",
              "type": "uint16"
            }
          ],
          "indexed": false,
          "internalType": "struct Version",
          "name": "version",
          "type": "tuple"
        }
      ],
      "name": "ExtensionInstalled",
      "type": "event"
    },
    {
      "anonymous": false,
      "inputs": [
        {
          "indexed": false,
          "internalType": "string",
          "name": "name",
          "type": "string"
        },
        {
          "components": [
            {
              "internalType": "uint16",
              "name": "major",
              "type": "uint16"
            },
            {
              "internalType": "uint16",
              "name": "minor",
              "type": "uint16"
            }
          ],
          "indexed": false,
          "internalType": "struct Version",
          "name": "version",
          "type": "tuple"
        }
      ],
      "name": "ExtensionRolledBack",
      "type": "event"
    },
    {
      "anonymous": false,
      "inputs": [
        {
          "indexed": false,
          "internalType": "string",
          "name": "name",
          "type": "string"
        },
        {
          "components": [
            {
              "internalType": "uint16",
              "name": "major",
              "type": "uint16"
            },
            {
              "internalType": "uint16",
              "name": "minor",
              "type": "uint16"
            }
          ],
          "indexed": false,
          "internalType": "struct Version",
          "name": "version",
          "type": "tuple"
        }
      ],
      "name": "ExtensionUpgraded",
      "type": "event"
    },
    {
      "anonymous": false,
      "inputs": [
        {
          "indexed": false,
          "internalType": "bytes4",
          "name": "selector",
          "type": "bytes4"
        }
      ],
      "name": "SelectorDisabled",
      "type": "event"
    },
    {
      "anonymous": false,
      "inputs": [
        {
          "indexed": false,
          "internalType": "bytes4",
          "name": "selector",
          "type": "bytes4"
        }
      ],
      "name": "SelectorEnabled",
      "type": "event"
    },
    {
      "stateMutability": "payable",
      "type": "fallback"
    },
    {
      "inputs": [],
      "name": "extRegistry",
      "outputs": [
        {
          "internalType": "contract ICoreExtensionRegistry",
          "name": "",
          "type": "address"
        }
      ],
      "stateMutability": "view",
      "type": "function"
    },
    {
      "inputs": [
        {
          "internalType": "string",
          "name": "name",
          "type": "string"
        }
      ],
      "name": "getExtensionVersion",
      "outputs": [
        {
          "components": [
            {
              "internalType": "uint16",
              "name": "major",
              "type": "uint16"
            },
            {
              "internalType": "uint16",
              "name": "minor",
              "type": "uint16"
            }
          ],
          "internalType": "struct Version",
          "name": "",
          "type": "tuple"
        }
      ],
      "stateMutability": "view",
      "type": "function"
    },
    {
      "inputs": [
        {
          "internalType": "string",
          "name": "name",
          "type": "string"
        },
        {
          "components": [
            {
              "internalType": "uint16",
              "name": "major",
              "type": "uint16"
            },
            {
              "internalType": "uint16",
              "name": "minor",
              "type": "uint16"
            }
          ],
          "internalType": "struct Version",
          "name": "version",
          "type": "tuple"
        }
      ],
      "name": "hasExtension",
      "outputs": [
        {
          "internalType": "bool",
          "name": "",
          "type": "bool"
        }
      ],
      "stateMutability": "view",
      "type": "function"
    },
    {
      "inputs": [],
      "name": "isStillActive",
      "outputs": [
        {
          "internalType": "bool",
          "name": "",
          "type": "bool"
        }
      ],
      "stateMutability": "pure",
      "type": "function"
    },
    {
      "inputs": [
        {
          "internalType": "address",
          "name": "a",
          "type": "address"
        }
      ],
      "name": "isTermsOwnerSigner",
      "outputs": [
        {
          "internalType": "bool",
          "name": "",
          "type": "bool"
        }
      ],
      "stateMutability": "view",
      "type": "function"
    },
    {
      "inputs": [
        {
          "internalType": "uint256",
          "name": "amount",
          "type": "uint256"
        }
      ],
      "name": "withdraw",
      "outputs": [],
      "stateMutability": "nonpayable",
      "type": "function"
    },
    {
      "stateMutability": "payable",
      "type": "receive"
    }
  ],
  "bytecode": "0x60a06040523480156200001157600080fd5b5060405162001cd238038062001cd2833981016040819052620000349162000ba3565b60208101516001600160a01b038116620000bb5760405162461bcd60e51b815260206004820152603560248201527f42617369635368656c6c3a20657874656e73696f6e207265676973747279206360448201527f616e6e6f74206265207a65726f2061646472657373000000000000000000000060648201526084015b60405180910390fd5b6001600160a01b031660805260408051600480825260a08201909252600091816020015b6060815260200190600190039081620000df579050509050604051806040016040528060098152602001681058d8d95cdcd15e1d60ba1b815250816000815181106200012f576200012f62000cb3565b60200260200101819052506040518060400160405280600a815260200169119858dd1bdc9e515e1d60b21b8152508160018151811062000173576200017362000cb3565b60200260200101819052506040518060400160405280601881526020017f526567697374726172526567697374726174696f6e457874000000000000000081525081600281518110620001ca57620001ca62000cb3565b60200260200101819052506040518060400160405280601981526020017f526567697374726172456e7469747952656d6f76616c457874000000000000008152508160038151811062000221576200022162000cb3565b60200260200101819052506000604051806060016040528084600001516001600160a01b03168152602001846040015181526020018381525090506200026d816200027660201b60201c565b5050506200113a565b60005b816040015151811015620003d65781604001518181518110620002a057620002a062000cb3565b60200260200101515160000315620003cd5760006080516001600160a01b031663c22707ee84604001518481518110620002de57620002de62000cb3565b60200260200101516040518263ffffffff1660e01b815260040162000304919062000d1d565b602060405180830381865afa15801562000322573d6000803e3d6000fd5b505050506040513d601f19601f8201168201806040525081019062000348919062000d39565b905060008360400151838151811062000365576200036562000cb3565b60200260200101516040516020016200037f919062000d57565b60408051601f198184030181529190529050806001600160a01b038316620003bc5760405162461bcd60e51b8152600401620000b2919062000d1d565b5081620003c9816200044a565b5050505b60010162000279565b508051602082015160405163d9ac971f60e01b815273__$a5a42e46683ad9c79b7b86d5ff60fdf4c1$__9263d9ac971f92620004159260040162000da8565b60006040518083038186803b1580156200042e57600080fd5b505af415801562000443573d6000803e3d6000fd5b5050505050565b600062000456620007f0565b90506040518060800160405280600115158152602001836001600160a01b031663392f37e96040518163ffffffff1660e01b8152600401600060405180830381865afa158015620004ab573d6000803e3d6000fd5b505050506040513d6000823e601f3d908101601f19168201604052620004d5919081019062000e5e565b81526001600160a01b0384166020820152604001600060405190808252806020026020018201604052801562000515578160200160208202803683370190505b5090526001600160a01b0383166000908152602083815260409091208251815460ff19169015151781559082015180516001830190819062000558908262000fd1565b506020918201518051600190920180549184015161ffff908116620100000263ffffffff1990931693169290921717905560408301516003830180546001600160a01b039092166001600160a01b031990921691909117905560608301518051620005ca926004850192019062000a2d565b50505060038101805460018101825560009182526020918290200180546001600160a01b0319166001600160a01b038516908117909155604080516024808201939093528151808203909301835260440190529081018051632a1b8f9b60e01b6001600160e01b03918216179091526200064990849083906200088916565b506000836001600160a01b031663392f37e96040518163ffffffff1660e01b8152600401600060405180830381865afa1580156200068b573d6000803e3d6000fd5b505050506040513d6000823e601f3d908101601f19168201604052620006b5919081019062000e5e565b8051909150600090620006c89062000960565b905060006001600160a01b03168460020182604051620006e991906200109d565b908152604051908190036020019020546001600160a01b031614620007635760405162461bcd60e51b815260206004820152602960248201527f4c6962457874656e73696f6e3a20657874656e73696f6e20616c7265616479206044820152681a5b9cdd185b1b195960ba1b6064820152608401620000b2565b8484600201826040516200077891906200109d565b908152602001604051809103902060006101000a8154816001600160a01b0302191690836001600160a01b031602179055507ffe9a3a52d7e1a3740350821816e344a482f9611bc09285fa4132de9645b41bae818360200151604051620007e1929190620010bb565b60405180910390a15050505050565b60408051808201909152601881527f78722e657874656e73696f6e732e73746f726167652e7631000000000000000060209091015260008060ff6200085760017fb58ec9ca7ba0606d9fecd9f559655d0e5fec418e6751b65b892bccdfd25eb99f62001108565b6040516020016200086a91815260200190565b60408051601f1981840301815291905280516020909101201692915050565b6060600080846001600160a01b031684604051620008a891906200109d565b600060405180830381855af49150503d8060008114620008e5576040519150601f19603f3d011682016040523d82523d6000602084013e620008ea565b606091505b50915091508115620009005791506200095a9050565b805115620009115780518082602001fd5b60405162461bcd60e51b815260206004820152601660248201527f46756e6374696f6e2063616c6c207265766572746564000000000000000000006044820152606401620000b2565b92915050565b60608160005b8151811015620009d3576200099e82828151811062000989576200098962000cb3565b01602001516001600160f81b031916620009da565b828281518110620009b357620009b362000cb3565b60200101906001600160f81b031916908160001a90535060010162000966565b5092915050565b6000604160f81b6001600160f81b031983161080159062000a095750602d60f91b6001600160f81b0319831611155b1562000a295762000a2060f883901c60206200111e565b60f81b92915050565b5090565b8280548282559060005260206000209060070160089004810192821562000ace5791602002820160005b8382111562000a9a57835183826101000a81548163ffffffff021916908360e01c0217905550926020019260040160208160030104928301926001030262000a57565b801562000acc5782816101000a81549063ffffffff021916905560040160208160030104928301926001030262000a9a565b505b5062000a299291505b8082111562000a29576000815560010162000ad7565b634e487b7160e01b600052604160045260246000fd5b604051606081016001600160401b038111828210171562000b285762000b2862000aed565b60405290565b604080519081016001600160401b038111828210171562000b285762000b2862000aed565b604051601f8201601f191681016001600160401b038111828210171562000b7e5762000b7e62000aed565b604052919050565b80516001600160a01b038116811462000b9e57600080fd5b919050565b6000602080838503121562000bb757600080fd5b82516001600160401b038082111562000bcf57600080fd5b908401906060828703121562000be457600080fd5b62000bee62000b03565b62000bf98362000b86565b815262000c0884840162000b86565b8482015260408301518281111562000c1f57600080fd5b80840193505086601f84011262000c3557600080fd5b82518281111562000c4a5762000c4a62000aed565b8060051b925062000c5d85840162000b53565b818152928401850192858101908985111562000c7857600080fd5b948601945b8486101562000ca15762000c918662000b86565b8252948601949086019062000c7d565b60408401525090979650505050505050565b634e487b7160e01b600052603260045260246000fd5b60005b8381101562000ce657818101518382015260200162000ccc565b50506000910152565b6000815180845262000d0981602086016020860162000cc9565b601f01601f19169290920160200192915050565b60208152600062000d32602083018462000cef565b9392505050565b60006020828403121562000d4c57600080fd5b62000d328262000b86565b7f42617369635368656c6c3a20657874656e73696f6e206e6f7420666f756e643a8152600160fd1b60208201526000825162000d9b81602185016020870162000cc9565b9190910160210192915050565b6001600160a01b038381168252604060208084018290528451918401829052600092858201929091906060860190855b8181101562000df857855185168352948301949183019160010162000dd8565b509098975050505050505050565b805161ffff8116811462000b9e57600080fd5b60006040828403121562000e2c57600080fd5b62000e3662000b2e565b905062000e438262000e06565b815262000e536020830162000e06565b602082015292915050565b6000602080838503121562000e7257600080fd5b82516001600160401b038082111562000e8a57600080fd5b908401906060828703121562000e9f57600080fd5b62000ea962000b2e565b82518281111562000eb957600080fd5b8301601f8101881362000ecb57600080fd5b80518381111562000ee05762000ee062000aed565b62000ef4601f8201601f1916870162000b53565b9350808452888682840101111562000f0b57600080fd5b62000f1c8187860188850162000cc9565b505081815262000f2f8785850162000e19565b848201528094505050505092915050565b600181811c9082168062000f5557607f821691505b60208210810362000f7657634e487b7160e01b600052602260045260246000fd5b50919050565b601f82111562000fcc576000816000526020600020601f850160051c8101602086101562000fa75750805b601f850160051c820191505b8181101562000fc85782815560010162000fb3565b5050505b505050565b81516001600160401b0381111562000fed5762000fed62000aed565b620010058162000ffe845462000f40565b8462000f7c565b602080601f8311600181146200103d5760008415620010245750858301515b600019600386901b1c1916600185901b17855562000fc8565b600085815260208120601f198616915b828110156200106e578886015182559484019460019091019084016200104d565b50858210156200108d5787850151600019600388901b60f8161c191681555b5050505050600190811b01905550565b60008251620010b181846020870162000cc9565b9190910192915050565b606081526000620010d0606083018562000cef565b905061ffff808451166020840152806020850151166040840152509392505050565b634e487b7160e01b600052601160045260246000fd5b818103818111156200095a576200095a620010f2565b60ff81811683821601908111156200095a576200095a620010f2565b608051610b7c6200115660003960006101670152610b7c6000f3fe6080604052600436106100595760003560e01c80630a7ee8a014610088578063238a0386146100bd5780632e1a7d4d146100ff57806347d1d09a146101215780634f05c1c8146101415780638a8547711461015557610060565b3661006057005b600080356001600160e01b0319169050600061007e826000366101a1565b9050805160208201f35b34801561009457600080fd5b506100a86100a3366004610844565b6101b6565b60405190151581526020015b60405180910390f35b3480156100c957600080fd5b506100dd6100d8366004610904565b61023b565b60408051825161ffff90811682526020938401511692810192909252016100b4565b34801561010b57600080fd5b5061011f61011a366004610939565b6102c4565b005b34801561012d57600080fd5b506100a861013c366004610952565b610481565b34801561014d57600080fd5b5060016100a8565b34801561016157600080fd5b506101897f000000000000000000000000000000000000000000000000000000000000000081565b6040516001600160a01b0390911681526020016100b4565b60606101ae848484610505565b949350505050565b604051637df73e2760e01b81526001600160a01b038216600482015260009073__$a5a42e46683ad9c79b7b86d5ff60fdf4c1$__90637df73e2790602401602060405180830381865af4158015610211573d6000803e3d6000fd5b505050506040513d601f19601f8201168201806040525081019061023591906109ac565b92915050565b6040805180820182526000808252602082015290516311c501c360e11b815273__$307c3a572bdf5d9800a89b3fc2eb3d5604$__9063238a038690610284908590600401610a1e565b6040805180830381865af41580156102a0573d6000803e3d6000fd5b505050506040513d601f19601f820116820180604052508101906102359190610a41565b604051630935e01b60e21b815233600482015273__$a5a42e46683ad9c79b7b86d5ff60fdf4c1$__906324d7806c90602401602060405180830381865af4158015610313573d6000803e3d6000fd5b505050506040513d601f19601f8201168201806040525081019061033791906109ac565b6103885760405162461bcd60e51b815260206004820181905260248201527f42617369635368656c6c3a207265737472696374656420746f2061646d696e7360448201526064015b60405180910390fd5b478111156103d85760405162461bcd60e51b815260206004820181905260248201527f42617369635368656c6c3a20696e73756666696369656e742062616c616e6365604482015260640161037f565b73__$a5a42e46683ad9c79b7b86d5ff60fdf4c1$__638da5cb5b6040518163ffffffff1660e01b8152600401602060405180830381865af4158015610421573d6000803e3d6000fd5b505050506040513d601f19601f820116820180604052508101906104459190610aa0565b6001600160a01b03166108fc829081150290604051600060405180830381858888f1935050505015801561047d573d6000803e3d6000fd5b5050565b6040516329925a7160e11b815260009073__$307c3a572bdf5d9800a89b3fc2eb3d5604$__90635324b4e2906104bd9086908690600401610abd565b602060405180830381865af41580156104da573d6000803e3d6000fd5b505050506040513d601f19601f820116820180604052508101906104fe91906109ac565b9392505050565b606060006105116106d4565b6001600160e01b031986166000908152600182016020526040902080549192509061010090046001600160a01b03166105a45760405162461bcd60e51b815260206004820152602f60248201527f4c6962457874656e73696f6e3a206e6f20657874656e73696f6e20737570706f60448201526e393a399033371039b2b632b1ba37b960891b606482015260840161037f565b805460ff166106005760405162461bcd60e51b815260206004820152602260248201527f4c6962457874656e73696f6e3a2073656c6563746f72206e6f7420656e61626c604482015261195960f21b606482015260840161037f565b805461010090046001600160a01b03166000908152602083905260409020805460ff1661067b5760405162461bcd60e51b815260206004820152602360248201527f4c6962457874656e73696f6e3a20657874656e73696f6e206e6f7420656e61626044820152621b195960ea1b606482015260840161037f565b8154604080516020601f89018190048102820181019092528781526106c99261010090046001600160a01b031691899089908190840183828082843760009201919091525061076a92505050565b979650505050505050565b60408051808201909152601881527f78722e657874656e73696f6e732e73746f726167652e7631000000000000000060209091015260008060ff61073960017fb58ec9ca7ba0606d9fecd9f559655d0e5fec418e6751b65b892bccdfd25eb99f610b09565b60405160200161074b91815260200190565b60408051601f1981840301815291905280516020909101201692915050565b6060600080846001600160a01b0316846040516107879190610b2a565b600060405180830381855af49150503d80600081146107c2576040519150601f19603f3d011682016040523d82523d6000602084013e6107c7565b606091505b509150915081156107db5791506102359050565b8051156107eb5780518082602001fd5b60405162461bcd60e51b8152602060048201526016602482015275119d5b98dd1a5bdb8818d85b1b081c995d995c9d195960521b604482015260640161037f565b6001600160a01b038116811461084157600080fd5b50565b60006020828403121561085657600080fd5b81356104fe8161082c565b634e487b7160e01b600052604160045260246000fd5b600082601f83011261088857600080fd5b813567ffffffffffffffff808211156108a3576108a3610861565b604051601f8301601f19908116603f011681019082821181831017156108cb576108cb610861565b816040528381528660208588010111156108e457600080fd5b836020870160208301376000602085830101528094505050505092915050565b60006020828403121561091657600080fd5b813567ffffffffffffffff81111561092d57600080fd5b6101ae84828501610877565b60006020828403121561094b57600080fd5b5035919050565b600080828403606081121561096657600080fd5b833567ffffffffffffffff81111561097d57600080fd5b61098986828701610877565b9350506040601f198201121561099e57600080fd5b506020830190509250929050565b6000602082840312156109be57600080fd5b815180151581146104fe57600080fd5b60005b838110156109e95781810151838201526020016109d1565b50506000910152565b60008151808452610a0a8160208601602086016109ce565b601f01601f19169290920160200192915050565b6020815260006104fe60208301846109f2565b61ffff8116811461084157600080fd5b600060408284031215610a5357600080fd5b6040516040810181811067ffffffffffffffff82111715610a7657610a76610861565b6040528251610a8481610a31565b81526020830151610a9481610a31565b60208201529392505050565b600060208284031215610ab257600080fd5b81516104fe8161082c565b606081526000610ad060608301856109f2565b90508235610add81610a31565b61ffff808216602085015260208501359150610af882610a31565b808216604085015250509392505050565b8181038181111561023557634e487b7160e01b600052601160045260246000fd5b60008251610b3c8184602087016109ce565b919091019291505056fea26469706673582212200c521d4135ceaf982a3d6a96ee40e11cf0d950f4196b1a6a30265505fd2c7fd564736f6c63430008180033",
  "linkReferences": {
    "contracts/libraries/LibAccess.sol": {
      "LibAccess": [
        {
          "length": 20,
          "start": 1005
        },
        {
          "length": 20,
          "start": 4909
        },
        {
          "length": 20,
          "start": 5167
        },
        {
          "length": 20,
          "start": 5424
        }
      ]
    },
    "contracts/libraries/LibExtensions.sol": {
      "LibExtensions": [
        {
          "length": 20,
          "start": 5042
        },
        {
          "length": 20,
          "start": 5609
        }
      ]
    }
  },
  "deployedLinkReferences": {
    "contracts/libraries/LibAccess.sol": {
      "LibAccess": [
        {
          "length": 20,
          "start": 471
        },
        {
          "length": 20,
          "start": 729
        },
        {
          "length": 20,
          "start": 986
        }
      ]
    },
    "contracts/libraries/LibExtensions.sol": {
      "LibExtensions": [
        {
          "length": 20,
          "start": 604
        },
        {
          "length": 20,
          "start": 1171
        }
      ]
    }
  }
}