{
  "_format": "hh-sol-artifact-1",
  "contractName": "RegistrarProxy",
  "sourceName": "contracts/registrar/instance/RegistrarProxy.sol",
  "abi": [
    {
      "inputs": [
        {
          "internalType": "address",
          "name": "f",
          "type": "address"
        }
      ],
      "stateMutability": "nonpayable",
      "type": "constructor"
    },
    {
      "anonymous": false,
      "inputs": [
        {
          "indexed": true,
          "internalType": "address",
          "name": "newImpl",
          "type": "address"
        },
        {
          "indexed": false,
          "internalType": "uint256",
          "name": "version",
          "type": "uint256"
        }
      ],
      "name": "EntityImplementationChanged",
      "type": "event"
    },
    {
      "stateMutability": "nonpayable",
      "type": "fallback"
    },
    {
      "inputs": [],
      "name": "factory",
      "outputs": [
        {
          "internalType": "address",
          "name": "",
          "type": "address"
        }
      ],
      "stateMutability": "view",
      "type": "function"
    },
    {
      "inputs": [],
      "name": "implementationVersion",
      "outputs": [
        {
          "internalType": "uint256",
          "name": "",
          "type": "uint256"
        }
      ],
      "stateMutability": "view",
      "type": "function"
    },
    {
      "inputs": [],
      "name": "isAutomaticUpgrade",
      "outputs": [
        {
          "internalType": "bool",
          "name": "",
          "type": "bool"
        }
      ],
      "stateMutability": "view",
      "type": "function"
    },
    {
      "inputs": [
        {
          "internalType": "bool",
          "name": "_alwaysUseLatest",
          "type": "bool"
        }
      ],
      "name": "setAutomaticUpgrade",
      "outputs": [],
      "stateMutability": "nonpayable",
      "type": "function"
    },
    {
      "inputs": [
        {
          "internalType": "address",
          "name": "_newImplementation",
          "type": "address"
        },
        {
          "internalType": "uint256",
          "name": "version",
          "type": "uint256"
        }
      ],
      "name": "setImplementation",
      "outputs": [],
      "stateMutability": "nonpayable",
      "type": "function"
    },
    {
      "stateMutability": "payable",
      "type": "receive"
    }
  ],
  "bytecode": "0x60a060405234801561001057600080fd5b5060405161082c38038061082c83398101604081905261002f916100ad565b806001600160a01b03811661009b5760405162461bcd60e51b815260206004820152602860248201527f456e7469747950726f78793a20666163746f727920697320746865207a65726f604482015267206164647265737360c01b606482015260840160405180910390fd5b6001600160a01b0316608052506100dd565b6000602082840312156100bf57600080fd5b81516001600160a01b03811681146100d657600080fd5b9392505050565b60805161072d6100ff600039600081816101340152610413015261072d6000f3fe60806040526004361061004e5760003560e01c806306bfcec61461009557806316aa8b94146100bd5780633033a4e5146100dd5780634e0e0902146100fd578063c45a01551461012257610055565b3661005557005b34801561006157600080fd5b50600061006c61016e565b905060405136600082376000803683855af43d806000843e81801561008f578184f35b8184fd5b005b3480156100a157600080fd5b506100aa6102f0565b6040519081526020015b60405180910390f35b3480156100c957600080fd5b506100936100d8366004610618565b610303565b3480156100e957600080fd5b506100936100f8366004610651565b610408565b34801561010957600080fd5b50610112610568565b60405190151581526020016100b4565b34801561012e57600080fd5b506101567f000000000000000000000000000000000000000000000000000000000000000081565b6040516001600160a01b0390911681526020016100b4565b60008061017961057b565b805490915060ff16156102dc57600181015460408051630342096960e61b815290516000926001600160a01b03169163d0825a409160048083019260209291908290030181865afa1580156101d2573d6000803e3d6000fd5b505050506040513d601f19601f820116820180604052508101906101f6919061067d565b905081600201548111156102da576002820181905560018201546040805163557887a160e11b815290516001600160a01b039092169163aaf10f42916004808201926020929091908290030181865afa158015610257573d6000803e3d6000fd5b505050506040513d601f19601f8201168201806040525081019061027b9190610696565b8254610100600160a81b0319166101006001600160a01b03928316810291909117808555604051848152919004909116907f1c2cc073b66ff5df19a3b92579fd160cbee443bc44e4e5dbbb0436590211f5919060200160405180910390a25b505b5461010090046001600160a01b0316919050565b60006102fa61057b565b60020154905090565b604051632474521560e21b81527f2172861495e7b85edac73e3cd5fbb42dd675baadf627720e687bcfdaca025096600482015233602482015273__$a603c36e8140f8f0796c2626c9f8eff514$__906391d1485490604401602060405180830381865af4158015610378573d6000803e3d6000fd5b505050506040513d601f19601f8201168201806040525081019061039c91906106b3565b6103ed5760405162461bcd60e51b815260206004820152601f60248201527f456e7469747950726f78793a206f6e6c792061646d696e20616c6c6f7765640060448201526064015b60405180910390fd5b806103f661057b565b805460ff191691151591909117905550565b336001600160a01b037f0000000000000000000000000000000000000000000000000000000000000000161461048a5760405162461bcd60e51b815260206004820152602160248201527f456e7469747950726f78793a206f6e6c7920666163746f727920616c6c6f77656044820152601960fa1b60648201526084016103e4565b6001600160a01b0382166104f85760405162461bcd60e51b815260206004820152602f60248201527f456e7469747950726f78793a20696d706c656d656e746174696f6e206973207460448201526e6865207a65726f206164647265737360881b60648201526084016103e4565b600061050261057b565b8054610100600160a81b0319166101006001600160a01b03861690810291909117825560028201849055604051848152919250907f1c2cc073b66ff5df19a3b92579fd160cbee443bc44e4e5dbbb0436590211f5919060200160405180910390a2505050565b600061057261057b565b5460ff16919050565b60408051808201909152601381527278722e70726f78792e76312e73746f7261676560681b60209091015260008060ff6105d660017f1dbcceada6efd4fc6a8a9c1d6654efd9ec0075b8d6a0d8e47abcc36858f688d86106d0565b6040516020016105e891815260200190565b60408051601f1981840301815291905280516020909101201692915050565b801515811461061557600080fd5b50565b60006020828403121561062a57600080fd5b813561063581610607565b9392505050565b6001600160a01b038116811461061557600080fd5b6000806040838503121561066457600080fd5b823561066f8161063c565b946020939093013593505050565b60006020828403121561068f57600080fd5b5051919050565b6000602082840312156106a857600080fd5b81516106358161063c565b6000602082840312156106c557600080fd5b815161063581610607565b818103818111156106f157634e487b7160e01b600052601160045260246000fd5b9291505056fea264697066735822122043e44fe8c1257d3b4333beacb090267e14384768fe9ce56d1d9811f20342ace464736f6c63430008180033",
  "linkReferences": {
    "contracts/core/LibAccess.sol": {
      "LibAccess": [
        {
          "length": 20,
          "start": 1085
        }
      ]
    }
  },
  "deployedLinkReferences": {
    "contracts/core/LibAccess.sol": {
      "LibAccess": [
        {
          "length": 20,
          "start": 830
        }
      ]
    }
  }
}