{
  "_format": "hh-sol-artifact-1",
  "contractName": "RegistrarExtMgr",
  "sourceName": "contracts/registrar/instance/RegistrarExtMgr.sol",
  "abi": [
    {
      "inputs": [
        {
          "components": [
            {
              "internalType": "address",
              "name": "owner",
              "type": "address"
            },
            {
              "internalType": "contract ICoreExtensionRegistry",
              "name": "coreExtensionRegistry",
              "type": "address"
            },
            {
              "internalType": "address[]",
              "name": "otherAdmins",
              "type": "address[]"
            }
          ],
          "internalType": "struct BaseExtensionManagerConstructorArgs",
          "name": "args",
          "type": "tuple"
        }
      ],
      "stateMutability": "nonpayable",
      "type": "constructor"
    },
    {
      "anonymous": false,
      "inputs": [
        {
          "indexed": false,
          "internalType": "string",
          "name": "name",
          "type": "string"
        }
      ],
      "name": "ExtensionDisabled",
      "type": "event"
    },
    {
      "anonymous": false,
      "inputs": [
        {
          "indexed": false,
          "internalType": "string",
          "name": "name",
          "type": "string"
        }
      ],
      "name": "ExtensionEnabled",
      "type": "event"
    },
    {
      "anonymous": false,
      "inputs": [
        {
          "indexed": false,
          "internalType": "string",
          "name": "name",
          "type": "string"
        },
        {
          "indexed": false,
          "internalType": "uint256",
          "name": "version",
          "type": "uint256"
        }
      ],
      "name": "ExtensionInstalled",
      "type": "event"
    },
    {
      "anonymous": false,
      "inputs": [
        {
          "indexed": false,
          "internalType": "string",
          "name": "name",
          "type": "string"
        },
        {
          "indexed": false,
          "internalType": "uint256",
          "name": "version",
          "type": "uint256"
        }
      ],
      "name": "ExtensionUpgraded",
      "type": "event"
    },
    {
      "anonymous": false,
      "inputs": [
        {
          "indexed": true,
          "internalType": "address",
          "name": "oldOwner",
          "type": "address"
        },
        {
          "indexed": true,
          "internalType": "address",
          "name": "newOwner",
          "type": "address"
        }
      ],
      "name": "OwnerChanged",
      "type": "event"
    },
    {
      "anonymous": false,
      "inputs": [
        {
          "indexed": true,
          "internalType": "bytes32",
          "name": "role",
          "type": "bytes32"
        },
        {
          "indexed": true,
          "internalType": "address",
          "name": "account",
          "type": "address"
        }
      ],
      "name": "RoleGranted",
      "type": "event"
    },
    {
      "anonymous": false,
      "inputs": [
        {
          "indexed": false,
          "internalType": "bytes4",
          "name": "selector",
          "type": "bytes4"
        }
      ],
      "name": "SelectorDisabled",
      "type": "event"
    },
    {
      "anonymous": false,
      "inputs": [
        {
          "indexed": false,
          "internalType": "bytes4",
          "name": "selector",
          "type": "bytes4"
        }
      ],
      "name": "SelectorEnabled",
      "type": "event"
    },
    {
      "inputs": [],
      "name": "coreExtRegistry",
      "outputs": [
        {
          "internalType": "contract ICoreExtensionRegistry",
          "name": "",
          "type": "address"
        }
      ],
      "stateMutability": "view",
      "type": "function"
    },
    {
      "inputs": [
        {
          "internalType": "string",
          "name": "name",
          "type": "string"
        }
      ],
      "name": "disableExtension",
      "outputs": [],
      "stateMutability": "nonpayable",
      "type": "function"
    },
    {
      "inputs": [
        {
          "internalType": "bytes4",
          "name": "selector",
          "type": "bytes4"
        }
      ],
      "name": "disableSelector",
      "outputs": [],
      "stateMutability": "nonpayable",
      "type": "function"
    },
    {
      "inputs": [
        {
          "internalType": "string",
          "name": "name",
          "type": "string"
        }
      ],
      "name": "enableExtension",
      "outputs": [],
      "stateMutability": "nonpayable",
      "type": "function"
    },
    {
      "inputs": [
        {
          "internalType": "bytes4",
          "name": "selector",
          "type": "bytes4"
        }
      ],
      "name": "enableSelector",
      "outputs": [],
      "stateMutability": "nonpayable",
      "type": "function"
    },
    {
      "inputs": [
        {
          "internalType": "string",
          "name": "name",
          "type": "string"
        }
      ],
      "name": "getExtensionVersion",
      "outputs": [
        {
          "internalType": "uint256",
          "name": "",
          "type": "uint256"
        }
      ],
      "stateMutability": "view",
      "type": "function"
    },
    {
      "inputs": [],
      "name": "getExtensions",
      "outputs": [
        {
          "internalType": "contract IExtension[]",
          "name": "",
          "type": "address[]"
        }
      ],
      "stateMutability": "view",
      "type": "function"
    },
    {
      "inputs": [
        {
          "internalType": "bytes4",
          "name": "selector",
          "type": "bytes4"
        }
      ],
      "name": "getImpl",
      "outputs": [
        {
          "internalType": "address",
          "name": "",
          "type": "address"
        }
      ],
      "stateMutability": "view",
      "type": "function"
    },
    {
      "inputs": [
        {
          "internalType": "bytes4",
          "name": "selector",
          "type": "bytes4"
        }
      ],
      "name": "hasSelector",
      "outputs": [
        {
          "internalType": "bool",
          "name": "",
          "type": "bool"
        }
      ],
      "stateMutability": "view",
      "type": "function"
    },
    {
      "inputs": [
        {
          "internalType": "string",
          "name": "name",
          "type": "string"
        }
      ],
      "name": "upgradeExtension",
      "outputs": [],
      "stateMutability": "nonpayable",
      "type": "function"
    }
  ],
  "bytecode": "0x60a06040523480156200001157600080fd5b506040516200179738038062001797833981016040819052620000349162000841565b805181906001600160a01b0316620000935760405162461bcd60e51b815260206004820152601c60248201527f4f776e65722063616e6e6f74206265207a65726f20616464726573730000000060448201526064015b60405180910390fd5b60208101516001600160a01b0316620001045760405162461bcd60e51b815260206004820152602c60248201527f436f7265457874656e73696f6e52656769737472792063616e6e6f742062652060448201526b7a65726f206164647265737360a01b60648201526084016200008a565b60208101516001600160a01b031660805280516200012290620003e1565b60005b816040015151811015620002015760006001600160a01b0316826040015182815181106200015757620001576200095a565b60200260200101516001600160a01b031603620001b75760405162461bcd60e51b815260206004820152601c60248201527f41646d696e2063616e6e6f74206265207a65726f20616464726573730000000060448201526064016200008a565b620001f86000805160206200177783398151915283604001518381518110620001e457620001e46200095a565b6020026020010151620004b160201b60201c565b60010162000125565b505060408051600580825260c08201909252600091816020015b60608152602001906001900390816200021b5790505090506040518060400160405280601881526020017f78722e656e746974792e4261736963456e746974794578740000000000000000815250816000815181106200027f576200027f6200095a565b60200260200101819052506040518060400160405280601081526020016f1e1c8b98dbdc994b919d5b991cd15e1d60821b81525081600181518110620002c957620002c96200095a565b6020026020010181905250604051806040016040528060128152602001711e1c8b98dbdc994b94da59db995c9cd15e1d60721b815250816002815181106200031557620003156200095a565b60200260200101819052506040518060400160405280601681526020017f78722e656e746974792e52656d6f7661626c6545787400000000000000000000815250816003815181106200036c576200036c6200095a565b60200260200101819052506040518060400160405280601781526020017f78722e656e746974792e5465726d734f776e657245787400000000000000000081525081600481518110620003c357620003c36200095a565b6020908102919091010152620003d9816200058b565b505062000a61565b6000620003ed6200071b565b80546001600160a01b038481166001600160a01b03198316811784557f9f4e1c871d5fdd0aee1cd182666698a4492b24c6832aac230d07b11046af5a8960009081526001808601602081815260408085208686528252808520805460ff1990811686179091556000805160206200177783398151915286529282528085208686529091528084208054909216909217905551949550919092169283917fb532073b38c83145e3e5135377a08bf9aab55bc0fd7c1179cd4fb995d2a5159c91a3505050565b6001600160a01b038116620005205760405162461bcd60e51b815260206004820152602e60248201527f4c69624163636573733a2063616e6e6f74206772616e7420726f6c652077697460448201526d68207a65726f206164647265737360901b60648201526084016200008a565b60006200052c6200071b565b600084815260028201602090815260408083206001600160a01b0387168085529252808320805460ff19166001179055519293509185917f2ae6a113c0ed5b78a53413ffbb7679881f11145ccfba4fb92e863dfcd5a1d2f391a3505050565b60005b8151811015620007175760006080516001600160a01b031663c22707ee848481518110620005c057620005c06200095a565b60200260200101516040518263ffffffff1660e01b8152600401620005e6919062000996565b602060405180830381865afa15801562000604573d6000803e3d6000fd5b505050506040513d601f19601f820116820180604052508101906200062a9190620009cb565b905060008383815181106200064357620006436200095a565b60200260200101516040516020016200065d9190620009f2565b60408051601f198184030181529190529050806001600160a01b0383166200069a5760405162461bcd60e51b81526004016200008a919062000996565b506040516301232c8f60e01b81526001600160a01b038316600482015273__$873ca04b9e3da3ca7cba95b77f569299f5$__906301232c8f9060240160006040518083038186803b158015620006ef57600080fd5b505af415801562000704573d6000803e3d6000fd5b5050600190940193506200058e92505050565b5050565b60408051808201909152601481527f78722e6163636573732e76312e73746f7261676500000000000000000000000060209091015260008060ff6200078260017f635029241f0ffc6f0ed7ed889a32900dcb67a3f08955f2b339ffb28b145bb4ec62000a39565b6040516020016200079591815260200190565b60408051601f1981840301815291905280516020909101201692915050565b634e487b7160e01b600052604160045260246000fd5b604051606081016001600160401b0381118282101715620007ef57620007ef620007b4565b60405290565b604051601f8201601f191681016001600160401b0381118282101715620008205762000820620007b4565b604052919050565b6001600160a01b03811681146200083e57600080fd5b50565b600060208083850312156200085557600080fd5b82516001600160401b03808211156200086d57600080fd5b90840190606082870312156200088257600080fd5b6200088c620007ca565b8251620008998162000828565b815282840151620008aa8162000828565b81850152604083015182811115620008c157600080fd5b80840193505086601f840112620008d757600080fd5b825182811115620008ec57620008ec620007b4565b8060051b9250620008ff858401620007f5565b81815292840185019285810190898511156200091a57600080fd5b948601945b84861015620009485785519250620009378362000828565b82825294860194908601906200091f565b60408401525090979650505050505050565b634e487b7160e01b600052603260045260246000fd5b60005b838110156200098d57818101518382015260200162000973565b50506000910152565b6020815260008251806020840152620009b781604085016020870162000970565b601f01601f19169190910160400192915050565b600060208284031215620009de57600080fd5b8151620009eb8162000828565b9392505050565b7f457874656e73696f6e206e6f7420666f756e643a20000000000000000000000081526000825162000a2c81601585016020870162000970565b9190910160150192915050565b8181038181111562000a5b57634e487b7160e01b600052601160045260246000fd5b92915050565b608051610cf362000a846000396000818161010601526106bc0152610cf36000f3fe608060405234801561001057600080fd5b506004361061009e5760003560e01c806383b7db631161006657806383b7db631461015357806397107e08146101685780639da6ecc01461017b578063d9228e9d1461018e578063eeba9901146101a157600080fd5b8063238a0386146100a357806354516689146100c95780636fcc36cb146100ec57806377e754c2146101015780637be79ac514610140575b600080fd5b6100b66100b1366004610a59565b6101b4565b6040519081526020015b60405180910390f35b6100dc6100d7366004610b0a565b610235565b60405190151581526020016100c0565b6100ff6100fa366004610a59565b610278565b005b6101287f000000000000000000000000000000000000000000000000000000000000000081565b6040516001600160a01b0390911681526020016100c0565b61012861014e366004610b0a565b61038e565b61015b6104b0565b6040516100c09190610b3b565b6100ff610176366004610b0a565b61051b565b6100ff610189366004610a59565b6105ff565b6100ff61019c366004610a59565b6107ef565b6100ff6101af366004610b0a565b6108c9565b6040516311c501c360e11b815260009073__$873ca04b9e3da3ca7cba95b77f569299f5$__9063238a0386906101ee908590600401610bce565b602060405180830381865af415801561020b573d6000803e3d6000fd5b505050506040513d601f19601f8201168201806040525081019061022f9190610be1565b92915050565b6000806102406109ad565b6001600160e01b031993909316600090815260019093016020526040909220546201000090046001600160a01b031690911415919050565b604051632474521560e21b8152600080516020610c9e833981519152600482015233602482015273__$a603c36e8140f8f0796c2626c9f8eff514$__906391d1485490604401602060405180830381865af41580156102db573d6000803e3d6000fd5b505050506040513d601f19601f820116820180604052508101906102ff9190610bfa565b6103245760405162461bcd60e51b815260040161031b90610c1c565b60405180910390fd5b604051636fcc36cb60e01b815273__$873ca04b9e3da3ca7cba95b77f569299f5$__90636fcc36cb9061035b908490600401610bce565b60006040518083038186803b15801561037357600080fd5b505af4158015610387573d6000803e3d6000fd5b5050505050565b604051632474521560e21b8152600080516020610c9e833981519152600482015233602482015260009073__$a603c36e8140f8f0796c2626c9f8eff514$__906391d1485490604401602060405180830381865af41580156103f4573d6000803e3d6000fd5b505050506040513d601f19601f820116820180604052508101906104189190610bfa565b6104345760405162461bcd60e51b815260040161031b90610c1c565b604051620ffb4960ea1b81526001600160e01b03198316600482015273__$873ca04b9e3da3ca7cba95b77f569299f5$__90633fed240090602401602060405180830381865af415801561048c573d6000803e3d6000fd5b505050506040513d601f19601f8201168201806040525081019061022f9190610c53565b60606104ba6109ad565b60030180548060200260200160405190810160405280929190818152602001828054801561051157602002820191906000526020600020905b81546001600160a01b031681526001909101906020018083116104f3575b5050505050905090565b604051632474521560e21b8152600080516020610c9e833981519152600482015233602482015273__$a603c36e8140f8f0796c2626c9f8eff514$__906391d1485490604401602060405180830381865af415801561057e573d6000803e3d6000fd5b505050506040513d601f19601f820116820180604052508101906105a29190610bfa565b6105be5760405162461bcd60e51b815260040161031b90610c1c565b6040516312e20fc160e31b81526001600160e01b03198216600482015273__$873ca04b9e3da3ca7cba95b77f569299f5$__906397107e089060240161035b565b604051632474521560e21b8152600080516020610c9e833981519152600482015233602482015273__$a603c36e8140f8f0796c2626c9f8eff514$__906391d1485490604401602060405180830381865af4158015610662573d6000803e3d6000fd5b505050506040513d601f19601f820116820180604052508101906106869190610bfa565b6106a25760405162461bcd60e51b815260040161031b90610c1c565b60405163611383f760e11b81526000906001600160a01b037f0000000000000000000000000000000000000000000000000000000000000000169063c22707ee906106f1908590600401610bce565b602060405180830381865afa15801561070e573d6000803e3d6000fd5b505050506040513d601f19601f820116820180604052508101906107329190610c53565b90506001600160a01b0381166107805760405162461bcd60e51b8152602060048201526013602482015272115e1d195b9cda5bdb881b9bdd08199bdd5b99606a1b604482015260640161031b565b604051634c6f7da360e01b81526001600160a01b038216600482015273__$873ca04b9e3da3ca7cba95b77f569299f5$__90634c6f7da39060240160006040518083038186803b1580156107d357600080fd5b505af41580156107e7573d6000803e3d6000fd5b505050505050565b604051632474521560e21b8152600080516020610c9e833981519152600482015233602482015273__$a603c36e8140f8f0796c2626c9f8eff514$__906391d1485490604401602060405180830381865af4158015610852573d6000803e3d6000fd5b505050506040513d601f19601f820116820180604052508101906108769190610bfa565b6108925760405162461bcd60e51b815260040161031b90610c1c565b60405163d9228e9d60e01b815273__$873ca04b9e3da3ca7cba95b77f569299f5$__9063d9228e9d9061035b908490600401610bce565b604051632474521560e21b8152600080516020610c9e833981519152600482015233602482015273__$a603c36e8140f8f0796c2626c9f8eff514$__906391d1485490604401602060405180830381865af415801561092c573d6000803e3d6000fd5b505050506040513d601f19601f820116820180604052508101906109509190610bfa565b61096c5760405162461bcd60e51b815260040161031b90610c1c565b60405163eeba990160e01b81526001600160e01b03198216600482015273__$873ca04b9e3da3ca7cba95b77f569299f5$__9063eeba99019060240161035b565b60408051808201909152601781527f78722e657874656e73696f6e2e76312e73746f7261676500000000000000000060209091015260008060ff610a1260017f1292a532f6708584c640bd1e8f4417a90448457dee41fd12ab2a5e716bf3c091610c7c565b604051602001610a2491815260200190565b60408051601f1981840301815291905280516020909101201692915050565b634e487b7160e01b600052604160045260246000fd5b600060208284031215610a6b57600080fd5b813567ffffffffffffffff80821115610a8357600080fd5b818401915084601f830112610a9757600080fd5b813581811115610aa957610aa9610a43565b604051601f8201601f19908116603f01168101908382118183101715610ad157610ad1610a43565b81604052828152876020848701011115610aea57600080fd5b826020860160208301376000928101602001929092525095945050505050565b600060208284031215610b1c57600080fd5b81356001600160e01b031981168114610b3457600080fd5b9392505050565b6020808252825182820181905260009190848201906040850190845b81811015610b7c5783516001600160a01b031683529284019291840191600101610b57565b50909695505050505050565b6000815180845260005b81811015610bae57602081850181015186830182015201610b92565b506000602082860101526020601f19601f83011685010191505092915050565b602081526000610b346020830184610b88565b600060208284031215610bf357600080fd5b5051919050565b600060208284031215610c0c57600080fd5b81518015158114610b3457600080fd5b6020808252601f908201527f436f7265457874656e73696f6e4d616e616765723a206e6f742061646d696e00604082015260600190565b600060208284031215610c6557600080fd5b81516001600160a01b0381168114610b3457600080fd5b8181038181111561022f57634e487b7160e01b600052601160045260246000fdfe2172861495e7b85edac73e3cd5fbb42dd675baadf627720e687bcfdaca025096a2646970667358221220fe13f413a0ab77021681d122e5a7708456203c6a9e1c97a42842e74aee5876a164736f6c634300081800332172861495e7b85edac73e3cd5fbb42dd675baadf627720e687bcfdaca025096",
  "linkReferences": {
    "contracts/core/LibAccess.sol": {
      "LibAccess": [
        {
          "length": 20,
          "start": 3365
        },
        {
          "length": 20,
          "start": 3646
        },
        {
          "length": 20,
          "start": 4040
        },
        {
          "length": 20,
          "start": 4268
        },
        {
          "length": 20,
          "start": 4764
        },
        {
          "length": 20,
          "start": 4982
        }
      ]
    },
    "contracts/core/LibExtensions.sol": {
      "LibExtensions": [
        {
          "length": 20,
          "start": 1721
        },
        {
          "length": 20,
          "start": 3146
        },
        {
          "length": 20,
          "start": 3511
        },
        {
          "length": 20,
          "start": 3798
        },
        {
          "length": 20,
          "start": 4193
        },
        {
          "length": 20,
          "start": 4642
        },
        {
          "length": 20,
          "start": 4901
        },
        {
          "length": 20,
          "start": 5135
        }
      ]
    }
  },
  "deployedLinkReferences": {
    "contracts/core/LibAccess.sol": {
      "LibAccess": [
        {
          "length": 20,
          "start": 673
        },
        {
          "length": 20,
          "start": 954
        },
        {
          "length": 20,
          "start": 1348
        },
        {
          "length": 20,
          "start": 1576
        },
        {
          "length": 20,
          "start": 2072
        },
        {
          "length": 20,
          "start": 2290
        }
      ]
    },
    "contracts/core/LibExtensions.sol": {
      "LibExtensions": [
        {
          "length": 20,
          "start": 454
        },
        {
          "length": 20,
          "start": 819
        },
        {
          "length": 20,
          "start": 1106
        },
        {
          "length": 20,
          "start": 1501
        },
        {
          "length": 20,
          "start": 1950
        },
        {
          "length": 20,
          "start": 2209
        },
        {
          "length": 20,
          "start": 2443
        }
      ]
    }
  }
}