{
  "_format": "hh-sol-artifact-1",
  "contractName": "RegistrationExt",
  "sourceName": "contracts/registry/extensions/registration/RegistrationExt.sol",
  "abi": [
    {
      "anonymous": false,
      "inputs": [
        {
          "indexed": true,
          "internalType": "address",
          "name": "entity",
          "type": "address"
        },
        {
          "indexed": true,
          "internalType": "address",
          "name": "by",
          "type": "address"
        }
      ],
      "name": "EntityRegistered",
      "type": "event"
    },
    {
      "inputs": [
        {
          "internalType": "address",
          "name": "",
          "type": "address"
        },
        {
          "internalType": "string",
          "name": "",
          "type": "string"
        },
        {
          "internalType": "bytes",
          "name": "",
          "type": "bytes"
        }
      ],
      "name": "createEntityInstance",
      "outputs": [
        {
          "internalType": "address",
          "name": "",
          "type": "address"
        }
      ],
      "stateMutability": "pure",
      "type": "function"
    },
    {
      "inputs": [
        {
          "internalType": "string",
          "name": "name",
          "type": "string"
        }
      ],
      "name": "getEntityByName",
      "outputs": [
        {
          "internalType": "address",
          "name": "",
          "type": "address"
        }
      ],
      "stateMutability": "view",
      "type": "function"
    },
    {
      "inputs": [
        {
          "internalType": "bytes32",
          "name": "role",
          "type": "bytes32"
        },
        {
          "internalType": "address",
          "name": "account",
          "type": "address"
        }
      ],
      "name": "hasRole",
      "outputs": [
        {
          "internalType": "bool",
          "name": "",
          "type": "bool"
        }
      ],
      "stateMutability": "view",
      "type": "function"
    },
    {
      "inputs": [
        {
          "internalType": "address",
          "name": "",
          "type": "address"
        },
        {
          "internalType": "string",
          "name": "",
          "type": "string"
        },
        {
          "internalType": "uint256",
          "name": "",
          "type": "uint256"
        },
        {
          "internalType": "bytes",
          "name": "",
          "type": "bytes"
        }
      ],
      "name": "initStorage",
      "outputs": [],
      "stateMutability": "nonpayable",
      "type": "function"
    },
    {
      "inputs": [
        {
          "internalType": "address",
          "name": "myAddress",
          "type": "address"
        }
      ],
      "name": "install",
      "outputs": [],
      "stateMutability": "nonpayable",
      "type": "function"
    },
    {
      "inputs": [
        {
          "internalType": "address",
          "name": "addr",
          "type": "address"
        }
      ],
      "name": "isRegistered",
      "outputs": [
        {
          "internalType": "bool",
          "name": "",
          "type": "bool"
        }
      ],
      "stateMutability": "view",
      "type": "function"
    },
    {
      "inputs": [],
      "name": "metadata",
      "outputs": [
        {
          "components": [
            {
              "internalType": "string",
              "name": "name",
              "type": "string"
            },
            {
              "internalType": "uint256",
              "name": "version",
              "type": "uint256"
            }
          ],
          "internalType": "struct ExtensionMetadata",
          "name": "",
          "type": "tuple"
        }
      ],
      "stateMutability": "pure",
      "type": "function"
    },
    {
      "inputs": [
        {
          "components": [
            {
              "internalType": "bool",
              "name": "sendTokensToOwner",
              "type": "bool"
            },
            {
              "internalType": "address",
              "name": "owner",
              "type": "address"
            },
            {
              "internalType": "string",
              "name": "name",
              "type": "string"
            },
            {
              "internalType": "bytes",
              "name": "initData",
              "type": "bytes"
            }
          ],
          "internalType": "struct RegisterEntityArgsNoTermsNoRemoval",
          "name": "args",
          "type": "tuple"
        }
      ],
      "name": "registerEntityNoTermsNoRemoval",
      "outputs": [],
      "stateMutability": "payable",
      "type": "function"
    },
    {
      "inputs": [
        {
          "components": [
            {
              "internalType": "bool",
              "name": "sendTokensToOwner",
              "type": "bool"
            },
            {
              "internalType": "address",
              "name": "owner",
              "type": "address"
            },
            {
              "internalType": "string",
              "name": "name",
              "type": "string"
            },
            {
              "internalType": "bytes",
              "name": "initData",
              "type": "bytes"
            },
            {
              "internalType": "uint256",
              "name": "gracePeriodDays",
              "type": "uint256"
            }
          ],
          "internalType": "struct RegisterEntityArgsNoTermsWithRemoval",
          "name": "args",
          "type": "tuple"
        }
      ],
      "name": "registerEntityNoTermsWithRemoval",
      "outputs": [],
      "stateMutability": "payable",
      "type": "function"
    },
    {
      "inputs": [
        {
          "components": [
            {
              "internalType": "bool",
              "name": "sendTokensToOwner",
              "type": "bool"
            },
            {
              "internalType": "address",
              "name": "owner",
              "type": "address"
            },
            {
              "internalType": "string",
              "name": "name",
              "type": "string"
            },
            {
              "internalType": "bytes",
              "name": "initData",
              "type": "bytes"
            },
            {
              "components": [
                {
                  "internalType": "uint256",
                  "name": "fee",
                  "type": "uint256"
                },
                {
                  "internalType": "uint256",
                  "name": "coveragePeriodDays",
                  "type": "uint256"
                },
                {
                  "internalType": "uint256",
                  "name": "gracePeriodDays",
                  "type": "uint256"
                }
              ],
              "internalType": "struct RegistrationTerms",
              "name": "terms",
              "type": "tuple"
            }
          ],
          "internalType": "struct RegisterEntityArgsWithTerms",
          "name": "args",
          "type": "tuple"
        }
      ],
      "name": "registerEntityWithTerms",
      "outputs": [],
      "stateMutability": "payable",
      "type": "function"
    },
    {
      "inputs": [
        {
          "internalType": "address",
          "name": "myAddress",
          "type": "address"
        },
        {
          "internalType": "uint256",
          "name": "currentVersion",
          "type": "uint256"
        }
      ],
      "name": "upgrade",
      "outputs": [],
      "stateMutability": "nonpayable",
      "type": "function"
    }
  ],
  "bytecode": "0x608060405234801561001057600080fd5b50611848806100206000396000f3fe60806040526004361061009c5760003560e01c806391d148541161006457806391d14854146101bf578063a60b592a146101ef578063c3c5a54714610202578063ddf2b1ee14610222578063e0622b2714610235578063edeff6a71461025457600080fd5b80632a1b8f9b146100a1578063392f37e9146100c35780633e88a4e2146101445780635efefd541461017c578063821059e41461019f575b600080fd5b3480156100ad57600080fd5b506100c16100bc3660046110c2565b610267565b005b3480156100cf57600080fd5b5061012e6040805180820190915260608152600060208201525060408051608081018252601f9181019182527f78722e726567697374726174696f6e2e526567697374726174696f6e4578740060608201529081526001602082015290565b60405161013b9190611103565b60405180910390f35b34801561015057600080fd5b5061016461015f366004611192565b61047e565b6040516001600160a01b03909116815260200161013b565b34801561018857600080fd5b506100c16101973660046111d4565b505050505050565b3480156101ab57600080fd5b506101646101ba366004611260565b6104fe565b3480156101cb57600080fd5b506101df6101da3660046112e3565b61056c565b604051901515815260200161013b565b6100c16101fd366004611313565b6105f9565b34801561020e57600080fd5b506101df61021d3660046110c2565b610800565b6100c161023036600461134e565b610862565b34801561024157600080fd5b506100c1610250366004611389565b5050565b6100c16102623660046113b5565b6109b6565b60408051600580825260c08201909252600091816020015b604080518082019091526000808252602082015281526020019060019003908161027f57505060408051808201909152600080825263c3c5a54760e01b6020830152825192935090918391906102d7576102d7611406565b60200260200101819052506040518060400160405280600015158152602001633e88a4e260e01b6001600160e01b0319168152508160018151811061031e5761031e611406565b6020026020010181905250604051806040016040528060001515815260200163edeff6a760e01b6001600160e01b0319168152508160028151811061036557610365611406565b6020026020010181905250604051806040016040528060001515815260200163a60b592a60e01b6001600160e01b031916815250816003815181106103ac576103ac611406565b6020026020010181905250604051806040016040528060001515815260200163ddf2b1ee60e01b6001600160e01b031916815250816004815181106103f3576103f3611406565b602002602001018190525073__$873ca04b9e3da3ca7cba95b77f569299f5$__63964d13f06040518060400160405280856001600160a01b03168152602001848152506040518263ffffffff1660e01b8152600401610452919061141c565b60006040518083038186803b15801561046a57600080fd5b505af4158015610197573d6000803e3d6000fd5b600080610489610d76565b9050806002016104ce85858080601f016020809104026020016040519081016040528093929190818152602001838380828437600092019190915250610e0c92505050565b6040516104db9190611495565b908152604051908190036020019020546001600160a01b03169150505b92915050565b60405162461bcd60e51b815260206004820152603560248201527f526567697374726174696f6e4578743a20637265617465456e74697479496e736044820152741d185b98d9481b9bdd081a5b5c1b195b595b9d1959605a1b60648201526000906084015b60405180910390fd5b604051632474521560e21b8152600481018390526001600160a01b038216602482015260009073__$a603c36e8140f8f0796c2626c9f8eff514$__906391d1485490604401602060405180830381865af41580156105ce573d6000803e3d6000fd5b505050506040513d601f19601f820116820180604052508101906105f291906114bf565b9392505050565b604051637298e1d760e11b8152336004820152309063e531c3ae90602401602060405180830381865afa158015610634573d6000803e3d6000fd5b505050506040513d601f19601f8201168201806040525081019061065891906114bf565b6106745760405162461bcd60e51b8152600401610563906114dc565b60003063821059e461068c60408501602086016110c2565b6106996040860186611543565b6106a66060880188611543565b6040518663ffffffff1660e01b81526004016106c69594939291906115b3565b6020604051808303816000875af11580156106e5573d6000803e3d6000fd5b505050506040513d601f19601f8201168201806040525081019061070991906115f7565b90506001600160a01b0381166107315760405162461bcd60e51b815260040161056390611614565b600081905061076081604051806060016040528060008152602001600081526020018660800135815250610e7c565b34156107fb57610773602084018461165b565b156107c65761078860408401602085016110c2565b6001600160a01b03166108fc349081150290604051600060405180830381858888f193505050501580156107c0573d6000803e3d6000fd5b50505050565b6040516001600160a01b038216903480156108fc02916000818181858888f193505050501580156107c0573d6000803e3d6000fd5b505050565b60008061080b610d76565b6001600160a01b038416600090815260018201602052604090205490915060ff16801561083c575060019392505050565b506001600160a01b03928316600090815260209190915260409020549091161515919050565b604051637298e1d760e11b8152336004820152309063e531c3ae90602401602060405180830381865afa15801561089d573d6000803e3d6000fd5b505050506040513d601f19601f820116820180604052508101906108c191906114bf565b6108dd5760405162461bcd60e51b8152600401610563906114dc565b60003063821059e46108f560408501602086016110c2565b6109026040860186611543565b61090f6060880188611543565b6040518663ffffffff1660e01b815260040161092f9594939291906115b3565b6020604051808303816000875af115801561094e573d6000803e3d6000fd5b505050506040513d601f19601f8201168201806040525081019061097291906115f7565b90506001600160a01b03811661099a5760405162461bcd60e51b815260040161056390611614565b80610760816109b136869003860160808701611678565b610e7c565b604051637298e1d760e11b8152336004820152309063e531c3ae90602401602060405180830381865afa1580156109f1573d6000803e3d6000fd5b505050506040513d601f19601f82011682018060405250810190610a1591906114bf565b610a315760405162461bcd60e51b8152600401610563906114dc565b60003063821059e4610a4960408501602086016110c2565b610a566040860186611543565b610a636060880188611543565b6040518663ffffffff1660e01b8152600401610a839594939291906115b3565b6020604051808303816000875af1158015610aa2573d6000803e3d6000fd5b505050506040513d601f19601f82011682018060405250810190610ac691906115f7565b90506001600160a01b038116610aee5760405162461bcd60e51b815260040161056390611614565b806000610af9610d76565b6001600160a01b038416600090815260018201602052604090205490915060ff1615610b7a5760405162461bcd60e51b815260206004820152602a60248201527f526567697374726174696f6e4578743a20656e7469747920616c7265616479206044820152691c9959da5cdd195c995960b21b6064820152608401610563565b6000610bea836001600160a01b03166306fdde036040518163ffffffff1660e01b8152600401600060405180830381865afa158015610bbd573d6000803e3d6000fd5b505050506040513d6000823e601f3d908101601f19168201604052610be591908101906116d4565b610e0c565b905060006001600160a01b03168260020182604051610c099190611495565b908152604051908190036020019020546001600160a01b031614610c3f5760405162461bcd60e51b815260040161056390611781565b838260020182604051610c529190611495565b908152604080516020928190038301902080546001600160a01b0319166001600160a01b039485161790559186166000908152600185810190925291909120805460ff191690911790553415610d3957610caf602086018661165b565b15610d0257610cc460408601602087016110c2565b6001600160a01b03166108fc349081150290604051600060405180830381858888f19350505050158015610cfc573d6000803e3d6000fd5b50610d39565b6040516001600160a01b038516903480156108fc02916000818181858888f19350505050158015610d37573d6000803e3d6000fd5b505b60405133906001600160a01b038616907f79480c4c7e2f2d38f9d13837928d6295a8aa9a296e6dc3c827a6b5a3aa4b99e190600090a35050505050565b60408051808201909152601a81527f78722e726567697374726174696f6e2e76312e73746f7261676500000000000060209091015260008060ff610ddb60017f298bb06b387cf42ef0d699a946970827af7863e6cebf6ab1f9ef36af7a9311636117e6565b604051602001610ded91815260200190565b60408051601f1981840301815291905280516020909101201692915050565b60608160005b8151811015610e7557610e44828281518110610e3057610e30611406565b01602001516001600160f81b03191661105b565b828281518110610e5657610e56611406565b60200101906001600160f81b031916908160001a905350600101610e12565b5092915050565b6000610e86610d76565b6001600160a01b03841660008181526020839052604080822081516306fdde0360e01b81529151949550939192610ee29290916306fdde0391600480830192879291908290030181865afa158015610bbd573d6000803e3d6000fd5b905060006001600160a01b03168360020182604051610f019190611495565b908152604051908190036020019020546001600160a01b031614610f375760405162461bcd60e51b815260040161056390611781565b81546001600160a01b031615610fb7576040805162461bcd60e51b81526020600482015260248101919091527f526567697374726174696f6e4578743a20656e7469747920616c72656164792060448201527f72656769737465726564207769746820646966666572656e74206e616d653f3f6064820152608401610563565b81546001600160a01b031916331782558351600183015560208401516002808401919091556040808601516003850155426004850155518691850190610ffe908490611495565b90815260405190819003602001812080546001600160a01b039384166001600160a01b031990911617905533918716907f79480c4c7e2f2d38f9d13837928d6295a8aa9a296e6dc3c827a6b5a3aa4b99e190600090a35050505050565b6000604160f81b6001600160f81b03198316108015906110895750602d60f91b6001600160f81b0319831611155b156110a65761109d60f883901c60206117f9565b60f81b92915050565b5090565b6001600160a01b03811681146110bf57600080fd5b50565b6000602082840312156110d457600080fd5b81356105f2816110aa565b60005b838110156110fa5781810151838201526020016110e2565b50506000910152565b602081526000825160406020840152805180606085015261112b8160808601602085016110df565b60209490940151604084015250506080601f909201601f1916010190565b60008083601f84011261115b57600080fd5b50813567ffffffffffffffff81111561117357600080fd5b60208301915083602082850101111561118b57600080fd5b9250929050565b600080602083850312156111a557600080fd5b823567ffffffffffffffff8111156111bc57600080fd5b6111c885828601611149565b90969095509350505050565b600080600080600080608087890312156111ed57600080fd5b86356111f8816110aa565b9550602087013567ffffffffffffffff8082111561121557600080fd5b6112218a838b01611149565b909750955060408901359450606089013591508082111561124157600080fd5b5061124e89828a01611149565b979a9699509497509295939492505050565b60008060008060006060868803121561127857600080fd5b8535611283816110aa565b9450602086013567ffffffffffffffff808211156112a057600080fd5b6112ac89838a01611149565b909650945060408801359150808211156112c557600080fd5b506112d288828901611149565b969995985093965092949392505050565b600080604083850312156112f657600080fd5b823591506020830135611308816110aa565b809150509250929050565b60006020828403121561132557600080fd5b813567ffffffffffffffff81111561133c57600080fd5b820160a081850312156105f257600080fd5b60006020828403121561136057600080fd5b813567ffffffffffffffff81111561137757600080fd5b820160e081850312156105f257600080fd5b6000806040838503121561139c57600080fd5b82356113a7816110aa565b946020939093013593505050565b6000602082840312156113c757600080fd5b813567ffffffffffffffff8111156113de57600080fd5b8201608081850312156105f257600080fd5b634e487b7160e01b600052604160045260246000fd5b634e487b7160e01b600052603260045260246000fd5b602080825282516001600160a01b03168282015282810151604080840181905281516060850181905260009392830191849160808701905b808410156114895784518051151583528601516001600160e01b03191686830152938501936001939093019290820190611454565b50979650505050505050565b600082516114a78184602087016110df565b9190910192915050565b80151581146110bf57600080fd5b6000602082840312156114d157600080fd5b81516105f2816114b1565b60208082526041908201527f526567697374726174696f6e4578743a2063616c6c6572206973206e6f74206160408201527f6e2061637469766520726567697374726174696f6e207465726d73206f776e656060820152603960f91b608082015260a00190565b6000808335601e1984360301811261155a57600080fd5b83018035915067ffffffffffffffff82111561157557600080fd5b60200191503681900382131561118b57600080fd5b81835281816020850137506000828201602090810191909152601f909101601f19169091010190565b6001600160a01b03861681526060602082018190526000906115d8908301868861158a565b82810360408401526115eb81858761158a565b98975050505050505050565b60006020828403121561160957600080fd5b81516105f2816110aa565b60208082526027908201527f526567697374726174696f6e4578743a20656e74697479206372656174696f6e6040820152660819985a5b195960ca1b606082015260800190565b60006020828403121561166d57600080fd5b81356105f2816114b1565b60006060828403121561168a57600080fd5b6040516060810181811067ffffffffffffffff821117156116ad576116ad6113f0565b80604052508235815260208301356020820152604083013560408201528091505092915050565b6000602082840312156116e657600080fd5b815167ffffffffffffffff808211156116fe57600080fd5b818401915084601f83011261171257600080fd5b815181811115611724576117246113f0565b604051601f8201601f19908116603f0116810190838211818310171561174c5761174c6113f0565b8160405282815287602084870101111561176557600080fd5b6117768360208301602088016110df565b979650505050505050565b6020808252602f908201527f526567697374726174696f6e4578743a20656e74697479206e616d6520616c7260408201526e1958591e481c9959da5cdd195c9959608a1b606082015260800190565b634e487b7160e01b600052601160045260246000fd5b818103818111156104f8576104f86117d0565b60ff81811683821601908111156104f8576104f86117d056fea26469706673582212200da1231ee8555980a286090e15cd5ab9a0833948a1734915f5519550297dd89164736f6c63430008180033",
  "linkReferences": {
    "contracts/core/LibAccess.sol": {
      "LibAccess": [
        {
          "length": 20,
          "start": 1460
        }
      ]
    },
    "contracts/core/LibExtensions.sol": {
      "LibExtensions": [
        {
          "length": 20,
          "start": 1056
        }
      ]
    }
  },
  "deployedLinkReferences": {
    "contracts/core/LibAccess.sol": {
      "LibAccess": [
        {
          "length": 20,
          "start": 1428
        }
      ]
    },
    "contracts/core/LibExtensions.sol": {
      "LibExtensions": [
        {
          "length": 20,
          "start": 1024
        }
      ]
    }
  }
}