{
  "_format": "hh-sol-artifact-1",
  "contractName": "RemovableExt",
  "sourceName": "contracts/entity/extensions/removable/RemovableExt.sol",
  "abi": [
    {
      "anonymous": false,
      "inputs": [
        {
          "indexed": true,
          "internalType": "address",
          "name": "by",
          "type": "address"
        },
        {
          "indexed": false,
          "internalType": "string",
          "name": "reason",
          "type": "string"
        }
      ],
      "name": "Deactivated",
      "type": "event"
    },
    {
      "anonymous": false,
      "inputs": [
        {
          "indexed": true,
          "internalType": "address",
          "name": "by",
          "type": "address"
        }
      ],
      "name": "Reactivated",
      "type": "event"
    },
    {
      "anonymous": false,
      "inputs": [
        {
          "indexed": true,
          "internalType": "address",
          "name": "by",
          "type": "address"
        },
        {
          "indexed": false,
          "internalType": "string",
          "name": "reason",
          "type": "string"
        }
      ],
      "name": "Removed",
      "type": "event"
    },
    {
      "inputs": [
        {
          "internalType": "string",
          "name": "reason",
          "type": "string"
        }
      ],
      "name": "deactivate",
      "outputs": [],
      "stateMutability": "nonpayable",
      "type": "function"
    },
    {
      "inputs": [
        {
          "internalType": "bytes32",
          "name": "role",
          "type": "bytes32"
        },
        {
          "internalType": "address",
          "name": "account",
          "type": "address"
        }
      ],
      "name": "hasRole",
      "outputs": [
        {
          "internalType": "bool",
          "name": "",
          "type": "bool"
        }
      ],
      "stateMutability": "view",
      "type": "function"
    },
    {
      "inputs": [
        {
          "internalType": "address",
          "name": "",
          "type": "address"
        },
        {
          "internalType": "string",
          "name": "_name",
          "type": "string"
        },
        {
          "internalType": "uint256",
          "name": "_version",
          "type": "uint256"
        },
        {
          "internalType": "bytes",
          "name": "",
          "type": "bytes"
        }
      ],
      "name": "initStorage",
      "outputs": [],
      "stateMutability": "nonpayable",
      "type": "function"
    },
    {
      "inputs": [
        {
          "internalType": "address",
          "name": "myAddress",
          "type": "address"
        }
      ],
      "name": "install",
      "outputs": [],
      "stateMutability": "nonpayable",
      "type": "function"
    },
    {
      "inputs": [],
      "name": "isEntityActive",
      "outputs": [
        {
          "internalType": "bool",
          "name": "",
          "type": "bool"
        }
      ],
      "stateMutability": "view",
      "type": "function"
    },
    {
      "inputs": [],
      "name": "isRemoved",
      "outputs": [
        {
          "internalType": "bool",
          "name": "",
          "type": "bool"
        }
      ],
      "stateMutability": "view",
      "type": "function"
    },
    {
      "inputs": [
        {
          "internalType": "address",
          "name": "",
          "type": "address"
        }
      ],
      "name": "isYourRegistry",
      "outputs": [
        {
          "internalType": "bool",
          "name": "",
          "type": "bool"
        }
      ],
      "stateMutability": "pure",
      "type": "function"
    },
    {
      "inputs": [],
      "name": "metadata",
      "outputs": [
        {
          "components": [
            {
              "internalType": "string",
              "name": "name",
              "type": "string"
            },
            {
              "internalType": "uint256",
              "name": "version",
              "type": "uint256"
            }
          ],
          "internalType": "struct ExtensionMetadata",
          "name": "",
          "type": "tuple"
        }
      ],
      "stateMutability": "pure",
      "type": "function"
    },
    {
      "inputs": [],
      "name": "reactivate",
      "outputs": [],
      "stateMutability": "nonpayable",
      "type": "function"
    },
    {
      "inputs": [
        {
          "internalType": "string",
          "name": "reason",
          "type": "string"
        }
      ],
      "name": "remove",
      "outputs": [],
      "stateMutability": "nonpayable",
      "type": "function"
    },
    {
      "inputs": [
        {
          "internalType": "address",
          "name": "myAddress",
          "type": "address"
        },
        {
          "internalType": "uint256",
          "name": "currentVersion",
          "type": "uint256"
        }
      ],
      "name": "upgrade",
      "outputs": [],
      "stateMutability": "nonpayable",
      "type": "function"
    }
  ],
  "bytecode": "0x608060405234801561001057600080fd5b50610b63806100206000396000f3fe608060405234801561001057600080fd5b50600436106100a95760003560e01c80637e6e1551116100715780637e6e15511461017857806380599e4b1461018057806386b70bed1461019357806391d148541461019b578063d18611d6146101ae578063e0622b27146101b657600080fd5b806302896827146100ae57806327ee999d146100d65780632a1b8f9b146100eb578063392f37e9146100fe5780635efefd5414610162575b600080fd5b6100c16100bc366004610754565b6101c8565b60405190151581526020015b60405180910390f35b6100e96100e4366004610785565b61022d565b005b6100e96100f9366004610754565b6102a8565b61015560408051808201909152606081526000602082015250604080516080810182526016918101918252751e1c8b995b9d1a5d1e4b94995b5bdd98589b19515e1d60521b60608201529081526001602082015290565b6040516100cd919061087c565b6100e96101703660046108f7565b505050505050565b6100c161050f565b6100e961018e366004610785565b610527565b6100c161059e565b6100c16101a9366004610981565b6105b1565b6100e9610640565b6100e96101c43660046109ad565b5050565b60405162461bcd60e51b815260206004820152602c60248201527f52656d6f7661626c654578743a206973596f75725265676973747279206e6f7460448201526b081a5b5c1b195b595b9d195960a21b60648201526000906084015b60405180910390fd5b610236336101c8565b6102525760405162461bcd60e51b8152600401610224906109d7565b600061025c6106ab565b805460ff191691151591909117905560405133907fa4bdd67abd9fd885b9fb37cd6af9e1fa83f699fa317d19d7084a1512763125c79061029d908490610a41565b60405180910390a250565b60408051600680825260e08201909252600091816020015b60408051808201909152600080825260208201528152602001906001900390816102c05750506040805180820190915260008082526327ee999d60e01b60208301528251929350909183919061031857610318610a54565b6020026020010181905250604051806040016040528060001515815260200163d18611d660e01b6001600160e01b0319168152508160018151811061035f5761035f610a54565b602002602001018190525060405180604001604052806000151581526020016380599e4b60e01b6001600160e01b031916815250816002815181106103a6576103a6610a54565b60200260200101819052506040518060400160405280600015158152602001637e6e155160e01b6001600160e01b031916815250816003815181106103ed576103ed610a54565b602002602001018190525060405180604001604052806000151581526020016386b70bed60e01b6001600160e01b0319168152508160048151811061043457610434610a54565b60200260200101819052506040518060400160405280600115158152602001630289682760e01b6001600160e01b0319168152508160058151811061047b5761047b610a54565b6020908102919091018101919091526040805180820182526001600160a01b038516815291820183905251630964d13f60e41b815273__$873ca04b9e3da3ca7cba95b77f569299f5$__9063964d13f0906104da908490600401610a6a565b60006040518083038186803b1580156104f257600080fd5b505af4158015610506573d6000803e3d6000fd5b50505050505050565b60006105196106ab565b54610100900460ff16919050565b610530336101c8565b61054c5760405162461bcd60e51b8152600401610224906109d7565b60016105566106ab565b80549115156101000261ff001990921691909117905560405133907f5186bdc50c06226432bd61c8e948665ded3e3754d31ee1bff54a1dca6c47dc139061029d908490610a41565b60006105a86106ab565b5460ff16919050565b604051632474521560e21b8152600481018390526001600160a01b038216602482015260009073__$a603c36e8140f8f0796c2626c9f8eff514$__906391d1485490604401602060405180830381865af4158015610613573d6000803e3d6000fd5b505050506040513d601f19601f820116820180604052508101906106379190610ae3565b90505b92915050565b610649336101c8565b6106655760405162461bcd60e51b8152600401610224906109d7565b600161066f6106ab565b805460ff191691151591909117905560405133907fdc9d8a74ad869bc321fa90855d42948b9b0886a0dd9fd53aec911653f0c6a49190600090a2565b60408051808201909152601481527378722e656e746974792e76312e73746f7261676560601b60209091015260008060ff61070760017f84ac6d389319b31dfa7e40b43a93bfd20be6d560d5d23ad6fb0131d161f3e470610b0c565b60405160200161071991815260200190565b60408051601f1981840301815291905280516020909101201692915050565b80356001600160a01b038116811461074f57600080fd5b919050565b60006020828403121561076657600080fd5b61063782610738565b634e487b7160e01b600052604160045260246000fd5b60006020828403121561079757600080fd5b813567ffffffffffffffff808211156107af57600080fd5b818401915084601f8301126107c357600080fd5b8135818111156107d5576107d561076f565b604051601f8201601f19908116603f011681019083821181831017156107fd576107fd61076f565b8160405282815287602084870101111561081657600080fd5b826020860160208301376000928101602001929092525095945050505050565b6000815180845260005b8181101561085c57602081850181015186830182015201610840565b506000602082860101526020601f19601f83011685010191505092915050565b6020815260008251604060208401526108986060840182610836565b9050602084015160408401528091505092915050565b60008083601f8401126108c057600080fd5b50813567ffffffffffffffff8111156108d857600080fd5b6020830191508360208285010111156108f057600080fd5b9250929050565b6000806000806000806080878903121561091057600080fd5b61091987610738565b9550602087013567ffffffffffffffff8082111561093657600080fd5b6109428a838b016108ae565b909750955060408901359450606089013591508082111561096257600080fd5b5061096f89828a016108ae565b979a9699509497509295939492505050565b6000806040838503121561099457600080fd5b823591506109a460208401610738565b90509250929050565b600080604083850312156109c057600080fd5b6109c983610738565b946020939093013593505050565b60208082526044908201527f52656d6f7661626c654578743a2063616c6c6572206973206e6f74207468652060408201527f726567697374727920726573706f6e7369626c6520666f72207468697320656e6060820152637469747960e01b608082015260a00190565b6020815260006106376020830184610836565b634e487b7160e01b600052603260045260246000fd5b602080825282516001600160a01b03168282015282810151604080840181905281516060850181905260009392830191849160808701905b80841015610ad75784518051151583528601516001600160e01b03191686830152938501936001939093019290820190610aa2565b50979650505050505050565b600060208284031215610af557600080fd5b81518015158114610b0557600080fd5b9392505050565b8181038181111561063a57634e487b7160e01b600052601160045260246000fdfea2646970667358221220f18e7ec75eab4650599fad0e0c51b6f9283dad95587d92dfe9a6f622fb7bf16264736f6c63430008180033",
  "linkReferences": {
    "contracts/core/LibAccess.sol": {
      "LibAccess": [
        {
          "length": 20,
          "start": 1529
        }
      ]
    },
    "contracts/core/LibExtensions.sol": {
      "LibExtensions": [
        {
          "length": 20,
          "start": 1234
        }
      ]
    }
  },
  "deployedLinkReferences": {
    "contracts/core/LibAccess.sol": {
      "LibAccess": [
        {
          "length": 20,
          "start": 1497
        }
      ]
    },
    "contracts/core/LibExtensions.sol": {
      "LibExtensions": [
        {
          "length": 20,
          "start": 1202
        }
      ]
    }
  }
}