{
  "_format": "hh-sol-artifact-1",
  "contractName": "RemovableEntityExt",
  "sourceName": "contracts/extensions/entity/RemovableEntityExt.sol",
  "abi": [
    {
      "inputs": [
        {
          "internalType": "uint256",
          "name": "value",
          "type": "uint256"
        },
        {
          "internalType": "uint256",
          "name": "length",
          "type": "uint256"
        }
      ],
      "name": "StringsInsufficientHexLength",
      "type": "error"
    },
    {
      "anonymous": false,
      "inputs": [
        {
          "indexed": true,
          "internalType": "address",
          "name": "by",
          "type": "address"
        },
        {
          "indexed": false,
          "internalType": "string",
          "name": "reason",
          "type": "string"
        }
      ],
      "name": "EntityDeactivated",
      "type": "event"
    },
    {
      "anonymous": false,
      "inputs": [
        {
          "indexed": true,
          "internalType": "address",
          "name": "by",
          "type": "address"
        }
      ],
      "name": "EntityReactivated",
      "type": "event"
    },
    {
      "anonymous": false,
      "inputs": [
        {
          "indexed": true,
          "internalType": "address",
          "name": "by",
          "type": "address"
        },
        {
          "indexed": false,
          "internalType": "string",
          "name": "reason",
          "type": "string"
        }
      ],
      "name": "EntityRemoved",
      "type": "event"
    },
    {
      "inputs": [
        {
          "internalType": "string",
          "name": "reason",
          "type": "string"
        }
      ],
      "name": "deactivate",
      "outputs": [],
      "stateMutability": "nonpayable",
      "type": "function"
    },
    {
      "inputs": [
        {
          "components": [
            {
              "internalType": "address",
              "name": "owner",
              "type": "address"
            },
            {
              "internalType": "address",
              "name": "termsOwner",
              "type": "address"
            },
            {
              "internalType": "address",
              "name": "registry",
              "type": "address"
            },
            {
              "internalType": "string",
              "name": "name",
              "type": "string"
            },
            {
              "components": [
                {
                  "internalType": "string",
                  "name": "x",
                  "type": "string"
                },
                {
                  "internalType": "string",
                  "name": "y",
                  "type": "string"
                },
                {
                  "internalType": "string",
                  "name": "z",
                  "type": "string"
                },
                {
                  "internalType": "uint256",
                  "name": "t",
                  "type": "uint256"
                },
                {
                  "internalType": "uint256",
                  "name": "p",
                  "type": "uint256"
                },
                {
                  "internalType": "uint256",
                  "name": "p_sub",
                  "type": "uint256"
                }
              ],
              "internalType": "struct VectorAddress",
              "name": "vector",
              "type": "tuple"
            },
            {
              "internalType": "bytes",
              "name": "initData",
              "type": "bytes"
            }
          ],
          "internalType": "struct CommonInitArgs",
          "name": "args",
          "type": "tuple"
        }
      ],
      "name": "init",
      "outputs": [],
      "stateMutability": "nonpayable",
      "type": "function"
    },
    {
      "inputs": [
        {
          "internalType": "address",
          "name": "myAddress",
          "type": "address"
        }
      ],
      "name": "install",
      "outputs": [],
      "stateMutability": "nonpayable",
      "type": "function"
    },
    {
      "inputs": [],
      "name": "isEntityActive",
      "outputs": [
        {
          "internalType": "bool",
          "name": "",
          "type": "bool"
        }
      ],
      "stateMutability": "view",
      "type": "function"
    },
    {
      "inputs": [],
      "name": "isRemoved",
      "outputs": [
        {
          "internalType": "bool",
          "name": "",
          "type": "bool"
        }
      ],
      "stateMutability": "view",
      "type": "function"
    },
    {
      "inputs": [],
      "name": "metadata",
      "outputs": [
        {
          "components": [
            {
              "internalType": "string",
              "name": "name",
              "type": "string"
            },
            {
              "components": [
                {
                  "internalType": "uint16",
                  "name": "major",
                  "type": "uint16"
                },
                {
                  "internalType": "uint16",
                  "name": "minor",
                  "type": "uint16"
                }
              ],
              "internalType": "struct Version",
              "name": "version",
              "type": "tuple"
            }
          ],
          "internalType": "struct ExtensionMetadata",
          "name": "",
          "type": "tuple"
        }
      ],
      "stateMutability": "pure",
      "type": "function"
    },
    {
      "inputs": [],
      "name": "name",
      "outputs": [
        {
          "internalType": "string",
          "name": "",
          "type": "string"
        }
      ],
      "stateMutability": "view",
      "type": "function"
    },
    {
      "inputs": [],
      "name": "reactivate",
      "outputs": [],
      "stateMutability": "nonpayable",
      "type": "function"
    },
    {
      "inputs": [
        {
          "internalType": "string",
          "name": "reason",
          "type": "string"
        }
      ],
      "name": "remove",
      "outputs": [],
      "stateMutability": "nonpayable",
      "type": "function"
    },
    {
      "inputs": [],
      "name": "termsOwner",
      "outputs": [
        {
          "internalType": "address",
          "name": "",
          "type": "address"
        }
      ],
      "stateMutability": "view",
      "type": "function"
    },
    {
      "inputs": [
        {
          "internalType": "address",
          "name": "myAddress",
          "type": "address"
        }
      ],
      "name": "upgrade",
      "outputs": [],
      "stateMutability": "nonpayable",
      "type": "function"
    },
    {
      "inputs": [],
      "name": "version",
      "outputs": [
        {
          "components": [
            {
              "internalType": "uint16",
              "name": "major",
              "type": "uint16"
            },
            {
              "internalType": "uint16",
              "name": "minor",
              "type": "uint16"
            }
          ],
          "internalType": "struct Version",
          "name": "",
          "type": "tuple"
        }
      ],
      "stateMutability": "pure",
      "type": "function"
    }
  ],
  "bytecode": "0x608060405234801561001057600080fd5b506115bd806100206000396000f3fe608060405234801561001057600080fd5b50600436106100b45760003560e01c806369a10a121161007157806369a10a121461013a57806369bd91941461014d5780637e6e15511461016d57806380599e4b1461018557806386b70bed14610198578063d18611d6146101a057600080fd5b806306fdde03146100b95780630900f010146100d757806327ee999d146100ea5780632a1b8f9b146100fd578063392f37e91461011057806354fd4d5014610125575b600080fd5b6100c16101a8565b6040516100ce9190610ece565b60405180910390f35b6100e86100e5366004610ee8565b50565b005b6100e86100f8366004610f27565b610243565b6100e861010b366004610ee8565b6102d5565b6101186105b0565b6040516100ce9190610fd8565b61012d610608565b6040516100ce9190611021565b6100e8610148366004611040565b610670565b610155610679565b6040516001600160a01b0390911681526020016100ce565b610175610698565b60405190151581526020016100ce565b6100e8610193366004610f27565b6106b0565b610175610735565b6100e8610748565b60606101b26107c1565b60020180546101c09061107b565b80601f01602080910402602001604051908101604052809291908181526020018280546101ec9061107b565b80156102395780601f1061020e57610100808354040283529160200191610239565b820191906000526020600020905b81548152906001019060200180831161021c57829003601f168201915b5050505050905090565b61024b6107c1565b600101546001600160a01b0316331461027f5760405162461bcd60e51b8152600401610276906110b5565b60405180910390fd5b60006102896107c1565b805460ff191691151591909117905560405133907f246589c99dd263c9b64a2b544e24074c282ca479ba3d2a0e649f9eeaca1e2d62906102ca908490610ece565b60405180910390a250565b60408051600680825260e08201909252600091816020015b6040805180820190915260008152606060208201528152602001906001900390816102ed57905050905060405180604001604052806327ee999d60e01b6001600160e01b03191681526020016040518060400160405280600c81526020016b64656163746976617465282960a01b8152508152508160008151811061037457610374611106565b6020026020010181905250604051806040016040528063d18611d660e01b6001600160e01b03191681526020016040518060400160405280600c81526020016b72656163746976617465282960a01b815250815250816001815181106103dc576103dc611106565b602002602001018190525060405180604001604052806380599e4b60e01b6001600160e01b03191681526020016040518060400160405280600e81526020016d72656d6f766528737472696e672960901b8152508152508160028151811061044657610446611106565b602002602001018190525060405180604001604052806386b70bed60e01b6001600160e01b03191681526020016040518060400160405280601081526020016f6973456e74697479416374697665282960801b815250815250816003815181106104b2576104b2611106565b60200260200101819052506040518060400160405280637e6e155160e01b6001600160e01b03191681526020016040518060400160405280600b81526020016a697352656d6f766564282960a81b8152508152508160048151811061051957610519611106565b602002602001018190525060405180604001604052806306fdde0360e01b6001600160e01b0319168152602001604051806040016040528060068152602001656e616d65282960d01b8152508152508160058151811061057b5761057b611106565b60200260200101819052506105ac6040518060400160405280846001600160a01b0316815260200183815250610857565b5050565b6105b8610e42565b506040805160808101825260128183019081527114995b5bdd98589b19515b9d1a5d1e515e1d60721b60608301528152815180830190925260018252600060208381019190915281019190915290565b604080518082019091526000808252602082015260405162461bcd60e51b815260206004820152602360248201527f52656d6f7661626c65456e746974794578743a206e6f7420696d706c656d656e6044820152621d195960ea1b6064820152608401610276565b6100e581610a1a565b60006106836107c1565b546201000090046001600160a01b0316919050565b60006106a26107c1565b54610100900460ff16919050565b6106b86107c1565b600101546001600160a01b031633146106e35760405162461bcd60e51b8152600401610276906110b5565b60016106ed6107c1565b80549115156101000261ff001990921691909117905560405133907fbf430175840309fcb4cce13557429998477f9f95733cb0d42c170af8aa225d06906102ca908490610ece565b600061073f6107c1565b5460ff16919050565b6107506107c1565b600101546001600160a01b0316331461077b5760405162461bcd60e51b8152600401610276906110b5565b60016107856107c1565b805460ff191691151591909117905560405133907f54ca6a4cb143be493713a7079cc0d6cdbbf0688ee68398b4354b056088f2cbf590600090a2565b60408051808201909152601881527f78722e61637469766174696f6e2e73746f726167652e7631000000000000000060209091015260008060ff61082660017ff6611e962a52dbc98dd0485088d920890c43e26113c61976f6e171a29d49ce49611132565b60405160200161083891815260200190565b60408051601f1981840301815291905280516020909101201692915050565b6000610861610c41565b82516001600160a01b031660009081526020829052604081209192505b836020015151811015610a14576000846020015182815181106108a3576108a3611106565b6020908102919091018101518051600486810180546001808201835560009283528683206008830401805463ffffffff600790941690950261010090810a9384021990951660e09690961c9290920294909417905583516001600160e01b0319168152918801909352604090208054919350916001600160a01b039104161561099c57805461010090046001600160a01b031660009081526020869052604081208751909190600187019061095790610ca6565b6020808701516040516109719493926001880191016111b8565b60405160208183030381529060405290508060405162461bcd60e51b81526004016102769190610ece565b50604080518082018252600180825287516001600160a01b03908116602080850191825295516001600160e01b0319166000908152898401909652939094209151825493516001600160a81b0319909416901515610100600160a81b031916176101009390941692909202929092179091550161087e565b50505050565b6000610a246107c1565b80549091506201000090046001600160a01b031615610a955760405162461bcd60e51b815260206004820152602760248201527f52656d6f7661626c65456e746974794578743a20616c726561647920696e69746044820152661a585b1a5e995960ca1b6064820152608401610276565b60018101546001600160a01b0316610b0b5760405162461bcd60e51b815260206004820152603360248201527f52656d6f7661626c65456e746974794578743a2072656769737472792063616e6044820152726e6f74206265207a65726f206164647265737360681b6064820152608401610276565b6000610b1d6040840160208501610ee8565b6001600160a01b031603610b925760405162461bcd60e51b815260206004820152603660248201527f52656d6f7661626c65456e746974794578743a207465726d73206f776e65722060448201527563616e6e6f74206265207a65726f206164647265737360501b6064820152608401610276565b610b9f60608301836112a2565b6002830191610baf919083611341565b50610bc06040830160208401610ee8565b815460ff196001600160a01b039290921662010000029190911661ff01600160b01b0319909116176001178155610bfa6080830183611402565b60038201610c088282611422565b50610c1b90506060830160408401610ee8565b60019190910180546001600160a01b0319166001600160a01b0390921691909117905550565b60408051808201909152601881527f78722e657874656e73696f6e732e73746f726167652e7631000000000000000060209091015260008060ff61082660017fb58ec9ca7ba0606d9fecd9f559655d0e5fec418e6751b65b892bccdfd25eb99f611132565b6060610cbc6001600160a01b0383166014610cc2565b92915050565b6060826000610cd2846002611546565b610cdd90600261155d565b67ffffffffffffffff811115610cf557610cf5610f11565b6040519080825280601f01601f191660200182016040528015610d1f576020820181803683370190505b509050600360fc1b81600081518110610d3a57610d3a611106565b60200101906001600160f81b031916908160001a905350600f60fb1b81600181518110610d6957610d69611106565b60200101906001600160f81b031916908160001a9053506000610d8d856002611546565b610d9890600161155d565b90505b6001811115610e10576f181899199a1a9b1b9c1cb0b131b232b360811b83600f1660108110610dcc57610dcc611106565b1a60f81b828281518110610de257610de2611106565b60200101906001600160f81b031916908160001a90535060049290921c91610e0981611570565b9050610d9b565b508115610e3a5760405163e22e27eb60e01b81526004810186905260248101859052604401610276565b949350505050565b604051806040016040528060608152602001610e796040518060400160405280600061ffff168152602001600061ffff1681525090565b905290565b60005b83811015610e99578181015183820152602001610e81565b50506000910152565b60008151808452610eba816020860160208601610e7e565b601f01601f19169290920160200192915050565b602081526000610ee16020830184610ea2565b9392505050565b600060208284031215610efa57600080fd5b81356001600160a01b0381168114610ee157600080fd5b634e487b7160e01b600052604160045260246000fd5b600060208284031215610f3957600080fd5b813567ffffffffffffffff80821115610f5157600080fd5b818401915084601f830112610f6557600080fd5b813581811115610f7757610f77610f11565b604051601f8201601f19908116603f01168101908382118183101715610f9f57610f9f610f11565b81604052828152876020848701011115610fb857600080fd5b826020860160208301376000928101602001929092525095945050505050565b602081526000825160606020840152610ff46080840182610ea2565b905060208401516110196040850182805161ffff908116835260209182015116910152565b509392505050565b60408101610cbc8284805161ffff908116835260209182015116910152565b60006020828403121561105257600080fd5b813567ffffffffffffffff81111561106957600080fd5b820160c08185031215610ee157600080fd5b600181811c9082168061108f57607f821691505b6020821081036110af57634e487b7160e01b600052602260045260246000fd5b50919050565b60208082526031908201527f52656d6f7661626c65456e746974794578743a207265737472696374656420746040820152706f206f776e696e6720726567697374727960781b606082015260800190565b634e487b7160e01b600052603260045260246000fd5b634e487b7160e01b600052601160045260246000fd5b81810381811115610cbc57610cbc61111c565b600081546111528161107b565b6001828116801561116a576001811461117f576111ae565b60ff19841687528215158302870194506111ae565b8560005260208060002060005b858110156111a55781548a82015290840190820161118c565b50505082870194505b5050505092915050565b7f4c6962457874656e73696f6e3a20657874656e73696f6e200000000000000000815260006111ea6018830187611145565b6c01030ba1030b2323932b9b99d1609d1b8152855161121081600d840160208a01610e7e565b8082019150507f20617474656d7074696e6720746f20726575736520612073656c6563746f723a600d820152600160fd1b80602d830152855161125a81602e850160208a01610e7e565b7f2c20776869636820697320616c72656164792072656769737465726564206279602e9390910192830152604e820152611297604f820185611145565b979650505050505050565b6000808335601e198436030181126112b957600080fd5b83018035915067ffffffffffffffff8211156112d457600080fd5b6020019150368190038213156112e957600080fd5b9250929050565b601f82111561133c576000816000526020600020601f850160051c810160208610156113195750805b601f850160051c820191505b8181101561133857828155600101611325565b5050505b505050565b67ffffffffffffffff83111561135957611359610f11565b61136d83611367835461107b565b836112f0565b6000601f8411600181146113a157600085156113895750838201355b600019600387901b1c1916600186901b1783556113fb565b600083815260209020601f19861690835b828110156113d257868501358255602094850194600190920191016113b2565b50868210156113ef5760001960f88860031b161c19848701351681555b505060018560011b0183555b5050505050565b6000823560be1983360301811261141857600080fd5b9190910192915050565b61142c82836112a2565b67ffffffffffffffff81111561144457611444610f11565b61145881611452855461107b565b856112f0565b6000601f82116001811461148c57600083156114745750838201355b600019600385901b1c1916600184901b1785556114e6565b600085815260209020601f19841690835b828110156114bd578685013582556020948501946001909201910161149d565b50848210156114da5760001960f88660031b161c19848701351681555b505060018360011b0185555b505050506114f760208301836112a2565b611505818360018601611341565b505061151460408301836112a2565b611522818360028601611341565b5050606082013560038201556080820135600482015560a082013560058201555050565b8082028115828204841417610cbc57610cbc61111c565b80820180821115610cbc57610cbc61111c565b60008161157f5761157f61111c565b50600019019056fea2646970667358221220914123627e7f7dfaeabf48ad74ac2e062727d5d3628e0091c318370498b4cdef64736f6c63430008180033",
  "linkReferences": {},
  "deployedLinkReferences": {}
}