{
  "_format": "hh-sol-artifact-1",
  "contractName": "SignersExtension",
  "sourceName": "contracts/core/extensions/signers/SignersExtension.sol",
  "abi": [
    {
      "anonymous": false,
      "inputs": [
        {
          "indexed": true,
          "internalType": "bytes32",
          "name": "role",
          "type": "bytes32"
        },
        {
          "indexed": true,
          "internalType": "address",
          "name": "account",
          "type": "address"
        }
      ],
      "name": "RoleGranted",
      "type": "event"
    },
    {
      "inputs": [
        {
          "internalType": "address[]",
          "name": "_signers",
          "type": "address[]"
        }
      ],
      "name": "addSigners",
      "outputs": [],
      "stateMutability": "nonpayable",
      "type": "function"
    },
    {
      "inputs": [
        {
          "internalType": "bytes32",
          "name": "role",
          "type": "bytes32"
        },
        {
          "internalType": "address",
          "name": "account",
          "type": "address"
        }
      ],
      "name": "hasRole",
      "outputs": [
        {
          "internalType": "bool",
          "name": "",
          "type": "bool"
        }
      ],
      "stateMutability": "view",
      "type": "function"
    },
    {
      "inputs": [
        {
          "internalType": "address",
          "name": "owner",
          "type": "address"
        },
        {
          "internalType": "string",
          "name": "",
          "type": "string"
        },
        {
          "internalType": "uint256",
          "name": "",
          "type": "uint256"
        },
        {
          "internalType": "bytes",
          "name": "",
          "type": "bytes"
        }
      ],
      "name": "initStorage",
      "outputs": [],
      "stateMutability": "nonpayable",
      "type": "function"
    },
    {
      "inputs": [
        {
          "internalType": "address",
          "name": "myAddress",
          "type": "address"
        }
      ],
      "name": "install",
      "outputs": [],
      "stateMutability": "nonpayable",
      "type": "function"
    },
    {
      "inputs": [
        {
          "internalType": "address",
          "name": "_signer",
          "type": "address"
        }
      ],
      "name": "isSigner",
      "outputs": [
        {
          "internalType": "bool",
          "name": "",
          "type": "bool"
        }
      ],
      "stateMutability": "view",
      "type": "function"
    },
    {
      "inputs": [],
      "name": "metadata",
      "outputs": [
        {
          "components": [
            {
              "internalType": "string",
              "name": "name",
              "type": "string"
            },
            {
              "internalType": "uint256",
              "name": "version",
              "type": "uint256"
            }
          ],
          "internalType": "struct ExtensionMetadata",
          "name": "",
          "type": "tuple"
        }
      ],
      "stateMutability": "pure",
      "type": "function"
    },
    {
      "inputs": [
        {
          "internalType": "address[]",
          "name": "_signers",
          "type": "address[]"
        }
      ],
      "name": "removeSigners",
      "outputs": [],
      "stateMutability": "nonpayable",
      "type": "function"
    },
    {
      "inputs": [
        {
          "internalType": "address",
          "name": "myAddress",
          "type": "address"
        },
        {
          "internalType": "uint256",
          "name": "currentVersion",
          "type": "uint256"
        }
      ],
      "name": "upgrade",
      "outputs": [],
      "stateMutability": "nonpayable",
      "type": "function"
    }
  ],
  "bytecode": "0x608060405234801561001057600080fd5b50610d61806100206000396000f3fe608060405234801561001057600080fd5b50600436106100885760003560e01c80638d361e431161005b5780638d361e431461014157806391d1485414610154578063e0622b2714610167578063e8906a2d1461017957600080fd5b80632a1b8f9b1461008d578063392f37e9146100a25780635efefd541461010b5780637df73e271461011e575b600080fd5b6100a061009b3660046109f6565b61018c565b005b6100f560408051808201909152606081526000602082015250604080516080810182526012918101918252711e1c8b98dbdc994b94da59db995c9cd15e1d60721b60608201529081526001602082015290565b6040516101029190610a13565b60405180910390f35b6100a0610119366004610abf565b61031d565b61013161012c3660046109f6565b610335565b6040519015158152602001610102565b6100a061014f366004610b4b565b6103ce565b610131610162366004610bc0565b6105e3565b6100a0610175366004610bf0565b5050565b6100a0610187366004610b4b565b610670565b60408051600380825260808201909252600091816020015b60408051808201909152600080825260208201528152602001906001900390816101a4575050604080518082019091526000808252637df73e2760e01b6020830152825192935090918391906101fc576101fc610c1c565b6020026020010181905250604051806040016040528060001515815260200163e8906a2d60e01b6001600160e01b0319168152508160018151811061024357610243610c1c565b60200260200101819052506040518060400160405280600015158152602001638d361e4360e01b6001600160e01b0319168152508160028151811061028a5761028a610c1c565b602002602001018190525073__$873ca04b9e3da3ca7cba95b77f569299f5$__63964d13f06040518060400160405280856001600160a01b03168152602001848152506040518263ffffffff1660e01b81526004016102e99190610c32565b60006040518083038186803b15801561030157600080fd5b505af4158015610315573d6000803e3d6000fd5b505050505050565b610315600080516020610d0c8339815191528761087b565b604051632474521560e21b8152600080516020610d0c83398151915260048201526001600160a01b038216602482015260009073__$a603c36e8140f8f0796c2626c9f8eff514$__906391d1485490604401602060405180830381865af41580156103a4573d6000803e3d6000fd5b505050506040513d601f19601f820116820180604052508101906103c89190610cab565b92915050565b336001600160a01b031673__$a603c36e8140f8f0796c2626c9f8eff514$__638da5cb5b6040518163ffffffff1660e01b8152600401602060405180830381865af4158015610421573d6000803e3d6000fd5b505050506040513d601f19601f820116820180604052508101906104459190610ccd565b6001600160a01b03161461049b5760405162461bcd60e51b81526020600482015260186024820152772130b9b2a2bc3a32b739b4b7b71d103737ba1037bbb732b960411b60448201526064015b60405180910390fd5b60005b818110156105de5760008383838181106104ba576104ba610c1c565b90506020020160208101906104cf91906109f6565b6001600160a01b0316036105255760405162461bcd60e51b815260206004820152601e60248201527f5369676e657273457874656e73696f6e3a207a65726f206164647265737300006044820152606401610492565b73__$a603c36e8140f8f0796c2626c9f8eff514$__63d547741f600080516020610d0c83398151915285858581811061056057610560610c1c565b905060200201602081019061057591906109f6565b6040516001600160e01b031960e085901b16815260048101929092526001600160a01b0316602482015260440160006040518083038186803b1580156105ba57600080fd5b505af41580156105ce573d6000803e3d6000fd5b50506001909201915061049e9050565b505050565b604051632474521560e21b8152600481018390526001600160a01b038216602482015260009073__$a603c36e8140f8f0796c2626c9f8eff514$__906391d1485490604401602060405180830381865af4158015610645573d6000803e3d6000fd5b505050506040513d601f19601f820116820180604052508101906106699190610cab565b9392505050565b336001600160a01b031673__$a603c36e8140f8f0796c2626c9f8eff514$__638da5cb5b6040518163ffffffff1660e01b8152600401602060405180830381865af41580156106c3573d6000803e3d6000fd5b505050506040513d601f19601f820116820180604052508101906106e79190610ccd565b6001600160a01b0316146107385760405162461bcd60e51b81526020600482015260186024820152772130b9b2a2bc3a32b739b4b7b71d103737ba1037bbb732b960411b6044820152606401610492565b60005b818110156105de57600083838381811061075757610757610c1c565b905060200201602081019061076c91906109f6565b6001600160a01b0316036107c25760405162461bcd60e51b815260206004820152601e60248201527f5369676e657273457874656e73696f6e3a207a65726f206164647265737300006044820152606401610492565b73__$a603c36e8140f8f0796c2626c9f8eff514$__632f2ff15d600080516020610d0c8339815191528585858181106107fd576107fd610c1c565b905060200201602081019061081291906109f6565b6040516001600160e01b031960e085901b16815260048101929092526001600160a01b0316602482015260440160006040518083038186803b15801561085757600080fd5b505af415801561086b573d6000803e3d6000fd5b50506001909201915061073b9050565b6001600160a01b0381166108e85760405162461bcd60e51b815260206004820152602e60248201527f4c69624163636573733a2063616e6e6f74206772616e7420726f6c652077697460448201526d68207a65726f206164647265737360901b6064820152608401610492565b60006108f2610951565b600084815260028201602090815260408083206001600160a01b0387168085529252808320805460ff19166001179055519293509185917f2ae6a113c0ed5b78a53413ffbb7679881f11145ccfba4fb92e863dfcd5a1d2f391a3505050565b60408051808201909152601481527378722e6163636573732e76312e73746f7261676560601b60209091015260008060ff6109ad60017f635029241f0ffc6f0ed7ed889a32900dcb67a3f08955f2b339ffb28b145bb4ec610cea565b6040516020016109bf91815260200190565b60408051601f1981840301815291905280516020909101201692915050565b6001600160a01b03811681146109f357600080fd5b50565b600060208284031215610a0857600080fd5b8135610669816109de565b60006020808352835160406020850152805180606086015260005b81811015610a4a57828101840151868201608001528301610a2e565b50600060808287010152602086015160408601526080601f19601f830116860101935050505092915050565b60008083601f840112610a8857600080fd5b50813567ffffffffffffffff811115610aa057600080fd5b602083019150836020828501011115610ab857600080fd5b9250929050565b60008060008060008060808789031215610ad857600080fd5b8635610ae3816109de565b9550602087013567ffffffffffffffff80821115610b0057600080fd5b610b0c8a838b01610a76565b9097509550604089013594506060890135915080821115610b2c57600080fd5b50610b3989828a01610a76565b979a9699509497509295939492505050565b60008060208385031215610b5e57600080fd5b823567ffffffffffffffff80821115610b7657600080fd5b818501915085601f830112610b8a57600080fd5b813581811115610b9957600080fd5b8660208260051b8501011115610bae57600080fd5b60209290920196919550909350505050565b60008060408385031215610bd357600080fd5b823591506020830135610be5816109de565b809150509250929050565b60008060408385031215610c0357600080fd5b8235610c0e816109de565b946020939093013593505050565b634e487b7160e01b600052603260045260246000fd5b602080825282516001600160a01b03168282015282810151604080840181905281516060850181905260009392830191849160808701905b80841015610c9f5784518051151583528601516001600160e01b03191686830152938501936001939093019290820190610c6a565b50979650505050505050565b600060208284031215610cbd57600080fd5b8151801515811461066957600080fd5b600060208284031215610cdf57600080fd5b8151610669816109de565b818103818111156103c857634e487b7160e01b600052601160045260246000fdfe749410edf1177aefa27612b24d2d51e6441f89613f5ddf9be1d11dfc0d3e4feaa264697066735822122053f54e08099e197af85318b40243a9e2ad5207dab290cfb5641c365ff0ca5d0b64736f6c63430008180033",
  "linkReferences": {
    "contracts/core/LibAccess.sol": {
      "LibAccess": [
        {
          "length": 20,
          "start": 906
        },
        {
          "length": 20,
          "start": 1018
        },
        {
          "length": 20,
          "start": 1351
        },
        {
          "length": 20,
          "start": 1579
        },
        {
          "length": 20,
          "start": 1692
        },
        {
          "length": 20,
          "start": 2020
        }
      ]
    },
    "contracts/core/LibExtensions.sol": {
      "LibExtensions": [
        {
          "length": 20,
          "start": 695
        }
      ]
    }
  },
  "deployedLinkReferences": {
    "contracts/core/LibAccess.sol": {
      "LibAccess": [
        {
          "length": 20,
          "start": 874
        },
        {
          "length": 20,
          "start": 986
        },
        {
          "length": 20,
          "start": 1319
        },
        {
          "length": 20,
          "start": 1547
        },
        {
          "length": 20,
          "start": 1660
        },
        {
          "length": 20,
          "start": 1988
        }
      ]
    },
    "contracts/core/LibExtensions.sol": {
      "LibExtensions": [
        {
          "length": 20,
          "start": 663
        }
      ]
    }
  }
}