{
  "_format": "hh-sol-artifact-1",
  "contractName": "TermsOwnerExt",
  "sourceName": "contracts/extensions/registry/TermsOwnerExt.sol",
  "abi": [
    {
      "inputs": [
        {
          "internalType": "uint256",
          "name": "value",
          "type": "uint256"
        },
        {
          "internalType": "uint256",
          "name": "length",
          "type": "uint256"
        }
      ],
      "name": "StringsInsufficientHexLength",
      "type": "error"
    },
    {
      "inputs": [
        {
          "components": [
            {
              "internalType": "address",
              "name": "owner",
              "type": "address"
            },
            {
              "internalType": "address",
              "name": "owningRegistry",
              "type": "address"
            },
            {
              "internalType": "address[]",
              "name": "admins",
              "type": "address[]"
            }
          ],
          "internalType": "struct ExtensionInitArgs",
          "name": "args",
          "type": "tuple"
        }
      ],
      "name": "initStorage",
      "outputs": [],
      "stateMutability": "nonpayable",
      "type": "function"
    },
    {
      "inputs": [
        {
          "internalType": "address",
          "name": "myAddress",
          "type": "address"
        }
      ],
      "name": "install",
      "outputs": [],
      "stateMutability": "nonpayable",
      "type": "function"
    },
    {
      "inputs": [],
      "name": "isStillActive",
      "outputs": [
        {
          "internalType": "bool",
          "name": "",
          "type": "bool"
        }
      ],
      "stateMutability": "view",
      "type": "function"
    },
    {
      "inputs": [
        {
          "internalType": "address",
          "name": "a",
          "type": "address"
        }
      ],
      "name": "isTermsOwnerSigner",
      "outputs": [
        {
          "internalType": "bool",
          "name": "",
          "type": "bool"
        }
      ],
      "stateMutability": "view",
      "type": "function"
    },
    {
      "inputs": [],
      "name": "metadata",
      "outputs": [
        {
          "components": [
            {
              "internalType": "string",
              "name": "name",
              "type": "string"
            },
            {
              "components": [
                {
                  "internalType": "uint16",
                  "name": "major",
                  "type": "uint16"
                },
                {
                  "internalType": "uint16",
                  "name": "minor",
                  "type": "uint16"
                }
              ],
              "internalType": "struct Version",
              "name": "version",
              "type": "tuple"
            }
          ],
          "internalType": "struct ExtensionMetadata",
          "name": "",
          "type": "tuple"
        }
      ],
      "stateMutability": "pure",
      "type": "function"
    },
    {
      "inputs": [
        {
          "internalType": "address",
          "name": "myAddress",
          "type": "address"
        }
      ],
      "name": "upgrade",
      "outputs": [],
      "stateMutability": "nonpayable",
      "type": "function"
    }
  ],
  "bytecode": "0x608060405234801561001057600080fd5b50610b37806100206000396000f3fe608060405234801561001057600080fd5b50600436106100625760003560e01c80630900f010146100675780630a7ee8a01461007a5780632a1b8f9b146100a2578063392f37e9146100b55780634f05c1c8146100ca578063729963c0146100d2575b600080fd5b6100786100753660046107af565b50565b005b61008d6100883660046107af565b6100e0565b60405190151581526020015b60405180910390f35b6100786100b03660046107af565b610165565b6100bd6102b5565b604051610099919061082f565b61008d610308565b610078610075366004610874565b604051637df73e2760e01b81526001600160a01b038216600482015260009073__$a5a42e46683ad9c79b7b86d5ff60fdf4c1$__90637df73e2790602401602060405180830381865af415801561013b573d6000803e3d6000fd5b505050506040513d601f19601f8201168201806040525081019061015f91906108af565b92915050565b60408051600280825260608201909252600091816020015b60408051808201909152600081526060602082015281526020019060019003908161017d5790505090506040518060400160405280634f05c1c860e01b6001600160e01b03191681526020016040518060400160405280600f81526020016e69735374696c6c416374697665282960881b81525081525081600081518110610207576102076108e7565b60200260200101819052506040518060400160405280630a7ee8a060e01b6001600160e01b03191681526020016040518060400160405280601b81526020017f69735465726d734f776e65725369676e6572286164647265737329000000000081525081525081600181518110610280576102806108e7565b60200260200101819052506102b16040518060400160405280846001600160a01b031681526020018381525061031b565b5050565b6102bd610773565b5060408051608081018252600d8183019081526c15195c9b5cd3dddb995c915e1d609a1b60608301528152815180830190925260018252600060208381019190915281019190915290565b60006103126104e7565b5460ff16919050565b600061032561057d565b82516001600160a01b031660009081526020829052604081209192505b8360200151518110156104e157600084602001518281518110610367576103676108e7565b6020908102919091018101518051600486810180546001808201835560009283528683206008830401805463ffffffff600790941690950261010090810a9384021990951660e09690961c9290920294909417905583516001600160e01b0319168152918801909352604090208054919350916001600160a01b039104161561046957805461010090046001600160a01b031660009081526020869052604081208751909190600187019061041b906105e2565b60208087015160405161043594939260018801910161099a565b60405160208183030381529060405290508060405162461bcd60e51b81526004016104609190610a84565b60405180910390fd5b50604080518082018252600180825287516001600160a01b03908116602080850191825295516001600160e01b0319166000908152898401909652939094209151825493516001600160a81b0319909416901515610100600160a81b0319161761010093909416929092029290921790915501610342565b50505050565b60408051808201909152601881527f78722e61637469766174696f6e2e73746f726167652e7631000000000000000060209091015260008060ff61054c60017ff6611e962a52dbc98dd0485088d920890c43e26113c61976f6e171a29d49ce49610aad565b60405160200161055e91815260200190565b60408051601f1981840301815291905280516020909101201692915050565b60408051808201909152601881527f78722e657874656e73696f6e732e73746f726167652e7631000000000000000060209091015260008060ff61054c60017fb58ec9ca7ba0606d9fecd9f559655d0e5fec418e6751b65b892bccdfd25eb99f610aad565b606061015f6001600160a01b03831660146060826000610603846002610ac0565b61060e906002610ad7565b67ffffffffffffffff811115610626576106266108d1565b6040519080825280601f01601f191660200182016040528015610650576020820181803683370190505b509050600360fc1b8160008151811061066b5761066b6108e7565b60200101906001600160f81b031916908160001a905350600f60fb1b8160018151811061069a5761069a6108e7565b60200101906001600160f81b031916908160001a90535060006106be856002610ac0565b6106c9906001610ad7565b90505b6001811115610741576f181899199a1a9b1b9c1cb0b131b232b360811b83600f16601081106106fd576106fd6108e7565b1a60f81b828281518110610713576107136108e7565b60200101906001600160f81b031916908160001a90535060049290921c9161073a81610aea565b90506106cc565b50811561076b5760405163e22e27eb60e01b81526004810186905260248101859052604401610460565b949350505050565b6040518060400160405280606081526020016107aa6040518060400160405280600061ffff168152602001600061ffff1681525090565b905290565b6000602082840312156107c157600080fd5b81356001600160a01b03811681146107d857600080fd5b9392505050565b60005b838110156107fa5781810151838201526020016107e2565b50506000910152565b6000815180845261081b8160208601602086016107df565b601f01601f19169290920160200192915050565b60208152600082516060602084015261084b6080840182610803565b602094850151805161ffff90811660408701529501519094166060909301929092525090919050565b60006020828403121561088657600080fd5b813567ffffffffffffffff81111561089d57600080fd5b8201606081850312156107d857600080fd5b6000602082840312156108c157600080fd5b815180151581146107d857600080fd5b634e487b7160e01b600052604160045260246000fd5b634e487b7160e01b600052603260045260246000fd5b8054600090600181811c908083168061091757607f831692505b6020808410820361093857634e487b7160e01b600052602260045260246000fd5b81801561094c57600181146109615761098e565b60ff198616895284151585028901965061098e565b60008881526020902060005b868110156109865781548b82015290850190830161096d565b505084890196505b50505050505092915050565b7f4c6962457874656e73696f6e3a20657874656e73696f6e200000000000000000815260006109cc60188301876108fd565b6c01030ba1030b2323932b9b99d1609d1b815285516109f281600d840160208a016107df565b8082019150507f20617474656d7074696e6720746f20726575736520612073656c6563746f723a600d820152600160fd1b80602d8301528551610a3c81602e850160208a016107df565b7f2c20776869636820697320616c72656164792072656769737465726564206279602e9390910192830152604e820152610a79604f8201856108fd565b979650505050505050565b6020815260006107d86020830184610803565b634e487b7160e01b600052601160045260246000fd5b8181038181111561015f5761015f610a97565b808202811582820484141761015f5761015f610a97565b8082018082111561015f5761015f610a97565b600081610af957610af9610a97565b50600019019056fea26469706673582212206bcfab15e8b5a14ab9e94bd8d84c50dc9025f74e2f46d803dcb011f2f6a14b5464736f6c63430008180033",
  "linkReferences": {
    "contracts/libraries/LibAccess.sol": {
      "LibAccess": [
        {
          "length": 20,
          "start": 289
        }
      ]
    }
  },
  "deployedLinkReferences": {
    "contracts/libraries/LibAccess.sol": {
      "LibAccess": [
        {
          "length": 20,
          "start": 257
        }
      ]
    }
  }
}