{
  "_format": "hh-sol-artifact-1",
  "contractName": "TermsOwnerExt",
  "sourceName": "contracts/entity/extensions/terms-owner/TermsOwnerExt.sol",
  "abi": [
    {
      "inputs": [],
      "name": "getTerms",
      "outputs": [
        {
          "components": [
            {
              "internalType": "uint256",
              "name": "fee",
              "type": "uint256"
            },
            {
              "internalType": "uint256",
              "name": "coveragePeriodDays",
              "type": "uint256"
            },
            {
              "internalType": "uint256",
              "name": "gracePeriodDays",
              "type": "uint256"
            }
          ],
          "internalType": "struct RegistrationTerms",
          "name": "",
          "type": "tuple"
        }
      ],
      "stateMutability": "view",
      "type": "function"
    },
    {
      "inputs": [
        {
          "internalType": "bytes32",
          "name": "role",
          "type": "bytes32"
        },
        {
          "internalType": "address",
          "name": "account",
          "type": "address"
        }
      ],
      "name": "hasRole",
      "outputs": [
        {
          "internalType": "bool",
          "name": "",
          "type": "bool"
        }
      ],
      "stateMutability": "view",
      "type": "function"
    },
    {
      "inputs": [
        {
          "internalType": "address",
          "name": "",
          "type": "address"
        },
        {
          "internalType": "string",
          "name": "",
          "type": "string"
        },
        {
          "internalType": "uint256",
          "name": "",
          "type": "uint256"
        },
        {
          "internalType": "bytes",
          "name": "initData",
          "type": "bytes"
        }
      ],
      "name": "initStorage",
      "outputs": [],
      "stateMutability": "nonpayable",
      "type": "function"
    },
    {
      "inputs": [
        {
          "internalType": "address",
          "name": "myAddress",
          "type": "address"
        }
      ],
      "name": "install",
      "outputs": [],
      "stateMutability": "nonpayable",
      "type": "function"
    },
    {
      "inputs": [],
      "name": "isStillActive",
      "outputs": [
        {
          "internalType": "bool",
          "name": "",
          "type": "bool"
        }
      ],
      "stateMutability": "view",
      "type": "function"
    },
    {
      "inputs": [
        {
          "internalType": "address",
          "name": "a",
          "type": "address"
        }
      ],
      "name": "isTermsOwnerSigner",
      "outputs": [
        {
          "internalType": "bool",
          "name": "",
          "type": "bool"
        }
      ],
      "stateMutability": "view",
      "type": "function"
    },
    {
      "inputs": [],
      "name": "metadata",
      "outputs": [
        {
          "components": [
            {
              "internalType": "string",
              "name": "name",
              "type": "string"
            },
            {
              "internalType": "uint256",
              "name": "version",
              "type": "uint256"
            }
          ],
          "internalType": "struct ExtensionMetadata",
          "name": "",
          "type": "tuple"
        }
      ],
      "stateMutability": "pure",
      "type": "function"
    },
    {
      "inputs": [
        {
          "components": [
            {
              "internalType": "uint256",
              "name": "fee",
              "type": "uint256"
            },
            {
              "internalType": "uint256",
              "name": "coveragePeriodDays",
              "type": "uint256"
            },
            {
              "internalType": "uint256",
              "name": "gracePeriodDays",
              "type": "uint256"
            }
          ],
          "internalType": "struct RegistrationTerms",
          "name": "terms",
          "type": "tuple"
        }
      ],
      "name": "setTerms",
      "outputs": [],
      "stateMutability": "nonpayable",
      "type": "function"
    },
    {
      "inputs": [
        {
          "internalType": "address",
          "name": "myAddress",
          "type": "address"
        },
        {
          "internalType": "uint256",
          "name": "currentVersion",
          "type": "uint256"
        }
      ],
      "name": "upgrade",
      "outputs": [],
      "stateMutability": "nonpayable",
      "type": "function"
    }
  ],
  "bytecode": "0x608060405234801561001057600080fd5b50610c59806100206000396000f3fe608060405234801561001057600080fd5b50600436106100935760003560e01c80634173b417116100665780634173b417146101535780634f05c1c81461017d5780635efefd541461018557806391d1485414610198578063e0622b27146101ab57600080fd5b80630a7ee8a0146100985780632a1b8f9b146100c057806331d582fc146100d5578063392f37e9146100e8575b600080fd5b6100ab6100a63660046108de565b6101bd565b60405190151581526020015b60405180910390f35b6100d36100ce3660046108de565b610268565b005b6100d36100e33660046108fb565b610440565b610146604080518082019091526060815260006020820152506040805160808101825260179181019182527f78722e656e746974792e5465726d734f776e657245787400000000000000000060608201529081526001602082015290565b6040516100b79190610913565b61015b610647565b60408051825181526020808401519082015291810151908201526060016100b7565b6100ab61069a565b6100d36101933660046109bf565b6106ad565b6100ab6101a6366004610a4b565b610777565b6100d36101b9366004610a7b565b5050565b604051632474521560e21b81527f749410edf1177aefa27612b24d2d51e6441f89613f5ddf9be1d11dfc0d3e4fea60048201526001600160a01b038216602482015260009073__$a603c36e8140f8f0796c2626c9f8eff514$__906391d1485490604401602060405180830381865af415801561023e573d6000803e3d6000fd5b505050506040513d601f19601f820116820180604052508101906102629190610aa7565b92915050565b60408051600480825260a08201909252600091816020015b6040805180820190915260008082526020820152815260200190600190039081610280575050604080518082019091526000808252630c7560bf60e21b6020830152825192935090918391906102d8576102d8610ac9565b60200260200101819052506040518060400160405280600015158152602001634173b41760e01b6001600160e01b0319168152508160018151811061031f5761031f610ac9565b60200260200101819052506040518060400160405280600015158152602001634f05c1c860e01b6001600160e01b0319168152508160028151811061036657610366610ac9565b60200260200101819052506040518060400160405280600015158152602001630a7ee8a060e01b6001600160e01b031916815250816003815181106103ad576103ad610ac9565b602002602001018190525073__$873ca04b9e3da3ca7cba95b77f569299f5$__63964d13f06040518060400160405280856001600160a01b03168152602001848152506040518263ffffffff1660e01b815260040161040c9190610adf565b60006040518083038186803b15801561042457600080fd5b505af4158015610438573d6000803e3d6000fd5b505050505050565b604051632474521560e21b81527f2172861495e7b85edac73e3cd5fbb42dd675baadf627720e687bcfdaca025096600482015233602482015273__$a603c36e8140f8f0796c2626c9f8eff514$__906391d1485490604401602060405180830381865af41580156104b5573d6000803e3d6000fd5b505050506040513d601f19601f820116820180604052508101906104d99190610aa7565b806105615750336001600160a01b031673__$a603c36e8140f8f0796c2626c9f8eff514$__638da5cb5b6040518163ffffffff1660e01b8152600401602060405180830381865af4158015610532573d6000803e3d6000fd5b505050506040513d601f19601f820116820180604052508101906105569190610b58565b6001600160a01b0316145b6105b25760405162461bcd60e51b815260206004820152601860248201527f42617365457874656e73696f6e3a206e6f742061646d696e000000000000000060448201526064015b60405180910390fd5b60008160400135116106215760405162461bcd60e51b815260206004820152603260248201527f5465726d734f776e65724578743a20677261636520706572696f64206d75737460448201527102062652067726561746572207468616e20360741b60648201526084016105a9565b8061062a610804565b813581556020820135600182015560408201356002820155505050565b61066b60405180606001604052806000815260200160008152602001600081525090565b610673610804565b60408051606081018252825481526001830154602082015260029092015490820152919050565b60006106a461086a565b5460ff16919050565b60006106bb82840184610b75565b9050600081604001511161074b5760405162461bcd60e51b815260206004820152604b60248201527f5265676973747261723a20677261636520706572696f64206d7573742062652060448201527f67726561746572207468616e2030207265676172646c657373206f662074657260648201526a6d7320636f76657261676560a81b608482015260a4016105a9565b80610754610804565b815181556020820151600182015560409091015160029091015550505050505050565b604051632474521560e21b8152600481018390526001600160a01b038216602482015260009073__$a603c36e8140f8f0796c2626c9f8eff514$__906391d1485490604401602060405180830381865af41580156107d9573d6000803e3d6000fd5b505050506040513d601f19601f820116820180604052508101906107fd9190610aa7565b9392505050565b60008060ff60001b6001604051806060016040528060238152602001610c016023913980516020909101206108399190610bdf565b60405160200161084b91815260200190565b60408051601f1981840301815291905280516020909101201692915050565b60408051808201909152601481527378722e656e746974792e76312e73746f7261676560601b60209091015260008060ff61083960017f84ac6d389319b31dfa7e40b43a93bfd20be6d560d5d23ad6fb0131d161f3e470610bdf565b6001600160a01b03811681146108db57600080fd5b50565b6000602082840312156108f057600080fd5b81356107fd816108c6565b60006060828403121561090d57600080fd5b50919050565b60006020808352835160406020850152805180606086015260005b8181101561094a5782810184015186820160800152830161092e565b50600060808287010152602086015160408601526080601f19601f830116860101935050505092915050565b60008083601f84011261098857600080fd5b50813567ffffffffffffffff8111156109a057600080fd5b6020830191508360208285010111156109b857600080fd5b9250929050565b600080600080600080608087890312156109d857600080fd5b86356109e3816108c6565b9550602087013567ffffffffffffffff80821115610a0057600080fd5b610a0c8a838b01610976565b9097509550604089013594506060890135915080821115610a2c57600080fd5b50610a3989828a01610976565b979a9699509497509295939492505050565b60008060408385031215610a5e57600080fd5b823591506020830135610a70816108c6565b809150509250929050565b60008060408385031215610a8e57600080fd5b8235610a99816108c6565b946020939093013593505050565b600060208284031215610ab957600080fd5b815180151581146107fd57600080fd5b634e487b7160e01b600052603260045260246000fd5b602080825282516001600160a01b03168282015282810151604080840181905281516060850181905260009392830191849160808701905b80841015610b4c5784518051151583528601516001600160e01b03191686830152938501936001939093019290820190610b17565b50979650505050505050565b600060208284031215610b6a57600080fd5b81516107fd816108c6565b600060608284031215610b8757600080fd5b6040516060810181811067ffffffffffffffff82111715610bb857634e487b7160e01b600052604160045260246000fd5b80604052508235815260208301356020820152604083013560408201528091505092915050565b8181038181111561026257634e487b7160e01b600052601160045260246000fdfe78722e726567697374726174696f6e2e7465726d732e6f776e65722e73746f72616765a264697066735822122001ceffce61358af3395d650d29dc913146e417fd873b86e76c1fd0c1bba4210864736f6c63430008180033",
  "linkReferences": {
    "contracts/core/LibAccess.sol": {
      "LibAccess": [
        {
          "length": 20,
          "start": 548
        },
        {
          "length": 20,
          "start": 1179
        },
        {
          "length": 20,
          "start": 1291
        },
        {
          "length": 20,
          "start": 1983
        }
      ]
    },
    "contracts/core/LibExtensions.sol": {
      "LibExtensions": [
        {
          "length": 20,
          "start": 986
        }
      ]
    }
  },
  "deployedLinkReferences": {
    "contracts/core/LibAccess.sol": {
      "LibAccess": [
        {
          "length": 20,
          "start": 516
        },
        {
          "length": 20,
          "start": 1147
        },
        {
          "length": 20,
          "start": 1259
        },
        {
          "length": 20,
          "start": 1951
        }
      ]
    },
    "contracts/core/LibExtensions.sol": {
      "LibExtensions": [
        {
          "length": 20,
          "start": 954
        }
      ]
    }
  }
}