{
  "_format": "hh-sol-artifact-1",
  "contractName": "WorldRegistry",
  "sourceName": "contracts/world/registry/WorldRegistry.sol",
  "abi": [
    {
      "inputs": [
        {
          "components": [
            {
              "internalType": "address",
              "name": "owner",
              "type": "address"
            },
            {
              "internalType": "address",
              "name": "vectorAuthority",
              "type": "address"
            },
            {
              "internalType": "address",
              "name": "extensionsRegistry",
              "type": "address"
            },
            {
              "internalType": "address",
              "name": "registrarRegistry",
              "type": "address"
            },
            {
              "internalType": "address[]",
              "name": "admins",
              "type": "address[]"
            }
          ],
          "internalType": "struct WorldRegistryConstructorArgs",
          "name": "args",
          "type": "tuple"
        }
      ],
      "stateMutability": "nonpayable",
      "type": "constructor"
    },
    {
      "anonymous": false,
      "inputs": [
        {
          "indexed": false,
          "internalType": "string",
          "name": "name",
          "type": "string"
        }
      ],
      "name": "ExtensionDisabled",
      "type": "event"
    },
    {
      "anonymous": false,
      "inputs": [
        {
          "indexed": false,
          "internalType": "string",
          "name": "name",
          "type": "string"
        }
      ],
      "name": "ExtensionEnabled",
      "type": "event"
    },
    {
      "anonymous": false,
      "inputs": [
        {
          "indexed": false,
          "internalType": "string",
          "name": "name",
          "type": "string"
        },
        {
          "components": [
            {
              "internalType": "uint16",
              "name": "major",
              "type": "uint16"
            },
            {
              "internalType": "uint16",
              "name": "minor",
              "type": "uint16"
            }
          ],
          "indexed": false,
          "internalType": "struct Version",
          "name": "version",
          "type": "tuple"
        }
      ],
      "name": "ExtensionInstalled",
      "type": "event"
    },
    {
      "anonymous": false,
      "inputs": [
        {
          "indexed": false,
          "internalType": "string",
          "name": "name",
          "type": "string"
        },
        {
          "components": [
            {
              "internalType": "uint16",
              "name": "major",
              "type": "uint16"
            },
            {
              "internalType": "uint16",
              "name": "minor",
              "type": "uint16"
            }
          ],
          "indexed": false,
          "internalType": "struct Version",
          "name": "version",
          "type": "tuple"
        }
      ],
      "name": "ExtensionRolledBack",
      "type": "event"
    },
    {
      "anonymous": false,
      "inputs": [
        {
          "indexed": false,
          "internalType": "string",
          "name": "name",
          "type": "string"
        },
        {
          "components": [
            {
              "internalType": "uint16",
              "name": "major",
              "type": "uint16"
            },
            {
              "internalType": "uint16",
              "name": "minor",
              "type": "uint16"
            }
          ],
          "indexed": false,
          "internalType": "struct Version",
          "name": "version",
          "type": "tuple"
        }
      ],
      "name": "ExtensionUpgraded",
      "type": "event"
    },
    {
      "anonymous": false,
      "inputs": [
        {
          "indexed": false,
          "internalType": "bytes4",
          "name": "selector",
          "type": "bytes4"
        }
      ],
      "name": "SelectorDisabled",
      "type": "event"
    },
    {
      "anonymous": false,
      "inputs": [
        {
          "indexed": false,
          "internalType": "bytes4",
          "name": "selector",
          "type": "bytes4"
        }
      ],
      "name": "SelectorEnabled",
      "type": "event"
    },
    {
      "stateMutability": "payable",
      "type": "fallback"
    },
    {
      "inputs": [
        {
          "internalType": "address",
          "name": "a",
          "type": "address"
        }
      ],
      "name": "addVectorAddressAuthority",
      "outputs": [],
      "stateMutability": "nonpayable",
      "type": "function"
    },
    {
      "inputs": [],
      "name": "extRegistry",
      "outputs": [
        {
          "internalType": "contract ICoreExtensionRegistry",
          "name": "",
          "type": "address"
        }
      ],
      "stateMutability": "view",
      "type": "function"
    },
    {
      "inputs": [
        {
          "internalType": "string",
          "name": "name",
          "type": "string"
        }
      ],
      "name": "getExtensionVersion",
      "outputs": [
        {
          "components": [
            {
              "internalType": "uint16",
              "name": "major",
              "type": "uint16"
            },
            {
              "internalType": "uint16",
              "name": "minor",
              "type": "uint16"
            }
          ],
          "internalType": "struct Version",
          "name": "",
          "type": "tuple"
        }
      ],
      "stateMutability": "view",
      "type": "function"
    },
    {
      "inputs": [
        {
          "internalType": "string",
          "name": "name",
          "type": "string"
        },
        {
          "components": [
            {
              "internalType": "uint16",
              "name": "major",
              "type": "uint16"
            },
            {
              "internalType": "uint16",
              "name": "minor",
              "type": "uint16"
            }
          ],
          "internalType": "struct Version",
          "name": "version",
          "type": "tuple"
        }
      ],
      "name": "hasExtension",
      "outputs": [
        {
          "internalType": "bool",
          "name": "",
          "type": "bool"
        }
      ],
      "stateMutability": "view",
      "type": "function"
    },
    {
      "inputs": [
        {
          "internalType": "address",
          "name": "a",
          "type": "address"
        }
      ],
      "name": "isVectorAddressAuthority",
      "outputs": [
        {
          "internalType": "bool",
          "name": "",
          "type": "bool"
        }
      ],
      "stateMutability": "view",
      "type": "function"
    },
    {
      "inputs": [],
      "name": "registrarRegistry",
      "outputs": [
        {
          "internalType": "address",
          "name": "",
          "type": "address"
        }
      ],
      "stateMutability": "view",
      "type": "function"
    },
    {
      "inputs": [
        {
          "internalType": "address",
          "name": "a",
          "type": "address"
        }
      ],
      "name": "removeVectorAddressAuthority",
      "outputs": [],
      "stateMutability": "nonpayable",
      "type": "function"
    },
    {
      "inputs": [
        {
          "internalType": "uint256",
          "name": "amount",
          "type": "uint256"
        }
      ],
      "name": "withdraw",
      "outputs": [],
      "stateMutability": "nonpayable",
      "type": "function"
    },
    {
      "stateMutability": "payable",
      "type": "receive"
    }
  ],
  "bytecode": "0x60c06040523480156200001157600080fd5b506040516200233b3803806200233b833981016040819052620000349162000e40565b60408101516001600160a01b038116620000bb5760405162461bcd60e51b815260206004820152603560248201527f42617369635368656c6c3a20657874656e73696f6e207265676973747279206360448201527f616e6e6f74206265207a65726f2061646472657373000000000000000000000060648201526084015b60405180910390fd5b6001600160a01b03908116608052606082015116620001435760405162461bcd60e51b815260206004820152603760248201527f576f726c6452656769737472793a20726567697374726172526567697374727960448201527f2063616e6e6f74206265207a65726f20616464726573730000000000000000006064820152608401620000b2565b60208101516001600160a01b0316620001c55760405162461bcd60e51b815260206004820152603560248201527f576f726c6452656769737472793a20766563746f72417574686f72697479206360448201527f616e6e6f74206265207a65726f206164647265737300000000000000000000006064820152608401620000b2565b60608101516001600160a01b031660a05260408051600580825260c08201909252600091816020015b6060815260200190600190039081620001ee579050509050604051806040016040528060098152602001681058d8d95cdcd15e1d60ba1b815250816000815181106200023e576200023e62000f76565b60200260200101819052506040518060400160405280600a815260200169119858dd1bdc9e515e1d60b21b8152508160018151811062000282576200028262000f76565b60200260200101819052506040518060400160405280601481526020017f576f726c64526567697374726174696f6e45787400000000000000000000000081525081600281518110620002d957620002d962000f76565b60200260200101819052506040518060400160405280600f81526020016e15dbdc9b1914995b5bdd985b115e1d608a1b8152508160038151811062000322576200032262000f76565b60200260200101819052506040518060400160405280601281526020017110da185b99d9549959da5cdd1c985c915e1d60721b815250816004815181106200036e576200036e62000f76565b60200260200101819052506000604051806060016040528084600001516001600160a01b0316815260200184608001518152602001838152509050620003ba81620003f960201b60201c565b620003f07ff4624c0c441d71d84320078141641151f1c713f1d4d2a15382f6a42904d8d1388460200151620005cd60201b60201c565b505050620013fd565b60005b81604001515181101562000559578160400151818151811062000423576200042362000f76565b60200260200101515160000315620005505760006080516001600160a01b031663c22707ee8460400151848151811062000461576200046162000f76565b60200260200101516040518263ffffffff1660e01b815260040162000487919062000fe0565b602060405180830381865afa158015620004a5573d6000803e3d6000fd5b505050506040513d601f19601f82011682018060405250810190620004cb919062000ffc565b9050600083604001518381518110620004e857620004e862000f76565b60200260200101516040516020016200050291906200101a565b60408051601f198184030181529190529050806001600160a01b0383166200053f5760405162461bcd60e51b8152600401620000b2919062000fe0565b50816200054c8162000680565b5050505b600101620003fc565b508051602082015160405163d9ac971f60e01b815273__$a5a42e46683ad9c79b7b86d5ff60fdf4c1$__9263d9ac971f9262000598926004016200106b565b60006040518083038186803b158015620005b157600080fd5b505af4158015620005c6573d6000803e3d6000fd5b5050505050565b6001600160a01b0381166200063e5760405162461bcd60e51b815260206004820152603060248201527f416363657373436f6e74726f6c3a2063616e6e6f74206772616e7420726f6c6560448201526f20746f207a65726f206164647265737360801b6064820152608401620000b2565b60006200064a62000a26565b60009384526001908101602090815260408086206001600160a01b03909516865293905291909220805460ff1916909117905550565b60006200068c62000abf565b90506040518060800160405280600115158152602001836001600160a01b031663392f37e96040518163ffffffff1660e01b8152600401600060405180830381865afa158015620006e1573d6000803e3d6000fd5b505050506040513d6000823e601f3d908101601f191682016040526200070b919081019062001121565b81526001600160a01b038416602082015260400160006040519080825280602002602001820160405280156200074b578160200160208202803683370190505b5090526001600160a01b0383166000908152602083815260409091208251815460ff1916901515178155908201518051600183019081906200078e908262001294565b506020918201518051600190920180549184015161ffff908116620100000263ffffffff1990931693169290921717905560408301516003830180546001600160a01b039092166001600160a01b03199092169190911790556060830151805162000800926004850192019062000cca565b50505060038101805460018101825560009182526020918290200180546001600160a01b0319166001600160a01b038516908117909155604080516024808201939093528151808203909301835260440190529081018051632a1b8f9b60e01b6001600160e01b03918216179091526200087f908490839062000b2616565b506000836001600160a01b031663392f37e96040518163ffffffff1660e01b8152600401600060405180830381865afa158015620008c1573d6000803e3d6000fd5b505050506040513d6000823e601f3d908101601f19168201604052620008eb919081019062001121565b8051909150600090620008fe9062000bfd565b905060006001600160a01b031684600201826040516200091f919062001360565b908152604051908190036020019020546001600160a01b031614620009995760405162461bcd60e51b815260206004820152602960248201527f4c6962457874656e73696f6e3a20657874656e73696f6e20616c7265616479206044820152681a5b9cdd185b1b195960ba1b6064820152608401620000b2565b848460020182604051620009ae919062001360565b908152602001604051809103902060006101000a8154816001600160a01b0302191690836001600160a01b031602179055507ffe9a3a52d7e1a3740350821816e344a482f9611bc09285fa4132de9645b41bae81836020015160405162000a179291906200137e565b60405180910390a15050505050565b60408051808201909152601481527f78722e6163636573732e73746f726167652e763100000000000000000000000060209091015260008060ff62000a8d60017fd870894b15ee1369a593f3670ac51c4ed8201dab473944ee712694d327dd5875620013cb565b60405160200162000aa091815260200190565b60408051601f1981840301815291905280516020909101201692915050565b60408051808201909152601881527f78722e657874656e73696f6e732e73746f726167652e7631000000000000000060209091015260008060ff62000a8d60017fb58ec9ca7ba0606d9fecd9f559655d0e5fec418e6751b65b892bccdfd25eb99f620013cb565b6060600080846001600160a01b03168460405162000b45919062001360565b600060405180830381855af49150503d806000811462000b82576040519150601f19603f3d011682016040523d82523d6000602084013e62000b87565b606091505b5091509150811562000b9d57915062000bf79050565b80511562000bae5780518082602001fd5b60405162461bcd60e51b815260206004820152601660248201527f46756e6374696f6e2063616c6c207265766572746564000000000000000000006044820152606401620000b2565b92915050565b60608160005b815181101562000c705762000c3b82828151811062000c265762000c2662000f76565b01602001516001600160f81b03191662000c77565b82828151811062000c505762000c5062000f76565b60200101906001600160f81b031916908160001a90535060010162000c03565b5092915050565b6000604160f81b6001600160f81b031983161080159062000ca65750602d60f91b6001600160f81b0319831611155b1562000cc65762000cbd60f883901c6020620013e1565b60f81b92915050565b5090565b8280548282559060005260206000209060070160089004810192821562000d6b5791602002820160005b8382111562000d3757835183826101000a81548163ffffffff021916908360e01c0217905550926020019260040160208160030104928301926001030262000cf4565b801562000d695782816101000a81549063ffffffff021916905560040160208160030104928301926001030262000d37565b505b5062000cc69291505b8082111562000cc6576000815560010162000d74565b634e487b7160e01b600052604160045260246000fd5b60405160a081016001600160401b038111828210171562000dc55762000dc562000d8a565b60405290565b604080519081016001600160401b038111828210171562000dc55762000dc562000d8a565b604051601f8201601f191681016001600160401b038111828210171562000e1b5762000e1b62000d8a565b604052919050565b80516001600160a01b038116811462000e3b57600080fd5b919050565b6000602080838503121562000e5457600080fd5b82516001600160401b038082111562000e6c57600080fd5b9084019060a0828703121562000e8157600080fd5b62000e8b62000da0565b62000e968362000e23565b815262000ea584840162000e23565b8482015262000eb76040840162000e23565b604082015262000eca6060840162000e23565b606082015260808301518281111562000ee257600080fd5b80840193505086601f84011262000ef857600080fd5b82518281111562000f0d5762000f0d62000d8a565b8060051b925062000f2085840162000df0565b818152928401850192858101908985111562000f3b57600080fd5b948601945b8486101562000f645762000f548662000e23565b8252948601949086019062000f40565b60808401525090979650505050505050565b634e487b7160e01b600052603260045260246000fd5b60005b8381101562000fa957818101518382015260200162000f8f565b50506000910152565b6000815180845262000fcc81602086016020860162000f8c565b601f01601f19169290920160200192915050565b60208152600062000ff5602083018462000fb2565b9392505050565b6000602082840312156200100f57600080fd5b62000ff58262000e23565b7f42617369635368656c6c3a20657874656e73696f6e206e6f7420666f756e643a8152600160fd1b6020820152600082516200105e81602185016020870162000f8c565b9190910160210192915050565b6001600160a01b038381168252604060208084018290528451918401829052600092858201929091906060860190855b81811015620010bb5785518516835294830194918301916001016200109b565b509098975050505050505050565b805161ffff8116811462000e3b57600080fd5b600060408284031215620010ef57600080fd5b620010f962000dcb565b90506200110682620010c9565b81526200111660208301620010c9565b602082015292915050565b600060208083850312156200113557600080fd5b82516001600160401b03808211156200114d57600080fd5b90840190606082870312156200116257600080fd5b6200116c62000dcb565b8251828111156200117c57600080fd5b8301601f810188136200118e57600080fd5b805183811115620011a357620011a362000d8a565b620011b7601f8201601f1916870162000df0565b93508084528886828401011115620011ce57600080fd5b620011df8187860188850162000f8c565b5050818152620011f287858501620010dc565b848201528094505050505092915050565b600181811c908216806200121857607f821691505b6020821081036200123957634e487b7160e01b600052602260045260246000fd5b50919050565b601f8211156200128f576000816000526020600020601f850160051c810160208610156200126a5750805b601f850160051c820191505b818110156200128b5782815560010162001276565b5050505b505050565b81516001600160401b03811115620012b057620012b062000d8a565b620012c881620012c1845462001203565b846200123f565b602080601f831160018114620013005760008415620012e75750858301515b600019600386901b1c1916600185901b1785556200128b565b600085815260208120601f198616915b82811015620013315788860151825594840194600190910190840162001310565b5085821015620013505787850151600019600388901b60f8161c191681555b5050505050600190811b01905550565b600082516200137481846020870162000f8c565b9190910192915050565b60608152600062001393606083018562000fb2565b905061ffff808451166020840152806020850151166040840152509392505050565b634e487b7160e01b600052601160045260246000fd5b8181038181111562000bf75762000bf7620013b5565b60ff818116838216019081111562000bf75762000bf7620013b5565b60805160a051610f186200142360003960006101e5015260006101790152610f186000f3fe60806040526004361061007f5760003560e01c80638a8547711161004e5780638a85477114610167578063db8d7466146101b3578063dbdc4e62146101d3578063e3ffb4bf1461020757610086565b8063238a0386146100ae5780632e1a7d4d146100f557806347d1d09a146101175780636d80bf311461014757610086565b3661008657005b600080356001600160e01b031916905060006100a482600036610227565b9050805160208201f35b3480156100ba57600080fd5b506100ce6100c9366004610c39565b61023c565b60408051825161ffff90811682526020938401511692810192909252015b60405180910390f35b34801561010157600080fd5b50610115610110366004610c6e565b6102cb565b005b34801561012357600080fd5b50610137610132366004610c87565b61045c565b60405190151581526020016100ec565b34801561015357600080fd5b50610137610162366004610cf6565b6104e0565b34801561017357600080fd5b5061019b7f000000000000000000000000000000000000000000000000000000000000000081565b6040516001600160a01b0390911681526020016100ec565b3480156101bf57600080fd5b506101156101ce366004610cf6565b610585565b3480156101df57600080fd5b5061019b7f000000000000000000000000000000000000000000000000000000000000000081565b34801561021357600080fd5b50610115610222366004610cf6565b610641565b6060610234848484610764565b949350505050565b6040805180820182526000808252602082015290516311c501c360e11b815273__$307c3a572bdf5d9800a89b3fc2eb3d5604$__9063238a038690610285908590600401610d63565b6040805180830381865af41580156102a1573d6000803e3d6000fd5b505050506040513d601f19601f820116820180604052508101906102c59190610d86565b92915050565b604051630935e01b60e21b815233600482015273__$a5a42e46683ad9c79b7b86d5ff60fdf4c1$__906324d7806c90602401602060405180830381865af415801561031a573d6000803e3d6000fd5b505050506040513d601f19601f8201168201806040525081019061033e9190610de5565b6103635760405162461bcd60e51b815260040161035a90610e07565b60405180910390fd5b478111156103b35760405162461bcd60e51b815260206004820181905260248201527f42617369635368656c6c3a20696e73756666696369656e742062616c616e6365604482015260640161035a565b73__$a5a42e46683ad9c79b7b86d5ff60fdf4c1$__638da5cb5b6040518163ffffffff1660e01b8152600401602060405180830381865af41580156103fc573d6000803e3d6000fd5b505050506040513d601f19601f820116820180604052508101906104209190610e3c565b6001600160a01b03166108fc829081150290604051600060405180830381858888f19350505050158015610458573d6000803e3d6000fd5b5050565b6040516329925a7160e11b815260009073__$307c3a572bdf5d9800a89b3fc2eb3d5604$__90635324b4e2906104989086908690600401610e59565b602060405180830381865af41580156104b5573d6000803e3d6000fd5b505050506040513d601f19601f820116820180604052508101906104d99190610de5565b9392505050565b604051632474521560e21b81527ff4624c0c441d71d84320078141641151f1c713f1d4d2a15382f6a42904d8d13860048201526001600160a01b038216602482015260009073__$a5a42e46683ad9c79b7b86d5ff60fdf4c1$__906391d1485490604401602060405180830381865af4158015610561573d6000803e3d6000fd5b505050506040513d601f19601f820116820180604052508101906102c59190610de5565b604051630935e01b60e21b815233600482015273__$a5a42e46683ad9c79b7b86d5ff60fdf4c1$__906324d7806c90602401602060405180830381865af41580156105d4573d6000803e3d6000fd5b505050506040513d601f19601f820116820180604052508101906105f89190610de5565b6106145760405162461bcd60e51b815260040161035a90610e07565b61063e7ff4624c0c441d71d84320078141641151f1c713f1d4d2a15382f6a42904d8d13882610933565b50565b604051630935e01b60e21b815233600482015273__$a5a42e46683ad9c79b7b86d5ff60fdf4c1$__906324d7806c90602401602060405180830381865af4158015610690573d6000803e3d6000fd5b505050506040513d601f19601f820116820180604052508101906106b49190610de5565b6106d05760405162461bcd60e51b815260040161035a90610e07565b60405163d547741f60e01b81527ff4624c0c441d71d84320078141641151f1c713f1d4d2a15382f6a42904d8d13860048201526001600160a01b038216602482015273__$a5a42e46683ad9c79b7b86d5ff60fdf4c1$__9063d547741f9060440160006040518083038186803b15801561074957600080fd5b505af415801561075d573d6000803e3d6000fd5b5050505050565b606060006107706109e2565b6001600160e01b031986166000908152600182016020526040902080549192509061010090046001600160a01b03166108035760405162461bcd60e51b815260206004820152602f60248201527f4c6962457874656e73696f6e3a206e6f20657874656e73696f6e20737570706f60448201526e393a399033371039b2b632b1ba37b960891b606482015260840161035a565b805460ff1661085f5760405162461bcd60e51b815260206004820152602260248201527f4c6962457874656e73696f6e3a2073656c6563746f72206e6f7420656e61626c604482015261195960f21b606482015260840161035a565b805461010090046001600160a01b03166000908152602083905260409020805460ff166108da5760405162461bcd60e51b815260206004820152602360248201527f4c6962457874656e73696f6e3a20657874656e73696f6e206e6f7420656e61626044820152621b195960ea1b606482015260840161035a565b8154604080516020601f89018190048102820181019092528781526109289261010090046001600160a01b0316918990899081908401838280828437600092019190915250610a7892505050565b979650505050505050565b6001600160a01b0381166109a25760405162461bcd60e51b815260206004820152603060248201527f416363657373436f6e74726f6c3a2063616e6e6f74206772616e7420726f6c6560448201526f20746f207a65726f206164647265737360801b606482015260840161035a565b60006109ac610b3a565b60009384526001908101602090815260408086206001600160a01b03909516865293905291909220805460ff1916909117905550565b60408051808201909152601881527f78722e657874656e73696f6e732e73746f726167652e7631000000000000000060209091015260008060ff610a4760017fb58ec9ca7ba0606d9fecd9f559655d0e5fec418e6751b65b892bccdfd25eb99f610ea5565b604051602001610a5991815260200190565b60408051601f1981840301815291905280516020909101201692915050565b6060600080846001600160a01b031684604051610a959190610ec6565b600060405180830381855af49150503d8060008114610ad0576040519150601f19603f3d011682016040523d82523d6000602084013e610ad5565b606091505b50915091508115610ae95791506102c59050565b805115610af95780518082602001fd5b60405162461bcd60e51b8152602060048201526016602482015275119d5b98dd1a5bdb8818d85b1b081c995d995c9d195960521b604482015260640161035a565b60408051808201909152601481527378722e6163636573732e73746f726167652e763160601b60209091015260008060ff610a4760017fd870894b15ee1369a593f3670ac51c4ed8201dab473944ee712694d327dd5875610ea5565b634e487b7160e01b600052604160045260246000fd5b600082601f830112610bbd57600080fd5b813567ffffffffffffffff80821115610bd857610bd8610b96565b604051601f8301601f19908116603f01168101908282118183101715610c0057610c00610b96565b81604052838152866020858801011115610c1957600080fd5b836020870160208301376000602085830101528094505050505092915050565b600060208284031215610c4b57600080fd5b813567ffffffffffffffff811115610c6257600080fd5b61023484828501610bac565b600060208284031215610c8057600080fd5b5035919050565b6000808284036060811215610c9b57600080fd5b833567ffffffffffffffff811115610cb257600080fd5b610cbe86828701610bac565b9350506040601f1982011215610cd357600080fd5b506020830190509250929050565b6001600160a01b038116811461063e57600080fd5b600060208284031215610d0857600080fd5b81356104d981610ce1565b60005b83811015610d2e578181015183820152602001610d16565b50506000910152565b60008151808452610d4f816020860160208601610d13565b601f01601f19169290920160200192915050565b6020815260006104d96020830184610d37565b61ffff8116811461063e57600080fd5b600060408284031215610d9857600080fd5b6040516040810181811067ffffffffffffffff82111715610dbb57610dbb610b96565b6040528251610dc981610d76565b81526020830151610dd981610d76565b60208201529392505050565b600060208284031215610df757600080fd5b815180151581146104d957600080fd5b6020808252818101527f42617369635368656c6c3a207265737472696374656420746f2061646d696e73604082015260600190565b600060208284031215610e4e57600080fd5b81516104d981610ce1565b606081526000610e6c6060830185610d37565b90508235610e7981610d76565b61ffff808216602085015260208501359150610e9482610d76565b808216604085015250509392505050565b818103818111156102c557634e487b7160e01b600052601160045260246000fd5b60008251610ed8818460208701610d13565b919091019291505056fea2646970667358221220d1f133f99513200e08e82e7a22da92dab6bdbfff36c7293d560e72b09aba4afb64736f6c63430008180033",
  "linkReferences": {
    "contracts/libraries/LibAccess.sol": {
      "LibAccess": [
        {
          "length": 20,
          "start": 1392
        },
        {
          "length": 20,
          "start": 5891
        },
        {
          "length": 20,
          "start": 6104
        },
        {
          "length": 20,
          "start": 6474
        },
        {
          "length": 20,
          "start": 6589
        },
        {
          "length": 20,
          "start": 6777
        },
        {
          "length": 20,
          "start": 6967
        }
      ]
    },
    "contracts/libraries/LibExtensions.sol": {
      "LibExtensions": [
        {
          "length": 20,
          "start": 5760
        },
        {
          "length": 20,
          "start": 6289
        }
      ]
    }
  },
  "deployedLinkReferences": {
    "contracts/libraries/LibAccess.sol": {
      "LibAccess": [
        {
          "length": 20,
          "start": 736
        },
        {
          "length": 20,
          "start": 949
        },
        {
          "length": 20,
          "start": 1319
        },
        {
          "length": 20,
          "start": 1434
        },
        {
          "length": 20,
          "start": 1622
        },
        {
          "length": 20,
          "start": 1812
        }
      ]
    },
    "contracts/libraries/LibExtensions.sol": {
      "LibExtensions": [
        {
          "length": 20,
          "start": 605
        },
        {
          "length": 20,
          "start": 1134
        }
      ]
    }
  }
}