{
  "_format": "hh-sol-artifact-1",
  "contractName": "ExperienceProxy",
  "sourceName": "contracts/experience/ExperienceProxy.sol",
  "abi": [
    {
      "inputs": [
        {
          "components": [
            {
              "internalType": "address",
              "name": "factory",
              "type": "address"
            },
            {
              "internalType": "address",
              "name": "registry",
              "type": "address"
            }
          ],
          "internalType": "struct BaseProxyConstructorArgs",
          "name": "args",
          "type": "tuple"
        }
      ],
      "stateMutability": "nonpayable",
      "type": "constructor"
    },
    {
      "anonymous": false,
      "inputs": [
        {
          "indexed": true,
          "internalType": "address",
          "name": "implementation",
          "type": "address"
        }
      ],
      "name": "ImplementationChanged",
      "type": "event"
    },
    {
      "anonymous": false,
      "inputs": [
        {
          "indexed": true,
          "internalType": "address",
          "name": "sender",
          "type": "address"
        },
        {
          "indexed": false,
          "internalType": "uint256",
          "name": "value",
          "type": "uint256"
        }
      ],
      "name": "ReceivedFunds",
      "type": "event"
    },
    {
      "anonymous": false,
      "inputs": [
        {
          "indexed": true,
          "internalType": "address",
          "name": "signer",
          "type": "address"
        }
      ],
      "name": "SignerAdded",
      "type": "event"
    },
    {
      "anonymous": false,
      "inputs": [
        {
          "indexed": true,
          "internalType": "address",
          "name": "signer",
          "type": "address"
        }
      ],
      "name": "SignerRemoved",
      "type": "event"
    },
    {
      "stateMutability": "payable",
      "type": "fallback"
    },
    {
      "inputs": [
        {
          "internalType": "address[]",
          "name": "signers",
          "type": "address[]"
        }
      ],
      "name": "addSigners",
      "outputs": [],
      "stateMutability": "nonpayable",
      "type": "function"
    },
    {
      "inputs": [],
      "name": "factory",
      "outputs": [
        {
          "internalType": "address",
          "name": "",
          "type": "address"
        }
      ],
      "stateMutability": "view",
      "type": "function"
    },
    {
      "inputs": [],
      "name": "getImplementation",
      "outputs": [
        {
          "internalType": "address",
          "name": "",
          "type": "address"
        }
      ],
      "stateMutability": "view",
      "type": "function"
    },
    {
      "inputs": [
        {
          "internalType": "address",
          "name": "_implementation",
          "type": "address"
        }
      ],
      "name": "initProxy",
      "outputs": [],
      "stateMutability": "nonpayable",
      "type": "function"
    },
    {
      "inputs": [
        {
          "internalType": "address",
          "name": "signer",
          "type": "address"
        }
      ],
      "name": "isSigner",
      "outputs": [
        {
          "internalType": "bool",
          "name": "",
          "type": "bool"
        }
      ],
      "stateMutability": "view",
      "type": "function"
    },
    {
      "inputs": [],
      "name": "registry",
      "outputs": [
        {
          "internalType": "address",
          "name": "",
          "type": "address"
        }
      ],
      "stateMutability": "view",
      "type": "function"
    },
    {
      "inputs": [
        {
          "internalType": "address[]",
          "name": "signers",
          "type": "address[]"
        }
      ],
      "name": "removeSigners",
      "outputs": [],
      "stateMutability": "nonpayable",
      "type": "function"
    },
    {
      "stateMutability": "payable",
      "type": "receive"
    }
  ],
  "bytecode": "0x60c060405234801561001057600080fd5b50604051610b32380380610b3283398101604081905261002f9161013a565b805181906001600160a01b03166100985760405162461bcd60e51b815260206004820152602260248201527f4261736550726f78793a20666163746f7279206973207a65726f206164647265604482015261737360f01b60648201526084015b60405180910390fd5b60208101516001600160a01b03166100fe5760405162461bcd60e51b815260206004820152602360248201527f4261736550726f78793a207265676973747279206973207a65726f206164647260448201526265737360e81b606482015260840161008f565b80516001600160a01b039081166080526020909101511660a052506101a2565b80516001600160a01b038116811461013557600080fd5b919050565b60006040828403121561014c57600080fd5b604080519081016001600160401b038111828210171561017c57634e487b7160e01b600052604160045260246000fd5b6040526101888361011e565b81526101966020840161011e565b60208201529392505050565b60805160a0516109646101ce600039600061016701526000818161025301526103a201526109646000f3fe6080604052600436106100745760003560e01c80639c0200611161004e5780639c020061146101f6578063aaf10f4214610216578063c45a015514610241578063e8906a2d14610275576100b9565b80637b103999146101555780637df73e27146101a65780638d361e43146101d6576100b9565b366100b95760405134815233907f5741979df5f3e491501da74d3b0a83dd2496ab1f34929865b3e190a8ad75859a9060200160405180910390a26100b734610295565b005b60008051602061090f83398151915280546001600160a01b0316806101305760405162461bcd60e51b815260206004820152602260248201527f576f726c6450726f78793a20696d706c656d656e746174696f6e206e6f742073604482015261195d60f21b60648201526084015b60405180910390fd5b60405136600082376000803683855af43d806000843e818015610151578184f35b8184fd5b34801561016157600080fd5b506101897f000000000000000000000000000000000000000000000000000000000000000081565b6040516001600160a01b0390911681526020015b60405180910390f35b3480156101b257600080fd5b506101c66101c136600461080f565b6102f4565b604051901515815260200161019d565b3480156101e257600080fd5b506100b76101f1366004610838565b610337565b34801561020257600080fd5b506100b761021136600461080f565b610397565b34801561022257600080fd5b5060008051602061090f833981519152546001600160a01b0316610189565b34801561024d57600080fd5b506101897f000000000000000000000000000000000000000000000000000000000000000081565b34801561028157600080fd5b506100b7610290366004610838565b6104ff565b7f7ea04aef6bca987a4816974a9eadce73182071dd7a8e8812099e1d973c1ae50580546040516001600160a01b03909116906108fc8415029084906000818181858888f193505050501580156102ef573d6000803e3d6000fd5b505050565b600060008051602061090f833981519152610330817fe2f4eaae4a9751e85a3e4a7b9587827a877f29914755229b07a7b2da98285f708561055f565b9392505050565b60008051602061090f833981519152610371817fa49807205ce4d355092ef5a8a18f56e8913cf4a201fbe287825b095693c217753361055f565b61038d5760405162461bcd60e51b8152600401610127906108ad565b6102ef838361058c565b336001600160a01b037f0000000000000000000000000000000000000000000000000000000000000000161461040f5760405162461bcd60e51b815260206004820181905260248201527f4261736550726f78793a2063616c6c6572206973206e6f7420666163746f72796044820152606401610127565b6001600160a01b0381166104785760405162461bcd60e51b815260206004820152602a60248201527f576f726c6450726f78793a20696d706c656d656e746174696f6e206973207a65604482015269726f206164647265737360b01b6064820152608401610127565b60008051602061090f83398151915280546001600160a01b0316156104df5760405162461bcd60e51b815260206004820152601f60248201527f576f726c6450726f78793a20616c726561647920696e697469616c697a6564006044820152606401610127565b80546001600160a01b0319166001600160a01b0392909216919091179055565b60008051602061090f833981519152610539817fa49807205ce4d355092ef5a8a18f56e8913cf4a201fbe287825b095693c217753361055f565b6105555760405162461bcd60e51b8152600401610127906108ad565b6102ef838361068a565b6000918252600192909201602090815260408083206001600160a01b039094168352929052205460ff1690565b60008051602061090f83398151915260005b82811015610684576106207fe2f4eaae4a9751e85a3e4a7b9587827a877f29914755229b07a7b2da98285f708585848181106105dc576105dc6108f8565b90506020020160208101906105f1919061080f565b600091825260018501602090815260408084206001600160a01b0390931684529190529020805460ff19169055565b838382818110610632576106326108f8565b9050602002016020810190610647919061080f565b6001600160a01b03167f3525e22824a8a7df2c9a6029941c824cf95b6447f1e13d5128fd3826d35afe8b60405160405180910390a260010161059e565b50505050565b60008051602061090f83398151915260005b828110156106845760008484838181106106b8576106b86108f8565b90506020020160208101906106cd919061080f565b6001600160a01b03160361072d5760405162461bcd60e51b815260206004820152602160248201527f4261736550726f78793a207369676e6572206973207a65726f206164647265736044820152607360f81b6064820152608401610127565b6107ab7fe2f4eaae4a9751e85a3e4a7b9587827a877f29914755229b07a7b2da98285f70858584818110610763576107636108f8565b9050602002016020810190610778919061080f565b60009182526001808601602090815260408085206001600160a01b0390941685529290529120805460ff19169091179055565b8383828181106107bd576107bd6108f8565b90506020020160208101906107d2919061080f565b6001600160a01b03167f47d1c22a25bb3a5d4e481b9b1e6944c2eade3181a0a20b495ed61d35b5323f2460405160405180910390a260010161069c565b60006020828403121561082157600080fd5b81356001600160a01b038116811461033057600080fd5b6000806020838503121561084b57600080fd5b823567ffffffffffffffff8082111561086357600080fd5b818501915085601f83011261087757600080fd5b81358181111561088657600080fd5b8660208260051b850101111561089b57600080fd5b60209290920196919550909350505050565b6020808252602b908201527f426173654163636573733a2063616c6c657220646f6573206e6f74206861766560408201526a2061646d696e20726f6c6560a81b606082015260800190565b634e487b7160e01b600052603260045260246000fdfe1f07e7b49187e1cf67924ca1fa35732211c5bb2c23b6b53ee47453438de7285ea2646970667358221220c02488645e1d14c73042833438ab3971b0ecab28c5abbaf714d661b96be3178d64736f6c63430008180033",
  "linkReferences": {},
  "deployedLinkReferences": {}
}