{
  "_format": "hh-sol-artifact-1",
  "contractName": "ExperienceProxy",
  "sourceName": "contracts/experience/ExperienceProxy.sol",
  "abi": [
    {
      "inputs": [
        {
          "components": [
            {
              "internalType": "address",
              "name": "factory",
              "type": "address"
            },
            {
              "internalType": "address",
              "name": "registry",
              "type": "address"
            }
          ],
          "internalType": "struct BaseProxyConstructorArgs",
          "name": "args",
          "type": "tuple"
        }
      ],
      "stateMutability": "nonpayable",
      "type": "constructor"
    },
    {
      "anonymous": false,
      "inputs": [
        {
          "indexed": true,
          "internalType": "address",
          "name": "implementation",
          "type": "address"
        }
      ],
      "name": "ImplementationChanged",
      "type": "event"
    },
    {
      "anonymous": false,
      "inputs": [
        {
          "indexed": true,
          "internalType": "address",
          "name": "sender",
          "type": "address"
        },
        {
          "indexed": false,
          "internalType": "uint256",
          "name": "value",
          "type": "uint256"
        }
      ],
      "name": "ReceivedFunds",
      "type": "event"
    },
    {
      "anonymous": false,
      "inputs": [
        {
          "indexed": true,
          "internalType": "address",
          "name": "signer",
          "type": "address"
        }
      ],
      "name": "SignerAdded",
      "type": "event"
    },
    {
      "anonymous": false,
      "inputs": [
        {
          "indexed": true,
          "internalType": "address",
          "name": "signer",
          "type": "address"
        }
      ],
      "name": "SignerRemoved",
      "type": "event"
    },
    {
      "stateMutability": "payable",
      "type": "fallback"
    },
    {
      "inputs": [
        {
          "internalType": "address[]",
          "name": "signers",
          "type": "address[]"
        }
      ],
      "name": "addSigners",
      "outputs": [],
      "stateMutability": "nonpayable",
      "type": "function"
    },
    {
      "inputs": [],
      "name": "factory",
      "outputs": [
        {
          "internalType": "address",
          "name": "",
          "type": "address"
        }
      ],
      "stateMutability": "view",
      "type": "function"
    },
    {
      "inputs": [],
      "name": "getImplementation",
      "outputs": [
        {
          "internalType": "address",
          "name": "",
          "type": "address"
        }
      ],
      "stateMutability": "view",
      "type": "function"
    },
    {
      "inputs": [
        {
          "internalType": "address",
          "name": "_implementation",
          "type": "address"
        }
      ],
      "name": "initProxy",
      "outputs": [],
      "stateMutability": "nonpayable",
      "type": "function"
    },
    {
      "inputs": [
        {
          "internalType": "address",
          "name": "signer",
          "type": "address"
        }
      ],
      "name": "isSigner",
      "outputs": [
        {
          "internalType": "bool",
          "name": "",
          "type": "bool"
        }
      ],
      "stateMutability": "view",
      "type": "function"
    },
    {
      "inputs": [],
      "name": "registry",
      "outputs": [
        {
          "internalType": "address",
          "name": "",
          "type": "address"
        }
      ],
      "stateMutability": "view",
      "type": "function"
    },
    {
      "inputs": [
        {
          "internalType": "address[]",
          "name": "signers",
          "type": "address[]"
        }
      ],
      "name": "removeSigners",
      "outputs": [],
      "stateMutability": "nonpayable",
      "type": "function"
    },
    {
      "inputs": [
        {
          "internalType": "address",
          "name": "impl",
          "type": "address"
        }
      ],
      "name": "setImplementation",
      "outputs": [],
      "stateMutability": "nonpayable",
      "type": "function"
    },
    {
      "stateMutability": "payable",
      "type": "receive"
    }
  ],
  "bytecode": "0x60c060405234801561001057600080fd5b50604051610c2f380380610c2f83398101604081905261002f9161013a565b805181906001600160a01b03166100985760405162461bcd60e51b815260206004820152602260248201527f4261736550726f78793a20666163746f7279206973207a65726f206164647265604482015261737360f01b60648201526084015b60405180910390fd5b60208101516001600160a01b03166100fe5760405162461bcd60e51b815260206004820152602360248201527f4261736550726f78793a207265676973747279206973207a65726f206164647260448201526265737360e81b606482015260840161008f565b80516001600160a01b039081166080526020909101511660a052506101a2565b80516001600160a01b038116811461013557600080fd5b919050565b60006040828403121561014c57600080fd5b604080519081016001600160401b038111828210171561017c57634e487b7160e01b600052604160045260246000fd5b6040526101888361011e565b81526101966020840161011e565b60208201529392505050565b60805160a051610a5a6101d560003960008181610171015261053c01526000818161025d01526103d40152610a5a6000f3fe60806040526004361061007f5760003560e01c8063aaf10f421161004e578063aaf10f4214610220578063c45a01551461024b578063d784d4261461027f578063e8906a2d1461029f576100c4565b80637b1039991461015f5780637df73e27146101b05780638d361e43146101e05780639c02006114610200576100c4565b366100c45760405134815233907f5741979df5f3e491501da74d3b0a83dd2496ab1f34929865b3e190a8ad75859a9060200160405180910390a26100c2346102bf565b005b600080516020610a0583398151915280546001600160a01b03168061013b5760405162461bcd60e51b815260206004820152602260248201527f576f726c6450726f78793a20696d706c656d656e746174696f6e206e6f742073604482015261195d60f21b60648201526084015b60405180910390fd5b3660008037600080366000845af43d6000803e80801561015a573d6000f35b3d6000fd5b34801561016b57600080fd5b506101937f000000000000000000000000000000000000000000000000000000000000000081565b6040516001600160a01b0390911681526020015b60405180910390f35b3480156101bc57600080fd5b506101d06101cb366004610905565b610326565b60405190151581526020016101a7565b3480156101ec57600080fd5b506100c26101fb36600461092e565b610369565b34801561020c57600080fd5b506100c261021b366004610905565b6103c9565b34801561022c57600080fd5b50600080516020610a05833981519152546001600160a01b0316610193565b34801561025757600080fd5b506101937f000000000000000000000000000000000000000000000000000000000000000081565b34801561028b57600080fd5b506100c261029a366004610905565b610531565b3480156102ab57600080fd5b506100c26102ba36600461092e565b61060a565b60007f7ea04aef6bca987a4816974a9eadce73182071dd7a8e8812099e1d973c1ae505805460405191925061010090046001600160a01b0316906108fc8415029084906000818181858888f19350505050158015610321573d6000803e3d6000fd5b505050565b6000600080516020610a05833981519152610362817fe2f4eaae4a9751e85a3e4a7b9587827a877f29914755229b07a7b2da98285f708561066a565b9392505050565b600080516020610a058339815191526103a3817fa49807205ce4d355092ef5a8a18f56e8913cf4a201fbe287825b095693c217753361066a565b6103bf5760405162461bcd60e51b8152600401610132906109a3565b6103218383610697565b336001600160a01b037f000000000000000000000000000000000000000000000000000000000000000016146104415760405162461bcd60e51b815260206004820181905260248201527f4261736550726f78793a2063616c6c6572206973206e6f7420666163746f72796044820152606401610132565b6001600160a01b0381166104aa5760405162461bcd60e51b815260206004820152602a60248201527f576f726c6450726f78793a20696d706c656d656e746174696f6e206973207a65604482015269726f206164647265737360b01b6064820152608401610132565b600080516020610a0583398151915280546001600160a01b0316156105115760405162461bcd60e51b815260206004820152601f60248201527f576f726c6450726f78793a20616c726561647920696e697469616c697a6564006044820152606401610132565b80546001600160a01b0319166001600160a01b0392909216919091179055565b336001600160a01b037f000000000000000000000000000000000000000000000000000000000000000016146105b35760405162461bcd60e51b815260206004820152602160248201527f4261736550726f78793a2063616c6c6572206973206e6f7420726567697374726044820152607960f81b6064820152608401610132565b600080516020610a0583398151915280546001600160a01b0319166001600160a01b03831690811782556040517f2989b377844ae55f0ca303ad21490d8519f8cf871ad6b5ba3dbec736bb54c63f90600090a25050565b600080516020610a05833981519152610644817fa49807205ce4d355092ef5a8a18f56e8913cf4a201fbe287825b095693c217753361066a565b6106605760405162461bcd60e51b8152600401610132906109a3565b6103218383610770565b6000918252600192909201602090815260408083206001600160a01b039094168352929052205460ff1690565b600080516020610a0583398151915260005b8281101561076a576107067fe2f4eaae4a9751e85a3e4a7b9587827a877f29914755229b07a7b2da98285f708585848181106106e7576106e76109ee565b90506020020160208101906106fc9190610905565b84919060006108cc565b838382818110610718576107186109ee565b905060200201602081019061072d9190610905565b6001600160a01b03167f3525e22824a8a7df2c9a6029941c824cf95b6447f1e13d5128fd3826d35afe8b60405160405180910390a26001016106a9565b50505050565b600080516020610a0583398151915260005b8281101561076a57600084848381811061079e5761079e6109ee565b90506020020160208101906107b39190610905565b6001600160a01b0316036108135760405162461bcd60e51b815260206004820152602160248201527f4261736550726f78793a207369676e6572206973207a65726f206164647265736044820152607360f81b6064820152608401610132565b6108687fe2f4eaae4a9751e85a3e4a7b9587827a877f29914755229b07a7b2da98285f70858584818110610849576108496109ee565b905060200201602081019061085e9190610905565b84919060016108cc565b83838281811061087a5761087a6109ee565b905060200201602081019061088f9190610905565b6001600160a01b03167f47d1c22a25bb3a5d4e481b9b1e6944c2eade3181a0a20b495ed61d35b5323f2460405160405180910390a2600101610782565b60009283526001909301602090815260408084206001600160a01b0390931684529190529020805491151560ff19909216919091179055565b60006020828403121561091757600080fd5b81356001600160a01b038116811461036257600080fd5b6000806020838503121561094157600080fd5b823567ffffffffffffffff8082111561095957600080fd5b818501915085601f83011261096d57600080fd5b81358181111561097c57600080fd5b8660208260051b850101111561099157600080fd5b60209290920196919550909350505050565b6020808252602b908201527f426173654163636573733a2063616c6c657220646f6573206e6f74206861766560408201526a2061646d696e20726f6c6560a81b606082015260800190565b634e487b7160e01b600052603260045260246000fdfe1f07e7b49187e1cf67924ca1fa35732211c5bb2c23b6b53ee47453438de7285ea2646970667358221220a3b2fba8456e427cf2ea9ba5058f1d3cc88fe8c63154e3f845b53c6297b605ed64736f6c63430008180033",
  "linkReferences": {},
  "deployedLinkReferences": {}
}