{
  "_format": "hh-sol-artifact-1",
  "contractName": "TestCondition",
  "sourceName": "contracts/test/TestCondition.sol",
  "abi": [
    {
      "inputs": [
        {
          "internalType": "address",
          "name": "",
          "type": "address"
        }
      ],
      "name": "allowed",
      "outputs": [
        {
          "internalType": "bool",
          "name": "",
          "type": "bool"
        }
      ],
      "stateMutability": "view",
      "type": "function"
    },
    {
      "inputs": [
        {
          "internalType": "address",
          "name": "experience",
          "type": "address"
        },
        {
          "internalType": "address",
          "name": "sourceWorld",
          "type": "address"
        },
        {
          "internalType": "address",
          "name": "sourceCompany",
          "type": "address"
        },
        {
          "internalType": "address",
          "name": "sourceExperience",
          "type": "address"
        },
        {
          "internalType": "address",
          "name": "avatar",
          "type": "address"
        }
      ],
      "name": "canJump",
      "outputs": [
        {
          "internalType": "bool",
          "name": "",
          "type": "bool"
        }
      ],
      "stateMutability": "nonpayable",
      "type": "function"
    },
    {
      "inputs": [
        {
          "internalType": "address",
          "name": "avatar",
          "type": "address"
        },
        {
          "internalType": "bool",
          "name": "_canJump",
          "type": "bool"
        }
      ],
      "name": "setCanJump",
      "outputs": [],
      "stateMutability": "nonpayable",
      "type": "function"
    }
  ],
  "bytecode": "0x608060405234801561001057600080fd5b506101fe806100206000396000f3fe608060405234801561001057600080fd5b50600436106100415760003560e01c80638a91e25114610046578063d63a8e1114610081578063f610c1d5146100b8575b600080fd5b61007f610054366004610105565b6001600160a01b03919091166000908152602081905260409020805460ff1916911515919091179055565b005b6100a461008f366004610141565b60006020819052908152604090205460ff1681565b604051901515815260200160405180910390f35b6100a46100c6366004610163565b6001600160a01b031660009081526020819052604090205460ff16949350505050565b80356001600160a01b038116811461010057600080fd5b919050565b6000806040838503121561011857600080fd5b610121836100e9565b91506020830135801515811461013657600080fd5b809150509250929050565b60006020828403121561015357600080fd5b61015c826100e9565b9392505050565b600080600080600060a0868803121561017b57600080fd5b610184866100e9565b9450610192602087016100e9565b93506101a0604087016100e9565b92506101ae606087016100e9565b91506101bc608087016100e9565b9050929550929590935056fea26469706673582212203dc69ceca61471ba320d2290eaca4263c391255e728f5e791d09839b2c31146e64736f6c63430008180033",
  "linkReferences": {},
  "deployedLinkReferences": {}
}