{
  "_format": "hh-sol-artifact-1",
  "contractName": "Company",
  "sourceName": "contracts/company/Company.sol",
  "abi": [
    {
      "inputs": [
        {
          "components": [
            {
              "internalType": "address",
              "name": "companyFactory",
              "type": "address"
            },
            {
              "internalType": "address",
              "name": "companyRegistry",
              "type": "address"
            },
            {
              "internalType": "contract IExperienceRegistry",
              "name": "experienceRegistry",
              "type": "address"
            },
            {
              "internalType": "contract IMultiAssetRegistry",
              "name": "multiAssetRegistry",
              "type": "address"
            },
            {
              "internalType": "contract IAvatarRegistry",
              "name": "avatarRegistry",
              "type": "address"
            }
          ],
          "internalType": "struct CompanyConstructorArgs",
          "name": "args",
          "type": "tuple"
        }
      ],
      "stateMutability": "nonpayable",
      "type": "constructor"
    },
    {
      "inputs": [],
      "name": "ReentrancyGuardReentrantCall",
      "type": "error"
    },
    {
      "anonymous": false,
      "inputs": [
        {
          "indexed": true,
          "internalType": "address",
          "name": "asset",
          "type": "address"
        },
        {
          "indexed": true,
          "internalType": "address",
          "name": "to",
          "type": "address"
        },
        {
          "indexed": true,
          "internalType": "uint256",
          "name": "amountOrTokenId",
          "type": "uint256"
        }
      ],
      "name": "AssetMinted",
      "type": "event"
    },
    {
      "anonymous": false,
      "inputs": [
        {
          "indexed": true,
          "internalType": "address",
          "name": "asset",
          "type": "address"
        },
        {
          "indexed": true,
          "internalType": "address",
          "name": "holder",
          "type": "address"
        },
        {
          "indexed": true,
          "internalType": "uint256",
          "name": "amountOrTokenId",
          "type": "uint256"
        }
      ],
      "name": "AssetRevoked",
      "type": "event"
    },
    {
      "anonymous": false,
      "inputs": [
        {
          "indexed": true,
          "internalType": "address",
          "name": "asset",
          "type": "address"
        },
        {
          "indexed": true,
          "internalType": "address",
          "name": "condition",
          "type": "address"
        }
      ],
      "name": "CompanyAddedAssetCondition",
      "type": "event"
    },
    {
      "anonymous": false,
      "inputs": [
        {
          "indexed": true,
          "internalType": "address",
          "name": "asset",
          "type": "address"
        },
        {
          "indexed": true,
          "internalType": "address",
          "name": "hook",
          "type": "address"
        }
      ],
      "name": "CompanyAddedAssetHook",
      "type": "event"
    },
    {
      "anonymous": false,
      "inputs": [
        {
          "indexed": true,
          "internalType": "address",
          "name": "experience",
          "type": "address"
        },
        {
          "indexed": true,
          "internalType": "uint256",
          "name": "portalId",
          "type": "uint256"
        }
      ],
      "name": "CompanyAddedExperience",
      "type": "event"
    },
    {
      "anonymous": false,
      "inputs": [
        {
          "indexed": true,
          "internalType": "address",
          "name": "experience",
          "type": "address"
        },
        {
          "indexed": true,
          "internalType": "address",
          "name": "condition",
          "type": "address"
        }
      ],
      "name": "CompanyAddedExperienceCondition",
      "type": "event"
    },
    {
      "anonymous": false,
      "inputs": [
        {
          "indexed": true,
          "internalType": "address",
          "name": "experience",
          "type": "address"
        },
        {
          "indexed": true,
          "internalType": "address",
          "name": "hook",
          "type": "address"
        }
      ],
      "name": "CompanyAddedExperienceHook",
      "type": "event"
    },
    {
      "anonymous": false,
      "inputs": [
        {
          "indexed": true,
          "internalType": "address",
          "name": "experience",
          "type": "address"
        },
        {
          "indexed": true,
          "internalType": "uint256",
          "name": "fee",
          "type": "uint256"
        }
      ],
      "name": "CompanyChangedExperiencePortalFee",
      "type": "event"
    },
    {
      "anonymous": false,
      "inputs": [],
      "name": "CompanyDeactivated",
      "type": "event"
    },
    {
      "anonymous": false,
      "inputs": [],
      "name": "CompanyHookRemoved",
      "type": "event"
    },
    {
      "anonymous": false,
      "inputs": [
        {
          "indexed": true,
          "internalType": "address",
          "name": "hook",
          "type": "address"
        }
      ],
      "name": "CompanyHookSet",
      "type": "event"
    },
    {
      "anonymous": false,
      "inputs": [
        {
          "indexed": true,
          "internalType": "address",
          "name": "avatar",
          "type": "address"
        },
        {
          "indexed": true,
          "internalType": "uint256",
          "name": "portalId",
          "type": "uint256"
        },
        {
          "indexed": true,
          "internalType": "uint256",
          "name": "fee",
          "type": "uint256"
        }
      ],
      "name": "CompanyJumpedForAvatar",
      "type": "event"
    },
    {
      "anonymous": false,
      "inputs": [],
      "name": "CompanyReactivated",
      "type": "event"
    },
    {
      "anonymous": false,
      "inputs": [
        {
          "indexed": true,
          "internalType": "address",
          "name": "asset",
          "type": "address"
        }
      ],
      "name": "CompanyRemovedAssetCondition",
      "type": "event"
    },
    {
      "anonymous": false,
      "inputs": [
        {
          "indexed": true,
          "internalType": "address",
          "name": "asset",
          "type": "address"
        }
      ],
      "name": "CompanyRemovedAssetHook",
      "type": "event"
    },
    {
      "anonymous": false,
      "inputs": [
        {
          "indexed": true,
          "internalType": "address",
          "name": "experience",
          "type": "address"
        },
        {
          "indexed": true,
          "internalType": "uint256",
          "name": "portalId",
          "type": "uint256"
        }
      ],
      "name": "CompanyRemovedExperience",
      "type": "event"
    },
    {
      "anonymous": false,
      "inputs": [
        {
          "indexed": true,
          "internalType": "address",
          "name": "experience",
          "type": "address"
        }
      ],
      "name": "CompanyRemovedExperienceCondition",
      "type": "event"
    },
    {
      "anonymous": false,
      "inputs": [
        {
          "indexed": true,
          "internalType": "address",
          "name": "experience",
          "type": "address"
        }
      ],
      "name": "CompanyRemovedExperienceHook",
      "type": "event"
    },
    {
      "anonymous": false,
      "inputs": [
        {
          "indexed": true,
          "internalType": "address",
          "name": "oldVersion",
          "type": "address"
        },
        {
          "indexed": true,
          "internalType": "address",
          "name": "nextVersion",
          "type": "address"
        }
      ],
      "name": "CompanyUpgraded",
      "type": "event"
    },
    {
      "anonymous": false,
      "inputs": [
        {
          "indexed": true,
          "internalType": "address",
          "name": "asset",
          "type": "address"
        },
        {
          "indexed": true,
          "internalType": "address",
          "name": "nextVersion",
          "type": "address"
        }
      ],
      "name": "CompanyUpgradedAsset",
      "type": "event"
    },
    {
      "anonymous": false,
      "inputs": [
        {
          "indexed": true,
          "internalType": "address",
          "name": "experience",
          "type": "address"
        },
        {
          "indexed": true,
          "internalType": "address",
          "name": "nextVersion",
          "type": "address"
        }
      ],
      "name": "CompanyUpgradedExperience",
      "type": "event"
    },
    {
      "anonymous": false,
      "inputs": [
        {
          "indexed": true,
          "internalType": "address",
          "name": "sender",
          "type": "address"
        },
        {
          "indexed": false,
          "internalType": "uint256",
          "name": "value",
          "type": "uint256"
        }
      ],
      "name": "ReceivedFunds",
      "type": "event"
    },
    {
      "anonymous": false,
      "inputs": [
        {
          "indexed": true,
          "internalType": "address",
          "name": "signer",
          "type": "address"
        }
      ],
      "name": "SignerAdded",
      "type": "event"
    },
    {
      "anonymous": false,
      "inputs": [
        {
          "indexed": true,
          "internalType": "address",
          "name": "signer",
          "type": "address"
        }
      ],
      "name": "SignerRemoved",
      "type": "event"
    },
    {
      "inputs": [
        {
          "internalType": "address",
          "name": "asset",
          "type": "address"
        },
        {
          "internalType": "address",
          "name": "condition",
          "type": "address"
        }
      ],
      "name": "addAssetCondition",
      "outputs": [],
      "stateMutability": "nonpayable",
      "type": "function"
    },
    {
      "inputs": [
        {
          "internalType": "address",
          "name": "asset",
          "type": "address"
        },
        {
          "internalType": "contract IAssetHook",
          "name": "aHook",
          "type": "address"
        }
      ],
      "name": "addAssetHook",
      "outputs": [],
      "stateMutability": "nonpayable",
      "type": "function"
    },
    {
      "inputs": [
        {
          "components": [
            {
              "internalType": "string",
              "name": "name",
              "type": "string"
            },
            {
              "internalType": "bytes",
              "name": "initData",
              "type": "bytes"
            }
          ],
          "internalType": "struct AddExperienceArgs",
          "name": "args",
          "type": "tuple"
        }
      ],
      "name": "addExperience",
      "outputs": [],
      "stateMutability": "nonpayable",
      "type": "function"
    },
    {
      "inputs": [
        {
          "internalType": "address",
          "name": "experience",
          "type": "address"
        },
        {
          "internalType": "address",
          "name": "condition",
          "type": "address"
        }
      ],
      "name": "addExperienceCondition",
      "outputs": [],
      "stateMutability": "nonpayable",
      "type": "function"
    },
    {
      "inputs": [
        {
          "internalType": "address[]",
          "name": "signers",
          "type": "address[]"
        }
      ],
      "name": "addSigners",
      "outputs": [],
      "stateMutability": "nonpayable",
      "type": "function"
    },
    {
      "inputs": [],
      "name": "assetRegistry",
      "outputs": [
        {
          "internalType": "contract IMultiAssetRegistry",
          "name": "",
          "type": "address"
        }
      ],
      "stateMutability": "view",
      "type": "function"
    },
    {
      "inputs": [],
      "name": "avatarRegistry",
      "outputs": [
        {
          "internalType": "contract IAvatarRegistry",
          "name": "",
          "type": "address"
        }
      ],
      "stateMutability": "view",
      "type": "function"
    },
    {
      "inputs": [
        {
          "internalType": "address",
          "name": "asset",
          "type": "address"
        },
        {
          "internalType": "address",
          "name": "to",
          "type": "address"
        },
        {
          "internalType": "bytes",
          "name": "extra",
          "type": "bytes"
        }
      ],
      "name": "canMint",
      "outputs": [
        {
          "internalType": "bool",
          "name": "",
          "type": "bool"
        }
      ],
      "stateMutability": "view",
      "type": "function"
    },
    {
      "inputs": [
        {
          "internalType": "address",
          "name": "experience",
          "type": "address"
        },
        {
          "internalType": "uint256",
          "name": "fee",
          "type": "uint256"
        }
      ],
      "name": "changeExperiencePortalFee",
      "outputs": [],
      "stateMutability": "nonpayable",
      "type": "function"
    },
    {
      "inputs": [],
      "name": "companyFactory",
      "outputs": [
        {
          "internalType": "address",
          "name": "",
          "type": "address"
        }
      ],
      "stateMutability": "view",
      "type": "function"
    },
    {
      "inputs": [
        {
          "internalType": "uint256",
          "name": "portalId",
          "type": "uint256"
        }
      ],
      "name": "companyOwnsDestinationPortal",
      "outputs": [
        {
          "internalType": "bool",
          "name": "",
          "type": "bool"
        }
      ],
      "stateMutability": "view",
      "type": "function"
    },
    {
      "inputs": [],
      "name": "companyRegistry",
      "outputs": [
        {
          "internalType": "contract ICompanyRegistry",
          "name": "",
          "type": "address"
        }
      ],
      "stateMutability": "view",
      "type": "function"
    },
    {
      "inputs": [],
      "name": "deactivate",
      "outputs": [],
      "stateMutability": "nonpayable",
      "type": "function"
    },
    {
      "inputs": [
        {
          "components": [
            {
              "internalType": "address",
              "name": "avatar",
              "type": "address"
            },
            {
              "internalType": "uint256",
              "name": "portalId",
              "type": "uint256"
            },
            {
              "internalType": "uint256",
              "name": "agreedFee",
              "type": "uint256"
            },
            {
              "internalType": "bytes",
              "name": "avatarOwnerSignature",
              "type": "bytes"
            }
          ],
          "internalType": "struct DelegatedAvatarJumpRequest",
          "name": "request",
          "type": "tuple"
        }
      ],
      "name": "delegateJumpForAvatar",
      "outputs": [],
      "stateMutability": "nonpayable",
      "type": "function"
    },
    {
      "inputs": [
        {
          "components": [
            {
              "internalType": "string",
              "name": "name",
              "type": "string"
            },
            {
              "internalType": "bytes",
              "name": "initData",
              "type": "bytes"
            }
          ],
          "internalType": "struct AddExperienceArgs",
          "name": "args",
          "type": "tuple"
        }
      ],
      "name": "encodeExperienceArgs",
      "outputs": [
        {
          "internalType": "bytes",
          "name": "",
          "type": "bytes"
        }
      ],
      "stateMutability": "pure",
      "type": "function"
    },
    {
      "inputs": [],
      "name": "experienceRegistry",
      "outputs": [
        {
          "internalType": "contract IExperienceRegistry",
          "name": "",
          "type": "address"
        }
      ],
      "stateMutability": "view",
      "type": "function"
    },
    {
      "inputs": [],
      "name": "hook",
      "outputs": [
        {
          "internalType": "contract ICompanyHook",
          "name": "",
          "type": "address"
        }
      ],
      "stateMutability": "view",
      "type": "function"
    },
    {
      "inputs": [
        {
          "components": [
            {
              "internalType": "address",
              "name": "owner",
              "type": "address"
            },
            {
              "internalType": "address",
              "name": "world",
              "type": "address"
            },
            {
              "components": [
                {
                  "internalType": "string",
                  "name": "x",
                  "type": "string"
                },
                {
                  "internalType": "string",
                  "name": "y",
                  "type": "string"
                },
                {
                  "internalType": "string",
                  "name": "z",
                  "type": "string"
                },
                {
                  "internalType": "uint256",
                  "name": "t",
                  "type": "uint256"
                },
                {
                  "internalType": "uint256",
                  "name": "p",
                  "type": "uint256"
                },
                {
                  "internalType": "uint256",
                  "name": "p_sub",
                  "type": "uint256"
                }
              ],
              "internalType": "struct VectorAddress",
              "name": "vector",
              "type": "tuple"
            },
            {
              "internalType": "bytes",
              "name": "initData",
              "type": "bytes"
            },
            {
              "internalType": "string",
              "name": "name",
              "type": "string"
            }
          ],
          "internalType": "struct CompanyInitArgs",
          "name": "request",
          "type": "tuple"
        }
      ],
      "name": "init",
      "outputs": [],
      "stateMutability": "nonpayable",
      "type": "function"
    },
    {
      "inputs": [],
      "name": "isActive",
      "outputs": [
        {
          "internalType": "bool",
          "name": "",
          "type": "bool"
        }
      ],
      "stateMutability": "view",
      "type": "function"
    },
    {
      "inputs": [
        {
          "internalType": "address",
          "name": "signer",
          "type": "address"
        }
      ],
      "name": "isSigner",
      "outputs": [
        {
          "internalType": "bool",
          "name": "",
          "type": "bool"
        }
      ],
      "stateMutability": "view",
      "type": "function"
    },
    {
      "inputs": [
        {
          "internalType": "address",
          "name": "asset",
          "type": "address"
        },
        {
          "internalType": "address",
          "name": "to",
          "type": "address"
        },
        {
          "internalType": "bytes",
          "name": "data",
          "type": "bytes"
        }
      ],
      "name": "mint",
      "outputs": [],
      "stateMutability": "nonpayable",
      "type": "function"
    },
    {
      "inputs": [],
      "name": "name",
      "outputs": [
        {
          "internalType": "string",
          "name": "",
          "type": "string"
        }
      ],
      "stateMutability": "view",
      "type": "function"
    },
    {
      "inputs": [],
      "name": "owner",
      "outputs": [
        {
          "internalType": "address",
          "name": "",
          "type": "address"
        }
      ],
      "stateMutability": "view",
      "type": "function"
    },
    {
      "inputs": [],
      "name": "reactivate",
      "outputs": [],
      "stateMutability": "payable",
      "type": "function"
    },
    {
      "inputs": [
        {
          "internalType": "address",
          "name": "asset",
          "type": "address"
        }
      ],
      "name": "removeAssetCondition",
      "outputs": [],
      "stateMutability": "nonpayable",
      "type": "function"
    },
    {
      "inputs": [
        {
          "internalType": "address",
          "name": "asset",
          "type": "address"
        }
      ],
      "name": "removeAssetHook",
      "outputs": [],
      "stateMutability": "nonpayable",
      "type": "function"
    },
    {
      "inputs": [
        {
          "internalType": "address",
          "name": "experience",
          "type": "address"
        }
      ],
      "name": "removeExperience",
      "outputs": [],
      "stateMutability": "nonpayable",
      "type": "function"
    },
    {
      "inputs": [
        {
          "internalType": "address",
          "name": "experience",
          "type": "address"
        }
      ],
      "name": "removeExperienceCondition",
      "outputs": [],
      "stateMutability": "nonpayable",
      "type": "function"
    },
    {
      "inputs": [],
      "name": "removeHook",
      "outputs": [],
      "stateMutability": "nonpayable",
      "type": "function"
    },
    {
      "inputs": [
        {
          "internalType": "address[]",
          "name": "signers",
          "type": "address[]"
        }
      ],
      "name": "removeSigners",
      "outputs": [],
      "stateMutability": "nonpayable",
      "type": "function"
    },
    {
      "inputs": [
        {
          "internalType": "address",
          "name": "asset",
          "type": "address"
        },
        {
          "internalType": "address",
          "name": "holder",
          "type": "address"
        },
        {
          "internalType": "bytes",
          "name": "data",
          "type": "bytes"
        }
      ],
      "name": "revoke",
      "outputs": [],
      "stateMutability": "nonpayable",
      "type": "function"
    },
    {
      "inputs": [
        {
          "internalType": "contract ICompanyHook",
          "name": "_hook",
          "type": "address"
        }
      ],
      "name": "setHook",
      "outputs": [],
      "stateMutability": "nonpayable",
      "type": "function"
    },
    {
      "inputs": [
        {
          "internalType": "bytes",
          "name": "initData",
          "type": "bytes"
        }
      ],
      "name": "upgrade",
      "outputs": [],
      "stateMutability": "nonpayable",
      "type": "function"
    },
    {
      "inputs": [
        {
          "internalType": "address",
          "name": "asset",
          "type": "address"
        },
        {
          "internalType": "bytes",
          "name": "initData",
          "type": "bytes"
        }
      ],
      "name": "upgradeAsset",
      "outputs": [],
      "stateMutability": "nonpayable",
      "type": "function"
    },
    {
      "inputs": [
        {
          "internalType": "address",
          "name": "nextVersion",
          "type": "address"
        }
      ],
      "name": "upgradeComplete",
      "outputs": [],
      "stateMutability": "nonpayable",
      "type": "function"
    },
    {
      "inputs": [
        {
          "internalType": "address",
          "name": "experience",
          "type": "address"
        },
        {
          "internalType": "bytes",
          "name": "initData",
          "type": "bytes"
        }
      ],
      "name": "upgradeExperience",
      "outputs": [],
      "stateMutability": "nonpayable",
      "type": "function"
    },
    {
      "inputs": [],
      "name": "vectorAddress",
      "outputs": [
        {
          "components": [
            {
              "internalType": "string",
              "name": "x",
              "type": "string"
            },
            {
              "internalType": "string",
              "name": "y",
              "type": "string"
            },
            {
              "internalType": "string",
              "name": "z",
              "type": "string"
            },
            {
              "internalType": "uint256",
              "name": "t",
              "type": "uint256"
            },
            {
              "internalType": "uint256",
              "name": "p",
              "type": "uint256"
            },
            {
              "internalType": "uint256",
              "name": "p_sub",
              "type": "uint256"
            }
          ],
          "internalType": "struct VectorAddress",
          "name": "",
          "type": "tuple"
        }
      ],
      "stateMutability": "view",
      "type": "function"
    },
    {
      "inputs": [],
      "name": "version",
      "outputs": [
        {
          "internalType": "uint256",
          "name": "",
          "type": "uint256"
        }
      ],
      "stateMutability": "view",
      "type": "function"
    },
    {
      "inputs": [
        {
          "internalType": "uint256",
          "name": "amount",
          "type": "uint256"
        }
      ],
      "name": "withdraw",
      "outputs": [],
      "stateMutability": "nonpayable",
      "type": "function"
    },
    {
      "inputs": [],
      "name": "world",
      "outputs": [
        {
          "internalType": "address",
          "name": "",
          "type": "address"
        }
      ],
      "stateMutability": "view",
      "type": "function"
    },
    {
      "stateMutability": "payable",
      "type": "receive"
    }
  ],
  "bytecode": "0x6101206040523480156200001257600080fd5b50604051620043c9380380620043c98339810160408190526200003591620002ba565b600160005580516001600160a01b0316620000a55760405162461bcd60e51b815260206004820152602560248201527f436f6d70616e793a20636f6d70616e79466163746f72792063616e6e6f742062604482015264065203078360dc1b60648201526084015b60405180910390fd5b60208101516001600160a01b0316620001105760405162461bcd60e51b815260206004820152602660248201527f436f6d70616e793a20636f6d70616e7952656769737472792063616e6e6f742060448201526506265203078360d41b60648201526084016200009c565b60408101516001600160a01b03166200017e5760405162461bcd60e51b815260206004820152602960248201527f436f6d70616e793a20657870657269656e636552656769737472792063616e6e60448201526806f74206265203078360bc1b60648201526084016200009c565b60608101516001600160a01b0316620001e65760405162461bcd60e51b8152602060048201526024808201527f436f6d70616e793a20617373657452656769737472792063616e6e6f742062656044820152630203078360e41b60648201526084016200009c565b60808101516001600160a01b0316620002505760405162461bcd60e51b815260206004820152602560248201527f436f6d70616e793a2061766174617252656769737472792063616e6e6f742062604482015264065203078360dc1b60648201526084016200009c565b80516001600160a01b0390811660809081526020830151821660a0526040830151821660c0526060830151821660e05290910151166101005262000365565b6001600160a01b0381168114620002a557600080fd5b50565b8051620002b5816200028f565b919050565b600060a08284031215620002cd57600080fd5b60405160a081016001600160401b0381118282101715620002fe57634e487b7160e01b600052604160045260246000fd5b60405282516200030e816200028f565b8152602083015162000320816200028f565b60208201526200033360408401620002a8565b60408201526200034660608401620002a8565b60608201526200035960808401620002a8565b60808201529392505050565b60805160a05160c05160e05161010051613fc4620004056000396000818161072d0152611bcd015260008181610629015281816119730152611f220152600081816105f5015261137001526000818161069d015281816110ef0152818161220d0152818161228801528181612cd90152612d540152600081816106f90152818161115d015281816111d70152818161234e01526123c80152613fc46000f3fe60806040526004361061023f5760003560e01c806354fd4d501161012e578063979d7e86116100ab578063db70a6931161006f578063db70a693146106c7578063dc1c44be146106e7578063e3d7ad731461071b578063e8906a2d1461074f578063f1ddecf91461076f57600080fd5b8063979d7e86146106175780639e29186d1461064b578063b404b6741461066b578063c51aba2b1461068b578063d18611d6146106bf57600080fd5b80637df73e27116100f25780637df73e27146105795780637f5a7c7b146105995780638d361e43146105ae5780638da5cb5b146105ce5780638f09a6be146105e357600080fd5b806354fd4d50146104d657806357433ea6146104f95780636330347a1461051957806368ea2306146105395780637d4daec51461055957600080fd5b80632a7a0d99116101bc57806337b4eb061161018057806337b4eb061461044157806338c8a97b146104615780633dfd38731461048157806351b42b00146104a15780635466ddd5146104b657600080fd5b80632a7a0d991461039d5780632e1a7d4d146103bd5780632fcbab9a146103dd57806330b67baa146103ff578063378f17ff1461042c57600080fd5b806322f3e2d41161020357806322f3e2d4146102f8578063243546a61461031d578063253946451461033d5780632663d1f71461035d57806329f2691d1461037d57600080fd5b80630346f5f51461024b57806306fdde031461026d5780631187b6271461029857806316c49b11146102b85780631961f05d146102d857600080fd5b3661024657005b600080fd5b34801561025757600080fd5b5061026b6102663660046133b0565b61078f565b005b34801561027957600080fd5b506102826108a0565b60405161028f9190613422565b60405180910390f35b3480156102a457600080fd5b5061026b6102b3366004613435565b610941565b3480156102c457600080fd5b5061026b6102d336600461346e565b610a49565b3480156102e457600080fd5b5061026b6102f33660046134a8565b610be1565b34801561030457600080fd5b5061030d610cdc565b604051901515815260200161028f565b34801561032957600080fd5b5061026b6103383660046135b1565b610cf1565b34801561034957600080fd5b5061026b610358366004613657565b611069565b34801561036957600080fd5b5061026b6103783660046134a8565b61115b565b34801561038957600080fd5b5061026b6103983660046134a8565b611270565b3480156103a957600080fd5b5061030d6103b8366004613693565b61136b565b3480156103c957600080fd5b5061026b6103d8366004613693565b61153b565b3480156103e957600080fd5b506103f261164a565b60405161028f919061371f565b34801561040b57600080fd5b50610414611878565b6040516001600160a01b03909116815260200161028f565b34801561043857600080fd5b5061026b611896565b34801561044d57600080fd5b5061030d61045c366004613732565b611925565b34801561046d57600080fd5b5061026b61047c366004613732565b611e8c565b34801561048d57600080fd5b5061026b61049c3660046134a8565b612115565b3480156104ad57600080fd5b5061026b61220b565b3480156104c257600080fd5b5061026b6104d1366004613874565b61234c565b3480156104e257600080fd5b506104eb600181565b60405190815260200161028f565b34801561050557600080fd5b5061026b610514366004613435565b61267b565b34801561052557600080fd5b5061026b610534366004613435565b612787565b34801561054557600080fd5b5061026b6105543660046134a8565b61288f565b34801561056557600080fd5b506102826105743660046135b1565b6129cd565b34801561058557600080fd5b5061030d6105943660046134a8565b6129f6565b3480156105a557600080fd5b50610414612a23565b3480156105ba57600080fd5b5061026b6105c936600461394a565b612a41565b3480156105da57600080fd5b50610414612a8c565b3480156105ef57600080fd5b506104147f000000000000000000000000000000000000000000000000000000000000000081565b34801561062357600080fd5b506104147f000000000000000000000000000000000000000000000000000000000000000081565b34801561065757600080fd5b5061026b6106663660046134a8565b612aac565b34801561067757600080fd5b5061026b6106863660046139be565b612bad565b34801561069757600080fd5b506104147f000000000000000000000000000000000000000000000000000000000000000081565b61026b612cd7565b3480156106d357600080fd5b5061026b6106e23660046139be565b612dd5565b3480156106f357600080fd5b506104147f000000000000000000000000000000000000000000000000000000000000000081565b34801561072757600080fd5b506104147f000000000000000000000000000000000000000000000000000000000000000081565b34801561075b57600080fd5b5061026b61076a36600461394a565b612f02565b34801561077b57600080fd5b5061026b61078a366004613732565b612f4d565b6000610799613088565b90506107b481600080516020613f6f833981519152336130ac565b6107d95760405162461bcd60e51b81526004016107d090613a0d565b60405180910390fd5b60006107e36130d9565b805490915060ff166108075760405162461bcd60e51b81526004016107d090613a58565b6040516383c3426360e01b81526004810184905284906001600160a01b038216906383c3426390602401600060405180830381600087803b15801561084b57600080fd5b505af115801561085f573d6000803e3d6000fd5b50506040518692506001600160a01b03881691507f14a414080493d85b6f8d3ea30fe461ad89a3dd357c1ebdaa3ae460f22943e66090600090a35050505050565b606060006108ac6130d9565b90508060090180546108bd90613a8f565b80601f01602080910402602001604051908101604052809291908181526020018280546108e990613a8f565b80156109365780601f1061090b57610100808354040283529160200191610936565b820191906000526020600020905b81548152906001019060200180831161091957829003601f168201915b505050505091505090565b600061094b613088565b905061096681600080516020613f6f833981519152336130ac565b6109825760405162461bcd60e51b81526004016107d090613a0d565b600061098c6130d9565b805490915060ff166109b05760405162461bcd60e51b81526004016107d090613a58565b604051630f69c09d60e31b81526001600160a01b038481166004830152851690637b4e04e890602401600060405180830381600087803b1580156109f357600080fd5b505af1158015610a07573d6000803e3d6000fd5b50506040516001600160a01b038087169350871691507fffff644ad01500a55354373e8b6eb94475b2370fbdd91e798ba7c4cdc396b23790600090a350505050565b6000610a53613088565b9050610a6e81600080516020613f4f833981519152336130ac565b610a8a5760405162461bcd60e51b81526004016107d090613ac9565b6000610a946130d9565b805490915060ff16610ab85760405162461bcd60e51b81526004016107d090613a58565b6000610ac760208501856134a8565b9050806001600160a01b0316637dc759e560405180606001604052808760200135815260200187604001358152602001878060600190610b079190613b15565b8080601f01602080910402602001604051908101604052809392919081815260200183838082843760009201919091525050509152506040516001600160e01b031960e084901b168152610b5e9190600401613b62565b600060405180830381600087803b158015610b7857600080fd5b505af1158015610b8c573d6000803e3d6000fd5b50505050604084013560208501803590610ba690876134a8565b6001600160a01b03167fa91163c384fd7aaeb9af411ac3a6fb176839758a072ab72d1d322e80fa64205f60405160405180910390a450505050565b6000610beb613088565b9050610c0681600080516020613f6f833981519152336130ac565b610c225760405162461bcd60e51b81526004016107d090613a0d565b6000610c2c6130d9565b805490915060ff16610c505760405162461bcd60e51b81526004016107d090613a58565b826001600160a01b031663378f17ff6040518163ffffffff1660e01b8152600401600060405180830381600087803b158015610c8b57600080fd5b505af1158015610c9f573d6000803e3d6000fd5b50506040516001600160a01b03861692507fd34fab4c79595ff7a5ea58a35bee78557c3ce0ae848ef3538f25f572e2df9b7e9150600090a2505050565b600080610ce76130d9565b5460ff1692915050565b6000610cfb613088565b9050610d1681600080516020613f4f833981519152336130ac565b610d325760405162461bcd60e51b81526004016107d090613ac9565b6000610d3c6130d9565b805490915060ff16610d605760405162461bcd60e51b81526004016107d090613a58565b610d686130fd565b6000610d726130d9565b905080600a0160008154610d8590613b91565b9190508190555060006040518060c00160405280836003016000018054610dab90613a8f565b80601f0160208091040260200160405190810160405280929190818152602001828054610dd790613a8f565b8015610e245780601f10610df957610100808354040283529160200191610e24565b820191906000526020600020905b815481529060010190602001808311610e0757829003601f168201915b50505050508152602001836003016001018054610e4090613a8f565b80601f0160208091040260200160405190810160405280929190818152602001828054610e6c90613a8f565b8015610eb95780601f10610e8e57610100808354040283529160200191610eb9565b820191906000526020600020905b815481529060010190602001808311610e9c57829003601f168201915b50505050508152602001836003016002018054610ed590613a8f565b80601f0160208091040260200160405190810160405280929190818152602001828054610f0190613a8f565b8015610f4e5780601f10610f2357610100808354040283529160200191610f4e565b820191906000526020600020905b815481529060010190602001808311610f3157829003601f168201915b505050918352505060068401546020808301919091526007850154604080840191909152600a8601546060938401528051608081018252848152308184015291890151828201528851928201929092526001850154915163626a29e160e11b81529293509160009182916001600160a01b039091169063c4d453c290610fd8908690600401613bb8565b60408051808303816000875af1158015610ff6573d6000803e3d6000fd5b505050506040513d601f19601f8201168201806040525081019061101a9190613c2b565b9150915080826001600160a01b03167fdd1416df66cb3941d0ab5716b19acf9c3c0f4afbd2bfe67a0d6a8f6ab6d3afc860405160405180910390a350505050506110646001600055565b505050565b6000611073613088565b905061108e81600080516020613f6f833981519152336130ac565b6110aa5760405162461bcd60e51b81526004016107d090613a0d565b60006110b46130d9565b805490915060ff166110d85760405162461bcd60e51b81526004016107d090613a58565b60405163d449cf2560e01b81526001600160a01b037f0000000000000000000000000000000000000000000000000000000000000000169063d449cf2590611124908690600401613422565b600060405180830381600087803b15801561113e57600080fd5b505af1158015611152573d6000803e3d6000fd5b50505050505050565b7f00000000000000000000000000000000000000000000000000000000000000006001600160a01b03166111cc5760405162461bcd60e51b815260206004820152601860248201527710dbdb5c185b9e4e88199858dd1bdc9e481b9bdd081cd95d60421b60448201526064016107d0565b336001600160a01b037f000000000000000000000000000000000000000000000000000000000000000016146112145760405162461bcd60e51b81526004016107d090613c59565b600061121e613088565b80546001600160a01b038481166001600160a01b031983168117845560405193945091169182907f62e097eae9ab3bdbcbf8876a75515aa178198bfb2b0e9a90a7308bceb2efa6e690600090a3505050565b600061127a613088565b905061129581600080516020613f6f833981519152336130ac565b6112b15760405162461bcd60e51b81526004016107d090613a0d565b60006112bb6130d9565b805490915060ff166112df5760405162461bcd60e51b81526004016107d090613a58565b826001600160a01b031663021665b76040518163ffffffff1660e01b8152600401600060405180830381600087803b15801561131a57600080fd5b505af115801561132e573d6000803e3d6000fd5b50506040516001600160a01b03861692507f587924a72db2d549ae82394e0f217aa6e4e46b96fa812e3ba7796151433f4f4d9150600090a2505050565b6000807f00000000000000000000000000000000000000000000000000000000000000006001600160a01b031663b66649346040518163ffffffff1660e01b8152600401602060405180830381865afa1580156113cc573d6000803e3d6000fd5b505050506040513d601f19601f820116820180604052508101906113f09190613c9b565b604051630a22d5a160e21b8152600481018590529091506000906001600160a01b0383169063288b568490602401608060405180830381865afa15801561143b573d6000803e3d6000fd5b505050506040513d601f19601f8201168201806040525081019061145f9190613cc8565b80519091506001600160a01b03166114b95760405162461bcd60e51b815260206004820152601e60248201527f436f6d70616e793a20706f7274616c20646f6573206e6f74206578697374000060448201526064016107d0565b306001600160a01b031681600001516001600160a01b0316636904c94d6040518163ffffffff1660e01b8152600401602060405180830381865afa158015611505573d6000803e3d6000fd5b505050506040513d601f19601f820116820180604052508101906115299190613c9b565b6001600160a01b031614949350505050565b6000611545613088565b905061156081600080516020613f6f833981519152336130ac565b61157c5760405162461bcd60e51b81526004016107d090613a0d565b60006115866130d9565b805490915060ff166115aa5760405162461bcd60e51b81526004016107d090613a58565b478311156115fa5760405162461bcd60e51b815260206004820152601d60248201527f436f6d70616e793a20696e73756666696369656e742062616c616e636500000060448201526064016107d0565b60006116046130d9565b805460405191925061010090046001600160a01b0316906108fc8615029086906000818181858888f19350505050158015611643573d6000803e3d6000fd5b5050505050565b6116836040518060c001604052806060815260200160608152602001606081526020016000815260200160008152602001600081525090565b600061168d6130d9565b9050806003016040518060c00160405290816000820180546116ae90613a8f565b80601f01602080910402602001604051908101604052809291908181526020018280546116da90613a8f565b80156117275780601f106116fc57610100808354040283529160200191611727565b820191906000526020600020905b81548152906001019060200180831161170a57829003601f168201915b5050505050815260200160018201805461174090613a8f565b80601f016020809104026020016040519081016040528092919081815260200182805461176c90613a8f565b80156117b95780601f1061178e576101008083540402835291602001916117b9565b820191906000526020600020905b81548152906001019060200180831161179c57829003601f168201915b505050505081526020016002820180546117d290613a8f565b80601f01602080910402602001604051908101604052809291908181526020018280546117fe90613a8f565b801561184b5780601f106118205761010080835404028352916020019161184b565b820191906000526020600020905b81548152906001019060200180831161182e57829003601f168201915b50505050508152602001600382015481526020016004820154815260200160058201548152505091505090565b6000806118836130d9565b600101546001600160a01b031692915050565b60006118a0613088565b90506118bb81600080516020613f6f833981519152336130ac565b6118d75760405162461bcd60e51b81526004016107d090613a0d565b60006118e16130d9565b805490915060ff166119055760405162461bcd60e51b81526004016107d090613a58565b600061190f6130d9565b60020180546001600160a01b0319169055505050565b6000806119306130d9565b805490915060ff166119545760405162461bcd60e51b81526004016107d090613a58565b6040516315bd8ac360e31b81526001600160a01b0387811660048301527f0000000000000000000000000000000000000000000000000000000000000000169063adec561890602401602060405180830381865afa1580156119ba573d6000803e3d6000fd5b505050506040513d601f19601f820116820180604052508101906119de9190613d41565b611a2a5760405162461bcd60e51b815260206004820152601d60248201527f436f6d70616e793a206173736574206e6f74207265676973746572656400000060448201526064016107d0565b6000869050306001600160a01b0316816001600160a01b0316631d1438486040518163ffffffff1660e01b8152600401602060405180830381865afa158015611a77573d6000803e3d6000fd5b505050506040513d601f19601f82011682018060405250810190611a9b9190613c9b565b6001600160a01b031614611af15760405162461bcd60e51b815260206004820152601c60248201527f436f6d70616e793a206e6f7420697373756572206f662061737365740000000060448201526064016107d0565b604051634f2a605160e11b81526001600160a01b03821690639e54c0a290611b2190899089908990600401613d5c565b602060405180830381865afa158015611b3e573d6000803e3d6000fd5b505050506040513d601f19601f82011682018060405250810190611b629190613d41565b611bae5760405162461bcd60e51b815260206004820152601f60248201527f436f6d70616e793a2063616e6e6f74206d696e7420746f20616464726573730060448201526064016107d0565b604051632b0fe8e760e21b81526001600160a01b0387811660048301527f0000000000000000000000000000000000000000000000000000000000000000169063ac3fa39c90602401602060405180830381865afa158015611c14573d6000803e3d6000fd5b505050506040513d601f19601f82011682018060405250810190611c389190613d41565b611c46576001925050611e83565b6000869050806001600160a01b031663181d939b6040518163ffffffff1660e01b8152600401602060405180830381865afa158015611c89573d6000803e3d6000fd5b505050506040513d601f19601f82011682018060405250810190611cad9190613d41565b611e7c576000816001600160a01b031663516f279e6040518163ffffffff1660e01b8152600401602060405180830381865afa158015611cf1573d6000803e3d6000fd5b505050506040513d601f19601f82011682018060405250810190611d159190613c9b565b90506001600160a01b038116611d835760405162461bcd60e51b815260206004820152602d60248201527f436f6d70616e793a20617661746172206c6f636174696f6e206973206e6f742060448201526c616e20657870657269656e636560981b60648201526084016107d0565b306001600160a01b0316816001600160a01b0316636904c94d6040518163ffffffff1660e01b8152600401602060405180830381865afa158015611dcb573d6000803e3d6000fd5b505050506040513d601f19601f82011682018060405250810190611def9190613c9b565b6001600160a01b031614611e7a5760405162461bcd60e51b815260206004820152604660248201527f436f6d70616e793a20617661746172206c6f636174696f6e206973206e6f742060448201527f696e20616e20657870657269656e6365206f776e6564206279207468697320636064820152656f6d70616e7960d01b608482015260a4016107d0565b505b6001935050505b50949350505050565b6000611e96613088565b9050611eb181600080516020613f4f833981519152336130ac565b611ecd5760405162461bcd60e51b81526004016107d090613ac9565b6000611ed76130d9565b805490915060ff16611efb5760405162461bcd60e51b81526004016107d090613a58565b611f036130fd565b6040516315bd8ac360e31b81526001600160a01b0387811660048301527f0000000000000000000000000000000000000000000000000000000000000000169063adec561890602401602060405180830381865afa158015611f69573d6000803e3d6000fd5b505050506040513d601f19601f82011682018060405250810190611f8d9190613d41565b611fd95760405162461bcd60e51b815260206004820152601d60248201527f436f6d70616e793a206173736574206e6f74207265676973746572656400000060448201526064016107d0565b6000869050306001600160a01b0316816001600160a01b0316631d1438486040518163ffffffff1660e01b8152600401602060405180830381865afa158015612026573d6000803e3d6000fd5b505050506040513d601f19601f8201168201806040525081019061204a9190613c9b565b6001600160a01b0316146120a05760405162461bcd60e51b815260206004820152601c60248201527f436f6d70616e793a206e6f7420697373756572206f662061737365740000000060448201526064016107d0565b6040516326a5ce1160e21b81526001600160a01b03821690639a973844906120d090899089908990600401613d5c565b600060405180830381600087803b1580156120ea57600080fd5b505af11580156120fe573d6000803e3d6000fd5b505050505061210d6001600055565b505050505050565b600061211f613088565b905061213a81600080516020613f6f833981519152336130ac565b6121565760405162461bcd60e51b81526004016107d090613a0d565b60006121606130d9565b805490915060ff166121845760405162461bcd60e51b81526004016107d090613a58565b6001600160a01b0383166121da5760405162461bcd60e51b815260206004820152601b60248201527f436f6d70616e793a20686f6f6b2063616e6e6f7420626520307830000000000060448201526064016107d0565b60006121e46130d9565b60020180546001600160a01b0319166001600160a01b039590951694909417909355505050565b7f00000000000000000000000000000000000000000000000000000000000000006001600160a01b031661227d5760405162461bcd60e51b815260206004820152601960248201527810dbdb5c185b9e4e881c9959da5cdd1c9e481b9bdd081cd95d603a1b60448201526064016107d0565b336001600160a01b037f000000000000000000000000000000000000000000000000000000000000000016146122c55760405162461bcd60e51b81526004016107d090613d9c565b60006122cf6130d9565b805460ff19168155905047156123205780546040516001600160a01b0361010090920491909116904780156108fc02916000818181858888f1935050505015801561231e573d6000803e3d6000fd5b505b6040517fa1a961b1a2237b0757aff22aeafaad33ca80373bc4c839e24721ab9ba899321690600090a150565b7f00000000000000000000000000000000000000000000000000000000000000006001600160a01b03166123bd5760405162461bcd60e51b815260206004820152601860248201527710dbdb5c185b9e4e88199858dd1bdc9e481b9bdd081cd95d60421b60448201526064016107d0565b336001600160a01b037f000000000000000000000000000000000000000000000000000000000000000016146124055760405162461bcd60e51b81526004016107d090613c59565b600061240f6130d9565b805490915061010090046001600160a01b03161561246f5760405162461bcd60e51b815260206004820152601c60248201527f436f6d70616e793a20616c726561647920696e697469616c697a65640000000060448201526064016107d0565b81516001600160a01b03166124c65760405162461bcd60e51b815260206004820152601c60248201527f436f6d70616e793a206f776e65722063616e6e6f74206265203078300000000060448201526064016107d0565b60008260800151511161251b5760405162461bcd60e51b815260206004820152601d60248201527f436f6d70616e793a206e616d652063616e6e6f7420626520656d70747900000060448201526064016107d0565b60208201516001600160a01b03166125755760405162461bcd60e51b815260206004820152601c60248201527f436f6d70616e793a20776f726c642063616e6e6f74206265203078300000000060448201526064016107d0565b81518154610100600160a81b0319166101006001600160a01b039283160217825560208301516001830180546001600160a01b0319169190921617905560408201518051600383019081906125ca9082613e27565b50602082015160018201906125df9082613e27565b50604082015160028201906125f49082613e27565b5060608201516003820155608080830151600483015560a09092015160059091015582015160098201906126289082613e27565b50805460ff19166001178155600061263e613088565b835190915061265e908290600080516020613f6f83398151915290613127565b8251611064908290600080516020613f4f83398151915290613127565b6000612685613088565b90506126a081600080516020613f6f833981519152336130ac565b6126bc5760405162461bcd60e51b81526004016107d090613a0d565b60006126c66130d9565b805490915060ff166126ea5760405162461bcd60e51b81526004016107d090613a58565b6040516337eff0db60e11b81526001600160a01b038481166004830152859190821690636fdfe1b690602401600060405180830381600087803b15801561273057600080fd5b505af1158015612744573d6000803e3d6000fd5b50506040516001600160a01b038088169350881691507f4006223aabe677a0b96c8061fc0a513086066d0eb09c0ca7c2daba806009702e90600090a35050505050565b6000612791613088565b90506127ac81600080516020613f6f833981519152336130ac565b6127c85760405162461bcd60e51b81526004016107d090613a0d565b60006127d26130d9565b805490915060ff166127f65760405162461bcd60e51b81526004016107d090613a58565b604051631169a49960e11b81526001600160a01b0384811660048301528516906322d3493290602401600060405180830381600087803b15801561283957600080fd5b505af115801561284d573d6000803e3d6000fd5b50506040516001600160a01b038087169350871691507f18b203d674efe131dd8ea462d1addb8df2ab0f9fe61e61417663e38ac97b98ee90600090a350505050565b6000612899613088565b90506128b481600080516020613f6f833981519152336130ac565b6128d05760405162461bcd60e51b81526004016107d090613a0d565b60006128da6130d9565b805490915060ff166128fe5760405162461bcd60e51b81526004016107d090613a58565b6129066130fd565b60006129106130d9565b600181015460405163530bdd9d60e01b81526001600160a01b0387811660048301529293506000929091169063530bdd9d906024016020604051808303816000875af1158015612964573d6000803e3d6000fd5b505050506040513d601f19601f820116820180604052508101906129889190613ee6565b905080856001600160a01b03167f32b5d601345b9420b2b2285aeaec64fff7f2fcb082220b952ef7c76879a847ec60405160405180910390a350506110646001600055565b6060816040516020016129e09190613eff565b6040516020818303038152906040529050919050565b600080612a01613088565b9050612a1c81600080516020613f4f833981519152856130ac565b9392505050565b600080612a2e6130d9565b600201546001600160a01b031692915050565b6000612a4b613088565b9050612a6681600080516020613f6f833981519152336130ac565b612a825760405162461bcd60e51b81526004016107d090613a0d565b611064838361315a565b600080612a976130d9565b5461010090046001600160a01b031692915050565b6000612ab6613088565b9050612ad181600080516020613f6f833981519152336130ac565b612aed5760405162461bcd60e51b81526004016107d090613a0d565b6000612af76130d9565b805490915060ff16612b1b5760405162461bcd60e51b81526004016107d090613a58565b6000839050806001600160a01b03166358779dcf6040518163ffffffff1660e01b8152600401600060405180830381600087803b158015612b5b57600080fd5b505af1158015612b6f573d6000803e3d6000fd5b50506040516001600160a01b03871692507f26869f3308be657b43d5d73417f4e27a529e73990ba65d6296facce0b0c0b9029150600090a250505050565b6000612bb7613088565b9050612bd281600080516020613f6f833981519152336130ac565b612bee5760405162461bcd60e51b81526004016107d090613a0d565b6000612bf86130d9565b805490915060ff16612c1c5760405162461bcd60e51b81526004016107d090613a58565b604051632539464560e01b81526000906001600160a01b03861690632539464590612c4b908790600401613422565b6020604051808303816000875af1158015612c6a573d6000803e3d6000fd5b505050506040513d601f19601f82011682018060405250810190612c8e9190613c9b565b9050806001600160a01b0316856001600160a01b03167fbf7fb47447dbef72e45b9f77827e29a57677da0190acbb5c606a8a7acdca0da460405160405180910390a35050505050565b7f00000000000000000000000000000000000000000000000000000000000000006001600160a01b0316612d495760405162461bcd60e51b815260206004820152601960248201527810dbdb5c185b9e4e881c9959da5cdd1c9e481b9bdd081cd95d603a1b60448201526064016107d0565b336001600160a01b037f00000000000000000000000000000000000000000000000000000000000000001614612d915760405162461bcd60e51b81526004016107d090613d9c565b6000612d9b6130d9565b805460ff191660011781556040519091507fc9663b20bf4752507751d7ec98f8481f07dcbdad89f5172ef8913801dcdc938b90600090a150565b6000612ddf613088565b9050612dfa81600080516020613f6f833981519152336130ac565b612e165760405162461bcd60e51b81526004016107d090613a0d565b6000612e206130d9565b805490915060ff16612e445760405162461bcd60e51b81526004016107d090613a58565b604051632539464560e01b815284906000906001600160a01b03831690632539464590612e75908890600401613422565b6020604051808303816000875af1158015612e94573d6000803e3d6000fd5b505050506040513d601f19601f82011682018060405250810190612eb89190613c9b565b9050806001600160a01b0316866001600160a01b03167f145f0be334839783469cf7a36b844c157703c7184ba2395f27ecfcfee9925bf560405160405180910390a3505050505050565b6000612f0c613088565b9050612f2781600080516020613f6f833981519152336130ac565b612f435760405162461bcd60e51b81526004016107d090613a0d565b6110648383613243565b6000612f57613088565b9050612f7281600080516020613f4f833981519152336130ac565b612f8e5760405162461bcd60e51b81526004016107d090613ac9565b6000612f986130d9565b805490915060ff16612fbc5760405162461bcd60e51b81526004016107d090613a58565b612fc46130fd565b612fd086868686611925565b61301c5760405162461bcd60e51b815260206004820152601a60248201527f436f6d70616e793a2063616e6e6f74206d696e7420617373657400000000000060448201526064016107d0565b60405163b510391f60e01b81526001600160a01b0387169063b510391f9061304c90889088908890600401613d5c565b600060405180830381600087803b15801561306657600080fd5b505af115801561307a573d6000803e3d6000fd5b5050505061210d6001600055565b7f69198989339f34e10129e514286bde98979351148754faef989dde18bf6d14da90565b6000918252600192909201602090815260408083206001600160a01b039094168352929052205460ff1690565b7f6373b2650f68a30b6fdd87e3caf4df754a3a8f8ef4b09bbd1bb4ff21f356aa2c90565b60026000540361312057604051633ee5aeb560e01b815260040160405180910390fd5b6002600055565b60009182526001928301602090815260408084206001600160a01b0390931684529190529020805460ff19169091179055565b6000613164613088565b905060005b8281101561323d576131d9600080516020613f4f83398151915285858481811061319557613195613f38565b90506020020160208101906131aa91906134a8565b600091825260018501602090815260408084206001600160a01b0390931684529190529020805460ff19169055565b8383828181106131eb576131eb613f38565b905060200201602081019061320091906134a8565b6001600160a01b03167f3525e22824a8a7df2c9a6029941c824cf95b6447f1e13d5128fd3826d35afe8b60405160405180910390a2600101613169565b50505050565b600061324d613088565b905060005b8281101561323d57600084848381811061326e5761326e613f38565b905060200201602081019061328391906134a8565b6001600160a01b0316036132e35760405162461bcd60e51b815260206004820152602160248201527f4261736550726f78793a207369676e6572206973207a65726f206164647265736044820152607360f81b60648201526084016107d0565b613324600080516020613f4f83398151915285858481811061330757613307613f38565b905060200201602081019061331c91906134a8565b849190613127565b83838281811061333657613336613f38565b905060200201602081019061334b91906134a8565b6001600160a01b03167f47d1c22a25bb3a5d4e481b9b1e6944c2eade3181a0a20b495ed61d35b5323f2460405160405180910390a2600101613252565b6001600160a01b038116811461339d57600080fd5b50565b80356133ab81613388565b919050565b600080604083850312156133c357600080fd5b82356133ce81613388565b946020939093013593505050565b6000815180845260005b81811015613402576020818501810151868301820152016133e6565b506000602082860101526020601f19601f83011685010191505092915050565b602081526000612a1c60208301846133dc565b6000806040838503121561344857600080fd5b823561345381613388565b9150602083013561346381613388565b809150509250929050565b60006020828403121561348057600080fd5b81356001600160401b0381111561349657600080fd5b820160808185031215612a1c57600080fd5b6000602082840312156134ba57600080fd5b8135612a1c81613388565b634e487b7160e01b600052604160045260246000fd5b60405160c081016001600160401b03811182821017156134fd576134fd6134c5565b60405290565b60405160a081016001600160401b03811182821017156134fd576134fd6134c5565b600082601f83011261353657600080fd5b81356001600160401b0380821115613550576135506134c5565b604051601f8301601f19908116603f01168101908282118183101715613578576135786134c5565b8160405283815286602085880101111561359157600080fd5b836020870160208301376000602085830101528094505050505092915050565b6000602082840312156135c357600080fd5b81356001600160401b03808211156135da57600080fd5b90830190604082860312156135ee57600080fd5b604051604081018181108382111715613609576136096134c5565b60405282358281111561361b57600080fd5b61362787828601613525565b82525060208301358281111561363c57600080fd5b61364887828601613525565b60208301525095945050505050565b60006020828403121561366957600080fd5b81356001600160401b0381111561367f57600080fd5b61368b84828501613525565b949350505050565b6000602082840312156136a557600080fd5b5035919050565b6000815160c084526136c160c08501826133dc565b9050602083015184820360208601526136da82826133dc565b915050604083015184820360408601526136f482826133dc565b915050606083015160608501526080830151608085015260a083015160a08501528091505092915050565b602081526000612a1c60208301846136ac565b6000806000806060858703121561374857600080fd5b843561375381613388565b9350602085013561376381613388565b925060408501356001600160401b038082111561377f57600080fd5b818701915087601f83011261379357600080fd5b8135818111156137a257600080fd5b8860208285010111156137b457600080fd5b95989497505060200194505050565b600060c082840312156137d557600080fd5b6137dd6134db565b905081356001600160401b03808211156137f657600080fd5b61380285838601613525565b8352602084013591508082111561381857600080fd5b61382485838601613525565b6020840152604084013591508082111561383d57600080fd5b5061384a84828501613525565b604083015250606082013560608201526080820135608082015260a082013560a082015292915050565b60006020828403121561388657600080fd5b81356001600160401b038082111561389d57600080fd5b9083019060a082860312156138b157600080fd5b6138b9613503565b6138c2836133a0565b81526138d0602084016133a0565b60208201526040830135828111156138e757600080fd5b6138f3878286016137c3565b60408301525060608301358281111561390b57600080fd5b61391787828601613525565b60608301525060808301358281111561392f57600080fd5b61393b87828601613525565b60808301525095945050505050565b6000806020838503121561395d57600080fd5b82356001600160401b038082111561397457600080fd5b818501915085601f83011261398857600080fd5b81358181111561399757600080fd5b8660208260051b85010111156139ac57600080fd5b60209290920196919550909350505050565b600080604083850312156139d157600080fd5b82356139dc81613388565b915060208301356001600160401b038111156139f757600080fd5b613a0385828601613525565b9150509250929050565b6020808252602b908201527f426173654163636573733a2063616c6c657220646f6573206e6f74206861766560408201526a2061646d696e20726f6c6560a81b606082015260800190565b6020808252601e908201527f436f6d70616e793a20636f6d70616e79206973206e6f74206163746976650000604082015260600190565b600181811c90821680613aa357607f821691505b602082108103613ac357634e487b7160e01b600052602260045260246000fd5b50919050565b6020808252602c908201527f426173654163636573733a2063616c6c657220646f6573206e6f74206861766560408201526b207369676e657220726f6c6560a01b606082015260800190565b6000808335601e19843603018112613b2c57600080fd5b8301803591506001600160401b03821115613b4657600080fd5b602001915036819003821315613b5b57600080fd5b9250929050565b6020815281516020820152602082015160408201526000604083015160608084015261368b60808401826133dc565b600060018201613bb157634e487b7160e01b600052601160045260246000fd5b5060010190565b602081526000825160806020840152613bd460a08401826136ac565b905060018060a01b0360208501511660408401526040840151601f1980858403016060860152613c0483836133dc565b9250606086015191508085840301608086015250613c2282826133dc565b95945050505050565b60008060408385031215613c3e57600080fd5b8251613c4981613388565b6020939093015192949293505050565b60208082526022908201527f436f6d70616e793a2063616c6c6572206973206e6f742074686520666163746f604082015261727960f01b606082015260800190565b600060208284031215613cad57600080fd5b8151612a1c81613388565b805180151581146133ab57600080fd5b600060808284031215613cda57600080fd5b604051608081018181106001600160401b0382111715613cfc57613cfc6134c5565b6040528251613d0a81613388565b81526020830151613d1a81613388565b602082015260408381015190820152613d3560608401613cb8565b60608201529392505050565b600060208284031215613d5357600080fd5b612a1c82613cb8565b6001600160a01b03841681526040602082018190528101829052818360608301376000818301606090810191909152601f909201601f1916010192915050565b60208082526023908201527f436f6d70616e793a2063616c6c6572206973206e6f742074686520726567697360408201526274727960e81b606082015260800190565b601f821115611064576000816000526020600020601f850160051c81016020861015613e085750805b601f850160051c820191505b8181101561210d57828155600101613e14565b81516001600160401b03811115613e4057613e406134c5565b613e5481613e4e8454613a8f565b84613ddf565b602080601f831160018114613e895760008415613e715750858301515b600019600386901b1c1916600185901b17855561210d565b600085815260208120601f198616915b82811015613eb857888601518255948401946001909101908401613e99565b5085821015613ed65787850151600019600388901b60f8161c191681555b5050505050600190811b01905550565b600060208284031215613ef857600080fd5b5051919050565b602081526000825160406020840152613f1b60608401826133dc565b90506020840151601f19848303016040850152613c2282826133dc565b634e487b7160e01b600052603260045260246000fdfee2f4eaae4a9751e85a3e4a7b9587827a877f29914755229b07a7b2da98285f70a49807205ce4d355092ef5a8a18f56e8913cf4a201fbe287825b095693c21775a26469706673582212204ef8d63b062ef4d3be5650d6d07396de03b07cd010349c633f2978278a1a25c964736f6c63430008180033",
  "linkReferences": {},
  "deployedLinkReferences": {}
}