{
  "_format": "hh-sol-artifact-1",
  "contractName": "Company",
  "sourceName": "contracts/company/Company.sol",
  "abi": [
    {
      "inputs": [
        {
          "components": [
            {
              "internalType": "address",
              "name": "companyFactory",
              "type": "address"
            },
            {
              "internalType": "address",
              "name": "companyRegistry",
              "type": "address"
            },
            {
              "internalType": "contract IExperienceRegistry",
              "name": "experienceRegistry",
              "type": "address"
            },
            {
              "internalType": "contract IMultiAssetRegistry",
              "name": "multiAssetRegistry",
              "type": "address"
            },
            {
              "internalType": "contract IAvatarRegistry",
              "name": "avatarRegistry",
              "type": "address"
            }
          ],
          "internalType": "struct CompanyConstructorArgs",
          "name": "args",
          "type": "tuple"
        }
      ],
      "stateMutability": "nonpayable",
      "type": "constructor"
    },
    {
      "inputs": [],
      "name": "ReentrancyGuardReentrantCall",
      "type": "error"
    },
    {
      "anonymous": false,
      "inputs": [
        {
          "indexed": true,
          "internalType": "address",
          "name": "asset",
          "type": "address"
        },
        {
          "indexed": true,
          "internalType": "address",
          "name": "to",
          "type": "address"
        },
        {
          "indexed": false,
          "internalType": "uint256",
          "name": "amountOrTokenId",
          "type": "uint256"
        }
      ],
      "name": "AssetMinted",
      "type": "event"
    },
    {
      "anonymous": false,
      "inputs": [
        {
          "indexed": true,
          "internalType": "address",
          "name": "asset",
          "type": "address"
        },
        {
          "indexed": true,
          "internalType": "address",
          "name": "holder",
          "type": "address"
        },
        {
          "indexed": false,
          "internalType": "uint256",
          "name": "amountOrTokenId",
          "type": "uint256"
        }
      ],
      "name": "AssetRevoked",
      "type": "event"
    },
    {
      "anonymous": false,
      "inputs": [],
      "name": "CompanyDeactivated",
      "type": "event"
    },
    {
      "anonymous": false,
      "inputs": [],
      "name": "CompanyHookRemoved",
      "type": "event"
    },
    {
      "anonymous": false,
      "inputs": [
        {
          "indexed": true,
          "internalType": "address",
          "name": "hook",
          "type": "address"
        }
      ],
      "name": "CompanyHookSet",
      "type": "event"
    },
    {
      "anonymous": false,
      "inputs": [],
      "name": "CompanyReactivated",
      "type": "event"
    },
    {
      "anonymous": false,
      "inputs": [
        {
          "indexed": true,
          "internalType": "address",
          "name": "oldVersion",
          "type": "address"
        },
        {
          "indexed": true,
          "internalType": "address",
          "name": "nextVersion",
          "type": "address"
        }
      ],
      "name": "CompanyUpgraded",
      "type": "event"
    },
    {
      "anonymous": false,
      "inputs": [
        {
          "indexed": true,
          "internalType": "address",
          "name": "experience",
          "type": "address"
        },
        {
          "indexed": false,
          "internalType": "uint256",
          "name": "portalId",
          "type": "uint256"
        }
      ],
      "name": "ExperienceAdded",
      "type": "event"
    },
    {
      "anonymous": false,
      "inputs": [
        {
          "indexed": true,
          "internalType": "address",
          "name": "experience",
          "type": "address"
        },
        {
          "indexed": false,
          "internalType": "uint256",
          "name": "portalId",
          "type": "uint256"
        }
      ],
      "name": "ExperienceRemoved",
      "type": "event"
    },
    {
      "anonymous": false,
      "inputs": [
        {
          "indexed": true,
          "internalType": "address",
          "name": "sender",
          "type": "address"
        },
        {
          "indexed": false,
          "internalType": "uint256",
          "name": "value",
          "type": "uint256"
        }
      ],
      "name": "ReceivedFunds",
      "type": "event"
    },
    {
      "anonymous": false,
      "inputs": [
        {
          "indexed": true,
          "internalType": "address",
          "name": "signer",
          "type": "address"
        }
      ],
      "name": "SignerAdded",
      "type": "event"
    },
    {
      "anonymous": false,
      "inputs": [
        {
          "indexed": true,
          "internalType": "address",
          "name": "signer",
          "type": "address"
        }
      ],
      "name": "SignerRemoved",
      "type": "event"
    },
    {
      "inputs": [
        {
          "internalType": "address",
          "name": "asset",
          "type": "address"
        },
        {
          "internalType": "address",
          "name": "condition",
          "type": "address"
        }
      ],
      "name": "addAssetCondition",
      "outputs": [],
      "stateMutability": "nonpayable",
      "type": "function"
    },
    {
      "inputs": [
        {
          "internalType": "address",
          "name": "asset",
          "type": "address"
        },
        {
          "internalType": "contract IAssetHook",
          "name": "aHook",
          "type": "address"
        }
      ],
      "name": "addAssetHook",
      "outputs": [],
      "stateMutability": "nonpayable",
      "type": "function"
    },
    {
      "inputs": [
        {
          "components": [
            {
              "internalType": "string",
              "name": "name",
              "type": "string"
            },
            {
              "internalType": "bytes",
              "name": "initData",
              "type": "bytes"
            }
          ],
          "internalType": "struct AddExperienceArgs",
          "name": "args",
          "type": "tuple"
        }
      ],
      "name": "addExperience",
      "outputs": [],
      "stateMutability": "nonpayable",
      "type": "function"
    },
    {
      "inputs": [
        {
          "internalType": "address",
          "name": "experience",
          "type": "address"
        },
        {
          "internalType": "address",
          "name": "condition",
          "type": "address"
        }
      ],
      "name": "addExperienceCondition",
      "outputs": [],
      "stateMutability": "nonpayable",
      "type": "function"
    },
    {
      "inputs": [
        {
          "internalType": "address[]",
          "name": "signers",
          "type": "address[]"
        }
      ],
      "name": "addSigners",
      "outputs": [],
      "stateMutability": "nonpayable",
      "type": "function"
    },
    {
      "inputs": [],
      "name": "assetRegistry",
      "outputs": [
        {
          "internalType": "contract IMultiAssetRegistry",
          "name": "",
          "type": "address"
        }
      ],
      "stateMutability": "view",
      "type": "function"
    },
    {
      "inputs": [],
      "name": "avatarRegistry",
      "outputs": [
        {
          "internalType": "contract IAvatarRegistry",
          "name": "",
          "type": "address"
        }
      ],
      "stateMutability": "view",
      "type": "function"
    },
    {
      "inputs": [
        {
          "internalType": "address",
          "name": "asset",
          "type": "address"
        },
        {
          "internalType": "address",
          "name": "to",
          "type": "address"
        },
        {
          "internalType": "bytes",
          "name": "extra",
          "type": "bytes"
        }
      ],
      "name": "canMint",
      "outputs": [
        {
          "internalType": "bool",
          "name": "",
          "type": "bool"
        }
      ],
      "stateMutability": "view",
      "type": "function"
    },
    {
      "inputs": [
        {
          "internalType": "address",
          "name": "experience",
          "type": "address"
        },
        {
          "internalType": "uint256",
          "name": "fee",
          "type": "uint256"
        }
      ],
      "name": "changeExperiencePortalFee",
      "outputs": [],
      "stateMutability": "nonpayable",
      "type": "function"
    },
    {
      "inputs": [],
      "name": "companyFactory",
      "outputs": [
        {
          "internalType": "address",
          "name": "",
          "type": "address"
        }
      ],
      "stateMutability": "view",
      "type": "function"
    },
    {
      "inputs": [],
      "name": "companyRegistry",
      "outputs": [
        {
          "internalType": "contract ICompanyRegistry",
          "name": "",
          "type": "address"
        }
      ],
      "stateMutability": "view",
      "type": "function"
    },
    {
      "inputs": [],
      "name": "deactivate",
      "outputs": [],
      "stateMutability": "nonpayable",
      "type": "function"
    },
    {
      "inputs": [
        {
          "components": [
            {
              "internalType": "address",
              "name": "avatar",
              "type": "address"
            },
            {
              "internalType": "uint256",
              "name": "portalId",
              "type": "uint256"
            },
            {
              "internalType": "uint256",
              "name": "agreedFee",
              "type": "uint256"
            },
            {
              "internalType": "bytes",
              "name": "avatarOwnerSignature",
              "type": "bytes"
            }
          ],
          "internalType": "struct DelegatedAvatarJumpRequest",
          "name": "request",
          "type": "tuple"
        }
      ],
      "name": "delegateJumpForAvatar",
      "outputs": [],
      "stateMutability": "nonpayable",
      "type": "function"
    },
    {
      "inputs": [
        {
          "components": [
            {
              "internalType": "string",
              "name": "name",
              "type": "string"
            },
            {
              "internalType": "bytes",
              "name": "initData",
              "type": "bytes"
            }
          ],
          "internalType": "struct AddExperienceArgs",
          "name": "args",
          "type": "tuple"
        }
      ],
      "name": "encodeExperienceArgs",
      "outputs": [
        {
          "internalType": "bytes",
          "name": "",
          "type": "bytes"
        }
      ],
      "stateMutability": "pure",
      "type": "function"
    },
    {
      "inputs": [],
      "name": "experienceRegistry",
      "outputs": [
        {
          "internalType": "contract IExperienceRegistry",
          "name": "",
          "type": "address"
        }
      ],
      "stateMutability": "view",
      "type": "function"
    },
    {
      "inputs": [],
      "name": "hook",
      "outputs": [
        {
          "internalType": "contract ICompanyHook",
          "name": "",
          "type": "address"
        }
      ],
      "stateMutability": "view",
      "type": "function"
    },
    {
      "inputs": [
        {
          "components": [
            {
              "internalType": "address",
              "name": "owner",
              "type": "address"
            },
            {
              "internalType": "address",
              "name": "world",
              "type": "address"
            },
            {
              "components": [
                {
                  "internalType": "string",
                  "name": "x",
                  "type": "string"
                },
                {
                  "internalType": "string",
                  "name": "y",
                  "type": "string"
                },
                {
                  "internalType": "string",
                  "name": "z",
                  "type": "string"
                },
                {
                  "internalType": "uint256",
                  "name": "t",
                  "type": "uint256"
                },
                {
                  "internalType": "uint256",
                  "name": "p",
                  "type": "uint256"
                },
                {
                  "internalType": "uint256",
                  "name": "p_sub",
                  "type": "uint256"
                }
              ],
              "internalType": "struct VectorAddress",
              "name": "vector",
              "type": "tuple"
            },
            {
              "internalType": "bytes",
              "name": "initData",
              "type": "bytes"
            },
            {
              "internalType": "string",
              "name": "name",
              "type": "string"
            }
          ],
          "internalType": "struct CompanyInitArgs",
          "name": "request",
          "type": "tuple"
        }
      ],
      "name": "init",
      "outputs": [],
      "stateMutability": "nonpayable",
      "type": "function"
    },
    {
      "inputs": [
        {
          "internalType": "address",
          "name": "signer",
          "type": "address"
        }
      ],
      "name": "isSigner",
      "outputs": [
        {
          "internalType": "bool",
          "name": "",
          "type": "bool"
        }
      ],
      "stateMutability": "view",
      "type": "function"
    },
    {
      "inputs": [
        {
          "internalType": "address",
          "name": "asset",
          "type": "address"
        },
        {
          "internalType": "address",
          "name": "to",
          "type": "address"
        },
        {
          "internalType": "bytes",
          "name": "data",
          "type": "bytes"
        }
      ],
      "name": "mint",
      "outputs": [],
      "stateMutability": "nonpayable",
      "type": "function"
    },
    {
      "inputs": [],
      "name": "name",
      "outputs": [
        {
          "internalType": "string",
          "name": "",
          "type": "string"
        }
      ],
      "stateMutability": "view",
      "type": "function"
    },
    {
      "inputs": [],
      "name": "owner",
      "outputs": [
        {
          "internalType": "address",
          "name": "",
          "type": "address"
        }
      ],
      "stateMutability": "view",
      "type": "function"
    },
    {
      "inputs": [],
      "name": "reactivate",
      "outputs": [],
      "stateMutability": "payable",
      "type": "function"
    },
    {
      "inputs": [
        {
          "internalType": "address",
          "name": "asset",
          "type": "address"
        }
      ],
      "name": "removeAssetCondition",
      "outputs": [],
      "stateMutability": "nonpayable",
      "type": "function"
    },
    {
      "inputs": [
        {
          "internalType": "address",
          "name": "asset",
          "type": "address"
        }
      ],
      "name": "removeAssetHook",
      "outputs": [],
      "stateMutability": "nonpayable",
      "type": "function"
    },
    {
      "inputs": [
        {
          "internalType": "address",
          "name": "experience",
          "type": "address"
        }
      ],
      "name": "removeExperience",
      "outputs": [],
      "stateMutability": "nonpayable",
      "type": "function"
    },
    {
      "inputs": [
        {
          "internalType": "address",
          "name": "experience",
          "type": "address"
        }
      ],
      "name": "removeExperienceCondition",
      "outputs": [],
      "stateMutability": "nonpayable",
      "type": "function"
    },
    {
      "inputs": [],
      "name": "removeHook",
      "outputs": [],
      "stateMutability": "nonpayable",
      "type": "function"
    },
    {
      "inputs": [
        {
          "internalType": "address[]",
          "name": "signers",
          "type": "address[]"
        }
      ],
      "name": "removeSigners",
      "outputs": [],
      "stateMutability": "nonpayable",
      "type": "function"
    },
    {
      "inputs": [
        {
          "internalType": "address",
          "name": "asset",
          "type": "address"
        },
        {
          "internalType": "address",
          "name": "holder",
          "type": "address"
        },
        {
          "internalType": "bytes",
          "name": "data",
          "type": "bytes"
        }
      ],
      "name": "revoke",
      "outputs": [],
      "stateMutability": "nonpayable",
      "type": "function"
    },
    {
      "inputs": [
        {
          "internalType": "contract ICompanyHook",
          "name": "_hook",
          "type": "address"
        }
      ],
      "name": "setHook",
      "outputs": [],
      "stateMutability": "nonpayable",
      "type": "function"
    },
    {
      "inputs": [
        {
          "internalType": "bytes",
          "name": "initData",
          "type": "bytes"
        }
      ],
      "name": "upgrade",
      "outputs": [],
      "stateMutability": "nonpayable",
      "type": "function"
    },
    {
      "inputs": [
        {
          "internalType": "address",
          "name": "asset",
          "type": "address"
        },
        {
          "internalType": "bytes",
          "name": "initData",
          "type": "bytes"
        }
      ],
      "name": "upgradeAsset",
      "outputs": [],
      "stateMutability": "nonpayable",
      "type": "function"
    },
    {
      "inputs": [
        {
          "internalType": "address",
          "name": "nextVersion",
          "type": "address"
        }
      ],
      "name": "upgradeComplete",
      "outputs": [],
      "stateMutability": "nonpayable",
      "type": "function"
    },
    {
      "inputs": [
        {
          "internalType": "address",
          "name": "experience",
          "type": "address"
        },
        {
          "internalType": "bytes",
          "name": "initData",
          "type": "bytes"
        }
      ],
      "name": "upgradeExperience",
      "outputs": [],
      "stateMutability": "nonpayable",
      "type": "function"
    },
    {
      "inputs": [],
      "name": "vectorAddress",
      "outputs": [
        {
          "components": [
            {
              "internalType": "string",
              "name": "x",
              "type": "string"
            },
            {
              "internalType": "string",
              "name": "y",
              "type": "string"
            },
            {
              "internalType": "string",
              "name": "z",
              "type": "string"
            },
            {
              "internalType": "uint256",
              "name": "t",
              "type": "uint256"
            },
            {
              "internalType": "uint256",
              "name": "p",
              "type": "uint256"
            },
            {
              "internalType": "uint256",
              "name": "p_sub",
              "type": "uint256"
            }
          ],
          "internalType": "struct VectorAddress",
          "name": "",
          "type": "tuple"
        }
      ],
      "stateMutability": "view",
      "type": "function"
    },
    {
      "inputs": [],
      "name": "version",
      "outputs": [
        {
          "internalType": "uint256",
          "name": "",
          "type": "uint256"
        }
      ],
      "stateMutability": "view",
      "type": "function"
    },
    {
      "inputs": [
        {
          "internalType": "uint256",
          "name": "amount",
          "type": "uint256"
        }
      ],
      "name": "withdraw",
      "outputs": [],
      "stateMutability": "nonpayable",
      "type": "function"
    },
    {
      "inputs": [],
      "name": "world",
      "outputs": [
        {
          "internalType": "address",
          "name": "",
          "type": "address"
        }
      ],
      "stateMutability": "view",
      "type": "function"
    },
    {
      "stateMutability": "payable",
      "type": "receive"
    }
  ],
  "bytecode": "0x6101206040523480156200001257600080fd5b5060405162003e2e38038062003e2e8339810160408190526200003591620002ba565b600160005580516001600160a01b0316620000a55760405162461bcd60e51b815260206004820152602560248201527f436f6d70616e793a20636f6d70616e79466163746f72792063616e6e6f742062604482015264065203078360dc1b60648201526084015b60405180910390fd5b60208101516001600160a01b0316620001105760405162461bcd60e51b815260206004820152602660248201527f436f6d70616e793a20636f6d70616e7952656769737472792063616e6e6f742060448201526506265203078360d41b60648201526084016200009c565b60408101516001600160a01b03166200017e5760405162461bcd60e51b815260206004820152602960248201527f436f6d70616e793a20657870657269656e636552656769737472792063616e6e60448201526806f74206265203078360bc1b60648201526084016200009c565b60608101516001600160a01b0316620001e65760405162461bcd60e51b8152602060048201526024808201527f436f6d70616e793a20617373657452656769737472792063616e6e6f742062656044820152630203078360e41b60648201526084016200009c565b60808101516001600160a01b0316620002505760405162461bcd60e51b815260206004820152602560248201527f436f6d70616e793a2061766174617252656769737472792063616e6e6f742062604482015264065203078360dc1b60648201526084016200009c565b80516001600160a01b0390811660809081526020830151821660a0526040830151821660c0526060830151821660e05290910151166101005262000365565b6001600160a01b0381168114620002a557600080fd5b50565b8051620002b5816200028f565b919050565b600060a08284031215620002cd57600080fd5b60405160a081016001600160401b0381118282101715620002fe57634e487b7160e01b600052604160045260246000fd5b60405282516200030e816200028f565b8152602083015162000320816200028f565b60208201526200033360408401620002a8565b60408201526200034660608401620002a8565b60608201526200035960808401620002a8565b60808201529392505050565b60805160a05160c05160e05161010051613a30620003fe600039600081816106e201526118650152600081816105de0152818161160b0152611bba015260006105aa01526000818161065201528181610fc501528181611ea501528181611f20015281816127ba01526128350152600081816106ae015281816110160152818161109001528181611fe601526120600152613a306000f3fe6080604052600436106102295760003560e01c806357433ea611610123578063979d7e86116100ab578063db70a6931161006f578063db70a6931461067c578063dc1c44be1461069c578063e3d7ad73146106d0578063e8906a2d14610704578063f1ddecf91461072457600080fd5b8063979d7e86146105cc5780639e29186d14610600578063b404b67414610620578063c51aba2b14610640578063d18611d61461067457600080fd5b80637df73e27116100f25780637df73e271461052e5780637f5a7c7b1461054e5780638d361e43146105635780638da5cb5b146105835780638f09a6be1461059857600080fd5b806357433ea6146104ae5780636330347a146104ce57806368ea2306146104ee5780637d4daec51461050e57600080fd5b80632e1a7d4d116101b157806338c8a97b1161017557806338c8a97b146104165780633dfd38731461043657806351b42b00146104565780635466ddd51461046b57806354fd4d501461048b57600080fd5b80632e1a7d4d146103625780632fcbab9a1461038257806330b67baa146103a4578063378f17ff146103d157806337b4eb06146103e657600080fd5b80631961f05d116101f85780631961f05d146102c2578063243546a6146102e257806325394645146103025780632663d1f71461032257806329f2691d1461034257600080fd5b80630346f5f51461023557806306fdde03146102575780631187b6271461028257806316c49b11146102a257600080fd5b3661023057005b600080fd5b34801561024157600080fd5b50610255610250366004612e74565b610744565b005b34801561026357600080fd5b5061026c610820565b6040516102799190612ee6565b60405180910390f35b34801561028e57600080fd5b5061025561029d366004612ef9565b6108c1565b3480156102ae57600080fd5b506102556102bd366004612f32565b610992565b3480156102ce57600080fd5b506102556102dd366004612f6c565b610aa7565b3480156102ee57600080fd5b506102556102fd366004613075565b610b6e565b34801561030e57600080fd5b5061025561031d36600461311b565b610f3f565b34801561032e57600080fd5b5061025561033d366004612f6c565b611014565b34801561034e57600080fd5b5061025561035d366004612f6c565b611129565b34801561036e57600080fd5b5061025561037d366004613157565b6111d3565b34801561038e57600080fd5b506103976112e2565b60405161027991906131e3565b3480156103b057600080fd5b506103b9611510565b6040516001600160a01b039091168152602001610279565b3480156103dd57600080fd5b5061025561152e565b3480156103f257600080fd5b506104066104013660046131f6565b6115bd565b6040519015158152602001610279565b34801561042257600080fd5b506102556104313660046131f6565b611b24565b34801561044257600080fd5b50610255610451366004612f6c565b611dad565b34801561046257600080fd5b50610255611ea3565b34801561047757600080fd5b50610255610486366004613338565b611fe4565b34801561049757600080fd5b506104a0600181565b604051908152602001610279565b3480156104ba57600080fd5b506102556104c9366004612ef9565b612308565b3480156104da57600080fd5b506102556104e9366004612ef9565b6123a8565b3480156104fa57600080fd5b50610255610509366004612f6c565b612445565b34801561051a57600080fd5b5061026c610529366004613075565b61258f565b34801561053a57600080fd5b50610406610549366004612f6c565b6125b8565b34801561055a57600080fd5b506103b96125e5565b34801561056f57600080fd5b5061025561057e36600461340e565b612603565b34801561058f57600080fd5b506103b961264e565b3480156105a457600080fd5b506103b97f000000000000000000000000000000000000000000000000000000000000000081565b3480156105d857600080fd5b506103b97f000000000000000000000000000000000000000000000000000000000000000081565b34801561060c57600080fd5b5061025561061b366004612f6c565b61266e565b34801561062c57600080fd5b5061025561063b366004613482565b61271d565b34801561064c57600080fd5b506103b97f000000000000000000000000000000000000000000000000000000000000000081565b6102556127b8565b34801561068857600080fd5b50610255610697366004613482565b6128b6565b3480156106a857600080fd5b506103b97f000000000000000000000000000000000000000000000000000000000000000081565b3480156106dc57600080fd5b506103b97f000000000000000000000000000000000000000000000000000000000000000081565b34801561071057600080fd5b5061025561071f36600461340e565b612953565b34801561073057600080fd5b5061025561073f3660046131f6565b61299e565b600061074e612ad9565b9050610769816000805160206139db83398151915233612afd565b61078e5760405162461bcd60e51b8152600401610785906134d1565b60405180910390fd5b6000610798612b2a565b805490915060ff166107bc5760405162461bcd60e51b81526004016107859061351c565b6040516383c3426360e01b81526004810184905284906001600160a01b038216906383c34263906024015b600060405180830381600087803b15801561080157600080fd5b505af1158015610815573d6000803e3d6000fd5b505050505050505050565b6060600061082c612b2a565b905080600901805461083d90613553565b80601f016020809104026020016040519081016040528092919081815260200182805461086990613553565b80156108b65780601f1061088b576101008083540402835291602001916108b6565b820191906000526020600020905b81548152906001019060200180831161089957829003601f168201915b505050505091505090565b60006108cb612ad9565b90506108e6816000805160206139db83398151915233612afd565b6109025760405162461bcd60e51b8152600401610785906134d1565b600061090c612b2a565b805490915060ff166109305760405162461bcd60e51b81526004016107859061351c565b604051630f69c09d60e31b81526001600160a01b038481166004830152851690637b4e04e8906024015b600060405180830381600087803b15801561097457600080fd5b505af1158015610988573d6000803e3d6000fd5b5050505050505050565b600061099c612ad9565b90506109b7816000805160206139bb83398151915233612afd565b6109d35760405162461bcd60e51b81526004016107859061358d565b60006109dd612b2a565b805490915060ff16610a015760405162461bcd60e51b81526004016107859061351c565b6000610a106020850185612f6c565b9050806001600160a01b0316637dc759e560405180606001604052808760200135815260200187604001358152602001878060600190610a5091906135d9565b8080601f01602080910402602001604051908101604052809392919081815260200183838082843760009201919091525050509152506040516001600160e01b031960e084901b16815261095a9190600401613626565b6000610ab1612ad9565b9050610acc816000805160206139db83398151915233612afd565b610ae85760405162461bcd60e51b8152600401610785906134d1565b6000610af2612b2a565b805490915060ff16610b165760405162461bcd60e51b81526004016107859061351c565b826001600160a01b031663378f17ff6040518163ffffffff1660e01b8152600401600060405180830381600087803b158015610b5157600080fd5b505af1158015610b65573d6000803e3d6000fd5b50505050505050565b6000610b78612ad9565b9050610b93816000805160206139bb83398151915233612afd565b610baf5760405162461bcd60e51b81526004016107859061358d565b6000610bb9612b2a565b805490915060ff16610bdd5760405162461bcd60e51b81526004016107859061351c565b610be5612b4e565b6000610bef612b2a565b905080600a0160008154610c0290613655565b9190508190555060006040518060c00160405280836003016000018054610c2890613553565b80601f0160208091040260200160405190810160405280929190818152602001828054610c5490613553565b8015610ca15780601f10610c7657610100808354040283529160200191610ca1565b820191906000526020600020905b815481529060010190602001808311610c8457829003601f168201915b50505050508152602001836003016001018054610cbd90613553565b80601f0160208091040260200160405190810160405280929190818152602001828054610ce990613553565b8015610d365780601f10610d0b57610100808354040283529160200191610d36565b820191906000526020600020905b815481529060010190602001808311610d1957829003601f168201915b50505050508152602001836003016002018054610d5290613553565b80601f0160208091040260200160405190810160405280929190818152602001828054610d7e90613553565b8015610dcb5780601f10610da057610100808354040283529160200191610dcb565b820191906000526020600020905b815481529060010190602001808311610dae57829003601f168201915b505050918352505060068401546020808301919091526007850154604080840191909152600a86015460609384015280516080810182528481523081840152898301518183015289519381019390935280518082019091528181527f5245676973746572696e6720657870657269656e63207769746820776f726c649181019190915260018501549293509091610e6b91906001600160a01b0316612b78565b600183015460405163626a29e160e11b815260009182916001600160a01b039091169063c4d453c290610ea290869060040161367c565b60408051808303816000875af1158015610ec0573d6000803e3d6000fd5b505050506040513d601f19601f82011682018060405250810190610ee491906136ef565b91509150816001600160a01b03167f564792a0259ee41a56519990d80509a8057848327265f2075bcaac108651eab982604051610f2391815260200190565b60405180910390a25050505050610f3a6001600055565b505050565b6000610f49612ad9565b9050610f64816000805160206139db83398151915233612afd565b610f805760405162461bcd60e51b8152600401610785906134d1565b6000610f8a612b2a565b805490915060ff16610fae5760405162461bcd60e51b81526004016107859061351c565b60405163d449cf2560e01b81526001600160a01b037f0000000000000000000000000000000000000000000000000000000000000000169063d449cf2590610ffa908690600401612ee6565b600060405180830381600087803b158015610b5157600080fd5b7f00000000000000000000000000000000000000000000000000000000000000006001600160a01b03166110855760405162461bcd60e51b815260206004820152601860248201527710dbdb5c185b9e4e88199858dd1bdc9e481b9bdd081cd95d60421b6044820152606401610785565b336001600160a01b037f000000000000000000000000000000000000000000000000000000000000000016146110cd5760405162461bcd60e51b81526004016107859061371d565b60006110d7612ad9565b80546001600160a01b038481166001600160a01b031983168117845560405193945091169182907f62e097eae9ab3bdbcbf8876a75515aa178198bfb2b0e9a90a7308bceb2efa6e690600090a3505050565b6000611133612ad9565b905061114e816000805160206139db83398151915233612afd565b61116a5760405162461bcd60e51b8152600401610785906134d1565b6000611174612b2a565b805490915060ff166111985760405162461bcd60e51b81526004016107859061351c565b826001600160a01b031663021665b76040518163ffffffff1660e01b8152600401600060405180830381600087803b158015610b5157600080fd5b60006111dd612ad9565b90506111f8816000805160206139db83398151915233612afd565b6112145760405162461bcd60e51b8152600401610785906134d1565b600061121e612b2a565b805490915060ff166112425760405162461bcd60e51b81526004016107859061351c565b478311156112925760405162461bcd60e51b815260206004820152601d60248201527f436f6d70616e793a20696e73756666696369656e742062616c616e63650000006044820152606401610785565b600061129c612b2a565b805460405191925061010090046001600160a01b0316906108fc8615029086906000818181858888f193505050501580156112db573d6000803e3d6000fd5b5050505050565b61131b6040518060c001604052806060815260200160608152602001606081526020016000815260200160008152602001600081525090565b6000611325612b2a565b9050806003016040518060c001604052908160008201805461134690613553565b80601f016020809104026020016040519081016040528092919081815260200182805461137290613553565b80156113bf5780601f10611394576101008083540402835291602001916113bf565b820191906000526020600020905b8154815290600101906020018083116113a257829003601f168201915b505050505081526020016001820180546113d890613553565b80601f016020809104026020016040519081016040528092919081815260200182805461140490613553565b80156114515780601f1061142657610100808354040283529160200191611451565b820191906000526020600020905b81548152906001019060200180831161143457829003601f168201915b5050505050815260200160028201805461146a90613553565b80601f016020809104026020016040519081016040528092919081815260200182805461149690613553565b80156114e35780601f106114b8576101008083540402835291602001916114e3565b820191906000526020600020905b8154815290600101906020018083116114c657829003601f168201915b50505050508152602001600382015481526020016004820154815260200160058201548152505091505090565b60008061151b612b2a565b600101546001600160a01b031692915050565b6000611538612ad9565b9050611553816000805160206139db83398151915233612afd565b61156f5760405162461bcd60e51b8152600401610785906134d1565b6000611579612b2a565b805490915060ff1661159d5760405162461bcd60e51b81526004016107859061351c565b60006115a7612b2a565b60020180546001600160a01b0319169055505050565b6000806115c8612b2a565b805490915060ff166115ec5760405162461bcd60e51b81526004016107859061351c565b6040516315bd8ac360e31b81526001600160a01b0387811660048301527f0000000000000000000000000000000000000000000000000000000000000000169063adec561890602401602060405180830381865afa158015611652573d6000803e3d6000fd5b505050506040513d601f19601f82011682018060405250810190611676919061375f565b6116c25760405162461bcd60e51b815260206004820152601d60248201527f436f6d70616e793a206173736574206e6f7420726567697374657265640000006044820152606401610785565b6000869050306001600160a01b0316816001600160a01b0316631d1438486040518163ffffffff1660e01b8152600401602060405180830381865afa15801561170f573d6000803e3d6000fd5b505050506040513d601f19601f820116820180604052508101906117339190613781565b6001600160a01b0316146117895760405162461bcd60e51b815260206004820152601c60248201527f436f6d70616e793a206e6f7420697373756572206f66206173736574000000006044820152606401610785565b604051634f2a605160e11b81526001600160a01b03821690639e54c0a2906117b99089908990899060040161379e565b602060405180830381865afa1580156117d6573d6000803e3d6000fd5b505050506040513d601f19601f820116820180604052508101906117fa919061375f565b6118465760405162461bcd60e51b815260206004820152601f60248201527f436f6d70616e793a2063616e6e6f74206d696e7420746f2061646472657373006044820152606401610785565b604051632b0fe8e760e21b81526001600160a01b0387811660048301527f0000000000000000000000000000000000000000000000000000000000000000169063ac3fa39c90602401602060405180830381865afa1580156118ac573d6000803e3d6000fd5b505050506040513d601f19601f820116820180604052508101906118d0919061375f565b6118de576001925050611b1b565b6000869050806001600160a01b031663181d939b6040518163ffffffff1660e01b8152600401602060405180830381865afa158015611921573d6000803e3d6000fd5b505050506040513d601f19601f82011682018060405250810190611945919061375f565b611b14576000816001600160a01b031663516f279e6040518163ffffffff1660e01b8152600401602060405180830381865afa158015611989573d6000803e3d6000fd5b505050506040513d601f19601f820116820180604052508101906119ad9190613781565b90506001600160a01b038116611a1b5760405162461bcd60e51b815260206004820152602d60248201527f436f6d70616e793a20617661746172206c6f636174696f6e206973206e6f742060448201526c616e20657870657269656e636560981b6064820152608401610785565b306001600160a01b0316816001600160a01b0316636904c94d6040518163ffffffff1660e01b8152600401602060405180830381865afa158015611a63573d6000803e3d6000fd5b505050506040513d601f19601f82011682018060405250810190611a879190613781565b6001600160a01b031614611b125760405162461bcd60e51b815260206004820152604660248201527f436f6d70616e793a20617661746172206c6f636174696f6e206973206e6f742060448201527f696e20616e20657870657269656e6365206f776e6564206279207468697320636064820152656f6d70616e7960d01b608482015260a401610785565b505b6001935050505b50949350505050565b6000611b2e612ad9565b9050611b49816000805160206139bb83398151915233612afd565b611b655760405162461bcd60e51b81526004016107859061358d565b6000611b6f612b2a565b805490915060ff16611b935760405162461bcd60e51b81526004016107859061351c565b611b9b612b4e565b6040516315bd8ac360e31b81526001600160a01b0387811660048301527f0000000000000000000000000000000000000000000000000000000000000000169063adec561890602401602060405180830381865afa158015611c01573d6000803e3d6000fd5b505050506040513d601f19601f82011682018060405250810190611c25919061375f565b611c715760405162461bcd60e51b815260206004820152601d60248201527f436f6d70616e793a206173736574206e6f7420726567697374657265640000006044820152606401610785565b6000869050306001600160a01b0316816001600160a01b0316631d1438486040518163ffffffff1660e01b8152600401602060405180830381865afa158015611cbe573d6000803e3d6000fd5b505050506040513d601f19601f82011682018060405250810190611ce29190613781565b6001600160a01b031614611d385760405162461bcd60e51b815260206004820152601c60248201527f436f6d70616e793a206e6f7420697373756572206f66206173736574000000006044820152606401610785565b6040516326a5ce1160e21b81526001600160a01b03821690639a97384490611d689089908990899060040161379e565b600060405180830381600087803b158015611d8257600080fd5b505af1158015611d96573d6000803e3d6000fd5b5050505050611da56001600055565b505050505050565b6000611db7612ad9565b9050611dd2816000805160206139db83398151915233612afd565b611dee5760405162461bcd60e51b8152600401610785906134d1565b6000611df8612b2a565b805490915060ff16611e1c5760405162461bcd60e51b81526004016107859061351c565b6001600160a01b038316611e725760405162461bcd60e51b815260206004820152601b60248201527f436f6d70616e793a20686f6f6b2063616e6e6f742062652030783000000000006044820152606401610785565b6000611e7c612b2a565b60020180546001600160a01b0319166001600160a01b039590951694909417909355505050565b7f00000000000000000000000000000000000000000000000000000000000000006001600160a01b0316611f155760405162461bcd60e51b815260206004820152601960248201527810dbdb5c185b9e4e881c9959da5cdd1c9e481b9bdd081cd95d603a1b6044820152606401610785565b336001600160a01b037f00000000000000000000000000000000000000000000000000000000000000001614611f5d5760405162461bcd60e51b8152600401610785906137de565b6000611f67612b2a565b805460ff1916815590504715611fb85780546040516001600160a01b0361010090920491909116904780156108fc02916000818181858888f19350505050158015611fb6573d6000803e3d6000fd5b505b6040517fa1a961b1a2237b0757aff22aeafaad33ca80373bc4c839e24721ab9ba899321690600090a150565b7f00000000000000000000000000000000000000000000000000000000000000006001600160a01b03166120555760405162461bcd60e51b815260206004820152601860248201527710dbdb5c185b9e4e88199858dd1bdc9e481b9bdd081cd95d60421b6044820152606401610785565b336001600160a01b037f0000000000000000000000000000000000000000000000000000000000000000161461209d5760405162461bcd60e51b81526004016107859061371d565b60006120a7612b2a565b805490915061010090046001600160a01b0316156121075760405162461bcd60e51b815260206004820152601c60248201527f436f6d70616e793a20616c726561647920696e697469616c697a6564000000006044820152606401610785565b81516001600160a01b031661215e5760405162461bcd60e51b815260206004820152601c60248201527f436f6d70616e793a206f776e65722063616e6e6f7420626520307830000000006044820152606401610785565b6000826080015151116121b35760405162461bcd60e51b815260206004820152601d60248201527f436f6d70616e793a206e616d652063616e6e6f7420626520656d7074790000006044820152606401610785565b60208201516001600160a01b031661220d5760405162461bcd60e51b815260206004820152601c60248201527f436f6d70616e793a20776f726c642063616e6e6f7420626520307830000000006044820152606401610785565b81518154610100600160a81b0319166101006001600160a01b039283160217825560208301516001830180546001600160a01b0319169190921617905560408201518051600383019081906122629082613869565b50602082015160018201906122779082613869565b506040820151600282019061228c9082613869565b5060608201516003820155608080830151600483015560a09092015160059091015582015160098201906122c09082613869565b5060006122cb612ad9565b83519091506122eb9082906000805160206139db83398151915290612bc1565b8251610f3a9082906000805160206139bb83398151915290612bc1565b6000612312612ad9565b905061232d816000805160206139db83398151915233612afd565b6123495760405162461bcd60e51b8152600401610785906134d1565b6000612353612b2a565b805490915060ff166123775760405162461bcd60e51b81526004016107859061351c565b6040516337eff0db60e11b81526001600160a01b038481166004830152859190821690636fdfe1b6906024016107e7565b60006123b2612ad9565b90506123cd816000805160206139db83398151915233612afd565b6123e95760405162461bcd60e51b8152600401610785906134d1565b60006123f3612b2a565b805490915060ff166124175760405162461bcd60e51b81526004016107859061351c565b604051631169a49960e11b81526001600160a01b0384811660048301528516906322d349329060240161095a565b600061244f612ad9565b905061246a816000805160206139db83398151915233612afd565b6124865760405162461bcd60e51b8152600401610785906134d1565b6000612490612b2a565b805490915060ff166124b45760405162461bcd60e51b81526004016107859061351c565b6124bc612b4e565b60006124c6612b2a565b600181015460405163530bdd9d60e01b81526001600160a01b0387811660048301529293506000929091169063530bdd9d906024016020604051808303816000875af115801561251a573d6000803e3d6000fd5b505050506040513d601f19601f8201168201806040525081019061253e9190613928565b9050846001600160a01b03167fa49150179d901bd7609d87ac654c037ca7f87786305999f6a901c752de458ce58260405161257b91815260200190565b60405180910390a25050610f3a6001600055565b6060816040516020016125a29190613941565b6040516020818303038152906040529050919050565b6000806125c3612ad9565b90506125de816000805160206139bb83398151915285612afd565b9392505050565b6000806125f0612b2a565b600201546001600160a01b031692915050565b600061260d612ad9565b9050612628816000805160206139db83398151915233612afd565b6126445760405162461bcd60e51b8152600401610785906134d1565b610f3a8383612bf4565b600080612659612b2a565b5461010090046001600160a01b031692915050565b6000612678612ad9565b9050612693816000805160206139db83398151915233612afd565b6126af5760405162461bcd60e51b8152600401610785906134d1565b60006126b9612b2a565b805490915060ff166126dd5760405162461bcd60e51b81526004016107859061351c565b6000839050806001600160a01b03166358779dcf6040518163ffffffff1660e01b8152600401600060405180830381600087803b15801561097457600080fd5b6000612727612ad9565b9050612742816000805160206139db83398151915233612afd565b61275e5760405162461bcd60e51b8152600401610785906134d1565b6000612768612b2a565b805490915060ff1661278c5760405162461bcd60e51b81526004016107859061351c565b604051632539464560e01b81526001600160a01b0385169063253946459061095a908690600401612ee6565b7f00000000000000000000000000000000000000000000000000000000000000006001600160a01b031661282a5760405162461bcd60e51b815260206004820152601960248201527810dbdb5c185b9e4e881c9959da5cdd1c9e481b9bdd081cd95d603a1b6044820152606401610785565b336001600160a01b037f000000000000000000000000000000000000000000000000000000000000000016146128725760405162461bcd60e51b8152600401610785906137de565b600061287c612b2a565b805460ff191660011781556040519091507fc9663b20bf4752507751d7ec98f8481f07dcbdad89f5172ef8913801dcdc938b90600090a150565b60006128c0612ad9565b90506128db816000805160206139db83398151915233612afd565b6128f75760405162461bcd60e51b8152600401610785906134d1565b6000612901612b2a565b805490915060ff166129255760405162461bcd60e51b81526004016107859061351c565b604051632539464560e01b815284906001600160a01b038216906325394645906107e7908790600401612ee6565b600061295d612ad9565b9050612978816000805160206139db83398151915233612afd565b6129945760405162461bcd60e51b8152600401610785906134d1565b610f3a8383612cdd565b60006129a8612ad9565b90506129c3816000805160206139bb83398151915233612afd565b6129df5760405162461bcd60e51b81526004016107859061358d565b60006129e9612b2a565b805490915060ff16612a0d5760405162461bcd60e51b81526004016107859061351c565b612a15612b4e565b612a21868686866115bd565b612a6d5760405162461bcd60e51b815260206004820152601a60248201527f436f6d70616e793a2063616e6e6f74206d696e742061737365740000000000006044820152606401610785565b60405163b510391f60e01b81526001600160a01b0387169063b510391f90612a9d9088908890889060040161379e565b600060405180830381600087803b158015612ab757600080fd5b505af1158015612acb573d6000803e3d6000fd5b50505050611da56001600055565b7f69198989339f34e10129e514286bde98979351148754faef989dde18bf6d14da90565b6000918252600192909201602090815260408083206001600160a01b039094168352929052205460ff1690565b7f6373b2650f68a30b6fdd87e3caf4df754a3a8f8ef4b09bbd1bb4ff21f356aa2c90565b600260005403612b7157604051633ee5aeb560e01b815260040160405180910390fd5b6002600055565b612bbd8282604051602401612b8e92919061397a565b60408051601f198184030181529190526020810180516001600160e01b031663319af33360e01b179052612e22565b5050565b60009182526001928301602090815260408084206001600160a01b0390931684529190529020805460ff19169091179055565b6000612bfe612ad9565b905060005b82811015612cd757612c736000805160206139bb833981519152858584818110612c2f57612c2f6139a4565b9050602002016020810190612c449190612f6c565b600091825260018501602090815260408084206001600160a01b0390931684529190529020805460ff19169055565b838382818110612c8557612c856139a4565b9050602002016020810190612c9a9190612f6c565b6001600160a01b03167f3525e22824a8a7df2c9a6029941c824cf95b6447f1e13d5128fd3826d35afe8b60405160405180910390a2600101612c03565b50505050565b6000612ce7612ad9565b905060005b82811015612cd7576000848483818110612d0857612d086139a4565b9050602002016020810190612d1d9190612f6c565b6001600160a01b031603612d7d5760405162461bcd60e51b815260206004820152602160248201527f4261736550726f78793a207369676e6572206973207a65726f206164647265736044820152607360f81b6064820152608401610785565b612dbe6000805160206139bb833981519152858584818110612da157612da16139a4565b9050602002016020810190612db69190612f6c565b849190612bc1565b838382818110612dd057612dd06139a4565b9050602002016020810190612de59190612f6c565b6001600160a01b03167f47d1c22a25bb3a5d4e481b9b1e6944c2eade3181a0a20b495ed61d35b5323f2460405160405180910390a2600101612cec565b612e2b81612e2e565b50565b60006a636f6e736f6c652e6c6f679050600080835160208501845afa505050565b6001600160a01b0381168114612e2b57600080fd5b8035612e6f81612e4f565b919050565b60008060408385031215612e8757600080fd5b8235612e9281612e4f565b946020939093013593505050565b6000815180845260005b81811015612ec657602081850181015186830182015201612eaa565b506000602082860101526020601f19601f83011685010191505092915050565b6020815260006125de6020830184612ea0565b60008060408385031215612f0c57600080fd5b8235612f1781612e4f565b91506020830135612f2781612e4f565b809150509250929050565b600060208284031215612f4457600080fd5b81356001600160401b03811115612f5a57600080fd5b8201608081850312156125de57600080fd5b600060208284031215612f7e57600080fd5b81356125de81612e4f565b634e487b7160e01b600052604160045260246000fd5b60405160c081016001600160401b0381118282101715612fc157612fc1612f89565b60405290565b60405160a081016001600160401b0381118282101715612fc157612fc1612f89565b600082601f830112612ffa57600080fd5b81356001600160401b038082111561301457613014612f89565b604051601f8301601f19908116603f0116810190828211818310171561303c5761303c612f89565b8160405283815286602085880101111561305557600080fd5b836020870160208301376000602085830101528094505050505092915050565b60006020828403121561308757600080fd5b81356001600160401b038082111561309e57600080fd5b90830190604082860312156130b257600080fd5b6040516040810181811083821117156130cd576130cd612f89565b6040528235828111156130df57600080fd5b6130eb87828601612fe9565b82525060208301358281111561310057600080fd5b61310c87828601612fe9565b60208301525095945050505050565b60006020828403121561312d57600080fd5b81356001600160401b0381111561314357600080fd5b61314f84828501612fe9565b949350505050565b60006020828403121561316957600080fd5b5035919050565b6000815160c0845261318560c0850182612ea0565b90506020830151848203602086015261319e8282612ea0565b915050604083015184820360408601526131b88282612ea0565b915050606083015160608501526080830151608085015260a083015160a08501528091505092915050565b6020815260006125de6020830184613170565b6000806000806060858703121561320c57600080fd5b843561321781612e4f565b9350602085013561322781612e4f565b925060408501356001600160401b038082111561324357600080fd5b818701915087601f83011261325757600080fd5b81358181111561326657600080fd5b88602082850101111561327857600080fd5b95989497505060200194505050565b600060c0828403121561329957600080fd5b6132a1612f9f565b905081356001600160401b03808211156132ba57600080fd5b6132c685838601612fe9565b835260208401359150808211156132dc57600080fd5b6132e885838601612fe9565b6020840152604084013591508082111561330157600080fd5b5061330e84828501612fe9565b604083015250606082013560608201526080820135608082015260a082013560a082015292915050565b60006020828403121561334a57600080fd5b81356001600160401b038082111561336157600080fd5b9083019060a0828603121561337557600080fd5b61337d612fc7565b61338683612e64565b815261339460208401612e64565b60208201526040830135828111156133ab57600080fd5b6133b787828601613287565b6040830152506060830135828111156133cf57600080fd5b6133db87828601612fe9565b6060830152506080830135828111156133f357600080fd5b6133ff87828601612fe9565b60808301525095945050505050565b6000806020838503121561342157600080fd5b82356001600160401b038082111561343857600080fd5b818501915085601f83011261344c57600080fd5b81358181111561345b57600080fd5b8660208260051b850101111561347057600080fd5b60209290920196919550909350505050565b6000806040838503121561349557600080fd5b82356134a081612e4f565b915060208301356001600160401b038111156134bb57600080fd5b6134c785828601612fe9565b9150509250929050565b6020808252602b908201527f426173654163636573733a2063616c6c657220646f6573206e6f74206861766560408201526a2061646d696e20726f6c6560a81b606082015260800190565b6020808252601e908201527f436f6d70616e793a20636f6d70616e79206973206e6f74206163746976650000604082015260600190565b600181811c9082168061356757607f821691505b60208210810361358757634e487b7160e01b600052602260045260246000fd5b50919050565b6020808252602c908201527f426173654163636573733a2063616c6c657220646f6573206e6f74206861766560408201526b207369676e657220726f6c6560a01b606082015260800190565b6000808335601e198436030181126135f057600080fd5b8301803591506001600160401b0382111561360a57600080fd5b60200191503681900382131561361f57600080fd5b9250929050565b6020815281516020820152602082015160408201526000604083015160608084015261314f6080840182612ea0565b60006001820161367557634e487b7160e01b600052601160045260246000fd5b5060010190565b60208152600082516080602084015261369860a0840182613170565b905060018060a01b0360208501511660408401526040840151601f19808584030160608601526136c88383612ea0565b92506060860151915080858403016080860152506136e68282612ea0565b95945050505050565b6000806040838503121561370257600080fd5b825161370d81612e4f565b6020939093015192949293505050565b60208082526022908201527f436f6d70616e793a2063616c6c6572206973206e6f742074686520666163746f604082015261727960f01b606082015260800190565b60006020828403121561377157600080fd5b815180151581146125de57600080fd5b60006020828403121561379357600080fd5b81516125de81612e4f565b6001600160a01b03841681526040602082018190528101829052818360608301376000818301606090810191909152601f909201601f1916010192915050565b60208082526023908201527f436f6d70616e793a2063616c6c6572206973206e6f742074686520726567697360408201526274727960e81b606082015260800190565b601f821115610f3a576000816000526020600020601f850160051c8101602086101561384a5750805b601f850160051c820191505b81811015611da557828155600101613856565b81516001600160401b0381111561388257613882612f89565b613896816138908454613553565b84613821565b602080601f8311600181146138cb57600084156138b35750858301515b600019600386901b1c1916600185901b178555611da5565b600085815260208120601f198616915b828110156138fa578886015182559484019460019091019084016138db565b50858210156139185787850151600019600388901b60f8161c191681555b5050505050600190811b01905550565b60006020828403121561393a57600080fd5b5051919050565b60208152600082516040602084015261395d6060840182612ea0565b90506020840151601f198483030160408501526136e68282612ea0565b60408152600061398d6040830185612ea0565b905060018060a01b03831660208301529392505050565b634e487b7160e01b600052603260045260246000fdfee2f4eaae4a9751e85a3e4a7b9587827a877f29914755229b07a7b2da98285f70a49807205ce4d355092ef5a8a18f56e8913cf4a201fbe287825b095693c21775a2646970667358221220a632d9862426adb6a632f7357e1b44bcecf8a54946f605f27b3a62325eea22df64736f6c63430008180033",
  "linkReferences": {},
  "deployedLinkReferences": {}
}