{
  "_format": "hh-sol-artifact-1",
  "contractName": "Company",
  "sourceName": "contracts/company/Company.sol",
  "abi": [
    {
      "inputs": [
        {
          "components": [
            {
              "internalType": "address",
              "name": "companyFactory",
              "type": "address"
            },
            {
              "internalType": "address",
              "name": "companyRegistry",
              "type": "address"
            },
            {
              "internalType": "contract IExperienceRegistry",
              "name": "experienceRegistry",
              "type": "address"
            },
            {
              "internalType": "contract IMultiAssetRegistry",
              "name": "multiAssetRegistry",
              "type": "address"
            },
            {
              "internalType": "contract IAvatarRegistry",
              "name": "avatarRegistry",
              "type": "address"
            }
          ],
          "internalType": "struct CompanyConstructorArgs",
          "name": "args",
          "type": "tuple"
        }
      ],
      "stateMutability": "nonpayable",
      "type": "constructor"
    },
    {
      "inputs": [],
      "name": "ReentrancyGuardReentrantCall",
      "type": "error"
    },
    {
      "anonymous": false,
      "inputs": [
        {
          "indexed": true,
          "internalType": "address",
          "name": "asset",
          "type": "address"
        },
        {
          "indexed": true,
          "internalType": "address",
          "name": "to",
          "type": "address"
        },
        {
          "indexed": false,
          "internalType": "uint256",
          "name": "amountOrTokenId",
          "type": "uint256"
        }
      ],
      "name": "AssetMinted",
      "type": "event"
    },
    {
      "anonymous": false,
      "inputs": [
        {
          "indexed": true,
          "internalType": "address",
          "name": "asset",
          "type": "address"
        },
        {
          "indexed": true,
          "internalType": "address",
          "name": "holder",
          "type": "address"
        },
        {
          "indexed": false,
          "internalType": "uint256",
          "name": "amountOrTokenId",
          "type": "uint256"
        }
      ],
      "name": "AssetRevoked",
      "type": "event"
    },
    {
      "anonymous": false,
      "inputs": [],
      "name": "CompanyHookRemoved",
      "type": "event"
    },
    {
      "anonymous": false,
      "inputs": [
        {
          "indexed": true,
          "internalType": "address",
          "name": "hook",
          "type": "address"
        }
      ],
      "name": "CompanyHookSet",
      "type": "event"
    },
    {
      "anonymous": false,
      "inputs": [
        {
          "indexed": true,
          "internalType": "address",
          "name": "oldVersion",
          "type": "address"
        },
        {
          "indexed": true,
          "internalType": "address",
          "name": "nextVersion",
          "type": "address"
        }
      ],
      "name": "CompanyUpgraded",
      "type": "event"
    },
    {
      "anonymous": false,
      "inputs": [
        {
          "indexed": true,
          "internalType": "address",
          "name": "experience",
          "type": "address"
        },
        {
          "indexed": false,
          "internalType": "uint256",
          "name": "portalId",
          "type": "uint256"
        }
      ],
      "name": "ExperienceAdded",
      "type": "event"
    },
    {
      "anonymous": false,
      "inputs": [
        {
          "indexed": true,
          "internalType": "address",
          "name": "sender",
          "type": "address"
        },
        {
          "indexed": false,
          "internalType": "uint256",
          "name": "value",
          "type": "uint256"
        }
      ],
      "name": "ReceivedFunds",
      "type": "event"
    },
    {
      "anonymous": false,
      "inputs": [
        {
          "indexed": true,
          "internalType": "address",
          "name": "signer",
          "type": "address"
        }
      ],
      "name": "SignerAdded",
      "type": "event"
    },
    {
      "anonymous": false,
      "inputs": [
        {
          "indexed": true,
          "internalType": "address",
          "name": "signer",
          "type": "address"
        }
      ],
      "name": "SignerRemoved",
      "type": "event"
    },
    {
      "inputs": [
        {
          "internalType": "address",
          "name": "asset",
          "type": "address"
        },
        {
          "internalType": "address",
          "name": "condition",
          "type": "address"
        }
      ],
      "name": "addAssetCondition",
      "outputs": [],
      "stateMutability": "nonpayable",
      "type": "function"
    },
    {
      "inputs": [
        {
          "internalType": "address",
          "name": "asset",
          "type": "address"
        },
        {
          "internalType": "contract IAssetHook",
          "name": "aHook",
          "type": "address"
        }
      ],
      "name": "addAssetHook",
      "outputs": [],
      "stateMutability": "nonpayable",
      "type": "function"
    },
    {
      "inputs": [
        {
          "components": [
            {
              "internalType": "string",
              "name": "name",
              "type": "string"
            },
            {
              "internalType": "bytes",
              "name": "initData",
              "type": "bytes"
            }
          ],
          "internalType": "struct AddExperienceArgs",
          "name": "args",
          "type": "tuple"
        }
      ],
      "name": "addExperience",
      "outputs": [],
      "stateMutability": "nonpayable",
      "type": "function"
    },
    {
      "inputs": [
        {
          "internalType": "address",
          "name": "experience",
          "type": "address"
        },
        {
          "internalType": "address",
          "name": "condition",
          "type": "address"
        }
      ],
      "name": "addExperienceCondition",
      "outputs": [],
      "stateMutability": "nonpayable",
      "type": "function"
    },
    {
      "inputs": [
        {
          "internalType": "address[]",
          "name": "signers",
          "type": "address[]"
        }
      ],
      "name": "addSigners",
      "outputs": [],
      "stateMutability": "nonpayable",
      "type": "function"
    },
    {
      "inputs": [],
      "name": "assetRegistry",
      "outputs": [
        {
          "internalType": "contract IMultiAssetRegistry",
          "name": "",
          "type": "address"
        }
      ],
      "stateMutability": "view",
      "type": "function"
    },
    {
      "inputs": [],
      "name": "avatarRegistry",
      "outputs": [
        {
          "internalType": "contract IAvatarRegistry",
          "name": "",
          "type": "address"
        }
      ],
      "stateMutability": "view",
      "type": "function"
    },
    {
      "inputs": [
        {
          "internalType": "address",
          "name": "asset",
          "type": "address"
        },
        {
          "internalType": "address",
          "name": "to",
          "type": "address"
        },
        {
          "internalType": "bytes",
          "name": "extra",
          "type": "bytes"
        }
      ],
      "name": "canMint",
      "outputs": [
        {
          "internalType": "bool",
          "name": "",
          "type": "bool"
        }
      ],
      "stateMutability": "view",
      "type": "function"
    },
    {
      "inputs": [
        {
          "internalType": "address",
          "name": "experience",
          "type": "address"
        },
        {
          "internalType": "uint256",
          "name": "fee",
          "type": "uint256"
        }
      ],
      "name": "changeExperiencePortalFee",
      "outputs": [],
      "stateMutability": "nonpayable",
      "type": "function"
    },
    {
      "inputs": [],
      "name": "companyFactory",
      "outputs": [
        {
          "internalType": "address",
          "name": "",
          "type": "address"
        }
      ],
      "stateMutability": "view",
      "type": "function"
    },
    {
      "inputs": [],
      "name": "companyRegistry",
      "outputs": [
        {
          "internalType": "contract ICompanyRegistry",
          "name": "",
          "type": "address"
        }
      ],
      "stateMutability": "view",
      "type": "function"
    },
    {
      "inputs": [
        {
          "components": [
            {
              "internalType": "address",
              "name": "avatar",
              "type": "address"
            },
            {
              "internalType": "uint256",
              "name": "portalId",
              "type": "uint256"
            },
            {
              "internalType": "uint256",
              "name": "agreedFee",
              "type": "uint256"
            },
            {
              "internalType": "bytes",
              "name": "avatarOwnerSignature",
              "type": "bytes"
            }
          ],
          "internalType": "struct DelegatedAvatarJumpRequest",
          "name": "request",
          "type": "tuple"
        }
      ],
      "name": "delegateJumpForAvatar",
      "outputs": [],
      "stateMutability": "nonpayable",
      "type": "function"
    },
    {
      "inputs": [
        {
          "components": [
            {
              "internalType": "string",
              "name": "name",
              "type": "string"
            },
            {
              "internalType": "bytes",
              "name": "initData",
              "type": "bytes"
            }
          ],
          "internalType": "struct AddExperienceArgs",
          "name": "args",
          "type": "tuple"
        }
      ],
      "name": "encodeExperienceArgs",
      "outputs": [
        {
          "internalType": "bytes",
          "name": "",
          "type": "bytes"
        }
      ],
      "stateMutability": "pure",
      "type": "function"
    },
    {
      "inputs": [],
      "name": "experienceRegistry",
      "outputs": [
        {
          "internalType": "contract IExperienceRegistry",
          "name": "",
          "type": "address"
        }
      ],
      "stateMutability": "view",
      "type": "function"
    },
    {
      "inputs": [],
      "name": "hook",
      "outputs": [
        {
          "internalType": "contract ICompanyHook",
          "name": "",
          "type": "address"
        }
      ],
      "stateMutability": "view",
      "type": "function"
    },
    {
      "inputs": [
        {
          "components": [
            {
              "internalType": "address",
              "name": "owner",
              "type": "address"
            },
            {
              "internalType": "address",
              "name": "world",
              "type": "address"
            },
            {
              "components": [
                {
                  "internalType": "string",
                  "name": "x",
                  "type": "string"
                },
                {
                  "internalType": "string",
                  "name": "y",
                  "type": "string"
                },
                {
                  "internalType": "string",
                  "name": "z",
                  "type": "string"
                },
                {
                  "internalType": "uint256",
                  "name": "t",
                  "type": "uint256"
                },
                {
                  "internalType": "uint256",
                  "name": "p",
                  "type": "uint256"
                },
                {
                  "internalType": "uint256",
                  "name": "p_sub",
                  "type": "uint256"
                }
              ],
              "internalType": "struct VectorAddress",
              "name": "vector",
              "type": "tuple"
            },
            {
              "internalType": "bytes",
              "name": "initData",
              "type": "bytes"
            },
            {
              "internalType": "string",
              "name": "name",
              "type": "string"
            }
          ],
          "internalType": "struct CompanyInitArgs",
          "name": "request",
          "type": "tuple"
        }
      ],
      "name": "init",
      "outputs": [],
      "stateMutability": "nonpayable",
      "type": "function"
    },
    {
      "inputs": [
        {
          "internalType": "address",
          "name": "signer",
          "type": "address"
        }
      ],
      "name": "isSigner",
      "outputs": [
        {
          "internalType": "bool",
          "name": "",
          "type": "bool"
        }
      ],
      "stateMutability": "view",
      "type": "function"
    },
    {
      "inputs": [
        {
          "internalType": "address",
          "name": "asset",
          "type": "address"
        },
        {
          "internalType": "address",
          "name": "to",
          "type": "address"
        },
        {
          "internalType": "bytes",
          "name": "data",
          "type": "bytes"
        }
      ],
      "name": "mint",
      "outputs": [],
      "stateMutability": "nonpayable",
      "type": "function"
    },
    {
      "inputs": [],
      "name": "name",
      "outputs": [
        {
          "internalType": "string",
          "name": "",
          "type": "string"
        }
      ],
      "stateMutability": "view",
      "type": "function"
    },
    {
      "inputs": [],
      "name": "nextPsub",
      "outputs": [
        {
          "internalType": "uint256",
          "name": "",
          "type": "uint256"
        }
      ],
      "stateMutability": "view",
      "type": "function"
    },
    {
      "inputs": [],
      "name": "owner",
      "outputs": [
        {
          "internalType": "address",
          "name": "",
          "type": "address"
        }
      ],
      "stateMutability": "view",
      "type": "function"
    },
    {
      "inputs": [
        {
          "internalType": "address",
          "name": "asset",
          "type": "address"
        }
      ],
      "name": "removeAssetCondition",
      "outputs": [],
      "stateMutability": "nonpayable",
      "type": "function"
    },
    {
      "inputs": [
        {
          "internalType": "address",
          "name": "asset",
          "type": "address"
        }
      ],
      "name": "removeAssetHook",
      "outputs": [],
      "stateMutability": "nonpayable",
      "type": "function"
    },
    {
      "inputs": [
        {
          "internalType": "address",
          "name": "experience",
          "type": "address"
        }
      ],
      "name": "removeExperienceCondition",
      "outputs": [],
      "stateMutability": "nonpayable",
      "type": "function"
    },
    {
      "inputs": [],
      "name": "removeHook",
      "outputs": [],
      "stateMutability": "nonpayable",
      "type": "function"
    },
    {
      "inputs": [
        {
          "internalType": "address[]",
          "name": "signers",
          "type": "address[]"
        }
      ],
      "name": "removeSigners",
      "outputs": [],
      "stateMutability": "nonpayable",
      "type": "function"
    },
    {
      "inputs": [
        {
          "internalType": "address",
          "name": "asset",
          "type": "address"
        },
        {
          "internalType": "address",
          "name": "holder",
          "type": "address"
        },
        {
          "internalType": "bytes",
          "name": "data",
          "type": "bytes"
        }
      ],
      "name": "revoke",
      "outputs": [],
      "stateMutability": "nonpayable",
      "type": "function"
    },
    {
      "inputs": [
        {
          "internalType": "contract ICompanyHook",
          "name": "_hook",
          "type": "address"
        }
      ],
      "name": "setHook",
      "outputs": [],
      "stateMutability": "nonpayable",
      "type": "function"
    },
    {
      "inputs": [
        {
          "internalType": "bytes",
          "name": "initData",
          "type": "bytes"
        }
      ],
      "name": "upgrade",
      "outputs": [],
      "stateMutability": "nonpayable",
      "type": "function"
    },
    {
      "inputs": [
        {
          "internalType": "address",
          "name": "nextVersion",
          "type": "address"
        }
      ],
      "name": "upgradeComplete",
      "outputs": [],
      "stateMutability": "nonpayable",
      "type": "function"
    },
    {
      "inputs": [],
      "name": "vectorAddress",
      "outputs": [
        {
          "components": [
            {
              "internalType": "string",
              "name": "x",
              "type": "string"
            },
            {
              "internalType": "string",
              "name": "y",
              "type": "string"
            },
            {
              "internalType": "string",
              "name": "z",
              "type": "string"
            },
            {
              "internalType": "uint256",
              "name": "t",
              "type": "uint256"
            },
            {
              "internalType": "uint256",
              "name": "p",
              "type": "uint256"
            },
            {
              "internalType": "uint256",
              "name": "p_sub",
              "type": "uint256"
            }
          ],
          "internalType": "struct VectorAddress",
          "name": "",
          "type": "tuple"
        }
      ],
      "stateMutability": "view",
      "type": "function"
    },
    {
      "inputs": [],
      "name": "version",
      "outputs": [
        {
          "internalType": "uint256",
          "name": "",
          "type": "uint256"
        }
      ],
      "stateMutability": "view",
      "type": "function"
    },
    {
      "inputs": [
        {
          "internalType": "uint256",
          "name": "amount",
          "type": "uint256"
        }
      ],
      "name": "withdraw",
      "outputs": [],
      "stateMutability": "nonpayable",
      "type": "function"
    },
    {
      "inputs": [],
      "name": "world",
      "outputs": [
        {
          "internalType": "address",
          "name": "",
          "type": "address"
        }
      ],
      "stateMutability": "view",
      "type": "function"
    },
    {
      "stateMutability": "payable",
      "type": "receive"
    }
  ],
  "bytecode": "0x6101206040523480156200001257600080fd5b50604051620034bc380380620034bc8339810160408190526200003591620002ba565b600160005580516001600160a01b0316620000a55760405162461bcd60e51b815260206004820152602560248201527f436f6d70616e793a20636f6d70616e79466163746f72792063616e6e6f742062604482015264065203078360dc1b60648201526084015b60405180910390fd5b60208101516001600160a01b0316620001105760405162461bcd60e51b815260206004820152602660248201527f436f6d70616e793a20636f6d70616e7952656769737472792063616e6e6f742060448201526506265203078360d41b60648201526084016200009c565b60408101516001600160a01b03166200017e5760405162461bcd60e51b815260206004820152602960248201527f436f6d70616e793a20657870657269656e636552656769737472792063616e6e60448201526806f74206265203078360bc1b60648201526084016200009c565b60608101516001600160a01b0316620001e65760405162461bcd60e51b8152602060048201526024808201527f436f6d70616e793a20617373657452656769737472792063616e6e6f742062656044820152630203078360e41b60648201526084016200009c565b60808101516001600160a01b0316620002505760405162461bcd60e51b815260206004820152602560248201527f436f6d70616e793a2061766174617252656769737472792063616e6e6f742062604482015264065203078360dc1b60648201526084016200009c565b80516001600160a01b0390811660809081526020830151821660a0526040830151821660c0526060830151821660e05290910151166101005262000365565b6001600160a01b0381168114620002a557600080fd5b50565b8051620002b5816200028f565b919050565b600060a08284031215620002cd57600080fd5b60405160a081016001600160401b0381118282101715620002fe57634e487b7160e01b600052604160045260246000fd5b60405282516200030e816200028f565b8152602083015162000320816200028f565b60208201526200033360408401620002a8565b60408201526200034660608401620002a8565b60608201526200035960808401620002a8565b60808201529392505050565b60805160a05160c05160e051610100516130d3620003e9600039600081816106cf01526116ac0152600081816106130152818161145001526119d20152600081816105ab0152610d6e0152600081816106670152610eac01526000818161069b01528181610efd01528181610f7701528181611c9f0152611d1901526130d36000f3fe6080604052600436106101fd5760003560e01c806354fd4d501161010d5780638f09a6be116100a0578063c51aba2b1161006f578063c51aba2b14610655578063dc1c44be14610689578063e3d7ad73146106bd578063e8906a2d146106f1578063f1ddecf91461071157600080fd5b80638f09a6be146105995780639338db1b146105cd578063979d7e86146106015780639e29186d1461063557600080fd5b80637df73e27116100dc5780637df73e27146104f15780637f5a7c7b146105115780638d361e431461054e5780638da5cb5b1461056e57600080fd5b806354fd4d501461046e57806357433ea6146104915780636330347a146104b15780637d4daec5146104d157600080fd5b806329f2691d11610190578063378f17ff1161015f578063378f17ff146103c957806337b4eb06146103de57806338c8a97b1461040e5780633dfd38731461042e5780635466ddd51461044e57600080fd5b806329f2691d146103165780632e1a7d4d146103365780632fcbab9a1461035657806330b67baa1461037857600080fd5b80631961f05d116101cc5780631961f05d14610296578063243546a6146102b657806325394645146102d65780632663d1f7146102f657600080fd5b80630346f5f51461020957806306fdde031461022b5780631187b6271461025657806316c49b111461027657600080fd5b3661020457005b600080fd5b34801561021557600080fd5b50610229610224366004612611565b610731565b005b34801561023757600080fd5b506102406107de565b60405161024d9190612683565b60405180910390f35b34801561026257600080fd5b50610229610271366004612696565b6108a1565b34801561028257600080fd5b506102296102913660046126cf565b610943565b3480156102a257600080fd5b506102296102b136600461270a565b610a2a565b3480156102c257600080fd5b506102296102d1366004612816565b610ac2565b3480156102e257600080fd5b506102296102f13660046128bd565b610e54565b34801561030257600080fd5b5061022961031136600461270a565b610efb565b34801561032257600080fd5b5061022961033136600461270a565b611010565b34801561034257600080fd5b506102296103513660046128f2565b61108c565b34801561036257600080fd5b5061036b61116b565b60405161024d919061297e565b34801561038457600080fd5b507f6373b2650f68a30b6fdd87e3caf4df754a3a8f8ef4b09bbd1bb4ff21f356aa2d546001600160a01b03165b6040516001600160a01b03909116815260200161024d565b3480156103d557600080fd5b506102296113bb565b3480156103ea57600080fd5b506103fe6103f9366004612991565b61142e565b604051901515815260200161024d565b34801561041a57600080fd5b50610229610429366004612991565b61196a565b34801561043a57600080fd5b5061022961044936600461270a565b611bc4565b34801561045a57600080fd5b50610229610469366004612ad5565b611c9d565b34801561047a57600080fd5b50610483600181565b60405190815260200161024d565b34801561049d57600080fd5b506102296104ac366004612696565b611fb8565b3480156104bd57600080fd5b506102296104cc366004612696565b61202a565b3480156104dd57600080fd5b506102406104ec366004612816565b612099565b3480156104fd57600080fd5b506103fe61050c36600461270a565b6120c2565b34801561051d57600080fd5b507f6373b2650f68a30b6fdd87e3caf4df754a3a8f8ef4b09bbd1bb4ff21f356aa2e546001600160a01b03166103b1565b34801561055a57600080fd5b50610229610569366004612bac565b6120ef565b34801561057a57600080fd5b5060008051602061303e833981519152546001600160a01b03166103b1565b3480156105a557600080fd5b506103b17f000000000000000000000000000000000000000000000000000000000000000081565b3480156105d957600080fd5b507f6373b2650f68a30b6fdd87e3caf4df754a3a8f8ef4b09bbd1bb4ff21f356aa3654610483565b34801561060d57600080fd5b506103b17f000000000000000000000000000000000000000000000000000000000000000081565b34801561064157600080fd5b5061022961065036600461270a565b61213a565b34801561066157600080fd5b506103b17f000000000000000000000000000000000000000000000000000000000000000081565b34801561069557600080fd5b506103b17f000000000000000000000000000000000000000000000000000000000000000081565b3480156106c957600080fd5b506103b17f000000000000000000000000000000000000000000000000000000000000000081565b3480156106fd57600080fd5b5061022961070c366004612bac565b6121bb565b34801561071d57600080fd5b5061022961072c366004612991565b612206565b600061073b612313565b90506107568160008051602061307e83398151915233612337565b61077b5760405162461bcd60e51b815260040161077290612c21565b60405180910390fd5b6040516383c3426360e01b81526004810183905283906001600160a01b038216906383c34263906024015b600060405180830381600087803b1580156107c057600080fd5b505af11580156107d4573d6000803e3d6000fd5b5050505050505050565b7f6373b2650f68a30b6fdd87e3caf4df754a3a8f8ef4b09bbd1bb4ff21f356aa35805460609160008051602061303e8339815191529161081d90612c6c565b80601f016020809104026020016040519081016040528092919081815260200182805461084990612c6c565b80156108965780601f1061086b57610100808354040283529160200191610896565b820191906000526020600020905b81548152906001019060200180831161087957829003601f168201915b505050505091505090565b60006108ab612313565b90506108c68160008051602061307e83398151915233612337565b6108e25760405162461bcd60e51b815260040161077290612c21565b604051630f69c09d60e31b81526001600160a01b038381166004830152841690637b4e04e8906024015b600060405180830381600087803b15801561092657600080fd5b505af115801561093a573d6000803e3d6000fd5b50505050505050565b600061094d612313565b90506109688160008051602061305e83398151915233612337565b6109845760405162461bcd60e51b815260040161077290612ca6565b6000610993602084018461270a565b9050806001600160a01b0316637dc759e5604051806060016040528086602001358152602001866040013581526020018680606001906109d39190612cf2565b8080601f01602080910402602001604051908101604052809392919081815260200183838082843760009201919091525050509152506040516001600160e01b031960e084901b16815261090c9190600401612d40565b6000610a34612313565b9050610a4f8160008051602061307e83398151915233612337565b610a6b5760405162461bcd60e51b815260040161077290612c21565b816001600160a01b031663378f17ff6040518163ffffffff1660e01b8152600401600060405180830381600087803b158015610aa657600080fd5b505af1158015610aba573d6000803e3d6000fd5b505050505050565b6000610acc612313565b9050610ae78160008051602061305e83398151915233612337565b610b035760405162461bcd60e51b815260040161077290612ca6565b610b0b612364565b7f6373b2650f68a30b6fdd87e3caf4df754a3a8f8ef4b09bbd1bb4ff21f356aa36805460008051602061303e8339815191529190600090610b4b90612d6f565b9190508190555060006040518060c00160405280836003016000018054610b7190612c6c565b80601f0160208091040260200160405190810160405280929190818152602001828054610b9d90612c6c565b8015610bea5780601f10610bbf57610100808354040283529160200191610bea565b820191906000526020600020905b815481529060010190602001808311610bcd57829003601f168201915b50505050508152602001836003016001018054610c0690612c6c565b80601f0160208091040260200160405190810160405280929190818152602001828054610c3290612c6c565b8015610c7f5780601f10610c5457610100808354040283529160200191610c7f565b820191906000526020600020905b815481529060010190602001808311610c6257829003601f168201915b50505050508152602001836003016002018054610c9b90612c6c565b80601f0160208091040260200160405190810160405280929190818152602001828054610cc790612c6c565b8015610d145780601f10610ce957610100808354040283529160200191610d14565b820191906000526020600020905b815481529060010190602001808311610cf757829003601f168201915b50505050508152602001836003016003015481526020018360030160040154815260200183600a015481525090506000604051806060016040528083815260200186602001518152602001866000015181525090506000807f00000000000000000000000000000000000000000000000000000000000000006001600160a01b0316631305f017846040518263ffffffff1660e01b8152600401610db89190612d96565b60408051808303816000875af1158015610dd6573d6000803e3d6000fd5b505050506040513d601f19601f82011682018060405250810190610dfa9190612df7565b91509150816001600160a01b03167f564792a0259ee41a56519990d80509a8057848327265f2075bcaac108651eab982604051610e3991815260200190565b60405180910390a25050505050610e506001600055565b5050565b6000610e5e612313565b9050610e798160008051602061307e83398151915233612337565b610e955760405162461bcd60e51b815260040161077290612c21565b60405163d449cf2560e01b81526001600160a01b037f0000000000000000000000000000000000000000000000000000000000000000169063d449cf2590610ee1908590600401612683565b600060405180830381600087803b158015610aa657600080fd5b7f00000000000000000000000000000000000000000000000000000000000000006001600160a01b0316610f6c5760405162461bcd60e51b815260206004820152601860248201527710dbdb5c185b9e4e88199858dd1bdc9e481b9bdd081cd95d60421b6044820152606401610772565b336001600160a01b037f00000000000000000000000000000000000000000000000000000000000000001614610fb45760405162461bcd60e51b815260040161077290612e25565b6000610fbe612313565b80546001600160a01b038481166001600160a01b031983168117845560405193945091169182907f62e097eae9ab3bdbcbf8876a75515aa178198bfb2b0e9a90a7308bceb2efa6e690600090a3505050565b600061101a612313565b90506110358160008051602061307e83398151915233612337565b6110515760405162461bcd60e51b815260040161077290612c21565b816001600160a01b031663021665b76040518163ffffffff1660e01b8152600401600060405180830381600087803b158015610aa657600080fd5b6000611096612313565b90506110b18160008051602061307e83398151915233612337565b6110cd5760405162461bcd60e51b815260040161077290612c21565b4782111561111d5760405162461bcd60e51b815260206004820152601d60248201527f436f6d70616e793a20696e73756666696369656e742062616c616e63650000006044820152606401610772565b60008051602061303e83398151915280546040516001600160a01b03909116906108fc8515029085906000818181858888f19350505050158015611165573d6000803e3d6000fd5b50505050565b6111a46040518060c001604052806060815260200160608152602001606081526020016000815260200160008152602001600081525090565b6040805160c081019091527f6373b2650f68a30b6fdd87e3caf4df754a3a8f8ef4b09bbd1bb4ff21f356aa2f805460008051602061303e833981519152929190829082906111f190612c6c565b80601f016020809104026020016040519081016040528092919081815260200182805461121d90612c6c565b801561126a5780601f1061123f5761010080835404028352916020019161126a565b820191906000526020600020905b81548152906001019060200180831161124d57829003601f168201915b5050505050815260200160018201805461128390612c6c565b80601f01602080910402602001604051908101604052809291908181526020018280546112af90612c6c565b80156112fc5780601f106112d1576101008083540402835291602001916112fc565b820191906000526020600020905b8154815290600101906020018083116112df57829003601f168201915b5050505050815260200160028201805461131590612c6c565b80601f016020809104026020016040519081016040528092919081815260200182805461134190612c6c565b801561138e5780601f106113635761010080835404028352916020019161138e565b820191906000526020600020905b81548152906001019060200180831161137157829003601f168201915b50505050508152602001600382015481526020016004820154815260200160058201548152505091505090565b60006113c5612313565b90506113e08160008051602061307e83398151915233612337565b6113fc5760405162461bcd60e51b815260040161077290612c21565b507f6373b2650f68a30b6fdd87e3caf4df754a3a8f8ef4b09bbd1bb4ff21f356aa2e80546001600160a01b0319169055565b6040516315bd8ac360e31b81526001600160a01b0385811660048301526000917f00000000000000000000000000000000000000000000000000000000000000009091169063adec561890602401602060405180830381865afa158015611499573d6000803e3d6000fd5b505050506040513d601f19601f820116820180604052508101906114bd9190612e67565b6115095760405162461bcd60e51b815260206004820152601d60248201527f436f6d70616e793a206173736574206e6f7420726567697374657265640000006044820152606401610772565b6000859050306001600160a01b0316816001600160a01b0316631d1438486040518163ffffffff1660e01b8152600401602060405180830381865afa158015611556573d6000803e3d6000fd5b505050506040513d601f19601f8201168201806040525081019061157a9190612e89565b6001600160a01b0316146115d05760405162461bcd60e51b815260206004820152601c60248201527f436f6d70616e793a206e6f7420697373756572206f66206173736574000000006044820152606401610772565b604051634f2a605160e11b81526001600160a01b03821690639e54c0a29061160090889088908890600401612ea6565b602060405180830381865afa15801561161d573d6000803e3d6000fd5b505050506040513d601f19601f820116820180604052508101906116419190612e67565b61168d5760405162461bcd60e51b815260206004820152601f60248201527f436f6d70616e793a2063616e6e6f74206d696e7420746f2061646472657373006044820152606401610772565b604051632b0fe8e760e21b81526001600160a01b0386811660048301527f0000000000000000000000000000000000000000000000000000000000000000169063ac3fa39c90602401602060405180830381865afa1580156116f3573d6000803e3d6000fd5b505050506040513d601f19601f820116820180604052508101906117179190612e67565b611725576001915050611962565b6000859050806001600160a01b031663181d939b6040518163ffffffff1660e01b8152600401602060405180830381865afa158015611768573d6000803e3d6000fd5b505050506040513d601f19601f8201168201806040525081019061178c9190612e67565b61195b576000816001600160a01b031663516f279e6040518163ffffffff1660e01b8152600401602060405180830381865afa1580156117d0573d6000803e3d6000fd5b505050506040513d601f19601f820116820180604052508101906117f49190612e89565b90506001600160a01b0381166118625760405162461bcd60e51b815260206004820152602d60248201527f436f6d70616e793a20617661746172206c6f636174696f6e206973206e6f742060448201526c616e20657870657269656e636560981b6064820152608401610772565b306001600160a01b0316816001600160a01b0316636904c94d6040518163ffffffff1660e01b8152600401602060405180830381865afa1580156118aa573d6000803e3d6000fd5b505050506040513d601f19601f820116820180604052508101906118ce9190612e89565b6001600160a01b0316146119595760405162461bcd60e51b815260206004820152604660248201527f436f6d70616e793a20617661746172206c6f636174696f6e206973206e6f742060448201527f696e20616e20657870657269656e6365206f776e6564206279207468697320636064820152656f6d70616e7960d01b608482015260a401610772565b505b6001925050505b949350505050565b6000611974612313565b905061198f8160008051602061305e83398151915233612337565b6119ab5760405162461bcd60e51b815260040161077290612ca6565b6119b3612364565b6040516315bd8ac360e31b81526001600160a01b0386811660048301527f0000000000000000000000000000000000000000000000000000000000000000169063adec561890602401602060405180830381865afa158015611a19573d6000803e3d6000fd5b505050506040513d601f19601f82011682018060405250810190611a3d9190612e67565b611a895760405162461bcd60e51b815260206004820152601d60248201527f436f6d70616e793a206173736574206e6f7420726567697374657265640000006044820152606401610772565b6000859050306001600160a01b0316816001600160a01b0316631d1438486040518163ffffffff1660e01b8152600401602060405180830381865afa158015611ad6573d6000803e3d6000fd5b505050506040513d601f19601f82011682018060405250810190611afa9190612e89565b6001600160a01b031614611b505760405162461bcd60e51b815260206004820152601c60248201527f436f6d70616e793a206e6f7420697373756572206f66206173736574000000006044820152606401610772565b6040516326a5ce1160e21b81526001600160a01b03821690639a97384490611b8090889088908890600401612ea6565b600060405180830381600087803b158015611b9a57600080fd5b505af1158015611bae573d6000803e3d6000fd5b5050505050611bbd6001600055565b5050505050565b6000611bce612313565b9050611be98160008051602061307e83398151915233612337565b611c055760405162461bcd60e51b815260040161077290612c21565b6001600160a01b038216611c5b5760405162461bcd60e51b815260206004820152601b60248201527f436f6d70616e793a20686f6f6b2063616e6e6f742062652030783000000000006044820152606401610772565b507f6373b2650f68a30b6fdd87e3caf4df754a3a8f8ef4b09bbd1bb4ff21f356aa2e80546001600160a01b0319166001600160a01b0392909216919091179055565b7f00000000000000000000000000000000000000000000000000000000000000006001600160a01b0316611d0e5760405162461bcd60e51b815260206004820152601860248201527710dbdb5c185b9e4e88199858dd1bdc9e481b9bdd081cd95d60421b6044820152606401610772565b336001600160a01b037f00000000000000000000000000000000000000000000000000000000000000001614611d565760405162461bcd60e51b815260040161077290612e25565b60008051602061303e83398151915280546001600160a01b031615611dbd5760405162461bcd60e51b815260206004820152601c60248201527f436f6d70616e793a20616c726561647920696e697469616c697a6564000000006044820152606401610772565b81516001600160a01b0316611e145760405162461bcd60e51b815260206004820152601c60248201527f436f6d70616e793a206f776e65722063616e6e6f7420626520307830000000006044820152606401610772565b600082608001515111611e695760405162461bcd60e51b815260206004820152601d60248201527f436f6d70616e793a206e616d652063616e6e6f7420626520656d7074790000006044820152606401610772565b60208201516001600160a01b0316611ec35760405162461bcd60e51b815260206004820152601c60248201527f436f6d70616e793a20776f726c642063616e6e6f7420626520307830000000006044820152606401610772565b815181546001600160a01b039182166001600160a01b031991821617835560208401516001840180549190931691161790556040820151805160038301908190611f0d9082612f2e565b5060208201516001820190611f229082612f2e565b5060408201516002820190611f379082612f2e565b5060608201516003820155608080830151600483015560a0909201516005909101558201516009820190611f6b9082612f2e565b506000611f76612313565b8351909150611f9690829060008051602061307e8339815191529061238e565b8251611fb390829060008051602061305e8339815191529061238e565b505050565b6000611fc2612313565b9050611fdd8160008051602061307e83398151915233612337565b611ff95760405162461bcd60e51b815260040161077290612c21565b6040516337eff0db60e11b81526001600160a01b038381166004830152849190821690636fdfe1b6906024016107a6565b6000612034612313565b905061204f8160008051602061307e83398151915233612337565b61206b5760405162461bcd60e51b815260040161077290612c21565b604051631169a49960e11b81526001600160a01b0383811660048301528416906322d349329060240161090c565b6060816040516020016120ac9190612fee565b6040516020818303038152906040529050919050565b6000806120cd612313565b90506120e88160008051602061305e83398151915285612337565b9392505050565b60006120f9612313565b90506121148160008051602061307e83398151915233612337565b6121305760405162461bcd60e51b815260040161077290612c21565b611fb383836123c1565b6000612144612313565b905061215f8160008051602061307e83398151915233612337565b61217b5760405162461bcd60e51b815260040161077290612c21565b6000829050806001600160a01b03166358779dcf6040518163ffffffff1660e01b8152600401600060405180830381600087803b15801561092657600080fd5b60006121c5612313565b90506121e08160008051602061307e83398151915233612337565b6121fc5760405162461bcd60e51b815260040161077290612c21565b611fb383836124a4565b6000612210612313565b905061222b8160008051602061305e83398151915233612337565b6122475760405162461bcd60e51b815260040161077290612ca6565b61224f612364565b61225b8585858561142e565b6122a75760405162461bcd60e51b815260206004820152601a60248201527f436f6d70616e793a2063616e6e6f74206d696e742061737365740000000000006044820152606401610772565b60405163b510391f60e01b81526001600160a01b0386169063b510391f906122d790879087908790600401612ea6565b600060405180830381600087803b1580156122f157600080fd5b505af1158015612305573d6000803e3d6000fd5b50505050611bbd6001600055565b7f1f07e7b49187e1cf67924ca1fa35732211c5bb2c23b6b53ee47453438de7285e90565b6000918252600192909201602090815260408083206001600160a01b039094168352929052205460ff1690565b60026000540361238757604051633ee5aeb560e01b815260040160405180910390fd5b6002600055565b60009182526001928301602090815260408084206001600160a01b0390931684529190529020805460ff19169091179055565b60006123cb612313565b905060005b828110156111655761244060008051602061305e8339815191528585848181106123fc576123fc613027565b9050602002016020810190612411919061270a565b600091825260018501602090815260408084206001600160a01b0390931684529190529020805460ff19169055565b83838281811061245257612452613027565b9050602002016020810190612467919061270a565b6001600160a01b03167f3525e22824a8a7df2c9a6029941c824cf95b6447f1e13d5128fd3826d35afe8b60405160405180910390a26001016123d0565b60006124ae612313565b905060005b828110156111655760008484838181106124cf576124cf613027565b90506020020160208101906124e4919061270a565b6001600160a01b0316036125445760405162461bcd60e51b815260206004820152602160248201527f4261736550726f78793a207369676e6572206973207a65726f206164647265736044820152607360f81b6064820152608401610772565b61258560008051602061305e83398151915285858481811061256857612568613027565b905060200201602081019061257d919061270a565b84919061238e565b83838281811061259757612597613027565b90506020020160208101906125ac919061270a565b6001600160a01b03167f47d1c22a25bb3a5d4e481b9b1e6944c2eade3181a0a20b495ed61d35b5323f2460405160405180910390a26001016124b3565b6001600160a01b03811681146125fe57600080fd5b50565b803561260c816125e9565b919050565b6000806040838503121561262457600080fd5b823561262f816125e9565b946020939093013593505050565b6000815180845260005b8181101561266357602081850181015186830182015201612647565b506000602082860101526020601f19601f83011685010191505092915050565b6020815260006120e8602083018461263d565b600080604083850312156126a957600080fd5b82356126b4816125e9565b915060208301356126c4816125e9565b809150509250929050565b6000602082840312156126e157600080fd5b813567ffffffffffffffff8111156126f857600080fd5b8201608081850312156120e857600080fd5b60006020828403121561271c57600080fd5b81356120e8816125e9565b634e487b7160e01b600052604160045260246000fd5b60405160c0810167ffffffffffffffff8111828210171561276057612760612727565b60405290565b60405160a0810167ffffffffffffffff8111828210171561276057612760612727565b600082601f83011261279a57600080fd5b813567ffffffffffffffff808211156127b5576127b5612727565b604051601f8301601f19908116603f011681019082821181831017156127dd576127dd612727565b816040528381528660208588010111156127f657600080fd5b836020870160208301376000602085830101528094505050505092915050565b60006020828403121561282857600080fd5b813567ffffffffffffffff8082111561284057600080fd5b908301906040828603121561285457600080fd5b60405160408101818110838211171561286f5761286f612727565b60405282358281111561288157600080fd5b61288d87828601612789565b8252506020830135828111156128a257600080fd5b6128ae87828601612789565b60208301525095945050505050565b6000602082840312156128cf57600080fd5b813567ffffffffffffffff8111156128e657600080fd5b61196284828501612789565b60006020828403121561290457600080fd5b5035919050565b6000815160c0845261292060c085018261263d565b905060208301518482036020860152612939828261263d565b91505060408301518482036040860152612953828261263d565b915050606083015160608501526080830151608085015260a083015160a08501528091505092915050565b6020815260006120e8602083018461290b565b600080600080606085870312156129a757600080fd5b84356129b2816125e9565b935060208501356129c2816125e9565b9250604085013567ffffffffffffffff808211156129df57600080fd5b818701915087601f8301126129f357600080fd5b813581811115612a0257600080fd5b886020828501011115612a1457600080fd5b95989497505060200194505050565b600060c08284031215612a3557600080fd5b612a3d61273d565b9050813567ffffffffffffffff80821115612a5757600080fd5b612a6385838601612789565b83526020840135915080821115612a7957600080fd5b612a8585838601612789565b60208401526040840135915080821115612a9e57600080fd5b50612aab84828501612789565b604083015250606082013560608201526080820135608082015260a082013560a082015292915050565b600060208284031215612ae757600080fd5b813567ffffffffffffffff80821115612aff57600080fd5b9083019060a08286031215612b1357600080fd5b612b1b612766565b612b2483612601565b8152612b3260208401612601565b6020820152604083013582811115612b4957600080fd5b612b5587828601612a23565b604083015250606083013582811115612b6d57600080fd5b612b7987828601612789565b606083015250608083013582811115612b9157600080fd5b612b9d87828601612789565b60808301525095945050505050565b60008060208385031215612bbf57600080fd5b823567ffffffffffffffff80821115612bd757600080fd5b818501915085601f830112612beb57600080fd5b813581811115612bfa57600080fd5b8660208260051b8501011115612c0f57600080fd5b60209290920196919550909350505050565b6020808252602b908201527f426173654163636573733a2063616c6c657220646f6573206e6f74206861766560408201526a2061646d696e20726f6c6560a81b606082015260800190565b600181811c90821680612c8057607f821691505b602082108103612ca057634e487b7160e01b600052602260045260246000fd5b50919050565b6020808252602c908201527f426173654163636573733a2063616c6c657220646f6573206e6f74206861766560408201526b207369676e657220726f6c6560a01b606082015260800190565b6000808335601e19843603018112612d0957600080fd5b83018035915067ffffffffffffffff821115612d2457600080fd5b602001915036819003821315612d3957600080fd5b9250929050565b60208152815160208201526020820151604082015260006040830151606080840152611962608084018261263d565b600060018201612d8f57634e487b7160e01b600052601160045260246000fd5b5060010190565b602081526000825160606020840152612db2608084018261290b565b90506020840151601f1980858403016040860152612dd0838361263d565b9250604086015191508085840301606086015250612dee828261263d565b95945050505050565b60008060408385031215612e0a57600080fd5b8251612e15816125e9565b6020939093015192949293505050565b60208082526022908201527f436f6d70616e793a2063616c6c6572206973206e6f742074686520666163746f604082015261727960f01b606082015260800190565b600060208284031215612e7957600080fd5b815180151581146120e857600080fd5b600060208284031215612e9b57600080fd5b81516120e8816125e9565b6001600160a01b03841681526040602082018190528101829052818360608301376000818301606090810191909152601f909201601f1916010192915050565b601f821115611fb3576000816000526020600020601f850160051c81016020861015612f0f5750805b601f850160051c820191505b81811015610aba57828155600101612f1b565b815167ffffffffffffffff811115612f4857612f48612727565b612f5c81612f568454612c6c565b84612ee6565b602080601f831160018114612f915760008415612f795750858301515b600019600386901b1c1916600185901b178555610aba565b600085815260208120601f198616915b82811015612fc057888601518255948401946001909101908401612fa1565b5085821015612fde5787850151600019600388901b60f8161c191681555b5050505050600190811b01905550565b60208152600082516040602084015261300a606084018261263d565b90506020840151601f19848303016040850152612dee828261263d565b634e487b7160e01b600052603260045260246000fdfe6373b2650f68a30b6fdd87e3caf4df754a3a8f8ef4b09bbd1bb4ff21f356aa2ce2f4eaae4a9751e85a3e4a7b9587827a877f29914755229b07a7b2da98285f70a49807205ce4d355092ef5a8a18f56e8913cf4a201fbe287825b095693c21775a264697066735822122099d984c792e254a4b54e35b54f82b5964742d6b862589bde8343a4872888cf0564736f6c63430008180033",
  "linkReferences": {},
  "deployedLinkReferences": {}
}