{
  "_format": "hh-sol-artifact-1",
  "contractName": "Company",
  "sourceName": "contracts/company/Company.sol",
  "abi": [
    {
      "inputs": [
        {
          "components": [
            {
              "internalType": "address",
              "name": "companyFactory",
              "type": "address"
            },
            {
              "internalType": "address",
              "name": "companyRegistry",
              "type": "address"
            },
            {
              "internalType": "contract IExperienceRegistry",
              "name": "experienceRegistry",
              "type": "address"
            },
            {
              "internalType": "contract IAssetRegistry",
              "name": "assetRegistry",
              "type": "address"
            },
            {
              "internalType": "contract IAvatarRegistry",
              "name": "avatarRegistry",
              "type": "address"
            }
          ],
          "internalType": "struct CompanyConstructorArgs",
          "name": "args",
          "type": "tuple"
        }
      ],
      "stateMutability": "nonpayable",
      "type": "constructor"
    },
    {
      "inputs": [],
      "name": "AccessControlBadConfirmation",
      "type": "error"
    },
    {
      "inputs": [
        {
          "internalType": "address",
          "name": "account",
          "type": "address"
        },
        {
          "internalType": "bytes32",
          "name": "neededRole",
          "type": "bytes32"
        }
      ],
      "name": "AccessControlUnauthorizedAccount",
      "type": "error"
    },
    {
      "inputs": [],
      "name": "ReentrancyGuardReentrantCall",
      "type": "error"
    },
    {
      "anonymous": false,
      "inputs": [
        {
          "indexed": true,
          "internalType": "address",
          "name": "asset",
          "type": "address"
        },
        {
          "indexed": true,
          "internalType": "address",
          "name": "to",
          "type": "address"
        },
        {
          "indexed": false,
          "internalType": "uint256",
          "name": "amountOrTokenId",
          "type": "uint256"
        }
      ],
      "name": "AssetMinted",
      "type": "event"
    },
    {
      "anonymous": false,
      "inputs": [
        {
          "indexed": true,
          "internalType": "address",
          "name": "asset",
          "type": "address"
        },
        {
          "indexed": true,
          "internalType": "address",
          "name": "holder",
          "type": "address"
        },
        {
          "indexed": false,
          "internalType": "uint256",
          "name": "amountOrTokenId",
          "type": "uint256"
        }
      ],
      "name": "AssetRevoked",
      "type": "event"
    },
    {
      "anonymous": false,
      "inputs": [],
      "name": "CompanyHookRemoved",
      "type": "event"
    },
    {
      "anonymous": false,
      "inputs": [
        {
          "indexed": true,
          "internalType": "address",
          "name": "hook",
          "type": "address"
        }
      ],
      "name": "CompanyHookSet",
      "type": "event"
    },
    {
      "anonymous": false,
      "inputs": [
        {
          "indexed": true,
          "internalType": "address",
          "name": "oldVersion",
          "type": "address"
        },
        {
          "indexed": true,
          "internalType": "address",
          "name": "nextVersion",
          "type": "address"
        }
      ],
      "name": "CompanyUpgraded",
      "type": "event"
    },
    {
      "anonymous": false,
      "inputs": [
        {
          "indexed": true,
          "internalType": "address",
          "name": "experience",
          "type": "address"
        },
        {
          "indexed": false,
          "internalType": "uint256",
          "name": "portalId",
          "type": "uint256"
        }
      ],
      "name": "ExperienceAdded",
      "type": "event"
    },
    {
      "anonymous": false,
      "inputs": [
        {
          "indexed": true,
          "internalType": "bytes32",
          "name": "role",
          "type": "bytes32"
        },
        {
          "indexed": true,
          "internalType": "bytes32",
          "name": "previousAdminRole",
          "type": "bytes32"
        },
        {
          "indexed": true,
          "internalType": "bytes32",
          "name": "newAdminRole",
          "type": "bytes32"
        }
      ],
      "name": "RoleAdminChanged",
      "type": "event"
    },
    {
      "anonymous": false,
      "inputs": [
        {
          "indexed": true,
          "internalType": "bytes32",
          "name": "role",
          "type": "bytes32"
        },
        {
          "indexed": true,
          "internalType": "address",
          "name": "account",
          "type": "address"
        },
        {
          "indexed": true,
          "internalType": "address",
          "name": "sender",
          "type": "address"
        }
      ],
      "name": "RoleGranted",
      "type": "event"
    },
    {
      "anonymous": false,
      "inputs": [
        {
          "indexed": true,
          "internalType": "bytes32",
          "name": "role",
          "type": "bytes32"
        },
        {
          "indexed": true,
          "internalType": "address",
          "name": "account",
          "type": "address"
        },
        {
          "indexed": true,
          "internalType": "address",
          "name": "sender",
          "type": "address"
        }
      ],
      "name": "RoleRevoked",
      "type": "event"
    },
    {
      "anonymous": false,
      "inputs": [
        {
          "indexed": true,
          "internalType": "address",
          "name": "signer",
          "type": "address"
        }
      ],
      "name": "SignerAdded",
      "type": "event"
    },
    {
      "anonymous": false,
      "inputs": [
        {
          "indexed": true,
          "internalType": "address",
          "name": "signer",
          "type": "address"
        }
      ],
      "name": "SignerRemoved",
      "type": "event"
    },
    {
      "inputs": [],
      "name": "DEFAULT_ADMIN_ROLE",
      "outputs": [
        {
          "internalType": "bytes32",
          "name": "",
          "type": "bytes32"
        }
      ],
      "stateMutability": "view",
      "type": "function"
    },
    {
      "inputs": [],
      "name": "SIGNER_ROLE",
      "outputs": [
        {
          "internalType": "bytes32",
          "name": "",
          "type": "bytes32"
        }
      ],
      "stateMutability": "view",
      "type": "function"
    },
    {
      "inputs": [
        {
          "components": [
            {
              "internalType": "string",
              "name": "name",
              "type": "string"
            },
            {
              "internalType": "bytes",
              "name": "initData",
              "type": "bytes"
            }
          ],
          "internalType": "struct AddExperienceArgs",
          "name": "args",
          "type": "tuple"
        }
      ],
      "name": "addExperience",
      "outputs": [],
      "stateMutability": "nonpayable",
      "type": "function"
    },
    {
      "inputs": [
        {
          "internalType": "address",
          "name": "signer",
          "type": "address"
        }
      ],
      "name": "addSigner",
      "outputs": [],
      "stateMutability": "nonpayable",
      "type": "function"
    },
    {
      "inputs": [],
      "name": "assetRegistry",
      "outputs": [
        {
          "internalType": "contract IAssetRegistry",
          "name": "",
          "type": "address"
        }
      ],
      "stateMutability": "view",
      "type": "function"
    },
    {
      "inputs": [],
      "name": "avatarRegistry",
      "outputs": [
        {
          "internalType": "contract IAvatarRegistry",
          "name": "",
          "type": "address"
        }
      ],
      "stateMutability": "view",
      "type": "function"
    },
    {
      "inputs": [
        {
          "internalType": "address",
          "name": "asset",
          "type": "address"
        },
        {
          "internalType": "address",
          "name": "to",
          "type": "address"
        },
        {
          "internalType": "uint256",
          "name": "",
          "type": "uint256"
        }
      ],
      "name": "canMint",
      "outputs": [
        {
          "internalType": "bool",
          "name": "",
          "type": "bool"
        }
      ],
      "stateMutability": "view",
      "type": "function"
    },
    {
      "inputs": [],
      "name": "companyFactory",
      "outputs": [
        {
          "internalType": "address",
          "name": "",
          "type": "address"
        }
      ],
      "stateMutability": "view",
      "type": "function"
    },
    {
      "inputs": [],
      "name": "companyRegistry",
      "outputs": [
        {
          "internalType": "contract ICompanyRegistry",
          "name": "",
          "type": "address"
        }
      ],
      "stateMutability": "view",
      "type": "function"
    },
    {
      "inputs": [],
      "name": "experienceRegistry",
      "outputs": [
        {
          "internalType": "contract IExperienceRegistry",
          "name": "",
          "type": "address"
        }
      ],
      "stateMutability": "view",
      "type": "function"
    },
    {
      "inputs": [
        {
          "internalType": "bytes32",
          "name": "role",
          "type": "bytes32"
        }
      ],
      "name": "getRoleAdmin",
      "outputs": [
        {
          "internalType": "bytes32",
          "name": "",
          "type": "bytes32"
        }
      ],
      "stateMutability": "view",
      "type": "function"
    },
    {
      "inputs": [
        {
          "internalType": "bytes32",
          "name": "role",
          "type": "bytes32"
        },
        {
          "internalType": "address",
          "name": "account",
          "type": "address"
        }
      ],
      "name": "grantRole",
      "outputs": [],
      "stateMutability": "nonpayable",
      "type": "function"
    },
    {
      "inputs": [
        {
          "internalType": "bytes32",
          "name": "role",
          "type": "bytes32"
        },
        {
          "internalType": "address",
          "name": "account",
          "type": "address"
        }
      ],
      "name": "hasRole",
      "outputs": [
        {
          "internalType": "bool",
          "name": "",
          "type": "bool"
        }
      ],
      "stateMutability": "view",
      "type": "function"
    },
    {
      "inputs": [],
      "name": "hook",
      "outputs": [
        {
          "internalType": "contract ICompanyHook",
          "name": "",
          "type": "address"
        }
      ],
      "stateMutability": "view",
      "type": "function"
    },
    {
      "inputs": [
        {
          "components": [
            {
              "internalType": "address",
              "name": "owner",
              "type": "address"
            },
            {
              "internalType": "address",
              "name": "world",
              "type": "address"
            },
            {
              "components": [
                {
                  "internalType": "string",
                  "name": "x",
                  "type": "string"
                },
                {
                  "internalType": "string",
                  "name": "y",
                  "type": "string"
                },
                {
                  "internalType": "string",
                  "name": "z",
                  "type": "string"
                },
                {
                  "internalType": "uint256",
                  "name": "t",
                  "type": "uint256"
                },
                {
                  "internalType": "uint256",
                  "name": "p",
                  "type": "uint256"
                },
                {
                  "internalType": "uint256",
                  "name": "p_sub",
                  "type": "uint256"
                }
              ],
              "internalType": "struct VectorAddress",
              "name": "vector",
              "type": "tuple"
            },
            {
              "internalType": "bytes",
              "name": "initData",
              "type": "bytes"
            },
            {
              "internalType": "string",
              "name": "name",
              "type": "string"
            }
          ],
          "internalType": "struct CompanyInitArgs",
          "name": "request",
          "type": "tuple"
        }
      ],
      "name": "init",
      "outputs": [],
      "stateMutability": "nonpayable",
      "type": "function"
    },
    {
      "inputs": [
        {
          "internalType": "address",
          "name": "signer",
          "type": "address"
        }
      ],
      "name": "isSigner",
      "outputs": [
        {
          "internalType": "bool",
          "name": "",
          "type": "bool"
        }
      ],
      "stateMutability": "view",
      "type": "function"
    },
    {
      "inputs": [
        {
          "internalType": "address",
          "name": "asset",
          "type": "address"
        },
        {
          "internalType": "address",
          "name": "to",
          "type": "address"
        },
        {
          "internalType": "uint256",
          "name": "amount",
          "type": "uint256"
        }
      ],
      "name": "mint",
      "outputs": [],
      "stateMutability": "nonpayable",
      "type": "function"
    },
    {
      "inputs": [],
      "name": "name",
      "outputs": [
        {
          "internalType": "string",
          "name": "",
          "type": "string"
        }
      ],
      "stateMutability": "view",
      "type": "function"
    },
    {
      "inputs": [],
      "name": "owner",
      "outputs": [
        {
          "internalType": "address",
          "name": "",
          "type": "address"
        }
      ],
      "stateMutability": "view",
      "type": "function"
    },
    {
      "inputs": [],
      "name": "removeHook",
      "outputs": [],
      "stateMutability": "nonpayable",
      "type": "function"
    },
    {
      "inputs": [
        {
          "internalType": "address",
          "name": "signer",
          "type": "address"
        }
      ],
      "name": "removeSigner",
      "outputs": [],
      "stateMutability": "nonpayable",
      "type": "function"
    },
    {
      "inputs": [
        {
          "internalType": "bytes32",
          "name": "role",
          "type": "bytes32"
        },
        {
          "internalType": "address",
          "name": "callerConfirmation",
          "type": "address"
        }
      ],
      "name": "renounceRole",
      "outputs": [],
      "stateMutability": "nonpayable",
      "type": "function"
    },
    {
      "inputs": [
        {
          "internalType": "address",
          "name": "asset",
          "type": "address"
        },
        {
          "internalType": "address",
          "name": "holder",
          "type": "address"
        },
        {
          "internalType": "uint256",
          "name": "amountOrTokenId",
          "type": "uint256"
        }
      ],
      "name": "revoke",
      "outputs": [],
      "stateMutability": "nonpayable",
      "type": "function"
    },
    {
      "inputs": [
        {
          "internalType": "bytes32",
          "name": "role",
          "type": "bytes32"
        },
        {
          "internalType": "address",
          "name": "account",
          "type": "address"
        }
      ],
      "name": "revokeRole",
      "outputs": [],
      "stateMutability": "nonpayable",
      "type": "function"
    },
    {
      "inputs": [
        {
          "internalType": "contract ICompanyHook",
          "name": "_hook",
          "type": "address"
        }
      ],
      "name": "setHook",
      "outputs": [],
      "stateMutability": "nonpayable",
      "type": "function"
    },
    {
      "inputs": [
        {
          "internalType": "bytes4",
          "name": "interfaceId",
          "type": "bytes4"
        }
      ],
      "name": "supportsInterface",
      "outputs": [
        {
          "internalType": "bool",
          "name": "",
          "type": "bool"
        }
      ],
      "stateMutability": "view",
      "type": "function"
    },
    {
      "inputs": [
        {
          "internalType": "bytes",
          "name": "initData",
          "type": "bytes"
        }
      ],
      "name": "upgrade",
      "outputs": [],
      "stateMutability": "nonpayable",
      "type": "function"
    },
    {
      "inputs": [
        {
          "internalType": "address",
          "name": "nextVersion",
          "type": "address"
        }
      ],
      "name": "upgradeComplete",
      "outputs": [],
      "stateMutability": "nonpayable",
      "type": "function"
    },
    {
      "inputs": [],
      "name": "upgraded",
      "outputs": [
        {
          "internalType": "bool",
          "name": "",
          "type": "bool"
        }
      ],
      "stateMutability": "view",
      "type": "function"
    },
    {
      "inputs": [],
      "name": "vectorAddress",
      "outputs": [
        {
          "components": [
            {
              "internalType": "string",
              "name": "x",
              "type": "string"
            },
            {
              "internalType": "string",
              "name": "y",
              "type": "string"
            },
            {
              "internalType": "string",
              "name": "z",
              "type": "string"
            },
            {
              "internalType": "uint256",
              "name": "t",
              "type": "uint256"
            },
            {
              "internalType": "uint256",
              "name": "p",
              "type": "uint256"
            },
            {
              "internalType": "uint256",
              "name": "p_sub",
              "type": "uint256"
            }
          ],
          "internalType": "struct VectorAddress",
          "name": "",
          "type": "tuple"
        }
      ],
      "stateMutability": "view",
      "type": "function"
    },
    {
      "inputs": [
        {
          "internalType": "uint256",
          "name": "amount",
          "type": "uint256"
        }
      ],
      "name": "withdraw",
      "outputs": [],
      "stateMutability": "nonpayable",
      "type": "function"
    },
    {
      "inputs": [],
      "name": "world",
      "outputs": [
        {
          "internalType": "address",
          "name": "",
          "type": "address"
        }
      ],
      "stateMutability": "view",
      "type": "function"
    },
    {
      "stateMutability": "payable",
      "type": "receive"
    }
  ],
  "bytecode": "0x6101006040523480156200001257600080fd5b5060405162002b7b38038062002b7b8339810160408190526200003591620002ca565b600160005580516001600160a01b0316620000a55760405162461bcd60e51b815260206004820152602560248201527f436f6d70616e793a20636f6d70616e79466163746f72792063616e6e6f742062604482015264065203078360dc1b60648201526084015b60405180910390fd5b60208101516001600160a01b0316620001105760405162461bcd60e51b815260206004820152602660248201527f436f6d70616e793a20636f6d70616e7952656769737472792063616e6e6f742060448201526506265203078360d41b60648201526084016200009c565b60408101516001600160a01b03166200017e5760405162461bcd60e51b815260206004820152602960248201527f436f6d70616e793a20657870657269656e636552656769737472792063616e6e60448201526806f74206265203078360bc1b60648201526084016200009c565b60608101516001600160a01b0316620001e65760405162461bcd60e51b8152602060048201526024808201527f436f6d70616e793a20617373657452656769737472792063616e6e6f742062656044820152630203078360e41b60648201526084016200009c565b60808101516001600160a01b0316620002505760405162461bcd60e51b815260206004820152602560248201527f436f6d70616e793a2061766174617252656769737472792063616e6e6f742062604482015264065203078360dc1b60648201526084016200009c565b80516001600160a01b0390811660809081526020830151821660a0526040830151821660c0526060830151821660e05290910151600280546001600160a01b0319169190921617905562000375565b6001600160a01b0381168114620002b557600080fd5b50565b8051620002c5816200029f565b919050565b600060a08284031215620002dd57600080fd5b60405160a081016001600160401b03811182821017156200030e57634e487b7160e01b600052604160045260246000fd5b60405282516200031e816200029f565b8152602083015162000330816200029f565b60208201526200034360408401620002b8565b60408201526200035660608401620002b8565b60608201526200036960808401620002b8565b60808201529392505050565b60805160a05160c05160e05161279b620003e06000396000818161050001526115190152600081816104ac0152610a6e01526000818161058c01528181610bb201528181610c1f0152610c9e015260008181610620015281816111bc015261123b015261279b6000f3fe6080604052600436106101e75760003560e01c80637df73e2711610102578063c28de2cd11610095578063d547741f11610064578063d547741f146105ee578063dc1c44be1461060e578063e3d7ad7314610642578063eb12d61e1461066257600080fd5b8063c28de2cd14610559578063c51aba2b1461057a578063c6c3bbe6146105ae578063cd806c8b146105ce57600080fd5b806391d14854116100d157806391d14854146104ce578063979d7e86146104ee578063a1ebf35d14610522578063a217fddf1461054457600080fd5b80637df73e271461043a5780637f5a7c7b1461045a5780638da5cb5b1461047a5780638f09a6be1461049a57600080fd5b80632f2ff15d1161017a578063378f17ff11610149578063378f17ff146103c55780633dfd3873146103da5780635466ddd5146103fa578063624a7dc71461041a57600080fd5b80632f2ff15d1461032b5780632fcbab9a1461034b57806330b67baa1461036d57806336568abe146103a557600080fd5b8063248a9ca3116101b6578063248a9ca31461028c57806325394645146102cb5780632663d1f7146102eb5780632e1a7d4d1461030b57600080fd5b806301ffc9a7146101f357806306fdde03146102285780630e316ab71461024a578063243546a61461026c57600080fd5b366101ee57005b600080fd5b3480156101ff57600080fd5b5061021361020e366004611f6b565b610682565b60405190151581526020015b60405180910390f35b34801561023457600080fd5b5061023d6106b9565b60405161021f9190611fdb565b34801561025657600080fd5b5061026a610265366004612013565b610747565b005b34801561027857600080fd5b5061026a61028736600461211f565b6107fe565b34801561029857600080fd5b506102bd6102a73660046121c6565b6000908152600160208190526040909120015490565b60405190815260200161021f565b3480156102d757600080fd5b5061026a6102e63660046121df565b610b53565b3480156102f757600080fd5b5061026a610306366004612013565b610c1d565b34801561031757600080fd5b5061026a6103263660046121c6565b610e00565b34801561033757600080fd5b5061026a61034636600461221c565b610e9a565b34801561035757600080fd5b50610360610ec6565b60405161021f91906122bf565b34801561037957600080fd5b5060045461038d906001600160a01b031681565b6040516001600160a01b03909116815260200161021f565b3480156103b157600080fd5b5061026a6103c036600461221c565b6110e5565b3480156103d157600080fd5b5061026a611118565b3480156103e657600080fd5b5061026a6103f5366004612013565b611136565b34801561040657600080fd5b5061026a610415366004612384565b6111ba565b34801561042657600080fd5b5061021361043536600461245b565b6114dd565b34801561044657600080fd5b50610213610455366004612013565b6117df565b34801561046657600080fd5b5060055461038d906001600160a01b031681565b34801561048657600080fd5b5060035461038d906001600160a01b031681565b3480156104a657600080fd5b5061038d7f000000000000000000000000000000000000000000000000000000000000000081565b3480156104da57600080fd5b506102136104e936600461221c565b6117f5565b3480156104fa57600080fd5b5061038d7f000000000000000000000000000000000000000000000000000000000000000081565b34801561052e57600080fd5b506102bd60008051602061274683398151915281565b34801561055057600080fd5b506102bd600081565b34801561056557600080fd5b5060025461021390600160a01b900460ff1681565b34801561058657600080fd5b5061038d7f000000000000000000000000000000000000000000000000000000000000000081565b3480156105ba57600080fd5b5061026a6105c936600461245b565b611820565b3480156105da57600080fd5b5061026a6105e936600461245b565b611b36565b3480156105fa57600080fd5b5061026a61060936600461221c565b611d16565b34801561061a57600080fd5b5061038d7f000000000000000000000000000000000000000000000000000000000000000081565b34801561064e57600080fd5b5060025461038d906001600160a01b031681565b34801561066e57600080fd5b5061026a61067d366004612013565b611d3c565b60006001600160e01b03198216637965db0b60e01b14806106b357506301ffc9a760e01b6001600160e01b03198316145b92915050565b600c80546106c69061249c565b80601f01602080910402602001604051908101604052809291908181526020018280546106f29061249c565b801561073f5780601f106107145761010080835404028352916020019161073f565b820191906000526020600020905b81548152906001019060200180831161072257829003601f168201915b505050505081565b600061075281611e18565b6001600160a01b0382166107ad5760405162461bcd60e51b815260206004820152601d60248201527f436f6d70616e793a207369676e65722063616e6e6f742062652030783000000060448201526064015b60405180910390fd5b6107c560008051602061274683398151915283611e22565b506040516001600160a01b038316907f3525e22824a8a7df2c9a6029941c824cf95b6447f1e13d5128fd3826d35afe8b90600090a25050565b60008051602061274683398151915261081681611e18565b600254600160a01b900460ff16156108405760405162461bcd60e51b81526004016107a4906124d6565b610848611e97565b600d6000815461085790612519565b9190508190555060006040518060c001604052806006600001805461087b9061249c565b80601f01602080910402602001604051908101604052809291908181526020018280546108a79061249c565b80156108f45780601f106108c9576101008083540402835291602001916108f4565b820191906000526020600020905b8154815290600101906020018083116108d757829003601f168201915b505050505081526020016006600101805461090e9061249c565b80601f016020809104026020016040519081016040528092919081815260200182805461093a9061249c565b80156109875780601f1061095c57610100808354040283529160200191610987565b820191906000526020600020905b81548152906001019060200180831161096a57829003601f168201915b50505050508152602001600660020180546109a19061249c565b80601f01602080910402602001604051908101604052809291908181526020018280546109cd9061249c565b8015610a1a5780601f106109ef57610100808354040283529160200191610a1a565b820191906000526020600020905b8154815290600101906020018083116109fd57829003601f168201915b5050505050815260200160066003015481526020016006600401548152602001600d5481525090506000604051806060016040528083815260200185602001518152602001856000015181525090506000807f00000000000000000000000000000000000000000000000000000000000000006001600160a01b0316631305f017846040518263ffffffff1660e01b8152600401610ab89190612540565b60408051808303816000875af1158015610ad6573d6000803e3d6000fd5b505050506040513d601f19601f82011682018060405250810190610afa91906125a1565b91509150816001600160a01b03167f564792a0259ee41a56519990d80509a8057848327265f2075bcaac108651eab982604051610b3991815260200190565b60405180910390a250505050610b4f6001600055565b5050565b6000610b5e81611e18565b600254600160a01b900460ff1615610b885760405162461bcd60e51b81526004016107a4906124d6565b6002805460ff60a01b1916600160a01b17905560405163d449cf2560e01b81526001600160a01b037f0000000000000000000000000000000000000000000000000000000000000000169063d449cf2590610be7908590600401611fdb565b600060405180830381600087803b158015610c0157600080fd5b505af1158015610c15573d6000803e3d6000fd5b505050505050565b7f00000000000000000000000000000000000000000000000000000000000000006001600160a01b0316610c935760405162461bcd60e51b815260206004820152601960248201527f436f6d70616e793a207265676973747279206e6f74207365740000000000000060448201526064016107a4565b336001600160a01b037f00000000000000000000000000000000000000000000000000000000000000001614610d175760405162461bcd60e51b815260206004820152602360248201527f436f6d70616e793a2063616c6c6572206973206e6f742074686520726567697360448201526274727960e81b60648201526084016107a4565b610d1f611e97565b478015610d5e576040516001600160a01b0383169082156108fc029083906000818181858888f19350505050158015610d5c573d6000803e3d6000fd5b505b600d5460405163312c4a9f60e11b815260048101919091526001600160a01b03831690636258953e90602401600060405180830381600087803b158015610da457600080fd5b505af1158015610db8573d6000803e3d6000fd5b50506040516001600160a01b03851692503091507f62e097eae9ab3bdbcbf8876a75515aa178198bfb2b0e9a90a7308bceb2efa6e690600090a350610dfd6001600055565b50565b6000610e0b81611e18565b47821115610e5b5760405162461bcd60e51b815260206004820152601d60248201527f436f6d70616e793a20696e73756666696369656e742062616c616e636500000060448201526064016107a4565b6003546040516001600160a01b039091169083156108fc029084906000818181858888f19350505050158015610e95573d6000803e3d6000fd5b505050565b60008281526001602081905260409091200154610eb681611e18565b610ec08383611ec1565b50505050565b610eff6040518060c001604052806060815260200160608152602001606081526020016000815260200160008152602001600081525090565b60066040518060c0016040529081600082018054610f1c9061249c565b80601f0160208091040260200160405190810160405280929190818152602001828054610f489061249c565b8015610f955780601f10610f6a57610100808354040283529160200191610f95565b820191906000526020600020905b815481529060010190602001808311610f7857829003601f168201915b50505050508152602001600182018054610fae9061249c565b80601f0160208091040260200160405190810160405280929190818152602001828054610fda9061249c565b80156110275780601f10610ffc57610100808354040283529160200191611027565b820191906000526020600020905b81548152906001019060200180831161100a57829003601f168201915b505050505081526020016002820180546110409061249c565b80601f016020809104026020016040519081016040528092919081815260200182805461106c9061249c565b80156110b95780601f1061108e576101008083540402835291602001916110b9565b820191906000526020600020905b81548152906001019060200180831161109c57829003601f168201915b505050505081526020016003820154815260200160048201548152602001600582015481525050905090565b6001600160a01b038116331461110e5760405163334bd91960e11b815260040160405180910390fd5b610e958282611e22565b600061112381611e18565b50600580546001600160a01b0319169055565b600061114181611e18565b6001600160a01b0382166111975760405162461bcd60e51b815260206004820152601b60248201527f436f6d70616e793a20686f6f6b2063616e6e6f7420626520307830000000000060448201526064016107a4565b50600580546001600160a01b0319166001600160a01b0392909216919091179055565b7f00000000000000000000000000000000000000000000000000000000000000006001600160a01b03166112305760405162461bcd60e51b815260206004820152601860248201527f436f6d70616e793a20666163746f7279206e6f7420736574000000000000000060448201526064016107a4565b336001600160a01b037f000000000000000000000000000000000000000000000000000000000000000016146112b35760405162461bcd60e51b815260206004820152602260248201527f436f6d70616e793a2063616c6c6572206973206e6f742074686520666163746f604482015261727960f01b60648201526084016107a4565b6003546001600160a01b03161561130c5760405162461bcd60e51b815260206004820152601c60248201527f436f6d70616e793a20616c726561647920696e697469616c697a65640000000060448201526064016107a4565b80516001600160a01b03166113635760405162461bcd60e51b815260206004820152601c60248201527f436f6d70616e793a206f776e65722063616e6e6f74206265203078300000000060448201526064016107a4565b6000816080015151116113b85760405162461bcd60e51b815260206004820152601d60248201527f436f6d70616e793a206e616d652063616e6e6f7420626520656d70747900000060448201526064016107a4565b60208101516001600160a01b03166114125760405162461bcd60e51b815260206004820152601c60248201527f436f6d70616e793a20776f726c642063616e6e6f74206265203078300000000060448201526064016107a4565b8051600380546001600160a01b039283166001600160a01b03199182161790915560208301516004805491909316911617905560408101518051600690819061145b9082612617565b50602082015160018201906114709082612617565b50604082015160028201906114859082612617565b5060608201516003820155608080830151600483015560a090920151600590910155810151600c906114b79082612617565b50600354610b4f90600080516020612746833981519152906001600160a01b0316611ec1565b600254600090600160a01b900460ff16156114fa575060006117d8565b6040516315bd8ac360e31b81526001600160a01b0385811660048301527f0000000000000000000000000000000000000000000000000000000000000000169063adec561890602401602060405180830381865afa158015611560573d6000803e3d6000fd5b505050506040513d601f19601f8201168201806040525081019061158491906126d7565b611590575060006117d8565b306001600160a01b0316846001600160a01b0316631d1438486040518163ffffffff1660e01b8152600401602060405180830381865afa1580156115d8573d6000803e3d6000fd5b505050506040513d601f19601f820116820180604052508101906115fc91906126f9565b6001600160a01b031614611612575060006117d8565b600254604051632b0fe8e760e21b81526001600160a01b0385811660048301529091169063ac3fa39c90602401602060405180830381865afa15801561165c573d6000803e3d6000fd5b505050506040513d601f19601f8201168201806040525081019061168091906126d7565b61168c575060016117d8565b6000836001600160a01b031663516f279e6040518163ffffffff1660e01b8152600401602060405180830381865afa1580156116cc573d6000803e3d6000fd5b505050506040513d601f19601f820116820180604052508101906116f091906126f9565b90506001600160a01b03811661175e5760405162461bcd60e51b815260206004820152602d60248201527f436f6d70616e793a20617661746172206c6f636174696f6e206973206e6f742060448201526c616e20657870657269656e636560981b60648201526084016107a4565b306001600160a01b0316816001600160a01b0316636904c94d6040518163ffffffff1660e01b8152600401602060405180830381865afa1580156117a6573d6000803e3d6000fd5b505050506040513d601f19601f820116820180604052508101906117ca91906126f9565b6001600160a01b0316149150505b9392505050565b60006106b3600080516020612746833981519152835b60009182526001602090815260408084206001600160a01b0393909316845291905290205460ff1690565b60008051602061274683398151915261183881611e18565b600254600160a01b900460ff16156118625760405162461bcd60e51b81526004016107a4906124d6565b61186a611e97565b6118758484846114dd565b6118c15760405162461bcd60e51b815260206004820152601a60248201527f436f6d70616e793a2063616e6e6f74206d696e7420617373657400000000000060448201526064016107a4565b6000846001600160a01b0316633fe3347a6040518163ffffffff1660e01b8152600401602060405180830381865afa158015611901573d6000803e3d6000fd5b505050506040513d601f19601f820116820180604052508101906119259190612716565b60028111156119365761193661272f565b9050600181600281111561194c5761194c61272f565b03611a05576040516340c10f1960e01b81526001600160a01b038581166004830152602482018590528616906340c10f1990604401600060405180830381600087803b15801561199b57600080fd5b505af11580156119af573d6000803e3d6000fd5b50505050836001600160a01b0316856001600160a01b03167f9f8f31349c47dec18bab6fd70c3f360209248439f904d89f5bd13bbc42b06807856040516119f891815260200190565b60405180910390a3611b2b565b6002816002811115611a1957611a1961272f565b03611ae3576040516335313c2160e11b81526001600160a01b03858116600483015260009190871690636a627842906024016020604051808303816000875af1158015611a6a573d6000803e3d6000fd5b505050506040513d601f19601f82011682018060405250810190611a8e9190612716565b9050846001600160a01b0316866001600160a01b03167f9f8f31349c47dec18bab6fd70c3f360209248439f904d89f5bd13bbc42b0680783604051611ad591815260200190565b60405180910390a350611b2b565b60405162461bcd60e51b815260206004820152601f60248201527f436f6d70616e793a20756e737570706f7274656420617373657420747970650060448201526064016107a4565b50610ec06001600055565b600080516020612746833981519152611b4e81611e18565b600254600160a01b900460ff1615611b785760405162461bcd60e51b81526004016107a4906124d6565b611b80611e97565b6000846001600160a01b0316633fe3347a6040518163ffffffff1660e01b8152600401602060405180830381865afa158015611bc0573d6000803e3d6000fd5b505050506040513d601f19601f82011682018060405250810190611be49190612716565b6002811115611bf557611bf561272f565b90506001816002811115611c0b57611c0b61272f565b03611c785760405163eac449d960e01b81526001600160a01b0385811660048301526024820185905286169063eac449d9906044015b600060405180830381600087803b158015611c5b57600080fd5b505af1158015611c6f573d6000803e3d6000fd5b50505050611cbe565b6002816002811115611c8c57611c8c61272f565b03611ae3576040516320c5429b60e01b8152600481018490526001600160a01b038616906320c5429b90602401611c41565b836001600160a01b0316856001600160a01b03167f5561832f82bd612a3ed1e1014b38299755bc4acc641249d9108bd59c1ade68e385604051611d0391815260200190565b60405180910390a350610ec06001600055565b60008281526001602081905260409091200154611d3281611e18565b610ec08383611e22565b6000611d4781611e18565b600254600160a01b900460ff1615611d715760405162461bcd60e51b81526004016107a4906124d6565b6001600160a01b038216611dc75760405162461bcd60e51b815260206004820152601d60248201527f436f6d70616e793a207369676e65722063616e6e6f742062652030783000000060448201526064016107a4565b611ddf60008051602061274683398151915283611ec1565b506040516001600160a01b038316907f47d1c22a25bb3a5d4e481b9b1e6944c2eade3181a0a20b495ed61d35b5323f2490600090a25050565b610dfd8133611f32565b6000611e2e83836117f5565b15611e8f5760008381526001602090815260408083206001600160a01b0386168085529252808320805460ff1916905551339286917ff6391f5c32d9c69d2a47ea670b442974b53935d1edc7fd64eb21e047a839171b9190a45060016106b3565b5060006106b3565b600260005403611eba57604051633ee5aeb560e01b815260040160405180910390fd5b6002600055565b6000611ecd83836117f5565b611e8f5760008381526001602081815260408084206001600160a01b0387168086529252808420805460ff19169093179092559051339286917f2f8788117e7eff1d82e926ec794901d17c78024a50270940304540a733656f0d9190a45060016106b3565b611f3c82826117f5565b610b4f5760405163e2517d3f60e01b81526001600160a01b0382166004820152602481018390526044016107a4565b600060208284031215611f7d57600080fd5b81356001600160e01b0319811681146117d857600080fd5b6000815180845260005b81811015611fbb57602081850181015186830182015201611f9f565b506000602082860101526020601f19601f83011685010191505092915050565b6020815260006117d86020830184611f95565b6001600160a01b0381168114610dfd57600080fd5b803561200e81611fee565b919050565b60006020828403121561202557600080fd5b81356117d881611fee565b634e487b7160e01b600052604160045260246000fd5b60405160c0810167ffffffffffffffff8111828210171561206957612069612030565b60405290565b60405160a0810167ffffffffffffffff8111828210171561206957612069612030565b600082601f8301126120a357600080fd5b813567ffffffffffffffff808211156120be576120be612030565b604051601f8301601f19908116603f011681019082821181831017156120e6576120e6612030565b816040528381528660208588010111156120ff57600080fd5b836020870160208301376000602085830101528094505050505092915050565b60006020828403121561213157600080fd5b813567ffffffffffffffff8082111561214957600080fd5b908301906040828603121561215d57600080fd5b60405160408101818110838211171561217857612178612030565b60405282358281111561218a57600080fd5b61219687828601612092565b8252506020830135828111156121ab57600080fd5b6121b787828601612092565b60208301525095945050505050565b6000602082840312156121d857600080fd5b5035919050565b6000602082840312156121f157600080fd5b813567ffffffffffffffff81111561220857600080fd5b61221484828501612092565b949350505050565b6000806040838503121561222f57600080fd5b82359150602083013561224181611fee565b809150509250929050565b6000815160c0845261226160c0850182611f95565b90506020830151848203602086015261227a8282611f95565b915050604083015184820360408601526122948282611f95565b915050606083015160608501526080830151608085015260a083015160a08501528091505092915050565b6020815260006117d8602083018461224c565b600060c082840312156122e457600080fd5b6122ec612046565b9050813567ffffffffffffffff8082111561230657600080fd5b61231285838601612092565b8352602084013591508082111561232857600080fd5b61233485838601612092565b6020840152604084013591508082111561234d57600080fd5b5061235a84828501612092565b604083015250606082013560608201526080820135608082015260a082013560a082015292915050565b60006020828403121561239657600080fd5b813567ffffffffffffffff808211156123ae57600080fd5b9083019060a082860312156123c257600080fd5b6123ca61206f565b6123d383612003565b81526123e160208401612003565b60208201526040830135828111156123f857600080fd5b612404878286016122d2565b60408301525060608301358281111561241c57600080fd5b61242887828601612092565b60608301525060808301358281111561244057600080fd5b61244c87828601612092565b60808301525095945050505050565b60008060006060848603121561247057600080fd5b833561247b81611fee565b9250602084013561248b81611fee565b929592945050506040919091013590565b600181811c908216806124b057607f821691505b6020821081036124d057634e487b7160e01b600052602260045260246000fd5b50919050565b60208082526023908201527f436f6d70616e793a20636f6e747261637420686173206265656e20757067726160408201526219195960ea1b606082015260800190565b60006001820161253957634e487b7160e01b600052601160045260246000fd5b5060010190565b60208152600082516060602084015261255c608084018261224c565b90506020840151601f198085840301604086015261257a8383611f95565b92506040860151915080858403016060860152506125988282611f95565b95945050505050565b600080604083850312156125b457600080fd5b82516125bf81611fee565b6020939093015192949293505050565b601f821115610e95576000816000526020600020601f850160051c810160208610156125f85750805b601f850160051c820191505b81811015610c1557828155600101612604565b815167ffffffffffffffff81111561263157612631612030565b6126458161263f845461249c565b846125cf565b602080601f83116001811461267a57600084156126625750858301515b600019600386901b1c1916600185901b178555610c15565b600085815260208120601f198616915b828110156126a95788860151825594840194600190910190840161268a565b50858210156126c75787850151600019600388901b60f8161c191681555b5050505050600190811b01905550565b6000602082840312156126e957600080fd5b815180151581146117d857600080fd5b60006020828403121561270b57600080fd5b81516117d881611fee565b60006020828403121561272857600080fd5b5051919050565b634e487b7160e01b600052602160045260246000fdfee2f4eaae4a9751e85a3e4a7b9587827a877f29914755229b07a7b2da98285f70a26469706673582212200b46f29ee6136c6279ccdcc931ed9f759e22fdf186e8e9697f38a7089847033d64736f6c63430008180033",
  "linkReferences": {},
  "deployedLinkReferences": {}
}