{
  "_format": "hh-sol-artifact-1",
  "contractName": "Company",
  "sourceName": "contracts/company/Company.sol",
  "abi": [
    {
      "inputs": [
        {
          "components": [
            {
              "internalType": "address",
              "name": "companyFactory",
              "type": "address"
            },
            {
              "internalType": "address",
              "name": "companyRegistry",
              "type": "address"
            },
            {
              "internalType": "contract IExperienceRegistry",
              "name": "experienceRegistry",
              "type": "address"
            },
            {
              "internalType": "contract IAssetRegistry",
              "name": "assetRegistry",
              "type": "address"
            },
            {
              "internalType": "contract IAvatarRegistry",
              "name": "avatarRegistry",
              "type": "address"
            }
          ],
          "internalType": "struct CompanyConstructorArgs",
          "name": "args",
          "type": "tuple"
        }
      ],
      "stateMutability": "nonpayable",
      "type": "constructor"
    },
    {
      "inputs": [],
      "name": "ReentrancyGuardReentrantCall",
      "type": "error"
    },
    {
      "anonymous": false,
      "inputs": [
        {
          "indexed": true,
          "internalType": "address",
          "name": "asset",
          "type": "address"
        },
        {
          "indexed": true,
          "internalType": "address",
          "name": "to",
          "type": "address"
        },
        {
          "indexed": false,
          "internalType": "uint256",
          "name": "amountOrTokenId",
          "type": "uint256"
        }
      ],
      "name": "AssetMinted",
      "type": "event"
    },
    {
      "anonymous": false,
      "inputs": [
        {
          "indexed": true,
          "internalType": "address",
          "name": "asset",
          "type": "address"
        },
        {
          "indexed": true,
          "internalType": "address",
          "name": "holder",
          "type": "address"
        },
        {
          "indexed": false,
          "internalType": "uint256",
          "name": "amountOrTokenId",
          "type": "uint256"
        }
      ],
      "name": "AssetRevoked",
      "type": "event"
    },
    {
      "anonymous": false,
      "inputs": [],
      "name": "CompanyHookRemoved",
      "type": "event"
    },
    {
      "anonymous": false,
      "inputs": [
        {
          "indexed": true,
          "internalType": "address",
          "name": "hook",
          "type": "address"
        }
      ],
      "name": "CompanyHookSet",
      "type": "event"
    },
    {
      "anonymous": false,
      "inputs": [
        {
          "indexed": true,
          "internalType": "address",
          "name": "oldVersion",
          "type": "address"
        },
        {
          "indexed": true,
          "internalType": "address",
          "name": "nextVersion",
          "type": "address"
        }
      ],
      "name": "CompanyUpgraded",
      "type": "event"
    },
    {
      "anonymous": false,
      "inputs": [
        {
          "indexed": true,
          "internalType": "address",
          "name": "experience",
          "type": "address"
        },
        {
          "indexed": false,
          "internalType": "uint256",
          "name": "portalId",
          "type": "uint256"
        }
      ],
      "name": "ExperienceAdded",
      "type": "event"
    },
    {
      "anonymous": false,
      "inputs": [
        {
          "indexed": true,
          "internalType": "address",
          "name": "signer",
          "type": "address"
        }
      ],
      "name": "SignerAdded",
      "type": "event"
    },
    {
      "anonymous": false,
      "inputs": [
        {
          "indexed": true,
          "internalType": "address",
          "name": "signer",
          "type": "address"
        }
      ],
      "name": "SignerRemoved",
      "type": "event"
    },
    {
      "inputs": [
        {
          "internalType": "address",
          "name": "asset",
          "type": "address"
        },
        {
          "internalType": "contract IAssetHook",
          "name": "aHook",
          "type": "address"
        }
      ],
      "name": "addAssetHook",
      "outputs": [],
      "stateMutability": "nonpayable",
      "type": "function"
    },
    {
      "inputs": [
        {
          "components": [
            {
              "internalType": "string",
              "name": "name",
              "type": "string"
            },
            {
              "internalType": "bytes",
              "name": "initData",
              "type": "bytes"
            }
          ],
          "internalType": "struct AddExperienceArgs",
          "name": "args",
          "type": "tuple"
        }
      ],
      "name": "addExperience",
      "outputs": [],
      "stateMutability": "nonpayable",
      "type": "function"
    },
    {
      "inputs": [
        {
          "internalType": "address",
          "name": "experience",
          "type": "address"
        },
        {
          "internalType": "address",
          "name": "condition",
          "type": "address"
        }
      ],
      "name": "addExperienceCondition",
      "outputs": [],
      "stateMutability": "nonpayable",
      "type": "function"
    },
    {
      "inputs": [
        {
          "internalType": "address",
          "name": "signer",
          "type": "address"
        }
      ],
      "name": "addSigner",
      "outputs": [],
      "stateMutability": "nonpayable",
      "type": "function"
    },
    {
      "inputs": [],
      "name": "assetRegistry",
      "outputs": [
        {
          "internalType": "contract IAssetRegistry",
          "name": "",
          "type": "address"
        }
      ],
      "stateMutability": "view",
      "type": "function"
    },
    {
      "inputs": [],
      "name": "avatarRegistry",
      "outputs": [
        {
          "internalType": "contract IAvatarRegistry",
          "name": "",
          "type": "address"
        }
      ],
      "stateMutability": "view",
      "type": "function"
    },
    {
      "inputs": [
        {
          "internalType": "address",
          "name": "asset",
          "type": "address"
        },
        {
          "internalType": "address",
          "name": "to",
          "type": "address"
        },
        {
          "internalType": "uint256",
          "name": "",
          "type": "uint256"
        }
      ],
      "name": "canMint",
      "outputs": [
        {
          "internalType": "bool",
          "name": "",
          "type": "bool"
        }
      ],
      "stateMutability": "view",
      "type": "function"
    },
    {
      "inputs": [
        {
          "internalType": "address",
          "name": "experience",
          "type": "address"
        },
        {
          "internalType": "uint256",
          "name": "fee",
          "type": "uint256"
        }
      ],
      "name": "changeExperiencePortalFee",
      "outputs": [],
      "stateMutability": "nonpayable",
      "type": "function"
    },
    {
      "inputs": [],
      "name": "companyFactory",
      "outputs": [
        {
          "internalType": "address",
          "name": "",
          "type": "address"
        }
      ],
      "stateMutability": "view",
      "type": "function"
    },
    {
      "inputs": [],
      "name": "companyRegistry",
      "outputs": [
        {
          "internalType": "contract ICompanyRegistry",
          "name": "",
          "type": "address"
        }
      ],
      "stateMutability": "view",
      "type": "function"
    },
    {
      "inputs": [
        {
          "components": [
            {
              "internalType": "string",
              "name": "name",
              "type": "string"
            },
            {
              "internalType": "bytes",
              "name": "initData",
              "type": "bytes"
            }
          ],
          "internalType": "struct AddExperienceArgs",
          "name": "args",
          "type": "tuple"
        }
      ],
      "name": "encodeExperienceArgs",
      "outputs": [
        {
          "internalType": "bytes",
          "name": "",
          "type": "bytes"
        }
      ],
      "stateMutability": "pure",
      "type": "function"
    },
    {
      "inputs": [],
      "name": "experienceRegistry",
      "outputs": [
        {
          "internalType": "contract IExperienceRegistry",
          "name": "",
          "type": "address"
        }
      ],
      "stateMutability": "view",
      "type": "function"
    },
    {
      "inputs": [
        {
          "components": [
            {
              "internalType": "address",
              "name": "owner",
              "type": "address"
            },
            {
              "internalType": "address",
              "name": "world",
              "type": "address"
            },
            {
              "components": [
                {
                  "internalType": "string",
                  "name": "x",
                  "type": "string"
                },
                {
                  "internalType": "string",
                  "name": "y",
                  "type": "string"
                },
                {
                  "internalType": "string",
                  "name": "z",
                  "type": "string"
                },
                {
                  "internalType": "uint256",
                  "name": "t",
                  "type": "uint256"
                },
                {
                  "internalType": "uint256",
                  "name": "p",
                  "type": "uint256"
                },
                {
                  "internalType": "uint256",
                  "name": "p_sub",
                  "type": "uint256"
                }
              ],
              "internalType": "struct VectorAddress",
              "name": "vector",
              "type": "tuple"
            },
            {
              "internalType": "bytes",
              "name": "initData",
              "type": "bytes"
            },
            {
              "internalType": "string",
              "name": "name",
              "type": "string"
            }
          ],
          "internalType": "struct CompanyInitArgs",
          "name": "request",
          "type": "tuple"
        }
      ],
      "name": "init",
      "outputs": [],
      "stateMutability": "nonpayable",
      "type": "function"
    },
    {
      "inputs": [
        {
          "internalType": "address",
          "name": "signer",
          "type": "address"
        }
      ],
      "name": "isSigner",
      "outputs": [
        {
          "internalType": "bool",
          "name": "",
          "type": "bool"
        }
      ],
      "stateMutability": "view",
      "type": "function"
    },
    {
      "inputs": [
        {
          "internalType": "address",
          "name": "asset",
          "type": "address"
        },
        {
          "internalType": "address",
          "name": "to",
          "type": "address"
        },
        {
          "internalType": "uint256",
          "name": "amount",
          "type": "uint256"
        }
      ],
      "name": "mint",
      "outputs": [],
      "stateMutability": "nonpayable",
      "type": "function"
    },
    {
      "inputs": [],
      "name": "name",
      "outputs": [
        {
          "internalType": "string",
          "name": "",
          "type": "string"
        }
      ],
      "stateMutability": "view",
      "type": "function"
    },
    {
      "inputs": [],
      "name": "owner",
      "outputs": [
        {
          "internalType": "address",
          "name": "",
          "type": "address"
        }
      ],
      "stateMutability": "view",
      "type": "function"
    },
    {
      "inputs": [
        {
          "internalType": "address",
          "name": "asset",
          "type": "address"
        }
      ],
      "name": "removeAssetHook",
      "outputs": [],
      "stateMutability": "nonpayable",
      "type": "function"
    },
    {
      "inputs": [
        {
          "internalType": "address",
          "name": "experience",
          "type": "address"
        }
      ],
      "name": "removeExperienceCondition",
      "outputs": [],
      "stateMutability": "nonpayable",
      "type": "function"
    },
    {
      "inputs": [],
      "name": "removeHook",
      "outputs": [],
      "stateMutability": "nonpayable",
      "type": "function"
    },
    {
      "inputs": [
        {
          "internalType": "address",
          "name": "signer",
          "type": "address"
        }
      ],
      "name": "removeSigner",
      "outputs": [],
      "stateMutability": "nonpayable",
      "type": "function"
    },
    {
      "inputs": [
        {
          "internalType": "address",
          "name": "asset",
          "type": "address"
        },
        {
          "internalType": "address",
          "name": "holder",
          "type": "address"
        },
        {
          "internalType": "uint256",
          "name": "amountOrTokenId",
          "type": "uint256"
        }
      ],
      "name": "revoke",
      "outputs": [],
      "stateMutability": "nonpayable",
      "type": "function"
    },
    {
      "inputs": [
        {
          "internalType": "contract ICompanyHook",
          "name": "_hook",
          "type": "address"
        }
      ],
      "name": "setHook",
      "outputs": [],
      "stateMutability": "nonpayable",
      "type": "function"
    },
    {
      "inputs": [
        {
          "internalType": "bytes",
          "name": "initData",
          "type": "bytes"
        }
      ],
      "name": "upgrade",
      "outputs": [],
      "stateMutability": "nonpayable",
      "type": "function"
    },
    {
      "inputs": [
        {
          "internalType": "address",
          "name": "nextVersion",
          "type": "address"
        }
      ],
      "name": "upgradeComplete",
      "outputs": [],
      "stateMutability": "nonpayable",
      "type": "function"
    },
    {
      "inputs": [],
      "name": "upgraded",
      "outputs": [
        {
          "internalType": "bool",
          "name": "",
          "type": "bool"
        }
      ],
      "stateMutability": "view",
      "type": "function"
    },
    {
      "inputs": [],
      "name": "vectorAddress",
      "outputs": [
        {
          "components": [
            {
              "internalType": "string",
              "name": "x",
              "type": "string"
            },
            {
              "internalType": "string",
              "name": "y",
              "type": "string"
            },
            {
              "internalType": "string",
              "name": "z",
              "type": "string"
            },
            {
              "internalType": "uint256",
              "name": "t",
              "type": "uint256"
            },
            {
              "internalType": "uint256",
              "name": "p",
              "type": "uint256"
            },
            {
              "internalType": "uint256",
              "name": "p_sub",
              "type": "uint256"
            }
          ],
          "internalType": "struct VectorAddress",
          "name": "",
          "type": "tuple"
        }
      ],
      "stateMutability": "view",
      "type": "function"
    },
    {
      "inputs": [],
      "name": "version",
      "outputs": [
        {
          "internalType": "uint256",
          "name": "",
          "type": "uint256"
        }
      ],
      "stateMutability": "view",
      "type": "function"
    },
    {
      "inputs": [
        {
          "internalType": "uint256",
          "name": "amount",
          "type": "uint256"
        }
      ],
      "name": "withdraw",
      "outputs": [],
      "stateMutability": "nonpayable",
      "type": "function"
    },
    {
      "inputs": [],
      "name": "world",
      "outputs": [
        {
          "internalType": "address",
          "name": "",
          "type": "address"
        }
      ],
      "stateMutability": "view",
      "type": "function"
    },
    {
      "stateMutability": "payable",
      "type": "receive"
    }
  ],
  "bytecode": "0x6101206040523480156200001257600080fd5b5060405162003067380380620030678339810160408190526200003591620002ba565b600160005580516001600160a01b0316620000a55760405162461bcd60e51b815260206004820152602560248201527f436f6d70616e793a20636f6d70616e79466163746f72792063616e6e6f742062604482015264065203078360dc1b60648201526084015b60405180910390fd5b60208101516001600160a01b0316620001105760405162461bcd60e51b815260206004820152602660248201527f436f6d70616e793a20636f6d70616e7952656769737472792063616e6e6f742060448201526506265203078360d41b60648201526084016200009c565b60408101516001600160a01b03166200017e5760405162461bcd60e51b815260206004820152602960248201527f436f6d70616e793a20657870657269656e636552656769737472792063616e6e60448201526806f74206265203078360bc1b60648201526084016200009c565b60608101516001600160a01b0316620001e65760405162461bcd60e51b8152602060048201526024808201527f436f6d70616e793a20617373657452656769737472792063616e6e6f742062656044820152630203078360e41b60648201526084016200009c565b60808101516001600160a01b0316620002505760405162461bcd60e51b815260206004820152602560248201527f436f6d70616e793a2061766174617252656769737472792063616e6e6f742062604482015264065203078360dc1b60648201526084016200009c565b80516001600160a01b0390811660809081526020830151821660a0526040830151821660c0526060830151821660e05290910151166101005262000365565b6001600160a01b0381168114620002a557600080fd5b50565b8051620002b5816200028f565b919050565b600060a08284031215620002cd57600080fd5b60405160a081016001600160401b0381118282101715620002fe57634e487b7160e01b600052604160045260246000fd5b60405282516200030e816200028f565b8152602083015162000320816200028f565b60208201526200033360408401620002a8565b60408201526200034660608401620002a8565b60608201526200035960808401620002a8565b60808201529392505050565b60805160a05160c05160e05161010051612c85620003e26000396000818161061c015261198c0152600081816104fb01526118700152600081816104c70152610cdb01526000818161057401528181610e6501528181610e9c0152610f1b0152600081816105e80152818161145001526114cf0152612c856000f3fe6080604052600436106101d15760003560e01c806357433ea6116100f75780639e29186d11610095578063cd806c8b11610064578063cd806c8b146105b6578063dc1c44be146105d6578063e3d7ad731461060a578063eb12d61e1461063e57600080fd5b80639e29186d1461051d578063c28de2cd1461053d578063c51aba2b14610562578063c6c3bbe61461059657600080fd5b80637df73e27116100d15780637df73e27146104655780638da5cb5b146104855780638f09a6be146104b5578063979d7e86146104e957600080fd5b806357433ea6146103f5578063624a7dc7146104155780637d4daec51461044557600080fd5b80632663d1f71161016f578063378f17ff1161013e578063378f17ff1461037d5780633dfd3873146103925780635466ddd5146103b257806354fd4d50146103d257600080fd5b80632663d1f7146102ca5780632e1a7d4d146102ea5780632fcbab9a1461030a57806330b67baa1461032c57600080fd5b80631187b627116101ab5780631187b6271461024a5780631961f05d1461026a578063243546a61461028a57806325394645146102aa57600080fd5b80630346f5f5146101dd57806306fdde03146101ff5780630e316ab71461022a57600080fd5b366101d857005b600080fd5b3480156101e957600080fd5b506101fd6101f8366004612388565b61065e565b005b34801561020b57600080fd5b5061021461070b565b60405161022191906123fa565b60405180910390f35b34801561023657600080fd5b506101fd61024536600461240d565b6107ce565b34801561025657600080fd5b506101fd61026536600461242a565b6108c5565b34801561027657600080fd5b506101fd61028536600461240d565b610966565b34801561029657600080fd5b506101fd6102a5366004612552565b6109fe565b3480156102b657600080fd5b506101fd6102c53660046125f9565b610dc2565b3480156102d657600080fd5b506101fd6102e536600461240d565b610e9a565b3480156102f657600080fd5b506101fd610305366004612636565b610fcb565b34801561031657600080fd5b5061031f6110b2565b60405161022191906126c2565b34801561033857600080fd5b507f6373b2650f68a30b6fdd87e3caf4df754a3a8f8ef4b09bbd1bb4ff21f356aa2d546001600160a01b03165b6040516001600160a01b039091168152602001610221565b34801561038957600080fd5b506101fd611302565b34801561039e57600080fd5b506101fd6103ad36600461240d565b611375565b3480156103be57600080fd5b506101fd6103cd366004612787565b61144e565b3480156103de57600080fd5b506103e7600181565b604051908152602001610221565b34801561040157600080fd5b506101fd61041036600461242a565b6117b8565b34801561042157600080fd5b5061043561043036600461285e565b61182a565b6040519015158152602001610221565b34801561045157600080fd5b50610214610460366004612552565b611b59565b34801561047157600080fd5b5061043561048036600461240d565b611b82565b34801561049157600080fd5b50600080516020612bf08339815191525461010090046001600160a01b0316610365565b3480156104c157600080fd5b506103657f000000000000000000000000000000000000000000000000000000000000000081565b3480156104f557600080fd5b506103657f000000000000000000000000000000000000000000000000000000000000000081565b34801561052957600080fd5b506101fd61053836600461240d565b611ba8565b34801561054957600080fd5b50600080516020612bf08339815191525460ff16610435565b34801561056e57600080fd5b506103657f000000000000000000000000000000000000000000000000000000000000000081565b3480156105a257600080fd5b506101fd6105b136600461285e565b611c29565b3480156105c257600080fd5b506101fd6105d136600461285e565b611f76565b3480156105e257600080fd5b506103657f000000000000000000000000000000000000000000000000000000000000000081565b34801561061657600080fd5b506103657f000000000000000000000000000000000000000000000000000000000000000081565b34801561064a57600080fd5b506101fd61065936600461240d565b612186565b60006106686122af565b905061068381600080516020612c30833981519152336122d3565b6106a85760405162461bcd60e51b815260040161069f9061289f565b60405180910390fd5b6040516383c3426360e01b81526004810183905283906001600160a01b038216906383c34263906024015b600060405180830381600087803b1580156106ed57600080fd5b505af1158015610701573d6000803e3d6000fd5b5050505050505050565b7f6373b2650f68a30b6fdd87e3caf4df754a3a8f8ef4b09bbd1bb4ff21f356aa358054606091600080516020612bf08339815191529161074a906128d6565b80601f0160208091040260200160405190810160405280929190818152602001828054610776906128d6565b80156107c35780601f10610798576101008083540402835291602001916107c3565b820191906000526020600020905b8154815290600101906020018083116107a657829003601f168201915b505050505091505090565b60006107d86122af565b90506107f381600080516020612c30833981519152336122d3565b61080f5760405162461bcd60e51b815260040161069f9061289f565b6001600160a01b0382166108655760405162461bcd60e51b815260206004820152601d60248201527f436f6d70616e793a207369676e65722063616e6e6f7420626520307830000000604482015260640161069f565b600061086f6122af565b905061088c81600080516020612c10833981519152856000612300565b6040516001600160a01b038416907f3525e22824a8a7df2c9a6029941c824cf95b6447f1e13d5128fd3826d35afe8b90600090a2505050565b60006108cf6122af565b90506108ea81600080516020612c30833981519152336122d3565b6109065760405162461bcd60e51b815260040161069f9061289f565b604051630f69c09d60e31b81526001600160a01b038381166004830152841690637b4e04e890602401600060405180830381600087803b15801561094957600080fd5b505af115801561095d573d6000803e3d6000fd5b50505050505050565b60006109706122af565b905061098b81600080516020612c30833981519152336122d3565b6109a75760405162461bcd60e51b815260040161069f9061289f565b816001600160a01b031663378f17ff6040518163ffffffff1660e01b8152600401600060405180830381600087803b1580156109e257600080fd5b505af11580156109f6573d6000803e3d6000fd5b505050505050565b6000610a086122af565b9050610a2381600080516020612c10833981519152336122d3565b610a3f5760405162461bcd60e51b815260040161069f90612910565b600080516020612bf0833981519152805460ff1615610a705760405162461bcd60e51b815260040161069f90612947565b610a78612339565b7f6373b2650f68a30b6fdd87e3caf4df754a3a8f8ef4b09bbd1bb4ff21f356aa368054600080516020612bf08339815191529190600090610ab89061298a565b9190508190555060006040518060c00160405280836003016000018054610ade906128d6565b80601f0160208091040260200160405190810160405280929190818152602001828054610b0a906128d6565b8015610b575780601f10610b2c57610100808354040283529160200191610b57565b820191906000526020600020905b815481529060010190602001808311610b3a57829003601f168201915b50505050508152602001836003016001018054610b73906128d6565b80601f0160208091040260200160405190810160405280929190818152602001828054610b9f906128d6565b8015610bec5780601f10610bc157610100808354040283529160200191610bec565b820191906000526020600020905b815481529060010190602001808311610bcf57829003601f168201915b50505050508152602001836003016002018054610c08906128d6565b80601f0160208091040260200160405190810160405280929190818152602001828054610c34906128d6565b8015610c815780601f10610c5657610100808354040283529160200191610c81565b820191906000526020600020905b815481529060010190602001808311610c6457829003601f168201915b50505050508152602001836003016003015481526020018360030160040154815260200183600a015481525090506000604051806060016040528083815260200187602001518152602001876000015181525090506000807f00000000000000000000000000000000000000000000000000000000000000006001600160a01b0316631305f017846040518263ffffffff1660e01b8152600401610d2591906129b1565b60408051808303816000875af1158015610d43573d6000803e3d6000fd5b505050506040513d601f19601f82011682018060405250810190610d679190612a12565b91509150816001600160a01b03167f564792a0259ee41a56519990d80509a8057848327265f2075bcaac108651eab982604051610da691815260200190565b60405180910390a25050505050610dbd6001600055565b505050565b6000610dcc6122af565b9050610de781600080516020612c30833981519152336122d3565b610e035760405162461bcd60e51b815260040161069f9061289f565b600080516020612bf0833981519152805460ff1615610e345760405162461bcd60e51b815260040161069f90612947565b600080516020612bf0833981519152805460ff1916600117815560405163d449cf2560e01b81526001600160a01b037f0000000000000000000000000000000000000000000000000000000000000000169063d449cf25906106d39087906004016123fa565b7f00000000000000000000000000000000000000000000000000000000000000006001600160a01b0316610f105760405162461bcd60e51b815260206004820152601960248201527f436f6d70616e793a207265676973747279206e6f742073657400000000000000604482015260640161069f565b336001600160a01b037f00000000000000000000000000000000000000000000000000000000000000001614610f945760405162461bcd60e51b815260206004820152602360248201527f436f6d70616e793a2063616c6c6572206973206e6f742074686520726567697360448201526274727960e81b606482015260840161069f565b610f9c612339565b6000610fa66122af565b80546001600160a01b0319166001600160a01b03841617905550600160005550565b50565b6000610fd56122af565b9050610ff081600080516020612c30833981519152336122d3565b61100c5760405162461bcd60e51b815260040161069f9061289f565b4782111561105c5760405162461bcd60e51b815260206004820152601d60248201527f436f6d70616e793a20696e73756666696369656e742062616c616e6365000000604482015260640161069f565b6000600080516020612bf0833981519152805460405191925061010090046001600160a01b0316906108fc8515029085906000818181858888f193505050501580156110ac573d6000803e3d6000fd5b50505050565b6110eb6040518060c001604052806060815260200160608152602001606081526020016000815260200160008152602001600081525090565b6040805160c081019091527f6373b2650f68a30b6fdd87e3caf4df754a3a8f8ef4b09bbd1bb4ff21f356aa2f8054600080516020612bf083398151915292919082908290611138906128d6565b80601f0160208091040260200160405190810160405280929190818152602001828054611164906128d6565b80156111b15780601f10611186576101008083540402835291602001916111b1565b820191906000526020600020905b81548152906001019060200180831161119457829003601f168201915b505050505081526020016001820180546111ca906128d6565b80601f01602080910402602001604051908101604052809291908181526020018280546111f6906128d6565b80156112435780601f1061121857610100808354040283529160200191611243565b820191906000526020600020905b81548152906001019060200180831161122657829003601f168201915b5050505050815260200160028201805461125c906128d6565b80601f0160208091040260200160405190810160405280929190818152602001828054611288906128d6565b80156112d55780601f106112aa576101008083540402835291602001916112d5565b820191906000526020600020905b8154815290600101906020018083116112b857829003601f168201915b50505050508152602001600382015481526020016004820154815260200160058201548152505091505090565b600061130c6122af565b905061132781600080516020612c30833981519152336122d3565b6113435760405162461bcd60e51b815260040161069f9061289f565b507f6373b2650f68a30b6fdd87e3caf4df754a3a8f8ef4b09bbd1bb4ff21f356aa2e80546001600160a01b0319169055565b600061137f6122af565b905061139a81600080516020612c30833981519152336122d3565b6113b65760405162461bcd60e51b815260040161069f9061289f565b6001600160a01b03821661140c5760405162461bcd60e51b815260206004820152601b60248201527f436f6d70616e793a20686f6f6b2063616e6e6f74206265203078300000000000604482015260640161069f565b507f6373b2650f68a30b6fdd87e3caf4df754a3a8f8ef4b09bbd1bb4ff21f356aa2e80546001600160a01b0319166001600160a01b0392909216919091179055565b7f00000000000000000000000000000000000000000000000000000000000000006001600160a01b03166114c45760405162461bcd60e51b815260206004820152601860248201527f436f6d70616e793a20666163746f7279206e6f74207365740000000000000000604482015260640161069f565b336001600160a01b037f000000000000000000000000000000000000000000000000000000000000000016146115475760405162461bcd60e51b815260206004820152602260248201527f436f6d70616e793a2063616c6c6572206973206e6f742074686520666163746f604482015261727960f01b606482015260840161069f565b600080516020612bf0833981519152805461010090046001600160a01b0316156115b35760405162461bcd60e51b815260206004820152601c60248201527f436f6d70616e793a20616c726561647920696e697469616c697a656400000000604482015260640161069f565b81516001600160a01b031661160a5760405162461bcd60e51b815260206004820152601c60248201527f436f6d70616e793a206f776e65722063616e6e6f742062652030783000000000604482015260640161069f565b60008260800151511161165f5760405162461bcd60e51b815260206004820152601d60248201527f436f6d70616e793a206e616d652063616e6e6f7420626520656d707479000000604482015260640161069f565b60208201516001600160a01b03166116b95760405162461bcd60e51b815260206004820152601c60248201527f436f6d70616e793a20776f726c642063616e6e6f742062652030783000000000604482015260640161069f565b81518154610100600160a81b0319166101006001600160a01b039283160217825560208301516001830180546001600160a01b03191691909216179055604082015180516003830190819061170e9082612a88565b50602082015160018201906117239082612a88565b50604082015160028201906117389082612a88565b5060608201516003820155608080830151600483015560a090920151600590910155820151600982019061176c9082612a88565b5060006117776122af565b8351909150611799908290600080516020612c30833981519152906001612300565b8251610dbd908290600080516020612c10833981519152906001612300565b60006117c26122af565b90506117dd81600080516020612c30833981519152336122d3565b6117f95760405162461bcd60e51b815260040161069f9061289f565b6040516337eff0db60e11b81526001600160a01b038381166004830152849190821690636fdfe1b6906024016106d3565b600080516020612bf083398151915280546000919060ff1615611851576000915050611b52565b6040516315bd8ac360e31b81526001600160a01b0386811660048301527f0000000000000000000000000000000000000000000000000000000000000000169063adec561890602401602060405180830381865afa1580156118b7573d6000803e3d6000fd5b505050506040513d601f19601f820116820180604052508101906118db9190612b48565b6118e9576000915050611b52565b306001600160a01b0316856001600160a01b0316631d1438486040518163ffffffff1660e01b8152600401602060405180830381865afa158015611931573d6000803e3d6000fd5b505050506040513d601f19601f820116820180604052508101906119559190612b6a565b6001600160a01b03161461196d576000915050611b52565b604051632b0fe8e760e21b81526001600160a01b0385811660048301527f0000000000000000000000000000000000000000000000000000000000000000169063ac3fa39c90602401602060405180830381865afa1580156119d3573d6000803e3d6000fd5b505050506040513d601f19601f820116820180604052508101906119f79190612b48565b611a05576001915050611b52565b6000846001600160a01b031663516f279e6040518163ffffffff1660e01b8152600401602060405180830381865afa158015611a45573d6000803e3d6000fd5b505050506040513d601f19601f82011682018060405250810190611a699190612b6a565b90506001600160a01b038116611ad75760405162461bcd60e51b815260206004820152602d60248201527f436f6d70616e793a20617661746172206c6f636174696f6e206973206e6f742060448201526c616e20657870657269656e636560981b606482015260840161069f565b306001600160a01b0316816001600160a01b0316636904c94d6040518163ffffffff1660e01b8152600401602060405180830381865afa158015611b1f573d6000803e3d6000fd5b505050506040513d601f19601f82011682018060405250810190611b439190612b6a565b6001600160a01b031614925050505b9392505050565b606081604051602001611b6c9190612b87565b6040516020818303038152906040529050919050565b600080611b8d6122af565b9050611b5281600080516020612c10833981519152856122d3565b6000611bb26122af565b9050611bcd81600080516020612c30833981519152336122d3565b611be95760405162461bcd60e51b815260040161069f9061289f565b6000829050806001600160a01b03166358779dcf6040518163ffffffff1660e01b8152600401600060405180830381600087803b15801561094957600080fd5b6000611c336122af565b9050611c4e81600080516020612c10833981519152336122d3565b611c6a5760405162461bcd60e51b815260040161069f90612910565b600080516020612bf0833981519152805460ff1615611c9b5760405162461bcd60e51b815260040161069f90612947565b611ca3612339565b611cae85858561182a565b611cfa5760405162461bcd60e51b815260206004820152601a60248201527f436f6d70616e793a2063616e6e6f74206d696e74206173736574000000000000604482015260640161069f565b6000856001600160a01b0316633fe3347a6040518163ffffffff1660e01b8152600401602060405180830381865afa158015611d3a573d6000803e3d6000fd5b505050506040513d601f19601f82011682018060405250810190611d5e9190612bc0565b6002811115611d6f57611d6f612bd9565b90506001816002811115611d8557611d85612bd9565b03611e3e576040516340c10f1960e01b81526001600160a01b038681166004830152602482018690528716906340c10f1990604401600060405180830381600087803b158015611dd457600080fd5b505af1158015611de8573d6000803e3d6000fd5b50505050846001600160a01b0316866001600160a01b03167f9f8f31349c47dec18bab6fd70c3f360209248439f904d89f5bd13bbc42b0680786604051611e3191815260200190565b60405180910390a3611f64565b6002816002811115611e5257611e52612bd9565b03611f1c576040516335313c2160e11b81526001600160a01b03868116600483015260009190881690636a627842906024016020604051808303816000875af1158015611ea3573d6000803e3d6000fd5b505050506040513d601f19601f82011682018060405250810190611ec79190612bc0565b9050856001600160a01b0316876001600160a01b03167f9f8f31349c47dec18bab6fd70c3f360209248439f904d89f5bd13bbc42b0680783604051611f0e91815260200190565b60405180910390a350611f64565b60405162461bcd60e51b815260206004820152601f60248201527f436f6d70616e793a20756e737570706f72746564206173736574207479706500604482015260640161069f565b50611f6f6001600055565b5050505050565b6000611f806122af565b9050611f9b81600080516020612c10833981519152336122d3565b611fb75760405162461bcd60e51b815260040161069f90612910565b600080516020612bf0833981519152805460ff1615611fe85760405162461bcd60e51b815260040161069f90612947565b611ff0612339565b6000856001600160a01b0316633fe3347a6040518163ffffffff1660e01b8152600401602060405180830381865afa158015612030573d6000803e3d6000fd5b505050506040513d601f19601f820116820180604052508101906120549190612bc0565b600281111561206557612065612bd9565b9050600181600281111561207b5761207b612bd9565b036120e85760405163eac449d960e01b81526001600160a01b0386811660048301526024820186905287169063eac449d9906044015b600060405180830381600087803b1580156120cb57600080fd5b505af11580156120df573d6000803e3d6000fd5b5050505061212e565b60028160028111156120fc576120fc612bd9565b03611f1c576040516320c5429b60e01b8152600481018590526001600160a01b038716906320c5429b906024016120b1565b846001600160a01b0316866001600160a01b03167f5561832f82bd612a3ed1e1014b38299755bc4acc641249d9108bd59c1ade68e38660405161217391815260200190565b60405180910390a350611f6f6001600055565b60006121906122af565b90506121ab81600080516020612c30833981519152336122d3565b6121c75760405162461bcd60e51b815260040161069f9061289f565b600080516020612bf0833981519152805460ff16156121f85760405162461bcd60e51b815260040161069f90612947565b6001600160a01b03831661224e5760405162461bcd60e51b815260206004820152601d60248201527f436f6d70616e793a207369676e65722063616e6e6f7420626520307830000000604482015260640161069f565b60006122586122af565b905061227581600080516020612c10833981519152866001612300565b6040516001600160a01b038516907f47d1c22a25bb3a5d4e481b9b1e6944c2eade3181a0a20b495ed61d35b5323f2490600090a250505050565b7f1f07e7b49187e1cf67924ca1fa35732211c5bb2c23b6b53ee47453438de7285e90565b6000918252600192909201602090815260408083206001600160a01b039094168352929052205460ff1690565b60009283526001909301602090815260408084206001600160a01b0390931684529190529020805491151560ff19909216919091179055565b60026000540361235c57604051633ee5aeb560e01b815260040160405180910390fd5b6002600055565b6001600160a01b0381168114610fc857600080fd5b803561238381612363565b919050565b6000806040838503121561239b57600080fd5b82356123a681612363565b946020939093013593505050565b6000815180845260005b818110156123da576020818501810151868301820152016123be565b506000602082860101526020601f19601f83011685010191505092915050565b602081526000611b5260208301846123b4565b60006020828403121561241f57600080fd5b8135611b5281612363565b6000806040838503121561243d57600080fd5b823561244881612363565b9150602083013561245881612363565b809150509250929050565b634e487b7160e01b600052604160045260246000fd5b60405160c0810167ffffffffffffffff8111828210171561249c5761249c612463565b60405290565b60405160a0810167ffffffffffffffff8111828210171561249c5761249c612463565b600082601f8301126124d657600080fd5b813567ffffffffffffffff808211156124f1576124f1612463565b604051601f8301601f19908116603f0116810190828211818310171561251957612519612463565b8160405283815286602085880101111561253257600080fd5b836020870160208301376000602085830101528094505050505092915050565b60006020828403121561256457600080fd5b813567ffffffffffffffff8082111561257c57600080fd5b908301906040828603121561259057600080fd5b6040516040810181811083821117156125ab576125ab612463565b6040528235828111156125bd57600080fd5b6125c9878286016124c5565b8252506020830135828111156125de57600080fd5b6125ea878286016124c5565b60208301525095945050505050565b60006020828403121561260b57600080fd5b813567ffffffffffffffff81111561262257600080fd5b61262e848285016124c5565b949350505050565b60006020828403121561264857600080fd5b5035919050565b6000815160c0845261266460c08501826123b4565b90506020830151848203602086015261267d82826123b4565b9150506040830151848203604086015261269782826123b4565b915050606083015160608501526080830151608085015260a083015160a08501528091505092915050565b602081526000611b52602083018461264f565b600060c082840312156126e757600080fd5b6126ef612479565b9050813567ffffffffffffffff8082111561270957600080fd5b612715858386016124c5565b8352602084013591508082111561272b57600080fd5b612737858386016124c5565b6020840152604084013591508082111561275057600080fd5b5061275d848285016124c5565b604083015250606082013560608201526080820135608082015260a082013560a082015292915050565b60006020828403121561279957600080fd5b813567ffffffffffffffff808211156127b157600080fd5b9083019060a082860312156127c557600080fd5b6127cd6124a2565b6127d683612378565b81526127e460208401612378565b60208201526040830135828111156127fb57600080fd5b612807878286016126d5565b60408301525060608301358281111561281f57600080fd5b61282b878286016124c5565b60608301525060808301358281111561284357600080fd5b61284f878286016124c5565b60808301525095945050505050565b60008060006060848603121561287357600080fd5b833561287e81612363565b9250602084013561288e81612363565b929592945050506040919091013590565b6020808252601f908201527f436f6d70616e793a2063616c6c6572206973206e6f7420616e2061646d696e00604082015260600190565b600181811c908216806128ea57607f821691505b60208210810361290a57634e487b7160e01b600052602260045260246000fd5b50919050565b6020808252601f908201527f436f6d70616e793a2063616c6c6572206973206e6f742061207369676e657200604082015260600190565b60208082526023908201527f436f6d70616e793a20636f6e747261637420686173206265656e20757067726160408201526219195960ea1b606082015260800190565b6000600182016129aa57634e487b7160e01b600052601160045260246000fd5b5060010190565b6020815260008251606060208401526129cd608084018261264f565b90506020840151601f19808584030160408601526129eb83836123b4565b9250604086015191508085840301606086015250612a0982826123b4565b95945050505050565b60008060408385031215612a2557600080fd5b8251612a3081612363565b6020939093015192949293505050565b601f821115610dbd576000816000526020600020601f850160051c81016020861015612a695750805b601f850160051c820191505b818110156109f657828155600101612a75565b815167ffffffffffffffff811115612aa257612aa2612463565b612ab681612ab084546128d6565b84612a40565b602080601f831160018114612aeb5760008415612ad35750858301515b600019600386901b1c1916600185901b1785556109f6565b600085815260208120601f198616915b82811015612b1a57888601518255948401946001909101908401612afb565b5085821015612b385787850151600019600388901b60f8161c191681555b5050505050600190811b01905550565b600060208284031215612b5a57600080fd5b81518015158114611b5257600080fd5b600060208284031215612b7c57600080fd5b8151611b5281612363565b602081526000825160406020840152612ba360608401826123b4565b90506020840151601f19848303016040850152612a0982826123b4565b600060208284031215612bd257600080fd5b5051919050565b634e487b7160e01b600052602160045260246000fdfe6373b2650f68a30b6fdd87e3caf4df754a3a8f8ef4b09bbd1bb4ff21f356aa2ce2f4eaae4a9751e85a3e4a7b9587827a877f29914755229b07a7b2da98285f70a49807205ce4d355092ef5a8a18f56e8913cf4a201fbe287825b095693c21775a2646970667358221220124abda3cbeb21b5a96d756e10d46ac5fb6093d7553286f0d37ba504d03d524064736f6c63430008180033",
  "linkReferences": {},
  "deployedLinkReferences": {}
}