{
  "_format": "hh-sol-artifact-1",
  "contractName": "Company",
  "sourceName": "contracts/company/Company.sol",
  "abi": [
    {
      "inputs": [
        {
          "components": [
            {
              "internalType": "address",
              "name": "companyFactory",
              "type": "address"
            },
            {
              "internalType": "address",
              "name": "companyRegistry",
              "type": "address"
            },
            {
              "internalType": "contract IExperienceRegistry",
              "name": "experienceRegistry",
              "type": "address"
            },
            {
              "internalType": "contract IMultiAssetRegistry",
              "name": "multiAssetRegistry",
              "type": "address"
            },
            {
              "internalType": "contract IAvatarRegistry",
              "name": "avatarRegistry",
              "type": "address"
            }
          ],
          "internalType": "struct CompanyConstructorArgs",
          "name": "args",
          "type": "tuple"
        }
      ],
      "stateMutability": "nonpayable",
      "type": "constructor"
    },
    {
      "inputs": [],
      "name": "ReentrancyGuardReentrantCall",
      "type": "error"
    },
    {
      "anonymous": false,
      "inputs": [
        {
          "indexed": true,
          "internalType": "address",
          "name": "asset",
          "type": "address"
        },
        {
          "indexed": true,
          "internalType": "address",
          "name": "to",
          "type": "address"
        },
        {
          "indexed": false,
          "internalType": "uint256",
          "name": "amountOrTokenId",
          "type": "uint256"
        }
      ],
      "name": "AssetMinted",
      "type": "event"
    },
    {
      "anonymous": false,
      "inputs": [
        {
          "indexed": true,
          "internalType": "address",
          "name": "asset",
          "type": "address"
        },
        {
          "indexed": true,
          "internalType": "address",
          "name": "holder",
          "type": "address"
        },
        {
          "indexed": false,
          "internalType": "uint256",
          "name": "amountOrTokenId",
          "type": "uint256"
        }
      ],
      "name": "AssetRevoked",
      "type": "event"
    },
    {
      "anonymous": false,
      "inputs": [
        {
          "indexed": true,
          "internalType": "address",
          "name": "asset",
          "type": "address"
        },
        {
          "indexed": true,
          "internalType": "address",
          "name": "condition",
          "type": "address"
        }
      ],
      "name": "CompanyAddedAssetCondition",
      "type": "event"
    },
    {
      "anonymous": false,
      "inputs": [
        {
          "indexed": true,
          "internalType": "address",
          "name": "asset",
          "type": "address"
        },
        {
          "indexed": true,
          "internalType": "address",
          "name": "hook",
          "type": "address"
        }
      ],
      "name": "CompanyAddedAssetHook",
      "type": "event"
    },
    {
      "anonymous": false,
      "inputs": [
        {
          "indexed": true,
          "internalType": "address",
          "name": "experience",
          "type": "address"
        },
        {
          "indexed": false,
          "internalType": "uint256",
          "name": "portalId",
          "type": "uint256"
        }
      ],
      "name": "CompanyAddedExperience",
      "type": "event"
    },
    {
      "anonymous": false,
      "inputs": [
        {
          "indexed": true,
          "internalType": "address",
          "name": "experience",
          "type": "address"
        },
        {
          "indexed": true,
          "internalType": "address",
          "name": "condition",
          "type": "address"
        }
      ],
      "name": "CompanyAddedExperienceCondition",
      "type": "event"
    },
    {
      "anonymous": false,
      "inputs": [
        {
          "indexed": true,
          "internalType": "address",
          "name": "experience",
          "type": "address"
        },
        {
          "indexed": true,
          "internalType": "address",
          "name": "hook",
          "type": "address"
        }
      ],
      "name": "CompanyAddedExperienceHook",
      "type": "event"
    },
    {
      "anonymous": false,
      "inputs": [
        {
          "indexed": true,
          "internalType": "address",
          "name": "experience",
          "type": "address"
        },
        {
          "indexed": false,
          "internalType": "uint256",
          "name": "fee",
          "type": "uint256"
        }
      ],
      "name": "CompanyChangedExperiencePortalFee",
      "type": "event"
    },
    {
      "anonymous": false,
      "inputs": [],
      "name": "CompanyDeactivated",
      "type": "event"
    },
    {
      "anonymous": false,
      "inputs": [],
      "name": "CompanyHookRemoved",
      "type": "event"
    },
    {
      "anonymous": false,
      "inputs": [
        {
          "indexed": true,
          "internalType": "address",
          "name": "hook",
          "type": "address"
        }
      ],
      "name": "CompanyHookSet",
      "type": "event"
    },
    {
      "anonymous": false,
      "inputs": [
        {
          "indexed": true,
          "internalType": "address",
          "name": "avatar",
          "type": "address"
        },
        {
          "indexed": false,
          "internalType": "uint256",
          "name": "portalId",
          "type": "uint256"
        },
        {
          "indexed": false,
          "internalType": "uint256",
          "name": "fee",
          "type": "uint256"
        }
      ],
      "name": "CompanyJumpedForAvatar",
      "type": "event"
    },
    {
      "anonymous": false,
      "inputs": [],
      "name": "CompanyReactivated",
      "type": "event"
    },
    {
      "anonymous": false,
      "inputs": [
        {
          "indexed": true,
          "internalType": "address",
          "name": "asset",
          "type": "address"
        }
      ],
      "name": "CompanyRemovedAssetCondition",
      "type": "event"
    },
    {
      "anonymous": false,
      "inputs": [
        {
          "indexed": true,
          "internalType": "address",
          "name": "asset",
          "type": "address"
        }
      ],
      "name": "CompanyRemovedAssetHook",
      "type": "event"
    },
    {
      "anonymous": false,
      "inputs": [
        {
          "indexed": true,
          "internalType": "address",
          "name": "experience",
          "type": "address"
        },
        {
          "indexed": false,
          "internalType": "uint256",
          "name": "portalId",
          "type": "uint256"
        }
      ],
      "name": "CompanyRemovedExperience",
      "type": "event"
    },
    {
      "anonymous": false,
      "inputs": [
        {
          "indexed": true,
          "internalType": "address",
          "name": "experience",
          "type": "address"
        }
      ],
      "name": "CompanyRemovedExperienceCondition",
      "type": "event"
    },
    {
      "anonymous": false,
      "inputs": [
        {
          "indexed": true,
          "internalType": "address",
          "name": "experience",
          "type": "address"
        }
      ],
      "name": "CompanyRemovedExperienceHook",
      "type": "event"
    },
    {
      "anonymous": false,
      "inputs": [
        {
          "indexed": true,
          "internalType": "address",
          "name": "oldVersion",
          "type": "address"
        },
        {
          "indexed": true,
          "internalType": "address",
          "name": "nextVersion",
          "type": "address"
        }
      ],
      "name": "CompanyUpgraded",
      "type": "event"
    },
    {
      "anonymous": false,
      "inputs": [
        {
          "indexed": true,
          "internalType": "address",
          "name": "asset",
          "type": "address"
        },
        {
          "indexed": true,
          "internalType": "address",
          "name": "nextVersion",
          "type": "address"
        }
      ],
      "name": "CompanyUpgradedAsset",
      "type": "event"
    },
    {
      "anonymous": false,
      "inputs": [
        {
          "indexed": true,
          "internalType": "address",
          "name": "experience",
          "type": "address"
        },
        {
          "indexed": true,
          "internalType": "address",
          "name": "nextVersion",
          "type": "address"
        }
      ],
      "name": "CompanyUpgradedExperience",
      "type": "event"
    },
    {
      "anonymous": false,
      "inputs": [
        {
          "indexed": true,
          "internalType": "address",
          "name": "sender",
          "type": "address"
        },
        {
          "indexed": false,
          "internalType": "uint256",
          "name": "value",
          "type": "uint256"
        }
      ],
      "name": "ReceivedFunds",
      "type": "event"
    },
    {
      "anonymous": false,
      "inputs": [
        {
          "indexed": true,
          "internalType": "address",
          "name": "signer",
          "type": "address"
        }
      ],
      "name": "SignerAdded",
      "type": "event"
    },
    {
      "anonymous": false,
      "inputs": [
        {
          "indexed": true,
          "internalType": "address",
          "name": "signer",
          "type": "address"
        }
      ],
      "name": "SignerRemoved",
      "type": "event"
    },
    {
      "inputs": [
        {
          "internalType": "address",
          "name": "asset",
          "type": "address"
        },
        {
          "internalType": "address",
          "name": "condition",
          "type": "address"
        }
      ],
      "name": "addAssetCondition",
      "outputs": [],
      "stateMutability": "nonpayable",
      "type": "function"
    },
    {
      "inputs": [
        {
          "internalType": "address",
          "name": "asset",
          "type": "address"
        },
        {
          "internalType": "contract IAssetHook",
          "name": "aHook",
          "type": "address"
        }
      ],
      "name": "addAssetHook",
      "outputs": [],
      "stateMutability": "nonpayable",
      "type": "function"
    },
    {
      "inputs": [
        {
          "components": [
            {
              "internalType": "string",
              "name": "name",
              "type": "string"
            },
            {
              "internalType": "bytes",
              "name": "initData",
              "type": "bytes"
            }
          ],
          "internalType": "struct AddExperienceArgs",
          "name": "args",
          "type": "tuple"
        }
      ],
      "name": "addExperience",
      "outputs": [],
      "stateMutability": "nonpayable",
      "type": "function"
    },
    {
      "inputs": [
        {
          "internalType": "address",
          "name": "experience",
          "type": "address"
        },
        {
          "internalType": "address",
          "name": "condition",
          "type": "address"
        }
      ],
      "name": "addExperienceCondition",
      "outputs": [],
      "stateMutability": "nonpayable",
      "type": "function"
    },
    {
      "inputs": [
        {
          "internalType": "address[]",
          "name": "signers",
          "type": "address[]"
        }
      ],
      "name": "addSigners",
      "outputs": [],
      "stateMutability": "nonpayable",
      "type": "function"
    },
    {
      "inputs": [],
      "name": "assetRegistry",
      "outputs": [
        {
          "internalType": "contract IMultiAssetRegistry",
          "name": "",
          "type": "address"
        }
      ],
      "stateMutability": "view",
      "type": "function"
    },
    {
      "inputs": [],
      "name": "avatarRegistry",
      "outputs": [
        {
          "internalType": "contract IAvatarRegistry",
          "name": "",
          "type": "address"
        }
      ],
      "stateMutability": "view",
      "type": "function"
    },
    {
      "inputs": [
        {
          "internalType": "address",
          "name": "asset",
          "type": "address"
        },
        {
          "internalType": "address",
          "name": "to",
          "type": "address"
        },
        {
          "internalType": "bytes",
          "name": "extra",
          "type": "bytes"
        }
      ],
      "name": "canMint",
      "outputs": [
        {
          "internalType": "bool",
          "name": "",
          "type": "bool"
        }
      ],
      "stateMutability": "view",
      "type": "function"
    },
    {
      "inputs": [
        {
          "internalType": "address",
          "name": "experience",
          "type": "address"
        },
        {
          "internalType": "uint256",
          "name": "fee",
          "type": "uint256"
        }
      ],
      "name": "changeExperiencePortalFee",
      "outputs": [],
      "stateMutability": "nonpayable",
      "type": "function"
    },
    {
      "inputs": [],
      "name": "companyFactory",
      "outputs": [
        {
          "internalType": "address",
          "name": "",
          "type": "address"
        }
      ],
      "stateMutability": "view",
      "type": "function"
    },
    {
      "inputs": [
        {
          "internalType": "uint256",
          "name": "portalId",
          "type": "uint256"
        }
      ],
      "name": "companyOwnsDestinationPortal",
      "outputs": [
        {
          "internalType": "bool",
          "name": "",
          "type": "bool"
        }
      ],
      "stateMutability": "view",
      "type": "function"
    },
    {
      "inputs": [],
      "name": "companyRegistry",
      "outputs": [
        {
          "internalType": "contract ICompanyRegistry",
          "name": "",
          "type": "address"
        }
      ],
      "stateMutability": "view",
      "type": "function"
    },
    {
      "inputs": [],
      "name": "deactivate",
      "outputs": [],
      "stateMutability": "nonpayable",
      "type": "function"
    },
    {
      "inputs": [
        {
          "components": [
            {
              "internalType": "address",
              "name": "avatar",
              "type": "address"
            },
            {
              "internalType": "uint256",
              "name": "portalId",
              "type": "uint256"
            },
            {
              "internalType": "uint256",
              "name": "agreedFee",
              "type": "uint256"
            },
            {
              "internalType": "bytes",
              "name": "avatarOwnerSignature",
              "type": "bytes"
            }
          ],
          "internalType": "struct DelegatedAvatarJumpRequest",
          "name": "request",
          "type": "tuple"
        }
      ],
      "name": "delegateJumpForAvatar",
      "outputs": [],
      "stateMutability": "nonpayable",
      "type": "function"
    },
    {
      "inputs": [
        {
          "components": [
            {
              "internalType": "string",
              "name": "name",
              "type": "string"
            },
            {
              "internalType": "bytes",
              "name": "initData",
              "type": "bytes"
            }
          ],
          "internalType": "struct AddExperienceArgs",
          "name": "args",
          "type": "tuple"
        }
      ],
      "name": "encodeExperienceArgs",
      "outputs": [
        {
          "internalType": "bytes",
          "name": "",
          "type": "bytes"
        }
      ],
      "stateMutability": "pure",
      "type": "function"
    },
    {
      "inputs": [],
      "name": "experienceRegistry",
      "outputs": [
        {
          "internalType": "contract IExperienceRegistry",
          "name": "",
          "type": "address"
        }
      ],
      "stateMutability": "view",
      "type": "function"
    },
    {
      "inputs": [],
      "name": "hook",
      "outputs": [
        {
          "internalType": "contract ICompanyHook",
          "name": "",
          "type": "address"
        }
      ],
      "stateMutability": "view",
      "type": "function"
    },
    {
      "inputs": [
        {
          "components": [
            {
              "internalType": "address",
              "name": "owner",
              "type": "address"
            },
            {
              "internalType": "address",
              "name": "world",
              "type": "address"
            },
            {
              "components": [
                {
                  "internalType": "string",
                  "name": "x",
                  "type": "string"
                },
                {
                  "internalType": "string",
                  "name": "y",
                  "type": "string"
                },
                {
                  "internalType": "string",
                  "name": "z",
                  "type": "string"
                },
                {
                  "internalType": "uint256",
                  "name": "t",
                  "type": "uint256"
                },
                {
                  "internalType": "uint256",
                  "name": "p",
                  "type": "uint256"
                },
                {
                  "internalType": "uint256",
                  "name": "p_sub",
                  "type": "uint256"
                }
              ],
              "internalType": "struct VectorAddress",
              "name": "vector",
              "type": "tuple"
            },
            {
              "internalType": "bytes",
              "name": "initData",
              "type": "bytes"
            },
            {
              "internalType": "string",
              "name": "name",
              "type": "string"
            }
          ],
          "internalType": "struct CompanyInitArgs",
          "name": "request",
          "type": "tuple"
        }
      ],
      "name": "init",
      "outputs": [],
      "stateMutability": "nonpayable",
      "type": "function"
    },
    {
      "inputs": [],
      "name": "isActive",
      "outputs": [
        {
          "internalType": "bool",
          "name": "",
          "type": "bool"
        }
      ],
      "stateMutability": "view",
      "type": "function"
    },
    {
      "inputs": [
        {
          "internalType": "address",
          "name": "signer",
          "type": "address"
        }
      ],
      "name": "isSigner",
      "outputs": [
        {
          "internalType": "bool",
          "name": "",
          "type": "bool"
        }
      ],
      "stateMutability": "view",
      "type": "function"
    },
    {
      "inputs": [
        {
          "internalType": "address",
          "name": "asset",
          "type": "address"
        },
        {
          "internalType": "address",
          "name": "to",
          "type": "address"
        },
        {
          "internalType": "bytes",
          "name": "data",
          "type": "bytes"
        }
      ],
      "name": "mint",
      "outputs": [],
      "stateMutability": "nonpayable",
      "type": "function"
    },
    {
      "inputs": [],
      "name": "name",
      "outputs": [
        {
          "internalType": "string",
          "name": "",
          "type": "string"
        }
      ],
      "stateMutability": "view",
      "type": "function"
    },
    {
      "inputs": [],
      "name": "owner",
      "outputs": [
        {
          "internalType": "address",
          "name": "",
          "type": "address"
        }
      ],
      "stateMutability": "view",
      "type": "function"
    },
    {
      "inputs": [],
      "name": "reactivate",
      "outputs": [],
      "stateMutability": "payable",
      "type": "function"
    },
    {
      "inputs": [
        {
          "internalType": "address",
          "name": "asset",
          "type": "address"
        }
      ],
      "name": "removeAssetCondition",
      "outputs": [],
      "stateMutability": "nonpayable",
      "type": "function"
    },
    {
      "inputs": [
        {
          "internalType": "address",
          "name": "asset",
          "type": "address"
        }
      ],
      "name": "removeAssetHook",
      "outputs": [],
      "stateMutability": "nonpayable",
      "type": "function"
    },
    {
      "inputs": [
        {
          "internalType": "address",
          "name": "experience",
          "type": "address"
        }
      ],
      "name": "removeExperience",
      "outputs": [],
      "stateMutability": "nonpayable",
      "type": "function"
    },
    {
      "inputs": [
        {
          "internalType": "address",
          "name": "experience",
          "type": "address"
        }
      ],
      "name": "removeExperienceCondition",
      "outputs": [],
      "stateMutability": "nonpayable",
      "type": "function"
    },
    {
      "inputs": [],
      "name": "removeHook",
      "outputs": [],
      "stateMutability": "nonpayable",
      "type": "function"
    },
    {
      "inputs": [
        {
          "internalType": "address[]",
          "name": "signers",
          "type": "address[]"
        }
      ],
      "name": "removeSigners",
      "outputs": [],
      "stateMutability": "nonpayable",
      "type": "function"
    },
    {
      "inputs": [
        {
          "internalType": "address",
          "name": "asset",
          "type": "address"
        },
        {
          "internalType": "address",
          "name": "holder",
          "type": "address"
        },
        {
          "internalType": "bytes",
          "name": "data",
          "type": "bytes"
        }
      ],
      "name": "revoke",
      "outputs": [],
      "stateMutability": "nonpayable",
      "type": "function"
    },
    {
      "inputs": [
        {
          "internalType": "contract ICompanyHook",
          "name": "_hook",
          "type": "address"
        }
      ],
      "name": "setHook",
      "outputs": [],
      "stateMutability": "nonpayable",
      "type": "function"
    },
    {
      "inputs": [
        {
          "internalType": "bytes",
          "name": "initData",
          "type": "bytes"
        }
      ],
      "name": "upgrade",
      "outputs": [],
      "stateMutability": "nonpayable",
      "type": "function"
    },
    {
      "inputs": [
        {
          "internalType": "address",
          "name": "asset",
          "type": "address"
        },
        {
          "internalType": "bytes",
          "name": "initData",
          "type": "bytes"
        }
      ],
      "name": "upgradeAsset",
      "outputs": [],
      "stateMutability": "nonpayable",
      "type": "function"
    },
    {
      "inputs": [
        {
          "internalType": "address",
          "name": "nextVersion",
          "type": "address"
        }
      ],
      "name": "upgradeComplete",
      "outputs": [],
      "stateMutability": "nonpayable",
      "type": "function"
    },
    {
      "inputs": [
        {
          "internalType": "address",
          "name": "experience",
          "type": "address"
        },
        {
          "internalType": "bytes",
          "name": "initData",
          "type": "bytes"
        }
      ],
      "name": "upgradeExperience",
      "outputs": [],
      "stateMutability": "nonpayable",
      "type": "function"
    },
    {
      "inputs": [],
      "name": "vectorAddress",
      "outputs": [
        {
          "components": [
            {
              "internalType": "string",
              "name": "x",
              "type": "string"
            },
            {
              "internalType": "string",
              "name": "y",
              "type": "string"
            },
            {
              "internalType": "string",
              "name": "z",
              "type": "string"
            },
            {
              "internalType": "uint256",
              "name": "t",
              "type": "uint256"
            },
            {
              "internalType": "uint256",
              "name": "p",
              "type": "uint256"
            },
            {
              "internalType": "uint256",
              "name": "p_sub",
              "type": "uint256"
            }
          ],
          "internalType": "struct VectorAddress",
          "name": "",
          "type": "tuple"
        }
      ],
      "stateMutability": "view",
      "type": "function"
    },
    {
      "inputs": [],
      "name": "version",
      "outputs": [
        {
          "internalType": "uint256",
          "name": "",
          "type": "uint256"
        }
      ],
      "stateMutability": "view",
      "type": "function"
    },
    {
      "inputs": [
        {
          "internalType": "uint256",
          "name": "amount",
          "type": "uint256"
        }
      ],
      "name": "withdraw",
      "outputs": [],
      "stateMutability": "nonpayable",
      "type": "function"
    },
    {
      "inputs": [],
      "name": "world",
      "outputs": [
        {
          "internalType": "address",
          "name": "",
          "type": "address"
        }
      ],
      "stateMutability": "view",
      "type": "function"
    },
    {
      "stateMutability": "payable",
      "type": "receive"
    }
  ],
  "bytecode": "0x6101206040523480156200001257600080fd5b50604051620043ec380380620043ec8339810160408190526200003591620002ba565b600160005580516001600160a01b0316620000a55760405162461bcd60e51b815260206004820152602560248201527f436f6d70616e793a20636f6d70616e79466163746f72792063616e6e6f742062604482015264065203078360dc1b60648201526084015b60405180910390fd5b60208101516001600160a01b0316620001105760405162461bcd60e51b815260206004820152602660248201527f436f6d70616e793a20636f6d70616e7952656769737472792063616e6e6f742060448201526506265203078360d41b60648201526084016200009c565b60408101516001600160a01b03166200017e5760405162461bcd60e51b815260206004820152602960248201527f436f6d70616e793a20657870657269656e636552656769737472792063616e6e60448201526806f74206265203078360bc1b60648201526084016200009c565b60608101516001600160a01b0316620001e65760405162461bcd60e51b8152602060048201526024808201527f436f6d70616e793a20617373657452656769737472792063616e6e6f742062656044820152630203078360e41b60648201526084016200009c565b60808101516001600160a01b0316620002505760405162461bcd60e51b815260206004820152602560248201527f436f6d70616e793a2061766174617252656769737472792063616e6e6f742062604482015264065203078360dc1b60648201526084016200009c565b80516001600160a01b0390811660809081526020830151821660a0526040830151821660c0526060830151821660e05290910151166101005262000365565b6001600160a01b0381168114620002a557600080fd5b50565b8051620002b5816200028f565b919050565b600060a08284031215620002cd57600080fd5b60405160a081016001600160401b0381118282101715620002fe57634e487b7160e01b600052604160045260246000fd5b60405282516200030e816200028f565b8152602083015162000320816200028f565b60208201526200033360408401620002a8565b60408201526200034660608401620002a8565b60608201526200035960808401620002a8565b60808201529392505050565b60805160a05160c05160e05161010051613fe7620004056000396000818161072d0152611bfc015260008181610629015281816119a20152611f510152600081816105f5015261139f01526000818161069d0152818161111e0152818161223c015281816122b701528181612d140152612d8f0152600081816106f90152818161118c015281816112060152818161237d01526123f70152613fe76000f3fe60806040526004361061023f5760003560e01c806354fd4d501161012e578063979d7e86116100ab578063db70a6931161006f578063db70a693146106c7578063dc1c44be146106e7578063e3d7ad731461071b578063e8906a2d1461074f578063f1ddecf91461076f57600080fd5b8063979d7e86146106175780639e29186d1461064b578063b404b6741461066b578063c51aba2b1461068b578063d18611d6146106bf57600080fd5b80637df73e27116100f25780637df73e27146105795780637f5a7c7b146105995780638d361e43146105ae5780638da5cb5b146105ce5780638f09a6be146105e357600080fd5b806354fd4d50146104d657806357433ea6146104f95780636330347a1461051957806368ea2306146105395780637d4daec51461055957600080fd5b80632a7a0d99116101bc57806337b4eb061161018057806337b4eb061461044157806338c8a97b146104615780633dfd38731461048157806351b42b00146104a15780635466ddd5146104b657600080fd5b80632a7a0d991461039d5780632e1a7d4d146103bd5780632fcbab9a146103dd57806330b67baa146103ff578063378f17ff1461042c57600080fd5b806322f3e2d41161020357806322f3e2d4146102f8578063243546a61461031d578063253946451461033d5780632663d1f71461035d57806329f2691d1461037d57600080fd5b80630346f5f51461024b57806306fdde031461026d5780631187b6271461029857806316c49b11146102b85780631961f05d146102d857600080fd5b3661024657005b600080fd5b34801561025757600080fd5b5061026b6102663660046133eb565b61078f565b005b34801561027957600080fd5b506102826108ad565b60405161028f919061345d565b60405180910390f35b3480156102a457600080fd5b5061026b6102b3366004613470565b61094e565b3480156102c457600080fd5b5061026b6102d33660046134a9565b610a56565b3480156102e457600080fd5b5061026b6102f33660046134e3565b610c04565b34801561030457600080fd5b5061030d610cff565b604051901515815260200161028f565b34801561032957600080fd5b5061026b6103383660046135ec565b610d14565b34801561034957600080fd5b5061026b610358366004613692565b611098565b34801561036957600080fd5b5061026b6103783660046134e3565b61118a565b34801561038957600080fd5b5061026b6103983660046134e3565b61129f565b3480156103a957600080fd5b5061030d6103b83660046136ce565b61139a565b3480156103c957600080fd5b5061026b6103d83660046136ce565b61156a565b3480156103e957600080fd5b506103f2611679565b60405161028f919061375a565b34801561040b57600080fd5b506104146118a7565b6040516001600160a01b03909116815260200161028f565b34801561043857600080fd5b5061026b6118c5565b34801561044d57600080fd5b5061030d61045c36600461376d565b611954565b34801561046d57600080fd5b5061026b61047c36600461376d565b611ebb565b34801561048d57600080fd5b5061026b61049c3660046134e3565b612144565b3480156104ad57600080fd5b5061026b61223a565b3480156104c257600080fd5b5061026b6104d13660046138af565b61237b565b3480156104e257600080fd5b506104eb600181565b60405190815260200161028f565b34801561050557600080fd5b5061026b610514366004613470565b6126aa565b34801561052557600080fd5b5061026b610534366004613470565b6127b6565b34801561054557600080fd5b5061026b6105543660046134e3565b6128be565b34801561056557600080fd5b506102826105743660046135ec565b612a08565b34801561058557600080fd5b5061030d6105943660046134e3565b612a31565b3480156105a557600080fd5b50610414612a5e565b3480156105ba57600080fd5b5061026b6105c9366004613985565b612a7c565b3480156105da57600080fd5b50610414612ac7565b3480156105ef57600080fd5b506104147f000000000000000000000000000000000000000000000000000000000000000081565b34801561062357600080fd5b506104147f000000000000000000000000000000000000000000000000000000000000000081565b34801561065757600080fd5b5061026b6106663660046134e3565b612ae7565b34801561067757600080fd5b5061026b6106863660046139f9565b612be8565b34801561069757600080fd5b506104147f000000000000000000000000000000000000000000000000000000000000000081565b61026b612d12565b3480156106d357600080fd5b5061026b6106e23660046139f9565b612e10565b3480156106f357600080fd5b506104147f000000000000000000000000000000000000000000000000000000000000000081565b34801561072757600080fd5b506104147f000000000000000000000000000000000000000000000000000000000000000081565b34801561075b57600080fd5b5061026b61076a366004613985565b612f3d565b34801561077b57600080fd5b5061026b61078a36600461376d565b612f88565b60006107996130c3565b90506107b481600080516020613f92833981519152336130e7565b6107d95760405162461bcd60e51b81526004016107d090613a48565b60405180910390fd5b60006107e3613114565b805490915060ff166108075760405162461bcd60e51b81526004016107d090613a93565b6040516383c3426360e01b81526004810184905284906001600160a01b038216906383c3426390602401600060405180830381600087803b15801561084b57600080fd5b505af115801561085f573d6000803e3d6000fd5b50505050846001600160a01b03167f14a414080493d85b6f8d3ea30fe461ad89a3dd357c1ebdaa3ae460f22943e6608560405161089e91815260200190565b60405180910390a25050505050565b606060006108b9613114565b90508060090180546108ca90613aca565b80601f01602080910402602001604051908101604052809291908181526020018280546108f690613aca565b80156109435780601f1061091857610100808354040283529160200191610943565b820191906000526020600020905b81548152906001019060200180831161092657829003601f168201915b505050505091505090565b60006109586130c3565b905061097381600080516020613f92833981519152336130e7565b61098f5760405162461bcd60e51b81526004016107d090613a48565b6000610999613114565b805490915060ff166109bd5760405162461bcd60e51b81526004016107d090613a93565b604051630f69c09d60e31b81526001600160a01b038481166004830152851690637b4e04e890602401600060405180830381600087803b158015610a0057600080fd5b505af1158015610a14573d6000803e3d6000fd5b50506040516001600160a01b038087169350871691507fffff644ad01500a55354373e8b6eb94475b2370fbdd91e798ba7c4cdc396b23790600090a350505050565b6000610a606130c3565b9050610a7b81600080516020613f72833981519152336130e7565b610a975760405162461bcd60e51b81526004016107d090613b04565b6000610aa1613114565b805490915060ff16610ac55760405162461bcd60e51b81526004016107d090613a93565b6000610ad460208501856134e3565b9050806001600160a01b0316637dc759e560405180606001604052808760200135815260200187604001358152602001878060600190610b149190613b50565b8080601f01602080910402602001604051908101604052809392919081815260200183838082843760009201919091525050509152506040516001600160e01b031960e084901b168152610b6b9190600401613b9d565b600060405180830381600087803b158015610b8557600080fd5b505af1158015610b99573d6000803e3d6000fd5b50610bab9250505060208501856134e3565b6001600160a01b03167fa91163c384fd7aaeb9af411ac3a6fb176839758a072ab72d1d322e80fa64205f85602001358660400135604051610bf6929190918252602082015260400190565b60405180910390a250505050565b6000610c0e6130c3565b9050610c2981600080516020613f92833981519152336130e7565b610c455760405162461bcd60e51b81526004016107d090613a48565b6000610c4f613114565b805490915060ff16610c735760405162461bcd60e51b81526004016107d090613a93565b826001600160a01b031663378f17ff6040518163ffffffff1660e01b8152600401600060405180830381600087803b158015610cae57600080fd5b505af1158015610cc2573d6000803e3d6000fd5b50506040516001600160a01b03861692507fd34fab4c79595ff7a5ea58a35bee78557c3ce0ae848ef3538f25f572e2df9b7e9150600090a2505050565b600080610d0a613114565b5460ff1692915050565b6000610d1e6130c3565b9050610d3981600080516020613f72833981519152336130e7565b610d555760405162461bcd60e51b81526004016107d090613b04565b6000610d5f613114565b805490915060ff16610d835760405162461bcd60e51b81526004016107d090613a93565b610d8b613138565b6000610d95613114565b905080600a0160008154610da890613bcc565b9190508190555060006040518060c00160405280836003016000018054610dce90613aca565b80601f0160208091040260200160405190810160405280929190818152602001828054610dfa90613aca565b8015610e475780601f10610e1c57610100808354040283529160200191610e47565b820191906000526020600020905b815481529060010190602001808311610e2a57829003601f168201915b50505050508152602001836003016001018054610e6390613aca565b80601f0160208091040260200160405190810160405280929190818152602001828054610e8f90613aca565b8015610edc5780601f10610eb157610100808354040283529160200191610edc565b820191906000526020600020905b815481529060010190602001808311610ebf57829003601f168201915b50505050508152602001836003016002018054610ef890613aca565b80601f0160208091040260200160405190810160405280929190818152602001828054610f2490613aca565b8015610f715780601f10610f4657610100808354040283529160200191610f71565b820191906000526020600020905b815481529060010190602001808311610f5457829003601f168201915b505050918352505060068401546020808301919091526007850154604080840191909152600a8601546060938401528051608081018252848152308184015291890151828201528851928201929092526001850154915163626a29e160e11b81529293509160009182916001600160a01b039091169063c4d453c290610ffb908690600401613bf3565b60408051808303816000875af1158015611019573d6000803e3d6000fd5b505050506040513d601f19601f8201168201806040525081019061103d9190613c66565b91509150816001600160a01b03167fdd1416df66cb3941d0ab5716b19acf9c3c0f4afbd2bfe67a0d6a8f6ab6d3afc88260405161107c91815260200190565b60405180910390a250505050506110936001600055565b505050565b60006110a26130c3565b90506110bd81600080516020613f92833981519152336130e7565b6110d95760405162461bcd60e51b81526004016107d090613a48565b60006110e3613114565b805490915060ff166111075760405162461bcd60e51b81526004016107d090613a93565b60405163d449cf2560e01b81526001600160a01b037f0000000000000000000000000000000000000000000000000000000000000000169063d449cf259061115390869060040161345d565b600060405180830381600087803b15801561116d57600080fd5b505af1158015611181573d6000803e3d6000fd5b50505050505050565b7f00000000000000000000000000000000000000000000000000000000000000006001600160a01b03166111fb5760405162461bcd60e51b815260206004820152601860248201527710dbdb5c185b9e4e88199858dd1bdc9e481b9bdd081cd95d60421b60448201526064016107d0565b336001600160a01b037f000000000000000000000000000000000000000000000000000000000000000016146112435760405162461bcd60e51b81526004016107d090613c94565b600061124d6130c3565b80546001600160a01b038481166001600160a01b031983168117845560405193945091169182907f62e097eae9ab3bdbcbf8876a75515aa178198bfb2b0e9a90a7308bceb2efa6e690600090a3505050565b60006112a96130c3565b90506112c481600080516020613f92833981519152336130e7565b6112e05760405162461bcd60e51b81526004016107d090613a48565b60006112ea613114565b805490915060ff1661130e5760405162461bcd60e51b81526004016107d090613a93565b826001600160a01b031663021665b76040518163ffffffff1660e01b8152600401600060405180830381600087803b15801561134957600080fd5b505af115801561135d573d6000803e3d6000fd5b50506040516001600160a01b03861692507f587924a72db2d549ae82394e0f217aa6e4e46b96fa812e3ba7796151433f4f4d9150600090a2505050565b6000807f00000000000000000000000000000000000000000000000000000000000000006001600160a01b031663b66649346040518163ffffffff1660e01b8152600401602060405180830381865afa1580156113fb573d6000803e3d6000fd5b505050506040513d601f19601f8201168201806040525081019061141f9190613cd6565b604051630a22d5a160e21b8152600481018590529091506000906001600160a01b0383169063288b568490602401606060405180830381865afa15801561146a573d6000803e3d6000fd5b505050506040513d601f19601f8201168201806040525081019061148e9190613cf3565b80519091506001600160a01b03166114e85760405162461bcd60e51b815260206004820152601e60248201527f436f6d70616e793a20706f7274616c20646f6573206e6f74206578697374000060448201526064016107d0565b306001600160a01b031681600001516001600160a01b0316636904c94d6040518163ffffffff1660e01b8152600401602060405180830381865afa158015611534573d6000803e3d6000fd5b505050506040513d601f19601f820116820180604052508101906115589190613cd6565b6001600160a01b031614949350505050565b60006115746130c3565b905061158f81600080516020613f92833981519152336130e7565b6115ab5760405162461bcd60e51b81526004016107d090613a48565b60006115b5613114565b805490915060ff166115d95760405162461bcd60e51b81526004016107d090613a93565b478311156116295760405162461bcd60e51b815260206004820152601d60248201527f436f6d70616e793a20696e73756666696369656e742062616c616e636500000060448201526064016107d0565b6000611633613114565b805460405191925061010090046001600160a01b0316906108fc8615029086906000818181858888f19350505050158015611672573d6000803e3d6000fd5b5050505050565b6116b26040518060c001604052806060815260200160608152602001606081526020016000815260200160008152602001600081525090565b60006116bc613114565b9050806003016040518060c00160405290816000820180546116dd90613aca565b80601f016020809104026020016040519081016040528092919081815260200182805461170990613aca565b80156117565780601f1061172b57610100808354040283529160200191611756565b820191906000526020600020905b81548152906001019060200180831161173957829003601f168201915b5050505050815260200160018201805461176f90613aca565b80601f016020809104026020016040519081016040528092919081815260200182805461179b90613aca565b80156117e85780601f106117bd576101008083540402835291602001916117e8565b820191906000526020600020905b8154815290600101906020018083116117cb57829003601f168201915b5050505050815260200160028201805461180190613aca565b80601f016020809104026020016040519081016040528092919081815260200182805461182d90613aca565b801561187a5780601f1061184f5761010080835404028352916020019161187a565b820191906000526020600020905b81548152906001019060200180831161185d57829003601f168201915b50505050508152602001600382015481526020016004820154815260200160058201548152505091505090565b6000806118b2613114565b600101546001600160a01b031692915050565b60006118cf6130c3565b90506118ea81600080516020613f92833981519152336130e7565b6119065760405162461bcd60e51b81526004016107d090613a48565b6000611910613114565b805490915060ff166119345760405162461bcd60e51b81526004016107d090613a93565b600061193e613114565b60020180546001600160a01b0319169055505050565b60008061195f613114565b805490915060ff166119835760405162461bcd60e51b81526004016107d090613a93565b6040516315bd8ac360e31b81526001600160a01b0387811660048301527f0000000000000000000000000000000000000000000000000000000000000000169063adec561890602401602060405180830381865afa1580156119e9573d6000803e3d6000fd5b505050506040513d601f19601f82011682018060405250810190611a0d9190613d5d565b611a595760405162461bcd60e51b815260206004820152601d60248201527f436f6d70616e793a206173736574206e6f74207265676973746572656400000060448201526064016107d0565b6000869050306001600160a01b0316816001600160a01b0316631d1438486040518163ffffffff1660e01b8152600401602060405180830381865afa158015611aa6573d6000803e3d6000fd5b505050506040513d601f19601f82011682018060405250810190611aca9190613cd6565b6001600160a01b031614611b205760405162461bcd60e51b815260206004820152601c60248201527f436f6d70616e793a206e6f7420697373756572206f662061737365740000000060448201526064016107d0565b604051634f2a605160e11b81526001600160a01b03821690639e54c0a290611b5090899089908990600401613d7f565b602060405180830381865afa158015611b6d573d6000803e3d6000fd5b505050506040513d601f19601f82011682018060405250810190611b919190613d5d565b611bdd5760405162461bcd60e51b815260206004820152601f60248201527f436f6d70616e793a2063616e6e6f74206d696e7420746f20616464726573730060448201526064016107d0565b604051632b0fe8e760e21b81526001600160a01b0387811660048301527f0000000000000000000000000000000000000000000000000000000000000000169063ac3fa39c90602401602060405180830381865afa158015611c43573d6000803e3d6000fd5b505050506040513d601f19601f82011682018060405250810190611c679190613d5d565b611c75576001925050611eb2565b6000869050806001600160a01b031663181d939b6040518163ffffffff1660e01b8152600401602060405180830381865afa158015611cb8573d6000803e3d6000fd5b505050506040513d601f19601f82011682018060405250810190611cdc9190613d5d565b611eab576000816001600160a01b031663516f279e6040518163ffffffff1660e01b8152600401602060405180830381865afa158015611d20573d6000803e3d6000fd5b505050506040513d601f19601f82011682018060405250810190611d449190613cd6565b90506001600160a01b038116611db25760405162461bcd60e51b815260206004820152602d60248201527f436f6d70616e793a20617661746172206c6f636174696f6e206973206e6f742060448201526c616e20657870657269656e636560981b60648201526084016107d0565b306001600160a01b0316816001600160a01b0316636904c94d6040518163ffffffff1660e01b8152600401602060405180830381865afa158015611dfa573d6000803e3d6000fd5b505050506040513d601f19601f82011682018060405250810190611e1e9190613cd6565b6001600160a01b031614611ea95760405162461bcd60e51b815260206004820152604660248201527f436f6d70616e793a20617661746172206c6f636174696f6e206973206e6f742060448201527f696e20616e20657870657269656e6365206f776e6564206279207468697320636064820152656f6d70616e7960d01b608482015260a4016107d0565b505b6001935050505b50949350505050565b6000611ec56130c3565b9050611ee081600080516020613f72833981519152336130e7565b611efc5760405162461bcd60e51b81526004016107d090613b04565b6000611f06613114565b805490915060ff16611f2a5760405162461bcd60e51b81526004016107d090613a93565b611f32613138565b6040516315bd8ac360e31b81526001600160a01b0387811660048301527f0000000000000000000000000000000000000000000000000000000000000000169063adec561890602401602060405180830381865afa158015611f98573d6000803e3d6000fd5b505050506040513d601f19601f82011682018060405250810190611fbc9190613d5d565b6120085760405162461bcd60e51b815260206004820152601d60248201527f436f6d70616e793a206173736574206e6f74207265676973746572656400000060448201526064016107d0565b6000869050306001600160a01b0316816001600160a01b0316631d1438486040518163ffffffff1660e01b8152600401602060405180830381865afa158015612055573d6000803e3d6000fd5b505050506040513d601f19601f820116820180604052508101906120799190613cd6565b6001600160a01b0316146120cf5760405162461bcd60e51b815260206004820152601c60248201527f436f6d70616e793a206e6f7420697373756572206f662061737365740000000060448201526064016107d0565b6040516326a5ce1160e21b81526001600160a01b03821690639a973844906120ff90899089908990600401613d7f565b600060405180830381600087803b15801561211957600080fd5b505af115801561212d573d6000803e3d6000fd5b505050505061213c6001600055565b505050505050565b600061214e6130c3565b905061216981600080516020613f92833981519152336130e7565b6121855760405162461bcd60e51b81526004016107d090613a48565b600061218f613114565b805490915060ff166121b35760405162461bcd60e51b81526004016107d090613a93565b6001600160a01b0383166122095760405162461bcd60e51b815260206004820152601b60248201527f436f6d70616e793a20686f6f6b2063616e6e6f7420626520307830000000000060448201526064016107d0565b6000612213613114565b60020180546001600160a01b0319166001600160a01b039590951694909417909355505050565b7f00000000000000000000000000000000000000000000000000000000000000006001600160a01b03166122ac5760405162461bcd60e51b815260206004820152601960248201527810dbdb5c185b9e4e881c9959da5cdd1c9e481b9bdd081cd95d603a1b60448201526064016107d0565b336001600160a01b037f000000000000000000000000000000000000000000000000000000000000000016146122f45760405162461bcd60e51b81526004016107d090613dbf565b60006122fe613114565b805460ff191681559050471561234f5780546040516001600160a01b0361010090920491909116904780156108fc02916000818181858888f1935050505015801561234d573d6000803e3d6000fd5b505b6040517fa1a961b1a2237b0757aff22aeafaad33ca80373bc4c839e24721ab9ba899321690600090a150565b7f00000000000000000000000000000000000000000000000000000000000000006001600160a01b03166123ec5760405162461bcd60e51b815260206004820152601860248201527710dbdb5c185b9e4e88199858dd1bdc9e481b9bdd081cd95d60421b60448201526064016107d0565b336001600160a01b037f000000000000000000000000000000000000000000000000000000000000000016146124345760405162461bcd60e51b81526004016107d090613c94565b600061243e613114565b805490915061010090046001600160a01b03161561249e5760405162461bcd60e51b815260206004820152601c60248201527f436f6d70616e793a20616c726561647920696e697469616c697a65640000000060448201526064016107d0565b81516001600160a01b03166124f55760405162461bcd60e51b815260206004820152601c60248201527f436f6d70616e793a206f776e65722063616e6e6f74206265203078300000000060448201526064016107d0565b60008260800151511161254a5760405162461bcd60e51b815260206004820152601d60248201527f436f6d70616e793a206e616d652063616e6e6f7420626520656d70747900000060448201526064016107d0565b60208201516001600160a01b03166125a45760405162461bcd60e51b815260206004820152601c60248201527f436f6d70616e793a20776f726c642063616e6e6f74206265203078300000000060448201526064016107d0565b81518154610100600160a81b0319166101006001600160a01b039283160217825560208301516001830180546001600160a01b0319169190921617905560408201518051600383019081906125f99082613e4a565b506020820151600182019061260e9082613e4a565b50604082015160028201906126239082613e4a565b5060608201516003820155608080830151600483015560a09092015160059091015582015160098201906126579082613e4a565b50805460ff19166001178155600061266d6130c3565b835190915061268d908290600080516020613f9283398151915290613162565b8251611093908290600080516020613f7283398151915290613162565b60006126b46130c3565b90506126cf81600080516020613f92833981519152336130e7565b6126eb5760405162461bcd60e51b81526004016107d090613a48565b60006126f5613114565b805490915060ff166127195760405162461bcd60e51b81526004016107d090613a93565b6040516337eff0db60e11b81526001600160a01b038481166004830152859190821690636fdfe1b690602401600060405180830381600087803b15801561275f57600080fd5b505af1158015612773573d6000803e3d6000fd5b50506040516001600160a01b038088169350881691507f4006223aabe677a0b96c8061fc0a513086066d0eb09c0ca7c2daba806009702e90600090a35050505050565b60006127c06130c3565b90506127db81600080516020613f92833981519152336130e7565b6127f75760405162461bcd60e51b81526004016107d090613a48565b6000612801613114565b805490915060ff166128255760405162461bcd60e51b81526004016107d090613a93565b604051631169a49960e11b81526001600160a01b0384811660048301528516906322d3493290602401600060405180830381600087803b15801561286857600080fd5b505af115801561287c573d6000803e3d6000fd5b50506040516001600160a01b038087169350871691507f18b203d674efe131dd8ea462d1addb8df2ab0f9fe61e61417663e38ac97b98ee90600090a350505050565b60006128c86130c3565b90506128e381600080516020613f92833981519152336130e7565b6128ff5760405162461bcd60e51b81526004016107d090613a48565b6000612909613114565b805490915060ff1661292d5760405162461bcd60e51b81526004016107d090613a93565b612935613138565b600061293f613114565b600181015460405163530bdd9d60e01b81526001600160a01b0387811660048301529293506000929091169063530bdd9d906024016020604051808303816000875af1158015612993573d6000803e3d6000fd5b505050506040513d601f19601f820116820180604052508101906129b79190613f09565b9050846001600160a01b03167f32b5d601345b9420b2b2285aeaec64fff7f2fcb082220b952ef7c76879a847ec826040516129f491815260200190565b60405180910390a250506110936001600055565b606081604051602001612a1b9190613f22565b6040516020818303038152906040529050919050565b600080612a3c6130c3565b9050612a5781600080516020613f72833981519152856130e7565b9392505050565b600080612a69613114565b600201546001600160a01b031692915050565b6000612a866130c3565b9050612aa181600080516020613f92833981519152336130e7565b612abd5760405162461bcd60e51b81526004016107d090613a48565b6110938383613195565b600080612ad2613114565b5461010090046001600160a01b031692915050565b6000612af16130c3565b9050612b0c81600080516020613f92833981519152336130e7565b612b285760405162461bcd60e51b81526004016107d090613a48565b6000612b32613114565b805490915060ff16612b565760405162461bcd60e51b81526004016107d090613a93565b6000839050806001600160a01b03166358779dcf6040518163ffffffff1660e01b8152600401600060405180830381600087803b158015612b9657600080fd5b505af1158015612baa573d6000803e3d6000fd5b50506040516001600160a01b03871692507f26869f3308be657b43d5d73417f4e27a529e73990ba65d6296facce0b0c0b9029150600090a250505050565b6000612bf26130c3565b9050612c0d81600080516020613f92833981519152336130e7565b612c295760405162461bcd60e51b81526004016107d090613a48565b6000612c33613114565b805490915060ff16612c575760405162461bcd60e51b81526004016107d090613a93565b604051632539464560e01b81526000906001600160a01b03861690632539464590612c8690879060040161345d565b6020604051808303816000875af1158015612ca5573d6000803e3d6000fd5b505050506040513d601f19601f82011682018060405250810190612cc99190613cd6565b9050806001600160a01b0316856001600160a01b03167fbf7fb47447dbef72e45b9f77827e29a57677da0190acbb5c606a8a7acdca0da460405160405180910390a35050505050565b7f00000000000000000000000000000000000000000000000000000000000000006001600160a01b0316612d845760405162461bcd60e51b815260206004820152601960248201527810dbdb5c185b9e4e881c9959da5cdd1c9e481b9bdd081cd95d603a1b60448201526064016107d0565b336001600160a01b037f00000000000000000000000000000000000000000000000000000000000000001614612dcc5760405162461bcd60e51b81526004016107d090613dbf565b6000612dd6613114565b805460ff191660011781556040519091507fc9663b20bf4752507751d7ec98f8481f07dcbdad89f5172ef8913801dcdc938b90600090a150565b6000612e1a6130c3565b9050612e3581600080516020613f92833981519152336130e7565b612e515760405162461bcd60e51b81526004016107d090613a48565b6000612e5b613114565b805490915060ff16612e7f5760405162461bcd60e51b81526004016107d090613a93565b604051632539464560e01b815284906000906001600160a01b03831690632539464590612eb090889060040161345d565b6020604051808303816000875af1158015612ecf573d6000803e3d6000fd5b505050506040513d601f19601f82011682018060405250810190612ef39190613cd6565b9050806001600160a01b0316866001600160a01b03167f145f0be334839783469cf7a36b844c157703c7184ba2395f27ecfcfee9925bf560405160405180910390a3505050505050565b6000612f476130c3565b9050612f6281600080516020613f92833981519152336130e7565b612f7e5760405162461bcd60e51b81526004016107d090613a48565b611093838361327e565b6000612f926130c3565b9050612fad81600080516020613f72833981519152336130e7565b612fc95760405162461bcd60e51b81526004016107d090613b04565b6000612fd3613114565b805490915060ff16612ff75760405162461bcd60e51b81526004016107d090613a93565b612fff613138565b61300b86868686611954565b6130575760405162461bcd60e51b815260206004820152601a60248201527f436f6d70616e793a2063616e6e6f74206d696e7420617373657400000000000060448201526064016107d0565b60405163b510391f60e01b81526001600160a01b0387169063b510391f9061308790889088908890600401613d7f565b600060405180830381600087803b1580156130a157600080fd5b505af11580156130b5573d6000803e3d6000fd5b5050505061213c6001600055565b7f69198989339f34e10129e514286bde98979351148754faef989dde18bf6d14da90565b6000918252600192909201602090815260408083206001600160a01b039094168352929052205460ff1690565b7f6373b2650f68a30b6fdd87e3caf4df754a3a8f8ef4b09bbd1bb4ff21f356aa2c90565b60026000540361315b57604051633ee5aeb560e01b815260040160405180910390fd5b6002600055565b60009182526001928301602090815260408084206001600160a01b0390931684529190529020805460ff19169091179055565b600061319f6130c3565b905060005b8281101561327857613214600080516020613f728339815191528585848181106131d0576131d0613f5b565b90506020020160208101906131e591906134e3565b600091825260018501602090815260408084206001600160a01b0390931684529190529020805460ff19169055565b83838281811061322657613226613f5b565b905060200201602081019061323b91906134e3565b6001600160a01b03167f3525e22824a8a7df2c9a6029941c824cf95b6447f1e13d5128fd3826d35afe8b60405160405180910390a26001016131a4565b50505050565b60006132886130c3565b905060005b828110156132785760008484838181106132a9576132a9613f5b565b90506020020160208101906132be91906134e3565b6001600160a01b03160361331e5760405162461bcd60e51b815260206004820152602160248201527f4261736550726f78793a207369676e6572206973207a65726f206164647265736044820152607360f81b60648201526084016107d0565b61335f600080516020613f7283398151915285858481811061334257613342613f5b565b905060200201602081019061335791906134e3565b849190613162565b83838281811061337157613371613f5b565b905060200201602081019061338691906134e3565b6001600160a01b03167f47d1c22a25bb3a5d4e481b9b1e6944c2eade3181a0a20b495ed61d35b5323f2460405160405180910390a260010161328d565b6001600160a01b03811681146133d857600080fd5b50565b80356133e6816133c3565b919050565b600080604083850312156133fe57600080fd5b8235613409816133c3565b946020939093013593505050565b6000815180845260005b8181101561343d57602081850181015186830182015201613421565b506000602082860101526020601f19601f83011685010191505092915050565b602081526000612a576020830184613417565b6000806040838503121561348357600080fd5b823561348e816133c3565b9150602083013561349e816133c3565b809150509250929050565b6000602082840312156134bb57600080fd5b81356001600160401b038111156134d157600080fd5b820160808185031215612a5757600080fd5b6000602082840312156134f557600080fd5b8135612a57816133c3565b634e487b7160e01b600052604160045260246000fd5b60405160c081016001600160401b038111828210171561353857613538613500565b60405290565b60405160a081016001600160401b038111828210171561353857613538613500565b600082601f83011261357157600080fd5b81356001600160401b038082111561358b5761358b613500565b604051601f8301601f19908116603f011681019082821181831017156135b3576135b3613500565b816040528381528660208588010111156135cc57600080fd5b836020870160208301376000602085830101528094505050505092915050565b6000602082840312156135fe57600080fd5b81356001600160401b038082111561361557600080fd5b908301906040828603121561362957600080fd5b60405160408101818110838211171561364457613644613500565b60405282358281111561365657600080fd5b61366287828601613560565b82525060208301358281111561367757600080fd5b61368387828601613560565b60208301525095945050505050565b6000602082840312156136a457600080fd5b81356001600160401b038111156136ba57600080fd5b6136c684828501613560565b949350505050565b6000602082840312156136e057600080fd5b5035919050565b6000815160c084526136fc60c0850182613417565b9050602083015184820360208601526137158282613417565b9150506040830151848203604086015261372f8282613417565b915050606083015160608501526080830151608085015260a083015160a08501528091505092915050565b602081526000612a5760208301846136e7565b6000806000806060858703121561378357600080fd5b843561378e816133c3565b9350602085013561379e816133c3565b925060408501356001600160401b03808211156137ba57600080fd5b818701915087601f8301126137ce57600080fd5b8135818111156137dd57600080fd5b8860208285010111156137ef57600080fd5b95989497505060200194505050565b600060c0828403121561381057600080fd5b613818613516565b905081356001600160401b038082111561383157600080fd5b61383d85838601613560565b8352602084013591508082111561385357600080fd5b61385f85838601613560565b6020840152604084013591508082111561387857600080fd5b5061388584828501613560565b604083015250606082013560608201526080820135608082015260a082013560a082015292915050565b6000602082840312156138c157600080fd5b81356001600160401b03808211156138d857600080fd5b9083019060a082860312156138ec57600080fd5b6138f461353e565b6138fd836133db565b815261390b602084016133db565b602082015260408301358281111561392257600080fd5b61392e878286016137fe565b60408301525060608301358281111561394657600080fd5b61395287828601613560565b60608301525060808301358281111561396a57600080fd5b61397687828601613560565b60808301525095945050505050565b6000806020838503121561399857600080fd5b82356001600160401b03808211156139af57600080fd5b818501915085601f8301126139c357600080fd5b8135818111156139d257600080fd5b8660208260051b85010111156139e757600080fd5b60209290920196919550909350505050565b60008060408385031215613a0c57600080fd5b8235613a17816133c3565b915060208301356001600160401b03811115613a3257600080fd5b613a3e85828601613560565b9150509250929050565b6020808252602b908201527f426173654163636573733a2063616c6c657220646f6573206e6f74206861766560408201526a2061646d696e20726f6c6560a81b606082015260800190565b6020808252601e908201527f436f6d70616e793a20636f6d70616e79206973206e6f74206163746976650000604082015260600190565b600181811c90821680613ade57607f821691505b602082108103613afe57634e487b7160e01b600052602260045260246000fd5b50919050565b6020808252602c908201527f426173654163636573733a2063616c6c657220646f6573206e6f74206861766560408201526b207369676e657220726f6c6560a01b606082015260800190565b6000808335601e19843603018112613b6757600080fd5b8301803591506001600160401b03821115613b8157600080fd5b602001915036819003821315613b9657600080fd5b9250929050565b602081528151602082015260208201516040820152600060408301516060808401526136c66080840182613417565b600060018201613bec57634e487b7160e01b600052601160045260246000fd5b5060010190565b602081526000825160806020840152613c0f60a08401826136e7565b905060018060a01b0360208501511660408401526040840151601f1980858403016060860152613c3f8383613417565b9250606086015191508085840301608086015250613c5d8282613417565b95945050505050565b60008060408385031215613c7957600080fd5b8251613c84816133c3565b6020939093015192949293505050565b60208082526022908201527f436f6d70616e793a2063616c6c6572206973206e6f742074686520666163746f604082015261727960f01b606082015260800190565b600060208284031215613ce857600080fd5b8151612a57816133c3565b600060608284031215613d0557600080fd5b604051606081018181106001600160401b0382111715613d2757613d27613500565b6040528251613d35816133c3565b81526020830151613d45816133c3565b60208201526040928301519281019290925250919050565b600060208284031215613d6f57600080fd5b81518015158114612a5757600080fd5b6001600160a01b03841681526040602082018190528101829052818360608301376000818301606090810191909152601f909201601f1916010192915050565b60208082526023908201527f436f6d70616e793a2063616c6c6572206973206e6f742074686520726567697360408201526274727960e81b606082015260800190565b601f821115611093576000816000526020600020601f850160051c81016020861015613e2b5750805b601f850160051c820191505b8181101561213c57828155600101613e37565b81516001600160401b03811115613e6357613e63613500565b613e7781613e718454613aca565b84613e02565b602080601f831160018114613eac5760008415613e945750858301515b600019600386901b1c1916600185901b17855561213c565b600085815260208120601f198616915b82811015613edb57888601518255948401946001909101908401613ebc565b5085821015613ef95787850151600019600388901b60f8161c191681555b5050505050600190811b01905550565b600060208284031215613f1b57600080fd5b5051919050565b602081526000825160406020840152613f3e6060840182613417565b90506020840151601f19848303016040850152613c5d8282613417565b634e487b7160e01b600052603260045260246000fdfee2f4eaae4a9751e85a3e4a7b9587827a877f29914755229b07a7b2da98285f70a49807205ce4d355092ef5a8a18f56e8913cf4a201fbe287825b095693c21775a2646970667358221220d8ee01117e8774617d9efa9322d55bda7e2b83d9230c320433559b229084a54864736f6c63430008180033",
  "linkReferences": {},
  "deployedLinkReferences": {}
}