{
  "_format": "hh-sol-artifact-1",
  "contractName": "Company",
  "sourceName": "contracts/company/Company.sol",
  "abi": [
    {
      "inputs": [
        {
          "components": [
            {
              "internalType": "address",
              "name": "companyFactory",
              "type": "address"
            },
            {
              "internalType": "address",
              "name": "companyRegistry",
              "type": "address"
            },
            {
              "internalType": "contract IExperienceRegistry",
              "name": "experienceRegistry",
              "type": "address"
            },
            {
              "internalType": "contract IAssetRegistry",
              "name": "assetRegistry",
              "type": "address"
            },
            {
              "internalType": "contract IAvatarRegistry",
              "name": "avatarRegistry",
              "type": "address"
            }
          ],
          "internalType": "struct CompanyConstructorArgs",
          "name": "args",
          "type": "tuple"
        }
      ],
      "stateMutability": "nonpayable",
      "type": "constructor"
    },
    {
      "inputs": [],
      "name": "ReentrancyGuardReentrantCall",
      "type": "error"
    },
    {
      "anonymous": false,
      "inputs": [
        {
          "indexed": true,
          "internalType": "address",
          "name": "asset",
          "type": "address"
        },
        {
          "indexed": true,
          "internalType": "address",
          "name": "to",
          "type": "address"
        },
        {
          "indexed": false,
          "internalType": "uint256",
          "name": "amountOrTokenId",
          "type": "uint256"
        }
      ],
      "name": "AssetMinted",
      "type": "event"
    },
    {
      "anonymous": false,
      "inputs": [
        {
          "indexed": true,
          "internalType": "address",
          "name": "asset",
          "type": "address"
        },
        {
          "indexed": true,
          "internalType": "address",
          "name": "holder",
          "type": "address"
        },
        {
          "indexed": false,
          "internalType": "uint256",
          "name": "amountOrTokenId",
          "type": "uint256"
        }
      ],
      "name": "AssetRevoked",
      "type": "event"
    },
    {
      "anonymous": false,
      "inputs": [],
      "name": "CompanyHookRemoved",
      "type": "event"
    },
    {
      "anonymous": false,
      "inputs": [
        {
          "indexed": true,
          "internalType": "address",
          "name": "hook",
          "type": "address"
        }
      ],
      "name": "CompanyHookSet",
      "type": "event"
    },
    {
      "anonymous": false,
      "inputs": [
        {
          "indexed": true,
          "internalType": "address",
          "name": "oldVersion",
          "type": "address"
        },
        {
          "indexed": true,
          "internalType": "address",
          "name": "nextVersion",
          "type": "address"
        }
      ],
      "name": "CompanyUpgraded",
      "type": "event"
    },
    {
      "anonymous": false,
      "inputs": [
        {
          "indexed": true,
          "internalType": "address",
          "name": "experience",
          "type": "address"
        },
        {
          "indexed": false,
          "internalType": "uint256",
          "name": "portalId",
          "type": "uint256"
        }
      ],
      "name": "ExperienceAdded",
      "type": "event"
    },
    {
      "anonymous": false,
      "inputs": [
        {
          "indexed": true,
          "internalType": "address",
          "name": "signer",
          "type": "address"
        }
      ],
      "name": "SignerAdded",
      "type": "event"
    },
    {
      "anonymous": false,
      "inputs": [
        {
          "indexed": true,
          "internalType": "address",
          "name": "signer",
          "type": "address"
        }
      ],
      "name": "SignerRemoved",
      "type": "event"
    },
    {
      "inputs": [
        {
          "internalType": "address",
          "name": "asset",
          "type": "address"
        },
        {
          "internalType": "contract IAssetHook",
          "name": "aHook",
          "type": "address"
        }
      ],
      "name": "addAssetHook",
      "outputs": [],
      "stateMutability": "nonpayable",
      "type": "function"
    },
    {
      "inputs": [
        {
          "components": [
            {
              "internalType": "string",
              "name": "name",
              "type": "string"
            },
            {
              "internalType": "bytes",
              "name": "initData",
              "type": "bytes"
            }
          ],
          "internalType": "struct AddExperienceArgs",
          "name": "args",
          "type": "tuple"
        }
      ],
      "name": "addExperience",
      "outputs": [],
      "stateMutability": "nonpayable",
      "type": "function"
    },
    {
      "inputs": [
        {
          "internalType": "address",
          "name": "experience",
          "type": "address"
        },
        {
          "internalType": "address",
          "name": "condition",
          "type": "address"
        }
      ],
      "name": "addExperienceCondition",
      "outputs": [],
      "stateMutability": "nonpayable",
      "type": "function"
    },
    {
      "inputs": [
        {
          "internalType": "address",
          "name": "signer",
          "type": "address"
        }
      ],
      "name": "addSigner",
      "outputs": [],
      "stateMutability": "nonpayable",
      "type": "function"
    },
    {
      "inputs": [],
      "name": "assetRegistry",
      "outputs": [
        {
          "internalType": "contract IAssetRegistry",
          "name": "",
          "type": "address"
        }
      ],
      "stateMutability": "view",
      "type": "function"
    },
    {
      "inputs": [],
      "name": "avatarRegistry",
      "outputs": [
        {
          "internalType": "contract IAvatarRegistry",
          "name": "",
          "type": "address"
        }
      ],
      "stateMutability": "view",
      "type": "function"
    },
    {
      "inputs": [
        {
          "internalType": "address",
          "name": "asset",
          "type": "address"
        },
        {
          "internalType": "address",
          "name": "to",
          "type": "address"
        },
        {
          "internalType": "uint256",
          "name": "",
          "type": "uint256"
        }
      ],
      "name": "canMint",
      "outputs": [
        {
          "internalType": "bool",
          "name": "",
          "type": "bool"
        }
      ],
      "stateMutability": "view",
      "type": "function"
    },
    {
      "inputs": [
        {
          "internalType": "address",
          "name": "experience",
          "type": "address"
        },
        {
          "internalType": "uint256",
          "name": "fee",
          "type": "uint256"
        }
      ],
      "name": "changeExperiencePortalFee",
      "outputs": [],
      "stateMutability": "nonpayable",
      "type": "function"
    },
    {
      "inputs": [],
      "name": "companyFactory",
      "outputs": [
        {
          "internalType": "address",
          "name": "",
          "type": "address"
        }
      ],
      "stateMutability": "view",
      "type": "function"
    },
    {
      "inputs": [],
      "name": "companyRegistry",
      "outputs": [
        {
          "internalType": "contract ICompanyRegistry",
          "name": "",
          "type": "address"
        }
      ],
      "stateMutability": "view",
      "type": "function"
    },
    {
      "inputs": [
        {
          "components": [
            {
              "internalType": "address",
              "name": "avatar",
              "type": "address"
            },
            {
              "internalType": "uint256",
              "name": "portalId",
              "type": "uint256"
            },
            {
              "internalType": "uint256",
              "name": "agreedFee",
              "type": "uint256"
            },
            {
              "internalType": "bytes",
              "name": "avatarOwnerSignature",
              "type": "bytes"
            }
          ],
          "internalType": "struct DelegatedAvatarJumpRequest",
          "name": "request",
          "type": "tuple"
        }
      ],
      "name": "delegateJumpForAvatar",
      "outputs": [],
      "stateMutability": "payable",
      "type": "function"
    },
    {
      "inputs": [
        {
          "components": [
            {
              "internalType": "string",
              "name": "name",
              "type": "string"
            },
            {
              "internalType": "bytes",
              "name": "initData",
              "type": "bytes"
            }
          ],
          "internalType": "struct AddExperienceArgs",
          "name": "args",
          "type": "tuple"
        }
      ],
      "name": "encodeExperienceArgs",
      "outputs": [
        {
          "internalType": "bytes",
          "name": "",
          "type": "bytes"
        }
      ],
      "stateMutability": "pure",
      "type": "function"
    },
    {
      "inputs": [],
      "name": "experienceRegistry",
      "outputs": [
        {
          "internalType": "contract IExperienceRegistry",
          "name": "",
          "type": "address"
        }
      ],
      "stateMutability": "view",
      "type": "function"
    },
    {
      "inputs": [
        {
          "components": [
            {
              "internalType": "address",
              "name": "owner",
              "type": "address"
            },
            {
              "internalType": "address",
              "name": "world",
              "type": "address"
            },
            {
              "components": [
                {
                  "internalType": "string",
                  "name": "x",
                  "type": "string"
                },
                {
                  "internalType": "string",
                  "name": "y",
                  "type": "string"
                },
                {
                  "internalType": "string",
                  "name": "z",
                  "type": "string"
                },
                {
                  "internalType": "uint256",
                  "name": "t",
                  "type": "uint256"
                },
                {
                  "internalType": "uint256",
                  "name": "p",
                  "type": "uint256"
                },
                {
                  "internalType": "uint256",
                  "name": "p_sub",
                  "type": "uint256"
                }
              ],
              "internalType": "struct VectorAddress",
              "name": "vector",
              "type": "tuple"
            },
            {
              "internalType": "bytes",
              "name": "initData",
              "type": "bytes"
            },
            {
              "internalType": "string",
              "name": "name",
              "type": "string"
            }
          ],
          "internalType": "struct CompanyInitArgs",
          "name": "request",
          "type": "tuple"
        }
      ],
      "name": "init",
      "outputs": [],
      "stateMutability": "nonpayable",
      "type": "function"
    },
    {
      "inputs": [
        {
          "internalType": "address",
          "name": "signer",
          "type": "address"
        }
      ],
      "name": "isSigner",
      "outputs": [
        {
          "internalType": "bool",
          "name": "",
          "type": "bool"
        }
      ],
      "stateMutability": "view",
      "type": "function"
    },
    {
      "inputs": [
        {
          "internalType": "address",
          "name": "asset",
          "type": "address"
        },
        {
          "internalType": "address",
          "name": "to",
          "type": "address"
        },
        {
          "internalType": "uint256",
          "name": "amount",
          "type": "uint256"
        }
      ],
      "name": "mint",
      "outputs": [],
      "stateMutability": "nonpayable",
      "type": "function"
    },
    {
      "inputs": [],
      "name": "name",
      "outputs": [
        {
          "internalType": "string",
          "name": "",
          "type": "string"
        }
      ],
      "stateMutability": "view",
      "type": "function"
    },
    {
      "inputs": [],
      "name": "owner",
      "outputs": [
        {
          "internalType": "address",
          "name": "",
          "type": "address"
        }
      ],
      "stateMutability": "view",
      "type": "function"
    },
    {
      "inputs": [
        {
          "internalType": "address",
          "name": "asset",
          "type": "address"
        }
      ],
      "name": "removeAssetHook",
      "outputs": [],
      "stateMutability": "nonpayable",
      "type": "function"
    },
    {
      "inputs": [
        {
          "internalType": "address",
          "name": "experience",
          "type": "address"
        }
      ],
      "name": "removeExperienceCondition",
      "outputs": [],
      "stateMutability": "nonpayable",
      "type": "function"
    },
    {
      "inputs": [],
      "name": "removeHook",
      "outputs": [],
      "stateMutability": "nonpayable",
      "type": "function"
    },
    {
      "inputs": [
        {
          "internalType": "address",
          "name": "signer",
          "type": "address"
        }
      ],
      "name": "removeSigner",
      "outputs": [],
      "stateMutability": "nonpayable",
      "type": "function"
    },
    {
      "inputs": [
        {
          "internalType": "address",
          "name": "asset",
          "type": "address"
        },
        {
          "internalType": "address",
          "name": "holder",
          "type": "address"
        },
        {
          "internalType": "uint256",
          "name": "amountOrTokenId",
          "type": "uint256"
        }
      ],
      "name": "revoke",
      "outputs": [],
      "stateMutability": "nonpayable",
      "type": "function"
    },
    {
      "inputs": [
        {
          "internalType": "contract ICompanyHook",
          "name": "_hook",
          "type": "address"
        }
      ],
      "name": "setHook",
      "outputs": [],
      "stateMutability": "nonpayable",
      "type": "function"
    },
    {
      "inputs": [
        {
          "internalType": "bytes",
          "name": "initData",
          "type": "bytes"
        }
      ],
      "name": "upgrade",
      "outputs": [],
      "stateMutability": "nonpayable",
      "type": "function"
    },
    {
      "inputs": [
        {
          "internalType": "address",
          "name": "nextVersion",
          "type": "address"
        }
      ],
      "name": "upgradeComplete",
      "outputs": [],
      "stateMutability": "nonpayable",
      "type": "function"
    },
    {
      "inputs": [],
      "name": "upgraded",
      "outputs": [
        {
          "internalType": "bool",
          "name": "",
          "type": "bool"
        }
      ],
      "stateMutability": "view",
      "type": "function"
    },
    {
      "inputs": [],
      "name": "vectorAddress",
      "outputs": [
        {
          "components": [
            {
              "internalType": "string",
              "name": "x",
              "type": "string"
            },
            {
              "internalType": "string",
              "name": "y",
              "type": "string"
            },
            {
              "internalType": "string",
              "name": "z",
              "type": "string"
            },
            {
              "internalType": "uint256",
              "name": "t",
              "type": "uint256"
            },
            {
              "internalType": "uint256",
              "name": "p",
              "type": "uint256"
            },
            {
              "internalType": "uint256",
              "name": "p_sub",
              "type": "uint256"
            }
          ],
          "internalType": "struct VectorAddress",
          "name": "",
          "type": "tuple"
        }
      ],
      "stateMutability": "view",
      "type": "function"
    },
    {
      "inputs": [],
      "name": "version",
      "outputs": [
        {
          "internalType": "uint256",
          "name": "",
          "type": "uint256"
        }
      ],
      "stateMutability": "view",
      "type": "function"
    },
    {
      "inputs": [
        {
          "internalType": "uint256",
          "name": "amount",
          "type": "uint256"
        }
      ],
      "name": "withdraw",
      "outputs": [],
      "stateMutability": "nonpayable",
      "type": "function"
    },
    {
      "inputs": [],
      "name": "world",
      "outputs": [
        {
          "internalType": "address",
          "name": "",
          "type": "address"
        }
      ],
      "stateMutability": "view",
      "type": "function"
    },
    {
      "stateMutability": "payable",
      "type": "receive"
    }
  ],
  "bytecode": "0x6101206040523480156200001257600080fd5b50604051620031ee380380620031ee8339810160408190526200003591620002ba565b600160005580516001600160a01b0316620000a55760405162461bcd60e51b815260206004820152602560248201527f436f6d70616e793a20636f6d70616e79466163746f72792063616e6e6f742062604482015264065203078360dc1b60648201526084015b60405180910390fd5b60208101516001600160a01b0316620001105760405162461bcd60e51b815260206004820152602660248201527f436f6d70616e793a20636f6d70616e7952656769737472792063616e6e6f742060448201526506265203078360d41b60648201526084016200009c565b60408101516001600160a01b03166200017e5760405162461bcd60e51b815260206004820152602960248201527f436f6d70616e793a20657870657269656e636552656769737472792063616e6e60448201526806f74206265203078360bc1b60648201526084016200009c565b60608101516001600160a01b0316620001e65760405162461bcd60e51b8152602060048201526024808201527f436f6d70616e793a20617373657452656769737472792063616e6e6f742062656044820152630203078360e41b60648201526084016200009c565b60808101516001600160a01b0316620002505760405162461bcd60e51b815260206004820152602560248201527f436f6d70616e793a2061766174617252656769737472792063616e6e6f742062604482015264065203078360dc1b60648201526084016200009c565b80516001600160a01b0390811660809081526020830151821660a0526040830151821660c0526060830151821660e05290910151166101005262000365565b6001600160a01b0381168114620002a557600080fd5b50565b8051620002b5816200028f565b919050565b600060a08284031215620002cd57600080fd5b60405160a081016001600160401b0381118282101715620002fe57634e487b7160e01b600052604160045260246000fd5b60405282516200030e816200028f565b8152602083015162000320816200028f565b60208201526200033360408401620002a8565b60408201526200034660608401620002a8565b60608201526200035960808401620002a8565b60808201529392505050565b60805160a05160c05160e05161010051612e0c620003e2600039600081816105eb0152611a280152600081816104da015261190c0152600081816104a60152610db201526000818161054301528181610f3801528181610f6f0152610fee0152600081816105b7015281816114f301526115720152612e0c6000f3fe6080604052600436106101dc5760003560e01c806354fd4d50116101025780639e29186d11610095578063cd806c8b11610064578063cd806c8b14610585578063dc1c44be146105a5578063e3d7ad73146105d9578063eb12d61e1461060d57600080fd5b80639e29186d146104fc578063c28de2cd1461051c578063c51aba2b14610531578063c6c3bbe61461056557600080fd5b80637df73e27116100d15780637df73e271461045f5780638da5cb5b1461047f5780638f09a6be14610494578063979d7e86146104c857600080fd5b806354fd4d50146103cc57806357433ea6146103ef578063624a7dc71461040f5780637d4daec51461043f57600080fd5b8063253946451161017a57806330b67baa1161014957806330b67baa1461034a578063378f17ff146103775780633dfd38731461038c5780635466ddd5146103ac57600080fd5b806325394645146102c85780632663d1f7146102e85780632e1a7d4d146103085780632fcbab9a1461032857600080fd5b80631187b627116101b65780631187b6271461025557806316c49b11146102755780631961f05d14610288578063243546a6146102a857600080fd5b80630346f5f5146101e857806306fdde031461020a5780630e316ab71461023557600080fd5b366101e357005b600080fd5b3480156101f457600080fd5b50610208610203366004612477565b61062d565b005b34801561021657600080fd5b5061021f6106da565b60405161022c91906124e9565b60405180910390f35b34801561024157600080fd5b506102086102503660046124fc565b61077b565b34801561026157600080fd5b50610208610270366004612519565b610872565b610208610283366004612552565b610913565b34801561029457600080fd5b506102086102a33660046124fc565b610a62565b3480156102b457600080fd5b506102086102c336600461267c565b610afa565b3480156102d457600080fd5b506102086102e3366004612723565b610e99565b3480156102f457600080fd5b506102086103033660046124fc565b610f6d565b34801561031457600080fd5b50610208610323366004612760565b61109e565b34801561033457600080fd5b5061033d61117e565b60405161022c91906127ec565b34801561035657600080fd5b5061035f6113ac565b6040516001600160a01b03909116815260200161022c565b34801561038357600080fd5b506102086113ca565b34801561039857600080fd5b506102086103a73660046124fc565b61142a565b3480156103b857600080fd5b506102086103c73660046128b1565b6114f1565b3480156103d857600080fd5b506103e1600181565b60405190815260200161022c565b3480156103fb57600080fd5b5061020861040a366004612519565b611859565b34801561041b57600080fd5b5061042f61042a366004612988565b6118cb565b604051901515815260200161022c565b34801561044b57600080fd5b5061021f61045a36600461267c565b611bf5565b34801561046b57600080fd5b5061042f61047a3660046124fc565b611c1e565b34801561048b57600080fd5b5061035f611c44565b3480156104a057600080fd5b5061035f7f000000000000000000000000000000000000000000000000000000000000000081565b3480156104d457600080fd5b5061035f7f000000000000000000000000000000000000000000000000000000000000000081565b34801561050857600080fd5b506102086105173660046124fc565b611c64565b34801561052857600080fd5b5061042f611ce5565b34801561053d57600080fd5b5061035f7f000000000000000000000000000000000000000000000000000000000000000081565b34801561057157600080fd5b50610208610580366004612988565b611cfa565b34801561059157600080fd5b506102086105a0366004612988565b612045565b3480156105b157600080fd5b5061035f7f000000000000000000000000000000000000000000000000000000000000000081565b3480156105e557600080fd5b5061035f7f000000000000000000000000000000000000000000000000000000000000000081565b34801561061957600080fd5b506102086106283660046124fc565b612253565b600061063761237a565b905061065281600080516020612db78339815191523361239e565b6106775760405162461bcd60e51b815260040161066e906129c9565b60405180910390fd5b6040516383c3426360e01b81526004810183905283906001600160a01b038216906383c34263906024015b600060405180830381600087803b1580156106bc57600080fd5b505af11580156106d0573d6000803e3d6000fd5b5050505050505050565b606060006106e66123cb565b90508060090180546106f790612a00565b80601f016020809104026020016040519081016040528092919081815260200182805461072390612a00565b80156107705780601f1061074557610100808354040283529160200191610770565b820191906000526020600020905b81548152906001019060200180831161075357829003601f168201915b505050505091505090565b600061078561237a565b90506107a081600080516020612db78339815191523361239e565b6107bc5760405162461bcd60e51b815260040161066e906129c9565b6001600160a01b0382166108125760405162461bcd60e51b815260206004820152601d60248201527f436f6d70616e793a207369676e65722063616e6e6f7420626520307830000000604482015260640161066e565b600061081c61237a565b905061083981600080516020612d978339815191528560006123ef565b6040516001600160a01b038416907f3525e22824a8a7df2c9a6029941c824cf95b6447f1e13d5128fd3826d35afe8b90600090a2505050565b600061087c61237a565b905061089781600080516020612db78339815191523361239e565b6108b35760405162461bcd60e51b815260040161066e906129c9565b604051630f69c09d60e31b81526001600160a01b038381166004830152841690637b4e04e890602401600060405180830381600087803b1580156108f657600080fd5b505af115801561090a573d6000803e3d6000fd5b50505050505050565b600061091d61237a565b905061093881600080516020612d978339815191523361239e565b6109545760405162461bcd60e51b815260040161066e90612a3a565b600061095e6123cb565b805490915060ff16156109835760405162461bcd60e51b815260040161066e90612a71565b600061099260208501856124fc565b9050806001600160a01b0316637dc759e534604051806060016040528088602001358152602001886040013581526020018880606001906109d39190612ab4565b8080601f01602080910402602001604051908101604052809392919081815260200183838082843760009201919091525050509152506040516001600160e01b031960e085901b168152610a2a9190600401612b02565b6000604051808303818588803b158015610a4357600080fd5b505af1158015610a57573d6000803e3d6000fd5b505050505050505050565b6000610a6c61237a565b9050610a8781600080516020612db78339815191523361239e565b610aa35760405162461bcd60e51b815260040161066e906129c9565b816001600160a01b031663378f17ff6040518163ffffffff1660e01b8152600401600060405180830381600087803b158015610ade57600080fd5b505af1158015610af2573d6000803e3d6000fd5b505050505050565b6000610b0461237a565b9050610b1f81600080516020612d978339815191523361239e565b610b3b5760405162461bcd60e51b815260040161066e90612a3a565b6000610b456123cb565b805490915060ff1615610b6a5760405162461bcd60e51b815260040161066e90612a71565b610b72612428565b6000610b7c6123cb565b905080600a0160008154610b8f90612b31565b9190508190555060006040518060c00160405280836003016000018054610bb590612a00565b80601f0160208091040260200160405190810160405280929190818152602001828054610be190612a00565b8015610c2e5780601f10610c0357610100808354040283529160200191610c2e565b820191906000526020600020905b815481529060010190602001808311610c1157829003601f168201915b50505050508152602001836003016001018054610c4a90612a00565b80601f0160208091040260200160405190810160405280929190818152602001828054610c7690612a00565b8015610cc35780601f10610c9857610100808354040283529160200191610cc3565b820191906000526020600020905b815481529060010190602001808311610ca657829003601f168201915b50505050508152602001836003016002018054610cdf90612a00565b80601f0160208091040260200160405190810160405280929190818152602001828054610d0b90612a00565b8015610d585780601f10610d2d57610100808354040283529160200191610d58565b820191906000526020600020905b815481529060010190602001808311610d3b57829003601f168201915b50505050508152602001836003016003015481526020018360030160040154815260200183600a015481525090506000604051806060016040528083815260200187602001518152602001876000015181525090506000807f00000000000000000000000000000000000000000000000000000000000000006001600160a01b0316631305f017846040518263ffffffff1660e01b8152600401610dfc9190612b58565b60408051808303816000875af1158015610e1a573d6000803e3d6000fd5b505050506040513d601f19601f82011682018060405250810190610e3e9190612bb9565b91509150816001600160a01b03167f564792a0259ee41a56519990d80509a8057848327265f2075bcaac108651eab982604051610e7d91815260200190565b60405180910390a25050505050610e946001600055565b505050565b6000610ea361237a565b9050610ebe81600080516020612db78339815191523361239e565b610eda5760405162461bcd60e51b815260040161066e906129c9565b6000610ee46123cb565b805490915060ff1615610f095760405162461bcd60e51b815260040161066e90612a71565b6000610f136123cb565b805460ff1916600117815560405163d449cf2560e01b81529091506001600160a01b037f0000000000000000000000000000000000000000000000000000000000000000169063d449cf25906106a29087906004016124e9565b7f00000000000000000000000000000000000000000000000000000000000000006001600160a01b0316610fe35760405162461bcd60e51b815260206004820152601960248201527f436f6d70616e793a207265676973747279206e6f742073657400000000000000604482015260640161066e565b336001600160a01b037f000000000000000000000000000000000000000000000000000000000000000016146110675760405162461bcd60e51b815260206004820152602360248201527f436f6d70616e793a2063616c6c6572206973206e6f742074686520726567697360448201526274727960e81b606482015260840161066e565b61106f612428565b600061107961237a565b80546001600160a01b0319166001600160a01b03841617905550600160005550565b50565b60006110a861237a565b90506110c381600080516020612db78339815191523361239e565b6110df5760405162461bcd60e51b815260040161066e906129c9565b4782111561112f5760405162461bcd60e51b815260206004820152601d60248201527f436f6d70616e793a20696e73756666696369656e742062616c616e6365000000604482015260640161066e565b60006111396123cb565b805460405191925061010090046001600160a01b0316906108fc8515029085906000818181858888f19350505050158015611178573d6000803e3d6000fd5b50505050565b6111b76040518060c001604052806060815260200160608152602001606081526020016000815260200160008152602001600081525090565b60006111c16123cb565b9050806003016040518060c00160405290816000820180546111e290612a00565b80601f016020809104026020016040519081016040528092919081815260200182805461120e90612a00565b801561125b5780601f106112305761010080835404028352916020019161125b565b820191906000526020600020905b81548152906001019060200180831161123e57829003601f168201915b5050505050815260200160018201805461127490612a00565b80601f01602080910402602001604051908101604052809291908181526020018280546112a090612a00565b80156112ed5780601f106112c2576101008083540402835291602001916112ed565b820191906000526020600020905b8154815290600101906020018083116112d057829003601f168201915b5050505050815260200160028201805461130690612a00565b80601f016020809104026020016040519081016040528092919081815260200182805461133290612a00565b801561137f5780601f106113545761010080835404028352916020019161137f565b820191906000526020600020905b81548152906001019060200180831161136257829003601f168201915b50505050508152602001600382015481526020016004820154815260200160058201548152505091505090565b6000806113b76123cb565b600101546001600160a01b031692915050565b60006113d461237a565b90506113ef81600080516020612db78339815191523361239e565b61140b5760405162461bcd60e51b815260040161066e906129c9565b60006114156123cb565b60020180546001600160a01b03191690555050565b600061143461237a565b905061144f81600080516020612db78339815191523361239e565b61146b5760405162461bcd60e51b815260040161066e906129c9565b6001600160a01b0382166114c15760405162461bcd60e51b815260206004820152601b60248201527f436f6d70616e793a20686f6f6b2063616e6e6f74206265203078300000000000604482015260640161066e565b60006114cb6123cb565b60020180546001600160a01b0319166001600160a01b0394909416939093179092555050565b7f00000000000000000000000000000000000000000000000000000000000000006001600160a01b03166115675760405162461bcd60e51b815260206004820152601860248201527f436f6d70616e793a20666163746f7279206e6f74207365740000000000000000604482015260640161066e565b336001600160a01b037f000000000000000000000000000000000000000000000000000000000000000016146115ea5760405162461bcd60e51b815260206004820152602260248201527f436f6d70616e793a2063616c6c6572206973206e6f742074686520666163746f604482015261727960f01b606482015260840161066e565b60006115f46123cb565b805490915061010090046001600160a01b0316156116545760405162461bcd60e51b815260206004820152601c60248201527f436f6d70616e793a20616c726561647920696e697469616c697a656400000000604482015260640161066e565b81516001600160a01b03166116ab5760405162461bcd60e51b815260206004820152601c60248201527f436f6d70616e793a206f776e65722063616e6e6f742062652030783000000000604482015260640161066e565b6000826080015151116117005760405162461bcd60e51b815260206004820152601d60248201527f436f6d70616e793a206e616d652063616e6e6f7420626520656d707479000000604482015260640161066e565b60208201516001600160a01b031661175a5760405162461bcd60e51b815260206004820152601c60248201527f436f6d70616e793a20776f726c642063616e6e6f742062652030783000000000604482015260640161066e565b81518154610100600160a81b0319166101006001600160a01b039283160217825560208301516001830180546001600160a01b0319169190921617905560408201518051600383019081906117af9082612c2f565b50602082015160018201906117c49082612c2f565b50604082015160028201906117d99082612c2f565b5060608201516003820155608080830151600483015560a090920151600590910155820151600982019061180d9082612c2f565b50600061181861237a565b835190915061183a908290600080516020612db78339815191529060016123ef565b8251610e94908290600080516020612d978339815191529060016123ef565b600061186361237a565b905061187e81600080516020612db78339815191523361239e565b61189a5760405162461bcd60e51b815260040161066e906129c9565b6040516337eff0db60e11b81526001600160a01b038381166004830152849190821690636fdfe1b6906024016106a2565b6000806118d66123cb565b805490915060ff16156118ed576000915050611bee565b6040516315bd8ac360e31b81526001600160a01b0386811660048301527f0000000000000000000000000000000000000000000000000000000000000000169063adec561890602401602060405180830381865afa158015611953573d6000803e3d6000fd5b505050506040513d601f19601f820116820180604052508101906119779190612cef565b611985576000915050611bee565b306001600160a01b0316856001600160a01b0316631d1438486040518163ffffffff1660e01b8152600401602060405180830381865afa1580156119cd573d6000803e3d6000fd5b505050506040513d601f19601f820116820180604052508101906119f19190612d11565b6001600160a01b031614611a09576000915050611bee565b604051632b0fe8e760e21b81526001600160a01b0385811660048301527f0000000000000000000000000000000000000000000000000000000000000000169063ac3fa39c90602401602060405180830381865afa158015611a6f573d6000803e3d6000fd5b505050506040513d601f19601f82011682018060405250810190611a939190612cef565b611aa1576001915050611bee565b6000846001600160a01b031663516f279e6040518163ffffffff1660e01b8152600401602060405180830381865afa158015611ae1573d6000803e3d6000fd5b505050506040513d601f19601f82011682018060405250810190611b059190612d11565b90506001600160a01b038116611b735760405162461bcd60e51b815260206004820152602d60248201527f436f6d70616e793a20617661746172206c6f636174696f6e206973206e6f742060448201526c616e20657870657269656e636560981b606482015260840161066e565b306001600160a01b0316816001600160a01b0316636904c94d6040518163ffffffff1660e01b8152600401602060405180830381865afa158015611bbb573d6000803e3d6000fd5b505050506040513d601f19601f82011682018060405250810190611bdf9190612d11565b6001600160a01b031614925050505b9392505050565b606081604051602001611c089190612d2e565b6040516020818303038152906040529050919050565b600080611c2961237a565b9050611bee81600080516020612d978339815191528561239e565b600080611c4f6123cb565b5461010090046001600160a01b031692915050565b6000611c6e61237a565b9050611c8981600080516020612db78339815191523361239e565b611ca55760405162461bcd60e51b815260040161066e906129c9565b6000829050806001600160a01b03166358779dcf6040518163ffffffff1660e01b8152600401600060405180830381600087803b1580156108f657600080fd5b600080611cf06123cb565b5460ff1692915050565b6000611d0461237a565b9050611d1f81600080516020612d978339815191523361239e565b611d3b5760405162461bcd60e51b815260040161066e90612a3a565b6000611d456123cb565b805490915060ff1615611d6a5760405162461bcd60e51b815260040161066e90612a71565b611d72612428565b611d7d8585856118cb565b611dc95760405162461bcd60e51b815260206004820152601a60248201527f436f6d70616e793a2063616e6e6f74206d696e74206173736574000000000000604482015260640161066e565b6000856001600160a01b0316633fe3347a6040518163ffffffff1660e01b8152600401602060405180830381865afa158015611e09573d6000803e3d6000fd5b505050506040513d601f19601f82011682018060405250810190611e2d9190612d67565b6002811115611e3e57611e3e612d80565b90506001816002811115611e5457611e54612d80565b03611f0d576040516340c10f1960e01b81526001600160a01b038681166004830152602482018690528716906340c10f1990604401600060405180830381600087803b158015611ea357600080fd5b505af1158015611eb7573d6000803e3d6000fd5b50505050846001600160a01b0316866001600160a01b03167f9f8f31349c47dec18bab6fd70c3f360209248439f904d89f5bd13bbc42b0680786604051611f0091815260200190565b60405180910390a3612033565b6002816002811115611f2157611f21612d80565b03611feb576040516335313c2160e11b81526001600160a01b03868116600483015260009190881690636a627842906024016020604051808303816000875af1158015611f72573d6000803e3d6000fd5b505050506040513d601f19601f82011682018060405250810190611f969190612d67565b9050856001600160a01b0316876001600160a01b03167f9f8f31349c47dec18bab6fd70c3f360209248439f904d89f5bd13bbc42b0680783604051611fdd91815260200190565b60405180910390a350612033565b60405162461bcd60e51b815260206004820152601f60248201527f436f6d70616e793a20756e737570706f72746564206173736574207479706500604482015260640161066e565b5061203e6001600055565b5050505050565b600061204f61237a565b905061206a81600080516020612d978339815191523361239e565b6120865760405162461bcd60e51b815260040161066e90612a3a565b60006120906123cb565b805490915060ff16156120b55760405162461bcd60e51b815260040161066e90612a71565b6120bd612428565b6000856001600160a01b0316633fe3347a6040518163ffffffff1660e01b8152600401602060405180830381865afa1580156120fd573d6000803e3d6000fd5b505050506040513d601f19601f820116820180604052508101906121219190612d67565b600281111561213257612132612d80565b9050600181600281111561214857612148612d80565b036121b55760405163eac449d960e01b81526001600160a01b0386811660048301526024820186905287169063eac449d9906044015b600060405180830381600087803b15801561219857600080fd5b505af11580156121ac573d6000803e3d6000fd5b505050506121fb565b60028160028111156121c9576121c9612d80565b03611feb576040516320c5429b60e01b8152600481018590526001600160a01b038716906320c5429b9060240161217e565b846001600160a01b0316866001600160a01b03167f5561832f82bd612a3ed1e1014b38299755bc4acc641249d9108bd59c1ade68e38660405161224091815260200190565b60405180910390a35061203e6001600055565b600061225d61237a565b905061227881600080516020612db78339815191523361239e565b6122945760405162461bcd60e51b815260040161066e906129c9565b600061229e6123cb565b805490915060ff16156122c35760405162461bcd60e51b815260040161066e90612a71565b6001600160a01b0383166123195760405162461bcd60e51b815260206004820152601d60248201527f436f6d70616e793a207369676e65722063616e6e6f7420626520307830000000604482015260640161066e565b600061232361237a565b905061234081600080516020612d978339815191528660016123ef565b6040516001600160a01b038516907f47d1c22a25bb3a5d4e481b9b1e6944c2eade3181a0a20b495ed61d35b5323f2490600090a250505050565b7f1f07e7b49187e1cf67924ca1fa35732211c5bb2c23b6b53ee47453438de7285e90565b6000918252600192909201602090815260408083206001600160a01b039094168352929052205460ff1690565b7f6373b2650f68a30b6fdd87e3caf4df754a3a8f8ef4b09bbd1bb4ff21f356aa2c90565b60009283526001909301602090815260408084206001600160a01b0390931684529190529020805491151560ff19909216919091179055565b60026000540361244b57604051633ee5aeb560e01b815260040160405180910390fd5b6002600055565b6001600160a01b038116811461109b57600080fd5b803561247281612452565b919050565b6000806040838503121561248a57600080fd5b823561249581612452565b946020939093013593505050565b6000815180845260005b818110156124c9576020818501810151868301820152016124ad565b506000602082860101526020601f19601f83011685010191505092915050565b602081526000611bee60208301846124a3565b60006020828403121561250e57600080fd5b8135611bee81612452565b6000806040838503121561252c57600080fd5b823561253781612452565b9150602083013561254781612452565b809150509250929050565b60006020828403121561256457600080fd5b813567ffffffffffffffff81111561257b57600080fd5b820160808185031215611bee57600080fd5b634e487b7160e01b600052604160045260246000fd5b60405160c0810167ffffffffffffffff811182821017156125c6576125c661258d565b60405290565b60405160a0810167ffffffffffffffff811182821017156125c6576125c661258d565b600082601f83011261260057600080fd5b813567ffffffffffffffff8082111561261b5761261b61258d565b604051601f8301601f19908116603f011681019082821181831017156126435761264361258d565b8160405283815286602085880101111561265c57600080fd5b836020870160208301376000602085830101528094505050505092915050565b60006020828403121561268e57600080fd5b813567ffffffffffffffff808211156126a657600080fd5b90830190604082860312156126ba57600080fd5b6040516040810181811083821117156126d5576126d561258d565b6040528235828111156126e757600080fd5b6126f3878286016125ef565b82525060208301358281111561270857600080fd5b612714878286016125ef565b60208301525095945050505050565b60006020828403121561273557600080fd5b813567ffffffffffffffff81111561274c57600080fd5b612758848285016125ef565b949350505050565b60006020828403121561277257600080fd5b5035919050565b6000815160c0845261278e60c08501826124a3565b9050602083015184820360208601526127a782826124a3565b915050604083015184820360408601526127c182826124a3565b915050606083015160608501526080830151608085015260a083015160a08501528091505092915050565b602081526000611bee6020830184612779565b600060c0828403121561281157600080fd5b6128196125a3565b9050813567ffffffffffffffff8082111561283357600080fd5b61283f858386016125ef565b8352602084013591508082111561285557600080fd5b612861858386016125ef565b6020840152604084013591508082111561287a57600080fd5b50612887848285016125ef565b604083015250606082013560608201526080820135608082015260a082013560a082015292915050565b6000602082840312156128c357600080fd5b813567ffffffffffffffff808211156128db57600080fd5b9083019060a082860312156128ef57600080fd5b6128f76125cc565b61290083612467565b815261290e60208401612467565b602082015260408301358281111561292557600080fd5b612931878286016127ff565b60408301525060608301358281111561294957600080fd5b612955878286016125ef565b60608301525060808301358281111561296d57600080fd5b612979878286016125ef565b60808301525095945050505050565b60008060006060848603121561299d57600080fd5b83356129a881612452565b925060208401356129b881612452565b929592945050506040919091013590565b6020808252601f908201527f436f6d70616e793a2063616c6c6572206973206e6f7420616e2061646d696e00604082015260600190565b600181811c90821680612a1457607f821691505b602082108103612a3457634e487b7160e01b600052602260045260246000fd5b50919050565b6020808252601f908201527f436f6d70616e793a2063616c6c6572206973206e6f742061207369676e657200604082015260600190565b60208082526023908201527f436f6d70616e793a20636f6e747261637420686173206265656e20757067726160408201526219195960ea1b606082015260800190565b6000808335601e19843603018112612acb57600080fd5b83018035915067ffffffffffffffff821115612ae657600080fd5b602001915036819003821315612afb57600080fd5b9250929050565b6020815281516020820152602082015160408201526000604083015160608084015261275860808401826124a3565b600060018201612b5157634e487b7160e01b600052601160045260246000fd5b5060010190565b602081526000825160606020840152612b746080840182612779565b90506020840151601f1980858403016040860152612b9283836124a3565b9250604086015191508085840301606086015250612bb082826124a3565b95945050505050565b60008060408385031215612bcc57600080fd5b8251612bd781612452565b6020939093015192949293505050565b601f821115610e94576000816000526020600020601f850160051c81016020861015612c105750805b601f850160051c820191505b81811015610af257828155600101612c1c565b815167ffffffffffffffff811115612c4957612c4961258d565b612c5d81612c578454612a00565b84612be7565b602080601f831160018114612c925760008415612c7a5750858301515b600019600386901b1c1916600185901b178555610af2565b600085815260208120601f198616915b82811015612cc157888601518255948401946001909101908401612ca2565b5085821015612cdf5787850151600019600388901b60f8161c191681555b5050505050600190811b01905550565b600060208284031215612d0157600080fd5b81518015158114611bee57600080fd5b600060208284031215612d2357600080fd5b8151611bee81612452565b602081526000825160406020840152612d4a60608401826124a3565b90506020840151601f19848303016040850152612bb082826124a3565b600060208284031215612d7957600080fd5b5051919050565b634e487b7160e01b600052602160045260246000fdfee2f4eaae4a9751e85a3e4a7b9587827a877f29914755229b07a7b2da98285f70a49807205ce4d355092ef5a8a18f56e8913cf4a201fbe287825b095693c21775a2646970667358221220553aeeed392bd71880c15b0529bff0cbc7c40139d61ef0d189c7449407258b1d64736f6c63430008180033",
  "linkReferences": {},
  "deployedLinkReferences": {}
}