{
  "_format": "hh-sol-artifact-1",
  "contractName": "XRDNAGasToken",
  "sourceName": "contracts/XRDNAGasToken.sol",
  "abi": [
    {
      "inputs": [
        {
          "internalType": "address",
          "name": "defaultAdmin",
          "type": "address"
        },
        {
          "internalType": "address[]",
          "name": "minters",
          "type": "address[]"
        }
      ],
      "stateMutability": "nonpayable",
      "type": "constructor"
    },
    {
      "inputs": [],
      "name": "AccessControlBadConfirmation",
      "type": "error"
    },
    {
      "inputs": [
        {
          "internalType": "address",
          "name": "account",
          "type": "address"
        },
        {
          "internalType": "bytes32",
          "name": "neededRole",
          "type": "bytes32"
        }
      ],
      "name": "AccessControlUnauthorizedAccount",
      "type": "error"
    },
    {
      "inputs": [],
      "name": "ECDSAInvalidSignature",
      "type": "error"
    },
    {
      "inputs": [
        {
          "internalType": "uint256",
          "name": "length",
          "type": "uint256"
        }
      ],
      "name": "ECDSAInvalidSignatureLength",
      "type": "error"
    },
    {
      "inputs": [
        {
          "internalType": "bytes32",
          "name": "s",
          "type": "bytes32"
        }
      ],
      "name": "ECDSAInvalidSignatureS",
      "type": "error"
    },
    {
      "inputs": [
        {
          "internalType": "address",
          "name": "spender",
          "type": "address"
        },
        {
          "internalType": "uint256",
          "name": "allowance",
          "type": "uint256"
        },
        {
          "internalType": "uint256",
          "name": "needed",
          "type": "uint256"
        }
      ],
      "name": "ERC20InsufficientAllowance",
      "type": "error"
    },
    {
      "inputs": [
        {
          "internalType": "address",
          "name": "sender",
          "type": "address"
        },
        {
          "internalType": "uint256",
          "name": "balance",
          "type": "uint256"
        },
        {
          "internalType": "uint256",
          "name": "needed",
          "type": "uint256"
        }
      ],
      "name": "ERC20InsufficientBalance",
      "type": "error"
    },
    {
      "inputs": [
        {
          "internalType": "address",
          "name": "approver",
          "type": "address"
        }
      ],
      "name": "ERC20InvalidApprover",
      "type": "error"
    },
    {
      "inputs": [
        {
          "internalType": "address",
          "name": "receiver",
          "type": "address"
        }
      ],
      "name": "ERC20InvalidReceiver",
      "type": "error"
    },
    {
      "inputs": [
        {
          "internalType": "address",
          "name": "sender",
          "type": "address"
        }
      ],
      "name": "ERC20InvalidSender",
      "type": "error"
    },
    {
      "inputs": [
        {
          "internalType": "address",
          "name": "spender",
          "type": "address"
        }
      ],
      "name": "ERC20InvalidSpender",
      "type": "error"
    },
    {
      "inputs": [
        {
          "internalType": "uint256",
          "name": "deadline",
          "type": "uint256"
        }
      ],
      "name": "ERC2612ExpiredSignature",
      "type": "error"
    },
    {
      "inputs": [
        {
          "internalType": "address",
          "name": "signer",
          "type": "address"
        },
        {
          "internalType": "address",
          "name": "owner",
          "type": "address"
        }
      ],
      "name": "ERC2612InvalidSigner",
      "type": "error"
    },
    {
      "inputs": [
        {
          "internalType": "address",
          "name": "account",
          "type": "address"
        },
        {
          "internalType": "uint256",
          "name": "currentNonce",
          "type": "uint256"
        }
      ],
      "name": "InvalidAccountNonce",
      "type": "error"
    },
    {
      "inputs": [],
      "name": "InvalidShortString",
      "type": "error"
    },
    {
      "inputs": [
        {
          "internalType": "string",
          "name": "str",
          "type": "string"
        }
      ],
      "name": "StringTooLong",
      "type": "error"
    },
    {
      "anonymous": false,
      "inputs": [
        {
          "indexed": true,
          "internalType": "address",
          "name": "owner",
          "type": "address"
        },
        {
          "indexed": true,
          "internalType": "address",
          "name": "spender",
          "type": "address"
        },
        {
          "indexed": false,
          "internalType": "uint256",
          "name": "value",
          "type": "uint256"
        }
      ],
      "name": "Approval",
      "type": "event"
    },
    {
      "anonymous": false,
      "inputs": [],
      "name": "EIP712DomainChanged",
      "type": "event"
    },
    {
      "anonymous": false,
      "inputs": [
        {
          "indexed": true,
          "internalType": "bytes32",
          "name": "role",
          "type": "bytes32"
        },
        {
          "indexed": true,
          "internalType": "bytes32",
          "name": "previousAdminRole",
          "type": "bytes32"
        },
        {
          "indexed": true,
          "internalType": "bytes32",
          "name": "newAdminRole",
          "type": "bytes32"
        }
      ],
      "name": "RoleAdminChanged",
      "type": "event"
    },
    {
      "anonymous": false,
      "inputs": [
        {
          "indexed": true,
          "internalType": "bytes32",
          "name": "role",
          "type": "bytes32"
        },
        {
          "indexed": true,
          "internalType": "address",
          "name": "account",
          "type": "address"
        },
        {
          "indexed": true,
          "internalType": "address",
          "name": "sender",
          "type": "address"
        }
      ],
      "name": "RoleGranted",
      "type": "event"
    },
    {
      "anonymous": false,
      "inputs": [
        {
          "indexed": true,
          "internalType": "bytes32",
          "name": "role",
          "type": "bytes32"
        },
        {
          "indexed": true,
          "internalType": "address",
          "name": "account",
          "type": "address"
        },
        {
          "indexed": true,
          "internalType": "address",
          "name": "sender",
          "type": "address"
        }
      ],
      "name": "RoleRevoked",
      "type": "event"
    },
    {
      "anonymous": false,
      "inputs": [
        {
          "indexed": true,
          "internalType": "address",
          "name": "from",
          "type": "address"
        },
        {
          "indexed": true,
          "internalType": "address",
          "name": "to",
          "type": "address"
        },
        {
          "indexed": false,
          "internalType": "uint256",
          "name": "value",
          "type": "uint256"
        }
      ],
      "name": "Transfer",
      "type": "event"
    },
    {
      "inputs": [],
      "name": "DEFAULT_ADMIN_ROLE",
      "outputs": [
        {
          "internalType": "bytes32",
          "name": "",
          "type": "bytes32"
        }
      ],
      "stateMutability": "view",
      "type": "function"
    },
    {
      "inputs": [],
      "name": "DOMAIN_SEPARATOR",
      "outputs": [
        {
          "internalType": "bytes32",
          "name": "",
          "type": "bytes32"
        }
      ],
      "stateMutability": "view",
      "type": "function"
    },
    {
      "inputs": [],
      "name": "MINTER_ROLE",
      "outputs": [
        {
          "internalType": "bytes32",
          "name": "",
          "type": "bytes32"
        }
      ],
      "stateMutability": "view",
      "type": "function"
    },
    {
      "inputs": [
        {
          "internalType": "address",
          "name": "owner",
          "type": "address"
        },
        {
          "internalType": "address",
          "name": "spender",
          "type": "address"
        }
      ],
      "name": "allowance",
      "outputs": [
        {
          "internalType": "uint256",
          "name": "",
          "type": "uint256"
        }
      ],
      "stateMutability": "view",
      "type": "function"
    },
    {
      "inputs": [
        {
          "internalType": "address",
          "name": "spender",
          "type": "address"
        },
        {
          "internalType": "uint256",
          "name": "value",
          "type": "uint256"
        }
      ],
      "name": "approve",
      "outputs": [
        {
          "internalType": "bool",
          "name": "",
          "type": "bool"
        }
      ],
      "stateMutability": "nonpayable",
      "type": "function"
    },
    {
      "inputs": [
        {
          "internalType": "address",
          "name": "account",
          "type": "address"
        }
      ],
      "name": "balanceOf",
      "outputs": [
        {
          "internalType": "uint256",
          "name": "",
          "type": "uint256"
        }
      ],
      "stateMutability": "view",
      "type": "function"
    },
    {
      "inputs": [],
      "name": "decimals",
      "outputs": [
        {
          "internalType": "uint8",
          "name": "",
          "type": "uint8"
        }
      ],
      "stateMutability": "view",
      "type": "function"
    },
    {
      "inputs": [],
      "name": "eip712Domain",
      "outputs": [
        {
          "internalType": "bytes1",
          "name": "fields",
          "type": "bytes1"
        },
        {
          "internalType": "string",
          "name": "name",
          "type": "string"
        },
        {
          "internalType": "string",
          "name": "version",
          "type": "string"
        },
        {
          "internalType": "uint256",
          "name": "chainId",
          "type": "uint256"
        },
        {
          "internalType": "address",
          "name": "verifyingContract",
          "type": "address"
        },
        {
          "internalType": "bytes32",
          "name": "salt",
          "type": "bytes32"
        },
        {
          "internalType": "uint256[]",
          "name": "extensions",
          "type": "uint256[]"
        }
      ],
      "stateMutability": "view",
      "type": "function"
    },
    {
      "inputs": [
        {
          "internalType": "bytes32",
          "name": "role",
          "type": "bytes32"
        }
      ],
      "name": "getRoleAdmin",
      "outputs": [
        {
          "internalType": "bytes32",
          "name": "",
          "type": "bytes32"
        }
      ],
      "stateMutability": "view",
      "type": "function"
    },
    {
      "inputs": [
        {
          "internalType": "bytes32",
          "name": "role",
          "type": "bytes32"
        },
        {
          "internalType": "address",
          "name": "account",
          "type": "address"
        }
      ],
      "name": "grantRole",
      "outputs": [],
      "stateMutability": "nonpayable",
      "type": "function"
    },
    {
      "inputs": [
        {
          "internalType": "bytes32",
          "name": "role",
          "type": "bytes32"
        },
        {
          "internalType": "address",
          "name": "account",
          "type": "address"
        }
      ],
      "name": "hasRole",
      "outputs": [
        {
          "internalType": "bool",
          "name": "",
          "type": "bool"
        }
      ],
      "stateMutability": "view",
      "type": "function"
    },
    {
      "inputs": [
        {
          "internalType": "address",
          "name": "to",
          "type": "address"
        },
        {
          "internalType": "uint256",
          "name": "amount",
          "type": "uint256"
        }
      ],
      "name": "mint",
      "outputs": [],
      "stateMutability": "nonpayable",
      "type": "function"
    },
    {
      "inputs": [],
      "name": "name",
      "outputs": [
        {
          "internalType": "string",
          "name": "",
          "type": "string"
        }
      ],
      "stateMutability": "view",
      "type": "function"
    },
    {
      "inputs": [
        {
          "internalType": "address",
          "name": "owner",
          "type": "address"
        }
      ],
      "name": "nonces",
      "outputs": [
        {
          "internalType": "uint256",
          "name": "",
          "type": "uint256"
        }
      ],
      "stateMutability": "view",
      "type": "function"
    },
    {
      "inputs": [
        {
          "internalType": "address",
          "name": "owner",
          "type": "address"
        },
        {
          "internalType": "address",
          "name": "spender",
          "type": "address"
        },
        {
          "internalType": "uint256",
          "name": "value",
          "type": "uint256"
        },
        {
          "internalType": "uint256",
          "name": "deadline",
          "type": "uint256"
        },
        {
          "internalType": "uint8",
          "name": "v",
          "type": "uint8"
        },
        {
          "internalType": "bytes32",
          "name": "r",
          "type": "bytes32"
        },
        {
          "internalType": "bytes32",
          "name": "s",
          "type": "bytes32"
        }
      ],
      "name": "permit",
      "outputs": [],
      "stateMutability": "nonpayable",
      "type": "function"
    },
    {
      "inputs": [
        {
          "internalType": "bytes32",
          "name": "role",
          "type": "bytes32"
        },
        {
          "internalType": "address",
          "name": "callerConfirmation",
          "type": "address"
        }
      ],
      "name": "renounceRole",
      "outputs": [],
      "stateMutability": "nonpayable",
      "type": "function"
    },
    {
      "inputs": [
        {
          "internalType": "bytes32",
          "name": "role",
          "type": "bytes32"
        },
        {
          "internalType": "address",
          "name": "account",
          "type": "address"
        }
      ],
      "name": "revokeRole",
      "outputs": [],
      "stateMutability": "nonpayable",
      "type": "function"
    },
    {
      "inputs": [
        {
          "internalType": "bytes4",
          "name": "interfaceId",
          "type": "bytes4"
        }
      ],
      "name": "supportsInterface",
      "outputs": [
        {
          "internalType": "bool",
          "name": "",
          "type": "bool"
        }
      ],
      "stateMutability": "view",
      "type": "function"
    },
    {
      "inputs": [],
      "name": "symbol",
      "outputs": [
        {
          "internalType": "string",
          "name": "",
          "type": "string"
        }
      ],
      "stateMutability": "view",
      "type": "function"
    },
    {
      "inputs": [],
      "name": "totalSupply",
      "outputs": [
        {
          "internalType": "uint256",
          "name": "",
          "type": "uint256"
        }
      ],
      "stateMutability": "view",
      "type": "function"
    },
    {
      "inputs": [
        {
          "internalType": "address",
          "name": "to",
          "type": "address"
        },
        {
          "internalType": "uint256",
          "name": "value",
          "type": "uint256"
        }
      ],
      "name": "transfer",
      "outputs": [
        {
          "internalType": "bool",
          "name": "",
          "type": "bool"
        }
      ],
      "stateMutability": "nonpayable",
      "type": "function"
    },
    {
      "inputs": [
        {
          "internalType": "address",
          "name": "from",
          "type": "address"
        },
        {
          "internalType": "address",
          "name": "to",
          "type": "address"
        },
        {
          "internalType": "uint256",
          "name": "value",
          "type": "uint256"
        }
      ],
      "name": "transferFrom",
      "outputs": [
        {
          "internalType": "bool",
          "name": "",
          "type": "bool"
        }
      ],
      "stateMutability": "nonpayable",
      "type": "function"
    }
  ],
  "bytecode": "0x6101606040523480156200001257600080fd5b5060405162001cbd38038062001cbd83398101604081905262000035916200050f565b6040518060400160405280600d81526020016c2c29222720a3b0b9aa37b5b2b760991b81525080604051806040016040528060018152602001603160f81b8152506040518060400160405280600d81526020016c2c29222720a3b0b9aa37b5b2b760991b815250604051806040016040528060058152602001645852444e4160d81b8152508160039081620000cb919062000689565b506004620000da828262000689565b50620000ec9150839050600662000239565b61012052620000fd81600762000239565b61014052815160208084019190912060e052815190820120610100524660a0526200018b60e05161010051604080517f8b73c3c69bb8fe3d512ecc4cf759cc79239f7b179b0ffacaa9a75d522b39400f60208201529081019290925260608201524660808201523060a082015260009060c00160405160208183030381529060405280519060200120905090565b60805250503060c05250620001bd33620001a86012600a62000868565b620001b790620186a062000880565b62000272565b620001ca600083620002b4565b5060005b81518110156200023057620002267f9f2df0fed2c77648de5860a4cc508cd0818c85b8b8a1ab4ceeef8d981c8956a68383815181106200021257620002126200089a565b6020026020010151620002b460201b60201c565b50600101620001ce565b5050506200093c565b60006020835110156200025957620002518362000366565b90506200026c565b8162000266848262000689565b5060ff90505b92915050565b6001600160a01b038216620002a25760405163ec442f0560e01b8152600060048201526024015b60405180910390fd5b620002b060008383620003a9565b5050565b60008281526005602090815260408083206001600160a01b038516845290915281205460ff166200035d5760008381526005602090815260408083206001600160a01b03861684529091529020805460ff19166001179055620003143390565b6001600160a01b0316826001600160a01b0316847f2f8788117e7eff1d82e926ec794901d17c78024a50270940304540a733656f0d60405160405180910390a45060016200026c565b5060006200026c565b600080829050601f8151111562000394578260405163305a27a960e01b8152600401620002999190620008b0565b8051620003a18262000901565b179392505050565b6001600160a01b038316620003d8578060026000828254620003cc919062000926565b909155506200044c9050565b6001600160a01b038316600090815260208190526040902054818110156200042d5760405163391434e360e21b81526001600160a01b0385166004820152602481018290526044810183905260640162000299565b6001600160a01b03841660009081526020819052604090209082900390555b6001600160a01b0382166200046a5760028054829003905562000489565b6001600160a01b03821660009081526020819052604090208054820190555b816001600160a01b0316836001600160a01b03167fddf252ad1be2c89b69c2b068fc378daa952ba7f163c4a11628f55a4df523b3ef83604051620004cf91815260200190565b60405180910390a3505050565b80516001600160a01b0381168114620004f457600080fd5b919050565b634e487b7160e01b600052604160045260246000fd5b600080604083850312156200052357600080fd5b6200052e83620004dc565b602084810151919350906001600160401b03808211156200054e57600080fd5b818601915086601f8301126200056357600080fd5b815181811115620005785762000578620004f9565b8060051b604051601f19603f83011681018181108582111715620005a057620005a0620004f9565b604052918252848201925083810185019189831115620005bf57600080fd5b938501935b82851015620005e857620005d885620004dc565b84529385019392850192620005c4565b8096505050505050509250929050565b600181811c908216806200060d57607f821691505b6020821081036200062e57634e487b7160e01b600052602260045260246000fd5b50919050565b601f82111562000684576000816000526020600020601f850160051c810160208610156200065f5750805b601f850160051c820191505b8181101562000680578281556001016200066b565b5050505b505050565b81516001600160401b03811115620006a557620006a5620004f9565b620006bd81620006b68454620005f8565b8462000634565b602080601f831160018114620006f55760008415620006dc5750858301515b600019600386901b1c1916600185901b17855562000680565b600085815260208120601f198616915b82811015620007265788860151825594840194600190910190840162000705565b5085821015620007455787850151600019600388901b60f8161c191681555b5050505050600190811b01905550565b634e487b7160e01b600052601160045260246000fd5b600181815b80851115620007ac57816000190482111562000790576200079062000755565b808516156200079e57918102915b93841c939080029062000770565b509250929050565b600082620007c5575060016200026c565b81620007d4575060006200026c565b8160018114620007ed5760028114620007f85762000818565b60019150506200026c565b60ff8411156200080c576200080c62000755565b50506001821b6200026c565b5060208310610133831016604e8410600b84101617156200083d575081810a6200026c565b6200084983836200076b565b806000190482111562000860576200086062000755565b029392505050565b60006200087960ff841683620007b4565b9392505050565b80820281158282048414176200026c576200026c62000755565b634e487b7160e01b600052603260045260246000fd5b60006020808352835180602085015260005b81811015620008e057858101830151858201604001528201620008c2565b506000604082860101526040601f19601f8301168501019250505092915050565b805160208083015191908110156200062e5760001960209190910360031b1b16919050565b808201808211156200026c576200026c62000755565b60805160a05160c05160e051610100516101205161014051611326620009976000396000610a8a01526000610a5d0152600061095e0152600061093601526000610891015260006108bb015260006108e501526113266000f3fe608060405234801561001057600080fd5b50600436106101425760003560e01c806370a08231116100b8578063a217fddf1161007c578063a217fddf146102a3578063a9059cbb146102ab578063d505accf146102be578063d5391393146102d1578063d547741f146102f8578063dd62ed3e1461030b57600080fd5b806370a08231146102315780637ecebe001461025a57806384b0196e1461026d57806391d148541461028857806395d89b411461029b57600080fd5b8063248a9ca31161010a578063248a9ca3146101bc5780632f2ff15d146101df578063313ce567146101f45780633644e5151461020357806336568abe1461020b57806340c10f191461021e57600080fd5b806301ffc9a71461014757806306fdde031461016f578063095ea7b31461018457806318160ddd1461019757806323b872dd146101a9575b600080fd5b61015a610155366004610fdd565b610344565b60405190151581526020015b60405180910390f35b61017761037b565b6040516101669190611054565b61015a610192366004611083565b61040d565b6002545b604051908152602001610166565b61015a6101b73660046110ad565b610425565b61019b6101ca3660046110e9565b60009081526005602052604090206001015490565b6101f26101ed366004611102565b610449565b005b60405160128152602001610166565b61019b610474565b6101f2610219366004611102565b610483565b6101f261022c366004611083565b6104bb565b61019b61023f36600461112e565b6001600160a01b031660009081526020819052604090205490565b61019b61026836600461112e565b6104ef565b61027561050d565b6040516101669796959493929190611149565b61015a610296366004611102565b610553565b61017761057e565b61019b600081565b61015a6102b9366004611083565b61058d565b6101f26102cc3660046111e2565b61059b565b61019b7f9f2df0fed2c77648de5860a4cc508cd0818c85b8b8a1ab4ceeef8d981c8956a681565b6101f2610306366004611102565b6106da565b61019b610319366004611255565b6001600160a01b03918216600090815260016020908152604080832093909416825291909152205490565b60006001600160e01b03198216637965db0b60e01b148061037557506301ffc9a760e01b6001600160e01b03198316145b92915050565b60606003805461038a9061127f565b80601f01602080910402602001604051908101604052809291908181526020018280546103b69061127f565b80156104035780601f106103d857610100808354040283529160200191610403565b820191906000526020600020905b8154815290600101906020018083116103e657829003601f168201915b5050505050905090565b60003361041b8185856106ff565b5060019392505050565b60003361043385828561070c565b61043e858585610784565b506001949350505050565b600082815260056020526040902060010154610464816107e3565b61046e83836107f0565b50505050565b600061047e610884565b905090565b6001600160a01b03811633146104ac5760405163334bd91960e11b815260040160405180910390fd5b6104b682826109af565b505050565b7f9f2df0fed2c77648de5860a4cc508cd0818c85b8b8a1ab4ceeef8d981c8956a66104e5816107e3565b6104b68383610a1c565b6001600160a01b038116600090815260086020526040812054610375565b600060608060008060006060610521610a56565b610529610a83565b60408051600080825260208201909252600f60f81b9b939a50919850469750309650945092509050565b60009182526005602090815260408084206001600160a01b0393909316845291905290205460ff1690565b60606004805461038a9061127f565b60003361041b818585610784565b834211156105c45760405163313c898160e11b8152600481018590526024015b60405180910390fd5b60007f6e71edae12b1b97f4d1f60370fef10105fa2faae0126114a169c64845d6126c98888886106118c6001600160a01b0316600090815260086020526040902080546001810190915590565b6040805160208101969096526001600160a01b0394851690860152929091166060840152608083015260a082015260c0810186905260e001604051602081830303815290604052805190602001209050600061066c82610ab0565b9050600061067c82878787610add565b9050896001600160a01b0316816001600160a01b0316146106c3576040516325c0072360e11b81526001600160a01b0380831660048301528b1660248201526044016105bb565b6106ce8a8a8a6106ff565b50505050505050505050565b6000828152600560205260409020600101546106f5816107e3565b61046e83836109af565b6104b68383836001610b0b565b6001600160a01b03838116600090815260016020908152604080832093861683529290522054600019811461046e578181101561077557604051637dc7a0d960e11b81526001600160a01b038416600482015260248101829052604481018390526064016105bb565b61046e84848484036000610b0b565b6001600160a01b0383166107ae57604051634b637e8f60e11b8152600060048201526024016105bb565b6001600160a01b0382166107d85760405163ec442f0560e01b8152600060048201526024016105bb565b6104b6838383610be0565b6107ed8133610d0a565b50565b60006107fc8383610553565b61087c5760008381526005602090815260408083206001600160a01b03861684529091529020805460ff191660011790556108343390565b6001600160a01b0316826001600160a01b0316847f2f8788117e7eff1d82e926ec794901d17c78024a50270940304540a733656f0d60405160405180910390a4506001610375565b506000610375565b6000306001600160a01b037f0000000000000000000000000000000000000000000000000000000000000000161480156108dd57507f000000000000000000000000000000000000000000000000000000000000000046145b1561090757507f000000000000000000000000000000000000000000000000000000000000000090565b61047e604080517f8b73c3c69bb8fe3d512ecc4cf759cc79239f7b179b0ffacaa9a75d522b39400f60208201527f0000000000000000000000000000000000000000000000000000000000000000918101919091527f000000000000000000000000000000000000000000000000000000000000000060608201524660808201523060a082015260009060c00160405160208183030381529060405280519060200120905090565b60006109bb8383610553565b1561087c5760008381526005602090815260408083206001600160a01b0386168085529252808320805460ff1916905551339286917ff6391f5c32d9c69d2a47ea670b442974b53935d1edc7fd64eb21e047a839171b9190a4506001610375565b6001600160a01b038216610a465760405163ec442f0560e01b8152600060048201526024016105bb565b610a5260008383610be0565b5050565b606061047e7f00000000000000000000000000000000000000000000000000000000000000006006610d43565b606061047e7f00000000000000000000000000000000000000000000000000000000000000006007610d43565b6000610375610abd610884565b8360405161190160f01b8152600281019290925260228201526042902090565b600080600080610aef88888888610dee565b925092509250610aff8282610ebd565b50909695505050505050565b6001600160a01b038416610b355760405163e602df0560e01b8152600060048201526024016105bb565b6001600160a01b038316610b5f57604051634a1406b160e11b8152600060048201526024016105bb565b6001600160a01b038085166000908152600160209081526040808320938716835292905220829055801561046e57826001600160a01b0316846001600160a01b03167f8c5be1e5ebec7d5bd14f71427d1e84f3dd0314c0f7b2291e5b200ac8c7c3b92584604051610bd291815260200190565b60405180910390a350505050565b6001600160a01b038316610c0b578060026000828254610c0091906112b9565b90915550610c7d9050565b6001600160a01b03831660009081526020819052604090205481811015610c5e5760405163391434e360e21b81526001600160a01b038516600482015260248101829052604481018390526064016105bb565b6001600160a01b03841660009081526020819052604090209082900390555b6001600160a01b038216610c9957600280548290039055610cb8565b6001600160a01b03821660009081526020819052604090208054820190555b816001600160a01b0316836001600160a01b03167fddf252ad1be2c89b69c2b068fc378daa952ba7f163c4a11628f55a4df523b3ef83604051610cfd91815260200190565b60405180910390a3505050565b610d148282610553565b610a525760405163e2517d3f60e01b81526001600160a01b0382166004820152602481018390526044016105bb565b606060ff8314610d5d57610d5683610f76565b9050610375565b818054610d699061127f565b80601f0160208091040260200160405190810160405280929190818152602001828054610d959061127f565b8015610de25780601f10610db757610100808354040283529160200191610de2565b820191906000526020600020905b815481529060010190602001808311610dc557829003601f168201915b50505050509050610375565b600080807f7fffffffffffffffffffffffffffffff5d576e7357a4501ddfe92f46681b20a0841115610e295750600091506003905082610eb3565b604080516000808252602082018084528a905260ff891692820192909252606081018790526080810186905260019060a0016020604051602081039080840390855afa158015610e7d573d6000803e3d6000fd5b5050604051601f1901519150506001600160a01b038116610ea957506000925060019150829050610eb3565b9250600091508190505b9450945094915050565b6000826003811115610ed157610ed16112da565b03610eda575050565b6001826003811115610eee57610eee6112da565b03610f0c5760405163f645eedf60e01b815260040160405180910390fd5b6002826003811115610f2057610f206112da565b03610f415760405163fce698f760e01b8152600481018290526024016105bb565b6003826003811115610f5557610f556112da565b03610a52576040516335e2f38360e21b8152600481018290526024016105bb565b60606000610f8383610fb5565b604080516020808252818301909252919250600091906020820181803683375050509182525060208101929092525090565b600060ff8216601f81111561037557604051632cd44ac360e21b815260040160405180910390fd5b600060208284031215610fef57600080fd5b81356001600160e01b03198116811461100757600080fd5b9392505050565b6000815180845260005b8181101561103457602081850181015186830182015201611018565b506000602082860101526020601f19601f83011685010191505092915050565b602081526000611007602083018461100e565b80356001600160a01b038116811461107e57600080fd5b919050565b6000806040838503121561109657600080fd5b61109f83611067565b946020939093013593505050565b6000806000606084860312156110c257600080fd5b6110cb84611067565b92506110d960208501611067565b9150604084013590509250925092565b6000602082840312156110fb57600080fd5b5035919050565b6000806040838503121561111557600080fd5b8235915061112560208401611067565b90509250929050565b60006020828403121561114057600080fd5b61100782611067565b60ff60f81b881681526000602060e0602084015261116a60e084018a61100e565b838103604085015261117c818a61100e565b606085018990526001600160a01b038816608086015260a0850187905284810360c08601528551808252602080880193509091019060005b818110156111d0578351835292840192918401916001016111b4565b50909c9b505050505050505050505050565b600080600080600080600060e0888a0312156111fd57600080fd5b61120688611067565b965061121460208901611067565b95506040880135945060608801359350608088013560ff8116811461123857600080fd5b9699959850939692959460a0840135945060c09093013592915050565b6000806040838503121561126857600080fd5b61127183611067565b915061112560208401611067565b600181811c9082168061129357607f821691505b6020821081036112b357634e487b7160e01b600052602260045260246000fd5b50919050565b8082018082111561037557634e487b7160e01b600052601160045260246000fd5b634e487b7160e01b600052602160045260246000fdfea264697066735822122034c98a83e0da232ec430553ff02bf5f6de88a28891dd0767e231e905b79095de64736f6c63430008180033",
  "linkReferences": {},
  "deployedLinkReferences": {}
}