{
  "contracts/libraries/LibRoles.sol": {
    "LibRoles": {
      "abi": [
        {
          "inputs": [],
          "name": "ROLE_ADMIN",
          "outputs": [
            {
              "internalType": "bytes32",
              "name": "",
              "type": "bytes32"
            }
          ],
          "stateMutability": "view",
          "type": "function"
        },
        {
          "inputs": [],
          "name": "ROLE_OWNER",
          "outputs": [
            {
              "internalType": "bytes32",
              "name": "",
              "type": "bytes32"
            }
          ],
          "stateMutability": "view",
          "type": "function"
        },
        {
          "inputs": [],
          "name": "ROLE_SIGNER",
          "outputs": [
            {
              "internalType": "bytes32",
              "name": "",
              "type": "bytes32"
            }
          ],
          "stateMutability": "view",
          "type": "function"
        },
        {
          "inputs": [],
          "name": "ROLE_VECTOR_AUTHORITY",
          "outputs": [
            {
              "internalType": "bytes32",
              "name": "",
              "type": "bytes32"
            }
          ],
          "stateMutability": "view",
          "type": "function"
        }
      ],
      "evm": {
        "bytecode": {
          "linkReferences": {},
          "object": "61013f61003a600b82828239805160001a60731461002d57634e487b7160e01b600052600060045260246000fd5b30600052607381538281f3fe73000000000000000000000000000000000000000030146080604052600436106100565760003560e01c806360f428db1461005b5780638ad682af14610094578063af2371e3146100bb578063d391014b146100e2575b600080fd5b6100827ff4624c0c441d71d84320078141641151f1c713f1d4d2a15382f6a42904d8d13881565b60405190815260200160405180910390f35b6100827f9f4e1c871d5fdd0aee1cd182666698a4492b24c6832aac230d07b11046af5a8981565b6100827f749410edf1177aefa27612b24d2d51e6441f89613f5ddf9be1d11dfc0d3e4fea81565b6100827f2172861495e7b85edac73e3cd5fbb42dd675baadf627720e687bcfdaca0250968156fea2646970667358221220b53ee6906776bfc322aed8900030f2bb262d1586e0ebcae877a38924ca4e978a64736f6c63430008180033",
          "opcodes": "PUSH2 0x13F PUSH2 0x3A PUSH1 0xB DUP3 DUP3 DUP3 CODECOPY DUP1 MLOAD PUSH1 0x0 BYTE PUSH1 0x73 EQ PUSH2 0x2D JUMPI PUSH4 0x4E487B71 PUSH1 0xE0 SHL PUSH1 0x0 MSTORE PUSH1 0x0 PUSH1 0x4 MSTORE PUSH1 0x24 PUSH1 0x0 REVERT JUMPDEST ADDRESS PUSH1 0x0 MSTORE PUSH1 0x73 DUP2 MSTORE8 DUP3 DUP2 RETURN INVALID PUSH20 0x0 ADDRESS EQ PUSH1 0x80 PUSH1 0x40 MSTORE PUSH1 0x4 CALLDATASIZE LT PUSH2 0x56 JUMPI PUSH1 0x0 CALLDATALOAD PUSH1 0xE0 SHR DUP1 PUSH4 0x60F428DB EQ PUSH2 0x5B JUMPI DUP1 PUSH4 0x8AD682AF EQ PUSH2 0x94 JUMPI DUP1 PUSH4 0xAF2371E3 EQ PUSH2 0xBB JUMPI DUP1 PUSH4 0xD391014B EQ PUSH2 0xE2 JUMPI JUMPDEST PUSH1 0x0 DUP1 REVERT JUMPDEST PUSH2 0x82 PUSH32 0xF4624C0C441D71D84320078141641151F1C713F1D4D2A15382F6A42904D8D138 DUP2 JUMP JUMPDEST PUSH1 0x40 MLOAD SWAP1 DUP2 MSTORE PUSH1 0x20 ADD PUSH1 0x40 MLOAD DUP1 SWAP2 SUB SWAP1 RETURN JUMPDEST PUSH2 0x82 PUSH32 0x9F4E1C871D5FDD0AEE1CD182666698A4492B24C6832AAC230D07B11046AF5A89 DUP2 JUMP JUMPDEST PUSH2 0x82 PUSH32 0x749410EDF1177AEFA27612B24D2D51E6441F89613F5DDF9BE1D11DFC0D3E4FEA DUP2 JUMP JUMPDEST PUSH2 0x82 PUSH32 0x2172861495E7B85EDAC73E3CD5FBB42DD675BAADF627720E687BCFDACA025096 DUP2 JUMP INVALID LOG2 PUSH5 0x6970667358 0x22 SLT KECCAK256 0xB5 RETURNDATACOPY 0xE6 SWAP1 PUSH8 0x76BFC322AED89000 ADDRESS CALLCODE 0xBB 0x26 0x2D ISZERO DUP7 0xE0 0xEB 0xCA 0xE8 PUSH24 0xA38924CA4E978A64736F6C63430008180033000000000000 "
        },
        "methodIdentifiers": {
          "ROLE_ADMIN()": "d391014b",
          "ROLE_OWNER()": "8ad682af",
          "ROLE_SIGNER()": "af2371e3",
          "ROLE_VECTOR_AUTHORITY()": "60f428db"
        }
      }
    }
  }
}