{
  "contracts/modules/access/AccessModule.sol": {
    "AccessModule": {
      "abi": [
        {
          "inputs": [
            {
              "internalType": "address",
              "name": "r",
              "type": "address"
            }
          ],
          "stateMutability": "nonpayable",
          "type": "constructor"
        },
        {
          "inputs": [
            {
              "internalType": "bytes32",
              "name": "role",
              "type": "bytes32"
            },
            {
              "internalType": "address",
              "name": "account",
              "type": "address"
            }
          ],
          "name": "grantRole",
          "outputs": [],
          "stateMutability": "nonpayable",
          "type": "function"
        },
        {
          "inputs": [
            {
              "internalType": "bytes32",
              "name": "role",
              "type": "bytes32"
            },
            {
              "internalType": "address",
              "name": "account",
              "type": "address"
            }
          ],
          "name": "hasRole",
          "outputs": [
            {
              "internalType": "bool",
              "name": "",
              "type": "bool"
            }
          ],
          "stateMutability": "view",
          "type": "function"
        },
        {
          "inputs": [
            {
              "internalType": "address",
              "name": "o",
              "type": "address"
            },
            {
              "internalType": "address[]",
              "name": "admins",
              "type": "address[]"
            }
          ],
          "name": "init",
          "outputs": [],
          "stateMutability": "nonpayable",
          "type": "function"
        },
        {
          "inputs": [],
          "name": "name",
          "outputs": [
            {
              "internalType": "string",
              "name": "",
              "type": "string"
            }
          ],
          "stateMutability": "view",
          "type": "function"
        },
        {
          "inputs": [],
          "name": "owner",
          "outputs": [
            {
              "internalType": "address",
              "name": "",
              "type": "address"
            }
          ],
          "stateMutability": "view",
          "type": "function"
        },
        {
          "inputs": [],
          "name": "registry",
          "outputs": [
            {
              "internalType": "contract IModuleRegistry",
              "name": "",
              "type": "address"
            }
          ],
          "stateMutability": "view",
          "type": "function"
        },
        {
          "inputs": [
            {
              "internalType": "bytes32",
              "name": "role",
              "type": "bytes32"
            },
            {
              "internalType": "address",
              "name": "account",
              "type": "address"
            }
          ],
          "name": "revokeRole",
          "outputs": [],
          "stateMutability": "nonpayable",
          "type": "function"
        },
        {
          "inputs": [
            {
              "internalType": "address",
              "name": "o",
              "type": "address"
            }
          ],
          "name": "setOwner",
          "outputs": [],
          "stateMutability": "nonpayable",
          "type": "function"
        },
        {
          "inputs": [],
          "name": "version",
          "outputs": [
            {
              "components": [
                {
                  "internalType": "uint16",
                  "name": "major",
                  "type": "uint16"
                },
                {
                  "internalType": "uint16",
                  "name": "minor",
                  "type": "uint16"
                }
              ],
              "internalType": "struct ModuleVersion",
              "name": "",
              "type": "tuple"
            }
          ],
          "stateMutability": "view",
          "type": "function"
        }
      ],
      "evm": {
        "bytecode": {
          "linkReferences": {},
          "object": "608060405234801561001057600080fd5b50604051610a0e380380610a0e83398101604081905261002f916100c9565b6001600160a01b0381166100a45760405162461bcd60e51b815260206004820152603260248201527f416363657373436f6e74726f6c3a2063616e6e6f742073657420726567697374604482015271727920746f207a65726f206164647265737360701b606482015260840160405180910390fd5b600080546001600160a01b0319166001600160a01b03929092169190911790556100f9565b6000602082840312156100db57600080fd5b81516001600160a01b03811681146100f257600080fd5b9392505050565b610906806101086000396000f3fe608060405234801561001057600080fd5b50600436106100935760003560e01c806354fd4d501161006657806354fd4d50146101165780637b103999146101565780638da5cb5b1461018157806391d1485414610189578063d547741f146101ac57600080fd5b806306fdde031461009857806313af4035146100db5780632f2ff15d146100f05780633c5a3cea14610103575b600080fd5b6100c56040518060400160405280600e81526020016d125058d8d95cdcd0dbdb9d1c9bdb60921b81525081565b6040516100d291906106a3565b60405180910390f35b6100ee6100e936600461070e565b6101bf565b005b6100ee6100fe366004610730565b61021a565b6100ee610111366004610772565b6102ca565b604080518082018252600080825260209182018190528251808401845260018082529083019182528351908152905161ffff1691810191909152016100d2565b600054610169906001600160a01b031681565b6040516001600160a01b0390911681526020016100d2565b6101696104c3565b61019c610197366004610730565b6104de565b60405190151581526020016100d2565b6100ee6101ba366004610730565b61056b565b6001600160a01b0381166101ee5760405162461bcd60e51b81526004016101e59061084a565b60405180910390fd5b60006101f8610616565b80546001600160a01b0319166001600160a01b03939093169290921790915550565b6001600160a01b0381166102895760405162461bcd60e51b815260206004820152603060248201527f416363657373436f6e74726f6c3a2063616e6e6f74206772616e7420726f6c6560448201526f20746f207a65726f206164647265737360801b60648201526084016101e5565b6000610293610616565b60009384526001908101602090815260408086206001600160a01b0395909516865293905291909220805460ff1916909117905550565b60006102d4610616565b90506001600160a01b0383166102fc5760405162461bcd60e51b81526004016101e59061084a565b7f9f4e1c871d5fdd0aee1cd182666698a4492b24c6832aac230d07b11046af5a8960009081526001828101602081815260408085206001600160a01b038916808752908352818620805460ff1990811687179091557f2172861495e7b85edac73e3cd5fbb42dd675baadf627720e687bcfdaca025096875293835281862081875290925284208054909216909217905582546001600160a01b0319161782555b82518110156104bd5760006001600160a01b03168382815181106103c2576103c2610899565b60200260200101516001600160a01b0316036104385760405162461bcd60e51b815260206004820152602f60248201527f416363657373436f6e74726f6c3a2063616e6e6f74207365742061646d696e2060448201526e746f207a65726f206164647265737360881b60648201526084016101e5565b60018260010160007f2172861495e7b85edac73e3cd5fbb42dd675baadf627720e687bcfdaca0250968152602001908152602001600020600085848151811061048357610483610899565b6020908102919091018101516001600160a01b03168252810191909152604001600020805460ff191691151591909117905560010161039c565b50505050565b6000806104ce610616565b546001600160a01b031692915050565b6000806104e9610616565b600085815260018201602090815260408083206001600160a01b038816845290915290205490915060ff16806105615760405162461bcd60e51b815260206004820152601f60248201527f416363657373436f6e74726f6c3a20726f6c65206e6f74206772616e7465640060448201526064016101e5565b9150505b92915050565b6001600160a01b0381166105dd5760405162461bcd60e51b815260206004820152603360248201527f416363657373436f6e74726f6c3a2063616e6e6f74207265766f6b6520726f6c604482015272652066726f6d207a65726f206164647265737360681b60648201526084016101e5565b60006105e7610616565b6000938452600101602090815260408085206001600160a01b039094168552929052509020805460ff19169055565b60408051808201909152601481527378722e6163636573732e73746f726167652e763160601b60209091015260008060ff61067260017fd870894b15ee1369a593f3670ac51c4ed8201dab473944ee712694d327dd58756108af565b60405160200161068491815260200190565b60408051601f1981840301815291905280516020909101201692915050565b60006020808352835180602085015260005b818110156106d1578581018301518582016040015282016106b5565b506000604082860101526040601f19601f8301168501019250505092915050565b80356001600160a01b038116811461070957600080fd5b919050565b60006020828403121561072057600080fd5b610729826106f2565b9392505050565b6000806040838503121561074357600080fd5b82359150610753602084016106f2565b90509250929050565b634e487b7160e01b600052604160045260246000fd5b6000806040838503121561078557600080fd5b61078e836106f2565b915060208084013567ffffffffffffffff808211156107ac57600080fd5b818601915086601f8301126107c057600080fd5b8135818111156107d2576107d261075c565b8060051b604051601f19603f830116810181811085821117156107f7576107f761075c565b60405291825284820192508381018501918983111561081557600080fd5b938501935b8285101561083a5761082b856106f2565b8452938501939285019261081a565b8096505050505050509250929050565b6020808252602f908201527f416363657373436f6e74726f6c3a2063616e6e6f7420736574206f776e65722060408201526e746f207a65726f206164647265737360881b606082015260800190565b634e487b7160e01b600052603260045260246000fd5b8181038181111561056557634e487b7160e01b600052601160045260246000fdfea2646970667358221220d7c5b13998704fb573f4318c8a98e709171ea7f6cbf0ca431817dd367aa069de64736f6c63430008180033",
          "opcodes": "PUSH1 0x80 PUSH1 0x40 MSTORE CALLVALUE DUP1 ISZERO PUSH2 0x10 JUMPI PUSH1 0x0 DUP1 REVERT JUMPDEST POP PUSH1 0x40 MLOAD PUSH2 0xA0E CODESIZE SUB DUP1 PUSH2 0xA0E DUP4 CODECOPY DUP2 ADD PUSH1 0x40 DUP2 SWAP1 MSTORE PUSH2 0x2F SWAP2 PUSH2 0xC9 JUMP JUMPDEST PUSH1 0x1 PUSH1 0x1 PUSH1 0xA0 SHL SUB DUP2 AND PUSH2 0xA4 JUMPI PUSH1 0x40 MLOAD PUSH3 0x461BCD PUSH1 0xE5 SHL DUP2 MSTORE PUSH1 0x20 PUSH1 0x4 DUP3 ADD MSTORE PUSH1 0x32 PUSH1 0x24 DUP3 ADD MSTORE PUSH32 0x416363657373436F6E74726F6C3A2063616E6E6F742073657420726567697374 PUSH1 0x44 DUP3 ADD MSTORE PUSH18 0x727920746F207A65726F2061646472657373 PUSH1 0x70 SHL PUSH1 0x64 DUP3 ADD MSTORE PUSH1 0x84 ADD PUSH1 0x40 MLOAD DUP1 SWAP2 SUB SWAP1 REVERT JUMPDEST PUSH1 0x0 DUP1 SLOAD PUSH1 0x1 PUSH1 0x1 PUSH1 0xA0 SHL SUB NOT AND PUSH1 0x1 PUSH1 0x1 PUSH1 0xA0 SHL SUB SWAP3 SWAP1 SWAP3 AND SWAP2 SWAP1 SWAP2 OR SWAP1 SSTORE PUSH2 0xF9 JUMP JUMPDEST PUSH1 0x0 PUSH1 0x20 DUP3 DUP5 SUB SLT ISZERO PUSH2 0xDB JUMPI PUSH1 0x0 DUP1 REVERT JUMPDEST DUP2 MLOAD PUSH1 0x1 PUSH1 0x1 PUSH1 0xA0 SHL SUB DUP2 AND DUP2 EQ PUSH2 0xF2 JUMPI PUSH1 0x0 DUP1 REVERT JUMPDEST SWAP4 SWAP3 POP POP POP JUMP JUMPDEST PUSH2 0x906 DUP1 PUSH2 0x108 PUSH1 0x0 CODECOPY PUSH1 0x0 RETURN INVALID PUSH1 0x80 PUSH1 0x40 MSTORE CALLVALUE DUP1 ISZERO PUSH2 0x10 JUMPI PUSH1 0x0 DUP1 REVERT JUMPDEST POP PUSH1 0x4 CALLDATASIZE LT PUSH2 0x93 JUMPI PUSH1 0x0 CALLDATALOAD PUSH1 0xE0 SHR DUP1 PUSH4 0x54FD4D50 GT PUSH2 0x66 JUMPI DUP1 PUSH4 0x54FD4D50 EQ PUSH2 0x116 JUMPI DUP1 PUSH4 0x7B103999 EQ PUSH2 0x156 JUMPI DUP1 PUSH4 0x8DA5CB5B EQ PUSH2 0x181 JUMPI DUP1 PUSH4 0x91D14854 EQ PUSH2 0x189 JUMPI DUP1 PUSH4 0xD547741F EQ PUSH2 0x1AC JUMPI PUSH1 0x0 DUP1 REVERT JUMPDEST DUP1 PUSH4 0x6FDDE03 EQ PUSH2 0x98 JUMPI DUP1 PUSH4 0x13AF4035 EQ PUSH2 0xDB JUMPI DUP1 PUSH4 0x2F2FF15D EQ PUSH2 0xF0 JUMPI DUP1 PUSH4 0x3C5A3CEA EQ PUSH2 0x103 JUMPI JUMPDEST PUSH1 0x0 DUP1 REVERT JUMPDEST PUSH2 0xC5 PUSH1 0x40 MLOAD DUP1 PUSH1 0x40 ADD PUSH1 0x40 MSTORE DUP1 PUSH1 0xE DUP2 MSTORE PUSH1 0x20 ADD PUSH14 0x125058D8D95CDCD0DBDB9D1C9BDB PUSH1 0x92 SHL DUP2 MSTORE POP DUP2 JUMP JUMPDEST PUSH1 0x40 MLOAD PUSH2 0xD2 SWAP2 SWAP1 PUSH2 0x6A3 JUMP JUMPDEST PUSH1 0x40 MLOAD DUP1 SWAP2 SUB SWAP1 RETURN JUMPDEST PUSH2 0xEE PUSH2 0xE9 CALLDATASIZE PUSH1 0x4 PUSH2 0x70E JUMP JUMPDEST PUSH2 0x1BF JUMP JUMPDEST STOP JUMPDEST PUSH2 0xEE PUSH2 0xFE CALLDATASIZE PUSH1 0x4 PUSH2 0x730 JUMP JUMPDEST PUSH2 0x21A JUMP JUMPDEST PUSH2 0xEE PUSH2 0x111 CALLDATASIZE PUSH1 0x4 PUSH2 0x772 JUMP JUMPDEST PUSH2 0x2CA JUMP JUMPDEST PUSH1 0x40 DUP1 MLOAD DUP1 DUP3 ADD DUP3 MSTORE PUSH1 0x0 DUP1 DUP3 MSTORE PUSH1 0x20 SWAP2 DUP3 ADD DUP2 SWAP1 MSTORE DUP3 MLOAD DUP1 DUP5 ADD DUP5 MSTORE PUSH1 0x1 DUP1 DUP3 MSTORE SWAP1 DUP4 ADD SWAP2 DUP3 MSTORE DUP4 MLOAD SWAP1 DUP2 MSTORE SWAP1 MLOAD PUSH2 0xFFFF AND SWAP2 DUP2 ADD SWAP2 SWAP1 SWAP2 MSTORE ADD PUSH2 0xD2 JUMP JUMPDEST PUSH1 0x0 SLOAD PUSH2 0x169 SWAP1 PUSH1 0x1 PUSH1 0x1 PUSH1 0xA0 SHL SUB AND DUP2 JUMP JUMPDEST PUSH1 0x40 MLOAD PUSH1 0x1 PUSH1 0x1 PUSH1 0xA0 SHL SUB SWAP1 SWAP2 AND DUP2 MSTORE PUSH1 0x20 ADD PUSH2 0xD2 JUMP JUMPDEST PUSH2 0x169 PUSH2 0x4C3 JUMP JUMPDEST PUSH2 0x19C PUSH2 0x197 CALLDATASIZE PUSH1 0x4 PUSH2 0x730 JUMP JUMPDEST PUSH2 0x4DE JUMP JUMPDEST PUSH1 0x40 MLOAD SWAP1 ISZERO ISZERO DUP2 MSTORE PUSH1 0x20 ADD PUSH2 0xD2 JUMP JUMPDEST PUSH2 0xEE PUSH2 0x1BA CALLDATASIZE PUSH1 0x4 PUSH2 0x730 JUMP JUMPDEST PUSH2 0x56B JUMP JUMPDEST PUSH1 0x1 PUSH1 0x1 PUSH1 0xA0 SHL SUB DUP2 AND PUSH2 0x1EE JUMPI PUSH1 0x40 MLOAD PUSH3 0x461BCD PUSH1 0xE5 SHL DUP2 MSTORE PUSH1 0x4 ADD PUSH2 0x1E5 SWAP1 PUSH2 0x84A JUMP JUMPDEST PUSH1 0x40 MLOAD DUP1 SWAP2 SUB SWAP1 REVERT JUMPDEST PUSH1 0x0 PUSH2 0x1F8 PUSH2 0x616 JUMP JUMPDEST DUP1 SLOAD PUSH1 0x1 PUSH1 0x1 PUSH1 0xA0 SHL SUB NOT AND PUSH1 0x1 PUSH1 0x1 PUSH1 0xA0 SHL SUB SWAP4 SWAP1 SWAP4 AND SWAP3 SWAP1 SWAP3 OR SWAP1 SWAP2 SSTORE POP JUMP JUMPDEST PUSH1 0x1 PUSH1 0x1 PUSH1 0xA0 SHL SUB DUP2 AND PUSH2 0x289 JUMPI PUSH1 0x40 MLOAD PUSH3 0x461BCD PUSH1 0xE5 SHL DUP2 MSTORE PUSH1 0x20 PUSH1 0x4 DUP3 ADD MSTORE PUSH1 0x30 PUSH1 0x24 DUP3 ADD MSTORE PUSH32 0x416363657373436F6E74726F6C3A2063616E6E6F74206772616E7420726F6C65 PUSH1 0x44 DUP3 ADD MSTORE PUSH16 0x20746F207A65726F2061646472657373 PUSH1 0x80 SHL PUSH1 0x64 DUP3 ADD MSTORE PUSH1 0x84 ADD PUSH2 0x1E5 JUMP JUMPDEST PUSH1 0x0 PUSH2 0x293 PUSH2 0x616 JUMP JUMPDEST PUSH1 0x0 SWAP4 DUP5 MSTORE PUSH1 0x1 SWAP1 DUP2 ADD PUSH1 0x20 SWAP1 DUP2 MSTORE PUSH1 0x40 DUP1 DUP7 KECCAK256 PUSH1 0x1 PUSH1 0x1 PUSH1 0xA0 SHL SUB SWAP6 SWAP1 SWAP6 AND DUP7 MSTORE SWAP4 SWAP1 MSTORE SWAP2 SWAP1 SWAP3 KECCAK256 DUP1 SLOAD PUSH1 0xFF NOT AND SWAP1 SWAP2 OR SWAP1 SSTORE POP JUMP JUMPDEST PUSH1 0x0 PUSH2 0x2D4 PUSH2 0x616 JUMP JUMPDEST SWAP1 POP PUSH1 0x1 PUSH1 0x1 PUSH1 0xA0 SHL SUB DUP4 AND PUSH2 0x2FC JUMPI PUSH1 0x40 MLOAD PUSH3 0x461BCD PUSH1 0xE5 SHL DUP2 MSTORE PUSH1 0x4 ADD PUSH2 0x1E5 SWAP1 PUSH2 0x84A JUMP JUMPDEST PUSH32 0x9F4E1C871D5FDD0AEE1CD182666698A4492B24C6832AAC230D07B11046AF5A89 PUSH1 0x0 SWAP1 DUP2 MSTORE PUSH1 0x1 DUP3 DUP2 ADD PUSH1 0x20 DUP2 DUP2 MSTORE PUSH1 0x40 DUP1 DUP6 KECCAK256 PUSH1 0x1 PUSH1 0x1 PUSH1 0xA0 SHL SUB DUP10 AND DUP1 DUP8 MSTORE SWAP1 DUP4 MSTORE DUP2 DUP7 KECCAK256 DUP1 SLOAD PUSH1 0xFF NOT SWAP1 DUP2 AND DUP8 OR SWAP1 SWAP2 SSTORE PUSH32 0x2172861495E7B85EDAC73E3CD5FBB42DD675BAADF627720E687BCFDACA025096 DUP8 MSTORE SWAP4 DUP4 MSTORE DUP2 DUP7 KECCAK256 DUP2 DUP8 MSTORE SWAP1 SWAP3 MSTORE DUP5 KECCAK256 DUP1 SLOAD SWAP1 SWAP3 AND SWAP1 SWAP3 OR SWAP1 SSTORE DUP3 SLOAD PUSH1 0x1 PUSH1 0x1 PUSH1 0xA0 SHL SUB NOT AND OR DUP3 SSTORE JUMPDEST DUP3 MLOAD DUP2 LT ISZERO PUSH2 0x4BD JUMPI PUSH1 0x0 PUSH1 0x1 PUSH1 0x1 PUSH1 0xA0 SHL SUB AND DUP4 DUP3 DUP2 MLOAD DUP2 LT PUSH2 0x3C2 JUMPI PUSH2 0x3C2 PUSH2 0x899 JUMP JUMPDEST PUSH1 0x20 MUL PUSH1 0x20 ADD ADD MLOAD PUSH1 0x1 PUSH1 0x1 PUSH1 0xA0 SHL SUB AND SUB PUSH2 0x438 JUMPI PUSH1 0x40 MLOAD PUSH3 0x461BCD PUSH1 0xE5 SHL DUP2 MSTORE PUSH1 0x20 PUSH1 0x4 DUP3 ADD MSTORE PUSH1 0x2F PUSH1 0x24 DUP3 ADD MSTORE PUSH32 0x416363657373436F6E74726F6C3A2063616E6E6F74207365742061646D696E20 PUSH1 0x44 DUP3 ADD MSTORE PUSH15 0x746F207A65726F2061646472657373 PUSH1 0x88 SHL PUSH1 0x64 DUP3 ADD MSTORE PUSH1 0x84 ADD PUSH2 0x1E5 JUMP JUMPDEST PUSH1 0x1 DUP3 PUSH1 0x1 ADD PUSH1 0x0 PUSH32 0x2172861495E7B85EDAC73E3CD5FBB42DD675BAADF627720E687BCFDACA025096 DUP2 MSTORE PUSH1 0x20 ADD SWAP1 DUP2 MSTORE PUSH1 0x20 ADD PUSH1 0x0 KECCAK256 PUSH1 0x0 DUP6 DUP5 DUP2 MLOAD DUP2 LT PUSH2 0x483 JUMPI PUSH2 0x483 PUSH2 0x899 JUMP JUMPDEST PUSH1 0x20 SWAP1 DUP2 MUL SWAP2 SWAP1 SWAP2 ADD DUP2 ADD MLOAD PUSH1 0x1 PUSH1 0x1 PUSH1 0xA0 SHL SUB AND DUP3 MSTORE DUP2 ADD SWAP2 SWAP1 SWAP2 MSTORE PUSH1 0x40 ADD PUSH1 0x0 KECCAK256 DUP1 SLOAD PUSH1 0xFF NOT AND SWAP2 ISZERO ISZERO SWAP2 SWAP1 SWAP2 OR SWAP1 SSTORE PUSH1 0x1 ADD PUSH2 0x39C JUMP JUMPDEST POP POP POP POP JUMP JUMPDEST PUSH1 0x0 DUP1 PUSH2 0x4CE PUSH2 0x616 JUMP JUMPDEST SLOAD PUSH1 0x1 PUSH1 0x1 PUSH1 0xA0 SHL SUB AND SWAP3 SWAP2 POP POP JUMP JUMPDEST PUSH1 0x0 DUP1 PUSH2 0x4E9 PUSH2 0x616 JUMP JUMPDEST PUSH1 0x0 DUP6 DUP2 MSTORE PUSH1 0x1 DUP3 ADD PUSH1 0x20 SWAP1 DUP2 MSTORE PUSH1 0x40 DUP1 DUP4 KECCAK256 PUSH1 0x1 PUSH1 0x1 PUSH1 0xA0 SHL SUB DUP9 AND DUP5 MSTORE SWAP1 SWAP2 MSTORE SWAP1 KECCAK256 SLOAD SWAP1 SWAP2 POP PUSH1 0xFF AND DUP1 PUSH2 0x561 JUMPI PUSH1 0x40 MLOAD PUSH3 0x461BCD PUSH1 0xE5 SHL DUP2 MSTORE PUSH1 0x20 PUSH1 0x4 DUP3 ADD MSTORE PUSH1 0x1F PUSH1 0x24 DUP3 ADD MSTORE PUSH32 0x416363657373436F6E74726F6C3A20726F6C65206E6F74206772616E74656400 PUSH1 0x44 DUP3 ADD MSTORE PUSH1 0x64 ADD PUSH2 0x1E5 JUMP JUMPDEST SWAP2 POP POP JUMPDEST SWAP3 SWAP2 POP POP JUMP JUMPDEST PUSH1 0x1 PUSH1 0x1 PUSH1 0xA0 SHL SUB DUP2 AND PUSH2 0x5DD JUMPI PUSH1 0x40 MLOAD PUSH3 0x461BCD PUSH1 0xE5 SHL DUP2 MSTORE PUSH1 0x20 PUSH1 0x4 DUP3 ADD MSTORE PUSH1 0x33 PUSH1 0x24 DUP3 ADD MSTORE PUSH32 0x416363657373436F6E74726F6C3A2063616E6E6F74207265766F6B6520726F6C PUSH1 0x44 DUP3 ADD MSTORE PUSH19 0x652066726F6D207A65726F2061646472657373 PUSH1 0x68 SHL PUSH1 0x64 DUP3 ADD MSTORE PUSH1 0x84 ADD PUSH2 0x1E5 JUMP JUMPDEST PUSH1 0x0 PUSH2 0x5E7 PUSH2 0x616 JUMP JUMPDEST PUSH1 0x0 SWAP4 DUP5 MSTORE PUSH1 0x1 ADD PUSH1 0x20 SWAP1 DUP2 MSTORE PUSH1 0x40 DUP1 DUP6 KECCAK256 PUSH1 0x1 PUSH1 0x1 PUSH1 0xA0 SHL SUB SWAP1 SWAP5 AND DUP6 MSTORE SWAP3 SWAP1 MSTORE POP SWAP1 KECCAK256 DUP1 SLOAD PUSH1 0xFF NOT AND SWAP1 SSTORE JUMP JUMPDEST PUSH1 0x40 DUP1 MLOAD DUP1 DUP3 ADD SWAP1 SWAP2 MSTORE PUSH1 0x14 DUP2 MSTORE PUSH20 0x78722E6163636573732E73746F726167652E7631 PUSH1 0x60 SHL PUSH1 0x20 SWAP1 SWAP2 ADD MSTORE PUSH1 0x0 DUP1 PUSH1 0xFF PUSH2 0x672 PUSH1 0x1 PUSH32 0xD870894B15EE1369A593F3670AC51C4ED8201DAB473944EE712694D327DD5875 PUSH2 0x8AF JUMP JUMPDEST PUSH1 0x40 MLOAD PUSH1 0x20 ADD PUSH2 0x684 SWAP2 DUP2 MSTORE PUSH1 0x20 ADD SWAP1 JUMP JUMPDEST PUSH1 0x40 DUP1 MLOAD PUSH1 0x1F NOT DUP2 DUP5 SUB ADD DUP2 MSTORE SWAP2 SWAP1 MSTORE DUP1 MLOAD PUSH1 0x20 SWAP1 SWAP2 ADD KECCAK256 AND SWAP3 SWAP2 POP POP JUMP JUMPDEST PUSH1 0x0 PUSH1 0x20 DUP1 DUP4 MSTORE DUP4 MLOAD DUP1 PUSH1 0x20 DUP6 ADD MSTORE PUSH1 0x0 JUMPDEST DUP2 DUP2 LT ISZERO PUSH2 0x6D1 JUMPI DUP6 DUP2 ADD DUP4 ADD MLOAD DUP6 DUP3 ADD PUSH1 0x40 ADD MSTORE DUP3 ADD PUSH2 0x6B5 JUMP JUMPDEST POP PUSH1 0x0 PUSH1 0x40 DUP3 DUP7 ADD ADD MSTORE PUSH1 0x40 PUSH1 0x1F NOT PUSH1 0x1F DUP4 ADD AND DUP6 ADD ADD SWAP3 POP POP POP SWAP3 SWAP2 POP POP JUMP JUMPDEST DUP1 CALLDATALOAD PUSH1 0x1 PUSH1 0x1 PUSH1 0xA0 SHL SUB DUP2 AND DUP2 EQ PUSH2 0x709 JUMPI PUSH1 0x0 DUP1 REVERT JUMPDEST SWAP2 SWAP1 POP JUMP JUMPDEST PUSH1 0x0 PUSH1 0x20 DUP3 DUP5 SUB SLT ISZERO PUSH2 0x720 JUMPI PUSH1 0x0 DUP1 REVERT JUMPDEST PUSH2 0x729 DUP3 PUSH2 0x6F2 JUMP JUMPDEST SWAP4 SWAP3 POP POP POP JUMP JUMPDEST PUSH1 0x0 DUP1 PUSH1 0x40 DUP4 DUP6 SUB SLT ISZERO PUSH2 0x743 JUMPI PUSH1 0x0 DUP1 REVERT JUMPDEST DUP3 CALLDATALOAD SWAP2 POP PUSH2 0x753 PUSH1 0x20 DUP5 ADD PUSH2 0x6F2 JUMP JUMPDEST SWAP1 POP SWAP3 POP SWAP3 SWAP1 POP JUMP JUMPDEST PUSH4 0x4E487B71 PUSH1 0xE0 SHL PUSH1 0x0 MSTORE PUSH1 0x41 PUSH1 0x4 MSTORE PUSH1 0x24 PUSH1 0x0 REVERT JUMPDEST PUSH1 0x0 DUP1 PUSH1 0x40 DUP4 DUP6 SUB SLT ISZERO PUSH2 0x785 JUMPI PUSH1 0x0 DUP1 REVERT JUMPDEST PUSH2 0x78E DUP4 PUSH2 0x6F2 JUMP JUMPDEST SWAP2 POP PUSH1 0x20 DUP1 DUP5 ADD CALLDATALOAD PUSH8 0xFFFFFFFFFFFFFFFF DUP1 DUP3 GT ISZERO PUSH2 0x7AC JUMPI PUSH1 0x0 DUP1 REVERT JUMPDEST DUP2 DUP7 ADD SWAP2 POP DUP7 PUSH1 0x1F DUP4 ADD SLT PUSH2 0x7C0 JUMPI PUSH1 0x0 DUP1 REVERT JUMPDEST DUP2 CALLDATALOAD DUP2 DUP2 GT ISZERO PUSH2 0x7D2 JUMPI PUSH2 0x7D2 PUSH2 0x75C JUMP JUMPDEST DUP1 PUSH1 0x5 SHL PUSH1 0x40 MLOAD PUSH1 0x1F NOT PUSH1 0x3F DUP4 ADD AND DUP2 ADD DUP2 DUP2 LT DUP6 DUP3 GT OR ISZERO PUSH2 0x7F7 JUMPI PUSH2 0x7F7 PUSH2 0x75C JUMP JUMPDEST PUSH1 0x40 MSTORE SWAP2 DUP3 MSTORE DUP5 DUP3 ADD SWAP3 POP DUP4 DUP2 ADD DUP6 ADD SWAP2 DUP10 DUP4 GT ISZERO PUSH2 0x815 JUMPI PUSH1 0x0 DUP1 REVERT JUMPDEST SWAP4 DUP6 ADD SWAP4 JUMPDEST DUP3 DUP6 LT ISZERO PUSH2 0x83A JUMPI PUSH2 0x82B DUP6 PUSH2 0x6F2 JUMP JUMPDEST DUP5 MSTORE SWAP4 DUP6 ADD SWAP4 SWAP3 DUP6 ADD SWAP3 PUSH2 0x81A JUMP JUMPDEST DUP1 SWAP7 POP POP POP POP POP POP POP SWAP3 POP SWAP3 SWAP1 POP JUMP JUMPDEST PUSH1 0x20 DUP1 DUP3 MSTORE PUSH1 0x2F SWAP1 DUP3 ADD MSTORE PUSH32 0x416363657373436F6E74726F6C3A2063616E6E6F7420736574206F776E657220 PUSH1 0x40 DUP3 ADD MSTORE PUSH15 0x746F207A65726F2061646472657373 PUSH1 0x88 SHL PUSH1 0x60 DUP3 ADD MSTORE PUSH1 0x80 ADD SWAP1 JUMP JUMPDEST PUSH4 0x4E487B71 PUSH1 0xE0 SHL PUSH1 0x0 MSTORE PUSH1 0x32 PUSH1 0x4 MSTORE PUSH1 0x24 PUSH1 0x0 REVERT JUMPDEST DUP2 DUP2 SUB DUP2 DUP2 GT ISZERO PUSH2 0x565 JUMPI PUSH4 0x4E487B71 PUSH1 0xE0 SHL PUSH1 0x0 MSTORE PUSH1 0x11 PUSH1 0x4 MSTORE PUSH1 0x24 PUSH1 0x0 REVERT INVALID LOG2 PUSH5 0x6970667358 0x22 SLT KECCAK256 0xD7 0xC5 0xB1 CODECOPY SWAP9 PUSH17 0x4FB573F4318C8A98E709171EA7F6CBF0CA NUMBER XOR OR 0xDD CALLDATASIZE PUSH27 0xA069DE64736F6C6343000818003300000000000000000000000000 "
        },
        "methodIdentifiers": {
          "grantRole(bytes32,address)": "2f2ff15d",
          "hasRole(bytes32,address)": "91d14854",
          "init(address,address[])": "3c5a3cea",
          "name()": "06fdde03",
          "owner()": "8da5cb5b",
          "registry()": "7b103999",
          "revokeRole(bytes32,address)": "d547741f",
          "setOwner(address)": "13af4035",
          "version()": "54fd4d50"
        }
      }
    }
  }
}