{
  "contracts/shared-libs/SharedLibEntityFactory.sol": {
    "SharedLibEntityFactory": {
      "abi": [
        {
          "anonymous": false,
          "inputs": [
            {
              "indexed": true,
              "internalType": "address",
              "name": "registry",
              "type": "address"
            }
          ],
          "name": "FactoryAuthorizedRegistryChanged",
          "type": "event"
        },
        {
          "anonymous": false,
          "inputs": [
            {
              "indexed": true,
              "internalType": "address",
              "name": "newImpl",
              "type": "address"
            },
            {
              "components": [
                {
                  "internalType": "uint16",
                  "name": "major",
                  "type": "uint16"
                },
                {
                  "internalType": "uint16",
                  "name": "minor",
                  "type": "uint16"
                }
              ],
              "indexed": false,
              "internalType": "struct ModuleVersion",
              "name": "version",
              "type": "tuple"
            }
          ],
          "name": "FactoryImplementationChanged",
          "type": "event"
        },
        {
          "anonymous": false,
          "inputs": [
            {
              "indexed": true,
              "internalType": "address",
              "name": "newImpl",
              "type": "address"
            }
          ],
          "name": "FactoryProxyImplementationChanged",
          "type": "event"
        },
        {
          "inputs": [],
          "name": "currentImplVersion",
          "outputs": [
            {
              "components": [
                {
                  "internalType": "uint16",
                  "name": "major",
                  "type": "uint16"
                },
                {
                  "internalType": "uint16",
                  "name": "minor",
                  "type": "uint16"
                }
              ],
              "internalType": "struct ModuleVersion",
              "name": "",
              "type": "tuple"
            }
          ],
          "stateMutability": "view",
          "type": "function"
        },
        {
          "inputs": [],
          "name": "getImplementation",
          "outputs": [
            {
              "internalType": "address",
              "name": "",
              "type": "address"
            }
          ],
          "stateMutability": "view",
          "type": "function"
        }
      ],
      "evm": {
        "bytecode": {
          "linkReferences": {},
          "object": "6105c361003a600b82828239805160001a60731461002d57634e487b7160e01b600052600060045260246000fd5b30600052607381538281f3fe73000000000000000000000000000000000000000030146080604052600436106100615760003560e01c8063090741a0146100665780639fdcd3a414610088578063aaf10f42146100a8578063d0825a40146100cd578063d784d426146100e2575b600080fd5b81801561007257600080fd5b50610086610081366004610497565b610102565b005b81801561009457600080fd5b506100866100a3366004610497565b610158565b6100b061022f565b6040516001600160a01b0390911681526020015b60405180910390f35b6100d5610248565b6040516100c491906104c7565b8180156100ee57600080fd5b506100866100fd366004610497565b61028f565b8061010b610401565b60030180546001600160a01b0319166001600160a01b03928316179055604051908216907fad0dfe0fda258f94a82030e324cf394efbbbd24d325b18fa4ec97de8bd4ddbe390600090a250565b6001600160a01b0381166101d95760405162461bcd60e51b815260206004820152603a60248201527f456e74697479466163746f72793a2070726f787920696d706c656d656e74617460448201527f696f6e2063616e6e6f74206265207a65726f206164647265737300000000000060648201526084015b60405180910390fd5b806101e2610401565b60020180546001600160a01b0319166001600160a01b03928316179055604051908216907f991c4b332a60195e524c352f317b88fad3ed04c18e3dbe71f556c4decf821e7390600090a250565b6000610239610401565b546001600160a01b0316919050565b6040805180820190915260008082526020820152610264610401565b604080518082019091526001919091015461ffff808216835262010000909104166020820152919050565b6001600160a01b0381166103025760405162461bcd60e51b815260206004820152603460248201527f456e74697479466163746f72793a20696d706c656d656e746174696f6e2063616044820152736e6e6f74206265207a65726f206164647265737360601b60648201526084016101d0565b600061030c610401565b80546001600160a01b0319166001600160a01b03841690811782556040805163054fd4d560e41b815281519394506000936354fd4d50926004808401939192918290030181865afa158015610365573d6000803e3d6000fd5b505050506040513d601f19601f820116820180604052508101906103899190610503565b8051600184018054602084015161ffff908116620100000263ffffffff199092169316929092179190911790556040519091506001600160a01b038416907f0c20d59c7000776631094c0c82c594445eea20883b1be077d60cbf4ec4114e16906103f49084906104c7565b60405180910390a2505050565b60408051808201909152601c81527f78722e656e746974792e666163746f72792e73746f726167652e76310000000060209091015260008060ff61046660017f8b4ac7cd4466ab0d50fe53a88c5446ca4a450d482bef9ad792e7d9f451497e0f61056c565b60405160200161047891815260200190565b60408051601f1981840301815291905280516020909101201692915050565b6000602082840312156104a957600080fd5b81356001600160a01b03811681146104c057600080fd5b9392505050565b604081016104e68284805161ffff908116835260209182015116910152565b92915050565b805161ffff811681146104fe57600080fd5b919050565b60006040828403121561051557600080fd5b6040516040810181811067ffffffffffffffff8211171561054657634e487b7160e01b600052604160045260246000fd5b604052610552836104ec565b8152610560602084016104ec565b60208201529392505050565b818103818111156104e657634e487b7160e01b600052601160045260246000fdfea2646970667358221220c6cd7b5fae18642d1b97ba4f70081581d58f17e755ce34d61f708a9fe4a8e51964736f6c63430008180033",
          "opcodes": "PUSH2 0x5C3 PUSH2 0x3A PUSH1 0xB DUP3 DUP3 DUP3 CODECOPY DUP1 MLOAD PUSH1 0x0 BYTE PUSH1 0x73 EQ PUSH2 0x2D JUMPI PUSH4 0x4E487B71 PUSH1 0xE0 SHL PUSH1 0x0 MSTORE PUSH1 0x0 PUSH1 0x4 MSTORE PUSH1 0x24 PUSH1 0x0 REVERT JUMPDEST ADDRESS PUSH1 0x0 MSTORE PUSH1 0x73 DUP2 MSTORE8 DUP3 DUP2 RETURN INVALID PUSH20 0x0 ADDRESS EQ PUSH1 0x80 PUSH1 0x40 MSTORE PUSH1 0x4 CALLDATASIZE LT PUSH2 0x61 JUMPI PUSH1 0x0 CALLDATALOAD PUSH1 0xE0 SHR DUP1 PUSH4 0x90741A0 EQ PUSH2 0x66 JUMPI DUP1 PUSH4 0x9FDCD3A4 EQ PUSH2 0x88 JUMPI DUP1 PUSH4 0xAAF10F42 EQ PUSH2 0xA8 JUMPI DUP1 PUSH4 0xD0825A40 EQ PUSH2 0xCD JUMPI DUP1 PUSH4 0xD784D426 EQ PUSH2 0xE2 JUMPI JUMPDEST PUSH1 0x0 DUP1 REVERT JUMPDEST DUP2 DUP1 ISZERO PUSH2 0x72 JUMPI PUSH1 0x0 DUP1 REVERT JUMPDEST POP PUSH2 0x86 PUSH2 0x81 CALLDATASIZE PUSH1 0x4 PUSH2 0x497 JUMP JUMPDEST PUSH2 0x102 JUMP JUMPDEST STOP JUMPDEST DUP2 DUP1 ISZERO PUSH2 0x94 JUMPI PUSH1 0x0 DUP1 REVERT JUMPDEST POP PUSH2 0x86 PUSH2 0xA3 CALLDATASIZE PUSH1 0x4 PUSH2 0x497 JUMP JUMPDEST PUSH2 0x158 JUMP JUMPDEST PUSH2 0xB0 PUSH2 0x22F JUMP JUMPDEST PUSH1 0x40 MLOAD PUSH1 0x1 PUSH1 0x1 PUSH1 0xA0 SHL SUB SWAP1 SWAP2 AND DUP2 MSTORE PUSH1 0x20 ADD JUMPDEST PUSH1 0x40 MLOAD DUP1 SWAP2 SUB SWAP1 RETURN JUMPDEST PUSH2 0xD5 PUSH2 0x248 JUMP JUMPDEST PUSH1 0x40 MLOAD PUSH2 0xC4 SWAP2 SWAP1 PUSH2 0x4C7 JUMP JUMPDEST DUP2 DUP1 ISZERO PUSH2 0xEE JUMPI PUSH1 0x0 DUP1 REVERT JUMPDEST POP PUSH2 0x86 PUSH2 0xFD CALLDATASIZE PUSH1 0x4 PUSH2 0x497 JUMP JUMPDEST PUSH2 0x28F JUMP JUMPDEST DUP1 PUSH2 0x10B PUSH2 0x401 JUMP JUMPDEST PUSH1 0x3 ADD DUP1 SLOAD PUSH1 0x1 PUSH1 0x1 PUSH1 0xA0 SHL SUB NOT AND PUSH1 0x1 PUSH1 0x1 PUSH1 0xA0 SHL SUB SWAP3 DUP4 AND OR SWAP1 SSTORE PUSH1 0x40 MLOAD SWAP1 DUP3 AND SWAP1 PUSH32 0xAD0DFE0FDA258F94A82030E324CF394EFBBBD24D325B18FA4EC97DE8BD4DDBE3 SWAP1 PUSH1 0x0 SWAP1 LOG2 POP JUMP JUMPDEST PUSH1 0x1 PUSH1 0x1 PUSH1 0xA0 SHL SUB DUP2 AND PUSH2 0x1D9 JUMPI PUSH1 0x40 MLOAD PUSH3 0x461BCD PUSH1 0xE5 SHL DUP2 MSTORE PUSH1 0x20 PUSH1 0x4 DUP3 ADD MSTORE PUSH1 0x3A PUSH1 0x24 DUP3 ADD MSTORE PUSH32 0x456E74697479466163746F72793A2070726F787920696D706C656D656E746174 PUSH1 0x44 DUP3 ADD MSTORE PUSH32 0x696F6E2063616E6E6F74206265207A65726F2061646472657373000000000000 PUSH1 0x64 DUP3 ADD MSTORE PUSH1 0x84 ADD JUMPDEST PUSH1 0x40 MLOAD DUP1 SWAP2 SUB SWAP1 REVERT JUMPDEST DUP1 PUSH2 0x1E2 PUSH2 0x401 JUMP JUMPDEST PUSH1 0x2 ADD DUP1 SLOAD PUSH1 0x1 PUSH1 0x1 PUSH1 0xA0 SHL SUB NOT AND PUSH1 0x1 PUSH1 0x1 PUSH1 0xA0 SHL SUB SWAP3 DUP4 AND OR SWAP1 SSTORE PUSH1 0x40 MLOAD SWAP1 DUP3 AND SWAP1 PUSH32 0x991C4B332A60195E524C352F317B88FAD3ED04C18E3DBE71F556C4DECF821E73 SWAP1 PUSH1 0x0 SWAP1 LOG2 POP JUMP JUMPDEST PUSH1 0x0 PUSH2 0x239 PUSH2 0x401 JUMP JUMPDEST SLOAD PUSH1 0x1 PUSH1 0x1 PUSH1 0xA0 SHL SUB AND SWAP2 SWAP1 POP JUMP JUMPDEST PUSH1 0x40 DUP1 MLOAD DUP1 DUP3 ADD SWAP1 SWAP2 MSTORE PUSH1 0x0 DUP1 DUP3 MSTORE PUSH1 0x20 DUP3 ADD MSTORE PUSH2 0x264 PUSH2 0x401 JUMP JUMPDEST PUSH1 0x40 DUP1 MLOAD DUP1 DUP3 ADD SWAP1 SWAP2 MSTORE PUSH1 0x1 SWAP2 SWAP1 SWAP2 ADD SLOAD PUSH2 0xFFFF DUP1 DUP3 AND DUP4 MSTORE PUSH3 0x10000 SWAP1 SWAP2 DIV AND PUSH1 0x20 DUP3 ADD MSTORE SWAP2 SWAP1 POP JUMP JUMPDEST PUSH1 0x1 PUSH1 0x1 PUSH1 0xA0 SHL SUB DUP2 AND PUSH2 0x302 JUMPI PUSH1 0x40 MLOAD PUSH3 0x461BCD PUSH1 0xE5 SHL DUP2 MSTORE PUSH1 0x20 PUSH1 0x4 DUP3 ADD MSTORE PUSH1 0x34 PUSH1 0x24 DUP3 ADD MSTORE PUSH32 0x456E74697479466163746F72793A20696D706C656D656E746174696F6E206361 PUSH1 0x44 DUP3 ADD MSTORE PUSH20 0x6E6E6F74206265207A65726F2061646472657373 PUSH1 0x60 SHL PUSH1 0x64 DUP3 ADD MSTORE PUSH1 0x84 ADD PUSH2 0x1D0 JUMP JUMPDEST PUSH1 0x0 PUSH2 0x30C PUSH2 0x401 JUMP JUMPDEST DUP1 SLOAD PUSH1 0x1 PUSH1 0x1 PUSH1 0xA0 SHL SUB NOT AND PUSH1 0x1 PUSH1 0x1 PUSH1 0xA0 SHL SUB DUP5 AND SWAP1 DUP2 OR DUP3 SSTORE PUSH1 0x40 DUP1 MLOAD PUSH4 0x54FD4D5 PUSH1 0xE4 SHL DUP2 MSTORE DUP2 MLOAD SWAP4 SWAP5 POP PUSH1 0x0 SWAP4 PUSH4 0x54FD4D50 SWAP3 PUSH1 0x4 DUP1 DUP5 ADD SWAP4 SWAP2 SWAP3 SWAP2 DUP3 SWAP1 SUB ADD DUP2 DUP7 GAS STATICCALL ISZERO DUP1 ISZERO PUSH2 0x365 JUMPI RETURNDATASIZE PUSH1 0x0 DUP1 RETURNDATACOPY RETURNDATASIZE PUSH1 0x0 REVERT JUMPDEST POP POP POP POP PUSH1 0x40 MLOAD RETURNDATASIZE PUSH1 0x1F NOT PUSH1 0x1F DUP3 ADD AND DUP3 ADD DUP1 PUSH1 0x40 MSTORE POP DUP2 ADD SWAP1 PUSH2 0x389 SWAP2 SWAP1 PUSH2 0x503 JUMP JUMPDEST DUP1 MLOAD PUSH1 0x1 DUP5 ADD DUP1 SLOAD PUSH1 0x20 DUP5 ADD MLOAD PUSH2 0xFFFF SWAP1 DUP2 AND PUSH3 0x10000 MUL PUSH4 0xFFFFFFFF NOT SWAP1 SWAP3 AND SWAP4 AND SWAP3 SWAP1 SWAP3 OR SWAP2 SWAP1 SWAP2 OR SWAP1 SSTORE PUSH1 0x40 MLOAD SWAP1 SWAP2 POP PUSH1 0x1 PUSH1 0x1 PUSH1 0xA0 SHL SUB DUP5 AND SWAP1 PUSH32 0xC20D59C7000776631094C0C82C594445EEA20883B1BE077D60CBF4EC4114E16 SWAP1 PUSH2 0x3F4 SWAP1 DUP5 SWAP1 PUSH2 0x4C7 JUMP JUMPDEST PUSH1 0x40 MLOAD DUP1 SWAP2 SUB SWAP1 LOG2 POP POP POP JUMP JUMPDEST PUSH1 0x40 DUP1 MLOAD DUP1 DUP3 ADD SWAP1 SWAP2 MSTORE PUSH1 0x1C DUP2 MSTORE PUSH32 0x78722E656E746974792E666163746F72792E73746F726167652E763100000000 PUSH1 0x20 SWAP1 SWAP2 ADD MSTORE PUSH1 0x0 DUP1 PUSH1 0xFF PUSH2 0x466 PUSH1 0x1 PUSH32 0x8B4AC7CD4466AB0D50FE53A88C5446CA4A450D482BEF9AD792E7D9F451497E0F PUSH2 0x56C JUMP JUMPDEST PUSH1 0x40 MLOAD PUSH1 0x20 ADD PUSH2 0x478 SWAP2 DUP2 MSTORE PUSH1 0x20 ADD SWAP1 JUMP JUMPDEST PUSH1 0x40 DUP1 MLOAD PUSH1 0x1F NOT DUP2 DUP5 SUB ADD DUP2 MSTORE SWAP2 SWAP1 MSTORE DUP1 MLOAD PUSH1 0x20 SWAP1 SWAP2 ADD KECCAK256 AND SWAP3 SWAP2 POP POP JUMP JUMPDEST PUSH1 0x0 PUSH1 0x20 DUP3 DUP5 SUB SLT ISZERO PUSH2 0x4A9 JUMPI PUSH1 0x0 DUP1 REVERT JUMPDEST DUP2 CALLDATALOAD PUSH1 0x1 PUSH1 0x1 PUSH1 0xA0 SHL SUB DUP2 AND DUP2 EQ PUSH2 0x4C0 JUMPI PUSH1 0x0 DUP1 REVERT JUMPDEST SWAP4 SWAP3 POP POP POP JUMP JUMPDEST PUSH1 0x40 DUP2 ADD PUSH2 0x4E6 DUP3 DUP5 DUP1 MLOAD PUSH2 0xFFFF SWAP1 DUP2 AND DUP4 MSTORE PUSH1 0x20 SWAP2 DUP3 ADD MLOAD AND SWAP2 ADD MSTORE JUMP JUMPDEST SWAP3 SWAP2 POP POP JUMP JUMPDEST DUP1 MLOAD PUSH2 0xFFFF DUP2 AND DUP2 EQ PUSH2 0x4FE JUMPI PUSH1 0x0 DUP1 REVERT JUMPDEST SWAP2 SWAP1 POP JUMP JUMPDEST PUSH1 0x0 PUSH1 0x40 DUP3 DUP5 SUB SLT ISZERO PUSH2 0x515 JUMPI PUSH1 0x0 DUP1 REVERT JUMPDEST PUSH1 0x40 MLOAD PUSH1 0x40 DUP2 ADD DUP2 DUP2 LT PUSH8 0xFFFFFFFFFFFFFFFF DUP3 GT OR ISZERO PUSH2 0x546 JUMPI PUSH4 0x4E487B71 PUSH1 0xE0 SHL PUSH1 0x0 MSTORE PUSH1 0x41 PUSH1 0x4 MSTORE PUSH1 0x24 PUSH1 0x0 REVERT JUMPDEST PUSH1 0x40 MSTORE PUSH2 0x552 DUP4 PUSH2 0x4EC JUMP JUMPDEST DUP2 MSTORE PUSH2 0x560 PUSH1 0x20 DUP5 ADD PUSH2 0x4EC JUMP JUMPDEST PUSH1 0x20 DUP3 ADD MSTORE SWAP4 SWAP3 POP POP POP JUMP JUMPDEST DUP2 DUP2 SUB DUP2 DUP2 GT ISZERO PUSH2 0x4E6 JUMPI PUSH4 0x4E487B71 PUSH1 0xE0 SHL PUSH1 0x0 MSTORE PUSH1 0x11 PUSH1 0x4 MSTORE PUSH1 0x24 PUSH1 0x0 REVERT INVALID LOG2 PUSH5 0x6970667358 0x22 SLT KECCAK256 0xC6 0xCD PUSH28 0x5FAE18642D1B97BA4F70081581D58F17E755CE34D61F708A9FE4A8E5 NOT PUSH5 0x736F6C6343 STOP ADDMOD XOR STOP CALLER "
        },
        "methodIdentifiers": {
          "currentImplVersion()": "d0825a40",
          "getImplementation()": "aaf10f42",
          "setAuthorizedRegistry(address)": "090741a0",
          "setImplementation(address)": "d784d426",
          "setProxyImplementation(address)": "9fdcd3a4"
        }
      }
    }
  }
}