{
  "contracts/example/ExampleProxy.sol": {
    "ExampleProxy": {
      "abi": [
        {
          "inputs": [
            {
              "components": [
                {
                  "internalType": "contract IModuleRegistry",
                  "name": "moduleRegistry",
                  "type": "address"
                },
                {
                  "internalType": "address",
                  "name": "owner",
                  "type": "address"
                },
                {
                  "internalType": "address[]",
                  "name": "admins",
                  "type": "address[]"
                }
              ],
              "internalType": "struct BaseProxyContstructorArgs",
              "name": "args",
              "type": "tuple"
            }
          ],
          "stateMutability": "nonpayable",
          "type": "constructor"
        },
        {
          "anonymous": false,
          "inputs": [
            {
              "indexed": true,
              "internalType": "address",
              "name": "newImpl",
              "type": "address"
            },
            {
              "components": [
                {
                  "internalType": "uint16",
                  "name": "major",
                  "type": "uint16"
                },
                {
                  "internalType": "uint16",
                  "name": "minor",
                  "type": "uint16"
                }
              ],
              "indexed": false,
              "internalType": "struct ModuleVersion",
              "name": "version",
              "type": "tuple"
            }
          ],
          "name": "ProxyImplementationChanged",
          "type": "event"
        },
        {
          "stateMutability": "nonpayable",
          "type": "fallback"
        },
        {
          "inputs": [],
          "name": "implementationVersion",
          "outputs": [
            {
              "components": [
                {
                  "internalType": "uint16",
                  "name": "major",
                  "type": "uint16"
                },
                {
                  "internalType": "uint16",
                  "name": "minor",
                  "type": "uint16"
                }
              ],
              "internalType": "struct ModuleVersion",
              "name": "",
              "type": "tuple"
            }
          ],
          "stateMutability": "view",
          "type": "function"
        },
        {
          "inputs": [],
          "name": "moduleRegistry",
          "outputs": [
            {
              "internalType": "contract IModuleRegistry",
              "name": "",
              "type": "address"
            }
          ],
          "stateMutability": "view",
          "type": "function"
        },
        {
          "inputs": [
            {
              "internalType": "address",
              "name": "_newImplementation",
              "type": "address"
            }
          ],
          "name": "setImplementation",
          "outputs": [],
          "stateMutability": "nonpayable",
          "type": "function"
        },
        {
          "stateMutability": "payable",
          "type": "receive"
        }
      ],
      "evm": {
        "bytecode": {
          "linkReferences": {
            "contracts/libraries/LibAccess.sol": {
              "LibAccess": [
                {
                  "length": 20,
                  "start": 323
                },
                {
                  "length": 20,
                  "start": 466
                },
                {
                  "length": 20,
                  "start": 609
                },
                {
                  "length": 20,
                  "start": 856
                },
                {
                  "length": 20,
                  "start": 1116
                },
                {
                  "length": 20,
                  "start": 2456
                },
                {
                  "length": 20,
                  "start": 2619
                }
              ]
            }
          },
          "object": "60a06040523480156200001157600080fd5b5060405162000dc638038062000dc68339810160408190526200003491620005b1565b805181906001600160a01b0316620000ad5760405162461bcd60e51b815260206004820152603160248201527f436f726550726f78793a206d6f64756c652072656769737472792063616e6e6f60448201527074206265207a65726f206164647265737360781b60648201526084015b60405180910390fd5b60208101516001600160a01b0316620001195760405162461bcd60e51b815260206004820152602760248201527f436f726550726f78793a206f776e65722063616e6e6f74206265207a65726f206044820152666164647265737360c81b6064820152608401620000a4565b80516001600160a01b031660808190526040516310b021c760e31b8152600481019190915260009073__$a5a42e46683ad9c79b7b86d5ff60fdf4c1$__906385810e3890602401602060405180830381865af41580156200017e573d6000803e3d6000fd5b505050506040513d601f19601f82011682018060405250810190620001a49190620006ca565b6020830151604051630bfb579d60e01b8152600481018390526001600160a01b03909116602482015290915073__$a5a42e46683ad9c79b7b86d5ff60fdf4c1$__90630bfb579d9060440160006040518083038186803b1580156200020857600080fd5b505af41580156200021d573d6000803e3d6000fd5b50505050602082015160405163321ebd6160e01b81526004810183905260008051602062000da683398151915260248201526001600160a01b03909116604482015273__$a5a42e46683ad9c79b7b86d5ff60fdf4c1$__9063321ebd619060640160006040518083038186803b1580156200029757600080fd5b505af4158015620002ac573d6000803e3d6000fd5b5050505060005b8260400151518110156200041b5760006001600160a01b031683604001518281518110620002e557620002e5620006e4565b60200260200101516001600160a01b031603620003555760405162461bcd60e51b815260206004820152602760248201527f436f726550726f78793a2061646d696e2063616e6e6f74206265207a65726f206044820152666164647265737360c81b6064820152608401620000a4565b8173__$a5a42e46683ad9c79b7b86d5ff60fdf4c1$__63321ebd61909160008051602062000da6833981519152866040015185815181106200039b576200039b620006e4565b60200260200101516040518463ffffffff1660e01b8152600401620003dc9392919092835260208301919091526001600160a01b0316604082015260600190565b60006040518083038186803b158015620003f557600080fd5b505af41580156200040a573d6000803e3d6000fd5b505060019092019150620002b39050565b50602082015160405163b6e983bf60e01b81526004810183905260008051602062000da683398151915260248201526001600160a01b03909116604482015273__$a5a42e46683ad9c79b7b86d5ff60fdf4c1$__9063b6e983bf90606401602060405180830381865af415801562000497573d6000803e3d6000fd5b505050506040513d601f19601f82011682018060405250810190620004bd9190620006fa565b6200051b5760405162461bcd60e51b815260206004820152602760248201527f436f726550726f78793a206661696c656420746f20736574206f776e65722061604482015266399030b236b4b760c91b6064820152608401620000a4565b50505062000725565b634e487b7160e01b600052604160045260246000fd5b604051606081016001600160401b03811182821017156200055f576200055f62000524565b60405290565b604051601f8201601f191681016001600160401b038111828210171562000590576200059062000524565b604052919050565b6001600160a01b0381168114620005ae57600080fd5b50565b60006020808385031215620005c557600080fd5b82516001600160401b0380821115620005dd57600080fd5b9084019060608287031215620005f257600080fd5b620005fc6200053a565b8251620006098162000598565b8152828401516200061a8162000598565b818501526040830151828111156200063157600080fd5b80840193505086601f8401126200064757600080fd5b8251828111156200065c576200065c62000524565b8060051b92506200066f85840162000565565b81815292840185019285810190898511156200068a57600080fd5b948601945b84861015620006b85785519250620006a78362000598565b82825294860194908601906200068f565b60408401525090979650505050505050565b600060208284031215620006dd57600080fd5b5051919050565b634e487b7160e01b600052603260045260246000fd5b6000602082840312156200070d57600080fd5b815180151581146200071e57600080fd5b9392505050565b60805161065f620007476000396000818160d9015261021f015261065f6000f3fe6080604052600436106100385760003560e01c806306bfcec61461008b578063b95459e4146100c7578063d784d426146101135761003f565b3661003f57005b34801561004b57600080fd5b506000610056610133565b546040516001600160a01b03909116915036600082376000803683855af43d806000843e818015610085578184f35b8184fd5b005b34801561009757600080fd5b506100a06101c9565b60408051825161ffff90811682526020938401511692810192909252015b60405180910390f35b3480156100d357600080fd5b506100fb7f000000000000000000000000000000000000000000000000000000000000000081565b6040516001600160a01b0390911681526020016100be565b34801561011f57600080fd5b5061008961012e366004610517565b610210565b60408051808201909152601881527f78722e636f72652e70726f78792e73746f726167652e7631000000000000000060209091015260008060ff61019860017fb1163b579b809663cc4ceb6dc6de3859bb0da0f6817cd88b9cc7dd85b2825f48610547565b6040516020016101aa91815260200190565b60408051601f1981840301815291905280516020909101201692915050565b60408051808201909152600080825260208201526101e5610133565b604080518082019091526001919091015461ffff808216835262010000909104166020820152919050565b6040516310b021c760e31b81527f00000000000000000000000000000000000000000000000000000000000000006001600160a01b0316600482015260009073__$a5a42e46683ad9c79b7b86d5ff60fdf4c1$__906385810e3890602401602060405180830381865af415801561028b573d6000803e3d6000fd5b505050506040513d601f19601f820116820180604052508101906102af919061056e565b60405163b6e983bf60e01b8152600481018290527f2172861495e7b85edac73e3cd5fbb42dd675baadf627720e687bcfdaca025096602482015233604482015290915073__$a5a42e46683ad9c79b7b86d5ff60fdf4c1$__9063b6e983bf90606401602060405180830381865af415801561032e573d6000803e3d6000fd5b505050506040513d601f19601f820116820180604052508101906103529190610587565b6103a35760405162461bcd60e51b815260206004820152601f60248201527f456e7469747950726f78793a206f6e6c792061646d696e20616c6c6f7765640060448201526064015b60405180910390fd5b6001600160a01b0382166104115760405162461bcd60e51b815260206004820152602f60248201527f456e7469747950726f78793a20696d706c656d656e746174696f6e206973207460448201526e6865207a65726f206164647265737360881b606482015260840161039a565b600061041b610133565b80546001600160a01b0319166001600160a01b03851690811782556040805163054fd4d560e41b815281519394506000936354fd4d50926004808401939192918290030181865afa158015610474573d6000803e3d6000fd5b505050506040513d601f19601f8201168201806040525081019061049891906105c0565b80516001840180546020808501805161ffff908116620100000263ffffffff1990941695811695861793909317909355604080519485529251909116908301529192506001600160a01b038616917f62856e62ea3f3cabc4ad2d32ac6d70e1f55ed589c915439c4dec9f5c729dd0f0910160405180910390a250505050565b60006020828403121561052957600080fd5b81356001600160a01b038116811461054057600080fd5b9392505050565b8181038181111561056857634e487b7160e01b600052601160045260246000fd5b92915050565b60006020828403121561058057600080fd5b5051919050565b60006020828403121561059957600080fd5b8151801515811461054057600080fd5b805161ffff811681146105bb57600080fd5b919050565b6000604082840312156105d257600080fd5b6040516040810181811067ffffffffffffffff8211171561060357634e487b7160e01b600052604160045260246000fd5b60405261060f836105a9565b815261061d602084016105a9565b6020820152939250505056fea2646970667358221220833e38b041d8c5b317f07110187ba2edd3dd9e9b612d51a8198d9ccdd077e1bc64736f6c634300081800332172861495e7b85edac73e3cd5fbb42dd675baadf627720e687bcfdaca025096",
          "opcodes": "PUSH1 0xA0 PUSH1 0x40 MSTORE CALLVALUE DUP1 ISZERO PUSH3 0x11 JUMPI PUSH1 0x0 DUP1 REVERT JUMPDEST POP PUSH1 0x40 MLOAD PUSH3 0xDC6 CODESIZE SUB DUP1 PUSH3 0xDC6 DUP4 CODECOPY DUP2 ADD PUSH1 0x40 DUP2 SWAP1 MSTORE PUSH3 0x34 SWAP2 PUSH3 0x5B1 JUMP JUMPDEST DUP1 MLOAD DUP2 SWAP1 PUSH1 0x1 PUSH1 0x1 PUSH1 0xA0 SHL SUB AND PUSH3 0xAD JUMPI PUSH1 0x40 MLOAD PUSH3 0x461BCD PUSH1 0xE5 SHL DUP2 MSTORE PUSH1 0x20 PUSH1 0x4 DUP3 ADD MSTORE PUSH1 0x31 PUSH1 0x24 DUP3 ADD MSTORE PUSH32 0x436F726550726F78793A206D6F64756C652072656769737472792063616E6E6F PUSH1 0x44 DUP3 ADD MSTORE PUSH17 0x74206265207A65726F2061646472657373 PUSH1 0x78 SHL PUSH1 0x64 DUP3 ADD MSTORE PUSH1 0x84 ADD JUMPDEST PUSH1 0x40 MLOAD DUP1 SWAP2 SUB SWAP1 REVERT JUMPDEST PUSH1 0x20 DUP2 ADD MLOAD PUSH1 0x1 PUSH1 0x1 PUSH1 0xA0 SHL SUB AND PUSH3 0x119 JUMPI PUSH1 0x40 MLOAD PUSH3 0x461BCD PUSH1 0xE5 SHL DUP2 MSTORE PUSH1 0x20 PUSH1 0x4 DUP3 ADD MSTORE PUSH1 0x27 PUSH1 0x24 DUP3 ADD MSTORE PUSH32 0x436F726550726F78793A206F776E65722063616E6E6F74206265207A65726F20 PUSH1 0x44 DUP3 ADD MSTORE PUSH7 0x61646472657373 PUSH1 0xC8 SHL PUSH1 0x64 DUP3 ADD MSTORE PUSH1 0x84 ADD PUSH3 0xA4 JUMP JUMPDEST DUP1 MLOAD PUSH1 0x1 PUSH1 0x1 PUSH1 0xA0 SHL SUB AND PUSH1 0x80 DUP2 SWAP1 MSTORE PUSH1 0x40 MLOAD PUSH4 0x10B021C7 PUSH1 0xE3 SHL DUP2 MSTORE PUSH1 0x4 DUP2 ADD SWAP2 SWAP1 SWAP2 MSTORE PUSH1 0x0 SWAP1 PUSH20 0x0 SWAP1 PUSH4 0x85810E38 SWAP1 PUSH1 0x24 ADD PUSH1 0x20 PUSH1 0x40 MLOAD DUP1 DUP4 SUB DUP2 DUP7 GAS DELEGATECALL ISZERO DUP1 ISZERO PUSH3 0x17E JUMPI RETURNDATASIZE PUSH1 0x0 DUP1 RETURNDATACOPY RETURNDATASIZE PUSH1 0x0 REVERT JUMPDEST POP POP POP POP PUSH1 0x40 MLOAD RETURNDATASIZE PUSH1 0x1F NOT PUSH1 0x1F DUP3 ADD AND DUP3 ADD DUP1 PUSH1 0x40 MSTORE POP DUP2 ADD SWAP1 PUSH3 0x1A4 SWAP2 SWAP1 PUSH3 0x6CA JUMP JUMPDEST PUSH1 0x20 DUP4 ADD MLOAD PUSH1 0x40 MLOAD PUSH4 0xBFB579D PUSH1 0xE0 SHL DUP2 MSTORE PUSH1 0x4 DUP2 ADD DUP4 SWAP1 MSTORE PUSH1 0x1 PUSH1 0x1 PUSH1 0xA0 SHL SUB SWAP1 SWAP2 AND PUSH1 0x24 DUP3 ADD MSTORE SWAP1 SWAP2 POP PUSH20 0x0 SWAP1 PUSH4 0xBFB579D SWAP1 PUSH1 0x44 ADD PUSH1 0x0 PUSH1 0x40 MLOAD DUP1 DUP4 SUB DUP2 DUP7 DUP1 EXTCODESIZE ISZERO DUP1 ISZERO PUSH3 0x208 JUMPI PUSH1 0x0 DUP1 REVERT JUMPDEST POP GAS DELEGATECALL ISZERO DUP1 ISZERO PUSH3 0x21D JUMPI RETURNDATASIZE PUSH1 0x0 DUP1 RETURNDATACOPY RETURNDATASIZE PUSH1 0x0 REVERT JUMPDEST POP POP POP POP PUSH1 0x20 DUP3 ADD MLOAD PUSH1 0x40 MLOAD PUSH4 0x321EBD61 PUSH1 0xE0 SHL DUP2 MSTORE PUSH1 0x4 DUP2 ADD DUP4 SWAP1 MSTORE PUSH1 0x0 DUP1 MLOAD PUSH1 0x20 PUSH3 0xDA6 DUP4 CODECOPY DUP2 MLOAD SWAP2 MSTORE PUSH1 0x24 DUP3 ADD MSTORE PUSH1 0x1 PUSH1 0x1 PUSH1 0xA0 SHL SUB SWAP1 SWAP2 AND PUSH1 0x44 DUP3 ADD MSTORE PUSH20 0x0 SWAP1 PUSH4 0x321EBD61 SWAP1 PUSH1 0x64 ADD PUSH1 0x0 PUSH1 0x40 MLOAD DUP1 DUP4 SUB DUP2 DUP7 DUP1 EXTCODESIZE ISZERO DUP1 ISZERO PUSH3 0x297 JUMPI PUSH1 0x0 DUP1 REVERT JUMPDEST POP GAS DELEGATECALL ISZERO DUP1 ISZERO PUSH3 0x2AC JUMPI RETURNDATASIZE PUSH1 0x0 DUP1 RETURNDATACOPY RETURNDATASIZE PUSH1 0x0 REVERT JUMPDEST POP POP POP POP PUSH1 0x0 JUMPDEST DUP3 PUSH1 0x40 ADD MLOAD MLOAD DUP2 LT ISZERO PUSH3 0x41B JUMPI PUSH1 0x0 PUSH1 0x1 PUSH1 0x1 PUSH1 0xA0 SHL SUB AND DUP4 PUSH1 0x40 ADD MLOAD DUP3 DUP2 MLOAD DUP2 LT PUSH3 0x2E5 JUMPI PUSH3 0x2E5 PUSH3 0x6E4 JUMP JUMPDEST PUSH1 0x20 MUL PUSH1 0x20 ADD ADD MLOAD PUSH1 0x1 PUSH1 0x1 PUSH1 0xA0 SHL SUB AND SUB PUSH3 0x355 JUMPI PUSH1 0x40 MLOAD PUSH3 0x461BCD PUSH1 0xE5 SHL DUP2 MSTORE PUSH1 0x20 PUSH1 0x4 DUP3 ADD MSTORE PUSH1 0x27 PUSH1 0x24 DUP3 ADD MSTORE PUSH32 0x436F726550726F78793A2061646D696E2063616E6E6F74206265207A65726F20 PUSH1 0x44 DUP3 ADD MSTORE PUSH7 0x61646472657373 PUSH1 0xC8 SHL PUSH1 0x64 DUP3 ADD MSTORE PUSH1 0x84 ADD PUSH3 0xA4 JUMP JUMPDEST DUP2 PUSH20 0x0 PUSH4 0x321EBD61 SWAP1 SWAP2 PUSH1 0x0 DUP1 MLOAD PUSH1 0x20 PUSH3 0xDA6 DUP4 CODECOPY DUP2 MLOAD SWAP2 MSTORE DUP7 PUSH1 0x40 ADD MLOAD DUP6 DUP2 MLOAD DUP2 LT PUSH3 0x39B JUMPI PUSH3 0x39B PUSH3 0x6E4 JUMP JUMPDEST PUSH1 0x20 MUL PUSH1 0x20 ADD ADD MLOAD PUSH1 0x40 MLOAD DUP5 PUSH4 0xFFFFFFFF AND PUSH1 0xE0 SHL DUP2 MSTORE PUSH1 0x4 ADD PUSH3 0x3DC SWAP4 SWAP3 SWAP2 SWAP1 SWAP3 DUP4 MSTORE PUSH1 0x20 DUP4 ADD SWAP2 SWAP1 SWAP2 MSTORE PUSH1 0x1 PUSH1 0x1 PUSH1 0xA0 SHL SUB AND PUSH1 0x40 DUP3 ADD MSTORE PUSH1 0x60 ADD SWAP1 JUMP JUMPDEST PUSH1 0x0 PUSH1 0x40 MLOAD DUP1 DUP4 SUB DUP2 DUP7 DUP1 EXTCODESIZE ISZERO DUP1 ISZERO PUSH3 0x3F5 JUMPI PUSH1 0x0 DUP1 REVERT JUMPDEST POP GAS DELEGATECALL ISZERO DUP1 ISZERO PUSH3 0x40A JUMPI RETURNDATASIZE PUSH1 0x0 DUP1 RETURNDATACOPY RETURNDATASIZE PUSH1 0x0 REVERT JUMPDEST POP POP PUSH1 0x1 SWAP1 SWAP3 ADD SWAP2 POP PUSH3 0x2B3 SWAP1 POP JUMP JUMPDEST POP PUSH1 0x20 DUP3 ADD MLOAD PUSH1 0x40 MLOAD PUSH4 0xB6E983BF PUSH1 0xE0 SHL DUP2 MSTORE PUSH1 0x4 DUP2 ADD DUP4 SWAP1 MSTORE PUSH1 0x0 DUP1 MLOAD PUSH1 0x20 PUSH3 0xDA6 DUP4 CODECOPY DUP2 MLOAD SWAP2 MSTORE PUSH1 0x24 DUP3 ADD MSTORE PUSH1 0x1 PUSH1 0x1 PUSH1 0xA0 SHL SUB SWAP1 SWAP2 AND PUSH1 0x44 DUP3 ADD MSTORE PUSH20 0x0 SWAP1 PUSH4 0xB6E983BF SWAP1 PUSH1 0x64 ADD PUSH1 0x20 PUSH1 0x40 MLOAD DUP1 DUP4 SUB DUP2 DUP7 GAS DELEGATECALL ISZERO DUP1 ISZERO PUSH3 0x497 JUMPI RETURNDATASIZE PUSH1 0x0 DUP1 RETURNDATACOPY RETURNDATASIZE PUSH1 0x0 REVERT JUMPDEST POP POP POP POP PUSH1 0x40 MLOAD RETURNDATASIZE PUSH1 0x1F NOT PUSH1 0x1F DUP3 ADD AND DUP3 ADD DUP1 PUSH1 0x40 MSTORE POP DUP2 ADD SWAP1 PUSH3 0x4BD SWAP2 SWAP1 PUSH3 0x6FA JUMP JUMPDEST PUSH3 0x51B JUMPI PUSH1 0x40 MLOAD PUSH3 0x461BCD PUSH1 0xE5 SHL DUP2 MSTORE PUSH1 0x20 PUSH1 0x4 DUP3 ADD MSTORE PUSH1 0x27 PUSH1 0x24 DUP3 ADD MSTORE PUSH32 0x436F726550726F78793A206661696C656420746F20736574206F776E65722061 PUSH1 0x44 DUP3 ADD MSTORE PUSH7 0x399030B236B4B7 PUSH1 0xC9 SHL PUSH1 0x64 DUP3 ADD MSTORE PUSH1 0x84 ADD PUSH3 0xA4 JUMP JUMPDEST POP POP POP PUSH3 0x725 JUMP JUMPDEST PUSH4 0x4E487B71 PUSH1 0xE0 SHL PUSH1 0x0 MSTORE PUSH1 0x41 PUSH1 0x4 MSTORE PUSH1 0x24 PUSH1 0x0 REVERT JUMPDEST PUSH1 0x40 MLOAD PUSH1 0x60 DUP2 ADD PUSH1 0x1 PUSH1 0x1 PUSH1 0x40 SHL SUB DUP2 GT DUP3 DUP3 LT OR ISZERO PUSH3 0x55F JUMPI PUSH3 0x55F PUSH3 0x524 JUMP JUMPDEST PUSH1 0x40 MSTORE SWAP1 JUMP JUMPDEST PUSH1 0x40 MLOAD PUSH1 0x1F DUP3 ADD PUSH1 0x1F NOT AND DUP2 ADD PUSH1 0x1 PUSH1 0x1 PUSH1 0x40 SHL SUB DUP2 GT DUP3 DUP3 LT OR ISZERO PUSH3 0x590 JUMPI PUSH3 0x590 PUSH3 0x524 JUMP JUMPDEST PUSH1 0x40 MSTORE SWAP2 SWAP1 POP JUMP JUMPDEST PUSH1 0x1 PUSH1 0x1 PUSH1 0xA0 SHL SUB DUP2 AND DUP2 EQ PUSH3 0x5AE JUMPI PUSH1 0x0 DUP1 REVERT JUMPDEST POP JUMP JUMPDEST PUSH1 0x0 PUSH1 0x20 DUP1 DUP4 DUP6 SUB SLT ISZERO PUSH3 0x5C5 JUMPI PUSH1 0x0 DUP1 REVERT JUMPDEST DUP3 MLOAD PUSH1 0x1 PUSH1 0x1 PUSH1 0x40 SHL SUB DUP1 DUP3 GT ISZERO PUSH3 0x5DD JUMPI PUSH1 0x0 DUP1 REVERT JUMPDEST SWAP1 DUP5 ADD SWAP1 PUSH1 0x60 DUP3 DUP8 SUB SLT ISZERO PUSH3 0x5F2 JUMPI PUSH1 0x0 DUP1 REVERT JUMPDEST PUSH3 0x5FC PUSH3 0x53A JUMP JUMPDEST DUP3 MLOAD PUSH3 0x609 DUP2 PUSH3 0x598 JUMP JUMPDEST DUP2 MSTORE DUP3 DUP5 ADD MLOAD PUSH3 0x61A DUP2 PUSH3 0x598 JUMP JUMPDEST DUP2 DUP6 ADD MSTORE PUSH1 0x40 DUP4 ADD MLOAD DUP3 DUP2 GT ISZERO PUSH3 0x631 JUMPI PUSH1 0x0 DUP1 REVERT JUMPDEST DUP1 DUP5 ADD SWAP4 POP POP DUP7 PUSH1 0x1F DUP5 ADD SLT PUSH3 0x647 JUMPI PUSH1 0x0 DUP1 REVERT JUMPDEST DUP3 MLOAD DUP3 DUP2 GT ISZERO PUSH3 0x65C JUMPI PUSH3 0x65C PUSH3 0x524 JUMP JUMPDEST DUP1 PUSH1 0x5 SHL SWAP3 POP PUSH3 0x66F DUP6 DUP5 ADD PUSH3 0x565 JUMP JUMPDEST DUP2 DUP2 MSTORE SWAP3 DUP5 ADD DUP6 ADD SWAP3 DUP6 DUP2 ADD SWAP1 DUP10 DUP6 GT ISZERO PUSH3 0x68A JUMPI PUSH1 0x0 DUP1 REVERT JUMPDEST SWAP5 DUP7 ADD SWAP5 JUMPDEST DUP5 DUP7 LT ISZERO PUSH3 0x6B8 JUMPI DUP6 MLOAD SWAP3 POP PUSH3 0x6A7 DUP4 PUSH3 0x598 JUMP JUMPDEST DUP3 DUP3 MSTORE SWAP5 DUP7 ADD SWAP5 SWAP1 DUP7 ADD SWAP1 PUSH3 0x68F JUMP JUMPDEST PUSH1 0x40 DUP5 ADD MSTORE POP SWAP1 SWAP8 SWAP7 POP POP POP POP POP POP POP JUMP JUMPDEST PUSH1 0x0 PUSH1 0x20 DUP3 DUP5 SUB SLT ISZERO PUSH3 0x6DD JUMPI PUSH1 0x0 DUP1 REVERT JUMPDEST POP MLOAD SWAP2 SWAP1 POP JUMP JUMPDEST PUSH4 0x4E487B71 PUSH1 0xE0 SHL PUSH1 0x0 MSTORE PUSH1 0x32 PUSH1 0x4 MSTORE PUSH1 0x24 PUSH1 0x0 REVERT JUMPDEST PUSH1 0x0 PUSH1 0x20 DUP3 DUP5 SUB SLT ISZERO PUSH3 0x70D JUMPI PUSH1 0x0 DUP1 REVERT JUMPDEST DUP2 MLOAD DUP1 ISZERO ISZERO DUP2 EQ PUSH3 0x71E JUMPI PUSH1 0x0 DUP1 REVERT JUMPDEST SWAP4 SWAP3 POP POP POP JUMP JUMPDEST PUSH1 0x80 MLOAD PUSH2 0x65F PUSH3 0x747 PUSH1 0x0 CODECOPY PUSH1 0x0 DUP2 DUP2 PUSH1 0xD9 ADD MSTORE PUSH2 0x21F ADD MSTORE PUSH2 0x65F PUSH1 0x0 RETURN INVALID PUSH1 0x80 PUSH1 0x40 MSTORE PUSH1 0x4 CALLDATASIZE LT PUSH2 0x38 JUMPI PUSH1 0x0 CALLDATALOAD PUSH1 0xE0 SHR DUP1 PUSH4 0x6BFCEC6 EQ PUSH2 0x8B JUMPI DUP1 PUSH4 0xB95459E4 EQ PUSH2 0xC7 JUMPI DUP1 PUSH4 0xD784D426 EQ PUSH2 0x113 JUMPI PUSH2 0x3F JUMP JUMPDEST CALLDATASIZE PUSH2 0x3F JUMPI STOP JUMPDEST CALLVALUE DUP1 ISZERO PUSH2 0x4B JUMPI PUSH1 0x0 DUP1 REVERT JUMPDEST POP PUSH1 0x0 PUSH2 0x56 PUSH2 0x133 JUMP JUMPDEST SLOAD PUSH1 0x40 MLOAD PUSH1 0x1 PUSH1 0x1 PUSH1 0xA0 SHL SUB SWAP1 SWAP2 AND SWAP2 POP CALLDATASIZE PUSH1 0x0 DUP3 CALLDATACOPY PUSH1 0x0 DUP1 CALLDATASIZE DUP4 DUP6 GAS DELEGATECALL RETURNDATASIZE DUP1 PUSH1 0x0 DUP5 RETURNDATACOPY DUP2 DUP1 ISZERO PUSH2 0x85 JUMPI DUP2 DUP5 RETURN JUMPDEST DUP2 DUP5 REVERT JUMPDEST STOP JUMPDEST CALLVALUE DUP1 ISZERO PUSH2 0x97 JUMPI PUSH1 0x0 DUP1 REVERT JUMPDEST POP PUSH2 0xA0 PUSH2 0x1C9 JUMP JUMPDEST PUSH1 0x40 DUP1 MLOAD DUP3 MLOAD PUSH2 0xFFFF SWAP1 DUP2 AND DUP3 MSTORE PUSH1 0x20 SWAP4 DUP5 ADD MLOAD AND SWAP3 DUP2 ADD SWAP3 SWAP1 SWAP3 MSTORE ADD JUMPDEST PUSH1 0x40 MLOAD DUP1 SWAP2 SUB SWAP1 RETURN JUMPDEST CALLVALUE DUP1 ISZERO PUSH2 0xD3 JUMPI PUSH1 0x0 DUP1 REVERT JUMPDEST POP PUSH2 0xFB PUSH32 0x0 DUP2 JUMP JUMPDEST PUSH1 0x40 MLOAD PUSH1 0x1 PUSH1 0x1 PUSH1 0xA0 SHL SUB SWAP1 SWAP2 AND DUP2 MSTORE PUSH1 0x20 ADD PUSH2 0xBE JUMP JUMPDEST CALLVALUE DUP1 ISZERO PUSH2 0x11F JUMPI PUSH1 0x0 DUP1 REVERT JUMPDEST POP PUSH2 0x89 PUSH2 0x12E CALLDATASIZE PUSH1 0x4 PUSH2 0x517 JUMP JUMPDEST PUSH2 0x210 JUMP JUMPDEST PUSH1 0x40 DUP1 MLOAD DUP1 DUP3 ADD SWAP1 SWAP2 MSTORE PUSH1 0x18 DUP2 MSTORE PUSH32 0x78722E636F72652E70726F78792E73746F726167652E76310000000000000000 PUSH1 0x20 SWAP1 SWAP2 ADD MSTORE PUSH1 0x0 DUP1 PUSH1 0xFF PUSH2 0x198 PUSH1 0x1 PUSH32 0xB1163B579B809663CC4CEB6DC6DE3859BB0DA0F6817CD88B9CC7DD85B2825F48 PUSH2 0x547 JUMP JUMPDEST PUSH1 0x40 MLOAD PUSH1 0x20 ADD PUSH2 0x1AA SWAP2 DUP2 MSTORE PUSH1 0x20 ADD SWAP1 JUMP JUMPDEST PUSH1 0x40 DUP1 MLOAD PUSH1 0x1F NOT DUP2 DUP5 SUB ADD DUP2 MSTORE SWAP2 SWAP1 MSTORE DUP1 MLOAD PUSH1 0x20 SWAP1 SWAP2 ADD KECCAK256 AND SWAP3 SWAP2 POP POP JUMP JUMPDEST PUSH1 0x40 DUP1 MLOAD DUP1 DUP3 ADD SWAP1 SWAP2 MSTORE PUSH1 0x0 DUP1 DUP3 MSTORE PUSH1 0x20 DUP3 ADD MSTORE PUSH2 0x1E5 PUSH2 0x133 JUMP JUMPDEST PUSH1 0x40 DUP1 MLOAD DUP1 DUP3 ADD SWAP1 SWAP2 MSTORE PUSH1 0x1 SWAP2 SWAP1 SWAP2 ADD SLOAD PUSH2 0xFFFF DUP1 DUP3 AND DUP4 MSTORE PUSH3 0x10000 SWAP1 SWAP2 DIV AND PUSH1 0x20 DUP3 ADD MSTORE SWAP2 SWAP1 POP JUMP JUMPDEST PUSH1 0x40 MLOAD PUSH4 0x10B021C7 PUSH1 0xE3 SHL DUP2 MSTORE PUSH32 0x0 PUSH1 0x1 PUSH1 0x1 PUSH1 0xA0 SHL SUB AND PUSH1 0x4 DUP3 ADD MSTORE PUSH1 0x0 SWAP1 PUSH20 0x0 SWAP1 PUSH4 0x85810E38 SWAP1 PUSH1 0x24 ADD PUSH1 0x20 PUSH1 0x40 MLOAD DUP1 DUP4 SUB DUP2 DUP7 GAS DELEGATECALL ISZERO DUP1 ISZERO PUSH2 0x28B JUMPI RETURNDATASIZE PUSH1 0x0 DUP1 RETURNDATACOPY RETURNDATASIZE PUSH1 0x0 REVERT JUMPDEST POP POP POP POP PUSH1 0x40 MLOAD RETURNDATASIZE PUSH1 0x1F NOT PUSH1 0x1F DUP3 ADD AND DUP3 ADD DUP1 PUSH1 0x40 MSTORE POP DUP2 ADD SWAP1 PUSH2 0x2AF SWAP2 SWAP1 PUSH2 0x56E JUMP JUMPDEST PUSH1 0x40 MLOAD PUSH4 0xB6E983BF PUSH1 0xE0 SHL DUP2 MSTORE PUSH1 0x4 DUP2 ADD DUP3 SWAP1 MSTORE PUSH32 0x2172861495E7B85EDAC73E3CD5FBB42DD675BAADF627720E687BCFDACA025096 PUSH1 0x24 DUP3 ADD MSTORE CALLER PUSH1 0x44 DUP3 ADD MSTORE SWAP1 SWAP2 POP PUSH20 0x0 SWAP1 PUSH4 0xB6E983BF SWAP1 PUSH1 0x64 ADD PUSH1 0x20 PUSH1 0x40 MLOAD DUP1 DUP4 SUB DUP2 DUP7 GAS DELEGATECALL ISZERO DUP1 ISZERO PUSH2 0x32E JUMPI RETURNDATASIZE PUSH1 0x0 DUP1 RETURNDATACOPY RETURNDATASIZE PUSH1 0x0 REVERT JUMPDEST POP POP POP POP PUSH1 0x40 MLOAD RETURNDATASIZE PUSH1 0x1F NOT PUSH1 0x1F DUP3 ADD AND DUP3 ADD DUP1 PUSH1 0x40 MSTORE POP DUP2 ADD SWAP1 PUSH2 0x352 SWAP2 SWAP1 PUSH2 0x587 JUMP JUMPDEST PUSH2 0x3A3 JUMPI PUSH1 0x40 MLOAD PUSH3 0x461BCD PUSH1 0xE5 SHL DUP2 MSTORE PUSH1 0x20 PUSH1 0x4 DUP3 ADD MSTORE PUSH1 0x1F PUSH1 0x24 DUP3 ADD MSTORE PUSH32 0x456E7469747950726F78793A206F6E6C792061646D696E20616C6C6F77656400 PUSH1 0x44 DUP3 ADD MSTORE PUSH1 0x64 ADD JUMPDEST PUSH1 0x40 MLOAD DUP1 SWAP2 SUB SWAP1 REVERT JUMPDEST PUSH1 0x1 PUSH1 0x1 PUSH1 0xA0 SHL SUB DUP3 AND PUSH2 0x411 JUMPI PUSH1 0x40 MLOAD PUSH3 0x461BCD PUSH1 0xE5 SHL DUP2 MSTORE PUSH1 0x20 PUSH1 0x4 DUP3 ADD MSTORE PUSH1 0x2F PUSH1 0x24 DUP3 ADD MSTORE PUSH32 0x456E7469747950726F78793A20696D706C656D656E746174696F6E2069732074 PUSH1 0x44 DUP3 ADD MSTORE PUSH15 0x6865207A65726F2061646472657373 PUSH1 0x88 SHL PUSH1 0x64 DUP3 ADD MSTORE PUSH1 0x84 ADD PUSH2 0x39A JUMP JUMPDEST PUSH1 0x0 PUSH2 0x41B PUSH2 0x133 JUMP JUMPDEST DUP1 SLOAD PUSH1 0x1 PUSH1 0x1 PUSH1 0xA0 SHL SUB NOT AND PUSH1 0x1 PUSH1 0x1 PUSH1 0xA0 SHL SUB DUP6 AND SWAP1 DUP2 OR DUP3 SSTORE PUSH1 0x40 DUP1 MLOAD PUSH4 0x54FD4D5 PUSH1 0xE4 SHL DUP2 MSTORE DUP2 MLOAD SWAP4 SWAP5 POP PUSH1 0x0 SWAP4 PUSH4 0x54FD4D50 SWAP3 PUSH1 0x4 DUP1 DUP5 ADD SWAP4 SWAP2 SWAP3 SWAP2 DUP3 SWAP1 SUB ADD DUP2 DUP7 GAS STATICCALL ISZERO DUP1 ISZERO PUSH2 0x474 JUMPI RETURNDATASIZE PUSH1 0x0 DUP1 RETURNDATACOPY RETURNDATASIZE PUSH1 0x0 REVERT JUMPDEST POP POP POP POP PUSH1 0x40 MLOAD RETURNDATASIZE PUSH1 0x1F NOT PUSH1 0x1F DUP3 ADD AND DUP3 ADD DUP1 PUSH1 0x40 MSTORE POP DUP2 ADD SWAP1 PUSH2 0x498 SWAP2 SWAP1 PUSH2 0x5C0 JUMP JUMPDEST DUP1 MLOAD PUSH1 0x1 DUP5 ADD DUP1 SLOAD PUSH1 0x20 DUP1 DUP6 ADD DUP1 MLOAD PUSH2 0xFFFF SWAP1 DUP2 AND PUSH3 0x10000 MUL PUSH4 0xFFFFFFFF NOT SWAP1 SWAP5 AND SWAP6 DUP2 AND SWAP6 DUP7 OR SWAP4 SWAP1 SWAP4 OR SWAP1 SWAP4 SSTORE PUSH1 0x40 DUP1 MLOAD SWAP5 DUP6 MSTORE SWAP3 MLOAD SWAP1 SWAP2 AND SWAP1 DUP4 ADD MSTORE SWAP2 SWAP3 POP PUSH1 0x1 PUSH1 0x1 PUSH1 0xA0 SHL SUB DUP7 AND SWAP2 PUSH32 0x62856E62EA3F3CABC4AD2D32AC6D70E1F55ED589C915439C4DEC9F5C729DD0F0 SWAP2 ADD PUSH1 0x40 MLOAD DUP1 SWAP2 SUB SWAP1 LOG2 POP POP POP POP JUMP JUMPDEST PUSH1 0x0 PUSH1 0x20 DUP3 DUP5 SUB SLT ISZERO PUSH2 0x529 JUMPI PUSH1 0x0 DUP1 REVERT JUMPDEST DUP2 CALLDATALOAD PUSH1 0x1 PUSH1 0x1 PUSH1 0xA0 SHL SUB DUP2 AND DUP2 EQ PUSH2 0x540 JUMPI PUSH1 0x0 DUP1 REVERT JUMPDEST SWAP4 SWAP3 POP POP POP JUMP JUMPDEST DUP2 DUP2 SUB DUP2 DUP2 GT ISZERO PUSH2 0x568 JUMPI PUSH4 0x4E487B71 PUSH1 0xE0 SHL PUSH1 0x0 MSTORE PUSH1 0x11 PUSH1 0x4 MSTORE PUSH1 0x24 PUSH1 0x0 REVERT JUMPDEST SWAP3 SWAP2 POP POP JUMP JUMPDEST PUSH1 0x0 PUSH1 0x20 DUP3 DUP5 SUB SLT ISZERO PUSH2 0x580 JUMPI PUSH1 0x0 DUP1 REVERT JUMPDEST POP MLOAD SWAP2 SWAP1 POP JUMP JUMPDEST PUSH1 0x0 PUSH1 0x20 DUP3 DUP5 SUB SLT ISZERO PUSH2 0x599 JUMPI PUSH1 0x0 DUP1 REVERT JUMPDEST DUP2 MLOAD DUP1 ISZERO ISZERO DUP2 EQ PUSH2 0x540 JUMPI PUSH1 0x0 DUP1 REVERT JUMPDEST DUP1 MLOAD PUSH2 0xFFFF DUP2 AND DUP2 EQ PUSH2 0x5BB JUMPI PUSH1 0x0 DUP1 REVERT JUMPDEST SWAP2 SWAP1 POP JUMP JUMPDEST PUSH1 0x0 PUSH1 0x40 DUP3 DUP5 SUB SLT ISZERO PUSH2 0x5D2 JUMPI PUSH1 0x0 DUP1 REVERT JUMPDEST PUSH1 0x40 MLOAD PUSH1 0x40 DUP2 ADD DUP2 DUP2 LT PUSH8 0xFFFFFFFFFFFFFFFF DUP3 GT OR ISZERO PUSH2 0x603 JUMPI PUSH4 0x4E487B71 PUSH1 0xE0 SHL PUSH1 0x0 MSTORE PUSH1 0x41 PUSH1 0x4 MSTORE PUSH1 0x24 PUSH1 0x0 REVERT JUMPDEST PUSH1 0x40 MSTORE PUSH2 0x60F DUP4 PUSH2 0x5A9 JUMP JUMPDEST DUP2 MSTORE PUSH2 0x61D PUSH1 0x20 DUP5 ADD PUSH2 0x5A9 JUMP JUMPDEST PUSH1 0x20 DUP3 ADD MSTORE SWAP4 SWAP3 POP POP POP JUMP INVALID LOG2 PUSH5 0x6970667358 0x22 SLT KECCAK256 DUP4 RETURNDATACOPY CODESIZE 0xB0 COINBASE 0xD8 0xC5 0xB3 OR CREATE PUSH18 0x10187BA2EDD3DD9E9B612D51A8198D9CCDD0 PUSH24 0xE1BC64736F6C634300081800332172861495E7B85EDAC73E EXTCODECOPY 0xD5 0xFB 0xB4 0x2D 0xD6 PUSH22 0xBAADF627720E687BCFDACA0250960000000000000000 "
        },
        "methodIdentifiers": {
          "implementationVersion()": "06bfcec6",
          "moduleRegistry()": "b95459e4",
          "setImplementation(address)": "d784d426"
        }
      }
    }
  }
}