{
  "contracts/modules/entity/removal/EntityRemovalModule.sol": {
    "EntityRemovalModule": {
      "abi": [
        {
          "anonymous": false,
          "inputs": [
            {
              "indexed": true,
              "internalType": "address",
              "name": "entity",
              "type": "address"
            },
            {
              "indexed": true,
              "internalType": "address",
              "name": "by",
              "type": "address"
            }
          ],
          "name": "EntityRegistrationRenewed",
          "type": "event"
        },
        {
          "anonymous": false,
          "inputs": [
            {
              "indexed": true,
              "internalType": "address",
              "name": "entity",
              "type": "address"
            },
            {
              "indexed": false,
              "internalType": "string",
              "name": "reason",
              "type": "string"
            }
          ],
          "name": "RegistryDeactivatedEntity",
          "type": "event"
        },
        {
          "anonymous": false,
          "inputs": [
            {
              "indexed": true,
              "internalType": "address",
              "name": "entity",
              "type": "address"
            }
          ],
          "name": "RegistryEnforcedDeactivation",
          "type": "event"
        },
        {
          "anonymous": false,
          "inputs": [
            {
              "indexed": true,
              "internalType": "address",
              "name": "entity",
              "type": "address"
            }
          ],
          "name": "RegistryEnforcedRemoval",
          "type": "event"
        },
        {
          "anonymous": false,
          "inputs": [
            {
              "indexed": true,
              "internalType": "address",
              "name": "entity",
              "type": "address"
            }
          ],
          "name": "RegistryReactivatedEntity",
          "type": "event"
        },
        {
          "anonymous": false,
          "inputs": [
            {
              "indexed": true,
              "internalType": "address",
              "name": "entity",
              "type": "address"
            },
            {
              "indexed": false,
              "internalType": "string",
              "name": "reason",
              "type": "string"
            }
          ],
          "name": "RegistryRemovedEntity",
          "type": "event"
        },
        {
          "inputs": [
            {
              "internalType": "address",
              "name": "addr",
              "type": "address"
            }
          ],
          "name": "canBeDeactivated",
          "outputs": [
            {
              "internalType": "bool",
              "name": "",
              "type": "bool"
            }
          ],
          "stateMutability": "view",
          "type": "function"
        },
        {
          "inputs": [
            {
              "internalType": "address",
              "name": "addr",
              "type": "address"
            }
          ],
          "name": "canBeRemoved",
          "outputs": [
            {
              "internalType": "bool",
              "name": "",
              "type": "bool"
            }
          ],
          "stateMutability": "view",
          "type": "function"
        },
        {
          "inputs": [
            {
              "internalType": "contract IRemovableEntity",
              "name": "entity",
              "type": "address"
            },
            {
              "internalType": "string",
              "name": "reason",
              "type": "string"
            }
          ],
          "name": "deactivateEntity",
          "outputs": [],
          "stateMutability": "nonpayable",
          "type": "function"
        },
        {
          "inputs": [
            {
              "internalType": "contract IRemovableEntity",
              "name": "addr",
              "type": "address"
            }
          ],
          "name": "enforceDeactivation",
          "outputs": [],
          "stateMutability": "nonpayable",
          "type": "function"
        },
        {
          "inputs": [
            {
              "internalType": "contract IRemovableEntity",
              "name": "e",
              "type": "address"
            }
          ],
          "name": "enforceRemoval",
          "outputs": [],
          "stateMutability": "nonpayable",
          "type": "function"
        },
        {
          "inputs": [
            {
              "internalType": "address",
              "name": "addr",
              "type": "address"
            }
          ],
          "name": "getExpiration",
          "outputs": [
            {
              "internalType": "uint256",
              "name": "",
              "type": "uint256"
            }
          ],
          "stateMutability": "view",
          "type": "function"
        },
        {
          "inputs": [
            {
              "internalType": "address",
              "name": "addr",
              "type": "address"
            }
          ],
          "name": "getLastRenewal",
          "outputs": [
            {
              "internalType": "uint256",
              "name": "",
              "type": "uint256"
            }
          ],
          "stateMutability": "view",
          "type": "function"
        },
        {
          "inputs": [
            {
              "internalType": "address",
              "name": "addr",
              "type": "address"
            }
          ],
          "name": "isExpired",
          "outputs": [
            {
              "internalType": "bool",
              "name": "",
              "type": "bool"
            }
          ],
          "stateMutability": "view",
          "type": "function"
        },
        {
          "inputs": [
            {
              "internalType": "address",
              "name": "addr",
              "type": "address"
            }
          ],
          "name": "isInGracePeriod",
          "outputs": [
            {
              "internalType": "bool",
              "name": "",
              "type": "bool"
            }
          ],
          "stateMutability": "view",
          "type": "function"
        },
        {
          "inputs": [],
          "name": "name",
          "outputs": [
            {
              "internalType": "string",
              "name": "",
              "type": "string"
            }
          ],
          "stateMutability": "view",
          "type": "function"
        },
        {
          "inputs": [
            {
              "internalType": "contract IRemovableEntity",
              "name": "entity",
              "type": "address"
            }
          ],
          "name": "reactivateEntity",
          "outputs": [],
          "stateMutability": "nonpayable",
          "type": "function"
        },
        {
          "inputs": [
            {
              "internalType": "contract IRemovableEntity",
              "name": "entity",
              "type": "address"
            },
            {
              "internalType": "string",
              "name": "reason",
              "type": "string"
            }
          ],
          "name": "removeEntity",
          "outputs": [],
          "stateMutability": "nonpayable",
          "type": "function"
        },
        {
          "inputs": [
            {
              "internalType": "address",
              "name": "addr",
              "type": "address"
            }
          ],
          "name": "renewEntity",
          "outputs": [],
          "stateMutability": "payable",
          "type": "function"
        },
        {
          "inputs": [],
          "name": "version",
          "outputs": [
            {
              "components": [
                {
                  "internalType": "uint16",
                  "name": "major",
                  "type": "uint16"
                },
                {
                  "internalType": "uint16",
                  "name": "minor",
                  "type": "uint16"
                }
              ],
              "internalType": "struct ModuleVersion",
              "name": "",
              "type": "tuple"
            }
          ],
          "stateMutability": "pure",
          "type": "function"
        }
      ],
      "evm": {
        "bytecode": {
          "linkReferences": {},
          "object": "608060405234801561001057600080fd5b506116ef806100206000396000f3fe6080604052600436106100dd5760003560e01c8063693c79b21161007f578063b6db923d11610059578063b6db923d1461029f578063ba2eb541146102bf578063d6fbe020146102df578063e2482bf9146102f257600080fd5b8063693c79b21461022f578063a8c88c171461024f578063af08d53d1461027f57600080fd5b80634ae134cc116100bb5780634ae134cc146101745780634ec70a481461019457806354fd4d50146101c25780635726c94e1461020f57600080fd5b806301f24230146100e2578063033a5b601461010457806306fdde0314610124575b600080fd5b3480156100ee57600080fd5b506101026100fd366004611352565b610312565b005b34801561011057600080fd5b5061010261011f366004611376565b610544565b34801561013057600080fd5b5061015e6040518060400160405280600e81526020016d12515b9d1a5d1e54995b5bdd985b60921b81525081565b60405161016b919061141f565b60405180910390f35b34801561018057600080fd5b5061010261018f366004611352565b61063e565b3480156101a057600080fd5b506101b46101af366004611352565b61079f565b60405190815260200161016b565b3480156101ce57600080fd5b50604080518082018252600080825260209182018190528251808401845260018082529083019182528351908152905161ffff16918101919091520161016b565b34801561021b57600080fd5b506101b461022a366004611352565b61080d565b34801561023b57600080fd5b5061010261024a366004611352565b61083b565b34801561025b57600080fd5b5061026f61026a366004611352565b610919565b604051901515815260200161016b565b34801561028b57600080fd5b5061010261029a366004611376565b6109a4565b3480156102ab57600080fd5b5061026f6102ba366004611352565b610cbe565b3480156102cb57600080fd5b5061026f6102da366004611352565b610d6f565b6101026102ed366004611352565b610ddf565b3480156102fe57600080fd5b5061026f61030d366004611352565b611133565b8061031c81610919565b6103805760405162461bcd60e51b815260206004820152602a60248201527f5374617475734368616e6765734578743a20656e746974792063616e6e6f74206044820152691899481c995b5bdd995960b21b60648201526084015b60405180910390fd5b600061038a6111e5565b6040516380599e4b60e01b815260206004820152602860248201527f52656d6f76616c20656e666f726365642064756520746f207465726d732065786044820152673834b930ba34b7b760c11b60648201529091506001600160a01b038416906380599e4b90608401600060405180830381600087803b15801561040d57600080fd5b505af1158015610421573d6000803e3d6000fd5b5050506001600160a01b0380841660009081526020849052604080822080546001600160a01b031916815560018101805463ffffffff191690556002810183905560038101839055600490810183905581516306fdde0360e01b815291519294506104dc938816926306fdde0392808301928792918290030181865afa1580156104af573d6000803e3d6000fd5b505050506040513d6000823e601f3d908101601f191682016040526104d79190810190611468565b61127b565b905081600201816040516104f0919061150a565b90815260405190819003602001812080546001600160a01b03191690556001600160a01b038416907f7e6cd5861b1d4fa3f22e1534c246a20812a09a8c06fa2caaacdc5e70e72c7bf690600090a250505050565b600061054e6111e5565b6001600160a01b03808616600090815260208390526040902080549293509116331461058c5760405162461bcd60e51b815260040161037790611526565b426004808301919091556040516327ee999d60e01b81526001600160a01b038716916327ee999d916105c2918891889101611583565b600060405180830381600087803b1580156105dc57600080fd5b505af11580156105f0573d6000803e3d6000fd5b50505050846001600160a01b03167fb75046c01c14bc7fe8ffdd7a34c4c308a3ddb6011b52a2ee88f5d4545e22ced8858560405161062f929190611583565b60405180910390a25050505050565b61064781610cbe565b6106aa5760405162461bcd60e51b815260206004820152602e60248201527f456e7469747952656d6f76616c4578743a20456e746974792063616e6e6f742060448201526d18994819195858dd1a5d985d195960921b6064820152608401610377565b6040516327ee999d60e01b815260206004820152602d60248201527f446561637469766174696f6e20656e666f726365642064756520746f2074657260448201526c36b99032bc3834b930ba34b7b760991b60648201526001600160a01b038216906327ee999d90608401600060405180830381600087803b15801561072f57600080fd5b505af1158015610743573d6000803e3d6000fd5b5050505060006107516111e5565b6001600160a01b0383166000818152602083905260408082204260048201559051939450927f34aed9d8955237d766c06c12b28987720163d0a7655bca0e23f470ae6e2e51c79190a2505050565b6000806107aa6111e5565b6001600160a01b038416600090815260208290526040812060018101549293509161ffff1690036107df575060009392505050565b60018101546107f690620151809061ffff166115c8565b816003015461080591906115e5565b949350505050565b6000806108186111e5565b6001600160a01b0390931660009081526020939093525050604090206003015490565b60006108456111e5565b6001600160a01b0380841660009081526020839052604090208054929350911633146108835760405162461bcd60e51b815260040161037790611526565b60008160040181905550826001600160a01b031663d18611d66040518163ffffffff1660e01b8152600401600060405180830381600087803b1580156108c857600080fd5b505af11580156108dc573d6000803e3d6000fd5b50506040516001600160a01b03861692507f667d71bfa02caef2a7b621bfee70de813834529ef97b4fdcf65727d950a41a889150600090a2505050565b6000806109246111e5565b6001600160a01b038416600090815260208290526040812060018101549293509161ffff169003610959575060009392505050565b806004015460000361096f575060009392505050565b600181015460009061098990620151809061ffff166115c8565b826004015461099891906115e5565b42101595945050505050565b60006109ae6111e5565b6001600160a01b038086166000908152602083905260409020805492935091163314610a425760405162461bcd60e51b815260206004820152603f60248201527f456e7469747952656d6f76616c4578743a2063616c6c6572206973206e6f742060448201527f74686520656e74697479277320726567697374726174696f6e206f776e6572006064820152608401610377565b6000816004015411610abc5760405162461bcd60e51b815260206004820152603b60248201527f456e7469747952656d6f76616c4578743a20656e74697479206d75737420626560448201527f206465616374697661746564206265666f72652072656d6f76616c00000000006064820152608401610377565b6001810154610ad990620151809062010000900461ffff166115c8565b8160040154610ae891906115e5565b4211610b5c5760405162461bcd60e51b815260206004820152603b60248201527f456e7469747952656d6f76616c4578743a20646561637469766174696f6e206760448201527f7261636520706572696f6420686173206e6f74206578706972656400000000006064820152608401610377565b6040516380599e4b60e01b81526001600160a01b038616906380599e4b90610b8a9087908790600401611583565b600060405180830381600087803b158015610ba457600080fd5b505af1158015610bb8573d6000803e3d6000fd5b5050506001600160a01b03861660008181526020859052604080822080546001600160a01b031916815560018101805463ffffffff191690556002810183905560038101839055600490810183905581516306fdde0360e01b81529151929450610c4393926306fdde0392808301928792918290030181865afa1580156104af573d6000803e3d6000fd5b90508260020181604051610c57919061150a565b90815260405190819003602001812080546001600160a01b03191690556001600160a01b038716907f19befd85e4fafbc51c81f6553f2790c1845268610c5acdb88fb188dfc64319ad90610cae9088908890611583565b60405180910390a2505050505050565b600080610cc96111e5565b6001600160a01b038416600090815260208290526040812060018101549293509161ffff169003610cfe575060009392505050565b6001810154600090610d1890620151809061ffff166115c8565b8260030154610d2791906115e5565b6001830154909150600090610d4a90620151809062010000900461ffff166115c8565b610d5490836115e5565b9050814210158015610d6557508042105b9695505050505050565b600080610d7a6111e5565b6001600160a01b038416600090815260208290526040812060018101549293509161ffff169003610daf575060009392505050565b6001810154610dc690620151809061ffff166115c8565b8160030154610dd591906115e5565b4211949350505050565b6000610de96111e5565b6001600160a01b038316600090815260208290526040902060018101549192509061ffff16610e715760405162461bcd60e51b815260206004820152602e60248201527f52656e6577616c4578743a20456e7469747920646f6573206e6f74206861766560448201526d2072656e6577616c207465726d7360901b6064820152608401610377565b805460408051634173b41760e01b815290516001600160a01b03909216916000918391634173b417916004808201926060929091908290030181865afa158015610ebf573d6000803e3d6000fd5b505050506040513d601f19601f82011682018060405250810190610ee3919061160f565b90506000816020015161ffff1611610fc95760405162461bcd60e51b815260206004820152609160248201527f52656e6577616c4578743a20526567697374726174696f6e207465726d73207260448201527f657175697265206120677261636520706572696f64206576656e207768656e2060648201527f6e6f20636f76657261676520706572696f64206578697374732e20546869732060848201527f697320746f2070726f7669646520612072656d6f76616c20677261636520706560a48201527072696f6420666f7220656e74697469657360781b60c482015260e401610377565b6040810151348111156110335760405162461bcd60e51b815260206004820152602c60248201527f52656e6577616c4578743a20496e73756666696369656e742066756e6473206660448201526b6f72206e6577207465726d7360a01b6064820152608401610377565b8151600185018054602085015161ffff908116620100000263ffffffff19909216931692909217919091179055604082015160028501554260038501556000600485018190556110838234611677565b905080156110ba57604051339082156108fc029083906000818181858888f193505050501580156110b8573d6000803e3d6000fd5b505b84546040516001600160a01b039091169083156108fc029084906000818181858888f193505050501580156110f3573d6000803e3d6000fd5b5060405133906001600160a01b038916907fa12a76e3489e01490944982156e006ccdf24101e35463342943c1b0d069ef07e90600090a350505050505050565b60008061113e6111e5565b6001600160a01b038416600090815260208290526040812060018101549293509161ffff169003611173575060009392505050565b600181015460009061118d90620151809061ffff166115c8565b826003015461119c91906115e5565b60018301549091506000906111bf90620151809062010000900461ffff166115c8565b6111c990836115e5565b90504282108080156111da57508142105b979650505050505050565b60408051808201909152601a81527f78722e726567697374726174696f6e2e76312e73746f7261676500000000000060209091015260008060ff61124a60017f298bb06b387cf42ef0d699a946970827af7863e6cebf6ab1f9ef36af7a931163611677565b60405160200161125c91815260200190565b60408051601f1981840301815291905280516020909101201692915050565b60608160005b81518110156112e4576112b382828151811061129f5761129f61168a565b01602001516001600160f81b0319166112eb565b8282815181106112c5576112c561168a565b60200101906001600160f81b031916908160001a905350600101611281565b5092915050565b6000604160f81b6001600160f81b03198316108015906113195750602d60f91b6001600160f81b0319831611155b156113365761132d60f883901c60206116a0565b60f81b92915050565b5090565b6001600160a01b038116811461134f57600080fd5b50565b60006020828403121561136457600080fd5b813561136f8161133a565b9392505050565b60008060006040848603121561138b57600080fd5b83356113968161133a565b9250602084013567ffffffffffffffff808211156113b357600080fd5b818601915086601f8301126113c757600080fd5b8135818111156113d657600080fd5b8760208285010111156113e857600080fd5b6020830194508093505050509250925092565b60005b838110156114165781810151838201526020016113fe565b50506000910152565b602081526000825180602084015261143e8160408501602087016113fb565b601f01601f19169190910160400192915050565b634e487b7160e01b600052604160045260246000fd5b60006020828403121561147a57600080fd5b815167ffffffffffffffff8082111561149257600080fd5b818401915084601f8301126114a657600080fd5b8151818111156114b8576114b8611452565b604051601f8201601f19908116603f011681019083821181831017156114e0576114e0611452565b816040528281528760208487010111156114f957600080fd5b6111da8360208301602088016113fb565b6000825161151c8184602087016113fb565b9190910192915050565b6020808252603c908201527f456e7469747952656d6f76616c3a2063616c6c6572206973206e6f742074686560408201527f20656e74697479277320726567697374726174696f6e206f776e657200000000606082015260800190565b60208152816020820152818360408301376000818301604090810191909152601f909201601f19160101919050565b634e487b7160e01b600052601160045260246000fd5b80820281158282048414176115df576115df6115b2565b92915050565b808201808211156115df576115df6115b2565b805161ffff8116811461160a57600080fd5b919050565b60006060828403121561162157600080fd5b6040516060810181811067ffffffffffffffff8211171561164457611644611452565b604052611650836115f8565b815261165e602084016115f8565b6020820152604083015160408201528091505092915050565b818103818111156115df576115df6115b2565b634e487b7160e01b600052603260045260246000fd5b60ff81811683821601908111156115df576115df6115b256fea2646970667358221220447bd2b9b4ffb1a8e64c45edbb3e542b12d341c44447e5288e18670777b51b4064736f6c63430008180033",
          "opcodes": "PUSH1 0x80 PUSH1 0x40 MSTORE CALLVALUE DUP1 ISZERO PUSH2 0x10 JUMPI PUSH1 0x0 DUP1 REVERT JUMPDEST POP PUSH2 0x16EF DUP1 PUSH2 0x20 PUSH1 0x0 CODECOPY PUSH1 0x0 RETURN INVALID PUSH1 0x80 PUSH1 0x40 MSTORE PUSH1 0x4 CALLDATASIZE LT PUSH2 0xDD JUMPI PUSH1 0x0 CALLDATALOAD PUSH1 0xE0 SHR DUP1 PUSH4 0x693C79B2 GT PUSH2 0x7F JUMPI DUP1 PUSH4 0xB6DB923D GT PUSH2 0x59 JUMPI DUP1 PUSH4 0xB6DB923D EQ PUSH2 0x29F JUMPI DUP1 PUSH4 0xBA2EB541 EQ PUSH2 0x2BF JUMPI DUP1 PUSH4 0xD6FBE020 EQ PUSH2 0x2DF JUMPI DUP1 PUSH4 0xE2482BF9 EQ PUSH2 0x2F2 JUMPI PUSH1 0x0 DUP1 REVERT JUMPDEST DUP1 PUSH4 0x693C79B2 EQ PUSH2 0x22F JUMPI DUP1 PUSH4 0xA8C88C17 EQ PUSH2 0x24F JUMPI DUP1 PUSH4 0xAF08D53D EQ PUSH2 0x27F JUMPI PUSH1 0x0 DUP1 REVERT JUMPDEST DUP1 PUSH4 0x4AE134CC GT PUSH2 0xBB JUMPI DUP1 PUSH4 0x4AE134CC EQ PUSH2 0x174 JUMPI DUP1 PUSH4 0x4EC70A48 EQ PUSH2 0x194 JUMPI DUP1 PUSH4 0x54FD4D50 EQ PUSH2 0x1C2 JUMPI DUP1 PUSH4 0x5726C94E EQ PUSH2 0x20F JUMPI PUSH1 0x0 DUP1 REVERT JUMPDEST DUP1 PUSH4 0x1F24230 EQ PUSH2 0xE2 JUMPI DUP1 PUSH4 0x33A5B60 EQ PUSH2 0x104 JUMPI DUP1 PUSH4 0x6FDDE03 EQ PUSH2 0x124 JUMPI JUMPDEST PUSH1 0x0 DUP1 REVERT JUMPDEST CALLVALUE DUP1 ISZERO PUSH2 0xEE JUMPI PUSH1 0x0 DUP1 REVERT JUMPDEST POP PUSH2 0x102 PUSH2 0xFD CALLDATASIZE PUSH1 0x4 PUSH2 0x1352 JUMP JUMPDEST PUSH2 0x312 JUMP JUMPDEST STOP JUMPDEST CALLVALUE DUP1 ISZERO PUSH2 0x110 JUMPI PUSH1 0x0 DUP1 REVERT JUMPDEST POP PUSH2 0x102 PUSH2 0x11F CALLDATASIZE PUSH1 0x4 PUSH2 0x1376 JUMP JUMPDEST PUSH2 0x544 JUMP JUMPDEST CALLVALUE DUP1 ISZERO PUSH2 0x130 JUMPI PUSH1 0x0 DUP1 REVERT JUMPDEST POP PUSH2 0x15E PUSH1 0x40 MLOAD DUP1 PUSH1 0x40 ADD PUSH1 0x40 MSTORE DUP1 PUSH1 0xE DUP2 MSTORE PUSH1 0x20 ADD PUSH14 0x12515B9D1A5D1E54995B5BDD985B PUSH1 0x92 SHL DUP2 MSTORE POP DUP2 JUMP JUMPDEST PUSH1 0x40 MLOAD PUSH2 0x16B SWAP2 SWAP1 PUSH2 0x141F JUMP JUMPDEST PUSH1 0x40 MLOAD DUP1 SWAP2 SUB SWAP1 RETURN JUMPDEST CALLVALUE DUP1 ISZERO PUSH2 0x180 JUMPI PUSH1 0x0 DUP1 REVERT JUMPDEST POP PUSH2 0x102 PUSH2 0x18F CALLDATASIZE PUSH1 0x4 PUSH2 0x1352 JUMP JUMPDEST PUSH2 0x63E JUMP JUMPDEST CALLVALUE DUP1 ISZERO PUSH2 0x1A0 JUMPI PUSH1 0x0 DUP1 REVERT JUMPDEST POP PUSH2 0x1B4 PUSH2 0x1AF CALLDATASIZE PUSH1 0x4 PUSH2 0x1352 JUMP JUMPDEST PUSH2 0x79F JUMP JUMPDEST PUSH1 0x40 MLOAD SWAP1 DUP2 MSTORE PUSH1 0x20 ADD PUSH2 0x16B JUMP JUMPDEST CALLVALUE DUP1 ISZERO PUSH2 0x1CE JUMPI PUSH1 0x0 DUP1 REVERT JUMPDEST POP PUSH1 0x40 DUP1 MLOAD DUP1 DUP3 ADD DUP3 MSTORE PUSH1 0x0 DUP1 DUP3 MSTORE PUSH1 0x20 SWAP2 DUP3 ADD DUP2 SWAP1 MSTORE DUP3 MLOAD DUP1 DUP5 ADD DUP5 MSTORE PUSH1 0x1 DUP1 DUP3 MSTORE SWAP1 DUP4 ADD SWAP2 DUP3 MSTORE DUP4 MLOAD SWAP1 DUP2 MSTORE SWAP1 MLOAD PUSH2 0xFFFF AND SWAP2 DUP2 ADD SWAP2 SWAP1 SWAP2 MSTORE ADD PUSH2 0x16B JUMP JUMPDEST CALLVALUE DUP1 ISZERO PUSH2 0x21B JUMPI PUSH1 0x0 DUP1 REVERT JUMPDEST POP PUSH2 0x1B4 PUSH2 0x22A CALLDATASIZE PUSH1 0x4 PUSH2 0x1352 JUMP JUMPDEST PUSH2 0x80D JUMP JUMPDEST CALLVALUE DUP1 ISZERO PUSH2 0x23B JUMPI PUSH1 0x0 DUP1 REVERT JUMPDEST POP PUSH2 0x102 PUSH2 0x24A CALLDATASIZE PUSH1 0x4 PUSH2 0x1352 JUMP JUMPDEST PUSH2 0x83B JUMP JUMPDEST CALLVALUE DUP1 ISZERO PUSH2 0x25B JUMPI PUSH1 0x0 DUP1 REVERT JUMPDEST POP PUSH2 0x26F PUSH2 0x26A CALLDATASIZE PUSH1 0x4 PUSH2 0x1352 JUMP JUMPDEST PUSH2 0x919 JUMP JUMPDEST PUSH1 0x40 MLOAD SWAP1 ISZERO ISZERO DUP2 MSTORE PUSH1 0x20 ADD PUSH2 0x16B JUMP JUMPDEST CALLVALUE DUP1 ISZERO PUSH2 0x28B JUMPI PUSH1 0x0 DUP1 REVERT JUMPDEST POP PUSH2 0x102 PUSH2 0x29A CALLDATASIZE PUSH1 0x4 PUSH2 0x1376 JUMP JUMPDEST PUSH2 0x9A4 JUMP JUMPDEST CALLVALUE DUP1 ISZERO PUSH2 0x2AB JUMPI PUSH1 0x0 DUP1 REVERT JUMPDEST POP PUSH2 0x26F PUSH2 0x2BA CALLDATASIZE PUSH1 0x4 PUSH2 0x1352 JUMP JUMPDEST PUSH2 0xCBE JUMP JUMPDEST CALLVALUE DUP1 ISZERO PUSH2 0x2CB JUMPI PUSH1 0x0 DUP1 REVERT JUMPDEST POP PUSH2 0x26F PUSH2 0x2DA CALLDATASIZE PUSH1 0x4 PUSH2 0x1352 JUMP JUMPDEST PUSH2 0xD6F JUMP JUMPDEST PUSH2 0x102 PUSH2 0x2ED CALLDATASIZE PUSH1 0x4 PUSH2 0x1352 JUMP JUMPDEST PUSH2 0xDDF JUMP JUMPDEST CALLVALUE DUP1 ISZERO PUSH2 0x2FE JUMPI PUSH1 0x0 DUP1 REVERT JUMPDEST POP PUSH2 0x26F PUSH2 0x30D CALLDATASIZE PUSH1 0x4 PUSH2 0x1352 JUMP JUMPDEST PUSH2 0x1133 JUMP JUMPDEST DUP1 PUSH2 0x31C DUP2 PUSH2 0x919 JUMP JUMPDEST PUSH2 0x380 JUMPI PUSH1 0x40 MLOAD PUSH3 0x461BCD PUSH1 0xE5 SHL DUP2 MSTORE PUSH1 0x20 PUSH1 0x4 DUP3 ADD MSTORE PUSH1 0x2A PUSH1 0x24 DUP3 ADD MSTORE PUSH32 0x5374617475734368616E6765734578743A20656E746974792063616E6E6F7420 PUSH1 0x44 DUP3 ADD MSTORE PUSH10 0x1899481C995B5BDD9959 PUSH1 0xB2 SHL PUSH1 0x64 DUP3 ADD MSTORE PUSH1 0x84 ADD JUMPDEST PUSH1 0x40 MLOAD DUP1 SWAP2 SUB SWAP1 REVERT JUMPDEST PUSH1 0x0 PUSH2 0x38A PUSH2 0x11E5 JUMP JUMPDEST PUSH1 0x40 MLOAD PUSH4 0x80599E4B PUSH1 0xE0 SHL DUP2 MSTORE PUSH1 0x20 PUSH1 0x4 DUP3 ADD MSTORE PUSH1 0x28 PUSH1 0x24 DUP3 ADD MSTORE PUSH32 0x52656D6F76616C20656E666F726365642064756520746F207465726D73206578 PUSH1 0x44 DUP3 ADD MSTORE PUSH8 0x3834B930BA34B7B7 PUSH1 0xC1 SHL PUSH1 0x64 DUP3 ADD MSTORE SWAP1 SWAP2 POP PUSH1 0x1 PUSH1 0x1 PUSH1 0xA0 SHL SUB DUP5 AND SWAP1 PUSH4 0x80599E4B SWAP1 PUSH1 0x84 ADD PUSH1 0x0 PUSH1 0x40 MLOAD DUP1 DUP4 SUB DUP2 PUSH1 0x0 DUP8 DUP1 EXTCODESIZE ISZERO DUP1 ISZERO PUSH2 0x40D JUMPI PUSH1 0x0 DUP1 REVERT JUMPDEST POP GAS CALL ISZERO DUP1 ISZERO PUSH2 0x421 JUMPI RETURNDATASIZE PUSH1 0x0 DUP1 RETURNDATACOPY RETURNDATASIZE PUSH1 0x0 REVERT JUMPDEST POP POP POP PUSH1 0x1 PUSH1 0x1 PUSH1 0xA0 SHL SUB DUP1 DUP5 AND PUSH1 0x0 SWAP1 DUP2 MSTORE PUSH1 0x20 DUP5 SWAP1 MSTORE PUSH1 0x40 DUP1 DUP3 KECCAK256 DUP1 SLOAD PUSH1 0x1 PUSH1 0x1 PUSH1 0xA0 SHL SUB NOT AND DUP2 SSTORE PUSH1 0x1 DUP2 ADD DUP1 SLOAD PUSH4 0xFFFFFFFF NOT AND SWAP1 SSTORE PUSH1 0x2 DUP2 ADD DUP4 SWAP1 SSTORE PUSH1 0x3 DUP2 ADD DUP4 SWAP1 SSTORE PUSH1 0x4 SWAP1 DUP2 ADD DUP4 SWAP1 SSTORE DUP2 MLOAD PUSH4 0x6FDDE03 PUSH1 0xE0 SHL DUP2 MSTORE SWAP2 MLOAD SWAP3 SWAP5 POP PUSH2 0x4DC SWAP4 DUP9 AND SWAP3 PUSH4 0x6FDDE03 SWAP3 DUP1 DUP4 ADD SWAP3 DUP8 SWAP3 SWAP2 DUP3 SWAP1 SUB ADD DUP2 DUP7 GAS STATICCALL ISZERO DUP1 ISZERO PUSH2 0x4AF JUMPI RETURNDATASIZE PUSH1 0x0 DUP1 RETURNDATACOPY RETURNDATASIZE PUSH1 0x0 REVERT JUMPDEST POP POP POP POP PUSH1 0x40 MLOAD RETURNDATASIZE PUSH1 0x0 DUP3 RETURNDATACOPY PUSH1 0x1F RETURNDATASIZE SWAP1 DUP2 ADD PUSH1 0x1F NOT AND DUP3 ADD PUSH1 0x40 MSTORE PUSH2 0x4D7 SWAP2 SWAP1 DUP2 ADD SWAP1 PUSH2 0x1468 JUMP JUMPDEST PUSH2 0x127B JUMP JUMPDEST SWAP1 POP DUP2 PUSH1 0x2 ADD DUP2 PUSH1 0x40 MLOAD PUSH2 0x4F0 SWAP2 SWAP1 PUSH2 0x150A JUMP JUMPDEST SWAP1 DUP2 MSTORE PUSH1 0x40 MLOAD SWAP1 DUP2 SWAP1 SUB PUSH1 0x20 ADD DUP2 KECCAK256 DUP1 SLOAD PUSH1 0x1 PUSH1 0x1 PUSH1 0xA0 SHL SUB NOT AND SWAP1 SSTORE PUSH1 0x1 PUSH1 0x1 PUSH1 0xA0 SHL SUB DUP5 AND SWAP1 PUSH32 0x7E6CD5861B1D4FA3F22E1534C246A20812A09A8C06FA2CAAACDC5E70E72C7BF6 SWAP1 PUSH1 0x0 SWAP1 LOG2 POP POP POP POP JUMP JUMPDEST PUSH1 0x0 PUSH2 0x54E PUSH2 0x11E5 JUMP JUMPDEST PUSH1 0x1 PUSH1 0x1 PUSH1 0xA0 SHL SUB DUP1 DUP7 AND PUSH1 0x0 SWAP1 DUP2 MSTORE PUSH1 0x20 DUP4 SWAP1 MSTORE PUSH1 0x40 SWAP1 KECCAK256 DUP1 SLOAD SWAP3 SWAP4 POP SWAP2 AND CALLER EQ PUSH2 0x58C JUMPI PUSH1 0x40 MLOAD PUSH3 0x461BCD PUSH1 0xE5 SHL DUP2 MSTORE PUSH1 0x4 ADD PUSH2 0x377 SWAP1 PUSH2 0x1526 JUMP JUMPDEST TIMESTAMP PUSH1 0x4 DUP1 DUP4 ADD SWAP2 SWAP1 SWAP2 SSTORE PUSH1 0x40 MLOAD PUSH4 0x27EE999D PUSH1 0xE0 SHL DUP2 MSTORE PUSH1 0x1 PUSH1 0x1 PUSH1 0xA0 SHL SUB DUP8 AND SWAP2 PUSH4 0x27EE999D SWAP2 PUSH2 0x5C2 SWAP2 DUP9 SWAP2 DUP9 SWAP2 ADD PUSH2 0x1583 JUMP JUMPDEST PUSH1 0x0 PUSH1 0x40 MLOAD DUP1 DUP4 SUB DUP2 PUSH1 0x0 DUP8 DUP1 EXTCODESIZE ISZERO DUP1 ISZERO PUSH2 0x5DC JUMPI PUSH1 0x0 DUP1 REVERT JUMPDEST POP GAS CALL ISZERO DUP1 ISZERO PUSH2 0x5F0 JUMPI RETURNDATASIZE PUSH1 0x0 DUP1 RETURNDATACOPY RETURNDATASIZE PUSH1 0x0 REVERT JUMPDEST POP POP POP POP DUP5 PUSH1 0x1 PUSH1 0x1 PUSH1 0xA0 SHL SUB AND PUSH32 0xB75046C01C14BC7FE8FFDD7A34C4C308A3DDB6011B52A2EE88F5D4545E22CED8 DUP6 DUP6 PUSH1 0x40 MLOAD PUSH2 0x62F SWAP3 SWAP2 SWAP1 PUSH2 0x1583 JUMP JUMPDEST PUSH1 0x40 MLOAD DUP1 SWAP2 SUB SWAP1 LOG2 POP POP POP POP POP JUMP JUMPDEST PUSH2 0x647 DUP2 PUSH2 0xCBE JUMP JUMPDEST PUSH2 0x6AA JUMPI PUSH1 0x40 MLOAD PUSH3 0x461BCD PUSH1 0xE5 SHL DUP2 MSTORE PUSH1 0x20 PUSH1 0x4 DUP3 ADD MSTORE PUSH1 0x2E PUSH1 0x24 DUP3 ADD MSTORE PUSH32 0x456E7469747952656D6F76616C4578743A20456E746974792063616E6E6F7420 PUSH1 0x44 DUP3 ADD MSTORE PUSH14 0x18994819195858DD1A5D985D1959 PUSH1 0x92 SHL PUSH1 0x64 DUP3 ADD MSTORE PUSH1 0x84 ADD PUSH2 0x377 JUMP JUMPDEST PUSH1 0x40 MLOAD PUSH4 0x27EE999D PUSH1 0xE0 SHL DUP2 MSTORE PUSH1 0x20 PUSH1 0x4 DUP3 ADD MSTORE PUSH1 0x2D PUSH1 0x24 DUP3 ADD MSTORE PUSH32 0x446561637469766174696F6E20656E666F726365642064756520746F20746572 PUSH1 0x44 DUP3 ADD MSTORE PUSH13 0x36B99032BC3834B930BA34B7B7 PUSH1 0x99 SHL PUSH1 0x64 DUP3 ADD MSTORE PUSH1 0x1 PUSH1 0x1 PUSH1 0xA0 SHL SUB DUP3 AND SWAP1 PUSH4 0x27EE999D SWAP1 PUSH1 0x84 ADD PUSH1 0x0 PUSH1 0x40 MLOAD DUP1 DUP4 SUB DUP2 PUSH1 0x0 DUP8 DUP1 EXTCODESIZE ISZERO DUP1 ISZERO PUSH2 0x72F JUMPI PUSH1 0x0 DUP1 REVERT JUMPDEST POP GAS CALL ISZERO DUP1 ISZERO PUSH2 0x743 JUMPI RETURNDATASIZE PUSH1 0x0 DUP1 RETURNDATACOPY RETURNDATASIZE PUSH1 0x0 REVERT JUMPDEST POP POP POP POP PUSH1 0x0 PUSH2 0x751 PUSH2 0x11E5 JUMP JUMPDEST PUSH1 0x1 PUSH1 0x1 PUSH1 0xA0 SHL SUB DUP4 AND PUSH1 0x0 DUP2 DUP2 MSTORE PUSH1 0x20 DUP4 SWAP1 MSTORE PUSH1 0x40 DUP1 DUP3 KECCAK256 TIMESTAMP PUSH1 0x4 DUP3 ADD SSTORE SWAP1 MLOAD SWAP4 SWAP5 POP SWAP3 PUSH32 0x34AED9D8955237D766C06C12B28987720163D0A7655BCA0E23F470AE6E2E51C7 SWAP2 SWAP1 LOG2 POP POP POP JUMP JUMPDEST PUSH1 0x0 DUP1 PUSH2 0x7AA PUSH2 0x11E5 JUMP JUMPDEST PUSH1 0x1 PUSH1 0x1 PUSH1 0xA0 SHL SUB DUP5 AND PUSH1 0x0 SWAP1 DUP2 MSTORE PUSH1 0x20 DUP3 SWAP1 MSTORE PUSH1 0x40 DUP2 KECCAK256 PUSH1 0x1 DUP2 ADD SLOAD SWAP3 SWAP4 POP SWAP2 PUSH2 0xFFFF AND SWAP1 SUB PUSH2 0x7DF JUMPI POP PUSH1 0x0 SWAP4 SWAP3 POP POP POP JUMP JUMPDEST PUSH1 0x1 DUP2 ADD SLOAD PUSH2 0x7F6 SWAP1 PUSH3 0x15180 SWAP1 PUSH2 0xFFFF AND PUSH2 0x15C8 JUMP JUMPDEST DUP2 PUSH1 0x3 ADD SLOAD PUSH2 0x805 SWAP2 SWAP1 PUSH2 0x15E5 JUMP JUMPDEST SWAP5 SWAP4 POP POP POP POP JUMP JUMPDEST PUSH1 0x0 DUP1 PUSH2 0x818 PUSH2 0x11E5 JUMP JUMPDEST PUSH1 0x1 PUSH1 0x1 PUSH1 0xA0 SHL SUB SWAP1 SWAP4 AND PUSH1 0x0 SWAP1 DUP2 MSTORE PUSH1 0x20 SWAP4 SWAP1 SWAP4 MSTORE POP POP PUSH1 0x40 SWAP1 KECCAK256 PUSH1 0x3 ADD SLOAD SWAP1 JUMP JUMPDEST PUSH1 0x0 PUSH2 0x845 PUSH2 0x11E5 JUMP JUMPDEST PUSH1 0x1 PUSH1 0x1 PUSH1 0xA0 SHL SUB DUP1 DUP5 AND PUSH1 0x0 SWAP1 DUP2 MSTORE PUSH1 0x20 DUP4 SWAP1 MSTORE PUSH1 0x40 SWAP1 KECCAK256 DUP1 SLOAD SWAP3 SWAP4 POP SWAP2 AND CALLER EQ PUSH2 0x883 JUMPI PUSH1 0x40 MLOAD PUSH3 0x461BCD PUSH1 0xE5 SHL DUP2 MSTORE PUSH1 0x4 ADD PUSH2 0x377 SWAP1 PUSH2 0x1526 JUMP JUMPDEST PUSH1 0x0 DUP2 PUSH1 0x4 ADD DUP2 SWAP1 SSTORE POP DUP3 PUSH1 0x1 PUSH1 0x1 PUSH1 0xA0 SHL SUB AND PUSH4 0xD18611D6 PUSH1 0x40 MLOAD DUP2 PUSH4 0xFFFFFFFF AND PUSH1 0xE0 SHL DUP2 MSTORE PUSH1 0x4 ADD PUSH1 0x0 PUSH1 0x40 MLOAD DUP1 DUP4 SUB DUP2 PUSH1 0x0 DUP8 DUP1 EXTCODESIZE ISZERO DUP1 ISZERO PUSH2 0x8C8 JUMPI PUSH1 0x0 DUP1 REVERT JUMPDEST POP GAS CALL ISZERO DUP1 ISZERO PUSH2 0x8DC JUMPI RETURNDATASIZE PUSH1 0x0 DUP1 RETURNDATACOPY RETURNDATASIZE PUSH1 0x0 REVERT JUMPDEST POP POP PUSH1 0x40 MLOAD PUSH1 0x1 PUSH1 0x1 PUSH1 0xA0 SHL SUB DUP7 AND SWAP3 POP PUSH32 0x667D71BFA02CAEF2A7B621BFEE70DE813834529EF97B4FDCF65727D950A41A88 SWAP2 POP PUSH1 0x0 SWAP1 LOG2 POP POP POP JUMP JUMPDEST PUSH1 0x0 DUP1 PUSH2 0x924 PUSH2 0x11E5 JUMP JUMPDEST PUSH1 0x1 PUSH1 0x1 PUSH1 0xA0 SHL SUB DUP5 AND PUSH1 0x0 SWAP1 DUP2 MSTORE PUSH1 0x20 DUP3 SWAP1 MSTORE PUSH1 0x40 DUP2 KECCAK256 PUSH1 0x1 DUP2 ADD SLOAD SWAP3 SWAP4 POP SWAP2 PUSH2 0xFFFF AND SWAP1 SUB PUSH2 0x959 JUMPI POP PUSH1 0x0 SWAP4 SWAP3 POP POP POP JUMP JUMPDEST DUP1 PUSH1 0x4 ADD SLOAD PUSH1 0x0 SUB PUSH2 0x96F JUMPI POP PUSH1 0x0 SWAP4 SWAP3 POP POP POP JUMP JUMPDEST PUSH1 0x1 DUP2 ADD SLOAD PUSH1 0x0 SWAP1 PUSH2 0x989 SWAP1 PUSH3 0x15180 SWAP1 PUSH2 0xFFFF AND PUSH2 0x15C8 JUMP JUMPDEST DUP3 PUSH1 0x4 ADD SLOAD PUSH2 0x998 SWAP2 SWAP1 PUSH2 0x15E5 JUMP JUMPDEST TIMESTAMP LT ISZERO SWAP6 SWAP5 POP POP POP POP POP JUMP JUMPDEST PUSH1 0x0 PUSH2 0x9AE PUSH2 0x11E5 JUMP JUMPDEST PUSH1 0x1 PUSH1 0x1 PUSH1 0xA0 SHL SUB DUP1 DUP7 AND PUSH1 0x0 SWAP1 DUP2 MSTORE PUSH1 0x20 DUP4 SWAP1 MSTORE PUSH1 0x40 SWAP1 KECCAK256 DUP1 SLOAD SWAP3 SWAP4 POP SWAP2 AND CALLER EQ PUSH2 0xA42 JUMPI PUSH1 0x40 MLOAD PUSH3 0x461BCD PUSH1 0xE5 SHL DUP2 MSTORE PUSH1 0x20 PUSH1 0x4 DUP3 ADD MSTORE PUSH1 0x3F PUSH1 0x24 DUP3 ADD MSTORE PUSH32 0x456E7469747952656D6F76616C4578743A2063616C6C6572206973206E6F7420 PUSH1 0x44 DUP3 ADD MSTORE PUSH32 0x74686520656E74697479277320726567697374726174696F6E206F776E657200 PUSH1 0x64 DUP3 ADD MSTORE PUSH1 0x84 ADD PUSH2 0x377 JUMP JUMPDEST PUSH1 0x0 DUP2 PUSH1 0x4 ADD SLOAD GT PUSH2 0xABC JUMPI PUSH1 0x40 MLOAD PUSH3 0x461BCD PUSH1 0xE5 SHL DUP2 MSTORE PUSH1 0x20 PUSH1 0x4 DUP3 ADD MSTORE PUSH1 0x3B PUSH1 0x24 DUP3 ADD MSTORE PUSH32 0x456E7469747952656D6F76616C4578743A20656E74697479206D757374206265 PUSH1 0x44 DUP3 ADD MSTORE PUSH32 0x206465616374697661746564206265666F72652072656D6F76616C0000000000 PUSH1 0x64 DUP3 ADD MSTORE PUSH1 0x84 ADD PUSH2 0x377 JUMP JUMPDEST PUSH1 0x1 DUP2 ADD SLOAD PUSH2 0xAD9 SWAP1 PUSH3 0x15180 SWAP1 PUSH3 0x10000 SWAP1 DIV PUSH2 0xFFFF AND PUSH2 0x15C8 JUMP JUMPDEST DUP2 PUSH1 0x4 ADD SLOAD PUSH2 0xAE8 SWAP2 SWAP1 PUSH2 0x15E5 JUMP JUMPDEST TIMESTAMP GT PUSH2 0xB5C JUMPI PUSH1 0x40 MLOAD PUSH3 0x461BCD PUSH1 0xE5 SHL DUP2 MSTORE PUSH1 0x20 PUSH1 0x4 DUP3 ADD MSTORE PUSH1 0x3B PUSH1 0x24 DUP3 ADD MSTORE PUSH32 0x456E7469747952656D6F76616C4578743A20646561637469766174696F6E2067 PUSH1 0x44 DUP3 ADD MSTORE PUSH32 0x7261636520706572696F6420686173206E6F7420657870697265640000000000 PUSH1 0x64 DUP3 ADD MSTORE PUSH1 0x84 ADD PUSH2 0x377 JUMP JUMPDEST PUSH1 0x40 MLOAD PUSH4 0x80599E4B PUSH1 0xE0 SHL DUP2 MSTORE PUSH1 0x1 PUSH1 0x1 PUSH1 0xA0 SHL SUB DUP7 AND SWAP1 PUSH4 0x80599E4B SWAP1 PUSH2 0xB8A SWAP1 DUP8 SWAP1 DUP8 SWAP1 PUSH1 0x4 ADD PUSH2 0x1583 JUMP JUMPDEST PUSH1 0x0 PUSH1 0x40 MLOAD DUP1 DUP4 SUB DUP2 PUSH1 0x0 DUP8 DUP1 EXTCODESIZE ISZERO DUP1 ISZERO PUSH2 0xBA4 JUMPI PUSH1 0x0 DUP1 REVERT JUMPDEST POP GAS CALL ISZERO DUP1 ISZERO PUSH2 0xBB8 JUMPI RETURNDATASIZE PUSH1 0x0 DUP1 RETURNDATACOPY RETURNDATASIZE PUSH1 0x0 REVERT JUMPDEST POP POP POP PUSH1 0x1 PUSH1 0x1 PUSH1 0xA0 SHL SUB DUP7 AND PUSH1 0x0 DUP2 DUP2 MSTORE PUSH1 0x20 DUP6 SWAP1 MSTORE PUSH1 0x40 DUP1 DUP3 KECCAK256 DUP1 SLOAD PUSH1 0x1 PUSH1 0x1 PUSH1 0xA0 SHL SUB NOT AND DUP2 SSTORE PUSH1 0x1 DUP2 ADD DUP1 SLOAD PUSH4 0xFFFFFFFF NOT AND SWAP1 SSTORE PUSH1 0x2 DUP2 ADD DUP4 SWAP1 SSTORE PUSH1 0x3 DUP2 ADD DUP4 SWAP1 SSTORE PUSH1 0x4 SWAP1 DUP2 ADD DUP4 SWAP1 SSTORE DUP2 MLOAD PUSH4 0x6FDDE03 PUSH1 0xE0 SHL DUP2 MSTORE SWAP2 MLOAD SWAP3 SWAP5 POP PUSH2 0xC43 SWAP4 SWAP3 PUSH4 0x6FDDE03 SWAP3 DUP1 DUP4 ADD SWAP3 DUP8 SWAP3 SWAP2 DUP3 SWAP1 SUB ADD DUP2 DUP7 GAS STATICCALL ISZERO DUP1 ISZERO PUSH2 0x4AF JUMPI RETURNDATASIZE PUSH1 0x0 DUP1 RETURNDATACOPY RETURNDATASIZE PUSH1 0x0 REVERT JUMPDEST SWAP1 POP DUP3 PUSH1 0x2 ADD DUP2 PUSH1 0x40 MLOAD PUSH2 0xC57 SWAP2 SWAP1 PUSH2 0x150A JUMP JUMPDEST SWAP1 DUP2 MSTORE PUSH1 0x40 MLOAD SWAP1 DUP2 SWAP1 SUB PUSH1 0x20 ADD DUP2 KECCAK256 DUP1 SLOAD PUSH1 0x1 PUSH1 0x1 PUSH1 0xA0 SHL SUB NOT AND SWAP1 SSTORE PUSH1 0x1 PUSH1 0x1 PUSH1 0xA0 SHL SUB DUP8 AND SWAP1 PUSH32 0x19BEFD85E4FAFBC51C81F6553F2790C1845268610C5ACDB88FB188DFC64319AD SWAP1 PUSH2 0xCAE SWAP1 DUP9 SWAP1 DUP9 SWAP1 PUSH2 0x1583 JUMP JUMPDEST PUSH1 0x40 MLOAD DUP1 SWAP2 SUB SWAP1 LOG2 POP POP POP POP POP POP JUMP JUMPDEST PUSH1 0x0 DUP1 PUSH2 0xCC9 PUSH2 0x11E5 JUMP JUMPDEST PUSH1 0x1 PUSH1 0x1 PUSH1 0xA0 SHL SUB DUP5 AND PUSH1 0x0 SWAP1 DUP2 MSTORE PUSH1 0x20 DUP3 SWAP1 MSTORE PUSH1 0x40 DUP2 KECCAK256 PUSH1 0x1 DUP2 ADD SLOAD SWAP3 SWAP4 POP SWAP2 PUSH2 0xFFFF AND SWAP1 SUB PUSH2 0xCFE JUMPI POP PUSH1 0x0 SWAP4 SWAP3 POP POP POP JUMP JUMPDEST PUSH1 0x1 DUP2 ADD SLOAD PUSH1 0x0 SWAP1 PUSH2 0xD18 SWAP1 PUSH3 0x15180 SWAP1 PUSH2 0xFFFF AND PUSH2 0x15C8 JUMP JUMPDEST DUP3 PUSH1 0x3 ADD SLOAD PUSH2 0xD27 SWAP2 SWAP1 PUSH2 0x15E5 JUMP JUMPDEST PUSH1 0x1 DUP4 ADD SLOAD SWAP1 SWAP2 POP PUSH1 0x0 SWAP1 PUSH2 0xD4A SWAP1 PUSH3 0x15180 SWAP1 PUSH3 0x10000 SWAP1 DIV PUSH2 0xFFFF AND PUSH2 0x15C8 JUMP JUMPDEST PUSH2 0xD54 SWAP1 DUP4 PUSH2 0x15E5 JUMP JUMPDEST SWAP1 POP DUP2 TIMESTAMP LT ISZERO DUP1 ISZERO PUSH2 0xD65 JUMPI POP DUP1 TIMESTAMP LT JUMPDEST SWAP7 SWAP6 POP POP POP POP POP POP JUMP JUMPDEST PUSH1 0x0 DUP1 PUSH2 0xD7A PUSH2 0x11E5 JUMP JUMPDEST PUSH1 0x1 PUSH1 0x1 PUSH1 0xA0 SHL SUB DUP5 AND PUSH1 0x0 SWAP1 DUP2 MSTORE PUSH1 0x20 DUP3 SWAP1 MSTORE PUSH1 0x40 DUP2 KECCAK256 PUSH1 0x1 DUP2 ADD SLOAD SWAP3 SWAP4 POP SWAP2 PUSH2 0xFFFF AND SWAP1 SUB PUSH2 0xDAF JUMPI POP PUSH1 0x0 SWAP4 SWAP3 POP POP POP JUMP JUMPDEST PUSH1 0x1 DUP2 ADD SLOAD PUSH2 0xDC6 SWAP1 PUSH3 0x15180 SWAP1 PUSH2 0xFFFF AND PUSH2 0x15C8 JUMP JUMPDEST DUP2 PUSH1 0x3 ADD SLOAD PUSH2 0xDD5 SWAP2 SWAP1 PUSH2 0x15E5 JUMP JUMPDEST TIMESTAMP GT SWAP5 SWAP4 POP POP POP POP JUMP JUMPDEST PUSH1 0x0 PUSH2 0xDE9 PUSH2 0x11E5 JUMP JUMPDEST PUSH1 0x1 PUSH1 0x1 PUSH1 0xA0 SHL SUB DUP4 AND PUSH1 0x0 SWAP1 DUP2 MSTORE PUSH1 0x20 DUP3 SWAP1 MSTORE PUSH1 0x40 SWAP1 KECCAK256 PUSH1 0x1 DUP2 ADD SLOAD SWAP2 SWAP3 POP SWAP1 PUSH2 0xFFFF AND PUSH2 0xE71 JUMPI PUSH1 0x40 MLOAD PUSH3 0x461BCD PUSH1 0xE5 SHL DUP2 MSTORE PUSH1 0x20 PUSH1 0x4 DUP3 ADD MSTORE PUSH1 0x2E PUSH1 0x24 DUP3 ADD MSTORE PUSH32 0x52656E6577616C4578743A20456E7469747920646F6573206E6F742068617665 PUSH1 0x44 DUP3 ADD MSTORE PUSH14 0x2072656E6577616C207465726D73 PUSH1 0x90 SHL PUSH1 0x64 DUP3 ADD MSTORE PUSH1 0x84 ADD PUSH2 0x377 JUMP JUMPDEST DUP1 SLOAD PUSH1 0x40 DUP1 MLOAD PUSH4 0x4173B417 PUSH1 0xE0 SHL DUP2 MSTORE SWAP1 MLOAD PUSH1 0x1 PUSH1 0x1 PUSH1 0xA0 SHL SUB SWAP1 SWAP3 AND SWAP2 PUSH1 0x0 SWAP2 DUP4 SWAP2 PUSH4 0x4173B417 SWAP2 PUSH1 0x4 DUP1 DUP3 ADD SWAP3 PUSH1 0x60 SWAP3 SWAP1 SWAP2 SWAP1 DUP3 SWAP1 SUB ADD DUP2 DUP7 GAS STATICCALL ISZERO DUP1 ISZERO PUSH2 0xEBF JUMPI RETURNDATASIZE PUSH1 0x0 DUP1 RETURNDATACOPY RETURNDATASIZE PUSH1 0x0 REVERT JUMPDEST POP POP POP POP PUSH1 0x40 MLOAD RETURNDATASIZE PUSH1 0x1F NOT PUSH1 0x1F DUP3 ADD AND DUP3 ADD DUP1 PUSH1 0x40 MSTORE POP DUP2 ADD SWAP1 PUSH2 0xEE3 SWAP2 SWAP1 PUSH2 0x160F JUMP JUMPDEST SWAP1 POP PUSH1 0x0 DUP2 PUSH1 0x20 ADD MLOAD PUSH2 0xFFFF AND GT PUSH2 0xFC9 JUMPI PUSH1 0x40 MLOAD PUSH3 0x461BCD PUSH1 0xE5 SHL DUP2 MSTORE PUSH1 0x20 PUSH1 0x4 DUP3 ADD MSTORE PUSH1 0x91 PUSH1 0x24 DUP3 ADD MSTORE PUSH32 0x52656E6577616C4578743A20526567697374726174696F6E207465726D732072 PUSH1 0x44 DUP3 ADD MSTORE PUSH32 0x657175697265206120677261636520706572696F64206576656E207768656E20 PUSH1 0x64 DUP3 ADD MSTORE PUSH32 0x6E6F20636F76657261676520706572696F64206578697374732E205468697320 PUSH1 0x84 DUP3 ADD MSTORE PUSH32 0x697320746F2070726F7669646520612072656D6F76616C206772616365207065 PUSH1 0xA4 DUP3 ADD MSTORE PUSH17 0x72696F6420666F7220656E746974696573 PUSH1 0x78 SHL PUSH1 0xC4 DUP3 ADD MSTORE PUSH1 0xE4 ADD PUSH2 0x377 JUMP JUMPDEST PUSH1 0x40 DUP2 ADD MLOAD CALLVALUE DUP2 GT ISZERO PUSH2 0x1033 JUMPI PUSH1 0x40 MLOAD PUSH3 0x461BCD PUSH1 0xE5 SHL DUP2 MSTORE PUSH1 0x20 PUSH1 0x4 DUP3 ADD MSTORE PUSH1 0x2C PUSH1 0x24 DUP3 ADD MSTORE PUSH32 0x52656E6577616C4578743A20496E73756666696369656E742066756E64732066 PUSH1 0x44 DUP3 ADD MSTORE PUSH12 0x6F72206E6577207465726D73 PUSH1 0xA0 SHL PUSH1 0x64 DUP3 ADD MSTORE PUSH1 0x84 ADD PUSH2 0x377 JUMP JUMPDEST DUP2 MLOAD PUSH1 0x1 DUP6 ADD DUP1 SLOAD PUSH1 0x20 DUP6 ADD MLOAD PUSH2 0xFFFF SWAP1 DUP2 AND PUSH3 0x10000 MUL PUSH4 0xFFFFFFFF NOT SWAP1 SWAP3 AND SWAP4 AND SWAP3 SWAP1 SWAP3 OR SWAP2 SWAP1 SWAP2 OR SWAP1 SSTORE PUSH1 0x40 DUP3 ADD MLOAD PUSH1 0x2 DUP6 ADD SSTORE TIMESTAMP PUSH1 0x3 DUP6 ADD SSTORE PUSH1 0x0 PUSH1 0x4 DUP6 ADD DUP2 SWAP1 SSTORE PUSH2 0x1083 DUP3 CALLVALUE PUSH2 0x1677 JUMP JUMPDEST SWAP1 POP DUP1 ISZERO PUSH2 0x10BA JUMPI PUSH1 0x40 MLOAD CALLER SWAP1 DUP3 ISZERO PUSH2 0x8FC MUL SWAP1 DUP4 SWAP1 PUSH1 0x0 DUP2 DUP2 DUP2 DUP6 DUP9 DUP9 CALL SWAP4 POP POP POP POP ISZERO DUP1 ISZERO PUSH2 0x10B8 JUMPI RETURNDATASIZE PUSH1 0x0 DUP1 RETURNDATACOPY RETURNDATASIZE PUSH1 0x0 REVERT JUMPDEST POP JUMPDEST DUP5 SLOAD PUSH1 0x40 MLOAD PUSH1 0x1 PUSH1 0x1 PUSH1 0xA0 SHL SUB SWAP1 SWAP2 AND SWAP1 DUP4 ISZERO PUSH2 0x8FC MUL SWAP1 DUP5 SWAP1 PUSH1 0x0 DUP2 DUP2 DUP2 DUP6 DUP9 DUP9 CALL SWAP4 POP POP POP POP ISZERO DUP1 ISZERO PUSH2 0x10F3 JUMPI RETURNDATASIZE PUSH1 0x0 DUP1 RETURNDATACOPY RETURNDATASIZE PUSH1 0x0 REVERT JUMPDEST POP PUSH1 0x40 MLOAD CALLER SWAP1 PUSH1 0x1 PUSH1 0x1 PUSH1 0xA0 SHL SUB DUP10 AND SWAP1 PUSH32 0xA12A76E3489E01490944982156E006CCDF24101E35463342943C1B0D069EF07E SWAP1 PUSH1 0x0 SWAP1 LOG3 POP POP POP POP POP POP POP JUMP JUMPDEST PUSH1 0x0 DUP1 PUSH2 0x113E PUSH2 0x11E5 JUMP JUMPDEST PUSH1 0x1 PUSH1 0x1 PUSH1 0xA0 SHL SUB DUP5 AND PUSH1 0x0 SWAP1 DUP2 MSTORE PUSH1 0x20 DUP3 SWAP1 MSTORE PUSH1 0x40 DUP2 KECCAK256 PUSH1 0x1 DUP2 ADD SLOAD SWAP3 SWAP4 POP SWAP2 PUSH2 0xFFFF AND SWAP1 SUB PUSH2 0x1173 JUMPI POP PUSH1 0x0 SWAP4 SWAP3 POP POP POP JUMP JUMPDEST PUSH1 0x1 DUP2 ADD SLOAD PUSH1 0x0 SWAP1 PUSH2 0x118D SWAP1 PUSH3 0x15180 SWAP1 PUSH2 0xFFFF AND PUSH2 0x15C8 JUMP JUMPDEST DUP3 PUSH1 0x3 ADD SLOAD PUSH2 0x119C SWAP2 SWAP1 PUSH2 0x15E5 JUMP JUMPDEST PUSH1 0x1 DUP4 ADD SLOAD SWAP1 SWAP2 POP PUSH1 0x0 SWAP1 PUSH2 0x11BF SWAP1 PUSH3 0x15180 SWAP1 PUSH3 0x10000 SWAP1 DIV PUSH2 0xFFFF AND PUSH2 0x15C8 JUMP JUMPDEST PUSH2 0x11C9 SWAP1 DUP4 PUSH2 0x15E5 JUMP JUMPDEST SWAP1 POP TIMESTAMP DUP3 LT DUP1 DUP1 ISZERO PUSH2 0x11DA JUMPI POP DUP2 TIMESTAMP LT JUMPDEST SWAP8 SWAP7 POP POP POP POP POP POP POP JUMP JUMPDEST PUSH1 0x40 DUP1 MLOAD DUP1 DUP3 ADD SWAP1 SWAP2 MSTORE PUSH1 0x1A DUP2 MSTORE PUSH32 0x78722E726567697374726174696F6E2E76312E73746F72616765000000000000 PUSH1 0x20 SWAP1 SWAP2 ADD MSTORE PUSH1 0x0 DUP1 PUSH1 0xFF PUSH2 0x124A PUSH1 0x1 PUSH32 0x298BB06B387CF42EF0D699A946970827AF7863E6CEBF6AB1F9EF36AF7A931163 PUSH2 0x1677 JUMP JUMPDEST PUSH1 0x40 MLOAD PUSH1 0x20 ADD PUSH2 0x125C SWAP2 DUP2 MSTORE PUSH1 0x20 ADD SWAP1 JUMP JUMPDEST PUSH1 0x40 DUP1 MLOAD PUSH1 0x1F NOT DUP2 DUP5 SUB ADD DUP2 MSTORE SWAP2 SWAP1 MSTORE DUP1 MLOAD PUSH1 0x20 SWAP1 SWAP2 ADD KECCAK256 AND SWAP3 SWAP2 POP POP JUMP JUMPDEST PUSH1 0x60 DUP2 PUSH1 0x0 JUMPDEST DUP2 MLOAD DUP2 LT ISZERO PUSH2 0x12E4 JUMPI PUSH2 0x12B3 DUP3 DUP3 DUP2 MLOAD DUP2 LT PUSH2 0x129F JUMPI PUSH2 0x129F PUSH2 0x168A JUMP JUMPDEST ADD PUSH1 0x20 ADD MLOAD PUSH1 0x1 PUSH1 0x1 PUSH1 0xF8 SHL SUB NOT AND PUSH2 0x12EB JUMP JUMPDEST DUP3 DUP3 DUP2 MLOAD DUP2 LT PUSH2 0x12C5 JUMPI PUSH2 0x12C5 PUSH2 0x168A JUMP JUMPDEST PUSH1 0x20 ADD ADD SWAP1 PUSH1 0x1 PUSH1 0x1 PUSH1 0xF8 SHL SUB NOT AND SWAP1 DUP2 PUSH1 0x0 BYTE SWAP1 MSTORE8 POP PUSH1 0x1 ADD PUSH2 0x1281 JUMP JUMPDEST POP SWAP3 SWAP2 POP POP JUMP JUMPDEST PUSH1 0x0 PUSH1 0x41 PUSH1 0xF8 SHL PUSH1 0x1 PUSH1 0x1 PUSH1 0xF8 SHL SUB NOT DUP4 AND LT DUP1 ISZERO SWAP1 PUSH2 0x1319 JUMPI POP PUSH1 0x2D PUSH1 0xF9 SHL PUSH1 0x1 PUSH1 0x1 PUSH1 0xF8 SHL SUB NOT DUP4 AND GT ISZERO JUMPDEST ISZERO PUSH2 0x1336 JUMPI PUSH2 0x132D PUSH1 0xF8 DUP4 SWAP1 SHR PUSH1 0x20 PUSH2 0x16A0 JUMP JUMPDEST PUSH1 0xF8 SHL SWAP3 SWAP2 POP POP JUMP JUMPDEST POP SWAP1 JUMP JUMPDEST PUSH1 0x1 PUSH1 0x1 PUSH1 0xA0 SHL SUB DUP2 AND DUP2 EQ PUSH2 0x134F JUMPI PUSH1 0x0 DUP1 REVERT JUMPDEST POP JUMP JUMPDEST PUSH1 0x0 PUSH1 0x20 DUP3 DUP5 SUB SLT ISZERO PUSH2 0x1364 JUMPI PUSH1 0x0 DUP1 REVERT JUMPDEST DUP2 CALLDATALOAD PUSH2 0x136F DUP2 PUSH2 0x133A JUMP JUMPDEST SWAP4 SWAP3 POP POP POP JUMP JUMPDEST PUSH1 0x0 DUP1 PUSH1 0x0 PUSH1 0x40 DUP5 DUP7 SUB SLT ISZERO PUSH2 0x138B JUMPI PUSH1 0x0 DUP1 REVERT JUMPDEST DUP4 CALLDATALOAD PUSH2 0x1396 DUP2 PUSH2 0x133A JUMP JUMPDEST SWAP3 POP PUSH1 0x20 DUP5 ADD CALLDATALOAD PUSH8 0xFFFFFFFFFFFFFFFF DUP1 DUP3 GT ISZERO PUSH2 0x13B3 JUMPI PUSH1 0x0 DUP1 REVERT JUMPDEST DUP2 DUP7 ADD SWAP2 POP DUP7 PUSH1 0x1F DUP4 ADD SLT PUSH2 0x13C7 JUMPI PUSH1 0x0 DUP1 REVERT JUMPDEST DUP2 CALLDATALOAD DUP2 DUP2 GT ISZERO PUSH2 0x13D6 JUMPI PUSH1 0x0 DUP1 REVERT JUMPDEST DUP8 PUSH1 0x20 DUP3 DUP6 ADD ADD GT ISZERO PUSH2 0x13E8 JUMPI PUSH1 0x0 DUP1 REVERT JUMPDEST PUSH1 0x20 DUP4 ADD SWAP5 POP DUP1 SWAP4 POP POP POP POP SWAP3 POP SWAP3 POP SWAP3 JUMP JUMPDEST PUSH1 0x0 JUMPDEST DUP4 DUP2 LT ISZERO PUSH2 0x1416 JUMPI DUP2 DUP2 ADD MLOAD DUP4 DUP3 ADD MSTORE PUSH1 0x20 ADD PUSH2 0x13FE JUMP JUMPDEST POP POP PUSH1 0x0 SWAP2 ADD MSTORE JUMP JUMPDEST PUSH1 0x20 DUP2 MSTORE PUSH1 0x0 DUP3 MLOAD DUP1 PUSH1 0x20 DUP5 ADD MSTORE PUSH2 0x143E DUP2 PUSH1 0x40 DUP6 ADD PUSH1 0x20 DUP8 ADD PUSH2 0x13FB JUMP JUMPDEST PUSH1 0x1F ADD PUSH1 0x1F NOT AND SWAP2 SWAP1 SWAP2 ADD PUSH1 0x40 ADD SWAP3 SWAP2 POP POP JUMP JUMPDEST PUSH4 0x4E487B71 PUSH1 0xE0 SHL PUSH1 0x0 MSTORE PUSH1 0x41 PUSH1 0x4 MSTORE PUSH1 0x24 PUSH1 0x0 REVERT JUMPDEST PUSH1 0x0 PUSH1 0x20 DUP3 DUP5 SUB SLT ISZERO PUSH2 0x147A JUMPI PUSH1 0x0 DUP1 REVERT JUMPDEST DUP2 MLOAD PUSH8 0xFFFFFFFFFFFFFFFF DUP1 DUP3 GT ISZERO PUSH2 0x1492 JUMPI PUSH1 0x0 DUP1 REVERT JUMPDEST DUP2 DUP5 ADD SWAP2 POP DUP5 PUSH1 0x1F DUP4 ADD SLT PUSH2 0x14A6 JUMPI PUSH1 0x0 DUP1 REVERT JUMPDEST DUP2 MLOAD DUP2 DUP2 GT ISZERO PUSH2 0x14B8 JUMPI PUSH2 0x14B8 PUSH2 0x1452 JUMP JUMPDEST PUSH1 0x40 MLOAD PUSH1 0x1F DUP3 ADD PUSH1 0x1F NOT SWAP1 DUP2 AND PUSH1 0x3F ADD AND DUP2 ADD SWAP1 DUP4 DUP3 GT DUP2 DUP4 LT OR ISZERO PUSH2 0x14E0 JUMPI PUSH2 0x14E0 PUSH2 0x1452 JUMP JUMPDEST DUP2 PUSH1 0x40 MSTORE DUP3 DUP2 MSTORE DUP8 PUSH1 0x20 DUP5 DUP8 ADD ADD GT ISZERO PUSH2 0x14F9 JUMPI PUSH1 0x0 DUP1 REVERT JUMPDEST PUSH2 0x11DA DUP4 PUSH1 0x20 DUP4 ADD PUSH1 0x20 DUP9 ADD PUSH2 0x13FB JUMP JUMPDEST PUSH1 0x0 DUP3 MLOAD PUSH2 0x151C DUP2 DUP5 PUSH1 0x20 DUP8 ADD PUSH2 0x13FB JUMP JUMPDEST SWAP2 SWAP1 SWAP2 ADD SWAP3 SWAP2 POP POP JUMP JUMPDEST PUSH1 0x20 DUP1 DUP3 MSTORE PUSH1 0x3C SWAP1 DUP3 ADD MSTORE PUSH32 0x456E7469747952656D6F76616C3A2063616C6C6572206973206E6F7420746865 PUSH1 0x40 DUP3 ADD MSTORE PUSH32 0x20656E74697479277320726567697374726174696F6E206F776E657200000000 PUSH1 0x60 DUP3 ADD MSTORE PUSH1 0x80 ADD SWAP1 JUMP JUMPDEST PUSH1 0x20 DUP2 MSTORE DUP2 PUSH1 0x20 DUP3 ADD MSTORE DUP2 DUP4 PUSH1 0x40 DUP4 ADD CALLDATACOPY PUSH1 0x0 DUP2 DUP4 ADD PUSH1 0x40 SWAP1 DUP2 ADD SWAP2 SWAP1 SWAP2 MSTORE PUSH1 0x1F SWAP1 SWAP3 ADD PUSH1 0x1F NOT AND ADD ADD SWAP2 SWAP1 POP JUMP JUMPDEST PUSH4 0x4E487B71 PUSH1 0xE0 SHL PUSH1 0x0 MSTORE PUSH1 0x11 PUSH1 0x4 MSTORE PUSH1 0x24 PUSH1 0x0 REVERT JUMPDEST DUP1 DUP3 MUL DUP2 ISZERO DUP3 DUP3 DIV DUP5 EQ OR PUSH2 0x15DF JUMPI PUSH2 0x15DF PUSH2 0x15B2 JUMP JUMPDEST SWAP3 SWAP2 POP POP JUMP JUMPDEST DUP1 DUP3 ADD DUP1 DUP3 GT ISZERO PUSH2 0x15DF JUMPI PUSH2 0x15DF PUSH2 0x15B2 JUMP JUMPDEST DUP1 MLOAD PUSH2 0xFFFF DUP2 AND DUP2 EQ PUSH2 0x160A JUMPI PUSH1 0x0 DUP1 REVERT JUMPDEST SWAP2 SWAP1 POP JUMP JUMPDEST PUSH1 0x0 PUSH1 0x60 DUP3 DUP5 SUB SLT ISZERO PUSH2 0x1621 JUMPI PUSH1 0x0 DUP1 REVERT JUMPDEST PUSH1 0x40 MLOAD PUSH1 0x60 DUP2 ADD DUP2 DUP2 LT PUSH8 0xFFFFFFFFFFFFFFFF DUP3 GT OR ISZERO PUSH2 0x1644 JUMPI PUSH2 0x1644 PUSH2 0x1452 JUMP JUMPDEST PUSH1 0x40 MSTORE PUSH2 0x1650 DUP4 PUSH2 0x15F8 JUMP JUMPDEST DUP2 MSTORE PUSH2 0x165E PUSH1 0x20 DUP5 ADD PUSH2 0x15F8 JUMP JUMPDEST PUSH1 0x20 DUP3 ADD MSTORE PUSH1 0x40 DUP4 ADD MLOAD PUSH1 0x40 DUP3 ADD MSTORE DUP1 SWAP2 POP POP SWAP3 SWAP2 POP POP JUMP JUMPDEST DUP2 DUP2 SUB DUP2 DUP2 GT ISZERO PUSH2 0x15DF JUMPI PUSH2 0x15DF PUSH2 0x15B2 JUMP JUMPDEST PUSH4 0x4E487B71 PUSH1 0xE0 SHL PUSH1 0x0 MSTORE PUSH1 0x32 PUSH1 0x4 MSTORE PUSH1 0x24 PUSH1 0x0 REVERT JUMPDEST PUSH1 0xFF DUP2 DUP2 AND DUP4 DUP3 AND ADD SWAP1 DUP2 GT ISZERO PUSH2 0x15DF JUMPI PUSH2 0x15DF PUSH2 0x15B2 JUMP INVALID LOG2 PUSH5 0x6970667358 0x22 SLT KECCAK256 PREVRANDAO PUSH28 0xD2B9B4FFB1A8E64C45EDBB3E542B12D341C44447E5288E18670777B5 SHL BLOCKHASH PUSH5 0x736F6C6343 STOP ADDMOD XOR STOP CALLER "
        },
        "methodIdentifiers": {
          "canBeDeactivated(address)": "b6db923d",
          "canBeRemoved(address)": "a8c88c17",
          "deactivateEntity(address,string)": "033a5b60",
          "enforceDeactivation(address)": "4ae134cc",
          "enforceRemoval(address)": "01f24230",
          "getExpiration(address)": "4ec70a48",
          "getLastRenewal(address)": "5726c94e",
          "isExpired(address)": "ba2eb541",
          "isInGracePeriod(address)": "e2482bf9",
          "name()": "06fdde03",
          "reactivateEntity(address)": "693c79b2",
          "removeEntity(address,string)": "af08d53d",
          "renewEntity(address)": "d6fbe020",
          "version()": "54fd4d50"
        }
      }
    }
  }
}