{
  "contracts/modules/registry/control-change/ControlChangeModule.sol": {
    "ControlChangeModule": {
      "abi": [
        {
          "inputs": [
            {
              "internalType": "address",
              "name": "_moduleRegistry",
              "type": "address"
            }
          ],
          "stateMutability": "nonpayable",
          "type": "constructor"
        },
        {
          "inputs": [],
          "name": "ECDSAInvalidSignature",
          "type": "error"
        },
        {
          "inputs": [
            {
              "internalType": "uint256",
              "name": "length",
              "type": "uint256"
            }
          ],
          "name": "ECDSAInvalidSignatureLength",
          "type": "error"
        },
        {
          "inputs": [
            {
              "internalType": "bytes32",
              "name": "s",
              "type": "bytes32"
            }
          ],
          "name": "ECDSAInvalidSignatureS",
          "type": "error"
        },
        {
          "anonymous": false,
          "inputs": [
            {
              "indexed": true,
              "internalType": "address",
              "name": "entity",
              "type": "address"
            },
            {
              "indexed": true,
              "internalType": "address",
              "name": "newController",
              "type": "address"
            }
          ],
          "name": "ControllerChanged",
          "type": "event"
        },
        {
          "inputs": [],
          "name": "DAY",
          "outputs": [
            {
              "internalType": "uint256",
              "name": "",
              "type": "uint256"
            }
          ],
          "stateMutability": "view",
          "type": "function"
        },
        {
          "inputs": [
            {
              "components": [
                {
                  "internalType": "address",
                  "name": "entity",
                  "type": "address"
                },
                {
                  "internalType": "bytes",
                  "name": "oldControllerSignature",
                  "type": "bytes"
                },
                {
                  "internalType": "bytes",
                  "name": "entitySignature",
                  "type": "bytes"
                },
                {
                  "internalType": "uint256",
                  "name": "expiration",
                  "type": "uint256"
                }
              ],
              "internalType": "struct ChangeControllerArgsNoTerms",
              "name": "args",
              "type": "tuple"
            }
          ],
          "name": "changeControllerNoTerms",
          "outputs": [],
          "stateMutability": "nonpayable",
          "type": "function"
        },
        {
          "inputs": [
            {
              "components": [
                {
                  "internalType": "address",
                  "name": "entity",
                  "type": "address"
                },
                {
                  "internalType": "bytes",
                  "name": "oldControllerSignature",
                  "type": "bytes"
                },
                {
                  "internalType": "bytes",
                  "name": "entitySignature",
                  "type": "bytes"
                },
                {
                  "internalType": "uint256",
                  "name": "expiration",
                  "type": "uint256"
                },
                {
                  "components": [
                    {
                      "internalType": "uint256",
                      "name": "fee",
                      "type": "uint256"
                    },
                    {
                      "internalType": "uint256",
                      "name": "coveragePeriodDays",
                      "type": "uint256"
                    },
                    {
                      "internalType": "uint256",
                      "name": "gracePeriodDays",
                      "type": "uint256"
                    }
                  ],
                  "internalType": "struct RegistrationTerms",
                  "name": "terms",
                  "type": "tuple"
                }
              ],
              "internalType": "struct ChangeControllerArgsWithTerms",
              "name": "args",
              "type": "tuple"
            }
          ],
          "name": "changeControllerWithTerms",
          "outputs": [],
          "stateMutability": "nonpayable",
          "type": "function"
        },
        {
          "inputs": [],
          "name": "name",
          "outputs": [
            {
              "internalType": "string",
              "name": "",
              "type": "string"
            }
          ],
          "stateMutability": "view",
          "type": "function"
        },
        {
          "inputs": [],
          "name": "version",
          "outputs": [
            {
              "components": [
                {
                  "internalType": "uint16",
                  "name": "major",
                  "type": "uint16"
                },
                {
                  "internalType": "uint16",
                  "name": "minor",
                  "type": "uint16"
                }
              ],
              "internalType": "struct ModuleVersion",
              "name": "",
              "type": "tuple"
            }
          ],
          "stateMutability": "pure",
          "type": "function"
        }
      ],
      "evm": {
        "bytecode": {
          "linkReferences": {},
          "object": "60a060405234801561001057600080fd5b506040516111b33803806111b383398101604081905261002f916100c0565b6001600160a01b0381166100af5760405162461bcd60e51b815260206004820152603b60248201527f456e7469747952656d6f76616c4d6f64756c653a206d6f64756c65207265676960448201527f737472792063616e6e6f74206265207a65726f20616464726573730000000000606482015260840160405180910390fd5b6001600160a01b03166080526100f0565b6000602082840312156100d257600080fd5b81516001600160a01b03811681146100e957600080fd5b9392505050565b6080516110ab610108600039600050506110ab6000f3fe608060405234801561001057600080fd5b50600436106100575760003560e01c806306fdde031461005c57806327cfe8561461009f578063541b160d146100b757806354fd4d50146100cc578063e35a67bb1461010c575b600080fd5b6100896040518060400160405280600e81526020016d49436f6e74726f6c4368616e676560901b81525081565b6040516100969190610d4f565b60405180910390f35b6100a96201518081565b604051908152602001610096565b6100ca6100c5366004610d82565b61011f565b005b604080518082018252600080825260209182018190528251808401845260018082529083019182528351908152905161ffff169181019190915201610096565b6100ca61011a366004610dc4565b6101ca565b61012881610261565b6000610132610575565b9050600081816101456020860186610dff565b6001600160a01b03168152602080820192909252604001600090812080546001600160a01b031916339081178255426004830155600582019290925592509061019090850185610dff565b6001600160a01b03167f6aef1fb5b23d0e109fc7f2b0601019e1edbacd177e31a441ec8548e8dd14f0f760405160405180910390a3505050565b6101d38161060b565b60006101dd610575565b9050600081816101f06020860186610dff565b6001600160a01b03168152602081019190915260400160002080546001600160a01b031916331781559050608083016001820161024482828135815560208201356001820155604082013560028201555050565b505042600482015560006005820155336101906020850185610dff565b4281606001351161028d5760405162461bcd60e51b815260040161028490610e28565b60405180910390fd5b6000610297610575565b9050600081816102aa6020860186610dff565b6001600160a01b039081168252602080830193909352604090910160009081208054909450909116916102df90860186610dff565b604080516001600160a01b03909216602083015233908201526060808701359082015260800160408051808303601f19018152828252805160209182012081845283830190925290925060009190602082018180368337019050509050816020820152600061034d82610980565b905061035c6020880188610e84565b90506000036103e957836001600160a01b0316634f05c1c86040518163ffffffff1660e01b8152600401602060405180830381865afa1580156103a3573d6000803e3d6000fd5b505050506040513d601f19601f820116820180604052508101906103c79190610ed2565b156103e45760405162461bcd60e51b815260040161028490610ef4565b6104c1565b6000610436826103fc60208b018b610e84565b8080601f0160208091040260200160405190810160405280939291908181526020018383808284376000920191909152506109bb92505050565b6040516253f74560e51b81526001600160a01b03808316600483015291925090861690630a7ee8a090602401602060405180830381865afa15801561047f573d6000803e3d6000fd5b505050506040513d601f19601f820116820180604052508101906104a39190610ed2565b6104bf5760405162461bcd60e51b815260040161028490610f52565b505b60006104d4826103fc60408b018b610e84565b90506104e36020890189610dff565b604051637df73e2760e01b81526001600160a01b0383811660048301529190911690637df73e2790602401602060405180830381865afa15801561052b573d6000803e3d6000fd5b505050506040513d601f19601f8201168201806040525081019061054f9190610ed2565b61056b5760405162461bcd60e51b815260040161028490610fa0565b5050505050505050565b60408051808201909152601a81527f78722e726567697374726174696f6e2e76312e73746f7261676500000000000060209091015260008060ff6105da60017f298bb06b387cf42ef0d699a946970827af7863e6cebf6ab1f9ef36af7a931163610fe3565b6040516020016105ec91815260200190565b60408051601f1981840301815291905280516020909101201692915050565b4281606001351161062e5760405162461bcd60e51b815260040161028490610e28565b6000610638610575565b90506000818161064b6020860186610dff565b6001600160a01b0390811682526020808301939093526040909101600090812080549094509091169161068090860186610dff565b604080516001600160a01b0390921660208301523390820152606086810135908201526080808701359082015260a0808701359082015260c0808701359082015260e00160408051601f19818403018152919052805160209182012091506000906106ed90870187610dff565b604080516001600160a01b03909216602083015233908201526060808801359082015260800160408051808303601f19018152828252805160209182012081845283830190925290925060009190602082018180368337505060408051602080825281830190925292935060009291508082018180368337019050509050836020830152826020820152600061078283610980565b9050600061078f83610980565b905061079e60208b018b610e84565b905060000361082b57866001600160a01b0316634f05c1c86040518163ffffffff1660e01b8152600401602060405180830381865afa1580156107e5573d6000803e3d6000fd5b505050506040513d601f19601f820116820180604052508101906108099190610ed2565b156108265760405162461bcd60e51b815260040161028490610ef4565b6108c9565b600061083e826103fc60208e018e610e84565b6040516253f74560e51b81526001600160a01b03808316600483015291925090891690630a7ee8a090602401602060405180830381865afa158015610887573d6000803e3d6000fd5b505050506040513d601f19601f820116820180604052508101906108ab9190610ed2565b6108c75760405162461bcd60e51b815260040161028490610f52565b505b60006108dc836103fc60408e018e610e84565b90506108eb60208c018c610dff565b604051637df73e2760e01b81526001600160a01b0383811660048301529190911690637df73e2790602401602060405180830381865afa158015610933573d6000803e3d6000fd5b505050506040513d601f19601f820116820180604052508101906109579190610ed2565b6109735760405162461bcd60e51b815260040161028490610fa0565b5050505050505050505050565b600061098c82516109e7565b8260405160200161099e929190611004565b604051602081830303815290604052805190602001209050919050565b6000806000806109cb8686610a7a565b9250925092506109db8282610ac7565b50909150505b92915050565b606060006109f483610b84565b600101905060008167ffffffffffffffff811115610a1457610a14610e6e565b6040519080825280601f01601f191660200182016040528015610a3e576020820181803683370190505b5090508181016020015b600019016f181899199a1a9b1b9c1cb0b131b232b360811b600a86061a8153600a8504945084610a4857509392505050565b60008060008351604103610ab45760208401516040850151606086015160001a610aa688828585610c5c565b955095509550505050610ac0565b50508151600091506002905b9250925092565b6000826003811115610adb57610adb61105f565b03610ae4575050565b6001826003811115610af857610af861105f565b03610b165760405163f645eedf60e01b815260040160405180910390fd5b6002826003811115610b2a57610b2a61105f565b03610b4b5760405163fce698f760e01b815260048101829052602401610284565b6003826003811115610b5f57610b5f61105f565b03610b80576040516335e2f38360e21b815260048101829052602401610284565b5050565b60008072184f03e93ff9f4daa797ed6e38ed64bf6a1f0160401b8310610bc35772184f03e93ff9f4daa797ed6e38ed64bf6a1f0160401b830492506040015b6d04ee2d6d415b85acef81000000008310610bef576d04ee2d6d415b85acef8100000000830492506020015b662386f26fc100008310610c0d57662386f26fc10000830492506010015b6305f5e1008310610c25576305f5e100830492506008015b6127108310610c3957612710830492506004015b60648310610c4b576064830492506002015b600a83106109e15760010192915050565b600080807f7fffffffffffffffffffffffffffffff5d576e7357a4501ddfe92f46681b20a0841115610c975750600091506003905082610d21565b604080516000808252602082018084528a905260ff891692820192909252606081018790526080810186905260019060a0016020604051602081039080840390855afa158015610ceb573d6000803e3d6000fd5b5050604051601f1901519150506001600160a01b038116610d1757506000925060019150829050610d21565b9250600091508190505b9450945094915050565b60005b83811015610d46578181015183820152602001610d2e565b50506000910152565b6020815260008251806020840152610d6e816040850160208701610d2b565b601f01601f19169190910160400192915050565b600060208284031215610d9457600080fd5b813567ffffffffffffffff811115610dab57600080fd5b820160808185031215610dbd57600080fd5b9392505050565b600060208284031215610dd657600080fd5b813567ffffffffffffffff811115610ded57600080fd5b820160e08185031215610dbd57600080fd5b600060208284031215610e1157600080fd5b81356001600160a01b0381168114610dbd57600080fd5b60208082526026908201527f5265676973747261723a206d6967726174696f6e207369676e617475726520656040820152651e1c1a5c995960d21b606082015260800190565b634e487b7160e01b600052604160045260246000fd5b6000808335601e19843603018112610e9b57600080fd5b83018035915067ffffffffffffffff821115610eb657600080fd5b602001915036819003821315610ecb57600080fd5b9250929050565b600060208284031215610ee457600080fd5b81518015158114610dbd57600080fd5b602080825260409082018190527f5265676973747261723a2063757272656e742072656769737472617220697320908201527f61637469766520627574206e6f207369676e61747572652070726f7669646564606082015260800190565b6020808252602e908201527f5265676973747261723a2063757272656e74207265676973747261722073696760408201526d1b985d1d5c99481a5b9d985b1a5960921b606082015260800190565b60208082526023908201527f5265676973747261723a20656e74697479207369676e617475726520696e76616040820152621b1a5960ea1b606082015260800190565b818103818111156109e157634e487b7160e01b600052601160045260246000fd5b7f19457468657265756d205369676e6564204d6573736167653a0a00000000000081526000835161103c81601a850160208801610d2b565b83519083019061105381601a840160208801610d2b565b01601a01949350505050565b634e487b7160e01b600052602160045260246000fdfea2646970667358221220bc59163b42956019c433a8a0ad175157a5179dcd003e9ca597657eb007ca765664736f6c63430008180033",
          "opcodes": "PUSH1 0xA0 PUSH1 0x40 MSTORE CALLVALUE DUP1 ISZERO PUSH2 0x10 JUMPI PUSH1 0x0 DUP1 REVERT JUMPDEST POP PUSH1 0x40 MLOAD PUSH2 0x11B3 CODESIZE SUB DUP1 PUSH2 0x11B3 DUP4 CODECOPY DUP2 ADD PUSH1 0x40 DUP2 SWAP1 MSTORE PUSH2 0x2F SWAP2 PUSH2 0xC0 JUMP JUMPDEST PUSH1 0x1 PUSH1 0x1 PUSH1 0xA0 SHL SUB DUP2 AND PUSH2 0xAF JUMPI PUSH1 0x40 MLOAD PUSH3 0x461BCD PUSH1 0xE5 SHL DUP2 MSTORE PUSH1 0x20 PUSH1 0x4 DUP3 ADD MSTORE PUSH1 0x3B PUSH1 0x24 DUP3 ADD MSTORE PUSH32 0x456E7469747952656D6F76616C4D6F64756C653A206D6F64756C652072656769 PUSH1 0x44 DUP3 ADD MSTORE PUSH32 0x737472792063616E6E6F74206265207A65726F20616464726573730000000000 PUSH1 0x64 DUP3 ADD MSTORE PUSH1 0x84 ADD PUSH1 0x40 MLOAD DUP1 SWAP2 SUB SWAP1 REVERT JUMPDEST PUSH1 0x1 PUSH1 0x1 PUSH1 0xA0 SHL SUB AND PUSH1 0x80 MSTORE PUSH2 0xF0 JUMP JUMPDEST PUSH1 0x0 PUSH1 0x20 DUP3 DUP5 SUB SLT ISZERO PUSH2 0xD2 JUMPI PUSH1 0x0 DUP1 REVERT JUMPDEST DUP2 MLOAD PUSH1 0x1 PUSH1 0x1 PUSH1 0xA0 SHL SUB DUP2 AND DUP2 EQ PUSH2 0xE9 JUMPI PUSH1 0x0 DUP1 REVERT JUMPDEST SWAP4 SWAP3 POP POP POP JUMP JUMPDEST PUSH1 0x80 MLOAD PUSH2 0x10AB PUSH2 0x108 PUSH1 0x0 CODECOPY PUSH1 0x0 POP POP PUSH2 0x10AB PUSH1 0x0 RETURN INVALID PUSH1 0x80 PUSH1 0x40 MSTORE CALLVALUE DUP1 ISZERO PUSH2 0x10 JUMPI PUSH1 0x0 DUP1 REVERT JUMPDEST POP PUSH1 0x4 CALLDATASIZE LT PUSH2 0x57 JUMPI PUSH1 0x0 CALLDATALOAD PUSH1 0xE0 SHR DUP1 PUSH4 0x6FDDE03 EQ PUSH2 0x5C JUMPI DUP1 PUSH4 0x27CFE856 EQ PUSH2 0x9F JUMPI DUP1 PUSH4 0x541B160D EQ PUSH2 0xB7 JUMPI DUP1 PUSH4 0x54FD4D50 EQ PUSH2 0xCC JUMPI DUP1 PUSH4 0xE35A67BB EQ PUSH2 0x10C JUMPI JUMPDEST PUSH1 0x0 DUP1 REVERT JUMPDEST PUSH2 0x89 PUSH1 0x40 MLOAD DUP1 PUSH1 0x40 ADD PUSH1 0x40 MSTORE DUP1 PUSH1 0xE DUP2 MSTORE PUSH1 0x20 ADD PUSH14 0x49436F6E74726F6C4368616E6765 PUSH1 0x90 SHL DUP2 MSTORE POP DUP2 JUMP JUMPDEST PUSH1 0x40 MLOAD PUSH2 0x96 SWAP2 SWAP1 PUSH2 0xD4F JUMP JUMPDEST PUSH1 0x40 MLOAD DUP1 SWAP2 SUB SWAP1 RETURN JUMPDEST PUSH2 0xA9 PUSH3 0x15180 DUP2 JUMP JUMPDEST PUSH1 0x40 MLOAD SWAP1 DUP2 MSTORE PUSH1 0x20 ADD PUSH2 0x96 JUMP JUMPDEST PUSH2 0xCA PUSH2 0xC5 CALLDATASIZE PUSH1 0x4 PUSH2 0xD82 JUMP JUMPDEST PUSH2 0x11F JUMP JUMPDEST STOP JUMPDEST PUSH1 0x40 DUP1 MLOAD DUP1 DUP3 ADD DUP3 MSTORE PUSH1 0x0 DUP1 DUP3 MSTORE PUSH1 0x20 SWAP2 DUP3 ADD DUP2 SWAP1 MSTORE DUP3 MLOAD DUP1 DUP5 ADD DUP5 MSTORE PUSH1 0x1 DUP1 DUP3 MSTORE SWAP1 DUP4 ADD SWAP2 DUP3 MSTORE DUP4 MLOAD SWAP1 DUP2 MSTORE SWAP1 MLOAD PUSH2 0xFFFF AND SWAP2 DUP2 ADD SWAP2 SWAP1 SWAP2 MSTORE ADD PUSH2 0x96 JUMP JUMPDEST PUSH2 0xCA PUSH2 0x11A CALLDATASIZE PUSH1 0x4 PUSH2 0xDC4 JUMP JUMPDEST PUSH2 0x1CA JUMP JUMPDEST PUSH2 0x128 DUP2 PUSH2 0x261 JUMP JUMPDEST PUSH1 0x0 PUSH2 0x132 PUSH2 0x575 JUMP JUMPDEST SWAP1 POP PUSH1 0x0 DUP2 DUP2 PUSH2 0x145 PUSH1 0x20 DUP7 ADD DUP7 PUSH2 0xDFF JUMP JUMPDEST PUSH1 0x1 PUSH1 0x1 PUSH1 0xA0 SHL SUB AND DUP2 MSTORE PUSH1 0x20 DUP1 DUP3 ADD SWAP3 SWAP1 SWAP3 MSTORE PUSH1 0x40 ADD PUSH1 0x0 SWAP1 DUP2 KECCAK256 DUP1 SLOAD PUSH1 0x1 PUSH1 0x1 PUSH1 0xA0 SHL SUB NOT AND CALLER SWAP1 DUP2 OR DUP3 SSTORE TIMESTAMP PUSH1 0x4 DUP4 ADD SSTORE PUSH1 0x5 DUP3 ADD SWAP3 SWAP1 SWAP3 SSTORE SWAP3 POP SWAP1 PUSH2 0x190 SWAP1 DUP6 ADD DUP6 PUSH2 0xDFF JUMP JUMPDEST PUSH1 0x1 PUSH1 0x1 PUSH1 0xA0 SHL SUB AND PUSH32 0x6AEF1FB5B23D0E109FC7F2B0601019E1EDBACD177E31A441EC8548E8DD14F0F7 PUSH1 0x40 MLOAD PUSH1 0x40 MLOAD DUP1 SWAP2 SUB SWAP1 LOG3 POP POP POP JUMP JUMPDEST PUSH2 0x1D3 DUP2 PUSH2 0x60B JUMP JUMPDEST PUSH1 0x0 PUSH2 0x1DD PUSH2 0x575 JUMP JUMPDEST SWAP1 POP PUSH1 0x0 DUP2 DUP2 PUSH2 0x1F0 PUSH1 0x20 DUP7 ADD DUP7 PUSH2 0xDFF JUMP JUMPDEST PUSH1 0x1 PUSH1 0x1 PUSH1 0xA0 SHL SUB AND DUP2 MSTORE PUSH1 0x20 DUP2 ADD SWAP2 SWAP1 SWAP2 MSTORE PUSH1 0x40 ADD PUSH1 0x0 KECCAK256 DUP1 SLOAD PUSH1 0x1 PUSH1 0x1 PUSH1 0xA0 SHL SUB NOT AND CALLER OR DUP2 SSTORE SWAP1 POP PUSH1 0x80 DUP4 ADD PUSH1 0x1 DUP3 ADD PUSH2 0x244 DUP3 DUP3 DUP2 CALLDATALOAD DUP2 SSTORE PUSH1 0x20 DUP3 ADD CALLDATALOAD PUSH1 0x1 DUP3 ADD SSTORE PUSH1 0x40 DUP3 ADD CALLDATALOAD PUSH1 0x2 DUP3 ADD SSTORE POP POP JUMP JUMPDEST POP POP TIMESTAMP PUSH1 0x4 DUP3 ADD SSTORE PUSH1 0x0 PUSH1 0x5 DUP3 ADD SSTORE CALLER PUSH2 0x190 PUSH1 0x20 DUP6 ADD DUP6 PUSH2 0xDFF JUMP JUMPDEST TIMESTAMP DUP2 PUSH1 0x60 ADD CALLDATALOAD GT PUSH2 0x28D JUMPI PUSH1 0x40 MLOAD PUSH3 0x461BCD PUSH1 0xE5 SHL DUP2 MSTORE PUSH1 0x4 ADD PUSH2 0x284 SWAP1 PUSH2 0xE28 JUMP JUMPDEST PUSH1 0x40 MLOAD DUP1 SWAP2 SUB SWAP1 REVERT JUMPDEST PUSH1 0x0 PUSH2 0x297 PUSH2 0x575 JUMP JUMPDEST SWAP1 POP PUSH1 0x0 DUP2 DUP2 PUSH2 0x2AA PUSH1 0x20 DUP7 ADD DUP7 PUSH2 0xDFF JUMP JUMPDEST PUSH1 0x1 PUSH1 0x1 PUSH1 0xA0 SHL SUB SWAP1 DUP2 AND DUP3 MSTORE PUSH1 0x20 DUP1 DUP4 ADD SWAP4 SWAP1 SWAP4 MSTORE PUSH1 0x40 SWAP1 SWAP2 ADD PUSH1 0x0 SWAP1 DUP2 KECCAK256 DUP1 SLOAD SWAP1 SWAP5 POP SWAP1 SWAP2 AND SWAP2 PUSH2 0x2DF SWAP1 DUP7 ADD DUP7 PUSH2 0xDFF JUMP JUMPDEST PUSH1 0x40 DUP1 MLOAD PUSH1 0x1 PUSH1 0x1 PUSH1 0xA0 SHL SUB SWAP1 SWAP3 AND PUSH1 0x20 DUP4 ADD MSTORE CALLER SWAP1 DUP3 ADD MSTORE PUSH1 0x60 DUP1 DUP8 ADD CALLDATALOAD SWAP1 DUP3 ADD MSTORE PUSH1 0x80 ADD PUSH1 0x40 DUP1 MLOAD DUP1 DUP4 SUB PUSH1 0x1F NOT ADD DUP2 MSTORE DUP3 DUP3 MSTORE DUP1 MLOAD PUSH1 0x20 SWAP2 DUP3 ADD KECCAK256 DUP2 DUP5 MSTORE DUP4 DUP4 ADD SWAP1 SWAP3 MSTORE SWAP1 SWAP3 POP PUSH1 0x0 SWAP2 SWAP1 PUSH1 0x20 DUP3 ADD DUP2 DUP1 CALLDATASIZE DUP4 CALLDATACOPY ADD SWAP1 POP POP SWAP1 POP DUP2 PUSH1 0x20 DUP3 ADD MSTORE PUSH1 0x0 PUSH2 0x34D DUP3 PUSH2 0x980 JUMP JUMPDEST SWAP1 POP PUSH2 0x35C PUSH1 0x20 DUP9 ADD DUP9 PUSH2 0xE84 JUMP JUMPDEST SWAP1 POP PUSH1 0x0 SUB PUSH2 0x3E9 JUMPI DUP4 PUSH1 0x1 PUSH1 0x1 PUSH1 0xA0 SHL SUB AND PUSH4 0x4F05C1C8 PUSH1 0x40 MLOAD DUP2 PUSH4 0xFFFFFFFF AND PUSH1 0xE0 SHL DUP2 MSTORE PUSH1 0x4 ADD PUSH1 0x20 PUSH1 0x40 MLOAD DUP1 DUP4 SUB DUP2 DUP7 GAS STATICCALL ISZERO DUP1 ISZERO PUSH2 0x3A3 JUMPI RETURNDATASIZE PUSH1 0x0 DUP1 RETURNDATACOPY RETURNDATASIZE PUSH1 0x0 REVERT JUMPDEST POP POP POP POP PUSH1 0x40 MLOAD RETURNDATASIZE PUSH1 0x1F NOT PUSH1 0x1F DUP3 ADD AND DUP3 ADD DUP1 PUSH1 0x40 MSTORE POP DUP2 ADD SWAP1 PUSH2 0x3C7 SWAP2 SWAP1 PUSH2 0xED2 JUMP JUMPDEST ISZERO PUSH2 0x3E4 JUMPI PUSH1 0x40 MLOAD PUSH3 0x461BCD PUSH1 0xE5 SHL DUP2 MSTORE PUSH1 0x4 ADD PUSH2 0x284 SWAP1 PUSH2 0xEF4 JUMP JUMPDEST PUSH2 0x4C1 JUMP JUMPDEST PUSH1 0x0 PUSH2 0x436 DUP3 PUSH2 0x3FC PUSH1 0x20 DUP12 ADD DUP12 PUSH2 0xE84 JUMP JUMPDEST DUP1 DUP1 PUSH1 0x1F ADD PUSH1 0x20 DUP1 SWAP2 DIV MUL PUSH1 0x20 ADD PUSH1 0x40 MLOAD SWAP1 DUP2 ADD PUSH1 0x40 MSTORE DUP1 SWAP4 SWAP3 SWAP2 SWAP1 DUP2 DUP2 MSTORE PUSH1 0x20 ADD DUP4 DUP4 DUP1 DUP3 DUP5 CALLDATACOPY PUSH1 0x0 SWAP3 ADD SWAP2 SWAP1 SWAP2 MSTORE POP PUSH2 0x9BB SWAP3 POP POP POP JUMP JUMPDEST PUSH1 0x40 MLOAD PUSH3 0x53F745 PUSH1 0xE5 SHL DUP2 MSTORE PUSH1 0x1 PUSH1 0x1 PUSH1 0xA0 SHL SUB DUP1 DUP4 AND PUSH1 0x4 DUP4 ADD MSTORE SWAP2 SWAP3 POP SWAP1 DUP7 AND SWAP1 PUSH4 0xA7EE8A0 SWAP1 PUSH1 0x24 ADD PUSH1 0x20 PUSH1 0x40 MLOAD DUP1 DUP4 SUB DUP2 DUP7 GAS STATICCALL ISZERO DUP1 ISZERO PUSH2 0x47F JUMPI RETURNDATASIZE PUSH1 0x0 DUP1 RETURNDATACOPY RETURNDATASIZE PUSH1 0x0 REVERT JUMPDEST POP POP POP POP PUSH1 0x40 MLOAD RETURNDATASIZE PUSH1 0x1F NOT PUSH1 0x1F DUP3 ADD AND DUP3 ADD DUP1 PUSH1 0x40 MSTORE POP DUP2 ADD SWAP1 PUSH2 0x4A3 SWAP2 SWAP1 PUSH2 0xED2 JUMP JUMPDEST PUSH2 0x4BF JUMPI PUSH1 0x40 MLOAD PUSH3 0x461BCD PUSH1 0xE5 SHL DUP2 MSTORE PUSH1 0x4 ADD PUSH2 0x284 SWAP1 PUSH2 0xF52 JUMP JUMPDEST POP JUMPDEST PUSH1 0x0 PUSH2 0x4D4 DUP3 PUSH2 0x3FC PUSH1 0x40 DUP12 ADD DUP12 PUSH2 0xE84 JUMP JUMPDEST SWAP1 POP PUSH2 0x4E3 PUSH1 0x20 DUP10 ADD DUP10 PUSH2 0xDFF JUMP JUMPDEST PUSH1 0x40 MLOAD PUSH4 0x7DF73E27 PUSH1 0xE0 SHL DUP2 MSTORE PUSH1 0x1 PUSH1 0x1 PUSH1 0xA0 SHL SUB DUP4 DUP2 AND PUSH1 0x4 DUP4 ADD MSTORE SWAP2 SWAP1 SWAP2 AND SWAP1 PUSH4 0x7DF73E27 SWAP1 PUSH1 0x24 ADD PUSH1 0x20 PUSH1 0x40 MLOAD DUP1 DUP4 SUB DUP2 DUP7 GAS STATICCALL ISZERO DUP1 ISZERO PUSH2 0x52B JUMPI RETURNDATASIZE PUSH1 0x0 DUP1 RETURNDATACOPY RETURNDATASIZE PUSH1 0x0 REVERT JUMPDEST POP POP POP POP PUSH1 0x40 MLOAD RETURNDATASIZE PUSH1 0x1F NOT PUSH1 0x1F DUP3 ADD AND DUP3 ADD DUP1 PUSH1 0x40 MSTORE POP DUP2 ADD SWAP1 PUSH2 0x54F SWAP2 SWAP1 PUSH2 0xED2 JUMP JUMPDEST PUSH2 0x56B JUMPI PUSH1 0x40 MLOAD PUSH3 0x461BCD PUSH1 0xE5 SHL DUP2 MSTORE PUSH1 0x4 ADD PUSH2 0x284 SWAP1 PUSH2 0xFA0 JUMP JUMPDEST POP POP POP POP POP POP POP POP JUMP JUMPDEST PUSH1 0x40 DUP1 MLOAD DUP1 DUP3 ADD SWAP1 SWAP2 MSTORE PUSH1 0x1A DUP2 MSTORE PUSH32 0x78722E726567697374726174696F6E2E76312E73746F72616765000000000000 PUSH1 0x20 SWAP1 SWAP2 ADD MSTORE PUSH1 0x0 DUP1 PUSH1 0xFF PUSH2 0x5DA PUSH1 0x1 PUSH32 0x298BB06B387CF42EF0D699A946970827AF7863E6CEBF6AB1F9EF36AF7A931163 PUSH2 0xFE3 JUMP JUMPDEST PUSH1 0x40 MLOAD PUSH1 0x20 ADD PUSH2 0x5EC SWAP2 DUP2 MSTORE PUSH1 0x20 ADD SWAP1 JUMP JUMPDEST PUSH1 0x40 DUP1 MLOAD PUSH1 0x1F NOT DUP2 DUP5 SUB ADD DUP2 MSTORE SWAP2 SWAP1 MSTORE DUP1 MLOAD PUSH1 0x20 SWAP1 SWAP2 ADD KECCAK256 AND SWAP3 SWAP2 POP POP JUMP JUMPDEST TIMESTAMP DUP2 PUSH1 0x60 ADD CALLDATALOAD GT PUSH2 0x62E JUMPI PUSH1 0x40 MLOAD PUSH3 0x461BCD PUSH1 0xE5 SHL DUP2 MSTORE PUSH1 0x4 ADD PUSH2 0x284 SWAP1 PUSH2 0xE28 JUMP JUMPDEST PUSH1 0x0 PUSH2 0x638 PUSH2 0x575 JUMP JUMPDEST SWAP1 POP PUSH1 0x0 DUP2 DUP2 PUSH2 0x64B PUSH1 0x20 DUP7 ADD DUP7 PUSH2 0xDFF JUMP JUMPDEST PUSH1 0x1 PUSH1 0x1 PUSH1 0xA0 SHL SUB SWAP1 DUP2 AND DUP3 MSTORE PUSH1 0x20 DUP1 DUP4 ADD SWAP4 SWAP1 SWAP4 MSTORE PUSH1 0x40 SWAP1 SWAP2 ADD PUSH1 0x0 SWAP1 DUP2 KECCAK256 DUP1 SLOAD SWAP1 SWAP5 POP SWAP1 SWAP2 AND SWAP2 PUSH2 0x680 SWAP1 DUP7 ADD DUP7 PUSH2 0xDFF JUMP JUMPDEST PUSH1 0x40 DUP1 MLOAD PUSH1 0x1 PUSH1 0x1 PUSH1 0xA0 SHL SUB SWAP1 SWAP3 AND PUSH1 0x20 DUP4 ADD MSTORE CALLER SWAP1 DUP3 ADD MSTORE PUSH1 0x60 DUP7 DUP2 ADD CALLDATALOAD SWAP1 DUP3 ADD MSTORE PUSH1 0x80 DUP1 DUP8 ADD CALLDATALOAD SWAP1 DUP3 ADD MSTORE PUSH1 0xA0 DUP1 DUP8 ADD CALLDATALOAD SWAP1 DUP3 ADD MSTORE PUSH1 0xC0 DUP1 DUP8 ADD CALLDATALOAD SWAP1 DUP3 ADD MSTORE PUSH1 0xE0 ADD PUSH1 0x40 DUP1 MLOAD PUSH1 0x1F NOT DUP2 DUP5 SUB ADD DUP2 MSTORE SWAP2 SWAP1 MSTORE DUP1 MLOAD PUSH1 0x20 SWAP2 DUP3 ADD KECCAK256 SWAP2 POP PUSH1 0x0 SWAP1 PUSH2 0x6ED SWAP1 DUP8 ADD DUP8 PUSH2 0xDFF JUMP JUMPDEST PUSH1 0x40 DUP1 MLOAD PUSH1 0x1 PUSH1 0x1 PUSH1 0xA0 SHL SUB SWAP1 SWAP3 AND PUSH1 0x20 DUP4 ADD MSTORE CALLER SWAP1 DUP3 ADD MSTORE PUSH1 0x60 DUP1 DUP9 ADD CALLDATALOAD SWAP1 DUP3 ADD MSTORE PUSH1 0x80 ADD PUSH1 0x40 DUP1 MLOAD DUP1 DUP4 SUB PUSH1 0x1F NOT ADD DUP2 MSTORE DUP3 DUP3 MSTORE DUP1 MLOAD PUSH1 0x20 SWAP2 DUP3 ADD KECCAK256 DUP2 DUP5 MSTORE DUP4 DUP4 ADD SWAP1 SWAP3 MSTORE SWAP1 SWAP3 POP PUSH1 0x0 SWAP2 SWAP1 PUSH1 0x20 DUP3 ADD DUP2 DUP1 CALLDATASIZE DUP4 CALLDATACOPY POP POP PUSH1 0x40 DUP1 MLOAD PUSH1 0x20 DUP1 DUP3 MSTORE DUP2 DUP4 ADD SWAP1 SWAP3 MSTORE SWAP3 SWAP4 POP PUSH1 0x0 SWAP3 SWAP2 POP DUP1 DUP3 ADD DUP2 DUP1 CALLDATASIZE DUP4 CALLDATACOPY ADD SWAP1 POP POP SWAP1 POP DUP4 PUSH1 0x20 DUP4 ADD MSTORE DUP3 PUSH1 0x20 DUP3 ADD MSTORE PUSH1 0x0 PUSH2 0x782 DUP4 PUSH2 0x980 JUMP JUMPDEST SWAP1 POP PUSH1 0x0 PUSH2 0x78F DUP4 PUSH2 0x980 JUMP JUMPDEST SWAP1 POP PUSH2 0x79E PUSH1 0x20 DUP12 ADD DUP12 PUSH2 0xE84 JUMP JUMPDEST SWAP1 POP PUSH1 0x0 SUB PUSH2 0x82B JUMPI DUP7 PUSH1 0x1 PUSH1 0x1 PUSH1 0xA0 SHL SUB AND PUSH4 0x4F05C1C8 PUSH1 0x40 MLOAD DUP2 PUSH4 0xFFFFFFFF AND PUSH1 0xE0 SHL DUP2 MSTORE PUSH1 0x4 ADD PUSH1 0x20 PUSH1 0x40 MLOAD DUP1 DUP4 SUB DUP2 DUP7 GAS STATICCALL ISZERO DUP1 ISZERO PUSH2 0x7E5 JUMPI RETURNDATASIZE PUSH1 0x0 DUP1 RETURNDATACOPY RETURNDATASIZE PUSH1 0x0 REVERT JUMPDEST POP POP POP POP PUSH1 0x40 MLOAD RETURNDATASIZE PUSH1 0x1F NOT PUSH1 0x1F DUP3 ADD AND DUP3 ADD DUP1 PUSH1 0x40 MSTORE POP DUP2 ADD SWAP1 PUSH2 0x809 SWAP2 SWAP1 PUSH2 0xED2 JUMP JUMPDEST ISZERO PUSH2 0x826 JUMPI PUSH1 0x40 MLOAD PUSH3 0x461BCD PUSH1 0xE5 SHL DUP2 MSTORE PUSH1 0x4 ADD PUSH2 0x284 SWAP1 PUSH2 0xEF4 JUMP JUMPDEST PUSH2 0x8C9 JUMP JUMPDEST PUSH1 0x0 PUSH2 0x83E DUP3 PUSH2 0x3FC PUSH1 0x20 DUP15 ADD DUP15 PUSH2 0xE84 JUMP JUMPDEST PUSH1 0x40 MLOAD PUSH3 0x53F745 PUSH1 0xE5 SHL DUP2 MSTORE PUSH1 0x1 PUSH1 0x1 PUSH1 0xA0 SHL SUB DUP1 DUP4 AND PUSH1 0x4 DUP4 ADD MSTORE SWAP2 SWAP3 POP SWAP1 DUP10 AND SWAP1 PUSH4 0xA7EE8A0 SWAP1 PUSH1 0x24 ADD PUSH1 0x20 PUSH1 0x40 MLOAD DUP1 DUP4 SUB DUP2 DUP7 GAS STATICCALL ISZERO DUP1 ISZERO PUSH2 0x887 JUMPI RETURNDATASIZE PUSH1 0x0 DUP1 RETURNDATACOPY RETURNDATASIZE PUSH1 0x0 REVERT JUMPDEST POP POP POP POP PUSH1 0x40 MLOAD RETURNDATASIZE PUSH1 0x1F NOT PUSH1 0x1F DUP3 ADD AND DUP3 ADD DUP1 PUSH1 0x40 MSTORE POP DUP2 ADD SWAP1 PUSH2 0x8AB SWAP2 SWAP1 PUSH2 0xED2 JUMP JUMPDEST PUSH2 0x8C7 JUMPI PUSH1 0x40 MLOAD PUSH3 0x461BCD PUSH1 0xE5 SHL DUP2 MSTORE PUSH1 0x4 ADD PUSH2 0x284 SWAP1 PUSH2 0xF52 JUMP JUMPDEST POP JUMPDEST PUSH1 0x0 PUSH2 0x8DC DUP4 PUSH2 0x3FC PUSH1 0x40 DUP15 ADD DUP15 PUSH2 0xE84 JUMP JUMPDEST SWAP1 POP PUSH2 0x8EB PUSH1 0x20 DUP13 ADD DUP13 PUSH2 0xDFF JUMP JUMPDEST PUSH1 0x40 MLOAD PUSH4 0x7DF73E27 PUSH1 0xE0 SHL DUP2 MSTORE PUSH1 0x1 PUSH1 0x1 PUSH1 0xA0 SHL SUB DUP4 DUP2 AND PUSH1 0x4 DUP4 ADD MSTORE SWAP2 SWAP1 SWAP2 AND SWAP1 PUSH4 0x7DF73E27 SWAP1 PUSH1 0x24 ADD PUSH1 0x20 PUSH1 0x40 MLOAD DUP1 DUP4 SUB DUP2 DUP7 GAS STATICCALL ISZERO DUP1 ISZERO PUSH2 0x933 JUMPI RETURNDATASIZE PUSH1 0x0 DUP1 RETURNDATACOPY RETURNDATASIZE PUSH1 0x0 REVERT JUMPDEST POP POP POP POP PUSH1 0x40 MLOAD RETURNDATASIZE PUSH1 0x1F NOT PUSH1 0x1F DUP3 ADD AND DUP3 ADD DUP1 PUSH1 0x40 MSTORE POP DUP2 ADD SWAP1 PUSH2 0x957 SWAP2 SWAP1 PUSH2 0xED2 JUMP JUMPDEST PUSH2 0x973 JUMPI PUSH1 0x40 MLOAD PUSH3 0x461BCD PUSH1 0xE5 SHL DUP2 MSTORE PUSH1 0x4 ADD PUSH2 0x284 SWAP1 PUSH2 0xFA0 JUMP JUMPDEST POP POP POP POP POP POP POP POP POP POP POP JUMP JUMPDEST PUSH1 0x0 PUSH2 0x98C DUP3 MLOAD PUSH2 0x9E7 JUMP JUMPDEST DUP3 PUSH1 0x40 MLOAD PUSH1 0x20 ADD PUSH2 0x99E SWAP3 SWAP2 SWAP1 PUSH2 0x1004 JUMP JUMPDEST PUSH1 0x40 MLOAD PUSH1 0x20 DUP2 DUP4 SUB SUB DUP2 MSTORE SWAP1 PUSH1 0x40 MSTORE DUP1 MLOAD SWAP1 PUSH1 0x20 ADD KECCAK256 SWAP1 POP SWAP2 SWAP1 POP JUMP JUMPDEST PUSH1 0x0 DUP1 PUSH1 0x0 DUP1 PUSH2 0x9CB DUP7 DUP7 PUSH2 0xA7A JUMP JUMPDEST SWAP3 POP SWAP3 POP SWAP3 POP PUSH2 0x9DB DUP3 DUP3 PUSH2 0xAC7 JUMP JUMPDEST POP SWAP1 SWAP2 POP POP JUMPDEST SWAP3 SWAP2 POP POP JUMP JUMPDEST PUSH1 0x60 PUSH1 0x0 PUSH2 0x9F4 DUP4 PUSH2 0xB84 JUMP JUMPDEST PUSH1 0x1 ADD SWAP1 POP PUSH1 0x0 DUP2 PUSH8 0xFFFFFFFFFFFFFFFF DUP2 GT ISZERO PUSH2 0xA14 JUMPI PUSH2 0xA14 PUSH2 0xE6E JUMP JUMPDEST PUSH1 0x40 MLOAD SWAP1 DUP1 DUP3 MSTORE DUP1 PUSH1 0x1F ADD PUSH1 0x1F NOT AND PUSH1 0x20 ADD DUP3 ADD PUSH1 0x40 MSTORE DUP1 ISZERO PUSH2 0xA3E JUMPI PUSH1 0x20 DUP3 ADD DUP2 DUP1 CALLDATASIZE DUP4 CALLDATACOPY ADD SWAP1 POP JUMPDEST POP SWAP1 POP DUP2 DUP2 ADD PUSH1 0x20 ADD JUMPDEST PUSH1 0x0 NOT ADD PUSH16 0x181899199A1A9B1B9C1CB0B131B232B3 PUSH1 0x81 SHL PUSH1 0xA DUP7 MOD BYTE DUP2 MSTORE8 PUSH1 0xA DUP6 DIV SWAP5 POP DUP5 PUSH2 0xA48 JUMPI POP SWAP4 SWAP3 POP POP POP JUMP JUMPDEST PUSH1 0x0 DUP1 PUSH1 0x0 DUP4 MLOAD PUSH1 0x41 SUB PUSH2 0xAB4 JUMPI PUSH1 0x20 DUP5 ADD MLOAD PUSH1 0x40 DUP6 ADD MLOAD PUSH1 0x60 DUP7 ADD MLOAD PUSH1 0x0 BYTE PUSH2 0xAA6 DUP9 DUP3 DUP6 DUP6 PUSH2 0xC5C JUMP JUMPDEST SWAP6 POP SWAP6 POP SWAP6 POP POP POP POP PUSH2 0xAC0 JUMP JUMPDEST POP POP DUP2 MLOAD PUSH1 0x0 SWAP2 POP PUSH1 0x2 SWAP1 JUMPDEST SWAP3 POP SWAP3 POP SWAP3 JUMP JUMPDEST PUSH1 0x0 DUP3 PUSH1 0x3 DUP2 GT ISZERO PUSH2 0xADB JUMPI PUSH2 0xADB PUSH2 0x105F JUMP JUMPDEST SUB PUSH2 0xAE4 JUMPI POP POP JUMP JUMPDEST PUSH1 0x1 DUP3 PUSH1 0x3 DUP2 GT ISZERO PUSH2 0xAF8 JUMPI PUSH2 0xAF8 PUSH2 0x105F JUMP JUMPDEST SUB PUSH2 0xB16 JUMPI PUSH1 0x40 MLOAD PUSH4 0xF645EEDF PUSH1 0xE0 SHL DUP2 MSTORE PUSH1 0x4 ADD PUSH1 0x40 MLOAD DUP1 SWAP2 SUB SWAP1 REVERT JUMPDEST PUSH1 0x2 DUP3 PUSH1 0x3 DUP2 GT ISZERO PUSH2 0xB2A JUMPI PUSH2 0xB2A PUSH2 0x105F JUMP JUMPDEST SUB PUSH2 0xB4B JUMPI PUSH1 0x40 MLOAD PUSH4 0xFCE698F7 PUSH1 0xE0 SHL DUP2 MSTORE PUSH1 0x4 DUP2 ADD DUP3 SWAP1 MSTORE PUSH1 0x24 ADD PUSH2 0x284 JUMP JUMPDEST PUSH1 0x3 DUP3 PUSH1 0x3 DUP2 GT ISZERO PUSH2 0xB5F JUMPI PUSH2 0xB5F PUSH2 0x105F JUMP JUMPDEST SUB PUSH2 0xB80 JUMPI PUSH1 0x40 MLOAD PUSH4 0x35E2F383 PUSH1 0xE2 SHL DUP2 MSTORE PUSH1 0x4 DUP2 ADD DUP3 SWAP1 MSTORE PUSH1 0x24 ADD PUSH2 0x284 JUMP JUMPDEST POP POP JUMP JUMPDEST PUSH1 0x0 DUP1 PUSH19 0x184F03E93FF9F4DAA797ED6E38ED64BF6A1F01 PUSH1 0x40 SHL DUP4 LT PUSH2 0xBC3 JUMPI PUSH19 0x184F03E93FF9F4DAA797ED6E38ED64BF6A1F01 PUSH1 0x40 SHL DUP4 DIV SWAP3 POP PUSH1 0x40 ADD JUMPDEST PUSH14 0x4EE2D6D415B85ACEF8100000000 DUP4 LT PUSH2 0xBEF JUMPI PUSH14 0x4EE2D6D415B85ACEF8100000000 DUP4 DIV SWAP3 POP PUSH1 0x20 ADD JUMPDEST PUSH7 0x2386F26FC10000 DUP4 LT PUSH2 0xC0D JUMPI PUSH7 0x2386F26FC10000 DUP4 DIV SWAP3 POP PUSH1 0x10 ADD JUMPDEST PUSH4 0x5F5E100 DUP4 LT PUSH2 0xC25 JUMPI PUSH4 0x5F5E100 DUP4 DIV SWAP3 POP PUSH1 0x8 ADD JUMPDEST PUSH2 0x2710 DUP4 LT PUSH2 0xC39 JUMPI PUSH2 0x2710 DUP4 DIV SWAP3 POP PUSH1 0x4 ADD JUMPDEST PUSH1 0x64 DUP4 LT PUSH2 0xC4B JUMPI PUSH1 0x64 DUP4 DIV SWAP3 POP PUSH1 0x2 ADD JUMPDEST PUSH1 0xA DUP4 LT PUSH2 0x9E1 JUMPI PUSH1 0x1 ADD SWAP3 SWAP2 POP POP JUMP JUMPDEST PUSH1 0x0 DUP1 DUP1 PUSH32 0x7FFFFFFFFFFFFFFFFFFFFFFFFFFFFFFF5D576E7357A4501DDFE92F46681B20A0 DUP5 GT ISZERO PUSH2 0xC97 JUMPI POP PUSH1 0x0 SWAP2 POP PUSH1 0x3 SWAP1 POP DUP3 PUSH2 0xD21 JUMP JUMPDEST PUSH1 0x40 DUP1 MLOAD PUSH1 0x0 DUP1 DUP3 MSTORE PUSH1 0x20 DUP3 ADD DUP1 DUP5 MSTORE DUP11 SWAP1 MSTORE PUSH1 0xFF DUP10 AND SWAP3 DUP3 ADD SWAP3 SWAP1 SWAP3 MSTORE PUSH1 0x60 DUP2 ADD DUP8 SWAP1 MSTORE PUSH1 0x80 DUP2 ADD DUP7 SWAP1 MSTORE PUSH1 0x1 SWAP1 PUSH1 0xA0 ADD PUSH1 0x20 PUSH1 0x40 MLOAD PUSH1 0x20 DUP2 SUB SWAP1 DUP1 DUP5 SUB SWAP1 DUP6 GAS STATICCALL ISZERO DUP1 ISZERO PUSH2 0xCEB JUMPI RETURNDATASIZE PUSH1 0x0 DUP1 RETURNDATACOPY RETURNDATASIZE PUSH1 0x0 REVERT JUMPDEST POP POP PUSH1 0x40 MLOAD PUSH1 0x1F NOT ADD MLOAD SWAP2 POP POP PUSH1 0x1 PUSH1 0x1 PUSH1 0xA0 SHL SUB DUP2 AND PUSH2 0xD17 JUMPI POP PUSH1 0x0 SWAP3 POP PUSH1 0x1 SWAP2 POP DUP3 SWAP1 POP PUSH2 0xD21 JUMP JUMPDEST SWAP3 POP PUSH1 0x0 SWAP2 POP DUP2 SWAP1 POP JUMPDEST SWAP5 POP SWAP5 POP SWAP5 SWAP2 POP POP JUMP JUMPDEST PUSH1 0x0 JUMPDEST DUP4 DUP2 LT ISZERO PUSH2 0xD46 JUMPI DUP2 DUP2 ADD MLOAD DUP4 DUP3 ADD MSTORE PUSH1 0x20 ADD PUSH2 0xD2E JUMP JUMPDEST POP POP PUSH1 0x0 SWAP2 ADD MSTORE JUMP JUMPDEST PUSH1 0x20 DUP2 MSTORE PUSH1 0x0 DUP3 MLOAD DUP1 PUSH1 0x20 DUP5 ADD MSTORE PUSH2 0xD6E DUP2 PUSH1 0x40 DUP6 ADD PUSH1 0x20 DUP8 ADD PUSH2 0xD2B JUMP JUMPDEST PUSH1 0x1F ADD PUSH1 0x1F NOT AND SWAP2 SWAP1 SWAP2 ADD PUSH1 0x40 ADD SWAP3 SWAP2 POP POP JUMP JUMPDEST PUSH1 0x0 PUSH1 0x20 DUP3 DUP5 SUB SLT ISZERO PUSH2 0xD94 JUMPI PUSH1 0x0 DUP1 REVERT JUMPDEST DUP2 CALLDATALOAD PUSH8 0xFFFFFFFFFFFFFFFF DUP2 GT ISZERO PUSH2 0xDAB JUMPI PUSH1 0x0 DUP1 REVERT JUMPDEST DUP3 ADD PUSH1 0x80 DUP2 DUP6 SUB SLT ISZERO PUSH2 0xDBD JUMPI PUSH1 0x0 DUP1 REVERT JUMPDEST SWAP4 SWAP3 POP POP POP JUMP JUMPDEST PUSH1 0x0 PUSH1 0x20 DUP3 DUP5 SUB SLT ISZERO PUSH2 0xDD6 JUMPI PUSH1 0x0 DUP1 REVERT JUMPDEST DUP2 CALLDATALOAD PUSH8 0xFFFFFFFFFFFFFFFF DUP2 GT ISZERO PUSH2 0xDED JUMPI PUSH1 0x0 DUP1 REVERT JUMPDEST DUP3 ADD PUSH1 0xE0 DUP2 DUP6 SUB SLT ISZERO PUSH2 0xDBD JUMPI PUSH1 0x0 DUP1 REVERT JUMPDEST PUSH1 0x0 PUSH1 0x20 DUP3 DUP5 SUB SLT ISZERO PUSH2 0xE11 JUMPI PUSH1 0x0 DUP1 REVERT JUMPDEST DUP2 CALLDATALOAD PUSH1 0x1 PUSH1 0x1 PUSH1 0xA0 SHL SUB DUP2 AND DUP2 EQ PUSH2 0xDBD JUMPI PUSH1 0x0 DUP1 REVERT JUMPDEST PUSH1 0x20 DUP1 DUP3 MSTORE PUSH1 0x26 SWAP1 DUP3 ADD MSTORE PUSH32 0x5265676973747261723A206D6967726174696F6E207369676E61747572652065 PUSH1 0x40 DUP3 ADD MSTORE PUSH6 0x1E1C1A5C9959 PUSH1 0xD2 SHL PUSH1 0x60 DUP3 ADD MSTORE PUSH1 0x80 ADD SWAP1 JUMP JUMPDEST PUSH4 0x4E487B71 PUSH1 0xE0 SHL PUSH1 0x0 MSTORE PUSH1 0x41 PUSH1 0x4 MSTORE PUSH1 0x24 PUSH1 0x0 REVERT JUMPDEST PUSH1 0x0 DUP1 DUP4 CALLDATALOAD PUSH1 0x1E NOT DUP5 CALLDATASIZE SUB ADD DUP2 SLT PUSH2 0xE9B JUMPI PUSH1 0x0 DUP1 REVERT JUMPDEST DUP4 ADD DUP1 CALLDATALOAD SWAP2 POP PUSH8 0xFFFFFFFFFFFFFFFF DUP3 GT ISZERO PUSH2 0xEB6 JUMPI PUSH1 0x0 DUP1 REVERT JUMPDEST PUSH1 0x20 ADD SWAP2 POP CALLDATASIZE DUP2 SWAP1 SUB DUP3 SGT ISZERO PUSH2 0xECB JUMPI PUSH1 0x0 DUP1 REVERT JUMPDEST SWAP3 POP SWAP3 SWAP1 POP JUMP JUMPDEST PUSH1 0x0 PUSH1 0x20 DUP3 DUP5 SUB SLT ISZERO PUSH2 0xEE4 JUMPI PUSH1 0x0 DUP1 REVERT JUMPDEST DUP2 MLOAD DUP1 ISZERO ISZERO DUP2 EQ PUSH2 0xDBD JUMPI PUSH1 0x0 DUP1 REVERT JUMPDEST PUSH1 0x20 DUP1 DUP3 MSTORE PUSH1 0x40 SWAP1 DUP3 ADD DUP2 SWAP1 MSTORE PUSH32 0x5265676973747261723A2063757272656E742072656769737472617220697320 SWAP1 DUP3 ADD MSTORE PUSH32 0x61637469766520627574206E6F207369676E61747572652070726F7669646564 PUSH1 0x60 DUP3 ADD MSTORE PUSH1 0x80 ADD SWAP1 JUMP JUMPDEST PUSH1 0x20 DUP1 DUP3 MSTORE PUSH1 0x2E SWAP1 DUP3 ADD MSTORE PUSH32 0x5265676973747261723A2063757272656E742072656769737472617220736967 PUSH1 0x40 DUP3 ADD MSTORE PUSH14 0x1B985D1D5C99481A5B9D985B1A59 PUSH1 0x92 SHL PUSH1 0x60 DUP3 ADD MSTORE PUSH1 0x80 ADD SWAP1 JUMP JUMPDEST PUSH1 0x20 DUP1 DUP3 MSTORE PUSH1 0x23 SWAP1 DUP3 ADD MSTORE PUSH32 0x5265676973747261723A20656E74697479207369676E617475726520696E7661 PUSH1 0x40 DUP3 ADD MSTORE PUSH3 0x1B1A59 PUSH1 0xEA SHL PUSH1 0x60 DUP3 ADD MSTORE PUSH1 0x80 ADD SWAP1 JUMP JUMPDEST DUP2 DUP2 SUB DUP2 DUP2 GT ISZERO PUSH2 0x9E1 JUMPI PUSH4 0x4E487B71 PUSH1 0xE0 SHL PUSH1 0x0 MSTORE PUSH1 0x11 PUSH1 0x4 MSTORE PUSH1 0x24 PUSH1 0x0 REVERT JUMPDEST PUSH32 0x19457468657265756D205369676E6564204D6573736167653A0A000000000000 DUP2 MSTORE PUSH1 0x0 DUP4 MLOAD PUSH2 0x103C DUP2 PUSH1 0x1A DUP6 ADD PUSH1 0x20 DUP9 ADD PUSH2 0xD2B JUMP JUMPDEST DUP4 MLOAD SWAP1 DUP4 ADD SWAP1 PUSH2 0x1053 DUP2 PUSH1 0x1A DUP5 ADD PUSH1 0x20 DUP9 ADD PUSH2 0xD2B JUMP JUMPDEST ADD PUSH1 0x1A ADD SWAP5 SWAP4 POP POP POP POP JUMP JUMPDEST PUSH4 0x4E487B71 PUSH1 0xE0 SHL PUSH1 0x0 MSTORE PUSH1 0x21 PUSH1 0x4 MSTORE PUSH1 0x24 PUSH1 0x0 REVERT INVALID LOG2 PUSH5 0x6970667358 0x22 SLT KECCAK256 0xBC MSIZE AND EXTCODESIZE TIMESTAMP SWAP6 PUSH1 0x19 0xC4 CALLER 0xA8 LOG0 0xAD OR MLOAD JUMPI 0xA5 OR SWAP14 0xCD STOP RETURNDATACOPY SWAP13 0xA5 SWAP8 PUSH6 0x7EB007CA7656 PUSH5 0x736F6C6343 STOP ADDMOD XOR STOP CALLER "
        },
        "methodIdentifiers": {
          "DAY()": "27cfe856",
          "changeControllerNoTerms((address,bytes,bytes,uint256))": "541b160d",
          "changeControllerWithTerms((address,bytes,bytes,uint256,(uint256,uint256,uint256)))": "e35a67bb",
          "name()": "06fdde03",
          "version()": "54fd4d50"
        }
      }
    }
  }
}