{
  "_format": "hh-sol-artifact-1",
  "contractName": "ExperienceFactory",
  "sourceName": "contracts/experience/ExperienceFactory.sol",
  "abi": [
    {
      "inputs": [
        {
          "internalType": "address",
          "name": "mainAdmin",
          "type": "address"
        },
        {
          "internalType": "address[]",
          "name": "admins",
          "type": "address[]"
        }
      ],
      "stateMutability": "nonpayable",
      "type": "constructor"
    },
    {
      "inputs": [],
      "name": "AccessControlBadConfirmation",
      "type": "error"
    },
    {
      "inputs": [
        {
          "internalType": "address",
          "name": "account",
          "type": "address"
        },
        {
          "internalType": "bytes32",
          "name": "neededRole",
          "type": "bytes32"
        }
      ],
      "name": "AccessControlUnauthorizedAccount",
      "type": "error"
    },
    {
      "anonymous": false,
      "inputs": [
        {
          "indexed": true,
          "internalType": "address",
          "name": "oldRegistry",
          "type": "address"
        },
        {
          "indexed": true,
          "internalType": "address",
          "name": "newRegistry",
          "type": "address"
        }
      ],
      "name": "AuthorizedRegistryChanged",
      "type": "event"
    },
    {
      "anonymous": false,
      "inputs": [
        {
          "indexed": true,
          "internalType": "bytes32",
          "name": "role",
          "type": "bytes32"
        },
        {
          "indexed": true,
          "internalType": "bytes32",
          "name": "previousAdminRole",
          "type": "bytes32"
        },
        {
          "indexed": true,
          "internalType": "bytes32",
          "name": "newAdminRole",
          "type": "bytes32"
        }
      ],
      "name": "RoleAdminChanged",
      "type": "event"
    },
    {
      "anonymous": false,
      "inputs": [
        {
          "indexed": true,
          "internalType": "bytes32",
          "name": "role",
          "type": "bytes32"
        },
        {
          "indexed": true,
          "internalType": "address",
          "name": "account",
          "type": "address"
        },
        {
          "indexed": true,
          "internalType": "address",
          "name": "sender",
          "type": "address"
        }
      ],
      "name": "RoleGranted",
      "type": "event"
    },
    {
      "anonymous": false,
      "inputs": [
        {
          "indexed": true,
          "internalType": "bytes32",
          "name": "role",
          "type": "bytes32"
        },
        {
          "indexed": true,
          "internalType": "address",
          "name": "account",
          "type": "address"
        },
        {
          "indexed": true,
          "internalType": "address",
          "name": "sender",
          "type": "address"
        }
      ],
      "name": "RoleRevoked",
      "type": "event"
    },
    {
      "inputs": [],
      "name": "ADMIN_ROLE",
      "outputs": [
        {
          "internalType": "bytes32",
          "name": "",
          "type": "bytes32"
        }
      ],
      "stateMutability": "view",
      "type": "function"
    },
    {
      "inputs": [],
      "name": "DEFAULT_ADMIN_ROLE",
      "outputs": [
        {
          "internalType": "bytes32",
          "name": "",
          "type": "bytes32"
        }
      ],
      "stateMutability": "view",
      "type": "function"
    },
    {
      "inputs": [
        {
          "internalType": "address",
          "name": "owner",
          "type": "address"
        },
        {
          "internalType": "string",
          "name": "_name",
          "type": "string"
        },
        {
          "components": [
            {
              "internalType": "string",
              "name": "x",
              "type": "string"
            },
            {
              "internalType": "string",
              "name": "y",
              "type": "string"
            },
            {
              "internalType": "string",
              "name": "z",
              "type": "string"
            },
            {
              "internalType": "uint256",
              "name": "t",
              "type": "uint256"
            },
            {
              "internalType": "uint256",
              "name": "p",
              "type": "uint256"
            },
            {
              "internalType": "uint256",
              "name": "p_sub",
              "type": "uint256"
            }
          ],
          "internalType": "struct VectorAddress",
          "name": "va",
          "type": "tuple"
        },
        {
          "internalType": "bytes",
          "name": "initData",
          "type": "bytes"
        }
      ],
      "name": "createExperience",
      "outputs": [
        {
          "internalType": "address",
          "name": "proxy",
          "type": "address"
        }
      ],
      "stateMutability": "nonpayable",
      "type": "function"
    },
    {
      "inputs": [
        {
          "internalType": "bytes32",
          "name": "role",
          "type": "bytes32"
        }
      ],
      "name": "getRoleAdmin",
      "outputs": [
        {
          "internalType": "bytes32",
          "name": "",
          "type": "bytes32"
        }
      ],
      "stateMutability": "view",
      "type": "function"
    },
    {
      "inputs": [
        {
          "internalType": "bytes32",
          "name": "role",
          "type": "bytes32"
        },
        {
          "internalType": "address",
          "name": "account",
          "type": "address"
        }
      ],
      "name": "grantRole",
      "outputs": [],
      "stateMutability": "nonpayable",
      "type": "function"
    },
    {
      "inputs": [
        {
          "internalType": "bytes32",
          "name": "role",
          "type": "bytes32"
        },
        {
          "internalType": "address",
          "name": "account",
          "type": "address"
        }
      ],
      "name": "hasRole",
      "outputs": [
        {
          "internalType": "bool",
          "name": "",
          "type": "bool"
        }
      ],
      "stateMutability": "view",
      "type": "function"
    },
    {
      "inputs": [
        {
          "internalType": "address",
          "name": "query",
          "type": "address"
        }
      ],
      "name": "isClone",
      "outputs": [
        {
          "internalType": "bool",
          "name": "result",
          "type": "bool"
        }
      ],
      "stateMutability": "view",
      "type": "function"
    },
    {
      "inputs": [
        {
          "internalType": "bytes32",
          "name": "role",
          "type": "bytes32"
        },
        {
          "internalType": "address",
          "name": "callerConfirmation",
          "type": "address"
        }
      ],
      "name": "renounceRole",
      "outputs": [],
      "stateMutability": "nonpayable",
      "type": "function"
    },
    {
      "inputs": [
        {
          "internalType": "bytes32",
          "name": "role",
          "type": "bytes32"
        },
        {
          "internalType": "address",
          "name": "account",
          "type": "address"
        }
      ],
      "name": "revokeRole",
      "outputs": [],
      "stateMutability": "nonpayable",
      "type": "function"
    },
    {
      "inputs": [
        {
          "internalType": "address",
          "name": "_registry",
          "type": "address"
        }
      ],
      "name": "setAuthorizedRegistry",
      "outputs": [],
      "stateMutability": "nonpayable",
      "type": "function"
    },
    {
      "inputs": [
        {
          "internalType": "address",
          "name": "_implementation",
          "type": "address"
        }
      ],
      "name": "setImplementation",
      "outputs": [],
      "stateMutability": "nonpayable",
      "type": "function"
    },
    {
      "inputs": [
        {
          "internalType": "address",
          "name": "_proxyImplementation",
          "type": "address"
        }
      ],
      "name": "setProxyImplementation",
      "outputs": [],
      "stateMutability": "nonpayable",
      "type": "function"
    },
    {
      "inputs": [
        {
          "internalType": "bytes4",
          "name": "interfaceId",
          "type": "bytes4"
        }
      ],
      "name": "supportsInterface",
      "outputs": [
        {
          "internalType": "bool",
          "name": "",
          "type": "bool"
        }
      ],
      "stateMutability": "view",
      "type": "function"
    }
  ],
  "bytecode": "0x60806040523480156200001157600080fd5b5060405162001244380380620012448339810160408190526200003491620002a6565b81816001600160a01b038216620000a95760405162461bcd60e51b815260206004820152602e60248201527f42617365466163746f72793a206d61696e2061646d696e2063616e6e6f74206260448201526d65207a65726f206164647265737360901b60648201526084015b60405180910390fd5b620000b6600083620001c4565b50620000d26000805160206200122483398151915283620001c4565b5060005b8151811015620001b95760006001600160a01b03168282815181106200010057620001006200038f565b60200260200101516001600160a01b031603620001725760405162461bcd60e51b815260206004820152602960248201527f42617365466163746f72793a2061646d696e2063616e6e6f74206265207a65726044820152686f206164647265737360b81b6064820152608401620000a0565b620001af600080516020620012248339815191528383815181106200019b576200019b6200038f565b6020026020010151620001c460201b60201c565b50600101620000d6565b5050505050620003a5565b6000828152602081815260408083206001600160a01b038516845290915281205460ff1662000269576000838152602081815260408083206001600160a01b03861684529091529020805460ff19166001179055620002203390565b6001600160a01b0316826001600160a01b0316847f2f8788117e7eff1d82e926ec794901d17c78024a50270940304540a733656f0d60405160405180910390a45060016200026d565b5060005b92915050565b80516001600160a01b03811681146200028b57600080fd5b919050565b634e487b7160e01b600052604160045260246000fd5b60008060408385031215620002ba57600080fd5b620002c58362000273565b602084810151919350906001600160401b0380821115620002e557600080fd5b818601915086601f830112620002fa57600080fd5b8151818111156200030f576200030f62000290565b8060051b604051601f19603f8301168101818110858211171562000337576200033762000290565b6040529182528482019250838101850191898311156200035657600080fd5b938501935b828510156200037f576200036f8562000273565b845293850193928501926200035b565b8096505050505050509250929050565b634e487b7160e01b600052603260045260246000fd5b610e6f80620003b56000396000f3fe608060405234801561001057600080fd5b50600436106100ce5760003560e01c806375b238fc1161008c578063a217fddf11610066578063a217fddf146101b5578063c9dd1eea146101bd578063d547741f146101e8578063d784d426146101fb57600080fd5b806375b238fc1461017a57806391d148541461018f5780639fdcd3a4146101a257600080fd5b8062ae3676146100d357806301ffc9a7146100fb578063090741a01461010e578063248a9ca3146101235780632f2ff15d1461015457806336568abe14610167575b600080fd5b6100e66100e1366004610a1b565b61020e565b60405190151581526020015b60405180910390f35b6100e6610109366004610a3d565b610283565b61012161011c366004610a1b565b6102ba565b005b610146610131366004610a67565b60009081526020819052604090206001015490565b6040519081526020016100f2565b610121610162366004610a80565b610390565b610121610175366004610a80565b6103bb565b610146600080516020610e1a83398151915281565b6100e661019d366004610a80565b6103f3565b6101216101b0366004610a1b565b61041c565b610146600081565b6101d06101cb366004610bc1565b6104d3565b6040516001600160a01b0390911681526020016100f2565b6101216101f6366004610a80565b610693565b610121610209366004610a1b565b6106b8565b600080600160009054906101000a90046001600160a01b031660601b905060405169363d3d373d3d3d363d7360b01b815281600a8201526e5af43d82803e903d91602b57fd5bf360881b601e82015260408101602d600082873c600d810151600d830151148151835114169350505050919050565b60006001600160e01b03198216637965db0b60e01b14806102b457506301ffc9a760e01b6001600160e01b03198316145b92915050565b600080516020610e1a8339815191526102d281610764565b6001600160a01b0382166103435760405162461bcd60e51b815260206004820152602d60248201527f576f726c64466163746f72793a2072656769737472792063616e6e6f7420626560448201526c207a65726f206164647265737360981b60648201526084015b60405180910390fd5b600380546001600160a01b0319166001600160a01b03841690811790915560405181907fc86b12484784843e0f58748ffb8c87f7ee384e04382a190867f3cccc3b6cf97b90600090a35050565b6000828152602081905260409020600101546103ab81610764565b6103b58383610771565b50505050565b6001600160a01b03811633146103e45760405163334bd91960e11b815260040160405180910390fd5b6103ee8282610803565b505050565b6000918252602082815260408084206001600160a01b0393909316845291905290205460ff1690565b600080516020610e1a83398151915261043481610764565b6001600160a01b0382166104b05760405162461bcd60e51b815260206004820152603860248201527f42617365466163746f72793a2070726f787920696d706c656d656e746174696f60448201527f6e2063616e6e6f74206265207a65726f20616464726573730000000000000000606482015260840161033a565b50600280546001600160a01b0319166001600160a01b0392909216919091179055565b6003546000906001600160a01b031661053f5760405162461bcd60e51b815260206004820152602860248201527f42617365466163746f72793a20617574686f72697a6564207265676973747279604482015267081b9bdd081cd95d60c21b606482015260840161033a565b6003546001600160a01b031633146105b05760405162461bcd60e51b815260206004820152602e60248201527f42617365466163746f72793a2063616c6c6572206973206e6f7420617574686f60448201526d72697a656420726567697374727960901b606482015260840161033a565b60006105ba61086e565b90506105c461088b565b604051639c02006160e01b81526001600160a01b03838116600483015291935090831690639c02006190602401600060405180830381600087803b15801561060b57600080fd5b505af115801561061f573d6000803e3d6000fd5b5050604051630fad94ff60e41b81526001600160a01b038516925063fad94ff09150610657908a908a908a908a908a90600401610d66565b600060405180830381600087803b15801561067157600080fd5b505af1158015610685573d6000803e3d6000fd5b505050505095945050505050565b6000828152602081905260409020600101546106ae81610764565b6103b58383610803565b600080516020610e1a8339815191526106d081610764565b6001600160a01b0382166107415760405162461bcd60e51b815260206004820152603260248201527f42617365466163746f72793a20696d706c656d656e746174696f6e2063616e6e6044820152716f74206265207a65726f206164647265737360701b606482015260840161033a565b50600180546001600160a01b0319166001600160a01b0392909216919091179055565b61076e813361090d565b50565b600061077d83836103f3565b6107fb576000838152602081815260408083206001600160a01b03861684529091529020805460ff191660011790556107b33390565b6001600160a01b0316826001600160a01b0316847f2f8788117e7eff1d82e926ec794901d17c78024a50270940304540a733656f0d60405160405180910390a45060016102b4565b5060006102b4565b600061080f83836103f3565b156107fb576000838152602081815260408083206001600160a01b0386168085529252808320805460ff1916905551339286917ff6391f5c32d9c69d2a47ea670b442974b53935d1edc7fd64eb21e047a839171b9190a45060016102b4565b600154600090610886906001600160a01b031661094a565b905090565b6002546000906001600160a01b03166108f85760405162461bcd60e51b815260206004820152602960248201527f42617365466163746f72793a2070726f787920696d706c656d656e746174696f6044820152681b881b9bdd081cd95d60ba1b606482015260840161033a565b600254610886906001600160a01b031661094a565b61091782826103f3565b6109465760405163e2517d3f60e01b81526001600160a01b03821660048201526024810183905260440161033a565b5050565b60006001600160a01b0382166109ae5760405162461bcd60e51b815260206004820152602360248201527f42617365466163746f72793a20696d706c656d656e746174696f6e206e6f74206044820152621cd95d60ea1b606482015260840161033a565b60008260601b9050604051733d602d80600a3d3981f3363d3d373d3d3d363d7360601b81528160148201526e5af43d82803e903d91602b57fd5bf360881b60288201526037816000f0949350505050565b80356001600160a01b0381168114610a1657600080fd5b919050565b600060208284031215610a2d57600080fd5b610a36826109ff565b9392505050565b600060208284031215610a4f57600080fd5b81356001600160e01b031981168114610a3657600080fd5b600060208284031215610a7957600080fd5b5035919050565b60008060408385031215610a9357600080fd5b82359150610aa3602084016109ff565b90509250929050565b634e487b7160e01b600052604160045260246000fd5b60405160c0810167ffffffffffffffff81118282101715610ae557610ae5610aac565b60405290565b600082601f830112610afc57600080fd5b813567ffffffffffffffff80821115610b1757610b17610aac565b604051601f8301601f19908116603f01168101908282118183101715610b3f57610b3f610aac565b81604052838152866020858801011115610b5857600080fd5b836020870160208301376000602085830101528094505050505092915050565b60008083601f840112610b8a57600080fd5b50813567ffffffffffffffff811115610ba257600080fd5b602083019150836020828501011115610bba57600080fd5b9250929050565b600080600080600060808688031215610bd957600080fd5b610be2866109ff565b9450602086013567ffffffffffffffff80821115610bff57600080fd5b610c0b89838a01610aeb565b95506040880135915080821115610c2157600080fd5b9087019060c0828a031215610c3557600080fd5b610c3d610ac2565b823582811115610c4c57600080fd5b610c588b828601610aeb565b825250602083013582811115610c6d57600080fd5b610c798b828601610aeb565b602083015250604083013582811115610c9157600080fd5b610c9d8b828601610aeb565b604083015250606083013560608201526080830135608082015260a083013560a0820152809550506060880135915080821115610cd957600080fd5b50610ce688828901610b78565b969995985093965092949392505050565b6000815180845260005b81811015610d1d57602081850181015186830182015201610d01565b506000602082860101526020601f19601f83011685010191505092915050565b81835281816020850137506000828201602090810191909152601f909101601f19169091010190565b6001600160a01b0386168152608060208201819052600090610d8a90830187610cf7565b8281036040840152855160c08252610da560c0830182610cf7565b905060208701518282036020840152610dbe8282610cf7565b91505060408701518282036040840152610dd88282610cf7565b915050606087015160608301526080870151608083015260a087015160a08301528381036060850152610e0c818688610d3d565b999850505050505050505056fea49807205ce4d355092ef5a8a18f56e8913cf4a201fbe287825b095693c21775a2646970667358221220697ff7e932dd68c6bc70a0f353693bd67e0a614f0c8697567ed2e669e51da29664736f6c63430008180033a49807205ce4d355092ef5a8a18f56e8913cf4a201fbe287825b095693c21775",
  "linkReferences": {},
  "deployedLinkReferences": {}
}