{
  "_format": "hh-sol-artifact-1",
  "contractName": "WorldFactory",
  "sourceName": "contracts/world/v0.1/WorldFactory.sol",
  "abi": [
    {
      "inputs": [
        {
          "internalType": "address[]",
          "name": "admins",
          "type": "address[]"
        }
      ],
      "stateMutability": "nonpayable",
      "type": "constructor"
    },
    {
      "inputs": [],
      "name": "AccessControlBadConfirmation",
      "type": "error"
    },
    {
      "inputs": [
        {
          "internalType": "address",
          "name": "account",
          "type": "address"
        },
        {
          "internalType": "bytes32",
          "name": "neededRole",
          "type": "bytes32"
        }
      ],
      "name": "AccessControlUnauthorizedAccount",
      "type": "error"
    },
    {
      "anonymous": false,
      "inputs": [
        {
          "indexed": true,
          "internalType": "bytes32",
          "name": "role",
          "type": "bytes32"
        },
        {
          "indexed": true,
          "internalType": "bytes32",
          "name": "previousAdminRole",
          "type": "bytes32"
        },
        {
          "indexed": true,
          "internalType": "bytes32",
          "name": "newAdminRole",
          "type": "bytes32"
        }
      ],
      "name": "RoleAdminChanged",
      "type": "event"
    },
    {
      "anonymous": false,
      "inputs": [
        {
          "indexed": true,
          "internalType": "bytes32",
          "name": "role",
          "type": "bytes32"
        },
        {
          "indexed": true,
          "internalType": "address",
          "name": "account",
          "type": "address"
        },
        {
          "indexed": true,
          "internalType": "address",
          "name": "sender",
          "type": "address"
        }
      ],
      "name": "RoleGranted",
      "type": "event"
    },
    {
      "anonymous": false,
      "inputs": [
        {
          "indexed": true,
          "internalType": "bytes32",
          "name": "role",
          "type": "bytes32"
        },
        {
          "indexed": true,
          "internalType": "address",
          "name": "account",
          "type": "address"
        },
        {
          "indexed": true,
          "internalType": "address",
          "name": "sender",
          "type": "address"
        }
      ],
      "name": "RoleRevoked",
      "type": "event"
    },
    {
      "anonymous": false,
      "inputs": [
        {
          "indexed": true,
          "internalType": "address",
          "name": "world",
          "type": "address"
        }
      ],
      "name": "WorldCreated",
      "type": "event"
    },
    {
      "anonymous": false,
      "inputs": [
        {
          "indexed": true,
          "internalType": "address",
          "name": "worldRegistry",
          "type": "address"
        }
      ],
      "name": "WorldRegistryChanged",
      "type": "event"
    },
    {
      "inputs": [],
      "name": "DEFAULT_ADMIN_ROLE",
      "outputs": [
        {
          "internalType": "bytes32",
          "name": "",
          "type": "bytes32"
        }
      ],
      "stateMutability": "view",
      "type": "function"
    },
    {
      "inputs": [
        {
          "internalType": "address",
          "name": "owner",
          "type": "address"
        },
        {
          "internalType": "bytes",
          "name": "initData",
          "type": "bytes"
        }
      ],
      "name": "createWorld",
      "outputs": [
        {
          "internalType": "address",
          "name": "proxy",
          "type": "address"
        }
      ],
      "stateMutability": "nonpayable",
      "type": "function"
    },
    {
      "inputs": [
        {
          "internalType": "bytes32",
          "name": "role",
          "type": "bytes32"
        }
      ],
      "name": "getRoleAdmin",
      "outputs": [
        {
          "internalType": "bytes32",
          "name": "",
          "type": "bytes32"
        }
      ],
      "stateMutability": "view",
      "type": "function"
    },
    {
      "inputs": [
        {
          "internalType": "bytes32",
          "name": "role",
          "type": "bytes32"
        },
        {
          "internalType": "address",
          "name": "account",
          "type": "address"
        }
      ],
      "name": "grantRole",
      "outputs": [],
      "stateMutability": "nonpayable",
      "type": "function"
    },
    {
      "inputs": [
        {
          "internalType": "bytes32",
          "name": "role",
          "type": "bytes32"
        },
        {
          "internalType": "address",
          "name": "account",
          "type": "address"
        }
      ],
      "name": "hasRole",
      "outputs": [
        {
          "internalType": "bool",
          "name": "",
          "type": "bool"
        }
      ],
      "stateMutability": "view",
      "type": "function"
    },
    {
      "inputs": [
        {
          "internalType": "address",
          "name": "query",
          "type": "address"
        }
      ],
      "name": "isWorldClone",
      "outputs": [
        {
          "internalType": "bool",
          "name": "result",
          "type": "bool"
        }
      ],
      "stateMutability": "view",
      "type": "function"
    },
    {
      "inputs": [
        {
          "internalType": "bytes32",
          "name": "role",
          "type": "bytes32"
        },
        {
          "internalType": "address",
          "name": "callerConfirmation",
          "type": "address"
        }
      ],
      "name": "renounceRole",
      "outputs": [],
      "stateMutability": "nonpayable",
      "type": "function"
    },
    {
      "inputs": [
        {
          "internalType": "bytes32",
          "name": "role",
          "type": "bytes32"
        },
        {
          "internalType": "address",
          "name": "account",
          "type": "address"
        }
      ],
      "name": "revokeRole",
      "outputs": [],
      "stateMutability": "nonpayable",
      "type": "function"
    },
    {
      "inputs": [
        {
          "internalType": "address",
          "name": "_worldImplementation",
          "type": "address"
        }
      ],
      "name": "setImplementation",
      "outputs": [],
      "stateMutability": "nonpayable",
      "type": "function"
    },
    {
      "inputs": [
        {
          "internalType": "address",
          "name": "_worldRegistry",
          "type": "address"
        }
      ],
      "name": "setWorldRegistry",
      "outputs": [],
      "stateMutability": "nonpayable",
      "type": "function"
    },
    {
      "inputs": [
        {
          "internalType": "bytes4",
          "name": "interfaceId",
          "type": "bytes4"
        }
      ],
      "name": "supportsInterface",
      "outputs": [
        {
          "internalType": "bool",
          "name": "",
          "type": "bool"
        }
      ],
      "stateMutability": "view",
      "type": "function"
    },
    {
      "inputs": [],
      "name": "worldImplementation",
      "outputs": [
        {
          "internalType": "address",
          "name": "",
          "type": "address"
        }
      ],
      "stateMutability": "view",
      "type": "function"
    },
    {
      "inputs": [],
      "name": "worldRegistry",
      "outputs": [
        {
          "internalType": "address",
          "name": "",
          "type": "address"
        }
      ],
      "stateMutability": "view",
      "type": "function"
    }
  ],
  "bytecode": "0x60806040523480156200001157600080fd5b5060405162000c6a38038062000c6a833981016040819052620000349162000166565b60005b81518110156200007c57620000726000801b8383815181106200005e576200005e62000238565b60200260200101516200008460201b60201c565b5060010162000037565b50506200024e565b6000828152602081815260408083206001600160a01b038516845290915281205460ff1662000129576000838152602081815260408083206001600160a01b03861684529091529020805460ff19166001179055620000e03390565b6001600160a01b0316826001600160a01b0316847f2f8788117e7eff1d82e926ec794901d17c78024a50270940304540a733656f0d60405160405180910390a45060016200012d565b5060005b92915050565b634e487b7160e01b600052604160045260246000fd5b80516001600160a01b03811681146200016157600080fd5b919050565b600060208083850312156200017a57600080fd5b82516001600160401b03808211156200019257600080fd5b818501915085601f830112620001a757600080fd5b815181811115620001bc57620001bc62000133565b8060051b604051601f19603f83011681018181108582111715620001e457620001e462000133565b6040529182528482019250838101850191888311156200020357600080fd5b938501935b828510156200022c576200021c8562000149565b8452938501939285019262000208565b98975050505050505050565b634e487b7160e01b600052603260045260246000fd5b610a0c806200025e6000396000f3fe608060405234801561001057600080fd5b50600436106100cf5760003560e01c8063982cf21c1161008c578063d547741f11610066578063d547741f146101c1578063d784d426146101d4578063e237fbad146101e7578063fa658564146101fa57600080fd5b8063982cf21c1461019357806399a8559a146101a6578063a217fddf146101b957600080fd5b806301ffc9a7146100d4578063248a9ca3146100fc5780632f2ff15d1461012d57806336568abe14610142578063911c2a8c1461015557806391d1485414610180575b600080fd5b6100e76100e2366004610866565b61020d565b60405190151581526020015b60405180910390f35b61011f61010a366004610897565b60009081526020819052604090206001015490565b6040519081526020016100f3565b61014061013b3660046108cc565b610244565b005b6101406101503660046108cc565b61026f565b600254610168906001600160a01b031681565b6040516001600160a01b0390911681526020016100f3565b6100e761018e3660046108cc565b6102a7565b6101686101a13660046108f8565b6102d0565b6100e76101b436600461097b565b610515565b61011f600081565b6101406101cf3660046108cc565b61058a565b6101406101e236600461097b565b6105af565b6101406101f536600461097b565b61064f565b600154610168906001600160a01b031681565b60006001600160e01b03198216637965db0b60e01b148061023e57506301ffc9a760e01b6001600160e01b03198316145b92915050565b60008281526020819052604090206001015461025f8161071f565b610269838361072c565b50505050565b6001600160a01b03811633146102985760405163334bd91960e11b815260040160405180910390fd5b6102a282826107be565b505050565b6000918252602082815260408084206001600160a01b0393909316845291905290205460ff1690565b6002546000906001600160a01b031661033c5760405162461bcd60e51b8152602060048201526024808201527f576f726c64466163746f72793a20776f726c64207265676973747279206e6f74604482015263081cd95d60e21b60648201526084015b60405180910390fd5b6002546001600160a01b031633146103ad5760405162461bcd60e51b815260206004820152602e60248201527f576f726c64466163746f72793a2063616c6c6572206973206e6f74207468652060448201526d776f726c6420726567697374727960901b6064820152608401610333565b6001546001600160a01b03166104185760405162461bcd60e51b815260206004820152602a60248201527f576f726c64466163746f72793a20776f726c6420696d706c656d656e746174696044820152691bdb881b9bdd081cd95d60b21b6064820152608401610333565b600154604051733d602d80600a3d3981f3363d3d373d3d3d363d7360601b815260609190911b6bffffffffffffffffffffffff1916601482018190526e5af43d82803e903d91602b57fd5bf360881b6028830152906037816000f060405163c0d91eaf60e01b81529093506001600160a01b038416915063c0d91eaf906104a790889088908890600401610996565b600060405180830381600087803b1580156104c157600080fd5b505af11580156104d5573d6000803e3d6000fd5b50506040516001600160a01b03851692507fb821dabb450aefb5fb57407e584104b01ab11eef494f3b449743a67b6a2c9c739150600090a2509392505050565b600080600160009054906101000a90046001600160a01b031660601b905060405169363d3d373d3d3d363d7360b01b815281600a8201526e5af43d82803e903d91602b57fd5bf360881b601e82015260408101602d600082873c600d810151600d830151148151835114169350505050919050565b6000828152602081905260409020600101546105a58161071f565b61026983836107be565b60006105ba8161071f565b6001600160a01b03821661062c5760405162461bcd60e51b815260206004820152603360248201527f576f726c64466163746f72793a20696d706c656d656e746174696f6e2063616e6044820152726e6f74206265207a65726f206164647265737360681b6064820152608401610333565b50600180546001600160a01b0319166001600160a01b0392909216919091179055565b600061065a8161071f565b6001600160a01b0382166106cc5760405162461bcd60e51b815260206004820152603360248201527f576f726c64466163746f72793a20776f726c642072656769737472792063616e6044820152726e6f74206265207a65726f206164647265737360681b6064820152608401610333565b600280546001600160a01b0319166001600160a01b03848116919091179091556001546040519116907fb997c51d87eba083693957c9f0fe5fac6bb47e5ec16af94678a96b7948f843c690600090a25050565b6107298133610829565b50565b600061073883836102a7565b6107b6576000838152602081815260408083206001600160a01b03861684529091529020805460ff1916600117905561076e3390565b6001600160a01b0316826001600160a01b0316847f2f8788117e7eff1d82e926ec794901d17c78024a50270940304540a733656f0d60405160405180910390a450600161023e565b50600061023e565b60006107ca83836102a7565b156107b6576000838152602081815260408083206001600160a01b0386168085529252808320805460ff1916905551339286917ff6391f5c32d9c69d2a47ea670b442974b53935d1edc7fd64eb21e047a839171b9190a450600161023e565b61083382826102a7565b6108625760405163e2517d3f60e01b81526001600160a01b038216600482015260248101839052604401610333565b5050565b60006020828403121561087857600080fd5b81356001600160e01b03198116811461089057600080fd5b9392505050565b6000602082840312156108a957600080fd5b5035919050565b80356001600160a01b03811681146108c757600080fd5b919050565b600080604083850312156108df57600080fd5b823591506108ef602084016108b0565b90509250929050565b60008060006040848603121561090d57600080fd5b610916846108b0565b9250602084013567ffffffffffffffff8082111561093357600080fd5b818601915086601f83011261094757600080fd5b81358181111561095657600080fd5b87602082850101111561096857600080fd5b6020830194508093505050509250925092565b60006020828403121561098d57600080fd5b610890826108b0565b6001600160a01b03841681526040602082018190528101829052818360608301376000818301606090810191909152601f909201601f191601019291505056fea26469706673582212208730daa73ade56d70fd0d510fec3d3ced5565067174fc56c715dbe6bc76cf54864736f6c63430008180033",
  "linkReferences": {},
  "deployedLinkReferences": {}
}