{
  "_format": "hh-sol-artifact-1",
  "contractName": "LibControlChange",
  "sourceName": "contracts/entity-libs/control-change/LibControlChange.sol",
  "abi": [
    {
      "inputs": [],
      "name": "ECDSAInvalidSignature",
      "type": "error"
    },
    {
      "inputs": [
        {
          "internalType": "uint256",
          "name": "length",
          "type": "uint256"
        }
      ],
      "name": "ECDSAInvalidSignatureLength",
      "type": "error"
    },
    {
      "inputs": [
        {
          "internalType": "bytes32",
          "name": "s",
          "type": "bytes32"
        }
      ],
      "name": "ECDSAInvalidSignatureS",
      "type": "error"
    },
    {
      "anonymous": false,
      "inputs": [
        {
          "indexed": true,
          "internalType": "address",
          "name": "entity",
          "type": "address"
        },
        {
          "indexed": true,
          "internalType": "address",
          "name": "newController",
          "type": "address"
        }
      ],
      "name": "ControllerChanged",
      "type": "event"
    },
    {
      "inputs": [],
      "name": "DAY",
      "outputs": [
        {
          "internalType": "uint256",
          "name": "",
          "type": "uint256"
        }
      ],
      "stateMutability": "view",
      "type": "function"
    }
  ],
  "bytecode": "0x610d3c61003a600b82828239805160001a60731461002d57634e487b7160e01b600052600060045260246000fd5b30600052607381538281f3fe73000000000000000000000000000000000000000030146080604052600436106100405760003560e01c806327cfe85614610045578063f194f0ce14610061575b600080fd5b61004f6201518081565b60405190815260200160405180910390f35b81801561006d57600080fd5b5061008161007c366004610ae7565b610083565b005b61008c8161013d565b60006100966106a6565b9050600081816100a96020860186610b29565b6001600160a01b03168152602081019190915260400160002080546001600160a01b03191633178155905060808301600182016100e68282610b65565b505042600382015560006004820155336101036020850185610b29565b6001600160a01b03167f6aef1fb5b23d0e109fc7f2b0601019e1edbacd177e31a441ec8548e8dd14f0f760405160405180910390a3505050565b428160600135116101a45760405162461bcd60e51b815260206004820152602660248201527f5265676973747261723a206d6967726174696f6e207369676e617475726520656044820152651e1c1a5c995960d21b60648201526084015b60405180910390fd5b60006101ae6106a6565b9050600081816101c16020860186610b29565b6001600160a01b03908116825260208201929092526040016000908120805490935090911690806101f860a0870160808801610bb9565b61ffff1611801561020c575060c085013515155b61025e5761021d6020860186610b29565b604080516001600160a01b039092166020830152339082015260608087013590820152608001604051602081830303815290604052805190602001206102ed565b61026b6020860186610b29565b33606087013560c088013561028660a08a0160808b01610bb9565b61029660c08b0160a08c01610bb9565b604080516001600160a01b03978816602082015296909516948601949094526060850192909252608084015261ffff90811660a08401521660c082015260e001604051602081830303815290604052805190602001205b905060006102fe6020870187610b29565b604080516001600160a01b03909216602083015233908201526060808801359082015260800160408051808303601f1901815282825280516020918201208184528383019092529092506000919060208201818036833750506040805160208082528183019092529293506000929150808201818036833701905050905083602083015282602082015260006103938361073c565b905060006103a08361073c565b90506103af60208b018b610bec565b905060000361049457866001600160a01b0316634f05c1c86040518163ffffffff1660e01b8152600401602060405180830381865afa1580156103f6573d6000803e3d6000fd5b505050506040513d601f19601f8201168201806040525081019061041a9190610c3a565b1561048f576040805162461bcd60e51b81526020600482015260248101919091527f5265676973747261723a2063757272656e74207265676973747261722069732060448201527f61637469766520627574206e6f207369676e61747572652070726f7669646564606482015260840161019b565b6105b3565b60006104e1826104a760208e018e610bec565b8080601f01602080910402602001604051908101604052809392919081815260200183838082843760009201919091525061077792505050565b6040516253f74560e51b81526001600160a01b03808316600483015291925090891690630a7ee8a090602401602060405180830381865afa15801561052a573d6000803e3d6000fd5b505050506040513d601f19601f8201168201806040525081019061054e9190610c3a565b6105b15760405162461bcd60e51b815260206004820152602e60248201527f5265676973747261723a2063757272656e74207265676973747261722073696760448201526d1b985d1d5c99481a5b9d985b1a5960921b606482015260840161019b565b505b60006105c6836104a760408e018e610bec565b90506105d560208c018c610b29565b604051637df73e2760e01b81526001600160a01b0383811660048301529190911690637df73e2790602401602060405180830381865afa15801561061d573d6000803e3d6000fd5b505050506040513d601f19601f820116820180604052508101906106419190610c3a565b6106995760405162461bcd60e51b815260206004820152602360248201527f5265676973747261723a20656e74697479207369676e617475726520696e76616044820152621b1a5960ea1b606482015260840161019b565b5050505050505050505050565b60408051808201909152601a81527f78722e726567697374726174696f6e2e76312e73746f7261676500000000000060209091015260008060ff61070b60017f298bb06b387cf42ef0d699a946970827af7863e6cebf6ab1f9ef36af7a931163610c5c565b60405160200161071d91815260200190565b60408051601f1981840301815291905280516020909101201692915050565b600061074882516107a3565b8260405160200161075a929190610cad565b604051602081830303815290604052805190602001209050919050565b6000806000806107878686610836565b9250925092506107978282610883565b50909150505b92915050565b606060006107b083610940565b600101905060008167ffffffffffffffff8111156107d0576107d0610bd6565b6040519080825280601f01601f1916602001820160405280156107fa576020820181803683370190505b5090508181016020015b600019016f181899199a1a9b1b9c1cb0b131b232b360811b600a86061a8153600a850494508461080457509392505050565b600080600083516041036108705760208401516040850151606086015160001a61086288828585610a18565b95509550955050505061087c565b50508151600091506002905b9250925092565b600082600381111561089757610897610cf0565b036108a0575050565b60018260038111156108b4576108b4610cf0565b036108d25760405163f645eedf60e01b815260040160405180910390fd5b60028260038111156108e6576108e6610cf0565b036109075760405163fce698f760e01b81526004810182905260240161019b565b600382600381111561091b5761091b610cf0565b0361093c576040516335e2f38360e21b81526004810182905260240161019b565b5050565b60008072184f03e93ff9f4daa797ed6e38ed64bf6a1f0160401b831061097f5772184f03e93ff9f4daa797ed6e38ed64bf6a1f0160401b830492506040015b6d04ee2d6d415b85acef810000000083106109ab576d04ee2d6d415b85acef8100000000830492506020015b662386f26fc1000083106109c957662386f26fc10000830492506010015b6305f5e10083106109e1576305f5e100830492506008015b61271083106109f557612710830492506004015b60648310610a07576064830492506002015b600a831061079d5760010192915050565b600080807f7fffffffffffffffffffffffffffffff5d576e7357a4501ddfe92f46681b20a0841115610a535750600091506003905082610add565b604080516000808252602082018084528a905260ff891692820192909252606081018790526080810186905260019060a0016020604051602081039080840390855afa158015610aa7573d6000803e3d6000fd5b5050604051601f1901519150506001600160a01b038116610ad357506000925060019150829050610add565b9250600091508190505b9450945094915050565b600060208284031215610af957600080fd5b813567ffffffffffffffff811115610b1057600080fd5b820160e08185031215610b2257600080fd5b9392505050565b600060208284031215610b3b57600080fd5b81356001600160a01b0381168114610b2257600080fd5b61ffff81168114610b6257600080fd5b50565b8135610b7081610b52565b61ffff8116905081548161ffff1982161783556020840135610b9181610b52565b63ffff00008160101b168363ffffffff19841617178455505050604082013560018201555050565b600060208284031215610bcb57600080fd5b8135610b2281610b52565b634e487b7160e01b600052604160045260246000fd5b6000808335601e19843603018112610c0357600080fd5b83018035915067ffffffffffffffff821115610c1e57600080fd5b602001915036819003821315610c3357600080fd5b9250929050565b600060208284031215610c4c57600080fd5b81518015158114610b2257600080fd5b8181038181111561079d57634e487b7160e01b600052601160045260246000fd5b6000815160005b81811015610c9e5760208185018101518683015201610c84565b50600093019283525090919050565b7f19457468657265756d205369676e6564204d6573736167653a0a00000000000081526000610ce8610ce2601a840186610c7d565b84610c7d565b949350505050565b634e487b7160e01b600052602160045260246000fdfea2646970667358221220f33ae9b1af1720de574dd00b4f48ec4bdc6280e21c2426d03a9662d2e5a1a13664736f6c63430008180033",
  "linkReferences": {},
  "deployedLinkReferences": {}
}