{
  "_format": "hh-sol-artifact-1",
  "contractName": "LibWorld",
  "sourceName": "contracts/world/libs/LibWorld.sol",
  "abi": [
    {
      "inputs": [],
      "name": "getCompanyTerms",
      "outputs": [
        {
          "components": [
            {
              "internalType": "uint16",
              "name": "coveragePeriodDays",
              "type": "uint16"
            },
            {
              "internalType": "uint16",
              "name": "gracePeriodDays",
              "type": "uint16"
            },
            {
              "internalType": "uint256",
              "name": "fee",
              "type": "uint256"
            }
          ],
          "internalType": "struct RegistrationTerms",
          "name": "",
          "type": "tuple"
        }
      ],
      "stateMutability": "view",
      "type": "function"
    }
  ],
  "bytecode": "0x610d5e61003a600b82828239805160001a60731461002d57634e487b7160e01b600052600060045260246000fd5b30600052607381538281f3fe730000000000000000000000000000000000000000301460806040526004361061004b5760003560e01c806303c09a6e146100505780630e7281e2146100725780633e276e25146100a9575b600080fd5b81801561005c57600080fd5b5061007061006b3660046106df565b6100c9565b005b61007a610195565b60408051825161ffff908116825260208085015190911690820152918101519082015260600160405180910390f35b8180156100b557600080fd5b506100706100c43660046108b4565b610219565b60006100db604083016020840161099e565b61ffff161161014d5760405162461bcd60e51b815260206004820152603360248201527f576f726c643a20677261636520706572696f6420666f7220636f6d70616e792060448201527206d757374206265206d6f7265207468616e203606c1b60648201526084015b60405180910390fd5b806101566105e4565b7fc81805166e3c2c6c865c90f6cfe4d8cae225761f4a18005a2779cf6b975f1f1f60009081526020919091526040902061019082826109c2565b505050565b60408051606081018252600080825260208201819052918101919091526101ba6105e4565b7fc81805166e3c2c6c865c90f6cfe4d8cae225761f4a18005a2779cf6b975f1f1f600090815260209182526040908190208151606081018352815461ffff80821683526201000090910416938101939093526001015490820152919050565b80516001600160a01b03166102705760405162461bcd60e51b815260206004820181905260248201527f576f726c643a206f776e657220697320746865207a65726f20616464726573736044820152606401610144565b6000816040015151116102bc5760405162461bcd60e51b8152602060048201526014602482015273576f726c643a206e616d6520697320656d70747960601b6044820152606401610144565b60208101516001600160a01b03166103255760405162461bcd60e51b815260206004820152602660248201527f576f726c643a207465726d73206f776e657220697320746865207a65726f206160448201526564647265737360d01b6064820152608401610144565b60608101516040516361d9624d60e01b815273__$44c69b7fdad579bfd205e7ce6f076683d8$__916361d9624d9161036591906000908190600401610a5c565b60006040518083038186803b15801561037d57600080fd5b505af4158015610391573d6000803e3d6000fd5b50505050600081608001518060200190518101906103af9190610af6565b90506000816020015161ffff16116104235760405162461bcd60e51b815260206004820152603160248201527f576f726c643a20677261636520706572696f6420666f7220776f726c64206d7560448201527007374206265206d6f7265207468616e203607c1b6064820152608401610144565b600061042d6105e4565b7fc81805166e3c2c6c865c90f6cfe4d8cae225761f4a18005a2779cf6b975f1f1f600090815260208281526040808320865181549388015161ffff908116620100000263ffffffff19909516911617929092178255850151600190910155909150806040519080825280602002602001820160405280156104b8578160200160208202803683370190505b50845160405163d9ac971f60e01b815291925073__$822621bbfca0653c95de9b91f8a9786d65$__9163d9ac971f916104f5918590600401610b61565b60006040518083038186803b15801561050d57600080fd5b505af4158015610521573d6000803e3d6000fd5b50505050600061052f61067a565b805460ff19166001908117825560408701519192508201906105519082610c41565b50606085015180516002830190819061056a9082610c41565b506020820151600182019061057f9082610c41565b50604082015160028201906105949082610c41565b50606082015160038201556080820151600482015560a09091015160059091015560209094015184546001600160a01b03909116620100000262010000600160b01b031990911617909355505050565b60408051808201909152601981527f78722e7465726d732e6f776e65722e76312e73746f726167650000000000000060209091015260008060ff61064960017f6274f56e891028f724b0a56de72de004867f1de7f1819ab332079272d9c19f10610d01565b60405160200161065b91815260200190565b60408051601f1981840301815291905280516020909101201692915050565b60408051808201909152601881527f78722e61637469766174696f6e2e76312e73746f72616765000000000000000060209091015260008060ff61064960017fbdfc4f9279b6914d072e91c3452c88ca0bfbcebcba4de5f40748c7663e67029e610d01565b6000606082840312156106f157600080fd5b50919050565b634e487b7160e01b600052604160045260246000fd5b60405160c0810167ffffffffffffffff81118282101715610730576107306106f7565b60405290565b60405160a0810167ffffffffffffffff81118282101715610730576107306106f7565b80356001600160a01b038116811461077057600080fd5b919050565b600082601f83011261078657600080fd5b813567ffffffffffffffff808211156107a1576107a16106f7565b604051601f8301601f19908116603f011681019082821181831017156107c9576107c96106f7565b816040528381528660208588010111156107e257600080fd5b836020870160208301376000602085830101528094505050505092915050565b600060c0828403121561081457600080fd5b61081c61070d565b9050813567ffffffffffffffff8082111561083657600080fd5b61084285838601610775565b8352602084013591508082111561085857600080fd5b61086485838601610775565b6020840152604084013591508082111561087d57600080fd5b5061088a84828501610775565b604083015250606082013560608201526080820135608082015260a082013560a082015292915050565b6000602082840312156108c657600080fd5b813567ffffffffffffffff808211156108de57600080fd5b9083019060a082860312156108f257600080fd5b6108fa610736565b61090383610759565b815261091160208401610759565b602082015260408301358281111561092857600080fd5b61093487828601610775565b60408301525060608301358281111561094c57600080fd5b61095887828601610802565b60608301525060808301358281111561097057600080fd5b61097c87828601610775565b60808301525095945050505050565b61ffff8116811461099b57600080fd5b50565b6000602082840312156109b057600080fd5b81356109bb8161098b565b9392505050565b81356109cd8161098b565b61ffff8116905081548161ffff19821617835560208401356109ee8161098b565b63ffff00008160101b168363ffffffff19841617178455505050604082013560018201555050565b6000815180845260005b81811015610a3c57602081850181015186830182015201610a20565b506000602082860101526020601f19601f83011685010191505092915050565b606081526000845160c06060840152610a79610120840182610a16565b90506020860151605f1980858403016080860152610a978383610a16565b925060408801519150808584030160a086015250610ab58282610a16565b606088015160c0860152608088015160e086015260a088015161010086015286151560208601529250610ae6915050565b8215156040830152949350505050565b600060608284031215610b0857600080fd5b6040516060810181811067ffffffffffffffff82111715610b2b57610b2b6106f7565b6040528251610b398161098b565b81526020830151610b498161098b565b60208201526040928301519281019290925250919050565b6001600160a01b038381168252604060208084018290528451918401829052600092858201929091906060860190855b81811015610baf578551851683529483019491830191600101610b91565b509098975050505050505050565b600181811c90821680610bd157607f821691505b6020821081036106f157634e487b7160e01b600052602260045260246000fd5b601f821115610190576000816000526020600020601f850160051c81016020861015610c1a5750805b601f850160051c820191505b81811015610c3957828155600101610c26565b505050505050565b815167ffffffffffffffff811115610c5b57610c5b6106f7565b610c6f81610c698454610bbd565b84610bf1565b602080601f831160018114610ca45760008415610c8c5750858301515b600019600386901b1c1916600185901b178555610c39565b600085815260208120601f198616915b82811015610cd357888601518255948401946001909101908401610cb4565b5085821015610cf15787850151600019600388901b60f8161c191681555b5050505050600190811b01905550565b81810381811115610d2257634e487b7160e01b600052601160045260246000fd5b9291505056fea2646970667358221220cbe4521455661ee387b0c50437df11192beaf11bf4dc24b4d16e71c1bcbcf1ff64736f6c63430008180033",
  "linkReferences": {
    "contracts/core-libs/LibAccess.sol": {
      "LibAccess": [
        {
          "length": 20,
          "start": 1287
        }
      ]
    },
    "contracts/core-libs/LibVectorAddress.sol": {
      "LibVectorAddress": [
        {
          "length": 20,
          "start": 883
        }
      ]
    }
  },
  "deployedLinkReferences": {
    "contracts/core-libs/LibAccess.sol": {
      "LibAccess": [
        {
          "length": 20,
          "start": 1229
        }
      ]
    },
    "contracts/core-libs/LibVectorAddress.sol": {
      "LibVectorAddress": [
        {
          "length": 20,
          "start": 825
        }
      ]
    }
  }
}