{
  "_format": "hh-sol-artifact-1",
  "contractName": "LibRegistrar",
  "sourceName": "contracts/registrar/libs/LibRegistrar.sol",
  "abi": [
    {
      "inputs": [],
      "name": "getTerms",
      "outputs": [
        {
          "components": [
            {
              "internalType": "uint16",
              "name": "coveragePeriodDays",
              "type": "uint16"
            },
            {
              "internalType": "uint16",
              "name": "gracePeriodDays",
              "type": "uint16"
            },
            {
              "internalType": "uint256",
              "name": "fee",
              "type": "uint256"
            }
          ],
          "internalType": "struct RegistrationTerms",
          "name": "",
          "type": "tuple"
        }
      ],
      "stateMutability": "view",
      "type": "function"
    }
  ],
  "bytecode": "0x61107161003a600b82828239805160001a60731461002d57634e487b7160e01b600052600060045260246000fd5b30600052607381538281f3fe73000000000000000000000000000000000000000030146080604052600436106100565760003560e01c80632f699c0a1461005b5780634173b417146100985780635a494d88146100ad578063d2b33b53146100cf575b600080fd5b81801561006757600080fd5b5061007b610076366004610a31565b6100ef565b6040516001600160a01b0390911681526020015b60405180910390f35b6100a06102d5565b60405161008f9190610b55565b8180156100b957600080fd5b506100cd6100c8366004610b7f565b610347565b005b8180156100db57600080fd5b506100cd6100ea366004610c56565b61065e565b6000806100fa6106b9565b60008051602061101c833981519152600090815260209182526040908190208151606081018352815461ffff8082168352620100009091041693810193909352600101548282018190526080860151909101519192501415806101715750806020015161ffff1683608001516020015161ffff1614155b8061018a5750805160808401515161ffff908116911614155b15610196575060808201515b60006040518060c0016040528085602001516001600160a01b0316815260200185604001518152602001856060015181526020018381526020018560a0015181526020018560c0015181525090506000856001600160a01b031663f669fb21836040518263ffffffff1660e01b81526004016102129190610cbf565b6020604051808303816000875af1158015610231573d6000803e3d6000fd5b505050506040513d601f19601f820116820180604052508101906102559190610de9565b90506001600160a01b0381166102ca5760405162461bcd60e51b815260206004820152602f60248201527f5265676973747261723a20776f726c642072656769737472792072657475726e60448201526e6564207a65726f206164647265737360881b60648201526084015b60405180910390fd5b925050505b92915050565b60408051606081018252600080825260208201819052918101919091526102fa6106b9565b60008051602061101c833981519152600090815260209182526040908190208151606081018352815461ffff80821683526201000090910416938101939093526001015490820152919050565b80516001600160a01b03166103b15760405162461bcd60e51b815260206004820152602a60248201527f4c69625265676973747261723a206f776e65722063616e6e6f74206265207a65604482015269726f206164647265737360b01b60648201526084016102c1565b6000816040015151116104115760405162461bcd60e51b815260206004820152602260248201527f4c69625265676973747261723a206e616d652063616e6e6f7420626520656d70604482015261747960f01b60648201526084016102c1565b60208101516001600160a01b03166104845760405162461bcd60e51b815260206004820152603060248201527f4c69625265676973747261723a207465726d73206f776e65722063616e6e6f7460448201526f206265207a65726f206164647265737360801b60648201526084016102c1565b6000816080015180602001905181019061049e9190610e06565b90506000816020015161ffff16116105335760405162461bcd60e51b815260206004820152604c60248201527f4c69625265676973747261723a20677261636520706572696f6420666f72207760448201527f6f726c6420726567697374726174696f6e73206d75737420626520677265617460648201526b6572207468616e207a65726f60a01b608482015260a4016102c1565b60408051600081526020810191829052835163d9ac971f60e01b9092529073__$822621bbfca0653c95de9b91f8a9786d65$__9063d9ac971f9061057b908460248101610e53565b60006040518083038186803b15801561059357600080fd5b505af41580156105a7573d6000803e3d6000fd5b5050505060006105b561074f565b805460ff19166001908117825560408601519192508201906105d79082610f3a565b50602084015181546001600160a01b03909116620100000262010000600160b01b0319909116178155826106096106b9565b60008051602061101c83398151915260009081526020918252604090819020835181549385015161ffff908116620100000263ffffffff19909516911617929092178255919091015160019091015550505050565b806106676106b9565b60008051602061101c83398151915260009081526020918252604090819020835181549385015161ffff908116620100000263ffffffff19909516911617929092178255919091015160019091015550565b60408051808201909152601981527f78722e7465726d732e6f776e65722e76312e73746f726167650000000000000060209091015260008060ff61071e60017f6274f56e891028f724b0a56de72de004867f1de7f1819ab332079272d9c19f10610ffa565b60405160200161073091815260200190565b60408051601f1981840301815291905280516020909101201692915050565b60408051808201909152601881527f78722e61637469766174696f6e2e76312e73746f72616765000000000000000060209091015260008060ff61071e60017fbdfc4f9279b6914d072e91c3452c88ca0bfbcebcba4de5f40748c7663e67029e610ffa565b6001600160a01b03811681146107c957600080fd5b50565b634e487b7160e01b600052604160045260246000fd5b60405160c0810167ffffffffffffffff81118282101715610805576108056107cc565b60405290565b6040516060810167ffffffffffffffff81118282101715610805576108056107cc565b60405160e0810167ffffffffffffffff81118282101715610805576108056107cc565b60405160a0810167ffffffffffffffff81118282101715610805576108056107cc565b8035801515811461088457600080fd5b919050565b8035610884816107b4565b600082601f8301126108a557600080fd5b813567ffffffffffffffff808211156108c0576108c06107cc565b604051601f8301601f19908116603f011681019082821181831017156108e8576108e86107cc565b8160405283815286602085880101111561090157600080fd5b836020870160208301376000602085830101528094505050505092915050565b600060c0828403121561093357600080fd5b61093b6107e2565b9050813567ffffffffffffffff8082111561095557600080fd5b61096185838601610894565b8352602084013591508082111561097757600080fd5b61098385838601610894565b6020840152604084013591508082111561099c57600080fd5b506109a984828501610894565b604083015250606082013560608201526080820135608082015260a082013560a082015292915050565b61ffff811681146107c957600080fd5b6000606082840312156109f557600080fd5b6109fd61080b565b90508135610a0a816109d3565b81526020820135610a1a816109d3565b806020830152506040820135604082015292915050565b60008060408385031215610a4457600080fd5b8235610a4f816107b4565b9150602083013567ffffffffffffffff80821115610a6c57600080fd5b908401906101208287031215610a8157600080fd5b610a8961082e565b610a9283610874565b8152610aa060208401610889565b6020820152604083013582811115610ab757600080fd5b610ac388828601610921565b604083015250606083013582811115610adb57600080fd5b610ae788828601610894565b606083015250610afa87608085016109e3565b608082015260e083013582811115610b1157600080fd5b610b1d88828601610894565b60a08301525061010083013582811115610b3657600080fd5b610b4288828601610894565b60c0830152508093505050509250929050565b815161ffff90811682526020808401519091169082015260408083015190820152606081016102cf565b600060208284031215610b9157600080fd5b813567ffffffffffffffff80821115610ba957600080fd5b9083019060a08286031215610bbd57600080fd5b610bc5610851565b610bce83610889565b8152610bdc60208401610889565b6020820152604083013582811115610bf357600080fd5b610bff87828601610894565b604083015250606083013582811115610c1757600080fd5b610c2387828601610921565b606083015250608083013582811115610c3b57600080fd5b610c4787828601610894565b60808301525095945050505050565b600060608284031215610c6857600080fd5b610c7283836109e3565b9392505050565b6000815180845260005b81811015610c9f57602081850181015186830182015201610c83565b506000602082860101526020601f19601f83011685010191505092915050565b6020815260018060a01b03825116602082015260006020830151610100806040850152815160c0610120860152610cfa6101e0860182610c79565b9050602083015161011f198087840301610140880152610d1a8383610c79565b925060408501519150808784030161016088015250610d398282610c79565b915050606083015161018086015260808301516101a086015260a08301516101c086015260408601519250601f1980868303016060870152610d7b8285610c79565b6060880151805161ffff90811660808a015260208201511660a0890152604081015160c0890152909450915060808701519150808685030160e0870152610dc28483610c79565b935060a0870151915080868503018387015250610ddf8382610c79565b9695505050505050565b600060208284031215610dfb57600080fd5b8151610c72816107b4565b600060608284031215610e1857600080fd5b610e2061080b565b8251610e2b816109d3565b81526020830151610e3b816109d3565b60208201526040928301519281019290925250919050565b6001600160a01b038381168252604060208084018290528451918401829052600092858201929091906060860190855b81811015610ea1578551851683529483019491830191600101610e83565b509098975050505050505050565b600181811c90821680610ec357607f821691505b602082108103610ee357634e487b7160e01b600052602260045260246000fd5b50919050565b601f821115610f35576000816000526020600020601f850160051c81016020861015610f125750805b601f850160051c820191505b81811015610f3157828155600101610f1e565b5050505b505050565b815167ffffffffffffffff811115610f5457610f546107cc565b610f6881610f628454610eaf565b84610ee9565b602080601f831160018114610f9d5760008415610f855750858301515b600019600386901b1c1916600185901b178555610f31565b600085815260208120601f198616915b82811015610fcc57888601518255948401946001909101908401610fad565b5085821015610fea5787850151600019600388901b60f8161c191681555b5050505050600190811b01905550565b818103818111156102cf57634e487b7160e01b600052601160045260246000fdfe219db7474af65e71560be99aa347447bdac2968be75e991f1b5543c04947855fa264697066735822122027265a2fd709015e6f3cd3660525874110442e8bea79bcc01b1c80941af634a264736f6c63430008180033",
  "linkReferences": {
    "contracts/core-libs/LibAccess.sol": {
      "LibAccess": [
        {
          "length": 20,
          "start": 1421
        }
      ]
    }
  },
  "deployedLinkReferences": {
    "contracts/core-libs/LibAccess.sol": {
      "LibAccess": [
        {
          "length": 20,
          "start": 1363
        }
      ]
    }
  }
}