{
  "_format": "hh-sol-artifact-1",
  "contractName": "LibEntityRemoval",
  "sourceName": "contracts/entity-libs/removal/LibEntityRemoval.sol",
  "abi": [
    {
      "anonymous": false,
      "inputs": [
        {
          "indexed": true,
          "internalType": "address",
          "name": "entity",
          "type": "address"
        },
        {
          "indexed": true,
          "internalType": "address",
          "name": "by",
          "type": "address"
        }
      ],
      "name": "EntityRegistrationRenewed",
      "type": "event"
    },
    {
      "anonymous": false,
      "inputs": [
        {
          "indexed": true,
          "internalType": "address",
          "name": "entity",
          "type": "address"
        },
        {
          "indexed": false,
          "internalType": "string",
          "name": "reason",
          "type": "string"
        }
      ],
      "name": "RegistryDeactivatedEntity",
      "type": "event"
    },
    {
      "anonymous": false,
      "inputs": [
        {
          "indexed": true,
          "internalType": "address",
          "name": "entity",
          "type": "address"
        }
      ],
      "name": "RegistryEnforcedDeactivation",
      "type": "event"
    },
    {
      "anonymous": false,
      "inputs": [
        {
          "indexed": true,
          "internalType": "address",
          "name": "entity",
          "type": "address"
        }
      ],
      "name": "RegistryEnforcedRemoval",
      "type": "event"
    },
    {
      "anonymous": false,
      "inputs": [
        {
          "indexed": true,
          "internalType": "address",
          "name": "entity",
          "type": "address"
        }
      ],
      "name": "RegistryReactivatedEntity",
      "type": "event"
    },
    {
      "anonymous": false,
      "inputs": [
        {
          "indexed": true,
          "internalType": "address",
          "name": "entity",
          "type": "address"
        },
        {
          "indexed": false,
          "internalType": "string",
          "name": "reason",
          "type": "string"
        }
      ],
      "name": "RegistryRemovedEntity",
      "type": "event"
    },
    {
      "inputs": [
        {
          "internalType": "address",
          "name": "addr",
          "type": "address"
        }
      ],
      "name": "canBeDeactivated",
      "outputs": [
        {
          "internalType": "bool",
          "name": "",
          "type": "bool"
        }
      ],
      "stateMutability": "view",
      "type": "function"
    },
    {
      "inputs": [
        {
          "internalType": "address",
          "name": "addr",
          "type": "address"
        }
      ],
      "name": "canBeRemoved",
      "outputs": [
        {
          "internalType": "bool",
          "name": "",
          "type": "bool"
        }
      ],
      "stateMutability": "view",
      "type": "function"
    },
    {
      "inputs": [
        {
          "internalType": "address",
          "name": "addr",
          "type": "address"
        }
      ],
      "name": "getEntityTerms",
      "outputs": [
        {
          "components": [
            {
              "internalType": "uint16",
              "name": "coveragePeriodDays",
              "type": "uint16"
            },
            {
              "internalType": "uint16",
              "name": "gracePeriodDays",
              "type": "uint16"
            },
            {
              "internalType": "uint256",
              "name": "fee",
              "type": "uint256"
            }
          ],
          "internalType": "struct RegistrationTerms",
          "name": "",
          "type": "tuple"
        }
      ],
      "stateMutability": "view",
      "type": "function"
    },
    {
      "inputs": [
        {
          "internalType": "address",
          "name": "addr",
          "type": "address"
        }
      ],
      "name": "getExpiration",
      "outputs": [
        {
          "internalType": "uint256",
          "name": "",
          "type": "uint256"
        }
      ],
      "stateMutability": "view",
      "type": "function"
    },
    {
      "inputs": [
        {
          "internalType": "address",
          "name": "addr",
          "type": "address"
        }
      ],
      "name": "getLastRenewal",
      "outputs": [
        {
          "internalType": "uint256",
          "name": "",
          "type": "uint256"
        }
      ],
      "stateMutability": "view",
      "type": "function"
    },
    {
      "inputs": [
        {
          "internalType": "address",
          "name": "addr",
          "type": "address"
        }
      ],
      "name": "isExpired",
      "outputs": [
        {
          "internalType": "bool",
          "name": "",
          "type": "bool"
        }
      ],
      "stateMutability": "view",
      "type": "function"
    },
    {
      "inputs": [
        {
          "internalType": "address",
          "name": "addr",
          "type": "address"
        }
      ],
      "name": "isInGracePeriod",
      "outputs": [
        {
          "internalType": "bool",
          "name": "",
          "type": "bool"
        }
      ],
      "stateMutability": "view",
      "type": "function"
    }
  ],
  "bytecode": "0x61161261003a600b82828239805160001a60731461002d57634e487b7160e01b600052600060045260246000fd5b30600052607381538281f3fe73000000000000000000000000000000000000000030146080604052600436106100d95760003560e01c8063ba2eb54111610096578063e2482bf911610070578063e2482bf9146101e2578063ede71a17146101f5578063f82e2fb314610215578063fc4469741461025357600080fd5b8063ba2eb5411461018f578063d33e700e146101a2578063d6fbe020146101c257600080fd5b806314a642e6146100de57806347ef5427146101005780634ec70a48146101205780635726c94e14610146578063a8c88c1714610159578063b6db923d1461017c575b600080fd5b8180156100ea57600080fd5b506100fe6100f93660046112a8565b610273565b005b81801561010c57600080fd5b506100fe61011b3660046112a8565b6104a5565b61013361012e3660046112a8565b610606565b6040519081526020015b60405180910390f35b6101336101543660046112a8565b610674565b61016c6101673660046112a8565b6106a2565b604051901515815260200161013d565b61016c61018a3660046112a8565b61072d565b61016c61019d3660046112a8565b6107de565b8180156101ae57600080fd5b506100fe6101bd3660046112a8565b61084e565b8180156101ce57600080fd5b506100fe6101dd3660046112a8565b61092c565b61016c6101f03660046112a8565b610c02565b81801561020157600080fd5b506100fe6102103660046112cc565b610cb4565b6102286102233660046112a8565b610dae565b60408051825161ffff908116825260208085015190911690820152918101519082015260600161013d565b81801561025f57600080fd5b506100fe61026e3660046112cc565b610e21565b8061027d816106a2565b6102e15760405162461bcd60e51b815260206004820152602a60248201527f5374617475734368616e6765734578743a20656e746974792063616e6e6f74206044820152691899481c995b5bdd995960b21b60648201526084015b60405180910390fd5b60006102eb61113b565b6040516380599e4b60e01b815260206004820152602860248201527f52656d6f76616c20656e666f726365642064756520746f207465726d732065786044820152673834b930ba34b7b760c11b60648201529091506001600160a01b038416906380599e4b90608401600060405180830381600087803b15801561036e57600080fd5b505af1158015610382573d6000803e3d6000fd5b5050506001600160a01b0380841660009081526020849052604080822080546001600160a01b031916815560018101805463ffffffff191690556002810183905560038101839055600490810183905581516306fdde0360e01b8152915192945061043d938816926306fdde0392808301928792918290030181865afa158015610410573d6000803e3d6000fd5b505050506040513d6000823e601f3d908101601f19168201604052610438919081019061138b565b6111d1565b90508160020181604051610451919061142d565b90815260405190819003602001812080546001600160a01b03191690556001600160a01b038416907f7e6cd5861b1d4fa3f22e1534c246a20812a09a8c06fa2caaacdc5e70e72c7bf690600090a250505050565b6104ae8161072d565b6105115760405162461bcd60e51b815260206004820152602e60248201527f456e7469747952656d6f76616c4578743a20456e746974792063616e6e6f742060448201526d18994819195858dd1a5d985d195960921b60648201526084016102d8565b6040516327ee999d60e01b815260206004820152602d60248201527f446561637469766174696f6e20656e666f726365642064756520746f2074657260448201526c36b99032bc3834b930ba34b7b760991b60648201526001600160a01b038216906327ee999d90608401600060405180830381600087803b15801561059657600080fd5b505af11580156105aa573d6000803e3d6000fd5b5050505060006105b861113b565b6001600160a01b0383166000818152602083905260408082204260048201559051939450927f34aed9d8955237d766c06c12b28987720163d0a7655bca0e23f470ae6e2e51c79190a2505050565b60008061061161113b565b6001600160a01b038416600090815260208290526040812060018101549293509161ffff169003610646575060009392505050565b600181015461065d90620151809061ffff1661145f565b816003015461066c919061147c565b949350505050565b60008061067f61113b565b6001600160a01b0390931660009081526020939093525050604090206003015490565b6000806106ad61113b565b6001600160a01b038416600090815260208290526040812060018101549293509161ffff1690036106e2575060009392505050565b80600401546000036106f8575060009392505050565b600181015460009061071290620151809061ffff1661145f565b8260040154610721919061147c565b42101595945050505050565b60008061073861113b565b6001600160a01b038416600090815260208290526040812060018101549293509161ffff16900361076d575060009392505050565b600181015460009061078790620151809061ffff1661145f565b8260030154610796919061147c565b60018301549091506000906107b990620151809062010000900461ffff1661145f565b6107c3908361147c565b90508142101580156107d457508042105b9695505050505050565b6000806107e961113b565b6001600160a01b038416600090815260208290526040812060018101549293509161ffff16900361081e575060009392505050565b600181015461083590620151809061ffff1661145f565b8160030154610844919061147c565b4211949350505050565b600061085861113b565b6001600160a01b0380841660009081526020839052604090208054929350911633146108965760405162461bcd60e51b81526004016102d89061148f565b60008160040181905550826001600160a01b031663d18611d66040518163ffffffff1660e01b8152600401600060405180830381600087803b1580156108db57600080fd5b505af11580156108ef573d6000803e3d6000fd5b50506040516001600160a01b03861692507f667d71bfa02caef2a7b621bfee70de813834529ef97b4fdcf65727d950a41a889150600090a2505050565b600061093661113b565b6001600160a01b038316600090815260208290526040902060018101549192509061ffff166109be5760405162461bcd60e51b815260206004820152602e60248201527f52656e6577616c4578743a20456e7469747920646f6573206e6f74206861766560448201526d2072656e6577616c207465726d7360901b60648201526084016102d8565b805460408051634173b41760e01b815290516001600160a01b03909216916000918391634173b417916004808201926060929091908290030181865afa158015610a0c573d6000803e3d6000fd5b505050506040513d601f19601f82011682018060405250810190610a309190611503565b90506000816020015161ffff1611610b165760405162461bcd60e51b815260206004820152609160248201527f52656e6577616c4578743a20526567697374726174696f6e207465726d73207260448201527f657175697265206120677261636520706572696f64206576656e207768656e2060648201527f6e6f20636f76657261676520706572696f64206578697374732e20546869732060848201527f697320746f2070726f7669646520612072656d6f76616c20677261636520706560a48201527072696f6420666f7220656e74697469657360781b60c482015260e4016102d8565b604081015134811115610b805760405162461bcd60e51b815260206004820152602c60248201527f52656e6577616c4578743a20496e73756666696369656e742066756e6473206660448201526b6f72206e6577207465726d7360a01b60648201526084016102d8565b8151600185018054602085015161ffff908116620100000263ffffffff199092169316929092179190911790556040808301516002860155426003860155600060048601819055905133916001600160a01b038916917fa12a76e3489e01490944982156e006ccdf24101e35463342943c1b0d069ef07e9190a3505050505050565b600080610c0d61113b565b6001600160a01b038416600090815260208290526040812060018101549293509161ffff169003610c42575060009392505050565b6001810154600090610c5c90620151809061ffff1661145f565b8260030154610c6b919061147c565b6001830154909150600090610c8e90620151809062010000900461ffff1661145f565b610c98908361147c565b9050428210808015610ca957508142105b979650505050505050565b6000610cbe61113b565b6001600160a01b038086166000908152602083905260409020805492935091163314610cfc5760405162461bcd60e51b81526004016102d89061148f565b426004808301919091556040516327ee999d60e01b81526001600160a01b038716916327ee999d91610d3291889188910161156b565b600060405180830381600087803b158015610d4c57600080fd5b505af1158015610d60573d6000803e3d6000fd5b50505050846001600160a01b03167fb75046c01c14bc7fe8ffdd7a34c4c308a3ddb6011b52a2ee88f5d4545e22ced88585604051610d9f92919061156b565b60405180910390a25050505050565b6040805160608101825260008082526020820181905291810182905290610dd361113b565b6001600160a01b03909316600090815260209384526040908190208151606081018352600182015461ffff808216835262010000909104169581019590955260020154908401525090919050565b6000610e2b61113b565b6001600160a01b038086166000908152602083905260409020805492935091163314610ebf5760405162461bcd60e51b815260206004820152603f60248201527f456e7469747952656d6f76616c4578743a2063616c6c6572206973206e6f742060448201527f74686520656e74697479277320726567697374726174696f6e206f776e65720060648201526084016102d8565b6000816004015411610f395760405162461bcd60e51b815260206004820152603b60248201527f456e7469747952656d6f76616c4578743a20656e74697479206d75737420626560448201527f206465616374697661746564206265666f72652072656d6f76616c000000000060648201526084016102d8565b6001810154610f5690620151809062010000900461ffff1661145f565b8160040154610f65919061147c565b4211610fd95760405162461bcd60e51b815260206004820152603b60248201527f456e7469747952656d6f76616c4578743a20646561637469766174696f6e206760448201527f7261636520706572696f6420686173206e6f742065787069726564000000000060648201526084016102d8565b6040516380599e4b60e01b81526001600160a01b038616906380599e4b90611007908790879060040161156b565b600060405180830381600087803b15801561102157600080fd5b505af1158015611035573d6000803e3d6000fd5b5050506001600160a01b03861660008181526020859052604080822080546001600160a01b031916815560018101805463ffffffff191690556002810183905560038101839055600490810183905581516306fdde0360e01b815291519294506110c093926306fdde0392808301928792918290030181865afa158015610410573d6000803e3d6000fd5b905082600201816040516110d4919061142d565b90815260405190819003602001812080546001600160a01b03191690556001600160a01b038716907f19befd85e4fafbc51c81f6553f2790c1845268610c5acdb88fb188dfc64319ad9061112b908890889061156b565b60405180910390a2505050505050565b60408051808201909152601a81527f78722e726567697374726174696f6e2e76312e73746f7261676500000000000060209091015260008060ff6111a060017f298bb06b387cf42ef0d699a946970827af7863e6cebf6ab1f9ef36af7a93116361159a565b6040516020016111b291815260200190565b60408051601f1981840301815291905280516020909101201692915050565b60608160005b815181101561123a576112098282815181106111f5576111f56115ad565b01602001516001600160f81b031916611241565b82828151811061121b5761121b6115ad565b60200101906001600160f81b031916908160001a9053506001016111d7565b5092915050565b6000604160f81b6001600160f81b031983161080159061126f5750602d60f91b6001600160f81b0319831611155b1561128c5761128360f883901c60206115c3565b60f81b92915050565b5090565b6001600160a01b03811681146112a557600080fd5b50565b6000602082840312156112ba57600080fd5b81356112c581611290565b9392505050565b6000806000604084860312156112e157600080fd5b83356112ec81611290565b9250602084013567ffffffffffffffff8082111561130957600080fd5b818601915086601f83011261131d57600080fd5b81358181111561132c57600080fd5b87602082850101111561133e57600080fd5b6020830194508093505050509250925092565b634e487b7160e01b600052604160045260246000fd5b60005b8381101561138257818101518382015260200161136a565b50506000910152565b60006020828403121561139d57600080fd5b815167ffffffffffffffff808211156113b557600080fd5b818401915084601f8301126113c957600080fd5b8151818111156113db576113db611351565b604051601f8201601f19908116603f0116810190838211818310171561140357611403611351565b8160405282815287602084870101111561141c57600080fd5b610ca9836020830160208801611367565b6000825161143f818460208701611367565b9190910192915050565b634e487b7160e01b600052601160045260246000fd5b808202811582820484141761147657611476611449565b92915050565b8082018082111561147657611476611449565b6020808252603c908201527f456e7469747952656d6f76616c3a2063616c6c6572206973206e6f742074686560408201527f20656e74697479277320726567697374726174696f6e206f776e657200000000606082015260800190565b805161ffff811681146114fe57600080fd5b919050565b60006060828403121561151557600080fd5b6040516060810181811067ffffffffffffffff8211171561153857611538611351565b604052611544836114ec565b8152611552602084016114ec565b6020820152604083015160408201528091505092915050565b60208152816020820152818360408301376000818301604090810191909152601f909201601f19160101919050565b8181038181111561147657611476611449565b634e487b7160e01b600052603260045260246000fd5b60ff81811683821601908111156114765761147661144956fea264697066735822122077524f6bb216aff1bca05d22095028564e4a11fd11f495def0c744f124f90beb64736f6c63430008180033",
  "linkReferences": {},
  "deployedLinkReferences": {}
}