{
  "_format": "hh-sol-artifact-1",
  "contractName": "LibRegistration",
  "sourceName": "contracts/entity-libs/registration/LibRegistration.sol",
  "abi": [
    {
      "inputs": [],
      "name": "ECDSAInvalidSignature",
      "type": "error"
    },
    {
      "inputs": [
        {
          "internalType": "uint256",
          "name": "length",
          "type": "uint256"
        }
      ],
      "name": "ECDSAInvalidSignatureLength",
      "type": "error"
    },
    {
      "inputs": [
        {
          "internalType": "bytes32",
          "name": "s",
          "type": "bytes32"
        }
      ],
      "name": "ECDSAInvalidSignatureS",
      "type": "error"
    },
    {
      "inputs": [],
      "name": "DAY",
      "outputs": [
        {
          "internalType": "uint256",
          "name": "",
          "type": "uint256"
        }
      ],
      "stateMutability": "view",
      "type": "function"
    },
    {
      "inputs": [
        {
          "internalType": "string",
          "name": "nm",
          "type": "string"
        }
      ],
      "name": "getEntityByName",
      "outputs": [
        {
          "internalType": "address",
          "name": "",
          "type": "address"
        }
      ],
      "stateMutability": "view",
      "type": "function"
    },
    {
      "inputs": [
        {
          "internalType": "address",
          "name": "addr",
          "type": "address"
        }
      ],
      "name": "isRegistered",
      "outputs": [
        {
          "internalType": "bool",
          "name": "",
          "type": "bool"
        }
      ],
      "stateMutability": "view",
      "type": "function"
    }
  ],
  "bytecode": "0x61198c61003a600b82828239805160001a60731461002d57634e487b7160e01b600052600060045260246000fd5b30600052607381538281f3fe730000000000000000000000000000000000000000301460806040526004361061006c5760003560e01c806327cfe856146100715780633e88a4e21461008e578063474df879146100b9578063af2e5d05146100db578063bca13f70146100fb578063c3c5a5471461011b575b600080fd5b61007b6201518081565b6040519081526020015b60405180910390f35b6100a161009c3660046112d7565b61013e565b6040516001600160a01b039091168152602001610085565b8180156100c557600080fd5b506100d96100d436600461153b565b6101be565b005b8180156100e757600080fd5b506100d96100f636600461153b565b610664565b81801561010757600080fd5b506100d961011636600461160d565b6109df565b61012e61012936600461164f565b610ade565b6040519015158152602001610085565b600080610149610b40565b90508060020161018e85858080601f016020809104026020016040519081016040528093929190818152602001838380828437600092019190915250610bd692505050565b60405161019b919061168e565b908152604051908190036020019020546001600160a01b03169150505b92915050565b80516001600160a01b03811661022b5760405162461bcd60e51b815260206004820152602760248201527f526567697374726174696f6e4578743a20656e74697479206372656174696f6e6044820152660819985a5b195960ca1b60648201526084015b60405180910390fd5b600082602001516020015161ffff16116102a45760405162461bcd60e51b815260206004820152603460248201527f526567697374726174696f6e4578743a20677261636520706572696f64206d75604482015273073742062652067726561746572207468616e20360641b6064820152608401610222565b8060006102af610b40565b6001600160a01b03831660008181526020839052604080822081516306fdde0360e01b815291519495509391926103389290916306fdde0391600480830192879291908290030181865afa15801561030b573d6000803e3d6000fd5b505050506040513d6000823e601f3d908101601f1916820160405261033391908101906116aa565b610bd6565b905060006001600160a01b03168360020182604051610357919061168e565b908152604051908190036020019020546001600160a01b0316146103d85760405162461bcd60e51b815260206004820152603260248201527f526567697374726174696f6e4d6f64756c653a20656e74697479206e616d6520604482015271185b1c9958591e481c9959da5cdd195c995960721b6064820152608401610222565b81546001600160a01b0316156104625760405162461bcd60e51b815260206004820152604360248201527f526567697374726174696f6e4d6f64756c653a20656e7469747920616c72656160448201527f64792072656769737465726564207769746820646966666572656e74206e616d606482015262653f3f60e81b608482015260a401610222565b60408051606081018252602080890180515161ffff9081168085528251840151909116928401839052905184015183850181905286546001600160a01b031916331787556001870180546201000090940263ffffffff19909416909217929092179055600280860191909155426003860155915190918691908601906104e990859061168e565b908152604080519182900360200190912080546001600160a01b03939093166001600160a01b03199093169290921790915587015151511561065b5760408088015190516329a6121760e21b815260009173__$44c69b7fdad579bfd205e7ce6f076683d8$__9163a698485c916105629160040161174d565b600060405180830381865af415801561057f573d6000803e3d6000fd5b505050506040513d6000823e601f3d908101601f191682016040526105a791908101906116aa565b8051602080830191909120600081815260038901909252604090912054919250906001600160a01b0316156106305760405162461bcd60e51b815260206004820152602960248201527f526567697374726174696f6e4d6f64756c653a20766563746f7220616c726561604482015268647920696e2075736560b81b6064820152608401610222565b6000908152600386016020526040902080546001600160a01b0319166001600160a01b038916179055505b50505050505050565b80516001600160a01b0381166106d35760405162461bcd60e51b815260206004820152602e60248201527f42617365526567697374726174696f6e4d6f64756c653a20656e74697479206360448201526d1c99585d1a5bdb8819985a5b195960921b6064820152608401610222565b8060006106de610b40565b6001600160a01b038416600090815260018201602052604090205490915060ff161561075f5760405162461bcd60e51b815260206004820152602a60248201527f526567697374726174696f6e4578743a20656e7469747920616c7265616479206044820152691c9959da5cdd195c995960b21b6064820152608401610222565b60006107a2836001600160a01b03166306fdde036040518163ffffffff1660e01b8152600401600060405180830381865afa15801561030b573d6000803e3d6000fd5b905060006001600160a01b031682600201826040516107c1919061168e565b908152604051908190036020019020546001600160a01b03161461083f5760405162461bcd60e51b815260206004820152602f60248201527f526567697374726174696f6e4578743a20656e74697479206e616d6520616c7260448201526e1958591e481c9959da5cdd195c9959608a1b6064820152608401610222565b838260020182604051610852919061168e565b908152604080516020928190038301902080546001600160a01b0319166001600160a01b0394851617905591861660009081526001858101909252829020805460ff191690911790558501515151156109d85760408086015190516329a6121760e21b815260009173__$44c69b7fdad579bfd205e7ce6f076683d8$__9163a698485c916108e29160040161174d565b600060405180830381865af41580156108ff573d6000803e3d6000fd5b505050506040513d6000823e601f3d908101601f1916820160405261092791908101906116aa565b8051602080830191909120600081815260038701909252604090912054919250906001600160a01b0316156109ad5760405162461bcd60e51b815260206004820152602660248201527f526567697374726174696f6e4578743a20766563746f7220616c726561647920604482015265696e2075736560d01b6064820152608401610222565b6000908152600384016020526040902080546001600160a01b0319166001600160a01b038716179055505b5050505050565b60006109e9610b40565b9050600081816109fc602086018661164f565b6001600160a01b03908116825260208201929092526040016000208054909250163314610a915760405162461bcd60e51b815260206004820152603960248201527f526567697374726174696f6e4d6f64756c653a2073656e646572206973206e6f60448201527f7420746865206f776e6572206f662074686520656e74697479000000000000006064820152608401610222565b6000610a9c84610c46565b8051600184018054602084015161ffff908116620100000263ffffffff1990921693169290921791909117905560400151600283015550426003909101555050565b600080610ae9610b40565b6001600160a01b038416600090815260018201602052604090205490915060ff168015610b1a575060019392505050565b506001600160a01b03928316600090815260209190915260409020549091161515919050565b60408051808201909152601a81527f78722e726567697374726174696f6e2e76312e73746f7261676500000000000060209091015260008060ff610ba560017f298bb06b387cf42ef0d699a946970827af7863e6cebf6ab1f9ef36af7a9311636117e6565b604051602001610bb791815260200190565b60408051601f1981840301815291905280516020909101201692915050565b60608160005b8151811015610c3f57610c0e828281518110610bfa57610bfa6117f9565b01602001516001600160f81b031916610edf565b828281518110610c2057610c206117f9565b60200101906001600160f81b031916908160001a905350600101610bdc565b5092915050565b6040805160608101825260008082526020820181905291810182905290610c6b610b40565b905060008181610c7e602087018761164f565b6001600160a01b03166001600160a01b03168152602001908152602001600020905060008160000160009054906101000a90046001600160a01b031690506000816001600160a01b0316634173b4176040518163ffffffff1660e01b8152600401606060405180830381865afa158015610cfc573d6000803e3d6000fd5b505050506040513d601f19601f82011682018060405250810190610d20919061180f565b604080820151825160208085015184519182019390935261ffff918216818501529116606082015290880135608082015290915060009060a00160408051808303601f190181528282528051602091820120818452838301909252909250600091906020820181803683370190505090508160208201526000610da282610f2e565b90506000610df182610db760208d018d61185c565b8080601f016020809104026020016040519081016040528093929190818152602001838380828437600092019190915250610f6992505050565b9050610e0060208b018b61164f565b604051637df73e2760e01b81526001600160a01b0383811660048301529190911690637df73e2790602401602060405180830381865afa158015610e48573d6000803e3d6000fd5b505050506040513d601f19601f82011682018060405250810190610e6c91906118aa565b610ed15760405162461bcd60e51b815260206004820152603060248201527f42617365526567697374726174696f6e4d6f64756c653a20656e74697479207360448201526f1a59db985d1d5c99481a5b9d985b1a5960821b6064820152608401610222565b509298975050505050505050565b6000604160f81b6001600160f81b0319831610801590610f0d5750602d60f91b6001600160f81b0319831611155b15610f2a57610f2160f883901c60206118cc565b60f81b92915050565b5090565b6000610f3a8251610f93565b82604051602001610f4c9291906118e5565b604051602081830303815290604052805190602001209050919050565b600080600080610f798686611026565b925092509250610f898282611073565b5090949350505050565b60606000610fa083611130565b600101905060008167ffffffffffffffff811115610fc057610fc0611349565b6040519080825280601f01601f191660200182016040528015610fea576020820181803683370190505b5090508181016020015b600019016f181899199a1a9b1b9c1cb0b131b232b360811b600a86061a8153600a8504945084610ff457509392505050565b600080600083516041036110605760208401516040850151606086015160001a61105288828585611208565b95509550955050505061106c565b50508151600091506002905b9250925092565b600082600381111561108757611087611940565b03611090575050565b60018260038111156110a4576110a4611940565b036110c25760405163f645eedf60e01b815260040160405180910390fd5b60028260038111156110d6576110d6611940565b036110f75760405163fce698f760e01b815260048101829052602401610222565b600382600381111561110b5761110b611940565b0361112c576040516335e2f38360e21b815260048101829052602401610222565b5050565b60008072184f03e93ff9f4daa797ed6e38ed64bf6a1f0160401b831061116f5772184f03e93ff9f4daa797ed6e38ed64bf6a1f0160401b830492506040015b6d04ee2d6d415b85acef8100000000831061119b576d04ee2d6d415b85acef8100000000830492506020015b662386f26fc1000083106111b957662386f26fc10000830492506010015b6305f5e10083106111d1576305f5e100830492506008015b61271083106111e557612710830492506004015b606483106111f7576064830492506002015b600a83106101b85760010192915050565b600080807f7fffffffffffffffffffffffffffffff5d576e7357a4501ddfe92f46681b20a084111561124357506000915060039050826112cd565b604080516000808252602082018084528a905260ff891692820192909252606081018790526080810186905260019060a0016020604051602081039080840390855afa158015611297573d6000803e3d6000fd5b5050604051601f1901519150506001600160a01b0381166112c3575060009250600191508290506112cd565b9250600091508190505b9450945094915050565b600080602083850312156112ea57600080fd5b823567ffffffffffffffff8082111561130257600080fd5b818501915085601f83011261131657600080fd5b81358181111561132557600080fd5b86602082850101111561133757600080fd5b60209290920196919550909350505050565b634e487b7160e01b600052604160045260246000fd5b60405160c0810167ffffffffffffffff8111828210171561138257611382611349565b60405290565b6040516060810167ffffffffffffffff8111828210171561138257611382611349565b604051601f8201601f1916810167ffffffffffffffff811182821017156113d4576113d4611349565b604052919050565b80356001600160a01b03811681146113f357600080fd5b919050565b61ffff8116811461140857600080fd5b50565b600067ffffffffffffffff82111561142557611425611349565b50601f01601f191660200190565b600082601f83011261144457600080fd5b81356114576114528261140b565b6113ab565b81815284602083860101111561146c57600080fd5b816020850160208301376000918101602001919091529392505050565b600060c0828403121561149b57600080fd5b6114a361135f565b9050813567ffffffffffffffff808211156114bd57600080fd5b6114c985838601611433565b835260208401359150808211156114df57600080fd5b6114eb85838601611433565b6020840152604084013591508082111561150457600080fd5b5061151184828501611433565b604083015250606082013560608201526080820135608082015260a082013560a082015292915050565b60006020828403121561154d57600080fd5b813567ffffffffffffffff8082111561156557600080fd5b9083019081850360a081121561157a57600080fd5b611582611388565b61158b846113dc565b81526060601f198301121561159f57600080fd5b6115a7611388565b915060208401356115b7816113f8565b825260408401356115c7816113f8565b806020840152506060840135604083015281602082015260808401359150828211156115f257600080fd5b6115fe87838601611489565b60408201529695505050505050565b60006020828403121561161f57600080fd5b813567ffffffffffffffff81111561163657600080fd5b82016060818503121561164857600080fd5b9392505050565b60006020828403121561166157600080fd5b611648826113dc565b60005b8381101561168557818101518382015260200161166d565b50506000910152565b600082516116a081846020870161166a565b9190910192915050565b6000602082840312156116bc57600080fd5b815167ffffffffffffffff8111156116d357600080fd5b8201601f810184136116e457600080fd5b80516116f26114528261140b565b81815285602083850101111561170757600080fd5b61171882602083016020860161166a565b95945050505050565b6000815180845261173981602086016020860161166a565b601f01601f19169290920160200192915050565b602081526000825160c0602084015261176960e0840182611721565b90506020840151601f19808584030160408601526117878383611721565b92506040860151915080858403016060860152506117a58282611721565b91505060608401516080840152608084015160a084015260a084015160c08401528091505092915050565b634e487b7160e01b600052601160045260246000fd5b818103818111156101b8576101b86117d0565b634e487b7160e01b600052603260045260246000fd5b60006060828403121561182157600080fd5b611829611388565b8251611834816113f8565b81526020830151611844816113f8565b60208201526040928301519281019290925250919050565b6000808335601e1984360301811261187357600080fd5b83018035915067ffffffffffffffff82111561188e57600080fd5b6020019150368190038213156118a357600080fd5b9250929050565b6000602082840312156118bc57600080fd5b8151801515811461164857600080fd5b60ff81811683821601908111156101b8576101b86117d0565b7f19457468657265756d205369676e6564204d6573736167653a0a00000000000081526000835161191d81601a85016020880161166a565b83519083019061193481601a84016020880161166a565b01601a01949350505050565b634e487b7160e01b600052602160045260246000fdfea264697066735822122029cf68c8af22ea43def476a5bb180740132ff8d415174f6cc49850f8a97a3e5864736f6c63430008180033",
  "linkReferences": {
    "contracts/core-libs/LibVectorAddress.sol": {
      "LibVectorAddress": [
        {
          "length": 20,
          "start": 1398
        },
        {
          "length": 20,
          "start": 2294
        }
      ]
    }
  },
  "deployedLinkReferences": {
    "contracts/core-libs/LibVectorAddress.sol": {
      "LibVectorAddress": [
        {
          "length": 20,
          "start": 1340
        },
        {
          "length": 20,
          "start": 2236
        }
      ]
    }
  }
}