{
  "_format": "hh-sol-artifact-1",
  "contractName": "RegistrarRegistry",
  "sourceName": "contracts/registrar/registry/RegistrarRegistry.sol",
  "abi": [
    {
      "anonymous": false,
      "inputs": [
        {
          "indexed": false,
          "internalType": "address",
          "name": "newImpl",
          "type": "address"
        },
        {
          "components": [
            {
              "internalType": "uint16",
              "name": "major",
              "type": "uint16"
            },
            {
              "internalType": "uint16",
              "name": "minor",
              "type": "uint16"
            }
          ],
          "indexed": false,
          "internalType": "struct Version",
          "name": "version",
          "type": "tuple"
        }
      ],
      "name": "EntityImplementationSet",
      "type": "event"
    },
    {
      "anonymous": false,
      "inputs": [
        {
          "indexed": true,
          "internalType": "address",
          "name": "entity",
          "type": "address"
        },
        {
          "indexed": true,
          "internalType": "address",
          "name": "by",
          "type": "address"
        }
      ],
      "name": "EntityRegistrationRenewed",
      "type": "event"
    },
    {
      "anonymous": false,
      "inputs": [
        {
          "indexed": false,
          "internalType": "address",
          "name": "newImpl",
          "type": "address"
        }
      ],
      "name": "ProxyImplementationSet",
      "type": "event"
    },
    {
      "anonymous": false,
      "inputs": [
        {
          "indexed": true,
          "internalType": "address",
          "name": "entity",
          "type": "address"
        },
        {
          "indexed": true,
          "internalType": "address",
          "name": "owner",
          "type": "address"
        }
      ],
      "name": "RegistryAddedEntity",
      "type": "event"
    },
    {
      "anonymous": false,
      "inputs": [
        {
          "indexed": true,
          "internalType": "address",
          "name": "entity",
          "type": "address"
        },
        {
          "indexed": false,
          "internalType": "string",
          "name": "reason",
          "type": "string"
        }
      ],
      "name": "RegistryDeactivatedEntity",
      "type": "event"
    },
    {
      "anonymous": false,
      "inputs": [
        {
          "indexed": true,
          "internalType": "address",
          "name": "entity",
          "type": "address"
        }
      ],
      "name": "RegistryEnforcedDeactivation",
      "type": "event"
    },
    {
      "anonymous": false,
      "inputs": [
        {
          "indexed": true,
          "internalType": "address",
          "name": "entity",
          "type": "address"
        }
      ],
      "name": "RegistryEnforcedRemoval",
      "type": "event"
    },
    {
      "anonymous": false,
      "inputs": [
        {
          "indexed": true,
          "internalType": "address",
          "name": "entity",
          "type": "address"
        }
      ],
      "name": "RegistryReactivatedEntity",
      "type": "event"
    },
    {
      "anonymous": false,
      "inputs": [
        {
          "indexed": true,
          "internalType": "address",
          "name": "entity",
          "type": "address"
        },
        {
          "indexed": false,
          "internalType": "string",
          "name": "reason",
          "type": "string"
        }
      ],
      "name": "RegistryRemovedEntity",
      "type": "event"
    },
    {
      "anonymous": false,
      "inputs": [
        {
          "indexed": true,
          "internalType": "address",
          "name": "old",
          "type": "address"
        },
        {
          "indexed": false,
          "internalType": "address",
          "name": "newVersion",
          "type": "address"
        }
      ],
      "name": "RegistryUpgradedEntity",
      "type": "event"
    },
    {
      "anonymous": false,
      "inputs": [
        {
          "components": [
            {
              "internalType": "uint16",
              "name": "coveragePeriodDays",
              "type": "uint16"
            },
            {
              "internalType": "uint16",
              "name": "gracePeriodDays",
              "type": "uint16"
            },
            {
              "internalType": "uint256",
              "name": "fee",
              "type": "uint256"
            }
          ],
          "indexed": false,
          "internalType": "struct RegistrationTerms",
          "name": "newTerms",
          "type": "tuple"
        }
      ],
      "name": "TermsChanged",
      "type": "event"
    },
    {
      "inputs": [
        {
          "internalType": "address[]",
          "name": "signers",
          "type": "address[]"
        }
      ],
      "name": "addSigners",
      "outputs": [],
      "stateMutability": "nonpayable",
      "type": "function"
    },
    {
      "inputs": [
        {
          "internalType": "address",
          "name": "addr",
          "type": "address"
        }
      ],
      "name": "canBeDeactivated",
      "outputs": [
        {
          "internalType": "bool",
          "name": "",
          "type": "bool"
        }
      ],
      "stateMutability": "view",
      "type": "function"
    },
    {
      "inputs": [
        {
          "internalType": "address",
          "name": "addr",
          "type": "address"
        }
      ],
      "name": "canBeRemoved",
      "outputs": [
        {
          "internalType": "bool",
          "name": "",
          "type": "bool"
        }
      ],
      "stateMutability": "view",
      "type": "function"
    },
    {
      "inputs": [
        {
          "components": [
            {
              "internalType": "address",
              "name": "entity",
              "type": "address"
            },
            {
              "internalType": "bytes",
              "name": "entitySignature",
              "type": "bytes"
            },
            {
              "internalType": "uint256",
              "name": "expiration",
              "type": "uint256"
            }
          ],
          "internalType": "struct ChangeEntityTermsArgs",
          "name": "args",
          "type": "tuple"
        }
      ],
      "name": "changeEntityTerms",
      "outputs": [],
      "stateMutability": "nonpayable",
      "type": "function"
    },
    {
      "inputs": [
        {
          "components": [
            {
              "internalType": "bool",
              "name": "sendTokensToOwner",
              "type": "bool"
            },
            {
              "internalType": "address",
              "name": "owner",
              "type": "address"
            },
            {
              "internalType": "string",
              "name": "name",
              "type": "string"
            },
            {
              "internalType": "bytes",
              "name": "initData",
              "type": "bytes"
            },
            {
              "components": [
                {
                  "internalType": "uint16",
                  "name": "coveragePeriodDays",
                  "type": "uint16"
                },
                {
                  "internalType": "uint16",
                  "name": "gracePeriodDays",
                  "type": "uint16"
                },
                {
                  "internalType": "uint256",
                  "name": "fee",
                  "type": "uint256"
                }
              ],
              "internalType": "struct RegistrationTerms",
              "name": "terms",
              "type": "tuple"
            }
          ],
          "internalType": "struct CreateEntityArgs",
          "name": "args",
          "type": "tuple"
        }
      ],
      "name": "createRegistrar",
      "outputs": [
        {
          "internalType": "address",
          "name": "",
          "type": "address"
        }
      ],
      "stateMutability": "payable",
      "type": "function"
    },
    {
      "inputs": [
        {
          "internalType": "contract IRemovableEntity",
          "name": "entity",
          "type": "address"
        },
        {
          "internalType": "string",
          "name": "reason",
          "type": "string"
        }
      ],
      "name": "deactivateEntity",
      "outputs": [],
      "stateMutability": "nonpayable",
      "type": "function"
    },
    {
      "inputs": [
        {
          "internalType": "contract IRemovableEntity",
          "name": "addr",
          "type": "address"
        }
      ],
      "name": "enforceDeactivation",
      "outputs": [],
      "stateMutability": "nonpayable",
      "type": "function"
    },
    {
      "inputs": [
        {
          "internalType": "contract IRemovableEntity",
          "name": "e",
          "type": "address"
        }
      ],
      "name": "enforceRemoval",
      "outputs": [],
      "stateMutability": "nonpayable",
      "type": "function"
    },
    {
      "inputs": [],
      "name": "entityImplementation",
      "outputs": [
        {
          "internalType": "address",
          "name": "",
          "type": "address"
        }
      ],
      "stateMutability": "view",
      "type": "function"
    },
    {
      "inputs": [
        {
          "internalType": "string",
          "name": "nm",
          "type": "string"
        }
      ],
      "name": "getEntityByName",
      "outputs": [
        {
          "internalType": "address",
          "name": "",
          "type": "address"
        }
      ],
      "stateMutability": "view",
      "type": "function"
    },
    {
      "inputs": [
        {
          "internalType": "address",
          "name": "addr",
          "type": "address"
        }
      ],
      "name": "getEntityTerms",
      "outputs": [
        {
          "components": [
            {
              "internalType": "uint16",
              "name": "coveragePeriodDays",
              "type": "uint16"
            },
            {
              "internalType": "uint16",
              "name": "gracePeriodDays",
              "type": "uint16"
            },
            {
              "internalType": "uint256",
              "name": "fee",
              "type": "uint256"
            }
          ],
          "internalType": "struct RegistrationTerms",
          "name": "",
          "type": "tuple"
        }
      ],
      "stateMutability": "view",
      "type": "function"
    },
    {
      "inputs": [
        {
          "internalType": "address",
          "name": "addr",
          "type": "address"
        }
      ],
      "name": "getExpiration",
      "outputs": [
        {
          "internalType": "uint256",
          "name": "",
          "type": "uint256"
        }
      ],
      "stateMutability": "view",
      "type": "function"
    },
    {
      "inputs": [
        {
          "internalType": "address",
          "name": "addr",
          "type": "address"
        }
      ],
      "name": "getLastRenewal",
      "outputs": [
        {
          "internalType": "uint256",
          "name": "",
          "type": "uint256"
        }
      ],
      "stateMutability": "view",
      "type": "function"
    },
    {
      "inputs": [],
      "name": "getTerms",
      "outputs": [
        {
          "components": [
            {
              "internalType": "uint16",
              "name": "coveragePeriodDays",
              "type": "uint16"
            },
            {
              "internalType": "uint16",
              "name": "gracePeriodDays",
              "type": "uint16"
            },
            {
              "internalType": "uint256",
              "name": "fee",
              "type": "uint256"
            }
          ],
          "internalType": "struct RegistrationTerms",
          "name": "",
          "type": "tuple"
        }
      ],
      "stateMutability": "view",
      "type": "function"
    },
    {
      "inputs": [
        {
          "internalType": "bytes32",
          "name": "role",
          "type": "bytes32"
        },
        {
          "internalType": "address",
          "name": "account",
          "type": "address"
        }
      ],
      "name": "grantRole",
      "outputs": [],
      "stateMutability": "nonpayable",
      "type": "function"
    },
    {
      "inputs": [
        {
          "internalType": "bytes32",
          "name": "role",
          "type": "bytes32"
        },
        {
          "internalType": "address",
          "name": "account",
          "type": "address"
        }
      ],
      "name": "hasRole",
      "outputs": [
        {
          "internalType": "bool",
          "name": "",
          "type": "bool"
        }
      ],
      "stateMutability": "view",
      "type": "function"
    },
    {
      "inputs": [
        {
          "internalType": "address",
          "name": "addr",
          "type": "address"
        }
      ],
      "name": "isExpired",
      "outputs": [
        {
          "internalType": "bool",
          "name": "",
          "type": "bool"
        }
      ],
      "stateMutability": "view",
      "type": "function"
    },
    {
      "inputs": [
        {
          "internalType": "address",
          "name": "addr",
          "type": "address"
        }
      ],
      "name": "isInGracePeriod",
      "outputs": [
        {
          "internalType": "bool",
          "name": "",
          "type": "bool"
        }
      ],
      "stateMutability": "view",
      "type": "function"
    },
    {
      "inputs": [
        {
          "internalType": "address",
          "name": "addr",
          "type": "address"
        }
      ],
      "name": "isRegistered",
      "outputs": [
        {
          "internalType": "bool",
          "name": "",
          "type": "bool"
        }
      ],
      "stateMutability": "view",
      "type": "function"
    },
    {
      "inputs": [
        {
          "internalType": "address",
          "name": "a",
          "type": "address"
        }
      ],
      "name": "isSigner",
      "outputs": [
        {
          "internalType": "bool",
          "name": "",
          "type": "bool"
        }
      ],
      "stateMutability": "view",
      "type": "function"
    },
    {
      "inputs": [],
      "name": "isStillActive",
      "outputs": [
        {
          "internalType": "bool",
          "name": "",
          "type": "bool"
        }
      ],
      "stateMutability": "pure",
      "type": "function"
    },
    {
      "inputs": [
        {
          "internalType": "address",
          "name": "a",
          "type": "address"
        }
      ],
      "name": "isTermsOwnerSigner",
      "outputs": [
        {
          "internalType": "bool",
          "name": "",
          "type": "bool"
        }
      ],
      "stateMutability": "view",
      "type": "function"
    },
    {
      "inputs": [],
      "name": "owner",
      "outputs": [
        {
          "internalType": "address",
          "name": "",
          "type": "address"
        }
      ],
      "stateMutability": "view",
      "type": "function"
    },
    {
      "inputs": [],
      "name": "proxyImplementation",
      "outputs": [
        {
          "internalType": "address",
          "name": "",
          "type": "address"
        }
      ],
      "stateMutability": "view",
      "type": "function"
    },
    {
      "inputs": [
        {
          "internalType": "contract IRemovableEntity",
          "name": "entity",
          "type": "address"
        }
      ],
      "name": "reactivateEntity",
      "outputs": [],
      "stateMutability": "nonpayable",
      "type": "function"
    },
    {
      "inputs": [
        {
          "internalType": "contract IRemovableEntity",
          "name": "entity",
          "type": "address"
        },
        {
          "internalType": "string",
          "name": "reason",
          "type": "string"
        }
      ],
      "name": "removeEntity",
      "outputs": [],
      "stateMutability": "nonpayable",
      "type": "function"
    },
    {
      "inputs": [
        {
          "internalType": "address[]",
          "name": "signers",
          "type": "address[]"
        }
      ],
      "name": "removeSigners",
      "outputs": [],
      "stateMutability": "nonpayable",
      "type": "function"
    },
    {
      "inputs": [
        {
          "internalType": "address",
          "name": "addr",
          "type": "address"
        }
      ],
      "name": "renewEntity",
      "outputs": [],
      "stateMutability": "payable",
      "type": "function"
    },
    {
      "inputs": [
        {
          "internalType": "bytes32",
          "name": "role",
          "type": "bytes32"
        },
        {
          "internalType": "address",
          "name": "account",
          "type": "address"
        }
      ],
      "name": "revokeRole",
      "outputs": [],
      "stateMutability": "nonpayable",
      "type": "function"
    },
    {
      "inputs": [
        {
          "internalType": "address",
          "name": "newImpl",
          "type": "address"
        }
      ],
      "name": "setEntityImplementation",
      "outputs": [],
      "stateMutability": "nonpayable",
      "type": "function"
    },
    {
      "inputs": [
        {
          "internalType": "address",
          "name": "o",
          "type": "address"
        }
      ],
      "name": "setOwner",
      "outputs": [],
      "stateMutability": "nonpayable",
      "type": "function"
    },
    {
      "inputs": [
        {
          "internalType": "address",
          "name": "newImpl",
          "type": "address"
        }
      ],
      "name": "setProxyImplementation",
      "outputs": [],
      "stateMutability": "nonpayable",
      "type": "function"
    },
    {
      "inputs": [
        {
          "components": [
            {
              "internalType": "uint16",
              "name": "coveragePeriodDays",
              "type": "uint16"
            },
            {
              "internalType": "uint16",
              "name": "gracePeriodDays",
              "type": "uint16"
            },
            {
              "internalType": "uint256",
              "name": "fee",
              "type": "uint256"
            }
          ],
          "internalType": "struct RegistrationTerms",
          "name": "terms",
          "type": "tuple"
        }
      ],
      "name": "setTerms",
      "outputs": [],
      "stateMutability": "nonpayable",
      "type": "function"
    },
    {
      "inputs": [
        {
          "internalType": "bytes",
          "name": "data",
          "type": "bytes"
        }
      ],
      "name": "upgradeEntity",
      "outputs": [],
      "stateMutability": "nonpayable",
      "type": "function"
    },
    {
      "inputs": [],
      "name": "version",
      "outputs": [
        {
          "components": [
            {
              "internalType": "uint16",
              "name": "major",
              "type": "uint16"
            },
            {
              "internalType": "uint16",
              "name": "minor",
              "type": "uint16"
            }
          ],
          "internalType": "struct Version",
          "name": "",
          "type": "tuple"
        }
      ],
      "stateMutability": "pure",
      "type": "function"
    },
    {
      "stateMutability": "payable",
      "type": "receive"
    }
  ],
  "bytecode": "0x608060405234801561001057600080fd5b5061268b806100206000396000f3fe6080604052600436106102085760003560e01c806391d1485411610118578063cc437f3d116100a0578063e2482bf91161006f578063e2482bf914610604578063e8906a2d14610624578063f2c7c9fe14610644578063f82e2fb314610659578063f92dc24f1461067957600080fd5b8063cc437f3d14610591578063cdbe2211146105b1578063d547741f146105d1578063d6fbe020146105f157600080fd5b8063af08d53d116100e7578063af08d53d146104f1578063b6db923d14610511578063ba2eb54114610531578063c3c5a54714610551578063c625e0ad1461057157600080fd5b806391d148541461047e5780639fdcd3a41461049e578063a8c88c17146104be578063ae9ae34d146104de57600080fd5b80634ae134cc1161019b5780635726c94e1161016a5780635726c94e146103e9578063693c79b2146104095780637df73e27146104295780638d361e43146104495780638da5cb5b1461046957600080fd5b80634ae134cc1461033a5780634ec70a481461035a5780634f05c1c81461038857806354fd4d501461039c57600080fd5b806313af4035116101d757806313af4035146102b85780632f2ff15d146102d85780633e88a4e2146102f85780634173b4171461031857600080fd5b806301f2423014610214578063033a5b60146102365780630a7ee8a0146102565780630c870f911461028b57600080fd5b3661020f57005b600080fd5b34801561022057600080fd5b5061023461022f366004611dcb565b610699565b005b34801561024257600080fd5b50610234610251366004611e31565b610708565b34801561026257600080fd5b50610276610271366004611dcb565b610824565b60405190151581526020015b60405180910390f35b34801561029757600080fd5b506102a061092c565b6040516001600160a01b039091168152602001610282565b3480156102c457600080fd5b506102346102d3366004611dcb565b610945565b3480156102e457600080fd5b506102346102f3366004611e86565b610a22565b34801561030457600080fd5b506102a0610313366004611eb6565b610b3c565b34801561032457600080fd5b5061032d610bc0565b6040516102829190611ef8565b34801561034657600080fd5b50610234610355366004611dcb565b610c44565b34801561036657600080fd5b5061037a610375366004611dcb565b610c84565b604051908152602001610282565b34801561039457600080fd5b506001610276565b3480156103a857600080fd5b50604080518082018252600080825260209182018190528251808401845260018082529083019182528351908152905161ffff169181019190915201610282565b3480156103f557600080fd5b5061037a610404366004611dcb565b610d04565b34801561041557600080fd5b50610234610424366004611dcb565b610d47565b34801561043557600080fd5b50610276610444366004611dcb565b610e2a565b34801561045557600080fd5b50610234610464366004611f22565b610e6d565b34801561047557600080fd5b506102a0610f49565b34801561048a57600080fd5b50610276610499366004611e86565b610fbd565b3480156104aa57600080fd5b506102346104b9366004611dcb565b611043565b3480156104ca57600080fd5b506102766104d9366004611dcb565b611167565b6102a06104ec366004611f97565b6111aa565b3480156104fd57600080fd5b5061023461050c366004611e31565b6114b0565b34801561051d57600080fd5b5061027661052c366004611dcb565b61158e565b34801561053d57600080fd5b5061027661054c366004611dcb565b6115d1565b34801561055d57600080fd5b5061027661056c366004611dcb565b611614565b34801561057d57600080fd5b5061023461058c366004611eb6565b611657565b34801561059d57600080fd5b506102346105ac366004611fea565b6116fd565b3480156105bd57600080fd5b506102346105cc366004611dcb565b6117d7565b3480156105dd57600080fd5b506102346105ec366004611e86565b6118e0565b6102346105ff366004611dcb565b6119ca565b34801561061057600080fd5b5061027661061f366004611dcb565b611a0a565b34801561063057600080fd5b5061023461063f366004611f22565b611a4d565b34801561065057600080fd5b506102a0611b29565b34801561066557600080fd5b5061032d610674366004611dcb565b611b45565b34801561068557600080fd5b50610234610694366004612027565b611bda565b604051630a53217360e11b81526001600160a01b038216600482015273__$ee49c705f117fb4936e35217b9f7544d1c$__906314a642e6906024015b60006040518083038186803b1580156106ed57600080fd5b505af4158015610701573d6000803e3d6000fd5b5050505050565b604051632474521560e21b8152600080516020612616833981519152600482015233602482015273__$822621bbfca0653c95de9b91f8a9786d65$__906391d1485490604401602060405180830381865af415801561076b573d6000803e3d6000fd5b505050506040513d601f19601f8201168201806040525081019061078f9190612051565b6107b45760405162461bcd60e51b81526004016107ab9061206e565b60405180910390fd5b60405163ede71a1760e01b815273__$ee49c705f117fb4936e35217b9f7544d1c$__9063ede71a17906107ef908690869086906004016120da565b60006040518083038186803b15801561080757600080fd5b505af415801561081b573d6000803e3d6000fd5b50505050505050565b604051630935e01b60e21b81526001600160a01b038216600482015260009073__$822621bbfca0653c95de9b91f8a9786d65$__906324d7806c90602401602060405180830381865af415801561087f573d6000803e3d6000fd5b505050506040513d601f19601f820116820180604052508101906108a39190612051565b806109265750604051637df73e2760e01b81526001600160a01b038316600482015273__$822621bbfca0653c95de9b91f8a9786d65$__90637df73e27906024015b602060405180830381865af4158015610902573d6000803e3d6000fd5b505050506040513d601f19601f820116820180604052508101906109269190612051565b92915050565b6000610936611cbf565b546001600160a01b0316919050565b336001600160a01b031673__$822621bbfca0653c95de9b91f8a9786d65$__638da5cb5b6040518163ffffffff1660e01b8152600401602060405180830381865af4158015610998573d6000803e3d6000fd5b505050506040513d601f19601f820116820180604052508101906109bc91906120ff565b6001600160a01b0316146109e25760405162461bcd60e51b81526004016107ab9061211c565b6040516313af403560e01b81526001600160a01b038216600482015273__$822621bbfca0653c95de9b91f8a9786d65$__906313af4035906024016106d5565b604051632474521560e21b8152600080516020612636833981519152600482015233602482015273__$822621bbfca0653c95de9b91f8a9786d65$__906391d1485490604401602060405180830381865af4158015610a85573d6000803e3d6000fd5b505050506040513d601f19601f82011682018060405250810190610aa99190612051565b610ac55760405162461bcd60e51b81526004016107ab90612160565b604051632f2ff15d60e01b8152600481018390526001600160a01b038216602482015273__$822621bbfca0653c95de9b91f8a9786d65$__90632f2ff15d906044015b60006040518083038186803b158015610b2057600080fd5b505af4158015610b34573d6000803e3d6000fd5b505050505050565b604051631f44527160e11b815260009073__$32437e42385d73f689821cf4d1e60a07a7$__90633e88a4e290610b7890869086906004016121a3565b602060405180830381865af4158015610b95573d6000803e3d6000fd5b505050506040513d601f19601f82011682018060405250810190610bb991906120ff565b9392505050565b6040805160608101825260008082526020820181905291810191909152610be5611d4e565b7f56050b91f82d5780c832e976e22220832a9873ec55a787a7485576f2b0f534cd600090815260209182526040908190208151606081018352815461ffff80821683526201000090910416938101939093526001015490820152919050565b6040516347ef542760e01b81526001600160a01b038216600482015273__$ee49c705f117fb4936e35217b9f7544d1c$__906347ef5427906024016106d5565b6040516309d8e14960e31b81526001600160a01b038216600482015260009073__$ee49c705f117fb4936e35217b9f7544d1c$__90634ec70a48906024015b602060405180830381865af4158015610ce0573d6000803e3d6000fd5b505050506040513d601f19601f8201168201806040525081019061092691906121b7565b604051632b9364a760e11b81526001600160a01b038216600482015260009073__$ee49c705f117fb4936e35217b9f7544d1c$__90635726c94e90602401610cc3565b604051632474521560e21b8152600080516020612616833981519152600482015233602482015273__$822621bbfca0653c95de9b91f8a9786d65$__906391d1485490604401602060405180830381865af4158015610daa573d6000803e3d6000fd5b505050506040513d601f19601f82011682018060405250810190610dce9190612051565b610dea5760405162461bcd60e51b81526004016107ab9061206e565b60405163699f380760e11b81526001600160a01b038216600482015273__$ee49c705f117fb4936e35217b9f7544d1c$__9063d33e700e906024016106d5565b604051637df73e2760e01b81526001600160a01b038216600482015260009073__$822621bbfca0653c95de9b91f8a9786d65$__90637df73e27906024016108e5565b604051632474521560e21b8152600080516020612636833981519152600482015233602482015273__$822621bbfca0653c95de9b91f8a9786d65$__906391d1485490604401602060405180830381865af4158015610ed0573d6000803e3d6000fd5b505050506040513d601f19601f82011682018060405250810190610ef49190612051565b610f105760405162461bcd60e51b81526004016107ab90612160565b604051638d361e4360e01b815273__$822621bbfca0653c95de9b91f8a9786d65$__90638d361e4390610b0890859085906004016121d0565b600073__$822621bbfca0653c95de9b91f8a9786d65$__638da5cb5b6040518163ffffffff1660e01b8152600401602060405180830381865af4158015610f94573d6000803e3d6000fd5b505050506040513d601f19601f82011682018060405250810190610fb891906120ff565b905090565b604051632474521560e21b8152600481018390526001600160a01b038216602482015260009073__$822621bbfca0653c95de9b91f8a9786d65$__906391d1485490604401602060405180830381865af415801561101f573d6000803e3d6000fd5b505050506040513d601f19601f82011682018060405250810190610bb99190612051565b604051632474521560e21b8152600080516020612636833981519152600482015233602482015273__$822621bbfca0653c95de9b91f8a9786d65$__906391d1485490604401602060405180830381865af41580156110a6573d6000803e3d6000fd5b505050506040513d601f19601f820116820180604052508101906110ca9190612051565b6110e65760405162461bcd60e51b81526004016107ab90612160565b6001600160a01b03811661110c5760405162461bcd60e51b81526004016107ab9061221e565b80611115611cbf565b80546001600160a01b0319166001600160a01b0392831617905560405190821681527fa09f0ddcda4b1ceaf9e4ad27d689072fdc68f0bead8c52522aec032b3cdcbfa69060200160405180910390a150565b60405163a8c88c1760e01b81526001600160a01b038216600482015260009073__$ee49c705f117fb4936e35217b9f7544d1c$__9063a8c88c17906024016108e5565b604051632474521560e21b8152600080516020612616833981519152600482015233602482015260009073__$822621bbfca0653c95de9b91f8a9786d65$__906391d1485490604401602060405180830381865af4158015611210573d6000803e3d6000fd5b505050506040513d601f19601f820116820180604052508101906112349190612051565b6112505760405162461bcd60e51b81526004016107ab9061206e565b6040805160e081018252600060c082018181528252825160208181018552828252808401919091528351808201855282815283850152606083018290526080830182905260a080840183905284519081018552929391929182916112b8918801908801611dcb565b6001600160a01b031681523060208201526040908101906112db90870187612271565b8080601f016020809104026020016040519081016040528093929190818152602001838380828437600092019190915250505090825250602081018490526040016113296060870187612271565b8080601f01602080910402602001604051908101604052809392919081815260200183838082843760009201829052509390945250506040805180820190915283815292935091905060208101611388368890038801608089016122ff565b90526040516317a040f760e01b815290915060009073__$e07c5d0b16f026aa0f47759b73b50cc142$__906317a040f7906113c7908590600401612392565b602060405180830381865af41580156113e4573d6000803e3d6000fd5b505050506040513d601f19601f8201168201806040525081019061140891906120ff565b905034156114a75761141d60208701876124a5565b15611470576114326040870160208801611dcb565b6001600160a01b03166108fc349081150290604051600060405180830381858888f1935050505015801561146a573d6000803e3d6000fd5b506114a7565b6040516001600160a01b038216903480156108fc02916000818181858888f193505050501580156114a5573d6000803e3d6000fd5b505b95945050505050565b604051632474521560e21b8152600080516020612616833981519152600482015233602482015273__$822621bbfca0653c95de9b91f8a9786d65$__906391d1485490604401602060405180830381865af4158015611513573d6000803e3d6000fd5b505050506040513d601f19601f820116820180604052508101906115379190612051565b6115535760405162461bcd60e51b81526004016107ab9061206e565b604051633f111a5d60e21b815273__$ee49c705f117fb4936e35217b9f7544d1c$__9063fc446974906107ef908690869086906004016120da565b60405163b6db923d60e01b81526001600160a01b038216600482015260009073__$ee49c705f117fb4936e35217b9f7544d1c$__9063b6db923d906024016108e5565b60405163ba2eb54160e01b81526001600160a01b038216600482015260009073__$ee49c705f117fb4936e35217b9f7544d1c$__9063ba2eb541906024016108e5565b60405163c3c5a54760e01b81526001600160a01b038216600482015260009073__$32437e42385d73f689821cf4d1e60a07a7$__9063c3c5a547906024016108e5565b61166033611614565b6116c45760405162461bcd60e51b815260206004820152602f60248201527f4261736552656769737472793a2063616c6c6572206973206e6f74206120726560448201526e676973746572656420656e7469747960881b60648201526084016107ab565b60405163c625e0ad60e01b815273__$e07c5d0b16f026aa0f47759b73b50cc142$__9063c625e0ad90610b0890859085906004016121a3565b604051632474521560e21b8152600080516020612616833981519152600482015233602482015273__$822621bbfca0653c95de9b91f8a9786d65$__906391d1485490604401602060405180830381865af4158015611760573d6000803e3d6000fd5b505050506040513d601f19601f820116820180604052508101906117849190612051565b6117a05760405162461bcd60e51b81526004016107ab9061206e565b604051630bca13f760e41b815273__$32437e42385d73f689821cf4d1e60a07a7$__9063bca13f70906106d59084906004016124c2565b604051632474521560e21b8152600080516020612636833981519152600482015233602482015273__$822621bbfca0653c95de9b91f8a9786d65$__906391d1485490604401602060405180830381865af415801561183a573d6000803e3d6000fd5b505050506040513d601f19601f8201168201806040525081019061185e9190612051565b61187a5760405162461bcd60e51b81526004016107ab90612160565b6001600160a01b0381166118a05760405162461bcd60e51b81526004016107ab9061221e565b60405163cdbe221160e01b81526001600160a01b038216600482015273__$e07c5d0b16f026aa0f47759b73b50cc142$__9063cdbe2211906024016106d5565b604051632474521560e21b8152600080516020612636833981519152600482015233602482015273__$822621bbfca0653c95de9b91f8a9786d65$__906391d1485490604401602060405180830381865af4158015611943573d6000803e3d6000fd5b505050506040513d601f19601f820116820180604052508101906119679190612051565b6119835760405162461bcd60e51b81526004016107ab90612160565b60405163d547741f60e01b8152600481018390526001600160a01b038216602482015273__$822621bbfca0653c95de9b91f8a9786d65$__9063d547741f90604401610b08565b6040516306b7df0160e51b81526001600160a01b038216600482015273__$ee49c705f117fb4936e35217b9f7544d1c$__9063d6fbe020906024016106d5565b60405163e2482bf960e01b81526001600160a01b038216600482015260009073__$ee49c705f117fb4936e35217b9f7544d1c$__9063e2482bf9906024016108e5565b604051632474521560e21b8152600080516020612636833981519152600482015233602482015273__$822621bbfca0653c95de9b91f8a9786d65$__906391d1485490604401602060405180830381865af4158015611ab0573d6000803e3d6000fd5b505050506040513d601f19601f82011682018060405250810190611ad49190612051565b611af05760405162461bcd60e51b81526004016107ab90612160565b60405163e8906a2d60e01b815273__$822621bbfca0653c95de9b91f8a9786d65$__9063e8906a2d90610b0890859085906004016121d0565b6000611b33611cbf565b600101546001600160a01b0316919050565b6040805160608101825260008082526020820181905281830152905163f82e2fb360e01b81526001600160a01b038316600482015273__$ee49c705f117fb4936e35217b9f7544d1c$__9063f82e2fb390602401606060405180830381865af4158015611bb6573d6000803e3d6000fd5b505050506040513d601f19601f820116820180604052508101906109269190612553565b336001600160a01b031673__$822621bbfca0653c95de9b91f8a9786d65$__638da5cb5b6040518163ffffffff1660e01b8152600401602060405180830381865af4158015611c2d573d6000803e3d6000fd5b505050506040513d601f19601f82011682018060405250810190611c5191906120ff565b6001600160a01b031614611c775760405162461bcd60e51b81526004016107ab9061211c565b80611c80611d4e565b7f56050b91f82d5780c832e976e22220832a9873ec55a787a7485576f2b0f534cd600090815260209190915260409020611cba82826125a0565b505050565b60408051808201909152601681527578722e72656769737472792e73746f726167652e763160501b60209091015260008060ff611d1d60017fc5f6dd0a16ba2679a801f9aed1d229beafc737458cf016d01db07e1357fb69f06125f4565b604051602001611d2f91815260200190565b60408051601f1981840301815291905280516020909101201692915050565b60408051808201909152601981527f78722e7465726d732e6f776e65722e76312e73746f726167650000000000000060209091015260008060ff611d1d60017f6274f56e891028f724b0a56de72de004867f1de7f1819ab332079272d9c19f106125f4565b6001600160a01b0381168114611dc857600080fd5b50565b600060208284031215611ddd57600080fd5b8135610bb981611db3565b60008083601f840112611dfa57600080fd5b50813567ffffffffffffffff811115611e1257600080fd5b602083019150836020828501011115611e2a57600080fd5b9250929050565b600080600060408486031215611e4657600080fd5b8335611e5181611db3565b9250602084013567ffffffffffffffff811115611e6d57600080fd5b611e7986828701611de8565b9497909650939450505050565b60008060408385031215611e9957600080fd5b823591506020830135611eab81611db3565b809150509250929050565b60008060208385031215611ec957600080fd5b823567ffffffffffffffff811115611ee057600080fd5b611eec85828601611de8565b90969095509350505050565b815161ffff9081168252602080840151909116908201526040808301519082015260608101610926565b60008060208385031215611f3557600080fd5b823567ffffffffffffffff80821115611f4d57600080fd5b818501915085601f830112611f6157600080fd5b813581811115611f7057600080fd5b8660208260051b8501011115611f8557600080fd5b60209290920196919550909350505050565b600060208284031215611fa957600080fd5b813567ffffffffffffffff811115611fc057600080fd5b820160e08185031215610bb957600080fd5b600060608284031215611fe457600080fd5b50919050565b600060208284031215611ffc57600080fd5b813567ffffffffffffffff81111561201357600080fd5b61201f84828501611fd2565b949350505050565b60006060828403121561203957600080fd5b610bb98383611fd2565b8015158114611dc857600080fd5b60006020828403121561206357600080fd5b8151610bb981612043565b60208082526023908201527f42617365436f72654170703a2063616c6c6572206973206e6f742061207369676040820152623732b960e91b606082015260800190565b81835281816020850137506000828201602090810191909152601f909101601f19169091010190565b6001600160a01b03841681526040602082018190526000906114a790830184866120b1565b60006020828403121561211157600080fd5b8151610bb981611db3565b60208082526024908201527f42617365436f72654170703a2063616c6c6572206973206e6f7420746865206f6040820152633bb732b960e11b606082015260800190565b60208082526023908201527f42617365436f72654170703a2063616c6c6572206973206e6f7420616e20616460408201526236b4b760e91b606082015260800190565b60208152600061201f6020830184866120b1565b6000602082840312156121c957600080fd5b5051919050565b60208082528181018390526000908460408401835b868110156122135782356121f881611db3565b6001600160a01b0316825291830191908301906001016121e5565b509695505050505050565b60208082526033908201527f4261736552656769737472793a20696d706c656d656e746174696f6e2063616e6040820152726e6f74206265207a65726f206164647265737360681b606082015260800190565b6000808335601e1984360301811261228857600080fd5b83018035915067ffffffffffffffff8211156122a357600080fd5b602001915036819003821315611e2a57600080fd5b6040516060810167ffffffffffffffff811182821017156122e957634e487b7160e01b600052604160045260246000fd5b60405290565b61ffff81168114611dc857600080fd5b60006060828403121561231157600080fd5b6123196122b8565b8235612324816122ef565b81526020830135612334816122ef565b60208201526040928301359281019290925250919050565b6000815180845260005b8181101561237257602081850181015186830182015201612356565b506000602082860101526020601f19601f83011685010191505092915050565b60006020808352835160808285015260018060a01b038082511660a086015280838301511660c086015250604081015160a060e08601526123d761014086018261234c565b90506060820151609f198087840301610100880152815160c084526123ff60c085018261234c565b90508583015184820387860152612416828261234c565b91505060408301518482036040860152612430828261234c565b915050606083015160608501526080830151608085015260a083015160a085015260808501519450818882030161012089015261246d818661234c565b94505050505081850151915061201f604085018361ffff80825116835280602083015116602084015250604081015160408301525050565b6000602082840312156124b757600080fd5b8135610bb981612043565b60208152600082356124d381611db3565b6001600160a01b031660208381019190915283013536849003601e190181126124fb57600080fd5b830160208101903567ffffffffffffffff81111561251857600080fd5b80360382131561252757600080fd5b6060604085015261253c6080850182846120b1565b915050604084013560608401528091505092915050565b60006060828403121561256557600080fd5b61256d6122b8565b8251612578816122ef565b81526020830151612588816122ef565b60208201526040928301519281019290925250919050565b81356125ab816122ef565b61ffff8116905081548161ffff19821617835560208401356125cc816122ef565b63ffff00008160101b168363ffffffff19841617178455505050604082013560018201555050565b8181038181111561092657634e487b7160e01b600052601160045260246000fdfe749410edf1177aefa27612b24d2d51e6441f89613f5ddf9be1d11dfc0d3e4fea2172861495e7b85edac73e3cd5fbb42dd675baadf627720e687bcfdaca025096a2646970667358221220683ffc689d1362ca7f8361d2c24232624a18b43d64b51e4e3977e4a71916173964736f6c63430008180033",
  "linkReferences": {
    "contracts/core-libs/LibAccess.sol": {
      "LibAccess": [
        {
          "length": 20,
          "start": 1873
        },
        {
          "length": 20,
          "start": 2149
        },
        {
          "length": 20,
          "start": 2279
        },
        {
          "length": 20,
          "start": 2417
        },
        {
          "length": 20,
          "start": 2592
        },
        {
          "length": 20,
          "start": 2667
        },
        {
          "length": 20,
          "start": 2826
        },
        {
          "length": 20,
          "start": 3472
        },
        {
          "length": 20,
          "start": 3691
        },
        {
          "length": 20,
          "start": 3766
        },
        {
          "length": 20,
          "start": 3903
        },
        {
          "length": 20,
          "start": 3949
        },
        {
          "length": 20,
          "start": 4101
        },
        {
          "length": 20,
          "start": 4236
        },
        {
          "length": 20,
          "start": 4598
        },
        {
          "length": 20,
          "start": 5369
        },
        {
          "length": 20,
          "start": 5958
        },
        {
          "length": 20,
          "start": 6176
        },
        {
          "length": 20,
          "start": 6441
        },
        {
          "length": 20,
          "start": 6600
        },
        {
          "length": 20,
          "start": 6806
        },
        {
          "length": 20,
          "start": 6943
        },
        {
          "length": 20,
          "start": 7174
        }
      ]
    },
    "contracts/core-libs/LibRegistry.sol": {
      "LibRegistry": [
        {
          "length": 20,
          "start": 5055
        },
        {
          "length": 20,
          "start": 5875
        },
        {
          "length": 20,
          "start": 6366
        }
      ]
    },
    "contracts/entity-libs/registration/LibRegistration.sol": {
      "LibRegistration": [
        {
          "length": 20,
          "start": 2926
        },
        {
          "length": 20,
          "start": 5717
        },
        {
          "length": 20,
          "start": 6095
        }
      ]
    },
    "contracts/entity-libs/removal/LibEntityRemoval.sol": {
      "LibEntityRemoval": [
        {
          "length": 20,
          "start": 1751
        },
        {
          "length": 20,
          "start": 2019
        },
        {
          "length": 20,
          "start": 3202
        },
        {
          "length": 20,
          "start": 3269
        },
        {
          "length": 20,
          "start": 3397
        },
        {
          "length": 20,
          "start": 3624
        },
        {
          "length": 20,
          "start": 4520
        },
        {
          "length": 20,
          "start": 5506
        },
        {
          "length": 20,
          "start": 5583
        },
        {
          "length": 20,
          "start": 5650
        },
        {
          "length": 20,
          "start": 6664
        },
        {
          "length": 20,
          "start": 6731
        },
        {
          "length": 20,
          "start": 7068
        }
      ]
    }
  },
  "deployedLinkReferences": {
    "contracts/core-libs/LibAccess.sol": {
      "LibAccess": [
        {
          "length": 20,
          "start": 1841
        },
        {
          "length": 20,
          "start": 2117
        },
        {
          "length": 20,
          "start": 2247
        },
        {
          "length": 20,
          "start": 2385
        },
        {
          "length": 20,
          "start": 2560
        },
        {
          "length": 20,
          "start": 2635
        },
        {
          "length": 20,
          "start": 2794
        },
        {
          "length": 20,
          "start": 3440
        },
        {
          "length": 20,
          "start": 3659
        },
        {
          "length": 20,
          "start": 3734
        },
        {
          "length": 20,
          "start": 3871
        },
        {
          "length": 20,
          "start": 3917
        },
        {
          "length": 20,
          "start": 4069
        },
        {
          "length": 20,
          "start": 4204
        },
        {
          "length": 20,
          "start": 4566
        },
        {
          "length": 20,
          "start": 5337
        },
        {
          "length": 20,
          "start": 5926
        },
        {
          "length": 20,
          "start": 6144
        },
        {
          "length": 20,
          "start": 6409
        },
        {
          "length": 20,
          "start": 6568
        },
        {
          "length": 20,
          "start": 6774
        },
        {
          "length": 20,
          "start": 6911
        },
        {
          "length": 20,
          "start": 7142
        }
      ]
    },
    "contracts/core-libs/LibRegistry.sol": {
      "LibRegistry": [
        {
          "length": 20,
          "start": 5023
        },
        {
          "length": 20,
          "start": 5843
        },
        {
          "length": 20,
          "start": 6334
        }
      ]
    },
    "contracts/entity-libs/registration/LibRegistration.sol": {
      "LibRegistration": [
        {
          "length": 20,
          "start": 2894
        },
        {
          "length": 20,
          "start": 5685
        },
        {
          "length": 20,
          "start": 6063
        }
      ]
    },
    "contracts/entity-libs/removal/LibEntityRemoval.sol": {
      "LibEntityRemoval": [
        {
          "length": 20,
          "start": 1719
        },
        {
          "length": 20,
          "start": 1987
        },
        {
          "length": 20,
          "start": 3170
        },
        {
          "length": 20,
          "start": 3237
        },
        {
          "length": 20,
          "start": 3365
        },
        {
          "length": 20,
          "start": 3592
        },
        {
          "length": 20,
          "start": 4488
        },
        {
          "length": 20,
          "start": 5474
        },
        {
          "length": 20,
          "start": 5551
        },
        {
          "length": 20,
          "start": 5618
        },
        {
          "length": 20,
          "start": 6632
        },
        {
          "length": 20,
          "start": 6699
        },
        {
          "length": 20,
          "start": 7036
        }
      ]
    }
  }
}