{
  "_format": "hh-sol-artifact-1",
  "contractName": "Registrar",
  "sourceName": "contracts/registrar/instance/Registrar.sol",
  "abi": [
    {
      "inputs": [
        {
          "components": [
            {
              "internalType": "address",
              "name": "owningRegistry",
              "type": "address"
            },
            {
              "internalType": "address",
              "name": "worldRegistry",
              "type": "address"
            }
          ],
          "internalType": "struct RegistrarConstructorArgs",
          "name": "args",
          "type": "tuple"
        }
      ],
      "stateMutability": "nonpayable",
      "type": "constructor"
    },
    {
      "anonymous": false,
      "inputs": [
        {
          "indexed": true,
          "internalType": "address",
          "name": "by",
          "type": "address"
        },
        {
          "indexed": false,
          "internalType": "string",
          "name": "reason",
          "type": "string"
        }
      ],
      "name": "EntityDeactivated",
      "type": "event"
    },
    {
      "anonymous": false,
      "inputs": [
        {
          "indexed": true,
          "internalType": "address",
          "name": "by",
          "type": "address"
        }
      ],
      "name": "EntityReactivated",
      "type": "event"
    },
    {
      "anonymous": false,
      "inputs": [
        {
          "indexed": true,
          "internalType": "address",
          "name": "by",
          "type": "address"
        },
        {
          "indexed": false,
          "internalType": "string",
          "name": "reason",
          "type": "string"
        }
      ],
      "name": "EntityRemoved",
      "type": "event"
    },
    {
      "anonymous": false,
      "inputs": [
        {
          "indexed": true,
          "internalType": "address",
          "name": "world",
          "type": "address"
        },
        {
          "indexed": true,
          "internalType": "address",
          "name": "owner",
          "type": "address"
        }
      ],
      "name": "RegistrarAddedWorld",
      "type": "event"
    },
    {
      "anonymous": false,
      "inputs": [
        {
          "indexed": true,
          "internalType": "address",
          "name": "world",
          "type": "address"
        },
        {
          "indexed": false,
          "internalType": "string",
          "name": "reason",
          "type": "string"
        }
      ],
      "name": "RegistrarDeactivatedWorld",
      "type": "event"
    },
    {
      "anonymous": false,
      "inputs": [
        {
          "indexed": true,
          "internalType": "address",
          "name": "world",
          "type": "address"
        }
      ],
      "name": "RegistrarReactivatedWorld",
      "type": "event"
    },
    {
      "anonymous": false,
      "inputs": [
        {
          "indexed": true,
          "internalType": "address",
          "name": "world",
          "type": "address"
        },
        {
          "indexed": false,
          "internalType": "string",
          "name": "reason",
          "type": "string"
        }
      ],
      "name": "RegistrarRemovedWorld",
      "type": "event"
    },
    {
      "anonymous": false,
      "inputs": [
        {
          "components": [
            {
              "internalType": "uint16",
              "name": "coveragePeriodDays",
              "type": "uint16"
            },
            {
              "internalType": "uint16",
              "name": "gracePeriodDays",
              "type": "uint16"
            },
            {
              "internalType": "uint256",
              "name": "fee",
              "type": "uint256"
            }
          ],
          "indexed": false,
          "internalType": "struct RegistrationTerms",
          "name": "newTerms",
          "type": "tuple"
        }
      ],
      "name": "TermsChanged",
      "type": "event"
    },
    {
      "inputs": [
        {
          "internalType": "address[]",
          "name": "signers",
          "type": "address[]"
        }
      ],
      "name": "addSigners",
      "outputs": [],
      "stateMutability": "nonpayable",
      "type": "function"
    },
    {
      "inputs": [
        {
          "internalType": "string",
          "name": "reason",
          "type": "string"
        }
      ],
      "name": "deactivate",
      "outputs": [],
      "stateMutability": "nonpayable",
      "type": "function"
    },
    {
      "inputs": [
        {
          "internalType": "address",
          "name": "world",
          "type": "address"
        },
        {
          "internalType": "string",
          "name": "reason",
          "type": "string"
        }
      ],
      "name": "deactivateWorld",
      "outputs": [],
      "stateMutability": "nonpayable",
      "type": "function"
    },
    {
      "inputs": [],
      "name": "getTerms",
      "outputs": [
        {
          "components": [
            {
              "internalType": "uint16",
              "name": "coveragePeriodDays",
              "type": "uint16"
            },
            {
              "internalType": "uint16",
              "name": "gracePeriodDays",
              "type": "uint16"
            },
            {
              "internalType": "uint256",
              "name": "fee",
              "type": "uint256"
            }
          ],
          "internalType": "struct RegistrationTerms",
          "name": "",
          "type": "tuple"
        }
      ],
      "stateMutability": "view",
      "type": "function"
    },
    {
      "inputs": [
        {
          "internalType": "bytes32",
          "name": "role",
          "type": "bytes32"
        },
        {
          "internalType": "address",
          "name": "account",
          "type": "address"
        }
      ],
      "name": "grantRole",
      "outputs": [],
      "stateMutability": "nonpayable",
      "type": "function"
    },
    {
      "inputs": [
        {
          "internalType": "bytes32",
          "name": "role",
          "type": "bytes32"
        },
        {
          "internalType": "address",
          "name": "account",
          "type": "address"
        }
      ],
      "name": "hasRole",
      "outputs": [
        {
          "internalType": "bool",
          "name": "",
          "type": "bool"
        }
      ],
      "stateMutability": "view",
      "type": "function"
    },
    {
      "inputs": [
        {
          "components": [
            {
              "internalType": "address",
              "name": "owner",
              "type": "address"
            },
            {
              "internalType": "address",
              "name": "termsOwner",
              "type": "address"
            },
            {
              "internalType": "string",
              "name": "name",
              "type": "string"
            },
            {
              "components": [
                {
                  "internalType": "string",
                  "name": "x",
                  "type": "string"
                },
                {
                  "internalType": "string",
                  "name": "y",
                  "type": "string"
                },
                {
                  "internalType": "string",
                  "name": "z",
                  "type": "string"
                },
                {
                  "internalType": "uint256",
                  "name": "t",
                  "type": "uint256"
                },
                {
                  "internalType": "uint256",
                  "name": "p",
                  "type": "uint256"
                },
                {
                  "internalType": "uint256",
                  "name": "p_sub",
                  "type": "uint256"
                }
              ],
              "internalType": "struct VectorAddress",
              "name": "vector",
              "type": "tuple"
            },
            {
              "internalType": "bytes",
              "name": "initData",
              "type": "bytes"
            }
          ],
          "internalType": "struct CommonInitArgs",
          "name": "args",
          "type": "tuple"
        }
      ],
      "name": "init",
      "outputs": [],
      "stateMutability": "nonpayable",
      "type": "function"
    },
    {
      "inputs": [],
      "name": "isEntityActive",
      "outputs": [
        {
          "internalType": "bool",
          "name": "",
          "type": "bool"
        }
      ],
      "stateMutability": "view",
      "type": "function"
    },
    {
      "inputs": [],
      "name": "isRemoved",
      "outputs": [
        {
          "internalType": "bool",
          "name": "",
          "type": "bool"
        }
      ],
      "stateMutability": "view",
      "type": "function"
    },
    {
      "inputs": [
        {
          "internalType": "address",
          "name": "a",
          "type": "address"
        }
      ],
      "name": "isSigner",
      "outputs": [
        {
          "internalType": "bool",
          "name": "",
          "type": "bool"
        }
      ],
      "stateMutability": "view",
      "type": "function"
    },
    {
      "inputs": [],
      "name": "isStillActive",
      "outputs": [
        {
          "internalType": "bool",
          "name": "",
          "type": "bool"
        }
      ],
      "stateMutability": "view",
      "type": "function"
    },
    {
      "inputs": [
        {
          "internalType": "address",
          "name": "a",
          "type": "address"
        }
      ],
      "name": "isTermsOwnerSigner",
      "outputs": [
        {
          "internalType": "bool",
          "name": "",
          "type": "bool"
        }
      ],
      "stateMutability": "view",
      "type": "function"
    },
    {
      "inputs": [],
      "name": "name",
      "outputs": [
        {
          "internalType": "string",
          "name": "",
          "type": "string"
        }
      ],
      "stateMutability": "view",
      "type": "function"
    },
    {
      "inputs": [],
      "name": "owner",
      "outputs": [
        {
          "internalType": "address",
          "name": "",
          "type": "address"
        }
      ],
      "stateMutability": "view",
      "type": "function"
    },
    {
      "inputs": [],
      "name": "owningRegistry",
      "outputs": [
        {
          "internalType": "address",
          "name": "",
          "type": "address"
        }
      ],
      "stateMutability": "view",
      "type": "function"
    },
    {
      "inputs": [
        {
          "internalType": "bytes",
          "name": "data",
          "type": "bytes"
        }
      ],
      "name": "postUpgradeInit",
      "outputs": [],
      "stateMutability": "nonpayable",
      "type": "function"
    },
    {
      "inputs": [],
      "name": "reactivate",
      "outputs": [],
      "stateMutability": "nonpayable",
      "type": "function"
    },
    {
      "inputs": [
        {
          "internalType": "address",
          "name": "world",
          "type": "address"
        }
      ],
      "name": "reactivateWorld",
      "outputs": [],
      "stateMutability": "nonpayable",
      "type": "function"
    },
    {
      "inputs": [
        {
          "components": [
            {
              "internalType": "bool",
              "name": "sendTokensToOwner",
              "type": "bool"
            },
            {
              "internalType": "address",
              "name": "owner",
              "type": "address"
            },
            {
              "components": [
                {
                  "internalType": "string",
                  "name": "x",
                  "type": "string"
                },
                {
                  "internalType": "string",
                  "name": "y",
                  "type": "string"
                },
                {
                  "internalType": "string",
                  "name": "z",
                  "type": "string"
                },
                {
                  "internalType": "uint256",
                  "name": "t",
                  "type": "uint256"
                },
                {
                  "internalType": "uint256",
                  "name": "p",
                  "type": "uint256"
                },
                {
                  "internalType": "uint256",
                  "name": "p_sub",
                  "type": "uint256"
                }
              ],
              "internalType": "struct VectorAddress",
              "name": "baseVector",
              "type": "tuple"
            },
            {
              "internalType": "string",
              "name": "name",
              "type": "string"
            },
            {
              "components": [
                {
                  "internalType": "uint16",
                  "name": "coveragePeriodDays",
                  "type": "uint16"
                },
                {
                  "internalType": "uint16",
                  "name": "gracePeriodDays",
                  "type": "uint16"
                },
                {
                  "internalType": "uint256",
                  "name": "fee",
                  "type": "uint256"
                }
              ],
              "internalType": "struct RegistrationTerms",
              "name": "overrideTerms",
              "type": "tuple"
            },
            {
              "internalType": "bytes",
              "name": "vectorAuthoritySignature",
              "type": "bytes"
            },
            {
              "internalType": "bytes",
              "name": "initData",
              "type": "bytes"
            }
          ],
          "internalType": "struct NewWorldArgs",
          "name": "args",
          "type": "tuple"
        }
      ],
      "name": "registerWorld",
      "outputs": [
        {
          "internalType": "address",
          "name": "",
          "type": "address"
        }
      ],
      "stateMutability": "payable",
      "type": "function"
    },
    {
      "inputs": [
        {
          "internalType": "string",
          "name": "reason",
          "type": "string"
        }
      ],
      "name": "remove",
      "outputs": [],
      "stateMutability": "nonpayable",
      "type": "function"
    },
    {
      "inputs": [
        {
          "internalType": "address[]",
          "name": "signers",
          "type": "address[]"
        }
      ],
      "name": "removeSigners",
      "outputs": [],
      "stateMutability": "nonpayable",
      "type": "function"
    },
    {
      "inputs": [
        {
          "internalType": "address",
          "name": "world",
          "type": "address"
        },
        {
          "internalType": "string",
          "name": "reason",
          "type": "string"
        }
      ],
      "name": "removeWorld",
      "outputs": [],
      "stateMutability": "nonpayable",
      "type": "function"
    },
    {
      "inputs": [
        {
          "internalType": "bytes32",
          "name": "role",
          "type": "bytes32"
        },
        {
          "internalType": "address",
          "name": "account",
          "type": "address"
        }
      ],
      "name": "revokeRole",
      "outputs": [],
      "stateMutability": "nonpayable",
      "type": "function"
    },
    {
      "inputs": [
        {
          "internalType": "address",
          "name": "o",
          "type": "address"
        }
      ],
      "name": "setOwner",
      "outputs": [],
      "stateMutability": "nonpayable",
      "type": "function"
    },
    {
      "inputs": [
        {
          "components": [
            {
              "internalType": "uint16",
              "name": "coveragePeriodDays",
              "type": "uint16"
            },
            {
              "internalType": "uint16",
              "name": "gracePeriodDays",
              "type": "uint16"
            },
            {
              "internalType": "uint256",
              "name": "fee",
              "type": "uint256"
            }
          ],
          "internalType": "struct RegistrationTerms",
          "name": "terms",
          "type": "tuple"
        }
      ],
      "name": "setTerms",
      "outputs": [],
      "stateMutability": "nonpayable",
      "type": "function"
    },
    {
      "inputs": [],
      "name": "termsOwner",
      "outputs": [
        {
          "internalType": "address",
          "name": "",
          "type": "address"
        }
      ],
      "stateMutability": "view",
      "type": "function"
    },
    {
      "inputs": [
        {
          "internalType": "bytes",
          "name": "data",
          "type": "bytes"
        }
      ],
      "name": "upgrade",
      "outputs": [],
      "stateMutability": "nonpayable",
      "type": "function"
    },
    {
      "inputs": [],
      "name": "version",
      "outputs": [
        {
          "components": [
            {
              "internalType": "uint16",
              "name": "major",
              "type": "uint16"
            },
            {
              "internalType": "uint16",
              "name": "minor",
              "type": "uint16"
            }
          ],
          "internalType": "struct Version",
          "name": "",
          "type": "tuple"
        }
      ],
      "stateMutability": "pure",
      "type": "function"
    },
    {
      "inputs": [
        {
          "internalType": "uint256",
          "name": "amount",
          "type": "uint256"
        }
      ],
      "name": "withdraw",
      "outputs": [],
      "stateMutability": "nonpayable",
      "type": "function"
    },
    {
      "inputs": [],
      "name": "worldRegistry",
      "outputs": [
        {
          "internalType": "contract IWorldRegistry",
          "name": "",
          "type": "address"
        }
      ],
      "stateMutability": "view",
      "type": "function"
    }
  ],
  "bytecode": "0x60c06040523480156200001157600080fd5b50604051620029213803806200292183398101604081905262000034916200016d565b604080516020810190915281516001600160a01b03168082528190620000bc5760405162461bcd60e51b815260206004820152603260248201527f42617365456e746974793a206f776e696e672072656769737472792063616e6e6044820152716f74206265207a65726f206164647265737360701b60648201526084015b60405180910390fd5b516001600160a01b0390811660805260208301511690506200013a5760405162461bcd60e51b815260206004820152603060248201527f5265676973747261723a20776f726c642072656769737472792063616e6e6f7460448201526f206265207a65726f206164647265737360801b6064820152608401620000b3565b602001516001600160a01b031660a052620001db565b80516001600160a01b03811681146200016857600080fd5b919050565b6000604082840312156200018057600080fd5b604080519081016001600160401b0381118282101715620001b157634e487b7160e01b600052604160045260246000fd5b604052620001bf8362000150565b8152620001cf6020840162000150565b60208201529392505050565b60805160a0516126e8620002396000396000818161044b0152818161066301528181610f210152818161108201526115f401526000818161049f01528181610af501528181610b6d0152818161113801526113e101526126e86000f3fe6080604052600436106101cd5760003560e01c80637e6e1551116100f7578063ac60aee511610095578063df1b7c8211610064578063df1b7c8214610516578063e20eea0f14610536578063e8906a2d14610556578063f92dc24f1461057657600080fd5b8063ac60aee51461048d578063b05dab4e146104c1578063d18611d6146104e1578063d547741f146104f657600080fd5b80638d361e43116100d15780638d361e43146104045780638da5cb5b14610424578063911c2a8c1461043957806391d148541461046d57600080fd5b80637e6e1551146103cf57806380599e4b146103e457806386b70bed1461031857600080fd5b80632f2ff15d1161016f57806369bd91941161013e57806369bd91941461037a5780636b676c561461038f5780636e467f27146103af5780637df73e271461022457600080fd5b80632f2ff15d146102d65780634173b417146102f65780634f05c1c81461031857806354fd4d501461032d57600080fd5b806313af4035116101ab57806313af403514610254578063253946451461027657806327ee999d146102965780632e1a7d4d146102b657600080fd5b806305ff64bd146101d257806306fdde03146102025780630a7ee8a014610224575b600080fd5b6101e56101e0366004611d6f565b610596565b6040516001600160a01b0390911681526020015b60405180910390f35b34801561020e57600080fd5b5061021761080f565b6040516101f99190611ec3565b34801561023057600080fd5b5061024461023f366004611ed6565b6108aa565b60405190151581526020016101f9565b34801561026057600080fd5b5061027461026f366004611ed6565b61092f565b005b34801561028257600080fd5b50610274610291366004611f3b565b610a3b565b3480156102a257600080fd5b506102746102b1366004611f7c565b610b62565b3480156102c257600080fd5b506102746102d1366004611fb8565b610c00565b3480156102e257600080fd5b506102746102f1366004611fd1565b610ca9565b34801561030257600080fd5b5061030b610dbb565b6040516101f99190612001565b34801561032457600080fd5b50610244610e4a565b34801561033957600080fd5b50604080518082018252600080825260209182018190528251808401845260018082529083019182528351908152905161ffff1691810191909152016101f9565b34801561038657600080fd5b506101e5610e5d565b34801561039b57600080fd5b506102746103aa36600461202b565b610e7c565b3480156103bb57600080fd5b506102746103ca366004611ed6565b610fd4565b3480156103db57600080fd5b50610244611115565b3480156103f057600080fd5b506102746103ff366004611f7c565b61112d565b34801561041057600080fd5b5061027461041f36600461207f565b6111c7565b34801561043057600080fd5b506101e56112a3565b34801561044557600080fd5b506101e57f000000000000000000000000000000000000000000000000000000000000000081565b34801561047957600080fd5b50610244610488366004611fd1565b611312565b34801561049957600080fd5b506101e57f000000000000000000000000000000000000000000000000000000000000000081565b3480156104cd57600080fd5b506102746104dc3660046120f3565b61139f565b3480156104ed57600080fd5b506102746113d6565b34801561050257600080fd5b50610274610511366004611fd1565b611464565b34801561052257600080fd5b5061027461053136600461202b565b61154e565b34801561054257600080fd5b50610274610551366004611f3b565b61169a565b34801561056257600080fd5b5061027461057136600461207f565b611741565b34801561058257600080fd5b506102746105913660046121c9565b61181d565b604051637df73e2760e01b815233600482015260009073__$822621bbfca0653c95de9b91f8a9786d65$__90637df73e2790602401602060405180830381865af41580156105e8573d6000803e3d6000fd5b505050506040513d601f19601f8201168201806040525081019061060c91906121e1565b6106315760405162461bcd60e51b8152600401610628906121fe565b60405180910390fd5b6040516317b4ce0560e11b815260009073__$c6d404741a13f53cae4a755e4ed99e1e8b$__90632f699c0a9061068d907f00000000000000000000000000000000000000000000000000000000000000009087906004016122b3565b602060405180830381865af41580156106aa573d6000803e3d6000fd5b505050506040513d601f19601f820116820180604052508101906106ce9190612393565b90506001600160a01b03811661073e5760405162461bcd60e51b815260206004820152602f60248201527f5265676973747261723a20776f726c642072656769737472792072657475726e60448201526e6564207a65726f206164647265737360881b6064820152608401610628565b34156107c35782511561078c5760208301516040516001600160a01b03909116903480156108fc02916000818181858888f19350505050158015610786573d6000803e3d6000fd5b506107c3565b6040516001600160a01b038216903480156108fc02916000818181858888f193505050501580156107c1573d6000803e3d6000fd5b505b82602001516001600160a01b0316816001600160a01b03167fe1cb4c390d38b38c6799a20abd14132710d9ca81e82b23b51be047703d1829a660405160405180910390a390505b919050565b60606108196118f7565b6001018054610827906123b0565b80601f0160208091040260200160405190810160405280929190818152602001828054610853906123b0565b80156108a05780601f10610875576101008083540402835291602001916108a0565b820191906000526020600020905b81548152906001019060200180831161088357829003601f168201915b5050505050905090565b604051637df73e2760e01b81526001600160a01b038216600482015260009073__$822621bbfca0653c95de9b91f8a9786d65$__90637df73e2790602401602060405180830381865af4158015610905573d6000803e3d6000fd5b505050506040513d601f19601f8201168201806040525081019061092991906121e1565b92915050565b336001600160a01b031673__$822621bbfca0653c95de9b91f8a9786d65$__638da5cb5b6040518163ffffffff1660e01b8152600401602060405180830381865af4158015610982573d6000803e3d6000fd5b505050506040513d601f19601f820116820180604052508101906109a69190612393565b6001600160a01b0316146109cc5760405162461bcd60e51b8152600401610628906123e4565b6040516313af403560e01b81526001600160a01b038216600482015273__$822621bbfca0653c95de9b91f8a9786d65$__906313af4035906024015b60006040518083038186803b158015610a2057600080fd5b505af4158015610a34573d6000803e3d6000fd5b5050505050565b604051632474521560e21b8152600080516020612693833981519152600482015233602482015273__$822621bbfca0653c95de9b91f8a9786d65$__906391d1485490604401602060405180830381865af4158015610a9e573d6000803e3d6000fd5b505050506040513d601f19601f82011682018060405250810190610ac291906121e1565b610ade5760405162461bcd60e51b815260040161062890612427565b60405163c625e0ad60e01b81526001600160a01b037f0000000000000000000000000000000000000000000000000000000000000000169063c625e0ad90610b2c9085908590600401612492565b600060405180830381600087803b158015610b4657600080fd5b505af1158015610b5a573d6000803e3d6000fd5b505050505050565b336001600160a01b037f00000000000000000000000000000000000000000000000000000000000000001614610baa5760405162461bcd60e51b8152600401610628906124a6565b6000610bb46118f7565b805460ff191691151591909117905560405133907f246589c99dd263c9b64a2b544e24074c282ca479ba3d2a0e649f9eeaca1e2d6290610bf5908490611ec3565b60405180910390a250565b336001600160a01b031673__$822621bbfca0653c95de9b91f8a9786d65$__638da5cb5b6040518163ffffffff1660e01b8152600401602060405180830381865af4158015610c53573d6000803e3d6000fd5b505050506040513d601f19601f82011682018060405250810190610c779190612393565b6001600160a01b031614610c9d5760405162461bcd60e51b8152600401610628906123e4565b610ca68161198d565b50565b604051632474521560e21b8152600080516020612693833981519152600482015233602482015273__$822621bbfca0653c95de9b91f8a9786d65$__906391d1485490604401602060405180830381865af4158015610d0c573d6000803e3d6000fd5b505050506040513d601f19601f82011682018060405250810190610d3091906121e1565b610d4c5760405162461bcd60e51b815260040161062890612427565b604051632f2ff15d60e01b8152600481018390526001600160a01b038216602482015273__$822621bbfca0653c95de9b91f8a9786d65$__90632f2ff15d906044015b60006040518083038186803b158015610da757600080fd5b505af4158015610b5a573d6000803e3d6000fd5b604080516060810182526000808252602082018190529181019190915273__$c6d404741a13f53cae4a755e4ed99e1e8b$__634173b4176040518163ffffffff1660e01b8152600401606060405180830381865af4158015610e21573d6000803e3d6000fd5b505050506040513d601f19601f82011682018060405250810190610e4591906124f3565b905090565b6000610e546118f7565b5460ff16919050565b6000610e676118f7565b546201000090046001600160a01b0316919050565b604051637df73e2760e01b815233600482015273__$822621bbfca0653c95de9b91f8a9786d65$__90637df73e2790602401602060405180830381865af4158015610ecb573d6000803e3d6000fd5b505050506040513d601f19601f82011682018060405250810190610eef91906121e1565b610f0b5760405162461bcd60e51b8152600401610628906121fe565b6040516219d2db60e51b81526001600160a01b037f0000000000000000000000000000000000000000000000000000000000000000169063033a5b6090610f5a90869086908690600401612540565b600060405180830381600087803b158015610f7457600080fd5b505af1158015610f88573d6000803e3d6000fd5b50505050826001600160a01b03167f54d03c021ea157a955c38e11c4fd46023770d415bfdfc0192da9684892bb6b538383604051610fc7929190612492565b60405180910390a2505050565b604051637df73e2760e01b815233600482015273__$822621bbfca0653c95de9b91f8a9786d65$__90637df73e2790602401602060405180830381865af4158015611023573d6000803e3d6000fd5b505050506040513d601f19601f8201168201806040525081019061104791906121e1565b6110635760405162461bcd60e51b8152600401610628906121fe565b60405163349e3cd960e11b81526001600160a01b0382811660048301527f0000000000000000000000000000000000000000000000000000000000000000169063693c79b290602401600060405180830381600087803b1580156110c657600080fd5b505af11580156110da573d6000803e3d6000fd5b50506040516001600160a01b03841692507f65e3378013522ce347e187610517a4bde48f18d14e64cedb518d34a3a3c138de9150600090a250565b600061111f6118f7565b54610100900460ff16919050565b336001600160a01b037f000000000000000000000000000000000000000000000000000000000000000016146111755760405162461bcd60e51b8152600401610628906124a6565b600161117f6118f7565b80549115156101000261ff001990921691909117905560405133907fbf430175840309fcb4cce13557429998477f9f95733cb0d42c170af8aa225d0690610bf5908490611ec3565b604051632474521560e21b8152600080516020612693833981519152600482015233602482015273__$822621bbfca0653c95de9b91f8a9786d65$__906391d1485490604401602060405180830381865af415801561122a573d6000803e3d6000fd5b505050506040513d601f19601f8201168201806040525081019061124e91906121e1565b61126a5760405162461bcd60e51b815260040161062890612427565b604051638d361e4360e01b815273__$822621bbfca0653c95de9b91f8a9786d65$__90638d361e4390610d8f908590859060040161256e565b600073__$822621bbfca0653c95de9b91f8a9786d65$__638da5cb5b6040518163ffffffff1660e01b8152600401602060405180830381865af41580156112ee573d6000803e3d6000fd5b505050506040513d601f19601f82011682018060405250810190610e459190612393565b604051632474521560e21b8152600481018390526001600160a01b038216602482015260009073__$822621bbfca0653c95de9b91f8a9786d65$__906391d1485490604401602060405180830381865af4158015611374573d6000803e3d6000fd5b505050506040513d601f19601f8201168201806040525081019061139891906121e1565b9392505050565b604051630b4929b160e31b815273__$c6d404741a13f53cae4a755e4ed99e1e8b$__90635a494d8890610a089084906004016125bc565b336001600160a01b037f0000000000000000000000000000000000000000000000000000000000000000161461141e5760405162461bcd60e51b8152600401610628906124a6565b60016114286118f7565b805460ff191691151591909117905560405133907f54ca6a4cb143be493713a7079cc0d6cdbbf0688ee68398b4354b056088f2cbf590600090a2565b604051632474521560e21b8152600080516020612693833981519152600482015233602482015273__$822621bbfca0653c95de9b91f8a9786d65$__906391d1485490604401602060405180830381865af41580156114c7573d6000803e3d6000fd5b505050506040513d601f19601f820116820180604052508101906114eb91906121e1565b6115075760405162461bcd60e51b815260040161062890612427565b60405163d547741f60e01b8152600481018390526001600160a01b038216602482015273__$822621bbfca0653c95de9b91f8a9786d65$__9063d547741f90604401610d8f565b604051637df73e2760e01b815233600482015273__$822621bbfca0653c95de9b91f8a9786d65$__90637df73e2790602401602060405180830381865af415801561159d573d6000803e3d6000fd5b505050506040513d601f19601f820116820180604052508101906115c191906121e1565b6115dd5760405162461bcd60e51b8152600401610628906121fe565b60405163af08d53d60e01b81526001600160a01b037f0000000000000000000000000000000000000000000000000000000000000000169063af08d53d9061162d90869086908690600401612540565b600060405180830381600087803b15801561164757600080fd5b505af115801561165b573d6000803e3d6000fd5b50505050826001600160a01b03167f356f3d18939ad800792a351df6b381c21e2d11e75994c08aa435b4d3d0099aa28383604051610fc7929190612492565b604051632474521560e21b8152600080516020612693833981519152600482015233602482015273__$822621bbfca0653c95de9b91f8a9786d65$__906391d1485490604401602060405180830381865af41580156116fd573d6000803e3d6000fd5b505050506040513d601f19601f8201168201806040525081019061172191906121e1565b61173d5760405162461bcd60e51b815260040161062890612427565b5050565b604051632474521560e21b8152600080516020612693833981519152600482015233602482015273__$822621bbfca0653c95de9b91f8a9786d65$__906391d1485490604401602060405180830381865af41580156117a4573d6000803e3d6000fd5b505050506040513d601f19601f820116820180604052508101906117c891906121e1565b6117e45760405162461bcd60e51b815260040161062890612427565b60405163e8906a2d60e01b815273__$822621bbfca0653c95de9b91f8a9786d65$__9063e8906a2d90610d8f908590859060040161256e565b604051632474521560e21b8152600080516020612693833981519152600482015233602482015273__$822621bbfca0653c95de9b91f8a9786d65$__906391d1485490604401602060405180830381865af4158015611880573d6000803e3d6000fd5b505050506040513d601f19601f820116820180604052508101906118a491906121e1565b6118c05760405162461bcd60e51b815260040161062890612427565b60405163d2b33b5360e01b815273__$c6d404741a13f53cae4a755e4ed99e1e8b$__9063d2b33b5390610a08908490600401612634565b60408051808201909152601881527f78722e61637469766174696f6e2e76312e73746f72616765000000000000000060209091015260008060ff61195c60017fbdfc4f9279b6914d072e91c3452c88ca0bfbcebcba4de5f40748c7663e67029e612671565b60405160200161196e91815260200190565b60408051601f1981840301815291905280516020909101201692915050565b600073__$822621bbfca0653c95de9b91f8a9786d65$__638da5cb5b6040518163ffffffff1660e01b8152600401602060405180830381865af41580156119d8573d6000803e3d6000fd5b505050506040513d601f19601f820116820180604052508101906119fc9190612393565b90506001600160a01b0381163314611a625760405162461bcd60e51b8152602060048201526024808201527f46756e64734d6f64756c653a2063616c6c6572206973206e6f7420746865206f6044820152633bb732b960e11b6064820152608401610628565b81471015611abc5760405162461bcd60e51b815260206004820152602160248201527f46756e64734d6f64756c653a20696e73756666696369656e742062616c616e636044820152606560f81b6064820152608401610628565b6040516001600160a01b0382169083156108fc029084906000818181858888f19350505050158015611af2573d6000803e3d6000fd5b505050565b634e487b7160e01b600052604160045260246000fd5b60405160c081016001600160401b0381118282101715611b2f57611b2f611af7565b60405290565b604051606081016001600160401b0381118282101715611b2f57611b2f611af7565b60405160e081016001600160401b0381118282101715611b2f57611b2f611af7565b60405160a081016001600160401b0381118282101715611b2f57611b2f611af7565b8015158114610ca657600080fd5b803561080a81611b9b565b6001600160a01b0381168114610ca657600080fd5b803561080a81611bb4565b600082601f830112611be557600080fd5b81356001600160401b0380821115611bff57611bff611af7565b604051601f8301601f19908116603f01168101908282118183101715611c2757611c27611af7565b81604052838152866020858801011115611c4057600080fd5b836020870160208301376000602085830101528094505050505092915050565b600060c08284031215611c7257600080fd5b611c7a611b0d565b905081356001600160401b0380821115611c9357600080fd5b611c9f85838601611bd4565b83526020840135915080821115611cb557600080fd5b611cc185838601611bd4565b60208401526040840135915080821115611cda57600080fd5b50611ce784828501611bd4565b604083015250606082013560608201526080820135608082015260a082013560a082015292915050565b61ffff81168114610ca657600080fd5b600060608284031215611d3357600080fd5b611d3b611b35565b90508135611d4881611d11565b81526020820135611d5881611d11565b806020830152506040820135604082015292915050565b600060208284031215611d8157600080fd5b81356001600160401b0380821115611d9857600080fd5b908301906101208286031215611dad57600080fd5b611db5611b57565b611dbe83611ba9565b8152611dcc60208401611bc9565b6020820152604083013582811115611de357600080fd5b611def87828601611c60565b604083015250606083013582811115611e0757600080fd5b611e1387828601611bd4565b606083015250611e268660808501611d21565b608082015260e083013582811115611e3d57600080fd5b611e4987828601611bd4565b60a08301525061010083013582811115611e6257600080fd5b611e6e87828601611bd4565b60c08301525095945050505050565b6000815180845260005b81811015611ea357602081850181015186830182015201611e87565b506000602082860101526020601f19601f83011685010191505092915050565b6020815260006113986020830184611e7d565b600060208284031215611ee857600080fd5b813561139881611bb4565b60008083601f840112611f0557600080fd5b5081356001600160401b03811115611f1c57600080fd5b602083019150836020828501011115611f3457600080fd5b9250929050565b60008060208385031215611f4e57600080fd5b82356001600160401b03811115611f6457600080fd5b611f7085828601611ef3565b90969095509350505050565b600060208284031215611f8e57600080fd5b81356001600160401b03811115611fa457600080fd5b611fb084828501611bd4565b949350505050565b600060208284031215611fca57600080fd5b5035919050565b60008060408385031215611fe457600080fd5b823591506020830135611ff681611bb4565b809150509250929050565b815161ffff9081168252602080840151909116908201526040808301519082015260608101610929565b60008060006040848603121561204057600080fd5b833561204b81611bb4565b925060208401356001600160401b0381111561206657600080fd5b61207286828701611ef3565b9497909650939450505050565b6000806020838503121561209257600080fd5b82356001600160401b03808211156120a957600080fd5b818501915085601f8301126120bd57600080fd5b8135818111156120cc57600080fd5b8660208260051b85010111156120e157600080fd5b60209290920196919550909350505050565b60006020828403121561210557600080fd5b81356001600160401b038082111561211c57600080fd5b9083019060a0828603121561213057600080fd5b612138611b79565b61214183611bc9565b815261214f60208401611bc9565b602082015260408301358281111561216657600080fd5b61217287828601611bd4565b60408301525060608301358281111561218a57600080fd5b61219687828601611c60565b6060830152506080830135828111156121ae57600080fd5b6121ba87828601611bd4565b60808301525095945050505050565b6000606082840312156121db57600080fd5b50919050565b6000602082840312156121f357600080fd5b815161139881611b9b565b60208082526022908201527f42617365456e746974793a2063616c6c6572206973206e6f742061207369676e60408201526132b960f11b606082015260800190565b6000815160c0845261225560c0850182611e7d565b90506020830151848203602086015261226e8282611e7d565b915050604083015184820360408601526122888282611e7d565b915050606083015160608501526080830151608085015260a083015160a08501528091505092915050565b60018060a01b038316815260406020820152815115156040820152600060208301516122ea60608401826001600160a01b03169052565b506040830151610120806080850152612307610160850183612240565b91506060850151603f19808685030160a08701526123258483611e7d565b6080880151805161ffff90811660c08a015260208201511660e08901526040015161010088015260a088015187820383018589015290945091506123698483611e7d565b935060c08701519250808685030161014087015250506123898282611e7d565b9695505050505050565b6000602082840312156123a557600080fd5b815161139881611bb4565b600181811c908216806123c457607f821691505b6020821081036121db57634e487b7160e01b600052602260045260246000fd5b60208082526023908201527f42617365456e746974793a2063616c6c6572206973206e6f7420746865206f776040820152623732b960e91b606082015260800190565b60208082526022908201527f42617365456e746974793a2063616c6c6572206973206e6f7420616e2061646d60408201526134b760f11b606082015260800190565b81835281816020850137506000828201602090810191909152601f909101601f19169091010190565b602081526000611fb0602083018486612469565b6020808252602d908201527f42617365456e746974793a2063616c6c6572206973206e6f7420746865206f7760408201526c6e696e6720726567697374727960981b606082015260800190565b60006060828403121561250557600080fd5b61250d611b35565b825161251881611d11565b8152602083015161252881611d11565b60208201526040928301519281019290925250919050565b6001600160a01b03841681526040602082018190526000906125659083018486612469565b95945050505050565b60208082528181018390526000908460408401835b868110156125b157823561259681611bb4565b6001600160a01b031682529183019190830190600101612583565b509695505050505050565b60208152600060018060a01b0380845116602084015280602085015116604084015250604083015160a060608401526125f860c0840182611e7d565b90506060840151601f19808584030160808601526126168383612240565b925060808601519150808584030160a0860152506125658282611e7d565b60608101823561264381611d11565b61ffff908116835260208401359061265a82611d11565b166020830152604092830135929091019190915290565b8181038181111561092957634e487b7160e01b600052601160045260246000fdfe2172861495e7b85edac73e3cd5fbb42dd675baadf627720e687bcfdaca025096a26469706673582212208d040a02a3c8c96fea41129d6dc62b6ed3099e56404ec685cd57ae196c32035b64736f6c63430008180033",
  "linkReferences": {
    "contracts/core-libs/LibAccess.sol": {
      "LibAccess": [
        {
          "length": 20,
          "start": 2023
        },
        {
          "length": 20,
          "start": 2820
        },
        {
          "length": 20,
          "start": 2932
        },
        {
          "length": 20,
          "start": 3107
        },
        {
          "length": 20,
          "start": 3229
        },
        {
          "length": 20,
          "start": 3653
        },
        {
          "length": 20,
          "start": 3851
        },
        {
          "length": 20,
          "start": 4010
        },
        {
          "length": 20,
          "start": 4298
        },
        {
          "length": 20,
          "start": 4642
        },
        {
          "length": 20,
          "start": 5161
        },
        {
          "length": 20,
          "start": 5298
        },
        {
          "length": 20,
          "start": 5344
        },
        {
          "length": 20,
          "start": 5491
        },
        {
          "length": 20,
          "start": 5830
        },
        {
          "length": 20,
          "start": 5989
        },
        {
          "length": 20,
          "start": 6044
        },
        {
          "length": 20,
          "start": 6396
        },
        {
          "length": 20,
          "start": 6563
        },
        {
          "length": 20,
          "start": 6700
        },
        {
          "length": 20,
          "start": 6783
        },
        {
          "length": 20,
          "start": 7114
        }
      ]
    },
    "contracts/registrar/libs/LibRegistrar.sol": {
      "LibRegistrar": [
        {
          "length": 20,
          "start": 2172
        },
        {
          "length": 20,
          "start": 4115
        },
        {
          "length": 20,
          "start": 5607
        },
        {
          "length": 20,
          "start": 6920
        }
      ]
    }
  },
  "deployedLinkReferences": {
    "contracts/core-libs/LibAccess.sol": {
      "LibAccess": [
        {
          "length": 20,
          "start": 1454
        },
        {
          "length": 20,
          "start": 2251
        },
        {
          "length": 20,
          "start": 2363
        },
        {
          "length": 20,
          "start": 2538
        },
        {
          "length": 20,
          "start": 2660
        },
        {
          "length": 20,
          "start": 3084
        },
        {
          "length": 20,
          "start": 3282
        },
        {
          "length": 20,
          "start": 3441
        },
        {
          "length": 20,
          "start": 3729
        },
        {
          "length": 20,
          "start": 4073
        },
        {
          "length": 20,
          "start": 4592
        },
        {
          "length": 20,
          "start": 4729
        },
        {
          "length": 20,
          "start": 4775
        },
        {
          "length": 20,
          "start": 4922
        },
        {
          "length": 20,
          "start": 5261
        },
        {
          "length": 20,
          "start": 5420
        },
        {
          "length": 20,
          "start": 5475
        },
        {
          "length": 20,
          "start": 5827
        },
        {
          "length": 20,
          "start": 5994
        },
        {
          "length": 20,
          "start": 6131
        },
        {
          "length": 20,
          "start": 6214
        },
        {
          "length": 20,
          "start": 6545
        }
      ]
    },
    "contracts/registrar/libs/LibRegistrar.sol": {
      "LibRegistrar": [
        {
          "length": 20,
          "start": 1603
        },
        {
          "length": 20,
          "start": 3546
        },
        {
          "length": 20,
          "start": 5038
        },
        {
          "length": 20,
          "start": 6351
        }
      ]
    }
  }
}