{
  "_format": "hh-sol-artifact-1",
  "contractName": "RegistrarRegistryProxy",
  "sourceName": "contracts/registrar/registry/RegistrarRegistryProxy.sol",
  "abi": [
    {
      "inputs": [
        {
          "components": [
            {
              "internalType": "address",
              "name": "owner",
              "type": "address"
            },
            {
              "internalType": "address[]",
              "name": "admins",
              "type": "address[]"
            }
          ],
          "internalType": "struct BaseProxyContstructorArgs",
          "name": "args",
          "type": "tuple"
        }
      ],
      "stateMutability": "nonpayable",
      "type": "constructor"
    },
    {
      "anonymous": false,
      "inputs": [
        {
          "indexed": true,
          "internalType": "address",
          "name": "newImpl",
          "type": "address"
        },
        {
          "components": [
            {
              "internalType": "uint16",
              "name": "major",
              "type": "uint16"
            },
            {
              "internalType": "uint16",
              "name": "minor",
              "type": "uint16"
            }
          ],
          "indexed": false,
          "internalType": "struct Version",
          "name": "version",
          "type": "tuple"
        }
      ],
      "name": "ProxyImplementationChanged",
      "type": "event"
    },
    {
      "stateMutability": "payable",
      "type": "fallback"
    },
    {
      "inputs": [],
      "name": "implementationVersion",
      "outputs": [
        {
          "components": [
            {
              "internalType": "uint16",
              "name": "major",
              "type": "uint16"
            },
            {
              "internalType": "uint16",
              "name": "minor",
              "type": "uint16"
            }
          ],
          "internalType": "struct Version",
          "name": "",
          "type": "tuple"
        }
      ],
      "stateMutability": "view",
      "type": "function"
    },
    {
      "inputs": [
        {
          "internalType": "address",
          "name": "_newImplementation",
          "type": "address"
        }
      ],
      "name": "setImplementation",
      "outputs": [],
      "stateMutability": "nonpayable",
      "type": "function"
    },
    {
      "stateMutability": "payable",
      "type": "receive"
    }
  ],
  "bytecode": "0x608060405234801561001057600080fd5b5060405161096b38038061096b83398101604081905261002f916102b7565b805181906001600160a01b031661009c5760405162461bcd60e51b815260206004820152602760248201527f436f726550726f78793a206f776e65722063616e6e6f74206265207a65726f206044820152666164647265737360c81b606482015260840160405180910390fd5b8051602082015160405163d9ac971f60e01b815273__$822621bbfca0653c95de9b91f8a9786d65$__9263d9ac971f926100d8926004016103a2565b60006040518083038186803b1580156100f057600080fd5b505af4158015610104573d6000803e3d6000fd5b5050604080516060810182526000808252601e6020830152918101919091529250610130915050610197565b7f56050b91f82d5780c832e976e22220832a9873ec55a787a7485576f2b0f534cd60009081526020918252604090819020835181549385015161ffff908116620100000263ffffffff19909516911617929092178255919091015160019091015550610425565b60408051808201909152601981527f78722e7465726d732e6f776e65722e76312e73746f726167650000000000000060209091015260008060ff6101fc60017f6274f56e891028f724b0a56de72de004867f1de7f1819ab332079272d9c19f106103fe565b60405160200161020e91815260200190565b60408051601f1981840301815291905280516020909101201692915050565b634e487b7160e01b600052604160045260246000fd5b604080519081016001600160401b03811182821017156102655761026561022d565b60405290565b604051601f8201601f191681016001600160401b03811182821017156102935761029361022d565b604052919050565b80516001600160a01b03811681146102b257600080fd5b919050565b600060208083850312156102ca57600080fd5b82516001600160401b03808211156102e157600080fd5b90840190604082870312156102f557600080fd5b6102fd610243565b6103068361029b565b8152838301518281111561031957600080fd5b80840193505086601f84011261032e57600080fd5b8251828111156103405761034061022d565b8060051b925061035185840161026b565b818152928401850192858101908985111561036b57600080fd5b948601945b84861015610390576103818661029b565b82529486019490860190610370565b95830195909552509695505050505050565b6001600160a01b038381168252604060208084018290528451918401829052600092858201929091906060860190855b818110156103f05785518516835294830194918301916001016103d2565b509098975050505050505050565b8181038181111561041f57634e487b7160e01b600052601160045260246000fd5b92915050565b610537806104346000396000f3fe60806040526004361061002d5760003560e01c806306bfcec614610073578063d784d426146100ae57610034565b3661003457005b600061003e6100ce565b546040516001600160a01b03909116915036600082376000803683855af43d806000843e81801561006d578184f35b8184fd5b005b34801561007f57600080fd5b50610088610164565b60408051825161ffff908116825260209384015116928101929092520160405180910390f35b3480156100ba57600080fd5b506100716100c9366004610408565b6101ab565b60408051808201909152601881527f78722e636f72652e70726f78792e73746f726167652e7631000000000000000060209091015260008060ff61013360017fb1163b579b809663cc4ceb6dc6de3859bb0da0f6817cd88b9cc7dd85b2825f48610438565b60405160200161014591815260200190565b60408051601f1981840301815291905280516020909101201692915050565b60408051808201909152600080825260208201526101806100ce565b604080518082019091526001919091015461ffff808216835262010000909104166020820152919050565b604051632474521560e21b81527f2172861495e7b85edac73e3cd5fbb42dd675baadf627720e687bcfdaca025096600482015233602482015273__$822621bbfca0653c95de9b91f8a9786d65$__906391d1485490604401602060405180830381865af4158015610220573d6000803e3d6000fd5b505050506040513d601f19601f82011682018060405250810190610244919061045f565b6102955760405162461bcd60e51b815260206004820152601f60248201527f456e7469747950726f78793a206f6e6c792061646d696e20616c6c6f7765640060448201526064015b60405180910390fd5b6001600160a01b0381166103035760405162461bcd60e51b815260206004820152602f60248201527f456e7469747950726f78793a20696d706c656d656e746174696f6e206973207460448201526e6865207a65726f206164647265737360881b606482015260840161028c565b600061030d6100ce565b80546001600160a01b0319166001600160a01b03841690811782556040805163054fd4d560e41b815281519394506000936354fd4d50926004808401939192918290030181865afa158015610366573d6000803e3d6000fd5b505050506040513d601f19601f8201168201806040525081019061038a9190610498565b80516001840180546020808501805161ffff908116620100000263ffffffff1990941695811695861793909317909355604080519485529251909116908301529192506001600160a01b038516917f62856e62ea3f3cabc4ad2d32ac6d70e1f55ed589c915439c4dec9f5c729dd0f0910160405180910390a2505050565b60006020828403121561041a57600080fd5b81356001600160a01b038116811461043157600080fd5b9392505050565b8181038181111561045957634e487b7160e01b600052601160045260246000fd5b92915050565b60006020828403121561047157600080fd5b8151801515811461043157600080fd5b805161ffff8116811461049357600080fd5b919050565b6000604082840312156104aa57600080fd5b6040516040810181811067ffffffffffffffff821117156104db57634e487b7160e01b600052604160045260246000fd5b6040526104e783610481565b81526104f560208401610481565b6020820152939250505056fea26469706673582212208acb5ff3093f72ffde142a67993f0f54f06e71ad86b69396d2ebaa633ef3f9a364736f6c63430008180033",
  "linkReferences": {
    "contracts/core-libs/LibAccess.sol": {
      "LibAccess": [
        {
          "length": 20,
          "start": 178
        },
        {
          "length": 20,
          "start": 1562
        }
      ]
    }
  },
  "deployedLinkReferences": {
    "contracts/core-libs/LibAccess.sol": {
      "LibAccess": [
        {
          "length": 20,
          "start": 486
        }
      ]
    }
  }
}