{
  "_format": "hh-sol-artifact-1",
  "contractName": "WorldRegistry",
  "sourceName": "contracts/world/registry/WorldRegistry.sol",
  "abi": [
    {
      "inputs": [
        {
          "components": [
            {
              "internalType": "address",
              "name": "registrarRegistry",
              "type": "address"
            }
          ],
          "internalType": "struct WorldRegistryConstructorArgs",
          "name": "args",
          "type": "tuple"
        }
      ],
      "stateMutability": "nonpayable",
      "type": "constructor"
    },
    {
      "anonymous": false,
      "inputs": [
        {
          "indexed": false,
          "internalType": "address",
          "name": "newImpl",
          "type": "address"
        },
        {
          "components": [
            {
              "internalType": "uint16",
              "name": "major",
              "type": "uint16"
            },
            {
              "internalType": "uint16",
              "name": "minor",
              "type": "uint16"
            }
          ],
          "indexed": false,
          "internalType": "struct Version",
          "name": "version",
          "type": "tuple"
        }
      ],
      "name": "EntityImplementationSet",
      "type": "event"
    },
    {
      "anonymous": false,
      "inputs": [
        {
          "indexed": true,
          "internalType": "address",
          "name": "entity",
          "type": "address"
        },
        {
          "indexed": true,
          "internalType": "address",
          "name": "by",
          "type": "address"
        }
      ],
      "name": "EntityRegistrationRenewed",
      "type": "event"
    },
    {
      "anonymous": false,
      "inputs": [
        {
          "indexed": false,
          "internalType": "address",
          "name": "newImpl",
          "type": "address"
        }
      ],
      "name": "ProxyImplementationSet",
      "type": "event"
    },
    {
      "anonymous": false,
      "inputs": [
        {
          "indexed": true,
          "internalType": "address",
          "name": "entity",
          "type": "address"
        },
        {
          "indexed": true,
          "internalType": "address",
          "name": "owner",
          "type": "address"
        }
      ],
      "name": "RegistryAddedEntity",
      "type": "event"
    },
    {
      "anonymous": false,
      "inputs": [
        {
          "indexed": true,
          "internalType": "address",
          "name": "world",
          "type": "address"
        },
        {
          "indexed": true,
          "internalType": "address",
          "name": "newController",
          "type": "address"
        }
      ],
      "name": "RegistryChangedTermsController",
      "type": "event"
    },
    {
      "anonymous": false,
      "inputs": [
        {
          "indexed": true,
          "internalType": "address",
          "name": "entity",
          "type": "address"
        },
        {
          "indexed": false,
          "internalType": "string",
          "name": "reason",
          "type": "string"
        }
      ],
      "name": "RegistryDeactivatedEntity",
      "type": "event"
    },
    {
      "anonymous": false,
      "inputs": [
        {
          "indexed": true,
          "internalType": "address",
          "name": "entity",
          "type": "address"
        }
      ],
      "name": "RegistryEnforcedDeactivation",
      "type": "event"
    },
    {
      "anonymous": false,
      "inputs": [
        {
          "indexed": true,
          "internalType": "address",
          "name": "entity",
          "type": "address"
        }
      ],
      "name": "RegistryEnforcedRemoval",
      "type": "event"
    },
    {
      "anonymous": false,
      "inputs": [
        {
          "indexed": true,
          "internalType": "address",
          "name": "entity",
          "type": "address"
        }
      ],
      "name": "RegistryReactivatedEntity",
      "type": "event"
    },
    {
      "anonymous": false,
      "inputs": [
        {
          "indexed": true,
          "internalType": "address",
          "name": "entity",
          "type": "address"
        },
        {
          "indexed": false,
          "internalType": "string",
          "name": "reason",
          "type": "string"
        }
      ],
      "name": "RegistryRemovedEntity",
      "type": "event"
    },
    {
      "anonymous": false,
      "inputs": [
        {
          "indexed": true,
          "internalType": "address",
          "name": "old",
          "type": "address"
        },
        {
          "indexed": false,
          "internalType": "address",
          "name": "newVersion",
          "type": "address"
        }
      ],
      "name": "RegistryUpgradedEntity",
      "type": "event"
    },
    {
      "inputs": [
        {
          "internalType": "address[]",
          "name": "signers",
          "type": "address[]"
        }
      ],
      "name": "addSigners",
      "outputs": [],
      "stateMutability": "nonpayable",
      "type": "function"
    },
    {
      "inputs": [
        {
          "internalType": "address",
          "name": "authority",
          "type": "address"
        }
      ],
      "name": "addVectorAddressAuthority",
      "outputs": [],
      "stateMutability": "nonpayable",
      "type": "function"
    },
    {
      "inputs": [
        {
          "internalType": "address",
          "name": "addr",
          "type": "address"
        }
      ],
      "name": "canBeDeactivated",
      "outputs": [
        {
          "internalType": "bool",
          "name": "",
          "type": "bool"
        }
      ],
      "stateMutability": "view",
      "type": "function"
    },
    {
      "inputs": [
        {
          "internalType": "address",
          "name": "addr",
          "type": "address"
        }
      ],
      "name": "canBeRemoved",
      "outputs": [
        {
          "internalType": "bool",
          "name": "",
          "type": "bool"
        }
      ],
      "stateMutability": "view",
      "type": "function"
    },
    {
      "inputs": [
        {
          "components": [
            {
              "internalType": "address",
              "name": "entity",
              "type": "address"
            },
            {
              "internalType": "bytes",
              "name": "entitySignature",
              "type": "bytes"
            },
            {
              "internalType": "uint256",
              "name": "expiration",
              "type": "uint256"
            }
          ],
          "internalType": "struct ChangeEntityTermsArgs",
          "name": "args",
          "type": "tuple"
        }
      ],
      "name": "changeEntityTerms",
      "outputs": [],
      "stateMutability": "nonpayable",
      "type": "function"
    },
    {
      "inputs": [
        {
          "components": [
            {
              "internalType": "address",
              "name": "entity",
              "type": "address"
            },
            {
              "internalType": "bytes",
              "name": "oldControllerSignature",
              "type": "bytes"
            },
            {
              "internalType": "bytes",
              "name": "entitySignature",
              "type": "bytes"
            },
            {
              "internalType": "uint256",
              "name": "expiration",
              "type": "uint256"
            },
            {
              "components": [
                {
                  "internalType": "uint16",
                  "name": "coveragePeriodDays",
                  "type": "uint16"
                },
                {
                  "internalType": "uint16",
                  "name": "gracePeriodDays",
                  "type": "uint16"
                },
                {
                  "internalType": "uint256",
                  "name": "fee",
                  "type": "uint256"
                }
              ],
              "internalType": "struct RegistrationTerms",
              "name": "newTerms",
              "type": "tuple"
            }
          ],
          "internalType": "struct ChangeControllerArgs",
          "name": "args",
          "type": "tuple"
        }
      ],
      "name": "changeWorldRegistrar",
      "outputs": [],
      "stateMutability": "nonpayable",
      "type": "function"
    },
    {
      "inputs": [
        {
          "components": [
            {
              "internalType": "address",
              "name": "owner",
              "type": "address"
            },
            {
              "components": [
                {
                  "internalType": "string",
                  "name": "x",
                  "type": "string"
                },
                {
                  "internalType": "string",
                  "name": "y",
                  "type": "string"
                },
                {
                  "internalType": "string",
                  "name": "z",
                  "type": "string"
                },
                {
                  "internalType": "uint256",
                  "name": "t",
                  "type": "uint256"
                },
                {
                  "internalType": "uint256",
                  "name": "p",
                  "type": "uint256"
                },
                {
                  "internalType": "uint256",
                  "name": "p_sub",
                  "type": "uint256"
                }
              ],
              "internalType": "struct VectorAddress",
              "name": "baseVector",
              "type": "tuple"
            },
            {
              "internalType": "string",
              "name": "name",
              "type": "string"
            },
            {
              "components": [
                {
                  "internalType": "uint16",
                  "name": "coveragePeriodDays",
                  "type": "uint16"
                },
                {
                  "internalType": "uint16",
                  "name": "gracePeriodDays",
                  "type": "uint16"
                },
                {
                  "internalType": "uint256",
                  "name": "fee",
                  "type": "uint256"
                }
              ],
              "internalType": "struct RegistrationTerms",
              "name": "terms",
              "type": "tuple"
            },
            {
              "internalType": "bytes",
              "name": "vectorAuthoritySignature",
              "type": "bytes"
            },
            {
              "internalType": "bytes",
              "name": "initData",
              "type": "bytes"
            }
          ],
          "internalType": "struct CreateWorldArgs",
          "name": "args",
          "type": "tuple"
        }
      ],
      "name": "createWorld",
      "outputs": [
        {
          "internalType": "address",
          "name": "",
          "type": "address"
        }
      ],
      "stateMutability": "nonpayable",
      "type": "function"
    },
    {
      "inputs": [
        {
          "internalType": "contract IRemovableEntity",
          "name": "entity",
          "type": "address"
        },
        {
          "internalType": "string",
          "name": "reason",
          "type": "string"
        }
      ],
      "name": "deactivateEntity",
      "outputs": [],
      "stateMutability": "nonpayable",
      "type": "function"
    },
    {
      "inputs": [
        {
          "internalType": "contract IRemovableEntity",
          "name": "addr",
          "type": "address"
        }
      ],
      "name": "enforceDeactivation",
      "outputs": [],
      "stateMutability": "nonpayable",
      "type": "function"
    },
    {
      "inputs": [
        {
          "internalType": "contract IRemovableEntity",
          "name": "e",
          "type": "address"
        }
      ],
      "name": "enforceRemoval",
      "outputs": [],
      "stateMutability": "nonpayable",
      "type": "function"
    },
    {
      "inputs": [],
      "name": "entityImplementation",
      "outputs": [
        {
          "internalType": "address",
          "name": "",
          "type": "address"
        }
      ],
      "stateMutability": "view",
      "type": "function"
    },
    {
      "inputs": [
        {
          "internalType": "string",
          "name": "nm",
          "type": "string"
        }
      ],
      "name": "getEntityByName",
      "outputs": [
        {
          "internalType": "address",
          "name": "",
          "type": "address"
        }
      ],
      "stateMutability": "view",
      "type": "function"
    },
    {
      "inputs": [
        {
          "internalType": "address",
          "name": "addr",
          "type": "address"
        }
      ],
      "name": "getEntityTerms",
      "outputs": [
        {
          "components": [
            {
              "internalType": "uint16",
              "name": "coveragePeriodDays",
              "type": "uint16"
            },
            {
              "internalType": "uint16",
              "name": "gracePeriodDays",
              "type": "uint16"
            },
            {
              "internalType": "uint256",
              "name": "fee",
              "type": "uint256"
            }
          ],
          "internalType": "struct RegistrationTerms",
          "name": "",
          "type": "tuple"
        }
      ],
      "stateMutability": "view",
      "type": "function"
    },
    {
      "inputs": [
        {
          "internalType": "address",
          "name": "addr",
          "type": "address"
        }
      ],
      "name": "getExpiration",
      "outputs": [
        {
          "internalType": "uint256",
          "name": "",
          "type": "uint256"
        }
      ],
      "stateMutability": "view",
      "type": "function"
    },
    {
      "inputs": [
        {
          "internalType": "address",
          "name": "addr",
          "type": "address"
        }
      ],
      "name": "getLastRenewal",
      "outputs": [
        {
          "internalType": "uint256",
          "name": "",
          "type": "uint256"
        }
      ],
      "stateMutability": "view",
      "type": "function"
    },
    {
      "inputs": [
        {
          "internalType": "bytes32",
          "name": "role",
          "type": "bytes32"
        },
        {
          "internalType": "address",
          "name": "account",
          "type": "address"
        }
      ],
      "name": "grantRole",
      "outputs": [],
      "stateMutability": "nonpayable",
      "type": "function"
    },
    {
      "inputs": [
        {
          "internalType": "bytes32",
          "name": "role",
          "type": "bytes32"
        },
        {
          "internalType": "address",
          "name": "account",
          "type": "address"
        }
      ],
      "name": "hasRole",
      "outputs": [
        {
          "internalType": "bool",
          "name": "",
          "type": "bool"
        }
      ],
      "stateMutability": "view",
      "type": "function"
    },
    {
      "inputs": [
        {
          "internalType": "address",
          "name": "addr",
          "type": "address"
        }
      ],
      "name": "isExpired",
      "outputs": [
        {
          "internalType": "bool",
          "name": "",
          "type": "bool"
        }
      ],
      "stateMutability": "view",
      "type": "function"
    },
    {
      "inputs": [
        {
          "internalType": "address",
          "name": "addr",
          "type": "address"
        }
      ],
      "name": "isInGracePeriod",
      "outputs": [
        {
          "internalType": "bool",
          "name": "",
          "type": "bool"
        }
      ],
      "stateMutability": "view",
      "type": "function"
    },
    {
      "inputs": [
        {
          "internalType": "address",
          "name": "addr",
          "type": "address"
        }
      ],
      "name": "isRegistered",
      "outputs": [
        {
          "internalType": "bool",
          "name": "",
          "type": "bool"
        }
      ],
      "stateMutability": "view",
      "type": "function"
    },
    {
      "inputs": [
        {
          "internalType": "address",
          "name": "a",
          "type": "address"
        }
      ],
      "name": "isSigner",
      "outputs": [
        {
          "internalType": "bool",
          "name": "",
          "type": "bool"
        }
      ],
      "stateMutability": "view",
      "type": "function"
    },
    {
      "inputs": [
        {
          "internalType": "address",
          "name": "a",
          "type": "address"
        }
      ],
      "name": "isVectorAddressAuthority",
      "outputs": [
        {
          "internalType": "bool",
          "name": "",
          "type": "bool"
        }
      ],
      "stateMutability": "view",
      "type": "function"
    },
    {
      "inputs": [],
      "name": "owner",
      "outputs": [
        {
          "internalType": "address",
          "name": "",
          "type": "address"
        }
      ],
      "stateMutability": "view",
      "type": "function"
    },
    {
      "inputs": [],
      "name": "proxyImplementation",
      "outputs": [
        {
          "internalType": "address",
          "name": "",
          "type": "address"
        }
      ],
      "stateMutability": "view",
      "type": "function"
    },
    {
      "inputs": [
        {
          "internalType": "contract IRemovableEntity",
          "name": "entity",
          "type": "address"
        }
      ],
      "name": "reactivateEntity",
      "outputs": [],
      "stateMutability": "nonpayable",
      "type": "function"
    },
    {
      "inputs": [],
      "name": "registrarRegistry",
      "outputs": [
        {
          "internalType": "contract IRegistry",
          "name": "",
          "type": "address"
        }
      ],
      "stateMutability": "view",
      "type": "function"
    },
    {
      "inputs": [
        {
          "internalType": "contract IRemovableEntity",
          "name": "entity",
          "type": "address"
        },
        {
          "internalType": "string",
          "name": "reason",
          "type": "string"
        }
      ],
      "name": "removeEntity",
      "outputs": [],
      "stateMutability": "nonpayable",
      "type": "function"
    },
    {
      "inputs": [
        {
          "internalType": "address[]",
          "name": "signers",
          "type": "address[]"
        }
      ],
      "name": "removeSigners",
      "outputs": [],
      "stateMutability": "nonpayable",
      "type": "function"
    },
    {
      "inputs": [
        {
          "internalType": "address",
          "name": "authority",
          "type": "address"
        }
      ],
      "name": "removeVectorAddressAuthority",
      "outputs": [],
      "stateMutability": "nonpayable",
      "type": "function"
    },
    {
      "inputs": [
        {
          "internalType": "address",
          "name": "addr",
          "type": "address"
        }
      ],
      "name": "renewEntity",
      "outputs": [],
      "stateMutability": "payable",
      "type": "function"
    },
    {
      "inputs": [
        {
          "internalType": "bytes32",
          "name": "role",
          "type": "bytes32"
        },
        {
          "internalType": "address",
          "name": "account",
          "type": "address"
        }
      ],
      "name": "revokeRole",
      "outputs": [],
      "stateMutability": "nonpayable",
      "type": "function"
    },
    {
      "inputs": [
        {
          "internalType": "address",
          "name": "newImpl",
          "type": "address"
        }
      ],
      "name": "setEntityImplementation",
      "outputs": [],
      "stateMutability": "nonpayable",
      "type": "function"
    },
    {
      "inputs": [
        {
          "internalType": "address",
          "name": "o",
          "type": "address"
        }
      ],
      "name": "setOwner",
      "outputs": [],
      "stateMutability": "nonpayable",
      "type": "function"
    },
    {
      "inputs": [
        {
          "internalType": "address",
          "name": "newImpl",
          "type": "address"
        }
      ],
      "name": "setProxyImplementation",
      "outputs": [],
      "stateMutability": "nonpayable",
      "type": "function"
    },
    {
      "inputs": [
        {
          "internalType": "bytes",
          "name": "data",
          "type": "bytes"
        }
      ],
      "name": "upgradeEntity",
      "outputs": [],
      "stateMutability": "nonpayable",
      "type": "function"
    },
    {
      "inputs": [],
      "name": "version",
      "outputs": [
        {
          "components": [
            {
              "internalType": "uint16",
              "name": "major",
              "type": "uint16"
            },
            {
              "internalType": "uint16",
              "name": "minor",
              "type": "uint16"
            }
          ],
          "internalType": "struct Version",
          "name": "",
          "type": "tuple"
        }
      ],
      "stateMutability": "pure",
      "type": "function"
    },
    {
      "stateMutability": "payable",
      "type": "receive"
    }
  ],
  "bytecode": "0x60a06040523480156200001157600080fd5b5060405162003671380380620036718339810160408190526200003491620000c9565b80516001600160a01b0316620000b65760405162461bcd60e51b815260206004820152603860248201527f576f726c6452656769737472793a20726567697374726172207265676973747260448201527f792063616e6e6f74206265207a65726f20616464726573730000000000000000606482015260840160405180910390fd5b516001600160a01b031660805262000131565b600060208284031215620000dc57600080fd5b604051602081016001600160401b03811182821017156200010d57634e487b7160e01b600052604160045260246000fd5b60405282516001600160a01b03811681146200012857600080fd5b81529392505050565b60805161350162000170600039600081816106180152818161078201528181610d5c015281816110ab0152818161168c015261209401526135016000f3fe6080604052600436106102135760003560e01c8063a8c88c1711610118578063d6fbe020116100a0578063e3ffb4bf1161006f578063e3ffb4bf1461065a578063e8906a2d1461067a578063f2c7c9fe1461069a578063f669fb21146106af578063f82e2fb3146106cf57600080fd5b8063d6fbe020146105d3578063db8d7466146105e6578063dbdc4e6214610606578063e2482bf91461063a57600080fd5b8063c3c5a547116100e7578063c3c5a54714610533578063c625e0ad14610553578063cc437f3d14610573578063cdbe221114610593578063d547741f146105b357600080fd5b8063a8c88c17146104b3578063af08d53d146104d3578063b6db923d146104f3578063ba2eb5411461051357600080fd5b80635726c94e1161019b5780637df73e271161016a5780637df73e271461041e5780638d361e431461043e5780638da5cb5b1461045e57806391d14854146104735780639fdcd3a41461049357600080fd5b80635726c94e1461038e5780635fae875b146103ae578063693c79b2146103ce5780636d80bf31146103ee57600080fd5b80632f2ff15d116101e25780632f2ff15d146102b35780633e88a4e2146102d35780634ae134cc146102f35780634ec70a481461031357806354fd4d501461034157600080fd5b806301f242301461021f578063033a5b60146102415780630c870f911461026157806313af40351461029357600080fd5b3661021a57005b600080fd5b34801561022b57600080fd5b5061023f61023a366004612945565b6106fc565b005b34801561024d57600080fd5b5061023f61025c3660046129b1565b61076b565b34801561026d57600080fd5b50610276610972565b6040516001600160a01b0390911681526020015b60405180910390f35b34801561029f57600080fd5b5061023f6102ae366004612945565b61098b565b3480156102bf57600080fd5b5061023f6102ce366004612a05565b610aa4565b3480156102df57600080fd5b506102766102ee366004612a35565b610bbe565b3480156102ff57600080fd5b5061023f61030e366004612945565b610c44565b34801561031f57600080fd5b5061033361032e366004612945565b610c84565b60405190815260200161028a565b34801561034d57600080fd5b50604080518082018252600080825260209182018190528251808401845260018082529083019182528351908152905161ffff16918101919091520161028a565b34801561039a57600080fd5b506103336103a9366004612945565b610d04565b3480156103ba57600080fd5b5061023f6103c9366004612a76565b610d47565b3480156103da57600080fd5b5061023f6103e9366004612945565b611094565b3480156103fa57600080fd5b5061040e610409366004612945565b611261565b604051901515815260200161028a565b34801561042a57600080fd5b5061040e610439366004612945565b6112f5565b34801561044a57600080fd5b5061023f610459366004612ab0565b611338565b34801561046a57600080fd5b50610276611414565b34801561047f57600080fd5b5061040e61048e366004612a05565b611488565b34801561049f57600080fd5b5061023f6104ae366004612945565b61150e565b3480156104bf57600080fd5b5061040e6104ce366004612945565b611632565b3480156104df57600080fd5b5061023f6104ee3660046129b1565b611675565b3480156104ff57600080fd5b5061040e61050e366004612945565b61183d565b34801561051f57600080fd5b5061040e61052e366004612945565b611880565b34801561053f57600080fd5b5061040e61054e366004612945565b6118c3565b34801561055f57600080fd5b5061023f61056e366004612a35565b611906565b34801561057f57600080fd5b5061023f61058e366004612b24565b6119ac565b34801561059f57600080fd5b5061023f6105ae366004612945565b611ad4565b3480156105bf57600080fd5b5061023f6105ce366004612a05565b611bdd565b61023f6105e1366004612945565b611cc7565b3480156105f257600080fd5b5061023f610601366004612945565b611d07565b34801561061257600080fd5b506102767f000000000000000000000000000000000000000000000000000000000000000081565b34801561064657600080fd5b5061040e610655366004612945565b611e24565b34801561066657600080fd5b5061023f610675366004612945565b611e67565b34801561068657600080fd5b5061023f610695366004612ab0565b611f84565b3480156106a657600080fd5b50610276612060565b3480156106bb57600080fd5b506102766106ca366004612b5e565b61207c565b3480156106db57600080fd5b506106ef6106ea366004612945565b612809565b60405161028a9190612b99565b604051630a53217360e11b81526001600160a01b038216600482015273__$ee49c705f117fb4936e35217b9f7544d1c$__906314a642e6906024015b60006040518083038186803b15801561075057600080fd5b505af4158015610764573d6000803e3d6000fd5b5050505050565b60405163c3c5a54760e01b815233600482015283907f00000000000000000000000000000000000000000000000000000000000000006001600160a01b03169063c3c5a54790602401602060405180830381865afa1580156107d1573d6000803e3d6000fd5b505050506040513d601f19601f820116820180604052508101906107f59190612bc3565b801561085e5750336001600160a01b03166386b70bed6040518163ffffffff1660e01b8152600401602060405180830381865afa15801561083a573d6000803e3d6000fd5b505050506040513d601f19601f8201168201806040525081019061085e9190612bc3565b80156108dc5750336001600160a01b0316816001600160a01b03166369bd91946040518163ffffffff1660e01b8152600401602060405180830381865afa1580156108ad573d6000803e3d6000fd5b505050506040513d601f19601f820116820180604052508101906108d19190612be5565b6001600160a01b0316145b6109015760405162461bcd60e51b81526004016108f890612c02565b60405180910390fd5b60405163ede71a1760e01b815273__$ee49c705f117fb4936e35217b9f7544d1c$__9063ede71a179061093c90879087908790600401612c9d565b60006040518083038186803b15801561095457600080fd5b505af4158015610968573d6000803e3d6000fd5b5050505050505050565b600061097c61289e565b546001600160a01b0316919050565b336001600160a01b031673__$822621bbfca0653c95de9b91f8a9786d65$__638da5cb5b6040518163ffffffff1660e01b8152600401602060405180830381865af41580156109de573d6000803e3d6000fd5b505050506040513d601f19601f82011682018060405250810190610a029190612be5565b6001600160a01b031614610a645760405162461bcd60e51b8152602060048201526024808201527f42617365436f72654170703a2063616c6c6572206973206e6f7420746865206f6044820152633bb732b960e11b60648201526084016108f8565b6040516313af403560e01b81526001600160a01b038216600482015273__$822621bbfca0653c95de9b91f8a9786d65$__906313af403590602401610738565b604051632474521560e21b815260008051602061348c833981519152600482015233602482015273__$822621bbfca0653c95de9b91f8a9786d65$__906391d1485490604401602060405180830381865af4158015610b07573d6000803e3d6000fd5b505050506040513d601f19601f82011682018060405250810190610b2b9190612bc3565b610b475760405162461bcd60e51b81526004016108f890612ccb565b604051632f2ff15d60e01b8152600481018390526001600160a01b038216602482015273__$822621bbfca0653c95de9b91f8a9786d65$__90632f2ff15d906044015b60006040518083038186803b158015610ba257600080fd5b505af4158015610bb6573d6000803e3d6000fd5b505050505050565b604051631f44527160e11b815260009073__$32437e42385d73f689821cf4d1e60a07a7$__90633e88a4e290610bfa9086908690600401612d0e565b602060405180830381865af4158015610c17573d6000803e3d6000fd5b505050506040513d601f19601f82011682018060405250810190610c3b9190612be5565b90505b92915050565b6040516347ef542760e01b81526001600160a01b038216600482015273__$ee49c705f117fb4936e35217b9f7544d1c$__906347ef542790602401610738565b6040516309d8e14960e31b81526001600160a01b038216600482015260009073__$ee49c705f117fb4936e35217b9f7544d1c$__90634ec70a48906024015b602060405180830381865af4158015610ce0573d6000803e3d6000fd5b505050506040513d601f19601f82011682018060405250810190610c3e9190612d2a565b604051632b9364a760e11b81526001600160a01b038216600482015260009073__$ee49c705f117fb4936e35217b9f7544d1c$__90635726c94e90602401610cc3565b60405163c3c5a54760e01b81523360048201527f00000000000000000000000000000000000000000000000000000000000000006001600160a01b03169063c3c5a54790602401602060405180830381865afa158015610dab573d6000803e3d6000fd5b505050506040513d601f19601f82011682018060405250810190610dcf9190612bc3565b8015610e385750336001600160a01b03166386b70bed6040518163ffffffff1660e01b8152600401602060405180830381865afa158015610e14573d6000803e3d6000fd5b505050506040513d601f19601f82011682018060405250810190610e389190612bc3565b610e545760405162461bcd60e51b81526004016108f890612d43565b610e6461054e6020830183612945565b610ec05760405162461bcd60e51b815260206004820152602760248201527f576f726c6452656769737472793a20656e74697479206973206e6f74207265676044820152661a5cdd195c995960ca1b60648201526084016108f8565b6000610ecf6020830183612945565b9050806001600160a01b03166386b70bed6040518163ffffffff1660e01b8152600401602060405180830381865afa158015610f0f573d6000803e3d6000fd5b505050506040513d601f19601f82011682018060405250810190610f339190612bc3565b610f8b5760405162461bcd60e51b815260206004820152602360248201527f576f726c6452656769737472793a20656e74697479206973206e6f742061637460448201526269766560e81b60648201526084016108f8565b6040516378ca786760e11b815273__$1ca15fad1cec0861366eb41aea3a1f199e$__9063f194f0ce90610fc2908590600401612deb565b60006040518083038186803b158015610fda57600080fd5b505af4158015610fee573d6000803e3d6000fd5b5050604051637718680d60e01b81523360048201526001600160a01b0384169250637718680d9150602401600060405180830381600087803b15801561103357600080fd5b505af1158015611047573d6000803e3d6000fd5b5033925061105b9150506020840184612945565b6001600160a01b03167f19bc346b4b796437188977ef06e5fda6dfd261cd469f0749542fe2e6d4e3943960405160405180910390a35050565b60405163c3c5a54760e01b815233600482015281907f00000000000000000000000000000000000000000000000000000000000000006001600160a01b03169063c3c5a54790602401602060405180830381865afa1580156110fa573d6000803e3d6000fd5b505050506040513d601f19601f8201168201806040525081019061111e9190612bc3565b80156111875750336001600160a01b03166386b70bed6040518163ffffffff1660e01b8152600401602060405180830381865afa158015611163573d6000803e3d6000fd5b505050506040513d601f19601f820116820180604052508101906111879190612bc3565b80156112055750336001600160a01b0316816001600160a01b03166369bd91946040518163ffffffff1660e01b8152600401602060405180830381865afa1580156111d6573d6000803e3d6000fd5b505050506040513d601f19601f820116820180604052508101906111fa9190612be5565b6001600160a01b0316145b6112215760405162461bcd60e51b81526004016108f890612c02565b60405163699f380760e11b81526001600160a01b038316600482015273__$ee49c705f117fb4936e35217b9f7544d1c$__9063d33e700e90602401610b8a565b604051632474521560e21b81526000805160206134ac83398151915260048201526001600160a01b038216602482015260009073__$822621bbfca0653c95de9b91f8a9786d65$__906391d14854906044015b602060405180830381865af41580156112d1573d6000803e3d6000fd5b505050506040513d601f19601f82011682018060405250810190610c3e9190612bc3565b604051637df73e2760e01b81526001600160a01b038216600482015260009073__$822621bbfca0653c95de9b91f8a9786d65$__90637df73e27906024016112b4565b604051632474521560e21b815260008051602061348c833981519152600482015233602482015273__$822621bbfca0653c95de9b91f8a9786d65$__906391d1485490604401602060405180830381865af415801561139b573d6000803e3d6000fd5b505050506040513d601f19601f820116820180604052508101906113bf9190612bc3565b6113db5760405162461bcd60e51b81526004016108f890612ccb565b604051638d361e4360e01b815273__$822621bbfca0653c95de9b91f8a9786d65$__90638d361e4390610b8a9085908590600401612eaa565b600073__$822621bbfca0653c95de9b91f8a9786d65$__638da5cb5b6040518163ffffffff1660e01b8152600401602060405180830381865af415801561145f573d6000803e3d6000fd5b505050506040513d601f19601f820116820180604052508101906114839190612be5565b905090565b604051632474521560e21b8152600481018390526001600160a01b038216602482015260009073__$822621bbfca0653c95de9b91f8a9786d65$__906391d1485490604401602060405180830381865af41580156114ea573d6000803e3d6000fd5b505050506040513d601f19601f82011682018060405250810190610c3b9190612bc3565b604051632474521560e21b815260008051602061348c833981519152600482015233602482015273__$822621bbfca0653c95de9b91f8a9786d65$__906391d1485490604401602060405180830381865af4158015611571573d6000803e3d6000fd5b505050506040513d601f19601f820116820180604052508101906115959190612bc3565b6115b15760405162461bcd60e51b81526004016108f890612ccb565b6001600160a01b0381166115d75760405162461bcd60e51b81526004016108f890612ef8565b806115e061289e565b80546001600160a01b0319166001600160a01b0392831617905560405190821681527fa09f0ddcda4b1ceaf9e4ad27d689072fdc68f0bead8c52522aec032b3cdcbfa69060200160405180910390a150565b60405163a8c88c1760e01b81526001600160a01b038216600482015260009073__$ee49c705f117fb4936e35217b9f7544d1c$__9063a8c88c17906024016112b4565b60405163c3c5a54760e01b815233600482015283907f00000000000000000000000000000000000000000000000000000000000000006001600160a01b03169063c3c5a54790602401602060405180830381865afa1580156116db573d6000803e3d6000fd5b505050506040513d601f19601f820116820180604052508101906116ff9190612bc3565b80156117685750336001600160a01b03166386b70bed6040518163ffffffff1660e01b8152600401602060405180830381865afa158015611744573d6000803e3d6000fd5b505050506040513d601f19601f820116820180604052508101906117689190612bc3565b80156117e65750336001600160a01b0316816001600160a01b03166369bd91946040518163ffffffff1660e01b8152600401602060405180830381865afa1580156117b7573d6000803e3d6000fd5b505050506040513d601f19601f820116820180604052508101906117db9190612be5565b6001600160a01b0316145b6118025760405162461bcd60e51b81526004016108f890612c02565b604051633f111a5d60e21b815273__$ee49c705f117fb4936e35217b9f7544d1c$__9063fc4469749061093c90879087908790600401612c9d565b60405163b6db923d60e01b81526001600160a01b038216600482015260009073__$ee49c705f117fb4936e35217b9f7544d1c$__9063b6db923d906024016112b4565b60405163ba2eb54160e01b81526001600160a01b038216600482015260009073__$ee49c705f117fb4936e35217b9f7544d1c$__9063ba2eb541906024016112b4565b60405163c3c5a54760e01b81526001600160a01b038216600482015260009073__$32437e42385d73f689821cf4d1e60a07a7$__9063c3c5a547906024016112b4565b61190f336118c3565b6119735760405162461bcd60e51b815260206004820152602f60248201527f4261736552656769737472793a2063616c6c6572206973206e6f74206120726560448201526e676973746572656420656e7469747960881b60648201526084016108f8565b60405163c625e0ad60e01b815273__$e07c5d0b16f026aa0f47759b73b50cc142$__9063c625e0ad90610b8a9085908590600401612d0e565b604051632474521560e21b81527f749410edf1177aefa27612b24d2d51e6441f89613f5ddf9be1d11dfc0d3e4fea600482015233602482015273__$822621bbfca0653c95de9b91f8a9786d65$__906391d1485490604401602060405180830381865af4158015611a21573d6000803e3d6000fd5b505050506040513d601f19601f82011682018060405250810190611a459190612bc3565b611a9d5760405162461bcd60e51b815260206004820152602360248201527f42617365436f72654170703a2063616c6c6572206973206e6f742061207369676044820152623732b960e91b60648201526084016108f8565b604051630bca13f760e41b815273__$32437e42385d73f689821cf4d1e60a07a7$__9063bca13f7090610738908490600401612f4b565b604051632474521560e21b815260008051602061348c833981519152600482015233602482015273__$822621bbfca0653c95de9b91f8a9786d65$__906391d1485490604401602060405180830381865af4158015611b37573d6000803e3d6000fd5b505050506040513d601f19601f82011682018060405250810190611b5b9190612bc3565b611b775760405162461bcd60e51b81526004016108f890612ccb565b6001600160a01b038116611b9d5760405162461bcd60e51b81526004016108f890612ef8565b60405163cdbe221160e01b81526001600160a01b038216600482015273__$e07c5d0b16f026aa0f47759b73b50cc142$__9063cdbe221190602401610738565b604051632474521560e21b815260008051602061348c833981519152600482015233602482015273__$822621bbfca0653c95de9b91f8a9786d65$__906391d1485490604401602060405180830381865af4158015611c40573d6000803e3d6000fd5b505050506040513d601f19601f82011682018060405250810190611c649190612bc3565b611c805760405162461bcd60e51b81526004016108f890612ccb565b60405163d547741f60e01b8152600481018390526001600160a01b038216602482015273__$822621bbfca0653c95de9b91f8a9786d65$__9063d547741f90604401610b8a565b6040516306b7df0160e51b81526001600160a01b038216600482015273__$ee49c705f117fb4936e35217b9f7544d1c$__9063d6fbe02090602401610738565b604051632474521560e21b815260008051602061348c833981519152600482015233602482015273__$822621bbfca0653c95de9b91f8a9786d65$__906391d1485490604401602060405180830381865af4158015611d6a573d6000803e3d6000fd5b505050506040513d601f19601f82011682018060405250810190611d8e9190612bc3565b611daa5760405162461bcd60e51b81526004016108f890612ccb565b6001600160a01b038116611dd05760405162461bcd60e51b81526004016108f890612fa6565b604051632f2ff15d60e01b81526000805160206134ac83398151915260048201526001600160a01b038216602482015273__$822621bbfca0653c95de9b91f8a9786d65$__90632f2ff15d90604401610738565b60405163e2482bf960e01b81526001600160a01b038216600482015260009073__$ee49c705f117fb4936e35217b9f7544d1c$__9063e2482bf9906024016112b4565b604051632474521560e21b815260008051602061348c833981519152600482015233602482015273__$822621bbfca0653c95de9b91f8a9786d65$__906391d1485490604401602060405180830381865af4158015611eca573d6000803e3d6000fd5b505050506040513d601f19601f82011682018060405250810190611eee9190612bc3565b611f0a5760405162461bcd60e51b81526004016108f890612ccb565b6001600160a01b038116611f305760405162461bcd60e51b81526004016108f890612fa6565b60405163d547741f60e01b81526000805160206134ac83398151915260048201526001600160a01b038216602482015273__$822621bbfca0653c95de9b91f8a9786d65$__9063d547741f90604401610738565b604051632474521560e21b815260008051602061348c833981519152600482015233602482015273__$822621bbfca0653c95de9b91f8a9786d65$__906391d1485490604401602060405180830381865af4158015611fe7573d6000803e3d6000fd5b505050506040513d601f19601f8201168201806040525081019061200b9190612bc3565b6120275760405162461bcd60e51b81526004016108f890612ccb565b60405163e8906a2d60e01b815273__$822621bbfca0653c95de9b91f8a9786d65$__9063e8906a2d90610b8a9085908590600401612eaa565b600061206a61289e565b600101546001600160a01b0316919050565b60405163c3c5a54760e01b81523360048201526000907f00000000000000000000000000000000000000000000000000000000000000006001600160a01b03169063c3c5a54790602401602060405180830381865afa1580156120e3573d6000803e3d6000fd5b505050506040513d601f19601f820116820180604052508101906121079190612bc3565b80156121705750336001600160a01b03166386b70bed6040518163ffffffff1660e01b8152600401602060405180830381865afa15801561214c573d6000803e3d6000fd5b505050506040513d601f19601f820116820180604052508101906121709190612bc3565b61218c5760405162461bcd60e51b81526004016108f890612d43565b600061219e60a0840160808501612ff5565b61ffff16116122205760405162461bcd60e51b815260206004820152604260248201527f52656769737472617252656769737472793a20776f726c64207465726d73206760448201527f7261636520706572696f64206d7573742062652067726561746572207468616e606482015261020360f41b608482015260a4016108f8565b600061222f6020840184613012565b6122389061311e565b73__$44c69b7fdad579bfd205e7ce6f076683d8$__906303dc34e9903361226260c08801886131d0565b6040518563ffffffff1660e01b815260040161228194939291906132cf565b602060405180830381865af415801561229e573d6000803e3d6000fd5b505050506040513d601f19601f820116820180604052508101906122c29190612be5565b604051632474521560e21b81526000805160206134ac83398151915260048201526001600160a01b038216602482015290915073__$822621bbfca0653c95de9b91f8a9786d65$__906391d1485490604401602060405180830381865af4158015612331573d6000803e3d6000fd5b505050506040513d601f19601f820116820180604052508101906123559190612bc3565b6123d55760405162461bcd60e51b8152602060048201526044602482018190527f576f726c6452656769737472793a20766563746f72207369676e657220697320908201527f6e6f7420612076616c696420766563746f72206164647265737320617574686f6064820152637269747960e01b608482015260a4016108f8565b6123e26020840184613012565b6123ec90806131d0565b90506000036124505760405162461bcd60e51b815260206004820152602a60248201527f576f726c6452656769737472793a2062617365566563746f722e782063616e6e6044820152696f74206265207a65726f60b01b60648201526084016108f8565b61245d6020840184613012565b61246b9060208101906131d0565b90506000036124cf5760405162461bcd60e51b815260206004820152602a60248201527f576f726c6452656769737472793a2062617365566563746f722e792063616e6e6044820152696f74206265207a65726f60b01b60648201526084016108f8565b6124dc6020840184613012565b6124ea9060408101906131d0565b905060000361254e5760405162461bcd60e51b815260206004820152602a60248201527f576f726c6452656769737472793a2062617365566563746f722e7a2063616e6e6044820152696f74206265207a65726f60b01b60648201526084016108f8565b61255b6020840184613012565b60800135156125bd5760405162461bcd60e51b815260206004820152602860248201527f576f726c6452656769737472793a2062617365566563746f722e70206d757374604482015267206265207a65726f60c01b60648201526084016108f8565b6125ca6020840184613012565b60a00135156126305760405162461bcd60e51b815260206004820152602c60248201527f576f726c6452656769737472793a2062617365566563746f722e705f7375622060448201526b6d757374206265207a65726f60a01b60648201526084016108f8565b6040805160a081019091526000908061264c6020870187612945565b6001600160a01b0316815233602082015260409081019061266f908701876131d0565b8080601f0160208091040260200160405190810160405280939291908181526020018383808284376000920191909152505050908252506020908101906126b890870187613012565b6126c19061311e565b81526020016126d360e08701876131d0565b8080601f016020809104026020016040519081016040528093929190818152602001838380828437600092018290525093909452505060408051808201909152838152929350919050602081016127323688900388016060890161330f565b90526040516317a040f760e01b815290915060009073__$e07c5d0b16f026aa0f47759b73b50cc142$__906317a040f79061277190859060040161335c565b602060405180830381865af415801561278e573d6000803e3d6000fd5b505050506040513d601f19601f820116820180604052508101906127b29190612be5565b90506127c16020870187612945565b6001600160a01b0316816001600160a01b03167f7377123f9eb561d749cd3a89a83c22035cad6473521acbb981ee1c52d8f0248560405160405180910390a395945050505050565b6040805160608101825260008082526020820181905281830152905163f82e2fb360e01b81526001600160a01b038316600482015273__$ee49c705f117fb4936e35217b9f7544d1c$__9063f82e2fb390602401606060405180830381865af415801561287a573d6000803e3d6000fd5b505050506040513d601f19601f82011682018060405250810190610c3e919061341d565b60408051808201909152601681527578722e72656769737472792e73746f726167652e763160501b60209091015260008060ff6128fc60017fc5f6dd0a16ba2679a801f9aed1d229beafc737458cf016d01db07e1357fb69f061346a565b60405160200161290e91815260200190565b60408051601f1981840301815291905280516020909101201692915050565b6001600160a01b038116811461294257600080fd5b50565b60006020828403121561295757600080fd5b81356129628161292d565b9392505050565b60008083601f84011261297b57600080fd5b5081356001600160401b0381111561299257600080fd5b6020830191508360208285010111156129aa57600080fd5b9250929050565b6000806000604084860312156129c657600080fd5b83356129d18161292d565b925060208401356001600160401b038111156129ec57600080fd5b6129f886828701612969565b9497909650939450505050565b60008060408385031215612a1857600080fd5b823591506020830135612a2a8161292d565b809150509250929050565b60008060208385031215612a4857600080fd5b82356001600160401b03811115612a5e57600080fd5b612a6a85828601612969565b90969095509350505050565b600060208284031215612a8857600080fd5b81356001600160401b03811115612a9e57600080fd5b820160e0818503121561296257600080fd5b60008060208385031215612ac357600080fd5b82356001600160401b0380821115612ada57600080fd5b818501915085601f830112612aee57600080fd5b813581811115612afd57600080fd5b8660208260051b8501011115612b1257600080fd5b60209290920196919550909350505050565b600060208284031215612b3657600080fd5b81356001600160401b03811115612b4c57600080fd5b82016060818503121561296257600080fd5b600060208284031215612b7057600080fd5b81356001600160401b03811115612b8657600080fd5b8201610100818503121561296257600080fd5b815161ffff9081168252602080840151909116908201526040808301519082015260608101610c3e565b600060208284031215612bd557600080fd5b8151801515811461296257600080fd5b600060208284031215612bf757600080fd5b81516129628161292d565b6020808252604c908201527f576f726c6452656769737472793a2063616c6c6572206973206e6f742074686560408201527f206163746976656c792072656769737465726564206f776e696e6720636f6d7060608201526b185b9e481bd9881ddbdc9b1960a21b608082015260a00190565b81835281816020850137506000828201602090810191909152601f909101601f19169091010190565b6001600160a01b0384168152604060208201819052600090612cc29083018486612c74565b95945050505050565b60208082526023908201527f42617365436f72654170703a2063616c6c6572206973206e6f7420616e20616460408201526236b4b760e91b606082015260800190565b602081526000612d22602083018486612c74565b949350505050565b600060208284031215612d3c57600080fd5b5051919050565b60208082526033908201527f576f726c6452656769737472793a2063616c6c6572206973206e6f74207468656040820152722072656769737472617220726567697374727960681b606082015260800190565b6000808335601e19843603018112612dad57600080fd5b83016020810192503590506001600160401b03811115612dcc57600080fd5b8036038213156129aa57600080fd5b61ffff8116811461294257600080fd5b6020815260008235612dfc8161292d565b6001600160a01b0316602083810191909152612e1a90840184612d96565b60e06040850152612e3061010085018284612c74565b915050612e406040850185612d96565b848303601f19016060860152612e57838284612c74565b92505050606084013560808401526080840135612e7381612ddb565b61ffff80821660a086015260a08601359150612e8e82612ddb565b1660c084810191909152939093013560e0909201919091525090565b60208082528181018390526000908460408401835b86811015612eed578235612ed28161292d565b6001600160a01b031682529183019190830190600101612ebf565b509695505050505050565b60208082526033908201527f4261736552656769737472793a20696d706c656d656e746174696f6e2063616e6040820152726e6f74206265207a65726f206164647265737360681b606082015260800190565b6020815260008235612f5c8161292d565b6001600160a01b0316602083810191909152612f7a90840184612d96565b60606040850152612f8f608085018284612c74565b915050604084013560608401528091505092915050565b6020808252602f908201527f576f726c6452656769737472793a20617574686f726974792063616e6e6f742060408201526e6265207a65726f206164647265737360881b606082015260800190565b60006020828403121561300757600080fd5b813561296281612ddb565b6000823560be1983360301811261302857600080fd5b9190910192915050565b634e487b7160e01b600052604160045260246000fd5b60405160c081016001600160401b038111828210171561306a5761306a613032565b60405290565b604051606081016001600160401b038111828210171561306a5761306a613032565b600082601f8301126130a357600080fd5b81356001600160401b03808211156130bd576130bd613032565b604051601f8301601f19908116603f011681019082821181831017156130e5576130e5613032565b816040528381528660208588010111156130fe57600080fd5b836020870160208301376000602085830101528094505050505092915050565b600060c0823603121561313057600080fd5b613138613048565b82356001600160401b038082111561314f57600080fd5b61315b36838701613092565b8352602085013591508082111561317157600080fd5b61317d36838701613092565b6020840152604085013591508082111561319657600080fd5b506131a336828601613092565b604083015250606083013560608201526080830135608082015260a083013560a082015280915050919050565b6000808335601e198436030181126131e757600080fd5b8301803591506001600160401b0382111561320157600080fd5b6020019150368190038213156129aa57600080fd5b6000815180845260005b8181101561323c57602081850181015186830182015201613220565b506000602082860101526020601f19601f83011685010191505092915050565b6000815160c0845261327160c0850182613216565b90506020830151848203602086015261328a8282613216565b915050604083015184820360408601526132a48282613216565b915050606083015160608501526080830151608085015260a083015160a08501528091505092915050565b6060815260006132e2606083018761325c565b6001600160a01b03861660208401528281036040840152613304818587612c74565b979650505050505050565b60006060828403121561332157600080fd5b613329613070565b823561333481612ddb565b8152602083013561334481612ddb565b60208201526040928301359281019290925250919050565b60208152600082516080602084015260018060a01b038082511660a08501528060208301511660c085015250604081015160a060e08501526133a2610140850182613216565b90506060820151609f1980868403016101008701526133c1838361325c565b925060808401519350808684030161012087015250506133e18183613216565b9150506020840151613415604085018261ffff80825116835280602083015116602084015250604081015160408301525050565b509392505050565b60006060828403121561342f57600080fd5b613437613070565b825161344281612ddb565b8152602083015161345281612ddb565b60208201526040928301519281019290925250919050565b81810381811115610c3e57634e487b7160e01b600052601160045260246000fdfe2172861495e7b85edac73e3cd5fbb42dd675baadf627720e687bcfdaca025096f4624c0c441d71d84320078141641151f1c713f1d4d2a15382f6a42904d8d138a264697066735822122050ba051828d2f4e854c80cf5a6aaf919b349339a6617efa3aa48afb3ee224dba64736f6c63430008180033",
  "linkReferences": {
    "contracts/core-libs/LibAccess.sol": {
      "LibAccess": [
        {
          "length": 20,
          "start": 2823
        },
        {
          "length": 20,
          "start": 3058
        },
        {
          "length": 20,
          "start": 3133
        },
        {
          "length": 20,
          "start": 3292
        },
        {
          "length": 20,
          "start": 5126
        },
        {
          "length": 20,
          "start": 5254
        },
        {
          "length": 20,
          "start": 5329
        },
        {
          "length": 20,
          "start": 5466
        },
        {
          "length": 20,
          "start": 5512
        },
        {
          "length": 20,
          "start": 5664
        },
        {
          "length": 20,
          "start": 5799
        },
        {
          "length": 20,
          "start": 6999
        },
        {
          "length": 20,
          "start": 7277
        },
        {
          "length": 20,
          "start": 7542
        },
        {
          "length": 20,
          "start": 7701
        },
        {
          "length": 20,
          "start": 7840
        },
        {
          "length": 20,
          "start": 8050
        },
        {
          "length": 20,
          "start": 8192
        },
        {
          "length": 20,
          "start": 8402
        },
        {
          "length": 20,
          "start": 8477
        },
        {
          "length": 20,
          "start": 8614
        },
        {
          "length": 20,
          "start": 9319
        }
      ]
    },
    "contracts/core-libs/LibRegistry.sol": {
      "LibRegistry": [
        {
          "length": 20,
          "start": 6898
        },
        {
          "length": 20,
          "start": 7467
        },
        {
          "length": 20,
          "start": 10425
        }
      ]
    },
    "contracts/core-libs/LibVectorAddress.sol": {
      "LibVectorAddress": [
        {
          "length": 20,
          "start": 9130
        }
      ]
    },
    "contracts/entity-libs/control-change/LibControlChange.sol": {
      "LibControlChange": [
        {
          "length": 20,
          "start": 4362
        }
      ]
    },
    "contracts/entity-libs/registration/LibRegistration.sol": {
      "LibRegistration": [
        {
          "length": 20,
          "start": 3392
        },
        {
          "length": 20,
          "start": 6740
        },
        {
          "length": 20,
          "start": 7196
        }
      ]
    },
    "contracts/entity-libs/removal/LibEntityRemoval.sol": {
      "LibEntityRemoval": [
        {
          "length": 20,
          "start": 2186
        },
        {
          "length": 20,
          "start": 2688
        },
        {
          "length": 20,
          "start": 3538
        },
        {
          "length": 20,
          "start": 3605
        },
        {
          "length": 20,
          "start": 3733
        },
        {
          "length": 20,
          "start": 5039
        },
        {
          "length": 20,
          "start": 6083
        },
        {
          "length": 20,
          "start": 6529
        },
        {
          "length": 20,
          "start": 6606
        },
        {
          "length": 20,
          "start": 6673
        },
        {
          "length": 20,
          "start": 7765
        },
        {
          "length": 20,
          "start": 8117
        },
        {
          "length": 20,
          "start": 10672
        }
      ]
    }
  },
  "deployedLinkReferences": {
    "contracts/core-libs/LibAccess.sol": {
      "LibAccess": [
        {
          "length": 20,
          "start": 2455
        },
        {
          "length": 20,
          "start": 2690
        },
        {
          "length": 20,
          "start": 2765
        },
        {
          "length": 20,
          "start": 2924
        },
        {
          "length": 20,
          "start": 4758
        },
        {
          "length": 20,
          "start": 4886
        },
        {
          "length": 20,
          "start": 4961
        },
        {
          "length": 20,
          "start": 5098
        },
        {
          "length": 20,
          "start": 5144
        },
        {
          "length": 20,
          "start": 5296
        },
        {
          "length": 20,
          "start": 5431
        },
        {
          "length": 20,
          "start": 6631
        },
        {
          "length": 20,
          "start": 6909
        },
        {
          "length": 20,
          "start": 7174
        },
        {
          "length": 20,
          "start": 7333
        },
        {
          "length": 20,
          "start": 7472
        },
        {
          "length": 20,
          "start": 7682
        },
        {
          "length": 20,
          "start": 7824
        },
        {
          "length": 20,
          "start": 8034
        },
        {
          "length": 20,
          "start": 8109
        },
        {
          "length": 20,
          "start": 8246
        },
        {
          "length": 20,
          "start": 8951
        }
      ]
    },
    "contracts/core-libs/LibRegistry.sol": {
      "LibRegistry": [
        {
          "length": 20,
          "start": 6530
        },
        {
          "length": 20,
          "start": 7099
        },
        {
          "length": 20,
          "start": 10057
        }
      ]
    },
    "contracts/core-libs/LibVectorAddress.sol": {
      "LibVectorAddress": [
        {
          "length": 20,
          "start": 8762
        }
      ]
    },
    "contracts/entity-libs/control-change/LibControlChange.sol": {
      "LibControlChange": [
        {
          "length": 20,
          "start": 3994
        }
      ]
    },
    "contracts/entity-libs/registration/LibRegistration.sol": {
      "LibRegistration": [
        {
          "length": 20,
          "start": 3024
        },
        {
          "length": 20,
          "start": 6372
        },
        {
          "length": 20,
          "start": 6828
        }
      ]
    },
    "contracts/entity-libs/removal/LibEntityRemoval.sol": {
      "LibEntityRemoval": [
        {
          "length": 20,
          "start": 1818
        },
        {
          "length": 20,
          "start": 2320
        },
        {
          "length": 20,
          "start": 3170
        },
        {
          "length": 20,
          "start": 3237
        },
        {
          "length": 20,
          "start": 3365
        },
        {
          "length": 20,
          "start": 4671
        },
        {
          "length": 20,
          "start": 5715
        },
        {
          "length": 20,
          "start": 6161
        },
        {
          "length": 20,
          "start": 6238
        },
        {
          "length": 20,
          "start": 6305
        },
        {
          "length": 20,
          "start": 7397
        },
        {
          "length": 20,
          "start": 7749
        },
        {
          "length": 20,
          "start": 10304
        }
      ]
    }
  }
}