{
  "_format": "hh-sol-artifact-1",
  "contractName": "World",
  "sourceName": "contracts/world/instance/World.sol",
  "abi": [
    {
      "inputs": [
        {
          "components": [
            {
              "internalType": "address",
              "name": "owningRegistry",
              "type": "address"
            }
          ],
          "internalType": "struct WorldConstructorArgs",
          "name": "args",
          "type": "tuple"
        }
      ],
      "stateMutability": "nonpayable",
      "type": "constructor"
    },
    {
      "anonymous": false,
      "inputs": [
        {
          "components": [
            {
              "internalType": "uint16",
              "name": "coveragePeriodDays",
              "type": "uint16"
            },
            {
              "internalType": "uint16",
              "name": "gracePeriodDays",
              "type": "uint16"
            },
            {
              "internalType": "uint256",
              "name": "fee",
              "type": "uint256"
            }
          ],
          "indexed": false,
          "internalType": "struct RegistrationTerms",
          "name": "terms",
          "type": "tuple"
        }
      ],
      "name": "AvatarTermsChanged",
      "type": "event"
    },
    {
      "anonymous": false,
      "inputs": [
        {
          "components": [
            {
              "internalType": "uint16",
              "name": "coveragePeriodDays",
              "type": "uint16"
            },
            {
              "internalType": "uint16",
              "name": "gracePeriodDays",
              "type": "uint16"
            },
            {
              "internalType": "uint256",
              "name": "fee",
              "type": "uint256"
            }
          ],
          "indexed": false,
          "internalType": "struct RegistrationTerms",
          "name": "terms",
          "type": "tuple"
        }
      ],
      "name": "CompanyTermsChanged",
      "type": "event"
    },
    {
      "anonymous": false,
      "inputs": [
        {
          "indexed": true,
          "internalType": "address",
          "name": "by",
          "type": "address"
        },
        {
          "indexed": false,
          "internalType": "string",
          "name": "reason",
          "type": "string"
        }
      ],
      "name": "EntityDeactivated",
      "type": "event"
    },
    {
      "anonymous": false,
      "inputs": [
        {
          "indexed": true,
          "internalType": "address",
          "name": "by",
          "type": "address"
        }
      ],
      "name": "EntityReactivated",
      "type": "event"
    },
    {
      "anonymous": false,
      "inputs": [
        {
          "indexed": true,
          "internalType": "address",
          "name": "by",
          "type": "address"
        },
        {
          "indexed": false,
          "internalType": "string",
          "name": "reason",
          "type": "string"
        }
      ],
      "name": "EntityRemoved",
      "type": "event"
    },
    {
      "anonymous": false,
      "inputs": [
        {
          "components": [
            {
              "internalType": "uint16",
              "name": "coveragePeriodDays",
              "type": "uint16"
            },
            {
              "internalType": "uint16",
              "name": "gracePeriodDays",
              "type": "uint16"
            },
            {
              "internalType": "uint256",
              "name": "fee",
              "type": "uint256"
            }
          ],
          "indexed": false,
          "internalType": "struct RegistrationTerms",
          "name": "newTerms",
          "type": "tuple"
        }
      ],
      "name": "TermsChanged",
      "type": "event"
    },
    {
      "anonymous": false,
      "inputs": [
        {
          "indexed": false,
          "internalType": "address",
          "name": "owner",
          "type": "address"
        }
      ],
      "name": "TermsOwnerChanged",
      "type": "event"
    },
    {
      "anonymous": false,
      "inputs": [
        {
          "indexed": false,
          "internalType": "address",
          "name": "company",
          "type": "address"
        },
        {
          "indexed": false,
          "internalType": "string",
          "name": "reason",
          "type": "string"
        }
      ],
      "name": "WorldDeactivatedCompany",
      "type": "event"
    },
    {
      "anonymous": false,
      "inputs": [
        {
          "indexed": false,
          "internalType": "address",
          "name": "company",
          "type": "address"
        }
      ],
      "name": "WorldReactivatedCompany",
      "type": "event"
    },
    {
      "anonymous": false,
      "inputs": [
        {
          "indexed": false,
          "internalType": "address",
          "name": "company",
          "type": "address"
        },
        {
          "indexed": false,
          "internalType": "string",
          "name": "reason",
          "type": "string"
        }
      ],
      "name": "WorldRemovedCompany",
      "type": "event"
    },
    {
      "anonymous": false,
      "inputs": [
        {
          "indexed": true,
          "internalType": "address",
          "name": "newImpl",
          "type": "address"
        },
        {
          "components": [
            {
              "internalType": "uint16",
              "name": "major",
              "type": "uint16"
            },
            {
              "internalType": "uint16",
              "name": "minor",
              "type": "uint16"
            }
          ],
          "indexed": false,
          "internalType": "struct Version",
          "name": "newVersion",
          "type": "tuple"
        }
      ],
      "name": "WorldUpgraded",
      "type": "event"
    },
    {
      "inputs": [
        {
          "internalType": "address[]",
          "name": "signers",
          "type": "address[]"
        }
      ],
      "name": "addSigners",
      "outputs": [],
      "stateMutability": "nonpayable",
      "type": "function"
    },
    {
      "inputs": [
        {
          "internalType": "address",
          "name": "owner",
          "type": "address"
        }
      ],
      "name": "changeTermsOwner",
      "outputs": [],
      "stateMutability": "nonpayable",
      "type": "function"
    },
    {
      "inputs": [
        {
          "internalType": "string",
          "name": "reason",
          "type": "string"
        }
      ],
      "name": "deactivate",
      "outputs": [],
      "stateMutability": "nonpayable",
      "type": "function"
    },
    {
      "inputs": [
        {
          "internalType": "address",
          "name": "company",
          "type": "address"
        },
        {
          "internalType": "string",
          "name": "reason",
          "type": "string"
        }
      ],
      "name": "deactivateCompany",
      "outputs": [],
      "stateMutability": "nonpayable",
      "type": "function"
    },
    {
      "inputs": [],
      "name": "getBaseVector",
      "outputs": [
        {
          "components": [
            {
              "internalType": "string",
              "name": "x",
              "type": "string"
            },
            {
              "internalType": "string",
              "name": "y",
              "type": "string"
            },
            {
              "internalType": "string",
              "name": "z",
              "type": "string"
            },
            {
              "internalType": "uint256",
              "name": "t",
              "type": "uint256"
            },
            {
              "internalType": "uint256",
              "name": "p",
              "type": "uint256"
            },
            {
              "internalType": "uint256",
              "name": "p_sub",
              "type": "uint256"
            }
          ],
          "internalType": "struct VectorAddress",
          "name": "",
          "type": "tuple"
        }
      ],
      "stateMutability": "view",
      "type": "function"
    },
    {
      "inputs": [],
      "name": "getTerms",
      "outputs": [
        {
          "components": [
            {
              "internalType": "uint16",
              "name": "coveragePeriodDays",
              "type": "uint16"
            },
            {
              "internalType": "uint16",
              "name": "gracePeriodDays",
              "type": "uint16"
            },
            {
              "internalType": "uint256",
              "name": "fee",
              "type": "uint256"
            }
          ],
          "internalType": "struct RegistrationTerms",
          "name": "",
          "type": "tuple"
        }
      ],
      "stateMutability": "view",
      "type": "function"
    },
    {
      "inputs": [
        {
          "internalType": "bytes32",
          "name": "role",
          "type": "bytes32"
        },
        {
          "internalType": "address",
          "name": "account",
          "type": "address"
        }
      ],
      "name": "grantRole",
      "outputs": [],
      "stateMutability": "nonpayable",
      "type": "function"
    },
    {
      "inputs": [
        {
          "internalType": "bytes32",
          "name": "role",
          "type": "bytes32"
        },
        {
          "internalType": "address",
          "name": "account",
          "type": "address"
        }
      ],
      "name": "hasRole",
      "outputs": [
        {
          "internalType": "bool",
          "name": "",
          "type": "bool"
        }
      ],
      "stateMutability": "view",
      "type": "function"
    },
    {
      "inputs": [
        {
          "components": [
            {
              "internalType": "address",
              "name": "owner",
              "type": "address"
            },
            {
              "internalType": "address",
              "name": "termsOwner",
              "type": "address"
            },
            {
              "internalType": "string",
              "name": "name",
              "type": "string"
            },
            {
              "components": [
                {
                  "internalType": "string",
                  "name": "x",
                  "type": "string"
                },
                {
                  "internalType": "string",
                  "name": "y",
                  "type": "string"
                },
                {
                  "internalType": "string",
                  "name": "z",
                  "type": "string"
                },
                {
                  "internalType": "uint256",
                  "name": "t",
                  "type": "uint256"
                },
                {
                  "internalType": "uint256",
                  "name": "p",
                  "type": "uint256"
                },
                {
                  "internalType": "uint256",
                  "name": "p_sub",
                  "type": "uint256"
                }
              ],
              "internalType": "struct VectorAddress",
              "name": "vector",
              "type": "tuple"
            },
            {
              "internalType": "bytes",
              "name": "initData",
              "type": "bytes"
            }
          ],
          "internalType": "struct CommonInitArgs",
          "name": "args",
          "type": "tuple"
        }
      ],
      "name": "init",
      "outputs": [],
      "stateMutability": "nonpayable",
      "type": "function"
    },
    {
      "inputs": [],
      "name": "isEntityActive",
      "outputs": [
        {
          "internalType": "bool",
          "name": "",
          "type": "bool"
        }
      ],
      "stateMutability": "view",
      "type": "function"
    },
    {
      "inputs": [],
      "name": "isRemoved",
      "outputs": [
        {
          "internalType": "bool",
          "name": "",
          "type": "bool"
        }
      ],
      "stateMutability": "view",
      "type": "function"
    },
    {
      "inputs": [
        {
          "internalType": "address",
          "name": "a",
          "type": "address"
        }
      ],
      "name": "isSigner",
      "outputs": [
        {
          "internalType": "bool",
          "name": "",
          "type": "bool"
        }
      ],
      "stateMutability": "view",
      "type": "function"
    },
    {
      "inputs": [],
      "name": "isStillActive",
      "outputs": [
        {
          "internalType": "bool",
          "name": "",
          "type": "bool"
        }
      ],
      "stateMutability": "view",
      "type": "function"
    },
    {
      "inputs": [
        {
          "internalType": "address",
          "name": "a",
          "type": "address"
        }
      ],
      "name": "isTermsOwnerSigner",
      "outputs": [
        {
          "internalType": "bool",
          "name": "",
          "type": "bool"
        }
      ],
      "stateMutability": "view",
      "type": "function"
    },
    {
      "inputs": [],
      "name": "name",
      "outputs": [
        {
          "internalType": "string",
          "name": "",
          "type": "string"
        }
      ],
      "stateMutability": "view",
      "type": "function"
    },
    {
      "inputs": [],
      "name": "owner",
      "outputs": [
        {
          "internalType": "address",
          "name": "",
          "type": "address"
        }
      ],
      "stateMutability": "view",
      "type": "function"
    },
    {
      "inputs": [],
      "name": "owningRegistry",
      "outputs": [
        {
          "internalType": "address",
          "name": "",
          "type": "address"
        }
      ],
      "stateMutability": "view",
      "type": "function"
    },
    {
      "inputs": [
        {
          "internalType": "bytes",
          "name": "data",
          "type": "bytes"
        }
      ],
      "name": "postUpgradeInit",
      "outputs": [],
      "stateMutability": "nonpayable",
      "type": "function"
    },
    {
      "inputs": [],
      "name": "reactivate",
      "outputs": [],
      "stateMutability": "nonpayable",
      "type": "function"
    },
    {
      "inputs": [
        {
          "internalType": "address",
          "name": "company",
          "type": "address"
        }
      ],
      "name": "reactivateCompany",
      "outputs": [],
      "stateMutability": "nonpayable",
      "type": "function"
    },
    {
      "inputs": [
        {
          "internalType": "string",
          "name": "reason",
          "type": "string"
        }
      ],
      "name": "remove",
      "outputs": [],
      "stateMutability": "nonpayable",
      "type": "function"
    },
    {
      "inputs": [
        {
          "internalType": "address",
          "name": "company",
          "type": "address"
        },
        {
          "internalType": "string",
          "name": "reason",
          "type": "string"
        }
      ],
      "name": "removeCompany",
      "outputs": [],
      "stateMutability": "nonpayable",
      "type": "function"
    },
    {
      "inputs": [
        {
          "internalType": "address[]",
          "name": "signers",
          "type": "address[]"
        }
      ],
      "name": "removeSigners",
      "outputs": [],
      "stateMutability": "nonpayable",
      "type": "function"
    },
    {
      "inputs": [
        {
          "internalType": "bytes32",
          "name": "role",
          "type": "bytes32"
        },
        {
          "internalType": "address",
          "name": "account",
          "type": "address"
        }
      ],
      "name": "revokeRole",
      "outputs": [],
      "stateMutability": "nonpayable",
      "type": "function"
    },
    {
      "inputs": [
        {
          "internalType": "address",
          "name": "o",
          "type": "address"
        }
      ],
      "name": "setOwner",
      "outputs": [],
      "stateMutability": "nonpayable",
      "type": "function"
    },
    {
      "inputs": [
        {
          "components": [
            {
              "internalType": "uint16",
              "name": "coveragePeriodDays",
              "type": "uint16"
            },
            {
              "internalType": "uint16",
              "name": "gracePeriodDays",
              "type": "uint16"
            },
            {
              "internalType": "uint256",
              "name": "fee",
              "type": "uint256"
            }
          ],
          "internalType": "struct RegistrationTerms",
          "name": "terms",
          "type": "tuple"
        }
      ],
      "name": "setTerms",
      "outputs": [],
      "stateMutability": "nonpayable",
      "type": "function"
    },
    {
      "inputs": [],
      "name": "termsOwner",
      "outputs": [
        {
          "internalType": "address",
          "name": "",
          "type": "address"
        }
      ],
      "stateMutability": "view",
      "type": "function"
    },
    {
      "inputs": [
        {
          "internalType": "bytes",
          "name": "data",
          "type": "bytes"
        }
      ],
      "name": "upgrade",
      "outputs": [],
      "stateMutability": "nonpayable",
      "type": "function"
    },
    {
      "inputs": [],
      "name": "version",
      "outputs": [
        {
          "components": [
            {
              "internalType": "uint16",
              "name": "major",
              "type": "uint16"
            },
            {
              "internalType": "uint16",
              "name": "minor",
              "type": "uint16"
            }
          ],
          "internalType": "struct Version",
          "name": "",
          "type": "tuple"
        }
      ],
      "stateMutability": "pure",
      "type": "function"
    },
    {
      "inputs": [
        {
          "internalType": "uint256",
          "name": "amount",
          "type": "uint256"
        }
      ],
      "name": "withdraw",
      "outputs": [],
      "stateMutability": "nonpayable",
      "type": "function"
    }
  ],
  "bytecode": "0x60a06040523480156200001157600080fd5b506040516200224e3803806200224e8339810160408190526200003491620000d1565b604080516020810190915281516001600160a01b03168082528190620000bb5760405162461bcd60e51b815260206004820152603260248201527f42617365456e746974793a206f776e696e672072656769737472792063616e6e6044820152716f74206265207a65726f206164647265737360701b606482015260840160405180910390fd5b516001600160a01b031660805250620001399050565b600060208284031215620000e457600080fd5b604051602081016001600160401b03811182821017156200011557634e487b7160e01b600052604160045260246000fd5b60405282516001600160a01b03811681146200013057600080fd5b81529392505050565b6080516120d662000178600039600081816103b801528181610730015281816107a801528181610d7e01528181610e40015261117801526120d66000f3fe608060405234801561001057600080fd5b50600436106101da5760003560e01c80637e6e155111610104578063ac60aee5116100a2578063ddf83cff11610071578063ddf83cff14610296578063e20eea0f14610408578063e8906a2d1461041b578063f92dc24f1461042e57600080fd5b8063ac60aee5146103b3578063b05dab4e146103da578063d18611d6146103ed578063d547741f146103f557600080fd5b80638d361e43116100de5780638d361e43146103725780638da5cb5b1461038557806391d148541461038d578063a18cd5cc146103a057600080fd5b80637e6e15511461035757806380599e4b1461035f57806386b70bed146102dc57600080fd5b8063382af56d1161017c57806354fd4d501161014b57806354fd4d50146102e457806369bd9194146103245780637718680d146103445780637df73e27146101fd57600080fd5b8063382af56d14610281578063412456c8146102965780634173b417146102a95780634f05c1c8146102dc57600080fd5b806325394645116101b8578063253946451461023557806327ee999d146102485780632e1a7d4d1461025b5780632f2ff15d1461026e57600080fd5b806306fdde03146101df5780630a7ee8a0146101fd57806313af403514610220575b600080fd5b6101e7610441565b6040516101f49190611783565b60405180910390f35b61021061020b3660046117bb565b6104dc565b60405190151581526020016101f4565b61023361022e3660046117bb565b610561565b005b610233610243366004611821565b610676565b610233610256366004611952565b61079d565b61023361026936600461198f565b61083b565b61023361027c3660046119a8565b6108e4565b6102896109f6565b6040516101f491906119d8565b6102336102a4366004611a5b565b610c1e565b6102b1610cb2565b60408051825161ffff90811682526020808501519091169082015291810151908201526060016101f4565b610210610d41565b604080518082018252600080825260209182018190528251808401845260018082529083019182528351908152905161ffff1691810191909152016101f4565b61032c610d54565b6040516001600160a01b0390911681526020016101f4565b6102336103523660046117bb565b610d73565b610210610e1d565b61023361036d366004611952565b610e35565b610233610380366004611ab0565b610ecf565b61032c610fab565b61021061039b3660046119a8565b61101a565b6102336103ae3660046117bb565b6110a7565b61032c7f000000000000000000000000000000000000000000000000000000000000000081565b6102336103e8366004611bd7565b611136565b61023361116d565b6102336104033660046119a8565b6111fb565b610233610416366004611821565b6112e5565b610233610429366004611ab0565b61138c565b61023361043c366004611cae565b611468565b606061044b611542565b600101805461045990611cc6565b80601f016020809104026020016040519081016040528092919081815260200182805461048590611cc6565b80156104d25780601f106104a7576101008083540402835291602001916104d2565b820191906000526020600020905b8154815290600101906020018083116104b557829003601f168201915b5050505050905090565b604051637df73e2760e01b81526001600160a01b038216600482015260009073__$822621bbfca0653c95de9b91f8a9786d65$__90637df73e2790602401602060405180830381865af4158015610537573d6000803e3d6000fd5b505050506040513d601f19601f8201168201806040525081019061055b9190611cfa565b92915050565b336001600160a01b031673__$822621bbfca0653c95de9b91f8a9786d65$__638da5cb5b6040518163ffffffff1660e01b8152600401602060405180830381865af41580156105b4573d6000803e3d6000fd5b505050506040513d601f19601f820116820180604052508101906105d89190611d1c565b6001600160a01b0316146106075760405162461bcd60e51b81526004016105fe90611d39565b60405180910390fd5b6040516313af403560e01b81526001600160a01b038216600482015273__$822621bbfca0653c95de9b91f8a9786d65$__906313af4035906024015b60006040518083038186803b15801561065b57600080fd5b505af415801561066f573d6000803e3d6000fd5b5050505050565b604051632474521560e21b8152600080516020612081833981519152600482015233602482015273__$822621bbfca0653c95de9b91f8a9786d65$__906391d1485490604401602060405180830381865af41580156106d9573d6000803e3d6000fd5b505050506040513d601f19601f820116820180604052508101906106fd9190611cfa565b6107195760405162461bcd60e51b81526004016105fe90611d7c565b60405163c625e0ad60e01b81526001600160a01b037f0000000000000000000000000000000000000000000000000000000000000000169063c625e0ad906107679085908590600401611dbe565b600060405180830381600087803b15801561078157600080fd5b505af1158015610795573d6000803e3d6000fd5b505050505050565b336001600160a01b037f000000000000000000000000000000000000000000000000000000000000000016146107e55760405162461bcd60e51b81526004016105fe90611ded565b60006107ef611542565b805460ff191691151591909117905560405133907f246589c99dd263c9b64a2b544e24074c282ca479ba3d2a0e649f9eeaca1e2d6290610830908490611783565b60405180910390a250565b336001600160a01b031673__$822621bbfca0653c95de9b91f8a9786d65$__638da5cb5b6040518163ffffffff1660e01b8152600401602060405180830381865af415801561088e573d6000803e3d6000fd5b505050506040513d601f19601f820116820180604052508101906108b29190611d1c565b6001600160a01b0316146108d85760405162461bcd60e51b81526004016105fe90611d39565b6108e1816115d8565b50565b604051632474521560e21b8152600080516020612081833981519152600482015233602482015273__$822621bbfca0653c95de9b91f8a9786d65$__906391d1485490604401602060405180830381865af4158015610947573d6000803e3d6000fd5b505050506040513d601f19601f8201168201806040525081019061096b9190611cfa565b6109875760405162461bcd60e51b81526004016105fe90611d7c565b604051632f2ff15d60e01b8152600481018390526001600160a01b038216602482015273__$822621bbfca0653c95de9b91f8a9786d65$__90632f2ff15d906044015b60006040518083038186803b1580156109e257600080fd5b505af4158015610795573d6000803e3d6000fd5b610a2f6040518060c001604052806060815260200160608152602001606081526020016000815260200160008152602001600081525090565b610a37611542565b6002016040518060c0016040529081600082018054610a5590611cc6565b80601f0160208091040260200160405190810160405280929190818152602001828054610a8190611cc6565b8015610ace5780601f10610aa357610100808354040283529160200191610ace565b820191906000526020600020905b815481529060010190602001808311610ab157829003601f168201915b50505050508152602001600182018054610ae790611cc6565b80601f0160208091040260200160405190810160405280929190818152602001828054610b1390611cc6565b8015610b605780601f10610b3557610100808354040283529160200191610b60565b820191906000526020600020905b815481529060010190602001808311610b4357829003601f168201915b50505050508152602001600282018054610b7990611cc6565b80601f0160208091040260200160405190810160405280929190818152602001828054610ba590611cc6565b8015610bf25780601f10610bc757610100808354040283529160200191610bf2565b820191906000526020600020905b815481529060010190602001808311610bd557829003601f168201915b505050505081526020016003820154815260200160048201548152602001600582015481525050905090565b604051637df73e2760e01b815233600482015273__$822621bbfca0653c95de9b91f8a9786d65$__90637df73e2790602401602060405180830381865af4158015610c6d573d6000803e3d6000fd5b505050506040513d601f19601f82011682018060405250810190610c919190611cfa565b610cad5760405162461bcd60e51b81526004016105fe90611e3a565b505050565b604080516060810182526000808252602082018190529181019190915273__$a1129a45db75139dbc9de44150ec61e36a$__630e7281e26040518163ffffffff1660e01b8152600401606060405180830381865af4158015610d18573d6000803e3d6000fd5b505050506040513d601f19601f82011682018060405250810190610d3c9190611e8c565b905090565b6000610d4b611542565b5460ff16919050565b6000610d5e611542565b546201000090046001600160a01b0316919050565b336001600160a01b037f00000000000000000000000000000000000000000000000000000000000000001614610dbb5760405162461bcd60e51b81526004016105fe90611ded565b80610dc4611542565b805462010000600160b01b031916620100006001600160a01b039384160217905560405190821681527fba3ff43b451a58d82ad56d1814738ee3057f3409cfdd76092b8d7801081797f89060200160405180910390a150565b6000610e27611542565b54610100900460ff16919050565b336001600160a01b037f00000000000000000000000000000000000000000000000000000000000000001614610e7d5760405162461bcd60e51b81526004016105fe90611ded565b6001610e87611542565b80549115156101000261ff001990921691909117905560405133907fbf430175840309fcb4cce13557429998477f9f95733cb0d42c170af8aa225d0690610830908490611783565b604051632474521560e21b8152600080516020612081833981519152600482015233602482015273__$822621bbfca0653c95de9b91f8a9786d65$__906391d1485490604401602060405180830381865af4158015610f32573d6000803e3d6000fd5b505050506040513d601f19601f82011682018060405250810190610f569190611cfa565b610f725760405162461bcd60e51b81526004016105fe90611d7c565b604051638d361e4360e01b815273__$822621bbfca0653c95de9b91f8a9786d65$__90638d361e43906109ca9085908590600401611ef7565b600073__$822621bbfca0653c95de9b91f8a9786d65$__638da5cb5b6040518163ffffffff1660e01b8152600401602060405180830381865af4158015610ff6573d6000803e3d6000fd5b505050506040513d601f19601f82011682018060405250810190610d3c9190611d1c565b604051632474521560e21b8152600481018390526001600160a01b038216602482015260009073__$822621bbfca0653c95de9b91f8a9786d65$__906391d1485490604401602060405180830381865af415801561107c573d6000803e3d6000fd5b505050506040513d601f19601f820116820180604052508101906110a09190611cfa565b9392505050565b604051637df73e2760e01b815233600482015273__$822621bbfca0653c95de9b91f8a9786d65$__90637df73e2790602401602060405180830381865af41580156110f6573d6000803e3d6000fd5b505050506040513d601f19601f8201168201806040525081019061111a9190611cfa565b6108e15760405162461bcd60e51b81526004016105fe90611e3a565b604051633e276e2560e01b815273__$a1129a45db75139dbc9de44150ec61e36a$__90633e276e2590610643908490600401611f45565b336001600160a01b037f000000000000000000000000000000000000000000000000000000000000000016146111b55760405162461bcd60e51b81526004016105fe90611ded565b60016111bf611542565b805460ff191691151591909117905560405133907f54ca6a4cb143be493713a7079cc0d6cdbbf0688ee68398b4354b056088f2cbf590600090a2565b604051632474521560e21b8152600080516020612081833981519152600482015233602482015273__$822621bbfca0653c95de9b91f8a9786d65$__906391d1485490604401602060405180830381865af415801561125e573d6000803e3d6000fd5b505050506040513d601f19601f820116820180604052508101906112829190611cfa565b61129e5760405162461bcd60e51b81526004016105fe90611d7c565b60405163d547741f60e01b8152600481018390526001600160a01b038216602482015273__$822621bbfca0653c95de9b91f8a9786d65$__9063d547741f906044016109ca565b604051632474521560e21b8152600080516020612081833981519152600482015233602482015273__$822621bbfca0653c95de9b91f8a9786d65$__906391d1485490604401602060405180830381865af4158015611348573d6000803e3d6000fd5b505050506040513d601f19601f8201168201806040525081019061136c9190611cfa565b6113885760405162461bcd60e51b81526004016105fe90611d7c565b5050565b604051632474521560e21b8152600080516020612081833981519152600482015233602482015273__$822621bbfca0653c95de9b91f8a9786d65$__906391d1485490604401602060405180830381865af41580156113ef573d6000803e3d6000fd5b505050506040513d601f19601f820116820180604052508101906114139190611cfa565b61142f5760405162461bcd60e51b81526004016105fe90611d7c565b60405163e8906a2d60e01b815273__$822621bbfca0653c95de9b91f8a9786d65$__9063e8906a2d906109ca9085908590600401611ef7565b604051632474521560e21b8152600080516020612081833981519152600482015233602482015273__$822621bbfca0653c95de9b91f8a9786d65$__906391d1485490604401602060405180830381865af41580156114cb573d6000803e3d6000fd5b505050506040513d601f19601f820116820180604052508101906114ef9190611cfa565b61150b5760405162461bcd60e51b81526004016105fe90611d7c565b6040516301e04d3760e11b815273__$a1129a45db75139dbc9de44150ec61e36a$__906303c09a6e90610643908490600401612022565b60408051808201909152601881527f78722e61637469766174696f6e2e76312e73746f72616765000000000000000060209091015260008060ff6115a760017fbdfc4f9279b6914d072e91c3452c88ca0bfbcebcba4de5f40748c7663e67029e61205f565b6040516020016115b991815260200190565b60408051601f1981840301815291905280516020909101201692915050565b600073__$822621bbfca0653c95de9b91f8a9786d65$__638da5cb5b6040518163ffffffff1660e01b8152600401602060405180830381865af4158015611623573d6000803e3d6000fd5b505050506040513d601f19601f820116820180604052508101906116479190611d1c565b90506001600160a01b03811633146116ad5760405162461bcd60e51b8152602060048201526024808201527f46756e64734d6f64756c653a2063616c6c6572206973206e6f7420746865206f6044820152633bb732b960e11b60648201526084016105fe565b814710156117075760405162461bcd60e51b815260206004820152602160248201527f46756e64734d6f64756c653a20696e73756666696369656e742062616c616e636044820152606560f81b60648201526084016105fe565b6040516001600160a01b0382169083156108fc029084906000818181858888f19350505050158015610cad573d6000803e3d6000fd5b6000815180845260005b8181101561176357602081850181015186830182015201611747565b506000602082860101526020601f19601f83011685010191505092915050565b6020815260006110a0602083018461173d565b6001600160a01b03811681146108e157600080fd5b80356117b681611796565b919050565b6000602082840312156117cd57600080fd5b81356110a081611796565b60008083601f8401126117ea57600080fd5b50813567ffffffffffffffff81111561180257600080fd5b60208301915083602082850101111561181a57600080fd5b9250929050565b6000806020838503121561183457600080fd5b823567ffffffffffffffff81111561184b57600080fd5b611857858286016117d8565b90969095509350505050565b634e487b7160e01b600052604160045260246000fd5b60405160c0810167ffffffffffffffff8111828210171561189c5761189c611863565b60405290565b60405160a0810167ffffffffffffffff8111828210171561189c5761189c611863565b600082601f8301126118d657600080fd5b813567ffffffffffffffff808211156118f1576118f1611863565b604051601f8301601f19908116603f0116810190828211818310171561191957611919611863565b8160405283815286602085880101111561193257600080fd5b836020870160208301376000602085830101528094505050505092915050565b60006020828403121561196457600080fd5b813567ffffffffffffffff81111561197b57600080fd5b611987848285016118c5565b949350505050565b6000602082840312156119a157600080fd5b5035919050565b600080604083850312156119bb57600080fd5b8235915060208301356119cd81611796565b809150509250929050565b602081526000825160c060208401526119f460e084018261173d565b90506020840151601f1980858403016040860152611a12838361173d565b9250604086015191508085840301606086015250611a30828261173d565b91505060608401516080840152608084015160a084015260a084015160c08401528091505092915050565b600080600060408486031215611a7057600080fd5b8335611a7b81611796565b9250602084013567ffffffffffffffff811115611a9757600080fd5b611aa3868287016117d8565b9497909650939450505050565b60008060208385031215611ac357600080fd5b823567ffffffffffffffff80821115611adb57600080fd5b818501915085601f830112611aef57600080fd5b813581811115611afe57600080fd5b8660208260051b8501011115611b1357600080fd5b60209290920196919550909350505050565b600060c08284031215611b3757600080fd5b611b3f611879565b9050813567ffffffffffffffff80821115611b5957600080fd5b611b65858386016118c5565b83526020840135915080821115611b7b57600080fd5b611b87858386016118c5565b60208401526040840135915080821115611ba057600080fd5b50611bad848285016118c5565b604083015250606082013560608201526080820135608082015260a082013560a082015292915050565b600060208284031215611be957600080fd5b813567ffffffffffffffff80821115611c0157600080fd5b9083019060a08286031215611c1557600080fd5b611c1d6118a2565b611c26836117ab565b8152611c34602084016117ab565b6020820152604083013582811115611c4b57600080fd5b611c57878286016118c5565b604083015250606083013582811115611c6f57600080fd5b611c7b87828601611b25565b606083015250608083013582811115611c9357600080fd5b611c9f878286016118c5565b60808301525095945050505050565b600060608284031215611cc057600080fd5b50919050565b600181811c90821680611cda57607f821691505b602082108103611cc057634e487b7160e01b600052602260045260246000fd5b600060208284031215611d0c57600080fd5b815180151581146110a057600080fd5b600060208284031215611d2e57600080fd5b81516110a081611796565b60208082526023908201527f42617365456e746974793a2063616c6c6572206973206e6f7420746865206f776040820152623732b960e91b606082015260800190565b60208082526022908201527f42617365456e746974793a2063616c6c6572206973206e6f7420616e2061646d60408201526134b760f11b606082015260800190565b60208152816020820152818360408301376000818301604090810191909152601f909201601f19160101919050565b6020808252602d908201527f42617365456e746974793a2063616c6c6572206973206e6f7420746865206f7760408201526c6e696e6720726567697374727960981b606082015260800190565b60208082526022908201527f42617365456e746974793a2063616c6c6572206973206e6f742061207369676e60408201526132b960f11b606082015260800190565b61ffff811681146108e157600080fd5b600060608284031215611e9e57600080fd5b6040516060810181811067ffffffffffffffff82111715611ec157611ec1611863565b6040528251611ecf81611e7c565b81526020830151611edf81611e7c565b60208201526040928301519281019290925250919050565b60208082528181018390526000908460408401835b86811015611f3a578235611f1f81611796565b6001600160a01b031682529183019190830190600101611f0c565b509695505050505050565b60208152600060018060a01b0380845116602084015280602085015116604084015250604083015160a06060840152611f8160c084018261173d565b90506060840151601f1980858403016080860152815160c08452611fa860c085018261173d565b905060208301518482036020860152611fc1828261173d565b91505060408301518482036040860152611fdb828261173d565b915050606083015160608501526080830151608085015260a083015160a085015260808701519350818682030160a0870152612017818561173d565b979650505050505050565b60608101823561203181611e7c565b61ffff908116835260208401359061204882611e7c565b166020830152604092830135929091019190915290565b8181038181111561055b57634e487b7160e01b600052601160045260246000fdfe2172861495e7b85edac73e3cd5fbb42dd675baadf627720e687bcfdaca025096a2646970667358221220d8d9c0efb9b60200f5b7e7f21b44868755d32ed0b5b7e4a129b8af054f37dd6164736f6c63430008180033",
  "linkReferences": {
    "contracts/core-libs/LibAccess.sol": {
      "LibAccess": [
        {
          "length": 20,
          "start": 1653
        },
        {
          "length": 20,
          "start": 1765
        },
        {
          "length": 20,
          "start": 1949
        },
        {
          "length": 20,
          "start": 2071
        },
        {
          "length": 20,
          "start": 2495
        },
        {
          "length": 20,
          "start": 2693
        },
        {
          "length": 20,
          "start": 2852
        },
        {
          "length": 20,
          "start": 3499
        },
        {
          "length": 20,
          "start": 4208
        },
        {
          "length": 20,
          "start": 4345
        },
        {
          "length": 20,
          "start": 4391
        },
        {
          "length": 20,
          "start": 4538
        },
        {
          "length": 20,
          "start": 4660
        },
        {
          "length": 20,
          "start": 5020
        },
        {
          "length": 20,
          "start": 5179
        },
        {
          "length": 20,
          "start": 5254
        },
        {
          "length": 20,
          "start": 5421
        },
        {
          "length": 20,
          "start": 5558
        },
        {
          "length": 20,
          "start": 5641
        },
        {
          "length": 20,
          "start": 5972
        }
      ]
    },
    "contracts/world/libs/LibWorld.sol": {
      "LibWorld": [
        {
          "length": 20,
          "start": 3657
        },
        {
          "length": 20,
          "start": 4797
        },
        {
          "length": 20,
          "start": 5778
        }
      ]
    }
  },
  "deployedLinkReferences": {
    "contracts/core-libs/LibAccess.sol": {
      "LibAccess": [
        {
          "length": 20,
          "start": 1277
        },
        {
          "length": 20,
          "start": 1389
        },
        {
          "length": 20,
          "start": 1573
        },
        {
          "length": 20,
          "start": 1695
        },
        {
          "length": 20,
          "start": 2119
        },
        {
          "length": 20,
          "start": 2317
        },
        {
          "length": 20,
          "start": 2476
        },
        {
          "length": 20,
          "start": 3123
        },
        {
          "length": 20,
          "start": 3832
        },
        {
          "length": 20,
          "start": 3969
        },
        {
          "length": 20,
          "start": 4015
        },
        {
          "length": 20,
          "start": 4162
        },
        {
          "length": 20,
          "start": 4284
        },
        {
          "length": 20,
          "start": 4644
        },
        {
          "length": 20,
          "start": 4803
        },
        {
          "length": 20,
          "start": 4878
        },
        {
          "length": 20,
          "start": 5045
        },
        {
          "length": 20,
          "start": 5182
        },
        {
          "length": 20,
          "start": 5265
        },
        {
          "length": 20,
          "start": 5596
        }
      ]
    },
    "contracts/world/libs/LibWorld.sol": {
      "LibWorld": [
        {
          "length": 20,
          "start": 3281
        },
        {
          "length": 20,
          "start": 4421
        },
        {
          "length": 20,
          "start": 5402
        }
      ]
    }
  }
}