{
  "_format": "hh-sol-artifact-1",
  "contractName": "LibAvatarV1Storage",
  "sourceName": "contracts/libraries/LibAvatarV1Storage.sol",
  "abi": [
    {
      "inputs": [],
      "name": "AVATAR_V1_STORAGE_SLOT",
      "outputs": [
        {
          "internalType": "bytes32",
          "name": "",
          "type": "bytes32"
        }
      ],
      "stateMutability": "view",
      "type": "function"
    }
  ],
  "bytecode": "0x60a6610038600b82828239805160001a607314602b57634e487b7160e01b600052600060045260246000fd5b30600052607381538281f3fe730000000000000000000000000000000000000000301460806040526004361060335760003560e01c80637c8fb416146038575b600080fd5b605e7fd38682225e685e93013f8a112db34d1d514857ac4394636132822a0c0fe2045081565b60405190815260200160405180910390f3fea2646970667358221220087b2eb3d5dc2697d26b037c2499c0dd130cebea5b5b71a98c696d50be22c04f64736f6c63430008180033",
  "linkReferences": {},
  "deployedLinkReferences": {}
}